100C0006291102820244068   0000003600001040511191559159152436900051175X66QG4I0XO30360528   30360528   549930360528303605280238959Foodpanda Myanmar        Kuala LumpurMYS000000000000000000000000000115915200029160104   29160104   007            005282101100   1000011     01200 0000000001958407000542200000036000010430001000C0000000000284030001000CUPF                                       
100C0006244310106588300   000000698000104051116451523159901833005116K1GJXT3O4M230360528   30360528   549930360528303605280238959Foodpanda Myanmar        Kuala LumpurMYS000000000000000000000000000123159900029160104   29160104   007            005282101400   1000021     01200 0000000003788407000542200000069800010430001000C0000000000484030001000CUPF                                       
100C0006244310031624030   000001410000104051119155522189377155005116MRX9ADZ5V0N30360528   30360528   549930360528303605280238959Foodpanda Myanmar        Kuala LumpurMYS000000000000000000000000000122189300029160104   29160104   007            005282101300   1000021     01200 0000000007658407000542200000141000010430001000C0000000000884030001000CUPF                                       
100C0006244310032298669   000001597500104051120095623262215310505116K1GJXT3O5EG30360528   30360528   549930360528303605280238959Foodpanda Myanmar        Kuala LumpurMYS000000000000000000000000000123262200029160104   29160104   007            005282101300   1000021     01200 0000000008668407000542200000159750010430001000C0000000000984030001000CUPF                                       
100C0006291102820244068   0000002300001040511150609157302436900051175X66QG4HZIA30360528   30360528   549930360528303605280238959Foodpanda Myanmar        Kuala LumpurMYS000000000000000000000000000115730200029160104   29160104   007            005282101100   1000011     01200 0000000001258407000542200000023000010430001000C0000000000184030001000CUPF                                       
101C0006244310031624030   000000450500104051223282211676677155005116MRX9ADZ5V0N30360528   30360528   549930360528303605280238959Foodpanda Myanmar        Kuala LumpurMYS100051119155522189305110000111676600029160104   29160104   007 000        005282101300   0000021     01200 0000000002448407000542200000045050010430001000D0000000000284030001000CUPF                                       
100C0006291102820236031   0000003150001040512142638155180436900051275X66QG4I5L230360528   30360528   412130360528303605280001399Grab* A-3FWDV6RGWH89     Singapore   SGP000000000000000000000000000115518000029160104   29160104   007            005282101100   1000011     01200 0000000001718407000542200000031500010430001000C0000000000284030001000CUPF                                       
100C0006244310102082969   0000000026978400511123716330530307753051121300333053026480840   26480840   581200000001601103019138787UBER   * EATS PENDING    SAN FRANCISCUSA000000000000000000000000000133053000029160104   29160104   007            008400101400   1000021     01200 0000000026978403000100000000500441810431855550C0000000002784030001000CUPF                                       
100E0006244310105494609   0000000025378400509043545000776046263050921284221278326480840   26480840   549995821553601132006710506MARKET STREET MARKET     LOWELL      USA000000000000000000000000000100077600029160104   29160104   003            008400101400   0000021     05200 0000000025378403000100000000470753010431855550C0000000000584030001000CUPF                                                       052000                                                                                                                                                                                                                                                                                
100E0006244310105494609   0000000029468400505043700000322575570050521241039108526480840   26480840   549995821553601132006710506MARKET STREET MARKET     LOWELL      USA000000000000000000000000000100032200029160104   29160104   003            008400101400   0000021     05200 0000000029468403000100000000546645010431855550C0000000000684030001000CUPF                                                       052000                                                                                                                                                                                                                                                                                
100C0006244310102082969   0000000010088400511001341332073989902051121301533207326480840   26480840   581200000001601103019138787UBER   * EATS PENDING    SAN FRANCISCUSA000000000000000000000000000133207300029160104   29160104   007            008400101400   1000021     01200 0000000010088403000100000000187039410431855550C0000000001084030001000CUPF                                       
100C0006244310102082969   0000000003008400511013728330124311890051121301633012426480840   26480840   581200000001601103019138787UBER   *EATS             SAN FRANCISCUSA000000000000000000000000000133012400029160104   29160104   007            008400101400   1000021     01200 0000000003008403000100000000055666510431855550C0000000000384030001000CUPF                                       
100C0006244310102082969   0000000003008400511141802382967394228051121310538296726480840   26480840   581200000001601103019138787UBER   *EATS             SAN FRANCISCUSA000000000000000000000000000138296700029160104   29160104   007            008400101400   1000021     01200 0000000003008403000100000000055666510431855550C0000000000384030001000CUPF                                       
100E0006244310034492047   000000000895840050918550200596680604305092271N370HAS226480840   26480840   58126R110302601105099150004AMYS DRIVE THRU - SFO    SAN FRANCISCUSA000000000000000000000000000100596600029160104   29160104   003            008400101300   0000021     05200 0000000008958403000100000000166071710431855550C0000000000284030001000CUPF                                                       052000                                                                                                                                                                                                                                                                                
