100C0006291102820265667   00000085300010409281333091467965001100928783XXYTRCADK30360528   30360528   549930360528303605280238959Foodpanda Myanmar        Kuala LumpurMYS000000000000000000000000000114679600029160104   29160104   007            005282101100   1000011     01200 0000000004878407000571500000085300010430001000C0000000000584030001000CUPF                                       
100C0006244310031352954   0000008050001040929164104156605478237092975DH8M8VYQGC30360528   30360528   412130360528303605280001399Grab A-2IXR69LWWHEJ      Singapore   SGP000000000000000000000000000115660500029160104   29160104   007            005282101300   1000021     01200 0000000004608407000571500000080500010430001000C0000000000584030001000CUPF                                       
100C0006244310031352954   0000015000001040929120608154185452708092975DH8M8VYOL730360528   30360528   412130360528303605280001399Grab A-2IX2WPTWWJXQ      Singapore   SGP000000000000000000000000000115418500029160104   29160104   007            005282101300   1000021     01200 0000000008578407000571500000150000010430001000C0000000000984030001000CUPF                                       
100C0006291102820214152   000000381000104092813505922435050011009286M88B66QJEH430360528   30360528   549930360528303605280238959Foodpanda Myanmar        Kuala LumpurMYS000000000000000000000000000122435000029160104   29160104   007            005282101100   1000011     01200 0000000002188407000571500000038100010430001000C0000000000284030001000CUPF                                       
100C0006244310036366868   00000084600010409291442301452348271330929783XXYTRCGVU30360528   30360528   412130360528303605280001399Grab A-2IXGAUJWWEJH      Singapore   SGP000000000000000000000000000114523400029160104   29160104   007            005282101300   1000021     01200 0000000004838407000571500000084600010430001000C0000000000584030001000CUPF                                       
100C0006244310036366868   00000005000010409291502351453845732220929783XXYTRCH0030360528   30360528   412130360528303605280001399Grab A-2IXGAUJWWEJH      Singapore   SGP000000000000000000000000000114538400029160104   29160104   007            005282101300   1000021     01200 0000000000298407000571500000005000010430001000D0000000000084030001000CUPF                                       
100C0006291102820202363   000000455000104092815033622464250011009286M88B66QJEP830360528   30360528   549930360528303605280238959Foodpanda Myanmar        Kuala LumpurMYS000000000000000000000000000122464200029160104   29160104   007            005282101100   1000011     01200 0000000002608407000571500000045500010430001000C0000000000384030001000CUPF                                       
100C0006244310031352954   000006250000104092914343123913985266109296JHRLTLVAXH130360528   30360528   412130360528303605280001399Grab A-2IXFJGQGWHCU      Singapore   SGP000000000000000000000000000123913900029160104   29160104   007            005282101300   1000021     01200 0000000035728407000571500000625000010430001000C0000000003684030001000CUPF                                       
100C0006244310100191788   0000021914801040928200047209464854919092912712020946440850702   40530036   4215LKYHGTQQ6YQFXQALXE6SCMXYANGON DOOR2DOOR         SINGAPORE   SGP000000000000000000000000000120946400029160104   29160104   007F           007022101400   1000021     01200 0000000012528407000571500000219148010430001000C0000000001384030001000CUPF                                       
