100C0006244310036366868   0000003050001040504130933158530696892050475X66Q7ILPOB30360528   30360528   549930360528303605280238959Foodpanda Myanmar        Kuala LumpurMYS000000000000000000000000000115853000029160104   29160104   007            005282101300   1000021     01200 0000000001658407000542200000030500010430001000C0000000000284030001000CUPF                                       
100C0006244310031624030   0000012910001040504170720150362573384050475X66Q7ILR3630360528   30360528   549930360528303605280238959Foodpanda Myanmar        Kuala LumpurMYS000000000000000000000000000115036200029160104   29160104   007            005282101300   1000021     01200 0000000007008407000542200000129100010430001000C0000000000784030001000CUPF                                       
100C0006291102820291085   000000100000104050515360322093943690005056MRX9A5DPNDM30360528   30360528   412130360528303605280001399Grab* A-3E3MLHSGWG28     Singapore   SGP000000000000000000000000000122093900029160104   29160104   007            005282101100   1000011     01200 0000000000548407000542200000010000010430001000C0000000000184030001000CUPF                                       
100C0006291102820291085   0000007000001040505150525146735436900050578NMW2SE1HCK30360528   30360528   412130360528303605280001399Grab* A-3E3MLHSGWG28     Singapore   SGP000000000000000000000000000114673500029160104   29160104   007            005282101100   1000011     01200 0000000003808407000542200000070000010430001000C0000000000484030001000CUPF                                       
100C0006244310039800657   000000834000104050415143222655846256405046MRX9A5DPJZX30360528   30360528   549930360528303605280238959Foodpanda Myanmar        Kuala LumpurMYS000000000000000000000000000122655800029160104   29160104   007            005282101300   1000021     01200 0000000004528407000542200000083400010430001000C0000000000584030001000CUPF                                       
100C0006244310105494609   0000000008598400504095542308841668174050421230030884126480840   26480840   412112345678601181062000013UBER PENDING             San FranciscUSA000000000000000000000000000130884100029160104   29160104   007            008400101400   1000021     01200 0000000008598403000100000000159391710431855550C0000000000984030001000CUPF                                       
100C0006244310102082969   0000000053788400504101637309845172429050421230030984526480840   26480840   412112345678601181062000013UBER TRIP HELP.UBER.CO   San FranciscUSA000000000000000000000000000130984500029160104   29160104   007            008400101400   1000021     01200 0000000053788403000100000000997914810431855550C0000000005484030001000CUPF                                       
100E0006244310105494609   0000000015088400503215333000138519945050321234857743826480840   26480840   549995821553601132006710506MARKET STREET MARKET     LOWELL      USA000000000000000000000000000100013800029160104   29160104   003            008400101400   0000021     05200 0000000015088403000100000000279816910431855550C0000000000384030001000CUPF                                                       052000                                                                                                                                                                                                                                                                                
100E0006244310039328113   0000001178009010504164426078408713104050400000000017026920158   26720158   5200153645648221301500814  SHOW BA                  HSINPEI      TW000000000000000000000000000107840800029160104   29160104   003            001580100308   0000021     07200 0000000040158407034086000000745064110456324823C0000000000884030001000CUPF                                       C3919DC9BBE0D5E20720016 E060C80000000000986BBF9D        010103A000000100                                                00097C002205041583919DC9BBE                                000000000011780090180000000000000                                                                                  
