100C0006291102820242138   0000004550001040517084850142154436900051778NMW3B0Z1TA30360528   30360528   549930360528303605280238959Foodpanda Myanmar        Kuala LumpurMYS000000000000000000000000000114215400029160104   29160104   007            005282101100   1000011     01200 0000000002478407000542200000045500010430001000C0000000000284030001000CUPF                                       
100C0006244310106588300   000000565000104051719442323465084660005176K1GJY34L2H330360528   30360528   549930360528303605280238959Foodpanda Myanmar        Kuala LumpurMYS000000000000000000000000000123465000029160104   29160104   007            005282101400   1000021     01200 0000000003068407000542200000056500010430001000C0000000000384030001000CUPF                                       
100C0006291102820242138   000001076250104051713131523264643690005176K1GJY34L0XG30360528   30360528   549930360528303605280238959Foodpanda Myanmar        Kuala LumpurMYS000000000000000000000000000123264600029160104   29160104   007            005282101100   1000011     01200 0000000005848407000542200000107625010430001000C0000000000684030001000CUPF                                       
100C0006244310036366868   0000002650001040517151736144960254490051778NMW3B0Z3Z130360528   30360528   549930360528303605280238959Foodpanda Myanmar        Kuala LumpurMYS000000000000000000000000000114496000029160104   29160104   007            005282101300   1000021     01200 0000000001448407000542200000026500010430001000C0000000000184030001000CUPF                                       
100C0006291102820249109   000000230000104051815035623763543690005186K1GJY34L4S030360528   30360528   412130360528303605280001399Grab* A-3FP8CUWGWJVS     Singapore   SGP000000000000000000000000000123763500029160104   29160104   007            005282101100   1000011     01200 0000000001258407000542200000023000010430001000C0000000000184030001000CUPF                                       
100E0006291102820245115   0000134560001040517170235001540436900051722051716023534790104   34790104   541110001416000001000022325OCEAN (HTY)              HlaingTharYaMMR000000000000000000000000000100154000029160104   29160104   003            001040100121   0000011     07100 0000000072968407000542200001345600010430001000C0000000001184030001000CUPF                                       24677A93A094B0E207110060E060C800000000000B7739963016383507210103A00000010A010000000000D2D4CDA5                          00097C00220517104                                          00000000149508001048000000000000002000022A000000333010101                    0000                                  
