100E0006244310105413914   0000027003001040524224026000571642903052522052421402634790104   34790104   554110000410000001000002905NEW DAY ENERGY MYG       Mayangone(KaMMR000000000000000000000000000100057100029160104   29160104   003            001040100421   0000021     07200 0000000014648407000542200000270030010430001000C0000000000284030001000CUPF                                       985AF9A6470A49F907210060E060C80000000000209709E42865149807010103A00000010A010000000000338315E9                          000C7C00220524104                                          0000000003000000104800000000000001F000022A000000333010102                    0000                                  
100C0006291102820242138   0000006175001040524193219150306436900052475X66R042APG30360528   30360528   549930360528303605280238959Foodpanda Myanmar        Kuala LumpurMYS000000000000000000000000000115030600029160104   29160104   007            005282101100   1000011     01200 0000000003358407000542200000061750010430001000C0000000000384030001000CUPF                                       
100C0006244310033813987   0000028400001040524115910148335267967052478NMW3L0YTFN30360528   30360528   549930360528303605280238959Foodpanda Myanmar        Kuala LumpurMYS000000000000000000000000000114833500029160104   29160104   007            005282101300   1000021     01200 0000000015408407000542200000284000010430001000C0000000001584030001000CUPF                                       
100C0006291102820247160   000002025000104052410144322394343690005246MRX9AXYV49U30360528   30360528   549930360528303605280238959Foodpanda Myanmar        Kuala LumpurMYS000000000000000000000000000122394300029160104   29160104   007            005282101100   0900011     01200 0000000010988407000542200000202500010430001000C0000000001184030001000CUPF                                       
100C0006244310036366868   0000002650001040524155716158503106284052475X66R0429BD30360528   30360528   549930360528303605280238959Foodpanda Myanmar        Kuala LumpurMYS000000000000000000000000000115850300029160104   29160104   007            005282101300   1000021     01200 0000000001448407000542200000026500010430001000C0000000000184030001000CUPF                                       
100C0006244310039800657   0000008500001040524162912140446958055052478NMW3L0YV2730360528   30360528   549930360528303605280238959Foodpanda Myanmar        Kuala LumpurMYS000000000000000000000000000114044600029160104   29160104   007            005282101300   1000021     01200 0000000004618407000542200000085000010430001000C0000000000584030001000CUPF                                       
100C0006244310102082969   0000000106798400524103820316516707485052421430031651626480840   26480840   412112345678601181062000013UBER PENDING             San FranciscUSA000000000000000000000000000131651600029160104   29160104   007            008400101400   1000021     01200 0000000106798403000100000001981541810431855550C0000000010784030001000CUPF                                       
100C0006244310105494609   0000000008598400524103329880985019587052421430188098526480840   26480840   412100000001601103011637836UBR* PENDING.UBER.COM    SAN FRANCISCUSA000000000000000000000000000188098500029160104   29160104   007            008400101400   1000021     01200 0000000008598403000100000000159391710431855550C0000000000984030001000CUPF                                       
100E0006244310105494609   0000000015088400524040034000560969910052421432741383126480840   26480840   549995821553601132006710506MARKET STREET MARKET     LOWELL      USA000000000000000000000000000100056000029160104   29160104   003            008400101400   0000021     05200 0000000015088403000100000000279816910431855550C0000000000384030001000CUPF                                                       052000                                                                                                                                                                                                                                                                                
