100C0006244310102082969   0000000005008400613033631352077965215061321631835207726480840   26480840   581200000001601103019138787UBER   *EATS             SAN FRANCISCUSA000000000000000000000000000135207700029160104   29160104   007            008400101400   1000021     01200 0000000005008403000100000000092777510431855550C0000000000584030001000CUPF                                       
100C0006244310105494609   0000000022568400613004705380248626208061321631538024826480840   26480840   412100000001601103011637836UBR* PENDING.UBER.COM    SAN FRANCISCUSA000000000000000000000000000138024800029160104   29160104   007            008400101400   1000021     01200 0000000022568403000100000000418612110431855550C0000000002384030001000CUPF                                       
100C0006244310102082969   0000000009798400613001343350736287202061321631535073626480840   26480840   412100000001601103011637836UBR* PENDING.UBER.COM    SAN FRANCISCUSA000000000000000000000000000135073600029160104   29160104   007            008400101400   1000021     01200 0000000009798403000100000000181658310431855550C0000000001084030001000CUPF                                       
100C0006244310102082969   0000000050178400613020545700055469469061321631770005526480840   26480840   581200000001601103019138787UBER   * EATS PENDING    SAN FRANCISCUSA000000000000000000000000000170005500029160104   29160104   007            008400101400   1000021     01200 0000000050178403000100000000930929410431855550C0000000005084030001000CUPF                                       
100C0006244310102082969   0000000012458400613015141702408634718061321631670240826480840   26480840   412100000001601103011637836UBR* PENDING.UBER.COM    SAN FRANCISCUSA000000000000000000000000000170240800029160104   29160104   007            008400101400   1000021     01200 0000000012458403000100000000231016010431855550C0000000001284030001000CUPF                                       
100C0006291102820247160   0000007700001040613160331155874477380061375X66RLJ3I1Q30360528   30360528   549930360528303605280238959Foodpanda Myanmar        Kuala LumpurMYS000000000000000000000000000115587400029160104   29160104   007            005282101100   1000011     01200 0000000004178407000542200000077000010430001000C0000000000484030001000CUPF                                       
100C0006244310031624030   0000013200001040613142003155178634482061375X66RLJ3HIE30360528   30360528   549930360528303605280238959Foodpanda Myanmar        Kuala LumpurMYS000000000000000000000000000115517800029160104   29160104   007            005282101300   1000021     01200 0000000007168407000542200000132000010430001000C0000000000784030001000CUPF                                       
100C0006291102820247160   000000705000104061314283823089347738006136K1GJYYIBQCH30360528   30360528   549930360528303605280238959Foodpanda Myanmar        Kuala LumpurMYS000000000000000000000000000123089300029160104   29160104   007            005282101100   1000011     01200 0000000003828407000542200000070500010430001000C0000000000484030001000CUPF                                       
100C0006244310032311710   000000470000104061421082922761721165806146NBM773GVMRA30360528   30360528   412130360528303605280001399Grab* A-3J9FKR8WWIVB     Singapore   SGP000000000000000000000000000122761700029160104   29160104   007            005282101300   1000021     01200 0000000002558407000542200000047000010430001000C0000000000384030001000CUPF                                       
100C0006291102820249109   0000003400001040614165503151945477380061475X66RU9UHZL30360528   30360528   412130360528303605280001399Grab* A-3J8Q4NNGWFO4     Singapore   SGP000000000000000000000000000115194500029160104   29160104   007            005282101100   1000011     01200 0000000001848407000542200000034000010430001000C0000000000284030001000CUPF                                       
100C0006244310037483134   0000029850001040613130426154552480737061375X66RLJ3H1030360528   30360528   549930360528303605280238959Foodpanda Myanmar        Kuala LumpurMYS000000000000000000000000000115455200029160104   29160104   007            005282101300   1000021     01200 0000000016188407000542200000298500010430001000C0000000001684030001000CUPF                                       
100C0006291102820244068   000000510000104061313043722960747738006136MRX9BJDRDFD30360528   30360528   549930360528303605280238959Foodpanda Myanmar        Kuala LumpurMYS000000000000000000000000000122960700029160104   29160104   007            005282101100   1000011     01200 0000000002778407000542200000051000010430001000C0000000000384030001000CUPF                                       
100C0006291102820215019   000001170000104061313050622960947738006136MRX9BJDRDFF30360528   30360528   549930360528303605280238959Foodpanda Myanmar        Kuala LumpurMYS000000000000000000000000000122960900029160104   29160104   007            005282101100   1000011     01200 0000000006348407000542200000117000010430001000C0000000000684030001000CUPF                                       
