100C0006291102820242138   000000495000104070718095723752847738007076K1GK016E5O430360528   30360528   549930360528303605280238959Foodpanda Myanmar        Kuala LumpurMYS000000000000000000000000000123752800029160104   29160104   007            005282101100   1000011     01200 0000000002688407000542200000049500010430001000C0000000000384030001000CUPF                                       
100C0006244310031624030   0000009050001040707181309149659090307070778NMW592T6VL30360528   30360528   549930360528303605280238959Foodpanda Myanmar        Kuala LumpurMYS000000000000000000000000000114965900029160104   29160104   007            005282101300   1000021     01200 0000000004918407000542200000090500010430001000C0000000000584030001000CUPF                                       
100C0006244310031624030   0000006850001040707181633150366594562070775X66SO7GENL30360528   30360528   549930360528303605280238959Foodpanda Myanmar        Kuala LumpurMYS000000000000000000000000000115036600029160104   29160104   007            005282101300   1000021     01200 0000000003718407000542200000068500010430001000C0000000000484030001000CUPF                                       
100C0006291102820215019   000001000000104070718243323761347738007076K1GK016E5QH30360528   30360528   549930360528303605280238959Foodpanda Myanmar        Kuala LumpurMYS000000000000000000000000000123761300029160104   29160104   007            005282101100   1000011     01200 0000000005428407000542200000100000010430001000C0000000000584030001000CUPF                                       
100C0006291102820244670   0000002050001040707104310156462477380070775X66SO7GBN630360528   30360528   549930360528303605280238959Foodpanda Myanmar        Kuala LumpurMYS000000000000000000000000000115646200029160104   29160104   007            005282101100   1000011     01200 0000000001118407000542200000020500010430001000C0000000000184030001000CUPF                                       
100C0006291102820219227   0000003250001040707201402151583477380070775X66SO7GFLC30360528   30360528   549930360528303605280238959Foodpanda Myanmar        Kuala LumpurMYS000000000000000000000000000115158300029160104   29160104   007            005282101100   1000011     01200 0000000001768407000542200000032500010430001000C0000000000284030001000CUPF                                       
100C0006291102820215001   00000069900010407070124101441874773800707797BU0KGC5V530360528   30360528   549930360528303605280238959Foodpanda Myanmar        Kuala LumpurMYS000000000000000000000000000114418700029160104   29160104   007            005282101100   1000011     01200 0000000003798407000542200000069900010430001000C0000000000484030001000CUPF                                       
100C0006291102820244670   0000010900001040707172630149240477380070778NMW592T6JY30360528   30360528   549930360528303605280238959Foodpanda Myanmar        Kuala LumpurMYS000000000000000000000000000114924000029160104   29160104   007            005282101100   1000011     01200 0000000005918407000542200000109000010430001000C0000000000684030001000CUPF                                       
100C0006291102820244670   000001310000104070717325523737047738007076K1GK016E5JQ30360528   30360528   549930360528303605280238959Foodpanda Myanmar        Kuala LumpurMYS000000000000000000000000000123737000029160104   29160104   007            005282101100   1000011     01200 0000000007108407000542200000131000010430001000C0000000000784030001000CUPF                                       
100E0006244310039328113   0000005019009010708052353287065749114070821899100103826720158   26720158   3078632521291412000149     CHINA AIRLINES LTD.      TAOYUAN CITYTW 000000000000000000000000000128706500029160104   29160104   003            001580100308   0000021     05200 0000000169138407033697400003138240710456252721C0000000003484030001000CUPF                                       A3645AADEA15E9870520015 E060C8008000E0003C4AB0D8        0701010360200201                                                00237C00220708158                                          000000000000501990140000000000000                                                                                  
100E0006244310032049740   0000000050007640707173758745849437823070721881774584937860764   37860764   541121012238541129830998194Thai Smart Card Company Limited         000000000000000000000000000174584900029160104   29160104   003            007640100308   0000021     05200 0000000001398407027709500000025708210455141644D0000000000084030001000CUPF                                       5BD8694394635C2205200150E0F8C8008000E0005755354D324D363007010103A0200201                                                002C7C00220707764                                          0000000000000000764800000000000001E030022A000000333010102                002000003564                              
100E0006291102820277472   0000000958506080706052340009012477380070621871941934327240608   27240608   591238022864724060881136664WATSONS WALTERMART DAS   CAVITE      PHL000000000000000000000000000100901200029160104   29160104   003            006080100108   0000011     05100 0000000017318407018060800000329250710453435062C0000000000384030001000CUPF                                       DB01234D5F5AF05E05100050E0F8C80080048000786B5A433030303007210103A0200201                                                001A7C00220706608                                            000000000958506088000000000000002030022A000000333010101                008C00001262                              
