100C0006244310105494609   0000000019088400507205728008422592966050721270000842226480840   26480840   594212345678601101028208625Amazon.com               Amzn.com/bilUSA000000000000000000000000000100842200029160104   29160104   007            008400101400   1000021     01200 0000000019088403000100000000354038910431855550C0000000001984030001000CUPF                                       
101C0006291102820242138   0000002600001040509232758114164436900050778NMW2SE1RT530360528   30360528   549930360528303605280238959Foodpanda Myanmar        Kuala LumpurMYS100050711232714032105070000111416400029160104   29160104   007 000        005282101100   0000011     01200 0000000001418407000542200000026000010430001000D0000000000184030001000CUPF                                       
100C0006244310036366868   0000007500001040508131035149376103544050878NMW2SE1YSJ30360528   30360528   549930360528303605280238959Foodpanda Myanmar        Kuala LumpurMYS000000000000000000000000000114937600029160104   29160104   007            005282101300   1000021     01200 0000000004078407000542200000075000010430001000C0000000000484030001000CUPF                                       
100C0006291102820291085   0000000500001040509152743148464436900050978NMW2SE25SS30360528   30360528   412130360528303605280001399Grab* A-3EK4KN4GWGNC     Singapore   SGP000000000000000000000000000114846400029160104   29160104   007            005282101100   1000011     01200 0000000000278407000542200000005000010430001000D0000000000084030001000CUPF                                       
100C0006291102820291085   000000650000104050914502722853943690005096MRX9A5DQ0Y830360528   30360528   412130360528303605280001399Grab* A-3EK4KN4GWGNC     Singapore   SGP000000000000000000000000000122853900029160104   29160104   007            005282101100   1000011     01200 0000000003528407000542200000065000010430001000C0000000000484030001000CUPF                                       
100C0006291102820266756   0000006460001040508140031159948436900050875X66Q7IMDVW30360528   30360528   549930360528303605280238959Foodpanda Myanmar        Kuala LumpurMYS000000000000000000000000000115994800029160104   29160104   007            005282101100   1000011     01200 0000000003508407000542200000064600010430001000C0000000000484030001000CUPF                                       
100C0006291102820247160   0000005750001040508120828148794436900050878NMW2SE1YCD30360528   30360528   549930360528303605280238959Foodpanda Myanmar        Kuala LumpurMYS000000000000000000000000000114879400029160104   29160104   007            005282101100   1000011     01200 0000000003128407000542200000057500010430001000C0000000000384030001000CUPF                                       
100C0006291102820242138   0000007586251040508163854141126436900050878NMW2SE205430360528   30360528   549930360528303605280238959Foodpanda Myanmar        Kuala LumpurMYS000000000000000000000000000114112600029160104   29160104   007            005282101100   1000011     01200 0000000004118407000542200000075862510430001000C0000000000484030001000CUPF                                       
100C0006244310037686546   000001535000104050812141123279941702205086K1GJXKHJS8830360528   30360528   549930360528303605280238959Foodpanda Myanmar        Kuala LumpurMYS000000000000000000000000000123279900029160104   29160104   007            005282101300   1000021     01200 0000000008328407000542200000153500010430001000C0000000000884030001000CUPF                                       
