100C0006244310105494609   0000000027238400523095048304418172247052321420030441826480840   26480840   412112345678601181062000013UBER PENDING             San FranciscUSA000000000000000000000000000130441800029160104   29160104   007            008400101400   1000021     01200 0000000027238403000100000000505266310431855550C0000000002784030001000CUPF                                       
100C0006244310102082969   0000000005008400523064917880967841750052321422188096726480840   26480840   581200000001601103019138787UBER   *EATS             SAN FRANCISCUSA000000000000000000000000000188096700029160104   29160104   007            008400101400   1000021     01200 0000000005008403000100000000092777510431855550C0000000000584030001000CUPF                                       
100C0006244310102082969   0000000020578400523074917307888015508052321420030788826480840   26480840   412112345678601181062000013UBER PENDING             San FranciscUSA000000000000000000000000000130788800029160104   29160104   007            008400101400   1000021     01200 0000000020578403000100000000381686610431855550C0000000002184030001000CUPF                                       
100C0006244310102082969   0000000042868400523041912572263676502052321421957226326480840   26480840   581200000001601103019138787UBER   * EATS PENDING    SAN FRANCISCUSA000000000000000000000000000157226300029160104   29160104   007            008400101400   1000021     01200 0000000042868403000100000000795288710431855550C0000000004384030001000CUPF                                       
100C0006244310105494609   0000000010298400523072023317733511254052321420031773326480840   26480840   412112345678601181062000013UBER PENDING             San FranciscUSA000000000000000000000000000131773300029160104   29160104   007            008400101400   1000021     01200 0000000010298403000100000000190936110431855550C0000000001084030001000CUPF                                       
100C0006291102820242138   0000006877501040523104123151482436900052375X66QQ6HZE330360528   30360528   549930360528303605280238959Foodpanda Myanmar        Kuala LumpurMYS000000000000000000000000000115148200029160104   29160104   007            005282101100   1000011     01200 0000000003738407000542200000068775010430001000C0000000000484030001000CUPF                                       
100C0006244310033813987   000003275000104052311223023896924331805236K1GJY34LL8F30360528   30360528   549930360528303605280238959Foodpanda Myanmar        Kuala LumpurMYS000000000000000000000000000123896900029160104   29160104   007            005282101300   1000021     01200 0000000017768407000542200000327500010430001000C0000000001884030001000CUPF                                       
100C0006244310032887685   0000006765001040523170224143193169489052378NMW3L0YPGW30360528   30360528   549930360528303605280238959Foodpanda Myanmar        Kuala LumpurMYS000000000000000000000000000114319300029160104   29160104   007            005282101300   1000021     01200 0000000003678407000542200000067650010430001000C0000000000484030001000CUPF                                       
100C0006244310106446681   0000017250001040523122248140450524136052378NMW3B102ZL30360528   30360528   549930360528303605280238959Foodpanda Myanmar        Kuala LumpurMYS000000000000000000000000000114045000029160104   29160104   007            005282101400   1000021     01200 0000000009358407000542200000172500010430001000C0000000000984030001000CUPF                                       
100C0006291102820242138   000000675000104052307583023844843690005236K1GJY34LKTY30360528   30360528   549930360528303605280238959Foodpanda Myanmar        Kuala LumpurMYS000000000000000000000000000123844800029160104   29160104   007            005282101100   1000011     01200 0000000003668407000542200000067500010430001000C0000000000484030001000CUPF                                       
