100C0006291102820242138   0000009000001040512144919146283436900051278NMW310XDJL30360528   30360528   549930360528303605280238959Foodpanda Myanmar        Kuala LumpurMYS000000000000000000000000000114628300029160104   29160104   007            005282101100   1000011     01200 0000000004888407000542200000090000010430001000C0000000000584030001000CUPF                                       
100C0006244310030602854   000000006300826051302512815954349449305137670NO3T9SK030360528   30360528   829930360528303605280262926ASSOCIATION OF CHARTERED Glasgow     GBR000000000000000000000000000115954300029160104   29160104   007            005282101300   1000021     01200 0000000077098406122372100001430525910432270676C0000000007784030001000CUPF                                       
100C0006291102820236031   0000003360001040513134157143394436900051378NMW310XJ1430360528   30360528   412130360528303605280001399Grab* A-3F4DNXOGWG82     Singapore   SGP000000000000000000000000000114339400029160104   29160104   007            005282101100   1000011     01200 0000000001828407000542200000033600010430001000C0000000000284030001000CUPF                                       
100C0006291102820222247   000000450000104051215294522495143690005126MRX9ADZ5XDL30360528   30360528   549930360528303605280238959Foodpanda Myanmar        Kuala LumpurMYS000000000000000000000000000122495100029160104   29160104   007            005282101100   1000011     01200 0000000002448407000542200000045000010430001000C0000000000284030001000CUPF                                       
100C0006244310039800657   0000006715001040513150225144063347071051378NMW310XJJP30360528   30360528   412130360528303605280001399Grab* A-3F4IBT8WWH89     Singapore   SGP000000000000000000000000000114406300029160104   29160104   007            005282101300   1000021     01200 0000000003648407000542200000067150010430001000C0000000000484030001000CUPF                                       
100C0006244310039800657   0000012750001040513142446152751275429051375X66QG4IBFB30360528   30360528   412130360528303605280001399Grab* A-3F4HKFOGWIM8     Singapore   SGP000000000000000000000000000115275100029160104   29160104   007            005282101300   1000021     01200 0000000006918407000542200000127500010430001000C0000000000784030001000CUPF                                       
100C0006244310036366868   0000003050001040512140115154955369606051275X66QG4I5ET30360528   30360528   549930360528303605280238959Foodpanda Myanmar        Kuala LumpurMYS000000000000000000000000000115495500029160104   29160104   007            005282101300   1000021     01200 0000000001658407000542200000030500010430001000C0000000000284030001000CUPF                                       
100C0006291102820242138   000000380000104051217022823593543690005126K1GJXT3O7YF30360528   30360528   549930360528303605280238959Foodpanda Myanmar        Kuala LumpurMYS000000000000000000000000000123593500029160104   29160104   007            005282101100   1000011     01200 0000000002068407000542200000038000010430001000C0000000000284030001000CUPF                                       
100C0006291102820242138   0000010100001040512204439157891436900051275X66QG4I7OD30360528   30360528   549930360528303605280238959Foodpanda Myanmar        Kuala LumpurMYS000000000000000000000000000115789100029160104   29160104   007            005282101100   1000011     01200 0000000005488407000542200000101000010430001000C0000000000584030001000CUPF                                       
100C0006244310037686546   000000350000104051214413422478381923805126MRX9ADZ5X8X30360528   30360528   549930360528303605280238959Foodpanda Myanmar        Kuala LumpurMYS000000000000000000000000000122478300029160104   29160104   007            005282101300   1000021     01200 0000000001908407000542200000035000010430001000C0000000000284030001000CUPF                                       
