100C0006244310106446681   0000019250001040513154152144364711035051378NMW310XJS230360528   30360528   549930360528303605280238959Foodpanda Myanmar        Kuala LumpurMYS000000000000000000000000000114436400029160104   29160104   007            005282101400   1000021     01200 0000000010448407000542200000192500010430001000C0000000001084030001000CUPF                                       
100C0006291102820222247   000000585000104051312212523916443690005136K1GJXT3OAG330360528   30360528   549930360528303605280238959Foodpanda Myanmar        Kuala LumpurMYS000000000000000000000000000123916400029160104   29160104   007            005282101100   1000011     01200 0000000003178407000542200000058500010430001000C0000000000384030001000CUPF                                       
100C0006244310039800657   0000009800001040514130501159795501177051475X66QG4IGUU30360528   30360528   412130360528303605280001399Grab* A-3F8E5IRWWF7L     Singapore   SGP000000000000000000000000000115979500029160104   29160104   007            005282101300   1000021     01200 0000000005318407000542200000098000010430001000C0000000000584030001000CUPF                                       
100C0006291102820242138   000000848500104051310053923859043690005136K1GJXT3OA0530360528   30360528   549930360528303605280238959Foodpanda Myanmar        Kuala LumpurMYS000000000000000000000000000123859000029160104   29160104   007            005282101100   1000011     01200 0000000004608407000542200000084850010430001000C0000000000584030001000CUPF                                       
100C0006244310036366868   0000012050001040513144245152881563377051375X66QG4IBIX30360528   30360528   549930360528303605280238959Foodpanda Myanmar        Kuala LumpurMYS000000000000000000000000000115288100029160104   29160104   007            005282101300   1000021     01200 0000000006538407000542200000120500010430001000C0000000000784030001000CUPF                                       
100C0006244310036468169   0000010050001040513145359143997156294051378NMW310XJHV30360528   30360528   549930360528303605280238959Foodpanda Myanmar        Kuala LumpurMYS000000000000000000000000000114399700029160104   29160104   007            005282101300   1000021     01200 0000000005458407000542200000100500010430001000C0000000000584030001000CUPF                                       
100C0006244310030602854   0000000063008260514110851158691770966051475NBPSSFQWEF30360528   30360528   829930360528303605280262926ASSOCIATION OF CHARTERED Glasgow     GBR000000000000000000000000000115869100029160104   29160104   007            005282101300   1000021     01200 0000000077098406122372100001430525910432270676C0000000007784030001000CUPF                                       
100C0006244310030602854   0000000063008260514111927149657749336051478DSF5DC649830360528   30360528   829930360528303605280262926ASSOCIATION OF CHARTERED Glasgow     GBR000000000000000000000000000114965700029160104   29160104   007            005282101300   1000021     01200 0000000077098406122372100001430525910432270676C0000000007784030001000CUPF                                       
100C0006244310032311710   0000004620001040513120533151451650660051375X66QG4IAF830360528   30360528   549930360528303605280238959Foodpanda Myanmar        Kuala LumpurMYS000000000000000000000000000115145100029160104   29160104   007            005282101300   1000021     01200 0000000002508407000542200000046200010430001000C0000000000384030001000CUPF                                       
100C0006244310031624030   0000019072501040513153312144295389048051378NMW310XJQ530360528   30360528   549930360528303605280238959Foodpanda Myanmar        Kuala LumpurMYS000000000000000000000000000114429500029160104   29160104   007            005282101300   1000021     01200 0000000010348407000542200000190725010430001000C0000000001084030001000CUPF                                       
100C0006244310102082969   0000000116048400513152640322310261167051321330032231026480840   26480840   412112345678601181062000013UBER TRIP HELP.UBER.CO   San FranciscUSA000000000000000000000000000132231000029160104   29160104   007            008400101400   1000021     01200 0000000116048403000100000002153180210431855550C0000000011684030001000CUPF                                       
100C0006244310105494609   0000000004608400513072042880664320735051321322288066426480840   26480840   581200000001601103019138787UBER   *EATS             SAN FRANCISCUSA000000000000000000000000000188066400029160104   29160104   007            008400101400   1000021     01200 0000000004608403000100000000085355310431855550C0000000000584030001000CUPF                                       
100C0006244310102291370   0000000230278400512162832096937786007051221321009693726480840   26480840   573212345678601181476376553THE LINK SERVICE LLC     CHEYENNE    USA000000000000000000000000000109693700029160104   29160104   007            008400101400   1000021     01200 0000000230278403000100000004272775010431855550C0000000023084030001000CUPF                                       
100C0006244310102291370   0000000100008400512162453652785281752051221321065278526480840   26480840   573212345678601181476376553THE LINK SERVICE LLC     CHEYENNE    USA000000000000000000000000000165278500029160104   29160104   007            008400101400   1000021     01200 0000000100008403000100000001855550010431855550C0000000010084030001000CUPF                                       
100C0006244310102291370   0000000100008400512134707750643542793051221320775064326480840   26480840   573212345678601181476376553THE LINK SERVICE LLC     CHEYENNE    USA000000000000000000000000000175064300029160104   29160104   007            008400101400   1000021     01200 0000000100008403000100000001855550010431855550C0000000010084030001000CUPF                                       
100E0006244310036110670   000000010085840051403130032048274957205145VYZ5NZU0GM730370840   30370528   566102014267303705281104760Crocs                    Gilroy      USA000000000000000000000000000132048200029160104   29160104   003            008401100300   0000021     05200 0000000100858403000100000001871322210431855550C0000000002084030001000CUPF                                       9ABEC50FE47BD7E60520015160F8C8008800E000D934744A0201426707010103A0300201                                                00067C00220513840                                          000000000001008584080            1E030022                                003000018083                              
