100C0006291102820242138   0000007800001040507190633144433436900050778NMW2SE1UZA30360528   30360528   549930360528303605280238959Foodpanda Myanmar        Kuala LumpurMYS000000000000000000000000000114443300029160104   29160104   007            005282101100   1000011     01200 0000000004238407000542200000078000010430001000C0000000000484030001000CUPF                                       
100C0006244310036366868   000000550000104050709015522832655949905076MRX9A5DPT2S30360528   30360528   549930360528303605280238959Foodpanda Myanmar        Kuala LumpurMYS000000000000000000000000000122832600029160104   29160104   007            005282101300   1000021     01200 0000000002988407000542200000055000010430001000C0000000000384030001000CUPF                                       
100C0006291102820249109   0000002400001040508144003140203436900050878NMW2SE1ZFH30360528   30360528   412130360528303605280001399Grab* A-3EFVRFHWWGBB     Singapore   SGP000000000000000000000000000114020300029160104   29160104   007            005282101100   1000011     01200 0000000001308407000542200000024000010430001000C0000000000184030001000CUPF                                       
100C0006244310032311710   0000002700001040507093039159736889996050775X66Q7IM60F30360528   30360528   549930360528303605280238959Foodpanda Myanmar        Kuala LumpurMYS000000000000000000000000000115973600029160104   29160104   007            005282101300   1000021     01200 0000000001468407000542200000027000010430001000C0000000000184030001000CUPF                                       
100C0006291102820219227   0000002800001040507202151155196436900050775X66Q7IMA7X30360528   30360528   549930360528303605280238959Foodpanda Myanmar        Kuala LumpurMYS000000000000000000000000000115519600029160104   29160104   007            005282101100   1000011     01200 0000000001528407000542200000028000010430001000C0000000000284030001000CUPF                                       
100C0006244310032298669   000000300000104050811370322328425890405086MRX9A5DPWW930360528   30360528   412130360528303605280001399Grab* A-3EFE4C7WWE7H     Singapore   SGP000000000000000000000000000122328400029160104   29160104   007            005282101300   1000021     01200 0000000001638407000542200000030000010430001000C0000000000284030001000CUPF                                       
100C0006291102820249109   0000008800001040508153345150680436900050875X66Q7IMEG830360528   30360528   412130360528303605280001399Grab* A-3EG4OQEGWGBB     Singapore   SGP000000000000000000000000000115068000029160104   29160104   007            005282101100   1000011     01200 0000000004778407000542200000088000010430001000C0000000000584030001000CUPF                                       
100C0006291102820242138   0000006100001040507112327140321436900050778NMW2SE1RT530360528   30360528   549930360528303605280238959Foodpanda Myanmar        Kuala LumpurMYS000000000000000000000000000114032100029160104   29160104   007            005282101100   1000011     01200 0000000003318407000542200000061000010430001000C0000000000384030001000CUPF                                       
101C0006244310105494609   00000000021384005070703010055030000000506            26480840   26480840   5942        601101028208625AMAZON.COM                              100050707030100550300000000100550300029160104   29160104   003            008400   400   0000021     00000 0000000002138403000100000000039523210431855550D0000000000084030001000CUPF                                       
100C0006244310034492047   0000000005508400507032400417146758786050721260041714626480840   26480840   541151661401601106001830675GROCERY OUTLET OF FREM   FREMONT     USA000000000000000000000000000141714600029160104   29160104   003            008400101300   0000021     02200 0000000005508403000100000000102055310431855550C0000000000184030001000CUPF                                       
100E0006244310034492047   0000000013568400507015242511193941054050721261951119326480840   26480840   581201359118601103077049082NAAN N CURRY             HAYWARD     USA000000000000000000000000000151119300029160104   29160104   003            008400101300   0000021     05200 0000000013568403000100000000251612610431855550C0000000000384030001000CUPF                                                       052000                                                                                                                                                                                                                                                                                
100C0006244310105494609   0000000032938400505074032007552410322050521240000755226480840   26480840   594212345678601101028208625Amazon.com               Amzn.com/bilUSA000000000000000000000000000100755200029160104   29160104   007            008400101400   1000021     01200 0000000032938403000100000000611032610431855550C0000000003384030001000CUPF                                       
