100C0006244310039800657   0000004300001040521102754155480025397052175X66QQ6HN1Q30360528   30360528   412130360528303605280001399Grab* A-3G4OO4GWWFQX     Singapore   SGP000000000000000000000000000115548000029160104   29160104   007            005282101300   1000021     01200 0000000002338407000542200000043000010430001000C0000000000284030001000CUPF                                       
100C0006244310032298669   0000007100001040521154528146438246648052178NMW3B0ZS6G30360528   30360528   412130360528303605280001399Grab* A-3G5NMSMWWGON     Singapore   SGP000000000000000000000000000114643800029160104   29160104   007            005282101300   1000021     01200 0000000003858407000542200000071000010430001000C0000000000484030001000CUPF                                       
100C0006244310032887685   0000011600001040520170026148957643843052078NMW3B0ZMER30360528   30360528   549930360528303605280238959Foodpanda Myanmar        Kuala LumpurMYS000000000000000000000000000114895700029160104   29160104   007            005282101300   1000021     01200 0000000006298407000542200000116000010430001000C0000000000684030001000CUPF                                       
100C0006244310036366868   0000005500001040520100628145535660054052078NMW3B0ZJRR30360528   30360528   549930360528303605280238959Foodpanda Myanmar        Kuala LumpurMYS000000000000000000000000000114553500029160104   29160104   007            005282101300   1000021     01200 0000000002988407000542200000055000010430001000C0000000000384030001000CUPF                                       
100C0006291102820244670   0000003900001040520195759140573436900052078NMW3B0ZNNN30360528   30360528   549930360528303605280238959Foodpanda Myanmar        Kuala LumpurMYS000000000000000000000000000114057300029160104   29160104   007            005282101100   1000011     01200 0000000002118407000542200000039000010430001000C0000000000284030001000CUPF                                       
100C0006291102820266517   0000007050001040520125658158571436900052075X66QQ6HHPX30360528   30360528   549930360528303605280238959Foodpanda Myanmar        Kuala LumpurMYS000000000000000000000000000115857100029160104   29160104   007            005282101100   1000011     01200 0000000003828407000542200000070500010430001000C0000000000484030001000CUPF                                       
100C0006291102820244670   0000004910001040520152420159866436900052075X66QQ6HIPV30360528   30360528   549930360528303605280238959Foodpanda Myanmar        Kuala LumpurMYS000000000000000000000000000115986600029160104   29160104   007            005282101100   1000011     01200 0000000002668407000542200000049100010430001000C0000000000384030001000CUPF                                       
100C0006244310037686546   0000006640001040520184221149815211230052078NMW3B0ZN2L30360528   30360528   549930360528303605280238959Foodpanda Myanmar        Kuala LumpurMYS000000000000000000000000000114981500029160104   29160104   007            005282101300   1000021     01200 0000000003608407000542200000066400010430001000C0000000000484030001000CUPF                                       
100C0006291102820242138   0000008050001040520075552144941436900052078NMW3B0ZJB930360528   30360528   549930360528303605280238959Foodpanda Myanmar        Kuala LumpurMYS000000000000000000000000000114494100029160104   29160104   007            005282101100   1000011     01200 0000000004368407000542200000080500010430001000C0000000000484030001000CUPF                                       
100C0006244310032298669   0000007200001040521171229147141154421052178NMW3B0ZSPX30360528   30360528   412130360528303605280001399Grab* A-3G5VLR4WWGBE     Singapore   SGP000000000000000000000000000114714100029160104   29160104   007            005282101300   1000021     01200 0000000003908407000542200000072000010430001000C0000000000484030001000CUPF                                       
100C0006244310108305216   0000007848907640521105256155637885677052175NBPT2HQ3KB30360528   30360528   701130360528303605280000920Hotel at Booking.com     Amsterdam   NLD000000000000000000000000000115563700029160104   29160104   007            005282101400   1000021     01200 0000000228888407029160700004246978610455410922C0000000022984030001000CUPF                                       
100C0006291102820242138   0000004260001040520115720157984436900052075X66QQ6HH9M30360528   30360528   549930360528303605280238959Foodpanda Myanmar        Kuala LumpurMYS000000000000000000000000000115798400029160104   29160104   007            005282101100   1000011     01200 0000000002318407000542200000042600010430001000C0000000000284030001000CUPF                                       
100C0006244310105494609   0000000015888400519224147570219206857051921391357021926480840   26480840   594200000001601103014002483CHEGG  *ORDER            SANTA CLARA USA000000000000000000000000000157021900029160104   29160104   007            008400101400   1000021     01200 0000000015888403000100000000294661310431855550C0000000001684030001000CUPF                                       
100E0006244310037483134   0000001384009010521211432128251738256052121415836056126720158   26720158   5311184013491301005713     JIN JAN 05713            NEW TAIPEI CTW 000000000000000000000000000112825100029160104   29160104   003            001580100308   0000021     05200 0000000046828407033832400000868843410456277770C0000000000984030001000CUPF                                       E01D7BBD0101D43D0520015 E060C8008800E000109AFECC        070101036030020133AF00000000000000FF                            00077C00220521158                                          000000000000138490140000000000000                                                                                  
