100C0006291102820249109   000000330000104051715574022325843690005176MRX9AO01EAL30360528   30360528   412130360528303605280001399Grab* A-3FL9FJJGWESO     Singapore   SGP000000000000000000000000000122325800029160104   29160104   007            005282101100   1000011     01200 0000000001798407000542200000033000010430001000C0000000000284030001000CUPF                                       
100C0006291102820242138   000000870000104051614333623306343690005166K1GJXT3OL5Z30360528   30360528   549930360528303605280238959Foodpanda Myanmar        Kuala LumpurMYS000000000000000000000000000123306300029160104   29160104   007            005282101100   1000011     01200 0000000004728407000542200000087000010430001000C0000000000584030001000CUPF                                       
100C0006291102820236031   000000546200104051718491822431943690005176MRX9AO01F4130360528   30360528   412130360528303605280001399Grab* A-3FLP6FKWWIW4     Singapore   SGP000000000000000000000000000122431900029160104   29160104   007            005282101100   1000011     01200 0000000002968407000542200000054620010430001000C0000000000384030001000CUPF                                       
100C0006244310039800657   000001484700104051716252823361874229705176K1GJY34L1OF30360528   30360528   412130360528303605280001399Grab* A-3FLCX2LWWFX4     Singapore   SGP000000000000000000000000000123361800029160104   29160104   007            005282101300   1000021     01200 0000000008058407000542200000148470010430001000C0000000000884030001000CUPF                                       
100C0006291102820215001   000001208000104051616050623392443690005166K1GJXT3OLTV30360528   30360528   549930360528303605280238959Foodpanda Myanmar        Kuala LumpurMYS000000000000000000000000000123392400029160104   29160104   007            005282101100   0900011     01200 0000000006558407000542200000120800010430001000C0000000000784030001000CUPF                                       
100C0006291102820249109   0000005200001040517111956154967436900051775X66QQ6GZL830360528   30360528   412130360528303605280001399Grab* A-3FKGXUJWWHF6     Singapore   SGP000000000000000000000000000115496700029160104   29160104   007            005282101100   1000011     01200 0000000002828407000542200000052000010430001000C0000000000384030001000CUPF                                       
100C0006291102820215019   000001000000104051616220722870643690005166MRX9AO01AS930360528   30360528   549930360528303605280238959Foodpanda Myanmar        Kuala LumpurMYS000000000000000000000000000122870600029160104   29160104   007            005282101100   1000011     01200 0000000005428407000542200000100000010430001000C0000000000584030001000CUPF                                       
100E0006244310036110670   0000000422828400514024700955536664476051421330095553626480840   26480840   599943928102601100644500027BATH AND BODY WORKS 44   GILROY      USA000000000000000000000000000195553600029160104   29160104   003            008400101300   0000021     05200 0000000422828403000100000007845636510431855550C0000000008584030001000CUPF                                                       052000                                                                                                                                                                                                                                                                                
100E0006244310036110670   0000000413808400514025100034997316959051421330003499726480840   26480840   599943928102601100644500027BATH AND BODY WORKS 44   GILROY      USA000000000000000000000000000103499700029160104   29160104   003            008400101300   0000021     05200 0000000413808403000100000007678265910431855550C0000000008384030001000CUPF                                                       052000                                                                                                                                                                                                                                                                                
