100C0006291102820242138   0000006750001040530205537147551477380053078NMW3UZB9N530360528   30360528   549930360528303605280238959Foodpanda Myanmar        Kuala LumpurMYS000000000000000000000000000114755100029160104   29160104   007            005282101100   1000011     01200 0000000003668407000542200000067500010430001000C0000000000484030001000CUPF                                       
100C0006291102820215019   0000003050001040530190038157841477380053075X66RA4N98M30360528   30360528   549930360528303605280238959Foodpanda Myanmar        Kuala LumpurMYS000000000000000000000000000115784100029160104   29160104   007            005282101100   1000011     01200 0000000001658407000542200000030500010430001000C0000000000284030001000CUPF                                       
100C0006291102820202363   0000006000001040530190816146506477380053078NMW3UZB8U430360528   30360528   549930360528303605280238959Foodpanda Myanmar        Kuala LumpurMYS000000000000000000000000000114650600029160104   29160104   007            005282101100   1000011     01200 0000000003258407000542200000060000010430001000C0000000000384030001000CUPF                                       
100E0006244310032049740   0000000082007640530131435008365364573053021501300836537860764   37860764   541117011942541146475188008Thai Smart Card Company Limited         000000000000000000000000000100836500029160104   29160104   003            007640100308   0000021     05200 0000000002428407029494500000044877410455472851D0000000000084030001000CUPF                                       A2719EABAAE6140605200150E0F8C8008800E00001132FCE324D343907010103A0300201                                                00037C00220530764                                          0000000000000000764800000000000001E030022A000000333010102                002000001610                              
