100C0006244310102082969   0000000003008400509045106761735550518050921281976173526480840   26480840   581200000001601103019138787UBER   *EATS             SAN FRANCISCUSA000000000000000000000000000176173500029160104   29160104   007            008400101400   1000021     01200 0000000003008403000100000000055666510431855550C0000000000384030001000CUPF                                       
100C0006244310102082969   0000000022408400509030100500517881014050921281850051726480840   26480840   581200000001601103019138787UBER   * EATS PENDING    SAN FRANCISCUSA000000000000000000000000000150051700029160104   29160104   007            008400101400   1000021     01200 0000000022408403000100000000415643210431855550C0000000002284030001000CUPF                                       
100C0006291102820252038   0000010157001040510125501149620436900051078NMW310X0P130360528   30360528   412130360528303605280001399Grab* A-3ENTT8VWWG28     Singapore   SGP000000000000000000000000000114962000029160104   29160104   007            005282101100   1000011     01200 0000000005518407000542200000101570010430001000C0000000000684030001000CUPF                                       
100C0006244310032311710   0000005380001040509170041143761935873050978NMW310WW6I30360528   30360528   549930360528303605280238959Foodpanda Myanmar        Kuala LumpurMYS000000000000000000000000000114376100029160104   29160104   007            005282101300   1000021     01200 0000000002928407000542200000053800010430001000C0000000000384030001000CUPF                                       
100C0006244310036468169   0000002975001040509172012143901397580050978NMW310WWAE30360528   30360528   549930360528303605280238959Foodpanda Myanmar        Kuala LumpurMYS000000000000000000000000000114390100029160104   29160104   007            005282101300   1000021     01200 0000000001618407000542200000029750010430001000C0000000000284030001000CUPF                                       
100C0006291102820244068   0000002300001040509183638153394436900050975X66QG4HOSA30360528   30360528   549930360528303605280238959Foodpanda Myanmar        Kuala LumpurMYS000000000000000000000000000115339400029160104   29160104   007            005282101100   1000011     01200 0000000001258407000542200000023000010430001000C0000000000184030001000CUPF                                       
