100C0006291102820234135   0000002695001040529112511148251351170052978NMW3L0ZO5S30360528   30360528   412130360528303605280001399Grab* 235557578-C3K1VU2TNSingapore   SGP000000000000000000000000000114825100029160104   29160104   007            005282101100   1000011     01200 0000000001468407000542200000026950010430001000C0000000000184030001000CUPF                                       
100C0006244310106588300   0000021400001040528172053142896364002052878NMW3L0ZK2O30360528   30360528   549930360528303605280238959Foodpanda Myanmar        Kuala LumpurMYS000000000000000000000000000114289600029160104   29160104   007            005282101400   1000021     01200 0000000011608407000542200000214000010430001000C0000000001284030001000CUPF                                       
101C0006244310106588300   0000002890001040529232808116875887864052275X66QQ6HVVJ30360528   30360528   549930360528303605280238959Foodpanda Myanmar        Kuala LumpurMYS100052217300515692605220000111687500029160104   29160104   007 000        005282101400   0000021     01200 0000000001578407000542200000028900010430001000D0000000000284030001000CUPF                                       
100C0006291102820242138   0000006250001040528152414142025351170052878NMW3L0ZJEH30360528   30360528   549930360528303605280238959Foodpanda Myanmar        Kuala LumpurMYS000000000000000000000000000114202500029160104   29160104   007            005282101100   1000011     01200 0000000003398407000542200000062500010430001000C0000000000384030001000CUPF                                       
100C0006244310039800657   000001300000104052818083422294660583705286MRX9AXYVIXB30360528   30360528   549930360528303605280238959Foodpanda Myanmar        Kuala LumpurMYS000000000000000000000000000122294600029160104   29160104   007            005282101300   1000021     01200 0000000007058407000542200000130000010430001000C0000000000784030001000CUPF                                       
100C0006244310102082969   0000000012998400528012810822392429886052821471682239226480840   26480840   581200000001601103019138787UBER   * EATS PENDING    SAN FRANCISCUSA000000000000000000000000000182239200029160104   29160104   007            008400101400   1000021     01200 0000000012998403000100000000241035910431855550C0000000001384030001000CUPF                                       
100C0006244310102082969   0000000005008400528024035541192942651052821471754119226480840   26480840   581200000001601103019138787UBER   *EATS             SAN FRANCISCUSA000000000000000000000000000154119200029160104   29160104   007            008400101400   1000021     01200 0000000005008403000100000000092777510431855550C0000000000584030001000CUPF                                       
100E0006244310105494609   0000000034078400527090121000954450333052721463618301726480840   26480840   549995821553601132006710506MARKET STREET MARKET     LOWELL      USA000000000000000000000000000100095400029160104   29160104   003            008400101400   0000021     05200 0000000034078403000100000000632185910431855550C0000000000784030001000CUPF                                                       052000                                                                                                                                                                                                                                                                                
100C0006244310105494609   0000000031888400527231933006437116408052721470000643726480840   26480840   481412345678601110402336258VESTA  *AT&T PREPAID     866-608-3007USA000000000000000000000000000100643700029160104   29160104   007            008400101400   1000021     01200 0000000031888403000100000000591549310431855550C0000000003284030001000CUPF                                       
100C0006244310102082969   0000000048768400528002131540306802930052821471554030626480840   26480840   412100000001601103011637836UBR* PENDING.UBER.COM    SAN FRANCISCUSA000000000000000000000000000154030600029160104   29160104   007            008400101400   1000021     01200 0000000048768403000100000000904766210431855550C0000000004984030001000CUPF                                       
