100C0006244310039800657   000000310000104052320530822253623945705236MRX9AXYV36R30360528   30360528   412130360528303605280001399Grab* A-3GEQPBOWWGIP     Singapore   SGP000000000000000000000000000122253600029160104   29160104   007            005282101300   1000021     01200 0000000001688407000542200000031000010430001000C0000000000284030001000CUPF                                       
100C0006244310032887685   0000006530001040522145523144106913393052278NMW3B0ZY3E30360528   30360528   549930360528303605280238959Foodpanda Myanmar        Kuala LumpurMYS000000000000000000000000000114410600029160104   29160104   007            005282101300   1000021     01200 0000000003548407000542200000065300010430001000C0000000000484030001000CUPF                                       
100C0006291102820242138   0000003700001040522125032154736436900052275X66QQ6HU6Q30360528   30360528   549930360528303605280238959Foodpanda Myanmar        Kuala LumpurMYS000000000000000000000000000115473600029160104   29160104   007            005282101100   1000011     01200 0000000002018407000542200000037000010430001000C0000000000284030001000CUPF                                       
100C0006244310106588300   0000014865001040522173005156926887864052275X66QQ6HVVJ30360528   30360528   549930360528303605280238959Foodpanda Myanmar        Kuala LumpurMYS000000000000000000000000000115692600029160104   29160104   007            005282101400   1000021     01200 0000000008068407000542200000148650010430001000C0000000000884030001000CUPF                                       
100C0006244310037483134   000002050000104052219551923712243110205226K1GJY34LJT430360528   30360528   549930360528303605280238959Foodpanda Myanmar        Kuala LumpurMYS000000000000000000000000000123712200029160104   29160104   007            005282101300   1000021     01200 0000000011128407000542200000205000010430001000C0000000001184030001000CUPF                                       
100C0006291102820215001   000001342000104052217443023648243690005226K1GJY34LJBC30360528   30360528   549930360528303605280238959Foodpanda Myanmar        Kuala LumpurMYS000000000000000000000000000123648200029160104   29160104   007            005282101100   1000011     01200 0000000007288407000542200000134200010430001000C0000000000784030001000CUPF                                       
100C0006244310032298669   0000005700001040523222331145725274877052378NMW3L0YRF630360528   30360528   412130360528303605280001399Grab* A-3GF3QHLGWEGU     Singapore   SGP000000000000000000000000000114572500029160104   29160104   007            005282101300   1000021     01200 0000000003098407000542200000057000010430001000C0000000000384030001000CUPF                                       
100C0006244310039800657   0000003400001040523184708152138650914052375X66R0424EN30360528   30360528   412130360528303605280001399Grab* A-3GEFWR6WWICM     Singapore   SGP000000000000000000000000000115213800029160104   29160104   007            005282101300   1000021     01200 0000000001848407000542200000034000010430001000C0000000000284030001000CUPF                                       
100C0006244310039800657   0000016000001040523135428141257546100052378NMW3B103M030360528   30360528   412130360528303605280001399Grab* A-3GDL762WWJOX     Singapore   SGP000000000000000000000000000114125700029160104   29160104   007            005282101300   1000021     01200 0000000008688407000542200000160000010430001000C0000000000984030001000CUPF                                       
100C0006291102820249109   000000230000104052310205223875543690005236K1GJY34LL2H30360528   30360528   412130360528303605280001399Grab* A-3GDXLDBGWJQD     Singapore   SGP000000000000000000000000000123875500029160104   29160104   007            005282101100   1000011     01200 0000000001258407000542200000023000010430001000C0000000000184030001000CUPF                                       
100C0006291102820244670   0000002950001040522203452147022436900052278NMW3B100CD30360528   30360528   549930360528303605280238959Foodpanda Myanmar        Kuala LumpurMYS000000000000000000000000000114702200029160104   29160104   007            005282101100   1000011     01200 0000000001608407000542200000029500010430001000C0000000000284030001000CUPF                                       
100C0006244310037686546   000000405000104052218331723674178574805226K1GJY34LJIJ30360528   30360528   549930360528303605280238959Foodpanda Myanmar        Kuala LumpurMYS000000000000000000000000000123674100029160104   29160104   007            005282101300   1000021     01200 0000000002208407000542200000040500010430001000C0000000000284030001000CUPF                                       
100C0006244310030602854   0000006760001040522142649155593128320052275X66QQ6HUUI30360528   30360528   549930360528303605280238959Foodpanda Myanmar        Kuala LumpurMYS000000000000000000000000000115559300029160104   29160104   007            005282101300   1000021     01200 0000000003678407000542200000067600010430001000C0000000000484030001000CUPF                                       
100E0006244310106323286   0000027003001040522191048005539959506052222052218104834790104   34790104   554110001362000001000002905NEW DAY ENERGY MYG       Mayangone(KaMMR000000000000000000000000000100553900029160104   29160104   003            001040100421   0000021     07200 0000000014648407000542200000270030010430001000C0000000000284030001000CUPF                                       771E6B7A3241BBAF07210060E060C8000000000000831F762865146307010103A00000010A010000000000B38F6822                          000C7C00220522104                                          0000000003000000104800000000000001F000022A000000333010102                    0000                                  
