100C0006244310102082969   0000000018068400527102717332176011707052721460133217626480840   26480840   581200000001601103019138787UBER   * EATS PENDING    SAN FRANCISCUSA000000000000000000000000000133217600029160104   29160104   007            008400101400   1000021     01200 0000000018068403000100000000335112310431855550C0000000001884030001000CUPF                                       
100E0006244310036110670   000000000375840052521455900971271204305266438N994HAB226480840   26480840   541170904002601100118101690WHOLEFDS FRE #10467      FREMONT     USA000000000000000000000000000100971200029160104   29160104   003            008400101300   0000021     05200 0000000003758403000100000000069583110431855550C0000000000184030001000CUPF                                                       052000                                                                                                                                                                                                                                                                                
100E0006244310036110670   000000000736840052521485901110836452605261844N886HAW226480840   26480840   541170904002601100118101690WHOLEFDS FRE #10467      FREMONT     USA000000000000000000000000000101110800029160104   29160104   003            008400101300   0000021     05200 0000000007368403000100000000136568510431855550C0000000000184030001000CUPF                                                       052000                                                                                                                                                                                                                                                                                
100C0006244310102082969   0000000002008400527014042540951187908052721461654095126480840   26480840   581200000001601103019138787UBER   *EATS             SAN FRANCISCUSA000000000000000000000000000154095100029160104   29160104   007            008400101400   1000021     01200 0000000002008403000100000000037111010431855550C0000000000284030001000CUPF                                       
100C0006244310102082969   0000000002508400527115922881952960650052721460288195226480840   26480840   581200000001601103019138787UBER   *EATS             SAN FRANCISCUSA000000000000000000000000000188195200029160104   29160104   007            008400101400   1000021     01200 0000000002508403000100000000046388810431855550C0000000000384030001000CUPF                                       
100C0006244310102082969   0000000020728400527001357570673925492052721461557067326480840   26480840   581200000001601103019138787UBER   * EATS PENDING    SAN FRANCISCUSA000000000000000000000000000157067300029160104   29160104   007            008400101400   1000021     01200 0000000020728403000100000000384470010431855550C0000000002184030001000CUPF                                       
100C0006244310036110670   0000000117448400526033945511175463885052621452151117526480840   26480840   563105622636601100136934676CCS@ GREAT MALL #50647   MILPITAS    USA000000000000000000000000000151117500029160104   29160104   003            008400101300   0000021     02200 0000000117448403000100000002179157910431855550C0000000002384030001000CUPF                                       
100C0006244310105494609   0000000003008400526142208570762755039052621460557076226480840   26480840   581200000001601103019138787UBER   *EATS             SAN FRANCISCUSA000000000000000000000000000157076200029160104   29160104   007            008400101400   1000021     01200 0000000003008403000100000000055666510431855550C0000000000384030001000CUPF                                       
100C0006244310032887685   0000003250001040527181707145035170460052778NMW3L0ZE0G30360528   30360528   549930360528303605280238959Foodpanda Myanmar        Kuala LumpurMYS000000000000000000000000000114503500029160104   29160104   007            005282101300   1000021     01200 0000000001768407000542200000032500010430001000C0000000000284030001000CUPF                                       
100C0006244310031624030   0000006800001040527154604143871628601052778NMW3L0ZD4530360528   30360528   549930360528303605280238959Foodpanda Myanmar        Kuala LumpurMYS000000000000000000000000000114387100029160104   29160104   007            005282101300   1000021     01200 0000000003698407000542200000068000010430001000C0000000000484030001000CUPF                                       
100C0006244310039800657   0000005750001040527154715143880124346052778NMW3L0ZD4E30360528   30360528   549930360528303605280238959Foodpanda Myanmar        Kuala LumpurMYS000000000000000000000000000114388000029160104   29160104   007            005282101300   1000021     01200 0000000003128407000542200000057500010430001000C0000000000384030001000CUPF                                       
100C0006244310039800657   0000007390001040527160139152289645621052775X66R042RNC30360528   30360528   549930360528303605280238959Foodpanda Myanmar        Kuala LumpurMYS000000000000000000000000000115228900029160104   29160104   007            005282101300   1000021     01200 0000000004018407000542200000073900010430001000C0000000000484030001000CUPF                                       
100C0006291102820266517   0000004800001040527190433153851351170052775X66R042SUP30360528   30360528   549930360528303605280238959Foodpanda Myanmar        Kuala LumpurMYS000000000000000000000000000115385100029160104   29160104   007            005282101100   1000011     01200 0000000002608407000542200000048000010430001000C0000000000384030001000CUPF                                       
100C0006244310039991811   000001130000104052717042022839462503605276MRX9AXYVFEV30360528   30360528   549930360528303605280238959Foodpanda Myanmar        Kuala LumpurMYS000000000000000000000000000122839400029160104   29160104   007            005282101300   1000021     01200 0000000006138407000542200000113000010430001000C0000000000684030001000CUPF                                       
100C0006291102820236031   0000005250001040527171712144539351170052778NMW3L0ZDMO30360528   30360528   549930360528303605280238959Foodpanda Myanmar        Kuala LumpurMYS000000000000000000000000000114453900029160104   29160104   007            005282101100   1000011     01200 0000000002858407000542200000052500010430001000C0000000000384030001000CUPF                                       
100C0006244310036164610   0000000009898400527142443143259570413052778XHD18PQW8X30360528   30360528   581530360528303605280226996Scribd Netherlands BV    Schiphol    NLD000000000000000000000000000114325900029160104   29160104   007            005282101300   1000021     01200 0000000009898403000100000000183513910431855550C0000000001084030001000CUPF                                       
100E0006244310037394513   0000018002001040527215411005619290167052722052720541134790104   34790104   554110001362000001000002905NEW DAY ENERGY MYG       Mayangone(KaMMR000000000000000000000000000100561900029160104   29160104   003            001040100321   0000021     07200 0000000009768407000542200000180020010430001000C0000000000284030001000CUPF                                       967912F3569C989307210060E060C800000000002016003C2865146307010103A00000010A0100000000006555DF86                          00107C00220527104                                          0000000002000000104800000000000001F000022A000000333010102                    0000                                  
100E0006244310039328113   0000003270009010527203434468881569605052721471206888126740158   26740158   569150801492158802546070000ZARA CHUNG HSIAO E RD STOTAIPEI CITY  TW000000000000000000000000000146888100029160104   29160104   003F           001580100308   0000021     05100 0000000111758407034172900002073491610456340953C0000000002284030001000CUPF                                       1DE6AEBF6EBC621005100131E060C8008000E000DC1DE88D        0701010360200201                                                000D7C00                                                   00  000000327000901                                                                                                
