100E0006244310107162642   0000020000007640519190347003517108307051921391100351726760764   26760764   806224833769002220032072   BUMRUNGRAD HOSPITAL      BANGKOK     THA000000000000000000000000000100351700029160104   29160104   003            007640100408   0000021     05200 0000000580188407029009200010765618010455382809C0000000055184030001000CUPF                                       37EC84A0C1F5FCCF05200150E0F0C8008000E0006AB769179324853707010103A0A00201                                                00097C00220519764                                          0000000002000000764800000000000001E030022A000000333010102                003200003517                              
100E0006244310107162642   0000019152007640519111844023964655462051921390302396426760764   26760764   806224833811002220032072   BUMRUNGRAD HOSPITAL      BANGKOK     THA000000000000000000000000000102396400029160104   29160104   003            007640100408   0000021     05200 0000000555588407029009200010309155810455382809C0000000052884030001000CUPF                                       F550524BA45874A905200150E0F0C8008800E000048824D29198682507010103A0300201                                                00057C00220519764                                          0000000001915200764800000000000001E030022A000000333010102                003200023964                              
100C0006291102820242138   0000003500001040518115202152673436900051875X66QQ6H5IB30360528   30360528   549930360528303605280238959Foodpanda Myanmar        Kuala LumpurMYS000000000000000000000000000115267300029160104   29160104   007            005282101100   1000011     01200 0000000001908407000542200000035000010430001000C0000000000284030001000CUPF                                       
100C0006244310037686546   0000016250001040518202601145082804261051878NMW3B0ZBPF30360528   30360528   549930360528303605280238959Foodpanda Myanmar        Kuala LumpurMYS000000000000000000000000000114508200029160104   29160104   007            005282101300   1000021     01200 0000000008818407000542200000162500010430001000C0000000000984030001000CUPF                                       
100C0006291102820242138   0000005100001040518091838151673436900051875X66QQ6H4QJ30360528   30360528   549930360528303605280238959Foodpanda Myanmar        Kuala LumpurMYS000000000000000000000000000115167300029160104   29160104   007            005282101100   1000011     01200 0000000002778407000542200000051000010430001000C0000000000384030001000CUPF                                       
100C0006244310032887685   0000002750001040518150835154289413180051875X66QQ6H6R630360528   30360528   549930360528303605280238959Foodpanda Myanmar        Kuala LumpurMYS000000000000000000000000000115428900029160104   29160104   007            005282101300   0900021     01200 0000000001498407000542200000027500010430001000C0000000000184030001000CUPF                                       
100C0006291102820242138   0000006400001040518154856154555436900051875X66QQ6H6YK30360528   30360528   549930360528303605280238959Foodpanda Myanmar        Kuala LumpurMYS000000000000000000000000000115455500029160104   29160104   007            005282101100   1000011     01200 0000000003478407000542200000064000010430001000C0000000000384030001000CUPF                                       
100C0006291102820244670   000000645000104051819073822879643690005186MRX9AO01IKE30360528   30360528   549930360528303605280238959Foodpanda Myanmar        Kuala LumpurMYS000000000000000000000000000122879600029160104   29160104   007            005282101100   1000011     01200 0000000003508407000542200000064500010430001000C0000000000484030001000CUPF                                       
