100C0006291102820244670   0000003400001040525092745153423436900052575X66R042D3O30360528   30360528   549930360528303605280238959Foodpanda Myanmar        Kuala LumpurMYS000000000000000000000000000115342300029160104   29160104   007            005282101100   1000011     01200 0000000001848407000542200000034000010430001000C0000000000284030001000CUPF                                       
100C0006244310032887685   0000008200001040525165637148588641678052578NMW3L0Z1BS30360528   30360528   549930360528303605280238959Foodpanda Myanmar        Kuala LumpurMYS000000000000000000000000000114858800029160104   29160104   007            005282101300   1000021     01200 0000000004458407000542200000082000010430001000C0000000000484030001000CUPF                                       
100C0006244310036366868   0000005555001040525100934153655260141052575X66R042DA430360528   30360528   549930360528303605280238959Foodpanda Myanmar        Kuala LumpurMYS000000000000000000000000000115365500029160104   29160104   007            005282101300   1000021     01200 0000000003018407000542200000055550010430001000C0000000000384030001000CUPF                                       
100C0006244310036366868   0000004000001040525151205147876508772052578NMW3L0Z0S030360528   30360528   549930360528303605280238959Foodpanda Myanmar        Kuala LumpurMYS000000000000000000000000000114787600029160104   29160104   007            005282101300   1000021     01200 0000000002178407000542200000040000010430001000C0000000000284030001000CUPF                                       
100C0006291102820215019   0000005300001040525151239156264436900052575X66R042FAI30360528   30360528   549930360528303605280238959Foodpanda Myanmar        Kuala LumpurMYS000000000000000000000000000115626400029160104   29160104   007            005282101100   1000011     01200 0000000002878407000542200000053000010430001000C0000000000384030001000CUPF                                       
100C0006291102820215019   0000006200001040525151943156310436900052575X66R042FBS30360528   30360528   549930360528303605280238959Foodpanda Myanmar        Kuala LumpurMYS000000000000000000000000000115631000029160104   29160104   007            005282101100   1000011     01200 0000000003368407000542200000062000010430001000C0000000000384030001000CUPF                                       
100C0006244310039800657   0000004650001040525132640155343416308052575X66R042EKY30360528   30360528   549930360528303605280238959Foodpanda Myanmar        Kuala LumpurMYS000000000000000000000000000115534300029160104   29160104   007            005282101300   1000021     01200 0000000002528407000542200000046500010430001000C0000000000384030001000CUPF                                       
100C0006244310039800657   0000011950001040525133454147044395392052578NMW3L0Z04X30360528   30360528   549930360528303605280238959Foodpanda Myanmar        Kuala LumpurMYS000000000000000000000000000114704400029160104   29160104   007            005282101300   1000021     01200 0000000006488407000542200000119500010430001000C0000000000684030001000CUPF                                       
100C0006291102820215019   0000010100001040525031436152638436900052575X66R042CHX30360528   30360528   549930360528303605280238959Foodpanda Myanmar        Kuala LumpurMYS000000000000000000000000000115263800029160104   29160104   007            005282101100   1000011     01200 0000000005488407000542200000101000010430001000C0000000000584030001000CUPF                                       
100C0006291102820242138   0000007610001040525121051154605436900052575X66R042E0H30360528   30360528   549930360528303605280238959Foodpanda Myanmar        Kuala LumpurMYS000000000000000000000000000115460500029160104   29160104   007            005282101100   1000011     01200 0000000004138407000542200000076100010430001000C0000000000484030001000CUPF                                       
100C0006291102820242138   0000007750001040525083553153173436900052575X66R042CWQ30360528   30360528   549930360528303605280238959Foodpanda Myanmar        Kuala LumpurMYS000000000000000000000000000115317300029160104   29160104   007            005282101100   1000011     01200 0000000004208407000542200000077500010430001000C0000000000484030001000CUPF                                       
100C0006244310032298669   0000004650001040525160134148228450096052578NMW3L0Z11S30360528   30360528   549930360528303605280238959Foodpanda Myanmar        Kuala LumpurMYS000000000000000000000000000114822800029160104   29160104   007            005282101300   1000021     01200 0000000002528407000542200000046500010430001000C0000000000384030001000CUPF                                       
100C0006291102820244670   0000003000001040525181642149198436900052578NMW3L0Z1SQ30360528   30360528   549930360528303605280238959Foodpanda Myanmar        Kuala LumpurMYS000000000000000000000000000114919800029160104   29160104   007            005282101100   1000011     01200 0000000001638407000542200000030000010430001000C0000000000284030001000CUPF                                       
100E0006244310102082969   000000004226840052505504800557431695405254207N271HAB126480840   26480840   531013226175601100128732260TARGET T-3226            BOSTON      USA000000000000000000000000000100557400029160104   29160104   003            008400101400   0000021     05200 0000000042268403000100000000784155410431855550C0000000000884030001000CUPF                                                       052000                                                                                                                                                                                                                                                                                
100E0006244310036110670   000000004703840052423040200070709646605256520N965HAS126480840   26480840   541131422176601101642014227TARGET T-1422            FREMONT     USA000000000000000000000000000100070700029160104   29160104   003            008400101300   0000021     05200 0000000047038403000100000000872665210431855550C0000000000984030001000CUPF                                                       052000                                                                                                                                                                                                                                                                                
100C0006244310102082969   0000000019668400525002307880899521927052521441588089926480840   26480840   581200000001601103019138787UBER   * EATS PENDING    SAN FRANCISCUSA000000000000000000000000000188089900029160104   29160104   007            008400101400   1000021     01200 0000000019668403000100000000364801110431855550C0000000002084030001000CUPF                                       
101C0006244310036110670   00000000132184005250702530055670000000524            26480840   26480840   5310        601101642014227TARGET     00014225091                  100052507025300556700000000100556700029160104   29160104   003            008400   300   0000021     00000 0000000013218403000100000000245118210431855550D0000000000384030001000CUPF                                       
100E0006244310036110670   000000003498840052605094731894181140205265XVWG82TMKBG30370840   30370528   565501917999303705280036641Nike Milpitas 123        Milpitas    USA000000000000000000000000000131894100029160104   29160104   003            008401100300   0000021     05200 0000000034988403000100000000649071410431855550C0000000000784030001000CUPF                                       709FD95483C0EE2105200151E0F8C8008000E000144AEE2C0191799907010103A0200201                                                00117C00220525840                                          000000000000349884080            1E030022                                003000010140                              
100E0006244310036110670   00000000523684005260507132982646694930526646D9Q7MU9FU30370840   30370528   565501917999303705280036641Nike Milpitas 123        Milpitas    USA000000000000000000000000000129826400029160104   29160104   003            008401100300   0000021     05200 0000000052368403000100000000971566010431855550C0000000001084030001000CUPF                                       7F89209680E42C5005200151E0F8C8008000E00099C079860191799907010103A0A00201                                                00107C00220525840                                          000000000000523684080            1E030022                                003000010139                              
