100C0006244310102082969   0000000042508400518214445977775669483051821381297777526480840   26480840   481400001000601177031255217VESTA  *AT&T PREPAID     866-608-3007USA000000000000000000000000000197777500029160104   29160104   007            008400101400   1000021     01200 0000000042508403000100000000788608810431855550C0000000004384030001000CUPF                                       
100C0006291102820242138   0000005870001040519175330153054436900051975X66QQ6HDGR30360528   30360528   549930360528303605280238959Foodpanda Myanmar        Kuala LumpurMYS000000000000000000000000000115305400029160104   29160104   007            005282101100   1000011     01200 0000000003188407000542200000058700010430001000C0000000000384030001000CUPF                                       
100C0006244310039800657   0000007630001040519150820140315081413051978NMW3B0ZFQS30360528   30360528   549930360528303605280238959Foodpanda Myanmar        Kuala LumpurMYS000000000000000000000000000114031500029160104   29160104   007            005282101300   1000021     01200 0000000004148407000542200000076300010430001000C0000000000484030001000CUPF                                       
100C0006291102820242138   0000004820001040519132323151140436900051975X66QQ6HBZL30360528   30360528   549930360528303605280238959Foodpanda Myanmar        Kuala LumpurMYS000000000000000000000000000115114000029160104   29160104   007            005282101100   1000011     01200 0000000002618407000542200000048200010430001000C0000000000384030001000CUPF                                       
100C0006291102820244670   0000005250001040519134207151323436900051975X66QQ6HC4O30360528   30360528   549930360528303605280238959Foodpanda Myanmar        Kuala LumpurMYS000000000000000000000000000115132300029160104   29160104   007            005282101100   1000011     01200 0000000002858407000542200000052500010430001000C0000000000384030001000CUPF                                       
100C0006244310039800657   0000004100001040520141901159343894759052075X66QQ6HIBD30360528   30360528   412130360528303605280001399Grab* A-3GXA92BWWEEO     Singapore   SGP000000000000000000000000000115934300029160104   29160104   007            005282101300   1000021     01200 0000000002228407000542200000041000010430001000C0000000000284030001000CUPF                                       
