100C0006244310037483134   0000013250001040510195157142812172170051078NMW310X35O30360528   30360528   549930360528303605280238959Foodpanda Myanmar        Kuala LumpurMYS000000000000000000000000000114281200029160104   29160104   007            005282101300   1000021     01200 0000000007188407000542200000132500010430001000C0000000000784030001000CUPF                                       
100C0006244310039800657   000001062000104051017405522716178567105106MRX9ADZ5RDW30360528   30360528   549930360528303605280238959Foodpanda Myanmar        Kuala LumpurMYS000000000000000000000000000122716100029160104   29160104   007            005282101300   1000021     01200 0000000005768407000542200000106200010430001000C0000000000684030001000CUPF                                       
100C0006291102820242138   0000006150001040510152707140827436900051078NMW310X1MK30360528   30360528   549930360528303605280238959Foodpanda Myanmar        Kuala LumpurMYS000000000000000000000000000114082700029160104   29160104   007            005282101100   1000011     01200 0000000003338407000542200000061500010430001000C0000000000384030001000CUPF                                       
100C0006291102820280393   000000006300826051109412415461943690005117670NO3T9H1L30360528   30360528   829930360528303605280262926ASSOCIATION OF CHARTERED Glasgow     GBR000000000000000000000000000115461900029160104   29160104   007            005282101100   1000011     01200 0000000077888406123620900001481251610432351193C0000000007884030001000CUPF                                       
100C0006291102820242138   000000735000104051011115722552443690005106MRX9ADZ5Q4G30360528   30360528   549930360528303605280238959Foodpanda Myanmar        Kuala LumpurMYS000000000000000000000000000122552400029160104   29160104   007            005282101100   1000011     01200 0000000003998407000542200000073500010430001000C0000000000484030001000CUPF                                       
100C0006244310031624030   000000373500104051017033522700183672905106MRX9ADZ5R9G30360528   30360528   549930360528303605280238959Foodpanda Myanmar        Kuala LumpurMYS000000000000000000000000000122700100029160104   29160104   007            005282101300   1000021     01200 0000000002038407000542200000037350010430001000C0000000000284030001000CUPF                                       
100E0006244310103708182   0000017675001040510111441006780161474051022051010144134790104   34790104   541110001502000001000022614CITY MART (JS )          Kamayut     MMR000000000000000000000000000100678000029160104   29160104   003            001040100421   0000021     07200 0000000009588407000542200000176750010430001000C0000000000184030001000CUPF                                       2FE6ADF082DEF88A07210060E060C80000000000536F2FA52219073807010103A00000010A010000000000E88CBC17                          00067C00220510104                                          0000000001767500104800000000000001F000022A000000333010102                    0000                                  
100C0006244310102082969   0000000024478400510091546008538886194051021290000853826480840   26480840   581212345678601110409221602SQ *NOODLE STREET        Boston      USA000000000000000000000000000100853800029160104   29160104   003            008400101400   0000021     02200 0000000024478403000100000000454053110431855550C0000000000584030001000CUPF                                       
