100E0006291102820211612   0000070650001040514124700008406436900051422051411470034790104   34790104   541110001500000001000022614CITY MART (JS )          Kamayut     MMR000000000000000000000000000100840600029160104   29160104   003            001040100121   0000011     07100 0000000038318407000542200000706500010430001000C0000000000684030001000CUPF                                       F875E375207E41B807110060E060C8000000000034D9735F3014318407210103A00000010A010000000000D0055501                          000A7C00220514104                                          00000000070650001048000000000000002000022A000000333010101                    0000                                  
100E0006244310030604546   0000265651001040514192909002810703432051422051418290934790104   34790104   541110001537000001000022697CITY MART ( SPL )        DagonMyothitMMR000000000000000000000000000100281000029160104   29160104   003            001040100321   0000021     07200 0000000144048407000542200002656510010430001000C0000000002284030001000CUPF                                       5E3E4CD1D355987807210060E060C8000000000004E525782865183607010103A0000001                                                00057C00220514104                                          0000000026565100104800000000000001E000022A000000333010102                    0000                                  
100C0006244310036110670   000000001148840051305283704522448598305132451N154HAS126480840   26480840   541133154001601105100406023RALEY S #315             FREMONT     USA000000000000000000000000000104522400029160104   29160104   003            008400101300   0000021     02200 0000000011488403000100000000213017110431855550C0000000000284030001000CUPF                                       
100C0006244310102082969   0000000046458400514045224501237402055051421331950123726480840   26480840   581200000001601103019138787UBER   * EATS PENDING    SAN FRANCISCUSA000000000000000000000000000150123700029160104   29160104   007            008400101400   1000021     01200 0000000046458403000100000000861903010431855550C0000000004684030001000CUPF                                       
100C0006244310102082969   0000000003008400514062350381341359509051421332138134126480840   26480840   581200000001601103019138787UBER   *EATS             SAN FRANCISCUSA000000000000000000000000000138134100029160104   29160104   007            008400101400   1000021     01200 0000000003008403000100000000055666510431855550C0000000000384030001000CUPF                                       
100C0006244310039800657   0000004580001040514134739150221465758051475X66QG4IH6O30360528   30360528   549930360528303605280238959Foodpanda Myanmar        Kuala LumpurMYS000000000000000000000000000115022100029160104   29160104   007            005282101300   1000021     01200 0000000002488407000542200000045800010430001000C0000000000284030001000CUPF                                       
100C0006291102820242138   000000884000104051420230523613543690005146K1GJXT3OFTM30360528   30360528   549930360528303605280238959Foodpanda Myanmar        Kuala LumpurMYS000000000000000000000000000123613500029160104   29160104   007            005282101100   1000011     01200 0000000004798407000542200000088400010430001000C0000000000584030001000CUPF                                       
100C0006244310032298669   0000006700001040515075151146699364426051578NMW310XTAG30360528   30360528   412130360528303605280001399Grab* A-3FBLAQDGWIH2     Singapore   SGP000000000000000000000000000114669900029160104   29160104   007            005282101300   1000021     01200 0000000003638407000542200000067000010430001000C0000000000484030001000CUPF                                       
100C0006291102820242138   0000008160001040514155131142028436900051478NMW310XPOS30360528   30360528   549930360528303605280238959Foodpanda Myanmar        Kuala LumpurMYS000000000000000000000000000114202800029160104   29160104   007            005282101100   1000011     01200 0000000004428407000542200000081600010430001000C0000000000484030001000CUPF                                       
100C0006244310039800657   000001116500104051513071322790358429705156MRX9ADZ67DA30360528   30360528   412130360528303605280001399Grab* A-3FCI6OUWWET3     Singapore   SGP000000000000000000000000000122790300029160104   29160104   007            005282101300   1000021     01200 0000000006058407000542200000111650010430001000C0000000000684030001000CUPF                                       
100C0006244310039800657   0000007565001040515132328157995245291051575X66QG4IN6H30360528   30360528   412130360528303605280001399Grab* A-3FCJMCFWWIW4     Singapore   SGP000000000000000000000000000115799500029160104   29160104   007            005282101300   1000021     01200 0000000004108407000542200000075650010430001000C0000000000484030001000CUPF                                       
