100C0006244310036164610   0000000009998400514172005337084726533051421341133708426480840   26480840   737212345678601181470002502DISCORD* NITROMONTHLY    SAN FRANCISCUSA000000000000000000000000000133708400029160104   29160104   007            008400101300   1000021     01200 0000000009998403000100000000185369410431855550C0000000001084030001000CUPF                                       
100C0006291102820215019   000000760000104051520222323033843690005156K1GJXT3OJ2B30360528   30360528   549930360528303605280238959Foodpanda Myanmar        Kuala LumpurMYS000000000000000000000000000123033800029160104   29160104   007            005282101100   1000011     01200 0000000004128407000542200000076000010430001000C0000000000484030001000CUPF                                       
100C0006244310030602854   0000010690001040515204938151786060837051575X66QG4IQ3Q30360528   30360528   549930360528303605280238959Foodpanda Myanmar        Kuala LumpurMYS000000000000000000000000000115178600029160104   29160104   007            005282101300   1000021     01200 0000000005808407000542200000106900010430001000C0000000000684030001000CUPF                                       
100C0006244310106588300   000002007000104051517493022910248356105156MRX9ADZ68AJ30360528   30360528   549930360528303605280238959Foodpanda Myanmar        Kuala LumpurMYS000000000000000000000000000122910200029160104   29160104   007            005282101400   1000021     01200 0000000010888407000542200000200700010430001000C0000000001184030001000CUPF                                       
100C0006291102820242138   000000973250104051515192322850143690005156MRX9ADZ67TU30360528   30360528   549930360528303605280238959Foodpanda Myanmar        Kuala LumpurMYS000000000000000000000000000122850100029160104   29160104   007            005282101100   1000011     01200 0000000005288407000542200000097325010430001000C0000000000584030001000CUPF                                       
100C0006291102820266517   0000005250001040515132415158003436900051575X66QG4IN6P30360528   30360528   549930360528303605280238959Foodpanda Myanmar        Kuala LumpurMYS000000000000000000000000000115800300029160104   29160104   007            005282101100   1000011     01200 0000000002858407000542200000052500010430001000C0000000000384030001000CUPF                                       
100C0006291102820290863   0000003470001040515110231156708436900051575X66QG4IM6S30360528   30360528   549930360528303605280238959Foodpanda Myanmar        Kuala LumpurMYS000000000000000000000000000115670800029160104   29160104   007            005282101100   1000011     01200 0000000001888407000542200000034700010430001000C0000000000284030001000CUPF                                       
