100C0006244310102082969   0000000015978400602205954382138137531060221531138213826480840   26480840   581200000001601103019138787UBER   * EATS PENDING    SAN FRANCISCUSA000000000000000000000000000138213800029160104   29160104   007            008400101400   1000021     01200 0000000015978403000100000000296331310431855550C0000000001684030001000CUPF                                       
100C0006244310102082969   0000000018098400603094034382222210552060321530038222226480840   26480840   581200000001601103019138787UBER   * EATS PENDING    SAN FRANCISCUSA000000000000000000000000000138222200029160104   29160104   007            008400101400   1000021     01200 0000000018098403000100000000335669010431855550C0000000001884030001000CUPF                                       
100C0006244310102082969   0000000002008400603110959541943820488060321530254194326480840   26480840   581200000001601103019138787UBER   *EATS             SAN FRANCISCUSA000000000000000000000000000154194300029160104   29160104   007            008400101400   1000021     01200 0000000002008403000100000000037111010431855550C0000000000284030001000CUPF                                       
100C0006244310102082969   0000000002008400602223259570237287139060221531357023726480840   26480840   581200000001601103019138787UBER   *EATS             SAN FRANCISCUSA000000000000000000000000000157023700029160104   29160104   007            008400101400   1000021     01200 0000000002008403000100000000037111010431855550C0000000000284030001000CUPF                                       
100C0006291102820242138   000000616250104060315545623336747738006036K1GJYN3229S30360528   30360528   549930360528303605280238959Foodpanda Myanmar        Kuala LumpurMYS000000000000000000000000000123336700029160104   29160104   007            005282101100   1000011     01200 0000000003348407000542200000061625010430001000C0000000000384030001000CUPF                                       
100C0006244310036366868   0000003050001040603142004147877702431060378NMW3UZBX1530360528   30360528   549930360528303605280238959Foodpanda Myanmar        Kuala LumpurMYS000000000000000000000000000114787700029160104   29160104   007            005282101300   1000021     01200 0000000001658407000542200000030500010430001000C0000000000284030001000CUPF                                       
100C0006244310106446681   0000024350001040603173256149431380273060378NMW3UZBY8B30360528   30360528   549930360528303605280238959Foodpanda Myanmar        Kuala LumpurMYS000000000000000000000000000114943100029160104   29160104   007            005282101400   1000021     01200 0000000013208407000542200000243500010430001000C0000000001384030001000CUPF                                       
