100C0006291102820261054   0000000641970360610160648434634477380061024967819a41828850036   00049992   939901080209353109198760020DEPARTMENT OF HOME AFFAIRS              000000000000000000000000000043463400029160104   29160104   007            060362101100   0900011     01200 0000000458258407713819200008715641510431357640C0000000045884030001000CUPF                                       
100C0006291102820249109   000000280000104061015402122801947738006106MRX9BJDR4HM30360528   30360528   412130360528303605280001399Grab* A-3IO3USXWWIJV     Singapore   SGP000000000000000000000000000122801900029160104   29160104   007            005282101100   1000011     01200 0000000001528407000542200000028000010430001000C0000000000284030001000CUPF                                       
100C0006244310037686546   0000003250001040609152128143713981865060978NMW46FKUIN30360528   30360528   549930360528303605280238959Foodpanda Myanmar        Kuala LumpurMYS000000000000000000000000000114371300029160104   29160104   007            005282101300   1000021     01200 0000000001768407000542200000032500010430001000C0000000000284030001000CUPF                                       
100C0006244310105494609   0000000044378400609043433701668288260060921591970166826480840   26480840   581200000001601103019138787UBER   * EATS PENDING    SAN FRANCISCUSA000000000000000000000000000170166800029160104   29160104   007            008400101400   1000021     01200 0000000044378403000100000000823307510431855550C0000000004484030001000CUPF                                       
100C0006244310105494609   0000000004008400609055318700780453508060921592070078026480840   26480840   581200000001601103019138787UBER   *EATS             SAN FRANCISCUSA000000000000000000000000000170078000029160104   29160104   007            008400101400   1000021     01200 0000000004008403000100000000074222010431855550C0000000000484030001000CUPF                                       
100C0006244310034800660   0000000007457020610084104907119485695061021610890711940850702   40530036   5999VVGBNZ07R3OK2UGQQFUFIIQAMAZON RETAIL SG         SINGAPORE   SGP000000000000000000000000000190711900029160104   29160104   007F           007022101300   1000021     01200 0000000005418407726055100000100368710431347231C0000000000584030001000CUPF                                       
