100C0006244310105494609   0000000002408400602140337880753953648060221530588075326480840   26480840   581200000001601103019138787UBER   *EATS             SAN FRANCISCUSA000000000000000000000000000188075300029160104   29160104   007            008400101400   1000021     01200 0000000002408403000100000000044533210431855550C0000000000284030001000CUPF                                       
100C0006244310105494609   0000000024648400602123212541683350843060221520354168326480840   26480840   581200000001601103019138787UBER   * EATS PENDING    SAN FRANCISCUSA000000000000000000000000000154168300029160104   29160104   007            008400101400   1000021     01200 0000000024648403000100000000457207510431855550C0000000002584030001000CUPF                                       
100C0006244310105494609   0000000069208400601202652001194641550060121520000119426480840   26480840   594212345678601100118713080AMZN Mktp US             Amzn.com/bilUSA000000000000000000000000000100119400029160104   29160104   007            008400101400   1000021     01200 0000000069208403000100000001284040610431855550C0000000006984030001000CUPF                                       
100C0006291102820242138   000000840000104060220110823020647738006026K1GJYN31ZU030360528   30360528   549930360528303605280238959Foodpanda Myanmar        Kuala LumpurMYS000000000000000000000000000123020600029160104   29160104   007            005282101100   1000011     01200 0000000004558407000542200000084000010430001000C0000000000584030001000CUPF                                       
100C0006291102820215019   0000008925001040602151721151280477380060275X66RA4NRBC30360528   30360528   549930360528303605280238959Foodpanda Myanmar        Kuala LumpurMYS000000000000000000000000000115128000029160104   29160104   007            005282101100   1000011     01200 0000000004848407000542200000089250010430001000C0000000000584030001000CUPF                                       
100C0006244310037686546   0000002750001040602133116148917181458060278NMW3UZBQ4C30360528   30360528   549930360528303605280238959Foodpanda Myanmar        Kuala LumpurMYS000000000000000000000000000114891700029160104   29160104   007            005282101300   1000021     01200 0000000001498407000542200000027500010430001000C0000000000184030001000CUPF                                       
100C0006244310106588300   0000006440001040602170923140567573709060278NMW3UZBRE630360528   30360528   549930360528303605280238959Foodpanda Myanmar        Kuala LumpurMYS000000000000000000000000000114056700029160104   29160104   007            005282101400   1000021     01200 0000000003498407000542200000064400010430001000C0000000000384030001000CUPF                                       
100C0006291102820219227   000000280000104060219483123009147738006026K1GJYN31ZQT30360528   30360528   549930360528303605280238959Foodpanda Myanmar        Kuala LumpurMYS000000000000000000000000000123009100029160104   29160104   007            005282101100   1000011     01200 0000000001528407000542200000028000010430001000C0000000000284030001000CUPF                                       
100E0006244310032049740   0000000284507640602172142222840621201060221531722284037860764   37860764   541117019074541101084027670Thai Smart Card Company Limited         000000000000000000000000000122284000029160104   29160104   003            007640100308   0000021     07200 0000000008328407029237100000154343810455425088C0000000000284030001000CUPF                                       E53406B38AAAE32F07200150E0F8C8000000000081CF1768324D343907010103A00000010A0100000000003D3C1E71                          00067C00220602764                                          000000000002845076480                  22A000000333010102                    00000000                              
100E0006244310038466005   0000002800007640603124239011541936568060321540401154126760764   26760764   594127013514002201419660   CRC SPORTS-CENTRAL WOR   BANGKOK     THA000000000000000000000000000101154100029160104   29160104   003            007640100308   0000021     05200 0000000082208407029356700001525236710455447274C0000000001684030001000CUPF                                       EB9FA7A4BD4A125605200150E0F0C8008000E800AB77E8362500920507010103A0200201                                                000B7C00220603764                                          0000000000280000764800000000000001E030022A000000333010102                002000000546                              
