100C0006244310102082969   0000000003008400607112846381404007165060721570238140426480840   26480840   581200000001601103019138787UBER   *EATS             SAN FRANCISCUSA000000000000000000000000000138140400029160104   29160104   007            008400101400   1000021     01200 0000000003008403000100000000055666510431855550C0000000000384030001000CUPF                                       
100C0006244310102082969   0000000002508400607104211350717482324060721570135071726480840   26480840   581200000001601103019138787UBER   *EATS             SAN FRANCISCUSA000000000000000000000000000135071700029160104   29160104   007            008400101400   1000021     01200 0000000002508403000100000000046388810431855550C0000000000384030001000CUPF                                       
100C0006244310102082969   0000000010588400607092206702758290742060721570070275826480840   26480840   581200000001601103019138787UBER   * EATS PENDING    SAN FRANCISCUSA000000000000000000000000000170275800029160104   29160104   007            008400101400   1000021     01200 0000000010588403000100000000196317210431855550C0000000001184030001000CUPF                                       
100C0006244310102082969   0000000018068400607092001881745028318060721570088174526480840   26480840   581200000001601103019138787UBER   * EATS PENDING    SAN FRANCISCUSA000000000000000000000000000188174500029160104   29160104   007            008400101400   1000021     01200 0000000018068403000100000000335112310431855550C0000000001884030001000CUPF                                       
100C0006244310102082969   0000000046838400607002143332235441121060721571533223526480840   26480840   412100000001601103011637836UBR* PENDING.UBER.COM    SAN FRANCISCUSA000000000000000000000000000133223500029160104   29160104   007            008400101400   1000021     01200 0000000046838403000100000000868954110431855550C0000000004784030001000CUPF                                       
100C0006291102820242138   000001585000104060713560422932447738006076MRX9B7YFAQR30360528   30360528   549930360528303605280238959Foodpanda Myanmar        Kuala LumpurMYS000000000000000000000000000122932400029160104   29160104   007            005282101100   1000011     01200 0000000008598407000542200000158500010430001000C0000000000984030001000CUPF                                       
100C0006291102820242138   0000004200001040607141458152747477380060775X66RA4ONB030360528   30360528   549930360528303605280238959Foodpanda Myanmar        Kuala LumpurMYS000000000000000000000000000115274700029160104   29160104   007            005282101100   1000011     01200 0000000002288407000542200000042000010430001000C0000000000284030001000CUPF                                       
100C0006291102820212081   0000005119001040608125533152709477380060875X66RLJ2KR730360528   30360528   412130360528303605280001399Grab* A-3IFD6I2GWJAX     Singapore   SGP000000000000000000000000000115270900029160104   29160104   007            005282101100   1000011     01200 0000000002788407000542200000051190010430001000C0000000000384030001000CUPF                                       
100C0006244310031624030   0000006450001040607091148150255978640060775X66RA4OLDS30360528   30360528   549930360528303605280238959Foodpanda Myanmar        Kuala LumpurMYS000000000000000000000000000115025500029160104   29160104   007            005282101300   1000021     01200 0000000003508407000542200000064500010430001000C0000000000484030001000CUPF                                       
100C0006291102820219227   000000280000104060719281423733047738006076K1GJYYIB86830360528   30360528   549930360528303605280238959Foodpanda Myanmar        Kuala LumpurMYS000000000000000000000000000123733000029160104   29160104   007            005282101100   1000011     01200 0000000001528407000542200000028000010430001000C0000000000284030001000CUPF                                       
100E0006244310032049740   0000000122007640607082836544821212777060721580854482137860764   37860764   541118215083541102036537246Thai Smart Card Company Limited         000000000000000000000000000154482100029160104   29160104   003            007640100308   0000021     05200 0000000003568407029194600000066089910455417209C0000000000184030001000CUPF                                       0534D005F9BFA92105200150E0F8C8008000E000BCFF4992324D383907010103A0200201                                                00097C00220607764                                          0000000000000000764800000000000001E030022A000000333010102                002000005320                              
100E0006244310038466005   0000000990007640608094623761531903711060800002048036926990764   26990764   530996604085000000000666844KING POWER TAX  0666844  SAMUTPRAKAN THA000000000000000000000000000176153100029160104   29160104   003            007640100308   0000021     05200 0000000028898407029177700000535992210455414063C0000000000684030001000CUPF                                       DA8C36DC1C2710E005200160E0F8C8008000E000A7AE2EE5E015878207010103A0200201                                                    7C00220608764                                          0000000000099000764800000000000001E030022A000000333010102                002000000004                              
100E0006244310108305216   0000006000007640608185916981403745022060821591898140334300764   34300764   594190016113401001551606001YOI GOLF 1               BANGKOK     THA000000000000000000000000000198140300029160104   29160104   003F           007641100408   0000021     05200 0000000174968407029160700003246553210455410922C0000000016684030001000CUPF                                       336E12DC44DF158305200150E0F8C8008000E0009F426E5F123456780701010360200201                                                001A7C00220608764                                          0000000000600000764400000000000001E030022A000000333010102                002000000800                              
100E0006244310108305216   0000003000007640608160157026299990994060821590802629926760764   26760764   809925089370002201187234   MED CONSULT HEALTH AT    BANGKOK     THA000000000000000000000000000102629900029160104   29160104   003            007640100408   0000021     05200 0000000087488407029160700001623276610455410922C0000000008384030001000CUPF                                       F1C471C23D4C0E7305200150E0F8C8008000E80046EA5C09802945390701010360200201                                                00197C00220608764                                          0000000000300000764400000000000001E030022A000000333010102                0032                                      
