100C0006291102820249109   0000003300001040609103446159807477380060975X66RLJ2Q8B30360528   30360528   412130360528303605280001399Grab* A-3IJ44TAGWJQ8     Singapore   SGP000000000000000000000000000115980700029160104   29160104   007            005282101100   1000011     01200 0000000001798407000542200000033000010430001000C0000000000284030001000CUPF                                       
100C0006291102820244670   000000249000104060819214623142647738006086K1GJYYIBBBZ30360528   30360528   549930360528303605280238959Foodpanda Myanmar        Kuala LumpurMYS000000000000000000000000000123142600029160104   29160104   007            005282101100   1000011     01200 0000000001358407000542200000024900010430001000C0000000000184030001000CUPF                                       
100C0006291102820242138   0000008913001040608133956144517477380060878NMW46FKNF730360528   30360528   549930360528303605280238959Foodpanda Myanmar        Kuala LumpurMYS000000000000000000000000000114451700029160104   29160104   007            005282101100   1000011     01200 0000000004838407000542200000089130010430001000C0000000000584030001000CUPF                                       
100C0006244310031352954   000005940000104060915334022409105983406096MRX9BJDR1GK30360528   30360528   412130360528303605280001399Grab* A-3IJVGHHWWGOS     Singapore   SGP000000000000000000000000000122409100029160104   29160104   007            005282101300   1000021     01200 0000000032218407000542200000594000010430001000C0000000003284030001000CUPF                                       
100C0006291102820244670   000000574000104060811543922912247738006086MRX9BJDQXMJ30360528   30360528   549930360528303605280238959Foodpanda Myanmar        Kuala LumpurMYS000000000000000000000000000122912200029160104   29160104   007            005282101100   1000011     01200 0000000003118407000542200000057400010430001000C0000000000384030001000CUPF                                       
100C0006291102820242138   0000005830001040608183207155475477380060875X66RLJ2MW030360528   30360528   549930360528303605280238959Foodpanda Myanmar        Kuala LumpurMYS000000000000000000000000000115547500029160104   29160104   007            005282101100   1000011     01200 0000000003168407000542200000058300010430001000C0000000000384030001000CUPF                                       
100C0006291102820242138   0000005050001040608083610142138477380060878NMW46FKLL430360528   30360528   549930360528303605280238959Foodpanda Myanmar        Kuala LumpurMYS000000000000000000000000000114213800029160104   29160104   007            005282101100   1000011     01200 0000000002748407000542200000050500010430001000C0000000000384030001000CUPF                                       
100C0006291102820242138   0000004250001040608155905154246477380060875X66RLJ2LXW30360528   30360528   549930360528303605280238959Foodpanda Myanmar        Kuala LumpurMYS000000000000000000000000000115424600029160104   29160104   007            005282101100   1000011     01200 0000000002308407000542200000042500010430001000C0000000000284030001000CUPF                                       
100E0006244310108305216   0000000926507640609182923013320648610060921601001332026760764   26760764   531127015079002201415106   CENTRAL DEPT.(CENTRAL    BANGKOK     THA000000000000000000000000000101332000029160104   29160104   003            007640100408   0000021     05200 0000000026948407029076400000499871510455395267C0000000002684030001000CUPF                                       EB4EBBCEEFA0973F05200150E0F0C8008000E000AF0CF8A5CA1U406507010103A0200201                                                001B7C00220609764                                          0000000000092650764800000000000001E030022A000000333010102                003200013320                              
100E0006244310108305216   0000000480007640609203330003697054965060921601200369726760764   26760764   594127015141002201419660   CRC SPORTS-CENTRAL WOR   BANGKOK     THA000000000000000000000000000100369700029160104   29160104   003            007640100408   0000021     05200 0000000013968407029076400000258972810455395267C0000000001384030001000CUPF                                       A5906BEE52F81C0505200150E0F0C8008000E000D0ECBEDFCA1N062807010103A0200201                                                001F7C00220609764                                          0000000000048000764800000000000001E030022A000000333010102                003200003697                              
100C0006244310102082969   0000000019898400608044342572500336324060821581957250026480840   26480840   581200000001601103019138787UBER   * EATS PENDING    SAN FRANCISCUSA000000000000000000000000000157250000029160104   29160104   007            008400101400   1000021     01200 0000000019898403000100000000369068910431855550C0000000002084030001000CUPF                                       
