100C0006244310102082969   0000000020598400609215247350169622356060921601235016926480840   26480840   581200000001601103019138787UBER   * EATS PENDING    SAN FRANCISCUSA000000000000000000000000000135016900029160104   29160104   007            008400101400   1000021     01200 0000000020598403000100000000382057710431855550C0000000002184030001000CUPF                                       
100C0006244310102082969   0000000003648400609235452821877459290060921601482187726480840   26480840   581200000001601103019138787UBER   *EATS             SAN FRANCISCUSA000000000000000000000000000182187700029160104   29160104   007            008400101400   1000021     01200 0000000003648403000100000000067542010431855550C0000000000484030001000CUPF                                       
100E0006244310032049740   0000000049007640610173337780547920428061021611778054737860764   37860764   541121010265541184659028385Thai Smart Card Company Limited         000000000000000000000000000178054700029160104   29160104   003            007640100308   0000021     05200 0000000001428407029017600000026383410455384363D0000000000084030001000CUPF                                       53FD037D1AE10A9005200150E0F8C8008000E000B057214E324E333707010103A0200201                                                000A7C00220610764                                          0000000000000000764800000000000001E030022A000000333010102                002000005447                              
100C0006291102820242138   0000006250001040610192110152593477380061075X66RLJ303930360528   30360528   549930360528303605280238959Foodpanda Myanmar        Kuala LumpurMYS000000000000000000000000000115259300029160104   29160104   007            005282101100   1000011     01200 0000000003398407000542200000062500010430001000C0000000000384030001000CUPF                                       
100C0006291102820249109   0000003500001040611161336141066477380061178NMW46FL7WE30360528   30360528   412130360528303605280001399Grab* A-3ISARXPWWJ4U     Singapore   SGP000000000000000000000000000114106600029160104   29160104   007            005282101100   1000011     01200 0000000001908407000542200000035000010430001000C0000000000284030001000CUPF                                       
100C0006291102820215019   000000612000104061016370722822047738006106MRX9BJDR4N730360528   30360528   549930360528303605280238959Foodpanda Myanmar        Kuala LumpurMYS000000000000000000000000000122822000029160104   29160104   007            005282101100   1000011     01200 0000000003328407000542200000061200010430001000C0000000000384030001000CUPF                                       
100C0006291102820242138   0000005650001040610174043143215477380061078NMW46FL1UC30360528   30360528   549930360528303605280238959Foodpanda Myanmar        Kuala LumpurMYS000000000000000000000000000114321500029160104   29160104   007            005282101100   1000011     01200 0000000003068407000542200000056500010430001000C0000000000384030001000CUPF                                       
