100C0006291102820265246   0000000077738400624101428770529477380062400014291303131000104   00049992   630001080209104840000000564Myanma Insurance                        000000000000000000000000000077052900029160104   29160104   007            001042101121   0900011     01200 0000000077738403000100000001478377210431901939C0000000008284030001000CUPF                                       
100C0006291102820247160   0000007300001040623174300143744477380062378NMW4TCUD9430360528   30360528   549930360528303605280238959Foodpanda Myanmar        Kuala LumpurMYS000000000000000000000000000114374400029160104   29160104   007            005282101100   1000011     01200 0000000003968407000542200000073000010430001000C0000000000484030001000CUPF                                       
100C0006291102820249109   0000006300001040624145858141083477380062478NMW4TCUIWU30360528   30360528   412130360528303605280001399Grab* A-3KHLS4FWWE8X     Singapore   SGP000000000000000000000000000114108300029160104   29160104   007            005282101100   1000011     01200 0000000003428407000542200000063000010430001000C0000000000384030001000CUPF                                       
100C0006291102820244670   0000001750001040623144248157401477380062375X66S73O4K230360528   30360528   549930360528303605280238959Foodpanda Myanmar        Kuala LumpurMYS000000000000000000000000000115740100029160104   29160104   007            005282101100   1000011     01200 0000000000958407000542200000017500010430001000C0000000000184030001000CUPF                                       
100C0006291102820215001   0000004500001040623183055144159477380062378NMW4TCUDKL30360528   30360528   549930360528303605280238959Foodpanda Myanmar        Kuala LumpurMYS000000000000000000000000000114415900029160104   29160104   007            005282101100   1000011     01200 0000000002448407000542200000045000010430001000C0000000000284030001000CUPF                                       
100C0006291102820242138   0000005250001040623083704143967477380062378NMW4RZ176C30360528   30360528   549930360528303605280238959Foodpanda Myanmar        Kuala LumpurMYS000000000000000000000000000114396700029160104   29160104   007            005282101100   1000011     01200 0000000002858407000542200000052500010430001000C0000000000384030001000CUPF                                       
100C0006244310031624030   0000009850001040623152929147176113702062378NMW4RZ19ND30360528   30360528   549930360528303605280238959Foodpanda Myanmar        Kuala LumpurMYS000000000000000000000000000114717600029160104   29160104   007            005282101300   1000021     01200 0000000005348407000542200000098500010430001000C0000000000584030001000CUPF                                       
100C0006244310032311710   0000004800001040624191634143388452473062478NMW4TCUKOU30360528   30360528   412130360528303605280001399Grab* A-3KIA9MCWWHD3     Singapore   SGP000000000000000000000000000114338800029160104   29160104   007            005282101300   1000021     01200 0000000002608407000542200000048000010430001000C0000000000384030001000CUPF                                       
100C0006244310039991811   0000002650001040623130519145958517220062378NMW4RZ18PK30360528   30360528   549930360528303605280238959Foodpanda Myanmar        Kuala LumpurMYS000000000000000000000000000114595800029160104   29160104   007            005282101300   1000021     01200 0000000001448407000542200000026500010430001000C0000000000184030001000CUPF                                       
100C0006244310033813987   0000018900001040623193115144776546886062378NMW4TCUE1P30360528   30360528   549930360528303605280238959Foodpanda Myanmar        Kuala LumpurMYS000000000000000000000000000114477600029160104   29160104   007            005282101300   1000021     01200 0000000010258407000542200000189000010430001000C0000000001084030001000CUPF                                       
100C0006291102820244068   000000515000104062316195722413247738006236MRX9C1ZWE9K30360528   30360528   549930360528303605280238959Foodpanda Myanmar        Kuala LumpurMYS000000000000000000000000000122413200029160104   29160104   007            005282101100   1000011     01200 0000000002798407000542200000051500010430001000C0000000000384030001000CUPF                                       
100E0006244310032049740   0000000040007640623144830702591461218062321741470259137860764   37860764   541117211251541129830998194Thai Smart Card Company Limited         000000000000000000000000000170259100029160104   29160104   003            007640100308   0000021     05200 0000000001148407028386500000021069010455267262D0000000000084030001000CUPF                                       EA3910BF482F951505200150E0F8C8008000E000F1275B23324D343007010103A0200201                                                00217C00220623764                                          0000000000000000764800000000000001E030022A000000333010102                002000011947                              
100E0006291102820265246   0000002000007640624110541791288477380062400002053091326990764   26990764   530996602310000000000668204KING POWER DUTY 0668204  SAMUTPRAKAN THA000000000000000000000000000179128800029160104   29160104   003            007640100108   0000011     05100 0000000056578407028282700001075838410455379192C0000000000884030001000CUPF                                       3B11B874DBC45AE205100160E0F8C80080048000DB7AEEF9E015875407210103A0200201                                                    7C00220624764                                          00000000002000007648000000000000002030022A000000333010101                002000000015                              
100E0006291102820265246   0000004700007640624110140791285477380062400002053090926990764   26990764   530996603921000000000668204KING POWER DUTY 0668204  SAMUTPRAKAN THA000000000000000000000000000179128500029160104   29160104   003            007640100108   0000011     05100 0000000132938407028282700002528220210455379192C0000000002084030001000CUPF                                       FCB7EC4EA802B47405100160E0F8C80080048000CA852901E015777107210103A0200201                                                    7C00220624764                                          00000000004700007648000000000000002030022A000000333010101                002000000032                              
100C0006244310105494609   0000000003008400622143615500734264118062221730550073426480840   26480840   581200000001601103019138787UBER   *EATS             SAN FRANCISCUSA000000000000000000000000000150073400029160104   29160104   007            008400101400   1000021     01200 0000000003008403000100000000055666510431855550C0000000000384030001000CUPF                                       
