100C0006291102820202363   0000018984001040626170115158773477380062675X66S8HDYD930360528   30360528   549930360528303605280238959Foodpanda Myanmar        Kuala LumpurMYS000000000000000000000000000115877300029160104   29160104   007            005282101100   1000011     01200 0000000010298407000542200000189840010430001000C0000000001084030001000CUPF                                       
100C0006244310032311710   000000460000104062710152423267582047406276K1GJZLGJ6KF30360528   30360528   412130360528303605280001399Grab* A-3KT5X2NWWEUO     Singapore   SGP000000000000000000000000000123267500029160104   29160104   007            005282101300   1000021     01200 0000000002498407000542200000046000010430001000C0000000000284030001000CUPF                                       
100C0006291102820242138   0000006391871040626141335157262477380062675X66S8HDX7G30360528   30360528   549930360528303605280238959Foodpanda Myanmar        Kuala LumpurMYS000000000000000000000000000115726200029160104   29160104   007            005282101100   1000011     01200 0000000003478407000542200000063918710430001000C0000000000384030001000CUPF                                       
100C0006244310036366868   0000005300001040626110401155423361053062675X66S8HDVSD30360528   30360528   549930360528303605280238959Foodpanda Myanmar        Kuala LumpurMYS000000000000000000000000000115542300029160104   29160104   007            005282101300   1000021     01200 0000000002878407000542200000053000010430001000C0000000000384030001000CUPF                                       
100C0006291102820247160   000002840000104062618382022030647738006266MRX9C6C0HF230360528   30360528   549930360528303605280238959Foodpanda Myanmar        Kuala LumpurMYS000000000000000000000000000122030600029160104   29160104   007            005282101100   1000011     01200 0000000015408407000542200000284000010430001000C0000000001584030001000CUPF                                       
100C0006291102820247160   000001350000104062618455722034347738006266MRX9C6C0HG330360528   30360528   549930360528303605280238959Foodpanda Myanmar        Kuala LumpurMYS000000000000000000000000000122034300029160104   29160104   007            005282101100   1000011     01200 0000000007328407000542200000135000010430001000C0000000000784030001000CUPF                                       
100C0006291102820202363   0000028050001040626152730147595477380062678NMW4TCUVCK30360528   30360528   549930360528303605280238959Foodpanda Myanmar        Kuala LumpurMYS000000000000000000000000000114759500029160104   29160104   007            005282101100   1000011     01200 0000000015218407000542200000280500010430001000C0000000001584030001000CUPF                                       
100C0006291102820244670   000000212500104062615412323977647738006266K1GJZLGJ4BY30360528   30360528   549930360528303605280238959Foodpanda Myanmar        Kuala LumpurMYS000000000000000000000000000123977600029160104   29160104   007            005282101100   1000011     01200 0000000001158407000542200000021250010430001000C0000000000184030001000CUPF                                       
100C0006244310032311710   0000006100001040626124951156474212824062675X66S8HDWLK30360528   30360528   549930360528303605280238959Foodpanda Myanmar        Kuala LumpurMYS000000000000000000000000000115647400029160104   29160104   007            005282101300   1000021     01200 0000000003318407000542200000061000010430001000C0000000000384030001000CUPF                                       
100C0006244310032311710   000000480000104062719242123793997283906276K1GJZRB4ZHD30360528   30360528   412130360528303605280001399Grab* A-3KUNDLAGWHTB     Singapore   SGP000000000000000000000000000123793900029160104   29160104   007            005282101300   1000021     01200 0000000002608407000542200000048000010430001000C0000000000384030001000CUPF                                       
100C0006244310032311710   0000006300001040626125726146274056085062678NMW4TCUUBV30360528   30360528   549930360528303605280238959Foodpanda Myanmar        Kuala LumpurMYS000000000000000000000000000114627400029160104   29160104   007            005282101300   1000021     01200 0000000003428407000542200000063000010430001000C0000000000384030001000CUPF                                       
100E0006291102820265246   0000000680006080623094557001456477380062321743515647427240608   27240608   594716601383724060881673211ATIN ITO                 PARANAQUE   PHL000000000000000000000000000100145600029160104   29160104   003            006080100108   0000011     05100 0000000012528407018417400000238195010453502868C0000000000284030001000CUPF                                       800238D0AA692BCA05100050E0E0C800800480002F807CF23132333407210103A0300201                                                00017C00220623608                                            000000000680006088000000000000002030022A000000333010101                0020000613                                
100E0006244310032049740   0000000247177640627142155797368255273062700002054128126990764   26990764   581296009820000000002224509THE YARD RESTAU 2224509  BANGKOK     THA000000000000000000000000000179736800029160104   29160104   003            007640100308   0000021     05200 0000000007018407028378500000130154210455265775C0000000000184030001000CUPF                                       0B4206A1C08F75CF05200160E0F8C8088000E000A01881569600982007010103A0200001                                                    7C00220627764                                          0000000000024717764800000000000001E030022A000000333010102                002000003793                              
