100C0006291102820244068   000000435000104062116155722580047738006216MRX9C1ZW7U730360528   30360528   549930360528303605280238959Foodpanda Myanmar        Kuala LumpurMYS000000000000000000000000000122580000029160104   29160104   007            005282101100   1000011     01200 0000000002368407000542200000043500010430001000C0000000000284030001000CUPF                                       
100C0006291102820242138   0000004450001040621130014149352477380062178NMW4P1O18L30360528   30360528   549930360528303605280238959Foodpanda Myanmar        Kuala LumpurMYS000000000000000000000000000114935200029160104   29160104   007            005282101100   1000011     01200 0000000002418407000542200000044500010430001000C0000000000284030001000CUPF                                       
100C0006291102820249109   000000300000104062212052223904347738006226K1GJZH4EQUP30360528   30360528   412130360528303605280001399Grab* A-3K8UAX8GWHUG     Singapore   SGP000000000000000000000000000123904300029160104   29160104   007            005282101100   1000011     01200 0000000001638407000542200000030000010430001000C0000000000284030001000CUPF                                       
100C0006291102820244670   0000004070001040621183635150818477380062175X66S458K2Y30360528   30360528   549930360528303605280238959Foodpanda Myanmar        Kuala LumpurMYS000000000000000000000000000115081800029160104   29160104   007            005282101100   1000011     01200 0000000002218407000542200000040700010430001000C0000000000284030001000CUPF                                       
100C0006244310106446681   000002050000104062118442323656134070406216K1GJZH4EOXS30360528   30360528   549930360528303605280238959Foodpanda Myanmar        Kuala LumpurMYS000000000000000000000000000123656100029160104   29160104   007            005282101400   1000021     01200 0000000011128407000542200000205000010430001000C0000000001184030001000CUPF                                       
100C0006244310030602854   000000858500104062111582323495272673206216K1GJZH4ENP330360528   30360528   549930360528303605280238959Foodpanda Myanmar        Kuala LumpurMYS000000000000000000000000000123495200029160104   29160104   007            005282101300   1000021     01200 0000000004658407000542200000085850010430001000C0000000000584030001000CUPF                                       
100C0006291102820247160   0000022000001040621190740151130477380062175X66S458KBM30360528   30360528   549930360528303605280238959Foodpanda Myanmar        Kuala LumpurMYS000000000000000000000000000115113000029160104   29160104   007            005282101100   1000011     01200 0000000011938407000542200000220000010430001000C0000000001284030001000CUPF                                       
100C0006291102820242138   000000562000104062115400622566747738006216MRX9C1ZW7QI30360528   30360528   549930360528303605280238959Foodpanda Myanmar        Kuala LumpurMYS000000000000000000000000000122566700029160104   29160104   007            005282101100   1000011     01200 0000000003058407000542200000056200010430001000C0000000000384030001000CUPF                                       
100C0006244310032311710   0000004700001040622191654140629196612062278NMW4RZ14LM30360528   30360528   412130360528303605280001399Grab* A-3KA2S34WWECE     Singapore   SGP000000000000000000000000000114062900029160104   29160104   007            005282101300   1000021     01200 0000000002558407000542200000047000010430001000C0000000000384030001000CUPF                                       
100C0006291102820249109   0000003500001040622160505158149477380062275X66S458PQJ30360528   30360528   412130360528303605280001399Grab* A-3K9K8BHWWG8H     Singapore   SGP000000000000000000000000000115814900029160104   29160104   007            005282101100   1000011     01200 0000000001908407000542200000035000010430001000C0000000000284030001000CUPF                                       
100E0006244310108220753   0000003650007640622215321085639203743062221732108563930750764   30750764   594470633116010000950682112SWAROVSKI SIAM PARAGON               THA000000000000000000000000000108563900029160104   29160104   003F           007641100408   0000021     05200 0000000103468407028346500001919839410455259834C0000000009884030001000CUPF                                       037560156D06F4430520015 E0F8C8008000E8009BEC20520000000007010103A0200201                                                002C7C00220622764                                            00000000365000764800000000000001E030022A000000333010102                002000000421                              
100E0006244310108220753   0000000250007640622115734301960683276062221730330196026760764   26760764   581429010959002206105181   CF-1067 HOLIDAY INN EX   BANGKOK     THA000000000000000000000000000130196000029160104   29160104   003            007640100408   0000021     05200 0000000007098407028346500000131495910455259834C0000000000784030001000CUPF                                       3CC3D32677FB807205200150E0F0C8080000E00026F2F5650820718507010103A0200001                                                00277C00220622764                                          0000000000025000764800000000000001E030022A000000333010102                004800301960                              
100E0006244310108220753   0000005070007640622205209021017898775062221731202101726760764   26760764   562124860716002201036175   ZARA SIAM PARAGON        BANGKOK     THA000000000000000000000000000102101700029160104   29160104   003            007640100408   0000021     05200 0000000143728407028346500002666735810455259834C0000000013784030001000CUPF                                       31F84B4318E7953105200150E0F0C8008000E0001060C0F79324840707010103A0200201                                                002A7C00220622764                                          0000000000507000764800000000000001E030022A000000333010102                003200021017                              
100E0006244310108220753   0000001598007640622201119004392716507062221731200439226760764   26760764   562125060582002201535200   H&M SIAM PARAGON         BANGKOK     THA000000000000000000000000000100439200029160104   29160104   003            007640100408   0000021     05200 0000000045308407028346500000840521510455259834C0000000004384030001000CUPF                                       3A691EBC597EEF7805200150E0F8C8008000E800B898ABDE5019079907010103A0200201                                                00297C00220622764                                          0000000000159800764800000000000001E030022A000000333010102                003200004996                              
100C0006244310102082969   0000000047208400621045311331753634737062121711933175326480840   26480840   412100000001601103011637836UBR* PENDING.UBER.COM    SAN FRANCISCUSA000000000000000000000000000133175300029160104   29160104   007            008400101400   1000021     01200 0000000047208403000100000000875819610431855550C0000000004784030001000CUPF                                       
100C0006244310102082969   0000000019758400621125131381740421765062121710338174026480840   26480840   581200000001601103019138787UBER   * EATS PENDING    SAN FRANCISCUSA000000000000000000000000000138174000029160104   29160104   007            008400101400   1000021     01200 0000000019758403000100000000366471110431855550C0000000002084030001000CUPF                                       
100E0006244310032049740   0000000056007640621183024576156374743062121721857615637860764   37860764   541117211251541129830998194Thai Smart Card Company Limited         000000000000000000000000000157615600029160104   29160104   003            007640100308   0000021     05200 0000000001598407028430700000029542610455275458D0000000000084030001000CUPF                                       2D81C834DB2AC16705200150E0F8C8008000E00053C5D604324D343007010103A0200201                                                001F7C00220621764                                          0000000000000000764800000000000001E030022A000000333010102                002000011876                              
