100E0006291102820261617   0000001648007640628210543000008477380062821791300000826760764   26760764   566124700244002201408416   BATA BIG-C RAJDAMRI      BANGKOK     THA000000000000000000000000000100000800029160104   29160104   003            007640100108   0000011     05100 0000000046918407028466900000892266110455414236C0000000000784030001000CUPF                                       AE1DCC358943097705100150E0F8C80080048800A1B159B08210024307210103A0200201                                                00077C00220628764                                          00000000001648007648000000000000002030022A000000333010101                003200000015                              
100E0006291102820261617   0000002360007640628224428048309477380062821791404830926760764   26760764   563126068182002205948375   PULL&BEAR CENTRALWORLD   BANGKOK     THA000000000000000000000000000104830900029160104   29160104   003            007640100108   0000011     05100 0000000067188407028466900001277759710455414236C0000000001084030001000CUPF                                       444601695FD51D2505100150E0F0C80080048800C8F3CE832518679807210103A0200201                                                00087C00220628764                                          00000000002360007648000000000000002030021A000000333010101                002000001967                              
100C0006291102820244068   0000003800001040627140750156175477380062775X66S8HE42U30360528   30360528   549930360528303605280238959Foodpanda Myanmar        Kuala LumpurMYS000000000000000000000000000115617500029160104   29160104   007            005282101100   1000011     01200 0000000002068407000542200000038000010430001000C0000000000284030001000CUPF                                       
100C0006291102820215001   000002807500104062714101822347047738006276MRX9C6C0JUY30360528   30360528   549930360528303605280238959Foodpanda Myanmar        Kuala LumpurMYS000000000000000000000000000122347000029160104   29160104   007            005282101100   1000011     01200 0000000015228407000542200000280750010430001000C0000000001584030001000CUPF                                       
100C0006291102820244670   0000004325001040627142335156314477380062775X66S8HE46P30360528   30360528   549930360528303605280238959Foodpanda Myanmar        Kuala LumpurMYS000000000000000000000000000115631400029160104   29160104   007            005282101100   1000011     01200 0000000002358407000542200000043250010430001000C0000000000284030001000CUPF                                       
100C0006244310104553199   0000015000003600628213354159686628082062875X66SFUO6GB30360528   30360528   412130360528303605280001399Grab*                    Singapore   SGP000000000000000000000000000115968600029160104   29160104   007            005282101400   1000021     01200 0000000001028407000067900000018897610471259837C0000000000184030001000CUPF                                       
100C0006244310104553199   000013480000360062812390615226839061906287670NQ20M4TI30360528   30360528   581430360528303605280267669Grab*                    Jakarta     IDN000000000000000000000000000115226800029160104   29160104   007            005282101400   1000021     01200 0000000009158407000067900000169826010471259837C0000000000984030001000CUPF                                       
100C0006244310032298669   000000647500104062715504422383970490406276MRX9C6C0K5730360528   30360528   549930360528303605280238959Foodpanda Myanmar        Kuala LumpurMYS000000000000000000000000000122383900029160104   29160104   007            005282101300   1000021     01200 0000000003518407000542200000064750010430001000C0000000000484030001000CUPF                                       
100C0006244310032311710   0000004600001040628101501142252899819062878NMW4Z8ED6J30360528   30360528   412130360528303605280001399Grab* A-3LX989VWWFKW     Singapore   SGP000000000000000000000000000114225200029160104   29160104   007            005282101300   1000021     01200 0000000002498407000542200000046000010430001000C0000000000284030001000CUPF                                       
100C0006291102820242138   0000004750001040627131456155694477380062775X66S8HE3PH30360528   30360528   549930360528303605280238959Foodpanda Myanmar        Kuala LumpurMYS000000000000000000000000000115569400029160104   29160104   007            005282101100   1000011     01200 0000000002588407000542200000047500010430001000C0000000000384030001000CUPF                                       
100C0006291102820244670   000000085000104062709581222237747738006276MRX9C6C0J0L30360528   30360528   549930360528303605280238959Foodpanda Myanmar        Kuala LumpurMYS000000000000000000000000000122237700029160104   29160104   007            005282101100   1000011     01200 0000000000468407000542200000008500010430001000D0000000000084030001000CUPF                                       
100C0006244310102082969   0000000017528400627054718540043142461062721772054004326480840   26480840   581200000001601103019138787UBER   * EATS PENDING    SAN FRANCISCUSA000000000000000000000000000154004300029160104   29160104   007            008400101400   1000021     01200 0000000017528403000100000000325092410431855550C0000000001884030001000CUPF                                       
100C0006244310102082969   0000000003008400627072944332382638206062721772233238226480840   26480840   581200000001601103019138787UBER   *EATS             SAN FRANCISCUSA000000000000000000000000000133238200029160104   29160104   007            008400101400   1000021     01200 0000000003008403000100000000055666510431855550C0000000000384030001000CUPF                                       
100C0006244310105494609   0000000031888400626225014000794960193062621770000079426480840   26480840   481412345678601110402336258VESTA  *AT&T PREPAID     866-608-3007USA000000000000000000000000000100079400029160104   29160104   007            008400101400   1000021     01200 0000000031888403000100000000591549310431855550C0000000003284030001000CUPF                                       
100E0006244310031311232   0000090000001040627150258994548340369062721781599454842480104   42480104   598320001065000000010000785Near North Okkalapa Circle, Thudamar R  000000000000000000000000000199454800029160104   29160104   003            001040100321   0000021     07200 0000000048808407000542200000900000010430001000C0000000005284030001000CUPF                                       EB7E5811802CC47D07200150E0F0C70000000000A3417E894341313707010103A0000001                                                00067C00220627104                                          000000000900000010480000000000000      22A000000333010102                0030001847                                
100E0006291102820261617   0000000081007640628150653088523477380062821791508852330750764   30750764   563171812010010000951727030KOON                                 THA000000000000000000000000000108852300029160104   29160104   003F           007641100108   0000011     05100 0000000002318407028466900000043855310455414236D0000000000084030001000CUPF                                       E7C9006A28466F060510015 E0F8C8008004880053064D550000000007210103A0200201                                                00067C00220628764                                            000000000081007648000000000000002030022A000000333010101                002000000044                              
