100C0006244310102563075   00000000099984006182316332484200835640619YtotVc6eFc8g28000392   00049992   539901080209800039253992034Xsolla Inc                              000000000000000000000000000024842000029160104   29160104   007            003922101400   0900021     01200 0000000009998403000100000000185369410431855550C0000000001084030001000CUPF                                       
100E0006244310036110670   0000000017148400616035800357311637712061621660035731126480840   26480840   599943912602601100644500027BATH AND BODY WORKS 39   NEWARK      USA000000000000000000000000000135731100029160104   29160104   003            008400101300   0000021     05200 0000000017148403000100000000318041310431855550C0000000000384030001000CUPF                                                       052000                                                                                                                                                                                                                                                                                
100C0006244310102082969   0000000042508400617212732002198339661061721680000219826480840   26480840   481412345678601110402336258VESTA  *AT&T PREPAID     866-608-3007USA000000000000000000000000000100219800029160104   29160104   007            008400101400   1000021     01200 0000000042508403000100000000788608810431855550C0000000004384030001000CUPF                                       
100C0006244310105494609   0000000033468400616153648003597646793061621670000359726480840   26480840   594212345678601100118713080AMZN Mktp US             Amzn.com/bilUSA000000000000000000000000000100359700029160104   29160104   007            008400101400   1000021     01200 0000000033468403000100000000620867010431855550C0000000003384030001000CUPF                                       
100C0006244310105494609   0000000004008400618030310540729919124061821681854072926480840   26480840   581200000001601103019138787UBER   *EATS             SAN FRANCISCUSA000000000000000000000000000154072900029160104   29160104   007            008400101400   1000021     01200 0000000004008403000100000000074222010431855550C0000000000484030001000CUPF                                       
100C0006244310105494609   0000000046608400618014524572576084372061821681657257626480840   26480840   581200000001601103019138787UBER   * EATS PENDING    SAN FRANCISCUSA000000000000000000000000000157257600029160104   29160104   007            008400101400   1000021     01200 0000000046608403000100000000864686310431855550C0000000004784030001000CUPF                                       
100E0006244310032049740   0000005260007640619174820498084345984061921701749808434300764   34300764   571290343496451005109176001IKANO (THAILAND) LTD.    SAMUTPRAKAN THA000000000000000000000000000149808400029160104   29160104   003F           007641100308   0000021     05200 0000000150338407028580300002789489010455303211C0000000003084030001000CUPF                                       74C7C41EACF1449505200150E0F0C8080000E0002FDBB09E0025985507010103A0200001                                                00197C00220619764                                          0000000000526000764800000000000001E030022A000000333010102                003000000018                              
100C0006291102820282175   000000290000104061911312222583547738006196MRX9BS3CXLL30360528   30360528   412130360528303605280001399Grab* A-3JSFM66GWJC9     Singapore   SGP000000000000000000000000000122583500029160104   29160104   007            005282101100   1000011     01200 0000000001578407000542200000029000010430001000C0000000000284030001000CUPF                                       
100C0006244310032311710   000000520000104061818474622347247857306186MRX9BS3CVRY30360528   30360528   549930360528303605280238959Foodpanda Myanmar        Kuala LumpurMYS000000000000000000000000000122347200029160104   29160104   007            005282101300   1000021     01200 0000000002828407000542200000052000010430001000C0000000000384030001000CUPF                                       
100C0006291102820242138   0000005050001040618195834145412477380061878NMW4F4CVTP30360528   30360528   549930360528303605280238959Foodpanda Myanmar        Kuala LumpurMYS000000000000000000000000000114541200029160104   29160104   007            005282101100   1000011     01200 0000000002748407000542200000050500010430001000C0000000000384030001000CUPF                                       
100E0006244310104553199   0000900000003600618083829069239118752061821691506923932930360   32930360   79977207874870405528405    EVOLVE                   Jambi (Kota)IDN000000000000000000000000000106923900029160104   29160104   003            003600100408   0000021     05100 0000000061298407000068100001136579410471262866C0000000005884030001000CUPF                                       5BE78BA2012D3A3505100150E070C8008000E000563F9DE63034313907010103A0200201                                                006C7C00220618360                                          0000000090000000360800000000000001E030022A000000333010102                                                          
