100E0006244310034800660   0000000082037020625172207024485166710062522062502448526940702   48000702   541146334178694070233530283HYPER PARKWAY PARADE     Singapore   SGP000000000000000000000000000002448500029160104   29160104   003            007021101308   0000021     07200 0000000059258407722238600001099325010431340150C0000000001284030001000CUPF                                       FBECAB122CF17CAC072001600068C80000000000407C6199        07010103A0000001                                                000E7C00220625702                                          0000000000008203702800000000000001F000022A000000333010102                                                          
100C0006291102820244670   0000001850001040624174825142527477380062478NMW4TCUK0Y30360528   30360528   549930360528303605280238959Foodpanda Myanmar        Kuala LumpurMYS000000000000000000000000000114252700029160104   29160104   007            005282101100   1000011     01200 0000000001008407000542200000018500010430001000C0000000000184030001000CUPF                                       
100C0006291102820247160   0000010550001040624175047152926477380062475X66S8HDMG830360528   30360528   549930360528303605280238959Foodpanda Myanmar        Kuala LumpurMYS000000000000000000000000000115292600029160104   29160104   007            005282101100   1000011     01200 0000000005728407000542200000105500010430001000C0000000000684030001000CUPF                                       
100C0006244310031624030   0000004680001040624182154142829341847062478NMW4TCUK9C30360528   30360528   549930360528303605280238959Foodpanda Myanmar        Kuala LumpurMYS000000000000000000000000000114282900029160104   29160104   007            005282101300   1000021     01200 0000000002548407000542200000046800010430001000C0000000000384030001000CUPF                                       
100C0006244310032311710   000000470000104062517424023596064543606256K1GJZLGJ1DZ30360528   30360528   412130360528303605280001399Grab* A-3KM5OMAWWJU6     Singapore   SGP000000000000000000000000000123596000029160104   29160104   007            005282101300   1000021     01200 0000000002558407000542200000047000010430001000C0000000000384030001000CUPF                                       
100C0006244310032298669   000000680000104062514261722471423973106256MRX9C6C0D3R30360528   30360528   412130360528303605280001399Grab* A-3KLMN5FWWEHN     Singapore   SGP000000000000000000000000000122471400029160104   29160104   007            005282101300   1000021     01200 0000000003698407000542200000068000010430001000C0000000000484030001000CUPF                                       
100C0006291102820242138   0000005250001040624125318149914477380062478NMW4TCUI0D30360528   30360528   549930360528303605280238959Foodpanda Myanmar        Kuala LumpurMYS000000000000000000000000000114991400029160104   29160104   007            005282101100   1000011     01200 0000000002858407000542200000052500010430001000C0000000000384030001000CUPF                                       
100C0006291102820242138   0000003330001040624192532143493477380062478NMW4TCUKRR30360528   30360528   549930360528303605280238959Foodpanda Myanmar        Kuala LumpurMYS000000000000000000000000000114349300029160104   29160104   007            005282101100   1000011     01200 0000000001818407000542200000033300010430001000C0000000000284030001000CUPF                                       
100C0006244310032298669   0000007200001040625175521140070383016062578NMW4TCUPJL30360528   30360528   412130360528303605280001399Grab* A-3KM9RKNWWJCM     Singapore   SGP000000000000000000000000000114007000029160104   29160104   007            005282101300   1000021     01200 0000000003908407000542200000072000010430001000C0000000000484030001000CUPF                                       
100C0006244310033813987   0000020650001040624163617141860099441062478NMW4TCUJIF30360528   30360528   549930360528303605280238959Foodpanda Myanmar        Kuala LumpurMYS000000000000000000000000000114186000029160104   29160104   007            005282101300   1000021     01200 0000000011208407000542200000206500010430001000C0000000001184030001000CUPF                                       
100C0006244310039493982   000001035000104062512221722314209150206256MRX9C6C0BW330360528   30360528   412130360528303605280001399Grab* A-3KLBBRSGWJJC     Singapore   SGP000000000000000000000000000122314200029160104   29160104   007            005282101300   1000021     01200 0000000005618407000542200000103500010430001000C0000000000684030001000CUPF                                       
100C0006244310032311710   000000470000104062510114123174282413806256K1GJZLGIY4U30360528   30360528   412130360528303605280001399Grab* A-3KKTHNMWWJGT     Singapore   SGP000000000000000000000000000123174200029160104   29160104   007            005282101300   1000021     01200 0000000002558407000542200000047000010430001000C0000000000384030001000CUPF                                       
100C0006244310036366868   0000006330001040624132530140277956156062478NMW4TCUIAG30360528   30360528   549930360528303605280238959Foodpanda Myanmar        Kuala LumpurMYS000000000000000000000000000114027700029160104   29160104   007            005282101300   1000021     01200 0000000003438407000542200000063300010430001000C0000000000384030001000CUPF                                       
100E0006291102820265246   0000000285007640624111231791296477380062400002053092126990764   26990764   581496023198000000002943654GLORIA JEAN S C 2943654  SAMUTPRAKAN THA000000000000000000000000000179129600029160104   29160104   003            007640100108   0000011     05100 0000000008068407028282700000153307010455379192C0000000000184030001000CUPF                                       94313677212FD17D05100160E0F8C8008004800034C4AB379602319807210103A0200201                                                    7C00220624764                                          00000000000285007648000000000000002030022A000000333010101                002000007546                              
100C0006244310102082969   0000000015468400624082317332306919931062421742333230626480840   26480840   581200000001601103019138787UBER   * EATS PENDING    SAN FRANCISCUSA000000000000000000000000000133230600029160104   29160104   007            008400101400   1000021     01200 0000000015468403000100000000286868010431855550C0000000001584030001000CUPF                                       
100C0006244310105494609   0000000072138400623060739001906759055062321730000190626480840   26480840   594212345678601100118713080AMZN Mktp US             Amzn.com/bilUSA000000000000000000000000000100190600029160104   29160104   007            008400101400   1000021     01200 0000000072138403000100000001338408210431855550C0000000007284030001000CUPF                                       
100E0006244310032049740   0000000058007640624202143801060164524062421752080106037860764   37860764   541121012238541129830998194Thai Smart Card Company Limited         000000000000000000000000000180106000029160104   29160104   003            007640100308   0000021     05200 0000000001648407028282700000030438410455247992D0000000000084030001000CUPF                                       527B4ED02B37731705200150E0F8C8008000E00087302D20324D363007010103A0200201                                                00227C00220624764                                          0000000000000000764800000000000001E030022A000000333010102                002000003306                              
