100E0006244310109315040   0000052900001040715101039000091799617071522071509103934790104   34790104   591210000937000001000007144SHWE OHH PHARMACY - (YGH)Lanmadaw    MMR000000000000000000000000000100009100029160104   29160104   003            001040100421   0000021     07200 0000000028688407000542200000529000010430001000C0000000005284030001000CUPF                                       3C8BE220AAF5D53A07210060E060C800000000004C8100842218823307010103A00000010A0100000000005CD01EFB                          00037C00220715104                                          0000000005290000104800000000000001F000022A000000333010102                    0000                                  
100C0006291102820244068   0000003600001040715181256143042477380071578NMW5ME5JWV30360528   30360528   549930360528303605280238959Foodpanda Myanmar        Kuala LumpurMYS000000000000000000000000000114304200029160104   29160104   007            005282101100   1000011     01200 0000000001958407000542200000036000010430001000C0000000000284030001000CUPF                                       
100C0006291102820244670   000000300000104071518134823722247738007156K1GK0EHR14430360528   30360528   549930360528303605280238959Foodpanda Myanmar        Kuala LumpurMYS000000000000000000000000000123722200029160104   29160104   007            005282101100   1000011     01200 0000000001638407000542200000030000010430001000C0000000000284030001000CUPF                                       
100C0006291102820215019   000001595600104071615500123100347738007166K1GK0EHR41530360528   30360528   412130360528303605280001399Grab* A-3NCEU6JWWG4D     Singapore   SGP000000000000000000000000000123100300029160104   29160104   007            005282101100   1000011     01200 0000000008658407000542200000159560010430001000C0000000000984030001000CUPF                                       
100C0006244310032311710   0000004600001040716101308159089588256071675X66T1JMOVI30360528   30360528   412130360528303605280001399Grab* A-3NBE3PAWWGHN     Singapore   SGP000000000000000000000000000115908900029160104   29160104   007            005282101300   1000021     01200 0000000002498407000542200000046000010430001000C0000000000284030001000CUPF                                       
100C0006244310032311710   000000480000104071616170623110772498107166K1GK0EHR44130360528   30360528   412130360528303605280001399Grab* A-3NCFB9RWWHFU     Singapore   SGP000000000000000000000000000123110700029160104   29160104   007            005282101300   1000021     01200 0000000002608407000542200000048000010430001000C0000000000384030001000CUPF                                       
100C0006244310032311710   000000750000104071519443722722190667707156MRX9CZD6I3X30360528   30360528   549930360528303605280238959Foodpanda Myanmar        Kuala LumpurMYS000000000000000000000000000122722100029160104   29160104   007            005282101300   1000021     01200 0000000004078407000542200000075000010430001000C0000000000484030001000CUPF                                       
100C0006291102820215001   0000012650001040715164047153734477380071575X66T1JMKQT30360528   30360528   549930360528303605280238959Foodpanda Myanmar        Kuala LumpurMYS000000000000000000000000000115373400029160104   29160104   007            005282101100   1000011     01200 0000000006868407000542200000126500010430001000C0000000000784030001000CUPF                                       
100C0006244310033813987   000006440000104071510295922463482514607156MRX9CZD6G4230360528   30360528   549930360528303605280238959Foodpanda Myanmar        Kuala LumpurMYS000000000000000000000000000122463400029160104   29160104   007            005282101300   1000021     01200 0000000034928407000542200000644000010430001000C0000000003584030001000CUPF                                       
100C0006244310102082969   0000000003008400714165643820120066138071421950782012026480840   26480840   581200000001601103019138787UBER   *EATS             SAN FRANCISCUSA000000000000000000000000000182012000029160104   29160104   007            008400101400   1000021     01200 0000000003008403000100000000055666510431855550C0000000000384030001000CUPF                                       
100C0006244310102082969   0000000015838400714152938821752649166071421950682175226480840   26480840   581200000001601103019138787UBER   * EATS PENDING    SAN FRANCISCUSA000000000000000000000000000182175200029160104   29160104   007            008400101400   1000021     01200 0000000015838403000100000000293733610431855550C0000000001684030001000CUPF                                       
100C0006244310102082969   0000000022688400715024227881085671937071521951788108526480840   26480840   581200000001601103019138787UBER   * EATS PENDING    SAN FRANCISCUSA000000000000000000000000000188108500029160104   29160104   007            008400101400   1000021     01200 0000000022688403000100000000420838710431855550C0000000002384030001000CUPF                                       
100C0006244310102082969   0000000004608400715041653570752324421071521951957075226480840   26480840   581200000001601103019138787UBER   *EATS             SAN FRANCISCUSA000000000000000000000000000157075200029160104   29160104   007            008400101400   1000021     01200 0000000004608403000100000000085355310431855550C0000000000584030001000CUPF                                       
100C0006244310102291370   0000000450008400714155828058594418598071421950905859426480840   26480840   573212345678601181476376553THE LINK SERVICE LLC     CHEYENNE    USA000000000000000000000000000105859400029160104   29160104   007            008400101400   1000021     01200 0000000450008403000100000008349975010431855550C0000000045084030001000CUPF                                       
100E0006244310031609916   0000002462007640716131629001474169097071621970500147426760764   26760764   562125062115002201845336   UNIQLO-CENTRAL KHONKAE   KHONKAEN    THA000000000000000000000000000100147400029160104   29160104   003            007640100308   0000021     05200 0000000067648407027474700001255145110455098071C0000000001484030001000CUPF                                       20777FDA99F49CC505200150E0F8C8008000E8007103AD365019138007010103A0200201                                                00457C00220716764                                          0000000000246200764800000000000001E030022A000000333010102                003200000586                              
