100E0006244310032458180   0000000081100360704132412105213098838070410521315241231710036   31710036   58121       99903          OLD BEIJING              Melbourne   AUS000000000000000000000000000010521300029160104   29160104   003            000361101300   0000021     05200 0000000055518407684522700001030104610431270166C0000000001184030001000CUPF                                       25ED1DEEE2B2F6D705200160E0F0C8008000E000428EBB72        07010103A0200201                                                000F7C00220704036                                          0000000000008110036800000000000001E0300                                  0020                                      
100E0006244310032458180   0000000030990360704151901475360903216070400000000174036150036   26370036   5411W3304064611000603003304WOOLWORTHS      3304     NSWAUS      AUS000000000000000000000000000047536000029160104   29160104   003            000361101300   0000021     07200 0000000021218407684522700000393624410431270166C0000000000484030001000CUPF                                       A36778D5EE02A883072001600068C800000000000FE6D3AF        07010103A0000001                                                00107C00220704036                                          00000000000030990368000000000000000000022A000000333010102                                                          
100C0006291102820244670   0000003500001040703120802144002477380070378NMW53DSDLZ30360528   30360528   549930360528303605280238959Foodpanda Myanmar        Kuala LumpurMYS000000000000000000000000000114400200029160104   29160104   007            005282101100   1000011     01200 0000000001908407000542200000035000010430001000C0000000000284030001000CUPF                                       
100C0006291102820244068   0000004200001040703152056145846477380070378NMW53DSF1430360528   30360528   549930360528303605280238959Foodpanda Myanmar        Kuala LumpurMYS000000000000000000000000000114584600029160104   29160104   007            005282101100   1000011     01200 0000000002288407000542200000042000010430001000C0000000000284030001000CUPF                                       
100C0006291102820244068   0000023500001040703191548148029477380070378NMW53DSGPR30360528   30360528   549930360528303605280238959Foodpanda Myanmar        Kuala LumpurMYS000000000000000000000000000114802900029160104   29160104   007            005282101100   1000011     01200 0000000012748407000542200000235000010430001000C0000000001384030001000CUPF                                       
100C0006291102820242138   0000003079121040703132346144738477380070378NMW53DSE6E30360528   30360528   549930360528303605280238959Foodpanda Myanmar        Kuala LumpurMYS000000000000000000000000000114473800029160104   29160104   007            005282101100   1000011     01200 0000000001678407000542200000030791210430001000C0000000000284030001000CUPF                                       
100C0006291102820242138   0000003850001040703164643146562477380070378NMW53DSFL030360528   30360528   549930360528303605280238959Foodpanda Myanmar        Kuala LumpurMYS000000000000000000000000000114656200029160104   29160104   007            005282101100   1000011     01200 0000000002098407000542200000038500010430001000C0000000000284030001000CUPF                                       
100C0006244310032311710   000000470000104070419455923537486504107046K1GK016DWAI30360528   30360528   412130360528303605280001399Grab* A-3L5CH7IWWGQM     Singapore   SGP000000000000000000000000000123537400029160104   29160104   007            005282101300   1000021     01200 0000000002558407000542200000047000010430001000C0000000000384030001000CUPF                                       
100C0006291102820215001   0000009710001040703093706142915477380070378NMW53DSCRS30360528   30360528   549930360528303605280238959Foodpanda Myanmar        Kuala LumpurMYS000000000000000000000000000114291500029160104   29160104   007            005282101100   1000011     01200 0000000005268407000542200000097100010430001000C0000000000584030001000CUPF                                       
100C0006244310032311710   0000004700001040704200949145774187028070478NMW592SOGD30360528   30360528   412130360528303605280001399Grab* A-3LRMHB9GWHVB     Singapore   SGP000000000000000000000000000114577400029160104   29160104   007            005282101300   1000021     01200 0000000002558407000542200000047000010430001000C0000000000384030001000CUPF                                       
100C0006291102820202363   0000014700001040703174659147106477380070378NMW53DSG0430360528   30360528   549930360528303605280238959Foodpanda Myanmar        Kuala LumpurMYS000000000000000000000000000114710600029160104   29160104   007            005282101100   1000011     01200 0000000007978407000542200000147000010430001000C0000000000884030001000CUPF                                       
100C0006291102820212511   0000003825001040703175428157259477380070375X66SII5GTH30360528   30360528   549930360528303605280238959Foodpanda Myanmar        Kuala LumpurMYS000000000000000000000000000115725900029160104   29160104   007            005282101100   1000011     01200 0000000002078407000542200000038250010430001000C0000000000284030001000CUPF                                       
100E0006291102820277472   0000000800006080703071630000084477380070321842618978227240608   27240608   569921400057724060881494857H&M                      CAVITE      PHL000000000000000000000000000100008400029160104   29160104   003            006080100108   0000011     05100 0000000014598407018236500000277478110453468476C0000000000284030001000CUPF                                       40ACE1F811620D8505100050E0E0C800800480000992C9D33132333407210103A0200201                                                00187C00220703608                                            000000000800006088000000000000002030022A000000333010101                0020000035                                
100E0006291102820277472   0000001190006080703073519000086477380070321842731885427240608   27240608   569921400057724060881494857H&M                      CAVITE      PHL000000000000000000000000000100008600029160104   29160104   003            006080100108   0000011     05100 0000000021708407018236500000412748610453468476C0000000000384030001000CUPF                                       902195863EA8DDFC05100050E0E0C80080048000595703143132333407210103A0200201                                                00197C00220703608                                            000000001190006088000000000000002030022A000000333010101                0020000036                                
