100C0006291102820242138   000000578000104071419135423308647738007146K1GK0EHQXX830360528   30360528   549930360528303605280238959Foodpanda Myanmar        Kuala LumpurMYS000000000000000000000000000123308600029160104   29160104   007            005282101100   1000011     01200 0000000003138407000542200000057800010430001000C0000000000384030001000CUPF                                       
100C0006244310032311710   0000004800001040715192937155085940716071575X66T1JMLSB30360528   30360528   412130360528303605280001399Grab* A-3N8R25HGWI2F     Singapore   SGP000000000000000000000000000115508500029160104   29160104   007            005282101300   1000021     01200 0000000002608407000542200000048000010430001000C0000000000384030001000CUPF                                       
100C0006291102820244670   0000002000001040714120013141658477380071478NMW5ME5B4T30360528   30360528   549930360528303605280238959Foodpanda Myanmar        Kuala LumpurMYS000000000000000000000000000114165800029160104   29160104   007            005282101100   1000011     01200 0000000001088407000542200000020000010430001000C0000000000184030001000CUPF                                       
100C0006291102820215001   0000016750001040714083929151728477380071475X66T1JMBHE30360528   30360528   549930360528303605280238959Foodpanda Myanmar        Kuala LumpurMYS000000000000000000000000000115172800029160104   29160104   007            005282101100   1000011     01200 0000000009088407000542200000167500010430001000C0000000000984030001000CUPF                                       
100C0006244310102082969   0000000015838400713145259352762628868071321940535276226480840   26480840   581200000001601103019138787UBER   * EATS PENDING    SAN FRANCISCUSA000000000000000000000000000135276200029160104   29160104   007            008400101400   1000021     01200 0000000015838403000100000000293733610431855550C0000000001684030001000CUPF                                       
100C0006244310105494609   0000000015888400713190858702580210602071321941070258026480840   26480840   594200000001601103014002483CHEGG  *ORDER            SANTA CLARA USA000000000000000000000000000170258000029160104   29160104   007            008400101400   1000021     01200 0000000015888403000100000000294661310431855550C0000000001684030001000CUPF                                       
100E0006244310105494609   0000000018748400713205444000713855148071321942509400726480840   26480840   549995821553601132006710506MARKET STREET MARKET     LOWELL      USA000000000000000000000000000100071300029160104   29160104   003            008400101400   0000021     05200 0000000018748403000100000000347730110431855550C0000000000484030001000CUPF                                                       052000                                                                                                                                                                                                                                                                                
100E0006291102820277472   0000000698006080714044928001103477380071423791736797227240608   27240608   569931301905724060884057453OXYGEN  SM MEGAMALL      MANDALUYONG PHL000000000000000000000000000100110300029160104   29160104   003            006080100108   0000011     05100 0000000012448407017823300000236614510453389892C0000000000284030001000CUPF                                       55353F59142889C305100050E0E0C8008004800066DA0DAF3130313007210103A0200201                                                001F7C00220714608                                            000000000698006088000000000000002030022A000000333010101                002000000002                              
