100C0006291102820242138   000000525000104070508354922746647738007056MRX9CM2HYYC30360528   30360528   549930360528303605280238959Foodpanda Myanmar        Kuala LumpurMYS000000000000000000000000000122746600029160104   29160104   007            005282101100   1000011     01200 0000000002858407000542200000052500010430001000C0000000000384030001000CUPF                                       
100C0006291102820282175   0000003800001040706124550159356477380070675X66SO7G65S30360528   30360528   412130360528303605280001399Grab* A-3M2NN47GWFPS     Singapore   SGP000000000000000000000000000115935600029160104   29160104   007            005282101100   1000011     01200 0000000002068407000542200000038000010430001000C0000000000284030001000CUPF                                       
100C0006291102820215019   0000012764001040706162832151127477380070675X66SO7G7IZ30360528   30360528   412130360528303605280001399Grab* A-3M3C3I4GWETH     Singapore   SGP000000000000000000000000000115112700029160104   29160104   007            005282101100   1000011     01200 0000000006928407000542200000127640010430001000C0000000000784030001000CUPF                                       
100C0006244310039991811   0000004450001040705090624159117077782070575X66SO7FY9H30360528   30360528   549930360528303605280238959Foodpanda Myanmar        Kuala LumpurMYS000000000000000000000000000115911700029160104   29160104   007            005282101300   1000021     01200 0000000002418407000542200000044500010430001000C0000000000284030001000CUPF                                       
100C0006244310031624030   0000009280001040705190130153978007755070575X66SO7G20G30360528   30360528   549930360528303605280238959Foodpanda Myanmar        Kuala LumpurMYS000000000000000000000000000115397800029160104   29160104   007            005282101300   1000021     01200 0000000005038407000542200000092800010430001000C0000000000584030001000CUPF                                       
100C0006291102820282175   000000740000104070617202122375147738007066MRX9CM2I3SX30360528   30360528   412130360528303605280001399Grab* A-3M3FL7GGWJGJ     Singapore   SGP000000000000000000000000000122375100029160104   29160104   007            005282101100   1000011     01200 0000000004018407000542200000074000010430001000C0000000000484030001000CUPF                                       
100C0006244310033813987   000005455000104070519211322002369427707056MRX9CM2I0XD30360528   30360528   549930360528303605280238959Foodpanda Myanmar        Kuala LumpurMYS000000000000000000000000000122002300029160104   29160104   007            005282101300   1000021     01200 0000000029588407000542200000545500010430001000C0000000003084030001000CUPF                                       
100C0006291102820242138   0000006800001040705131624151137477380070575X66SO7FZTK30360528   30360528   549930360528303605280238959Foodpanda Myanmar        Kuala LumpurMYS000000000000000000000000000115113700029160104   29160104   007            005282101100   1000011     01200 0000000003698407000542200000068000010430001000C0000000000484030001000CUPF                                       
100C0006244310031624030   000000705000104070513250223791626442307056K1GK016DY9430360528   30360528   549930360528303605280238959Foodpanda Myanmar        Kuala LumpurMYS000000000000000000000000000123791600029160104   29160104   007            005282101300   1000021     01200 0000000003828407000542200000070500010430001000C0000000000484030001000CUPF                                       
100C0006291102820236031   0000007791001040706182131141395477380070678NMW592T0I230360528   30360528   412130360528303605280001399Grab* A-3M3JTSWWWI5B     Singapore   SGP000000000000000000000000000114139500029160104   29160104   007            005282101100   1000011     01200 0000000004228407000542200000077910010430001000C0000000000484030001000CUPF                                       
100C0006291102820246980   000001700000104070510354923721447738007056K1GK016DXPM30360528   30360528   549930360528303605280238959Foodpanda Myanmar        Kuala LumpurMYS000000000000000000000000000123721400029160104   29160104   007            005282101100   1000011     01200 0000000009228407000542200000170000010430001000C0000000000984030001000CUPF                                       
100E0006244310032049740   0000000340007640705194851611069329742070521861961106937860764   37860764   541117211251541129830998194Thai Smart Card Company Limited         000000000000000000000000000161106900029160104   29160104   003            007640100308   0000021     05200 0000000009588407028183500000177806310455229597C0000000000284030001000CUPF                                       4B13C9D90924BA9C05200150E0F8C8008000E00045E69FE9324D343007010103A0200201                                                002B7C00220705764                                          0000000000000000764800000000000001E030022A000000333010102                002000012333                              
