100E0006244310034800660   0000000022117020712122054556540665160071200000003564430480702   30480702   541166920801602070254110188GIANT SUPER              PAYA LEBAR SSGP000000000000000000000000000055654000029160104   29160104   003            007021101308   0000021     05200 0000000015778407713251000000292619910431323473C0000000000384030001000CUPF                                       AFE3003C5DA9A6AD052001506060C8008000E000A833EA968121579607010103A0200201                                                00137C00220712702                                          0000000000002211702800000000000001E030025A000000333010102                0020                                      
100C0006244310031624030   0000016450001040711115034152454446668071175X66SO7H3ER30360528   30360528   549930360528303605280238959Foodpanda Myanmar        Kuala LumpurMYS000000000000000000000000000115245400029160104   29160104   007            005282101300   1000021     01200 0000000008928407000542200000164500010430001000C0000000000984030001000CUPF                                       
100C0006244310032298669   0000004000001040711125830153176192757071175X66SO7H3YT30360528   30360528   549930360528303605280238959Foodpanda Myanmar        Kuala LumpurMYS000000000000000000000000000115317600029160104   29160104   007            005282101300   1000021     01200 0000000002178407000542200000040000010430001000C0000000000284030001000CUPF                                       
100C0006291102820242138   0000003500001040711154632145322477380071178NMW5J0X90M30360528   30360528   549930360528303605280238959Foodpanda Myanmar        Kuala LumpurMYS000000000000000000000000000114532200029160104   29160104   007            005282101100   1000011     01200 0000000001908407000542200000035000010430001000C0000000000284030001000CUPF                                       
100C0006244310039991811   000000385000104071113153223375069701307116K1GK016EI6O30360528   30360528   549930360528303605280238959Foodpanda Myanmar        Kuala LumpurMYS000000000000000000000000000123375000029160104   29160104   007            005282101300   1000021     01200 0000000002098407000542200000038500010430001000C0000000000284030001000CUPF                                       
100C0006291102820242138   0000006850001040711154841154153477380071175X66SY4F5KS30360528   30360528   549930360528303605280238959Foodpanda Myanmar        Kuala LumpurMYS000000000000000000000000000115415300029160104   29160104   007            005282101100   1000011     01200 0000000003718407000542200000068500010430001000C0000000000484030001000CUPF                                       
100C0006244310033813987   0000009750001040711162122154388244623071175X66SY4F5RB30360528   30360528   549930360528303605280238959Foodpanda Myanmar        Kuala LumpurMYS000000000000000000000000000115438800029160104   29160104   007            005282101300   1000021     01200 0000000005298407000542200000097500010430001000C0000000000584030001000CUPF                                       
100C0006291102820244670   0000002000001040711193146147306477380071178NMW5J0XAJQ30360528   30360528   549930360528303605280238959Foodpanda Myanmar        Kuala LumpurMYS000000000000000000000000000114730600029160104   29160104   007            005282101100   1000011     01200 0000000001088407000542200000020000010430001000C0000000000184030001000CUPF                                       
100C0006291102820249109   0000028195001040712155908152583477380071275X66SY4FC2U30360528   30360528   412130360528303605280001399Grab* A-3MSWDUFWWGMK     Singapore   SGP000000000000000000000000000115258300029160104   29160104   007            005282101100   1000011     01200 0000000015298407000542200000281950010430001000C0000000001584030001000CUPF                                       
100C0006244310031511047   000000548000104071111093022381222541707116MRX9CM2IJA530360528   30360528   549930360528303605280238959Foodpanda Myanmar        Kuala LumpurMYS000000000000000000000000000122381200029160104   29160104   007            005282101300   1000021     01200 0000000002978407000542200000054800010430001000C0000000000384030001000CUPF                                       
100C0006291102820252038   0000013500001040712162207152788477380071275X66SY4FC8D30360528   30360528   412130360528303605280001399Grab* A-3MS2H8IWWI5B     Singapore   SGP000000000000000000000000000115278800029160104   29160104   007            005282101100   1000011     01200 0000000007328407000542200000135000010430001000C0000000000784030001000CUPF                                       
100E0006244310037483134   0000001199009010710210934299879815340071000000000012326920158   26720158   5200153645658221301500814  SHOW BA                  HSINPEI      TW000000000000000000000000000129987900029160104   29160104   003            001580100308   0000021     05200 0000000040498407033767600000751262910456265746C0000000000884030001000CUPF                                       00FEE12EB808BF210520015 E060C8008000E0004FACBC35        010103A020020100                                                000A7C002207101580FEE12EB80                                000000000011990090180000000000000                                                                                  
