100E0006291102820261617   0000000102969780718032211098963477380071807170009896326180250   26180250   52002412241 2412241        LACM                     ROISSY CDG  FRA000000000000000000000000000009896300029160104   29160104   003            002500101100   0000011     05100 0000000103628406100636900001970707910431914052D0000000007384030001000CUPF                                       FBA8E1423891107E0510015060F8C8000004800093B65F88        07210103A0200201                                                000F7C00220717250                                          00000000000102969788000000000000002030222                                                                          
100C0006291102820242138   0000006970001040717124247147752477380071778NMW5ME5V7X30360528   30360528   549930360528303605280238959Foodpanda Myanmar        Kuala LumpurMYS000000000000000000000000000114775200029160104   29160104   007            005282101100   1000011     01200 0000000003788407000542200000069700010430001000C0000000000484030001000CUPF                                       
100C0006291102820242138   000000565000104071716340222522047738007176MRX9CZD6O9A30360528   30360528   549930360528303605280238959Foodpanda Myanmar        Kuala LumpurMYS000000000000000000000000000122522000029160104   29160104   007            005282101100   1000011     01200 0000000003068407000542200000056500010430001000C0000000000384030001000CUPF                                       
100C0006244310033813987   0000024450001040717172750151945883906071775X66T1JMYQO30360528   30360528   549930360528303605280238959Foodpanda Myanmar        Kuala LumpurMYS000000000000000000000000000115194500029160104   29160104   007            005282101300   1000021     01200 0000000013268407000542200000244500010430001000C0000000001384030001000CUPF                                       
101C0006244310032311710   000000280000104071823275311921590667707156MRX9CZD6I3X30360528   30360528   549930360528303605280238959Foodpanda Myanmar        Kuala LumpurMYS100071519443722722107150000111921500029160104   29160104   007 000        005282101300   0000021     01200 0000000001528407000542200000028000010430001000D0000000000284030001000CUPF                                       
100C0006244310032311710   0000004800001040718101418145067153756071878NMW5ME60UW30360528   30360528   412130360528303605280001399Grab* A-3NJLCV8WWH3U     Singapore   SGP000000000000000000000000000114506700029160104   29160104   007            005282101300   1000021     01200 0000000002608407000542200000048000010430001000C0000000000384030001000CUPF                                       
100C0006244310036366868   000000425000104071710184122364309170307176MRX9CZD6N1H30360528   30360528   549930360528303605280238959Foodpanda Myanmar        Kuala LumpurMYS000000000000000000000000000122364300029160104   29160104   007            005282101300   1000021     01200 0000000002308407000542200000042500010430001000C0000000000284030001000CUPF                                       
100C0006244310032311710   000000490000104071819360023331112546907186K1GK0LBZ8E030360528   30360528   412130360528303605280001399Grab* A-3NL8BDDGWIC6     Singapore   SGP000000000000000000000000000123331100029160104   29160104   007            005282101300   1000021     01200 0000000002668407000542200000049000010430001000C0000000000384030001000CUPF                                       
100C0006291102820266517   000000700000104071719334023637047738007176K1GK0EHR85B30360528   30360528   549930360528303605280238959Foodpanda Myanmar        Kuala LumpurMYS000000000000000000000000000123637000029160104   29160104   007            005282101100   1000011     01200 0000000003808407000542200000070000010430001000C0000000000484030001000CUPF                                       
100C0006291102820215001   000002405000104071716074122513047738007176MRX9CZD6O6S30360528   30360528   549930360528303605280238959Foodpanda Myanmar        Kuala LumpurMYS000000000000000000000000000122513000029160104   29160104   007            005282101100   1000011     01200 0000000013048407000542200000240500010430001000C0000000001384030001000CUPF                                       
100C0006244310034800660   0000000056167020717070235816121320084071721980781612140850702   40530036   5399C1KQZN5Z3TNLMP3MX7OZHASAMAZON SG                SINGAPORE   SGP000000000000000000000000000181612100029160104   29160104   007F           007022101300   1000021     01200 0000000040348407718359300000748585810431332952C0000000004084030001000CUPF                                       
100E0006244310037483134   0000000384009010715125345311100579710071521967872314127110158   26720158   597300000006103052596740001Jia Nan                              TW 000000000000000000000000000131110000029160104   29160104   003            001580100308   0000021     07100 0000000012898407033573600000239222210456229745C0000000000384030001000CUPF                                       2223BCC91BD68E9307100151E068C80000000000721CCA5C        07010103A0000001                                                000C7C00220715                                             000000000003840090180000000000000                                                                                  
100E0006244310037483134   0000000938009010715144654316321105928071500000000043026920158   26720158   5311153382208221401000567  TWGLOBALMALL             TAIPEI       TW000000000000000000000000000131632100029160104   29160104   003            001580100308   0000021     05200 0000000031498407033573600000584350110456229745C0000000000684030001000CUPF                                       62CC91E42B18ECD50520015 E060C8008000E0005676552A        010103A020020100                                                000D7C002207151582CC91E42B1                                000000000009380090180000000000000                                                                                  
100E0006244310037483134   0000001158009010715164400317196217969071500000000007826920158   26720158   5311153396448221401000567  TWGLOBALMALL             TAIPEI       TW000000000000000000000000000131719600029160104   29160104   003            001580100308   0000021     05200 0000000038888407033573600000721404510456229745C0000000000884030001000CUPF                                       510029699FBA3C4C0520015 E060C8008000E0009B179700        010103A020020100                                                000E7C0022071515810029699FB                                000000000011580090180000000000000                                                                                  
100C0006244310102082969   0000000005008400717014954700694447729071721971670069426480840   26480840   581200000001601103019138787UBER   *EATS             SAN FRANCISCUSA000000000000000000000000000170069400029160104   29160104   007            008400101400   1000021     01200 0000000005008403000100000000092777510431855550C0000000000584030001000CUPF                                       
100C0006244310102082969   0000000039838400717002149501302943474071721971550130226480840   26480840   581200000001601103019138787UBER   * EATS PENDING    SAN FRANCISCUSA000000000000000000000000000150130200029160104   29160104   007            008400101400   1000021     01200 0000000039838403000100000000739065610431855550C0000000004084030001000CUPF                                       
100C0006244310102291370   0000000055008400716175828327428093082071621971132742826480840   26480840   573212345678601181476376553THE LINK SERVICE LLC     CHEYENNE    USA000000000000000000000000000132742800029160104   29160104   007            008400101400   1000021     01200 0000000055008403000100000001020552510431855550C0000000005584030001000CUPF                                       
100E0006291102820261617   000000055000978071722030023145947738007176KBB0Y271HVW30370250   30370528   569183041540303705280664368DiorCouture DS_FR012_SainParis       FRA000000000000000000000000000123145900029160104   29160104   003            002501100100   0000011     05100 0000000553508406100636900010527286010431914052C0000000011184030001000CUPF                                       1539D24BE7EA9EC90510015160F8C80080048000F4D8890F8304154007210103A0A00201                                                000E7C00220717250                                          000000000005500097880            02030022                                003000000576                              
