100C0006291102820255809   00000000099984007132250261234194773800713YP4zKYxyZxtp28000392   00049992   539901080209800039253992034Xsolla Inc                              000000000000000000000000000012341900029160104   29160104   007            003922101100   0900011     01200 0000000009998403000100000000190003710431901939C0000000001084030001000CUPF                                       
100C0006244310102082969   0000000054858400711185649500087109848071121920950008726480840   26480840   412100000001601103011637836UBR* PENDING.UBER.COM    SAN FRANCISCUSA000000000000000000000000000150008700029160104   29160104   007            008400101400   1000021     01200 0000000054858403000100000001017769210431855550C0000000005584030001000CUPF                                       
100C0006291102820244670   0000003500001040712184742145758477380071278NMW5J0XGUP30360528   30360528   549930360528303605280238959Foodpanda Myanmar        Kuala LumpurMYS000000000000000000000000000114575800029160104   29160104   007            005282101100   1000011     01200 0000000001908407000542200000035000010430001000C0000000000284030001000CUPF                                       
100C0006291102820202363   000002081500104071215524122865147738007126MRX9CVZ599E30360528   30360528   549930360528303605280238959Foodpanda Myanmar        Kuala LumpurMYS000000000000000000000000000122865100029160104   29160104   007            005282101100   1000011     01200 0000000011298407000542200000208150010430001000C0000000001184030001000CUPF                                       
100C0006291102820246980   0000012750001040712155422143609477380071278NMW5J0XFEQ30360528   30360528   549930360528303605280238959Foodpanda Myanmar        Kuala LumpurMYS000000000000000000000000000114360900029160104   29160104   007            005282101100   1000011     01200 0000000006918407000542200000127500010430001000C0000000000784030001000CUPF                                       
100C0006244310032311710   0000004600001040713184624153248592156071375X66SY4FK5G30360528   30360528   412130360528303605280001399Grab* A-3MV2L3CGWEFC     Singapore   SGP000000000000000000000000000115324800029160104   29160104   007            005282101300   1000021     01200 0000000002498407000542200000046000010430001000C0000000000284030001000CUPF                                       
100C0006244310032311710   0000003380001040712105158141238046715071278NMW5J0XDKW30360528   30360528   549930360528303605280238959Foodpanda Myanmar        Kuala LumpurMYS000000000000000000000000000114123800029160104   29160104   007            005282101300   1000021     01200 0000000001838407000542200000033800010430001000C0000000000284030001000CUPF                                       
100C0006291102820215019   0000013450001040712171956144266477380071278NMW5J0XFWZ30360528   30360528   549930360528303605280238959Foodpanda Myanmar        Kuala LumpurMYS000000000000000000000000000114426600029160104   29160104   007            005282101100   1000011     01200 0000000007298407000542200000134500010430001000C0000000000784030001000CUPF                                       
100C0006244310032311710   0000006250001040712110032141295864447071278NMW5J0XDMH30360528   30360528   549930360528303605280238959Foodpanda Myanmar        Kuala LumpurMYS000000000000000000000000000114129500029160104   29160104   007            005282101300   1000021     01200 0000000003398407000542200000062500010430001000C0000000000384030001000CUPF                                       
100C0006244310032298669   0000007300001040713091715158424752137071375X66SY4FGFI30360528   30360528   412130360528303605280001399Grab* A-3MUVF9AWWIVU     Singapore   SGP000000000000000000000000000115842400029160104   29160104   007            005282101300   1000021     01200 0000000003968407000542200000073000010430001000C0000000000484030001000CUPF                                       
100C0006291102820242138   0000007140001040712145347152095477380071275X66SY4FBPA30360528   30360528   549930360528303605280238959Foodpanda Myanmar        Kuala LumpurMYS000000000000000000000000000115209500029160104   29160104   007            005282101100   1000011     01200 0000000003878407000542200000071400010430001000C0000000000484030001000CUPF                                       
100C0006291102820247160   0000003400001040712181010145365477380071278NMW5J0XGJS30360528   30360528   549930360528303605280238959Foodpanda Myanmar        Kuala LumpurMYS000000000000000000000000000114536500029160104   29160104   007            005282101100   1000011     01200 0000000001848407000542200000034000010430001000C0000000000284030001000CUPF                                       
100C0006291102820242138   000000775000104071208364723723747738007126K1GK0B3OTYL30360528   30360528   549930360528303605280238959Foodpanda Myanmar        Kuala LumpurMYS000000000000000000000000000123723700029160104   29160104   007            005282101100   1000011     01200 0000000004208407000542200000077500010430001000C0000000000484030001000CUPF                                       
100E0006244310106323286   0000050000001040711125429001160829601071122071111542934790104   34790104   554110000410000001000002905NEW DAY ENERGY MYG       Mayangone(KaMMR000000000000000000000000000100116000029160104   29160104   003            001040100421   0000021     07200 0000000027118407000542200000500000010430001000C0000000000484030001000CUPF                                       D5D67507FF73CF0607210060E060C800000000001CD304732865149807010103A00000010A010000000000476F9A3F                          000F7C00220711104                                          0000000005000000104800000000000001F000022A000000333010102                    0000                                  
100E0006291102820226305   0000461000001040712155002000063477380071222071214500234790104   34790104   571210001875000001000024693PRO (1) GLOBAL (SOUTH DAGDagonMyothitMMR000000000000000000000000000100006300029160104   29160104   003            001040100121   0000011     07100 0000000249958407000542200004610000010430001000C0000000026484030001000CUPF                                       AD19C408196117A707110060E060C800000000005C7477302865251307210103A00000010A010000000000FBD6BE90                          00087C00220712104                                          00000000461000001048000000000000002000022A000000333010101                    0000                                  
100E0006244310037483134   0000000782009010712123904304672993084071224219300287028600158   26720158   5411502622308080895146     WELLCOME-L9           TAIPEI       TW TW000000000000000000000000000130467200029160104   29160104   003            001580100308   0000021     05 00 0000000026288407033609500000487687310456236411C0000000000584030001000CUPF                                       7AC64ED8FC8F291605 00151E060C8008000E800ABAE7CD7        0701010360200201                                                000B7C00220712158                                          000000000007820090140000000000000                                                                                  
