100C0006244310031624030   0000009350001040708083336154183774643070875X66SO7GHLJ30360528   30360528   549930360528303605280238959Foodpanda Myanmar        Kuala LumpurMYS000000000000000000000000000115418300029160104   29160104   007            005282101300   1000021     01200 0000000005078407000542200000093500010430001000C0000000000584030001000CUPF                                       
100C0006291102820242138   000000385000104070808350622021847738007086MRX9CM2I8SK30360528   30360528   549930360528303605280238959Foodpanda Myanmar        Kuala LumpurMYS000000000000000000000000000122021800029160104   29160104   007            005282101100   1000011     01200 0000000002098407000542200000038500010430001000C0000000000284030001000CUPF                                       
100C0006291102820291663   0000058910001040708125431145644477380070878NMW592TBHT30360528   30360528   549930360528303605280238959Foodpanda Myanmar        Kuala LumpurMYS000000000000000000000000000114564400029160104   29160104   007            005282101100   0900011     01200 0000000031948407000542200000589100010430001000C0000000003284030001000CUPF                                       
100C0006291102820202363   000001470000104070816411722221847738007086MRX9CM2IAC430360528   30360528   549930360528303605280238959Foodpanda Myanmar        Kuala LumpurMYS000000000000000000000000000122221800029160104   29160104   007            005282101100   1000011     01200 0000000007978407000542200000147000010430001000C0000000000884030001000CUPF                                       
100C0006244310031624030   0000013550001040708165606158319316029070875X66SO7GKSE30360528   30360528   549930360528303605280238959Foodpanda Myanmar        Kuala LumpurMYS000000000000000000000000000115831900029160104   29160104   007            005282101300   1000021     01200 0000000007358407000542200000135500010430001000C0000000000784030001000CUPF                                       
100C0006291102820242138   0000003230001040708121928155875477380070875X66SO7GIWJ30360528   30360528   549930360528303605280238959Foodpanda Myanmar        Kuala LumpurMYS000000000000000000000000000115587500029160104   29160104   007            005282101100   1000011     01200 0000000001758407000542200000032300010430001000C0000000000284030001000CUPF                                       
100C0006244310102082969   0000000011578400708105919572352028553070821880157235226480840   26480840   581200000001601103019138787UBER   * EATS PENDING    SAN FRANCISCUSA000000000000000000000000000157235200029160104   29160104   007            008400101400   1000021     01200 0000000011578403000100000000214687110431855550C0000000001284030001000CUPF                                       
100C0006244310102082969   0000000003008400708133225702639997507070821890470263926480840   26480840   581200000001601103019138787UBER   *EATS             SAN FRANCISCUSA000000000000000000000000000170263900029160104   29160104   007            008400101400   1000021     01200 0000000003008403000100000000055666510431855550C0000000000384030001000CUPF                                       
100C0006244310102082969   0000000003008400708125912880441546261070821880388044126480840   26480840   581200000001601103019138787UBER   *EATS             SAN FRANCISCUSA000000000000000000000000000188044100029160104   29160104   007            008400101400   1000021     01200 0000000003008403000100000000055666510431855550C0000000000384030001000CUPF                                       
100C0006244310102082969   0000000018218400708105846382571202311070821880138257126480840   26480840   581200000001601103019138787UBER   * EATS PENDING    SAN FRANCISCUSA000000000000000000000000000138257100029160104   29160104   007            008400101400   1000021     01200 0000000018218403000100000000337895710431855550C0000000001884030001000CUPF                                       
100E0006244310031609916   0000000628507640709202334000116906188070921901200011626760764   26760764   549924716867002201405693   LOTUS'S 1875 KHONKAEN    KHONKAEN    THA000000000000000000000000000100011600029160104   29160104   003            007640100308   0000021     05200 0000000017578407027952300000325983410455186689C0000000000484030001000CUPF                                       92B84E9EC93D2BAC05200150E0F8C8008000E800A02135B98128170607010103A0200201                                                00447C00220709764                                          0000000000062850764800000000000001E030022A000000333010102                003200000201                              
100E0006244310037483134   0000000701009010709200424295180037398070921909241089526720158   26720158   5621640007080132458765     H&M  58765               TAIPEI CITY TW 000000000000000000000000000129518000029160104   29160104   003            001580100308   0000021     05200 0000000023678407033767600000439228810456265746C0000000000584030001000CUPF                                       BFB17D991EA6CCF10520015 E060C8008000E0009DE78E20        0701010360200201000000000000000000FF                            00097C00220709158                                          000000000000070190140000000000000                                                                                  
