100C0006291102820252038   000000950000104071112442823359947738007116K1GK016EI2H30360528   30360528   412130360528303605280001399Grab* A-3MNAOR6WWJT3     Singapore   SGP000000000000000000000000000123359900029160104   29160104   007            005282101100   1000011     01200 0000000005158407000542200000095000010430001000C0000000000584030001000CUPF                                       
100C0006244310036366868   0000001700001040710111759142835267158071078NMW592TOR930360528   30360528   549930360528303605280238959Foodpanda Myanmar        Kuala LumpurMYS000000000000000000000000000114283500029160104   29160104   007            005282101300   1000021     01200 0000000000928407000542200000017000010430001000C0000000000184030001000CUPF                                       
100C0006244310032311710   000000500000104071119403522538114745107116MRX9CVZ56QL30360528   30360528   412130360528303605280001399Grab* A-3MOEX4JWWIDO     Singapore   SGP000000000000000000000000000122538100029160104   29160104   007            005282101300   1000021     01200 0000000002718407000542200000050000010430001000C0000000000384030001000CUPF                                       
100C0006244310033813987   000003499000104071014533522057620046007106MRX9CM2IGS930360528   30360528   549930360528303605280238959Foodpanda Myanmar        Kuala LumpurMYS000000000000000000000000000122057600029160104   29160104   007            005282101300   1000021     01200 0000000018978407000542200000349900010430001000C0000000001984030001000CUPF                                       
100C0006291102820244670   0000002000001040710124057154248477380071075X66SO7GX2T30360528   30360528   549930360528303605280238959Foodpanda Myanmar        Kuala LumpurMYS000000000000000000000000000115424800029160104   29160104   007            005282101100   1000011     01200 0000000001088407000542200000020000010430001000C0000000000184030001000CUPF                                       
100C0006291102820242138   0000007710001040710153327145230477380071078NMW592TQLR30360528   30360528   549930360528303605280238959Foodpanda Myanmar        Kuala LumpurMYS000000000000000000000000000114523000029160104   29160104   007            005282101100   1000011     01200 0000000004188407000542200000077100010430001000C0000000000484030001000CUPF                                       
100C0006244310102082969   0000000008298400710111621332693839490071021900233269326480840   26480840   581200000001601103019138787UBER   *EATS             SAN FRANCISCUSA000000000000000000000000000133269300029160104   29160104   007            008400101400   1000021     01200 0000000008298403000100000000153825110431855550C0000000000884030001000CUPF                                       
100C0006244310102082969   0000000041718400710095934502680152967071021900050268026480840   26480840   581200000001601103019138787UBER   * EATS PENDING    SAN FRANCISCUSA000000000000000000000000000150268000029160104   29160104   007            008400101400   1000021     01200 0000000041718403000100000000773949910431855550C0000000004284030001000CUPF                                       
