100C0006291102820215001   0000006030001040716084034147364477380071678NMW5ME5N8T30360528   30360528   549930360528303605280238959Foodpanda Myanmar        Kuala LumpurMYS000000000000000000000000000114736400029160104   29160104   007            005282101100   1000011     01200 0000000003278407000542200000060300010430001000C0000000000384030001000CUPF                                       
100C0006244310036366868   0000006500001040716092859147562024433071678NMW5ME5NEB30360528   30360528   549930360528303605280238959Foodpanda Myanmar        Kuala LumpurMYS000000000000000000000000000114756200029160104   29160104   007            005282101300   1000021     01200 0000000003528407000542200000065000010430001000C0000000000484030001000CUPF                                       
100C0006291102820215019   0000006770001040716160429152234477380071675X66T1JMRAT30360528   30360528   549930360528303605280238959Foodpanda Myanmar        Kuala LumpurMYS000000000000000000000000000115223400029160104   29160104   007            005282101100   1000011     01200 0000000003678407000542200000067700010430001000C0000000000484030001000CUPF                                       
100C0006291102820242138   000000522750104071616282122080947738007166MRX9CZD6KVL30360528   30360528   549930360528303605280238959Foodpanda Myanmar        Kuala LumpurMYS000000000000000000000000000122080900029160104   29160104   007            005282101100   1000011     01200 0000000002838407000542200000052275010430001000C0000000000384030001000CUPF                                       
100C0006291102820242138   0000006375001040716105627159343477380071675X66T1JMP2K30360528   30360528   549930360528303605280238959Foodpanda Myanmar        Kuala LumpurMYS000000000000000000000000000115934300029160104   29160104   007            005282101100   1000011     01200 0000000003468407000542200000063750010430001000C0000000000384030001000CUPF                                       
100C0006244310032311710   000000420000104071714401423508859101307176K1GK0EHR75P30360528   30360528   412130360528303605280001399Grab* A-3NGAH87WWELJ     Singapore   SGP000000000000000000000000000123508800029160104   29160104   007            005282101300   1000021     01200 0000000002288407000542200000042000010430001000C0000000000284030001000CUPF                                       
100C0006244310037483134   000001380000104071617170222099909802607166MRX9CZD6L0V30360528   30360528   549930360528303605280238959Foodpanda Myanmar        Kuala LumpurMYS000000000000000000000000000122099900029160104   29160104   007            005282101300   1000021     01200 0000000007488407000542200000138000010430001000C0000000000784030001000CUPF                                       
100C0006244310037483134   0000005650001040716172049141484106536071678NMW5ME5QF730360528   30360528   549930360528303605280238959Foodpanda Myanmar        Kuala LumpurMYS000000000000000000000000000114148400029160104   29160104   007            005282101300   1000021     01200 0000000003068407000542200000056500010430001000C0000000000384030001000CUPF                                       
100C0006244310036366868   0000003750001040716145336140284534204071678NMW5ME5PHV30360528   30360528   549930360528303605280238959Foodpanda Myanmar        Kuala LumpurMYS000000000000000000000000000114028400029160104   29160104   007            005282101300   1000021     01200 0000000002038407000542200000037500010430001000C0000000000284030001000CUPF                                       
100E0006244310032049740   0000000165007640716181605437253720037071621971843725337860764   37860764   541117212621541197051407706Thai Smart Card Company Limited         000000000000000000000000000143725300029160104   29160104   003            007640100308   0000021     07200 0000000004538407027474700000084118210455098071C0000000000184030001000CUPF                                       CC9A0D623370F1EE07200150E0F8C800000000006EF3F2AB324D373907010103A00000010A010000000000208100BE                          00317C00220716764                                          000000000001650076480                  22A000000333010102                    00000000                              
100C0006244310102082969   0000000017838400715210815501997479010071521961250199726480840   26480840   581200000001601103019138787UBER   * EATS PENDING    SAN FRANCISCUSA000000000000000000000000000150199700029160104   29160104   007            008400101400   1000021     01200 0000000017838403000100000000330844610431855550C0000000001884030001000CUPF                                       
100C0006244310102082969   0000000003928400715231301350952339290071521961435095226480840   26480840   581200000001601103019138787UBER   *EATS             SAN FRANCISCUSA000000000000000000000000000135095200029160104   29160104   007            008400101400   1000021     01200 0000000003928403000100000000072737610431855550C0000000000484030001000CUPF                                       
100C0006244310102082969   0000000052048400716083748820606206701071621962382060626480840   26480840   412100000001601103011637836UBR* PENDING.UBER.COM    SAN FRANCISCUSA000000000000000000000000000182060600029160104   29160104   007            008400101400   1000021     01200 0000000052048403000100000000965628210431855550C0000000005284030001000CUPF                                       
100C0006244310105494609   0000000003908400716111246572596414498071621960257259626480840   26480840   581200000001601103019138787UBER   *EATS             SAN FRANCISCUSA000000000000000000000000000157259600029160104   29160104   007            008400101400   1000021     01200 0000000003908403000100000000072366510431855550C0000000000484030001000CUPF                                       
100C0006244310105494609   0000000046108400716095739700023719465071621960070002326480840   26480840   581200000001601103019138787UBER   * EATS PENDING    SAN FRANCISCUSA000000000000000000000000000170002300029160104   29160104   007            008400101400   1000021     01200 0000000046108403000100000000855408610431855550C0000000004684030001000CUPF                                       
100E0006244310037483134   0000000690009010717213111327251211944071721989861442326720158   26720158   5311184054790101013178     Taipei 101  13178        TAIPEI CITY TW 000000000000000000000000000132725100029160104   29160104   003            001580100308   0000021     07200 0000000023178407033573600000429852410456229745C0000000000584030001000CUPF                                       52A61D90710ADF8E0720016 E060C800000000001F1810CC        07010103A0000001                                                00117C00220717158                                          000000000000069090180000000000000                                                                                  
