100C0006291102820242138   0000002940001040706131028148914477380070678NMW592SYLA30360528   30360528   549930360528303605280238959Foodpanda Myanmar        Kuala LumpurMYS000000000000000000000000000114891400029160104   29160104   007            005282101100   1000011     01200 0000000001598407000542200000029400010430001000C0000000000284030001000CUPF                                       
100C0006291102820242138   0000003400001040706160057150925477380070675X66SO7G7DD30360528   30360528   549930360528303605280238959Foodpanda Myanmar        Kuala LumpurMYS000000000000000000000000000115092500029160104   29160104   007            005282101100   1000011     01200 0000000001848407000542200000034000010430001000C0000000000284030001000CUPF                                       
100C0006291102820236031   0000007910001040707182718149801477380070778NMW592T6ZJ30360528   30360528   412130360528303605280001399Grab* A-3M7QQ8NGWGAR     Singapore   SGP000000000000000000000000000114980100029160104   29160104   007            005282101100   1000011     01200 0000000004298407000542200000079100010430001000C0000000000484030001000CUPF                                       
101C0006244310031624030   0000002800001040707232820115396007755070575X66SO7G20G30360528   30360528   549930360528303605280238959Foodpanda Myanmar        Kuala LumpurMYS100070519013015397807050000111539600029160104   29160104   007 000        005282101300   0000021     01200 0000000001528407000542200000028000010430001000D0000000000284030001000CUPF                                       
100C0006291102820215019   0000010440001040706164619151265477380070675X66SO7G7MT30360528   30360528   549930360528303605280238959Foodpanda Myanmar        Kuala LumpurMYS000000000000000000000000000115126500029160104   29160104   007            005282101100   1000011     01200 0000000005668407000542200000104400010430001000C0000000000684030001000CUPF                                       
100C0006291102820242138   0000003950001040706135804159993477380070675X66SO7G6NH30360528   30360528   549930360528303605280238959Foodpanda Myanmar        Kuala LumpurMYS000000000000000000000000000115999300029160104   29160104   007            005282101100   1000011     01200 0000000002148407000542200000039500010430001000C0000000000284030001000CUPF                                       
100C0006244310031624030   000000785000104070616560623294307167207066K1GK016E24R30360528   30360528   549930360528303605280238959Foodpanda Myanmar        Kuala LumpurMYS000000000000000000000000000123294300029160104   29160104   007            005282101300   1000021     01200 0000000004268407000542200000078500010430001000C0000000000484030001000CUPF                                       
100C0006291102820265667   0000007100001040706170445140781477380070678NMW592T01130360528   30360528   549930360528303605280238959Foodpanda Myanmar        Kuala LumpurMYS000000000000000000000000000114078100029160104   29160104   007            005282101100   1000011     01200 0000000003858407000542200000071000010430001000C0000000000484030001000CUPF                                       
100C0006291102820265667   0000004450001040706170843151441477380070675X66SO7G7RP30360528   30360528   549930360528303605280238959Foodpanda Myanmar        Kuala LumpurMYS000000000000000000000000000115144100029160104   29160104   007            005282101100   1000011     01200 0000000002418407000542200000044500010430001000C0000000000284030001000CUPF                                       
100C0006291102820265667   000000590000104070617095823299647738007066K1GK016E26830360528   30360528   549930360528303605280238959Foodpanda Myanmar        Kuala LumpurMYS000000000000000000000000000123299600029160104   29160104   007            005282101100   1000011     01200 0000000003208407000542200000059000010430001000C0000000000384030001000CUPF                                       
100E0006244310037483134   0000000960009010706183415282267805688070600060748064227830158   26720158   581216006570000100868606781BABA KEVIN'S AMERICAN BAR            TWN000000000000000000000000000128226700029160104   29160104   003F           001580100308   0000021     07000 0000000032368407033709800000600482810456255029C0000000000684030001000CUPF                                       15AD40EC7445F3FA0700016 E068C80000000000673B0F5E        07010103A0000001                                                00087C00220706158                                          000000000009600090180000000000000                                                                                  
