100C0006291102820282175   000000369900104071412052422062147738007146MRX9CZD6D0M30360528   30360528   412130360528303605280001399Grab* A-3N3IML2WWFR5     Singapore   SGP000000000000000000000000000122062100029160104   29160104   007            005282101100   1000011     01200 0000000002018407000542200000036990010430001000C0000000000284030001000CUPF                                       
100C0006291102820215001   0000024350001040713184252153222477380071375X66SY4FK4Q30360528   30360528   549930360528303605280238959Foodpanda Myanmar        Kuala LumpurMYS000000000000000000000000000115322200029160104   29160104   007            005282101100   1000011     01200 0000000013208407000542200000243500010430001000C0000000001384030001000CUPF                                       
100C0006291102820242138   0000004750001040713161406152009477380071375X66SY4FJ7130360528   30360528   549930360528303605280238959Foodpanda Myanmar        Kuala LumpurMYS000000000000000000000000000115200900029160104   29160104   007            005282101100   1000011     01200 0000000002588407000542200000047500010430001000C0000000000384030001000CUPF                                       
100C0006291102820242138   0000006545001040713131505141478477380071378NMW5J0XL9K30360528   30360528   549930360528303605280238959Foodpanda Myanmar        Kuala LumpurMYS000000000000000000000000000114147800029160104   29160104   007            005282101100   1000011     01200 0000000003558407000542200000065450010430001000C0000000000484030001000CUPF                                       
100C0006244310037686546   000000325000104071310455022157191039107136MRX9CVZ5BIH30360528   30360528   549930360528303605280238959Foodpanda Myanmar        Kuala LumpurMYS000000000000000000000000000122157100029160104   29160104   007            005282101300   1000021     01200 0000000001768407000542200000032500010430001000C0000000000284030001000CUPF                                       
100C0006291102820215019   000000340000104071317430523377647738007136K1GK0B3OZ0730360528   30360528   549930360528303605280238959Foodpanda Myanmar        Kuala LumpurMYS000000000000000000000000000123377600029160104   29160104   007            005282101100   1000011     01200 0000000001848407000542200000034000010430001000C0000000000284030001000CUPF                                       
100E0006291102820277472   0000002993136080712074029000008477380071221932762828127240608   27240608   541110024494724060880542854WALTERMART DASMARINAS    CAVITE      PHL000000000000000000000000000100000800029160104   29160104   003            006080100108   0000011     05100 0000000053348407017820200001014458310453389289C0000000000884030001000CUPF                                       21D2ADC805D9262905100050E0E0C80080048000D4361AF83132333407210103A0200201                                                001D7C00220712608                                            000000002993136088000000000000002030022A000000333010101                0020000002                                
100C0006244310102082969   0000000017648400712190806762033793796071221931076203326480840   26480840   581200000001601103019138787UBER   * EATS PENDING    SAN FRANCISCUSA000000000000000000000000000176203300029160104   29160104   007            008400101400   1000021     01200 0000000017648403000100000000327319010431855550C0000000001884030001000CUPF                                       
100C0006244310102082969   0000000003008400712203853570934354056071221931157093426480840   26480840   581200000001601103019138787UBER   *EATS             SAN FRANCISCUSA000000000000000000000000000157093400029160104   29160104   007            008400101400   1000021     01200 0000000003008403000100000000055666510431855550C0000000000384030001000CUPF                                       
