100E0006244310034800660   0000000010507020803152927166934638056080322080316693426940702   48000702   541146332887694070233530119FAIRPRICE FINEST-MRN PR  Singapore   SGP000000000000000000000000000016693400029160104   29160104   003            007021101308   0000021     07200 0000000007628407725582500000141367310431346355C0000000000284030001000CUPF                                       B24B3F9407BC8524072001600068C8000000000016392D2B        07010103A0000001                                                00217C00220803702                                          0000000000001050702800000000000001F000022A000000333010102                                                          
100E0006244310034800660   0000000017707020803142612165922074234080322080316592226940702   48000702   531195338242694070233597414MARKS & SPENCER-PWP      Singapore   SGP000000000000000000000000000016592200029160104   29160104   003            007021101308   0000021     07200 0000000012848407725582500000238304810431346355C0000000000384030001000CUPF                                       A2F7B6BDED50FEF3072001600068C80000000000328C0FFC        07010103A0000001                                                00207C00220803702                                          000000000000177070280000000000000      22A000000333010102                                                          
100C0006291102820242138   0000007735001040802103955156051477380080275X66TS58E3W30360528   30360528   549930360528303605280238959Foodpanda Myanmar        Kuala LumpurMYS000000000000000000000000000115605100029160104   29160104   007            005282101100   1000011     01200 0000000004198407000542200000077350010430001000C0000000000484030001000CUPF                                       
100C0006291102820242138   000000565000104080208400522249547738008026MRX9DPZY6PZ30360528   30360528   549930360528303605280238959Foodpanda Myanmar        Kuala LumpurMYS000000000000000000000000000122249500029160104   29160104   007            005282101100   1000011     01200 0000000003068407000542200000056500010430001000C0000000000384030001000CUPF                                       
100C0006291102820236031   0000006510001040803142543156843477380080375X66TS58MF230360528   30360528   412130360528303605280001399Grab* A-3PM8AV2WWGK3     Singapore   SGP000000000000000000000000000115684300029160104   29160104   007            005282101100   1000011     01200 0000000003538407000542200000065100010430001000C0000000000484030001000CUPF                                       
100C0006291102820242138   0000004250001040802153935158758477380080275X66TS58G6U30360528   30360528   549930360528303605280238959Foodpanda Myanmar        Kuala LumpurMYS000000000000000000000000000115875800029160104   29160104   007            005282101100   1000011     01200 0000000002308407000542200000042500010430001000C0000000000284030001000CUPF                                       
100C0006291102820266517   0000004850001040802192600150827477380080275X66TS58HS730360528   30360528   549930360528303605280238959Foodpanda Myanmar        Kuala LumpurMYS000000000000000000000000000115082700029160104   29160104   007            005282101100   1000011     01200 0000000002638407000542200000048500010430001000C0000000000384030001000CUPF                                       
100C0006291102820242138   0000004450001040802154717140052477380080278NMW6D1TB3830360528   30360528   549930360528303605280238959Foodpanda Myanmar        Kuala LumpurMYS000000000000000000000000000114005200029160104   29160104   007            005282101100   1000011     01200 0000000002418407000542200000044500010430001000C0000000000284030001000CUPF                                       
100E0006244310032298669   0000014000001040802205626000026586659080222080219562634790104   34790104   591210001908000001000025021LIFE PLUS 42             Hlaing      MMR000000000000000000000000000100002600029160104   29160104   003            001040100321   0000021     07200 0000000007598407000542200000140000010430001000C0000000000884030001000CUPF                                       261D31E84283DCDB07210060E060C800000000006E975E182219230007010103A0000001                                                00227C00220802104                                          0000000001400000104800000000000001F000022A000000333010102                    0000                                  
100C0006244310102082969   0000000000358400801234240761261609194080122131476126126480840   26480840   412100000001601103011637836UBER   *TRIP             SAN FRANCISCUSA000000000000000000000000000176126100029160104   29160104   007            008400101400   1000021     01200 0000000000358403000100000000006494410431855550D0000000000084030001000CUPF                                       
100C0006244310102082969   0000000041698400801224918701419338265080122131370141926480840   26480840   412100000001601103011637836UBR* PENDING.UBER.COM    SAN FRANCISCUSA000000000000000000000000000170141900029160104   29160104   007            008400101400   1000021     01200 0000000041698403000100000000773578810431855550C0000000004284030001000CUPF                                       
100C0006244310105494609   0000000017178400801230902352554668761080122131435255426480840   26480840   412100000001601103011637836UBR* PENDING.UBER.COM    SAN FRANCISCUSA000000000000000000000000000135255400029160104   29160104   007            008400101400   1000021     01200 0000000017178403000100000000318597910431855550C0000000001784030001000CUPF                                       
100C0006291102820207545   0000001020607640803180314005136477380080300000548552031000764   31000764   5999100229867647640010014562C2P*CENTRAL.CO.TH     BANGKOK       THA000000000000000000000000000100513600029160104   29160104   007F           007642100100   0700011     01200 0000000028358407027774600000539138610455282565C0000000002884030001000CUPF                                       
100C0006244310034800660   0000000047807020803060628098900362183080322150609890040850702   40530036   5399C1KQZN5Z3TNLMP3MX7OZHASAMAZON SG                SINGAPORE   SGP000000000000000000000000000109890000029160104   29160104   007F           007022101300   1000021     01200 0000000034688407725582500000643557710431346355C0000000003584030001000CUPF                                       
