100E0006244310030071258   0000006122007640728173934286943044255072822091728694334300764   34300764   569190100093451005382871001UNIQLO-EMQUARTIER        BANGKOK     THA000000000000000000000000000128694300029160104   29160104   003F           007641100308   0000021     05200 0000000167838407027414800003114228310455086946C0000000003484030001000CUPF                                       7B482598EBD7C7FC05200150E0F8C8008000E0006B635D16123456780701010360200201                                                00057C00220728764                                          0000000000612200764400000000000001E030022A000000333010102                002000002900                              
100E0006244310030071258   0000004740007640728182511979271278155072822091897927134300764   34300764   569190100095451005382871001UNIQLO-EMQUARTIER        BANGKOK     THA000000000000000000000000000197927100029160104   29160104   003F           007641100308   0000021     05200 0000000129958407027414800002411212410455086946C0000000002684030001000CUPF                                       03548FA47337B0D505200150E0F8C8008000E000C7D1E3C7123456780701010360200201                                                00067C00220728764                                          0000000000474000764400000000000001E030022A000000333010102                002000001500                              
100E0006244310030071258   0000001581007640728205217527086659319072822092052708634300764   34300764   581290274048401013081120001PONN - TERMINAL 21 ASOKE BANGKOK     THA000000000000000000000000000152708600029160104   29160104   003F           007641100308   0000021     05200 0000000043348407027414800000804246210455086946C0000000000984030001000CUPF                                       FD5B7F267BEF040D05200150E0F8C8008000E00026826932123456780701010360200201                                                00087C00220728764                                          0000000000158100764400000000000001E030022A000000333010102                002000001000                              
100C0006244310031511047   0000003500001040727111645156422692834072775X66TIBNNT730360528   30360528   549930360528303605280238959Foodpanda Myanmar        Kuala LumpurMYS000000000000000000000000000115642200029160104   29160104   007            005282101300   1000021     01200 0000000001908407000542200000035000010430001000C0000000000284030001000CUPF                                       
100C0006244310037483134   0000016100001040727184800150579245389072775X66TIBNR0J30360528   30360528   549930360528303605280238959Foodpanda Myanmar        Kuala LumpurMYS000000000000000000000000000115057900029160104   29160104   007            005282101300   1000021     01200 0000000008738407000542200000161000010430001000C0000000000984030001000CUPF                                       
100C0006291102820242138   0000005100001040727143112158349477380072776GV4OTP6SI630360528   30360528   549930360528303605280238959Foodpanda Myanmar        Kuala LumpurMYS000000000000000000000000000115834900029160104   29160104   007            005282101100   1000011     01200 0000000002778407000542200000051000010430001000C0000000000384030001000CUPF                                       
100C0006291102820244068   0000006470001040727122432157111477380072775X66TIBNOCC30360528   30360528   549930360528303605280238959Foodpanda Myanmar        Kuala LumpurMYS000000000000000000000000000115711100029160104   29160104   007            005282101100   1000011     01200 0000000003518407000542200000064700010430001000C0000000000484030001000CUPF                                       
100C0006291102820242138   0000004650001040727180542146738477380072778NMW6353ZWH30360528   30360528   549930360528303605280238959Foodpanda Myanmar        Kuala LumpurMYS000000000000000000000000000114673800029160104   29160104   007            005282101100   1000011     01200 0000000002528407000542200000046500010430001000C0000000000384030001000CUPF                                       
100C0006244310033813987   000001185000104072716434923418786740007276K1GK0V9KWHA30360528   30360528   549930360528303605280238959Foodpanda Myanmar        Kuala LumpurMYS000000000000000000000000000123418700029160104   29160104   007            005282101300   1000021     01200 0000000006438407000542200000118500010430001000C0000000000684030001000CUPF                                       
100C0006244310033813987   0000016410001040727090706155602943179072775X66TIBNN6G30360528   30360528   549930360528303605280238959Foodpanda Myanmar        Kuala LumpurMYS000000000000000000000000000115560200029160104   29160104   007            005282101300   1000021     01200 0000000008908407000542200000164100010430001000C0000000000984030001000CUPF                                       
100C0006244310102082969   0000000026098400727004847541125265166072722071554112526480840   26480840   581200000001601103019138787UBER   * EATS PENDING    SAN FRANCISCUSA000000000000000000000000000154112500029160104   29160104   007            008400101400   1000021     01200 0000000026098403000100000000484113010431855550C0000000002684030001000CUPF                                       
100C0006244310102082969   0000000005248400727023053540531934669072722071754053126480840   26480840   581200000001601103019138787UBER   *EATS             SAN FRANCISCUSA000000000000000000000000000154053100029160104   29160104   007            008400101400   1000021     01200 0000000005248403000100000000097230810431855550C0000000000584030001000CUPF                                       
100C0006244310102082969   0000000003008400727112547500828231128072722070250082826480840   26480840   581200000001601103019138787UBER   *EATS             SAN FRANCISCUSA000000000000000000000000000150082800029160104   29160104   007            008400101400   1000021     01200 0000000003008403000100000000055666510431855550C0000000000384030001000CUPF                                       
100C0006244310102082969   0000000017748400727095701350817951689072722070035081726480840   26480840   581200000001601103019138787UBER   * EATS PENDING    SAN FRANCISCUSA000000000000000000000000000135081700029160104   29160104   007            008400101400   1000021     01200 0000000017748403000100000000329174610431855550C0000000001884030001000CUPF                                       
100C0006244310105494609   0000000017818400727001424332473273676072722071533247326480840   26480840   412100000001601103011637836UBR* PENDING.UBER.COM    SAN FRANCISCUSA000000000000000000000000000133247300029160104   29160104   007            008400101400   1000021     01200 0000000017818403000100000000330473510431855550C0000000001884030001000CUPF                                       
100C0006244310105494609   0000000031888400726230743009004002746072622070000900426480840   26480840   481412345678601110402336258VESTA  *AT&T PREPAID     866-608-3007USA000000000000000000000000000100900400029160104   29160104   007            008400101400   1000021     01200 0000000031888403000100000000591549310431855550C0000000003284030001000CUPF                                       
100E0006244310030071258   0000000590007640728191803023676134715072822091102367626760764   26760764   562124860707002201791035   ZARA EMQUARTIER          BANGKOK     THA000000000000000000000000000102367600029160104   29160104   003            007640100308   0000021     05200 0000000016178407027414800000300129810455086946C0000000000384030001000CUPF                                       D4BBD157E1B31C0705200150E0F0C8008000E000D770447C9324880907010103A0200201                                                00077C00220728764                                          0000000000059000764800000000000001E030022A000000333010102                003200023676                              
100E0006244310030071258   0000001950007640728132815067380457558072822090506738026760764   26760764   806224833809002220032072   BUMRUNGRAD HOSPITAL      BANGKOK     THA000000000000000000000000000106738000029160104   29160104   003            007640100308   0000021     05200 0000000053468407027414800000991954510455086946C0000000001184030001000CUPF                                       366246A20DDC8A6505200150E0F0C8008000E0009233C35E9014238707010103A0200201                                                00047C00220728764                                          0000000000195000764800000000000001E030022A000000333010102                003200067380                              
