100C0006291102820255809   00000000049984008040557514631684773800804XAgnYaBo1oGP28000392   00049992   539901080209800039253992034Xsolla Inc                              000000000000000000000000000046316800029160104   29160104   007            003922101100   0900011     01200 0000000004998403000100000000094906810431901939C0000000000584030001000CUPF                                       
100C0006291102820255809   00000000049984008042050465296374773800804H43LbXJq2SN228000392   00049992   539901080209800039253992034Xsolla Inc                              000000000000000000000000000052963700029160104   29160104   007            003922101100   0900011     01200 0000000004998403000100000000094906810431901939C0000000000584030001000CUPF                                       
100C0006291102820242138   0000010960001040803103143146088477380080378NMW6D1TFQP30360528   30360528   549930360528303605280238959Foodpanda Myanmar        Kuala LumpurMYS000000000000000000000000000114608800029160104   29160104   007            005282101100   1000011     01200 0000000005948407000542200000109600010430001000C0000000000684030001000CUPF                                       
100C0006291102820236031   000000630000104080412461122239347738008046MRX9DPZYECG30360528   30360528   412130360528303605280001399Grab* A-3PQ6VRMGWGEQ     Singapore   SGP000000000000000000000000000122239300029160104   29160104   007            005282101100   1000011     01200 0000000003428407000542200000063000010430001000C0000000000384030001000CUPF                                       
101C0006291102820242138   0000001870001040804232716111950477380080275X66TS58E3W30360528   30360528   549930360528303605280238959Foodpanda Myanmar        Kuala LumpurMYS100080210395515605108020000111195000029160104   29160104   007 000        005282101100   0000011     01200 0000000001018407000542200000018700010430001000D0000000000184030001000CUPF                                       
100C0006244310031624030   0000013350001040803084953145384562509080378NMW6D1TF7530360528   30360528   549930360528303605280238959Foodpanda Myanmar        Kuala LumpurMYS000000000000000000000000000114538400029160104   29160104   007            005282101300   1000021     01200 0000000007248407000542200000133500010430001000C0000000000784030001000CUPF                                       
100C0006244310037483134   0000024445001040803173945158451594129080375X66TS58NNO30360528   30360528   549930360528303605280238959Foodpanda Myanmar        Kuala LumpurMYS000000000000000000000000000115845100029160104   29160104   007            005282101300   1000021     01200 0000000013258407000542200000244450010430001000C0000000001384030001000CUPF                                       
100C0006291102820203056   0000006300001040804105449153461477380080475X66TS58RIT30360528   30360528   412130360528303605280001399Grab* A-3PPSPKVGWGB7     Singapore   SGP000000000000000000000000000115346100029160104   29160104   007            005282101100   1000011     01200 0000000003428407000542200000063000010430001000C0000000000384030001000CUPF                                       
100C0006244310034800660   0000000017927020803200741343907507503080422152034390740850702   40530036   5399C1KQZN5Z3TNLMP3MX7OZHASAMAZON SG                SINGAPORE   SGP000000000000000000000000000134390700029160104   29160104   007F           007022101300   1000021     01200 0000000013028407726554600000241589910431348158C0000000001384030001000CUPF                                       
100C0006244310034800660   0000000017927020804004524343981337310080422160034398140850702   40530036   5399C1KQZN5Z3TNLMP3MX7OZHASAMAZON SG                SINGAPORE   SGP000000000000000000000000000134398100029160104   29160104   007F           007022101300   1000021     01200 0000000013028407726554600000241589910431348158C0000000001384030001000CUPF                                       
100C0006244310034800660   0000000020617020804004636465651074894080422160046565140850702   40530036   5399C1KQZN5Z3TNLMP3MX7OZHASAMAZON SG                SINGAPORE   SGP000000000000000000000000000146565100029160104   29160104   007F           007022101300   1000021     01200 0000000014978407726554600000277855410431348158C0000000001584030001000CUPF                                       
100E0006244310031609916   0000001461757640804192136000049729230080422161100004926760764   26760764   541124717526002201460326   LOTUS'S 5098 KHONKAEN    KHONKAEN    THA000000000000000000000000000100004900029160104   29160104   003            007640100308   0000021     05200 0000000040598407027770800000753241210455153010C0000000000884030001000CUPF                                       4D3E1803B85A664305200150E0F8C8008000E8007CF8B8FB5019641307010103A0200201                                                004A7C00220804764                                          0000000000146175764800000000000001E030022A000000333010102                003200000328                              
100C0006244310102082969   0000000005008400803092829352995571018080322140035299526480840   26480840   581200000001601103019138787UBER   *EATS             SAN FRANCISCUSA000000000000000000000000000135299500029160104   29160104   007            008400101400   1000021     01200 0000000005008403000100000000092777510431855550C0000000000584030001000CUPF                                       
100C0006244310102082969   0000000030868400803075603701065925665080322142270106526480840   26480840   581200000001601103019138787UBER   * EATS PENDING    SAN FRANCISCUSA000000000000000000000000000170106500029160104   29160104   007            008400101400   1000021     01200 0000000030868403000100000000572622710431855550C0000000003184030001000CUPF                                       
100C0006244310102082969   0000000010538400803074910380956760417080322142238095626480840   26480840   581200000001601103019138787UBER   * EATS PENDING    SAN FRANCISCUSA000000000000000000000000000138095600029160104   29160104   007            008400101400   1000021     01200 0000000010538403000100000000195389410431855550C0000000001184030001000CUPF                                       
100C0006244310102082969   0000000002008400803090736881339405770080322140088133926480840   26480840   581200000001601103019138787UBER   *EATS             SAN FRANCISCUSA000000000000000000000000000188133900029160104   29160104   007            008400101400   1000021     01200 0000000002008403000100000000037111010431855550C0000000000284030001000CUPF                                       
100C0006291102820207545   0000000994007640804113135005140477380080400000549113331000764   31000764   5999100229867647640010014562C2P*CENTRAL.CO.TH     BANGKOK       THA000000000000000000000000000100514000029160104   29160104   007F           007642100100   0700011     01200 0000000027608407027770800000525014410455281835C0000000002884030001000CUPF                                       
100C0006291102820207545   0000001836007640804122939005141477380080400000549190531000764   31000764   5999100229867647640010014562C2P*CENTRAL.CO.TH     BANGKOK       THA000000000000000000000000000100514100029160104   29160104   007F           007642100100   0700011     01200 0000000050998407027770800000969744910455281835C0000000005184030001000CUPF                                       
