100C0006244310034800660   0000000012347020730175307461106569957073122111746110640850702   40530036   5999VVGBNZ07R3OK2UGQQFUFIIQAMAZON RETAIL SG         SINGAPORE   SGP000000000000000000000000000146110600029160104   29160104   007F           007022101300   1000021     01200 0000000008978407727134200000166495510431349234C0000000000984030001000CUPF                                       
100C0006244310034800660   0000000206997020730090150706808532353073022110970680840850702   40530036   5399C1KQZN5Z3TNLMP3MX7OZHASAMAZON SG                SINGAPORE   SGP000000000000000000000000000170680800029160104   29160104   007F           007022101300   1000021     01200 0000000150518407727134200002792779510431349234C0000000015184030001000CUPF                                       
100E0006244310032049740   0000000980007640730141544301001741234073022111430100134300764   34300764   569190100051451005382716001UNIQLO-SIAM PARAGON      BANGKOK     THA000000000000000000000000000130100100029160104   29160104   003F           007641100308   0000021     05200 0000000027058407027599200000501874710455121170C0000000000584030001000CUPF                                       CCA6E891058469A905200150E0F8C8008000E0001816BDE3123456780701010360200201                                                00437C00220730764                                          0000000000098000764400000000000001E030022A000000333010102                002000001500                              
100C0006244310033813987   0000009600001040731162044154666457953073175X66TIBOH9K30360528   30360528   549930360528303605280238959Foodpanda Myanmar        Kuala LumpurMYS000000000000000000000000000115466600029160104   29160104   007            005282101300   1000021     01200 0000000005218407000542200000096000010430001000C0000000000584030001000CUPF                                       
100C0006291102820215001   0000003850001040730144914155154477380073075X66TIBO9XJ30360528   30360528   549930360528303605280238959Foodpanda Myanmar        Kuala LumpurMYS000000000000000000000000000115515400029160104   29160104   007            005282101100   1000011     01200 0000000002098407000542200000038500010430001000C0000000000284030001000CUPF                                       
100C0006291102820242138   0000005992501040730161748155952477380073075X66TIBOAJO30360528   30360528   549930360528303605280238959Foodpanda Myanmar        Kuala LumpurMYS000000000000000000000000000115595200029160104   29160104   007            005282101100   1000011     01200 0000000003258407000542200000059925010430001000C0000000000384030001000CUPF                                       
100E0006244310105494609   0000000031248400730060135000848795857073022101429580226480840   26480840   549995821553601132006710506MARKET STREET MARKET     LOWELL      USA000000000000000000000000000100084800029160104   29160104   003            008400101400   0000021     05200 0000000031248403000100000000579673810431855550C0000000000684030001000CUPF                                                       052000                                                                                                                                                                                                                                                                                
