100C0006291102820202363   0000006090001040722191144148144477380072278NMW5T9ABGM30360528   30360528   549930360528303605280238959Foodpanda Myanmar        Kuala LumpurMYS000000000000000000000000000114814400029160104   29160104   007            005282101100   1000011     01200 0000000003308407000542200000060900010430001000C0000000000384030001000CUPF                                       
100C0006244310036366868   0000006330001040722123453144520039329072278NMW5T9A8OO30360528   30360528   549930360528303605280238959Foodpanda Myanmar        Kuala LumpurMYS000000000000000000000000000114452000029160104   29160104   007            005282101300   1000021     01200 0000000003438407000542200000063300010430001000C0000000000384030001000CUPF                                       
100C0006244310031511047   0000003500001040722103710143451267711072278NMW5T9A7UZ30360528   30360528   549930360528303605280238959Foodpanda Myanmar        Kuala LumpurMYS000000000000000000000000000114345100029160104   29160104   007            005282101300   1000021     01200 0000000001908407000542200000035000010430001000C0000000000284030001000CUPF                                       
100C0006244310036366868   000000540000104072220010422132546780507226MRX9D67GFKP30360528   30360528   549930360528303605280238959Foodpanda Myanmar        Kuala LumpurMYS000000000000000000000000000122132500029160104   29160104   007            005282101300   1000021     01200 0000000002938407000542200000054000010430001000C0000000000384030001000CUPF                                       
100C0006244310036366868   0000008800001040722165224155114142824072275X66T8CSFA230360528   30360528   549930360528303605280238959Foodpanda Myanmar        Kuala LumpurMYS000000000000000000000000000115511400029160104   29160104   007            005282101300   1000021     01200 0000000004778407000542200000088000010430001000C0000000000584030001000CUPF                                       
100C0006291102820246410   000000475000104072218251123113047738007226K1GK0LBZM4C30360528   30360528   549930360528303605280238959Foodpanda Myanmar        Kuala LumpurMYS000000000000000000000000000123113000029160104   29160104   007            005282101100   1000011     01200 0000000002588407000542200000047500010430001000C0000000000384030001000CUPF                                       
100C0006291102820213394   0000010250001040722183154147680477380072278NMW5T9AB3Q30360528   30360528   549930360528303605280238959Foodpanda Myanmar        Kuala LumpurMYS000000000000000000000000000114768000029160104   29160104   007            005282101100   1000011     01200 0000000005568407000542200000102500010430001000C0000000000684030001000CUPF                                       
101C0006244310036366868   0000006300001040723232732117979978954072178NMW5T9A2FU30360528   30360528   549930360528303605280238959Foodpanda Myanmar        Kuala LumpurMYS100072113494814632107210000111797900029160104   29160104   007 000        005282101300   0000021     01200 0000000003428407000542200000063000010430001000D0000000000384030001000CUPF                                       
100C0006244310031624030   0000006800001040722090526151227136500072275X66T8CSCAO30360528   30360528   549930360528303605280238959Foodpanda Myanmar        Kuala LumpurMYS000000000000000000000000000115122700029160104   29160104   007            005282101300   1000021     01200 0000000003698407000542200000068000010430001000C0000000000484030001000CUPF                                       
100C0006244310102082969   0000000068828400722043918330234318768072222021933023426480840   26480840   412100000001601103011637836UBR* PENDING.UBER.COM    SAN FRANCISCUSA000000000000000000000000000133023400029160104   29160104   007            008400101400   1000021     01200 0000000068828403000100000001276989510431855550C0000000006984030001000CUPF                                       
100C0006244310102082969   0000000008298400722095049880685640755072222020088068526480840   26480840   581200000001601103019138787UBER   *EATS             SAN FRANCISCUSA000000000000000000000000000188068500029160104   29160104   007            008400101400   1000021     01200 0000000008298403000100000000153825110431855550C0000000000884030001000CUPF                                       
100C0006244310102082969   0000000041718400722083704382168806004072222022338216826480840   26480840   581200000001601103019138787UBER   * EATS PENDING    SAN FRANCISCUSA000000000000000000000000000138216800029160104   29160104   007            008400101400   1000021     01200 0000000041718403000100000000773949910431855550C0000000004284030001000CUPF                                       
100E0006244310105494609   0000000046188400722033010000831153520072222023555914026480840   26480840   549995821553601132006710506MARKET STREET MARKET     LOWELL      USA000000000000000000000000000100083100029160104   29160104   003            008400101400   0000021     05200 0000000046188403000100000000856893010431855550C0000000000984030001000CUPF                                                       052000                                                                                                                                                                                                                                                                                
100E0006244310037271828   0000000590007640722123635334307708832072222031233430734300764   34300764   569190100038451005382708001UNIQLO-MEGA BANGNA       SAMUTPRAKAN THA000000000000000000000000000133430700029160104   29160104   003F           007641100308   0000021     05200 0000000016118407027299300000298866210455065528C0000000000384030001000CUPF                                       24225EEB0C41EFC105200150E0F8C8008000E000C5975C08123456780701010360200201                                                00117C00220722764                                          0000000000059000764400000000000001E030022A000000333010102                002000000700                              
100E0006244310030604546   0000025150001040723192058982461584754072322041998246142480104   42480104   541120000553000000010000465Corner of Shwe Gone Daing & Banyar Da   000000000000000000000000000198246100029160104   29160104   003            001040100321   0000021     07200 0000000013648407000542200000251500010430001000C0000000000284030001000CUPF                                       64CA730E82DCF8E007200150E0F0C70000000000A9248E6E4341313107010103A0000001                                                00077C00220723104                                          000000000251500010480000000000000      22A000000333010102                0030005454                                
