100C0006291102820255809   00000000049984007300401509155064773800730E3V2F5hn4HjL28000392   00049992   539901080209800039253992034Xsolla Inc                              000000000000000000000000000091550600029160104   29160104   007            003922101100   0900011     01200 0000000004998403000100000000094906810431901939C0000000000584030001000CUPF                                       
100C0006291102820222247   0000011130001040729122933154973477380072975X66TIBO23730360528   30360528   549930360528303605280238959Foodpanda Myanmar        Kuala LumpurMYS000000000000000000000000000115497300029160104   29160104   007            005282101100   1000011     01200 0000000006038407000542200000111300010430001000C0000000000684030001000CUPF                                       
100C0006291102820215019   0000009240001040730151910141731477380073078NMW6354J5I30360528   30360528   412130360528303605280001399Grab* A-3P5PK7SWWJBB     Singapore   SGP000000000000000000000000000114173100029160104   29160104   007            005282101100   1000011     01200 0000000005018407000542200000092400010430001000C0000000000584030001000CUPF                                       
100C0006244310032298669   0000006160001040729150033156338544705072975X66TIBO35230360528   30360528   549930360528303605280238959Foodpanda Myanmar        Kuala LumpurMYS000000000000000000000000000115633800029160104   29160104   007            005282101300   1000021     01200 0000000003348407000542200000061600010430001000C0000000000384030001000CUPF                                       
100C0006244310106446681   000003984000104072913430522076485323807296MRX9DG47N3M30360528   30360528   549930360528303605280238959Foodpanda Myanmar        Kuala LumpurMYS000000000000000000000000000122076400029160104   29160104   007            005282101400   1000021     01200 0000000021608407000542200000398400010430001000C0000000002284030001000CUPF                                       
100C0006244310031624030   0000008500001040729190918144906286657072978NMW6354DW130360528   30360528   549930360528303605280238959Foodpanda Myanmar        Kuala LumpurMYS000000000000000000000000000114490600029160104   29160104   007            005282101300   1000021     01200 0000000004618407000542200000085000010430001000C0000000000584030001000CUPF                                       
100C0006291102820242138   0000003952501040730182759157088477380073075X66TIBOBF730360528   30360528   549930360528303605280238959Foodpanda Myanmar        Kuala LumpurMYS000000000000000000000000000115708800029160104   29160104   007            005282101100   1000011     01200 0000000002148407000542200000039525010430001000C0000000000284030001000CUPF                                       
100C0006244310102082969   0000000004008400729045651820984148272072922091982098426480840   26480840   581200000001601103019138787UBER   *EATS             SAN FRANCISCUSA000000000000000000000000000182098400029160104   29160104   007            008400101400   1000021     01200 0000000004008403000100000000074222010431855550C0000000000484030001000CUPF                                       
100C0006244310102082969   0000000013818400729032505882844495785072922091888284426480840   26480840   581200000001601103021989771UBER   *PUNJABPALACE     SAN FRANCISCUSA000000000000000000000000000188284400029160104   29160104   007            008400101400   1000021     01200 0000000013818403000100000000256251510431855550C0000000001484030001000CUPF                                       
100C0006244310102082969   0000000019108400729100706330519517178072922090133051926480840   26480840   581200000001601103019138787UBER   * EATS PENDING    SAN FRANCISCUSA000000000000000000000000000133051900029160104   29160104   007            008400101400   1000021     01200 0000000019108403000100000000354410110431855550C0000000001984030001000CUPF                                       
100C0006244310102082969   0000000004008400729113531701668361011072922090270166826480840   26480840   581200000001601103019138787UBER   *EATS             SAN FRANCISCUSA000000000000000000000000000170166800029160104   29160104   007            008400101400   1000021     01200 0000000004008403000100000000074222010431855550C0000000000484030001000CUPF                                       
100E0006244310032049740   0000000069007640730133956018794889463073022110501879426760764   26760764   541126117065002201020880   SIAM PARAGON SUP.        BANGKOK     THA000000000000000000000000000101879400029160104   29160104   003            007640100308   0000021     05200 0000000001908407027599200000035336110455121170D0000000000084030001000CUPF                                       D4F48E7F112C98EB05200150E0F0C8008000E00042681F45CA8E105607010103A0200201                                                00427C00220730764                                          0000000000006900764800000000000001E030022A000000333010102                003200018794                              
100E0006244310032049740   0000000200007640730145109001138108251073022110600113826760764   26760764   581424860292002201554755   TLR(TRUE STADIUM SIAM    BANGKOK     THA000000000000000000000000000100113800029160104   29160104   003            007640100308   0000021     05200 0000000005528407027599200000102423410455121170C0000000000184030001000CUPF                                       C521362A2923851505200150E0F0C8008000E000F59DFE069324508107010103A0200201                                                00447C00220730764                                          0000000000020000764800000000000001E030022A000000333010102                003200001138                              
