100E0006244310032049740   0000000694007640802182212126451781001080222141812645134300764   34300764   541188059844451005566352001TOPS-EMPIRE              BANGKOK     THA000000000000000000000000000112645100029160104   29160104   003F           007641100308   0000021     05200 0000000019318407027828500000358361510455163711C0000000000484030001000CUPF                                       E93AA63AE957978805200150E0F0C8080000E000F78CE24C1240095207010103A0200001                                                00487C00220802764                                          0000000000069400764800000000000001E030022A000000333010102                003000058789                              
100E0006244310032049740   0000000040007640801194728680238651742080122131968023837860764   37860764   541117212664541100943701100Thai Smart Card Company Limited         000000000000000000000000000168023800029160104   29160104   003            007640100308   0000021     05200 0000000001118407027698100000020558110455139518D0000000000084030001000CUPF                                       B1C766739B39829105200150E0F8C8008000E000956C74FB324D363407010103A0200201                                                00457C00220801764                                          0000000000000000764800000000000001E030022A000000333010102                002000006588                              
100C0006291102820231008   0000004050001040801152622149908477380080178NMW6354X5T30360528   30360528   549930360528303605280238959Foodpanda Myanmar        Kuala LumpurMYS000000000000000000000000000114990800029160104   29160104   007            005282101100   1000011     01200 0000000002208407000542200000040500010430001000C0000000000284030001000CUPF                                       
100C0006291102820203056   000000750750104080211311522311247738008026MRX9DPZY77330360528   30360528   412130360528303605280001399Grab* A-3PHOERWWWFCB     Singapore   SGP000000000000000000000000000122311200029160104   29160104   007            005282101100   1000011     01200 0000000004078407000542200000075075010430001000C0000000000484030001000CUPF                                       
100C0006291102820231008   0000004450001040801190703151304477380080175X66TS58AGA30360528   30360528   549930360528303605280238959Foodpanda Myanmar        Kuala LumpurMYS000000000000000000000000000115130400029160104   29160104   007            005282101100   1000011     01200 0000000002418407000542200000044500010430001000C0000000000284030001000CUPF                                       
100C0006291102820231008   0000004000001040801191518142680477380080178NMW6D1T5EU30360528   30360528   549930360528303605280238959Foodpanda Myanmar        Kuala LumpurMYS000000000000000000000000000114268000029160104   29160104   007            005282101100   1000011     01200 0000000002178407000542200000040000010430001000C0000000000284030001000CUPF                                       
100C0006244310034042263   0000017170001040801132242152247320183080175X66TIBON3X30360528   30360528   549930360528303605280238959Foodpanda Myanmar        Kuala LumpurMYS000000000000000000000000000115224700029160104   29160104   007            005282101300   1000021     01200 0000000009318407000542200000171700010430001000C0000000000984030001000CUPF                                       
100C0006291102820244068   000001680000104080110433622346047738008016MRX9DG47WVT30360528   30360528   549930360528303605280238959Foodpanda Myanmar        Kuala LumpurMYS000000000000000000000000000122346000029160104   29160104   007            005282101100   1000011     01200 0000000009118407000542200000168000010430001000C0000000000984030001000CUPF                                       
100C0006244310032298669   0000061200001040802122713156982450269080275X66TS58ETO30360528   30360528   412130360528303605280001399Grab* A-3PHTIQRWWF79     Singapore   SGP000000000000000000000000000115698200029160104   29160104   007            005282101300   1000021     01200 0000000033188407000542200000612000010430001000C0000000003384030001000CUPF                                       
100C0006291102820207545   0000000400007640802202506001266477380080200000547618531000764   31000764   5137200006167647640010019582C2P*H AND M           BANGKOK       THA000000000000000000000000000100126600029160104   29160104   007F           007642100100   0900011     01200 0000000011138407027828500000211712110455292803C0000000001184030001000CUPF                                       
100C0006291102820207545   0000000800007640802203431005129477380080200000547626831000764   31000764   5999100229867647640010014562C2P*CENTRAL.CO.TH     BANGKOK       THA000000000000000000000000000100512900029160104   29160104   007F           007642100100   0900011     01200 0000000022268407027828500000423424210455292803C0000000002284030001000CUPF                                       
