100E0006244310034800660   0000000029657020729113128043126449720072922072904312626940702   48000702   541146332803694070233530233FAIRPRICE FINEST-BEDOK MLSingapore   SGP000000000000000000000000000004312600029160104   29160104   003            007021101308   0000021     05200 0000000021568407727134200000400047910431349234C0000000000484030001000CUPF                                       97779F204E8256A305200150E0F0C8008000E00062118F85        07010103A0200201                                                001C7C00220729702                                          0000000000002965702800000000000001E030022A000000333010102                002000002940                              
100C0006244310032311710   0000002250001040728140752157115729867072875X66TIBNW1Q30360528   30360528   549930360528303605280238959Foodpanda Myanmar        Kuala LumpurMYS000000000000000000000000000115711500029160104   29160104   007            005282101300   1000021     01200 0000000001228407000542200000022500010430001000C0000000000184030001000CUPF                                       
100C0006291102820236031   000000504900104072915563622150447738007296MRX9DG47NO530360528   30360528   412130360528303605280001399Grab* A-3P2XD8CWWHWC     Singapore   SGP000000000000000000000000000122150400029160104   29160104   007            005282101100   1000011     01200 0000000002748407000542200000050490010430001000C0000000000384030001000CUPF                                       
100C0006244310034064838   000000575000104072812511422610214821807286MRX9DG47JI730360528   30360528   549930360528303605280238959Foodpanda Myanmar        Kuala LumpurMYS000000000000000000000000000122610200029160104   29160104   007            005282101300   1000021     01200 0000000003128407000542200000057500010430001000C0000000000384030001000CUPF                                       
100C0006291102820244068   0000002950001040728125507156350477380072875X66TIBNVGH30360528   30360528   549930360528303605280238959Foodpanda Myanmar        Kuala LumpurMYS000000000000000000000000000115635000029160104   29160104   007            005282101100   1000011     01200 0000000001608407000542200000029500010430001000C0000000000284030001000CUPF                                       
100C0006244310031624030   000000525000104072815144423839100745407286K1GK0V9KZPX30360528   30360528   549930360528303605280238959Foodpanda Myanmar        Kuala LumpurMYS000000000000000000000000000123839100029160104   29160104   007            005282101300   1000021     01200 0000000002858407000542200000052500010430001000C0000000000384030001000CUPF                                       
100C0006291102820244068   000001425000104072818375922763747738007286MRX9DG47KOT30360528   30360528   549930360528303605280238959Foodpanda Myanmar        Kuala LumpurMYS000000000000000000000000000122763700029160104   29160104   007            005282101100   1000011     01200 0000000007738407000542200000142500010430001000C0000000000884030001000CUPF                                       
100C0006291102820242138   0000011500001040728130702142987477380072878NMW63544PP30360528   30360528   549930360528303605280238959Foodpanda Myanmar        Kuala LumpurMYS000000000000000000000000000114298700029160104   29160104   007            005282101100   1000011     01200 0000000006248407000542200000115000010430001000C0000000000684030001000CUPF                                       
100E0006244310032049740   0000000072507640728170909356058639930072822091735605837860764   37860764   541116016594541197051407706Thai Smart Card Company Limited         000000000000000000000000000135605800029160104   29160104   003            007640100308   0000021     05200 0000000001998407027414800000036880410455086946D0000000000084030001000CUPF                                       8AF272C9DC366B8405200150E0F8C8008000E0007720B122324D363407010103A0200201                                                00407C00220728764                                          0000000000000000764800000000000001E030022A000000333010102                002000006702                              
100E0006244310032049740   0000000143007640729181920003139501585072922101000313926760764   26760764   549924739006002206724809   EK-CHAI  110654 SATHOR   BANGKOK     THA000000000000000000000000000100313900029160104   29160104   003            007640100308   0000021     05200 0000000003958407027599200000073232710455121170C0000000000184030001000CUPF                                       75FDD330613819AC05200150E0F8C8008000E8006DC2BB898128715307010103A0200201                                                00417C00220729764                                          0000000000014300764800000000000001E030022A000000333010102                003200000498                              
100C0006244310102082969   0000000018328400728002300761386855325072822081576138626480840   26480840   581200000001601103019138787UBER   * EATS PENDING    SAN FRANCISCUSA000000000000000000000000000176138600029160104   29160104   007            008400101400   1000021     01200 0000000018328403000100000000339936810431855550C0000000001884030001000CUPF                                       
100C0006244310105494609   0000000037098400728062834382036185822072822082138203626480840   26480840   581200000001601103019138787UBER   * EATS PENDING    SAN FRANCISCUSA000000000000000000000000000138203600029160104   29160104   007            008400101400   1000021     01200 0000000037098403000100000000688223510431855550C0000000003784030001000CUPF                                       
100C0006244310105494609   0000000004008400728074641500577012064072822082250057726480840   26480840   581200000001601103019138787UBER   *EATS             SAN FRANCISCUSA000000000000000000000000000150057700029160104   29160104   007            008400101400   1000021     01200 0000000004008403000100000000074222010431855550C0000000000484030001000CUPF                                       
