100E0006244310034800660   0000000026507020801145521134039086051080122080113403926940702   48000702   541146332798694070233530233FAIRPRICE FINEST-BEDOK MLSingapore   SGP000000000000000000000000000013403900029160104   29160104   003            007021101308   0000021     05200 0000000019268407726844500000357404410431348696C0000000000484030001000CUPF                                       1035EFCEC25CBEA605200150E0F0C8008000E000A76D4265        07010103A0200201                                                001F7C00220801702                                          0000000000002650702800000000000001E030022A000000333010102                002000010741                              
100E0006244310034800660   0000000010087020801141343651704313807080100000001789330480702   30480702   599986821102602070259990301WATSON'S                 THANK YOU   SGP000000000000000000000000000065170400029160104   29160104   003            007021101308   0000021     05200 0000000007338407726844500000135948610431348696C0000000000184030001000CUPF                                       9D926584C6A8F822052001506060C8008000E000AD8BC2338190757207010103A0200201                                                001E7C00220801702                                          0000000000001008702800000000000001E030022A000000333010102                0020                                      
100C0006244310034800660   0000000032797020730144333951756057192073022111495175640850702   40530036   5399C1KQZN5Z3TNLMP3MX7OZHASAMAZON SG                SINGAPORE   SGP000000000000000000000000000195175600029160104   29160104   007F           007022101300   1000021     01200 0000000023838407726844500000442237410431348696C0000000002484030001000CUPF                                       
100C0006291102820242138   0000007565001040731112641148296477380073178NMW6354O7S30360528   30360528   549930360528303605280238959Foodpanda Myanmar        Kuala LumpurMYS000000000000000000000000000114829600029160104   29160104   007            005282101100   1000011     01200 0000000004108407000542200000075650010430001000C0000000000484030001000CUPF                                       
100C0006244310106446681   0000028050001040731115938152220602617073175X66TIBOFDP30360528   30360528   549930360528303605280238959Foodpanda Myanmar        Kuala LumpurMYS000000000000000000000000000115222000029160104   29160104   007            005282101400   1000021     01200 0000000015218407000542200000280500010430001000C0000000001584030001000CUPF                                       
100C0006244310031352954   0000002500001040801110013147204288331080178NMW6354V2Y30360528   30360528   412130360528303605280001399Grab* A-3PDHXNDGWEBP     Singapore   SGP000000000000000000000000000114720400029160104   29160104   007            005282101300   1000021     01200 0000000001368407000542200000025000010430001000C0000000000184030001000CUPF                                       
100C0006291102820236031   0000005950001040801133733152418477380080175X66TIBON8N30360528   30360528   412130360528303605280001399Grab* A-3PEW64LWWERM     Singapore   SGP000000000000000000000000000115241800029160104   29160104   007            005282101100   1000011     01200 0000000003238407000542200000059500010430001000C0000000000384030001000CUPF                                       
100C0006291102820231008   0000004450001040731160346154507477380073175X66TIBOH5530360528   30360528   549930360528303605280238959Foodpanda Myanmar        Kuala LumpurMYS000000000000000000000000000115450700029160104   29160104   007            005282101100   1000011     01200 0000000002418407000542200000044500010430001000C0000000000284030001000CUPF                                       
