100C0006291102820255809   00000000049984007250409114587804773800725p6IFVgohWnRE28000392   00049992   539901080209800039253992034Xsolla Inc                              000000000000000000000000000045878000029160104   29160104   007            003922101100   0900011     01200 0000000004998403000100000000094906810431901939C0000000000584030001000CUPF                                       
100C0006291102820261054   0000001203330360725194814354401477380072594814126240025520344   00049992   472201080209552034445110003Trip HK                                 000000000000000000000000000035440100029160104   29160104   007            003442101100   1000011     01200 0000000834898407693819000015879154710431319601C0000000083584030001000CUPF                                       
100E0006244310037483134   0000000944009010722205250346619650073072200000000013126920158   26720158   5200153645658221301500814  SHOW BA                  HSINPEI      TW000000000000000000000000000134661900029160104   29160104   003            001580100308   0000021     07200 0000000031728407033606100000588658310456235787C0000000000684030001000CUPF                                       D5EC69C594E598930720016 E060C80000000000CDE4E643        010103A000000100                                                00127C002207221585EC69C594E                                000000000009440090180000000000000                                                                                  
100C0006244310034800660   0000000006657020725063705089592525399072522060608959240850702   40530036   5999VVGBNZ07R3OK2UGQQFUFIIQAMAZON RETAIL SG         SINGAPORE   SGP000000000000000000000000000108959200029160104   29160104   007F           007022101300   1000021     01200 0000000004818407722576800000089161710431340777C0000000000584030001000CUPF                                       
100C0006244310034800660   0000000005957020725064813212333135335072522060621233340850702   40530036   5999VVGBNZ07R3OK2UGQQFUFIIQAMAZON RETAIL SG         SINGAPORE   SGP000000000000000000000000000121233300029160104   29160104   007F           007022101300   1000021     01200 0000000004308407722576800000079776210431340777C0000000000484030001000CUPF                                       
100C0006291102820242138   000000815000104072414262523899747738007246K1GK0LBZS6G30360528   30360528   549930360528303605280238959Foodpanda Myanmar        Kuala LumpurMYS000000000000000000000000000123899700029160104   29160104   007            005282101100   1000011     01200 0000000004428407000542200000081500010430001000C0000000000484030001000CUPF                                       
100C0006291102820266517   0000003220001040724110234159247477380072475X66T8CSQ6830360528   30360528   549930360528303605280238959Foodpanda Myanmar        Kuala LumpurMYS000000000000000000000000000115924700029160104   29160104   007            005282101100   1000011     01200 0000000001758407000542200000032200010430001000C0000000000284030001000CUPF                                       
100C0006291102820244068   0000005550001040724112741159442477380072475X66T8CSQBN30360528   30360528   549930360528303605280238959Foodpanda Myanmar        Kuala LumpurMYS000000000000000000000000000115944200029160104   29160104   007            005282101100   1000011     01200 0000000003018407000542200000055500010430001000C0000000000384030001000CUPF                                       
100C0006291102820242138   0000004819501040724183958145380477380072478NMW5T9AOQF30360528   30360528   549930360528303605280238959Foodpanda Myanmar        Kuala LumpurMYS000000000000000000000000000114538000029160104   29160104   007            005282101100   1000011     01200 0000000002618407000542200000048195010430001000C0000000000384030001000CUPF                                       
100C0006291102820215019   0000022800001040724123126141925477380072478NMW5T9AM2L30360528   30360528   549930360528303605280238959Foodpanda Myanmar        Kuala LumpurMYS000000000000000000000000000114192500029160104   29160104   007            005282101100   1000011     01200 0000000012368407000542200000228000010430001000C0000000001284030001000CUPF                                       
100C0006291102820236031   000000381962104072513161823301947738007256K1GK0LBZV9Z30360528   30360528   412130360528303605280001399Grab* A-3OH3CKCWWEPQ     Singapore   SGP000000000000000000000000000123301900029160104   29160104   007            005282101100   1000011     01200 0000000002078407000542200000038196210430001000C0000000000284030001000CUPF                                       
100E0006244310032049740   0000000240007640724195220840224287724072422051984022434300764   34300764   541173740061401000509208001BIG C SUPERCENTER-RATDAMRBANGKOK     THA000000000000000000000000000184022400029160104   29160104   003F           007641100308   0000021     05200 0000000006558407027299300000121572710455065528C0000000000184030001000CUPF                                       E2048028A245DC0205200150E0F8C8000000E00010542C6B0191064807010103A0200201                                                00387C00220724764                                          0000000000024000764800000000000001E030022A000000333010102                003000000013                              
100E0006244310032049740   0000002187007640724195439717218791978072422051971721834300764   34300764   541173740061401000509208001BIG C SUPERCENTER-RATDAMRBANGKOK     THA000000000000000000000000000171721800029160104   29160104   003F           007641100308   0000021     05200 0000000059708407027299300001107831010455065528C0000000001284030001000CUPF                                       FAC8A966861E4E5F05200150E0F8C8000000E0002C0924020191064807010103A0200201                                                00397C00220724764                                          0000000000218700764800000000000001E030022A000000333010102                003000000014                              
100C0006244310102082969   0000000008298400724042922820192881212072422041982019226480840   26480840   581200000001601103019138787UBER   *EATS             SAN FRANCISCUSA000000000000000000000000000182019200029160104   29160104   007            008400101400   1000021     01200 0000000008298403000100000000153825110431855550C0000000000884030001000CUPF                                       
100C0006244310102082969   0000000041718400724031417702598376957072422041870259826480840   26480840   581200000001601103019138787UBER   * EATS PENDING    SAN FRANCISCUSA000000000000000000000000000170259800029160104   29160104   007            008400101400   1000021     01200 0000000041718403000100000000773949910431855550C0000000004284030001000CUPF                                       
