100C0006291102820255809   00000000049984008071808260523934773800807Eb5I3JI7WPnM28000392   00049992   539901080209800039253992034Xsolla Inc                              000000000000000000000000000005239300029160104   29160104   007            003922101100   0900011     01200 0000000004998403000100000000094906810431901939C0000000000584030001000CUPF                                       
100E0006244310032049740   0000000392007640806142846509554421415080622181450955434300764   34300764   569190100030451005382693001UNIQLO-C.RAMA 9          BANGKOK     THA000000000000000000000000000150955400029160104   29160104   003F           007641100308   0000021     05200 0000000011018407028096900000204369810455213515C0000000000284030001000CUPF                                       EB0363C8FA64014A05200150E0F8C8008000E000D6B5E38B123456780701010360200201                                                004A7C00220806764                                          0000000000039200764400000000000001E030022A000000333010102                002000001800                              
100C0006244310102082969   0000000073998400806045945380074931993080622171938007426480840   26480840   412100000001601103011637836UBR* PENDING.UBER.COM    SAN FRANCISCUSA000000000000000000000000000138007400029160104   29160104   007            008400101400   1000021     01200 0000000073998403000100000001372921410431855550C0000000007484030001000CUPF                                       
100C0006244310102082969   0000000041718400806055410882504121391080622172088250426480840   26480840   581200000001601103019138787UBER   * EATS PENDING    SAN FRANCISCUSA000000000000000000000000000188250400029160104   29160104   007            008400101400   1000021     01200 0000000041718403000100000000773949910431855550C0000000004284030001000CUPF                                       
100C0006244310102082969   0000000006008400806070956821593956143080622172282159326480840   26480840   581200000001601103019138787UBER   *EATS             SAN FRANCISCUSA000000000000000000000000000182159300029160104   29160104   007            008400101400   1000021     01200 0000000006008403000100000000111333010431855550C0000000000684030001000CUPF                                       
100C0006291102820215019   0000006030001040806201838147549477380080678NMW6D1U3ZO30360528   30360528   549930360528303605280238959Foodpanda Myanmar        Kuala LumpurMYS000000000000000000000000000114754900029160104   29160104   007            005282101100   1000011     01200 0000000003278407000542200000060300010430001000C0000000000384030001000CUPF                                       
100C0006291102820231016   0000003050001040806144521144530477380080678NMW6D1U1NZ30360528   30360528   549930360528303605280238959Foodpanda Myanmar        Kuala LumpurMYS000000000000000000000000000114453000029160104   29160104   007            005282101100   1000011     01200 0000000001658407000542200000030500010430001000C0000000000284030001000CUPF                                       
100C0006291102820215001   000001385000104080618294722263647738008066MRX9DPZYM8O30360528   30360528   549930360528303605280238959Foodpanda Myanmar        Kuala LumpurMYS000000000000000000000000000122263600029160104   29160104   007            005282101100   1000011     01200 0000000007518407000542200000138500010430001000C0000000000884030001000CUPF                                       
100C0006244310032298669   000000620000104080623180523367412852208076K1GK154HUMF30360528   30360528   412130360528303605280001399Grab* A-3Q48GLDWWICE     Singapore   SGP000000000000000000000000000123367400029160104   29160104   007            005282101300   1000021     01200 0000000003368407000542200000062000010430001000C0000000000384030001000CUPF                                       
100C0006291102820231008   0000004450001040806185006155571477380080675X66TS598K330360528   30360528   549930360528303605280238959Foodpanda Myanmar        Kuala LumpurMYS000000000000000000000000000115557100029160104   29160104   007            005282101100   1000011     01200 0000000002418407000542200000044500010430001000C0000000000284030001000CUPF                                       
100E0006244310032049740   0000000296527640807165302034190687971080722190803419026760764   26760764   541126117059002201020880   SIAM PARAGON SUP.        BANGKOK     THA000000000000000000000000000103419000029160104   29160104   003            007640100308   0000021     05200 0000000008338407028096900000154591110455213515C0000000000284030001000CUPF                                       E985AD9545C191B405200150E0F0C8008000E000110F693CCA8E105207010103A0200201                                                00537C00220807764                                          0000000000029652764800000000000001E030022A000000333010102                003200034190                              
100E0006244310032049740   0000000564007640807145447007581778012080722190600758126760764   26760764   530924742040002201632338   KING POWER TAX FREE-SV   SAMUTPRAKAN THA000000000000000000000000000100758100029160104   29160104   003            007640100308   0000021     05200 0000000015858407028096900000294042210455213515C0000000000384030001000CUPF                                       06D3E14C6B43197D05200150E0F8C8008000E800EEFB296F5011041707010103A0A00201                                                00527C00220807764                                          0000000000056400764800000000000001E030022A000000333010102                003200001988                              
100C0006291102820207545   0000000796007640807213449005179477380080700000552529631000764   31000764   5999100229867647640010014562C2P*CENTRAL.CO.TH     BANGKOK       THA000000000000000000000000000100517900029160104   29160104   007F           007642100100   0700011     01200 0000000022378407028096900000425370710455343853C0000000002284030001000CUPF                                       
100C0006291102820207545   0000000796007640806222656005169477380080600000551739431000764   31000764   5999100229867647640010014562C2P*CENTRAL.CO.TH     BANGKOK       THA000000000000000000000000000100516900029160104   29160104   007F           007642100100   0700011     01200 0000000022378407028096900000425370710455343853C0000000002284030001000CUPF                                       
100C0006244310031585322   0000000027998400806154545958874849083080722181595887442460344   40530036   5734ILU7TOUMZVCUP5X6FDRXPW4AIRDROID                 CHEUNG SHA WHKG000000000000000000000000000195887400029160104   29160104   007F           003442101300   1000021     01200 0000000027998403000100000000519368410431855550C0000000002884030001000CUPF                                       
