100C0006291102820282175   0000003300001040805131724153563477380080575X66TS58ZAS30360528   30360528   412130360528303605280001399Grab* A-3PUDM2HGWJAP     Singapore   SGP000000000000000000000000000115356300029160104   29160104   007            005282101100   1000011     01200 0000000001798407000542200000033000010430001000C0000000000284030001000CUPF                                       
100C0006291102820215001   000001120000104080417023822344847738008046MRX9DPZYF5Q30360528   30360528   549930360528303605280238959Foodpanda Myanmar        Kuala LumpurMYS000000000000000000000000000122344800029160104   29160104   007            005282101100   1000011     01200 0000000006078407000542200000112000010430001000C0000000000684030001000CUPF                                       
100C0006244310032298669   0000007300001040805095813142867662732080578NMW6D1TSOA30360528   30360528   412130360528303605280001399Grab* A-3PTREI8WWE42     Singapore   SGP000000000000000000000000000114286700029160104   29160104   007            005282101300   1000021     01200 0000000003968407000542200000073000010430001000C0000000000484030001000CUPF                                       
101C0006244310031624030   0000003200001040805232743112067562509080378NMW6D1TF7530360528   30360528   549930360528303605280238959Foodpanda Myanmar        Kuala LumpurMYS100080308495314538408030000111206700029160104   29160104   007 000        005282101300   0000021     01200 0000000001748407000542200000032000010430001000D0000000000284030001000CUPF                                       
100C0006244310031624030   0000015650001040804182652157395232458080475X66TS58UJR30360528   30360528   549930360528303605280238959Foodpanda Myanmar        Kuala LumpurMYS000000000000000000000000000115739500029160104   29160104   007            005282101300   1000021     01200 0000000008498407000542200000156500010430001000C0000000000884030001000CUPF                                       
100C0006291102820231008   000000435000104080415362722313947738008046MRX9DPZYEX630360528   30360528   549930360528303605280238959Foodpanda Myanmar        Kuala LumpurMYS000000000000000000000000000122313900029160104   29160104   007            005282101100   1000011     01200 0000000002368407000542200000043500010430001000C0000000000284030001000CUPF                                       
100C0006291102820282175   0000005200001040805111250143416477380080578NMW6D1TT3J30360528   30360528   412130360528303605280001399Grab* A-3PU295CGWIPF     Singapore   SGP000000000000000000000000000114341600029160104   29160104   007            005282101100   1000011     01200 0000000002828407000542200000052000010430001000C0000000000384030001000CUPF                                       
100C0006291102820252038   0000015400001040804130402154665477380080475X66TS58SG830360528   30360528   549930360528303605280238959Foodpanda Myanmar        Kuala LumpurMYS000000000000000000000000000115466500029160104   29160104   007            005282101100   1000011     01200 0000000008358407000542200000154000010430001000C0000000000884030001000CUPF                                       
100C0006291102820242138   000000615000104080416144622326947738008046MRX9DPZYF0S30360528   30360528   549930360528303605280238959Foodpanda Myanmar        Kuala LumpurMYS000000000000000000000000000122326900029160104   29160104   007            005282101100   1000011     01200 0000000003338407000542200000061500010430001000C0000000000384030001000CUPF                                       
100C0006291102820231008   000000445000104080419363723419147738008046K1GK154HNBE30360528   30360528   549930360528303605280238959Foodpanda Myanmar        Kuala LumpurMYS000000000000000000000000000123419100029160104   29160104   007            005282101100   1000011     01200 0000000002418407000542200000044500010430001000C0000000000284030001000CUPF                                       
100C0006291102820231016   0000006950001040804200131158373477380080475X66TS58VAU30360528   30360528   549930360528303605280238959Foodpanda Myanmar        Kuala LumpurMYS000000000000000000000000000115837300029160104   29160104   007            005282101100   1000011     01200 0000000003778407000542200000069500010430001000C0000000000484030001000CUPF                                       
100C0006291102820282175   000000410000104080515284523742947738008056K1GK154HPT430360528   30360528   412130360528303605280001399Grab* A-3PUPMSSWWE69     Singapore   SGP000000000000000000000000000123742900029160104   29160104   007            005282101100   1000011     01200 0000000002228407000542200000041000010430001000C0000000000284030001000CUPF                                       
100C0006291102820207545   0000001610407640805132053005150477380080500000550252531000764   31000764   5999100229867647640010014562C2P*CENTRAL.CO.TH     BANGKOK       THA000000000000000000000000000100515000029160104   29160104   007F           007642100100   0700011     01200 0000000045258407028096900000860574110455343853C0000000004584030001000CUPF                                       
100C0006291102820207545   0000002891707640805140306005151477380080500000550364431000764   31000764   5999100229867647640010014562C2P*CENTRAL.CO.TH     BANGKOK       THA000000000000000000000000000100515100029160104   29160104   007F           007642100100   0700011     01200 0000000081258407028096900001545282010455343853C0000000008184030001000CUPF                                       
100C0006291102820207545   0000000736007640805175702005154477380080500000550658031000764   31000764   5999100229867647640010014562C2P*CENTRAL.CO.TH     BANGKOK       THA000000000000000000000000000100515400029160104   29160104   007F           007642100100   0700011     01200 0000000020688407028096900000393307610455343853C0000000002184030001000CUPF                                       
100C0006291102820207545   0000001024887640805010129005144477380080500000549809631000764   31000764   5999100229867647640010014562C2P*CENTRAL.CO.TH     BANGKOK       THA000000000000000000000000000100514400029160104   29160104   007F           007642100100   0700011     01200 0000000028468407027770800000541324710455281835C0000000002884030001000CUPF                                       
100E0006244310037483134   0000001048009010805190415402679490871080522171331879626720158   26720158   5621640007120132458765     H&M  58765               TAIPEI CITY TW 000000000000000000000000000140267900029160104   29160104   003            001580100308   0000021     07200 0000000035118407033505300000651549710456217077C0000000000784030001000CUPF                                       EE6324BD834B524B0720016 E060C80000000000E7D96C84        07010103A0000001                                                00177C00220805158                                          000000000000104890180000000000000                                                                                  
100C0006244310032049740   0000000185648400804092813006476599735080422150000647626480840   26480840   472212345678601110401881015COA*CHEAPOAIR.COM AIR    CHEAPOAIR.COUSA000000000000000000000000000100647600029160104   29160104   007            008400101300   1000021     01200 0000000185648403000100000003444643010431855550C0000000018684030001000CUPF                                       
100E0006244310105494609   0000000015258400804065120000718592604080422151613751626480840   26480840   549995821553601132006710506MARKET STREET MARKET     LOWELL      USA000000000000000000000000000100071800029160104   29160104   003            008400101400   0000021     05200 0000000015258403000100000000282971410431855550C0000000000384030001000CUPF                                                       052000                                                                                                                                                                                                                                                                                
