100C0006291102820282175   0000008300001040809164622151890477380080975X66U2BBLSH30360528   30360528   412130360528303605280001399Grab* A-3QFG5A2GWJDB     Singapore   SGP000000000000000000000000000115189000029160104   29160104   007            005282101100   1000011     01200 0000000003968407000477600000083000010430001000C0000000000484030001000CUPF                                       
100C0006291102820266756   000000510000104080812454222980347738008086MRX9DPZYRRK30360528   30360528   549930360528303605280238959Foodpanda Myanmar        Kuala LumpurMYS000000000000000000000000000122980300029160104   29160104   007            005282101100   1000011     01200 0000000002448407000477600000051000010430001000C0000000000284030001000CUPF                                       
100C0006291102820236031   0000004900001040809140843149479477380080978NMW6N63D7F30360528   30360528   412130360528303605280001399Grab* A-3QFXNDKWWIJK     Singapore   SGP000000000000000000000000000114947900029160104   29160104   007            005282101100   1000011     01200 0000000002348407000477600000049000010430001000C0000000000284030001000CUPF                                       
100C0006291102820231016   0000003050001040808192943143556477380080878NMW6N638N730360528   30360528   549930360528303605280238959Foodpanda Myanmar        Kuala LumpurMYS000000000000000000000000000114355600029160104   29160104   007            005282101100   1000011     01200 0000000001468407000477600000030500010430001000C0000000000184030001000CUPF                                       
100C0006291102820202363   0000010440001040808160444151524477380080875X66TS59KUR30360528   30360528   549930360528303605280238959Foodpanda Myanmar        Kuala LumpurMYS000000000000000000000000000115152400029160104   29160104   007            005282101100   1000011     01200 0000000004998407000477600000104400010430001000C0000000000584030001000CUPF                                       
100C0006291102820282175   000000810000104080911514223604547738008096K1GK1F9PRLC30360528   30360528   412130360528303605280001399Grab* A-3QEL6X8GWJ86     Singapore   SGP000000000000000000000000000123604500029160104   29160104   007            005282101100   1000011     01200 0000000003878407000477600000081000010430001000C0000000000484030001000CUPF                                       
100C0006244310034064838   000000300000104080813531022011019498408086MRX9DPZYS0330360528   30360528   549930360528303605280238959Foodpanda Myanmar        Kuala LumpurMYS000000000000000000000000000122011000029160104   29160104   007            005282101300   1000021     01200 0000000001438407000477600000030000010430001000C0000000000184030001000CUPF                                       
100C0006244310034064838   0000004350001040808140352141644004206080878NMW6D1UEUJ30360528   30360528   549930360528303605280238959Foodpanda Myanmar        Kuala LumpurMYS000000000000000000000000000114164400029160104   29160104   007            005282101300   1000021     01200 0000000002088407000477600000043500010430001000C0000000000284030001000CUPF                                       
100C0006291102820266756   0000005100001040808141527141728477380080878NMW6D1UEWV30360528   30360528   549930360528303605280238959Foodpanda Myanmar        Kuala LumpurMYS000000000000000000000000000114172800029160104   29160104   007            005282101100   1000011     01200 0000000002448407000477600000051000010430001000C0000000000284030001000CUPF                                       
100C0006291102820231016   0000006600001040808180033152551477380080875X66TS59LN730360528   30360528   549930360528303605280238959Foodpanda Myanmar        Kuala LumpurMYS000000000000000000000000000115255100029160104   29160104   007            005282101100   1000011     01200 0000000003158407000477600000066000010430001000C0000000000384030001000CUPF                                       
100C0006291102820207545   0000000796007640809131658005229477380080900000554423031000764   31000764   5999100229867647640010014562C2P*CENTRAL.CO.TH     BANGKOK       THA000000000000000000000000000100522900029160104   29160104   007F           007642100100   0700011     01200 0000000022538407028298600000486320110456109549C0000000002384030001000CUPF                                       
100C0006291102820207545   0000000948607640809001621005221477380080900000554014231000764   31000764   5999100229867647640010014562C2P*CENTRAL.CO.TH     BANGKOK       THA000000000000000000000000000100522100029160104   29160104   007F           007642100100   0700011     01200 0000000026678407028112600000507201510455346843C0000000002784030001000CUPF                                       
100E0006244310032049740   0000000074007640808112415192567543879080822201119256737860764   37860764   541117212622541197051407706Thai Smart Card Company Limited         000000000000000000000000000119256700029160104   29160104   003            007640100308   0000021     05200 0000000002088407028112600000038601610455216432D0000000000084030001000CUPF                                       B7F6CD8A541554CB05200150E0F8C8008000E0006ABCA66D324D363407010103A0200201                                                00547C00220808764                                          0000000000000000764800000000000001E030022A000000333010102                002000005552                              
100C0006244310102082969   0000000011088400808083439351447476609080822192335144726480840   26480840   412100000001601103011637836UBR* PENDING.UBER.COM    SAN FRANCISCUSA000000000000000000000000000135144700029160104   29160104   007            008400101400   1000021     01200 0000000011088403000100000000233378010432106300C0000000001184030001000CUPF                                       
100C0006244310035050067   0000000250008400807105751407092222699080722190440709226480840   26480840   829912345678601181493898282SP SCRUM.ORG             BURLINGTON  USA000000000000000000000000000140709200029160104   29160104   007            008400101300   1000021     01200 0000000250008403000100000005265750010432106300C0000000025084030001000CUPF                                       
100C0006244310105494609   0000000014758400808073736382996311361080822192238299626480840   26480840   412100000001601103011637836UBR* PENDING.UBER.COM    SAN FRANCISCUSA000000000000000000000000000138299600029160104   29160104   007            008400101400   1000021     01200 0000000014758403000100000000310679310432106300C0000000001584030001000CUPF                                       
