100E0006244310034800660   0000000018887020812134722707109061039081200000003691930480702   30480702   541166920801602070254110188GIANT SUPER              PAYA LEBAR SSGP000000000000000000000000000070710900029160104   29160104   003            007021101308   0000021     07200 0000000013828407731803000000291015810431541397C0000000000384030001000CUPF                                       5AF80ED124E67561072001606060C800000000008958D07C8121579607010103A0000001                                                00287C00220812702                                          00000000000018887028000000000000000000025A000000333010102                0020                                      
100E0006244310034800660   0000000010087020812130957706991069548081200000001352630480702   30480702   539990141702602070253990093WATSON'S                 PAYA LEBAR QSGP000000000000000000000000000070699100029160104   29160104   003            007021101308   0000021     05200 0000000007388407731803000000155372810431541397C0000000000184030001000CUPF                                       C1C82AF9EA558922052001506060C8008000E0009D8959962695142807010103A0200201                                                00277C00220812702                                          0000000000001008702800000000000001E030022A000000333010102                0020                                      
100C0006291102820261617   0000013450001040811115616155703477380081175X66U2BBWFI30360528   30360528   549930360528303605280238959Foodpanda Myanmar        Kuala LumpurMYS000000000000000000000000000115570300029160104   29160104   007            005282101100   1000011     01200 0000000006428407000477600000134500010430001000C0000000000684030001000CUPF                                       
100C0006291102820231016   000000445000104081118323122672547738008116NBM79BIR3PS30360528   30360528   549930360528303605280238959Foodpanda Myanmar        Kuala LumpurMYS000000000000000000000000000122672500029160104   29160104   007            005282101100   1000011     01200 0000000002138407000477600000044500010430001000C0000000000284030001000CUPF                                       
100C0006244310031624030   000001605000104081115270923620948594908116K1GK1F9PZF930360528   30360528   549930360528303605280238959Foodpanda Myanmar        Kuala LumpurMYS000000000000000000000000000123620900029160104   29160104   007            005282101300   1000021     01200 0000000007678407000477600000160500010430001000C0000000000884030001000CUPF                                       
100C0006291102820231016   000000186000104081115311623622247738008116K1GK1F9PZFM30360528   30360528   549930360528303605280238959Foodpanda Myanmar        Kuala LumpurMYS000000000000000000000000000123622200029160104   29160104   007            005282101100   1000011     01200 0000000000898407000477600000018600010430001000C0000000000184030001000CUPF                                       
100C0006291102820231016   000000230000104081119071823714847738008116KL5HWQN93CR30360528   30360528   549930360528303605280238959Foodpanda Myanmar        Kuala LumpurMYS000000000000000000000000000123714800029160104   29160104   007            005282101100   1000011     01200 0000000001108407000477600000023000010430001000C0000000000184030001000CUPF                                       
100C0006244310032311710   0000004600001040812094451153027955358081275X66U2BC22L30360528   30360528   412130360528303605280001399Grab* A-3NRTBWBGWHCJ     Singapore   SGP000000000000000000000000000115302700029160104   29160104   007            005282101300   1000021     01200 0000000002208407000477600000046000010430001000C0000000000284030001000CUPF                                       
100C0006291102820202363   000000445000104081116392123648647738008116K1GK1F9PZMV30360528   30360528   549930360528303605280238959Foodpanda Myanmar        Kuala LumpurMYS000000000000000000000000000123648600029160104   29160104   007            005282101100   1000011     01200 0000000002138407000477600000044500010430001000C0000000000284030001000CUPF                                       
100C0006244310034800660   0000000128627020812192309158223937531081276GV4PDOV9AC30360528   30360528   472230360528303605280000987AGODA.COM HOTEL 81 T     London      GBR000000000000000000000000000115822300029160104   29160104   007            005282101300   1000021     01200 0000000094128407731803000001982544810431541397C0000000009484030001000CUPF                                       
100C0006291102820282175   0000005200001040812120726143245477380081278NMW6N63VIB30360528   30360528   412130360528303605280001399Grab* A-3QR24BWWWGVD     Singapore   SGP000000000000000000000000000114324500029160104   29160104   007            005282101100   1000011     01200 0000000002488407000477600000052000010430001000C0000000000284030001000CUPF                                       
100C0006291102820215019   0000013650001040811170935158386477380081175X66U2BBYHZ30360528   30360528   549930360528303605280238959Foodpanda Myanmar        Kuala LumpurMYS000000000000000000000000000115838600029160104   29160104   007            005282101100   1000011     01200 0000000006528407000477600000136500010430001000C0000000000784030001000CUPF                                       
100C0006244310032298669   000000760000104081217315823141983679408126K1GK1F9Q3FO30360528   30360528   412130360528303605280001399Grab* A-3QRVR54GWGMF     Singapore   SGP000000000000000000000000000123141900029160104   29160104   007            005282101300   1000021     01200 0000000003638407000477600000076000010430001000C0000000000484030001000CUPF                                       
100C0006291102820215019   0000021350001040811172110147483477380081178NMW6N63R2M30360528   30360528   549930360528303605280238959Foodpanda Myanmar        Kuala LumpurMYS000000000000000000000000000114748300029160104   29160104   007            005282101100   1000011     01200 0000000010208407000477600000213500010430001000C0000000001084030001000CUPF                                       
100C0006244310033813987   00000161500010408111801321478539767500811797BU1YJMUKG30360528   30360528   549930360528303605280238959Foodpanda Myanmar        Kuala LumpurMYS000000000000000000000000000114785300029160104   29160104   007            005282101300   1000021     01200 0000000007718407000477600000161500010430001000C0000000000884030001000CUPF                                       
100E0006244310032049740   0000000136007640812201303003323581506081222241200332326760764   26760764   549924739006002206724809   EK-CHAI  110654 SATHOR   BANGKOK     THA000000000000000000000000000100332300029160104   29160104   003            007640100308   0000021     05200 0000000003888407028515400000081684310456006197C0000000000184030001000CUPF                                       9703A2519201EE3D05200150E0F8C8008000E8009CB343E98128715307010103A0200201                                                00587C00220812764                                          0000000000013600764800000000000001E030022A000000333010102                003200000526                              
100C0006291102820207545   0000000870007640812154332005272477380081200000557232931000764   31000764   5999100229867647640010014562C2P*CENTRAL.CO.TH     BANGKOK       THA000000000000000000000000000100527200029160104   29160104   007F           007642100100   0700011     01200 0000000024818407028515400000535602610456156352C0000000002584030001000CUPF                                       
100E0006244310037483134   0000000556009010811120504425306877392081144222300279328600158   26720158   5411502223498080053239     PRESICARRE CORP.-JA   TAIPEI       TW TW000000000000000000000000000142530600029160104   29160104   003            001580100308   0000021     07 00 0000000018658407033540000000392787410457064522C0000000000484030001000CUPF                                       C18ABE4E8CF5543C07 0016100000000000000002D234ABB                                                                        001A7C00                                                   0000000000000000   80000000000000                                                                                  
