100C0006244310102082969   0000000005008400814091815541171877822081422250054117126480840   26480840   581200000001601103019138787UBER   *EATS             SAN FRANCISCUSA000000000000000000000000000154117100029160104   29160104   007            008400101400   1000021     01200 0000000005008403000100000000105315010432106300C0000000000584030001000CUPF                                       
100C0006244310102082969   0000000042218400814075830570026530305081422252257002626480840   26480840   581200000001601103019138787UBER   * EATS PENDING    SAN FRANCISCUSA000000000000000000000000000157002600029160104   29160104   007            008400101400   1000021     01200 0000000042218403000100000000889069210432106300C0000000004284030001000CUPF                                       
100C0006244310105494609   0000000015888400813190913572995431897081322251057299526480840   26480840   594200000001601103014002483CHEGG  *ORDER            SANTA CLARA USA000000000000000000000000000157299500029160104   29160104   007            008400101400   1000021     01200 0000000015888403000100000000334480410432106300C0000000001684030001000CUPF                                       
100E0006291102820211612   0000075500001040814163117006621477380081422081415311734790104   34790104   541110001515000001000022630CITY MART (JS CITY CARE )Kamayut     MMR000000000000000000000000000100662100029160104   29160104   003            001040100121   0000011     07100 0000000036068407000477600000755000010430001000C0000000000684030001000CUPF                                       B5F1797E4D1A1AEB07110060E060C800000000007BD503912865254807210103A00000010A010000000000DF2CB091                          000F7C00220814104                                          00000000075500001048000000000000002000022A000000333010101                    0000                                  
100C0006291102820242138   0000011262501040814141124152458477380081475X66U2BCH1O30360528   30360528   549930360528303605280238959Foodpanda Myanmar        Kuala LumpurMYS000000000000000000000000000115245800029160104   29160104   007            005282101100   1000011     01200 0000000005388407000477600000112625010430001000C0000000000584030001000CUPF                                       
100C0006244310033813987   0000020750001040814155411142234615870081478NMW6N64A5430360528   30360528   549930360528303605280238959Foodpanda Myanmar        Kuala LumpurMYS000000000000000000000000000114223400029160104   29160104   007            005282101300   1000021     01200 0000000009918407000477600000207500010430001000C0000000001084030001000CUPF                                       
100C0006244310106446681   0000021250001040814125237151677090797081475X66U2BCGG030360528   30360528   549930360528303605280238959Foodpanda Myanmar        Kuala LumpurMYS000000000000000000000000000115167700029160104   29160104   007            005282101400   1000021     01200 0000000010158407000477600000212500010430001000C0000000001084030001000CUPF                                       
100C0006291102820242138   0000003570001040814170711153981477380081475X66U2BCI7Y30360528   30360528   549930360528303605280238959Foodpanda Myanmar        Kuala LumpurMYS000000000000000000000000000115398100029160104   29160104   007            005282101100   1000011     01200 0000000001718407000477600000035700010430001000C0000000000284030001000CUPF                                       
100C0006291102820231016   0000006050001040814171141154013477380081475X66U2BCI8U30360528   30360528   549930360528303605280238959Foodpanda Myanmar        Kuala LumpurMYS000000000000000000000000000115401300029160104   29160104   007            005282101100   1000011     01200 0000000002898407000477600000060500010430001000C0000000000384030001000CUPF                                       
100C0006291102820231016   0000005500001040814171727142955477380081478NMW6N64AP330360528   30360528   549930360528303605280238959Foodpanda Myanmar        Kuala LumpurMYS000000000000000000000000000114295500029160104   29160104   007            005282101100   1000011     01200 0000000002638407000477600000055000010430001000C0000000000384030001000CUPF                                       
100C0006244310034800660   0000000007607020814164440232193311955081522261623219340850702   40530036   5999VVGBNZ07R3OK2UGQQFUFIIQAMAZON RETAIL SG         SINGAPORE   SGP000000000000000000000000000123219300029160104   29160104   007F           007022101300   1000021     01200 0000000005568407731429400000117086410431540610C0000000000684030001000CUPF                                       
100C0006244310034800660   0000000026207020814164424721739477203081522261672173940850702   40530036   5999VVGBNZ07R3OK2UGQQFUFIIQAMAZON RETAIL SG         SINGAPORE   SGP000000000000000000000000000172173900029160104   29160104   007F           007022101300   1000021     01200 0000000019168407731429400000403639810431540610C0000000001984030001000CUPF                                       
100E0006291102820277472   0000001197006080812110641000183477380081222244000021427240608   27240608   531138026052724060881619370W DEPT STORE DASMARINA   CAVITE      PHL000000000000000000000000000100018300029160104   29160104   003            006080100108   0000011     05100 0000000021638407018069000000466951610453901016C0000000000384030001000CUPF                                       9ED81A34BC465D4705100050E0E0C80080048000F2F16F403132333407210103A0200201                                                00267C00220812608                                            000000001197006088000000000000002030022A000000333010101                0020000043                                
