100C0006244310102082969   0000000014118400816041759541625748605081622271954162526480840   26480840   412100000001601103011637836UBR* PENDING.UBER.COM    SAN FRANCISCUSA000000000000000000000000000154162500029160104   29160104   007            008400101400   1000021     01200 0000000014118403000100000000297198910432106300C0000000001484030001000CUPF                                       
100C0006244310102082969   0000000008848400816111415571458782643081622270257145826480840   26480840   412100000001601103011637836UBR* PENDING.UBER.COM    SAN FRANCISCUSA000000000000000000000000000157145800029160104   29160104   007            008400101400   1000021     01200 0000000008848403000100000000186196910432106300C0000000000984030001000CUPF                                       
100C0006244310102291370   0000000500008400815184350072451532298081522271207245126480840   26480840   573212345678601181476376553THE LINK SERVICE LLC     CHEYENNE    USA000000000000000000000000000107245100029160104   29160104   007            008400101400   1000021     01200 0000000500008403000100000010531500010432106300C0000000050084030001000CUPF                                       
100C0006244310102082969   0000000016098400816074626762863583357081622272276286326480840   26480840   412100000001601103011637836UBR* PENDING.UBER.COM    SAN FRANCISCUSA000000000000000000000000000176286300029160104   29160104   007            008400101400   1000021     01200 0000000016098403000100000000338903710432106300C0000000001684030001000CUPF                                       
100C0006244310102082969   0000000012858400816115705700281668453081622270270028126480840   26480840   412100000001601103011637836UBR* PENDING.UBER.COM    SAN FRANCISCUSA000000000000000000000000000170028100029160104   29160104   007            008400101400   1000021     01200 0000000012858403000100000000270659610432106300C0000000001384030001000CUPF                                       
100C0006244310031352954   0000000008848400815184944000308711001081522270000030826480840   26480840   594212345678601100118713080AMZN Mktp US             Amzn.com/bilUSA000000000000000000000000000100030800029160104   29160104   007            008400101300   1000021     01200 0000000008848403000100000000186196910432106300C0000000000984030001000CUPF                                       
100C0006244310036110670   0000000027108400815021500288411277916081522260028841126480840   26480840   541199251901601106001867792LUCKY #711.FREMONT CA    FREMONT     USA000000000000000000000000000128841100029160104   29160104   003            008400101300   0000021     02200 0000000027108403000100000000570807310432106300C0000000000584030001000CUPF                                       
100C0006244310036366868   000000445000104081616240423120775274208166K1GK1P914OF30360528   30360528   549930360528303605280238959Foodpanda Myanmar        Kuala LumpurMYS000000000000000000000000000123120700029160104   29160104   007            005282101300   1000021     01200 0000000002138407000477600000044500010430001000C0000000000284030001000CUPF                                       
100C0006291102820242138   000000835000104081620194722215247738008166MRX9EA4H97A30360528   30360528   549930360528303605280238959Foodpanda Myanmar        Kuala LumpurMYS000000000000000000000000000122215200029160104   29160104   007            005282101100   1000011     01200 0000000003998407000477600000083500010430001000C0000000000484030001000CUPF                                       
100C0006291102820242138   0000007250001040816130927144533477380081678NMW6X6A7NZ30360528   30360528   549930360528303605280238959Foodpanda Myanmar        Kuala LumpurMYS000000000000000000000000000114453300029160104   29160104   007            005282101100   1000011     01200 0000000003468407000477600000072500010430001000C0000000000384030001000CUPF                                       
100C0006244310031624030   0000017050001040816163629146249396716081678NMW6X6A8ZI30360528   30360528   549930360528303605280238959Foodpanda Myanmar        Kuala LumpurMYS000000000000000000000000000114624900029160104   29160104   007            005282101300   1000021     01200 0000000008148407000477600000170500010430001000C0000000000884030001000CUPF                                       
100C0006244310031352954   000000150000104081710550023075790672208176K1GK1QY23J930360528   30360528   412130360528303605280001399Grab* A-3RFEWXDWWEQ2     Singapore   SGP000000000000000000000000000123075700029160104   29160104   007            005282101300   1000021     01200 0000000000728407000477600000015000010430001000C0000000000184030001000CUPF                                       
100C0006291102820242138   0000002550001040816170702154790477380081675X66UC9JC5730360528   30360528   549930360528303605280238959Foodpanda Myanmar        Kuala LumpurMYS000000000000000000000000000115479000029160104   29160104   007            005282101100   1000011     01200 0000000001228407000477600000025500010430001000C0000000000184030001000CUPF                                       
100C0006291102820242138   0000005340001040816133209144759477380081678NMW6X6A7U730360528   30360528   549930360528303605280238959Foodpanda Myanmar        Kuala LumpurMYS000000000000000000000000000114475900029160104   29160104   007            005282101100   1000011     01200 0000000002558407000477600000053400010430001000C0000000000384030001000CUPF                                       
100C0006291102820215019   0000011000001040816172452154888477380081675X66UC9JC7X30360528   30360528   549930360528303605280238959Foodpanda Myanmar        Kuala LumpurMYS000000000000000000000000000115488800029160104   29160104   007            005282101100   1000011     01200 0000000005258407000477600000110000010430001000C0000000000584030001000CUPF                                       
100C0006244310033813987   000002727000104081612020222980398549508166MRX9EA4H7E130360528   30360528   549930360528303605280238959Foodpanda Myanmar        Kuala LumpurMYS000000000000000000000000000122980300029160104   29160104   007            005282101300   1000021     01200 0000000013028407000477600000272700010430001000C0000000001384030001000CUPF                                       
100E0006244310102291370   0000000583007640817192343891803834272081700002070199626990764   26990764   541191402562000000002355411TMG PARAGON FHA 2355411  BANGKOK     THA000000000000000000000000000189180300029160104   29160104   003            007640100408   0000021     05100 0000000016588407028430700000349121310455988358C0000000001684030001000CUPF                                       17AB003743E38CA205100160E0D8E8008004E000FFE2FB840820519407010103A0200201                                                    7C00220817764                                          00000000000583007648000000000000002030022A000000333010102                002000008524                              
