100C0006244310036366868   0000006530001040815142747149872448009081578NMW6N64G0X30360528   30360528   549930360528303605280238959Foodpanda Myanmar        Kuala LumpurMYS000000000000000000000000000114987200029160104   29160104   007            005282101300   1000021     01200 0000000003128407000477600000065300010430001000C0000000000384030001000CUPF                                       
100C0006291102820252038   0000007000001040816122906152637477380081675X66UC9JAHG30360528   30360528   412130360528303605280001399Grab* A-3RBJERKG2FP8     Singapore   SGP000000000000000000000000000115263700029160104   29160104   007            005282101100   1000011     01200 0000000003348407000477600000070000010430001000C0000000000384030001000CUPF                                       
100C0006244310036366868   0000004280001040815094138158699320465081575X66U2BCLUT30360528   30360528   549930360528303605280238959Foodpanda Myanmar        Kuala LumpurMYS000000000000000000000000000115869900029160104   29160104   007            005282101300   1000021     01200 0000000002048407000477600000042800010430001000C0000000000284030001000CUPF                                       
100C0006244310032311710   0000004700001040816102006151493791153081675X66UC9J9LP30360528   30360528   412130360528303605280001399Grab* A-3RB57TXWWIQU     Singapore   SGP000000000000000000000000000115149300029160104   29160104   007            005282101300   1000021     01200 0000000002248407000477600000047000010430001000C0000000000284030001000CUPF                                       
100C0006244310036366868   000000540000104081519594622728406208208156MRX9EA4H5G530360528   30360528   549930360528303605280238959Foodpanda Myanmar        Kuala LumpurMYS000000000000000000000000000122728400029160104   29160104   007            005282101300   1000021     01200 0000000002588407000477600000054000010430001000C0000000000384030001000CUPF                                       
100C0006244310102082969   0000000050968400814141525332446686468081422260533244626480840   26480840   412100000001601103011637836UBR* PENDING.UBER.COM    SAN FRANCISCUSA000000000000000000000000000133244600029160104   29160104   007            008400101400   1000021     01200 0000000050968403000100000001073370510432106300C0000000005184030001000CUPF                                       
100E0006244310030303669   0000000022778400814115400000014906338081422264261288926480840   26480840   581496580927601132005059988IN N OUT BURGER 194      FREMONT     USA000000000000000000000000000100001400029160104   29160104   003            008400101300   0000021     05200 0000000022778403000100000000479604510432106300C0000000000584030001000CUPF                                                       052000                                                                                                                                                                                                                                                                                
100C0006244310102082969   0000000028778400815081245822062286426081522262382206226480840   26480840   412100000001601103011637836UBR* PENDING.UBER.COM    SAN FRANCISCUSA000000000000000000000000000182206200029160104   29160104   007            008400101400   1000021     01200 0000000028778403000100000000605982510432106300C0000000002984030001000CUPF                                       
100C0006244310102082969   0000000005008400815120421762244030230081522260376224426480840   26480840   581200000001601103019138787UBER   *EATS             SAN FRANCISCUSA000000000000000000000000000176224400029160104   29160104   007            008400101400   1000021     01200 0000000005008403000100000000105315010432106300C0000000000584030001000CUPF                                       
100C0006244310102082969   0000000056388400815103515700243485713081522260170024326480840   26480840   581200000001601103021989771UBER   *SUNSETTHAICU     SAN FRANCISCUSA000000000000000000000000000170024300029160104   29160104   007            008400101400   1000021     01200 0000000056388403000100000001187531910432106300C0000000005684030001000CUPF                                       
