100C0006244310032311710   0000004600001040823103253150658256969082375X66UM621HQ30360528   30360528   412130360528303605280001399Grab* A-3S7VNU2WWJNK     Singapore   SGP000000000000000000000000000115065800029160104   29160104   007            005282101300   1000021     01200 0000000002208407000477600000046000010430001000C0000000000284030001000CUPF                                       
100C0006291102820247160   0000004750001040822190259147435477380082278NMW772H5LC30360528   30360528   549930360528303605280238959Foodpanda Myanmar        Kuala LumpurMYS000000000000000000000000000114743500029160104   29160104   007            005282101100   1000011     01200 0000000002278407000477600000047500010430001000C0000000000284030001000CUPF                                       
100C0006244310033010592   0000011400001040822201510148246309098082278NMW772H67P30360528   30360528   549930360528303605280238959Foodpanda Myanmar        Kuala LumpurMYS000000000000000000000000000114824600029160104   29160104   007            005282101300   1000021     01200 0000000005448407000477600000114000010430001000C0000000000584030001000CUPF                                       
100C0006291102820242138   000000250750104082216411022509847738008226MRX9EK0PQ6730360528   30360528   549930360528303605280238959Foodpanda Myanmar        Kuala LumpurMYS000000000000000000000000000122509800029160104   29160104   007            005282101100   1000011     01200 0000000001208407000477600000025075010430001000C0000000000184030001000CUPF                                       
100C0006291102820242138   000000471000104082213313923471647738008226K1GK1QY2LZM30360528   30360528   549930360528303605280238959Foodpanda Myanmar        Kuala LumpurMYS000000000000000000000000000123471600029160104   29160104   007            005282101100   1000011     01200 0000000002258407000477600000047100010430001000C0000000000284030001000CUPF                                       
100C0006244310032311710   0000004800001040823190719155465563316082375X66UM6257230360528   30360528   412130360528303605280001399Grab* A-3S9GDBVGWH3P     Singapore   SGP000000000000000000000000000115546500029160104   29160104   007            005282101300   1000021     01200 0000000002298407000477600000048000010430001000C0000000000284030001000CUPF                                       
100C0006244310033813987   000002370000104082210303122350042961108226MRX9EBTBZ4A30360528   30360528   549930360528303605280238959Foodpanda Myanmar        Kuala LumpurMYS000000000000000000000000000122350000029160104   29160104   007            005282101300   1000021     01200 0000000011328407000477600000237000010430001000C0000000001184030001000CUPF                                       
100C0006291102820236031   0000008100001040823125801143184477380082378NMW772HA0H30360528   30360528   412130360528303605280001399Grab* A-3S8GUQ2GWIPF     Singapore   SGP000000000000000000000000000114318400029160104   29160104   007            005282101100   1000011     01200 0000000003878407000477600000081000010430001000C0000000000484030001000CUPF                                       
100E0006244310032049740   0000000042007640822172044345987953072082222341734598737860764   37860764   541121012238541129830998194Thai Smart Card Company Limited         000000000000000000000000000134598700029160104   29160104   003            007640100308   0000021     05200 0000000001188407028014600000024783010455900722D0000000000084030001000CUPF                                       D0A9B37BDBB9243805200150E0F8C8008000E0006CC189A7324D363007010103A0200201                                                00617C00220822764                                          0000000000000000764800000000000001E030022A000000333010102                002000004357                              
100E0006244310037439243   0000000173007640822192618360161813352082222341936016137860764   37860764   541119210640541199910943358Thai Smart Card Company Limited         000000000000000000000000000136016100029160104   29160104   003            007640100308   0000021     07200 0000000004858407028014600000102082510455900722C0000000000184030001000CUPF                                       80C9C3036ED79B1307200150E0F8C80000000000A48B0AE7324D353807010103A0000001                                                00037C00220822764                                          000000000001730076480                  22A000000333010102                    00000000                              
100C0006291102820207545   0000000200007640823171132001427477380082300000566679931000764   31000764   5137200006167647640010019582C2P*H AND M           BANGKOK       THA000000000000000000000000000100142700029160104   29160104   007F           007642100100   0900011     01200 0000000005578407027828500000120160910456008047C0000000000684030001000CUPF                                       
100C0006291102820207545   0000001100007640823211850001434477380082300000566864531000764   31000764   5137200006167647640010019582C2P*H AND M           BANGKOK       THA000000000000000000000000000100143400029160104   29160104   007F           007642100100   0900011     01200 0000000030618407027828500000660885210456008047C0000000003184030001000CUPF                                       
100E0006244310030041210   0000025000007640823164842000481622884082322350800048126760764   26760764   512226123885002205644354   WE MED CARE              PATHUMTHANI THA000000000000000000000000000100048100029160104   29160104   003            007640100308   0000021     05200 0000000695718407027828500014653772510455861509C0000000013984030001000CUPF                                       A48E4B33BE46F3B005200150E0F0C8008000E000D911CCA1BE83698207010103A0A00201                                                00087C00220823764                                          0000000002500000764800000000000001E030022A000000333010102                003200000481                              
100E0006244310032883080   0000030000007640823164924000482788132082322350800048226760764   26760764   512226123885002205644354   WE MED CARE              PATHUMTHANI THA000000000000000000000000000100048200029160104   29160104   003            007640100308   0000021     05200 0000000834868407027828500017584527010455861509C0000000016784030001000CUPF                                       FC309AE95A1C942F05200150E0F0C8008000E000920DFAB7BE83698207010103A0A00201                                                000E7C00220823764                                          0000000003000000764800000000000001E030022A000000333010102                003200000482                              
100E0006244310030303669   0000000036828400821011200138368091413082122320013836826480840   26480840   592158530802601100129198610TOTAL WINE AND MORE 11   FRESNO      USA000000000000000000000000000113836800029160104   29160104   003            008400101300   0000021     05200 0000000036828403000100000000775539710432106300C0000000000784030001000CUPF                                                       052000                                                                                                                                                                                                                                                                                
100C0006244310031453562   0000000004008400822055144001883255282082222330000188326480840   26480840   546212345678601110409219580SQ *BROWN BUTTER COOKI   Paso Robles USA000000000000000000000000000100188300029160104   29160104   003            008400101300   0000021     02200 0000000004008403000100000000084252010432106300C0000000000184030001000CUPF                                       
100C0006244310102082969   0000000016978400821140000880266853143082122330588026626480840   26480840   412100000001601103011637836UBR* PENDING.UBER.COM    SAN FRANCISCUSA000000000000000000000000000188026600029160104   29160104   007            008400101400   1000021     01200 0000000016978403000100000000357439110432106300C0000000001784030001000CUPF                                       
100C0006244310102082969   0000000024768400822033616381250246772082222331838125026480840   26480840   412100000001601103011637836UBER   *TRIP             SAN FRANCISCUSA000000000000000000000000000138125000029160104   29160104   007            008400101400   1000021     01200 0000000024768403000100000000521519910432106300C0000000002584030001000CUPF                                       
100C0006244310102082969   0000000011458400822005707381722073014082222331538172226480840   26480840   412100000001601103011637836UBR* PENDING.UBER.COM    SAN FRANCISCUSA000000000000000000000000000138172200029160104   29160104   007            008400101400   1000021     01200 0000000011458403000100000000241171410432106300C0000000001184030001000CUPF                                       
100C0006244310105494609   0000000040458400822043620760260081524082222331976026026480840   26480840   412100000001601103011637836UBR* PENDING.UBER.COM    SAN FRANCISCUSA000000000000000000000000000176026000029160104   29160104   007            008400101400   1000021     01200 0000000040458403000100000000851998410432106300C0000000004084030001000CUPF                                       
