100C0006291102820255809   00000000049984008201741453711664773800820lI5MBCog3VQ528000392   00049992   539901080209800039253992034Xsolla Inc                              000000000000000000000000000037116600029160104   29160104   007            003922101100   0900011     01200 0000000004998403000100000000107732010432158958C0000000000584030001000CUPF                                       
100C0006244310036110670   0000000112468400815033251019612112668081522260001961226480840   26480840   599912345678601100134871631VICTORIASSECRET.COM      victoriassecUSA000000000000000000000000000101961200029160104   29160104   007            008400101300   1000021     01200 0000000112468403000100000002368745010432106300C0000000011284030001000CUPF                                       
100C0006244310102082969   0000000015838400819133416702382586323081922310470238226480840   26480840   412100000001601103011637836UBR* PENDING.UBER.COM    SAN FRANCISCUSA000000000000000000000000000170238200029160104   29160104   007            008400101400   1000021     01200 0000000015838403000100000000333427310432106300C0000000001684030001000CUPF                                       
100C0006244310102082969   0000000018498400819030420350276547340081922301835027626480840   26480840   412100000001601103011637836UBR* PENDING.UBER.COM    SAN FRANCISCUSA000000000000000000000000000135027600029160104   29160104   007            008400101400   1000021     01200 0000000018498403000100000000389454910432106300C0000000001884030001000CUPF                                       
100C0006244310036110670   0000000112468400815040312019056443165081522260001905626480840   26480840   599912345678601100134871631VICTORIASSECRET.COM      victoriassecUSA000000000000000000000000000101905600029160104   29160104   007            008400101300   1000021     01200 0000000112468403000100000002368745010432106300C0000000011284030001000CUPF                                       
100C0006244310102082969   0000000043028400819095615542993678550081922300054299326480840   26480840   412100000001601103011637836UBR* PENDING.UBER.COM    SAN FRANCISCUSA000000000000000000000000000154299300029160104   29160104   007            008400101400   1000021     01200 0000000043028403000100000000906130310432106300C0000000004384030001000CUPF                                       
100C0006244310102082969   0000000016348400819062602821480755137081922302182148026480840   26480840   412100000001601103011637836UBR* PENDING.UBER.COM    SAN FRANCISCUSA000000000000000000000000000182148000029160104   29160104   007            008400101400   1000021     01200 0000000016348403000100000000344169410432106300C0000000001684030001000CUPF                                       
100C0006244310032049740   0000000199808400819093217005334738118081922300000533426480840   26480840   472212345678601110401881015COA*CHEAPOAIR.COM AIR    CHEAPOAIR.COUSA000000000000000000000000000100533400029160104   29160104   007            008400101300   1000021     01200 0000000199808403000100000004208387410432106300C0000000020084030001000CUPF                                       
100C0006244310032311710   0000004600001040820102010156793253069082075X66UDYUHST30360528   30360528   412130360528303605280001399Grab* A-3RRKOQMWWGQ3     Singapore   SGP000000000000000000000000000115679300029160104   29160104   007            005282101300   1000021     01200 0000000002208407000477600000046000010430001000C0000000000284030001000CUPF                                       
100C0006244310036366868   000001495000104081913220322065322178808196MRX9EBTBP7Z30360528   30360528   549930360528303605280238959Foodpanda Myanmar        Kuala LumpurMYS000000000000000000000000000122065300029160104   29160104   007            005282101300   1000021     01200 0000000007148407000477600000149500010430001000C0000000000784030001000CUPF                                       
100C0006244310109315040   0000000069938400820212700153466353832082076GV4PPCDQ5E30360528   30360528   472230360528303605280000987AGODA.COM BANGKOK CI     London      GBR000000000000000000000000000115346600029160104   29160104   007            005282101400   1000021     01200 0000000069938403000100000001472935610432106300C0000000007084030001000CUPF                                       
100C0006291102820231016   0000005050001040819163935151103477380081975X66UDYUDET30360528   30360528   549930360528303605280238959Foodpanda Myanmar        Kuala LumpurMYS000000000000000000000000000115110300029160104   29160104   007            005282101100   1000011     01200 0000000002418407000477600000050500010430001000C0000000000284030001000CUPF                                       
100C0006291102820242138   0000006885001040819193226142696477380081978NMW6YUA36530360528   30360528   549930360528303605280238959Foodpanda Myanmar        Kuala LumpurMYS000000000000000000000000000114269600029160104   29160104   007            005282101100   1000011     01200 0000000003298407000477600000068850010430001000C0000000000384030001000CUPF                                       
100C0006291102820242138   000000529200104081919384422238147738008196MRX9EBTBQJY30360528   30360528   549930360528303605280238959Foodpanda Myanmar        Kuala LumpurMYS000000000000000000000000000122238100029160104   29160104   007            005282101100   1000011     01200 0000000002538407000477600000052920010430001000C0000000000384030001000CUPF                                       
100C0006291102820247160   0000006800001040819123912159049477380081975X66UDYUBTU30360528   30360528   549930360528303605280238959Foodpanda Myanmar        Kuala LumpurMYS000000000000000000000000000115904900029160104   29160104   007            005282101100   1000011     01200 0000000003258407000477600000068000010430001000C0000000000384030001000CUPF                                       
100C0006244310036366868   0000007167501040819093331147428009047081978NMW6YU9Z3Z30360528   30360528   549930360528303605280238959Foodpanda Myanmar        Kuala LumpurMYS000000000000000000000000000114742800029160104   29160104   007            005282101300   1000021     01200 0000000003428407000477600000071675010430001000C0000000000384030001000CUPF                                       
100C0006291102820247160   0000003550001040819125049149058477380081978NMW6YUA0D830360528   30360528   549930360528303605280238959Foodpanda Myanmar        Kuala LumpurMYS000000000000000000000000000114905800029160104   29160104   007            005282101100   1000011     01200 0000000001708407000477600000035500010430001000C0000000000284030001000CUPF                                       
100C0006244310109315040   00000001460084008202111451430845190800820797BU2A7TEDT30360528   30360528   472230360528303605280000987AGODA.COM BANGKOK CI     London      GBR000000000000000000000000000114308400029160104   29160104   007            005282101400   1000021     01200 0000000146008403000100000003075198010432106300C0000000014684030001000CUPF                                       
100E0006244310032049740   0000000055007640819172704102657279432081922311710265737860764   37860764   541117010336541129830998194Thai Smart Card Company Limited         000000000000000000000000000110265700029160104   29160104   003            007640100308   0000021     05200 0000000001558407028112600000032567510455921355D0000000000084030001000CUPF                                       5C622E9B0E0AE84005200150E0F8C8008000E00013B5E4B0324C393107010103A0200201                                                005E7C00220819764                                          0000000000000000764800000000000001E030022A000000333010102                002000008960                              
100E0006244310032049740   0000000134507640819172558102547948935081922311710254737860764   37860764   541117211251541129830998194Thai Smart Card Company Limited         000000000000000000000000000110254700029160104   29160104   003            007640100308   0000021     05200 0000000003788407028112600000079642210455921355C0000000000184030001000CUPF                                       D6CB047315850CB605200150E0F8C8008000E000B02D13D8324D343007010103A0200201                                                005D7C00220819764                                          0000000000000000764800000000000001E030022A000000333010102                002000013602                              
100E0006244310032049740   0000000188757640820103553003406583565082022320200340626760764   26760764   549924739006002206724809   EK-CHAI  110654 SATHOR   BANGKOK     THA000000000000000000000000000100340600029160104   29160104   003            007640100308   0000021     05200 0000000005318407028112600000111765610455921355C0000000000184030001000CUPF                                       58FCCC3549FB51EB05200150E0F8C8008000E800D603F2D98128715307010103A0200201                                                005F7C00220820764                                          0000000000018875764800000000000001E030022A000000333010102                003200000535                              
100E0006244310105324194   0000000720507640819225647750974243180081922312275097434300764   34300764   541173740029401000509208001BIG C SUPERCENTER-RATDAMRBANGKOK     THA000000000000000000000000000175097400029160104   29160104   003F           007641100408   0000021     05200 0000000020268407028112600000426633610455921355C0000000001984030001000CUPF                                       71D434F45300F9A805200150E0F8C8000000E00081D901C07533232707010103A0200201                                                000B7C00220819764                                          0000000000072050764800000000000001E030022A000000333010102                003000000024                              
100E0006244310105324194   0000003160507640819225906682913408429081922312268291334300764   34300764   541173740029401000509208001BIG C SUPERCENTER-RATDAMRBANGKOK     THA000000000000000000000000000168291300029160104   29160104   003F           007641100408   0000021     05200 0000000088858407028112600001871444210455921355C0000000008484030001000CUPF                                       8C60DB7183C9073F05200150E0F8C8000000E0004A68F4A90191114907010103A0200201                                                000C7C00220819764                                          0000000000316050764800000000000001E030022A000000333010102                003000000026                              
100E0006244310105324194   0000001440007640819221204466660077932081922312246666034300764   34300764   541173740217401000509208001BIG C SUPERCENTER-RATDAMRBANGKOK     THA000000000000000000000000000146666000029160104   29160104   003F           007641100408   0000021     05200 0000000040488407028112600000852675110455921355C0000000003884030001000CUPF                                       16027FFDAFDD8B4305200150E0F8C8000000E000970595CA0339920207010103A0200201                                                000A7C00220819764                                          0000000000144000764800000000000001E030022A000000333010102                003000000056                              
