100C0006291102820224177   00000000149984008251504122530284773800825alwhQoh3xfVH28000392   00049992   539901080209800039253992034Xsolla Inc                              000000000000000000000000000025302800029160104   29160104   007            003922101100   0900011     01200 0000000014998403000100000000323627810432158958C0000000001584030001000CUPF                                       
100C0006244310039493982   0000013100001040825092553157964848507082575X66UM62ETP30360528   30360528   412130360528303605280001399Grab* A-3SG56QDWWIIR     Singapore   SGP000000000000000000000000000115796400029160104   29160104   007            005282101300   1000021     01200 0000000006268407000477600000131000010430001000C0000000000684030001000CUPF                                       
100C0006291102820242138   000000512000104082420431423583647738008246K1GK1Z59UGP30360528   30360528   549930360528303605280238959Foodpanda Myanmar        Kuala LumpurMYS000000000000000000000000000123583600029160104   29160104   007            005282101100   1000011     01200 0000000002458407000477600000051200010430001000C0000000000284030001000CUPF                                       
100C0006291102820242138   000000875000104082409145222225647738008246MRX9EK0PVOQ30360528   30360528   549930360528303605280238959Foodpanda Myanmar        Kuala LumpurMYS000000000000000000000000000122225600029160104   29160104   007            005282101100   1000011     01200 0000000004188407000477600000087500010430001000C0000000000484030001000CUPF                                       
100C0006244310032311710   0000004600001040825102857149470805959082578NMW772HMKF30360528   30360528   412130360528303605280001399Grab* A-3SG86H9WWETO     Singapore   SGP000000000000000000000000000114947000029160104   29160104   007            005282101300   1000021     01200 0000000002208407000477600000046000010430001000C0000000000284030001000CUPF                                       
100C0006291102820247160   0000011250001040824132406142546477380082478NMW772HH8A30360528   30360528   549930360528303605280238959Foodpanda Myanmar        Kuala LumpurMYS000000000000000000000000000114254600029160104   29160104   007            005282101100   1000011     01200 0000000005378407000477600000112500010430001000C0000000000584030001000CUPF                                       
100C0006244310032311710   0000004700001040825193007153216120244082575X66UM62IV830360528   30360528   412130360528303605280001399Grab* A-3SHQ5JXWWEA9     Singapore   SGP000000000000000000000000000115321600029160104   29160104   007            005282101300   1000021     01200 0000000002248407000477600000047000010430001000C0000000000284030001000CUPF                                       
100C0006291102820236031   0000005150001040825131755141209477380082578NMW772HNWM30360528   30360528   412130360528303605280001399Grab* A-3SGQEKHGWGKO     Singapore   SGP000000000000000000000000000114120900029160104   29160104   007            005282101100   1000011     01200 0000000002468407000477600000051500010430001000C0000000000284030001000CUPF                                       
100C0006244310031607183   000000052152840082513173722783206124808256NBM79VE936Z30360528   30360528   472230360528303605280000987AGODA.COM GALLERIA 1     London      GBR000000000000000000000000000122783200029160104   29160104   007            005282101300   1000021     01200 0000000521528403000100000010984775810432106300C0000000052284030001000CUPF                                       
100E0006244310030303669   0000000005058400824010903511089271802082432350014240926480840   26480840   554112345678601110052363834CHEVRON 0306915          AMERICAN CANUSA000000000000000000000000000151108900029160104   29160104   003            008400101300   0000021     05200 0000000005058403000100000000106368210432106300C0000000000184030001000CUPF                                                       052000                                                                                                                                                                                                                                                                                
100C0006244310030303669   0000000031258400824044616001240932796082422350000124026480840   26480840   581212345678601110417614764SQ *LIVE FIRE PIZZA      Napa        USA000000000000000000000000000100124000029160104   29160104   003            008400101300   0000021     02200 0000000031258403000100000000658218810432106300C0000000000684030001000CUPF                                       
100C0006244310031453562   0000000163838400824052442820954759038082422352082095426480840   26480840   581200A46858601103076735251HOG ISLAND NAPA          NAPA        USA000000000000000000000000000182095400029160104   29160104   003            008400101300   0000021     02200 0000000163838403000100000003450751310432106300C0000000003384030001000CUPF                                       
100C0006244310106122910   0000000004848400824010744510150106554082432350014154326480840   26480840   554112345678601110052363834CHEVRON 0306915          AMERICAN CANUSA000000000000000000000000000151015000029160104   29160104   003            008400101400   0000021     02200 0000000004848403000100000000101944910432106300C0000000000184030001000CUPF                                       
100E0006244310107636223   000000000350840082223270200772069065208233302N364HAB226480840   26480840   531032344302601100140739020DOLLAR GENERAL #23443    AVENAL      USA000000000000000000000000000100772000029160104   29160104   003            008400101400   0000021     05200 0000000003508403000100000000073720510432106300C0000000000184030001000CUPF                                                       052000                                                                                                                                                                                                                                                                                
100E0006244310037439243   0000000120007640824103559481001601727082422361048100137860764   37860764   541119210640541199910943358Thai Smart Card Company Limited         000000000000000000000000000148100100029160104   29160104   003            007640100308   0000021     07200 0000000003348407027809200000070289510455857456C0000000000184030001000CUPF                                       0415A3E4F0A086DE07200150E0F8C80000000000E4DBA357324D353807010103A0000001                                                00077C00220824764                                          000000000001200076480                  22A000000333010102                    00000000                              
100E0006244310038553414   0000000790007640825211902080508730180082522371308050826760764   26760764   531127011069002201420205   ROBINSON-SRINAKARIN      BANGKOK     THA000000000000000000000000000108050800029160104   29160104   003            007640100308   0000021     05200 0000000022138407028014600000466157010455900722C0000000000484030001000CUPF                                       B5370C4237BB862D05200150E0F0C8008000E8000F3E88932469768107010103A0200201                                                00077C00220825764                                          0000000000079000764800000000000001E030022A000000333010102                002000003857                              
100C0006291102820207545   0000001677207640825200004001453477380082500000568657031000764   31000764   5137200006167647640010019582C2P*H AND M           BANGKOK       THA000000000000000000000000000100145300029160104   29160104   007F           007642100100   0900011     01200 0000000046998407028014600001014410810456048240C0000000004784030001000CUPF                                       
