100C0006244310032311710   0000004900001040824193237145757637145082478NMW772HJPD30360528   30360528   412130360528303605280001399Grab* A-3SDM7BHWWF8A     Singapore   SGP000000000000000000000000000114575700029160104   29160104   007            005282101300   1000021     01200 0000000002348407000477600000049000010430001000C0000000000284030001000CUPF                                       
100C0006291102820249109   0000006600001040824172606144520477380082478NMW772HIR330360528   30360528   412130360528303605280001399Grab* A-3SDDAU4WWHD6     Singapore   SGP000000000000000000000000000114452000029160104   29160104   007            005282101100   1000011     01200 0000000003158407000477600000066000010430001000C0000000000384030001000CUPF                                       
100C0006244310033813987   0000020150001040823143918144124011569082378NMW772HAQK30360528   30360528   549930360528303605280238959Foodpanda Myanmar        Kuala LumpurMYS000000000000000000000000000114412400029160104   29160104   007            005282101300   1000021     01200 0000000009628407000477600000201500010430001000C0000000001084030001000CUPF                                       
100C0006291102820242138   0000006035001040823114015142310477380082378NMW772H9C730360528   30360528   549930360528303605280238959Foodpanda Myanmar        Kuala LumpurMYS000000000000000000000000000114231000029160104   29160104   007            005282101100   1000011     01200 0000000002888407000477600000060350010430001000C0000000000384030001000CUPF                                       
100C0006291102820231016   000000505000104082318524522034647738008236MRX9EK0PU7P30360528   30360528   549930360528303605280238959Foodpanda Myanmar        Kuala LumpurMYS000000000000000000000000000122034600029160104   29160104   007            005282101100   1000011     01200 0000000002418407000477600000050500010430001000C0000000000284030001000CUPF                                       
100C0006244310032311710   0000004600001040824102300140889542732082478NMW772HFYB30360528   30360528   412130360528303605280001399Grab* A-3SC3MGMWWGDB     Singapore   SGP000000000000000000000000000114088900029160104   29160104   007            005282101300   1000021     01200 0000000002208407000477600000046000010430001000C0000000000284030001000CUPF                                       
100C0006291102820236031   0000005150001040824125049142217477380082478NMW772HGZ530360528   30360528   412130360528303605280001399Grab* A-3SCK4FUGWIPF     Singapore   SGP000000000000000000000000000114221700029160104   29160104   007            005282101100   1000011     01200 0000000002468407000477600000051500010430001000C0000000000284030001000CUPF                                       
100C0006291102820242138   000000870000104082316294623986547738008236K1GK1Z59PUZ30360528   30360528   549930360528303605280238959Foodpanda Myanmar        Kuala LumpurMYS000000000000000000000000000123986500029160104   29160104   007            005282101100   1000011     01200 0000000004168407000477600000087000010430001000C0000000000484030001000CUPF                                       
100E0006291102820229895   0000000640007640824172505903988477380082400002072346526990764   26990764   563196020595000000002375336B.V.C.INTERNATI 2375336  BANGKOK     THA000000000000000000000000000190398800029160104   29160104   003            007640100108   0000011     05100 0000000017808407027809200000384249110456003892C0000000000384030001000CUPF                                       0BB129C431020FFF05100160E0F8C80080048000B08E78799602059507210103A0200201                                                    7C00220824764                                          00000000000640007648000000000000002030022A000000333010101                002000001216                              
100C0006244310034895140   0000000001008400822221318196559855900082322341619655926480124   26480840   581712345678601181482962537VPNNEXT SUBSCRIPTION     MONTREAL    CAN000000000000000000000000000119655900029160104   29160104   007            001240101300   1000021     01200 0000000001008403000100000000021063010432106300C0000000000184030001000CUPF                                       
100E0006244310036110670   000000004851840082301195903393697753108236519N971HAW226480840   26480840   541132615077601101640026157TARGET T-2615            FREMONT     USA000000000000000000000000000103393600029160104   29160104   003            008400101300   0000021     05200 0000000048518403000100000001021766110432106300C0000000001084030001000CUPF                                                       052000                                                                                                                                                                                                                                                                                
100C0006244310102082969   0000000176078400822235724700521847391082222341470052126480840   26480840   412100000001601103011637836UBR* PENDING.UBER.COM    SAN FRANCISCUSA000000000000000000000000000170052100029160104   29160104   007            008400101400   1000021     01200 0000000176078403000100000003708562410432106300C0000000017684030001000CUPF                                       
100C0006244310102082969   0000000044448400823003836541483021149082322341554148326480840   26480840   581200000001601103019138787UBER   * EATS PENDING    SAN FRANCISCUSA000000000000000000000000000154148300029160104   29160104   007            008400101400   1000021     01200 0000000044448403000100000000936039710432106300C0000000004484030001000CUPF                                       
100C0006244310102082969   0000000005008400823020002572165194907082322341757216526480840   26480840   581200000001601103019138787UBER   *EATS             SAN FRANCISCUSA000000000000000000000000000157216500029160104   29160104   007            008400101400   1000021     01200 0000000005008403000100000000105315010432106300C0000000000584030001000CUPF                                       
100E0006244310107636223   0000000004128400823011607166036351646082322340006459726480840   26480840   554112345678601110052325676CHEVRON 0098013          PASO ROBLES USA000000000000000000000000000116603600029160104   29160104   003            008400101400   0000021     05200 0000000004128403000100000000086779610432106300C0000000000184030001000CUPF                                                       052000                                                                                                                                                                                                                                                                                
100E0006244310037439243   0000000228007640823120553405241939926082322351240524137860764   37860764   541119210640541199910943358Thai Smart Card Company Limited         000000000000000000000000000140524100029160104   29160104   003            007640100308   0000021     07200 0000000006348407027828500000133642410455861509C0000000000184030001000CUPF                                       77C7FA95473B191D07200150E0F8C80000000000ECEEF702324D353807010103A0000001                                                00057C00220823764                                          000000000002280076480                  22A000000333010102                    00000000                              
100C0006291102820207545   0000000300007640824123103001438477380082400000567301731000764   31000764   5137200006167647640010019582C2P*H AND M           BANGKOK       THA000000000000000000000000000100143800029160104   29160104   007F           007642100100   0900011     01200 0000000008348407027809200000180116810456003892C0000000000884030001000CUPF                                       
100C0006291102820207545   0000000119007640824132800001440477380082400000567363031000764   31000764   5137200006167647640010019582C2P*H AND M           BANGKOK       THA000000000000000000000000000100144000029160104   29160104   007F           007642100100   0900011     01200 0000000003318407027809200000071446310456003892C0000000000384030001000CUPF                                       
