100C0006244310032311710   0000004800001040828171307148636173094082878NMW7E8IILX30360528   30360528   412130360528303605280001399Grab* A-3STPEUPWWGI5     Singapore   SGP000000000000000000000000000114863600029160104   29160104   007            005282101300   1000021     01200 0000000002298407000477600000048000010430001000C0000000000284030001000CUPF                                       
100C0006244310031352954   000000625000104082710051622634428273408276MRX9EK0Q6JB30360528   30360528   549930360528303605280238959Foodpanda Myanmar        Kuala LumpurMYS000000000000000000000000000122634400029160104   29160104   007            005282101300   1000021     01200 0000000002998407000477600000062500010430001000C0000000000384030001000CUPF                                       
100C0006244310038553414   00000006375076408281155121455988940490828797BU2PM1JH930360528   30360528   472230360528303605280000987AGODA.COM LEE NOVA H     London      GBR000000000000000000000000000114559800029160104   29160104   007            005282101300   1000021     01200 0000000017848407027991200000375856710455895792C0000000001884030001000CUPF                                       
100C0006244310032311710   000000480000104082813163423338602843108286K1GK26C0PAL30360528   30360528   412130360528303605280001399Grab* A-3ST46A5WWJOB     Singapore   SGP000000000000000000000000000123338600029160104   29160104   007            005282101300   1000021     01200 0000000002298407000477600000048000010430001000C0000000000284030001000CUPF                                       
100C0006291102820221694   0000007705001040827135046149838477380082778NMW772I28Y30360528   30360528   549930360528303605280238959Foodpanda Myanmar        Kuala LumpurMYS000000000000000000000000000114983800029160104   29160104   007            005282101100   1000011     01200 0000000003688407000477600000077050010430001000C0000000000484030001000CUPF                                       
100C0006291102820244068   0000009522501040827135627158592477380082775X66UM62UPF30360528   30360528   549930360528303605280238959Foodpanda Myanmar        Kuala LumpurMYS000000000000000000000000000115859200029160104   29160104   007            005282101100   1000011     01200 0000000004558407000477600000095225010430001000C0000000000584030001000CUPF                                       
100C0006291102820201050   0000008575001040827111901148148477380082778NMW772I0Y430360528   30360528   549930360528303605280238959Foodpanda Myanmar        Kuala LumpurMYS000000000000000000000000000114814800029160104   29160104   007            005282101100   1000011     01200 0000000004108407000477600000085750010430001000C0000000000484030001000CUPF                                       
100C0006291102820242138   0000004373251040827182524140314477380082778NMW7E8IC7530360528   30360528   549930360528303605280238959Foodpanda Myanmar        Kuala LumpurMYS000000000000000000000000000114031400029160104   29160104   007            005282101100   1000011     01200 0000000002098407000477600000043732510430001000C0000000000284030001000CUPF                                       
100C0006291102820231008   0000002900001040827185005140585477380082778NMW7E8ICEO30360528   30360528   549930360528303605280238959Foodpanda Myanmar        Kuala LumpurMYS000000000000000000000000000114058500029160104   29160104   007            005282101100   1000011     01200 0000000001398407000477600000029000010430001000C0000000000184030001000CUPF                                       
100C0006291102820242138   0000009237371040827150544140542477380082778NMW772I2SI30360528   30360528   549930360528303605280238959Foodpanda Myanmar        Kuala LumpurMYS000000000000000000000000000114054200029160104   29160104   007            005282101100   1000011     01200 0000000004418407000477600000092373710430001000C0000000000484030001000CUPF                                       
100C0006291102820202363   0000004460001040827191212140818477380082778NMW7E8ICL530360528   30360528   549930360528303605280238959Foodpanda Myanmar        Kuala LumpurMYS000000000000000000000000000114081800029160104   29160104   007            005282101100   1000011     01200 0000000002138407000477600000044600010430001000C0000000000284030001000CUPF                                       
100C0006244310031352954   000000605000104082709340823651129124408276K1GK1Z5A2ON30360528   30360528   549930360528303605280238959Foodpanda Myanmar        Kuala LumpurMYS000000000000000000000000000123651100029160104   29160104   007            005282101300   1000021     01200 0000000002898407000477600000060500010430001000C0000000000384030001000CUPF                                       
100C0006244310033813987   000001595000104082715400322794978342408276MRX9EK0Q7RR30360528   30360528   549930360528303605280238959Foodpanda Myanmar        Kuala LumpurMYS000000000000000000000000000122794900029160104   29160104   007            005282101300   1000021     01200 0000000007628407000477600000159500010430001000C0000000000884030001000CUPF                                       
100E0006244310032049740   0000000585007640827135648880831023880082722391388083134300764   34300764   597790276864401013163998001MULTY-SIAM SQUARE        BANGKOK     THA000000000000000000000000000188083100029160104   29160104   003F           007641100308   0000021     05200 0000000016378407027991200000344903810455895792C0000000000384030001000CUPF                                       0864AD2C7F5A5A9605200150E0F8C8000000E000F5D3B3170250273907010103A0200201                                                00657C00220827764                                          0000000000058500764800000000000001E030022A000000333010102                0030                                      
100C0006244310034800660   0000000003207020828055807980422931259082822400598042240850702   40530036   5999VVGBNZ07R3OK2UGQQFUFIIQAMAZON RETAIL SG         SINGAPORE   SGP000000000000000000000000000198042200029160104   29160104   007F           007022101300   1000021     01200 0000000002318407721252000000048613510431519173C0000000000284030001000CUPF                                       
100C0006244310034800660   0000000013407020828022923489318267094082822400248931840850702   40530036   5999VVGBNZ07R3OK2UGQQFUFIIQAMAZON RETAIL SG         SINGAPORE   SGP000000000000000000000000000148931800029160104   29160104   007F           007022101300   1000021     01200 0000000009668407721252000000203569210431519173C0000000001084030001000CUPF                                       
100E0006244310031609916   0000000006007640828195951000228396531082822401100022826760764   26760764   549924716865002201405693   LOTUS'S 1875 KHONKAEN    KHONKAEN    THA000000000000000000000000000100022800029160104   29160104   003            007640100308   0000021     05200 0000000000178407027991200000003537510455895792D0000000000084030001000CUPF                                       F4F7536BF9C9CBD805200150E0F8C8008000E800E65F47DE8128170407010103A0200201                                                00527C00220828764                                          0000000000000600764800000000000001E030022A000000333010102                003200000273                              
100E0006244310031609916   0000000495507640828195915000227561780082822401100022726760764   26760764   549924716865002201405693   LOTUS'S 1875 KHONKAEN    KHONKAEN    THA000000000000000000000000000100022700029160104   29160104   003            007640100308   0000021     05200 0000000013878407027991200000292136510455895792C0000000000384030001000CUPF                                       750B37BA888CBB8C05200150E0F8C8008000E80087A853048128170407010103A0200201                                                00517C00220828764                                          0000000000049550764800000000000001E030022A000000333010102                003200000272                              
100C0006244310030303669   0000000014508400827095515004649926709082722380000464926480840   26480840   581212345678601110402280480SQ *SALT & STRAW         Portland    USA000000000000000000000000000100464900029160104   29160104   003            008400101300   0000021     02200 0000000014508403000100000000305413510432106300C0000000000384030001000CUPF                                       
100C0006244310105494609   0000000002828400826072655330895259963082622372233089526480840   26480840   412100000001601103011637836UBR* PENDING.UBER.COM    SAN FRANCISCUSA000000000000000000000000000133089500029160104   29160104   007            008400101400   1000021     01200 0000000002828403000100000000059397710432106300C0000000000384030001000CUPF                                       
100C0006244310105494609   0000000052358400825145700007212323668082522370000721226480840   26480840   594212345678601101028208625Amazon.com               Amzn.com/bilUSA000000000000000000000000000100721200029160104   29160104   007            008400101400   1000021     01200 0000000052358403000100000001102648110432106300C0000000005284030001000CUPF                                       
100C0006291102820207545   0000001014007640828212533005409477380082800000571367831000764   31000764   5999100229867647640010014562C2P*CENTRAL.CO.TH     BANGKOK       THA000000000000000000000000000100540900029160104   29160104   007F           007642100100   0700011     01200 0000000028388407027991200000612779210456043187C0000000002884030001000CUPF                                       
