100   9503051025853181000000000002200000000002200000200000001041040302065453000187WVZM9I0302206113000187   1030000100030000   541110001905777031200000019MOB BANK               YGN           MMR11003020654530001870302000000000000000   10300002 00104100000000000000000000004400     
100   9503051897711657000000000000950000000000950000200000001041040302110304000031IAG4IN0302206117000031   1030000100030000   541120003117777031200000031MOB BANK               YGN           MMR11003021103040000310302000000000000000   10300002 00104100000000000000000000001900     
100   35710500310077330000000000007700000000007700002000000010410403020627040000249078460302206112000024   1030000100030000   541120003114777031200000031MOB BANK               YGN           MMR11003020627040000240302000000000000000   10300005 00104100000000000000000000001540     
100   62346600152353730000000000010000000000010000002000000010410403021009580010481596720302206116001048   1030000100030000   581250000001777031200000005MOB BANK               YGN           MMR11003021009580010480302000000000000000   10300005 00104100000000000000000000003400     
100   35710500112221200000000000040000000000040000002000000010410403021047070010492495870302206117001049   1030000100030000   581250000001777031200000005MOB BANK               YGN           MMR11003021047070010490302000000000000000   10300005 00104100000000000000000000013600     
100   35710500334518480000000000010450000000010450002000000010410403021114240010505460810302206117001050   1030000100030000   581250000001777031200000005MOB BANK               YGN           MMR11003021114240010500302000000000000000   10300005 00104100000000000000000000003553     
100   35710830726306670000000000009150000000009150002000000010410403021137530010512107410302206118001051   1030000100030000   581250000001777031200000005MOB BANK               YGN           MMR11003021137530010510302000000000000000   10300003 00104100000000000000000000003111     
100   35710500125496790000000000011000000000011000002000000010410403021142490010529770780302206118001052   1030000100030000   581250000001777031200000005MOB BANK               YGN           MMR11003021142490010520302000000000000000   10300005 00104100000000000000000000003740     
100   35710500365275450000000000015400000000015400002000000010410403020318210010461748970302206109001046   1030000100030000   581250000001777031200000005MOB BANK               YGN           MMR11003020318210010460302000000000000000   10300005 00104100000000000000000000005236     
100   35710500315182000000000000116900000000116900002000000010410403020926390001546179240302206115000154   1030000100030000   541110001907777031200000019MOB BANK               YGN           MMR11003020926390001540302000000000000000   10300005 00104100000000000000000000023380     
100   9503051894325881000000000003946000000003946000200000001041040302060118000020I9ODOA0302206112000020   1030000100030000   541110001901777031200000019MOB BANK               YGN           MMR11003020601180000200302000000000000000   10300002 00104100000000000000000000007892     
100   35710500315182000000000000049800000000049800002000000010410403020928130001564710740302206115000156   1030000100030000   541110001907777031200000019MOB BANK               YGN           MMR11003020928130001560302000000000000000   10300005 00104100000000000000000000009960     
100   9503051020371619000000000000785000000000785000200000001041040302110105000200TFAJFT0302206117000200   1030000100030000   541110001905777031200000019MOB BANK               YGN           MMR11003021101050002000302000000000000000   10300002 00104100000000000000000000001570     
100   35710500382722490000000000043200000000043200002000000010410403020935220001583143350302206116000158   1030000100030000   541110001907777031200000019MOB BANK               YGN           MMR11003020935220001580302000000000000000   10300005 00104100000000000000000000008640     
100   95030800097075430000000000150000000000150000002000000010410403020932090003621353100302206116000362   1030000100030000   541120000004777031200000002MOB BANK               YGN           MMR11003020932090003620302000000000000000   10300003 00104100000000000000000000030000     
100   35710830163386580000000000020850000000020850002000000010410403020711110000260507310302206113000026   1030000100030000   541120003117777031200000031MOB BANK               YGN           MMR11003020711110000260302000000000000000   10300003 00104100000000000000000000004170     
100   35710500305770090000000000112000000000112000002000000010410403020802420001484541670302206114000148   1030000100030000   541110001907777031200000019MOB BANK               YGN           MMR11003020802420001480302000000000000000   10300005 00104100000000000000000000022400     
100   35710830534823850000000000129580000000129580002000000010410403020737190001430664010302206114000143   1030000100030000   541110001907777031200000019MOB BANK               YGN           MMR11003020737190001430302000000000000000   10300003 00104100000000000000000000025916     
100   35710500185199080000000000001700000000001700002000000010410403020755210001450092320302206114000145   1030000100030000   541110001907777031200000019MOB BANK               YGN           MMR11003020755210001450302000000000000000   10300005 00104100000000000000000000000340     
100   62346600118885220000000000049500000000049500002000000010410403020813500002847647130302206114000284   1030000100030000   541120000002777031200000002MOB BANK               YGN           MMR11003020813500002840302000000000000000   10300005 00104100000000000000000000009900     
100   9503051884391315000000000000837000000000837000200000001041040302062023000015BD8H0E0302206112000015   1030000100030000   541120003111777031200000031MOB BANK               YGN           MMR11003020620230000150302000000000000000   10300002 00104100000000000000000000001674     
100   95030510248163790000000000040500000000040500002000000010410403020619300000169KIXWQ0302206112000016   1030000100030000   541120003112777031200000031MOB BANK               YGN           MMR11003020619300000160302000000000000000   10300002 00104100000000000000000000008100     
100   95030201370623040000000000036652000000036652002000000010410403020828270001509031050302206114000150   1030000100030000   541110001907777031200000019MOB BANK               YGN           MMR11003020828270001500302000000000000000   10200002 00104100000000000000000000007330     
100   9503051888209414000000000001410000000001410000200000001041040302092052000152HL7PUG0302206115000152   1030000100030000   541110001907777031200000019MOB BANK               YGN           MMR11003020920520001520302000000000000000   10300002 00104100000000000000000000002820     
100   9503051019605159000000000002462100000002462100200000001041040302091432000192DOA5EE0302206115000192   1030000100030000   541110001905777031200000019MOB BANK               YGN           MMR11003020914320001920302000000000000000   10300002 00104100000000000000000000004924     
100   35710830309052840000000000027700000000027700002000000010410403020343570001709263900302206110000170   1030000100030000   541110001905777031200000019MOB BANK               YGN           MMR11003020343570001700302000000000000000   10300003 00104100000000000000000000005540     
100   35710830069344090000000000011600000000011600002000000010410403020446450001749640710302206111000174   1030000100030000   541110001905777031200000019MOB BANK               YGN           MMR11003020446450001740302000000000000000   10300003 00104100000000000000000000002320     
100   95030510259429350000000000011500000000011500002000000010410403020456470001807FRNAV0302206111000180   1030000100030000   541120000017777031200000002MOB BANK               YGN           MMR11003020456470001800302000000000000000   10300002 00104100000000000000000000002300     
100   950319000321660500000000000229500000000229500020000000104104030205210500018160541V0302206111000181   1030000100030000   541110001905777031200000019MOB BANK               YGN           MMR11003020521050001810302000000000000000   10300014 00104100000000000000000000004590     
100   35710830277901110000000000195000000000195000002000000010410403020527250001399884710302206111000139   1030000100030000   541110001907777031200000019MOB BANK               YGN           MMR11003020527250001390302000000000000000   10300003 00104100000000000000000000039000     
100   35710500375402810000000000030500000000030500002000000010410403020546060000225940330302206112000022   1030000100030000   541120003115777031200000031MOB BANK               YGN           MMR11003020546060000220302000000000000000   10300005 00104100000000000000000000006100     
100   35710830391966120000000000010100000000010100002000000010410403020617150001410183710302206112000141   1030000100030000   541110001907777031200000019MOB BANK               YGN           MMR11003020617150001410302000000000000000   10300003 00104100000000000000000000002020     
100   95031010640487530000000000008526000000008526002000000010410403020345240000228823490302206110000022   1030000100030000   541120003102777031200000031MOB BANK               YGN           MMR11003020345240000220302000000000000000   10300005 00104100000000000000000000001705     
