100   9503051889080392000000000002750000000002750000200000001041040305121123001065YB6V2A0305206418001065   1030000100030000   581250000001777031200000005MOB BANK               YGN           MMR11003051211230010650305000000000000000   10300002 00104100000000000000000000009350     
100   35710830355259540000000000011300000000011300002000000010410403050817110000876823220305206414000087   1030000100030000   541110001915777031200000019MOB BANK               YGN           MMR11003050817110000870305000000000000000   10300003 00104100000000000000000000002260     
100   35710500334324180000000000016500000000016500002000000010410403051116240000506079930305206417000050   1030000100030000   541110001903777031200000019MOB BANK               YGN           MMR11003051116240000500305000000000000000   10300005 00104100000000000000000000003300     
100   95031900000244320000000000011000000000011000002000000010410403051021120001127KU81V0305206416000112   1030000100030000   541110001915777031200000019MOB BANK               YGN           MMR11003051021120001120305000000000000000   10300014 00104100000000000000000000002200     
100   35710950334893140000000000002450000000002450002000000010410403050717440000306466610305206413000030   1030000100030000   541120003102777031200000031MOB BANK               YGN           MMR11003050717440000300305000000000000000   10300003 00104100000000000000000000000490     
100   9503051024970127000000000001278000000001278000200000001041040305084616000030VDXXWU0305206415000030   1030000100030000   541120003001777031200000030MOB BANK               YGN           MMR11003050846160000300305000000000000000   10300002 00104100000000000000000000002556     
100   35710500313602720000000000023500000000023500002000000010410403050756390000853600940305206414000085   1030000100030000   541110001915777031200000019MOB BANK               YGN           MMR11003050756390000850305000000000000000   10300005 00104100000000000000000000004700     
100   62343301012432810000000000005400000000005400002000000010410403051101460001158007870305206417000115   1030000100030000   541110001915777031200000019MOB BANK               YGN           MMR11003051101460001150305000000000000000   10300004 00104100000000000000000000001080     
100   95031100013881800000000000095000000000095000002000000010410403051119500001999953470305206417000199   1030000100030000   541110001907777031200000019MOB BANK               YGN           MMR11003051119500001990305000000000000000   10300006 00104100000000000000000000019000     
100   62343301012432810000000000006450000000006450002000000010410403051044480002789916190305206417000278   1030000100030000   541110001905777031200000019MOB BANK               YGN           MMR11003051044480002780305000000000000000   10300004 00104100000000000000000000001290     
100   95030510259974420000000000102300000000102300002000000010410403051335590003189KS3EY0305206420000318   1030000100030000   581210001501777031200000015MOB BANK               YGN           MMR11003051335590003180305000000000000000   10300002 00104100000000000000000000034782     
100   35710500370579060000000000009225000000009225002000000010410403050957030000317600240305206416000031   1030000100030000   541120003001777031200000030MOB BANK               YGN           MMR11003050957030000310305000000000000000   10300005 00104100000000000000000000001845     
100   35710830853048540000000000017150000000017150002000000010410403050819430000896838410305206414000089   1030000100030000   541110001915777031200000019MOB BANK               YGN           MMR11003050819430000890305000000000000000   10300003 00104100000000000000000000003430     
100   35711450001371390000000000069600000000069600002000000010410403050438480002668551300305206411000266   1030000100030000   541110001905777031200000019MOB BANK               YGN           MMR11003050438480002660305000000000000000   10200001 00104100000000000000000000013920     
100   9503051025697661000000000003077200000003077200200000001041040305062342000185MJC5AY0305206412000185   1030000100030000   541110001907777031200000019MOB BANK               YGN           MMR11003050623420001850305000000000000000   10300002 00104100000000000000000000006154     
100   35650883650002940000000000009408000000009408002000000010410403051009390000329820820305206416000032   1030000100030000   541120003001777031200000030MOB BANK               YGN           MMR11003051009390000320305000000000000000   10300005 00104100000000000000000000003293     
100   9503051025462298000000000005760000000005760000200000001041040305025146000033TUPBFT0305206409000033   1030000100030000   541110001903777031200000019MOB BANK               YGN           MMR11003050251460000330305000000000000000   10300002 00104100000000000000000000011520     
100   35710830853048540000000000098000000000098000002000000010410403050821470000916850810305206414000091   1030000100030000   541110001915777031200000019MOB BANK               YGN           MMR11003050821470000910305000000000000000   10300003 00104100000000000000000000019600     
100   9503051891291474000000000001595000000001595000200000001041040305103232001064FANATM0305206417001064   1030000100030000   581250000001777031200000005MOB BANK               YGN           MMR11003051032320010640305000000000000000   10300002 00104100000000000000000000005423     
100   9503051872499823000000000004792000000004792000200000001041040305105431000280GIDVSM0305206417000280   1030000100030000   541110001905777031200000019MOB BANK               YGN           MMR11003051054310002800305000000000000000   10300002 00104100000000000000000000009584     
100   35710500375545630000000000030576000000030576002000000010410403050729400001934174750305206413000193   1030000100030000   541110001907777031200000019MOB BANK               YGN           MMR11003050729400001930305000000000000000   10300005 00104100000000000000000000006115     
100   62622000336055650000000000180600000000180600002000000010410403050253180000349950610305206409000034   1030000100030000   541110001903777031200000019MOB BANK               YGN           MMR11003050253180000340305000000000000000   10300006 00104100000000000000000000036120     
100   35710830344441160000000000050700000000050700002000000010410403050941410000357330210305206416000035   1030000100030000   541120003102777031200000031MOB BANK               YGN           MMR11003050941410000350305000000000000000   10300003 00104100000000000000000000010140     
100   9503051872341033000000000005720000000005720000200000001041040305091425000270U6KGL30305206415000270   1030000100030000   541110001905777031200000019MOB BANK               YGN           MMR11003050914250002700305000000000000000   10300002 00104100000000000000000000011440     
100   35710500375149970000000000037500000000037500002000000010410403050626290001871117960305206412000187   1030000100030000   541110001907777031200000019MOB BANK               YGN           MMR11003050626290001870305000000000000000   10300005 00104100000000000000000000007500     
100   35710830799414300000000000032800000000032800002000000010410403050402050000355292610305206410000035   1030000100030000   541110001903777031200000019MOB BANK               YGN           MMR11003050402050000350305000000000000000   10300003 00104100000000000000000000006560     
100   9503051885508297000000000001000000000001000000200000001041040305063522000063B89DIL0305206413000063   1030000100030000   541110001920777031200000019MOB BANK               YGN           MMR11003050635220000630305000000000000000   10300002 00104100000000000000000000002000     
100   95030800003565140000000000055700000000055700002000000010410403050443360001815541730305206411000181   1030000100030000   541110001907777031200000019MOB BANK               YGN           MMR11003050443360001810305000000000000000   10300003 00104100000000000000000000011140     
100   95030518855082970000000000004300000000004300002000000010410403050643400000651NANHU0305206413000065   1030000100030000   541110001920777031200000019MOB BANK               YGN           MMR11003050643400000650305000000000000000   10300002 00104100000000000000000000000860     
100   9503051886178769000000000000250000000000250000200000001041040305083719000098JJW6QZ0305206415000098   1030000100030000   541110001915777031200000019MOB BANK               YGN           MMR11003050837190000980305000000000000000   10300002 00104100000000000000000000000500     
100   9503051884475324000000000001530000000001530000200000001041040305114030000284RLJF1R0305206418000284   1030000100030000   541110001905777031200000019MOB BANK               YGN           MMR11003051140300002840305000000000000000   10300002 00104100000000000000000000003060     
100   9503051897216798000000000002100000000002100000200000001041040305100110000195Q3CRSS0305206416000195   1030000100030000   541110001907777031200000019MOB BANK               YGN           MMR11003051001100001950305000000000000000   10300002 00104100000000000000000000004200     
100   9503051025746575000000000001880000000001880000200000001041040305043930000038OHQFTM0305206411000038   1030000100030000   541110001903777031200000019MOB BANK               YGN           MMR11003050439300000380305000000000000000   10300002 00104100000000000000000000003760     
100   9503051893557948000000000003590000000003590000200000001041040305072423000039REWAOV0305206413000039   1030000100030000   541110001903777031200000019MOB BANK               YGN           MMR11003050724230000390305000000000000000   10300002 00104100000000000000000000007180     
100   35710500310115780000000000056534000000056534002000000010410403051011000000392870500305206416000039   1030000100030000   541120003102777031200000031MOB BANK               YGN           MMR11003051011000000390305000000000000000   10300005 00104100000000000000000000011307     
100   35650880320002630000000000010700000000010700002000000010410403050702160000679401280305206413000067   1030000100030000   541110001920777031200000019MOB BANK               YGN           MMR11003050702160000670305000000000000000   10300005 00104100000000000000000000003745     
100   62441900101422240000000000013700000000013700002000000010410403050847270001007053680305206415000100   1030000100030000   541110001915777031200000019MOB BANK               YGN           MMR11003050847270001000305000000000000000   10300003 00104100000000000000000000004795     
100   9503051890995208000000000003880000000003880000200000001041040305074020000040FXWZXC0305206414000040   1030000100030000   541110001903777031200000019MOB BANK               YGN           MMR11003050740200000400305000000000000000   10300002 00104100000000000000000000007760     
100   62443000110007800000000000006050000000006050002000000010410403050714390000418748080305206413000041   1030000100030000   541120003101777031200000031MOB BANK               YGN           MMR11003050714390000410305000000000000000   10300005 00104100000000000000000000002117     
100   9503051024414522000000000005130000000005130000200000001041040305104358000041DMXMKZ0305206417000041   1030000100030000   541120003102777031200000031MOB BANK               YGN           MMR11003051043580000410305000000000000000   10300002 00104100000000000000000000010260     
100   35650880320002630000000000010000000000010000002000000010410403050704250000693507770305206413000069   1030000100030000   541110001920777031200000019MOB BANK               YGN           MMR11003050704250000690305000000000000000   10300005 00104100000000000000000000003500     
100   9503051872341033000000000000920000000000920000200000001041040305085837000070TMEZBC0305206415000070   1030000100030000   541110001920777031200000019MOB BANK               YGN           MMR11003050858370000700305000000000000000   10300002 00104100000000000000000000001840     
100   62441900101422240000000000005700000000005700002000000010410403050853490001023831260305206415000102   1030000100030000   541110001915777031200000019MOB BANK               YGN           MMR11003050853490001020305000000000000000   10300003 00104100000000000000000000001995     
100   35710830270789210000000000005800000000005800002000000010410403050501570001835651900305206411000183   1030000100030000   541110001907777031200000019MOB BANK               YGN           MMR11003050501570001830305000000000000000   10300003 00104100000000000000000000001160     
100   35710500161553740000000000054800000000054800002000000010410403051023360002593404360305206416000259   1030000100030000   541120000007777031200000002MOB BANK               YGN           MMR11003051023360002590305000000000000000   10300005 00104100000000000000000000010960     
100   9503051025699485000000000001870000000001870000200000001041040305122143001066KC93ZY0305206418001066   1030000100030000   581250000001777031200000005MOB BANK               YGN           MMR11003051221430010660305000000000000000   10300002 00104100000000000000000000006358     
100   9503051025425956000000000008960000000008960000200000001041040305074215000041TCZTPB0305206414000041   1030000100030000   541110001903777031200000019MOB BANK               YGN           MMR11003050742150000410305000000000000000   10300002 00104100000000000000000000017920     
100   62441900003607940000000000012600000000012600002000000010410403050900430000716951200305206415000071   1030000100030000   541110001920777031200000019MOB BANK               YGN           MMR11003050900430000710305000000000000000   10300003 00104100000000000000000000004410     
100   35710830900280190000000000050000000000050000002000000010410403050852250002877034700305206415000287   1030000100030000   541120000002777031200000002MOB BANK               YGN           MMR11003050852250002870305000000000000000   10300003 00104100000000000000000000010000     
100   35710830345833190000000000031800000000031800002000000010410403050844370000426987900305206415000042   1030000100030000   541110001903777031200000019MOB BANK               YGN           MMR11003050844370000420305000000000000000   10300003 00104100000000000000000000006360     
100   35710830617779900000000000017600000000017600002000000010410403050916540001047181520305206415000104   1030000100030000   541110001915777031200000019MOB BANK               YGN           MMR11003050916540001040305000000000000000   10300003 00104100000000000000000000003520     
100   35710500373518790000000000016500000000016500002000000010410403051304380003139970140305206419000313   1030000100030000   581210001501777031200000015MOB BANK               YGN           MMR11003051304380003130305000000000000000   10300005 00104100000000000000000000005610     
100   35710830085630990000000000007627000000007627002000000010410403051050410000437744210305206417000043   1030000100030000   541120003102777031200000031MOB BANK               YGN           MMR11003051050410000430305000000000000000   10300003 00104100000000000000000000001526     
100   35710500189753810000000000015000000000015000002000000010410403050359220000776018890305206410000077   1030000100030000   541110001915777031200000019MOB BANK               YGN           MMR11003050359220000770305000000000000000   10300005 00104100000000000000000000003000     
100   62346600113969710000000000014880000000014880002000000010410403050919460001066734540305206415000106   1030000100030000   541110001915777031200000019MOB BANK               YGN           MMR11003050919460001060305000000000000000   10300005 00104100000000000000000000002976     
100   9503051890559889000000000015000000000015000000200000001041040305104129000260MBSRTR0305206417000260   1030000100030000   541120000007777031200000002MOB BANK               YGN           MMR11003051041290002600305000000000000000   10300002 00104100000000000000000000030000     
100   95030510241833660000000000019760000000019760002000000010410403050901580000455MKNR80305206415000045   1030000100030000   541110001903777031200000019MOB BANK               YGN           MMR11003050901580000450305000000000000000   10300002 00104100000000000000000000003952     
100   35710500194371340000000000031200000000031200002000000010410403051126030000453705320305206417000045   1030000100030000   541120003102777031200000031MOB BANK               YGN           MMR11003051126030000450305000000000000000   10300005 00104100000000000000000000006240     
100   35710830475682160000000000013500000000013500002000000010410403050549320000795937310305206412000079   1030000100030000   541110001915777031200000019MOB BANK               YGN           MMR11003050549320000790305000000000000000   10300003 00104100000000000000000000002700     
100   35710830479302910000000000007300000000007300002000000010410403050522100000275773210305206411000027   1030000100030000   541120003001777031200000030MOB BANK               YGN           MMR11003050522100000270305000000000000000   10300003 00104100000000000000000000001460     
100   35710830491051080000000000056750000000056750002000000010410403051158090000478149020305206418000047   1030000100030000   541120003102777031200000031MOB BANK               YGN           MMR11003051158090000470305000000000000000   10300003 00104100000000000000000000011350     
100   9503051025795911000000000000800000000000800000200000001041040305060015000081TYQ2OB0305206412000081   1030000100030000   541110001915777031200000019MOB BANK               YGN           MMR11003050600150000810305000000000000000   10300002 00104100000000000000000000001600     
100   35710830426582440000000000010300000000010300002000000010410403051031510001977631300305206417000197   1030000100030000   541110001907777031200000019MOB BANK               YGN           MMR11003051031510001970305000000000000000   10300003 00104100000000000000000000002060     
100   62343301012432810000000000003520000000003520002000000010410403051039040002768085610305206417000276   1030000100030000   541110001905777031200000019MOB BANK               YGN           MMR11003051039040002760305000000000000000   10300004 00104100000000000000000000000704     
100   62346600180642750000000000040995000000040995002000000010410403050801260000290751390305206414000029   1030000100030000   541120003001777031200000030MOB BANK               YGN           MMR11003050801260000290305000000000000000   10300005 00104100000000000000000000008199     
100   35710830049316540000000000130900000000130900002000000010410403050952580000487398000305206416000048   1030000100030000   541110001903777031200000019MOB BANK               YGN           MMR11003050952580000480305000000000000000   10300003 00104100000000000000000000026180     
100   9503051890897248000000000002980000000002980000200000001041040305075137000048EZCGLH0305206414000048   1030000100030000   541120003103777031200000031MOB BANK               YGN           MMR11003050751370000480305000000000000000   10300002 00104100000000000000000000005960     
100   9503051892252400000000000001750000000001750000200000001041040305110636000049OSNCC00305206417000049   1030000100030000   541110001903777031200000019MOB BANK               YGN           MMR11003051106360000490305000000000000000   10300002 00104100000000000000000000003500     
100   9503051021152828000000000001020000000001020000200000001041040305071102000083JDRXRZ0305206413000083   1030000100030000   541110001915777031200000019MOB BANK               YGN           MMR11003050711020000830305000000000000000   10300002 00104100000000000000000000002040     
100   35710830921996020000000000007200000000007200002000000010410403050925120001107231310305206415000110   1030000100030000   541110001915777031200000019MOB BANK               YGN           MMR11003050925120001100305000000000000000   10300003 00104100000000000000000000001440     
