100   62346600161767820000000000016200000000016200002000000010410403071104220000648360210307206617000064   1030000100030000   541120003117777031200000031MOB BANK               YGN           MMR11003071104220000640307000000000000000   10300005 00104100000000000000000000003240     
100   9503051894439211000000000001540000000001540000200000001041040307093005001076TACYXI0307206616001076   1030000100030000   581250000001777031200000005MOB BANK               YGN           MMR11003070930050010760307000000000000000   10300002 00104100000000000000000000005236     
100   35710500154748830000000000017050000000017050002000000010410403071205360010797019940307206618001079   1030000100030000   581250000001777031200000005MOB BANK               YGN           MMR11003071205360010790307000000000000000   10300005 00104100000000000000000000005797     
100   62343301013473060000000000001700000000001700002000000010410403070637310000658062400307206613000065   1030000100030000   541120003102777031200000031MOB BANK               YGN           MMR11003070637310000650307000000000000000   10300004 00104100000000000000000000000340     
100   35710830188540900000000000016100000000016100002000000010410403070855400000674334210307206615000067   1030000100030000   541120003102777031200000031MOB BANK               YGN           MMR11003070855400000670307000000000000000   10300003 00104100000000000000000000003220     
100   35710950514325190000000000006900000000006900002000000010410403070613560000603363810307206612000060   1030000100030000   541120003117777031200000031MOB BANK               YGN           MMR11003070613560000600307000000000000000   10300003 00104100000000000000000000001380     
100   9503051885536397000000000003250000000003250000200000001041040307092354000039HSTHVD0307206615000039   1030000100030000   541120003111777031200000031MOB BANK               YGN           MMR11003070923540000390307000000000000000   10300002 00104100000000000000000000006500     
100   95030510251269350000000000030000000000030000002000000010410403071123320000429CPURT0307206617000042   1030000100030000   541120003111777031200000031MOB BANK               YGN           MMR11003071123320000420307000000000000000   10300002 00104100000000000000000000006000     
100   35710830899981150000000000017500000000017500002000000010410403070738020000203868320307206614000020   1030000100030000   541120003106777031200000031MOB BANK               YGN           MMR11003070738020000200307000000000000000   10300003 00104100000000000000000000003500     
100   95030510258445860000000000067000000000067000002000000010410403070922050000381MP6BR0307206615000038   1030000100030000   541120003111777031200000031MOB BANK               YGN           MMR11003070922050000380307000000000000000   10300002 00104100000000000000000000013400     
100   9503051019808027000000000001266500000001266500200000001041040307044243000024UNIPQS0307206611000024   1030000100030000   541120003107777031200000031MOB BANK               YGN           MMR11003070442430000240307000000000000000   10300002 00104100000000000000000000002533     
100   95030510256071730000000000035500000000035500002000000010410403070513260000524URLEA0307206611000052   1030000100030000   541120003101777031200000031MOB BANK               YGN           MMR11003070513260000520307000000000000000   10300002 00104100000000000000000000007100     
100   95030510252473840000000000027000000000027000002000000010410403070553440000741KOZZR0307206612000074   1030000100030000   541120003103777031200000031MOB BANK               YGN           MMR11003070553440000740307000000000000000   10300002 00104100000000000000000000005400     
100   35710830960073300000000000063408000000063408002000000010410403070609180000573335910307206612000057   1030000100030000   541120003117777031200000031MOB BANK               YGN           MMR11003070609180000570307000000000000000   10300003 00104100000000000000000000012682     
100   35710830123975590000000000020900000000020900002000000010410403071323140003365939610307206619000336   1030000100030000   581210001501777031200000015MOB BANK               YGN           MMR11003071323140003360307000000000000000   10300003 00104100000000000000000000007106     
100   9503051019808027000000000002475000000002475000200000001041040307043407000046G58XIU0307206611000046   1030000100030000   541120003101777031200000031MOB BANK               YGN           MMR11003070434070000460307000000000000000   10300002 00104100000000000000000000004950     
100   95030510233268260000000000001550000000001550002000000010410403060945270000442LLPTK0306206516000044   1030000100030000   541120003001777031200000030MOB BANK               YGN           MMR11003060945270000440306000000000000000   10300002 00104100000000000000000000000310     
100   9503051023326826000000000000864555000000864555200000001041040306085722000042DWRYTG0306206515000042   1030000100030000   541120003001777031200000030MOB BANK               YGN           MMR11003060857220000420306000000000000000   10300002 00104100000000000000000000001729     
100   62622000486778640000000000039200000000039200002000000010410403060913390000439843600306206515000043   1030000100030000   541120003001777031200000030MOB BANK               YGN           MMR11003060913390000430306000000000000000   10300006 00104100000000000000000000007840     
100   9503051025302445000000000001625000000001625000200000001041040306042327000033OI97A50306206510000033   1030000100030000   541120003114777031200000031MOB BANK               YGN           MMR11003060423270000330306000000000000000   10300002 00104100000000000000000000003250     
