100   9503051886225107000000000011856000000011856000200000001041040228032100001142RTADWW0228205909001142   1030000100030000   541160000001777031200000006MOB BANK               YGN           MMR11002280321000011420228000000000000000   10300002 00104100000000000000000000023712     
100   9503051024846574000000000000435000000000435000200000001041040228091358000130XGWPL40228205915000130   1030000100030000   541110001905777031200000019MOB BANK               YGN           MMR11002280913580001300228000000000000000   10300002 00104100000000000000000000000870     
100   95031100010061390000000000322800000000322800002000000010410402280416320011448612840228205910001144   1030000100030000   541160000001777031200000006MOB BANK               YGN           MMR11002280416320011440228000000000000000   10300006 00104100000000000000000000064560     
100   35650973680003180000000000011000000000011000002000000010410402280441140010361806450228205911001036   1030000100030000   581250000001777031200000005MOB BANK               YGN           MMR11002280441140010360228000000000000000   10300005 00104100000000000000000000006545     
100   35710500125646450000000000007700000000007700002000000010410402280650220010372110920228205913001037   1030000100030000   581250000001777031200000005MOB BANK               YGN           MMR11002280650220010370228000000000000000   10300005 00104100000000000000000000002618     
100   9503051025491156000000000009990000000009990000200000001041040228043257001148KHLEGD0228205911001148   1030000100030000   541160000001777031200000006MOB BANK               YGN           MMR11002280432570011480228000000000000000   10300002 00104100000000000000000000019980     
100   9503051025420460000000000007296000000007296000200000001041040228084609001152E3Q0ZP0228205915001152   1030000100030000   541160000001777031200000006MOB BANK               YGN           MMR11002280846090011520228000000000000000   10300002 00104100000000000000000000014592     
100   35710830517858390000000000008428000000008428002000000010410402280807550000993568100228205914000099   1030000100030000   541110001907777031200000019MOB BANK               YGN           MMR11002280807550000990228000000000000000   10300003 00104100000000000000000000001686     
100   9503051886260419000000000006030000000006030000200000001041040228043149001146DXKBOT0228205911001146   1030000100030000   541160000001777031200000006MOB BANK               YGN           MMR11002280431490011460228000000000000000   10300002 00104100000000000000000000012060     
100   35710500354819180000000000126300000000126300002000000010410402280725370011504942220228205913001150   1030000100030000   541160000001777031200000006MOB BANK               YGN           MMR11002280725370011500228000000000000000   10300005 00104100000000000000000000025260     
100   35710500167687540000000000400500000000400500002000000010410402280830270001038419520228205915000103   1030000100030000   541110001907777031200000019MOB BANK               YGN           MMR11002280830270001030228000000000000000   10300005 00104100000000000000000000080100     
100   95030510222862600000000000030050000000030050002000000010410402280846280001051ZTYJT0228205915000105   1030000100030000   541110001907777031200000019MOB BANK               YGN           MMR11002280846280001050228000000000000000   10300002 00104100000000000000000000006010     
100   9503051889621021000000000028500000000028500000200000001041040228051613000079CK4EF10228205911000079   1030000100030000   541120002101777031200000021MOB BANK               YGN           MMR11002280516130000790228000000000000000   10300002 00104100000000000000000000057000     
100   95031900011219970000000000004550000000004550002000000010410402280506440000118WC90V0228205911000011   1030000100030000   541120003001777031200000030MOB BANK               YGN           MMR11002280506440000110228000000000000000   10300014 00104100000000000000000000000910     
100   950319000610517700000000000918000000000918000020000000104104022809275100115469V01V0228205915001154   1030000100030000   541160000001777031200000006MOB BANK               YGN           MMR11002280927510011540228000000000000000   10300014 00104100000000000000000000018360     
100   9503051020199200000000000002018800000002018800200000001041040228055235000096U8YVMH0228205912000096   1030000100030000   541110001907777031200000019MOB BANK               YGN           MMR11002280552350000960228000000000000000   10300002 00104100000000000000000000004038     
100   9503051896602170000000000004450000000004450000200000001041040228074214000124CC82GC0228205914000124   1030000100030000   541110001905777031200000019MOB BANK               YGN           MMR11002280742140001240228000000000000000   10300002 00104100000000000000000000008900     
100   9503051021085713000000000002750000000002750000200000001041040228055414000024I7JZKX0228205912000024   1030000100030000   541110001904777031200000019MOB BANK               YGN           MMR11002280554140000240228000000000000000   10300002 00104100000000000000000000005500     
100   95030800053015070000000000055860000000055860002000000010410402270816480011384981000227205814001138   1030000100030000   541160000001777031200000006MOB BANK               YGN           MMR11002270816480011380227000000000000000   10300003 00104100000000000000000000011172     
100   9503051887488902000000000013480000000013480000200000001041040226070311000353GTSPMZ0226205713000353   1030000100030000   581210001201777031200000012MOB BANK               YGN           MMR11002260703110003530226000000000000000   10300002 00104100000000000000000000045832     
100   9503051890586585000000000016780000000016780000200000001041040226054537000352R3F0PS0226205712000352   1030000100030000   581210001201777031200000012MOB BANK               YGN           MMR11002260545370003520226000000000000000   10300002 00104100000000000000000000057052     
100   62921400032707310000000000041300000000041300002000000010410402261013340003542222220226205716000354   1030000100030000   581210001201777031200000012MOB BANK               YGN           MMR11002261013340003540226000000000000000   10300009 00104100000000000000000000014042     
100   9503051895874630000000000000610000000000610000200000001041040303045552000162D0CADY0303206211000162   1030000100030000   541110001907777031200000019MOB BANK               YGN           MMR11003030455520001620303000000000000000   10300002 00104100000000000000000000001220     
100   62346600176998570000000000008580000000008580002000000010410403030536360010547025070303206212001054   1030000100030000   581250000001777031200000005MOB BANK               YGN           MMR11003030536360010540303000000000000000   10300005 00104100000000000000000000002917     
100   9503051895524433000000000002880000000002880000200000001041040303112133000017CZCEYX0303206217000017   1030000100030000   541120003001777031200000030MOB BANK               YGN           MMR11003031121330000170303000000000000000   10300002 00104100000000000000000000005760     
100   62346600152353730000000000006500000000006500002000000010410403030803440010556564150303206214001055   1030000100030000   581250000001777031200000005MOB BANK               YGN           MMR11003030803440010550303000000000000000   10300005 00104100000000000000000000002210     
100   9503051023062694000000000001600000000001600000200000001041040303045556000032J2UTYK0303206211000032   1030000100030000   541110001920777031200000019MOB BANK               YGN           MMR11003030455560000320303000000000000000   10300002 00104100000000000000000000003200     
100   9503051885385274000000000000846000000000846000200000001041040303035932000020VWTMUO0303206210000020   1030000100030000   541120003111777031200000031MOB BANK               YGN           MMR11003030359320000200303000000000000000   10300002 00104100000000000000000000001692     
100   35710500112438940000000000115800000000115800002000000010410403030614300011672025670303206212001167   1030000100030000   541160000001777031200000006MOB BANK               YGN           MMR11003030614300011670303000000000000000   10300005 00104100000000000000000000023160     
100   95031900056859060000000000057200000000057200002000000010410403030602590002058MK51V0303206212000205   1030000100030000   541110001905777031200000019MOB BANK               YGN           MMR11003030602590002050303000000000000000   10300014 00104100000000000000000000011440     
100   35710830393355250000000000076800000000076800002000000010410403031013540011680243510303206216001168   1030000100030000   541160000001777031200000006MOB BANK               YGN           MMR11003031013540011680303000000000000000   10300003 00104100000000000000000000015360     
100   35710500353862240000000000010000000000010000002000000010410403030713520000376212340303206213000037   1030000100030000   541110001920777031200000019MOB BANK               YGN           MMR11003030713520000370303000000000000000   10300005 00104100000000000000000000002000     
100   9503051890841782000000000004135000000004135000200000001041040303062622000212SW9SFR0303206212000212   1030000100030000   541110001905777031200000019MOB BANK               YGN           MMR11003030626220002120303000000000000000   10300002 00104100000000000000000000008270     
100   62346600139827370000000000009800000000009800002000000010410403030843360000400101550303206215000040   1030000100030000   541110001920777031200000019MOB BANK               YGN           MMR11003030843360000400303000000000000000   10300005 00104100000000000000000000001960     
100   9503051023441906000000000003500000000003500000200000001041040303065057000165YUJMZX0303206213000165   1030000100030000   541110001907777031200000019MOB BANK               YGN           MMR11003030650570001650303000000000000000   10300002 00104100000000000000000000007000     
100   9503051897941429000000000012620000000012620000200000001041040303111013000167OGGXC50303206217000167   1030000100030000   541110001907777031200000019MOB BANK               YGN           MMR11003031110130001670303000000000000000   10300002 00104100000000000000000000025240     
100   35710500112048620000000000023000000000023000002000000010410403031122570002190104880303206217000219   1030000100030000   541110001905777031200000019MOB BANK               YGN           MMR11003031122570002190303000000000000000   10300005 00104100000000000000000000004600     
100   95031900011699470000000000000931000000000931002000000010410403031149320002268C861V0303206218000226   1030000100030000   541110001905777031200000019MOB BANK               YGN           MMR11003031149320002260303000000000000000   10300014 00104100000000000000000000000186     
100   95030800003877660000000000031900000000031900002000000010410402281311470002685390900228205919000268   1030000100030000   581210001501777031200000015MOB BANK               YGN           MMR11002281311470002680228000000000000000   10300003 00104100000000000000000000010846     
100   62343302000886860000000000015400000000015400002000000010410402280756410001264922070228205914000126   1030000100030000   541110001905777031200000019MOB BANK               YGN           MMR11002280756410001260228000000000000000   10300004 00104100000000000000000000003080     
100   35710500174886750000000000003350000000003350002000000010410402280810050001019893730228205914000101   1030000100030000   541110001907777031200000019MOB BANK               YGN           MMR11002280810050001010228000000000000000   10300005 00104100000000000000000000000670     
100   95030510244982770000000000034800000000034800002000000010410402280821010001288MHOXE0228205914000128   1030000100030000   541110001905777031200000019MOB BANK               YGN           MMR11002280821010001280228000000000000000   10300002 00104100000000000000000000006960     
