100   35710830982070370000000000040000000000040000002000000010410403010810270001232224110301206014000123   1030000100030000   541110001907777031200000019MOB BANK               YGN           MMR11003010810270001230301000000000000000   10300003 00104100000000000000000000008000     
100   9503051024316545000000000002400000000002400000200000001041040301083653000127OMXGH10301206015000127   1030000100030000   541110001907777031200000019MOB BANK               YGN           MMR11003010836530001270301000000000000000   10300002 00104100000000000000000000004800     
100   9503051024020014000000000000465000000000465000200000001041040301094001000129KKN5TG0301206016000129   1030000100030000   541110001907777031200000019MOB BANK               YGN           MMR11003010940010001290301000000000000000   10300002 00104100000000000000000000000930     
100   35710830177624680000000000017500000000017500002000000010410403010914070000122604910301206015000012   1030000100030000   541120003111777031200000031MOB BANK               YGN           MMR11003010914070000120301000000000000000   10300003 00104100000000000000000000003500     
100   9503051894469531000000000002080000000002080000200000001041040301103107000132KQF7OX0301206017000132   1030000100030000   541110001907777031200000019MOB BANK               YGN           MMR11003011031070001320301000000000000000   10300002 00104100000000000000000000004160     
100   9503051025485570000000000000090000000000090000200000001041040301111208000133COT40R0301206017000133   1030000100030000   541110001907777031200000019MOB BANK               YGN           MMR11003011112080001330301000000000000000   10300002 00104100000000000000000000000180     
100   9503051024995322000000000008940000000008940000200000001041040301083256001163AORSWF0301206015001163   1030000100030000   541160000001777031200000006MOB BANK               YGN           MMR11003010832560011630301000000000000000   10300002 00104100000000000000000000017880     
100   35710500320752750000000000030000000000030000002000000010410403010842390000229325350301206015000022   1030000100030000   541120003103777031200000031MOB BANK               YGN           MMR11003010842390000220301000000000000000   10300005 00104100000000000000000000006000     
100   35710500100555880000000000014400000000014400002000000010410403011113580001341359810301206017000134   1030000100030000   541110001907777031200000019MOB BANK               YGN           MMR11003011113580001340301000000000000000   10300005 00104100000000000000000000002880     
100   35710500395296960000000000037600000000037600002000000010410403010742260001393597310301206014000139   1030000100030000   541110001905777031200000019MOB BANK               YGN           MMR11003010742260001390301000000000000000   10300005 00104100000000000000000000007520     
100   62921400035007310000000000093300000000093300002000000010410403010625510011612222220301206012001161   1030000100030000   541160000001777031200000006MOB BANK               YGN           MMR11003010625510011610301000000000000000   10300009 00104100000000000000000000018660     
100   9503051889790990000000000005490000000005490000200000001041040301100144000029UDUMYI0301206016000029   1030000100030000   541110001920777031200000019MOB BANK               YGN           MMR11003011001440000290301000000000000000   10300002 00104100000000000000000000010980     
100   35710950661647920000000000002548000000002548002000000010410403010806170001412197900301206014000141   1030000100030000   541110001905777031200000019MOB BANK               YGN           MMR11003010806170001410301000000000000000   10300003 00104100000000000000000000000510     
100   62346600120637290000000000046700000000046700002000000010410403011145030001540988490301206018000154   1030000100030000   541110001905777031200000019MOB BANK               YGN           MMR11003011145030001540301000000000000000   10300005 00104100000000000000000000009340     
100   9503051025801024000000000003740000000003740000200000001041040301093608000178CZJJXT0301206016000178   1030000100030000   541120000017777031200000002MOB BANK               YGN           MMR11003010936080001780301000000000000000   10300002 00104100000000000000000000007480     
100   9503051882439215000000000001441000000001441000200000001041040301095858001042W26XXH0301206016001042   1030000100030000   581250000001777031200000005MOB BANK               YGN           MMR11003010958580010420301000000000000000   10300002 00104100000000000000000000004900     
100   9503051897174310000000000001760000000001760000200000001041040301100051001043TIM0PH0301206016001043   1030000100030000   581250000001777031200000005MOB BANK               YGN           MMR11003011000510010430301000000000000000   10300002 00104100000000000000000000005984     
100   35710500381666150000000000035868000000035868002000000010410403010956150001475160120301206016000147   1030000100030000   541110001905777031200000019MOB BANK               YGN           MMR11003010956150001470301000000000000000   10300005 00104100000000000000000000007174     
100   62443000110084520000000000002650000000002650002000000010410403010400570001072531660301206010000107   1030000100030000   541110001907777031200000019MOB BANK               YGN           MMR11003010400570001070301000000000000000   10300005 00104100000000000000000000000927     
100   9503051025212032000000000001100000000001100000200000001041040301070624001039QL8UH70301206013001039   1030000100030000   581250000001777031200000005MOB BANK               YGN           MMR11003010706240010390301000000000000000   10300002 00104100000000000000000000003740     
100   9503051883226207000000000003135000000003135000200000001041040301080900001040QLV8KL0301206014001040   1030000100030000   581250000001777031200000005MOB BANK               YGN           MMR11003010809000010400301000000000000000   10300002 00104100000000000000000000010659     
100   35710500393971280000000000012100000000012100002000000010410403010954580010412365730301206016001041   1030000100030000   581250000001777031200000005MOB BANK               YGN           MMR11003010954580010410301000000000000000   10300005 00104100000000000000000000004114     
100   62443000110089570000000000002850000000002850002000000010410403010556270001127019140301206012000112   1030000100030000   541110001907777031200000019MOB BANK               YGN           MMR11003010556270001120301000000000000000   10300005 00104100000000000000000000000997     
100   35710500395577050000000000026700000000026700002000000010410403010706570001164343670301206013000116   1030000100030000   541110001907777031200000019MOB BANK               YGN           MMR11003010706570001160301000000000000000   10300005 00104100000000000000000000005340     
100   35710500304306050000000000046800000000046800002000000010410403010944450001442522140301206016000144   1030000100030000   541110001905777031200000019MOB BANK               YGN           MMR11003010944450001440301000000000000000   10300005 00104100000000000000000000009360     
100   35710500335737570000000000031350000000031350002000000010410403011327230002790780290301206019000279   1030000100030000   581210001501777031200000015MOB BANK               YGN           MMR11003011327230002790301000000000000000   10300005 00104100000000000000000000010659     
100   35710500161285120000000000031460000000031460002000000010410403011146190010441059800301206018001044   1030000100030000   581250000001777031200000005MOB BANK               YGN           MMR11003011146190010440301000000000000000   10300005 00104100000000000000000000010696     
100   9503051025942935000000000002410000000002410000200000001041040301070031000114GJ4EUK0301206013000114   1030000100030000   541110001907777031200000019MOB BANK               YGN           MMR11003010700310001140301000000000000000   10300002 00104100000000000000000000004820     
100   9503051883527778000000000002700000000002700000200000001041040301074430000118NKWHFI0301206014000118   1030000100030000   541110001907777031200000019MOB BANK               YGN           MMR11003010744300001180301000000000000000   10300002 00104100000000000000000000005400     
100   9503051872528514000000000002646000000002646000200000001041040301075148000121Q7Q7WL0301206014000121   1030000100030000   541110001907777031200000019MOB BANK               YGN           MMR11003010751480001210301000000000000000   10300002 00104100000000000000000000005292     
