100   9503051024850170000000000019900000000019900000200000001041040307062511000040VL7DGL0307206612000040   1030000100030000   541120003114777031200000031MOB BANK               YGN           MMR11003070625110000400307000000000000000   10300002 00104100000000000000000000039800     
100   62346600190387320000000000010200000000010200002000000010410403070949520000430493020307206616000043   1030000100030000   541120003114777031200000031MOB BANK               YGN           MMR11003070949520000430307000000000000000   10300005 00104100000000000000000000002040     
100   35710830054310760000000000007840000000007840002000000010410403070644250000463546610307206613000046   1030000100030000   541120003001777031200000030MOB BANK               YGN           MMR11003070644250000460307000000000000000   10300003 00104100000000000000000000001568     
100   35710500103902090000000000028000000000028000002000000010410403080650010000710274480308206713000071   1030000100030000   541120000018777031200000002MOB BANK               YGN           MMR11003080650010000710308000000000000000   10300005 00104100000000000000000000005600     
100   9503051894387717000000000003600000000003600000200000001041040308111923000086YO8AVC0308206717000086   1030000100030000   541110001920777031200000019MOB BANK               YGN           MMR11003081119230000860308000000000000000   10300002 00104100000000000000000000007200     
100   95051071710014840000000000220000000000220000002000000010410403080814300002935588690308206714000293   1030000100030000   541120000002777031200000002MOB BANK               YGN           MMR11003080814300002930308000000000000000   10300005 00104100000000000000000000077000     
100   35710950044157020000000000009450000000009450002000000010410403080717290000842385010308206713000084   1030000100030000   541110001920777031200000019MOB BANK               YGN           MMR11003080717290000840308000000000000000   10300003 00104100000000000000000000001890     
100   9503051025122413000000000027050000000027050000200000001041040308075410000262UZXIIG0308206714000262   1030000100030000   541120000007777031200000002MOB BANK               YGN           MMR11003080754100002620308000000000000000   10300002 00104100000000000000000000054100     
100   9503051023557404000000000001890000000001890000200000001041040304093634000248MTYUZ30304206316000248   1030000100030000   541110001905777031200000019MOB BANK               YGN           MMR11003040936340002480304000000000000000   10300002 00104100000000000000000000003780     
100   9503051024728780000000000003075000000003075000200000001041040304052728000231NQPBK00304206311000231   1030000100030000   541110001905777031200000019MOB BANK               YGN           MMR11003040527280002310304000000000000000   10300002 00104100000000000000000000006150     
100   35710830416519350000000000032600000000032600002000000010410403040921260000308568800304206315000030   1030000100030000   541110001903777031200000019MOB BANK               YGN           MMR11003040921260000300304000000000000000   10300003 00104100000000000000000000006520     
100   9503051896515562000000000005168000000005168000200000001041040304105425000031SJMDFP0304206317000031   1030000100030000   541110001903777031200000019MOB BANK               YGN           MMR11003041054250000310304000000000000000   10300002 00104100000000000000000000010336     
100   9503051019771480000000000004110000000004110000200000001041040304105003000251TB3XYX0304206317000251   1030000100030000   541110001905777031200000019MOB BANK               YGN           MMR11003041050030002510304000000000000000   10300002 00104100000000000000000000008220     
100   35710830969857580000000000019030000000019030002000000010410403041022130010608933510304206316001060   1030000100030000   581250000001777031200000005MOB BANK               YGN           MMR11003041022130010600304000000000000000   10300003 00104100000000000000000000006470     
100   9503051872523986000000000008094000000008094000200000001041040304074502001172OFILWY0304206314001172   1030000100030000   541160000001777031200000006MOB BANK               YGN           MMR11003040745020011720304000000000000000   10300002 00104100000000000000000000016188     
100   95030510256522290000000000031720000000031720002000000010410403040420310000226TITYM0304206310000022   1030000100030000   541120003001777031200000030MOB BANK               YGN           MMR11003040420310000220304000000000000000   10300002 00104100000000000000000000006344     
100   35710830856400830000000000013300000000013300002000000010410403040517090000247103110304206311000024   1030000100030000   541120003001777031200000030MOB BANK               YGN           MMR11003040517090000240304000000000000000   10300003 00104100000000000000000000002660     
100   35710500109131660000000000090420000000090420002000000010410403041213030002932446240304206318000293   1030000100030000   581210001501777031200000015MOB BANK               YGN           MMR11003041213030002930304000000000000000   10300005 00104100000000000000000000030743     
100   35710830007833310000000000026950000000026950002000000010410403041252260002949834800304206319000294   1030000100030000   581210001501777031200000015MOB BANK               YGN           MMR11003041252260002940304000000000000000   10300003 00104100000000000000000000009163     
100   9503051882439215000000000001463000000001463000200000001041040304092814001058YEACYG0304206315001058   1030000100030000   581250000001777031200000005MOB BANK               YGN           MMR11003040928140010580304000000000000000   10300002 00104100000000000000000000004974     
100   62443000804538520000000000007546000000007546002000000010410403040905570002408563260304206315000240   1030000100030000   541110001905777031200000019MOB BANK               YGN           MMR11003040905570002400304000000000000000   10300005 00104100000000000000000000002641     
100   9503051894232129000000000001540000000001540000200000001041040304093112001059SDGXMQ0304206316001059   1030000100030000   581250000001777031200000005MOB BANK               YGN           MMR11003040931120010590304000000000000000   10300002 00104100000000000000000000005236     
100   35710830770457700000000000011000000000011000002000000010410403041218390010629632100304206318001062   1030000100030000   581250000001777031200000005MOB BANK               YGN           MMR11003041218390010620304000000000000000   10300003 00104100000000000000000000003740     
100   35710830184169570000000000021850000000021850002000000010410403040647430000677646420304206313000067   1030000100030000   541110001915777031200000019MOB BANK               YGN           MMR11003040647430000670304000000000000000   10300003 00104100000000000000000000004370     
100   9503051887188247000000000002822400000002822400200000001041040304105328000255LNBZTX0304206317000255   1030000100030000   541110001905777031200000019MOB BANK               YGN           MMR11003041053280002550304000000000000000   10300002 00104100000000000000000000005645     
100   62343302003081260000000000027280000000027280002000000010410403041131350010617896240304206318001061   1030000100030000   581250000001777031200000005MOB BANK               YGN           MMR11003041131350010610304000000000000000   10300004 00104100000000000000000000009275     
100   9503051025854668000000000000648000000000648000200000001041040308111229000085Y2XSHI0308206717000085   1030000100030000   541110001920777031200000019MOB BANK               YGN           MMR11003081112290000850308000000000000000   10300002 00104100000000000000000000001296     
100   9503051897787244000000000013500000000013500000200000001041040308110141000294YVNLUC0308206717000294   1030000100030000   541120000002777031200000002MOB BANK               YGN           MMR11003081101410002940308000000000000000   10300002 00104100000000000000000000027000     
100   9503051022178939000000000003718000000003718000200000001041040308120443001084ZXHFRM0308206718001084   1030000100030000   581250000001777031200000005MOB BANK               YGN           MMR11003081204430010840308000000000000000   10300002 00104100000000000000000000012641     
100   35710500383189500000000000139500000000139500002000000010410403080258190011808086420308206709001180   1030000100030000   541160000001777031200000006MOB BANK               YGN           MMR11003080258190011800308000000000000000   10300005 00104100000000000000000000027900     
100   9503054000781096000000000001747200000001747200200000001041040308042656000032AAHVDU0308206710000032   1030000100030000   541120003108777031200000031MOB BANK               YGN           MMR11003080426560000320308000000000000000   10300002 00104100000000000000000000003494     
100   35710500384042890000000000302500000000302500002000000010410403081328280003515801240308206719000351   1030000100030000   581210001501777031200000015MOB BANK               YGN           MMR11003081328280003510308000000000000000   10300005 00104100000000000000000000102850     
100   35710500353112550000000000022000000000022000002000000010410403080938230002395541010308206716000239   1030000100030000   541110001907777031200000019MOB BANK               YGN           MMR11003080938230002390308000000000000000   10300005 00104100000000000000000000004400     
100   62346600155698210000000000006750000000006750002000000010410403081138380000879798410308206718000087   1030000100030000   541110001920777031200000019MOB BANK               YGN           MMR11003081138380000870308000000000000000   10300005 00104100000000000000000000001350     
100   9503051872896580000000000003900000000003900000200000001041040304084943000236SOTVYH0304206315000236   1030000100030000   541110001905777031200000019MOB BANK               YGN           MMR11003040849430002360304000000000000000   10300002 00104100000000000000000000007800     
100   35710830022943290000000000000600000000000600002000000010410403071056400000445060210307206617000044   1030000100030000   541120003114777031200000031MOB BANK               YGN           MMR11003071056400000440307000000000000000   10300003 00104100000000000000000000000120     
100   35710500192008540000000000022550000000022550002000000010410403041303350002950473610304206319000295   1030000100030000   581210001501777031200000015MOB BANK               YGN           MMR11003041303350002950304000000000000000   10300005 00104100000000000000000000007667     
100   35710830248289220000000000015840000000015840002000000010410403041014210000518886210304206316000051   1030000100030000   541110001920777031200000019MOB BANK               YGN           MMR11003041014210000510304000000000000000   10300003 00104100000000000000000000003168     
100   35710500305638190000000000042900000000042900002000000010410403040544520002923241270304206312000292   1030000100030000   581210001501777031200000015MOB BANK               YGN           MMR11003040544520002920304000000000000000   10300005 00104100000000000000000000014586     
100   9503051883670719000000000003350000000003350000200000001041040304091511000029WM9AEH0304206315000029   1030000100030000   541110001903777031200000019MOB BANK               YGN           MMR11003040915110000290304000000000000000   10300002 00104100000000000000000000006700     
100   9503051020392839000000000002784000000002784000200000001041040304084855000071XMYZWY0304206315000071   1030000100030000   541110001915777031200000019MOB BANK               YGN           MMR11003040848550000710304000000000000000   10300002 00104100000000000000000000005568     
100   9503051020892051000000000004260000000004260000200000001041040304100227000175ARFQTL0304206316000175   1030000100030000   541110001907777031200000019MOB BANK               YGN           MMR11003041002270001750304000000000000000   10300002 00104100000000000000000000008520     
100   35710500196096330000000000095000000000095000002000000010410403041138280001772187690304206318000177   1030000100030000   541110001907777031200000019MOB BANK               YGN           MMR11003041138280001770304000000000000000   10300005 00104100000000000000000000019000     
100   95030800055983340000000000120000000000120000002000000010410403040800480002578084910304206314000257   1030000100030000   541120000007777031200000002MOB BANK               YGN           MMR11003040800480002570304000000000000000   10300003 00104100000000000000000000024000     
100   35710830542202140000000000038500000000038500002000000010410403040855200000738412110304206315000073   1030000100030000   541110001915777031200000019MOB BANK               YGN           MMR11003040855200000730304000000000000000   10300003 00104100000000000000000000007700     
100   9503051020392839000000000002010000000002010000200000001041040304091956000245YNP7PY0304206315000245   1030000100030000   541110001905777031200000019MOB BANK               YGN           MMR11003040919560002450304000000000000000   10300002 00104100000000000000000000004020     
100   35710500353376150000000000005490000000005490002000000010410403040512260000454604580304206311000045   1030000100030000   541110001920777031200000019MOB BANK               YGN           MMR11003040512260000450304000000000000000   10300005 00104100000000000000000000001098     
100   9503051024728780000000000001548000000001548000200000001041040304051546000046BGOAPE0304206311000046   1030000100030000   541110001920777031200000019MOB BANK               YGN           MMR11003040515460000460304000000000000000   10300002 00104100000000000000000000003096     
100   9503051894152780000000000010900000000010900000200000001041040308100511000242GSGJAB0308206716000242   1030000100030000   541110001907777031200000019MOB BANK               YGN           MMR11003081005110002420308000000000000000   10300002 00104100000000000000000000021800     
100   9503051894387717000000000000441000000000441000200000001041040308112515000243FBUXNM0308206717000243   1030000100030000   541110001907777031200000019MOB BANK               YGN           MMR11003081125150002430308000000000000000   10300002 00104100000000000000000000000882     
100   35710950012913610000000000003850000000003850002000000010410403080815400010822734110308206714001082   1030000100030000   581250000001777031200000005MOB BANK               YGN           MMR11003080815400010820308000000000000000   10300003 00104100000000000000000000001309     
100   35710500144566180000000000012100000000012100002000000010410403081147340010833740420308206718001083   1030000100030000   581250000001777031200000005MOB BANK               YGN           MMR11003081147340010830308000000000000000   10300005 00104100000000000000000000004114     
100   95031900058396100000000000016050000000016050002000000010410403080918190003183V122V0308206715000318   1030000100030000   541110001905777031200000019MOB BANK               YGN           MMR11003080918190003180308000000000000000   10300014 00104100000000000000000000003210     
100   9503051873139741000000000002155000000002155000200000001041040308110454000321UVBSJF0308206717000321   1030000100030000   541110001905777031200000019MOB BANK               YGN           MMR11003081104540003210308000000000000000   10300002 00104100000000000000000000004310     
100   95031900056547380000000000336500000000336500002000000010410403081129330002442Z622V0308206717000244   1030000100030000   541110001907777031200000019MOB BANK               YGN           MMR11003081129330002440308000000000000000   10300014 00104100000000000000000000067300     
100   9503051025248259000000000023856000000023856000200000001041040304084546000028N0TW9N0304206315000028   1030000100030000   541110001903777031200000019MOB BANK               YGN           MMR11003040845460000280304000000000000000   10300002 00104100000000000000000000047712     
100   95030792000787950000000000005350000000005350002000000010410403040459000001704061480304206311000170   1030000100030000   541110001907777031200000019MOB BANK               YGN           MMR11003040459000001700304000000000000000   10200004 00104100000000000000000000001070     
100   9503051887188247000000000003000000000003000000200000001041040304110030000258QL5KEW0304206317000258   1030000100030000   541110001905777031200000019MOB BANK               YGN           MMR11003041100300002580304000000000000000   10300002 00104100000000000000000000006000     
100   35710500135248460000000000014910000000014910002000000010410403040854550000492428240304206315000049   1030000100030000   541110001920777031200000019MOB BANK               YGN           MMR11003040854550000490304000000000000000   10300005 00104100000000000000000000002982     
100   9503051025265170000000000000985000000000985000200000001041040304053015000173UEPITP0304206312000173   1030000100030000   541110001907777031200000019MOB BANK               YGN           MMR11003040530150001730304000000000000000   10300002 00104100000000000000000000001970     
100   35710500166464970000000000113100000000113100002000000010410403041002140011749014810304206316001174   1030000100030000   541160000001777031200000006MOB BANK               YGN           MMR11003041002140011740304000000000000000   10300005 00104100000000000000000000022620     
100   62921400087123150000000000048000000000048000002000000010410403040714290000692222220304206313000069   1030000100030000   541110001915777031200000019MOB BANK               YGN           MMR11003040714290000690304000000000000000   10300009 00104100000000000000000000009600     
100   95030800055983340000000000046000000000046000002000000010410403040759360002568077810304206314000256   1030000100030000   541120000007777031200000002MOB BANK               YGN           MMR11003040759360002560304000000000000000   10300003 00104100000000000000000000009200     
100   9503051019624317000000000001350000000001350000200000001041040304111321000261Z3ST5Y0304206317000261   1030000100030000   541110001905777031200000019MOB BANK               YGN           MMR11003041113210002610304000000000000000   10300002 00104100000000000000000000002700     
