100   35710500351145760000000000002500000000002500002000000010410403080702590000532401880308206713000053   1030000100030000   541120003001777031200000030MOB BANK               YGN           MMR11003080702590000530308000000000000000   10300005 00104100000000000000000000000500     
100   35710830278602520000000000045600000000045600002000000010410403080307560000700887800308206709000070   1030000100030000   541120003117777031200000031MOB BANK               YGN           MMR11003080307560000700308000000000000000   10300003 00104100000000000000000000009120     
100   9503051023386549000000000002325000000002325000200000001041040308084445000094QUCKTF0308206715000094   1030000100030000   541120003117777031200000031MOB BANK               YGN           MMR11003080844450000940308000000000000000   10300002 00104100000000000000000000004650     
100   9503051025980356000000000001685000000001685000200000001041040308025116000056MXS56H0308206709000056   1030000100030000   541120003101777031200000031MOB BANK               YGN           MMR11003080251160000560308000000000000000   10300002 00104100000000000000000000003370     
100   9503051889874240000000000001180000000001180000200000001041040308060217000082FVBYBX0308206712000082   1030000100030000   541120003117777031200000031MOB BANK               YGN           MMR11003080602170000820308000000000000000   10300002 00104100000000000000000000002360     
100   35710500191197990000000000055300000000055300002000000010410403080616190000851570430308206712000085   1030000100030000   541120003117777031200000031MOB BANK               YGN           MMR11003080616190000850308000000000000000   10300005 00104100000000000000000000011060     
100   35710500345680790000000000029000000000029000002000000010410403080949000003691497590308206716000369   1030000100030000   541120000004777031200000002MOB BANK               YGN           MMR11003080949000003690308000000000000000   10300005 00104100000000000000000000005800     
100   35710500122147950000000000012950000000012950002000000010410403080720280000911333270308206713000091   1030000100030000   541120003117777031200000031MOB BANK               YGN           MMR11003080720280000910308000000000000000   10300005 00104100000000000000000000002590     
100   9503051895951677000000000002080000000002080000200000001041040308040528000058JLPYIZ0308206710000058   1030000100030000   541120003105777031200000031MOB BANK               YGN           MMR11003080405280000580308000000000000000   10300002 00104100000000000000000000004160     
100   35710830514541540000000000026800000000026800002000000010410403080414300000601287130308206710000060   1030000100030000   541120003105777031200000031MOB BANK               YGN           MMR11003080414300000600308000000000000000   10300003 00104100000000000000000000005360     
100   35710500191197990000000000014600000000014600002000000010410403080623030000888468750308206712000088   1030000100030000   541120003117777031200000031MOB BANK               YGN           MMR11003080623030000880308000000000000000   10300005 00104100000000000000000000002920     
100   35710500191197990000000000045900000000045900002000000010410403080649320000447296100308206713000044   1030000100030000   541120003111777031200000031MOB BANK               YGN           MMR11003080649320000440308000000000000000   10300005 00104100000000000000000000009180     
100   9503051025277613000000000000826400000000826400200000001041040308091837000098GMXTEF0308206715000098   1030000100030000   541120003117777031200000031MOB BANK               YGN           MMR11003080918370000980308000000000000000   10300002 00104100000000000000000000001653     
100   35710500132434130000000000018000000000018000002000000010410403080722270000464893530308206713000046   1030000100030000   541120003111777031200000031MOB BANK               YGN           MMR11003080722270000460308000000000000000   10300005 00104100000000000000000000003600     
100   9503051895951677000000000002630000000002630000200000001041040308035826000076PFCM6G0308206710000076   1030000100030000   541120003117777031200000031MOB BANK               YGN           MMR11003080358260000760308000000000000000   10300002 00104100000000000000000000005260     
100   62346600150639650000000000011000000000011000002000000010410403081005420000477561680308206716000047   1030000100030000   541120003111777031200000031MOB BANK               YGN           MMR11003081005420000470308000000000000000   10300005 00104100000000000000000000002200     
100   95030143940000080000000000009750000000009750002000000010410403080500140000192656180308206711000019   1030000100030000   541120003104777031200000031MOB BANK               YGN           MMR11003080500140000190308000000000000000   10200001 00104100000000000000000000001950     
100   9503054000784637000000000003255000000003255000200000001041040308100625000104DWQWZJ0308206716000104   1030000100030000   541120003117777031200000031MOB BANK               YGN           MMR11003081006250001040308000000000000000   10300002 00104100000000000000000000006510     
100   9503051872587601000000000005340000000005340000200000001041040308095704000101W2DYPF0308206716000101   1030000100030000   541120003117777031200000031MOB BANK               YGN           MMR11003080957040001010308000000000000000   10300002 00104100000000000000000000010680     
100   35710500384075480000000000027000000000027000002000000010410403080413540000791028490308206710000079   1030000100030000   541120003117777031200000031MOB BANK               YGN           MMR11003080413540000790308000000000000000   10300005 00104100000000000000000000005400     
100   9503051885321014000000000001890000000001890000200000001041040308071949000045FWAN9N0308206713000045   1030000100030000   541120003111777031200000031MOB BANK               YGN           MMR11003080719490000450308000000000000000   10300002 00104100000000000000000000003780     
100   35710500121713000000000000161900000000161900002000000010410403091209190003570966230309206818000357   1030000100030000   581210001501777031200000015MOB BANK               YGN           MMR11003091209190003570309000000000000000   10300005 00104100000000000000000000055046     
100   9503051020898512000000000035900000000035900000200000001041040309093307000251ELWRQL0309206816000251   1030000100030000   541110001907777031200000019MOB BANK               YGN           MMR11003090933070002510309000000000000000   10300002 00104100000000000000000000071800     
100   9503051020884504000000000010850000000010850000200000001041040309050850000375TEESDU0309206811000375   1030000100030000   541120000004777031200000002MOB BANK               YGN           MMR11003090508500003750309000000000000000   10300002 00104100000000000000000000021700     
100   9503051897085326000000000002650000000002650000200000001041040309102451000253NFOCHJ0309206816000253   1030000100030000   541110001907777031200000019MOB BANK               YGN           MMR11003091024510002530309000000000000000   10300002 00104100000000000000000000005300     
100   35710500113882440000000000087000000000087000002000000010410403091018390003784825500309206816000378   1030000100030000   541120000004777031200000002MOB BANK               YGN           MMR11003091018390003780309000000000000000   10300005 00104100000000000000000000017400     
100   35710830079174780000000000024000000000024000002000000010410403091149200003442656110309206818000344   1030000100030000   541110001905777031200000019MOB BANK               YGN           MMR11003091149200003440309000000000000000   10300003 00104100000000000000000000004800     
100   9503051020384703000000000003295000000003295000200000001041040309053703000335MRJJUN0309206812000335   1030000100030000   541110001905777031200000019MOB BANK               YGN           MMR11003090537030003350309000000000000000   10300002 00104100000000000000000000006590     
100   9503051885969200000000000011060800000011060800200000001041040309084712001184XFQWQK0309206815001184   1030000100030000   541160000001777031200000006MOB BANK               YGN           MMR11003090847120011840309000000000000000   10300002 00104100000000000000000000022122     
100   35710500354307330000000000028500000000028500002000000010410403090819220000911657660309206814000091   1030000100030000   541110001920777031200000019MOB BANK               YGN           MMR11003090819220000910309000000000000000   10300005 00104100000000000000000000005700     
100   9503051019939681000000000002020000000002020000200000001041040309074718000337HQONZP0309206814000337   1030000100030000   541110001905777031200000019MOB BANK               YGN           MMR11003090747180003370309000000000000000   10300002 00104100000000000000000000004040     
100   35710830665555320000000000008000000000008000002000000010410403090453470003290162900309206811000329   1030000100030000   541110001905777031200000019MOB BANK               YGN           MMR11003090453470003290309000000000000000   10300003 00104100000000000000000000001600     
100   35710500364374060000000000008250000000008250002000000010410403090831090002499437080309206815000249   1030000100030000   541110001907777031200000019MOB BANK               YGN           MMR11003090831090002490309000000000000000   10300005 00104100000000000000000000001650     
100   62441900102286010000000000049402000000049402002000000010410403080914280000612026880308206715000061   1030000100030000   541120003101777031200000031MOB BANK               YGN           MMR11003080914280000610308000000000000000   10300003 00104100000000000000000000017291     
