100   9503051890482629000000000002490000000002490000200000001041040309090242000036G1ZKRQ0309206815000036   1030000100030000   541120003106777031200000031MOB BANK               YGN           MMR11003090902420000360309000000000000000   10300002 00104100000000000000000000004980     
100   62346600196660290000000000009500000000009500002000000010410403090825500001271040120309206814000127   1030000100030000   541120003117777031200000031MOB BANK               YGN           MMR11003090825500001270309000000000000000   10300005 00104100000000000000000000001900     
100   35710830631921070000000000038800000000038800002000000010410403090422110000849973210309206810000084   1030000100030000   541120003103777031200000031MOB BANK               YGN           MMR11003090422110000840309000000000000000   10300003 00104100000000000000000000007760     
100   35710830714000700000000000017000000000017000002000000010410403090839310000351517300309206815000035   1030000100030000   541120003106777031200000031MOB BANK               YGN           MMR11003090839310000350309000000000000000   10300003 00104100000000000000000000003400     
100   9503051025844446000000000002070000000002070000200000001041040309092714000023OMZWR50309206815000023   1030000100030000   541120003112777031200000031MOB BANK               YGN           MMR11003090927140000230309000000000000000   10300002 00104100000000000000000000004140     
100   62622000881987220000000000027100000000027100002000000010410403090607320000530916090309206812000053   1030000100030000   541120003114777031200000031MOB BANK               YGN           MMR11003090607320000530309000000000000000   10300006 00104100000000000000000000005420     
100   95031800702834220000000000012300000000012300002000000010410403090634050000561432270309206813000056   1030000100030000   541120003114777031200000031MOB BANK               YGN           MMR11003090634050000560309000000000000000   10300013 00104100000000000000000000002460     
100   35710500195610400000000000006800000000006800002000000010410403090816560001250941230309206814000125   1030000100030000   541120003117777031200000031MOB BANK               YGN           MMR11003090816560001250309000000000000000   10300005 00104100000000000000000000001360     
100   9503051895638316000000000000535000000000535000200000001041040309063842000058RZZXB60309206813000058   1030000100030000   541120003114777031200000031MOB BANK               YGN           MMR11003090638420000580309000000000000000   10300002 00104100000000000000000000001070     
100   9503051025215209000000000011110000000011110000200000001041040309082532000363AOAW4G0309206814000363   1030000100030000   581210001201777031200000012MOB BANK               YGN           MMR11003090825320003630309000000000000000   10300002 00104100000000000000000000037774     
100   9503051024478790000000000001050000000001050000200000001041040309131916000364B9XTUZ0309206819000364   1030000100030000   581210001201777031200000012MOB BANK               YGN           MMR11003091319160003640309000000000000000   10300002 00104100000000000000000000003570     
100   35710830672518260000000000011800000000011800002000000010410403090521250001140328610309206811000114   1030000100030000   541120003117777031200000031MOB BANK               YGN           MMR11003090521250001140309000000000000000   10300003 00104100000000000000000000002360     
100   35710500144488700000000000020122000000020122002000000010410403090351530001098099070309206810000109   1030000100030000   541120003117777031200000031MOB BANK               YGN           MMR11003090351530001090309000000000000000   10300005 00104100000000000000000000004024     
100   9503051892579752000000000003060000000003060000200000001041040309060522000117DUNSRZ0309206812000117   1030000100030000   541120003117777031200000031MOB BANK               YGN           MMR11003090605220001170309000000000000000   10300002 00104100000000000000000000006120     
100   35711450001173960000000000007600000000007600002000000010410403100413070000632955890310206910000063   1030000100030000   541120003114777031200000031MOB BANK               YGN           MMR11003100413070000630310000000000000000   10200001 00104100000000000000000000001520     
100   95030518868334880000000000004350000000004350002000000010410403100500250000662GYRKG0310206911000066   1030000100030000   541120003114777031200000031MOB BANK               YGN           MMR11003100500250000660310000000000000000   10300002 00104100000000000000000000000870     
100   9503051885332003000000000000500000000000500000200000001041040310042948000102NNNSGB0310206910000102   1030000100030000   541110001920777031200000019MOB BANK               YGN           MMR11003100429480001020310000000000000000   10300002 00104100000000000000000000001000     
100   62346600196660290000000000003600000000003600002000000010410403100707520000698214330310206913000069   1030000100030000   541120003114777031200000031MOB BANK               YGN           MMR11003100707520000690310000000000000000   10300005 00104100000000000000000000000720     
100   62343302008101540000000000041500000000041500002000000010410403100525090001049797290310206911000104   1030000100030000   541110001920777031200000019MOB BANK               YGN           MMR11003100525090001040310000000000000000   10300004 00104100000000000000000000008300     
100   62343302008101540000000000007800000000007800002000000010410403100557370001089890450310206912000108   1030000100030000   541110001920777031200000019MOB BANK               YGN           MMR11003100557370001080310000000000000000   10300004 00104100000000000000000000001560     
100   35710830264177570000000000006321000000006321002000000010410403100344100002598385110310206910000259   1030000100030000   541110001907777031200000019MOB BANK               YGN           MMR11003100344100002590310000000000000000   10300003 00104100000000000000000000001264     
100   35710830097491270000000000019300000000019300002000000010410403101147000001131282110310206918000113   1030000100030000   541110001920777031200000019MOB BANK               YGN           MMR11003101147000001130310000000000000000   10300003 00104100000000000000000000003860     
100   35710830268834790000000000022000000000022000002000000010410403101001130003650647410310206916000365   1030000100030000   581210001501777031200000015MOB BANK               YGN           MMR11003101001130003650310000000000000000   10300003 00104100000000000000000000007480     
100   62346600105982960000000000007300000000007300002000000010410403101119470002634176020310206917000263   1030000100030000   541110001907777031200000019MOB BANK               YGN           MMR11003101119470002630310000000000000000   10300005 00104100000000000000000000001460     
100   95031900030198350000000000010450000000010450002000000010410403100657460010903H442V0310206913001090   1030000100030000   581250000001777031200000005MOB BANK               YGN           MMR11003100657460010900310000000000000000   10300014 00104100000000000000000000003553     
100   35710830172469420000000000012980000000012980002000000010410403101158500010911353210310206918001091   1030000100030000   581250000001777031200000005MOB BANK               YGN           MMR11003101158500010910310000000000000000   10300003 00104100000000000000000000004413     
100   35710830462726610000000000003600000000003600002000000010410403100609250000819256710310206912000081   1030000100030000   541120003102777031200000031MOB BANK               YGN           MMR11003100609250000810310000000000000000   10300003 00104100000000000000000000000720     
100   9503051889548836000000000009403000000009403000200000001041040310085437000083TLNMKQ0310206915000083   1030000100030000   541120003102777031200000031MOB BANK               YGN           MMR11003100854370000830310000000000000000   10300002 00104100000000000000000000018806     
100   35710500171513980000000000007300000000007300002000000010410403101144510002658371740310206918000265   1030000100030000   541110001907777031200000019MOB BANK               YGN           MMR11003101144510002650310000000000000000   10300005 00104100000000000000000000001460     
100   62343302008101540000000000018400000000018400002000000010410403100551540001065052330310206912000106   1030000100030000   541110001920777031200000019MOB BANK               YGN           MMR11003100551540001060310000000000000000   10300004 00104100000000000000000000003680     
100   35710950410066880000000000040700000000040700002000000010410403100917220000560384410310206915000056   1030000100030000   541120000013777031200000002MOB BANK               YGN           MMR11003100917220000560310000000000000000   10300003 00104100000000000000000000008140     
100   9503051872317611000000000006523000000006523000200000001041040310132933000367EJU5S50310206919000367   1030000100030000   581210001501777031200000015MOB BANK               YGN           MMR11003101329330003670310000000000000000   10300002 00104100000000000000000000022178     
100   9503051892237559000000000011900000000011900000200000001041040310065124000261CIDIJ40310206913000261   1030000100030000   541110001907777031200000019MOB BANK               YGN           MMR11003100651240002610310000000000000000   10300002 00104100000000000000000000023800     
100   9503051024854370000000000022688000000022688000200000001041040310101143000262WKTRDS0310206916000262   1030000100030000   541110001907777031200000019MOB BANK               YGN           MMR11003101011430002620310000000000000000   10300002 00104100000000000000000000045376     
100   35710500385650480000000000015900000000015900002000000010410403100327200000476426990310206909000047   1030000100030000   541120003108777031200000031MOB BANK               YGN           MMR11003100327200000470310000000000000000   10300005 00104100000000000000000000003180     
100   35710500373760740000000000057000000000057000002000000010410403100915450004528741280310206915000452   1030000100030000   541120000008777031200000002MOB BANK               YGN           MMR11003100915450004520310000000000000000   10300005 00104100000000000000000000011400     
100   35710500355039010000000000003430000000003430002000000010410403100932320000603811410310206916000060   1030000100030000   541120003001777031200000030MOB BANK               YGN           MMR11003100932320000600310000000000000000   10300005 00104100000000000000000000000686     
100   35710500323859890000000000053200000000053200002000000010410403101025070000615458960310206916000061   1030000100030000   541120003001777031200000030MOB BANK               YGN           MMR11003101025070000610310000000000000000   10300005 00104100000000000000000000010640     
100   35710830404873490000000000037000000000037000002000000010410403100815460000940014820310206914000094   1030000100030000   541120003103777031200000031MOB BANK               YGN           MMR11003100815460000940310000000000000000   10300003 00104100000000000000000000007400     
100   9503051024854370000000000006800000000006800000200000001041040310102659000369GGHRWG0310206916000369   1030000100030000   541110001905777031200000019MOB BANK               YGN           MMR11003101026590003690310000000000000000   10300002 00104100000000000000000000013600     
100   9503051890872969000000000008643000000008643000200000001041040310071804001188IQ7YIX0310206913001188   1030000100030000   541160000001777031200000006MOB BANK               YGN           MMR11003100718040011880310000000000000000   10300002 00104100000000000000000000017286     
100   35710830404873490000000000009100000000009100002000000010410403100820210000960042310310206914000096   1030000100030000   541120003103777031200000031MOB BANK               YGN           MMR11003100820210000960310000000000000000   10300003 00104100000000000000000000001820     
100   35710830036689350000000000025350000000025350002000000010410403100605110001359231210310206912000135   1030000100030000   541120003117777031200000031MOB BANK               YGN           MMR11003100605110001350310000000000000000   10300003 00104100000000000000000000005070     
100   62346600196660290000000000009500000000009500002000000010410403100711130001385235960310206913000138   1030000100030000   541120003117777031200000031MOB BANK               YGN           MMR11003100711130001380310000000000000000   10300005 00104100000000000000000000001900     
100   62343301017707700000000000050000000000050000002000000010410403100713430003624704450310206913000362   1030000100030000   541110001905777031200000019MOB BANK               YGN           MMR11003100713430003620310000000000000000   10300004 00104100000000000000000000010000     
100   62343301016284080000000000013132000000013132002000000010410403100354000003482984680310206910000348   1030000100030000   541110001905777031200000019MOB BANK               YGN           MMR11003100354000003480310000000000000000   10300004 00104100000000000000000000002626     
100   9503051025283942000000000004070000000004070000200000001041040310100436000454WWBEHO0310206916000454   1030000100030000   541120000008777031200000002MOB BANK               YGN           MMR11003101004360004540310000000000000000   10300002 00104100000000000000000000008140     
100   95030510253038490000000000036000000000036000002000000010410403100909200001423LRDCD0310206915000142   1030000100030000   541120003117777031200000031MOB BANK               YGN           MMR11003100909200001420310000000000000000   10300002 00104100000000000000000000007200     
100   9503051888199706000000000001265000000001265000200000001041040310064358001089PBNSPJ0310206913001089   1030000100030000   581250000001777031200000005MOB BANK               YGN           MMR11003100643580010890310000000000000000   10300002 00104100000000000000000000004301     
100   35710500363312520000000000007400000000007400002000000010410403101103280003725630730310206917000372   1030000100030000   541110001905777031200000019MOB BANK               YGN           MMR11003101103280003720310000000000000000   10300005 00104100000000000000000000001480     
