100   9503051888189319000000000001490000000001490000200000001041040306042238000126BFIQZI0306206510000126   1030000100030000   541110001915777031200000019MOB BANK               YGN           MMR11003060422380001260306000000000000000   10300002 00104100000000000000000000002980     
100   9503051886359807000000000005060000000005060000200000001041040305063240000357TDDUZA0305206413000357   1030000100030000   581210001201777031200000012MOB BANK               YGN           MMR11003050632400003570305000000000000000   10300002 00104100000000000000000000017204     
100   9503051019623251000000000000910000000000910000200000001041040306080904000029TVXATZ0306206514000029   1030000100030000   541120003111777031200000031MOB BANK               YGN           MMR11003060809040000290306000000000000000   10300002 00104100000000000000000000001820     
100   62343301016814640000000000007488000000007488002000000010410403061001470000301800020306206516000030   1030000100030000   541120003111777031200000031MOB BANK               YGN           MMR11003061001470000300306000000000000000   10300004 00104100000000000000000000001498     
100   9503054000778977000000000006110000000006110000200000001041040306100450000031ZB90RG0306206516000031   1030000100030000   541120003111777031200000031MOB BANK               YGN           MMR11003061004500000310306000000000000000   10300002 00104100000000000000000000012220     
100   62343302002421500000000000019850000000019850002000000010410403060753200001382885750306206514000138   1030000100030000   541110001915777031200000019MOB BANK               YGN           MMR11003060753200001380306000000000000000   10300004 00104100000000000000000000003970     
100   62343301012582300000000000036652000000036652002000000010410403061136420002291797690306206518000229   1030000100030000   541110001907777031200000019MOB BANK               YGN           MMR11003061136420002290306000000000000000   10300004 00104100000000000000000000007330     
100   35710950081958700000000000024500000000024500002000000010410403060836530001405581500306206515000140   1030000100030000   541110001915777031200000019MOB BANK               YGN           MMR11003060836530001400306000000000000000   10300003 00104100000000000000000000004900     
100   35710500153907660000000000014000000000014000002000000010410403060905480000397207330306206515000039   1030000100030000   541120003117777031200000031MOB BANK               YGN           MMR11003060905480000390306000000000000000   10300005 00104100000000000000000000002800     
100   9503051023965458000000000003096000000003096000200000001041040306074353000039TJT7440306206514000039   1030000100030000   541120003001777031200000030MOB BANK               YGN           MMR11003060743530000390306000000000000000   10300002 00104100000000000000000000006192     
100   9503051021543448000000000000792000000000792000200000001041040306052145000077UBTVLF0306206511000077   1030000100030000   541110001920777031200000019MOB BANK               YGN           MMR11003060521450000770306000000000000000   10300002 00104100000000000000000000001584     
100   35710500151627690000000000009888000000009888002000000010410403060843420001427555790306206515000142   1030000100030000   541110001915777031200000019MOB BANK               YGN           MMR11003060843420001420306000000000000000   10300005 00104100000000000000000000001978     
100   95030518965960830000000000006288000000006288002000000010410403060853050001442DG4UG0306206515000144   1030000100030000   541110001915777031200000019MOB BANK               YGN           MMR11003060853050001440306000000000000000   10300002 00104100000000000000000000001258     
100   35710830740599490000000000138000000000138000002000000010410403060810580002135426010306206514000213   1030000100030000   541110001907777031200000019MOB BANK               YGN           MMR11003060810580002130306000000000000000   10300003 00104100000000000000000000027600     
100   9503051873341222000000000001530000000001530000200000001041040306045022000289Q2WZJW0306206511000289   1030000100030000   541110001905777031200000019MOB BANK               YGN           MMR11003060450220002890306000000000000000   10300002 00104100000000000000000000003060     
100   35710500143969880000000000052110000000052110002000000010410403060646440002055595990306206513000205   1030000100030000   541110001907777031200000019MOB BANK               YGN           MMR11003060646440002050306000000000000000   10300005 00104100000000000000000000010422     
100   35710500383502840000000000008200000000008200002000000010410403060808460000405399710306206514000040   1030000100030000   541120003001777031200000030MOB BANK               YGN           MMR11003060808460000400306000000000000000   10300005 00104100000000000000000000001640     
100   95030800089711990000000000017200000000017200002000000010410403061022540000796217520306206516000079   1030000100030000   541110001920777031200000019MOB BANK               YGN           MMR11003061022540000790306000000000000000   10300003 00104100000000000000000000003440     
100   9503051025693587000000000001940000000001940000200000001041040306094425000146ZL5XSB0306206516000146   1030000100030000   541110001915777031200000019MOB BANK               YGN           MMR11003060944250001460306000000000000000   10300002 00104100000000000000000000003880     
100   9503051024618015000000000023210000000023210000200000001041040306062455000290MEC9LF0306206512000290   1030000100030000   541120000002777031200000002MOB BANK               YGN           MMR11003060624550002900306000000000000000   10300002 00104100000000000000000000046420     
100   62622000816564780000000000037000000000037000002000000010410403061139170002319956150306206518000231   1030000100030000   541110001907777031200000019MOB BANK               YGN           MMR11003061139170002310306000000000000000   10300006 00104100000000000000000000007400     
100   35710500365470300000000000011900000000011900002000000010410403060332070001204480020306206510000120   1030000100030000   541110001915777031200000019MOB BANK               YGN           MMR11003060332070001200306000000000000000   10300005 00104100000000000000000000002380     
100   35710900855893430000000000013282000000013282002000000010410403060908070002215768810306206515000221   1030000100030000   541110001907777031200000019MOB BANK               YGN           MMR11003060908070002210306000000000000000   10300003 00104100000000000000000000002656     
100   9503051019945878000000000001800000000001800000200000001041040306102809000223ZE0IJX0306206516000223   1030000100030000   541110001907777031200000019MOB BANK               YGN           MMR11003061028090002230306000000000000000   10300002 00104100000000000000000000003600     
100   9503051025619632000000000004890000000004890000200000001041040306105604000046QBH2CJ0306206517000046   1030000100030000   541120003117777031200000031MOB BANK               YGN           MMR11003061056040000460306000000000000000   10300002 00104100000000000000000000009780     
100   35710830313587560000000000068500000000068500002000000010410403060348490001223853110306206510000122   1030000100030000   541110001915777031200000019MOB BANK               YGN           MMR11003060348490001220306000000000000000   10300003 00104100000000000000000000013700     
100   35710500165878810000000000022000000000022000002000000010410403060522430002914061280306206511000291   1030000100030000   541110001905777031200000019MOB BANK               YGN           MMR11003060522430002910306000000000000000   10300005 00104100000000000000000000004400     
100   35710500311034090000000000011550000000011550002000000010410403060941510010708430980306206516001070   1030000100030000   581250000001777031200000005MOB BANK               YGN           MMR11003060941510010700306000000000000000   10300005 00104100000000000000000000003927     
100   62921400000910800000000000034300000000034300002000000010410403061124440010712222220306206517001071   1030000100030000   581250000001777031200000005MOB BANK               YGN           MMR11003061124440010710306000000000000000   10300009 00104100000000000000000000011662     
100   9503051889964306000000000003552000000003552000200000001041040306102621000150DZHW6E0306206516000150   1030000100030000   541110001915777031200000019MOB BANK               YGN           MMR11003061026210001500306000000000000000   10300002 00104100000000000000000000007104     
100   35710830988593160000000000093300000000093300002000000010410403060748290001855291110306206514000185   1030000100030000   541120000017777031200000002MOB BANK               YGN           MMR11003060748290001850306000000000000000   10300003 00104100000000000000000000018660     
100   9503051023448844000000000003900000000003900000200000001041040306115333000233YEFK1H0306206518000233   1030000100030000   541110001907777031200000019MOB BANK               YGN           MMR11003061153330002330306000000000000000   10300002 00104100000000000000000000007800     
100   9503051019623251000000000000700000000000700000200000001041040306065451000057QXYHWY0306206513000057   1030000100030000   541120003103777031200000031MOB BANK               YGN           MMR11003060654510000570306000000000000000   10300002 00104100000000000000000000001400     
100   9503051024194348000000000002800000000002800000200000001041040306060700000057C156HL0306206512000057   1030000100030000   541110001903777031200000019MOB BANK               YGN           MMR11003060607000000570306000000000000000   10300002 00104100000000000000000000005600     
100   9503051896702046000000000002340000000002340000200000001041040306074225000057M52OS90306206514000057   1030000100030000   541120003102777031200000031MOB BANK               YGN           MMR11003060742250000570306000000000000000   10300002 00104100000000000000000000004680     
100   35710500383879630000000000028900000000028900002000000010410403060403480001244296040306206510000124   1030000100030000   541110001915777031200000019MOB BANK               YGN           MMR11003060403480001240306000000000000000   10300005 00104100000000000000000000005780     
100   9503051888070881000000000003745000000003745000200000001041040306104637000152FZUQCI0306206517000152   1030000100030000   541110001915777031200000019MOB BANK               YGN           MMR11003061046370001520306000000000000000   10300002 00104100000000000000000000007490     
100   35710500103546010000000000029950000000029950002000000010410403061110030001544277400306206517000154   1030000100030000   541110001915777031200000019MOB BANK               YGN           MMR11003061110030001540306000000000000000   10300005 00104100000000000000000000005990     
100   35710500165373160000000000009163000000009163002000000010410403061044170002253641860306206517000225   1030000100030000   541110001907777031200000019MOB BANK               YGN           MMR11003061044170002250306000000000000000   10300005 00104100000000000000000000001833     
100   9503051888411093000000000001355000000001355000200000001041040306074517000305AJND7H0306206514000305   1030000100030000   541110001905777031200000019MOB BANK               YGN           MMR11003060745170003050306000000000000000   10300002 00104100000000000000000000002710     
100   35710500182883630000000000033800000000033800002000000010410403060709140000597802920306206513000059   1030000100030000   541110001903777031200000019MOB BANK               YGN           MMR11003060709140000590306000000000000000   10300005 00104100000000000000000000006760     
100   35710500160968340000000000009000000000009000002000000010410403060812310002155768770306206514000215   1030000100030000   541110001907777031200000019MOB BANK               YGN           MMR11003060812310002150306000000000000000   10300005 00104100000000000000000000001800     
100   95030518958072670000000000054500000000054500002000000010410403060840140002179H2YVM0306206515000217   1030000100030000   541110001907777031200000019MOB BANK               YGN           MMR11003060840140002170306000000000000000   10300002 00104100000000000000000000010900     
100   9503051895928667000000000000880000000000880000200000001041040306113027001072HSMQ2R0306206518001072   1030000100030000   581250000001777031200000005MOB BANK               YGN           MMR11003061130270010720306000000000000000   10300002 00104100000000000000000000002992     
100   9503051021451428000000000002080000000002080000200000001041040306065826000059YXRTKJ0306206513000059   1030000100030000   541120003103777031200000031MOB BANK               YGN           MMR11003060658260000590306000000000000000   10300002 00104100000000000000000000004160     
100   950305189670204600000000000188500000000188500020000000104104030608135000005903WPZD0306206514000059   1030000100030000   541120003102777031200000031MOB BANK               YGN           MMR11003060813500000590306000000000000000   10300002 00104100000000000000000000003770     
100   9503051026177630000000000005970000000005970000200000001041040306042327000052IVOGOS0306206510000052   1030000100030000   541110001903777031200000019MOB BANK               YGN           MMR11003060423270000520306000000000000000   10300002 00104100000000000000000000011940     
100   35710500360872350000000000043800000000043800002000000010410403060512090000534348890306206511000053   1030000100030000   541110001903777031200000019MOB BANK               YGN           MMR11003060512090000530306000000000000000   10300005 00104100000000000000000000008760     
100   95030201772849410000000000032300000000032300002000000010410403060517340001328551950306206511000132   1030000100030000   541110001915777031200000019MOB BANK               YGN           MMR11003060517340001320306000000000000000   10200002 00104100000000000000000000006460     
100   35710830442497290000000000026000000000026000002000000010410403060526060000244436730306206511000024   1030000100030000   541120003111777031200000031MOB BANK               YGN           MMR11003060526060000240306000000000000000   10300003 00104100000000000000000000005200     
100   35710500360872350000000000057900000000057900002000000010410403060526460000543599120306206511000054   1030000100030000   541110001903777031200000019MOB BANK               YGN           MMR11003060526460000540306000000000000000   10300005 00104100000000000000000000011580     
100   35710500374457700000000000031400000000031400002000000010410403060601430000255285540306206512000025   1030000100030000   541120003111777031200000031MOB BANK               YGN           MMR11003060601430000250306000000000000000   10300005 00104100000000000000000000006280     
100   95030510242169840000000000007000000000007000002000000010410403060623350000262YDLCC0306206512000026   1030000100030000   541120003111777031200000031MOB BANK               YGN           MMR11003060623350000260306000000000000000   10300002 00104100000000000000000000001400     
100   35650973660005000000000000014504000000014504002000000010410403060445270000555609780306206511000055   1030000100030000   541120003102777031200000031MOB BANK               YGN           MMR11003060445270000550306000000000000000   10300005 00104100000000000000000000005076     
100   9503051895015358000000000004080000000004080000200000001041040306053331000055MQT7AW0306206512000055   1030000100030000   541110001903777031200000019MOB BANK               YGN           MMR11003060533310000550306000000000000000   10300002 00104100000000000000000000008160     
100   35710830688120480000000000028500000000028500002000000010410403060545290000564553120306206512000056   1030000100030000   541110001903777031200000019MOB BANK               YGN           MMR11003060545290000560306000000000000000   10300003 00104100000000000000000000005700     
100   950319000390727800000000000439000000000439000020000000104104030608481300030844R91V0306206515000308   1030000100030000   541110001905777031200000019MOB BANK               YGN           MMR11003060848130003080306000000000000000   10300014 00104100000000000000000000008780     
100   95031900014557910000000000013083000000013083002000000010410403060526160002943EC91V0306206511000294   1030000100030000   541110001905777031200000019MOB BANK               YGN           MMR11003060526160002940306000000000000000   10300014 00104100000000000000000000002617     
100   35710500394164230000000000004300000000004300002000000010410403060605060002966378000306206512000296   1030000100030000   541110001905777031200000019MOB BANK               YGN           MMR11003060605060002960306000000000000000   10300005 00104100000000000000000000000860     
100   35710500381711510000000000020125000000020125002000000010410403060439490000358623800306206511000035   1030000100030000   541120003001777031200000030MOB BANK               YGN           MMR11003060439490000350306000000000000000   10300005 00104100000000000000000000004025     
100   9503051888411093000000000003750000000003750000200000001041040306073400000209VUXJLA0306206514000209   1030000100030000   541110001907777031200000019MOB BANK               YGN           MMR11003060734000002090306000000000000000   10300002 00104100000000000000000000007500     
100   95030518914207270000000000015600000000015600002000000010410403060536250000369RMJKW0306206512000036   1030000100030000   541120003117777031200000031MOB BANK               YGN           MMR11003060536250000360306000000000000000   10300002 00104100000000000000000000003120     
100   35710500381711510000000000004780000000004780002000000010410403060447420000375902020306206511000037   1030000100030000   541120003001777031200000030MOB BANK               YGN           MMR11003060447420000370306000000000000000   10300005 00104100000000000000000000000956     
100   95030510196232510000000000012100000000012100002000000010410403060836030000614QHN6H0306206515000061   1030000100030000   541120003102777031200000031MOB BANK               YGN           MMR11003060836030000610306000000000000000   10300002 00104100000000000000000000002420     
100   9503051025890712000000000001060000000001060000200000001041040306050117000129W03WLY0306206511000129   1030000100030000   541110001915777031200000019MOB BANK               YGN           MMR11003060501170001290306000000000000000   10300002 00104100000000000000000000002120     
100   95030201772849410000000000018500000000018500002000000010410403060515420001310204440306206511000131   1030000100030000   541110001915777031200000019MOB BANK               YGN           MMR11003060515420001310306000000000000000   10200002 00104100000000000000000000003700     
100   35710950510561100000000000007203000000007203002000000010410403061133300002276641210306206518000227   1030000100030000   541110001907777031200000019MOB BANK               YGN           MMR11003061133300002270306000000000000000   10300003 00104100000000000000000000001441     
100   9503051019623251000000000003454000000003454000200000001041040306073216000027MDGEFP0306206514000027   1030000100030000   541120003111777031200000031MOB BANK               YGN           MMR11003060732160000270306000000000000000   10300002 00104100000000000000000000006908     
100   9503051019623251000000000000700000000000700000200000001041040306070518000061YHWHGF0306206513000061   1030000100030000   541120003103777031200000031MOB BANK               YGN           MMR11003060705180000610306000000000000000   10300002 00104100000000000000000000001400     
100   9503051888194244000000000003880000000003880000200000001041040306074818000061XWODGM0306206514000061   1030000100030000   541110001903777031200000019MOB BANK               YGN           MMR11003060748180000610306000000000000000   10300002 00104100000000000000000000007760     
100   35710900855893430000000000062812000000062812002000000010410403061006520001486121320306206516000148   1030000100030000   541110001915777031200000019MOB BANK               YGN           MMR11003061006520001480306000000000000000   10300003 00104100000000000000000000012562     
100   95030800089711990000000000012450000000012450002000000010410403061031380003116270000306206517000311   1030000100030000   541110001905777031200000019MOB BANK               YGN           MMR11003061031380003110306000000000000000   10300003 00104100000000000000000000002490     
100   9503051026029351000000000000245000000000245000200000001041040306085625000219IIV9DF0306206515000219   1030000100030000   541110001907777031200000019MOB BANK               YGN           MMR11003060856250002190306000000000000000   10300002 00104100000000000000000000000490     
100   35710830482668100000000000167600000000167600002000000010410403060620570002984765810306206512000298   1030000100030000   541110001905777031200000019MOB BANK               YGN           MMR11003060620570002980306000000000000000   10300003 00104100000000000000000000033520     
100   62343302004380140000000000021800000000021800002000000010410403060824450000623888590306206514000062   1030000100030000   541110001903777031200000019MOB BANK               YGN           MMR11003060824450000620306000000000000000   10300004 00104100000000000000000000004360     
100   9503051019623251000000000000100000000000100000200000001041040306070557000062GGXUGB0306206513000062   1030000100030000   541120003103777031200000031MOB BANK               YGN           MMR11003060705570000620306000000000000000   10300002 00104100000000000000000000000200     
100   35710500361779520000000000054900000000054900002000000010410403061121380000631710720306206517000063   1030000100030000   541110001903777031200000019MOB BANK               YGN           MMR11003061121380000630306000000000000000   10300005 00104100000000000000000000010980     
100   35710500160968340000000000016600000000016600002000000010410403060729000001360618170306206513000136   1030000100030000   541110001915777031200000019MOB BANK               YGN           MMR11003060729000001360306000000000000000   10300005 00104100000000000000000000003320     
100   9503051024382364000000000002250000000002250000200000001041040306075735000211L2S8H00306206514000211   1030000100030000   541110001907777031200000019MOB BANK               YGN           MMR11003060757350002110306000000000000000   10300002 00104100000000000000000000004500     
100   9503051025890712000000000002420600000002420600200000001041040306052325000203MUX7DX0306206511000203   1030000100030000   541110001907777031200000019MOB BANK               YGN           MMR11003060523250002030306000000000000000   10300002 00104100000000000000000000004841     
100   9503051894583828000000000003880000000003880000200000001041040306043627000055JG0HFD0306206511000055   1030000100030000   541120003103777031200000031MOB BANK               YGN           MMR11003060436270000550306000000000000000   10300002 00104100000000000000000000007760     
