100   62346600165489150000000000012000000000012000002000000010410403120708150000445844280312207113000044   1030000100030000   541120003106777031200000031MOB BANK               YGN           MMR11003120708150000440312000000000000000   10300005 00104100000000000000000000002400     
100   9503051873585521000000000003150000000003150000200000001041040312092400000046GFVVBH0312207115000046   1030000100030000   541120003106777031200000031MOB BANK               YGN           MMR11003120924000000460312000000000000000   10300002 00104100000000000000000000006300     
100   62346600172668710000000000041600000000041600002000000010410403130659220000874666090313207213000087   1030000100030000   541110001903777031200000019MOB BANK               YGN           MMR11003130659220000870313000000000000000   10300005 00104100000000000000000000008320     
100   35710500374457700000000000003500000000003500002000000010410403130939330000878766640313207216000087   1030000100030000   541120003114777031200000031MOB BANK               YGN           MMR11003130939330000870313000000000000000   10300005 00104100000000000000000000000700     
100   9503051884406832000000000002080000000002080000200000001041040313045513000084I1IMG50313207211000084   1030000100030000   541110001903777031200000019MOB BANK               YGN           MMR11003130455130000840313000000000000000   10300002 00104100000000000000000000004160     
100   62622000083177740000000000016850000000016850002000000010410403130850120000842266950313207215000084   1030000100030000   541120003114777031200000031MOB BANK               YGN           MMR11003130850120000840313000000000000000   10300006 00104100000000000000000000003370     
100   35710500192229730000000000061600000000061600002000000010410403130629110000858410340313207212000085   1030000100030000   541110001903777031200000019MOB BANK               YGN           MMR11003130629110000850313000000000000000   10300005 00104100000000000000000000012320     
100   35710830531816560000000000018800000000018800002000000010410403131137250000957144610313207218000095   1030000100030000   541110001903777031200000019MOB BANK               YGN           MMR11003131137250000950313000000000000000   10300003 00104100000000000000000000003760     
100   35710500113681960000000000003000000000003000002000000010410403130440070000641878830313207211000064   1030000100030000   541120003001777031200000030MOB BANK               YGN           MMR11003130440070000640313000000000000000   10300005 00104100000000000000000000000600     
100   35710830295108300000000000044800000000044800002000000010410403130700510000885485220313207213000088   1030000100030000   541110001903777031200000019MOB BANK               YGN           MMR11003130700510000880313000000000000000   10300003 00104100000000000000000000008960     
100   35710500393382960000000000053600000000053600002000000010410403130743430000893836230313207214000089   1030000100030000   541110001903777031200000019MOB BANK               YGN           MMR11003130743430000890313000000000000000   10300005 00104100000000000000000000010720     
100   35710830909749980000000000022800000000022800002000000010410403130819400000905958210313207214000090   1030000100030000   541110001903777031200000019MOB BANK               YGN           MMR11003130819400000900313000000000000000   10300003 00104100000000000000000000004560     
100   95051010166803210000000000023000000000023000002000000010410403130631560000866247270313207213000086   1030000100030000   541110001903777031200000019MOB BANK               YGN           MMR11003130631560000860313000000000000000   10300005 00104100000000000000000000008050     
100   35710830504586510000000000018400000000018400002000000010410403131056300000656899210313207217000065   1030000100030000   541120003001777031200000030MOB BANK               YGN           MMR11003131056300000650313000000000000000   10300003 00104100000000000000000000003680     
100   35710500130910690000000000032800000000032800002000000010410403130330590000807196350313207210000080   1030000100030000   541110001903777031200000019MOB BANK               YGN           MMR11003130330590000800313000000000000000   10300005 00104100000000000000000000006560     
100   9503051895501142000000000004080000000004080000200000001041040313035528000081PDQJXM0313207210000081   1030000100030000   541110001903777031200000019MOB BANK               YGN           MMR11003130355280000810313000000000000000   10300002 00104100000000000000000000008160     
100   35710500174217420000000000038800000000038800002000000010410403130411410000828474980313207210000082   1030000100030000   541110001903777031200000019MOB BANK               YGN           MMR11003130411410000820313000000000000000   10300005 00104100000000000000000000007760     
100   62346600113969710000000000023904000000023904002000000010410403130920560000919730280313207215000091   1030000100030000   541110001903777031200000019MOB BANK               YGN           MMR11003130920560000910313000000000000000   10300005 00104100000000000000000000004781     
100   9503051025120375000000000001380000000001380000200000001041040313032430000082FT5XVI0313207209000082   1030000100030000   541120003114777031200000031MOB BANK               YGN           MMR11003130324300000820313000000000000000   10300002 00104100000000000000000000002760     
100   62346600171177850000000000035500000000035500002000000010410403130437000000831211850313207211000083   1030000100030000   541110001903777031200000019MOB BANK               YGN           MMR11003130437000000830313000000000000000   10300005 00104100000000000000000000007100     
100   9503051021020926000000000001550000000001550000200000001041040313072755000083LXZCBB0313207213000083   1030000100030000   541120003114777031200000031MOB BANK               YGN           MMR11003130727550000830313000000000000000   10300002 00104100000000000000000000003100     
100   62346600183634950000000000017000000000017000002000000010410403131111530000945146510313207217000094   1030000100030000   541110001903777031200000019MOB BANK               YGN           MMR11003131111530000940313000000000000000   10300005 00104100000000000000000000003400     
100   35710500392767360000000000035800000000035800002000000010410403100711090003673498370310206913000367   1030000100030000   581210001201777031200000012MOB BANK               YGN           MMR11003100711090003670310000000000000000   10300005 00104100000000000000000000012172     
100   9503051872584855000000000014850000000014850000200000001041040310134839000368NWGY120310206920000368   1030000100030000   581210001201777031200000012MOB BANK               YGN           MMR11003101348390003680310000000000000000   10300002 00104100000000000000000000050490     
100   9503051897573644000000000002160000000002160000200000001041040313120125000154F5MZQD0313207218000154   1030000100030000   541110001920777031200000019MOB BANK               YGN           MMR11003131201250001540313000000000000000   10300002 00104100000000000000000000004320     
100   35710500181167960000000000009900000000009900002000000010410403130358500001965674870313207210000196   1030000100030000   541120003117777031200000031MOB BANK               YGN           MMR11003130358500001960313000000000000000   10300005 00104100000000000000000000001980     
100   9503051886142070000000000002210000000002210000200000001041040313100634000208RWXV340313207216000208   1030000100030000   541120003117777031200000031MOB BANK               YGN           MMR11003131006340002080313000000000000000   10300002 00104100000000000000000000004420     
100   62346600145483390000000000043900000000043900002000000010410403130435140001981758080313207211000198   1030000100030000   541120003117777031200000031MOB BANK               YGN           MMR11003130435140001980313000000000000000   10300005 00104100000000000000000000008780     
100   35710830909749980000000000012700000000012700002000000010410403130810520002275905410313207214000227   1030000100030000   541110001915777031200000019MOB BANK               YGN           MMR11003130810520002270313000000000000000   10300003 00104100000000000000000000002540     
100   35710500311631060000000000004000000000004000002000000010410403130947010002379886690313207216000237   1030000100030000   541110001915777031200000019MOB BANK               YGN           MMR11003130947010002370313000000000000000   10300005 00104100000000000000000000000800     
100   9503051884804374000000000002365000000002365000200000001041040313102025000239I3LGOO0313207216000239   1030000100030000   541110001915777031200000019MOB BANK               YGN           MMR11003131020250002390313000000000000000   10300002 00104100000000000000000000004730     
100   62346600113969710000000000008448000000008448002000000010410403130932260002333213520313207216000233   1030000100030000   541110001915777031200000019MOB BANK               YGN           MMR11003130932260002330313000000000000000   10300005 00104100000000000000000000001690     
100   62346600154341660000000000023700000000023700002000000010410403131049530002513472160313207217000251   1030000100030000   541110001915777031200000019MOB BANK               YGN           MMR11003131049530002510313000000000000000   10300005 00104100000000000000000000004740     
100   9503051021186511000000000000700800000000700800200000001041040313110432000253HVIM8E0313207217000253   1030000100030000   541110001915777031200000019MOB BANK               YGN           MMR11003131104320002530313000000000000000   10300002 00104100000000000000000000001402     
100   35710830601803600000000000385000000000385000002000000010410403130905100003396231110313207215000339   1030000100030000   541110001907777031200000019MOB BANK               YGN           MMR11003130905100003390313000000000000000   10300003 00104100000000000000000000077000     
100   35710500393361670000000000022000000000022000002000000010410403130841560003842849130313207215000384   1030000100030000   541120000004777031200000002MOB BANK               YGN           MMR11003130841560003840313000000000000000   10300005 00104100000000000000000000004400     
100   35710500149659560000000000054250000000054250002000000010410403130729150004714547700313207213000471   1030000100030000   541110001905777031200000019MOB BANK               YGN           MMR11003130729150004710313000000000000000   10300005 00104100000000000000000000010850     
100   35710830867785440000000000055400000000055400002000000010410403130436300003154619200313207211000315   1030000100030000   541110001907777031200000019MOB BANK               YGN           MMR11003130436300003150313000000000000000   10300003 00104100000000000000000000011080     
100   35710830654522020000000000014000000000014000002000000010410403131021020003456686400313207216000345   1030000100030000   541110001907777031200000019MOB BANK               YGN           MMR11003131021020003450313000000000000000   10300003 00104100000000000000000000002800     
100   9503051884406832000000000002450000000002450000200000001041040313053248000320IBXXHY0313207212000320   1030000100030000   541110001907777031200000019MOB BANK               YGN           MMR11003130532480003200313000000000000000   10300002 00104100000000000000000000004900     
100   35710830321663560000000000029000000000029000002000000010410403130518120004064869410313207211000406   1030000100030000   541120000011777031200000002MOB BANK               YGN           MMR11003130518120004060313000000000000000   10300003 00104100000000000000000000005800     
100   35710830030268110000000000044300000000044300002000000010410403130917450002316306810313207215000231   1030000100030000   541110001915777031200000019MOB BANK               YGN           MMR11003130917450002310313000000000000000   10300003 00104100000000000000000000008860     
100   9503051888376684000000000009900000000009900000200000001041040313064829000329ZSPT6H0313207213000329   1030000100030000   541110001907777031200000019MOB BANK               YGN           MMR11003130648290003290313000000000000000   10300002 00104100000000000000000000019800     
100   62346600152548530000000000081000000000081000002000000010410403130847250003371586480313207215000337   1030000100030000   541110001907777031200000019MOB BANK               YGN           MMR11003130847250003370313000000000000000   10300005 00104100000000000000000000016200     
100   9503051894785860000000000000290000000000290000200000001041040313064455000468A2GYQ50313207213000468   1030000100030000   541110001905777031200000019MOB BANK               YGN           MMR11003130644550004680313000000000000000   10300002 00104100000000000000000000000580     
100   9503051884128741000000000000325000000000325000200000001041040313075534000331WBEMY70313207214000331   1030000100030000   541110001907777031200000019MOB BANK               YGN           MMR11003130755340003310313000000000000000   10300002 00104100000000000000000000000650     
100   95030800066501590000000000015000000000015000002000000010410403130835090003336051110313207215000333   1030000100030000   541110001907777031200000019MOB BANK               YGN           MMR11003130835090003330313000000000000000   10300003 00104100000000000000000000003000     
100   62921400012796350000000000010200000000010200002000000010410403131032370004922222220313207217000492   1030000100030000   541110001905777031200000019MOB BANK               YGN           MMR11003131032370004920313000000000000000   10300009 00104100000000000000000000002040     
100   9503051894234828000000000000930000000000930000200000001041040313093935000486S1AE4R0313207216000486   1030000100030000   541110001905777031200000019MOB BANK               YGN           MMR11003130939350004860313000000000000000   10300002 00104100000000000000000000001860     
100   35710830435056000000000000030200000000030200002000000010410403130631350004665309710313207213000466   1030000100030000   541110001905777031200000019MOB BANK               YGN           MMR11003130631350004660313000000000000000   10300003 00104100000000000000000000006040     
100   62346600152548530000000000006750000000006750002000000010410403130945450004893787330313207216000489   1030000100030000   541110001905777031200000019MOB BANK               YGN           MMR11003130945450004890313000000000000000   10300005 00104100000000000000000000001350     
100   9503051021125972000000000001030000000001030000200000001041040313081918000476UKWX3I0313207214000476   1030000100030000   541110001905777031200000019MOB BANK               YGN           MMR11003130819180004760313000000000000000   10300002 00104100000000000000000000002060     
100   62343301014675180000000000025960000000025960002000000010410403130443320004589919200313207211000458   1030000100030000   541110001905777031200000019MOB BANK               YGN           MMR11003130443320004580313000000000000000   10300004 00104100000000000000000000005192     
100   35710830354196870000000000007400000000007400002000000010410403130517000004614862200313207211000461   1030000100030000   541110001905777031200000019MOB BANK               YGN           MMR11003130517000004610313000000000000000   10300003 00104100000000000000000000001480     
100   35710830899855180000000000018800000000018800002000000010410403130804250001235866710313207214000123   1030000100030000   541120003103777031200000031MOB BANK               YGN           MMR11003130804250001230313000000000000000   10300003 00104100000000000000000000003760     
100   9503051884736691000000000000700800000000700800200000001041040313075347000151ZCQMTH0313207214000151   1030000100030000   541110001920777031200000019MOB BANK               YGN           MMR11003130753470001510313000000000000000   10300002 00104100000000000000000000001402     
100   9503051024078749000000000001197000000001197000200000001041040313112333000153TQN4EG0313207217000153   1030000100030000   541110001920777031200000019MOB BANK               YGN           MMR11003131123330001530313000000000000000   10300002 00104100000000000000000000002394     
100   9503051025482403000000000001270000000001270000200000001041040313102811000212NTICCV0313207216000212   1030000100030000   541120003117777031200000031MOB BANK               YGN           MMR11003131028110002120313000000000000000   10300002 00104100000000000000000000002540     
100   9503051025755493000000000001322000000001322000200000001041040313054549000215OELDZP0313207212000215   1030000100030000   541110001915777031200000019MOB BANK               YGN           MMR11003130545490002150313000000000000000   10300002 00104100000000000000000000002644     
100   35710500165185710000000000100000000000100000002000000010410403130527540002000457360313207211000200   1030000100030000   541120003117777031200000031MOB BANK               YGN           MMR11003130527540002000313000000000000000   10300005 00104100000000000000000000020000     
100   9503051885541652000000000001440000000001440000200000001041040313055039000217J2QMSX0313207212000217   1030000100030000   541110001915777031200000019MOB BANK               YGN           MMR11003130550390002170313000000000000000   10300002 00104100000000000000000000002880     
100   35710830360850320000000000012096000000012096002000000010410403130821130002295967510313207214000229   1030000100030000   541110001915777031200000019MOB BANK               YGN           MMR11003130821130002290313000000000000000   10300003 00104100000000000000000000002419     
100   35710500361494310000000000021888000000021888002000000010410403130558370002194124580313207212000219   1030000100030000   541110001915777031200000019MOB BANK               YGN           MMR11003130558370002190313000000000000000   10300005 00104100000000000000000000004378     
100   35710830739615900000000000025350000000025350002000000010410403131027500002416727110313207216000241   1030000100030000   541110001915777031200000019MOB BANK               YGN           MMR11003131027500002410313000000000000000   10300003 00104100000000000000000000005070     
100   9503051884804374000000000002040000000002040000200000001041040313104248000245PZA4R40313207217000245   1030000100030000   541110001915777031200000019MOB BANK               YGN           MMR11003131042480002450313000000000000000   10300002 00104100000000000000000000004080     
100   35710500110978860000000000008736000000008736002000000010410403131047000002477784500313207217000247   1030000100030000   541110001915777031200000019MOB BANK               YGN           MMR11003131047000002470313000000000000000   10300005 00104100000000000000000000001747     
100   95030518896600370000000000011568000000011568002000000010410403130747090002031FOCWN0313207214000203   1030000100030000   541120003117777031200000031MOB BANK               YGN           MMR11003130747090002030313000000000000000   10300002 00104100000000000000000000002314     
100   9503051894785860000000000000520000000000520000200000001041040313061928000221UH3UFL0313207212000221   1030000100030000   541110001915777031200000019MOB BANK               YGN           MMR11003130619280002210313000000000000000   10300002 00104100000000000000000000001040     
100   35710500122584040000000000008640000000008640002000000010410403131107540002551196420313207217000255   1030000100030000   541110001915777031200000019MOB BANK               YGN           MMR11003131107540002550313000000000000000   10300005 00104100000000000000000000001728     
100   35710500370883560000000000021000000000021000002000000010410403130612060001487352530313207212000148   1030000100030000   541110001920777031200000019MOB BANK               YGN           MMR11003130612060001480313000000000000000   10300005 00104100000000000000000000004200     
100   9503051891791671000000000003865000000003865000200000001041040313103026000243YQR45F0313207217000243   1030000100030000   541110001915777031200000019MOB BANK               YGN           MMR11003131030260002430313000000000000000   10300002 00104100000000000000000000007730     
100   9503051019719463000000000000970000000000970000200000001041040313091743000341NE440O0313207215000341   1030000100030000   541110001907777031200000019MOB BANK               YGN           MMR11003130917430003410313000000000000000   10300002 00104100000000000000000000001940     
100   35710500145447850000000000052250000000052250002000000010410403131035590003120364970313207217000312   1030000100030000   541120000021777031200000002MOB BANK               YGN           MMR11003131035590003120313000000000000000   10300005 00104100000000000000000000010450     
100   35710830334941530000000000007900000000007900002000000010410403131010260003436622800313207216000343   1030000100030000   541110001907777031200000019MOB BANK               YGN           MMR11003131010260003430313000000000000000   10300003 00104100000000000000000000001580     
100   9503051026018842000000000000430000000000430000200000001041040313052528000318KUJCGR0313207211000318   1030000100030000   541110001907777031200000019MOB BANK               YGN           MMR11003130525280003180313000000000000000   10300002 00104100000000000000000000000860     
100   62346600152548530000000000076000000000076000002000000010410403131056150003479876250313207217000347   1030000100030000   541110001907777031200000019MOB BANK               YGN           MMR11003131056150003470313000000000000000   10300005 00104100000000000000000000015200     
100   62622000177279220000000000000550000000000550002000000010410403131113060003492365970313207217000349   1030000100030000   541110001907777031200000019MOB BANK               YGN           MMR11003131113060003490313000000000000000   10300006 00104100000000000000000000000110     
100   35710830680894640000000000004460000000004460002000000010410403130540580003225006010313207212000322   1030000100030000   541110001907777031200000019MOB BANK               YGN           MMR11003130540580003220313000000000000000   10300003 00104100000000000000000000000892     
100   9503051020165391000000000003420000000003420000200000001041040313062746000326XEZLRZ0313207212000326   1030000100030000   541110001907777031200000019MOB BANK               YGN           MMR11003130627460003260313000000000000000   10300002 00104100000000000000000000006840     
100   35710500360564790000000000008900000000008900002000000010410403130838270003358984150313207215000335   1030000100030000   541110001907777031200000019MOB BANK               YGN           MMR11003130838270003350313000000000000000   10300005 00104100000000000000000000001780     
100   95030518955011420000000000013800000000013800002000000010410403130406030004489P8VCS0313207210000448   1030000100030000   541110001905777031200000019MOB BANK               YGN           MMR11003130406030004480313000000000000000   10300002 00104100000000000000000000002760     
100   35710500167976880000000000020600000000020600002000000010410403130901500004785736470313207215000478   1030000100030000   541110001905777031200000019MOB BANK               YGN           MMR11003130901500004780313000000000000000   10300005 00104100000000000000000000004120     
100   35710500126742950000000000049000000000049000002000000010410403130408520004514417940313207210000451   1030000100030000   541110001905777031200000019MOB BANK               YGN           MMR11003130408520004510313000000000000000   10300005 00104100000000000000000000009800     
100   95030201042444550000000000099900000000099900002000000010410403130814510012131072860313207214001213   1030000100030000   541160000001777031200000006MOB BANK               YGN           MMR11003130814510012130313000000000000000   10200002 00104100000000000000000000019980     
100   35710830185212930000000000070380000000070380002000000010410403131046130012156837510313207217001215   1030000100030000   541160000001777031200000006MOB BANK               YGN           MMR11003131046130012150313000000000000000   10300003 00104100000000000000000000014076     
100   35710500104913610000000000093480000000093480002000000010410403130754150012119549790313207214001211   1030000100030000   541160000001777031200000006MOB BANK               YGN           MMR11003130754150012110313000000000000000   10300005 00104100000000000000000000018696     
100   62346600152548530000000000011900000000011900002000000010410403130942180000923057110313207216000092   1030000100030000   541110001903777031200000019MOB BANK               YGN           MMR11003130942180000920313000000000000000   10300005 00104100000000000000000000002380     
100   35710500113681960000000000007700000000007700002000000010410403130433310000633509450313207211000063   1030000100030000   541120003001777031200000030MOB BANK               YGN           MMR11003130433310000630313000000000000000   10300005 00104100000000000000000000001540     
100   9503051025917382000000000008580000000008580000200000001041040310060249000366GWCCVD0310206912000366   1030000100030000   581210001201777031200000012MOB BANK               YGN           MMR11003100602490003660310000000000000000   10300002 00104100000000000000000000029172     
