100   35710500340788140000000000017000000000017000002000000010410403131110380000528791860313207217000052   1030000100030000   541120003106777031200000031MOB BANK               YGN           MMR11003131110380000520313000000000000000   10300005 00104100000000000000000000003400     
100   9503054000553867000000000001020000000001020000200000001041040313120825000094GKQAPD0313207218000094   1030000100030000   541120003101777031200000031MOB BANK               YGN           MMR11003131208250000940313000000000000000   10300002 00104100000000000000000000002040     
100   35710500107522750000000000014300000000014300002000000010410403130800020011051111420313207214001105   1030000100030000   581250000001777031200000005MOB BANK               YGN           MMR11003130800020011050313000000000000000   10300005 00104100000000000000000000004862     
100   9503051894222666000000000002486000000002486000200000001041040313112237001107SLQAUE0313207217001107   1030000100030000   581250000001777031200000005MOB BANK               YGN           MMR11003131122370011070313000000000000000   10300002 00104100000000000000000000008452     
100   9503051021574104000000000000660000000000660000200000001041040314063928000067F42MHG0314207313000067   1030000100030000   541120003001777031200000030MOB BANK               YGN           MMR11003140639280000670314000000000000000   10300002 00104100000000000000000000001320     
100   95031900031653230000000000006950000000006950002000000010410403141103020003633ZN82V0314207317000363   1030000100030000   541110001907777031200000019MOB BANK               YGN           MMR11003141103020003630314000000000000000   10300014 00104100000000000000000000001390     
100   35710500384870110000000000055800000000055800002000000010410403141029470003027541730314207316000302   1030000100030000   541120000002777031200000002MOB BANK               YGN           MMR11003141029470003020314000000000000000   10300005 00104100000000000000000000011160     
100   35710500323870350000000000030000000000030000002000000010410403140425110001582209010314207310000158   1030000100030000   541110001920777031200000019MOB BANK               YGN           MMR11003140425110001580314000000000000000   10300005 00104100000000000000000000006000     
100   9503051022377614000000000001360000000001360000200000001041040314050341000161AZHLJP0314207311000161   1030000100030000   541110001920777031200000019MOB BANK               YGN           MMR11003140503410001610314000000000000000   10300002 00104100000000000000000000002720     
100   35710500101479890000000000040800000000040800002000000010410403140801350001707555290314207314000170   1030000100030000   541110001920777031200000019MOB BANK               YGN           MMR11003140801350001700314000000000000000   10300005 00104100000000000000000000008160     
100   35710830863867440000000000032000000000032000002000000010410403140549280001663697000314207312000166   1030000100030000   541110001920777031200000019MOB BANK               YGN           MMR11003140549280001660314000000000000000   10300003 00104100000000000000000000006400     
100   9503051885184784000000000004502000000004502000200000001041040314052633000499IQFHTL0314207311000499   1030000100030000   541110001905777031200000019MOB BANK               YGN           MMR11003140526330004990314000000000000000   10300002 00104100000000000000000000009004     
100   95031900011219970000000000013650000000013650002000000010410403140849410000682NE82V0314207315000068   1030000100030000   541120003001777031200000030MOB BANK               YGN           MMR11003140849410000680314000000000000000   10300014 00104100000000000000000000002730     
100   62346600199776990000000000013500000000013500002000000010410403140941230001742444020314207316000174   1030000100030000   541110001920777031200000019MOB BANK               YGN           MMR11003140941230001740314000000000000000   10300005 00104100000000000000000000002700     
100   9503051897374746000000000000450000000000450000200000001041040314060800000168QYXFLB0314207312000168   1030000100030000   541110001920777031200000019MOB BANK               YGN           MMR11003140608000001680314000000000000000   10300002 00104100000000000000000000000900     
100   62346600125370030000000000014000000000014000002000000010410403141130510002503133910314207318000250   1030000100030000   541120003117777031200000031MOB BANK               YGN           MMR11003141130510002500314000000000000000   10300005 00104100000000000000000000002800     
100   35710830069802530000000000107880000000107880002000000010410403140635150003573971610314207313000357   1030000100030000   541110001907777031200000019MOB BANK               YGN           MMR11003140635150003570314000000000000000   10300003 00104100000000000000000000021576     
100   35710830495612190000000000025500000000025500002000000010410403141111140003665627810314207317000366   1030000100030000   541110001907777031200000019MOB BANK               YGN           MMR11003141111140003660314000000000000000   10300003 00104100000000000000000000005100     
100   9503051886178769000000000002190000000002190000200000001041040314044748000129T16SLA0314207311000129   1030000100030000   541120003103777031200000031MOB BANK               YGN           MMR11003140447480001290314000000000000000   10300002 00104100000000000000000000004380     
100   9503051025481512000000000000530000000000530000200000001041040314114905000147AZDYYT0314207318000147   1030000100030000   541120003103777031200000031MOB BANK               YGN           MMR11003141149050001470314000000000000000   10300002 00104100000000000000000000001060     
100   35710830748465350000000000023275000000023275002000000010410403140413180000913120000314207310000091   1030000100030000   541120003114777031200000031MOB BANK               YGN           MMR11003140413180000910314000000000000000   10300003 00104100000000000000000000004655     
100   95030518855426500000000000018900000000018900002000000010410403140436350000933F2NVS0314207311000093   1030000100030000   541120003114777031200000031MOB BANK               YGN           MMR11003140436350000930314000000000000000   10300002 00104100000000000000000000003780     
100   35710830801255770000000000088000000000088000002000000010410403140637430003593986410314207313000359   1030000100030000   541110001907777031200000019MOB BANK               YGN           MMR11003140637430003590314000000000000000   10300003 00104100000000000000000000017600     
100   35710830801255770000000000280000000000280000002000000010410403140701030003614126410314207313000361   1030000100030000   541110001907777031200000019MOB BANK               YGN           MMR11003140701030003610314000000000000000   10300003 00104100000000000000000000056000     
100   9503051025261856000000000016395000000016395000200000001041040314101754001221O7LUYX0314207316001221   1030000100030000   541160000001777031200000006MOB BANK               YGN           MMR11003141017540012210314000000000000000   10300002 00104100000000000000000000032790     
100   9503051024819365000000000001053000000001053000200000001041040314112119000246KILRK20314207317000246   1030000100030000   541120003117777031200000031MOB BANK               YGN           MMR11003141121190002460314000000000000000   10300002 00104100000000000000000000002106     
100   62622000976174150000000000038500000000038500002000000010410403141013570011082367700314207316001108   1030000100030000   581250000001777031200000005MOB BANK               YGN           MMR11003141013570011080314000000000000000   10300006 00104100000000000000000000013090     
100   9503051025277613000000000000303888000000303888200000001041040314071856000094ZKEM6S0314207313000094   1030000100030000   541120003114777031200000031MOB BANK               YGN           MMR11003140718560000940314000000000000000   10300002 00104100000000000000000000000608     
100   35710830805901430000000000065500000000065500002000000010410403140614350002283847710314207312000228   1030000100030000   541120003117777031200000031MOB BANK               YGN           MMR11003140614350002280314000000000000000   10300003 00104100000000000000000000013100     
100   35710500393382960000000000064800000000064800002000000010410403140533280003530220860314207312000353   1030000100030000   541110001907777031200000019MOB BANK               YGN           MMR11003140533280003530314000000000000000   10300005 00104100000000000000000000012960     
100   35710830117679840000000000071520000000071520002000000010410403140607190003553804010314207312000355   1030000100030000   541110001907777031200000019MOB BANK               YGN           MMR11003140607190003550314000000000000000   10300003 00104100000000000000000000014304     
100   9503051892051661000000000002430000000002430000200000001041040314072117000232JFKNEO0314207313000232   1030000100030000   541120003117777031200000031MOB BANK               YGN           MMR11003140721170002320314000000000000000   10300002 00104100000000000000000000004860     
100   9503051893904215000000000006010000000006010000200000001041040314120405000368S5JHUU0314207318000368   1030000100030000   541110001907777031200000019MOB BANK               YGN           MMR11003141204050003680314000000000000000   10300002 00104100000000000000000000012020     
100   35710500333919860000000000024420000000024420002000000010410403140911220001458593820314207315000145   1030000100030000   541120003103777031200000031MOB BANK               YGN           MMR11003140911220001450314000000000000000   10300005 00104100000000000000000000004884     
100   35710500365643160000000000010550000000010550002000000010410403140800560002352342550314207314000235   1030000100030000   541120003117777031200000031MOB BANK               YGN           MMR11003140800560002350314000000000000000   10300005 00104100000000000000000000002110     
100   35710500383772040000000000064500000000064500002000000010410403140838570002419716220314207315000241   1030000100030000   541120003117777031200000031MOB BANK               YGN           MMR11003140838570002410314000000000000000   10300005 00104100000000000000000000012900     
100   9503051021171448000000000012480000000012480000200000001041040314050922001219TFGTAJ0314207311001219   1030000100030000   541160000001777031200000006MOB BANK               YGN           MMR11003140509220012190314000000000000000   10300002 00104100000000000000000000024960     
100   35710500393382960000000000061650000000061650002000000010410403140504100004972499070314207311000497   1030000100030000   541110001905777031200000019MOB BANK               YGN           MMR11003140504100004970314000000000000000   10300005 00104100000000000000000000012330     
100   35710500104631540000000000006600000000006600002000000010410403130813590011064360290313207214001106   1030000100030000   581250000001777031200000005MOB BANK               YGN           MMR11003130813590011060313000000000000000   10300005 00104100000000000000000000002244     
