100   9503051025571387000000000000920000000000920000200000001041040312111117000142PHQXRM0312207117000142   1030000100030000   541110001920777031200000019MOB BANK               YGN           MMR11003121111170001420312000000000000000   10300002 00104100000000000000000000001840     
100   9503051025403581000000000002545000000002545000200000001041040312081644000182EKDUQS0312207114000182   1030000100030000   541120003117777031200000031MOB BANK               YGN           MMR11003120816440001820312000000000000000   10300002 00104100000000000000000000005090     
100   62346600130300810000000000003648000000003648002000000010410403121047250002091396600312207117000209   1030000100030000   541110001915777031200000019MOB BANK               YGN           MMR11003121047250002090312000000000000000   10300005 00104100000000000000000000000730     
100   35710500175532960000000000061500000000061500002000000010410403120926570000759888870312207115000075   1030000100030000   541110001903777031200000019MOB BANK               YGN           MMR11003120926570000750312000000000000000   10300005 00104100000000000000000000012300     
100   95031900055790750000000000063800000000063800002000000010410403121000130000769BF62V0312207116000076   1030000100030000   541110001903777031200000019MOB BANK               YGN           MMR11003121000130000760312000000000000000   10300014 00104100000000000000000000012760     
100   9503051025314853000000000004480000000004480000200000001041040312100523000077SWXVUW0312207116000077   1030000100030000   541110001903777031200000019MOB BANK               YGN           MMR11003121005230000770312000000000000000   10300002 00104100000000000000000000008960     
100   35710500304781410000000000007100000000007100002000000010410403120804340001957723450312207114000195   1030000100030000   541110001915777031200000019MOB BANK               YGN           MMR11003120804340001950312000000000000000   10300005 00104100000000000000000000001420     
100   35710500302940350000000000014000000000014000002000000010410403120820350001979403510312207114000197   1030000100030000   541110001915777031200000019MOB BANK               YGN           MMR11003120820350001970312000000000000000   10300005 00104100000000000000000000002800     
100   95030510198640040000000000007400000000007400002000000010410403120939330002035N5RJ40312207116000203   1030000100030000   541110001915777031200000019MOB BANK               YGN           MMR11003120939330002030312000000000000000   10300002 00104100000000000000000000001480     
100   9503051019605878000000000001170000000001170000200000001041040312094105000204K1IMCQ0312207116000204   1030000100030000   541110001915777031200000019MOB BANK               YGN           MMR11003120941050002040312000000000000000   10300002 00104100000000000000000000002340     
100   35710500324251990000000000011172000000011172002000000010410403120348070004269181290312207110000426   1030000100030000   541110001905777031200000019MOB BANK               YGN           MMR11003120348070004260312000000000000000   10300005 00104100000000000000000000002234     
100   35710500142950730000000000050000000000050000002000000010410403120946210002997802830312207116000299   1030000100030000   541120000002777031200000002MOB BANK               YGN           MMR11003120946210002990312000000000000000   10300005 00104100000000000000000000010000     
100   35711410000014740000000000088000000000088000002000000010410403120808340003018925170312207114000301   1030000100030000   541110001907777031200000019MOB BANK               YGN           MMR11003120808340003010312000000000000000   10200001 00104100000000000000000000017600     
100   35710830665555320000000000107880000000107880002000000010410403120817080003037302920312207114000303   1030000100030000   541110001907777031200000019MOB BANK               YGN           MMR11003120817080003030312000000000000000   10300003 00104100000000000000000000021576     
100   9503051025314853000000000000420000000000420000200000001041040312101921000306F9XNTC0312207116000306   1030000100030000   541110001907777031200000019MOB BANK               YGN           MMR11003121019210003060312000000000000000   10300002 00104100000000000000000000000840     
100   9503051888651557000000000000098000000000098000200000001041040312115042000309E2V4EU0312207118000309   1030000100030000   541110001907777031200000019MOB BANK               YGN           MMR11003121150420003090312000000000000000   10300002 00104100000000000000000000000196     
100   35710500373518790000000000011550000000011550002000000010410403121304080003837715000312207119000383   1030000100030000   581210001501777031200000015MOB BANK               YGN           MMR11003121304080003830312000000000000000   10300005 00104100000000000000000000003927     
100   62441900002397090000000000013500000000013500002000000010410403120611430004306830420312207112000430   1030000100030000   541110001905777031200000019MOB BANK               YGN           MMR11003120611430004300312000000000000000   10300003 00104100000000000000000000004725     
100   35650883292773920000000000055400000000055400002000000010410403120725440004343525780312207113000434   1030000100030000   541110001905777031200000019MOB BANK               YGN           MMR11003120725440004340312000000000000000   10300005 00104100000000000000000000019390     
100   35710500320136310000000000019000000000019000002000000010410403120810390004371319360312207114000437   1030000100030000   541110001905777031200000019MOB BANK               YGN           MMR11003120810390004370312000000000000000   10300005 00104100000000000000000000003800     
100   35710500301028650000000000220000000000220000002000000010410403120624130002997479590312207112000299   1030000100030000   541110001907777031200000019MOB BANK               YGN           MMR11003120624130002990312000000000000000   10300005 00104100000000000000000000044000     
100   62622000716759830000000000020208000000020208002000000010410403120906510001990913300312207115000199   1030000100030000   541110001915777031200000019MOB BANK               YGN           MMR11003120906510001990312000000000000000   10300006 00104100000000000000000000004042     
100   35710830748482420000000000032242000000032242002000000010410403120413360002905841800312207110000290   1030000100030000   541110001907777031200000019MOB BANK               YGN           MMR11003120413360002900312000000000000000   10300003 00104100000000000000000000006448     
100   35710830417615020000000000030800000000030800002000000010410403121002320004447935310312207116000444   1030000100030000   541110001905777031200000019MOB BANK               YGN           MMR11003121002320004440312000000000000000   10300003 00104100000000000000000000006160     
100   9503051873777797000000000001375000000001375000200000001041040312111645001101RQZBPZ0312207117001101   1030000100030000   581250000001777031200000005MOB BANK               YGN           MMR11003121116450011010312000000000000000   10300002 00104100000000000000000000004675     
100   9503051025261856000000000014610000000014610000200000001041040312051228001199H46YTJ0312207111001199   1030000100030000   541160000001777031200000006MOB BANK               YGN           MMR11003120512280011990312000000000000000   10300002 00104100000000000000000000029220     
100   9503051025226404000000000019740000000019740000200000001041040312081102001201GZGYM50312207114001201   1030000100030000   541160000001777031200000006MOB BANK               YGN           MMR11003120811020012010312000000000000000   10300002 00104100000000000000000000039480     
100   9503051025193976000000000007830000000007830000200000001041040312094429001203MUQ3PZ0312207116001203   1030000100030000   541160000001777031200000006MOB BANK               YGN           MMR11003120944290012030312000000000000000   10300002 00104100000000000000000000015660     
100   35710830559317850000000000011000000000011000002000000010410403120622320010986615610312207112001098   1030000100030000   581250000001777031200000005MOB BANK               YGN           MMR11003120622320010980312000000000000000   10300003 00104100000000000000000000003740     
100   9503051025915543000000000000583000000000583000200000001041040312074013001099HCTJBU0312207114001099   1030000100030000   581250000001777031200000005MOB BANK               YGN           MMR11003120740130010990312000000000000000   10300002 00104100000000000000000000001982     
100   950319000150145300000000001314000000001314000020000000104104031211122800120881M62V0312207117001208   1030000100030000   541160000001777031200000006MOB BANK               YGN           MMR11003121112280012080312000000000000000   10300014 00104100000000000000000000026280     
100   35710830117511370000000000038060000000038060002000000010410403121008580011007973920312207116001100   1030000100030000   581250000001777031200000005MOB BANK               YGN           MMR11003121008580011000312000000000000000   10300003 00104100000000000000000000012940     
100   95030790000596070000000000054900000000054900002000000010410403120705020000739917100312207113000073   1030000100030000   541110001903777031200000019MOB BANK               YGN           MMR11003120705020000730312000000000000000   10200004 00104100000000000000000000010980     
100   35711410000014740000000000045500000000045500002000000010410403110839020002801879440311207015000280   1030000100030000   541110001907777031200000019MOB BANK               YGN           MMR11003110839020002800311000000000000000   10200001 00104100000000000000000000009100     
100   35710500374071760000000000000750000000000750002000000010410403110455530002708780850311207011000270   1030000100030000   541110001907777031200000019MOB BANK               YGN           MMR11003110455530002700311000000000000000   10300005 00104100000000000000000000000150     
100   35710830029469100000000000220000000000220000002000000010410403111227180002840164010311207018000284   1030000100030000   541110001907777031200000019MOB BANK               YGN           MMR11003111227180002840311000000000000000   10300003 00104100000000000000000000044000     
100   95030800035561020000000000009506000000009506002000000010410403110540310002747723310311207012000274   1030000100030000   541110001907777031200000019MOB BANK               YGN           MMR11003110540310002740311000000000000000   10300003 00104100000000000000000000001901     
100   9503051020609919000000000002770000000002770000200000001041040311110306000075OU3GQ20311207017000075   1030000100030000   541120003114777031200000031MOB BANK               YGN           MMR11003111103060000750311000000000000000   10300002 00104100000000000000000000005540     
100   35710830054562970000000000020000000000020000002000000010410403110542420002767736310311207012000276   1030000100030000   541110001907777031200000019MOB BANK               YGN           MMR11003110542420002760311000000000000000   10300003 00104100000000000000000000004000     
100   9503051025619764000000000005025000000005025000200000001041040311042854000268CIAVZ40311207010000268   1030000100030000   541110001907777031200000019MOB BANK               YGN           MMR11003110428540002680311000000000000000   10300002 00104100000000000000000000010050     
100   9503051889095119000000000000070000000000070000200000001041040311063803000074VOVLEB0311207013000074   1030000100030000   541120003114777031200000031MOB BANK               YGN           MMR11003110638030000740311000000000000000   10300002 00104100000000000000000000000140     
100   9503051890584044000000000003310000000003310000200000001041040312083903000032B8LBTV0312207115000032   1030000100030000   541120003112777031200000031MOB BANK               YGN           MMR11003120839030000320312000000000000000   10300002 00104100000000000000000000006620     
100   950319000004245900000000000198000000000198000020000000104104031209134200003393E62V0312207115000033   1030000100030000   541120003112777031200000031MOB BANK               YGN           MMR11003120913420000330312000000000000000   10300014 00104100000000000000000000003960     
100   35710830336384450000000000031200000000031200002000000010410403120700540001356845600312207113000135   1030000100030000   541110001920777031200000019MOB BANK               YGN           MMR11003120700540001350312000000000000000   10300003 00104100000000000000000000006240     
100   9503051023888783000000000001560000000001560000200000001041040312073030000136AL5CUT0312207114000136   1030000100030000   541110001920777031200000019MOB BANK               YGN           MMR11003120730300001360312000000000000000   10300002 00104100000000000000000000003120     
100   62921400034720220000000000058300000000058300002000000010410403120543530001712222220312207112000171   1030000100030000   541120003117777031200000031MOB BANK               YGN           MMR11003120543530001710312000000000000000   10300009 00104100000000000000000000011660     
100   9503051020411621000000000002880000000002880000200000001041040312051725000071IGVRTM0312207111000071   1030000100030000   541110001903777031200000019MOB BANK               YGN           MMR11003120517250000710312000000000000000   10300002 00104100000000000000000000005760     
100   95030518870629470000000000004032000000004032002000000010410403121140060002129SC7TK0312207118000212   1030000100030000   541110001915777031200000019MOB BANK               YGN           MMR11003121140060002120312000000000000000   10300002 00104100000000000000000000000806     
100   9503051890525278000000000002080000000002080000200000001041040312064129000072ZFC0VU0312207113000072   1030000100030000   541110001903777031200000019MOB BANK               YGN           MMR11003120641290000720312000000000000000   10300002 00104100000000000000000000004160     
100   9503051895818355000000000002255000000002255000200000001041040312110033000086X9O2PP0312207117000086   1030000100030000   541120003101777031200000031MOB BANK               YGN           MMR11003121100330000860312000000000000000   10300002 00104100000000000000000000004510     
100   35710500375450170000000000018500000000018500002000000010410403121104290000884097830312207117000088   1030000100030000   541120003101777031200000031MOB BANK               YGN           MMR11003121104290000880312000000000000000   10300005 00104100000000000000000000003700     
100   35710830562257650000000000003700000000003700002000000010410403120413320001095841410312207110000109   1030000100030000   541120003103777031200000031MOB BANK               YGN           MMR11003120413320001090312000000000000000   10300003 00104100000000000000000000000740     
100   35710830313587560000000000017500000000017500002000000010410403120550280001906422930312207112000190   1030000100030000   541110001915777031200000019MOB BANK               YGN           MMR11003120550280001900312000000000000000   10300003 00104100000000000000000000003500     
100   95030518898081150000000000016100000000016100002000000010410403120407350000893N7GGZ0312207110000089   1030000100030000   541120003102777031200000031MOB BANK               YGN           MMR11003120407350000890312000000000000000   10300002 00104100000000000000000000003220     
100   62441900003513630000000000032800000000032800002000000010410403121148550000786929160312207118000078   1030000100030000   541110001903777031200000019MOB BANK               YGN           MMR11003121148550000780312000000000000000   10300003 00104100000000000000000000011480     
100   35710830776911930000000000014450000000014450002000000010410403120625260001916632800312207112000191   1030000100030000   541110001915777031200000019MOB BANK               YGN           MMR11003120625260001910312000000000000000   10300003 00104100000000000000000000002890     
100   35710500152117720000000000014200000000014200002000000010410403120401190002886444410312207110000288   1030000100030000   541110001907777031200000019MOB BANK               YGN           MMR11003120401190002880312000000000000000   10300005 00104100000000000000000000002840     
100   62346600180054500000000000032500000000032500002000000010410403120947500000796051460312207116000079   1030000100030000   541120003114777031200000031MOB BANK               YGN           MMR11003120947500000790312000000000000000   10300005 00104100000000000000000000006500     
100   62921400034720220000000000063050000000063050002000000010410403120418220000792222220312207110000079   1030000100030000   541120003101777031200000031MOB BANK               YGN           MMR11003120418220000790312000000000000000   10300009 00104100000000000000000000012610     
100   9503051884035672000000000001670000000001670000200000001041040312084819000116ZXMMJ90312207115000116   1030000100030000   541120003103777031200000031MOB BANK               YGN           MMR11003120848190001160312000000000000000   10300002 00104100000000000000000000003340     
100   35710830841681100000000000011880000000011880002000000010410403121202150001438653710312207118000143   1030000100030000   541110001920777031200000019MOB BANK               YGN           MMR11003121202150001430312000000000000000   10300003 00104100000000000000000000002376     
100   62443000110028280000000000034000000000034000002000000010410403120504480002927304310312207111000292   1030000100030000   541110001907777031200000019MOB BANK               YGN           MMR11003120504480002920312000000000000000   10300005 00104100000000000000000000011900     
100   95031900045509860000000000001600000000001600002000000010410403120516440002932K662V0312207111000293   1030000100030000   541110001907777031200000019MOB BANK               YGN           MMR11003120516440002930312000000000000000   10300014 00104100000000000000000000000320     
100   35710830904602610000000000004300000000004300002000000010410403120516360000496219720312207111000049   1030000100030000   541120003115777031200000031MOB BANK               YGN           MMR11003120516360000490312000000000000000   10300003 00104100000000000000000000000860     
100   9503051020511628000000000000430000000000430000200000001041040312093114000081AC9YZH0312207116000081   1030000100030000   541120003101777031200000031MOB BANK               YGN           MMR11003120931140000810312000000000000000   10300002 00104100000000000000000000000860     
100   35710500314832150000000000029300000000029300002000000010410403120434090001319782680312207111000131   1030000100030000   541110001920777031200000019MOB BANK               YGN           MMR11003120434090001310312000000000000000   10300005 00104100000000000000000000005860     
100   9503051025929635000000000001257600000001257600200000001041040312102716000205LOIIHF0312207116000205   1030000100030000   541110001915777031200000019MOB BANK               YGN           MMR11003121027160002050312000000000000000   10300002 00104100000000000000000000002515     
100   9503051873068502000000000003600000000003600000200000001041040312094435000083OUVGBG0312207116000083   1030000100030000   541120003101777031200000031MOB BANK               YGN           MMR11003120944350000830312000000000000000   10300002 00104100000000000000000000007200     
100   35710500360360670000000000009550000000009550002000000010410403120920220002017945440312207115000201   1030000100030000   541110001915777031200000019MOB BANK               YGN           MMR11003120920220002010312000000000000000   10300005 00104100000000000000000000001910     
100   95031900042141200000000000019500000000019500002000000010410403120757120000519YA62V0312207114000051   1030000100030000   541120003115777031200000031MOB BANK               YGN           MMR11003120757120000510312000000000000000   10300014 00104100000000000000000000003900     
100   35710830048282720000000000029295000000029295002000000010410403120833200000917400200312207115000091   1030000100030000   541120003102777031200000031MOB BANK               YGN           MMR11003120833200000910312000000000000000   10300003 00104100000000000000000000005859     
100   9503051025479862000000000000650000000000650000200000001041040312054344000295QSVUE60312207112000295   1030000100030000   541110001907777031200000019MOB BANK               YGN           MMR11003120543440002950312000000000000000   10300002 00104100000000000000000000001300     
100   95031900042141200000000000007700000000007700002000000010410403120758220000527ZA62V0312207114000052   1030000100030000   541120003115777031200000031MOB BANK               YGN           MMR11003120758220000520312000000000000000   10300014 00104100000000000000000000001540     
100   95030201789703730000000000027087000000027087002000000010410403120842470000927567760312207115000092   1030000100030000   541120003102777031200000031MOB BANK               YGN           MMR11003120842470000920312000000000000000   10200002 00104100000000000000000000005418     
100   35710500355363070000000000012624000000012624002000000010410403120845020000936211220312207115000093   1030000100030000   541120003102777031200000031MOB BANK               YGN           MMR11003120845020000930312000000000000000   10300005 00104100000000000000000000002525     
100   35710830596806280000000000032880000000032880002000000010410403120848140000947489520312207115000094   1030000100030000   541120003102777031200000031MOB BANK               YGN           MMR11003120848140000940312000000000000000   10300003 00104100000000000000000000006576     
100   95031100000955470000000000026400000000026400002000000010410403120547390001762203270312207112000176   1030000100030000   541120003117777031200000031MOB BANK               YGN           MMR11003120547390001760312000000000000000   10300006 00104100000000000000000000005280     
100   950305102602708200000000000456000000000456000020000000104104031210312200020742SDMD0312207117000207   1030000100030000   541110001915777031200000019MOB BANK               YGN           MMR11003121031220002070312000000000000000   10300002 00104100000000000000000000009120     
100   9503051025346962000000000005400000000005400000200000001041040312030506000297N2MGKQ0312207109000297   1030000100030000   541120000002777031200000002MOB BANK               YGN           MMR11003120305060002970312000000000000000   10300002 00104100000000000000000000010800     
100   35710500363248930000000000001900000000001900002000000010410403120614170002977114610312207112000297   1030000100030000   541110001907777031200000019MOB BANK               YGN           MMR11003120614170002970312000000000000000   10300005 00104100000000000000000000000380     
100   9503051888589047000000000002850000000002850000200000001041040312082223000074GRZEMS0312207114000074   1030000100030000   541110001903777031200000019MOB BANK               YGN           MMR11003120822230000740312000000000000000   10300002 00104100000000000000000000005700     
