100   35710950618875950000000000018150000000018150002000000010410403111007000010969322210311207016001096   1030000100030000   581250000001777031200000005MOB BANK               YGN           MMR11003111007000010960311000000000000000   10300003 00104100000000000000000000006171     
100   950319000047060100000000000072000000000072000020000000104104031105482900011732652V0311207012000117   1030000100030000   541110001920777031200000019MOB BANK               YGN           MMR11003110548290001170311000000000000000   10300014 00104100000000000000000000001440     
100   9503051892257755000000000000340000000000340000200000001041040311084929000178NTDWXJ0311207015000178   1030000100030000   541110001915777031200000019MOB BANK               YGN           MMR11003110849290001780311000000000000000   10300002 00104100000000000000000000000680     
100   9503051023769595000000000000890000000000890000200000001041040311082419000158M1XEAQ0311207014000158   1030000100030000   541120003117777031200000031MOB BANK               YGN           MMR11003110824190001580311000000000000000   10300002 00104100000000000000000000001780     
100   9503051025885225000000000007296000000007296000200000001041040311083929001195IFECX80311207015001195   1030000100030000   541160000001777031200000006MOB BANK               YGN           MMR11003110839290011950311000000000000000   10300002 00104100000000000000000000014592     
100   95030510258399330000000000018630000000018630002000000010410403110715000001204UQBMN0311207013000120   1030000100030000   541110001920777031200000019MOB BANK               YGN           MMR11003110715000001200311000000000000000   10300002 00104100000000000000000000003726     
100   9503051021459850000000000002460000000002460000200000001041040311025242000159TXE2AX0311207009000159   1030000100030000   541110001915777031200000019MOB BANK               YGN           MMR11003110252420001590311000000000000000   10300002 00104100000000000000000000004920     
100   9503051021459850000000000002650000000002650000200000001041040311025811000160INYYNS0311207009000160   1030000100030000   541110001915777031200000019MOB BANK               YGN           MMR11003110258110001600311000000000000000   10300002 00104100000000000000000000005300     
100   35710500363942840000000000005000000000005000002000000010410403111159250001272063220311207018000127   1030000100030000   541110001920777031200000019MOB BANK               YGN           MMR11003111159250001270311000000000000000   10300005 00104100000000000000000000001000     
100   35710500355355150000000000009900000000009900002000000010410403110625220001684851810311207012000168   1030000100030000   541110001915777031200000019MOB BANK               YGN           MMR11003110625220001680311000000000000000   10300005 00104100000000000000000000001980     
100   35711410000014740000000000032700000000032700002000000010410403110733100001708239920311207014000170   1030000100030000   541110001915777031200000019MOB BANK               YGN           MMR11003110733100001700311000000000000000   10200001 00104100000000000000000000006540     
100   35710500303354240000000000019796000000019796002000000010410403110954160004057037040311207016000405   1030000100030000   541110001905777031200000019MOB BANK               YGN           MMR11003110954160004050311000000000000000   10300005 00104100000000000000000000003959     
100   35710500394176370000000000029500000000029500002000000010410403110657470003906488140311207013000390   1030000100030000   541110001905777031200000019MOB BANK               YGN           MMR11003110657470003900311000000000000000   10300005 00104100000000000000000000005900     
100   95030510249278380000000000087210000000087210002000000010410403111048320011967PPXUJ0311207017001196   1030000100030000   541160000001777031200000006MOB BANK               YGN           MMR11003111048320011960311000000000000000   10300002 00104100000000000000000000017442     
100   35710830506384270000000000029800000000029800002000000010410403110529590000627660110311207011000062   1030000100030000   541120003111777031200000031MOB BANK               YGN           MMR11003110529590000620311000000000000000   10300003 00104100000000000000000000005960     
100   9503051025708435000000000002290000000002290000200000001041040311102852000063DX7JCH0311207016000063   1030000100030000   541120003111777031200000031MOB BANK               YGN           MMR11003111028520000630311000000000000000   10300002 00104100000000000000000000004580     
100   9503051872908245000000000000470000000000470000200000001041040311085051000180NW130S0311207015000180   1030000100030000   541110001915777031200000019MOB BANK               YGN           MMR11003110850510001800311000000000000000   10300002 00104100000000000000000000000940     
100   35710830078888020000000000065028000000065028002000000010410403111111080001869706920311207017000186   1030000100030000   541110001915777031200000019MOB BANK               YGN           MMR11003111111080001860311000000000000000   10300003 00104100000000000000000000013006     
100   9503051023942382000000000000980000000000980000200000001041040311113914000064W5PMHX0311207018000064   1030000100030000   541120003111777031200000031MOB BANK               YGN           MMR11003111139140000640311000000000000000   10300002 00104100000000000000000000001960     
100   62346600101563010000000000010980000000010980002000000010410403110843120001223072860311207015000122   1030000100030000   541110001920777031200000019MOB BANK               YGN           MMR11003110843120001220311000000000000000   10300005 00104100000000000000000000002196     
100   9503051896398605000000000005380000000005380000200000001041040311114223000065TGDPFA0311207018000065   1030000100030000   541120003111777031200000031MOB BANK               YGN           MMR11003111142230000650311000000000000000   10300002 00104100000000000000000000010760     
100   35710830086327200000000000030800000000030800002000000010410403110614180000677926000311207012000067   1030000100030000   541110001903777031200000019MOB BANK               YGN           MMR11003110614180000670311000000000000000   10300003 00104100000000000000000000006160     
100   9503051883208189000000000000925000000000925000200000001041040311084750000124TGZMWZ0311207015000124   1030000100030000   541110001920777031200000019MOB BANK               YGN           MMR11003110847500001240311000000000000000   10300002 00104100000000000000000000001850     
100   35710830482676850000000000028800000000028800002000000010410403110846070000688836820311207015000068   1030000100030000   541110001903777031200000019MOB BANK               YGN           MMR11003110846070000680311000000000000000   10300003 00104100000000000000000000005760     
100   35710830162127130000000000009996000000009996002000000010410403110839560003988799900311207015000398   1030000100030000   541110001905777031200000019MOB BANK               YGN           MMR11003110839560003980311000000000000000   10300003 00104100000000000000000000001999     
100   95031900020506660000000000013350000000013350002000000010410403110425520003839H152V0311207010000383   1030000100030000   541110001905777031200000019MOB BANK               YGN           MMR11003110425520003830311000000000000000   10300014 00104100000000000000000000002670     
100   62343302002123440000000000013970000000013970002000000010410403110601580010946846510311207012001094   1030000100030000   581250000001777031200000005MOB BANK               YGN           MMR11003110601580010940311000000000000000   10300004 00104100000000000000000000004750     
100   9503051023453570000000000002950000000002950000200000001041040311112002000416TWLWMK0311207017000416   1030000100030000   541110001905777031200000019MOB BANK               YGN           MMR11003111120020004160311000000000000000   10300002 00104100000000000000000000005900     
100   9503051894222666000000000001397000000001397000200000001041040311100224001095FOJZZN0311207016001095   1030000100030000   581250000001777031200000005MOB BANK               YGN           MMR11003111002240010950311000000000000000   10300002 00104100000000000000000000004750     
100   35710500384400690000000000028600000000028600002000000010410403110549220001524216580311207012000152   1030000100030000   541120003117777031200000031MOB BANK               YGN           MMR11003110549220001520311000000000000000   10300005 00104100000000000000000000005720     
100   35710500191326930000000000053165000000053165002000000010410403110939450004017879930311207016000401   1030000100030000   541110001905777031200000019MOB BANK               YGN           MMR11003110939450004010311000000000000000   10300005 00104100000000000000000000010633     
100   35710500354955200000000000118560000000118560002000000010410403110715140011938593690311207013001193   1030000100030000   541160000001777031200000006MOB BANK               YGN           MMR11003110715140011930311000000000000000   10300005 00104100000000000000000000023712     
100   62346600191849240000000000066100000000066100002000000010410403110740000001727690230311207014000172   1030000100030000   541110001915777031200000019MOB BANK               YGN           MMR11003110740000001720311000000000000000   10300005 00104100000000000000000000013220     
100   9503051025324308000000000006065000000006065000200000001041040311081811000174F4UOKX0311207014000174   1030000100030000   541110001915777031200000019MOB BANK               YGN           MMR11003110818110001740311000000000000000   10300002 00104100000000000000000000012130     
100   9503051022066555000000000000998400000000998400200000001041040311083511000176HS6N4A0311207015000176   1030000100030000   541110001915777031200000019MOB BANK               YGN           MMR11003110835110001760311000000000000000   10300002 00104100000000000000000000001997     
100   35710500393837630000000000029800000000029800002000000010410403111204040000694511500311207018000069   1030000100030000   541110001903777031200000019MOB BANK               YGN           MMR11003111204040000690311000000000000000   10300005 00104100000000000000000000005960     
100   95031900020506660000000000023500000000023500002000000010410403110406550001624E052V0311207010000162   1030000100030000   541110001915777031200000019MOB BANK               YGN           MMR11003110406550001620311000000000000000   10300014 00104100000000000000000000004700     
100   9503051025997442000000000001870000000001870000200000001041040311124525000374YT4IR90311207019000374   1030000100030000   581210001501777031200000015MOB BANK               YGN           MMR11003111245250003740311000000000000000   10300002 00104100000000000000000000006358     
100   9503054000816371000000000002100000000002100000200000001041040311035430000376MPQNLR0311207010000376   1030000100030000   541110001905777031200000019MOB BANK               YGN           MMR11003110354300003760311000000000000000   10300002 00104100000000000000000000004200     
100   95030510254928240000000000018800000000018800002000000010410403110327460000650DYYO50311207009000065   1030000100030000   541110001903777031200000019MOB BANK               YGN           MMR11003110327460000650311000000000000000   10300002 00104100000000000000000000003760     
100   35710500144353640000000000028800000000028800002000000010410403110501050000667674600311207011000066   1030000100030000   541110001903777031200000019MOB BANK               YGN           MMR11003110501050000660311000000000000000   10300005 00104100000000000000000000005760     
100   9503051025482403000000000001460000000001460000200000001041040311112522000162XOTJSA0311207017000162   1030000100030000   541120003117777031200000031MOB BANK               YGN           MMR11003111125220001620311000000000000000   10300002 00104100000000000000000000002920     
100   9503051025619764000000000001655000000001655000200000001041040311042014000164CWYWRO0311207010000164   1030000100030000   541110001915777031200000019MOB BANK               YGN           MMR11003110420140001640311000000000000000   10300002 00104100000000000000000000003310     
100   35710500135497850000000000008750000000008750002000000010410403110453470001666398150311207011000166   1030000100030000   541110001915777031200000019MOB BANK               YGN           MMR11003110453470001660311000000000000000   10300005 00104100000000000000000000001750     
100   950305188612241100000000000311000000000311000020000000104104031112040400042169OGZV0311207018000421   1030000100030000   541110001905777031200000019MOB BANK               YGN           MMR11003111204040004210311000000000000000   10300002 00104100000000000000000000006220     
