100   62343302008646720000000000082100000000082100002000000010410403140754000000767022330314207314000076   1030000100030000   541120003111777031200000031MOB BANK               YGN           MMR11003140754000000760314000000000000000   10300004 00104100000000000000000000016420     
100   95030518915804210000000000021900000000021900002000000010410403120903030000687LVWRG0312207115000068   1030000100030000   541120003111777031200000031MOB BANK               YGN           MMR11003120903030000680312000000000000000   10300002 00104100000000000000000000004380     
100   35710830348484150000000000008640000000008640002000000010410403121029450000698098700312207116000069   1030000100030000   541120003111777031200000031MOB BANK               YGN           MMR11003121029450000690312000000000000000   10300003 00104100000000000000000000001728     
100   950305187879131400000000000205000000000205000020000000104104031210324400007058JAO50312207117000070   1030000100030000   541120003111777031200000031MOB BANK               YGN           MMR11003121032440000700312000000000000000   10300002 00104100000000000000000000004100     
100   9503051025801388000000000022880000000022880000200000001041040314131153000372ZZYTWX0314207319000372   1030000100030000   581210001201777031200000012MOB BANK               YGN           MMR11003141311530003720314000000000000000   10300002 00104100000000000000000000077792     
100   95030510196265100000000000012800000000012800002000000010410403140630050000727WQUQI0314207313000072   1030000100030000   541120003111777031200000031MOB BANK               YGN           MMR11003140630050000720314000000000000000   10300002 00104100000000000000000000002560     
100   62441900001659120000000000029000000000029000002000000010410403140739580000601789530314207314000060   1030000100030000   541120003106777031200000031MOB BANK               YGN           MMR11003140739580000600314000000000000000   10300003 00104100000000000000000000010150     
100   35710500360538150000000000015900000000015900002000000010410403140635210000734764260314207313000073   1030000100030000   541120003111777031200000031MOB BANK               YGN           MMR11003140635210000730314000000000000000   10300005 00104100000000000000000000003180     
100   35710500353717050000000000068000000000068000002000000010410403141013450000782457810314207316000078   1030000100030000   541120003111777031200000031MOB BANK               YGN           MMR11003141013450000780314000000000000000   10300005 00104100000000000000000000013600     
100   35710830876872800000000000011000000000011000002000000010410403140658550000584113700314207313000058   1030000100030000   541120003106777031200000031MOB BANK               YGN           MMR11003140658550000580314000000000000000   10300003 00104100000000000000000000002200     
100   62343302008646720000000000044300000000044300002000000010410403140814470000779016720314207314000077   1030000100030000   541120003111777031200000031MOB BANK               YGN           MMR11003140814470000770314000000000000000   10300004 00104100000000000000000000008860     
100   9503051025215209000000000007150000000007150000200000001041040314112853000371STJNEY0314207317000371   1030000100030000   581210001201777031200000012MOB BANK               YGN           MMR11003141128530003710314000000000000000   10300002 00104100000000000000000000024310     
100   35710830213636260000000000066000000000066000002000000010410403141352040003736592600314207320000373   1030000100030000   581210001201777031200000012MOB BANK               YGN           MMR11003141352040003730314000000000000000   10300003 00104100000000000000000000022440     
100   35710500132160050000000000023600000000023600002000000010410403150953040001072260350315207416000107   1030000100030000   541120003102777031200000031MOB BANK               YGN           MMR11003150953040001070315000000000000000   10300005 00104100000000000000000000004720     
100   62622000029937780000000000062208000000062208002000000010410403151156230002592271740315207418000259   1030000100030000   541120003117777031200000031MOB BANK               YGN           MMR11003151156230002590315000000000000000   10300006 00104100000000000000000000012442     
100   62622000029937780000000000005194000000005194002000000010410403151200430002622191500315207418000262   1030000100030000   541120003117777031200000031MOB BANK               YGN           MMR11003151200430002620315000000000000000   10300006 00104100000000000000000000001039     
100   9503051025308129000000000003485000000003485000200000001041040315090505000072X9I0VO0315207415000072   1030000100030000   541120003001777031200000030MOB BANK               YGN           MMR11003150905050000720315000000000000000   10300002 00104100000000000000000000006970     
100   35710830360171340000000000013750000000013750002000000010410403150737350001002985700315207414000100   1030000100030000   541120003101777031200000031MOB BANK               YGN           MMR11003150737350001000315000000000000000   10300003 00104100000000000000000000002750     
100   35710830759640550000000000030000000000030000002000000010410403150618580001842514800315207412000184   1030000100030000   541110001920777031200000019MOB BANK               YGN           MMR11003150618580001840315000000000000000   10300003 00104100000000000000000000006000     
100   35710500390602470000000000045700000000045700002000000010410403151013490002649587700315207416000264   1030000100030000   541120000007777031200000002MOB BANK               YGN           MMR11003151013490002640315000000000000000   10300005 00104100000000000000000000009140     
100   35710830005974830000000000015400000000015400002000000010410403150733580005192964000315207414000519   1030000100030000   541110001905777031200000019MOB BANK               YGN           MMR11003150733580005190315000000000000000   10300003 00104100000000000000000000003080     
100   35710500332206230000000000012600000000012600002000000010410403151023380000730347850315207416000073   1030000100030000   541120003001777031200000030MOB BANK               YGN           MMR11003151023380000730315000000000000000   10300005 00104100000000000000000000002520     
100   9503051022431585000000000002400000000002400000200000001041040315080345000101HBI6QJ0315207414000101   1030000100030000   541120003102777031200000031MOB BANK               YGN           MMR11003150803450001010315000000000000000   10300002 00104100000000000000000000004800     
100   35710500321651670000000000024000000000024000002000000010410403150756450001021148380315207414000102   1030000100030000   541120003101777031200000031MOB BANK               YGN           MMR11003150756450001020315000000000000000   10300005 00104100000000000000000000004800     
100   35710830604488900000000000119880000000119880002000000010410403150403210003781700300315207410000378   1030000100030000   541110001907777031200000019MOB BANK               YGN           MMR11003150403210003780315000000000000000   10300003 00104100000000000000000000023976     
100   9503051892266269000000000001980000000001980000200000001041040315061052000082XRRFWB0315207412000082   1030000100030000   541120003105777031200000031MOB BANK               YGN           MMR11003150610520000820315000000000000000   10300002 00104100000000000000000000003960     
100   9503051883528586000000000001455000000001455000200000001041040315082903000103TNDQM20315207414000103   1030000100030000   541120003102777031200000031MOB BANK               YGN           MMR11003150829030001030315000000000000000   10300002 00104100000000000000000000002910     
100   9503051872733411000000000003540000000003540000200000001041040315105748000104VSXAMC0315207417000104   1030000100030000   541120003114777031200000031MOB BANK               YGN           MMR11003151057480001040315000000000000000   10300002 00104100000000000000000000007080     
100   9503051024930212000000000000550000000000550000200000001041040315094749000106XJ2ZQO0315207416000106   1030000100030000   541120003102777031200000031MOB BANK               YGN           MMR11003150947490001060315000000000000000   10300002 00104100000000000000000000001100     
100   35710500161285120000000000029480000000029480002000000010410403151155030011127141700315207418001112   1030000100030000   581250000001777031200000005MOB BANK               YGN           MMR11003151155030011120315000000000000000   10300005 00104100000000000000000000010023     
100   62346600190856000000000000017500000000017500002000000010410403150257160001816763580315207409000181   1030000100030000   541110001920777031200000019MOB BANK               YGN           MMR11003150257160001810315000000000000000   10300005 00104100000000000000000000003500     
100   62346600169144550000000000350000000000350000002000000010410403150815100004117715020315207414000411   1030000100030000   541120000011777031200000002MOB BANK               YGN           MMR11003150815100004110315000000000000000   10300005 00104100000000000000000000070000     
100   35710500155412440000000000018800000000018800002000000010410403151146140000860459810315207418000086   1030000100030000   541120003111777031200000031MOB BANK               YGN           MMR11003151146140000860315000000000000000   10300005 00104100000000000000000000003760     
100   35710830233281060000000000038500000000038500002000000010410403150747380000633046110315207414000063   1030000100030000   541120003106777031200000031MOB BANK               YGN           MMR11003150747380000630315000000000000000   10300003 00104100000000000000000000007700     
100   9503051873880005000000000001500000000001500000200000001041040315054822000383JRKYU20315207412000383   1030000100030000   541110001907777031200000019MOB BANK               YGN           MMR11003150548220003830315000000000000000   10300002 00104100000000000000000000003000     
100   35710830759640550000000000058150000000058150002000000010410403150649540003862699800315207413000386   1030000100030000   541110001907777031200000019MOB BANK               YGN           MMR11003150649540003860315000000000000000   10300003 00104100000000000000000000011630     
100   35710830475088570000000000042369000000042369002000000010410403150600430005052404410315207412000505   1030000100030000   541110001905777031200000019MOB BANK               YGN           MMR11003150600430005050315000000000000000   10300003 00104100000000000000000000008474     
100   35710500355363310000000000008832000000008832002000000010410403150422300000993463330315207410000099   1030000100030000   541120003114777031200000031MOB BANK               YGN           MMR11003150422300000990315000000000000000   10300005 00104100000000000000000000001766     
100   35710830233281060000000000022000000000022000002000000010410403150723130000822899410315207413000082   1030000100030000   541120003111777031200000031MOB BANK               YGN           MMR11003150723130000820315000000000000000   10300003 00104100000000000000000000004400     
100   35710830263682080000000000010450000000010450002000000010410403151151240011114508520315207418001111   1030000100030000   581250000001777031200000005MOB BANK               YGN           MMR11003151151240011110315000000000000000   10300003 00104100000000000000000000003553     
100   35710830376367910000000000022000000000022000002000000010410403151235150011134771700315207419001113   1030000100030000   581250000001777031200000005MOB BANK               YGN           MMR11003151235150011130315000000000000000   10300003 00104100000000000000000000007480     
100   35710500103940940000000000022600000000022600002000000010410403150441560001824973200315207411000182   1030000100030000   541110001920777031200000019MOB BANK               YGN           MMR11003150441560001820315000000000000000   10300005 00104100000000000000000000004520     
100   35710500103940940000000000014500000000014500002000000010410403150500350001834382270315207411000183   1030000100030000   541110001920777031200000019MOB BANK               YGN           MMR11003150500350001830315000000000000000   10300005 00104100000000000000000000002900     
100   9503051021493628000000000006690000000006690000200000001041040315040722001228GHA9ZB0315207410001228   1030000100030000   541160000001777031200000006MOB BANK               YGN           MMR11003150407220012280315000000000000000   10300002 00104100000000000000000000013380     
100   9503051026018404000000000009348000000009348000200000001041040315081602001232RJMAIM0315207414001232   1030000100030000   541160000001777031200000006MOB BANK               YGN           MMR11003150816020012320315000000000000000   10300002 00104100000000000000000000018696     
100   35710500371581830000000000059000000000059000002000000010410403150739520001584602110315207414000158   1030000100030000   541120003103777031200000031MOB BANK               YGN           MMR11003150739520001580315000000000000000   10300005 00104100000000000000000000011800     
100   95031900037311570000000000059000000000059000002000000010410403150746480001609ZK92V0315207414000160   1030000100030000   541120003103777031200000031MOB BANK               YGN           MMR11003150746480001600315000000000000000   10300014 00104100000000000000000000011800     
100   95051010130000690000000000003550000000003550002000000010410403151039240002560872220315207417000256   1030000100030000   541120003117777031200000031MOB BANK               YGN           MMR11003151039240002560315000000000000000   10300005 00104100000000000000000000001242     
100   95030510256797920000000000343800000000343800002000000010410403150345490012263JTSH70315207410001226   1030000100030000   541160000001777031200000006MOB BANK               YGN           MMR11003150345490012260315000000000000000   10300002 00104100000000000000000000068760     
