100   35710830028360610000000000109850000000109850002000000010410403160504590002670710300316207511000267   1030000100030000   541120003117777031200000031MOB BANK               YGN           MMR11003160504590002670316000000000000000   10300003 00104100000000000000000000021970     
100   35710500333982050000000000029200000000029200002000000010410403161137490002819284990316207518000281   1030000100030000   541120003117777031200000031MOB BANK               YGN           MMR11003161137490002810316000000000000000   10300005 00104100000000000000000000005840     
100   95030510251158130000000000004900000000004900002000000010410403160526130001120DHUJI0316207511000112   1030000100030000   541120003102777031200000031MOB BANK               YGN           MMR11003160526130001120316000000000000000   10300002 00104100000000000000000000000980     
100   95030510248163790000000000021350000000021350002000000010410403160649360002707ITEQP0316207513000270   1030000100030000   541120003117777031200000031MOB BANK               YGN           MMR11003160649360002700316000000000000000   10300002 00104100000000000000000000004270     
100   35710830697194990000000000124800000000124800002000000010410403160933040012352318610316207516001235   1030000100030000   541160000001777031200000006MOB BANK               YGN           MMR11003160933040012350316000000000000000   10300003 00104100000000000000000000024960     
100   35710830830037300000000000006550000000006550002000000010410403160527510000750847220316207511000075   1030000100030000   541120003001777031200000030MOB BANK               YGN           MMR11003160527510000750316000000000000000   10300003 00104100000000000000000000001310     
100   35710830443258260000000000008150000000008150002000000010410403160358020001090308410316207510000109   1030000100030000   541120003114777031200000031MOB BANK               YGN           MMR11003160358020001090316000000000000000   10300003 00104100000000000000000000001630     
100   35710830217860400000000000009300000000009300002000000010410403160935380001102333910316207516000110   1030000100030000   541120003101777031200000031MOB BANK               YGN           MMR11003160935380001100316000000000000000   10300003 00104100000000000000000000001860     
100   35710830617779900000000000020200000000020200002000000010410403160956330001112459410316207516000111   1030000100030000   541120003101777031200000031MOB BANK               YGN           MMR11003160956330001110316000000000000000   10300003 00104100000000000000000000004040     
100   35710830560793520000000000004100000000004100002000000010410403161140120000343081310316207518000034   1030000100030000   541120003104777031200000031MOB BANK               YGN           MMR11003161140120000340316000000000000000   10300003 00104100000000000000000000000820     
100   35710830830037300000000000020100000000020100002000000010410403160510570000350745900316207511000035   1030000100030000   541120003008777031200000030MOB BANK               YGN           MMR11003160510570000350316000000000000000   10300003 00104100000000000000000000004020     
100   9503051022041962000000000001200000000001200000200000001041040316112359000113FIC5RX0316207517000113   1030000100030000   541120003101777031200000031MOB BANK               YGN           MMR11003161123590001130316000000000000000   10300002 00104100000000000000000000002400     
100   9503051024978153000000000001565000000001565000200000001041040316071044000114UFDNCR0316207513000114   1030000100030000   541120003102777031200000031MOB BANK               YGN           MMR11003160710440001140316000000000000000   10300002 00104100000000000000000000003130     
100   9503051024863413000000000000758000000000758000200000001041040316113544000114RLTRUW0316207518000114   1030000100030000   541120003101777031200000031MOB BANK               YGN           MMR11003161135440001140316000000000000000   10300002 00104100000000000000000000001516     
100   9503051026016275000000000001750000000001750000200000001041040316070246000088QKFA7M0316207513000088   1030000100030000   541120003111777031200000031MOB BANK               YGN           MMR11003160702460000880316000000000000000   10300002 00104100000000000000000000003500     
100   9503051024816379000000000004860000000004860000200000001041040316072025000089CPQNHM0316207513000089   1030000100030000   541120003111777031200000031MOB BANK               YGN           MMR11003160720250000890316000000000000000   10300002 00104100000000000000000000009720     
100   9503051024978153000000000000110000000000110000200000001041040316070608000030LAHXZG0316207513000030   1030000100030000   541120003104777031200000031MOB BANK               YGN           MMR11003160706080000300316000000000000000   10300002 00104100000000000000000000000220     
100   35710830121717800000000000034700000000034700002000000010410403161128240000933010510316207517000093   1030000100030000   541120003111777031200000031MOB BANK               YGN           MMR11003161128240000930316000000000000000   10300003 00104100000000000000000000006940     
100   62346600171244680000000000021000000000021000002000000010410403160930080000908928460316207516000090   1030000100030000   541120003111777031200000031MOB BANK               YGN           MMR11003160930080000900316000000000000000   10300005 00104100000000000000000000004200     
100   35710500375402810000000000021662000000021662002000000010410403160919420002753007360316207515000275   1030000100030000   541120003117777031200000031MOB BANK               YGN           MMR11003160919420002750316000000000000000   10300005 00104100000000000000000000004332     
100   35710950877772420000000000044736000000044736002000000010410403160943310000912381310316207516000091   1030000100030000   541120003111777031200000031MOB BANK               YGN           MMR11003160943310000910316000000000000000   10300003 00104100000000000000000000008947     
100   35710500183884030000000000031880000000031880002000000010410403161013580000923188990316207516000092   1030000100030000   541120003111777031200000031MOB BANK               YGN           MMR11003161013580000920316000000000000000   10300005 00104100000000000000000000006376     
100   35710500365457520000000000007100000000007100002000000010410403161149220000943827510316207518000094   1030000100030000   541120003111777031200000031MOB BANK               YGN           MMR11003161149220000940316000000000000000   10300005 00104100000000000000000000001420     
