100   35710830708712060000000000012000000000012000002000000010410403200819450002116438610320207914000211   1030000100030000   541120003103777031200000031MOB BANK               YGN           MMR11003200819450002110320000000000000000   10300003 00104100000000000000000000002400     
100   35710500345508040000000000026410000000026410002000000010410403200857290001171674040320207915000117   1030000100030000   541120003111777031200000031MOB BANK               YGN           MMR11003200857290001170320000000000000000   10300005 00104100000000000000000000005282     
100   9503051020469538000000000003300000000003300000200000001041040320094859000118IMNUFR0320207916000118   1030000100030000   541120003111777031200000031MOB BANK               YGN           MMR11003200948590001180320000000000000000   10300002 00104100000000000000000000006600     
100   35710500143686070000000000018900000000018900002000000010410403201005360001196253100320207916000119   1030000100030000   541120003111777031200000031MOB BANK               YGN           MMR11003201005360001190320000000000000000   10300005 00104100000000000000000000003780     
100   9503190003214782000000000001800000000001800000200000001041040320080704000209R80Q690320207914000209   1030000100030000   541120003103777031200000031MOB BANK               YGN           MMR11003200807040002090320000000000000000   10300014 00104100000000000000000000003600     
100   9503051020419848000000000001080000000001080000200000001041040320092514000364QUMAGQ0320207915000364   1030000100030000   541120003117777031200000031MOB BANK               YGN           MMR11003200925140003640320000000000000000   10300002 00104100000000000000000000002160     
100   35710830282282360000000000020450000000020450002000000010410403200342240001264774610320207910000126   1030000100030000   541120003102777031200000031MOB BANK               YGN           MMR11003200342240001260320000000000000000   10300003 00104100000000000000000000004090     
100   9503051889857781000000000000395000000000395000200000001041040320024904000126KVEFDX0320207909000126   1030000100030000   541120003114777031200000031MOB BANK               YGN           MMR11003200249040001260320000000000000000   10300002 00104100000000000000000000000790     
100   95030510248184330000000000030300000000030300002000000010410403200640120001278ZXNWZ0320207913000127   1030000100030000   541120003114777031200000031MOB BANK               YGN           MMR11003200640120001270320000000000000000   10300002 00104100000000000000000000006060     
100   9503051024818433000000000001030000000001030000200000001041040320064232000128UXXON50320207913000128   1030000100030000   541120003114777031200000031MOB BANK               YGN           MMR11003200642320001280320000000000000000   10300002 00104100000000000000000000002060     
100   9503051886464862000000000000575200000000575200200000001041040320090639000086E7ANX80320207915000086   1030000100030000   541120003001777031200000030MOB BANK               YGN           MMR11003200906390000860320000000000000000   10300002 00104100000000000000000000001150     
100   62441900003623370000000000008428000000008428002000000010410403200803460001293872450320207914000129   1030000100030000   541120003114777031200000031MOB BANK               YGN           MMR11003200803460001290320000000000000000   10300003 00104100000000000000000000002950     
100   95030417602694790000000000022800000000022800002000000010410403200827220001306867310320207914000130   1030000100030000   541120003114777031200000031MOB BANK               YGN           MMR11003200827220001300320000000000000000   10300007 00104100000000000000000000004560     
100   9503051891601359000000000001090000000001090000200000001041040320110154000131MIPLMR0320207917000131   1030000100030000   541120003114777031200000031MOB BANK               YGN           MMR11003201101540001310320000000000000000   10300002 00104100000000000000000000002180     
100   9503051020419848000000000006840000000006840000200000001041040320095210000215YWYJYQ0320207916000215   1030000100030000   541120003103777031200000031MOB BANK               YGN           MMR11003200952100002150320000000000000000   10300002 00104100000000000000000000013680     
100   62346600114295250000000000010800000000010800002000000010410403200631350003546312570320207913000354   1030000100030000   541120003117777031200000031MOB BANK               YGN           MMR11003200631350003540320000000000000000   10300005 00104100000000000000000000002160     
100   9503051020419848000000000001420000000001420000200000001041040320093731000366P7MKO80320207916000366   1030000100030000   541120003117777031200000031MOB BANK               YGN           MMR11003200937310003660320000000000000000   10300002 00104100000000000000000000002840     
100   62346600131683520000000000026000000000026000002000000010410403200451520000954372680320207911000095   1030000100030000   541120003106777031200000031MOB BANK               YGN           MMR11003200451520000950320000000000000000   10300005 00104100000000000000000000005200     
100   9503051025644960000000000004340000000004340000200000001041040320031806000345GMXFMN0320207909000345   1030000100030000   541120003117777031200000031MOB BANK               YGN           MMR11003200318060003450320000000000000000   10300002 00104100000000000000000000008680     
100   35710830121717800000000000024500000000024500002000000010410403200735090000976171020320207914000097   1030000100030000   541120003106777031200000031MOB BANK               YGN           MMR11003200735090000970320000000000000000   10300003 00104100000000000000000000004900     
100   62441900003623370000000000008304000000008304002000000010410403200726440003562821210320207913000356   1030000100030000   541120003117777031200000031MOB BANK               YGN           MMR11003200726440003560320000000000000000   10300003 00104100000000000000000000002906     
100   35710830209197740000000000023500000000023500002000000010410403200940260003686922710320207916000368   1030000100030000   541120003117777031200000031MOB BANK               YGN           MMR11003200940260003680320000000000000000   10300003 00104100000000000000000000004700     
100   35710500156294780000000000005260000000005260002000000010410403201017580003706386640320207916000370   1030000100030000   541120003117777031200000031MOB BANK               YGN           MMR11003201017580003700320000000000000000   10300005 00104100000000000000000000001052     
100   35710830347572440000000000003200000000003200002000000010410403200914070000596764810320207915000059   1030000100030000   541120003104777031200000031MOB BANK               YGN           MMR11003200914070000590320000000000000000   10300003 00104100000000000000000000000640     
100   9503051020013369000000000001300000000001300000200000001041040320083809000099WRR7M10320207915000099   1030000100030000   541120003106777031200000031MOB BANK               YGN           MMR11003200838090000990320000000000000000   10300002 00104100000000000000000000002600     
100   9503051020013369000000000003450000000003450000200000001041040320084925000101MXKGLO0320207915000101   1030000100030000   541120003106777031200000031MOB BANK               YGN           MMR11003200849250001010320000000000000000   10300002 00104100000000000000000000006900     
100   9503051890774009000000000003800000000003800000200000001041040320102311000217SHNAHH0320207916000217   1030000100030000   541120003103777031200000031MOB BANK               YGN           MMR11003201023110002170320000000000000000   10300002 00104100000000000000000000007600     
100   35710500134654380000000000066000000000066000002000000010410403200707190000752774180320207913000075   1030000100030000   541120000018777031200000002MOB BANK               YGN           MMR11003200707190000750320000000000000000   10300005 00104100000000000000000000013200     
100   35710830916213170000000000033500000000033500002000000010410403200944280001036947010320207916000103   1030000100030000   541120003106777031200000031MOB BANK               YGN           MMR11003200944280001030320000000000000000   10300003 00104100000000000000000000006700     
100   9503190003214782000000000002100000000002100000200000001041040320074040000114OO55LZ0320207914000114   1030000100030000   541120003111777031200000031MOB BANK               YGN           MMR11003200740400001140320000000000000000   10300014 00104100000000000000000000004200     
100   62346600181163150000000000011900000000011900002000000010410403200335010003484653190320207910000348   1030000100030000   541120003117777031200000031MOB BANK               YGN           MMR11003200335010003480320000000000000000   10300005 00104100000000000000000000002380     
100   9503190003819168000000000000645000000000645000200000001041040320083522000358DN36Z60320207915000358   1030000100030000   541120003117777031200000031MOB BANK               YGN           MMR11003200835220003580320000000000000000   10300014 00104100000000000000000000001290     
100   9503190006307500000000000002350000000002350000200000001041040320112723000372KRR23F0320207917000372   1030000100030000   541120003117777031200000031MOB BANK               YGN           MMR11003201127230003720320000000000000000   10300014 00104100000000000000000000004700     
100   9503190003214782000000000001430000000001430000200000001041040320075614000116OA20WW0320207914000116   1030000100030000   541120003111777031200000031MOB BANK               YGN           MMR11003200756140001160320000000000000000   10300014 00104100000000000000000000002860     
100   9503051024606770000000000003910000000003910000200000001041040320104422000106YNQPIZ0320207917000106   1030000100030000   541120003106777031200000031MOB BANK               YGN           MMR11003201044220001060320000000000000000   10300002 00104100000000000000000000007820     
100   35710830529839040000000000021500000000021500002000000010410403200349460003514818800320207910000351   1030000100030000   541120003117777031200000031MOB BANK               YGN           MMR11003200349460003510320000000000000000   10300003 00104100000000000000000000004300     
100   9503051888466311000000000004170000000004170000200000001041040320084554000361GTPKIR0320207915000361   1030000100030000   541120003117777031200000031MOB BANK               YGN           MMR11003200845540003610320000000000000000   10300002 00104100000000000000000000008340     
100   35710830529839040000000000003300000000003300002000000010410403200300000000534520130320207909000053   1030000100030000   541120003104777031200000031MOB BANK               YGN           MMR11003200300000000530320000000000000000   10300003 00104100000000000000000000000660     
100   62346600181163150000000000006120000000006120002000000010410403200347000001124544750320207910000112   1030000100030000   541120003111777031200000031MOB BANK               YGN           MMR11003200347000001120320000000000000000   10300005 00104100000000000000000000001224     
100   35710500365457520000000000004000000000004000002000000010410403200409440001135398600320207910000113   1030000100030000   541120003111777031200000031MOB BANK               YGN           MMR11003200409440001130320000000000000000   10300005 00104100000000000000000000000800     
100   95030800042899350000000000004050000000004050002000000010410403201026190000887198110320207916000088   1030000100030000   541120003001777031200000030MOB BANK               YGN           MMR11003201026190000880320000000000000000   10300003 00104100000000000000000000000810     
100   9503051019905385000000000002650000000002650000200000001041040320083307000190KABJYL0320207915000190   1030000100030000   541120000017777031200000002MOB BANK               YGN           MMR11003200833070001900320000000000000000   10300002 00104100000000000000000000005300     
100   9503051888466311000000000000850000000000850000200000001041040320085530000213FL4GYW0320207915000213   1030000100030000   541120003103777031200000031MOB BANK               YGN           MMR11003200855300002130320000000000000000   10300002 00104100000000000000000000001700     
