100   35650880350003440000000000710900000000710900002000000010410403150919580000323215910315207415000032   1030000100030000   541110001101777031200000011MOB BANK               YGN           MMR11003150919580000320315000000000000000   10300005 00104100000000000000000000248815     
100   35710500185325960000000000012650000000012650002000000010410403171142320011238880740317207618001123   1030000100030000   581250000001777031200000005MOB BANK               YGN           MMR11003171142320011230317000000000000000   10300005 00104100000000000000000000004301     
100   95031800153315590000000000018920000000018920002000000010410403160508010011161076110316207511001116   1030000100030000   581250000001777031200000005MOB BANK               YGN           MMR11003160508010011160316000000000000000   10300013 00104100000000000000000000006433     
100   9503051026098919000000000003960000000003960000200000001041040317065439000375FQLRTI0317207613000375   1030000100030000   581210001201777031200000012MOB BANK               YGN           MMR11003170654390003750317000000000000000   10300002 00104100000000000000000000013464     
100   35710500385195080000000000169500000000169500002000000010410403160930580004168673170316207516000416   1030000100030000   541120000011777031200000002MOB BANK               YGN           MMR11003160930580004160316000000000000000   10300005 00104100000000000000000000033900     
100   62346600152353730000000000007000000000007000002000000010410403161022080011170416460316207516001117   1030000100030000   581250000001777031200000005MOB BANK               YGN           MMR11003161022080011170316000000000000000   10300005 00104100000000000000000000002380     
100   9503051024864692000000000002500000000002500000200000001041040316042055000096PR8HNE0316207510000096   1030000100030000   541120003105777031200000031MOB BANK               YGN           MMR11003160420550000960316000000000000000   10300002 00104100000000000000000000005000     
100   35710500154748750000000000012900000000012900002000000010410403180910590000394220260318207715000039   1030000100030000   541120003104777031200000031MOB BANK               YGN           MMR11003180910590000390318000000000000000   10300005 00104100000000000000000000002580     
100   35710830071155370000000000011700000000011700002000000010410403180440390003077844120318207711000307   1030000100030000   541120003117777031200000031MOB BANK               YGN           MMR11003180440390003070318000000000000000   10300003 00104100000000000000000000002340     
100   35710830722348410000000000012550000000012550002000000010410403180834420001119248320318207715000111   1030000100030000   541120003114777031200000031MOB BANK               YGN           MMR11003180834420001110318000000000000000   10300003 00104100000000000000000000002510     
100   35710500113578270000000000018200000000018200002000000010410403180755010001011187720318207714000101   1030000100030000   541120003111777031200000031MOB BANK               YGN           MMR11003180755010001010318000000000000000   10300005 00104100000000000000000000003640     
100   950319000171779400000000000841000000000841000020000000104104031808120500010273N23V0318207714000102   1030000100030000   541120003111777031200000031MOB BANK               YGN           MMR11003180812050001020318000000000000000   10300014 00104100000000000000000000016820     
100   35710830097337090000000000026705000000026705002000000010410403181035350001129973710318207717000112   1030000100030000   541120003114777031200000031MOB BANK               YGN           MMR11003181035350001120318000000000000000   10300003 00104100000000000000000000005341     
100   35710500373865450000000000029032000000029032002000000010410403181147000003094629350318207718000309   1030000100030000   541120003117777031200000031MOB BANK               YGN           MMR11003181147000003090318000000000000000   10300005 00104100000000000000000000005806     
100   9503051892052750000000000007350000000007350000200000001041040318121329000313I4VJ9Q0318207718000313   1030000100030000   541120003117777031200000031MOB BANK               YGN           MMR11003181213290003130318000000000000000   10300002 00104100000000000000000000014700     
100   62921400044838530000000000027500000000027500002000000010410403181403170004192222220318207720000419   1030000100030000   581210001501777031200000015MOB BANK               YGN           MMR11003181403170004190318000000000000000   10300009 00104100000000000000000000009350     
100   35710500110453490000000000016830000000016830002000000010410403180908210011268842800318207715001126   1030000100030000   581250000001777031200000005MOB BANK               YGN           MMR11003180908210011260318000000000000000   10300005 00104100000000000000000000005722     
100   62346600152353730000000000007000000000007000002000000010410403181029460011273572780318207716001127   1030000100030000   581250000001777031200000005MOB BANK               YGN           MMR11003181029460011270318000000000000000   10300005 00104100000000000000000000002380     
100   35710950619452860000000000030250000000030250002000000010410403181103270011280140810318207717001128   1030000100030000   581250000001777031200000005MOB BANK               YGN           MMR11003181103270011280318000000000000000   10300003 00104100000000000000000000010285     
100   9503051893441564000000000001870000000001870000200000001041040318115500001129ZCTVOY0318207718001129   1030000100030000   581250000001777031200000005MOB BANK               YGN           MMR11003181155000011290318000000000000000   10300002 00104100000000000000000000006358     
100   95031800781411680000000000016830000000016830002000000010410403181212320011304743020318207718001130   1030000100030000   581250000001777031200000005MOB BANK               YGN           MMR11003181212320011300318000000000000000   10300013 00104100000000000000000000005722     
100   35710500130711860000000000073500000000073500002000000010410403180722200012444028800318207713001244   1030000100030000   541160000001777031200000006MOB BANK               YGN           MMR11003180722200012440318000000000000000   10300005 00104100000000000000000000014700     
100   35710500146108420000000000011300000000011300002000000010410403170832140003023408290317207615000302   1030000100030000   541120003117777031200000031MOB BANK               YGN           MMR11003170832140003020317000000000000000   10300005 00104100000000000000000000002260     
100   62622000100023310000000000106700000000106700002000000010410403170714500003763469270317207613000376   1030000100030000   581210001201777031200000012MOB BANK               YGN           MMR11003170714500003760317000000000000000   10300006 00104100000000000000000000036278     
100   9503051874342526000000000001771000000001771000200000001041040317103218001120B9XMMB0317207617001120   1030000100030000   581250000001777031200000005MOB BANK               YGN           MMR11003171032180011200317000000000000000   10300002 00104100000000000000000000006022     
100   95030518850395740000000000041500000000041500002000000010410403170632280000748RXA8J0317207613000074   1030000100030000   541120003106777031200000031MOB BANK               YGN           MMR11003170632280000740317000000000000000   10300002 00104100000000000000000000008300     
100   95030201319096090000000000041500000000041500002000000010410403170659160000763334000317207613000076   1030000100030000   541120003106777031200000031MOB BANK               YGN           MMR11003170659160000760317000000000000000   10200002 00104100000000000000000000008300     
100   9503051022257295000000000001520000000001520000200000001041040317061626000077ZQDFJ80317207612000077   1030000100030000   541120003001777031200000030MOB BANK               YGN           MMR11003170616260000770317000000000000000   10300002 00104100000000000000000000003040     
100   35710851200156190000000000003300000000003300002000000010410403170738330000780271500317207614000078   1030000100030000   541120003001777031200000030MOB BANK               YGN           MMR11003170738330000780317000000000000000   10300003 00104100000000000000000000000660     
100   35710500334518480000000000019800000000019800002000000010410403171040550011217408380317207617001121   1030000100030000   581250000001777031200000005MOB BANK               YGN           MMR11003171040550011210317000000000000000   10300005 00104100000000000000000000006732     
100   9503051020953739000000000000880000000000880000200000001041040317105629001122YSDWH20317207617001122   1030000100030000   581250000001777031200000005MOB BANK               YGN           MMR11003171056290011220317000000000000000   10300002 00104100000000000000000000002992     
100   62346600152353730000000000008000000000008000002000000010410403171203110011246112640317207618001124   1030000100030000   581250000001777031200000005MOB BANK               YGN           MMR11003171203110011240317000000000000000   10300005 00104100000000000000000000002720     
100   9503051886984596000000000002100000000002100000200000001041040317072036001119CQBJXZ0317207613001119   1030000100030000   581250000001777031200000005MOB BANK               YGN           MMR11003170720360011190317000000000000000   10300002 00104100000000000000000000007140     
100   35710830419780490000000000010795000000010795002000000010410403170443000000969218210317207611000096   1030000100030000   541120003111777031200000031MOB BANK               YGN           MMR11003170443000000960317000000000000000   10300003 00104100000000000000000000002159     
100   9503054000397513000000000002200000000002200000200000001041040317032030000106LPTNPL0317207609000106   1030000100030000   541120003105777031200000031MOB BANK               YGN           MMR11003170320300001060317000000000000000   10300002 00104100000000000000000000004400     
100   9503051896997695000000000000500000000000500000200000001041040317065213000190A7TISO0317207613000190   1030000100030000   541120003103777031200000031MOB BANK               YGN           MMR11003170652130001900317000000000000000   10300002 00104100000000000000000000001000     
100   9503051886515044000000000005200000000005200000200000001041040317070416000297TPM3UZ0317207613000297   1030000100030000   541120003117777031200000031MOB BANK               YGN           MMR11003170704160002970317000000000000000   10300002 00104100000000000000000000010400     
100   35710830287373840000000000162600000000162600002000000010410403170320570012398725900317207609001239   1030000100030000   541160000001777031200000006MOB BANK               YGN           MMR11003170320570012390317000000000000000   10300003 00104100000000000000000000032520     
100   9503051024964773000000000009090000000009090000200000001041040317075833001241QQIDMK0317207614001241   1030000100030000   541160000001777031200000006MOB BANK               YGN           MMR11003170758330012410317000000000000000   10300002 00104100000000000000000000018180     
100   62622000345938930000000000005250000000005250002000000010410403170659420001203360120317207613000120   1030000100030000   541120003102777031200000031MOB BANK               YGN           MMR11003170659420001200317000000000000000   10300006 00104100000000000000000000001050     
