100   35710950481987510000000000015950000000015950002000000010410403190914130003298125430319207815000329   1030000100030000   541120003117777031200000031MOB BANK               YGN           MMR11003190914130003290319000000000000000   10300003 00104100000000000000000000003190     
100   95030800042899350000000000005200000000005200002000000010410403190909460000838098810319207815000083   1030000100030000   541120003001777031200000030MOB BANK               YGN           MMR11003190909460000830319000000000000000   10300003 00104100000000000000000000001040     
100   35710830002519330000000000031350000000031350002000000010410403191137280004428984910319207818000442   1030000100030000   581210001501777031200000015MOB BANK               YGN           MMR11003191137280004420319000000000000000   10300003 00104100000000000000000000010659     
100   9503051022469395000000000009090000000009090000200000001041040319065432001247RFT8J30319207813001247   1030000100030000   541160000001777031200000006MOB BANK               YGN           MMR11003190654320012470319000000000000000   10300002 00104100000000000000000000018180     
100   9503051024497659000000000001590000000001590000200000001041040319082250000086MOZ5L70319207814000086   1030000100030000   541120003106777031200000031MOB BANK               YGN           MMR11003190822500000860319000000000000000   10300002 00104100000000000000000000003180     
100   95030518787333810000000000023500000000023500002000000010410403191019480003379JK2DA0319207816000337   1030000100030000   541120003117777031200000031MOB BANK               YGN           MMR11003191019480003370319000000000000000   10300002 00104100000000000000000000004700     
100   9503051889188062000000000003390000000003390000200000001041040319094527000090XQWQMP0319207816000090   1030000100030000   541120003106777031200000031MOB BANK               YGN           MMR11003190945270000900319000000000000000   10300002 00104100000000000000000000006780     
100   62441900003623370000000000008304000000008304002000000010410403190933340003335089600319207816000333   1030000100030000   541120003117777031200000031MOB BANK               YGN           MMR11003190933340003330319000000000000000   10300003 00104100000000000000000000002906     
100   9503190004746907000000000003800000000003800000200000001041040319084452000322YIOU6Q0319207815000322   1030000100030000   541120003117777031200000031MOB BANK               YGN           MMR11003190844520003220319000000000000000   10300014 00104100000000000000000000007600     
100   9503051886689740000000000006330000000006330000200000001041040319064855000380BT5NK80319207813000380   1030000100030000   581210001201777031200000012MOB BANK               YGN           MMR11003190648550003800319000000000000000   10300002 00104100000000000000000000021522     
100   35710500341247660000000000028600000000028600002000000010410403191252130004436682130319207819000443   1030000100030000   581210001501777031200000015MOB BANK               YGN           MMR11003191252130004430319000000000000000   10300005 00104100000000000000000000009724     
100   9503051021784653000000000010500000000010500000200000001041040319094304001248RGMQOB0319207816001248   1030000100030000   541160000001777031200000006MOB BANK               YGN           MMR11003190943040012480319000000000000000   10300002 00104100000000000000000000021000     
100   95030510241284450000000000073500000000073500002000000010410403190343490012462OI2YX0319207810001246   1030000100030000   541160000001777031200000006MOB BANK               YGN           MMR11003190343490012460319000000000000000   10300002 00104100000000000000000000014700     
100   62343302009357870000000000121900000000121900002000000010410403190751130000409793640319207814000040   1030000100030000   541120003112777031200000031MOB BANK               YGN           MMR11003190751130000400319000000000000000   10300004 00104100000000000000000000024380     
100   9503051897072373000000000002035000000002035000200000001041040319130830000445KS2IBL0319207819000445   1030000100030000   581210001501777031200000015MOB BANK               YGN           MMR11003191308300004450319000000000000000   10300002 00104100000000000000000000006919     
100   35710500362844360000000000011650000000011650002000000010410403190808070000428946660319207814000042   1030000100030000   541120003003777031200000030MOB BANK               YGN           MMR11003190808070000420319000000000000000   10300005 00104100000000000000000000002330     
100   35710500354034410000000000031250000000031250002000000010410403190333470000431750620319207810000043   1030000100030000   541120003104777031200000031MOB BANK               YGN           MMR11003190333470000430319000000000000000   10300005 00104100000000000000000000006250     
100   35710830298450950000000000014100000000014100002000000010410403190854510000438009310319207815000043   1030000100030000   541120003008777031200000030MOB BANK               YGN           MMR11003190854510000430319000000000000000   10300003 00104100000000000000000000002820     
100   62622000950886190000000000039500000000039500002000000010410403191032570000923365930319207817000092   1030000100030000   541120003106777031200000031MOB BANK               YGN           MMR11003191032570000920319000000000000000   10300006 00104100000000000000000000007900     
100   35710950566546040000000000085800000000085800002000000010410403190701170003817327820319207813000381   1030000100030000   581210001201777031200000012MOB BANK               YGN           MMR11003190701170003810319000000000000000   10300003 00104100000000000000000000029172     
100   9503054000496802000000000006000000000006000000200000001041040319082625000420DQ2EBR0319207814000420   1030000100030000   541120000011777031200000002MOB BANK               YGN           MMR11003190826250004200319000000000000000   10300002 00104100000000000000000000012000     
100   35710500130979420000000000124000000000124000002000000010410403190836560000396397850319207815000039   1030000100030000   541120003008777031200000030MOB BANK               YGN           MMR11003190836560000390319000000000000000   10300005 00104100000000000000000000024800     
100   35710500323500740000000000034400000000034400002000000010410403190603510001050544210319207812000105   1030000100030000   541120003111777031200000031MOB BANK               YGN           MMR11003190603510001050319000000000000000   10300005 00104100000000000000000000006880     
100   35710830298450950000000000060050000000060050002000000010410403190844550000417949610319207815000041   1030000100030000   541120003008777031200000030MOB BANK               YGN           MMR11003190844550000410319000000000000000   10300003 00104100000000000000000000012010     
100   9503051887678502000000000003200000000003200000200000001041040319082120000106YFJGGA0319207814000106   1030000100030000   541120003111777031200000031MOB BANK               YGN           MMR11003190821200001060319000000000000000   10300002 00104100000000000000000000006400     
100   35710500331455800000000000050500000000050500002000000010410403190849360001082724920319207815000108   1030000100030000   541120003111777031200000031MOB BANK               YGN           MMR11003190849360001080319000000000000000   10300005 00104100000000000000000000010100     
100   62346600145104380000000000026500000000026500002000000010410403191019530000435150620319207816000043   1030000100030000   541120003112777031200000031MOB BANK               YGN           MMR11003191019530000430319000000000000000   10300005 00104100000000000000000000005300     
100   35710830672518260000000000021900000000021900002000000010410403190551050001996906610319207812000199   1030000100030000   541120003103777031200000031MOB BANK               YGN           MMR11003190551050001990319000000000000000   10300003 00104100000000000000000000004380     
100   35710830634228680000000000021750000000021750002000000010410403190551370000456909820319207812000045   1030000100030000   541120003107777031200000031MOB BANK               YGN           MMR11003190551370000450319000000000000000   10300003 00104100000000000000000000004350     
100   62441900102286010000000000010437000000010437002000000010410403190938090001158947100319207816000115   1030000100030000   541120003114777031200000031MOB BANK               YGN           MMR11003190938090001150319000000000000000   10300003 00104100000000000000000000003653     
100   62343302009357870000000000012000000000012000002000000010410403190758360001186892200319207814000118   1030000100030000   541120003105777031200000031MOB BANK               YGN           MMR11003190758360001180319000000000000000   10300004 00104100000000000000000000002400     
100   35710950481987510000000000017500000000017500002000000010410403191004000001198424200319207816000119   1030000100030000   541120003114777031200000031MOB BANK               YGN           MMR11003191004000001190319000000000000000   10300003 00104100000000000000000000003500     
100   9503051026163838000000000001795000000001795000200000001041040319075620000202ZEQXSQ0319207814000202   1030000100030000   541120003103777031200000031MOB BANK               YGN           MMR11003190756200002020319000000000000000   10300002 00104100000000000000000000003590     
100   9503051887678502000000000000385000000000385000200000001041040319082743000047VBD1OH0319207814000047   1030000100030000   541120003104777031200000031MOB BANK               YGN           MMR11003190827430000470319000000000000000   10300002 00104100000000000000000000000770     
100   95030800042899350000000000008570000000008570002000000010410403190905470000468074810319207815000046   1030000100030000   541120003003777031200000030MOB BANK               YGN           MMR11003190905470000460319000000000000000   10300003 00104100000000000000000000001714     
100   35710500364408480000000000017150000000017150002000000010410403190946520000481568500319207816000048   1030000100030000   541120003003777031200000030MOB BANK               YGN           MMR11003190946520000480319000000000000000   10300005 00104100000000000000000000003430     
100   35710830895026280000000000006800000000006800002000000010410403190738320000497551410319207814000049   1030000100030000   541120003107777031200000031MOB BANK               YGN           MMR11003190738320000490319000000000000000   10300003 00104100000000000000000000001360     
100   95030800074876500000000000037900000000037900002000000010410403190624290000827107010319207812000082   1030000100030000   541120003106777031200000031MOB BANK               YGN           MMR11003190624290000820319000000000000000   10300003 00104100000000000000000000007580     
100   9503051885914883000000000004910000000004910000200000001041040319105055000084XKOZRK0319207817000084   1030000100030000   541120003001777031200000030MOB BANK               YGN           MMR11003191050550000840319000000000000000   10300002 00104100000000000000000000009820     
100   9503051874403922000000000003390000000003390000200000001041040319080831000084F60CQ00319207814000084   1030000100030000   541120003106777031200000031MOB BANK               YGN           MMR11003190808310000840319000000000000000   10300002 00104100000000000000000000006780     
100   95031900047469070000000000022900000000022900002000000010410403190856570003269BM96Q0319207815000326   1030000100030000   541120003117777031200000031MOB BANK               YGN           MMR11003190856570003260319000000000000000   10300014 00104100000000000000000000004580     
100   35710830895026280000000000004900000000004900002000000010410403190740080000517560920319207814000051   1030000100030000   541120003107777031200000031MOB BANK               YGN           MMR11003190740080000510319000000000000000   10300003 00104100000000000000000000000980     
100   35710500131257270000000000004410000000004410002000000010410403190813520000527256880319207814000052   1030000100030000   541120003107777031200000031MOB BANK               YGN           MMR11003190813520000520319000000000000000   10300005 00104100000000000000000000000882     
100   9503051889811598000000000001400000000001400000200000001041040319094737000122UWRJIW0319207816000122   1030000100030000   541120003105777031200000031MOB BANK               YGN           MMR11003190947370001220319000000000000000   10300002 00104100000000000000000000002800     
100   35710500390609730000000000055900000000055900002000000010410403190855320000887382630319207815000088   1030000100030000   541120003106777031200000031MOB BANK               YGN           MMR11003190855320000880319000000000000000   10300005 00104100000000000000000000011180     
100   35710500354034410000000000003750000000003750002000000010410403190342270003188127130319207810000318   1030000100030000   541120003117777031200000031MOB BANK               YGN           MMR11003190342270003180319000000000000000   10300005 00104100000000000000000000000750     
100   35710500315452860000000000001000000000001000002000000010410403191139110001233537140319207818000123   1030000100030000   541120003114777031200000031MOB BANK               YGN           MMR11003191139110001230319000000000000000   10300005 00104100000000000000000000000200     
100   35710500343430770000000000027350000000027350002000000010410403180526120000805590640318207711000080   1030000100030000   541120003001777031200000030MOB BANK               YGN           MMR11003180526120000800318000000000000000   10300005 00104100000000000000000000005470     
100   9503051885796835000000000001665000000001665000200000001041040318080121000081TVRJDP0318207714000081   1030000100030000   541120003001777031200000030MOB BANK               YGN           MMR11003180801210000810318000000000000000   10300002 00104100000000000000000000003330     
100   62346600145104380000000000008700000000008700002000000010410403191032250001098188370319207817000109   1030000100030000   541120003111777031200000031MOB BANK               YGN           MMR11003191032250001090319000000000000000   10300005 00104100000000000000000000001740     
100   9503051889811598000000000000624000000000624000200000001041040319083938000107H8JRIA0319207815000107   1030000100030000   541120003111777031200000031MOB BANK               YGN           MMR11003190839380001070319000000000000000   10300002 00104100000000000000000000001248     
100   9503051025126489000000000021890000000021890000200000001041040318141244000378HAUHHX0318207720000378   1030000100030000   581210001201777031200000012MOB BANK               YGN           MMR11003181412440003780318000000000000000   10300002 00104100000000000000000000074426     
