100   35710830972709940000000000008800000000008800002000000010410403200830130011416501410320207915001141   1030000100030000   581250000001777031200000005MOB BANK               YGN           MMR11003200830130011410320000000000000000   10300003 00104100000000000000000000002992     
100   9503051893411278000000000007080000000007080000200000001041040320081539001252CEW9DS0320207914001252   1030000100030000   541160000001777031200000006MOB BANK               YGN           MMR11003200815390012520320000000000000000   10300002 00104100000000000000000000014160     
100   35710830033572570000000000008250000000008250002000000010410403201200560011427765710320207918001142   1030000100030000   581250000001777031200000005MOB BANK               YGN           MMR11003201200560011420320000000000000000   10300003 00104100000000000000000000002805     
100   9503051893840740000000000001540000000001540000200000001041040320075251000383NFFA830320207914000383   1030000100030000   581210001201777031200000012MOB BANK               YGN           MMR11003200752510003830320000000000000000   10300002 00104100000000000000000000005236     
100   35710830400882950000000000007700000000007700002000000010410403200637310011365825220320207913001136   1030000100030000   581250000001777031200000005MOB BANK               YGN           MMR11003200637310011360320000000000000000   10300003 00104100000000000000000000002618     
100   9503051021071499000000000003960000000003960000200000001041040320123025000384Y5KDMY0320207919000384   1030000100030000   581210001201777031200000012MOB BANK               YGN           MMR11003201230250003840320000000000000000   10300002 00104100000000000000000000013464     
100   62346600195937100000000000003850000000003850002000000010410403200711580011386383880320207913001138   1030000100030000   581250000001777031200000005MOB BANK               YGN           MMR11003200711580011380320000000000000000   10300005 00104100000000000000000000001309     
100   35710500142928980000000000247700000000247700002000000010410403201315590003857749400320207919000385   1030000100030000   581210001201777031200000012MOB BANK               YGN           MMR11003201315590003850320000000000000000   10300005 00104100000000000000000000084218     
100   95031900064016750000000000116600000000116600002000000010410403201329350003864FK2IY0320207919000386   1030000100030000   581210001201777031200000012MOB BANK               YGN           MMR11003201329350003860320000000000000000   10300014 00104100000000000000000000039644     
100   9503051885461414000000000000990000000000990000200000001041040320071851001139FCLFNL0320207913001139   1030000100030000   581250000001777031200000005MOB BANK               YGN           MMR11003200718510011390320000000000000000   10300002 00104100000000000000000000003366     
100   62441900002473480000000000019250000000019250002000000010410403200810070011401841460320207914001140   1030000100030000   581250000001777031200000005MOB BANK               YGN           MMR11003200810070011400320000000000000000   10300003 00104100000000000000000000011454     
100   62346600152353730000000000008000000000008000002000000010410403191002390011329243320319207816001132   1030000100030000   581250000001777031200000005MOB BANK               YGN           MMR11003191002390011320319000000000000000   10300005 00104100000000000000000000002720     
100   9503190005839636000000000000770000000000770000200000001041040319100852001133BP7ZKN0319207816001133   1030000100030000   581250000001777031200000005MOB BANK               YGN           MMR11003191008520011330319000000000000000   10300014 00104100000000000000000000002618     
100   35710830376367910000000000011000000000011000002000000010410403191118490011348873110319207817001134   1030000100030000   581250000001777031200000005MOB BANK               YGN           MMR11003191118490011340319000000000000000   10300003 00104100000000000000000000003740     
100   62346600198971030000000000071300000000071300002000000010410403191150210011358304670319207818001135   1030000100030000   581250000001777031200000005MOB BANK               YGN           MMR11003191150210011350319000000000000000   10300005 00104100000000000000000000024242     
100   9503051025744919000000000001745000000001745000200000001041040321103703000142MCVKYD0321208017000142   1030000100030000   541120003102777031200000031MOB BANK               YGN           MMR11003211037030001420321000000000000000   10300002 00104100000000000000000000003490     
100   9503051025481512000000000000940000000000940000200000001041040321111734000144TFK6YH0321208017000144   1030000100030000   541120003102777031200000031MOB BANK               YGN           MMR11003211117340001440321000000000000000   10300002 00104100000000000000000000001880     
100   9503051885862884000000000000770000000000770000200000001041040321055107001144OVPVCP0321208012001144   1030000100030000   581250000001777031200000005MOB BANK               YGN           MMR11003210551070011440321000000000000000   10300002 00104100000000000000000000002618     
100   35710500335171500000000000029000000000029000002000000010410403211139380001141077520321208018000114   1030000100030000   541120003106777031200000031MOB BANK               YGN           MMR11003211139380001140321000000000000000   10300005 00104100000000000000000000005800     
100   95030510248117680000000000034000000000034000002000000010410403210536520003831XI0DT0321208012000383   1030000100030000   541120003117777031200000031MOB BANK               YGN           MMR11003210536520003830321000000000000000   10300002 00104100000000000000000000006800     
100   35710830909870650000000000010000000000010000002000000010410403210613300011454321210321208012001145   1030000100030000   581250000001777031200000005MOB BANK               YGN           MMR11003210613300011450321000000000000000   10300003 00104100000000000000000000003400     
100   95031010360081740000000000008400000000008400002000000010410403210621230011468946330321208012001146   1030000100030000   581250000001777031200000005MOB BANK               YGN           MMR11003210621230011460321000000000000000   10300005 00104100000000000000000000002856     
100   9503190000493561000000000002375000000002375000200000001041040321030232000376TGM81H0321208009000376   1030000100030000   541120003117777031200000031MOB BANK               YGN           MMR11003210302320003760321000000000000000   10300014 00104100000000000000000000004750     
100   35710830596896600000000000009900000000009900002000000010410403210825190011475112110321208014001147   1030000100030000   581250000001777031200000005MOB BANK               YGN           MMR11003210825190011470321000000000000000   10300003 00104100000000000000000000003366     
100   35710500302992240000000000010230000000010230002000000010410403211019300011488124050321208016001148   1030000100030000   581250000001777031200000005MOB BANK               YGN           MMR11003211019300011480321000000000000000   10300005 00104100000000000000000000003478     
100   9503051025744919000000000000295000000000295000200000001041040321104229000066EFTHZK0321208017000066   1030000100030000   541120003104777031200000031MOB BANK               YGN           MMR11003211042290000660321000000000000000   10300002 00104100000000000000000000000590     
100   95031800503187500000000000040050000000040050002000000010410403210648430001307862660321208013000130   1030000100030000   541120003102777031200000031MOB BANK               YGN           MMR11003210648430001300321000000000000000   10300013 00104100000000000000000000008010     
100   95031010900178550000000000009600000000009600002000000010410403211046470000688947990321208017000068   1030000100030000   541120003104777031200000031MOB BANK               YGN           MMR11003211046470000680321000000000000000   10300005 00104100000000000000000000001920     
100   35710500313646390000000000017700000000017700002000000010410403210956150000909051580321208016000090   1030000100030000   541120003001777031200000030MOB BANK               YGN           MMR11003210956150000900321000000000000000   10300005 00104100000000000000000000003540     
100   35710500371873800000000000009200000000009200002000000010410403210553090001334373870321208012000133   1030000100030000   541120003114777031200000031MOB BANK               YGN           MMR11003210553090001330321000000000000000   10300005 00104100000000000000000000001840     
100   35710500184565490000000000064100000000064100002000000010410403210641580003875494760321208013000387   1030000100030000   541120003117777031200000031MOB BANK               YGN           MMR11003210641580003870321000000000000000   10300005 00104100000000000000000000012820     
100   35710500313646390000000000002550000000002550002000000010410403211003400000913547900321208016000091   1030000100030000   541120003001777031200000030MOB BANK               YGN           MMR11003211003400000910321000000000000000   10300005 00104100000000000000000000000510     
100   35710500343196300000000000020000000000020000002000000010410403210635100001336205470321208013000133   1030000100030000   541120003105777031200000031MOB BANK               YGN           MMR11003210635100001330321000000000000000   10300005 00104100000000000000000000004000     
100   35710830326974260000000000017000000000017000002000000010410403210850160001355261800321208015000135   1030000100030000   541120003114777031200000031MOB BANK               YGN           MMR11003210850160001350321000000000000000   10300003 00104100000000000000000000003400     
100   62622000857952310000000000015500000000015500002000000010410403210950340002256098620321208016000225   1030000100030000   541120003103777031200000031MOB BANK               YGN           MMR11003210950340002250321000000000000000   10300006 00104100000000000000000000003100     
100   35710500313646390000000000013150000000013150002000000010410403211040230000936068870321208017000093   1030000100030000   541120003001777031200000030MOB BANK               YGN           MMR11003211040230000930321000000000000000   10300005 00104100000000000000000000002630     
100   35710900031505660000000000035000000000035000002000000010410403210957400002275666210321208016000227   1030000100030000   541120003103777031200000031MOB BANK               YGN           MMR11003210957400002270321000000000000000   10300003 00104100000000000000000000007000     
100   35710830124043890000000000004410000000004410002000000010410403211119090000706155010321208017000070   1030000100030000   541120003104777031200000031MOB BANK               YGN           MMR11003211119090000700321000000000000000   10300003 00104100000000000000000000000882     
100   9503051025247830000000000002600000000002600000200000001041040321082009000391NTO4EU0321208014000391   1030000100030000   541120003117777031200000031MOB BANK               YGN           MMR11003210820090003910321000000000000000   10300002 00104100000000000000000000005200     
100   35710830050330620000000000658200000000658200002000000010410403210305020012573190310321208009001257   1030000100030000   541160000001777031200000006MOB BANK               YGN           MMR11003210305020012570321000000000000000   10300003 00104100000000000000000000131640     
100   35710500363828340000000000036000000000036000002000000010410403211058480000954075620321208017000095   1030000100030000   541120003001777031200000030MOB BANK               YGN           MMR11003211058480000950321000000000000000   10300005 00104100000000000000000000007200     
100   35710830673876870000000000023550000000023550002000000010410403210312270000623234810321208009000062   1030000100030000   541120003104777031200000031MOB BANK               YGN           MMR11003210312270000620321000000000000000   10300003 00104100000000000000000000004710     
100   35710500114472140000000000008300000000008300002000000010410403211004500000646512480321208016000064   1030000100030000   541120003104777031200000031MOB BANK               YGN           MMR11003211004500000640321000000000000000   10300005 00104100000000000000000000001660     
100   35710500383912880000000000007700000000007700002000000010410403200659160011372348700320207913001137   1030000100030000   581250000001777031200000005MOB BANK               YGN           MMR11003200659160011370320000000000000000   10300005 00104100000000000000000000002618     
100   35710830280644410000000000012700000000012700002000000010410403210949250001375616700321208016000137   1030000100030000   541120003102777031200000031MOB BANK               YGN           MMR11003210949250001370321000000000000000   10300003 00104100000000000000000000002540     
100   35710500324958610000000000010850000000010850002000000010410403210855580001328502990321208015000132   1030000100030000   541120003102777031200000031MOB BANK               YGN           MMR11003210855580001320321000000000000000   10300005 00104100000000000000000000002170     
