100   35710500345832270000000000047100000000047100002000000010410403221022120003925814630322208116000392   1030000100030000   541110001907777031200000019MOB BANK               YGN           MMR11003221022120003920322000000000000000   10300005 00104100000000000000000000009420     
100   9503051021586587000000000016455520000016455520200000001041040322030331001264MFTOAN0322208109001264   1030000100030000   541160000001777031200000006MOB BANK               YGN           MMR11003220303310012640322000000000000000   10300002 00104100000000000000000000032911     
100   9503051025193976000000000007680000000007680000200000001041040322042021001265VFL6M80322208110001265   1030000100030000   541160000001777031200000006MOB BANK               YGN           MMR11003220420210012650322000000000000000   10300002 00104100000000000000000000015360     
100   35710830304894790000000000152300000000152300002000000010410403220907050000524002710322208115000052   1030000100030000   541120003008777031200000030MOB BANK               YGN           MMR11003220907050000520322000000000000000   10300003 00104100000000000000000000030460     
100   9503051884960671000000000000460000000000460000200000001041040322052309000049XJUP9V0322208111000049   1030000100030000   541120003008777031200000030MOB BANK               YGN           MMR11003220523090000490322000000000000000   10300002 00104100000000000000000000000920     
100   35710830304894790000000000025000000000025000002000000010410403220912200000534034210322208115000053   1030000100030000   541120003008777031200000030MOB BANK               YGN           MMR11003220912200000530322000000000000000   10300003 00104100000000000000000000005000     
100   9503051892157872000000000002280000000002280000200000001041040322090758000245S3FEM40322208115000245   1030000100030000   541120003103777031200000031MOB BANK               YGN           MMR11003220907580002450322000000000000000   10300002 00104100000000000000000000004560     
100   9503051024816726000000000000355000000000355000200000001041040322033502000060NHP1QO0322208110000060   1030000100030000   541120003003777031200000030MOB BANK               YGN           MMR11003220335020000600322000000000000000   10300002 00104100000000000000000000000710     
100   9503051025371879000000000003450000000003450000200000001041040322050711000237TI9P3T0322208111000237   1030000100030000   541120003103777031200000031MOB BANK               YGN           MMR11003220507110002370322000000000000000   10300002 00104100000000000000000000006900     
