100   95050312360118350000000000001000000000001000002000000010410403201759082908290302880321000006840810   1030000200030000   3334000100012031040000040102C2P (Myanmar) Co. Ltd Yangon        MMR11003201759082908290321000000000000000   10300001F05104100000000000210000000000000     
100   62443100355903280000000000017100000000017100002000000010410403210549411941686289560321000006843192   1030000200030000   333800010001203104000003327KBZPay                 Yangon        MMR11003210549411941680321000000000000000   10300001F05104100000000003591000000000000     
100   95030301100122420000000000013800000000013800002000000010410403211646510185344052100321000744529897   1030000200030000   541188001030000008000000298KBZ BANK               CITY MART - M MMR11003211646510185340321000000000000000   10300001 00104100000000000828000000000000     
100   62443100395964530000000000015400000000015400002000000010410403211513010208897403890321000744525216   1030000200030000   541188001059000008000000314KBZ BANK               MARKETPLACE - MMR11003211513010208890321000000000000000   10300001 00104100000000003850000000000000     
100   95050323133124350000000000002940000000002940002000000010410403210535420542989410550321000006843087   1020000200030000   333400010001204104000000281Myanmar Soft-Gate Tech Yangon        MMR11003210535420542980321000000000000000   10300001F05104100000000000617000000000000     
100   95050323667276610000000000005880000000005880002000000010410403210856532653226808210321000006844761   1020000200030000   333400010001204104000000281Myanmar Soft-Gate Tech Yangon        MMR11003210856532653220321000000000000000   10300001F05104100000000001235000000000000     
100   95050312360118350000000000001000000000001000002000000010410403201756022602542040460321000006840807   1030000200030000   3334000100012031040000040102C2P (Myanmar) Co. Ltd Yangon        MMR11003201756022602540321000000000000000   10300001F05104100000000000210000000000000     
100   95030356977005070000000000013900000000013900002000000010410403211610500162874052100321000744528238   1030000200030000   541188001008000008000000008KBZ BANK               MARKETPLACE - MMR11003211610500162870321000000000000000   10300001 00104100000000000834000000000000     
100   95050318057347910000000000004900000000004900002000000010410403211240461046062828530321000006846064   1020000200030000   333400010001204104000000281Myanmar Soft-Gate Tech Yangon        MMR11003211240461046060321000000000000000   10300001F05104100000000001029000000000000     
100   95050319978637470000000000005000000000005000002000000010410403201652572257753692950321000006840729   1030000200030000   3338000100012031040000040022C2P (Myanmar) Co. Ltd Yangon        MMR11003201652572257750321000000000000000   10300001F05104100000000001050000000000000     
100   95050311382087030000000000004900000000004900002000000010410403210258002800157395810321000006841614   1020000200030000   333400010001204104000000281Myanmar Soft-Gate Tech Yangon        MMR11003210258002800150321000000000000000   10300001F05104100000000001029000000000000     
100   95050312498129060000000000002940000000002940002000000010410403210043501350519806090321000006841022   1020000200030000   333400010001204104000000281Myanmar Soft-Gate Tech Yangon        MMR11003210043501350510321000000000000000   10300001F05104100000000000617000000000000     
100   95050312695033440000000000000980000000000980002000000010410403210153242324506214060321000006841245   1020000200030000   333400010001204104000000281Myanmar Soft-Gate Tech Yangon        MMR11003210153242324500321000000000000000   10300001F05104100000000000206000000000000     
100   95050323233042810000000000010000000000010000002000000010410403210857332733971850760321000006844763   1030000200030000   333800010001203104000003327KBZPay                 Yangon        MMR11003210857332733970321000000000000000   10300001F05104100000000002100000000000000     
100   62443100306416880000000000004100000000004100002000000010410403211228010131969169050321000744513858   1030000200030000   541188001061000008000000314KBZ BANK               MARKETPLACE - MMR11003211228010131960321000000000000000   10300001 00104100000000001025000000000000     
100   95050317685093130000000000300000000000300000002000000010410403210338560856320969860321000006842018   1030000200030000   333800010001203104000003327KBZPay                 Yangon        MMR11003210338560856320321000000000000000   10300001F05104100000000063000000000000000     
100   95050319528093960000000000001960000000001960002000000010410403211458512851126644080321000006846765   1020000200030000   333400010001204104000000281Myanmar Soft-Gate Tech Yangon        MMR11003211458512851120321000000000000000   10300001F05104100000000000412000000000000     
100   95050316949180000000000000004900000000004900002000000010410403211349471947251005850321000006846407   1020000200030000   333400010001204104000000281Myanmar Soft-Gate Tech Yangon        MMR11003211349471947250321000000000000000   10300001F05104100000000001029000000000000     
100   62911028202077010000000000000980000000000980002000000010410403210432380238094052100321000006842507   1020000200030000   333400010001204104000000281Myanmar Soft-Gate Tech Yangon        MMR11003210432380238090321000000000000000   10300001F05104100000000000206000000000000     
100   95050312360118350000000000001000000000001000002000000010410403201753052305070387970321000006840803   1030000200030000   3334000100012031040000040102C2P (Myanmar) Co. Ltd Yangon        MMR11003201753052305070321000000000000000   10300001F05104100000000000210000000000000     
100   95050319928585020000000000000980000000000980002000000010410403210732560256012723590321000006844006   1020000200030000   333400010001204104000000281Myanmar Soft-Gate Tech Yangon        MMR11003210732560256010321000000000000000   10300001F05104100000000000206000000000000     
100   95050311419479170000000000001960000000001960002000000010410403211408163816999949050321000006846526   1020000200030000   333400010001204104000000281Myanmar Soft-Gate Tech Yangon        MMR11003211408163816990321000000000000000   10300001F05104100000000000412000000000000     
100   62911028202295310000000000006700000000006700002000000010410403210603065121744052100321187321206079   1030000500030000   555610112233104519000010487Ocean Super Center St  ohn           MMR11003210603065121740321000000000000000   10300001 00104100000000000402000000000000     
100   62911028202260570000000000150000000000150000002000000010410403210753395138174052100321416231401079   1030000300030000   555510124697104519000020166Makro Myanmar                        MMR11003210753395138170321000000000000000   10300001 00104100000000009000000000000000     
100   62911028202243670000000000087400000000087400002000000010410403210428323376434052100321208011337643   1040001600030000   591220000288000000010000276Shwe Ohh Pharmacy (Nor Yangon        MMR11003210428323376430321000000000000000   10300001F00104100000000005244000000000000     
100   95030352597917530000000000005000000000005000002000000010410403211109353935744052100321000006845627   1030000200030000   333800010001203104000003327KBZPay                 Yangon        MMR11003211109353935740321000000000000000   10300001F05104100000000001050000000000000     
100   95050312498129060000000000004900000000004900002000000010410403210217414741472952830321000006841367   1020000200030000   333400010001204104000000281Myanmar Soft-Gate Tech Yangon        MMR11003210217414741470321000000000000000   10300001F05104100000000001029000000000000     
100   62911028202169180000000000002850000000002850002000000010410403210146435095004052100321672140835079   1030000500030000   555610120984104519000017747City Express MCS 112                 MMR11003210146435095000321000000000000000   10300001 00104100000000000171000000000000     
100   62911028202207460000000000013500000000013500002000000010410403210647195128414052100321108161351079   1030000500030000   555610112237104519000010487Ocean Super Center St  ohn           MMR11003210647195128410321000000000000000   10300001 00104100000000000810000000000000     
100   95050319753756490000000000015000000000015000002000000010410403211400013001181601530321000006846466   1030000200030000   333800010001203104000003327KBZPay                 Yangon        MMR11003211400013001180321000000000000000   10300001F05104100000000003150000000000000     
100   95050315005801680000000000002940000000002940002000000010410403210802393239093198520321000006844303   1020000200030000   333400010001204104000000281Myanmar Soft-Gate Tech Yangon        MMR11003210802393239090321000000000000000   10300001F05104100000000000617000000000000     
100   95050311419479170000000000000980000000000980002000000010410403201728485848835345420321000006840774   1020000200030000   333400010001204104000000281Myanmar Soft-Gate Tech Yangon        MMR11003201728485848830321000000000000000   10300001F05104100000000000206000000000000     
100   62443100350052510000000000063600000000063600002000000010410403210313554355124906160321000006841751   1030000200030000   333300010001203104000003632Myanmar Tradenet Test  Yangon        MMR11003210313554355120321000000000000000   10300001F05104100000000010000000000000000     
100   62911028202232860000000000019400000000019400002000000010410403210805555141074052100321810431449079   1030000500030000   555610112232104519000010487Ocean Super Center St  ohn           MMR11003210805555141070321000000000000000   10300001 00104100000000001164000000000000     
100   62443100379184770000000000026090000000026090002000000010410403211041443576859913390321208017357685   1040001600030000   541120000561000000010000465Ocean Shwe Gone Daing  Yangon        MMR11003211041443576850321000000000000000   10300001F00104100000000006523000000000000     
100   95050314542175100000000000050000000000050000002000000010410403210514474447630516800321000006842869   1030000200030000   333800010001203104000003327KBZPay                 Yangon        MMR11003210514474447630321000000000000000   10300001F05104100000000010500000000000000     
100   95050318131043910000000000000980000000000980002000000010410403211315294529945878210321000006846253   1020000200030000   333400010001204104000000281Myanmar Soft-Gate Tech Yangon        MMR11003211315294529940321000000000000000   10300001F05104100000000000206000000000000     
100   95030393174848800000000000006800000000006800002000000010410403210345545104004052100321832141031079   1030000500030000   555610110566104519000009163City Mart Ayeyarwon Br nch           MMR11003210345545104000321000000000000000   10300001 00104100000000000408000000000000     
100   95050312926040930000000000002940000000002940002000000010410403210321335133128842450321000006841839   1020000200030000   333400010001204104000000281Myanmar Soft-Gate Tech Yangon        MMR11003210321335133120321000000000000000   10300001F05104100000000000617000000000000     
100   95050318601641810000000000000980000000000980002000000010410403210115474547982855770321000006841090   1020000200030000   333400010001204104000000281Myanmar Soft-Gate Tech Yangon        MMR11003210115474547980321000000000000000   10300001F05104100000000000206000000000000     
100   95050312781844250000000000070500000000070500002000000010410403210920165016187694830321000006844951   1030000200030000   333800010001203104000003327KBZPay                 Yangon        MMR11003210920165016180321000000000000000   10300001F05104100000000014805000000000000     
100   62911028202761360000000000068796000000068796002000000010410403210750405139034052100321525281444079   1030000500030000   555610103976104519000003818Ocean Oattara Thiri Na PyiTaw        MMR11003210750405139030321000000000000000   10300001 00104100000000004128000000000000     
100   95050318131043910000000000000980000000000980002000000010410403211313364336922913630321000006846243   1020000200030000   333400010001204104000000281Myanmar Soft-Gate Tech Yangon        MMR11003211313364336920321000000000000000   10300001F05104100000000000206000000000000     
100   95030393174848800000000000010800000000010800002000000010410403210357155105324052100321009261039079   1030000500030000   555610110563104519000009163City Mart Ayeyarwon Br nch           MMR11003210357155105320321000000000000000   10300001 00104100000000000648000000000000     
100   62911028202443730000000000003400000000003400002000000010410403210407545106844052100321202391020079   1030000500030000   555610112233104519000010487Ocean Super Center St  ohn           MMR11003210407545106840321000000000000000   10300001 00104100000000000204000000000000     
100   95030309807573300000000000000500000000000500002000000010410403210534035117284052100321556021204079   1030000500030000   555610110572104519000009164City Mart China Town P int Cen       MMR11003210534035117280321000000000000000   10300001 00104100000000000030000000000000     
100   62443100330108240000000000000980000000000980002000000010410403211217474747020580370321000006845955   1020000200030000   333400010001204104000000281Myanmar Soft-Gate Tech Yangon        MMR11003211217474747020321000000000000000   10300001F05104100000000000206000000000000     
100   95050315066440750000000000075700000000075700002000000010410411221101420000322428021122132617000032   1030000500030000   806220008101       10300005AYA BANK                             MMR11011221101420000321122000000000000000   10300001 00104100000000018168000000000000     
100   95050324622440820000000000145550000000145550002000000010410403200307140027484648620320207909002748   1030000500030000   503920036611000015039200366PRO-1 HOME CENTER      PTN           MMR11003200307140027480320000000000000000   10300001 00104100000000034932000000000000     
100   95050314995854750000000000100000000000100000002000000010410403200211570005996386200320207908000599   1030000500030000   806220072801000018062200728WITORIYA HOSPITAL      PTN           MMR11003200211570005990320000000000000000   10300001 00104100000000024000000000000000     
100   62911028202163630000000000032000000000032000002000000010410403201033140009344052100320207917000934   1030000500030000   591220012301014405912200123SHWE OHH PHARMACY      PTN           MMR11003201033140009340320000000000000000   10300001 00104100000000001920000000000000     
100   95050328919375610000000000046000000000046000002000000010410403200606480000896010170320207912000089   1030000500030000   569120109701008205691201097ESCORT (PYAY)          PTN           MMR11003200606480000890320000000000000000   10300001 00104100000000011040000000000000     
100   95050328491914360000000000299250000000299250002000000010410403200359480001536726590320207910000153   1030000500030000   806220152204004308062201522OSC HOSPITAL           PTN           MMR11003200359480001530320000000000000000   10300001 00104100000000071820000000000000     
100   62911028202143500000000000050000000000050000002000000010410403200037550053724052100320207907005372   1030000500030000   598320002104000015172200021MAX ENERGY             PTN           MMR11003200037550053720320000000000000000   10300001 00104100000000001500000000000000     
100   62911028202487540000000000006000000000006000002000000010410403201223120077634052100320207918007763   1030000500030000   541120020801022205411200208ORANGE (TAMWE)         PTN           MMR11003201223120077630320000000000000000   10300001 00104100000000000360000000000000     
100   95030301100126970000000000037550000000037550002000000010410403210326413351394052100321208010335139   1040001600030000   591220000287000000010000275Shwe Ohh Pharmacy (Wit Yangon        MMR11003210326413351390321000000000000000   10300001F00104100000000002253000000000000     
100   62443100379321630000000000042002000000042002002000000010410403210911313517759092030321208016351775   1040001600030000   598320000316000000010000304PT Power Petrol Statio Yangon        MMR11003210911313517750321000000000000000   10300001F00104100000000005040000000000000     
100   95030301100122420000000000030000000000030000002000000010410403211210574057374052100321000006845914   1030000200030000   333800010001203104000003327KBZPay                 Yangon        MMR11003211210574057370321000000000000000   10300001F05104100000000006300000000000000     
100   62443100390038980000000000149300000000149300002000000010410403210842575144775666310321352111525079   1030000300030000   555510124364104519000020166Makro Myanmar                        MMR11003210842575144770321000000000000000   10300001 00104100000000035832000000000000     
100   95030317922148660000000000025571000000025571002000000010410403210340125103744052100321809121011079   1030000500030000   555610118967104519000016137City Mart South Okkala WZYD BR       MMR11003210340125103740321000000000000000   10300001 00104100000000001534000000000000     
100   62911028202261230000000000108208000000108208002000000010410403210543585120564052100321023241217079   1030000500030000   555610118962104519000016137City Mart South Okkala WZYD BR       MMR11003210543585120560321000000000000000   10300001 00104100000000006492000000000000     
100   62911028202446700000000000180000000000180000002000000010410403210859542954674052100321000006844787   1030000500030000   333800010001201104000003863AYA Pay                Yangon        MMR11003210859542954670321000000000000000   10300001F05104100000000037800000000000000     
100   62911028202443730000000000072951000000072951002000000010410403210347045104474052100321895181027079   1030000500030000   555610112232104519000010487Ocean Super Center St  ohn           MMR11003210347045104470321000000000000000   10300001 00104100000000004377000000000000     
100   95050329252108030000000000018300000000018300002000000010410403201113550001355145410320207917000135   1030000500030000   541120182701000045411201827EASY MART-010          PTN           MMR11003201113550001350320000000000000000   10300001 00104100000000004575000000000000     
100   62911028202802520000000000005600000000005600002000000010410403200459470021544052100320207911002154   1030000500030000   531120155802000045311201558GAMONE PWINT           PTN           MMR11003200459470021540320000000000000000   10300001 00104100000000000336000000000000     
100   62911028202194090000000000046860000000046860002000000010410403200132190065594052100320207908006559   1030000500030000   581220063701000015812200637CHINESE 47             PTN           MMR11003200132190065590320000000000000000   10300001 00104100000000004780000000000000     
100   62911028202595380000000000085000000000085000002000000010410403201003420047714052100320207916004771   1030000500030000   598320041901000055983200419MAX ENERGY             PTN           MMR11003201003420047710320000000000000000   10300001 00104100000000002550000000000000     
100   95050326159929830000000000046700000000046700002000000010410403201054430012326797900320207917001232   1030000500030000   531120155804000045311201558GAMONE PWINT           PTN           MMR11003201054430012320320000000000000000   10300001 00104100000000011208000000000000     
100   95050329252108030000000000006000000000006000002000000010410403201123120001362436120320207917000136   1030000500030000   541120182701000045411201827EASY MART-010          PTN           MMR11003201123120001360320000000000000000   10300001 00104100000000001500000000000000     
100   62911028202663500000000000073536000000073536002000000010410403201012380009284052100320207916000928   1030000500030000   806220172402013008062201724GRAND HANTHA HOSPITAL  PTN           MMR11003201012380009280320000000000000000   10300001 00104100000000004412000000000000     
100   62911028202443650000000000069500000000069500002000000010410403200647120001024052100320207913000102   1030000500030000   594820156401016705948201564SUSEN                  PTN           MMR11003200647120001020320000000000000000   10300001 00104100000000004170000000000000     
100   62911028202443730000000000004500000000004500002000000010410403210404485106184052100321109331038079   1030000500030000   555610112253104519000010487Ocean Super Center St  ohn           MMR11003210404485106180321000000000000000   10300001 00104100000000000270000000000000     
100   62911028202161240000000000020000000000020000002000000010410403210246193334864052100321208009333486   1040001600030000   598320000658000000010000527Shwe Taung Energy (YGN Yangon        MMR11003210246193334860321000000000000000   10300001F00104100000000000600000000000000     
100   62443100371022130000000000054000000000054000002000000010410403210328383352034856710321208010335203   1040001600030000   598320000658000000010000527Shwe Taung Energy (YGN Yangon        MMR11003210328383352030321000000000000000   10300001F00104100000000006480000000000000     
100   62911028202446540000000000045000000000045000002000000010410403210245243334334052100321208009333433   1040001600030000   591220000287000000010000275Shwe Ohh Pharmacy (Wit Yangon        MMR11003210245243334330321000000000000000   10300001F00104100000000002700000000000000     
100   95030359617000430000000000300000000000300000002000000010410403210613194319404052100321000006843376   1030000200030000   333800010001203104000003327KBZPay                 Yangon        MMR11003210613194319400321000000000000000   10300001F05104100000000063000000000000000     
100   95050318180584510000000000005500000000005500002000000010410403210317284728700750220321000006841793   1030000200030000   333800010001203104000003327KBZPay                 Yangon        MMR11003210317284728700321000000000000000   10300001F05104100000000001155000000000000     
100   62443100330108240000000000001960000000001960002000000010410403211220285028122232860321000006845966   1020000200030000   333400010001204104000000281Myanmar Soft-Gate Tech Yangon        MMR11003211220285028120321000000000000000   10300001F05104100000000000412000000000000     
100   62911028202163300000000000125400000000125400002000000010410403210401535105854052100321071301044079   1030000300030000   555510124687104519000020166Makro Myanmar                        MMR11003210401535105850321000000000000000   10300001 00104100000000007524000000000000     
100   62443100369813440000000000020000000000020000002000000010410403200153220003914492220320207908000391   1030000500030000   598320001302000015172200013MAX ENERGY             PTN           MMR11003200153220003910320000000000000000   10300001 00104100000000002400000000000000     
100   95050329252108030000000000092000000000092000002000000010410403201243200014458189260320207919001445   1030000500030000   598320002101000015172200021MAX ENERGY             PTN           MMR11003201243200014450320000000000000000   10300001 00104100000000011040000000000000     
100   95050314248677090000000000022760000000022760002000000010410403200855320033429435880320000336033911   1030000300030000   806200000197000000000000097CB BANK                AUNG YADANA H MMR11003200855320033420320000000000000000   10300001F00104100000000005462000000000000     
100   62911028202221220000000000006750000000006750002000000010410403200105410002184052100320207907000218   1030000500030000   541120182401000045411201824EASY MART-007          PTN           MMR11003200105410002180320000000000000000   10300001 00104100000000000405000000000000     
100   62911028202675310000000000066000000000066000002000000010410403200732100010404052100320207914001040   1030000500030000   569120104101008205691201041ESCORT (TAWWIN CENTER) PTN           MMR11003200732100010400320000000000000000   10300001 00104100000000003960000000000000     
100   62443100300743690000000000002100000000002100002000000010410403201043150028880528350320000336047150   1030000300030000   541100000443000000000000319CB BANK                ONESTOP KITCH MMR11003201043150028880320000000000000000   10300001F00104100000000000525000000000000     
100   95050325925517520000000000049000000000049000002000000010410403200236580210744563520320207909021074   1030000500030000   598320001601000015172200016MAX ENERGY             PTN           MMR11003200236580210740320000000000000000   10300001 00104100000000005880000000000000     
100   95050323282717740000000000015000000000015000002000000010410403200444022775290797420320207911277529   1040001600030000   598320000856000000010000609Terminal Petrol Statio Yangon        MMR11003200444022775290320000000000000000   10300001F00104100000000001800000000000000     
100   95050312695033440000000000000980000000000980002000000010410403210503303330572666070321000006842777   1020000200030000   333400010001204104000000281Myanmar Soft-Gate Tech Yangon        MMR11003210503303330570321000000000000000   10300001F05104100000000000206000000000000     
100   95050316818236190000000000000980000000000980002000000010410403211206333633495452730321000006845880   1020000200030000   333400010001204104000000281Myanmar Soft-Gate Tech Yangon        MMR11003211206333633490321000000000000000   10300001F05104100000000000206000000000000     
100   62911028202105070000000000041000000000041000002000000010410403210253505098994052100321209210950079   1030000300030000   888810125458104519000021285Shwe Taung Energy CoLt               MMR11003210253505098990321000000000000000   10300001 00104100000000001230000000000000     
100   62443100330108240000000000000980000000000980002000000010410403211216004600208842790321000006845943   1020000200030000   333400010001204104000000281Myanmar Soft-Gate Tech Yangon        MMR11003211216004600200321000000000000000   10300001F05104100000000000206000000000000     
100   95030317922148660000000000041788000000041788002000000010410403210336245103374052100321771081011079   1030000500030000   555610118967104519000016137City Mart South Okkala WZYD BR       MMR11003210336245103370321000000000000000   10300001 00104100000000002507000000000000     
100   95050325637546660000000000046300000000046300002000000010410403210429075109664779690321578021121079   1030000500030000   555610103975104519000003818Ocean Oattara Thiri Na PyiTaw        MMR11003210429075109660321000000000000000   10300001 00104100000000011575000000000000     
100   95050316355723530000000000000980000000000980002000000010410403210800153015347099160321000006844290   1020000200030000   333400010001204104000000281Myanmar Soft-Gate Tech Yangon        MMR11003210800153015340321000000000000000   10300001F05104100000000000206000000000000     
100   62443100306882420000000000200000000000200000002000000010410403210805313531428070870321000006844331   1030000200030000   333800010001203104000003327KBZPay                 Yangon        MMR11003210805313531420321000000000000000   10300001F05104100000000042000000000000000     
100   62911028202154800000000000155000000000155000002000000010410403200805070068774052100320207914006877   1030000500030000   598320001502000015172200015MAX ENERGY             PTN           MMR11003200805070068770320000000000000000   10300001 00104100000000004650000000000000     
100   62911028202112400000000000025000000000025000002000000010410403200515490155584052100320207911015558   1030000500030000   598320001401000015172200014MAX ENERGY             PTN           MMR11003200515490155580320000000000000000   10300001 00104100000000000750000000000000     
100   62911028202443730000000000020000000000020000002000000010410403200840380225064052100320207915022506   1030000500030000   598320001901000015172200019MAX ENERGY             PTN           MMR11003200840380225060320000000000000000   10300001 00104100000000000600000000000000     
100   62911028202446700000000000044000000000044000002000000010410403180538140001664052100318207705000166   1030000600030000   569900001960315799420001329A LOOK EYEWEAR         YANGON        MMR11003180538140001660318000000000000000   10300001 00104100000000002640000000000000     
100   62443100379321630000000000057000000000057000002000000010410403181255590048559663590318207712004855   1030000600030000   554100002141315799420001490DENKO MEIKHTILA 3      MANDALAY      MMR11003181255590048550318000000000000000   10300001 00104100000000006840000000000000     
100   62911028202777610000000000085000000000085000002000000010410403180941210097374052100318207709009737   1030000600030000   554100002323315799420000474DENKO N.DAGON - 1      YANGON        MMR11003180941210097370318000000000000000   10300001 00104100000000002550000000000000     
100   62443100363668680000000000031000000000031000002000000010410403181053530027193273290318207710002719   1030000600030000   554100002085315799420000471DENKO BAHAN            YANGON        MMR11003181053530027190318000000000000000   10300001 00104100000000003720000000000000     
100   95050315745833530000000000005000000000005000002000000010410403180407450058495608910318207704005849   1030000600030000   554100001252315799420000706DENKO MONEYWAR - 2     MONEYWAR      MMR11003180407450058490318000000000000000   10300001 00104100000000000600000000000000     
100   95030341448197210000000000030000000000030000002000000010410403172348380120674052100318207723012067   1030000600030000   554100002319315799420000477DENKO INSEIN           YANGON        MMR11003172348380120670318000000000000000   10300001 00104100000000000900000000000000     
100   62911028202023630000000000080000000000080000002000000010410403181058130044174052100318207710004417   1030000600030000   554100000744315799420000322DENKO AMARAPURA-PACHI  MANDALAY      MMR11003181058130044170318000000000000000   10300001 00104100000000002400000000000000     
100   62911028202029420000000000015000000000015000002000000010410403180344230658224052100318207703065822   1030000600030000   554100000957315799420000480DENKO N.DAGON - 3      YANGON        MMR11003180344230658220318000000000000000   10300001 00104100000000000450000000000000     
100   95050321232876860000000000088000000000088000002000000010410403180421590326432224550318207704032643   1030000600030000   554100001865315799420001235DENKO NAY PYI TAW 2    NAYPYITAW     MMR11003180421590326430318000000000000000   10300001 00104100000000010560000000000000     
100   62911028202072060000000000005600000000005600002000000010410403211116490037984052100321000744508974   1030000200030000   541188001033000008000000298KBZ BANK               CITY MART - M MMR11003211116490037980321000000000000000   10300001 00104100000000000336000000000000     
100   95050319928585020000000000000980000000000980002000000010410403210730060006749503720321000006843985   1020000200030000   333400010001204104000000281Myanmar Soft-Gate Tech Yangon        MMR11003210730060006740321000000000000000   10300001F05104100000000000206000000000000     
100   95030356977005070000000000002700000000002700002000000010410403211601380054914052100321000744527813   1030000200030000   541188001016000008000000008KBZ BANK               MARKETPLACE - MMR11003211601380054910321000000000000000   10300001 00104100000000000162000000000000     
100   62911028202161240000000000023800000000023800002000000010410403211101480046504052100321000744507933   1030000200030000   541188001021000008000000298KBZ BANK               CITY MART - M MMR11003211101480046500321000000000000000   10300001 00104100000000001428000000000000     
100   62443100395964530000000000007000000000007000002000000010410403211622110066002963070321000744528712   1030000200030000   541188001071000008000000314KBZ BANK               MARKETPLACE - MMR11003211622110066000321000000000000000   10300001 00104100000000001750000000000000     
100   62911028202756820000000000084508000000084508002000000010410403211556440021644052100321000744527626   1030000200030000   541188001486000008000000399KBZ BANK               OCEAN SUPERCE MMR11003211556440021640321000000000000000   10300001 00104100000000005070000000000000     
100   62911028202400660000000000180900000000180900002000000010410403210655370001704052100321000744517918   1030000200030000   569188000860000008000004717KBZ BANK               HBT YANGON (J MMR11003210655370001700321000000000000000   10300001 00104100000000010854000000000000     
100   62911028202105070000000000004000000000004000002000000010410403211933010038484052100321000744536135   1030000200030000   541188001033000008000000298KBZ BANK               CITY MART - M MMR11003211933010038480321000000000000000   10300001 00104100000000000240000000000000     
100   95050320047636150000000000025199000000025199002000000010410403211729240057647119000321000744531835   1030000200030000   541188001315000008000000306KBZ BANK               CITY MART - S MMR11003211729240057640321000000000000000   10300001 00104100000000006300000000000000     
100   95030301100122420000000000096250000000096250002000000010410403211732230067074052100321000744531949   1030000200030000   541188001023000008000000298KBZ BANK               CITY MART - M MMR11003211732230067070321000000000000000   10300001 00104100000000005775000000000000     
100   95030305700676370000000000030000000000030000002000000010410403202348120015974052100321000744499319   1030000200030000   598388001833000008000005310KBZ BANK               BOC (138 MILE MMR11003202348120015970321000000000000000   10300001 00104100000000000900000000000000     
100   62911028202074950000000000010050000000010050002000000010410403210936300147334052100321000744502826   1030000200030000   541188001304000008000000325KBZ BANK               CITY MART - A MMR11003210936300147330321000000000000000   10300001 00104100000000000603000000000000     
100   95050316049877640000000000002940000000002940002000000010410403210352392239576728830321000006842138   1020000200030000   333400010001204104000000281Myanmar Soft-Gate Tech Yangon        MMR11003210352392239570321000000000000000   10300001F05104100000000000617000000000000     
100   95050315158357300000000000000980000000000980002000000010410403210231260126421460100321000006841445   1020000200030000   333400010001204104000000281Myanmar Soft-Gate Tech Yangon        MMR11003210231260126420321000000000000000   10300001F05104100000000000206000000000000     
100   95050323670692380000000000010000000000010000002000000010410403211035280528873133260321000006845466   1030000200030000   333800010001203104000003327KBZPay                 Yangon        MMR11003211035280528870321000000000000000   10300001F05104100000000002100000000000000     
100   95050324247403260000000000009500000000009500002000000010410403211831060111603715150321000744534253   1030000200030000   541188001129000008000000296KBZ BANK               CITY MART - J MMR11003211831060111600321000000000000000   10300001 00104100000000002375000000000000     
100   62911028202161240000000000007181000000007181002000000010410403211132040139314052100321000744510017   1030000200030000   541188001020000008000000298KBZ BANK               CITY MART - M MMR11003211132040139310321000000000000000   10300001 00104100000000000431000000000000     
100   62911028202161240000000000001400000000001400002000000010410403211103450184384052100321000744508069   1030000200030000   541188001032000008000000298KBZ BANK               CITY MART - M MMR11003211103450184380321000000000000000   10300001 00104100000000000084000000000000     
100   95030322236782320000000000010100000000010100002000000010410403211621170241674052100321000744528636   1030000200030000   541188001042000008000000010KBZ BANK               MARKETPLACE - MMR11003211621170241670321000000000000000   10300001 00104100000000000606000000000000     
100   95030301100118480000000000030000000000030000002000000010410403210640291029664052100321000006843563   1030000200030000   333800010001203104000003327KBZPay                 Yangon        MMR11003210640291029660321000000000000000   10300001F05104100000000006300000000000000     
100   95050312926040930000000000007000000000007000002000000010410403211449231923563339110321000006846721   1030000200030000   333800010001203104000003327KBZPay                 Yangon        MMR11003211449231923560321000000000000000   10300001F05104100000000001470000000000000     
100   95050311959900780000000000002940000000002940002000000010410403210257432743042438370321000006841610   1020000200030000   333400010001204104000000281Myanmar Soft-Gate Tech Yangon        MMR11003210257432743040321000000000000000   10300001F05104100000000000617000000000000     
100   95050314160856250000000000004900000000004900002000000010410403211355452545509353370321000006846440   1020000200030000   333400010001204104000000281Myanmar Soft-Gate Tech Yangon        MMR11003211355452545500321000000000000000   10300001F05104100000000001029000000000000     
100   62911028202809060000000000100000000000100000002000000010410403211232250225674052100321000006846019   1030000200030000   333800010001203104000003327KBZPay                 Yangon        MMR11003211232250225670321000000000000000   10300001F05104100000000021000000000000000     
100   95050317903887690000000000000980000000000980002000000010410403211044401440901565870321000006845522   1020000200030000   333400010001204104000000281Myanmar Soft-Gate Tech Yangon        MMR11003211044401440900321000000000000000   10300001F05104100000000000206000000000000     
100   95050315345734110000000000000980000000000980002000000010410403210954462446574700650321000006845182   1020000200030000   333400010001204104000000281Myanmar Soft-Gate Tech Yangon        MMR11003210954462446570321000000000000000   10300001F05104100000000000206000000000000     
100   62911028202446540000000000057800000000057800002000000010410403210952140297984052100321000744503460   1030000200030000   541188001025000008000000298KBZ BANK               CITY MART - M MMR11003210952140297980321000000000000000   10300001 00104100000000003468000000000000     
100   95050315330275830000000000001960000000001960002000000010410403211338420842554225730321000006846341   1020000200030000   333400010001204104000000281Myanmar Soft-Gate Tech Yangon        MMR11003211338420842550321000000000000000   10300001F05104100000000000412000000000000     
100   62443100330048680000000000021000000000021000002000000010410403210339320932314274830321000006842027   1030000200030000   333800010001203104000003327KBZPay                 Yangon        MMR11003210339320932310321000000000000000   10300001F05104100000000004410000000000000     
100   95050316818236190000000000000980000000000980002000000010410403211342091209145963310321000006846354   1020000200030000   333400010001204104000000281Myanmar Soft-Gate Tech Yangon        MMR11003211342091209140321000000000000000   10300001F05104100000000000206000000000000     
100   62911028202151910000000000022200000000022200002000000010410403211227140246604052100321000744513807   1030000200030000   541188001012000008000000008KBZ BANK               MARKETPLACE - MMR11003211227140246600321000000000000000   10300001 00104100000000001332000000000000     
100   95050318608138520000000000004000000000004000002000000010410403211439590959674991590321000006846666   1030000200030000   333800010001203104000003327KBZPay                 Yangon        MMR11003211439590959670321000000000000000   10300001F05104100000000000840000000000000     
100   62911028202809060000000000050000000000050000002000000010410403210441221122694052100321000006842579   1030000200030000   333800010001203104000003327KBZPay                 Yangon        MMR11003210441221122690321000000000000000   10300001F05104100000000010500000000000000     
100   95050326155679180000000000008820000000008820002000000010410403211540341034606729170321000006846916   1020000200030000   333400010001204104000000281Myanmar Soft-Gate Tech Yangon        MMR11003211540341034600321000000000000000   10300001F05104100000000001852000000000000     
100   95050317728825080000000000002000000000002000002000000010410403210053342334771039330321000006841033   1030000200030000   3334000100012031040000040102C2P (Myanmar) Co. Ltd Yangon        MMR11003210053342334770321000000000000000   10300001F05104100000000000420000000000000     
100   95050312498129060000000000000980000000000980002000000010410403211249511951817785980321000006846121   1020000200030000   333400010001204104000000281Myanmar Soft-Gate Tech Yangon        MMR11003211249511951810321000000000000000   10300001F05104100000000000206000000000000     
100   95050320360851930000000000002940000000002940002000000010410403211451342134098296560321000006846732   1020000200030000   333400010001204104000000281Myanmar Soft-Gate Tech Yangon        MMR11003211451342134090321000000000000000   10300001F05104100000000000617000000000000     
100   95050312498129060000000000002940000000002940002000000010410403211357072707218211460321000006846446   1020000200030000   333400010001204104000000281Myanmar Soft-Gate Tech Yangon        MMR11003211357072707210321000000000000000   10300001F05104100000000000617000000000000     
100   62911028202531350000000000065440000000065440002000000010410403211008270152184052100321000744504275   1030000200030000   541188001005000008000000008KBZ BANK               MARKETPLACE - MMR11003211008270152180321000000000000000   10300001 00104100000000003926000000000000     
100   62911028202031710000000000084350000000084350002000000010410403211655460213054052100321000744530318   1030000200030000   541188001038000008000000010KBZ BANK               MARKETPLACE - MMR11003211655460213050321000000000000000   10300001 00104100000000005061000000000000     
100   62911028202105070000000000101581000000101581002000000010410403211949410298764052100321000744536675   1030000200030000   541188001025000008000000298KBZ BANK               CITY MART - M MMR11003211949410298760321000000000000000   10300001 00104100000000006095000000000000     
100   95030380891034700000000000007000000000007000002000000010410403210348161816144052100321000006842098   1030000200030000   333800010001203104000003327KBZPay                 Yangon        MMR11003210348161816140321000000000000000   10300001F05104100000000001470000000000000     
100   62911028202531350000000000012100000000012100002000000010410403211010120152194052100321000744504366   1030000200030000   541188001005000008000000008KBZ BANK               MARKETPLACE - MMR11003211010120152190321000000000000000   10300001 00104100000000000726000000000000     
100   95050315110306410000000000001960000000001960002000000010410403211357122712996558980321000006846451   1020000200030000   333400010001204104000000281Myanmar Soft-Gate Tech Yangon        MMR11003211357122712990321000000000000000   10300001F05104100000000000412000000000000     
100   62911028202802520000000000029500000000029500002000000010410403200446480012164052100320207911001216   1030000500030000   531120155804000045311201558GAMONE PWINT           PTN           MMR11003200446480012160320000000000000000   10300001 00104100000000001770000000000000     
100   62911028202533900000000000030000000000030000002000000010410403200727100018494052100320207913001849   1030000500030000   598320002103000015172200021MAX ENERGY             PTN           MMR11003200727100018490320000000000000000   10300001 00104100000000000900000000000000     
100   95030320108927800000000000050270000000050270002000000010410403211231065981874052100321290011906079   1030000900030000   581219000734190110000000566The Bash Yangon        YANGON        MMR11003211231065981870321000000000000000   10300001F00104100000000005128000000000000     
100   95050319928585020000000000000980000000000980002000000010410403210735040504980475430321000006844024   1020000200030000   333400010001204104000000281Myanmar Soft-Gate Tech Yangon        MMR11003210735040504980321000000000000000   10300001F05104100000000000206000000000000     
100   62443100306416880000000000027750000000027750002000000010410403201108110211880187960320207917021188   1030000500030000   598320001602000015172200016MAX ENERGY             PTN           MMR11003201108110211880320000000000000000   10300001 00104100000000003330000000000000     
100   95050320684106730000000000002000000000002000002000000010410403210923275327746042350321000006844964   1030000200030000   3338000100012031040000040022C2P (Myanmar) Co. Ltd Yangon        MMR11003210923275327740321000000000000000   10300001F05104100000000000420000000000000     
100   95050314126593570000000000001700000000001700002000000010410403211139085969155708020321360091808079   1030000900030000   541119001083190110000000872Sein Gay Har Hledan    YANGONUT      MMR11003211139085969150321000000000000000   10300001F00104100000000000425000000000000     
100   95050311736839760000000000000980000000000980002000000010410403210238490849000680450321000006841474   1020000200030000   333400010001204104000000281Myanmar Soft-Gate Tech Yangon        MMR11003210238490849000321000000000000000   10300001F05104100000000000206000000000000     
100   62443100302523870000000000035000000000035000002000000010410403181052530455368315840318207710045536   1030000600030000   554100000969315799420000481DENKO NORTH OKKALAPA   YANGON        MMR11003181052530455360318000000000000000   10300001 00104100000000004200000000000000     
100   62443101006037900000000000130500000000130500002000000010410403201214030028629671550320000336058329   1030000300030000   806200000192000000000000097CB BANK                AUNG YADANA H MMR11003201214030028620320000000000000000   10300001F00104100000000031320000000000000     
100   62911028202291190000000000024200000000024200002000000010410403200439232772864052100320207911277286   1040001600030000   591220000283000000010000271Shwe Ohh Pharmacy ( Ky Yangon        MMR11003200439232772860320000000000000000   10300001F00104100000000001452000000000000     
100   95050325139996190000000000150000000000150000002000000010410403210726205620514290980321000006843804   1030000300030000   333300010001206104000002147DICA Company Limited   Yangon        MMR11003210726205620510321000000000000000   10300001F05104100000000010000000000000000     
100   95050319902033540000000000049100000000049100002000000010410403210542535869607601660321794121253079   1030000900030000   541119000148190110000000083SeinGayHarParami Cente YANGON        MMR11003210542535869600321000000000000000   10300001F00104100000000012275000000000000     
100   95050315150726490000000000014150000000014150002000000010410403210928105935442567190321148581510079   1030000900030000   541119000116190110000000078Sein Gay Har Kan Thar  YANGONOKKALAP MMR11003210928105935440321000000000000000   10300001F00104100000000003538000000000000     
100   62443101007477200000000000024600000000024600002000000010410403211141055173147275400321332091815079   1030000300030000   555510124692104519000020166Makro Myanmar                        MMR11003211141055173140321000000000000000   10300001 00104100000000005904000000000000     
100   62443100371309900000000000122929000000122929002000000010410403211315035189687530690321395431904079   1030000300030000   555510125332104519000021173One Stop Mart Shopping all0003       MMR11003211315035189680321000000000000000   10300001 00104100000000029503000000000000     
100   62443100303702210000000000010200000000010200002000000010410403210944575939633934780321405141657079   1030000900030000   541119001290190110000000965City Mart SPL City Car YANGONMYOTHIT MMR11003210944575939630321000000000000000   10300001F00104100000000002550000000000000     
100   95050315955808830000000000024000000000024000002000000010410403210953205160591736070321484531632079   1030000500030000   888810109467104519000008486Max Energy CoLtd 3                   MMR11003210953205160590321000000000000000   10300001 00104100000000002880000000000000     
100   95050313970192050000000000014850000000014850002000000010410403211157315178457105210321957331858079   1030000500030000   555610112651104519000010846City Express MCS 34                  MMR11003211157315178450321000000000000000   10300001 00104100000000003713000000000000     
100   62911028202440680000000000006150000000006150002000000010410403211215185181134052100321276431812079   1030000500030000   555610120970104519000017733City Express MCS 14                  MMR11003211215185181130321000000000000000   10300001 00104100000000000369000000000000     
100   62911028202595380000000000048513000000048513002000000010410403210825225910014052100321233551422079   1030000900030000   541119001280190110000000963City Mart SPL C 5      YANGONMYOTHIT MMR11003210825225910010321000000000000000   10300001F00104100000000002911000000000000     
100   62443100303702210000000000024550000000024550002000000010410403210948295940582877970321471181629079   1030000900030000   541119001278190110000000963City Mart SPL C 3      YANGONMYOTHIT MMR11003210948295940580321000000000000000   10300001F00104100000000006138000000000000     
100   62911028202520120000000000030000000000030000002000000010410403211028155161434052100321606571602079   1030000300030000   888810125458104519000021285Shwe Taung Energy CoLt               MMR11003211028155161430321000000000000000   10300001 00104100000000000900000000000000     
100   95050327243132200000000000011550000000011550002000000010410403211200185177082062660321814291806079   1030000300030000   555610124395104519000020497Capital Express ShwePy Thar          MMR11003211200185177080321000000000000000   10300001 00104100000000002888000000000000     
100   95050314570621780000000000002940000000002940002000000010410403211326345634639183180321000006846302   1020000200030000   333400010001204104000000281Myanmar Soft-Gate Tech Yangon        MMR11003211326345634630321000000000000000   10300001F05104100000000000617000000000000     
100   62443101007477200000000000024164000000024164002000000010410403211218015182268927890321408471855079   1030000500030000   555610118960104519000016137City Mart South Okkala WZYD BR       MMR11003211218015182260321000000000000000   10300001 00104100000000006041000000000000     
100   95050319928585020000000000002940000000002940002000000010410403210727005700990986010321000006843945   1020000200030000   333400010001204104000000281Myanmar Soft-Gate Tech Yangon        MMR11003210727005700990321000000000000000   10300001F05104100000000000617000000000000     
100   95050318601641810000000000003600000000003600002000000010410403211109545170505636710321960501755079   1030000500030000   555610112657104519000010852City Express MCS 58                  MMR11003211109545170500321000000000000000   10300001 00104100000000000900000000000000     
100   95050316818236190000000000000980000000000980002000000010410403211126365636423558740321000006845695   1020000200030000   333400010001204104000000281Myanmar Soft-Gate Tech Yangon        MMR11003211126365636420321000000000000000   10300001F05104100000000000206000000000000     
100   95050328212196190000000000055626000000055626002000000010410403210625405879731276950321398551240079   1030000900030000   541119001284190110000000963City Mart SPL C 9      YANGONMYOTHIT MMR11003210625405879730321000000000000000   10300001F00104100000000013907000000000000     
100   62911028202668140000000000059368000000059368002000000010410403210956505942924052100321615261650079   1030000900030000   541119001282190110000000963City Mart SPL C 7      YANGONMYOTHIT MMR11003210956505942920321000000000000000   10300001F00104100000000003562000000000000     
100   95050314749068520000000000006100000000006100002000000010410403210942365153607580140321528101635079   1030000500030000   555610103970104519000003818Ocean Oattara Thiri Na PyiTaw        MMR11003210942365153600321000000000000000   10300001 00104100000000001525000000000000     
100   62911028202133940000000000018450000000018450002000000010410403211152595175134052100321595221800079   1030000500030000   555610110595104519000009166City Mart 47 Branch                  MMR11003211152595175130321000000000000000   10300001 00104100000000001107000000000000     
100   95050314570621780000000000003920000000003920002000000010410403211127355735751906260321000006845697   1020000200030000   333400010001204104000000281Myanmar Soft-Gate Tech Yangon        MMR11003211127355735750321000000000000000   10300001F05104100000000000823000000000000     
100   62911028202446700000000000185000000000185000002000000010410403210828415841434052100321000006844515   1030000200030000   333800010001203104000003327KBZPay                 Yangon        MMR11003210828415841430321000000000000000   10300001F05104100000000038850000000000000     
100   62911028202204490000000000008200000000008200002000000010410403210333215841614052100321274031021079   1030000900030000   581219000715190110000000546Akkhaya Tea House(Dago YANGON        MMR11003210333215841610321000000000000000   10300001F00104100000000000836000000000000     
100   95050310456843760000000000011300000000011300002000000010410403211056265958772161550321641261726079   1030000900030000   541119000124190110000000080Sein Gay Har BAK       YANGONADA     MMR11003211056265958770321000000000000000   10300001F00104100000000002825000000000000     
100   62911028202446700000000000300000000000300000002000000010410403210823045304364052100321000006844464   1030000200030000   333800010001203104000003327KBZPay                 Yangon        MMR11003210823045304360321000000000000000   10300001F05104100000000063000000000000000     
100   95030337113021520000000000011168000000011168002000000010410403210609535876124052100321184391253079   1030000900030000   541119001244190110000000955City Mart JS C 3       YANGONUT      MMR11003210609535876120321000000000000000   10300001F00104100000000000670000000000000     
100   62911028202151340000000000001900000000001900002000000010410403210941255157094052100321009311620079   1030000500030000   555610110582104519000009164City Mart China Town P int Cen       MMR11003210941255157090321000000000000000   10300001 00104100000000000114000000000000     
100   95030323701097670000000000031600000000031600002000000010410403211004515945104052100321758341651079   1030000900030000   569119001394190110000000998Classic Export Clothes YANGON        MMR11003211004515945100321000000000000000   10300001F00104100000000001896000000000000     
100   95050328919375610000000000017000000000017000002000000010410403200816000000903627470320207914000090   1030000500030000   569120109701008205691201097ESCORT (PYAY)          PTN           MMR11003200816000000900320000000000000000   10300001 00104100000000004080000000000000     
100   62911028202471600000000000005050000000005050002000000010410403200604080007044052100320207912000704   1030000500030000   591220014301014405912200143SHWE OHH PHARMACY      PTN           MMR11003200604080007040320000000000000000   10300001 00104100000000000303000000000000     
100   95030390626214130000000000051141000000051141002000000010410403201020530155024052100320207916015502   1030000500030000   598320002002000015172200020MAX ENERGY             PTN           MMR11003201020530155020320000000000000000   10300001 00104100000000001534000000000000     
100   95050325925517520000000000015800000000015800002000000010410403200337280006844989010320207910000684   1030000500030000   566120038101016505661200381RIPPLE FLIPFLOPS       PTN           MMR11003200337280006840320000000000000000   10300001 00104100000000003792000000000000     
100   62911028202108460000000000045000000000045000002000000010410403200412130158474052100320207910015847   1030000500030000   598320001102000015172200011MAX ENERGY             PTN           MMR11003200412130158470320000000000000000   10300001 00104100000000001350000000000000     
100   95050325455962190000000000000980000000000980002000000010410403210844051405764013820321000006844634   1020000200030000   333400010001204104000000281Myanmar Soft-Gate Tech Yangon        MMR11003210844051405760321000000000000000   10300001F05104100000000000206000000000000     
100   62911028202418410000000000020650000000020650002000000010410403210632423444924052100321208013344492   1040001600030000   591220000258000000010000246Shwe Ohh Pharmacy (Sin Yangon        MMR11003210632423444920321000000000000000   10300001F00104100000000001239000000000000     
100   95050319928585020000000000000980000000000980002000000010410403211215254525380495280321000006845936   1020000200030000   333400010001204104000000281Myanmar Soft-Gate Tech Yangon        MMR11003211215254525380321000000000000000   10300001F05104100000000000206000000000000     
100   62911028202523350000000000098550000000098550002000000010410403211217255978184052100321006471825079   1030000900030000   541119001462190110000000077Sein Gay Har Chinatown YANGON        MMR11003211217255978180321000000000000000   10300001F00104100000000005913000000000000     
100   62911028202163630000000000140050000000140050002000000010410403200609440015424052100320207912001542   1030000500030000   591220013501014405912200135SHWE OHH PHARMACY      PTN           MMR11003200609440015420320000000000000000   10300001 00104100000000008403000000000000     
100   95050312695033440000000000000980000000000980002000000010410403211148511851080750560321000006845790   1020000200030000   333400010001204104000000281Myanmar Soft-Gate Tech Yangon        MMR11003211148511851080321000000000000000   10300001F05104100000000000206000000000000     
100   95050314020354280000000000013100000000013100002000000010410403210930165936039177120321184001616079   1030000900030000   541119000116190110000000078Sein Gay Har Kan Thar  YANGONOKKALAP MMR11003210930165936030321000000000000000   10300001F00104100000000003275000000000000     
100   95030305700676370000000000100000000000100000002000000010410403210323333350404052100321208010335040   1040001600030000   598320000316000000010000304PT Power Petrol Statio Yangon        MMR11003210323333350400321000000000000000   10300001F00104100000000003000000000000000     
100   95050317578818060000000000020000000000020000002000000010410403180927310687869287550318207709068786   1030000600030000   554100000955315799420000477DENKO INSEIN           YANGON        MMR11003180927310687860318000000000000000   10300001 00104100000000002400000000000000     
100   95050316818236190000000000000980000000000980002000000010410403211413444344714906500321000006846552   1020000200030000   333400010001204104000000281Myanmar Soft-Gate Tech Yangon        MMR11003211413444344710321000000000000000   10300001F05104100000000000206000000000000     
100   95050324154190880000000000005658000000005658002000000010410403210528363408456871450321208012340845   1040001600030000   541120000561000000010000465Ocean Shwe Gone Daing  Yangon        MMR11003210528363408450321000000000000000   10300001F00104100000000001415000000000000     
100   95050322295410690000000000050000000000050000002000000010410403210521085865085559350321559511108079   1030000900030000   554119001103190110000000215New Day Energy MYG     YANGONONE     MMR11003210521085865080321000000000000000   10300001F00104100000000006000000000000000     
100   95050319701366650000000000019500000000019500002000000010410403211134385968218686390321301041838079   1030000900030000   541119001074190110000000872Sein Gay Har Hledan    YANGONUT      MMR11003211134385968210321000000000000000   10300001F00104100000000004875000000000000     
100   95050317486512680000000000100000000000100000002000000010410403211607383738131686630321000006846991   1030000200030000   333800010001203104000003327KBZPay                 Yangon        MMR11003211607383738130321000000000000000   10300001F05104100000000021000000000000000     
100   62443100390038980000000000150000000000150000002000000010410403210852005146855155730321629241530079   1030000300030000   555510124687104519000020166Makro Myanmar                        MMR11003210852005146850321000000000000000   10300001 00104100000000036000000000000000     
100   62911028202170490000000000035000000000035000002000000010410403200454460154684052100320207911015468   1030000500030000   598320002002000015172200020MAX ENERGY             PTN           MMR11003200454460154680320000000000000000   10300001 00104100000000001050000000000000     
100   95030302100062270000000000017850000000017850002000000010410403201250050021764052100320207919002176   1030000500030000   581220021001000015812200210SHWE LAR HOT POT       PTN           MMR11003201250050021760320000000000000000   10300001 00104100000000001821000000000000     
100   62911028202133520000000000005892000000005892002000000010410403211147535970624052100321452171853079   1030000900030000   541119001191190110000000942City Mart HDC C 6      YANGONUT      MMR11003211147535970620321000000000000000   10300001F00104100000000000354000000000000     
100   62911028202684060000000000016300000000016300002000000010410403210412205849994052100321729421020079   1030000900030000   591219000601190110000000441Shwe Ohh Pharmacy St-3 YANGON        MMR11003210412205849990321000000000000000   10300001F00104100000000000978000000000000     
100   62443101006037900000000000010000000000010000002000000010410403201315210007045856010320207919000704   1030000500030000   581220159201000015812201592GOLDEN DUCK (SAYAR SAN PTN           MMR11003201315210007040320000000000000000   10300001 00104100000000004250000000000000     
100   62911028202243670000000000020700000000020700002000000010410403210440095856064052100321060101109079   1030000900030000   541119001261190110000000958City Mart PLST C 4     YANGONMYOTHIT MMR11003210440095856060321000000000000000   10300001F00104100000000001242000000000000     
100   95050317100052460000000000004900000000004900002000000010410403210908143814313077770321000006844851   1020000200030000   333400010001204104000000281Myanmar Soft-Gate Tech Yangon        MMR11003210908143814310321000000000000000   10300001F05104100000000001029000000000000     
100   95050319161596230000000000000980000000000980002000000010410403210811084108260063740321000006844382   1020000200030000   333400010001204104000000281Myanmar Soft-Gate Tech Yangon        MMR11003210811084108260321000000000000000   10300001F05104100000000000206000000000000     
100   95030301100102610000000000010000000000010000002000000010410403210703273327284052100321000006843743   1030000200030000   333800010001203104000003327KBZPay                 Yangon        MMR11003210703273327280321000000000000000   10300001F05104100000000002100000000000000     
100   95050323133124350000000000020000000000020000002000000010410403211427415741513254010321000006846615   1030000200030000   333800010001203104000003327KBZPay                 Yangon        MMR11003211427415741510321000000000000000   10300001F05104100000000004200000000000000     
100   62911028202077010000000000000980000000000980002000000010410403210429385938054052100321000006842479   1020000200030000   333400010001204104000000281Myanmar Soft-Gate Tech Yangon        MMR11003210429385938050321000000000000000   10300001F05104100000000000206000000000000     
100   62911028202193670000000001144857000001144857002000000010410403210328115811674052100321000006841873   1010000100030000   333500010001212104000002840Internal Revenue Depar Yangon        MMR11003210328115811670321000000000000000   10300001F05104100000000060000000000000000     
100   62911028202154800000000000028000000000028000002000000010410403210549555871194052100321884191255079   1030000900030000   541119001264190110000000958City Mart PLST C 7     YANGONMYOTHIT MMR11003210549555871190321000000000000000   10300001F00104100000000001680000000000000     
100   62911028202631420000000000007300000000007300002000000010410403210941435153754052100321547111631079   1030000500030000   555610110572104519000009164City Mart China Town P int Cen       MMR11003210941435153750321000000000000000   10300001 00104100000000000438000000000000     
100   35710830972709940000000000008800000000008800002000000010410403200830130011416501410320207915001141   1030000100030000   581250000001777031200000005MOB BANK               YGN           MMR11003200830130011410320000000000000000   10300003 00104100000000000000000000002992     
100   9503051893411278000000000007080000000007080000200000001041040320081539001252CEW9DS0320207914001252   1030000100030000   541160000001777031200000006MOB BANK               YGN           MMR11003200815390012520320000000000000000   10300002 00104100000000000000000000014160     
100   35710830033572570000000000008250000000008250002000000010410403201200560011427765710320207918001142   1030000100030000   581250000001777031200000005MOB BANK               YGN           MMR11003201200560011420320000000000000000   10300003 00104100000000000000000000002805     
100   9503051893840740000000000001540000000001540000200000001041040320075251000383NFFA830320207914000383   1030000100030000   581210001201777031200000012MOB BANK               YGN           MMR11003200752510003830320000000000000000   10300002 00104100000000000000000000005236     
100   35710830400882950000000000007700000000007700002000000010410403200637310011365825220320207913001136   1030000100030000   581250000001777031200000005MOB BANK               YGN           MMR11003200637310011360320000000000000000   10300003 00104100000000000000000000002618     
100   9503051021071499000000000003960000000003960000200000001041040320123025000384Y5KDMY0320207919000384   1030000100030000   581210001201777031200000012MOB BANK               YGN           MMR11003201230250003840320000000000000000   10300002 00104100000000000000000000013464     
100   62346600195937100000000000003850000000003850002000000010410403200711580011386383880320207913001138   1030000100030000   581250000001777031200000005MOB BANK               YGN           MMR11003200711580011380320000000000000000   10300005 00104100000000000000000000001309     
100   35710500142928980000000000247700000000247700002000000010410403201315590003857749400320207919000385   1030000100030000   581210001201777031200000012MOB BANK               YGN           MMR11003201315590003850320000000000000000   10300005 00104100000000000000000000084218     
100   95031900064016750000000000116600000000116600002000000010410403201329350003864FK2IY0320207919000386   1030000100030000   581210001201777031200000012MOB BANK               YGN           MMR11003201329350003860320000000000000000   10300014 00104100000000000000000000039644     
100   9503051885461414000000000000990000000000990000200000001041040320071851001139FCLFNL0320207913001139   1030000100030000   581250000001777031200000005MOB BANK               YGN           MMR11003200718510011390320000000000000000   10300002 00104100000000000000000000003366     
100   62441900002473480000000000019250000000019250002000000010410403200810070011401841460320207914001140   1030000100030000   581250000001777031200000005MOB BANK               YGN           MMR11003200810070011400320000000000000000   10300003 00104100000000000000000000011454     
100   62346600152353730000000000008000000000008000002000000010410403191002390011329243320319207816001132   1030000100030000   581250000001777031200000005MOB BANK               YGN           MMR11003191002390011320319000000000000000   10300005 00104100000000000000000000002720     
100   9503190005839636000000000000770000000000770000200000001041040319100852001133BP7ZKN0319207816001133   1030000100030000   581250000001777031200000005MOB BANK               YGN           MMR11003191008520011330319000000000000000   10300014 00104100000000000000000000002618     
100   35710830376367910000000000011000000000011000002000000010410403191118490011348873110319207817001134   1030000100030000   581250000001777031200000005MOB BANK               YGN           MMR11003191118490011340319000000000000000   10300003 00104100000000000000000000003740     
100   62346600198971030000000000071300000000071300002000000010410403191150210011358304670319207818001135   1030000100030000   581250000001777031200000005MOB BANK               YGN           MMR11003191150210011350319000000000000000   10300005 00104100000000000000000000024242     
100   9503051025744919000000000001745000000001745000200000001041040321103703000142MCVKYD0321208017000142   1030000100030000   541120003102777031200000031MOB BANK               YGN           MMR11003211037030001420321000000000000000   10300002 00104100000000000000000000003490     
100   9503051025481512000000000000940000000000940000200000001041040321111734000144TFK6YH0321208017000144   1030000100030000   541120003102777031200000031MOB BANK               YGN           MMR11003211117340001440321000000000000000   10300002 00104100000000000000000000001880     
100   9503051885862884000000000000770000000000770000200000001041040321055107001144OVPVCP0321208012001144   1030000100030000   581250000001777031200000005MOB BANK               YGN           MMR11003210551070011440321000000000000000   10300002 00104100000000000000000000002618     
100   35710500335171500000000000029000000000029000002000000010410403211139380001141077520321208018000114   1030000100030000   541120003106777031200000031MOB BANK               YGN           MMR11003211139380001140321000000000000000   10300005 00104100000000000000000000005800     
100   95030510248117680000000000034000000000034000002000000010410403210536520003831XI0DT0321208012000383   1030000100030000   541120003117777031200000031MOB BANK               YGN           MMR11003210536520003830321000000000000000   10300002 00104100000000000000000000006800     
100   35710830909870650000000000010000000000010000002000000010410403210613300011454321210321208012001145   1030000100030000   581250000001777031200000005MOB BANK               YGN           MMR11003210613300011450321000000000000000   10300003 00104100000000000000000000003400     
100   95031010360081740000000000008400000000008400002000000010410403210621230011468946330321208012001146   1030000100030000   581250000001777031200000005MOB BANK               YGN           MMR11003210621230011460321000000000000000   10300005 00104100000000000000000000002856     
100   9503190000493561000000000002375000000002375000200000001041040321030232000376TGM81H0321208009000376   1030000100030000   541120003117777031200000031MOB BANK               YGN           MMR11003210302320003760321000000000000000   10300014 00104100000000000000000000004750     
100   35710830596896600000000000009900000000009900002000000010410403210825190011475112110321208014001147   1030000100030000   581250000001777031200000005MOB BANK               YGN           MMR11003210825190011470321000000000000000   10300003 00104100000000000000000000003366     
100   35710500302992240000000000010230000000010230002000000010410403211019300011488124050321208016001148   1030000100030000   581250000001777031200000005MOB BANK               YGN           MMR11003211019300011480321000000000000000   10300005 00104100000000000000000000003478     
100   9503051025744919000000000000295000000000295000200000001041040321104229000066EFTHZK0321208017000066   1030000100030000   541120003104777031200000031MOB BANK               YGN           MMR11003211042290000660321000000000000000   10300002 00104100000000000000000000000590     
100   95031800503187500000000000040050000000040050002000000010410403210648430001307862660321208013000130   1030000100030000   541120003102777031200000031MOB BANK               YGN           MMR11003210648430001300321000000000000000   10300013 00104100000000000000000000008010     
100   95031010900178550000000000009600000000009600002000000010410403211046470000688947990321208017000068   1030000100030000   541120003104777031200000031MOB BANK               YGN           MMR11003211046470000680321000000000000000   10300005 00104100000000000000000000001920     
100   35710500313646390000000000017700000000017700002000000010410403210956150000909051580321208016000090   1030000100030000   541120003001777031200000030MOB BANK               YGN           MMR11003210956150000900321000000000000000   10300005 00104100000000000000000000003540     
100   35710500371873800000000000009200000000009200002000000010410403210553090001334373870321208012000133   1030000100030000   541120003114777031200000031MOB BANK               YGN           MMR11003210553090001330321000000000000000   10300005 00104100000000000000000000001840     
100   35710500184565490000000000064100000000064100002000000010410403210641580003875494760321208013000387   1030000100030000   541120003117777031200000031MOB BANK               YGN           MMR11003210641580003870321000000000000000   10300005 00104100000000000000000000012820     
100   35710500313646390000000000002550000000002550002000000010410403211003400000913547900321208016000091   1030000100030000   541120003001777031200000030MOB BANK               YGN           MMR11003211003400000910321000000000000000   10300005 00104100000000000000000000000510     
100   35710500343196300000000000020000000000020000002000000010410403210635100001336205470321208013000133   1030000100030000   541120003105777031200000031MOB BANK               YGN           MMR11003210635100001330321000000000000000   10300005 00104100000000000000000000004000     
100   35710830326974260000000000017000000000017000002000000010410403210850160001355261800321208015000135   1030000100030000   541120003114777031200000031MOB BANK               YGN           MMR11003210850160001350321000000000000000   10300003 00104100000000000000000000003400     
100   62622000857952310000000000015500000000015500002000000010410403210950340002256098620321208016000225   1030000100030000   541120003103777031200000031MOB BANK               YGN           MMR11003210950340002250321000000000000000   10300006 00104100000000000000000000003100     
100   35710500313646390000000000013150000000013150002000000010410403211040230000936068870321208017000093   1030000100030000   541120003001777031200000030MOB BANK               YGN           MMR11003211040230000930321000000000000000   10300005 00104100000000000000000000002630     
100   35710900031505660000000000035000000000035000002000000010410403210957400002275666210321208016000227   1030000100030000   541120003103777031200000031MOB BANK               YGN           MMR11003210957400002270321000000000000000   10300003 00104100000000000000000000007000     
100   35710830124043890000000000004410000000004410002000000010410403211119090000706155010321208017000070   1030000100030000   541120003104777031200000031MOB BANK               YGN           MMR11003211119090000700321000000000000000   10300003 00104100000000000000000000000882     
100   9503051025247830000000000002600000000002600000200000001041040321082009000391NTO4EU0321208014000391   1030000100030000   541120003117777031200000031MOB BANK               YGN           MMR11003210820090003910321000000000000000   10300002 00104100000000000000000000005200     
100   35710830050330620000000000658200000000658200002000000010410403210305020012573190310321208009001257   1030000100030000   541160000001777031200000006MOB BANK               YGN           MMR11003210305020012570321000000000000000   10300003 00104100000000000000000000131640     
100   35710500363828340000000000036000000000036000002000000010410403211058480000954075620321208017000095   1030000100030000   541120003001777031200000030MOB BANK               YGN           MMR11003211058480000950321000000000000000   10300005 00104100000000000000000000007200     
100   35710830673876870000000000023550000000023550002000000010410403210312270000623234810321208009000062   1030000100030000   541120003104777031200000031MOB BANK               YGN           MMR11003210312270000620321000000000000000   10300003 00104100000000000000000000004710     
100   35710500114472140000000000008300000000008300002000000010410403211004500000646512480321208016000064   1030000100030000   541120003104777031200000031MOB BANK               YGN           MMR11003211004500000640321000000000000000   10300005 00104100000000000000000000001660     
100   35710500383912880000000000007700000000007700002000000010410403200659160011372348700320207913001137   1030000100030000   581250000001777031200000005MOB BANK               YGN           MMR11003200659160011370320000000000000000   10300005 00104100000000000000000000002618     
100   35710830280644410000000000012700000000012700002000000010410403210949250001375616700321208016000137   1030000100030000   541120003102777031200000031MOB BANK               YGN           MMR11003210949250001370321000000000000000   10300003 00104100000000000000000000002540     
