100   35710500380005740000000000052750000000052750002000000010410403221022070000776325200322208116000077   1030000100030000   541120003104777031200000031MOB BANK               YGN           MMR11003221022070000770322000000000000000   10300005 00104100000000000000000000010550     
100   9503051886993647000000000003150000000003150000200000001041040323093412000402J9GPMX0323208216000402   1030000100030000   541110001907777031200000019MOB BANK               YGN           MMR11003230934120004020323000000000000000   10300002 00104100000000000000000000006300     
100   9503051887317044000000000013140000000013140000200000001041040323094131000404VDTAOK0323208216000404   1030000100030000   541110001907777031200000019MOB BANK               YGN           MMR11003230941310004040323000000000000000   10300002 00104100000000000000000000026280     
100   9503051872895897000000000003880000000003880000200000001041040323042902000122LGCOMI0323208210000122   1030000100030000   541120003111777031200000031MOB BANK               YGN           MMR11003230429020001220323000000000000000   10300002 00104100000000000000000000007760     
100   9503051020505422000000000002760000000002760000200000001041040323045756000123TXTJNS0323208211000123   1030000100030000   541120003111777031200000031MOB BANK               YGN           MMR11003230457560001230323000000000000000   10300002 00104100000000000000000000005520     
100   95030510218721930000000000039900000000039900002000000010410403230746110001239KCZAG0323208214000123   1030000100030000   541120003106777031200000031MOB BANK               YGN           MMR11003230746110001230323000000000000000   10300002 00104100000000000000000000007980     
100   95030518949576260000000000034700000000034700002000000010410403230524230001243ZGP3Q0323208211000124   1030000100030000   541120003111777031200000031MOB BANK               YGN           MMR11003230524230001240323000000000000000   10300002 00104100000000000000000000006940     
100   9503051894957626000000000003270000000003270000200000001041040323053428000125PPYYBW0323208212000125   1030000100030000   541120003111777031200000031MOB BANK               YGN           MMR11003230534280001250323000000000000000   10300002 00104100000000000000000000006540     
100   9503051021872193000000000004990000000004990000200000001041040323081310000125XRBQW40323208214000125   1030000100030000   541120003106777031200000031MOB BANK               YGN           MMR11003230813100001250323000000000000000   10300002 00104100000000000000000000009980     
100   95031100014462440000000000035900000000035900002000000010410403230923170001267112120323208215000126   1030000100030000   541120003106777031200000031MOB BANK               YGN           MMR11003230923170001260323000000000000000   10300006 00104100000000000000000000007180     
100   35710500360351840000000000008000000000008000002000000010410403231021570001261037620323208216000126   1030000100030000   541120003111777031200000031MOB BANK               YGN           MMR11003231021570001260323000000000000000   10300005 00104100000000000000000000001600     
100   35710500371183510000000000004000000000004000002000000010410403230717540001455668250323208213000145   1030000100030000   541120003114777031200000031MOB BANK               YGN           MMR11003230717540001450323000000000000000   10300005 00104100000000000000000000000800     
100   35710500315721570000000000001029000000001029002000000010410403230952260004064498990323208216000406   1030000100030000   541110001907777031200000019MOB BANK               YGN           MMR11003230952260004060323000000000000000   10300005 00104100000000000000000000000206     
100   62622000968742070000000000004800000000004800002000000010410403231048270001496970430323208217000149   1030000100030000   541120003114777031200000031MOB BANK               YGN           MMR11003231048270001490323000000000000000   10300006 00104100000000000000000000000960     
100   35710500103224910000000000008258000000008258002000000010410403231031300004080447660323208217000408   1030000100030000   541110001907777031200000019MOB BANK               YGN           MMR11003231031300004080323000000000000000   10300005 00104100000000000000000000001652     
100   35710500304251830000000000163100000000163100002000000010410403230657490003978179770323208213000397   1030000100030000   541110001907777031200000019MOB BANK               YGN           MMR11003230657490003970323000000000000000   10300005 00104100000000000000000000032620     
100   9503051025121688000000000002400000000002400000200000001041040323105223000410ZJWYFU0323208217000410   1030000100030000   541110001907777031200000019MOB BANK               YGN           MMR11003231052230004100323000000000000000   10300002 00104100000000000000000000004800     
100   9503051897591331000000000039791000000039791000200000001041040323102136000046XT3T0K0323208216000046   1030000100030000   541120003112777031200000031MOB BANK               YGN           MMR11003231021360000460323000000000000000   10300002 00104100000000000000000000079582     
100   9503051887317044000000000002900000000002900000200000001041040323090724000399Z32XD70323208215000399   1030000100030000   541110001907777031200000019MOB BANK               YGN           MMR11003230907240003990323000000000000000   10300002 00104100000000000000000000005800     
100   35710500383331320000000000007742000000007742002000000010410403230512320005248943280323208211000524   1030000100030000   541110001905777031200000019MOB BANK               YGN           MMR11003230512320005240323000000000000000   10300005 00104100000000000000000000001548     
100   35710500303670700000000000019900000000019900002000000010410403231023270001276505650323208216000127   1030000100030000   541120003111777031200000031MOB BANK               YGN           MMR11003231023270001270323000000000000000   10300005 00104100000000000000000000003980     
100   9503051890774009000000000001200000000001200000200000001041040323102519000128HVBNZE0323208216000128   1030000100030000   541120003111777031200000031MOB BANK               YGN           MMR11003231025190001280323000000000000000   10300002 00104100000000000000000000002400     
100   950319000534808300000000000115000000000115000020000000104104032310255800012898O54S0323208216000128   1030000100030000   541120003106777031200000031MOB BANK               YGN           MMR11003231025580001280323000000000000000   10300014 00104100000000000000000000002300     
100   9503051025041118000000000001560000000001560000200000001041040323085654000526YI63NS0323208215000526   1030000100030000   541110001905777031200000019MOB BANK               YGN           MMR11003230856540005260323000000000000000   10300002 00104100000000000000000000003120     
100   35710830124043890000000000017500000000017500002000000010410403231040580001293205910323208217000129   1030000100030000   541120003111777031200000031MOB BANK               YGN           MMR11003231040580001290323000000000000000   10300003 00104100000000000000000000003500     
100   9503051873789933000000000000883000000000883000200000001041040323104643000130J8MBPP0323208217000130   1030000100030000   541120003111777031200000031MOB BANK               YGN           MMR11003231046430001300323000000000000000   10300002 00104100000000000000000000001766     
100   35710500360351840000000000020700000000020700002000000010410403231049520001314985300323208217000131   1030000100030000   541120003111777031200000031MOB BANK               YGN           MMR11003231049520001310323000000000000000   10300005 00104100000000000000000000004140     
100   9503054000553875000000000000675000000000675000200000001041040323064001000419LWTMJK0323208213000419   1030000100030000   541120003117777031200000031MOB BANK               YGN           MMR11003230640010004190323000000000000000   10300002 00104100000000000000000000001350     
100   35710950629682530000000000009350000000009350002000000010410403231041300011593209220323208217001159   1030000100030000   581250000001777031200000005MOB BANK               YGN           MMR11003231041300011590323000000000000000   10300003 00104100000000000000000000003179     
100   35710830512834210000000000024750000000024750002000000010410403230712370011531955820323208213001153   1030000100030000   581250000001777031200000005MOB BANK               YGN           MMR11003230712370011530323000000000000000   10300003 00104100000000000000000000008415     
100   9503051889044471000000000016920000000016920000200000001041040323071008001268OWHZNR0323208213001268   1030000100030000   541160000001777031200000006MOB BANK               YGN           MMR11003230710080012680323000000000000000   10300002 00104100000000000000000000033840     
100   35710830902890740000000000035750000000035750002000000010410403230802520011542257400323208214001154   1030000100030000   581250000001777031200000005MOB BANK               YGN           MMR11003230802520011540323000000000000000   10300003 00104100000000000000000000012155     
100   35710830902890740000000000010500000000010500002000000010410403230829280011552416930323208214001155   1030000100030000   581250000001777031200000005MOB BANK               YGN           MMR11003230829280011550323000000000000000   10300003 00104100000000000000000000003570     
100   9503051895340087000000000001155000000001155000200000001041040323083358001156I3ECJS0323208215001156   1030000100030000   581250000001777031200000005MOB BANK               YGN           MMR11003230833580011560323000000000000000   10300002 00104100000000000000000000003927     
100   35710500305378130000000000007150000000007150002000000010410403230925160011572442890323208215001157   1030000100030000   581250000001777031200000005MOB BANK               YGN           MMR11003230925160011570323000000000000000   10300005 00104100000000000000000000002431     
100   9503051024814341000000000002812800000002812800200000001041040322042259000402JE26G20322208110000402   1030000100030000   541120003117777031200000031MOB BANK               YGN           MMR11003220422590004020322000000000000000   10300002 00104100000000000000000000005626     
100   35710500165365650000000000010300000000010300002000000010410403220847380000756268630322208115000075   1030000100030000   541120003104777031200000031MOB BANK               YGN           MMR11003220847380000750322000000000000000   10300005 00104100000000000000000000002060     
100   9503051021432980000000000000290000000000290000200000001041040322075524000137WDCC2B0322208114000137   1030000100030000   541120003114777031200000031MOB BANK               YGN           MMR11003220755240001370322000000000000000   10300002 00104100000000000000000000000580     
100   95030510239255850000000000005750000000005750002000000010410403220950290001389R7OGD0322208116000138   1030000100030000   541120003114777031200000031MOB BANK               YGN           MMR11003220950290001380322000000000000000   10300002 00104100000000000000000000001150     
100   9503051025643665000000000002130000000002130000200000001041040322100234000139VPVQ8O0322208116000139   1030000100030000   541120003114777031200000031MOB BANK               YGN           MMR11003221002340001390322000000000000000   10300002 00104100000000000000000000004260     
100   95030510256436650000000000023500000000023500002000000010410403221016550004129W8FQY0322208116000412   1030000100030000   541120003117777031200000031MOB BANK               YGN           MMR11003221016550004120322000000000000000   10300002 00104100000000000000000000004700     
