100   95030800084126080000000000007150000000007150002000000010410410050928150000852609711005127815000085   1030000100030000   581450000001777031200000005MOB BANK               YGN           MMR11010050928150000851005000000000000000   10300003 00104100000000000000000000001072     
100   35710500374300530000000000028000000000028000002000000010410410050937300000217278361005127816000021   1030000100030000   541120000002777031200000002MOB BANK               YGN           MMR11010050937300000211005000000000000000   10300005 00104100000000000000000000005600     
100   35710830476103980000000000013750000000013750002000000010410410050936020000862656401005127816000086   1030000100030000   581450000001777031200000005MOB BANK               YGN           MMR11010050936020000861005000000000000000   10300003 00104100000000000000000000002062     
100   95030510255031820000000000003300000000003300002000000010410410050555030000838LMMJZ1005127812000083   1030000100030000   581450000001777031200000005MOB BANK               YGN           MMR11010050555030000831005000000000000000   10300002 00104100000000000000000000000495     
100   35710830224872750000000000050490000000050490002000000010410410050704400000841748201005127813000084   1030000100030000   581450000001777031200000005MOB BANK               YGN           MMR11010050704400000841005000000000000000   10300003 00104100000000000000000000007573     
100   35710500110179910000000000017710000000017710002000000010410410050954580000883355851005127816000088   1030000100030000   581450000001777031200000005MOB BANK               YGN           MMR11010050954580000881005000000000000000   10300005 00104100000000000000000000002656     
