100   35710950327469460000000000151500000000151500002000000010410403231346450003944320610323208220000394   1030000100030000   581210001201777031200000012MOB BANK               YGN           MMR11003231346450003940323000000000000000   10300003 00104100000000000000000000051510     
100   95030800094390140000000000381700000000381700002000000010410403231356120003954377310323208220000395   1030000100030000   581210001201777031200000012MOB BANK               YGN           MMR11003231356120003950323000000000000000   10300003 00104100000000000000000000129778     
100   35710500394449460000000000063000000000063000002000000010410403230834490000982802960323208215000098   1030000100030000   541120003001777031200000030MOB BANK               YGN           MMR11003230834490000980323000000000000000   10300005 00104100000000000000000000012600     
100   35710830376367910000000000103600000000103600002000000010410403231357290003964385100323208220000396   1030000100030000   581210001201777031200000012MOB BANK               YGN           MMR11003231357290003960323000000000000000   10300003 00104100000000000000000000035224     
100   95030510256448040000000000440600000000440600002000000010410403231407490003976RKIRB0323208220000397   1030000100030000   581210001201777031200000012MOB BANK               YGN           MMR11003231407490003970323000000000000000   10300002 00104100000000000000000000149804     
100   9503051896313877000000000007500000000007500000200000001041040323143707000398IJL16P0323208221000398   1030000100030000   581210001201777031200000012MOB BANK               YGN           MMR11003231437070003980323000000000000000   10300002 00104100000000000000000000025500     
100   35710500364904540000000000025000000000025000002000000010410403231247310003929855300323208219000392   1030000100030000   581210001201777031200000012MOB BANK               YGN           MMR11003231247310003920323000000000000000   10300005 00104100000000000000000000008500     
100   9503051024478790000000000007500000000007500000200000001041040323130235000393UKNFOA0323208219000393   1030000100030000   581210001201777031200000012MOB BANK               YGN           MMR11003231302350003930323000000000000000   10300002 00104100000000000000000000025500     
100   9503051889983884000000000003520000000003520000200000001041040324094311000539NSQIYP0324208316000539   1030000100030000   541110001905777031200000019MOB BANK               YGN           MMR11003240943110005390324000000000000000   10300002 00104100000000000000000000007040     
100   9503051023326917000000000011820000000011820000200000001041040324061502001272OKSHDM0324208312001272   1030000100030000   541160000001777031200000006MOB BANK               YGN           MMR11003240615020012720324000000000000000   10300002 00104100000000000000000000023640     
100   35710830741418530000000000070000000000070000002000000010410403240747030004190802510324208314000419   1030000100030000   541110001907777031200000019MOB BANK               YGN           MMR11003240747030004190324000000000000000   10300003 00104100000000000000000000014000     
100   9503051024355824000000000002190000000002190000200000001041040324105350000429PPGNQT0324208317000429   1030000100030000   541110001907777031200000019MOB BANK               YGN           MMR11003241053500004290324000000000000000   10300002 00104100000000000000000000004380     
100   95010121410903160000000000020000000000020000002000000010410403241136250004304758670324208318000430   1030000100030000   541110001907777031200000019MOB BANK               YGN           MMR11003241136250004300324000000000000000   10100001 00104100000000000000000000004000     
100   62346600145892340000000000013200000000013200002000000010410403241213480011650216820324208318001165   1030000100030000   581250000001777031200000005MOB BANK               YGN           MMR11003241213480011650324000000000000000   10300005 00104100000000000000000000004488     
100   9503051892547270000000000001500000000001500000200000001041040324081148000195VK4QMA0324208314000195   1030000100030000   541110001920777031200000019MOB BANK               YGN           MMR11003240811480001950324000000000000000   10300002 00104100000000000000000000003000     
100   9503051023329895000000000000268800000000268800200000001041040324031301000413BR67FP0324208309000413   1030000100030000   541110001907777031200000019MOB BANK               YGN           MMR11003240313010004130324000000000000000   10300002 00104100000000000000000000000538     
100   9503051023926823000000000015000000000015000000200000001041040324074847000195TSKMUX0324208314000195   1030000100030000   541120000017777031200000002MOB BANK               YGN           MMR11003240748470001950324000000000000000   10300002 00104100000000000000000000030000     
100   35710500354205100000000000020900000000020900002000000010410403240546580005357958730324208312000535   1030000100030000   541110001905777031200000019MOB BANK               YGN           MMR11003240546580005350324000000000000000   10300005 00104100000000000000000000004180     
100   62921400079516170000000000303050000000303050002000000010410403240938140004602222220324208316000460   1030000100030000   581210001501777031200000015MOB BANK               YGN           MMR11003240938140004600324000000000000000   10300009 00104100000000000000000000103037     
100   35710830929211610000000000034496000000034496002000000010410403240925380004231393910324208315000423   1030000100030000   541110001907777031200000019MOB BANK               YGN           MMR11003240925380004230324000000000000000   10300003 00104100000000000000000000006899     
100   95030510247287800000000000026000000000026000002000000010410403240349110004168BWIMY0324208310000416   1030000100030000   541110001907777031200000019MOB BANK               YGN           MMR11003240349110004160324000000000000000   10300002 00104100000000000000000000005200     
100   95030800082079660000000000060000000000060000002000000010410403240930430004251424510324208316000425   1030000100030000   541110001907777031200000019MOB BANK               YGN           MMR11003240930430004250324000000000000000   10300003 00104100000000000000000000012000     
100   9503051894439211000000000000385000000000385000200000001041040324092909001162PKG5EW0324208315001162   1030000100030000   581250000001777031200000005MOB BANK               YGN           MMR11003240929090011620324000000000000000   10300002 00104100000000000000000000001309     
100   35710950629682530000000000009900000000009900002000000010410403241007190011631644010324208316001163   1030000100030000   581250000001777031200000005MOB BANK               YGN           MMR11003241007190011630324000000000000000   10300003 00104100000000000000000000003366     
100   62346600152353730000000000011500000000011500002000000010410403241120160011640441290324208317001164   1030000100030000   581250000001777031200000005MOB BANK               YGN           MMR11003241120160011640324000000000000000   10300005 00104100000000000000000000003910     
100   35710500166046030000000000037248000000037248002000000010410403240550410001891568430324208312000189   1030000100030000   541110001920777031200000019MOB BANK               YGN           MMR11003240550410001890324000000000000000   10300005 00104100000000000000000000007450     
100   9503051896997091000000000002100000000002100000200000001041040324060000000190AAM4DC0324208312000190   1030000100030000   541110001920777031200000019MOB BANK               YGN           MMR11003240600000001900324000000000000000   10300002 00104100000000000000000000004200     
