100   35710830680031010000000000005310000000005310002000000010410403240517070002589902810324208311000258   1030000100030000   541120003103777031200000031MOB BANK               YGN           MMR11003240517070002580324000000000000000   10300003 00104100000000000000000000001062     
100   35710500123071510000000000036500000000036500002000000010410403240808250001388715790324208314000138   1030000100030000   541120003111777031200000031MOB BANK               YGN           MMR11003240808250001380324000000000000000   10300005 00104100000000000000000000007300     
100   62443000160080020000000000016500000000016500002000000010410403240448000001482218270324208311000148   1030000100030000   541120003105777031200000031MOB BANK               YGN           MMR11003240448000001480324000000000000000   10300005 00104100000000000000000000005775     
100   95030518840885800000000000005390000000005390002000000010410403240707280001664TD9HF0324208313000166   1030000100030000   541120003102777031200000031MOB BANK               YGN           MMR11003240707280001660324000000000000000   10300002 00104100000000000000000000001078     
100   35710500114959570000000000063300000000063300002000000010410403240712580004411813290324208313000441   1030000100030000   541120003117777031200000031MOB BANK               YGN           MMR11003240712580004410324000000000000000   10300005 00104100000000000000000000012660     
100   9503051873027706000000000003390000000003390000200000001041040324051927000132PLLLXH0324208311000132   1030000100030000   541120003106777031200000031MOB BANK               YGN           MMR11003240519270001320324000000000000000   10300002 00104100000000000000000000006780     
100   9503051873410332000000000001328000000001328000200000001041040324063615000134HL2FSZ0324208313000134   1030000100030000   541120003111777031200000031MOB BANK               YGN           MMR11003240636150001340324000000000000000   10300002 00104100000000000000000000002656     
100   9503051023885508000000000001740000000001740000200000001041040324070820000135LEM5VN0324208313000135   1030000100030000   541120003111777031200000031MOB BANK               YGN           MMR11003240708200001350324000000000000000   10300002 00104100000000000000000000003480     
100   9503051024041077000000000002850000000002850000200000001041040324044257000159OJRQPY0324208311000159   1030000100030000   541120003102777031200000031MOB BANK               YGN           MMR11003240442570001590324000000000000000   10300002 00104100000000000000000000005700     
100   35710500114959570000000000018000000000018000002000000010410403240630480001590466930324208313000159   1030000100030000   541120003105777031200000031MOB BANK               YGN           MMR11003240630480001590324000000000000000   10300005 00104100000000000000000000003600     
100   9503051888470610000000000002800000000002800000200000001041040324080621000137FCFJSI0324208314000137   1030000100030000   541120003111777031200000031MOB BANK               YGN           MMR11003240806210001370324000000000000000   10300002 00104100000000000000000000005600     
100   35710830587297230000000000025800000000025800002000000010410403240607310004330205210324208312000433   1030000100030000   541120003117777031200000031MOB BANK               YGN           MMR11003240607310004330324000000000000000   10300003 00104100000000000000000000005160     
100   9503051023309343000000000001130500000001130500200000001041040324064426000081A3CSAD0324208313000081   1030000100030000   541120003104777031200000031MOB BANK               YGN           MMR11003240644260000810324000000000000000   10300002 00104100000000000000000000002261     
100   95030518868334880000000000032683000000032683002000000010410403240619340004372YR7VN0324208312000437   1030000100030000   541120003117777031200000031MOB BANK               YGN           MMR11003240619340004370324000000000000000   10300002 00104100000000000000000000006537     
100   62622000548613940000000000007100000000007100002000000010410403240504540004257244360324208311000425   1030000100030000   541120003117777031200000031MOB BANK               YGN           MMR11003240504540004250324000000000000000   10300006 00104100000000000000000000001420     
100   62444501100127960000000000041300000000041300002000000010410403241307210004006708750324208319000400   1030000100030000   581210001201777031200000012MOB BANK               YGN           MMR11003241307210004000324000000000000000   10300002 00104100000000000000000000024573     
100   35710500334804250000000000017800000000017800002000000010410403251012030001423355010325208416000142   1030000100030000   541120003111777031200000031MOB BANK               YGN           MMR11003251012030001420325000000000000000   10300005 00104100000000000000000000003560     
100   95030510245821610000000000098000000000098000002000000010410403250921410004463U3MJJ0325208415000446   1030000100030000   541110001907777031200000019MOB BANK               YGN           MMR11003250921410004460325000000000000000   10300002 00104100000000000000000000019600     
100   62343301016627610000000000033900000000033900002000000010410403250345020002588827360325208410000258   1030000100030000   541110001915777031200000019MOB BANK               YGN           MMR11003250345020002580325000000000000000   10300004 00104100000000000000000000006780     
100   9503051025190626000000000000360000000000360000200000001041040325044737000260IWHFUA0325208411000260   1030000100030000   541110001915777031200000019MOB BANK               YGN           MMR11003250447370002600325000000000000000   10300002 00104100000000000000000000000720     
100   9503190003305440000000000000392000000000392000200000001041040325035036000543TRTS090325208410000543   1030000100030000   541110001905777031200000019MOB BANK               YGN           MMR11003250350360005430325000000000000000   10300014 00104100000000000000000000000784     
100   35710950616017560000000000028000000000028000002000000010410403250602330000988815410325208412000098   1030000100030000   541110001903777031200000019MOB BANK               YGN           MMR11003250602330000980325000000000000000   10300003 00104100000000000000000000005600     
100   62346600131981360000000000015360000000015360002000000010410403250933410004484320400325208416000448   1030000100030000   541110001907777031200000019MOB BANK               YGN           MMR11003250933410004480325000000000000000   10300005 00104100000000000000000000003072     
100   9503051025261856000000000003534000000003534000200000001041040325071014001276NAUNPP0325208413001276   1030000100030000   541160000001777031200000006MOB BANK               YGN           MMR11003250710140012760325000000000000000   10300002 00104100000000000000000000007068     
100   35710500365175040000000000041400000000041400002000000010410403250757030012786816600325208414001278   1030000100030000   541160000001777031200000006MOB BANK               YGN           MMR11003250757030012780325000000000000000   10300005 00104100000000000000000000008280     
100   9503051890541432000000000001500000000001500000200000001041040325092522000151N9S5RQ0325208415000151   1030000100030000   541120003106777031200000031MOB BANK               YGN           MMR11003250925220001510325000000000000000   10300002 00104100000000000000000000003000     
100   9503051021444936000000000000610000000000610000200000001041040325071211000262KQW7VO0325208413000262   1030000100030000   541110001915777031200000019MOB BANK               YGN           MMR11003250712110002620325000000000000000   10300002 00104100000000000000000000001220     
100   35710500391495290000000000013300000000013300002000000010410403250738530002646042660325208414000264   1030000100030000   541110001915777031200000019MOB BANK               YGN           MMR11003250738530002640325000000000000000   10300005 00104100000000000000000000002660     
100   35710830135194170000000000006000000000006000002000000010410403250818380002669631910325208414000266   1030000100030000   541110001915777031200000019MOB BANK               YGN           MMR11003250818380002660325000000000000000   10300003 00104100000000000000000000001200     
100   62346600144889320000000000007000000000007000002000000010410403250846100001651641040325208415000165   1030000100030000   541120003105777031200000031MOB BANK               YGN           MMR11003250846100001650325000000000000000   10300005 00104100000000000000000000001400     
100   9503051024746758000000000002620000000002620000200000001041040325042408000548KBDHGN0325208410000548   1030000100030000   541110001905777031200000019MOB BANK               YGN           MMR11003250424080005480325000000000000000   10300002 00104100000000000000000000005240     
100   9503051021796921000000000002700000000002700000200000001041040325084308000205MQMVZG0325208415000205   1030000100030000   541110001920777031200000019MOB BANK               YGN           MMR11003250843080002050325000000000000000   10300002 00104100000000000000000000005400     
100   9503051872733411000000000000790000000000790000200000001041040325111207000157RS4UG70325208417000157   1030000100030000   541120003114777031200000031MOB BANK               YGN           MMR11003251112070001570325000000000000000   10300002 00104100000000000000000000001580     
100   95030800019701720000000000007938000000007938002000000010410403251205390004520994010325208418000452   1030000100030000   541110001907777031200000019MOB BANK               YGN           MMR11003251205390004520325000000000000000   10300003 00104100000000000000000000001588     
100   35710830717984570000000000047800000000047800002000000010410403250509310004528497310325208411000452   1030000100030000   541120003117777031200000031MOB BANK               YGN           MMR11003250509310004520325000000000000000   10300003 00104100000000000000000000009560     
100   95030518915804700000000000008928000000008928002000000010410403251105170004558FXQD90325208417000455   1030000100030000   541120003117777031200000031MOB BANK               YGN           MMR11003251105170004550325000000000000000   10300002 00104100000000000000000000001786     
100   35710830051740150000000000005150000000005150002000000010410403250625480001438954920325208412000143   1030000100030000   541120003106777031200000031MOB BANK               YGN           MMR11003250625480001430325000000000000000   10300003 00104100000000000000000000001030     
100   9503051888022320000000000004840000000004840000200000001041040325105957000143RKUHRH0325208417000143   1030000100030000   541120003111777031200000031MOB BANK               YGN           MMR11003251059570001430325000000000000000   10300002 00104100000000000000000000009680     
100   62346600150325070000000000099750000000099750002000000010410403250908590012802519590325208415001280   1030000100030000   541160000001777031200000006MOB BANK               YGN           MMR11003250908590012800325000000000000000   10300005 00104100000000000000000000019950     
100   9503051024582161000000000007450000000007450000200000001041040325083305000268Y9TKUB0325208415000268   1030000100030000   541110001915777031200000019MOB BANK               YGN           MMR11003250833050002680325000000000000000   10300002 00104100000000000000000000014900     
100   9503051886227632000000000000600000000000600000200000001041040325090412000271YGFDLV0325208415000271   1030000100030000   541110001915777031200000019MOB BANK               YGN           MMR11003250904120002710325000000000000000   10300002 00104100000000000000000000001200     
100   9503051885891800000000000004380000000004380000200000001041040325065351000099JG4O6L0325208413000099   1030000100030000   541110001903777031200000019MOB BANK               YGN           MMR11003250653510000990325000000000000000   10300002 00104100000000000000000000008760     
100   9503051025601309000000000000645000000000645000200000001041040325071225000100XYB2WE0325208413000100   1030000100030000   541110001903777031200000019MOB BANK               YGN           MMR11003250712250001000325000000000000000   10300002 00104100000000000000000000001290     
100   35710830348484150000000000003840000000003840002000000010410403251206360001440999810325208418000144   1030000100030000   541120003111777031200000031MOB BANK               YGN           MMR11003251206360001440325000000000000000   10300003 00104100000000000000000000000768     
100   35710500395140030000000000010000000000010000002000000010410403250328500004352336370325208409000435   1030000100030000   541110001907777031200000019MOB BANK               YGN           MMR11003250328500004350325000000000000000   10300005 00104100000000000000000000002000     
100   35710830905215830000000000022400000000022400002000000010410403250725230004379312510325208413000437   1030000100030000   541110001907777031200000019MOB BANK               YGN           MMR11003250725230004370325000000000000000   10300003 00104100000000000000000000004480     
100   35710830425767760000000000014000000000014000002000000010410403250854110001729845210325208415000172   1030000100030000   541120003105777031200000031MOB BANK               YGN           MMR11003250854110001720325000000000000000   10300003 00104100000000000000000000002800     
100   62343302003762300000000000021000000000021000002000000010410403250427120001403945840325208410000140   1030000100030000   541120003111777031200000031MOB BANK               YGN           MMR11003250427120001400325000000000000000   10300004 00104100000000000000000000004200     
100   9503051883836500000000000003490000000003490000200000001041040325055859000141G8ADKT0325208412000141   1030000100030000   541120003106777031200000031MOB BANK               YGN           MMR11003250558590001410325000000000000000   10300002 00104100000000000000000000006980     
100   35710500135237310000000000015600000000015600002000000010410403250442530001416211800325208411000141   1030000100030000   541120003111777031200000031MOB BANK               YGN           MMR11003250442530001410325000000000000000   10300005 00104100000000000000000000003120     
100   62346600120908620000000000013600000000013600002000000010410403250731070004391716530325208414000439   1030000100030000   541110001907777031200000019MOB BANK               YGN           MMR11003250731070004390325000000000000000   10300005 00104100000000000000000000002720     
100   35710830911090650000000000060000000000060000002000000010410403250759000004419514110325208414000441   1030000100030000   541110001907777031200000019MOB BANK               YGN           MMR11003250759000004410325000000000000000   10300003 00104100000000000000000000012000     
100   9503051025147451000000000002270000000002270000200000001041040325082920000443JPT63H0325208414000443   1030000100030000   541110001907777031200000019MOB BANK               YGN           MMR11003250829200004430325000000000000000   10300002 00104100000000000000000000004540     
100   9503051025261856000000000003534000000003534000200000001041040325032535001274VWXU7D0325208409001274   1030000100030000   541160000001777031200000006MOB BANK               YGN           MMR11003250325350012740325000000000000000   10300002 00104100000000000000000000007068     
100   9503051025424140000000000004140000000004140000200000001041040325064656001275WCRLBY0325208413001275   1030000100030000   541160000001777031200000006MOB BANK               YGN           MMR11003250646560012750325000000000000000   10300002 00104100000000000000000000008280     
100   62622000548613940000000000011900000000011900002000000010410403240514370001637193420324208311000163   1030000100030000   541120003102777031200000031MOB BANK               YGN           MMR11003240514370001630324000000000000000   10300006 00104100000000000000000000002380     
100   35710500341308470000000000018900000000018900002000000010410403240542040001337739090324208312000133   1030000100030000   541120003106777031200000031MOB BANK               YGN           MMR11003240542040001330324000000000000000   10300005 00104100000000000000000000003780     
100   35710500102037090000000000040000000000040000002000000010410403241013100004466084030324208316000446   1030000100030000   541120003117777031200000031MOB BANK               YGN           MMR11003241013100004460324000000000000000   10300005 00104100000000000000000000008000     
100   9503051890436187000000000001850000000001850000200000001041040324060624000154SCXS8A0324208312000154   1030000100030000   541120003105777031200000031MOB BANK               YGN           MMR11003240606240001540324000000000000000   10300002 00104100000000000000000000003700     
