100   95030518727334110000000000010520000000010520002000000010410403250920090000878KSJEM0325208415000087   1030000100030000   541120003104777031200000031MOB BANK               YGN           MMR11003250920090000870325000000000000000   10300002 00104100000000000000000000002104     
100   9503051872733411000000000002151000000002151000200000001041040325090502000085BP8DXM0325208415000085   1030000100030000   541120003104777031200000031MOB BANK               YGN           MMR11003250905020000850325000000000000000   10300002 00104100000000000000000000004302     
100   9503051872733411000000000001677000000001677000200000001041040325091613000086BR0BLA0325208415000086   1030000100030000   541120003104777031200000031MOB BANK               YGN           MMR11003250916130000860325000000000000000   10300002 00104100000000000000000000003354     
100   35710830827351340000000000008200000000008200002000000010410403260955510004708855300326208516000470   1030000100030000   541110001907777031200000019MOB BANK               YGN           MMR11003260955510004700326000000000000000   10300003 00104100000000000000000000001640     
100   9503051024854560000000000000500000000000500000200000001041040326044712000461GGEBDH0326208511000461   1030000100030000   541110001907777031200000019MOB BANK               YGN           MMR11003260447120004610326000000000000000   10300002 00104100000000000000000000001000     
100   9503190000020265000000000002670000000002670000200000001041040326103241000481N8C8PT0326208517000481   1030000100030000   541110001907777031200000019MOB BANK               YGN           MMR11003261032410004810326000000000000000   10300014 00104100000000000000000000005340     
100   35710830527725960000000000021000000000021000002000000010410403261049070004839174810326208517000483   1030000100030000   541110001907777031200000019MOB BANK               YGN           MMR11003261049070004830326000000000000000   10300003 00104100000000000000000000004200     
100   62622000797159220000000000004500000000004500002000000010410403260418520004608115760326208510000460   1030000100030000   541120003117777031200000031MOB BANK               YGN           MMR11003260418520004600326000000000000000   10300006 00104100000000000000000000000900     
100   35710500304341510000000000018720000000018720002000000010410403260831420001097440350326208515000109   1030000100030000   541110001903777031200000019MOB BANK               YGN           MMR11003260831420001090326000000000000000   10300005 00104100000000000000000000003744     
100   9503051024190965000000000003681000000003681000200000001041040326055819000056AKEIAL0326208512000056   1030000100030000   541120003006777031200000030MOB BANK               YGN           MMR11003260558190000560326000000000000000   10300002 00104100000000000000000000007362     
100   35710500303497060000000000038000000000038000002000000010410403260402450001032427970326208510000103   1030000100030000   541110001903777031200000019MOB BANK               YGN           MMR11003260402450001030326000000000000000   10300005 00104100000000000000000000007600     
100   9503051024962033000000000000370000000000370000200000001041040326084423000162W9HKK70326208515000162   1030000100030000   541120003114777031200000031MOB BANK               YGN           MMR11003260844230001620326000000000000000   10300002 00104100000000000000000000000740     
100   35710500110264480000000000006250000000006250002000000010410403260558170002764185050326208512000276   1030000100030000   541110001915777031200000019MOB BANK               YGN           MMR11003260558170002760326000000000000000   10300005 00104100000000000000000000001250     
100   35710500125593710000000000103200000000103200002000000010410403261111150005802302350326208517000580   1030000100030000   541110001905777031200000019MOB BANK               YGN           MMR11003261111150005800326000000000000000   10300005 00104100000000000000000000020640     
100   35710830539820460000000000037620000000037620002000000010410403261005280001118913000326208516000111   1030000100030000   541110001903777031200000019MOB BANK               YGN           MMR11003261005280001110326000000000000000   10300003 00104100000000000000000000007524     
100   35710830541545610000000000017000000000017000002000000010410403260637330002787665410326208513000278   1030000100030000   541110001915777031200000019MOB BANK               YGN           MMR11003260637330002780326000000000000000   10300003 00104100000000000000000000003400     
100   62443000803067460000000000018500000000018500002000000010410403261050480004853914370326208517000485   1030000100030000   541110001907777031200000019MOB BANK               YGN           MMR11003261050480004850326000000000000000   10300005 00104100000000000000000000006475     
100   35710500395556670000000000016000000000016000002000000010410403260912340001109266380326208515000110   1030000100030000   541110001903777031200000019MOB BANK               YGN           MMR11003260912340001100326000000000000000   10300005 00104100000000000000000000003200     
100   35710500111397460000000000055350000000055350002000000010410403260822080002836915990326208514000283   1030000100030000   541110001915777031200000019MOB BANK               YGN           MMR11003260822080002830326000000000000000   10300005 00104100000000000000000000011070     
100   35710500344511440000000000015750000000015750002000000010410403260932440002883940970326208516000288   1030000100030000   541110001915777031200000019MOB BANK               YGN           MMR11003260932440002880326000000000000000   10300005 00104100000000000000000000003150     
100   35710500345678810000000000022900000000022900002000000010410403260737330002812013690326208514000281   1030000100030000   541110001915777031200000019MOB BANK               YGN           MMR11003260737330002810326000000000000000   10300005 00104100000000000000000000004580     
100   9503051024428506000000000012295000000012295000200000001041040326112402000291HHUS8O0326208517000291   1030000100030000   541110001915777031200000019MOB BANK               YGN           MMR11003261124020002910326000000000000000   10300002 00104100000000000000000000024590     
100   62921400031824640000000000016268000000016268002000000010410403261111020004872222220326208517000487   1030000100030000   541110001907777031200000019MOB BANK               YGN           MMR11003261111020004870326000000000000000   10300009 00104100000000000000000000003254     
100   9503051889964306000000000000556800000000556800200000001041040326115551000489R4XMNX0326208518000489   1030000100030000   541110001907777031200000019MOB BANK               YGN           MMR11003261155510004890326000000000000000   10300002 00104100000000000000000000001114     
100   35710950345200670000000000020531000000020531002000000010410403260636120005597657310326208513000559   1030000100030000   541110001905777031200000019MOB BANK               YGN           MMR11003260636120005590326000000000000000   10300003 00104100000000000000000000004106     
100   35710500303399050000000000009996000000009996002000000010410403260416410001619471460326208510000161   1030000100030000   541120003114777031200000031MOB BANK               YGN           MMR11003260416410001610326000000000000000   10300005 00104100000000000000000000001999     
100   9503051872522426000000000001314000000001314000200000001041040326051405000214ZNQU3B0326208511000214   1030000100030000   541110001920777031200000019MOB BANK               YGN           MMR11003260514050002140326000000000000000   10300002 00104100000000000000000000002628     
100   62921400070658140000000000017900000000017900002000000010410403261011110004742222220326208516000474   1030000100030000   541110001907777031200000019MOB BANK               YGN           MMR11003261011110004740326000000000000000   10300009 00104100000000000000000000003580     
100   9503051023926823000000000010000000000010000000200000001041040326102914000197PMCMYV0326208516000197   1030000100030000   541120000017777031200000002MOB BANK               YGN           MMR11003261029140001970326000000000000000   10300002 00104100000000000000000000020000     
100   35710830460302750000000000004018000000004018002000000010410403260845580004648436000326208515000464   1030000100030000   541110001907777031200000019MOB BANK               YGN           MMR11003260845580004640326000000000000000   10300003 00104100000000000000000000000804     
100   35710500110264480000000000011000000000011000002000000010410403260608350001088843100326208512000108   1030000100030000   541110001903777031200000019MOB BANK               YGN           MMR11003260608350001080326000000000000000   10300005 00104100000000000000000000002200     
100   35710830361440450000000000015350000000015350002000000010410403260425490004576875100326208510000457   1030000100030000   541110001907777031200000019MOB BANK               YGN           MMR11003260425490004570326000000000000000   10300003 00104100000000000000000000003070     
100   9503051024428506000000000013359200000013359200200000001041040326121131000491HRHCZQ0326208518000491   1030000100030000   541110001907777031200000019MOB BANK               YGN           MMR11003261211310004910326000000000000000   10300002 00104100000000000000000000026718     
100   9503051024428654000000000001056000000001056000200000001041040326112932000112VQNUDR0326208517000112   1030000100030000   541110001903777031200000019MOB BANK               YGN           MMR11003261129320001120326000000000000000   10300002 00104100000000000000000000002112     
100   62346600161197740000000000018400000000018400002000000010410403260759320002224525210326208514000222   1030000100030000   541110001920777031200000019MOB BANK               YGN           MMR11003260759320002220326000000000000000   10300005 00104100000000000000000000003680     
100   95030518879247990000000000007700000000007700002000000010410403260934550005750MENVY0326208516000575   1030000100030000   541110001905777031200000019MOB BANK               YGN           MMR11003260934550005750326000000000000000   10300002 00104100000000000000000000001540     
100   9503051020826943000000000009850000000009850000200000001041040326101615000476KJL6IZ0326208516000476   1030000100030000   541110001907777031200000019MOB BANK               YGN           MMR11003261016150004760326000000000000000   10300002 00104100000000000000000000019700     
100   35710830796268660000000000027720000000027720002000000010410403260431590001056912100326208511000105   1030000100030000   541110001903777031200000019MOB BANK               YGN           MMR11003260431590001050326000000000000000   10300003 00104100000000000000000000005544     
100   35710830976416650000000000018800000000018800002000000010410403260539540002177319610326208512000217   1030000100030000   541110001920777031200000019MOB BANK               YGN           MMR11003260539540002170326000000000000000   10300003 00104100000000000000000000003760     
100   9503051888813140000000000003052700000003052700200000001041040326090714000468VCRRKE0326208515000468   1030000100030000   541110001907777031200000019MOB BANK               YGN           MMR11003260907140004680326000000000000000   10300002 00104100000000000000000000006106     
100   35710500395556670000000000100650000000100650002000000010410403261057060005770650770326208517000577   1030000100030000   541110001905777031200000019MOB BANK               YGN           MMR11003261057060005770326000000000000000   10300005 00104100000000000000000000020130     
100   35710500116308430000000000052150000000052150002000000010410403260525380005579532330326208511000557   1030000100030000   541110001905777031200000019MOB BANK               YGN           MMR11003260525380005570326000000000000000   10300005 00104100000000000000000000010430     
100   95030510247503540000000000014310000000014310002000000010410403260839320002868H3XSU0326208515000286   1030000100030000   541110001915777031200000019MOB BANK               YGN           MMR11003260839320002860326000000000000000   10300002 00104100000000000000000000002862     
100   9503051873195545000000000001000000000001000000200000001041040326103102000479DBIQHR0326208517000479   1030000100030000   541110001907777031200000019MOB BANK               YGN           MMR11003261031020004790326000000000000000   10300002 00104100000000000000000000002000     
100   62343301011233500000000000048000000000048000002000000010410403260502250000539951940326208511000053   1030000100030000   541120003006777031200000030MOB BANK               YGN           MMR11003260502250000530326000000000000000   10300004 00104100000000000000000000009600     
100   62622000797159220000000000013500000000013500002000000010410403260326170000917086210326208509000091   1030000100030000   541120003104777031200000031MOB BANK               YGN           MMR11003260326170000910326000000000000000   10300006 00104100000000000000000000002700     
100   35710830049316540000000000195500000000195500002000000010410403260457200001067064210326208511000106   1030000100030000   541110001903777031200000019MOB BANK               YGN           MMR11003260457200001060326000000000000000   10300003 00104100000000000000000000039100     
100   35710830361440450000000000028350000000028350002000000010410403260409460002746778810326208510000274   1030000100030000   541110001915777031200000019MOB BANK               YGN           MMR11003260409460002740326000000000000000   10300003 00104100000000000000000000005670     
100   95030518964529150000000000009050000000009050002000000010410403260907420005720WFMKU0326208515000572   1030000100030000   541110001905777031200000019MOB BANK               YGN           MMR11003260907420005720326000000000000000   10300002 00104100000000000000000000001810     
100   35710500315339770000000000022000000000022000002000000010410403260448500011672578660326208511001167   1030000100030000   581250000001777031200000005MOB BANK               YGN           MMR11003260448500011670326000000000000000   10300005 00104100000000000000000000007480     
100   35710830974156150000000000085560000000085560002000000010410403260543030012887338510326208512001288   1030000100030000   541160000001777031200000006MOB BANK               YGN           MMR11003260543030012880326000000000000000   10300003 00104100000000000000000000017112     
100   35710500305341660000000000105077600000105077602000000010410403260612240012903597010326208512001290   1030000100030000   541160000001777031200000006MOB BANK               YGN           MMR11003260612240012900326000000000000000   10300005 00104100000000000000000000021016     
100   9503051020381782000000000003844000000003844000200000001041040326080817001292VWJT6S0326208514001292   1030000100030000   541160000001777031200000006MOB BANK               YGN           MMR11003260808170012920326000000000000000   10300002 00104100000000000000000000007688     
100   9503051024223832000000000016864000000016864000200000001041040326094406001294BHI0Y20326208516001294   1030000100030000   541160000001777031200000006MOB BANK               YGN           MMR11003260944060012940326000000000000000   10300002 00104100000000000000000000033728     
100   9503051021570607000000000000825000000000825000200000001041040326045042001168ENBEPR0326208511001168   1030000100030000   581250000001777031200000005MOB BANK               YGN           MMR11003260450420011680326000000000000000   10300002 00104100000000000000000000002805     
100   35710830650310970000000000012980000000012980002000000010410403260452390011697036110326208511001169   1030000100030000   581250000001777031200000005MOB BANK               YGN           MMR11003260452390011690326000000000000000   10300003 00104100000000000000000000004413     
100   9503051893821286000000000000880000000000880000200000001041040326051128001170FJYWQG0326208511001170   1030000100030000   581250000001777031200000005MOB BANK               YGN           MMR11003260511280011700326000000000000000   10300002 00104100000000000000000000002992     
100   95031100019604340000000000141980000000141980002000000010410403260948140012988117960326208516001298   1030000100030000   541160000001777031200000006MOB BANK               YGN           MMR11003260948140012980326000000000000000   10300006 00104100000000000000000000028396     
100   35710950629682530000000000010500000000010500002000000010410403260922420011738656310326208515001173   1030000100030000   581250000001777031200000005MOB BANK               YGN           MMR11003260922420011730326000000000000000   10300003 00104100000000000000000000003570     
100   35710500333868870000000000009900000000009900002000000010410403260925330011749911500326208515001174   1030000100030000   581250000001777031200000005MOB BANK               YGN           MMR11003260925330011740326000000000000000   10300005 00104100000000000000000000003366     
100   35710830907415040000000000005830000000005830002000000010410403260951450011758830700326208516001175   1030000100030000   581250000001777031200000005MOB BANK               YGN           MMR11003260951450011750326000000000000000   10300003 00104100000000000000000000001982     
100   35710830213909830000000000019690000000019690002000000010410403261030070011769060810326208517001176   1030000100030000   581250000001777031200000005MOB BANK               YGN           MMR11003261030070011760326000000000000000   10300003 00104100000000000000000000006695     
100   62346600189847040000000000007700000000007700002000000010410403261047170011786596550326208517001178   1030000100030000   581250000001777031200000005MOB BANK               YGN           MMR11003261047170011780326000000000000000   10300005 00104100000000000000000000002618     
100   35710830760420180000000000011330000000011330002000000010410403261203460011799622810326208518001179   1030000100030000   581250000001777031200000005MOB BANK               YGN           MMR11003261203460011790326000000000000000   10300003 00104100000000000000000000003852     
100   62346600170540200000000000003675000000003675002000000010410403260804200011724744850326208514001172   1030000100030000   581250000001777031200000005MOB BANK               YGN           MMR11003260804200011720326000000000000000   10300005 00104100000000000000000000001250     
