100   35710830331935320000000000021330000000021330002000000010410403270706230002406478500327208613000240   1030000100030000   541110001920777031200000019MOB BANK               YGN           MMR11003270706230002400327000000000000000   10300003 00104100000000000000000000004266     
100   9503051897694036000000000001060000000001060000200000001041040327081942000312BNIQRX0327208614000312   1030000100030000   541110001915777031200000019MOB BANK               YGN           MMR11003270819420003120327000000000000000   10300002 00104100000000000000000000002120     
100   35710500380000950000000000053900000000053900002000000010410403271159040004118941700327208618000411   1030000100030000   581210001201777031200000012MOB BANK               YGN           MMR11003271159040004110327000000000000000   10300005 00104100000000000000000000018326     
100   9503051024311850000000000002700000000002700000200000001041040327060558000152BYYILS0327208612000152   1030000100030000   541120003111777031200000031MOB BANK               YGN           MMR11003270605580001520327000000000000000   10300002 00104100000000000000000000005400     
100   9503051897694036000000000004032000000004032000200000001041040327091531000126XYGVSQ0327208615000126   1030000100030000   541110001903777031200000019MOB BANK               YGN           MMR11003270915310001260327000000000000000   10300002 00104100000000000000000000008064     
100   35710830745006110000000000001650000000001650002000000010410403270601040002366086610327208612000236   1030000100030000   541110001920777031200000019MOB BANK               YGN           MMR11003270601040002360327000000000000000   10300003 00104100000000000000000000000330     
100   35710500301213450000000000015030000000015030002000000010410403270558110002344371170327208612000234   1030000100030000   541110001920777031200000019MOB BANK               YGN           MMR11003270558110002340327000000000000000   10300005 00104100000000000000000000003006     
100   35710500121407500000000000077220000000077220002000000010410403270833510001244926010327208615000124   1030000100030000   541110001903777031200000019MOB BANK               YGN           MMR11003270833510001240327000000000000000   10300005 00104100000000000000000000015444     
100   35710830477990500000000000034920000000034920002000000010410403270630150001226261610327208613000122   1030000100030000   541110001903777031200000019MOB BANK               YGN           MMR11003270630150001220327000000000000000   10300003 00104100000000000000000000006984     
100   9503051875560126000000000002450000000002450000200000001041040327052041000298OQFGEZ0327208611000298   1030000100030000   541110001915777031200000019MOB BANK               YGN           MMR11003270520410002980327000000000000000   10300002 00104100000000000000000000004900     
100   9503190000015331000000000000190000000000190000200000001041040327072531000306CXNPH70327208613000306   1030000100030000   541110001915777031200000019MOB BANK               YGN           MMR11003270725310003060327000000000000000   10300014 00104100000000000000000000000380     
100   9503051885851861000000000002180000000002180000200000001041040327115115000512LUPFDA0327208618000512   1030000100030000   541110001907777031200000019MOB BANK               YGN           MMR11003271151150005120327000000000000000   10300002 00104100000000000000000000004360     
100   35650713690004520000000000005100000000005100002000000010410403271041020005039491510327208617000503   1030000100030000   541110001907777031200000019MOB BANK               YGN           MMR11003271041020005030327000000000000000   10300005 00104100000000000000000000001785     
100   35710500162349480000000000302720000000302720002000000010410403270323420013031580850327208609001303   1030000100030000   541160000001777031200000006MOB BANK               YGN           MMR11003270323420013030327000000000000000   10300005 00104100000000000000000000060544     
100   35710830158520890000000000010925000000010925002000000010410403270817300001546905110327208614000154   1030000100030000   541120003111777031200000031MOB BANK               YGN           MMR11003270817300001540327000000000000000   10300003 00104100000000000000000000002185     
100   9503051020047326000000000003850000000003850000200000001041040327114521000131QMJOOD0327208618000131   1030000100030000   541110001903777031200000019MOB BANK               YGN           MMR11003271145210001310327000000000000000   10300002 00104100000000000000000000007700     
100   9503051875560126000000000002052000000002052000200000001041040327044739000120QE2ZGX0327208611000120   1030000100030000   541110001903777031200000019MOB BANK               YGN           MMR11003270447390001200327000000000000000   10300002 00104100000000000000000000004104     
100   9503051891852812000000000001665000000001665000200000001041040327092031000316AINDLT0327208615000316   1030000100030000   541110001915777031200000019MOB BANK               YGN           MMR11003270920310003160327000000000000000   10300002 00104100000000000000000000003330     
100   9503051020892788000000000045370000000045370000200000001041040327050214000407DESFWV0327208611000407   1030000100030000   581210001201777031200000012MOB BANK               YGN           MMR11003270502140004070327000000000000000   10300002 00104100000000000000000000154258     
100   35710830016595060000000000011700000000011700002000000010410403270954010001617484220327208616000161   1030000100030000   541120003111777031200000031MOB BANK               YGN           MMR11003270954010001610327000000000000000   10300003 00104100000000000000000000002340     
100   9503051025133717000000000001660000000001660000200000001041040327121203000514EHHVUS0327208618000514   1030000100030000   541110001907777031200000019MOB BANK               YGN           MMR11003271212030005140327000000000000000   10300002 00104100000000000000000000003320     
100   9503051026156782000000000001827000000001827000200000001041040327035231000231DVCMPY0327208610000231   1030000100030000   541110001920777031200000019MOB BANK               YGN           MMR11003270352310002310327000000000000000   10300002 00104100000000000000000000003654     
100   35710500123883670000000000004500000000004500002000000010410403270801130002445713740327208614000244   1030000100030000   541110001920777031200000019MOB BANK               YGN           MMR11003270801130002440327000000000000000   10300005 00104100000000000000000000000900     
100   9503051026000782000000000001305000000001305000200000001041040327102522000318QHOIA00327208616000318   1030000100030000   541110001915777031200000019MOB BANK               YGN           MMR11003271025220003180327000000000000000   10300002 00104100000000000000000000002610     
100   95030518973076880000000000045880000000045880002000000010410403270637390013046XKVMR0327208613001304   1030000100030000   541160000001777031200000006MOB BANK               YGN           MMR11003270637390013040327000000000000000   10300002 00104100000000000000000000009176     
100   9503051886800081000000000000833000000000833000200000001041040327082150000155U8KIWB0327208614000155   1030000100030000   541120003111777031200000031MOB BANK               YGN           MMR11003270821500001550327000000000000000   10300002 00104100000000000000000000001666     
100   9503051024323053000000000006354000000006354000200000001041040327112245000129MAPTLK0327208617000129   1030000100030000   541110001903777031200000019MOB BANK               YGN           MMR11003271122450001290327000000000000000   10300002 00104100000000000000000000012708     
100   9503051887758197000000000004625600000004625600200000001041040327072654000497RHSYKF0327208613000497   1030000100030000   541110001907777031200000019MOB BANK               YGN           MMR11003270726540004970327000000000000000   10300002 00104100000000000000000000009251     
100   35710500395780240000000000061600000000061600002000000010410403261250550004053180200326208519000405   1030000100030000   581210001201777031200000012MOB BANK               YGN           MMR11003261250550004050326000000000000000   10300005 00104100000000000000000000020944     
100   35710900427397590000000000200800000000200800002000000010410403260836550004038381710326208515000403   1030000100030000   581210001201777031200000012MOB BANK               YGN           MMR11003260836550004030326000000000000000   10300003 00104100000000000000000000068272     
100   62346600111922710000000000026910000000026910002000000010410403260545240001579965890326208512000157   1030000100030000   541120003106777031200000031MOB BANK               YGN           MMR11003260545240001570326000000000000000   10300005 00104100000000000000000000005382     
100   35710830736000570000000000043200000000043200002000000010410403261019280001518997000326208516000151   1030000100030000   541120003111777031200000031MOB BANK               YGN           MMR11003261019280001510326000000000000000   10300003 00104100000000000000000000008640     
100   95030510226734180000000000013050000000013050002000000010410403260932260001488YPAHI0326208516000148   1030000100030000   541120003111777031200000031MOB BANK               YGN           MMR11003260932260001480326000000000000000   10300002 00104100000000000000000000002610     
100   35710830153941810000000000265000000000265000002000000010410403260331270000836548820326208510000083   1030000100030000   541120002101777031200000021MOB BANK               YGN           MMR11003260331270000830326000000000000000   10300003 00104100000000000000000000053000     
100   35710500365457520000000000003600000000003600002000000010410403261011540001496129330326208516000149   1030000100030000   541120003111777031200000031MOB BANK               YGN           MMR11003261011540001490326000000000000000   10300005 00104100000000000000000000000720     
100   35710830542802000000000000171600000000171600002000000010410403260845150004048431700326208515000404   1030000100030000   581210001201777031200000012MOB BANK               YGN           MMR11003260845150004040326000000000000000   10300003 00104100000000000000000000058344     
100   9503051024371441000000000004667000000004667000200000001041040326065714000147Q3NQAZ0326208513000147   1030000100030000   541120003111777031200000031MOB BANK               YGN           MMR11003260657140001470326000000000000000   10300002 00104100000000000000000000009334     
100   35710830158520890000000000021000000000021000002000000010410403270840030000957040510327208615000095   1030000100030000   541120003104777031200000031MOB BANK               YGN           MMR11003270840030000950327000000000000000   10300003 00104100000000000000000000004200     
100   35710830938304600000000000024750000000024750002000000010410403270932220001597354410327208616000159   1030000100030000   541120003111777031200000031MOB BANK               YGN           MMR11003270932220001590327000000000000000   10300003 00104100000000000000000000004950     
100   35710830836554480000000000013050000000013050002000000010410403271006430001627560420327208616000162   1030000100030000   541120003111777031200000031MOB BANK               YGN           MMR11003271006430001620327000000000000000   10300003 00104100000000000000000000002610     
100   35710830803572610000000000085710000000085710002000000010410403270945380001277434010327208616000127   1030000100030000   541110001903777031200000019MOB BANK               YGN           MMR11003270945380001270327000000000000000   10300003 00104100000000000000000000017142     
100   35710830331935320000000000044550000000044550002000000010410403270742510003106697220327208614000310   1030000100030000   541110001915777031200000019MOB BANK               YGN           MMR11003270742510003100327000000000000000   10300003 00104100000000000000000000008910     
100   35710830038617530000000000118200000000118200002000000010410403270513220004235800410327208611000423   1030000100030000   541120000011777031200000002MOB BANK               YGN           MMR11003270513220004230327000000000000000   10300003 00104100000000000000000000023640     
100   35710500136297440000000000004500000000004500002000000010410403270532530005943136090327208612000594   1030000100030000   541110001905777031200000019MOB BANK               YGN           MMR11003270532530005940327000000000000000   10300005 00104100000000000000000000000900     
100   35710500345384370000000000015400000000015400002000000010410403270633410011842257860327208613001184   1030000100030000   581250000001777031200000005MOB BANK               YGN           MMR11003270633410011840327000000000000000   10300005 00104100000000000000000000005236     
100   35710500362968690000000000028100000000028100002000000010410403270637370001648661950327208613000164   1030000100030000   541120003114777031200000031MOB BANK               YGN           MMR11003270637370001640327000000000000000   10300005 00104100000000000000000000005620     
100   35710830741696560000000000080850000000080850002000000010410403270935060004767370720327208616000476   1030000100030000   581210001501777031200000015MOB BANK               YGN           MMR11003270935060004760327000000000000000   10300003 00104100000000000000000000027489     
100   62343302001282840000000000006912000000006912002000000010410403270459040002946057510327208611000294   1030000100030000   541110001915777031200000019MOB BANK               YGN           MMR11003270459040002940327000000000000000   10300004 00104100000000000000000000001382     
100   35710500383743750000000000009945000000009945002000000010410403270716320002425206520327208613000242   1030000100030000   541110001920777031200000019MOB BANK               YGN           MMR11003270716320002420327000000000000000   10300005 00104100000000000000000000001989     
100   35710830558733830000000000051200000000051200002000000010410403270632130004086273510327208613000408   1030000100030000   581210001201777031200000012MOB BANK               YGN           MMR11003270632130004080327000000000000000   10300003 00104100000000000000000000017408     
100   9503051891645398000000000001220000000001220000200000001041040327055928000235FZGERX0327208612000235   1030000100030000   541110001920777031200000019MOB BANK               YGN           MMR11003270559280002350327000000000000000   10300002 00104100000000000000000000002440     
100   9503190000015331000000000000850000000000850000200000001041040327071536000302B05E0J0327208613000302   1030000100030000   541110001915777031200000019MOB BANK               YGN           MMR11003270715360003020327000000000000000   10300014 00104100000000000000000000001700     
100   9503051895574644000000000004734000000004734000200000001041040327083124000276JFSLDF0327208615000276   1030000100030000   541120003103777031200000031MOB BANK               YGN           MMR11003270831240002760327000000000000000   10300002 00104100000000000000000000009468     
100   9503051025083730000000000001106000000001106000200000001041040327104010000247WNHZ9R0327208617000247   1030000100030000   541110001920777031200000019MOB BANK               YGN           MMR11003271040100002470327000000000000000   10300002 00104100000000000000000000002212     
100   9503051025133717000000000004915000000004915000200000001041040327114616000322BX2F310327208618000322   1030000100030000   541110001915777031200000019MOB BANK               YGN           MMR11003271146160003220327000000000000000   10300002 00104100000000000000000000009830     
100   35710830198439850000000000140300000000140300002000000010410403270838060004097028800327208615000409   1030000100030000   581210001201777031200000012MOB BANK               YGN           MMR11003270838060004090327000000000000000   10300003 00104100000000000000000000047702     
100   35710500300399760000000000008500000000008500002000000010410403270634210005972342950327208613000597   1030000100030000   541110001905777031200000019MOB BANK               YGN           MMR11003270634210005970327000000000000000   10300005 00104100000000000000000000001700     
100   35710500102517570000000000017836000000017836002000000010410403270353220005832894900327208610000583   1030000100030000   541110001905777031200000019MOB BANK               YGN           MMR11003270353220005830327000000000000000   10300005 00104100000000000000000000003567     
100   35710500383824510000000000009900000000009900002000000010410403270938380011860792180327208616001186   1030000100030000   581250000001777031200000005MOB BANK               YGN           MMR11003270938380011860327000000000000000   10300005 00104100000000000000000000003366     
100   62346600152353730000000000010000000000010000002000000010410403271105160011871797190327208617001187   1030000100030000   581250000001777031200000005MOB BANK               YGN           MMR11003271105160011870327000000000000000   10300005 00104100000000000000000000003400     
100   35710500375402810000000000021510000000021510002000000010410403270905330001576271400327208615000157   1030000100030000   541120003111777031200000031MOB BANK               YGN           MMR11003270905330001570327000000000000000   10300005 00104100000000000000000000004302     
100   95030518955746440000000000012350000000012350002000000010410403270824580001659MASZX0327208614000165   1030000100030000   541120003114777031200000031MOB BANK               YGN           MMR11003270824580001650327000000000000000   10300002 00104100000000000000000000002470     
100   95030518832881400000000000052480000000052480002000000010410403270858000001259UL4YH0327208615000125   1030000100030000   541110001903777031200000019MOB BANK               YGN           MMR11003270858000001250327000000000000000   10300002 00104100000000000000000000010496     
100   9503051883710861000000000003699000000003699000200000001041040327051030000296DXNFNC0327208611000296   1030000100030000   541110001915777031200000019MOB BANK               YGN           MMR11003270510300002960327000000000000000   10300002 00104100000000000000000000007398     
100   9503051872417213000000000000380000000000380000200000001041040327073605000308VKKKT00327208614000308   1030000100030000   541110001915777031200000019MOB BANK               YGN           MMR11003270736050003080327000000000000000   10300002 00104100000000000000000000000760     
100   9503051025083730000000000000782400000000782400200000001041040327105553000505PQBX9K0327208617000505   1030000100030000   541110001907777031200000019MOB BANK               YGN           MMR11003271055530005050327000000000000000   10300002 00104100000000000000000000001565     
100   95030510234451390000000000046000000000046000002000000010410403271024240004266CNISW0327208616000426   1030000100030000   541120000011777031200000002MOB BANK               YGN           MMR11003271024240004260327000000000000000   10300002 00104100000000000000000000009200     
100   35710830719399520000000000018150000000018150002000000010410403271130000011888060120327208618001188   1030000100030000   581250000001777031200000005MOB BANK               YGN           MMR11003271130000011880327000000000000000   10300003 00104100000000000000000000006171     
100   9503190006132601000000000002950000000002950000200000001041040327085814000156VS1B9F0327208615000156   1030000100030000   541120003111777031200000031MOB BANK               YGN           MMR11003270858140001560327000000000000000   10300014 00104100000000000000000000005900     
100   62622000798392680000000000027500000000027500002000000010410403271143440001308605630327208618000130   1030000100030000   541110001903777031200000019MOB BANK               YGN           MMR11003271143440001300327000000000000000   10300006 00104100000000000000000000005500     
100   95030800035561020000000000006100000000006100002000000010410403270846370004997079910327208615000499   1030000100030000   541110001907777031200000019MOB BANK               YGN           MMR11003270846370004990327000000000000000   10300003 00104100000000000000000000001220     
100   95030800069620180000000000017700000000017700002000000010410403270952020001607472410327208616000160   1030000100030000   541120003111777031200000031MOB BANK               YGN           MMR11003270952020001600327000000000000000   10300003 00104100000000000000000000003540     
100   9503051025890712000000000001600000000001600000200000001041040327044521000119DDMYE70327208611000119   1030000100030000   541110001903777031200000019MOB BANK               YGN           MMR11003270445210001190327000000000000000   10300002 00104100000000000000000000003200     
100   95030800069620180000000000004770000000004770002000000010410403271016530002797621500327208616000279   1030000100030000   541120003103777031200000031MOB BANK               YGN           MMR11003271016530002790327000000000000000   10300003 00104100000000000000000000000954     
100   35710500332163160000000000006240000000006240002000000010410403270917120003140874680327208615000314   1030000100030000   541110001915777031200000019MOB BANK               YGN           MMR11003270917120003140327000000000000000   10300005 00104100000000000000000000001248     
100   35710500188566560000000000049000000000049000002000000010410403270332110001160518320327208610000116   1030000100030000   541110001903777031200000019MOB BANK               YGN           MMR11003270332110001160327000000000000000   10300005 00104100000000000000000000009800     
100   9503051872554403000000000003530000000003530000200000001041040327102826000320MW2VRJ0327208616000320   1030000100030000   541110001915777031200000019MOB BANK               YGN           MMR11003271028260003200327000000000000000   10300002 00104100000000000000000000007060     
100   62346600109530120000000000047775000000047775002000000010410403270425110005857114070327208610000585   1030000100030000   541110001905777031200000019MOB BANK               YGN           MMR11003270425110005850327000000000000000   10300005 00104100000000000000000000009555     
100   9503051875560126000000000002205000000002205000200000001041040327050137000587CNNTR20327208611000587   1030000100030000   541110001905777031200000019MOB BANK               YGN           MMR11003270501370005870327000000000000000   10300002 00104100000000000000000000004410     
100   35710500375402810000000000012600000000012600002000000010410403270921130001580484850327208615000158   1030000100030000   541120003111777031200000031MOB BANK               YGN           MMR11003270921130001580327000000000000000   10300005 00104100000000000000000000002520     
100   35710830674378700000000000007380000000007380002000000010410403270521090001635847100327208611000163   1030000100030000   541110001916777031200000019MOB BANK               YGN           MMR11003270521090001630327000000000000000   10300003 00104100000000000000000000001476     
100   35710500315630400000000000027500000000027500002000000010410403270552110001212413960327208612000121   1030000100030000   541110001903777031200000019MOB BANK               YGN           MMR11003270552110001210327000000000000000   10300005 00104100000000000000000000005500     
100   9503051024323053000000000002400000000002400000200000001041040327113824000250LA7SYQ0327208618000250   1030000100030000   541110001920777031200000019MOB BANK               YGN           MMR11003271138240002500327000000000000000   10300002 00104100000000000000000000004800     
100   95030518976940360000000000015582000000015582002000000010410403270944360005017XKSEW0327208616000501   1030000100030000   541110001907777031200000019MOB BANK               YGN           MMR11003270944360005010327000000000000000   10300002 00104100000000000000000000003116     
100   35710500102893850000000000018300000000018300002000000010410403270611560003000882530327208612000300   1030000100030000   541110001915777031200000019MOB BANK               YGN           MMR11003270611560003000327000000000000000   10300005 00104100000000000000000000003660     
