100   35710830387783940000000000043000000000043000002000000010410403280416450001044100610328208710000104   1030000100030000   541120003001777031200000030MOB BANK               YGN           MMR11003280416450001040328000000000000000   10300003 00104100000000000000000000008600     
100   35710830011811540000000000078000000000078000002000000010410403281144540005456789510328208718000545   1030000100030000   541110001907777031200000019MOB BANK               YGN           MMR11003281144540005450328000000000000000   10300003 00104100000000000000000000015600     
100   9503051025915543000000000000660000000000660000200000001041040328052930001191O26ZW50328208711001191   1030000100030000   581250000001777031200000005MOB BANK               YGN           MMR11003280529300011910328000000000000000   10300002 00104100000000000000000000002244     
100   9503051875124725000000000000805000000000805000200000001041040328055614001192YEKHW20328208712001192   1030000100030000   581250000001777031200000005MOB BANK               YGN           MMR11003280556140011920328000000000000000   10300002 00104100000000000000000000002737     
100   9503190006172052000000000008163000000008163000200000001041040328115001000172Y7Q0F70328208718000172   1030000100030000   541120003111777031200000031MOB BANK               YGN           MMR11003281150010001720328000000000000000   10300014 00104100000000000000000000016326     
100   35710500365275450000000000028600000000028600002000000010410403280621520011930125750328208712001193   1030000100030000   581250000001777031200000005MOB BANK               YGN           MMR11003280621520011930328000000000000000   10300005 00104100000000000000000000009724     
100   9503051020122087000000000001200000000001200000200000001041040328095249000101EXJQEI0328208716000101   1030000100030000   541120003104777031200000031MOB BANK               YGN           MMR11003280952490001010328000000000000000   10300002 00104100000000000000000000002400     
100   35710500192316930000000000006550000000006550002000000010410403280709090001685950310328208713000168   1030000100030000   541120003114777031200000031MOB BANK               YGN           MMR11003280709090001680328000000000000000   10300005 00104100000000000000000000001310     
100   35710500103694190000000000020800000000020800002000000010410403280926130005271674070328208715000527   1030000100030000   541110001907777031200000019MOB BANK               YGN           MMR11003280926130005270328000000000000000   10300005 00104100000000000000000000004160     
100   9503051025796786000000000007000000000007000000200000001041040328090430000086BX62WK0328208715000086   1030000100030000   541120000010777031200000002MOB BANK               YGN           MMR11003280904300000860328000000000000000   10300002 00104100000000000000000000014000     
100   9503051873031591000000000024154500000024154500200000001041040328052510001311H9V80K0328208711001311   1030000100030000   541160000001777031200000006MOB BANK               YGN           MMR11003280525100013110328000000000000000   10300002 00104100000000000000000000048309     
100   9503051884614369000000000037118000000037118000200000001041040328052629001313R4VNOB0328208711001313   1030000100030000   541160000001777031200000006MOB BANK               YGN           MMR11003280526290013130328000000000000000   10300002 00104100000000000000000000074236     
100   35710830642818420000000000101680000000101680002000000010410403281115490013166615010328208717001316   1030000100030000   541160000001777031200000006MOB BANK               YGN           MMR11003281115490013160328000000000000000   10300003 00104100000000000000000000020336     
100   35710500345832350000000000034751000000034751002000000010410403281121060013205889870328208717001320   1030000100030000   541160000001777031200000006MOB BANK               YGN           MMR11003281121060013200328000000000000000   10300005 00104100000000000000000000006950     
100   9503051884392305000000000002800000000002800000200000001041040328112923000543OYWUXX0328208717000543   1030000100030000   541110001907777031200000019MOB BANK               YGN           MMR11003281129230005430328000000000000000   10300002 00104100000000000000000000005600     
100   35710500303672940000000000017050000000017050002000000010410403280627210011948934400328208712001194   1030000100030000   581250000001777031200000005MOB BANK               YGN           MMR11003280627210011940328000000000000000   10300005 00104100000000000000000000005797     
100   35710830084410070000000000007700000000007700002000000010410403280832280011965635000328208715001196   1030000100030000   581250000001777031200000005MOB BANK               YGN           MMR11003280832280011960328000000000000000   10300003 00104100000000000000000000002618     
100   95032700000001190000000000001000000000001000002000000010410403280811160001058603380328208714000105   1030000100030000   701110000001777031200000001MOB BANK               YGN           MMR11003280811160001050328000000000000000   10300017 00104100000000000000000000000340     
100   9503051025277613000000000000931000000000931000200000001041040328090712000170ULKD1E0328208715000170   1030000100030000   541120003111777031200000031MOB BANK               YGN           MMR11003280907120001700328000000000000000   10300002 00104100000000000000000000001862     
100   95030510201220870000000000006000000000006000002000000010410403281124300001051V2FNF0328208717000105   1030000100030000   541120003104777031200000031MOB BANK               YGN           MMR11003281124300001050328000000000000000   10300002 00104100000000000000000000001200     
100   35710500304785470000000000034200000000034200002000000010410403281155310005507781720328208718000550   1030000100030000   541110001907777031200000019MOB BANK               YGN           MMR11003281155310005500328000000000000000   10300005 00104100000000000000000000006840     
100   9503051883670719000000000004410000000004410000200000001041040328120606000614UJLMHZ0328208718000614   1030000100030000   541110001905777031200000019MOB BANK               YGN           MMR11003281206060006140328000000000000000   10300002 00104100000000000000000000008820     
100   35710830685639630000000000011535000000011535002000000010410403280238370001763511900328208709000176   1030000100030000   541120003102777031200000031MOB BANK               YGN           MMR11003280238370001760328000000000000000   10300003 00104100000000000000000000002307     
100   35710500343379960000000000012100000000012100002000000010410403281208560011970186280328208718001197   1030000100030000   581250000001777031200000005MOB BANK               YGN           MMR11003281208560011970328000000000000000   10300005 00104100000000000000000000004114     
100   9503051020371668000000000003933000000003933000200000001041040328043738000098JKJVDL0328208711000098   1030000100030000   541120003104777031200000031MOB BANK               YGN           MMR11003280437380000980328000000000000000   10300002 00104100000000000000000000007866     
100   9503051884392305000000000002860000000002860000200000001041040328111927000541TRXXZG0328208717000541   1030000100030000   541110001907777031200000019MOB BANK               YGN           MMR11003281119270005410328000000000000000   10300002 00104100000000000000000000005720     
100   9503051024324770000000000002850000000002850000200000001041040328052948000167DTUQPX0328208711000167   1030000100030000   541120003114777031200000031MOB BANK               YGN           MMR11003280529480001670328000000000000000   10300002 00104100000000000000000000005700     
100   95030518849794650000000000021500000000021500002000000010410403280852260005250GN40B0328208715000525   1030000100030000   541110001907777031200000019MOB BANK               YGN           MMR11003280852260005250328000000000000000   10300002 00104100000000000000000000004300     
100   9503051887161095000000000001980000000001980000200000001041040328085506000609K4HBXE0328208715000609   1030000100030000   541110001905777031200000019MOB BANK               YGN           MMR11003280855060006090328000000000000000   10300002 00104100000000000000000000003960     
100   95032700000001190000000000003000000000003000002000000010410403280819100001070340960328208714000107   1030000100030000   701110000001777031200000001MOB BANK               YGN           MMR11003280819100001070328000000000000000   10300017 00104100000000000000000000001020     
100   35710500312839460000000000103325000000103325002000000010410403280934280001715766760328208716000171   1030000100030000   541120003111777031200000031MOB BANK               YGN           MMR11003280934280001710328000000000000000   10300005 00104100000000000000000000020665     
100   35710950372369350000000000022000000000022000002000000010410403281025100001036311120328208716000103   1030000100030000   541120003104777031200000031MOB BANK               YGN           MMR11003281025100001030328000000000000000   10300003 00104100000000000000000000004400     
100   9503051025694957000000000000855000000000855000200000001041040328032718000103Y6N5EL0328208709000103   1030000100030000   541120003001777031200000030MOB BANK               YGN           MMR11003280327180001030328000000000000000   10300002 00104100000000000000000000001710     
100   62346600179823520000000000016875000000016875002000000010410403280528140001685146230328208711000168   1030000100030000   541120003111777031200000031MOB BANK               YGN           MMR11003280528140001680328000000000000000   10300005 00104100000000000000000000003375     
100   9503051020393266000000000000259700000000259700200000001041040328101659000529TALVSV0328208716000529   1030000100030000   541110001907777031200000019MOB BANK               YGN           MMR11003281016590005290328000000000000000   10300002 00104100000000000000000000000520     
