100   95030800060246450000000000045100000000045100002000000010410403291400230004856242500329208820000485   1030000100030000   581210001501777031200000015MOB BANK               YGN           MMR11003291400230004850329000000000000000   10300003 00104100000000000000000000015334     
100   950305189318191300000000000685300000000685300020000000104104032915153400048681GGVD0329208821000486   1030000100030000   581210001501777031200000015MOB BANK               YGN           MMR11003291515340004860329000000000000000   10300002 00104100000000000000000000023300     
100   62346600102475710000000000012825000000012825002000000010410403290921380001799810360329208815000179   1030000100030000   541120003111777031200000031MOB BANK               YGN           MMR11003290921380001790329000000000000000   10300005 00104100000000000000000000002565     
100   9503051022133645000000000001200000000001200000200000001041040329085213000264BT5YSO0329208815000264   1030000100030000   541110001920777031200000019MOB BANK               YGN           MMR11003290852130002640329000000000000000   10300002 00104100000000000000000000002400     
100   35710830966784520000000000005000000000005000002000000010410403290526080001083157010329208811000108   1030000100030000   541120003001777031200000030MOB BANK               YGN           MMR11003290526080001080329000000000000000   10300003 00104100000000000000000000001000     
100   35710500305358820000000000016450000000016450002000000010410403290640060002583814720329208813000258   1030000100030000   541110001920777031200000019MOB BANK               YGN           MMR11003290640060002580329000000000000000   10300005 00104100000000000000000000003290     
100   35710500383827900000000000008730000000008730002000000010410403290642210002595444340329208813000259   1030000100030000   541110001920777031200000019MOB BANK               YGN           MMR11003290642210002590329000000000000000   10300005 00104100000000000000000000001746     
100   95031900001880390000000000007920000000007920002000000010410403290511230002559KF7NB0329208811000255   1030000100030000   541110001920777031200000019MOB BANK               YGN           MMR11003290511230002550329000000000000000   10300014 00104100000000000000000000001584     
100   35710500305358820000000000077750000000077750002000000010410403290654510005731958630329208813000573   1030000100030000   541110001907777031200000019MOB BANK               YGN           MMR11003290654510005730329000000000000000   10300005 00104100000000000000000000015550     
100   35710830484865820000000000003750000000003750002000000010410403290758230005784070410329208814000578   1030000100030000   541110001907777031200000019MOB BANK               YGN           MMR11003290758230005780329000000000000000   10300003 00104100000000000000000000000750     
100   9503051023927649000000000000058800000000058800200000001041040329032531000554B0SLSF0329208809000554   1030000100030000   541110001907777031200000019MOB BANK               YGN           MMR11003290325310005540329000000000000000   10300002 00104100000000000000000000000118     
100   9503051024854560000000000001100000000001100000200000001041040329053705000622G6SGLF0329208812000622   1030000100030000   541110001905777031200000019MOB BANK               YGN           MMR11003290537050006220329000000000000000   10300002 00104100000000000000000000002200     
100   9503051886816749000000000002100000000002100000200000001041040329075939000579TAXCHM0329208814000579   1030000100030000   541110001907777031200000019MOB BANK               YGN           MMR11003290759390005790329000000000000000   10300002 00104100000000000000000000004200     
100   9503051024469971000000000003200000000003200000200000001041040328070806000413AIDRRG0328208713000413   1030000100030000   581210001201777031200000012MOB BANK               YGN           MMR11003280708060004130328000000000000000   10300002 00104100000000000000000000010880     
100   9503051025215209000000000010340000000010340000200000001041040328123430000414YPO1XJ0328208719000414   1030000100030000   581210001201777031200000012MOB BANK               YGN           MMR11003281234300004140328000000000000000   10300002 00104100000000000000000000035156     
100   35710830476776370000000000381700000000381700002000000010410403281339230004157476410328208720000415   1030000100030000   581210001201777031200000012MOB BANK               YGN           MMR11003281339230004150328000000000000000   10300003 00104100000000000000000000129778     
100   9503051895949614000000000000328000000000328000200000001041040329061735000257ARXOQH0329208812000257   1030000100030000   541110001920777031200000019MOB BANK               YGN           MMR11003290617350002570329000000000000000   10300002 00104100000000000000000000000656     
100   95030518832065630000000000020400000000020400002000000010410403290717460001804M1UKW0329208813000180   1030000100030000   541120003102777031200000031MOB BANK               YGN           MMR11003290717460001800329000000000000000   10300002 00104100000000000000000000004080     
100   62921400014936240000000000009450000000009450002000000010410403290856180002652222220329208815000265   1030000100030000   541110001920777031200000019MOB BANK               YGN           MMR11003290856180002650329000000000000000   10300009 00104100000000000000000000001890     
100   9503051886757257000000000002340000000002340000200000001041040329062740000176PBZNKK0329208812000176   1030000100030000   541120003111777031200000031MOB BANK               YGN           MMR11003290627400001760329000000000000000   10300002 00104100000000000000000000004680     
100   9503190006146494000000000001770000000001770000200000001041040329065351000260SP43U90329208813000260   1030000100030000   541110001920777031200000019MOB BANK               YGN           MMR11003290653510002600329000000000000000   10300014 00104100000000000000000000003540     
100   9503051883648897000000000000330000000000330000200000001041040329040756000170VSUWMG0329208810000170   1030000100030000   541120003114777031200000031MOB BANK               YGN           MMR11003290407560001700329000000000000000   10300002 00104100000000000000000000000660     
100   9503051020827313000000000001040000000001040000200000001041040329060202000256DTUSZP0329208812000256   1030000100030000   541110001920777031200000019MOB BANK               YGN           MMR11003290602020002560329000000000000000   10300002 00104100000000000000000000002080     
100   35710500343826870000000000005400000000005400002000000010410403290857100005836965530329208815000583   1030000100030000   541110001907777031200000019MOB BANK               YGN           MMR11003290857100005830329000000000000000   10300005 00104100000000000000000000001080     
100   9503190006146494000000000001500000000001500000200000001041040329090230000266288TF10329208815000266   1030000100030000   541110001920777031200000019MOB BANK               YGN           MMR11003290902300002660329000000000000000   10300014 00104100000000000000000000003000     
100   9503051888226517000000000001100000000001100000200000001041040329062803000570DKBCDE0329208812000570   1030000100030000   541110001907777031200000019MOB BANK               YGN           MMR11003290628030005700329000000000000000   10300002 00104100000000000000000000002200     
100   62343302002556320000000000029400000000029400002000000010410403290529380006183937230329208811000618   1030000100030000   541110001905777031200000019MOB BANK               YGN           MMR11003290529380006180329000000000000000   10300004 00104100000000000000000000005880     
100   35710830068769800000000000041850000000041850002000000010410403290705360001773753720329208813000177   1030000100030000   541120003111777031200000031MOB BANK               YGN           MMR11003290705360001770329000000000000000   10300003 00104100000000000000000000008370     
100   9503051024315646000000000002200000000002200000200000001041040329045233000175QS4AII0329208811000175   1030000100030000   541120003111777031200000031MOB BANK               YGN           MMR11003290452330001750329000000000000000   10300002 00104100000000000000000000004400     
100   9503051025493574000000000019556000000019556000200000001041040329062328001323WTYEMG0329208812001323   1030000100030000   541160000001777031200000006MOB BANK               YGN           MMR11003290623280013230329000000000000000   10300002 00104100000000000000000000039112     
100   9503051020827313000000000000835000000000835000200000001041040329041829000560RTOUYO0329208810000560   1030000100030000   541110001907777031200000019MOB BANK               YGN           MMR11003290418290005600329000000000000000   10300002 00104100000000000000000000001670     
100   35710500314355870000000000010000000000010000002000000010410403291154440004840076710329208818000484   1030000100030000   581210001501777031200000015MOB BANK               YGN           MMR11003291154440004840329000000000000000   10300005 00104100000000000000000000003400     
100   62346600111876850000000000012950000000012950002000000010410403291153410001094608670329208818000109   1030000100030000   541120003001777031200000030MOB BANK               YGN           MMR11003291153410001090329000000000000000   10300005 00104100000000000000000000002590     
100   35710830097141390000000000012000000000012000002000000010410403290814320002614167310329208814000261   1030000100030000   541110001920777031200000019MOB BANK               YGN           MMR11003290814320002610329000000000000000   10300003 00104100000000000000000000002400     
100   9503051888860752000000000001035000000001035000200000001041040329083751000262ZMCNKL0329208815000262   1030000100030000   541110001920777031200000019MOB BANK               YGN           MMR11003290837510002620329000000000000000   10300002 00104100000000000000000000002070     
100   35710500173167280000000000550000000000550000002000000010410403290548340005647830390329208812000564   1030000100030000   541110001907777031200000019MOB BANK               YGN           MMR11003290548340005640329000000000000000   10300005 00104100000000000000000000110000     
100   9503051888551328000000000006300000000006300000200000001041040329110510000590UFHZVT0329208817000590   1030000100030000   541110001907777031200000019MOB BANK               YGN           MMR11003291105100005900329000000000000000   10300002 00104100000000000000000000012600     
100   35710830915869650000000000073160000000073160002000000010410403290717290013243825120329208813001324   1030000100030000   541160000001777031200000006MOB BANK               YGN           MMR11003290717290013240329000000000000000   10300003 00104100000000000000000000014632     
100   35710500152439320000000000192200000000192200002000000010410403290806100013266466380329208814001326   1030000100030000   541160000001777031200000006MOB BANK               YGN           MMR11003290806100013260329000000000000000   10300005 00104100000000000000000000038440     
100   35710500385369730000000000241800000000241800002000000010410403290807290013285955800329208814001328   1030000100030000   541160000001777031200000006MOB BANK               YGN           MMR11003290807290013280329000000000000000   10300005 00104100000000000000000000048360     
100   95031900058488760000000000027030000000027030002000000010410403290926580002687I6EIO0329208815000268   1030000100030000   541110001920777031200000019MOB BANK               YGN           MMR11003290926580002680329000000000000000   10300014 00104100000000000000000000005406     
100   35710500181516600000000000016300000000016300002000000010410403290408020005576048860329208810000557   1030000100030000   541110001907777031200000019MOB BANK               YGN           MMR11003290408020005570329000000000000000   10300005 00104100000000000000000000003260     
100   9503051894014451000000000002200000000002200000200000001041040329081619000178MZI8TT0329208814000178   1030000100030000   541120003111777031200000031MOB BANK               YGN           MMR11003290816190001780329000000000000000   10300002 00104100000000000000000000004400     
100   9503051886816749000000000000621000000000621000200000001041040329084953000263TIUITN0329208815000263   1030000100030000   541110001920777031200000019MOB BANK               YGN           MMR11003290849530002630329000000000000000   10300002 00104100000000000000000000001242     
100   9503190000188039000000000001450000000001450000200000001041040329060531000567MWZNT40329208812000567   1030000100030000   541110001907777031200000019MOB BANK               YGN           MMR11003290605310005670329000000000000000   10300014 00104100000000000000000000002900     
100   35710830750256670000000000061380000000061380002000000010410403290852040013304392610329208815001330   1030000100030000   541160000001777031200000006MOB BANK               YGN           MMR11003290852040013300329000000000000000   10300003 00104100000000000000000000012276     
100   62622000582319580000000000120156000000120156002000000010410403291108490013358550230329208817001335   1030000100030000   541160000001777031200000006MOB BANK               YGN           MMR11003291108490013350329000000000000000   10300006 00104100000000000000000000024031     
100   35710500363973030000000000046500000000046500002000000010410403291118330013390573490329208817001339   1030000100030000   541160000001777031200000006MOB BANK               YGN           MMR11003291118330013390329000000000000000   10300005 00104100000000000000000000009300     
100   9503051888885684000000000002000000000002000000200000001041040329094655000586MZSH130329208816000586   1030000100030000   541110001907777031200000019MOB BANK               YGN           MMR11003290946550005860329000000000000000   10300002 00104100000000000000000000004000     
