100   95030510203009070000000000031500000000031500002000000010410403300955520001889VQIS10330208916000188   1030000100030000   541120003111777031200000031MOB BANK               YGN           MMR11003300955520001880330000000000000000   10300002 00104100000000000000000000006300     
100   35710500353783790000000000097092000000097092002000000010410403300619380006023979890330208912000602   1030000100030000   541110001907777031200000019MOB BANK               YGN           MMR11003300619380006020330000000000000000   10300005 00104100000000000000000000019418     
100   35710500335484450000000000022100000000022100002000000010410403300816580006419102040330208914000641   1030000100030000   541110001905777031200000019MOB BANK               YGN           MMR11003300816580006410330000000000000000   10300005 00104100000000000000000000004420     
100   95030518954215150000000000024840000000024840002000000010410403300725450001834NRAXN0330208913000183   1030000100030000   541120003111777031200000031MOB BANK               YGN           MMR11003300725450001830330000000000000000   10300002 00104100000000000000000000004968     
100   9503190001427253000000000001640000000001640000200000001041040330040640000187CPJQ8J0330208910000187   1030000100030000   541120003102777031200000031MOB BANK               YGN           MMR11003300406400001870330000000000000000   10300014 00104100000000000000000000003280     
100   9503051872317611000000000006325000000006325000200000001041040330063932000499TXCSDG0330208913000499   1030000100030000   581210001501777031200000015MOB BANK               YGN           MMR11003300639320004990330000000000000000   10300002 00104100000000000000000000021505     
100   35710500113352370000000000001250000000001250002000000010410403301123450006135867390330208917000613   1030000100030000   541110001907777031200000019MOB BANK               YGN           MMR11003301123450006130330000000000000000   10300005 00104100000000000000000000000250     
100   35710500161285120000000000029480000000029480002000000010410403301016290012037018370330208916001203   1030000100030000   581250000001777031200000005MOB BANK               YGN           MMR11003301016290012030330000000000000000   10300005 00104100000000000000000000010023     
100   9503051897650905000000000004898000000004898000200000001041040330031939001343PRTIKK0330208909001343   1030000100030000   541160000001777031200000006MOB BANK               YGN           MMR11003300319390013430330000000000000000   10300002 00104100000000000000000000009796     
100   35710500394449460000000000015600000000015600002000000010410403300830130001844562000330208915000184   1030000100030000   541120003111777031200000031MOB BANK               YGN           MMR11003300830130001840330000000000000000   10300005 00104100000000000000000000003120     
100   35710500142101630000000000009350000000009350002000000010410403300758440006360982240330208914000636   1030000100030000   541110001905777031200000019MOB BANK               YGN           MMR11003300758440006360330000000000000000   10300005 00104100000000000000000000001870     
100   9503051882616309000000000001705200000001705200200000001041040330035341000185XPFM7P0330208910000185   1030000100030000   541120003102777031200000031MOB BANK               YGN           MMR11003300353410001850330000000000000000   10300002 00104100000000000000000000003410     
100   95030518866309910000000000008500000000008500002000000010410403301029590006119WJISY0330208916000611   1030000100030000   541110001907777031200000019MOB BANK               YGN           MMR11003301029590006110330000000000000000   10300002 00104100000000000000000000001700     
100   9503051024992790000000000001756500000001756500200000001041040330060726000631FSSYEN0330208912000631   1030000100030000   541110001905777031200000019MOB BANK               YGN           MMR11003300607260006310330000000000000000   10300002 00104100000000000000000000003513     
100   35710500162349480000000000107198000000107198002000000010410403300856480013463228040330208915001346   1030000100030000   541160000001777031200000006MOB BANK               YGN           MMR11003300856480013460330000000000000000   10300005 00104100000000000000000000021440     
100   9503051019860531000000000003844000000003844000200000001041040330094135001349KHF3EM0330208916001349   1030000100030000   541160000001777031200000006MOB BANK               YGN           MMR11003300941350013490330000000000000000   10300002 00104100000000000000000000007688     
100   9503051022331462000000000000615000000000615000200000001041040330064730000189SVQZGA0330208913000189   1030000100030000   541120003102777031200000031MOB BANK               YGN           MMR11003300647300001890330000000000000000   10300002 00104100000000000000000000001230     
100   35710500351670530000000000025000000000025000002000000010410403301109440001899746170330208917000189   1030000100030000   541110001916777031200000019MOB BANK               YGN           MMR11003301109440001890330000000000000000   10300005 00104100000000000000000000005000     
100   95030510222460580000000000018900000000018900002000000010410403301140140002829RYY5V0330208918000282   1030000100030000   541110001920777031200000019MOB BANK               YGN           MMR11003301140140002820330000000000000000   10300002 00104100000000000000000000003780     
100   62346600148561460000000000097092000000097092002000000010410403300504130005986761230330208911000598   1030000100030000   541110001907777031200000019MOB BANK               YGN           MMR11003300504130005980330000000000000000   10300005 00104100000000000000000000019418     
100   35710500394449460000000000018075000000018075002000000010410403300834300001851051190330208915000185   1030000100030000   541120003111777031200000031MOB BANK               YGN           MMR11003300834300001850330000000000000000   10300005 00104100000000000000000000003615     
100   62346600102338600000000000033300000000033300002000000010410403300942460002764580510330208916000276   1030000100030000   541110001920777031200000019MOB BANK               YGN           MMR11003300942460002760330000000000000000   10300005 00104100000000000000000000006660     
100   95030800004441120000000000050000000000050000002000000010410403301224500004174309110330208918000417   1030000100030000   581210001201777031200000012MOB BANK               YGN           MMR11003301224500004170330000000000000000   10300003 00104100000000000000000000017000     
100   62343302003267480000000000075000000000075000002000000010410403301341410004182890260330208920000418   1030000100030000   581210001201777031200000012MOB BANK               YGN           MMR11003301341410004180330000000000000000   10300004 00104100000000000000000000025500     
100   35710500353783790000000000024300000000024300002000000010410403300627170006041561540330208912000604   1030000100030000   541110001907777031200000019MOB BANK               YGN           MMR11003300627170006040330000000000000000   10300005 00104100000000000000000000004860     
100   9503051886393830000000000003950000000003950000200000001041040330103151000277BUAWNL0330208917000277   1030000100030000   541110001920777031200000019MOB BANK               YGN           MMR11003301031510002770330000000000000000   10300002 00104100000000000000000000007900     
100   35710500394449460000000000008330000000008330002000000010410403300836290001864342360330208915000186   1030000100030000   541120003111777031200000031MOB BANK               YGN           MMR11003300836290001860330000000000000000   10300005 00104100000000000000000000001666     
100   95030518863938300000000000006600000000006600002000000010410403301036410002788KSQGN0330208917000278   1030000100030000   541110001920777031200000019MOB BANK               YGN           MMR11003301036410002780330000000000000000   10300002 00104100000000000000000000001320     
100   9503051022073981000000000007320000000007320000200000001041040330142129000419DAEVDI0330208920000419   1030000100030000   581210001201777031200000012MOB BANK               YGN           MMR11003301421290004190330000000000000000   10300002 00104100000000000000000000024888     
100   35710830376367910000000000051950000000051950002000000010410403301511240004205308510330208921000420   1030000100030000   581210001201777031200000012MOB BANK               YGN           MMR11003301511240004200330000000000000000   10300003 00104100000000000000000000017663     
100   62346600165850400000000000032046000000032046002000000010410403300628500006346103390330208912000634   1030000100030000   541110001905777031200000019MOB BANK               YGN           MMR11003300628500006340330000000000000000   10300005 00104100000000000000000000006409     
100   9503051883525681000000000000661500000000661500200000001041040330054405000112HVDTZZ0330208912000112   1030000100030000   541120003001777031200000030MOB BANK               YGN           MMR11003300544050001120330000000000000000   10300002 00104100000000000000000000001323     
100   9503051888118052000000000001575000000001575000200000001041040330065029000182Q1X53J0330208913000182   1030000100030000   541120003111777031200000031MOB BANK               YGN           MMR11003300650290001820330000000000000000   10300002 00104100000000000000000000003150     
100   35710830914081290000000000034650000000034650002000000010410403301057140005023783510330208917000502   1030000100030000   581210001501777031200000015MOB BANK               YGN           MMR11003301057140005020330000000000000000   10300003 00104100000000000000000000011781     
100   9503051024992790000000000001020000000001020000200000001041040330054051000600QMB1CD0330208912000600   1030000100030000   541110001907777031200000019MOB BANK               YGN           MMR11003300540510006000330000000000000000   10300002 00104100000000000000000000002040     
100   9503051025302767000000000000625000000000625000200000001041040330031217000183SFAKC90330208909000183   1030000100030000   541120003102777031200000031MOB BANK               YGN           MMR11003300312170001830330000000000000000   10300002 00104100000000000000000000001250     
100   950319000202317600000000000111030000000111030020000000104104033009083200020692E9810330208915000206   1030000100030000   541120003102777031200000031MOB BANK               YGN           MMR11003300908320002060330000000000000000   10300014 00104100000000000000000000002221     
100   9503051895055164000000000005195000000005195000200000001041040330151207000421GKA66O0330208921000421   1030000100030000   581210001201777031200000012MOB BANK               YGN           MMR11003301512070004210330000000000000000   10300002 00104100000000000000000000017663     
100   35710830559694620000000000051950000000051950002000000010410403301513060004225318710330208921000422   1030000100030000   581210001201777031200000012MOB BANK               YGN           MMR11003301513060004220330000000000000000   10300003 00104100000000000000000000017663     
100   62441900001256190000000000005194000000005194002000000010410403301138490006152063860330208918000615   1030000100030000   541110001907777031200000019MOB BANK               YGN           MMR11003301138490006150330000000000000000   10300003 00104100000000000000000000001818     
100   62346600102338600000000000085050000000085050002000000010410403300934170002738821540330208916000273   1030000100030000   541110001920777031200000019MOB BANK               YGN           MMR11003300934170002730330000000000000000   10300005 00104100000000000000000000017010     
100   9503051888743537000000000000750000000000750000200000001041040330041745000497ASVWFB0330208910000497   1030000100030000   581210001501777031200000015MOB BANK               YGN           MMR11003300417450004970330000000000000000   10300002 00104100000000000000000000002550     
100   62343302006288460000000000072000000000072000002000000010410403300659220006096817120330208913000609   1030000100030000   541110001907777031200000019MOB BANK               YGN           MMR11003300659220006090330000000000000000   10300004 00104100000000000000000000014400     
100   35710500393574600000000000015950000000015950002000000010410403301014500012018245370330208916001201   1030000100030000   581250000001777031200000005MOB BANK               YGN           MMR11003301014500012010330000000000000000   10300005 00104100000000000000000000005423     
