100   9503190005766292000000000001265000000001265000200000001041040402085801001219HFWXFG0402209215001219   1030000100030000   581250000001777031200000005MOB BANK               YGN           MMR11004020858010012190402000000000000000   10300014 00104100000000000000000000004301     
100   95030518875200500000000000044370000000044370002000000010410404021022270000782COKAE0402209216000078   1030000100030000   541120003112777031200000031MOB BANK               YGN           MMR11004021022270000780402000000000000000   10300002 00104100000000000000000000008874     
100   35710500143773270000000000015000000000015000002000000010410404020730250003138043850402209214000313   1030000100030000   541110001920777031200000019MOB BANK               YGN           MMR11004020730250003130402000000000000000   10300005 00104100000000000000000000003000     
100   9503190001146895000000000001755000000001755000200000001041040402031822000376HV7SMN0402209209000376   1030000100030000   541110001915777031200000019MOB BANK               YGN           MMR11004020318220003760402000000000000000   10300014 00104100000000000000000000003510     
100   35710830568795040000000000087350000000087350002000000010410404020520150003887681610402209211000388   1030000100030000   541110001915777031200000019MOB BANK               YGN           MMR11004020520150003880402000000000000000   10300003 00104100000000000000000000017470     
100   9503051897072373000000000001540000000001540000200000001041040402144815000541O15OOD0402209221000541   1030000100030000   581210001501777031200000015MOB BANK               YGN           MMR11004021448150005410402000000000000000   10300002 00104100000000000000000000005236     
100   62921400073933560000000000007154000000007154002000000010410404020910490007312222220402209215000731   1030000100030000   541110001905777031200000019MOB BANK               YGN           MMR11004020910490007310402000000000000000   10300009 00104100000000000000000000001431     
100   62346600130496100000000000025725000000025725002000000010410404020413360004726544640402209210000472   1030000100030000   541120003117777031200000031MOB BANK               YGN           MMR11004020413360004720402000000000000000   10300005 00104100000000000000000000005145     
100   35710830933202980000000000052000000000052000002000000010410404020737270000718504910402209214000071   1030000100030000   541120003112777031200000031MOB BANK               YGN           MMR11004020737270000710402000000000000000   10300003 00104100000000000000000000010400     
100   35710500350350370000000000071000000000071000002000000010410404020347050000787629030402209210000078   1030000100030000   541120000018777031200000002MOB BANK               YGN           MMR11004020347050000780402000000000000000   10300005 00104100000000000000000000014200     
100   62346600122875750000000000014000000000014000002000000010410404020734330000703712020402209214000070   1030000100030000   541120003112777031200000031MOB BANK               YGN           MMR11004020734330000700402000000000000000   10300005 00104100000000000000000000002800     
100   35710830823019940000000000042840000000042840002000000010410404021223110001620219230402209218000162   1030000100030000   541110001903777031200000019MOB BANK               YGN           MMR11004021223110001620402000000000000000   10300003 00104100000000000000000000008568     
100   9503051873015958000000000004200000000004200000200000001041040402114421000326J9HNID0402209218000326   1030000100030000   541110001920777031200000019MOB BANK               YGN           MMR11004021144210003260402000000000000000   10300002 00104100000000000000000000008400     
100   9503051024582542000000000007970000000007970000200000001041040401051243000334IJYHWL0401209111000334   1030000100030000   541110001915777031200000019MOB BANK               YGN           MMR11004010512430003340401000000000000000   10300002 00104100000000000000000000015940     
100   35710500142402930000000000014880000000014880002000000010410404010517310003376761300401209111000337   1030000100030000   541110001915777031200000019MOB BANK               YGN           MMR11004010517310003370401000000000000000   10300005 00104100000000000000000000002976     
100   35710500183990950000000000042000000000042000002000000010410404021148320003279107150402209218000327   1030000100030000   541110001920777031200000019MOB BANK               YGN           MMR11004021148320003270402000000000000000   10300005 00104100000000000000000000008400     
100   9503051025892718000000000004070000000004070000200000001041040402095325000707SEESUA0402209216000707   1030000100030000   541110001907777031200000019MOB BANK               YGN           MMR11004020953250007070402000000000000000   10300002 00104100000000000000000000008140     
100   95030510217230400000000000009000000000009000002000000010410404020800530000933AXWSV0402209214000093   1030000100030000   541120003115777031200000031MOB BANK               YGN           MMR11004020800530000930402000000000000000   10300002 00104100000000000000000000001800     
100   35710500320584790000000000027720000000027720002000000010410404021018310001574854690402209216000157   1030000100030000   541110001903777031200000019MOB BANK               YGN           MMR11004021018310001570402000000000000000   10300005 00104100000000000000000000005544     
100   35710830306934920000000000060000000000060000002000000010410404021128080004109889010402209217000410   1030000100030000   541110001915777031200000019MOB BANK               YGN           MMR11004021128080004100402000000000000000   10300003 00104100000000000000000000012000     
100   9503051884504289000000000002800000000002800000200000001041040402043705000380E6XZW50402209211000380   1030000100030000   541110001915777031200000019MOB BANK               YGN           MMR11004020437050003800402000000000000000   10300002 00104100000000000000000000005600     
100   35710500375622280000000000007200000000007200002000000010410404020415280006736459550402209210000673   1030000100030000   541110001907777031200000019MOB BANK               YGN           MMR11004020415280006730402000000000000000   10300005 00104100000000000000000000001440     
100   9503051892933777000000000000140000000000140000200000001041040402103841000738MCZA1N0402209217000738   1030000100030000   541110001905777031200000019MOB BANK               YGN           MMR11004021038410007380402000000000000000   10300002 00104100000000000000000000000280     
100   35710830130623680000000000036810000000036810002000000010410404020957250001569344610402209216000156   1030000100030000   541110001903777031200000019MOB BANK               YGN           MMR11004020957250001560402000000000000000   10300003 00104100000000000000000000007362     
100   35710830539519910000000000038400000000038400002000000010410404020609360001477977810402209212000147   1030000100030000   541110001903777031200000019MOB BANK               YGN           MMR11004020609360001470402000000000000000   10300003 00104100000000000000000000007680     
100   62622000952317220000000000017600000000017600002000000010410404020827420003209679900402209214000320   1030000100030000   541110001920777031200000019MOB BANK               YGN           MMR11004020827420003200402000000000000000   10300006 00104100000000000000000000003520     
100   9503051894404371000000000006075000000006075000200000001041040401093150000243IW8JG00401209116000243   1030000100030000   541110001916777031200000019MOB BANK               YGN           MMR11004010931500002430401000000000000000   10300002 00104100000000000000000000012150     
100   9503051025425360000000000011700000000011700000200000001041040402071012000692WWADCZ0402209213000692   1030000100030000   541110001907777031200000019MOB BANK               YGN           MMR11004020710120006920402000000000000000   10300002 00104100000000000000000000023400     
100   62346600123874410000000000031066000000031066002000000010410404020914190007340857520402209215000734   1030000100030000   541110001905777031200000019MOB BANK               YGN           MMR11004020914190007340402000000000000000   10300005 00104100000000000000000000006213     
100   35710500394171240000000000030400000000030400002000000010410404020558070004751264530402209212000475   1030000100030000   541120003117777031200000031MOB BANK               YGN           MMR11004020558070004750402000000000000000   10300005 00104100000000000000000000006080     
100   9503190000005803000000000002418200000002418200200000001041040402050406000064O21XRR0402209211000064   1030000100030000   541120003112777031200000031MOB BANK               YGN           MMR11004020504060000640402000000000000000   10300014 00104100000000000000000000004836     
100   35710500161070600000000000004300000000004300002000000010410404020615340000662044180402209212000066   1030000100030000   541120003112777031200000031MOB BANK               YGN           MMR11004020615340000660402000000000000000   10300005 00104100000000000000000000000860     
100   35710830441002110000000000023220000000023220002000000010410404020657580001488267910402209213000148   1030000100030000   541110001903777031200000019MOB BANK               YGN           MMR11004020657580001480402000000000000000   10300003 00104100000000000000000000004644     
100   9503051873015958000000000000945000000000945000200000001041040402115224000328HKMSVK0402209218000328   1030000100030000   541110001920777031200000019MOB BANK               YGN           MMR11004021152240003280402000000000000000   10300002 00104100000000000000000000001890     
100   35710830025752300000000000162000000000162000002000000010410404020850070006998940830402209215000699   1030000100030000   541110001907777031200000019MOB BANK               YGN           MMR11004020850070006990402000000000000000   10300003 00104100000000000000000000032400     
100   62443000160204110000000000034599000000034599002000000010410404021117470004933679490402209217000493   1030000100030000   541120003117777031200000031MOB BANK               YGN           MMR11004021117470004930402000000000000000   10300005 00104100000000000000000000012110     
100   9503051888919640000000000029127600000029127600200000001041040402060557000679ZDHBA30402209212000679   1030000100030000   541110001907777031200000019MOB BANK               YGN           MMR11004020605570006790402000000000000000   10300002 00104100000000000000000000058255     
100   35710500350350370000000000014000000000014000002000000010410404020357200000796532200402209210000079   1030000100030000   541120000018777031200000002MOB BANK               YGN           MMR11004020357200000790402000000000000000   10300005 00104100000000000000000000002800     
100   35710500313835710000000000057340000000057340002000000010410404020531020001422457430402209212000142   1030000100030000   541110001903777031200000019MOB BANK               YGN           MMR11004020531020001420402000000000000000   10300005 00104100000000000000000000011468     
100   9503051896094089000000000021350000000021350000200000001041040402130400000428QLESRS0402209219000428   1030000100030000   581210001201777031200000012MOB BANK               YGN           MMR11004021304000004280402000000000000000   10300002 00104100000000000000000000072590     
100   35710950605108590000000000019300000000019300002000000010410404021007460003999406710402209216000399   1030000100030000   541110001915777031200000019MOB BANK               YGN           MMR11004021007460003990402000000000000000   10300003 00104100000000000000000000003860     
100   35710830288545770000000000121964000000121964002000000010410404010820220003510122310401209114000351   1030000100030000   541110001915777031200000019MOB BANK               YGN           MMR11004010820220003510401000000000000000   10300003 00104100000000000000000000024393     
100   62343302007910160000000000115390000000115390002000000010410404011357010005274937930401209120000527   1030000100030000   581210001501777031200000015MOB BANK               YGN           MMR11004011357010005270401000000000000000   10300004 00104100000000000000000000039233     
100   35710500391495290000000000013600000000013600002000000010410404011140020003695731590401209118000369   1030000100030000   541110001915777031200000019MOB BANK               YGN           MMR11004011140020003690401000000000000000   10300005 00104100000000000000000000002720     
100   62441900001759110000000000017052000000017052002000000010410404011138030006588960450401209118000658   1030000100030000   541110001907777031200000019MOB BANK               YGN           MMR11004011138030006580401000000000000000   10300003 00104100000000000000000000005968     
100   62346600156158630000000000012960000000012960002000000010410404010712290000574618360401209113000057   1030000100030000   541110001919777031200000019MOB BANK               YGN           MMR11004010712290000570401000000000000000   10300005 00104100000000000000000000002592     
100   35710500391495290000000000037000000000037000002000000010410404011233240003717615140401209119000371   1030000100030000   541110001915777031200000019MOB BANK               YGN           MMR11004011233240003710401000000000000000   10300005 00104100000000000000000000007400     
100   35710500142428100000000000012000000000012000002000000010410404011136230000499113670401209118000049   1030000100030000   541120003110777031200000031MOB BANK               YGN           MMR11004011136230000490401000000000000000   10300005 00104100000000000000000000002400     
100   9503051026198875000000000004110000000004110000200000001041040402100752000076ZUCIAV0402209216000076   1030000100030000   541120003112777031200000031MOB BANK               YGN           MMR11004021007520000760402000000000000000   10300002 00104100000000000000000000008220     
100   62346600190439220000000000018720000000018720002000000010410404020605390001457486190402209212000145   1030000100030000   541110001903777031200000019MOB BANK               YGN           MMR11004020605390001450402000000000000000   10300005 00104100000000000000000000003744     
100   9503190001081167000000000003105000000003105000200000001041040402080605000152E30K7W0402209214000152   1030000100030000   541110001903777031200000019MOB BANK               YGN           MMR11004020806050001520402000000000000000   10300014 00104100000000000000000000006210     
100   95030101000876280000000000042000000000042000002000000010410404020447000003088648220402209211000308   1030000100030000   541110001920777031200000019MOB BANK               YGN           MMR11004020447000003080402000000000000000   10200001 00104100000000000000000000008400     
100   35710500393749450000000000014850000000014850002000000010410404020449560003824679810402209211000382   1030000100030000   541110001915777031200000019MOB BANK               YGN           MMR11004020449560003820402000000000000000   10300005 00104100000000000000000000002970     
100   9503051896442692000000000003000000000003000000200000001041040402104841000404CPWYNU0402209217000404   1030000100030000   541110001915777031200000019MOB BANK               YGN           MMR11004021048410004040402000000000000000   10300002 00104100000000000000000000006000     
100   9503051895807267000000000002600000000002600000200000001041040402055347000676KQIUA20402209212000676   1030000100030000   541110001907777031200000019MOB BANK               YGN           MMR11004020553470006760402000000000000000   10300002 00104100000000000000000000005200     
100   9503051891847929000000000000460600000000460600200000001041040402125832000720IVARHB0402209219000720   1030000100030000   541110001907777031200000019MOB BANK               YGN           MMR11004021258320007200402000000000000000   10300002 00104100000000000000000000000921     
100   62921400092479150000000000008100000000008100002000000010410404011003170000612222220401209116000061   1030000100030000   541120003112777031200000031MOB BANK               YGN           MMR11004011003170000610401000000000000000   10300009 00104100000000000000000000001620     
100   62346600101553780000000000030000000000030000002000000010410404010704100002267909540401209113000226   1030000100030000   541110001916777031200000019MOB BANK               YGN           MMR11004010704100002260401000000000000000   10300005 00104100000000000000000000006000     
100   9503051024708535000000000001332000000001332000200000001041040401090529000235QCCJCW0401209115000235   1030000100030000   541110001916777031200000019MOB BANK               YGN           MMR11004010905290002350401000000000000000   10300002 00104100000000000000000000002664     
100   35710500113104040000000000088600000000088600002000000010410404020944550004279547790402209216000427   1030000100030000   581210001201777031200000012MOB BANK               YGN           MMR11004020944550004270402000000000000000   10300005 00104100000000000000000000030124     
100   9503051897423568000000000002835000000002835000200000001041040401113733000367NUFNQW0401209118000367   1030000100030000   541110001915777031200000019MOB BANK               YGN           MMR11004011137330003670401000000000000000   10300002 00104100000000000000000000005670     
100   35710830301528610000000000019800000000019800002000000010410404021018370000969471910402209216000096   1030000100030000   541120003115777031200000031MOB BANK               YGN           MMR11004021018370000960402000000000000000   10300003 00104100000000000000000000003960     
100   9503051025208063000000000003850000000003850000200000001041040402091616000154GGGAKH0402209215000154   1030000100030000   541110001903777031200000019MOB BANK               YGN           MMR11004020916160001540402000000000000000   10300002 00104100000000000000000000007700     
100   9503190000369423000000000021015520000021015520200000001041040402094247001364L6Q3WV0402209216001364   1030000100030000   541160000001777031200000006MOB BANK               YGN           MMR11004020942470013640402000000000000000   10300014 00104100000000000000000000042031     
100   9503051888919640000000000000350000000000350000200000001041040402062509000721C96MBA0402209212000721   1030000100030000   541110001905777031200000019MOB BANK               YGN           MMR11004020625090007210402000000000000000   10300002 00104100000000000000000000000700     
100   9503051895628929000000000001545000000001545000200000001041040402102154000736R436GL0402209216000736   1030000100030000   541110001905777031200000019MOB BANK               YGN           MMR11004021021540007360402000000000000000   10300002 00104100000000000000000000003090     
100   9503051891330181000000000002670000000002670000200000001041040402084125000696UNSI6U0402209215000696   1030000100030000   541110001907777031200000019MOB BANK               YGN           MMR11004020841250006960402000000000000000   10300002 00104100000000000000000000005340     
100   9503051025892718000000000019800000000019800000200000001041040402100338000710NW9NFE0402209216000710   1030000100030000   541110001907777031200000019MOB BANK               YGN           MMR11004021003380007100402000000000000000   10300002 00104100000000000000000000039600     
100   35710830964470070000000000017000000000017000002000000010410404020836530000728861500402209215000072   1030000100030000   541120003112777031200000031MOB BANK               YGN           MMR11004020836530000720402000000000000000   10300003 00104100000000000000000000003400     
100   35710500341124640000000000024750000000024750002000000010410404020607030000656930330402209212000065   1030000100030000   541120003112777031200000031MOB BANK               YGN           MMR11004020607030000650402000000000000000   10300005 00104100000000000000000000004950     
100   62346600111557810000000000056100000000056100002000000010410404020638450000675582580402209213000067   1030000100030000   541120003112777031200000031MOB BANK               YGN           MMR11004020638450000670402000000000000000   10300005 00104100000000000000000000011220     
100   62622000461751680000000000014000000000014000002000000010410404020719160001519946570402209213000151   1030000100030000   541110001903777031200000019MOB BANK               YGN           MMR11004020719160001510402000000000000000   10300006 00104100000000000000000000002800     
100   9503051894469531000000000000330000000000330000200000001041040402115250000717DH8OZK0402209218000717   1030000100030000   541110001907777031200000019MOB BANK               YGN           MMR11004021152500007170402000000000000000   10300002 00104100000000000000000000000660     
100   35710830889380960000000000004800000000004800002000000010410404021250310004200383210402209219000420   1030000100030000   541110001915777031200000019MOB BANK               YGN           MMR11004021250310004200402000000000000000   10300003 00104100000000000000000000000960     
100   35710830288545770000000000067050000000067050002000000010410404010540420002079164320401209112000207   1030000100030000   541110001916777031200000019MOB BANK               YGN           MMR11004010540420002070401000000000000000   10300003 00104100000000000000000000013410     
100   35710830937773800000000000025200000000025200002000000010410404010549060002119214710401209112000211   1030000100030000   541110001916777031200000019MOB BANK               YGN           MMR11004010549060002110401000000000000000   10300003 00104100000000000000000000005040     
100   35710830672518260000000000014430000000014430002000000010410404021104170004909745900402209217000490   1030000100030000   541120003117777031200000031MOB BANK               YGN           MMR11004021104170004900402000000000000000   10300003 00104100000000000000000000002886     
100   35710830889380960000000000015750000000015750002000000010410404021247170004190363820402209219000419   1030000100030000   541110001915777031200000019MOB BANK               YGN           MMR11004021247170004190402000000000000000   10300003 00104100000000000000000000003150     
100   35710830087569170000000000061350000000061350002000000010410404020523330000827701500402209211000082   1030000100030000   541120003115777031200000031MOB BANK               YGN           MMR11004020523330000820402000000000000000   10300003 00104100000000000000000000012270     
100   35710500380720110000000000074700000000074700002000000010410404020428060002026170180402209210000202   1030000100030000   541120000017777031200000002MOB BANK               YGN           MMR11004020428060002020402000000000000000   10300005 00104100000000000000000000014940     
100   9503051897043804000000000000612000000000612000200000001041040402090302000323KTAIEK0402209215000323   1030000100030000   541110001920777031200000019MOB BANK               YGN           MMR11004020903020003230402000000000000000   10300002 00104100000000000000000000001224     
100   35710830441002110000000000009849000000009849002000000010410404020647520006898207310402209213000689   1030000100030000   541110001907777031200000019MOB BANK               YGN           MMR11004020647520006890402000000000000000   10300003 00104100000000000000000000001970     
100   62346600166102360000000000009941000000009941002000000010410404020713440004818582010402209213000481   1030000100030000   541120003117777031200000031MOB BANK               YGN           MMR11004020713440004810402000000000000000   10300005 00104100000000000000000000001988     
100   62346600151172410000000000015500000000015500002000000010410404020629200003122461590402209212000312   1030000100030000   541110001920777031200000019MOB BANK               YGN           MMR11004020629200003120402000000000000000   10300005 00104100000000000000000000003100     
100   62921400003549910000000000010980000000010980002000000010410404020835420003222222220402209215000322   1030000100030000   541110001920777031200000019MOB BANK               YGN           MMR11004020835420003220402000000000000000   10300009 00104100000000000000000000002196     
100   9503051024622298000000000003510000000003510000200000001041040402074242000086Y6TBDS0402209214000086   1030000100030000   541120003115777031200000031MOB BANK               YGN           MMR11004020742420000860402000000000000000   10300002 00104100000000000000000000007020     
100   9503051895628929000000000001850000000001850000200000001041040402103155000158MRL58A0402209217000158   1030000100030000   541110001903777031200000019MOB BANK               YGN           MMR11004021031550001580402000000000000000   10300002 00104100000000000000000000003700     
100   9503051021934027000000000001130000000001130000200000001041040402125521000329FI5KZK0402209219000329   1030000100030000   541110001920777031200000019MOB BANK               YGN           MMR11004021255210003290402000000000000000   10300002 00104100000000000000000000002260     
100   35710500391369710000000000012420000000012420002000000010410404010948490000466494830401209116000046   1030000100030000   541120003110777031200000031MOB BANK               YGN           MMR11004010948490000460401000000000000000   10300005 00104100000000000000000000002484     
100   35710830937773800000000000018000000000018000002000000010410404010557280002139264910401209112000213   1030000100030000   541110001916777031200000019MOB BANK               YGN           MMR11004010557280002130401000000000000000   10300003 00104100000000000000000000003600     
100   35710500391495290000000000016650000000016650002000000010410404011237460003722364410401209119000372   1030000100030000   541110001915777031200000019MOB BANK               YGN           MMR11004011237460003720401000000000000000   10300005 00104100000000000000000000003330     
100   35710830208692010000000000022572000000022572002000000010410404010611140001339347610401209112000133   1030000100030000   541110001903777031200000019MOB BANK               YGN           MMR11004010611140001330401000000000000000   10300003 00104100000000000000000000004514     
100   35710500375713770000000000037350000000037350002000000010410404010852470003534850550401209115000353   1030000100030000   541110001915777031200000019MOB BANK               YGN           MMR11004010852470003530401000000000000000   10300005 00104100000000000000000000007470     
100   35710500166519270000000000018500000000018500002000000010410404011002000003554015570401209116000355   1030000100030000   541110001915777031200000019MOB BANK               YGN           MMR11004011002000003550401000000000000000   10300005 00104100000000000000000000003700     
100   35710830362056970000000000085138000000085138002000000010410404011109510013591139220401209117001359   1030000100030000   541160000001777031200000006MOB BANK               YGN           MMR11004011109510013590401000000000000000   10300003 00104100000000000000000000017028     
100   35710500124786220000000000093744000000093744002000000010410404010619150000482241380401209112000048   1030000100030000   541110001919777031200000019MOB BANK               YGN           MMR11004010619150000480401000000000000000   10300005 00104100000000000000000000018749     
100   9503051023023944000000000013200000000013200000200000001041040402113800000413OYWESG0402209218000413   1030000100030000   541110001915777031200000019MOB BANK               YGN           MMR11004021138000004130402000000000000000   10300002 00104100000000000000000000026400     
100   35710830703863950000000000040700000000040700002000000010410404021334130004290645410402209220000429   1030000100030000   581210001201777031200000012MOB BANK               YGN           MMR11004021334130004290402000000000000000   10300003 00104100000000000000000000013838     
100   9503051892933777000000000000640000000000640000200000001041040402103049000712FAZTL20402209217000712   1030000100030000   541110001907777031200000019MOB BANK               YGN           MMR11004021030490007120402000000000000000   10300002 00104100000000000000000000001280     
100   35710500393749450000000000047000000000047000002000000010410404020507230003860771100402209211000386   1030000100030000   541110001915777031200000019MOB BANK               YGN           MMR11004020507230003860402000000000000000   10300005 00104100000000000000000000009400     
100   35710500174726530000000000044729000000044729002000000010410404010602320000427935530401209112000042   1030000100030000   541110001910777031200000019MOB BANK               YGN           MMR11004010602320000420401000000000000000   10300005 00104100000000000000000000008946     
100   62346600146756860000000000016650000000016650002000000010410404020420480003786403600402209210000378   1030000100030000   541110001915777031200000019MOB BANK               YGN           MMR11004020420480003780402000000000000000   10300005 00104100000000000000000000003330     
100   62441900003925080000000000020326000000020326002000000010410404021053070004069077330402209217000406   1030000100030000   541110001915777031200000019MOB BANK               YGN           MMR11004021053070004060402000000000000000   10300003 00104100000000000000000000007114     
100   35710830672518260000000000012600000000012600002000000010410404021049430000809658410402209217000080   1030000100030000   541120003112777031200000031MOB BANK               YGN           MMR11004021049430000800402000000000000000   10300003 00104100000000000000000000002520     
100   35710500183712760000000000006000000000006000002000000010410404010528070003399846790401209111000339   1030000100030000   541110001915777031200000019MOB BANK               YGN           MMR11004010528070003390401000000000000000   10300005 00104100000000000000000000001200     
100   35710500124786220000000000054000000000054000002000000010410404010606500003456518850401209112000345   1030000100030000   541110001915777031200000019MOB BANK               YGN           MMR11004010606500003450401000000000000000   10300005 00104100000000000000000000010800     
100   35710500334833380000000000041490000000041490002000000010410404010835020002290956860401209115000229   1030000100030000   541110001916777031200000019MOB BANK               YGN           MMR11004010835020002290401000000000000000   10300005 00104100000000000000000000008298     
100   62343301016627610000000000008550000000008550002000000010410404010342430006801865910401209110000680   1030000100030000   541110001905777031200000019MOB BANK               YGN           MMR11004010342430006800401000000000000000   10300004 00104100000000000000000000001710     
100   9503051894469531000000000000660000000000660000200000001041040401114021000661RTFGMM0401209118000661   1030000100030000   541110001907777031200000019MOB BANK               YGN           MMR11004011140210006610401000000000000000   10300002 00104100000000000000000000001320     
100   9503051022940601000000000003473000000003473000200000001041040401052044000034F88H2V0401209111000034   1030000100030000   541110001910777031200000019MOB BANK               YGN           MMR11004010520440000340401000000000000000   10300002 00104100000000000000000000006946     
100   35710500391495290000000000043000000000043000002000000010410404011131080003632723370401209118000363   1030000100030000   541110001915777031200000019MOB BANK               YGN           MMR11004011131080003630401000000000000000   10300005 00104100000000000000000000008600     
100   35710830288545770000000000049050000000049050002000000010410404010344030001988464510401209110000198   1030000100030000   541110001916777031200000019MOB BANK               YGN           MMR11004010344030001980401000000000000000   10300003 00104100000000000000000000009810     
100   9503190000042459000000000000900000000000900000200000001041040402114539000197TD3BKZ0402209218000197   1030000100030000   541120003105777031200000031MOB BANK               YGN           MMR11004021145390001970402000000000000000   10300014 00104100000000000000000000001800     
100   35710500370976620000000000024850000000024850002000000010410404020629110007249071530402209212000724   1030000100030000   541110001905777031200000019MOB BANK               YGN           MMR11004020629110007240402000000000000000   10300005 00104100000000000000000000004970     
100   9503051020984551000000000001170000000001170000200000001041040402074012000694AH4FRF0402209214000694   1030000100030000   541110001907777031200000019MOB BANK               YGN           MMR11004020740120006940402000000000000000   10300002 00104100000000000000000000002340     
100   9503051889532293000000000001780000000001780000200000001041040402105737000159JPREQ20402209217000159   1030000100030000   541110001903777031200000019MOB BANK               YGN           MMR11004021057370001590402000000000000000   10300002 00104100000000000000000000003560     
100   35710830398014350000000000360000000000360000002000000010410404020906050007029036710402209215000702   1030000100030000   541110001907777031200000019MOB BANK               YGN           MMR11004020906050007020402000000000000000   10300003 00104100000000000000000000072000     
100   35710500135915220000000000006750000000006750002000000010410404021048460007148274690402209217000714   1030000100030000   541110001907777031200000019MOB BANK               YGN           MMR11004021048460007140402000000000000000   10300005 00104100000000000000000000001350     
100   35710500365275450000000000024200000000024200002000000010410404020636020012168220570402209213001216   1030000100030000   581250000001777031200000005MOB BANK               YGN           MMR11004020636020012160402000000000000000   10300005 00104100000000000000000000008228     
100   9503051025799723000000000004000000000004000000200000001041040402080740000153Y6WWVQ0402209214000153   1030000100030000   541110001903777031200000019MOB BANK               YGN           MMR11004020807400001530402000000000000000   10300002 00104100000000000000000000008000     
100   9503051026033270000000000004000000000004000000200000001041040401101733000357ADFPFW0401209116000357   1030000100030000   541110001915777031200000019MOB BANK               YGN           MMR11004011017330003570401000000000000000   10300002 00104100000000000000000000008000     
100   9503051026027116000000000003186000000003186000200000001041040401061012000219USCM680401209112000219   1030000100030000   541110001916777031200000019MOB BANK               YGN           MMR11004010610120002190401000000000000000   10300002 00104100000000000000000000006372     
100   35710500375713770000000000049800000000049800002000000010410404010835540006996084500401209115000699   1030000100030000   541110001905777031200000019MOB BANK               YGN           MMR11004010835540006990401000000000000000   10300005 00104100000000000000000000009960     
100   35710500371208860000000000052000000000052000002000000010410404011028360000892980800401209116000089   1030000100030000   541120000010777031200000002MOB BANK               YGN           MMR11004011028360000890401000000000000000   10300005 00104100000000000000000000010400     
100   35710500391369710000000000034200000000034200002000000010410404010940030000602523010401209116000060   1030000100030000   541120003112777031200000031MOB BANK               YGN           MMR11004010940030000600401000000000000000   10300005 00104100000000000000000000006840     
100   62346600101553780000000000054720000000054720002000000010410404010642390001348689200401209113000134   1030000100030000   541110001903777031200000019MOB BANK               YGN           MMR11004010642390001340401000000000000000   10300005 00104100000000000000000000010944     
100   62343302009513130000000000003150000000003150002000000010410404010320420006382017660401209109000638   1030000100030000   541110001907777031200000019MOB BANK               YGN           MMR11004010320420006380401000000000000000   10300004 00104100000000000000000000000630     
100   35710500383119140000000000069259000000069259002000000010410404010440500000304244220401209111000030   1030000100030000   541110001910777031200000019MOB BANK               YGN           MMR11004010440500000300401000000000000000   10300005 00104100000000000000000000013852     
100   9503051023702810000000000004600000000004600000200000001041040402095438000155XXXKUY0402209216000155   1030000100030000   541110001903777031200000019MOB BANK               YGN           MMR11004020954380001550402000000000000000   10300002 00104100000000000000000000009200     
100   35710830964470070000000000010000000000010000002000000010410404020903430004859022510402209215000485   1030000100030000   541120003117777031200000031MOB BANK               YGN           MMR11004020903430004850402000000000000000   10300003 00104100000000000000000000002000     
100   35710500353196700000000000010000000000010000002000000010410404021102010000819594870402209217000081   1030000100030000   541120003112777031200000031MOB BANK               YGN           MMR11004021102010000810402000000000000000   10300005 00104100000000000000000000002000     
100   9503054000671040000000000001054000000001054000200000001041040402062116000052H2HURZ0402209212000052   1030000100030000   541120003110777031200000031MOB BANK               YGN           MMR11004020621160000520402000000000000000   10300002 00104100000000000000000000002108     
100   62622000741057310000000000025200000000025200002000000010410404021220130003069669930402209218000306   1030000100030000   541120003103777031200000031MOB BANK               YGN           MMR11004021220130003060402000000000000000   10300006 00104100000000000000000000005040     
100   35710500303444000000000000010400000000010400002000000010410404020957410003241173950402209216000324   1030000100030000   541110001920777031200000019MOB BANK               YGN           MMR11004020957410003240402000000000000000   10300005 00104100000000000000000000002080     
100   35710500325308240000000000033128000000033128002000000010410404020709090003916965180402209213000391   1030000100030000   541110001915777031200000019MOB BANK               YGN           MMR11004020709090003910402000000000000000   10300005 00104100000000000000000000006626     
100   35710830606249530000000000022300000000022300002000000010410404020810420003938704310402209214000393   1030000100030000   541110001915777031200000019MOB BANK               YGN           MMR11004020810420003930402000000000000000   10300003 00104100000000000000000000004460     
100   9503051024816379000000000000800000000000800000200000001041040401092546000058DQW0VY0401209115000058   1030000100030000   541120003112777031200000031MOB BANK               YGN           MMR11004010925460000580401000000000000000   10300002 00104100000000000000000000001600     
100   35710500131872060000000000020000000000020000002000000010410404010423310003285634020401209110000328   1030000100030000   541110001915777031200000019MOB BANK               YGN           MMR11004010423310003280401000000000000000   10300005 00104100000000000000000000004000     
100   62441901002869560000000000120156000000120156002000000010410404010901350013577802350401209115001357   1030000100030000   541160000001777031200000006MOB BANK               YGN           MMR11004010901350013570401000000000000000   10300003 00104100000000000000000000042055     
100   9503051872844499000000000006400000000006400000200000001041040401052038000204HOCVQY0401209111000204   1030000100030000   541110001916777031200000019MOB BANK               YGN           MMR11004010520380002040401000000000000000   10300002 00104100000000000000000000012800     
100   9503051024986941000000000000290000000000290000200000001041040401104029000359VGL0PT0401209117000359   1030000100030000   541110001915777031200000019MOB BANK               YGN           MMR11004011040290003590401000000000000000   10300002 00104100000000000000000000000580     
100   9503051885661856000000000002510000000002510000200000001041040401115907000716JRD0E70401209118000716   1030000100030000   541110001905777031200000019MOB BANK               YGN           MMR11004011159070007160401000000000000000   10300002 00104100000000000000000000005020     
100   35710500183712760000000000020000000000020000002000000010410404010902580006497716250401209115000649   1030000100030000   541110001907777031200000019MOB BANK               YGN           MMR11004010902580006490401000000000000000   10300005 00104100000000000000000000004000     
100   95030510247085350000000000015210000000015210002000000010410404010845460002327JBT7R0401209115000232   1030000100030000   541110001916777031200000019MOB BANK               YGN           MMR11004010845460002320401000000000000000   10300002 00104100000000000000000000003042     
100   35710500131872060000000000016650000000016650002000000010410404010439290003301030750401209111000330   1030000100030000   541110001915777031200000019MOB BANK               YGN           MMR11004010439290003300401000000000000000   10300005 00104100000000000000000000003330     
100   35710500335158240000000000033750000000033750002000000010410404021005190003959798610402209216000395   1030000100030000   541110001915777031200000019MOB BANK               YGN           MMR11004021005190003950402000000000000000   10300005 00104100000000000000000000006750     
100   35710830306934920000000000080550000000080550002000000010410404021012300004019435210402209216000401   1030000100030000   541110001915777031200000019MOB BANK               YGN           MMR11004021012300004010402000000000000000   10300003 00104100000000000000000000016110     
100   9503051894117379000000000002000000000002000000200000001041040402063002000684SOX1LB0402209213000684   1030000100030000   541110001907777031200000019MOB BANK               YGN           MMR11004020630020006840402000000000000000   10300002 00104100000000000000000000004000     
100   62622000869589370000000000026550000000026550002000000010410404020709130007269946470402209213000726   1030000100030000   541110001905777031200000019MOB BANK               YGN           MMR11004020709130007260402000000000000000   10300006 00104100000000000000000000005310     
100   62346600164258740000000000019800000000019800002000000010410404020849140007292864410402209215000729   1030000100030000   541110001905777031200000019MOB BANK               YGN           MMR11004020849140007290402000000000000000   10300005 00104100000000000000000000003960     
100   35710830250146960000000000015300000000015300002000000010410404020600360004787923810402209212000478   1030000100030000   541120003117777031200000031MOB BANK               YGN           MMR11004020600360004780402000000000000000   10300003 00104100000000000000000000003060     
100   35710830250146960000000000030500000000030500002000000010410404020644020000698184310402209213000069   1030000100030000   541120003112777031200000031MOB BANK               YGN           MMR11004020644020000690402000000000000000   10300003 00104100000000000000000000006100     
100   35710500315630650000000000020750000000020750002000000010410404010537010003416228870401209112000341   1030000100030000   541110001915777031200000019MOB BANK               YGN           MMR11004010537010003410401000000000000000   10300005 00104100000000000000000000004150     
100   35710500142402930000000000029700000000029700002000000010410404010457310003327535400401209111000332   1030000100030000   541110001915777031200000019MOB BANK               YGN           MMR11004010457310003320401000000000000000   10300005 00104100000000000000000000005940     
100   62921400091401850000000000022200000000022200002000000010410404010907330006512222220401209115000651   1030000100030000   541110001907777031200000019MOB BANK               YGN           MMR11004010907330006510401000000000000000   10300009 00104100000000000000000000004440     
100   9503051025033933000000000010185000000010185000200000001041040401043434000033PJZZ7C0401209111000033   1030000100030000   541110001908777031200000019MOB BANK               YGN           MMR11004010434340000330401000000000000000   10300002 00104100000000000000000000020370     
100   35710500360599600000000000017500000000017500002000000010410404010750520000339116630401209114000033   1030000100030000   541110001904777031200000019MOB BANK               YGN           MMR11004010750520000330401000000000000000   10300005 00104100000000000000000000003500     
100   35710500131682630000000000025015000000025015002000000010410404010623250000401063820401209112000040   1030000100030000   541110001908777031200000019MOB BANK               YGN           MMR11004010623250000400401000000000000000   10300005 00104100000000000000000000005003     
100   35710830937773800000000000071690000000071690002000000010410404010638550000539513610401209113000053   1030000100030000   541110001919777031200000019MOB BANK               YGN           MMR11004010638550000530401000000000000000   10300003 00104100000000000000000000014338     
100   9503051887440127000000000002367000000002367000200000001041040401092227000238EX4IL20401209115000238   1030000100030000   541110001916777031200000019MOB BANK               YGN           MMR11004010922270002380401000000000000000   10300002 00104100000000000000000000004734     
100   35710500335463810000000000056000000000056000002000000010410404021139380004158242390402209218000415   1030000100030000   541110001915777031200000019MOB BANK               YGN           MMR11004021139380004150402000000000000000   10300005 00104100000000000000000000011200     
100   95031900052138730000000000060000000000060000002000000010410404020713550004262CFB4Q0402209213000426   1030000100030000   581210001201777031200000012MOB BANK               YGN           MMR11004020713550004260402000000000000000   10300014 00104100000000000000000000020400     
100   35710500315562340000000000013600000000013600002000000010410404020919420007058433460402209215000705   1030000100030000   541110001907777031200000019MOB BANK               YGN           MMR11004020919420007050402000000000000000   10300005 00104100000000000000000000002720     
100   35710950629682530000000000007700000000007700002000000010410404020826160012178797810402209214001217   1030000100030000   581250000001777031200000005MOB BANK               YGN           MMR11004020826160012170402000000000000000   10300003 00104100000000000000000000002618     
100   9503051020748857000000000002266000000002266000200000001041040402084157001218VAZ7UB0402209215001218   1030000100030000   581250000001777031200000005MOB BANK               YGN           MMR11004020841570012180402000000000000000   10300002 00104100000000000000000000007704     
100   62921400060231370000000000128960000000128960002000000010410404020746200013632222220402209214001363   1030000100030000   541160000001777031200000006MOB BANK               YGN           MMR11004020746200013630402000000000000000   10300009 00104100000000000000000000025792     
100   9503051019548912000000000002048000000002048000200000001041040401055608000644PGCMD90401209112000644   1030000100030000   541110001907777031200000019MOB BANK               YGN           MMR11004010556080006440401000000000000000   10300002 00104100000000000000000000004096     
100   35710500344979230000000000033400000000033400002000000010410404010652020006463114200401209113000646   1030000100030000   541110001907777031200000019MOB BANK               YGN           MMR11004010652020006460401000000000000000   10300005 00104100000000000000000000006680     
100   35710830369388420000000000063800000000063800002000000010410404011143360004241341720401209118000424   1030000100030000   581210001201777031200000012MOB BANK               YGN           MMR11004011143360004240401000000000000000   10300003 00104100000000000000000000021692     
100   62444501100156740000000000064949000000064949002000000010410404011014140006530141740401209116000653   1030000100030000   541110001907777031200000019MOB BANK               YGN           MMR11004011014140006530401000000000000000   10300002 00104100000000000000000000022732     
100   35710830249219660000000000003850000000003850002000000010410404011042310012120975320401209117001212   1030000100030000   581250000001777031200000005MOB BANK               YGN           MMR11004011042310012120401000000000000000   10300003 00104100000000000000000000001309     
100   35710830288545770000000000229750000000229750002000000010410404010449030000428854420401209111000042   1030000100030000   541110001919777031200000019MOB BANK               YGN           MMR11004010449030000420401000000000000000   10300003 00104100000000000000000000045950     
100   35710500130865230000000000017010000000017010002000000010410404010927470000590538220401209115000059   1030000100030000   541120003112777031200000031MOB BANK               YGN           MMR11004010927470000590401000000000000000   10300005 00104100000000000000000000003402     
100   9503051888906852000000000001800000000001800000200000001041040401110225000655QV9WJ00401209117000655   1030000100030000   541110001907777031200000019MOB BANK               YGN           MMR11004011102250006550401000000000000000   10300002 00104100000000000000000000003600     
100   35710830132160710000000000011800000000011800002000000010410404011057430007081066430401209117000708   1030000100030000   541110001905777031200000019MOB BANK               YGN           MMR11004011057430007080401000000000000000   10300003 00104100000000000000000000002360     
100   62346600140087970000000000012650000000012650002000000010410404011213480012135800490401209118001213   1030000100030000   581250000001777031200000005MOB BANK               YGN           MMR11004011213480012130401000000000000000   10300005 00104100000000000000000000004301     
100   35710500391495290000000000056000000000056000002000000010410404011124160003618375380401209117000361   1030000100030000   541110001915777031200000019MOB BANK               YGN           MMR11004011124160003610401000000000000000   10300005 00104100000000000000000000011200     
100   95030800076700570000000000009750000000009750002000000010410404010739020003499874320401209114000349   1030000100030000   541110001915777031200000019MOB BANK               YGN           MMR11004010739020003490401000000000000000   10300003 00104100000000000000000000001950     
100   35710830396496690000000000015000000000015000002000000010410404010924120002400505310401209115000240   1030000100030000   541110001916777031200000019MOB BANK               YGN           MMR11004010924120002400401000000000000000   10300003 00104100000000000000000000003000     
100   35710500360599600000000000051200000000051200002000000010410404010746130006926418790401209114000692   1030000100030000   541110001905777031200000019MOB BANK               YGN           MMR11004010746130006920401000000000000000   10300005 00104100000000000000000000010240     
100   9503051891208320000000000001810000000001810000200000001041040401082321000696NKVRML0401209114000696   1030000100030000   541110001905777031200000019MOB BANK               YGN           MMR11004010823210006960401000000000000000   10300002 00104100000000000000000000003620     
100   35710830391760770000000000043000000000043000002000000010410404010545210003439192210401209112000343   1030000100030000   541110001915777031200000019MOB BANK               YGN           MMR11004010545210003430401000000000000000   10300003 00104100000000000000000000008600     
100   35710500315630650000000000016200000000016200002000000010410404010602420002156659060401209112000215   1030000100030000   541110001916777031200000019MOB BANK               YGN           MMR11004010602420002150401000000000000000   10300005 00104100000000000000000000003240     
100   9503051019845557000000000001450000000001450000200000001041040402060812000146NPBUVH0402209212000146   1030000100030000   541110001903777031200000019MOB BANK               YGN           MMR11004020608120001460402000000000000000   10300002 00104100000000000000000000002900     
100   95030800016104300000000000053000000000053000002000000010410404020921560002529131800402209215000252   1030000100030000   541110001916777031200000019MOB BANK               YGN           MMR11004020921560002520402000000000000000   10300003 00104100000000000000000000010600     
100   35710500382976910000000000015900000000015900002000000010410404021108440004088708250402209217000408   1030000100030000   541110001915777031200000019MOB BANK               YGN           MMR11004021108440004080402000000000000000   10300005 00104100000000000000000000003180     
100   9503051896245483000000000000625000000000625000200000001041040402114213000417L0WNSK0402209218000417   1030000100030000   541110001915777031200000019MOB BANK               YGN           MMR11004021142130004170402000000000000000   10300002 00104100000000000000000000001250     
100   35710830653862510000000000045500000000045500002000000010410404020413260006707280710402209210000670   1030000100030000   541110001907777031200000019MOB BANK               YGN           MMR11004020413260006700402000000000000000   10300003 00104100000000000000000000009100     
100   35710500393864280000000000010486000000010486002000000010410404020636440006872291400402209213000687   1030000100030000   541110001907777031200000019MOB BANK               YGN           MMR11004020636440006870402000000000000000   10300005 00104100000000000000000000002097     
100   95030510259974420000000000067760000000067760002000000010410404021419260005381VCSDL0402209220000538   1030000100030000   581210001501777031200000015MOB BANK               YGN           MMR11004021419260005380402000000000000000   10300002 00104100000000000000000000023038     
