100   35710500340907280000000000034500000000034500002000000010410404030818210001797637110403209314000179   1030000100030000   541110001903777031200000019MOB BANK               YGN           MMR11004030818210001790403000000000000000   10300005 00104100000000000000000000006900     
100   35710830774471820000000000004400000000004400002000000010410404030412020004295912310403209310000429   1030000100030000   541110001915777031200000019MOB BANK               YGN           MMR11004030412020004290403000000000000000   10300003 00104100000000000000000000000880     
100   9503051887352488000000000000880000000000880000200000001041040403065442000445VOBSUF0403209313000445   1030000100030000   541110001915777031200000019MOB BANK               YGN           MMR11004030654420004450403000000000000000   10300002 00104100000000000000000000001760     
100   9503051886202627000000000002850000000002850000200000001041040403074213000750ARQV9B0403209314000750   1030000100030000   541110001905777031200000019MOB BANK               YGN           MMR11004030742130007500403000000000000000   10300002 00104100000000000000000000005700     
100   35710830906611810000000000100000000000100000002000000010410404030816150007517377710403209314000751   1030000100030000   541110001907777031200000019MOB BANK               YGN           MMR11004030816150007510403000000000000000   10300003 00104100000000000000000000020000     
100   95051010119317780000000000012609000000012609002000000010410404030648260001740186080403209313000174   1030000100030000   541110001903777031200000019MOB BANK               YGN           MMR11004030648260001740403000000000000000   10300005 00104100000000000000000000004413     
100   35710830529143960000000000050000000000050000002000000010410404030621440007386690600403209312000738   1030000100030000   541110001907777031200000019MOB BANK               YGN           MMR11004030621440007380403000000000000000   10300003 00104100000000000000000000010000     
100   62346600176312800000000000014000000000014000002000000010410404030818150007533736480403209314000753   1030000100030000   541110001907777031200000019MOB BANK               YGN           MMR11004030818150007530403000000000000000   10300005 00104100000000000000000000002800     
100   9503051887621643000000000002680000000002680000200000001041040403113617000753ZYFTRW0403209318000753   1030000100030000   541110001905777031200000019MOB BANK               YGN           MMR11004031136170007530403000000000000000   10300002 00104100000000000000000000005360     
100   35710830676876310000000000010450000000010450002000000010410404030543300012236461110403209312001223   1030000100030000   581250000001777031200000005MOB BANK               YGN           MMR11004030543300012230403000000000000000   10300003 00104100000000000000000000003553     
100   62346600109530120000000000007742000000007742002000000010410404030445570007258994280403209311000725   1030000100030000   541110001907777031200000019MOB BANK               YGN           MMR11004030445570007250403000000000000000   10300005 00104100000000000000000000001548     
100   9503051023251396000000000001440000000001440000200000001041040403050331000727YKBPJU0403209311000727   1030000100030000   541110001907777031200000019MOB BANK               YGN           MMR11004030503310007270403000000000000000   10300002 00104100000000000000000000002880     
100   9503051872911603000000000000780000000000780000200000001041040403083008000757KVVOBQ0403209315000757   1030000100030000   541110001907777031200000019MOB BANK               YGN           MMR11004030830080007570403000000000000000   10300002 00104100000000000000000000001560     
100   35710830096358210000000000016100000000016100002000000010410404031106270001268398910403209317000126   1030000100030000   541120003001777031200000030MOB BANK               YGN           MMR11004031106270001260403000000000000000   10300003 00104100000000000000000000003220     
100   9503051023023977000000000002592000000002592000200000001041040403073517000178SYEQMV0403209314000178   1030000100030000   541110001903777031200000019MOB BANK               YGN           MMR11004030735170001780403000000000000000   10300002 00104100000000000000000000005184     
100   9503051892237492000000000001841000000001841000200000001041040403080609000358VBD5XE0403209314000358   1030000100030000   541110001920777031200000019MOB BANK               YGN           MMR11004030806090003580403000000000000000   10300002 00104100000000000000000000003682     
100   95030800076335680000000000021510000000021510002000000010410404030628240004416730600403209312000441   1030000100030000   541110001915777031200000019MOB BANK               YGN           MMR11004030628240004410403000000000000000   10300003 00104100000000000000000000004302     
100   9503051894230172000000000003578000000003578000200000001041040403090958000761GHX9RL0403209315000761   1030000100030000   541110001907777031200000019MOB BANK               YGN           MMR11004030909580007610403000000000000000   10300002 00104100000000000000000000007156     
100   9503051895976781000000000001865000000001865000200000001041040403095247000763UJJIRO0403209316000763   1030000100030000   541110001907777031200000019MOB BANK               YGN           MMR11004030952470007630403000000000000000   10300002 00104100000000000000000000003730     
100   35710500385767220000000000027500000000027500002000000010410404030835510001812876090403209315000181   1030000100030000   541110001903777031200000019MOB BANK               YGN           MMR11004030835510001810403000000000000000   10300005 00104100000000000000000000005500     
100   9503051884140126000000000002322000000002322000200000001041040403061606000170UTMYY10403209312000170   1030000100030000   541110001903777031200000019MOB BANK               YGN           MMR11004030616060001700403000000000000000   10300002 00104100000000000000000000004644     
100   35710500320092250000000000017640000000017640002000000010410404030719360003430134510403209313000343   1030000100030000   541110001920777031200000019MOB BANK               YGN           MMR11004030719360003430403000000000000000   10300005 00104100000000000000000000003528     
100   35710500345761480000000000008736000000008736002000000010410404031117230003658565410403209317000365   1030000100030000   541110001920777031200000019MOB BANK               YGN           MMR11004031117230003650403000000000000000   10300005 00104100000000000000000000001747     
100   9503051894205786000000000000970000000000970000200000001041040403063532000740ER7MMA0403209313000740   1030000100030000   541110001907777031200000019MOB BANK               YGN           MMR11004030635320007400403000000000000000   10300002 00104100000000000000000000001940     
100   9503051889068496000000000000195000000000195000200000001041040403110427000768R1EEQU0403209317000768   1030000100030000   541110001907777031200000019MOB BANK               YGN           MMR11004031104270007680403000000000000000   10300002 00104100000000000000000000000390     
100   35710830732609510000000000003000000000003000002000000010410404030714130001757005410403209313000175   1030000100030000   541110001903777031200000019MOB BANK               YGN           MMR11004030714130001750403000000000000000   10300003 00104100000000000000000000000600     
100   35710950568471660000000000015800000000015800002000000010410404030335460001665694710403209310000166   1030000100030000   541110001903777031200000019MOB BANK               YGN           MMR11004030335460001660403000000000000000   10300003 00104100000000000000000000003160     
100   9503051020481103000000000002460000000002460000200000001041040403112936000186QD9EWO0403209317000186   1030000100030000   541110001903777031200000019MOB BANK               YGN           MMR11004031129360001860403000000000000000   10300002 00104100000000000000000000004920     
100   35710830276803460000000000028000000000028000002000000010410404030510330007296263410403209311000729   1030000100030000   541110001907777031200000019MOB BANK               YGN           MMR11004030510330007290403000000000000000   10300003 00104100000000000000000000005600     
100   35710500340360280000000000004725000000004725002000000010410404031005160012268643140403209316001226   1030000100030000   581250000001777031200000005MOB BANK               YGN           MMR11004031005160012260403000000000000000   10300005 00104100000000000000000000001606     
100   35710830294935990000000000028600000000028600002000000010410404030752380012247235910403209314001224   1030000100030000   581250000001777031200000005MOB BANK               YGN           MMR11004030752380012240403000000000000000   10300003 00104100000000000000000000009724     
100   62622000429979120000000000042000000000042000002000000010410404030604210004399771130403209312000439   1030000100030000   541110001915777031200000019MOB BANK               YGN           MMR11004030604210004390403000000000000000   10300006 00104100000000000000000000008400     
100   62921400065982780000000000048111110000048111112000000010410404030317350004252222220403209309000425   1030000100030000   541110001915777031200000019MOB BANK               YGN           MMR11004030317350004250403000000000000000   10300009 00104100000000000000000000009622     
100   35710500304785470000000000006950000000006950002000000010410404031054010007654612970403209317000765   1030000100030000   541110001907777031200000019MOB BANK               YGN           MMR11004031054010007650403000000000000000   10300005 00104100000000000000000000001390     
100   950319000048785200000000000235000000000235000020000000104104040309202600002657F32O0403209315000026   1030000100030000   509410900008777030900000006MOB BANK               YGN           MMR11004030920260000260403000000000000000   10300014 00104100000000000000000000011750     
100   9503051023023977000000000003492000000003492000200000001041040403062629000172457SCD0403209312000172   1030000100030000   541110001903777031200000019MOB BANK               YGN           MMR11004030626290001720403000000000000000   10300002 00104100000000000000000000006984     
100   35710830385540760000000000074000000000074000002000000010410404031129070004628534820403209317000462   1030000100030000   541110001915777031200000019MOB BANK               YGN           MMR11004031129070004620403000000000000000   10300003 00104100000000000000000000014800     
100   35710830668568640000000000011340000000011340002000000010410404030425030003345990410403209310000334   1030000100030000   541110001920777031200000019MOB BANK               YGN           MMR11004030425030003340403000000000000000   10300003 00104100000000000000000000002268     
100   35710830741083240000000000027000000000027000002000000010410404031131200004638548210403209318000463   1030000100030000   541110001915777031200000019MOB BANK               YGN           MMR11004031131200004630403000000000000000   10300003 00104100000000000000000000005400     
100   35710830853808130000000000039500000000039500002000000010410404030719060007427034710403209313000742   1030000100030000   541110001907777031200000019MOB BANK               YGN           MMR11004030719060007420403000000000000000   10300003 00104100000000000000000000007900     
100   95031100010627510000000000041950000000041950002000000010410404030501340007429670960403209311000742   1030000100030000   541110001905777031200000019MOB BANK               YGN           MMR11004030501340007420403000000000000000   10300006 00104100000000000000000000008390     
100   95030518942301720000000000013500000000013500002000000010410404030841060001828NF7LJ0403209315000182   1030000100030000   541110001903777031200000019MOB BANK               YGN           MMR11004030841060001820403000000000000000   10300002 00104100000000000000000000002700     
100   9503051884335098000000000003942000000003942000200000001041040403121605000187KGAYSZ0403209318000187   1030000100030000   541110001903777031200000019MOB BANK               YGN           MMR11004031216050001870403000000000000000   10300002 00104100000000000000000000007884     
100   9503051026134623000000000005480000000005480000200000001041040403091238000360MCMOVW0403209315000360   1030000100030000   541110001920777031200000019MOB BANK               YGN           MMR11004030912380003600403000000000000000   10300002 00104100000000000000000000010960     
100   62622000154724630000000000030772000000030772002000000010410404030517190007310013920403209311000731   1030000100030000   541110001907777031200000019MOB BANK               YGN           MMR11004030517190007310403000000000000000   10300006 00104100000000000000000000006154     
100   62346600107078550000000000011550000000011550002000000010410404031010080012288338410403209316001228   1030000100030000   581250000001777031200000005MOB BANK               YGN           MMR11004031010080012280403000000000000000   10300005 00104100000000000000000000003927     
100   35710950545197420000000000026000000000026000002000000010410404031150210007738662310403209318000773   1030000100030000   541110001907777031200000019MOB BANK               YGN           MMR11004031150210007730403000000000000000   10300003 00104100000000000000000000005200     
100   62441900002003700000000000031750000000031750002000000010410404030556140001192025480403209312000119   1030000100030000   541120003001777031200000030MOB BANK               YGN           MMR11004030556140001190403000000000000000   10300003 00104100000000000000000000011112     
100   35710830025859730000000000041940000000041940002000000010410404030357300001675825200403209310000167   1030000100030000   541110001903777031200000019MOB BANK               YGN           MMR11004030357300001670403000000000000000   10300003 00104100000000000000000000008388     
100   9503051883525681000000000001728400000001728400200000001041040403070618000450UKZBVS0403209313000450   1030000100030000   541110001915777031200000019MOB BANK               YGN           MMR11004030706180004500403000000000000000   10300002 00104100000000000000000000003457     
100   9503054000479741000000000002185000000002185000200000001041040403051433000744JCVZYM0403209311000744   1030000100030000   541110001905777031200000019MOB BANK               YGN           MMR11004030514330007440403000000000000000   10300002 00104100000000000000000000004370     
100   35710500353895580000000000020200000000020200002000000010410404031130340007719460100403209318000771   1030000100030000   541110001907777031200000019MOB BANK               YGN           MMR11004031130340007710403000000000000000   10300005 00104100000000000000000000004040     
100   35710830835972930000000000010800000000010800002000000010410404030610410000616624300403209312000061   1030000100030000   541120003006777031200000030MOB BANK               YGN           MMR11004030610410000610403000000000000000   10300003 00104100000000000000000000002160     
100   35710500385767220000000000019000000000019000002000000010410404030824030001800825710403209314000180   1030000100030000   541110001903777031200000019MOB BANK               YGN           MMR11004030824030001800403000000000000000   10300005 00104100000000000000000000003800     
100   9503051874505254000000000002208000000002208000200000001041040403090405000183GO3VHA0403209315000183   1030000100030000   541110001903777031200000019MOB BANK               YGN           MMR11004030904050001830403000000000000000   10300002 00104100000000000000000000004416     
100   9503051872598954000000000003320000000003320000200000001041040403072154000345OGFUMQ0403209313000345   1030000100030000   541110001920777031200000019MOB BANK               YGN           MMR11004030721540003450403000000000000000   10300002 00104100000000000000000000006640     
100   35710830732609510000000000019200000000019200002000000010410404030737490003547147100403209314000354   1030000100030000   541110001920777031200000019MOB BANK               YGN           MMR11004030737490003540403000000000000000   10300003 00104100000000000000000000003840     
100   62346600100406460000000000075000000000075000002000000010410404030728190007451347720403209313000745   1030000100030000   541110001907777031200000019MOB BANK               YGN           MMR11004030728190007450403000000000000000   10300005 00104100000000000000000000015000     
100   35710500155206100000000000011970000000011970002000000010410404031032230003624039870403209317000362   1030000100030000   541110001920777031200000019MOB BANK               YGN           MMR11004031032230003620403000000000000000   10300005 00104100000000000000000000002394     
100   35710830161915110000000000022500000000022500002000000010410404030539060007336434800403209312000733   1030000100030000   541110001907777031200000019MOB BANK               YGN           MMR11004030539060007330403000000000000000   10300003 00104100000000000000000000004500     
100   9503051884370277000000000001692000000001692000200000001041040403072647000176DSXRUQ0403209313000176   1030000100030000   541110001903777031200000019MOB BANK               YGN           MMR11004030726470001760403000000000000000   10300002 00104100000000000000000000003384     
100   95030800076335680000000000028350000000028350002000000010410404030633350004426761620403209313000442   1030000100030000   541110001915777031200000019MOB BANK               YGN           MMR11004030633350004420403000000000000000   10300003 00104100000000000000000000005670     
100   9503190001165234000000000005490000000005490000200000001041040403090902000455H5F7840403209315000455   1030000100030000   541110001915777031200000019MOB BANK               YGN           MMR11004030909020004550403000000000000000   10300014 00104100000000000000000000010980     
100   35710950391078600000000000009450000000009450002000000010410404030354270004275806820403209310000427   1030000100030000   541110001915777031200000019MOB BANK               YGN           MMR11004030354270004270403000000000000000   10300003 00104100000000000000000000001890     
100   62921400084656410000000000068000000000068000002000000010410404030517220004352222220403209311000435   1030000100030000   541110001915777031200000019MOB BANK               YGN           MMR11004030517220004350403000000000000000   10300009 00104100000000000000000000013600     
100   9503051883525681000000000004484000000004484000200000001041040403072818000453FSCNJU0403209313000453   1030000100030000   541110001915777031200000019MOB BANK               YGN           MMR11004030728180004530403000000000000000   10300002 00104100000000000000000000008968     
100   9503051872598954000000000004990000000004990000200000001041040403075800000748SYKGWP0403209314000748   1030000100030000   541110001907777031200000019MOB BANK               YGN           MMR11004030758000007480403000000000000000   10300002 00104100000000000000000000009980     
100   35710830304968540000000000024330000000024330002000000010410404030704480003406949000403209313000340   1030000100030000   541110001920777031200000019MOB BANK               YGN           MMR11004030704480003400403000000000000000   10300003 00104100000000000000000000004866     
100   62441900101362260000000000023650000000023650002000000010410404031347020005495057390403209320000549   1030000100030000   581210001501777031200000015MOB BANK               YGN           MMR11004031347020005490403000000000000000   10300003 00104100000000000000000000014072     
100   35710500310192410000000000009900000000009900002000000010410404030409590012223035160403209310001222   1030000100030000   581250000001777031200000005MOB BANK               YGN           MMR11004030409590012220403000000000000000   10300005 00104100000000000000000000003366     
100   9503051883297208000000000002184000000002184000200000001041040402072906000116JXMKRY0402209213000116   1030000100030000   541120003001777031200000030MOB BANK               YGN           MMR11004020729060001160402000000000000000   10300002 00104100000000000000000000004368     
100   35710830623958420000000000055870000000055870002000000010410404020543000001157818110402209212000115   1030000100030000   541120003001777031200000030MOB BANK               YGN           MMR11004020543000001150402000000000000000   10300003 00104100000000000000000000011174     
100   9503051895806467000000000000970000000000970000200000001041040403084032000759JRHI8H0403209315000759   1030000100030000   541110001907777031200000019MOB BANK               YGN           MMR11004030840320007590403000000000000000   10300002 00104100000000000000000000001940     
100   9503190000098121000000000000990000000000990000200000001041040403122610001229A27YO30403209318001229   1030000100030000   581250000001777031200000005MOB BANK               YGN           MMR11004031226100012290403000000000000000   10300014 00104100000000000000000000003366     
100   35710830322266550000000000010500000000010500002000000010410404030856290001227619010403209315000122   1030000100030000   541120003001777031200000030MOB BANK               YGN           MMR11004030856290001220403000000000000000   10300003 00104100000000000000000000002100     
100   35710500183365270000000000011000000000011000002000000010410404030755220012259374350403209314001225   1030000100030000   581250000001777031200000005MOB BANK               YGN           MMR11004030755220012250403000000000000000   10300005 00104100000000000000000000003740     
100   35710830253780180000000000019600000000019600002000000010410404030315110004245571310403209309000424   1030000100030000   541110001915777031200000019MOB BANK               YGN           MMR11004030315110004240403000000000000000   10300003 00104100000000000000000000003920     
100   95030518922374920000000000013400000000013400002000000010410404030718170007485TUAT60403209313000748   1030000100030000   541110001905777031200000019MOB BANK               YGN           MMR11004030718170007480403000000000000000   10300002 00104100000000000000000000002680     
100   35710500305311880000000000009050000000009050002000000010410404031251210007617402580403209319000761   1030000100030000   541110001905777031200000019MOB BANK               YGN           MMR11004031251210007610403000000000000000   10300005 00104100000000000000000000001810     
100   62343302009100790000000000060000000000060000002000000010410404030545570007366837420403209312000736   1030000100030000   541110001907777031200000019MOB BANK               YGN           MMR11004030545570007360403000000000000000   10300004 00104100000000000000000000012000     
100   9503190001165234000000000004800000000004800000200000001041040403113609000464RTDLVV0403209318000464   1030000100030000   541110001915777031200000019MOB BANK               YGN           MMR11004031136090004640403000000000000000   10300014 00104100000000000000000000009600     
100   62346600147530530000000000011900000000011900002000000010410404030659540004475305650403209313000447   1030000100030000   541110001915777031200000019MOB BANK               YGN           MMR11004030659540004470403000000000000000   10300005 00104100000000000000000000002380     
100   35710830595173660000000000017050000000017050002000000010410404030621180001206688000403209312000120   1030000100030000   541120003001777031200000030MOB BANK               YGN           MMR11004030621180001200403000000000000000   10300003 00104100000000000000000000003410     
100   35710830527484220000000000018250000000018250002000000010410404030500080004336201000403209311000433   1030000100030000   541110001915777031200000019MOB BANK               YGN           MMR11004030500080004330403000000000000000   10300003 00104100000000000000000000003650     
100   62346600101921810000000000011750000000011750002000000010410404030439030003377935080403209311000337   1030000100030000   541110001920777031200000019MOB BANK               YGN           MMR11004030439030003370403000000000000000   10300005 00104100000000000000000000002350     
100   95031100010627510000000000047000000000047000002000000010410404030447040004319681520403209311000431   1030000100030000   541110001915777031200000019MOB BANK               YGN           MMR11004030447040004310403000000000000000   10300006 00104100000000000000000000009400     
100   95031010940608100000000000011340000000011340002000000010410404030726000003498976640403209313000349   1030000100030000   541110001920777031200000019MOB BANK               YGN           MMR11004030726000003490403000000000000000   10300005 00104100000000000000000000002268     
100   62346600101504030000000000149800000000149800002000000010410404031041290001853237630403209317000185   1030000100030000   541110001903777031200000019MOB BANK               YGN           MMR11004031041290001850403000000000000000   10300005 00104100000000000000000000029960     
100   35710500325468610000000000053000000000053000002000000010410404030522390004376963850403209311000437   1030000100030000   541110001915777031200000019MOB BANK               YGN           MMR11004030522390004370403000000000000000   10300005 00104100000000000000000000010600     
100   35710830129296330000000000040320000000040320002000000010410404030634230001736766410403209313000173   1030000100030000   541110001903777031200000019MOB BANK               YGN           MMR11004030634230001730403000000000000000   10300003 00104100000000000000000000008064     
100   9503051022605469000000000002772000000002772000200000001041040403061726000171FR7XEJ0403209312000171   1030000100030000   541110001903777031200000019MOB BANK               YGN           MMR11004030617260001710403000000000000000   10300002 00104100000000000000000000005544     
100   35710500320092250000000000018150000000018150002000000010410404030652540004449370770403209313000444   1030000100030000   541110001915777031200000019MOB BANK               YGN           MMR11004030652540004440403000000000000000   10300005 00104100000000000000000000003630     
100   35710500304003430000000000155000000000155000002000000010410404031015250000858033680403209316000085   1030000100030000   541120002101777031200000021MOB BANK               YGN           MMR11004031015250000850403000000000000000   10300005 00104100000000000000000000031000     
100   9503051022282103000000000004032000000004032000200000001041040403073230000177P63XMM0403209314000177   1030000100030000   541110001903777031200000019MOB BANK               YGN           MMR11004030732300001770403000000000000000   10300002 00104100000000000000000000008064     
100   35710830527484220000000000034920000000034920002000000010410404030426360001685999800403209310000168   1030000100030000   541110001903777031200000019MOB BANK               YGN           MMR11004030426360001680403000000000000000   10300003 00104100000000000000000000006984     
100   35710830646451940000000000023220000000023220002000000010410404030936510001847861310403209316000184   1030000100030000   541110001903777031200000019MOB BANK               YGN           MMR11004030936510001840403000000000000000   10300003 00104100000000000000000000004644     
