100   9503051025318771000000000028220000000028220000200000001041040405123446000437YTLZX20405209519000437   1030000100030000   581210001201777031200000012MOB BANK               YGN           MMR11004051234460004370405000000000000000   10300002 00104100000000000000000000095948     
100   95030510203932660000000000035010000000035010002000000010410404060924190002476QED1U0406209615000247   1030000100030000   541110001903777031200000019MOB BANK               YGN           MMR11004060924190002470406000000000000000   10300002 00104100000000000000000000007002     
100   95031100014843100000000000035900000000035900002000000010410404060726290001390735040406209613000139   1030000100030000   541120003001777031200000030MOB BANK               YGN           MMR11004060726290001390406000000000000000   10300006 00104100000000000000000000007180     
100   62346600121299180000000000021240000000021240002000000010410404060938370002523221490406209616000252   1030000100030000   541110001903777031200000019MOB BANK               YGN           MMR11004060938370002520406000000000000000   10300005 00104100000000000000000000004248     
100   9503051019635339000000000000734400000000734400200000001041040406093411000044RFRZQE0406209616000044   1030000100030000   541110001917777031200000019MOB BANK               YGN           MMR11004060934110000440406000000000000000   10300002 00104100000000000000000000001469     
100   35710830644556360000000000018500000000018500002000000010410404060719590002382960100406209613000238   1030000100030000   541110001903777031200000019MOB BANK               YGN           MMR11004060719590002380406000000000000000   10300003 00104100000000000000000000003700     
100   35710830036199950000000000005760000000005760002000000010410404060444380000402027910406209611000040   1030000100030000   541110001917777031200000019MOB BANK               YGN           MMR11004060444380000400406000000000000000   10300003 00104100000000000000000000001152     
100   35710500190305090000000000085500000000085500002000000010410404060848090002446283720406209615000244   1030000100030000   541110001903777031200000019MOB BANK               YGN           MMR11004060848090002440406000000000000000   10300005 00104100000000000000000000017100     
100   35710830280011380000000000099540000000099540002000000010410404060928300002483731210406209615000248   1030000100030000   541110001903777031200000019MOB BANK               YGN           MMR11004060928300002480406000000000000000   10300003 00104100000000000000000000019908     
100   9503051024979839000000000002990000000002990000200000001041040406080520000241CF5FX00406209614000241   1030000100030000   541110001903777031200000019MOB BANK               YGN           MMR11004060805200002410406000000000000000   10300002 00104100000000000000000000005980     
100   9503051872713363000000000002592000000002592000200000001041040406111827000256WM3HIL0406209617000256   1030000100030000   541110001903777031200000019MOB BANK               YGN           MMR11004061118270002560406000000000000000   10300002 00104100000000000000000000005184     
100   9503051023978147000000000001872000000001872000200000001041040406071031000235M2NTGG0406209613000235   1030000100030000   541110001903777031200000019MOB BANK               YGN           MMR11004060710310002350406000000000000000   10300002 00104100000000000000000000003744     
100   35710500180949020000000000027720000000027720002000000010410404060355040002309660810406209610000230   1030000100030000   541110001903777031200000019MOB BANK               YGN           MMR11004060355040002300406000000000000000   10300005 00104100000000000000000000005544     
100   62343302007450790000000000012420000000012420002000000010410404060935180001402845190406209616000140   1030000100030000   541120003001777031200000030MOB BANK               YGN           MMR11004060935180001400406000000000000000   10300004 00104100000000000000000000002484     
100   9503051026198198000000000001692000000001692000200000001041040406072533000239ZYVWHT0406209613000239   1030000100030000   541110001903777031200000019MOB BANK               YGN           MMR11004060725330002390406000000000000000   10300002 00104100000000000000000000003384     
100   62346600121299180000000000029520000000029520002000000010410404060931110002499960250406209616000249   1030000100030000   541110001903777031200000019MOB BANK               YGN           MMR11004060931110002490406000000000000000   10300005 00104100000000000000000000005904     
100   35710500364027560000000000039420000000039420002000000010410404060403010002311908970406209610000231   1030000100030000   541110001903777031200000019MOB BANK               YGN           MMR11004060403010002310406000000000000000   10300005 00104100000000000000000000007884     
100   9503190004788289000000000004131000000004131000200000001041040406030901000228PGLF850406209609000228   1030000100030000   541110001903777031200000019MOB BANK               YGN           MMR11004060309010002280406000000000000000   10300014 00104100000000000000000000008262     
100   9503051024023604000000000002772000000002772000200000001041040406104509000255QSNULG0406209617000255   1030000100030000   541110001903777031200000019MOB BANK               YGN           MMR11004061045090002550406000000000000000   10300002 00104100000000000000000000005544     
100   9503051019635339000000000000768000000000768000200000001041040406093542000045WBDUKL0406209616000045   1030000100030000   541110001917777031200000019MOB BANK               YGN           MMR11004060935420000450406000000000000000   10300002 00104100000000000000000000001536     
100   35710830419574720000000000019900000000019900002000000010410404060716060002362936810406209613000236   1030000100030000   541110001903777031200000019MOB BANK               YGN           MMR11004060716060002360406000000000000000   10300003 00104100000000000000000000003980     
100   35710500164662270000000000035800000000035800002000000010410404060938180000461802400406209616000046   1030000100030000   541110001917777031200000019MOB BANK               YGN           MMR11004060938180000460406000000000000000   10300005 00104100000000000000000000007160     
100   35710500315147460000000000012500000000012500002000000010410404060423100001284250300406209610000128   1030000100030000   541120003104777031200000031MOB BANK               YGN           MMR11004060423100001280406000000000000000   10300005 00104100000000000000000000002500     
100   35710830821614480000000000211900000000211900002000000010410404060613380002042561920406209612000204   1030000100030000   541120000017777031200000002MOB BANK               YGN           MMR11004060613380002040406000000000000000   10300003 00104100000000000000000000042380     
100   35710830098487880000000000016000000000016000002000000010410404060536400002322340110406209612000232   1030000100030000   541110001903777031200000019MOB BANK               YGN           MMR11004060536400002320406000000000000000   10300003 00104100000000000000000000003200     
100   62343301011645290000000000059800000000059800002000000010410404060655250002339002060406209613000233   1030000100030000   541110001903777031200000019MOB BANK               YGN           MMR11004060655250002330406000000000000000   10300004 00104100000000000000000000011960     
100   35710500190305090000000000727070000000727070002000000010410404060843260002430063610406209615000243   1030000100030000   541110001903777031200000019MOB BANK               YGN           MMR11004060843260002430406000000000000000   10300005 00104100000000000000000000145414     
100   62346600187037570000000000019500000000019500002000000010410404060353220002299155950406209610000229   1030000100030000   541110001903777031200000019MOB BANK               YGN           MMR11004060353220002290406000000000000000   10300005 00104100000000000000000000003900     
100   35710500112568700000000000027720000000027720002000000010410404060947210002534787990406209616000253   1030000100030000   541110001903777031200000019MOB BANK               YGN           MMR11004060947210002530406000000000000000   10300005 00104100000000000000000000005544     
100   35710500313646390000000000017100000000017100002000000010410404060958420001415882460406209616000141   1030000100030000   541120003001777031200000030MOB BANK               YGN           MMR11004060958420001410406000000000000000   10300005 00104100000000000000000000003420     
100   35710500112568700000000000027720000000027720002000000010410404060933150002500457030406209616000250   1030000100030000   541110001903777031200000019MOB BANK               YGN           MMR11004060933150002500406000000000000000   10300005 00104100000000000000000000005544     
100   95030510240236040000000000027720000000027720002000000010410404061039190002542UGUKG0406209617000254   1030000100030000   541110001903777031200000019MOB BANK               YGN           MMR11004061039190002540406000000000000000   10300002 00104100000000000000000000005544     
100   35710830193800530000000000064020000000064020002000000010410404061424130005625505410406209620000562   1030000100030000   581210001501777031200000015MOB BANK               YGN           MMR11004061424130005620406000000000000000   10300003 00104100000000000000000000021767     
100   35710950650144440000000000020520000000020520002000000010410404060935310002513773310406209616000251   1030000100030000   541110001903777031200000019MOB BANK               YGN           MMR11004060935310002510406000000000000000   10300003 00104100000000000000000000004104     
100   35710830742731020000000000011500000000011500002000000010410404060518440000422232610406209611000042   1030000100030000   541110001917777031200000019MOB BANK               YGN           MMR11004060518440000420406000000000000000   10300003 00104100000000000000000000002300     
100   62346600187037570000000000005650000000005650002000000010410404060707560008729641090406209613000872   1030000100030000   541110001907777031200000019MOB BANK               YGN           MMR11004060707560008720406000000000000000   10300005 00104100000000000000000000001130     
100   9503051892223625000000000000735000000000735000200000001041040406055048000837JVHNFA0406209612000837   1030000100030000   541110001905777031200000019MOB BANK               YGN           MMR11004060550480008370406000000000000000   10300002 00104100000000000000000000001470     
100   95030510252482590000000000027440000000027440002000000010410404061047560008539D2Q4E0406209617000853   1030000100030000   541110001905777031200000019MOB BANK               YGN           MMR11004061047560008530406000000000000000   10300002 00104100000000000000000000005488     
100   35710830203067250000000000010800000000010800002000000010410404060630440004262664610406209613000426   1030000100030000   541110001920777031200000019MOB BANK               YGN           MMR11004060630440004260406000000000000000   10300003 00104100000000000000000000002160     
100   35710830876267750000000000007500000000007500002000000010410404060855410004393534310406209615000439   1030000100030000   541110001920777031200000019MOB BANK               YGN           MMR11004060855410004390406000000000000000   10300003 00104100000000000000000000001500     
100   9503051887948962000000000006000000000006000000200000001041040406123655000888U58IU50406209619000888   1030000100030000   541110001907777031200000019MOB BANK               YGN           MMR11004061236550008880406000000000000000   10300002 00104100000000000000000000012000     
100   9503051025248259000000000000240000000000240000200000001041040406105153000856ELEBVD0406209617000856   1030000100030000   541110001905777031200000019MOB BANK               YGN           MMR11004061051530008560406000000000000000   10300002 00104100000000000000000000000480     
100   9503051885863312000000000005780000000005780000200000001041040406071437000876KVHAGK0406209613000876   1030000100030000   541110001907777031200000019MOB BANK               YGN           MMR11004060714370008760406000000000000000   10300002 00104100000000000000000000011560     
100   9503051021982026000000000011610000000011610000200000001041040406110046000861Q7A4MB0406209617000861   1030000100030000   541110001905777031200000019MOB BANK               YGN           MMR11004061100460008610406000000000000000   10300002 00104100000000000000000000023220     
100   62346600164706490000000000014400000000014400002000000010410404060855000008425743210406209615000842   1030000100030000   541110001905777031200000019MOB BANK               YGN           MMR11004060855000008420406000000000000000   10300005 00104100000000000000000000002880     
100   35710830098487880000000000010880000000010880002000000010410404060726090008782997010406209613000878   1030000100030000   541110001907777031200000019MOB BANK               YGN           MMR11004060726090008780406000000000000000   10300003 00104100000000000000000000002176     
100   35710830203067250000000000005400000000005400002000000010410404060642330004332735500406209613000433   1030000100030000   541110001920777031200000019MOB BANK               YGN           MMR11004060642330004330406000000000000000   10300003 00104100000000000000000000001080     
100   9503051025062023000000000019800000000019800000200000001041040406033030000863VBCSGE0406209610000863   1030000100030000   541110001907777031200000019MOB BANK               YGN           MMR11004060330300008630406000000000000000   10300002 00104100000000000000000000039600     
100   9503051021982026000000000019800000000019800000200000001041040406112131000864BBDUHS0406209617000864   1030000100030000   541110001905777031200000019MOB BANK               YGN           MMR11004061121310008640406000000000000000   10300002 00104100000000000000000000039600     
100   95030518872673630000000000014960000000014960002000000010410404060633160004296QJNZQ0406209613000429   1030000100030000   541110001920777031200000019MOB BANK               YGN           MMR11004060633160004290406000000000000000   10300002 00104100000000000000000000002992     
100   62343301016627610000000000005130000000005130002000000010410404060326380004212849180406209609000421   1030000100030000   541110001920777031200000019MOB BANK               YGN           MMR11004060326380004210406000000000000000   10300004 00104100000000000000000000001026     
100   9503051026045308000000000009000000000009000000200000001041040406052056000866EIT6AS0406209611000866   1030000100030000   541110001907777031200000019MOB BANK               YGN           MMR11004060520560008660406000000000000000   10300002 00104100000000000000000000018000     
100   62346600117420750000000000148800000000148800002000000010410404060306370013952196560406209609001395   1030000100030000   541160000001777031200000006MOB BANK               YGN           MMR11004060306370013950406000000000000000   10300005 00104100000000000000000000029760     
100   35710500190305090000000000308360000000308360002000000010410404060451400013974747090406209611001397   1030000100030000   541160000001777031200000006MOB BANK               YGN           MMR11004060451400013970406000000000000000   10300005 00104100000000000000000000061672     
100   9503051021934233000000000019800000000019800000200000001041040406094058000883PRVKNH0406209616000883   1030000100030000   541110001907777031200000019MOB BANK               YGN           MMR11004060940580008830406000000000000000   10300002 00104100000000000000000000039600     
100   95030510218356530000000000017200000000017200002000000010410404060638070008687NTYRY0406209613000868   1030000100030000   541110001907777031200000019MOB BANK               YGN           MMR11004060638070008680406000000000000000   10300002 00104100000000000000000000003440     
100   62921400074567080000000000011800000000011800002000000010410404061050050008862222220406209617000886   1030000100030000   541110001907777031200000019MOB BANK               YGN           MMR11004061050050008860406000000000000000   10300009 00104100000000000000000000002360     
100   35650973630005370000000000146072000000146072002000000010410404060511350013996134530406209611001399   1030000100030000   541160000001777031200000006MOB BANK               YGN           MMR11004060511350013990406000000000000000   10300005 00104100000000000000000000051125     
100   95031100012416370000000000009600000000009600002000000010410404060800370004360019580406209614000436   1030000100030000   541110001920777031200000019MOB BANK               YGN           MMR11004060800370004360406000000000000000   10300006 00104100000000000000000000001920     
100   35710500112568700000000000014340000000014340002000000010410404061000270008481605780406209616000848   1030000100030000   541110001905777031200000019MOB BANK               YGN           MMR11004061000270008480406000000000000000   10300005 00104100000000000000000000002868     
100   35710830419574720000000000007300000000007300002000000010410404060644030008702744510406209613000870   1030000100030000   541110001907777031200000019MOB BANK               YGN           MMR11004060644030008700406000000000000000   10300003 00104100000000000000000000001460     
100   9503051020424053000000000000850000000000850000200000001041040406051645000829XZOJV10406209611000829   1030000100030000   541110001905777031200000019MOB BANK               YGN           MMR11004060516450008290406000000000000000   10300002 00104100000000000000000000001700     
100   9503051025915543000000000000330000000000330000200000001041040406080730001239ZPXZQF0406209614001239   1030000100030000   581250000001777031200000005MOB BANK               YGN           MMR11004060807300012390406000000000000000   10300002 00104100000000000000000000001122     
100   35710500333868870000000000020900000000020900002000000010410404061036590012400859420406209617001240   1030000100030000   581250000001777031200000005MOB BANK               YGN           MMR11004061036590012400406000000000000000   10300005 00104100000000000000000000007106     
100   9503051023964717000000000020995000000020995000200000001041040406090509001401HWXFTC0406209615001401   1030000100030000   541160000001777031200000006MOB BANK               YGN           MMR11004060905090014010406000000000000000   10300002 00104100000000000000000000041990     
100   9503051020393266000000000001240000000001240000200000001041040406100701000850UPSCIM0406209616000850   1030000100030000   541110001905777031200000019MOB BANK               YGN           MMR11004061007010008500406000000000000000   10300002 00104100000000000000000000002480     
100   35710830821614480000000000063400000000063400002000000010410404060521570008322251910406209611000832   1030000100030000   541110001905777031200000019MOB BANK               YGN           MMR11004060521570008320406000000000000000   10300003 00104100000000000000000000012680     
100   9503051024031813000000000001110000000001110000200000001041040405054111000217E6PG2S0405209512000217   1030000100030000   541120003102777031200000031MOB BANK               YGN           MMR11004050541110002170405000000000000000   10300002 00104100000000000000000000002220     
100   35710500176102860000000000074673000000074673002000000010410404050942490001066853950405209516000106   1030000100030000   541110001919777031200000019MOB BANK               YGN           MMR11004050942490001060405000000000000000   10300005 00104100000000000000000000014935     
100   35710830151880540000000000012825000000012825002000000010410404050715150002204291710405209513000220   1030000100030000   541120003102777031200000031MOB BANK               YGN           MMR11004050715150002200405000000000000000   10300003 00104100000000000000000000002565     
100   9503051894406442000000000003520000000003520000200000001041040405051201000074FDTDXW0405209511000074   1030000100030000   541110001919777031200000019MOB BANK               YGN           MMR11004050512010000740405000000000000000   10300002 00104100000000000000000000007040     
100   62343301011645290000000000100800000000100800002000000010410404060938450008818908980406209616000881   1030000100030000   541110001907777031200000019MOB BANK               YGN           MMR11004060938450008810406000000000000000   10300004 00104100000000000000000000020160     
100   35710830155936750000000000055782000000055782002000000010410404050531340000773669510405209512000077   1030000100030000   541110001919777031200000019MOB BANK               YGN           MMR11004050531340000770405000000000000000   10300003 00104100000000000000000000011156     
100   9503051020004640000000000015660000000015660000200000001041040405044643000069VTPSYA0405209511000069   1030000100030000   541110001919777031200000019MOB BANK               YGN           MMR11004050446430000690405000000000000000   10300002 00104100000000000000000000031320     
100   9503051894871074000000000006479100000006479100200000001041040405105701000114E9U2ZN0405209517000114   1030000100030000   541110001919777031200000019MOB BANK               YGN           MMR11004051057010001140405000000000000000   10300002 00104100000000000000000000012958     
100   35710500320579350000000000037620000000037620002000000010410404050913400001052267820405209515000105   1030000100030000   541110001919777031200000019MOB BANK               YGN           MMR11004050913400001050405000000000000000   10300005 00104100000000000000000000007524     
100   95030510251664280000000000103022000000103022002000000010410404050539010000819NBEDD0405209512000081   1030000100030000   541110001919777031200000019MOB BANK               YGN           MMR11004050539010000810405000000000000000   10300002 00104100000000000000000000020604     
100   9503190005314119000000000003411000000003411000200000001041040405075421000207PPPM4F0405209514000207   1030000100030000   541120003106777031200000031MOB BANK               YGN           MMR11004050754210002070405000000000000000   10300014 00104100000000000000000000006822     
100   9503051020878282000000000000675000000000675000200000001041040405072417000222SBYEKN0405209513000222   1030000100030000   541120003102777031200000031MOB BANK               YGN           MMR11004050724170002220405000000000000000   10300002 00104100000000000000000000001350     
100   9503051889274086000000000001245000000001245000200000001041040405084700000224OY9X3V0405209515000224   1030000100030000   541120003102777031200000031MOB BANK               YGN           MMR11004050847000002240405000000000000000   10300002 00104100000000000000000000002490     
100   35710500375382770000000000016200000000016200002000000010410404050556110002372718220405209512000237   1030000100030000   541120003111777031200000031MOB BANK               YGN           MMR11004050556110002370405000000000000000   10300005 00104100000000000000000000003240     
100   62343302001237310000000000023400000000023400002000000010410404050557400002383920500405209512000238   1030000100030000   541120003111777031200000031MOB BANK               YGN           MMR11004050557400002380405000000000000000   10300004 00104100000000000000000000004680     
100   35710830972606150000000000010370000000010370002000000010410404051138590001175594150405209518000117   1030000100030000   541110001919777031200000019MOB BANK               YGN           MMR11004051138590001170405000000000000000   10300003 00104100000000000000000000002074     
100   9503051886245139000000000000990000000000990000200000001041040405080854000099NP4IPB0405209514000099   1030000100030000   541110001919777031200000019MOB BANK               YGN           MMR11004050808540000990405000000000000000   10300002 00104100000000000000000000001980     
100   35710500393475520000000000018720000000018720002000000010410404050628330000842168710405209512000084   1030000100030000   541110001919777031200000019MOB BANK               YGN           MMR11004050628330000840405000000000000000   10300005 00104100000000000000000000003744     
100   35710500373708870000000000049950000000049950002000000010410404050533380000803558130405209512000080   1030000100030000   541110001919777031200000019MOB BANK               YGN           MMR11004050533380000800405000000000000000   10300005 00104100000000000000000000009990     
100   9503051889274086000000000002100000000002100000200000001041040405080257000240UBYKGE0405209514000240   1030000100030000   541120003111777031200000031MOB BANK               YGN           MMR11004050802570002400405000000000000000   10300002 00104100000000000000000000004200     
100   62343302006585380000000000009792000000009792002000000010410404050717080000928879990405209513000092   1030000100030000   541110001919777031200000019MOB BANK               YGN           MMR11004050717080000920405000000000000000   10300004 00104100000000000000000000001958     
100   9503051025939444000000000003249000000003249000200000001041040405120738000119SG8J0Z0405209518000119   1030000100030000   541110001919777031200000019MOB BANK               YGN           MMR11004051207380001190405000000000000000   10300002 00104100000000000000000000006498     
100   35710500191505210000000000031600000000031600002000000010410404050957560001074136580405209516000107   1030000100030000   541110001919777031200000019MOB BANK               YGN           MMR11004050957560001070405000000000000000   10300005 00104100000000000000000000006320     
100   35710500392874690000000000014310000000014310002000000010410404050423300000662944140405209510000066   1030000100030000   541110001919777031200000019MOB BANK               YGN           MMR11004050423300000660405000000000000000   10300005 00104100000000000000000000002862     
100   9503051021654518000000000002475000000002475000200000001041040405091043000102ZWAGWW0405209515000102   1030000100030000   541110001919777031200000019MOB BANK               YGN           MMR11004050910430001020405000000000000000   10300002 00104100000000000000000000004950     
100   95030510259987390000000000007400000000007400002000000010410404050736160000952GXLKR0405209514000095   1030000100030000   541110001919777031200000019MOB BANK               YGN           MMR11004050736160000950405000000000000000   10300002 00104100000000000000000000001480     
100   62921400099879400000000000028350000000028350002000000010410404050622310002032222220405209512000203   1030000100030000   541120003106777031200000031MOB BANK               YGN           MMR11004050622310002030405000000000000000   10300009 00104100000000000000000000005670     
100   9503051024605327000000000003649500000003649500200000001041040405061621000219DJOXUG0405209512000219   1030000100030000   541120003102777031200000031MOB BANK               YGN           MMR11004050616210002190405000000000000000   10300002 00104100000000000000000000007299     
100   9503051873702969000000000013200000000013200000200000001041040405132914000439IZ4D5H0405209519000439   1030000100030000   581210001201777031200000012MOB BANK               YGN           MMR11004051329140004390405000000000000000   10300002 00104100000000000000000000044880     
