100   35710500345775260000000000015000000000015000002000000010410404060529200001366267730406209611000136   1030000100030000   541120003104777031200000031MOB BANK               YGN           MMR11004060529200001360406000000000000000   10300005 00104100000000000000000000003000     
100   62346600111879330000000000023850000000023850002000000010410404060933160000157832820406209616000015   1030000100030000   541120003111777031200000031MOB BANK               YGN           MMR11004060933160000150406000000000000000   10300005 00104100000000000000000000004770     
100   9503051024289486000000000032130000000032130000200000001041040406145147000446TQO4SV0406209621000446   1030000100030000   581210001201777031200000012MOB BANK               YGN           MMR11004061451470004460406000000000000000   10300002 00104100000000000000000000109242     
100   62622000718209020000000000127100000000127100002000000010410404061122120004411358340406209617000441   1030000100030000   581210001201777031200000012MOB BANK               YGN           MMR11004061122120004410406000000000000000   10300006 00104100000000000000000000043214     
100   35710830052767290000000000172200000000172200002000000010410404061535400004485934110406209622000448   1030000100030000   581210001201777031200000012MOB BANK               YGN           MMR11004061535400004480406000000000000000   10300003 00104100000000000000000000058548     
100   62622000317235840000000000065200000000065200002000000010410404061307030004431078410406209619000443   1030000100030000   581210001201777031200000012MOB BANK               YGN           MMR11004061307030004430406000000000000000   10300006 00104100000000000000000000022168     
100   9503051887079115000000000044490000000044490000200000001041040406135304000444IMPUAH0406209620000444   1030000100030000   581210001201777031200000012MOB BANK               YGN           MMR11004061353040004440406000000000000000   10300002 00104100000000000000000000151266     
100   35710500353077900000000000060000000000060000002000000010410404061439380004452795000406209621000445   1030000100030000   581210001201777031200000012MOB BANK               YGN           MMR11004061439380004450406000000000000000   10300005 00104100000000000000000000020400     
100   62622000092426580000000000302300000000302300002000000010410404061254140004421078350406209619000442   1030000100030000   581210001201777031200000012MOB BANK               YGN           MMR11004061254140004420406000000000000000   10300006 00104100000000000000000000102782     
100   9503051897478182000000000002050000000002050000200000001041040407105227000354TSAFNK0407209717000354   1030000100030000   541120003103777031200000031MOB BANK               YGN           MMR11004071052270003540407000000000000000   10300002 00104100000000000000000000004100     
100   9503051024947489000000000008856000000008856000200000001041040407094651001407SIXN9O0407209716001407   1030000100030000   541160000001777031200000006MOB BANK               YGN           MMR11004070946510014070407000000000000000   10300002 00104100000000000000000000017712     
100   9503051023025048000000000001837500000001837500200000001041040407105221000031BWBZMD0407209717000031   1030000100030000   541120003111777031200000031MOB BANK               YGN           MMR11004071052210000310407000000000000000   10300002 00104100000000000000000000003675     
100   9503051023937960000000000003701000000003701000200000001041040407100036000146GSMYB10407209716000146   1030000100030000   541120003001777031200000030MOB BANK               YGN           MMR11004071000360001460407000000000000000   10300002 00104100000000000000000000007402     
100   9503051888220742000000000003407000000003407000200000001041040407111000000146MR9NDM0407209717000146   1030000100030000   541120003104777031200000031MOB BANK               YGN           MMR11004071110000001460407000000000000000   10300002 00104100000000000000000000006814     
100   9503051020200578000000000009840000000009840000200000001041040407103339001408D12WUJ0407209717001408   1030000100030000   541160000001777031200000006MOB BANK               YGN           MMR11004071033390014080407000000000000000   10300002 00104100000000000000000000019680     
100   35710830285557860000000000009550000000009550002000000010410404070610030001441180500407209712000144   1030000100030000   541120003001777031200000030MOB BANK               YGN           MMR11004070610030001440407000000000000000   10300003 00104100000000000000000000001910     
100   9503051884288354000000000001900000000001900000200000001041040407114508000336CSZF1N0407209718000336   1030000100030000   541120003106777031200000031MOB BANK               YGN           MMR11004071145080003360407000000000000000   10300002 00104100000000000000000000003800     
100   35710500365859310000000000041000000000041000002000000010410404070418140000649780200407209710000064   1030000100030000   541120003006777031200000030MOB BANK               YGN           MMR11004070418140000640407000000000000000   10300005 00104100000000000000000000008200     
100   9503051024192631000000000003492000000003492000200000001041040407114728000356VMAGP00407209718000356   1030000100030000   541120003103777031200000031MOB BANK               YGN           MMR11004071147280003560407000000000000000   10300002 00104100000000000000000000006984     
100   950305102566930600000000000115500000000115500020000000104104040706034900124375IQXC0407209712001243   1030000100030000   581250000001777031200000005MOB BANK               YGN           MMR11004070603490012430407000000000000000   10300002 00104100000000000000000000003927     
100   9503051026008892000000000001815000000001815000200000001041040407064210001245MTAPUA0407209713001245   1030000100030000   581250000001777031200000005MOB BANK               YGN           MMR11004070642100012450407000000000000000   10300002 00104100000000000000000000006171     
100   35710500100697380000000000014520000000014520002000000010410404071208130012460656780407209718001246   1030000100030000   581250000001777031200000005MOB BANK               YGN           MMR11004071208130012460407000000000000000   10300005 00104100000000000000000000004937     
100   9503051883627008000000000000531000000000531000200000001041040407102520000025DRWCWU0407209716000025   1030000100030000   541120003111777031200000031MOB BANK               YGN           MMR11004071025200000250407000000000000000   10300002 00104100000000000000000000001062     
100   9503051882915537000000000000700000000000700000200000001041040407095138000324LLIIVX0407209716000324   1030000100030000   541120003106777031200000031MOB BANK               YGN           MMR11004070951380003240407000000000000000   10300002 00104100000000000000000000001400     
100   9503051019914023000000000001600000000001600000200000001041040407071312000301FPFOJQ0407209713000301   1030000100030000   541120003106777031200000031MOB BANK               YGN           MMR11004070713120003010407000000000000000   10300002 00104100000000000000000000003200     
100   35710830268834790000000000035200000000035200002000000010410404071311550005723711610407209719000572   1030000100030000   581210001501777031200000015MOB BANK               YGN           MMR11004071311550005720407000000000000000   10300003 00104100000000000000000000011968     
100   9503051890596261000000000002313000000002313000200000001041040407112219000035NUCFDX0407209717000035   1030000100030000   541120003111777031200000031MOB BANK               YGN           MMR11004071122190000350407000000000000000   10300002 00104100000000000000000000004626     
100   62443000103647320000000000028710000000028710002000000010410404070741510003198585040407209714000319   1030000100030000   541120003106777031200000031MOB BANK               YGN           MMR11004070741510003190407000000000000000   10300005 00104100000000000000000000010048     
100   9503051893861423000000000002500000000002500000200000001041040407114842000243EJFXZP0407209718000243   1030000100030000   541120003105777031200000031MOB BANK               YGN           MMR11004071148420002430407000000000000000   10300002 00104100000000000000000000005000     
100   62343302007015020000000000009000000000009000002000000010410404071128050003329857060407209717000332   1030000100030000   541120003106777031200000031MOB BANK               YGN           MMR11004071128050003320407000000000000000   10300004 00104100000000000000000000001800     
100   35710830720239960000000000017460000000017460002000000010410404071117520000343027310407209717000034   1030000100030000   541120003111777031200000031MOB BANK               YGN           MMR11004071117520000340407000000000000000   10300003 00104100000000000000000000003492     
100   9503051894450085000000000002170000000002170000200000001041040407114645000147VHWB1H0407209718000147   1030000100030000   541120003001777031200000030MOB BANK               YGN           MMR11004071146450001470407000000000000000   10300002 00104100000000000000000000004340     
100   35710830303941330000000000006750000000006750002000000010410404070628200001451290200407209712000145   1030000100030000   541120003001777031200000030MOB BANK               YGN           MMR11004070628200001450407000000000000000   10300003 00104100000000000000000000001350     
100   9503051882915537000000000001336000000001336000200000001041040407094504000351ZUGTKC0407209716000351   1030000100030000   541120003103777031200000031MOB BANK               YGN           MMR11004070945040003510407000000000000000   10300002 00104100000000000000000000002672     
100   35710500365759990000000000159150000000159150002000000010410404070314520014051117660407209709001405   1030000100030000   541160000001777031200000006MOB BANK               YGN           MMR11004070314520014050407000000000000000   10300005 00104100000000000000000000031830     
100   62343302007015020000000000017550000000017550002000000010410404071213450000379895140407209718000037   1030000100030000   541120003111777031200000031MOB BANK               YGN           MMR11004071213450000370407000000000000000   10300004 00104100000000000000000000003510     
100   62346600155880370000000000007500000000007500002000000010410404071027190003261973720407209716000326   1030000100030000   541120003106777031200000031MOB BANK               YGN           MMR11004071027190003260407000000000000000   10300005 00104100000000000000000000001500     
100   35710500340788140000000000002100000000002100002000000010410404071138010003335909900407209718000333   1030000100030000   541120003106777031200000031MOB BANK               YGN           MMR11004071138010003330407000000000000000   10300005 00104100000000000000000000000420     
100   35710830645273680000000000008000000000008000002000000010410404071040320003282803320407209717000328   1030000100030000   541120003106777031200000031MOB BANK               YGN           MMR11004071040320003280407000000000000000   10300003 00104100000000000000000000001600     
