100   62346600120551050000000000018500000000018500002000000010410404110617250002129342720411210112000212   1030000100030000   541120000017777031200000002MOB BANK               YGN           MMR11004110617250002120411000000000000000   10300005 00104100000000000000000000003700     
100   9503051872733411000000000000800000000000800000200000001041040411065414000434DUKNYC0411210113000434   1030000100030000   541120003106777031200000031MOB BANK               YGN           MMR11004110654140004340411000000000000000   10300002 00104100000000000000000000001600     
100   62343302007969730000000000005900000000005900002000000010410404111043500004439008580411210117000443   1030000100030000   541120003106777031200000031MOB BANK               YGN           MMR11004111043500004430411000000000000000   10300004 00104100000000000000000000001180     
100   9503051872733411000000000000879000000000879000200000001041040411091115000182OJEJL90411210115000182   1030000100030000   541120003104777031200000031MOB BANK               YGN           MMR11004110911150001820411000000000000000   10300002 00104100000000000000000000001758     
100   95030510259301790000000000034200000000034200002000000010410404111139220001512MSENW0411210118000151   1030000100030000   541110001917777031200000019MOB BANK               YGN           MMR11004111139220001510411000000000000000   10300002 00104100000000000000000000006840     
100   35710830624571540000000000025840000000025840002000000010410404111007020001267162410411210116000126   1030000100030000   541120003111777031200000031MOB BANK               YGN           MMR11004111007020001260411000000000000000   10300003 00104100000000000000000000005168     
100   9503051873846832000000000002871000000002871000200000001041040411055859000119HEUCB20411210112000119   1030000100030000   541120003111777031200000031MOB BANK               YGN           MMR11004110558590001190411000000000000000   10300002 00104100000000000000000000005742     
100   9503051892650496000000000005184000000005184000200000001041040411102953000402KJIMDA0411210116000402   1030000100030000   541110001903777031200000019MOB BANK               YGN           MMR11004111029530004020411000000000000000   10300002 00104100000000000000000000010368     
100   9503051023745769000000000002352000000002352000200000001041040411095822000398NIVMAF0411210116000398   1030000100030000   541110001903777031200000019MOB BANK               YGN           MMR11004110958220003980411000000000000000   10300002 00104100000000000000000000004704     
100   35710500300894840000000000004800000000004800002000000010410404110705400005850788450411210113000585   1030000100030000   541110001920777031200000019MOB BANK               YGN           MMR11004110705400005850411000000000000000   10300005 00104100000000000000000000000960     
100   62346600155692920000000000020600000000020600002000000010410404111050240006242168730411210117000624   1030000100030000   541120003117777031200000031MOB BANK               YGN           MMR11004111050240006240411000000000000000   10300005 00104100000000000000000000004120     
100   62441900002624040000000000031850000000031850002000000010410404111239320009766066510411210119000976   1030000100030000   541110001905777031200000019MOB BANK               YGN           MMR11004111239320009760411000000000000000   10300003 00104100000000000000000000011147     
100   9503051025697323000000000004300000000004300000200000001041040411094558000147XOERIN0411210116000147   1030000100030000   541110001917777031200000019MOB BANK               YGN           MMR11004110945580001470411000000000000000   10300002 00104100000000000000000000008600     
100   9503051022331389000000000001647000000001647000200000001041040411123315000132HDSLNN0411210119000132   1030000100030000   541120003111777031200000031MOB BANK               YGN           MMR11004111233150001320411000000000000000   10300002 00104100000000000000000000003294     
100   9503051888681869000000000001470000000001470000200000001041040411082706000135TOS05V0411210114000135   1030000100030000   541110001917777031200000019MOB BANK               YGN           MMR11004110827060001350411000000000000000   10300002 00104100000000000000000000002940     
100   9503051025998945000000000005915000000005915000200000001041040411055128000614K9OY9L0411210112000614   1030000100030000   541120003117777031200000031MOB BANK               YGN           MMR11004110551280006140411000000000000000   10300002 00104100000000000000000000011830     
100   35710830109669670000000000011250000000011250002000000010410404110942450001447016610411210116000144   1030000100030000   541110001917777031200000019MOB BANK               YGN           MMR11004110942450001440411000000000000000   10300003 00104100000000000000000000002250     
100   9503051894357645000000000002850000000002850000200000001041040411053452000394EIVTZ90411210112000394   1030000100030000   541110001903777031200000019MOB BANK               YGN           MMR11004110534520003940411000000000000000   10300002 00104100000000000000000000005700     
100   35710830543347420000000000009460000000009460002000000010410404110843230012696660430411210115001269   1030000100030000   581250000001777031200000005MOB BANK               YGN           MMR11004110843230012690411000000000000000   10300003 00104100000000000000000000003216     
100   9503051025424223000000000000720000000000720000200000001041040411052108000127DHSLSY0411210111000127   1030000100030000   541110001917777031200000019MOB BANK               YGN           MMR11004110521080001270411000000000000000   10300002 00104100000000000000000000001440     
100   35710500171634760000000000063765000000063765002000000010410404110401050003910536430411210110000391   1030000100030000   541110001903777031200000019MOB BANK               YGN           MMR11004110401050003910411000000000000000   10300005 00104100000000000000000000012753     
100   35710830519650680000000000006210000000006210002000000010410404110404280003954987000411210110000395   1030000100030000   541120003103777031200000031MOB BANK               YGN           MMR11004110404280003950411000000000000000   10300003 00104100000000000000000000001242     
100   9503051888367832000000000002592000000002592000200000001041040411111841000404S1V2MM0411210117000404   1030000100030000   541110001903777031200000019MOB BANK               YGN           MMR11004111118410004040411000000000000000   10300002 00104100000000000000000000005184     
100   9503051025872322000000000001220000000001220000200000001041040411082859000597WH76MT0411210114000597   1030000100030000   541110001920777031200000019MOB BANK               YGN           MMR11004110828590005970411000000000000000   10300002 00104100000000000000000000002440     
100   35710830939972510000000000052350000000052350002000000010410404110416330005985059410411210110000598   1030000100030000   541120003117777031200000031MOB BANK               YGN           MMR11004110416330005980411000000000000000   10300003 00104100000000000000000000010470     
100   9503051025082047000000000000900000000000900000200000001041040411071152000587JWL1O90411210113000587   1030000100030000   541110001920777031200000019MOB BANK               YGN           MMR11004110711520005870411000000000000000   10300002 00104100000000000000000000001800     
100   9503051025028800000000000000450000000000450000200000001041040411090042000180WKWVGC0411210115000180   1030000100030000   541120003104777031200000031MOB BANK               YGN           MMR11004110900420001800411000000000000000   10300002 00104100000000000000000000000900     
100   9503190006134581000000000000653000000000653000200000001041040411100532000168FQK8VV0411210116000168   1030000100030000   541120003001777031200000030MOB BANK               YGN           MMR11004111005320001680411000000000000000   10300014 00104100000000000000000000001306     
100   9503051872743295000000000003627000000003627000200000001041040411100010000124BJD2VQ0411210116000124   1030000100030000   541120003111777031200000031MOB BANK               YGN           MMR11004111000100001240411000000000000000   10300002 00104100000000000000000000007254     
100   35710830054562970000000000008910000000008910002000000010410404111054160006277445720411210117000627   1030000100030000   541120003117777031200000031MOB BANK               YGN           MMR11004111054160006270411000000000000000   10300003 00104100000000000000000000001782     
100   9503051884709680000000000003725000000003725000200000001041040411092650000966DBDSJR0411210115000966   1030000100030000   541110001905777031200000019MOB BANK               YGN           MMR11004110926500009660411000000000000000   10300002 00104100000000000000000000007450     
100   9503051890831981000000000000675000000000675000200000001041040411052222000117UILYZT0411210111000117   1030000100030000   541120003111777031200000031MOB BANK               YGN           MMR11004110522220001170411000000000000000   10300002 00104100000000000000000000001350     
100   9503051026134730000000000001600000000001600000200000001041040411123723000408OLCOBU0411210119000408   1030000100030000   541110001903777031200000019MOB BANK               YGN           MMR11004111237230004080411000000000000000   10300002 00104100000000000000000000003200     
100   9503051885465902000000000001755000000001755000200000001041040411033913000578DEES4Q0411210110000578   1030000100030000   541110001920777031200000019MOB BANK               YGN           MMR11004110339130005780411000000000000000   10300002 00104100000000000000000000003510     
100   95030518850627330000000000048380000000048380002000000010410404110445240006069UL2FQ0411210111000606   1030000100030000   541120003117777031200000031MOB BANK               YGN           MMR11004110445240006060411000000000000000   10300002 00104100000000000000000000009676     
100   35710830109669670000000000028000000000028000002000000010410404110921120001396887310411210115000139   1030000100030000   541110001917777031200000019MOB BANK               YGN           MMR11004110921120001390411000000000000000   10300003 00104100000000000000000000005600     
100   9503051020926271000000000002130000000002130000200000001041040411075936000589UGCQJL0411210114000589   1030000100030000   541110001920777031200000019MOB BANK               YGN           MMR11004110759360005890411000000000000000   10300002 00104100000000000000000000004260     
100   35710500314430450000000000133900000000133900002000000010410404110719180001332498450411210113000133   1030000100030000   541110001917777031200000019MOB BANK               YGN           MMR11004110719180001330411000000000000000   10300005 00104100000000000000000000026780     
100   950319000069132100000000000047000000000047000020000000104104041111240500040010HHLM0411210117000400   1030000100030000   541120003103777031200000031MOB BANK               YGN           MMR11004111124050004000411000000000000000   10300014 00104100000000000000000000000940     
100   35710830730876360000000000059110000000059110002000000010410404111011140004007187610411210116000400   1030000100030000   541110001903777031200000019MOB BANK               YGN           MMR11004111011140004000411000000000000000   10300003 00104100000000000000000000011822     
100   35710830561246790000000000056050000000056050002000000010410404110808350005916451610411210114000591   1030000100030000   541110001920777031200000019MOB BANK               YGN           MMR11004110808350005910411000000000000000   10300003 00104100000000000000000000011210     
100   9503051020808446000000000001260000000001260000200000001041040411055348000617IIE0GI0411210112000617   1030000100030000   541120003117777031200000031MOB BANK               YGN           MMR11004110553480006170411000000000000000   10300002 00104100000000000000000000002520     
100   9503051021859679000000000060268760000060268760200000001041040411042326001447G5LO5A0411210110001447   1030000100030000   541160000001777031200000006MOB BANK               YGN           MMR11004110423260014470411000000000000000   10300002 00104100000000000000000000120538     
100   62346600110656590000000000004550000000004550002000000010410404110518550001630579680411210111000163   1030000100030000   541120003001777031200000030MOB BANK               YGN           MMR11004110518550001630411000000000000000   10300005 00104100000000000000000000000910     
100   9503051025681145000000000001376000000001376000200000001041040411084205000164ELWVAD0411210115000164   1030000100030000   541120003001777031200000030MOB BANK               YGN           MMR11004110842050001640411000000000000000   10300002 00104100000000000000000000002752     
100   35710500313843060000000000086220000000086220002000000010410404110611410003964420920411210112000396   1030000100030000   541110001903777031200000019MOB BANK               YGN           MMR11004110611410003960411000000000000000   10300005 00104100000000000000000000017244     
100   35710950403888480000000000035160000000035160002000000010410404110459340006095317600411210111000609   1030000100030000   541120003117777031200000031MOB BANK               YGN           MMR11004110459340006090411000000000000000   10300003 00104100000000000000000000007032     
100   9503051891705630000000000000595000000000595000200000001041040411100127000972RLATM40411210116000972   1030000100030000   541110001905777031200000019MOB BANK               YGN           MMR11004111001270009720411000000000000000   10300002 00104100000000000000000000001190     
100   9503051873243014000000000007939200000007939200200000001041040411063204000131OAMGKI0411210113000131   1030000100030000   541110001917777031200000019MOB BANK               YGN           MMR11004110632040001310411000000000000000   10300002 00104100000000000000000000015878     
100   9503051887948962000000000001328000000001328000200000001041040411090638000599YVDND30411210115000599   1030000100030000   541110001920777031200000019MOB BANK               YGN           MMR11004110906380005990411000000000000000   10300002 00104100000000000000000000002656     
100   35710830561246790000000000016710000000016710002000000010410404110815470005936494810411210114000593   1030000100030000   541110001920777031200000019MOB BANK               YGN           MMR11004110815470005930411000000000000000   10300003 00104100000000000000000000003342     
100   35710830730876360000000000017000000000017000002000000010410404111050070001497420910411210117000149   1030000100030000   541110001917777031200000019MOB BANK               YGN           MMR11004111050070001490411000000000000000   10300003 00104100000000000000000000003400     
100   35710830493311180000000000016650000000016650002000000010410404110317290001254705110411210109000125   1030000100030000   541110001917777031200000019MOB BANK               YGN           MMR11004110317290001250411000000000000000   10300003 00104100000000000000000000003330     
100   95030800093842280000000000047610000000047610002000000010410404110852510001376717310411210115000137   1030000100030000   541110001917777031200000019MOB BANK               YGN           MMR11004110852510001370411000000000000000   10300003 00104100000000000000000000009522     
100   35710830653862510000000000117000000000117000002000000010410404110306540003884641510411210109000388   1030000100030000   541110001903777031200000019MOB BANK               YGN           MMR11004110306540003880411000000000000000   10300003 00104100000000000000000000023400     
100   9503051891177095000000000002772000000002772000200000001041040411043340000392Y02IDU0411210111000392   1030000100030000   541110001903777031200000019MOB BANK               YGN           MMR11004110433400003920411000000000000000   10300002 00104100000000000000000000005544     
100   95030510248103720000000000017500000000017500002000000010410404111029560003974MRKYU0411210116000397   1030000100030000   541120003103777031200000031MOB BANK               YGN           MMR11004111029560003970411000000000000000   10300002 00104100000000000000000000003500     
100   35710500183712760000000000010000000000010000002000000010410404110502430005816382860411210111000581   1030000100030000   541110001920777031200000019MOB BANK               YGN           MMR11004110502430005810411000000000000000   10300005 00104100000000000000000000002000     
100   35710500164326660000000000016165000000016165002000000010410404111042060006219290700411210117000621   1030000100030000   541120003117777031200000031MOB BANK               YGN           MMR11004111042060006210411000000000000000   10300005 00104100000000000000000000003233     
100   35710500371052750000000000100000000000100000002000000010410404110537420014508642920411210112001450   1030000100030000   541160000001777031200000006MOB BANK               YGN           MMR11004110537420014500411000000000000000   10300005 00104100000000000000000000020000     
100   95030510249474890000000000174840000000174840002000000010410404110640140014529EZA4S0411210113001452   1030000100030000   541160000001777031200000006MOB BANK               YGN           MMR11004110640140014520411000000000000000   10300002 00104100000000000000000000034968     
100   9503051872733411000000000000833000000000833000200000001041040411081931000121EVJ6X10411210114000121   1030000100030000   541120003111777031200000031MOB BANK               YGN           MMR11004110819310001210411000000000000000   10300002 00104100000000000000000000001666     
100   9503051885291167000000000010010000000010010000200000001041040411064533000456XUMCQY0411210113000456   1030000100030000   581210001201777031200000012MOB BANK               YGN           MMR11004110645330004560411000000000000000   10300002 00104100000000000000000000034034     
100   35710500130865230000000000005000000000005000002000000010410404110641040001782655760411210113000178   1030000100030000   541120003104777031200000031MOB BANK               YGN           MMR11004110641040001780411000000000000000   10300005 00104100000000000000000000001000     
100   9503051891573715000000000002517000000002517000200000001041040411093541000141ER8Z9E0411210116000141   1030000100030000   541110001917777031200000019MOB BANK               YGN           MMR11004110935410001410411000000000000000   10300002 00104100000000000000000000005034     
100   35710500361433680000000000022380000000022380002000000010410404111154000001464145450411210118000146   1030000100030000   541110001919777031200000019MOB BANK               YGN           MMR11004111154000001460411000000000000000   10300005 00104100000000000000000000004476     
100   9503051891645398000000000001490000000001490000200000001041040411100805000601U5JULD0411210116000601   1030000100030000   541110001920777031200000019MOB BANK               YGN           MMR11004111008050006010411000000000000000   10300002 00104100000000000000000000002980     
100   35710830947947640000000000029400000000029400002000000010410404110421270006025088820411210110000602   1030000100030000   541120003117777031200000031MOB BANK               YGN           MMR11004110421270006020411000000000000000   10300003 00104100000000000000000000005880     
100   9503190005584679000000000001200000000001200000200000001041040411123055000402DKTKR10411210119000402   1030000100030000   541120003103777031200000031MOB BANK               YGN           MMR11004111230550004020411000000000000000   10300014 00104100000000000000000000002400     
100   35710500183712760000000000004000000000004000002000000010410404110535430005830299230411210112000583   1030000100030000   541110001920777031200000019MOB BANK               YGN           MMR11004110535430005830411000000000000000   10300005 00104100000000000000000000000800     
100   35710830561246790000000000006300000000006300002000000010410404110823210005956540210411210114000595   1030000100030000   541110001920777031200000019MOB BANK               YGN           MMR11004110823210005950411000000000000000   10300003 00104100000000000000000000001260     
100   35710500361445720000000000029178000000029178002000000010410404110916100001654705930411210115000165   1030000100030000   541120003001777031200000030MOB BANK               YGN           MMR11004110916100001650411000000000000000   10300005 00104100000000000000000000005836     
100   62346600121531990000000000032445000000032445002000000010410404110822360001228412150411210114000122   1030000100030000   541120003111777031200000031MOB BANK               YGN           MMR11004110822360001220411000000000000000   10300005 00104100000000000000000000006489     
100   62346600166102360000000000009114000000009114002000000010410404110508360006110794080411210111000611   1030000100030000   541120003117777031200000031MOB BANK               YGN           MMR11004110508360006110411000000000000000   10300005 00104100000000000000000000001823     
100   35710830304560720000000000022230000000022230002000000010410404110501400001165330110411210111000116   1030000100030000   541120003111777031200000031MOB BANK               YGN           MMR11004110501400001160411000000000000000   10300003 00104100000000000000000000004446     
100   35710830037505680000000000008300000000008300002000000010410404110623470001295822810411210112000129   1030000100030000   541110001917777031200000019MOB BANK               YGN           MMR11004110623470001290411000000000000000   10300003 00104100000000000000000000001660     
100   9503190005584679000000000002142000000002142000200000001041040411120844000129PTN1RC0411210118000129   1030000100030000   541120003111777031200000031MOB BANK               YGN           MMR11004111208440001290411000000000000000   10300014 00104100000000000000000000004284     
100   9503190000833949000000000002592000000002592000200000001041040411060939000395V4TMHW0411210112000395   1030000100030000   541110001903777031200000019MOB BANK               YGN           MMR11004110609390003950411000000000000000   10300014 00104100000000000000000000005184     
