100   9503051891290351000000000002048200000002048200200000001041040412085157000999PGIKPS0412210215000999   1030000100030000   541110001905777031200000019MOB BANK               YGN           MMR11004120851570009990412000000000000000   10300002 00104100000000000000000000004096     
100   9503051023931450000000000001908000000001908000200000001041040412091054000150VRWOZI0412210215000150   1030000100030000   541120003111777031200000031MOB BANK               YGN           MMR11004120910540001500412000000000000000   10300002 00104100000000000000000000003816     
100   62343301015476240000000000032220000000032220002000000010410404120551100004125807980412210212000412   1030000100030000   541110001903777031200000019MOB BANK               YGN           MMR11004120551100004120412000000000000000   10300004 00104100000000000000000000006444     
100   9503190006345831000000000027810000000027810000200000001041040412083828000684HVTF6H0412210215000684   1030000100030000   541110001915777031200000019MOB BANK               YGN           MMR11004120838280006840412000000000000000   10300014 00104100000000000000000000055620     
100   9503051885609855000000000001431000000001431000200000001041040412065236000606AUVBDH0412210213000606   1030000100030000   541110001920777031200000019MOB BANK               YGN           MMR11004120652360006060412000000000000000   10300002 00104100000000000000000000002862     
100   35710500191888930000000000311090000000311090002000000010410404120440030006360304910412210211000636   1030000100030000   541120003117777031200000031MOB BANK               YGN           MMR11004120440030006360412000000000000000   10300005 00104100000000000000000000062218     
100   35710830919418480000000000003100000000003100002000000010410404120659500006714679110412210213000671   1030000100030000   541110001915777031200000019MOB BANK               YGN           MMR11004120659500006710412000000000000000   10300003 00104100000000000000000000000620     
100   9503051893611174000000000001638000000001638000200000001041040412092815000152A09PBK0412210215000152   1030000100030000   541120003111777031200000031MOB BANK               YGN           MMR11004120928150001520412000000000000000   10300002 00104100000000000000000000003276     
100   62343302005179650000000000011210000000011210002000000010410404120559090001381971210412210212000138   1030000100030000   541120003111777031200000031MOB BANK               YGN           MMR11004120559090001380412000000000000000   10300004 00104100000000000000000000002242     
100   9503190006597969000000000001350000000001350000200000001041040412044247000667Y3EAIE0412210211000667   1030000100030000   541110001915777031200000019MOB BANK               YGN           MMR11004120442470006670412000000000000000   10300014 00104100000000000000000000002700     
100   95030518941842540000000000003330000000003330002000000010410404120645370006463KCIX00412210213000646   1030000100030000   541120003117777031200000031MOB BANK               YGN           MMR11004120645370006460412000000000000000   10300002 00104100000000000000000000000666     
100   35710500191624840000000000007600000000007600002000000010410404120613260006396380280412210212000639   1030000100030000   541120003117777031200000031MOB BANK               YGN           MMR11004120613260006390412000000000000000   10300005 00104100000000000000000000001520     
100   9503051022394403000000000013727200000013727200200000001041040412114351001102C5CHK40412210218001102   1030000100030000   541110001907777031200000019MOB BANK               YGN           MMR11004121143510011020412000000000000000   10300002 00104100000000000000000000027454     
100   9503051019515408000000000002030000000002030000200000001041040412103036001009OLIT7N0412210217001009   1030000100030000   541110001905777031200000019MOB BANK               YGN           MMR11004121030360010090412000000000000000   10300002 00104100000000000000000000004060     
100   9503051894921192000000000009180000000009180000200000001041040412063036001463N1GHF30412210213001463   1030000100030000   541160000001777031200000006MOB BANK               YGN           MMR11004120630360014630412000000000000000   10300002 00104100000000000000000000018360     
100   9503051892016813000000000000675000000000675000200000001041040412125027000168P230GI0412210219000168   1030000100030000   541120003111777031200000031MOB BANK               YGN           MMR11004121250270001680412000000000000000   10300002 00104100000000000000000000001350     
100   9503190005957966000000000003465000000003465000200000001041040412081816000418Y9XNG10412210214000418   1030000100030000   541110001903777031200000019MOB BANK               YGN           MMR11004120818160004180412000000000000000   10300014 00104100000000000000000000006930     
100   35710500180071100000000000027720000000027720002000000010410404120825200004197699440412210214000419   1030000100030000   541110001903777031200000019MOB BANK               YGN           MMR11004120825200004190412000000000000000   10300005 00104100000000000000000000005544     
100   35710500194635280000000000011462000000011462002000000010410404120921260006857068890412210215000685   1030000100030000   541110001915777031200000019MOB BANK               YGN           MMR11004120921260006850412000000000000000   10300005 00104100000000000000000000002292     
100   9503051872868597000000000001280000000001280000200000001041040412095721000617AS4SWI0412210216000617   1030000100030000   541110001920777031200000019MOB BANK               YGN           MMR11004120957210006170412000000000000000   10300002 00104100000000000000000000002560     
100   9503051021412131000000000001180000000001180000200000001041040412082842001085ARSRHR0412210214001085   1030000100030000   541110001907777031200000019MOB BANK               YGN           MMR11004120828420010850412000000000000000   10300002 00104100000000000000000000002360     
100   9503051025763612000000000002670000000002670000200000001041040412083531001087IORXWN0412210215001087   1030000100030000   541110001907777031200000019MOB BANK               YGN           MMR11004120835310010870412000000000000000   10300002 00104100000000000000000000005340     
100   35710500101079260000000000016954000000016954002000000010410404121035500010124675760412210217001012   1030000100030000   541110001905777031200000019MOB BANK               YGN           MMR11004121035500010120412000000000000000   10300005 00104100000000000000000000003391     
100   35710500155527460000000000097092000000097092002000000010410404120525000010708338630412210211001070   1030000100030000   541110001907777031200000019MOB BANK               YGN           MMR11004120525000010700412000000000000000   10300005 00104100000000000000000000019418     
100   35710500363312520000000000033660000000033660002000000010410404120339130001542031060412210210000154   1030000100030000   541110001917777031200000019MOB BANK               YGN           MMR11004120339130001540412000000000000000   10300005 00104100000000000000000000006732     
100   62921400089928260000000000075000000000075000002000000010410404110744020010512222220411210114001051   1030000100030000   541110001907777031200000019MOB BANK               YGN           MMR11004110744020010510411000000000000000   10300009 00104100000000000000000000015000     
100   35710500333416270000000000001372000000001372002000000010410404111104220010590999240411210117001059   1030000100030000   541110001907777031200000019MOB BANK               YGN           MMR11004111104220010590411000000000000000   10300005 00104100000000000000000000000274     
100   62346600184513080000000000486000000000486000002000000010410404120517560014566139910412210211001456   1030000100030000   541160000001777031200000006MOB BANK               YGN           MMR11004120517560014560412000000000000000   10300005 00104100000000000000000000097200     
100   9503190005389442000000000002150000000002150000200000001041040412044827000156BSD8F80412210211000156   1030000100030000   541110001917777031200000019MOB BANK               YGN           MMR11004120448270001560412000000000000000   10300014 00104100000000000000000000004300     
100   62921400087581690000000000037000000000037000002000000010410404111046270010572222220411210117001057   1030000100030000   541110001907777031200000019MOB BANK               YGN           MMR11004111046270010570411000000000000000   10300009 00104100000000000000000000007400     
100   35710830324291190000000000004300000000004300002000000010410404110610350010475743610411210112001047   1030000100030000   541110001907777031200000019MOB BANK               YGN           MMR11004110610350010470411000000000000000   10300003 00104100000000000000000000000860     
100   95030510250820470000000000001450000000001450002000000010410404110701500010490KDQDI0411210113001049   1030000100030000   541110001907777031200000019MOB BANK               YGN           MMR11004110701500010490411000000000000000   10300002 00104100000000000000000000000290     
100   35710500353582720000000000102000000000102000002000000010410404111106240010626977850411210117001062   1030000100030000   541110001907777031200000019MOB BANK               YGN           MMR11004111106240010620411000000000000000   10300005 00104100000000000000000000020400     
100   35710500383331320000000000003332000000003332002000000010410404111246170010645206980411210119001064   1030000100030000   541110001907777031200000019MOB BANK               YGN           MMR11004111246170010640411000000000000000   10300005 00104100000000000000000000000666     
100   35710830561246790000000000060650000000060650002000000010410404110854370010546727900411210115001054   1030000100030000   541110001907777031200000019MOB BANK               YGN           MMR11004110854370010540411000000000000000   10300003 00104100000000000000000000012130     
100   35710830998029920000000000085500000000085500002000000010410404120934130001545605520412210216000154   1030000100030000   541120003111777031200000031MOB BANK               YGN           MMR11004120934130001540412000000000000000   10300003 00104100000000000000000000017100     
100   9503051025319852000000000001485000000001485000200000001041040412094228000156KPD6I60412210216000156   1030000100030000   541120003111777031200000031MOB BANK               YGN           MMR11004120942280001560412000000000000000   10300002 00104100000000000000000000002970     
100   9503051020688962000000000001692000000001692000200000001041040412094539000157TXU5Y10412210216000157   1030000100030000   541120003111777031200000031MOB BANK               YGN           MMR11004120945390001570412000000000000000   10300002 00104100000000000000000000003384     
100   35710830863670580000000000014500000000014500002000000010410404120559060004134314710412210212000413   1030000100030000   541110001903777031200000019MOB BANK               YGN           MMR11004120559060004130412000000000000000   10300003 00104100000000000000000000002900     
100   9503051023023746000000000001872000000001872000200000001041040412092659000422TQZVA10412210215000422   1030000100030000   541110001903777031200000019MOB BANK               YGN           MMR11004120926590004220412000000000000000   10300002 00104100000000000000000000003744     
100   62343301015476240000000000032850000000032850002000000010410404120519300006698082940412210211000669   1030000100030000   541110001915777031200000019MOB BANK               YGN           MMR11004120519300006690412000000000000000   10300004 00104100000000000000000000006570     
100   35710500190915760000000000014450000000014450002000000010410404121036570006864519360412210217000686   1030000100030000   541110001915777031200000019MOB BANK               YGN           MMR11004121036570006860412000000000000000   10300005 00104100000000000000000000002890     
100   9503051025367398000000000001165000000001165000200000001041040412113205000688EF4KIV0412210218000688   1030000100030000   541110001915777031200000019MOB BANK               YGN           MMR11004121132050006880412000000000000000   10300002 00104100000000000000000000002330     
100   9503051894184254000000000001630000000001630000200000001041040412064219000643XRJYZ90412210213000643   1030000100030000   541120003117777031200000031MOB BANK               YGN           MMR11004120642190006430412000000000000000   10300002 00104100000000000000000000003260     
100   35710830798401940000000000036900000000036900002000000010410404120610460001394384810412210212000139   1030000100030000   541120003111777031200000031MOB BANK               YGN           MMR11004120610460001390412000000000000000   10300003 00104100000000000000000000007380     
100   35710830899096660000000000047000000000047000002000000010410404120632510006704517410412210213000670   1030000100030000   541110001915777031200000019MOB BANK               YGN           MMR11004120632510006700412000000000000000   10300003 00104100000000000000000000009400     
100   9503190005782117000000000002070000000002070000200000001041040412040251000135W2DDS10412210210000135   1030000100030000   541120003111777031200000031MOB BANK               YGN           MMR11004120402510001350412000000000000000   10300014 00104100000000000000000000004140     
100   9503051026110524000000000005066600000005066600200000001041040412090102001091DMQF7B0412210215001091   1030000100030000   541110001907777031200000019MOB BANK               YGN           MMR11004120901020010910412000000000000000   10300002 00104100000000000000000000010133     
100   9503190006233524000000000001431000000001431000200000001041040412085847000148XBJGZZ0412210215000148   1030000100030000   541120003111777031200000031MOB BANK               YGN           MMR11004120858470001480412000000000000000   10300014 00104100000000000000000000002862     
100   9503051025362936000000000012105000000012105000200000001041040412102641000158CDRUAB0412210216000158   1030000100030000   541120003111777031200000031MOB BANK               YGN           MMR11004121026410001580412000000000000000   10300002 00104100000000000000000000024210     
100   35710500161146290000000000029900000000029900002000000010410404121155510004268700510412210218000426   1030000100030000   541110001903777031200000019MOB BANK               YGN           MMR11004121155510004260412000000000000000   10300005 00104100000000000000000000005980     
100   95030518944176470000000000039500000000039500002000000010410404120653510010757M0J4M0412210213001075   1030000100030000   541110001907777031200000019MOB BANK               YGN           MMR11004120653510010750412000000000000000   10300002 00104100000000000000000000007900     
100   62343302009146000000000000037338000000037338002000000010410404120443140009817077930412210211000981   1030000100030000   541110001905777031200000019MOB BANK               YGN           MMR11004120443140009810412000000000000000   10300004 00104100000000000000000000007468     
100   9503051025924107000000000001970000000001970000200000001041040412055711000192RIYIKE0412210212000192   1030000100030000   541120003104777031200000031MOB BANK               YGN           MMR11004120557110001920412000000000000000   10300002 00104100000000000000000000003940     
100   9503051894184254000000000001971000000001971000200000001041040412065532000650XPM6VO0412210213000650   1030000100030000   541120003117777031200000031MOB BANK               YGN           MMR11004120655320006500412000000000000000   10300002 00104100000000000000000000003942     
100   62343301015476240000000000013400000000013400002000000010410404120600520009851702310412210212000985   1030000100030000   541110001905777031200000019MOB BANK               YGN           MMR11004120600520009850412000000000000000   10300004 00104100000000000000000000002680     
100   95030510258445860000000000015750000000015750002000000010410404120540220001362HNOVA0412210212000136   1030000100030000   541120003111777031200000031MOB BANK               YGN           MMR11004120540220001360412000000000000000   10300002 00104100000000000000000000003150     
100   35710500364146780000000000007020000000007020002000000010410404121029160001592021630412210216000159   1030000100030000   541120003111777031200000031MOB BANK               YGN           MMR11004121029160001590412000000000000000   10300005 00104100000000000000000000001404     
100   35710500161146290000000000193991000000193991002000000010410404121137380010173164020412210218001017   1030000100030000   541110001905777031200000019MOB BANK               YGN           MMR11004121137380010170412000000000000000   10300005 00104100000000000000000000038798     
100   9503051891600880000000000000764400000000764400200000001041040412100722001093IBXKTS0412210216001093   1030000100030000   541110001907777031200000019MOB BANK               YGN           MMR11004121007220010930412000000000000000   10300002 00104100000000000000000000001529     
100   62343301015461130000000000012800000000012800002000000010410404121036400010967009410412210217001096   1030000100030000   541110001907777031200000019MOB BANK               YGN           MMR11004121036400010960412000000000000000   10300004 00104100000000000000000000002560     
100   9503051893611174000000000001620000000001620000200000001041040412090554000149N6SVII0412210215000149   1030000100030000   541120003111777031200000031MOB BANK               YGN           MMR11004120905540001490412000000000000000   10300002 00104100000000000000000000003240     
100   9503051022043471000000000000440000000000440000200000001041040412124347000427PQ2J4Q0412210219000427   1030000100030000   541110001903777031200000019MOB BANK               YGN           MMR11004121243470004270412000000000000000   10300002 00104100000000000000000000000880     
100   9503051890402981000000000006830500000006830500200000001041040412100658000660TQRSOI0412210216000660   1030000100030000   541120003117777031200000031MOB BANK               YGN           MMR11004121006580006600412000000000000000   10300002 00104100000000000000000000013661     
100   35710830899096660000000000010000000000010000002000000010410404120710560010794745710412210213001079   1030000100030000   541110001907777031200000019MOB BANK               YGN           MMR11004120710560010790412000000000000000   10300003 00104100000000000000000000002000     
100   35710500180071100000000000069750000000069750002000000010410404120806470009958182440412210214000995   1030000100030000   541110001905777031200000019MOB BANK               YGN           MMR11004120806470009950412000000000000000   10300005 00104100000000000000000000013950     
100   35710830147306580000000000061000000000061000002000000010410404120632510009884517210412210213000988   1030000100030000   541110001905777031200000019MOB BANK               YGN           MMR11004120632510009880412000000000000000   10300003 00104100000000000000000000012200     
100   9503051891043495000000000001470000000001470000200000001041040412061754000140JTMNVC0412210212000140   1030000100030000   541120003111777031200000031MOB BANK               YGN           MMR11004120617540001400412000000000000000   10300002 00104100000000000000000000002940     
100   9503051884158490000000000003231000000003231000200000001041040412065708000415OKC0NW0412210213000415   1030000100030000   541110001903777031200000019MOB BANK               YGN           MMR11004120657080004150412000000000000000   10300002 00104100000000000000000000006462     
100   35710500364824850000000000034920000000034920002000000010410404120815560004176656420412210214000417   1030000100030000   541110001903777031200000019MOB BANK               YGN           MMR11004120815560004170412000000000000000   10300005 00104100000000000000000000006984     
100   62346600129966880000000000014000000000014000002000000010410404120714210006539808350412210213000653   1030000100030000   541120003117777031200000031MOB BANK               YGN           MMR11004120714210006530412000000000000000   10300005 00104100000000000000000000002800     
100   95030800044496200000000000012700000000012700002000000010410404120734300006754887210412210214000675   1030000100030000   541110001915777031200000019MOB BANK               YGN           MMR11004120734300006750412000000000000000   10300003 00104100000000000000000000002540     
100   95030518888760710000000000035350000000035350002000000010410404120426210006655LOS6K0412210210000665   1030000100030000   541110001915777031200000019MOB BANK               YGN           MMR11004120426210006650412000000000000000   10300002 00104100000000000000000000007070     
100   35710500385303980000000000043200000000043200002000000010410404120437530000865007070412210211000086   1030000100030000   541120000018777031200000002MOB BANK               YGN           MMR11004120437530000860412000000000000000   10300005 00104100000000000000000000008640     
100   62343302005179650000000000031230000000031230002000000010410404120554540001377085380412210212000137   1030000100030000   541120003111777031200000031MOB BANK               YGN           MMR11004120554540001370412000000000000000   10300004 00104100000000000000000000006246     
100   35710500344440570000000000019350000000019350002000000010410404120917400006564771290412210215000656   1030000100030000   541120003117777031200000031MOB BANK               YGN           MMR11004120917400006560412000000000000000   10300005 00104100000000000000000000003870     
100   35710830863670580000000000039100000000039100002000000010410404120605580010734355920412210212001073   1030000100030000   541110001907777031200000019MOB BANK               YGN           MMR11004120605580010730412000000000000000   10300003 00104100000000000000000000007820     
100   35710500304785470000000000006150000000006150002000000010410404120350470010662838300412210210001066   1030000100030000   541110001907777031200000019MOB BANK               YGN           MMR11004120350470010660412000000000000000   10300005 00104100000000000000000000001230     
100   62343301010618320000000000300000000000300000002000000010410404120838270014676021450412210215001467   1030000100030000   541160000001777031200000006MOB BANK               YGN           MMR11004120838270014670412000000000000000   10300004 00104100000000000000000000060000     
100   35710500375335670000000000005850000000005850002000000010410404121135020001623518210412210218000162   1030000100030000   541120003111777031200000031MOB BANK               YGN           MMR11004121135020001620412000000000000000   10300005 00104100000000000000000000001170     
100   95031800981558180000000000030150000000030150002000000010410404121136480004247537520412210218000424   1030000100030000   541110001903777031200000019MOB BANK               YGN           MMR11004121136480004240412000000000000000   10300013 00104100000000000000000000006030     
100   35710500390740160000000000024480000000024480002000000010410404120613380004736295180412210212000473   1030000100030000   541120003106777031200000031MOB BANK               YGN           MMR11004120613380004730412000000000000000   10300005 00104100000000000000000000004896     
100   9503051889964306000000000000867300000000867300200000001041040412075606000612CU8KHX0412210214000612   1030000100030000   541110001920777031200000019MOB BANK               YGN           MMR11004120756060006120412000000000000000   10300002 00104100000000000000000000001735     
100   35710500180071100000000000015150000000015150002000000010410404120737420006770828500412210214000677   1030000100030000   541110001915777031200000019MOB BANK               YGN           MMR11004120737420006770412000000000000000   10300005 00104100000000000000000000003030     
100   9503051895576664000000000012798000000012798000200000001041040412102332000666XAP9IJ0412210216000666   1030000100030000   541120003117777031200000031MOB BANK               YGN           MMR11004121023320006660412000000000000000   10300002 00104100000000000000000000025596     
100   62921400056508980000000000014900000000014900002000000010410404121156010006902222220412210218000690   1030000100030000   541110001915777031200000019MOB BANK               YGN           MMR11004121156010006900412000000000000000   10300009 00104100000000000000000000002980     
100   9503051024199396000000000009000000000009000000200000001041040412072148001081ZXFKIF0412210213001081   1030000100030000   541110001907777031200000019MOB BANK               YGN           MMR11004120721480010810412000000000000000   10300002 00104100000000000000000000018000     
100   95030800005684150000000000032500000000032500002000000010410404121212060010216552730412210218001021   1030000100030000   541110001905777031200000019MOB BANK               YGN           MMR11004121212060010210412000000000000000   10300003 00104100000000000000000000006500     
100   9503051025763612000000000001580000000001580000200000001041040412084715001089U3QSU50412210215001089   1030000100030000   541110001907777031200000019MOB BANK               YGN           MMR11004120847150010890412000000000000000   10300002 00104100000000000000000000003160     
100   9503051891600880000000000003430000000003430000200000001041040412102451001003OTMZMA0412210216001003   1030000100030000   541110001905777031200000019MOB BANK               YGN           MMR11004121024510010030412000000000000000   10300002 00104100000000000000000000006860     
100   62343302005179650000000000008100000000008100002000000010410404120620150001419023440412210212000141   1030000100030000   541120003111777031200000031MOB BANK               YGN           MMR11004120620150001410412000000000000000   10300004 00104100000000000000000000001620     
100   35710500373865450000000000016200000000016200002000000010410404120653330001434247150412210213000143   1030000100030000   541120003111777031200000031MOB BANK               YGN           MMR11004120653330001430412000000000000000   10300005 00104100000000000000000000003240     
100   9503051025697182000000000004000000000004000000200000001041040412035403000658VSD4W50412210210000658   1030000100030000   541110001915777031200000019MOB BANK               YGN           MMR11004120354030006580412000000000000000   10300002 00104100000000000000000000008000     
100   35710500153046680000000000013950000000013950002000000010410404120747500006790559430412210214000679   1030000100030000   541110001915777031200000019MOB BANK               YGN           MMR11004120747500006790412000000000000000   10300005 00104100000000000000000000002790     
100   9503051889964306000000000000417600000000417600200000001041040412080650000614FLDMIA0412210214000614   1030000100030000   541110001920777031200000019MOB BANK               YGN           MMR11004120806500006140412000000000000000   10300002 00104100000000000000000000000835     
100   9503051895797237000000000002880000000002880000200000001041040412045031000668CI4GIT0412210211000668   1030000100030000   541110001915777031200000019MOB BANK               YGN           MMR11004120450310006680412000000000000000   10300002 00104100000000000000000000005760     
100   9503051021412131000000000002660000000002660000200000001041040412074838000993BFMGSB0412210214000993   1030000100030000   541110001905777031200000019MOB BANK               YGN           MMR11004120748380009930412000000000000000   10300002 00104100000000000000000000005320     
100   35710830996890190000000000015450000000015450002000000010410404120706190001454718100412210213000145   1030000100030000   541120003111777031200000031MOB BANK               YGN           MMR11004120706190001450412000000000000000   10300003 00104100000000000000000000003090     
100   35710500344469460000000000132000000000132000002000000010410404120917320002173203910412210215000217   1030000100030000   541120000017777031200000002MOB BANK               YGN           MMR11004120917320002170412000000000000000   10300005 00104100000000000000000000026400     
100   9503051022112557000000000003204000000003204000200000001041040412103003000411AMXVNE0412210217000411   1030000100030000   541120003103777031200000031MOB BANK               YGN           MMR11004121030030004110412000000000000000   10300002 00104100000000000000000000006408     
100   9503051886978978000000000003950000000003950000200000001041040412074229000478NF2NFZ0412210214000478   1030000100030000   541120003106777031200000031MOB BANK               YGN           MMR11004120742290004780412000000000000000   10300002 00104100000000000000000000007900     
100   95031100002314150000000000044000000000044000002000000010410404120400260006602622120412210210000660   1030000100030000   541110001915777031200000019MOB BANK               YGN           MMR11004120400260006600412000000000000000   10300006 00104100000000000000000000008800     
100   35710500305579440000000000021300000000021300002000000010410404121125330011006784170412210217001100   1030000100030000   541110001907777031200000019MOB BANK               YGN           MMR11004121125330011000412000000000000000   10300005 00104100000000000000000000004260     
100   9503051892016813000000000018612000000018612000200000001041040412123150000165HVYU7E0412210219000165   1030000100030000   541120003111777031200000031MOB BANK               YGN           MMR11004121231500001650412000000000000000   10300002 00104100000000000000000000037224     
100   9503051892016813000000000001485000000001485000200000001041040412123506000166ZUY3WT0412210219000166   1030000100030000   541120003111777031200000031MOB BANK               YGN           MMR11004121235060001660412000000000000000   10300002 00104100000000000000000000002970     
100   62346600165237930000000000030600000000030600002000000010410404120356470006324271140412210210000632   1030000100030000   541120003117777031200000031MOB BANK               YGN           MMR11004120356470006320412000000000000000   10300005 00104100000000000000000000006120     
100   9503051024199396000000000011205000000011205000200000001041040412081631000681C1SMXH0412210214000681   1030000100030000   541110001915777031200000019MOB BANK               YGN           MMR11004120816310006810412000000000000000   10300002 00104100000000000000000000022410     
100   35710830103927500000000000015750000000015750002000000010410404120818130006825149410412210214000682   1030000100030000   541110001915777031200000019MOB BANK               YGN           MMR11004120818130006820412000000000000000   10300003 00104100000000000000000000003150     
100   62346600169919330000000000004250000000004250002000000010410404120820570010839997050412210214001083   1030000100030000   541110001907777031200000019MOB BANK               YGN           MMR11004120820570010830412000000000000000   10300005 00104100000000000000000000000850     
