100   62346600155698210000000000005300000000005300002000000010410404081223260005084514510408209818000508   1030000100030000   541110001915777031200000019MOB BANK               YGN           MMR11004081223260005080408000000000000000   10300005 00104100000000000000000000001060     
100   35710500355728800000000000011904000000011904002000000010410404080930110004951004540408209816000495   1030000100030000   541110001915777031200000019MOB BANK               YGN           MMR11004080930110004950408000000000000000   10300005 00104100000000000000000000002381     
100   9503051024862217000000000000870000000000870000200000001041040408101657000501VHMGRE0408209816000501   1030000100030000   541110001915777031200000019MOB BANK               YGN           MMR11004081016570005010408000000000000000   10300002 00104100000000000000000000001740     
100   9503190001355009000000000004860000000004860000200000001041040408113441000503NMPLPN0408209818000503   1030000100030000   541110001915777031200000019MOB BANK               YGN           MMR11004081134410005030408000000000000000   10300014 00104100000000000000000000009720     
100   35710830528165670000000000011400000000011400002000000010410404081128430008981732500408209817000898   1030000100030000   541110001905777031200000019MOB BANK               YGN           MMR11004081128430008980408000000000000000   10300003 00104100000000000000000000002280     
100   35710500153290380000000000001350000000001350002000000010410404080913580009326310450408209815000932   1030000100030000   541110001907777031200000019MOB BANK               YGN           MMR11004080913580009320408000000000000000   10300005 00104100000000000000000000000270     
100   9503051024322865000000000001070000000001070000200000001041040408093352000935CY1BDZ0408209816000935   1030000100030000   541110001907777031200000019MOB BANK               YGN           MMR11004080933520009350408000000000000000   10300002 00104100000000000000000000002140     
100   95031900013550090000000000029520000000029520002000000010410404081151000002918E2MZV0408209818000291   1030000100030000   541110001903777031200000019MOB BANK               YGN           MMR11004081151000002910408000000000000000   10300014 00104100000000000000000000005904     
100   9503051892938909000000000019910000000019910000200000001041040408134223000451KWAG3H0408209820000451   1030000100030000   581210001201777031200000012MOB BANK               YGN           MMR11004081342230004510408000000000000000   10300002 00104100000000000000000000067694     
100   95030510208893700000000000020050000000020050002000000010410404080417180004698QPUVI0408209810000469   1030000100030000   541110001915777031200000019MOB BANK               YGN           MMR11004080417180004690408000000000000000   10300002 00104100000000000000000000004010     
100   9503051024791176000000000008800000000008800000200000001041040408055049000922LMCMDN0408209812000922   1030000100030000   541110001907777031200000019MOB BANK               YGN           MMR11004080550490009220408000000000000000   10300002 00104100000000000000000000017600     
100   62443000803055990000000000011800000000011800002000000010410404081055300001527007370408209817000152   1030000100030000   541120003001777031200000030MOB BANK               YGN           MMR11004081055300001520408000000000000000   10300005 00104100000000000000000000004130     
100   9503051024709533000000000001050000000001050000200000001041040408073740000277RNCUWE0408209814000277   1030000100030000   541110001903777031200000019MOB BANK               YGN           MMR11004080737400002770408000000000000000   10300002 00104100000000000000000000002100     
100   9503051890991165000000000003600000000003600000200000001041040408055843000482L10D9R0408209812000482   1030000100030000   541110001915777031200000019MOB BANK               YGN           MMR11004080558430004820408000000000000000   10300002 00104100000000000000000000007200     
100   9503051872972761000000000000800000000000800000200000001041040408123124000483WSQEQ00408209819000483   1030000100030000   541110001920777031200000019MOB BANK               YGN           MMR11004081231240004830408000000000000000   10300002 00104100000000000000000000001600     
100   35710500305311880000000000025200000000025200002000000010410404081035110000830795340408209817000083   1030000100030000   541110001917777031200000019MOB BANK               YGN           MMR11004081035110000830408000000000000000   10300005 00104100000000000000000000005040     
100   62443000103189930000000000010150000000010150002000000010410404081135370009006144140408209818000900   1030000100030000   541110001905777031200000019MOB BANK               YGN           MMR11004081135370009000408000000000000000   10300005 00104100000000000000000000003552     
100   62346600113000560000000000060750000000060750002000000010410404080949430004997677710408209816000499   1030000100030000   541110001915777031200000019MOB BANK               YGN           MMR11004080949430004990408000000000000000   10300005 00104100000000000000000000012150     
100   9503051019613120000000000002860000000002860000200000001041040408063626000577FBUJCF0408209813000577   1030000100030000   581210001501777031200000015MOB BANK               YGN           MMR11004080636260005770408000000000000000   10300002 00104100000000000000000000009724     
100   35710500161296270000000000005400000000005400002000000010410404081215310004818621000408209818000481   1030000100030000   541110001920777031200000019MOB BANK               YGN           MMR11004081215310004810408000000000000000   10300005 00104100000000000000000000001080     
100   35710900869371860000000000033222000000033222002000000010410404081111500008911631110408209817000891   1030000100030000   541110001905777031200000019MOB BANK               YGN           MMR11004081111500008910408000000000000000   10300003 00104100000000000000000000006644     
100   9503051025697513000000000002500000000002500000200000001041040408070537000924WLQC3X0408209813000924   1030000100030000   541110001907777031200000019MOB BANK               YGN           MMR11004080705370009240408000000000000000   10300002 00104100000000000000000000005000     
100   95030201447689920000000000016300000000016300002000000010410404080817120004738576280408209814000473   1030000100030000   541110001920777031200000019MOB BANK               YGN           MMR11004080817120004730408000000000000000   10200002 00104100000000000000000000003260     
100   9503051023205798000000000001300000000001300000200000001041040408072122000561PERQOG0408209813000561   1030000100030000   541120003117777031200000031MOB BANK               YGN           MMR11004080721220005610408000000000000000   10300002 00104100000000000000000000002600     
100   9503051022043471000000000000320000000000320000200000001041040408073606000879GCFLL30408209814000879   1030000100030000   541110001905777031200000019MOB BANK               YGN           MMR11004080736060008790408000000000000000   10300002 00104100000000000000000000000640     
100   35710500186573510000000000058500000000058500002000000010410404080325430001257693240408209809000125   1030000100030000   541110001919777031200000019MOB BANK               YGN           MMR11004080325430001250408000000000000000   10300005 00104100000000000000000000011700     
100   35710830046867380000000000009000000000009000002000000010410404080815250001340572710408209814000134   1030000100030000   541110001919777031200000019MOB BANK               YGN           MMR11004080815250001340408000000000000000   10300003 00104100000000000000000000001800     
100   9503051025066321000000000000230000000000230000200000001041040408032743000150GMHKT70408209809000150   1030000100030000   541120003001777031200000030MOB BANK               YGN           MMR11004080327430001500408000000000000000   10300002 00104100000000000000000000000460     
100   9503051885914883000000000000530000000000530000200000001041040408083358000151VOUBJS0408209815000151   1030000100030000   541120003001777031200000030MOB BANK               YGN           MMR11004080833580001510408000000000000000   10300002 00104100000000000000000000001060     
100   9503051891427540000000000001910400000001910400200000001041040408050452000273EFEEXZ0408209811000273   1030000100030000   541110001903777031200000019MOB BANK               YGN           MMR11004080504520002730408000000000000000   10300002 00104100000000000000000000003821     
100   35710500305311880000000000051260000000051260002000000010410404081301460002931601730408209819000293   1030000100030000   541110001903777031200000019MOB BANK               YGN           MMR11004081301460002930408000000000000000   10300005 00104100000000000000000000010252     
100   9503051896149750000000000005850000000005850000200000001041040408084100000281DEO5QU0408209815000281   1030000100030000   541110001903777031200000019MOB BANK               YGN           MMR11004080841000002810408000000000000000   10300002 00104100000000000000000000011700     
100   9503051872461963000000000001890000000001890000200000001041040408044539000474QDVY8G0408209811000474   1030000100030000   541110001915777031200000019MOB BANK               YGN           MMR11004080445390004740408000000000000000   10300002 00104100000000000000000000003780     
100   9503051887190219000000000006615000000006615000200000001041040408123954000510249M5O0408209819000510   1030000100030000   541110001915777031200000019MOB BANK               YGN           MMR11004081239540005100408000000000000000   10300002 00104100000000000000000000013230     
100   95030800024212170000000000006468000000006468002000000010410404081012390009381276010408209816000938   1030000100030000   541110001907777031200000019MOB BANK               YGN           MMR11004081012390009380408000000000000000   10300003 00104100000000000000000000001294     
100   9503051024481018000000000000705600000000705600200000001041040408105307000940TUIAJ60408209817000940   1030000100030000   541110001907777031200000019MOB BANK               YGN           MMR11004081053070009400408000000000000000   10300002 00104100000000000000000000001411     
100   35710500323621860000000000099750000000099750002000000010410404080327060014121023420408209809001412   1030000100030000   541160000001777031200000006MOB BANK               YGN           MMR11004080327060014120408000000000000000   10300005 00104100000000000000000000019950     
100   950305188889079100000000000466500000000466500020000000104104040807425200006230SHXM0408209814000062   1030000100030000   541110001917777031200000019MOB BANK               YGN           MMR11004080742520000620408000000000000000   10300002 00104100000000000000000000009330     
100   9503051888890791000000000001095000000001095000200000001041040408075427000487KTWDRD0408209814000487   1030000100030000   541110001915777031200000019MOB BANK               YGN           MMR11004080754270004870408000000000000000   10300002 00104100000000000000000000002190     
100   9503051890915164000000000006768000000006768000200000001041040408100737000500N7QNOI0408209816000500   1030000100030000   541110001915777031200000019MOB BANK               YGN           MMR11004081007370005000408000000000000000   10300002 00104100000000000000000000013536     
100   9503054000610014000000000001000000000001000000200000001041040408065343000484ZHLSZL0408209813000484   1030000100030000   541110001915777031200000019MOB BANK               YGN           MMR11004080653430004840408000000000000000   10300002 00104100000000000000000000002000     
100   9503051023945633000000000002600000000002600000200000001041040408083005000490AGAZ8U0408209815000490   1030000100030000   541110001915777031200000019MOB BANK               YGN           MMR11004080830050004900408000000000000000   10300002 00104100000000000000000000005200     
100   9503051023482033000000000003280000000003280000200000001041040408112232000893VIUART0408209817000893   1030000100030000   541110001905777031200000019MOB BANK               YGN           MMR11004081122320008930408000000000000000   10300002 00104100000000000000000000006560     
100   9503054000431825000000000000748000000000748000200000001041040408070713000926IFJTYT0408209813000926   1030000100030000   541110001907777031200000019MOB BANK               YGN           MMR11004080707130009260408000000000000000   10300002 00104100000000000000000000001496     
100   9503051024440865000000000008640000000008640000200000001041040408050434000129IGLLDF0408209811000129   1030000100030000   541110001919777031200000019MOB BANK               YGN           MMR11004080504340001290408000000000000000   10300002 00104100000000000000000000017280     
100   9503051892266269000000000001400000000001400000200000001041040408075944000249CEUROX0408209814000249   1030000100030000   541120003105777031200000031MOB BANK               YGN           MMR11004080759440002490408000000000000000   10300002 00104100000000000000000000002800     
100   9503051023205798000000000001720000000001720000200000001041040408072241000563DU4NMF0408209813000563   1030000100030000   541120003117777031200000031MOB BANK               YGN           MMR11004080722410005630408000000000000000   10300002 00104100000000000000000000003440     
100   9503051025645199000000000001190000000001190000200000001041040408061154000553LKNOJB0408209812000553   1030000100030000   541120003117777031200000031MOB BANK               YGN           MMR11004080611540005530408000000000000000   10300002 00104100000000000000000000002380     
100   62921400050684970000000000007900000000007900002000000010410404080501170009162222220408209811000916   1030000100030000   541110001907777031200000019MOB BANK               YGN           MMR11004080501170009160408000000000000000   10300009 00104100000000000000000000001580     
100   35710830393139440000000000026000000000026000002000000010410404080743470002470382820408209814000247   1030000100030000   541120003105777031200000031MOB BANK               YGN           MMR11004080743470002470408000000000000000   10300003 00104100000000000000000000005200     
100   62346600113000560000000000010080000000010080002000000010410404080927180002839316400408209815000283   1030000100030000   541110001903777031200000019MOB BANK               YGN           MMR11004080927180002830408000000000000000   10300005 00104100000000000000000000002016     
100   35710830475682160000000000007000000000007000002000000010410404080945310004751113300408209816000475   1030000100030000   541110001920777031200000019MOB BANK               YGN           MMR11004080945310004750408000000000000000   10300003 00104100000000000000000000001400     
100   9503051872461963000000000003870000000003870000200000001041040408045302000476CZA3OU0408209811000476   1030000100030000   541110001915777031200000019MOB BANK               YGN           MMR11004080453020004760408000000000000000   10300002 00104100000000000000000000007740     
100   9503051024428506000000000001480000000001480000200000001041040408124247000512TE1OHZ0408209819000512   1030000100030000   541110001915777031200000019MOB BANK               YGN           MMR11004081242470005120408000000000000000   10300002 00104100000000000000000000002960     
100   9503051025763612000000000002670000000002670000200000001041040408105748000942SPYOHH0408209817000942   1030000100030000   541110001907777031200000019MOB BANK               YGN           MMR11004081057480009420408000000000000000   10300002 00104100000000000000000000005340     
100   35710900869371860000000000064484000000064484002000000010410404081102190009441574020408209817000944   1030000100030000   541110001907777031200000019MOB BANK               YGN           MMR11004081102190009440408000000000000000   10300003 00104100000000000000000000012897     
100   9503051024362218000000000000990000000000990000200000001041040408032416001250VTOXI50408209809001250   1030000100030000   581250000001777031200000005MOB BANK               YGN           MMR11004080324160012500408000000000000000   10300002 00104100000000000000000000003366     
100   95030510239289020000000000025850000000025850002000000010410404080538070012539MMRTH0408209812001253   1030000100030000   581250000001777031200000005MOB BANK               YGN           MMR11004080538070012530408000000000000000   10300002 00104100000000000000000000008789     
100   62346600117420750000000000091800000000091800002000000010410404080412080014141723870408209810001414   1030000100030000   541160000001777031200000006MOB BANK               YGN           MMR11004080412080014140408000000000000000   10300005 00104100000000000000000000018360     
100   35710830632049440000000000257400000000257400002000000010410404080447190014169324100408209811001416   1030000100030000   541160000001777031200000006MOB BANK               YGN           MMR11004080447190014160408000000000000000   10300003 00104100000000000000000000051480     
100   9503051023926567000000000000921200000000921200200000001041040407034501000868LWD78E0407209710000868   1030000100030000   541110001905777031200000019MOB BANK               YGN           MMR11004070345010008680407000000000000000   10300002 00104100000000000000000000001842     
100   35710950914303170000000000052430000000052430002000000010410404070412210008980474310407209710000898   1030000100030000   541110001907777031200000019MOB BANK               YGN           MMR11004070412210008980407000000000000000   10300003 00104100000000000000000000010486     
100   9503051023340181000000000001240000000001240000200000001041040407062438000911CZKFDY0407209712000911   1030000100030000   541110001907777031200000019MOB BANK               YGN           MMR11004070624380009110407000000000000000   10300002 00104100000000000000000000002480     
100   35710500345492930000000000010000000000010000002000000010410404070318140000493159970407209709000049   1030000100030000   541110001917777031200000019MOB BANK               YGN           MMR11004070318140000490407000000000000000   10300005 00104100000000000000000000002000     
100   95030510232057980000000000012060000000012060002000000010410404080705100000454VZSCJ0408209813000045   1030000100030000   541120003111777031200000031MOB BANK               YGN           MMR11004080705100000450408000000000000000   10300002 00104100000000000000000000002412     
100   62346600191490910000000000042000000000042000002000000010410404080413230000416922820408209810000041   1030000100030000   541120003111777031200000031MOB BANK               YGN           MMR11004080413230000410408000000000000000   10300005 00104100000000000000000000008400     
100   35710830486505180000000000008330000000008330002000000010410404080840430000490724520408209815000049   1030000100030000   541120003111777031200000031MOB BANK               YGN           MMR11004080840430000490408000000000000000   10300003 00104100000000000000000000001666     
100   35710500335372810000000000035991000000035991002000000010410404080425100000561320250408209810000056   1030000100030000   541110001917777031200000019MOB BANK               YGN           MMR11004080425100000560408000000000000000   10300005 00104100000000000000000000007198     
100   9503051024481018000000000001737000000001737000200000001041040408102652000081T0QIEH0408209816000081   1030000100030000   541110001917777031200000019MOB BANK               YGN           MMR11004081026520000810408000000000000000   10300002 00104100000000000000000000003474     
100   35710500360131570000000000053600000000053600002000000010410404081014520000503696690408209816000050   1030000100030000   541120003111777031200000031MOB BANK               YGN           MMR11004081014520000500408000000000000000   10300005 00104100000000000000000000010720     
100   35710830935309530000000000017400000000017400002000000010410404080840080000690721010408209815000069   1030000100030000   541110001917777031200000019MOB BANK               YGN           MMR11004080840080000690408000000000000000   10300003 00104100000000000000000000003480     
100   9503051023924885000000000002250000000002250000200000001041040408050220000043LV44LB0408209811000043   1030000100030000   541120003111777031200000031MOB BANK               YGN           MMR11004080502200000430408000000000000000   10300002 00104100000000000000000000004500     
100   35710500340045390000000000020520000000020520002000000010410404070619230002653958000407209712000265   1030000100030000   541110001903777031200000019MOB BANK               YGN           MMR11004070619230002650407000000000000000   10300005 00104100000000000000000000004104     
100   35650883620008420000000000030630000000030630002000000010410404070523140004492137680407209711000449   1030000100030000   541110001920777031200000019MOB BANK               YGN           MMR11004070523140004490407000000000000000   10300005 00104100000000000000000000010720     
100   95031010940695710000000000025800000000025800002000000010410404070529030000518988830407209711000051   1030000100030000   541110001917777031200000019MOB BANK               YGN           MMR11004070529030000510407000000000000000   10300005 00104100000000000000000000005160     
100   9503190000672099000000000004824000000004824000200000001041040407040949000260I4Z9JK0407209710000260   1030000100030000   541110001903777031200000019MOB BANK               YGN           MMR11004070409490002600407000000000000000   10300014 00104100000000000000000000009648     
100   35710500345492930000000000038800000000038800002000000010410404070415350002613304800407209710000261   1030000100030000   541110001903777031200000019MOB BANK               YGN           MMR11004070415350002610407000000000000000   10300005 00104100000000000000000000007760     
100   35710500183712760000000000010000000000010000002000000010410404070556220004533043800407209712000453   1030000100030000   541110001920777031200000019MOB BANK               YGN           MMR11004070556220004530407000000000000000   10300005 00104100000000000000000000002000     
100   35710900082136900000000000013800000000013800002000000010410404070436410002620620310407209711000262   1030000100030000   541110001903777031200000019MOB BANK               YGN           MMR11004070436410002620407000000000000000   10300003 00104100000000000000000000002760     
100   9503051024221471000000000000630000000000630000200000001041040407040717000447YNG0OB0407209710000447   1030000100030000   541110001920777031200000019MOB BANK               YGN           MMR11004070407170004470407000000000000000   10300002 00104100000000000000000000001260     
100   35710500305311880000000000004410000000004410002000000010410404081036070000852958400408209817000085   1030000100030000   541110001917777031200000019MOB BANK               YGN           MMR11004081036070000850408000000000000000   10300005 00104100000000000000000000000882     
100   35710500344369880000000000030150000000030150002000000010410404080943460000735393900408209816000073   1030000100030000   541110001917777031200000019MOB BANK               YGN           MMR11004080943460000730408000000000000000   10300005 00104100000000000000000000006030     
100   9503051887190219000000000007335000000007335000200000001041040408113331000088EVPDDZ0408209818000088   1030000100030000   541110001917777031200000019MOB BANK               YGN           MMR11004081133310000880408000000000000000   10300002 00104100000000000000000000014670     
100   9503051025844792000000000009936000000009936000200000001041040408094617000075PFCNUA0408209816000075   1030000100030000   541110001917777031200000019MOB BANK               YGN           MMR11004080946170000750408000000000000000   10300002 00104100000000000000000000019872     
100   9503051889693541000000000002541000000002541000200000001041040408083347000067OGYDBJ0408209815000067   1030000100030000   541110001917777031200000019MOB BANK               YGN           MMR11004080833470000670408000000000000000   10300002 00104100000000000000000000005082     
100   9503051897265498000000000002367000000002367000200000001041040408081516000064BNUXXW0408209814000064   1030000100030000   541110001917777031200000019MOB BANK               YGN           MMR11004080815160000640408000000000000000   10300002 00104100000000000000000000004734     
100   9503051025795911000000000001908000000001908000200000001041040408100319000079O8PPNH0408209816000079   1030000100030000   541110001917777031200000019MOB BANK               YGN           MMR11004081003190000790408000000000000000   10300002 00104100000000000000000000003816     
100   35710830046867380000000000021650000000021650002000000010410404080830580000660666010408209815000066   1030000100030000   541110001917777031200000019MOB BANK               YGN           MMR11004080830580000660408000000000000000   10300003 00104100000000000000000000004330     
100   35710950321940300000000000035000000000035000002000000010410404070629450009131298620407209712000913   1030000100030000   541110001907777031200000019MOB BANK               YGN           MMR11004070629450009130407000000000000000   10300003 00104100000000000000000000007000     
100   9503051023340181000000000001872000000001872000200000001041040407051759000263ZMCKBH0407209711000263   1030000100030000   541110001903777031200000019MOB BANK               YGN           MMR11004070517590002630407000000000000000   10300002 00104100000000000000000000003744     
100   9503051887473029000000000001780000000001780000200000001041040407053148000264XIJ1QG0407209712000264   1030000100030000   541110001903777031200000019MOB BANK               YGN           MMR11004070531480002640407000000000000000   10300002 00104100000000000000000000003560     
100   35710950882652700000000000056580000000056580002000000010410404071053530005492883500407209717000549   1030000100030000   541120003117777031200000031MOB BANK               YGN           MMR11004071053530005490407000000000000000   10300003 00104100000000000000000000011316     
100   9503051022075002000000000003173000000003173000200000001041040407101312000544UUZHOJ0407209716000544   1030000100030000   541120003117777031200000031MOB BANK               YGN           MMR11004071013120005440407000000000000000   10300002 00104100000000000000000000006346     
100   9503051023881747000000000000675000000000675000200000001041040407082020000456BFR7SS0407209714000456   1030000100030000   541110001920777031200000019MOB BANK               YGN           MMR11004070820200004560407000000000000000   10300002 00104100000000000000000000001350     
100   35710500353697580000000000017700000000017700002000000010410404070753160005406600250407209714000540   1030000100030000   541120003117777031200000031MOB BANK               YGN           MMR11004070753160005400407000000000000000   10300005 00104100000000000000000000003540     
100   35710500325696240000000000132624000000132624002000000010410404070603300009096711020407209712000909   1030000100030000   541110001907777031200000019MOB BANK               YGN           MMR11004070603300009090407000000000000000   10300005 00104100000000000000000000026525     
100   9503051025697513000000000000918000000000918000200000001041040408071634000058UIE8VI0408209813000058   1030000100030000   541110001917777031200000019MOB BANK               YGN           MMR11004080716340000580408000000000000000   10300002 00104100000000000000000000001836     
100   9503051024946960000000000003000000000003000000200000001041040408072701000060FFHDLV0408209813000060   1030000100030000   541110001917777031200000019MOB BANK               YGN           MMR11004080727010000600408000000000000000   10300002 00104100000000000000000000006000     
100   35710830139953280000000000015750000000015750002000000010410404081239240000602156510408209819000060   1030000100030000   541120003111777031200000031MOB BANK               YGN           MMR11004081239240000600408000000000000000   10300003 00104100000000000000000000003150     
100   9503051025364031000000000001260000000001260000200000001041040408122503000058VWZIZK0408209818000058   1030000100030000   541120003111777031200000031MOB BANK               YGN           MMR11004081225030000580408000000000000000   10300002 00104100000000000000000000002520     
100   9503051023923705000000000007578000000007578000200000001041040408084751000071QSEBMV0408209815000071   1030000100030000   541110001917777031200000019MOB BANK               YGN           MMR11004080847510000710408000000000000000   10300002 00104100000000000000000000015156     
100   9503051891894624000000000000290000000000290000200000001041040408095016000077GAN3EB0408209816000077   1030000100030000   541110001917777031200000019MOB BANK               YGN           MMR11004080950160000770408000000000000000   10300002 00104100000000000000000000000580     
100   35710500176306230000000000008670000000008670002000000010410404080755030000462152910408209814000046   1030000100030000   541120003111777031200000031MOB BANK               YGN           MMR11004080755030000460408000000000000000   10300005 00104100000000000000000000001734     
100   9503051024814499000000000000621000000000621000200000001041040408110550000054OMQ1NZ0408209817000054   1030000100030000   541120003111777031200000031MOB BANK               YGN           MMR11004081105500000540408000000000000000   10300002 00104100000000000000000000001242     
100   95030800039875880000000000006640000000006640002000000010410404070546090004511037310407209712000451   1030000100030000   541110001920777031200000019MOB BANK               YGN           MMR11004070546090004510407000000000000000   10300003 00104100000000000000000000001328     
100   9503051887190219000000000001188000000001188000200000001041040408114137000090I1BBG50408209818000090   1030000100030000   541110001917777031200000019MOB BANK               YGN           MMR11004081141370000900408000000000000000   10300002 00104100000000000000000000002376     
100   9503051024440865000000000081000000000081000000200000001041040408034324000127F9JXNQ0408209810000127   1030000100030000   541110001919777031200000019MOB BANK               YGN           MMR11004080343240001270408000000000000000   10300002 00104100000000000000000000162000     
100   35710830111459670000000000024000000000024000002000000010410404080943140002551099600408209816000255   1030000100030000   541120003105777031200000031MOB BANK               YGN           MMR11004080943140002550408000000000000000   10300003 00104100000000000000000000004800     
100   9503051021459975000000000003150000000003150000200000001041040408071932000275NLVARS0408209813000275   1030000100030000   541110001903777031200000019MOB BANK               YGN           MMR11004080719320002750408000000000000000   10300002 00104100000000000000000000006300     
100   35710830078888020000000000041400000000041400002000000010410404080853230004930800500408209815000493   1030000100030000   541110001915777031200000019MOB BANK               YGN           MMR11004080853230004930408000000000000000   10300003 00104100000000000000000000008280     
100   9503051892007184000000000001250000000001250000200000001041040408094510000497ESXSYG0408209816000497   1030000100030000   541110001915777031200000019MOB BANK               YGN           MMR11004080945100004970408000000000000000   10300002 00104100000000000000000000002500     
100   95030518729727610000000000007840000000007840002000000010410404081220120009037GMBW70408209818000903   1030000100030000   541110001905777031200000019MOB BANK               YGN           MMR11004081220120009030408000000000000000   10300002 00104100000000000000000000001568     
100   35710500101079260000000000066101000000066101002000000010410404080850590008829686730408209815000882   1030000100030000   541110001905777031200000019MOB BANK               YGN           MMR11004080850590008820408000000000000000   10300005 00104100000000000000000000013220     
100   35710500305183260000000000107000000000107000002000000010410404080810070009286402010408209814000928   1030000100030000   541110001907777031200000019MOB BANK               YGN           MMR11004080810070009280408000000000000000   10300005 00104100000000000000000000021400     
100   9503054000783290000000000001368000000001368000200000001041040408073100000565D0YGQH0408209814000565   1030000100030000   541120003117777031200000031MOB BANK               YGN           MMR11004080731000005650408000000000000000   10300002 00104100000000000000000000002736     
100   35710500305311880000000000011500000000011500002000000010410404081234050009515019380408209819000951   1030000100030000   541110001907777031200000019MOB BANK               YGN           MMR11004081234050009510408000000000000000   10300005 00104100000000000000000000002300     
100   9503051889754749000000000008160000000008160000200000001041040408055623001420FFCWDK0408209812001420   1030000100030000   541160000001777031200000006MOB BANK               YGN           MMR11004080556230014200408000000000000000   10300002 00104100000000000000000000016320     
100   35710900869371860000000000004700000000004700002000000010410404081005310004771233300408209816000477   1030000100030000   541110001920777031200000019MOB BANK               YGN           MMR11004081005310004770408000000000000000   10300003 00104100000000000000000000000940     
100   95030510252155060000000000088000000000088000002000000010410404081153290009467NNVER0408209818000946   1030000100030000   541110001907777031200000019MOB BANK               YGN           MMR11004081153290009460408000000000000000   10300002 00104100000000000000000000017600     
100   35710830376367910000000000013310000000013310002000000010410404080647360012540045800408209813001254   1030000100030000   581250000001777031200000005MOB BANK               YGN           MMR11004080647360012540408000000000000000   10300003 00104100000000000000000000004526     
100   35710500381370460000000000013970000000013970002000000010410404081100050012557085910408209817001255   1030000100030000   581250000001777031200000005MOB BANK               YGN           MMR11004081100050012550408000000000000000   10300005 00104100000000000000000000004750     
100   95030800029195820000000000315600000000315600002000000010410404080730270014240302810408209814001424   1030000100030000   541160000001777031200000006MOB BANK               YGN           MMR11004080730270014240408000000000000000   10300003 00104100000000000000000000063120     
100   9503051023923705000000000003600000000003600000200000001041040408081327000132OORMUK0408209814000132   1030000100030000   541110001919777031200000019MOB BANK               YGN           MMR11004080813270001320408000000000000000   10300002 00104100000000000000000000007200     
100   95030510219982610000000000013800000000013800002000000010410404081054180002890JPQ6U0408209817000289   1030000100030000   541110001903777031200000019MOB BANK               YGN           MMR11004081054180002890408000000000000000   10300002 00104100000000000000000000002760     
100   95030510242071160000000000010400000000010400002000000010410404080524520004697PRBLC0408209811000469   1030000100030000   541110001920777031200000019MOB BANK               YGN           MMR11004080524520004690408000000000000000   10300002 00104100000000000000000000002080     
100   9503051872972761000000000002635600000002635600200000001041040408115416000504MXFPHH0408209818000504   1030000100030000   541110001915777031200000019MOB BANK               YGN           MMR11004081154160005040408000000000000000   10300002 00104100000000000000000000005271     
100   35710830528165670000000000010350000000010350002000000010410404081156130005051897410408209818000505   1030000100030000   541110001915777031200000019MOB BANK               YGN           MMR11004081156130005050408000000000000000   10300003 00104100000000000000000000002070     
100   9503051888890791000000000000960000000000960000200000001041040408082724000930MSFAPI0408209814000930   1030000100030000   541110001907777031200000019MOB BANK               YGN           MMR11004080827240009300408000000000000000   10300002 00104100000000000000000000001920     
100   95030518832626730000000000008500000000008500002000000010410404080822160002513ADLUD0408209814000251   1030000100030000   541120003105777031200000031MOB BANK               YGN           MMR11004080822160002510408000000000000000   10300002 00104100000000000000000000001700     
100   950305189465490000000000000070000000000070000020000000104104040811572700050645CYLC0408209818000506   1030000100030000   541110001915777031200000019MOB BANK               YGN           MMR11004081157270005060408000000000000000   10300002 00104100000000000000000000001400     
100   95031100019500540000000000218250000000218250002000000010410404080551160004791390470408209812000479   1030000100030000   541110001915777031200000019MOB BANK               YGN           MMR11004080551160004790408000000000000000   10300006 00104100000000000000000000043650     
100   35710500186573510000000000006750000000006750002000000010410404080301540004667776150408209809000466   1030000100030000   541110001920777031200000019MOB BANK               YGN           MMR11004080301540004660408000000000000000   10300005 00104100000000000000000000001350     
100   62343301012496760000000000066493000000066493002000000010410404081046140008862887310408209817000886   1030000100030000   541110001905777031200000019MOB BANK               YGN           MMR11004081046140008860408000000000000000   10300004 00104100000000000000000000013299     
100   35710500113142810000000000057500000000057500002000000010410404080549280009195860520408209812000919   1030000100030000   541110001907777031200000019MOB BANK               YGN           MMR11004080549280009190408000000000000000   10300005 00104100000000000000000000011500     
100   9503051890991165000000000003960000000003960000200000001041040408055258000480HV9VSM0408209812000480   1030000100030000   541110001915777031200000019MOB BANK               YGN           MMR11004080552580004800408000000000000000   10300002 00104100000000000000000000007920     
100   9503051023305457000000000016800000000016800000200000001041040408072327000876TBHAIU0408209813000876   1030000100030000   541110001905777031200000019MOB BANK               YGN           MMR11004080723270008760408000000000000000   10300002 00104100000000000000000000033600     
100   9503190001355009000000000002500000000002500000200000001041040408122126000948U2L64Y0408209818000948   1030000100030000   541110001907777031200000019MOB BANK               YGN           MMR11004081221260009480408000000000000000   10300014 00104100000000000000000000005000     
100   9503190002835330000000000002200000000002200000200000001041040408122501001257HJ5R1W0408209818001257   1030000100030000   581250000001777031200000005MOB BANK               YGN           MMR11004081225010012570408000000000000000   10300014 00104100000000000000000000007480     
100   35710830740509630000000000069600000000069600002000000010410404080838380014260711910408209815001426   1030000100030000   541160000001777031200000006MOB BANK               YGN           MMR11004080838380014260408000000000000000   10300003 00104100000000000000000000013920     
100   9503051891730018000000000010507760000010507760200000001041040408111857001429GGSTDD0408209817001429   1030000100030000   541160000001777031200000006MOB BANK               YGN           MMR11004081118570014290408000000000000000   10300002 00104100000000000000000000021016     
100   9503051024814499000000000001665000000001665000200000001041040408103553000258LDA1ZM0408209817000258   1030000100030000   541120003105777031200000031MOB BANK               YGN           MMR11004081035530002580408000000000000000   10300002 00104100000000000000000000003330     
100   35710830340933840000000000081360000000081360002000000010410404080823020002790618320408209814000279   1030000100030000   541110001903777031200000019MOB BANK               YGN           MMR11004080823020002790408000000000000000   10300003 00104100000000000000000000016272     
100   9503051021229535000000000002703000000002703000200000001041040408101809000368H97TGI0408209816000368   1030000100030000   541120003103777031200000031MOB BANK               YGN           MMR11004081018090003680408000000000000000   10300002 00104100000000000000000000005406     
100   62921400050684970000000000011400000000011400002000000010410404080420430004712222220408209810000471   1030000100030000   541110001915777031200000019MOB BANK               YGN           MMR11004080420430004710408000000000000000   10300009 00104100000000000000000000002280     
100   35710500393475520000000000022500000000022500002000000010410404080639360004718688210408209813000471   1030000100030000   541110001920777031200000019MOB BANK               YGN           MMR11004080639360004710408000000000000000   10300005 00104100000000000000000000004500     
