100   950319000652043300000000000341100000000341100020000000104104040904310200030322OU1O0409209911000303   1030000100030000   541110001903777031200000019MOB BANK               YGN           MMR11004090431020003030409000000000000000   10300014 00104100000000000000000000006822     
100   35710500184599070000000000134910000000134910002000000010410404090853510003301446400409209915000330   1030000100030000   541110001903777031200000019MOB BANK               YGN           MMR11004090853510003300409000000000000000   10300005 00104100000000000000000000026982     
100   9503051891412237000000000000630000000000630000200000001041040409073524000512WATXGZ0409209914000512   1030000100030000   541110001920777031200000019MOB BANK               YGN           MMR11004090735240005120409000000000000000   10300002 00104100000000000000000000001260     
100   35710830858859360000000000018000000000018000002000000010410404091141550003840451610409209918000384   1030000100030000   541120003106777031200000031MOB BANK               YGN           MMR11004091141550003840409000000000000000   10300003 00104100000000000000000000003600     
100   35710830658688370000000000019800000000019800002000000010410404091216590005790662110409209918000579   1030000100030000   541110001915777031200000019MOB BANK               YGN           MMR11004091216590005790409000000000000000   10300003 00104100000000000000000000003960     
100   35710830233825330000000000005100000000005100002000000010410404091225460005800714720409209918000580   1030000100030000   541110001915777031200000019MOB BANK               YGN           MMR11004091225460005800409000000000000000   10300003 00104100000000000000000000001020     
100   9503051025890712000000000001292600000001292600200000001041040409055854000964TGBEXV0409209912000964   1030000100030000   541110001907777031200000019MOB BANK               YGN           MMR11004090558540009640409000000000000000   10300002 00104100000000000000000000002585     
100   62921400032889980000000000014760000000014760002000000010410404090734400000672222220409209914000067   1030000100030000   541120003111777031200000031MOB BANK               YGN           MMR11004090734400000670409000000000000000   10300009 00104100000000000000000000002952     
100   9503051890044601000000000004104000000004104000200000001041040409110601000342MIR8HU0409209917000342   1030000100030000   541110001903777031200000019MOB BANK               YGN           MMR11004091106010003420409000000000000000   10300002 00104100000000000000000000008208     
100   9503190005801628000000000001850000000001850000200000001041040409123937000585Z969C40409209919000585   1030000100030000   541110001915777031200000019MOB BANK               YGN           MMR11004091239370005850409000000000000000   10300014 00104100000000000000000000003700     
100   62441900002624040000000000015350000000015350002000000010410404091040050005436993370409209917000543   1030000100030000   541110001920777031200000019MOB BANK               YGN           MMR11004091040050005430409000000000000000   10300003 00104100000000000000000000005372     
100   35710830427811520000000000009016000000009016002000000010410404090810060009859180710409209914000985   1030000100030000   541110001907777031200000019MOB BANK               YGN           MMR11004090810060009850409000000000000000   10300003 00104100000000000000000000001803     
100   35710830427811520000000000007742000000007742002000000010410404090814060009879204720409209914000987   1030000100030000   541110001907777031200000019MOB BANK               YGN           MMR11004090814060009870409000000000000000   10300003 00104100000000000000000000001548     
100   9503051025760238000000000003520000000003520000200000001041040409040932000906I9UNGL0409209910000906   1030000100030000   541110001905777031200000019MOB BANK               YGN           MMR11004090409320009060409000000000000000   10300002 00104100000000000000000000007040     
100   9503190004788289000000000004450000000004450000200000001041040409030628000297LF5G4A0409209909000297   1030000100030000   541110001903777031200000019MOB BANK               YGN           MMR11004090306280002970409000000000000000   10300014 00104100000000000000000000008900     
100   35710830666463070000000000007650000000007650002000000010410404090848260003779410710409209915000377   1030000100030000   541120003103777031200000031MOB BANK               YGN           MMR11004090848260003770409000000000000000   10300003 00104100000000000000000000001530     
100   9503051893458550000000000002750000000002750000200000001041040409110526000381QPACWL0409209917000381   1030000100030000   541120003106777031200000031MOB BANK               YGN           MMR11004091105260003810409000000000000000   10300002 00104100000000000000000000005500     
100   35710500320536600000000000019800000000019800002000000010410404090802240003231181030409209914000323   1030000100030000   541110001903777031200000019MOB BANK               YGN           MMR11004090802240003230409000000000000000   10300005 00104100000000000000000000003960     
100   35710500385923230000000000023220000000023220002000000010410404091049270003388382930409209917000338   1030000100030000   541110001903777031200000019MOB BANK               YGN           MMR11004091049270003380409000000000000000   10300005 00104100000000000000000000004644     
100   9503051894307210000000000000840000000000840000200000001041040409053314000520FPAO8X0409209912000520   1030000100030000   541110001915777031200000019MOB BANK               YGN           MMR11004090533140005200409000000000000000   10300002 00104100000000000000000000001680     
100   9503190004550382000000000001494000000001494000200000001041040409081721000521T5I3II0409209914000521   1030000100030000   541110001920777031200000019MOB BANK               YGN           MMR11004090817210005210409000000000000000   10300014 00104100000000000000000000002988     
100   35710950501343220000000000005100000000005100002000000010410404090910390005569544110409209915000556   1030000100030000   541110001915777031200000019MOB BANK               YGN           MMR11004090910390005560409000000000000000   10300003 00104100000000000000000000001020     
100   9503051025419397000000000001215000000001215000200000001041040409033022000489CRQKNQ0409209910000489   1030000100030000   541110001920777031200000019MOB BANK               YGN           MMR11004090330220004890409000000000000000   10300002 00104100000000000000000000002430     
100   950319000011637800000000000125100000000125100020000000104104040910581600008247FJLR0409209917000082   1030000100030000   541120003111777031200000031MOB BANK               YGN           MMR11004091058160000820409000000000000000   10300014 00104100000000000000000000002502     
100   62346600159398830000000000029800000000029800002000000010410404091056520002076291170409209917000207   1030000100030000   541120000017777031200000002MOB BANK               YGN           MMR11004091056520002070409000000000000000   10300005 00104100000000000000000000005960     
100   35710500343745100000000000001400000000001400002000000010410404090550200003142638970409209912000314   1030000100030000   541110001903777031200000019MOB BANK               YGN           MMR11004090550200003140409000000000000000   10300005 00104100000000000000000000000280     
100   35710830229875300000000000013000000000013000002000000010410404090744020005429024410409209914000542   1030000100030000   541110001915777031200000019MOB BANK               YGN           MMR11004090744020005420409000000000000000   10300003 00104100000000000000000000002600     
100   35710830596595230000000000108350000000108350002000000010410404091150020005870500400409209918000587   1030000100030000   581210001501777031200000015MOB BANK               YGN           MMR11004091150020005870409000000000000000   10300003 00104100000000000000000000036839     
100   35710500162069530000000000064620000000064620002000000010410404091142520003850237620409209918000385   1030000100030000   541120003106777031200000031MOB BANK               YGN           MMR11004091142520003850409000000000000000   10300005 00104100000000000000000000012924     
100   62921400070097960000000000017800000000017800002000000010410404090753450005442222220409209914000544   1030000100030000   541110001915777031200000019MOB BANK               YGN           MMR11004090753450005440409000000000000000   10300009 00104100000000000000000000003560     
100   95031900018268350000000000170100000000170100002000000010410404090538330005223QNCNH0409209912000522   1030000100030000   541110001915777031200000019MOB BANK               YGN           MMR11004090538330005220409000000000000000   10300014 00104100000000000000000000034020     
100   35710830476564410000000000009100000000009100002000000010410404090723370005338901910409209913000533   1030000100030000   541110001915777031200000019MOB BANK               YGN           MMR11004090723370005330409000000000000000   10300003 00104100000000000000000000001820     
100   9503051887317044000000000006713000000006713000200000001041040409100018000534RCBFBK0409209916000534   1030000100030000   541110001920777031200000019MOB BANK               YGN           MMR11004091000180005340409000000000000000   10300002 00104100000000000000000000013426     
100   95031011570092330000000000023850000000023850002000000010410404090925460005629002280409209915000562   1030000100030000   541110001915777031200000019MOB BANK               YGN           MMR11004090925460005620409000000000000000   10300005 00104100000000000000000000004770     
100   35710830229875300000000000004500000000004500002000000010410404090848580009899413920409209915000989   1030000100030000   541110001907777031200000019MOB BANK               YGN           MMR11004090848580009890409000000000000000   10300003 00104100000000000000000000000900     
100   9503051887508881000000000003250000000003250000200000001041040409035701000029JTXXX20409209910000029   1030000100030000   509410900008777030900000006MOB BANK               YGN           MMR11004090357010000290409000000000000000   10300002 00104100000000000000000000016250     
100   9503051894307210000000000001080000000001080000200000001041040409051914000308URG5HK0409209911000308   1030000100030000   541110001903777031200000019MOB BANK               YGN           MMR11004090519140003080409000000000000000   10300002 00104100000000000000000000002160     
100   9503051026345260000000000005200000000005200000200000001041040409084515000327PYXUWE0409209915000327   1030000100030000   541110001903777031200000019MOB BANK               YGN           MMR11004090845150003270409000000000000000   10300002 00104100000000000000000000010400     
100   9503051888681869000000000000960000000000960000200000001041040409083251000523TB6WEP0409209915000523   1030000100030000   541110001920777031200000019MOB BANK               YGN           MMR11004090832510005230409000000000000000   10300002 00104100000000000000000000001920     
100   35710500305358090000000000020500000000020500002000000010410404090600350005232835110409209912000523   1030000100030000   541110001915777031200000019MOB BANK               YGN           MMR11004090600350005230409000000000000000   10300005 00104100000000000000000000004100     
100   35710830568252830000000000105400000000105400002000000010410404090917400005589586120409209915000558   1030000100030000   541110001915777031200000019MOB BANK               YGN           MMR11004090917400005580409000000000000000   10300003 00104100000000000000000000021080     
100   35710830479175790000000000013050000000013050002000000010410404090948300005669771200409209916000566   1030000100030000   541110001915777031200000019MOB BANK               YGN           MMR11004090948300005660409000000000000000   10300003 00104100000000000000000000002610     
100   35710830568252830000000000031500000000031500002000000010410404090955280005689812920409209916000568   1030000100030000   541110001915777031200000019MOB BANK               YGN           MMR11004090955280005680409000000000000000   10300003 00104100000000000000000000006300     
100   62622000094798960000000000019200000000019200002000000010410404090632200009751964190409209913000975   1030000100030000   541110001907777031200000019MOB BANK               YGN           MMR11004090632200009750409000000000000000   10300006 00104100000000000000000000003840     
100   62343302006705580000000000120000000000120000002000000010410404090605400009662820250409209912000966   1030000100030000   541110001907777031200000019MOB BANK               YGN           MMR11004090605400009660409000000000000000   10300004 00104100000000000000000000024000     
100   35710500120473770000000000016625000000016625002000000010410404091143560000882933170409209918000088   1030000100030000   541120003111777031200000031MOB BANK               YGN           MMR11004091143560000880409000000000000000   10300005 00104100000000000000000000003325     
100   35710500305490240000000000055968000000055968002000000010410404091130040001033389590409209918000103   1030000100030000   541110001917777031200000019MOB BANK               YGN           MMR11004091130040001030409000000000000000   10300005 00104100000000000000000000011194     
100   35710830874564620000000000006860000000006860002000000010410404090718050001628868710409209913000162   1030000100030000   541120003104777031200000031MOB BANK               YGN           MMR11004090718050001620409000000000000000   10300003 00104100000000000000000000001372     
100   35710500183945590000000000027720000000027720002000000010410404090543570003127933840409209912000312   1030000100030000   541110001903777031200000019MOB BANK               YGN           MMR11004090543570003120409000000000000000   10300005 00104100000000000000000000005544     
100   35710900029018780000000000006000000000006000002000000010410404090740050005149000710409209914000514   1030000100030000   541110001920777031200000019MOB BANK               YGN           MMR11004090740050005140409000000000000000   10300003 00104100000000000000000000001200     
100   9503051891573715000000000002083900000002083900200000001041040409113539000546CFZTP70409209918000546   1030000100030000   541110001920777031200000019MOB BANK               YGN           MMR11004091135390005460409000000000000000   10300002 00104100000000000000000000004168     
100   62622000198607130000000000218250000000218250002000000010410404090757150005461964450409209914000546   1030000100030000   541110001915777031200000019MOB BANK               YGN           MMR11004090757150005460409000000000000000   10300006 00104100000000000000000000043650     
100   9503051019652979000000000005049000000005049000200000001041040409122653000582ERE1500409209918000582   1030000100030000   541110001915777031200000019MOB BANK               YGN           MMR11004091226530005820409000000000000000   10300002 00104100000000000000000000010098     
100   95031800518797430000000000116800000000116800002000000010410404090733240000931596310409209914000093   1030000100030000   541120000010777031200000002MOB BANK               YGN           MMR11004090733240000930409000000000000000   10300013 00104100000000000000000000023360     
100   9503054000504571000000000002034000000002034000200000001041040409091213000080VMPFNJ0409209915000080   1030000100030000   541120003111777031200000031MOB BANK               YGN           MMR11004090912130000800409000000000000000   10300002 00104100000000000000000000004068     
100   35710500393913030000000000023400000000023400002000000010410404090859010000760735690409209915000076   1030000100030000   541120003111777031200000031MOB BANK               YGN           MMR11004090859010000760409000000000000000   10300005 00104100000000000000000000004680     
100   9503190006161881000000000002400000000002400000200000001041040408062312000234TDRLT80408209812000234   1030000100030000   541120003102777031200000031MOB BANK               YGN           MMR11004080623120002340408000000000000000   10300014 00104100000000000000000000004800     
100   9503051883025906000000000002155000000002155000200000001041040408070243000152OWZEFC0408209813000152   1030000100030000   541120003104777031200000031MOB BANK               YGN           MMR11004080702430001520408000000000000000   10300002 00104100000000000000000000004310     
100   95030799001389490000000000023000000000023000002000000010410404080555270001502127400408209812000150   1030000100030000   541120003104777031200000031MOB BANK               YGN           MMR11004080555270001500408000000000000000   10200004 00104100000000000000000000004600     
100   9503051894495452000000000002465000000002465000200000001041040408055716000232XKRBYG0408209812000232   1030000100030000   541120003102777031200000031MOB BANK               YGN           MMR11004080557160002320408000000000000000   10300002 00104100000000000000000000004930     
100   35710830717240160000000000003420000000003420002000000010410404080739000001550354110408209814000155   1030000100030000   541120003104777031200000031MOB BANK               YGN           MMR11004080739000001550408000000000000000   10300003 00104100000000000000000000000684     
100   9503054000504571000000000001256000000001256000200000001041040409090110000078EBVUAX0409209915000078   1030000100030000   541120003111777031200000031MOB BANK               YGN           MMR11004090901100000780409000000000000000   10300002 00104100000000000000000000002512     
100   62346600181666410000000000041000000000041000002000000010410404091125330001681050590409209917000168   1030000100030000   541120003104777031200000031MOB BANK               YGN           MMR11004091125330001680409000000000000000   10300005 00104100000000000000000000008200     
100   35710500394260180000000000024500000000024500002000000010410404090917190002068649640409209915000206   1030000100030000   541120000017777031200000002MOB BANK               YGN           MMR11004090917190002060409000000000000000   10300005 00104100000000000000000000004900     
100   35710830062774520000000000012700000000012700002000000010410404091232330001560755410409209919000156   1030000100030000   541120003001777031200000030MOB BANK               YGN           MMR11004091232330001560409000000000000000   10300003 00104100000000000000000000002540     
100   62346600165053030000000000025920000000025920002000000010410404090338170003018999170409209910000301   1030000100030000   541110001903777031200000019MOB BANK               YGN           MMR11004090338170003010409000000000000000   10300005 00104100000000000000000000005184     
100   35710500304781410000000000009400000000009400002000000010410404091235110003472818600409209919000347   1030000100030000   541110001903777031200000019MOB BANK               YGN           MMR11004091235110003470409000000000000000   10300005 00104100000000000000000000001880     
100   9503190006193199000000000002655000000002655000200000001041040409072633000535VCRN9N0409209913000535   1030000100030000   541110001915777031200000019MOB BANK               YGN           MMR11004090726330005350409000000000000000   10300014 00104100000000000000000000005310     
100   95030518873170440000000000025725000000025725002000000010410404091003540005363MVWJX0409209916000536   1030000100030000   541110001920777031200000019MOB BANK               YGN           MMR11004091003540005360409000000000000000   10300002 00104100000000000000000000005145     
100   9503051886003629000000000000931200000000931200200000001041040409102625000992WHSJZZ0409209916000992   1030000100030000   541110001907777031200000019MOB BANK               YGN           MMR11004091026250009920409000000000000000   10300002 00104100000000000000000000001862     
100   9503051886934583000000000003000000000003000000200000001041040409050026000908BBQOYC0409209911000908   1030000100030000   541110001905777031200000019MOB BANK               YGN           MMR11004090500260009080409000000000000000   10300002 00104100000000000000000000006000     
100   62921400093046090000000000019472000000019472002000000010410404091245420001572222220409209919000157   1030000100030000   541120003001777031200000030MOB BANK               YGN           MMR11004091245420001570409000000000000000   10300009 00104100000000000000000000003894     
100   35710950183032820000000000009500000000009500002000000010410404090759010003759114310409209914000375   1030000100030000   541120003103777031200000031MOB BANK               YGN           MMR11004090759010003750409000000000000000   10300003 00104100000000000000000000001900     
100   35710830490451710000000000018000000000018000002000000010410404091231270003860748910409209919000386   1030000100030000   541120003106777031200000031MOB BANK               YGN           MMR11004091231270003860409000000000000000   10300003 00104100000000000000000000003600     
100   35710500192771420000000000014500000000014500002000000010410404090736330005378979970409209914000537   1030000100030000   541110001915777031200000019MOB BANK               YGN           MMR11004090736330005370409000000000000000   10300005 00104100000000000000000000002900     
100   9503051886245139000000000000768000000000768000200000001041040409070014000502F4CQFH0409209913000502   1030000100030000   541110001920777031200000019MOB BANK               YGN           MMR11004090700140005020409000000000000000   10300002 00104100000000000000000000001536     
100   35710830829021220000000000012200000000012200002000000010410404091228410005840732310409209918000584   1030000100030000   541110001915777031200000019MOB BANK               YGN           MMR11004091228410005840409000000000000000   10300003 00104100000000000000000000002440     
100   9503051026272928000000000000620000000000620000200000001041040409035400000957ZTZM1M0409209910000957   1030000100030000   541110001907777031200000019MOB BANK               YGN           MMR11004090354000009570409000000000000000   10300002 00104100000000000000000000001240     
100   35710950825839000000000000008918000000008918002000000010410404090753020009129078320409209914000912   1030000100030000   541110001905777031200000019MOB BANK               YGN           MMR11004090753020009120409000000000000000   10300003 00104100000000000000000000001784     
100   62921400053123090000000000042000000000042000002000000010410404091000300003792222220409209916000379   1030000100030000   541120003103777031200000031MOB BANK               YGN           MMR11004091000300003790409000000000000000   10300009 00104100000000000000000000008400     
100   62921400049795610000000000040320000000040320002000000010410404090326060002992222220409209909000299   1030000100030000   541110001903777031200000019MOB BANK               YGN           MMR11004090326060002990409000000000000000   10300009 00104100000000000000000000008064     
100   95030800052080820000000000032500000000032500002000000010410404090804130003259145510409209914000325   1030000100030000   541110001903777031200000019MOB BANK               YGN           MMR11004090804130003250409000000000000000   10300003 00104100000000000000000000006500     
100   62346600160862880000000000010500000000010500002000000010410404090616080005257525730409209912000525   1030000100030000   541110001915777031200000019MOB BANK               YGN           MMR11004090616080005250409000000000000000   10300005 00104100000000000000000000002100     
100   95031900065894380000000000013300000000013300002000000010410404090931470005646I49HT0409209916000564   1030000100030000   541110001915777031200000019MOB BANK               YGN           MMR11004090931470005640409000000000000000   10300014 00104100000000000000000000002660     
100   95030518889797270000000000011100000000011100002000000010410404090602170005246EUBWM0409209912000524   1030000100030000   541110001915777031200000019MOB BANK               YGN           MMR11004090602170005240409000000000000000   10300002 00104100000000000000000000002220     
100   9503051888681869000000000000833000000000833000200000001041040409084037000525INI5KW0409209915000525   1030000100030000   541110001920777031200000019MOB BANK               YGN           MMR11004090840370005250409000000000000000   10300002 00104100000000000000000000001666     
100   62441900103133040000000000027000000000027000002000000010410404090706500009796035160409209913000979   1030000100030000   541110001907777031200000019MOB BANK               YGN           MMR11004090706500009790409000000000000000   10300003 00104100000000000000000000009450     
100   95030518943072100000000000027720000000027720002000000010410404090515390003077QWAUO0409209911000307   1030000100030000   541110001903777031200000019MOB BANK               YGN           MMR11004090515390003070409000000000000000   10300002 00104100000000000000000000005544     
100   9503051893292132000000000007326000000007326000200000001041040409112422000344R741RA0409209917000344   1030000100030000   541110001903777031200000019MOB BANK               YGN           MMR11004091124220003440409000000000000000   10300002 00104100000000000000000000014652     
100   35710500305894420000000000027720000000027720002000000010410404090609400003165525940409209912000316   1030000100030000   541110001903777031200000019MOB BANK               YGN           MMR11004090609400003160409000000000000000   10300005 00104100000000000000000000005544     
100   9503051025582244000000000007060000000007060000200000001041040409105455000340DZB1F80409209917000340   1030000100030000   541110001903777031200000019MOB BANK               YGN           MMR11004091054550003400409000000000000000   10300002 00104100000000000000000000014120     
100   95030800012090680000000000006300000000006300002000000010410404091022570005389977910409209916000538   1030000100030000   541110001920777031200000019MOB BANK               YGN           MMR11004091022570005380409000000000000000   10300003 00104100000000000000000000001260     
100   9503051894802616000000000001415000000001415000200000001041040409064628000497BDDTWM0409209913000497   1030000100030000   541110001920777031200000019MOB BANK               YGN           MMR11004090646280004970409000000000000000   10300002 00104100000000000000000000002830     
100   62921400032269980000000000009350000000009350002000000010410404090646140005272222220409209913000527   1030000100030000   541110001915777031200000019MOB BANK               YGN           MMR11004090646140005270409000000000000000   10300009 00104100000000000000000000001870     
100   95030518900446010000000000004900000000004900002000000010410404091051550005712UIZAJ0409209917000571   1030000100030000   541110001915777031200000019MOB BANK               YGN           MMR11004091051550005710409000000000000000   10300002 00104100000000000000000000000980     
100   35710950501343220000000000008500000000008500002000000010410404090917110005279583210409209915000527   1030000100030000   541110001920777031200000019MOB BANK               YGN           MMR11004090917110005270409000000000000000   10300003 00104100000000000000000000001700     
100   9503051023874585000000000005121000000005121000200000001041040409055449000315CP1RZU0409209912000315   1030000100030000   541110001903777031200000019MOB BANK               YGN           MMR11004090554490003150409000000000000000   10300002 00104100000000000000000000010242     
100   9503051025157666000000000001070000000001070000200000001041040409074450000516ERNNCV0409209914000516   1030000100030000   541110001920777031200000019MOB BANK               YGN           MMR11004090744500005160409000000000000000   10300002 00104100000000000000000000002140     
100   62343302006705580000000000036150000000036150002000000010410404090452150005168061350409209911000516   1030000100030000   541110001915777031200000019MOB BANK               YGN           MMR11004090452150005160409000000000000000   10300004 00104100000000000000000000007230     
100   35710830081620330000000000017000000000017000002000000010410404090801250005489128620409209914000548   1030000100030000   541110001915777031200000019MOB BANK               YGN           MMR11004090801250005480409000000000000000   10300003 00104100000000000000000000003400     
100   35710500132128480000000000022960000000022960002000000010410404091200030005492343700409209918000549   1030000100030000   541110001920777031200000019MOB BANK               YGN           MMR11004091200030005490409000000000000000   10300005 00104100000000000000000000004592     
100   35710500187654510000000000017800000000017800002000000010410404091011240003320661030409209916000332   1030000100030000   541110001903777031200000019MOB BANK               YGN           MMR11004091011240003320409000000000000000   10300005 00104100000000000000000000003560     
100   35710500333956310000000000024000000000024000002000000010410404091225170010006974530409209918001000   1030000100030000   541110001907777031200000019MOB BANK               YGN           MMR11004091225170010000409000000000000000   10300005 00104100000000000000000000004800     
100   9503051893821286000000000001540000000001540000200000001041040409054506001259IEWHF00409209912001259   1030000100030000   581250000001777031200000005MOB BANK               YGN           MMR11004090545060012590409000000000000000   10300002 00104100000000000000000000005236     
100   95030800092090450000000000112000000000112000002000000010410404090742050009819012610409209914000981   1030000100030000   541110001907777031200000019MOB BANK               YGN           MMR11004090742050009810409000000000000000   10300003 00104100000000000000000000022400     
100   35711450001382510000000000021060000000021060002000000010410404091142090000874545330409209918000087   1030000100030000   541120003111777031200000031MOB BANK               YGN           MMR11004091142090000870409000000000000000   10200001 00104100000000000000000000004212     
100   35710500324462370000000000009500000000009500002000000010410404090831410003750106200409209915000375   1030000100030000   541120003106777031200000031MOB BANK               YGN           MMR11004090831410003750409000000000000000   10300005 00104100000000000000000000001900     
100   35710500305358090000000000014310000000014310002000000010410404090506450004921194240409209911000492   1030000100030000   541110001920777031200000019MOB BANK               YGN           MMR11004090506450004920409000000000000000   10300005 00104100000000000000000000002862     
100   9503051889044208000000000011200000000011200000200000001041040409045426000517OXXGJF0409209911000517   1030000100030000   541110001915777031200000019MOB BANK               YGN           MMR11004090454260005170409000000000000000   10300002 00104100000000000000000000022400     
100   35710500390322870000000000004800000000004800002000000010410404090841030005528545050409209915000552   1030000100030000   541110001915777031200000019MOB BANK               YGN           MMR11004090841030005520409000000000000000   10300005 00104100000000000000000000000960     
100   9503051886040399000000000003321000000003321000200000001041040409104411000336PXJDUR0409209917000336   1030000100030000   541110001903777031200000019MOB BANK               YGN           MMR11004091044110003360409000000000000000   10300002 00104100000000000000000000006642     
100   35710500305358090000000000005000000000005000002000000010410404090941530005310461410409209916000531   1030000100030000   541110001920777031200000019MOB BANK               YGN           MMR11004090941530005310409000000000000000   10300005 00104100000000000000000000001000     
100   9503051896148372000000000025327760000025327760200000001041040409030625001433DYWPFZ0409209909001433   1030000100030000   541160000001777031200000006MOB BANK               YGN           MMR11004090306250014330409000000000000000   10300002 00104100000000000000000000050656     
100   35710500132128480000000000012650000000012650002000000010410404091245160010024427350409209919001002   1030000100030000   541110001907777031200000019MOB BANK               YGN           MMR11004091245160010020409000000000000000   10300005 00104100000000000000000000002530     
100   35710830583729870000000000064000000000064000002000000010410404090959130009149835410409209916000914   1030000100030000   541110001905777031200000019MOB BANK               YGN           MMR11004090959130009140409000000000000000   10300003 00104100000000000000000000012800     
100   35710500163277590000000000090000000000090000002000000010410404090630090009739581830409209913000973   1030000100030000   541110001907777031200000019MOB BANK               YGN           MMR11004090630090009730409000000000000000   10300005 00104100000000000000000000018000     
100   9503190004097053000000000000367500000000367500200000001041040409060710001260S49B4P0409209912001260   1030000100030000   581250000001777031200000005MOB BANK               YGN           MMR11004090607100012600409000000000000000   10300014 00104100000000000000000000001250     
100   62441900002624040000000000068257000000068257002000000010410404091026090009162984800409209916000916   1030000100030000   541110001905777031200000019MOB BANK               YGN           MMR11004091026090009160409000000000000000   10300003 00104100000000000000000000023890     
100   9503051894439211000000000001320000000001320000200000001041040409095255001262HN7ELQ0409209916001262   1030000100030000   581250000001777031200000005MOB BANK               YGN           MMR11004090952550012620409000000000000000   10300002 00104100000000000000000000004488     
100   9503051021811787000000000004430000000004430000200000001041040409061113000969EWWVGX0409209912000969   1030000100030000   541110001907777031200000019MOB BANK               YGN           MMR11004090611130009690409000000000000000   10300002 00104100000000000000000000008860     
100   35710830563154830000000000036000000000036000002000000010410404090457310009608025310409209911000960   1030000100030000   541110001907777031200000019MOB BANK               YGN           MMR11004090457310009600409000000000000000   10300003 00104100000000000000000000007200     
100   62346600165053030000000000013600000000013600002000000010410404090414320000959128990409209910000095   1030000100030000   541110001917777031200000019MOB BANK               YGN           MMR11004090414320000950409000000000000000   10300005 00104100000000000000000000002720     
100   35710830049925570000000000013200000000013200002000000010410404091124350000850347700409209917000085   1030000100030000   541120003111777031200000031MOB BANK               YGN           MMR11004091124350000850409000000000000000   10300003 00104100000000000000000000002640     
100   35710500354219300000000000013200000000013200002000000010410404090827570000714758920409209914000071   1030000100030000   541120003111777031200000031MOB BANK               YGN           MMR11004090827570000710409000000000000000   10300005 00104100000000000000000000002640     
100   35710500364443370000000000046314000000046314002000000010410404090951030001663444490409209916000166   1030000100030000   541120003104777031200000031MOB BANK               YGN           MMR11004090951030001660409000000000000000   10300005 00104100000000000000000000009263     
100   35710830666463070000000000018400000000018400002000000010410404090830330001149303420409209915000114   1030000100030000   541120003110777031200000031MOB BANK               YGN           MMR11004090830330001140409000000000000000   10300003 00104100000000000000000000003680     
100   9503051023299759000000000001353600000001353600200000001041040409073926000539O8SDDQ0409209914000539   1030000100030000   541110001915777031200000019MOB BANK               YGN           MMR11004090739260005390409000000000000000   10300002 00104100000000000000000000002707     
100   9503051882668615000000000004440000000004440000200000001041040409090540000554VGAVM20409209915000554   1030000100030000   541110001915777031200000019MOB BANK               YGN           MMR11004090905400005540409000000000000000   10300002 00104100000000000000000000008880     
100   9503051023451566000000000008800000000008800000200000001041040409063917000977HXXQPP0409209913000977   1030000100030000   541110001907777031200000019MOB BANK               YGN           MMR11004090639170009770409000000000000000   10300002 00104100000000000000000000017600     
100   35710830563154830000000000027000000000027000002000000010410404090503270009108060910409209911000910   1030000100030000   541110001905777031200000019MOB BANK               YGN           MMR11004090503270009100409000000000000000   10300003 00104100000000000000000000005400     
100   62346600159398830000000000003332000000003332002000000010410404091113080009945432360409209917000994   1030000100030000   541110001907777031200000019MOB BANK               YGN           MMR11004091113080009940409000000000000000   10300005 00104100000000000000000000000666     
100   9503051897740276000000000019780000000019780000200000001041040409114103000998IMOQZA0409209918000998   1030000100030000   541110001907777031200000019MOB BANK               YGN           MMR11004091141030009980409000000000000000   10300002 00104100000000000000000000039560     
100   9503051882668615000000000001219200000001219200200000001041040409083555000550FDWHTM0409209915000550   1030000100030000   541110001915777031200000019MOB BANK               YGN           MMR11004090835550005500409000000000000000   10300002 00104100000000000000000000002438     
100   95030518862451390000000000010000000000010000002000000010410404090711050005049UMHN10409209913000504   1030000100030000   541110001920777031200000019MOB BANK               YGN           MMR11004090711050005040409000000000000000   10300002 00104100000000000000000000002000     
100   35710830427811520000000000009500000000009500002000000010410404090717020005298862410409209913000529   1030000100030000   541110001915777031200000019MOB BANK               YGN           MMR11004090717020005290409000000000000000   10300003 00104100000000000000000000001900     
100   9503051026133849000000000010900000000010900000200000001041040409093527000529ASVOHE0409209916000529   1030000100030000   541110001920777031200000019MOB BANK               YGN           MMR11004090935270005290409000000000000000   10300002 00104100000000000000000000021800     
100   35710500304423370000000000030900000000030900002000000010410404091127010001013178020409209917000101   1030000100030000   541110001917777031200000019MOB BANK               YGN           MMR11004091127010001010409000000000000000   10300005 00104100000000000000000000006180     
100   35710500393913030000000000045000000000045000002000000010410404090838390000732453240409209915000073   1030000100030000   541120003111777031200000031MOB BANK               YGN           MMR11004090838390000730409000000000000000   10300005 00104100000000000000000000009000     
100   35711450001672270000000000014960000000014960002000000010410404090714570001603284990409209913000160   1030000100030000   541120003104777031200000031MOB BANK               YGN           MMR11004090714570001600409000000000000000   10200001 00104100000000000000000000002992     
100   35710500150448190000000000057420000000057420002000000010410404090540270003106234280409209912000310   1030000100030000   541110001903777031200000019MOB BANK               YGN           MMR11004090540270003100409000000000000000   10300005 00104100000000000000000000011484     
100   62346600160862880000000000024100000000024100002000000010410404090719200003213471040409209913000321   1030000100030000   541110001903777031200000019MOB BANK               YGN           MMR11004090719200003210409000000000000000   10300005 00104100000000000000000000004820     
100   95030800093243560000000000022800000000022800002000000010410404091107210003830244310409209917000383   1030000100030000   541120003103777031200000031MOB BANK               YGN           MMR11004091107210003830409000000000000000   10300003 00104100000000000000000000004560     
100   9503190004216372000000000000680000000000680000200000001041040409100243000381YA8IE10409209916000381   1030000100030000   541120003103777031200000031MOB BANK               YGN           MMR11004091002430003810409000000000000000   10300014 00104100000000000000000000001360     
100   95030800014909160000000000025920000000025920002000000010410404091020470003349964910409209916000334   1030000100030000   541110001903777031200000019MOB BANK               YGN           MMR11004091020470003340409000000000000000   10300003 00104100000000000000000000005184     
100   35710500185979530000000000118800000000118800002000000010410404091129550003459488920409209917000345   1030000100030000   541110001903777031200000019MOB BANK               YGN           MMR11004091129550003450409000000000000000   10300005 00104100000000000000000000023760     
100   9503051873397570000000000002952000000002952000200000001041040409071414000318MVA7AE0409209913000318   1030000100030000   541110001903777031200000019MOB BANK               YGN           MMR11004090714140003180409000000000000000   10300002 00104100000000000000000000005904     
100   35710500324652940000000000007500000000007500002000000010410404091033510005409582350409209917000540   1030000100030000   541110001920777031200000019MOB BANK               YGN           MMR11004091033510005400409000000000000000   10300005 00104100000000000000000000001500     
100   95030518890442080000000000034000000000034000002000000010410404090455590005181DED5Z0409209911000518   1030000100030000   541110001915777031200000019MOB BANK               YGN           MMR11004090455590005180409000000000000000   10300002 00104100000000000000000000006800     
100   35710830775719570000000000034560000000034560002000000010410404090920170005609601820409209915000560   1030000100030000   541110001915777031200000019MOB BANK               YGN           MMR11004090920170005600409000000000000000   10300003 00104100000000000000000000006912     
100   35710830200753460000000000034900000000034900002000000010410404091100350005730203610409209917000573   1030000100030000   541110001915777031200000019MOB BANK               YGN           MMR11004091100350005730409000000000000000   10300003 00104100000000000000000000006980     
100   35710500314169420000000000028600000000028600002000000010410404090721210005311478170409209913000531   1030000100030000   541110001915777031200000019MOB BANK               YGN           MMR11004090721210005310409000000000000000   10300005 00104100000000000000000000005720     
100   9503051888752397000000000001100000000001100000200000001041040409074716000983BMIZJM0409209914000983   1030000100030000   541110001907777031200000019MOB BANK               YGN           MMR11004090747160009830409000000000000000   10300002 00104100000000000000000000002200     
100   35710500351145760000000000010500000000010500002000000010410404090939440001553725000409209916000155   1030000100030000   541120003001777031200000030MOB BANK               YGN           MMR11004090939440001550409000000000000000   10300005 00104100000000000000000000002100     
100   35710830750212030000000000073000000000073000002000000010410404090717320003208865320409209913000320   1030000100030000   541110001903777031200000019MOB BANK               YGN           MMR11004090717320003200409000000000000000   10300003 00104100000000000000000000014600     
100   35710830427811520000000000010500000000010500002000000010410404090634220004948606400409209913000494   1030000100030000   541110001920777031200000019MOB BANK               YGN           MMR11004090634220004940409000000000000000   10300003 00104100000000000000000000002100     
100   35710500343577050000000000010400000000010400002000000010410404090758060005198630460409209914000519   1030000100030000   541110001920777031200000019MOB BANK               YGN           MMR11004090758060005190409000000000000000   10300005 00104100000000000000000000002080     
100   35710830624571540000000000028480000000028480002000000010410404090832310000729315210409209915000072   1030000100030000   541120003111777031200000031MOB BANK               YGN           MMR11004090832310000720409000000000000000   10300003 00104100000000000000000000005696     
