100   95031100015638990000000000018700000000018700002000000010410403310523320005138671420331209011000513   1030000100030000   581210001501777031200000015MOB BANK               YGN           MMR11003310523320005130331000000000000000   10300006 00104100000000000000000000006358     
100   35710500174815710000000000036502000000036502002000000010410403310511220006529318130331209011000652   1030000100030000   541110001905777031200000019MOB BANK               YGN           MMR11003310511220006520331000000000000000   10300005 00104100000000000000000000007300     
100   35710830675029540000000000011880000000011880002000000010410403311135110002942651210331209018000294   1030000100030000   541110001920777031200000019MOB BANK               YGN           MMR11003311135110002940331000000000000000   10300003 00104100000000000000000000002376     
100   62346600139886430000000000012400000000012400002000000010410403310849170000973241410331209015000097   1030000100030000   541120003108777031200000031MOB BANK               YGN           MMR11003310849170000970331000000000000000   10300005 00104100000000000000000000002480     
100   35710500383972770000000000078000000000078000002000000010410403310343150006190015050331209010000619   1030000100030000   541110001907777031200000019MOB BANK               YGN           MMR11003310343150006190331000000000000000   10300005 00104100000000000000000000015600     
100   35710500334457820000000000004752000000004752002000000010410403310906170006325717280331209015000632   1030000100030000   541110001907777031200000019MOB BANK               YGN           MMR11003310906170006320331000000000000000   10300005 00104100000000000000000000000950     
100   35710500314139230000000000072400000000072400002000000010410403310821100006603900320331209014000660   1030000100030000   541110001905777031200000019MOB BANK               YGN           MMR11003310821100006600331000000000000000   10300005 00104100000000000000000000014480     
100   9503051889191546000000000003425000000003425000200000001041040331080347000288EWHZV20331209014000288   1030000100030000   541110001920777031200000019MOB BANK               YGN           MMR11003310803470002880331000000000000000   10300002 00104100000000000000000000006850     
100   62343302006107860000000000008150000000008150002000000010410403310908100001003911930331209015000100   1030000100030000   541120003108777031200000031MOB BANK               YGN           MMR11003310908100001000331000000000000000   10300004 00104100000000000000000000001630     
100   95030518736645240000000000008500000000008500002000000010410403311003510006343SOKVT0331209016000634   1030000100030000   541110001907777031200000019MOB BANK               YGN           MMR11003311003510006340331000000000000000   10300002 00104100000000000000000000001700     
100   9503051897436560000000000002850000000002850000200000001041040331085155000098LYHIZY0331209015000098   1030000100030000   541120003108777031200000031MOB BANK               YGN           MMR11003310851550000980331000000000000000   10300002 00104100000000000000000000005700     
100   9503051019560305000000000005420000000005420000200000001041040331042804000622UHWUNF0331209010000622   1030000100030000   541110001907777031200000019MOB BANK               YGN           MMR11003310428040006220331000000000000000   10300002 00104100000000000000000000010840     
100   62346600150184490000000000021690000000021690002000000010410403310903080002902022480331209015000290   1030000100030000   541110001920777031200000019MOB BANK               YGN           MMR11003310903080002900331000000000000000   10300005 00104100000000000000000000004338     
100   35710500363922960000000000026000000000026000002000000010410403311216460006745705330331209018000674   1030000100030000   541110001905777031200000019MOB BANK               YGN           MMR11003311216460006740331000000000000000   10300005 00104100000000000000000000005200     
100   35710500144353640000000000022350000000022350002000000010410403310943230002929706020331209016000292   1030000100030000   541110001920777031200000019MOB BANK               YGN           MMR11003310943230002920331000000000000000   10300005 00104100000000000000000000004470     
100   9503051019636394000000000000430000000000430000200000001041040331063329000624JIGZXE0331209013000624   1030000100030000   541110001907777031200000019MOB BANK               YGN           MMR11003310633290006240331000000000000000   10300002 00104100000000000000000000000860     
100   62921400063920860000000000010450000000010450002000000010410403310723400006262222220331209013000626   1030000100030000   541110001907777031200000019MOB BANK               YGN           MMR11003310723400006260331000000000000000   10300009 00104100000000000000000000002090     
100   62346600125370030000000000028050000000028050002000000010410403311118190005142127930331209017000514   1030000100030000   581210001501777031200000015MOB BANK               YGN           MMR11003311118190005140331000000000000000   10300005 00104100000000000000000000009537     
100   35710830322401360000000000022200000000022200002000000010410403310545540006580555510331209012000658   1030000100030000   541110001905777031200000019MOB BANK               YGN           MMR11003310545540006580331000000000000000   10300003 00104100000000000000000000004440     
100   35710500121713000000000000189000000000189000002000000010410403311241240005206564370331209019000520   1030000100030000   581210001501777031200000015MOB BANK               YGN           MMR11003311241240005200331000000000000000   10300005 00104100000000000000000000064260     
100   35710950600695000000000000001800000000001800002000000010410403310834450006281568710331209015000628   1030000100030000   541110001907777031200000019MOB BANK               YGN           MMR11003310834450006280331000000000000000   10300003 00104100000000000000000000000360     
100   9503051019635339000000000003831800000003831800200000001041040331085219000630S1KNSG0331209015000630   1030000100030000   541110001907777031200000019MOB BANK               YGN           MMR11003310852190006300331000000000000000   10300002 00104100000000000000000000007664     
100   9503051892933777000000000000385000000000385000200000001041040331113846000668QEHPSO0331209018000668   1030000100030000   541110001905777031200000019MOB BANK               YGN           MMR11003311138460006680331000000000000000   10300002 00104100000000000000000000000770     
100   62346600104805520000000000031458000000031458002000000010410403310933290006641372290331209016000664   1030000100030000   541110001905777031200000019MOB BANK               YGN           MMR11003310933290006640331000000000000000   10300005 00104100000000000000000000006292     
100   9503051889191546000000000001200000000001200000200000001041040331080041000286WUFJ1H0331209014000286   1030000100030000   541110001920777031200000019MOB BANK               YGN           MMR11003310800410002860331000000000000000   10300002 00104100000000000000000000002400     
100   35710950878649250000000000081220000000081220002000000010410403310506050013530316720331209011001353   1030000100030000   541160000001777031200000006MOB BANK               YGN           MMR11003310506050013530331000000000000000   10300003 00104100000000000000000000016244     
100   35710830052176650000000000014850000000014850002000000010410403310954050012082044720331209016001208   1030000100030000   581250000001777031200000005MOB BANK               YGN           MMR11003310954050012080331000000000000000   10300003 00104100000000000000000000005049     
100   35710830004552110000000000013420000000013420002000000010410403310731240012061188610331209014001206   1030000100030000   581250000001777031200000005MOB BANK               YGN           MMR11003310731240012060331000000000000000   10300003 00104100000000000000000000004563     
100   62346600171980330000000000085560000000085560002000000010410403310634590013540805790331209013001354   1030000100030000   541160000001777031200000006MOB BANK               YGN           MMR11003310634590013540331000000000000000   10300005 00104100000000000000000000017112     
100   9503051884112687000000000005882400000005882400200000001041040330060153000026RM2LY90330208912000026   1030000100030000   541110001904777031200000019MOB BANK               YGN           MMR11003300601530000260330000000000000000   10300002 00104100000000000000000000011765     
