100   35710830268388610000000000025300000000025300002000000010410404100836490010287981010410210015001028   1030000100030000   541110001907777031200000019MOB BANK               YGN           MMR11004100836490010280410000000000000000   10300003 00104100000000000000000000005060     
100   35710500341383030000000000018450000000018450002000000010410404100849150001160012800410210015000116   1030000100030000   541110001917777031200000019MOB BANK               YGN           MMR11004100849150001160410000000000000000   10300005 00104100000000000000000000003690     
100   35710830501352830000000000025650000000025650002000000010410404100537180001116904010410210012000111   1030000100030000   541110001917777031200000019MOB BANK               YGN           MMR11004100537180001110410000000000000000   10300003 00104100000000000000000000005130     
100   95030201370623040000000000326304000000326304002000000010410404101055420001180442680410210017000118   1030000100030000   541110001917777031200000019MOB BANK               YGN           MMR11004101055420001180410000000000000000   10200002 00104100000000000000000000065261     
100   9503051887649396000000000001320000000001320000200000001041040410054437000249JOAVLC0410210012000249   1030000100030000   541120003102777031200000031MOB BANK               YGN           MMR11004100544370002490410000000000000000   10300002 00104100000000000000000000002640     
100   35710500144747930000000000050310000000050310002000000010410404100659560004117709480410210013000411   1030000100030000   541120003106777031200000031MOB BANK               YGN           MMR11004100659560004110410000000000000000   10300005 00104100000000000000000000010062     
100   95030510232869210000000000046810000000046810002000000010410404100648230004035KBNBE0410210013000403   1030000100030000   541120003106777031200000031MOB BANK               YGN           MMR11004100648230004030410000000000000000   10300002 00104100000000000000000000009362     
100   9503051887024426000000000003591000000003591000200000001041040410050623000357IZX4UH0410210011000357   1030000100030000   541110001903777031200000019MOB BANK               YGN           MMR11004100506230003570410000000000000000   10300002 00104100000000000000000000007182     
100   35710830841758830000000000008560000000008560002000000010410404100910190005598182110410210015000559   1030000100030000   541110001920777031200000019MOB BANK               YGN           MMR11004100910190005590410000000000000000   10300003 00104100000000000000000000001712     
100   62622000629306290000000000045100000000045100002000000010410404101233300005951988240410210019000595   1030000100030000   581210001501777031200000015MOB BANK               YGN           MMR11004101233300005950410000000000000000   10300006 00104100000000000000000000015334     
100   9503051897935017000000000002300000000002300000200000001041040410091756000949GCVW5B0410210015000949   1030000100030000   541110001905777031200000019MOB BANK               YGN           MMR11004100917560009490410000000000000000   10300002 00104100000000000000000000004600     
100   35710500344126410000000000029302000000029302002000000010410404100800250009391903430410210014000939   1030000100030000   541110001905777031200000019MOB BANK               YGN           MMR11004100800250009390410000000000000000   10300005 00104100000000000000000000005860     
100   35710830129380220000000000031500000000031500002000000010410404100845080009428030910410210015000942   1030000100030000   541110001905777031200000019MOB BANK               YGN           MMR11004100845080009420410000000000000000   10300003 00104100000000000000000000006300     
100   9503051897463846000000000003500000000003500000200000001041040410053648001016HYKCFT0410210012001016   1030000100030000   541110001907777031200000019MOB BANK               YGN           MMR11004100536480010160410000000000000000   10300002 00104100000000000000000000007000     
100   9503051019949029000000000002592000000002592000200000001041040410092228000392SX3SLY0410210015000392   1030000100030000   541120003103777031200000031MOB BANK               YGN           MMR11004100922280003920410000000000000000   10300002 00104100000000000000000000005184     
100   9503051884046372000000000003162000000003162000200000001041040410110818000385Y9Y48D0410210017000385   1030000100030000   541110001903777031200000019MOB BANK               YGN           MMR11004101108180003850410000000000000000   10300002 00104100000000000000000000006324     
100   9503051882829399000000000002990000000002990000200000001041040410063749000367EZDBYX0410210013000367   1030000100030000   541110001903777031200000019MOB BANK               YGN           MMR11004100637490003670410000000000000000   10300002 00104100000000000000000000005980     
100   9503051893103354000000000001800000000001800000200000001041040410092554000563QHXSHC0410210015000563   1030000100030000   541110001920777031200000019MOB BANK               YGN           MMR11004100925540005630410000000000000000   10300002 00104100000000000000000000003600     
100   35710830896205860000000000112000000000112000002000000010410404100713120001147479310410210013000114   1030000100030000   541110001917777031200000019MOB BANK               YGN           MMR11004100713120001140410000000000000000   10300003 00104100000000000000000000022400     
100   9503051024288843000000000011500000000011500000200000001041040410043836000082DNXOZV0410210011000082   1030000100030000   541120000018777031200000002MOB BANK               YGN           MMR11004100438360000820410000000000000000   10300002 00104100000000000000000000023000     
100   9503051874745835000000000004950000000004950000200000001041040410102402000429UWMBHR0410210016000429   1030000100030000   541120000011777031200000002MOB BANK               YGN           MMR11004101024020004290410000000000000000   10300002 00104100000000000000000000009900     
100   9503051888992159000000000018531000000018531000200000001041040410081209000376V6BZYE0410210014000376   1030000100030000   541110001903777031200000019MOB BANK               YGN           MMR11004100812090003760410000000000000000   10300002 00104100000000000000000000037062     
100   62346600120908620000000000007050000000007050002000000010410404101109500006423402640410210017000642   1030000100030000   541110001915777031200000019MOB BANK               YGN           MMR11004101109500006420410000000000000000   10300005 00104100000000000000000000001410     
100   9503190001768722000000000002385000000002385000200000001041040410111625000644B4Z8X80410210017000644   1030000100030000   541110001915777031200000019MOB BANK               YGN           MMR11004101116250006440410000000000000000   10300014 00104100000000000000000000004770     
100   62346600155880370000000000010200000000010200002000000010410404100529330005960415420410210011000596   1030000100030000   541110001915777031200000019MOB BANK               YGN           MMR11004100529330005960410000000000000000   10300005 00104100000000000000000000002040     
100   95051010120002350000000000019350000000019350002000000010410404100813310006190748730410210014000619   1030000100030000   541110001915777031200000019MOB BANK               YGN           MMR11004100813310006190410000000000000000   10300005 00104100000000000000000000006772     
100   9503051020299422000000000000604800000000604800200000001041040410104513000638IXOGZ20410210017000638   1030000100030000   541110001915777031200000019MOB BANK               YGN           MMR11004101045130006380410000000000000000   10300002 00104100000000000000000000001210     
100   950305102333377200000000000056000000000056000020000000104104041009234100062538EVZU0410210015000625   1030000100030000   541110001915777031200000019MOB BANK               YGN           MMR11004100923410006250410000000000000000   10300002 00104100000000000000000000001120     
100   35710830208940010000000000032850000000032850002000000010410404100734090006137605110410210014000613   1030000100030000   541110001915777031200000019MOB BANK               YGN           MMR11004100734090006130410000000000000000   10300003 00104100000000000000000000006570     
100   35710500313821770000000000034545000000034545002000000010410404101210210009615632290410210018000961   1030000100030000   541110001905777031200000019MOB BANK               YGN           MMR11004101210210009610410000000000000000   10300005 00104100000000000000000000006909     
100   35710500301798300000000000006468000000006468002000000010410404100401210010090992570410210010001009   1030000100030000   541110001907777031200000019MOB BANK               YGN           MMR11004100401210010090410000000000000000   10300005 00104100000000000000000000001294     
100   35710830615792220000000000075492000000075492002000000010410404101126310010358999210410210017001035   1030000100030000   541110001907777031200000019MOB BANK               YGN           MMR11004101126310010350410000000000000000   10300003 00104100000000000000000000015098     
100   9503051025572880000000000000765000000000765000200000001041040410055231000117SWYQDR0410210012000117   1030000100030000   541120003110777031200000031MOB BANK               YGN           MMR11004100552310001170410000000000000000   10300002 00104100000000000000000000001530     
100   35710830727053940000000000043740000000043740002000000010410404101138330001209071410410210018000120   1030000100030000   541110001917777031200000019MOB BANK               YGN           MMR11004101138330001200410000000000000000   10300003 00104100000000000000000000008748     
100   35710500300609640000000000016000000000016000002000000010410404100719500004138703060410210013000413   1030000100030000   541120003106777031200000031MOB BANK               YGN           MMR11004100719500004130410000000000000000   10300005 00104100000000000000000000003200     
100   62622000408087310000000000017800000000017800002000000010410404100703110003691966930410210013000369   1030000100030000   541110001903777031200000019MOB BANK               YGN           MMR11004100703110003690410000000000000000   10300006 00104100000000000000000000003560     
100   35710500123686740000000000008262000000008262002000000010410404100445070003562140410410210011000356   1030000100030000   541110001903777031200000019MOB BANK               YGN           MMR11004100445070003560410000000000000000   10300005 00104100000000000000000000001652     
100   35710830841758830000000000010400000000010400002000000010410404100911480005628190910410210015000562   1030000100030000   541110001920777031200000019MOB BANK               YGN           MMR11004100911480005620410000000000000000   10300003 00104100000000000000000000002080     
100   35710500314355870000000000032450000000032450002000000010410404101312580005960342950410210019000596   1030000100030000   581210001501777031200000015MOB BANK               YGN           MMR11004101312580005960410000000000000000   10300005 00104100000000000000000000011033     
100   62622000945907060000000000009200000000009200002000000010410404100709410006102088550410210013000610   1030000100030000   541110001915777031200000019MOB BANK               YGN           MMR11004100709410006100410000000000000000   10300006 00104100000000000000000000001840     
100   35710500303914350000000000027150000000027150002000000010410404101232330009631533880410210019000963   1030000100030000   541110001905777031200000019MOB BANK               YGN           MMR11004101232330009630410000000000000000   10300005 00104100000000000000000000005430     
100   35710500344126410000000000033760000000033760002000000010410404100816110009401734240410210014000940   1030000100030000   541110001905777031200000019MOB BANK               YGN           MMR11004100816110009400410000000000000000   10300005 00104100000000000000000000006752     
100   9503051025330990000000000006860000000006860000200000001041040410054539000930JAQSOZ0410210012000930   1030000100030000   541110001905777031200000019MOB BANK               YGN           MMR11004100545390009300410000000000000000   10300002 00104100000000000000000000013720     
100   35710500344817780000000000014400000000014400002000000010410404100808490001017224130410210014000101   1030000100030000   541120003111777031200000031MOB BANK               YGN           MMR11004100808490001010410000000000000000   10300005 00104100000000000000000000002880     
100   35710950334893140000000000012690000000012690002000000010410404100804260001007786800410210014000100   1030000100030000   541120003111777031200000031MOB BANK               YGN           MMR11004100804260001000410000000000000000   10300003 00104100000000000000000000002538     
100   9503051025370350000000000002322000000002322000200000001041040410042032000351T9CYHP0410210010000351   1030000100030000   541110001903777031200000019MOB BANK               YGN           MMR11004100420320003510410000000000000000   10300002 00104100000000000000000000004644     
100   35710830760350120000000000042000000000042000002000000010410404101133120005689039330410210018000568   1030000100030000   541110001920777031200000019MOB BANK               YGN           MMR11004101133120005680410000000000000000   10300003 00104100000000000000000000008400     
100   95030518728478230000000000074250000000074250002000000010410404100555490005984OUGGE0410210012000598   1030000100030000   541110001915777031200000019MOB BANK               YGN           MMR11004100555490005980410000000000000000   10300002 00104100000000000000000000014850     
100   35710830974119780000000000007700000000007700002000000010410404100524150009236825710410210011000923   1030000100030000   541110001905777031200000019MOB BANK               YGN           MMR11004100524150009230410000000000000000   10300003 00104100000000000000000000001540     
100   35710830650310970000000000017930000000017930002000000010410404101054320012648807310410210017001264   1030000100030000   581250000001777031200000005MOB BANK               YGN           MMR11004101054320012640410000000000000000   10300003 00104100000000000000000000006096     
100   35710830885465680000000000006210000000006210002000000010410404100818510003907873210410210014000390   1030000100030000   541120003103777031200000031MOB BANK               YGN           MMR11004100818510003900410000000000000000   10300003 00104100000000000000000000001242     
100   35710830354196870000000000024250000000024250002000000010410404100408260009196370810410210010000919   1030000100030000   541110001905777031200000019MOB BANK               YGN           MMR11004100408260009190410000000000000000   10300003 00104100000000000000000000004850     
100   35710830116420130000000000020000000000020000002000000010410404100602420005997056400410210012000599   1030000100030000   541110001915777031200000019MOB BANK               YGN           MMR11004100602420005990410000000000000000   10300003 00104100000000000000000000004000     
100   9503051890574227000000000003860000000003860000200000001041040410100526000631BE4FBI0410210016000631   1030000100030000   541110001915777031200000019MOB BANK               YGN           MMR11004101005260006310410000000000000000   10300002 00104100000000000000000000007720     
100   95031201600036860000000000005600000000005600002000000010410404100946300006272222220410210016000627   1030000100030000   541110001915777031200000019MOB BANK               YGN           MMR11004100946300006270410000000000000000   10300009 00104100000000000000000000001120     
100   9503190005328770000000000009709200000009709200200000001041040410055908001018Y3XL4N0410210012001018   1030000100030000   541110001907777031200000019MOB BANK               YGN           MMR11004100559080010180410000000000000000   10300014 00104100000000000000000000019418     
100   35710830667446720000000000010150000000010150002000000010410404101103390010328862110410210017001032   1030000100030000   541110001907777031200000019MOB BANK               YGN           MMR11004101103390010320410000000000000000   10300003 00104100000000000000000000002030     
100   9503051025571981000000000001608000000001608000200000001041040410051443001012YLXPAA0410210011001012   1030000100030000   541110001907777031200000019MOB BANK               YGN           MMR11004100514430010120410000000000000000   10300002 00104100000000000000000000003216     
100   35710500384518680000000000026150000000026150002000000010410404100418210001060942380410210010000106   1030000100030000   541110001917777031200000019MOB BANK               YGN           MMR11004100418210001060410000000000000000   10300005 00104100000000000000000000005230     
100   35710830308012020000000000054720000000054720002000000010410404101043130003818739410410210017000381   1030000100030000   541110001903777031200000019MOB BANK               YGN           MMR11004101043130003810410000000000000000   10300003 00104100000000000000000000010944     
100   9503051895168348000000000005342000000005342000200000001041040409073801000241H8CDYL0409209914000241   1030000100030000   541120003102777031200000031MOB BANK               YGN           MMR11004090738010002410409000000000000000   10300002 00104100000000000000000000010684     
100   9503051020161713000000000000294000000000294000200000001041040409112534000245A4E4UR0409209917000245   1030000100030000   541120003102777031200000031MOB BANK               YGN           MMR11004091125340002450409000000000000000   10300002 00104100000000000000000000000588     
100   35710500335367540000000000005440000000005440002000000010410404090741590002435139320409209914000243   1030000100030000   541120003102777031200000031MOB BANK               YGN           MMR11004090741590002430409000000000000000   10300005 00104100000000000000000000001088     
100   95030510205190680000000000200000000000200000002000000010410404100810170000832HUVLC0410210014000083   1030000100030000   541120000018777031200000002MOB BANK               YGN           MMR11004100810170000830410000000000000000   10300002 00104100000000000000000000040000     
100   35710500120871260000000000035100000000035100002000000010410404100350140000957069310410210010000095   1030000100030000   541120003111777031200000031MOB BANK               YGN           MMR11004100350140000950410000000000000000   10300005 00104100000000000000000000007020     
100   35710500383893650000000000016200000000016200002000000010410404101149080001228015450410210018000122   1030000100030000   541110001917777031200000019MOB BANK               YGN           MMR11004101149080001220410000000000000000   10300005 00104100000000000000000000003240     
100   9503051895480669000000000005544000000005544000200000001041040410110249000383CWN3HQ0410210017000383   1030000100030000   541110001903777031200000019MOB BANK               YGN           MMR11004101102490003830410000000000000000   10300002 00104100000000000000000000011088     
100   35710500178283830000000000029610000000029610002000000010410404100512230003599124020410210011000359   1030000100030000   541110001903777031200000019MOB BANK               YGN           MMR11004100512230003590410000000000000000   10300005 00104100000000000000000000005922     
100   62921400047183080000000000025020000000025020002000000010410404100957300003782222220410210016000378   1030000100030000   541110001903777031200000019MOB BANK               YGN           MMR11004100957300003780410000000000000000   10300009 00104100000000000000000000005004     
100   35710500374461820000000000011000000000011000002000000010410404100752210003716520500410210014000371   1030000100030000   541110001903777031200000019MOB BANK               YGN           MMR11004100752210003710410000000000000000   10300005 00104100000000000000000000002200     
100   9503190001455353000000000006071000000006071000200000001041040410095948000629QSZXS80410210016000629   1030000100030000   541110001915777031200000019MOB BANK               YGN           MMR11004100959480006290410000000000000000   10300014 00104100000000000000000000012142     
100   35650883630649870000000000067260000000067260002000000010410404100243240014372996870410210009001437   1030000100030000   541160000001777031200000006MOB BANK               YGN           MMR11004100243240014370410000000000000000   10300005 00104100000000000000000000023541     
100   9503051872312661000000000000655000000000655000200000001041040410062105000159KSLLUQ0410210012000159   1030000100030000   541120003001777031200000030MOB BANK               YGN           MMR11004100621050001590410000000000000000   10300002 00104100000000000000000000001310     
100   35710500355434020000000000049852000000049852002000000010410404100716510001606745850410210013000160   1030000100030000   541120003001777031200000030MOB BANK               YGN           MMR11004100716510001600410000000000000000   10300005 00104100000000000000000000009970     
100   62346600110663350000000000030150000000030150002000000010410404100828540004207756570410210014000420   1030000100030000   541120003106777031200000031MOB BANK               YGN           MMR11004100828540004200410000000000000000   10300005 00104100000000000000000000006030     
100   9503051887417596000000000002511000000002511000200000001041040410065129000407ORNHSE0410210013000407   1030000100030000   541120003106777031200000031MOB BANK               YGN           MMR11004100651290004070410000000000000000   10300002 00104100000000000000000000005022     
100   35710500162005680000000000006300000000006300002000000010410404100644180005537624590410210013000553   1030000100030000   541110001920777031200000019MOB BANK               YGN           MMR11004100644180005530410000000000000000   10300005 00104100000000000000000000001260     
100   35710830486505180000000000017820000000017820002000000010410404101002220005848494410410210016000584   1030000100030000   541120003117777031200000031MOB BANK               YGN           MMR11004101002220005840410000000000000000   10300003 00104100000000000000000000003564     
100   9503051020952533000000000000738000000000738000200000001041040410043248000575UVEWTQ0410210011000575   1030000100030000   541120003117777031200000031MOB BANK               YGN           MMR11004100432480005750410000000000000000   10300002 00104100000000000000000000001476     
100   62346600149839080000000000060100000000060100002000000010410404101147480006500004950410210018000650   1030000100030000   541110001915777031200000019MOB BANK               YGN           MMR11004101147480006500410000000000000000   10300005 00104100000000000000000000012020     
100   62921400047183080000000000030000000000030000002000000010410404100907290006232222220410210015000623   1030000100030000   541110001915777031200000019MOB BANK               YGN           MMR11004100907290006230410000000000000000   10300009 00104100000000000000000000006000     
100   35710830268388610000000000006900000000006900002000000010410404100946350009538399620410210016000953   1030000100030000   541110001905777031200000019MOB BANK               YGN           MMR11004100946350009530410000000000000000   10300003 00104100000000000000000000001380     
100   35710500385401320000000000200300000000200300002000000010410404100323280010071118280410210009001007   1030000100030000   541110001907777031200000019MOB BANK               YGN           MMR11004100323280010070410000000000000000   10300005 00104100000000000000000000040060     
100   9503051020208852000000000001071000000001071000200000001041040410060537000119FCPQSM0410210012000119   1030000100030000   541120003110777031200000031MOB BANK               YGN           MMR11004100605370001190410000000000000000   10300002 00104100000000000000000000002142     
100   35710500382445600000000000044910000000044910002000000010410404100522340003612755590410210011000361   1030000100030000   541110001903777031200000019MOB BANK               YGN           MMR11004100522340003610410000000000000000   10300005 00104100000000000000000000008982     
100   9503051025140316000000000020160000000020160000200000001041040410125520000655FYDYZP0410210019000655   1030000100030000   541110001915777031200000019MOB BANK               YGN           MMR11004101255200006550410000000000000000   10300002 00104100000000000000000000040320     
100   9503051021379769000000000001425000000001425000200000001041040410070648000934T281900410210013000934   1030000100030000   541110001905777031200000019MOB BANK               YGN           MMR11004100706480009340410000000000000000   10300002 00104100000000000000000000002850     
100   62343302004380140000000000018720000000018720002000000010410404100804410003733057620410210014000373   1030000100030000   541110001903777031200000019MOB BANK               YGN           MMR11004100804410003730410000000000000000   10300004 00104100000000000000000000003744     
100   35710830901870880000000000013500000000013500002000000010410404101131220005919028310410210018000591   1030000100030000   541120003117777031200000031MOB BANK               YGN           MMR11004101131220005910410000000000000000   10300003 00104100000000000000000000002700     
100   62346600199776990000000000012000000000012000002000000010410404101157080005721086530410210018000572   1030000100030000   541110001920777031200000019MOB BANK               YGN           MMR11004101157080005720410000000000000000   10300005 00104100000000000000000000002400     
100   9503051024467348000000000001030000000001030000200000001041040410101105000634VAYACA0410210016000634   1030000100030000   541110001915777031200000019MOB BANK               YGN           MMR11004101011050006340410000000000000000   10300002 00104100000000000000000000002060     
100   35710500301798300000000000038759000000038759002000000010410404100412140009210808580410210010000921   1030000100030000   541110001905777031200000019MOB BANK               YGN           MMR11004100412140009210410000000000000000   10300005 00104100000000000000000000007752     
100   35710830501352830000000000014700000000014700002000000010410404100548140001136969510410210012000113   1030000100030000   541110001917777031200000019MOB BANK               YGN           MMR11004100548140001130410000000000000000   10300003 00104100000000000000000000002940     
100   62346600129966880000000000031780000000031780002000000010410404100834010001028061300410210015000102   1030000100030000   541120003111777031200000031MOB BANK               YGN           MMR11004100834010001020410000000000000000   10300005 00104100000000000000000000006356     
100   35710830594095980000000000015000000000015000002000000010410404100411330001716389410410210010000171   1030000100030000   541120003104777031200000031MOB BANK               YGN           MMR11004100411330001710410000000000000000   10300003 00104100000000000000000000003000     
100   9503051875569341000000000002400000000002400000200000001041040410052637000363AGHRNV0410210011000363   1030000100030000   541110001903777031200000019MOB BANK               YGN           MMR11004100526370003630410000000000000000   10300002 00104100000000000000000000004800     
100   62441900002100560000000000018180000000018180002000000010410404100504370005784906270410210011000578   1030000100030000   541120003117777031200000031MOB BANK               YGN           MMR11004100504370005780410000000000000000   10300003 00104100000000000000000000006363     
100   9503051872847823000000000003402000000003402000200000001041040410070139000609F8AE560410210013000609   1030000100030000   541110001915777031200000019MOB BANK               YGN           MMR11004100701390006090410000000000000000   10300002 00104100000000000000000000006804     
100   35710830727053940000000000069750000000069750002000000010410404101123470006468982810410210017000646   1030000100030000   541110001915777031200000019MOB BANK               YGN           MMR11004101123470006460410000000000000000   10300003 00104100000000000000000000013950     
100   9503051023286921000000000002550000000002550000200000001041040410063901000399FXRIKN0410210013000399   1030000100030000   541120003106777031200000031MOB BANK               YGN           MMR11004100639010003990410000000000000000   10300002 00104100000000000000000000005100     
100   62921400083326760000000000114400000000114400002000000010410404101208180004532222220410210018000453   1030000100030000   581210001201777031200000012MOB BANK               YGN           MMR11004101208180004530410000000000000000   10300009 00104100000000000000000000038896     
100   35710830656600690000000000015000000000015000002000000010410404100424250003536466700410210010000353   1030000100030000   541110001903777031200000019MOB BANK               YGN           MMR11004100424250003530410000000000000000   10300003 00104100000000000000000000003000     
100   9503051873599738000000000000760000000000760000200000001041040410053202000580YOEKCJ0410210012000580   1030000100030000   541120003117777031200000031MOB BANK               YGN           MMR11004100532020005800410000000000000000   10300002 00104100000000000000000000001520     
100   35710830116420130000000000085500000000085500002000000010410404100610160006017101800410210012000601   1030000100030000   541110001915777031200000019MOB BANK               YGN           MMR11004100610160006010410000000000000000   10300003 00104100000000000000000000017100     
100   9503051896767130000000000001050000000001050000200000001041040410052559000925KNXNPB0410210011000925   1030000100030000   541110001905777031200000019MOB BANK               YGN           MMR11004100525590009250410000000000000000   10300002 00104100000000000000000000002100     
100   9503051888672389000000000001530000000001530000200000001041040410080834001023CJYZ5K0410210014001023   1030000100030000   541110001907777031200000019MOB BANK               YGN           MMR11004100808340010230410000000000000000   10300002 00104100000000000000000000003060     
100   9503051025024486000000000001278000000001278000200000001041040410111442000110YFY4MV0410210017000110   1030000100030000   541120003111777031200000031MOB BANK               YGN           MMR11004101114420001100410000000000000000   10300002 00104100000000000000000000002556     
100   62441900101888050000000000006750000000006750002000000010410404100943520001079053450410210016000107   1030000100030000   541120003111777031200000031MOB BANK               YGN           MMR11004100943520001070410000000000000000   10300003 00104100000000000000000000002362     
100   9503051024101731000000000002115000000002115000200000001041040410044538000108U7HHE40410210011000108   1030000100030000   541110001917777031200000019MOB BANK               YGN           MMR11004100445380001080410000000000000000   10300002 00104100000000000000000000004230     
100   9503051023377027000000000003150000000003150000200000001041040410033315000388K4XUIX0410210010000388   1030000100030000   541120003103777031200000031MOB BANK               YGN           MMR11004100333150003880410000000000000000   10300002 00104100000000000000000000006300     
100   9503051020952533000000000001791000000001791000200000001041040410051112000389ANUXBL0410210011000389   1030000100030000   541120003106777031200000031MOB BANK               YGN           MMR11004100511120003890410000000000000000   10300002 00104100000000000000000000003582     
100   35710500305366090000000000015800000000015800002000000010410404100801210006155061070410210014000615   1030000100030000   541110001915777031200000019MOB BANK               YGN           MMR11004100801210006150410000000000000000   10300005 00104100000000000000000000003160     
100   35710500384518680000000000020500000000020500002000000010410404100407120005884503380410210010000588   1030000100030000   541110001915777031200000019MOB BANK               YGN           MMR11004100407120005880410000000000000000   10300005 00104100000000000000000000004100     
100   35710500344126410000000000005400000000005400002000000010410404100812090010252911790410210014001025   1030000100030000   541110001907777031200000019MOB BANK               YGN           MMR11004100812090010250410000000000000000   10300005 00104100000000000000000000001080     
100   35710500324711850000000000054825000000054825002000000010410404101225420001610342530410210018000161   1030000100030000   541120003001777031200000030MOB BANK               YGN           MMR11004101225420001610410000000000000000   10300005 00104100000000000000000000010965     
100   9503051023927680000000000001692000000001692000200000001041040410063300000365JOZZOB0410210013000365   1030000100030000   541110001903777031200000019MOB BANK               YGN           MMR11004100633000003650410000000000000000   10300002 00104100000000000000000000003384     
100   62346600176572280000000000026400000000026400002000000010410404100615020006041596540410210012000604   1030000100030000   541110001915777031200000019MOB BANK               YGN           MMR11004100615020006040410000000000000000   10300005 00104100000000000000000000005280     
100   35710830268388610000000000008000000000008000002000000010410404100811170006177827810410210014000617   1030000100030000   541110001915777031200000019MOB BANK               YGN           MMR11004100811170006170410000000000000000   10300003 00104100000000000000000000001600     
100   62346600121781470000000000015120000000015120002000000010410404101137460006481143530410210018000648   1030000100030000   541110001915777031200000019MOB BANK               YGN           MMR11004101137460006480410000000000000000   10300005 00104100000000000000000000003024     
100   35710830609093050000000000065300000000065300002000000010410404100630430010217224510410210013001021   1030000100030000   541110001907777031200000019MOB BANK               YGN           MMR11004100630430010210410000000000000000   10300003 00104100000000000000000000013060     
100   9503051020208852000000000003063000000003063000200000001041040410084031000252QOBXSU0410210015000252   1030000100030000   541120003102777031200000031MOB BANK               YGN           MMR11004100840310002520410000000000000000   10300002 00104100000000000000000000006126     
100   950319000150957100000000000437400000000437400020000000104104041004364800035550UY940410210011000355   1030000100030000   541110001903777031200000019MOB BANK               YGN           MMR11004100436480003550410000000000000000   10300014 00104100000000000000000000008748     
100   9503051875569341000000000001665000000001665000200000001041040410051217000594XWZOYE0410210011000594   1030000100030000   541110001915777031200000019MOB BANK               YGN           MMR11004100512170005940410000000000000000   10300002 00104100000000000000000000003330     
100   35710830525425850000000000007840000000007840002000000010410404100534480005826889010410210012000582   1030000100030000   541120003117777031200000031MOB BANK               YGN           MMR11004100534480005820410000000000000000   10300003 00104100000000000000000000001568     
100   95030518964647040000000000039552000000039552002000000010410404100647090006067QQCVU0410210013000606   1030000100030000   541110001915777031200000019MOB BANK               YGN           MMR11004100647090006060410000000000000000   10300002 00104100000000000000000000007910     
100   9503051888799422000000000001400000000001400000200000001041040410065258000607UEZM5S0410210013000607   1030000100030000   541110001915777031200000019MOB BANK               YGN           MMR11004100652580006070410000000000000000   10300002 00104100000000000000000000002800     
100   35710500154340280000000000013050000000013050002000000010410404100710580006113476530410210013000611   1030000100030000   541110001915777031200000019MOB BANK               YGN           MMR11004100710580006110410000000000000000   10300005 00104100000000000000000000002610     
100   35710500101079260000000000005096000000005096002000000010410404100750130009362059830410210014000936   1030000100030000   541110001905777031200000019MOB BANK               YGN           MMR11004100750130009360410000000000000000   10300005 00104100000000000000000000001019     
100   9503051023927649000000000006668900000006668900200000001041040410070437000932TKW7HP0410210013000932   1030000100030000   541110001905777031200000019MOB BANK               YGN           MMR11004100704370009320410000000000000000   10300002 00104100000000000000000000013338     
100   9503051897463846000000000006570000000006570000200000001041040410053511001014ITYEPQ0410210012001014   1030000100030000   541110001907777031200000019MOB BANK               YGN           MMR11004100535110010140410000000000000000   10300002 00104100000000000000000000013140     
100   62921400047183080000000000060000000000060000002000000010410404101129290010382222220410210017001038   1030000100030000   541110001907777031200000019MOB BANK               YGN           MMR11004101129290010380410000000000000000   10300009 00104100000000000000000000012000     
100   35710500361792710000000000269400000000269400002000000010410404100325560014403231900410210009001440   1030000100030000   541160000001777031200000006MOB BANK               YGN           MMR11004100325560014400410000000000000000   10300005 00104100000000000000000000053880     
100   35710950418526360000000000028350000000028350002000000010410404101124140001118985610410210017000111   1030000100030000   541120003111777031200000031MOB BANK               YGN           MMR11004101124140001110410000000000000000   10300003 00104100000000000000000000005670     
100   9503051025090792000000000000630000000000630000200000001041040410101749000108BK3BWW0410210016000108   1030000100030000   541120003111777031200000031MOB BANK               YGN           MMR11004101017490001080410000000000000000   10300002 00104100000000000000000000001260     
100   35710500115739440000000000013000000000013000002000000010410404100605280003927143950410210012000392   1030000100030000   541120003106777031200000031MOB BANK               YGN           MMR11004100605280003920410000000000000000   10300005 00104100000000000000000000002600     
100   35710830629325520000000000040000000000040000002000000010410404101054530004258809510410210017000425   1030000100030000   541120003106777031200000031MOB BANK               YGN           MMR11004101054530004250410000000000000000   10300003 00104100000000000000000000008000     
100   9503051025219334000000000001665000000001665000200000001041040410102121000587MXX3UN0410210016000587   1030000100030000   541120003117777031200000031MOB BANK               YGN           MMR11004101021210005870410000000000000000   10300002 00104100000000000000000000003330     
100   9503051023033265000000000001962000000001962000200000001041040410071130000555BSYTU90410210013000555   1030000100030000   541110001920777031200000019MOB BANK               YGN           MMR11004100711300005550410000000000000000   10300002 00104100000000000000000000003924     
100   95030510259429350000000000018100000000018100002000000010410404100722250005573GBNKU0410210013000557   1030000100030000   541110001920777031200000019MOB BANK               YGN           MMR11004100722250005570410000000000000000   10300002 00104100000000000000000000003620     
100   35710830901870880000000000038520000000038520002000000010410404101114340005898927600410210017000589   1030000100030000   541120003117777031200000031MOB BANK               YGN           MMR11004101114340005890410000000000000000   10300003 00104100000000000000000000007704     
100   35710500315446440000000000067050000000067050002000000010410404100454330005908756060410210011000590   1030000100030000   541110001915777031200000019MOB BANK               YGN           MMR11004100454330005900410000000000000000   10300005 00104100000000000000000000013410     
100   35710830381142770000000000027450000000027450002000000010410404100849210001068056210410210015000106   1030000100030000   541120003111777031200000031MOB BANK               YGN           MMR11004100849210001060410000000000000000   10300003 00104100000000000000000000005490     
100   9503190002022632000000000001791000000001791000200000001041040410084755000104Y0D7C30410210015000104   1030000100030000   541120003111777031200000031MOB BANK               YGN           MMR11004100847550001040410000000000000000   10300014 00104100000000000000000000003582     
100   35710830264452120000000000018335000000018335002000000010410404100433470000966522820410210011000096   1030000100030000   541120003111777031200000031MOB BANK               YGN           MMR11004100433470000960410000000000000000   10300003 00104100000000000000000000003667     
100   62346600121781470000000000014310000000014310002000000010410404101154300005703916570410210018000570   1030000100030000   541110001920777031200000019MOB BANK               YGN           MMR11004101154300005700410000000000000000   10300005 00104100000000000000000000002862     
100   9503190001768722000000000002415000000002415000200000001041040410103618000636SQ8KHC0410210017000636   1030000100030000   541110001915777031200000019MOB BANK               YGN           MMR11004101036180006360410000000000000000   10300014 00104100000000000000000000004830     
100   35710830727053940000000000035100000000035100002000000010410404101102180006408854010410210017000640   1030000100030000   541110001915777031200000019MOB BANK               YGN           MMR11004101102180006400410000000000000000   10300003 00104100000000000000000000007020     
100   35710830718195500000000000087200000000087200002000000010410404100857280006218104920410210015000621   1030000100030000   541110001915777031200000019MOB BANK               YGN           MMR11004100857280006210410000000000000000   10300003 00104100000000000000000000017440     
