100   35710950690650120000000000004950000000004950002000000010410401060930590007566146100106200616000756   1030000100030000   581450000001777031200000005MOB BANK               YGN           MMR11001060930590007560106000000000000000   10300003 00104100000000000000000000000742     
100   35710500113667860000000000028930000000028930002000000010410401061001470007577747350106200616000757   1030000100030000   581450000001777031200000005MOB BANK               YGN           MMR11001061001470007570106000000000000000   10300005 00104100000000000000000000004339     
100   35710500177722760000000000010500000000010500002000000010410401060220430001468336450106200608000146   1030000100030000   541120000017777031200000002MOB BANK               YGN           MMR11001060220430001460106000000000000000   10300005 00104100000000000000000000002100     
100   9503051872927435000000000008434950000008434950200000001041040106102733000830MLMYJN0106200616000830   1030000100030000   569160000001777031200000006MOB BANK               YGN           MMR11001061027330008300106000000000000000   10300002 00104100000000000000000000025305     
100   62622000264006020000000000063800000000063800002000000010410401060557210001473319650106200612000147   1030000100030000   541120000017777031200000002MOB BANK               YGN           MMR11001060557210001470106000000000000000   10300006 00104100000000000000000000012760     
100   9503051025514833000000000002288000000002288000200000001041040106052528000755HUVW7F0106200611000755   1030000100030000   581450000001777031200000005MOB BANK               YGN           MMR11001060525280007550106000000000000000   10300002 00104100000000000000000000003432     
100   35710500331786490000000000333250500000333250502000000010410401061025290008297854670106200616000829   1030000100030000   569160000001777031200000006MOB BANK               YGN           MMR11001061025290008290106000000000000000   10300005 00104100000000000000000000099975     
