100   95030518968247660000000000043300000000043300002000000010410404190619590000299SQADF0419210912000029   1030000100030000   541120003013777031200000030MOB BANK               YGN           MMR11004190619590000290419000000000000000   10300002 00104100000000000000000000008660     
100   9503051873224576000000000002835000000002835000200000001041040419072251000135MXUJBA0419210913000135   1030000100030000   541120003108777031200000031MOB BANK               YGN           MMR11004190722510001350419000000000000000   10300002 00104100000000000000000000005670     
100   35710500345342950000000000009600000000009600002000000010410404191118440001835068410419210917000183   1030000100030000   541120003111777031200000031MOB BANK               YGN           MMR11004191118440001830419000000000000000   10300005 00104100000000000000000000001920     
100   35710500183183430000000000013010000000013010002000000010410404190424250002037694640419210910000203   1030000100030000   541120003104777031200000031MOB BANK               YGN           MMR11004190424250002030419000000000000000   10300005 00104100000000000000000000002602     
100   9503051885796835000000000001360000000001360000200000001041040419065405000052CBYOOJ0419210913000052   1030000100030000   541120003012777031200000030MOB BANK               YGN           MMR11004190654050000520419000000000000000   10300002 00104100000000000000000000002720     
100   35710500370579060000000000019700000000019700002000000010410404190813130000545378300419210914000054   1030000100030000   541120003012777031200000030MOB BANK               YGN           MMR11004190813130000540419000000000000000   10300005 00104100000000000000000000003940     
100   35710830179208760000000000035900000000035900002000000010410404191049110005336535210419210917000533   1030000100030000   541120003106777031200000031MOB BANK               YGN           MMR11004191049110005330419000000000000000   10300003 00104100000000000000000000007180     
100   95030800082796840000000000032208000000032208002000000010410404190902510000575897310419210915000057   1030000100030000   541120003012777031200000030MOB BANK               YGN           MMR11004190902510000570419000000000000000   10300003 00104100000000000000000000006442     
100   35710830229164710000000000008600000000008600002000000010410404190959200000596236210419210916000059   1030000100030000   541120003012777031200000030MOB BANK               YGN           MMR11004190959200000590419000000000000000   10300003 00104100000000000000000000001720     
100   9503051026002259000000000004000000000004000000200000001041040418102428000624HOMIBJ0418210816000624   1030000100030000   541110001920777031200000019MOB BANK               YGN           MMR11004181024280006240418000000000000000   10300002 00104100000000000000000000008000     
100   9503051025305828000000000003700000000003700000200000001041040418104323001133OXLH3J0418210817001133   1030000100030000   541110001907777031200000019MOB BANK               YGN           MMR11004181043230011330418000000000000000   10300002 00104100000000000000000000007400     
100   35710500354317310000000000051000000000051000002000000010410404180649000011100033060418210813001110   1030000100030000   541110001907777031200000019MOB BANK               YGN           MMR11004180649000011100418000000000000000   10300005 00104100000000000000000000010200     
100   9503051885707782000000000010120000000010120000200000001041040415132403000472YFDIMQ0415210519000472   1030000100030000   581210001201777031200000012MOB BANK               YGN           MMR11004151324030004720415000000000000000   10300002 00104100000000000000000000034408     
100   9503051888696289000000000000686000000000686000200000001041040418035707001106T1J4VR0418210810001106   1030000100030000   541110001907777031200000019MOB BANK               YGN           MMR11004180357070011060418000000000000000   10300002 00104100000000000000000000001372     
100   9503051897195869000000000009240000000009240000200000001041040418133111000484U6YIR00418210820000484   1030000100030000   581210001201777031200000012MOB BANK               YGN           MMR11004181331110004840418000000000000000   10300002 00104100000000000000000000031416     
100   35710830324969440000000000036288000000036288002000000010410404180404140001715465510418210810000171   1030000100030000   541120003111777031200000031MOB BANK               YGN           MMR11004180404140001710418000000000000000   10300003 00104100000000000000000000007258     
100   35710830389605960000000000073700000000073700002000000010410404181337050004855504470418210820000485   1030000100030000   581210001201777031200000012MOB BANK               YGN           MMR11004181337050004850418000000000000000   10300003 00104100000000000000000000025058     
100   9503051888595812000000000000965000000000965000200000001041040418102515001029AFGGQP0418210816001029   1030000100030000   541110001905777031200000019MOB BANK               YGN           MMR11004181025150010290418000000000000000   10300002 00104100000000000000000000001930     
100   35710500315182590000000000019600000000019600002000000010410404181107020011351361590418210817001135   1030000100030000   541110001907777031200000019MOB BANK               YGN           MMR11004181107020011350418000000000000000   10300005 00104100000000000000000000003920     
100   9503051897941429000000000004980000000004980000200000001041040418075826001116YFEXF00418210814001116   1030000100030000   541110001907777031200000019MOB BANK               YGN           MMR11004180758260011160418000000000000000   10300002 00104100000000000000000000009960     
100   35710830227195780000000000008580000000008580002000000010410404180704540012726549600418210813001272   1030000100030000   581250000001777031200000005MOB BANK               YGN           MMR11004180704540012720418000000000000000   10300003 00104100000000000000000000002917     
100   35710500361513040000000000020350000000020350002000000010410404180749290001712511350418210814000171   1030000100030000   541120003001777031200000030MOB BANK               YGN           MMR11004180749290001710418000000000000000   10300005 00104100000000000000000000004070     
100   35710500188260140000000000015950000000015950002000000010410404180858190011241600730418210815001124   1030000100030000   541110001907777031200000019MOB BANK               YGN           MMR11004180858190011240418000000000000000   10300005 00104100000000000000000000003190     
100   35710500361513040000000000024000000000024000002000000010410404180735270000587241090418210814000058   1030000100030000   541120003008777031200000030MOB BANK               YGN           MMR11004180735270000580418000000000000000   10300005 00104100000000000000000000004800     
100   35710900116061460000000000006500000000006500002000000010410404181348340006008971510418210820000600   1030000100030000   581210001501777031200000015MOB BANK               YGN           MMR11004181348340006000418000000000000000   10300003 00104100000000000000000000002210     
100   35710830007750140000000000023100000000023100002000000010410404180722180012736653910418210813001273   1030000100030000   581250000001777031200000005MOB BANK               YGN           MMR11004180722180012730418000000000000000   10300003 00104100000000000000000000007854     
100   35710830969857580000000000017050000000017050002000000010410404180902280012747255010418210815001274   1030000100030000   581250000001777031200000005MOB BANK               YGN           MMR11004180902280012740418000000000000000   10300003 00104100000000000000000000005797     
100   35710500320583470000000000028000000000028000002000000010410404181213580000590754480418210818000059   1030000100030000   541120003008777031200000030MOB BANK               YGN           MMR11004181213580000590418000000000000000   10300005 00104100000000000000000000005600     
100   35710500355836480000000000113900000000113900002000000010410404180706090001722174260418210813000172   1030000100030000   541120003111777031200000031MOB BANK               YGN           MMR11004180706090001720418000000000000000   10300005 00104100000000000000000000022780     
100   35710830229164710000000000006480000000006480002000000010410404180958340001727591520418210816000172   1030000100030000   541120003001777031200000030MOB BANK               YGN           MMR11004180958340001720418000000000000000   10300003 00104100000000000000000000001296     
100   35710500333058870000000000022300000000022300002000000010410404180549280001986181920418210812000198   1030000100030000   541120003104777031200000031MOB BANK               YGN           MMR11004180549280001980418000000000000000   10300005 00104100000000000000000000004460     
100   35710830438013480000000000162000000000162000002000000010410404180917440011267346510418210815001126   1030000100030000   541110001907777031200000019MOB BANK               YGN           MMR11004180917440011260418000000000000000   10300003 00104100000000000000000000032400     
100   9503051893810206000000000009300000000009300000200000001041040418080354001118ILFV930418210814001118   1030000100030000   541110001907777031200000019MOB BANK               YGN           MMR11004180803540011180418000000000000000   10300002 00104100000000000000000000018600     
100   35710830913853270000000000008800000000008800002000000010410404181215440000605477990418210818000060   1030000100030000   541120003008777031200000030MOB BANK               YGN           MMR11004181215440000600418000000000000000   10300003 00104100000000000000000000001760     
100   62343301011357680000000000090000000000090000002000000010410404180800540002229970570418210814000222   1030000100030000   541120000017777031200000002MOB BANK               YGN           MMR11004180800540002220418000000000000000   10300004 00104100000000000000000000018000     
100   9503190000369423000000000036960000000036960000200000001041040418044557001475QNMTSJ0418210811001475   1030000100030000   541160000001777031200000006MOB BANK               YGN           MMR11004180445570014750418000000000000000   10300014 00104100000000000000000000073920     
100   35710500360131570000000000087700000000087700002000000010410404180709130001739330430418210813000173   1030000100030000   541120003111777031200000031MOB BANK               YGN           MMR11004180709130001730418000000000000000   10300005 00104100000000000000000000017540     
100   35710830859334390000000000619900000000619900002000000010410404180907070004807282910418210815000480   1030000100030000   581210001201777031200000012MOB BANK               YGN           MMR11004180907070004800418000000000000000   10300003 00104100000000000000000000210766     
100   9503051896021157000000000005290000000005290000200000001041040418092237001128SKF1WQ0418210815001128   1030000100030000   541110001907777031200000019MOB BANK               YGN           MMR11004180922370011280418000000000000000   10300002 00104100000000000000000000010580     
100   35710500334458320000000000067000000000067000002000000010410404180924350004326281030418210815000432   1030000100030000   541110001903777031200000019MOB BANK               YGN           MMR11004180924350004320418000000000000000   10300005 00104100000000000000000000013400     
100   9503051024990034000000000001980000000001980000200000001041040418114742000434TTM6YW0418210818000434   1030000100030000   541110001903777031200000019MOB BANK               YGN           MMR11004181147420004340418000000000000000   10300002 00104100000000000000000000003960     
100   35710500325394520000000000120500000000120500002000000010410404181314520004824977490418210819000482   1030000100030000   581210001201777031200000012MOB BANK               YGN           MMR11004181314520004820418000000000000000   10300005 00104100000000000000000000040970     
100   35710830697518720000000000011500000000011500002000000010410404180625430001236314410418210812000123   1030000100030000   541120003110777031200000031MOB BANK               YGN           MMR11004180625430001230418000000000000000   10300003 00104100000000000000000000002300     
100   35710500365629550000000000214800000000214800002000000010410404180746020014790191880418210814001479   1030000100030000   541160000001777031200000006MOB BANK               YGN           MMR11004180746020014790418000000000000000   10300005 00104100000000000000000000042960     
100   35710830226298350000000000032800000000032800002000000010410404180809570001756939810418210814000175   1030000100030000   541120003111777031200000031MOB BANK               YGN           MMR11004180809570001750418000000000000000   10300003 00104100000000000000000000006560     
100   9503051892064409000000000002050000000002050000200000001041040418080856000422SUPMCK0418210814000422   1030000100030000   541120003103777031200000031MOB BANK               YGN           MMR11004180808560004220418000000000000000   10300002 00104100000000000000000000004100     
100   35710830939972510000000000017190000000017190002000000010410404180639440006726398600418210813000672   1030000100030000   541120003117777031200000031MOB BANK               YGN           MMR11004180639440006720418000000000000000   10300003 00104100000000000000000000003438     
100   62622000676263050000000000081400000000081400002000000010410404170805570004753232050417210714000475   1030000100030000   581210001201777031200000012MOB BANK               YGN           MMR11004170805570004750417000000000000000   10300006 00104100000000000000000000027676     
100   9503190001814112000000000010340000000010340000200000001041040417133317000477O9272J0417210720000477   1030000100030000   581210001201777031200000012MOB BANK               YGN           MMR11004171333170004770417000000000000000   10300014 00104100000000000000000000035156     
100   9503051021071499000000000005880000000005880000200000001041040416121717000473ZHIIO00416210618000473   1030000100030000   581210001201777031200000012MOB BANK               YGN           MMR11004161217170004730416000000000000000   10300002 00104100000000000000000000019992     
100   9503051026113114000000000002470000000002470000200000001041040417143954000478OOTGWQ0417210721000478   1030000100030000   581210001201777031200000012MOB BANK               YGN           MMR11004171439540004780417000000000000000   10300002 00104100000000000000000000008398     
100   35710830755199900000000000036600000000036600002000000010410404171140500004769565210417210718000476   1030000100030000   581210001201777031200000012MOB BANK               YGN           MMR11004171140500004760417000000000000000   10300003 00104100000000000000000000012444     
100   95031100019504840000000000088710000000088710002000000010410404180415000014733026580418210810001473   1030000100030000   541160000001777031200000006MOB BANK               YGN           MMR11004180415000014730418000000000000000   10300006 00104100000000000000000000017742     
100   9503051023479237000000000003320000000003320000200000001041040418073255000420LWNDSW0418210814000420   1030000100030000   541120003103777031200000031MOB BANK               YGN           MMR11004180732550004200418000000000000000   10300002 00104100000000000000000000006640     
100   9503051884088580000000000000420000000000420000200000001041040418070458000492RDYTOG0418210813000492   1030000100030000   541120003106777031200000031MOB BANK               YGN           MMR11004180704580004920418000000000000000   10300002 00104100000000000000000000000840     
100   62346600165850400000000000029500000000029500002000000010410404180624220004306245150418210812000430   1030000100030000   541110001903777031200000019MOB BANK               YGN           MMR11004180624220004300418000000000000000   10300005 00104100000000000000000000005900     
100   35710500320583470000000000034299000000034299002000000010410404181256110001747451000418210819000174   1030000100030000   541120003001777031200000030MOB BANK               YGN           MMR11004181256110001740418000000000000000   10300005 00104100000000000000000000006860     
100   9503051885536397000000000001850000000001850000200000001041040418072445000174WJZVC80418210813000174   1030000100030000   541120003111777031200000031MOB BANK               YGN           MMR11004180724450001740418000000000000000   10300002 00104100000000000000000000003700     
100   35710830432904680000000000080100000000080100002000000010410404150842530004701217500415210515000470   1030000100030000   581210001201777031200000012MOB BANK               YGN           MMR11004150842530004700415000000000000000   10300003 00104100000000000000000000027234     
100   95030800003320850000000000015500000000015500002000000010410404190538220000274670430419210912000027   1030000100030000   541120003013777031200000030MOB BANK               YGN           MMR11004190538220000270419000000000000000   10300003 00104100000000000000000000003100     
100   62622000119311240000000000093850000000093850002000000010410404190545210000284331580419210912000028   1030000100030000   541120003013777031200000030MOB BANK               YGN           MMR11004190545210000280419000000000000000   10300006 00104100000000000000000000018770     
100   9503051885796835000000000001450000000001450000200000001041040419064321000030TJFBLU0419210913000030   1030000100030000   541120003013777031200000030MOB BANK               YGN           MMR11004190643210000300419000000000000000   10300002 00104100000000000000000000002900     
100   35710500370579060000000000043700000000043700002000000010410404190815210000316684690419210914000031   1030000100030000   541120003013777031200000030MOB BANK               YGN           MMR11004190815210000310419000000000000000   10300005 00104100000000000000000000008740     
100   95030518751812530000000000160700000000160700002000000010410404190957130001813EPII10419210916000181   1030000100030000   541120003111777031200000031MOB BANK               YGN           MMR11004190957130001810419000000000000000   10300002 00104100000000000000000000032140     
100   35710830656883180000000000010450000000010450002000000010410404190710150012765221630419210913001276   1030000100030000   581250000001777031200000005MOB BANK               YGN           MMR11004190710150012760419000000000000000   10300003 00104100000000000000000000003553     
100   62346600175859570000000000131400000000131400002000000010410404190558000014875754300419210912001487   1030000100030000   541160000001777031200000006MOB BANK               YGN           MMR11004190558000014870419000000000000000   10300005 00104100000000000000000000026280     
