100   62622000206762230000000000011400000000011400002000000010410404200343210006394282670420211010000639   1030000100030000   541110001920777031200000019MOB BANK               YGN           MMR11004200343210006390420000000000000000   10300006 00104100000000000000000000002280     
100   9503051020077117000000000000675000000000675000200000001041040420120155001085XJ2IJQ0420211018001085   1030000100030000   541110001905777031200000019MOB BANK               YGN           MMR11004201201550010850420000000000000000   10300002 00104100000000000000000000001350     
100   95030799000833840000000000009800000000009800002000000010410404200818080002130284430420211014000213   1030000100030000   541120003104777031200000031MOB BANK               YGN           MMR11004200818080002130420000000000000000   10200004 00104100000000000000000000001960     
100   95030510239310470000000000032800000000032800002000000010410404200923530004490KPYHA0420211015000449   1030000100030000   541110001903777031200000019MOB BANK               YGN           MMR11004200923530004490420000000000000000   10300002 00104100000000000000000000006560     
100   62346600134067860000000000022100000000022100002000000010410404201017520007104801910420211016000710   1030000100030000   541120003117777031200000031MOB BANK               YGN           MMR11004201017520007100420000000000000000   10300005 00104100000000000000000000004420     
100   62346600197214440000000000200000000000200000002000000010410404201137460011821997080420211018001182   1030000100030000   541110001907777031200000019MOB BANK               YGN           MMR11004201137460011820420000000000000000   10300005 00104100000000000000000000040000     
100   95031100014068670000000000020160000000020160002000000010410404201031350000464335780420211017000046   1030000100030000   541120003002777031200000030MOB BANK               YGN           MMR11004201031350000460420000000000000000   10300006 00104100000000000000000000004032     
100   9503051883866770000000000000980000000000980000200000001041040420053657000698MLDDIG0420211012000698   1030000100030000   541120003117777031200000031MOB BANK               YGN           MMR11004200536570006980420000000000000000   10300002 00104100000000000000000000001960     
100   35710950139660180000000000034300000000034300002000000010410404200601230011603448510420211012001160   1030000100030000   541110001907777031200000019MOB BANK               YGN           MMR11004200601230011600420000000000000000   10300003 00104100000000000000000000006860     
100   35710830825031930000000000019300000000019300002000000010410404200417120006412823510420211010000641   1030000100030000   541110001920777031200000019MOB BANK               YGN           MMR11004200417120006410420000000000000000   10300003 00104100000000000000000000003860     
100   62346600150637340000000000041000000000041000002000000010410404200847590000606110650420211015000060   1030000100030000   541120003013777031200000030MOB BANK               YGN           MMR11004200847590000600420000000000000000   10300005 00104100000000000000000000008200     
100   9503051890858604000000000009040000000009040000200000001041040420113456000452CJJMZA0420211018000452   1030000100030000   541110001903777031200000019MOB BANK               YGN           MMR11004201134560004520420000000000000000   10300002 00104100000000000000000000018080     
100   9503051896691330000000000007165000000007165000200000001041040420112600000714J53ZEJ0420211017000714   1030000100030000   541120003117777031200000031MOB BANK               YGN           MMR11004201126000007140420000000000000000   10300002 00104100000000000000000000014330     
100   35710830859081750000000000011550000000011550002000000010410404201126060012795396710420211017001279   1030000100030000   581250000001777031200000005MOB BANK               YGN           MMR11004201126060012790420000000000000000   10300003 00104100000000000000000000003927     
100   62622000540998620000000000003050000000003050002000000010410404200942330000364780800420211016000036   1030000100030000   541120003005777031200000030MOB BANK               YGN           MMR11004200942330000360420000000000000000   10300006 00104100000000000000000000000610     
100   35710830577208970000000000089250000000089250002000000010410404200421420006862850310420211010000686   1030000100030000   541120003117777031200000031MOB BANK               YGN           MMR11004200421420006860420000000000000000   10300003 00104100000000000000000000017850     
100   35710830114367470000000000001400000000001400002000000010410404200547570007003367810420211012000700   1030000100030000   541120003117777031200000031MOB BANK               YGN           MMR11004200547570007000420000000000000000   10300003 00104100000000000000000000000280     
100   35710830568163160000000000163100000000163100002000000010410404200657030011633782410420211013001163   1030000100030000   541110001907777031200000019MOB BANK               YGN           MMR11004200657030011630420000000000000000   10300003 00104100000000000000000000032620     
100   9503051024951119000000000000130000000000130000200000001041040420035521000031IHPTJM0420211010000031   1030000100030000   541120003005777031200000030MOB BANK               YGN           MMR11004200355210000310420000000000000000   10300002 00104100000000000000000000000260     
100   35710500365524510000000000017000000000017000002000000010410404200758140002763436870420211014000276   1030000100030000   541120003105777031200000031MOB BANK               YGN           MMR11004200758140002760420000000000000000   10300005 00104100000000000000000000003400     
100   35710900116061460000000000050000000000050000002000000010410404201137060006255462800420211018000625   1030000100030000   581210001501777031200000015MOB BANK               YGN           MMR11004201137060006250420000000000000000   10300003 00104100000000000000000000017000     
100   35710830817102600000000000007200000000007200002000000010410404200503200006893100110420211011000689   1030000100030000   541120003117777031200000031MOB BANK               YGN           MMR11004200503200006890420000000000000000   10300003 00104100000000000000000000001440     
100   62346600135810000000000000200000000000200000002000000010410404201040550011768534720420211017001176   1030000100030000   541110001907777031200000019MOB BANK               YGN           MMR11004201040550011760420000000000000000   10300005 00104100000000000000000000040000     
100   35710830474878050000000000004250000000004250002000000010410404201125140000425391610420211017000042   1030000100030000   541120003005777031200000030MOB BANK               YGN           MMR11004201125140000420420000000000000000   10300003 00104100000000000000000000000850     
100   9503051020393266000000000000662400000000662400200000001041040420094945000644DSZSBG0420211016000644   1030000100030000   541110001920777031200000019MOB BANK               YGN           MMR11004200949450006440420000000000000000   10300002 00104100000000000000000000001325     
100   35710500111942950000000000021900000000021900002000000010410404200920220002167021350420211015000216   1030000100030000   541120003104777031200000031MOB BANK               YGN           MMR11004200920220002160420000000000000000   10300005 00104100000000000000000000004380     
100   95030518838667700000000000014500000000014500002000000010410404200625560007040BEBWS0420211012000704   1030000100030000   541120003117777031200000031MOB BANK               YGN           MMR11004200625560007040420000000000000000   10300002 00104100000000000000000000002900     
100   9503051024814382000000000002550000000002550000200000001041040420073714000044ABOW9I0420211014000044   1030000100030000   541120003002777031200000030MOB BANK               YGN           MMR11004200737140000440420000000000000000   10300002 00104100000000000000000000005100     
100   35710950528590660000000000007750000000007750002000000010410404201149320000455537320420211018000045   1030000100030000   541120003005777031200000030MOB BANK               YGN           MMR11004201149320000450420000000000000000   10300003 00104100000000000000000000001550     
100   35710830114367470000000000008600000000008600002000000010410404200411200002092788200420211010000209   1030000100030000   541120003104777031200000031MOB BANK               YGN           MMR11004200411200002090420000000000000000   10300003 00104100000000000000000000001720     
100   62441900003865670000000000005790000000005790002000000010410404200520130002113010850420211011000211   1030000100030000   541120003104777031200000031MOB BANK               YGN           MMR11004200520130002110420000000000000000   10300003 00104100000000000000000000002026     
100   950305188734025100000000000297000000000297000020000000104104042006340100061492YQCM0420211013000614   1030000100030000   581210001501777031200000015MOB BANK               YGN           MMR11004200634010006140420000000000000000   10300002 00104100000000000000000000010098     
100   9503051025923653000000000003160000000003160000200000001041040420081444000707X75ADD0420211014000707   1030000100030000   541120003117777031200000031MOB BANK               YGN           MMR11004200814440007070420000000000000000   10300002 00104100000000000000000000006320     
100   9503051026161493000000000000567900000000567900200000001041040420104354001178IQYOSW0420211017001178   1030000100030000   541110001907777031200000019MOB BANK               YGN           MMR11004201043540011780420000000000000000   10300002 00104100000000000000000000001136     
100   9503051897694036000000000002700000000002700000200000001041040420080132001166CB54HF0420211014001166   1030000100030000   541110001907777031200000019MOB BANK               YGN           MMR11004200801320011660420000000000000000   10300002 00104100000000000000000000005400     
100   9503051872656919000000000000916300000000916300200000001041040420031621000269DASDJU0420211009000269   1030000100030000   541120003102777031200000031MOB BANK               YGN           MMR11004200316210002690420000000000000000   10300002 00104100000000000000000000001833     
100   35710830900009500000000000024353000000024353002000000010410404190933470010596082900419210916001059   1030000100030000   541110001905777031200000019MOB BANK               YGN           MMR11004190933470010590419000000000000000   10300003 00104100000000000000000000004871     
100   9503051025215209000000000012710000000012710000200000001041040419064648000488QJDVTY0419210913000488   1030000100030000   581210001201777031200000012MOB BANK               YGN           MMR11004190646480004880419000000000000000   10300002 00104100000000000000000000043214     
100   9503051885013504000000000001980000000001980000200000001041040419074209000635GM2MJA0419210914000635   1030000100030000   541110001920777031200000019MOB BANK               YGN           MMR11004190742090006350419000000000000000   10300002 00104100000000000000000000003960     
100   95031900056232530000000000025800000000025800002000000010410404190859500004451WQ1NK0419210915000445   1030000100030000   541110001903777031200000019MOB BANK               YGN           MMR11004190859500004450419000000000000000   10300014 00104100000000000000000000005160     
100   35710830077294770000000000036514000000036514002000000010410404191212310001877035320419210918000187   1030000100030000   541120003001777031200000030MOB BANK               YGN           MMR11004191212310001870419000000000000000   10300003 00104100000000000000000000007303     
100   35710500140660450000000000004700000000004700002000000010410404190519160001802243750419210911000180   1030000100030000   541120003001777031200000030MOB BANK               YGN           MMR11004190519160001800419000000000000000   10300005 00104100000000000000000000000940     
100   9503051894169081000000000001274000000001274000200000001041040419071850001055HBFLMJ0419210913001055   1030000100030000   541110001905777031200000019MOB BANK               YGN           MMR11004190718500010550419000000000000000   10300002 00104100000000000000000000002548     
100   9503051883990075000000000002000000000002000000200000001041040419031706001035DPZHJH0419210909001035   1030000100030000   541110001905777031200000019MOB BANK               YGN           MMR11004190317060010350419000000000000000   10300002 00104100000000000000000000004000     
100   9503051021785726000000000001620000000001620000200000001041040419084051001146TRV90W0419210915001146   1030000100030000   541110001907777031200000019MOB BANK               YGN           MMR11004190840510011460419000000000000000   10300002 00104100000000000000000000003240     
100   62622000605197540000000000003100000000003100002000000010410404190952010001824332760419210916000182   1030000100030000   541120003001777031200000030MOB BANK               YGN           MMR11004190952010001820419000000000000000   10300006 00104100000000000000000000000620     
100   9503051025108925000000000003850000000003850000200000001041040419034859000438RESWAU0419210910000438   1030000100030000   541110001903777031200000019MOB BANK               YGN           MMR11004190348590004380419000000000000000   10300002 00104100000000000000000000007700     
100   35710500116308430000000000024800000000024800002000000010410404190452140004403229250419210911000440   1030000100030000   541110001903777031200000019MOB BANK               YGN           MMR11004190452140004400419000000000000000   10300005 00104100000000000000000000004960     
100   62622000789817230000000000032310000000032310002000000010410404190408380010384331110419210910001038   1030000100030000   541110001905777031200000019MOB BANK               YGN           MMR11004190408380010380419000000000000000   10300006 00104100000000000000000000006462     
100   9503051022844639000000000000440000000000440000200000001041040419100143000185NFY5BG0419210916000185   1030000100030000   541120003001777031200000030MOB BANK               YGN           MMR11004191001430001850419000000000000000   10300002 00104100000000000000000000000880     
100   9503051024854560000000000000235200000000235200200000001041040419052429001142DVH8ST0419210911001142   1030000100030000   541110001907777031200000019MOB BANK               YGN           MMR11004190524290011420419000000000000000   10300002 00104100000000000000000000000470     
100   9503051888279896000000000003580000000003580000200000001041040419050336000442KPNJBW0419210911000442   1030000100030000   541110001903777031200000019MOB BANK               YGN           MMR11004190503360004420419000000000000000   10300002 00104100000000000000000000007160     
100   9503051026027165000000000010915000000010915000200000001041040419061451001042C9GNIE0419210912001042   1030000100030000   541110001905777031200000019MOB BANK               YGN           MMR11004190614510010420419000000000000000   10300002 00104100000000000000000000021830     
100   35710500305700870000000000015500000000015500002000000010410404190618010006325150550419210912000632   1030000100030000   541110001920777031200000019MOB BANK               YGN           MMR11004190618010006320419000000000000000   10300005 00104100000000000000000000003100     
100   95030510248258670000000000266150000000266150002000000010410404190629520010503NRREB0419210912001050   1030000100030000   541110001905777031200000019MOB BANK               YGN           MMR11004190629520010500419000000000000000   10300002 00104100000000000000000000053230     
100   9503051024815116000000000000590000000000590000200000001041040419040153000176MNITI20419210910000176   1030000100030000   541120003001777031200000030MOB BANK               YGN           MMR11004190401530001760419000000000000000   10300002 00104100000000000000000000001180     
100   62622000605197540000000000004200000000004200002000000010410404190946310001813845350419210916000181   1030000100030000   541120003001777031200000030MOB BANK               YGN           MMR11004190946310001810419000000000000000   10300006 00104100000000000000000000000840     
100   9503051883866770000000000003900000000003900000200000001041040420052332000693NENGFF0420211011000693   1030000100030000   541120003117777031200000031MOB BANK               YGN           MMR11004200523320006930420000000000000000   10300002 00104100000000000000000000007800     
100   62622000305015100000000000189880000000189880002000000010410404200314050011503846340420211009001150   1030000100030000   541110001907777031200000019MOB BANK               YGN           MMR11004200314050011500420000000000000000   10300006 00104100000000000000000000037976     
100   9503051022844639000000000000440000000000440000200000001041040420104321000039VOG6TE0420211017000039   1030000100030000   541120003005777031200000030MOB BANK               YGN           MMR11004201043210000390420000000000000000   10300002 00104100000000000000000000000880     
100   9503051025923653000000000001300000000001300000200000001041040420082619000278HGDKHV0420211014000278   1030000100030000   541120003105777031200000031MOB BANK               YGN           MMR11004200826190002780420000000000000000   10300002 00104100000000000000000000002600     
100   62622000654383230000000000004410000000004410002000000010410404200949330002184402720420211016000218   1030000100030000   541120003104777031200000031MOB BANK               YGN           MMR11004200949330002180420000000000000000   10300006 00104100000000000000000000000882     
100   35710830433245560000000000021800000000021800002000000010410404201257490004565947110420211019000456   1030000100030000   541110001903777031200000019MOB BANK               YGN           MMR11004201257490004560420000000000000000   10300003 00104100000000000000000000004360     
100   35710830500230180000000000075200000000075200002000000010410404200623230010833580500420211012001083   1030000100030000   541110001905777031200000019MOB BANK               YGN           MMR11004200623230010830420000000000000000   10300003 00104100000000000000000000015040     
100   62343302006292240000000000040000000000040000002000000010410404201150440000482939860420211018000048   1030000100030000   541120003002777031200000030MOB BANK               YGN           MMR11004201150440000480420000000000000000   10300004 00104100000000000000000000008000     
100   35710500324076500000000000038500000000038500002000000010410404200640000006174076640420211013000617   1030000100030000   581210001501777031200000015MOB BANK               YGN           MMR11004200640000006170420000000000000000   10300005 00104100000000000000000000013090     
100   35710500133596720000000000094100000000094100002000000010410404201300170004917744620420211019000491   1030000100030000   581210001201777031200000012MOB BANK               YGN           MMR11004201300170004910420000000000000000   10300005 00104100000000000000000000031994     
100   9503051020393266000000000002604900000002604900200000001041040420104903001180IDAH1I0420211017001180   1030000100030000   541110001907777031200000019MOB BANK               YGN           MMR11004201049030011800420000000000000000   10300002 00104100000000000000000000005210     
100   9503051025091964000000000008388000000008388000200000001041040420082100001168N2EYVX0420211014001168   1030000100030000   541110001907777031200000019MOB BANK               YGN           MMR11004200821000011680420000000000000000   10300002 00104100000000000000000000016776     
100   9503051883866770000000000001500000000001500000200000001041040420054332000272V5LMGT0420211012000272   1030000100030000   541120003102777031200000031MOB BANK               YGN           MMR11004200543320002720420000000000000000   10300002 00104100000000000000000000003000     
100   950305400058634700000000000035000000000035000020000000104104042006103700055467OZ7U0420211012000554   1030000100030000   541120003106777031200000031MOB BANK               YGN           MMR11004200610370005540420000000000000000   10300002 00104100000000000000000000000700     
100   9503051886443114000000000002750000000002750000200000001041040420041737000682SIZIDN0420211010000682   1030000100030000   541120003117777031200000031MOB BANK               YGN           MMR11004200417370006820420000000000000000   10300002 00104100000000000000000000005500     
100   9503051883866770000000000001250000000001250000200000001041040420053300000696UPNF8C0420211012000696   1030000100030000   541120003117777031200000031MOB BANK               YGN           MMR11004200533000006960420000000000000000   10300002 00104100000000000000000000002500     
