100   9503051025511144000000000000785000000000785000200000001041040422060030000697KSVTDL0422211212000697   1030000100030000   541110001915777031200000019MOB BANK               YGN           MMR11004220600300006970422000000000000000   10300002 00104100000000000000000000001570     
100   950305188560502800000000000480000000000480000020000000104104042210150700008753CBNF0422211216000087   1030000100030000   541120003008777031200000030MOB BANK               YGN           MMR11004221015070000870422000000000000000   10300002 00104100000000000000000000009600     
100   95031900057663910000000000010500000000010500002000000010410404220832560011294UAE150422211215001129   1030000100030000   541110001905777031200000019MOB BANK               YGN           MMR11004220832560011290422000000000000000   10300014 00104100000000000000000000002100     
100   62346600143947590000000000005850000000005850002000000010410404210532240002794181510421211112000279   1030000100030000   541120003102777031200000031MOB BANK               YGN           MMR11004210532240002790421000000000000000   10300005 00104100000000000000000000001170     
100   95030510234721090000000000063000000000063000002000000010410404211025560002824HBLCX0421211116000282   1030000100030000   541120003102777031200000031MOB BANK               YGN           MMR11004211025560002820421000000000000000   10300002 00104100000000000000000000012600     
100   35710950095494890000000000241200000000241200002000000010410404221019490012332279110422211216001233   1030000100030000   541110001907777031200000019MOB BANK               YGN           MMR11004221019490012330422000000000000000   10300003 00104100000000000000000000048240     
100   62622000877862120000000000031000000000031000002000000010410404220959350007125273910422211216000712   1030000100030000   541110001915777031200000019MOB BANK               YGN           MMR11004220959350007120422000000000000000   10300006 00104100000000000000000000006200     
100   35710500343353700000000000011952000000011952002000000010410404221004210007130765780422211216000713   1030000100030000   541110001915777031200000019MOB BANK               YGN           MMR11004221004210007130422000000000000000   10300005 00104100000000000000000000002390     
100   95031010430467200000000000072500000000072500002000000010410404221036250007159021430422211217000715   1030000100030000   541110001915777031200000019MOB BANK               YGN           MMR11004221036250007150422000000000000000   10300005 00104100000000000000000000014500     
100   95031100019525480000000000016121000000016121002000000010410404220913330000685505860422211215000068   1030000100030000   541120003005777031200000030MOB BANK               YGN           MMR11004220913330000680422000000000000000   10300006 00104100000000000000000000003224     
100   35710500132014940000000000020000000000020000002000000010410404221141250000924394980422211218000092   1030000100030000   541120003008777031200000030MOB BANK               YGN           MMR11004221141250000920422000000000000000   10300005 00104100000000000000000000004000     
100   95031100019525480000000000010486000000010486002000000010410404220903020000745395010422211215000074   1030000100030000   541120003013777031200000030MOB BANK               YGN           MMR11004220903020000740422000000000000000   10300006 00104100000000000000000000002097     
100   62622000226252440000000000003528000000003528002000000010410404221152430000805405310422211218000080   1030000100030000   541120003003777031200000030MOB BANK               YGN           MMR11004221152430000800422000000000000000   10300006 00104100000000000000000000000706     
100   9503051874283522000000000001280000000001280000200000001041040422082023000488KBMKYW0422211214000488   1030000100030000   541110001903777031200000019MOB BANK               YGN           MMR11004220820230004880422000000000000000   10300002 00104100000000000000000000002560     
100   35710500313344260000000000086000000000086000002000000010410404220451250012164763490422211211001216   1030000100030000   541110001907777031200000019MOB BANK               YGN           MMR11004220451250012160422000000000000000   10300005 00104100000000000000000000017200     
100   35710500374631530000000000016000000000016000002000000010410404220637290007004922470422211213000700   1030000100030000   541110001915777031200000019MOB BANK               YGN           MMR11004220637290007000422000000000000000   10300005 00104100000000000000000000003200     
100   35710500191111430000000000019800000000019800002000000010410404221017160000780842570422211216000078   1030000100030000   541120003003777031200000030MOB BANK               YGN           MMR11004221017160000780422000000000000000   10300005 00104100000000000000000000003960     
100   95051816260975380000000000005200000000005200002000000010410404220937220001944563250422211216000194   1030000100030000   541120003001777031200000030MOB BANK               YGN           MMR11004220937220001940422000000000000000   10300013 00104100000000000000000000001820     
100   9503051025288552000000000003990000000003990000200000001041040422085432000489IRYSPD0422211215000489   1030000100030000   541110001903777031200000019MOB BANK               YGN           MMR11004220854320004890422000000000000000   10300002 00104100000000000000000000007980     
100   35710830805668870000000000026000000000026000002000000010410404220505130012180391410422211211001218   1030000100030000   541110001907777031200000019MOB BANK               YGN           MMR11004220505130012180422000000000000000   10300003 00104100000000000000000000005200     
100   95031100015638990000000000029150000000029150002000000010410404220623500006415293250422211212000641   1030000100030000   581210001501777031200000015MOB BANK               YGN           MMR11004220623500006410422000000000000000   10300006 00104100000000000000000000009911     
100   95010121410772970000000000018300000000018300002000000010410404220549200002231621200422211212000223   1030000100030000   541120003104777031200000031MOB BANK               YGN           MMR11004220549200002230422000000000000000   10100001 00104100000000000000000000003660     
100   9503051024428506000000000004490000000004490000200000001041040422080647001120SQCXW90422211214001120   1030000100030000   541110001905777031200000019MOB BANK               YGN           MMR11004220806470011200422000000000000000   10300002 00104100000000000000000000008980     
100   62622000969867200000000000012201000000012201002000000010410404220820560011255394740422211214001125   1030000100030000   541110001905777031200000019MOB BANK               YGN           MMR11004220820560011250422000000000000000   10300006 00104100000000000000000000002440     
100   9503051024289551000000000002150000000002150000200000001041040422100325001134VEFURV0422211216001134   1030000100030000   541110001905777031200000019MOB BANK               YGN           MMR11004221003250011340422000000000000000   10300002 00104100000000000000000000004300     
100   9503051888743537000000000002860000000002860000200000001041040422062607000644VKQCGW0422211212000644   1030000100030000   581210001501777031200000015MOB BANK               YGN           MMR11004220626070006440422000000000000000   10300002 00104100000000000000000000009724     
100   35710830868441300000000000058000000000058000002000000010410404221147560007172807720422211218000717   1030000100030000   541110001915777031200000019MOB BANK               YGN           MMR11004221147560007170422000000000000000   10300003 00104100000000000000000000011600     
100   35710830543175230000000000002950000000002950002000000010410404220745090007011351010422211214000701   1030000100030000   541110001915777031200000019MOB BANK               YGN           MMR11004220745090007010422000000000000000   10300003 00104100000000000000000000000590     
100   9503051025493491000000000001550000000001550000200000001041040422075936000702QYEGFO0422211214000702   1030000100030000   541110001915777031200000019MOB BANK               YGN           MMR11004220759360007020422000000000000000   10300002 00104100000000000000000000003100     
100   35710830022450570000000000044800000000044800002000000010410404221009150004912215610422211216000491   1030000100030000   541110001903777031200000019MOB BANK               YGN           MMR11004221009150004910422000000000000000   10300003 00104100000000000000000000008960     
100   62346600100687380000000000028620000000028620002000000010410404221102320002254839970422211217000225   1030000100030000   541120003104777031200000031MOB BANK               YGN           MMR11004221102320002250422000000000000000   10300005 00104100000000000000000000005724     
100   9503051025511144000000000010788000000010788000200000001041040422050629001220JWCSD90422211211001220   1030000100030000   541110001907777031200000019MOB BANK               YGN           MMR11004220506290012200422000000000000000   10300002 00104100000000000000000000021576     
100   35710500100420160000000000061600000000061600002000000010410404220652230006457332750422211213000645   1030000100030000   581210001501777031200000015MOB BANK               YGN           MMR11004220652230006450422000000000000000   10300005 00104100000000000000000000020944     
100   35710500375685140000000000029700000000029700002000000010410404221258550006471383310422211219000647   1030000100030000   581210001501777031200000015MOB BANK               YGN           MMR11004221258550006470422000000000000000   10300005 00104100000000000000000000010098     
100   35710500323138330000000000018100000000018100002000000010410404220748430000650047760422211214000065   1030000100030000   541120003005777031200000030MOB BANK               YGN           MMR11004220748430000650422000000000000000   10300005 00104100000000000000000000003620     
100   35710500383331320000000000002548000000002548002000000010410404221231090011386459160422211219001138   1030000100030000   541110001905777031200000019MOB BANK               YGN           MMR11004221231090011380422000000000000000   10300005 00104100000000000000000000000510     
100   62441900001309080000000000106600000000106600002000000010410404221017190004931814390422211216000493   1030000100030000   541110001903777031200000019MOB BANK               YGN           MMR11004221017190004930422000000000000000   10300003 00104100000000000000000000037310     
100   35710500325446190000000000028800000000028800002000000010410404221024130004952871090422211216000495   1030000100030000   541110001903777031200000019MOB BANK               YGN           MMR11004221024130004950422000000000000000   10300005 00104100000000000000000000005760     
100   9503051026273595000000000000800000000000800000200000001041040422063107001223CFWETZ0422211213001223   1030000100030000   541110001907777031200000019MOB BANK               YGN           MMR11004220631070012230422000000000000000   10300002 00104100000000000000000000001600     
100   35710500101079260000000000014016000000014016002000000010410404220830030007053478200422211215000705   1030000100030000   541110001915777031200000019MOB BANK               YGN           MMR11004220830030007050422000000000000000   10300005 00104100000000000000000000002803     
100   35710500315874290000000000108800000000108800002000000010410404220852520007071853290422211215000707   1030000100030000   541110001915777031200000019MOB BANK               YGN           MMR11004220852520007070422000000000000000   10300005 00104100000000000000000000021760     
100   62346600184453260000000000016250000000016250002000000010410404221206540002288218600422211218000228   1030000100030000   541120003104777031200000031MOB BANK               YGN           MMR11004221206540002280422000000000000000   10300005 00104100000000000000000000003250     
100   9503051884896073000000000003500000000003500000200000001041040422033716000480F9UHPH0422211210000480   1030000100030000   541110001903777031200000019MOB BANK               YGN           MMR11004220337160004800422000000000000000   10300002 00104100000000000000000000007000     
100   35710830034080920000000000018950000000018950002000000010410404220728040012251248510422211213001225   1030000100030000   541110001907777031200000019MOB BANK               YGN           MMR11004220728040012250422000000000000000   10300003 00104100000000000000000000003790     
100   35710500313344260000000000016500000000016500002000000010410404220444380006546465410422211211000654   1030000100030000   541110001920777031200000019MOB BANK               YGN           MMR11004220444380006540422000000000000000   10300005 00104100000000000000000000003300     
100   35710830803658840000000000007500000000007500002000000010410404220606070006560756810422211212000656   1030000100030000   541110001920777031200000019MOB BANK               YGN           MMR11004220606070006560422000000000000000   10300003 00104100000000000000000000001500     
100   9503051025637113000000000001080000000001080000200000001041040422113013000660V7VQ9M0422211218000660   1030000100030000   541110001920777031200000019MOB BANK               YGN           MMR11004221130130006600422000000000000000   10300002 00104100000000000000000000002160     
100   9503051885536397000000000002940000000002940000200000001041040422035151000762PNPLSI0422211210000762   1030000100030000   541120003117777031200000031MOB BANK               YGN           MMR11004220351510007620422000000000000000   10300002 00104100000000000000000000005880     
100   9503051882897263000000000001650000000001650000200000001041040422094611001285LLLR8J0422211216001285   1030000100030000   581250000001777031200000005MOB BANK               YGN           MMR11004220946110012850422000000000000000   10300002 00104100000000000000000000005610     
100   35710500312711800000000000011950000000011950002000000010410404220933560000771034860422211216000077   1030000100030000   541120003003777031200000030MOB BANK               YGN           MMR11004220933560000770422000000000000000   10300005 00104100000000000000000000002390     
100   9503051025511144000000000004300000000004300000200000001041040422052410000482CW5ZHB0422211211000482   1030000100030000   541110001903777031200000019MOB BANK               YGN           MMR11004220524100004820422000000000000000   10300002 00104100000000000000000000008600     
100   9503051022844639000000000001040000000001040000200000001041040422073044000064HD4RV10422211214000064   1030000100030000   541120003005777031200000030MOB BANK               YGN           MMR11004220730440000640422000000000000000   10300002 00104100000000000000000000002080     
100   9503051892271830000000000000420000000000420000200000001041040422085955000073PLVPM90422211215000073   1030000100030000   541120003013777031200000030MOB BANK               YGN           MMR11004220859550000730422000000000000000   10300002 00104100000000000000000000000840     
100   62622000226252440000000000005096000000005096002000000010410404221211310000825274370422211218000082   1030000100030000   541120003003777031200000030MOB BANK               YGN           MMR11004221211310000820422000000000000000   10300006 00104100000000000000000000001019     
100   95030518907349870000000000084000000000084000002000000010410404220920050007097SE09Q0422211215000709   1030000100030000   541110001915777031200000019MOB BANK               YGN           MMR11004220920050007090422000000000000000   10300002 00104100000000000000000000016800     
100   35710500323861020000000000020800000000020800002000000010410404220413130006944694540422211210000694   1030000100030000   541110001915777031200000019MOB BANK               YGN           MMR11004220413130006940422000000000000000   10300005 00104100000000000000000000004160     
100   35710500144766570000000000041700000000041700002000000010410404220838480000710379070422211215000071   1030000100030000   541120003013777031200000030MOB BANK               YGN           MMR11004220838480000710422000000000000000   10300005 00104100000000000000000000008340     
100   35710830692778110000000000024000000000024000002000000010410404220654260000721046800422211213000072   1030000100030000   541120003012777031200000030MOB BANK               YGN           MMR11004220654260000720422000000000000000   10300003 00104100000000000000000000004800     
100   9503051892271830000000000001380000000001380000200000001041040422085226000072BYGY1H0422211215000072   1030000100030000   541120003013777031200000030MOB BANK               YGN           MMR11004220852260000720422000000000000000   10300002 00104100000000000000000000002760     
100   35710830805668870000000000009540000000009540002000000010410404220544470004840628910422211212000484   1030000100030000   541110001903777031200000019MOB BANK               YGN           MMR11004220544470004840422000000000000000   10300003 00104100000000000000000000001908     
100   35710500320108430000000000010000000000010000002000000010410404220627160005902312070422211212000590   1030000100030000   541120003106777031200000031MOB BANK               YGN           MMR11004220627160005900422000000000000000   10300005 00104100000000000000000000002000     
100   95030510254934910000000000037000000000037000002000000010410404220742150012276QXHLG0422211214001227   1030000100030000   541110001907777031200000019MOB BANK               YGN           MMR11004220742150012270422000000000000000   10300002 00104100000000000000000000007400     
100   35710500112448840000000000009100000000009100002000000010410404220457590007648600890422211211000764   1030000100030000   541120003117777031200000031MOB BANK               YGN           MMR11004220457590007640422000000000000000   10300005 00104100000000000000000000001820     
100   9503051891978690000000000000945000000000945000200000001041040422075302000066AGPH450422211214000066   1030000100030000   541120003005777031200000030MOB BANK               YGN           MMR11004220753020000660422000000000000000   10300002 00104100000000000000000000001890     
100   9503051021682527000000000001250000000001250000200000001041040422111138000089VVI8TJ0422211217000089   1030000100030000   541120003008777031200000030MOB BANK               YGN           MMR11004221111380000890422000000000000000   10300002 00104100000000000000000000002500     
100   35710500102216440000000000041500000000041500002000000010410404220458030000781905860422211211000078   1030000100030000   541120003008777031200000030MOB BANK               YGN           MMR11004220458030000780422000000000000000   10300005 00104100000000000000000000008300     
100   95030518725393130000000000043800000000043800002000000010410404220606170004858EURFU0422211212000485   1030000100030000   541110001903777031200000019MOB BANK               YGN           MMR11004220606170004850422000000000000000   10300002 00104100000000000000000000008760     
100   35710500373447910000000000022200000000022200002000000010410404220434390000766885180422211211000076   1030000100030000   541120003008777031200000030MOB BANK               YGN           MMR11004220434390000760422000000000000000   10300005 00104100000000000000000000004440     
100   9503051885605028000000000001020000000001020000200000001041040422095830000085XTKUKN0422211216000085   1030000100030000   541120003008777031200000030MOB BANK               YGN           MMR11004220958300000850422000000000000000   10300002 00104100000000000000000000002040     
100   35710500335372810000000000043316000000043316002000000010410404220756500012293535710422211214001229   1030000100030000   541110001907777031200000019MOB BANK               YGN           MMR11004220756500012290422000000000000000   10300005 00104100000000000000000000008663     
100   35650970390000440000000000074500000000074500002000000010410404220948100007117438720422211216000711   1030000100030000   541110001915777031200000019MOB BANK               YGN           MMR11004220948100007110422000000000000000   10300005 00104100000000000000000000026075     
100   35710500323861020000000000009000000000009000002000000010410404220420020006958125970422211210000695   1030000100030000   541110001915777031200000019MOB BANK               YGN           MMR11004220420020006950422000000000000000   10300005 00104100000000000000000000001800     
100   35710500144766570000000000025900000000025900002000000010410404220810570000831067920422211214000083   1030000100030000   541120003008777031200000030MOB BANK               YGN           MMR11004220810570000830422000000000000000   10300005 00104100000000000000000000005180     
100   62346600170128040000000000031300000000031300002000000010410404220632210004865142110422211213000486   1030000100030000   541110001903777031200000019MOB BANK               YGN           MMR11004220632210004860422000000000000000   10300005 00104100000000000000000000006260     
100   9503051886662275000000000046320000000046320000200000001041040422093344001231BOUV3C0422211216001231   1030000100030000   541110001907777031200000019MOB BANK               YGN           MMR11004220933440012310422000000000000000   10300002 00104100000000000000000000092640     
