100   35710830847675150000000000020800000000020800002000000010410404210759380004702797910421211114000470   1030000100030000   541110001903777031200000019MOB BANK               YGN           MMR11004210759380004700421000000000000000   10300003 00104100000000000000000000004160     
100   35710500193233750000000000024100000000024100002000000010410404211217000011151653700421211118001115   1030000100030000   541110001905777031200000019MOB BANK               YGN           MMR11004211217000011150421000000000000000   10300005 00104100000000000000000000004820     
100   62622000986639130000000000020000000000020000002000000010410404211028300011054405190421211116001105   1030000100030000   541110001905777031200000019MOB BANK               YGN           MMR11004211028300011050421000000000000000   10300006 00104100000000000000000000004000     
100   9503051896717309000000000004710000000004710000200000001041040421072842000188LDUYX10421211113000188   1030000100030000   541120003111777031200000031MOB BANK               YGN           MMR11004210728420001880421000000000000000   10300002 00104100000000000000000000009420     
100   35710830086544270000000000045100000000045100002000000010410404210914090001903245110421211115000190   1030000100030000   541120003111777031200000031MOB BANK               YGN           MMR11004210914090001900421000000000000000   10300003 00104100000000000000000000009020     
100   9503051025263357000000000002400000000002400000200000001041040421093426001198ID9JKX0421211116001198   1030000100030000   541110001907777031200000019MOB BANK               YGN           MMR11004210934260011980421000000000000000   10300002 00104100000000000000000000004800     
100   62346600140653260000000000003600000000003600002000000010410404210550510000711400910421211112000071   1030000100030000   541120003003777031200000030MOB BANK               YGN           MMR11004210550510000710421000000000000000   10300005 00104100000000000000000000000720     
100   95030518724398370000000000016800000000016800002000000010410404210637180000550OMMTD0421211113000055   1030000100030000   541120003005777031200000030MOB BANK               YGN           MMR11004210637180000550421000000000000000   10300002 00104100000000000000000000003360     
100   9503051024819704000000000003250000000003250000200000001041040421072346000133BVNSVB0421211113000133   1030000100030000   541120003110777031200000031MOB BANK               YGN           MMR11004210723460001330421000000000000000   10300002 00104100000000000000000000006500     
100   35710830599424730000000000020800000000020800002000000010410404210437470004611586900421211111000461   1030000100030000   541110001903777031200000019MOB BANK               YGN           MMR11004210437470004610421000000000000000   10300003 00104100000000000000000000004160     
100   35710830917214220000000000059800000000059800002000000010410404211023290007523661110421211116000752   1030000100030000   541120003117777031200000031MOB BANK               YGN           MMR11004211023290007520421000000000000000   10300003 00104100000000000000000000011960     
100   9503051891343788000000000001407600000001407600200000001041040421105034000755VT9H9M0421211117000755   1030000100030000   541120003117777031200000031MOB BANK               YGN           MMR11004211050340007550421000000000000000   10300002 00104100000000000000000000002815     
100   9503051873495697000000000002400000000002400000200000001041040421095916000068FDHZE10421211116000068   1030000100030000   541120003012777031200000030MOB BANK               YGN           MMR11004210959160000680421000000000000000   10300002 00104100000000000000000000004800     
100   9503051882923796000000000002450000000002450000200000001041040421044923000463Q2VUXL0421211111000463   1030000100030000   541110001903777031200000019MOB BANK               YGN           MMR11004210449230004630421000000000000000   10300002 00104100000000000000000000004900     
100   9503051023467539000000000000910000000000910000200000001041040421062016000728AG21FB0421211112000728   1030000100030000   541120003117777031200000031MOB BANK               YGN           MMR11004210620160007280421000000000000000   10300002 00104100000000000000000000001820     
100   9503051888098932000000000003750000000003750000200000001041040421055654000564VPHYPS0421211112000564   1030000100030000   541120003106777031200000031MOB BANK               YGN           MMR11004210556540005640421000000000000000   10300002 00104100000000000000000000007500     
100   35710500138655870000000000088710000000088710002000000010410404211027020014891348880421211116001489   1030000100030000   541160000001777031200000006MOB BANK               YGN           MMR11004211027020014890421000000000000000   10300005 00104100000000000000000000017742     
100   35710830894189320000000000049490000000049490002000000010410404211119250012103996610421211117001210   1030000100030000   541110001907777031200000019MOB BANK               YGN           MMR11004211119250012100421000000000000000   10300003 00104100000000000000000000009898     
100   35710500312711800000000000028576000000028576002000000010410404211020340000708249760421211116000070   1030000100030000   541120003008777031200000030MOB BANK               YGN           MMR11004211020340000700421000000000000000   10300005 00104100000000000000000000005715     
100   9503051022632927000000000001850000000001850000200000001041040421122604000198IAO7C70421211118000198   1030000100030000   541120003111777031200000031MOB BANK               YGN           MMR11004211226040001980421000000000000000   10300002 00104100000000000000000000003700     
100   9503051890652056000000000000605000000000605000200000001041040421083622001281XWDNDN0421211115001281   1030000100030000   581250000001777031200000005MOB BANK               YGN           MMR11004210836220012810421000000000000000   10300002 00104100000000000000000000002057     
100   35710830628668260000000000021900000000021900002000000010410404210457570000701707810421211111000070   1030000100030000   541120003006777031200000030MOB BANK               YGN           MMR11004210457570000700421000000000000000   10300003 00104100000000000000000000004380     
100   9503051893363743000000000000420000000000420000200000001041040421064417000056T7UGHB0421211113000056   1030000100030000   541120003005777031200000030MOB BANK               YGN           MMR11004210644170000560421000000000000000   10300002 00104100000000000000000000000840     
100   9503051873495697000000000002208000000002208000200000001041040421102713000072M4ZGTM0421211116000072   1030000100030000   541120003008777031200000030MOB BANK               YGN           MMR11004211027130000720421000000000000000   10300002 00104100000000000000000000004416     
100   9503051891378321000000000002850000000002850000200000001041040421062343000465B7FDWY0421211112000465   1030000100030000   541110001903777031200000019MOB BANK               YGN           MMR11004210623430004650421000000000000000   10300002 00104100000000000000000000005700     
100   95030510199747380000000000034900000000034900002000000010410404210720540004679EWFOP0421211113000467   1030000100030000   541110001903777031200000019MOB BANK               YGN           MMR11004210720540004670421000000000000000   10300002 00104100000000000000000000006980     
100   35710500143050470000000000004606000000004606002000000010410404210800030007305498100421211114000730   1030000100030000   541120003117777031200000031MOB BANK               YGN           MMR11004210800030007300421000000000000000   10300005 00104100000000000000000000000921     
100   35710500355609010000000000051500000000051500002000000010410404210712410005689744840421211113000568   1030000100030000   541120003106777031200000031MOB BANK               YGN           MMR11004210712410005680421000000000000000   10300005 00104100000000000000000000010300     
100   35710500361005660000000000010500000000010500002000000010410404210909310000524167490421211115000052   1030000100030000   541120003002777031200000030MOB BANK               YGN           MMR11004210909310000520421000000000000000   10300005 00104100000000000000000000002100     
100   9503051873495697000000000000900000000000900000200000001041040421100403000066TIBFIS0421211116000066   1030000100030000   541120003013777031200000030MOB BANK               YGN           MMR11004211004030000660421000000000000000   10300002 00104100000000000000000000001800     
100   95051816260975380000000000005050000000005050002000000010410404210745290000585946660421211114000058   1030000100030000   541120003005777031200000030MOB BANK               YGN           MMR11004210745290000580421000000000000000   10300013 00104100000000000000000000001767     
100   35710830407771780000000000013800000000013800002000000010410404211026530001923681430421211116000192   1030000100030000   541120003111777031200000031MOB BANK               YGN           MMR11004211026530001920421000000000000000   10300003 00104100000000000000000000002760     
100   35710830557008590000000000022800000000022800002000000010410404210449100007201655200421211111000720   1030000100030000   541120003117777031200000031MOB BANK               YGN           MMR11004210449100007200421000000000000000   10300003 00104100000000000000000000004560     
100   95030510256045920000000000007150000000007150002000000010410404211202360012822SABCY0421211118001282   1030000100030000   581250000001777031200000005MOB BANK               YGN           MMR11004211202360012820421000000000000000   10300002 00104100000000000000000000002431     
100   35710500312711800000000000006419000000006419002000000010410404210954360000608731040421211116000060   1030000100030000   541120003005777031200000030MOB BANK               YGN           MMR11004210954360000600421000000000000000   10300005 00104100000000000000000000001284     
100   35710830577940740000000000029000000000029000002000000010410404210818590000732914110421211114000073   1030000100030000   541120003006777031200000030MOB BANK               YGN           MMR11004210818590000730421000000000000000   10300003 00104100000000000000000000005800     
100   35710500364297420000000000023800000000023800002000000010410404210915580004728644310421211115000472   1030000100030000   541110001903777031200000019MOB BANK               YGN           MMR11004210915580004720421000000000000000   10300005 00104100000000000000000000004760     
100   9503051025263357000000000001100000000001100000200000001041040421101352001101ON5RAL0421211116001101   1030000100030000   541110001905777031200000019MOB BANK               YGN           MMR11004211013520011010421000000000000000   10300002 00104100000000000000000000002200     
100   9503051025942935000000000001430000000001430000200000001041040421093840001200ZSNRW90421211116001200   1030000100030000   541110001907777031200000019MOB BANK               YGN           MMR11004210938400012000421000000000000000   10300002 00104100000000000000000000002860     
100   35710830631643950000000000022700000000022700002000000010410404210440040000511600600421211111000051   1030000100030000   541120003005777031200000030MOB BANK               YGN           MMR11004210440040000510421000000000000000   10300003 00104100000000000000000000004540     
100   35710500315299830000000000018150000000018150002000000010410404210452210000522896000421211111000052   1030000100030000   541120003005777031200000030MOB BANK               YGN           MMR11004210452210000520421000000000000000   10300005 00104100000000000000000000003630     
100   35710500314052830000000000021000000000021000002000000010410404211132300001950662490421211118000195   1030000100030000   541120003111777031200000031MOB BANK               YGN           MMR11004211132300001950421000000000000000   10300005 00104100000000000000000000004200     
100   35710830198765550000000000083700000000083700002000000010410404210452580007241678010421211111000724   1030000100030000   541120003117777031200000031MOB BANK               YGN           MMR11004210452580007240421000000000000000   10300003 00104100000000000000000000016740     
100   35710830198765550000000000008000000000008000002000000010410404210457210007261704310421211111000726   1030000100030000   541120003117777031200000031MOB BANK               YGN           MMR11004210457210007260421000000000000000   10300003 00104100000000000000000000001600     
100   35710830631643950000000000017500000000017500002000000010410404210414220000501446310421211110000050   1030000100030000   541120003002777031200000030MOB BANK               YGN           MMR11004210414220000500421000000000000000   10300003 00104100000000000000000000003500     
100   9503051024300713000000000001053000000001053000200000001041040421102718000067YWLQEU0421211116000067   1030000100030000   541120003013777031200000030MOB BANK               YGN           MMR11004211027180000670421000000000000000   10300002 00104100000000000000000000002106     
100   95031500100351330000000000023040000000023040002000000010410404210749310005792222220421211114000579   1030000100030000   541120003106777031200000031MOB BANK               YGN           MMR11004210749310005790421000000000000000   10300012 00104100000000000000000000004608     
100   35710500333751200000000000022100000000022100002000000010410404211221050006512674860421211118000651   1030000100030000   541110001920777031200000019MOB BANK               YGN           MMR11004211221050006510421000000000000000   10300005 00104100000000000000000000004420     
100   9503051023328251000000000000535000000000535000200000001041040421071151000057MO860T0421211113000057   1030000100030000   541120003005777031200000030MOB BANK               YGN           MMR11004210711510000570421000000000000000   10300002 00104100000000000000000000001070     
100   9503051021796921000000000004360000000004360000200000001041040421101142000474EHGAVK0421211116000474   1030000100030000   541110001903777031200000019MOB BANK               YGN           MMR11004211011420004740421000000000000000   10300002 00104100000000000000000000008720     
100   95030510223856410000000000263500000000263500002000000010410404211302550004947QG4C60421211119000494   1030000100030000   581210001201777031200000012MOB BANK               YGN           MMR11004211302550004940421000000000000000   10300002 00104100000000000000000000089590     
100   9503051891986008000000000037840000000037840000200000001041040421141504000495MBBFMH0421211120000495   1030000100030000   581210001201777031200000012MOB BANK               YGN           MMR11004211415040004950421000000000000000   10300002 00104100000000000000000000128656     
100   9503051023238070000000000001170000000001170000200000001041040421114311000758V6B7ZT0421211118000758   1030000100030000   541120003117777031200000031MOB BANK               YGN           MMR11004211143110007580421000000000000000   10300002 00104100000000000000000000002340     
100   35710500323805680000000000082600000000082600002000000010410404210830160007383791460421211115000738   1030000100030000   541120003117777031200000031MOB BANK               YGN           MMR11004210830160007380421000000000000000   10300005 00104100000000000000000000016520     
100   9503051025923653000000000005665000000005665000200000001041040421084608000740ZERAG00421211115000740   1030000100030000   541120003117777031200000031MOB BANK               YGN           MMR11004210846080007400421000000000000000   10300002 00104100000000000000000000011330     
100   35710830086544270000000000078900000000078900002000000010410404210943510007433423300421211116000743   1030000100030000   541120003117777031200000031MOB BANK               YGN           MMR11004210943510007430421000000000000000   10300003 00104100000000000000000000015780     
100   9503051890401066000000000000070000000000070000200000001041040421105519001206EW6MKY0421211117001206   1030000100030000   541110001907777031200000019MOB BANK               YGN           MMR11004211055190012060421000000000000000   10300002 00104100000000000000000000000140     
100   9503051893363743000000000001440000000001440000200000001041040421062937000064P81KNT0421211112000064   1030000100030000   541120003013777031200000030MOB BANK               YGN           MMR11004210629370000640421000000000000000   10300002 00104100000000000000000000002880     
100   35710500144556690000000000008800000000008800002000000010410404210930500001358586790421211116000135   1030000100030000   541120003110777031200000031MOB BANK               YGN           MMR11004210930500001350421000000000000000   10300005 00104100000000000000000000001760     
100   95030518885577210000000000032800000000032800002000000010410404211109550004762AFGZS0421211117000476   1030000100030000   541110001903777031200000019MOB BANK               YGN           MMR11004211109550004760421000000000000000   10300002 00104100000000000000000000006560     
100   35710500151686340000000000044000000000044000002000000010410404210541270010962699220421211112001096   1030000100030000   541110001905777031200000019MOB BANK               YGN           MMR11004210541270010960421000000000000000   10300005 00104100000000000000000000008800     
100   95030510254115430000000000010850000000010850002000000010410404210430420000508PUWIG0421211111000050   1030000100030000   541120003005777031200000030MOB BANK               YGN           MMR11004210430420000500421000000000000000   10300002 00104100000000000000000000002170     
100   35710830086544270000000000020500000000020500002000000010410404210856420004383140410421211115000438   1030000100030000   541120003103777031200000031MOB BANK               YGN           MMR11004210856420004380421000000000000000   10300003 00104100000000000000000000004100     
100   35710500375685140000000000067100000000067100002000000010410404211146200006339591890421211118000633   1030000100030000   581210001501777031200000015MOB BANK               YGN           MMR11004211146200006330421000000000000000   10300005 00104100000000000000000000022814     
100   35710830057277880000000000020000000000020000002000000010410404210702110011892453210421211113001189   1030000100030000   541110001907777031200000019MOB BANK               YGN           MMR11004210702110011890421000000000000000   10300003 00104100000000000000000000004000     
100   35710830923249780000000000015000000000015000002000000010410404210722000011912572210421211113001191   1030000100030000   541110001907777031200000019MOB BANK               YGN           MMR11004210722000011910421000000000000000   10300003 00104100000000000000000000003000     
100   35710500161066740000000000011000000000011000002000000010410404210820040011942690920421211114001194   1030000100030000   541110001907777031200000019MOB BANK               YGN           MMR11004210820040011940421000000000000000   10300005 00104100000000000000000000002200     
100   62622000175218380000000000016500000000016500002000000010410404210048160000314374180421211107000031   1030000100030000   509410900008777030900000006MOB BANK               YGN           MMR11004210048160000310421000000000000000   10300006 00104100000000000000000000008250     
100   35710500183712760000000000002100000000002100002000000010410404210755240000596930950421211114000059   1030000100030000   541120003005777031200000030MOB BANK               YGN           MMR11004210755240000590421000000000000000   10300005 00104100000000000000000000000420     
100   35710830984654290000000000015500000000015500002000000010410404210952200007463474210421211116000746   1030000100030000   541120003117777031200000031MOB BANK               YGN           MMR11004210952200007460421000000000000000   10300003 00104100000000000000000000003100     
100   35710830763856310000000000047600000000047600002000000010410404211015430007493614510421211116000749   1030000100030000   541120003117777031200000031MOB BANK               YGN           MMR11004211015430007490421000000000000000   10300003 00104100000000000000000000009520     
100   35710830088694540000000000024000000000024000002000000010410404210835000011963010210421211115001196   1030000100030000   541110001907777031200000019MOB BANK               YGN           MMR11004210835000011960421000000000000000   10300003 00104100000000000000000000004800     
100   35710830628668260000000000054600000000054600002000000010410404210514580000671810010421211111000067   1030000100030000   541120003008777031200000030MOB BANK               YGN           MMR11004210514580000670421000000000000000   10300003 00104100000000000000000000010920     
100   95030518913783210000000000056900000000056900002000000010410404210429260004596VD8OM0421211110000459   1030000100030000   541110001903777031200000019MOB BANK               YGN           MMR11004210429260004590421000000000000000   10300002 00104100000000000000000000011380     
100   35710500195145510000000000037240000000037240002000000010410404210946370012026672640421211116001202   1030000100030000   541110001907777031200000019MOB BANK               YGN           MMR11004210946370012020421000000000000000   10300005 00104100000000000000000000007448     
100   35710500184647250000000000004200000000004200002000000010410404211055550011092002070421211117001109   1030000100030000   541110001905777031200000019MOB BANK               YGN           MMR11004211055550011090421000000000000000   10300005 00104100000000000000000000000840     
