100   35710830852285660000000000010200000000010200002000000010410404260641180001445527920426211613000144   1030000100030000   541120003008777031200000030MOB BANK               YGN           MMR11004260641180001440426000000000000000   10300003 00104100000000000000000000002040     
100   95030518903424350000000000002156000000002156002000000010410404260454490013735BKKAY0426211611001373   1030000100030000   541110001907777031200000019MOB BANK               YGN           MMR11004260454490013730426000000000000000   10300002 00104100000000000000000000000431     
100   35710830293059910000000000056000000000056000002000000010410404260648240013755570600426211613001375   1030000100030000   541110001907777031200000019MOB BANK               YGN           MMR11004260648240013750426000000000000000   10300003 00104100000000000000000000011200     
100   62346600185817650000000000198100000000198100002000000010410404260725040013782140140426211613001378   1030000100030000   541110001907777031200000019MOB BANK               YGN           MMR11004260725040013780426000000000000000   10300005 00104100000000000000000000039620     
100   35710500101304150000000000012700000000012700002000000010410404260757510013812422030426211614001381   1030000100030000   541110001907777031200000019MOB BANK               YGN           MMR11004260757510013810426000000000000000   10300005 00104100000000000000000000002540     
100   35710830333973980000000000022400000000022400002000000010410404260800530013836005410426211614001383   1030000100030000   541110001907777031200000019MOB BANK               YGN           MMR11004260800530013830426000000000000000   10300003 00104100000000000000000000004480     
100   35710500384823350000000000262400000000262400002000000010410404261003480013878304110426211616001387   1030000100030000   541110001907777031200000019MOB BANK               YGN           MMR11004261003480013870426000000000000000   10300005 00104100000000000000000000052480     
100   9503051025425295000000000004720000000004720000200000001041040426103500001390VLKXFS0426211617001390   1030000100030000   541110001907777031200000019MOB BANK               YGN           MMR11004261035000013900426000000000000000   10300002 00104100000000000000000000009440     
100   9503190006436259000000000002000000000002000000200000001041040426113807001394OE4K230426211618001394   1030000100030000   541110001907777031200000019MOB BANK               YGN           MMR11004261138070013940426000000000000000   10300014 00104100000000000000000000004000     
100   35710500101079260000000000063000000000063000002000000010410404260305530013696544610426211609001369   1030000100030000   541110001907777031200000019MOB BANK               YGN           MMR11004260305530013690426000000000000000   10300005 00104100000000000000000000012600     
100   35710500101079260000000000015386000000015386002000000010410404260309280013713687810426211609001371   1030000100030000   541110001907777031200000019MOB BANK               YGN           MMR11004260309280013710426000000000000000   10300005 00104100000000000000000000003077     
100   9503051885080289000000000003840000000003840000200000001041040426075142000108VY5OXM0426211614000108   1030000100030000   541120003112777031200000031MOB BANK               YGN           MMR11004260751420001080426000000000000000   10300002 00104100000000000000000000007680     
100   9503051023965284000000000002615000000002615000200000001041040426041837000108TLLPHM0426211610000108   1030000100030000   541120003005777031200000030MOB BANK               YGN           MMR11004260418370001080426000000000000000   10300002 00104100000000000000000000005230     
100   35710500353665980000000000011150000000011150002000000010410404261220000001127043820426211618000112   1030000100030000   541120003005777031200000030MOB BANK               YGN           MMR11004261220000001120426000000000000000   10300005 00104100000000000000000000002230     
100   9503051023925742000000000004960000000004960000200000001041040426030515000080LEYMBH0426211609000080   1030000100030000   541120003013777031200000030MOB BANK               YGN           MMR11004260305150000800426000000000000000   10300002 00104100000000000000000000009920     
100   95030510254112530000000000003185000000003185002000000010410404261124190001108SOYSO0426211617000110   1030000100030000   541120003005777031200000030MOB BANK               YGN           MMR11004261124190001100426000000000000000   10300002 00104100000000000000000000000637     
100   35710500343162300000000000044100000000044100002000000010410404260424000012405927900426211610001240   1030000100030000   541110001905777031200000019MOB BANK               YGN           MMR11004260424000012400426000000000000000   10300005 00104100000000000000000000008820     
100   95031100010945560000000000004950000000004950002000000010410404260503130001255945370426211611000125   1030000100030000   541120003003777031200000030MOB BANK               YGN           MMR11004260503130001250426000000000000000   10300006 00104100000000000000000000000990     
100   9503051873421545000000000005800000000005800000200000001041040426062220000579EQAKLX0426211612000579   1030000100030000   541110001903777031200000019MOB BANK               YGN           MMR11004260622200005790426000000000000000   10300002 00104100000000000000000000011600     
100   35710500160022870000000000015000000000015000002000000010410404261014490007193473120426211616000719   1030000100030000   541110001920777031200000019MOB BANK               YGN           MMR11004261014490007190426000000000000000   10300005 00104100000000000000000000003000     
100   9503051025699972000000000005700000000005700000200000001041040426041632000140WWOO8U0426211610000140   1030000100030000   541120003008777031200000030MOB BANK               YGN           MMR11004260416320001400426000000000000000   10300002 00104100000000000000000000011400     
100   35710500353681640000000000022000000000022000002000000010410404260439550013095083680426211611001309   1030000100030000   581250000001777031200000005MOB BANK               YGN           MMR11004260439550013090426000000000000000   10300005 00104100000000000000000000007480     
100   35710500333868870000000000018700000000018700002000000010410404260619590013109999030426211612001310   1030000100030000   581250000001777031200000005MOB BANK               YGN           MMR11004260619590013100426000000000000000   10300005 00104100000000000000000000006358     
100   35710500304503970000000000010560000000010560002000000010410404260716370005808736320426211613000580   1030000100030000   541110001903777031200000019MOB BANK               YGN           MMR11004260716370005800426000000000000000   10300005 00104100000000000000000000002112     
100   35710830784197840000000000011700000000011700002000000010410404261121510001307211300426211617000130   1030000100030000   541120003003777031200000030MOB BANK               YGN           MMR11004261121510001300426000000000000000   10300003 00104100000000000000000000002340     
100   35710830996583370000000000029700000000029700002000000010410404260924580005086510000426211615000508   1030000100030000   581210001201777031200000012MOB BANK               YGN           MMR11004260924580005080426000000000000000   10300003 00104100000000000000000000010098     
100   62346600167941470000000000063200000000063200002000000010410404261109100012467839560426211617001246   1030000100030000   541110001905777031200000019MOB BANK               YGN           MMR11004261109100012460426000000000000000   10300005 00104100000000000000000000012640     
100   35710500161127140000000000002500000000002500002000000010410404260802280006752542770426211614000675   1030000100030000   581210001501777031200000015MOB BANK               YGN           MMR11004260802280006750426000000000000000   10300005 00104100000000000000000000000850     
100   35710830052176650000000000014300000000014300002000000010410404261012220013116794320426211616001311   1030000100030000   581250000001777031200000005MOB BANK               YGN           MMR11004261012220013110426000000000000000   10300003 00104100000000000000000000004862     
100   35710830969857580000000000014300000000014300002000000010410404261016130013126817500426211616001312   1030000100030000   581250000001777031200000005MOB BANK               YGN           MMR11004261016130013120426000000000000000   10300003 00104100000000000000000000004862     
100   95030510218023640000000000045210000000045210002000000010410404260344100001389I39DH0426211610000138   1030000100030000   541120003008777031200000030MOB BANK               YGN           MMR11004260344100001380426000000000000000   10300002 00104100000000000000000000009042     
100   9503051020149379000000000007700000000007700000200000001041040426082322000146GSUYMZ0426211614000146   1030000100030000   541120003008777031200000030MOB BANK               YGN           MMR11004260823220001460426000000000000000   10300002 00104100000000000000000000015400     
100   9503051025997749000000000001068200000001068200200000001041040426124232001252I5ADO50426211619001252   1030000100030000   541110001905777031200000019MOB BANK               YGN           MMR11004261242320012520426000000000000000   10300002 00104100000000000000000000002136     
100   35710500144766570000000000037044000000037044002000000010410404261200440002071348070426211618000207   1030000100030000   541120003001777031200000030MOB BANK               YGN           MMR11004261200440002070426000000000000000   10300005 00104100000000000000000000007409     
100   9503051026013397000000000002430000000002430000200000001041040426061905000142MHJFH60426211612000142   1030000100030000   541120003008777031200000030MOB BANK               YGN           MMR11004260619050001420426000000000000000   10300002 00104100000000000000000000004860     
100   95030510241678070000000000064800000000064800002000000010410404261025230005830NLQFH0426211616000583   1030000100030000   541110001903777031200000019MOB BANK               YGN           MMR11004261025230005830426000000000000000   10300002 00104100000000000000000000012960     
100   9503051891860138000000000003760000000003760000200000001041040426061454000577BWZXTB0426211612000577   1030000100030000   541110001903777031200000019MOB BANK               YGN           MMR11004260614540005770426000000000000000   10300002 00104100000000000000000000007520     
100   9503051025145570000000000001600000000001600000200000001041040426044357000717B2FPPZ0426211611000717   1030000100030000   541110001920777031200000019MOB BANK               YGN           MMR11004260443570007170426000000000000000   10300002 00104100000000000000000000003200     
100   35710830852285660000000000024000000000024000002000000010410404260624310001435427210426211612000143   1030000100030000   541120003008777031200000030MOB BANK               YGN           MMR11004260624310001430426000000000000000   10300003 00104100000000000000000000004800     
100   9503051025145570000000000005880000000005880000200000001041040426041156001236Q0OYFA0426211610001236   1030000100030000   541110001905777031200000019MOB BANK               YGN           MMR11004260411560012360426000000000000000   10300002 00104100000000000000000000011760     
100   35710830555136250000000000069900000000069900002000000010410404261357450005108146710426211620000510   1030000100030000   581210001201777031200000012MOB BANK               YGN           MMR11004261357450005100426000000000000000   10300003 00104100000000000000000000023766     
100   35710830479302910000000000007300000000007300002000000010410404261238190002087670010426211619000208   1030000100030000   541120003001777031200000030MOB BANK               YGN           MMR11004261238190002080426000000000000000   10300003 00104100000000000000000000001460     
100   9503051023380195000000000005070000000005070000200000001041040426102018000128MOZDCH0426211616000128   1030000100030000   541120003003777031200000030MOB BANK               YGN           MMR11004261020180001280426000000000000000   10300002 00104100000000000000000000010140     
