100   35710950461132400000000000030000000000030000002000000010410404271058270000425710810427211717000042   1030000100030000   581210001401777031200000014MOB BANK               YGN           MMR11004271058270000420427000000000000000   10300003 00104100000000000000000000010200     
100   950319000689234500000000000081900000000081900020000000104104042711205500015088G23P0427211717000150   1030000100030000   541120003110777031200000031MOB BANK               YGN           MMR11004271120550001500427000000000000000   10300014 00104100000000000000000000001638     
100   35710950338828150000000000004300000000004300002000000010410404270314460001522928710427211709000152   1030000100030000   541120003008777031200000030MOB BANK               YGN           MMR11004270314460001520427000000000000000   10300003 00104100000000000000000000000860     
100   35710830473206340000000000034900000000034900002000000010410404270641150000854167700427211713000085   1030000100030000   541120003006777031200000030MOB BANK               YGN           MMR11004270641150000850427000000000000000   10300003 00104100000000000000000000006980     
100   35710830017661370000000000007200000000007200002000000010410404270436320002423419310427211711000242   1030000100030000   541120003104777031200000031MOB BANK               YGN           MMR11004270436320002420427000000000000000   10300003 00104100000000000000000000001440     
100   9503051024946135000000000002190000000002190000200000001041040427052627000638EWZHE50427211711000638   1030000100030000   541120003106777031200000031MOB BANK               YGN           MMR11004270526270006380427000000000000000   10300002 00104100000000000000000000004380     
100   9503051024946135000000000002190000000002190000200000001041040427053246000640MC6DKU0427211712000640   1030000100030000   541120003106777031200000031MOB BANK               YGN           MMR11004270532460006400427000000000000000   10300002 00104100000000000000000000004380     
100   35710500333499010000000000021600000000021600002000000010410404270800410004736102520427211714000473   1030000100030000   541120003103777031200000031MOB BANK               YGN           MMR11004270800410004730427000000000000000   10300005 00104100000000000000000000004320     
100   35710830767876870000000000029000000000029000002000000010410404270939350006455237620427211716000645   1030000100030000   541120003106777031200000031MOB BANK               YGN           MMR11004270939350006450427000000000000000   10300003 00104100000000000000000000005800     
100   9503051024032100000000000002320000000002320000200000001041040427103219000849LNHBDQ0427211717000849   1030000100030000   541120003117777031200000031MOB BANK               YGN           MMR11004271032190008490427000000000000000   10300002 00104100000000000000000000004640     
100   35710830161762150000000000012650000000012650002000000010410404271132010013155912300427211718001315   1030000100030000   581250000001777031200000005MOB BANK               YGN           MMR11004271132010013150427000000000000000   10300003 00104100000000000000000000004301     
100   35710830472135730000000000017050000000017050002000000010410404271249040013166374520427211719001316   1030000100030000   581250000001777031200000005MOB BANK               YGN           MMR11004271249040013160427000000000000000   10300003 00104100000000000000000000005797     
100   9503190005550803000000000000585000000000585000200000001041040426071332000467PW3G210426211613000467   1030000100030000   541120003103777031200000031MOB BANK               YGN           MMR11004260713320004670426000000000000000   10300014 00104100000000000000000000001170     
100   9503051025613080000000000003080000000003080000200000001041040426054226000465GFW47M0426211612000465   1030000100030000   541120003103777031200000031MOB BANK               YGN           MMR11004260542260004650426000000000000000   10300002 00104100000000000000000000006160     
100   9503051884881372000000000000720000000000720000200000001041040426050505000463VEOTN70426211611000463   1030000100030000   541120003103777031200000031MOB BANK               YGN           MMR11004260505050004630426000000000000000   10300002 00104100000000000000000000001440     
100   9503190005550803000000000001180000000001180000200000001041040426074502000832S6J36G0426211614000832   1030000100030000   541120003117777031200000031MOB BANK               YGN           MMR11004260745020008320426000000000000000   10300014 00104100000000000000000000002360     
100   35710830473206340000000000069800000000069800002000000010410404270639460000834158710427211713000083   1030000100030000   541120003006777031200000030MOB BANK               YGN           MMR11004270639460000830427000000000000000   10300003 00104100000000000000000000013960     
100   9503051887191076000000000000220500000000220500200000001041040427111430000144X0ZHIX0427211717000144   1030000100030000   541120003003777031200000030MOB BANK               YGN           MMR11004271114300001440427000000000000000   10300002 00104100000000000000000000000441     
100   9503051024817427000000000004299000000004299000200000001041040427124328000085ERQ4IL0427211719000085   1030000100030000   541120003013777031200000030MOB BANK               YGN           MMR11004271243280000850427000000000000000   10300002 00104100000000000000000000008598     
100   35710500364243210000000000025000000000025000002000000010410404270846170002379097050427211715000237   1030000100030000   541120003111777031200000031MOB BANK               YGN           MMR11004270846170002370427000000000000000   10300005 00104100000000000000000000005000     
100   9503051891978690000000000001962000000001962000200000001041040427043140000117WHSCKU0427211711000117   1030000100030000   541120003005777031200000030MOB BANK               YGN           MMR11004270431400001170427000000000000000   10300002 00104100000000000000000000003924     
100   9503051884900636000000000002850000000002850000200000001041040427050012000095IIUS2V0427211711000095   1030000100030000   541120003012777031200000030MOB BANK               YGN           MMR11004270500120000950427000000000000000   10300002 00104100000000000000000000005700     
100   35710830770083560000000000007750000000007750002000000010410404271239060001586314800427211719000158   1030000100030000   541120003008777031200000030MOB BANK               YGN           MMR11004271239060001580427000000000000000   10300003 00104100000000000000000000001550     
100   9503051025763778000000000003345000000003345000200000001041040427033919000154ZSRGHG0427211710000154   1030000100030000   541120003008777031200000030MOB BANK               YGN           MMR11004270339190001540427000000000000000   10300002 00104100000000000000000000006690     
100   9503051893685814000000000001990000000001990000200000001041040427103440000140DI5U2Y0427211717000140   1030000100030000   541120003003777031200000030MOB BANK               YGN           MMR11004271034400001400427000000000000000   10300002 00104100000000000000000000003980     
100   35710830017661370000000000003500000000003500002000000010410404270444300002443467210427211711000244   1030000100030000   541120003104777031200000031MOB BANK               YGN           MMR11004270444300002440427000000000000000   10300003 00104100000000000000000000000700     
100   35710830897087530000000000105600000000105600002000000010410404271415360005126893710427211720000512   1030000100030000   581210001201777031200000012MOB BANK               YGN           MMR11004271415360005120427000000000000000   10300003 00104100000000000000000000035904     
100   62343302003737400000000000011690000000011690002000000010410404271233270001475083730427211719000147   1030000100030000   541120003003777031200000030MOB BANK               YGN           MMR11004271233270001470427000000000000000   10300004 00104100000000000000000000002338     
100   35710830770083560000000000007450000000007450002000000010410404271249240001606376510427211719000160   1030000100030000   541120003008777031200000030MOB BANK               YGN           MMR11004271249240001600427000000000000000   10300003 00104100000000000000000000001490     
100   35710500392180010000000000010980000000010980002000000010410404270536070000744861960427211712000074   1030000100030000   541120003002777031200000030MOB BANK               YGN           MMR11004270536070000740427000000000000000   10300005 00104100000000000000000000002196     
100   9503051884900636000000000003800000000003800000200000001041040427044902000093Y7YEU70427211711000093   1030000100030000   541120003012777031200000030MOB BANK               YGN           MMR11004270449020000930427000000000000000   10300002 00104100000000000000000000007600     
100   35710950338828150000000000016800000000016800002000000010410404270322160001152973810427211709000115   1030000100030000   541120003005777031200000030MOB BANK               YGN           MMR11004270322160001150427000000000000000   10300003 00104100000000000000000000003360     
100   35710500353785100000000000039680000000039680002000000010410404271113380002106372330427211717000210   1030000100030000   541120003001777031200000030MOB BANK               YGN           MMR11004271113380002100427000000000000000   10300005 00104100000000000000000000007936     
100   9503051024450021000000000001971000000001971000200000001041040427093239000118MWXYPY0427211716000118   1030000100030000   541120003005777031200000030MOB BANK               YGN           MMR11004270932390001180427000000000000000   10300002 00104100000000000000000000003942     
100   35710830770083560000000000018500000000018500002000000010410404271211020000776146310427211718000077   1030000100030000   541120003002777031200000030MOB BANK               YGN           MMR11004271211020000770427000000000000000   10300003 00104100000000000000000000003700     
100   9503051885796835000000000002900000000002900000200000001041040427071242000088WUBPNG0427211713000088   1030000100030000   541120003006777031200000030MOB BANK               YGN           MMR11004270712420000880427000000000000000   10300002 00104100000000000000000000005800     
100   9503051025055068000000000004725000000004725000200000001041040427101235000084KJNIHK0427211716000084   1030000100030000   541120003013777031200000030MOB BANK               YGN           MMR11004271012350000840427000000000000000   10300002 00104100000000000000000000009450     
100   35710830541315850000000000031000000000031000002000000010410404270406460001163240800427211710000116   1030000100030000   541120003005777031200000030MOB BANK               YGN           MMR11004270406460001160427000000000000000   10300003 00104100000000000000000000006200     
100   9503051873670638000000000000909000000000909000200000001041040427061926000148NDUQDE0427211712000148   1030000100030000   541120003110777031200000031MOB BANK               YGN           MMR11004270619260001480427000000000000000   10300002 00104100000000000000000000001818     
100   9503051026241485000000000003566000000003566000200000001041040427045944000470YUINWL0427211711000470   1030000100030000   541120003103777031200000031MOB BANK               YGN           MMR11004270459440004700427000000000000000   10300002 00104100000000000000000000007132     
