100   9503051892546280000000000001656000000001656000200000001041040428103209000082VJ4KO20428211817000082   1030000100030000   541120003002777031200000030MOB BANK               YGN           MMR11004281032090000820428000000000000000   10300002 00104100000000000000000000003312     
100   35710500154335250000000000011850000000011850002000000010410404281008080000903544110428211816000090   1030000100030000   541120003013777031200000030MOB BANK               YGN           MMR11004281008080000900428000000000000000   10300005 00104100000000000000000000002370     
100   9503190002956888000000000002072000000002072000200000001041040428100215000172IUO6LW0428211816000172   1030000100030000   541120003008777031200000030MOB BANK               YGN           MMR11004281002150001720428000000000000000   10300014 00104100000000000000000000004144     
100   9503051021947821000000000000318700000000318700200000001041040428115308000214GQBOWP0428211818000214   1030000100030000   541120003001777031200000030MOB BANK               YGN           MMR11004281153080002140428000000000000000   10300002 00104100000000000000000000000638     
100   35710830288185070000000000022700000000022700002000000010410404281048210008574290220428211817000857   1030000100030000   541120003117777031200000031MOB BANK               YGN           MMR11004281048210008570428000000000000000   10300003 00104100000000000000000000004540     
100   35710830261732850000000000002400000000002400002000000010410404281025010000914150320428211816000091   1030000100030000   541120003013777031200000030MOB BANK               YGN           MMR11004281025010000910428000000000000000   10300003 00104100000000000000000000000480     
100   35710830234749420000000000056850000000056850002000000010410404281005190001254032010428211816000125   1030000100030000   541120003005777031200000030MOB BANK               YGN           MMR11004281005190001250428000000000000000   10300003 00104100000000000000000000011370     
100   62343302007392540000000000008600000000008600002000000010410404280716440001599780570428211813000159   1030000100030000   541120003003777031200000030MOB BANK               YGN           MMR11004280716440001590428000000000000000   10300004 00104100000000000000000000001720     
100   35710500314340850000000000008100000000008100002000000010410404280431180002449416530428211811000244   1030000100030000   541120003111777031200000031MOB BANK               YGN           MMR11004280431180002440428000000000000000   10300005 00104100000000000000000000001620     
100   9503051024967222000000000002970000000002970000200000001041040428120844000484HQHTTH0428211818000484   1030000100030000   541120003103777031200000031MOB BANK               YGN           MMR11004281208440004840428000000000000000   10300002 00104100000000000000000000005940     
100   95031010200618820000000000006400000000006400002000000010410404280805080007299032210428211814000729   1030000100030000   541110001920777031200000019MOB BANK               YGN           MMR11004280805080007290428000000000000000   10300005 00104100000000000000000000001280     
100   95030510249511760000000000005700000000005700002000000010410404281009540001743GB7YE0428211816000174   1030000100030000   541120003003777031200000030MOB BANK               YGN           MMR11004281009540001740428000000000000000   10300002 00104100000000000000000000001140     
100   62346600161979940000000000012800000000012800002000000010410404280450210001670926390428211811000167   1030000100030000   541120003008777031200000030MOB BANK               YGN           MMR11004280450210001670428000000000000000   10300005 00104100000000000000000000002560     
100   9503051888615131000000000004050000000004050000200000001041040428110647000252DX2QZV0428211817000252   1030000100030000   541120003111777031200000031MOB BANK               YGN           MMR11004281106470002520428000000000000000   10300002 00104100000000000000000000008100     
100   35710500303205660000000000015750000000015750002000000010410404281224120001773446730428211818000177   1030000100030000   541120003008777031200000030MOB BANK               YGN           MMR11004281224120001770428000000000000000   10300005 00104100000000000000000000003150     
100   62622000434272990000000000071600000000071600002000000010410404280612090005977335290428211812000597   1030000100030000   541110001903777031200000019MOB BANK               YGN           MMR11004280612090005970428000000000000000   10300006 00104100000000000000000000014320     
100   9503051024040913000000000001170000000001170000200000001041040428103915000731BEZJDF0428211817000731   1030000100030000   541110001920777031200000019MOB BANK               YGN           MMR11004281039150007310428000000000000000   10300002 00104100000000000000000000002340     
100   35710950248310940000000000020880000000020880002000000010410404281204370007324747810428211818000732   1030000100030000   541110001920777031200000019MOB BANK               YGN           MMR11004281204370007320428000000000000000   10300003 00104100000000000000000000004176     
100   9503051021948019000000000006460000000006460000200000001041040428110849000092I5QJLH0428211817000092   1030000100030000   541120003013777031200000030MOB BANK               YGN           MMR11004281108490000920428000000000000000   10300002 00104100000000000000000000012920     
100   9503051023435551000000000004800000000004800000200000001041040428115546000175CITKOK0428211818000175   1030000100030000   541120003008777031200000030MOB BANK               YGN           MMR11004281155460001750428000000000000000   10300002 00104100000000000000000000009600     
100   9503190000245870000000000008000000000008000000200000001041040428084433001277SFK1TF0428211815001277   1030000100030000   541110001905777031200000019MOB BANK               YGN           MMR11004280844330012770428000000000000000   10300014 00104100000000000000000000016000     
100   9503051023885334000000000000840000000000840000200000001041040428041012000159M4TF7E0428211810000159   1030000100030000   541120003110777031200000031MOB BANK               YGN           MMR11004280410120001590428000000000000000   10300002 00104100000000000000000000001680     
100   35710500145554920000000000036500000000036500002000000010410404280528300005936925870428211811000593   1030000100030000   541110001903777031200000019MOB BANK               YGN           MMR11004280528300005930428000000000000000   10300005 00104100000000000000000000007300     
100   95031900052921250000000000036410000000036410002000000010410404281544340006809JMHTN0428211822000680   1030000100030000   581210001501777031200000015MOB BANK               YGN           MMR11004281544340006800428000000000000000   10300014 00104100000000000000000000012380     
100   35710950081958700000000000017640000000017640002000000010410404281111540014194431610428211817001419   1030000100030000   541110001907777031200000019MOB BANK               YGN           MMR11004281111540014190428000000000000000   10300003 00104100000000000000000000003528     
100   35710950038904180000000000029370000000029370002000000010410404280920020013193760400428211815001319   1030000100030000   581250000001777031200000005MOB BANK               YGN           MMR11004280920020013190428000000000000000   10300003 00104100000000000000000000009986     
100   35710830514698970000000000014300000000014300002000000010410404281228380013204891910428211818001320   1030000100030000   581250000001777031200000005MOB BANK               YGN           MMR11004281228380013200428000000000000000   10300003 00104100000000000000000000004862     
100   35710500165387360000000000036600000000036600002000000010410404270446200014067051610427211711001406   1030000100030000   541110001907777031200000019MOB BANK               YGN           MMR11004270446200014060427000000000000000   10300005 00104100000000000000000000007320     
100   35710500375747770000000000007700000000007700002000000010410404280808020013189443330428211814001318   1030000100030000   581250000001777031200000005MOB BANK               YGN           MMR11004280808020013180428000000000000000   10300005 00104100000000000000000000002618     
100   35710830984812690000000000007693000000007693002000000010410404270328410014033012300427211709001403   1030000100030000   541110001907777031200000019MOB BANK               YGN           MMR11004270328410014030427000000000000000   10300003 00104100000000000000000000001539     
100   62343301011091100000000000025800000000025800002000000010410404270442420005884061540427211711000588   1030000100030000   541110001903777031200000019MOB BANK               YGN           MMR11004270442420005880427000000000000000   10300004 00104100000000000000000000005160     
100   35710830984812690000000000009751000000009751002000000010410404270337000012583062200427211710001258   1030000100030000   541110001905777031200000019MOB BANK               YGN           MMR11004270337000012580427000000000000000   10300003 00104100000000000000000000001950     
100   95030510204240530000000000024108000000024108002000000010410404270449130012617HWR8V0427211711001261   1030000100030000   541110001905777031200000019MOB BANK               YGN           MMR11004270449130012610427000000000000000   10300002 00104100000000000000000000004822     
100   95030510243326660000000000031000000000031000002000000010410404270304210014019FGFRM0427211709001401   1030000100030000   541110001907777031200000019MOB BANK               YGN           MMR11004270304210014010427000000000000000   10300002 00104100000000000000000000006200     
100   35710500344440570000000000009500000000009500002000000010410404280453190001221947550428211811000122   1030000100030000   541120003005777031200000030MOB BANK               YGN           MMR11004280453190001220428000000000000000   10300005 00104100000000000000000000001900     
100   35710830920003470000000000016359000000016359002000000010410404281005060001704030800428211816000170   1030000100030000   541120003003777031200000030MOB BANK               YGN           MMR11004281005060001700428000000000000000   10300003 00104100000000000000000000003272     
100   35710500375335670000000000008000000000008000002000000010410404280958090001704219160428211816000170   1030000100030000   541120003008777031200000030MOB BANK               YGN           MMR11004280958090001700428000000000000000   10300005 00104100000000000000000000001600     
100   35710500114400030000000000021400000000021400002000000010410404280540020007266577410428211812000726   1030000100030000   541110001920777031200000019MOB BANK               YGN           MMR11004280540020007260428000000000000000   10300005 00104100000000000000000000004280     
100   95030518841287410000000000033500000000033500002000000010410404280857510014169LIDNX0428211815001416   1030000100030000   541110001907777031200000019MOB BANK               YGN           MMR11004280857510014160428000000000000000   10300002 00104100000000000000000000006700     
100   35710500332290610000000000025800000000025800002000000010410404281224040006050056670428211818000605   1030000100030000   541110001903777031200000019MOB BANK               YGN           MMR11004281224040006050428000000000000000   10300005 00104100000000000000000000005160     
100   95030518732703140000000000038800000000038800002000000010410404280814440005993XNSRW0428211814000599   1030000100030000   541110001903777031200000019MOB BANK               YGN           MMR11004280814440005990428000000000000000   10300002 00104100000000000000000000007760     
100   35710950248310940000000000012000000000012000002000000010410404281158250014224710710428211818001422   1030000100030000   541110001907777031200000019MOB BANK               YGN           MMR11004281158250014220428000000000000000   10300003 00104100000000000000000000002400     
100   35710500351145760000000000007000000000007000002000000010410404280419430000883736930428211810000088   1030000100030000   541120003013777031200000030MOB BANK               YGN           MMR11004280419430000880428000000000000000   10300005 00104100000000000000000000001400     
100   9503051023435551000000000008617000000008617000200000001041040428114101000093CRUZTP0428211818000093   1030000100030000   541120003013777031200000030MOB BANK               YGN           MMR11004281141010000930428000000000000000   10300002 00104100000000000000000000017234     
100   35710500375335670000000000003150000000003150002000000010410404280945360000945630150428211816000094   1030000100030000   541120003006777031200000030MOB BANK               YGN           MMR11004280945360000940428000000000000000   10300005 00104100000000000000000000000630     
100   62346600140476130000000000009192000000009192002000000010410404280413230001523786370428211810000152   1030000100030000   541120003003777031200000030MOB BANK               YGN           MMR11004280413230001520428000000000000000   10300005 00104100000000000000000000001838     
100   35710500373642110000000000032095000000032095002000000010410404280312560012669034590428211809001266   1030000100030000   541110001905777031200000019MOB BANK               YGN           MMR11004280312560012660428000000000000000   10300005 00104100000000000000000000006419     
100   35710830913084930000000000018500000000018500002000000010410404280442440000162096510428211811000016   1030000100030000   541180000001777031200000008MOB BANK               YGN           MMR11004280442440000160428000000000000000   10300003 00104100000000000000000000003700     
100   35710500365457520000000000012000000000012000002000000010410404280424270001633006720428211810000163   1030000100030000   541120003008777031200000030MOB BANK               YGN           MMR11004280424270001630428000000000000000   10300005 00104100000000000000000000002400     
100   95031010200618820000000000016800000000016800002000000010410404280753140007289032160428211814000728   1030000100030000   541110001920777031200000019MOB BANK               YGN           MMR11004280753140007280428000000000000000   10300005 00104100000000000000000000003360     
100   9503051021947821000000000001412000000001412000200000001041040428114734000094JBWBWV0428211818000094   1030000100030000   541120003013777031200000030MOB BANK               YGN           MMR11004281147340000940428000000000000000   10300002 00104100000000000000000000002824     
100   35710500304259690000000000003100000000003100002000000010410404280738170000791727300428211814000079   1030000100030000   541120003002777031200000030MOB BANK               YGN           MMR11004280738170000790428000000000000000   10300005 00104100000000000000000000000620     
100   35710500344440570000000000015050000000015050002000000010410404280439220001653168840428211811000165   1030000100030000   541120003008777031200000030MOB BANK               YGN           MMR11004280439220001650428000000000000000   10300005 00104100000000000000000000003010     
100   35710500304259690000000000005482000000005482002000000010410404280734520002120556860428211814000212   1030000100030000   541120003001777031200000030MOB BANK               YGN           MMR11004280734520002120428000000000000000   10300005 00104100000000000000000000001096     
100   9503051020756595000000000002880000000002880000200000001041040428034457000478UW9CGC0428211810000478   1030000100030000   541120003103777031200000031MOB BANK               YGN           MMR11004280344570004780428000000000000000   10300002 00104100000000000000000000005760     
100   9503051025321254000000000003490000000003490000200000001041040428084050000601LKERKD0428211815000601   1030000100030000   541110001903777031200000019MOB BANK               YGN           MMR11004280840500006010428000000000000000   10300002 00104100000000000000000000006980     
100   62921400078209940000000000034500000000034500002000000010410404280741380000172222220428211814000017   1030000100030000   541180000001777031200000008MOB BANK               YGN           MMR11004280741380000170428000000000000000   10300009 00104100000000000000000000006900     
100   9503051022246926000000000000160000000000160000200000001041040428084536000123IACJUB0428211815000123   1030000100030000   541120003005777031200000030MOB BANK               YGN           MMR11004280845360001230428000000000000000   10300002 00104100000000000000000000000320     
100   9503051887191076000000000000509600000000509600200000001041040428111110000213FA1NUC0428211817000213   1030000100030000   541120003001777031200000030MOB BANK               YGN           MMR11004281111100002130428000000000000000   10300002 00104100000000000000000000001019     
100   35710500102098880000000000021500000000021500002000000010410404280615220012722929700428211812001272   1030000100030000   541110001905777031200000019MOB BANK               YGN           MMR11004280615220012720428000000000000000   10300005 00104100000000000000000000004300     
100   35710830235922550000000000006600000000006600002000000010410404281109240012804416600428211817001280   1030000100030000   541110001905777031200000019MOB BANK               YGN           MMR11004281109240012800428000000000000000   10300003 00104100000000000000000000001320     
100   9503051024324028000000000000843000000000843000200000001041040428091426000124UW5YT50428211815000124   1030000100030000   541120003005777031200000030MOB BANK               YGN           MMR11004280914260001240428000000000000000   10300002 00104100000000000000000000001686     
