100   9503054000586347000000000001575000000001575000200000001041040424092937000113DPNFSD0424211415000113   1030000100030000   541120003008777031200000030MOB BANK               YGN           MMR11004240929370001130424000000000000000   10300002 00104100000000000000000000003150     
100   35710830259066850000000000027600000000027600002000000010410404240945300005609353200424211416000560   1030000100030000   541110001903777031200000019MOB BANK               YGN           MMR11004240945300005600424000000000000000   10300003 00104100000000000000000000005520     
100   35710830025929380000000000030000000000030000002000000010410404241122130008239933410424211417000823   1030000100030000   541110001915777031200000019MOB BANK               YGN           MMR11004241122130008230424000000000000000   10300003 00104100000000000000000000006000     
100   35710500393801160000000000003000000000003000002000000010410404240820550008018803290424211414000801   1030000100030000   541110001915777031200000019MOB BANK               YGN           MMR11004240820550008010424000000000000000   10300005 00104100000000000000000000000600     
100   9503051024967222000000000003400000000003400000200000001041040424102035000222TGZLCJ0424211416000222   1030000100030000   541120003111777031200000031MOB BANK               YGN           MMR11004241020350002220424000000000000000   10300002 00104100000000000000000000006800     
100   95031900056910110000000000078600000000078600002000000010410404240800590005523U7E0B0424211414000552   1030000100030000   541110001903777031200000019MOB BANK               YGN           MMR11004240800590005520424000000000000000   10300014 00104100000000000000000000015720     
100   62346600124053260000000000020000000000020000002000000010410404240947050005614298780424211416000561   1030000100030000   541110001903777031200000019MOB BANK               YGN           MMR11004240947050005610424000000000000000   10300005 00104100000000000000000000004000     
100   35710830677020000000000000010300000000010300002000000010410404240446010007717556310424211411000771   1030000100030000   541110001915777031200000019MOB BANK               YGN           MMR11004240446010007710424000000000000000   10300003 00104100000000000000000000002060     
100   9503051025034857000000000003350000000003350000200000001041040424034313001179BURPCY0424211410001179   1030000100030000   541110001905777031200000019MOB BANK               YGN           MMR11004240343130011790424000000000000000   10300002 00104100000000000000000000006700     
100   9503190006844692000000000000423000000000423000200000001041040424100607000060LQGLXZ0424211416000060   1030000100030000   541120003002777031200000030MOB BANK               YGN           MMR11004241006070000600424000000000000000   10300014 00104100000000000000000000000846     
100   35710500161311100000000000006650000000006650002000000010410404240401580000950225480424211410000095   1030000100030000   541120003005777031200000030MOB BANK               YGN           MMR11004240401580000950424000000000000000   10300005 00104100000000000000000000001330     
100   62622000226252440000000000007644000000007644002000000010410404241057010002016003500424211417000201   1030000100030000   541120003001777031200000030MOB BANK               YGN           MMR11004241057010002010424000000000000000   10300006 00104100000000000000000000001529     
100   35710830240650950000000000004700000000004700002000000010410404240650170006918301810424211413000691   1030000100030000   541110001920777031200000019MOB BANK               YGN           MMR11004240650170006910424000000000000000   10300003 00104100000000000000000000000940     
100   9503051890657774000000000002080000000002080000200000001041040424045354000542G9ZUUD0424211411000542   1030000100030000   541110001903777031200000019MOB BANK               YGN           MMR11004240453540005420424000000000000000   10300002 00104100000000000000000000004160     
100   9503051024615615000000000005100000000005100000200000001041040424051649000773OE6DWV0424211411000773   1030000100030000   541110001915777031200000019MOB BANK               YGN           MMR11004240516490007730424000000000000000   10300002 00104100000000000000000000010200     
100   95030518725647820000000000034000000000034000002000000010410404241018270008162UWNBT0424211416000816   1030000100030000   541110001915777031200000019MOB BANK               YGN           MMR11004241018270008160424000000000000000   10300002 00104100000000000000000000006800     
100   9503051022519967000000000004570000000004570000200000001041040424102303000817DTFJMV0424211416000817   1030000100030000   541110001915777031200000019MOB BANK               YGN           MMR11004241023030008170424000000000000000   10300002 00104100000000000000000000009140     
100   35710500303816590000000000017380000000017380002000000010410404240506360012959491910424211411001295   1030000100030000   581250000001777031200000005MOB BANK               YGN           MMR11004240506360012950424000000000000000   10300005 00104100000000000000000000005909     
100   35710830689412760000000000028710000000028710002000000010410404240518460012967752730424211411001296   1030000100030000   581250000001777031200000005MOB BANK               YGN           MMR11004240518460012960424000000000000000   10300003 00104100000000000000000000009762     
100   9503051887662829000000000002080000000002080000200000001041040424054253000548KRNTXI0424211412000548   1030000100030000   541110001903777031200000019MOB BANK               YGN           MMR11004240542530005480424000000000000000   10300002 00104100000000000000000000004160     
100   9503190001455221000000000001600000000001600000200000001041040424112927000827U3T5DP0424211417000827   1030000100030000   541110001915777031200000019MOB BANK               YGN           MMR11004241129270008270424000000000000000   10300014 00104100000000000000000000003200     
100   35710500374854460000000000021100000000021100002000000010410404240900460008048545520424211415000804   1030000100030000   541110001915777031200000019MOB BANK               YGN           MMR11004240900460008040424000000000000000   10300005 00104100000000000000000000004220     
100   9503190005691011000000000001800000000001800000200000001041040424091701000805S31U1E0424211415000805   1030000100030000   541110001915777031200000019MOB BANK               YGN           MMR11004240917010008050424000000000000000   10300014 00104100000000000000000000003600     
100   35710830390033700000000000015300000000015300002000000010410404240936430013289300500424211416001328   1030000100030000   541110001907777031200000019MOB BANK               YGN           MMR11004240936430013280424000000000000000   10300003 00104100000000000000000000003060     
100   95031900004876960000000000007450000000007450002000000010410404241205120013437V7Y510424211418001343   1030000100030000   541110001907777031200000019MOB BANK               YGN           MMR11004241205120013430424000000000000000   10300014 00104100000000000000000000001490     
100   95031011210135190000000000015200000000015200002000000010410404240857030000589024440424211415000058   1030000100030000   541120003002777031200000030MOB BANK               YGN           MMR11004240857030000580424000000000000000   10300005 00104100000000000000000000003040     
100   35710500333660120000000000009750000000009750002000000010410404241009030001070444340424211416000107   1030000100030000   541120003003777031200000030MOB BANK               YGN           MMR11004241009030001070424000000000000000   10300005 00104100000000000000000000001950     
100   950305102570858300000000000140000000000140000020000000104104042404260000007506ILUH0424211410000075   1030000100030000   541120003012777031200000030MOB BANK               YGN           MMR11004240426000000750424000000000000000   10300002 00104100000000000000000000002800     
100   9503190000040404000000000002169000000002169000200000001041040424060106000145P6RJWC0424211412000145   1030000100030000   541120003110777031200000031MOB BANK               YGN           MMR11004240601060001450424000000000000000   10300014 00104100000000000000000000004338     
100   9503051026134797000000000004000000000004000000200000001041040424080823000554CNDPXZ0424211414000554   1030000100030000   541110001903777031200000019MOB BANK               YGN           MMR11004240808230005540424000000000000000   10300002 00104100000000000000000000008000     
100   950319000007211800000000000059000000000059000020000000104104042405330200081063I5SC0424211412000810   1030000100030000   541120003117777031200000031MOB BANK               YGN           MMR11004240533020008100424000000000000000   10300014 00104100000000000000000000001180     
100   35710500304294170000000000082200000000082200002000000010410404240738590007893776890424211414000789   1030000100030000   541110001915777031200000019MOB BANK               YGN           MMR11004240738590007890424000000000000000   10300005 00104100000000000000000000016440     
100   9503051025302775000000000000998400000000998400200000001041040424074334000791SI79DA0424211414000791   1030000100030000   541110001915777031200000019MOB BANK               YGN           MMR11004240743340007910424000000000000000   10300002 00104100000000000000000000001997     
100   35710500355349140000000000024000000000024000002000000010410404240722510006934529960424211413000693   1030000100030000   541110001920777031200000019MOB BANK               YGN           MMR11004240722510006930424000000000000000   10300005 00104100000000000000000000004800     
100   35710500354913050000000000031000000000031000002000000010410404240533540007747902660424211412000774   1030000100030000   541110001915777031200000019MOB BANK               YGN           MMR11004240533540007740424000000000000000   10300005 00104100000000000000000000006200     
100   95030800051245940000000000056000000000056000002000000010410404240541350007757889710424211412000775   1030000100030000   541110001915777031200000019MOB BANK               YGN           MMR11004240541350007750424000000000000000   10300003 00104100000000000000000000011200     
100   35710830868506160000000000045500000000045500002000000010410404240614210013158086220424211412001315   1030000100030000   541110001907777031200000019MOB BANK               YGN           MMR11004240614210013150424000000000000000   10300003 00104100000000000000000000009100     
100   35710500113026090000000000060700000000060700002000000010410404240634500000965084270424211413000096   1030000100030000   541120003005777031200000030MOB BANK               YGN           MMR11004240634500000960424000000000000000   10300005 00104100000000000000000000012140     
100   9503051872353640000000000001440000000001440000200000001041040424123611000062ASWG710424211419000062   1030000100030000   541120003002777031200000030MOB BANK               YGN           MMR11004241236110000620424000000000000000   10300002 00104100000000000000000000002880     
100   9503190002771790000000000001220000000001220000200000001041040424101009000082R7XLRM0424211416000082   1030000100030000   541120003012777031200000030MOB BANK               YGN           MMR11004241010090000820424000000000000000   10300014 00104100000000000000000000002440     
100   35710830441002110000000000030800000000030800002000000010410404240445560005417555810424211411000541   1030000100030000   541110001903777031200000019MOB BANK               YGN           MMR11004240445560005410424000000000000000   10300003 00104100000000000000000000006160     
100   95030518957511920000000000049700000000049700002000000010410404240515190005023TDT1G0424211411000502   1030000100030000   581210001201777031200000012MOB BANK               YGN           MMR11004240515190005020424000000000000000   10300002 00104100000000000000000000016898     
100   35710500342904760000000000004000000000004000002000000010410404241145230007093177010424211418000709   1030000100030000   541110001920777031200000019MOB BANK               YGN           MMR11004241145230007090424000000000000000   10300005 00104100000000000000000000000800     
100   9503051887662829000000000001340000000001340000200000001041040424054831000776D4QU1V0424211412000776   1030000100030000   541110001915777031200000019MOB BANK               YGN           MMR11004240548310007760424000000000000000   10300002 00104100000000000000000000002680     
100   9503051026200564000000000001090000000001090000200000001041040424102510000819LRLUSH0424211416000819   1030000100030000   541110001915777031200000019MOB BANK               YGN           MMR11004241025100008190424000000000000000   10300002 00104100000000000000000000002180     
100   35710830089393490000000000020680000000020680002000000010410404240724110012978505230424211413001297   1030000100030000   581250000001777031200000005MOB BANK               YGN           MMR11004240724110012970424000000000000000   10300003 00104100000000000000000000007031     
100   35710830947445610000000000003300000000003300002000000010410404240910300012999143110424211415001299   1030000100030000   581250000001777031200000005MOB BANK               YGN           MMR11004240910300012990424000000000000000   10300003 00104100000000000000000000001122     
100   35710500126131600000000000004000000000004000002000000010410404241217190001173410440424211418000117   1030000100030000   541120003008777031200000030MOB BANK               YGN           MMR11004241217190001170424000000000000000   10300005 00104100000000000000000000000800     
100   9503051021947821000000000000494900000000494900200000001041040424112908000202JAKHWB0424211417000202   1030000100030000   541120003001777031200000030MOB BANK               YGN           MMR11004241129080002020424000000000000000   10300002 00104100000000000000000000000990     
100   35710830017131390000000000024900000000024900002000000010410404241027060005629602820424211416000562   1030000100030000   541110001903777031200000019MOB BANK               YGN           MMR11004241027060005620424000000000000000   10300003 00104100000000000000000000004980     
100   9503190000847410000000000003180000000003180000200000001041040424103833000563OY0IA70424211417000563   1030000100030000   541110001903777031200000019MOB BANK               YGN           MMR11004241038330005630424000000000000000   10300014 00104100000000000000000000006360     
100   95031900057438200000000000025650000000025650002000000010410404241135220008297Y1O3C0424211418000829   1030000100030000   541110001915777031200000019MOB BANK               YGN           MMR11004241135220008290424000000000000000   10300014 00104100000000000000000000005130     
100   35710500301643030000000000016800000000016800002000000010410404240439560008061430620424211411000806   1030000100030000   541120003117777031200000031MOB BANK               YGN           MMR11004240439560008060424000000000000000   10300005 00104100000000000000000000003360     
100   35710500394893390000000000772800000000772800002000000010410404240928490008073900880424211415000807   1030000100030000   541110001915777031200000019MOB BANK               YGN           MMR11004240928490008070424000000000000000   10300005 00104100000000000000000000154560     
100   950319000084741000000000002100000000002100000020000000104104042409574300133486R2UE0424211416001334   1030000100030000   541110001907777031200000019MOB BANK               YGN           MMR11004240957430013340424000000000000000   10300014 00104100000000000000000000042000     
100   9503051897805442000000000002080000000002080000200000001041040424083230000556MNBCEF0424211415000556   1030000100030000   541110001903777031200000019MOB BANK               YGN           MMR11004240832300005560424000000000000000   10300002 00104100000000000000000000004160     
100   35710830255123500000000000014800000000014800002000000010410404240759240007948716610424211414000794   1030000100030000   541110001915777031200000019MOB BANK               YGN           MMR11004240759240007940424000000000000000   10300003 00104100000000000000000000002960     
100   9503190004507176000000000003905000000003905000200000001041040424073730000695F7RX4P0424211414000695   1030000100030000   541110001920777031200000019MOB BANK               YGN           MMR11004240737300006950424000000000000000   10300014 00104100000000000000000000007810     
100   950305188766282900000000000310000000000310000020000000104104042406142700077782J5WF0424211412000777   1030000100030000   541110001915777031200000019MOB BANK               YGN           MMR11004240614270007770424000000000000000   10300002 00104100000000000000000000006200     
100   35710500134279330000000000027350000000027350002000000010410404240332430011772325310424211410001177   1030000100030000   541110001905777031200000019MOB BANK               YGN           MMR11004240332430011770424000000000000000   10300005 00104100000000000000000000005470     
100   35710500363774870000000000010500000000010500002000000010410404240633440011815885790424211413001181   1030000100030000   541110001905777031200000019MOB BANK               YGN           MMR11004240633440011810424000000000000000   10300005 00104100000000000000000000002100     
100   9503051024924959000000000001830000000001830000200000001041040424045940000104DTYD0V0424211411000104   1030000100030000   541120003008777031200000030MOB BANK               YGN           MMR11004240459400001040424000000000000000   10300002 00104100000000000000000000003660     
100   9503051893228490000000000003900000000003900000200000001041040424085943000097O5RTRI0424211415000097   1030000100030000   541120003005777031200000030MOB BANK               YGN           MMR11004240859430000970424000000000000000   10300002 00104100000000000000000000007800     
100   62622000540998620000000000011700000000011700002000000010410404240945130000986124620424211416000098   1030000100030000   541120003005777031200000030MOB BANK               YGN           MMR11004240945130000980424000000000000000   10300006 00104100000000000000000000002340     
100   35710830257243510000000000004900000000004900002000000010410404240614300001998087210424211412000199   1030000100030000   541120003001777031200000030MOB BANK               YGN           MMR11004240614300001990424000000000000000   10300003 00104100000000000000000000000980     
100   35710500163365370000000000035800000000035800002000000010410404240331230005363211930424211410000536   1030000100030000   541110001903777031200000019MOB BANK               YGN           MMR11004240331230005360424000000000000000   10300005 00104100000000000000000000007160     
100   9503051895751192000000000010300000000010300000200000001041040424083858000503AWSMVB0424211415000503   1030000100030000   581210001201777031200000012MOB BANK               YGN           MMR11004240838580005030424000000000000000   10300002 00104100000000000000000000035020     
100   35710830764714310000000000054800000000054800002000000010410404240735020007868570400424211414000786   1030000100030000   541110001915777031200000019MOB BANK               YGN           MMR11004240735020007860424000000000000000   10300003 00104100000000000000000000010960     
100   9503190000487696000000000002450000000002450000200000001041040424114656000831EO4SLQ0424211418000831   1030000100030000   541110001915777031200000019MOB BANK               YGN           MMR11004241146560008310424000000000000000   10300014 00104100000000000000000000004900     
100   35710830264178490000000000032800000000032800002000000010410404240548300005507931110424211412000550   1030000100030000   541110001903777031200000019MOB BANK               YGN           MMR11004240548300005500424000000000000000   10300003 00104100000000000000000000006560     
100   9503051873900571000000000001843000000001843000200000001041040424031902000684SYT2PO0424211409000684   1030000100030000   541110001920777031200000019MOB BANK               YGN           MMR11004240319020006840424000000000000000   10300002 00104100000000000000000000003686     
100   9503051889566291000000000000825000000000825000200000001041040424101042001300VVU2G70424211416001300   1030000100030000   581250000001777031200000005MOB BANK               YGN           MMR11004241010420013000424000000000000000   10300002 00104100000000000000000000002805     
100   35710830860515120000000000011550000000011550002000000010410404241114300013019887110424211417001301   1030000100030000   581250000001777031200000005MOB BANK               YGN           MMR11004241114300013010424000000000000000   10300003 00104100000000000000000000003927     
100   35710500380222060000000000052430000000052430002000000010410404241202270002252347910424211418000225   1030000100030000   541120003111777031200000031MOB BANK               YGN           MMR11004241202270002250424000000000000000   10300005 00104100000000000000000000010486     
100   95031900014552210000000000028500000000028500002000000010410404241053470005642X1U110424211417000564   1030000100030000   541110001903777031200000019MOB BANK               YGN           MMR11004241053470005640424000000000000000   10300014 00104100000000000000000000005700     
100   62343301017341800000000000110000000000110000002000000010410404241127330005049953610424211417000504   1030000100030000   581210001201777031200000012MOB BANK               YGN           MMR11004241127330005040424000000000000000   10300004 00104100000000000000000000037400     
100   95031900000721180000000000012300000000012300002000000010410404240523250008089WFJD90424211411000808   1030000100030000   541120003117777031200000031MOB BANK               YGN           MMR11004240523250008080424000000000000000   10300014 00104100000000000000000000002460     
100   9503051891421634000000000002800000000002800000200000001041040424093040000808PALWCW0424211416000808   1030000100030000   541110001915777031200000019MOB BANK               YGN           MMR11004240930400008080424000000000000000   10300002 00104100000000000000000000005600     
100   35710830280011380000000000010800000000010800002000000010410404240936090006979297110424211416000697   1030000100030000   541110001920777031200000019MOB BANK               YGN           MMR11004240936090006970424000000000000000   10300003 00104100000000000000000000002160     
100   35710500161311100000000000028000000000028000002000000010410404240444530000777790310424211411000077   1030000100030000   541120003012777031200000030MOB BANK               YGN           MMR11004240444530000770424000000000000000   10300005 00104100000000000000000000005600     
100   35710830054765430000000000018500000000018500002000000010410404240905400005579114210424211415000557   1030000100030000   541110001903777031200000019MOB BANK               YGN           MMR11004240905400005570424000000000000000   10300003 00104100000000000000000000003700     
100   9503190005743820000000000003300000000003300000200000001041040424112418000825NTDW580424211417000825   1030000100030000   541110001915777031200000019MOB BANK               YGN           MMR11004241124180008250424000000000000000   10300014 00104100000000000000000000006600     
100   9503051026134797000000000001200000000001200000200000001041040424101847000701JQTCKP0424211416000701   1030000100030000   541110001920777031200000019MOB BANK               YGN           MMR11004241018470007010424000000000000000   10300002 00104100000000000000000000002400     
100   95030510261347970000000000022800000000022800002000000010410404241015100006997WXVUD0424211416000699   1030000100030000   541110001920777031200000019MOB BANK               YGN           MMR11004241015100006990424000000000000000   10300002 00104100000000000000000000004560     
100   9503051025697513000000000001110000000001110000200000001041040424071206001318GWOSQZ0424211413001318   1030000100030000   541110001907777031200000019MOB BANK               YGN           MMR11004240712060013180424000000000000000   10300002 00104100000000000000000000002220     
100   35710500374854460000000000048500000000048500002000000010410404240914320013215715480424211415001321   1030000100030000   541110001907777031200000019MOB BANK               YGN           MMR11004240914320013210424000000000000000   10300005 00104100000000000000000000009700     
100   95031011210135190000000000006400000000006400002000000010410404240943130002009024600424211416000200   1030000100030000   541120003001777031200000030MOB BANK               YGN           MMR11004240943130002000424000000000000000   10300005 00104100000000000000000000001280     
100   9503051888433493000000000001550000000001550000200000001041040424045647000543XDMEA10424211411000543   1030000100030000   541110001903777031200000019MOB BANK               YGN           MMR11004240456470005430424000000000000000   10300002 00104100000000000000000000003100     
100   62921400034096510000000000053000000000053000002000000010410404240506260007722222220424211411000772   1030000100030000   541110001915777031200000019MOB BANK               YGN           MMR11004240506260007720424000000000000000   10300009 00104100000000000000000000010600     
100   35710500320602360000000000017200000000017200002000000010410404241021200007037040490424211416000703   1030000100030000   541110001920777031200000019MOB BANK               YGN           MMR11004241021200007030424000000000000000   10300005 00104100000000000000000000003440     
100   9503051024928836000000000001700000000001700000200000001041040424070305000780QBW0XG0424211413000780   1030000100030000   541110001915777031200000019MOB BANK               YGN           MMR11004240703050007800424000000000000000   10300002 00104100000000000000000000003400     
100   62921400010098910000000000023720000000023720002000000010410404240401080007562222220424211410000756   1030000100030000   541110001915777031200000019MOB BANK               YGN           MMR11004240401080007560424000000000000000   10300009 00104100000000000000000000004744     
100   62921400017887420000000000014000000000014000002000000010410404240404550007602222220424211410000760   1030000100030000   541110001915777031200000019MOB BANK               YGN           MMR11004240404550007600424000000000000000   10300009 00104100000000000000000000002800     
100   35710830474878050000000000015200000000015200002000000010410404240812480000568796920424211414000056   1030000100030000   541120003002777031200000030MOB BANK               YGN           MMR11004240812480000560424000000000000000   10300003 00104100000000000000000000003040     
100   35710830257243510000000000005300000000005300002000000010410404240620520001028125400424211412000102   1030000100030000   541120003003777031200000030MOB BANK               YGN           MMR11004240620520001020424000000000000000   10300003 00104100000000000000000000001060     
100   35710830065761680000000000014000000000014000002000000010410404240901010000809086310424211415000080   1030000100030000   541120003012777031200000030MOB BANK               YGN           MMR11004240901010000800424000000000000000   10300003 00104100000000000000000000002800     
100   9503051025448503000000000004770000000004770000200000001041040423110252000215G1RMWV0423211317000215   1030000100030000   541120003111777031200000031MOB BANK               YGN           MMR11004231102520002150423000000000000000   10300002 00104100000000000000000000009540     
100   62346600150845320000000000029200000000029200002000000010410404231149520004979221240423211318000497   1030000100030000   581210001201777031200000012MOB BANK               YGN           MMR11004231149520004970423000000000000000   10300005 00104100000000000000000000009928     
100   35710830244928360000000000276100000000276100002000000010410404231357400004982226110423211320000498   1030000100030000   581210001201777031200000012MOB BANK               YGN           MMR11004231357400004980423000000000000000   10300003 00104100000000000000000000093874     
100   9503051022385641000000000024590000000024590000200000001041040423152056000499XENLUX0423211321000499   1030000100030000   581210001201777031200000012MOB BANK               YGN           MMR11004231520560004990423000000000000000   10300002 00104100000000000000000000083606     
100   35710500123604320000000000025900000000025900002000000010410404240356020000563324600424211410000056   1030000100030000   541110001904777031200000019MOB BANK               YGN           MMR11004240356020000560424000000000000000   10300005 00104100000000000000000000005180     
100   95031011210135190000000000022000000000022000002000000010410404240838380001099024430424211415000109   1030000100030000   541120003008777031200000030MOB BANK               YGN           MMR11004240838380001090424000000000000000   10300005 00104100000000000000000000004400     
100   9503190006437950000000000002320000000002320000200000001041040424085010000111S58XHJ0424211415000111   1030000100030000   541120003008777031200000030MOB BANK               YGN           MMR11004240850100001110424000000000000000   10300014 00104100000000000000000000004640     
100   95031100015237110000000000013500000000013500002000000010410404240452100002196012430424211411000219   1030000100030000   541120003111777031200000031MOB BANK               YGN           MMR11004240452100002190424000000000000000   10300006 00104100000000000000000000002700     
100   95031900061809070000000000036710000000036710002000000010410404240357380002177NLB770424211410000217   1030000100030000   541120003111777031200000031MOB BANK               YGN           MMR11004240357380002170424000000000000000   10300014 00104100000000000000000000007342     
100   9503051872535568000000000003880000000003880000200000001041040424105751000565IQHD9G0424211417000565   1030000100030000   541110001903777031200000019MOB BANK               YGN           MMR11004241057510005650424000000000000000   10300002 00104100000000000000000000007760     
100   35710500123604320000000000022000000000022000002000000010410404240342430005386162720424211410000538   1030000100030000   541110001903777031200000019MOB BANK               YGN           MMR11004240342430005380424000000000000000   10300005 00104100000000000000000000004400     
100   9503051887488902000000000004280000000004280000200000001041040424114423000505D56ZQW0424211418000505   1030000100030000   581210001201777031200000012MOB BANK               YGN           MMR11004241144230005050424000000000000000   10300002 00104100000000000000000000014552     
100   35710830937738350000000000017000000000017000002000000010410404240406200007627318110424211410000762   1030000100030000   541110001915777031200000019MOB BANK               YGN           MMR11004240406200007620424000000000000000   10300003 00104100000000000000000000003400     
100   35710500320602360000000000034000000000034000002000000010410404240944300008126703340424211416000812   1030000100030000   541110001915777031200000019MOB BANK               YGN           MMR11004240944300008120424000000000000000   10300005 00104100000000000000000000006800     
100   35710830483565870000000000011400000000011400002000000010410404240635500008138215130424211413000813   1030000100030000   541120003117777031200000031MOB BANK               YGN           MMR11004240635500008130424000000000000000   10300003 00104100000000000000000000002280     
100   35710500320602360000000000010450000000010450002000000010410404241030510013379726430424211417001337   1030000100030000   541110001907777031200000019MOB BANK               YGN           MMR11004241030510013370424000000000000000   10300005 00104100000000000000000000002090     
100   9503190005743820000000000009600000000009600000200000001041040424112029000821Y3FQ2N0424211417000821   1030000100030000   541110001915777031200000019MOB BANK               YGN           MMR11004241120290008210424000000000000000   10300014 00104100000000000000000000019200     
100   35710500320987230000000000010400000000010400002000000010410404241027580007057868100424211416000705   1030000100030000   541110001920777031200000019MOB BANK               YGN           MMR11004241027580007050424000000000000000   10300005 00104100000000000000000000002080     
100   950319000145522100000000000675500000000675500020000000104104042411130600118763EY630424211417001187   1030000100030000   541110001905777031200000019MOB BANK               YGN           MMR11004241113060011870424000000000000000   10300014 00104100000000000000000000013510     
100   35710830071609880000000000025000000000025000002000000010410404240924060013249224810424211415001324   1030000100030000   541110001907777031200000019MOB BANK               YGN           MMR11004240924060013240424000000000000000   10300003 00104100000000000000000000005000     
100   95030146290000050000000000053200000000053200002000000010410404240642540001068925770424211413000106   1030000100030000   541120003008777031200000030MOB BANK               YGN           MMR11004240642540001060424000000000000000   10200001 00104100000000000000000000010640     
100   9503051889364465000000000000922500000000922500200000001041040424115810000099GWHVQ80424211418000099   1030000100030000   541120003005777031200000030MOB BANK               YGN           MMR11004241158100000990424000000000000000   10300002 00104100000000000000000000001845     
100   9503051889849556000000000003790000000003790000200000001041040424051728000545UUNNXQ0424211411000545   1030000100030000   541110001903777031200000019MOB BANK               YGN           MMR11004240517280005450424000000000000000   10300002 00104100000000000000000000007580     
100   95030518945148150000000000429600000000429600002000000010410404241423080005064JLJS30424211420000506   1030000100030000   581210001201777031200000012MOB BANK               YGN           MMR11004241423080005060424000000000000000   10300002 00104100000000000000000000146064     
100   9503051896515562000000000000333200000000333200200000001041040424110239001183YDRIVK0424211417001183   1030000100030000   541110001905777031200000019MOB BANK               YGN           MMR11004241102390011830424000000000000000   10300002 00104100000000000000000000000666     
100   9503051872965492000000000000530000000000530000200000001041040424043918001304SYWWVL0424211411001304   1030000100030000   541110001907777031200000019MOB BANK               YGN           MMR11004240439180013040424000000000000000   10300002 00104100000000000000000000001060     
100   9503190005561032000000000001150000000001150000200000001041040424072640000784XSGN520424211413000784   1030000100030000   541110001915777031200000019MOB BANK               YGN           MMR11004240726400007840424000000000000000   10300014 00104100000000000000000000002300     
100   95030510205880710000000000023800000000023800002000000010410404240913280005587163GM0424211415000558   1030000100030000   541110001903777031200000019MOB BANK               YGN           MMR11004240913280005580424000000000000000   10300002 00104100000000000000000000004760     
100   62921400017887420000000000017600000000017600002000000010410404240336010006872222220424211410000687   1030000100030000   541110001920777031200000019MOB BANK               YGN           MMR11004240336010006870424000000000000000   10300009 00104100000000000000000000003520     
100   9503051022586271000000000001720000000001720000200000001041040424041635000767I7CEZ30424211410000767   1030000100030000   541110001915777031200000019MOB BANK               YGN           MMR11004240416350007670424000000000000000   10300002 00104100000000000000000000003440     
100   95031900019589350000000000017050000000017050002000000010410404240727210012983WKQDG0424211413001298   1030000100030000   581250000001777031200000005MOB BANK               YGN           MMR11004240727210012980424000000000000000   10300014 00104100000000000000000000005797     
100   95030518921697860000000000008300000000008300002000000010410404240608290013079HON420424211412001307   1030000100030000   541110001907777031200000019MOB BANK               YGN           MMR11004240608290013070424000000000000000   10300002 00104100000000000000000000001660     
100   35710830107181860000000000037600000000037600002000000010410404241248020000570448310424211419000057   1030000100030000   541110001904777031200000019MOB BANK               YGN           MMR11004241248020000570424000000000000000   10300003 00104100000000000000000000007520     
100   9503051022844639000000000001485000000001485000200000001041040424094912000220XT9O570424211416000220   1030000100030000   541120003111777031200000031MOB BANK               YGN           MMR11004240949120002200424000000000000000   10300002 00104100000000000000000000002970     
100   35710500151293960000000000023800000000023800002000000010410404240406560005402885330424211410000540   1030000100030000   541110001903777031200000019MOB BANK               YGN           MMR11004240406560005400424000000000000000   10300005 00104100000000000000000000004760     
100   9503051893372611000000000001000000000001000000200000001041040424095448000815Y6CHRO0424211416000815   1030000100030000   541110001915777031200000019MOB BANK               YGN           MMR11004240954480008150424000000000000000   10300002 00104100000000000000000000002000     
100   35710500134279330000000000025000000000025000002000000010410404240321450012934639060424211409001293   1030000100030000   541110001907777031200000019MOB BANK               YGN           MMR11004240321450012930424000000000000000   10300005 00104100000000000000000000005000     
100   35710830336879390000000000005500000000005500002000000010410404240454310012947607210424211411001294   1030000100030000   581250000001777031200000005MOB BANK               YGN           MMR11004240454310012940424000000000000000   10300003 00104100000000000000000000001870     
100   9503051026200564000000000000295000000000295000200000001041040424105050001340MVBLQZ0424211417001340   1030000100030000   541110001907777031200000019MOB BANK               YGN           MMR11004241050500013400424000000000000000   10300002 00104100000000000000000000000590     
100   35710500111220980000000000020250000000020250002000000010410404240353260000943154410424211410000094   1030000100030000   541120003005777031200000030MOB BANK               YGN           MMR11004240353260000940424000000000000000   10300005 00104100000000000000000000004050     
100   35710500382668780000000000015740000000015740002000000010410404240411110000947551840424211410000094   1030000100030000   541120003003777031200000030MOB BANK               YGN           MMR11004240411110000940424000000000000000   10300005 00104100000000000000000000003148     
100   35710500340128050000000000021200000000021200002000000010410404241110550000843692670424211417000084   1030000100030000   541120003012777031200000030MOB BANK               YGN           MMR11004241110550000840424000000000000000   10300005 00104100000000000000000000004240     
