100   35710950318650770000000000081400000000081400002000000010410404230713180012889800000423211313001288   1030000100030000   581250000001777031200000005MOB BANK               YGN           MMR11004230713180012880423000000000000000   10300003 00104100000000000000000000027676     
100   35710830281292020000000000065700000000065700002000000010410404230534590000779210100423211312000077   1030000100030000   541120003005777031200000030MOB BANK               YGN           MMR11004230534590000770423000000000000000   10300003 00104100000000000000000000013140     
100   35710500343740560000000000006950000000006950002000000010410404231027230000862392230423211316000086   1030000100030000   541120003003777031200000030MOB BANK               YGN           MMR11004231027230000860423000000000000000   10300005 00104100000000000000000000001390     
100   9503051894215660000000000000880000000000880000200000001041040423045609000137Q2QO1W0423211311000137   1030000100030000   541120003110777031200000031MOB BANK               YGN           MMR11004230456090001370423000000000000000   10300002 00104100000000000000000000001760     
100   9503051022622886000000000000685000000000685000200000001041040423101940000796QYH0GP0423211316000796   1030000100030000   541120003117777031200000031MOB BANK               YGN           MMR11004231019400007960423000000000000000   10300002 00104100000000000000000000001370     
100   9503051886967799000000000005250000000005250000200000001041040423074609001263UGAXLZ0423211314001263   1030000100030000   541110001907777031200000019MOB BANK               YGN           MMR11004230746090012630423000000000000000   10300002 00104100000000000000000000010500     
100   35710830944695160000000000009408000000009408002000000010410404230926260012740598800423211315001274   1030000100030000   541110001907777031200000019MOB BANK               YGN           MMR11004230926260012740423000000000000000   10300003 00104100000000000000000000001882     
100   9503051020199820000000000002880000000002880000200000001041040423043738000505JMFOHX0423211311000505   1030000100030000   541110001903777031200000019MOB BANK               YGN           MMR11004230437380005050423000000000000000   10300002 00104100000000000000000000005760     
100   35710830428326330000000000085800000000085800002000000010410404230454410005078968300423211311000507   1030000100030000   541110001903777031200000019MOB BANK               YGN           MMR11004230454410005070423000000000000000   10300003 00104100000000000000000000017160     
100   9503051020393266000000000001391600000001391600200000001041040423091957001270QV61P80423211315001270   1030000100030000   541110001907777031200000019MOB BANK               YGN           MMR11004230919570012700423000000000000000   10300002 00104100000000000000000000002783     
100   95030510262872720000000000011500000000011500002000000010410404230345400012419KY13L0423211310001241   1030000100030000   541110001907777031200000019MOB BANK               YGN           MMR11004230345400012410423000000000000000   10300002 00104100000000000000000000002300     
100   95030510255533360000000000010300000000010300002000000010410404230502480012500V4ESG0423211311001250   1030000100030000   541110001907777031200000019MOB BANK               YGN           MMR11004230502480012500423000000000000000   10300002 00104100000000000000000000002060     
100   9503051026146882000000000000520000000000520000200000001041040423064016000086TFA2LT0423211313000086   1030000100030000   541120003005777031200000030MOB BANK               YGN           MMR11004230640160000860423000000000000000   10300002 00104100000000000000000000001040     
100   35710500313224050000000000036900000000036900002000000010410404231029490002124846230423211316000212   1030000100030000   541120003111777031200000031MOB BANK               YGN           MMR11004231029490002120423000000000000000   10300005 00104100000000000000000000007380     
100   62921400044559680000000000019832000000019832002000000010410404231133010007502222220423211318000750   1030000100030000   541110001915777031200000019MOB BANK               YGN           MMR11004231133010007500423000000000000000   10300009 00104100000000000000000000003966     
100   9503051896394380000000000000475000000000475000200000001041040423103448001164ABNUNW0423211317001164   1030000100030000   541110001905777031200000019MOB BANK               YGN           MMR11004231034480011640423000000000000000   10300002 00104100000000000000000000000950     
100   62441900001272430000000000010682000000010682002000000010410404231057020011669885580423211317001166   1030000100030000   541110001905777031200000019MOB BANK               YGN           MMR11004231057020011660423000000000000000   10300003 00104100000000000000000000003739     
100   95030800020616250000000000003700000000003700002000000010410404230834370002350287810423211315000235   1030000100030000   541120003104777031200000031MOB BANK               YGN           MMR11004230834370002350423000000000000000   10300003 00104100000000000000000000000740     
100   9503190005690161000000000000641700000000641700200000001041040423074556000231NL54B60423211314000231   1030000100030000   541120003104777031200000031MOB BANK               YGN           MMR11004230745560002310423000000000000000   10300014 00104100000000000000000000001284     
100   62346600141734190000000000020200000000020200002000000010410404230752310005225051080423211314000522   1030000100030000   541110001903777031200000019MOB BANK               YGN           MMR11004230752310005220423000000000000000   10300005 00104100000000000000000000004040     
100   62346600109530120000000000003038000000003038002000000010410404231034170012787254840423211317001278   1030000100030000   541110001907777031200000019MOB BANK               YGN           MMR11004231034170012780423000000000000000   10300005 00104100000000000000000000000608     
100   35710500122931460000000000060000000000060000002000000010410404231041580012801897240423211317001280   1030000100030000   541110001907777031200000019MOB BANK               YGN           MMR11004231041580012800423000000000000000   10300005 00104100000000000000000000012000     
100   35710950676777430000000000025000000000025000002000000010410404231128380012871332010423211317001287   1030000100030000   541110001907777031200000019MOB BANK               YGN           MMR11004231128380012870423000000000000000   10300003 00104100000000000000000000005000     
100   9503051872606971000000000001045000000001045000200000001041040423094837001292LVJTPE0423211316001292   1030000100030000   581250000001777031200000005MOB BANK               YGN           MMR11004230948370012920423000000000000000   10300002 00104100000000000000000000003553     
100   9503051891593788000000000002700000000002700000200000001041040423044235000224PWG9LT0423211311000224   1030000100030000   541120000017777031200000002MOB BANK               YGN           MMR11004230442350002240423000000000000000   10300002 00104100000000000000000000005400     
100   9503051897954455000000000002380000000002380000200000001041040423045151000506DYURTM0423211311000506   1030000100030000   541110001903777031200000019MOB BANK               YGN           MMR11004230451510005060423000000000000000   10300002 00104100000000000000000000004760     
100   9503051019826029000000000001580000000001580000200000001041040423045635000508QSFXEZ0423211311000508   1030000100030000   541110001903777031200000019MOB BANK               YGN           MMR11004230456350005080423000000000000000   10300002 00104100000000000000000000003160     
100   35710500370806920000000000010000000000010000002000000010410404231201290008017870770423211318000801   1030000100030000   541120003117777031200000031MOB BANK               YGN           MMR11004231201290008010423000000000000000   10300005 00104100000000000000000000002000     
100   9503051024489623000000000002650000000002650000200000001041040423060920000778HXBMJK0423211312000778   1030000100030000   541120003117777031200000031MOB BANK               YGN           MMR11004230609200007780423000000000000000   10300002 00104100000000000000000000005300     
100   95030518965963720000000000081000000000081000002000000010410404230427080007212IXCOP0423211310000721   1030000100030000   541110001915777031200000019MOB BANK               YGN           MMR11004230427080007210423000000000000000   10300002 00104100000000000000000000016200     
100   95031900058396100000000000048840000000048840002000000010410404230357380012443M6W5H0423211310001244   1030000100030000   541110001907777031200000019MOB BANK               YGN           MMR11004230357380012440423000000000000000   10300014 00104100000000000000000000009768     
100   35710830385803110000000000013800000000013800002000000010410404230630030005179540510423211313000517   1030000100030000   541110001903777031200000019MOB BANK               YGN           MMR11004230630030005170423000000000000000   10300003 00104100000000000000000000002760     
100   35710500335199900000000000020800000000020800002000000010410404230702580005205092450423211313000520   1030000100030000   541110001903777031200000019MOB BANK               YGN           MMR11004230702580005200423000000000000000   10300005 00104100000000000000000000004160     
100   62441900001272430000000000016268000000016268002000000010410404231105280011688998830423211317001168   1030000100030000   541110001905777031200000019MOB BANK               YGN           MMR11004231105280011680423000000000000000   10300003 00104100000000000000000000005694     
100   35710500122931460000000000041500000000041500002000000010410404231050380012839890580423211317001283   1030000100030000   541110001907777031200000019MOB BANK               YGN           MMR11004231050380012830423000000000000000   10300005 00104100000000000000000000008300     
100   35710830096351850000000000107408000000107408002000000010410404231210220011741582400423211318001174   1030000100030000   541110001905777031200000019MOB BANK               YGN           MMR11004231210220011740423000000000000000   10300003 00104100000000000000000000021482     
100   62441900103117790000000000003332000000003332002000000010410404230424260012461835240423211310001246   1030000100030000   541110001907777031200000019MOB BANK               YGN           MMR11004230424260012460423000000000000000   10300003 00104100000000000000000000001166     
100   9503051025564127000000000000480000000000480000200000001041040423083432000098PH3SLF0423211315000098   1030000100030000   541120003008777031200000030MOB BANK               YGN           MMR11004230834320000980423000000000000000   10300002 00104100000000000000000000000960     
100   35710500102604020000000000012510000000012510002000000010410404230433510002023036570423211311000202   1030000100030000   541120003111777031200000031MOB BANK               YGN           MMR11004230433510002020423000000000000000   10300005 00104100000000000000000000002502     
100   950305189363409300000000000349000000000349000020000000104104042310092700052595WLXY0423211316000525   1030000100030000   541110001903777031200000019MOB BANK               YGN           MMR11004231009270005250423000000000000000   10300002 00104100000000000000000000006980     
100   9503190000663544000000000002450000000002450000200000001041040423090353000738UO3XWM0423211315000738   1030000100030000   541110001915777031200000019MOB BANK               YGN           MMR11004230903530007380423000000000000000   10300014 00104100000000000000000000004900     
100   95030510198260290000000000009150000000009150002000000010410404230352260007197OLV3J0423211310000719   1030000100030000   541110001915777031200000019MOB BANK               YGN           MMR11004230352260007190423000000000000000   10300002 00104100000000000000000000001830     
100   35710830748482420000000000021756000000021756002000000010410404230539350011419237710423211312001141   1030000100030000   541110001905777031200000019MOB BANK               YGN           MMR11004230539350011410423000000000000000   10300003 00104100000000000000000000004351     
100   62622000796837650000000000005700000000005700002000000010410404230446170000756019650423211311000075   1030000100030000   541120003005777031200000030MOB BANK               YGN           MMR11004230446170000750423000000000000000   10300006 00104100000000000000000000001140     
100   35710500305404520000000000021462000000021462002000000010410404230443340000743305650423211311000074   1030000100030000   541120003005777031200000030MOB BANK               YGN           MMR11004230443340000740423000000000000000   10300005 00104100000000000000000000004292     
100   95030800020616250000000000013800000000013800002000000010410404230806190002040118110423211314000204   1030000100030000   541120003111777031200000031MOB BANK               YGN           MMR11004230806190002040423000000000000000   10300003 00104100000000000000000000002760     
100   35710500374819650000000000024600000000024600002000000010410404230835230005232556700423211315000523   1030000100030000   541110001903777031200000019MOB BANK               YGN           MMR11004230835230005230423000000000000000   10300005 00104100000000000000000000004920     
100   9503051025934585000000000000740000000000740000200000001041040423061021000724DAYLH90423211312000724   1030000100030000   541110001915777031200000019MOB BANK               YGN           MMR11004230610210007240423000000000000000   10300002 00104100000000000000000000001480     
100   62622000705284980000000000018600000000018600002000000010410404230759360007326020330423211314000732   1030000100030000   541110001915777031200000019MOB BANK               YGN           MMR11004230759360007320423000000000000000   10300006 00104100000000000000000000003720     
100   950305102540319300000000000282000000000282000020000000104104042308445600073481NQXN0423211315000734   1030000100030000   541110001915777031200000019MOB BANK               YGN           MMR11004230844560007340423000000000000000   10300002 00104100000000000000000000005640     
100   9503051884895505000000000001330000000001330000200000001041040423050629001252OOJHIZ0423211311001252   1030000100030000   541110001907777031200000019MOB BANK               YGN           MMR11004230506290012520423000000000000000   10300002 00104100000000000000000000002660     
100   35710500393380070000000000008428000000008428002000000010410404231056570000923571590423211317000092   1030000100030000   541120003005777031200000030MOB BANK               YGN           MMR11004231056570000920423000000000000000   10300005 00104100000000000000000000001686     
100   950305189497071000000000000349000000000349000020000000104104042303342300050281KZDY0423211310000502   1030000100030000   541110001903777031200000019MOB BANK               YGN           MMR11004230334230005020423000000000000000   10300002 00104100000000000000000000006980     
100   9503051025988128000000000006600000000006600000200000001041040423090522000740SXEENJ0423211315000740   1030000100030000   541110001915777031200000019MOB BANK               YGN           MMR11004230905220007400423000000000000000   10300002 00104100000000000000000000013200     
100   9503051890873041000000000012325000000012325000200000001041040423055000001145QJTPFX0423211312001145   1030000100030000   541110001905777031200000019MOB BANK               YGN           MMR11004230550000011450423000000000000000   10300002 00104100000000000000000000024650     
100   62346600130582070000000000046376000000046376002000000010410404230553500012557849050423211312001255   1030000100030000   541110001907777031200000019MOB BANK               YGN           MMR11004230553500012550423000000000000000   10300005 00104100000000000000000000009275     
100   9503051026146882000000000000120000000000120000200000001041040423070820000088KUOPNI0423211313000088   1030000100030000   541120003005777031200000030MOB BANK               YGN           MMR11004230708200000880423000000000000000   10300002 00104100000000000000000000000240     
100   35710830447458090000000000016010000000016010002000000010410404230856520002370421410423211315000237   1030000100030000   541120003104777031200000031MOB BANK               YGN           MMR11004230856520002370423000000000000000   10300003 00104100000000000000000000003202     
100   9503051025644135000000000002100000000002100000200000001041040423051117000449NB7EKE0423211311000449   1030000100030000   541120003103777031200000031MOB BANK               YGN           MMR11004230511170004490423000000000000000   10300002 00104100000000000000000000004200     
100   35710950302870260000000000024600000000024600002000000010410404231015260005270892710423211316000527   1030000100030000   541110001903777031200000019MOB BANK               YGN           MMR11004231015260005270423000000000000000   10300003 00104100000000000000000000004920     
100   95030800016104300000000000027936000000027936002000000010410404230916450007420540710423211315000742   1030000100030000   541110001915777031200000019MOB BANK               YGN           MMR11004230916450007420423000000000000000   10300003 00104100000000000000000000005587     
100   35710500320602690000000000043900000000043900002000000010410404230608210011507280950423211312001150   1030000100030000   541110001905777031200000019MOB BANK               YGN           MMR11004230608210011500423000000000000000   10300005 00104100000000000000000000008780     
100   35710500305399180000000000076000000000076000002000000010410404230914200002061260750423211315000206   1030000100030000   541120003111777031200000031MOB BANK               YGN           MMR11004230914200002060423000000000000000   10300005 00104100000000000000000000015200     
100   62346600190160680000000000009650000000009650002000000010410404230350560001975814810423211310000197   1030000100030000   541120003001777031200000030MOB BANK               YGN           MMR11004230350560001970423000000000000000   10300005 00104100000000000000000000001930     
100   35710500169885010000000000027600000000027600002000000010410404230522530005105431310423211311000510   1030000100030000   541110001903777031200000019MOB BANK               YGN           MMR11004230522530005100423000000000000000   10300005 00104100000000000000000000005520     
100   9503051896455009000000000002280000000002280000200000001041040423064655000451HYWER00423211313000451   1030000100030000   541120003103777031200000031MOB BANK               YGN           MMR11004230646550004510423000000000000000   10300002 00104100000000000000000000004560     
100   9503051025001096000000000004380000000004380000200000001041040423083659000786DBR4L80423211315000786   1030000100030000   541120003117777031200000031MOB BANK               YGN           MMR11004230836590007860423000000000000000   10300002 00104100000000000000000000008760     
100   9503051025946431000000000001265000000001265000200000001041040423090219001290J9DWOE0423211315001290   1030000100030000   581250000001777031200000005MOB BANK               YGN           MMR11004230902190012900423000000000000000   10300002 00104100000000000000000000004301     
100   35710900938509680000000000013250000000013250002000000010410404230612360000839435800423211312000083   1030000100030000   541120003005777031200000030MOB BANK               YGN           MMR11004230612360000830423000000000000000   10300003 00104100000000000000000000002650     
100   95031900045314570000000000022850000000022850002000000010410404230930420001016J047I0423211316000101   1030000100030000   541120003008777031200000030MOB BANK               YGN           MMR11004230930420001010423000000000000000   10300014 00104100000000000000000000004570     
100   95030518927500310000000000017862000000017862002000000010410404230500200006711CNFQD0423211311000671   1030000100030000   541110001920777031200000019MOB BANK               YGN           MMR11004230500200006710423000000000000000   10300002 00104100000000000000000000003572     
100   35710500375685140000000000055440000000055440002000000010410404231149430006569646720423211318000656   1030000100030000   581210001501777031200000015MOB BANK               YGN           MMR11004231149430006560423000000000000000   10300005 00104100000000000000000000018850     
100   35710830710394640000000000009460000000009460002000000010410404230944170012910705910423211316001291   1030000100030000   581250000001777031200000005MOB BANK               YGN           MMR11004230944170012910423000000000000000   10300003 00104100000000000000000000003216     
100   95030510228404210000000000011700000000011700002000000010410404230602320012584J2GGX0423211312001258   1030000100030000   541110001907777031200000019MOB BANK               YGN           MMR11004230602320012580423000000000000000   10300002 00104100000000000000000000002340     
100   9503051023380195000000000001352400000001352400200000001041040423103744000090QJK8CG0423211317000090   1030000100030000   541120003005777031200000030MOB BANK               YGN           MMR11004231037440000900423000000000000000   10300002 00104100000000000000000000002705     
100   9503051884231016000000000002115000000002115000200000001041040423103125000213QIAZLG0423211317000213   1030000100030000   541120003111777031200000031MOB BANK               YGN           MMR11004231031250002130423000000000000000   10300002 00104100000000000000000000004230     
100   35710500303646060000000000018800000000018800002000000010410404231102370005293371460423211317000529   1030000100030000   541110001903777031200000019MOB BANK               YGN           MMR11004231102370005290423000000000000000   10300005 00104100000000000000000000003760     
100   62346600183683950000000000018500000000018500002000000010410404230932290007445021580423211316000744   1030000100030000   541110001915777031200000019MOB BANK               YGN           MMR11004230932290007440423000000000000000   10300005 00104100000000000000000000003700     
100   35710500383458960000000000014500000000014500002000000010410404230633150011547289030423211313001154   1030000100030000   541110001905777031200000019MOB BANK               YGN           MMR11004230633150011540423000000000000000   10300005 00104100000000000000000000002900     
100   35710500370740910000000000002600000000002600002000000010410404230746030000964746350423211314000096   1030000100030000   541120003008777031200000030MOB BANK               YGN           MMR11004230746030000960423000000000000000   10300005 00104100000000000000000000000520     
100   35710500305399180000000000027800000000027800002000000010410404230933180002083865890423211316000208   1030000100030000   541120003111777031200000031MOB BANK               YGN           MMR11004230933180002080423000000000000000   10300005 00104100000000000000000000005560     
100   9503051872713579000000000001980000000001980000200000001041040423052940000512DTO6JT0423211311000512   1030000100030000   541110001903777031200000019MOB BANK               YGN           MMR11004230529400005120423000000000000000   10300002 00104100000000000000000000003960     
100   9503051890296250000000000001080000000001080000200000001041040423053823000513JREDBK0423211312000513   1030000100030000   541110001903777031200000019MOB BANK               YGN           MMR11004230538230005130423000000000000000   10300002 00104100000000000000000000002160     
100   35710500174792110000000000032500000000032500002000000010410404230606340005157607550423211312000515   1030000100030000   541110001903777031200000019MOB BANK               YGN           MMR11004230606340005150423000000000000000   10300005 00104100000000000000000000006500     
100   95030518848448670000000000009400000000009400002000000010410404230847300007893WTR9S0423211315000789   1030000100030000   541120003117777031200000031MOB BANK               YGN           MMR11004230847300007890423000000000000000   10300002 00104100000000000000000000001880     
100   35710500340274720000000000009450000000009450002000000010410404231114550007486102620423211317000748   1030000100030000   541110001915777031200000019MOB BANK               YGN           MMR11004231114550007480423000000000000000   10300005 00104100000000000000000000001890     
100   95030800016104300000000000016000000000016000002000000010410404230945330006760713500423211316000676   1030000100030000   541110001920777031200000019MOB BANK               YGN           MMR11004230945330006760423000000000000000   10300003 00104100000000000000000000003200     
100   62921400091870380000000000043600000000043600002000000010410404230418080007732222220423211310000773   1030000100030000   541120003117777031200000031MOB BANK               YGN           MMR11004230418080007730423000000000000000   10300009 00104100000000000000000000008720     
100   9503051024355337000000000002280000000002280000200000001041040423065626000518QY9TNR0423211313000518   1030000100030000   541110001903777031200000019MOB BANK               YGN           MMR11004230656260005180423000000000000000   10300002 00104100000000000000000000004560     
100   9503051026287603000000000008000000000008000000200000001041040423082706001267JAGHWO0423211314001267   1030000100030000   541110001907777031200000019MOB BANK               YGN           MMR11004230827060012670423000000000000000   10300002 00104100000000000000000000016000     
100   35710830268834790000000000015100000000015100002000000010410404230326210000728438210423211309000072   1030000100030000   541120003005777031200000030MOB BANK               YGN           MMR11004230326210000720423000000000000000   10300003 00104100000000000000000000003020     
100   35710830293274090000000000030600000000030600002000000010410404230608170001399409900423211312000139   1030000100030000   541120003110777031200000031MOB BANK               YGN           MMR11004230608170001390423000000000000000   10300003 00104100000000000000000000006120     
100   9503051024489623000000000001215000000001215000200000001041040423062005000140WAAKHO0423211312000140   1030000100030000   541120003110777031200000031MOB BANK               YGN           MMR11004230620050001400423000000000000000   10300002 00104100000000000000000000002430     
100   35710830447458090000000000018550000000018550002000000010410404230811260002330148720423211314000233   1030000100030000   541120003104777031200000031MOB BANK               YGN           MMR11004230811260002330423000000000000000   10300003 00104100000000000000000000003710     
100   35710830962548660000000000021510000000021510002000000010410404230957360002100785820423211316000210   1030000100030000   541120003111777031200000031MOB BANK               YGN           MMR11004230957360002100423000000000000000   10300003 00104100000000000000000000004302     
100   62921400044559680000000000025800000000025800002000000010410404231246530005302222220423211319000530   1030000100030000   541110001903777031200000019MOB BANK               YGN           MMR11004231246530005300423000000000000000   10300009 00104100000000000000000000005160     
100   9503051896394380000000000004200000000004200000200000001041040423110709000746PKAUYY0423211317000746   1030000100030000   541110001915777031200000019MOB BANK               YGN           MMR11004231107090007460423000000000000000   10300002 00104100000000000000000000008400     
100   9503051873360461000000000001900000000001900000200000001041040423065558000730R2S3PK0423211313000730   1030000100030000   541110001915777031200000019MOB BANK               YGN           MMR11004230655580007300423000000000000000   10300002 00104100000000000000000000003800     
100   9503051891600880000000000002107000000002107000200000001041040423100154001159IR6MKC0423211316001159   1030000100030000   541110001905777031200000019MOB BANK               YGN           MMR11004231001540011590423000000000000000   10300002 00104100000000000000000000004214     
100   35710500331386430000000000035880000000035880002000000010410404230312550012397809260423211309001239   1030000100030000   541110001907777031200000019MOB BANK               YGN           MMR11004230312550012390423000000000000000   10300005 00104100000000000000000000007176     
