100   9503051887453583000000000003150000000003150000200000001041040425050822000620KK7ZGD0425211511000620   1030000100030000   541120003106777031200000031MOB BANK               YGN           MMR11004250508220006200425000000000000000   10300002 00104100000000000000000000006300     
100   62622000226252440000000000002800000000002800002000000010410404251123060002056015300425211517000205   1030000100030000   541120003001777031200000030MOB BANK               YGN           MMR11004251123060002050425000000000000000   10300006 00104100000000000000000000000560     
100   9503051025593647000000000000891000000000891000200000001041040425040947000460NIAEVO0425211510000460   1030000100030000   541120003103777031200000031MOB BANK               YGN           MMR11004250409470004600425000000000000000   10300002 00104100000000000000000000001782     
100   9503051025056199000000000000345000000000345000200000001041040425041529000101ZRZT0P0425211510000101   1030000100030000   541120003005777031200000030MOB BANK               YGN           MMR11004250415290001010425000000000000000   10300002 00104100000000000000000000000690     
100   9503051025563111000000000001630000000001630000200000001041040425032232000126HPEIKQ0425211509000126   1030000100030000   541120003008777031200000030MOB BANK               YGN           MMR11004250322320001260425000000000000000   10300002 00104100000000000000000000003260     
100   9503051882668326000000000002230000000002230000200000001041040425085156000233WXTJOR0425211515000233   1030000100030000   541120003111777031200000031MOB BANK               YGN           MMR11004250851560002330425000000000000000   10300002 00104100000000000000000000004460     
100   9503051872353640000000000001431000000001431000200000001041040425035930000067NKCDKI0425211510000067   1030000100030000   541120003002777031200000030MOB BANK               YGN           MMR11004250359300000670425000000000000000   10300002 00104100000000000000000000002862     
100   35710830900056940000000000020500000000020500002000000010410404250930470000707904910425211516000070   1030000100030000   541120003002777031200000030MOB BANK               YGN           MMR11004250930470000700425000000000000000   10300003 00104100000000000000000000004100     
100   9503051891978690000000000002625000000002625000200000001041040425055752000076UOPDKH0425211512000076   1030000100030000   541120003013777031200000030MOB BANK               YGN           MMR11004250557520000760425000000000000000   10300002 00104100000000000000000000005250     
100   95031100019525480000000000029990000000029990002000000010410404250834210000776104730425211515000077   1030000100030000   541120003013777031200000030MOB BANK               YGN           MMR11004250834210000770425000000000000000   10300006 00104100000000000000000000005998     
100   35710500104178610000000000013800000000013800002000000010410404251140240001031326720425211518000103   1030000100030000   541120003005777031200000030MOB BANK               YGN           MMR11004251140240001030425000000000000000   10300005 00104100000000000000000000002760     
100   62443000103175650000000000023800000000023800002000000010410404251126460001350266550425211517000135   1030000100030000   541120003008777031200000030MOB BANK               YGN           MMR11004251126460001350425000000000000000   10300005 00104100000000000000000000008330     
100   9503051025563111000000000003570000000003570000200000001041040425033620000111KVXXJL0425211510000111   1030000100030000   541120003003777031200000030MOB BANK               YGN           MMR11004250336200001110425000000000000000   10300002 00104100000000000000000000007140     
100   35710500365755690000000000011950000000011950002000000010410404251114090001219671550425211517000121   1030000100030000   541120003003777031200000030MOB BANK               YGN           MMR11004251114090001210425000000000000000   10300005 00104100000000000000000000002390     
100   95031100014068670000000000017022000000017022002000000010410404251040260001195985210425211517000119   1030000100030000   541120003003777031200000030MOB BANK               YGN           MMR11004251040260001190425000000000000000   10300006 00104100000000000000000000003404     
100   62346600100182870000000000024000000000024000002000000010410404240454080006115605380424211411000611   1030000100030000   541120003106777031200000031MOB BANK               YGN           MMR11004240454080006110424000000000000000   10300005 00104100000000000000000000004800     
100   62346600131711090000000000139900000000139900002000000010410404240424250006062075730424211410000606   1030000100030000   541120003106777031200000031MOB BANK               YGN           MMR11004240424250006060424000000000000000   10300005 00104100000000000000000000027980     
100   9503051020891509000000000009658000000009658000200000001041040425102442001356VAMCSJ0425211516001356   1030000100030000   541110001907777031200000019MOB BANK               YGN           MMR11004251024420013560425000000000000000   10300002 00104100000000000000000000019316     
100   35710500345938870000000000021850000000021850002000000010410404250812460012100131670425211514001210   1030000100030000   541110001905777031200000019MOB BANK               YGN           MMR11004250812460012100425000000000000000   10300005 00104100000000000000000000004370     
100   35710830376052260000000000013200000000013200002000000010410404251232150013078993700425211519001307   1030000100030000   581250000001777031200000005MOB BANK               YGN           MMR11004251232150013070425000000000000000   10300003 00104100000000000000000000004488     
100   35710830031111180000000000020250000000020250002000000010410404250946260012167998800425211516001216   1030000100030000   541110001905777031200000019MOB BANK               YGN           MMR11004250946260012160425000000000000000   10300003 00104100000000000000000000004050     
100   35710500114535500000000000039200000000039200002000000010410404251026510013590952700425211516001359   1030000100030000   541110001907777031200000019MOB BANK               YGN           MMR11004251026510013590425000000000000000   10300005 00104100000000000000000000007840     
100   35710500391973870000000000017000000000017000002000000010410404251100130013629543080425211517001362   1030000100030000   541110001907777031200000019MOB BANK               YGN           MMR11004251100130013620425000000000000000   10300005 00104100000000000000000000003400     
100   9503051023951029000000000003850000000003850000200000001041040425082608000624MVOEYX0425211514000624   1030000100030000   541120003106777031200000031MOB BANK               YGN           MMR11004250826080006240425000000000000000   10300002 00104100000000000000000000007700     
100   62346600144375660000000000030300000000030300002000000010410404250527200008189338450425211511000818   1030000100030000   541120003117777031200000031MOB BANK               YGN           MMR11004250527200008180425000000000000000   10300005 00104100000000000000000000006060     
100   9503051895866867000000000008388000000008388000200000001041040425031326001346V1H8UM0425211509001346   1030000100030000   541110001907777031200000019MOB BANK               YGN           MMR11004250313260013460425000000000000000   10300002 00104100000000000000000000016776     
100   35710500375685140000000000054780000000054780002000000010410404251202060006691672480425211518000669   1030000100030000   581210001501777031200000015MOB BANK               YGN           MMR11004251202060006690425000000000000000   10300005 00104100000000000000000000018625     
100   35710500345535190000000000125400000000125400002000000010410404250747560008223903490425211514000822   1030000100030000   541120003117777031200000031MOB BANK               YGN           MMR11004250747560008220425000000000000000   10300005 00104100000000000000000000025080     
100   62343302004894620000000000063600000000063600002000000010410404251035530012204855280425211517001220   1030000100030000   541110001905777031200000019MOB BANK               YGN           MMR11004251035530012200425000000000000000   10300004 00104100000000000000000000012720     
100   35710830130778120000000000020000000000020000002000000010410404250438330013486151510425211511001348   1030000100030000   541110001907777031200000019MOB BANK               YGN           MMR11004250438330013480425000000000000000   10300003 00104100000000000000000000004000     
100   9503051888743537000000000002090000000002090000200000001041040425063105000667RWEUBE0425211513000667   1030000100030000   581210001501777031200000015MOB BANK               YGN           MMR11004250631050006670425000000000000000   10300002 00104100000000000000000000007106     
100   62343302001190280000000000013965000000013965002000000010410404250321220012029937830425211509001202   1030000100030000   541110001905777031200000019MOB BANK               YGN           MMR11004250321220012020425000000000000000   10300004 00104100000000000000000000002793     
100   35710500383119140000000000018620000000018620002000000010410404251221340013642942980425211518001364   1030000100030000   541110001907777031200000019MOB BANK               YGN           MMR11004251221340013640425000000000000000   10300005 00104100000000000000000000003724     
100   35710830132160710000000000010400000000010400002000000010410404251238240012259030510425211519001225   1030000100030000   541110001905777031200000019MOB BANK               YGN           MMR11004251238240012250425000000000000000   10300003 00104100000000000000000000002080     
100   9503051875153799000000000015000000000015000000200000001041040425085107001353LPZHDY0425211515001353   1030000100030000   541110001907777031200000019MOB BANK               YGN           MMR11004250851070013530425000000000000000   10300002 00104100000000000000000000030000     
100   9503051882668326000000000004800000000004800000200000001041040425082129000827NG4AZA0425211514000827   1030000100030000   541120003117777031200000031MOB BANK               YGN           MMR11004250821290008270425000000000000000   10300002 00104100000000000000000000009600     
100   9503051885890513000000000003302600000003302600200000001041040425060046001206UEITWZ0425211512001206   1030000100030000   541110001905777031200000019MOB BANK               YGN           MMR11004250600460012060425000000000000000   10300002 00104100000000000000000000006605     
100   35710500382873530000000000010450000000010450002000000010410404250700460013040785470425211513001304   1030000100030000   581250000001777031200000005MOB BANK               YGN           MMR11004250700460013040425000000000000000   10300005 00104100000000000000000000003553     
100   9503051023951029000000000000580000000000580000200000001041040425081748000622EII8ET0425211514000622   1030000100030000   541120003106777031200000031MOB BANK               YGN           MMR11004250817480006220425000000000000000   10300002 00104100000000000000000000001160     
100   35710830634077860000000000165000000000165000002000000010410404250410590006185986010425211510000618   1030000100030000   541120003106777031200000031MOB BANK               YGN           MMR11004250410590006180425000000000000000   10300003 00104100000000000000000000033000     
100   35710830596896600000000000016500000000016500002000000010410404251049250013068376620425211517001306   1030000100030000   581250000001777031200000005MOB BANK               YGN           MMR11004251049250013060425000000000000000   10300003 00104100000000000000000000005610     
100   35710500381204480000000000004750000000004750002000000010410404251029470012183236510425211516001218   1030000100030000   541110001905777031200000019MOB BANK               YGN           MMR11004251029470012180425000000000000000   10300005 00104100000000000000000000000950     
100   9503051885890513000000000000882000000000882000200000001041040425061158001351VMCZIS0425211512001351   1030000100030000   541110001907777031200000019MOB BANK               YGN           MMR11004250611580013510425000000000000000   10300002 00104100000000000000000000001764     
100   62346600131711090000000000055900000000055900002000000010410404240439310006084650490424211411000608   1030000100030000   541120003106777031200000031MOB BANK               YGN           MMR11004240439310006080424000000000000000   10300005 00104100000000000000000000011180     
100   62346600104289080000000000025900000000025900002000000010410404231109250006029201740423211317000602   1030000100030000   541120003106777031200000031MOB BANK               YGN           MMR11004231109250006020423000000000000000   10300005 00104100000000000000000000005180     
100   9503051891925790000000000003360000000003360000200000001041040425073539000132NWMTWE0425211514000132   1030000100030000   541120003008777031200000030MOB BANK               YGN           MMR11004250735390001320425000000000000000   10300002 00104100000000000000000000006720     
100   35710830007912760000000000013860000000013860002000000010410404250501100002286287200425211511000228   1030000100030000   541120003111777031200000031MOB BANK               YGN           MMR11004250501100002280425000000000000000   10300003 00104100000000000000000000002772     
100   35710830900056940000000000005490000000005490002000000010410404250953050000728038610425211516000072   1030000100030000   541120003002777031200000030MOB BANK               YGN           MMR11004250953050000720425000000000000000   10300003 00104100000000000000000000001098     
100   9503051024166890000000000001575000000001575000200000001041040425062137000090POH9EM0425211512000090   1030000100030000   541120003012777031200000030MOB BANK               YGN           MMR11004250621370000900425000000000000000   10300002 00104100000000000000000000003150     
100   35710830539264800000000000005400000000005400002000000010410404250438290001136151100425211511000113   1030000100030000   541120003003777031200000030MOB BANK               YGN           MMR11004250438290001130425000000000000000   10300003 00104100000000000000000000001080     
100   9503051891978690000000000001065000000001065000200000001041040425053659000127DC0VHG0425211512000127   1030000100030000   541120003008777031200000030MOB BANK               YGN           MMR11004250536590001270425000000000000000   10300002 00104100000000000000000000002130     
100   9503051885777140000000000001700000000001700000200000001041040425110604000572LSQVOB0425211517000572   1030000100030000   541110001903777031200000019MOB BANK               YGN           MMR11004251106040005720425000000000000000   10300002 00104100000000000000000000003400     
100   62622000500763360000000000015900000000015900002000000010410404250916440001156025870425211515000115   1030000100030000   541120003003777031200000030MOB BANK               YGN           MMR11004250916440001150425000000000000000   10300006 00104100000000000000000000003180     
100   35710830623958420000000000023580000000023580002000000010410404250836510001337581220425211515000133   1030000100030000   541120003008777031200000030MOB BANK               YGN           MMR11004250836510001330425000000000000000   10300003 00104100000000000000000000004716     
100   35710500185091640000000000005310000000005310002000000010410404250813030002310046580425211514000231   1030000100030000   541120003111777031200000031MOB BANK               YGN           MMR11004250813030002310425000000000000000   10300005 00104100000000000000000000001062     
100   9503051023380195000000000000926100000000926100200000001041040425101751000078LHBGI20425211516000078   1030000100030000   541120003013777031200000030MOB BANK               YGN           MMR11004251017510000780425000000000000000   10300002 00104100000000000000000000001852     
100   9503051884960671000000000001240000000001240000200000001041040425072226000129HWA0MG0425211513000129   1030000100030000   541120003008777031200000030MOB BANK               YGN           MMR11004250722260001290425000000000000000   10300002 00104100000000000000000000002480     
100   62622000748896070000000000008550000000008550002000000010410404250659380002306065250425211513000230   1030000100030000   541120003111777031200000031MOB BANK               YGN           MMR11004250659380002300425000000000000000   10300006 00104100000000000000000000001710     
