100   95030800042899350000000000013000000000013000002000000010410404291133280001053201000429211918000105   1030000100030000   541120003012777031200000030MOB BANK               YGN           MMR11004291133280001050429000000000000000   10300003 00104100000000000000000000002600     
100   95030510249128890000000000245000000000245000002000000010410404290510510001844ALTHA0429211911000184   1030000100030000   541120003008777031200000030MOB BANK               YGN           MMR11004290510510001840429000000000000000   10300002 00104100000000000000000000049000     
100   35710500325329110000000000026100000000026100002000000010410404291103140001029681100429211917000102   1030000100030000   541120003012777031200000030MOB BANK               YGN           MMR11004291103140001020429000000000000000   10300005 00104100000000000000000000005220     
100   35710900437151620000000000046440000000046440002000000010410404290431520001810671410429211911000181   1030000100030000   541120003008777031200000030MOB BANK               YGN           MMR11004290431520001810429000000000000000   10300003 00104100000000000000000000009288     
100   9503051024225415000000000000940000000000940000200000001041040429113057000192IZTOLY0429211918000192   1030000100030000   541120003008777031200000030MOB BANK               YGN           MMR11004291130570001920429000000000000000   10300002 00104100000000000000000000001880     
100   9503051892546280000000000000930000000000930000200000001041040429110324000129OWQFOL0429211917000129   1030000100030000   541120003005777031200000030MOB BANK               YGN           MMR11004291103240001290429000000000000000   10300002 00104100000000000000000000001860     
100   9503051887191076000000000000220500000000220500200000001041040429112751000219N41UZW0429211917000219   1030000100030000   541120003001777031200000030MOB BANK               YGN           MMR11004291127510002190429000000000000000   10300002 00104100000000000000000000000441     
100   35710830081846720000000000004900000000004900002000000010410404290427050000980642700429211910000098   1030000100030000   541120003013777031200000030MOB BANK               YGN           MMR11004290427050000980429000000000000000   10300003 00104100000000000000000000000980     
100   35710500325329110000000000018900000000018900002000000010410404291109080001909881230429211917000190   1030000100030000   541120003008777031200000030MOB BANK               YGN           MMR11004291109080001900429000000000000000   10300005 00104100000000000000000000003780     
100   35710500373274810000000000004950000000004950002000000010410404291116200001305859840429211917000130   1030000100030000   541120003005777031200000030MOB BANK               YGN           MMR11004291116200001300429000000000000000   10300005 00104100000000000000000000000990     
100   35710830845897600000000000015600000000015600002000000010410404291049530003022939410429211917000302   1030000100030000   541120003105777031200000031MOB BANK               YGN           MMR11004291049530003020429000000000000000   10300003 00104100000000000000000000003120     
100   62343302005361970000000000004800000000004800002000000010410404290940560002189065510429211916000218   1030000100030000   541120003001777031200000030MOB BANK               YGN           MMR11004290940560002180429000000000000000   10300004 00104100000000000000000000000960     
100   35710830343524420000000000017500000000017500002000000010410404290537070002541062900429211912000254   1030000100030000   541120003111777031200000031MOB BANK               YGN           MMR11004290537070002540429000000000000000   10300003 00104100000000000000000000003500     
100   62622000449995280000000000018820000000018820002000000010410404290939120002557447040429211916000255   1030000100030000   541120003111777031200000031MOB BANK               YGN           MMR11004290939120002550429000000000000000   10300006 00104100000000000000000000003764     
100   95030518835855860000000000013100000000013100002000000010410404291226080002638XXKXQ0429211918000263   1030000100030000   541120003104777031200000031MOB BANK               YGN           MMR11004291226080002630429000000000000000   10300002 00104100000000000000000000002620     
100   95031900046430470000000000041150000000041150002000000010410404291008270001006O307D0429211916000100   1030000100030000   541120003012777031200000030MOB BANK               YGN           MMR11004291008270001000429000000000000000   10300014 00104100000000000000000000008230     
100   35710830081846720000000000024600000000024600002000000010410404290444220001270746310429211911000127   1030000100030000   541120003005777031200000030MOB BANK               YGN           MMR11004290444220001270429000000000000000   10300003 00104100000000000000000000004920     
100   95030510199651400000000000032500000000032500002000000010410404290944130000985UNMFV0429211916000098   1030000100030000   541120003006777031200000030MOB BANK               YGN           MMR11004290944130000980429000000000000000   10300002 00104100000000000000000000006500     
100   9503051025032778000000000002200000000002200000200000001041040429041534000255WPJYRM0429211910000255   1030000100030000   541120003104777031200000031MOB BANK               YGN           MMR11004290415340002550429000000000000000   10300002 00104100000000000000000000004400     
100   9503051887191076000000000000220500000000220500200000001041040429113239000220VKZXDM0429211918000220   1030000100030000   541120003001777031200000030MOB BANK               YGN           MMR11004291132390002200429000000000000000   10300002 00104100000000000000000000000441     
100   62343302005361970000000000008100000000008100002000000010410404290927550001287942300429211915000128   1030000100030000   541120003005777031200000030MOB BANK               YGN           MMR11004290927550001280429000000000000000   10300004 00104100000000000000000000001620     
100   9503051889366908000000000000220000000000220000200000001041040429040644000254KXQ9EW0429211910000254   1030000100030000   541120003104777031200000031MOB BANK               YGN           MMR11004290406440002540429000000000000000   10300002 00104100000000000000000000000440     
100   62346600150250300000000000039420000000039420002000000010410404291143230002583853180429211918000258   1030000100030000   541120003111777031200000031MOB BANK               YGN           MMR11004291143230002580429000000000000000   10300005 00104100000000000000000000007884     
100   35710950021447750000000000065709000000065709002000000010410404290418050012850588610429211910001285   1030000100030000   541110001905777031200000019MOB BANK               YGN           MMR11004290418050012850429000000000000000   10300003 00104100000000000000000000013142     
100   9503051893941910000000000001346600000001346600200000001041040429111810001450LEWKLT0429211917001450   1030000100030000   541110001907777031200000019MOB BANK               YGN           MMR11004291118100014500429000000000000000   10300002 00104100000000000000000000002693     
100   9503051896252521000000000033360000000033360000200000001041040429114636001452RRDIZL0429211918001452   1030000100030000   541110001907777031200000019MOB BANK               YGN           MMR11004291146360014520429000000000000000   10300002 00104100000000000000000000066720     
100   9503051023023746000000000002130000000002130000200000001041040429072434001434SOBQ3O0429211913001434   1030000100030000   541110001907777031200000019MOB BANK               YGN           MMR11004290724340014340429000000000000000   10300002 00104100000000000000000000004260     
100   95030518890684130000000000026112000000026112002000000010410404290939380008416GFADU0429211916000841   1030000100030000   541110001915777031200000019MOB BANK               YGN           MMR11004290939380008410429000000000000000   10300002 00104100000000000000000000005222     
100   35710830727658360000000000013550000000013550002000000010410404290918260012952390810429211915001295   1030000100030000   541110001905777031200000019MOB BANK               YGN           MMR11004290918260012950429000000000000000   10300003 00104100000000000000000000002710     
100   35710500333868870000000000017930000000017930002000000010410404290921100013221807670429211915001322   1030000100030000   581250000001777031200000005MOB BANK               YGN           MMR11004290921100013220429000000000000000   10300005 00104100000000000000000000006096     
100   35710500375685140000000000114070000000114070002000000010410404291133390006866718880429211918000686   1030000100030000   581210001501777031200000015MOB BANK               YGN           MMR11004291133390006860429000000000000000   10300005 00104100000000000000000000038784     
100   9503051024042687000000000004100000000004100000200000001041040429124227001455BQ7UDU0429211919001455   1030000100030000   541110001907777031200000019MOB BANK               YGN           MMR11004291242270014550429000000000000000   10300002 00104100000000000000000000008200     
100   9503051896046998000000000004210000000004210000200000001041040429123459000851G5BXBP0429211919000851   1030000100030000   541110001915777031200000019MOB BANK               YGN           MMR11004291234590008510429000000000000000   10300002 00104100000000000000000000008420     
100   35710950013148250000000000001300000000001300002000000010410404290814000014362004210429211914001436   1030000100030000   541110001907777031200000019MOB BANK               YGN           MMR11004290814000014360429000000000000000   10300003 00104100000000000000000000000260     
100   35710500103801430000000000028800000000028800002000000010410404290342070006087805150429211910000608   1030000100030000   541110001903777031200000019MOB BANK               YGN           MMR11004290342070006080429000000000000000   10300005 00104100000000000000000000005760     
100   35710500375584570000000000058500000000058500002000000010410404290644570006095464520429211913000609   1030000100030000   541110001903777031200000019MOB BANK               YGN           MMR11004290644570006090429000000000000000   10300005 00104100000000000000000000011700     
100   9503051889869596000000000009600000000009600000200000001041040429112620000844UUVEZL0429211917000844   1030000100030000   541110001915777031200000019MOB BANK               YGN           MMR11004291126200008440429000000000000000   10300002 00104100000000000000000000019200     
100   9503051025511144000000000001650000000001650000200000001041040429051502000834F3PRRI0429211911000834   1030000100030000   541110001915777031200000019MOB BANK               YGN           MMR11004290515020008340429000000000000000   10300002 00104100000000000000000000003300     
100   35710500335555720000000000009790000000009790002000000010410404291110040013238228750429211917001323   1030000100030000   581250000001777031200000005MOB BANK               YGN           MMR11004291110040013230429000000000000000   10300005 00104100000000000000000000003329     
100   9503051020909947000000000001680000000001680000200000001041040429060425000736DLNMJ10429211912000736   1030000100030000   541110001920777031200000019MOB BANK               YGN           MMR11004290604250007360429000000000000000   10300002 00104100000000000000000000003360     
100   9503051025062866000000000002100000000002100000200000001041040429062353000738DWZEFH0429211912000738   1030000100030000   541110001920777031200000019MOB BANK               YGN           MMR11004290623530007380429000000000000000   10300002 00104100000000000000000000004200     
100   35710830230861000000000000003400000000003400002000000010410404290536340012881059600429211912001288   1030000100030000   541110001905777031200000019MOB BANK               YGN           MMR11004290536340012880429000000000000000   10300003 00104100000000000000000000000680     
100   35710830293213450000000000049800000000049800002000000010410404291144150008453265710429211918000845   1030000100030000   541110001915777031200000019MOB BANK               YGN           MMR11004291144150008450429000000000000000   10300003 00104100000000000000000000009960     
100   35710500315897480000000000016000000000016000002000000010410404291253590008538701310429211919000853   1030000100030000   541110001915777031200000019MOB BANK               YGN           MMR11004291253590008530429000000000000000   10300005 00104100000000000000000000003200     
100   35710500131742950000000000037500000000037500002000000010410404290838130014387342350429211915001438   1030000100030000   541110001907777031200000019MOB BANK               YGN           MMR11004290838130014380429000000000000000   10300005 00104100000000000000000000007500     
100   35710500353861090000000000045800000000045800002000000010410404290700540006101500650429211913000610   1030000100030000   541110001903777031200000019MOB BANK               YGN           MMR11004290700540006100429000000000000000   10300005 00104100000000000000000000009160     
100   9503051021154808000000000002700000000002700000200000001041040429080152000611A7U8UF0429211914000611   1030000100030000   541110001903777031200000019MOB BANK               YGN           MMR11004290801520006110429000000000000000   10300002 00104100000000000000000000005400     
100   9503051873791103000000000000515000000000515000200000001041040429115226000846RCBHDN0429211918000846   1030000100030000   541110001915777031200000019MOB BANK               YGN           MMR11004291152260008460429000000000000000   10300002 00104100000000000000000000001030     
100   35710500393562310000000000012700000000012700002000000010410404291013160012993318600429211916001299   1030000100030000   541110001905777031200000019MOB BANK               YGN           MMR11004291013160012990429000000000000000   10300005 00104100000000000000000000002540     
100   9503051886309075000000000003320000000003320000200000001041040429094028001440UGGYS80429211916001440   1030000100030000   541110001907777031200000019MOB BANK               YGN           MMR11004290940280014400429000000000000000   10300002 00104100000000000000000000006640     
100   35710500353861090000000000014084000000014084002000000010410404290751110008361773970429211914000836   1030000100030000   541110001915777031200000019MOB BANK               YGN           MMR11004290751110008360429000000000000000   10300005 00104100000000000000000000002817     
100   35710500184647250000000000007300000000007300002000000010410404291156500008477826130429211918000847   1030000100030000   541110001915777031200000019MOB BANK               YGN           MMR11004291156500008470429000000000000000   10300005 00104100000000000000000000001460     
100   9503051024611044000000000000528000000000528000200000001041040429122229000848RPW6UO0429211918000848   1030000100030000   541110001915777031200000019MOB BANK               YGN           MMR11004291222290008480429000000000000000   10300002 00104100000000000000000000001056     
100   9503051023927649000000000001507700000001507700200000001041040429041906001425CJHWS50429211910001425   1030000100030000   541110001907777031200000019MOB BANK               YGN           MMR11004290419060014250429000000000000000   10300002 00104100000000000000000000003016     
100   35710500134136510000000000026000000000026000002000000010410404290816000008376313120429211914000837   1030000100030000   541110001915777031200000019MOB BANK               YGN           MMR11004290816000008370429000000000000000   10300005 00104100000000000000000000005200     
100   35710500375584570000000000005650000000005650002000000010410404290654310012919719340429211913001291   1030000100030000   541110001905777031200000019MOB BANK               YGN           MMR11004290654310012910429000000000000000   10300005 00104100000000000000000000001130     
100   95030518960469980000000000052000000000052000002000000010410404291216140006138SQQUS0429211918000613   1030000100030000   541110001903777031200000019MOB BANK               YGN           MMR11004291216140006130429000000000000000   10300002 00104100000000000000000000010400     
100   950305102392370500000000000561300000000561300020000000104104042909543600144226QOOR0429211916001442   1030000100030000   541110001907777031200000019MOB BANK               YGN           MMR11004290954360014420429000000000000000   10300002 00104100000000000000000000011226     
100   35710830396496690000000000003822000000003822002000000010410404291000500014442645110429211916001444   1030000100030000   541110001907777031200000019MOB BANK               YGN           MMR11004291000500014440429000000000000000   10300003 00104100000000000000000000000764     
100   95030510239237050000000000008336000000008336002000000010410404291009060014466YSR4J0429211916001446   1030000100030000   541110001907777031200000019MOB BANK               YGN           MMR11004291009060014460429000000000000000   10300002 00104100000000000000000000001667     
100   9503051891191120000000000001780000000001780000200000001041040429122700000614TQLG9H0429211918000614   1030000100030000   541110001903777031200000019MOB BANK               YGN           MMR11004291227000006140429000000000000000   10300002 00104100000000000000000000003560     
100   35710500315897480000000000015000000000015000002000000010410404291229320008493601250429211918000849   1030000100030000   541110001915777031200000019MOB BANK               YGN           MMR11004291229320008490429000000000000000   10300005 00104100000000000000000000003000     
100   35710950021447750000000000015000000000015000002000000010410404290430310014270663310429211911001427   1030000100030000   541110001907777031200000019MOB BANK               YGN           MMR11004290430310014270429000000000000000   10300003 00104100000000000000000000003000     
100   9503051020909947000000000001295000000001295000200000001041040429061941001432E1CXTR0429211912001432   1030000100030000   541110001907777031200000019MOB BANK               YGN           MMR11004290619410014320429000000000000000   10300002 00104100000000000000000000002590     
100   62346600190929030000000000022000000000022000002000000010410404291151130007434641910429211918000743   1030000100030000   541110001920777031200000019MOB BANK               YGN           MMR11004291151130007430429000000000000000   10300005 00104100000000000000000000004400     
100   35710830727658360000000000009800000000009800002000000010410404290909190008392336100429211915000839   1030000100030000   541110001915777031200000019MOB BANK               YGN           MMR11004290909190008390429000000000000000   10300003 00104100000000000000000000001960     
100   35710830127341650000000000026754000000026754002000000010410404290821490012932051010429211914001293   1030000100030000   541110001905777031200000019MOB BANK               YGN           MMR11004290821490012930429000000000000000   10300003 00104100000000000000000000005351     
100   62441900002939040000000000049900000000049900002000000010410404281042420006578048070428211817000657   1030000100030000   541120003106777031200000031MOB BANK               YGN           MMR11004281042420006570428000000000000000   10300003 00104100000000000000000000017465     
