100   35710830114435110000000000015141000000015141002000000010410405100357180017845503910510213010001784   1030000100030000   541110001907777031200000019MOB BANK               YGN           MMR11005100357180017840510000000000000000   10300003 00104100000000000000000000003028     
100   35710830455292770000000000032950000000032950002000000010410405101118140002378149610510213017000237   1030000100030000   541120003005777031200000030MOB BANK               YGN           MMR11005101118140002370510000000000000000   10300003 00104100000000000000000000006590     
100   35710500325619930000000000038800000000038800002000000010410405101005420008428214630510213016000842   1030000100030000   541110001903777031200000019MOB BANK               YGN           MMR11005101005420008420510000000000000000   10300005 00104100000000000000000000007760     
100   35710830046117360000000000008000000000008000002000000010410405100901320008397329410510213015000839   1030000100030000   541110001903777031200000019MOB BANK               YGN           MMR11005100901320008390510000000000000000   10300003 00104100000000000000000000001600     
100   9503190006180907000000000001750000000001750000200000001041040510044611001083Y4WF610510213011001083   1030000100030000   541120003117777031200000031MOB BANK               YGN           MMR11005100446110010830510000000000000000   10300014 00104100000000000000000000003500     
100   35710500391973870000000000025800000000025800002000000010410405101052290008441745170510213017000844   1030000100030000   541110001903777031200000019MOB BANK               YGN           MMR11005101052290008440510000000000000000   10300005 00104100000000000000000000005160     
100   9503051026167276000000000003926400000003926400200000001041040510074758000330UQTRX70510213014000330   1030000100030000   541120003008777031200000030MOB BANK               YGN           MMR11005100747580003300510000000000000000   10300002 00104100000000000000000000007853     
100   95030800043238090000000000010200000000010200002000000010410405101117470003398146900510213017000339   1030000100030000   541120003008777031200000030MOB BANK               YGN           MMR11005101117470003390510000000000000000   10300003 00104100000000000000000000002040     
100   95030800043238090000000000015050000000015050002000000010410405101127080002388202910510213017000238   1030000100030000   541120003005777031200000030MOB BANK               YGN           MMR11005101127080002380510000000000000000   10300003 00104100000000000000000000003010     
100   95030510234611440000000000038800000000038800002000000010410405100330450008255RTLU00510213010000825   1030000100030000   541110001903777031200000019MOB BANK               YGN           MMR11005100330450008250510000000000000000   10300002 00104100000000000000000000007760     
100   35710830018755650000000000007600000000007600002000000010410405101012160016197753800510213016001619   1030000100030000   541110001905777031200000019MOB BANK               YGN           MMR11005101012160016190510000000000000000   10300003 00104100000000000000000000001520     
100   35710830055623420000000000018700000000018700002000000010410405100858050013827308610510213015001382   1030000100030000   581250000001777031200000005MOB BANK               YGN           MMR11005100858050013820510000000000000000   10300003 00104100000000000000000000006358     
100   35710830869902220000000000025300000000025300002000000010410405101032350013857875700510213017001385   1030000100030000   581250000001777031200000005MOB BANK               YGN           MMR11005101032350013850510000000000000000   10300003 00104100000000000000000000008602     
100   9503051891955458000000000000230000000000230000200000001041040510121059000269AVGC1I0510213018000269   1030000100030000   541120003001777031200000030MOB BANK               YGN           MMR11005101210590002690510000000000000000   10300002 00104100000000000000000000000460     
100   35710830279360290000000000013000000000013000002000000010410405100440240017885762630510213011001788   1030000100030000   541110001907777031200000019MOB BANK               YGN           MMR11005100440240017880510000000000000000   10300003 00104100000000000000000000002600     
100   95031900057976280000000000052000000000052000002000000010410405100657460017930PZP870510213013001793   1030000100030000   541110001907777031200000019MOB BANK               YGN           MMR11005100657460017930510000000000000000   10300014 00104100000000000000000000010400     
100   35710830046117360000000000005800000000005800002000000010410405100729230016076776410510213013001607   1030000100030000   541110001905777031200000019MOB BANK               YGN           MMR11005100729230016070510000000000000000   10300003 00104100000000000000000000001160     
100   62343302003188280000000000005200000000005200002000000010410405100432520002805000980510213011000280   1030000100030000   541120003003777031200000030MOB BANK               YGN           MMR11005100432520002800510000000000000000   10300004 00104100000000000000000000001040     
100   9503051024352417000000000006200000000006200000200000001041040510060634001090NMQMOG0510213012001090   1030000100030000   541120003117777031200000031MOB BANK               YGN           MMR11005100606340010900510000000000000000   10300002 00104100000000000000000000012400     
100   9503051024817070000000000000200000000000200000200000001041040510122649000239MWDWC70510213018000239   1030000100030000   541120003005777031200000030MOB BANK               YGN           MMR11005101226490002390510000000000000000   10300002 00104100000000000000000000000400     
100   9503051886964960000000000003080000000003080000200000001041040510082959000837WSP65T0510213014000837   1030000100030000   541110001903777031200000019MOB BANK               YGN           MMR11005100829590008370510000000000000000   10300002 00104100000000000000000000006160     
100   9503051872920224000000000015240000000015240000200000001041040510033949001523KGPJ7B0510213010001523   1030000100030000   541160000001777031200000006MOB BANK               YGN           MMR11005100339490015230510000000000000000   10300002 00104100000000000000000000030480     
100   9503051023745843000000000015780000000015780000200000001041040510075639001525RRBU230510213014001525   1030000100030000   541160000001777031200000006MOB BANK               YGN           MMR11005100756390015250510000000000000000   10300002 00104100000000000000000000031560     
100   35710830064061430000000000013920000000013920002000000010410405100944030001227584510510213016000122   1030000100030000   541120003002777031200000030MOB BANK               YGN           MMR11005100944030001220510000000000000000   10300003 00104100000000000000000000002784     
100   35710500300932700000000000054500000000054500002000000010410405100738330018047306150510213014001804   1030000100030000   541110001907777031200000019MOB BANK               YGN           MMR11005100738330018040510000000000000000   10300005 00104100000000000000000000010900     
100   95031100011996600000000000016023000000016023002000000010410405100853480018070595610510213015001807   1030000100030000   541110001907777031200000019MOB BANK               YGN           MMR11005100853480018070510000000000000000   10300006 00104100000000000000000000003205     
100   35710950881696540000000000014350000000014350002000000010410405100454510002835849210510213011000283   1030000100030000   541120003003777031200000030MOB BANK               YGN           MMR11005100454510002830510000000000000000   10300003 00104100000000000000000000002870     
100   9503051891822856000000000000700000000000700000200000001041040510100026000962DNNLNY0510213016000962   1030000100030000   541120003106777031200000031MOB BANK               YGN           MMR11005101000260009620510000000000000000   10300002 00104100000000000000000000001400     
100   62346600188920140000000000031200000000031200002000000010410405100630070002639741640510213013000263   1030000100030000   541120003001777031200000030MOB BANK               YGN           MMR11005100630070002630510000000000000000   10300005 00104100000000000000000000006240     
100   62346600160194950000000000035800000000035800002000000010410405100620400008294883080510213012000829   1030000100030000   541110001903777031200000019MOB BANK               YGN           MMR11005100620400008290510000000000000000   10300005 00104100000000000000000000007160     
100   95030510255470490000000000017200000000017200002000000010410405101054210016253VIO260510213017001625   1030000100030000   541110001905777031200000019MOB BANK               YGN           MMR11005101054210016250510000000000000000   10300002 00104100000000000000000000003440     
100   95030510257423190000000000071650000000071650002000000010410405101151270016325O6ZNZ0510213018001632   1030000100030000   541110001905777031200000019MOB BANK               YGN           MMR11005101151270016320510000000000000000   10300002 00104100000000000000000000014330     
100   95030518869810630000000000007546000000007546002000000010410405100709170016009OEXWW0510213013001600   1030000100030000   541110001905777031200000019MOB BANK               YGN           MMR11005100709170016000510000000000000000   10300002 00104100000000000000000000001509     
100   9503051023962398000000000000225000000000225000200000001041040510063634000328VVXKEN0510213013000328   1030000100030000   541120003008777031200000030MOB BANK               YGN           MMR11005100636340003280510000000000000000   10300002 00104100000000000000000000000450     
100   62622000629069830000000000022800000000022800002000000010410405100644580008310585080510213013000831   1030000100030000   541110001903777031200000019MOB BANK               YGN           MMR11005100644580008310510000000000000000   10300006 00104100000000000000000000004560     
100   35710500164266760000000000038800000000038800002000000010410405100500380008277422640510213011000827   1030000100030000   541110001903777031200000019MOB BANK               YGN           MMR11005100500380008270510000000000000000   10300005 00104100000000000000000000007760     
100   35710500153723920000000000033650000000033650002000000010410405101037410018142233880510213017001814   1030000100030000   541110001907777031200000019MOB BANK               YGN           MMR11005101037410018140510000000000000000   10300005 00104100000000000000000000006730     
100   9503051025742319000000000002070000000002070000200000001041040510120540001819NSD6EJ0510213018001819   1030000100030000   541110001907777031200000019MOB BANK               YGN           MMR11005101205400018190510000000000000000   10300002 00104100000000000000000000004140     
100   62343302003188280000000000011250000000011250002000000010410405100456360001779955310510213011000177   1030000100030000   541120003013777031200000030MOB BANK               YGN           MMR11005100456360001770510000000000000000   10300004 00104100000000000000000000002250     
100   9503051026167276000000000003346700000003346700200000001041040510073616000178PDJRY70510213014000178   1030000100030000   541120003013777031200000030MOB BANK               YGN           MMR11005100736160001780510000000000000000   10300002 00104100000000000000000000006694     
100   35710830303593830000000000010038000000010038002000000010410405100736530002856821500510213014000285   1030000100030000   541120003003777031200000030MOB BANK               YGN           MMR11005100736530002850510000000000000000   10300003 00104100000000000000000000002008     
100   95030800093613820000000000012000000000012000002000000010410405101126190009108198100510213017000910   1030000100030000   541110001920777031200000019MOB BANK               YGN           MMR11005101126190009100510000000000000000   10300003 00104100000000000000000000002400     
100   950305187468850600000000000186000000000186000020000000104104051012555200182581STYG0510213019001825   1030000100030000   541110001907777031200000019MOB BANK               YGN           MMR11005101255520018250510000000000000000   10300002 00104100000000000000000000003720     
100   35710500313774250000000000015900000000015900002000000010410405100459330003217673720510213011000321   1030000100030000   541120003104777031200000031MOB BANK               YGN           MMR11005100459330003210510000000000000000   10300005 00104100000000000000000000003180     
100   95030518951410550000000000011800000000011800002000000010410405100824230002352LUJQX0510213014000235   1030000100030000   541120003005777031200000030MOB BANK               YGN           MMR11005100824230002350510000000000000000   10300002 00104100000000000000000000002360     
100   35710830064061430000000000065280000000065280002000000010410405100956470003347660910510213016000334   1030000100030000   541120003008777031200000030MOB BANK               YGN           MMR11005100956470003340510000000000000000   10300003 00104100000000000000000000013056     
100   62346600117261930000000000078400000000078400002000000010410405101022550003377029220510213016000337   1030000100030000   541120003008777031200000030MOB BANK               YGN           MMR11005101022550003370510000000000000000   10300005 00104100000000000000000000015680     
100   35710500394827970000000000022800000000022800002000000010410405100706180008333760680510213013000833   1030000100030000   541110001903777031200000019MOB BANK               YGN           MMR11005100706180008330510000000000000000   10300005 00104100000000000000000000004560     
100   95030800043238090000000000057000000000057000002000000010410405101105150001798071710510213017000179   1030000100030000   541120003013777031200000030MOB BANK               YGN           MMR11005101105150001790510000000000000000   10300003 00104100000000000000000000011400     
100   62346600188920140000000000003136000000003136002000000010410405100619230002338031640510213012000233   1030000100030000   541120003005777031200000030MOB BANK               YGN           MMR11005100619230002330510000000000000000   10300005 00104100000000000000000000000627     
100   35710500322920450000000000051900000000051900002000000010410405100746060002644226530510213014000264   1030000100030000   541120003001777031200000030MOB BANK               YGN           MMR11005100746060002640510000000000000000   10300005 00104100000000000000000000010380     
100   950305187302950400000000000022000000000022000020000000104104051010210200026603DANN0510213016000266   1030000100030000   541120003001777031200000030MOB BANK               YGN           MMR11005101021020002660510000000000000000   10300002 00104100000000000000000000000440     
100   35710830675803800000000000003648000000003648002000000010410405101053430002678002510510213017000267   1030000100030000   541120003001777031200000030MOB BANK               YGN           MMR11005101053430002670510000000000000000   10300003 00104100000000000000000000000730     
100   35710830747668810000000000025900000000025900002000000010410405101007170009647723910510213016000964   1030000100030000   541120003106777031200000031MOB BANK               YGN           MMR11005101007170009640510000000000000000   10300003 00104100000000000000000000005180     
100   35710500171523130000000000026000000000026000002000000010410405101047520009671624420510213017000967   1030000100030000   541120003106777031200000031MOB BANK               YGN           MMR11005101047520009670510000000000000000   10300005 00104100000000000000000000005200     
100   9503051026289393000000000002280000000002280000200000001041040510081345000218CCQUOQ0510213014000218   1030000100030000   541120003110777031200000031MOB BANK               YGN           MMR11005100813450002180510000000000000000   10300002 00104100000000000000000000004560     
100   35710500342350910000000000038800000000038800002000000010410405101212080008451173720510213018000845   1030000100030000   541110001903777031200000019MOB BANK               YGN           MMR11005101212080008450510000000000000000   10300005 00104100000000000000000000007760     
100   35710500325619930000000000075600000000075600002000000010410405100922360008416847010510213015000841   1030000100030000   541110001903777031200000019MOB BANK               YGN           MMR11005100922360008410510000000000000000   10300005 00104100000000000000000000015120     
100   95030800005653530000000000021800000000021800002000000010410405100812060008357032810510213014000835   1030000100030000   541110001903777031200000019MOB BANK               YGN           MMR11005100812060008350510000000000000000   10300003 00104100000000000000000000004360     
100   35710830199804150000000000029500000000029500002000000010410405100431180003275708120510213011000327   1030000100030000   541120003111777031200000031MOB BANK               YGN           MMR11005100431180003270510000000000000000   10300003 00104100000000000000000000005900     
100   9503051873029504000000000002050000000002050000200000001041040510101535000265LDLJXD0510213016000265   1030000100030000   541120003001777031200000030MOB BANK               YGN           MMR11005101015350002650510000000000000000   10300002 00104100000000000000000000004100     
100   35710830213636260000000000082000000000082000002000000010410405101256240005578738610510213019000557   1030000100030000   581210001201777031200000012MOB BANK               YGN           MMR11005101256240005570510000000000000000   10300003 00104100000000000000000000027880     
100   62622000748161960000000000017800000000017800002000000010410405100258120008230584560510213009000823   1030000100030000   541110001903777031200000019MOB BANK               YGN           MMR11005100258120008230510000000000000000   10300006 00104100000000000000000000003560     
100   35710830606669700000000000009130000000009130002000000010410405100622080013796372910510213012001379   1030000100030000   581250000001777031200000005MOB BANK               YGN           MMR11005100622080013790510000000000000000   10300003 00104100000000000000000000003104     
100   95030518915377020000000000002000000000002000002000000010410405100843040016140UZU4T0510213015001614   1030000100030000   541110001905777031200000019MOB BANK               YGN           MMR11005100843040016140510000000000000000   10300002 00104100000000000000000000000400     
100   9503051023962398000000000001355000000001355000200000001041040510064742000234KZXGBN0510213013000234   1030000100030000   541120003005777031200000030MOB BANK               YGN           MMR11005100647420002340510000000000000000   10300002 00104100000000000000000000002710     
100   35710950881696540000000000005950000000005950002000000010410405100435290001205733110510213011000120   1030000100030000   541120003002777031200000030MOB BANK               YGN           MMR11005100435290001200510000000000000000   10300003 00104100000000000000000000001190     
100   9503051887191076000000000000441000000000441000200000001041040510113956000268JZIYNA0510213018000268   1030000100030000   541120003001777031200000030MOB BANK               YGN           MMR11005101139560002680510000000000000000   10300002 00104100000000000000000000000882     
100   9503051891955458000000000000565000000000565000200000001041040510122114000288N2PSLY0510213018000288   1030000100030000   541120003003777031200000030MOB BANK               YGN           MMR11005101221140002880510000000000000000   10300002 00104100000000000000000000001130     
100   62622000748161960000000000012500000000012500002000000010410405100303320017800467160510213009001780   1030000100030000   541110001907777031200000019MOB BANK               YGN           MMR11005100303320017800510000000000000000   10300006 00104100000000000000000000002500     
100   62622000748161960000000000023300000000023300002000000010410405100313140017820584620510213009001782   1030000100030000   541110001907777031200000019MOB BANK               YGN           MMR11005100313140017820510000000000000000   10300006 00104100000000000000000000004660     
100   9503190002801159000000000003730000000003730000200000001041040509074725000051D0I2Q60509212914000051   1030000100030000   541180000001777031200000008MOB BANK               YGN           MMR11005090747250000510509000000000000000   10300014 00104100000000000000000000007460     
100   35710500365183610000000000004700000000004700002000000010410405101014360002369356540510213016000236   1030000100030000   541120003005777031200000030MOB BANK               YGN           MMR11005101014360002360510000000000000000   10300005 00104100000000000000000000000940     
100   9503051024325959000000000013475000000013475000200000001041040510100206001810U57TGT0510213016001810   1030000100030000   541110001907777031200000019MOB BANK               YGN           MMR11005101002060018100510000000000000000   10300002 00104100000000000000000000026950     
100   95030201003444320000000000461700000000461700002000000010410405091126240015208801660509212917001520   1030000100030000   541160000001777031200000006MOB BANK               YGN           MMR11005091126240015200509000000000000000   10200002 00104100000000000000000000092340     
