100   9503051025402252000000000010890000000010890000200000001041040930082745000033W9WU4E0930127314000033   1030000100030000   581410001201777031200000012MOB BANK               YGN           MMR11009300827450000330930000000000000000   10300002 00104100000000000000000000016335     
100   95031900014557910000000000075000000000075000002000000010410410010553350000166A95EU1001127412000016   1030000100030000   541120000002777031200000002MOB BANK               YGN           MMR11010010553350000161001000000000000000   10300014 00104100000000000000000000015000     
100   9503051896054794000000000005400000000005400000200000001041040930071107000043RVBYEN0930127313000043   1030000100030000   541120000007777031200000002MOB BANK               YGN           MMR11009300711070000430930000000000000000   10300002 00104100000000000000000000010800     
100   62622000084852580000000000054000000000054000002000000010410409300940320000472544330930127316000047   1030000100030000   541120000011777031200000002MOB BANK               YGN           MMR11009300940320000470930000000000000000   10300006 00104100000000000000000000010800     
100   35710830950846780000000000010450000000010450002000000010410409300810480000518945010930127314000051   1030000100030000   581450000001777031200000005MOB BANK               YGN           MMR11009300810480000510930000000000000000   10300003 00104100000000000000000000001567     
