100   62346600192760920000000000134200000000134200002000000010410412311412500002130425171231136520000213   1030000100030000   581410001201777031200000012MOB BANK               YGN           MMR11012311412500002131231000000000000000   10300005 00104100000000000000000000020130     
100   9503051883319309000000000016290000000016290000200000001041041231141600000214SBJTJY1231136520000214   1030000100030000   581410001201777031200000012MOB BANK               YGN           MMR11012311416000002141231000000000000000   10300002 00104100000000000000000000024435     
100   62343301015018520000000000192000000000192000002000000010410412311416530002159897121231136520000215   1030000100030000   581410001201777031200000012MOB BANK               YGN           MMR11012311416530002151231000000000000000   10300004 00104100000000000000000000028800     
100   9503051024514339000000000005000000000005000000200000001041040101065108000061LCMWRW0101200113000061   1030000100030000   541120000018777031200000002MOB BANK               YGN           MMR11001010651080000610101000000000000000   10300002 00104100000000000000000000010000     
100   9503051020504219000000000011001000000011001000200000001041040101081458000775IYR0D40101200114000775   1030000100030000   569160000001777031200000006MOB BANK               YGN           MMR11001010814580007750101000000000000000   10300002 00104100000000000000000000033003     
100   9503051884284304000000000037749000000037749000200000001041040101081751000777EL2ZMM0101200114000777   1030000100030000   569160000001777031200000006MOB BANK               YGN           MMR11001010817510007770101000000000000000   10300002 00104100000000000000000000113247     
100   95030518907074050000000000042240000000042240002000000010410401010557230007222NEKQV0101200112000722   1030000100030000   581450000001777031200000005MOB BANK               YGN           MMR11001010557230007220101000000000000000   10300002 00104100000000000000000000006336     
100   35710500325415240000000000089300000000089300002000000010410401010659320002517204150101200113000251   1030000100030000   541120000002777031200000002MOB BANK               YGN           MMR11001010659320002510101000000000000000   10300005 00104100000000000000000000017860     
100   35710830068331220000000000137940000000137940002000000010410401010834120007792605410101200115000779   1030000100030000   569160000001777031200000006MOB BANK               YGN           MMR11001010834120007790101000000000000000   10300003 00104100000000000000000000041382     
100   9503051024299451000000000001485000000001485000200000001041040101114023000725AXWISG0101200118000725   1030000100030000   581450000001777031200000005MOB BANK               YGN           MMR11001011140230007250101000000000000000   10300002 00104100000000000000000000002227     
100   35710830972324810000000000083600000000083600002000000010410401010607330002181725500101200112000218   1030000100030000   581410001201777031200000012MOB BANK               YGN           MMR11001010607330002180101000000000000000   10300003 00104100000000000000000000012540     
100   9503051021835760000000000003960000000003960000200000001041040101110108000219RYJTVB0101200117000219   1030000100030000   581410001201777031200000012MOB BANK               YGN           MMR11001011101080002190101000000000000000   10300002 00104100000000000000000000005940     
100   35710950789997890000000000189200000000189200002000000010410401011103510002203503210101200117000220   1030000100030000   581410001201777031200000012MOB BANK               YGN           MMR11001011103510002200101000000000000000   10300003 00104100000000000000000000028380     
100   35710500311965360000000000018150000000018150002000000010410401010540270007219909700101200112000721   1030000100030000   581450000001777031200000005MOB BANK               YGN           MMR11001010540270007210101000000000000000   10300005 00104100000000000000000000002722     
100   35710500133802640000000000025080000000025080002000000010410401010737440007238961230101200114000723   1030000100030000   581450000001777031200000005MOB BANK               YGN           MMR11001010737440007230101000000000000000   10300005 00104100000000000000000000003762     
100   9503051895271274000000000000660000000000660000200000001041040101095842000724XV7GXN0101200116000724   1030000100030000   581450000001777031200000005MOB BANK               YGN           MMR11001010958420007240101000000000000000   10300002 00104100000000000000000000000990     
100   35710830491762730000000000046200000000046200002000000010410401011114500002213569130101200117000221   1030000100030000   581410001201777031200000012MOB BANK               YGN           MMR11001011114500002210101000000000000000   10300003 00104100000000000000000000006930     
100   9503051891746675000000000049830000000049830000200000001041040101133332000222ZWUPZF0101200120000222   1030000100030000   581410001201777031200000012MOB BANK               YGN           MMR11001011333320002220101000000000000000   10300002 00104100000000000000000000074745     
100   9503051025135811000000000001485000000001485000200000001041040101114535000726QELRMG0101200118000726   1030000100030000   581450000001777031200000005MOB BANK               YGN           MMR11001011145350007260101000000000000000   10300002 00104100000000000000000000002227     
100   35710900474312790000000000008250000000008250002000000010410401011203510007273863310101200118000727   1030000100030000   581450000001777031200000005MOB BANK               YGN           MMR11001011203510007270101000000000000000   10300003 00104100000000000000000000001237     
