100   35710500150779000000000000038800000000038800002000000010410405111248010008593472050511213119000859   1030000100030000   541110001903777031200000019MOB BANK               YGN           MMR11005111248010008590511000000000000000   10300005 00104100000000000000000000007760     
100   62346600128235440000000000043600000000043600002000000010410405110629240002438527620511213112000243   1030000100030000   541120003005777031200000030MOB BANK               YGN           MMR11005110629240002430511000000000000000   10300005 00104100000000000000000000008720     
100   35710830539264800000000000004650000000004650002000000010410405110545460002944794900511213112000294   1030000100030000   541120003003777031200000030MOB BANK               YGN           MMR11005110545460002940511000000000000000   10300003 00104100000000000000000000000930     
100   62343302000779110000000000005488000000005488002000000010410405110727550002971825480511213113000297   1030000100030000   541120003003777031200000030MOB BANK               YGN           MMR11005110727550002970511000000000000000   10300004 00104100000000000000000000001098     
100   35710830562374970000000000001100000000001100002000000010410405110546310003294799300511213112000329   1030000100030000   541120003104777031200000031MOB BANK               YGN           MMR11005110546310003290511000000000000000   10300003 00104100000000000000000000000220     
100   9503051885536397000000000004400000000004400000200000001041040511073619000333SPNUO30511213114000333   1030000100030000   541120003111777031200000031MOB BANK               YGN           MMR11005110736190003330511000000000000000   10300002 00104100000000000000000000008800     
100   9503051894314448000000000001040000000001040000200000001041040511082847000244MVDQZ40511213114000244   1030000100030000   541120003005777031200000030MOB BANK               YGN           MMR11005110828470002440511000000000000000   10300002 00104100000000000000000000002080     
100   35710500353329880000000000030800000000030800002000000010410405110741450008529560210511213114000852   1030000100030000   541110001903777031200000019MOB BANK               YGN           MMR11005110741450008520511000000000000000   10300005 00104100000000000000000000006160     
100   95031100001377110000000000016500000000016500002000000010410405110701270002200587290511213113000220   1030000100030000   541120003110777031200000031MOB BANK               YGN           MMR11005110701270002200511000000000000000   10300006 00104100000000000000000000003300     
100   62346600119883060000000000012000000000012000002000000010410405110822500003318398800511213114000331   1030000100030000   541120003104777031200000031MOB BANK               YGN           MMR11005110822500003310511000000000000000   10300005 00104100000000000000000000002400     
100   35710500375659570000000000009500000000009500002000000010410405110606290003435845910511213112000343   1030000100030000   541120003008777031200000030MOB BANK               YGN           MMR11005110606290003430511000000000000000   10300005 00104100000000000000000000001900     
100   35710500375335670000000000005300000000005300002000000010410405111012540001252395430511213116000125   1030000100030000   541120003002777031200000030MOB BANK               YGN           MMR11005111012540001250511000000000000000   10300005 00104100000000000000000000001060     
100   9503051024815116000000000000680000000000680000200000001041040511041259000182VUNMIZ0511213110000182   1030000100030000   541120003013777031200000030MOB BANK               YGN           MMR11005110412590001820511000000000000000   10300002 00104100000000000000000000001360     
100   35710500305175590000000000012000000000012000002000000010410405110725090002218325130511213113000221   1030000100030000   541120003110777031200000031MOB BANK               YGN           MMR11005110725090002210511000000000000000   10300005 00104100000000000000000000002400     
100   62346600120560040000000000023000000000023000002000000010410405111050090002229269040511213117000222   1030000100030000   541120003110777031200000031MOB BANK               YGN           MMR11005111050090002220511000000000000000   10300005 00104100000000000000000000004600     
100   9503051021336298000000000000710000000000710000200000001041040511095130000334TB00S50511213116000334   1030000100030000   541120003111777031200000031MOB BANK               YGN           MMR11005110951300003340511000000000000000   10300002 00104100000000000000000000001420     
100   95030518838667700000000000019700000000019700002000000010410405110949310003355TFC6S0511213116000335   1030000100030000   541120003104777031200000031MOB BANK               YGN           MMR11005110949310003350511000000000000000   10300002 00104100000000000000000000003940     
100   95030800077058380000000000095400000000095400002000000010410405110443110008494419400511213111000849   1030000100030000   541110001903777031200000019MOB BANK               YGN           MMR11005110443110008490511000000000000000   10300003 00104100000000000000000000019080     
100   9503051888865215000000000002500000000002500000200000001041040511092923001105VAT8UZ0511213115001105   1030000100030000   541120003117777031200000031MOB BANK               YGN           MMR11005110929230011050511000000000000000   10300002 00104100000000000000000000005000     
100   9503051894387717000000000002900000000002900000200000001041040511094451001848RYMRWQ0511213116001848   1030000100030000   541110001907777031200000019MOB BANK               YGN           MMR11005110944510018480511000000000000000   10300002 00104100000000000000000000005800     
100   9503051889983884000000000003100000000003100000200000001041040511064609001648SXVVNO0511213113001648   1030000100030000   541110001905777031200000019MOB BANK               YGN           MMR11005110646090016480511000000000000000   10300002 00104100000000000000000000006200     
100   9503051024990034000000000003219300000003219300200000001041040511103244001854DAJ12U0511213117001854   1030000100030000   541110001907777031200000019MOB BANK               YGN           MMR11005111032440018540511000000000000000   10300002 00104100000000000000000000006439     
100   9503051019533146000000000002900000000002900000200000001041040511100757001852SNL4XB0511213116001852   1030000100030000   541110001907777031200000019MOB BANK               YGN           MMR11005111007570018520511000000000000000   10300002 00104100000000000000000000005800     
100   62921400018171940000000000025500000000025500002000000010410405111020340010232222220511213116001023   1030000100030000   541120003106777031200000031MOB BANK               YGN           MMR11005111020340010230511000000000000000   10300009 00104100000000000000000000005100     
100   95030510228458830000000000021500000000021500002000000010410405111056350011097KHBCN0511213117001109   1030000100030000   541120003117777031200000031MOB BANK               YGN           MMR11005111056350011090511000000000000000   10300002 00104100000000000000000000004300     
100   62921400004596590000000000038800000000038800002000000010410405111038160008572222220511213117000857   1030000100030000   541110001903777031200000019MOB BANK               YGN           MMR11005111038160008570511000000000000000   10300009 00104100000000000000000000007760     
100   35710500325793420000000000145650000000145650002000000010410405110715080010965628630511213113001096   1030000100030000   541120003117777031200000031MOB BANK               YGN           MMR11005110715080010960511000000000000000   10300005 00104100000000000000000000029130     
100   35710500343600550000000000013916000000013916002000000010410405111046370018597410710511213117001859   1030000100030000   541110001907777031200000019MOB BANK               YGN           MMR11005111046370018590511000000000000000   10300005 00104100000000000000000000002783     
100   9503051894767397000000000003680000000003680000200000001041040511063225001644V8AYMY0511213113001644   1030000100030000   541110001905777031200000019MOB BANK               YGN           MMR11005110632250016440511000000000000000   10300002 00104100000000000000000000007360     
100   9503190000024432000000000003140000000003140000200000001041040511114311001863S4Y88Z0511213118001863   1030000100030000   541110001907777031200000019MOB BANK               YGN           MMR11005111143110018630511000000000000000   10300014 00104100000000000000000000006280     
100   35710830951897090000000000022500000000022500002000000010410405111139140011156915510511213118001115   1030000100030000   541120003117777031200000031MOB BANK               YGN           MMR11005111139140011150511000000000000000   10300003 00104100000000000000000000004500     
100   9503190000024432000000000002400000000002400000200000001041040511113631001861U16Y970511213118001861   1030000100030000   541110001907777031200000019MOB BANK               YGN           MMR11005111136310018610511000000000000000   10300014 00104100000000000000000000004800     
100   9503051021678723000000000003150000000003150000200000001041040511123455000858AUOH4F0511213119000858   1030000100030000   541110001903777031200000019MOB BANK               YGN           MMR11005111234550008580511000000000000000   10300002 00104100000000000000000000006300     
100   35710830526089070000000000040900000000040900002000000010410405110713060010015318710511213113001001   1030000100030000   541120003106777031200000031MOB BANK               YGN           MMR11005110713060010010511000000000000000   10300003 00104100000000000000000000008180     
100   62343302003686820000000000003773000000003773002000000010410405110340050018286070510511213110001828   1030000100030000   541110001907777031200000019MOB BANK               YGN           MMR11005110340050018280511000000000000000   10300004 00104100000000000000000000000755     
100   35710830280786800000000000048000000000048000002000000010410405110346180018304078000511213110001830   1030000100030000   541110001907777031200000019MOB BANK               YGN           MMR11005110346180018300511000000000000000   10300003 00104100000000000000000000009600     
100   35710500133992980000000000333600000000333600002000000010410405110347310018326131360511213110001832   1030000100030000   541110001907777031200000019MOB BANK               YGN           MMR11005110347310018320511000000000000000   10300005 00104100000000000000000000066720     
100   35710830125377410000000000019350000000019350002000000010410405111214310016627127320511213118001662   1030000100030000   541110001905777031200000019MOB BANK               YGN           MMR11005111214310016620511000000000000000   10300003 00104100000000000000000000003870     
100   95030201127933940000000000005850000000005850002000000010410405110758190010992608310511213114001099   1030000100030000   541120003117777031200000031MOB BANK               YGN           MMR11005110758190010990511000000000000000   10200002 00104100000000000000000000001170     
100   95030800077058380000000000016660000000016660002000000010410405110454260018344486900511213111001834   1030000100030000   541110001907777031200000019MOB BANK               YGN           MMR11005110454260018340511000000000000000   10300003 00104100000000000000000000003332     
100   35710500385425830000000000004400000000004400002000000010410405111136220011133625100511213118001113   1030000100030000   541120003117777031200000031MOB BANK               YGN           MMR11005111136220011130511000000000000000   10300005 00104100000000000000000000000880     
100   9503051894767397000000000002900000000002900000200000001041040511061112001840JHXDZJ0511213112001840   1030000100030000   541110001907777031200000019MOB BANK               YGN           MMR11005110611120018400511000000000000000   10300002 00104100000000000000000000005800     
100   9503051024203800000000000000750000000000750000200000001041040511063343001842NZ0U3V0511213113001842   1030000100030000   541110001907777031200000019MOB BANK               YGN           MMR11005110633430018420511000000000000000   10300002 00104100000000000000000000001500     
100   95030510226331800000000000014740000000014740002000000010410405111008570013899DJF3A0511213116001389   1030000100030000   581250000001777031200000005MOB BANK               YGN           MMR11005111008570013890511000000000000000   10300002 00104100000000000000000000005012     
100   95030518975133920000000000013500000000013500002000000010410405100901520000547JDEIY0510213015000054   1030000100030000   541180000001777031200000008MOB BANK               YGN           MMR11005100901520000540510000000000000000   10300002 00104100000000000000000000002700     
100   9503051889318883000000000004950000000004950000200000001041040511090557001844LP2NNN0511213115001844   1030000100030000   541110001907777031200000019MOB BANK               YGN           MMR11005110905570018440511000000000000000   10300002 00104100000000000000000000009900     
100   9503051896111891000000000002800000000002800000200000001041040511064833001655JRTG9L0511213113001655   1030000100030000   541110001905777031200000019MOB BANK               YGN           MMR11005110648330016550511000000000000000   10300002 00104100000000000000000000005600     
100   9503051888139074000000000003040000000003040000200000001041040511094343001846ET6TJ40511213116001846   1030000100030000   541110001907777031200000019MOB BANK               YGN           MMR11005110943430018460511000000000000000   10300002 00104100000000000000000000006080     
100   9503051022077016000000000000190000000000190000200000001041040511095210001850I0OSXV0511213116001850   1030000100030000   541110001907777031200000019MOB BANK               YGN           MMR11005110952100018500511000000000000000   10300002 00104100000000000000000000000380     
100   35710830651988130000000000005500000000005500002000000010410405111039470002486558820511213117000248   1030000100030000   541120003005777031200000030MOB BANK               YGN           MMR11005111039470002480511000000000000000   10300003 00104100000000000000000000001100     
100   95031900052138730000000000069100000000069100002000000010410405111445190005614SKDH90511213121000561   1030000100030000   581210001201777031200000012MOB BANK               YGN           MMR11005111445190005610511000000000000000   10300014 00104100000000000000000000023494     
100   35710950042096260000000000052800000000052800002000000010410405110820400005605724210511213114000560   1030000100030000   581210001201777031200000012MOB BANK               YGN           MMR11005110820400005600511000000000000000   10300003 00104100000000000000000000017952     
100   62346600173091920000000000035800000000035800002000000010410405111028260008558495100511213116000855   1030000100030000   541110001903777031200000019MOB BANK               YGN           MMR11005111028260008550511000000000000000   10300005 00104100000000000000000000007160     
100   62622000744059170000000000225800000000225800002000000010410405110730440001020411940511213114000102   1030000100030000   541120000010777031200000002MOB BANK               YGN           MMR11005110730440001020511000000000000000   10300006 00104100000000000000000000045160     
100   62622000744059170000000000018000000000018000002000000010410405110733330001030470300511213114000103   1030000100030000   541120000010777031200000002MOB BANK               YGN           MMR11005110733330001030511000000000000000   10300006 00104100000000000000000000003600     
100   35710500364239430000000000015000000000015000002000000010410405110704360003325274460511213113000332   1030000100030000   541120003111777031200000031MOB BANK               YGN           MMR11005110704360003320511000000000000000   10300005 00104100000000000000000000003000     
100   9503051024799567000000000000710000000000710000200000001041040511085709000333SRPKQX0511213115000333   1030000100030000   541120003104777031200000031MOB BANK               YGN           MMR11005110857090003330511000000000000000   10300002 00104100000000000000000000001420     
100   9503051894237250000000000024640000000024640000200000001041040511151239000562DCY8NM0511213121000562   1030000100030000   581210001201777031200000012MOB BANK               YGN           MMR11005111512390005620511000000000000000   10300002 00104100000000000000000000083776     
100   62346600140887650000000000009850000000009850002000000010410405111026580003370232680511213116000337   1030000100030000   541120003104777031200000031MOB BANK               YGN           MMR11005111026580003370511000000000000000   10300005 00104100000000000000000000001970     
100   35710500312711800000000000007290000000007290002000000010410405111030140001267657920511213117000126   1030000100030000   541120003002777031200000030MOB BANK               YGN           MMR11005111030140001260511000000000000000   10300005 00104100000000000000000000001458     
100   35710500373511430000000000010500000000010500002000000010410405110904560003010395060511213115000301   1030000100030000   541120003003777031200000030MOB BANK               YGN           MMR11005110904560003010511000000000000000   10300005 00104100000000000000000000002100     
100   9503051886008974000000000001590000000001590000200000001041040511113026000335DIFDGN0511213118000335   1030000100030000   541120003111777031200000031MOB BANK               YGN           MMR11005111130260003350511000000000000000   10300002 00104100000000000000000000003180     
100   95030518860089740000000000026500000000026500002000000010410405111141580003362NYQQG0511213118000336   1030000100030000   541120003111777031200000031MOB BANK               YGN           MMR11005111141580003360511000000000000000   10300002 00104100000000000000000000005300     
100   9503051892819539000000000001700000000001700000200000001041040511124450000339FOCZ3W0511213119000339   1030000100030000   541120003104777031200000031MOB BANK               YGN           MMR11005111244500003390511000000000000000   10300002 00104100000000000000000000003400     
100   35710830825140750000000000045540000000045540002000000010410405111354090007487725010511213120000748   1030000100030000   581210001501777031200000015MOB BANK               YGN           MMR11005111354090007480511000000000000000   10300003 00104100000000000000000000015484     
100   9503190001512856000000000000100000000000100000200000001041040511083443000011QQZ4CM0511213115000011   1030000100030000   541110080001777030800000001MOB BANK               YGN           MMR11005110834430000110511000000000000000   10300014 00104100000000000000000000000200     
100   62441900003533850000000000006200000000006200002000000010410405110613170002418929180511213112000241   1030000100030000   541120003005777031200000030MOB BANK               YGN           MMR11005110613170002410511000000000000000   10300003 00104100000000000000000000002170     
100   35710830320486950000000000014896000000014896002000000010410405110902090002455973100511213115000245   1030000100030000   541120003005777031200000030MOB BANK               YGN           MMR11005110902090002450511000000000000000   10300003 00104100000000000000000000002979     
100   62441900003533850000000000011550000000011550002000000010410405110618300002429031200511213112000242   1030000100030000   541120003005777031200000030MOB BANK               YGN           MMR11005110618300002420511000000000000000   10300003 00104100000000000000000000004042     
100   95030518910575600000000000055713000000055713002000000010410405111033010003030K6MFX0511213117000303   1030000100030000   541120003003777031200000030MOB BANK               YGN           MMR11005111033010003030511000000000000000   10300002 00104100000000000000000000011143     
100   9503051892819539000000000000700000000000700000200000001041040511125658000341DX5W830511213119000341   1030000100030000   541120003104777031200000031MOB BANK               YGN           MMR11005111256580003410511000000000000000   10300002 00104100000000000000000000001400     
100   35710830206666230000000000035020000000035020002000000010410405110346510003254081300511213110000325   1030000100030000   541120003104777031200000031MOB BANK               YGN           MMR11005110346510003250511000000000000000   10300003 00104100000000000000000000007004     
100   35710500104902720000000000004500000000004500002000000010410405110349130003271173910511213110000327   1030000100030000   541120003104777031200000031MOB BANK               YGN           MMR11005110349130003270511000000000000000   10300005 00104100000000000000000000000900     
100   9503051895141055000000000008900000000008900000200000001041040511042249000546OUWHMJ0511213110000546   1030000100030000   541120003103777031200000031MOB BANK               YGN           MMR11005110422490005460511000000000000000   10300002 00104100000000000000000000017800     
100   35710830920003470000000000015729000000015729002000000010410405111026410002466480210511213116000246   1030000100030000   541120003005777031200000030MOB BANK               YGN           MMR11005111026410002460511000000000000000   10300003 00104100000000000000000000003146     
100   62343302003737400000000000009150000000009150002000000010410405111038130002479055950511213117000247   1030000100030000   541120003005777031200000030MOB BANK               YGN           MMR11005111038130002470511000000000000000   10300004 00104100000000000000000000001830     
