100   9503051022112557000000000007735000000007735000200000001041040513070630001147E5ANXA0513213313001147   1030000100030000   541120003117777031200000031MOB BANK               YGN           MMR11005130706300011470513000000000000000   10300002 00104100000000000000000000015470     
100   35710830845264160000000000006100000000006100002000000010410405130739220001382756410513213314000138   1030000100030000   541120003002777031200000030MOB BANK               YGN           MMR11005130739220001380513000000000000000   10300003 00104100000000000000000000001220     
100   9503051887191076000000000000215600000000215600200000001041040513130300000270QYLUBD0513213319000270   1030000100030000   541120003005777031200000030MOB BANK               YGN           MMR11005131303000002700513000000000000000   10300002 00104100000000000000000000000431     
100   35710500190723290000000000024250000000024250002000000010410405131113130003309592320513213317000330   1030000100030000   541120003003777031200000030MOB BANK               YGN           MMR11005131113130003300513000000000000000   10300005 00104100000000000000000000004850     
100   35710830655588420000000000005550000000005550002000000010410405131028020002653768410513213316000265   1030000100030000   541120003005777031200000030MOB BANK               YGN           MMR11005131028020002650513000000000000000   10300003 00104100000000000000000000001110     
100   35710830715676210000000000012300000000012300002000000010410405130952460010673556800513213316001067   1030000100030000   541110001915777031200000019MOB BANK               YGN           MMR11005130952460010670513000000000000000   10300003 00104100000000000000000000002460     
100   9503051892738333000000000003490000000003490000200000001041040513093221001126VZMOVI0513213316001126   1030000100030000   541120003106777031200000031MOB BANK               YGN           MMR11005130932210011260513000000000000000   10300002 00104100000000000000000000006980     
100   9503051897627960000000000000915000000000915000200000001041040513052629000260PFO3BG0513213311000260   1030000100030000   541120003005777031200000030MOB BANK               YGN           MMR11005130526290002600513000000000000000   10300002 00104100000000000000000000001830     
100   95030510228446390000000000003800000000003800002000000010410405131107430002666YFOQ50513213317000266   1030000100030000   541120003005777031200000030MOB BANK               YGN           MMR11005131107430002660513000000000000000   10300002 00104100000000000000000000000760     
100   95030800077637790000000000060100000000060100002000000010410405130713330005672601500513213313000567   1030000100030000   581210001201777031200000012MOB BANK               YGN           MMR11005130713330005670513000000000000000   10300003 00104100000000000000000000020434     
100   62443000160214840000000000038800000000038800002000000010410405130609530008900904930513213312000890   1030000100030000   541110001903777031200000019MOB BANK               YGN           MMR11005130609530008900513000000000000000   10300005 00104100000000000000000000013580     
100   9503051022759548000000000001010000000001010000200000001041040513125014001717IXCTZU0513213319001717   1030000100030000   541110001905777031200000019MOB BANK               YGN           MMR11005131250140017170513000000000000000   10300002 00104100000000000000000000002020     
100   62346600115305610000000000028620000000028620002000000010410405130314470003444734480513213309000344   1030000100030000   541120003104777031200000031MOB BANK               YGN           MMR11005130314470003440513000000000000000   10300005 00104100000000000000000000005724     
100   9503051020296568000000000001300000000001300000200000001041040513065718000361OSZTRQ0513213313000361   1030000100030000   541120003008777031200000030MOB BANK               YGN           MMR11005130657180003610513000000000000000   10300002 00104100000000000000000000002600     
100   35710830257243510000000000005600000000005600002000000010410405131026500003263761110513213316000326   1030000100030000   541120003003777031200000030MOB BANK               YGN           MMR11005131026500003260513000000000000000   10300003 00104100000000000000000000001120     
100   9503051894604186000000000001550000000001550000200000001041040513112048000932DOP7IK0513213317000932   1030000100030000   541110001920777031200000019MOB BANK               YGN           MMR11005131120480009320513000000000000000   10300002 00104100000000000000000000003100     
100   950305102571443300000000000867000000000867000020000000104104051304032000153470CCP20513213310001534   1030000100030000   541160000001777031200000006MOB BANK               YGN           MMR11005130403200015340513000000000000000   10300002 00104100000000000000000000017340     
100   62622000536341490000000000075000000000075000002000000010410405130338060001941933930513213310000194   1030000100030000   541120003013777031200000030MOB BANK               YGN           MMR11005130338060001940513000000000000000   10300006 00104100000000000000000000015000     
100   9503051021785742000000000000626400000000626400200000001041040513061943001063KZTLL50513213312001063   1030000100030000   541110001915777031200000019MOB BANK               YGN           MMR11005130619430010630513000000000000000   10300002 00104100000000000000000000001253     
100   62346600125485390000000000019500000000019500002000000010410405131055180011308052500513213317001130   1030000100030000   541120003106777031200000031MOB BANK               YGN           MMR11005131055180011300513000000000000000   10300005 00104100000000000000000000003900     
100   35710830560639430000000000029205000000029205002000000010410405130959320013973597410513213316001397   1030000100030000   581250000001777031200000005MOB BANK               YGN           MMR11005130959320013970513000000000000000   10300003 00104100000000000000000000009930     
100   9503190000616146000000000009240000000009240000200000001041040512130716000565N7ZSGM0512213219000565   1030000100030000   581210001201777031200000012MOB BANK               YGN           MMR11005121307160005650512000000000000000   10300014 00104100000000000000000000031416     
100   35710830425187030000000000012000000000012000002000000010410405130714200001362606310513213313000136   1030000100030000   541120003002777031200000030MOB BANK               YGN           MMR11005130714200001360513000000000000000   10300003 00104100000000000000000000002400     
100   35710830515799190000000000012970000000012970002000000010410405131143040002674218610513213318000267   1030000100030000   541120003005777031200000030MOB BANK               YGN           MMR11005131143040002670513000000000000000   10300003 00104100000000000000000000002594     
100   35710500380336740000000000004753000000004753002000000010410405130721310002617583030513213313000261   1030000100030000   541120003005777031200000030MOB BANK               YGN           MMR11005130721310002610513000000000000000   10300005 00104100000000000000000000000951     
100   95030518946041860000000000013700000000013700002000000010410405131115190010748DVXZ60513213317001074   1030000100030000   541110001915777031200000019MOB BANK               YGN           MMR11005131115190010740513000000000000000   10300002 00104100000000000000000000002740     
100   9503051887695639000000000002160000000002160000200000001041040513094656000199JRRZBN0513213316000199   1030000100030000   541120003013777031200000030MOB BANK               YGN           MMR11005130946560001990513000000000000000   10300002 00104100000000000000000000004320     
100   35710500383226480000000000011500000000011500002000000010410405130701590001349985640513213313000134   1030000100030000   541120003002777031200000030MOB BANK               YGN           MMR11005130701590001340513000000000000000   10300005 00104100000000000000000000002300     
100   95030518954394340000000000013850000000013850002000000010410405130504310003203RXKBU0513213311000320   1030000100030000   541120003003777031200000030MOB BANK               YGN           MMR11005130504310003200513000000000000000   10300002 00104100000000000000000000002770     
100   9503051886264858000000000016700000000016700000200000001041040513080254001150AZAYSG0513213314001150   1030000100030000   541120003117777031200000031MOB BANK               YGN           MMR11005130802540011500513000000000000000   10300002 00104100000000000000000000033400     
100   35710830670522810000000000011330000000011330002000000010410405130549090013962095010513213312001396   1030000100030000   581250000001777031200000005MOB BANK               YGN           MMR11005130549090013960513000000000000000   10300003 00104100000000000000000000003852     
100   35710500134279330000000000126700000000126700002000000010410405130416590019118835030513213310001911   1030000100030000   541110001907777031200000019MOB BANK               YGN           MMR11005130416590019110513000000000000000   10300005 00104100000000000000000000025340     
100   62346600105154800000000000027000000000027000002000000010410405130620590019134649160513213312001913   1030000100030000   541110001907777031200000019MOB BANK               YGN           MMR11005130620590019130513000000000000000   10300005 00104100000000000000000000005400     
100   35710830550486220000000000014400000000014400002000000010410405130959170001393595900513213316000139   1030000100030000   541120003002777031200000030MOB BANK               YGN           MMR11005130959170001390513000000000000000   10300003 00104100000000000000000000002880     
100   62346600140653260000000000008960000000008960002000000010410405130505380002746792340513213311000274   1030000100030000   541120003001777031200000030MOB BANK               YGN           MMR11005130505380002740513000000000000000   10300005 00104100000000000000000000001792     
100   62346600171170090000000000006800000000006800002000000010410405131231050003327242640513213319000332   1030000100030000   541120003003777031200000030MOB BANK               YGN           MMR11005131231050003320513000000000000000   10300005 00104100000000000000000000001360     
100   95031100011159890000000000039900000000039900002000000010410405130313380008851933820513213309000885   1030000100030000   541110001903777031200000019MOB BANK               YGN           MMR11005130313380008850513000000000000000   10300006 00104100000000000000000000007980     
100   9503051887518096000000000001521000000001521000200000001041040513054503000131J6IOMK0513213312000131   1030000100030000   541120003002777031200000030MOB BANK               YGN           MMR11005130545030001310513000000000000000   10300002 00104100000000000000000000003042     
100   35710830550486220000000000034500000000034500002000000010410405130939460001593478710513213316000159   1030000100030000   541120003012777031200000030MOB BANK               YGN           MMR11005130939460001590513000000000000000   10300003 00104100000000000000000000006900     
100   35710830757058960000000000003350000000003350002000000010410405130726580002622682010513213313000262   1030000100030000   541120003005777031200000030MOB BANK               YGN           MMR11005130726580002620513000000000000000   10300003 00104100000000000000000000000670     
100   9503051022074195000000000002750000000002750000200000001041040513065910000760SXKP5M0513213313000760   1030000100030000   581210001501777031200000015MOB BANK               YGN           MMR11005130659100007600513000000000000000   10300002 00104100000000000000000000009350     
100   9503051888957905000000000002880000000002880000200000001041040513062350000892E2YWHX0513213312000892   1030000100030000   541110001903777031200000019MOB BANK               YGN           MMR11005130623500008920513000000000000000   10300002 00104100000000000000000000005760     
100   62343302009347800000000000018000000000018000002000000010410405130843470011229889200513213315001122   1030000100030000   541120003106777031200000031MOB BANK               YGN           MMR11005130843470011220513000000000000000   10300004 00104100000000000000000000003600     
100   950305101956127900000000000660000000000660000020000000104104051312442800107686QNVJ0513213319001076   1030000100030000   541110001915777031200000019MOB BANK               YGN           MMR11005131244280010760513000000000000000   10300002 00104100000000000000000000013200     
100   9503051873794842000000000009897000000009897000200000001041040513095829000200PVVCER0513213316000200   1030000100030000   541120003013777031200000030MOB BANK               YGN           MMR11005130958290002000513000000000000000   10300002 00104100000000000000000000019794     
100   9503051894604186000000000002641000000002641000200000001041040513112926000935ICP1TV0513213317000935   1030000100030000   541110001920777031200000019MOB BANK               YGN           MMR11005131129260009350513000000000000000   10300002 00104100000000000000000000005282     
100   9503051891947349000000000001270000000001270000200000001041040513100213001069ONDFFB0513213316001069   1030000100030000   541110001915777031200000019MOB BANK               YGN           MMR11005131002130010690513000000000000000   10300002 00104100000000000000000000002540     
100   9503051024582161000000000003670000000003670000200000001041040513091339001918KCGJIS0513213315001918   1030000100030000   541110001907777031200000019MOB BANK               YGN           MMR11005130913390019180513000000000000000   10300002 00104100000000000000000000007340     
100   35710500136394530000000000105700000000105700002000000010410405131038420019237554720513213317001923   1030000100030000   541110001907777031200000019MOB BANK               YGN           MMR11005131038420019230513000000000000000   10300005 00104100000000000000000000021140     
100   95030510234790620000000000028900000000028900002000000010410405130503190001954FIVP20513213311000195   1030000100030000   541120003013777031200000030MOB BANK               YGN           MMR11005130503190001950513000000000000000   10300002 00104100000000000000000000005780     
100   9503051887695639000000000000220000000000220000200000001041040513100633000276GRYDRA0513213316000276   1030000100030000   541120003001777031200000030MOB BANK               YGN           MMR11005131006330002760513000000000000000   10300002 00104100000000000000000000000440     
100   9503051023960145000000000001550000000001550000200000001041040513032316001143NBERCS0513213309001143   1030000100030000   541120003117777031200000031MOB BANK               YGN           MMR11005130323160011430513000000000000000   10300002 00104100000000000000000000003100     
100   35710830100298400000000000073300000000073300002000000010410405130625410010652314300513213312001065   1030000100030000   541110001915777031200000019MOB BANK               YGN           MMR11005130625410010650513000000000000000   10300003 00104100000000000000000000014660     
100   9503051021678723000000000000290000000000290000200000001041040513115502001925T1JQ4Z0513213318001925   1030000100030000   541110001907777031200000019MOB BANK               YGN           MMR11005131155020019250513000000000000000   10300002 00104100000000000000000000000580     
100   9503051021678723000000000001200000000001200000200000001041040513115803001927N2LMRE0513213318001927   1030000100030000   541110001907777031200000019MOB BANK               YGN           MMR11005131158030019270513000000000000000   10300002 00104100000000000000000000002400     
100   35710500334209340000000000028567000000028567002000000010410405130414400016959757300513213310001695   1030000100030000   541110001905777031200000019MOB BANK               YGN           MMR11005130414400016950513000000000000000   10300005 00104100000000000000000000005714     
100   35710500393361670000000000019700000000019700002000000010410405130922480017000234740513213315001700   1030000100030000   541110001905777031200000019MOB BANK               YGN           MMR11005130922480017000513000000000000000   10300005 00104100000000000000000000003940     
100   95030518920761710000000000015150000000015150002000000010410405130733520003465CUZSC0513213314000346   1030000100030000   541120003104777031200000031MOB BANK               YGN           MMR11005130733520003460513000000000000000   10300002 00104100000000000000000000003030     
100   35710500370440370000000000008869000000008869002000000010410405131200590002690593960513213318000269   1030000100030000   541120003005777031200000030MOB BANK               YGN           MMR11005131200590002690513000000000000000   10300005 00104100000000000000000000001774     
100   35710830500525530000000000014504000000014504002000000010410405130733330002632721420513213314000263   1030000100030000   541120003005777031200000030MOB BANK               YGN           MMR11005130733330002630513000000000000000   10300003 00104100000000000000000000002901     
100   35710500174430010000000000010500000000010500002000000010410405131149380003693138780513213318000369   1030000100030000   541120003008777031200000030MOB BANK               YGN           MMR11005131149380003690513000000000000000   10300005 00104100000000000000000000002100     
100   35710830845264160000000000006000000000006000002000000010410405130731290003642709100513213314000364   1030000100030000   541120003008777031200000030MOB BANK               YGN           MMR11005130731290003640513000000000000000   10300003 00104100000000000000000000001200     
100   9503054000409615000000000003570000000003570000200000001041040513100652001071OMGAJN0513213316001071   1030000100030000   541110001915777031200000019MOB BANK               YGN           MMR11005131006520010710513000000000000000   10300002 00104100000000000000000000007140     
100   9503051025736071000000000000800000000000800000200000001041040513123754001929XJZTC30513213319001929   1030000100030000   541110001907777031200000019MOB BANK               YGN           MMR11005131237540019290513000000000000000   10300002 00104100000000000000000000001600     
100   35710500313696530000000000004320000000004320002000000010410405130557500001321165930513213312000132   1030000100030000   541120003002777031200000030MOB BANK               YGN           MMR11005130557500001320513000000000000000   10300005 00104100000000000000000000000864     
100   9503051895061402000000000006800000000006800000200000001041040513061154000358OVKVAH0513213312000358   1030000100030000   541120003008777031200000030MOB BANK               YGN           MMR11005130611540003580513000000000000000   10300002 00104100000000000000000000013600     
100   62622000226252440000000000009102000000009102002000000010410405131125460002771905210513213317000277   1030000100030000   541120003001777031200000030MOB BANK               YGN           MMR11005131125460002770513000000000000000   10300006 00104100000000000000000000001820     
100   35710500135280450000000000015840000000015840002000000010410405130546590008885939400513213312000888   1030000100030000   541110001903777031200000019MOB BANK               YGN           MMR11005130546590008880513000000000000000   10300005 00104100000000000000000000003168     
100   9503051890637446000000000000534100000000534100200000001041040513110949000929Z8GZTV0513213317000929   1030000100030000   541110001920777031200000019MOB BANK               YGN           MMR11005131109490009290513000000000000000   10300002 00104100000000000000000000001068     
100   95030800098253110000000000057722000000057722002000000010410405131010560017103665810513213316001710   1030000100030000   541110001905777031200000019MOB BANK               YGN           MMR11005131010560017100513000000000000000   10300003 00104100000000000000000000011544     
100   9503051887695639000000000006000000000006000000200000001041040513100020000161SMQA3P0513213316000161   1030000100030000   541120003012777031200000030MOB BANK               YGN           MMR11005131000200001610513000000000000000   10300002 00104100000000000000000000012000     
100   35710830335794410000000000002450000000002450002000000010410405131244100003534585210513213319000353   1030000100030000   541120003104777031200000031MOB BANK               YGN           MMR11005131244100003530513000000000000000   10300003 00104100000000000000000000000490     
100   35710830898149240000000000034760000000034760002000000010410405131216310007624419300513213318000762   1030000100030000   581210001501777031200000015MOB BANK               YGN           MMR11005131216310007620513000000000000000   10300003 00104100000000000000000000011818     
100   9503051025472917000000000001680000000001680000200000001041040513050837001061HU7PWE0513213311001061   1030000100030000   541110001915777031200000019MOB BANK               YGN           MMR11005130508370010610513000000000000000   10300002 00104100000000000000000000003360     
100   9503051021039918000000000001336000000001336000200000001041040513104926000348GAPSDW0513213317000348   1030000100030000   541120003104777031200000031MOB BANK               YGN           MMR11005131049260003480513000000000000000   10300002 00104100000000000000000000002672     
100   9503051886264858000000000001500000000001500000200000001041040513081754001119XLTGCD0513213314001119   1030000100030000   541120003106777031200000031MOB BANK               YGN           MMR11005130817540011190513000000000000000   10300002 00104100000000000000000000003000     
100   35710830320895580000000000016200000000016200002000000010410405130843200011553140110513213315001155   1030000100030000   541120003117777031200000031MOB BANK               YGN           MMR11005130843200011550513000000000000000   10300003 00104100000000000000000000003240     
100   35710830655588420000000000004000000000004000002000000010410405131052560002013917710513213317000201   1030000100030000   541120003013777031200000030MOB BANK               YGN           MMR11005131052560002010513000000000000000   10300003 00104100000000000000000000000800     
