100   35710500365716590000000000012120000000012120002000000010410405221228150011217513560522214218001121   1030000100030000   541110001920777031200000019MOB BANK               YGN           MMR11005221228150011210522000000000000000   10300005 00104100000000000000000000002424     
100   35710500365723920000000000021300000000021300002000000010410405220933300023970216080522214216002397   1030000100030000   541110001907777031200000019MOB BANK               YGN           MMR11005220933300023970522000000000000000   10300005 00104100000000000000000000004260     
100   35710900363547060000000000263760000000263760002000000010410405220703320023630301410522214213002363   1030000100030000   541110001907777031200000019MOB BANK               YGN           MMR11005220703320023630522000000000000000   10300003 00104100000000000000000000052752     
100   9503051892658028000000000003299000000003299000200000001041040522040825000263XZKPGC0522214210000263   1030000100030000   541120003013777031200000030MOB BANK               YGN           MMR11005220408250002630522000000000000000   10300002 00104100000000000000000000006598     
100   62441900103691730000000000006400000000006400002000000010410405220431250002642960690522214211000264   1030000100030000   541120003013777031200000030MOB BANK               YGN           MMR11005220431250002640522000000000000000   10300003 00104100000000000000000000002240     
100   35710500334721330000000000067500000000067500002000000010410405220934250002056563990522214216000205   1030000100030000   541120003002777031200000030MOB BANK               YGN           MMR11005220934250002050522000000000000000   10300005 00104100000000000000000000013500     
100   95030518905859340000000000039100000000039100002000000010410405220623380003993BXM0R0522214212000399   1030000100030000   541120003111777031200000031MOB BANK               YGN           MMR11005220623380003990522000000000000000   10300002 00104100000000000000000000007820     
100   35710830515799190000000000005870000000005870002000000010410405221010430003581424410522214216000358   1030000100030000   541120003005777031200000030MOB BANK               YGN           MMR11005221010430003580522000000000000000   10300003 00104100000000000000000000001174     
100   9503051023969575000000000012760000000012760000200000001041040522120558000604S3UU100522214218000604   1030000100030000   581210001201777031200000012MOB BANK               YGN           MMR11005221205580006040522000000000000000   10300002 00104100000000000000000000043384     
100   9503051887956775000000000001265000000001265000200000001041040522081257001441Y3OGAW0522214214001441   1030000100030000   581250000001777031200000005MOB BANK               YGN           MMR11005220812570014410522000000000000000   10300002 00104100000000000000000000004301     
100   35710500156347180000000000023000000000023000002000000010410405220711100014294443610522214213001429   1030000100030000   541120003106777031200000031MOB BANK               YGN           MMR11005220711100014290522000000000000000   10300005 00104100000000000000000000004600     
100   35710500365715350000000000030000000000030000002000000010410405221223450012448194330522214218001244   1030000100030000   541110001915777031200000019MOB BANK               YGN           MMR11005221223450012440522000000000000000   10300005 00104100000000000000000000006000     
100   9503051025890712000000000000729000000000729000200000001041040522053414001094WLKWTU0522214212001094   1030000100030000   541110001920777031200000019MOB BANK               YGN           MMR11005220534140010940522000000000000000   10300002 00104100000000000000000000001458     
100   35710830046699400000000000032800000000032800002000000010410405220742540011660537510522214214001166   1030000100030000   541110001903777031200000019MOB BANK               YGN           MMR11005220742540011660522000000000000000   10300003 00104100000000000000000000006560     
100   35710830503000930000000000010950000000010950002000000010410405221059370011851717820522214217001185   1030000100030000   541110001903777031200000019MOB BANK               YGN           MMR11005221059370011850522000000000000000   10300003 00104100000000000000000000002190     
100   9503051872833948000000000002380000000002380000200000001041040522051748001222GRFNBH0522214211001222   1030000100030000   541110001915777031200000019MOB BANK               YGN           MMR11005220517480012220522000000000000000   10300002 00104100000000000000000000004760     
100   9503051892507738000000000001710000000001710000200000001041040521071159000597XDEMAA0521214113000597   1030000100030000   581210001201777031200000012MOB BANK               YGN           MMR11005210711590005970521000000000000000   10300002 00104100000000000000000000005814     
100   35710830198439850000000000124000000000124000002000000010410405210901420005982370320521214115000598   1030000100030000   581210001201777031200000012MOB BANK               YGN           MMR11005210901420005980521000000000000000   10300003 00104100000000000000000000042160     
100   35710830350196280000000000029700000000029700002000000010410405211216090005993537020521214118000599   1030000100030000   581210001201777031200000012MOB BANK               YGN           MMR11005211216090005990521000000000000000   10300003 00104100000000000000000000010098     
100   35710950756052230000000000313100000000313100002000000010410405211330290006003983110521214120000600   1030000100030000   581210001201777031200000012MOB BANK               YGN           MMR11005211330290006000521000000000000000   10300003 00104100000000000000000000106454     
100   9503051025982634000000000002180000000002180000200000001041040522053410000265OJVGGA0522214212000265   1030000100030000   541120003013777031200000030MOB BANK               YGN           MMR11005220534100002650522000000000000000   10300002 00104100000000000000000000004360     
100   9503051025982634000000000008850000000008850000200000001041040522053645000206ZWK2OH0522214212000206   1030000100030000   541120003012777031200000030MOB BANK               YGN           MMR11005220536450002060522000000000000000   10300002 00104100000000000000000000017700     
100   62921400047263430000000000018000000000018000002000000010410405220609300002422222220522214212000242   1030000100030000   541110001917777031200000019MOB BANK               YGN           MMR11005220609300002420522000000000000000   10300009 00104100000000000000000000003600     
100   9503051887191076000000000000450000000000450000200000001041040522124513000360VOIVZ60522214219000360   1030000100030000   541120003005777031200000030MOB BANK               YGN           MMR11005221245130003600522000000000000000   10300002 00104100000000000000000000000900     
100   9503051021863127000000000012006000000012006000200000001041040522055620001586AKCOZC0522214212001586   1030000100030000   541160000001777031200000006MOB BANK               YGN           MMR11005220556200015860522000000000000000   10300002 00104100000000000000000000024012     
100   9503051889622060000000000001450000000001450000200000001041040522102925002039MT4LI20522214216002039   1030000100030000   541110001905777031200000019MOB BANK               YGN           MMR11005221029250020390522000000000000000   10300002 00104100000000000000000000002900     
100   9503051896176498000000000001770000000001770000200000001041040522104641002041LYXDRI0522214217002041   1030000100030000   541110001905777031200000019MOB BANK               YGN           MMR11005221046410020410522000000000000000   10300002 00104100000000000000000000003540     
100   35710830878647070000000000042400000000042400002000000010410405220945070024001270900522214216002400   1030000100030000   541110001907777031200000019MOB BANK               YGN           MMR11005220945070024000522000000000000000   10300003 00104100000000000000000000008480     
100   9503051023148998000000000001286400000001286400200000001041040522064909000201S7HQ7M0522214213000201   1030000100030000   541120003002777031200000030MOB BANK               YGN           MMR11005220649090002010522000000000000000   10300002 00104100000000000000000000002573     
100   35710500333957480000000000021800000000021800002000000010410405220652460020296549150522214213002029   1030000100030000   541110001905777031200000019MOB BANK               YGN           MMR11005220652460020290522000000000000000   10300005 00104100000000000000000000004360     
100   62921400021445490000000000008800000000008800002000000010410405220424280020172222220522214210002017   1030000100030000   541110001905777031200000019MOB BANK               YGN           MMR11005220424280020170522000000000000000   10300009 00104100000000000000000000001760     
100   35710500334721330000000000042400000000042400002000000010410405221028340001562239950522214216000156   1030000100030000   541120003006777031200000030MOB BANK               YGN           MMR11005221028340001560522000000000000000   10300005 00104100000000000000000000008480     
100   9503051021337783000000000010560000000010560000200000001041040522125323000605ETQQVP0522214219000605   1030000100030000   581210001201777031200000012MOB BANK               YGN           MMR11005221253230006050522000000000000000   10300002 00104100000000000000000000035904     
100   9503051892966637000000000000770000000000770000200000001041040522101103001443WLDA9I0522214216001443   1030000100030000   581250000001777031200000005MOB BANK               YGN           MMR11005221011030014430522000000000000000   10300002 00104100000000000000000000002618     
100   9503051025745213000000000000640000000000640000200000001041040522054323001099FMBNWA0522214212001099   1030000100030000   541110001920777031200000019MOB BANK               YGN           MMR11005220543230010990522000000000000000   10300002 00104100000000000000000000001280     
100   9503190006744132000000000006380000000006380000200000001041040522112231001187XCGQDF0522214217001187   1030000100030000   541110001903777031200000019MOB BANK               YGN           MMR11005221122310011870522000000000000000   10300014 00104100000000000000000000012760     
100   9503051026019527000000000001885000000001885000200000001041040522052753001224EBG1FU0522214211001224   1030000100030000   541110001915777031200000019MOB BANK               YGN           MMR11005220527530012240522000000000000000   10300002 00104100000000000000000000003770     
100   9503051020604555000000000002580000000002580000200000001041040522061204001588VVY74L0522214212001588   1030000100030000   541160000001777031200000006MOB BANK               YGN           MMR11005220612040015880522000000000000000   10300002 00104100000000000000000000005160     
100   9503051025823069000000000002146000000002146000200000001041040522112030002043DNGE9H0522214217002043   1030000100030000   541110001905777031200000019MOB BANK               YGN           MMR11005221120300020430522000000000000000   10300002 00104100000000000000000000004292     
100   9503054000782417000000000000543000000000543000200000001041040522055434002352FUEGDO0522214212002352   1030000100030000   541110001907777031200000019MOB BANK               YGN           MMR11005220554340023520522000000000000000   10300002 00104100000000000000000000001086     
100   35710830234749420000000000003150000000003150002000000010410405221307530004442487510522214219000444   1030000100030000   541120003104777031200000031MOB BANK               YGN           MMR11005221307530004440522000000000000000   10300003 00104100000000000000000000000630     
100   9503051026323960000000000000929500000000929500200000001041040522100537001442HY5TAP0522214216001442   1030000100030000   581250000001777031200000005MOB BANK               YGN           MMR11005221005370014420522000000000000000   10300002 00104100000000000000000000003160     
100   9503051894474481000000000001250000000001250000200000001041040522051540001150ZBTX1T0522214211001150   1030000100030000   541110001903777031200000019MOB BANK               YGN           MMR11005220515400011500522000000000000000   10300002 00104100000000000000000000002500     
100   9503051872833948000000000002190000000002190000200000001041040522050528002349BLBRIL0522214211002349   1030000100030000   541110001907777031200000019MOB BANK               YGN           MMR11005220505280023490522000000000000000   10300002 00104100000000000000000000004380     
100   35710830247716840000000000118200000000118200002000000010410405220332400015819036210522214210001581   1030000100030000   541160000001777031200000006MOB BANK               YGN           MMR11005220332400015810522000000000000000   10300003 00104100000000000000000000023640     
100   95031900033640250000000000004150000000004150002000000010410405220428020023398A344A0522214210002339   1030000100030000   541110001907777031200000019MOB BANK               YGN           MMR11005220428020023390522000000000000000   10300014 00104100000000000000000000000830     
100   9503051020658536000000000001832000000001832000200000001041040522080036002385OY5PSM0522214214002385   1030000100030000   541110001907777031200000019MOB BANK               YGN           MMR11005220800360023850522000000000000000   10300002 00104100000000000000000000003664     
100   62921400010680950000000000029900000000029900002000000010410405220546080011522222220522214212001152   1030000100030000   541110001903777031200000019MOB BANK               YGN           MMR11005220546080011520522000000000000000   10300009 00104100000000000000000000005980     
100   9503051021179623000000000003080000000003080000200000001041040522074757001169HMRXVS0522214214001169   1030000100030000   541110001903777031200000019MOB BANK               YGN           MMR11005220747570011690522000000000000000   10300002 00104100000000000000000000006160     
100   62921400047263430000000000017700000000017700002000000010410405220702370020312222220522214213002031   1030000100030000   541110001905777031200000019MOB BANK               YGN           MMR11005220702370020310522000000000000000   10300009 00104100000000000000000000003540     
100   9503054000782417000000000000540000000000540000200000001041040522054830000238WAGBZF0522214212000238   1030000100030000   541110001917777031200000019MOB BANK               YGN           MMR11005220548300002380522000000000000000   10300002 00104100000000000000000000001080     
100   95031100019274410000000000031790000000031790002000000010410405221148430014444774950522214218001444   1030000100030000   581250000001777031200000005MOB BANK               YGN           MMR11005221148430014440522000000000000000   10300006 00104100000000000000000000010809     
100   9503051888914401000000000000595000000000595000200000001041040522120344001445B0KWGX0522214218001445   1030000100030000   581250000001777031200000005MOB BANK               YGN           MMR11005221203440014450522000000000000000   10300002 00104100000000000000000000002023     
100   9503051020299356000000000002400000000002400000200000001041040522045126001215LEDWFT0522214211001215   1030000100030000   541110001915777031200000019MOB BANK               YGN           MMR11005220451260012150522000000000000000   10300002 00104100000000000000000000004800     
100   35710830364713150000000000029450000000029450002000000010410405221136530024251941410522214218002425   1030000100030000   541110001907777031200000019MOB BANK               YGN           MMR11005221136530024250522000000000000000   10300003 00104100000000000000000000005890     
100   95030518733648020000000000065400000000065400002000000010410405221140520012406KMPXM0522214218001240   1030000100030000   541110001915777031200000019MOB BANK               YGN           MMR11005221140520012400522000000000000000   10300002 00104100000000000000000000013080     
100   9503051886454434000000000000890000000000890000200000001041040522074010000248PKFAAU0522214214000248   1030000100030000   541110001917777031200000019MOB BANK               YGN           MMR11005220740100002480522000000000000000   10300002 00104100000000000000000000001780     
100   95030510254117900000000000019950000000019950002000000010410405220600170003198SKUDT0522214212000319   1030000100030000   541120003001777031200000030MOB BANK               YGN           MMR11005220600170003190522000000000000000   10300002 00104100000000000000000000003990     
100   62921400061700860000000000004900000000004900002000000010410405220354250003422222220522214210000342   1030000100030000   541120003005777031200000030MOB BANK               YGN           MMR11005220354250003420522000000000000000   10300009 00104100000000000000000000000980     
100   9503051026080859000000000000315000000000315000200000001041040522062330000507LX609A0522214212000507   1030000100030000   541120003008777031200000030MOB BANK               YGN           MMR11005220623300005070522000000000000000   10300002 00104100000000000000000000000630     
100   9503054000586347000000000004230000000004230000200000001041040522083719000509LZKDKT0522214215000509   1030000100030000   541120003008777031200000030MOB BANK               YGN           MMR11005220837190005090522000000000000000   10300002 00104100000000000000000000008460     
100   9503051887044812000000000003350000000003350000200000001041040522033507001422NKB9QK0522214210001422   1030000100030000   541120003106777031200000031MOB BANK               YGN           MMR11005220335070014220522000000000000000   10300002 00104100000000000000000000006700     
100   62921400030077520000000000011205000000011205002000000010410405220611330011032222220522214212001103   1030000100030000   541110001920777031200000019MOB BANK               YGN           MMR11005220611330011030522000000000000000   10300009 00104100000000000000000000002241     
100   35710500160858110000000000030100000000030100002000000010410405220634050011050406070522214213001105   1030000100030000   541110001920777031200000019MOB BANK               YGN           MMR11005220634050011050522000000000000000   10300005 00104100000000000000000000006020     
100   9503051021179623000000000002180000000002180000200000001041040522082124001171JQQVJT0522214214001171   1030000100030000   541110001903777031200000019MOB BANK               YGN           MMR11005220821240011710522000000000000000   10300002 00104100000000000000000000004360     
100   9503051025091956000000000003880000000003880000200000001041040522120514001189C2EF0Y0522214218001189   1030000100030000   541110001903777031200000019MOB BANK               YGN           MMR11005221205140011890522000000000000000   10300002 00104100000000000000000000007760     
100   9503051021863127000000000000630000000000630000200000001041040522073807001590U6VIQN0522214214001590   1030000100030000   541160000001777031200000006MOB BANK               YGN           MMR11005220738070015900522000000000000000   10300002 00104100000000000000000000001260     
100   35710500384213410000000000026300000000026300002000000010410405221059400024096752410522214217002409   1030000100030000   541110001907777031200000019MOB BANK               YGN           MMR11005221059400024090522000000000000000   10300005 00104100000000000000000000005260     
100   9503051019937511000000000002298600000002298600200000001041040522043537002342G45VQS0522214211002342   1030000100030000   541110001907777031200000019MOB BANK               YGN           MMR11005220435370023420522000000000000000   10300002 00104100000000000000000000004597     
100   9503051021179623000000000009800000000009800000200000001041040522081335002390AWDJRH0522214214002390   1030000100030000   541110001907777031200000019MOB BANK               YGN           MMR11005220813350023900522000000000000000   10300002 00104100000000000000000000019600     
100   95030800003766940000000000037500000000037500002000000010410405220703200002440300200522214213000244   1030000100030000   541110001917777031200000019MOB BANK               YGN           MMR11005220703200002440522000000000000000   10300003 00104100000000000000000000007500     
100   35710500355429580000000000042720000000042720002000000010410405221217530011919882470522214218001191   1030000100030000   541110001903777031200000019MOB BANK               YGN           MMR11005221217530011910522000000000000000   10300005 00104100000000000000000000008544     
100   62622000722616680000000000040000000000040000002000000010410405220611410012294773840522214212001229   1030000100030000   541110001915777031200000019MOB BANK               YGN           MMR11005220611410012290522000000000000000   10300006 00104100000000000000000000008000     
100   9503051026344727000000000002790000000002790000200000001041040522083235001173E98N4D0522214215001173   1030000100030000   541110001903777031200000019MOB BANK               YGN           MMR11005220832350011730522000000000000000   10300002 00104100000000000000000000005580     
100   9503051022938837000000000003750000000003750000200000001041040522085843002033C8KTRF0522214215002033   1030000100030000   541110001905777031200000019MOB BANK               YGN           MMR11005220858430020330522000000000000000   10300002 00104100000000000000000000007500     
100   9503051887998652000000000001550000000001550000200000001041040522034438002333UPEQ0B0522214210002333   1030000100030000   541110001907777031200000019MOB BANK               YGN           MMR11005220344380023330522000000000000000   10300002 00104100000000000000000000003100     
100   35710500304060430000000000004140000000004140002000000010410405221312030004462455500522214219000446   1030000100030000   541120003104777031200000031MOB BANK               YGN           MMR11005221312030004460522000000000000000   10300005 00104100000000000000000000000828     
100   35710500355623600000000000025200000000025200002000000010410405220716000003543691530522214213000354   1030000100030000   541120003005777031200000030MOB BANK               YGN           MMR11005220716000003540522000000000000000   10300005 00104100000000000000000000005040     
100   9503051025411790000000000003885000000003885000200000001041040522055114000347NZARNG0522214212000347   1030000100030000   541120003005777031200000030MOB BANK               YGN           MMR11005220551140003470522000000000000000   10300002 00104100000000000000000000007770     
100   9503051019742028000000000003900000000003900000200000001041040522035334000618UXR4FK0522214210000618   1030000100030000   541120003103777031200000031MOB BANK               YGN           MMR11005220353340006180522000000000000000   10300002 00104100000000000000000000007800     
100   9503051892368073000000000008300000000008300000200000001041040522055859001158FL9IZ60522214212001158   1030000100030000   541110001903777031200000019MOB BANK               YGN           MMR11005220558590011580522000000000000000   10300002 00104100000000000000000000016600     
100   9503190003364025000000000005250000000005250000200000001041040522045443001217UAAO440522214211001217   1030000100030000   541110001915777031200000019MOB BANK               YGN           MMR11005220454430012170522000000000000000   10300014 00104100000000000000000000010500     
100   9503051883027845000000000005440000000005440000200000001041040522065751000266XBFVOR0522214213000266   1030000100030000   541120003013777031200000030MOB BANK               YGN           MMR11005220657510002660522000000000000000   10300002 00104100000000000000000000010880     
100   9503051024326783000000000003400000000003400000200000001041040522083116000267L36PFI0522214215000267   1030000100030000   541120003013777031200000030MOB BANK               YGN           MMR11005220831160002670522000000000000000   10300002 00104100000000000000000000006800     
100   9503051021179623000000000003400000000003400000200000001041040522080429000250CLGHGU0522214214000250   1030000100030000   541110001917777031200000019MOB BANK               YGN           MMR11005220804290002500522000000000000000   10300002 00104100000000000000000000006800     
100   9503051886611595000000000001708888000001708888200000001041040522103456000208WAWESY0522214217000208   1030000100030000   541120003012777031200000030MOB BANK               YGN           MMR11005221034560002080522000000000000000   10300002 00104100000000000000000000003418     
100   9503051897908824000000000002410800000002410800200000001041040522065418000320TDNDEW0522214213000320   1030000100030000   541120003001777031200000030MOB BANK               YGN           MMR11005220654180003200522000000000000000   10300002 00104100000000000000000000004822     
100   35710500355473200000000000098750000000098750002000000010410405220949430005110255450522214216000511   1030000100030000   541120003008777031200000030MOB BANK               YGN           MMR11005220949430005110522000000000000000   10300005 00104100000000000000000000019750     
100   35710500325550370000000000051505000000051505002000000010410405220922390011096480020522214215001109   1030000100030000   541110001920777031200000019MOB BANK               YGN           MMR11005220922390011090522000000000000000   10300005 00104100000000000000000000010301     
100   9503051890478882000000000000945000000000945000200000001041040522084120001175FTD7HZ0522214215001175   1030000100030000   541110001903777031200000019MOB BANK               YGN           MMR11005220841200011750522000000000000000   10300002 00104100000000000000000000001890     
100   35710500333416270000000000002305000000002305002000000010410405221103140024123398000522214217002412   1030000100030000   541110001907777031200000019MOB BANK               YGN           MMR11005221103140024120522000000000000000   10300005 00104100000000000000000000000461     
100   35711450001412480000000000016715000000016715002000000010410405220613460023579000270522214212002357   1030000100030000   541110001907777031200000019MOB BANK               YGN           MMR11005220613460023570522000000000000000   10200001 00104100000000000000000000003343     
100   35710500355473200000000000015500000000015500002000000010410405221017390001532487160522214216000153   1030000100030000   541120003006777031200000030MOB BANK               YGN           MMR11005221017390001530522000000000000000   10300005 00104100000000000000000000003100     
100   9503051897908824000000000000624000000000624000200000001041040522070045000203EPDASL0522214213000203   1030000100030000   541120003002777031200000030MOB BANK               YGN           MMR11005220700450002030522000000000000000   10300002 00104100000000000000000000001248     
100   35710500314222880000000000044900000000044900002000000010410405220552230002408134090522214212000240   1030000100030000   541110001917777031200000019MOB BANK               YGN           MMR11005220552230002400522000000000000000   10300005 00104100000000000000000000008980     
100   35710500374379340000000000013800000000013800002000000010410405221047110012348141530522214217001234   1030000100030000   541110001915777031200000019MOB BANK               YGN           MMR11005221047110012340522000000000000000   10300005 00104100000000000000000000002760     
100   35710500314409180000000000014000000000014000002000000010410405221050510012362261810522214217001236   1030000100030000   541110001915777031200000019MOB BANK               YGN           MMR11005221050510012360522000000000000000   10300005 00104100000000000000000000002800     
100   9503051892577202000000000003361500000003361500200000001041040522044403001088TWIPE50522214211001088   1030000100030000   541110001920777031200000019MOB BANK               YGN           MMR11005220444030010880522000000000000000   10300002 00104100000000000000000000006723     
100   35710830053925590000000000002250000000002250002000000010410405220456270010909538810522214211001090   1030000100030000   541110001920777031200000019MOB BANK               YGN           MMR11005220456270010900522000000000000000   10300003 00104100000000000000000000000450     
100   35710500152439320000000000322800000000322800002000000010410405220333470015831463100522214210001583   1030000100030000   541160000001777031200000006MOB BANK               YGN           MMR11005220333470015830522000000000000000   10300005 00104100000000000000000000064560     
100   35710500385207120000000000015570000000015570002000000010410405220846570023948083060522214215002394   1030000100030000   541110001907777031200000019MOB BANK               YGN           MMR11005220846570023940522000000000000000   10300005 00104100000000000000000000003114     
100   62622000703260910000000000016550000000016550002000000010410405220741550001884744350522214214000188   1030000100030000   541120003101777031200000031MOB BANK               YGN           MMR11005220741550001880522000000000000000   10300006 00104100000000000000000000003310     
100   95051010152975640000000000021800000000021800002000000010410405220656260006202151720522214213000620   1030000100030000   541120003103777031200000031MOB BANK               YGN           MMR11005220656260006200522000000000000000   10300005 00104100000000000000000000007630     
100   9503051885668208000000000002180000000002180000200000001041040522041432001144EUGHXJ0522214210001144   1030000100030000   541110001903777031200000019MOB BANK               YGN           MMR11005220414320011440522000000000000000   10300002 00104100000000000000000000004360     
100   35710500185252510000000000014800000000014800002000000010410405220616490011606272000522214212001160   1030000100030000   541110001903777031200000019MOB BANK               YGN           MMR11005220616490011600522000000000000000   10300005 00104100000000000000000000002960     
100   35710500393746140000000000022800000000022800002000000010410405220705550011629351610522214213001162   1030000100030000   541110001903777031200000019MOB BANK               YGN           MMR11005220705550011620522000000000000000   10300005 00104100000000000000000000004560     
100   35710830546459640000000000020600000000020600002000000010410405220538290020249791030522214212002024   1030000100030000   541110001905777031200000019MOB BANK               YGN           MMR11005220538290020240522000000000000000   10300003 00104100000000000000000000004120     
100   35710500333957480000000000026900000000026900002000000010410405220637500020262264400522214213002026   1030000100030000   541110001905777031200000019MOB BANK               YGN           MMR11005220637500020260522000000000000000   10300005 00104100000000000000000000005380     
100   35710830477363180000000000018130000000018130002000000010410405221206360024302119710522214218002430   1030000100030000   541110001907777031200000019MOB BANK               YGN           MMR11005221206360024300522000000000000000   10300003 00104100000000000000000000003626     
100   35710500334721330000000000044200000000044200002000000010410405221105200002085149370522214217000208   1030000100030000   541120003002777031200000030MOB BANK               YGN           MMR11005221105200002080522000000000000000   10300005 00104100000000000000000000008840     
100   9503051887044812000000000000640000000000640000200000001041040522033949000441GZDMS50522214210000441   1030000100030000   541120003104777031200000031MOB BANK               YGN           MMR11005220339490004410522000000000000000   10300002 00104100000000000000000000001280     
100   35710500355473200000000000052500000000052500002000000010410405221020480005139657120522214216000513   1030000100030000   541120003008777031200000030MOB BANK               YGN           MMR11005221020480005130522000000000000000   10300005 00104100000000000000000000010500     
100   35710500334721330000000000064300000000064300002000000010410405221055430005158665900522214217000515   1030000100030000   541120003008777031200000030MOB BANK               YGN           MMR11005221055430005150522000000000000000   10300005 00104100000000000000000000012860     
100   35710830898149240000000000029260000000029260002000000010410405221152090008322033100522214218000832   1030000100030000   581210001501777031200000015MOB BANK               YGN           MMR11005221152090008320522000000000000000   10300003 00104100000000000000000000009948     
100   35710830643218610000000000028800000000028800002000000010410405221230050011932260710522214219001193   1030000100030000   541110001903777031200000019MOB BANK               YGN           MMR11005221230050011930522000000000000000   10300003 00104100000000000000000000005760     
100   35710830921996020000000000040925000000040925002000000010410405221128030011121888520522214217001112   1030000100030000   541110001920777031200000019MOB BANK               YGN           MMR11005221128030011120522000000000000000   10300003 00104100000000000000000000008185     
100   35710830364713150000000000013500000000013500002000000010410405221144400011141988110522214218001114   1030000100030000   541110001920777031200000019MOB BANK               YGN           MMR11005221144400011140522000000000000000   10300003 00104100000000000000000000002700     
100   35710830053925590000000000002600000000002600002000000010410405220451300023459509210522214211002345   1030000100030000   541110001907777031200000019MOB BANK               YGN           MMR11005220451300023450522000000000000000   10300003 00104100000000000000000000000520     
100   9503051892658028000000000004261000000004261000200000001041040522035638000262HFFVGU0522214210000262   1030000100030000   541120003013777031200000030MOB BANK               YGN           MMR11005220356380002620522000000000000000   10300002 00104100000000000000000000008522     
100   9503051020658536000000000000850000000000850000200000001041040522072032000246J0CEFV0522214213000246   1030000100030000   541110001917777031200000019MOB BANK               YGN           MMR11005220720320002460522000000000000000   10300002 00104100000000000000000000001700     
100   9503051887488902000000000007540000000007540000200000001041040522062222000603MU51GN0522214212000603   1030000100030000   581210001201777031200000012MOB BANK               YGN           MMR11005220622220006030522000000000000000   10300002 00104100000000000000000000025636     
100   35710830559317850000000000014355000000014355002000000010410405220745120014400551310522214214001440   1030000100030000   581250000001777031200000005MOB BANK               YGN           MMR11005220745120014400522000000000000000   10300003 00104100000000000000000000004881     
100   35710830020178110000000000040800000000040800002000000010410405221234360011952287710522214219001195   1030000100030000   541110001903777031200000019MOB BANK               YGN           MMR11005221234360011950522000000000000000   10300003 00104100000000000000000000008160     
100   35710830503000930000000000025000000000025000002000000010410405221052200012381674210522214217001238   1030000100030000   541110001915777031200000019MOB BANK               YGN           MMR11005221052200012380522000000000000000   10300003 00104100000000000000000000005000     
100   62921400035415860000000000010150000000010150002000000010410405221151030012422222220522214218001242   1030000100030000   541110001915777031200000019MOB BANK               YGN           MMR11005221151030012420522000000000000000   10300009 00104100000000000000000000002030     
100   95030800044000450000000000031590000000031590002000000010410405220519460010929678810522214211001092   1030000100030000   541110001920777031200000019MOB BANK               YGN           MMR11005220519460010920522000000000000000   10300003 00104100000000000000000000006318     
100   9503051884289113000000000003190000000003190000200000001041040522093323001181TMXPMV0522214216001181   1030000100030000   541110001903777031200000019MOB BANK               YGN           MMR11005220933230011810522000000000000000   10300002 00104100000000000000000000006380     
100   35710830878647070000000000069600000000069600002000000010410405220942090011831253110522214216001183   1030000100030000   541110001903777031200000019MOB BANK               YGN           MMR11005220942090011830522000000000000000   10300003 00104100000000000000000000013920     
100   9503051020299356000000000005700000000005700000200000001041040522050946001219MCXXVG0522214211001219   1030000100030000   541110001915777031200000019MOB BANK               YGN           MMR11005220509460012190522000000000000000   10300002 00104100000000000000000000011400     
100   9503051892577202000000000000463000000000463000200000001041040522041852002335UTYVTE0522214210002335   1030000100030000   541110001907777031200000019MOB BANK               YGN           MMR11005220418520023350522000000000000000   10300002 00104100000000000000000000000926     
100   9503051874180256000000000002580000000002580000200000001041040522042212001146JUZ2BO0522214210001146   1030000100030000   541110001903777031200000019MOB BANK               YGN           MMR11005220422120011460522000000000000000   10300002 00104100000000000000000000005160     
100   9503051021179623000000000002000000000002000000200000001041040522073027001164EKACB10522214214001164   1030000100030000   541110001903777031200000019MOB BANK               YGN           MMR11005220730270011640522000000000000000   10300002 00104100000000000000000000004000     
100   9503051891200798000000000001300000000001300000200000001041040522063925002028AMNXDK0522214213002028   1030000100030000   541110001905777031200000019MOB BANK               YGN           MMR11005220639250020280522000000000000000   10300002 00104100000000000000000000002600     
100   9503051896155187000000000004250000000004250000200000001041040522121917002435B58ELP0522214218002435   1030000100030000   541110001907777031200000019MOB BANK               YGN           MMR11005221219170024350522000000000000000   10300002 00104100000000000000000000008500     
100   95030518866115950000000000003430000000003430002000000010410405221039000002099N12FH0522214217000209   1030000100030000   541120003012777031200000030MOB BANK               YGN           MMR11005221039000002090522000000000000000   10300002 00104100000000000000000000000686     
100   35710500394309370000000000003665000000003665002000000010410405220644000003509513730522214213000350   1030000100030000   541120003005777031200000030MOB BANK               YGN           MMR11005220644000003500522000000000000000   10300005 00104100000000000000000000000733     
100   35650883650002940000000000020535000000020535002000000010410405220829510003215660180522214214000321   1030000100030000   541120003001777031200000030MOB BANK               YGN           MMR11005220829510003210522000000000000000   10300005 00104100000000000000000000007188     
100   9503051024355907000000000001855000000001855000200000001041040522050538000345JLLELL0522214211000345   1030000100030000   541120003005777031200000030MOB BANK               YGN           MMR11005220505380003450522000000000000000   10300002 00104100000000000000000000003710     
100   95030510219478210000000000009950000000009950002000000010410405221132400005171LOCTK0522214218000517   1030000100030000   541120003008777031200000030MOB BANK               YGN           MMR11005221132400005170522000000000000000   10300002 00104100000000000000000000001990     
100   95030800028149400000000000005400000000005400002000000010410405221135360005191933800522214218000519   1030000100030000   541120003008777031200000030MOB BANK               YGN           MMR11005221135360005190522000000000000000   10300003 00104100000000000000000000001080     
100   35710500314471600000000000021800000000021800002000000010410405220506170011484352790522214211001148   1030000100030000   541110001903777031200000019MOB BANK               YGN           MMR11005220506170011480522000000000000000   10300005 00104100000000000000000000004360     
