100   35710500155593110000000000036990000000036990002000000010410405010842340002644037480501212115000264   1030000100030000   541120003111777031200000031MOB BANK               YGN           MMR11005010842340002640501000000000000000   10300005 00104100000000000000000000007398     
100   62346600183032100000000000016900000000016900002000000010410405010448260009202673810501212111000920   1030000100030000   541110001915777031200000019MOB BANK               YGN           MMR11005010448260009200501000000000000000   10300005 00104100000000000000000000003380     
100   35710500355480210000000000011700000000011700002000000010410405011128160009676273320501212117000967   1030000100030000   541110001915777031200000019MOB BANK               YGN           MMR11005011128160009670501000000000000000   10300005 00104100000000000000000000002340     
100   95030518889144010000000000003400000000003400002000000010410405010701400013329I2JPU0501212113001332   1030000100030000   581250000001777031200000005MOB BANK               YGN           MMR11005010701400013320501000000000000000   10300002 00104100000000000000000000001156     
100   35710830946280380000000000023000000000023000002000000010410405010504520001925140460501212111000192   1030000100030000   541110001917777031200000019MOB BANK               YGN           MMR11005010504520001920501000000000000000   10300003 00104100000000000000000000004600     
100   9503051020290942000000000001755000000001755000200000001041040501103922000209CONULR0501212117000209   1030000100030000   541110001917777031200000019MOB BANK               YGN           MMR11005011039220002090501000000000000000   10300002 00104100000000000000000000003510     
100   62622000937593850000000000011712000000011712002000000010410405010859120002108349060501212115000210   1030000100030000   541120003008777031200000030MOB BANK               YGN           MMR11005010859120002100501000000000000000   10300006 00104100000000000000000000002342     
100   35710500171688970000000000054650000000054650002000000010410405010850360002045847370501212115000204   1030000100030000   541110001917777031200000019MOB BANK               YGN           MMR11005010850360002040501000000000000000   10300005 00104100000000000000000000010930     
100   9503051885556932000000000000944000000000944000200000001041040501051411000638JXNWFT0501212111000638   1030000100030000   541110001903777031200000019MOB BANK               YGN           MMR11005010514110006380501000000000000000   10300002 00104100000000000000000000001888     
100   9503051024382018000000000002180000000002180000200000001041040501112447000654ROZQWX0501212117000654   1030000100030000   541110001903777031200000019MOB BANK               YGN           MMR11005011124470006540501000000000000000   10300002 00104100000000000000000000004360     
100   95030510223225030000000000015800000000015800002000000010410405010635320009387B0E2Z0501212113000938   1030000100030000   541110001915777031200000019MOB BANK               YGN           MMR11005010635320009380501000000000000000   10300002 00104100000000000000000000003160     
100   9503051888325368000000000003300000000003300000200000001041040501041638000916MFBLCW0501212110000916   1030000100030000   541110001915777031200000019MOB BANK               YGN           MMR11005010416380009160501000000000000000   10300002 00104100000000000000000000006600     
100   95031900068903560000000000016200000000016200002000000010410405010448590013273DH5O10501212111001327   1030000100030000   541110001905777031200000019MOB BANK               YGN           MMR11005010448590013270501000000000000000   10300014 00104100000000000000000000003240     
100   62343301016017930000000000019300000000019300002000000010410405010523080001091895090501212111000109   1030000100030000   541120003013777031200000030MOB BANK               YGN           MMR11005010523080001090501000000000000000   10300004 00104100000000000000000000003860     
100   9503051020432882000000000001560000000001560000200000001041040501123846000144OW5LCA0501212119000144   1030000100030000   541120003005777031200000030MOB BANK               YGN           MMR11005011238460001440501000000000000000   10300002 00104100000000000000000000003120     
100   35710830175625380000000000002100000000002100002000000010410405010909050001405254090501212115000140   1030000100030000   541120003005777031200000030MOB BANK               YGN           MMR11005010909050001400501000000000000000   10300003 00104100000000000000000000000420     
100   62622000026012640000000000083500000000083500002000000010410405010304370004388307750501212109000438   1030000100030000   541120000011777031200000002MOB BANK               YGN           MMR11005010304370004380501000000000000000   10300006 00104100000000000000000000016700     
100   9503051884428703000000000002430000000002430000200000001041040501045054000922L1YQXO0501212111000922   1030000100030000   541110001915777031200000019MOB BANK               YGN           MMR11005010450540009220501000000000000000   10300002 00104100000000000000000000004860     
100   35710500304464860000000000005952000000005952002000000010410405010716500009409544750501212113000940   1030000100030000   541110001915777031200000019MOB BANK               YGN           MMR11005010716500009400501000000000000000   10300005 00104100000000000000000000001190     
100   35710500304464860000000000012144000000012144002000000010410405010720280009422283760501212113000942   1030000100030000   541110001915777031200000019MOB BANK               YGN           MMR11005010720280009420501000000000000000   10300005 00104100000000000000000000002429     
100   35710830880888270000000000065000000000065000002000000010410405010428570009185123490501212110000918   1030000100030000   541110001915777031200000019MOB BANK               YGN           MMR11005010428570009180501000000000000000   10300003 00104100000000000000000000013000     
100   35710500310569380000000000021800000000021800002000000010410405010439230001902055280501212111000190   1030000100030000   541110001917777031200000019MOB BANK               YGN           MMR11005010439230001900501000000000000000   10300005 00104100000000000000000000004360     
100   9503051024412559000000000002100000000002100000200000001041040501070421000230HGWZNY0501212113000230   1030000100030000   541120000017777031200000002MOB BANK               YGN           MMR11005010704210002300501000000000000000   10300002 00104100000000000000000000004200     
100   35710500160360610000000000040800000000040800002000000010410405010523220006390035820501212111000639   1030000100030000   541110001903777031200000019MOB BANK               YGN           MMR11005010523220006390501000000000000000   10300005 00104100000000000000000000008160     
100   9503051885528592000000000015550000000015550000200000001041040501045900000924940QOM0501212111000924   1030000100030000   541110001915777031200000019MOB BANK               YGN           MMR11005010459000009240501000000000000000   10300002 00104100000000000000000000031100     
100   35710830777704350000000000016600000000016600002000000010410405011230080009695347200501212119000969   1030000100030000   541110001915777031200000019MOB BANK               YGN           MMR11005011230080009690501000000000000000   10300003 00104100000000000000000000003320     
100   35710830777704350000000000006500000000006500002000000010410405011252570009715355500501212119000971   1030000100030000   541110001915777031200000019MOB BANK               YGN           MMR11005011252570009710501000000000000000   10300003 00104100000000000000000000001300     
100   95030518914216340000000000030300000000030300002000000010410405010512160001942ZHB9A0501212111000194   1030000100030000   541110001917777031200000019MOB BANK               YGN           MMR11005010512160001940501000000000000000   10300002 00104100000000000000000000006060     
100   9503190001717794000000000008244000000008244000200000001041040501065547000262NBSCDQ0501212113000262   1030000100030000   541120003111777031200000031MOB BANK               YGN           MMR11005010655470002620501000000000000000   10300014 00104100000000000000000000016488     
100   35710830728961020000000000040800000000040800002000000010410405010612400006425173230501212112000642   1030000100030000   541110001903777031200000019MOB BANK               YGN           MMR11005010612400006420501000000000000000   10300003 00104100000000000000000000008160     
100   9503051019551577000000000002460000000002460000200000001041040501090424000953DY9B4G0501212115000953   1030000100030000   541110001915777031200000019MOB BANK               YGN           MMR11005010904240009530501000000000000000   10300002 00104100000000000000000000004920     
100   35710830296399930000000000056070000000056070002000000010410405010338200007745100470501212110000774   1030000100030000   541110001920777031200000019MOB BANK               YGN           MMR11005010338200007740501000000000000000   10300003 00104100000000000000000000011214     
100   62921400028543290000000000007850000000007850002000000010410405010827050009512222220501212114000951   1030000100030000   541110001915777031200000019MOB BANK               YGN           MMR11005010827050009510501000000000000000   10300009 00104100000000000000000000001570     
100   95030800089154020000000000014650000000014650002000000010410405010942390013345270670501212116001334   1030000100030000   541110001905777031200000019MOB BANK               YGN           MMR11005010942390013340501000000000000000   10300003 00104100000000000000000000002930     
100   35710830214404400000000000007200000000007200002000000010410405010353520001075107990501212110000107   1030000100030000   541120003013777031200000030MOB BANK               YGN           MMR11005010353520001070501000000000000000   10300003 00104100000000000000000000001440     
100   9503051872931262000000000001650000000001650000200000001041040501043930000088G5IRVE0501212111000088   1030000100030000   541120003002777031200000030MOB BANK               YGN           MMR11005010439300000880501000000000000000   10300002 00104100000000000000000000003300     
100   9503051888741978000000000001620000000001620000200000001041040501060328000202THMVU90501212112000202   1030000100030000   541120003008777031200000030MOB BANK               YGN           MMR11005010603280002020501000000000000000   10300002 00104100000000000000000000003240     
100   35710500110873740000000000033900000000033900002000000010410405010732250006442467740501212114000644   1030000100030000   541110001903777031200000019MOB BANK               YGN           MMR11005010732250006440501000000000000000   10300005 00104100000000000000000000006780     
100   9503051025675857000000000002592000000002592000200000001041040501052836000640D2DTOY0501212111000640   1030000100030000   541110001903777031200000019MOB BANK               YGN           MMR11005010528360006400501000000000000000   10300002 00104100000000000000000000005184     
100   9503051021071416000000000002092800000002092800200000001041040501051612000926AGMG3Q0501212111000926   1030000100030000   541110001915777031200000019MOB BANK               YGN           MMR11005010516120009260501000000000000000   10300002 00104100000000000000000000004186     
100   35710830405581230000000000009200000000009200002000000010410405010340020007765101510501212110000776   1030000100030000   541110001920777031200000019MOB BANK               YGN           MMR11005010340020007760501000000000000000   10300003 00104100000000000000000000001840     
100   9503051886872882000000000002255000000002255000200000001041040501052648000110UAYRNU0501212111000110   1030000100030000   541120003013777031200000030MOB BANK               YGN           MMR11005010526480001100501000000000000000   10300002 00104100000000000000000000004510     
100   9503051023479336000000000002180000000002180000200000001041040501110044000268TH0H7L0501212117000268   1030000100030000   541120003104777031200000031MOB BANK               YGN           MMR11005011100440002680501000000000000000   10300002 00104100000000000000000000004360     
100   35710830805527050000000000032800000000032800002000000010410405010529550006415152610501212111000641   1030000100030000   541110001903777031200000019MOB BANK               YGN           MMR11005010529550006410501000000000000000   10300003 00104100000000000000000000006560     
100   62921400000910800000000000023850000000023850002000000010410405011105490013342222220501212117001334   1030000100030000   581250000001777031200000005MOB BANK               YGN           MMR11005011105490013340501000000000000000   10300009 00104100000000000000000000008109     
100   95030510199566690000000000006600000000006600002000000010410405011042100000921HTTRP0501212117000092   1030000100030000   541120003002777031200000030MOB BANK               YGN           MMR11005011042100000920501000000000000000   10300002 00104100000000000000000000001320     
100   35710830780120920000000000019200000000019200002000000010410405010549450001968418610501212112000196   1030000100030000   541110001917777031200000019MOB BANK               YGN           MMR11005010549450001960501000000000000000   10300003 00104100000000000000000000003840     
100   35710500392180010000000000034600000000034600002000000010410405010458030001390609630501212111000139   1030000100030000   541120003005777031200000030MOB BANK               YGN           MMR11005010458030001390501000000000000000   10300005 00104100000000000000000000006920     
100   9503051892506771000000000002165000000002165000200000001041040501121429000209ABWUJP0501212118000209   1030000100030000   541120003003777031200000030MOB BANK               YGN           MMR11005011214290002090501000000000000000   10300002 00104100000000000000000000004330     
100   35710830323861370000000000015840000000015840002000000010410405010531050001985152970501212112000198   1030000100030000   541120003008777031200000030MOB BANK               YGN           MMR11005010531050001980501000000000000000   10300003 00104100000000000000000000003168     
100   35710830848365910000000000009400000000009400002000000010410405010650350002065191540501212113000206   1030000100030000   541120003008777031200000030MOB BANK               YGN           MMR11005010650350002060501000000000000000   10300003 00104100000000000000000000001880     
100   9503051891332336000000000005960000000005960000200000001041040501112859000655IZDCMW0501212117000655   1030000100030000   541110001903777031200000019MOB BANK               YGN           MMR11005011128590006550501000000000000000   10300002 00104100000000000000000000011920     
100   35710500160360610000000000018700000000018700002000000010410405010548300009318045310501212112000931   1030000100030000   541110001915777031200000019MOB BANK               YGN           MMR11005010548300009310501000000000000000   10300005 00104100000000000000000000003740     
100   35710830436565020000000000018500000000018500002000000010410405010921300009555260030501212115000955   1030000100030000   541110001915777031200000019MOB BANK               YGN           MMR11005010921300009550501000000000000000   10300003 00104100000000000000000000003700     
100   9503051873278143000000000001840000000001840000200000001041040501073300000780T4J60Y0501212114000780   1030000100030000   541110001920777031200000019MOB BANK               YGN           MMR11005010733000007800501000000000000000   10300002 00104100000000000000000000003680     
100   9503051888346109000000000002600000000002600000200000001041040501094350000648XAF6JC0501212116000648   1030000100030000   541110001903777031200000019MOB BANK               YGN           MMR11005010943500006480501000000000000000   10300002 00104100000000000000000000005200     
100   35710950330726560000000000039900000000039900002000000010410405010708400006438892110501212113000643   1030000100030000   541110001903777031200000019MOB BANK               YGN           MMR11005010708400006430501000000000000000   10300003 00104100000000000000000000007980     
100   35710500311331580000000000004600000000004600002000000010410405010632510009360470190501212113000936   1030000100030000   541110001915777031200000019MOB BANK               YGN           MMR11005010632510009360501000000000000000   10300005 00104100000000000000000000000920     
100   950305189049077000000000000598000000000598000020000000104104050105261800092904EPWC0501212111000929   1030000100030000   541110001915777031200000019MOB BANK               YGN           MMR11005010526180009290501000000000000000   10300002 00104100000000000000000000011960     
100   35710830296399930000000000030000000000030000002000000010410405010409560009147819710501212110000914   1030000100030000   541110001915777031200000019MOB BANK               YGN           MMR11005010409560009140501000000000000000   10300003 00104100000000000000000000006000     
100   9503051888692486000000000000435000000000435000200000001041040501120505001343XC52M80501212118001343   1030000100030000   541110001905777031200000019MOB BANK               YGN           MMR11005011205050013430501000000000000000   10300002 00104100000000000000000000000870     
100   35710500364375700000000000022000000000022000002000000010410405010453580001254120450501212111000125   1030000100030000   541120003012777031200000030MOB BANK               YGN           MMR11005010453580001250501000000000000000   10300005 00104100000000000000000000004400     
100   9503051024727048000000000012130000000012130000200000001041040501102847001337KHYWZP0501212116001337   1030000100030000   541110001905777031200000019MOB BANK               YGN           MMR11005011028470013370501000000000000000   10300002 00104100000000000000000000024260     
100   62443000804538520000000000004263000000004263002000000010410405011142080013417286400501212118001341   1030000100030000   541110001905777031200000019MOB BANK               YGN           MMR11005011142080013410501000000000000000   10300005 00104100000000000000000000001492     
100   35710830728961020000000000003800000000003800002000000010410405010512460014995144280501212111001499   1030000100030000   541110001907777031200000019MOB BANK               YGN           MMR11005010512460014990501000000000000000   10300003 00104100000000000000000000000760     
100   35710950974485370000000000060000000000060000002000000010410405010836580015209422000501212115001520   1030000100030000   541110001907777031200000019MOB BANK               YGN           MMR11005010836580015200501000000000000000   10300003 00104100000000000000000000012000     
100   9503051872934613000000000001140000000001140000200000001041040501120911001541PSUCKS0501212118001541   1030000100030000   541110001907777031200000019MOB BANK               YGN           MMR11005011209110015410501000000000000000   10300002 00104100000000000000000000002280     
100   35710500385491820000000000090000000000090000002000000010410405011047280015299346470501212117001529   1030000100030000   541110001907777031200000019MOB BANK               YGN           MMR11005011047280015290501000000000000000   10300005 00104100000000000000000000018000     
100   35710500333416270000000000000686000000000686002000000010410405011108340015321297690501212117001532   1030000100030000   541110001907777031200000019MOB BANK               YGN           MMR11005011108340015320501000000000000000   10300005 00104100000000000000000000000137     
100   9503190006199618000000000000681600000000681600200000001041040501102922001523K94AA50501212116001523   1030000100030000   541110001907777031200000019MOB BANK               YGN           MMR11005011029220015230501000000000000000   10300014 00104100000000000000000000001363     
100   9503051025604428000000000001659600000001659600200000001041040501072719001515T5PHJL0501212113001515   1030000100030000   541110001907777031200000019MOB BANK               YGN           MMR11005010727190015150501000000000000000   10300002 00104100000000000000000000003319     
100   9503190006890356000000000015700000000015700000200000001041040501043458001497TWTQVH0501212111001497   1030000100030000   541110001907777031200000019MOB BANK               YGN           MMR11005010434580014970501000000000000000   10300014 00104100000000000000000000031400     
100   9503051025244878000000000003700000000003700000200000001041040501052202001501ETAR4A0501212111001501   1030000100030000   541110001907777031200000019MOB BANK               YGN           MMR11005010522020015010501000000000000000   10300002 00104100000000000000000000007400     
100   35710830124336280000000000019000000000019000002000000010410405010752340015185219820501212114001518   1030000100030000   541110001907777031200000019MOB BANK               YGN           MMR11005010752340015180501000000000000000   10300003 00104100000000000000000000003800     
100   9503051024382018000000000003950000000003950000200000001041040501114656001535FRJOTX0501212118001535   1030000100030000   541110001907777031200000019MOB BANK               YGN           MMR11005011146560015350501000000000000000   10300002 00104100000000000000000000007900     
100   35710950318932100000000000008580000000008580002000000010410405010837320013335240100501212115001333   1030000100030000   581250000001777031200000005MOB BANK               YGN           MMR11005010837320013330501000000000000000   10300003 00104100000000000000000000002917     
100   35710500195327280000000000070700000000070700002000000010410405010718380015136694970501212113001513   1030000100030000   541110001907777031200000019MOB BANK               YGN           MMR11005010718380015130501000000000000000   10300005 00104100000000000000000000014140     
100   35710830474521630000000000037750000000037750002000000010410405010651360015105191890501212113001510   1030000100030000   541110001907777031200000019MOB BANK               YGN           MMR11005010651360015100501000000000000000   10300003 00104100000000000000000000007550     
100   9503051026034443000000000003240000000003240000200000001041040501115950000112YCOD7M0501212118000112   1030000100030000   541120003013777031200000030MOB BANK               YGN           MMR11005011159500001120501000000000000000   10300002 00104100000000000000000000006480     
100   9503051895826622000000000000305000000000305000200000001041040501094128000212BM6ODE0501212116000212   1030000100030000   541120003008777031200000030MOB BANK               YGN           MMR11005010941280002120501000000000000000   10300002 00104100000000000000000000000610     
100   62622000300176570000000000015200000000015200002000000010410405010931170009588279020501212116000958   1030000100030000   541110001915777031200000019MOB BANK               YGN           MMR11005010931170009580501000000000000000   10300006 00104100000000000000000000003040     
100   35710500345738140000000000025700000000025700002000000010410405010949540009614062700501212116000961   1030000100030000   541110001915777031200000019MOB BANK               YGN           MMR11005010949540009610501000000000000000   10300005 00104100000000000000000000005140     
100   9503051022932012000000000001851200000001851200200000001041040501073310000944QGAOHC0501212114000944   1030000100030000   541110001915777031200000019MOB BANK               YGN           MMR11005010733100009440501000000000000000   10300002 00104100000000000000000000003702     
100   95030510247177180000000000019894000000019894002000000010410405010859190013295WFWLI0501212115001329   1030000100030000   541110001905777031200000019MOB BANK               YGN           MMR11005010859190013290501000000000000000   10300002 00104100000000000000000000003979     
100   95030510258031780000000000011860000000011860002000000010410405010616330002044WSU7M0501212112000204   1030000100030000   541120003008777031200000030MOB BANK               YGN           MMR11005010616330002040501000000000000000   10300002 00104100000000000000000000002372     
100   35710830303593830000000000005243000000005243002000000010410405011202140002020653610501212118000202   1030000100030000   541120003003777031200000030MOB BANK               YGN           MMR11005011202140002020501000000000000000   10300003 00104100000000000000000000001049     
100   35710830436565020000000000020700000000020700002000000010410405010957530002075277800501212116000207   1030000100030000   541110001917777031200000019MOB BANK               YGN           MMR11005010957530002070501000000000000000   10300003 00104100000000000000000000004140     
100   35710500144488700000000000007920000000007920002000000010410405011045570002213743870501212117000221   1030000100030000   541120003008777031200000030MOB BANK               YGN           MMR11005011045570002210501000000000000000   10300005 00104100000000000000000000001584     
100   35710500353899960000000000038800000000038800002000000010410405010925300006479338680501212115000647   1030000100030000   541110001903777031200000019MOB BANK               YGN           MMR11005010925300006470501000000000000000   10300005 00104100000000000000000000007760     
100   62921400081362340000000000016000000000016000002000000010410405011007060006492222220501212116000649   1030000100030000   541110001903777031200000019MOB BANK               YGN           MMR11005011007060006490501000000000000000   10300009 00104100000000000000000000003200     
100   35710830474521630000000000014850000000014850002000000010410405010537520009305156120501212112000930   1030000100030000   541110001915777031200000019MOB BANK               YGN           MMR11005010537520009300501000000000000000   10300003 00104100000000000000000000002970     
100   35710950510561100000000000015628000000015628002000000010410405011104020009635308930501212117000963   1030000100030000   541110001915777031200000019MOB BANK               YGN           MMR11005011104020009630501000000000000000   10300003 00104100000000000000000000003126     
100   35710830241847220000000000018400000000018400002000000010410405011104070002230304810501212117000223   1030000100030000   541120003008777031200000030MOB BANK               YGN           MMR11005011104070002230501000000000000000   10300003 00104100000000000000000000003680     
100   35710500102517570000000000041280000000041280002000000010410405011041570002111807640501212117000211   1030000100030000   541110001917777031200000019MOB BANK               YGN           MMR11005011041570002110501000000000000000   10300005 00104100000000000000000000008256     
100   95030518969227760000000000062910000000062910002000000010410405010919150001650YWMMW0501212115000165   1030000100030000   541120003110777031200000031MOB BANK               YGN           MMR11005010919150001650501000000000000000   10300002 00104100000000000000000000012582     
100   9503051021981739000000000001550000000001550000200000001041040501101608000217ADMLEH0501212116000217   1030000100030000   541120003008777031200000030MOB BANK               YGN           MMR11005011016080002170501000000000000000   10300002 00104100000000000000000000003100     
100   35710500353581810000000000025500000000025500002000000010410405011131460006577300190501212118000657   1030000100030000   541110001903777031200000019MOB BANK               YGN           MMR11005011131460006570501000000000000000   10300005 00104100000000000000000000005100     
100   95030510207528830000000000044800000000044800002000000010410405011136330006599IVQCC0501212118000659   1030000100030000   541110001903777031200000019MOB BANK               YGN           MMR11005011136330006590501000000000000000   10300002 00104100000000000000000000008960     
100   62622000539950370000000000007536000000007536002000000010410405011106020009658309790501212117000965   1030000100030000   541110001915777031200000019MOB BANK               YGN           MMR11005011106020009650501000000000000000   10300006 00104100000000000000000000001507     
100   9503051891500015000000000002376000000002376000200000001041040501071340000779VGULMA0501212113000779   1030000100030000   541110001920777031200000019MOB BANK               YGN           MMR11005010713400007790501000000000000000   10300002 00104100000000000000000000004752     
100   35710830698089460000000000003850000000003850002000000010410405010544350013318387710501212112001331   1030000100030000   581250000001777031200000005MOB BANK               YGN           MMR11005010544350013310501000000000000000   10300003 00104100000000000000000000001309     
100   35710500392180010000000000019500000000019500002000000010410405010511210000890617710501212111000089   1030000100030000   541120003002777031200000030MOB BANK               YGN           MMR11005010511210000890501000000000000000   10300005 00104100000000000000000000003900     
100   9503051024169837000000000001550000000001550000200000001041040501045652000260IE7LVE0501212111000260   1030000100030000   541120003111777031200000031MOB BANK               YGN           MMR11005010456520002600501000000000000000   10300002 00104100000000000000000000003100     
100   35710500303258620000000000008900000000008900002000000010410405010353290001974138960501212110000197   1030000100030000   541120003003777031200000030MOB BANK               YGN           MMR11005010353290001970501000000000000000   10300005 00104100000000000000000000001780     
100   35710500355586320000000000027300000000027300002000000010410405011151400002263391480501212118000226   1030000100030000   541120003008777031200000030MOB BANK               YGN           MMR11005011151400002260501000000000000000   10300005 00104100000000000000000000005460     
100   9503051023335033000000000003790000000003790000200000001041040501122451000661XSFRLC0501212118000661   1030000100030000   541110001903777031200000019MOB BANK               YGN           MMR11005011224510006610501000000000000000   10300002 00104100000000000000000000007580     
100   35710830243107640000000000045500000000045500002000000010410405011200350006600643700501212118000660   1030000100030000   541110001903777031200000019MOB BANK               YGN           MMR11005011200350006600501000000000000000   10300003 00104100000000000000000000009100     
100   9503190001819178000000000004580000000004580000200000001041040501102249000651L9A2BL0501212116000651   1030000100030000   541110001903777031200000019MOB BANK               YGN           MMR11005011022490006510501000000000000000   10300014 00104100000000000000000000009160     
100   9503051894207188000000000002150000000002150000200000001041040501044003001325CAPKDR0501212111001325   1030000100030000   541110001905777031200000019MOB BANK               YGN           MMR11005010440030013250501000000000000000   10300002 00104100000000000000000000004300     
100   35710830323861370000000000014670000000014670002000000010410405010519160001085147520501212111000108   1030000100030000   541120003013777031200000030MOB BANK               YGN           MMR11005010519160001080501000000000000000   10300003 00104100000000000000000000002934     
100   62622000167936510000000000010650000000010650002000000010410405011118190001118289770501212117000111   1030000100030000   541120003013777031200000030MOB BANK               YGN           MMR11005011118190001110501000000000000000   10300006 00104100000000000000000000002130     
100   35710830236188290000000000013950000000013950002000000010410405010926210001669718210501212115000166   1030000100030000   541120003110777031200000031MOB BANK               YGN           MMR11005010926210001660501000000000000000   10300003 00104100000000000000000000002790     
100   9503051897627960000000000000840000000000840000200000001041040501093530000143ZJNY260501212116000143   1030000100030000   541120003005777031200000030MOB BANK               YGN           MMR11005010935300001430501000000000000000   10300002 00104100000000000000000000001680     
100   95051010163957890000000000051350000000051350002000000010410405010602130001983661670501212112000198   1030000100030000   541110001917777031200000019MOB BANK               YGN           MMR11005010602130001980501000000000000000   10300005 00104100000000000000000000017972     
100   35710830073990810000000000009600000000009600002000000010410405010543270002005158620501212112000200   1030000100030000   541120003008777031200000030MOB BANK               YGN           MMR11005010543270002000501000000000000000   10300003 00104100000000000000000000001920     
100   35710500311026090000000000002600000000002600002000000010410405011034260002180786780501212117000218   1030000100030000   541120003008777031200000030MOB BANK               YGN           MMR11005011034260002180501000000000000000   10300005 00104100000000000000000000000520     
100   9503051024189694000000000000450000000000450000200000001041040501055851000261SKVDD00501212112000261   1030000100030000   541120003111777031200000031MOB BANK               YGN           MMR11005010558510002610501000000000000000   10300002 00104100000000000000000000000900     
100   35710500353899960000000000042240000000042240002000000010410405010902340006458740640501212115000645   1030000100030000   541110001903777031200000019MOB BANK               YGN           MMR11005010902340006450501000000000000000   10300005 00104100000000000000000000008448     
100   9503051894725858000000000002128000000002128000200000001041040501104602000653L4CHMN0501212117000653   1030000100030000   541110001903777031200000019MOB BANK               YGN           MMR11005011046020006530501000000000000000   10300002 00104100000000000000000000004256     
100   9503051886392683000000000005204800000005204800200000001041040501073616000947RQ6MWH0501212114000947   1030000100030000   541110001915777031200000019MOB BANK               YGN           MMR11005010736160009470501000000000000000   10300002 00104100000000000000000000010410     
100   9503051020752883000000000001380000000001380000200000001041040501112620001339SI3MJI0501212117001339   1030000100030000   541110001905777031200000019MOB BANK               YGN           MMR11005011126200013390501000000000000000   10300002 00104100000000000000000000002760     
100   95030518922662690000000000010400000000010400002000000010410405010345000001866GYDIC0501212110000186   1030000100030000   541110001917777031200000019MOB BANK               YGN           MMR11005010345000001860501000000000000000   10300002 00104100000000000000000000002080     
100   35710500311026090000000000008550000000008550002000000010410405011009220002147723320501212116000214   1030000100030000   541120003008777031200000030MOB BANK               YGN           MMR11005011009220002140501000000000000000   10300005 00104100000000000000000000001710     
100   35710830474521630000000000037800000000037800002000000010410405010621120002005177650501212112000200   1030000100030000   541110001917777031200000019MOB BANK               YGN           MMR11005010621120002000501000000000000000   10300003 00104100000000000000000000007560     
100   35710500310569380000000000016200000000016200002000000010410405010435180001880268250501212111000188   1030000100030000   541110001917777031200000019MOB BANK               YGN           MMR11005010435180001880501000000000000000   10300005 00104100000000000000000000003240     
100   9503051891244895000000000000960000000000960000200000001041040501070623000208RZTOEN0501212113000208   1030000100030000   541120003008777031200000030MOB BANK               YGN           MMR11005010706230002080501000000000000000   10300002 00104100000000000000000000001920     
