100   62346600120305460000000000013900000000013900002000000010410405031203520005299544330503212318000529   1030000100030000   581210001201777031200000012MOB BANK               YGN           MMR11005031203520005290503000000000000000   10300005 00104100000000000000000000004726     
100   35710830694883190000000000024640000000024640002000000010410405040911540013495551600504212415001349   1030000100030000   581250000001777031200000005MOB BANK               YGN           MMR11005040911540013490504000000000000000   10300003 00104100000000000000000000008378     
100   62346600120305460000000000086700000000086700002000000010410405031120360005286277800503212317000528   1030000100030000   581210001201777031200000012MOB BANK               YGN           MMR11005031120360005280503000000000000000   10300005 00104100000000000000000000029478     
100   35710500375168100000000000279400000000279400002000000010410405031355020005309977380503212320000530   1030000100030000   581210001201777031200000012MOB BANK               YGN           MMR11005031355020005300503000000000000000   10300005 00104100000000000000000000094996     
100   62346600120483320000000000015840000000015840002000000010410405041202110009619609690504212418000961   1030000100030000   541120003117777031200000031MOB BANK               YGN           MMR11005041202110009610504000000000000000   10300005 00104100000000000000000000003168     
100   35710500301093240000000000014308000000014308002000000010410405040927140002222842530504212415000222   1030000100030000   541120003003777031200000030MOB BANK               YGN           MMR11005040927140002220504000000000000000   10300005 00104100000000000000000000002862     
100   35710500383766360000000000012400000000012400002000000010410405040857470007980269910504212415000798   1030000100030000   541110001920777031200000019MOB BANK               YGN           MMR11005040857470007980504000000000000000   10300005 00104100000000000000000000002480     
100   9503051022806182000000000002100000000002100000200000001041040504093049000802GZHNJY0504212416000802   1030000100030000   541110001920777031200000019MOB BANK               YGN           MMR11005040930490008020504000000000000000   10300002 00104100000000000000000000004200     
100   9503051024160836000000000005280000000005280000200000001041040504051743000949UB61WD0504212411000949   1030000100030000   541120003117777031200000031MOB BANK               YGN           MMR11005040517430009490504000000000000000   10300002 00104100000000000000000000010560     
100   35710830457071700000000000007900000000007900002000000010410405041014220001625926330504212416000162   1030000100030000   541120003005777031200000030MOB BANK               YGN           MMR11005041014220001620504000000000000000   10300003 00104100000000000000000000001580     
100   35710830457071700000000000013600000000013600002000000010410405040958070002685828920504212416000268   1030000100030000   541120003008777031200000030MOB BANK               YGN           MMR11005040958070002680504000000000000000   10300003 00104100000000000000000000002720     
100   62622000640952560000000000005187000000005187002000000010410405041144480002399695660504212418000239   1030000100030000   541120003003777031200000030MOB BANK               YGN           MMR11005041144480002390504000000000000000   10300006 00104100000000000000000000001038     
100   35710830803079770000000000009300000000009300002000000010410405040542430007784296600504212412000778   1030000100030000   541120003106777031200000031MOB BANK               YGN           MMR11005040542430007780504000000000000000   10300003 00104100000000000000000000001860     
100   62441900101362260000000000034100000000034100002000000010410405041436280007054905830504212421000705   1030000100030000   581210001501777031200000015MOB BANK               YGN           MMR11005041436280007050504000000000000000   10300003 00104100000000000000000000020289     
100   95030518919786900000000000034900000000034900002000000010410405040825100001045XOCZD0504212414000104   1030000100030000   541120003006777031200000030MOB BANK               YGN           MMR11005040825100001040504000000000000000   10300002 00104100000000000000000000006980     
100   9503051888903842000000000003567200000003567200200000001041040504054134000157PJ0FXV0504212412000157   1030000100030000   541120003005777031200000030MOB BANK               YGN           MMR11005040541340001570504000000000000000   10300002 00104100000000000000000000007134     
100   35710830016092610000000000017500000000017500002000000010410405040712550001584837710504212413000158   1030000100030000   541120003005777031200000030MOB BANK               YGN           MMR11005040712550001580504000000000000000   10300003 00104100000000000000000000003500     
100   62622000051533050000000000041200000000041200002000000010410405041113130001399585970504212417000139   1030000100030000   541120003013777031200000030MOB BANK               YGN           MMR11005041113130001390504000000000000000   10300006 00104100000000000000000000008240     
100   35710830441002110000000000033800000000033800002000000010410405040421340006953809510504212410000695   1030000100030000   541110001903777031200000019MOB BANK               YGN           MMR11005040421340006950504000000000000000   10300003 00104100000000000000000000006760     
100   95031900039311120000000000037900000000037900002000000010410405041252350007069AI1NH0504212419000706   1030000100030000   541110001903777031200000019MOB BANK               YGN           MMR11005041252350007060504000000000000000   10300014 00104100000000000000000000007580     
100   9503051022296079000000000002175000000002175000200000001041040504122025000963DAAISP0504212418000963   1030000100030000   541120003117777031200000031MOB BANK               YGN           MMR11005041220250009630504000000000000000   10300002 00104100000000000000000000004350     
100   35710900332284570000000000011800000000011800002000000010410405040946530015945761410504212416001594   1030000100030000   541110001907777031200000019MOB BANK               YGN           MMR11005040946530015940504000000000000000   10300003 00104100000000000000000000002360     
100   9503051891978690000000000000920000000000920000200000001041040504084251000262TKIV080504212415000262   1030000100030000   541120003008777031200000030MOB BANK               YGN           MMR11005040842510002620504000000000000000   10300002 00104100000000000000000000001840     
100   9503051894387717000000000002640000000002640000200000001041040504064351000696HWIOYW0504212413000696   1030000100030000   541110001903777031200000019MOB BANK               YGN           MMR11005040643510006960504000000000000000   10300002 00104100000000000000000000005280     
100   35710500160312780000000000025600000000025600002000000010410405041024420008053699210504212416000805   1030000100030000   541110001920777031200000019MOB BANK               YGN           MMR11005041024420008050504000000000000000   10300005 00104100000000000000000000005120     
100   35710500301149770000000000018205000000018205002000000010410405040933410013508005830504212416001350   1030000100030000   581250000001777031200000005MOB BANK               YGN           MMR11005040933410013500504000000000000000   10300005 00104100000000000000000000006190     
100   95030518896600370000000000034610000000034610002000000010410405040636110009528BXFKT0504212413000952   1030000100030000   541120003117777031200000031MOB BANK               YGN           MMR11005040636110009520504000000000000000   10300002 00104100000000000000000000006922     
100   35710500175555980000000000019150000000019150002000000010410405041010500015962606750504212416001596   1030000100030000   541110001907777031200000019MOB BANK               YGN           MMR11005041010500015960504000000000000000   10300005 00104100000000000000000000003830     
100   35710500115862920000000000034450000000034450002000000010410405041037260001637867940504212417000163   1030000100030000   541120003005777031200000030MOB BANK               YGN           MMR11005041037260001630504000000000000000   10300005 00104100000000000000000000006890     
100   9503051024907285000000000001800000000001800000200000001041040504073019000128GQMHSI0504212414000128   1030000100030000   541120003012777031200000030MOB BANK               YGN           MMR11005040730190001280504000000000000000   10300002 00104100000000000000000000003600     
100   9503051019617014000000000001404000000001404000200000001041040504035127000287OH51NZ0504212410000287   1030000100030000   541120003111777031200000031MOB BANK               YGN           MMR11005040351270002870504000000000000000   10300002 00104100000000000000000000002808     
100   35710830232173330000000000014040000000014040002000000010410405040726070002884916810504212413000288   1030000100030000   541120003111777031200000031MOB BANK               YGN           MMR11005040726070002880504000000000000000   10300003 00104100000000000000000000002808     
100   35710500191387240000000000013235000000013235002000000010410405041008450002390523070504212416000239   1030000100030000   541120003001777031200000030MOB BANK               YGN           MMR11005041008450002390504000000000000000   10300005 00104100000000000000000000002647     
100   35710500393380070000000000017712000000017712002000000010410405041105430002701016500504212417000270   1030000100030000   541120003008777031200000030MOB BANK               YGN           MMR11005041105430002700504000000000000000   10300005 00104100000000000000000000003542     
100   35710500104178610000000000014350000000014350002000000010410405041123260002330072360504212417000233   1030000100030000   541120003003777031200000030MOB BANK               YGN           MMR11005041123260002330504000000000000000   10300005 00104100000000000000000000002870     
100   9503051024008944000000000002280000000002280000200000001041040504094033000697PYZQO70504212416000697   1030000100030000   541110001903777031200000019MOB BANK               YGN           MMR11005040940330006970504000000000000000   10300002 00104100000000000000000000004560     
100   9503051890663665000000000010550000000010550000200000001041040504102800001598TSREPW0504212416001598   1030000100030000   541110001907777031200000019MOB BANK               YGN           MMR11005041028000015980504000000000000000   10300002 00104100000000000000000000021100     
100   35710500303672940000000000013090000000013090002000000010410405040947200013517020330504212416001351   1030000100030000   581250000001777031200000005MOB BANK               YGN           MMR11005040947200013510504000000000000000   10300005 00104100000000000000000000004451     
100   35710500334453940000000000009000000000009000002000000010410405040844250009541680890504212415000954   1030000100030000   541120003117777031200000031MOB BANK               YGN           MMR11005040844250009540504000000000000000   10300005 00104100000000000000000000001800     
100   35710500162906350000000000029900000000029900002000000010410405040752040007842208900504212414000784   1030000100030000   541120003106777031200000031MOB BANK               YGN           MMR11005040752040007840504000000000000000   10300005 00104100000000000000000000005980     
100   35710830596896600000000000021560000000021560002000000010410405041235360013526773710504212419001352   1030000100030000   581250000001777031200000005MOB BANK               YGN           MMR11005041235360013520504000000000000000   10300003 00104100000000000000000000007330     
100   35710830075118670000000000027000000000027000002000000010410405040443530015893943410504212411001589   1030000100030000   541110001907777031200000019MOB BANK               YGN           MMR11005040443530015890504000000000000000   10300003 00104100000000000000000000005400     
100   95030518919786900000000000018600000000018600002000000010410405040859360001599QADOB0504212415000159   1030000100030000   541120003005777031200000030MOB BANK               YGN           MMR11005040859360001590504000000000000000   10300002 00104100000000000000000000003720     
100   9503051024907285000000000015605000000015605000200000001041040504074646000136ECNCOO0504212414000136   1030000100030000   541120003013777031200000030MOB BANK               YGN           MMR11005040746460001360504000000000000000   10300002 00104100000000000000000000031210     
100   35710500160312780000000000030800000000030800002000000010410405040958540006999905530504212416000699   1030000100030000   541110001903777031200000019MOB BANK               YGN           MMR11005040958540006990504000000000000000   10300005 00104100000000000000000000006160     
100   35710830920003470000000000015732000000015732002000000010410405041031270002306028820504212417000230   1030000100030000   541120003003777031200000030MOB BANK               YGN           MMR11005041031270002300504000000000000000   10300003 00104100000000000000000000003146     
100   95030518920883660000000000016380000000016380002000000010410405040528080002560OEX9U0504212411000256   1030000100030000   541120003008777031200000030MOB BANK               YGN           MMR11005040528080002560504000000000000000   10300002 00104100000000000000000000003276     
100   35710830478942810000000000019000000000019000002000000010410405041017560007005947810504212416000700   1030000100030000   541110001903777031200000019MOB BANK               YGN           MMR11005041017560007000504000000000000000   10300003 00104100000000000000000000003800     
100   95030101000876280000000000009200000000009200002000000010410405041156470008097054080504212418000809   1030000100030000   541110001920777031200000019MOB BANK               YGN           MMR11005041156470008090504000000000000000   10200001 00104100000000000000000000001840     
100   35710830760420180000000000008195000000008195002000000010410405041240290013536803100504212419001353   1030000100030000   581250000001777031200000005MOB BANK               YGN           MMR11005041240290013530504000000000000000   10300003 00104100000000000000000000002786     
100   9503051022296079000000000002550000000002550000200000001041040504115246000956FYAXRA0504212418000956   1030000100030000   541120003117777031200000031MOB BANK               YGN           MMR11005041152460009560504000000000000000   10300002 00104100000000000000000000005100     
100   35710830204630540000000000016110000000016110002000000010410405040920420002895604410504212415000289   1030000100030000   541120003111777031200000031MOB BANK               YGN           MMR11005040920420002890504000000000000000   10300003 00104100000000000000000000003222     
100   35710830025752300000000000058710000000058710002000000010410405040612210007944474210504212412000794   1030000100030000   541110001920777031200000019MOB BANK               YGN           MMR11005040612210007940504000000000000000   10300003 00104100000000000000000000011742     
100   62622000823696910000000000010927000000010927002000000010410405040959150001609515870504212416000160   1030000100030000   541120003005777031200000030MOB BANK               YGN           MMR11005040959150001600504000000000000000   10300006 00104100000000000000000000002186     
100   9503051020907578000000000001305000000001305000200000001041040504052443000156RQBXXN0504212411000156   1030000100030000   541120003005777031200000030MOB BANK               YGN           MMR11005040524430001560504000000000000000   10300002 00104100000000000000000000002610     
100   62346600128958980000000000012604000000012604002000000010410405041142100002724717010504212418000272   1030000100030000   541120003008777031200000030MOB BANK               YGN           MMR11005041142100002720504000000000000000   10300005 00104100000000000000000000002521     
100   35710830920003470000000000023079990000023079992000000010410405040624100002214545210504212412000221   1030000100030000   541120003003777031200000030MOB BANK               YGN           MMR11005040624100002210504000000000000000   10300003 00104100000000000000000000004616     
100   9503051894291182000000000003850000000003850000200000001041040504031839000772IFRM9Z0504212409000772   1030000100030000   541120003106777031200000031MOB BANK               YGN           MMR11005040318390007720504000000000000000   10300002 00104100000000000000000000007700     
100   95030518735238030000000000029750000000029750002000000010410405041214120016013DXYNB0504212418001601   1030000100030000   541110001907777031200000019MOB BANK               YGN           MMR11005041214120016010504000000000000000   10300002 00104100000000000000000000005950     
100   9503051894291182000000000005600000000005600000200000001041040504042833000117MKV3WD0504212410000117   1030000100030000   541120003112777031200000031MOB BANK               YGN           MMR11005040428330001170504000000000000000   10300002 00104100000000000000000000011200     
100   35710500353797990000000000041550000000041550002000000010410405040956220002663586530504212416000266   1030000100030000   541120003008777031200000030MOB BANK               YGN           MMR11005040956220002660504000000000000000   10300005 00104100000000000000000000008310     
100   9503051022296079000000000000630000000000630000200000001041040504115744000958MW6MJ00504212418000958   1030000100030000   541120003117777031200000031MOB BANK               YGN           MMR11005041157440009580504000000000000000   10300002 00104100000000000000000000001260     
100   9503051022801191000000000002280000000002280000200000001041040504071057001591HQDUMU0504212413001591   1030000100030000   541110001907777031200000019MOB BANK               YGN           MMR11005040710570015910504000000000000000   10300002 00104100000000000000000000004560     
100   9503051889150849000000000004122000000004122000200000001041040504094323000290YA2STP0504212416000290   1030000100030000   541120003111777031200000031MOB BANK               YGN           MMR11005040943230002900504000000000000000   10300002 00104100000000000000000000008244     
100   9503051886834098000000000000165000000000165000200000001041040504095238000226FHQKIA0504212416000226   1030000100030000   541120003003777031200000030MOB BANK               YGN           MMR11005040952380002260504000000000000000   10300002 00104100000000000000000000000330     
100   95051802670087470000000000018450000000018450002000000010410405040509490009472841210504212411000947   1030000100030000   541120003117777031200000031MOB BANK               YGN           MMR11005040509490009470504000000000000000   10300013 00104100000000000000000000006457     
100   35710500353797990000000000007850000000007850002000000010410405041010360001619301780504212416000161   1030000100030000   541120003005777031200000030MOB BANK               YGN           MMR11005041010360001610504000000000000000   10300005 00104100000000000000000000001570     
100   9503051024907285000000000010990000000010990000200000001041040504083247000137MDTRN50504212415000137   1030000100030000   541120003013777031200000030MOB BANK               YGN           MMR11005040832470001370504000000000000000   10300002 00104100000000000000000000021980     
100   95030800057586150000000000006150000000006150002000000010410405041133290002366401020504212418000236   1030000100030000   541120003003777031200000030MOB BANK               YGN           MMR11005041133290002360504000000000000000   10300003 00104100000000000000000000001230     
100   9503051885542064000000000000310000000000310000200000001041040504053756000238QTJMKL0504212412000238   1030000100030000   541120003001777031200000030MOB BANK               YGN           MMR11005040537560002380504000000000000000   10300002 00104100000000000000000000000620     
100   35710500172648030000000000030800000000030800002000000010410405041137250007046759320504212418000704   1030000100030000   541110001903777031200000019MOB BANK               YGN           MMR11005041137250007040504000000000000000   10300005 00104100000000000000000000006160     
100   62441900001759110000000000011074000000011074002000000010410405040352310000262027800504212410000026   1030000100030000   541110001914777031200000019MOB BANK               YGN           MMR11005040352310000260504000000000000000   10300003 00104100000000000000000000003876     
100   35710830073633760000000000023350000000023350002000000010410405040740090002605001030504212414000260   1030000100030000   541120003008777031200000030MOB BANK               YGN           MMR11005040740090002600504000000000000000   10300003 00104100000000000000000000004670     
100   35710500140563190000000000052600000000052600002000000010410405041211070007058547170504212418000705   1030000100030000   541110001903777031200000019MOB BANK               YGN           MMR11005041211070007050504000000000000000   10300005 00104100000000000000000000010520     
100   9503051892750031000000000001764000000001764000200000001041040504061713001407DQZ10P0504212412001407   1030000100030000   541110001905777031200000019MOB BANK               YGN           MMR11005040617130014070504000000000000000   10300002 00104100000000000000000000003528     
100   95030540008164130000000000019300000000019300002000000010410405040627550014141RAYPK0504212412001414   1030000100030000   541110001905777031200000019MOB BANK               YGN           MMR11005040627550014140504000000000000000   10300002 00104100000000000000000000003860     
100   9503051886790449000000000003038000000003038000200000001041040504064356001416NU2OHB0504212413001416   1030000100030000   541110001905777031200000019MOB BANK               YGN           MMR11005040643560014160504000000000000000   10300002 00104100000000000000000000006076     
100   35710830025752300000000000119450000000119450002000000010410405040714210014194846300504212413001419   1030000100030000   541110001905777031200000019MOB BANK               YGN           MMR11005040714210014190504000000000000000   10300003 00104100000000000000000000023890     
