100   35710830418214620000000000045500000000045500002000000010410405031148300009397851210503212318000939   1030000100030000   541120003117777031200000031MOB BANK               YGN           MMR11005031148300009390503000000000000000   10300003 00104100000000000000000000009100     
100   35710500355578240000000000006300000000006300002000000010410405030555410001198975460503212312000119   1030000100030000   541120003013777031200000030MOB BANK               YGN           MMR11005030555410001190503000000000000000   10300005 00104100000000000000000000001260     
100   9503051875531846000000000003280000000003280000200000001041040503083839000677MDAZNE0503212315000677   1030000100030000   541110001903777031200000019MOB BANK               YGN           MMR11005030838390006770503000000000000000   10300002 00104100000000000000000000006560     
100   9503051888081201000000000002580000000002580000200000001041040503115120000691SOH7WH0503212318000691   1030000100030000   541110001903777031200000019MOB BANK               YGN           MMR11005031151200006910503000000000000000   10300002 00104100000000000000000000005160     
100   62346600163849720000000000030350000000030350002000000010410405031103300015837413570503212317001583   1030000100030000   541110001907777031200000019MOB BANK               YGN           MMR11005031103300015830503000000000000000   10300005 00104100000000000000000000006070     
100   62346600176767800000000000001372000000001372002000000010410405030826460015718179660503212314001571   1030000100030000   541110001907777031200000019MOB BANK               YGN           MMR11005030826460015710503000000000000000   10300005 00104100000000000000000000000274     
100   62622000226252440000000000001350000000001350002000000010410405031217240001279394770503212318000127   1030000100030000   541120003013777031200000030MOB BANK               YGN           MMR11005031217240001270503000000000000000   10300006 00104100000000000000000000000270     
100   9503051025694999000000000000855000000000855000200000001041040503131033000183LS8PXB0503212319000183   1030000100030000   541120003110777031200000031MOB BANK               YGN           MMR11005031310330001830503000000000000000   10300002 00104100000000000000000000001710     
100   35710500161127140000000000285250000000285250002000000010410405030624130006988621290503212312000698   1030000100030000   581210001501777031200000015MOB BANK               YGN           MMR11005030624130006980503000000000000000   10300005 00104100000000000000000000096985     
100   35710830925136610000000000003850000000003850002000000010410405031031580013447391920503212317001344   1030000100030000   581250000001777031200000005MOB BANK               YGN           MMR11005031031580013440503000000000000000   10300003 00104100000000000000000000001309     
100   9503051023762228000000000000780000000000780000200000001041040503084557001574AQOBR50503212315001574   1030000100030000   541110001907777031200000019MOB BANK               YGN           MMR11005030845570015740503000000000000000   10300002 00104100000000000000000000001560     
100   9503051895015796000000000003996000000003996000200000001041040503131746000128ZXJP4H0503212319000128   1030000100030000   541120003013777031200000030MOB BANK               YGN           MMR11005031317460001280503000000000000000   10300002 00104100000000000000000000007992     
100   9503051887191076000000000000220500000000220500200000001041040503123205000153QXNFT00503212319000153   1030000100030000   541120003005777031200000030MOB BANK               YGN           MMR11005031232050001530503000000000000000   10300002 00104100000000000000000000000441     
100   35710950338828150000000000004300000000004300002000000010410405031025460002537354800503212316000253   1030000100030000   541120003008777031200000030MOB BANK               YGN           MMR11005031025460002530503000000000000000   10300003 00104100000000000000000000000860     
100   35710500382455260000000000010400000000010400002000000010410405030913180002876795710503212315000287   1030000100030000   541120003104777031200000031MOB BANK               YGN           MMR11005030913180002870503000000000000000   10300005 00104100000000000000000000002080     
100   95030518957461840000000000039900000000039900002000000010410405031109400006874OJFAO0503212317000687   1030000100030000   541110001903777031200000019MOB BANK               YGN           MMR11005031109400006870503000000000000000   10300002 00104100000000000000000000007980     
100   95031800017021280000000000031200000000031200002000000010410405031025040009299639200503212316000929   1030000100030000   541120003117777031200000031MOB BANK               YGN           MMR11005031025040009290503000000000000000   10300013 00104100000000000000000000006240     
100   35710500362363940000000000025000000000025000002000000010410405030834430001202357490503212315000120   1030000100030000   541120003013777031200000030MOB BANK               YGN           MMR11005030834430001200503000000000000000   10300005 00104100000000000000000000005000     
100   62346600121339280000000000002000000000002000002000000010410405030717470002054894190503212313000205   1030000100030000   541120003114777031200000031MOB BANK               YGN           MMR11005030717470002050503000000000000000   10300005 00104100000000000000000000000400     
100   35710500375062900000000000049010000000049010002000000010410405030815020001798066980503212314000179   1030000100030000   541120003110777031200000031MOB BANK               YGN           MMR11005030815020001790503000000000000000   10300005 00104100000000000000000000009802     
100   9503051889257248000000000005900000000005900000200000001041040503091942000679H5MOBI0503212315000679   1030000100030000   541110001903777031200000019MOB BANK               YGN           MMR11005030919420006790503000000000000000   10300002 00104100000000000000000000011800     
100   35710830747668810000000000013500000000013500002000000010410405031020320001807323320503212316000180   1030000100030000   541120003110777031200000031MOB BANK               YGN           MMR11005031020320001800503000000000000000   10300003 00104100000000000000000000002700     
100   95030518886516490000000000010400000000010400002000000010410405030939530009174MNXS40503212316000917   1030000100030000   541120003117777031200000031MOB BANK               YGN           MMR11005030939530009170503000000000000000   10300002 00104100000000000000000000002080     
100   35710500313974230000000000016995000000016995002000000010410405031113350013477768160503212317001347   1030000100030000   581250000001777031200000005MOB BANK               YGN           MMR11005031113350013470503000000000000000   10300005 00104100000000000000000000005778     
100   9503051894222666000000000001534500000001534500200000001041040503104645001345WTOKMY0503212317001345   1030000100030000   581250000001777031200000005MOB BANK               YGN           MMR11005031046450013450503000000000000000   10300002 00104100000000000000000000005217     
100   35710830177224540000000000006600000000006600002000000010410405030306520013414721420503212309001341   1030000100030000   581250000001777031200000005MOB BANK               YGN           MMR11005030306520013410503000000000000000   10300003 00104100000000000000000000002244     
100   9503051025200557000000000009000000000009000000200000001041040503084945001577XJK6J90503212315001577   1030000100030000   541110001907777031200000019MOB BANK               YGN           MMR11005030849450015770503000000000000000   10300002 00104100000000000000000000018000     
100   9503051024291763000000000000480000000000480000200000001041040503100406000250IBJNJL0503212316000250   1030000100030000   541120003008777031200000030MOB BANK               YGN           MMR11005031004060002500503000000000000000   10300002 00104100000000000000000000000960     
100   62346600120681400000000000035800000000035800002000000010410405031126540006895238030503212317000689   1030000100030000   541110001903777031200000019MOB BANK               YGN           MMR11005031126540006890503000000000000000   10300005 00104100000000000000000000007160     
100   9503190000068165000000000004000000000004000000200000001041040503111031000753H98K4A0503212317000753   1030000100030000   541120003106777031200000031MOB BANK               YGN           MMR11005031110310007530503000000000000000   10300014 00104100000000000000000000008000     
100   35710830418214620000000000016650000000016650002000000010410405031200230009437922500503212318000943   1030000100030000   541120003117777031200000031MOB BANK               YGN           MMR11005031200230009430503000000000000000   10300003 00104100000000000000000000003330     
100   95051815532379820000000000006800000000006800002000000010410405030525000008992085780503212311000899   1030000100030000   541120003117777031200000031MOB BANK               YGN           MMR11005030525000008990503000000000000000   10300013 00104100000000000000000000002380     
100   35710500333383180000000000065100000000065100002000000010410405030838360001210059890503212315000121   1030000100030000   541120003013777031200000030MOB BANK               YGN           MMR11005030838360001210503000000000000000   10300005 00104100000000000000000000013020     
100   9503051024318889000000000006160000000006160000200000001041040503085702000508W0C3TA0503212315000508   1030000100030000   541120003103777031200000031MOB BANK               YGN           MMR11005030857020005080503000000000000000   10300002 00104100000000000000000000012320     
100   9503051892120631000000000002180000000002180000200000001041040503043858000674F6YLAO0503212311000674   1030000100030000   541110001903777031200000019MOB BANK               YGN           MMR11005030438580006740503000000000000000   10300002 00104100000000000000000000004360     
100   95031800017021280000000000007600000000007600002000000010410405031031160009318119090503212317000931   1030000100030000   541120003117777031200000031MOB BANK               YGN           MMR11005031031160009310503000000000000000   10300013 00104100000000000000000000001520     
100   95031800017021280000000000018500000000018500002000000010410405031036500009338034560503212317000933   1030000100030000   541120003117777031200000031MOB BANK               YGN           MMR11005031036500009330503000000000000000   10300013 00104100000000000000000000003700     
100   35710830653503490000000000238150000000238150002000000010410405030707340006996165610503212313000699   1030000100030000   581210001501777031200000015MOB BANK               YGN           MMR11005030707340006990503000000000000000   10300003 00104100000000000000000000080971     
100   95030800003877660000000000047850000000047850002000000010410405031237470007018146910503212319000701   1030000100030000   581210001501777031200000015MOB BANK               YGN           MMR11005031237470007010503000000000000000   10300003 00104100000000000000000000016269     
100   62346600127081820000000000008250000000008250002000000010410405030741410009080043700503212314000908   1030000100030000   541120003117777031200000031MOB BANK               YGN           MMR11005030741410009080503000000000000000   10300005 00104100000000000000000000001650     
100   35710500142101630000000000003250000000003250002000000010410405030406380013780757000503212310001378   1030000100030000   541110001905777031200000019MOB BANK               YGN           MMR11005030406380013780503000000000000000   10300005 00104100000000000000000000000650     
100   9503051891643716000000000001430000000001430000200000001041040503050938000213S1SGSX0503212311000213   1030000100030000   541120003003777031200000030MOB BANK               YGN           MMR11005030509380002130503000000000000000   10300002 00104100000000000000000000002860     
100   35710830104351120000000000009400000000009400002000000010410405030645410009036034220503212313000903   1030000100030000   541120003117777031200000031MOB BANK               YGN           MMR11005030645410009030503000000000000000   10300003 00104100000000000000000000001880     
100   62921400051597590000000000008195000000008195002000000010410405030826380013432222220503212314001343   1030000100030000   581250000001777031200000005MOB BANK               YGN           MMR11005030826380013430503000000000000000   10300009 00104100000000000000000000002786     
100   35710830631279130000000000009295000000009295002000000010410405031047410013467486210503212317001346   1030000100030000   581250000001777031200000005MOB BANK               YGN           MMR11005031047410013460503000000000000000   10300003 00104100000000000000000000003160     
100   35710830115307210000000000082500000000082500002000000010410405031047540013937487510503212317001393   1030000100030000   541110001905777031200000019MOB BANK               YGN           MMR11005031047540013930503000000000000000   10300003 00104100000000000000000000016500     
100   35710830184951910000000000029900000000029900002000000010410405030847290001256765100503212315000125   1030000100030000   541120003013777031200000030MOB BANK               YGN           MMR11005030847290001250503000000000000000   10300003 00104100000000000000000000005980     
100   35710830476928000000000000006150000000006150002000000010410405030756260009126458710503212314000912   1030000100030000   541120003117777031200000031MOB BANK               YGN           MMR11005030756260009120503000000000000000   10300003 00104100000000000000000000001230     
100   35710500301798300000000000017346000000017346002000000010410405030727020013862028490503212313001386   1030000100030000   541110001905777031200000019MOB BANK               YGN           MMR11005030727020013860503000000000000000   10300005 00104100000000000000000000003469     
100   35710500133173990000000000012600000000012600002000000010410405030452520001184127330503212311000118   1030000100030000   541120003013777031200000030MOB BANK               YGN           MMR11005030452520001180503000000000000000   10300005 00104100000000000000000000002520     
100   9503051889257248000000000006370000000006370000200000001041040503092549000682MPG6EE0503212315000682   1030000100030000   541110001903777031200000019MOB BANK               YGN           MMR11005030925490006820503000000000000000   10300002 00104100000000000000000000012740     
100   35710500353576960000000000033800000000033800002000000010410405031007220006844652470503212316000684   1030000100030000   541110001903777031200000019MOB BANK               YGN           MMR11005031007220006840503000000000000000   10300005 00104100000000000000000000006760     
100   9503051020120669000000000003880000000003880000200000001041040503064639000676PRQZON0503212313000676   1030000100030000   541110001903777031200000019MOB BANK               YGN           MMR11005030646390006760503000000000000000   10300002 00104100000000000000000000007760     
100   35710830828382840000000000001176000000001176002000000010410405020519180015506876010502212211001550   1030000100030000   541110001907777031200000019MOB BANK               YGN           MMR11005020519180015500502000000000000000   10300003 00104100000000000000000000000235     
100   35710500363849620000000000049800000000049800002000000010410405020614570013625207220502212212001362   1030000100030000   541110001905777031200000019MOB BANK               YGN           MMR11005020614570013620502000000000000000   10300005 00104100000000000000000000009960     
100   35710830785376680000000000099000000000099000002000000010410405010704090005245198130501212113000524   1030000100030000   581210001201777031200000012MOB BANK               YGN           MMR11005010704090005240501000000000000000   10300003 00104100000000000000000000033660     
100   9503051873595157000000000002550000000002550000200000001041040501061748000026OE1OFD0501212112000026   1030000100030000   541180000001777031200000008MOB BANK               YGN           MMR11005010617480000260501000000000000000   10300002 00104100000000000000000000005100     
100   9503051887998637000000000001350000000001350000200000001041040501084537000266RV2QN40501212115000266   1030000100030000   541120003111777031200000031MOB BANK               YGN           MMR11005010845370002660501000000000000000   10300002 00104100000000000000000000002700     
100   35710830572261920000000000101200000000101200002000000010410405011306450005255360650501212119000525   1030000100030000   581210001201777031200000012MOB BANK               YGN           MMR11005011306450005250501000000000000000   10300003 00104100000000000000000000034408     
100   35710500133151380000000000022300000000022300002000000010410405010605410000253421190501212112000025   1030000100030000   541180000001777031200000008MOB BANK               YGN           MMR11005010605410000250501000000000000000   10300005 00104100000000000000000000004460     
100   9503051893728408000000000118420000000118420000200000001041040501144742000526GOZGUH0501212121000526   1030000100030000   581210001201777031200000012MOB BANK               YGN           MMR11005011447420005260501000000000000000   10300002 00104100000000000000000000402628     
100   35710500305743450000000000014000000000014000002000000010410405021143370008868019940502212218000886   1030000100030000   541120003117777031200000031MOB BANK               YGN           MMR11005021143370008860502000000000000000   10300005 00104100000000000000000000002800     
100   35710500320583470000000000021638000000021638002000000010410405020809020001496625870502212214000149   1030000100030000   541120003005777031200000030MOB BANK               YGN           MMR11005020809020001490502000000000000000   10300005 00104100000000000000000000004328     
100   62346600150651680000000000029500000000029500002000000010410405010847170002673209380501212115000267   1030000100030000   541120003111777031200000031MOB BANK               YGN           MMR11005010847170002670501000000000000000   10300005 00104100000000000000000000005900     
100   35710830511196660000000000019500000000019500002000000010410405020704410008687508300502212213000868   1030000100030000   541120003117777031200000031MOB BANK               YGN           MMR11005020704410008680502000000000000000   10300003 00104100000000000000000000003900     
100   9503051888722473000000000001520000000001520000200000001041040430074211000021IDI2PV0430212014000021   1030000100030000   541180000001777031200000008MOB BANK               YGN           MMR11004300742110000210430000000000000000   10300002 00104100000000000000000000003040     
100   9503051887387930000000000000490000000000490000200000001041040502105003000881DUT4BC0502212217000881   1030000100030000   541120003117777031200000031MOB BANK               YGN           MMR11005021050030008810502000000000000000   10300002 00104100000000000000000000000980     
100   9503051020432882000000000000575000000000575000200000001041040502083025000231XMMQ8B0502212215000231   1030000100030000   541120003001777031200000030MOB BANK               YGN           MMR11005020830250002310502000000000000000   10300002 00104100000000000000000000001150     
100   35710500313646390000000000004300000000004300002000000010410405020747020008753683160502212214000875   1030000100030000   541120003117777031200000031MOB BANK               YGN           MMR11005020747020008750502000000000000000   10300005 00104100000000000000000000000860     
100   9503051889145468000000000001170000000001170000200000001041040502131115000174XEZHZM0502212219000174   1030000100030000   541120003110777031200000031MOB BANK               YGN           MMR11005021311150001740502000000000000000   10300002 00104100000000000000000000002340     
100   35710830511196660000000000013200000000013200002000000010410405020731040001697666520502212214000169   1030000100030000   541120003110777031200000031MOB BANK               YGN           MMR11005020731040001690502000000000000000   10300003 00104100000000000000000000002640     
100   62346600121230510000000000009114000000009114002000000010410405020722090002766194680502212213000276   1030000100030000   541120003104777031200000031MOB BANK               YGN           MMR11005020722090002760502000000000000000   10300005 00104100000000000000000000001823     
100   9503051887191076000000000000308700000000308700200000001041040502120434000233FMNP5D0502212218000233   1030000100030000   541120003001777031200000030MOB BANK               YGN           MMR11005021204340002330502000000000000000   10300002 00104100000000000000000000000618     
100   9503051886833488000000000000380000000000380000200000001041040502065010000864VAQVVN0502212213000864   1030000100030000   541120003117777031200000031MOB BANK               YGN           MMR11005020650100008640502000000000000000   10300002 00104100000000000000000000000760     
100   35710500383904470000000000012887000000012887002000000010410405020945000013703202520502212216001370   1030000100030000   541110001905777031200000019MOB BANK               YGN           MMR11005020945000013700502000000000000000   10300005 00104100000000000000000000002578     
100   9503051894123435000000000001360000000001360000200000001041040502103112000170A8ESVJ0502212217000170   1030000100030000   541120003110777031200000031MOB BANK               YGN           MMR11005021031120001700502000000000000000   10300002 00104100000000000000000000002720     
100   95030510257449190000000000002010000000002010002000000010410405021127350002782Y9BOD0502212217000278   1030000100030000   541120003104777031200000031MOB BANK               YGN           MMR11005021127350002780502000000000000000   10300002 00104100000000000000000000000402     
100   9503051897340648000000000007460000000007460000200000001041040502124739000670K6FPFE0502212219000670   1030000100030000   541110001903777031200000019MOB BANK               YGN           MMR11005021247390006700502000000000000000   10300002 00104100000000000000000000014920     
100   9503051025607686000000000001670000000001670000200000001041040502120608000889OAWCAX0502212218000889   1030000100030000   541120003117777031200000031MOB BANK               YGN           MMR11005021206080008890502000000000000000   10300002 00104100000000000000000000003340     
100   35710830114587170000000000013475000000013475002000000010410405021202180013399294000502212218001339   1030000100030000   581250000001777031200000005MOB BANK               YGN           MMR11005021202180013390502000000000000000   10300003 00104100000000000000000000004582     
100   9503051022374082000000000002800000000002800000200000001041040502084630000240CWFIGT0502212215000240   1030000100030000   541120003008777031200000030MOB BANK               YGN           MMR11005020846300002400502000000000000000   10300002 00104100000000000000000000005600     
100   35710830483392780000000000025800000000025800002000000010410405021002240006688574530502212216000668   1030000100030000   541110001903777031200000019MOB BANK               YGN           MMR11005021002240006680502000000000000000   10300003 00104100000000000000000000005160     
100   9503051022757005000000000000345000000000345000200000001041040502062553001553WLN5M20502212212001553   1030000100030000   541110001907777031200000019MOB BANK               YGN           MMR11005020625530015530502000000000000000   10300002 00104100000000000000000000000690     
100   9503051891978690000000000000985000000000985000200000001041040502061920000115DULVV30502212212000115   1030000100030000   541120003013777031200000030MOB BANK               YGN           MMR11005020619200001150502000000000000000   10300002 00104100000000000000000000001970     
100   9503051872947094000000000002230000000002230000200000001041040502044925001352ZRI88K0502212211001352   1030000100030000   541110001905777031200000019MOB BANK               YGN           MMR11005020449250013520502000000000000000   10300002 00104100000000000000000000004460     
100   9503051894123435000000000000792000000000792000200000001041040502103812000171ERLGM10502212217000171   1030000100030000   541120003110777031200000031MOB BANK               YGN           MMR11005021038120001710502000000000000000   10300002 00104100000000000000000000001584     
100   35710500182897910000000000016160000000016160002000000010410405021252340008931357210502212219000893   1030000100030000   541120003117777031200000031MOB BANK               YGN           MMR11005021252340008930502000000000000000   10300005 00104100000000000000000000003232     
100   35710830188311300000000000080000000000080000002000000010410405021104530008838949500502212217000883   1030000100030000   541120003117777031200000031MOB BANK               YGN           MMR11005021104530008830502000000000000000   10300003 00104100000000000000000000016000     
100   35710500130028920000000000004800000000004800002000000010410405020803230002389554800502212214000238   1030000100030000   541120003008777031200000030MOB BANK               YGN           MMR11005020803230002380502000000000000000   10300005 00104100000000000000000000000960     
100   9503051885692257000000000004500000000004500000200000001041040502033836000146YXETA90502212210000146   1030000100030000   541120003005777031200000030MOB BANK               YGN           MMR11005020338360001460502000000000000000   10300002 00104100000000000000000000009000     
100   9503051887417596000000000003756000000003756000200000001041040502113617000280GVJOLK0502212218000280   1030000100030000   541120003104777031200000031MOB BANK               YGN           MMR11005021136170002800502000000000000000   10300002 00104100000000000000000000007512     
100   35710830986298000000000000011250000000011250002000000010410405020617570002717227810502212212000271   1030000100030000   541120003111777031200000031MOB BANK               YGN           MMR11005020617570002710502000000000000000   10300003 00104100000000000000000000002250     
100   9503051891978690000000000004930000000004930000200000001041040502060852000236PR8KOG0502212212000236   1030000100030000   541120003008777031200000030MOB BANK               YGN           MMR11005020608520002360502000000000000000   10300002 00104100000000000000000000009860     
100   9503051872947094000000000016900000000016900000200000001041040502044049001545VBIHPF0502212211001545   1030000100030000   541110001907777031200000019MOB BANK               YGN           MMR11005020440490015450502000000000000000   10300002 00104100000000000000000000033800     
100   35710500365457520000000000005050000000005050002000000010410405020434090002300471510502212211000230   1030000100030000   541120003001777031200000030MOB BANK               YGN           MMR11005020434090002300502000000000000000   10300005 00104100000000000000000000001010     
100   9503051888346109000000000001550000000001550000200000001041040502062329000273KMNT6V0502212212000273   1030000100030000   541120003111777031200000031MOB BANK               YGN           MMR11005020623290002730502000000000000000   10300002 00104100000000000000000000003100     
100   9503051026231049000000000000200000000000200000200000001041040502045512000272HS2ZS70502212211000272   1030000100030000   541120003104777031200000031MOB BANK               YGN           MMR11005020455120002720502000000000000000   10300002 00104100000000000000000000000400     
100   35710500315492960000000000020295000000020295002000000010410405021159300013382848570502212218001338   1030000100030000   581250000001777031200000005MOB BANK               YGN           MMR11005021159300013380502000000000000000   10300005 00104100000000000000000000006900     
100   9503051888278070000000000002025000000002025000200000001041040502072942000168ZAJV2J0502212213000168   1030000100030000   541120003110777031200000031MOB BANK               YGN           MMR11005020729420001680502000000000000000   10300002 00104100000000000000000000004050     
100   35710950011429520000000000004550000000004550002000000010410405020653510001477443300502212213000147   1030000100030000   541120003005777031200000030MOB BANK               YGN           MMR11005020653510001470502000000000000000   10300003 00104100000000000000000000000910     
100   9503051889403263000000000000675000000000675000200000001041040502072904000275BVFUQ10502212213000275   1030000100030000   541120003111777031200000031MOB BANK               YGN           MMR11005020729040002750502000000000000000   10300002 00104100000000000000000000001350     
100   35710500343774140000000000007840000000007840002000000010410405020854210008781574260502212215000878   1030000100030000   541120003117777031200000031MOB BANK               YGN           MMR11005020854210008780502000000000000000   10300005 00104100000000000000000000001568     
100   9503051024481042000000000002293500000002293500200000001041040502065919001336MYYDAC0502212213001336   1030000100030000   581250000001777031200000005MOB BANK               YGN           MMR11005020659190013360502000000000000000   10300002 00104100000000000000000000007798     
100   9503051026024816000000000000819500000000819500200000001041040502094622001337MGOQOO0502212216001337   1030000100030000   581250000001777031200000005MOB BANK               YGN           MMR11005020946220013370502000000000000000   10300002 00104100000000000000000000002786     
100   35710500313715350000000000047450000000047450002000000010410405020929060013668168040502212215001366   1030000100030000   541110001905777031200000019MOB BANK               YGN           MMR11005020929060013660502000000000000000   10300005 00104100000000000000000000009490     
100   62921400092290870000000000027000000000027000002000000010410405021218260001722222220502212218000172   1030000100030000   541120003110777031200000031MOB BANK               YGN           MMR11005021218260001720502000000000000000   10300009 00104100000000000000000000005400     
100   35710830523312520000000000010800000000010800002000000010410405021128230015609090510502212217001560   1030000100030000   541110001907777031200000019MOB BANK               YGN           MMR11005021128230015600502000000000000000   10300003 00104100000000000000000000002160     
100   35710830544186280000000000046710000000046710002000000010410405020749480002767779000502212214000276   1030000100030000   541120003111777031200000031MOB BANK               YGN           MMR11005020749480002760502000000000000000   10300003 00104100000000000000000000009342     
100   35710830099902750000000000013426000000013426002000000010410405030532550002145597610503212312000214   1030000100030000   541120003003777031200000030MOB BANK               YGN           MMR11005030532550002140503000000000000000   10300003 00104100000000000000000000002685     
100   35710500373682530000000000043100000000043100002000000010410405030954260009218028750503212316000921   1030000100030000   541120003117777031200000031MOB BANK               YGN           MMR11005030954260009210503000000000000000   10300005 00104100000000000000000000008620     
100   9503051025455946000000000001350000000001350000200000001041040503074604001390RBTTEJ0503212314001390   1030000100030000   541110001905777031200000019MOB BANK               YGN           MMR11005030746040013900503000000000000000   10300002 00104100000000000000000000002700     
100   35710500110859490000000000002254000000002254002000000010410405031053050015797556180503212317001579   1030000100030000   541110001907777031200000019MOB BANK               YGN           MMR11005031053050015790503000000000000000   10300005 00104100000000000000000000000451     
100   35710830925485190000000000011900000000011900002000000010410405031026460006867360710503212316000686   1030000100030000   541110001903777031200000019MOB BANK               YGN           MMR11005031026460006860503000000000000000   10300003 00104100000000000000000000002380     
100   9503051873048264000000000002320000000002320000200000001041040503052829000236RL2JCK0503212311000236   1030000100030000   541120003001777031200000030MOB BANK               YGN           MMR11005030528290002360503000000000000000   10300002 00104100000000000000000000004640     
100   35710500374768820000000000016500000000016500002000000010410405030955430009232560710503212316000923   1030000100030000   541120003117777031200000031MOB BANK               YGN           MMR11005030955430009230503000000000000000   10300005 00104100000000000000000000003300     
100   35710830025929380000000000009954000000009954002000000010410405030704050013826144710503212313001382   1030000100030000   541110001905777031200000019MOB BANK               YGN           MMR11005030704050013820503000000000000000   10300003 00104100000000000000000000001991     
100   9503051888186463000000000001360000000001360000200000001041040503102504000097QVJFLR0503212316000097   1030000100030000   541120003002777031200000030MOB BANK               YGN           MMR11005031025040000970503000000000000000   10300002 00104100000000000000000000002720     
100   35710830814869600000000000030370000000030370002000000010410405031036500001817421400503212317000181   1030000100030000   541120003110777031200000031MOB BANK               YGN           MMR11005031036500001810503000000000000000   10300003 00104100000000000000000000006074     
100   35710500131257500000000000011790000000011790002000000010410405031047560001823455410503212317000182   1030000100030000   541120003110777031200000031MOB BANK               YGN           MMR11005031047560001820503000000000000000   10300005 00104100000000000000000000002358     
100   62346600121339280000000000004800000000004800002000000010410405030732110002068772970503212314000206   1030000100030000   541120003114777031200000031MOB BANK               YGN           MMR11005030732110002060503000000000000000   10300005 00104100000000000000000000000960     
100   95030518963759750000000000026000000000026000002000000010410405031101370002840VY4FO0503212317000284   1030000100030000   541120003111777031200000031MOB BANK               YGN           MMR11005031101370002840503000000000000000   10300002 00104100000000000000000000005200     
100   62346600185503720000000000013020000000013020002000000010410405030642380013426175360503212313001342   1030000100030000   581250000001777031200000005MOB BANK               YGN           MMR11005030642380013420503000000000000000   10300005 00104100000000000000000000004427     
100   9503051025455946000000000001080000000001080000200000001041040503073026001567NFQKQD0503212314001567   1030000100030000   541110001907777031200000019MOB BANK               YGN           MMR11005030730260015670503000000000000000   10300002 00104100000000000000000000002160     
100   35710830539264800000000000000900000000000900002000000010410405030624240002155906520503212312000215   1030000100030000   541120003003777031200000030MOB BANK               YGN           MMR11005030624240002150503000000000000000   10300003 00104100000000000000000000000180     
100   62622000517327960000000000002750000000002750002000000010410405030858020002169394080503212315000216   1030000100030000   541120003003777031200000030MOB BANK               YGN           MMR11005030858020002160503000000000000000   10300006 00104100000000000000000000000550     
100   9503190005851839000000000005432000000005432000200000001041040503061354000245JDLTX00503212312000245   1030000100030000   541120003008777031200000030MOB BANK               YGN           MMR11005030613540002450503000000000000000   10300014 00104100000000000000000000010864     
100   9503051020001463000000000003880000000003880000200000001041040503101723000685WSTHTE0503212316000685   1030000100030000   541110001903777031200000019MOB BANK               YGN           MMR11005031017230006850503000000000000000   10300002 00104100000000000000000000007760     
