100   9503051872714007000000000020630000000020630000200000001041040523143318000607GIWS3W0523214321000607   1030000100030000   581210001201777031200000012MOB BANK               YGN           MMR11005231433180006070523000000000000000   10300002 00104100000000000000000000070142     
100   35710830536586950000000000009200000000009200002000000010410405231152180002160673920523214318000216   1030000100030000   541120003002777031200000030MOB BANK               YGN           MMR11005231152180002160523000000000000000   10300003 00104100000000000000000000001840     
100   9503051020197055000000000002460000000002460000200000001041040524062717000536YVU2L40524214412000536   1030000100030000   541120003008777031200000030MOB BANK               YGN           MMR11005240627170005360524000000000000000   10300002 00104100000000000000000000004920     
100   35710830500118150000000000026550000000026550002000000010410405240417300004506585210524214410000450   1030000100030000   541120003003777031200000030MOB BANK               YGN           MMR11005240417300004500524000000000000000   10300003 00104100000000000000000000005310     
100   35710830257671110000000000056600000000056600002000000010410405240710030006367620520524214413000636   1030000100030000   541120003103777031200000031MOB BANK               YGN           MMR11005240710030006360524000000000000000   10300003 00104100000000000000000000011320     
100   35710500354750010000000000005950000000005950002000000010410405241102010024892570980524214417002489   1030000100030000   541110001907777031200000019MOB BANK               YGN           MMR11005241102010024890524000000000000000   10300005 00104100000000000000000000001190     
100   62921400080711340000000000023410000000023410002000000010410405240705180024752222220524214413002475   1030000100030000   541110001907777031200000019MOB BANK               YGN           MMR11005240705180024750524000000000000000   10300009 00104100000000000000000000004682     
100   95030510201970550000000000008400000000008400002000000010410405240646090002190HCWYC0524214413000219   1030000100030000   541120003012777031200000030MOB BANK               YGN           MMR11005240646090002190524000000000000000   10300002 00104100000000000000000000001680     
100   35710830515799190000000000013000000000013000002000000010410405241159020003749354420524214418000374   1030000100030000   541120003005777031200000030MOB BANK               YGN           MMR11005241159020003740524000000000000000   10300003 00104100000000000000000000002600     
100   62346600188920140000000000029000000000029000002000000010410405240646020002761575870524214413000276   1030000100030000   541120003013777031200000030MOB BANK               YGN           MMR11005240646020002760524000000000000000   10300005 00104100000000000000000000005800     
100   9503051025364148000000000002241000000002241000200000001041040524042956000369S2ZDKP0524214410000369   1030000100030000   541120003005777031200000030MOB BANK               YGN           MMR11005240429560003690524000000000000000   10300002 00104100000000000000000000004482     
100   9503051023389782000000000006500000000006500000200000001041040524042808000413XHSEMM0524214410000413   1030000100030000   541120003111777031200000031MOB BANK               YGN           MMR11005240428080004130524000000000000000   10300002 00104100000000000000000000013000     
100   62622000226252440000000000004410000000004410002000000010410405241304300003265755340524214419000326   1030000100030000   541120003001777031200000030MOB BANK               YGN           MMR11005241304300003260524000000000000000   10300006 00104100000000000000000000000882     
100   9503051889601205000000000002580000000002580000200000001041040524120002001231DWXKBJ0524214418001231   1030000100030000   541110001903777031200000019MOB BANK               YGN           MMR11005241200020012310524000000000000000   10300002 00104100000000000000000000005160     
100   95030800004000640000000000025800000000025800002000000010410405241204520012339389400524214418001233   1030000100030000   541110001903777031200000019MOB BANK               YGN           MMR11005241204520012330524000000000000000   10300003 00104100000000000000000000005160     
100   35711450000343850000000000036990000000036990002000000010410405240652180002776851400524214413000277   1030000100030000   541120003013777031200000030MOB BANK               YGN           MMR11005240652180002770524000000000000000   10200001 00104100000000000000000000007398     
100   95030800056910140000000000017000000000017000002000000010410405241133130002789199600524214418000278   1030000100030000   541120003013777031200000030MOB BANK               YGN           MMR11005241133130002780524000000000000000   10300003 00104100000000000000000000003400     
100   9503051020051369000000000001323000000001323000200000001041040524033222000466XX6K5B0524214410000466   1030000100030000   541120003104777031200000031MOB BANK               YGN           MMR11005240332220004660524000000000000000   10300002 00104100000000000000000000002646     
100   35710500384044870000000000010575000000010575002000000010410405240623020004528303960524214412000452   1030000100030000   541120003003777031200000030MOB BANK               YGN           MMR11005240623020004520524000000000000000   10300005 00104100000000000000000000002115     
100   95030510262068190000000000035000000000035000002000000010410405240917270006384HDJDJ0524214415000638   1030000100030000   541120003103777031200000031MOB BANK               YGN           MMR11005240917270006380524000000000000000   10300002 00104100000000000000000000007000     
100   62346600159398830000000000016268000000016268002000000010410405241145560024925068070524214418002492   1030000100030000   541110001907777031200000019MOB BANK               YGN           MMR11005241145560024920524000000000000000   10300005 00104100000000000000000000003254     
100   9503051887752513000000000009580000000009580000200000001041040524040529002095LGCRES0524214410002095   1030000100030000   541110001905777031200000019MOB BANK               YGN           MMR11005240405290020950524000000000000000   10300002 00104100000000000000000000019160     
100   35710500394309370000000000004850000000004850002000000010410405241146330002795847720524214418000279   1030000100030000   541120003013777031200000030MOB BANK               YGN           MMR11005241146330002790524000000000000000   10300005 00104100000000000000000000000970     
100   35710500335695160000000000009720000000009720002000000010410405241157030002801480120524214418000280   1030000100030000   541120003013777031200000030MOB BANK               YGN           MMR11005241157030002800524000000000000000   10300005 00104100000000000000000000001944     
100   35710830004162960000000000012730000000012730002000000010410405240352480004696436910524214410000469   1030000100030000   541120003104777031200000031MOB BANK               YGN           MMR11005240352480004690524000000000000000   10300003 00104100000000000000000000002546     
100   35710500381711510000000000005850000000005850002000000010410405241036250004550976010524214417000455   1030000100030000   541120003003777031200000030MOB BANK               YGN           MMR11005241036250004550524000000000000000   10300005 00104100000000000000000000001170     
100   9503051023957588000000000001795000000001795000200000001041040524054202000370NPX5GP0524214412000370   1030000100030000   541120003005777031200000030MOB BANK               YGN           MMR11005240542020003700524000000000000000   10300002 00104100000000000000000000003590     
100   9503051874089820000000000005560000000005560000200000001041040524125147000610WMZC8I0524214419000610   1030000100030000   581210001201777031200000012MOB BANK               YGN           MMR11005241251470006100524000000000000000   10300002 00104100000000000000000000018904     
100   62343302004466030000000000195300000000195300002000000010410405241400230006113968150524214420000611   1030000100030000   581210001201777031200000012MOB BANK               YGN           MMR11005241400230006110524000000000000000   10300004 00104100000000000000000000066402     
100   35710500300670010000000000042500000000042500002000000010410405240956040020996305620524214416002099   1030000100030000   541110001905777031200000019MOB BANK               YGN           MMR11005240956040020990524000000000000000   10300005 00104100000000000000000000008500     
100   35710830391966120000000000010295000000010295002000000010410405241045500024838915110524214417002483   1030000100030000   541110001907777031200000019MOB BANK               YGN           MMR11005241045500024830524000000000000000   10300003 00104100000000000000000000002059     
100   35710830004162960000000000056600000000056600002000000010410405240425370006306633900524214410000630   1030000100030000   541120003103777031200000031MOB BANK               YGN           MMR11005240425370006300524000000000000000   10300003 00104100000000000000000000011320     
100   95030518878974250000000000012375000000012375002000000010410405241231070014545OBGY40524214419001454   1030000100030000   581250000001777031200000005MOB BANK               YGN           MMR11005241231070014540524000000000000000   10300002 00104100000000000000000000004208     
100   35710830353840480000000000009800000000009800002000000010410405231141300002140609120523214318000214   1030000100030000   541120003002777031200000030MOB BANK               YGN           MMR11005231141300002140523000000000000000   10300003 00104100000000000000000000001960     
100   9503051892179561000000000007810000000007810000200000001041040524143100000612IKH0NZ0524214421000612   1030000100030000   581210001201777031200000012MOB BANK               YGN           MMR11005241431000006120524000000000000000   10300002 00104100000000000000000000026554     
100   9503051897699506000000000001728000000001728000200000001041040524035659001134DCV9CH0524214410001134   1030000100030000   541110001920777031200000019MOB BANK               YGN           MMR11005240356590011340524000000000000000   10300002 00104100000000000000000000003456     
100   9503051026289112000000000000400000000000400000200000001041040524052618000414IQ29ZF0524214411000414   1030000100030000   541120003111777031200000031MOB BANK               YGN           MMR11005240526180004140524000000000000000   10300002 00104100000000000000000000000800     
100   9503051025595550000000000002100000000002100000200000001041040524054701000415DUVOYW0524214412000415   1030000100030000   541120003111777031200000031MOB BANK               YGN           MMR11005240547010004150524000000000000000   10300002 00104100000000000000000000004200     
100   35710950560528660000000000082698000000082698002000000010410405241157390004579346100524214418000457   1030000100030000   541120003003777031200000030MOB BANK               YGN           MMR11005241157390004570524000000000000000   10300003 00104100000000000000000000016540     
100   95030540005110890000000000004200000000004200002000000010410405240527540004715B7OGL0524214411000471   1030000100030000   541120003104777031200000031MOB BANK               YGN           MMR11005240527540004710524000000000000000   10300002 00104100000000000000000000000840     
100   9503051025943339000000000010920000000010920000200000001041040524055445001603CQ8YHC0524214412001603   1030000100030000   541160000001777031200000006MOB BANK               YGN           MMR11005240554450016030524000000000000000   10300002 00104100000000000000000000021840     
100   35710500393620720000000000007000000000007000002000000010410405240628400011361389290524214412001136   1030000100030000   541110001920777031200000019MOB BANK               YGN           MMR11005240628400011360524000000000000000   10300005 00104100000000000000000000001400     
100   62346600152675250000000000013328000000013328002000000010410405241219130024960467030524214418002496   1030000100030000   541110001907777031200000019MOB BANK               YGN           MMR11005241219130024960524000000000000000   10300005 00104100000000000000000000002666     
100   35710830333539200000000000175000000000175000002000000010410405240407470024676526810524214410002467   1030000100030000   541110001907777031200000019MOB BANK               YGN           MMR11005240407470024670524000000000000000   10300003 00104100000000000000000000035000     
100   9503051888451529000000000002550000000002550000200000001041040524121751000281IKJFJT0524214418000281   1030000100030000   541120003013777031200000030MOB BANK               YGN           MMR11005241217510002810524000000000000000   10300002 00104100000000000000000000005100     
100   35710500345535190000000000019500000000019500002000000010410405240957130002471276850524214416000247   1030000100030000   541120003110777031200000031MOB BANK               YGN           MMR11005240957130002470524000000000000000   10300005 00104100000000000000000000003900     
100   9503051020197055000000000001850000000001850000200000001041040524070204000371OUCKHD0524214413000371   1030000100030000   541120003005777031200000030MOB BANK               YGN           MMR11005240702040003710524000000000000000   10300002 00104100000000000000000000003700     
100   9503051896145782000000000002085000000002085000200000001041040524111523000372TEPFB40524214417000372   1030000100030000   541120003005777031200000030MOB BANK               YGN           MMR11005241115230003720524000000000000000   10300002 00104100000000000000000000004170     
100   95030510251526910000000000011500000000011500002000000010410405240441400006323ML6OV0524214411000632   1030000100030000   541120003103777031200000031MOB BANK               YGN           MMR11005240441400006320524000000000000000   10300002 00104100000000000000000000002300     
100   9503051019878392000000000000800000000000800000200000001041040524084136001358IHKRXT0524214415001358   1030000100030000   541120003117777031200000031MOB BANK               YGN           MMR11005240841360013580524000000000000000   10300002 00104100000000000000000000001600     
100   95030518893198080000000000000900000000000900002000000010410405241048010024869TC3LL0524214417002486   1030000100030000   541110001907777031200000019MOB BANK               YGN           MMR11005241048010024860524000000000000000   10300002 00104100000000000000000000000180     
100   9503051023471564000000000001075000000001075000200000001041040524123401000459UJLM1T0524214419000459   1030000100030000   541120003003777031200000030MOB BANK               YGN           MMR11005241234010004590524000000000000000   10300002 00104100000000000000000000002150     
100   95031800709210130000000000007300000000007300002000000010410405240643110004731156600524214413000473   1030000100030000   541120003104777031200000031MOB BANK               YGN           MMR11005240643110004730524000000000000000   10300013 00104100000000000000000000001460     
100   9503051895375992000000000005880000000005880000200000001041040524095035001362RMFIKH0524214416001362   1030000100030000   541120003117777031200000031MOB BANK               YGN           MMR11005240950350013620524000000000000000   10300002 00104100000000000000000000011760     
100   35710830391966120000000000009000000000009000002000000010410405241036300011388859200524214417001138   1030000100030000   541110001920777031200000019MOB BANK               YGN           MMR11005241036300011380524000000000000000   10300003 00104100000000000000000000001800     
100   9503051020171225000000000001181000000001181000200000001041040524125253000461V6EEIS0524214419000461   1030000100030000   541120003003777031200000030MOB BANK               YGN           MMR11005241252530004610524000000000000000   10300002 00104100000000000000000000002362     
100   35710500365403400000000000009359000000009359002000000010410405240342220004462435130524214410000446   1030000100030000   541120003003777031200000030MOB BANK               YGN           MMR11005240342220004460524000000000000000   10300005 00104100000000000000000000001872     
100   9503051883226199000000000001550000000001550000200000001041040524042010002471OAB8WE0524214410002471   1030000100030000   541110001907777031200000019MOB BANK               YGN           MMR11005240420100024710524000000000000000   10300002 00104100000000000000000000003100     
100   35710500394309370000000000009415000000009415002000000010410405241151440003734054870524214418000373   1030000100030000   541120003005777031200000030MOB BANK               YGN           MMR11005241151440003730524000000000000000   10300005 00104100000000000000000000001883     
100   95031900052911430000000000026500000000026500002000000010410405240506550014474VMZPF0524214411001447   1030000100030000   541120003106777031200000031MOB BANK               YGN           MMR11005240506550014470524000000000000000   10300014 00104100000000000000000000005300     
100   9503190004915551000000000000189000000000189000200000001041040524123723001141O4GXT00524214419001141   1030000100030000   541110001920777031200000019MOB BANK               YGN           MMR11005241237230011410524000000000000000   10300014 00104100000000000000000000000378     
100   95030800010785540000000000013800000000013800002000000010410405241255220004229692410524214419000422   1030000100030000   541120003111777031200000031MOB BANK               YGN           MMR11005241255220004220524000000000000000   10300003 00104100000000000000000000002760     
100   35710830877079630000000000007300000000007300002000000010410405240934300004768487200524214416000476   1030000100030000   541120003104777031200000031MOB BANK               YGN           MMR11005240934300004760524000000000000000   10300003 00104100000000000000000000001460     
100   9503051024815116000000000000784000000000784000200000001041040524040127000448KQOA3E0524214410000448   1030000100030000   541120003003777031200000030MOB BANK               YGN           MMR11005240401270004480524000000000000000   10300002 00104100000000000000000000001568     
100   9503051025278652000000000001479500000001479500200000001041040524082753001452JIJ2PK0524214414001452   1030000100030000   581250000001777031200000005MOB BANK               YGN           MMR11005240827530014520524000000000000000   10300002 00104100000000000000000000005030     
100   35710830596896600000000000019415000000019415002000000010410405240857450014538266710524214415001453   1030000100030000   581250000001777031200000005MOB BANK               YGN           MMR11005240857450014530524000000000000000   10300003 00104100000000000000000000006601     
