100   9503051024450021000000000001368000000001368000200000001041040525103753000225JTCA750525214517000225   1030000100030000   541120003002777031200000030MOB BANK               YGN           MMR11005251037530002250525000000000000000   10300002 00104100000000000000000000002736     
100   9503051025411543000000000003155000000003155000200000001041040525044208000376JAYQMX0525214511000376   1030000100030000   541120003005777031200000030MOB BANK               YGN           MMR11005250442080003760525000000000000000   10300002 00104100000000000000000000006310     
100   35710830246940350000000000010850000000010850002000000010410405250938400004657152140525214516000465   1030000100030000   541120003003777031200000030MOB BANK               YGN           MMR11005250938400004650525000000000000000   10300003 00104100000000000000000000002170     
100   35710830246940350000000000009450000000009450002000000010410405250922440003327056610525214515000332   1030000100030000   541120003001777031200000030MOB BANK               YGN           MMR11005250922440003320525000000000000000   10300003 00104100000000000000000000001890     
100   9503051896724347000000000001665000000001665000200000001041040525044018000480GITBM30525214511000480   1030000100030000   541120003104777031200000031MOB BANK               YGN           MMR11005250440180004800525000000000000000   10300002 00104100000000000000000000003330     
100   35710500345781100000000000011990000000011990002000000010410405250613300004821371010525214512000482   1030000100030000   541120003104777031200000031MOB BANK               YGN           MMR11005250613300004820525000000000000000   10300005 00104100000000000000000000002398     
100   9503051024450021000000000002614200000002614200200000001041040525103213000377I8ATO00525214517000377   1030000100030000   541120003005777031200000030MOB BANK               YGN           MMR11005251032130003770525000000000000000   10300002 00104100000000000000000000005228     
100   35710500363738250000000000021800000000021800002000000010410405250826060012515592530525214514001251   1030000100030000   541110001903777031200000019MOB BANK               YGN           MMR11005250826060012510525000000000000000   10300005 00104100000000000000000000004360     
100   62622000540998620000000000006800000000006800002000000010410405250550570002234739640525214512000223   1030000100030000   541120003002777031200000030MOB BANK               YGN           MMR11005250550570002230525000000000000000   10300006 00104100000000000000000000001360     
100   9503051890779149000000000000800000000000800000200000001041040525114623000229TO0UBX0525214518000229   1030000100030000   541120003002777031200000030MOB BANK               YGN           MMR11005251146230002290525000000000000000   10300002 00104100000000000000000000001600     
100   35710500330097780000000000039800000000039800002000000010410405250456170002235353170525214511000223   1030000100030000   541120003012777031200000030MOB BANK               YGN           MMR11005250456170002230525000000000000000   10300005 00104100000000000000000000007960     
100   35710830897164000000000000041130000000041130002000000010410405250622120004845973320525214512000484   1030000100030000   541120003104777031200000031MOB BANK               YGN           MMR11005250622120004840525000000000000000   10300003 00104100000000000000000000008226     
100   35710830409551880000000000013950000000013950002000000010410405250942570004687177900525214516000468   1030000100030000   541120003003777031200000030MOB BANK               YGN           MMR11005250942570004680525000000000000000   10300003 00104100000000000000000000002790     
100   35710830897164000000000000001000000000001000002000000010410405250623070004855978810525214512000485   1030000100030000   541120003104777031200000031MOB BANK               YGN           MMR11005250623070004850525000000000000000   10300003 00104100000000000000000000000200     
100   35710500375685140000000000033330000000033330002000000010410405250832300008420755830525214515000842   1030000100030000   581210001501777031200000015MOB BANK               YGN           MMR11005250832300008420525000000000000000   10300005 00104100000000000000000000011332     
100   35710500141024510000000000003950000000003950002000000010410405251151280003348599640525214518000334   1030000100030000   541120003001777031200000030MOB BANK               YGN           MMR11005251151280003340525000000000000000   10300005 00104100000000000000000000000790     
100   35710500394309370000000000011350000000011350002000000010410405251012260004708062690525214516000470   1030000100030000   541120003003777031200000030MOB BANK               YGN           MMR11005251012260004700525000000000000000   10300005 00104100000000000000000000002270     
100   9503051020055006000000000010010000000010010000200000001041040525091349000615M9JLTE0525214515000615   1030000100030000   581210001201777031200000012MOB BANK               YGN           MMR11005250913490006150525000000000000000   10300002 00104100000000000000000000034034     
100   35710500383331320000000000004140000000004140002000000010410405250438560011489061750525214511001148   1030000100030000   541110001920777031200000019MOB BANK               YGN           MMR11005250438560011480525000000000000000   10300005 00104100000000000000000000000828     
100   9503051895372874000000000014520000000014520000200000001041040525130748000616APTVSI0525214519000616   1030000100030000   581210001201777031200000012MOB BANK               YGN           MMR11005251307480006160525000000000000000   10300002 00104100000000000000000000049368     
100   35710500353124690000000000013860000000013860002000000010410405251110000002270285410525214517000227   1030000100030000   541120003002777031200000030MOB BANK               YGN           MMR11005251110000002270525000000000000000   10300005 00104100000000000000000000002772     
100   9503051887191076000000000000661500000000661500200000001041040525115248000378THNLGF0525214518000378   1030000100030000   541120003005777031200000030MOB BANK               YGN           MMR11005251152480003780525000000000000000   10300002 00104100000000000000000000001323     
100   35710500355039010000000000004655000000004655002000000010410405251049470004725440640525214517000472   1030000100030000   541120003003777031200000030MOB BANK               YGN           MMR11005251049470004720525000000000000000   10300005 00104100000000000000000000000931     
100   35710500324430020000000000011000000000011000002000000010410405251147210004741017990525214518000474   1030000100030000   541120003003777031200000030MOB BANK               YGN           MMR11005251147210004740525000000000000000   10300005 00104100000000000000000000002200     
100   35710500152204920000000000019500000000019500002000000010410405250437260002215501500525214511000221   1030000100030000   541120003002777031200000030MOB BANK               YGN           MMR11005250437260002210525000000000000000   10300005 00104100000000000000000000003900     
100   35710950815607840000000000022100000000022100002000000010410405250745130003296471500525214514000329   1030000100030000   541120003001777031200000030MOB BANK               YGN           MMR11005250745130003290525000000000000000   10300003 00104100000000000000000000004420     
100   9503051887629240000000000000275000000000275000200000001041040525070333000487VUWCYJ0525214513000487   1030000100030000   541120003104777031200000031MOB BANK               YGN           MMR11005250703330004870525000000000000000   10300002 00104100000000000000000000000550     
100   35710500122147950000000000010860000000010860002000000010410405250720250004890066410525214513000489   1030000100030000   541120003104777031200000031MOB BANK               YGN           MMR11005250720250004890525000000000000000   10300005 00104100000000000000000000002172     
100   35710830037058020000000000030800000000030800002000000010410405250700570012466205910525214513001246   1030000100030000   541110001903777031200000019MOB BANK               YGN           MMR11005250700570012460525000000000000000   10300003 00104100000000000000000000006160     
100   35710830356451410000000000010000000000010000002000000010410405250836410004916780210525214515000491   1030000100030000   541120003104777031200000031MOB BANK               YGN           MMR11005250836410004910525000000000000000   10300003 00104100000000000000000000002000     
100   9503051022847376000000000002740000000002740000200000001041040525122908000379J0DETL0525214518000379   1030000100030000   541120003005777031200000030MOB BANK               YGN           MMR11005251229080003790525000000000000000   10300002 00104100000000000000000000005480     
100   9503051023304708000000000001260000000001260000200000001041040525050027000284ABFKJM0525214511000284   1030000100030000   541120003013777031200000030MOB BANK               YGN           MMR11005250500270002840525000000000000000   10300002 00104100000000000000000000002520     
100   35710500141024510000000000003100000000003100002000000010410405251158000004763521430525214518000476   1030000100030000   541120003003777031200000030MOB BANK               YGN           MMR11005251158000004760525000000000000000   10300005 00104100000000000000000000000620     
100   9503051023304708000000000001790000000001790000200000001041040525044240000222M3VFID0525214511000222   1030000100030000   541120003002777031200000030MOB BANK               YGN           MMR11005250442400002220525000000000000000   10300002 00104100000000000000000000003580     
100   35710500332320240000000000011500000000011500002000000010410405250437310004248806470525214511000424   1030000100030000   541120003111777031200000031MOB BANK               YGN           MMR11005250437310004240525000000000000000   10300005 00104100000000000000000000002300     
100   35710500355788530000000000008820000000008820002000000010410405250729060004254870390525214513000425   1030000100030000   541120003111777031200000031MOB BANK               YGN           MMR11005250729060004250525000000000000000   10300005 00104100000000000000000000001764     
100   35710500331199990000000000072500000000072500002000000010410405251152510003354869190525214518000335   1030000100030000   541120003001777031200000030MOB BANK               YGN           MMR11005251152510003350525000000000000000   10300005 00104100000000000000000000014500     
100   62346600119883060000000000008990000000008990002000000010410405250846440004945279730525214515000494   1030000100030000   541120003104777031200000031MOB BANK               YGN           MMR11005250846440004940525000000000000000   10300005 00104100000000000000000000001798     
100   62346600105711940000000000006120000000006120002000000010410405250952330004952978770525214516000495   1030000100030000   541120003104777031200000031MOB BANK               YGN           MMR11005250952330004950525000000000000000   10300005 00104100000000000000000000001224     
100   9503051023952456000000000003580000000003580000200000001041040525074819001248YG7SJZ0525214514001248   1030000100030000   541110001903777031200000019MOB BANK               YGN           MMR11005250748190012480525000000000000000   10300002 00104100000000000000000000007160     
100   35710950071761110000000000082400000000082400002000000010410405250754020025286524310525214514002528   1030000100030000   541110001907777031200000019MOB BANK               YGN           MMR11005250754020025280525000000000000000   10300003 00104100000000000000000000016480     
100   9503051894251426000000000007315700000007315700200000001041040525045422002107P3VCVT0525214511002107   1030000100030000   541110001905777031200000019MOB BANK               YGN           MMR11005250454220021070525000000000000000   10300002 00104100000000000000000000014632     
100   9503051894688171000000000004160000000004160000200000001041040525061354002515RNPOA30525214512002515   1030000100030000   541110001907777031200000019MOB BANK               YGN           MMR11005250613540025150525000000000000000   10300002 00104100000000000000000000008320     
100   35710830828382840000000000004655000000004655002000000010410405250542230021095734500525214512002109   1030000100030000   541110001905777031200000019MOB BANK               YGN           MMR11005250542230021090525000000000000000   10300003 00104100000000000000000000000931     
100   9503051024401958000000000001764000000001764000200000001041040525112507002534IPDMLH0525214517002534   1030000100030000   541110001907777031200000019MOB BANK               YGN           MMR11005251125070025340525000000000000000   10300002 00104100000000000000000000003528     
100   9503051025034964000000000003900000000003900000200000001041040525092556001512FYK8ZP0525214515001512   1030000100030000   541120003106777031200000031MOB BANK               YGN           MMR11005250925560015120525000000000000000   10300002 00104100000000000000000000007800     
100   9503051025333317000000000018360000000018360000200000001041040525050815002505LSUZTJ0525214511002505   1030000100030000   541110001907777031200000019MOB BANK               YGN           MMR11005250508150025050525000000000000000   10300002 00104100000000000000000000036720     
100   62346600173480590000000000015000000000015000002000000010410405250503580013678614410525214511001367   1030000100030000   541120003117777031200000031MOB BANK               YGN           MMR11005250503580013670525000000000000000   10300005 00104100000000000000000000003000     
100   35710830897164000000000000035640000000035640002000000010410405250651260013736148720525214513001373   1030000100030000   541120003117777031200000031MOB BANK               YGN           MMR11005250651260013730525000000000000000   10300003 00104100000000000000000000007128     
100   9503051875530723000000000000411600000000411600200000001041040525114819002536GGOGOZ0525214518002536   1030000100030000   541110001907777031200000019MOB BANK               YGN           MMR11005251148190025360525000000000000000   10300002 00104100000000000000000000000823     
100   35710500182835540000000000070000000000070000002000000010410405251243290025387298330525214519002538   1030000100030000   541110001907777031200000019MOB BANK               YGN           MMR11005251243290025380525000000000000000   10300005 00104100000000000000000000014000     
100   9503051026016127000000000000660000000000660000200000001041040525062415002115VJZAJL0525214512002115   1030000100030000   541110001905777031200000019MOB BANK               YGN           MMR11005250624150021150525000000000000000   10300002 00104100000000000000000000001320     
100   9503051887629240000000000001052000000001052000200000001041040525065635001376DNO0GS0525214513001376   1030000100030000   541120003117777031200000031MOB BANK               YGN           MMR11005250656350013760525000000000000000   10300002 00104100000000000000000000002104     
100   35710500343514430000000000040500000000040500002000000010410405250641150025225760370525214513002522   1030000100030000   541110001907777031200000019MOB BANK               YGN           MMR11005250641150025220525000000000000000   10300005 00104100000000000000000000008100     
100   35710500313606520000000000032000000000032000002000000010410405250547200025074307790525214512002507   1030000100030000   541110001907777031200000019MOB BANK               YGN           MMR11005250547200025070525000000000000000   10300005 00104100000000000000000000006400     
100   35710500373834350000000000024200000000024200002000000010410405250439310014811040840525214511001481   1030000100030000   541120003106777031200000031MOB BANK               YGN           MMR11005250439310014810525000000000000000   10300005 00104100000000000000000000004840     
100   95030518726818420000000000037200000000037200002000000010410405251005100013791FVWUM0525214516001379   1030000100030000   541120003117777031200000031MOB BANK               YGN           MMR11005251005100013790525000000000000000   10300002 00104100000000000000000000007440     
100   35710830691837040000000000006000000000006000002000000010410405251012430013817356510525214516001381   1030000100030000   541120003117777031200000031MOB BANK               YGN           MMR11005251012430013810525000000000000000   10300003 00104100000000000000000000001200     
100   35710500335799600000000000005300000000005300002000000010410405251034580021202788860525214517002120   1030000100030000   541110001905777031200000019MOB BANK               YGN           MMR11005251034580021200525000000000000000   10300005 00104100000000000000000000001060     
100   35710830750395770000000000006800000000006800002000000010410405251015260013837372800525214516001383   1030000100030000   541120003117777031200000031MOB BANK               YGN           MMR11005251015260013830525000000000000000   10300003 00104100000000000000000000001360     
100   35710830691837040000000000001300000000001300002000000010410405251017580013857388010525214516001385   1030000100030000   541120003117777031200000031MOB BANK               YGN           MMR11005251017580013850525000000000000000   10300003 00104100000000000000000000000260     
100   35710500186527330000000000026500000000026500002000000010410405250447340014849594200525214511001484   1030000100030000   541120003106777031200000031MOB BANK               YGN           MMR11005250447340014840525000000000000000   10300005 00104100000000000000000000005300     
100   35710830579241270000000000037000000000037000002000000010410405250706370025246239820525214513002524   1030000100030000   541110001907777031200000019MOB BANK               YGN           MMR11005250706370025240525000000000000000   10300003 00104100000000000000000000007400     
100   35710830828382840000000000005200000000005200002000000010410405250551550025115791610525214512002511   1030000100030000   541110001907777031200000019MOB BANK               YGN           MMR11005250551550025110525000000000000000   10300003 00104100000000000000000000001040     
100   62346600105711940000000000004950000000004950002000000010410405251023300013868765320525214516001386   1030000100030000   541120003117777031200000031MOB BANK               YGN           MMR11005251023300013860525000000000000000   10300005 00104100000000000000000000000990     
100   9503051024401958000000000009717600000009717600200000001041040525112141002125BPAXLP0525214517002125   1030000100030000   541110001905777031200000019MOB BANK               YGN           MMR11005251121410021250525000000000000000   10300002 00104100000000000000000000019435     
100   9503051022686568000000000002620000000002620000200000001041040525120202002128GBBQEY0525214518002128   1030000100030000   541110001905777031200000019MOB BANK               YGN           MMR11005251202020021280525000000000000000   10300002 00104100000000000000000000005240     
100   35710500312432050000000000030950000000030950002000000010410405250729220025266182490525214513002526   1030000100030000   541110001907777031200000019MOB BANK               YGN           MMR11005250729220025260525000000000000000   10300005 00104100000000000000000000006190     
100   35710830436633590000000000060000000000060000002000000010410405250406410025035160300525214510002503   1030000100030000   541110001907777031200000019MOB BANK               YGN           MMR11005250406410025030525000000000000000   10300003 00104100000000000000000000012000     
