100   35710830772726970000000000050000000000050000002000000010410412050314400001967408211205133909000196   1030000100030000   541120000004777031200000002MOB BANK               YGN           MMR11012050314400001961205000000000000000   10300003 00104100000000000000000000010000     
100   35710830699611900000000000093500000000093500002000000010410412050757320001449105411205133914000144   1030000100030000   581410001201777031200000012MOB BANK               YGN           MMR11012050757320001441205000000000000000   10300003 00104100000000000000000000014025     
100   62622000900766350000000000173800000000173800002000000010410412051107240001453741341205133917000145   1030000100030000   581410001201777031200000012MOB BANK               YGN           MMR11012051107240001451205000000000000000   10300006 00104100000000000000000000026070     
100   9503051025464906000000000002810000000002810000200000001041041205132426000146YNBEFX1205133919000146   1030000100030000   581410001201777031200000012MOB BANK               YGN           MMR11012051324260001461205000000000000000   10300002 00104100000000000000000000004215     
100   9503051887488902000000000020460000000020460000200000001041041205065340000143HWROR81205133913000143   1030000100030000   581410001201777031200000012MOB BANK               YGN           MMR11012050653400001431205000000000000000   10300002 00104100000000000000000000030690     
100   62921400086643340000000000187530000000187530002000000010410412060812560005552222221206134014000555   1030000100030000   569160000001777031200000006MOB BANK               YGN           MMR11012060812560005551206000000000000000   10300009 00104100000000000000000000056259     
100   62346600138543240000000000018150000000018150002000000010410412060941440005668080381206134016000566   1030000100030000   581450000001777031200000005MOB BANK               YGN           MMR11012060941440005661206000000000000000   10300005 00104100000000000000000000002722     
100   9503051019590922000000000007617000000007617000200000001041041206033804000551IQOOMT1206134010000551   1030000100030000   569160000001777031200000006MOB BANK               YGN           MMR11012060338040005511206000000000000000   10300002 00104100000000000000000000022851     
100   35710830031540190000000000096389000000096389002000000010410412060717050005537502611206134013000553   1030000100030000   569160000001777031200000006MOB BANK               YGN           MMR11012060717050005531206000000000000000   10300003 00104100000000000000000000028916     
100   9503051872570821000000000005000000000005000000200000001041041206040803000214W9MP5A1206134010000214   1030000100030000   541120000002777031200000002MOB BANK               YGN           MMR11012060408030002141206000000000000000   10300002 00104100000000000000000000010000     
100   9503051889367112000000000003690000000003690000200000001041041206044656000215UU1N2X1206134011000215   1030000100030000   541120000002777031200000002MOB BANK               YGN           MMR11012060446560002151206000000000000000   10300002 00104100000000000000000000007380     
100   35710500393340140000000000044500000000044500002000000010410412061053430001583758661206134017000158   1030000100030000   541190000001777031200000009MOB BANK               YGN           MMR11012061053430001581206000000000000000   10300005 00104100000000000000000000008900     
100   9503051024216695000000000001496000000001496000200000001041041206070202000564DXMDWK1206134013000564   1030000100030000   581450000001777031200000005MOB BANK               YGN           MMR11012060702020005641206000000000000000   10300002 00104100000000000000000000002244     
100   9503051873919134000000000023650000000023650000200000001041041206104647000173XUGNAK1206134017000173   1030000100030000   541120000007777031200000002MOB BANK               YGN           MMR11012061046470001731206000000000000000   10300002 00104100000000000000000000047300     
