100   9503051025923315000000000001490000000001490000200000001041040528075937000435LGCGCU0528214814000435   1030000100030000   541120003111777031200000031MOB BANK               YGN           MMR11005280759370004350528000000000000000   10300002 00104100000000000000000000002980     
100   35710830740351390000000000010500000000010500002000000010410405281058530005033553420528214817000503   1030000100030000   541120003104777031200000031MOB BANK               YGN           MMR11005281058530005030528000000000000000   10300003 00104100000000000000000000002100     
100   35710500321429430000000000042320000000042320002000000010410405281016000004940884030528214816000494   1030000100030000   541120003003777031200000030MOB BANK               YGN           MMR11005281016000004940528000000000000000   10300005 00104100000000000000000000008464     
100   35710500151198270000000000007500000000007500002000000010410405281158010021494150760528214818002149   1030000100030000   541110001905777031200000019MOB BANK               YGN           MMR11005281158010021490528000000000000000   10300005 00104100000000000000000000001500     
100   35710830412856840000000000016445000000016445002000000010410405280733370014702321930528214814001470   1030000100030000   581250000001777031200000005MOB BANK               YGN           MMR11005280733370014700528000000000000000   10300003 00104100000000000000000000005591     
100   9503051890469378000000000002330000000002330000200000001041040528090646001471VSADY10528214815001471   1030000100030000   581250000001777031200000005MOB BANK               YGN           MMR11005280906460014710528000000000000000   10300002 00104100000000000000000000007922     
100   35710830196969950000000000013200000000013200002000000010410405280931270014733028910528214816001473   1030000100030000   581250000001777031200000005MOB BANK               YGN           MMR11005280931270014730528000000000000000   10300003 00104100000000000000000000004488     
100   35710500141024510000000000007900000000007900002000000010410405281116280003468964600528214817000346   1030000100030000   541120003001777031200000030MOB BANK               YGN           MMR11005281116280003460528000000000000000   10300005 00104100000000000000000000001580     
100   9503051024190965000000000000420000000000420000200000001041040528095217000345JXXQK70528214816000345   1030000100030000   541120003001777031200000030MOB BANK               YGN           MMR11005280952170003450528000000000000000   10300002 00104100000000000000000000000840     
100   9503051893127221000000000022000000000022000000200000001041040528130223000624SHX5NM0528214819000624   1030000100030000   581210001201777031200000012MOB BANK               YGN           MMR11005281302230006240528000000000000000   10300002 00104100000000000000000000074800     
100   35710830028510290000000000034210000000034210002000000010410405280910020014722900310528214815001472   1030000100030000   581250000001777031200000005MOB BANK               YGN           MMR11005280910020014720528000000000000000   10300003 00104100000000000000000000011632     
100   95030800023411340000000000016000000000016000002000000010410405280814120004362565410528214814000436   1030000100030000   541120003111777031200000031MOB BANK               YGN           MMR11005280814120004360528000000000000000   10300003 00104100000000000000000000003200     
100   35710830669140440000000000021696000000021696002000000010410405280843290004372741010528214815000437   1030000100030000   541120003111777031200000031MOB BANK               YGN           MMR11005280843290004370528000000000000000   10300003 00104100000000000000000000004339     
100   9503051025609138000000000002205000000002205000200000001041040528103044000395T6WLE50528214817000395   1030000100030000   541120003005777031200000030MOB BANK               YGN           MMR11005281030440003950528000000000000000   10300002 00104100000000000000000000004410     
100   35710830503445210000000000009295000000009295002000000010410405280934230014743046420528214816001474   1030000100030000   581250000001777031200000005MOB BANK               YGN           MMR11005280934230014740528000000000000000   10300003 00104100000000000000000000003160     
100   9503051891841252000000000004190000000004190000200000001041040528073843001540X6CK510528214814001540   1030000100030000   541120003106777031200000031MOB BANK               YGN           MMR11005280738430015400528000000000000000   10300002 00104100000000000000000000008380     
100   9503051025302072000000000000784000000000784000200000001041040528093848000492UCDDMU0528214816000492   1030000100030000   541120003003777031200000030MOB BANK               YGN           MMR11005280938480004920528000000000000000   10300002 00104100000000000000000000001568     
100   35710830842558590000000000030360000000030360002000000010410405281412390008604716100528214820000860   1030000100030000   581210001501777031200000015MOB BANK               YGN           MMR11005281412390008600528000000000000000   10300003 00104100000000000000000000010322     
100   62622000226252440000000000001176000000001176002000000010410405281202460003485765020528214818000348   1030000100030000   541120003001777031200000030MOB BANK               YGN           MMR11005281202460003480528000000000000000   10300006 00104100000000000000000000000235     
100   9503051884975216000000000004560000000004560000200000001041040528115955001326YBJQ7C0528214818001326   1030000100030000   541110001903777031200000019MOB BANK               YGN           MMR11005281159550013260528000000000000000   10300002 00104100000000000000000000009120     
100   35710830015070440000000000004860000000004860002000000010410405280943560004383103740528214816000438   1030000100030000   541120003111777031200000031MOB BANK               YGN           MMR11005280943560004380528000000000000000   10300003 00104100000000000000000000000972     
100   35710500126074020000000000057605000000057605002000000010410405281311220003971627800528214819000397   1030000100030000   541120003005777031200000030MOB BANK               YGN           MMR11005281311220003970528000000000000000   10300005 00104100000000000000000000011521     
100   35710830303593830000000000006860000000006860002000000010410405281043120004963459400528214817000496   1030000100030000   541120003003777031200000030MOB BANK               YGN           MMR11005281043120004960528000000000000000   10300003 00104100000000000000000000001372     
100   9503051873411397000000000001735000000001735000200000001041040528105801002636ZDL0S90528214817002636   1030000100030000   541110001907777031200000019MOB BANK               YGN           MMR11005281058010026360528000000000000000   10300002 00104100000000000000000000003470     
100   35710500353690630000000000060000000000060000002000000010410405281144000026446752090528214818002644   1030000100030000   541110001907777031200000019MOB BANK               YGN           MMR11005281144000026440528000000000000000   10300005 00104100000000000000000000012000     
100   35710830652560170000000000031000000000031000002000000010410405280735220006232332410528214814000623   1030000100030000   581210001201777031200000012MOB BANK               YGN           MMR11005280735220006230528000000000000000   10300003 00104100000000000000000000010540     
100   9503051026323960000000000000929500000000929500200000001041040528105155001475OMBW0E0528214817001475   1030000100030000   581250000001777031200000005MOB BANK               YGN           MMR11005281051550014750528000000000000000   10300002 00104100000000000000000000003160     
100   35710500320583470000000000014919000000014919002000000010410405280938080003940171520528214816000394   1030000100030000   541120003005777031200000030MOB BANK               YGN           MMR11005280938080003940528000000000000000   10300005 00104100000000000000000000002984     
100   62346600160045880000000000017500000000017500002000000010410405281153170000989936310528214818000098   1030000100030000   541120002101777031200000021MOB BANK               YGN           MMR11005281153170000980528000000000000000   10300005 00104100000000000000000000003500     
100   35710500115197800000000000062720000000062720002000000010410405281104270004981934890528214817000498   1030000100030000   541120003003777031200000030MOB BANK               YGN           MMR11005281104270004980528000000000000000   10300005 00104100000000000000000000012544     
100   9503051897072373000000000001870000000001870000200000001041040528141659000861WIRRPV0528214820000861   1030000100030000   581210001501777031200000015MOB BANK               YGN           MMR11005281416590008610528000000000000000   10300002 00104100000000000000000000006358     
100   35650880350002860000000000030700000000030700002000000010410405281128270026401070140528214817002640   1030000100030000   541110001907777031200000019MOB BANK               YGN           MMR11005281128270026400528000000000000000   10300005 00104100000000000000000000010745     
100   62346600130128240000000000017710000000017710002000000010410405281222230014767034140528214818001476   1030000100030000   581250000001777031200000005MOB BANK               YGN           MMR11005281222230014760528000000000000000   10300005 00104100000000000000000000006022     
100   35710950756052230000000000008100000000008100002000000010410405271445360006226273810527214721000622   1030000100030000   581210001201777031200000012MOB BANK               YGN           MMR11005271445360006220527000000000000000   10300003 00104100000000000000000000002754     
100   62444501100203690000000000124900000000124900002000000010410405271309040006186085230527214719000618   1030000100030000   581210001201777031200000012MOB BANK               YGN           MMR11005271309040006180527000000000000000   10300002 00104100000000000000000000074315     
100   9503051026352126000000000030140000000030140000200000001041040527141341000619W6K8GJ0527214720000619   1030000100030000   581210001201777031200000012MOB BANK               YGN           MMR11005271413410006190527000000000000000   10300002 00104100000000000000000000102476     
100   9503051026344966000000000087500000000087500000200000001041040527081516000096NHIDJZ0527214714000096   1030000100030000   541120002101777031200000021MOB BANK               YGN           MMR11005270815160000960527000000000000000   10300002 00104100000000000000000000175000     
100   35710950756052230000000000288200000000288200002000000010410405271426560006216161710527214720000621   1030000100030000   581210001201777031200000012MOB BANK               YGN           MMR11005271426560006210527000000000000000   10300003 00104100000000000000000000097988     
