100   9503051025498003000000000001015000000001015000200000001041040530055628002659PPYLOC0530215012002659   1030000100030000   541110001907777031200000019MOB BANK               YGN           MMR11005300556280026590530000000000000000   10300002 00104100000000000000000000002030     
100   9503051023293349000000000001600000000001600000200000001041040530075447000100G7Y8AB0530215014000100   1030000100030000   541110001904777031200000019MOB BANK               YGN           MMR11005300754470001000530000000000000000   10300002 00104100000000000000000000003200     
100   9503051889044554000000000012680000000012680000200000001041040530080703000301YHI0FF0530215014000301   1030000100030000   541120003013777031200000030MOB BANK               YGN           MMR11005300807030003010530000000000000000   10300002 00104100000000000000000000025360     
100   35710500384303830000000000001950000000001950002000000010410405300602250026607841080530215012002660   1030000100030000   541110001907777031200000019MOB BANK               YGN           MMR11005300602250026600530000000000000000   10300005 00104100000000000000000000000390     
100   35710830364449990000000000015360000000015360002000000010410405300903480001030142910530215015000103   1030000100030000   541110001904777031200000019MOB BANK               YGN           MMR11005300903480001030530000000000000000   10300003 00104100000000000000000000003072     
100   95030518970630830000000000016800000000016800002000000010410405301115440003060XJ0FJ0530215017000306   1030000100030000   541120003013777031200000030MOB BANK               YGN           MMR11005301115440003060530000000000000000   10300002 00104100000000000000000000003360     
100   95030518854580140000000000030800000000030800002000000010410405301000180013600TU4KC0530215016001360   1030000100030000   541110001903777031200000019MOB BANK               YGN           MMR11005301000180013600530000000000000000   10300002 00104100000000000000000000006160     
100   35710500183611110000000000027000000000027000002000000010410405300705200026626891610530215013002662   1030000100030000   541110001907777031200000019MOB BANK               YGN           MMR11005300705200026620530000000000000000   10300005 00104100000000000000000000005400     
100   35710500381014480000000000035052000000035052002000000010410405300753490026634157100530215014002663   1030000100030000   541110001907777031200000019MOB BANK               YGN           MMR11005300753490026630530000000000000000   10300005 00104100000000000000000000007010     
100   9503051023323997000000000003100000000003100000200000001041040530104523000105A7I9AP0530215017000105   1030000100030000   541110001904777031200000019MOB BANK               YGN           MMR11005301045230001050530000000000000000   10300002 00104100000000000000000000006200     
100   9503051886401914000000000003790000000003790000200000001041040530083755000161AC6BGP0530215015000161   1030000100030000   541120003006777031200000030MOB BANK               YGN           MMR11005300837550001610530000000000000000   10300002 00104100000000000000000000007580     
100   9503051022877688000000000003280000000003280000200000001041040530092401000252SZVZFK0530215015000252   1030000100030000   541120003012777031200000030MOB BANK               YGN           MMR11005300924010002520530000000000000000   10300002 00104100000000000000000000006560     
100   35710830852443730000000000021000000000021000002000000010410405300312230002738034410530215009000273   1030000100030000   541120003002777031200000030MOB BANK               YGN           MMR11005300312230002730530000000000000000   10300003 00104100000000000000000000004200     
100   35710500104383880000000000030850000000030850002000000010410405300803390026648227930530215014002664   1030000100030000   541110001907777031200000019MOB BANK               YGN           MMR11005300803390026640530000000000000000   10300005 00104100000000000000000000006170     
100   35710500395578950000000000016400000000016400002000000010410405300954300026667429760530215016002666   1030000100030000   541110001907777031200000019MOB BANK               YGN           MMR11005300954300026660530000000000000000   10300005 00104100000000000000000000003280     
100   35710830984278410000000000005880000000005880002000000010410405300859040004320114620530215015000432   1030000100030000   541120003005777031200000030MOB BANK               YGN           MMR11005300859040004320530000000000000000   10300003 00104100000000000000000000001176     
100   35710500345731110000000000059600000000059600002000000010410405301029460013629268370530215016001362   1030000100030000   541110001903777031200000019MOB BANK               YGN           MMR11005301029460013620530000000000000000   10300005 00104100000000000000000000011920     
100   35710500373270770000000000014685000000014685002000000010410405301101050026676743120530215017002667   1030000100030000   541110001907777031200000019MOB BANK               YGN           MMR11005301101050026670530000000000000000   10300005 00104100000000000000000000002937     
100   35710500390564190000000000006400000000006400002000000010410405300831560005894718110530215015000589   1030000100030000   541120003008777031200000030MOB BANK               YGN           MMR11005300831560005890530000000000000000   10300005 00104100000000000000000000001280     
100   9503051889044554000000000001120000000001120000200000001041040530081946000245LRDAOL0530215014000245   1030000100030000   541120003012777031200000030MOB BANK               YGN           MMR11005300819460002450530000000000000000   10300002 00104100000000000000000000002240     
100   62346600128235440000000000042000000000042000002000000010410405300855590003022782760530215015000302   1030000100030000   541120003013777031200000030MOB BANK               YGN           MMR11005300855590003020530000000000000000   10300005 00104100000000000000000000008400     
100   9503051889044554000000000001850000000001850000200000001041040530090226000274LVZLEI0530215015000274   1030000100030000   541120003002777031200000030MOB BANK               YGN           MMR11005300902260002740530000000000000000   10300002 00104100000000000000000000003700     
100   35710500114272990000000000009400000000009400002000000010410405300443430003556730100530215011000355   1030000100030000   541120003001777031200000030MOB BANK               YGN           MMR11005300443430003550530000000000000000   10300005 00104100000000000000000000001880     
100   35710500180059160000000000006370000000006370002000000010410405301131440026686186390530215018002668   1030000100030000   541110001907777031200000019MOB BANK               YGN           MMR11005301131440026680530000000000000000   10300005 00104100000000000000000000001274     
100   35710500183611110000000000041500000000041500002000000010410405300659550000938494650530215013000093   1030000100030000   541110001904777031200000019MOB BANK               YGN           MMR11005300659550000930530000000000000000   10300005 00104100000000000000000000008300     
100   35710500390564190000000000011900000000011900002000000010410405300802110003567000920530215014000356   1030000100030000   541120003001777031200000030MOB BANK               YGN           MMR11005300802110003560530000000000000000   10300005 00104100000000000000000000002380     
100   9503051025219441000000000000950000000000950000200000001041040530101045000433H6P6LH0530215016000433   1030000100030000   541120003005777031200000030MOB BANK               YGN           MMR11005301010450004330530000000000000000   10300002 00104100000000000000000000001900     
100   35710500365402580000000000018315000000018315002000000010410405301031050004343885430530215017000434   1030000100030000   541120003005777031200000030MOB BANK               YGN           MMR11005301031050004340530000000000000000   10300005 00104100000000000000000000003663     
100   62622000727114560000000000043300000000043300002000000010410405301032360013646055720530215017001364   1030000100030000   541110001903777031200000019MOB BANK               YGN           MMR11005301032360013640530000000000000000   10300006 00104100000000000000000000008660     
100   9503051885808028000000000000528000000000528000200000001041040530071618001489TJJZIQ0530215013001489   1030000100030000   581250000001777031200000005MOB BANK               YGN           MMR11005300716180014890530000000000000000   10300002 00104100000000000000000000001795     
100   9503051025514833000000000001186500000001186500200000001041040530090956001490FXCUM30530215015001490   1030000100030000   581250000001777031200000005MOB BANK               YGN           MMR11005300909560014900530000000000000000   10300002 00104100000000000000000000004034     
100   9503051023737873000000000003380000000003380000200000001041040530042121001345KODZPJ0530215010001345   1030000100030000   541110001903777031200000019MOB BANK               YGN           MMR11005300421210013450530000000000000000   10300002 00104100000000000000000000006760     
100   9503051023936582000000000005140000000005140000200000001041040530071827002168SPHMIY0530215013002168   1030000100030000   541110001905777031200000019MOB BANK               YGN           MMR11005300718270021680530000000000000000   10300002 00104100000000000000000000010280     
100   62622000416846510000000000040014000000040014002000000010410405300758490021746055130530215014002174   1030000100030000   541110001905777031200000019MOB BANK               YGN           MMR11005300758490021740530000000000000000   10300006 00104100000000000000000000008003     
100   35710500365448390000000000034440000000034440002000000010410405300522150026569188830530215011002656   1030000100030000   541110001907777031200000019MOB BANK               YGN           MMR11005300522150026560530000000000000000   10300005 00104100000000000000000000006888     
100   35710830179632560000000000053945000000053945002000000010410405300538230026578910520530215012002657   1030000100030000   541110001907777031200000019MOB BANK               YGN           MMR11005300538230026570530000000000000000   10300003 00104100000000000000000000010789     
100   9503054000779348000000000002250000000002250000200000001041040530070208000095NP1S9C0530215013000095   1030000100030000   541110001904777031200000019MOB BANK               YGN           MMR11005300702080000950530000000000000000   10300002 00104100000000000000000000004500     
100   9503051022877688000000000003600000000003600000200000001041040530093359000255LNYEV40530215016000255   1030000100030000   541120003012777031200000030MOB BANK               YGN           MMR11005300933590002550530000000000000000   10300002 00104100000000000000000000007200     
100   9503051897315764000000000002200000000002200000200000001041040530044920000312X90QM80530215011000312   1030000100030000   541110001916777031200000019MOB BANK               YGN           MMR11005300449200003120530000000000000000   10300002 00104100000000000000000000004400     
100   35710500331127210000000000022300000000022300002000000010410405301013400005904728320530215016000590   1030000100030000   541120003008777031200000030MOB BANK               YGN           MMR11005301013400005900530000000000000000   10300005 00104100000000000000000000004460     
100   9503051023927649000000000000315000000000315000200000001041040530043453001183DF8PLS0530215011001183   1030000100030000   541110001920777031200000019MOB BANK               YGN           MMR11005300434530011830530000000000000000   10300002 00104100000000000000000000000630     
100   35710500365448390000000000016560000000016560002000000010410405300534050011857097080530215012001185   1030000100030000   541110001920777031200000019MOB BANK               YGN           MMR11005300534050011850530000000000000000   10300005 00104100000000000000000000003312     
100   9503051021732900000000000001600000000001600000200000001041040530074553000097YKIUDV0530215014000097   1030000100030000   541110001904777031200000019MOB BANK               YGN           MMR11005300745530000970530000000000000000   10300002 00104100000000000000000000003200     
100   62346600128235440000000000052990000000052990002000000010410405300900550003038300230530215015000303   1030000100030000   541120003013777031200000030MOB BANK               YGN           MMR11005300900550003030530000000000000000   10300005 00104100000000000000000000010598     
100   9503051025260874000000000002380000000002380000200000001041040530110444001366O1HEFU0530215017001366   1030000100030000   541110001903777031200000019MOB BANK               YGN           MMR11005301104440013660530000000000000000   10300002 00104100000000000000000000004760     
100   9503190005100195000000000000979000000000979000200000001041040530111110001491O7LS8M0530215017001491   1030000100030000   581250000001777031200000005MOB BANK               YGN           MMR11005301111100014910530000000000000000   10300014 00104100000000000000000000003329     
100   9503051025948445000000000002002000000002002000200000001041040530121404001492MH4S5J0530215018001492   1030000100030000   581250000001777031200000005MOB BANK               YGN           MMR11005301214040014920530000000000000000   10300002 00104100000000000000000000006807     
100   62346600189355320000000000099800000000099800002000000010410405300632440013480073090530215013001348   1030000100030000   541110001903777031200000019MOB BANK               YGN           MMR11005300632440013480530000000000000000   10300005 00104100000000000000000000019960     
100   9503051023927649000000000000432000000000432000200000001041040530053349000089A3NNVD0530215012000089   1030000100030000   541110001904777031200000019MOB BANK               YGN           MMR11005300533490000890530000000000000000   10300002 00104100000000000000000000000864     
100   9503051887444426000000000002572500000002572500200000001041040530092701000304YBXCQA0530215015000304   1030000100030000   541120003013777031200000030MOB BANK               YGN           MMR11005300927010003040530000000000000000   10300002 00104100000000000000000000005145     
100   35710500331127210000000000002450000000002450002000000010410405301015540005912565260530215016000591   1030000100030000   541120003008777031200000030MOB BANK               YGN           MMR11005301015540005910530000000000000000   10300005 00104100000000000000000000000490     
100   9503051025498003000000000005958000000005958000200000001041040530054453001187YBUCPQ0530215012001187   1030000100030000   541110001920777031200000019MOB BANK               YGN           MMR11005300544530011870530000000000000000   10300002 00104100000000000000000000011916     
100   9503190000690448000000000001780000000001780000200000001041040530074234001189MJXRWW0530215014001189   1030000100030000   541110001920777031200000019MOB BANK               YGN           MMR11005300742340011890530000000000000000   10300014 00104100000000000000000000003560     
100   9503051025498003000000000000850000000000850000200000001041040530060038000091S3RZMZ0530215012000091   1030000100030000   541110001904777031200000019MOB BANK               YGN           MMR11005300600380000910530000000000000000   10300002 00104100000000000000000000001700     
100   35710500114272990000000000110970000000110970002000000010410405300434130003002788100530215011000300   1030000100030000   541120003013777031200000030MOB BANK               YGN           MMR11005300434130003000530000000000000000   10300005 00104100000000000000000000022194     
100   35710500331127210000000000013400000000013400002000000010410405300956470003056147380530215016000305   1030000100030000   541120003013777031200000030MOB BANK               YGN           MMR11005300956470003050530000000000000000   10300005 00104100000000000000000000002680     
100   62346600104823190000000000070400000000070400002000000010410405290352580013337152260529214910001333   1030000100030000   541110001903777031200000019MOB BANK               YGN           MMR11005290352580013330529000000000000000   10300005 00104100000000000000000000014080     
100   9503051889068496000000000001778000000001778000200000001041040529082145001179XAHE6Q0529214914001179   1030000100030000   541110001920777031200000019MOB BANK               YGN           MMR11005290821450011790529000000000000000   10300002 00104100000000000000000000003556     
100   9503051021071416000000000000830000000000830000200000001041040529042954001177O1XEOQ0529214910001177   1030000100030000   541110001920777031200000019MOB BANK               YGN           MMR11005290429540011770529000000000000000   10300002 00104100000000000000000000001660     
100   9503051024611044000000000000307200000000307200200000001041040529063014001278KQ1XKU0529214913001278   1030000100030000   541110001915777031200000019MOB BANK               YGN           MMR11005290630140012780529000000000000000   10300002 00104100000000000000000000000614     
100   35710830502064490000000000002900000000002900002000000010410405290436210021539898210529214911002153   1030000100030000   541110001905777031200000019MOB BANK               YGN           MMR11005290436210021530529000000000000000   10300003 00104100000000000000000000000580     
100   9503051019552278000000000007980000000007980000200000001041040529115400000627SMFWTL0529214918000627   1030000100030000   581210001201777031200000012MOB BANK               YGN           MMR11005291154000006270529000000000000000   10300002 00104100000000000000000000027132     
100   35710830502064490000000000006100000000006100002000000010410405290507040012720082510529214911001272   1030000100030000   541110001915777031200000019MOB BANK               YGN           MMR11005290507040012720529000000000000000   10300003 00104100000000000000000000001220     
100   9503051890976117000000000019360000000019360000200000001041040529131936000628VGMJAO0529214919000628   1030000100030000   581210001201777031200000012MOB BANK               YGN           MMR11005291319360006280529000000000000000   10300002 00104100000000000000000000065824     
100   35710500139764590000000000020250000000020250002000000010410405301142190021793661070530215018002179   1030000100030000   541110001905777031200000019MOB BANK               YGN           MMR11005301142190021790530000000000000000   10300005 00104100000000000000000000004050     
100   35710500364354420000000000003000000000003000002000000010410405300410540002418859870530215010000241   1030000100030000   541120003012777031200000030MOB BANK               YGN           MMR11005300410540002410530000000000000000   10300005 00104100000000000000000000000600     
100   9503051887191076000000000000441000000000441000200000001041040530120745000436UOTQTM0530215018000436   1030000100030000   541120003005777031200000030MOB BANK               YGN           MMR11005301207450004360530000000000000000   10300002 00104100000000000000000000000882     
100   35710830752927700000000000060600000000060600002000000010410405301126070013680996810530215017001368   1030000100030000   541110001903777031200000019MOB BANK               YGN           MMR11005301126070013680530000000000000000   10300003 00104100000000000000000000012120     
100   9503054000779348000000000003880000000003880000200000001041040530064414001350WUIF780530215013001350   1030000100030000   541110001903777031200000019MOB BANK               YGN           MMR11005300644140013500530000000000000000   10300002 00104100000000000000000000007760     
100   35710830698694920000000000054000000000054000002000000010410405300554170026589005910530215012002658   1030000100030000   541110001907777031200000019MOB BANK               YGN           MMR11005300554170026580530000000000000000   10300003 00104100000000000000000000010800     
100   35710500395578950000000000029900000000029900002000000010410405300925020011913776340530215015001191   1030000100030000   541110001920777031200000019MOB BANK               YGN           MMR11005300925020011910530000000000000000   10300005 00104100000000000000000000005980     
100   62921400027968350000000000021000000000021000002000000010410405300939510011932222220530215016001193   1030000100030000   541110001920777031200000019MOB BANK               YGN           MMR11005300939510011930530000000000000000   10300009 00104100000000000000000000004200     
100   35710500139764590000000000009450000000009450002000000010410405301001250011965225110530215016001196   1030000100030000   541110001920777031200000019MOB BANK               YGN           MMR11005301001250011960530000000000000000   10300005 00104100000000000000000000001890     
100   35710500365969790000000000009110000000009110002000000010410405301048370011984382290530215017001198   1030000100030000   541110001920777031200000019MOB BANK               YGN           MMR11005301048370011980530000000000000000   10300005 00104100000000000000000000001822     
100   95030510237611210000000000032800000000032800002000000010410405300826420013562TDVT80530215014001356   1030000100030000   541110001903777031200000019MOB BANK               YGN           MMR11005300826420013560530000000000000000   10300002 00104100000000000000000000006560     
100   35710950773545560000000000104400000000104400002000000010410405300834000013589964210530215015001358   1030000100030000   541110001903777031200000019MOB BANK               YGN           MMR11005300834000013580530000000000000000   10300003 00104100000000000000000000020880     
100   9503054000781435000000000000700000000000700000200000001041040530065024001354VOPELX0530215013001354   1030000100030000   541110001903777031200000019MOB BANK               YGN           MMR11005300650240013540530000000000000000   10300002 00104100000000000000000000001400     
100   35710500353717960000000000018528000000018528002000000010410405290431560012662087850529214911001266   1030000100030000   541110001915777031200000019MOB BANK               YGN           MMR11005290431560012660529000000000000000   10300005 00104100000000000000000000003706     
100   62346600104823190000000000026000000000026000002000000010410405290359170013361003470529214910001336   1030000100030000   541110001903777031200000019MOB BANK               YGN           MMR11005290359170013360529000000000000000   10300005 00104100000000000000000000005200     
100   35710500353717960000000000007300000000007300002000000010410405290439060012686754470529214911001268   1030000100030000   541110001915777031200000019MOB BANK               YGN           MMR11005290439060012680529000000000000000   10300005 00104100000000000000000000001460     
100   9503051025943024000000000000800000000000800000200000001041040529045542001270B8JK9J0529214911001270   1030000100030000   541110001915777031200000019MOB BANK               YGN           MMR11005290455420012700529000000000000000   10300002 00104100000000000000000000001600     
100   9503051021071416000000000001790400000001790400200000001041040529042033002653DTCLVZ0529214910002653   1030000100030000   541110001907777031200000019MOB BANK               YGN           MMR11005290420330026530529000000000000000   10300002 00104100000000000000000000003581     
100   950305189425310900000000000033000000000033000020000000104104052905094900127404VQNG0529214911001274   1030000100030000   541110001915777031200000019MOB BANK               YGN           MMR11005290509490012740529000000000000000   10300002 00104100000000000000000000000660     
100   9503051023874759000000000004600000000004600000200000001041040529061758000626J0DE120529214912000626   1030000100030000   581210001201777031200000012MOB BANK               YGN           MMR11005290617580006260529000000000000000   10300002 00104100000000000000000000015640     
