100   95030518951983780000000000007500000000007500002000000010410406010640330004530HU2RZ0601215213000453   1030000100030000   541120003111777031200000031MOB BANK               YGN           MMR11006010640330004530601000000000000000   10300002 00104100000000000000000000001500     
100   95030518951983780000000000006500000000006500002000000010410406010706220004545EQLGK0601215213000454   1030000100030000   541120003111777031200000031MOB BANK               YGN           MMR11006010706220004540601000000000000000   10300002 00104100000000000000000000001300     
100   95030518895621000000000000009200000000009200002000000010410406010539000027311RCMO40601215212002731   1030000100030000   541110001907777031200000019MOB BANK               YGN           MMR11006010539000027310601000000000000000   10300002 00104100000000000000000000001840     
100   95030510253343230000000000003060000000003060002000000010410406010552220027346YNU440601215212002734   1030000100030000   541110001907777031200000019MOB BANK               YGN           MMR11006010552220027340601000000000000000   10300002 00104100000000000000000000000612     
100   35710500355039010000000000022344000000022344002000000010410406010904400004457536820601215215000445   1030000100030000   541120003005777031200000030MOB BANK               YGN           MMR11006010904400004450601000000000000000   10300005 00104100000000000000000000004469     
100   35710830243046500000000000024600000000024600002000000010410406010454020003145924400601215211000314   1030000100030000   541120003013777031200000030MOB BANK               YGN           MMR11006010454020003140601000000000000000   10300003 00104100000000000000000000004920     
100   35710830909649990000000000016700000000016700002000000010410406011007440006047806610601215216000604   1030000100030000   541120003008777031200000030MOB BANK               YGN           MMR11006011007440006040601000000000000000   10300003 00104100000000000000000000003340     
100   35710830010878490000000000004180000000004180002000000010410406011059500008748119110601215217000874   1030000100030000   581210001501777031200000015MOB BANK               YGN           MMR11006011059500008740601000000000000000   10300003 00104100000000000000000000001421     
100   62441900001513750000000000012600000000012600002000000010410406011058000015106815190601215217001510   1030000100030000   541120003117777031200000031MOB BANK               YGN           MMR11006011058000015100601000000000000000   10300003 00104100000000000000000000004410     
100   9503051022744011000000000015960000000015960000200000001041040601105422001650JUHUNG0601215217001650   1030000100030000   541160000001777031200000006MOB BANK               YGN           MMR11006011054220016500601000000000000000   10300002 00104100000000000000000000031920     
100   35710830719695380000000000007500000000007500002000000010410406010804230014987066420601215214001498   1030000100030000   541120003117777031200000031MOB BANK               YGN           MMR11006010804230014980601000000000000000   10300003 00104100000000000000000000001500     
100   9503051896176480000000000002692500000002692500200000001041040601091930001233WCPO9Z0601215215001233   1030000100030000   541110001920777031200000019MOB BANK               YGN           MMR11006010919300012330601000000000000000   10300002 00104100000000000000000000005385     
100   95030518871882470000000000016709000000016709002000000010410406011204570022421IFELK0601215218002242   1030000100030000   541110001905777031200000019MOB BANK               YGN           MMR11006011204570022420601000000000000000   10300002 00104100000000000000000000003342     
100   62921400083685220000000000008934000000008934002000000010410406010602110027362222220601215212002736   1030000100030000   541110001907777031200000019MOB BANK               YGN           MMR11006010602110027360601000000000000000   10300009 00104100000000000000000000001787     
100   62441900001256190000000000006468000000006468002000000010410406010643390027382937980601215213002738   1030000100030000   541110001907777031200000019MOB BANK               YGN           MMR11006010643390027380601000000000000000   10300003 00104100000000000000000000002264     
100   62921400034648210000000000006850000000006850002000000010410406011129420014212222220601215217001421   1030000100030000   541110001903777031200000019MOB BANK               YGN           MMR11006011129420014210601000000000000000   10300009 00104100000000000000000000001370     
100   62443000103189100000000000038900000000038900002000000010410406010828500014159337860601215214001415   1030000100030000   541110001903777031200000019MOB BANK               YGN           MMR11006010828500014150601000000000000000   10300005 00104100000000000000000000013615     
100   35710500156086470000000000010800000000010800002000000010410406011102480012367081400601215217001236   1030000100030000   541110001920777031200000019MOB BANK               YGN           MMR11006011102480012360601000000000000000   10300005 00104100000000000000000000002160     
100   62346600120551050000000000006270000000006270002000000010410406011249430027737979450601215219002773   1030000100030000   541110001907777031200000019MOB BANK               YGN           MMR11006011249430027730601000000000000000   10300005 00104100000000000000000000001254     
100   9503051889293094000000000002870000000002870000200000001041040601085446000457WAFZSB0601215215000457   1030000100030000   541120003111777031200000031MOB BANK               YGN           MMR11006010854460004570601000000000000000   10300002 00104100000000000000000000005740     
100   62622000092426580000000000146100000000146100002000000010410406010858470006377442060601215215000637   1030000100030000   581210001201777031200000012MOB BANK               YGN           MMR11006010858470006370601000000000000000   10300006 00104100000000000000000000049674     
100   35710830158634410000000000028700000000028700002000000010410406010632330006026515500601215213000602   1030000100030000   541120003008777031200000030MOB BANK               YGN           MMR11006010632330006020601000000000000000   10300003 00104100000000000000000000005740     
100   35710500322004360000000000044000000000044000002000000010410406010729070015846214510601215213001584   1030000100030000   541120003106777031200000031MOB BANK               YGN           MMR11006010729070015840601000000000000000   10300005 00104100000000000000000000008800     
100   35710500164579780000000000053500000000053500002000000010410406010542230015740789190601215212001574   1030000100030000   541120003106777031200000031MOB BANK               YGN           MMR11006010542230015740601000000000000000   10300005 00104100000000000000000000010700     
100   9503051020872202000000000001070000000001070000200000001041040531063430000527GLVLTG0531215113000527   1030000100030000   541120003104777031200000031MOB BANK               YGN           MMR11005310634300005270531000000000000000   10300002 00104100000000000000000000002140     
100   9503190001894148000000000002250000000002250000200000001041040531033516000111ZMHJTM0531215110000111   1030000100030000   541110001904777031200000019MOB BANK               YGN           MMR11005310335160001110531000000000000000   10300014 00104100000000000000000000004500     
100   35710830615670520000000000009955000000009955002000000010410405310818310014968511210531215114001496   1030000100030000   581250000001777031200000005MOB BANK               YGN           MMR11005310818310014960531000000000000000   10300003 00104100000000000000000000003385     
100   62346600185503720000000000015455000000015455002000000010410405311243480014974364010531215119001497   1030000100030000   581250000001777031200000005MOB BANK               YGN           MMR11005311243480014970531000000000000000   10300005 00104100000000000000000000005255     
100   35710500103898050000000000071800000000071800002000000010410405310611190013803219360531215112001380   1030000100030000   541110001903777031200000019MOB BANK               YGN           MMR11005310611190013800531000000000000000   10300005 00104100000000000000000000014360     
100   9503051893774071000000000000774000000000774000200000001041040531114125002712TW5SFH0531215118002712   1030000100030000   541110001907777031200000019MOB BANK               YGN           MMR11005311141250027120531000000000000000   10300002 00104100000000000000000000001548     
100   35710500314960500000000000024500000000024500002000000010410405310529010001141865750531215111000114   1030000100030000   541110001904777031200000019MOB BANK               YGN           MMR11005310529010001140531000000000000000   10300005 00104100000000000000000000004900     
100   9503051887191076000000000000661500000000661500200000001041040531120857000360VTGINS0531215118000360   1030000100030000   541120003001777031200000030MOB BANK               YGN           MMR11005311208570003600531000000000000000   10300002 00104100000000000000000000001323     
100   9503051025846201000000000001210000000001210000200000001041040601070631002742KP2Q8V0601215213002742   1030000100030000   541110001907777031200000019MOB BANK               YGN           MMR11006010706310027420601000000000000000   10300002 00104100000000000000000000002420     
100   35710830564708090000000000029270000000029270002000000010410406010811480027467111010601215214002746   1030000100030000   541110001907777031200000019MOB BANK               YGN           MMR11006010811480027460601000000000000000   10300003 00104100000000000000000000005854     
100   95030510196212970000000000044285000000044285002000000010410406010929180003151W6LSV0601215215000315   1030000100030000   541120003013777031200000030MOB BANK               YGN           MMR11006010929180003150601000000000000000   10300002 00104100000000000000000000008857     
100   35710830572256990000000000056540000000056540002000000010410406011242090008768733110601215219000876   1030000100030000   581210001501777031200000015MOB BANK               YGN           MMR11006011242090008760601000000000000000   10300003 00104100000000000000000000019224     
100   35710500120871260000000000012600000000012600002000000010410406011105290015153279640601215217001515   1030000100030000   541120003117777031200000031MOB BANK               YGN           MMR11006011105290015150601000000000000000   10300005 00104100000000000000000000002520     
100   9503051883940153000000000002180000000002180000200000001041040601105839001419BTMZIA0601215217001419   1030000100030000   541110001903777031200000019MOB BANK               YGN           MMR11006011058390014190601000000000000000   10300002 00104100000000000000000000004360     
100   9503051890065143000000000002300000000002300000200000001041040601052449001489CZMK3M0601215211001489   1030000100030000   541120003117777031200000031MOB BANK               YGN           MMR11006010524490014890601000000000000000   10300002 00104100000000000000000000004600     
100   95030518893239250000000000008350000000008350002000000010410406011130020012385CRMO50601215218001238   1030000100030000   541110001920777031200000019MOB BANK               YGN           MMR11006011130020012380601000000000000000   10300002 00104100000000000000000000001670     
100   35710830898392510000000000040450000000040450002000000010410405310816330005308499410531215114000530   1030000100030000   541120003104777031200000031MOB BANK               YGN           MMR11005310816330005300531000000000000000   10300003 00104100000000000000000000008090     
100   62921400097485810000000000034140000000034140002000000010410405310916340012252222220531215115001225   1030000100030000   541110001920777031200000019MOB BANK               YGN           MMR11005310916340012250531000000000000000   10300009 00104100000000000000000000006828     
100   35710500103898050000000000035900000000035900002000000010410405310620470013825720310531215112001382   1030000100030000   541110001903777031200000019MOB BANK               YGN           MMR11005310620470013820531000000000000000   10300005 00104100000000000000000000007180     
100   35710500355619410000000000042600000000042600002000000010410405310833220013864217810531215115001386   1030000100030000   541110001903777031200000019MOB BANK               YGN           MMR11005310833220013860531000000000000000   10300005 00104100000000000000000000008520     
100   9503051885606612000000000006660000000006660000200000001041040531111404001388IBMVCK0531215117001388   1030000100030000   541110001903777031200000019MOB BANK               YGN           MMR11005311114040013880531000000000000000   10300002 00104100000000000000000000013320     
100   95030510213725090000000000084840000000084840002000000010410405311239010027158BVFW30531215119002715   1030000100030000   541110001907777031200000019MOB BANK               YGN           MMR11005311239010027150531000000000000000   10300002 00104100000000000000000000016968     
100   35710830635855990000000000069300000000069300002000000010410405310738490006328273010531215114000632   1030000100030000   581210001201777031200000012MOB BANK               YGN           MMR11005310738490006320531000000000000000   10300003 00104100000000000000000000023562     
100   95030510252152090000000000130900000000130900002000000010410405311131320006339DVOPJ0531215118000633   1030000100030000   581210001201777031200000012MOB BANK               YGN           MMR11005311131320006330531000000000000000   10300002 00104100000000000000000000044506     
100   9503051894171673000000000006000000000006000000200000001041040601064832002740DDJYYJ0601215213002740   1030000100030000   541110001907777031200000019MOB BANK               YGN           MMR11006010648320027400601000000000000000   10300002 00104100000000000000000000012000     
100   35710500335184300000000000013140000000013140002000000010410406010814280027482733640601215214002748   1030000100030000   541110001907777031200000019MOB BANK               YGN           MMR11006010814280027480601000000000000000   10300005 00104100000000000000000000002628     
100   9503051896176480000000000001800000000001800000200000001041040601090352002750PIOTFU0601215215002750   1030000100030000   541110001907777031200000019MOB BANK               YGN           MMR11006010903520027500601000000000000000   10300002 00104100000000000000000000003600     
100   35710830099380500000000000036850000000036850002000000010410406011001160027567767810601215216002756   1030000100030000   541110001907777031200000019MOB BANK               YGN           MMR11006011001160027560601000000000000000   10300003 00104100000000000000000000007370     
100   9503051888672280000000000010000000000010000000200000001041040601105540000263HS8SM60601215217000263   1030000100030000   541120003012777031200000030MOB BANK               YGN           MMR11006011055400002630601000000000000000   10300002 00104100000000000000000000020000     
100   9503190002257089000000000003860000000003860000200000001041040601102351000543XQLG4M0601215216000543   1030000100030000   541120003104777031200000031MOB BANK               YGN           MMR11006011023510005430601000000000000000   10300014 00104100000000000000000000007720     
100   62622000578885840000000000014500000000014500002000000010410406011157430014297422980601215218001429   1030000100030000   541110001903777031200000019MOB BANK               YGN           MMR11006011157430014290601000000000000000   10300006 00104100000000000000000000002900     
100   62921400034648210000000000017700000000017700002000000010410406011132540014222222220601215218001422   1030000100030000   541110001903777031200000019MOB BANK               YGN           MMR11006011132540014220601000000000000000   10300009 00104100000000000000000000003540     
100   62346600181666410000000000031500000000031500002000000010410405310746000005289489070531215114000528   1030000100030000   541120003104777031200000031MOB BANK               YGN           MMR11005310746000005280531000000000000000   10300005 00104100000000000000000000006300     
100   35710830004835850000000000033500000000033500002000000010410405310742050015598292700531215114001559   1030000100030000   541120003106777031200000031MOB BANK               YGN           MMR11005310742050015590531000000000000000   10300003 00104100000000000000000000006700     
100   95051820852848230000000000017500000000017500002000000010410405310316070001081568460531215109000108   1030000100030000   541110001904777031200000019MOB BANK               YGN           MMR11005310316070001080531000000000000000   10300013 00104100000000000000000000006125     
100   95030510232877210000000000007800000000007800002000000010410405310919180005325XGAAP0531215115000532   1030000100030000   541120003104777031200000031MOB BANK               YGN           MMR11005310919180005320531000000000000000   10300002 00104100000000000000000000001560     
100   9503051025257128000000000003580000000003580000200000001041040531115056001395J8JNUM0531215118001395   1030000100030000   541110001903777031200000019MOB BANK               YGN           MMR11005311150560013950531000000000000000   10300002 00104100000000000000000000007160     
100   95031100012230150000000000006270000000006270002000000010410405310652360026886972040531215113002688   1030000100030000   541110001907777031200000019MOB BANK               YGN           MMR11005310652360026880531000000000000000   10300006 00104100000000000000000000001254     
100   9503051891573715000000000003639400000003639400200000001041040531071558002691S8SHXF0531215113002691   1030000100030000   541110001907777031200000019MOB BANK               YGN           MMR11005310715580026910531000000000000000   10300002 00104100000000000000000000007279     
100   62343301017679660000000000023800000000023800002000000010410405310530280001164900490531215112000116   1030000100030000   541110001904777031200000019MOB BANK               YGN           MMR11005310530280001160531000000000000000   10300004 00104100000000000000000000004760     
100   9503051023766724000000000002150000000002150000200000001041040601111116000130TBEPGQ0601215217000130   1030000100030000   541110001904777031200000019MOB BANK               YGN           MMR11006011111160001300601000000000000000   10300002 00104100000000000000000000004300     
100   9503051896144728000000000001450000000001450000200000001041040601091714000459WIOGNU0601215215000459   1030000100030000   541120003111777031200000031MOB BANK               YGN           MMR11006010917140004590601000000000000000   10300002 00104100000000000000000000002900     
100   95030510242931810000000000021100000000021100002000000010410406011116500003162MZBBT0601215217000316   1030000100030000   541120003013777031200000030MOB BANK               YGN           MMR11006011116500003160601000000000000000   10300002 00104100000000000000000000004220     
100   35710830557008590000000000013120000000013120002000000010410406010918310005417511210601215215000541   1030000100030000   541120003104777031200000031MOB BANK               YGN           MMR11006010918310005410601000000000000000   10300003 00104100000000000000000000002624     
100   35710830356171240000000000056900000000056900002000000010410406010731330015866869410601215214001586   1030000100030000   541120003106777031200000031MOB BANK               YGN           MMR11006010731330015860601000000000000000   10300003 00104100000000000000000000011380     
100   62441900001513750000000000028500000000028500002000000010410406011117440015919895820601215217001591   1030000100030000   541120003106777031200000031MOB BANK               YGN           MMR11006011117440015910601000000000000000   10300003 00104100000000000000000000009975     
100   35710830240463010000000000013600000000013600002000000010410406010603330014936341430601215212001493   1030000100030000   541120003117777031200000031MOB BANK               YGN           MMR11006010603330014930601000000000000000   10300003 00104100000000000000000000002720     
100   9503051887621668000000000001800000000001800000200000001041040601092943002752TP5CON0601215215002752   1030000100030000   541110001907777031200000019MOB BANK               YGN           MMR11006010929430027520601000000000000000   10300002 00104100000000000000000000003600     
100   35710500334150330000000000005175000000005175002000000010410405310428260012080885970531215110001208   1030000100030000   541110001920777031200000019MOB BANK               YGN           MMR11005310428260012080531000000000000000   10300005 00104100000000000000000000001035     
100   9503051892651783000000000001450000000001450000200000001041040531112928001391YLXFWH0531215117001391   1030000100030000   541110001903777031200000019MOB BANK               YGN           MMR11005311129280013910531000000000000000   10300002 00104100000000000000000000002900     
100   35710500134637220000000000051254000000051254002000000010410405310746320022017496200531215114002201   1030000100030000   541110001905777031200000019MOB BANK               YGN           MMR11005310746320022010531000000000000000   10300005 00104100000000000000000000010251     
100   35710500355430550000000000111900000000111900002000000010410405310808040022090272280531215114002209   1030000100030000   541110001905777031200000019MOB BANK               YGN           MMR11005310808040022090531000000000000000   10300005 00104100000000000000000000022380     
100   62921400069519310000000000022460000000022460002000000010410405310930090001252222220531215116000125   1030000100030000   541110001904777031200000019MOB BANK               YGN           MMR11005310930090001250531000000000000000   10300009 00104100000000000000000000004492     
100   35710500383331320000000000005760000000005760002000000010410405310704270001191547530531215113000119   1030000100030000   541110001904777031200000019MOB BANK               YGN           MMR11005310704270001190531000000000000000   10300005 00104100000000000000000000001152     
100   35710830482299900000000000005000000000005000002000000010410405311120460005389604710531215117000538   1030000100030000   541120003104777031200000031MOB BANK               YGN           MMR11005311120460005380531000000000000000   10300003 00104100000000000000000000001000     
100   9503190001894148000000000003900000000003900000200000001041040531032337002189XPWVCW0531215109002189   1030000100030000   541110001905777031200000019MOB BANK               YGN           MMR11005310323370021890531000000000000000   10300014 00104100000000000000000000007800     
100   35710830213254920000000000095880000000095880002000000010410406011018210027617870210601215216002761   1030000100030000   541110001907777031200000019MOB BANK               YGN           MMR11006011018210027610601000000000000000   10300003 00104100000000000000000000019176     
100   35710830095388010000000000043585000000043585002000000010410406011024380027637908000601215216002763   1030000100030000   541110001907777031200000019MOB BANK               YGN           MMR11006011024380027630601000000000000000   10300003 00104100000000000000000000008717     
100   9503051020424053000000000002146200000002146200200000001041040601113432002767LJZODS0601215218002767   1030000100030000   541110001907777031200000019MOB BANK               YGN           MMR11006011134320027670601000000000000000   10300002 00104100000000000000000000004292     
100   9503051023766724000000000004050000000004050000200000001041040601112237000132D8DJF80601215217000132   1030000100030000   541110001904777031200000019MOB BANK               YGN           MMR11006011122370001320601000000000000000   10300002 00104100000000000000000000008100     
100   35710500373322830000000000177900000000177900002000000010410406010217450002422010730601215208000242   1030000100030000   541120000017777031200000002MOB BANK               YGN           MMR11006010217450002420601000000000000000   10300005 00104100000000000000000000035580     
100   35710500115712600000000000004800000000004800002000000010410406010547370004439597840601215212000443   1030000100030000   541120003005777031200000030MOB BANK               YGN           MMR11006010547370004430601000000000000000   10300005 00104100000000000000000000000960     
100   95030510241931830000000000008250000000008250002000000010410406010758120004445P7ICC0601215214000444   1030000100030000   541120003005777031200000030MOB BANK               YGN           MMR11006010758120004440601000000000000000   10300002 00104100000000000000000000001650     
100   35710830367678940000000000014640000000014640002000000010410406010610380014966383910601215212001496   1030000100030000   541120003117777031200000031MOB BANK               YGN           MMR11006010610380014960601000000000000000   10300003 00104100000000000000000000002928     
100   35710830120790170000000000019500000000019500002000000010410405310748290001228331010531215114000122   1030000100030000   541110001904777031200000019MOB BANK               YGN           MMR11005310748290001220531000000000000000   10300003 00104100000000000000000000003900     
100   35710500354800760000000000081350000000081350002000000010410405310824500004380040020531215114000438   1030000100030000   541120003005777031200000030MOB BANK               YGN           MMR11005310824500004380531000000000000000   10300005 00104100000000000000000000016270     
100   9503051022844639000000000002535000000002535000200000001041040531100449000439HDKJPX0531215116000439   1030000100030000   541120003005777031200000030MOB BANK               YGN           MMR11005311004490004390531000000000000000   10300002 00104100000000000000000000005070     
100   9503051021129933000000000002720000000002720000200000001041040531100431000534XILEJC0531215116000534   1030000100030000   541120003104777031200000031MOB BANK               YGN           MMR11005311004310005340531000000000000000   10300002 00104100000000000000000000005440     
100   9503051896036510000000000001468400000001468400200000001041040531102439000536H5L1W50531215116000536   1030000100030000   541120003104777031200000031MOB BANK               YGN           MMR11005311024390005360531000000000000000   10300002 00104100000000000000000000002937     
100   9503051025041852000000000004990500000004990500200000001041040531060130002193NDQOVT0531215112002193   1030000100030000   541110001905777031200000019MOB BANK               YGN           MMR11005310601300021930531000000000000000   10300002 00104100000000000000000000009981     
100   35710830120790170000000000037288000000037288002000000010410405310901110026958767310531215115002695   1030000100030000   541110001907777031200000019MOB BANK               YGN           MMR11005310901110026950531000000000000000   10300003 00104100000000000000000000007458     
100   9503051891573715000000000003306000000003306000200000001041040531072000001211D0G7TU0531215113001211   1030000100030000   541110001920777031200000019MOB BANK               YGN           MMR11005310720000012110531000000000000000   10300002 00104100000000000000000000006612     
100   9503051024362218000000000001900000000001900000200000001041040601031722001498HFVESP0601215209001498   1030000100030000   581250000001777031200000005MOB BANK               YGN           MMR11006010317220014980601000000000000000   10300002 00104100000000000000000000006460     
100   35710500324997490000000000039300000000039300002000000010410406011006490027596688220601215216002759   1030000100030000   541110001907777031200000019MOB BANK               YGN           MMR11006011006490027590601000000000000000   10300005 00104100000000000000000000007860     
100   62346600171072240000000000031500000000031500002000000010410406011131230001345235610601215218000134   1030000100030000   541110001904777031200000019MOB BANK               YGN           MMR11006011131230001340601000000000000000   10300005 00104100000000000000000000006300     
100   9503051021916594000000000011460000000011460000200000001041040601120736001241TH3XXC0601215218001241   1030000100030000   541110001920777031200000019MOB BANK               YGN           MMR11006011207360012410601000000000000000   10300002 00104100000000000000000000022920     
100   62622000578885840000000000012800000000012800002000000010410406011214420014326965740601215218001432   1030000100030000   541110001903777031200000019MOB BANK               YGN           MMR11006011214420014320601000000000000000   10300006 00104100000000000000000000002560     
100   35710500314025380000000000045800000000045800002000000010410406011134210014242820610601215218001424   1030000100030000   541110001903777031200000019MOB BANK               YGN           MMR11006011134210014240601000000000000000   10300005 00104100000000000000000000009160     
100   62622000177279220000000000086500000000086500002000000010410406011154150027697213930601215218002769   1030000100030000   541110001907777031200000019MOB BANK               YGN           MMR11006011154150027690601000000000000000   10300006 00104100000000000000000000017300     
100   35710830718985540000000000003450000000003450002000000010410406011233080027718679010601215219002771   1030000100030000   541110001907777031200000019MOB BANK               YGN           MMR11006011233080027710601000000000000000   10300003 00104100000000000000000000000690     
100   35710500305490240000000000008833000000008833002000000010410405311152520022189252510531215118002218   1030000100030000   541110001905777031200000019MOB BANK               YGN           MMR11005311152520022180531000000000000000   10300005 00104100000000000000000000001767     
100   950305188888568400000000000166500000000166500020000000104104053108422400121437BBPJ0531215115001214   1030000100030000   541110001920777031200000019MOB BANK               YGN           MMR11005310842240012140531000000000000000   10300002 00104100000000000000000000003330     
100   35710830741515220000000000010700000000010700002000000010410405310420460012057084800531215110001205   1030000100030000   541110001920777031200000019MOB BANK               YGN           MMR11005310420460012050531000000000000000   10300003 00104100000000000000000000002140     
100   35710830031380610000000000013400000000013400002000000010410405310700390021978044010531215113002197   1030000100030000   541110001905777031200000019MOB BANK               YGN           MMR11005310700390021970531000000000000000   10300003 00104100000000000000000000002680     
100   35710830920003470000000000010485000000010485002000000010410405311017280004409224920531215116000440   1030000100030000   541120003005777031200000030MOB BANK               YGN           MMR11005311017280004400531000000000000000   10300003 00104100000000000000000000002097     
100   35710500332850220000000000006700000000006700002000000010410405311105580004417598030531215117000441   1030000100030000   541120003005777031200000030MOB BANK               YGN           MMR11005311105580004410531000000000000000   10300005 00104100000000000000000000001340     
100   35710500351145760000000000008500000000008500002000000010410405310811450003110412580531215114000311   1030000100030000   541120003013777031200000030MOB BANK               YGN           MMR11005310811450003110531000000000000000   10300005 00104100000000000000000000001700     
100   35710830997855690000000000042000000000042000002000000010410405310920570006718885810531215115000671   1030000100030000   541120003103777031200000031MOB BANK               YGN           MMR11005310920570006710531000000000000000   10300003 00104100000000000000000000008400     
100   35710500383904470000000000009898000000009898002000000010410405310324470026734218390531215109002673   1030000100030000   541110001907777031200000019MOB BANK               YGN           MMR11005310324470026730531000000000000000   10300005 00104100000000000000000000001980     
100   35710500110859490000000000005700000000005700002000000010410405310938130027000534450531215116002700   1030000100030000   541110001907777031200000019MOB BANK               YGN           MMR11005310938130027000531000000000000000   10300005 00104100000000000000000000001140     
100   9503051896297310000000000003510000000003510000200000001041040531114925002215P5HTSD0531215118002215   1030000100030000   541110001905777031200000019MOB BANK               YGN           MMR11005311149250022150531000000000000000   10300002 00104100000000000000000000007020     
100   35710500171723290000000000032800000000032800002000000010410405310503200013779049500531215111001377   1030000100030000   541110001903777031200000019MOB BANK               YGN           MMR11005310503200013770531000000000000000   10300005 00104100000000000000000000006560     
100   35710500152636740000000000080100000000080100002000000010410405310615060016452294760531215112001645   1030000100030000   541160000001777031200000006MOB BANK               YGN           MMR11005310615060016450531000000000000000   10300005 00104100000000000000000000016020     
100   35710500136048610000000000006800000000006800002000000010410405310428300002597495900531215110000259   1030000100030000   541120003012777031200000030MOB BANK               YGN           MMR11005310428300002590531000000000000000   10300005 00104100000000000000000000001360     
100   35710830103415590000000000012900000000012900002000000010410405310945570001649035920531215116000164   1030000100030000   541120003006777031200000030MOB BANK               YGN           MMR11005310945570001640531000000000000000   10300003 00104100000000000000000000002580     
100   35710500394873250000000000017865000000017865002000000010410405310553540005247572070531215112000524   1030000100030000   541120003104777031200000031MOB BANK               YGN           MMR11005310553540005240531000000000000000   10300005 00104100000000000000000000003573     
100   35710500332850220000000000009600000000009600002000000010410405311119080002778593610531215117000277   1030000100030000   541120003002777031200000030MOB BANK               YGN           MMR11005311119080002770531000000000000000   10300005 00104100000000000000000000001920     
100   62921400069519310000000000004500000000004500002000000010410405310844440012172222220531215115001217   1030000100030000   541110001920777031200000019MOB BANK               YGN           MMR11005310844440012170531000000000000000   10300009 00104100000000000000000000000900     
100   62343302001173290000000000058200000000058200002000000010410405310449260013757909570531215111001375   1030000100030000   541110001903777031200000019MOB BANK               YGN           MMR11005310449260013750531000000000000000   10300004 00104100000000000000000000011640     
100   9503051874375336000000000000589000000000589000200000001041040531045719000310DXVHVK0531215111000310   1030000100030000   541120003013777031200000030MOB BANK               YGN           MMR11005310457190003100531000000000000000   10300002 00104100000000000000000000001178     
100   35710500374288910000000000017000000000017000002000000010410405310320380012022442780531215109001202   1030000100030000   541110001920777031200000019MOB BANK               YGN           MMR11005310320380012020531000000000000000   10300005 00104100000000000000000000003400     
100   95030518915737150000000000024210000000024210002000000010410405310854250012188PNCWQ0531215115001218   1030000100030000   541110001920777031200000019MOB BANK               YGN           MMR11005310854250012180531000000000000000   10300002 00104100000000000000000000004842     
100   35710830048319790000000000045300000000045300002000000010410405310913350012218841620531215115001221   1030000100030000   541110001920777031200000019MOB BANK               YGN           MMR11005310913350012210531000000000000000   10300003 00104100000000000000000000009060     
100   62346600142645230000000000009800000000009800002000000010410405311020540027064454820531215116002706   1030000100030000   541110001907777031200000019MOB BANK               YGN           MMR11005311020540027060531000000000000000   10300005 00104100000000000000000000001960     
100   62346600173480590000000000012800000000012800002000000010410405300502160005199906250530215011000519   1030000100030000   541120003104777031200000031MOB BANK               YGN           MMR11005300502160005190530000000000000000   10300005 00104100000000000000000000002560     
100   9503051890993021000000000003080000000003080000200000001041040530064743000668A7UHT80530215013000668   1030000100030000   541120003103777031200000031MOB BANK               YGN           MMR11005300647430006680530000000000000000   10300002 00104100000000000000000000006160     
100   9503051892266269000000000000610000000000610000200000001041040530062622000521EM6PQF0530215012000521   1030000100030000   541120003104777031200000031MOB BANK               YGN           MMR11005300626220005210530000000000000000   10300002 00104100000000000000000000001220     
100   9503051891573715000000000002100000000002100000200000001041040531102157001227I0XWR60531215116001227   1030000100030000   541110001920777031200000019MOB BANK               YGN           MMR11005311021570012270531000000000000000   10300002 00104100000000000000000000004200     
100   9503190000665200000000000005900000000005900000200000001041040531062836002685Y2N61P0531215112002685   1030000100030000   541110001907777031200000019MOB BANK               YGN           MMR11005310628360026850531000000000000000   10300014 00104100000000000000000000011800     
100   62343302007285390000000000007800000000007800002000000010410405311006440005965847850531215116000596   1030000100030000   541120003008777031200000030MOB BANK               YGN           MMR11005311006440005960531000000000000000   10300004 00104100000000000000000000001560     
100   35710830399998820000000000016500000000016500002000000010410405310411160001127027810531215110000112   1030000100030000   541110001904777031200000019MOB BANK               YGN           MMR11005310411160001120531000000000000000   10300003 00104100000000000000000000003300     
100   9503051889383226000000000002100000000002100000200000001041040531064629001556VBTI3R0531215113001556   1030000100030000   541120003106777031200000031MOB BANK               YGN           MMR11005310646290015560531000000000000000   10300002 00104100000000000000000000004200     
100   9503051894448717000000000003580000000003580000200000001041040601105511001507AZQILJ0601215217001507   1030000100030000   541120003117777031200000031MOB BANK               YGN           MMR11006011055110015070601000000000000000   10300002 00104100000000000000000000007160     
100   95031900055750160000000000032100000000032100002000000010410406011100170015131O30NL0601215217001513   1030000100030000   541120003117777031200000031MOB BANK               YGN           MMR11006011100170015130601000000000000000   10300014 00104100000000000000000000006420     
100   35710500156086470000000000004400000000004400002000000010410406011111260027653479780601215217002765   1030000100030000   541110001907777031200000019MOB BANK               YGN           MMR11006011111260027650601000000000000000   10300005 00104100000000000000000000000880     
100   9503051885483558000000000007850000000007850000200000001041040531114857001393ZYSXUF0531215118001393   1030000100030000   541110001903777031200000019MOB BANK               YGN           MMR11005311148570013930531000000000000000   10300002 00104100000000000000000000015700     
100   35710500355430550000000000020250000000020250002000000010410405310753430022051092110531215114002205   1030000100030000   541110001905777031200000019MOB BANK               YGN           MMR11005310753430022050531000000000000000   10300005 00104100000000000000000000004050     
100   950305102395237300000000000700000000000700000020000000104104060108000700274490E8FC0601215214002744   1030000100030000   541110001907777031200000019MOB BANK               YGN           MMR11006010800070027440601000000000000000   10300002 00104100000000000000000000014000     
100   9503051023952373000000000003580000000003580000200000001041040601075212001408SOFBIM0601215214001408   1030000100030000   541110001903777031200000019MOB BANK               YGN           MMR11006010752120014080601000000000000000   10300002 00104100000000000000000000007160     
100   95030510204240530000000000062328000000062328002000000010410406011159070022397STWQG0601215218002239   1030000100030000   541110001905777031200000019MOB BANK               YGN           MMR11006011159070022390601000000000000000   10300002 00104100000000000000000000012466     
100   9503051025843257000000000003300000000003300000200000001041040530062539000447HZJ0PN0530215012000447   1030000100030000   541120003111777031200000031MOB BANK               YGN           MMR11005300625390004470530000000000000000   10300002 00104100000000000000000000006600     
100   9503051023148998000000000000748800000000748800200000001041040601043236000282GGJIJJ0601215211000282   1030000100030000   541120003002777031200000030MOB BANK               YGN           MMR11006010432360002820601000000000000000   10300002 00104100000000000000000000001498     
100   62622000226252440000000000004851000000004851002000000010410406011230390004467782230601215219000446   1030000100030000   541120003005777031200000030MOB BANK               YGN           MMR11006011230390004460601000000000000000   10300006 00104100000000000000000000000970     
100   62343302007545920000000000055584000000055584002000000010410406010500090004492030340601215211000449   1030000100030000   541120003111777031200000031MOB BANK               YGN           MMR11006010500090004490601000000000000000   10300004 00104100000000000000000000011117     
100   35710830188281690000000000018000000000018000002000000010410406011136010014268336310601215218001426   1030000100030000   541110001903777031200000019MOB BANK               YGN           MMR11006011136010014260601000000000000000   10300003 00104100000000000000000000003600     
100   9503051893890620000000000018000000000018000000200000001041040601032328002720HH8XXE0601215209002720   1030000100030000   541110001907777031200000019MOB BANK               YGN           MMR11006010323280027200601000000000000000   10300002 00104100000000000000000000036000     
100   62343302000779110000000000012000000000012000002000000010410406010659410003622048210601215213000362   1030000100030000   541120003001777031200000030MOB BANK               YGN           MMR11006010659410003620601000000000000000   10300004 00104100000000000000000000002400     
100   35710830781198300000000000057900000000057900002000000010410406010455090013985931200601215211001398   1030000100030000   541110001903777031200000019MOB BANK               YGN           MMR11006010455090013980601000000000000000   10300003 00104100000000000000000000011580     
100   35710500314025380000000000025800000000025800002000000010410406011138210014275137600601215218001427   1030000100030000   541110001903777031200000019MOB BANK               YGN           MMR11006011138210014270601000000000000000   10300005 00104100000000000000000000005160     
100   62921400034648210000000000004800000000004800002000000010410406011201040014302222220601215218001430   1030000100030000   541110001903777031200000019MOB BANK               YGN           MMR11006011201040014300601000000000000000   10300009 00104100000000000000000000000960     
100   9503051890550045000000000002600000000002600000200000001041040601050427002226DQTOU50601215211002226   1030000100030000   541110001905777031200000019MOB BANK               YGN           MMR11006010504270022260601000000000000000   10300002 00104100000000000000000000005200     
100   35710830492709280000000000020010000000020010002000000010410406010443360027225861710601215211002722   1030000100030000   541110001907777031200000019MOB BANK               YGN           MMR11006010443360027220601000000000000000   10300003 00104100000000000000000000004002     
100   62622000594934090000000000256900000000256900002000000010410406011520460006387442940601215221000638   1030000100030000   581210001201777031200000012MOB BANK               YGN           MMR11006011520460006380601000000000000000   10300006 00104100000000000000000000087346     
100   9503054000461418000000000000935000000000935000200000001041040601071700001405XPKSIZ0601215213001405   1030000100030000   541110001903777031200000019MOB BANK               YGN           MMR11006010717000014050601000000000000000   10300002 00104100000000000000000000001870     
100   35710500364266150000000000033500000000033500002000000010410406010511100014001401010601215211001400   1030000100030000   541110001903777031200000019MOB BANK               YGN           MMR11006010511100014000601000000000000000   10300005 00104100000000000000000000006700     
100   62346600188109330000000000018200000000018200002000000010410406010527560004511513690601215211000451   1030000100030000   541120003111777031200000031MOB BANK               YGN           MMR11006010527560004510601000000000000000   10300005 00104100000000000000000000003640     
100   35710500181862940000000000051000000000051000002000000010410406010526110004503811290601215211000450   1030000100030000   541120003111777031200000031MOB BANK               YGN           MMR11006010526110004500601000000000000000   10300005 00104100000000000000000000010200     
100   95051010144221220000000000021000000000021000002000000010410406011006420003631305280601215216000363   1030000100030000   541120003001777031200000030MOB BANK               YGN           MMR11006011006420003630601000000000000000   10300005 00104100000000000000000000007350     
100   9503051026094132000000000003150000000003150000200000001041040601051440002726VICWAD0601215211002726   1030000100030000   541110001907777031200000019MOB BANK               YGN           MMR11006010514400027260601000000000000000   10300002 00104100000000000000000000006300     
100   62346600150104790000000000008000000000008000002000000010410406010816150015017180520601215214001501   1030000100030000   541120003117777031200000031MOB BANK               YGN           MMR11006010816150015010601000000000000000   10300005 00104100000000000000000000001600     
100   9503051026031753000000000001500000000001500000200000001041040601090517002233XBCZWF0601215215002233   1030000100030000   541110001905777031200000019MOB BANK               YGN           MMR11006010905170022330601000000000000000   10300002 00104100000000000000000000003000     
100   9503051889044554000000000002420000000002420000200000001041040601045539002724NWHXN20601215211002724   1030000100030000   541110001907777031200000019MOB BANK               YGN           MMR11006010455390027240601000000000000000   10300002 00104100000000000000000000004840     
100   62441900002638080000000000010500000000010500002000000010410406010455380006761946470601215211000676   1030000100030000   541120003103777031200000031MOB BANK               YGN           MMR11006010455380006760601000000000000000   10300003 00104100000000000000000000003675     
100   35710500335184300000000000030800000000030800002000000010410406010807160014107471460601215214001410   1030000100030000   541110001903777031200000019MOB BANK               YGN           MMR11006010807160014100601000000000000000   10300005 00104100000000000000000000006160     
100   35710500355777490000000000139900000000139900002000000010410406010812180014129414880601215214001412   1030000100030000   541110001903777031200000019MOB BANK               YGN           MMR11006010812180014120601000000000000000   10300005 00104100000000000000000000027980     
100   35710500110023570000000000017800000000017800002000000010410406010612290014026444580601215212001402   1030000100030000   541110001903777031200000019MOB BANK               YGN           MMR11006010612290014020601000000000000000   10300005 00104100000000000000000000003560     
100   95032700000001190000000000005000000000005000002000000010410406010518210001193241500601215211000119   1030000100030000   581210000001777031200000001MOB BANK               YGN           MMR11006010518210001190601000000000000000   10300017 00104100000000000000000000001700     
