100   35710500355788530000000000005000000000005000002000000010410405250750030014988543330525214514001498   1030000100030000   541120003106777031200000031MOB BANK               YGN           MMR11005250750030014980525000000000000000   10300005 00104100000000000000000000001000     
100   62346600179503340000000000037440000000037440002000000010410406020726330001723686600602215313000172   1030000100030000   541120003006777031200000030MOB BANK               YGN           MMR11006020726330001720602000000000000000   10300005 00104100000000000000000000007488     
100   9503051025674298000000000001990000000001990000200000001041040602045516000681CIFTLG0602215311000681   1030000100030000   541120003103777031200000031MOB BANK               YGN           MMR11006020455160006810602000000000000000   10300002 00104100000000000000000000003980     
100   35710830196422700000000000033800000000033800002000000010410406020510390006834664110602215311000683   1030000100030000   541120003103777031200000031MOB BANK               YGN           MMR11006020510390006830602000000000000000   10300003 00104100000000000000000000006760     
100   62346600181575170000000000075800000000075800002000000010410406020813480014379233250602215314001437   1030000100030000   541110001903777031200000019MOB BANK               YGN           MMR11006020813480014370602000000000000000   10300005 00104100000000000000000000015160     
100   35710500375335670000000000029890000000029890002000000010410406021048280003227737400602215317000322   1030000100030000   541120003013777031200000030MOB BANK               YGN           MMR11006021048280003220602000000000000000   10300005 00104100000000000000000000005978     
100   95030518928295790000000000026000000000026000002000000010410406020332480015995NHHLM0602215310001599   1030000100030000   541120003106777031200000031MOB BANK               YGN           MMR11006020332480015990602000000000000000   10300002 00104100000000000000000000005200     
100   9503051026000147000000000003090000000003090000200000001041040602051132000368IVTHDZ0602215311000368   1030000100030000   541120003001777031200000030MOB BANK               YGN           MMR11006020511320003680602000000000000000   10300002 00104100000000000000000000006180     
100   95030800082796840000000000004720000000004720002000000010410406020653260003695280810602215313000369   1030000100030000   541120003001777031200000030MOB BANK               YGN           MMR11006020653260003690602000000000000000   10300003 00104100000000000000000000000944     
100   9503051892271830000000000001800000000001800000200000001041040602105432000267LYOHVX0602215317000267   1030000100030000   541120003012777031200000030MOB BANK               YGN           MMR11006021054320002670602000000000000000   10300002 00104100000000000000000000003600     
100   62622000796837650000000000023350000000023350002000000010410406020459210004487294350602215311000448   1030000100030000   541120003005777031200000030MOB BANK               YGN           MMR11006020459210004480602000000000000000   10300006 00104100000000000000000000004670     
100   35710830982186200000000000010540000000010540002000000010410406020336320003664099310602215310000366   1030000100030000   541120003001777031200000030MOB BANK               YGN           MMR11006020336320003660602000000000000000   10300003 00104100000000000000000000002108     
100   35710500300446200000000000006670000000006670002000000010410406020509100003671915720602215311000367   1030000100030000   541120003001777031200000030MOB BANK               YGN           MMR11006020509100003670602000000000000000   10300005 00104100000000000000000000001334     
100   35710500135973880000000000003200000000003200002000000010410406021126270006106219460602215317000610   1030000100030000   541120003008777031200000030MOB BANK               YGN           MMR11006021126270006100602000000000000000   10300005 00104100000000000000000000000640     
100   9503051891252047000000000001300000000001300000200000001041040602090242001440XJ226R0602215315001440   1030000100030000   541110001903777031200000019MOB BANK               YGN           MMR11006020902420014400602000000000000000   10300002 00104100000000000000000000002600     
100   95031900061346640000000000010800000000010800002000000010410406020452570006095CB6FF0602215311000609   1030000100030000   541120003008777031200000030MOB BANK               YGN           MMR11006020452570006090602000000000000000   10300014 00104100000000000000000000002160     
100   35710500180922290000000000028800000000028800002000000010410406021154160014502580580602215318001450   1030000100030000   541110001903777031200000019MOB BANK               YGN           MMR11006021154160014500602000000000000000   10300005 00104100000000000000000000005760     
100   35710830005234890000000000026000000000026000002000000010410406020516090001694697010602215311000169   1030000100030000   541120003006777031200000030MOB BANK               YGN           MMR11006020516090001690602000000000000000   10300003 00104100000000000000000000005200     
100   95030800082796840000000000035303000000035303002000000010410406020645080004495231030602215313000449   1030000100030000   541120003005777031200000030MOB BANK               YGN           MMR11006020645080004490602000000000000000   10300003 00104100000000000000000000007061     
100   95030518871910760000000000006615000000006615002000000010410406021059300004512HCXI70602215317000451   1030000100030000   541120003005777031200000030MOB BANK               YGN           MMR11006021059300004510602000000000000000   10300002 00104100000000000000000000001323     
100   35710830528230350000000000037700000000037700002000000010410406021237030006137342500602215319000613   1030000100030000   541120003008777031200000030MOB BANK               YGN           MMR11006021237030006130602000000000000000   10300003 00104100000000000000000000007540     
100   35710830192843540000000000013970000000013970002000000010410406020821000015015806210602215314001501   1030000100030000   581250000001777031200000005MOB BANK               YGN           MMR11006020821000015010602000000000000000   10300003 00104100000000000000000000004750     
100   35710830001719660000000000020240000000020240002000000010410406021052540015026717610602215317001502   1030000100030000   581250000001777031200000005MOB BANK               YGN           MMR11006021052540015020602000000000000000   10300003 00104100000000000000000000006882     
100   35710500385809300000000000004345000000004345002000000010410406021056490015038198540602215317001503   1030000100030000   581250000001777031200000005MOB BANK               YGN           MMR11006021056490015030602000000000000000   10300005 00104100000000000000000000001477     
100   9503051885483558000000000006770000000006770000200000001041040602093423001443ILOIGY0602215316001443   1030000100030000   541110001903777031200000019MOB BANK               YGN           MMR11006020934230014430602000000000000000   10300002 00104100000000000000000000013540     
100   9503051024990034000000000002880000000002880000200000001041040602114934001447RPKHFH0602215318001447   1030000100030000   541110001903777031200000019MOB BANK               YGN           MMR11006021149340014470602000000000000000   10300002 00104100000000000000000000005760     
100   95030510249900340000000000015500000000015500002000000010410406021150550014489XPCKN0602215318001448   1030000100030000   541110001903777031200000019MOB BANK               YGN           MMR11006021150550014480602000000000000000   10300002 00104100000000000000000000003100     
100   35710500381111400000000000020500000000020500002000000010410406020914190002882145040602215315000288   1030000100030000   541120003002777031200000030MOB BANK               YGN           MMR11006020914190002880602000000000000000   10300005 00104100000000000000000000004100     
100   950305102567833100000000000330000000000330000020000000104104060208184000046479GFX50602215314000464   1030000100030000   541120003111777031200000031MOB BANK               YGN           MMR11006020818400004640602000000000000000   10300002 00104100000000000000000000006600     
100   9503051892271830000000000003500000000003500000200000001041040602123532000270W1J2200602215319000270   1030000100030000   541120003012777031200000030MOB BANK               YGN           MMR11006021235320002700602000000000000000   10300002 00104100000000000000000000007000     
100   9503051892641826000000000003510000000003510000200000001041040602110633000467FVMPNM0602215317000467   1030000100030000   541120003111777031200000031MOB BANK               YGN           MMR11006021106330004670602000000000000000   10300002 00104100000000000000000000007020     
100   9503051888062649000000000001585000000001585000200000001041040602121612001555JLZGIJ0602215318001555   1030000100030000   541120003117777031200000031MOB BANK               YGN           MMR11006021216120015550602000000000000000   10300002 00104100000000000000000000003170     
100   35710500354749960000000000018000000000018000002000000010410406021022460015408626150602215316001540   1030000100030000   541120003117777031200000031MOB BANK               YGN           MMR11006021022460015400602000000000000000   10300005 00104100000000000000000000003600     
100   95031800885404660000000000043500000000043500002000000010410406021050000015453806020602215317001545   1030000100030000   541120003117777031200000031MOB BANK               YGN           MMR11006021050000015450602000000000000000   10300013 00104100000000000000000000008700     
100   62346600153684140000000000028990000000028990002000000010410406020405310003194731990602215310000319   1030000100030000   541120003013777031200000030MOB BANK               YGN           MMR11006020405310003190602000000000000000   10300005 00104100000000000000000000005798     
100   62622000226252440000000000002058000000002058002000000010410406021057380004507784290602215317000450   1030000100030000   541120003005777031200000030MOB BANK               YGN           MMR11006021057380004500602000000000000000   10300006 00104100000000000000000000000412     
100   35710830760420180000000000011880000000011880002000000010410406021233520015057323410602215319001505   1030000100030000   581250000001777031200000005MOB BANK               YGN           MMR11006021233520015050602000000000000000   10300003 00104100000000000000000000004039     
100   9503051883765147000000000002100000000002100000200000001041040602121815001452VSJMW10602215318001452   1030000100030000   541110001903777031200000019MOB BANK               YGN           MMR11006021218150014520602000000000000000   10300002 00104100000000000000000000004200     
100   35710500151198270000000000030000000000030000002000000010410406021224130014549982200602215318001454   1030000100030000   541110001903777031200000019MOB BANK               YGN           MMR11006021224130014540602000000000000000   10300005 00104100000000000000000000006000     
100   35710500182504210000000000002925000000002925002000000010410406021059540002903567680602215317000290   1030000100030000   541120003002777031200000030MOB BANK               YGN           MMR11006021059540002900602000000000000000   10300005 00104100000000000000000000000585     
100   9503051022962720000000000000220000000000220000200000001041040602110721001552LB45MB0602215317001552   1030000100030000   541120003117777031200000031MOB BANK               YGN           MMR11006021107210015520602000000000000000   10300002 00104100000000000000000000000440     
100   35710500335753230000000000029900000000029900002000000010410406020615290015273438110602215312001527   1030000100030000   541120003117777031200000031MOB BANK               YGN           MMR11006020615290015270602000000000000000   10300005 00104100000000000000000000005980     
100   9503051024225431000000000001824000000001824000200000001041040602074106001253D4817E0602215314001253   1030000100030000   541110001920777031200000019MOB BANK               YGN           MMR11006020741060012530602000000000000000   10300002 00104100000000000000000000003648     
100   35710830756282700000000000009650000000009650002000000010410406020441480027774490910602215311002777   1030000100030000   541110001907777031200000019MOB BANK               YGN           MMR11006020441480027770602000000000000000   10300003 00104100000000000000000000001930     
100   9503051024854578000000000007250000000007250000200000001041040602070424002260GU8MRI0602215313002260   1030000100030000   541110001905777031200000019MOB BANK               YGN           MMR11006020704240022600602000000000000000   10300002 00104100000000000000000000014500     
100   35710830108326310000000000331900000000331900002000000010410406020625570027815115910602215312002781   1030000100030000   541110001907777031200000019MOB BANK               YGN           MMR11006020625570027810602000000000000000   10300003 00104100000000000000000000066380     
100   9503051025899515000000000003280000000003280000200000001041040602074427002791JTPCWW0602215314002791   1030000100030000   541110001907777031200000019MOB BANK               YGN           MMR11006020744270027910602000000000000000   10300002 00104100000000000000000000006560     
100   35710830138245020000000000150000000000150000002000000010410406020928470027976212910602215315002797   1030000100030000   541110001907777031200000019MOB BANK               YGN           MMR11006020928470027970602000000000000000   10300003 00104100000000000000000000030000     
100   35710830478556470000000000016600000000016600002000000010410406020942580015376298010602215316001537   1030000100030000   541120003117777031200000031MOB BANK               YGN           MMR11006020942580015370602000000000000000   10300003 00104100000000000000000000003320     
100   9503051888415573000000000000640000000000640000200000001041040602083838001258OLKL8D0602215315001258   1030000100030000   541110001920777031200000019MOB BANK               YGN           MMR11006020838380012580602000000000000000   10300002 00104100000000000000000000001280     
100   9503051890643972000000000006803500000006803500200000001041040602103421002799GJXQGE0602215317002799   1030000100030000   541110001907777031200000019MOB BANK               YGN           MMR11006021034210027990602000000000000000   10300002 00104100000000000000000000013607     
100   9503051883765147000000000001870000000001870000200000001041040602115034002804WKKRFJ0602215318002804   1030000100030000   541110001907777031200000019MOB BANK               YGN           MMR11006021150340028040602000000000000000   10300002 00104100000000000000000000003740     
100   35711450001173960000000000026000000000026000002000000010410406020516260016070069880602215311001607   1030000100030000   541120003106777031200000031MOB BANK               YGN           MMR11006020516260016070602000000000000000   10200001 00104100000000000000000000005200     
100   9503051026081527000000000001950000000001950000200000001041040602051733001609PNSAFN0602215311001609   1030000100030000   541120003106777031200000031MOB BANK               YGN           MMR11006020517330016090602000000000000000   10300002 00104100000000000000000000003900     
100   95031900061988830000000000008500000000008500002000000010410406020652310027846TW0270602215313002784   1030000100030000   541110001907777031200000019MOB BANK               YGN           MMR11006020652310027840602000000000000000   10300014 00104100000000000000000000001700     
100   35710830777704350000000000012500000000012500002000000010410406020434390012444448110602215311001244   1030000100030000   541110001920777031200000019MOB BANK               YGN           MMR11006020434390012440602000000000000000   10300003 00104100000000000000000000002500     
100   95030201381576160000000000005600000000005600002000000010410406020515110012461582040602215311001246   1030000100030000   541110001920777031200000019MOB BANK               YGN           MMR11006020515110012460602000000000000000   10200002 00104100000000000000000000001120     
100   35710500181898430000000000033500000000033500002000000010410406020903250016213274150602215315001621   1030000100030000   541120003106777031200000031MOB BANK               YGN           MMR11006020903250016210602000000000000000   10300005 00104100000000000000000000006700     
100   9503051022962720000000000001280000000001280000200000001041040602110246001550OWYCC00602215317001550   1030000100030000   541120003117777031200000031MOB BANK               YGN           MMR11006021102460015500602000000000000000   10300002 00104100000000000000000000002560     
100   9503051026284055000000000001485000000001485000200000001041040602113855001504CUVWQA0602215318001504   1030000100030000   581250000001777031200000005MOB BANK               YGN           MMR11006021138550015040602000000000000000   10300002 00104100000000000000000000005049     
100   95030518915737150000000000004927000000004927002000000010410406020919530027946OCVDJ0602215315002794   1030000100030000   541110001907777031200000019MOB BANK               YGN           MMR11006020919530027940602000000000000000   10300002 00104100000000000000000000000986     
100   35710500383276130000000000012500000000012500002000000010410406020900250022640685610602215315002264   1030000100030000   541110001905777031200000019MOB BANK               YGN           MMR11006020900250022640602000000000000000   10300005 00104100000000000000000000002500     
100   9503190000933145000000000001560000000001560000200000001041040602072405001251EU54N00602215313001251   1030000100030000   541110001920777031200000019MOB BANK               YGN           MMR11006020724050012510602000000000000000   10300014 00104100000000000000000000003120     
100   35710500131879660000000000006930000000006930002000000010410406020806530012567800400602215314001256   1030000100030000   541110001920777031200000019MOB BANK               YGN           MMR11006020806530012560602000000000000000   10300005 00104100000000000000000000001386     
100   35710500334209340000000000065366000000065366002000000010410406020413130022499796410602215310002249   1030000100030000   541110001905777031200000019MOB BANK               YGN           MMR11006020413130022490602000000000000000   10300005 00104100000000000000000000013073     
100   9503051897279192000000000001360000000001360000200000001041040602071943001249NIPWAM0602215313001249   1030000100030000   541110001920777031200000019MOB BANK               YGN           MMR11006020719430012490602000000000000000   10300002 00104100000000000000000000002720     
100   9503051024708535000000000000627000000000627000200000001041040602110732001261G3QPOR0602215317001261   1030000100030000   541110001920777031200000019MOB BANK               YGN           MMR11006021107320012610602000000000000000   10300002 00104100000000000000000000001254     
100   95030518726748470000000000060300000000060300002000000010410406020232390016557N2EHX0602215309001655   1030000100030000   541160000001777031200000006MOB BANK               YGN           MMR11006020232390016550602000000000000000   10300002 00104100000000000000000000012060     
100   35710830655068090000000000422400000000422400002000000010410406020742210016575574310602215314001657   1030000100030000   541160000001777031200000006MOB BANK               YGN           MMR11006020742210016570602000000000000000   10300003 00104100000000000000000000084480     
100   9503051872957598000000000017321600000017321600200000001041040602105002001659Y7HIWI0602215317001659   1030000100030000   541160000001777031200000006MOB BANK               YGN           MMR11006021050020016590602000000000000000   10300002 00104100000000000000000000034643     
100   35710830169819030000000000009500000000009500002000000010410406020757540012545667610602215314001254   1030000100030000   541110001920777031200000019MOB BANK               YGN           MMR11006020757540012540602000000000000000   10300003 00104100000000000000000000001900     
