100   62622000851022630000000000034000000000034000002000000010410405080554240010550462860508212812001055   1030000100030000   541120003117777031200000031MOB BANK               YGN           MMR11005080554240010550508000000000000000   10300006 00104100000000000000000000006800     
100   35710830672921680000000000034500000000034500002000000010410405080752170001649633900508212814000164   1030000100030000   541120003013777031200000030MOB BANK               YGN           MMR11005080752170001640508000000000000000   10300003 00104100000000000000000000006900     
100   9503051892810025000000000001600000000001600000200000001041040508060309000111OJGO2V0508212812000111   1030000100030000   541120003006777031200000030MOB BANK               YGN           MMR11005080603090001110508000000000000000   10300002 00104100000000000000000000003200     
100   62921400010098910000000000034900000000034900002000000010410405080746230007972222220508212814000797   1030000100030000   541110001903777031200000019MOB BANK               YGN           MMR11005080746230007970508000000000000000   10300009 00104100000000000000000000006980     
100   35710500333287720000000000116720000000116720002000000010410405080748400007994722930508212814000799   1030000100030000   541110001903777031200000019MOB BANK               YGN           MMR11005080748400007990508000000000000000   10300005 00104100000000000000000000023344     
100   9503051894608757000000000003080000000003080000200000001041040508044843000784Q6O8MQ0508212811000784   1030000100030000   541110001903777031200000019MOB BANK               YGN           MMR11005080448430007840508000000000000000   10300002 00104100000000000000000000006160     
100   95030800049711930000000000030800000000030800002000000010410405080542040007878852510508212812000787   1030000100030000   541110001903777031200000019MOB BANK               YGN           MMR11005080542040007870508000000000000000   10300003 00104100000000000000000000006160     
100   35710500393808010000000000018000000000018000002000000010410405080954560000467926650508212816000046   1030000100030000   541180000001777031200000008MOB BANK               YGN           MMR11005080954560000460508000000000000000   10300005 00104100000000000000000000003600     
100   35710830903298130000000000023600000000023600002000000010410405080459550002618599610508212811000261   1030000100030000   541120003001777031200000030MOB BANK               YGN           MMR11005080459550002610508000000000000000   10300003 00104100000000000000000000004720     
100   9503051026200671000000000000720000000000720000200000001041040508044205000307B2AO5Q0508212811000307   1030000100030000   541120003008777031200000030MOB BANK               YGN           MMR11005080442050003070508000000000000000   10300002 00104100000000000000000000001440     
100   62921400002929690000000000015520000000015520002000000010410405080637080010572222220508212813001057   1030000100030000   541120003117777031200000031MOB BANK               YGN           MMR11005080637080010570508000000000000000   10300009 00104100000000000000000000003104     
100   35710830888049180000000000027900000000027900002000000010410405080926010008840196310508212815000884   1030000100030000   541120003106777031200000031MOB BANK               YGN           MMR11005080926010008840508000000000000000   10300003 00104100000000000000000000005580     
100   9503051024863413000000000001630000000001630000200000001041040508100844000177KJKNWA0508212816000177   1030000100030000   541120003101777031200000031MOB BANK               YGN           MMR11005081008440001770508000000000000000   10300002 00104100000000000000000000003260     
100   9503051020029043000000000000690000000000690000200000001041040508084658001060YOUU0Q0508212815001060   1030000100030000   541120003117777031200000031MOB BANK               YGN           MMR11005080846580010600508000000000000000   10300002 00104100000000000000000000001380     
100   35710830797494600000000000026000000000026000002000000010410405080839280002119916920508212815000211   1030000100030000   541120003110777031200000031MOB BANK               YGN           MMR11005080839280002110508000000000000000   10300003 00104100000000000000000000005200     
100   9503051024817070000000000000135000000000135000200000001041040508073629000214WAMGYT0508212814000214   1030000100030000   541120003005777031200000030MOB BANK               YGN           MMR11005080736290002140508000000000000000   10300002 00104100000000000000000000000270     
100   35710830424652440000000000026450000000026450002000000010410405080618060003009068710508212812000300   1030000100030000   541120003104777031200000031MOB BANK               YGN           MMR11005080618060003000508000000000000000   10300003 00104100000000000000000000005290     
100   35710500181311420000000000039500000000039500002000000010410405080835520008016948650508212815000801   1030000100030000   541110001903777031200000019MOB BANK               YGN           MMR11005080835520008010508000000000000000   10300005 00104100000000000000000000007900     
100   9503051020561292000000000002199000000002199000200000001041040508094157000165TMCTXF0508212816000165   1030000100030000   541120003013777031200000030MOB BANK               YGN           MMR11005080941570001650508000000000000000   10300002 00104100000000000000000000004398     
100   35710500353245220000000000004500000000004500002000000010410405081123030001178945220508212817000117   1030000100030000   541120003002777031200000030MOB BANK               YGN           MMR11005081123030001170508000000000000000   10300005 00104100000000000000000000000900     
100   35650883650002940000000000049908000000049908002000000010410405080951080002195387550508212816000219   1030000100030000   541120003005777031200000030MOB BANK               YGN           MMR11005080951080002190508000000000000000   10300005 00104100000000000000000000017468     
100   9503051886568472000000000002384000000002384000200000001041040508055729000789XQF55H0508212812000789   1030000100030000   541110001903777031200000019MOB BANK               YGN           MMR11005080557290007890508000000000000000   10300002 00104100000000000000000000004768     
100   9503051024817070000000000000370000000000370000200000001041040508053935000205LK6NTX0508212812000205   1030000100030000   541120003005777031200000030MOB BANK               YGN           MMR11005080539350002050508000000000000000   10300002 00104100000000000000000000000740     
100   9503051024469765000000000000549000000000549000200000001041040508045332000870U0NMIN0508212811000870   1030000100030000   541110001920777031200000019MOB BANK               YGN           MMR11005080453320008700508000000000000000   10300002 00104100000000000000000000001098     
100   95030510244697650000000000007020000000007020002000000010410405080458340008722HSJ0E0508212811000872   1030000100030000   541110001920777031200000019MOB BANK               YGN           MMR11005080458340008720508000000000000000   10300002 00104100000000000000000000001404     
100   35710830629911520000000000011700000000011700002000000010410405080616030002089056510508212812000208   1030000100030000   541120003005777031200000030MOB BANK               YGN           MMR11005080616030002080508000000000000000   10300003 00104100000000000000000000002340     
100   35710950111767270000000000004350000000004350002000000010410405081116340002200859510508212817000220   1030000100030000   541120003005777031200000030MOB BANK               YGN           MMR11005081116340002200508000000000000000   10300003 00104100000000000000000000000870     
100   9503051024817070000000000000270000000000270000200000001041040508064431000211L2POVA0508212813000211   1030000100030000   541120003005777031200000030MOB BANK               YGN           MMR11005080644310002110508000000000000000   10300002 00104100000000000000000000000540     
100   95031100015278520000000000008450000000008450002000000010410405080748580002159524060508212814000215   1030000100030000   541120003005777031200000030MOB BANK               YGN           MMR11005080748580002150508000000000000000   10300006 00104100000000000000000000001690     
100   35710830250146960000000000004800000000004800002000000010410405080428140002988409520508212810000298   1030000100030000   541120003104777031200000031MOB BANK               YGN           MMR11005080428140002980508000000000000000   10300003 00104100000000000000000000000960     
100   62444501100127960000000000150000000000150000002000000010410405081107580005497502800508212817000549   1030000100030000   581210001201777031200000012MOB BANK               YGN           MMR11005081107580005490508000000000000000   10300002 00104100000000000000000000089250     
100   62346600108204350000000000018400000000018400002000000010410405080335510010487138120508212810001048   1030000100030000   541120003117777031200000031MOB BANK               YGN           MMR11005080335510010480508000000000000000   10300005 00104100000000000000000000003680     
100   35710900116061460000000000007070000000007070002000000010410405080745160007309591810508212814000730   1030000100030000   581210001501777031200000015MOB BANK               YGN           MMR11005080745160007300508000000000000000   10300003 00104100000000000000000000002404     
100   9503051023316892000000000003190000000003190000200000001041040508112653000889U2HFZK0508212817000889   1030000100030000   541120003106777031200000031MOB BANK               YGN           MMR11005081126530008890508000000000000000   10300002 00104100000000000000000000006380     
100   35710500334769360000000000039600000000039600002000000010410405080436490003059669150508212811000305   1030000100030000   541120003008777031200000030MOB BANK               YGN           MMR11005080436490003050508000000000000000   10300005 00104100000000000000000000007920     
100   35710830225753350000000000018400000000018400002000000010410405080407570010508287810508212810001050   1030000100030000   541120003117777031200000031MOB BANK               YGN           MMR11005080407570010500508000000000000000   10300003 00104100000000000000000000003680     
100   35710500322589470000000000007500000000007500002000000010410405080500510008751022840508212811000875   1030000100030000   541110001920777031200000019MOB BANK               YGN           MMR11005080500510008750508000000000000000   10300005 00104100000000000000000000001500     
100   9503051025302320000000000002900000000002900000200000001041040508044301000876IHA7060508212811000876   1030000100030000   541120003106777031200000031MOB BANK               YGN           MMR11005080443010008760508000000000000000   10300002 00104100000000000000000000005800     
100   9503051024817070000000000000470000000000470000200000001041040508071819000212BHQM360508212813000212   1030000100030000   541120003005777031200000030MOB BANK               YGN           MMR11005080718190002120508000000000000000   10300002 00104100000000000000000000000940     
100   35710500344354020000000000034870000000034870002000000010410405080812400007328475240508212814000732   1030000100030000   581210001501777031200000015MOB BANK               YGN           MMR11005080812400007320508000000000000000   10300005 00104100000000000000000000011856     
100   9503051024961050000000000008500000000008500000200000001041040508120759000166IZ1NUW0508212818000166   1030000100030000   541120003013777031200000030MOB BANK               YGN           MMR11005081207590001660508000000000000000   10300002 00104100000000000000000000017000     
100   35710830114587170000000000017930000000017930002000000010410405080749130013719615500508212814001371   1030000100030000   581250000001777031200000005MOB BANK               YGN           MMR11005080749130013710508000000000000000   10300003 00104100000000000000000000006096     
100   35710500172564030000000000014850000000014850002000000010410405081114260013738076990508212817001373   1030000100030000   581250000001777031200000005MOB BANK               YGN           MMR11005081114260013730508000000000000000   10300005 00104100000000000000000000005049     
100   62921400000910800000000000045500000000045500002000000010410405081120290013742222220508212817001374   1030000100030000   581250000001777031200000005MOB BANK               YGN           MMR11005081120290013740508000000000000000   10300009 00104100000000000000000000015470     
100   35710500313632680000000000032285000000032285002000000010410405081141590013750556340508212818001375   1030000100030000   581250000001777031200000005MOB BANK               YGN           MMR11005081141590013750508000000000000000   10300005 00104100000000000000000000010977     
100   35710500354046540000000000035000000000035000002000000010410405081017150010709125850508212816001070   1030000100030000   541120003117777031200000031MOB BANK               YGN           MMR11005081017150010700508000000000000000   10300005 00104100000000000000000000007000     
100   9503051020029043000000000001070000000001070000200000001041040508085542001062ACGIO60508212815001062   1030000100030000   541120003117777031200000031MOB BANK               YGN           MMR11005080855420010620508000000000000000   10300002 00104100000000000000000000002140     
100   9503051020386211000000000002990000000002990000200000001041040508102633001074SU1NVC0508212816001074   1030000100030000   541120003117777031200000031MOB BANK               YGN           MMR11005081026330010740508000000000000000   10300002 00104100000000000000000000005980     
100   62346600181163150000000000001100000000001100002000000010410405081122580010787292730508212817001078   1030000100030000   541120003117777031200000031MOB BANK               YGN           MMR11005081122580010780508000000000000000   10300005 00104100000000000000000000000220     
100   35710830888049180000000000007200000000007200002000000010410405080948490010640333020508212816001064   1030000100030000   541120003117777031200000031MOB BANK               YGN           MMR11005080948490010640508000000000000000   10300003 00104100000000000000000000001440     
100   62622000062521710000000000010750000000010750002000000010410405070546000000399701170507212712000039   1030000100030000   541180000001777031200000008MOB BANK               YGN           MMR11005070546000000390507000000000000000   10300006 00104100000000000000000000002150     
100   35710830420632390000000000133700000000133700002000000010410405070804260005451066810507212714000545   1030000100030000   581210001201777031200000012MOB BANK               YGN           MMR11005070804260005450507000000000000000   10300003 00104100000000000000000000045458     
100   9503190005213873000000000006000000000006000000200000001041040507070715000541NRPLNF0507212713000541   1030000100030000   581210001201777031200000012MOB BANK               YGN           MMR11005070707150005410507000000000000000   10300014 00104100000000000000000000020400     
100   9503051026240560000000000005000000000005000000200000001041040507144020000547WMYTVD0507212721000547   1030000100030000   581210001201777031200000012MOB BANK               YGN           MMR11005071440200005470507000000000000000   10300002 00104100000000000000000000017000     
100   95030510199625840000000000104500000000104500002000000010410405070717580005434FBDOE0507212713000543   1030000100030000   581210001201777031200000012MOB BANK               YGN           MMR11005070717580005430507000000000000000   10300002 00104100000000000000000000035530     
100   9503051023265719000000000008530000000008530000200000001041040507073632000544KIETQ70507212714000544   1030000100030000   581210001201777031200000012MOB BANK               YGN           MMR11005070736320005440507000000000000000   10300002 00104100000000000000000000029002     
100   62343302006687680000000000015000000000015000002000000010410405070749070008559960490507212714000855   1030000100030000   541120003106777031200000031MOB BANK               YGN           MMR11005070749070008550507000000000000000   10300004 00104100000000000000000000003000     
100   35710830772245730000000000013200000000013200002000000010410405080937320013720265310508212816001372   1030000100030000   581250000001777031200000005MOB BANK               YGN           MMR11005080937320013720508000000000000000   10300003 00104100000000000000000000004488     
100   35710830213017660000000000028800000000028800002000000010410405080722080003099452910508212813000309   1030000100030000   541120003008777031200000030MOB BANK               YGN           MMR11005080722080003090508000000000000000   10300003 00104100000000000000000000005760     
100   35710500145097540000000000022800000000022800002000000010410405080354080007808216800508212810000780   1030000100030000   541110001903777031200000019MOB BANK               YGN           MMR11005080354080007800508000000000000000   10300005 00104100000000000000000000004560     
100   35710830334465590000000000001950000000001950002000000010410405080722580001639458010508212813000163   1030000100030000   541120003013777031200000030MOB BANK               YGN           MMR11005080722580001630508000000000000000   10300003 00104100000000000000000000000390     
100   35710830286186670000000000010350000000010350002000000010410405080838130002179909520508212815000217   1030000100030000   541120003005777031200000030MOB BANK               YGN           MMR11005080838130002170508000000000000000   10300003 00104100000000000000000000002070     
100   35710830561714720000000000009450000000009450002000000010410405081131400002210950210508212818000221   1030000100030000   541120003005777031200000030MOB BANK               YGN           MMR11005081131400002210508000000000000000   10300003 00104100000000000000000000001890     
100   62346600106312530000000000014310000000014310002000000010410405080639570008906904920508212813000890   1030000100030000   541110001920777031200000019MOB BANK               YGN           MMR11005080639570008900508000000000000000   10300005 00104100000000000000000000002862     
100   95030510258438280000000000065900000000065900002000000010410405081232000008913BLQLL0508212819000891   1030000100030000   541120003106777031200000031MOB BANK               YGN           MMR11005081232000008910508000000000000000   10300002 00104100000000000000000000013180     
100   950305189250526000000000000258000000000258000020000000104104050807362500079504CR1L0508212814000795   1030000100030000   541110001903777031200000019MOB BANK               YGN           MMR11005080736250007950508000000000000000   10300002 00104100000000000000000000005160     
100   9503051024469765000000000000664000000000664000200000001041040508050716000878KFMNT00508212811000878   1030000100030000   541110001920777031200000019MOB BANK               YGN           MMR11005080507160008780508000000000000000   10300002 00104100000000000000000000001328     
100   35710830766301010000000000005900000000005900002000000010410405080613410008799042210508212812000879   1030000100030000   541120003106777031200000031MOB BANK               YGN           MMR11005080613410008790508000000000000000   10300003 00104100000000000000000000001180     
100   35710830369388420000000000060000000000060000002000000010410405081152060005501072710508212818000550   1030000100030000   581210001201777031200000012MOB BANK               YGN           MMR11005081152060005500508000000000000000   10300003 00104100000000000000000000020400     
100   35710500140421030000000000015300000000015300002000000010410405080545180010533381320508212812001053   1030000100030000   541120003117777031200000031MOB BANK               YGN           MMR11005080545180010530508000000000000000   10300005 00104100000000000000000000003060     
100   35710500153159120000000000032500000000032500002000000010410405080535090000439098920508212812000043   1030000100030000   541180000001777031200000008MOB BANK               YGN           MMR11005080535090000430508000000000000000   10300005 00104100000000000000000000006500     
100   35710500161099260000000000005200000000005200002000000010410405081124300001180257310508212817000118   1030000100030000   541120003002777031200000030MOB BANK               YGN           MMR11005081124300001180508000000000000000   10300005 00104100000000000000000000001040     
100   9503051020159923000000000001332000000001332000200000001041040508111429000212II1LJL0508212817000212   1030000100030000   541120003110777031200000031MOB BANK               YGN           MMR11005081114290002120508000000000000000   10300002 00104100000000000000000000002664     
100   9503051024087930000000000003430000000003430000200000001041040508102337000324M0HCHR0508212816000324   1030000100030000   541120003111777031200000031MOB BANK               YGN           MMR11005081023370003240508000000000000000   10300002 00104100000000000000000000006860     
100   35710830464963850000000000025800000000025800002000000010410405080426290007828399010508212810000782   1030000100030000   541110001903777031200000019MOB BANK               YGN           MMR11005080426290007820508000000000000000   10300003 00104100000000000000000000005160     
100   9503051025570850000000000002850000000002850000200000001041040508043227000783NPIERX0508212811000783   1030000100030000   541110001903777031200000019MOB BANK               YGN           MMR11005080432270007830508000000000000000   10300002 00104100000000000000000000005700     
100   9503051889153876000000000002240000000002240000200000001041040508093255000218E6UWZ80508212816000218   1030000100030000   541120003005777031200000030MOB BANK               YGN           MMR11005080932550002180508000000000000000   10300002 00104100000000000000000000004480     
100   62346600171170090000000000004100000000004100002000000010410405081233330002229408720508212819000222   1030000100030000   541120003005777031200000030MOB BANK               YGN           MMR11005081233330002220508000000000000000   10300005 00104100000000000000000000000820     
100   35710500355578080000000000012000000000012000002000000010410405080754390008808417720508212814000880   1030000100030000   541120003106777031200000031MOB BANK               YGN           MMR11005080754390008800508000000000000000   10300005 00104100000000000000000000002400     
100   9503051024379840000000000000880000000000880000200000001041040508060929000881UJ35IU0508212812000881   1030000100030000   541110001920777031200000019MOB BANK               YGN           MMR11005080609290008810508000000000000000   10300002 00104100000000000000000000001760     
100   9503051886848296000000000002476000000002476000200000001041040508060059000206AM254U0508212812000206   1030000100030000   541120003005777031200000030MOB BANK               YGN           MMR11005080600590002060508000000000000000   10300002 00104100000000000000000000004952     
100   35710950501551600000000000501600000000501600002000000010410405081402200005511854210508212820000551   1030000100030000   581210001201777031200000012MOB BANK               YGN           MMR11005081402200005510508000000000000000   10300003 00104100000000000000000000170544     
