100   35710830770193120000000000009600000000009600002000000010410405071102130010282133500507212717001028   1030000100030000   541110001915777031200000019MOB BANK               YGN           MMR11005071102130010280507000000000000000   10300003 00104100000000000000000000001920     
100   9503051887191076000000000000436100000000436100200000001041040507130307000203DFREWW0507212719000203   1030000100030000   541120003005777031200000030MOB BANK               YGN           MMR11005071303070002030507000000000000000   10300002 00104100000000000000000000000872     
100   35710500162906350000000000017040000000017040002000000010410405071117010002077712480507212717000207   1030000100030000   541120003110777031200000031MOB BANK               YGN           MMR11005071117010002070507000000000000000   10300005 00104100000000000000000000003408     
100   35710830989497030000000000005040000000005040002000000010410405070951090003021707100507212716000302   1030000100030000   541120003008777031200000030MOB BANK               YGN           MMR11005070951090003020507000000000000000   10300003 00104100000000000000000000001008     
100   62346600121169070000000000010800000000010800002000000010410405070806260008482415110507212714000848   1030000100030000   541110001920777031200000019MOB BANK               YGN           MMR11005070806260008480507000000000000000   10300005 00104100000000000000000000002160     
100   62343302006687680000000000010800000000010800002000000010410405070822570002017961710507212714000201   1030000100030000   541120003110777031200000031MOB BANK               YGN           MMR11005070822570002010507000000000000000   10300004 00104100000000000000000000002160     
100   35710830737417030000000000017800000000017800002000000010410405070627490001890487110507212712000189   1030000100030000   541120003005777031200000030MOB BANK               YGN           MMR11005070627490001890507000000000000000   10300003 00104100000000000000000000003560     
100   95031010670886320000000000011250000000011250002000000010410405071100210003209063360507212717000320   1030000100030000   541120003111777031200000031MOB BANK               YGN           MMR11005071100210003200507000000000000000   10300005 00104100000000000000000000002250     
100   35710830868812490000000000088000000000088000002000000010410405071130320017092303310507212718001709   1030000100030000   541110001907777031200000019MOB BANK               YGN           MMR11005071130320017090507000000000000000   10300003 00104100000000000000000000017600     
100   95030510262981390000000000031320000000031320002000000010410405070822290003152NRYVB0507212714000315   1030000100030000   541120003111777031200000031MOB BANK               YGN           MMR11005070822290003150507000000000000000   10300002 00104100000000000000000000006264     
100   9503051890285683000000000009450000000009450000200000001041040507075443001008SPMWNF0507212714001008   1030000100030000   541110001915777031200000019MOB BANK               YGN           MMR11005070754430010080507000000000000000   10300002 00104100000000000000000000018900     
100   9503190006180907000000000002270000000002270000200000001041040507043813001008CMD3J90507212711001008   1030000100030000   541120003117777031200000031MOB BANK               YGN           MMR11005070438130010080507000000000000000   10300014 00104100000000000000000000004540     
100   35710500361382690000000000039500000000039500002000000010410405071033420007654215680507212717000765   1030000100030000   541110001903777031200000019MOB BANK               YGN           MMR11005071033420007650507000000000000000   10300005 00104100000000000000000000007900     
100   62921400015250780000000000030800000000030800002000000010410405071047120007672222220507212717000767   1030000100030000   541110001903777031200000019MOB BANK               YGN           MMR11005071047120007670507000000000000000   10300009 00104100000000000000000000006160     
100   35710500144961270000000000017500000000017500002000000010410405071301070010341940170507212719001034   1030000100030000   541110001915777031200000019MOB BANK               YGN           MMR11005071301070010340507000000000000000   10300005 00104100000000000000000000003500     
100   9503190006517900000000000000220000000000220000200000001041040507095625000259AAU6A00507212716000259   1030000100030000   541120003001777031200000030MOB BANK               YGN           MMR11005070956250002590507000000000000000   10300014 00104100000000000000000000000440     
100   9503051894071980000000000001489600000001489600200000001041040507050302000299NOGG800507212711000299   1030000100030000   541120003008777031200000030MOB BANK               YGN           MMR11005070503020002990507000000000000000   10300002 00104100000000000000000000002979     
100   9503054000465740000000000002280000000002280000200000001041040507045443000755GLK62Z0507212711000755   1030000100030000   541110001903777031200000019MOB BANK               YGN           MMR11005070454430007550507000000000000000   10300002 00104100000000000000000000004560     
100   62343302004658350000000000009600000000009600002000000010410405070958260008556705000507212716000855   1030000100030000   541110001920777031200000019MOB BANK               YGN           MMR11005070958260008550507000000000000000   10300004 00104100000000000000000000001920     
100   9503051026186953000000000000950000000000950000200000001041040507075817001010S5UVPI0507212714001010   1030000100030000   541110001915777031200000019MOB BANK               YGN           MMR11005070758170010100507000000000000000   10300002 00104100000000000000000000001900     
100   35710500314415020000000000013050000000013050002000000010410405070449010001991677060507212711000199   1030000100030000   541120003110777031200000031MOB BANK               YGN           MMR11005070449010001990507000000000000000   10300005 00104100000000000000000000002610     
100   35710500355039010000000000008869000000008869002000000010410405070508070001570169680507212711000157   1030000100030000   541120003013777031200000030MOB BANK               YGN           MMR11005070508070001570507000000000000000   10300005 00104100000000000000000000001774     
100   95031010670886320000000000014040000000014040002000000010410405071048070003199063350507212717000319   1030000100030000   541120003111777031200000031MOB BANK               YGN           MMR11005071048070003190507000000000000000   10300005 00104100000000000000000000002808     
100   35710500353717960000000000025392000000025392002000000010410405070425430009918256050507212710000991   1030000100030000   541110001915777031200000019MOB BANK               YGN           MMR11005070425430009910507000000000000000   10300005 00104100000000000000000000005078     
100   35710830745097600000000000013000000000013000002000000010410405071053090007692079100507212717000769   1030000100030000   541110001903777031200000019MOB BANK               YGN           MMR11005071053090007690507000000000000000   10300003 00104100000000000000000000002600     
100   9503051885361564000000000002980000000002980000200000001041040507110438000771XKLTWK0507212717000771   1030000100030000   541110001903777031200000019MOB BANK               YGN           MMR11005071104380007710507000000000000000   10300002 00104100000000000000000000005960     
100   62346600180581860000000000007700000000007700002000000010410405070614030013654907130507212712001365   1030000100030000   581250000001777031200000005MOB BANK               YGN           MMR11005070614030013650507000000000000000   10300005 00104100000000000000000000002618     
100   62622000745332540000000000011600000000011600002000000010410405071140110010359614040507212718001035   1030000100030000   541120003117777031200000031MOB BANK               YGN           MMR11005071140110010350507000000000000000   10300006 00104100000000000000000000002320     
100   62622000392672610000000000034450000000034450002000000010410405071146590010399522770507212718001039   1030000100030000   541120003117777031200000031MOB BANK               YGN           MMR11005071146590010390507000000000000000   10300006 00104100000000000000000000006890     
100   62346600190439140000000000011200000000011200002000000010410405071223090010420224450507212718001042   1030000100030000   541120003117777031200000031MOB BANK               YGN           MMR11005071223090010420507000000000000000   10300005 00104100000000000000000000002240     
100   62346600160569680000000000010800000000010800002000000010410405070848080002048462420507212715000204   1030000100030000   541120003110777031200000031MOB BANK               YGN           MMR11005070848080002040507000000000000000   10300005 00104100000000000000000000002160     
100   9503051026026944000000000001270000000001270000200000001041040507053927000257IHZS7Y0507212712000257   1030000100030000   541120003001777031200000030MOB BANK               YGN           MMR11005070539270002570507000000000000000   10300002 00104100000000000000000000002540     
100   35710830414974950000000000022000000000022000002000000010410405070940520003171645310507212716000317   1030000100030000   541120003111777031200000031MOB BANK               YGN           MMR11005070940520003170507000000000000000   10300003 00104100000000000000000000004400     
100   95030510239601450000000000016800000000016800002000000010410405070352480005283P9DQQ0507212710000528   1030000100030000   541120003103777031200000031MOB BANK               YGN           MMR11005070352480005280507000000000000000   10300002 00104100000000000000000000003360     
100   35710500182143360000000000021800000000021800002000000010410405070503060007565558350507212711000756   1030000100030000   541110001903777031200000019MOB BANK               YGN           MMR11005070503060007560507000000000000000   10300005 00104100000000000000000000004360     
100   35710500170142240000000000150000000000150000002000000010410405071304150007243046420507212719000724   1030000100030000   581210001501777031200000015MOB BANK               YGN           MMR11005071304150007240507000000000000000   10300005 00104100000000000000000000051000     
100   95030510233030800000000000037950000000037950002000000010410405070652170013666MTPQK0507212713001366   1030000100030000   581250000001777031200000005MOB BANK               YGN           MMR11005070652170013660507000000000000000   10300002 00104100000000000000000000012903     
100   9503051026253258000000000000140000000000140000200000001041040507083111001016LYDA5M0507212715001016   1030000100030000   541110001915777031200000019MOB BANK               YGN           MMR11005070831110010160507000000000000000   10300002 00104100000000000000000000000280     
100   35710500355886880000000000009120000000009120002000000010410405070530390010175302900507212712001017   1030000100030000   541120003117777031200000031MOB BANK               YGN           MMR11005070530390010170507000000000000000   10300005 00104100000000000000000000001824     
100   62346600170474380000000000021000000000021000002000000010410405071105480003215592110507212717000321   1030000100030000   541120003111777031200000031MOB BANK               YGN           MMR11005071105480003210507000000000000000   10300005 00104100000000000000000000004200     
100   35710500163196570000000000023640000000023640002000000010410405070515060003008053560507212711000300   1030000100030000   541120003008777031200000030MOB BANK               YGN           MMR11005070515060003000507000000000000000   10300005 00104100000000000000000000004728     
100   35710500344297360000000000014400000000014400002000000010410405070355380008382546520507212710000838   1030000100030000   541110001920777031200000019MOB BANK               YGN           MMR11005070355380008380507000000000000000   10300005 00104100000000000000000000002880     
100   35710830774564720000000000029500000000029500002000000010410405070845330014851313410507212715001485   1030000100030000   541110001905777031200000019MOB BANK               YGN           MMR11005070845330014850507000000000000000   10300003 00104100000000000000000000005900     
100   35710500330737580000000000006600000000006600002000000010410405070847370014873675160507212715001487   1030000100030000   541110001905777031200000019MOB BANK               YGN           MMR11005070847370014870507000000000000000   10300005 00104100000000000000000000001320     
100   95030518888607110000000000023400000000023400002000000010410405070906550014897YGTGB0507212715001489   1030000100030000   541110001905777031200000019MOB BANK               YGN           MMR11005070906550014890507000000000000000   10300002 00104100000000000000000000004680     
100   35710500343451220000000000016000000000016000002000000010410405071051490001980221870507212717000198   1030000100030000   541120003005777031200000030MOB BANK               YGN           MMR11005071051490001980507000000000000000   10300005 00104100000000000000000000003200     
100   9503051897807968000000000000550000000000550000200000001041040507055542000996RG3VTS0507212712000996   1030000100030000   541110001915777031200000019MOB BANK               YGN           MMR11005070555420009960507000000000000000   10300002 00104100000000000000000000001100     
100   35710830827937290000000000009625000000009625002000000010410405071039400013671998210507212717001367   1030000100030000   581250000001777031200000005MOB BANK               YGN           MMR11005071039400013670507000000000000000   10300003 00104100000000000000000000003272     
100   35710830059990230000000000018095000000018095002000000010410405071234160013692685710507212719001369   1030000100030000   581250000001777031200000005MOB BANK               YGN           MMR11005071234160013690507000000000000000   10300003 00104100000000000000000000006152     
100   35710500335499550000000000028300000000028300002000000010410405071123310002087545890507212717000208   1030000100030000   541120003110777031200000031MOB BANK               YGN           MMR11005071123310002080507000000000000000   10300005 00104100000000000000000000005660     
100   9503051022762609000000000001280000000001280000200000001041040507040001000530A4QXRI0507212710000530   1030000100030000   541120003103777031200000031MOB BANK               YGN           MMR11005070400010005300507000000000000000   10300002 00104100000000000000000000002560     
100   9503051897799256000000000003960000000003960000200000001041040507111328000773X6WXOM0507212717000773   1030000100030000   541110001903777031200000019MOB BANK               YGN           MMR11005071113280007730507000000000000000   10300002 00104100000000000000000000007920     
100   9503051897799256000000000002580000000002580000200000001041040507112700000774WEK0EO0507212717000774   1030000100030000   541110001903777031200000019MOB BANK               YGN           MMR11005071127000007740507000000000000000   10300002 00104100000000000000000000005160     
100   35710500393712630000000000011860000000011860002000000010410405070601470009985969660507212712000998   1030000100030000   541110001915777031200000019MOB BANK               YGN           MMR11005070601470009980507000000000000000   10300005 00104100000000000000000000002372     
100   35710830881013980000000000006700000000006700002000000010410405070635340010000533510507212713001000   1030000100030000   541110001915777031200000019MOB BANK               YGN           MMR11005070635340010000507000000000000000   10300003 00104100000000000000000000001340     
100   62441900101537420000000000019800000000019800002000000010410405070620560007588981570507212712000758   1030000100030000   541110001903777031200000019MOB BANK               YGN           MMR11005070620560007580507000000000000000   10300003 00104100000000000000000000006930     
100   9503051889562100000000000002670000000002670000200000001041040507054413001665KOAXLU0507212712001665   1030000100030000   541110001907777031200000019MOB BANK               YGN           MMR11005070544130016650507000000000000000   10300002 00104100000000000000000000005340     
100   35710500153412070000000000004200000000004200002000000010410405070927240014914676210507212715001491   1030000100030000   541110001905777031200000019MOB BANK               YGN           MMR11005070927240014910507000000000000000   10300005 00104100000000000000000000000840     
100   35710500365635400000000000027000000000027000002000000010410405070849030010187476920507212715001018   1030000100030000   541110001915777031200000019MOB BANK               YGN           MMR11005070849030010180507000000000000000   10300005 00104100000000000000000000005400     
100   95030510262532580000000000003100000000003100002000000010410405070920350010204TVJS00507212715001020   1030000100030000   541110001915777031200000019MOB BANK               YGN           MMR11005070920350010200507000000000000000   10300002 00104100000000000000000000000620     
100   35710500133041160000000000006600000000006600002000000010410405070344110014722467140507212710001472   1030000100030000   541110001905777031200000019MOB BANK               YGN           MMR11005070344110014720507000000000000000   10300005 00104100000000000000000000001320     
100   35710500344297360000000000067100000000067100002000000010410405070412430014746674880507212710001474   1030000100030000   541110001905777031200000019MOB BANK               YGN           MMR11005070412430014740507000000000000000   10300005 00104100000000000000000000013420     
100   35710500393865270000000000001450000000001450002000000010410405070535030014765522540507212712001476   1030000100030000   541110001905777031200000019MOB BANK               YGN           MMR11005070535030014760507000000000000000   10300005 00104100000000000000000000000290     
100   35710500171984230000000000019300000000019300002000000010410405070755410014784224000507212714001478   1030000100030000   541110001905777031200000019MOB BANK               YGN           MMR11005070755410014780507000000000000000   10300005 00104100000000000000000000003860     
100   9503051026186953000000000000880000000000880000200000001041040507080729001480F3EPCM0507212714001480   1030000100030000   541110001905777031200000019MOB BANK               YGN           MMR11005070807290014800507000000000000000   10300002 00104100000000000000000000001760     
100   35710500320670580000000000004700000000004700002000000010410405070816320014821948270507212714001482   1030000100030000   541110001905777031200000019MOB BANK               YGN           MMR11005070816320014820507000000000000000   10300005 00104100000000000000000000000940     
100   62622000175218380000000000049000000000049000002000000010410405070821240010149591660507212714001014   1030000100030000   541110001915777031200000019MOB BANK               YGN           MMR11005070821240010140507000000000000000   10300006 00104100000000000000000000009800     
100   35710500355886880000000000010780000000010780002000000010410405070523350010141457410507212711001014   1030000100030000   541120003117777031200000031MOB BANK               YGN           MMR11005070523350010140507000000000000000   10300005 00104100000000000000000000002156     
100   35710950789997890000000000564300000000564300002000000010410405061437100005364783110506212621000536   1030000100030000   581210001201777031200000012MOB BANK               YGN           MMR11005061437100005360506000000000000000   10300003 00104100000000000000000000191862     
100   9503051024219533000000000001850000000001850000200000001041040507102251001022VIF0RQ0507212716001022   1030000100030000   541110001915777031200000019MOB BANK               YGN           MMR11005071022510010220507000000000000000   10300002 00104100000000000000000000003700     
100   35710500165996620000000000017765000000017765002000000010410405071147250013683425610507212718001368   1030000100030000   581250000001777031200000005MOB BANK               YGN           MMR11005071147250013680507000000000000000   10300005 00104100000000000000000000006040     
100   9503051873664524000000000001632000000001632000200000001041040507102433001704HIV4HK0507212716001704   1030000100030000   541110001907777031200000019MOB BANK               YGN           MMR11005071024330017040507000000000000000   10300002 00104100000000000000000000003264     
100   35710500381934860000000000515200000000515200002000000010410405070533320016629324290507212712001662   1030000100030000   541110001907777031200000019MOB BANK               YGN           MMR11005070533320016620507000000000000000   10300005 00104100000000000000000000103040     
100   62343302006687680000000000006000000000006000002000000010410405070825060002023914210507212714000202   1030000100030000   541120003110777031200000031MOB BANK               YGN           MMR11005070825060002020507000000000000000   10300004 00104100000000000000000000001200     
100   9503051020837999000000000000585000000000585000200000001041040507094843000206RF4LAS0507212716000206   1030000100030000   541120003110777031200000031MOB BANK               YGN           MMR11005070948430002060507000000000000000   10300002 00104100000000000000000000001170     
100   9503051873664524000000000002736000000002736000200000001041040507100931000859WKR54N0507212716000859   1030000100030000   541110001920777031200000019MOB BANK               YGN           MMR11005071009310008590507000000000000000   10300002 00104100000000000000000000005472     
100   9503051892236650000000000001600000000001600000200000001041040507062106000843INPSIC0507212712000843   1030000100030000   541110001920777031200000019MOB BANK               YGN           MMR11005070621060008430507000000000000000   10300002 00104100000000000000000000003200     
100   95030800076789100000000000010800000000010800002000000010410405070939300014941637120507212716001494   1030000100030000   541160000001777031200000006MOB BANK               YGN           MMR11005070939300014940507000000000000000   10300003 00104100000000000000000000002160     
100   35710500101448790000000000029351000000029351002000000010410405070955530014955508280507212716001495   1030000100030000   541110001905777031200000019MOB BANK               YGN           MMR11005070955530014950507000000000000000   10300005 00104100000000000000000000005870     
100   9503051888417538000000000000720000000000720000200000001041040507040358001001AAA2CM0507212710001001   1030000100030000   541120003117777031200000031MOB BANK               YGN           MMR11005070403580010010507000000000000000   10300002 00104100000000000000000000001440     
100   9503051889261885000000000001100000000001100000200000001041040507063839001002LKZUZS0507212713001002   1030000100030000   541110001915777031200000019MOB BANK               YGN           MMR11005070638390010020507000000000000000   10300002 00104100000000000000000000002200     
100   35710500115554790000000000018500000000018500002000000010410405070642090016756702230507212713001675   1030000100030000   541110001907777031200000019MOB BANK               YGN           MMR11005070642090016750507000000000000000   10300005 00104100000000000000000000003700     
100   35710500150831710000000000006250000000006250002000000010410405070713450016791569870507212713001679   1030000100030000   541110001907777031200000019MOB BANK               YGN           MMR11005070713450016790507000000000000000   10300005 00104100000000000000000000001250     
100   35710830058771790000000000052950000000052950002000000010410405070852140002051353600507212715000205   1030000100030000   541120003110777031200000031MOB BANK               YGN           MMR11005070852140002050507000000000000000   10300003 00104100000000000000000000010590     
100   9503051887701106000000000002664000000002664000200000001041040507094828000318T8LFGK0507212716000318   1030000100030000   541120003111777031200000031MOB BANK               YGN           MMR11005070948280003180507000000000000000   10300002 00104100000000000000000000005328     
100   35710500314368740000000000017640000000017640002000000010410405070746580003144946140507212714000314   1030000100030000   541120003111777031200000031MOB BANK               YGN           MMR11005070746580003140507000000000000000   10300005 00104100000000000000000000003528     
100   9503051020182016000000000001340000000001340000200000001041040507040855000532VRRXBW0507212710000532   1030000100030000   541120003103777031200000031MOB BANK               YGN           MMR11005070408550005320507000000000000000   10300002 00104100000000000000000000002680     
100   35710500345510830000000000030800000000030800002000000010410405071153500007761652380507212718000776   1030000100030000   541110001903777031200000019MOB BANK               YGN           MMR11005071153500007760507000000000000000   10300005 00104100000000000000000000006160     
100   35710500344819920000000000024500000000024500002000000010410405070644100007611673470507212713000761   1030000100030000   541110001903777031200000019MOB BANK               YGN           MMR11005070644100007610507000000000000000   10300005 00104100000000000000000000004900     
100   9503051025997442000000000005478000000005478000200000001041040507141604000727LVMM180507212720000727   1030000100030000   581210001501777031200000015MOB BANK               YGN           MMR11005071416040007270507000000000000000   10300002 00104100000000000000000000018625     
100   9503051025425360000000000003400000000003400000200000001041040507074040001682GVSABP0507212714001682   1030000100030000   541110001907777031200000019MOB BANK               YGN           MMR11005070740400016820507000000000000000   10300002 00104100000000000000000000006800     
100   35710830182658910000000000008100000000008100002000000010410405070630320010200503310507212713001020   1030000100030000   541120003117777031200000031MOB BANK               YGN           MMR11005070630320010200507000000000000000   10300003 00104100000000000000000000001620     
100   9503051884819695000000000001450000000001450000200000001041040507105553001024DMYWIC0507212717001024   1030000100030000   541110001915777031200000019MOB BANK               YGN           MMR11005071055530010240507000000000000000   10300002 00104100000000000000000000002900     
100   35710830250632220000000000008350000000008350002000000010410405071038320001931991310507212717000193   1030000100030000   541120003005777031200000030MOB BANK               YGN           MMR11005071038320001930507000000000000000   10300003 00104100000000000000000000001670     
100   35710500303189660000000000013950000000013950002000000010410405070846330002031256810507212715000203   1030000100030000   541120003110777031200000031MOB BANK               YGN           MMR11005070846330002030507000000000000000   10300005 00104100000000000000000000002790     
100   9503051023088269000000000002891000000002891000200000001041040507114941000322OAKNQN0507212718000322   1030000100030000   541120003111777031200000031MOB BANK               YGN           MMR11005071149410003220507000000000000000   10300002 00104100000000000000000000005782     
100   62921400074174030000000000010000000000010000002000000010410405071128430008622222220507212717000862   1030000100030000   541110001920777031200000019MOB BANK               YGN           MMR11005071128430008620507000000000000000   10300009 00104100000000000000000000002000     
100   35710500395136660000000000023600000000023600002000000010410405071231290008637210420507212719000863   1030000100030000   541110001920777031200000019MOB BANK               YGN           MMR11005071231290008630507000000000000000   10300005 00104100000000000000000000004720     
100   35710830894189320000000000008800000000008800002000000010410405070836540007631261620507212715000763   1030000100030000   541110001903777031200000019MOB BANK               YGN           MMR11005070836540007630507000000000000000   10300003 00104100000000000000000000001760     
100   9503051026186953000000000001080000000001080000200000001041040507070001000845XEX1UQ0507212713000845   1030000100030000   541110001920777031200000019MOB BANK               YGN           MMR11005070700010008450507000000000000000   10300002 00104100000000000000000000002160     
100   9503051873664524000000000000984900000000984900200000001041040507101601001497WTQBD00507212716001497   1030000100030000   541110001905777031200000019MOB BANK               YGN           MMR11005071016010014970507000000000000000   10300002 00104100000000000000000000001970     
100   35710500320586770000000000028000000000028000002000000010410405071036590014991918080507212717001499   1030000100030000   541110001905777031200000019MOB BANK               YGN           MMR11005071036590014990507000000000000000   10300005 00104100000000000000000000005600     
100   35710830295509500000000000014450000000014450002000000010410405070703010001580698300507212713000158   1030000100030000   541120003013777031200000030MOB BANK               YGN           MMR11005070703010001580507000000000000000   10300003 00104100000000000000000000002890     
100   35710500344819920000000000005500000000005500002000000010410405070700290010044220650507212713001004   1030000100030000   541110001915777031200000019MOB BANK               YGN           MMR11005070700290010040507000000000000000   10300005 00104100000000000000000000001100     
100   9503051025038940000000000002850000000002850000200000001041040507042411001004PTY5170507212710001004   1030000100030000   541120003117777031200000031MOB BANK               YGN           MMR11005070424110010040507000000000000000   10300002 00104100000000000000000000005700     
100   35710500153412070000000000009550000000009550002000000010410405070841450016893809700507212715001689   1030000100030000   541110001907777031200000019MOB BANK               YGN           MMR11005070841450016890507000000000000000   10300005 00104100000000000000000000001910     
100   95030518888607110000000000015300000000015300002000000010410405070916090016938ZVLA00507212715001693   1030000100030000   541110001907777031200000019MOB BANK               YGN           MMR11005070916090016930507000000000000000   10300002 00104100000000000000000000003060     
100   9503051888860711000000000001200000000001200000200000001041040507092135001697RONYXN0507212715001697   1030000100030000   541110001907777031200000019MOB BANK               YGN           MMR11005070921350016970507000000000000000   10300002 00104100000000000000000000002400     
100   62622000796837650000000000001800000000001800002000000010410405070446510001869501560507212711000186   1030000100030000   541120003005777031200000030MOB BANK               YGN           MMR11005070446510001860507000000000000000   10300006 00104100000000000000000000000360     
100   62622000824752250000000000019800000000019800002000000010410405070318210001969401730507212709000196   1030000100030000   541120003110777031200000031MOB BANK               YGN           MMR11005070318210001960507000000000000000   10300006 00104100000000000000000000003960     
100   35710500171508460000000000007700000000007700002000000010410405070931050001590852190507212716000159   1030000100030000   541120003013777031200000030MOB BANK               YGN           MMR11005070931050001590507000000000000000   10300005 00104100000000000000000000001540     
100   9503051024932887000000000002995000000002995000200000001041040507052201000248AJVTTC0507212711000248   1030000100030000   541120003003777031200000030MOB BANK               YGN           MMR11005070522010002480507000000000000000   10300002 00104100000000000000000000005990     
100   9503051886342605000000000002850000000002850000200000001041040507085455000316LHLGYI0507212715000316   1030000100030000   541120003111777031200000031MOB BANK               YGN           MMR11005070854550003160507000000000000000   10300002 00104100000000000000000000005700     
100   95030518884175380000000000007200000000007200002000000010410405070427580005346M5XIA0507212710000534   1030000100030000   541120003103777031200000031MOB BANK               YGN           MMR11005070427580005340507000000000000000   10300002 00104100000000000000000000001440     
100   9503051022762609000000000000730000000000730000200000001041040507042732001006SIZIKU0507212710001006   1030000100030000   541120003117777031200000031MOB BANK               YGN           MMR11005070427320010060507000000000000000   10300002 00104100000000000000000000001460     
100   95030510250179100000000000059300000000059300002000000010410405070745260010064MW9KP0507212714001006   1030000100030000   541110001915777031200000019MOB BANK               YGN           MMR11005070745260010060507000000000000000   10300002 00104100000000000000000000011860     
100   9503051025553336000000000001020000000001020000200000001041040507105734001026JJWFDO0507212717001026   1030000100030000   541110001915777031200000019MOB BANK               YGN           MMR11005071057340010260507000000000000000   10300002 00104100000000000000000000002040     
