100   35710500312711800000000000013953000000013953002000000010410405091017000002250424410509212916000225   1030000100030000   541120003005777031200000030MOB BANK               YGN           MMR11005091017000002250509000000000000000   10300005 00104100000000000000000000002791     
100   9503051022417725000000000001360000000001360000200000001041040509084810000319IVEUZT0509212915000319   1030000100030000   541120003008777031200000030MOB BANK               YGN           MMR11005090848100003190509000000000000000   10300002 00104100000000000000000000002720     
100   9503051024817070000000000000320000000000320000200000001041040509105805000273I7MICW0509212917000273   1030000100030000   541120003003777031200000030MOB BANK               YGN           MMR11005091058050002730509000000000000000   10300002 00104100000000000000000000000640     
100   35710500374474610000000000022800000000022800002000000010410405090812140008094177340509212914000809   1030000100030000   541110001903777031200000019MOB BANK               YGN           MMR11005090812140008090509000000000000000   10300005 00104100000000000000000000004560     
100   9503051025491966000000000074100000000074100000200000001041040509064424001513GFLGG30509212913001513   1030000100030000   541160000001777031200000006MOB BANK               YGN           MMR11005090644240015130509000000000000000   10300002 00104100000000000000000000148200     
100   9503051886173109000000000003110000000003110000200000001041040509072418001551RUSOCS0509212913001551   1030000100030000   541110001905777031200000019MOB BANK               YGN           MMR11005090724180015510509000000000000000   10300002 00104100000000000000000000006220     
100   62346600126757870000000000035760000000035760002000000010410405080615580017257011880508212812001725   1030000100030000   541110001907777031200000019MOB BANK               YGN           MMR11005080615580017250508000000000000000   10300005 00104100000000000000000000007152     
100   35710950106051300000000000064350000000064350002000000010410405080542010015138852310508212812001513   1030000100030000   541110001905777031200000019MOB BANK               YGN           MMR11005080542010015130508000000000000000   10300003 00104100000000000000000000012870     
100   9503051884328390000000000002000000000002000000200000001041040508075540001739NP8MHZ0508212814001739   1030000100030000   541110001907777031200000019MOB BANK               YGN           MMR11005080755400017390508000000000000000   10300002 00104100000000000000000000004000     
100   35710500345906850000000000019000000000019000002000000010410405080600160010460984830508212812001046   1030000100030000   541110001915777031200000019MOB BANK               YGN           MMR11005080600160010460508000000000000000   10300005 00104100000000000000000000003800     
100   9503051025923455000000000005600000000005600000200000001041040509040811001756JS5AOY0509212910001756   1030000100030000   541110001907777031200000019MOB BANK               YGN           MMR11005090408110017560509000000000000000   10300002 00104100000000000000000000011200     
100   35710500144822910000000000018000000000018000002000000010410405090958150009066222020509212916000906   1030000100030000   541120003106777031200000031MOB BANK               YGN           MMR11005090958150009060509000000000000000   10300005 00104100000000000000000000003600     
100   62346600164039880000000000012500000000012500002000000010410405090859260017659210830509212915001765   1030000100030000   541110001907777031200000019MOB BANK               YGN           MMR11005090859260017650509000000000000000   10300005 00104100000000000000000000002500     
100   9503051892505260000000000001160000000001160000200000001041040508063529001048EVQEKP0508212813001048   1030000100030000   541110001915777031200000019MOB BANK               YGN           MMR11005080635290010480508000000000000000   10300002 00104100000000000000000000002320     
100   35710830067837230000000000006300000000006300002000000010410405080729380010529497920508212813001052   1030000100030000   541110001915777031200000019MOB BANK               YGN           MMR11005080729380010520508000000000000000   10300003 00104100000000000000000000001260     
100   35710830464963850000000000010300000000010300002000000010410405080445410010398514310508212811001039   1030000100030000   541110001915777031200000019MOB BANK               YGN           MMR11005080445410010390508000000000000000   10300003 00104100000000000000000000002060     
100   35710830584926030000000000009350000000009350002000000010410405080756330010549659410508212814001054   1030000100030000   541110001915777031200000019MOB BANK               YGN           MMR11005080756330010540508000000000000000   10300003 00104100000000000000000000001870     
100   62921400071566210000000000020800000000020800002000000010410405080504210010412222220508212811001041   1030000100030000   541110001915777031200000019MOB BANK               YGN           MMR11005080504210010410508000000000000000   10300009 00104100000000000000000000004160     
100   35710830633594410000000000017000000000017000002000000010410405080444170010378505900508212811001037   1030000100030000   541110001915777031200000019MOB BANK               YGN           MMR11005080444170010370508000000000000000   10300003 00104100000000000000000000003400     
100   35710500314138160000000000055700000000055700002000000010410405080705120010507242950508212813001050   1030000100030000   541110001915777031200000019MOB BANK               YGN           MMR11005080705120010500508000000000000000   10300005 00104100000000000000000000011140     
100   35710500362221880000000000007680000000007680002000000010410405080758200017424105390508212814001742   1030000100030000   541110001907777031200000019MOB BANK               YGN           MMR11005080758200017420508000000000000000   10300005 00104100000000000000000000001536     
100   9503051884328390000000000001550000000001550000200000001041040508075948001744Q3CQBV0508212814001744   1030000100030000   541110001907777031200000019MOB BANK               YGN           MMR11005080759480017440508000000000000000   10300002 00104100000000000000000000003100     
100   62921400084156460000000000071800000000071800002000000010410405080615290015202222220508212812001520   1030000100030000   541110001905777031200000019MOB BANK               YGN           MMR11005080615290015200508000000000000000   10300009 00104100000000000000000000014360     
100   35710500144199130000000000233800000000233800002000000010410405080618570017307763960508212812001730   1030000100030000   541110001907777031200000019MOB BANK               YGN           MMR11005080618570017300508000000000000000   10300005 00104100000000000000000000046760     
100   62343302003531630000000000031650000000031650002000000010410405080804510015237825600508212814001523   1030000100030000   541110001905777031200000019MOB BANK               YGN           MMR11005080804510015230508000000000000000   10300004 00104100000000000000000000006330     
100   9503051021818824000000000016000000000016000000200000001041040508062727001735MMV3YI0508212812001735   1030000100030000   541110001907777031200000019MOB BANK               YGN           MMR11005080627270017350508000000000000000   10300002 00104100000000000000000000032000     
100   9503051885063723000000000001800000000001800000200000001041040508044729001712OTQT8D0508212811001712   1030000100030000   541110001907777031200000019MOB BANK               YGN           MMR11005080447290017120508000000000000000   10300002 00104100000000000000000000003600     
100   9503051020077356000000000008750000000008750000200000001041040508045216001714OIPV1N0508212811001714   1030000100030000   541110001907777031200000019MOB BANK               YGN           MMR11005080452160017140508000000000000000   10300002 00104100000000000000000000017500     
100   9503051887821698000000000002440000000002440000200000001041040508054013001718VPQW2M0508212812001718   1030000100030000   541110001907777031200000019MOB BANK               YGN           MMR11005080540130017180508000000000000000   10300002 00104100000000000000000000004880     
100   35710500102958950000000000073500000000073500002000000010410405070408390004459419820507212710000445   1030000100030000   541120000011777031200000002MOB BANK               YGN           MMR11005070408390004450507000000000000000   10300005 00104100000000000000000000014700     
100   9503051021995242000000000000280000000000280000200000001041040509090837000320H8ZGJ20509212915000320   1030000100030000   541120003008777031200000030MOB BANK               YGN           MMR11005090908370003200509000000000000000   10300002 00104100000000000000000000000560     
100   95030510248146630000000000009000000000009000002000000010410405090845090002589WI1G00509212915000258   1030000100030000   541120003003777031200000030MOB BANK               YGN           MMR11005090845090002580509000000000000000   10300002 00104100000000000000000000001800     
100   35710830567343110000000000008700000000008700002000000010410405090519020003097354410509212911000309   1030000100030000   541120003104777031200000031MOB BANK               YGN           MMR11005090519020003090509000000000000000   10300003 00104100000000000000000000001740     
100   9503051024615417000000000003900000000003900000200000001041040509101206000812OXUV2Z0509212916000812   1030000100030000   541110001903777031200000019MOB BANK               YGN           MMR11005091012060008120509000000000000000   10300002 00104100000000000000000000007800     
100   35710830629556780000000000080100000000080100002000000010410405091102430015169416420509212917001516   1030000100030000   541160000001777031200000006MOB BANK               YGN           MMR11005091102430015160509000000000000000   10300003 00104100000000000000000000016020     
100   35710500334923620000000000006700000000006700002000000010410405090410570001826735840509212910000182   1030000100030000   541120003101777031200000031MOB BANK               YGN           MMR11005090410570001820509000000000000000   10300005 00104100000000000000000000001340     
100   95030510219482580000000000014550000000014550002000000010410405090757170002522R21XX0509212914000252   1030000100030000   541120003003777031200000030MOB BANK               YGN           MMR11005090757170002520509000000000000000   10300002 00104100000000000000000000002910     
100   9503051024817070000000000000200000000000200000200000001041040509110251000226WHNQTI0509212917000226   1030000100030000   541120003005777031200000030MOB BANK               YGN           MMR11005091102510002260509000000000000000   10300002 00104100000000000000000000000400     
100   62343301016950840000000000010500000000010500002000000010410405091214030015849873380509212918001584   1030000100030000   541110001905777031200000019MOB BANK               YGN           MMR11005091214030015840509000000000000000   10300004 00104100000000000000000000002100     
100   9503051021995242000000000001120000000001120000200000001041040509091548000321PJUL3J0509212915000321   1030000100030000   541120003008777031200000030MOB BANK               YGN           MMR11005090915480003210509000000000000000   10300002 00104100000000000000000000002240     
100   9503051887191076000000000001125700000001125700200000001041040509122809000276SLQXXN0509212918000276   1030000100030000   541120003003777031200000030MOB BANK               YGN           MMR11005091228090002760509000000000000000   10300002 00104100000000000000000000002252     
100   95031900048732710000000000025800000000025800002000000010410405091016060008137M7XC10509212916000813   1030000100030000   541110001903777031200000019MOB BANK               YGN           MMR11005091016060008130509000000000000000   10300014 00104100000000000000000000005160     
100   95031100011159890000000000001350000000001350002000000010410405090603410003110524050509212912000311   1030000100030000   541120003104777031200000031MOB BANK               YGN           MMR11005090603410003110509000000000000000   10300006 00104100000000000000000000000270     
100   35710830784898290000000000009350000000009350002000000010410405090633580007387803910509212913000738   1030000100030000   581210001501777031200000015MOB BANK               YGN           MMR11005090633580007380509000000000000000   10300003 00104100000000000000000000003179     
100   9503051023938133000000000005450000000005450000200000001041040509053434000897CPONHT0509212912000897   1030000100030000   541120003106777031200000031MOB BANK               YGN           MMR11005090534340008970509000000000000000   10300002 00104100000000000000000000010900     
100   35710500330368880000000000009408000000009408002000000010410405090511580008981036750509212911000898   1030000100030000   541110001920777031200000019MOB BANK               YGN           MMR11005090511580008980509000000000000000   10300005 00104100000000000000000000001882     
100   9503051023938133000000000005550000000005550000200000001041040509053850000900MZDURE0509212912000900   1030000100030000   541120003106777031200000031MOB BANK               YGN           MMR11005090538500009000509000000000000000   10300002 00104100000000000000000000011100     
100   62622000569305690000000000023600000000023600002000000010410405091016400003230772960509212916000323   1030000100030000   541120003008777031200000030MOB BANK               YGN           MMR11005091016400003230509000000000000000   10300006 00104100000000000000000000004720     
100   35710500120296720000000000077600000000077600002000000010410405091106190008154744820509212917000815   1030000100030000   541110001903777031200000019MOB BANK               YGN           MMR11005091106190008150509000000000000000   10300005 00104100000000000000000000015520     
100   35710500313821770000000000007350000000007350002000000010410405090310100015453940390509212909001545   1030000100030000   541110001905777031200000019MOB BANK               YGN           MMR11005090310100015450509000000000000000   10300005 00104100000000000000000000001470     
100   9503051020887820000000000006960000000006960000200000001041040509044528001758YFXYWJ0509212911001758   1030000100030000   541110001907777031200000019MOB BANK               YGN           MMR11005090445280017580509000000000000000   10300002 00104100000000000000000000013920     
100   9503051894365515000000000006000000000006000000200000001041040509064700001761JTU1OR0509212913001761   1030000100030000   541110001907777031200000019MOB BANK               YGN           MMR11005090647000017610509000000000000000   10300002 00104100000000000000000000012000     
100   95030510219952420000000000087000000000087000002000000010410405090928430001724Z0ZY90509212915000172   1030000100030000   541120003013777031200000030MOB BANK               YGN           MMR11005090928430001720509000000000000000   10300002 00104100000000000000000000017400     
100   9503051022417725000000000000230000000000230000200000001041040509082939000171BXDZ9H0509212914000171   1030000100030000   541120003013777031200000030MOB BANK               YGN           MMR11005090829390001710509000000000000000   10300002 00104100000000000000000000000460     
100   9503051025304474000000000002780000000002780000200000001041040509080015000313CWMYJS0509212914000313   1030000100030000   541120003104777031200000031MOB BANK               YGN           MMR11005090800150003130509000000000000000   10300002 00104100000000000000000000005560     
100   35710500136357820000000000007600000000007600002000000010410405090852410002654047520509212915000265   1030000100030000   541120003003777031200000030MOB BANK               YGN           MMR11005090852410002650509000000000000000   10300005 00104100000000000000000000001520     
100   62921400050684970000000000009300000000009300002000000010410405090523110009022222220509212911000902   1030000100030000   541110001920777031200000019MOB BANK               YGN           MMR11005090523110009020509000000000000000   10300009 00104100000000000000000000001860     
100   9503051025948262000000000001750000000001750000200000001041040509053902000314VWBLYG0509212912000314   1030000100030000   541120003008777031200000030MOB BANK               YGN           MMR11005090539020003140509000000000000000   10300002 00104100000000000000000000003500     
100   95030518868482960000000000038300000000038300002000000010410405091136290002298B3SVU0509212918000229   1030000100030000   541120003005777031200000030MOB BANK               YGN           MMR11005091136290002290509000000000000000   10300002 00104100000000000000000000007660     
100   35710830131072880000000000054000000000054000002000000010410405091222390003259896020509212918000325   1030000100030000   541120003008777031200000030MOB BANK               YGN           MMR11005091222390003250509000000000000000   10300003 00104100000000000000000000010800     
100   9503051896452915000000000001180000000001180000200000001041040509073843001557VOIEA00509212914001557   1030000100030000   541110001905777031200000019MOB BANK               YGN           MMR11005090738430015570509000000000000000   10300002 00104100000000000000000000002360     
100   35710500382378610000000000010000000000010000002000000010410405090817550015640085160509212914001564   1030000100030000   541110001905777031200000019MOB BANK               YGN           MMR11005090817550015640509000000000000000   10300005 00104100000000000000000000002000     
100   95030540007848760000000000021000000000021000002000000010410405091140340001732D4ZVD0509212918000173   1030000100030000   541120003013777031200000030MOB BANK               YGN           MMR11005091140340001730509000000000000000   10300002 00104100000000000000000000004200     
100   9503051022417725000000000000915000000000915000200000001041040509091101000224N6HFRN0509212915000224   1030000100030000   541120003005777031200000030MOB BANK               YGN           MMR11005090911010002240509000000000000000   10300002 00104100000000000000000000001830     
100   35710500183712760000000000005088880000005088882000000010410405090607410003154243830509212912000315   1030000100030000   541120003008777031200000030MOB BANK               YGN           MMR11005090607410003150509000000000000000   10300005 00104100000000000000000000001018     
100   9503051020081846000000000000620000000000620000200000001041040509080419000315MFST3E0509212914000315   1030000100030000   541120003104777031200000031MOB BANK               YGN           MMR11005090804190003150509000000000000000   10300002 00104100000000000000000000001240     
100   9503051892450491000000000005060000000005060000200000001041040509114854000818JRBJ0D0509212918000818   1030000100030000   541110001903777031200000019MOB BANK               YGN           MMR11005091148540008180509000000000000000   10300002 00104100000000000000000000010120     
100   35710830923015620000000000049500000000049500002000000010410405091205550009099795710509212918000909   1030000100030000   541120003106777031200000031MOB BANK               YGN           MMR11005091205550009090509000000000000000   10300003 00104100000000000000000000009900     
100   9503051025618469000000000000260000000000260000200000001041040509092808000317PAD52U0509212915000317   1030000100030000   541120003104777031200000031MOB BANK               YGN           MMR11005090928080003170509000000000000000   10300002 00104100000000000000000000000520     
100   9503190006293452000000000001353000000001353000200000001041040509114041001377YY81FZ0509212918001377   1030000100030000   581250000001777031200000005MOB BANK               YGN           MMR11005091140410013770509000000000000000   10300014 00104100000000000000000000004600     
100   9503051023745843000000000001980000000001980000200000001041040509120643000820QEXZGK0509212918000820   1030000100030000   541110001903777031200000019MOB BANK               YGN           MMR11005091206430008200509000000000000000   10300002 00104100000000000000000000003960     
100   950305189196706500000000000218000000000218000020000000104104050903551100080714LNL90509212910000807   1030000100030000   541110001903777031200000019MOB BANK               YGN           MMR11005090355110008070509000000000000000   10300002 00104100000000000000000000004360     
100   35710830916786140000000000058550000000058550002000000010410405090825160015698471710509212914001569   1030000100030000   541110001905777031200000019MOB BANK               YGN           MMR11005090825160015690509000000000000000   10300003 00104100000000000000000000011710     
100   35710500136394530000000000095000000000095000002000000010410405091014160017712672570509212916001771   1030000100030000   541110001907777031200000019MOB BANK               YGN           MMR11005091014160017710509000000000000000   10300005 00104100000000000000000000019000     
100   35710500355574850000000000210000000000210000002000000010410405091244030017731138480509212919001773   1030000100030000   541110001907777031200000019MOB BANK               YGN           MMR11005091244030017730509000000000000000   10300005 00104100000000000000000000042000     
100   35710900377957410000000000042500000000042500002000000010410405091020480001559165010509212916000155   1030000100030000   541120003012777031200000030MOB BANK               YGN           MMR11005091020480001550509000000000000000   10300003 00104100000000000000000000008500     
100   35710830131072880000000000052000000000052000002000000010410405091217500001749867110509212918000174   1030000100030000   541120003013777031200000030MOB BANK               YGN           MMR11005091217500001740509000000000000000   10300003 00104100000000000000000000010400     
100   62441900001078310000000000002650000000002650002000000010410405090712470001683004140509212913000168   1030000100030000   541120003013777031200000030MOB BANK               YGN           MMR11005090712470001680509000000000000000   10300003 00104100000000000000000000000927     
100   9503051022417725000000000000875000000000875000200000001041040509081447000317TZFNGU0509212914000317   1030000100030000   541120003008777031200000030MOB BANK               YGN           MMR11005090814470003170509000000000000000   10300002 00104100000000000000000000001750     
100   9503051022417725000000000001550000000001550000200000001041040509082358000318BGW9OF0509212914000318   1030000100030000   541120003008777031200000030MOB BANK               YGN           MMR11005090823580003180509000000000000000   10300002 00104100000000000000000000003100     
100   9503051024817070000000000000245000000000245000200000001041040509101743000270UFSMZ00509212916000270   1030000100030000   541120003003777031200000030MOB BANK               YGN           MMR11005091017430002700509000000000000000   10300002 00104100000000000000000000000490     
100   9503051026218160000000000004650000000004650000200000001041040509122536000912D4W8XY0509212918000912   1030000100030000   541120003106777031200000031MOB BANK               YGN           MMR11005091225360009120509000000000000000   10300002 00104100000000000000000000009300     
100   35710830515799190000000000010100000000010100002000000010410405091207320002319805410509212918000231   1030000100030000   541120003005777031200000030MOB BANK               YGN           MMR11005091207320002310509000000000000000   10300003 00104100000000000000000000002020     
100   9503051889521239000000000001740000000001740000200000001041040509051724000308FD6QOG0509212911000308   1030000100030000   541120003104777031200000031MOB BANK               YGN           MMR11005090517240003080509000000000000000   10300002 00104100000000000000000000003480     
100   9503051024613222000000000001580000000001580000200000001041040509032806000181Z3W3HN0509212909000181   1030000100030000   541120003101777031200000031MOB BANK               YGN           MMR11005090328060001810509000000000000000   10300002 00104100000000000000000000003160     
100   9503051025370384000000000002270000000002270000200000001041040509085726001574TQCGVF0509212915001574   1030000100030000   541110001905777031200000019MOB BANK               YGN           MMR11005090857260015740509000000000000000   10300002 00104100000000000000000000004540     
