100   35710500334988800000000000093300000000093300002000000010410405120738390015291439890512213214001529   1030000100030000   541160000001777031200000006MOB BANK               YGN           MMR11005120738390015290512000000000000000   10300005 00104100000000000000000000018660     
100   35710830406624460000000000019000000000019000002000000010410405120812230009184314410512213214000918   1030000100030000   541110001920777031200000019MOB BANK               YGN           MMR11005120812230009180512000000000000000   10300003 00104100000000000000000000003800     
100   35710500394246330000000000044500000000044500002000000010410405120425120018729448020512213210001872   1030000100030000   541110001907777031200000019MOB BANK               YGN           MMR11005120425120018720512000000000000000   10300005 00104100000000000000000000008900     
100   9503051883865723000000000029490000000029490000200000001041040512101916001531NHDSJQ0512213216001531   1030000100030000   541160000001777031200000006MOB BANK               YGN           MMR11005121019160015310512000000000000000   10300002 00104100000000000000000000058980     
100   62921400045154150000000000054600000000054600002000000010410405120417310008672222220512213210000867   1030000100030000   541110001903777031200000019MOB BANK               YGN           MMR11005120417310008670512000000000000000   10300009 00104100000000000000000000010920     
100   9503051024913846000000000016000000000016000000200000001041040512045348000091YNJMY00512213211000091   1030000100030000   541120002101777031200000021MOB BANK               YGN           MMR11005120453480000910512000000000000000   10300002 00104100000000000000000000032000     
100   35710500333661370000000000023500000000023500002000000010410405120742380001298730600512213214000129   1030000100030000   541120003002777031200000030MOB BANK               YGN           MMR11005120742380001290512000000000000000   10300005 00104100000000000000000000004700     
100   35710830571988390000000000004500000000004500002000000010410405120600020001873520320512213212000187   1030000100030000   541120003013777031200000030MOB BANK               YGN           MMR11005120600020001870512000000000000000   10300003 00104100000000000000000000000900     
100   9503051021445651000000000003200000000003200000200000001041040512080935000349SVZPKN0512213214000349   1030000100030000   541120003008777031200000030MOB BANK               YGN           MMR11005120809350003490512000000000000000   10300002 00104100000000000000000000006400     
100   9503051025001336000000000002550000000002550000200000001041040512083608000552AEAPZV0512213215000552   1030000100030000   541120003103777031200000031MOB BANK               YGN           MMR11005120836080005520512000000000000000   10300002 00104100000000000000000000005100     
100   9503051025001336000000000001530000000001530000200000001041040512084205000554ZQPEWO0512213215000554   1030000100030000   541120003103777031200000031MOB BANK               YGN           MMR11005120842050005540512000000000000000   10300002 00104100000000000000000000003060     
100   35710830155667880000000000036850000000036850002000000010410405121434450007556608700512213221000755   1030000100030000   581210001501777031200000015MOB BANK               YGN           MMR11005121434450007550512000000000000000   10300003 00104100000000000000000000012529     
100   9503190002195545000000000001910000000001910000200000001041040512105054001138O5O2FL0512213217001138   1030000100030000   541120003117777031200000031MOB BANK               YGN           MMR11005121050540011380512000000000000000   10300014 00104100000000000000000000003820     
100   35710500175049500000000000034888000000034888002000000010410405121119280016877657870512213217001687   1030000100030000   541110001905777031200000019MOB BANK               YGN           MMR11005121119280016870512000000000000000   10300005 00104100000000000000000000006978     
100   9503051020055006000000000001400000000001400000200000001041040512083231001897BEZLBR0512213215001897   1030000100030000   541110001907777031200000019MOB BANK               YGN           MMR11005120832310018970512000000000000000   10300002 00104100000000000000000000002800     
100   95030510244810180000000000007154000000007154002000000010410405121013260019000HRLBK0512213216001900   1030000100030000   541110001907777031200000019MOB BANK               YGN           MMR11005121013260019000512000000000000000   10300002 00104100000000000000000000001431     
100   35710500305404520000000000018130000000018130002000000010410405120540160002502139500512213212000250   1030000100030000   541120003005777031200000030MOB BANK               YGN           MMR11005120540160002500512000000000000000   10300005 00104100000000000000000000003626     
100   35710500365403400000000000009745000000009745002000000010410405120857580002511349360512213215000251   1030000100030000   541120003005777031200000030MOB BANK               YGN           MMR11005120857580002510512000000000000000   10300005 00104100000000000000000000001949     
100   35710500310610290000000000018050000000018050002000000010410405120742130003096907930512213214000309   1030000100030000   541120003003777031200000030MOB BANK               YGN           MMR11005120742130003090512000000000000000   10300005 00104100000000000000000000003610     
100   62346600101377980000000000038800000000038800002000000010410405121118260008760622450512213217000876   1030000100030000   541110001903777031200000019MOB BANK               YGN           MMR11005121118260008760512000000000000000   10300005 00104100000000000000000000007760     
100   9503051025493483000000000002600000000002600000200000001041040512084301000871QLMPEE0512213215000871   1030000100030000   541110001903777031200000019MOB BANK               YGN           MMR11005120843010008710512000000000000000   10300002 00104100000000000000000000005200     
100   35710830026494490000000000019000000000019000002000000010410405120547050018833442700512213212001883   1030000100030000   541110001907777031200000019MOB BANK               YGN           MMR11005120547050018830512000000000000000   10300003 00104100000000000000000000003800     
100   35710500124634000000000000120000000000120000002000000010410405120924510008743684980512213215000874   1030000100030000   541110001903777031200000019MOB BANK               YGN           MMR11005120924510008740512000000000000000   10300005 00104100000000000000000000024000     
100   35710500373889700000000000099400000000099400002000000010410405120618210008699557340512213212000869   1030000100030000   541110001903777031200000019MOB BANK               YGN           MMR11005120618210008690512000000000000000   10300005 00104100000000000000000000019880     
100   9503051023885334000000000004790000000004790000200000001041040512044920001043UJWWNZ0512213211001043   1030000100030000   541120003106777031200000031MOB BANK               YGN           MMR11005120449200010430512000000000000000   10300002 00104100000000000000000000009580     
100   9503051025149150000000000003350000000003350000200000001041040512072339001130ACBPMQ0512213213001130   1030000100030000   541120003117777031200000031MOB BANK               YGN           MMR11005120723390011300512000000000000000   10300002 00104100000000000000000000006700     
100   35710830421832840000000000023000000000023000002000000010410405120349580018692740000512213210001869   1030000100030000   541110001907777031200000019MOB BANK               YGN           MMR11005120349580018690512000000000000000   10300003 00104100000000000000000000004600     
100   35710500303198320000000000044715000000044715002000000010410405121029000013917687810512213216001391   1030000100030000   581250000001777031200000005MOB BANK               YGN           MMR11005121029000013910512000000000000000   10300005 00104100000000000000000000015203     
100   9503051887176291000000000002470000000002470000200000001041040512042843001875YDMH6K0512213210001875   1030000100030000   541110001907777031200000019MOB BANK               YGN           MMR11005120428430018750512000000000000000   10300002 00104100000000000000000000004940     
100   35710500382415660000000000024108000000024108002000000010410405120532450016691999200512213212001669   1030000100030000   541110001905777031200000019MOB BANK               YGN           MMR11005120532450016690512000000000000000   10300005 00104100000000000000000000004822     
100   9503051892363041000000000001285000000001285000200000001041040512122246001903Q8LPUF0512213218001903   1030000100030000   541110001907777031200000019MOB BANK               YGN           MMR11005121222460019030512000000000000000   10300002 00104100000000000000000000002570     
100   62346600137476430000000000046900000000046900002000000010410405120524540002716185120512213211000271   1030000100030000   541120003001777031200000030MOB BANK               YGN           MMR11005120524540002710512000000000000000   10300005 00104100000000000000000000009380     
100   9503051024224095000000000002050000000002050000200000001041040512043118001037MCZGJZ0512213211001037   1030000100030000   541120003106777031200000031MOB BANK               YGN           MMR11005120431180010370512000000000000000   10300002 00104100000000000000000000004100     
100   35710830077294770000000000008402000000008402002000000010410405121150230002575622500512213218000257   1030000100030000   541120003005777031200000030MOB BANK               YGN           MMR11005121150230002570512000000000000000   10300003 00104100000000000000000000001680     
100   9503051891978690000000000001440000000001440000200000001041040512091020000252KQSOUL0512213215000252   1030000100030000   541120003005777031200000030MOB BANK               YGN           MMR11005120910200002520512000000000000000   10300002 00104100000000000000000000002880     
100   35710500375048320000000000121079000000121079002000000010410405120630300018869818350512213213001886   1030000100030000   541110001907777031200000019MOB BANK               YGN           MMR11005120630300018860512000000000000000   10300005 00104100000000000000000000024216     
100   35710500375685140000000000036190000000036190002000000010410405120748420007542156320512213214000754   1030000100030000   581210001501777031200000015MOB BANK               YGN           MMR11005120748420007540512000000000000000   10300005 00104100000000000000000000012305     
100   9503051023885334000000000000800000000000800000200000001041040512045138001046EWOZDW0512213211001046   1030000100030000   541120003106777031200000031MOB BANK               YGN           MMR11005120451380010460512000000000000000   10300002 00104100000000000000000000001600     
100   35710500373889700000000000023000000000023000002000000010410405120630400009164860890512213213000916   1030000100030000   541110001920777031200000019MOB BANK               YGN           MMR11005120630400009160512000000000000000   10300005 00104100000000000000000000004600     
100   35710500111430600000000000017490000000017490002000000010410405121104080013930290140512213217001393   1030000100030000   581250000001777031200000005MOB BANK               YGN           MMR11005121104080013930512000000000000000   10300005 00104100000000000000000000005947     
100   35710830542035740000000000025800000000025800002000000010410405121201490008785691010512213218000878   1030000100030000   541110001903777031200000019MOB BANK               YGN           MMR11005121201490008780512000000000000000   10300003 00104100000000000000000000005160     
100   95031900004779520000000000011564000000011564002000000010410405121135270016907RFJZ00512213218001690   1030000100030000   541110001905777031200000019MOB BANK               YGN           MMR11005121135270016900512000000000000000   10300014 00104100000000000000000000002313     
100   35710500375048320000000000011000000000011000002000000010410405120638170018886974510512213213001888   1030000100030000   541110001907777031200000019MOB BANK               YGN           MMR11005120638170018880512000000000000000   10300005 00104100000000000000000000002200     
100   62921400045154150000000000015800000000015800002000000010410405120433500018782222220512213211001878   1030000100030000   541110001907777031200000019MOB BANK               YGN           MMR11005120433500018780512000000000000000   10300009 00104100000000000000000000003160     
100   35710830851074890000000000017000000000017000002000000010410405120848050000594528720512213215000059   1030000100030000   541180000001777031200000008MOB BANK               YGN           MMR11005120848050000590512000000000000000   10300003 00104100000000000000000000003400     
100   35710500393380070000000000004957000000004957002000000010410405121055210001913133970512213217000191   1030000100030000   541120003013777031200000030MOB BANK               YGN           MMR11005121055210001910512000000000000000   10300005 00104100000000000000000000000992     
100   9503051891315323000000000001285000000001285000200000001041040512042229000550ZQCMJW0512213210000550   1030000100030000   541120003103777031200000031MOB BANK               YGN           MMR11005120422290005500512000000000000000   10300002 00104100000000000000000000002570     
100   35710830631454100000000000013642000000013642002000000010410405120612240002723594520512213212000272   1030000100030000   541120003001777031200000030MOB BANK               YGN           MMR11005120612240002720512000000000000000   10300003 00104100000000000000000000002728     
100   9503051025644440000000000002495000000002495000200000001041040512095909001135Z6EZYI0512213216001135   1030000100030000   541120003117777031200000031MOB BANK               YGN           MMR11005120959090011350512000000000000000   10300002 00104100000000000000000000004990     
100   9503051024224095000000000000200000000000200000200000001041040512045715001120XPDXIH0512213211001120   1030000100030000   541120003117777031200000031MOB BANK               YGN           MMR11005120457150011200512000000000000000   10300002 00104100000000000000000000000400     
100   9503051024943280000000000003900000000003900000200000001041040512080903001891BM2AAA0512213214001891   1030000100030000   541110001907777031200000019MOB BANK               YGN           MMR11005120809030018910512000000000000000   10300002 00104100000000000000000000007800     
100   9503051887176291000000000019500000000019500000200000001041040512043809001881IQJGBN0512213211001881   1030000100030000   541110001907777031200000019MOB BANK               YGN           MMR11005120438090018810512000000000000000   10300002 00104100000000000000000000039000     
100   9503051025796786000000000025500000000025500000200000001041040512060733000108PFQ0AD0512213212000108   1030000100030000   541120000010777031200000002MOB BANK               YGN           MMR11005120607330001080512000000000000000   10300002 00104100000000000000000000051000     
100   35710500121084760000000000001600000000001600002000000010410405120822470003132820940512213214000313   1030000100030000   541120003003777031200000030MOB BANK               YGN           MMR11005120822470003130512000000000000000   10300005 00104100000000000000000000000320     
100   9503051024606275000000000001980000000001980000200000001041040512070438001062A2EDBP0512213213001062   1030000100030000   541120003106777031200000031MOB BANK               YGN           MMR11005120704380010620512000000000000000   10300002 00104100000000000000000000003960     
100   9503190004792851000000000005750000000005750000200000001041040512061337001124A5N39F0512213212001124   1030000100030000   541120003117777031200000031MOB BANK               YGN           MMR11005120613370011240512000000000000000   10300014 00104100000000000000000000011500     
100   35710830149543810000000000034900000000034900002000000010410405120536490010583381110512213212001058   1030000100030000   541120003106777031200000031MOB BANK               YGN           MMR11005120536490010580512000000000000000   10300003 00104100000000000000000000006980     
100   35710830831906020000000000015500000000015500002000000010410405120846170000584517810512213215000058   1030000100030000   541180000001777031200000008MOB BANK               YGN           MMR11005120846170000580512000000000000000   10300003 00104100000000000000000000003100     
100   950305102508090000000000000098980000000098980020000000104104051210144300025698VYQA0512213216000256   1030000100030000   541120003005777031200000030MOB BANK               YGN           MMR11005121014430002560512000000000000000   10300002 00104100000000000000000000001980     
100   35710830026494490000000000155300000000155300002000000010410405120656070016763856910512213213001676   1030000100030000   541110001905777031200000019MOB BANK               YGN           MMR11005120656070016760512000000000000000   10300003 00104100000000000000000000031060     
100   9503051024283174000000000000310000000000310000200000001041040512082823001894YZJNHV0512213214001894   1030000100030000   541110001907777031200000019MOB BANK               YGN           MMR11005120828230018940512000000000000000   10300002 00104100000000000000000000000620     
