100   35710500343118500000000000008750000000008750002000000010410405291001240004153541790529214916000415   1030000100030000   541120003005777031200000030MOB BANK               YGN           MMR11005291001240004150529000000000000000   10300005 00104100000000000000000000001750     
100   9503051893819967000000000005907000000005907000200000001041040529092253001482NC4ZB10529214915001482   1030000100030000   581250000001777031200000005MOB BANK               YGN           MMR11005290922530014820529000000000000000   10300002 00104100000000000000000000020084     
100   35710500360350930000000000031150000000031150002000000010410405290737550014537349270529214914001453   1030000100030000   541120003117777031200000031MOB BANK               YGN           MMR11005290737550014530529000000000000000   10300005 00104100000000000000000000006230     
100   62622000796837650000000000003700000000003700002000000010410405291217190004306852530529214918000430   1030000100030000   541120003005777031200000030MOB BANK               YGN           MMR11005291217190004300529000000000000000   10300006 00104100000000000000000000000740     
100   62921400077052780000000000016500000000016500002000000010410405290357510004002222220529214910000400   1030000100030000   541120003005777031200000030MOB BANK               YGN           MMR11005290357510004000529000000000000000   10300009 00104100000000000000000000003300     
100   95030518732388650000000000028800000000028800002000000010410405290504050006614BEBYC0529214911000661   1030000100030000   541120003103777031200000031MOB BANK               YGN           MMR11005290504050006610529000000000000000   10300002 00104100000000000000000000005760     
100   35710950349193840000000000019360000000019360002000000010410405291224550014872709800529214918001487   1030000100030000   581250000001777031200000005MOB BANK               YGN           MMR11005291224550014870529000000000000000   10300003 00104100000000000000000000006582     
100   35710500365402580000000000006000000000006000002000000010410405290806120014569921660529214914001456   1030000100030000   541120003117777031200000031MOB BANK               YGN           MMR11005290806120014560529000000000000000   10300005 00104100000000000000000000001200     
100   9503051893224895000000000003218000000003218000200000001041040529072128000267G6YTZB0529214913000267   1030000100030000   541120003002777031200000030MOB BANK               YGN           MMR11005290721280002670529000000000000000   10300002 00104100000000000000000000006436     
100   9503051885866943000000000001200000000001200000200000001041040529102229000268PMFFXS0529214916000268   1030000100030000   541120003002777031200000030MOB BANK               YGN           MMR11005291022290002680529000000000000000   10300002 00104100000000000000000000002400     
100   35710830100058080000000000006800000000006800002000000010410405290353530002629643410529214910000262   1030000100030000   541120003002777031200000030MOB BANK               YGN           MMR11005290353530002620529000000000000000   10300003 00104100000000000000000000001360     
100   35710900193227870000000000050500000000050500002000000010410405291035490005822055100529214917000582   1030000100030000   541120003008777031200000030MOB BANK               YGN           MMR11005291035490005820529000000000000000   10300003 00104100000000000000000000010100     
100   950305102574130300000000000118250000000118250020000000104104052908394500147904RTFH0529214915001479   1030000100030000   581250000001777031200000005MOB BANK               YGN           MMR11005290839450014790529000000000000000   10300002 00104100000000000000000000004020     
100   9503051025228483000000000006060000000006060000200000001041040529104152000444L5NZFN0529214917000444   1030000100030000   541120003111777031200000031MOB BANK               YGN           MMR11005291041520004440529000000000000000   10300002 00104100000000000000000000012120     
100   35710830829028090000000000009163000000009163002000000010410405291157250004222544610529214918000422   1030000100030000   541120003005777031200000030MOB BANK               YGN           MMR11005291157250004220529000000000000000   10300003 00104100000000000000000000001833     
100   35710830077294770000000000017836000000017836002000000010410405290656080004090737010529214913000409   1030000100030000   541120003005777031200000030MOB BANK               YGN           MMR11005290656080004090529000000000000000   10300003 00104100000000000000000000003567     
100   35710500390132950000000000017500000000017500002000000010410405290429540004029158920529214910000402   1030000100030000   541120003005777031200000030MOB BANK               YGN           MMR11005290429540004020529000000000000000   10300005 00104100000000000000000000003500     
100   9503051873718296000000000003080000000003080000200000001041040529075019000663REAHWK0529214914000663   1030000100030000   541120003103777031200000031MOB BANK               YGN           MMR11005290750190006630529000000000000000   10300002 00104100000000000000000000006160     
100   9503051026344966000000000090000000000090000000200000001041040529052426000102FSPMYY0529214911000102   1030000100030000   541120002101777031200000021MOB BANK               YGN           MMR11005290524260001020529000000000000000   10300002 00104100000000000000000000180000     
100   35710500344025840000000000020500000000020500002000000010410405291031500002692051800529214917000269   1030000100030000   541120003002777031200000030MOB BANK               YGN           MMR11005291031500002690529000000000000000   10300005 00104100000000000000000000004100     
100   9503051025948254000000000001529400000001529400200000001041040529043149000263QQ2NDB0529214911000263   1030000100030000   541120003002777031200000030MOB BANK               YGN           MMR11005290431490002630529000000000000000   10300002 00104100000000000000000000003059     
100   35710830017335250000000000014000000000014000002000000010410405290453380002640001910529214911000264   1030000100030000   541120003002777031200000030MOB BANK               YGN           MMR11005290453380002640529000000000000000   10300003 00104100000000000000000000002800     
100   9503051886611595000000000001960000000001960000200000001041040529075254000578EBJBTA0529214914000578   1030000100030000   541120003008777031200000030MOB BANK               YGN           MMR11005290752540005780529000000000000000   10300002 00104100000000000000000000003920     
100   9503051886690177000000000001328400000001328400200000001041040529103954000584FS6M5J0529214917000584   1030000100030000   541120003008777031200000030MOB BANK               YGN           MMR11005291039540005840529000000000000000   10300002 00104100000000000000000000002657     
100   62622000420775820000000000039400000000039400002000000010410405290841280014626123370529214915001462   1030000100030000   541120003117777031200000031MOB BANK               YGN           MMR11005290841280014620529000000000000000   10300006 00104100000000000000000000007880     
100   35710830400882950000000000008690000000008690002000000010410405290939350014831717700529214916001483   1030000100030000   581250000001777031200000005MOB BANK               YGN           MMR11005290939350014830529000000000000000   10300003 00104100000000000000000000002955     
100   9503051026323960000000000001072500000001072500200000001041040529112520001485WANUQ30529214917001485   1030000100030000   581250000001777031200000005MOB BANK               YGN           MMR11005291125200014850529000000000000000   10300002 00104100000000000000000000003646     
100   35710830894018470000000000017875000000017875002000000010410405291148520014862493410529214918001486   1030000100030000   581250000001777031200000005MOB BANK               YGN           MMR11005291148520014860529000000000000000   10300003 00104100000000000000000000006078     
100   9503051893363743000000000000300000000000300000200000001041040529111204000417OTYXY90529214917000417   1030000100030000   541120003005777031200000030MOB BANK               YGN           MMR11005291112040004170529000000000000000   10300002 00104100000000000000000000000600     
100   9503051025694957000000000000563500000000563500200000001041040529112815000419K8IXF40529214917000419   1030000100030000   541120003005777031200000030MOB BANK               YGN           MMR11005291128150004190529000000000000000   10300002 00104100000000000000000000001127     
100   9503051024857803000000000003421000000003421000200000001041040529140219000865CWJJCS0529214920000865   1030000100030000   581210001501777031200000015MOB BANK               YGN           MMR11005291402190008650529000000000000000   10300002 00104100000000000000000000011632     
100   35710500355663460000000000010000000000010000002000000010410405290938070014668180720529214916001466   1030000100030000   541120003117777031200000031MOB BANK               YGN           MMR11005290938070014660529000000000000000   10300005 00104100000000000000000000002000     
100   35710500360350930000000000018000000000018000002000000010410405290649290005139875570529214913000513   1030000100030000   541120003104777031200000031MOB BANK               YGN           MMR11005290649290005130529000000000000000   10300005 00104100000000000000000000003600     
100   95030518933637430000000000012650000000012650002000000010410405291102020005862VANYC0529214917000586   1030000100030000   541120003008777031200000030MOB BANK               YGN           MMR11005291102020005860529000000000000000   10300002 00104100000000000000000000002530     
100   35710500393921940000000000022000000000022000002000000010410405290941210014702493060529214916001470   1030000100030000   541120003117777031200000031MOB BANK               YGN           MMR11005290941210014700529000000000000000   10300005 00104100000000000000000000004400     
100   35710500390132950000000000026350000000026350002000000010410405290410380003503443680529214910000350   1030000100030000   541120003001777031200000030MOB BANK               YGN           MMR11005290410380003500529000000000000000   10300005 00104100000000000000000000005270     
100   35710830407767250000000000061000000000061000002000000010410405291013420004421922410529214916000442   1030000100030000   541120003111777031200000031MOB BANK               YGN           MMR11005291013420004420529000000000000000   10300003 00104100000000000000000000012200     
100   950305102563284100000000000374500000000374500020000000104104052912015000042627LBRJ0529214918000426   1030000100030000   541120003005777031200000030MOB BANK               YGN           MMR11005291201500004260529000000000000000   10300002 00104100000000000000000000007490     
100   9503051892501863000000000002300000000002300000200000001041040529041757000509FIT6CW0529214910000509   1030000100030000   541120003104777031200000031MOB BANK               YGN           MMR11005290417570005090529000000000000000   10300002 00104100000000000000000000004600     
100   35710830509685270000000000006300000000006300002000000010410405291001450005161850610529214916000516   1030000100030000   541120003104777031200000031MOB BANK               YGN           MMR11005291001450005160529000000000000000   10300003 00104100000000000000000000001260     
100   9503051024996114000000000000166600000000166600200000001041040529081726000412VCWYQC0529214914000412   1030000100030000   541120003005777031200000030MOB BANK               YGN           MMR11005290817260004120529000000000000000   10300002 00104100000000000000000000000333     
100   35710500111717150000000000006800000000006800002000000010410405290949090014734612400529214916001473   1030000100030000   541120003117777031200000031MOB BANK               YGN           MMR11005290949090014730529000000000000000   10300005 00104100000000000000000000001360     
100   9503051024045326000000000027750000000027750000200000001041040529105913001638TAU9EY0529214917001638   1030000100030000   541160000001777031200000006MOB BANK               YGN           MMR11005291059130016380529000000000000000   10300002 00104100000000000000000000055500     
100   35710500343118500000000000015400000000015400002000000010410405290952090002977030750529214916000297   1030000100030000   541120003013777031200000030MOB BANK               YGN           MMR11005290952090002970529000000000000000   10300005 00104100000000000000000000003080     
100   9503051022667261000000000002100000000002100000200000001041040529102344000443BLEMYK0529214916000443   1030000100030000   541120003111777031200000031MOB BANK               YGN           MMR11005291023440004430529000000000000000   10300002 00104100000000000000000000004200     
100   35710500162281480000000000031500000000031500002000000010410405291149450004457238100529214918000445   1030000100030000   541120003111777031200000031MOB BANK               YGN           MMR11005291149450004450529000000000000000   10300005 00104100000000000000000000006300     
100   35710830017335250000000000015150000000015150002000000010410405290530050004040220710529214912000404   1030000100030000   541120003005777031200000030MOB BANK               YGN           MMR11005290530050004040529000000000000000   10300003 00104100000000000000000000003030     
100   35710900375825860000000000013500000000013500002000000010410405290704200005760786110529214913000576   1030000100030000   541120003008777031200000030MOB BANK               YGN           MMR11005290704200005760529000000000000000   10300003 00104100000000000000000000002700     
100   9503051893224895000000000003960000000003960000200000001041040529072328000351EGZK6A0529214913000351   1030000100030000   541120003001777031200000030MOB BANK               YGN           MMR11005290723280003510529000000000000000   10300002 00104100000000000000000000007920     
100   62622000774817580000000000020716000000020716002000000010410405291215340004286852510529214918000428   1030000100030000   541120003005777031200000030MOB BANK               YGN           MMR11005291215340004280529000000000000000   10300006 00104100000000000000000000004143     
100   35710830822234610000000000064800000000064800002000000010410405290933340006651681600529214916000665   1030000100030000   541120003103777031200000031MOB BANK               YGN           MMR11005290933340006650529000000000000000   10300003 00104100000000000000000000012960     
100   9503051025571650000000000026190000000026190000200000001041040529092804001632NMBVPI0529214915001632   1030000100030000   541160000001777031200000006MOB BANK               YGN           MMR11005290928040016320529000000000000000   10300002 00104100000000000000000000052380     
100   9503190002437186000000000001573000000001573000200000001041040529085114001480U38LFM0529214915001480   1030000100030000   581250000001777031200000005MOB BANK               YGN           MMR11005290851140014800529000000000000000   10300014 00104100000000000000000000005348     
100   95031900020429520000000000042000000000042000002000000010410405291242070014810Y009W0529214919001481   1030000100030000   541120003117777031200000031MOB BANK               YGN           MMR11005291242070014810529000000000000000   10300014 00104100000000000000000000008400     
100   35710830100058080000000000019000000000019000002000000010410405290450110014479981210529214911001447   1030000100030000   541120003117777031200000031MOB BANK               YGN           MMR11005290450110014470529000000000000000   10300003 00104100000000000000000000003800     
100   9503051024958171000000000021243000000021243000200000001041040529103725001635WJMG4F0529214917001635   1030000100030000   541160000001777031200000006MOB BANK               YGN           MMR11005291037250016350529000000000000000   10300002 00104100000000000000000000042486     
100   9503051895350797000000000016860000000016860000200000001041040529121301001642UQDY3W0529214918001642   1030000100030000   541160000001777031200000006MOB BANK               YGN           MMR11005291213010016420529000000000000000   10300002 00104100000000000000000000033720     
100   9503051024996114000000000001080000000001080000200000001041040529080317000352RE1XO00529214914000352   1030000100030000   541120003001777031200000030MOB BANK               YGN           MMR11005290803170003520529000000000000000   10300002 00104100000000000000000000002160     
100   35710500373197360000000000039000000000039000002000000010410405290806350004413056440529214914000441   1030000100030000   541120003111777031200000031MOB BANK               YGN           MMR11005290806350004410529000000000000000   10300005 00104100000000000000000000007800     
100   62346600196677120000000000008850000000008850002000000010410405290817270005803212830529214914000580   1030000100030000   541120003008777031200000030MOB BANK               YGN           MMR11005290817270005800529000000000000000   10300005 00104100000000000000000000001770     
100   35710950619452860000000000021285000000021285002000000010410405290909550014811539700529214915001481   1030000100030000   581250000001777031200000005MOB BANK               YGN           MMR11005290909550014810529000000000000000   10300003 00104100000000000000000000007237     
100   35710830065123530000000000015840000000015840002000000010410405290522390014500176110529214911001450   1030000100030000   541120003117777031200000031MOB BANK               YGN           MMR11005290522390014500529000000000000000   10300003 00104100000000000000000000003168     
100   35710500365448620000000000004160000000004160002000000010410405290657240002664053370529214913000266   1030000100030000   541120003002777031200000030MOB BANK               YGN           MMR11005290657240002660529000000000000000   10300005 00104100000000000000000000000832     
100   9503051026081311000000000002431000000002431000200000001041040529102328001484KDHN9F0529214916001484   1030000100030000   581250000001777031200000005MOB BANK               YGN           MMR11005291023280014840529000000000000000   10300002 00104100000000000000000000008266     
100   35710500324423010000000000008800000000008800002000000010410405290838480014786240650529214915001478   1030000100030000   581250000001777031200000005MOB BANK               YGN           MMR11005290838480014780529000000000000000   10300005 00104100000000000000000000002992     
