100   9503051025770716000000000001490000000001490000200000001041040526103545001412GMSDIR0526214617001412   1030000100030000   541120003117777031200000031MOB BANK               YGN           MMR11005261035450014120526000000000000000   10300002 00104100000000000000000000002980     
100   62622000226252440000000000000931000000000931002000000010410405261106500003826128010526214617000382   1030000100030000   541120003005777031200000030MOB BANK               YGN           MMR11005261106500003820526000000000000000   10300006 00104100000000000000000000000186     
100   9503051892165578000000000003302600000003302600200000001041040526051233000551MKCC4Z0526214611000551   1030000100030000   541120003008777031200000030MOB BANK               YGN           MMR11005260512330005510526000000000000000   10300002 00104100000000000000000000006605     
100   95030800057960780000000000013600000000013600002000000010410405260532070005534312910526214612000553   1030000100030000   541120003008777031200000030MOB BANK               YGN           MMR11005260532070005530526000000000000000   10300003 00104100000000000000000000002720     
100   35710950443899250000000000015300000000015300002000000010410405260659050011564834700526214613001156   1030000100030000   541110001920777031200000019MOB BANK               YGN           MMR11005260659050011560526000000000000000   10300003 00104100000000000000000000003060     
100   35710500131426070000000000019200000000019200002000000010410405260643240014055156360526214613001405   1030000100030000   541120003117777031200000031MOB BANK               YGN           MMR11005260643240014050526000000000000000   10300005 00104100000000000000000000003840     
100   35710830654633730000000000107880000000107880002000000010410405260828160025555369710526214614002555   1030000100030000   541110001907777031200000019MOB BANK               YGN           MMR11005260828160025550526000000000000000   10300003 00104100000000000000000000021576     
100   35710500142809500000000000001000000000001000002000000010410405260428210000164324670526214610000016   1030000100030000   541110900002777030900000002MOB BANK               YGN           MMR11005260428210000160526000000000000000   10300005 00104100000000000000000000000200     
100   95030510262462600000000000008800000000008800002000000010410405260815230014593ECAO30526214614001459   1030000100030000   581250000001777031200000005MOB BANK               YGN           MMR11005260815230014590526000000000000000   10300002 00104100000000000000000000002992     
100   9503051887956775000000000000770000000000770000200000001041040526092847001460N42QEB0526214615001460   1030000100030000   581250000001777031200000005MOB BANK               YGN           MMR11005260928470014600526000000000000000   10300002 00104100000000000000000000002618     
100   35710830004162960000000000021300000000021300002000000010410405260535100013984331110526214612001398   1030000100030000   541120003117777031200000031MOB BANK               YGN           MMR11005260535100013980526000000000000000   10300003 00104100000000000000000000004260     
100   9503051894516711000000000008650000000008650000200000001041040526100502002566PHTSVQ0526214616002566   1030000100030000   541110001907777031200000019MOB BANK               YGN           MMR11005261005020025660526000000000000000   10300002 00104100000000000000000000017300     
100   9503051025332814000000000000760500000000760500200000001041040526110418002570OFVU2Y0526214617002570   1030000100030000   541110001907777031200000019MOB BANK               YGN           MMR11005261104180025700526000000000000000   10300002 00104100000000000000000000001521     
100   35710500313992470000000000016500000000016500002000000010410405260316480002325238990526214609000232   1030000100030000   541120003002777031200000030MOB BANK               YGN           MMR11005260316480002320526000000000000000   10300005 00104100000000000000000000003300     
100   9503051025843976000000000002815000000002815000200000001041040526065448000237K1H99E0526214613000237   1030000100030000   541120003002777031200000030MOB BANK               YGN           MMR11005260654480002370526000000000000000   10300002 00104100000000000000000000005630     
100   9503051895812606000000000000900000000000900000200000001041040526102038000557J3IWJT0526214616000557   1030000100030000   541120003008777031200000030MOB BANK               YGN           MMR11005261020380005570526000000000000000   10300002 00104100000000000000000000001800     
100   9503051024185924000000000002880000000002880000200000001041040526110905001283XDL5PG0526214617001283   1030000100030000   541110001903777031200000019MOB BANK               YGN           MMR11005261109050012830526000000000000000   10300002 00104100000000000000000000005760     
100   35710500334417990000000000014400000000014400002000000010410405261149120014158018010526214618001415   1030000100030000   541120003117777031200000031MOB BANK               YGN           MMR11005261149120014150526000000000000000   10300005 00104100000000000000000000002880     
100   9503051022938662000000000001668000000001668000200000001041040526101251001160RWPCQZ0526214616001160   1030000100030000   541110001920777031200000019MOB BANK               YGN           MMR11005261012510011600526000000000000000   10300002 00104100000000000000000000003336     
100   95030800000535250000000000015750000000015750002000000010410405260935250014615772610526214616001461   1030000100030000   581250000001777031200000005MOB BANK               YGN           MMR11005260935250014610526000000000000000   10300003 00104100000000000000000000005355     
100   35710830722276880000000000005197000000005197002000000010410405250501050014565486700525214511001456   1030000100030000   581250000001777031200000005MOB BANK               YGN           MMR11005250501050014560525000000000000000   10300003 00104100000000000000000000001767     
100   62343302003921610000000000013035000000013035002000000010410405250809050014579072090525214514001457   1030000100030000   581250000001777031200000005MOB BANK               YGN           MMR11005250809050014570525000000000000000   10300004 00104100000000000000000000004432     
100   62622000119311240000000000012600000000012600002000000010410405261120240002926078170526214617000292   1030000100030000   541120003013777031200000030MOB BANK               YGN           MMR11005261120240002920526000000000000000   10300006 00104100000000000000000000002520     
100   9503051887191076000000000000661500000000661500200000001041040526110914000383ULOF7E0526214617000383   1030000100030000   541120003005777031200000030MOB BANK               YGN           MMR11005261109140003830526000000000000000   10300002 00104100000000000000000000001323     
100   35710500383331320000000000010290000000010290002000000010410405261236200011713947170526214619001171   1030000100030000   541110001920777031200000019MOB BANK               YGN           MMR11005261236200011710526000000000000000   10300005 00104100000000000000000000002058     
100   95030518923958110000000000012980000000012980002000000010410405260958240014629YUTGS0526214616001462   1030000100030000   581250000001777031200000005MOB BANK               YGN           MMR11005260958240014620526000000000000000   10300002 00104100000000000000000000004413     
100   9503051891810703000000000002900000000002900000200000001041040526083206002557FUEGEV0526214615002557   1030000100030000   541110001907777031200000019MOB BANK               YGN           MMR11005260832060025570526000000000000000   10300002 00104100000000000000000000005800     
100   35710830909569790000000000060000000000060000002000000010410405260900240025615562600526214615002561   1030000100030000   541110001907777031200000019MOB BANK               YGN           MMR11005260900240025610526000000000000000   10300003 00104100000000000000000000012000     
100   62343302001509320000000000009500000000009500002000000010410405260732500002455845250526214614000245   1030000100030000   541120003002777031200000030MOB BANK               YGN           MMR11005260732500002450526000000000000000   10300004 00104100000000000000000000001900     
100   9503051883850345000000000002200000000002200000200000001041040526073646000337RFLLF00526214614000337   1030000100030000   541120003001777031200000030MOB BANK               YGN           MMR11005260736460003370526000000000000000   10300002 00104100000000000000000000004400     
100   35710500335637170000000000050000000000050000002000000010410405260736520012614651500526214614001261   1030000100030000   541110001903777031200000019MOB BANK               YGN           MMR11005260736520012610526000000000000000   10300005 00104100000000000000000000010000     
100   62346600133149150000000000030800000000030800002000000010410405260819240012738662130526214614001273   1030000100030000   541110001903777031200000019MOB BANK               YGN           MMR11005260819240012730526000000000000000   10300005 00104100000000000000000000006160     
100   35710500192244900000000000013000000000013000002000000010410405261228360002930252380526214618000293   1030000100030000   541120003013777031200000030MOB BANK               YGN           MMR11005261228360002930526000000000000000   10300005 00104100000000000000000000002600     
100   35710500344793350000000000022390000000022390002000000010410405261137450003845483310526214618000384   1030000100030000   541120003005777031200000030MOB BANK               YGN           MMR11005261137450003840526000000000000000   10300005 00104100000000000000000000004478     
100   95031100015278520000000000012150000000012150002000000010410405260959300004806127930526214616000480   1030000100030000   541120003003777031200000030MOB BANK               YGN           MMR11005260959300004800526000000000000000   10300006 00104100000000000000000000002430     
100   95030510233013240000000000011700000000011700002000000010410405261233390005599CJDWT0526214619000559   1030000100030000   541120003008777031200000030MOB BANK               YGN           MMR11005261233390005590526000000000000000   10300002 00104100000000000000000000002340     
100   35710950443899250000000000003150000000003150002000000010410405260718200011584950200526214613001158   1030000100030000   541110001920777031200000019MOB BANK               YGN           MMR11005260718200011580526000000000000000   10300003 00104100000000000000000000000630     
100   35710500153159200000000000049800000000049800002000000010410405260913130025639364100526214615002563   1030000100030000   541110001907777031200000019MOB BANK               YGN           MMR11005260913130025630526000000000000000   10300005 00104100000000000000000000009960     
100   9503051872448531000000000002990000000002990000200000001041040526044418000287ETFS2G0526214611000287   1030000100030000   541120003013777031200000030MOB BANK               YGN           MMR11005260444180002870526000000000000000   10300002 00104100000000000000000000005980     
100   9503051023301324000000000000720000000000720000200000001041040526123830000248HPDOSG0526214619000248   1030000100030000   541120003002777031200000030MOB BANK               YGN           MMR11005261238300002480526000000000000000   10300002 00104100000000000000000000001440     
100   95030510253768780000000000020290000000020290002000000010410405261053420011623TXJGU0526214617001162   1030000100030000   541110001920777031200000019MOB BANK               YGN           MMR11005261053420011620526000000000000000   10300002 00104100000000000000000000004058     
100   9503051893774071000000000000635300000000635300200000001041040526113816001165RDUFRK0526214618001165   1030000100030000   541110001920777031200000019MOB BANK               YGN           MMR11005261138160011650526000000000000000   10300002 00104100000000000000000000001271     
100   9503190000947996000000000001780000000001780000200000001041040526093534001275MDQHM50526214616001275   1030000100030000   541110001903777031200000019MOB BANK               YGN           MMR11005260935340012750526000000000000000   10300014 00104100000000000000000000003560     
100   35710830954714380000000000033500000000033500002000000010410405260952190012785874100526214616001278   1030000100030000   541110001903777031200000019MOB BANK               YGN           MMR11005260952190012780526000000000000000   10300003 00104100000000000000000000006700     
100   9503051894516711000000000003080000000003080000200000001041040526101652001281OGHJ9K0526214616001281   1030000100030000   541110001903777031200000019MOB BANK               YGN           MMR11005261016520012810526000000000000000   10300002 00104100000000000000000000006160     
100   9503051025546959000000000003490000000003490000200000001041040526120708001285YGIWUT0526214618001285   1030000100030000   541110001903777031200000019MOB BANK               YGN           MMR11005261207080012850526000000000000000   10300002 00104100000000000000000000006980     
100   9503051889621021000000000011060800000011060800200000001041040526063816001613C6JFYB0526214613001613   1030000100030000   541160000001777031200000006MOB BANK               YGN           MMR11005260638160016130526000000000000000   10300002 00104100000000000000000000022122     
100   35710830355888380000000000048445000000048445002000000010410405261143360025736541810526214618002573   1030000100030000   541110001907777031200000019MOB BANK               YGN           MMR11005261143360025730526000000000000000   10300003 00104100000000000000000000009689     
100   9503051024854560000000000002842000000002842000200000001041040526045735002546M0OLHA0526214611002546   1030000100030000   541110001907777031200000019MOB BANK               YGN           MMR11005260457350025460526000000000000000   10300002 00104100000000000000000000005684     
100   9503051025284593000000000001550000000001550000200000001041040526033211000234LCMXBY0526214610000234   1030000100030000   541120003002777031200000030MOB BANK               YGN           MMR11005260332110002340526000000000000000   10300002 00104100000000000000000000003100     
100   35710830261732850000000000007050000000007050002000000010410405261031240004826108600526214617000482   1030000100030000   541120003003777031200000030MOB BANK               YGN           MMR11005261031240004820526000000000000000   10300003 00104100000000000000000000001410     
100   95031202100082630000000000032500000000032500002000000010410405260334300006472222220526214610000647   1030000100030000   541120003103777031200000031MOB BANK               YGN           MMR11005260334300006470526000000000000000   10300009 00104100000000000000000000006500     
100   9503051885483558000000000002550000000002550000200000001041040526051456001258WFVQXL0526214611001258   1030000100030000   541110001903777031200000019MOB BANK               YGN           MMR11005260514560012580526000000000000000   10300002 00104100000000000000000000005100     
100   35710830355888380000000000028275000000028275002000000010410405261220360011676763710526214618001167   1030000100030000   541110001920777031200000019MOB BANK               YGN           MMR11005261220360011670526000000000000000   10300003 00104100000000000000000000005655     
100   35710500183513510000000000021000000000021000002000000010410405261144370025757131390526214618002575   1030000100030000   541110001907777031200000019MOB BANK               YGN           MMR11005261144370025750526000000000000000   10300005 00104100000000000000000000004200     
100   35710500314739350000000000010410000000010410002000000010410405260727310002408807430526214613000240   1030000100030000   541120003002777031200000030MOB BANK               YGN           MMR11005260727310002400526000000000000000   10300005 00104100000000000000000000002082     
100   95030800057960780000000000025200000000025200002000000010410405260523490002884263110526214611000288   1030000100030000   541120003013777031200000030MOB BANK               YGN           MMR11005260523490002880526000000000000000   10300003 00104100000000000000000000005040     
100   9503051895590319000000000016310000000016310000200000001041040526035646002543PY5EGR0526214610002543   1030000100030000   541110001907777031200000019MOB BANK               YGN           MMR11005260356460025430526000000000000000   10300002 00104100000000000000000000032620     
100   35710500383331320000000000013916000000013916002000000010410405261248580025799650760526214619002579   1030000100030000   541110001907777031200000019MOB BANK               YGN           MMR11005261248580025790526000000000000000   10300005 00104100000000000000000000002783     
100   9503051025967494000000000012900000000012900000200000001041040526102039001616UE3MVR0526214616001616   1030000100030000   541160000001777031200000006MOB BANK               YGN           MMR11005261020390016160526000000000000000   10300002 00104100000000000000000000025800     
100   9503051884287976000000000006845000000006845000200000001041040526071512002548VPRXZH0526214613002548   1030000100030000   541110001907777031200000019MOB BANK               YGN           MMR11005260715120025480526000000000000000   10300002 00104100000000000000000000013690     
100   35710500313992470000000000032200000000032200002000000010410405260353410005470000920526214610000547   1030000100030000   541120003008777031200000030MOB BANK               YGN           MMR11005260353410005470526000000000000000   10300005 00104100000000000000000000006440     
100   9503051872448531000000000000630000000000630000200000001041040526042324000549ENX4S40526214610000549   1030000100030000   541120003008777031200000030MOB BANK               YGN           MMR11005260423240005490526000000000000000   10300002 00104100000000000000000000001260     
100   35710500335637170000000000038800000000038800002000000010410405260745220012638434410526214614001263   1030000100030000   541110001903777031200000019MOB BANK               YGN           MMR11005260745220012630526000000000000000   10300005 00104100000000000000000000007760     
100   9503051886046651000000000000400000000000400000200000001041040526073346001408KIOHWD0526214614001408   1030000100030000   541120003117777031200000031MOB BANK               YGN           MMR11005260733460014080526000000000000000   10300002 00104100000000000000000000000800     
100   35710830021438720000000000011000000000011000002000000010410405260521310003814249300526214611000381   1030000100030000   541120003005777031200000030MOB BANK               YGN           MMR11005260521310003810526000000000000000   10300003 00104100000000000000000000002200     
100   9503190003205400000000000003100000000003100000200000001041040526035720000649K0O6V00526214610000649   1030000100030000   541120003103777031200000031MOB BANK               YGN           MMR11005260357200006490526000000000000000   10300014 00104100000000000000000000006200     
100   95030510222961370000000000045800000000045800002000000010410405260519320006514XC6GC0526214611000651   1030000100030000   541120003103777031200000031MOB BANK               YGN           MMR11005260519320006510526000000000000000   10300002 00104100000000000000000000009160     
100   95010121410066270000000000019500000000019500002000000010410405260514530013941082550526214611001394   1030000100030000   541120003117777031200000031MOB BANK               YGN           MMR11005260514530013940526000000000000000   10100001 00104100000000000000000000003900     
100   35710830004162960000000000012600000000012600002000000010410405260516280013954219000526214611001395   1030000100030000   541120003117777031200000031MOB BANK               YGN           MMR11005260516280013950526000000000000000   10300003 00104100000000000000000000002520     
100   9503054000589093000000000002550000000002550000200000001041040526054008001401EUFT7R0526214612001401   1030000100030000   541120003117777031200000031MOB BANK               YGN           MMR11005260540080014010526000000000000000   10300002 00104100000000000000000000005100     
100   35710500384082720000000000004900000000004900002000000010410405260822580025514094510526214614002551   1030000100030000   541110001907777031200000019MOB BANK               YGN           MMR11005260822580025510526000000000000000   10300005 00104100000000000000000000000980     
100   9503051024283042000000000039200000000039200000200000001041040526110642000022WNLOH10526214617000022   1030000100030000   541110900002777030900000002MOB BANK               YGN           MMR11005261106420000220526000000000000000   10300002 00104100000000000000000000078400     
100   35710950978588420000000000025000000000025000002000000010410405260850510005555505230526214615000555   1030000100030000   541120003008777031200000030MOB BANK               YGN           MMR11005260850510005550526000000000000000   10300003 00104100000000000000000000005000     
100   9503051024962249000000000000441000000000441000200000001041040526075828000653XN03KI0526214614000653   1030000100030000   541120003103777031200000031MOB BANK               YGN           MMR11005260758280006530526000000000000000   10300002 00104100000000000000000000000882     
100   35710830520906680000000000077000000000077000002000000010410405260802410012695216300526214614001269   1030000100030000   541110001903777031200000019MOB BANK               YGN           MMR11005260802410012690526000000000000000   10300003 00104100000000000000000000015400     
