100   35710500355578570000000000007650000000007650002000000010410405160814300020938687510516213614002093   1030000100030000   541110001907777031200000019MOB BANK               YGN           MMR11005160814300020930516000000000000000   10300005 00104100000000000000000000001530     
100   95030518879740590000000000012960000000012960002000000010410405160931440004043NQBZZ0516213616000404   1030000100030000   541120003008777031200000030MOB BANK               YGN           MMR11005160931440004040516000000000000000   10300002 00104100000000000000000000002592     
100   35710830562544680000000000005700000000005700002000000010410405161158000003880228210516213618000388   1030000100030000   541120003003777031200000030MOB BANK               YGN           MMR11005161158000003880516000000000000000   10300003 00104100000000000000000000001140     
100   62622000295791130000000000012000000000012000002000000010410405160426020009772021690516213610000977   1030000100030000   541110001920777031200000019MOB BANK               YGN           MMR11005160426020009770516000000000000000   10300006 00104100000000000000000000002400     
100   35710500375704370000000000005000000000005000002000000010410405160856230012452637600516213615001245   1030000100030000   541120003117777031200000031MOB BANK               YGN           MMR11005160856230012450516000000000000000   10300005 00104100000000000000000000001000     
100   35710500313870360000000000108300000000108300002000000010410405160305030015408621700516213609001540   1030000100030000   541160000001777031200000006MOB BANK               YGN           MMR11005160305030015400516000000000000000   10300005 00104100000000000000000000021660     
100   35710500153444170000000000004998000000004998002000000010410405160432260003827526870516213611000382   1030000100030000   541120003003777031200000030MOB BANK               YGN           MMR11005160432260003820516000000000000000   10300005 00104100000000000000000000001000     
100   35710500365403400000000000010671000000010671002000000010410405160636170003849528050516213613000384   1030000100030000   541120003003777031200000030MOB BANK               YGN           MMR11005160636170003840516000000000000000   10300005 00104100000000000000000000002134     
100   35710500355663460000000000013860000000013860002000000010410405161242330007908317420516213619000790   1030000100030000   581210001501777031200000015MOB BANK               YGN           MMR11005161242330007900516000000000000000   10300005 00104100000000000000000000004712     
100   9503051024401958000000000002094600000002094600200000001041040516103401001841FOJOXL0516213617001841   1030000100030000   541110001905777031200000019MOB BANK               YGN           MMR11005161034010018410516000000000000000   10300002 00104100000000000000000000004189     
100   35710500344665140000000000039000000000039000002000000010410405160444470020850842480516213611002085   1030000100030000   541110001907777031200000019MOB BANK               YGN           MMR11005160444470020850516000000000000000   10300005 00104100000000000000000000007800     
100   35710500304503970000000000044492000000044492002000000010410405160513440020870070690516213611002087   1030000100030000   541110001907777031200000019MOB BANK               YGN           MMR11005160513440020870516000000000000000   10300005 00104100000000000000000000008898     
100   35710500103786830000000000010300000000010300002000000010410405160749140003727092550516213614000372   1030000100030000   541120003104777031200000031MOB BANK               YGN           MMR11005160749140003720516000000000000000   10300005 00104100000000000000000000002060     
100   9503051895052179000000000002100000000002100000200000001041040516095129000357RIGKX40516213616000357   1030000100030000   541120003111777031200000031MOB BANK               YGN           MMR11005160951290003570516000000000000000   10300002 00104100000000000000000000004200     
100   35710900476958400000000000015100000000015100002000000010410405160634390002238288010516213613000223   1030000100030000   541120003013777031200000030MOB BANK               YGN           MMR11005160634390002230516000000000000000   10300003 00104100000000000000000000003020     
100   35710830482213100000000000006509000000006509002000000010410405160523540002917863510516213611000291   1030000100030000   541120003005777031200000030MOB BANK               YGN           MMR11005160523540002910516000000000000000   10300003 00104100000000000000000000001302     
100   35710830845897600000000000016000000000016000002000000010410405160951110012479467300516213616001247   1030000100030000   541120003106777031200000031MOB BANK               YGN           MMR11005160951110012470516000000000000000   10300003 00104100000000000000000000003200     
100   62343302009636800000000000192000000000192000002000000010410405160721390015464086810516213613001546   1030000100030000   541160000001777031200000006MOB BANK               YGN           MMR11005160721390015460516000000000000000   10300004 00104100000000000000000000038400     
100   35710500355578570000000000037000000000037000002000000010410405160808200020911561290516213614002091   1030000100030000   541110001907777031200000019MOB BANK               YGN           MMR11005160808200020910516000000000000000   10300005 00104100000000000000000000007400     
100   9503051889156788000000000002961100000002961100200000001041040516094307002095IH14AM0516213616002095   1030000100030000   541110001907777031200000019MOB BANK               YGN           MMR11005160943070020950516000000000000000   10300002 00104100000000000000000000005922     
100   62622000772243150000000000025000000000025000002000000010410405160808310003541900070516213614000354   1030000100030000   541120003111777031200000031MOB BANK               YGN           MMR11005160808310003540516000000000000000   10300006 00104100000000000000000000005000     
100   9503051887974059000000000000372400000000372400200000001041040516094022000406VUQJSS0516213616000406   1030000100030000   541120003008777031200000030MOB BANK               YGN           MMR11005160940220004060516000000000000000   10300002 00104100000000000000000000000745     
100   35710500304503970000000000008640000000008640002000000010410405160556140009806065440516213612000980   1030000100030000   541110001920777031200000019MOB BANK               YGN           MMR11005160556140009800516000000000000000   10300005 00104100000000000000000000001728     
100   62622000639680810000000000028800000000028800002000000010410405161217360010021900910516213618001002   1030000100030000   541110001903777031200000019MOB BANK               YGN           MMR11005161217360010020516000000000000000   10300006 00104100000000000000000000005760     
100   62346600100650490000000000005200000000005200002000000010410405161214070018461935190516213618001846   1030000100030000   541110001905777031200000019MOB BANK               YGN           MMR11005161214070018460516000000000000000   10300005 00104100000000000000000000001040     
100   9503051026287355000000000001110000000001110000200000001041040516094705002097EJC6B90516213616002097   1030000100030000   541110001907777031200000019MOB BANK               YGN           MMR11005160947050020970516000000000000000   10300002 00104100000000000000000000002220     
100   9503051895052179000000000002300000000002300000200000001041040516095041000356O7MOHL0516213616000356   1030000100030000   541120003111777031200000031MOB BANK               YGN           MMR11005160950410003560516000000000000000   10300002 00104100000000000000000000004600     
100   9503051887191076000000000000433100000000433100200000001041040516071523000292UXL6EX0516213613000292   1030000100030000   541120003005777031200000030MOB BANK               YGN           MMR11005160715230002920516000000000000000   10300002 00104100000000000000000000000866     
100   35710830562544680000000000005800000000005800002000000010410405161154590002970210110516213618000297   1030000100030000   541120003001777031200000030MOB BANK               YGN           MMR11005161154590002970516000000000000000   10300003 00104100000000000000000000001160     
100   9503190003198159000000000001440000000001440000200000001041040516035648000220MC0EAE0516213610000220   1030000100030000   541120003013777031200000030MOB BANK               YGN           MMR11005160356480002200516000000000000000   10300014 00104100000000000000000000002880     
100   9503051026145660000000000028050000000028050000200000001041040516092225000575ROTUX20516213615000575   1030000100030000   581210001201777031200000012MOB BANK               YGN           MMR11005160922250005750516000000000000000   10300002 00104100000000000000000000095370     
100   95030518743061090000000000168000000000168000002000000010410405161019150021031GEUZY0516213616002103   1030000100030000   541110001907777031200000019MOB BANK               YGN           MMR11005161019150021030516000000000000000   10300002 00104100000000000000000000033600     
100   9503051889976128000000000000900000000000900000200000001041040516110720002109LTKNA40516213617002109   1030000100030000   541110001907777031200000019MOB BANK               YGN           MMR11005161107200021090516000000000000000   10300002 00104100000000000000000000001800     
100   62346600145483390000000000022000000000022000002000000010410405161104030009822250130516213617000982   1030000100030000   541110001920777031200000019MOB BANK               YGN           MMR11005161104030009820516000000000000000   10300005 00104100000000000000000000004400     
100   9503051024817427000000000001342600000001342600200000001041040516120102000390XGVMSF0516213618000390   1030000100030000   541120003003777031200000030MOB BANK               YGN           MMR11005161201020003900516000000000000000   10300002 00104100000000000000000000002685     
100   9503051872733411000000000001843000000001843000200000001041040516093126000374OBRB5B0516213616000374   1030000100030000   541120003104777031200000031MOB BANK               YGN           MMR11005160931260003740516000000000000000   10300002 00104100000000000000000000003686     
100   9503051888813041000000000003490000000003490000200000001041040516061910001234AZLNMW0516213612001234   1030000100030000   541120003106777031200000031MOB BANK               YGN           MMR11005160619100012340516000000000000000   10300002 00104100000000000000000000006980     
100   9503051025982337000000000004290000000004290000200000001041040516034627001211OGCOJU0516213610001211   1030000100030000   541120003106777031200000031MOB BANK               YGN           MMR11005160346270012110516000000000000000   10300002 00104100000000000000000000008580     
100   9503051025215209000000000006400000000006400000200000001041040516110908000576PJSKVN0516213617000576   1030000100030000   581210001201777031200000012MOB BANK               YGN           MMR11005161109080005760516000000000000000   10300002 00104100000000000000000000021760     
100   35650973630008260000000000258500000000258500002000000010410405161358190005773273870516213620000577   1030000100030000   581210001201777031200000012MOB BANK               YGN           MMR11005161358190005770516000000000000000   10300005 00104100000000000000000000153807     
100   35710500334209340000000000116522000000116522002000000010410405160625400018340798780516213612001834   1030000100030000   541110001905777031200000019MOB BANK               YGN           MMR11005160625400018340516000000000000000   10300005 00104100000000000000000000023304     
100   9503051025235223000000000001480000000001480000200000001041040516042714000222JHYAES0516213610000222   1030000100030000   541120003013777031200000030MOB BANK               YGN           MMR11005160427140002220516000000000000000   10300002 00104100000000000000000000002960     
100   35710830240562010000000000158650000000158650002000000010410405161229550018500419710516213618001850   1030000100030000   541110001905777031200000019MOB BANK               YGN           MMR11005161229550018500516000000000000000   10300003 00104100000000000000000000031730     
100   9503051872733411000000000001743000000001743000200000001041040516094005000377BVQZYY0516213616000377   1030000100030000   541120003104777031200000031MOB BANK               YGN           MMR11005160940050003770516000000000000000   10300002 00104100000000000000000000003486     
100   95030518879567750000000000017545000000017545002000000010410405160812150014144CMJ3P0516213614001414   1030000100030000   581250000001777031200000005MOB BANK               YGN           MMR11005160812150014140516000000000000000   10300002 00104100000000000000000000005965     
100   95031010041102000000000000019800000000019800002000000010410405160654370012399078040516213613001239   1030000100030000   541120003106777031200000031MOB BANK               YGN           MMR11005160654370012390516000000000000000   10300005 00104100000000000000000000003960     
100   9503051872733411000000000001053000000001053000200000001041040516093518000376O1CZLP0516213616000376   1030000100030000   541120003104777031200000031MOB BANK               YGN           MMR11005160935180003760516000000000000000   10300002 00104100000000000000000000002106     
100   35710900476958400000000000002000000000002000002000000010410405160641340002938329610516213613000293   1030000100030000   541120003001777031200000030MOB BANK               YGN           MMR11005160641340002930516000000000000000   10300003 00104100000000000000000000000400     
100   9503051872733411000000000001914000000001914000200000001041040516094443000378CUO8SC0516213616000378   1030000100030000   541120003104777031200000031MOB BANK               YGN           MMR11005160944430003780516000000000000000   10300002 00104100000000000000000000003828     
100   35710500384363150000000000030800000000030800002000000010410405160727200009961011490516213613000996   1030000100030000   541110001903777031200000019MOB BANK               YGN           MMR11005160727200009960516000000000000000   10300005 00104100000000000000000000006160     
100   9503051024751840000000000002293500000002293500200000001041040516082718001415FJLQ0V0516213614001415   1030000100030000   581250000001777031200000005MOB BANK               YGN           MMR11005160827180014150516000000000000000   10300002 00104100000000000000000000007798     
100   9503051887191076000000000000441000000000441000200000001041040516115215000294TXLYVR0516213618000294   1030000100030000   541120003005777031200000030MOB BANK               YGN           MMR11005161152150002940516000000000000000   10300002 00104100000000000000000000000882     
100   95030800043238090000000000004800000000004800002000000010410405161129300002950057210516213617000295   1030000100030000   541120003001777031200000030MOB BANK               YGN           MMR11005161129300002950516000000000000000   10300003 00104100000000000000000000000960     
100   35710830241393870000000000025000000000025000002000000010410405160621250012418208610516213612001241   1030000100030000   541120003117777031200000031MOB BANK               YGN           MMR11005160621250012410516000000000000000   10300003 00104100000000000000000000005000     
100   35710830270769250000000000225000000000225000002000000010410405160756290020898779010516213614002089   1030000100030000   541110001907777031200000019MOB BANK               YGN           MMR11005160756290020890516000000000000000   10300003 00104100000000000000000000045000     
100   95030800043238090000000000013900000000013900002000000010410405161125480003860034920516213617000386   1030000100030000   541120003003777031200000030MOB BANK               YGN           MMR11005161125480003860516000000000000000   10300003 00104100000000000000000000002780     
100   9503051889976128000000000013120000000013120000200000001041040516085921000998UMVJPJ0516213615000998   1030000100030000   541110001903777031200000019MOB BANK               YGN           MMR11005160859210009980516000000000000000   10300002 00104100000000000000000000026240     
100   35710500131113210000000000025800000000025800002000000010410405160952280010004797310516213616001000   1030000100030000   541110001903777031200000019MOB BANK               YGN           MMR11005160952280010000516000000000000000   10300005 00104100000000000000000000005160     
100   35710830400544380000000000051600000000051600002000000010410405160429130009947535500516213610000994   1030000100030000   541110001903777031200000019MOB BANK               YGN           MMR11005160429130009940516000000000000000   10300003 00104100000000000000000000010320     
100   35710500303729630000000000012740000000012740002000000010410405160749370018391794710516213614001839   1030000100030000   541110001905777031200000019MOB BANK               YGN           MMR11005160749370018390516000000000000000   10300005 00104100000000000000000000002548     
100   9503051874284942000000000002750000000002750000200000001041040516091934000355WFZGX10516213615000355   1030000100030000   541120003111777031200000031MOB BANK               YGN           MMR11005160919340003550516000000000000000   10300002 00104100000000000000000000005500     
100   95031900031981590000000000016000000000016000002000000010410405160404080002217E9X9M0516213610000221   1030000100030000   541120003013777031200000030MOB BANK               YGN           MMR11005160404080002210516000000000000000   10300014 00104100000000000000000000003200     
100   35710500393620720000000000042924000000042924002000000010410405160403210020828300820516213610002082   1030000100030000   541110001907777031200000019MOB BANK               YGN           MMR11005160403210020820516000000000000000   10300005 00104100000000000000000000008585     
