100   9503051025270923000000000001141500000001141500200000001041040527122008002621RPG3HQ0527214718002621   1030000100030000   541110001907777031200000019MOB BANK               YGN           MMR11005271220080026210527000000000000000   10300002 00104100000000000000000000002283     
100   35710830057979550000000000037900000000037900002000000010410405271100330013134923500527214717001313   1030000100030000   541110001903777031200000019MOB BANK               YGN           MMR11005271100330013130527000000000000000   10300003 00104100000000000000000000007580     
100   95030518860466510000000000016200000000016200002000000010410405270645310025909OYWWY0527214713002590   1030000100030000   541110001907777031200000019MOB BANK               YGN           MMR11005270645310025900527000000000000000   10300002 00104100000000000000000000003240     
100   35710500145024860000000000048600000000048600002000000010410405270530100002305898000527214712000230   1030000100030000   541120003012777031200000030MOB BANK               YGN           MMR11005270530100002300527000000000000000   10300005 00104100000000000000000000009720     
100   9503190006220711000000000001200000000001200000200000001041040527055802000254SF6SN90527214712000254   1030000100030000   541120003002777031200000030MOB BANK               YGN           MMR11005270558020002540527000000000000000   10300014 00104100000000000000000000002400     
100   95030518914055040000000000052500000000052500002000000010410405271006340005667SIJIQ0527214716000566   1030000100030000   541120003008777031200000030MOB BANK               YGN           MMR11005271006340005660527000000000000000   10300002 00104100000000000000000000010500     
100   35710500312452260000000000027500000000027500002000000010410405271022120014358909120527214716001435   1030000100030000   541120003117777031200000031MOB BANK               YGN           MMR11005271022120014350527000000000000000   10300005 00104100000000000000000000005500     
100   35710830303941330000000000008800000000008800002000000010410405270843190003414100010527214715000341   1030000100030000   541120003001777031200000030MOB BANK               YGN           MMR11005270843190003410527000000000000000   10300003 00104100000000000000000000001760     
100   9503051023471564000000000001560000000001560000200000001041040527110832000568RGQEBO0527214717000568   1030000100030000   541120003008777031200000030MOB BANK               YGN           MMR11005271108320005680527000000000000000   10300002 00104100000000000000000000003120     
100   9503051887508626000000000000872000000000872000200000001041040527122747002623HOK6DW0527214718002623   1030000100030000   541110001907777031200000019MOB BANK               YGN           MMR11005271227470026230527000000000000000   10300002 00104100000000000000000000001744     
100   9503051024914661000000000000931500000000931500200000001041040527085813000500CDY3C80527214715000500   1030000100030000   541120003104777031200000031MOB BANK               YGN           MMR11005270858130005000527000000000000000   10300002 00104100000000000000000000001863     
100   95030800098253110000000000035420000000035420002000000010410405271011370013094629820527214716001309   1030000100030000   541110001903777031200000019MOB BANK               YGN           MMR11005271011370013090527000000000000000   10300003 00104100000000000000000000007084     
100   35710500373755710000000000014960000000014960002000000010410405271157360014667901760527214718001466   1030000100030000   581250000001777031200000005MOB BANK               YGN           MMR11005271157360014660527000000000000000   10300005 00104100000000000000000000005086     
100   35710830920003470000000000005680000000005680002000000010410405271115310005705013220527214717000570   1030000100030000   541120003008777031200000030MOB BANK               YGN           MMR11005271115310005700527000000000000000   10300003 00104100000000000000000000001136     
100   62622000226252440000000000001960000000001960002000000010410405271228380003906001160527214718000390   1030000100030000   541120003005777031200000030MOB BANK               YGN           MMR11005271228380003900527000000000000000   10300006 00104100000000000000000000000392     
100   9503051026031191000000000003880000000003880000200000001041040527034139001289G47NXZ0527214710001289   1030000100030000   541110001903777031200000019MOB BANK               YGN           MMR11005270341390012890527000000000000000   10300002 00104100000000000000000000007760     
100   35710830215956640000000000044600000000044600002000000010410405271033080014384758920527214717001438   1030000100030000   541120003117777031200000031MOB BANK               YGN           MMR11005271033080014380527000000000000000   10300003 00104100000000000000000000008920     
100   9503051025694957000000000002310000000002310000200000001041040527120439000342WNNEQX0527214718000342   1030000100030000   541120003001777031200000030MOB BANK               YGN           MMR11005271204390003420527000000000000000   10300002 00104100000000000000000000004620     
100   35710500114272990000000000102000000000102000002000000010410405270433270003391199640527214711000339   1030000100030000   541120003001777031200000030MOB BANK               YGN           MMR11005270433270003390527000000000000000   10300005 00104100000000000000000000020400     
100   9503051887191076000000000000220500000000220500200000001041040527123200000391Z5ZCL80527214719000391   1030000100030000   541120003005777031200000030MOB BANK               YGN           MMR11005271232000003910527000000000000000   10300002 00104100000000000000000000000441     
100   35710500171634760000000000149245000000149245002000000010410405271302340012633899870527214719001263   1030000100030000   541110001915777031200000019MOB BANK               YGN           MMR11005271302340012630527000000000000000   10300005 00104100000000000000000000029849     
100   35710500324372690000000000009600000000009600002000000010410405271243120026258445630527214719002625   1030000100030000   541110001907777031200000019MOB BANK               YGN           MMR11005271243120026250527000000000000000   10300005 00104100000000000000000000001920     
100   35710500114156330000000000032095000000032095002000000010410405271121000004894662160527214717000489   1030000100030000   541120003003777031200000030MOB BANK               YGN           MMR11005271121000004890527000000000000000   10300005 00104100000000000000000000006419     
100   95030510234715640000000000001350000000001350002000000010410405271123010004906CCBQA0527214717000490   1030000100030000   541120003003777031200000030MOB BANK               YGN           MMR11005271123010004900527000000000000000   10300002 00104100000000000000000000000270     
100   35710500153907170000000000008820000000008820002000000010410405270431230004279500680527214711000427   1030000100030000   541120003111777031200000031MOB BANK               YGN           MMR11005270431230004270527000000000000000   10300005 00104100000000000000000000001764     
100   35710500355663460000000000026950000000026950002000000010410405270648160008517062990527214713000851   1030000100030000   581210001501777031200000015MOB BANK               YGN           MMR11005270648160008510527000000000000000   10300005 00104100000000000000000000009163     
100   9503051025568003000000000001140000000001140000200000001041040527071316001247RLJMBV0527214713001247   1030000100030000   541110001915777031200000019MOB BANK               YGN           MMR11005270713160012470527000000000000000   10300002 00104100000000000000000000002280     
100   9503051883672343000000000002880000000002880000200000001041040527101305001311IUCXOO0527214716001311   1030000100030000   541110001903777031200000019MOB BANK               YGN           MMR11005271013050013110527000000000000000   10300002 00104100000000000000000000005760     
100   9503051023445147000000000010695000000010695000200000001041040527112806001315JFPKII0527214717001315   1030000100030000   541110001903777031200000019MOB BANK               YGN           MMR11005271128060013150527000000000000000   10300002 00104100000000000000000000021390     
100   9503051895556393000000000007600000000007600000200000001041040527075619002597ED9PKE0527214714002597   1030000100030000   541110001907777031200000019MOB BANK               YGN           MMR11005270756190025970527000000000000000   10300002 00104100000000000000000000015200     
100   9503051025597176000000000007225000000007225000200000001041040527071120000232QZ6LNE0527214713000232   1030000100030000   541120003012777031200000030MOB BANK               YGN           MMR11005270711200002320527000000000000000   10300002 00104100000000000000000000014450     
100   35710830518303870000000000050000000000050000002000000010410405271358050008525988610527214720000852   1030000100030000   581210001501777031200000015MOB BANK               YGN           MMR11005271358050008520527000000000000000   10300003 00104100000000000000000000017000     
100   35710830394156320000000000038800000000038800002000000010410405270345370012922313930527214710001292   1030000100030000   541110001903777031200000019MOB BANK               YGN           MMR11005270345370012920527000000000000000   10300003 00104100000000000000000000007760     
100   62343302007902810000000000058750000000058750002000000010410405271144590014414088660527214718001441   1030000100030000   541120003117777031200000031MOB BANK               YGN           MMR11005271144590014410527000000000000000   10300004 00104100000000000000000000011750     
100   9503051020564403000000000002999500000002999500200000001041040527101552002612PVZQRX0527214716002612   1030000100030000   541110001907777031200000019MOB BANK               YGN           MMR11005271015520026120527000000000000000   10300002 00104100000000000000000000005999     
100   62346600199776990000000000028000000000028000002000000010410405271205520026140015380527214718002614   1030000100030000   541110001907777031200000019MOB BANK               YGN           MMR11005271205520026140527000000000000000   10300005 00104100000000000000000000005600     
100   62622000226252440000000000002205000000002205002000000010410405271234000003926001200527214719000392   1030000100030000   541120003005777031200000030MOB BANK               YGN           MMR11005271234000003920527000000000000000   10300006 00104100000000000000000000000441     
100   9503051024174134000000000003175000000003175000200000001041040527081423001249LSAJKU0527214714001249   1030000100030000   541110001915777031200000019MOB BANK               YGN           MMR11005270814230012490527000000000000000   10300002 00104100000000000000000000006350     
100   9503051897799793000000000006680000000006680000200000001041040527084047001251OVECPO0527214715001251   1030000100030000   541110001915777031200000019MOB BANK               YGN           MMR11005270840470012510527000000000000000   10300002 00104100000000000000000000013360     
100   62441900103684310000000000016200000000016200002000000010410405270342100014225848440527214710001422   1030000100030000   541120003117777031200000031MOB BANK               YGN           MMR11005270342100014220527000000000000000   10300003 00104100000000000000000000005670     
100   35710500363758460000000000014988000000014988002000000010410405270800470025995997120527214714002599   1030000100030000   541110001907777031200000019MOB BANK               YGN           MMR11005270800470025990527000000000000000   10300005 00104100000000000000000000002998     
100   9503051886213350000000000003380000000003380000200000001041040527085439002601IQNCBR0527214715002601   1030000100030000   541110001907777031200000019MOB BANK               YGN           MMR11005270854390026010527000000000000000   10300002 00104100000000000000000000006760     
100   62441900101516540000000000025940000000025940002000000010410405270640240002561050020527214713000256   1030000100030000   541120003002777031200000030MOB BANK               YGN           MMR11005270640240002560527000000000000000   10300003 00104100000000000000000000009079     
100   35710500341162670000000000004410000000004410002000000010410405270459080004281898470527214711000428   1030000100030000   541120003111777031200000031MOB BANK               YGN           MMR11005270459080004280527000000000000000   10300005 00104100000000000000000000000882     
100   62346600199776990000000000006850000000006850002000000010410405271207070026163660730527214718002616   1030000100030000   541110001907777031200000019MOB BANK               YGN           MMR11005271207070026160527000000000000000   10300005 00104100000000000000000000001370     
100   35710500125139230000000000048000000000048000002000000010410405270406320025826750680527214710002582   1030000100030000   541110001907777031200000019MOB BANK               YGN           MMR11005270406320025820527000000000000000   10300005 00104100000000000000000000009600     
100   9503051023878768000000000000668000000000668000200000001041040527080404000386B1AUVF0527214714000386   1030000100030000   541120003005777031200000030MOB BANK               YGN           MMR11005270804040003860527000000000000000   10300002 00104100000000000000000000001336     
100   35710830662072900000000000021500000000021500002000000010410405271132250012545114630527214718001254   1030000100030000   541110001915777031200000019MOB BANK               YGN           MMR11005271132250012540527000000000000000   10300003 00104100000000000000000000004300     
100   9503051886027156000000000010125000000010125000200000001041040527061833001620INOYQG0527214712001620   1030000100030000   541160000001777031200000006MOB BANK               YGN           MMR11005270618330016200527000000000000000   10300002 00104100000000000000000000020250     
100   9503051023945435000000000011001000000011001000200000001041040527061957001622Y3OSVL0527214712001622   1030000100030000   541160000001777031200000006MOB BANK               YGN           MMR11005270619570016220527000000000000000   10300002 00104100000000000000000000022002     
100   9503051887119705000000000001050000000001050000200000001041040527034506001424AJ7ZKX0527214710001424   1030000100030000   541120003117777031200000031MOB BANK               YGN           MMR11005270345060014240527000000000000000   10300002 00104100000000000000000000002100     
100   35710500153018880000000000011200000000011200002000000010410405270556280014289436400527214712001428   1030000100030000   541120003117777031200000031MOB BANK               YGN           MMR11005270556280014280527000000000000000   10300005 00104100000000000000000000002240     
100   95030510255971760000000000011500000000011500002000000010410405270629280005632AKVUS0527214712000563   1030000100030000   541120003008777031200000030MOB BANK               YGN           MMR11005270629280005630527000000000000000   10300002 00104100000000000000000000002300     
100   9503051897799793000000000002800000000002800000200000001041040527091249002603G0DSXM0527214715002603   1030000100030000   541110001907777031200000019MOB BANK               YGN           MMR11005270912490026030527000000000000000   10300002 00104100000000000000000000005600     
100   62346600161979940000000000005400000000005400002000000010410405270614110004855733520527214712000485   1030000100030000   541120003003777031200000030MOB BANK               YGN           MMR11005270614110004850527000000000000000   10300005 00104100000000000000000000001080     
100   62441900103399370000000000030800000000030800002000000010410405270849420013009899180527214715001300   1030000100030000   541110001903777031200000019MOB BANK               YGN           MMR11005270849420013000527000000000000000   10300003 00104100000000000000000000010780     
100   62346600199776990000000000074500000000074500002000000010410405271215080026198418050527214718002619   1030000100030000   541110001907777031200000019MOB BANK               YGN           MMR11005271215080026190527000000000000000   10300005 00104100000000000000000000014900     
100   9503051883701746000000000004725000000004725000200000001041040527041125002584LLSIQT0527214710002584   1030000100030000   541110001907777031200000019MOB BANK               YGN           MMR11005270411250025840527000000000000000   10300002 00104100000000000000000000009450     
100   9503051023380195000000000000990000000000990000200000001041040527102953000387FQDKGZ0527214716000387   1030000100030000   541120003005777031200000030MOB BANK               YGN           MMR11005271029530003870527000000000000000   10300002 00104100000000000000000000001980     
100   9503051872592726000000000000430000000000430000200000001041040527105737000388LGGPAD0527214717000388   1030000100030000   541120003005777031200000030MOB BANK               YGN           MMR11005271057370003880527000000000000000   10300002 00104100000000000000000000000860     
100   62343301012582300000000000023500000000023500002000000010410405271203360012569958110527214718001256   1030000100030000   541110001915777031200000019MOB BANK               YGN           MMR11005271203360012560527000000000000000   10300004 00104100000000000000000000004700     
100   35710500194465640000000000161880000000161880002000000010410405270833380016258972890527214715001625   1030000100030000   541160000001777031200000006MOB BANK               YGN           MMR11005270833380016250527000000000000000   10300005 00104100000000000000000000032376     
100   35710830375922340000000000105240000000105240002000000010410405271046030016274836420527214717001627   1030000100030000   541160000001777031200000006MOB BANK               YGN           MMR11005271046030016270527000000000000000   10300003 00104100000000000000000000021048     
100   35710500364819580000000000018000000000018000002000000010410405270823490004307266270527214714000430   1030000100030000   541120003111777031200000031MOB BANK               YGN           MMR11005270823490004300527000000000000000   10300005 00104100000000000000000000003600     
100   35710830920003470000000000005509000000005509002000000010410405271105160003894951810527214717000389   1030000100030000   541120003005777031200000030MOB BANK               YGN           MMR11005271105160003890527000000000000000   10300003 00104100000000000000000000001102     
100   9503051026095428000000000001650000000001650000200000001041040527121346001259HFRPGS0527214718001259   1030000100030000   541110001915777031200000019MOB BANK               YGN           MMR11005271213460012590527000000000000000   10300002 00104100000000000000000000003300     
100   35710500364354420000000000029500000000029500002000000010410405270934460002362894640527214716000236   1030000100030000   541120003012777031200000030MOB BANK               YGN           MMR11005270934460002360527000000000000000   10300005 00104100000000000000000000005900     
100   95030518912969110000000000024860000000024860002000000010410405271025520002587JKKTT0527214716000258   1030000100030000   541120003002777031200000030MOB BANK               YGN           MMR11005271025520002580527000000000000000   10300002 00104100000000000000000000004972     
100   35710500122147950000000000003645000000003645002000000010410405270718250004981666270527214713000498   1030000100030000   541120003104777031200000031MOB BANK               YGN           MMR11005270718250004980527000000000000000   10300005 00104100000000000000000000000729     
100   9503051895202303000000000003710000000003710000200000001041040527093032000487DRIW8C0527214716000487   1030000100030000   541120003003777031200000030MOB BANK               YGN           MMR11005270930320004870527000000000000000   10300002 00104100000000000000000000007420     
100   9503190004265320000000000001850000000001850000200000001041040527111254000432MWLVQ10527214717000432   1030000100030000   541120003111777031200000031MOB BANK               YGN           MMR11005271112540004320527000000000000000   10300014 00104100000000000000000000003700     
100   9503051873048249000000000007960000000007960000200000001041040527095551001302XQEJ7L0527214716001302   1030000100030000   541110001903777031200000019MOB BANK               YGN           MMR11005270955510013020527000000000000000   10300002 00104100000000000000000000015920     
100   9503051026246260000000000001155000000001155000200000001041040527081551001464P0P9C80527214714001464   1030000100030000   581250000001777031200000005MOB BANK               YGN           MMR11005270815510014640527000000000000000   10300002 00104100000000000000000000003927     
100   35650973680003180000000000010395000000010395002000000010410405270949310014652085040527214716001465   1030000100030000   581250000001777031200000005MOB BANK               YGN           MMR11005270949310014650527000000000000000   10300005 00104100000000000000000000006185     
