100   35710950181073520000000000006100000000006100002000000010410405060722540009762177610506212613000976   1030000100030000   541110001915777031200000019MOB BANK               YGN           MMR11005060722540009760506000000000000000   10300003 00104100000000000000000000001220     
100   35710900953399780000000000007050000000007050002000000010410405050650270009733342910505212513000973   1030000100030000   541120003117777031200000031MOB BANK               YGN           MMR11005050650270009730505000000000000000   10300003 00104100000000000000000000001410     
100   9503051884584687000000000000540000000000540000200000001041040505063432000970O6BFL30505212513000970   1030000100030000   541120003117777031200000031MOB BANK               YGN           MMR11005050634320009700505000000000000000   10300002 00104100000000000000000000001080     
100   62622000797159220000000000019900000000019900002000000010410405050831580009799517520505212515000979   1030000100030000   541120003117777031200000031MOB BANK               YGN           MMR11005050831580009790505000000000000000   10300006 00104100000000000000000000003980     
100   35710500303730450000000000220000000000220000002000000010410405051537120005334121560505212522000533   1030000100030000   581210001201777031200000012MOB BANK               YGN           MMR11005051537120005330505000000000000000   10300005 00104100000000000000000000074800     
100   35710500113356410000000000048200000000048200002000000010410405050458280009668517010505212511000966   1030000100030000   541120003117777031200000031MOB BANK               YGN           MMR11005050458280009660505000000000000000   10300005 00104100000000000000000000009640     
100   62921400060387880000000000014500000000014500002000000010410405050823190009762222220505212514000976   1030000100030000   541120003117777031200000031MOB BANK               YGN           MMR11005050823190009760505000000000000000   10300009 00104100000000000000000000002900     
100   95031800466779130000000000010400000000010400002000000010410405051149350009847101850505212518000984   1030000100030000   541120003117777031200000031MOB BANK               YGN           MMR11005051149350009840505000000000000000   10300013 00104100000000000000000000002080     
100   9503051025734209000000000001155000000001155000200000001041040506070531001360PGKMAQ0506212613001360   1030000100030000   581250000001777031200000005MOB BANK               YGN           MMR11005060705310013600506000000000000000   10300002 00104100000000000000000000003927     
100   95030800043238090000000000039990000000039990002000000010410405061047130001533403530506212617000153   1030000100030000   541120003013777031200000030MOB BANK               YGN           MMR11005061047130001530506000000000000000   10300003 00104100000000000000000000007998     
100   62622000348027320000000000015500000000015500002000000010410405060754460009809499600506212614000980   1030000100030000   541110001915777031200000019MOB BANK               YGN           MMR11005060754460009800506000000000000000   10300006 00104100000000000000000000003100     
100   950305102525911600000000000142500000000142500020000000104104050612305900098229WGC90506212619000982   1030000100030000   541110001915777031200000019MOB BANK               YGN           MMR11005061230590009820506000000000000000   10300002 00104100000000000000000000002850     
100   95030800043238090000000000031710000000031710002000000010410405061109500001783539110506212617000178   1030000100030000   541120003005777031200000030MOB BANK               YGN           MMR11005061109500001780506000000000000000   10300003 00104100000000000000000000006342     
100   35710500183677870000000000005700000000005700002000000010410405061010010002914780200506212616000291   1030000100030000   541120003008777031200000030MOB BANK               YGN           MMR11005061010010002910506000000000000000   10300005 00104100000000000000000000001140     
100   9503051885696274000000000002900000000002900000200000001041040506073441001636EWMXPA0506212614001636   1030000100030000   541110001907777031200000019MOB BANK               YGN           MMR11005060734410016360506000000000000000   10300002 00104100000000000000000000005800     
100   9503051872797465000000000006570000000006570000200000001041040506130323000984YCGPIS0506212619000984   1030000100030000   541110001915777031200000019MOB BANK               YGN           MMR11005061303230009840506000000000000000   10300002 00104100000000000000000000013140     
100   35710830017661370000000000012600000000012600002000000010410405060640440001501924510506212613000150   1030000100030000   541120003013777031200000030MOB BANK               YGN           MMR11005060640440001500506000000000000000   10300003 00104100000000000000000000002520     
100   9503190006134581000000000002110000000002110000200000001041040506092140000288XQF9QK0506212615000288   1030000100030000   541120003008777031200000030MOB BANK               YGN           MMR11005060921400002880506000000000000000   10300014 00104100000000000000000000004220     
100   35710830084698910000000000006450000000006450002000000010410405061134190016503686010506212618001650   1030000100030000   541110001907777031200000019MOB BANK               YGN           MMR11005061134190016500506000000000000000   10300003 00104100000000000000000000001290     
100   9503051874192079000000000002850000000002850000200000001041040506073837001638FYJNNW0506212614001638   1030000100030000   541110001907777031200000019MOB BANK               YGN           MMR11005060738370016380506000000000000000   10300002 00104100000000000000000000005700     
100   9503051874192079000000000001000000000001000000200000001041040506075747001640QPFYS50506212614001640   1030000100030000   541110001907777031200000019MOB BANK               YGN           MMR11005060757470016400506000000000000000   10300002 00104100000000000000000000002000     
100   9503051890792118000000000001940000000001940000200000001041040506070224001456SSESUW0506212613001456   1030000100030000   541110001905777031200000019MOB BANK               YGN           MMR11005060702240014560506000000000000000   10300002 00104100000000000000000000003880     
100   35710830986559380000000000061300000000061300002000000010410405060921270014612888910506212615001461   1030000100030000   541110001905777031200000019MOB BANK               YGN           MMR11005060921270014610506000000000000000   10300003 00104100000000000000000000012260     
100   35710500325727270000000000027000000000027000002000000010410405061157160009910372260506212618000991   1030000100030000   541120003117777031200000031MOB BANK               YGN           MMR11005061157160009910506000000000000000   10300005 00104100000000000000000000005400     
100   35710830017661370000000000010800000000010800002000000010410405060604530001771709510506212612000177   1030000100030000   541120003005777031200000030MOB BANK               YGN           MMR11005060604530001770506000000000000000   10300003 00104100000000000000000000002160     
100   9503051025948262000000000000500000000000500000200000001041040506101902000295PJ0KI40506212616000295   1030000100030000   541120003008777031200000030MOB BANK               YGN           MMR11005061019020002950506000000000000000   10300002 00104100000000000000000000001000     
100   35710500325581140000000000005500000000005500002000000010410405060639010007166490970506212613000716   1030000100030000   581210001501777031200000015MOB BANK               YGN           MMR11005060639010007160506000000000000000   10300005 00104100000000000000000000001870     
100   35710500112568700000000000010800000000010800002000000010410405060902230008252222590506212615000825   1030000100030000   541110001920777031200000019MOB BANK               YGN           MMR11005060902230008250506000000000000000   10300005 00104100000000000000000000002160     
100   35710500375439540000000000035200000000035200002000000010410405060926020016427086860506212615001642   1030000100030000   541110001907777031200000019MOB BANK               YGN           MMR11005060926020016420506000000000000000   10300005 00104100000000000000000000007040     
100   35710500370322220000000000006000000000006000002000000010410405061130270001032428360506212618000103   1030000100030000   541120003002777031200000030MOB BANK               YGN           MMR11005061130270001030506000000000000000   10300005 00104100000000000000000000001200     
100   35710500344801920000000000025850000000025850002000000010410405060544380002864656860506212612000286   1030000100030000   541120003008777031200000030MOB BANK               YGN           MMR11005060544380002860506000000000000000   10300005 00104100000000000000000000005170     
100   9503051892922119000000000006727700000006727700200000001041040506121723001467BDFDFA0506212618001467   1030000100030000   541110001905777031200000019MOB BANK               YGN           MMR11005061217230014670506000000000000000   10300002 00104100000000000000000000013456     
100   9503051883496453000000000002480000000002480000200000001041040506081914000151RVKAZO0506212614000151   1030000100030000   541120003013777031200000030MOB BANK               YGN           MMR11005060819140001510506000000000000000   10300002 00104100000000000000000000004960     
100   62921400044838530000000000094050000000094050002000000010410405061224290007182222220506212618000718   1030000100030000   581210001501777031200000015MOB BANK               YGN           MMR11005061224290007180506000000000000000   10300009 00104100000000000000000000031977     
100   9503051884151388000000000003430000000003430000200000001041040506093431001644BVFTLY0506212616001644   1030000100030000   541110001907777031200000019MOB BANK               YGN           MMR11005060934310016440506000000000000000   10300002 00104100000000000000000000006860     
100   9503051888203995000000000006350000000006350000200000001041040506100323000831WYJXCF0506212616000831   1030000100030000   541120003106777031200000031MOB BANK               YGN           MMR11005061003230008310506000000000000000   10300002 00104100000000000000000000012700     
100   95030510252591160000000000008550000000008550002000000010410405061236250008321PKNWL0506212619000832   1030000100030000   541110001920777031200000019MOB BANK               YGN           MMR11005061236250008320506000000000000000   10300002 00104100000000000000000000001710     
100   35710830017661370000000000010000000000010000002000000010410405060617470001491786900506212612000149   1030000100030000   541120003013777031200000030MOB BANK               YGN           MMR11005060617470001490506000000000000000   10300003 00104100000000000000000000002000     
100   35710500351145760000000000017000000000017000002000000010410405060458480001473644770506212611000147   1030000100030000   541120003013777031200000030MOB BANK               YGN           MMR11005060458480001470506000000000000000   10300005 00104100000000000000000000003400     
100   35710830413033700000000000006750000000006750002000000010410405060837390003092626100506212615000309   1030000100030000   541120003111777031200000031MOB BANK               YGN           MMR11005060837390003090506000000000000000   10300003 00104100000000000000000000001350     
100   9503051021205352000000000001645000000001645000200000001041040506101635001646BNU5A40506212616001646   1030000100030000   541110001907777031200000019MOB BANK               YGN           MMR11005061016350016460506000000000000000   10300002 00104100000000000000000000003290     
100   95030800043238090000000000014950000000014950002000000010410405061115210001793572300506212617000179   1030000100030000   541120003005777031200000030MOB BANK               YGN           MMR11005061115210001790506000000000000000   10300003 00104100000000000000000000002990     
100   95031900065711960000000000037000000000037000002000000010410405061215360001821I2MQ90506212618000182   1030000100030000   541120003005777031200000030MOB BANK               YGN           MMR11005061215360001820506000000000000000   10300014 00104100000000000000000000007400     
100   9503051019733969000000000004990000000004990000200000001041040506074843000746OQJUFQ0506212614000746   1030000100030000   541110001903777031200000019MOB BANK               YGN           MMR11005060748430007460506000000000000000   10300002 00104100000000000000000000009980     
100   62921400028543290000000000043000000000043000002000000010410405060802510007472222220506212614000747   1030000100030000   541110001903777031200000019MOB BANK               YGN           MMR11005060802510007470506000000000000000   10300009 00104100000000000000000000008600     
100   9503051025312550000000000003080000000003080000200000001041040506081808000748VTUXGL0506212614000748   1030000100030000   541110001903777031200000019MOB BANK               YGN           MMR11005060818080007480506000000000000000   10300002 00104100000000000000000000006160     
100   9503051893307070000000000001188000000001188000200000001041040506101547000293MBZER10506212616000293   1030000100030000   541120003008777031200000030MOB BANK               YGN           MMR11005061015470002930506000000000000000   10300002 00104100000000000000000000002376     
100   9503051025306545000000000002580000000002580000200000001041040506045015000739QOG5470506212611000739   1030000100030000   541110001903777031200000019MOB BANK               YGN           MMR11005060450150007390506000000000000000   10300002 00104100000000000000000000005160     
100   9503051023261916000000000001880000000001880000200000001041040506052151000741DHQD880506212611000741   1030000100030000   541110001903777031200000019MOB BANK               YGN           MMR11005060521510007410506000000000000000   10300002 00104100000000000000000000003760     
100   95031400000167220000000000021060000000021060002000000010410405060848080003102002140506212615000310   1030000100030000   541120003111777031200000031MOB BANK               YGN           MMR11005060848080003100506000000000000000   10300010 00104100000000000000000000004212     
100   9503051886118773000000000018900000000018900000200000001041040506112347001648RMZGYC0506212617001648   1030000100030000   541110001907777031200000019MOB BANK               YGN           MMR11005061123470016480506000000000000000   10300002 00104100000000000000000000037800     
100   62343301017961140000000000007800000000007800002000000010410405060707570009746847090506212613000974   1030000100030000   541110001915777031200000019MOB BANK               YGN           MMR11005060707570009740506000000000000000   10300004 00104100000000000000000000001560     
100   9503051021947821000000000004067000000004067000200000001041040506115633000154ZB8SGY0506212618000154   1030000100030000   541120003013777031200000030MOB BANK               YGN           MMR11005061156330001540506000000000000000   10300002 00104100000000000000000000008134     
100   9503051888215080000000000000819500000000819500200000001041040506065854001359XJBFRN0506212613001359   1030000100030000   581250000001777031200000005MOB BANK               YGN           MMR11005060658540013590506000000000000000   10300002 00104100000000000000000000002786     
100   9503051026146775000000000002084500000002084500200000001041040506122928001362O8GDXR0506212618001362   1030000100030000   581250000001777031200000005MOB BANK               YGN           MMR11005061229280013620506000000000000000   10300002 00104100000000000000000000007087     
100   9503051025500824000000000003186500000003186500200000001041040506113803000750HHNWPD0506212618000750   1030000100030000   541110001903777031200000019MOB BANK               YGN           MMR11005061138030007500506000000000000000   10300002 00104100000000000000000000006373     
100   9503051021947821000000000001192900000001192900200000001041040506114559000180SZHLVJ0506212618000180   1030000100030000   541120003005777031200000030MOB BANK               YGN           MMR11005061145590001800506000000000000000   10300002 00104100000000000000000000002386     
100   62346600150637340000000000004800000000004800002000000010410405060935080001529612180506212616000152   1030000100030000   541120003013777031200000030MOB BANK               YGN           MMR11005060935080001520506000000000000000   10300005 00104100000000000000000000000960     
100   35710830954802560000000000013860000000013860002000000010410405060542160002451573720506212612000245   1030000100030000   541120003001777031200000030MOB BANK               YGN           MMR11005060542160002450506000000000000000   10300003 00104100000000000000000000002772     
100   95030518861132530000000000032000000000032000002000000010410405060739030007431P7RMT0506212614000743   1030000100030000   541110001903777031200000019MOB BANK               YGN           MMR11005060739030007430506000000000000000   10300002 00104100000000000000000000006400     
100   62921400028543290000000000012800000000012800002000000010410405060745540007442222220506212614000744   1030000100030000   541110001903777031200000019MOB BANK               YGN           MMR11005060745540007440506000000000000000   10300009 00104100000000000000000000002560     
100   9503051886113253000000000002550000000002550000200000001041040506074720000745Z3KWCP0506212614000745   1030000100030000   541110001903777031200000019MOB BANK               YGN           MMR11005060747200007450506000000000000000   10300002 00104100000000000000000000005100     
100   62622000606864620000000000007203000000007203002000000010410405060526100001769588840506212611000176   1030000100030000   541120003005777031200000030MOB BANK               YGN           MMR11005060526100001760506000000000000000   10300006 00104100000000000000000000001441     
100   9503051887191076000000000000220500000000220500200000001041040506125547000183MYEOBY0506212619000183   1030000100030000   541120003005777031200000030MOB BANK               YGN           MMR11005061255470001830506000000000000000   10300002 00104100000000000000000000000441     
100   35710500183891120000000000014800000000014800002000000010410405061036420003117517070506212617000311   1030000100030000   541120003111777031200000031MOB BANK               YGN           MMR11005061036420003110506000000000000000   10300005 00104100000000000000000000002960     
100   35710500174243650000000000020340000000020340002000000010410405061112050003126271480506212617000312   1030000100030000   541120003111777031200000031MOB BANK               YGN           MMR11005061112050003120506000000000000000   10300005 00104100000000000000000000004068     
