100   35710950806771830000000000016800000000016800002000000010410405051239230008205436420505212519000820   1030000100030000   541110001920777031200000019MOB BANK               YGN           MMR11005051239230008200505000000000000000   10300003 00104100000000000000000000003360     
100   62921400080706640000000000010800000000010800002000000010410405050654580007192222220505212513000719   1030000100030000   541110001903777031200000019MOB BANK               YGN           MMR11005050654580007190505000000000000000   10300009 00104100000000000000000000002160     
100   95030800048392750000000000009000000000009000002000000010410405040944050000305744710504212416000030   1030000100030000   541180000001777031200000008MOB BANK               YGN           MMR11005040944050000300504000000000000000   10300003 00104100000000000000000000001800     
100   35710500345099330000000000042000000000042000002000000010410405050538070014448696270505212512001444   1030000100030000   541110001905777031200000019MOB BANK               YGN           MMR11005050538070014440505000000000000000   10300005 00104100000000000000000000008400     
100   35710500365403400000000000012593000000012593002000000010410405050725080001659164880505212513000165   1030000100030000   541120003005777031200000030MOB BANK               YGN           MMR11005050725080001650505000000000000000   10300005 00104100000000000000000000002519     
100   9503051019547740000000000003750000000003750000200000001041040505065551000142JVAPL10505212513000142   1030000100030000   541120003013777031200000030MOB BANK               YGN           MMR11005050655510001420505000000000000000   10300002 00104100000000000000000000007500     
100   95030518919786900000000000023700000000023700002000000010410405051029080001669ETY5Z0505212516000166   1030000100030000   541120003005777031200000030MOB BANK               YGN           MMR11005051029080001660505000000000000000   10300002 00104100000000000000000000004740     
100   950305189710153700000000000152000000000152000020000000104104050511160000014275RTOW0505212517000142   1030000100030000   541120003012777031200000030MOB BANK               YGN           MMR11005051116000001420505000000000000000   10300002 00104100000000000000000000003040     
100   9503051897101537000000000001615000000001615000200000001041040505113431000170HCCS1B0505212518000170   1030000100030000   541120003005777031200000030MOB BANK               YGN           MMR11005051134310001700505000000000000000   10300002 00104100000000000000000000003230     
100   35710500373274810000000000005000000000005000002000000010410405051140350001715700380505212518000171   1030000100030000   541120003005777031200000030MOB BANK               YGN           MMR11005051140350001710505000000000000000   10300005 00104100000000000000000000001000     
100   9503051021644337000000000004070000000004070000200000001041040505045912000138IDAAXP0505212511000138   1030000100030000   541120003012777031200000030MOB BANK               YGN           MMR11005050459120001380505000000000000000   10300002 00104100000000000000000000008140     
100   35710950360405100000000000010600000000010600002000000010410405050350290002792263020505212510000279   1030000100030000   541120003008777031200000030MOB BANK               YGN           MMR11005050350290002790505000000000000000   10300003 00104100000000000000000000002120     
100   35710900106381990000000000019600000000019600002000000010410405050333060002772158800505212510000277   1030000100030000   541120003008777031200000030MOB BANK               YGN           MMR11005050333060002770505000000000000000   10300003 00104100000000000000000000003920     
100   35710900106381990000000000007700000000007700002000000010410405050345560002782235810505212510000278   1030000100030000   541120003008777031200000030MOB BANK               YGN           MMR11005050345560002780505000000000000000   10300003 00104100000000000000000000001540     
100   62346600185817650000000000036000000000036000002000000010410405050518330014336986270505212511001433   1030000100030000   541110001905777031200000019MOB BANK               YGN           MMR11005050518330014330505000000000000000   10300005 00104100000000000000000000007200     
100   9503051026113585000000000007200000000007200000200000001041040505051529001429J5QUBG0505212511001429   1030000100030000   541110001905777031200000019MOB BANK               YGN           MMR11005050515290014290505000000000000000   10300002 00104100000000000000000000014400     
100   35710500393380070000000000009669000000009669002000000010410405051042110001691389190505212517000169   1030000100030000   541120003005777031200000030MOB BANK               YGN           MMR11005051042110001690505000000000000000   10300005 00104100000000000000000000001934     
100   35710830109084230000000000021600000000021600002000000010410405050647020008143322320505212513000814   1030000100030000   541110001920777031200000019MOB BANK               YGN           MMR11005050647020008140505000000000000000   10300003 00104100000000000000000000004320     
100   9503051026113585000000000001930000000001930000200000001041040505052243001440EIAT4I0505212511001440   1030000100030000   541110001905777031200000019MOB BANK               YGN           MMR11005050522430014400505000000000000000   10300002 00104100000000000000000000003860     
100   35710830177224540000000000006600000000006600002000000010410405050305510013551995310505212509001355   1030000100030000   581250000001777031200000005MOB BANK               YGN           MMR11005050305510013550505000000000000000   10300003 00104100000000000000000000002244     
100   35710500335780460000000000009750000000009750002000000010410405050831260007255270330505212515000725   1030000100030000   541110001903777031200000019MOB BANK               YGN           MMR11005050831260007250505000000000000000   10300005 00104100000000000000000000001950     
100   9503051025942935000000000002190000000002190000200000001041040505104511001622FHWG0C0505212517001622   1030000100030000   541110001907777031200000019MOB BANK               YGN           MMR11005051045110016220505000000000000000   10300002 00104100000000000000000000004380     
100   35710900953399780000000000008010000000008010002000000010410405050656400002933380130505212513000293   1030000100030000   541120003111777031200000031MOB BANK               YGN           MMR11005050656400002930505000000000000000   10300003 00104100000000000000000000001602     
100   9503051873285239000000000000800000000000800000200000001041040505105817000283LOTF500505212517000283   1030000100030000   541120003008777031200000030MOB BANK               YGN           MMR11005051058170002830505000000000000000   10300002 00104100000000000000000000001600     
100   9503051024928828000000000008125000000008125000200000001041040505053036000715WKSTHX0505212512000715   1030000100030000   541110001903777031200000019MOB BANK               YGN           MMR11005050530360007150505000000000000000   10300002 00104100000000000000000000016250     
100   35710830244500730000000000021756000000021756002000000010410405050832430016073956500505212515001607   1030000100030000   541110001907777031200000019MOB BANK               YGN           MMR11005050832430016070505000000000000000   10300003 00104100000000000000000000004351     
100   95030518847017030000000000006750000000006750002000000010410405050912200016097SZ6V20505212515001609   1030000100030000   541110001907777031200000019MOB BANK               YGN           MMR11005050912200016090505000000000000000   10300002 00104100000000000000000000001350     
100   9503051887191076000000000000254800000000254800200000001041040505125412000174FJXQUJ0505212519000174   1030000100030000   541120003005777031200000030MOB BANK               YGN           MMR11005051254120001740505000000000000000   10300002 00104100000000000000000000000510     
100   95030510247145900000000000028800000000028800002000000010410405050646370007171RZRVN0505212513000717   1030000100030000   541110001903777031200000019MOB BANK               YGN           MMR11005050646370007170505000000000000000   10300002 00104100000000000000000000005760     
100   62921400012796350000000000061600000000061600002000000010410405051106280007272222220505212517000727   1030000100030000   541110001903777031200000019MOB BANK               YGN           MMR11005051106280007270505000000000000000   10300009 00104100000000000000000000012320     
100   62346600185817650000000000035900000000035900002000000010410405050508460014253658440505212511001425   1030000100030000   541110001905777031200000019MOB BANK               YGN           MMR11005050508460014250505000000000000000   10300005 00104100000000000000000000007180     
100   35710830115176600000000000014500000000014500002000000010410405050817470002963866820505212514000296   1030000100030000   541120003111777031200000031MOB BANK               YGN           MMR11005050817470002960505000000000000000   10300003 00104100000000000000000000002900     
100   95031800466779130000000000004600000000004600002000000010410405051127170002984797860505212517000298   1030000100030000   541120003102777031200000031MOB BANK               YGN           MMR11005051127170002980505000000000000000   10300013 00104100000000000000000000000920     
100   35710900106381990000000000016840000000016840002000000010410405050417120002412423310505212510000241   1030000100030000   541120003001777031200000030MOB BANK               YGN           MMR11005050417120002410505000000000000000   10300003 00104100000000000000000000003368     
100   9503051884140720000000000003850000000003850000200000001041040505065732000721VRIBOL0505212513000721   1030000100030000   541110001903777031200000019MOB BANK               YGN           MMR11005050657320007210505000000000000000   10300002 00104100000000000000000000007700     
100   9503051892783875000000000002835000000002835000200000001041040505060949000520TTD5CT0505212512000520   1030000100030000   541120003103777031200000031MOB BANK               YGN           MMR11005050609490005200505000000000000000   10300002 00104100000000000000000000005670     
100   9503051023298173000000000003350000000003350000200000001041040505113124000729RKEORZ0505212518000729   1030000100030000   541110001903777031200000019MOB BANK               YGN           MMR11005051131240007290505000000000000000   10300002 00104100000000000000000000006700     
100   9503051025039203000000000002880000000002880000200000001041040505055834000517M1KOCO0505212512000517   1030000100030000   541120003103777031200000031MOB BANK               YGN           MMR11005050558340005170505000000000000000   10300002 00104100000000000000000000005760     
100   9503051891517019000000000001395000000001395000200000001041040505102316000301RTZAGS0505212516000301   1030000100030000   541120003111777031200000031MOB BANK               YGN           MMR11005051023160003010505000000000000000   10300002 00104100000000000000000000002790     
100   62443000160241240000000000005400000000005400002000000010410405051207160003042983010505212518000304   1030000100030000   541120003111777031200000031MOB BANK               YGN           MMR11005051207160003040505000000000000000   10300005 00104100000000000000000000001890     
100   35710500314339210000000000026400000000026400002000000010410405050403010008121237730505212510000812   1030000100030000   541110001920777031200000019MOB BANK               YGN           MMR11005050403010008120505000000000000000   10300005 00104100000000000000000000005280     
100   9503051024714590000000000000450000000000450000200000001041040505061510000813ITUENB0505212512000813   1030000100030000   541110001920777031200000019MOB BANK               YGN           MMR11005050615100008130505000000000000000   10300002 00104100000000000000000000000900     
100   35710830624293020000000000028500000000028500002000000010410405050809570007233819910505212514000723   1030000100030000   541110001903777031200000019MOB BANK               YGN           MMR11005050809570007230505000000000000000   10300003 00104100000000000000000000005700     
100   9503051024582542000000000010860000000010860000200000001041040505042919000710EXNSJ10505212510000710   1030000100030000   541110001903777031200000019MOB BANK               YGN           MMR11005050429190007100505000000000000000   10300002 00104100000000000000000000021720     
100   9503051888743537000000000004400000000004400000200000001041040505062745000710UZFURD0505212512000710   1030000100030000   581210001501777031200000015MOB BANK               YGN           MMR11005050627450007100505000000000000000   10300002 00104100000000000000000000014960     
100   35710830244500730000000000008000000000008000002000000010410405050712010008153472220505212513000815   1030000100030000   541110001920777031200000019MOB BANK               YGN           MMR11005050712010008150505000000000000000   10300003 00104100000000000000000000001600     
100   35710830343495880000000000195250000000195250002000000010410405051323520007115703410505212519000711   1030000100030000   581210001501777031200000015MOB BANK               YGN           MMR11005051323520007110505000000000000000   10300003 00104100000000000000000000066385     
100   9503051020466021000000000003880000000003880000200000001041040505120546000731OIZMRB0505212518000731   1030000100030000   541110001903777031200000019MOB BANK               YGN           MMR11005051205460007310505000000000000000   10300002 00104100000000000000000000007760     
100   35710500343646930000000000034522000000034522002000000010410405051221080007333931860505212518000733   1030000100030000   541110001903777031200000019MOB BANK               YGN           MMR11005051221080007330505000000000000000   10300005 00104100000000000000000000006904     
100   35710950806771830000000000017357000000017357002000000010410405051232450007355396700505212519000735   1030000100030000   541110001903777031200000019MOB BANK               YGN           MMR11005051232450007350505000000000000000   10300003 00104100000000000000000000003472     
100   35710830448165270000000000014300000000014300002000000010410405051049260014504776800505212517001450   1030000100030000   541110001905777031200000019MOB BANK               YGN           MMR11005051049260014500505000000000000000   10300003 00104100000000000000000000002860     
100   9503190000020265000000000003300000000003300000200000001041040505105815000818GXCCZC0505212517000818   1030000100030000   541110001920777031200000019MOB BANK               YGN           MMR11005051058150008180505000000000000000   10300014 00104100000000000000000000006600     
100   9503051887260228000000000002950000000002950000200000001041040505112444000818PO4BWH0505212517000818   1030000100030000   541120003106777031200000031MOB BANK               YGN           MMR11005051124440008180505000000000000000   10300002 00104100000000000000000000005900     
100   9503051024582542000000000008130000000008130000200000001041040505051213000713LRUQFR0505212511000713   1030000100030000   541110001903777031200000019MOB BANK               YGN           MMR11005050512130007130505000000000000000   10300002 00104100000000000000000000016260     
100   62441900101362260000000000086460000000086460002000000010410405051341170007125910010505212520000712   1030000100030000   581210001501777031200000015MOB BANK               YGN           MMR11005051341170007120505000000000000000   10300003 00104100000000000000000000051444     
100   35710500353654910000000000018500000000018500002000000010410405051058220016252389690505212517001625   1030000100030000   541110001907777031200000019MOB BANK               YGN           MMR11005051058220016250505000000000000000   10300005 00104100000000000000000000003700     
100   9503051892966637000000000000764500000000764500200000001041040505124022001356DIW9I10505212519001356   1030000100030000   581250000001777031200000005MOB BANK               YGN           MMR11005051240220013560505000000000000000   10300002 00104100000000000000000000002599     
100   95030799001123320000000000016300000000016300002000000010410405050713020016057650180505212513001605   1030000100030000   541110001907777031200000019MOB BANK               YGN           MMR11005050713020016050505000000000000000   10200004 00104100000000000000000000003260     
