100   9503051887191076000000000000661500000000661500200000001041040518131603000314XNF26W0518213819000314   1030000100030000   541120003005777031200000030MOB BANK               YGN           MMR11005181316030003140518000000000000000   10300002 00104100000000000000000000001323     
100   9503051021948019000000000000695000000000695000200000001041040518104924000307VDLVDP0518213817000307   1030000100030000   541120003001777031200000030MOB BANK               YGN           MMR11005181049240003070518000000000000000   10300002 00104100000000000000000000001390     
100   9503051890707207000000000002040000000002040000200000001041040518122832000411L1TIYU0518213818000411   1030000100030000   541120003003777031200000030MOB BANK               YGN           MMR11005181228320004110518000000000000000   10300002 00104100000000000000000000004080     
100   35710830049253180000000000008690000000008690002000000010410405181247060014227802810518213819001422   1030000100030000   581250000001777031200000005MOB BANK               YGN           MMR11005181247060014220518000000000000000   10300003 00104100000000000000000000002955     
100   9503051025593647000000000002400000000002400000200000001041040518123050000593K5TRNU0518213819000593   1030000100030000   541120003103777031200000031MOB BANK               YGN           MMR11005181230500005930518000000000000000   10300002 00104100000000000000000000004800     
100   35710830320895580000000000020188000000020188002000000010410405180934430004036648410518213816000403   1030000100030000   541120003104777031200000031MOB BANK               YGN           MMR11005180934430004030518000000000000000   10300003 00104100000000000000000000004038     
100   35710830174553520000000000012000000000012000002000000010410405180938110004056669300518213816000405   1030000100030000   541120003104777031200000031MOB BANK               YGN           MMR11005180938110004050518000000000000000   10300003 00104100000000000000000000002400     
100   9503051021948019000000000000750000000000750000200000001041040518104245000444Z69CNQ0518213817000444   1030000100030000   541120003008777031200000030MOB BANK               YGN           MMR11005181042450004440518000000000000000   10300002 00104100000000000000000000001500     
100   9503051024914661000000000000900000000000900000200000001041040518103628000368TQXOG10518213817000368   1030000100030000   541120003111777031200000031MOB BANK               YGN           MMR11005181036280003680518000000000000000   10300002 00104100000000000000000000001800     
100   9503051025215209000000000004600000000004600000200000001041040518101757000584XCQQIU0518213816000584   1030000100030000   581210001201777031200000012MOB BANK               YGN           MMR11005181017570005840518000000000000000   10300002 00104100000000000000000000015640     
100   35710830811220030000000000010500000000010500002000000010410405180435460003994854710518213811000399   1030000100030000   541120003104777031200000031MOB BANK               YGN           MMR11005180435460003990518000000000000000   10300003 00104100000000000000000000002100     
100   35710830206083850000000000054340000000054340002000000010410405181320160008048001710518213819000804   1030000100030000   581210001501777031200000015MOB BANK               YGN           MMR11005181320160008040518000000000000000   10300003 00104100000000000000000000018476     
100   9503051022374967000000000001104000000001104000200000001041040518100851000998KMK0GY0518213816000998   1030000100030000   541110001920777031200000019MOB BANK               YGN           MMR11005181008510009980518000000000000000   10300002 00104100000000000000000000002208     
100   95030510234951830000000000004500000000004500002000000010410405180328170003081XG4TF0518213809000308   1030000100030000   541120003005777031200000030MOB BANK               YGN           MMR11005180328170003080518000000000000000   10300002 00104100000000000000000000000900     
100   35710500123981270000000000024500000000024500002000000010410405181138260003081707610518213818000308   1030000100030000   541120003001777031200000030MOB BANK               YGN           MMR11005181138260003080518000000000000000   10300005 00104100000000000000000000004900     
100   35710500374393440000000000008692000000008692002000000010410405181046220004061386340518213817000406   1030000100030000   541120003003777031200000030MOB BANK               YGN           MMR11005181046220004060518000000000000000   10300005 00104100000000000000000000001738     
100   62346600121299180000000000028800000000028800002000000010410405180927550010244738540518213815001024   1030000100030000   541110001903777031200000019MOB BANK               YGN           MMR11005180927550010240518000000000000000   10300005 00104100000000000000000000005760     
100   9503051025548252000000000008510000000008510000200000001041040518094232001027ZWBAQH0518213816001027   1030000100030000   541110001903777031200000019MOB BANK               YGN           MMR11005180942320010270518000000000000000   10300002 00104100000000000000000000017020     
100   35710830612543390000000000023000000000023000002000000010410405181103080003697178920518213817000369   1030000100030000   541120003111777031200000031MOB BANK               YGN           MMR11005181103080003690518000000000000000   10300003 00104100000000000000000000004600     
100   95030518946541400000000000058200000000058200002000000010410405181358260005851P2XQV0518213820000585   1030000100030000   581210001201777031200000012MOB BANK               YGN           MMR11005181358260005850518000000000000000   10300002 00104100000000000000000000019788     
100   35710500335401450000000000005700000000005700002000000010410405180526270004002126050518213811000400   1030000100030000   541120003003777031200000030MOB BANK               YGN           MMR11005180526270004000518000000000000000   10300005 00104100000000000000000000001140     
100   62921400044838530000000000072710000000072710002000000010410405181506420008062222220518213821000806   1030000100030000   581210001501777031200000015MOB BANK               YGN           MMR11005181506420008060518000000000000000   10300009 00104100000000000000000000024722     
100   9503051022374967000000000001056000000001056000200000001041040518101253001002FK0TKJ0518213816001002   1030000100030000   541110001920777031200000019MOB BANK               YGN           MMR11005181012530010020518000000000000000   10300002 00104100000000000000000000002112     
100   9503051890991322000000000002180000000002180000200000001041040518071117001018JZ5RPP0518213813001018   1030000100030000   541110001903777031200000019MOB BANK               YGN           MMR11005180711170010180518000000000000000   10300002 00104100000000000000000000004360     
100   9503051892061371000000000002950000000002950000200000001041040518080619001267QHAMYH0518213814001267   1030000100030000   541120003117777031200000031MOB BANK               YGN           MMR11005180806190012670518000000000000000   10300002 00104100000000000000000000005900     
100   35710500345603650000000000024000000000024000002000000010410405180527070002382381340518213811000238   1030000100030000   541120003013777031200000030MOB BANK               YGN           MMR11005180527070002380518000000000000000   10300005 00104100000000000000000000004800     
100   9503051886997937000000000036000000000036000000200000001041040518102046002182B4B6NT0518213816002182   1030000100030000   541110001907777031200000019MOB BANK               YGN           MMR11005181020460021820518000000000000000   10300002 00104100000000000000000000072000     
100   62343301017707700000000000023618000000023618002000000010410405180849390021712871210518213815002171   1030000100030000   541110001907777031200000019MOB BANK               YGN           MMR11005180849390021710518000000000000000   10300004 00104100000000000000000000004724     
100   62622000005987510000000000068600000000068600002000000010410405181023250021843298630518213816002184   1030000100030000   541110001907777031200000019MOB BANK               YGN           MMR11005181023250021840518000000000000000   10300006 00104100000000000000000000013720     
100   62346600106859600000000000029900000000029900002000000010410405180901130021734027680518213815002173   1030000100030000   541110001907777031200000019MOB BANK               YGN           MMR11005180901130021730518000000000000000   10300005 00104100000000000000000000005980     
100   62346600131981360000000000010660000000010660002000000010410405181217470021869575530518213818002186   1030000100030000   541110001907777031200000019MOB BANK               YGN           MMR11005181217470021860518000000000000000   10300005 00104100000000000000000000002132     
100   62346600106859600000000000009800000000009800002000000010410405180906550021757609800518213815002175   1030000100030000   541110001907777031200000019MOB BANK               YGN           MMR11005180906550021750518000000000000000   10300005 00104100000000000000000000001960     
100   35710830942412120000000000022650000000022650002000000010410405180521030021655126510518213811002165   1030000100030000   541110001907777031200000019MOB BANK               YGN           MMR11005180521030021650518000000000000000   10300003 00104100000000000000000000004530     
100   9503051023355007000000000000540000000000540000200000001041040518124828002188AZHWNC0518213819002188   1030000100030000   541110001907777031200000019MOB BANK               YGN           MMR11005181248280021880518000000000000000   10300002 00104100000000000000000000001080     
100   9503051022374967000000000002042400000002042400200000001041040518092746002178MR02QU0518213815002178   1030000100030000   541110001907777031200000019MOB BANK               YGN           MMR11005180927460021780518000000000000000   10300002 00104100000000000000000000004085     
100   9503051890233451000000000001080000000001080000200000001041040518052949002168Y23GPX0518213811002168   1030000100030000   541110001907777031200000019MOB BANK               YGN           MMR11005180529490021680518000000000000000   10300002 00104100000000000000000000002160     
100   62346600131981360000000000010218000000010218002000000010410405180948070021809837230518213816002180   1030000100030000   541110001907777031200000019MOB BANK               YGN           MMR11005180948070021800518000000000000000   10300005 00104100000000000000000000002044     
100   95030510241016990000000000038900000000038900002000000010410405170549350003823V9HDS0517213712000382   1030000100030000   541120003104777031200000031MOB BANK               YGN           MMR11005170549350003820517000000000000000   10300002 00104100000000000000000000007780     
100   95030518919786900000000000015200000000015200002000000010410405170618150004197LCBE40517213712000419   1030000100030000   541120003008777031200000030MOB BANK               YGN           MMR11005170618150004190517000000000000000   10300002 00104100000000000000000000003040     
100   35710830338581670000000000008448000000008448002000000010410405171212320004378955320517213718000437   1030000100030000   541120003008777031200000030MOB BANK               YGN           MMR11005171212320004370517000000000000000   10300003 00104100000000000000000000001690     
100   35710830256569260000000000007600000000007600002000000010410405170613240003866800510517213712000386   1030000100030000   541120003104777031200000031MOB BANK               YGN           MMR11005170613240003860517000000000000000   10300003 00104100000000000000000000001520     
100   9503051885601035000000000001280000000001280000200000001041040517081147000390EUYG4S0517213714000390   1030000100030000   541120003104777031200000031MOB BANK               YGN           MMR11005170811470003900517000000000000000   10300002 00104100000000000000000000002560     
100   35710900116061460000000000050000000000050000002000000010410405171035080007948371000517213717000794   1030000100030000   581210001501777031200000015MOB BANK               YGN           MMR11005171035080007940517000000000000000   10300003 00104100000000000000000000017000     
100   62346600128958980000000000006500000000006500002000000010410405170958350002376490700517213716000237   1030000100030000   541120003110777031200000031MOB BANK               YGN           MMR11005170958350002370517000000000000000   10300005 00104100000000000000000000001300     
100   9503051020718090000000000003080000000003080000200000001041040517092700001010XUY2FO0517213715001010   1030000100030000   541110001903777031200000019MOB BANK               YGN           MMR11005170927000010100517000000000000000   10300002 00104100000000000000000000006160     
100   35710500142767680000000000196800000000196800002000000010410405171112150015587147250517213717001558   1030000100030000   541160000001777031200000006MOB BANK               YGN           MMR11005171112150015580517000000000000000   10300005 00104100000000000000000000039360     
100   35710500333058870000000000016100000000016100002000000010410405171048340003923236300517213717000392   1030000100030000   541120003104777031200000031MOB BANK               YGN           MMR11005171048340003920517000000000000000   10300005 00104100000000000000000000003220     
100   9503051891978690000000000002800000000002800000200000001041040517065556000296KOIYDH0517213713000296   1030000100030000   541120003005777031200000030MOB BANK               YGN           MMR11005170655560002960517000000000000000   10300002 00104100000000000000000000005600     
100   35710500335346190000000000022550000000022550002000000010410405170527340014174593590517213711001417   1030000100030000   581250000001777031200000005MOB BANK               YGN           MMR11005170527340014170517000000000000000   10300005 00104100000000000000000000007667     
100   9503051888812357000000000000472500000000472500200000001041040517061355001418ZE3OYP0517213712001418   1030000100030000   581250000001777031200000005MOB BANK               YGN           MMR11005170613550014180517000000000000000   10300002 00104100000000000000000000001606     
100   9503051894186481000000000000620000000000620000200000001041040517063715000423EMWB0Z0517213713000423   1030000100030000   541120003008777031200000030MOB BANK               YGN           MMR11005170637150004230517000000000000000   10300002 00104100000000000000000000001240     
100   35710830825925840000000000004400000000004400002000000010410405171044220002988426410517213717000298   1030000100030000   541120003005777031200000030MOB BANK               YGN           MMR11005171044220002980517000000000000000   10300003 00104100000000000000000000000880     
100   9503051026193090000000000001720000000001720000200000001041040517082049002142YWKOEK0517213714002142   1030000100030000   541110001907777031200000019MOB BANK               YGN           MMR11005170820490021420517000000000000000   10300002 00104100000000000000000000003440     
100   9503051894186481000000000001150000000001150000200000001041040517061901000172UWIRJT0517213712000172   1030000100030000   541120003012777031200000030MOB BANK               YGN           MMR11005170619010001720517000000000000000   10300002 00104100000000000000000000002300     
100   35710500320588750000000000008900000000008900002000000010410405170848200004256537780517213715000425   1030000100030000   541120003008777031200000030MOB BANK               YGN           MMR11005170848200004250517000000000000000   10300005 00104100000000000000000000001780     
100   9503051024350247000000000002500000000002500000200000001041040517083306000362BTSDEZ0517213715000362   1030000100030000   541120003111777031200000031MOB BANK               YGN           MMR11005170833060003620517000000000000000   10300002 00104100000000000000000000005000     
100   35710500351145760000000000007200000000007200002000000010410405171045370002305358760517213717000230   1030000100030000   541120003013777031200000030MOB BANK               YGN           MMR11005171045370002300517000000000000000   10300005 00104100000000000000000000001440     
100   35710500393561320000000000026450000000026450002000000010410405170656360018769140030517213713001876   1030000100030000   541110001905777031200000019MOB BANK               YGN           MMR11005170656360018760517000000000000000   10300005 00104100000000000000000000005290     
100   95030800082796840000000000013926000000013926002000000010410405171145100002998791210517213718000299   1030000100030000   541120003001777031200000030MOB BANK               YGN           MMR11005171145100002990517000000000000000   10300003 00104100000000000000000000002785     
100   9503051895484265000000000007150000000007150000200000001041040517061055000580TZUOPY0517213712000580   1030000100030000   581210001201777031200000012MOB BANK               YGN           MMR11005170610550005800517000000000000000   10300002 00104100000000000000000000024310     
100   35710500351942220000000000012600000000012600002000000010410405170424580012498961080517213710001249   1030000100030000   541120003117777031200000031MOB BANK               YGN           MMR11005170424580012490517000000000000000   10300005 00104100000000000000000000002520     
100   9503051887191076000000000000441000000000441000200000001041040517121423000301UCH5BY0517213718000301   1030000100030000   541120003005777031200000030MOB BANK               YGN           MMR11005171214230003010517000000000000000   10300002 00104100000000000000000000000882     
100   35710500144747100000000000013344000000013344002000000010410405170904060021483411080517213715002148   1030000100030000   541110001907777031200000019MOB BANK               YGN           MMR11005170904060021480517000000000000000   10300005 00104100000000000000000000002669     
100   62921400064182870000000000020250000000020250002000000010410405170412280001662222220517213710000166   1030000100030000   541120003002777031200000030MOB BANK               YGN           MMR11005170412280001660517000000000000000   10300009 00104100000000000000000000004050     
100   35710500381711510000000000004000000000004000002000000010410405171020160004282706770517213716000428   1030000100030000   541120003008777031200000030MOB BANK               YGN           MMR11005171020160004280517000000000000000   10300005 00104100000000000000000000000800     
100   35710830938304600000000000028500000000028500002000000010410405170851110003637747300517213715000363   1030000100030000   541120003111777031200000031MOB BANK               YGN           MMR11005170851110003630517000000000000000   10300003 00104100000000000000000000005700     
100   9503051022643577000000000002100000000002100000200000001041040517093544000364YCRRAY0517213716000364   1030000100030000   541120003111777031200000031MOB BANK               YGN           MMR11005170935440003640517000000000000000   10300002 00104100000000000000000000004200     
100   9503051024101772000000000001300000000001300000200000001041040517090947001887LG9AWQ0517213715001887   1030000100030000   541110001905777031200000019MOB BANK               YGN           MMR11005170909470018870517000000000000000   10300002 00104100000000000000000000002600     
100   95030510258401130000000000039180000000039180002000000010410405170849200021452TGHWP0517213715002145   1030000100030000   541110001907777031200000019MOB BANK               YGN           MMR11005170849200021450517000000000000000   10300002 00104100000000000000000000007836     
100   9503051894186481000000000000990000000000990000200000001041040517064557000167JAJOIV0517213713000167   1030000100030000   541120003002777031200000030MOB BANK               YGN           MMR11005170645570001670517000000000000000   10300002 00104100000000000000000000001980     
100   35710830982925750000000000020030000000020030002000000010410405171118080002328629010517213717000232   1030000100030000   541120003013777031200000030MOB BANK               YGN           MMR11005171118080002320517000000000000000   10300003 00104100000000000000000000004006     
100   35710900213540420000000000357000000000357000002000000010410405171533310005810161300517213722000581   1030000100030000   581210001201777031200000012MOB BANK               YGN           MMR11005171533310005810517000000000000000   10300003 00104100000000000000000000121380     
100   35710500365807910000000000009250000000009250002000000010410405171000310012595980130517213716001259   1030000100030000   541120003117777031200000031MOB BANK               YGN           MMR11005171000310012590517000000000000000   10300005 00104100000000000000000000001850     
100   9503051891978690000000000002990000000002990000200000001041040517063516000133TN4GLS0517213713000133   1030000100030000   541120003006777031200000030MOB BANK               YGN           MMR11005170635160001330517000000000000000   10300002 00104100000000000000000000005980     
100   35710830338581670000000000042720000000042720002000000010410405171146400002338800110517213718000233   1030000100030000   541120003013777031200000030MOB BANK               YGN           MMR11005171146400002330517000000000000000   10300003 00104100000000000000000000008544     
100   9503051897463697000000000003505000000003505000200000001041040517045747000411IB9EZM0517213711000411   1030000100030000   541120003008777031200000030MOB BANK               YGN           MMR11005170457470004110517000000000000000   10300002 00104100000000000000000000007010     
100   35710500373642450000000000016494000000016494002000000010410405170930570021501766680517213716002150   1030000100030000   541110001907777031200000019MOB BANK               YGN           MMR11005170930570021500517000000000000000   10300005 00104100000000000000000000003299     
100   95030800082796840000000000042483000000042483002000000010410405171134420003008728410517213718000300   1030000100030000   541120003005777031200000030MOB BANK               YGN           MMR11005171134420003000517000000000000000   10300003 00104100000000000000000000008497     
100   35710830338581670000000000008463000000008463002000000010410405171239060003029114720517213719000302   1030000100030000   541120003005777031200000030MOB BANK               YGN           MMR11005171239060003020517000000000000000   10300003 00104100000000000000000000001693     
100   35710500385506440000000000012500000000012500002000000010410405170516170021187544380517213711002118   1030000100030000   541110001907777031200000019MOB BANK               YGN           MMR11005170516170021180517000000000000000   10300005 00104100000000000000000000002500     
100   35710500373620170000000000003900000000003900002000000010410405171127010019012848700517213717001901   1030000100030000   541110001905777031200000019MOB BANK               YGN           MMR11005171127010019010517000000000000000   10300005 00104100000000000000000000000780     
100   35710500365402740000000000021413000000021413002000000010410405171120440002996601020517213717000299   1030000100030000   541120003005777031200000030MOB BANK               YGN           MMR11005171120440002990517000000000000000   10300005 00104100000000000000000000004283     
100   35710500335607390000000000014400000000014400002000000010410405170644150021231948210517213713002123   1030000100030000   541110001907777031200000019MOB BANK               YGN           MMR11005170644150021230517000000000000000   10300005 00104100000000000000000000002880     
100   35710500135368320000000000006300000000006300002000000010410405170606500003841574530517213712000384   1030000100030000   541120003104777031200000031MOB BANK               YGN           MMR11005170606500003840517000000000000000   10300005 00104100000000000000000000001260     
100   9503190000819047000000000035880000000035880000200000001041040517075958001556NFXXHP0517213714001556   1030000100030000   541160000001777031200000006MOB BANK               YGN           MMR11005170759580015560517000000000000000   10300014 00104100000000000000000000071760     
100   35710830920003470000000000024790000000024790002000000010410405171100270003938522810517213717000393   1030000100030000   541120003003777031200000030MOB BANK               YGN           MMR11005171100270003930517000000000000000   10300003 00104100000000000000000000004958     
100   35710500351145760000000000001150000000001150002000000010410405171057370002311817250517213717000231   1030000100030000   541120003013777031200000030MOB BANK               YGN           MMR11005171057370002310517000000000000000   10300005 00104100000000000000000000000230     
100   9503051025982337000000000007680000000007680000200000001041040516104252001252RX5BLE0516213617001252   1030000100030000   541120003106777031200000031MOB BANK               YGN           MMR11005161042520012520516000000000000000   10300002 00104100000000000000000000015360     
100   35710500195836140000000000070000000000070000002000000010410405170715330021274300060517213713002127   1030000100030000   541110001907777031200000019MOB BANK               YGN           MMR11005170715330021270517000000000000000   10300005 00104100000000000000000000014000     
100   9503051024814663000000000008800000000008800000200000001041040517075344000136YUKRZC0517213714000136   1030000100030000   541120003006777031200000030MOB BANK               YGN           MMR11005170753440001360517000000000000000   10300002 00104100000000000000000000017600     
100   35710830767876870000000000079880000000079880002000000010410405170624400003886868210517213712000388   1030000100030000   541120003104777031200000031MOB BANK               YGN           MMR11005170624400003880517000000000000000   10300003 00104100000000000000000000015976     
100   35710500310031120000000000056900000000056900002000000010410405171036050021559221580517213717002155   1030000100030000   541110001907777031200000019MOB BANK               YGN           MMR11005171036050021550517000000000000000   10300005 00104100000000000000000000011380     
100   35710500183222950000000000027050000000027050002000000010410405170818050001759331180517213714000175   1030000100030000   541120003012777031200000030MOB BANK               YGN           MMR11005170818050001750517000000000000000   10300005 00104100000000000000000000005410     
100   9503051021935206000000000001600000000001600000200000001041040517050831000169REFSLW0517213711000169   1030000100030000   541120003012777031200000030MOB BANK               YGN           MMR11005170508310001690517000000000000000   10300002 00104100000000000000000000003200     
100   9503051892543469000000000000230000000000230000200000001041040517050258000413H7RFDX0517213711000413   1030000100030000   541120003008777031200000030MOB BANK               YGN           MMR11005170502580004130517000000000000000   10300002 00104100000000000000000000000460     
100   35710830338581670000000000016608000000016608002000000010410405171200300004338883200517213718000433   1030000100030000   541120003008777031200000030MOB BANK               YGN           MMR11005171200300004330517000000000000000   10300003 00104100000000000000000000003322     
100   9503051024220887000000000000830000000000830000200000001041040518044537000310SWGDCT0518213811000310   1030000100030000   541120003005777031200000030MOB BANK               YGN           MMR11005180445370003100518000000000000000   10300002 00104100000000000000000000001660     
100   95030800070683100000000000034810000000034810002000000010410405181036040004077016600518213817000407   1030000100030000   541120003104777031200000031MOB BANK               YGN           MMR11005181036040004070518000000000000000   10300003 00104100000000000000000000006962     
100   35710500115197800000000000026688000000026688002000000010410405181158020004472913140518213818000447   1030000100030000   541120003008777031200000030MOB BANK               YGN           MMR11005181158020004470518000000000000000   10300005 00104100000000000000000000005338     
100   35710500304290780000000000063000000000063000002000000010410405180156490004488488770518213808000448   1030000100030000   541120000011777031200000002MOB BANK               YGN           MMR11005180156490004480518000000000000000   10300005 00104100000000000000000000012600     
100   35710830950014170000000000010300000000010300002000000010410405180456320004014979400518213811000401   1030000100030000   541120003104777031200000031MOB BANK               YGN           MMR11005180456320004010518000000000000000   10300003 00104100000000000000000000002060     
100   35710500335725770000000000024500000000024500002000000010410405181048190010291732440518213817001029   1030000100030000   541110001903777031200000019MOB BANK               YGN           MMR11005181048190010290518000000000000000   10300005 00104100000000000000000000004900     
100   9503051026075461000000000002850000000002850000200000001041040518111938001031BJK9Q90518213817001031   1030000100030000   541110001903777031200000019MOB BANK               YGN           MMR11005181119380010310518000000000000000   10300002 00104100000000000000000000005700     
100   35710500193810680000000000009500000000009500002000000010410405180554430003110701050518213812000311   1030000100030000   541120003005777031200000030MOB BANK               YGN           MMR11005180554430003110518000000000000000   10300005 00104100000000000000000000001900     
100   9503051887191076000000000000441000000000441000200000001041040517124442000304EOONYA0517213719000304   1030000100030000   541120003005777031200000030MOB BANK               YGN           MMR11005171244420003040517000000000000000   10300002 00104100000000000000000000000882     
100   62622000226252440000000000001372000000001372002000000010410405171246210003053078070517213719000305   1030000100030000   541120003005777031200000030MOB BANK               YGN           MMR11005171246210003050517000000000000000   10300006 00104100000000000000000000000274     
100   9503051883735462000000000001750000000001750000200000001041040517070247001881PKN2NA0517213713001881   1030000100030000   541110001905777031200000019MOB BANK               YGN           MMR11005170702470018810517000000000000000   10300002 00104100000000000000000000003500     
100   9503051892530482000000000022500000000022500000200000001041040517073628002135TMUFZW0517213714002135   1030000100030000   541110001907777031200000019MOB BANK               YGN           MMR11005170736280021350517000000000000000   10300002 00104100000000000000000000045000     
100   35710500315721400000000000017500000000017500002000000010410405171048050018977633780517213717001897   1030000100030000   541110001905777031200000019MOB BANK               YGN           MMR11005171048050018970517000000000000000   10300005 00104100000000000000000000003500     
100   9503051892543469000000000003150000000003150000200000001041040517054357000415RP7ECL0517213712000415   1030000100030000   541120003008777031200000030MOB BANK               YGN           MMR11005170543570004150517000000000000000   10300002 00104100000000000000000000006300     
100   9503051897463697000000000002500000000002500000200000001041040517054601000417GBGXAE0517213712000417   1030000100030000   541120003008777031200000030MOB BANK               YGN           MMR11005170546010004170517000000000000000   10300002 00104100000000000000000000005000     
100   62622000289253580000000000038800000000038800002000000010410405170625280010061942410517213712001006   1030000100030000   541110001903777031200000019MOB BANK               YGN           MMR11005170625280010060517000000000000000   10300006 00104100000000000000000000007760     
100   62441900001164930000000000011040000000011040002000000010410405180713500002392785110518213813000239   1030000100030000   541120003110777031200000031MOB BANK               YGN           MMR11005180713500002390518000000000000000   10300003 00104100000000000000000000003864     
100   35710830074343000000000000013500000000013500002000000010410405180951090002396747110518213816000239   1030000100030000   541120003013777031200000030MOB BANK               YGN           MMR11005180951090002390518000000000000000   10300003 00104100000000000000000000002700     
100   35710500384968710000000000027100000000027100002000000010410405180845210001245248970518213815000124   1030000100030000   541120003112777031200000031MOB BANK               YGN           MMR11005180845210001240518000000000000000   10300005 00104100000000000000000000005420     
100   35710500374393440000000000006900000000006900002000000010410405181022510001410337610518213816000141   1030000100030000   541120003006777031200000030MOB BANK               YGN           MMR11005181022510001410518000000000000000   10300005 00104100000000000000000000001380     
100   35710830799297570000000000009350000000009350002000000010410405180731240003055908610518213814000305   1030000100030000   541120003102777031200000031MOB BANK               YGN           MMR11005180731240003050518000000000000000   10300003 00104100000000000000000000001870     
100   9503190001507773000000000000120000000000120000200000001041040518080043000312J44N490518213814000312   1030000100030000   541120003005777031200000030MOB BANK               YGN           MMR11005180800430003120518000000000000000   10300014 00104100000000000000000000000240     
100   9503051021948019000000000000360000000000360000200000001041040518105707000408H4O2UI0518213817000408   1030000100030000   541120003003777031200000030MOB BANK               YGN           MMR11005181057070004080518000000000000000   10300002 00104100000000000000000000000720     
100   35710830763510700000000000010100000000010100002000000010410405181200160004497521800518213818000449   1030000100030000   541120003008777031200000030MOB BANK               YGN           MMR11005181200160004490518000000000000000   10300003 00104100000000000000000000002020     
100   9503051024750990000000000005850000000005850000200000001041040517084954001008KQAM1P0517213715001008   1030000100030000   541110001903777031200000019MOB BANK               YGN           MMR11005170849540010080517000000000000000   10300002 00104100000000000000000000011700     
100   35710500395788830000000000030000000000030000002000000010410405171209250004351481870517213718000435   1030000100030000   541120003008777031200000030MOB BANK               YGN           MMR11005171209250004350517000000000000000   10300005 00104100000000000000000000006000     
100   9503051025030111000000000031173000000031173000200000001041040517053826001555JBZRE30517213712001555   1030000100030000   541160000001777031200000006MOB BANK               YGN           MMR11005170538260015550517000000000000000   10300002 00104100000000000000000000062346     
100   35710830221250080000000000025100000000025100002000000010410405171226350019079039620517213718001907   1030000100030000   541110001905777031200000019MOB BANK               YGN           MMR11005171226350019070517000000000000000   10300003 00104100000000000000000000005020     
100   9503051894186481000000000002270000000002270000200000001041040517062943000421SIDRXQ0517213712000421   1030000100030000   541120003008777031200000030MOB BANK               YGN           MMR11005170629430004210517000000000000000   10300002 00104100000000000000000000004540     
100   35710500381711510000000000002800000000002800002000000010410405171032420004305285080517213717000430   1030000100030000   541120003008777031200000030MOB BANK               YGN           MMR11005171032420004300517000000000000000   10300005 00104100000000000000000000000560     
100   9503051883298586000000000009605000000009605000200000001041040517063136001870KMOMTF0517213713001870   1030000100030000   541110001905777031200000019MOB BANK               YGN           MMR11005170631360018700517000000000000000   10300002 00104100000000000000000000019210     
100   9503051023023944000000000003880000000003880000200000001041040517120847001013OM46GO0517213718001013   1030000100030000   541110001903777031200000019MOB BANK               YGN           MMR11005171208470010130517000000000000000   10300002 00104100000000000000000000007760     
100   35710500115197800000000000011270000000011270002000000010410405181212350004517005590518213818000451   1030000100030000   541120003008777031200000030MOB BANK               YGN           MMR11005181212350004510518000000000000000   10300005 00104100000000000000000000002254     
100   62346600171743640000000000005568000000005568002000000010410405180541550009897552490518213812000989   1030000100030000   541110001920777031200000019MOB BANK               YGN           MMR11005180541550009890518000000000000000   10300005 00104100000000000000000000001114     
100   62346600101345630000000000038800000000038800002000000010410405181149130010339951360518213818001033   1030000100030000   541110001903777031200000019MOB BANK               YGN           MMR11005181149130010330518000000000000000   10300005 00104100000000000000000000007760     
100   35710830493606790000000000006400000000006400002000000010410405180524480019125149010518213811001912   1030000100030000   541110001905777031200000019MOB BANK               YGN           MMR11005180524480019120518000000000000000   10300003 00104100000000000000000000001280     
100   95051802670087470000000000015150000000015150002000000010410405180734190003069065780518213814000306   1030000100030000   541120003102777031200000031MOB BANK               YGN           MMR11005180734190003060518000000000000000   10300013 00104100000000000000000000005302     
100   35710500393742180000000000022500000000022500002000000010410405180310110003963292180518213809000396   1030000100030000   541120003104777031200000031MOB BANK               YGN           MMR11005180310110003960518000000000000000   10300005 00104100000000000000000000004500     
100   9503051024643674000000000008244000000008244000200000001041040518030903001563RB5IBM0518213809001563   1030000100030000   541160000001777031200000006MOB BANK               YGN           MMR11005180309030015630518000000000000000   10300002 00104100000000000000000000016488     
100   62622000038546980000000000007100000000007100002000000010410405180639340009933058670518213813000993   1030000100030000   541110001920777031200000019MOB BANK               YGN           MMR11005180639340009930518000000000000000   10300006 00104100000000000000000000001420     
100   35710830763986260000000000014200000000014200002000000010410405171017270002978264810517213716000297   1030000100030000   541120003005777031200000030MOB BANK               YGN           MMR11005171017270002970517000000000000000   10300003 00104100000000000000000000002840     
100   95030800043215550000000000016000000000016000002000000010410405170643350002286981620517213713000228   1030000100030000   541120003013777031200000030MOB BANK               YGN           MMR11005170643350002280517000000000000000   10300003 00104100000000000000000000003200     
100   35710830767876870000000000015300000000015300002000000010410405170617300012556825210517213712001255   1030000100030000   541120003117777031200000031MOB BANK               YGN           MMR11005170617300012550517000000000000000   10300003 00104100000000000000000000003060     
100   9503190005892080000000000001180000000001180000200000001041040517042814002114S4R7MR0517213710002114   1030000100030000   541110001907777031200000019MOB BANK               YGN           MMR11005170428140021140517000000000000000   10300014 00104100000000000000000000002360     
100   62343302007021200000000000095000000000095000002000000010410405170729440021306997900517213713002130   1030000100030000   541110001907777031200000019MOB BANK               YGN           MMR11005170729440021300517000000000000000   10300004 00104100000000000000000000019000     
100   35710830920003470000000000026853000000026853002000000010410405181042350003137055700518213817000313   1030000100030000   541120003005777031200000030MOB BANK               YGN           MMR11005181042350003130518000000000000000   10300003 00104100000000000000000000005371     
100   35710500123981270000000000016000000000016000002000000010410405181147280002402745750518213818000240   1030000100030000   541120003013777031200000030MOB BANK               YGN           MMR11005181147280002400518000000000000000   10300005 00104100000000000000000000003200     
100   9503051024193183000000000000760000000000760000200000001041040518115832000409DWTYFW0518213818000409   1030000100030000   541120003003777031200000030MOB BANK               YGN           MMR11005181158320004090518000000000000000   10300002 00104100000000000000000000001520     
100   35710500343662920000000000021900000000021900002000000010410405180454210001391398480518213811000139   1030000100030000   541120003006777031200000030MOB BANK               YGN           MMR11005180454210001390518000000000000000   10300005 00104100000000000000000000004380     
100   35710830920003470000000000014932000000014932002000000010410405181019330003066917410518213816000306   1030000100030000   541120003001777031200000030MOB BANK               YGN           MMR11005181019330003060518000000000000000   10300003 00104100000000000000000000002986     
100   95030510242181700000000000065700000000065700002000000010410405180928140004031IX4PM0518213815000403   1030000100030000   541120003003777031200000030MOB BANK               YGN           MMR11005180928140004030518000000000000000   10300002 00104100000000000000000000013140     
100   9503051022625715000000000004580000000004580000200000001041040518075140000441OFLJDS0518213814000441   1030000100030000   541120003008777031200000030MOB BANK               YGN           MMR11005180751400004410518000000000000000   10300002 00104100000000000000000000009160     
100   9503051026355574000000000004360000000004360000200000001041040518090025001021PVKHBB0518213815001021   1030000100030000   541110001903777031200000019MOB BANK               YGN           MMR11005180900250010210518000000000000000   10300002 00104100000000000000000000008720     
100   35710500136009270000000000022900000000022900002000000010410405180648230012642718150518213813001264   1030000100030000   541120003117777031200000031MOB BANK               YGN           MMR11005180648230012640518000000000000000   10300005 00104100000000000000000000004580     
100   35710500325415240000000000227580000000227580002000000010410405180440380015655637360518213811001565   1030000100030000   541160000001777031200000006MOB BANK               YGN           MMR11005180440380015650518000000000000000   10300005 00104100000000000000000000045516     
100   35710500384968710000000000021000000000021000002000000010410405180820590003663934710518213814000366   1030000100030000   541120003111777031200000031MOB BANK               YGN           MMR11005180820590003660518000000000000000   10300005 00104100000000000000000000004200     
100   95030518940174210000000000068000000000068000002000000010410405180825460003675KCGLN0518213814000367   1030000100030000   541120003111777031200000031MOB BANK               YGN           MMR11005180825460003670518000000000000000   10300002 00104100000000000000000000013600     
100   9503051884794146000000000000150000000000150000200000001041040518031917000398UDV9UM0518213809000398   1030000100030000   541120003104777031200000031MOB BANK               YGN           MMR11005180319170003980518000000000000000   10300002 00104100000000000000000000000300     
100   9503190001340183000000000001650000000001650000200000001041040518063943000802M0WHK00518213813000802   1030000100030000   581210001501777031200000015MOB BANK               YGN           MMR11005180639430008020518000000000000000   10300014 00104100000000000000000000005610     
100   35710500330587830000000000005100000000005100002000000010410405180705570009955634530518213813000995   1030000100030000   541110001920777031200000019MOB BANK               YGN           MMR11005180705570009950518000000000000000   10300005 00104100000000000000000000001020     
100   35710500351992960000000000009460000000009460002000000010410405181246130014211921920518213819001421   1030000100030000   581250000001777031200000005MOB BANK               YGN           MMR11005181246130014210518000000000000000   10300005 00104100000000000000000000003216     
