100   35710950807678100000000000122100000000122100002000000010410406021412070006407912900602215320000640   1030000100030000   581210001201777031200000012MOB BANK               YGN           MMR11006021412070006400602000000000000000   10300003 00104100000000000000000000041514     
100   9503051021353475000000000001150000000001150000200000001041040603053258001564FHBXHD0603215412001564   1030000100030000   541120003117777031200000031MOB BANK               YGN           MMR11006030532580015640603000000000000000   10300002 00104100000000000000000000002300     
100   62343301015359830000000000034680000000034680002000000010410406030334200028086855290603215410002808   1030000100030000   541110001907777031200000019MOB BANK               YGN           MMR11006030334200028080603000000000000000   10300004 00104100000000000000000000006936     
100   9503051872804584000000000002240000000002240000200000001041040603064108001291UEKFTM0603215413001291   1030000100030000   541110001915777031200000019MOB BANK               YGN           MMR11006030641080012910603000000000000000   10300002 00104100000000000000000000004480     
100   35710830257243510000000000008600000000008600002000000010410406030947040004534962610603215416000453   1030000100030000   541120003005777031200000030MOB BANK               YGN           MMR11006030947040004530603000000000000000   10300003 00104100000000000000000000001720     
100   9503051891577211000000000004208000000004208000200000001041040603095145000473JLINMP0603215416000473   1030000100030000   541120003111777031200000031MOB BANK               YGN           MMR11006030951450004730603000000000000000   10300002 00104100000000000000000000008416     
100   35710500365459920000000000013900000000013900002000000010410406030838460012996209320603215415001299   1030000100030000   541110001915777031200000019MOB BANK               YGN           MMR11006030838460012990603000000000000000   10300005 00104100000000000000000000002780     
100   9503051885483558000000000000970000000000970000200000001041040603094959001469KI2TGC0603215416001469   1030000100030000   541110001903777031200000019MOB BANK               YGN           MMR11006030949590014690603000000000000000   10300002 00104100000000000000000000001940     
100   62343302005892200000000000014800000000014800002000000010410406031109410012687961980603215417001268   1030000100030000   541110001920777031200000019MOB BANK               YGN           MMR11006031109410012680603000000000000000   10300004 00104100000000000000000000002960     
100   9503051020718090000000000004180000000004180000200000001041040603100900001472HPDVHR0603215416001472   1030000100030000   541110001903777031200000019MOB BANK               YGN           MMR11006031009000014720603000000000000000   10300002 00104100000000000000000000008360     
100   9503051024072973000000000001850000000001850000200000001041040603071120002812AD0COP0603215413002812   1030000100030000   541110001907777031200000019MOB BANK               YGN           MMR11006030711200028120603000000000000000   10300002 00104100000000000000000000003700     
100   62622000226252440000000000006084000000006084002000000010410406031106020004556978620603215417000455   1030000100030000   541120003005777031200000030MOB BANK               YGN           MMR11006031106020004550603000000000000000   10300006 00104100000000000000000000001217     
100   9503051873224576000000000002353500000002353500200000001041040603094057000551CZAURR0603215416000551   1030000100030000   541120003104777031200000031MOB BANK               YGN           MMR11006030940570005510603000000000000000   10300002 00104100000000000000000000004707     
100   35710830473102880000000000029500000000029500002000000010410406031003420014715062410603215416001471   1030000100030000   541110001903777031200000019MOB BANK               YGN           MMR11006031003420014710603000000000000000   10300003 00104100000000000000000000005900     
100   95030518853015940000000000019800000000019800002000000010410406030801260012938TQD4V0603215414001293   1030000100030000   541110001915777031200000019MOB BANK               YGN           MMR11006030801260012930603000000000000000   10300002 00104100000000000000000000003960     
100   35710830546747090000000000008000000000008000002000000010410406031030330004745223510603215417000474   1030000100030000   541120003111777031200000031MOB BANK               YGN           MMR11006031030330004740603000000000000000   10300003 00104100000000000000000000001600     
100   9503051022939587000000000000710000000000710000200000001041040603094549001301XZS5UI0603215416001301   1030000100030000   541110001915777031200000019MOB BANK               YGN           MMR11006030945490013010603000000000000000   10300002 00104100000000000000000000001420     
100   35710500171526020000000000040800000000040800002000000010410406031021460014752310480603215416001475   1030000100030000   541110001903777031200000019MOB BANK               YGN           MMR11006031021460014750603000000000000000   10300005 00104100000000000000000000008160     
100   9503051887010110000000000001960000000001960000200000001041040603051947002810OQLWNG0603215411002810   1030000100030000   541110001907777031200000019MOB BANK               YGN           MMR11006030519470028100603000000000000000   10300002 00104100000000000000000000003920     
100   35710500384356710000000000017500000000017500002000000010410406030943060002968325300603215416000296   1030000100030000   541120003002777031200000030MOB BANK               YGN           MMR11006030943060002960603000000000000000   10300005 00104100000000000000000000003500     
100   35710830111817640000000000055900000000055900002000000010410406030354550014592849610603215410001459   1030000100030000   541110001903777031200000019MOB BANK               YGN           MMR11006030354550014590603000000000000000   10300003 00104100000000000000000000011180     
100   35710500333287720000000000115800000000115800002000000010410406030302430016647556300603215409001664   1030000100030000   541160000001777031200000006MOB BANK               YGN           MMR11006030302430016640603000000000000000   10300005 00104100000000000000000000023160     
100   9503051023440213000000000014460000000014460000200000001041040603121118001673BJQZ1X0603215418001673   1030000100030000   541160000001777031200000006MOB BANK               YGN           MMR11006031211180016730603000000000000000   10300002 00104100000000000000000000028920     
100   35710500384939100000000000004920000000004920002000000010410406030548080005474777760603215412000547   1030000100030000   541120003104777031200000031MOB BANK               YGN           MMR11006030548080005470603000000000000000   10300005 00104100000000000000000000000984     
100   35710830153090150000000000018000000000018000002000000010410406031044300004755307210603215417000475   1030000100030000   541120003111777031200000031MOB BANK               YGN           MMR11006031044300004750603000000000000000   10300003 00104100000000000000000000003600     
100   9503051883444693000000000013871000000013871000200000001041040603132605000883RSCWDY0603215419000883   1030000100030000   581210001501777031200000015MOB BANK               YGN           MMR11006031326050008830603000000000000000   10300002 00104100000000000000000000047162     
100   9503051888173826000000000004560000000004560000200000001041040603100706001304KJDDWK0603215416001304   1030000100030000   541110001915777031200000019MOB BANK               YGN           MMR11006031007060013040603000000000000000   10300002 00104100000000000000000000009120     
100   35710500391973870000000000008800000000008800002000000010410406031058110014775494700603215417001477   1030000100030000   541110001903777031200000019MOB BANK               YGN           MMR11006031058110014770603000000000000000   10300005 00104100000000000000000000001760     
100   35710830539268940000000000009800000000009800002000000010410406030453540022723203600603215411002272   1030000100030000   541110001905777031200000019MOB BANK               YGN           MMR11006030453540022720603000000000000000   10300003 00104100000000000000000000001960     
100   62622000540998620000000000012500000000012500002000000010410406030525210003716977890603215411000371   1030000100030000   541120003001777031200000030MOB BANK               YGN           MMR11006030525210003710603000000000000000   10300006 00104100000000000000000000002500     
100   95031800709210130000000000009030000000009030002000000010410406030652030005497614180603215413000549   1030000100030000   541120003104777031200000031MOB BANK               YGN           MMR11006030652030005490603000000000000000   10300013 00104100000000000000000000001806     
100   9503051893133070000000000007340000000007340000200000001041040603144414000644LD9F630603215421000644   1030000100030000   581210001201777031200000012MOB BANK               YGN           MMR11006031444140006440603000000000000000   10300002 00104100000000000000000000024956     
100   35710830499435650000000000014800000000014800002000000010410406031044140013065305610603215417001306   1030000100030000   541110001915777031200000019MOB BANK               YGN           MMR11006031044140013060603000000000000000   10300003 00104100000000000000000000002960     
100   9503051025644804000000000034540000000034540000200000001041040603145558000645MD4K3P0603215421000645   1030000100030000   581210001201777031200000012MOB BANK               YGN           MMR11006031455580006450603000000000000000   10300002 00104100000000000000000000117436     
100   62346600107100320000000000002850000000002850002000000010410406031017380005539375840603215416000553   1030000100030000   541120003104777031200000031MOB BANK               YGN           MMR11006031017380005530603000000000000000   10300005 00104100000000000000000000000570     
100   9503051020977415000000000003300000000003300000200000001041040603041504000616K9KHJN0603215410000616   1030000100030000   541120003008777031200000030MOB BANK               YGN           MMR11006030415040006160603000000000000000   10300002 00104100000000000000000000006600     
100   9503051026548467000000000000580000000000580000200000001041040603111103001308ZRWQEZ0603215417001308   1030000100030000   541110001915777031200000019MOB BANK               YGN           MMR11006031111030013080603000000000000000   10300002 00104100000000000000000000001160     
100   35710500391973870000000000011450000000011450002000000010410406031115180013103713390603215417001310   1030000100030000   541110001915777031200000019MOB BANK               YGN           MMR11006031115180013100603000000000000000   10300005 00104100000000000000000000002290     
100   35710500314430450000000000050000000000050000002000000010410406030715570028143595550603215413002814   1030000100030000   541110001907777031200000019MOB BANK               YGN           MMR11006030715570028140603000000000000000   10300005 00104100000000000000000000010000     
100   9503051022939587000000000002470000000002470000200000001041040603095114002816KJWGXU0603215416002816   1030000100030000   541110001907777031200000019MOB BANK               YGN           MMR11006030951140028160603000000000000000   10300002 00104100000000000000000000004940     
100   35710830631454100000000000015000000000015000002000000010410406030622510001763737300603215412000176   1030000100030000   541120003006777031200000030MOB BANK               YGN           MMR11006030622510001760603000000000000000   10300003 00104100000000000000000000003000     
100   35710830853408170000000000022990000000022990002000000010410406030629410003723778300603215412000372   1030000100030000   541120003001777031200000030MOB BANK               YGN           MMR11006030629410003720603000000000000000   10300003 00104100000000000000000000004598     
100   35710500355319690000000000016500000000016500002000000010410406030637080003740278090603215413000374   1030000100030000   541120003001777031200000030MOB BANK               YGN           MMR11006030637080003740603000000000000000   10300005 00104100000000000000000000003300     
100   35710500315451040000000000023000000000023000002000000010410406030826570004703221880603215414000470   1030000100030000   541120003111777031200000031MOB BANK               YGN           MMR11006030826570004700603000000000000000   10300005 00104100000000000000000000004600     
100   9503051885301594000000000003180000000003180000200000001041040603083004001465DROCGI0603215415001465   1030000100030000   541110001903777031200000019MOB BANK               YGN           MMR11006030830040014650603000000000000000   10300002 00104100000000000000000000006360     
100   35710830396606090000000000102400000000102400002000000010410406030552410014623556410603215412001462   1030000100030000   541110001903777031200000019MOB BANK               YGN           MMR11006030552410014620603000000000000000   10300003 00104100000000000000000000020480     
100   9503054000784637000000000002840000000002840000200000001041040603110237001571NC3NXC0603215417001571   1030000100030000   541120003117777031200000031MOB BANK               YGN           MMR11006031102370015710603000000000000000   10300002 00104100000000000000000000005680     
100   9503051025089406000000000011856000000011856000200000001041040603103820001667HXBP140603215417001667   1030000100030000   541160000001777031200000006MOB BANK               YGN           MMR11006031038200016670603000000000000000   10300002 00104100000000000000000000023712     
100   35711450000321240000000000011500000000011500002000000010410406030822030015685145250603215414001568   1030000100030000   541120003117777031200000031MOB BANK               YGN           MMR11006030822030015680603000000000000000   10200001 00104100000000000000000000002300     
100   35710830480526990000000000019600000000019600002000000010410406031156170015745737910603215418001574   1030000100030000   541120003117777031200000031MOB BANK               YGN           MMR11006031156170015740603000000000000000   10300003 00104100000000000000000000003920     
100   95030510261672760000000000029856000000029856002000000010410406030823400006192OMTES0603215414000619   1030000100030000   541120003008777031200000030MOB BANK               YGN           MMR11006030823400006190603000000000000000   10300002 00104100000000000000000000005971     
100   9503051891702975000000000012690000000012690000200000001041040603092745000621S6DLLF0603215415000621   1030000100030000   541120003008777031200000030MOB BANK               YGN           MMR11006030927450006210603000000000000000   10300002 00104100000000000000000000025380     
100   35710500324254050000000000014200000000014200002000000010410406031130220022995436230603215418002299   1030000100030000   541110001905777031200000019MOB BANK               YGN           MMR11006031130220022990603000000000000000   10300005 00104100000000000000000000002840     
100   35710830327170260000000000038000000000038000002000000010410406031201340023025769610603215418002302   1030000100030000   541110001905777031200000019MOB BANK               YGN           MMR11006031201340023020603000000000000000   10300003 00104100000000000000000000007600     
100   95030510265484670000000000035400000000035400002000000010410406031058420028199VTOEJ0603215417002819   1030000100030000   541110001907777031200000019MOB BANK               YGN           MMR11006031058420028190603000000000000000   10300002 00104100000000000000000000007080     
100   9503051887527568000000000000310000000000310000200000001041040603095231000375EZMWPN0603215416000375   1030000100030000   541120003001777031200000030MOB BANK               YGN           MMR11006030952310003750603000000000000000   10300002 00104100000000000000000000000620     
100   35710830546747090000000000015000000000015000002000000010410406030916250004714778720603215415000471   1030000100030000   541120003111777031200000031MOB BANK               YGN           MMR11006030916250004710603000000000000000   10300003 00104100000000000000000000003000     
100   9503051025039666000000000000950000000000950000200000001041040603070010001266SFYPJP0603215413001266   1030000100030000   541110001920777031200000019MOB BANK               YGN           MMR11006030700100012660603000000000000000   10300002 00104100000000000000000000001900     
100   9503051019636139000000000002580000000002580000200000001041040603085632001467L7EEPL0603215415001467   1030000100030000   541110001903777031200000019MOB BANK               YGN           MMR11006030856320014670603000000000000000   10300002 00104100000000000000000000005160     
100   35710900377957410000000000017000000000017000002000000010410406030333140002932719700603215410000293   1030000100030000   541120003002777031200000030MOB BANK               YGN           MMR11006030333140002930603000000000000000   10300003 00104100000000000000000000003400     
100   95030510233489600000000000047100000000047100002000000010410406030538470012896VGHHJ0603215412001289   1030000100030000   541110001915777031200000019MOB BANK               YGN           MMR11006030538470012890603000000000000000   10300002 00104100000000000000000000009420     
