100   9503051022632927000000000003590000000003590000200000001041040521094731001408CFOBCS0521214116001408   1030000100030000   541120003106777031200000031MOB BANK               YGN           MMR11005210947310014080521000000000000000   10300002 00104100000000000000000000007180     
100   9503051021947821000000000002156000000002156000200000001041040521113648000260R1SDYV0521214118000260   1030000100030000   541120003013777031200000030MOB BANK               YGN           MMR11005211136480002600521000000000000000   10300002 00104100000000000000000000004312     
100   9503051025632841000000000000641500000000641500200000001041040521083716000334QDOBIU0521214115000334   1030000100030000   541120003005777031200000030MOB BANK               YGN           MMR11005210837160003340521000000000000000   10300002 00104100000000000000000000001283     
100   35710830748136830000000000009400000000009400002000000010410405211211190003373508010521214118000337   1030000100030000   541120003005777031200000030MOB BANK               YGN           MMR11005211211190003370521000000000000000   10300003 00104100000000000000000000001880     
100   62346600196778510000000000032500000000032500002000000010410405210448060003925394470521214111000392   1030000100030000   541120003111777031200000031MOB BANK               YGN           MMR11005210448060003920521000000000000000   10300005 00104100000000000000000000006500     
100   9503051025943347000000000000423000000000423000200000001041040521080846000428VUGIHX0521214114000428   1030000100030000   541120003104777031200000031MOB BANK               YGN           MMR11005210808460004280521000000000000000   10300002 00104100000000000000000000000846     
100   95030510235645820000000000001650000000001650002000000010410405210308450004208QISLI0521214109000420   1030000100030000   541120003104777031200000031MOB BANK               YGN           MMR11005210308450004200521000000000000000   10300002 00104100000000000000000000000330     
100   35710500132391890000000000021200000000021200002000000010410405211216430013438622580521214118001343   1030000100030000   541120003117777031200000031MOB BANK               YGN           MMR11005211216430013430521000000000000000   10300005 00104100000000000000000000004240     
100   35710830264177570000000000003600000000003600002000000010410405210919470020032478920521214115002003   1030000100030000   541110001905777031200000019MOB BANK               YGN           MMR11005210919470020030521000000000000000   10300003 00104100000000000000000000000720     
100   9503051891600880000000000001220000000001220000200000001041040521093533002300DQXAWL0521214116002300   1030000100030000   541110001907777031200000019MOB BANK               YGN           MMR11005210935330023000521000000000000000   10300002 00104100000000000000000000002440     
100   35710830990830150000000000029900000000029900002000000010410405211005280020102752910521214116002010   1030000100030000   541110001905777031200000019MOB BANK               YGN           MMR11005211005280020100521000000000000000   10300003 00104100000000000000000000005980     
100   9503054000521427000000000008200000000008200000200000001041040521110355002012WCB3OZ0521214117002012   1030000100030000   541110001905777031200000019MOB BANK               YGN           MMR11005211103550020120521000000000000000   10300002 00104100000000000000000000016400     
100   9503051890557438000000000000904600000000904600200000001041040521113354002321D9P1ZG0521214118002321   1030000100030000   541110001907777031200000019MOB BANK               YGN           MMR11005211133540023210521000000000000000   10300002 00104100000000000000000000001809     
100   9503051025604428000000000003665200000003665200200000001041040521050325002258KELNJQ0521214111002258   1030000100030000   541110001907777031200000019MOB BANK               YGN           MMR11005210503250022580521000000000000000   10300002 00104100000000000000000000007330     
100   9503051025145471000000000001015000000001015000200000001041040521123004002329VB5NPA0521214119002329   1030000100030000   541110001907777031200000019MOB BANK               YGN           MMR11005211230040023290521000000000000000   10300002 00104100000000000000000000002030     
100   62346600139460540000000000034300000000034300002000000010410405211117580020142935910521214117002014   1030000100030000   541110001905777031200000019MOB BANK               YGN           MMR11005211117580020140521000000000000000   10300005 00104100000000000000000000006860     
100   9503051025805918000000000003740000000003740000200000001041040521122323001345X4Z9KE0521214118001345   1030000100030000   541120003117777031200000031MOB BANK               YGN           MMR11005211223230013450521000000000000000   10300002 00104100000000000000000000007480     
100   9503051019552039000000000002580000000002580000200000001041040521065654001108GKAKEZ0521214113001108   1030000100030000   541110001903777031200000019MOB BANK               YGN           MMR11005210656540011080521000000000000000   10300002 00104100000000000000000000005160     
100   9503051873093138000000000006360000000006360000200000001041040521114027001578A3SJ0U0521214118001578   1030000100030000   541160000001777031200000006MOB BANK               YGN           MMR11005211140270015780521000000000000000   10300002 00104100000000000000000000012720     
100   35710830203788640000000000034000000000034000002000000010410405211210330002313503510521214118000231   1030000100030000   541110001917777031200000019MOB BANK               YGN           MMR11005211210330002310521000000000000000   10300003 00104100000000000000000000006800     
100   62921400089909780000000000065200000000065200002000000010410405210848410002002222220521214115000200   1030000100030000   541120003012777031200000030MOB BANK               YGN           MMR11005210848410002000521000000000000000   10300009 00104100000000000000000000013040     
100   35710500383818750000000000003150000000003150002000000010410405210829270004291766030521214114000429   1030000100030000   541120003104777031200000031MOB BANK               YGN           MMR11005210829270004290521000000000000000   10300005 00104100000000000000000000000630     
100   9503051891296804000000000001410000000001410000200000001041040521083949000315PRPUVX0521214115000315   1030000100030000   541120003001777031200000030MOB BANK               YGN           MMR11005210839490003150521000000000000000   10300002 00104100000000000000000000002820     
100   9503051025081379000000000002450000000002450000200000001041040521055546001316RSACPO0521214112001316   1030000100030000   541120003117777031200000031MOB BANK               YGN           MMR11005210555460013160521000000000000000   10300002 00104100000000000000000000004900     
100   95030800081513130000000000013200000000013200002000000010410405210948110023062649210521214116002306   1030000100030000   541110001907777031200000019MOB BANK               YGN           MMR11005210948110023060521000000000000000   10300003 00104100000000000000000000002640     
100   9503051895324669000000000000560000000000560000200000001041040521095719002309KONPQZ0521214116002309   1030000100030000   541110001907777031200000019MOB BANK               YGN           MMR11005210957190023090521000000000000000   10300002 00104100000000000000000000001120     
100   35710950554207830000000000025470000000025470002000000010410405210903150010612379610521214115001061   1030000100030000   541110001920777031200000019MOB BANK               YGN           MMR11005210903150010610521000000000000000   10300003 00104100000000000000000000005094     
100   62343302002421500000000000013720000000013720002000000010410405210705580010528820200521214113001052   1030000100030000   541110001920777031200000019MOB BANK               YGN           MMR11005210705580010520521000000000000000   10300004 00104100000000000000000000002744     
100   9503051024914547000000000002340000000002340000200000001041040521063554002276SGLVZL0521214113002276   1030000100030000   541110001907777031200000019MOB BANK               YGN           MMR11005210635540022760521000000000000000   10300002 00104100000000000000000000004680     
100   35710830234130150000000000015300000000015300002000000010410405210701330013201649410521214113001320   1030000100030000   541120003117777031200000031MOB BANK               YGN           MMR11005210701330013200521000000000000000   10300003 00104100000000000000000000003060     
100   62443000110024300000000000030800000000030800002000000010410405210740040011115491970521214114001111   1030000100030000   541110001903777031200000019MOB BANK               YGN           MMR11005210740040011110521000000000000000   10300005 00104100000000000000000000010780     
100   35710500360047840000000000007300000000007300002000000010410405211014250011972677870521214116001197   1030000100030000   541110001915777031200000019MOB BANK               YGN           MMR11005211014250011970521000000000000000   10300005 00104100000000000000000000001460     
100   9503190000947996000000000001400000000001400000200000001041040521043213002254EUI1JZ0521214111002254   1030000100030000   541110001907777031200000019MOB BANK               YGN           MMR11005210432130022540521000000000000000   10300014 00104100000000000000000000002800     
100   95030510256329730000000000006100000000006100002000000010410405210828390001888E8FTA0521214114000188   1030000100030000   541120003002777031200000030MOB BANK               YGN           MMR11005210828390001880521000000000000000   10300002 00104100000000000000000000001220     
100   9503051888938541000000000003130000000003130000200000001041040521035459000391IBJREH0521214110000391   1030000100030000   541120003111777031200000031MOB BANK               YGN           MMR11005210354590003910521000000000000000   10300002 00104100000000000000000000006260     
100   9503051021947821000000000002283100000002283100200000001041040521121531000316ZZLCNM0521214118000316   1030000100030000   541120003001777031200000030MOB BANK               YGN           MMR11005211215310003160521000000000000000   10300002 00104100000000000000000000004566     
100   62622000041856540000000000013500000000013500002000000010410405210452070004974751190521214111000497   1030000100030000   541120003008777031200000030MOB BANK               YGN           MMR11005210452070004970521000000000000000   10300006 00104100000000000000000000002700     
100   35710500131525720000000000011885000000011885002000000010410405210429340004226747930521214110000422   1030000100030000   541120003104777031200000031MOB BANK               YGN           MMR11005210429340004220521000000000000000   10300005 00104100000000000000000000002377     
100   9503051025553765000000000002256000000002256000200000001041040521050605001175XB2BLS0521214111001175   1030000100030000   541110001915777031200000019MOB BANK               YGN           MMR11005210506050011750521000000000000000   10300002 00104100000000000000000000004512     
100   62346600181817310000000000040330000000040330002000000010410405211134590010751055710521214118001075   1030000100030000   541110001920777031200000019MOB BANK               YGN           MMR11005211134590010750521000000000000000   10300005 00104100000000000000000000008066     
100   9503051884403094000000000001093500000001093500200000001041040521122929001077Y1UY1G0521214118001077   1030000100030000   541110001920777031200000019MOB BANK               YGN           MMR11005211229290010770521000000000000000   10300002 00104100000000000000000000002187     
100   62622000498509570000000000224070000000224070002000000010410405211136240015764732910521214118001576   1030000100030000   541160000001777031200000006MOB BANK               YGN           MMR11005211136240015760521000000000000000   10300006 00104100000000000000000000044814     
100   62343302002173760000000000009300000000009300002000000010410405211034130012017885620521214117001201   1030000100030000   541110001915777031200000019MOB BANK               YGN           MMR11005211034130012010521000000000000000   10300004 00104100000000000000000000001860     
100   9503051026408746000000000005150000000005150000200000001041040521114639001412F4VKAJ0521214118001412   1030000100030000   541120003106777031200000031MOB BANK               YGN           MMR11005211146390014120521000000000000000   10300002 00104100000000000000000000010300     
100   9503051884567112000000000003880000000003880000200000001041040521081341001113XZ68LE0521214114001113   1030000100030000   541110001903777031200000019MOB BANK               YGN           MMR11005210813410011130521000000000000000   10300002 00104100000000000000000000007760     
100   62346600150767850000000000038800000000038800002000000010410405210835070011158510510521214115001115   1030000100030000   541110001903777031200000019MOB BANK               YGN           MMR11005210835070011150521000000000000000   10300005 00104100000000000000000000007760     
100   35710830828382840000000000038759000000038759002000000010410405210639580022791520010521214113002279   1030000100030000   541110001907777031200000019MOB BANK               YGN           MMR11005210639580022790521000000000000000   10300003 00104100000000000000000000007752     
100   35710830230993680000000000018580000000018580002000000010410405210948000002022648120521214116000202   1030000100030000   541120003012777031200000030MOB BANK               YGN           MMR11005210948000002020521000000000000000   10300003 00104100000000000000000000003716     
100   9503190001355009000000000005800000000005800000200000001041040521095635000225XJMXFN0521214116000225   1030000100030000   541110001917777031200000019MOB BANK               YGN           MMR11005210956350002250521000000000000000   10300014 00104100000000000000000000011600     
100   9503051897932329000000000001345500000001345500200000001041040521084323000430PK3SQW0521214115000430   1030000100030000   541120003104777031200000031MOB BANK               YGN           MMR11005210843230004300521000000000000000   10300002 00104100000000000000000000002691     
100   9503051891296804000000000000850000000000850000200000001041040521090343000500QKCUPK0521214115000500   1030000100030000   541120003008777031200000030MOB BANK               YGN           MMR11005210903430005000521000000000000000   10300002 00104100000000000000000000001700     
100   9503051887302574000000000000640000000000640000200000001041040521062706000424TQBOJR0521214112000424   1030000100030000   541120003104777031200000031MOB BANK               YGN           MMR11005210627060004240521000000000000000   10300002 00104100000000000000000000001280     
100   35710830234199880000000000038800000000038800002000000010410405210332090006050393110521214110000605   1030000100030000   541120003103777031200000031MOB BANK               YGN           MMR11005210332090006050521000000000000000   10300003 00104100000000000000000000007760     
100   9503190003205400000000000000495000000000495000200000001041040521035254000607CPHPP10521214110000607   1030000100030000   541120003103777031200000031MOB BANK               YGN           MMR11005210352540006070521000000000000000   10300014 00104100000000000000000000000990     
100   9503051022701938000000000004560000000004560000200000001041040521114933001138CHVN7M0521214118001138   1030000100030000   541110001903777031200000019MOB BANK               YGN           MMR11005211149330011380521000000000000000   10300002 00104100000000000000000000009120     
100   9503051890120609000000000000990000000000990000200000001041040521061028001177CGUQJU0521214112001177   1030000100030000   541110001915777031200000019MOB BANK               YGN           MMR11005210610280011770521000000000000000   10300002 00104100000000000000000000001980     
100   9503051896381312000000000002280000000002280000200000001041040521035356000178MS5PKT0521214110000178   1030000100030000   541120003002777031200000030MOB BANK               YGN           MMR11005210353560001780521000000000000000   10300002 00104100000000000000000000004560     
100   35710830626582800000000000006400000000006400002000000010410405210858240004312350610521214115000431   1030000100030000   541120003104777031200000031MOB BANK               YGN           MMR11005210858240004310521000000000000000   10300003 00104100000000000000000000001280     
100   9503051021898099000000000004700000000004700000200000001041040521052545000393BERH5A0521214111000393   1030000100030000   541120003111777031200000031MOB BANK               YGN           MMR11005210525450003930521000000000000000   10300002 00104100000000000000000000009400     
100   9503051897932329000000000001404000000001404000200000001041040521075321000394PHYFMN0521214114000394   1030000100030000   541120003111777031200000031MOB BANK               YGN           MMR11005210753210003940521000000000000000   10300002 00104100000000000000000000002808     
100   62343302002173760000000000017000000000017000002000000010410405211025010011992903510521214116001199   1030000100030000   541110001915777031200000019MOB BANK               YGN           MMR11005211025010011990521000000000000000   10300004 00104100000000000000000000003400     
100   35710500365593400000000000029900000000029900002000000010410405210915430013987022500521214115001398   1030000100030000   541120003106777031200000031MOB BANK               YGN           MMR11005210915430013980521000000000000000   10300005 00104100000000000000000000005980     
100   9503051025604428000000000002994300000002994300200000001041040521045814002256CR9DOQ0521214111002256   1030000100030000   541110001907777031200000019MOB BANK               YGN           MMR11005210458140022560521000000000000000   10300002 00104100000000000000000000005989     
100   62441900001634610000000000019500000000019500002000000010410405210615090001819044130521214112000181   1030000100030000   541120003002777031200000030MOB BANK               YGN           MMR11005210615090001810521000000000000000   10300003 00104100000000000000000000006825     
100   35710830781217030000000000031800000000031800002000000010410405211014360002272807720521214116000227   1030000100030000   541110001917777031200000019MOB BANK               YGN           MMR11005211014360002270521000000000000000   10300003 00104100000000000000000000006360     
100   9503051021947821000000000001248000000001248000200000001041040521114950000503HIQLPP0521214118000503   1030000100030000   541120003008777031200000030MOB BANK               YGN           MMR11005211149500005030521000000000000000   10300002 00104100000000000000000000002496     
100   9503051022154344000000000002450000000002450000200000001041040521062407001179QKFJFL0521214112001179   1030000100030000   541110001915777031200000019MOB BANK               YGN           MMR11005210624070011790521000000000000000   10300002 00104100000000000000000000004900     
100   35710500331811140000000000013160000000013160002000000010410405211234220010790110590521214119001079   1030000100030000   541110001920777031200000019MOB BANK               YGN           MMR11005211234220010790521000000000000000   10300005 00104100000000000000000000002632     
100   9503051891052009000000000004110000000004110000200000001041040521104508001206XG4WCH0521214117001206   1030000100030000   541110001915777031200000019MOB BANK               YGN           MMR11005211045080012060521000000000000000   10300002 00104100000000000000000000008220     
100   35710500315277630000000000035000000000035000002000000010410405211051280012098527050521214117001209   1030000100030000   541110001915777031200000019MOB BANK               YGN           MMR11005211051280012090521000000000000000   10300005 00104100000000000000000000007000     
100   35710500331811140000000000006800000000006800002000000010410405211210190012112062090521214118001211   1030000100030000   541110001915777031200000019MOB BANK               YGN           MMR11005211210190012110521000000000000000   10300005 00104100000000000000000000001360     
100   62346600128695960000000000025800000000025800002000000010410405210934330011248747030521214116001124   1030000100030000   541110001903777031200000019MOB BANK               YGN           MMR11005210934330011240521000000000000000   10300005 00104100000000000000000000005160     
100   35710830916210440000000000026800000000026800002000000010410405211117520011333187410521214117001133   1030000100030000   541110001903777031200000019MOB BANK               YGN           MMR11005211117520011330521000000000000000   10300003 00104100000000000000000000005360     
100   9503051874231042000000000000380000000000380000200000001041040521065047002283E4ESCQ0521214113002283   1030000100030000   541110001907777031200000019MOB BANK               YGN           MMR11005210650470022830521000000000000000   10300002 00104100000000000000000000000760     
100   9503051020951840000000000000700000000000700000200000001041040521080116000395GMRMCI0521214114000395   1030000100030000   541120003111777031200000031MOB BANK               YGN           MMR11005210801160003950521000000000000000   10300002 00104100000000000000000000001400     
100   35710500365593400000000000030600000000030600002000000010410405210842140003968979720521214115000396   1030000100030000   541120003111777031200000031MOB BANK               YGN           MMR11005210842140003960521000000000000000   10300005 00104100000000000000000000006120     
100   95030540007787380000000000009500000000009500002000000010410405211022360004341C2XF50521214116000434   1030000100030000   541120003104777031200000031MOB BANK               YGN           MMR11005211022360004340521000000000000000   10300002 00104100000000000000000000001900     
100   95030510256329730000000000004700000000004700002000000010410405210815280004996RKLIS0521214114000499   1030000100030000   541120003008777031200000030MOB BANK               YGN           MMR11005210815280004990521000000000000000   10300002 00104100000000000000000000000940     
100   9503051897072373000000000001595000000001595000200000001041040521141223000828JGLI8W0521214120000828   1030000100030000   581210001501777031200000015MOB BANK               YGN           MMR11005211412230008280521000000000000000   10300002 00104100000000000000000000005423     
100   62343302000339890000000000018000000000018000002000000010410405210504170006118894660521214111000611   1030000100030000   541120003103777031200000031MOB BANK               YGN           MMR11005210504170006110521000000000000000   10300004 00104100000000000000000000003600     
100   35710500385425340000000000074600000000074600002000000010410405210909190011187384750521214115001118   1030000100030000   541110001903777031200000019MOB BANK               YGN           MMR11005210909190011180521000000000000000   10300005 00104100000000000000000000014920     
100   9503051873010686000000000003250000000003250000200000001041040521092549001401WLCENP0521214115001401   1030000100030000   541120003106777031200000031MOB BANK               YGN           MMR11005210925490014010521000000000000000   10300002 00104100000000000000000000006500     
100   35710830515799190000000000022500000000022500002000000010410405211131260001953268720521214118000195   1030000100030000   541120003002777031200000030MOB BANK               YGN           MMR11005211131260001950521000000000000000   10300003 00104100000000000000000000004500     
100   35710500385425340000000000076400000000076400002000000010410405210911400011192817130521214115001119   1030000100030000   541110001903777031200000019MOB BANK               YGN           MMR11005210911400011190521000000000000000   10300005 00104100000000000000000000015280     
100   35710500360047840000000000035800000000035800002000000010410405210931410011214846650521214116001121   1030000100030000   541110001903777031200000019MOB BANK               YGN           MMR11005210931410011210521000000000000000   10300005 00104100000000000000000000007160     
100   95030518751247250000000000010945000000010945002000000010410405210501450014328ELLOL0521214111001432   1030000100030000   581250000001777031200000005MOB BANK               YGN           MMR11005210501450014320521000000000000000   10300002 00104100000000000000000000003721     
100   35710830175091330000000000001715000000001715002000000010410405210515290022601013030521214111002260   1030000100030000   541110001907777031200000019MOB BANK               YGN           MMR11005210515290022600521000000000000000   10300003 00104100000000000000000000000343     
100   35710500314193750000000000015360000000015360002000000010410405211040260002292356380521214117000229   1030000100030000   541110001917777031200000019MOB BANK               YGN           MMR11005211040260002290521000000000000000   10300005 00104100000000000000000000003072     
100   9503051891296804000000000000650000000000650000200000001041040521093225000502F0BRVS0521214116000502   1030000100030000   541120003008777031200000030MOB BANK               YGN           MMR11005210932250005020521000000000000000   10300002 00104100000000000000000000001300     
100   9503051891513935000000000000700000000000700000200000001041040521072500001182XFYAUM0521214113001182   1030000100030000   541110001915777031200000019MOB BANK               YGN           MMR11005210725000011820521000000000000000   10300002 00104100000000000000000000001400     
100   9503051893221040000000000001480000000001480000200000001041040521124753001081PNUUCO0521214119001081   1030000100030000   541110001920777031200000019MOB BANK               YGN           MMR11005211247530010810521000000000000000   10300002 00104100000000000000000000002960     
100   62921400014315900000000000010395000000010395002000000010410405210815430014332222220521214114001433   1030000100030000   581250000001777031200000005MOB BANK               YGN           MMR11005210815430014330521000000000000000   10300009 00104100000000000000000000003534     
100   35710830230993680000000000009150000000009150002000000010410405210904090001912385110521214115000191   1030000100030000   541120003002777031200000030MOB BANK               YGN           MMR11005210904090001910521000000000000000   10300003 00104100000000000000000000001830     
100   35710830960445800000000000018000000000018000002000000010410405210653570001841603810521214113000184   1030000100030000   541120003002777031200000030MOB BANK               YGN           MMR11005210653570001840521000000000000000   10300003 00104100000000000000000000003600     
100   35710500344851340000000000015300000000015300002000000010410405210936510003971676220521214116000397   1030000100030000   541120003111777031200000031MOB BANK               YGN           MMR11005210936510003970521000000000000000   10300005 00104100000000000000000000003060     
100   9503051897932329000000000001150000000001150000200000001041040521073900000613NTNGS90521214114000613   1030000100030000   541120003103777031200000031MOB BANK               YGN           MMR11005210739000006130521000000000000000   10300002 00104100000000000000000000002300     
100   9503051020951840000000000000850000000000850000200000001041040521074100000615HGHDXJ0521214114000615   1030000100030000   541120003103777031200000031MOB BANK               YGN           MMR11005210741000006150521000000000000000   10300002 00104100000000000000000000001700     
100   35710500344857040000000000012800000000012800002000000010410405210342140010457295910521214110001045   1030000100030000   541110001920777031200000019MOB BANK               YGN           MMR11005210342140010450521000000000000000   10300005 00104100000000000000000000002560     
100   9503051024198323000000000002610000000002610000200000001041040521041840001047QJBA8K0521214110001047   1030000100030000   541110001920777031200000019MOB BANK               YGN           MMR11005210418400010470521000000000000000   10300002 00104100000000000000000000005220     
100   95031100014641550000000000014095000000014095002000000010410405210547000010494721550521214112001049   1030000100030000   541110001920777031200000019MOB BANK               YGN           MMR11005210547000010490521000000000000000   10300006 00104100000000000000000000002819     
100   9503054000451617000000000024870000000024870000200000001041040521031716001572IBT6OU0521214109001572   1030000100030000   541160000001777031200000006MOB BANK               YGN           MMR11005210317160015720521000000000000000   10300002 00104100000000000000000000049740     
100   35710830763806320000000000050000000000050000002000000010410405210709480013901698920521214113001390   1030000100030000   541120003106777031200000031MOB BANK               YGN           MMR11005210709480013900521000000000000000   10300003 00104100000000000000000000010000     
100   35710500324786850000000000067140000000067140002000000010410405211106180004379284850521214117000437   1030000100030000   541120003104777031200000031MOB BANK               YGN           MMR11005211106180004370521000000000000000   10300005 00104100000000000000000000013428     
100   35710830477910080000000000108800000000108800002000000010410405210600000013851280110521214112001385   1030000100030000   541120003106777031200000031MOB BANK               YGN           MMR11005210600000013850521000000000000000   10300003 00104100000000000000000000021760     
100   9503051024451839000000000000539000000000539000200000001041040521052247001313XVJSIR0521214111001313   1030000100030000   541120003117777031200000031MOB BANK               YGN           MMR11005210522470013130521000000000000000   10300002 00104100000000000000000000001078     
100   35710500163919380000000000017380000000017380002000000010410405210859220014354716830521214115001435   1030000100030000   581250000001777031200000005MOB BANK               YGN           MMR11005210859220014350521000000000000000   10300005 00104100000000000000000000005909     
100   35710500354204780000000000277350000000277350002000000010410405210533010022645851850521214112002264   1030000100030000   541110001907777031200000019MOB BANK               YGN           MMR11005210533010022640521000000000000000   10300005 00104100000000000000000000055470     
100   35710500344857040000000000008820000000008820002000000010410405210412430002209158210521214110000220   1030000100030000   541110001917777031200000019MOB BANK               YGN           MMR11005210412430002200521000000000000000   10300005 00104100000000000000000000001764     
100   9503051883012227000000000001800000000001800000200000001041040521045111000222IT2EAB0521214111000222   1030000100030000   541110001917777031200000019MOB BANK               YGN           MMR11005210451110002220521000000000000000   10300002 00104100000000000000000000003600     
100   35710950554207830000000000034000000000034000002000000010410405210953150002232679610521214116000223   1030000100030000   541110001917777031200000019MOB BANK               YGN           MMR11005210953150002230521000000000000000   10300003 00104100000000000000000000006800     
100   9503051025190683000000000003155500000003155500200000001041040521100112000433NBWZL80521214116000433   1030000100030000   541120003104777031200000031MOB BANK               YGN           MMR11005211001120004330521000000000000000   10300002 00104100000000000000000000006311     
100   9503051891882413000000000000564000000000564000200000001041040521102918000435VSTZZJ0521214116000435   1030000100030000   541120003104777031200000031MOB BANK               YGN           MMR11005211029180004350521000000000000000   10300002 00104100000000000000000000001128     
100   62622000833224910000000000030000000000030000002000000010410405211003540011884803610521214116001188   1030000100030000   541110001915777031200000019MOB BANK               YGN           MMR11005211003540011880521000000000000000   10300006 00104100000000000000000000006000     
100   35710830068331220000000000115800000000115800002000000010410405210519180015731036010521214111001573   1030000100030000   541160000001777031200000006MOB BANK               YGN           MMR11005210519180015730521000000000000000   10300003 00104100000000000000000000023160     
100   95031900057053730000000000011550000000011550002000000010410405211010330014360MP6MG0521214116001436   1030000100030000   581250000001777031200000005MOB BANK               YGN           MMR11005211010330014360521000000000000000   10300014 00104100000000000000000000003927     
100   9503051887897425000000000000770000000000770000200000001041040521120453001437XYRFN70521214118001437   1030000100030000   581250000001777031200000005MOB BANK               YGN           MMR11005211204530014370521000000000000000   10300002 00104100000000000000000000002618     
100   9503051023937960000000000001550000000001550000200000001041040521093333000193JXPOZU0521214116000193   1030000100030000   541120003002777031200000030MOB BANK               YGN           MMR11005210933330001930521000000000000000   10300002 00104100000000000000000000003100     
100   35710500365403400000000000005243000000005243002000000010410405210523010003301588960521214111000330   1030000100030000   541120003005777031200000030MOB BANK               YGN           MMR11005210523010003300521000000000000000   10300005 00104100000000000000000000001049     
100   35710830695570220000000000022150000000022150002000000010410405210718250003321750610521214113000332   1030000100030000   541120003005777031200000030MOB BANK               YGN           MMR11005210718250003320521000000000000000   10300003 00104100000000000000000000004430     
100   35710830273899220000000000015600000000015600002000000010410405211112190004383154010521214117000438   1030000100030000   541120003104777031200000031MOB BANK               YGN           MMR11005211112190004380521000000000000000   10300003 00104100000000000000000000003120     
100   9503051024289551000000000001050000000001050000200000001041040521102708001128DO5QTO0521214116001128   1030000100030000   541110001903777031200000019MOB BANK               YGN           MMR11005211027080011280521000000000000000   10300002 00104100000000000000000000002100     
100   35710830213321670000000000045700000000045700002000000010410405211121300013373209120521214117001337   1030000100030000   541120003117777031200000031MOB BANK               YGN           MMR11005211121300013370521000000000000000   10300003 00104100000000000000000000009140     
100   35710500132391890000000000117600000000117600002000000010410405211212320013405622350521214118001340   1030000100030000   541120003117777031200000031MOB BANK               YGN           MMR11005211212320013400521000000000000000   10300005 00104100000000000000000000023520     
100   35710500165387360000000000025800000000025800002000000010410405210412140011040470310521214110001104   1030000100030000   541110001903777031200000019MOB BANK               YGN           MMR11005210412140011040521000000000000000   10300005 00104100000000000000000000005160     
100   35710830897814120000000000038600000000038600002000000010410405210913500013242443200521214115001324   1030000100030000   541120003117777031200000031MOB BANK               YGN           MMR11005210913500013240521000000000000000   10300003 00104100000000000000000000007720     
100   35650883660008710000000000019620000000019620002000000010410405211050490010695392270521214117001069   1030000100030000   541110001920777031200000019MOB BANK               YGN           MMR11005211050490010690521000000000000000   10300005 00104100000000000000000000006867     
100   9503051025145471000000000000420000000000420000200000001041040521100539001190GBCEVN0521214116001190   1030000100030000   541110001915777031200000019MOB BANK               YGN           MMR11005211005390011900521000000000000000   10300002 00104100000000000000000000000840     
100   9503051890120609000000000001720000000001720000200000001041040521074438001056RE2BUV0521214114001056   1030000100030000   541110001920777031200000019MOB BANK               YGN           MMR11005210744380010560521000000000000000   10300002 00104100000000000000000000003440     
100   62622000388579140000000000007000000000007000002000000010410405210809450010594761990521214114001059   1030000100030000   541110001920777031200000019MOB BANK               YGN           MMR11005210809450010590521000000000000000   10300006 00104100000000000000000000001400     
100   35710500132391890000000000066800000000066800002000000010410405211231140014160997200521214119001416   1030000100030000   541120003106777031200000031MOB BANK               YGN           MMR11005211231140014160521000000000000000   10300005 00104100000000000000000000013360     
100   35710830175091330000000000013056000000013056002000000010410405210501060011720926710521214111001172   1030000100030000   541110001915777031200000019MOB BANK               YGN           MMR11005210501060011720521000000000000000   10300003 00104100000000000000000000002611     
100   9503051873010686000000000003350000000003350000200000001041040521093312001405FLQ8X80521214116001405   1030000100030000   541120003106777031200000031MOB BANK               YGN           MMR11005210933120014050521000000000000000   10300002 00104100000000000000000000006700     
100   9503051025604428000000000002300000000002300000200000001041040521055550002267JFEXAB0521214112002267   1030000100030000   541110001907777031200000019MOB BANK               YGN           MMR11005210555500022670521000000000000000   10300002 00104100000000000000000000004600     
100   9503051024293181000000000007420000000007420000200000001041040521102611001334LYWUXT0521214116001334   1030000100030000   541120003117777031200000031MOB BANK               YGN           MMR11005211026110013340521000000000000000   10300002 00104100000000000000000000014840     
100   62346600141489730000000000031800000000031800002000000010410405210501450001453409670521214111000145   1030000100030000   541120003006777031200000030MOB BANK               YGN           MMR11005210501450001450521000000000000000   10300005 00104100000000000000000000006360     
100   35710830234130150000000000012090000000012090002000000010410405210716580004261742000521214113000426   1030000100030000   541120003104777031200000031MOB BANK               YGN           MMR11005210716580004260521000000000000000   10300003 00104100000000000000000000002418     
100   35710500315628770000000000014355000000014355002000000010410405211121390010710127730521214117001071   1030000100030000   541110001920777031200000019MOB BANK               YGN           MMR11005211121390010710521000000000000000   10300005 00104100000000000000000000002871     
100   35710500315277630000000000006400000000006400002000000010410405211129450010732922120521214117001073   1030000100030000   541110001920777031200000019MOB BANK               YGN           MMR11005211129450010730521000000000000000   10300005 00104100000000000000000000001280     
100   9503051895845630000000000002580000000002580000200000001041040521065502001106AOXCQG0521214113001106   1030000100030000   541110001903777031200000019MOB BANK               YGN           MMR11005210655020011060521000000000000000   10300002 00104100000000000000000000005160     
100   35710500351992960000000000024750000000024750002000000010410405211213290014389693180521214118001438   1030000100030000   581250000001777031200000005MOB BANK               YGN           MMR11005211213290014380521000000000000000   10300005 00104100000000000000000000008415     
100   9503051025632841000000000000342000000000342000200000001041040521085509000189LC6STZ0521214115000189   1030000100030000   541120003002777031200000030MOB BANK               YGN           MMR11005210855090001890521000000000000000   10300002 00104100000000000000000000000684     
100   9503051886280292000000000004165000000004165000200000001041040521030657001987GODMFJ0521214109001987   1030000100030000   541110001905777031200000019MOB BANK               YGN           MMR11005210306570019870521000000000000000   10300002 00104100000000000000000000008330     
100   62343301017707700000000000032193000000032193002000000010410405210624320019896807880521214112001989   1030000100030000   541110001905777031200000019MOB BANK               YGN           MMR11005210624320019890521000000000000000   10300004 00104100000000000000000000006439     
100   9503051024464212000000000000864000000000864000200000001041040521080002001998POCRPC0521214114001998   1030000100030000   541110001905777031200000019MOB BANK               YGN           MMR11005210800020019980521000000000000000   10300002 00104100000000000000000000001728     
100   95030518879986520000000000010700000000010700002000000010410405210655480022879NKEFF0521214113002287   1030000100030000   541110001907777031200000019MOB BANK               YGN           MMR11005210655480022870521000000000000000   10300002 00104100000000000000000000002140     
100   9503051020479305000000000001764000000001764000200000001041040521072236002290IPCPI10521214113002290   1030000100030000   541110001907777031200000019MOB BANK               YGN           MMR11005210722360022900521000000000000000   10300002 00104100000000000000000000003528     
100   35710500344226320000000000011700000000011700002000000010410405211008260023128181550521214116002312   1030000100030000   541110001907777031200000019MOB BANK               YGN           MMR11005211008260023120521000000000000000   10300005 00104100000000000000000000002340     
100   9503051883216307000000000006850000000006850000200000001041040521071906001992HC0KX40521214113001992   1030000100030000   541110001905777031200000019MOB BANK               YGN           MMR11005210719060019920521000000000000000   10300002 00104100000000000000000000013700     
100   9503051890120609000000000000450000000000450000200000001041040521075441001994HIQLZO0521214114001994   1030000100030000   541110001905777031200000019MOB BANK               YGN           MMR11005210754410019940521000000000000000   10300002 00104100000000000000000000000900     
100   9503051891296804000000000001400000000001400000200000001041040521082712000187TT5POR0521214114000187   1030000100030000   541120003002777031200000030MOB BANK               YGN           MMR11005210827120001870521000000000000000   10300002 00104100000000000000000000002800     
100   35710500331199990000000000003750000000003750002000000010410405210723310003140597750521214113000314   1030000100030000   541120003001777031200000030MOB BANK               YGN           MMR11005210723310003140521000000000000000   10300005 00104100000000000000000000000750     
100   35710500134976130000000000009900000000009900002000000010410405211232090010781592870521214119001078   1030000100030000   541110001920777031200000019MOB BANK               YGN           MMR11005211232090010780521000000000000000   10300005 00104100000000000000000000001980     
100   9503051024289551000000000001440000000001440000200000001041040521101015001195DJJWTY0521214116001195   1030000100030000   541110001915777031200000019MOB BANK               YGN           MMR11005211010150011950521000000000000000   10300002 00104100000000000000000000002880     
100   9503051023927649000000000000270000000000270000200000001041040521091908001063LDQWH90521214115001063   1030000100030000   541110001920777031200000019MOB BANK               YGN           MMR11005210919080010630521000000000000000   10300002 00104100000000000000000000000540     
100   9503051885291027000000000000958500000000958500200000001041040521101021001067OSAKJL0521214116001067   1030000100030000   541110001920777031200000019MOB BANK               YGN           MMR11005211010210010670521000000000000000   10300002 00104100000000000000000000001917     
100   35710830116312630000000000026400000000026400002000000010410405210834130011842205510521214115001184   1030000100030000   541110001915777031200000019MOB BANK               YGN           MMR11005210834130011840521000000000000000   10300003 00104100000000000000000000005280     
100   9503051884567112000000000001210000000001210000200000001041040521085656001186VUJDTR0521214115001186   1030000100030000   541110001915777031200000019MOB BANK               YGN           MMR11005210856560011860521000000000000000   10300002 00104100000000000000000000002420     
100   62441900002243880000000000016050000000016050002000000010410405210757280019968086300521214114001996   1030000100030000   541110001905777031200000019MOB BANK               YGN           MMR11005210757280019960521000000000000000   10300003 00104100000000000000000000005617     
100   35710830240080610000000000224000000000224000002000000010410405210816340022962099600521214114002296   1030000100030000   541110001907777031200000019MOB BANK               YGN           MMR11005210816340022960521000000000000000   10300003 00104100000000000000000000044800     
100   9503051024979565000000000007175000000007175000200000001041040521081118002293PCUAY80521214114002293   1030000100030000   541110001907777031200000019MOB BANK               YGN           MMR11005210811180022930521000000000000000   10300002 00104100000000000000000000014350     
100   95030510252251820000000000029000000000029000002000000010410405210911200022988SZRAA0521214115002298   1030000100030000   541110001907777031200000019MOB BANK               YGN           MMR11005210911200022980521000000000000000   10300002 00104100000000000000000000005800     
100   95031100012270730000000000052500000000052500002000000010410405211020010023164772530521214116002316   1030000100030000   541110001907777031200000019MOB BANK               YGN           MMR11005211020010023160521000000000000000   10300006 00104100000000000000000000010500     
100   95030518905574380000000000055379000000055379002000000010410405211129220023182EJI1P0521214117002318   1030000100030000   541110001907777031200000019MOB BANK               YGN           MMR11005211129220023180521000000000000000   10300002 00104100000000000000000000011076     
100   9503051896857584000000000003030000000003030000200000001041040521113807002323MECRMV0521214118002323   1030000100030000   541110001907777031200000019MOB BANK               YGN           MMR11005211138070023230521000000000000000   10300002 00104100000000000000000000006060     
100   9503051024463271000000000001323000000001323000200000001041040521080254002000WK9PEX0521214114002000   1030000100030000   541110001905777031200000019MOB BANK               YGN           MMR11005210802540020000521000000000000000   10300002 00104100000000000000000000002646     
