100   95030510258531990000000000004700000000004700002000000010410405200802570022427TCSNB0520214014002242   1030000100030000   541110001907777031200000019MOB BANK               YGN           MMR11005200802570022420520000000000000000   10300002 00104100000000000000000000000940     
100   62443000860115140000000000030315000000030315002000000010410405200844300003102575010520214015000310   1030000100030000   541120003001777031200000030MOB BANK               YGN           MMR11005200844300003100520000000000000000   10300005 00104100000000000000000000010611     
100   95030510230305270000000000011500000000011500002000000010410405201238140002540K9NMW0520214019000254   1030000100030000   541120003013777031200000030MOB BANK               YGN           MMR11005201238140002540520000000000000000   10300002 00104100000000000000000000002300     
100   35710500383630890000000000028600000000028600002000000010410405201402570005920046570520214020000592   1030000100030000   581210001201777031200000012MOB BANK               YGN           MMR11005201402570005920520000000000000000   10300005 00104100000000000000000000009724     
100   35710830484702970000000000041300000000041300002000000010410405201444460005935788810520214021000593   1030000100030000   581210001201777031200000012MOB BANK               YGN           MMR11005201444460005930520000000000000000   10300003 00104100000000000000000000014042     
100   9503051023030527000000000000440000000000440000200000001041040520124449000494VPRKW80520214019000494   1030000100030000   541120003008777031200000030MOB BANK               YGN           MMR11005201244490004940520000000000000000   10300002 00104100000000000000000000000880     
100   35710500395717300000000000037000000000037000002000000010410405200816350003824239770520214014000382   1030000100030000   541120003111777031200000031MOB BANK               YGN           MMR11005200816350003820520000000000000000   10300005 00104100000000000000000000007400     
100   9503051897971061000000000000970000000000970000200000001041040520063452001074YUCYKE0520214013001074   1030000100030000   541110001903777031200000019MOB BANK               YGN           MMR11005200634520010740520000000000000000   10300002 00104100000000000000000000001940     
100   35710500301835430000000000007500000000007500002000000010410405200856060019622135740520214015001962   1030000100030000   541110001905777031200000019MOB BANK               YGN           MMR11005200856060019620520000000000000000   10300005 00104100000000000000000000001500     
100   35710830270259970000000000036450000000036450002000000010410405200446580004242202020520214011000424   1030000100030000   541120003003777031200000030MOB BANK               YGN           MMR11005200446580004240520000000000000000   10300003 00104100000000000000000000007290     
100   9503051897627960000000000000960000000000960000200000001041040520061208000426BCWY7X0520214012000426   1030000100030000   541120003003777031200000030MOB BANK               YGN           MMR11005200612080004260520000000000000000   10300002 00104100000000000000000000001920     
100   35710500172146260000000000034500000000034500002000000010410405200748210012945481860520214014001294   1030000100030000   541120003117777031200000031MOB BANK               YGN           MMR11005200748210012940520000000000000000   10300005 00104100000000000000000000006900     
100   35710500172146260000000000051500000000051500002000000010410405200801500012963731290520214014001296   1030000100030000   541120003117777031200000031MOB BANK               YGN           MMR11005200801500012960520000000000000000   10300005 00104100000000000000000000010300     
100   9503051896019383000000000003790000000003790000200000001041040520114513001356DRQIGL0520214018001356   1030000100030000   541120003106777031200000031MOB BANK               YGN           MMR11005201145130013560520000000000000000   10300002 00104100000000000000000000007580     
100   62346600168715560000000000013600000000013600002000000010410405200810010010232523810520214014001023   1030000100030000   541110001920777031200000019MOB BANK               YGN           MMR11005200810010010230520000000000000000   10300005 00104100000000000000000000002720     
100   35710500394796030000000000037000000000037000002000000010410405200448500013373053060520214011001337   1030000100030000   541120003106777031200000031MOB BANK               YGN           MMR11005200448500013370520000000000000000   10300005 00104100000000000000000000007400     
100   9503051896866114000000000001600000000001600000200000001041040520103534000192AGCGZG0520214017000192   1030000100030000   541120003012777031200000030MOB BANK               YGN           MMR11005201035340001920520000000000000000   10300002 00104100000000000000000000003200     
100   9503051888495245000000000003825000000003825000200000001041040520064847000188FOMGRY0520214013000188   1030000100030000   541120003012777031200000030MOB BANK               YGN           MMR11005200648470001880520000000000000000   10300002 00104100000000000000000000007650     
100   9503051872337692000000000002491000000002491000200000001041040520063040000381VPAJAT0520214013000381   1030000100030000   541120003111777031200000031MOB BANK               YGN           MMR11005200630400003810520000000000000000   10300002 00104100000000000000000000004982     
100   35710500195963920000000000032600000000032600002000000010410405201000150003875743080520214016000387   1030000100030000   541120003111777031200000031MOB BANK               YGN           MMR11005201000150003870520000000000000000   10300005 00104100000000000000000000006520     
100   35710830596410830000000000029700000000029700002000000010410405201253460003895122800520214019000389   1030000100030000   541120003111777031200000031MOB BANK               YGN           MMR11005201253460003890520000000000000000   10300003 00104100000000000000000000005940     
100   62622000484815980000000000037700000000037700002000000010410405200700390004813986280520214013000481   1030000100030000   541120003008777031200000030MOB BANK               YGN           MMR11005200700390004810520000000000000000   10300006 00104100000000000000000000007540     
100   35710830283451700000000000030800000000030800002000000010410405200701010010763006210520214013001076   1030000100030000   541110001903777031200000019MOB BANK               YGN           MMR11005200701010010760520000000000000000   10300003 00104100000000000000000000006160     
100   35710830842558590000000000049060000000049060002000000010410405201319180008205276010520214019000820   1030000100030000   581210001501777031200000015MOB BANK               YGN           MMR11005201319180008200520000000000000000   10300003 00104100000000000000000000016680     
100   35710500393620720000000000016900000000016900002000000010410405200540120022321319250520214012002232   1030000100030000   541110001907777031200000019MOB BANK               YGN           MMR11005200540120022320520000000000000000   10300005 00104100000000000000000000003380     
100   35710500193369140000000000017994000000017994002000000010410405201120260004289497750520214017000428   1030000100030000   541120003003777031200000030MOB BANK               YGN           MMR11005201120260004280520000000000000000   10300005 00104100000000000000000000003599     
100   35710500305404450000000000012112000000012112002000000010410405201129070004300540770520214017000430   1030000100030000   541120003003777031200000030MOB BANK               YGN           MMR11005201129070004300520000000000000000   10300005 00104100000000000000000000002422     
100   35710830982186200000000000005737000000005737002000000010410405200752100004833313210520214014000483   1030000100030000   541120003008777031200000030MOB BANK               YGN           MMR11005200752100004830520000000000000000   10300003 00104100000000000000000000001148     
100   9503051024815140000000000011210000000011210000200000001041040520090959001027R8LXVA0520214015001027   1030000100030000   541110001920777031200000019MOB BANK               YGN           MMR11005200909590010270520000000000000000   10300002 00104100000000000000000000022420     
100   35710500344100330000000000145000000000145000002000000010410405200938100011618509890520214016001161   1030000100030000   541110001915777031200000019MOB BANK               YGN           MMR11005200938100011610520000000000000000   10300005 00104100000000000000000000029000     
100   9503051888495245000000000001360000000001360000200000001041040520070033000325HXVYZE0520214013000325   1030000100030000   541120003005777031200000030MOB BANK               YGN           MMR11005200700330003250520000000000000000   10300002 00104100000000000000000000002720     
100   35710830829772490000000000049200000000049200002000000010410405200909370003843777910520214015000384   1030000100030000   541120003111777031200000031MOB BANK               YGN           MMR11005200909370003840520000000000000000   10300003 00104100000000000000000000009840     
100   35710830616089220000000000026950000000026950002000000010410405200629060008192814810520214012000819   1030000100030000   581210001501777031200000015MOB BANK               YGN           MMR11005200629060008190520000000000000000   10300003 00104100000000000000000000009163     
100   9503051884112687000000000002289500000002289500200000001041040520122218001032GXWJQO0520214018001032   1030000100030000   541110001920777031200000019MOB BANK               YGN           MMR11005201222180010320520000000000000000   10300002 00104100000000000000000000004579     
100   9503051022152181000000000000600000000000600000200000001041040520055304001345R0ZG860520214012001345   1030000100030000   541120003106777031200000031MOB BANK               YGN           MMR11005200553040013450520000000000000000   10300002 00104100000000000000000000001200     
100   95031900001009350000000000039000000000039000002000000010410405200519390013413CMS1U0520214011001341   1030000100030000   541120003106777031200000031MOB BANK               YGN           MMR11005200519390013410520000000000000000   10300014 00104100000000000000000000007800     
100   9503051026407508000000000001411200000001411200200000001041040520060026001153VLX7WH0520214012001153   1030000100030000   541110001915777031200000019MOB BANK               YGN           MMR11005200600260011530520000000000000000   10300002 00104100000000000000000000002822     
100   35710830175091330000000000007440000000007440002000000010410405200823030011553498410520214014001155   1030000100030000   541110001915777031200000019MOB BANK               YGN           MMR11005200823030011550520000000000000000   10300003 00104100000000000000000000001488     
100   9503190006518320000000000004310000000004310000200000001041040520112324000194P2JJ730520214017000194   1030000100030000   541120003012777031200000030MOB BANK               YGN           MMR11005201123240001940520000000000000000   10300014 00104100000000000000000000008620     
100   9503051892266269000000000001995000000001995000200000001041040520055739000410FPRZPQ0520214012000410   1030000100030000   541120003104777031200000031MOB BANK               YGN           MMR11005200557390004100520000000000000000   10300002 00104100000000000000000000003990     
100   35710830829772490000000000033000000000033000002000000010410405200938010003853948220520214016000385   1030000100030000   541120003111777031200000031MOB BANK               YGN           MMR11005200938010003850520000000000000000   10300003 00104100000000000000000000006600     
100   9503051886922588000000000000720000000000720000200000001041040520125950000256VMKTBB0520214019000256   1030000100030000   541120003013777031200000030MOB BANK               YGN           MMR11005201259500002560520000000000000000   10300002 00104100000000000000000000001440     
100   95030800098022520000000000019500000000019500002000000010410405201112550013094517710520214017001309   1030000100030000   541120003117777031200000031MOB BANK               YGN           MMR11005201112550013090520000000000000000   10300003 00104100000000000000000000003900     
100   35710500313821770000000000022464000000022464002000000010410405200940200011633892820520214016001163   1030000100030000   541110001915777031200000019MOB BANK               YGN           MMR11005200940200011630520000000000000000   10300005 00104100000000000000000000004493     
100   9503051895590319000000000017200000000017200000200000001041040520034317002224WQJ8XM0520214010002224   1030000100030000   541110001907777031200000019MOB BANK               YGN           MMR11005200343170022240520000000000000000   10300002 00104100000000000000000000034400     
100   95031900003917990000000000050568000000050568002000000010410405201139500019771ZBQ670520214018001977   1030000100030000   541110001905777031200000019MOB BANK               YGN           MMR11005201139500019770520000000000000000   10300014 00104100000000000000000000010114     
100   95030510238807230000000000029664000000029664002000000010410405201046040011670B2HHS0520214017001167   1030000100030000   541110001915777031200000019MOB BANK               YGN           MMR11005201046040011670520000000000000000   10300002 00104100000000000000000000005933     
100   35710500166353670000000000005200000000005200002000000010410405200909010012991715970520214015001299   1030000100030000   541120003117777031200000031MOB BANK               YGN           MMR11005200909010012990520000000000000000   10300005 00104100000000000000000000001040     
100   9503051893918736000000000001870000000001870000200000001041040520093749001300HZMTAV0520214016001300   1030000100030000   541120003117777031200000031MOB BANK               YGN           MMR11005200937490013000520000000000000000   10300002 00104100000000000000000000003740     
100   9503051893918736000000000000680000000000680000200000001041040520094345001302VDH59T0520214016001302   1030000100030000   541120003117777031200000031MOB BANK               YGN           MMR11005200943450013020520000000000000000   10300002 00104100000000000000000000001360     
100   95030510254249180000000000037100000000037100002000000010410405191102560005872VNI4O0519213917000587   1030000100030000   581210001201777031200000012MOB BANK               YGN           MMR11005191102560005870519000000000000000   10300002 00104100000000000000000000012614     
100   35710950635303180000000000010000000000010000002000000010410405201241120005915047310520214019000591   1030000100030000   581210001201777031200000012MOB BANK               YGN           MMR11005201241120005910520000000000000000   10300003 00104100000000000000000000003400     
100   95030540005151710000000000003150000000003150002000000010410405201153470001725RGE6D0520214018000172   1030000100030000   541120003002777031200000030MOB BANK               YGN           MMR11005201153470001720520000000000000000   10300002 00104100000000000000000000000630     
100   95030510230305270000000000014500000000014500002000000010410405201251030001743LMEJO0520214019000174   1030000100030000   541120003002777031200000030MOB BANK               YGN           MMR11005201251030001740520000000000000000   10300002 00104100000000000000000000002900     
100   35710500385831400000000000017100000000017100002000000010410405200931090011599871430520214016001159   1030000100030000   541110001915777031200000019MOB BANK               YGN           MMR11005200931090011590520000000000000000   10300005 00104100000000000000000000003420     
100   35710500304785470000000000032200000000032200002000000010410405201255140019826872080520214019001982   1030000100030000   541110001905777031200000019MOB BANK               YGN           MMR11005201255140019820520000000000000000   10300005 00104100000000000000000000006440     
100   35710500180286600000000000013115000000013115002000000010410405200914260004158446660520214015000415   1030000100030000   541120003104777031200000031MOB BANK               YGN           MMR11005200914260004150520000000000000000   10300005 00104100000000000000000000002623     
100   9503051886922588000000000001470000000001470000200000001041040520125446000311RUYQ750520214019000311   1030000100030000   541120003001777031200000030MOB BANK               YGN           MMR11005201254460003110520000000000000000   10300002 00104100000000000000000000002940     
100   35710830091129870000000000035000000000035000002000000010410405200704190013463026100520214013001346   1030000100030000   541120003106777031200000031MOB BANK               YGN           MMR11005200704190013460520000000000000000   10300003 00104100000000000000000000007000     
100   35710500384081400000000000005500000000005500002000000010410405201237370011693037990520214019001169   1030000100030000   541110001915777031200000019MOB BANK               YGN           MMR11005201237370011690520000000000000000   10300005 00104100000000000000000000001100     
100   9503051026407508000000000001011000000001011000200000001041040520053342002227DVEOYU0520214012002227   1030000100030000   541110001907777031200000019MOB BANK               YGN           MMR11005200533420022270520000000000000000   10300002 00104100000000000000000000002022     
100   9503051026407508000000000000881700000000881700200000001041040520053549002229BJNT0N0520214012002229   1030000100030000   541110001907777031200000019MOB BANK               YGN           MMR11005200535490022290520000000000000000   10300002 00104100000000000000000000001764     
100   35710500374474610000000000017850000000017850002000000010410405200910170019687609480520214015001968   1030000100030000   541110001905777031200000019MOB BANK               YGN           MMR11005200910170019680520000000000000000   10300005 00104100000000000000000000003570     
100   9503051025853199000000000006193600000006193600200000001041040520072623002240HIKQ1R0520214013002240   1030000100030000   541110001907777031200000019MOB BANK               YGN           MMR11005200726230022400520000000000000000   10300002 00104100000000000000000000012387     
100   35710830363874530000000000015950000000015950002000000010410405200754320002513327410520214014000251   1030000100030000   541120003013777031200000030MOB BANK               YGN           MMR11005200754320002510520000000000000000   10300003 00104100000000000000000000003190     
100   9503190006518320000000000007570000000007570000200000001041040520105158000489V3JWHJ0520214017000489   1030000100030000   541120003008777031200000030MOB BANK               YGN           MMR11005201051580004890520000000000000000   10300014 00104100000000000000000000015140     
100   35710830901870880000000000009900000000009900002000000010410405201011380013054149920520214016001305   1030000100030000   541120003117777031200000031MOB BANK               YGN           MMR11005201011380013050520000000000000000   10300003 00104100000000000000000000001980     
100   35710830901870880000000000009500000000009500002000000010410405201024000013074224210520214016001307   1030000100030000   541120003117777031200000031MOB BANK               YGN           MMR11005201024000013070520000000000000000   10300003 00104100000000000000000000001900     
100   9503051891069649000000000000280000000000280000200000001041040520102558000417PAFDPT0520214016000417   1030000100030000   541120003104777031200000031MOB BANK               YGN           MMR11005201025580004170520000000000000000   10300002 00104100000000000000000000000560     
100   9503051891413631000000000002700000000002700000200000001041040520082115001349FMEMET0520214014001349   1030000100030000   541120003106777031200000031MOB BANK               YGN           MMR11005200821150013490520000000000000000   10300002 00104100000000000000000000005400     
100   9503051023030527000000000003600000000003600000200000001041040520123329000196KCRLFH0520214019000196   1030000100030000   541120003012777031200000030MOB BANK               YGN           MMR11005201233290001960520000000000000000   10300002 00104100000000000000000000007200     
100   35710500381711510000000000003100000000003100002000000010410405201118170003264199910520214017000326   1030000100030000   541120003005777031200000030MOB BANK               YGN           MMR11005201118170003260520000000000000000   10300005 00104100000000000000000000000620     
100   35710830282904670000000000008800000000008800002000000010410405200736220014283218310520214014001428   1030000100030000   581250000001777031200000005MOB BANK               YGN           MMR11005200736220014280520000000000000000   10300003 00104100000000000000000000002992     
100   9503051872768151000000000002580000000002580000200000001041040520080111001087FJUUYN0520214014001087   1030000100030000   541110001903777031200000019MOB BANK               YGN           MMR11005200801110010870520000000000000000   10300002 00104100000000000000000000005160     
100   9503051020718090000000000002280000000002280000200000001041040520090653001091ANC4ZS0520214015001091   1030000100030000   541110001903777031200000019MOB BANK               YGN           MMR11005200906530010910520000000000000000   10300002 00104100000000000000000000004560     
100   9503051885863171000000000001350000000001350000200000001041040520054510001957JKY6C30520214012001957   1030000100030000   541110001905777031200000019MOB BANK               YGN           MMR11005200545100019570520000000000000000   10300002 00104100000000000000000000002700     
100   35710830894577990000000000024800000000024800002000000010410405201049490002524379110520214017000252   1030000100030000   541120003013777031200000030MOB BANK               YGN           MMR11005201049490002520520000000000000000   10300003 00104100000000000000000000004960     
100   9503051886922588000000000001440000000001440000200000001041040520123656000253IWZPXR0520214019000253   1030000100030000   541120003013777031200000030MOB BANK               YGN           MMR11005201236560002530520000000000000000   10300002 00104100000000000000000000002880     
100   9503051023435395000000000011440000000011440000200000001041040520120807000589W5FXAR0520214018000589   1030000100030000   581210001201777031200000012MOB BANK               YGN           MMR11005201208070005890520000000000000000   10300002 00104100000000000000000000038896     
100   62921400014364580000000000078100000000078100002000000010410405201228100005902222220520214018000590   1030000100030000   581210001201777031200000012MOB BANK               YGN           MMR11005201228100005900520000000000000000   10300009 00104100000000000000000000026554     
100   35710500381711510000000000005650000000005650002000000010410405201112290004912596870520214017000491   1030000100030000   541120003008777031200000030MOB BANK               YGN           MMR11005201112290004910520000000000000000   10300005 00104100000000000000000000001130     
100   9503051026407508000000000002450000000002450000200000001041040520051319001071FD2TXA0520214011001071   1030000100030000   541110001903777031200000019MOB BANK               YGN           MMR11005200513190010710520000000000000000   10300002 00104100000000000000000000004900     
100   62343301016950840000000000018900000000018900002000000010410405200948500019725905780520214016001972   1030000100030000   541110001905777031200000019MOB BANK               YGN           MMR11005200948500019720520000000000000000   10300004 00104100000000000000000000003780     
100   35710830478947030000000000019525000000019525002000000010410405201142040014294692600520214018001429   1030000100030000   581250000001777031200000005MOB BANK               YGN           MMR11005201142040014290520000000000000000   10300003 00104100000000000000000000006638     
100   9503051888914401000000000002443500000002443500200000001041040520122707001430RSBY940520214018001430   1030000100030000   581250000001777031200000005MOB BANK               YGN           MMR11005201227070014300520000000000000000   10300002 00104100000000000000000000008308     
100   35710830687282930000000000016500000000016500002000000010410405200715420012923094410520214013001292   1030000100030000   541120003117777031200000031MOB BANK               YGN           MMR11005200715420012920520000000000000000   10300003 00104100000000000000000000003300     
100   9503051025803053000000000002180000000002180000200000001041040520101055001094QBHNXO0520214016001094   1030000100030000   541110001903777031200000019MOB BANK               YGN           MMR11005201010550010940520000000000000000   10300002 00104100000000000000000000004360     
100   9503051873735225000000000003880000000003880000200000001041040520104118001097LGN9ZN0520214017001097   1030000100030000   541110001903777031200000019MOB BANK               YGN           MMR11005201041180010970520000000000000000   10300002 00104100000000000000000000007760     
100   35710830160533980000000000018800000000018800002000000010410405201152480011004757010520214018001100   1030000100030000   541110001903777031200000019MOB BANK               YGN           MMR11005201152480011000520000000000000000   10300003 00104100000000000000000000003760     
100   35710500391827770000000000047700000000047700002000000010410405200544030011519254730520214012001151   1030000100030000   541110001915777031200000019MOB BANK               YGN           MMR11005200544030011510520000000000000000   10300005 00104100000000000000000000009540     
