100   9503051884002854000000000002260000000002260000200000001041040430104725000136QZRXCQ0430212017000136   1030000100030000   541120003005777031200000030MOB BANK               YGN           MMR11004301047250001360430000000000000000   10300002 00104100000000000000000000004520     
100   9503051025712981000000000007425000000007425000200000001041040430115919000137Y0H1ZU0430212018000137   1030000100030000   541120003005777031200000030MOB BANK               YGN           MMR11004301159190001370430000000000000000   10300002 00104100000000000000000000014850     
100   62441900101966670000000000026800000000026800002000000010410404300549090006227073040430212012000622   1030000100030000   541110001903777031200000019MOB BANK               YGN           MMR11004300549090006220430000000000000000   10300003 00104100000000000000000000009380     
100   9503051024709681000000000004160000000004160000200000001041040430051454000619LKU1CX0430212011000619   1030000100030000   541110001903777031200000019MOB BANK               YGN           MMR11004300514540006190430000000000000000   10300002 00104100000000000000000000008320     
100   9503051023475219000000000003100000000003100000200000001041040430102952000899IUXGDZ0430212016000899   1030000100030000   541110001915777031200000019MOB BANK               YGN           MMR11004301029520008990430000000000000000   10300002 00104100000000000000000000006200     
100   9503051888723810000000000010910000000010910000200000001041040430115047000903V593RH0430212018000903   1030000100030000   541110001915777031200000019MOB BANK               YGN           MMR11004301150470009030430000000000000000   10300002 00104100000000000000000000021820     
100   95030800089309550000000000020000000000020000002000000010410404300436160008629337810430212011000862   1030000100030000   541110001915777031200000019MOB BANK               YGN           MMR11004300436160008620430000000000000000   10300003 00104100000000000000000000004000     
100   9503051025241734000000000000630000000000630000200000001041040430044612000750EHV7JV0430212011000750   1030000100030000   541110001920777031200000019MOB BANK               YGN           MMR11004300446120007500430000000000000000   10300002 00104100000000000000000000001260     
100   62441900101966670000000000012600000000012600002000000010410404300613200008695816620430212012000869   1030000100030000   541110001915777031200000019MOB BANK               YGN           MMR11004300613200008690430000000000000000   10300003 00104100000000000000000000004410     
100   95030800013142310000000000004656000000004656002000000010410404301200580009102005910430212018000910   1030000100030000   541110001915777031200000019MOB BANK               YGN           MMR11004301200580009100430000000000000000   10300003 00104100000000000000000000000931     
100   35710500353863070000000000014850000000014850002000000010410404300621120013073959400430212012001307   1030000100030000   541110001905777031200000019MOB BANK               YGN           MMR11004300621120013070430000000000000000   10300005 00104100000000000000000000002970     
100   35710830211658720000000000015000000000015000002000000010410404300511170014639547920430212011001463   1030000100030000   541110001907777031200000019MOB BANK               YGN           MMR11004300511170014630430000000000000000   10300003 00104100000000000000000000003000     
100   95031900020908450000000000004200000000004200002000000010410404300314570001827UOO2K0430212009000182   1030000100030000   541120003003777031200000030MOB BANK               YGN           MMR11004300314570001820430000000000000000   10300014 00104100000000000000000000000840     
100   95030518882443950000000000003200000000003200002000000010410404300450550001666WLTGU0430212011000166   1030000100030000   541110001917777031200000019MOB BANK               YGN           MMR11004300450550001660430000000000000000   10300002 00104100000000000000000000000640     
100   35710830297187890000000000012624000000012624002000000010410404300822030008850692410430212014000885   1030000100030000   541110001915777031200000019MOB BANK               YGN           MMR11004300822030008850430000000000000000   10300003 00104100000000000000000000002525     
100   9503051896857584000000000001257600000001257600200000001041040430083516000888FA1QMX0430212015000888   1030000100030000   541110001915777031200000019MOB BANK               YGN           MMR11004300835160008880430000000000000000   10300002 00104100000000000000000000002515     
100   95031202700351720000000000013000000000013000002000000010410404301156020009052222220430212018000905   1030000100030000   541110001915777031200000019MOB BANK               YGN           MMR11004301156020009050430000000000000000   10300009 00104100000000000000000000002600     
100   9503051023323682000000000001600000000001600000200000001041040430082941000100U9WZVV0430212014000100   1030000100030000   541120003013777031200000030MOB BANK               YGN           MMR11004300829410001000430000000000000000   10300002 00104100000000000000000000003200     
100   62441900102115990000000000017550000000017550002000000010410404300724440001331051290430212013000133   1030000100030000   541120003005777031200000030MOB BANK               YGN           MMR11004300724440001330430000000000000000   10300003 00104100000000000000000000006142     
100   9503051891978690000000000003240000000003240000200000001041040430075553000134JBWEPV0430212014000134   1030000100030000   541120003005777031200000030MOB BANK               YGN           MMR11004300755530001340430000000000000000   10300002 00104100000000000000000000006480     
100   950319000001430000000000000096000000000096000020000000104104043006204900017292VZXT0430212012000172   1030000100030000   541110001917777031200000019MOB BANK               YGN           MMR11004300620490001720430000000000000000   10300014 00104100000000000000000000001920     
100   9503051893463154000000000003950000000003950000200000001041040430064233000623LZOMYZ0430212013000623   1030000100030000   541110001903777031200000019MOB BANK               YGN           MMR11004300642330006230430000000000000000   10300002 00104100000000000000000000007900     
100   95030510249862890000000000038000000000038000002000000010410404300441380008645RBMKG0430212011000864   1030000100030000   541110001915777031200000019MOB BANK               YGN           MMR11004300441380008640430000000000000000   10300002 00104100000000000000000000007600     
100   9503051021397761000000000002550000000002550000200000001041040430065719000874Q4C9EE0430212013000874   1030000100030000   541110001915777031200000019MOB BANK               YGN           MMR11004300657190008740430000000000000000   10300002 00104100000000000000000000005100     
100   35710500126334650000000000010500000000010500002000000010410404300724320008791876440430212013000879   1030000100030000   541110001915777031200000019MOB BANK               YGN           MMR11004300724320008790430000000000000000   10300005 00104100000000000000000000002100     
100   9503051025001096000000000003681000000003681000200000001041040430085110000101T3B5H90430212015000101   1030000100030000   541120003013777031200000030MOB BANK               YGN           MMR11004300851100001010430000000000000000   10300002 00104100000000000000000000007362     
100   35710830588795360000000000014400000000014400002000000010410404300645300001760113110430212013000176   1030000100030000   541110001917777031200000019MOB BANK               YGN           MMR11004300645300001760430000000000000000   10300003 00104100000000000000000000002880     
100   35710830974823260000000000027280000000027280002000000010410404300921520013271051320430212015001327   1030000100030000   581250000001777031200000005MOB BANK               YGN           MMR11004300921520013270430000000000000000   10300003 00104100000000000000000000009275     
100   35710500374425040000000000011400000000011400002000000010410404300833190013112732120430212015001311   1030000100030000   541110001905777031200000019MOB BANK               YGN           MMR11004300833190013110430000000000000000   10300005 00104100000000000000000000002280     
100   95030800053413470000000000030800000000030800002000000010410404300644060006240104800430212013000624   1030000100030000   541110001903777031200000019MOB BANK               YGN           MMR11004300644060006240430000000000000000   10300003 00104100000000000000000000006160     
100   35710500380359270000000000036000000000036000002000000010410404300906400008929155940430212015000892   1030000100030000   541110001915777031200000019MOB BANK               YGN           MMR11004300906400008920430000000000000000   10300005 00104100000000000000000000007200     
100   35710500150779000000000000090000000000090000002000000010410404301211250014914879820430212018001491   1030000100030000   541110001907777031200000019MOB BANK               YGN           MMR11004301211250014910430000000000000000   10300005 00104100000000000000000000018000     
100   9503051888244395000000000001254400000001254400200000001041040430060241001466XGBEUG0430212012001466   1030000100030000   541110001907777031200000019MOB BANK               YGN           MMR11004300602410014660430000000000000000   10300002 00104100000000000000000000002509     
100   9503051025371051000000000001300000000001300000200000001041040430081809001472PUEDHD0430212014001472   1030000100030000   541110001907777031200000019MOB BANK               YGN           MMR11004300818090014720430000000000000000   10300002 00104100000000000000000000002600     
100   9503051872472937000000000002600000000002600000200000001041040430093534001322P4QVDN0430212016001322   1030000100030000   541110001905777031200000019MOB BANK               YGN           MMR11004300935340013220430000000000000000   10300002 00104100000000000000000000005200     
100   9503051020832867000000000006210000000006210000200000001041040430033644001459HPERVP0430212010001459   1030000100030000   541110001907777031200000019MOB BANK               YGN           MMR11004300336440014590430000000000000000   10300002 00104100000000000000000000012420     
100   35710500355565780000000000024750000000024750002000000010410404300705000013267692930430212013001326   1030000100030000   581250000001777031200000005MOB BANK               YGN           MMR11004300705000013260430000000000000000   10300005 00104100000000000000000000008415     
100   95030800074593940000000000005000000000005000002000000010410404300551090008689787020430212012000868   1030000100030000   541110001915777031200000019MOB BANK               YGN           MMR11004300551090008680430000000000000000   10300003 00104100000000000000000000001000     
100   95030790000596070000000000006400000000006400002000000010410404301055160009002085870430212017000900   1030000100030000   541110001915777031200000019MOB BANK               YGN           MMR11004301055160009000430000000000000000   10200004 00104100000000000000000000001280     
100   35710500365355140000000000045600000000045600002000000010410404301007160008968410110430212016000896   1030000100030000   541110001915777031200000019MOB BANK               YGN           MMR11004301007160008960430000000000000000   10300005 00104100000000000000000000009120     
100   35710500343685120000000000042185000000042185002000000010410404301119160013286753740430212017001328   1030000100030000   581250000001777031200000005MOB BANK               YGN           MMR11004301119160013280430000000000000000   10300005 00104100000000000000000000014343     
100   9503051888672686000000000001965000000001965000200000001041040430063025000872ABGT340430212013000872   1030000100030000   541110001915777031200000019MOB BANK               YGN           MMR11004300630250008720430000000000000000   10300002 00104100000000000000000000003930     
100   9503051889389348000000000000240000000000240000200000001041040430050740000866RNZVA40430212011000866   1030000100030000   541110001915777031200000019MOB BANK               YGN           MMR11004300507400008660430000000000000000   10300002 00104100000000000000000000000480     
100   35710500365355140000000000014100000000014100002000000010410404301025540008975024230430212016000897   1030000100030000   541110001915777031200000019MOB BANK               YGN           MMR11004301025540008970430000000000000000   10300005 00104100000000000000000000002820     
100   35710830825024010000000000007920000000007920002000000010410404300439180007489355910430212011000748   1030000100030000   541110001920777031200000019MOB BANK               YGN           MMR11004300439180007480430000000000000000   10300003 00104100000000000000000000001584     
100   9503051025746682000000000000970000000000970000200000001041040430122044001494QSZJWC0430212018001494   1030000100030000   541110001907777031200000019MOB BANK               YGN           MMR11004301220440014940430000000000000000   10300002 00104100000000000000000000001940     
100   9503051883599066000000000008470000000008470000200000001041040429133844000517KTWWLB0429211920000517   1030000100030000   581210001201777031200000012MOB BANK               YGN           MMR11004291338440005170429000000000000000   10300002 00104100000000000000000000028798     
100   35710500373897620000000000057200000000057200002000000010410404291348160005188296560429211920000518   1030000100030000   581210001201777031200000012MOB BANK               YGN           MMR11004291348160005180429000000000000000   10300005 00104100000000000000000000019448     
100   62346600111911250000000000122500000000122500002000000010410404291415420005193975160429211920000519   1030000100030000   581210001201777031200000012MOB BANK               YGN           MMR11004291415420005190429000000000000000   10300005 00104100000000000000000000041650     
100   9503051022326793000000000049440000000049440000200000001041040429131811000516D7ALXB0429211919000516   1030000100030000   581210001201777031200000012MOB BANK               YGN           MMR11004291318110005160429000000000000000   10300002 00104100000000000000000000168096     
100   95030800094390140000000000251400000000251400002000000010410404290644360005151467710429211913000515   1030000100030000   581210001201777031200000012MOB BANK               YGN           MMR11004290644360005150429000000000000000   10300003 00104100000000000000000000085476     
100   9503051894172010000000000003250000000003250000200000001041040429041432000675RXDC2F0429211910000675   1030000100030000   541120003106777031200000031MOB BANK               YGN           MMR11004290414320006750429000000000000000   10300002 00104100000000000000000000006500     
100   35710500152777730000000000041500000000041500002000000010410404290514170006991530810429211911000699   1030000100030000   541120003106777031200000031MOB BANK               YGN           MMR11004290514170006990429000000000000000   10300005 00104100000000000000000000008300     
100   9503051023323682000000000003960000000003960000200000001041040430081456000115FZPQMH0430212014000115   1030000100030000   541120003012777031200000030MOB BANK               YGN           MMR11004300814560001150430000000000000000   10300002 00104100000000000000000000007920     
100   35710830322761140000000000045200000000045200002000000010410404300402420001109136410430212010000110   1030000100030000   541120003012777031200000030MOB BANK               YGN           MMR11004300402420001100430000000000000000   10300003 00104100000000000000000000009040     
100   35710830249657650000000000095880000000095880002000000010410404300718030014690308500430212013001469   1030000100030000   541110001907777031200000019MOB BANK               YGN           MMR11004300718030014690430000000000000000   10300003 00104100000000000000000000019176     
100   9503051025712981000000000002250000000002250000200000001041040430111738000085677FTO0430212017000085   1030000100030000   541120003002777031200000030MOB BANK               YGN           MMR11004301117380000850430000000000000000   10300002 00104100000000000000000000004500     
100   9503051022632927000000000002070000000002070000200000001041040430062650000174BCDAAL0430212012000174   1030000100030000   541110001917777031200000019MOB BANK               YGN           MMR11004300626500001740430000000000000000   10300002 00104100000000000000000000004140     
100   95030510252417340000000000010000000000010000002000000010410404300449540007526KXQLQ0430212011000752   1030000100030000   541110001920777031200000019MOB BANK               YGN           MMR11004300449540007520430000000000000000   10300002 00104100000000000000000000002000     
100   9503051019766191000000000000340000000000340000200000001041040430095742000190SKTC5V0430212016000190   1030000100030000   541120003003777031200000030MOB BANK               YGN           MMR11004300957420001900430000000000000000   10300002 00104100000000000000000000000680     
100   9503051888006588000000000002475000000002475000200000001041040430121118001329KQAXPX0430212018001329   1030000100030000   581250000001777031200000005MOB BANK               YGN           MMR11004301211180013290430000000000000000   10300002 00104100000000000000000000008415     
100   35710500152537820000000000032800000000032800002000000010410404300642170013090454020430212013001309   1030000100030000   541110001905777031200000019MOB BANK               YGN           MMR11004300642170013090430000000000000000   10300005 00104100000000000000000000006560     
100   95030510240203110000000000106900000000106900002000000010410404300543400001686LTFSY0430212012000168   1030000100030000   541110001917777031200000019MOB BANK               YGN           MMR11004300543400001680430000000000000000   10300002 00104100000000000000000000021380     
100   9503051889389348000000000000900000000000900000200000001041040430052049000757L1ACRG0430212011000757   1030000100030000   541110001920777031200000019MOB BANK               YGN           MMR11004300520490007570430000000000000000   10300002 00104100000000000000000000001800     
100   95030800074593940000000000034100000000034100002000000010410404300543010008679738310430212012000867   1030000100030000   541110001915777031200000019MOB BANK               YGN           MMR11004300543010008670430000000000000000   10300003 00104100000000000000000000006820     
100   9503051878737457000000000001600000000001600000200000001041040430075904000881TNDF710430212014000881   1030000100030000   541110001915777031200000019MOB BANK               YGN           MMR11004300759040008810430000000000000000   10300002 00104100000000000000000000003200     
100   35710500374079450000000000022000000000022000002000000010410404301250230009117911790430212019000911   1030000100030000   541110001915777031200000019MOB BANK               YGN           MMR11004301250230009110430000000000000000   10300005 00104100000000000000000000004400     
100   35710500304464860000000000009936000000009936002000000010410404300809060008834952700430212014000883   1030000100030000   541110001915777031200000019MOB BANK               YGN           MMR11004300809060008830430000000000000000   10300005 00104100000000000000000000001987     
100   950319000011603000000000000972000000000972000020000000104104043009291600147675C1WJ0430212015001476   1030000100030000   541110001907777031200000019MOB BANK               YGN           MMR11004300929160014760430000000000000000   10300014 00104100000000000000000000019440     
100   62346600187650120000000000003950000000003950002000000010410404300350520001326758660430212010000132   1030000100030000   541120003005777031200000030MOB BANK               YGN           MMR11004300350520001320430000000000000000   10300005 00104100000000000000000000000790     
100   9503051023754571000000000002400000000002400000200000001041040430073005000178GM89DV0430212014000178   1030000100030000   541110001917777031200000019MOB BANK               YGN           MMR11004300730050001780430000000000000000   10300002 00104100000000000000000000004800     
100   35710500193369140000000000017500000000017500002000000010410404301133470001191667460430212018000119   1030000100030000   541120003012777031200000030MOB BANK               YGN           MMR11004301133470001190430000000000000000   10300005 00104100000000000000000000003500     
100   35710500311527780000000000033350000000033350002000000010410404301106090001179660800430212017000117   1030000100030000   541120003012777031200000030MOB BANK               YGN           MMR11004301106090001170430000000000000000   10300005 00104100000000000000000000006670     
100   95030201000351880000000000037338000000037338002000000010410404300432580013020761460430212011001302   1030000100030000   541110001905777031200000019MOB BANK               YGN           MMR11004300432580013020430000000000000000   10200002 00104100000000000000000000007468     
100   35710830268203490000000000019800000000019800002000000010410404300556280001709819010430212012000170   1030000100030000   541110001917777031200000019MOB BANK               YGN           MMR11004300556280001700430000000000000000   10300003 00104100000000000000000000003960     
100   35710830294298410000000000022000000000022000002000000010410404300342290001959015110430212010000195   1030000100030000   541120003008777031200000030MOB BANK               YGN           MMR11004300342290001950430000000000000000   10300003 00104100000000000000000000004400     
100   9503051021138785000000000039970000000039970000200000001041040430142856000522I97C9I0430212020000522   1030000100030000   581210001201777031200000012MOB BANK               YGN           MMR11004301428560005220430000000000000000   10300002 00104100000000000000000000135898     
100   9503051025241734000000000001995000000001995000200000001041040430051923000620SQC7XK0430212011000620   1030000100030000   541110001903777031200000019MOB BANK               YGN           MMR11004300519230006200430000000000000000   10300002 00104100000000000000000000003990     
100   35710830562479670000000000008900000000008900002000000010410404301200210007642002320430212018000764   1030000100030000   541110001920777031200000019MOB BANK               YGN           MMR11004301200210007640430000000000000000   10300003 00104100000000000000000000001780     
100   35710500191317030000000000017500000000017500002000000010410404300841470008909638710430212015000890   1030000100030000   541110001915777031200000019MOB BANK               YGN           MMR11004300841470008900430000000000000000   10300005 00104100000000000000000000003500     
100   35710500393921370000000000037500000000037500002000000010410404301057390014798584490430212017001479   1030000100030000   541110001907777031200000019MOB BANK               YGN           MMR11004301057390014790430000000000000000   10300005 00104100000000000000000000007500     
100   62622000226252440000000000007700000000007700002000000010410404301147320002288286640430212018000228   1030000100030000   541120003001777031200000030MOB BANK               YGN           MMR11004301147320002280430000000000000000   10300006 00104100000000000000000000001540     
100   62443000860115140000000000009850000000009850002000000010410404300837430002258782030430212015000225   1030000100030000   541120003001777031200000030MOB BANK               YGN           MMR11004300837430002250430000000000000000   10300005 00104100000000000000000000003447     
100   35710830365266210000000000006292000000006292002000000010410404300348460008569052810430212010000856   1030000100030000   541110001915777031200000019MOB BANK               YGN           MMR11004300348460008560430000000000000000   10300003 00104100000000000000000000001258     
100   9503051873053082000000000002000000000002000000200000001041040430035956000858ZKSJE90430212010000858   1030000100030000   541110001915777031200000019MOB BANK               YGN           MMR11004300359560008580430000000000000000   10300002 00104100000000000000000000004000     
100   9503051873061184000000000001292000000001292000200000001041040430121841000766U9XCCV0430212018000766   1030000100030000   541110001920777031200000019MOB BANK               YGN           MMR11004301218410007660430000000000000000   10300002 00104100000000000000000000002584     
100   9503051023323682000000000000435000000000435000200000001041040430083848000135CPMKYD0430212015000135   1030000100030000   541120003005777031200000030MOB BANK               YGN           MMR11004300838480001350430000000000000000   10300002 00104100000000000000000000000870     
100   62346600171093450000000000022000000000022000002000000010410404300528280006212988410430212011000621   1030000100030000   541110001903777031200000019MOB BANK               YGN           MMR11004300528280006210430000000000000000   10300005 00104100000000000000000000004400     
100   9503051024986289000000000000450000000000450000200000001041040430051701000754EG0SIB0430212011000754   1030000100030000   541110001920777031200000019MOB BANK               YGN           MMR11004300517010007540430000000000000000   10300002 00104100000000000000000000000900     
100   95030800001145410000000000045000000000045000002000000010410404300659180008760196010430212013000876   1030000100030000   541110001915777031200000019MOB BANK               YGN           MMR11004300659180008760430000000000000000   10300003 00104100000000000000000000009000     
100   35710830082443690000000000013640000000013640002000000010410404300658070013250188910430212013001325   1030000100030000   581250000001777031200000005MOB BANK               YGN           MMR11004300658070013250430000000000000000   10300003 00104100000000000000000000004638     
100   35710500173491410000000000002750000000002750002000000010410404301121320014821887090430212017001482   1030000100030000   541110001907777031200000019MOB BANK               YGN           MMR11004301121320014820430000000000000000   10300005 00104100000000000000000000000550     
100   35710950012552000000000000011250000000011250002000000010410404300551260001859788710430212012000185   1030000100030000   541120003003777031200000030MOB BANK               YGN           MMR11004300551260001850430000000000000000   10300003 00104100000000000000000000002250     
100   9503051886926126000000000003880000000003880000200000001041040430042854000618BKIQ6K0430212010000618   1030000100030000   541110001903777031200000019MOB BANK               YGN           MMR11004300428540006180430000000000000000   10300002 00104100000000000000000000007760     
100   35650880320003130000000000072000000000072000002000000010410404300406210008601639090430212010000860   1030000100030000   541110001915777031200000019MOB BANK               YGN           MMR11004300406210008600430000000000000000   10300005 00104100000000000000000000025200     
100   62441900003865670000000000018400000000018400002000000010410404300913320013133052540430212015001313   1030000100030000   541110001905777031200000019MOB BANK               YGN           MMR11004300913320013130430000000000000000   10300003 00104100000000000000000000006440     
100   35710500302037470000000000046500000000046500002000000010410404300654400002815063010430212013000281   1030000100030000   541110001916777031200000019MOB BANK               YGN           MMR11004300654400002810430000000000000000   10300005 00104100000000000000000000009300     
100   9503051890082767000000000004600000000004600000200000001041040430074423000433PFUYYG0430212014000433   1030000100030000   541120000011777031200000002MOB BANK               YGN           MMR11004300744230004330430000000000000000   10300002 00104100000000000000000000009200     
100   35710500374079450000000000008400000000008400002000000010410404301255340007682493200430212019000768   1030000100030000   541110001920777031200000019MOB BANK               YGN           MMR11004301255340007680430000000000000000   10300005 00104100000000000000000000001680     
100   9503051897072373000000000001386000000001386000200000001041040430134421000693ISKCOC0430212020000693   1030000100030000   581210001501777031200000015MOB BANK               YGN           MMR11004301344210006930430000000000000000   10300002 00104100000000000000000000004712     
100   35710830889380960000000000029500000000029500002000000010410404301158160009071989720430212018000907   1030000100030000   541110001915777031200000019MOB BANK               YGN           MMR11004301158160009070430000000000000000   10300003 00104100000000000000000000005900     
100   9503051887549208000000000008531000000008531000200000001041040430064632000113KSCELV0430212013000113   1030000100030000   541120003012777031200000030MOB BANK               YGN           MMR11004300646320001130430000000000000000   10300002 00104100000000000000000000017062     
