100   35710830032460880000000000009515000000009515002000000010410405230507280003628244910523214311000362   1030000100030000   541120003005777031200000030MOB BANK               YGN           MMR11005230507280003620523000000000000000   10300003 00104100000000000000000000001903     
100   35710830536586950000000000013400000000013400002000000010410405231235550005320935610523214319000532   1030000100030000   541120003008777031200000030MOB BANK               YGN           MMR11005231235550005320523000000000000000   10300003 00104100000000000000000000002680     
100   35710500192704770000000000035500000000035500002000000010410405230453050004510493730523214311000451   1030000100030000   541120003104777031200000031MOB BANK               YGN           MMR11005230453050004510523000000000000000   10300005 00104100000000000000000000007100     
100   9503051884912193000000000007160000000007160000200000001041040523084853001204CGANA40523214315001204   1030000100030000   541110001903777031200000019MOB BANK               YGN           MMR11005230848530012040523000000000000000   10300002 00104100000000000000000000014320     
100   35710500375935790000000000053500000000053500002000000010410405230902020012066469550523214315001206   1030000100030000   541110001903777031200000019MOB BANK               YGN           MMR11005230902020012060523000000000000000   10300005 00104100000000000000000000010700     
100   35710500373423240000000000028000000000028000002000000010410405230627460000735450240523214312000073   1030000100030000   541110001904777031200000019MOB BANK               YGN           MMR11005230627460000730523000000000000000   10300005 00104100000000000000000000005600     
100   62346600130465090000000000016294000000016294002000000010410405230922300003638179550523214315000363   1030000100030000   541120003005777031200000030MOB BANK               YGN           MMR11005230922300003630523000000000000000   10300005 00104100000000000000000000003259     
100   35710500373423240000000000029900000000029900002000000010410405230703500020562329250523214313002056   1030000100030000   541110001905777031200000019MOB BANK               YGN           MMR11005230703500020560523000000000000000   10300005 00104100000000000000000000005980     
100   35710500331199990000000000117800000000117800002000000010410405230930380003232264170523214316000323   1030000100030000   541120003001777031200000030MOB BANK               YGN           MMR11005230930380003230523000000000000000   10300005 00104100000000000000000000023560     
100   35710500324496600000000000008423000000008423002000000010410405230610400004539174980523214312000453   1030000100030000   541120003104777031200000031MOB BANK               YGN           MMR11005230610400004530523000000000000000   10300005 00104100000000000000000000001685     
100   35710500193296530000000000008200000000008200002000000010410405230746340014492284530523214314001449   1030000100030000   581250000001777031200000005MOB BANK               YGN           MMR11005230746340014490523000000000000000   10300005 00104100000000000000000000002788     
100   35710830961877690000000000020000000000020000002000000010410405230418360004067951800523214310000406   1030000100030000   541120003111777031200000031MOB BANK               YGN           MMR11005230418360004060523000000000000000   10300003 00104100000000000000000000004000     
100   9503051891337624000000000000990000000000990000200000001041040523063721000407YP7LYO0523214313000407   1030000100030000   541120003111777031200000031MOB BANK               YGN           MMR11005230637210004070523000000000000000   10300002 00104100000000000000000000001980     
100   35710830417229180000000000009700000000009700002000000010410405230727250004089084710523214313000408   1030000100030000   541120003111777031200000031MOB BANK               YGN           MMR11005230727250004080523000000000000000   10300003 00104100000000000000000000001940     
100   35710830925136610000000000016610000000016610002000000010410405231202450014500736610523214318001450   1030000100030000   581250000001777031200000005MOB BANK               YGN           MMR11005231202450014500523000000000000000   10300003 00104100000000000000000000005648     
100   35710830287373840000000000236340000000236340002000000010410405230835180015989492000523214315001598   1030000100030000   541160000001777031200000006MOB BANK               YGN           MMR11005230835180015980523000000000000000   10300003 00104100000000000000000000047268     
100   9503051023925742000000000002210000000002210000200000001041040523031722000271UFDIDH0523214309000271   1030000100030000   541120003013777031200000030MOB BANK               YGN           MMR11005230317220002710523000000000000000   10300002 00104100000000000000000000004420     
100   9503051884031978000000000000882000000000882000200000001041040523075008000409M2GGM20523214314000409   1030000100030000   541120003111777031200000031MOB BANK               YGN           MMR11005230750080004090523000000000000000   10300002 00104100000000000000000000001764     
100   35710500360010610000000000035580000000035580002000000010410405230928170004102505670523214315000410   1030000100030000   541120003111777031200000031MOB BANK               YGN           MMR11005230928170004100523000000000000000   10300005 00104100000000000000000000007116     
100   35710500140941380000000000007245000000007245002000000010410405230951560004605953250523214316000460   1030000100030000   541120003104777031200000031MOB BANK               YGN           MMR11005230951560004600523000000000000000   10300005 00104100000000000000000000001449     
100   9503051025825965000000000001748700000001748700200000001041040523034509002441DK8GPZ0523214310002441   1030000100030000   541110001907777031200000019MOB BANK               YGN           MMR11005230345090024410523000000000000000   10300002 00104100000000000000000000003498     
100   9503051892077625000000000002340000000002340000200000001041040523121308000244AS4N1V0523214318000244   1030000100030000   541120003110777031200000031MOB BANK               YGN           MMR11005231213080002440523000000000000000   10300002 00104100000000000000000000004680     
100   35710830506931660000000000011500000000011500002000000010410405230924590006259790100523214315000625   1030000100030000   541120003103777031200000031MOB BANK               YGN           MMR11005230924590006250523000000000000000   10300003 00104100000000000000000000002300     
100   62346600112155510000000000006800000000006800002000000010410405230645240002736699110523214313000273   1030000100030000   541120003013777031200000030MOB BANK               YGN           MMR11005230645240002730523000000000000000   10300005 00104100000000000000000000001360     
100   9503051887191076000000000000441000000000441000200000001041040523122551000366TX61I40523214318000366   1030000100030000   541120003005777031200000030MOB BANK               YGN           MMR11005231225510003660523000000000000000   10300002 00104100000000000000000000000882     
100   9503051886233853000000000003455000000003455000200000001041040523123755000367QEW4E80523214319000367   1030000100030000   541120003005777031200000030MOB BANK               YGN           MMR11005231237550003670523000000000000000   10300002 00104100000000000000000000006910     
100   9503051019808027000000000001552500000001552500200000001041040523103709000462AVI65D0523214317000462   1030000100030000   541120003104777031200000031MOB BANK               YGN           MMR11005231037090004620523000000000000000   10300002 00104100000000000000000000003105     
100   62343301016488440000000000013920000000013920002000000010410405231043460005279862760523214317000527   1030000100030000   541120003008777031200000030MOB BANK               YGN           MMR11005231043460005270523000000000000000   10300004 00104100000000000000000000002784     
100   35710830989900610000000000038800000000038800002000000010410405230647050012028842700523214313001202   1030000100030000   541110001903777031200000019MOB BANK               YGN           MMR11005230647050012020523000000000000000   10300003 00104100000000000000000000007760     
100   9503051897521866000000000004080000000004080000200000001041040523105218001209PY3YCS0523214317001209   1030000100030000   541110001903777031200000019MOB BANK               YGN           MMR11005231052180012090523000000000000000   10300002 00104100000000000000000000008160     
100   35710500105450000000000000056600000000056600002000000010410405231135590012134857150523214318001213   1030000100030000   541110001903777031200000019MOB BANK               YGN           MMR11005231135590012130523000000000000000   10300005 00104100000000000000000000011320     
100   9503051895947394000000000001770000000001770000200000001041040523111006002084AZDBQM0523214317002084   1030000100030000   541110001905777031200000019MOB BANK               YGN           MMR11005231110060020840523000000000000000   10300002 00104100000000000000000000003540     
100   35710500383788140000000000016600000000016600002000000010410405230930040020788703910523214316002078   1030000100030000   541110001905777031200000019MOB BANK               YGN           MMR11005230930040020780523000000000000000   10300005 00104100000000000000000000003320     
100   35710830083463210000000000009225000000009225002000000010410405230612550011278637710523214312001127   1030000100030000   541110001920777031200000019MOB BANK               YGN           MMR11005230612550011270523000000000000000   10300003 00104100000000000000000000001845     
100   95031900058520920000000000020000000000020000002000000010410405230605350005255MB5OE0523214312000525   1030000100030000   541120003008777031200000030MOB BANK               YGN           MMR11005230605350005250523000000000000000   10300014 00104100000000000000000000004000     
100   35710500383365560000000000012150000000012150002000000010410405230418510004493498740523214310000449   1030000100030000   541120003104777031200000031MOB BANK               YGN           MMR11005230418510004490523000000000000000   10300005 00104100000000000000000000002430     
100   9503051022827972000000000004350000000004350000200000001041040523105705001211SCCSGS0523214317001211   1030000100030000   541110001903777031200000019MOB BANK               YGN           MMR11005231057050012110523000000000000000   10300002 00104100000000000000000000008700     
100   9503051025801693000000000008670000000008670000200000001041040523043903001594EAVRCE0523214311001594   1030000100030000   541160000001777031200000006MOB BANK               YGN           MMR11005230439030015940523000000000000000   10300002 00104100000000000000000000017340     
100   35710830536586950000000000016700000000016700002000000010410405231233360005310921810523214319000531   1030000100030000   541120003008777031200000030MOB BANK               YGN           MMR11005231233360005310523000000000000000   10300003 00104100000000000000000000003340     
100   35710500355039010000000000006860000000006860002000000010410405230833210004430311170523214315000443   1030000100030000   541120003003777031200000030MOB BANK               YGN           MMR11005230833210004430523000000000000000   10300005 00104100000000000000000000001372     
100   9503051025422367000000000009800000000009800000200000001041040523034103002053MBHDZL0523214310002053   1030000100030000   541110001905777031200000019MOB BANK               YGN           MMR11005230341030020530523000000000000000   10300002 00104100000000000000000000019600     
100   35710830635217760000000000009300000000009300002000000010410405230635260014488772720523214313001448   1030000100030000   581250000001777031200000005MOB BANK               YGN           MMR11005230635260014480523000000000000000   10300003 00104100000000000000000000003162     
100   9503051025422367000000000008000000000008000000200000001041040523041336002443MSGMEF0523214310002443   1030000100030000   541110001907777031200000019MOB BANK               YGN           MMR11005230413360024430523000000000000000   10300002 00104100000000000000000000016000     
100   95030510244775370000000000021400000000021400002000000010410405230654210024450GAWL50523214313002445   1030000100030000   541110001907777031200000019MOB BANK               YGN           MMR11005230654210024450523000000000000000   10300002 00104100000000000000000000004280     
