100   35710830257243510000000000008400000000008400002000000010410406040634310003282447310604215513000328   1030000100030000   541120003013777031200000030MOB BANK               YGN           MMR11006040634310003280604000000000000000   10300003 00104100000000000000000000001680     
100   9503051883584860000000000001700000000001700000200000001041040604033827000692E3YT900604215510000692   1030000100030000   541120003103777031200000031MOB BANK               YGN           MMR11006040338270006920604000000000000000   10300002 00104100000000000000000000003400     
100   9503051890501964000000000001243000000001243000200000001041040604091833001513XLNFX20604215515001513   1030000100030000   581250000001777031200000005MOB BANK               YGN           MMR11006040918330015130604000000000000000   10300002 00104100000000000000000000004226     
100   62346600109865250000000000019000000000019000002000000010410406041051020015954839370604215517001595   1030000100030000   541120003117777031200000031MOB BANK               YGN           MMR11006041051020015950604000000000000000   10300005 00104100000000000000000000003800     
100   35710500106377320000000000075600000000075600002000000010410406040723320015829634300604215513001582   1030000100030000   541120003117777031200000031MOB BANK               YGN           MMR11006040723320015820604000000000000000   10300005 00104100000000000000000000015120     
100   9503051020903619000000000003380000000003380000200000001041040604100247002333OVPP3C0604215516002333   1030000100030000   541110001905777031200000019MOB BANK               YGN           MMR11006041002470023330604000000000000000   10300002 00104100000000000000000000006760     
100   35710830554855500000000000090000000000090000002000000010410406041010510023423745310604215516002342   1030000100030000   541110001905777031200000019MOB BANK               YGN           MMR11006041010510023420604000000000000000   10300003 00104100000000000000000000018000     
100   62921400060903670000000000031500000000031500002000000010410406040909440003052222220604215515000305   1030000100030000   541120003002777031200000030MOB BANK               YGN           MMR11006040909440003050604000000000000000   10300009 00104100000000000000000000006300     
100   9503051024816528000000000001025000000001025000200000001041040604110811000384WKTZHL0604215517000384   1030000100030000   541120003001777031200000030MOB BANK               YGN           MMR11006041108110003840604000000000000000   10300002 00104100000000000000000000002050     
100   95031900000058860000000000010000000000010000002000000010410406041153270005620KG1H20604215518000562   1030000100030000   541120003104777031200000031MOB BANK               YGN           MMR11006041153270005620604000000000000000   10300014 00104100000000000000000000002000     
100   95030518926985940000000000023440000000023440002000000010410406041155590005635A4TEX0604215518000563   1030000100030000   541120003104777031200000031MOB BANK               YGN           MMR11006041155590005630604000000000000000   10300002 00104100000000000000000000004688     
100   35710500342904760000000000004140000000004140002000000010410406040555520012767536830604215512001276   1030000100030000   541110001920777031200000019MOB BANK               YGN           MMR11006040555520012760604000000000000000   10300005 00104100000000000000000000000828     
100   9503051025746104000000000001320000000001320000200000001041040604091950001332CAZLHT0604215515001332   1030000100030000   541110001915777031200000019MOB BANK               YGN           MMR11006040919500013320604000000000000000   10300002 00104100000000000000000000002640     
100   62443000116786270000000000033800000000033800002000000010410406040528400015020905030604215511001502   1030000100030000   541110001903777031200000019MOB BANK               YGN           MMR11006040528400015020604000000000000000   10300005 00104100000000000000000000011830     
100   35710830204099580000000000055600000000055600002000000010410406040949430015253618420604215516001525   1030000100030000   541110001903777031200000019MOB BANK               YGN           MMR11006040949430015250604000000000000000   10300003 00104100000000000000000000011120     
100   9503051885483558000000000003680000000003680000200000001041040604080856001514S3DRNC0604215514001514   1030000100030000   541110001903777031200000019MOB BANK               YGN           MMR11006040808560015140604000000000000000   10300002 00104100000000000000000000007360     
100   35710500154136180000000000024500000000024500002000000010410406040402400014864596470604215510001486   1030000100030000   541110001903777031200000019MOB BANK               YGN           MMR11006040402400014860604000000000000000   10300005 00104100000000000000000000004900     
100   95030510244259400000000000005800000000005800002000000010410406041004320013416AAR3L0604215516001341   1030000100030000   541110001915777031200000019MOB BANK               YGN           MMR11006041004320013410604000000000000000   10300002 00104100000000000000000000001160     
100   35710830863160550000000000054725000000054725002000000010410406040942510015143577210604215516001514   1030000100030000   581250000001777031200000005MOB BANK               YGN           MMR11006040942510015140604000000000000000   10300003 00104100000000000000000000018606     
100   35710830930443770000000000037800000000037800002000000010410406040417520003781627310604215510000378   1030000100030000   541120003001777031200000030MOB BANK               YGN           MMR11006040417520003780604000000000000000   10300003 00104100000000000000000000007560     
100   35710830204099580000000000012420000000012420002000000010410406041002110012923693310604215516001292   1030000100030000   541110001920777031200000019MOB BANK               YGN           MMR11006041002110012920604000000000000000   10300003 00104100000000000000000000002484     
100   35710830105610990000000000004400000000004400002000000010410406041026190013433838010604215516001343   1030000100030000   541110001915777031200000019MOB BANK               YGN           MMR11006041026190013430604000000000000000   10300003 00104100000000000000000000000880     
100   35710830365774260000000000025200000000025200002000000010410406041135080015974250930604215518001597   1030000100030000   541120003117777031200000031MOB BANK               YGN           MMR11006041135080015970604000000000000000   10300003 00104100000000000000000000005040     
100   9503051023053560000000000003080000000003080000200000001041040604050454000694NJ7GEW0604215511000694   1030000100030000   541120003103777031200000031MOB BANK               YGN           MMR11006040504540006940604000000000000000   10300002 00104100000000000000000000006160     
100   35710830854303860000000000010440000000010440002000000010410406040616130012782337420604215512001278   1030000100030000   541110001920777031200000019MOB BANK               YGN           MMR11006040616130012780604000000000000000   10300003 00104100000000000000000000002088     
100   35710500315878740000000000025800000000025800002000000010410406040540110015045055250604215512001504   1030000100030000   541110001903777031200000019MOB BANK               YGN           MMR11006040540110015040604000000000000000   10300005 00104100000000000000000000005160     
100   35710830732389320000000000017600000000017600002000000010410406040529480013232058920604215511001323   1030000100030000   541110001915777031200000019MOB BANK               YGN           MMR11006040529480013230604000000000000000   10300003 00104100000000000000000000003520     
100   35710500371227260000000000014300000000014300002000000010410406041026440015152953460604215516001515   1030000100030000   581250000001777031200000005MOB BANK               YGN           MMR11006041026440015150604000000000000000   10300005 00104100000000000000000000004862     
100   9503051887563241000000000003404500000003404500200000001041040604111626001516GFLZJB0604215517001516   1030000100030000   581250000001777031200000005MOB BANK               YGN           MMR11006041116260015160604000000000000000   10300002 00104100000000000000000000011575     
100   9503051024378222000000000001420000000001420000200000001041040604073240002326KLK0K00604215514002326   1030000100030000   541110001905777031200000019MOB BANK               YGN           MMR11006040732400023260604000000000000000   10300002 00104100000000000000000000002840     
100   9503051021947821000000000000592600000000592600200000001041040604113715000625IJAOQC0604215518000625   1030000100030000   541120003008777031200000030MOB BANK               YGN           MMR11006041137150006250604000000000000000   10300002 00104100000000000000000000001185     
100   9503051885062733000000000002280000000002280000200000001041040604043711001489IE6GFB0604215511001489   1030000100030000   541110001903777031200000019MOB BANK               YGN           MMR11006040437110014890604000000000000000   10300002 00104100000000000000000000004560     
100   35710830722973760000000000004000000000004000002000000010410406041242170013524653910604215519001352   1030000100030000   541110001915777031200000019MOB BANK               YGN           MMR11006041242170013520604000000000000000   10300003 00104100000000000000000000000800     
100   35710830105610990000000000057900000000057900002000000010410406040846180015173238010604215515001517   1030000100030000   541110001903777031200000019MOB BANK               YGN           MMR11006040846180015170604000000000000000   10300003 00104100000000000000000000011580     
100   35710830426254250000000000133000000000133000002000000010410406040400470000251524810604215510000025   1030000100030000   541110900002777030900000002MOB BANK               YGN           MMR11006040400470000250604000000000000000   10300003 00104100000000000000000000026600     
100   62622000257337630000000000022400000000022400002000000010410406041023320003308166760604215516000330   1030000100030000   541120003013777031200000030MOB BANK               YGN           MMR11006041023320003300604000000000000000   10300006 00104100000000000000000000004480     
100   35710830807091310000000000007100000000007100002000000010410406041148400015994332110604215518001599   1030000100030000   541120003117777031200000031MOB BANK               YGN           MMR11006041148400015990604000000000000000   10300003 00104100000000000000000000001420     
100   9503051892446465000000000004130000000004130000200000001041040604115645001601TLNRGN0604215518001601   1030000100030000   541120003117777031200000031MOB BANK               YGN           MMR11006041156450016010604000000000000000   10300002 00104100000000000000000000008260     
100   35710830579310070000000000008232000000008232002000000010410406041218400023454512120604215518002345   1030000100030000   541110001905777031200000019MOB BANK               YGN           MMR11006041218400023450604000000000000000   10300003 00104100000000000000000000001646     
100   9503051019621297000000000002150000000002150000200000001041040604121644000307NJQIMY0604215518000307   1030000100030000   541120003002777031200000030MOB BANK               YGN           MMR11006041216440003070604000000000000000   10300002 00104100000000000000000000004300     
100   9503051873894014000000000001830000000001830000200000001041040604082848000302AYIIFU0604215514000302   1030000100030000   541120003002777031200000030MOB BANK               YGN           MMR11006040828480003020604000000000000000   10300002 00104100000000000000000000003660     
100   35710500170246600000000000026708000000026708002000000010410406041030450003317364680604215517000331   1030000100030000   541120003013777031200000030MOB BANK               YGN           MMR11006041030450003310604000000000000000   10300005 00104100000000000000000000005342     
100   35710830652560170000000000177700000000177700002000000010410406040710470006482664810604215513000648   1030000100030000   581210001201777031200000012MOB BANK               YGN           MMR11006040710470006480604000000000000000   10300003 00104100000000000000000000060418     
100   35710900302900130000000000030800000000030800002000000010410406040704010006962624320604215513000696   1030000100030000   541120003103777031200000031MOB BANK               YGN           MMR11006040704010006960604000000000000000   10300003 00104100000000000000000000006160     
100   35710500343243410000000000023100000000023100002000000010410406040631580012806148880604215513001280   1030000100030000   541110001920777031200000019MOB BANK               YGN           MMR11006040631580012800604000000000000000   10300005 00104100000000000000000000004620     
100   9503051024425940000000000001010000000001010000200000001041040604091844001282QJ8B0R0604215515001282   1030000100030000   541110001920777031200000019MOB BANK               YGN           MMR11006040918440012820604000000000000000   10300002 00104100000000000000000000002020     
100   35710500355548050000000000025800000000025800002000000010410406040633540015068652340604215513001506   1030000100030000   541110001903777031200000019MOB BANK               YGN           MMR11006040633540015060604000000000000000   10300005 00104100000000000000000000005160     
100   35710830304651150000000000061600000000061600002000000010410406041022370015283815810604215516001528   1030000100030000   541110001903777031200000019MOB BANK               YGN           MMR11006041022370015280604000000000000000   10300003 00104100000000000000000000012320     
100   9503051872499633000000000006008000000006008000200000001041040604070831000260HFXRM10604215513000260   1030000100030000   541110001917777031200000019MOB BANK               YGN           MMR11006040708310002600604000000000000000   10300002 00104100000000000000000000012016     
100   62441900002597070000000000017000000000017000002000000010410406040336330002998887640604215510000299   1030000100030000   541120003002777031200000030MOB BANK               YGN           MMR11006040336330002990604000000000000000   10300003 00104100000000000000000000005950     
100   9503051022877688000000000003240000000003240000200000001041040604121137000457BIBFPV0604215518000457   1030000100030000   541120003005777031200000030MOB BANK               YGN           MMR11006041211370004570604000000000000000   10300002 00104100000000000000000000006480     
100   9503051025943750000000000000540000000000540000200000001041040604071308001326OVKIKK0604215513001326   1030000100030000   541110001915777031200000019MOB BANK               YGN           MMR11006040713080013260604000000000000000   10300002 00104100000000000000000000001080     
100   35710830324399280000000000018050000000018050002000000010410406040336520013141381320604215510001314   1030000100030000   541110001915777031200000019MOB BANK               YGN           MMR11006040336520013140604000000000000000   10300003 00104100000000000000000000003610     
100   35710830105610990000000000026500000000026500002000000010410406041040060013463920810604215517001346   1030000100030000   541110001915777031200000019MOB BANK               YGN           MMR11006041040060013460604000000000000000   10300003 00104100000000000000000000005300     
100   9503051024196251000000000003350000000003350000200000001041040604034705000274JTA3CW0604215510000274   1030000100030000   541120003012777031200000030MOB BANK               YGN           MMR11006040347050002740604000000000000000   10300002 00104100000000000000000000006700     
100   9503051020133878000000000001789250000001789250200000001041040604043536000380SBWHW20604215511000380   1030000100030000   541120003001777031200000030MOB BANK               YGN           MMR11006040435360003800604000000000000000   10300002 00104100000000000000000000003578     
100   95031800155391360000000000234200000000234200002000000010410406040923120006498773970604215515000649   1030000100030000   581210001201777031200000012MOB BANK               YGN           MMR11006040923120006490604000000000000000   10300013 00104100000000000000000000079628     
100   95031800155391360000000000057500000000057500002000000010410406041113530006505260460604215517000650   1030000100030000   581210001201777031200000012MOB BANK               YGN           MMR11006041113530006500604000000000000000   10300013 00104100000000000000000000019550     
100   35710830992073170000000000015300000000015300002000000010410406040958260013373670800604215516001337   1030000100030000   541110001915777031200000019MOB BANK               YGN           MMR11006040958260013370604000000000000000   10300003 00104100000000000000000000003060     
100   9503051890353424000000000008260000000008260000200000001041040604093353001520DLQ0FB0604215516001520   1030000100030000   541110001903777031200000019MOB BANK               YGN           MMR11006040933530015200604000000000000000   10300002 00104100000000000000000000016520     
100   35710500320950830000000000008200000000008200002000000010410406040400530023079979400604215510002307   1030000100030000   541110001905777031200000019MOB BANK               YGN           MMR11006040400530023070604000000000000000   10300005 00104100000000000000000000001640     
100   95030800067742640000000000025900000000025900002000000010410406040508550028391933710604215511002839   1030000100030000   541110001907777031200000019MOB BANK               YGN           MMR11006040508550028390604000000000000000   10300003 00104100000000000000000000005180     
100   35710500393769320000000000027000000000027000002000000010410406040337000028267942810604215510002826   1030000100030000   541110001907777031200000019MOB BANK               YGN           MMR11006040337000028260604000000000000000   10300005 00104100000000000000000000005400     
100   9503051025744430000000000002263500000002263500200000001041040604111312002863VHIIPU0604215517002863   1030000100030000   541110001907777031200000019MOB BANK               YGN           MMR11006041113120028630604000000000000000   10300002 00104100000000000000000000004527     
100   9503051885688776000000000003018400000003018400200000001041040604072525002852EQPSQI0604215513002852   1030000100030000   541110001907777031200000019MOB BANK               YGN           MMR11006040725250028520604000000000000000   10300002 00104100000000000000000000006037     
100   95030800067742640000000000009450000000009450002000000010410406040517350028421985700604215511002842   1030000100030000   541110001907777031200000019MOB BANK               YGN           MMR11006040517350028420604000000000000000   10300003 00104100000000000000000000001890     
100   35710830682801880000000000120000000000120000002000000010410406040346400028291440130604215510002829   1030000100030000   541110001907777031200000019MOB BANK               YGN           MMR11006040346400028290604000000000000000   10300003 00104100000000000000000000024000     
100   9503051021017492000000000000360000000000360000200000001041040604073818002855HLLCGG0604215514002855   1030000100030000   541110001907777031200000019MOB BANK               YGN           MMR11006040738180028550604000000000000000   10300002 00104100000000000000000000000720     
100   35710830579310070000000000015000000000015000002000000010410406041245120028664671510604215519002866   1030000100030000   541110001907777031200000019MOB BANK               YGN           MMR11006041245120028660604000000000000000   10300003 00104100000000000000000000003000     
100   9503051885863312000000000001270000000001270000200000001041040604101433002858INMT5K0604215516002858   1030000100030000   541110001907777031200000019MOB BANK               YGN           MMR11006041014330028580604000000000000000   10300002 00104100000000000000000000002540     
100   35710830324399280000000000010200000000010200002000000010410406040350220028321462310604215510002832   1030000100030000   541110001907777031200000019MOB BANK               YGN           MMR11006040350220028320604000000000000000   10300003 00104100000000000000000000002040     
100   95051816231077360000000000020352000000020352002000000010410406040631100028490138200604215513002849   1030000100030000   541110001907777031200000019MOB BANK               YGN           MMR11006040631100028490604000000000000000   10300013 00104100000000000000000000007123     
100   35710830606804270000000000041750000000041750002000000010410406040359030028351514410604215510002835   1030000100030000   541110001907777031200000019MOB BANK               YGN           MMR11006040359030028350604000000000000000   10300003 00104100000000000000000000008350     
100   9503051024425940000000000000750000000000750000200000001041040604111053002861IMQM4I0604215517002861   1030000100030000   541110001907777031200000019MOB BANK               YGN           MMR11006041110530028610604000000000000000   10300002 00104100000000000000000000001500     
100   35710830576091730000000000016608000000016608002000000010410406040500170028371881820604215511002837   1030000100030000   541110001907777031200000019MOB BANK               YGN           MMR11006040500170028370604000000000000000   10300003 00104100000000000000000000003322     
100   95030800000535250000000000024750000000024750002000000010410406040803200015122980200604215514001512   1030000100030000   581250000001777031200000005MOB BANK               YGN           MMR11006040803200015120604000000000000000   10300003 00104100000000000000000000008415     
100   35710830854121860000000000019965000000019965002000000010410406030956580015085021910603215416001508   1030000100030000   581250000001777031200000005MOB BANK               YGN           MMR11006030956580015080603000000000000000   10300003 00104100000000000000000000006788     
100   9503051026246260000000000000715000000000715000200000001041040603112517001509G1UFRF0603215417001509   1030000100030000   581250000001777031200000005MOB BANK               YGN           MMR11006031125170015090603000000000000000   10300002 00104100000000000000000000002431     
100   35710830830785340000000000015730000000015730002000000010410406031228300015105931200603215418001510   1030000100030000   581250000001777031200000005MOB BANK               YGN           MMR11006031228300015100603000000000000000   10300003 00104100000000000000000000005348     
100   35710830459336440000000000014135000000014135002000000010410406030713550015074043800603215413001507   1030000100030000   581250000001777031200000005MOB BANK               YGN           MMR11006030713550015070603000000000000000   10300003 00104100000000000000000000004806     
100   35710830105610990000000000007000000000007000002000000010410406041046450012943960710604215517001294   1030000100030000   541110001920777031200000019MOB BANK               YGN           MMR11006041046450012940604000000000000000   10300003 00104100000000000000000000001400     
100   35710500394162660000000000021250000000021250002000000010410406040826350013282887650604215514001328   1030000100030000   541110001915777031200000019MOB BANK               YGN           MMR11006040826350013280604000000000000000   10300005 00104100000000000000000000004250     
100   62346600161642420000000000040000000000040000002000000010410406041245120015316444770604215519001531   1030000100030000   541110001903777031200000019MOB BANK               YGN           MMR11006041245120015310604000000000000000   10300005 00104100000000000000000000008000     
100   35710500324959290000000000016005000000016005002000000010410406040830480003032753110604215515000303   1030000100030000   541120003002777031200000030MOB BANK               YGN           MMR11006040830480003030604000000000000000   10300005 00104100000000000000000000003201     
100   9503051021947821000000000001536000000001536000200000001041040604114009000332XYB1RV0604215518000332   1030000100030000   541120003013777031200000030MOB BANK               YGN           MMR11006041140090003320604000000000000000   10300002 00104100000000000000000000003072     
100   9503051023377167000000000001010000000001010000200000001041040604050339000558T59FY80604215511000558   1030000100030000   541120003104777031200000031MOB BANK               YGN           MMR11006040503390005580604000000000000000   10300002 00104100000000000000000000002020     
100   9503051891152528000000000002280000000002280000200000001041040604051737001493GUG4AQ0604215511001493   1030000100030000   541110001903777031200000019MOB BANK               YGN           MMR11006040517370014930604000000000000000   10300002 00104100000000000000000000004560     
100   35710500325446190000000000022800000000022800002000000010410406040523000014952593170604215511001495   1030000100030000   541110001903777031200000019MOB BANK               YGN           MMR11006040523000014950604000000000000000   10300005 00104100000000000000000000004560     
100   35710500325446190000000000027500000000027500002000000010410406040410120013166377780604215510001316   1030000100030000   541110001915777031200000019MOB BANK               YGN           MMR11006040410120013160604000000000000000   10300005 00104100000000000000000000005500     
100   9503051021982075000000000017760000000017760000200000001041040604060124001677LIXFOL0604215512001677   1030000100030000   541160000001777031200000006MOB BANK               YGN           MMR11006040601240016770604000000000000000   10300002 00104100000000000000000000035520     
100   9503051872338344000000000003680000000003680000200000001041040604062733002321EON7SO0604215512002321   1030000100030000   541110001905777031200000019MOB BANK               YGN           MMR11006040627330023210604000000000000000   10300002 00104100000000000000000000007360     
100   35710830920003470000000000024065000000024065002000000010410406041014290003823767110604215516000382   1030000100030000   541120003001777031200000030MOB BANK               YGN           MMR11006041014290003820604000000000000000   10300003 00104100000000000000000000004813     
100   35710950974221100000000000177700000000177700002000000010410406041321270006514888900604215519000651   1030000100030000   581210001201777031200000012MOB BANK               YGN           MMR11006041321270006510604000000000000000   10300003 00104100000000000000000000060418     
100   9503051021451667000000000002410000000002410000200000001041040604104245001348YVVIRB0604215517001348   1030000100030000   541110001915777031200000019MOB BANK               YGN           MMR11006041042450013480604000000000000000   10300002 00104100000000000000000000004820     
100   950305102574314300000000000366000000000366000020000000104104060408420000158997IKYO0604215515001589   1030000100030000   541120003117777031200000031MOB BANK               YGN           MMR11006040842000015890604000000000000000   10300002 00104100000000000000000000007320     
100   35710500325173000000000000021000000000021000002000000010410406040611410003276949230604215512000327   1030000100030000   541120003013777031200000030MOB BANK               YGN           MMR11006040611410003270604000000000000000   10300005 00104100000000000000000000004200     
100   95030518978862690000000000010140000000010140002000000010410406040933180012880WVVWB0604215516001288   1030000100030000   541110001920777031200000019MOB BANK               YGN           MMR11006040933180012880604000000000000000   10300002 00104100000000000000000000002028     
100   35710830992073170000000000014000000000014000002000000010410406041002360013393695810604215516001339   1030000100030000   541110001915777031200000019MOB BANK               YGN           MMR11006041002360013390604000000000000000   10300003 00104100000000000000000000002800     
100   9503190002065482000000000003280000000003280000200000001041040604071042001510TRNP130604215513001510   1030000100030000   541110001903777031200000019MOB BANK               YGN           MMR11006040710420015100604000000000000000   10300014 00104100000000000000000000006560     
100   35710500383407070000000000025800000000025800002000000010410406040807290015122009110604215514001512   1030000100030000   541110001903777031200000019MOB BANK               YGN           MMR11006040807290015120604000000000000000   10300005 00104100000000000000000000005160     
100   9503051025422581000000000000912000000000912000200000001041040604042850001318PENPOY0604215510001318   1030000100030000   541110001915777031200000019MOB BANK               YGN           MMR11006040428500013180604000000000000000   10300002 00104100000000000000000000001824     
100   9503190000005886000000000001150000000001150000200000001041040604102953001592T9M72H0604215516001592   1030000100030000   541120003117777031200000031MOB BANK               YGN           MMR11006041029530015920604000000000000000   10300014 00104100000000000000000000002300     
100   35710500355578080000000000002150000000002150002000000010410406040921160023308437530604215515002330   1030000100030000   541110001905777031200000019MOB BANK               YGN           MMR11006040921160023300604000000000000000   10300005 00104100000000000000000000000430     
100   9503051887191076000000000000441000000000441000200000001041040604121705000458IZL09E0604215518000458   1030000100030000   541120003005777031200000030MOB BANK               YGN           MMR11006041217050004580604000000000000000   10300002 00104100000000000000000000000882     
100   9503051889903130000000000000828000000000828000200000001041040604081822000560DMG6J60604215514000560   1030000100030000   541120003104777031200000031MOB BANK               YGN           MMR11006040818220005600604000000000000000   10300002 00104100000000000000000000001656     
100   9503051897072373000000000001760000000001760000200000001041040604143835000889CIVGUA0604215521000889   1030000100030000   581210001501777031200000015MOB BANK               YGN           MMR11006041438350008890604000000000000000   10300002 00104100000000000000000000005984     
100   9503051888549066000000000002348000000002348000200000001041040604041507001272DMNKAF0604215510001272   1030000100030000   541110001920777031200000019MOB BANK               YGN           MMR11006040415070012720604000000000000000   10300002 00104100000000000000000000004696     
100   35710830414693460000000000015700000000015700002000000010410406040445360012741793800604215511001274   1030000100030000   541110001920777031200000019MOB BANK               YGN           MMR11006040445360012740604000000000000000   10300003 00104100000000000000000000003140     
100   35710500354090420000000000072500000000072500002000000010410406040856520013308199280604215515001330   1030000100030000   541110001915777031200000019MOB BANK               YGN           MMR11006040856520013300604000000000000000   10300005 00104100000000000000000000014500     
100   95030510255783090000000000010900000000010900002000000010410406040504470013201UR3XB0604215511001320   1030000100030000   541110001915777031200000019MOB BANK               YGN           MMR11006040504470013200604000000000000000   10300002 00104100000000000000000000002180     
100   9503051024425940000000000002280000000002280000200000001041040604093857001523ESVXYH0604215516001523   1030000100030000   541110001903777031200000019MOB BANK               YGN           MMR11006040938570015230604000000000000000   10300002 00104100000000000000000000004560     
100   35710500105618250000000000017700000000017700002000000010410406040726290023230704900604215513002323   1030000100030000   541110001905777031200000019MOB BANK               YGN           MMR11006040726290023230604000000000000000   10300005 00104100000000000000000000003540     
100   35710500395566160000000000113200000000113200002000000010410406040359250014848752400604215510001484   1030000100030000   541110001903777031200000019MOB BANK               YGN           MMR11006040359250014840604000000000000000   10300005 00104100000000000000000000022640     
100   35710500134637220000000000107898000000107898002000000010410406040615030023120374950604215512002312   1030000100030000   541110001905777031200000019MOB BANK               YGN           MMR11006040615030023120604000000000000000   10300005 00104100000000000000000000021580     
100   62346600137459280000000000439000000000439000002000000010410406040759570000299159560604215514000029   1030000100030000   541110900002777030900000002MOB BANK               YGN           MMR11006040759570000290604000000000000000   10300005 00104100000000000000000000087800     
100   9503051021947821000000000004300000000004300000200000001041040604123525000309CZJIQQ0604215519000309   1030000100030000   541120003002777031200000030MOB BANK               YGN           MMR11006041235250003090604000000000000000   10300002 00104100000000000000000000008600     
