100   9503051892966637000000000000962500000000962500200000001041040519075608001425HCBPXL0519213914001425   1030000100030000   581250000001777031200000005MOB BANK               YGN           MMR11005190756080014250519000000000000000   10300002 00104100000000000000000000003272     
100   35710830033572570000000000012050000000012050002000000010410405190945040014265350510519213916001426   1030000100030000   581250000001777031200000005MOB BANK               YGN           MMR11005190945040014260519000000000000000   10300003 00104100000000000000000000004097     
100   9503051022105809000000000000980000000000980000200000001041040519042800001277VCXKUQ0519213910001277   1030000100030000   541120003117777031200000031MOB BANK               YGN           MMR11005190428000012770519000000000000000   10300002 00104100000000000000000000001960     
100   9503051872803255000000000002690000000002690000200000001041040519105443002215QHPFWU0519213917002215   1030000100030000   541110001907777031200000019MOB BANK               YGN           MMR11005191054430022150519000000000000000   10300002 00104100000000000000000000005380     
100   9503051025464237000000000001200000000001200000200000001041040519054638000460PXNRCI0519213912000460   1030000100030000   541120003008777031200000030MOB BANK               YGN           MMR11005190546380004600519000000000000000   10300002 00104100000000000000000000002400     
100   9503051875153799000000000001480000000001480000200000001041040519103312001064YNTMXL0519213917001064   1030000100030000   541110001903777031200000019MOB BANK               YGN           MMR11005191033120010640519000000000000000   10300002 00104100000000000000000000002960     
100   9503051023275312000000000002180000000002180000200000001041040519104020001066PPFFOR0519213917001066   1030000100030000   541110001903777031200000019MOB BANK               YGN           MMR11005191040200010660519000000000000000   10300002 00104100000000000000000000004360     
100   35710500174383240000000000018720000000018720002000000010410405190603280013129709090519213912001312   1030000100030000   541120003106777031200000031MOB BANK               YGN           MMR11005190603280013120519000000000000000   10300005 00104100000000000000000000003744     
100   9503051023331164000000000001274000000001274000200000001041040519061306001936WFZE5I0519213912001936   1030000100030000   541110001905777031200000019MOB BANK               YGN           MMR11005190613060019360519000000000000000   10300002 00104100000000000000000000002548     
100   9503051026029526000000000000290000000000290000200000001041040519100739002209UCIYZN0519213916002209   1030000100030000   541110001907777031200000019MOB BANK               YGN           MMR11005191007390022090519000000000000000   10300002 00104100000000000000000000000580     
100   9503051025494481000000000055000000000055000000200000001041040519080625002202PDMXUU0519213914002202   1030000100030000   541110001907777031200000019MOB BANK               YGN           MMR11005190806250022020519000000000000000   10300002 00104100000000000000000000110000     
100   95030518871910760000000000004410000000004410002000000010410405191111570003212NVUKR0519213917000321   1030000100030000   541120003005777031200000030MOB BANK               YGN           MMR11005191111570003210519000000000000000   10300002 00104100000000000000000000000882     
100   35710830214404400000000000007500000000007500002000000010410405190445310003163553300519213911000316   1030000100030000   541120003005777031200000030MOB BANK               YGN           MMR11005190445310003160519000000000000000   10300003 00104100000000000000000000001500     
100   9503051024198323000000000002580000000002580000200000001041040519073524001045TNULUP0519213914001045   1030000100030000   541110001903777031200000019MOB BANK               YGN           MMR11005190735240010450519000000000000000   10300002 00104100000000000000000000005160     
100   35710830434219640000000000019200000000019200002000000010410405190924430001855228410519213915000185   1030000100030000   541120003012777031200000030MOB BANK               YGN           MMR11005190924430001850519000000000000000   10300003 00104100000000000000000000003840     
100   95030510256091380000000000015500000000015500002000000010410405190953080004716A9NQK0519213916000471   1030000100030000   541120003008777031200000030MOB BANK               YGN           MMR11005190953080004710519000000000000000   10300002 00104100000000000000000000003100     
100   95031900042653200000000000015950000000015950002000000010410405190655590012872TM6DN0519213913001287   1030000100030000   541120003117777031200000031MOB BANK               YGN           MMR11005190655590012870519000000000000000   10300014 00104100000000000000000000003190     
100   9503051887629240000000000001650000000001650000200000001041040519043820001279A3MZVX0519213911001279   1030000100030000   541120003117777031200000031MOB BANK               YGN           MMR11005190438200012790519000000000000000   10300002 00104100000000000000000000003300     
100   35710500346041300000000000004300000000004300002000000010410405190735160019458278600519213914001945   1030000100030000   541110001905777031200000019MOB BANK               YGN           MMR11005190735160019450519000000000000000   10300005 00104100000000000000000000000860     
100   9503051019551361000000000016300000000016300000200000001041040519123123002221RCP2QU0519213919002221   1030000100030000   541110001907777031200000019MOB BANK               YGN           MMR11005191231230022210519000000000000000   10300002 00104100000000000000000000032600     
100   35710500185252510000000000009500000000009500002000000010410405190706530004169862130519213913000416   1030000100030000   541120003003777031200000030MOB BANK               YGN           MMR11005190706530004160519000000000000000   10300005 00104100000000000000000000001900     
100   35710500305404450000000000007056000000007056002000000010410405191120530003228480250519213917000322   1030000100030000   541120003005777031200000030MOB BANK               YGN           MMR11005191120530003220519000000000000000   10300005 00104100000000000000000000001411     
100   9503051025464237000000000001702000000001702000200000001041040519062845000245VLH2AH0519213912000245   1030000100030000   541120003013777031200000030MOB BANK               YGN           MMR11005190628450002450519000000000000000   10300002 00104100000000000000000000003404     
100   9503051025464237000000000000600000000000600000200000001041040519055711000462P2YCMI0519213912000462   1030000100030000   541120003008777031200000030MOB BANK               YGN           MMR11005190557110004620519000000000000000   10300002 00104100000000000000000000001200     
100   62443000810746240000000000032800000000032800002000000010410405191208470010683928550519213918001068   1030000100030000   541110001903777031200000019MOB BANK               YGN           MMR11005191208470010680519000000000000000   10300005 00104100000000000000000000011480     
100   9503051888743537000000000003025000000003025000200000001041040519061806000813ZAECEM0519213912000813   1030000100030000   581210001501777031200000015MOB BANK               YGN           MMR11005190618060008130519000000000000000   10300002 00104100000000000000000000010285     
100   35710500365101940000000000324400000000324400002000000010410405190817450022048729830519213914002204   1030000100030000   541110001907777031200000019MOB BANK               YGN           MMR11005190817450022040519000000000000000   10300005 00104100000000000000000000064880     
100   9503051896644701000000000006600000000006600000200000001041040519102709000378J36BFO0519213916000378   1030000100030000   541120003111777031200000031MOB BANK               YGN           MMR11005191027090003780519000000000000000   10300002 00104100000000000000000000013200     
100   9503051896841471000000000001505000000001505000200000001041040519051525000317FEMFXF0519213911000317   1030000100030000   541120003005777031200000030MOB BANK               YGN           MMR11005190515250003170519000000000000000   10300002 00104100000000000000000000003010     
100   9503051895530919000000000000675000000000675000200000001041040519105405001009RXUMUY0519213917001009   1030000100030000   541110001920777031200000019MOB BANK               YGN           MMR11005191054050010090519000000000000000   10300002 00104100000000000000000000001350     
100   35710830825925840000000000023000000000023000002000000010410405190722450002464496620519213913000246   1030000100030000   541120003013777031200000030MOB BANK               YGN           MMR11005190722450002460519000000000000000   10300003 00104100000000000000000000004600     
100   35710950568930460000000000015000000000015000002000000010410405190914570010515169810519213915001051   1030000100030000   541110001903777031200000019MOB BANK               YGN           MMR11005190914570010510519000000000000000   10300003 00104100000000000000000000003000     
100   9503051872803255000000000001325000000001325000200000001041040519103203001949YVWS6B0519213917001949   1030000100030000   541110001905777031200000019MOB BANK               YGN           MMR11005191032030019490519000000000000000   10300002 00104100000000000000000000002650     
100   35710500311331580000000000011800000000011800002000000010410405191012250022113479060519213916002211   1030000100030000   541110001907777031200000019MOB BANK               YGN           MMR11005191012250022110519000000000000000   10300005 00104100000000000000000000002360     
100   62622000661365380000000000013300000000013300002000000010410405190455470004553530700519213911000455   1030000100030000   541120003008777031200000030MOB BANK               YGN           MMR11005190455470004550519000000000000000   10300006 00104100000000000000000000002660     
100   35710830634481520000000000078800000000078800002000000010410405190936450010535300610519213916001053   1030000100030000   541110001903777031200000019MOB BANK               YGN           MMR11005190936450010530519000000000000000   10300003 00104100000000000000000000015760     
100   9503051020381410000000000006060000000006060000200000001041040519100845001055GKVK7U0519213916001055   1030000100030000   541110001903777031200000019MOB BANK               YGN           MMR11005191008450010550519000000000000000   10300002 00104100000000000000000000012120     
100   95030510248166190000000000008232000000008232002000000010410405190955410004733EGBWV0519213916000473   1030000100030000   541120003008777031200000030MOB BANK               YGN           MMR11005190955410004730519000000000000000   10300002 00104100000000000000000000001646     
100   9503051025464237000000000005110000000005110000200000001041040519061953000182ZFRFBK0519213912000182   1030000100030000   541120003012777031200000030MOB BANK               YGN           MMR11005190619530001820519000000000000000   10300002 00104100000000000000000000010220     
100   35710500193369140000000000005341000000005341002000000010410405190747210004183477550519213914000418   1030000100030000   541120003003777031200000030MOB BANK               YGN           MMR11005190747210004180519000000000000000   10300005 00104100000000000000000000001068     
100   9503051884234457000000000001700000000001700000200000001041040519083422000247J1QHVA0519213915000247   1030000100030000   541120003013777031200000030MOB BANK               YGN           MMR11005190834220002470519000000000000000   10300002 00104100000000000000000000003400     
100   35710500334732890000000000011500000000011500002000000010410405190600090004652687460519213912000465   1030000100030000   541120003008777031200000030MOB BANK               YGN           MMR11005190600090004650519000000000000000   10300005 00104100000000000000000000002300     
100   35710500313821770000000000024500000000024500002000000010410405191011050010573649260519213916001057   1030000100030000   541110001903777031200000019MOB BANK               YGN           MMR11005191011050010570519000000000000000   10300005 00104100000000000000000000004900     
100   9503051024986610000000000008883700000008883700200000001041040519070342001941ETOALS0519213913001941   1030000100030000   541110001905777031200000019MOB BANK               YGN           MMR11005190703420019410519000000000000000   10300002 00104100000000000000000000017768     
100   35710500323847680000000000013000000000013000002000000010410405191029180022136847270519213916002213   1030000100030000   541110001907777031200000019MOB BANK               YGN           MMR11005191029180022130519000000000000000   10300005 00104100000000000000000000002600     
100   9503051025942935000000000006440000000006440000200000001041040519072631002199ODC4TQ0519213913002199   1030000100030000   541110001907777031200000019MOB BANK               YGN           MMR11005190726310021990519000000000000000   10300002 00104100000000000000000000012880     
100   35710830273727040000000000010094000000010094002000000010410405190950490022075385110519213916002207   1030000100030000   541110001907777031200000019MOB BANK               YGN           MMR11005190950490022070519000000000000000   10300003 00104100000000000000000000002019     
100   62346600173480590000000000012600000000012600002000000010410405190511120002430639210519213911000243   1030000100030000   541120003013777031200000030MOB BANK               YGN           MMR11005190511120002430519000000000000000   10300005 00104100000000000000000000002520     
100   95010121409808550000000000035800000000035800002000000010410405190433450010372112680519213911001037   1030000100030000   541110001903777031200000019MOB BANK               YGN           MMR11005190433450010370519000000000000000   10100001 00104100000000000000000000007160     
100   35710830907809570000000000098550000000098550002000000010410405190503260019323660810519213911001932   1030000100030000   541110001905777031200000019MOB BANK               YGN           MMR11005190503260019320519000000000000000   10300003 00104100000000000000000000019710     
100   9503051024816619000000000000730100000000730100200000001041040519104343000319INCX1J0519213917000319   1030000100030000   541120003005777031200000030MOB BANK               YGN           MMR11005191043430003190519000000000000000   10300002 00104100000000000000000000001460     
100   62622000018446590000000000063600000000063600002000000010410405190804580006003470190519213914000600   1030000100030000   541120003103777031200000031MOB BANK               YGN           MMR11005190804580006000519000000000000000   10300006 00104100000000000000000000012720     
100   9503051025502630000000000005760000000005760000200000001041040519045500001039JQFCTH0519213911001039   1030000100030000   541110001903777031200000019MOB BANK               YGN           MMR11005190455000010390519000000000000000   10300002 00104100000000000000000000011520     
100   9503051885526976000000000002550000000002550000200000001041040519061843001283SAYN1M0519213912001283   1030000100030000   541120003117777031200000031MOB BANK               YGN           MMR11005190618430012830519000000000000000   10300002 00104100000000000000000000005100     
100   9503051875153799000000000001725000000001725000200000001041040519112824002218HI6ENI0519213917002218   1030000100030000   541110001907777031200000019MOB BANK               YGN           MMR11005191128240022180519000000000000000   10300002 00104100000000000000000000003450     
100   35710830347446480000000000012750000000012750002000000010410405190743430004674622510519213914000467   1030000100030000   541120003008777031200000030MOB BANK               YGN           MMR11005190743430004670519000000000000000   10300003 00104100000000000000000000002550     
100   35710500340446910000000000005445000000005445002000000010410405190704160014247817990519213913001424   1030000100030000   581250000001777031200000005MOB BANK               YGN           MMR11005190704160014240519000000000000000   10300005 00104100000000000000000000001851     
100   9503051026094660000000000001436500000001436500200000001041040519040908000414R9QF6A0519213910000414   1030000100030000   541120003003777031200000030MOB BANK               YGN           MMR11005190409080004140519000000000000000   10300002 00104100000000000000000000002873     
100   95030518968414710000000000008400000000008400002000000010410405190459520004572RSBRB0519213911000457   1030000100030000   541120003008777031200000030MOB BANK               YGN           MMR11005190459520004570519000000000000000   10300002 00104100000000000000000000001680     
100   95030518728557920000000000055600000000055600002000000010410405191016240010623BVCDH0519213916001062   1030000100030000   541110001903777031200000019MOB BANK               YGN           MMR11005191016240010620519000000000000000   10300002 00104100000000000000000000011120     
100   62622000392672610000000000006600000000006600002000000010410405190321030021943469420519213909002194   1030000100030000   541110001907777031200000019MOB BANK               YGN           MMR11005190321030021940519000000000000000   10300006 00104100000000000000000000001320     
100   35710500174383240000000000063500000000063500002000000010410405190556160003736297160519213912000373   1030000100030000   541120003111777031200000031MOB BANK               YGN           MMR11005190556160003730519000000000000000   10300005 00104100000000000000000000012700     
100   35710830109679240000000000039810000000039810002000000010410405191007150002485483700519213916000248   1030000100030000   541120003013777031200000030MOB BANK               YGN           MMR11005191007150002480519000000000000000   10300003 00104100000000000000000000007962     
100   35710500374393440000000000004606000000004606002000000010410405191004050004755428210519213916000475   1030000100030000   541120003008777031200000030MOB BANK               YGN           MMR11005191004050004750519000000000000000   10300005 00104100000000000000000000000921     
100   35710500382230510000000000032800000000032800002000000010410405190503000010419805370519213911001041   1030000100030000   541110001903777031200000019MOB BANK               YGN           MMR11005190503000010410519000000000000000   10300005 00104100000000000000000000006560     
100   35710500314430450000000000087400000000087400002000000010410405190650240010430700310519213913001043   1030000100030000   541110001903777031200000019MOB BANK               YGN           MMR11005190650240010430519000000000000000   10300005 00104100000000000000000000017480     
100   62346600173480590000000000009900000000009900002000000010410405190525330002449725010519213911000244   1030000100030000   541120003013777031200000030MOB BANK               YGN           MMR11005190525330002440519000000000000000   10300005 00104100000000000000000000001980     
100   62346600173480590000000000007100000000007100002000000010410405190517490001795632310519213911000179   1030000100030000   541120003012777031200000030MOB BANK               YGN           MMR11005190517490001790519000000000000000   10300005 00104100000000000000000000001420     
100   35710500152606210000000000011000000000011000002000000010410405190851100004691837020519213915000469   1030000100030000   541120003008777031200000030MOB BANK               YGN           MMR11005190851100004690519000000000000000   10300005 00104100000000000000000000002200     
