100   95030800094390140000000000371300000000371300002000000010410405141438340005733911610514213421000573   1030000100030000   581210001201777031200000012MOB BANK               YGN           MMR11005141438340005730514000000000000000   10300003 00104100000000000000000000126242     
100   35710830018797650000000000004230000000004230002000000010410405150916170002140617900515213515000214   1030000100030000   541120003013777031200000030MOB BANK               YGN           MMR11005150916170002140515000000000000000   10300003 00104100000000000000000000000846     
100   9503051885891461000000000009265000000009265000200000001041040515090319000583ZDLQM00515213515000583   1030000100030000   541120003103777031200000031MOB BANK               YGN           MMR11005150903190005830515000000000000000   10300002 00104100000000000000000000018530     
100   62346600111403380000000000011000000000011000002000000010410405150747530009737901360515213514000973   1030000100030000   541110001903777031200000019MOB BANK               YGN           MMR11005150747530009730515000000000000000   10300005 00104100000000000000000000002200     
100   95030510226329270000000000010000000000010000002000000010410405151056050012005M2JSS0515213517001200   1030000100030000   541120003106777031200000031MOB BANK               YGN           MMR11005151056050012000515000000000000000   10300002 00104100000000000000000000002000     
100   35710500131186230000000000008200000000008200002000000010410405151052530014105057310515213517001410   1030000100030000   581250000001777031200000005MOB BANK               YGN           MMR11005151052530014100515000000000000000   10300005 00104100000000000000000000002788     
100   95030518885883530000000000004608000000004608002000000010410405150359330020226NMVUO0515213510002022   1030000100030000   541110001907777031200000019MOB BANK               YGN           MMR11005150359330020220515000000000000000   10300002 00104100000000000000000000000922     
100   35710500122863710000000000032900000000032900002000000010410405150402560020257567250515213510002025   1030000100030000   541110001907777031200000019MOB BANK               YGN           MMR11005150402560020250515000000000000000   10300005 00104100000000000000000000006580     
100   9503051023701606000000000002080000000002080000200000001041040515050222002027NOSKNF0515213511002027   1030000100030000   541110001907777031200000019MOB BANK               YGN           MMR11005150502220020270515000000000000000   10300002 00104100000000000000000000004160     
100   35710500143885970000000000005650000000005650002000000010410405150827000017978115520515213514001797   1030000100030000   541110001905777031200000019MOB BANK               YGN           MMR11005150827000017970515000000000000000   10300005 00104100000000000000000000001130     
100   35710830374965680000000000041600000000041600002000000010410405150848240018050450510515213515001805   1030000100030000   541110001905777031200000019MOB BANK               YGN           MMR11005150848240018050515000000000000000   10300003 00104100000000000000000000008320     
100   35710500361256050000000000012900000000012900002000000010410405150732450020515688860515213514002051   1030000100030000   541110001907777031200000019MOB BANK               YGN           MMR11005150732450020510515000000000000000   10300005 00104100000000000000000000002580     
100   95030510237016060000000000011400000000011400002000000010410405150505430020293ZAIJN0515213511002029   1030000100030000   541110001907777031200000019MOB BANK               YGN           MMR11005150505430020290515000000000000000   10300002 00104100000000000000000000002280     
100   9503051872331091000000000001750000000001750000200000001041040515085346001807FPU10N0515213515001807   1030000100030000   541110001905777031200000019MOB BANK               YGN           MMR11005150853460018070515000000000000000   10300002 00104100000000000000000000003500     
100   35710830518828670000000000030821000000030821002000000010410405150811090020580227010515213514002058   1030000100030000   541110001907777031200000019MOB BANK               YGN           MMR11005150811090020580515000000000000000   10300003 00104100000000000000000000006164     
100   9503051895846174000000000001320000000001320000200000001041040515084058002062LSNQUB0515213515002062   1030000100030000   541110001907777031200000019MOB BANK               YGN           MMR11005150840580020620515000000000000000   10300002 00104100000000000000000000002640     
100   35710830856264470000000000024900000000024900002000000010410405150539490020339319110515213512002033   1030000100030000   541110001907777031200000019MOB BANK               YGN           MMR11005150539490020330515000000000000000   10300003 00104100000000000000000000004980     
100   35710500190698460000000000025800000000025800002000000010410405151022320009818346130515213516000981   1030000100030000   541110001903777031200000019MOB BANK               YGN           MMR11005151022320009810515000000000000000   10300005 00104100000000000000000000005160     
100   62622000305015100000000000012700000000012700002000000010410405151038440018161909870515213517001816   1030000100030000   541110001905777031200000019MOB BANK               YGN           MMR11005151038440018160515000000000000000   10300006 00104100000000000000000000002540     
100   9503051886724380000000000001100000000001100000200000001041040515110946001818RAZWZQ0515213517001818   1030000100030000   541110001905777031200000019MOB BANK               YGN           MMR11005151109460018180515000000000000000   10300002 00104100000000000000000000002200     
100   9503051889724445000000000003292800000003292800200000001041040515090349001809IXEZYV0515213515001809   1030000100030000   541110001905777031200000019MOB BANK               YGN           MMR11005150903490018090515000000000000000   10300002 00104100000000000000000000006586     
100   9503051886454434000000000001660000000001660000200000001041040515090927002065PHHJ5Y0515213515002065   1030000100030000   541110001907777031200000019MOB BANK               YGN           MMR11005150909270020650515000000000000000   10300002 00104100000000000000000000003320     
100   62346600163967110000000000075600000000075600002000000010410405151043550012289715750515213517001228   1030000100030000   541120003117777031200000031MOB BANK               YGN           MMR11005151043550012280515000000000000000   10300005 00104100000000000000000000015120     
100   35710830233825330000000000016600000000016600002000000010410405150542330020369335420515213512002036   1030000100030000   541110001907777031200000019MOB BANK               YGN           MMR11005150542330020360515000000000000000   10300003 00104100000000000000000000003320     
100   9503051886118039000000000001234800000001234800200000001041040515095144002070YHVC8W0515213516002070   1030000100030000   541110001907777031200000019MOB BANK               YGN           MMR11005150951440020700515000000000000000   10300002 00104100000000000000000000002470     
100   95030510251002860000000000058212000000058212002000000010410405151000450020721IKDQY0515213516002072   1030000100030000   541110001907777031200000019MOB BANK               YGN           MMR11005151000450020720515000000000000000   10300002 00104100000000000000000000011642     
100   35710950189173050000000000065000000000065000002000000010410405150555560011159415800515213512001115   1030000100030000   541110001915777031200000019MOB BANK               YGN           MMR11005150555560011150515000000000000000   10300003 00104100000000000000000000013000     
100   9503051026199394000000000001370000000001370000200000001041040515114736001820E3Y39M0515213518001820   1030000100030000   541110001905777031200000019MOB BANK               YGN           MMR11005151147360018200515000000000000000   10300002 00104100000000000000000000002740     
100   9503051897626566000000000002290000000002290000200000001041040515102509002074TQMMDO0515213516002074   1030000100030000   541110001907777031200000019MOB BANK               YGN           MMR11005151025090020740515000000000000000   10300002 00104100000000000000000000004580     
100   35710830722348410000000000065000000000065000002000000010410405151237050003511822700515213519000351   1030000100030000   541120003111777031200000031MOB BANK               YGN           MMR11005151237050003510515000000000000000   10300003 00104100000000000000000000013000     
100   35710830693819360000000000014880000000014880002000000010410405150955500003460855200515213516000346   1030000100030000   541120003111777031200000031MOB BANK               YGN           MMR11005150955500003460515000000000000000   10300003 00104100000000000000000000002976     
100   9503051894034137000000000002250000000002250000200000001041040515095955000347QHHTBJ0515213516000347   1030000100030000   541120003111777031200000031MOB BANK               YGN           MMR11005150959550003470515000000000000000   10300002 00104100000000000000000000004500     
100   9503051888186463000000000000230000000000230000200000001041040515123245000399CNOEXS0515213519000399   1030000100030000   541120003008777031200000030MOB BANK               YGN           MMR11005151232450003990515000000000000000   10300002 00104100000000000000000000000460     
100   35710500134799260000000000023000000000023000002000000010410405151249210020781316420515213519002078   1030000100030000   541110001907777031200000019MOB BANK               YGN           MMR11005151249210020780515000000000000000   10300005 00104100000000000000000000004600     
100   9503051873243014000000000003273200000003273200200000001041040515130536001825AKEKW80515213519001825   1030000100030000   541110001905777031200000019MOB BANK               YGN           MMR11005151305360018250515000000000000000   10300002 00104100000000000000000000006546     
100   9503051019605159000000000000735000000000735000200000001041040515054701001786V6DZ7S0515213512001786   1030000100030000   541110001905777031200000019MOB BANK               YGN           MMR11005150547010017860515000000000000000   10300002 00104100000000000000000000001470     
100   35710500345621630000000000011550000000011550002000000010410405150655450020420836010515213513002042   1030000100030000   541110001907777031200000019MOB BANK               YGN           MMR11005150655450020420515000000000000000   10300005 00104100000000000000000000002310     
100   62622000662110590000000000044198000000044198002000000010410405150647390017892019980515213513001789   1030000100030000   541110001905777031200000019MOB BANK               YGN           MMR11005150647390017890515000000000000000   10300006 00104100000000000000000000008840     
100   35710500135287480000000000082100000000082100002000000010410405150710560017925376050515213513001792   1030000100030000   541110001905777031200000019MOB BANK               YGN           MMR11005150710560017920515000000000000000   10300005 00104100000000000000000000016420     
100   9503051023907351000000000001960000000001960000200000001041040515101635001814HXSKPZ0515213516001814   1030000100030000   541110001905777031200000019MOB BANK               YGN           MMR11005151016350018140515000000000000000   10300002 00104100000000000000000000003920     
100   9503051025697000000000000004500000000004500000200000001041040514064711000093D8JA5U0514213413000093   1030000100030000   541120002101777031200000021MOB BANK               YGN           MMR11005140647110000930514000000000000000   10300002 00104100000000000000000000009000     
100   9503051019605159000000000001450000000001450000200000001041040515054405000966SO4JYV0515213512000966   1030000100030000   541110001903777031200000019MOB BANK               YGN           MMR11005150544050009660515000000000000000   10300002 00104100000000000000000000002900     
100   9503051024428654000000000001084800000001084800200000001041040515114818001148S6PREA0515213518001148   1030000100030000   541110001915777031200000019MOB BANK               YGN           MMR11005151148180011480515000000000000000   10300002 00104100000000000000000000002170     
100   35710830616253220000000000035900000000035900002000000010410405150748570011850093810515213514001185   1030000100030000   541120003106777031200000031MOB BANK               YGN           MMR11005150748570011850515000000000000000   10300003 00104100000000000000000000007180     
100   95031900000048480000000000014500000000014500002000000010410405151221330012333F5WFG0515213518001233   1030000100030000   541120003117777031200000031MOB BANK               YGN           MMR11005151221330012330515000000000000000   10300014 00104100000000000000000000002900     
100   35710500382890780000000000042300000000042300002000000010410405151225350012353386310515213518001235   1030000100030000   541120003117777031200000031MOB BANK               YGN           MMR11005151225350012350515000000000000000   10300005 00104100000000000000000000008460     
100   9503051021260878000000000001231200000001231200200000001041040515105443001139CLXB9B0515213517001139   1030000100030000   541110001915777031200000019MOB BANK               YGN           MMR11005151054430011390515000000000000000   10300002 00104100000000000000000000002462     
100   35710830109734010000000000041400000000041400002000000010410405150650160001549741720515213513000154   1030000100030000   541120003002777031200000030MOB BANK               YGN           MMR11005150650160001540515000000000000000   10300003 00104100000000000000000000008280     
100   9503051021845827000000000000855000000000855000200000001041040515113812000368WN19X90515213518000368   1030000100030000   541120003104777031200000031MOB BANK               YGN           MMR11005151138120003680515000000000000000   10300002 00104100000000000000000000001710     
100   35710830266433290000000000056000000000056000002000000010410405150423150003848859700515213510000384   1030000100030000   541120003008777031200000030MOB BANK               YGN           MMR11005150423150003840515000000000000000   10300003 00104100000000000000000000011200     
100   62441900003615450000000000026112000000026112002000000010410405150829280012232916770515213514001223   1030000100030000   541120003117777031200000031MOB BANK               YGN           MMR11005150829280012230515000000000000000   10300003 00104100000000000000000000009139     
100   9503190001728346000000000001500000000001500000200000001041040515082906001129OO3MFQ0515213514001129   1030000100030000   541110001915777031200000019MOB BANK               YGN           MMR11005150829060011290515000000000000000   10300014 00104100000000000000000000003000     
100   9503054000788513000000000004300000000004300000200000001041040515052559001214RHLYIO0515213511001214   1030000100030000   541120003117777031200000031MOB BANK               YGN           MMR11005150525590012140515000000000000000   10300002 00104100000000000000000000008600     
100   35710830853791460000000000011500000000011500002000000010410405150536270003429298900515213512000342   1030000100030000   541120003111777031200000031MOB BANK               YGN           MMR11005150536270003420515000000000000000   10300003 00104100000000000000000000002300     
100   9503051890137447000000000002440000000002440000200000001041040515101059000361OPOSUG0515213516000361   1030000100030000   541120003104777031200000031MOB BANK               YGN           MMR11005151010590003610515000000000000000   10300002 00104100000000000000000000004880     
100   95030800041332160000000000026400000000026400002000000010410405150723220003939940410515213513000393   1030000100030000   541120003008777031200000030MOB BANK               YGN           MMR11005150723220003930515000000000000000   10300003 00104100000000000000000000005280     
100   9503051022325373000000000001980000000001980000200000001041040515075747000975VEZKCS0515213514000975   1030000100030000   541110001903777031200000019MOB BANK               YGN           MMR11005150757470009750515000000000000000   10300002 00104100000000000000000000003960     
100   9503051891699619000000000000560000000000560000200000001041040515072003001122BJMBSW0515213513001122   1030000100030000   541110001915777031200000019MOB BANK               YGN           MMR11005150720030011220515000000000000000   10300002 00104100000000000000000000001120     
100   35710830064061430000000000037900000000037900002000000010410405151112430012031316410515213517001203   1030000100030000   541120003106777031200000031MOB BANK               YGN           MMR11005151112430012030515000000000000000   10300003 00104100000000000000000000007580     
100   35710830143523210000000000065600000000065600002000000010410405150445220011138992420515213511001113   1030000100030000   541110001915777031200000019MOB BANK               YGN           MMR11005150445220011130515000000000000000   10300003 00104100000000000000000000013120     
100   35710900474312790000000000031680000000031680002000000010410405151219330014111717510515213518001411   1030000100030000   581250000001777031200000005MOB BANK               YGN           MMR11005151219330014110515000000000000000   10300003 00104100000000000000000000010771     
100   35710830104351120000000000007000000000007000002000000010410405150654330001309767500515213513000130   1030000100030000   541120003006777031200000030MOB BANK               YGN           MMR11005150654330001300515000000000000000   10300003 00104100000000000000000000001400     
100   62346600110653370000000000012450000000012450002000000010410405150318270003699277250515213509000369   1030000100030000   541120003003777031200000030MOB BANK               YGN           MMR11005150318270003690515000000000000000   10300005 00104100000000000000000000002490     
100   62441900001446440000000000027600000000027600002000000010410405150719490005774823430515213513000577   1030000100030000   541120003103777031200000031MOB BANK               YGN           MMR11005150719490005770515000000000000000   10300003 00104100000000000000000000009660     
100   9503051886099098000000000001440000000001440000200000001041040515124030000967CTC8RU0515213519000967   1030000100030000   541110001920777031200000019MOB BANK               YGN           MMR11005151240300009670515000000000000000   10300002 00104100000000000000000000002880     
100   62346600108089010000000000023400000000023400002000000010410405151016310009629864070515213516000962   1030000100030000   541110001920777031200000019MOB BANK               YGN           MMR11005151016310009620515000000000000000   10300005 00104100000000000000000000004680     
100   35710830616253220000000000010500000000010500002000000010410405150753310011880121310515213514001188   1030000100030000   541120003106777031200000031MOB BANK               YGN           MMR11005150753310011880515000000000000000   10300003 00104100000000000000000000002100     
100   9503051891343788000000000000270000000000270000200000001041040515052504000149TQF0F30515213511000149   1030000100030000   541120003002777031200000030MOB BANK               YGN           MMR11005150525040001490515000000000000000   10300002 00104100000000000000000000000540     
100   35710830900554180000000000035616000000035616002000000010410405150546550003439361710515213512000343   1030000100030000   541120003111777031200000031MOB BANK               YGN           MMR11005150546550003430515000000000000000   10300003 00104100000000000000000000007123     
100   9503051887191076000000000000686000000000686000200000001041040515122300000287LZWD4X0515213518000287   1030000100030000   541120003005777031200000030MOB BANK               YGN           MMR11005151223000002870515000000000000000   10300002 00104100000000000000000000001372     
100   9503051021975301000000000001900000000001900000200000001041040515054018000386Q99XGY0515213512000386   1030000100030000   541120003008777031200000030MOB BANK               YGN           MMR11005150540180003860515000000000000000   10300002 00104100000000000000000000003800     
100   95030510256163070000000000028800000000028800002000000010410405151049050005859SOS8A0515213517000585   1030000100030000   541120003103777031200000031MOB BANK               YGN           MMR11005151049050005850515000000000000000   10300002 00104100000000000000000000005760     
100   35710500365063660000000000030000000000030000002000000010410405150750080009546347770515213514000954   1030000100030000   541110001920777031200000019MOB BANK               YGN           MMR11005150750080009540515000000000000000   10300005 00104100000000000000000000006000     
100   9503051021975301000000000000960000000000960000200000001041040515060128000289T8QKZQ0515213512000289   1030000100030000   541120003001777031200000030MOB BANK               YGN           MMR11005150601280002890515000000000000000   10300002 00104100000000000000000000001920     
100   9503051024852317000000000002580000000002580000200000001041040515104043000985QRYK0M0515213517000985   1030000100030000   541110001903777031200000019MOB BANK               YGN           MMR11005151040430009850515000000000000000   10300002 00104100000000000000000000005160     
100   95030800041332160000000000014400000000014400002000000010410405150729540001579979610515213513000157   1030000100030000   541120003002777031200000030MOB BANK               YGN           MMR11005150729540001570515000000000000000   10300003 00104100000000000000000000002880     
100   9503051023471333000000000001755000000001755000200000001041040515115043000159EM3TVU0515213518000159   1030000100030000   541120003002777031200000030MOB BANK               YGN           MMR11005151150430001590515000000000000000   10300002 00104100000000000000000000003510     
100   35710500315767030000000000010050000000010050002000000010410405151020480002852076570515213516000285   1030000100030000   541120003005777031200000030MOB BANK               YGN           MMR11005151020480002850515000000000000000   10300005 00104100000000000000000000002010     
100   9503051896917164000000000004580000000004580000200000001041040515062402000969VNCX7W0515213512000969   1030000100030000   541110001903777031200000019MOB BANK               YGN           MMR11005150624020009690515000000000000000   10300002 00104100000000000000000000009160     
100   9503051024470250000000000005960000000005960000200000001041040515045716000964IDEOBK0515213511000964   1030000100030000   541110001903777031200000019MOB BANK               YGN           MMR11005150457160009640515000000000000000   10300002 00104100000000000000000000011920     
100   9503051884975216000000000002180000000002180000200000001041040515102356000983ZGVIA90515213516000983   1030000100030000   541110001903777031200000019MOB BANK               YGN           MMR11005151023560009830515000000000000000   10300002 00104100000000000000000000004360     
100   62441900001446440000000000019800000000019800002000000010410405150755020011904997450515213514001190   1030000100030000   541120003106777031200000031MOB BANK               YGN           MMR11005150755020011900515000000000000000   10300003 00104100000000000000000000006930     
100   35710830064061430000000000038880000000038880002000000010410405151116450012061340610515213517001206   1030000100030000   541120003106777031200000031MOB BANK               YGN           MMR11005151116450012060515000000000000000   10300003 00104100000000000000000000007776     
100   35710950773545560000000000202000000000202000002000000010410405151104120011421265500515213517001142   1030000100030000   541110001915777031200000019MOB BANK               YGN           MMR11005151104120011420515000000000000000   10300003 00104100000000000000000000040400     
100   9503051022632927000000000000640000000000640000200000001041040515100431000348RJK9SG0515213516000348   1030000100030000   541120003111777031200000031MOB BANK               YGN           MMR11005151004310003480515000000000000000   10300002 00104100000000000000000000001280     
100   35710830229164710000000000005850000000005850002000000010410405150649060003719734800515213513000371   1030000100030000   541120003003777031200000030MOB BANK               YGN           MMR11005150649060003710515000000000000000   10300003 00104100000000000000000000001170     
100   35710500114538320000000000015600000000015600002000000010410405150848400003956556970515213515000395   1030000100030000   541120003008777031200000030MOB BANK               YGN           MMR11005150848400003950515000000000000000   10300005 00104100000000000000000000003120     
100   9503054000586347000000000001730000000001730000200000001041040515055538000388EZ57IM0515213512000388   1030000100030000   541120003008777031200000030MOB BANK               YGN           MMR11005150555380003880515000000000000000   10300002 00104100000000000000000000003460     
100   35710500133470240000000000015840000000015840002000000010410405150810020009773682200515213514000977   1030000100030000   541110001903777031200000019MOB BANK               YGN           MMR11005150810020009770515000000000000000   10300005 00104100000000000000000000003168     
100   9503051885891461000000000002780000000002780000200000001041040515094452001226JZXHAB0515213516001226   1030000100030000   541120003117777031200000031MOB BANK               YGN           MMR11005150944520012260515000000000000000   10300002 00104100000000000000000000005560     
100   35710830518828670000000000007872000000007872002000000010410405150841580011320412000515213515001132   1030000100030000   541110001915777031200000019MOB BANK               YGN           MMR11005150841580011320515000000000000000   10300003 00104100000000000000000000001574     
100   9503051022387944000000000003780000000003780000200000001041040515060358001181LWNFAO0515213512001181   1030000100030000   541120003106777031200000031MOB BANK               YGN           MMR11005150603580011810515000000000000000   10300002 00104100000000000000000000007560     
100   35710500383906110000000000012600000000012600002000000010410405151206310002156932780515213518000215   1030000100030000   541120003013777031200000030MOB BANK               YGN           MMR11005151206310002150515000000000000000   10300005 00104100000000000000000000002520     
100   9503051026124046000000000001185000000001185000200000001041040515061021000210NO18CH0515213512000210   1030000100030000   541120003013777031200000030MOB BANK               YGN           MMR11005150610210002100515000000000000000   10300002 00104100000000000000000000002370     
100   62346600131323900000000000009114000000009114002000000010410405151055300003647341120515213517000364   1030000100030000   541120003104777031200000031MOB BANK               YGN           MMR11005151055300003640515000000000000000   10300005 00104100000000000000000000001823     
100   9503051024817070000000000000235000000000235000200000001041040515064654000290LUOIUC0515213513000290   1030000100030000   541120003001777031200000030MOB BANK               YGN           MMR11005150646540002900515000000000000000   10300002 00104100000000000000000000000470     
100   35710830465404300000000000007650000000007650002000000010410405150749100012190095210515213514001219   1030000100030000   541120003117777031200000031MOB BANK               YGN           MMR11005150749100012190515000000000000000   10300003 00104100000000000000000000001530     
100   9503051020159295000000000003750000000003750000200000001041040515081545001220GOKSTG0515213514001220   1030000100030000   541120003117777031200000031MOB BANK               YGN           MMR11005150815450012200515000000000000000   10300002 00104100000000000000000000007500     
100   35710500143885970000000000008300000000008300002000000010410405150558350011170947690515213512001117   1030000100030000   541110001915777031200000019MOB BANK               YGN           MMR11005150558350011170515000000000000000   10300005 00104100000000000000000000001660     
100   9503051025411543000000000001535000000001535000200000001041040515063455000284DAWBFI0515213513000284   1030000100030000   541120003005777031200000030MOB BANK               YGN           MMR11005150634550002840515000000000000000   10300002 00104100000000000000000000003070     
100   9503190006256384000000000006996000000006996000200000001041040515125931000782X77O530515213519000782   1030000100030000   581210001501777031200000015MOB BANK               YGN           MMR11005151259310007820515000000000000000   10300014 00104100000000000000000000023786     
100   9503051026407839000000000003000000000003000000200000001041040515032949001106C4Z7KD0515213509001106   1030000100030000   541110001915777031200000019MOB BANK               YGN           MMR11005150329490011060515000000000000000   10300002 00104100000000000000000000006000     
100   9503051022666198000000000001800000000001800000200000001041040515033307001108XRCYS10515213510001108   1030000100030000   541110001915777031200000019MOB BANK               YGN           MMR11005150333070011080515000000000000000   10300002 00104100000000000000000000003600     
100   35710500353653010000000000012500000000012500002000000010410405151126390003490923240515213517000349   1030000100030000   541120003111777031200000031MOB BANK               YGN           MMR11005151126390003490515000000000000000   10300005 00104100000000000000000000002500     
100   35710830693819360000000000008000000000008000002000000010410405150940380003450763920515213516000345   1030000100030000   541120003111777031200000031MOB BANK               YGN           MMR11005150940380003450515000000000000000   10300003 00104100000000000000000000001600     
100   9503190005477775000000000000455000000000455000200000001041040515112051000366V0PG3Q0515213517000366   1030000100030000   541120003104777031200000031MOB BANK               YGN           MMR11005151120510003660515000000000000000   10300014 00104100000000000000000000000910     
100   35710830757976530000000000014310000000014310002000000010410405150817480009580266910515213514000958   1030000100030000   541110001920777031200000019MOB BANK               YGN           MMR11005150817480009580515000000000000000   10300003 00104100000000000000000000002862     
100   9503051872645573000000000001250000000001250000200000001041040515095050001134QJOFTW0515213516001134   1030000100030000   541110001915777031200000019MOB BANK               YGN           MMR11005150950500011340515000000000000000   10300002 00104100000000000000000000002500     
100   35710500335850410000000000012500000000012500002000000010410405150506200001239655090515213511000123   1030000100030000   541120003006777031200000030MOB BANK               YGN           MMR11005150506200001230515000000000000000   10300005 00104100000000000000000000002500     
100   9503051026232724000000000000175000000000175000200000001041040515122202000216XHHNXU0515213518000216   1030000100030000   541120003013777031200000030MOB BANK               YGN           MMR11005151222020002160515000000000000000   10300002 00104100000000000000000000000350     
100   9503051886948708000000000002380000000002380000200000001041040515082914000579BUVRAU0515213514000579   1030000100030000   541120003103777031200000031MOB BANK               YGN           MMR11005150829140005790515000000000000000   10300002 00104100000000000000000000004760     
100   9503051021560426000000000001800000000001800000200000001041040515074239000971RDTS9D0515213514000971   1030000100030000   541110001903777031200000019MOB BANK               YGN           MMR11005150742390009710515000000000000000   10300002 00104100000000000000000000003600     
100   35710500123884090000000000013950000000013950002000000010410405150626080001527767380515213512000152   1030000100030000   541120003002777031200000030MOB BANK               YGN           MMR11005150626080001520515000000000000000   10300005 00104100000000000000000000002790     
100   35710500381711510000000000012500000000012500002000000010410405151035580003772339940515213517000377   1030000100030000   541120003003777031200000030MOB BANK               YGN           MMR11005151035580003770515000000000000000   10300005 00104100000000000000000000002500     
100   9503051884502440000000000001030000000001030000200000001041040515070741000373GZGQTY0515213513000373   1030000100030000   541120003003777031200000030MOB BANK               YGN           MMR11005150707410003730515000000000000000   10300002 00104100000000000000000000002060     
100   9503051874110840000000000002420000000002420000200000001041040515143412000784HY0NPG0515213521000784   1030000100030000   581210001501777031200000015MOB BANK               YGN           MMR11005151434120007840515000000000000000   10300002 00104100000000000000000000008228     
100   35710500163187820000000000006500000000006500002000000010410405150705090011191360380515213513001119   1030000100030000   541110001915777031200000019MOB BANK               YGN           MMR11005150705090011190515000000000000000   10300005 00104100000000000000000000001300     
100   35710500335169700000000000014000000000014000002000000010410405150944510011942395320515213516001194   1030000100030000   541120003106777031200000031MOB BANK               YGN           MMR11005150944510011940515000000000000000   10300005 00104100000000000000000000002800     
100   35710500334046310000000000051500000000051500002000000010410405150956270011975458790515213516001197   1030000100030000   541120003106777031200000031MOB BANK               YGN           MMR11005150956270011970515000000000000000   10300005 00104100000000000000000000010300     
100   35710830748776050000000000043780000000043780002000000010410405151210340007791663610515213518000779   1030000100030000   581210001501777031200000015MOB BANK               YGN           MMR11005151210340007790515000000000000000   10300003 00104100000000000000000000014885     
100   95031100001242060000000000038800000000038800002000000010410405151147030009901939220515213518000990   1030000100030000   541110001903777031200000019MOB BANK               YGN           MMR11005151147030009900515000000000000000   10300006 00104100000000000000000000007760     
100   35710950514974960000000000045300000000045300002000000010410405150343470011108622820515213510001110   1030000100030000   541110001915777031200000019MOB BANK               YGN           MMR11005150343470011100515000000000000000   10300003 00104100000000000000000000009060     
100   62346600180581860000000000008635000000008635002000000010410405150739360014094000720515213514001409   1030000100030000   581250000001777031200000005MOB BANK               YGN           MMR11005150739360014090515000000000000000   10300005 00104100000000000000000000002936     
100   9503051023980325000000000001510000000001510000200000001041040515114131000350FYVBWU0515213518000350   1030000100030000   541120003111777031200000031MOB BANK               YGN           MMR11005151141310003500515000000000000000   10300002 00104100000000000000000000003020     
100   95030518952452110000000000046500000000046500002000000010410405150813340003442W6HHC0515213514000344   1030000100030000   541120003111777031200000031MOB BANK               YGN           MMR11005150813340003440515000000000000000   10300002 00104100000000000000000000009300     
100   35710500315767030000000000007300000000007300002000000010410405151039310003971574070515213517000397   1030000100030000   541120003008777031200000030MOB BANK               YGN           MMR11005151039310003970515000000000000000   10300005 00104100000000000000000000001460     
100   35710830109734010000000000017300000000017300002000000010410405150632450003919636610515213513000391   1030000100030000   541120003008777031200000030MOB BANK               YGN           MMR11005150632450003910515000000000000000   10300003 00104100000000000000000000003460     
100   9503051025364031000000000003080000000003080000200000001041040515084938000581YIY3EV0515213515000581   1030000100030000   541120003103777031200000031MOB BANK               YGN           MMR11005150849380005810515000000000000000   10300002 00104100000000000000000000006160     
100   95031900054777750000000000057800000000057800002000000010410405151047140012310WM0BH0515213517001231   1030000100030000   541120003117777031200000031MOB BANK               YGN           MMR11005151047140012310515000000000000000   10300014 00104100000000000000000000011560     
100   9503051874133974000000000002089200000002089200200000001041040515100323001136WWWWIU0515213516001136   1030000100030000   541110001915777031200000019MOB BANK               YGN           MMR11005151003230011360515000000000000000   10300002 00104100000000000000000000004178     
100   9503051021975301000000000004990000000004990000200000001041040515054732000126LOD3K60515213512000126   1030000100030000   541120003006777031200000030MOB BANK               YGN           MMR11005150547320001260515000000000000000   10300002 00104100000000000000000000009980     
100   35710830104351120000000000004500000000004500002000000010410405150633130002119639510515213513000211   1030000100030000   541120003013777031200000030MOB BANK               YGN           MMR11005150633130002110515000000000000000   10300003 00104100000000000000000000000900     
100   35710830104351120000000000016000000000016000002000000010410405150644480002129708920515213513000212   1030000100030000   541120003013777031200000030MOB BANK               YGN           MMR11005150644480002120515000000000000000   10300003 00104100000000000000000000003200     
100   35710500381711510000000000007000000000007000002000000010410405151041150002912801070515213517000291   1030000100030000   541120003001777031200000030MOB BANK               YGN           MMR11005151041150002910515000000000000000   10300005 00104100000000000000000000001400     
100   9503051884502440000000000001380000000001380000200000001041040515065819000213FHJOBL0515213513000213   1030000100030000   541120003013777031200000030MOB BANK               YGN           MMR11005150658190002130515000000000000000   10300002 00104100000000000000000000002760     
100   9503190002387969000000000002580000000002580000200000001041040515090205000979PLCLJ00515213515000979   1030000100030000   541110001903777031200000019MOB BANK               YGN           MMR11005150902050009790515000000000000000   10300014 00104100000000000000000000005160     
100   62622000226252440000000000002850000000002850002000000010410405151220550002861961250515213518000286   1030000100030000   541120003005777031200000030MOB BANK               YGN           MMR11005151220550002860515000000000000000   10300006 00104100000000000000000000000570     
100   9503051892802725000000000010730000000010730000200000001041040514112438000571JU0SHW0514213417000571   1030000100030000   581210001201777031200000012MOB BANK               YGN           MMR11005141124380005710514000000000000000   10300002 00104100000000000000000000036482     
100   62343301016880220000000000057200000000057200002000000010410405141248490005721993850514213419000572   1030000100030000   581210001201777031200000012MOB BANK               YGN           MMR11005141248490005720514000000000000000   10300004 00104100000000000000000000019448     
