100   9503051873572818000000000001620000000001620000200000001041040605102056002935F3UPZR0605215616002935   1030000100030000   541110001907777031200000019MOB BANK               YGN           MMR11006051020560029350605000000000000000   10300002 00104100000000000000000000003240     
100   35710500365852790000000000028500000000028500002000000010410406050808210013689949240605215614001368   1030000100030000   541110001915777031200000019MOB BANK               YGN           MMR11006050808210013680605000000000000000   10300005 00104100000000000000000000005700     
100   35710500383330170000000000027665000000027665002000000010410406050431260013048549540605215611001304   1030000100030000   541110001920777031200000019MOB BANK               YGN           MMR11006050431260013040605000000000000000   10300005 00104100000000000000000000005533     
100   95051010163957890000000000028800000000028800002000000010410406050602110015471738620605215612001547   1030000100030000   541110001903777031200000019MOB BANK               YGN           MMR11006050602110015470605000000000000000   10300005 00104100000000000000000000010080     
100   62441900002333550000000000005175000000005175002000000010410406050613100015491915590605215612001549   1030000100030000   541110001903777031200000019MOB BANK               YGN           MMR11006050613100015490605000000000000000   10300003 00104100000000000000000000001812     
100   62441900102011030000000000033750000000033750002000000010410406050738330016104794930605215614001610   1030000100030000   541120003117777031200000031MOB BANK               YGN           MMR11006050738330016100605000000000000000   10300003 00104100000000000000000000011812     
100   9503051884140787000000000001732500000001732500200000001041040605090145001520X29CKI0605215615001520   1030000100030000   581250000001777031200000005MOB BANK               YGN           MMR11006050901450015200605000000000000000   10300002 00104100000000000000000000005890     
100   9503051875468304000000000000764500000000764500200000001041040605101705001522STW8XV0605215616001522   1030000100030000   581250000001777031200000005MOB BANK               YGN           MMR11006051017050015220605000000000000000   10300002 00104100000000000000000000002599     
100   35710500315077570000000000038720000000038720002000000010410406051217260015235781260605215618001523   1030000100030000   581250000001777031200000005MOB BANK               YGN           MMR11006051217260015230605000000000000000   10300005 00104100000000000000000000013165     
100   95031900065765830000000000008100000000008100002000000010410406051045270016248O8PNR0605215617001624   1030000100030000   541120003117777031200000031MOB BANK               YGN           MMR11006051045270016240605000000000000000   10300014 00104100000000000000000000001620     
100   35710500313822430000000000016500000000016500002000000010410406050915400016229933180605215615001622   1030000100030000   541120003117777031200000031MOB BANK               YGN           MMR11006050915400016220605000000000000000   10300005 00104100000000000000000000003300     
100   9503051026226833000000000003780000000003780000200000001041040605084004002916Z7DCAF0605215615002916   1030000100030000   541110001907777031200000019MOB BANK               YGN           MMR11006050840040029160605000000000000000   10300002 00104100000000000000000000007560     
100   35710500304979840000000000016500000000016500002000000010410406050532460028965497510605215612002896   1030000100030000   541110001907777031200000019MOB BANK               YGN           MMR11006050532460028960605000000000000000   10300005 00104100000000000000000000003300     
100   35710500304503970000000000017376000000017376002000000010410406051022000013834728200605215616001383   1030000100030000   541110001915777031200000019MOB BANK               YGN           MMR11006051022000013830605000000000000000   10300005 00104100000000000000000000003475     
100   9503051025988540000000000002790000000002790000200000001041040605081328001565GYLA3G0605215614001565   1030000100030000   541110001903777031200000019MOB BANK               YGN           MMR11006050813280015650605000000000000000   10300002 00104100000000000000000000005580     
100   35710500333938670000000000092400000000092400002000000010410406051046390015832510980605215617001583   1030000100030000   541110001903777031200000019MOB BANK               YGN           MMR11006051046390015830605000000000000000   10300005 00104100000000000000000000018480     
100   35710830236908690000000000002650000000002650002000000010410406050319240028729916610605215609002872   1030000100030000   541110001907777031200000019MOB BANK               YGN           MMR11006050319240028720605000000000000000   10300003 00104100000000000000000000000530     
100   9503190005767324000000000003080000000003080000200000001041040605033031000699TT2Y190605215610000699   1030000100030000   541120003103777031200000031MOB BANK               YGN           MMR11006050330310006990605000000000000000   10300014 00104100000000000000000000006160     
100   35710830089432670000000000045800000000045800002000000010410406050603420007010902310605215612000701   1030000100030000   541120003103777031200000031MOB BANK               YGN           MMR11006050603420007010605000000000000000   10300003 00104100000000000000000000009160     
100   35710500173929920000000000006800000000006800002000000010410406051101590013358036520605215617001335   1030000100030000   541110001920777031200000019MOB BANK               YGN           MMR11006051101590013350605000000000000000   10300005 00104100000000000000000000001360     
100   9503051884335098000000000003580000000003580000200000001041040605065126001552LCWIDY0605215613001552   1030000100030000   541110001903777031200000019MOB BANK               YGN           MMR11006050651260015520605000000000000000   10300002 00104100000000000000000000007160     
100   62441900003090640000000000033800000000033800002000000010410406050814560015666788950605215614001566   1030000100030000   541110001903777031200000019MOB BANK               YGN           MMR11006050814560015660605000000000000000   10300003 00104100000000000000000000011830     
100   35710500151296100000000000027000000000027000002000000010410406051026280029396921200605215616002939   1030000100030000   541110001907777031200000019MOB BANK               YGN           MMR11006051026280029390605000000000000000   10300005 00104100000000000000000000005400     
100   9503051025697091000000000000990000000000990000200000001041040605070655001360KS9FT30605215613001360   1030000100030000   541110001915777031200000019MOB BANK               YGN           MMR11006050706550013600605000000000000000   10300002 00104100000000000000000000001980     
100   35710500372486870000000000014150000000014150002000000010410406050810200013706062390605215614001370   1030000100030000   541110001915777031200000019MOB BANK               YGN           MMR11006050810200013700605000000000000000   10300005 00104100000000000000000000002830     
100   35710500395649820000000000107800000000107800002000000010410406051157250023696123030605215618002369   1030000100030000   541110001905777031200000019MOB BANK               YGN           MMR11006051157250023690605000000000000000   10300005 00104100000000000000000000021560     
100   95030518961550960000000000011400000000011400002000000010410406050847550029209GKZ3J0605215615002920   1030000100030000   541110001907777031200000019MOB BANK               YGN           MMR11006050847550029200605000000000000000   10300002 00104100000000000000000000002280     
100   35710500145457820000000000064500000000064500002000000010410406050538490029019822770605215612002901   1030000100030000   541110001907777031200000019MOB BANK               YGN           MMR11006050538490029010605000000000000000   10300005 00104100000000000000000000012900     
100   35710830647969140000000000157000000000157000002000000010410406051157000015853022200605215618001585   1030000100030000   541110001903777031200000019MOB BANK               YGN           MMR11006051157000015850605000000000000000   10300003 00104100000000000000000000031400     
100   9503190006198883000000000001372800000001372800200000001041040605102857001386CR19V40605215616001386   1030000100030000   541110001915777031200000019MOB BANK               YGN           MMR11006051028570013860605000000000000000   10300014 00104100000000000000000000002746     
100   35710500145097540000000000001920000000001920002000000010410406050348430028752975550605215610002875   1030000100030000   541110001907777031200000019MOB BANK               YGN           MMR11006050348430028750605000000000000000   10300005 00104100000000000000000000000384     
100   35710500155439500000000000159050000000159050002000000010410406050414240028780605650605215610002878   1030000100030000   541110001907777031200000019MOB BANK               YGN           MMR11006050414240028780605000000000000000   10300005 00104100000000000000000000031810     
100   62622000917241260000000000019600000000019600002000000010410406050928560013798565430605215615001379   1030000100030000   541110001915777031200000019MOB BANK               YGN           MMR11006050928560013790605000000000000000   10300006 00104100000000000000000000003920     
100   9503051026178075000000000017470000000017470000200000001041040605085006001570JDUL7Q0605215615001570   1030000100030000   541110001903777031200000019MOB BANK               YGN           MMR11006050850060015700605000000000000000   10300002 00104100000000000000000000034940     
100   35710830264605670000000000029900000000029900002000000010410406050855360015721933800605215615001572   1030000100030000   541110001903777031200000019MOB BANK               YGN           MMR11006050855360015720605000000000000000   10300003 00104100000000000000000000005980     
100   35710500324278980000000000014560000000014560002000000010410406050813460016130253980605215614001613   1030000100030000   541120003117777031200000031MOB BANK               YGN           MMR11006050813460016130605000000000000000   10300005 00104100000000000000000000002912     
100   95030800048071650000000000024500000000024500002000000010410406051032490029442517110605215617002944   1030000100030000   541110001907777031200000019MOB BANK               YGN           MMR11006051032490029440605000000000000000   10300003 00104100000000000000000000004900     
100   9503051888885015000000000000490000000000490000200000001041040605074342001363ESSCAP0605215614001363   1030000100030000   541110001915777031200000019MOB BANK               YGN           MMR11006050743420013630605000000000000000   10300002 00104100000000000000000000000980     
100   62443000160218230000000000007000000000007000002000000010410406050826320013724453720605215614001372   1030000100030000   541110001915777031200000019MOB BANK               YGN           MMR11006050826320013720605000000000000000   10300005 00104100000000000000000000002450     
100   9503051886653449000000000003003000000003003000200000001041040605070039001554SLVXTV0605215613001554   1030000100030000   541110001903777031200000019MOB BANK               YGN           MMR11006050700390015540605000000000000000   10300002 00104100000000000000000000006006     
100   35710830256132650000000000030800000000030800002000000010410406050703140015551259520605215613001555   1030000100030000   541110001903777031200000019MOB BANK               YGN           MMR11006050703140015550605000000000000000   10300003 00104100000000000000000000006160     
100   9503051020196404000000000004116000000004116000200000001041040605093208002923WKPTAJ0605215616002923   1030000100030000   541110001907777031200000019MOB BANK               YGN           MMR11006050932080029230605000000000000000   10300002 00104100000000000000000000008232     
100   35710500355388400000000000018908000000018908002000000010410406051030580013887651410605215617001388   1030000100030000   541110001915777031200000019MOB BANK               YGN           MMR11006051030580013880605000000000000000   10300005 00104100000000000000000000003782     
100   9503051022007948000000000001450000000001450000200000001041040605110742001390MMCDKF0605215617001390   1030000100030000   541110001915777031200000019MOB BANK               YGN           MMR11006051107420013900605000000000000000   10300002 00104100000000000000000000002900     
100   35710500355388400000000000017800000000017800002000000010410406050901510015746842130605215615001574   1030000100030000   541110001903777031200000019MOB BANK               YGN           MMR11006050901510015740605000000000000000   10300005 00104100000000000000000000003560     
100   95030518955491250000000000008100000000008100002000000010410406051219570016289JINL80605215618001628   1030000100030000   541120003117777031200000031MOB BANK               YGN           MMR11006051219570016280605000000000000000   10300002 00104100000000000000000000001620     
100   9503051895638316000000000001000000000001000000200000001041040605044504002883D3L8120605215611002883   1030000100030000   541110001907777031200000019MOB BANK               YGN           MMR11006050445040028830605000000000000000   10300002 00104100000000000000000000002000     
100   9503051024077212000000000000912000000000912000200000001041040605045724002885AL0MLL0605215611002885   1030000100030000   541110001907777031200000019MOB BANK               YGN           MMR11006050457240028850605000000000000000   10300002 00104100000000000000000000001824     
100   9503051026209797000000000000500000000000500000200000001041040605061712000704EVGR5G0605215612000704   1030000100030000   541120003103777031200000031MOB BANK               YGN           MMR11006050617120007040605000000000000000   10300002 00104100000000000000000000001000     
100   35710500385811440000000000006800000000006800002000000010410406050837420013744884920605215615001374   1030000100030000   541110001915777031200000019MOB BANK               YGN           MMR11006050837420013740605000000000000000   10300005 00104100000000000000000000001360     
100   9503051886653449000000000000945000000000945000200000001041040605070452001556BFOSIQ0605215613001556   1030000100030000   541110001903777031200000019MOB BANK               YGN           MMR11006050704520015560605000000000000000   10300002 00104100000000000000000000001890     
100   62622000917241260000000000018800000000018800002000000010410406050920090015758169340605215615001575   1030000100030000   541110001903777031200000019MOB BANK               YGN           MMR11006050920090015750605000000000000000   10300006 00104100000000000000000000003760     
100   62921400043006850000000000019000000000019000002000000010410406050841090016162222220605215615001616   1030000100030000   541120003117777031200000031MOB BANK               YGN           MMR11006050841090016160605000000000000000   10300009 00104100000000000000000000003800     
100   9503051892491909000000000000485000000000485000200000001041040605110313002946SQX0500605215617002946   1030000100030000   541110001907777031200000019MOB BANK               YGN           MMR11006051103130029460605000000000000000   10300002 00104100000000000000000000000970     
100   95030510212608780000000000011858000000011858002000000010410406050600540023545JFTIM0605215612002354   1030000100030000   541110001905777031200000019MOB BANK               YGN           MMR11006050600540023540605000000000000000   10300002 00104100000000000000000000002372     
100   95030510239242080000000000054000000000054000002000000010410406050943220029250QDCUA0605215616002925   1030000100030000   541110001907777031200000019MOB BANK               YGN           MMR11006050943220029250605000000000000000   10300002 00104100000000000000000000010800     
100   9503051024323053000000000002601000000002601000200000001041040605064404002909AYRGEC0605215613002909   1030000100030000   541110001907777031200000019MOB BANK               YGN           MMR11006050644040029090605000000000000000   10300002 00104100000000000000000000005202     
100   9503051895638316000000000003080000000003080000200000001041040605043728001541KDJEAF0605215611001541   1030000100030000   541110001903777031200000019MOB BANK               YGN           MMR11006050437280015410605000000000000000   10300002 00104100000000000000000000006160     
100   35710500311459210000000000058000000000058000002000000010410406051137070013926249500605215618001392   1030000100030000   541110001915777031200000019MOB BANK               YGN           MMR11006051137070013920605000000000000000   10300005 00104100000000000000000000011600     
100   95030510220952810000000000032900000000032900002000000010410406050922420015772PRX2L0605215615001577   1030000100030000   541110001903777031200000019MOB BANK               YGN           MMR11006050922420015770605000000000000000   10300002 00104100000000000000000000006580     
100   62343302006898060000000000033700000000033700002000000010410406050501300028884953150605215611002888   1030000100030000   541110001907777031200000019MOB BANK               YGN           MMR11006050501300028880605000000000000000   10300004 00104100000000000000000000006740     
100   62622000400201210000000000045600000000045600002000000010410406050939410007078238720605215616000707   1030000100030000   541120003103777031200000031MOB BANK               YGN           MMR11006050939410007070605000000000000000   10300006 00104100000000000000000000009120     
100   9503051022080887000000000000425000000000425000200000001041040605051254001356JQZUN50605215611001356   1030000100030000   541110001915777031200000019MOB BANK               YGN           MMR11006050512540013560605000000000000000   10300002 00104100000000000000000000000850     
100   62441900003533850000000000020520000000020520002000000010410406050730120013288790860605215614001328   1030000100030000   541110001920777031200000019MOB BANK               YGN           MMR11006050730120013280605000000000000000   10300003 00104100000000000000000000007182     
100   62441900002352360000000000082500000000082500002000000010410406051019380013813904920605215616001381   1030000100030000   541110001915777031200000019MOB BANK               YGN           MMR11006051019380013810605000000000000000   10300003 00104100000000000000000000028875     
100   9503051888885015000000000001300000000001300000200000001041040605073530001558VOVHPQ0605215614001558   1030000100030000   541110001903777031200000019MOB BANK               YGN           MMR11006050735300015580605000000000000000   10300002 00104100000000000000000000002600     
100   35710830839909930000000000030800000000030800002000000010410406050924110015782105210605215615001578   1030000100030000   541110001903777031200000019MOB BANK               YGN           MMR11006050924110015780605000000000000000   10300003 00104100000000000000000000006160     
100   35710830251063280000000000030800000000030800002000000010410406050927540015802127620605215615001580   1030000100030000   541110001903777031200000019MOB BANK               YGN           MMR11006050927540015800605000000000000000   10300003 00104100000000000000000000006160     
100   95030510220079480000000000024000000000024000002000000010410406051159080029505XS05J0605215618002950   1030000100030000   541110001907777031200000019MOB BANK               YGN           MMR11006051159080029500605000000000000000   10300002 00104100000000000000000000004800     
100   95030510243230530000000000042100000000042100002000000010410406050759560013657MRWPU0605215614001365   1030000100030000   541110001915777031200000019MOB BANK               YGN           MMR11006050759560013650605000000000000000   10300002 00104100000000000000000000008420     
100   9503051886469481000000000004480000000004480000200000001041040605074445001560L3HSLD0605215614001560   1030000100030000   541110001903777031200000019MOB BANK               YGN           MMR11006050744450015600605000000000000000   10300002 00104100000000000000000000008960     
100   95051010163957890000000000021400000000021400002000000010410406050618100023611255620605215612002361   1030000100030000   541110001905777031200000019MOB BANK               YGN           MMR11006050618100023610605000000000000000   10300005 00104100000000000000000000007490     
100   62441900003092960000000000012800000000012800002000000010410406050647290003124873280605215613000312   1030000100030000   541120003002777031200000030MOB BANK               YGN           MMR11006050647290003120605000000000000000   10300003 00104100000000000000000000004480     
100   62622000226252440000000000006615000000006615002000000010410406051150020004708239120605215618000470   1030000100030000   541120003005777031200000030MOB BANK               YGN           MMR11006051150020004700605000000000000000   10300006 00104100000000000000000000001323     
100   35710500180386360000000000018500000000018500002000000010410406051145170004909414210605215618000490   1030000100030000   541120003111777031200000031MOB BANK               YGN           MMR11006051145170004900605000000000000000   10300005 00104100000000000000000000003700     
100   62343302001291260000000000009000000000009000002000000010410406050544090004829012850605215612000482   1030000100030000   541120003111777031200000031MOB BANK               YGN           MMR11006050544090004820605000000000000000   10300004 00104100000000000000000000001800     
100   35710830536586950000000000016500000000016500002000000010410406050711080006311306910605215613000631   1030000100030000   541120003008777031200000030MOB BANK               YGN           MMR11006050711080006310605000000000000000   10300003 00104100000000000000000000003300     
100   9503190002165308000000000002600000000002600000200000001041040605054536000483D6F1SV0605215612000483   1030000100030000   541120003111777031200000031MOB BANK               YGN           MMR11006050545360004830605000000000000000   10300014 00104100000000000000000000005200     
100   35710500393072260000000000007050000000007050002000000010410406050904070006361763930605215615000636   1030000100030000   541120003008777031200000030MOB BANK               YGN           MMR11006050904070006360605000000000000000   10300005 00104100000000000000000000001410     
100   95030518945659320000000000044000000000044000002000000010410406050915260003381XWMZS0605215615000338   1030000100030000   541120003013777031200000030MOB BANK               YGN           MMR11006050915260003380605000000000000000   10300002 00104100000000000000000000008800     
100   35710500344857200000000000210000000000210000002000000010410406051015420029302139660605215616002930   1030000100030000   541110001907777031200000019MOB BANK               YGN           MMR11006051015420029300605000000000000000   10300005 00104100000000000000000000042000     
100   9503051020767162000000000002000000000002000000200000001041040605075116002913VPUZQC0605215614002913   1030000100030000   541110001907777031200000019MOB BANK               YGN           MMR11006050751160029130605000000000000000   10300002 00104100000000000000000000004000     
100   9503051025061173000000000001980000000001980000200000001041040605035606001537FAW7AX0605215610001537   1030000100030000   541110001903777031200000019MOB BANK               YGN           MMR11006050356060015370605000000000000000   10300002 00104100000000000000000000003960     
100   35710500155439500000000000162500000000162500002000000010410406050421340028808975030605215610002880   1030000100030000   541110001907777031200000019MOB BANK               YGN           MMR11006050421340028800605000000000000000   10300005 00104100000000000000000000032500     
100   35710851190298520000000000017930000000017930002000000010410406050903390015211982120605215615001521   1030000100030000   581250000001777031200000005MOB BANK               YGN           MMR11006050903390015210605000000000000000   10300003 00104100000000000000000000006096     
100   9503051884377009000000000008000000000008000000200000001041040605063228000655TYXJXW0605215613000655   1030000100030000   581210001201777031200000012MOB BANK               YGN           MMR11006050632280006550605000000000000000   10300002 00104100000000000000000000027200     
100   35710830391195980000000000033500000000033500002000000010410406050946080007112237010605215616000711   1030000100030000   541120003103777031200000031MOB BANK               YGN           MMR11006050946080007110605000000000000000   10300003 00104100000000000000000000006700     
100   9503051023767136000000000001150000000001150000200000001041040605055222000272ANJSYC0605215612000272   1030000100030000   541110001917777031200000019MOB BANK               YGN           MMR11006050552220002720605000000000000000   10300002 00104100000000000000000000002300     
100   35710500354276550000000000004100000000004100002000000010410406050915220004666543120605215615000466   1030000100030000   541120003005777031200000030MOB BANK               YGN           MMR11006050915220004660605000000000000000   10300005 00104100000000000000000000000820     
100   35710830796549590000000000010100000000010100002000000010410406050808530005721653500605215614000572   1030000100030000   541120003104777031200000031MOB BANK               YGN           MMR11006050808530005720605000000000000000   10300003 00104100000000000000000000002020     
100   9503051895410518000000000000675000000000675000200000001041040605105049000313U7A5RJ0605215617000313   1030000100030000   541120003002777031200000030MOB BANK               YGN           MMR11006051050490003130605000000000000000   10300002 00104100000000000000000000001350     
100   9503051885892154000000000004095000000004095000200000001041040605080243000463PFQVF10605215614000463   1030000100030000   541120003005777031200000030MOB BANK               YGN           MMR11006050802430004630605000000000000000   10300002 00104100000000000000000000008190     
100   35710830074541830000000000017800000000017800002000000010410406050323540004789943610605215609000478   1030000100030000   541120003111777031200000031MOB BANK               YGN           MMR11006050323540004780605000000000000000   10300003 00104100000000000000000000003560     
100   62921400010234130000000000015500000000015500002000000010410406050550120004842222220605215612000484   1030000100030000   541120003111777031200000031MOB BANK               YGN           MMR11006050550120004840605000000000000000   10300009 00104100000000000000000000003100     
100   95030510252352230000000000044200000000044200002000000010410406050357570005661EMMLC0605215610000566   1030000100030000   541120003104777031200000031MOB BANK               YGN           MMR11006050357570005660605000000000000000   10300002 00104100000000000000000000008840     
100   62441900003092960000000000006400000000006400002000000010410406050658110002782927390605215613000278   1030000100030000   541120003012777031200000030MOB BANK               YGN           MMR11006050658110002780605000000000000000   10300003 00104100000000000000000000002240     
100   9503051025235223000000000001800000000001800000200000001041040605032441000479OCNT2S0605215609000479   1030000100030000   541120003111777031200000031MOB BANK               YGN           MMR11006050324410004790605000000000000000   10300002 00104100000000000000000000003600     
100   9503051025947801000000000006930000000006930000200000001041040605095207000656CFSUCI0605215616000656   1030000100030000   581210001201777031200000012MOB BANK               YGN           MMR11006050952070006560605000000000000000   10300002 00104100000000000000000000023562     
100   35710500103026340000000000022650000000022650002000000010410406051036340003393630020605215617000339   1030000100030000   541120003013777031200000030MOB BANK               YGN           MMR11006051036340003390605000000000000000   10300005 00104100000000000000000000004530     
100   9503190005340486000000000000230000000000230000200000001041040605113756000574RJZRD60605215618000574   1030000100030000   541120003104777031200000031MOB BANK               YGN           MMR11006051137560005740605000000000000000   10300014 00104100000000000000000000000460     
100   35710830089432670000000000137700000000137700002000000010410406050552360004850835720605215612000485   1030000100030000   541120003111777031200000031MOB BANK               YGN           MMR11006050552360004850605000000000000000   10300003 00104100000000000000000000027540     
100   95051080110000660000000000026000000000026000002000000010410406050557460004864673270605215612000486   1030000100030000   541120003111777031200000031MOB BANK               YGN           MMR11006050557460004860605000000000000000   10300005 00104100000000000000000000009100     
100   9503051873321661000000000004200000000004200000200000001041040605061137000274PXDAIO0605215612000274   1030000100030000   541110001917777031200000019MOB BANK               YGN           MMR11006050611370002740605000000000000000   10300002 00104100000000000000000000008400     
100   62622000605197540000000000010100000000010100002000000010410406050955550004688406890605215616000468   1030000100030000   541120003005777031200000030MOB BANK               YGN           MMR11006050955550004680605000000000000000   10300006 00104100000000000000000000002020     
100   9503190005852027000000000007320000000007320000200000001041040605084621000633VQLQM10605215615000633   1030000100030000   541120003008777031200000030MOB BANK               YGN           MMR11006050846210006330605000000000000000   10300014 00104100000000000000000000014640     
100   35710830982186200000000000002793000000002793002000000010410406050607490006290927100605215612000629   1030000100030000   541120003008777031200000030MOB BANK               YGN           MMR11006050607490006290605000000000000000   10300003 00104100000000000000000000000559     
100   9503051024814192000000000002500000000002500000200000001041040605091318000280PJ38QL0605215615000280   1030000100030000   541120003012777031200000030MOB BANK               YGN           MMR11006050913180002800605000000000000000   10300002 00104100000000000000000000005000     
100   9503051024308013000000000005000000000005000000200000001041040605042616000270UJIMHL0605215610000270   1030000100030000   541110001917777031200000019MOB BANK               YGN           MMR11006050426160002700605000000000000000   10300002 00104100000000000000000000010000     
100   9503190000072118000000000000295000000000295000200000001041040605082800000464WQ4CX00605215614000464   1030000100030000   541120003005777031200000030MOB BANK               YGN           MMR11006050828000004640605000000000000000   10300014 00104100000000000000000000000590     
100   35710830074541830000000000009000000000009000002000000010410406050332590004809998100605215610000480   1030000100030000   541120003111777031200000031MOB BANK               YGN           MMR11006050332590004800605000000000000000   10300003 00104100000000000000000000001800     
100   9503051026345559000000000005550000000005550000200000001041040605080100000487RPDKMI0605215614000487   1030000100030000   541120003111777031200000031MOB BANK               YGN           MMR11006050801000004870605000000000000000   10300002 00104100000000000000000000011100     
100   9503054000539080000000000000730000000000730000200000001041040605052325000568WYTYTK0605215611000568   1030000100030000   541120003104777031200000031MOB BANK               YGN           MMR11006050523250005680605000000000000000   10300002 00104100000000000000000000001460     
100   62622000226252440000000000003724000000003724002000000010410406051146550003408407250605215618000340   1030000100030000   541120003013777031200000030MOB BANK               YGN           MMR11006051146550003400605000000000000000   10300006 00104100000000000000000000000745     
100   35710500352936510000000000056500000000056500002000000010410406050542370004816808750605215612000481   1030000100030000   541120003111777031200000031MOB BANK               YGN           MMR11006050542370004810605000000000000000   10300005 00104100000000000000000000011300     
100   35710830336687560000000000031000000000031000002000000010410406050941090007092207100605215616000709   1030000100030000   541120003103777031200000031MOB BANK               YGN           MMR11006050941090007090605000000000000000   10300003 00104100000000000000000000006200     
100   9503051897410557000000000012497000000012497000200000001041040605062715000337S3BCLP0605215612000337   1030000100030000   541120003013777031200000030MOB BANK               YGN           MMR11006050627150003370605000000000000000   10300002 00104100000000000000000000024994     
100   35710500374799360000000000022000000000022000002000000010410406051008290004894154390605215616000489   1030000100030000   541120003111777031200000031MOB BANK               YGN           MMR11006051008290004890605000000000000000   10300005 00104100000000000000000000004400     
100   9503051025761053000000000002200000000002200000200000001041040605092157000488WIZVF60605215615000488   1030000100030000   541120003111777031200000031MOB BANK               YGN           MMR11006050921570004880605000000000000000   10300002 00104100000000000000000000004400     
100   62441900102011030000000000009850000000009850002000000010410406050753570005704012600605215614000570   1030000100030000   541120003104777031200000031MOB BANK               YGN           MMR11006050753570005700605000000000000000   10300003 00104100000000000000000000003447     
100   9503051873321661000000000001110000000001110000200000001041040605052056001543S6KOHE0605215611001543   1030000100030000   541110001903777031200000019MOB BANK               YGN           MMR11006050520560015430605000000000000000   10300002 00104100000000000000000000002220     
100   35710830986503270000000000044800000000044800002000000010410406050523360015450661800605215611001545   1030000100030000   541110001903777031200000019MOB BANK               YGN           MMR11006050523360015450605000000000000000   10300003 00104100000000000000000000008960     
100   9503051025235223000000000001795000000001795000200000001041040605033722001607QSYQEO0605215610001607   1030000100030000   541120003117777031200000031MOB BANK               YGN           MMR11006050337220016070605000000000000000   10300002 00104100000000000000000000003590     
100   35710500343029580000000000010450000000010450002000000010410406050640310015188469310605215613001518   1030000100030000   581250000001777031200000005MOB BANK               YGN           MMR11006050640310015180605000000000000000   10300005 00104100000000000000000000003553     
100   35710500335696640000000000007645000000007645002000000010410406050821520015191283290605215614001519   1030000100030000   581250000001777031200000005MOB BANK               YGN           MMR11006050821520015190605000000000000000   10300005 00104100000000000000000000002599     
100   35710500360350930000000000034700000000034700002000000010410406050912450016208670520605215615001620   1030000100030000   541120003117777031200000031MOB BANK               YGN           MMR11006050912450016200605000000000000000   10300005 00104100000000000000000000006940     
100   95030518893729710000000000016600000000016600002000000010410406050503490028905RWPNM0605215611002890   1030000100030000   541110001907777031200000019MOB BANK               YGN           MMR11006050503490028900605000000000000000   10300002 00104100000000000000000000003320     
100   9503051023767136000000000001450000000001450000200000001041040605060910001358XAE6NA0605215612001358   1030000100030000   541110001915777031200000019MOB BANK               YGN           MMR11006050609100013580605000000000000000   10300002 00104100000000000000000000002900     
100   35710830140012580000000000049200000000049200002000000010410406050845170013771871810605215615001377   1030000100030000   541110001915777031200000019MOB BANK               YGN           MMR11006050845170013770605000000000000000   10300003 00104100000000000000000000009840     
100   9503051888885015000000000001008000000001008000200000001041040605080519001562O98ZT40605215614001562   1030000100030000   541110001903777031200000019MOB BANK               YGN           MMR11006050805190015620605000000000000000   10300002 00104100000000000000000000002016     
100   62622000495467530000000000032500000000032500002000000010410406050958240015818516220605215616001581   1030000100030000   541110001903777031200000019MOB BANK               YGN           MMR11006050958240015810605000000000000000   10300006 00104100000000000000000000006500     
100   35710500344297360000000000020400000000020400002000000010410406051038150013311055270605215617001331   1030000100030000   541110001920777031200000019MOB BANK               YGN           MMR11006051038150013310605000000000000000   10300005 00104100000000000000000000004080     
100   9503051026044186000000000002280000000002280000200000001041040605080911001564PKQRSK0605215614001564   1030000100030000   541110001903777031200000019MOB BANK               YGN           MMR11006050809110015640605000000000000000   10300002 00104100000000000000000000004560     
100   35710500304503970000000000047494000000047494002000000010410406051034470023666133470605215617002366   1030000100030000   541110001905777031200000019MOB BANK               YGN           MMR11006051034470023660605000000000000000   10300005 00104100000000000000000000009499     
