100   9503051025631009000000000000280000000000280000200000001041040606060538000580UVRU480606215712000580   1030000100030000   541120003104777031200000031MOB BANK               YGN           MMR11006060605380005800606000000000000000   10300002 00104100000000000000000000000560     
100   35710830515799190000000000012200000000012200002000000010410406061107150005121363710606215717000512   1030000100030000   541120003003777031200000030MOB BANK               YGN           MMR11006061107150005120606000000000000000   10300003 00104100000000000000000000002440     
100   35710500374768820000000000020750000000020750002000000010410406061040200005836652660606215717000583   1030000100030000   541120003104777031200000031MOB BANK               YGN           MMR11006061040200005830606000000000000000   10300005 00104100000000000000000000004150     
100   35710830909649990000000000025600000000025600002000000010410406060956040006390936610606215716000639   1030000100030000   541120003008777031200000030MOB BANK               YGN           MMR11006060956040006390606000000000000000   10300003 00104100000000000000000000005120     
100   9503051025794583000000000002310000000002310000200000001041040606053156000895PZDWQN0606215712000895   1030000100030000   581210001501777031200000015MOB BANK               YGN           MMR11006060531560008950606000000000000000   10300002 00104100000000000000000000007854     
100   9503051886882873000000000004015000000004015000200000001041040606074717000896QT0SVP0606215714000896   1030000100030000   581210001501777031200000015MOB BANK               YGN           MMR11006060747170008960606000000000000000   10300002 00104100000000000000000000013651     
100   35710500100621960000000000033200000000033200002000000010410406060951120016663746590606215716001666   1030000100030000   541120003117777031200000031MOB BANK               YGN           MMR11006060951120016660606000000000000000   10300005 00104100000000000000000000006640     
100   35710830909649990000000000009900000000009900002000000010410406061001240003150968510606215716000315   1030000100030000   541120003002777031200000030MOB BANK               YGN           MMR11006061001240003150606000000000000000   10300003 00104100000000000000000000001980     
100   35710830958743000000000000025800000000025800002000000010410406060656200007149858110606215713000714   1030000100030000   541120003103777031200000031MOB BANK               YGN           MMR11006060656200007140606000000000000000   10300003 00104100000000000000000000005160     
100   9503051026440756000000000004580000000004580000200000001041040606090559000717AYLL5X0606215715000717   1030000100030000   541120003103777031200000031MOB BANK               YGN           MMR11006060905590007170606000000000000000   10300002 00104100000000000000000000009160     
100   35710830799942310000000000048900000000048900002000000010410406060334520016358649410606215710001635   1030000100030000   541120003117777031200000031MOB BANK               YGN           MMR11006060334520016350606000000000000000   10300003 00104100000000000000000000009780     
100   35710830240040110000000000021300000000021300002000000010410406060410160016388861810606215710001638   1030000100030000   541120003117777031200000031MOB BANK               YGN           MMR11006060410160016380606000000000000000   10300003 00104100000000000000000000004260     
100   9503051025785391000000000001860000000001860000200000001041040606050133001640YPLGRS0606215711001640   1030000100030000   541120003117777031200000031MOB BANK               YGN           MMR11006060501330016400606000000000000000   10300002 00104100000000000000000000003720     
100   35710830577208970000000000020400000000020400002000000010410406060606060016439556800606215712001643   1030000100030000   541120003117777031200000031MOB BANK               YGN           MMR11006060606060016430606000000000000000   10300003 00104100000000000000000000004080     
100   9503051891999233000000000001420000000001420000200000001041040606063642000284ZPQNP60606215713000284   1030000100030000   541120003012777031200000030MOB BANK               YGN           MMR11006060636420002840606000000000000000   10300002 00104100000000000000000000002840     
100   35710500365402740000000000011809000000011809002000000010410406061135420006416968820606215718000641   1030000100030000   541120003008777031200000030MOB BANK               YGN           MMR11006061135420006410606000000000000000   10300005 00104100000000000000000000002362     
100   9503054000512780000000000000735800000000735800200000001041040606061536001648HJXV0W0606215712001648   1030000100030000   541120003117777031200000031MOB BANK               YGN           MMR11006060615360016480606000000000000000   10300002 00104100000000000000000000001472     
100   9503054000516468000000000001200000000001200000200000001041040606064256001650WVHHRU0606215713001650   1030000100030000   541120003117777031200000031MOB BANK               YGN           MMR11006060642560016500606000000000000000   10300002 00104100000000000000000000002400     
100   35710500116364690000000000010500000000010500002000000010410406061151290003173188920606215718000317   1030000100030000   541120003002777031200000030MOB BANK               YGN           MMR11006061151290003170606000000000000000   10300005 00104100000000000000000000002100     
100   35710500343685790000000000018550000000018550002000000010410406060956460004732044660606215716000473   1030000100030000   541120003005777031200000030MOB BANK               YGN           MMR11006060956460004730606000000000000000   10300005 00104100000000000000000000003710     
100   95030800083433810000000000007800000000007800002000000010410406060338500005028673200606215710000502   1030000100030000   541120003003777031200000030MOB BANK               YGN           MMR11006060338500005020606000000000000000   10300003 00104100000000000000000000001560     
100   95030510249806960000000000034500000000034500002000000010410406060649200016547SWYXT0606215713001654   1030000100030000   541120003117777031200000031MOB BANK               YGN           MMR11006060649200016540606000000000000000   10300002 00104100000000000000000000006900     
100   35710830571182090000000000037500000000037500002000000010410406060651340016579829510606215713001657   1030000100030000   541120003117777031200000031MOB BANK               YGN           MMR11006060651340016570606000000000000000   10300003 00104100000000000000000000007500     
100   35710830214404400000000000004500000000004500002000000010410406060532170005039353910606215712000503   1030000100030000   541120003003777031200000030MOB BANK               YGN           MMR11006060532170005030606000000000000000   10300003 00104100000000000000000000000900     
100   9503190001437120000000000011379000000011379000200000001041040606071419001682A6QKMS0606215713001682   1030000100030000   541160000001777031200000006MOB BANK               YGN           MMR11006060714190016820606000000000000000   10300014 00104100000000000000000000022758     
100   35710500315402870000000000131400000000131400002000000010410406060823350016847951970606215714001684   1030000100030000   541160000001777031200000006MOB BANK               YGN           MMR11006060823350016840606000000000000000   10300005 00104100000000000000000000026280     
100   9503051025843992000000000002170000000002170000200000001041040606101808000343OKQYLV0606215716000343   1030000100030000   541120003013777031200000030MOB BANK               YGN           MMR11006061018080003430606000000000000000   10300002 00104100000000000000000000004340     
100   95030510257853910000000000003800000000003800002000000010410406060514330005789JIZQE0606215711000578   1030000100030000   541120003104777031200000031MOB BANK               YGN           MMR11006060514330005780606000000000000000   10300002 00104100000000000000000000000760     
100   35710830482213100000000000005813000000005813002000000010410406060804020005090264410606215714000509   1030000100030000   541120003003777031200000030MOB BANK               YGN           MMR11006060804020005090606000000000000000   10300003 00104100000000000000000000001163     
100   35710830571182090000000000008500000000008500002000000010410406060705330004929913510606215713000492   1030000100030000   541120003111777031200000031MOB BANK               YGN           MMR11006060705330004920606000000000000000   10300003 00104100000000000000000000001700     
100   95030800023411340000000000036300000000036300002000000010410406060918080004930709020606215715000493   1030000100030000   541120003111777031200000031MOB BANK               YGN           MMR11006060918080004930606000000000000000   10300003 00104100000000000000000000007260     
