100   35710500103550530000000000002300000000002300002000000010410405140854460003539810240514213415000353   1030000100030000   541120003003777031200000030MOB BANK               YGN           MMR11005140854460003530514000000000000000   10300005 00104100000000000000000000000460     
100   95030518845748290000000000028800000000028800002000000010410405140946490005716BJSQA0514213416000571   1030000100030000   541120003103777031200000031MOB BANK               YGN           MMR11005140946490005710514000000000000000   10300002 00104100000000000000000000005760     
100   62622000080591290000000000013000000000013000002000000010410405140447290009072016850514213411000907   1030000100030000   541110001903777031200000019MOB BANK               YGN           MMR11005140447290009070514000000000000000   10300006 00104100000000000000000000002600     
100   9503051026177630000000000002580000000002580000200000001041040514101210000949VIPOUD0514213416000949   1030000100030000   541110001903777031200000019MOB BANK               YGN           MMR11005141012100009490514000000000000000   10300002 00104100000000000000000000005160     
100   35710500373267980000000000014000000000014000002000000010410405141012510012009412310514213416001200   1030000100030000   541120003117777031200000031MOB BANK               YGN           MMR11005141012510012000514000000000000000   10300005 00104100000000000000000000002800     
100   35710830277519150000000000010200000000010200002000000010410405140957260011932224710514213416001193   1030000100030000   541120003117777031200000031MOB BANK               YGN           MMR11005140957260011930514000000000000000   10300003 00104100000000000000000000002040     
100   62346600105982960000000000015000000000015000002000000010410405140615060019635013320514213412001963   1030000100030000   541110001907777031200000019MOB BANK               YGN           MMR11005140615060019630514000000000000000   10300005 00104100000000000000000000003000     
100   95030518864280080000000000035300000000035300002000000010410405140639440019669RWUQ30514213413001966   1030000100030000   541110001907777031200000019MOB BANK               YGN           MMR11005140639440019660514000000000000000   10300002 00104100000000000000000000007060     
100   9503051886428008000000000002880000000002880000200000001041040514061633000931WVXGN90514213412000931   1030000100030000   541110001903777031200000019MOB BANK               YGN           MMR11005140616330009310514000000000000000   10300002 00104100000000000000000000005760     
100   62622000346674160000000000012500000000012500002000000010410405140957350010941978240514213416001094   1030000100030000   541110001915777031200000019MOB BANK               YGN           MMR11005140957350010940514000000000000000   10300006 00104100000000000000000000002500     
100   35710500350413160000000000018240000000018240002000000010410405140425540011435801760514213410001143   1030000100030000   541120003106777031200000031MOB BANK               YGN           MMR11005140425540011430514000000000000000   10300005 00104100000000000000000000003648     
100   35710950886095010000000000014250000000014250002000000010410405140517000011710542210514213411001171   1030000100030000   541120003117777031200000031MOB BANK               YGN           MMR11005140517000011710514000000000000000   10300003 00104100000000000000000000002850     
100   35710500315480330000000000032830000000032830002000000010410405140837390017541520240514213415001754   1030000100030000   541110001905777031200000019MOB BANK               YGN           MMR11005140837390017540514000000000000000   10300005 00104100000000000000000000006566     
100   35710500181130660000000000033100000000033100002000000010410405140642190019693318690514213413001969   1030000100030000   541110001907777031200000019MOB BANK               YGN           MMR11005140642190019690514000000000000000   10300005 00104100000000000000000000006620     
100   9503051888324080000000000009329600000009329600200000001041040514064411001972RLDFYU0514213413001972   1030000100030000   541110001907777031200000019MOB BANK               YGN           MMR11005140644110019720514000000000000000   10300002 00104100000000000000000000018659     
100   95030510256198140000000000004050000000004050002000000010410405141046060002785MMDDH0514213417000278   1030000100030000   541120003005777031200000030MOB BANK               YGN           MMR11005141046060002780514000000000000000   10300002 00104100000000000000000000000810     
100   35710500334769360000000000054100000000054100002000000010410405140437170002791434270514213411000279   1030000100030000   541120003001777031200000030MOB BANK               YGN           MMR11005140437170002790514000000000000000   10300005 00104100000000000000000000010820     
100   35710500323660470000000000014750000000014750002000000010410405141253200002800368390514213419000280   1030000100030000   541120003005777031200000030MOB BANK               YGN           MMR11005141253200002800514000000000000000   10300005 00104100000000000000000000002950     
100   35710830155667880000000000034100000000034100002000000010410405141357010007723662310514213420000772   1030000100030000   581210001501777031200000015MOB BANK               YGN           MMR11005141357010007720514000000000000000   10300003 00104100000000000000000000011594     
100   9503051891315323000000000001632000000001632000200000001041040514094637000229MYTVG20514213416000229   1030000100030000   541120003110777031200000031MOB BANK               YGN           MMR11005140946370002290514000000000000000   10300002 00104100000000000000000000003264     
100   95030510239465650000000000025800000000025800002000000010410405141056390009540JZMWM0514213417000954   1030000100030000   541110001903777031200000019MOB BANK               YGN           MMR11005141056390009540514000000000000000   10300002 00104100000000000000000000005160     
100   9503051872951435000000000001120000000001120000200000001041040514084623001183GFPQGM0514213415001183   1030000100030000   541120003117777031200000031MOB BANK               YGN           MMR11005140846230011830514000000000000000   10300002 00104100000000000000000000002240     
100   35710830580099930000000000020460000000020460002000000010410405140912080014041953010514213415001404   1030000100030000   581250000001777031200000005MOB BANK               YGN           MMR11005140912080014040514000000000000000   10300003 00104100000000000000000000006956     
100   35710500334769360000000000027100000000027100002000000010410405140455210002812223870514213411000281   1030000100030000   541120003001777031200000030MOB BANK               YGN           MMR11005140455210002810514000000000000000   10300005 00104100000000000000000000005420     
100   35710500325550370000000000027000000000027000002000000010410405141036450019973727260514213417001997   1030000100030000   541110001907777031200000019MOB BANK               YGN           MMR11005141036450019970514000000000000000   10300005 00104100000000000000000000005400     
100   9503051021005885000000000000880000000000880000200000001041040514114438001777IGIRBJ0514213418001777   1030000100030000   541110001905777031200000019MOB BANK               YGN           MMR11005141144380017770514000000000000000   10300002 00104100000000000000000000001760     
100   95030510222574770000000000031570000000031570002000000010410405141049520014050AVMPL0514213417001405   1030000100030000   581250000001777031200000005MOB BANK               YGN           MMR11005141049520014050514000000000000000   10300002 00104100000000000000000000010734     
100   35710500334769360000000000012600000000012600002000000010410405140449110002801107670514213411000280   1030000100030000   541120003001777031200000030MOB BANK               YGN           MMR11005140449110002800514000000000000000   10300005 00104100000000000000000000002520     
100   9503051024217842000000000001000000000001000000200000001041040514045840000373DAV9VD0514213411000373   1030000100030000   541120003008777031200000030MOB BANK               YGN           MMR11005140458400003730514000000000000000   10300002 00104100000000000000000000002000     
100   35710830044166720000000000022500000000022500002000000010410405140656290003751139110514213413000375   1030000100030000   541120003008777031200000030MOB BANK               YGN           MMR11005140656290003750514000000000000000   10300003 00104100000000000000000000004500     
100   9503190006517900000000000001097500000001097500200000001041040514074236000347BXVWMS0514213414000347   1030000100030000   541120003003777031200000030MOB BANK               YGN           MMR11005140742360003470514000000000000000   10300014 00104100000000000000000000002195     
100   35710500320034750000000000012000000000012000002000000010410405141142030003798391400514213418000379   1030000100030000   541120003008777031200000030MOB BANK               YGN           MMR11005141142030003790514000000000000000   10300005 00104100000000000000000000002400     
100   9503051024992253000000000003880000000003880000200000001041040514081454000937X5LVCH0514213414000937   1030000100030000   541110001903777031200000019MOB BANK               YGN           MMR11005140814540009370514000000000000000   10300002 00104100000000000000000000007760     
100   95030510253794270000000000079400000000079400002000000010410405141009040010962LFGLE0514213416001096   1030000100030000   541110001915777031200000019MOB BANK               YGN           MMR11005141009040010960514000000000000000   10300002 00104100000000000000000000015880     
100   9503051892046638000000000001850000000001850000200000001041040514061828001149PNK3SM0514213412001149   1030000100030000   541120003106777031200000031MOB BANK               YGN           MMR11005140618280011490514000000000000000   10300002 00104100000000000000000000003700     
100   950305102625938800000000000125950000000125950020000000104104051403172500139951UD0R0514213409001399   1030000100030000   581250000001777031200000005MOB BANK               YGN           MMR11005140317250013990514000000000000000   10300002 00104100000000000000000000004282     
100   9503051890241868000000000002300000000002300000200000001041040514093337001758XOKTPH0514213416001758   1030000100030000   541110001905777031200000019MOB BANK               YGN           MMR11005140933370017580514000000000000000   10300002 00104100000000000000000000004600     
100   35710500353697170000000000043800000000043800002000000010410405140706250019752154920514213413001975   1030000100030000   541110001907777031200000019MOB BANK               YGN           MMR11005140706250019750514000000000000000   10300005 00104100000000000000000000008760     
100   9503051020051351000000000002990000000002990000200000001041040514053526000920HOBFDB0514213412000920   1030000100030000   541110001903777031200000019MOB BANK               YGN           MMR11005140535260009200514000000000000000   10300002 00104100000000000000000000005980     
100   35710950886095010000000000092550000000092550002000000010410405140507530011660487420514213411001166   1030000100030000   541120003117777031200000031MOB BANK               YGN           MMR11005140507530011660514000000000000000   10300003 00104100000000000000000000018510     
100   35710500333473840000000000048450000000048450002000000010410405141020270012073526870514213416001207   1030000100030000   541120003117777031200000031MOB BANK               YGN           MMR11005141020270012070514000000000000000   10300005 00104100000000000000000000009690     
100   9503051872523721000000000002955000000002955000200000001041040514062137001734GHOTVG0514213412001734   1030000100030000   541110001905777031200000019MOB BANK               YGN           MMR11005140621370017340514000000000000000   10300002 00104100000000000000000000005910     
100   62346600192007460000000000009500000000009500002000000010410405140648310017386999700514213413001738   1030000100030000   541110001905777031200000019MOB BANK               YGN           MMR11005140648310017380514000000000000000   10300005 00104100000000000000000000001900     
100   35710830044166720000000000012350000000012350002000000010410405140711470002741230820514213413000274   1030000100030000   541120003005777031200000030MOB BANK               YGN           MMR11005140711470002740514000000000000000   10300003 00104100000000000000000000002470     
100   35710950001289030000000000012000000000012000002000000010410405140720300002751283200514213413000275   1030000100030000   541120003005777031200000030MOB BANK               YGN           MMR11005140720300002750514000000000000000   10300003 00104100000000000000000000002400     
100   95030800092824220000000000012600000000012600002000000010410405141026160002302397710514213416000230   1030000100030000   541120003110777031200000031MOB BANK               YGN           MMR11005141026160002300514000000000000000   10300003 00104100000000000000000000002520     
100   62921400096327690000000000003938000000003938002000000010410405140531400019532222220514213412001953   1030000100030000   541110001907777031200000019MOB BANK               YGN           MMR11005140531400019530514000000000000000   10300009 00104100000000000000000000000788     
100   35710950081958700000000000003479000000003479002000000010410405140556150019590777610514213412001959   1030000100030000   541110001907777031200000019MOB BANK               YGN           MMR11005140556150019590514000000000000000   10300003 00104100000000000000000000000696     
100   35710500315182590000000000024000000000024000002000000010410405141144530020107320800514213418002010   1030000100030000   541110001907777031200000019MOB BANK               YGN           MMR11005141144530020100514000000000000000   10300005 00104100000000000000000000004800     
100   9503051888710833000000000000901600000000901600200000001041040514105213000358N2NL2F0514213417000358   1030000100030000   541120003104777031200000031MOB BANK               YGN           MMR11005141052130003580514000000000000000   10300002 00104100000000000000000000001803     
100   9503051872523721000000000005160000000005160000200000001041040514060804000925MLDLE80514213412000925   1030000100030000   541110001903777031200000019MOB BANK               YGN           MMR11005140608040009250514000000000000000   10300002 00104100000000000000000000010320     
100   9503051892046638000000000001750000000001750000200000001041040514064049001156TRC3TL0514213413001156   1030000100030000   541120003106777031200000031MOB BANK               YGN           MMR11005140640490011560514000000000000000   10300002 00104100000000000000000000003500     
100   35710500111078910000000000031680000000031680002000000010410405140609180014021043700514213412001402   1030000100030000   581250000001777031200000005MOB BANK               YGN           MMR11005140609180014020514000000000000000   10300005 00104100000000000000000000010771     
100   35710830772245730000000000013530000000013530002000000010410405141204590014072990100514213418001407   1030000100030000   581250000001777031200000005MOB BANK               YGN           MMR11005141204590014070514000000000000000   10300003 00104100000000000000000000004600     
100   62622000796837650000000000002600000000002600002000000010410405140804390003501936960514213414000350   1030000100030000   541120003003777031200000030MOB BANK               YGN           MMR11005140804390003500514000000000000000   10300006 00104100000000000000000000000520     
100   9503051891196236000000000001180000000001180000200000001041040514102330001098I5I5IQ0514213416001098   1030000100030000   541110001915777031200000019MOB BANK               YGN           MMR11005141023300010980514000000000000000   10300002 00104100000000000000000000002360     
100   9503051888389760000000000001610000000001610000200000001041040514084909001187C7AJSL0514213415001187   1030000100030000   541120003117777031200000031MOB BANK               YGN           MMR11005140849090011870514000000000000000   10300002 00104100000000000000000000003220     
100   9503054000531889000000000000900000000000900000200000001041040514094840001763BFFM0D0514213416001763   1030000100030000   541110001905777031200000019MOB BANK               YGN           MMR11005140948400017630514000000000000000   10300002 00104100000000000000000000001800     
100   9503051023946565000000000002990000000002990000200000001041040514101108001768CNKLHI0514213416001768   1030000100030000   541110001905777031200000019MOB BANK               YGN           MMR11005141011080017680514000000000000000   10300002 00104100000000000000000000005980     
100   35710830711427630000000000090000000000090000002000000010410405140859060019831874810514213415001983   1030000100030000   541110001907777031200000019MOB BANK               YGN           MMR11005140859060019830514000000000000000   10300003 00104100000000000000000000018000     
100   9503054000531889000000000003630000000003630000200000001041040514095919001987TB4QP60514213416001987   1030000100030000   541110001907777031200000019MOB BANK               YGN           MMR11005140959190019870514000000000000000   10300002 00104100000000000000000000007260     
100   9503051020370215000000000006840000000006840000200000001041040514033948000338VINPD60514213410000338   1030000100030000   541120003111777031200000031MOB BANK               YGN           MMR11005140339480003380514000000000000000   10300002 00104100000000000000000000013680     
100   35710500353245220000000000005150000000005150002000000010410405141038480003772911940514213417000377   1030000100030000   541120003008777031200000030MOB BANK               YGN           MMR11005141038480003770514000000000000000   10300005 00104100000000000000000000001030     
100   35710500165169550000000000051920000000051920002000000010410405141320550007684388520514213419000768   1030000100030000   581210001501777031200000015MOB BANK               YGN           MMR11005141320550007680514000000000000000   10300005 00104100000000000000000000017653     
100   62346600105982960000000000040800000000040800002000000010410405140606350009230337730514213412000923   1030000100030000   541110001903777031200000019MOB BANK               YGN           MMR11005140606350009230514000000000000000   10300005 00104100000000000000000000008160     
100   35710500124005350000000000025800000000025800002000000010410405140517410009155492910514213411000915   1030000100030000   541110001903777031200000019MOB BANK               YGN           MMR11005140517410009150514000000000000000   10300005 00104100000000000000000000005160     
100   35710500142525870000000000026800000000026800002000000010410405140522140009180318180514213411000918   1030000100030000   541110001903777031200000019MOB BANK               YGN           MMR11005140522140009180514000000000000000   10300005 00104100000000000000000000005360     
100   9503051889659427000000000000750000000000750000200000001041040514064424001086EF9THQ0514213413001086   1030000100030000   541110001915777031200000019MOB BANK               YGN           MMR11005140644240010860514000000000000000   10300002 00104100000000000000000000001500     
100   35710830077829480000000000026000000000026000002000000010410405140653550010881123610514213413001088   1030000100030000   541110001915777031200000019MOB BANK               YGN           MMR11005140653550010880514000000000000000   10300003 00104100000000000000000000005200     
100   35710500331814940000000000034300000000034300002000000010410405140545590011741464470514213412001174   1030000100030000   541120003117777031200000031MOB BANK               YGN           MMR11005140545590011740514000000000000000   10300005 00104100000000000000000000006860     
100   35710500373267980000000000005850000000005850002000000010410405141022100012093246360514213416001209   1030000100030000   541120003117777031200000031MOB BANK               YGN           MMR11005141022100012090514000000000000000   10300005 00104100000000000000000000001170     
100   35710500381204480000000000024850000000024850002000000010410405140714460017406332720514213413001740   1030000100030000   541110001905777031200000019MOB BANK               YGN           MMR11005140714460017400514000000000000000   10300005 00104100000000000000000000004970     
100   9503051872337759000000000005409600000005409600200000001041040514081426001743FEZCX60514213414001743   1030000100030000   541110001905777031200000019MOB BANK               YGN           MMR11005140814260017430514000000000000000   10300002 00104100000000000000000000010819     
100   35710500394284020000000000016650000000016650002000000010410405140811040001437726560514213414000143   1030000100030000   541120003002777031200000030MOB BANK               YGN           MMR11005140811040001430514000000000000000   10300005 00104100000000000000000000003330     
100   9503051023495183000000000001360000000001360000200000001041040514071715000284HPQCTO0514213413000284   1030000100030000   541120003001777031200000030MOB BANK               YGN           MMR11005140717150002840514000000000000000   10300002 00104100000000000000000000002720     
100   35710830688312790000000000077600000000077600002000000010410405140835360009391733800514213415000939   1030000100030000   541110001903777031200000019MOB BANK               YGN           MMR11005140835360009390514000000000000000   10300003 00104100000000000000000000015520     
100   95030518887108330000000000005850000000005850002000000010410405141102480012112EDTXE0514213417001211   1030000100030000   541120003117777031200000031MOB BANK               YGN           MMR11005141102480012110514000000000000000   10300002 00104100000000000000000000001170     
100   9503051887191076000000000000686000000000686000200000001041040514113156000362RSB4GH0514213418000362   1030000100030000   541120003003777031200000030MOB BANK               YGN           MMR11005141131560003620514000000000000000   10300002 00104100000000000000000000001372     
100   95030800049711930000000000007500000000007500002000000010410405140538310009410671310514213412000941   1030000100030000   541110001920777031200000019MOB BANK               YGN           MMR11005140538310009410514000000000000000   10300003 00104100000000000000000000001500     
100   9503190007067749000000000000850000000000850000200000001041040514111343001175VNBL4Q0514213417001175   1030000100030000   541120003106777031200000031MOB BANK               YGN           MMR11005141113430011750514000000000000000   10300014 00104100000000000000000000001700     
100   35710500343906720000000000014960000000014960002000000010410405140459010014010983080514213411001401   1030000100030000   581250000001777031200000005MOB BANK               YGN           MMR11005140459010014010514000000000000000   10300005 00104100000000000000000000005086     
100   35710500314389120000000000020000000000020000002000000010410405141003590019913467250514213416001991   1030000100030000   541110001907777031200000019MOB BANK               YGN           MMR11005141003590019910514000000000000000   10300005 00104100000000000000000000004000     
100   35650713610004010000000000032320000000032320002000000010410405141020540019941969930514213416001994   1030000100030000   541110001907777031200000019MOB BANK               YGN           MMR11005141020540019940514000000000000000   10300005 00104100000000000000000000011312     
100   95030201235002420000000000060000000000060000002000000010410405140348310001137211050514213410000113   1030000100030000   541120000010777031200000002MOB BANK               YGN           MMR11005140348310001130514000000000000000   10200002 00104100000000000000000000012000     
100   95030510203702150000000000013800000000013800002000000010410405140358270002256MSZ830514213410000225   1030000100030000   541120003110777031200000031MOB BANK               YGN           MMR11005140358270002250514000000000000000   10300002 00104100000000000000000000002760     
100   9503051024160786000000000000280000000000280000200000001041040514050855000204JIWZN30514213411000204   1030000100030000   541120003013777031200000030MOB BANK               YGN           MMR11005140508550002040514000000000000000   10300002 00104100000000000000000000000560     
100   9503051024815884000000000001837300000001837300200000001041040514050916000341IKXV8D0514213411000341   1030000100030000   541120003003777031200000030MOB BANK               YGN           MMR11005140509160003410514000000000000000   10300002 00104100000000000000000000003675     
100   9503051020050866000000000003790000000003790000200000001041040514094440000947K2RE4V0514213416000947   1030000100030000   541110001903777031200000019MOB BANK               YGN           MMR11005140944400009470514000000000000000   10300002 00104100000000000000000000007580     
100   62622000346674160000000000028000000000028000002000000010410405140943250010902047900514213416001090   1030000100030000   541110001915777031200000019MOB BANK               YGN           MMR11005140943250010900514000000000000000   10300006 00104100000000000000000000005600     
100   9503051020386211000000000003445000000003445000200000001041040514061556001176UZZGI30514213412001176   1030000100030000   541120003117777031200000031MOB BANK               YGN           MMR11005140615560011760514000000000000000   10300002 00104100000000000000000000006890     
100   35710830140012580000000000027400000000027400002000000010410405140826290017461679110514213414001746   1030000100030000   541110001905777031200000019MOB BANK               YGN           MMR11005140826290017460514000000000000000   10300003 00104100000000000000000000005480     
100   9503051024283174000000000001640000000001640000200000001041040514031510001945TGOBRK0514213409001945   1030000100030000   541110001907777031200000019MOB BANK               YGN           MMR11005140315100019450514000000000000000   10300002 00104100000000000000000000003280     
100   35710500332206230000000000013600000000013600002000000010410405140923060001442561130514213415000144   1030000100030000   541120003002777031200000030MOB BANK               YGN           MMR11005140923060001440514000000000000000   10300005 00104100000000000000000000002720     
100   9503051887191076000000000000343800000000343800200000001041040514075108000276OZJMEQ0514213414000276   1030000100030000   541120003005777031200000030MOB BANK               YGN           MMR11005140751080002760514000000000000000   10300002 00104100000000000000000000000688     
100   35710500144181130000000000008232000000008232002000000010410405140400330003383276450514213410000338   1030000100030000   541120003003777031200000030MOB BANK               YGN           MMR11005140400330003380514000000000000000   10300005 00104100000000000000000000001646     
100   35710830909635790000000000028800000000028800002000000010410405140516170009130538020514213411000913   1030000100030000   541110001903777031200000019MOB BANK               YGN           MMR11005140516170009130514000000000000000   10300003 00104100000000000000000000005760     
100   35710830306179130000000000011040000000011040002000000010410405140802070009351532920514213414000935   1030000100030000   541110001903777031200000019MOB BANK               YGN           MMR11005140802070009350514000000000000000   10300003 00104100000000000000000000002208     
100   62346600125585200000000000018000000000018000002000000010410405140500280010805394300514213411001080   1030000100030000   541110001915777031200000019MOB BANK               YGN           MMR11005140500280010800514000000000000000   10300005 00104100000000000000000000003600     
100   62346600170446820000000000016000000000016000002000000010410405140642520011593063400514213413001159   1030000100030000   541120003106777031200000031MOB BANK               YGN           MMR11005140642520011590514000000000000000   10300005 00104100000000000000000000003200     
100   9503051872951435000000000002600000000002600000200000001041040514085555001191TOKCKA0514213415001191   1030000100030000   541120003117777031200000031MOB BANK               YGN           MMR11005140855550011910514000000000000000   10300002 00104100000000000000000000005200     
100   950305102194782100000000000302820000000302820020000000104104051411501100020642MQAF0514213418000206   1030000100030000   541120003013777031200000030MOB BANK               YGN           MMR11005141150110002060514000000000000000   10300002 00104100000000000000000000006056     
100   95031800186201230000000000010800000000010800002000000010410405140558490005698624880514213412000569   1030000100030000   541120003103777031200000031MOB BANK               YGN           MMR11005140558490005690514000000000000000   10300013 00104100000000000000000000002160     
100   35710830511123560000000000021600000000021600002000000010410405140407050005660122710514213410000566   1030000100030000   541120003103777031200000031MOB BANK               YGN           MMR11005140407050005660514000000000000000   10300003 00104100000000000000000000004320     
100   62622000080591290000000000039500000000039500002000000010410405140445280009061896280514213411000906   1030000100030000   541110001903777031200000019MOB BANK               YGN           MMR11005140445280009060514000000000000000   10300006 00104100000000000000000000007900     
100   35710830721311040000000000038800000000038800002000000010410405140936250009442098700514213416000944   1030000100030000   541110001903777031200000019MOB BANK               YGN           MMR11005140936250009440514000000000000000   10300003 00104100000000000000000000007760     
100   35710500163874720000000000029850000000029850002000000010410405140645200009453999460514213413000945   1030000100030000   541110001920777031200000019MOB BANK               YGN           MMR11005140645200009450514000000000000000   10300005 00104100000000000000000000005970     
100   9503051025514833000000000004262500000004262500200000001041040514075722001403BGOI1A0514213414001403   1030000100030000   581250000001777031200000005MOB BANK               YGN           MMR11005140757220014030514000000000000000   10300002 00104100000000000000000000014492     
100   35710830265117400000000000004018000000004018002000000010410405141058370017722591910514213417001772   1030000100030000   541110001905777031200000019MOB BANK               YGN           MMR11005141058370017720514000000000000000   10300003 00104100000000000000000000000804     
100   9503051025625084000000000002410800000002410800200000001041040514111453001774NHTQUO0514213417001774   1030000100030000   541110001905777031200000019MOB BANK               YGN           MMR11005141114530017740514000000000000000   10300002 00104100000000000000000000004822     
100   35710500313767650000000000009898000000009898002000000010410405141107310020016074300514213417002001   1030000100030000   541110001907777031200000019MOB BANK               YGN           MMR11005141107310020010514000000000000000   10300005 00104100000000000000000000001980     
100   35710500103182750000000000085000000000085000002000000010410405141259450020151353890514213419002015   1030000100030000   541110001907777031200000019MOB BANK               YGN           MMR11005141259450020150514000000000000000   10300005 00104100000000000000000000017000     
100   35710500106981300000000000012500000000012500002000000010410405140511200002268430190514213411000226   1030000100030000   541120003110777031200000031MOB BANK               YGN           MMR11005140511200002260514000000000000000   10300005 00104100000000000000000000002500     
100   35710500106981300000000000013500000000013500002000000010410405140536550002270756130514213412000227   1030000100030000   541120003110777031200000031MOB BANK               YGN           MMR11005140536550002270514000000000000000   10300005 00104100000000000000000000002700     
100   35710830261732850000000000004500000000004500002000000010410405141056540002792581610514213417000279   1030000100030000   541120003005777031200000030MOB BANK               YGN           MMR11005141056540002790514000000000000000   10300003 00104100000000000000000000000900     
100   35710500305792520000000000012500000000012500002000000010410405140703190003440807170514213413000344   1030000100030000   541120003003777031200000030MOB BANK               YGN           MMR11005140703190003440514000000000000000   10300005 00104100000000000000000000002500     
100   35710830230993680000000000010400000000010400002000000010410405140919040003551994610514213415000355   1030000100030000   541120003003777031200000030MOB BANK               YGN           MMR11005140919040003550514000000000000000   10300003 00104100000000000000000000002080     
100   9503051891111490000000000000470000000000470000200000001041040514101208000376ZBIMIS0514213416000376   1030000100030000   541120003008777031200000030MOB BANK               YGN           MMR11005141012080003760514000000000000000   10300002 00104100000000000000000000000940     
100   62921400095313180000000000042900000000042900002000000010410405140609550009272222220514213412000927   1030000100030000   541110001903777031200000019MOB BANK               YGN           MMR11005140609550009270514000000000000000   10300009 00104100000000000000000000008580     
100   9503051886428008000000000003664000000003664000200000001041040514061440000929QXFM2X0514213412000929   1030000100030000   541110001903777031200000019MOB BANK               YGN           MMR11005140614400009290514000000000000000   10300002 00104100000000000000000000007328     
100   95030510239465650000000000024500000000024500002000000010410405140946360010926ZIHWP0514213416001092   1030000100030000   541110001915777031200000019MOB BANK               YGN           MMR11005140946360010920514000000000000000   10300002 00104100000000000000000000004900     
100   35710830958743000000000000004000000000004000002000000010410405140711540011791231510514213413001179   1030000100030000   541120003117777031200000031MOB BANK               YGN           MMR11005140711540011790514000000000000000   10300003 00104100000000000000000000000800     
100   9503051883110005000000000004570000000004570000200000001041040514062951001084VN1N2K0514213412001084   1030000100030000   541110001915777031200000019MOB BANK               YGN           MMR11005140629510010840514000000000000000   10300002 00104100000000000000000000009140     
100   35710830140012580000000000023000000000023000002000000010410405140831370017491709910514213415001749   1030000100030000   541110001905777031200000019MOB BANK               YGN           MMR11005140831370017490514000000000000000   10300003 00104100000000000000000000004600     
100   9503051884430634000000000007700000000007700000200000001041040514083450001751XEG07L0514213415001751   1030000100030000   541110001905777031200000019MOB BANK               YGN           MMR11005140834500017510514000000000000000   10300002 00104100000000000000000000015400     
100   35710500151198270000000000005200000000005200002000000010410405140853540002772958800514213415000277   1030000100030000   541120003005777031200000030MOB BANK               YGN           MMR11005140853540002770514000000000000000   10300005 00104100000000000000000000001040     
100   35710500350413160000000000086208000000086208002000000010410405140447260003393270740514213411000339   1030000100030000   541120003111777031200000031MOB BANK               YGN           MMR11005140447260003390514000000000000000   10300005 00104100000000000000000000017242     
100   35710500314782980000000000013800000000013800002000000010410405140844410003405116150514213415000340   1030000100030000   541120003111777031200000031MOB BANK               YGN           MMR11005140844410003400514000000000000000   10300005 00104100000000000000000000002760     
100   95030540004314450000000000028000000000028000002000000010410405140533290010828FGAKF0514213412001082   1030000100030000   541110001915777031200000019MOB BANK               YGN           MMR11005140533290010820514000000000000000   10300002 00104100000000000000000000005600     
100   9503051026357521000000000001900000000001900000200000001041040514042808001162MMOZVD0514213410001162   1030000100030000   541120003117777031200000031MOB BANK               YGN           MMR11005140428080011620514000000000000000   10300002 00104100000000000000000000003800     
100   9503190000015265000000000008300000000008300000200000001041040514034319001723JSNWM50514213410001723   1030000100030000   541110001905777031200000019MOB BANK               YGN           MMR11005140343190017230514000000000000000   10300014 00104100000000000000000000016600     
100   95030518839560010000000000011074000000011074002000000010410405140426340017269PT6QW0514213410001726   1030000100030000   541110001905777031200000019MOB BANK               YGN           MMR11005140426340017260514000000000000000   10300002 00104100000000000000000000002215     
100   35710500315607800000000000105000000000105000002000000010410405140514180017307337460514213411001730   1030000100030000   541110001905777031200000019MOB BANK               YGN           MMR11005140514180017300514000000000000000   10300005 00104100000000000000000000021000     
100   95030800062547210000000000049700000000049700002000000010410405140347280001200004920514213410000120   1030000100030000   541120003006777031200000030MOB BANK               YGN           MMR11005140347280001200514000000000000000   10300003 00104100000000000000000000009940     
100   35710500320034750000000000018000000000018000002000000010410405141158460002072604850514213418000207   1030000100030000   541120003013777031200000030MOB BANK               YGN           MMR11005141158460002070514000000000000000   10300005 00104100000000000000000000003600     
100   35710830173731340000000000042600000000042600002000000010410405140921170002282007920514213415000228   1030000100030000   541120003110777031200000031MOB BANK               YGN           MMR11005140921170002280514000000000000000   10300003 00104100000000000000000000008520     
100   9503051021947821000000000000426300000000426300200000001041040514120506000364KERYOC0514213418000364   1030000100030000   541120003003777031200000030MOB BANK               YGN           MMR11005141205060003640514000000000000000   10300002 00104100000000000000000000000853     
100   9503051023495183000000000003130000000003130000200000001041040514072957000286RTRFKI0514213413000286   1030000100030000   541120003001777031200000030MOB BANK               YGN           MMR11005140729570002860514000000000000000   10300002 00104100000000000000000000006260     
