100   35710830324969440000000000045120000000045120002000000010410406070316150004977177610607215809000497   1030000100030000   541120003111777031200000031MOB BANK               YGN           MMR11006070316150004970607000000000000000   10300003 00104100000000000000000000009024     
100   9503051872721986000000000002300000000002300000200000001041040607091928000724YFB0UE0607215815000724   1030000100030000   541120003103777031200000031MOB BANK               YGN           MMR11006070919280007240607000000000000000   10300002 00104100000000000000000000004600     
100   35710500190909660000000000014000000000014000002000000010410406070627530003214586140607215812000321   1030000100030000   541120003002777031200000030MOB BANK               YGN           MMR11006070627530003210607000000000000000   10300005 00104100000000000000000000002800     
100   35710500153444170000000000005000000000005000002000000010410406070908460002873633650607215815000287   1030000100030000   541120003012777031200000030MOB BANK               YGN           MMR11006070908460002870607000000000000000   10300005 00104100000000000000000000001000     
100   9503051897627960000000000000815000000000815000200000001041040607073552000519HAG6OB0607215814000519   1030000100030000   541120003003777031200000030MOB BANK               YGN           MMR11006070735520005190607000000000000000   10300002 00104100000000000000000000001630     
100   95030540005045140000000000005500000000005500002000000010410406070802220016769NISS60607215814001676   1030000100030000   541120003117777031200000031MOB BANK               YGN           MMR11006070802220016760607000000000000000   10300002 00104100000000000000000000001100     
100   9503051026289112000000000003618000000003618000200000001041040607102359001680RIYVOH0607215816001680   1030000100030000   541120003117777031200000031MOB BANK               YGN           MMR11006071023590016800607000000000000000   10300002 00104100000000000000000000007236     
100   9503051023980317000000000001500000000001500000200000001041040607102630001682UYU8TT0607215816001682   1030000100030000   541120003117777031200000031MOB BANK               YGN           MMR11006071026300016820607000000000000000   10300002 00104100000000000000000000003000     
100   35710830760410100000000000027500000000027500002000000010410406070803020005058898400607215814000505   1030000100030000   541120003111777031200000031MOB BANK               YGN           MMR11006070803020005050607000000000000000   10300003 00104100000000000000000000005500     
100   9503051020469736000000000005120000000005120000200000001041040607084048000506JDYCSI0607215815000506   1030000100030000   541120003111777031200000031MOB BANK               YGN           MMR11006070840480005060607000000000000000   10300002 00104100000000000000000000010240     
100   35710500365402740000000000003528000000003528002000000010410406071113580006598653100607215817000659   1030000100030000   541120003008777031200000030MOB BANK               YGN           MMR11006071113580006590607000000000000000   10300005 00104100000000000000000000000706     
100   9503190006180907000000000002700000000002700000200000001041040607052837000498LG0QLC0607215811000498   1030000100030000   541120003111777031200000031MOB BANK               YGN           MMR11006070528370004980607000000000000000   10300014 00104100000000000000000000005400     
100   95030433440323990000000000014400000000014400002000000010410406070547070004991075770607215812000499   1030000100030000   541120003111777031200000031MOB BANK               YGN           MMR11006070547070004990607000000000000000   10300007 00104100000000000000000000002880     
100   35710500355363310000000000005650000000005650002000000010410406070343390005863561840607215810000586   1030000100030000   541120003104777031200000031MOB BANK               YGN           MMR11006070343390005860607000000000000000   10300005 00104100000000000000000000001130     
100   35710830511987100000000000017150000000017150002000000010410406071123030005960098510607215817000596   1030000100030000   541120003104777031200000031MOB BANK               YGN           MMR11006071123030005960607000000000000000   10300003 00104100000000000000000000003430     
100   35710500375335670000000000007500000000007500002000000010410406070457530006457986630607215811000645   1030000100030000   541120003008777031200000030MOB BANK               YGN           MMR11006070457530006450607000000000000000   10300005 00104100000000000000000000001500     
100   9503054000515171000000000002950000000002950000200000001041040607110041000322B433JA0607215817000322   1030000100030000   541120003002777031200000030MOB BANK               YGN           MMR11006071100410003220607000000000000000   10300002 00104100000000000000000000005900     
100   9503051892271830000000000001765000000001765000200000001041040607113927000386BUTSB30607215818000386   1030000100030000   541120003001777031200000030MOB BANK               YGN           MMR11006071139270003860607000000000000000   10300002 00104100000000000000000000003530     
100   35710830257243510000000000010100000000010100002000000010410406070905290005219273100607215815000521   1030000100030000   541120003003777031200000030MOB BANK               YGN           MMR11006070905290005210607000000000000000   10300003 00104100000000000000000000002020     
100   35710830214404400000000000003600000000003600002000000010410406070426590004757602100607215810000475   1030000100030000   541120003005777031200000030MOB BANK               YGN           MMR11006070426590004750607000000000000000   10300003 00104100000000000000000000000720     
100   9503051893363743000000000001840000000001840000200000001041040607043344000476AOVMIA0607215811000476   1030000100030000   541120003005777031200000030MOB BANK               YGN           MMR11006070433440004760607000000000000000   10300002 00104100000000000000000000003680     
100   35710830511987100000000000036100000000036100002000000010410406071116290005080059020607215817000508   1030000100030000   541120003111777031200000031MOB BANK               YGN           MMR11006071116290005080607000000000000000   10300003 00104100000000000000000000007220     
100   9503190001340183000000000002640000000002640000200000001041040607062413000900RXC6U80607215812000900   1030000100030000   581210001501777031200000015MOB BANK               YGN           MMR11006070624130009000607000000000000000   10300014 00104100000000000000000000008976     
100   35710830085395940000000000028500000000028500002000000010410406070615420005008254400607215812000500   1030000100030000   541120003111777031200000031MOB BANK               YGN           MMR11006070615420005000607000000000000000   10300003 00104100000000000000000000005700     
100   95031900061809070000000000017300000000017300002000000010410406070544160005884G04FV0607215812000588   1030000100030000   541120003104777031200000031MOB BANK               YGN           MMR11006070544160005880607000000000000000   10300014 00104100000000000000000000003460     
100   95030518940719800000000000008448000000008448002000000010410406070557100006489ZOOPB0607215812000648   1030000100030000   541120003008777031200000030MOB BANK               YGN           MMR11006070557100006480607000000000000000   10300002 00104100000000000000000000001690     
100   35710500190909660000000000016200000000016200002000000010410406070607530006501564030607215812000650   1030000100030000   541120003008777031200000030MOB BANK               YGN           MMR11006070607530006500607000000000000000   10300005 00104100000000000000000000003240     
100   35710830005234890000000000006750000000006750002000000010410406070601090003198167010607215812000319   1030000100030000   541120003002777031200000030MOB BANK               YGN           MMR11006070601090003190607000000000000000   10300003 00104100000000000000000000001350     
100   9503051896691330000000000005230000000005230000200000001041040607105510001688LPYPLY0607215817001688   1030000100030000   541120003117777031200000031MOB BANK               YGN           MMR11006071055100016880607000000000000000   10300002 00104100000000000000000000010460     
100   35710500375335670000000000029300000000029300002000000010410406070526150004772455370607215811000477   1030000100030000   541120003005777031200000030MOB BANK               YGN           MMR11006070526150004770607000000000000000   10300005 00104100000000000000000000005860     
100   35710830515799190000000000004700000000004700002000000010410406071036190004789818010607215817000478   1030000100030000   541120003005777031200000030MOB BANK               YGN           MMR11006071036190004780607000000000000000   10300003 00104100000000000000000000000940     
100   9503051021948019000000000000930000000000930000200000001041040607111858000479K6J9FA0607215817000479   1030000100030000   541120003005777031200000030MOB BANK               YGN           MMR11006071118580004790607000000000000000   10300002 00104100000000000000000000001860     
100   9503051886882873000000000001760000000001760000200000001041040607063326000901VXTNQ70607215813000901   1030000100030000   581210001501777031200000015MOB BANK               YGN           MMR11006070633260009010607000000000000000   10300002 00104100000000000000000000005984     
100   9503051896520786000000000014892000000014892000200000001041040607083156001689GKIF8I0607215815001689   1030000100030000   541160000001777031200000006MOB BANK               YGN           MMR11006070831560016890607000000000000000   10300002 00104100000000000000000000029784     
100   95031100010954700000000000125130000000125130002000000010410406071140380016918362450607215818001691   1030000100030000   541160000001777031200000006MOB BANK               YGN           MMR11006071140380016910607000000000000000   10300006 00104100000000000000000000025026     
100   9503051889609166000000000000850000000000850000200000001041040607063046000590CMY1470607215813000590   1030000100030000   541120003104777031200000031MOB BANK               YGN           MMR11006070630460005900607000000000000000   10300002 00104100000000000000000000001700     
100   35710830102013320000000000026700000000026700002000000010410406070651140006528467520607215813000652   1030000100030000   541120003008777031200000030MOB BANK               YGN           MMR11006070651140006520607000000000000000   10300003 00104100000000000000000000005340     
100   62921400052212780000000000007840000000007840002000000010410406071205480016922222220607215818001692   1030000100030000   541120003117777031200000031MOB BANK               YGN           MMR11006071205480016920607000000000000000   10300009 00104100000000000000000000001568     
100   9503051896402787000000000004180000000004180000200000001041040607062637000320NJYC110607215812000320   1030000100030000   541120003002777031200000030MOB BANK               YGN           MMR11006070626370003200607000000000000000   10300002 00104100000000000000000000008360     
100   35710500375335670000000000009200000000009200002000000010410406070505350003469177980607215811000346   1030000100030000   541120003013777031200000030MOB BANK               YGN           MMR11006070505350003460607000000000000000   10300005 00104100000000000000000000001840     
100   9503051892765088000000000001195000000001195000200000001041040607115541000388LJ5CAG0607215818000388   1030000100030000   541120003001777031200000030MOB BANK               YGN           MMR11006071155410003880607000000000000000   10300002 00104100000000000000000000002390     
100   9503051892271830000000000000810000000000810000200000001041040607113112000480TIJOHQ0607215818000480   1030000100030000   541120003005777031200000030MOB BANK               YGN           MMR11006071131120004800607000000000000000   10300002 00104100000000000000000000001620     
100   35710830102013320000000000019837000000019837002000000010410406070701270005158528900607215813000515   1030000100030000   541120003003777031200000030MOB BANK               YGN           MMR11006070701270005150607000000000000000   10300003 00104100000000000000000000003968     
100   9503051019829452000000000001750000000001750000200000001041040607062544000501CG3SQO0607215812000501   1030000100030000   541120003111777031200000031MOB BANK               YGN           MMR11006070625440005010607000000000000000   10300002 00104100000000000000000000003500     
100   9503051025073442000000000001850000000001850000200000001041040607062839000502BFU1Q20607215812000502   1030000100030000   541120003111777031200000031MOB BANK               YGN           MMR11006070628390005020607000000000000000   10300002 00104100000000000000000000003700     
100   35710500305613000000000000004100000000004100002000000010410406070715230005922672650607215813000592   1030000100030000   541120003104777031200000031MOB BANK               YGN           MMR11006070715230005920607000000000000000   10300005 00104100000000000000000000000820     
100   35710830516874560000000000014602000000014602002000000010410406070924460006559388720607215815000655   1030000100030000   541120003008777031200000030MOB BANK               YGN           MMR11006070924460006550607000000000000000   10300003 00104100000000000000000000002920     
100   35710830071246790000000000012600000000012600002000000010410406070841000005949126200607215815000594   1030000100030000   541120003104777031200000031MOB BANK               YGN           MMR11006070841000005940607000000000000000   10300003 00104100000000000000000000002520     
100   35710500186339720000000000025100000000025100002000000010410406071242420016992941210607215819001699   1030000100030000   541120003117777031200000031MOB BANK               YGN           MMR11006071242420016990607000000000000000   10300005 00104100000000000000000000005020     
100   35710830944865770000000000010100000000010100002000000010410406070731250005178708620607215814000517   1030000100030000   541120003003777031200000030MOB BANK               YGN           MMR11006070731250005170607000000000000000   10300003 00104100000000000000000000002020     
100   9503051872405630000000000001170000000001170000200000001041040607040007001671QHCPY00607215810001671   1030000100030000   541120003117777031200000031MOB BANK               YGN           MMR11006070400070016710607000000000000000   10300002 00104100000000000000000000002340     
100   9503051889150849000000000002700000000002700000200000001041040607063059000503TUANIQ0607215813000503   1030000100030000   541120003111777031200000031MOB BANK               YGN           MMR11006070630590005030607000000000000000   10300002 00104100000000000000000000005400     
100   95030510219480190000000000011300000000011300002000000010410406071104480006575MJIWW0607215817000657   1030000100030000   541120003008777031200000030MOB BANK               YGN           MMR11006071104480006570607000000000000000   10300002 00104100000000000000000000002260     
