100      62109468880530000000000000100000000000600002017780010484006010728540000073691770601215213000007   00220001   35150104701100000003777031200000001MOB POS MERCHANT       YGN           MMR11006010728540000070601000000000000000   00010344F00104100000000000000000000001200     
100      62109468880530000000000000100000000000600002017780010484006020333360000093698570602215310000009   00220001   35150104701100000003777031200000001MOB POS MERCHANT       YGN           MMR11006020333360000090602000000000000000   00010344F00104100000000000000000000001200     
100      62109468880530000000000005000000000028200002017780010484006020337560000103698660602215310000010   00220001   35150104701100000003777031200000001MOB POS MERCHANT       YGN           MMR11006020337560000100602000000000000000   00010344F00104100000000000000000000056400     
100      62109468880530000000000010000000000056400002017780010484006020339500000113698720602215310000011   00220001   35150104701100000003777031200000001MOB POS MERCHANT       YGN           MMR11006020339500000110602000000000000000   00010344F00104100000000000000000000112800     
100   62509420000123410000000000012000000000067700002017780010484006020341450000123698750602215310000012   00220001   35150104701100000003777031200000001MOB POS MERCHANT       YGN           MMR11006020341450000120602000000000000000   00010344F00104100000000000000000000160787     
100   621094588803000300000000000100000000000564000020177800104840060203484900001400014U0602215310000014   00220001   35150104701100000003777031200000001MOB POS MERCHANT       YGN           MMR11006020348490000140602000000000000000   00010344F00104100000000000000000000112800     
100   81639999398700680000000000013000000000073300002017780010484006020357340000163698890602215310000016   00220001   35150104701100000003777031200000001MOB POS MERCHANT       YGN           MMR11006020357340000160602000000000000000   00010344F00104100000000000000000000144767     
100      62109468880530000000000030000000000169200002017780010484006020359100000173698900602215310000017   00220001   35150104701100000003777031200000001MOB POS MERCHANT       YGN           MMR11006020359100000170602000000000000000   00010344F00104100000000000000000000338400     
100   62109458881200020000000000022000000000124100002017780010484006020404580000193698920602215310000019   00220001   35150104701100000003777031200000001MOB POS MERCHANT       YGN           MMR11006020404580000190602000000000000000   00010344F00104100000000000000000000245097     
100   621094588803000300000000000550000000003103000020177800104840060204055900002000020U0602215310000020   00220001   35150104701100000003777031200000001MOB POS MERCHANT       YGN           MMR11006020405590000200602000000000000000   00010344F00104100000000000000000000620600     
10062109468880700000090000000000016000000000090300002017780010484006020410040000213698950602215310000021   00220001   35150104701100000003777031200000001MOB POS MERCHANT       YGN           MMR11006020410040000210602000000000000000   00010344F00104100000000000000000000180600     
100   81639999398700680000000000022000000000124100002017780010484006020411240000223698960602215310000022   00220001   35150104701100000003777031200000001MOB POS MERCHANT       YGN           MMR11006020411240000220602000000000000000   00010344F00104100000000000000000000245097     
100   81719999000000180000000000020000000000112800002017780010484006020403250000183698910602215310000018   00220001   35150104701100000003777031200000001MOB POS MERCHANT       YGN           MMR11006020403250000180602000000000000000   00010344F00104100000000000000000000276360     
