100   9503051023924919000000000004670000000004670000200000001041040608110619000211NNYYHH0608215917000211   1030000100030000   541120003115777031200000031MOB BANK               YGN           MMR11006081106190002110608000000000000000   10300002 00104100000000000000000000009340     
100   35710830586732440000000000021300000000021300002000000010410406081119090003338715100608215917000333   1030000100030000   541120003002777031200000030MOB BANK               YGN           MMR11006081119090003330608000000000000000   10300003 00104100000000000000000000004260     
100   62346600105350900000000000008400000000008400002000000010410406080424560004833003390608215910000483   1030000100030000   541120003005777031200000030MOB BANK               YGN           MMR11006080424560004830608000000000000000   10300005 00104100000000000000000000001680     
100   9503051025328556000000000003320000000003320000200000001041040608063842000193BYBCFS0608215913000193   1030000100030000   541120003115777031200000031MOB BANK               YGN           MMR11006080638420001930608000000000000000   10300002 00104100000000000000000000006640     
100   9503051886790449000000000002254000000002254000200000001041040608075116000351O7YSYN0608215914000351   1030000100030000   541120003013777031200000030MOB BANK               YGN           MMR11006080751160003510608000000000000000   10300002 00104100000000000000000000004508     
100   9503051024816619000000000000434700000000434700200000001041040608104547000534DNVIUF0608215917000534   1030000100030000   541120003003777031200000030MOB BANK               YGN           MMR11006081045470005340608000000000000000   10300002 00104100000000000000000000000870     
100   95030790000216230000000000006650000000006650002000000010410406081050200003905726840608215917000390   1030000100030000   541120003001777031200000030MOB BANK               YGN           MMR11006081050200003900608000000000000000   10200004 00104100000000000000000000001330     
100   62622000796837650000000000001700000000001700002000000010410406080504430004848650240608215911000484   1030000100030000   541120003005777031200000030MOB BANK               YGN           MMR11006080504430004840608000000000000000   10300006 00104100000000000000000000000340     
100   62346600132130910000000000030500000000030500002000000010410406081114470002124436650608215917000212   1030000100030000   541120003115777031200000031MOB BANK               YGN           MMR11006081114470002120608000000000000000   10300005 00104100000000000000000000006100     
100   9503051894036397000000000005030000000005030000200000001041040608072505000485A5HJ7A0608215913000485   1030000100030000   541120003005777031200000030MOB BANK               YGN           MMR11006080725050004850608000000000000000   10300002 00104100000000000000000000010060     
100   9503051887563241000000000003501000000003501000200000001041040607053457001525ISLW0E0607215812001525   1030000100030000   581250000001777031200000005MOB BANK               YGN           MMR11006070534570015250607000000000000000   10300002 00104100000000000000000000011904     
100   95031900063091340000000000008195000000008195002000000010410406070825550015268C8SM50607215814001526   1030000100030000   581250000001777031200000005MOB BANK               YGN           MMR11006070825550015260607000000000000000   10300014 00104100000000000000000000002786     
100   9503051890068899000000000001260000000001260000200000001041040608115642001732N9MLXT0608215918001732   1030000100030000   541120003117777031200000031MOB BANK               YGN           MMR11006081156420017320608000000000000000   10300002 00104100000000000000000000002520     
100   9503190001300930000000000002445000000002445000200000001041040608070419000663X9AUO00608215913000663   1030000100030000   541120003008777031200000030MOB BANK               YGN           MMR11006080704190006630608000000000000000   10300014 00104100000000000000000000004890     
100   9503051025215209000000000014300000000014300000200000001041040608103841000664JWVPFE0608215917000664   1030000100030000   581210001201777031200000012MOB BANK               YGN           MMR11006081038410006640608000000000000000   10300002 00104100000000000000000000048620     
100   35710500353745500000000000011500000000011500002000000010410406080423250007317535360608215910000731   1030000100030000   541120003103777031200000031MOB BANK               YGN           MMR11006080423250007310608000000000000000   10300005 00104100000000000000000000002300     
100   35710500325420760000000000026000000000026000002000000010410406080745210006655769970608215914000665   1030000100030000   541120003008777031200000030MOB BANK               YGN           MMR11006080745210006650608000000000000000   10300005 00104100000000000000000000005200     
100   9503051019911235000000000001360000000001360000200000001041040608045341000734PDZZKB0608215911000734   1030000100030000   541120003103777031200000031MOB BANK               YGN           MMR11006080453410007340608000000000000000   10300002 00104100000000000000000000002720     
100   35710830608249910000000000051200000000051200002000000010410406080528290007366611110608215911000736   1030000100030000   541120003103777031200000031MOB BANK               YGN           MMR11006080528290007360608000000000000000   10300003 00104100000000000000000000010240     
100   35710500324416670000000000041400000000041400002000000010410406080332100016956714330608215910001695   1030000100030000   541160000001777031200000006MOB BANK               YGN           MMR11006080332100016950608000000000000000   10300005 00104100000000000000000000008280     
100   35710500103633700000000000016100000000016100002000000010410406080948390006013058320608215916000601   1030000100030000   541120003104777031200000031MOB BANK               YGN           MMR11006080948390006010608000000000000000   10300005 00104100000000000000000000003220     
100   35710500370883560000000000007800000000007800002000000010410406080805180006677145300608215914000667   1030000100030000   541120003008777031200000030MOB BANK               YGN           MMR11006080805180006670608000000000000000   10300005 00104100000000000000000000001560     
100   9503051892825643000000000002580000000002580000200000001041040608092533000740VDPNCS0608215915000740   1030000100030000   541120003103777031200000031MOB BANK               YGN           MMR11006080925330007400608000000000000000   10300002 00104100000000000000000000005160     
100   9503051872477837000000000003720000000003720000200000001041040608092057001697TK7EGN0608215915001697   1030000100030000   541160000001777031200000006MOB BANK               YGN           MMR11006080920570016970608000000000000000   10300002 00104100000000000000000000007440     
100   95030518724778370000000000096000000000096000002000000010410406080936180017004E7S7W0608215916001700   1030000100030000   541160000001777031200000006MOB BANK               YGN           MMR11006080936180017000608000000000000000   10300002 00104100000000000000000000019200     
100   35710830084993100000000000014400000000014400002000000010410406080423130015296219510608215910001529   1030000100030000   581250000001777031200000005MOB BANK               YGN           MMR11006080423130015290608000000000000000   10300003 00104100000000000000000000004896     
100   9503051023924919000000000001550000000001550000200000001041040608104602001719F9NZC30608215917001719   1030000100030000   541120003117777031200000031MOB BANK               YGN           MMR11006081046020017190608000000000000000   10300002 00104100000000000000000000003100     
100   9503051024843365000000000001990000000001990000200000001041040608114929001726H31IR20608215918001726   1030000100030000   541120003117777031200000031MOB BANK               YGN           MMR11006081149290017260608000000000000000   10300002 00104100000000000000000000003980     
100   35710500375928520000000000148000000000148000002000000010410406080812360006639593590608215914000663   1030000100030000   581210001201777031200000012MOB BANK               YGN           MMR11006080812360006630608000000000000000   10300005 00104100000000000000000000050320     
100   35710500335346190000000000055755000000055755002000000010410406080657200015302575540608215913001530   1030000100030000   581250000001777031200000005MOB BANK               YGN           MMR11006080657200015300608000000000000000   10300005 00104100000000000000000000018957     
100   35710830863160550000000000023950000000023950002000000010410406070952400015279556210607215816001527   1030000100030000   581250000001777031200000005MOB BANK               YGN           MMR11006070952400015270607000000000000000   10300003 00104100000000000000000000008143     
100   9503051894907480000000000001479500000001479500200000001041040607121048001528F9EQNB0607215818001528   1030000100030000   581250000001777031200000005MOB BANK               YGN           MMR11006071210480015280607000000000000000   10300002 00104100000000000000000000005030     
100   9503051024816619000000000000480200000000480200200000001041040608104943000536SEIZXP0608215917000536   1030000100030000   541120003003777031200000030MOB BANK               YGN           MMR11006081049430005360608000000000000000   10300002 00104100000000000000000000000960     
100   9503051884031978000000000000810000000000810000200000001041040608092622000203NBLZHO0608215915000203   1030000100030000   541120003115777031200000031MOB BANK               YGN           MMR11006080926220002030608000000000000000   10300002 00104100000000000000000000001620     
100   35710500153547620000000000031000000000031000002000000010410406080345200001823395570608215910000182   1030000100030000   541120003115777031200000031MOB BANK               YGN           MMR11006080345200001820608000000000000000   10300005 00104100000000000000000000006200     
100   35710900665291100000000000069100000000069100002000000010410406080640550001957045700608215913000195   1030000100030000   541120003115777031200000031MOB BANK               YGN           MMR11006080640550001950608000000000000000   10300003 00104100000000000000000000013820     
100   9503051894521703000000000001470000000001470000200000001041040608060910000190DAJ8KL0608215912000190   1030000100030000   541120003115777031200000031MOB BANK               YGN           MMR11006080609100001900608000000000000000   10300002 00104100000000000000000000002940     
100   62622000311941580000000000012700000000012700002000000010410406080501470005288490000608215911000528   1030000100030000   541120003003777031200000030MOB BANK               YGN           MMR11006080501470005280608000000000000000   10300006 00104100000000000000000000002540     
100   9503051893539979000000000003580000000003580000200000001041040608080542000486ZGKO2J0608215914000486   1030000100030000   541120003005777031200000030MOB BANK               YGN           MMR11006080805420004860608000000000000000   10300002 00104100000000000000000000007160     
100   35710500345779480000000000023000000000023000002000000010410406081258580002225233040608215919000222   1030000100030000   541120003115777031200000031MOB BANK               YGN           MMR11006081258580002220608000000000000000   10300005 00104100000000000000000000004600     
100   35710830188540900000000000018500000000018500002000000010410406080738000001977388110608215914000197   1030000100030000   541120003115777031200000031MOB BANK               YGN           MMR11006080738000001970608000000000000000   10300003 00104100000000000000000000003700     
100   62921400064224610000000000043530000000043530002000000010410406080811050004872222220608215914000487   1030000100030000   541120003005777031200000030MOB BANK               YGN           MMR11006080811050004870608000000000000000   10300009 00104100000000000000000000008706     
100   95031900063882520000000000033200000000033200002000000010410406081149380002142FPVBS0608215918000214   1030000100030000   541120003115777031200000031MOB BANK               YGN           MMR11006081149380002140608000000000000000   10300014 00104100000000000000000000006640     
100   35710830100406310000000000043200000000043200002000000010410406080647590005307088020608215913000530   1030000100030000   541120003003777031200000030MOB BANK               YGN           MMR11006080647590005300608000000000000000   10300003 00104100000000000000000000008640     
100   35710950324423480000000000009850000000009850002000000010410406081015120004888331410608215916000488   1030000100030000   541120003005777031200000030MOB BANK               YGN           MMR11006081015120004880608000000000000000   10300003 00104100000000000000000000001970     
100   95031900063882520000000000054000000000054000002000000010410406081154190002157WCZ120608215918000215   1030000100030000   541120003115777031200000031MOB BANK               YGN           MMR11006081154190002150608000000000000000   10300014 00104100000000000000000000010800     
100   35710500154378490000000000085500000000085500002000000010410406081310560002285098500608215919000228   1030000100030000   541120003115777031200000031MOB BANK               YGN           MMR11006081310560002280608000000000000000   10300005 00104100000000000000000000017100     
100   35710500153547620000000000018500000000018500002000000010410406080334410005101125550608215910000510   1030000100030000   541120003111777031200000031MOB BANK               YGN           MMR11006080334410005100608000000000000000   10300005 00104100000000000000000000003700     
100   9503051025982287000000000001470000000001470000200000001041040608071151000350ZH2GRH0608215913000350   1030000100030000   541120003013777031200000030MOB BANK               YGN           MMR11006080711510003500608000000000000000   10300002 00104100000000000000000000002940     
100   62921400064224610000000000030000000000030000002000000010410406080757110003292222220608215914000329   1030000100030000   541120003002777031200000030MOB BANK               YGN           MMR11006080757110003290608000000000000000   10300009 00104100000000000000000000006000     
100   35710830100406310000000000007800000000007800002000000010410406080649490005327099100608215913000532   1030000100030000   541120003003777031200000030MOB BANK               YGN           MMR11006080649490005320608000000000000000   10300003 00104100000000000000000000001560     
100   35710500370883560000000000011800000000011800002000000010410406080814180002943785180608215914000294   1030000100030000   541120003012777031200000030MOB BANK               YGN           MMR11006080814180002940608000000000000000   10300005 00104100000000000000000000002360     
100   9503051026235255000000000001200000000001200000200000001041040608070437000327CETSZI0608215913000327   1030000100030000   541120003002777031200000030MOB BANK               YGN           MMR11006080704370003270608000000000000000   10300002 00104100000000000000000000002400     
100   9503051887191076000000000000529200000000529200200000001041040608120336000490GPD3TC0608215918000490   1030000100030000   541120003005777031200000030MOB BANK               YGN           MMR11006081203360004900608000000000000000   10300002 00104100000000000000000000001058     
100   35710500124181150000000000007950000000007950002000000010410406080413410002919401760608215910000291   1030000100030000   541120003012777031200000030MOB BANK               YGN           MMR11006080413410002910608000000000000000   10300005 00104100000000000000000000001590     
100   62443000860115140000000000010500000000010500002000000010410406080901290002010645130608215915000201   1030000100030000   541120003115777031200000031MOB BANK               YGN           MMR11006080901290002010608000000000000000   10300005 00104100000000000000000000003675     
