100   9503051024746162000000000004380000000004380000200000001041040609072504000748LSE4SH0609216013000748   1030000100030000   541120003103777031200000031MOB BANK               YGN           MMR11006090725040007480609000000000000000   10300002 00104100000000000000000000008760     
100   35710830237622210000000000028800000000028800002000000010410406090909340007506577610609216015000750   1030000100030000   541120003103777031200000031MOB BANK               YGN           MMR11006090909340007500609000000000000000   10300003 00104100000000000000000000005760     
100   35710830237622210000000000021000000000021000002000000010410406090859450005206518710609216015000520   1030000100030000   541120003111777031200000031MOB BANK               YGN           MMR11006090859450005200609000000000000000   10300003 00104100000000000000000000004200     
100   9503051025411543000000000002510000000002510000200000001041040609121250000500TSQ8X30609216018000500   1030000100030000   541120003005777031200000030MOB BANK               YGN           MMR11006091212500005000609000000000000000   10300002 00104100000000000000000000005020     
100   95030510219478210000000000017199000000017199002000000010410406091215360005022QZWEW0609216018000502   1030000100030000   541120003005777031200000030MOB BANK               YGN           MMR11006091215360005020609000000000000000   10300002 00104100000000000000000000003440     
100   35710500353253880000000000019040000000019040002000000010410406090915120013553982060609216015001355   1030000100030000   541110001920777031200000019MOB BANK               YGN           MMR11006090915120013550609000000000000000   10300005 00104100000000000000000000003808     
100   35710830747137840000000000022000000000022000002000000010410406090909360006046577800609216015000604   1030000100030000   541120003104777031200000031MOB BANK               YGN           MMR11006090909360006040609000000000000000   10300003 00104100000000000000000000004400     
100   9503051887191076000000000000303800000000303800200000001041040609112646000496BDKQC30609216017000496   1030000100030000   541120003005777031200000030MOB BANK               YGN           MMR11006091126460004960609000000000000000   10300002 00104100000000000000000000000608     
100   35710830234002100000000000007200000000007200002000000010410406090316310005154459210609216009000515   1030000100030000   541120003111777031200000031MOB BANK               YGN           MMR11006090316310005150609000000000000000   10300003 00104100000000000000000000001440     
100   62622000307755440000000000026400000000026400002000000010410406091206360013589456930609216018001358   1030000100030000   541110001920777031200000019MOB BANK               YGN           MMR11006091206360013580609000000000000000   10300006 00104100000000000000000000005280     
100   62346600137690430000000000024000000000024000002000000010410406090709310016073403870609216013001607   1030000100030000   541110001903777031200000019MOB BANK               YGN           MMR11006090709310016070609000000000000000   10300005 00104100000000000000000000004800     
100   35710830336336020000000000111800000000111800002000000010410406091024140016167025510609216016001616   1030000100030000   541110001903777031200000019MOB BANK               YGN           MMR11006091024140016160609000000000000000   10300003 00104100000000000000000000022360     
100   35650973690006890000000000011000000000011000002000000010410406090644480015337269860609216013001533   1030000100030000   581250000001777031200000005MOB BANK               YGN           MMR11006090644480015330609000000000000000   10300005 00104100000000000000000000006545     
100   9503051887563241000000000001589500000001589500200000001041040609081931001535YN99GU0609216014001535   1030000100030000   581250000001777031200000005MOB BANK               YGN           MMR11006090819310015350609000000000000000   10300002 00104100000000000000000000005404     
100   95030540005538750000000000039550000000039550002000000010410406090637030017403RQU640609216013001740   1030000100030000   541120003117777031200000031MOB BANK               YGN           MMR11006090637030017400609000000000000000   10300002 00104100000000000000000000007910     
100   9503051026024147000000000000750000000000750000200000001041040609074757001743SMYCMQ0609216014001743   1030000100030000   541120003117777031200000031MOB BANK               YGN           MMR11006090747570017430609000000000000000   10300002 00104100000000000000000000001500     
100   35710830240040110000000000009300000000009300002000000010410406090857320017466505410609216015001746   1030000100030000   541120003117777031200000031MOB BANK               YGN           MMR11006090857320017460609000000000000000   10300003 00104100000000000000000000001860     
100   35710830809589100000000000006000000000006000002000000010410406091012190017546954120609216016001754   1030000100030000   541120003117777031200000031MOB BANK               YGN           MMR11006091012190017540609000000000000000   10300003 00104100000000000000000000001200     
100   62346600137690430000000000040656000000040656002000000010410406090629370029837914980609216012002983   1030000100030000   541110001907777031200000019MOB BANK               YGN           MMR11006090629370029830609000000000000000   10300005 00104100000000000000000000008131     
100   9503051024308526000000000001475000000001475000200000001041040609071102002986ERCROB0609216013002986   1030000100030000   541110001907777031200000019MOB BANK               YGN           MMR11006090711020029860609000000000000000   10300002 00104100000000000000000000002950     
100   35710830297540080000000000013145000000013145002000000010410406091139410015377478210609216018001537   1030000100030000   581250000001777031200000005MOB BANK               YGN           MMR11006091139410015370609000000000000000   10300003 00104100000000000000000000004469     
100   35710830281944040000000000064500000000064500002000000010410406090402590024284738110609216010002428   1030000100030000   541110001905777031200000019MOB BANK               YGN           MMR11006090402590024280609000000000000000   10300003 00104100000000000000000000012900     
100   9503051024378545000000000000994700000000994700200000001041040609040903002434Y8XM2U0609216010002434   1030000100030000   541110001905777031200000019MOB BANK               YGN           MMR11006090409030024340609000000000000000   10300002 00104100000000000000000000001990     
100   9503051024750966000000000001840000000001840000200000001041040609110748002998NMUYKQ0609216017002998   1030000100030000   541110001907777031200000019MOB BANK               YGN           MMR11006091107480029980609000000000000000   10300002 00104100000000000000000000003680     
100   9503051019938766000000000000570000000000570000200000001041040609112447001757LXD7GB0609216017001757   1030000100030000   541120003117777031200000031MOB BANK               YGN           MMR11006091124470017570609000000000000000   10300002 00104100000000000000000000001140     
100   35710830557844400000000000028200000000028200002000000010410406090736230029906018420609216014002990   1030000100030000   541110001907777031200000019MOB BANK               YGN           MMR11006090736230029900609000000000000000   10300003 00104100000000000000000000005640     
100   35710500311399730000000000008000000000008000002000000010410406090642200017104426020609216013001710   1030000100030000   541120003106777031200000031MOB BANK               YGN           MMR11006090642200017100609000000000000000   10300005 00104100000000000000000000001600     
100   9503051024308526000000000002400000000002400000200000001041040609073517001609QGWY4A0609216014001609   1030000100030000   541110001903777031200000019MOB BANK               YGN           MMR11006090735170016090609000000000000000   10300002 00104100000000000000000000004800     
100   35710830159906570000000000035900000000035900002000000010410406090919020016126634410609216015001612   1030000100030000   541110001903777031200000019MOB BANK               YGN           MMR11006090919020016120609000000000000000   10300003 00104100000000000000000000007180     
100   62346600112840030000000000033800000000033800002000000010410406091020170016149382710609216016001614   1030000100030000   541110001903777031200000019MOB BANK               YGN           MMR11006091020170016140609000000000000000   10300005 00104100000000000000000000006760     
100   950305102508868900000000000079500000000079500020000000104104060907471500135200UNQH0609216014001352   1030000100030000   541110001920777031200000019MOB BANK               YGN           MMR11006090747150013520609000000000000000   10300002 00104100000000000000000000001590     
100   35710830559270800000000000122700000000122700002000000010410406091330160006668141810609216020000666   1030000100030000   581210001201777031200000012MOB BANK               YGN           MMR11006091330160006660609000000000000000   10300003 00104100000000000000000000041718     
100   9503051024152502000000000002450000000002450000200000001041040609085311002439ZNQHHU0609216015002439   1030000100030000   541110001905777031200000019MOB BANK               YGN           MMR11006090853110024390609000000000000000   10300002 00104100000000000000000000004900     
100   9503051873502385000000000001920000000001920000200000001041040609085556002441PWTFIR0609216015002441   1030000100030000   541110001905777031200000019MOB BANK               YGN           MMR11006090855560024410609000000000000000   10300002 00104100000000000000000000003840     
100   35710830957890860000000000004800000000004800002000000010410406090438050029794948700609216011002979   1030000100030000   541110001907777031200000019MOB BANK               YGN           MMR11006090438050029790609000000000000000   10300003 00104100000000000000000000000960     
100   35710830682591330000000000044600000000044600002000000010410406091241030016227846410609216019001622   1030000100030000   541110001903777031200000019MOB BANK               YGN           MMR11006091241030016220609000000000000000   10300003 00104100000000000000000000008920     
100   9503051872818816000000000000250000000000250000200000001041040609033031001737ZD0YI00609216010001737   1030000100030000   541120003117777031200000031MOB BANK               YGN           MMR11006090330310017370609000000000000000   10300002 00104100000000000000000000000500     
100   35710830809589100000000000026700000000026700002000000010410406091004500017516909210609216016001751   1030000100030000   541120003117777031200000031MOB BANK               YGN           MMR11006091004500017510609000000000000000   10300003 00104100000000000000000000005340     
100   35710830281944040000000000036800000000036800002000000010410406090334450029754568610609216010002975   1030000100030000   541110001907777031200000019MOB BANK               YGN           MMR11006090334450029750609000000000000000   10300003 00104100000000000000000000007360     
100   35710500154750960000000000010000000000010000002000000010410406090723000015343154300609216013001534   1030000100030000   581250000001777031200000005MOB BANK               YGN           MMR11006090723000015340609000000000000000   10300005 00104100000000000000000000003400     
100   9503051890501964000000000000880000000000880000200000001041040609101813001536LXH1SX0609216016001536   1030000100030000   581250000001777031200000005MOB BANK               YGN           MMR11006091018130015360609000000000000000   10300002 00104100000000000000000000002992     
100   9503051886882873000000000004565000000004565000200000001041040609064706000909QYYAP10609216013000909   1030000100030000   581210001501777031200000015MOB BANK               YGN           MMR11006090647060009090609000000000000000   10300002 00104100000000000000000000015521     
100   95030510242034380000000000011300000000011300002000000010410406080454190024053ZUGVO0608215911002405   1030000100030000   541110001905777031200000019MOB BANK               YGN           MMR11006080454190024050608000000000000000   10300002 00104100000000000000000000002260     
100   9503190001371345000000000003875000000003875000200000001041040608031540002377AU6E8F0608215909002377   1030000100030000   541110001905777031200000019MOB BANK               YGN           MMR11006080315400023770608000000000000000   10300014 00104100000000000000000000007750     
100   9503051024315463000000000002100000000002100000200000001041040608045903000148V0LTLD0608215911000148   1030000100030000   541110001904777031200000019MOB BANK               YGN           MMR11006080459030001480608000000000000000   10300002 00104100000000000000000000004200     
100   9503051024203438000000000001820000000001820000200000001041040608050920002409VTS5QU0608215911002409   1030000100030000   541110001905777031200000019MOB BANK               YGN           MMR11006080509200024090608000000000000000   10300002 00104100000000000000000000003640     
100   9503051026264743000000000001630000000001630000200000001041040608044310002964BS4DMD0608215911002964   1030000100030000   541110001907777031200000019MOB BANK               YGN           MMR11006080443100029640608000000000000000   10300002 00104100000000000000000000003260     
100   35710500355168040000000000171200000000171200002000000010410406080515540015954806560608215911001595   1030000100030000   541110001903777031200000019MOB BANK               YGN           MMR11006080515540015950608000000000000000   10300005 00104100000000000000000000034240     
100   9503051887621668000000000003720000000003720000200000001041040608065030002970CFZHCC0608215913002970   1030000100030000   541110001907777031200000019MOB BANK               YGN           MMR11006080650300029700608000000000000000   10300002 00104100000000000000000000007440     
100   9503051025493483000000000003870000000003870000200000001041040608034852002395L9LW0J0608215910002395   1030000100030000   541110001905777031200000019MOB BANK               YGN           MMR11006080348520023950608000000000000000   10300002 00104100000000000000000000007740     
100   35710500188260140000000000025480000000025480002000000010410406080347000029615473540608215910002961   1030000100030000   541110001907777031200000019MOB BANK               YGN           MMR11006080347000029610608000000000000000   10300005 00104100000000000000000000005096     
100   35710500365723920000000000039500000000039500002000000010410406080355500023994026900608215910002399   1030000100030000   541110001905777031200000019MOB BANK               YGN           MMR11006080355500023990608000000000000000   10300005 00104100000000000000000000007900     
100   35710500343667550000000000017500000000017500002000000010410406090817150003557656330609216014000355   1030000100030000   541120003013777031200000030MOB BANK               YGN           MMR11006090817150003550609000000000000000   10300005 00104100000000000000000000003500     
100   95030800089376610000000000030500000000030500002000000010410406090826240003566318610609216014000356   1030000100030000   541120003013777031200000030MOB BANK               YGN           MMR11006090826240003560609000000000000000   10300003 00104100000000000000000000006100     
100   9503051025744919000000000000405000000000405000200000001041040609104606000606DZDRVW0609216017000606   1030000100030000   541120003104777031200000031MOB BANK               YGN           MMR11006091046060006060609000000000000000   10300002 00104100000000000000000000000810     
100   35710830132160710000000000023000000000023000002000000010410406090700580006735805910609216013000673   1030000100030000   541120003008777031200000030MOB BANK               YGN           MMR11006090700580006730609000000000000000   10300003 00104100000000000000000000004600     
100   35710830757829520000000000012800000000012800002000000010410406090712050003405872700609216013000340   1030000100030000   541120003002777031200000030MOB BANK               YGN           MMR11006090712050003400609000000000000000   10300003 00104100000000000000000000002560     
100   35710500343667550000000000010500000000010500002000000010410406090834450003577017150609216015000357   1030000100030000   541120003013777031200000030MOB BANK               YGN           MMR11006090834450003570609000000000000000   10300005 00104100000000000000000000002100     
100   9503051025228756000000000002280000000002280000200000001041040609102507000675QBKBDQ0609216016000675   1030000100030000   541120003008777031200000030MOB BANK               YGN           MMR11006091025070006750609000000000000000   10300002 00104100000000000000000000004560     
100   35710830515799190000000000002000000000002000002000000010410406091101340005427249600609216017000542   1030000100030000   541120003003777031200000030MOB BANK               YGN           MMR11006091101340005420609000000000000000   10300003 00104100000000000000000000000400     
100   35710830132160710000000000026000000000026000002000000010410406090634040001825644610609216013000182   1030000100030000   541120003006777031200000030MOB BANK               YGN           MMR11006090634040001820609000000000000000   10300003 00104100000000000000000000005200     
100   35710830634098400000000000015100000000015100002000000010410406091044560006777149710609216017000677   1030000100030000   541120003008777031200000030MOB BANK               YGN           MMR11006091044560006770609000000000000000   10300003 00104100000000000000000000003020     
100   9503051023463215000000000000490000000000490000200000001041040609045253000516NPGVGD0609216011000516   1030000100030000   541120003111777031200000031MOB BANK               YGN           MMR11006090452530005160609000000000000000   10300002 00104100000000000000000000000980     
100   9503051026235651000000000000500000000000500000200000001041040609083350000517EKSTYW0609216015000517   1030000100030000   541120003111777031200000031MOB BANK               YGN           MMR11006090833500005170609000000000000000   10300002 00104100000000000000000000001000     
100   35710500381135420000000000012000000000012000002000000010410406091139310001843137380609216018000184   1030000100030000   541120003006777031200000030MOB BANK               YGN           MMR11006091139310001840609000000000000000   10300005 00104100000000000000000000002400     
100   9503051026235651000000000001650000000001650000200000001041040609084917000518XH1J1F0609216015000518   1030000100030000   541120003111777031200000031MOB BANK               YGN           MMR11006090849170005180609000000000000000   10300002 00104100000000000000000000003300     
100   9503051024817070000000000001001500000001001500200000001041040609111345000392ILZOPY0609216017000392   1030000100030000   541120003001777031200000030MOB BANK               YGN           MMR11006091113450003920609000000000000000   10300002 00104100000000000000000000002003     
100   9503051020432882000000000000200000000000200000200000001041040609115834000393GWY9W00609216018000393   1030000100030000   541120003001777031200000030MOB BANK               YGN           MMR11006091158340003930609000000000000000   10300002 00104100000000000000000000000400     
100   9503051025668415000000000003300000000003300000200000001041040609113525000679ATNCDK0609216018000679   1030000100030000   541120003008777031200000030MOB BANK               YGN           MMR11006091135250006790609000000000000000   10300002 00104100000000000000000000006600     
100   9503051020432882000000000000675000000000675000200000001041040609115055000498TLYJSG0609216018000498   1030000100030000   541120003005777031200000030MOB BANK               YGN           MMR11006091150550004980609000000000000000   10300002 00104100000000000000000000001350     
100   62622000320384950000000000012600000000012600002000000010410406090931470005399677630609216016000539   1030000100030000   541120003003777031200000030MOB BANK               YGN           MMR11006090931470005390609000000000000000   10300006 00104100000000000000000000002520     
100   62622000569305690000000000023500000000023500002000000010410406091008060005409677710609216016000540   1030000100030000   541120003003777031200000030MOB BANK               YGN           MMR11006091008060005400609000000000000000   10300006 00104100000000000000000000004700     
100   35710830237622210000000000055000000000055000002000000010410406090854560005196489710609216015000519   1030000100030000   541120003111777031200000031MOB BANK               YGN           MMR11006090854560005190609000000000000000   10300003 00104100000000000000000000011000     
100   35710500323884050000000000019000000000019000002000000010410406090526290003367102020609216011000336   1030000100030000   541120003002777031200000030MOB BANK               YGN           MMR11006090526290003360609000000000000000   10300005 00104100000000000000000000003800     
100   9503051025668415000000000004830000000004830000200000001041040609115910000358DWI5ZK0609216018000358   1030000100030000   541120003013777031200000030MOB BANK               YGN           MMR11006091159100003580609000000000000000   10300002 00104100000000000000000000009660     
100   35710830695570220000000000009250000000009250002000000010410406090511410004935150210609216011000493   1030000100030000   541120003005777031200000030MOB BANK               YGN           MMR11006090511410004930609000000000000000   10300003 00104100000000000000000000001850     
100   9503190001300419000000000002038400000002038400200000001041040609121901000504I0O6UA0609216018000504   1030000100030000   541120003005777031200000030MOB BANK               YGN           MMR11006091219010005040609000000000000000   10300014 00104100000000000000000000004077     
100   35710830099380500000000000050000000000050000002000000010410406090648350002475731620609216013000247   1030000100030000   541120000017777031200000002MOB BANK               YGN           MMR11006090648350002470609000000000000000   10300003 00104100000000000000000000010000     
100   9503051888938525000000000001125000000001125000200000001041040609120751000300OHWNKE0609216018000300   1030000100030000   541120003012777031200000030MOB BANK               YGN           MMR11006091207510003000609000000000000000   10300002 00104100000000000000000000002250     
100   35710500323884050000000000012000000000012000002000000010410406090533010003387123890609216012000338   1030000100030000   541120003002777031200000030MOB BANK               YGN           MMR11006090533010003380609000000000000000   10300005 00104100000000000000000000002400     
100   9503190000368060000000000001475000000001475000200000001041040609123617000359NVKDT10609216019000359   1030000100030000   541120003013777031200000030MOB BANK               YGN           MMR11006091236170003590609000000000000000   10300014 00104100000000000000000000002950     
100   35710830425187030000000000031500000000031500002000000010410406090605520007465475410609216012000746   1030000100030000   541120003103777031200000031MOB BANK               YGN           MMR11006090605520007460609000000000000000   10300003 00104100000000000000000000006300     
