100   9503051872526674000000000002780000000002780000200000001041040612061254001470CDXFCQ0612216312001470   1030000100030000   541110001915777031200000019MOB BANK               YGN           MMR11006120612540014700612000000000000000   10300002 00104100000000000000000000005560     
100   95030518871910760000000000012593000000012593002000000010410406120757440005448LUR4I0612216314000544   1030000100030000   541120003005777031200000030MOB BANK               YGN           MMR11006120757440005440612000000000000000   10300002 00104100000000000000000000002519     
100   9503051891976249000000000002880000000002880000200000001041040612053845000773WM0GJ10612216312000773   1030000100030000   541120003103777031200000031MOB BANK               YGN           MMR11006120538450007730612000000000000000   10300002 00104100000000000000000000005760     
100   35710830266071340000000000073600000000073600002000000010410406120353310016870601300612216310001687   1030000100030000   541110001903777031200000019MOB BANK               YGN           MMR11006120353310016870612000000000000000   10300003 00104100000000000000000000014720     
100   62343301017676020000000000025800000000025800002000000010410406120801110017103837420612216314001710   1030000100030000   541110001903777031200000019MOB BANK               YGN           MMR11006120801110017100612000000000000000   10300004 00104100000000000000000000005160     
100   9503051019592472000000000001440000000001440000200000001041040612035528001377ODK9TL0612216310001377   1030000100030000   541110001920777031200000019MOB BANK               YGN           MMR11006120355280013770612000000000000000   10300002 00104100000000000000000000002880     
100   95030510195924720000000000011200000000011200002000000010410406120358340013797OGES90612216310001379   1030000100030000   541110001920777031200000019MOB BANK               YGN           MMR11006120358340013790612000000000000000   10300002 00104100000000000000000000002240     
100   35710830990849710000000000016000000000016000002000000010410406120545510013811275210612216312001381   1030000100030000   541110001920777031200000019MOB BANK               YGN           MMR11006120545510013810612000000000000000   10300003 00104100000000000000000000003200     
100   9503051020164535000000000002200000000002200000200000001041040612060553000299HE4CHM0612216312000299   1030000100030000   541110001917777031200000019MOB BANK               YGN           MMR11006120605530002990612000000000000000   10300002 00104100000000000000000000004400     
100   9503051889680258000000000001700000000001700000200000001041040612072101000361APMNTQ0612216313000361   1030000100030000   541120003002777031200000030MOB BANK               YGN           MMR11006120721010003610612000000000000000   10300002 00104100000000000000000000003400     
100   35710500343835450000000000014700000000014700002000000010410406120353040005250447770612216310000525   1030000100030000   541120003005777031200000030MOB BANK               YGN           MMR11006120353040005250612000000000000000   10300005 00104100000000000000000000002940     
100   35710830554956170000000000027500000000027500002000000010410406121103480007153183010612216317000715   1030000100030000   541120003008777031200000030MOB BANK               YGN           MMR11006121103480007150612000000000000000   10300003 00104100000000000000000000005500     
100   62443000160238110000000000286000000000286000002000000010410406121433270009280715380612216321000928   1030000100030000   581210001501777031200000015MOB BANK               YGN           MMR11006121433270009280612000000000000000   10300005 00104100000000000000000000170170     
100   9503051884744414000000000002580000000002580000200000001041040612041313001689GG4DVF0612216310001689   1030000100030000   541110001903777031200000019MOB BANK               YGN           MMR11006120413130016890612000000000000000   10300002 00104100000000000000000000005160     
100   62441900001218160000000000035900000000035900002000000010410406120546550017629701000612216312001762   1030000100030000   541120003106777031200000031MOB BANK               YGN           MMR11006120546550017620612000000000000000   10300003 00104100000000000000000000012565     
100   9503051023456243000000000001640000000001640000200000001041040612114658001497V9Z2UK0612216318001497   1030000100030000   541110001915777031200000019MOB BANK               YGN           MMR11006121146580014970612000000000000000   10300002 00104100000000000000000000003280     
100   9503051022230714000000000011580000000011580000200000001041040612044007001724D6XSFQ0612216311001724   1030000100030000   541160000001777031200000006MOB BANK               YGN           MMR11006120440070017240612000000000000000   10300002 00104100000000000000000000023160     
100   95030510243316500000000000043500000000043500002000000010410406120916230014841VSJBP0612216315001484   1030000100030000   541110001915777031200000019MOB BANK               YGN           MMR11006120916230014840612000000000000000   10300002 00104100000000000000000000008700     
100   35710500324189470000000000017500000000017500002000000010410406120926510003050453000612216315000305   1030000100030000   541110001917777031200000019MOB BANK               YGN           MMR11006120926510003050612000000000000000   10300005 00104100000000000000000000003500     
100   35710500101665670000000000008000000000008000002000000010410406120510450003161126180612216311000316   1030000100030000   541120003012777031200000030MOB BANK               YGN           MMR11006120510450003160612000000000000000   10300005 00104100000000000000000000001600     
100   9503051887191076000000000001372000000001372000200000001041040612045555000532GESHXN0612216311000532   1030000100030000   541120003005777031200000030MOB BANK               YGN           MMR11006120455550005320612000000000000000   10300002 00104100000000000000000000002744     
100   35710830509799200000000000005500000000005500002000000010410406120828010007762248220612216314000776   1030000100030000   541120003103777031200000031MOB BANK               YGN           MMR11006120828010007760612000000000000000   10300003 00104100000000000000000000001100     
100   9503051888939952000000000004580000000004580000200000001041040612084111000778XO92PL0612216315000778   1030000100030000   541120003103777031200000031MOB BANK               YGN           MMR11006120841110007780612000000000000000   10300002 00104100000000000000000000009160     
100   95030518861134440000000000322800000000322800002000000010410406121144030017274CZKWF0612216318001727   1030000100030000   541160000001777031200000006MOB BANK               YGN           MMR11006121144030017270612000000000000000   10300002 00104100000000000000000000064560     
100   9503051026208724000000000005550000000005550000200000001041040612045332001690JXS5QJ0612216311001690   1030000100030000   541110001903777031200000019MOB BANK               YGN           MMR11006120453320016900612000000000000000   10300002 00104100000000000000000000011100     
100   35711450001682170000000000029800000000029800002000000010410406120504290016924802710612216311001692   1030000100030000   541110001903777031200000019MOB BANK               YGN           MMR11006120504290016920612000000000000000   10200001 00104100000000000000000000005960     
100   35710500303956830000000000032800000000032800002000000010410406120804060017136703270612216314001713   1030000100030000   541110001903777031200000019MOB BANK               YGN           MMR11006120804060017130612000000000000000   10300005 00104100000000000000000000006560     
100   9503051889696627000000000001080000000001080000200000001041040612080058001383VJVRCV0612216314001383   1030000100030000   541110001920777031200000019MOB BANK               YGN           MMR11006120800580013830612000000000000000   10300002 00104100000000000000000000002160     
100   9503051897728552000000000005245000000005245000200000001041040612083229001385BL0RC60612216315001385   1030000100030000   541110001920777031200000019MOB BANK               YGN           MMR11006120832290013850612000000000000000   10300002 00104100000000000000000000010490     
100   9503051872668930000000000005664000000005664000200000001041040612110609000312QGHKDT0612216317000312   1030000100030000   541110001917777031200000019MOB BANK               YGN           MMR11006121106090003120612000000000000000   10300002 00104100000000000000000000011328     
100   62346600123275200000000000013500000000013500002000000010410406121055370003630299950612216317000363   1030000100030000   541120003002777031200000030MOB BANK               YGN           MMR11006121055370003630612000000000000000   10300005 00104100000000000000000000002700     
100   35650713610004190000000000013965000000013965002000000010410406120605320005402981150612216312000540   1030000100030000   541120003005777031200000030MOB BANK               YGN           MMR11006120605320005400612000000000000000   10300005 00104100000000000000000000004888     
100   35711450001682170000000000040800000000040800002000000010410406120507500016937104720612216311001693   1030000100030000   541110001903777031200000019MOB BANK               YGN           MMR11006120507500016930612000000000000000   10200001 00104100000000000000000000008160     
100   35710500324227820000000000008750000000008750002000000010410406120455350014616827630612216311001461   1030000100030000   541110001915777031200000019MOB BANK               YGN           MMR11006120455350014610612000000000000000   10300005 00104100000000000000000000001750     
100   35711450001682170000000000013000000000013000002000000010410406120513170014637107990612216311001463   1030000100030000   541110001915777031200000019MOB BANK               YGN           MMR11006120513170014630612000000000000000   10200001 00104100000000000000000000002600     
100   95030518892212020000000000007400000000007400002000000010410406120959520005478CJNE60612216316000547   1030000100030000   541120003005777031200000030MOB BANK               YGN           MMR11006120959520005470612000000000000000   10300002 00104100000000000000000000001480     
100   9503051023006840000000000000720000000000720000200000001041040612091946000711AYXS5U0612216315000711   1030000100030000   541120003008777031200000030MOB BANK               YGN           MMR11006120919460007110612000000000000000   10300002 00104100000000000000000000001440     
100   9503051019829270000000000003070000000003070000200000001041040612070718000705CJ88WN0612216313000705   1030000100030000   541120003008777031200000030MOB BANK               YGN           MMR11006120707180007050612000000000000000   10300002 00104100000000000000000000006140     
100   9503051020953523000000000006480000000006480000200000001041040612081651001714SEVXWE0612216314001714   1030000100030000   541110001903777031200000019MOB BANK               YGN           MMR11006120816510017140612000000000000000   10300002 00104100000000000000000000012960     
100   62622000258836830000000000084500000000084500002000000010410406120824560002509705080612216314000250   1030000100030000   541120000017777031200000002MOB BANK               YGN           MMR11006120824560002500612000000000000000   10300006 00104100000000000000000000016900     
100   35710830017335250000000000015250000000015250002000000010410406120424360005290787810612216310000529   1030000100030000   541120003005777031200000030MOB BANK               YGN           MMR11006120424360005290612000000000000000   10300003 00104100000000000000000000003050     
100   9503051020533085000000000004400000000004400000200000001041040612100035000780EX1GKJ0612216316000780   1030000100030000   541120003103777031200000031MOB BANK               YGN           MMR11006121000350007800612000000000000000   10300002 00104100000000000000000000008800     
100   35710500395862170000000000038800000000038800002000000010410406120833180017152492670612216315001715   1030000100030000   541110001903777031200000019MOB BANK               YGN           MMR11006120833180017150612000000000000000   10300005 00104100000000000000000000007760     
100   35710830138523960000000000090500000000090500002000000010410406120808480005362132910612216314000536   1030000100030000   541120003111777031200000031MOB BANK               YGN           MMR11006120808480005360612000000000000000   10300003 00104100000000000000000000018100     
100   9503190004780203000000000004310000000004310000200000001041040612043842000699BVLHBT0612216311000699   1030000100030000   541120003008777031200000030MOB BANK               YGN           MMR11006120438420006990612000000000000000   10300014 00104100000000000000000000008620     
100   35710830633530550000000000038800000000038800002000000010410406120600230016951362500612216312001695   1030000100030000   541110001903777031200000019MOB BANK               YGN           MMR11006120600230016950612000000000000000   10300003 00104100000000000000000000007760     
100   62346600124558670000000000028000000000028000002000000010410406120935590017660722080612216316001766   1030000100030000   541120003106777031200000031MOB BANK               YGN           MMR11006120935590017660612000000000000000   10300005 00104100000000000000000000005600     
100   35710500122574890000000000077000000000077000002000000010410406120530540014659505730612216312001465   1030000100030000   541110001915777031200000019MOB BANK               YGN           MMR11006120530540014650612000000000000000   10300005 00104100000000000000000000015400     
100   35710500320005700000000000022500000000022500002000000010410406120723220031496461770612216313003149   1030000100030000   541110001907777031200000019MOB BANK               YGN           MMR11006120723220031490612000000000000000   10300005 00104100000000000000000000004500     
100   9503051025033685000000000001820000000001820000200000001041040612103526002491YNKPKE0612216317002491   1030000100030000   541110001905777031200000019MOB BANK               YGN           MMR11006121035260024910612000000000000000   10300002 00104100000000000000000000003640     
100   35710830576091730000000000003724000000003724002000000010410406120400270024790642810612216310002479   1030000100030000   541110001905777031200000019MOB BANK               YGN           MMR11006120400270024790612000000000000000   10300003 00104100000000000000000000000745     
100   35710830083927960000000000060000000000060000002000000010410406120701210031391728310612216313003139   1030000100030000   541110001907777031200000019MOB BANK               YGN           MMR11006120701210031390612000000000000000   10300003 00104100000000000000000000012000     
100   35710500335708520000000000013475000000013475002000000010410406120336100031111456130612216310003111   1030000100030000   541110001907777031200000019MOB BANK               YGN           MMR11006120336100031110612000000000000000   10300005 00104100000000000000000000002695     
100   35710500324496600000000000016200000000016200002000000010410406120648160018618098100612216313001861   1030000100030000   541120003117777031200000031MOB BANK               YGN           MMR11006120648160018610612000000000000000   10300005 00104100000000000000000000003240     
100   9503051024750073000000000002400000000002400000200000001041040612082623001480UYON770612216314001480   1030000100030000   541110001915777031200000019MOB BANK               YGN           MMR11006120826230014800612000000000000000   10300002 00104100000000000000000000004800     
100   35710500351477820000000000011040000000011040002000000010410406120711190018654886310612216313001865   1030000100030000   541120003117777031200000031MOB BANK               YGN           MMR11006120711190018650612000000000000000   10300005 00104100000000000000000000002208     
100   9503051022844639000000000001120000000001120000200000001041040612105704000549EIAOEY0612216317000549   1030000100030000   541120003005777031200000030MOB BANK               YGN           MMR11006121057040005490612000000000000000   10300002 00104100000000000000000000002240     
100   9503051025548856000000000001580000000001580000200000001041040612065324000569739NVA0612216313000569   1030000100030000   541120003003777031200000030MOB BANK               YGN           MMR11006120653240005690612000000000000000   10300002 00104100000000000000000000003160     
100   35710500354914200000000000015500000000015500002000000010410406121116590006420187280612216317000642   1030000100030000   541120003104777031200000031MOB BANK               YGN           MMR11006121116590006420612000000000000000   10300005 00104100000000000000000000003100     
100   35710830539264800000000000007750000000007750002000000010410406120427400005670806110612216310000567   1030000100030000   541120003003777031200000030MOB BANK               YGN           MMR11006120427400005670612000000000000000   10300003 00104100000000000000000000001550     
100   35710500320583470000000000013700000000013700002000000010410406120940340005451452290612216316000545   1030000100030000   541120003005777031200000030MOB BANK               YGN           MMR11006120940340005450612000000000000000   10300005 00104100000000000000000000002740     
100   9503051024451789000000000001150000000001150000200000001041040612104318000782ZFQLPT0612216317000782   1030000100030000   541120003103777031200000031MOB BANK               YGN           MMR11006121043180007820612000000000000000   10300002 00104100000000000000000000002300     
100   35710830525532280000000000002300000000002300002000000010410406120804080007072104920612216314000707   1030000100030000   541120003008777031200000030MOB BANK               YGN           MMR11006120804080007070612000000000000000   10300003 00104100000000000000000000000460     
100   9503051889587370000000000005900000000005900000200000001041040612085809001717I3PTHI0612216315001717   1030000100030000   541110001903777031200000019MOB BANK               YGN           MMR11006120858090017170612000000000000000   10300002 00104100000000000000000000011800     
100   9503051897478182000000000001350000000001350000200000001041040612074956001869FAZSXP0612216314001869   1030000100030000   541120003117777031200000031MOB BANK               YGN           MMR11006120749560018690612000000000000000   10300002 00104100000000000000000000002700     
100   9503051023540087000000000000780000000000780000200000001041040612101325003166YIPGZH0612216316003166   1030000100030000   541110001907777031200000019MOB BANK               YGN           MMR11006121013250031660612000000000000000   10300002 00104100000000000000000000001560     
100   9503051890621291000000000000650000000000650000200000001041040612101438003168UD1Y7R0612216316003168   1030000100030000   541110001907777031200000019MOB BANK               YGN           MMR11006121014380031680612000000000000000   10300002 00104100000000000000000000001300     
100   9503051023456243000000000001360000000001360000200000001041040612124142003171M9ZNHK0612216319003171   1030000100030000   541110001907777031200000019MOB BANK               YGN           MMR11006121241420031710612000000000000000   10300002 00104100000000000000000000002720     
100   9503051025012051000000000005762400000005762400200000001041040612070950003142BLAKPF0612216313003142   1030000100030000   541110001907777031200000019MOB BANK               YGN           MMR11006120709500031420612000000000000000   10300002 00104100000000000000000000011525     
100   35710500335708520000000000005096000000005096002000000010410406120341570031130631750612216310003113   1030000100030000   541110001907777031200000019MOB BANK               YGN           MMR11006120341570031130612000000000000000   10300005 00104100000000000000000000001019     
100   9503051895874986000000000026680000000026680000200000001041040612112633002493YYOVBS0612216317002493   1030000100030000   541110001905777031200000019MOB BANK               YGN           MMR11006121126330024930612000000000000000   10300002 00104100000000000000000000053360     
100   9503051891995694000000000003355000000003355000200000001041040612062933001858VP80PG0612216312001858   1030000100030000   541120003117777031200000031MOB BANK               YGN           MMR11006120629330018580612000000000000000   10300002 00104100000000000000000000006710     
100   35710830856024220000000000017664000000017664002000000010410406121013170014882879820612216316001488   1030000100030000   541110001915777031200000019MOB BANK               YGN           MMR11006121013170014880612000000000000000   10300003 00104100000000000000000000003533     
100   35710500315852330000000000120000000000120000002000000010410406120652530001048232640612216313000104   1030000100030000   541120002101777031200000021MOB BANK               YGN           MMR11006120652530001040612000000000000000   10300005 00104100000000000000000000024000     
100   35710500101665670000000000031200000000031200002000000010410406120501200003751565450612216311000375   1030000100030000   541120003013777031200000030MOB BANK               YGN           MMR11006120501200003750612000000000000000   10300005 00104100000000000000000000006240     
100   35710500343786100000000000026050000000026050002000000010410406120739550003762248320612216314000376   1030000100030000   541120003013777031200000030MOB BANK               YGN           MMR11006120739550003760612000000000000000   10300005 00104100000000000000000000005210     
100   9503051889365678000000000002820000000002820000200000001041040612051230000533JXVETT0612216311000533   1030000100030000   541120003111777031200000031MOB BANK               YGN           MMR11006120512300005330612000000000000000   10300002 00104100000000000000000000005640     
100   35710830462205790000000000020000000000020000002000000010410406121044260007843066800612216317000784   1030000100030000   541120003103777031200000031MOB BANK               YGN           MMR11006121044260007840612000000000000000   10300003 00104100000000000000000000004000     
100   9503051885858791000000000003380000000003380000200000001041040612092433001719I0AJPW0612216315001719   1030000100030000   541110001903777031200000019MOB BANK               YGN           MMR11006120924330017190612000000000000000   10300002 00104100000000000000000000006760     
100   9503054000781096000000000001536000000001536000200000001041040612071048000534EL05YG0612216313000534   1030000100030000   541120003111777031200000031MOB BANK               YGN           MMR11006120710480005340612000000000000000   10300002 00104100000000000000000000003072     
100   35710500345099330000000000119300000000119300002000000010410406120432350014594722090612216311001459   1030000100030000   541110001915777031200000019MOB BANK               YGN           MMR11006120432350014590612000000000000000   10300005 00104100000000000000000000023860     
100   9503051888350408000000000001755000000001755000200000001041040612064541000542ZISIJW0612216313000542   1030000100030000   541120003005777031200000030MOB BANK               YGN           MMR11006120645410005420612000000000000000   10300002 00104100000000000000000000003510     
100   62921400060065040000000000015150000000015150002000000010410406120457500005342222220612216311000534   1030000100030000   541120003005777031200000030MOB BANK               YGN           MMR11006120457500005340612000000000000000   10300009 00104100000000000000000000003030     
100   35710830360171340000000000038800000000038800002000000010410406120512280007691074910612216311000769   1030000100030000   541120003103777031200000031MOB BANK               YGN           MMR11006120512280007690612000000000000000   10300003 00104100000000000000000000007760     
100   9503190004780203000000000005360000000005360000200000001041040612052945000701PTXRMV0612216311000701   1030000100030000   541120003008777031200000030MOB BANK               YGN           MMR11006120529450007010612000000000000000   10300014 00104100000000000000000000010720     
100   9503051026394557000000000004560000000004560000200000001041040612062255001699UF86NW0612216312001699   1030000100030000   541110001903777031200000019MOB BANK               YGN           MMR11006120622550016990612000000000000000   10300002 00104100000000000000000000009120     
100   35710830375962680000000000028900000000028900002000000010410406121012220017712874410612216316001771   1030000100030000   541120003106777031200000031MOB BANK               YGN           MMR11006121012220017710612000000000000000   10300003 00104100000000000000000000005780     
100   35710500323712520000000000051500000000051500002000000010410406121050350017740165410612216317001774   1030000100030000   541120003106777031200000031MOB BANK               YGN           MMR11006121050350017740612000000000000000   10300005 00104100000000000000000000010300     
100   35710500381934860000000000176500000000176500002000000010410406120550210014670705160612216312001467   1030000100030000   541110001915777031200000019MOB BANK               YGN           MMR11006120550210014670612000000000000000   10300005 00104100000000000000000000035300     
100   9503051025120557000000000002200000000002200000200000001041040612082901000301IPYSPD0612216314000301   1030000100030000   541110001917777031200000019MOB BANK               YGN           MMR11006120829010003010612000000000000000   10300002 00104100000000000000000000004400     
100   35710500196761370000000000032500000000032500002000000010410406120930170017200842830612216316001720   1030000100030000   541110001903777031200000019MOB BANK               YGN           MMR11006120930170017200612000000000000000   10300005 00104100000000000000000000006500     
100   62346600108986960000000000040800000000040800002000000010410406120932510017215643870612216316001721   1030000100030000   541110001903777031200000019MOB BANK               YGN           MMR11006120932510017210612000000000000000   10300005 00104100000000000000000000008160     
100   35710830733131720000000000047100000000047100002000000010410406121040440014903044610612216317001490   1030000100030000   541110001915777031200000019MOB BANK               YGN           MMR11006121040440014900612000000000000000   10300003 00104100000000000000000000009420     
100   35710500372998880000000000004500000000004500002000000010410406120805010003776873470612216314000377   1030000100030000   541120003013777031200000030MOB BANK               YGN           MMR11006120805010003770612000000000000000   10300005 00104100000000000000000000000900     
100   35710830923396200000000000009200000000009200002000000010410406120446530006380921500612216311000638   1030000100030000   541120003104777031200000031MOB BANK               YGN           MMR11006120446530006380612000000000000000   10300003 00104100000000000000000000001840     
100   9503051887520886000000000002400000000002400000200000001041040612050906000536DWAM330612216311000536   1030000100030000   541120003005777031200000030MOB BANK               YGN           MMR11006120509060005360612000000000000000   10300002 00104100000000000000000000004800     
100   35710830077451840000000000033500000000033500002000000010410406121014510007132889310612216316000713   1030000100030000   541120003008777031200000030MOB BANK               YGN           MMR11006121014510007130612000000000000000   10300003 00104100000000000000000000006700     
100   35710500153633340000000000032800000000032800002000000010410406120659200017036799800612216313001703   1030000100030000   541110001903777031200000019MOB BANK               YGN           MMR11006120659200017030612000000000000000   10300005 00104100000000000000000000006560     
100   35710830836347160000000000008800000000008800002000000010410406121019350017222917610612216316001722   1030000100030000   541110001903777031200000019MOB BANK               YGN           MMR11006121019350017220612000000000000000   10300003 00104100000000000000000000001760     
100   9503051026323960000000000000929500000000929500200000001041040612090412001545AUMQWJ0612216315001545   1030000100030000   581250000001777031200000005MOB BANK               YGN           MMR11006120904120015450612000000000000000   10300002 00104100000000000000000000003160     
100   9503051020578635000000000001540000000001540000200000001041040612112251001546DHX8OP0612216317001546   1030000100030000   581250000001777031200000005MOB BANK               YGN           MMR11006121122510015460612000000000000000   10300002 00104100000000000000000000005236     
100   9503051895989503000000000013000000000013000000200000001041040612104251001492CTT4RU0612216317001492   1030000100030000   541110001915777031200000019MOB BANK               YGN           MMR11006121042510014920612000000000000000   10300002 00104100000000000000000000026000     
100   35710830120592660000000000080000000000080000002000000010410406120919010003032554210612216315000303   1030000100030000   541110001917777031200000019MOB BANK               YGN           MMR11006120919010003030612000000000000000   10300003 00104100000000000000000000016000     
100   35710500365403400000000000014350000000014350002000000010410406121048150005731356760612216317000573   1030000100030000   541120003003777031200000030MOB BANK               YGN           MMR11006121048150005730612000000000000000   10300005 00104100000000000000000000002870     
100   9503051889365678000000000002280000000002280000200000001041040612053158000771MQOEWP0612216312000771   1030000100030000   541120003103777031200000031MOB BANK               YGN           MMR11006120531580007710612000000000000000   10300002 00104100000000000000000000004560     
100   35710830721838080000000000040800000000040800002000000010410406120718170017051829830612216313001705   1030000100030000   541110001903777031200000019MOB BANK               YGN           MMR11006120718170017050612000000000000000   10300003 00104100000000000000000000008160     
100   9503051883700888000000000000480000000000480000200000001041040612041153001457KIRXHZ0612216310001457   1030000100030000   541110001915777031200000019MOB BANK               YGN           MMR11006120411530014570612000000000000000   10300002 00104100000000000000000000000960     
100   35710830017335250000000000012000000000012000002000000010410406120434310003590847210612216311000359   1030000100030000   541120003002777031200000030MOB BANK               YGN           MMR11006120434310003590612000000000000000   10300003 00104100000000000000000000002400     
100   35710500101665670000000000020100000000020100002000000010410406120540200005387386400612216312000538   1030000100030000   541120003005777031200000030MOB BANK               YGN           MMR11006120540200005380612000000000000000   10300005 00104100000000000000000000004020     
100   9503051883700888000000000003680000000003680000200000001041040612030526001685WTABS50612216309001685   1030000100030000   541110001903777031200000019MOB BANK               YGN           MMR11006120305260016850612000000000000000   10300002 00104100000000000000000000007360     
100   95030201002759660000000000037900000000037900002000000010410406120508520017586748470612216311001758   1030000100030000   541120003106777031200000031MOB BANK               YGN           MMR11006120508520017580612000000000000000   10200002 00104100000000000000000000007580     
100   35710830264178490000000000019500000000019500002000000010410406121142100014943413110612216318001494   1030000100030000   541110001915777031200000019MOB BANK               YGN           MMR11006121142100014940612000000000000000   10300003 00104100000000000000000000003900     
100   9503051897478182000000000001530000000001530000200000001041040612075343001873LGE6UX0612216314001873   1030000100030000   541120003117777031200000031MOB BANK               YGN           MMR11006120753430018730612000000000000000   10300002 00104100000000000000000000003060     
100   9503051889486441000000000000655000000000655000200000001041040612071729003145QZ1FOT0612216313003145   1030000100030000   541110001907777031200000019MOB BANK               YGN           MMR11006120717290031450612000000000000000   10300002 00104100000000000000000000001310     
100   35710830375962680000000000030000000000030000002000000010410406120957520018762787410612216316001876   1030000100030000   541120003117777031200000031MOB BANK               YGN           MMR11006120957520018760612000000000000000   10300003 00104100000000000000000000006000     
100   35710830922480780000000000030100000000030100002000000010410406121118430018823272510612216317001882   1030000100030000   541120003117777031200000031MOB BANK               YGN           MMR11006121118430018820612000000000000000   10300003 00104100000000000000000000006020     
100   35710500370272630000000000005300000000005300002000000010410406120617350014727677340612216312001472   1030000100030000   541110001915777031200000019MOB BANK               YGN           MMR11006120617350014720612000000000000000   10300005 00104100000000000000000000001060     
100   35710500153633340000000000004900000000004900002000000010410406120723560014745064570612216313001474   1030000100030000   541110001915777031200000019MOB BANK               YGN           MMR11006120723560014740612000000000000000   10300005 00104100000000000000000000000980     
100   35710500345099330000000000032950000000032950002000000010410406120445110024814609420612216311002481   1030000100030000   541110001905777031200000019MOB BANK               YGN           MMR11006120445110024810612000000000000000   10300005 00104100000000000000000000006590     
100   9503051897725160000000000001900800000001900800200000001041040612092600001486QAW9B30612216315001486   1030000100030000   541110001915777031200000019MOB BANK               YGN           MMR11006120926000014860612000000000000000   10300002 00104100000000000000000000003802     
100   35710500122574890000000000056000000000056000002000000010410406120550150031252357640612216312003125   1030000100030000   541110001907777031200000019MOB BANK               YGN           MMR11006120550150031250612000000000000000   10300005 00104100000000000000000000011200     
100   35710830794488990000000000009600000000009600002000000010410406120624050031291504610612216312003129   1030000100030000   541110001907777031200000019MOB BANK               YGN           MMR11006120624050031290612000000000000000   10300003 00104100000000000000000000001920     
100   35710830794488990000000000007500000000007500002000000010410406120636360031311579710612216313003131   1030000100030000   541110001907777031200000019MOB BANK               YGN           MMR11006120636360031310612000000000000000   10300003 00104100000000000000000000001500     
100   35710500395862170000000000027200000000027200002000000010410406120812050014764153220612216314001476   1030000100030000   541110001915777031200000019MOB BANK               YGN           MMR11006120812050014760612000000000000000   10300005 00104100000000000000000000005440     
100   35710500364361920000000000041300000000041300002000000010410406120532350024856044360612216312002485   1030000100030000   541110001905777031200000019MOB BANK               YGN           MMR11006120532350024850612000000000000000   10300005 00104100000000000000000000008260     
100   35710500393865190000000000020100000000020100002000000010410406120739380024895298000612216314002489   1030000100030000   541110001905777031200000019MOB BANK               YGN           MMR11006120739380024890612000000000000000   10300005 00104100000000000000000000004020     
100   35710830641901750000000000038100000000038100002000000010410406120727160031521883810612216313003152   1030000100030000   541110001907777031200000019MOB BANK               YGN           MMR11006120727160031520612000000000000000   10300003 00104100000000000000000000007620     
100   95030518977285520000000000068200000000068200002000000010410406120817170031564SIS8E0612216314003156   1030000100030000   541110001907777031200000019MOB BANK               YGN           MMR11006120817170031560612000000000000000   10300002 00104100000000000000000000013640     
100   9503051889587370000000000001835000000001835000200000001041040612081352001478B6IYV10612216314001478   1030000100030000   541110001915777031200000019MOB BANK               YGN           MMR11006120813520014780612000000000000000   10300002 00104100000000000000000000003670     
100   62622000744059170000000000015500000000015500002000000010410406121119080003789463830612216317000378   1030000100030000   541120003013777031200000030MOB BANK               YGN           MMR11006121119080003780612000000000000000   10300006 00104100000000000000000000003100     
100   9503051890271923000000000001710000000001710000200000001041040612081932000640JDFRRS0612216314000640   1030000100030000   541120003104777031200000031MOB BANK               YGN           MMR11006120819320006400612000000000000000   10300002 00104100000000000000000000003420     
100   9503051022094938000000000001490000000001490000200000001041040612060941000703VTATNB0612216312000703   1030000100030000   541120003008777031200000030MOB BANK               YGN           MMR11006120609410007030612000000000000000   10300002 00104100000000000000000000002980     
100   35710500372998880000000000009800000000009800002000000010410406120817370007096351940612216314000709   1030000100030000   541120003008777031200000030MOB BANK               YGN           MMR11006120817370007090612000000000000000   10300005 00104100000000000000000000001960     
100   35710500176120500000000000330000000000330000002000000010410406120726510017077518580612216313001707   1030000100030000   541110001903777031200000019MOB BANK               YGN           MMR11006120726510017070612000000000000000   10300005 00104100000000000000000000066000     
100   9503051897728552000000000006240000000006240000200000001041040612073433001708QCPYKS0612216314001708   1030000100030000   541110001903777031200000019MOB BANK               YGN           MMR11006120734330017080612000000000000000   10300002 00104100000000000000000000012480     
100   35710830586168050000000000018000000000018000002000000010410406120851160014822387710612216315001482   1030000100030000   541110001915777031200000019MOB BANK               YGN           MMR11006120851160014820612000000000000000   10300003 00104100000000000000000000003600     
100   62441900003533360000000000010900000000010900002000000010410406120510040018473031980612216311001847   1030000100030000   541120003117777031200000031MOB BANK               YGN           MMR11006120510040018470612000000000000000   10300003 00104100000000000000000000003815     
100   35710500104394360000000000024000000000024000002000000010410406120651330031364998980612216313003136   1030000100030000   541110001907777031200000019MOB BANK               YGN           MMR11006120651330031360612000000000000000   10300005 00104100000000000000000000004800     
100   35710830576091730000000000085000000000085000002000000010410406120347280031160565000612216310003116   1030000100030000   541110001907777031200000019MOB BANK               YGN           MMR11006120347280031160612000000000000000   10300003 00104100000000000000000000017000     
100   95031900009976450000000000020000000000020000002000000010410406120402370018448YAA780612216310001844   1030000100030000   541120003117777031200000031MOB BANK               YGN           MMR11006120402370018440612000000000000000   10300014 00104100000000000000000000004000     
100   35710830269438690000000000014000000000014000002000000010410406120520410018511124310612216311001851   1030000100030000   541120003117777031200000031MOB BANK               YGN           MMR11006120520410018510612000000000000000   10300003 00104100000000000000000000002800     
100   9503051024750073000000000001840000000001840000200000001041040612084326003159STCO5J0612216315003159   1030000100030000   541110001907777031200000019MOB BANK               YGN           MMR11006120843260031590612000000000000000   10300002 00104100000000000000000000003680     
100   35710500373314180000000000055000000000055000002000000010410406120932190031615630090612216316003161   1030000100030000   541110001907777031200000019MOB BANK               YGN           MMR11006120932190031610612000000000000000   10300005 00104100000000000000000000011000     
100   35710830064936040000000000033200000000033200002000000010410406120947360031642725710612216316003164   1030000100030000   541110001907777031200000019MOB BANK               YGN           MMR11006120947360031640612000000000000000   10300003 00104100000000000000000000006640     
