100   62346600150639650000000000024200000000024200002000000010410406110621050006242572780611216212000624   1030000100030000   541120003104777031200000031MOB BANK               YGN           MMR11006110621050006240611000000000000000   10300005 00104100000000000000000000004840     
100   9503051021018698000000000002180000000002180000200000001041040611065358001663KZAWEV0611216213001663   1030000100030000   541110001903777031200000019MOB BANK               YGN           MMR11006110653580016630611000000000000000   10300002 00104100000000000000000000004360     
100   9503051897711657000000000001050000000001050000200000001041040611095324000385XI1DEH0611216216000385   1030000100030000   541120003105777031200000031MOB BANK               YGN           MMR11006110953240003850611000000000000000   10300002 00104100000000000000000000002100     
100   95030518871910760000000000002401000000002401002000000010410406110944220005176DGFFC0611216216000517   1030000100030000   541120003005777031200000030MOB BANK               YGN           MMR11006110944220005170611000000000000000   10300002 00104100000000000000000000000480     
100   9503051874016559000000000002190000000002190000200000001041040611080102001821ZDDODE0611216214001821   1030000100030000   541120003117777031200000031MOB BANK               YGN           MMR11006110801020018210611000000000000000   10300002 00104100000000000000000000004380     
100   9503051884626884000000000001850000000001850000200000001041040611060657001413P5OAC40611216212001413   1030000100030000   541110001915777031200000019MOB BANK               YGN           MMR11006110606570014130611000000000000000   10300002 00104100000000000000000000003700     
100   95030518846268840000000000018500000000018500002000000010410406110548310014101ZZLOO0611216212001410   1030000100030000   541110001915777031200000019MOB BANK               YGN           MMR11006110548310014100611000000000000000   10300002 00104100000000000000000000003700     
100   9503051024190965000000000001280000000001280000200000001041040611062121000401XQKQKU0611216212000401   1030000100030000   541120003001777031200000030MOB BANK               YGN           MMR11006110621210004010611000000000000000   10300002 00104100000000000000000000002560     
100   35710830295509500000000000010900000000010900002000000010410406110647410004023006210611216213000402   1030000100030000   541120003001777031200000030MOB BANK               YGN           MMR11006110647410004020611000000000000000   10300003 00104100000000000000000000002180     
100   35710830273011410000000000013573000000013573002000000010410406110645210003682992210611216213000368   1030000100030000   541120003013777031200000030MOB BANK               YGN           MMR11006110645210003680611000000000000000   10300003 00104100000000000000000000002715     
100   62622000805151540000000000008000000000008000002000000010410406110924230005579460720611216215000557   1030000100030000   541120003003777031200000030MOB BANK               YGN           MMR11006110924230005570611000000000000000   10300006 00104100000000000000000000001600     
100   35710830015070440000000000010300000000010300002000000010410406110552180005272673910611216212000527   1030000100030000   541120003111777031200000031MOB BANK               YGN           MMR11006110552180005270611000000000000000   10300003 00104100000000000000000000002060     
100   9503051022962720000000000000130000000000130000200000001041040611080041000626G7CXHA0611216214000626   1030000100030000   541120003104777031200000031MOB BANK               YGN           MMR11006110800410006260611000000000000000   10300002 00104100000000000000000000000260     
100   35710830793878730000000000030800000000030800002000000010410406110723010016653218210611216213001665   1030000100030000   541110001903777031200000019MOB BANK               YGN           MMR11006110723010016650611000000000000000   10300003 00104100000000000000000000006160     
100   95030518900221020000000000038800000000038800002000000010410406110807400016676ZCOFC0611216214001667   1030000100030000   541110001903777031200000019MOB BANK               YGN           MMR11006110807400016670611000000000000000   10300002 00104100000000000000000000007760     
100   9503051885361762000000000001900000000001900000200000001041040611130305000357SNX4DS0611216219000357   1030000100030000   541120003002777031200000030MOB BANK               YGN           MMR11006111303050003570611000000000000000   10300002 00104100000000000000000000003800     
100   62622000162142520000000000027700000000027700002000000010410406111002240005189754370611216216000518   1030000100030000   541120003005777031200000030MOB BANK               YGN           MMR11006111002240005180611000000000000000   10300006 00104100000000000000000000005540     
100   62443000803055990000000000019700000000019700002000000010410406111025300005196304000611216216000519   1030000100030000   541120003005777031200000030MOB BANK               YGN           MMR11006111025300005190611000000000000000   10300005 00104100000000000000000000006895     
100   9503051022153783000000000002300000000002300000200000001041040611084545001827UCDDWB0611216215001827   1030000100030000   541120003117777031200000031MOB BANK               YGN           MMR11006110845450018270611000000000000000   10300002 00104100000000000000000000004600     
100   95030800016104300000000000017760000000017760002000000010410406111000100014364161220611216216001436   1030000100030000   541110001915777031200000019MOB BANK               YGN           MMR11006111000100014360611000000000000000   10300003 00104100000000000000000000003552     
100   35710500171723290000000000023500000000023500002000000010410406110909590014289465360611216215001428   1030000100030000   541110001915777031200000019MOB BANK               YGN           MMR11006110909590014280611000000000000000   10300005 00104100000000000000000000004700     
100   35710500183028750000000000038500000000038500002000000010410406111231120002954590680611216219000295   1030000100030000   541110001917777031200000019MOB BANK               YGN           MMR11006111231120002950611000000000000000   10300005 00104100000000000000000000007700     
100   62622000301995540000000000019250000000019250002000000010410406110726530005139680980611216213000513   1030000100030000   541120003005777031200000030MOB BANK               YGN           MMR11006110726530005130611000000000000000   10300006 00104100000000000000000000003850     
100   35710830273011410000000000016477000000016477002000000010410406110717140005123183600611216213000512   1030000100030000   541120003005777031200000030MOB BANK               YGN           MMR11006110717140005120611000000000000000   10300003 00104100000000000000000000003296     
100   35710500383860720000000000010400000000010400002000000010410406110650230006936163560611216213000693   1030000100030000   541120003008777031200000030MOB BANK               YGN           MMR11006110650230006930611000000000000000   10300005 00104100000000000000000000002080     
100   35710830733099230000000000017000000000017000002000000010410406111219560014514999810611216218001451   1030000100030000   541110001915777031200000019MOB BANK               YGN           MMR11006111219560014510611000000000000000   10300003 00104100000000000000000000003400     
100   9503190004529717000000000005370000000005370000200000001041040611055917001412LK9RM70611216212001412   1030000100030000   541110001915777031200000019MOB BANK               YGN           MMR11006110559170014120611000000000000000   10300014 00104100000000000000000000010740     
100   35710830536676880000000000021300000000021300002000000010410406110619120014152835310611216212001415   1030000100030000   541110001915777031200000019MOB BANK               YGN           MMR11006110619120014150611000000000000000   10300003 00104100000000000000000000004260     
100   35710830273011410000000000012960000000012960002000000010410406110617230003092824410611216212000309   1030000100030000   541120003012777031200000030MOB BANK               YGN           MMR11006110617230003090611000000000000000   10300003 00104100000000000000000000002592     
100   62441900001634610000000000010400000000010400002000000010410406111101000005611003640611216217000561   1030000100030000   541120003003777031200000030MOB BANK               YGN           MMR11006111101000005610611000000000000000   10300003 00104100000000000000000000003640     
100   9503051023380195000000000000896700000000896700200000001041040611083721000514N2YRF20611216215000514   1030000100030000   541120003005777031200000030MOB BANK               YGN           MMR11006110837210005140611000000000000000   10300002 00104100000000000000000000001794     
100   35710500190723290000000000030850000000030850002000000010410406110822000005525131550611216214000552   1030000100030000   541120003003777031200000030MOB BANK               YGN           MMR11006110822000005520611000000000000000   10300005 00104100000000000000000000006170     
100   9503051022962720000000000000125000000000125000200000001041040611080159000627DIUELS0611216214000627   1030000100030000   541120003104777031200000031MOB BANK               YGN           MMR11006110801590006270611000000000000000   10300002 00104100000000000000000000000250     
100   9503051022962720000000000000180000000000180000200000001041040611080324000628XAQOZY0611216214000628   1030000100030000   541120003104777031200000031MOB BANK               YGN           MMR11006110803240006280611000000000000000   10300002 00104100000000000000000000000360     
100   35710830273011410000000000006624000000006624002000000010410406110657180006943063910611216213000694   1030000100030000   541120003008777031200000030MOB BANK               YGN           MMR11006110657180006940611000000000000000   10300003 00104100000000000000000000001325     
100   62343301017234720000000000008500000000008500002000000010410406110757590006954798810611216214000695   1030000100030000   541120003008777031200000030MOB BANK               YGN           MMR11006110757590006950611000000000000000   10300004 00104100000000000000000000001700     
100   95031900062192420000000000158400000000158400002000000010410406110353270017152QS8AI0611216210001715   1030000100030000   541160000001777031200000006MOB BANK               YGN           MMR11006110353270017150611000000000000000   10300014 00104100000000000000000000031680     
100   9503051874848381000000000007680000000007680000200000001041040611044410001717DWCRWE0611216211001717   1030000100030000   541160000001777031200000006MOB BANK               YGN           MMR11006110444100017170611000000000000000   10300002 00104100000000000000000000015360     
100   35710500371052750000000000100000000000100000002000000010410406110456500017191271120611216211001719   1030000100030000   541160000001777031200000006MOB BANK               YGN           MMR11006110456500017190611000000000000000   10300005 00104100000000000000000000020000     
100   9503051893661104000000000007860000000007860000200000001041040611103923001720LNWSXD0611216217001720   1030000100030000   541160000001777031200000006MOB BANK               YGN           MMR11006111039230017200611000000000000000   10300002 00104100000000000000000000015720     
100   95030518964386170000000000065500000000065500002000000010410406110822590016706I0R7M0611216214001670   1030000100030000   541110001903777031200000019MOB BANK               YGN           MMR11006110822590016700611000000000000000   10300002 00104100000000000000000000013100     
100   35710830465605600000000000009350000000009350002000000010410406110941430016754050410611216216001675   1030000100030000   541110001903777031200000019MOB BANK               YGN           MMR11006110941430016750611000000000000000   10300003 00104100000000000000000000001870     
100   9503051887087118000000000003380000000003380000200000001041040611120431000765GNXNDR0611216218000765   1030000100030000   541120003103777031200000031MOB BANK               YGN           MMR11006111204310007650611000000000000000   10300002 00104100000000000000000000006760     
100   9503051020393266000000000002634200000002634200200000001041040611040553001652RMJYLC0611216210001652   1030000100030000   541110001903777031200000019MOB BANK               YGN           MMR11006110405530016520611000000000000000   10300002 00104100000000000000000000005268     
100   35710500353915700000000000044400000000044400002000000010410406110934220018307834740611216216001830   1030000100030000   541120003117777031200000031MOB BANK               YGN           MMR11006110934220018300611000000000000000   10300005 00104100000000000000000000008880     
100   95030510259804550000000000056300000000056300002000000010410406111024430018360ISPBX0611216216001836   1030000100030000   541120003117777031200000031MOB BANK               YGN           MMR11006111024430018360611000000000000000   10300002 00104100000000000000000000011260     
100   62622000335651650000000000024400000000024400002000000010410406111019000014399480810611216216001439   1030000100030000   541110001915777031200000019MOB BANK               YGN           MMR11006111019000014390611000000000000000   10300006 00104100000000000000000000004880     
100   9503051026241493000000000000830000000000830000200000001041040611092111001430RTLQCS0611216215001430   1030000100030000   541110001915777031200000019MOB BANK               YGN           MMR11006110921110014300611000000000000000   10300002 00104100000000000000000000001660     
100   35710830174553520000000000031000000000031000002000000010410406110537570003832587810611216212000383   1030000100030000   541120003105777031200000031MOB BANK               YGN           MMR11006110537570003830611000000000000000   10300003 00104100000000000000000000006200     
100   95030518883381970000000000029600000000029600002000000010410406111122110006960XS5V00611216217000696   1030000100030000   541120003008777031200000030MOB BANK               YGN           MMR11006111122110006960611000000000000000   10300002 00104100000000000000000000005920     
100   9503051026289013000000000000350000000000350000200000001041040611081853000761UCVCVL0611216214000761   1030000100030000   541120003103777031200000031MOB BANK               YGN           MMR11006110818530007610611000000000000000   10300002 00104100000000000000000000000700     
100   35710500395474410000000000046500000000046500002000000010410406110819290017374137590611216214001737   1030000100030000   541120003106777031200000031MOB BANK               YGN           MMR11006110819290017370611000000000000000   10300005 00104100000000000000000000009300     
100   62622000335651650000000000035800000000035800002000000010410406111031470016779201520611216217001677   1030000100030000   541110001903777031200000019MOB BANK               YGN           MMR11006111031470016770611000000000000000   10300006 00104100000000000000000000007160     
100   9503051024025161000000000002990000000002990000200000001041040611102807001441MAZ2VF0611216216001441   1030000100030000   541110001915777031200000019MOB BANK               YGN           MMR11006111028070014410611000000000000000   10300002 00104100000000000000000000005980     
100   95030518913419490000000000011856000000011856002000000010410406111036250014435PYEFM0611216217001443   1030000100030000   541110001915777031200000019MOB BANK               YGN           MMR11006111036250014430611000000000000000   10300002 00104100000000000000000000002371     
100   95031900049155510000000000026500000000026500002000000010410406111227230002937PLXGS0611216218000293   1030000100030000   541110001917777031200000019MOB BANK               YGN           MMR11006111227230002930611000000000000000   10300014 00104100000000000000000000005300     
100   35710830973440700000000000130900000000130900002000000010410406100955240006695492510610216116000669   1030000100030000   581210001201777031200000012MOB BANK               YGN           MMR11006100955240006690610000000000000000   10300003 00104100000000000000000000044506     
100   9503051896694029000000000010170000000010170000200000001041040610134038000670BOOQET0610216120000670   1030000100030000   581210001201777031200000012MOB BANK               YGN           MMR11006101340380006700610000000000000000   10300002 00104100000000000000000000034578     
100   35710830741696560000000000036080000000036080002000000010410406110850420009223744310611216215000922   1030000100030000   581210001501777031200000015MOB BANK               YGN           MMR11006110850420009220611000000000000000   10300003 00104100000000000000000000012267     
100   95030518882721070000000000023800000000023800002000000010410406110524000016559EW7ZD0611216211001655   1030000100030000   541110001903777031200000019MOB BANK               YGN           MMR11006110524000016550611000000000000000   10300002 00104100000000000000000000004760     
100   9503051887387930000000000001130000000001130000200000001041040611114828001840DUYHRB0611216218001840   1030000100030000   541120003117777031200000031MOB BANK               YGN           MMR11006111148280018400611000000000000000   10300002 00104100000000000000000000002260     
100   9503051024025161000000000003380000000003380000200000001041040611105442001445T2JXU20611216217001445   1030000100030000   541110001915777031200000019MOB BANK               YGN           MMR11006111054420014450611000000000000000   10300002 00104100000000000000000000006760     
100   9503051024025161000000000003610000000003610000200000001041040611105618001447XHZIXZ0611216217001447   1030000100030000   541110001915777031200000019MOB BANK               YGN           MMR11006111056180014470611000000000000000   10300002 00104100000000000000000000007220     
100   35710830186415050000000000017000000000017000002000000010410406110934480014334008920611216216001433   1030000100030000   541110001915777031200000019MOB BANK               YGN           MMR11006110934480014330611000000000000000   10300003 00104100000000000000000000003400     
100   62622000805151540000000000007050000000007050002000000010410406110944430003699460860611216216000369   1030000100030000   541120003013777031200000030MOB BANK               YGN           MMR11006110944430003690611000000000000000   10300006 00104100000000000000000000001410     
100   9503051889101529000000000000650000000000650000200000001041040611102651000370ZVXX6Y0611216216000370   1030000100030000   541120003013777031200000030MOB BANK               YGN           MMR11006111026510003700611000000000000000   10300002 00104100000000000000000000001300     
100   9503051885361762000000000001680000000001680000200000001041040611124124000354Y8YGSA0611216219000354   1030000100030000   541120003002777031200000030MOB BANK               YGN           MMR11006111241240003540611000000000000000   10300002 00104100000000000000000000003360     
100   35710500136009270000000000010700000000010700002000000010410406110911590005155663600611216215000515   1030000100030000   541120003005777031200000030MOB BANK               YGN           MMR11006110911590005150611000000000000000   10300005 00104100000000000000000000002140     
100   35710500104260940000000000018000000000018000002000000010410406110603250018097206450611216212001809   1030000100030000   541120003117777031200000031MOB BANK               YGN           MMR11006110603250018090611000000000000000   10300005 00104100000000000000000000003600     
100   35710500301149770000000000012375000000012375002000000010410406110735060015429183300611216214001542   1030000100030000   581250000001777031200000005MOB BANK               YGN           MMR11006110735060015420611000000000000000   10300005 00104100000000000000000000004208     
100   35710500315628770000000000013800000000013800002000000010410406110658340014207752810611216213001420   1030000100030000   541110001915777031200000019MOB BANK               YGN           MMR11006110658340014200611000000000000000   10300005 00104100000000000000000000002760     
100   35710500332850220000000000006200000000006200002000000010410406111105310005638167090611216217000563   1030000100030000   541120003003777031200000030MOB BANK               YGN           MMR11006111105310005630611000000000000000   10300005 00104100000000000000000000001240     
100   35710830386853000000000000049800000000049800002000000010410406110851260005543748710611216215000554   1030000100030000   541120003003777031200000030MOB BANK               YGN           MMR11006110851260005540611000000000000000   10300003 00104100000000000000000000009960     
100   9503051894335112000000000069130000000069130000200000001041040611072612000673Z5AEIS0611216213000673   1030000100030000   581210001201777031200000012MOB BANK               YGN           MMR11006110726120006730611000000000000000   10300002 00104100000000000000000000235042     
100   9503051894335112000000000000300000000000300000200000001041040611072652000674D3MTTD0611216213000674   1030000100030000   581210001201777031200000012MOB BANK               YGN           MMR11006110726520006740611000000000000000   10300002 00104100000000000000000000001020     
100   62343302003441960000000000015350000000015350002000000010410406110843280006306935480611216215000630   1030000100030000   541120003104777031200000031MOB BANK               YGN           MMR11006110843280006300611000000000000000   10300004 00104100000000000000000000003070     
100   62343301015461130000000000035800000000035800002000000010410406111033460016782029700611216217001678   1030000100030000   541110001903777031200000019MOB BANK               YGN           MMR11006111033460016780611000000000000000   10300004 00104100000000000000000000007160     
100   95031201600002110000000000029800000000029800002000000010410406111109160016812222220611216217001681   1030000100030000   541110001903777031200000019MOB BANK               YGN           MMR11006111109160016810611000000000000000   10300009 00104100000000000000000000005960     
100   35710830536676880000000000020500000000020500002000000010410406110628400002832892210611216212000283   1030000100030000   541110001917777031200000019MOB BANK               YGN           MMR11006110628400002830611000000000000000   10300003 00104100000000000000000000004100     
100   9503054000785063000000000000510000000000510000200000001041040611120755000522FC3EIE0611216218000522   1030000100030000   541120003005777031200000030MOB BANK               YGN           MMR11006111207550005220611000000000000000   10300002 00104100000000000000000000001020     
100   9503051895299416000000000002596000000002596000200000001041040611085529000923VTCODB0611216215000923   1030000100030000   581210001501777031200000015MOB BANK               YGN           MMR11006110855290009230611000000000000000   10300002 00104100000000000000000000008826     
100   35650883660011430000000000081600000000081600002000000010410406110625110016601892010611216212001660   1030000100030000   541110001903777031200000019MOB BANK               YGN           MMR11006110625110016600611000000000000000   10300005 00104100000000000000000000028560     
100   35710830951835460000000000128700000000128700002000000010410406111139540014494759610611216218001449   1030000100030000   541110001915777031200000019MOB BANK               YGN           MMR11006111139540014490611000000000000000   10300003 00104100000000000000000000025740     
100   9503054000785063000000000001250000000001250000200000001041040611114002000372WZVOBF0611216218000372   1030000100030000   541120003013777031200000030MOB BANK               YGN           MMR11006111140020003720611000000000000000   10300002 00104100000000000000000000002500     
100   35710500370740910000000000008250000000008250002000000010410406110920320005168501720611216215000516   1030000100030000   541120003005777031200000030MOB BANK               YGN           MMR11006110920320005160611000000000000000   10300005 00104100000000000000000000001650     
100   95030518916588470000000000133200000000133200002000000010410406110619220018147EKMG60611216212001814   1030000100030000   541120003117777031200000031MOB BANK               YGN           MMR11006110619220018140611000000000000000   10300002 00104100000000000000000000026640     
100   62441900003890660000000000025000000000025000002000000010410406110624040018179886770611216212001817   1030000100030000   541120003117777031200000031MOB BANK               YGN           MMR11006110624040018170611000000000000000   10300003 00104100000000000000000000008750     
100   9503051026398160000000000001610000000001610000200000001041040611064408001418HXVWQR0611216213001418   1030000100030000   541110001915777031200000019MOB BANK               YGN           MMR11006110644080014180611000000000000000   10300002 00104100000000000000000000003220     
100   95030518889144010000000000003420000000003420002000000010410406111042460015435XV65P0611216217001543   1030000100030000   581250000001777031200000005MOB BANK               YGN           MMR11006111042460015430611000000000000000   10300002 00104100000000000000000000001163     
100   35710500302038460000000000016500000000016500002000000010410406110702250014230341350611216213001423   1030000100030000   541110001915777031200000019MOB BANK               YGN           MMR11006110702250014230611000000000000000   10300005 00104100000000000000000000003300     
100   9503051897150542000000000000525000000000525000200000001041040611081041001425SITYOY0611216214001425   1030000100030000   541110001915777031200000019MOB BANK               YGN           MMR11006110810410014250611000000000000000   10300002 00104100000000000000000000001050     
100   9503054000785063000000000002150000000002150000200000001041040611112023000371JDUVWO0611216217000371   1030000100030000   541120003013777031200000030MOB BANK               YGN           MMR11006111120230003710611000000000000000   10300002 00104100000000000000000000004300     
100   35711450001672270000000000012800000000012800002000000010410406111139490006337175900611216218000633   1030000100030000   541120003104777031200000031MOB BANK               YGN           MMR11006111139490006330611000000000000000   10200001 00104100000000000000000000002560     
100   9503051019733266000000000000230000000000230000200000001041040611124518000634RMWTHK0611216219000634   1030000100030000   541120003104777031200000031MOB BANK               YGN           MMR11006111245180006340611000000000000000   10300002 00104100000000000000000000000460     
100   35710500185284460000000000016300000000016300002000000010410406110432570014084724410611216211001408   1030000100030000   541110001915777031200000019MOB BANK               YGN           MMR11006110432570014080611000000000000000   10300005 00104100000000000000000000003260     
100   35710500393380070000000000003025000000003025002000000010410406111041180005592642920611216217000559   1030000100030000   541120003003777031200000030MOB BANK               YGN           MMR11006111041180005590611000000000000000   10300005 00104100000000000000000000000605     
100   35710500324485480000000000034720000000034720002000000010410406110606330030534370680611216212003053   1030000100030000   541110001907777031200000019MOB BANK               YGN           MMR11006110606330030530611000000000000000   10300005 00104100000000000000000000006944     
100   95051010196809060000000000009400000000009400002000000010410406110654380030598227730611216213003059   1030000100030000   541110001907777031200000019MOB BANK               YGN           MMR11006110654380030590611000000000000000   10300005 00104100000000000000000000003290     
100   62346600161429820000000000052900000000052900002000000010410406110716210030665035440611216213003066   1030000100030000   541110001907777031200000019MOB BANK               YGN           MMR11006110716210030660611000000000000000   10300005 00104100000000000000000000010580     
100   35710500385649830000000000024850000000024850002000000010410406110611040030561247290611216212003056   1030000100030000   541110001907777031200000019MOB BANK               YGN           MMR11006110611040030560611000000000000000   10300005 00104100000000000000000000004970     
100   9503051894920814000000000000422400000000422400200000001041040611110846003090ITAMUL0611216217003090   1030000100030000   541110001907777031200000019MOB BANK               YGN           MMR11006111108460030900611000000000000000   10300002 00104100000000000000000000000845     
100   35710830465605600000000000056900000000056900002000000010410406110937410016734026210611216216001673   1030000100030000   541110001903777031200000019MOB BANK               YGN           MMR11006110937410016730611000000000000000   10300003 00104100000000000000000000011380     
100   9503051893291399000000000000870000000000870000200000001041040611032026003040OYUZLC0611216209003040   1030000100030000   541110001907777031200000019MOB BANK               YGN           MMR11006110320260030400611000000000000000   10300002 00104100000000000000000000001740     
100   9503051890022102000000000000640000000000640000200000001041040611090938003071VILV9J0611216215003071   1030000100030000   541110001907777031200000019MOB BANK               YGN           MMR11006110909380030710611000000000000000   10300002 00104100000000000000000000001280     
100   9503051026264834000000000000830000000000830000200000001041040611035826002460XSJXEE0611216210002460   1030000100030000   541110001905777031200000019MOB BANK               YGN           MMR11006110358260024600611000000000000000   10300002 00104100000000000000000000001660     
100   35710500323499850000000000022700000000022700002000000010410406110912000030743926020611216215003074   1030000100030000   541110001907777031200000019MOB BANK               YGN           MMR11006110912000030740611000000000000000   10300005 00104100000000000000000000004540     
100   95030800016104300000000000036750000000036750002000000010410406110945330030774073500611216216003077   1030000100030000   541110001907777031200000019MOB BANK               YGN           MMR11006110945330030770611000000000000000   10300003 00104100000000000000000000007350     
100   95030518869884640000000000023250000000023250002000000010410406111012390030826LDNAZ0611216216003082   1030000100030000   541110001907777031200000019MOB BANK               YGN           MMR11006111012390030820611000000000000000   10300002 00104100000000000000000000004650     
100   35710830371383500000000000010400000000010400002000000010410406111017430030844266410611216216003084   1030000100030000   541110001907777031200000019MOB BANK               YGN           MMR11006111017430030840611000000000000000   10300003 00104100000000000000000000002080     
100   9503051025089372000000000004850000000004850000200000001041040611110108003087KI2SYV0611216217003087   1030000100030000   541110001907777031200000019MOB BANK               YGN           MMR11006111101080030870611000000000000000   10300002 00104100000000000000000000009700     
100   62622000335651650000000000047250000000047250002000000010410406110955470024669460920611216216002466   1030000100030000   541110001905777031200000019MOB BANK               YGN           MMR11006110955470024660611000000000000000   10300006 00104100000000000000000000009450     
100   95030518738810110000000000060000000000060000002000000010410406110413370030457EY9HN0611216210003045   1030000100030000   541110001907777031200000019MOB BANK               YGN           MMR11006110413370030450611000000000000000   10300002 00104100000000000000000000012000     
100   35710830802301870000000000048000000000048000002000000010410406111135230030934732410611216218003093   1030000100030000   541110001907777031200000019MOB BANK               YGN           MMR11006111135230030930611000000000000000   10300003 00104100000000000000000000009600     
100   9503051023309780000000000001890000000001890000200000001041040611060049001806W4Y4CM0611216212001806   1030000100030000   541120003117777031200000031MOB BANK               YGN           MMR11006110600490018060611000000000000000   10300002 00104100000000000000000000003780     
100   95030518881415180000000000000550000000000550002000000010410406111147170030961TVQM60611216218003096   1030000100030000   541110001907777031200000019MOB BANK               YGN           MMR11006111147170030960611000000000000000   10300002 00104100000000000000000000000110     
100   9503051886988464000000000003047800000003047800200000001041040611102618002471A7A2N80611216216002471   1030000100030000   541110001905777031200000019MOB BANK               YGN           MMR11006111026180024710611000000000000000   10300002 00104100000000000000000000006096     
100   9503051888250061000000000001200000000001200000200000001041040611060358003049XBWX7L0611216212003049   1030000100030000   541110001907777031200000019MOB BANK               YGN           MMR11006110603580030490611000000000000000   10300002 00104100000000000000000000002400     
100   35710830558676900000000000018000000000018000002000000010410406111244030031055144410611216219003105   1030000100030000   541110001907777031200000019MOB BANK               YGN           MMR11006111244030031050611000000000000000   10300003 00104100000000000000000000003600     
100   35710830920003470000000000015683000000015683002000000010410406111031040005204346600611216217000520   1030000100030000   541120003005777031200000030MOB BANK               YGN           MMR11006111031040005200611000000000000000   10300003 00104100000000000000000000003137     
100   9503051887191076000000000000416500000000416500200000001041040611110009000521IHEZGW0611216217000521   1030000100030000   541120003005777031200000030MOB BANK               YGN           MMR11006111100090005210611000000000000000   10300002 00104100000000000000000000000833     
100   9503051888701576000000000001800000000001800000200000001041040611064818000759GUNNBW0611216213000759   1030000100030000   541120003103777031200000031MOB BANK               YGN           MMR11006110648180007590611000000000000000   10300002 00104100000000000000000000003600     
100   35710830387783940000000000006000000000006000002000000010410406110459500006912359210611216211000691   1030000100030000   541120003008777031200000030MOB BANK               YGN           MMR11006110459500006910611000000000000000   10300003 00104100000000000000000000001200     
100   35710830054562970000000000030000000000030000002000000010410406110554050006922684710611216212000692   1030000100030000   541120003008777031200000030MOB BANK               YGN           MMR11006110554050006920611000000000000000   10300003 00104100000000000000000000006000     
100   9503051025980455000000000000850000000000850000200000001041040611101527001833TMCZN00611216216001833   1030000100030000   541120003117777031200000031MOB BANK               YGN           MMR11006111015270018330611000000000000000   10300002 00104100000000000000000000001700     
100   35710500373740870000000000036200000000036200002000000010410406111102380024748883510611216217002474   1030000100030000   541110001905777031200000019MOB BANK               YGN           MMR11006111102380024740611000000000000000   10300005 00104100000000000000000000007240     
100   9503051024943280000000000002615000000002615000200000001041040611120244003101AL6F9Q0611216218003101   1030000100030000   541110001907777031200000019MOB BANK               YGN           MMR11006111202440031010611000000000000000   10300002 00104100000000000000000000005230     
