100   35710500324496600000000000017280000000017280002000000010410406100803260017946322460610216114001794   1030000100030000   541120003117777031200000031MOB BANK               YGN           MMR11006100803260017940610000000000000000   10300005 00104100000000000000000000003456     
100   35710500310860000000000000039850000000039850002000000010410406100740370016397632200610216114001639   1030000100030000   541110001903777031200000019MOB BANK               YGN           MMR11006100740370016390610000000000000000   10300005 00104100000000000000000000007970     
100   35710500110959970000000000003577000000003577002000000010410406100611480030078359060610216112003007   1030000100030000   541110001907777031200000019MOB BANK               YGN           MMR11006100611480030070610000000000000000   10300005 00104100000000000000000000000716     
100   35710830129423130000000000057820000000057820002000000010410406100625190030094232200610216112003009   1030000100030000   541110001907777031200000019MOB BANK               YGN           MMR11006100625190030090610000000000000000   10300003 00104100000000000000000000011564     
100   35710830787213120000000000036799000000036799002000000010410406100736420003974660310610216114000397   1030000100030000   541120003001777031200000030MOB BANK               YGN           MMR11006100736420003970610000000000000000   10300003 00104100000000000000000000007360     
100   9503051872818816000000000000865000000000865000200000001041040610103242001798LVKAFS0610216117001798   1030000100030000   541120003117777031200000031MOB BANK               YGN           MMR11006101032420017980610000000000000000   10300002 00104100000000000000000000001730     
100   9503051891208320000000000000195000000000195000200000001041040610064552003011SJISPJ0610216113003011   1030000100030000   541110001907777031200000019MOB BANK               YGN           MMR11006100645520030110610000000000000000   10300002 00104100000000000000000000000390     
100   9503051887280598000000000002000000000002000000200000001041040610083417000524NCZWB90610216115000524   1030000100030000   541120003111777031200000031MOB BANK               YGN           MMR11006100834170005240610000000000000000   10300002 00104100000000000000000000004000     
100   9503051888743537000000000004125000000004125000200000001041040610065153000916PWWU8C0610216113000916   1030000100030000   581210001501777031200000015MOB BANK               YGN           MMR11006100651530009160610000000000000000   10300002 00104100000000000000000000014025     
100   62346600121417310000000000010400000000010400002000000010410406100623080013644417050610216112001364   1030000100030000   541110001920777031200000019MOB BANK               YGN           MMR11006100623080013640610000000000000000   10300005 00104100000000000000000000002080     
100   95030518855694480000000000082600000000082600002000000010410406101107020016438MU6SM0610216117001643   1030000100030000   541110001903777031200000019MOB BANK               YGN           MMR11006101107020016430610000000000000000   10300002 00104100000000000000000000016520     
100   35710500355304090000000000229800000000229800002000000010410406100412080017078773120610216110001707   1030000100030000   541160000001777031200000006MOB BANK               YGN           MMR11006100412080017070610000000000000000   10300005 00104100000000000000000000045960     
100   35710500352428070000000000188400000000188400002000000010410406100733190017094703270610216114001709   1030000100030000   541160000001777031200000006MOB BANK               YGN           MMR11006100733190017090610000000000000000   10300005 00104100000000000000000000037680     
100   35710830742731020000000000006000000000006000002000000010410406100706170030164477910610216113003016   1030000100030000   541110001907777031200000019MOB BANK               YGN           MMR11006100706170030160610000000000000000   10300003 00104100000000000000000000001200     
100   9503051024817070000000000000655000000000655000200000001041040610095717000398RBC4DU0610216116000398   1030000100030000   541120003001777031200000030MOB BANK               YGN           MMR11006100957170003980610000000000000000   10300002 00104100000000000000000000001310     
100   35710830244112650000000000005150000000005150002000000010410406101232360018026435800610216119001802   1030000100030000   541120003117777031200000031MOB BANK               YGN           MMR11006101232360018020610000000000000000   10300003 00104100000000000000000000001030     
100   35710830753154980000000000020500000000020500002000000010410406091051240003467188600609216017000346   1030000100030000   541120003002777031200000030MOB BANK               YGN           MMR11006091051240003460609000000000000000   10300003 00104100000000000000000000004100     
100   35710500355304090000000000138432000000138432002000000010410406100358170017055539450610216110001705   1030000100030000   541160000001777031200000006MOB BANK               YGN           MMR11006100358170017050610000000000000000   10300005 00104100000000000000000000027686     
100   35710500165808600000000000050300000000050300002000000010410406100759060030192476980610216114003019   1030000100030000   541110001907777031200000019MOB BANK               YGN           MMR11006100759060030190610000000000000000   10300005 00104100000000000000000000010060     
100   35710500305262610000000000060000000000060000002000000010410406100408550002449368790610216110000244   1030000100030000   541120003115777031200000031MOB BANK               YGN           MMR11006100408550002440610000000000000000   10300005 00104100000000000000000000012000     
100   35710500124181150000000000009600000000009600002000000010410406100915250003624416820610216115000362   1030000100030000   541120003013777031200000030MOB BANK               YGN           MMR11006100915250003620610000000000000000   10300005 00104100000000000000000000001920     
100   9503051894314448000000000000405000000000405000200000001041040610040512000395CJPOD30610216110000395   1030000100030000   541120003001777031200000030MOB BANK               YGN           MMR11006100405120003950610000000000000000   10300002 00104100000000000000000000000810     
100   9503190002956888000000000002140000000002140000200000001041040610114053000509P3HC7P0610216118000509   1030000100030000   541120003005777031200000030MOB BANK               YGN           MMR11006101140530005090610000000000000000   10300014 00104100000000000000000000004280     
100   35710830567032410000000000023500000000023500002000000010410406101108310014045931300610216117001404   1030000100030000   541110001915777031200000019MOB BANK               YGN           MMR11006101108310014040610000000000000000   10300003 00104100000000000000000000004700     
100   35710500113356410000000000018800000000018800002000000010410406100916420013677296310610216115001367   1030000100030000   541110001920777031200000019MOB BANK               YGN           MMR11006100916420013670610000000000000000   10300005 00104100000000000000000000003760     
100   9503054000409615000000000016860000000016860000200000001041040610101104001711P9L7EY0610216116001711   1030000100030000   541160000001777031200000006MOB BANK               YGN           MMR11006101011040017110610000000000000000   10300002 00104100000000000000000000033720     
100   35710500385390680000000000032945000000032945002000000010410406100800440015401966400610216114001540   1030000100030000   581250000001777031200000005MOB BANK               YGN           MMR11006100800440015400610000000000000000   10300005 00104100000000000000000000011201     
100   9503051887387500000000000000528000000000528000200000001041040610103324001401AVVKKE0610216117001401   1030000100030000   541110001915777031200000019MOB BANK               YGN           MMR11006101033240014010610000000000000000   10300002 00104100000000000000000000001056     
100   35710500324859040000000000024800000000024800002000000010410406101041090013703591080610216117001370   1030000100030000   541110001920777031200000019MOB BANK               YGN           MMR11006101041090013700610000000000000000   10300005 00104100000000000000000000004960     
100   9503051887563241000000000001182500000001182500200000001041040610051619001539OGQ6B40610216111001539   1030000100030000   581250000001777031200000005MOB BANK               YGN           MMR11006100516190015390610000000000000000   10300002 00104100000000000000000000004020     
100   9503051872835646000000000001880000000001880000200000001041040610120630001646JIWEM00610216118001646   1030000100030000   541110001903777031200000019MOB BANK               YGN           MMR11006101206300016460610000000000000000   10300002 00104100000000000000000000003760     
100   35710500394115490000000000016000000000016000002000000010410406100950300001895289650610216116000189   1030000100030000   541120003006777031200000030MOB BANK               YGN           MMR11006100950300001890610000000000000000   10300005 00104100000000000000000000003200     
100   35710500164772320000000000018816000000018816002000000010410406100318100016274760150610216109001627   1030000100030000   541110001903777031200000019MOB BANK               YGN           MMR11006100318100016270610000000000000000   10300005 00104100000000000000000000003763     
100   62346600183430670000000000041062000000041062002000000010410406100713400024529787770610216113002452   1030000100030000   541110001905777031200000019MOB BANK               YGN           MMR11006100713400024520610000000000000000   10300005 00104100000000000000000000008212     
100   9503051873628453000000000003700000000003700000200000001041040610085936003024UMLA9L0610216115003024   1030000100030000   541110001907777031200000019MOB BANK               YGN           MMR11006100859360030240610000000000000000   10300002 00104100000000000000000000007400     
100   35710830515799190000000000003400000000003400002000000010410406100941350003635409610610216116000363   1030000100030000   541120003013777031200000030MOB BANK               YGN           MMR11006100941350003630610000000000000000   10300003 00104100000000000000000000000680     
100   95030800082796840000000000020286000000020286002000000010410406100345030005463270420610216110000546   1030000100030000   541120003003777031200000030MOB BANK               YGN           MMR11006100345030005460610000000000000000   10300003 00104100000000000000000000004057     
100   35710830528885250000000000010300000000010300002000000010410406100722130006144573410610216113000614   1030000100030000   541120003104777031200000031MOB BANK               YGN           MMR11006100722130006140610000000000000000   10300003 00104100000000000000000000002060     
100   35710500384376770000000000008200000000008200002000000010410406101128390006866061600610216117000686   1030000100030000   541120003008777031200000030MOB BANK               YGN           MMR11006101128390006860610000000000000000   10300005 00104100000000000000000000001640     
100   95031900000809210000000000071225000000071225002000000010410406100811300005068DNVJD0610216114000506   1030000100030000   541120003005777031200000030MOB BANK               YGN           MMR11006100811300005060610000000000000000   10300014 00104100000000000000000000014245     
100   35710500363054050000000000013500000000013500002000000010410406100737360005225178200610216114000522   1030000100030000   541120003111777031200000031MOB BANK               YGN           MMR11006100737360005220610000000000000000   10300005 00104100000000000000000000002700     
100   95030800082796840000000000015124000000015124002000000010410406100325020006833150420610216109000683   1030000100030000   541120003008777031200000030MOB BANK               YGN           MMR11006100325020006830610000000000000000   10300003 00104100000000000000000000003025     
100   35710500391973870000000000002600000000002600002000000010410406101134210030270672940610216118003027   1030000100030000   541110001907777031200000019MOB BANK               YGN           MMR11006101134210030270610000000000000000   10300005 00104100000000000000000000000520     
100   35710500384376770000000000020000000000020000002000000010410406101113060003646215280610216117000364   1030000100030000   541120003013777031200000030MOB BANK               YGN           MMR11006101113060003640610000000000000000   10300005 00104100000000000000000000004000     
100   35710830265570730000000000009800000000009800002000000010410406101213180005106320000610216118000510   1030000100030000   541120003005777031200000030MOB BANK               YGN           MMR11006101213180005100610000000000000000   10300003 00104100000000000000000000001960     
100   35710500320693770000000000008500000000008500002000000010410406101053470005250313690610216117000525   1030000100030000   541120003111777031200000031MOB BANK               YGN           MMR11006101053470005250610000000000000000   10300005 00104100000000000000000000001700     
100   35710500373682530000000000005700000000005700002000000010410406100854460006169572050610216115000616   1030000100030000   541120003104777031200000031MOB BANK               YGN           MMR11006100854460006160610000000000000000   10300005 00104100000000000000000000001140     
100   62343302000613110000000000008600000000008600002000000010410406100902230006184705300610216115000618   1030000100030000   541120003104777031200000031MOB BANK               YGN           MMR11006100902230006180610000000000000000   10300004 00104100000000000000000000001720     
100   9503051020511693000000000002530000000002530000200000001041040610062251001786YQGVLH0610216112001786   1030000100030000   541120003117777031200000031MOB BANK               YGN           MMR11006100622510017860610000000000000000   10300002 00104100000000000000000000005060     
100   35710830049316540000000000164500000000164500002000000010410406100354150016293325710610216110001629   1030000100030000   541110001903777031200000019MOB BANK               YGN           MMR11006100354150016290610000000000000000   10300003 00104100000000000000000000032900     
100   9503051887191076000000000000470400000000470400200000001041040610094000000507UQTLKL0610216116000507   1030000100030000   541120003005777031200000030MOB BANK               YGN           MMR11006100940000005070610000000000000000   10300002 00104100000000000000000000000941     
100   9503051020393266000000000000739200000000739200200000001041040610041955001396IGY69W0610216110001396   1030000100030000   541110001915777031200000019MOB BANK               YGN           MMR11006100419550013960610000000000000000   10300002 00104100000000000000000000001478     
100   9503051873021352000000000004320000000004320000200000001041040610121228003030OQSDPQ0610216118003030   1030000100030000   541110001907777031200000019MOB BANK               YGN           MMR11006101212280030300610000000000000000   10300002 00104100000000000000000000008640     
100   35710830536226910000000000054600000000054600002000000010410406100831440003044990510610216115000304   1030000100030000   541120003012777031200000030MOB BANK               YGN           MMR11006100831440003040610000000000000000   10300003 00104100000000000000000000010920     
100   35710830049316540000000000035800000000035800002000000010410406100357210016313344210610216110001631   1030000100030000   541110001903777031200000019MOB BANK               YGN           MMR11006100357210016310610000000000000000   10300003 00104100000000000000000000007160     
100   35710830672405300000000000035800000000035800002000000010410406100401250016333368710610216110001633   1030000100030000   541110001903777031200000019MOB BANK               YGN           MMR11006100401250016330610000000000000000   10300003 00104100000000000000000000007160     
100   35710500344033270000000000025000000000025000002000000010410406101221000030336743000610216118003033   1030000100030000   541110001907777031200000019MOB BANK               YGN           MMR11006101221000030330610000000000000000   10300005 00104100000000000000000000005000     
100   9503051025980455000000000001700000000001700000200000001041040609075858000236JRH8LN0609216014000236   1030000100030000   541120003115777031200000031MOB BANK               YGN           MMR11006090758580002360609000000000000000   10300002 00104100000000000000000000003400     
100   9503051872334020000000000004200000000004200000200000001041040609101114000238FAVYLE0609216016000238   1030000100030000   541120003115777031200000031MOB BANK               YGN           MMR11006091011140002380609000000000000000   10300002 00104100000000000000000000008400     
100   9503051872818816000000000000440000000000440000200000001041040609033752000232ZNYTC90609216010000232   1030000100030000   541120003115777031200000031MOB BANK               YGN           MMR11006090337520002320609000000000000000   10300002 00104100000000000000000000000880     
100   35710830536226910000000000037900000000037900002000000010410406100848050001865088710610216115000186   1030000100030000   541120003006777031200000030MOB BANK               YGN           MMR11006100848050001860610000000000000000   10300003 00104100000000000000000000007580     
100   9503051020717217000000000001680000000001680000200000001041040610092347000620UG65QT0610216115000620   1030000100030000   541120003104777031200000031MOB BANK               YGN           MMR11006100923470006200610000000000000000   10300002 00104100000000000000000000003360     
100   35710500314898810000000000051600000000051600002000000010410406100506370016354131180610216111001635   1030000100030000   541110001903777031200000019MOB BANK               YGN           MMR11006100506370016350610000000000000000   10300005 00104100000000000000000000010320     
100   35710500335055930000000000025800000000025800002000000010410406100614450016371743410610216112001637   1030000100030000   541110001903777031200000019MOB BANK               YGN           MMR11006100614450016370610000000000000000   10300005 00104100000000000000000000005160     
100   62441900003925080000000000022148000000022148002000000010410406100630080017892830880610216113001789   1030000100030000   541120003117777031200000031MOB BANK               YGN           MMR11006100630080017890610000000000000000   10300003 00104100000000000000000000007752     
100   9503051896025281000000000001280000000001280000200000001041040610063306001790CKQXI10610216113001790   1030000100030000   541120003117777031200000031MOB BANK               YGN           MMR11006100633060017900610000000000000000   10300002 00104100000000000000000000002560     
100   9503051025188125000000000004550000000004550000200000001041040610051440003002RDJWQS0610216111003002   1030000100030000   541110001907777031200000019MOB BANK               YGN           MMR11006100514400030020610000000000000000   10300002 00104100000000000000000000009100     
100   35710500110959970000000000053704000000053704002000000010410406100608260030054848250610216112003005   1030000100030000   541110001907777031200000019MOB BANK               YGN           MMR11006100608260030050610000000000000000   10300005 00104100000000000000000000010741     
100   9503051887191076000000000000661500000000661500200000001041040610103210000508H6V3NT0610216117000508   1030000100030000   541120003005777031200000030MOB BANK               YGN           MMR11006101032100005080610000000000000000   10300002 00104100000000000000000000001323     
100   9503051020511693000000000000810000000000810000200000001041040610064302000610VMIG040610216113000610   1030000100030000   541120003104777031200000031MOB BANK               YGN           MMR11006100643020006100610000000000000000   10300002 00104100000000000000000000001620     
100   35710500385568070000000000011500000000011500002000000010410406100649330006127488600610216113000612   1030000100030000   541120003104777031200000031MOB BANK               YGN           MMR11006100649330006120610000000000000000   10300005 00104100000000000000000000002300     
100   9503051886882873000000000003465000000003465000200000001041040610061912000915B3QKQE0610216112000915   1030000100030000   581210001501777031200000015MOB BANK               YGN           MMR11006100619120009150610000000000000000   10300002 00104100000000000000000000011781     
100   9503190005842390000000000000380000000000380000200000001041040610062518001398H5XNLF0610216112001398   1030000100030000   541110001915777031200000019MOB BANK               YGN           MMR11006100625180013980610000000000000000   10300014 00104100000000000000000000000760     
