100   35710500305484300000000000064000000000064000002000000010410406130350240025040843600613216410002504   1030000100030000   541110001905777031200000019MOB BANK               YGN           MMR11006130350240025040613000000000000000   10300005 00104100000000000000000000012800     
100   95030510254928240000000000013900000000013900002000000010410406130426190025070HGZ9H0613216410002507   1030000100030000   541110001905777031200000019MOB BANK               YGN           MMR11006130426190025070613000000000000000   10300002 00104100000000000000000000002780     
100   35710830579699240000000000005488000000005488002000000010410406131229030025117455070613216418002511   1030000100030000   541110001905777031200000019MOB BANK               YGN           MMR11006131229030025110613000000000000000   10300003 00104100000000000000000000001098     
100   35710500355039010000000000005488000000005488002000000010410406130849500004073684850613216415000407   1030000100030000   541120003001777031200000030MOB BANK               YGN           MMR11006130849500004070613000000000000000   10300005 00104100000000000000000000001098     
100   35710830015405990000000000051400000000051400002000000010410406131143260003832060810613216418000383   1030000100030000   541120003013777031200000030MOB BANK               YGN           MMR11006131143260003830613000000000000000   10300003 00104100000000000000000000010280     
100   95030518871910760000000000003332000000003332002000000010410406131158350005593NU1MM0613216418000559   1030000100030000   541120003005777031200000030MOB BANK               YGN           MMR11006131158350005590613000000000000000   10300002 00104100000000000000000000000666     
100   9503051023878768000000000000646800000000646800200000001041040613093016000554Q14XIN0613216416000554   1030000100030000   541120003005777031200000030MOB BANK               YGN           MMR11006130930160005540613000000000000000   10300002 00104100000000000000000000001294     
100   35710500103098290000000000009350000000009350002000000010410406130815470015481312540613216414001548   1030000100030000   581250000001777031200000005MOB BANK               YGN           MMR11006130815470015480613000000000000000   10300005 00104100000000000000000000003179     
100   9503051885990461000000000001880000000001880000200000001041040613093133001733BVGUGY0613216416001733   1030000100030000   541110001903777031200000019MOB BANK               YGN           MMR11006130931330017330613000000000000000   10300002 00104100000000000000000000003760     
100   9503051889716474000000000003880000000003880000200000001041040613095232001735EV1X1P0613216416001735   1030000100030000   541110001903777031200000019MOB BANK               YGN           MMR11006130952320017350613000000000000000   10300002 00104100000000000000000000007760     
100   35710500305484300000000000024900000000024900002000000010410406130333370031757858470613216410003175   1030000100030000   541110001907777031200000019MOB BANK               YGN           MMR11006130333370031750613000000000000000   10300005 00104100000000000000000000004980     
100   35710500344440570000000000018000000000018000002000000010410406130548550001926061000613216412000192   1030000100030000   541120003006777031200000030MOB BANK               YGN           MMR11006130548550001920613000000000000000   10300005 00104100000000000000000000003600     
100   35710830811220030000000000022500000000022500002000000010410406130425560003899435800613216410000389   1030000100030000   541120003105777031200000031MOB BANK               YGN           MMR11006130425560003890613000000000000000   10300003 00104100000000000000000000004500     
100   35710830614707030000000000044000000000044000002000000010410406130333010005779118310613216410000577   1030000100030000   541120003003777031200000030MOB BANK               YGN           MMR11006130333010005770613000000000000000   10300003 00104100000000000000000000008800     
100   35710830634098400000000000017900000000017900002000000010410406131049060005557419170613216417000555   1030000100030000   541120003005777031200000030MOB BANK               YGN           MMR11006131049060005550613000000000000000   10300003 00104100000000000000000000003580     
100   62622000606864620000000000017335000000017335002000000010410406130409450005510411150613216410000551   1030000100030000   541120003005777031200000030MOB BANK               YGN           MMR11006130409450005510613000000000000000   10300006 00104100000000000000000000003467     
100   62346600140161540000000000037800000000037800002000000010410406131129270017377960920613216417001737   1030000100030000   541110001903777031200000019MOB BANK               YGN           MMR11006131129270017370613000000000000000   10300005 00104100000000000000000000007560     
100   35710830660083830000000000007350000000007350002000000010410406131117370004097431470613216417000409   1030000100030000   541120003001777031200000030MOB BANK               YGN           MMR11006131117370004090613000000000000000   10300003 00104100000000000000000000001470     
100   9503051026023198000000000001375000000001375000200000001041040613074644000581LZXNIL0613216414000581   1030000100030000   541120003003777031200000030MOB BANK               YGN           MMR11006130746440005810613000000000000000   10300002 00104100000000000000000000002750     
100   9503051883865723000000000025266000000025266000200000001041040613104204001731CWBPQB0613216417001731   1030000100030000   541160000001777031200000006MOB BANK               YGN           MMR11006131042040017310613000000000000000   10300002 00104100000000000000000000050532     
100   9503190001262130000000000012250000000012250000200000001041040613113935001905OUO2N30613216418001905   1030000100030000   541120003117777031200000031MOB BANK               YGN           MMR11006131139350019050613000000000000000   10300014 00104100000000000000000000024500     
100   9503051024364339000000000005280000000005280000200000001041040612114025000678DIXNYL0612216318000678   1030000100030000   581210001201777031200000012MOB BANK               YGN           MMR11006121140250006780612000000000000000   10300002 00104100000000000000000000017952     
100   35710500135237720000000000014000000000014000002000000010410406130342020031783212510613216410003178   1030000100030000   541110001907777031200000019MOB BANK               YGN           MMR11006130342020031780613000000000000000   10300005 00104100000000000000000000002800     
100   35710500381204480000000000003200000000003200002000000010410406130430360031807434030613216411003180   1030000100030000   541110001907777031200000019MOB BANK               YGN           MMR11006130430360031800613000000000000000   10300005 00104100000000000000000000000640     
100   95030518835190310000000000021450000000021450002000000010410406130452450031824NHABU0613216411003182   1030000100030000   541110001907777031200000019MOB BANK               YGN           MMR11006130452450031820613000000000000000   10300002 00104100000000000000000000004290     
100   35710500332850220000000000004350000000004350002000000010410406131107550005566181970613216417000556   1030000100030000   541120003005777031200000030MOB BANK               YGN           MMR11006131107550005560613000000000000000   10300005 00104100000000000000000000000870     
100   9503051888741978000000000001260000000001260000200000001041040613033929001887GXSXKR0613216410001887   1030000100030000   541120003117777031200000031MOB BANK               YGN           MMR11006130339290018870613000000000000000   10300002 00104100000000000000000000002520     
100   35710500374273310000000000086400000000086400002000000010410406131351420006827304210613216420000682   1030000100030000   581210001201777031200000012MOB BANK               YGN           MMR11006131351420006820613000000000000000   10300005 00104100000000000000000000029376     
100   9503051883519031000000000003770000000003770000200000001041040613051412003184D7OSMY0613216411003184   1030000100030000   541110001907777031200000019MOB BANK               YGN           MMR11006130514120031840613000000000000000   10300002 00104100000000000000000000007540     
100   950305188762166800000000000270000000000270000020000000104104061307595900318607MW160613216414003186   1030000100030000   541110001907777031200000019MOB BANK               YGN           MMR11006130759590031860613000000000000000   10300002 00104100000000000000000000005400     
100   35710830811220030000000000015700000000015700002000000010410406130430390006469464020613216411000646   1030000100030000   541120003104777031200000031MOB BANK               YGN           MMR11006130430390006460613000000000000000   10300003 00104100000000000000000000003140     
100   95031010022196230000000000006000000000006000002000000010410406130617330018909110440613216412001890   1030000100030000   541120003117777031200000031MOB BANK               YGN           MMR11006130617330018900613000000000000000   10300005 00104100000000000000000000001200     
100   35710500365081230000000000027500000000027500002000000010410406130631520018935539980613216413001893   1030000100030000   541120003117777031200000031MOB BANK               YGN           MMR11006130631520018930613000000000000000   10300005 00104100000000000000000000005500     
100   95031100020134230000000000011300000000011300002000000010410406130645470018960411600613216413001896   1030000100030000   541120003117777031200000031MOB BANK               YGN           MMR11006130645470018960613000000000000000   10300006 00104100000000000000000000002260     
100   9503051020171217000000000000910000000000910000200000001041040613082212001899IHDY2O0613216414001899   1030000100030000   541120003117777031200000031MOB BANK               YGN           MMR11006130822120018990613000000000000000   10300002 00104100000000000000000000001820     
100   35710830015405990000000000042300000000042300002000000010410406131119200003821916200613216417000382   1030000100030000   541120003013777031200000030MOB BANK               YGN           MMR11006131119200003820613000000000000000   10300003 00104100000000000000000000008460     
100   9503051024418119000000000001643700000001643700200000001041040613072239000552LPGAGM0613216413000552   1030000100030000   541120003005777031200000030MOB BANK               YGN           MMR11006130722390005520613000000000000000   10300002 00104100000000000000000000003288     
100   9503051025001336000000000001030000000001030000200000001041040613064959000648LT5VZD0613216413000648   1030000100030000   541120003104777031200000031MOB BANK               YGN           MMR11006130649590006480613000000000000000   10300002 00104100000000000000000000002060     
100   35710500324433170000000000080300000000080300002000000010410406130826130007213435240613216414000721   1030000100030000   541120003008777031200000030MOB BANK               YGN           MMR11006130826130007210613000000000000000   10300005 00104100000000000000000000016060     
100   9503051888025760000000000002500000000002500000200000001041040613060859000321FEN4IF0613216412000321   1030000100030000   541120003012777031200000030MOB BANK               YGN           MMR11006130608590003210613000000000000000   10300002 00104100000000000000000000005000     
100   35710830389111850000000000019000000000019000002000000010410406130926530003917386340613216415000391   1030000100030000   541120003105777031200000031MOB BANK               YGN           MMR11006130926530003910613000000000000000   10300003 00104100000000000000000000003800     
100   35710500385765320000000000022080000000022080002000000010410406131045240031903863500613216417003190   1030000100030000   541110001907777031200000019MOB BANK               YGN           MMR11006131045240031900613000000000000000   10300005 00104100000000000000000000004416     
100   9503051024943280000000000004260000000004260000200000001041040613111354003192RPKMHD0613216417003192   1030000100030000   541110001907777031200000019MOB BANK               YGN           MMR11006131113540031920613000000000000000   10300002 00104100000000000000000000008520     
100   9503051895491021000000000002250000000002250000200000001041040613123011000194FRJF4U0613216419000194   1030000100030000   541120003006777031200000030MOB BANK               YGN           MMR11006131230110001940613000000000000000   10300002 00104100000000000000000000004500     
100   95030518880257600000000000012000000000012000002000000010410406130623590003683TGKSR0613216412000368   1030000100030000   541120003002777031200000030MOB BANK               YGN           MMR11006130623590003680613000000000000000   10300002 00104100000000000000000000002400     
100   9503051026093811000000000004240000000004240000200000001041040613100352000539QIZJKM0613216416000539   1030000100030000   541120003111777031200000031MOB BANK               YGN           MMR11006131003520005390613000000000000000   10300002 00104100000000000000000000008480     
100   35710830067912210000000000012570000000012570002000000010410406131138370005572031910613216418000557   1030000100030000   541120003005777031200000030MOB BANK               YGN           MMR11006131138370005570613000000000000000   10300003 00104100000000000000000000002514     
100   9503051890905165000000000003450000000003450000200000001041040613072902001394N1O3EF0613216413001394   1030000100030000   541110001920777031200000019MOB BANK               YGN           MMR11006130729020013940613000000000000000   10300002 00104100000000000000000000006900     
100   35710830982186200000000000007473000000007473002000000010410406131151240005582108510613216418000558   1030000100030000   541120003005777031200000030MOB BANK               YGN           MMR11006131151240005580613000000000000000   10300003 00104100000000000000000000001495     
100   35710500322724270000000000010950000000010950002000000010410406130636470005798540220613216413000579   1030000100030000   541120003003777031200000030MOB BANK               YGN           MMR11006130636470005790613000000000000000   10300005 00104100000000000000000000002190     
100   35710500355039010000000000006762000000006762002000000010410406130832480005536553850613216415000553   1030000100030000   541120003005777031200000030MOB BANK               YGN           MMR11006130832480005530613000000000000000   10300005 00104100000000000000000000001352     
100   9503051024190684000000000006640000000006640000200000001041040613102917000723WU7LVV0613216416000723   1030000100030000   541120003008777031200000030MOB BANK               YGN           MMR11006131029170007230613000000000000000   10300002 00104100000000000000000000013280     
100   9503190005849841000000000002100000000002100000200000001041040613070731000327XLPGH70613216413000327   1030000100030000   541120003012777031200000030MOB BANK               YGN           MMR11006130707310003270613000000000000000   10300014 00104100000000000000000000004200     
100   62346600140653260000000000002750000000002750002000000010410406130818110005835990450613216414000583   1030000100030000   541120003003777031200000030MOB BANK               YGN           MMR11006130818110005830613000000000000000   10300005 00104100000000000000000000000550     
100   9503051025019502000000000002976000000002976000200000001041040613040111001728O8FEBZ0613216410001728   1030000100030000   541110001903777031200000019MOB BANK               YGN           MMR11006130401110017280613000000000000000   10300002 00104100000000000000000000005952     
100   9503051025492824000000000002180000000002180000200000001041040613040857001730NZWYIX0613216410001730   1030000100030000   541110001903777031200000019MOB BANK               YGN           MMR11006130408570017300613000000000000000   10300002 00104100000000000000000000004360     
100   9503051020368375000000000033450000000033450000200000001041040613042033001730EK48JQ0613216410001730   1030000100030000   541160000001777031200000006MOB BANK               YGN           MMR11006130420330017300613000000000000000   10300002 00104100000000000000000000066900     
100   9503051023328681000000000000440000000000440000200000001041040613093205000393CHYSBA0613216416000393   1030000100030000   541120003105777031200000031MOB BANK               YGN           MMR11006130932050003930613000000000000000   10300002 00104100000000000000000000000880     
100   9503051020171217000000000000760000000000760000200000001041040613090113000650PGJQ2O0613216415000650   1030000100030000   541120003104777031200000031MOB BANK               YGN           MMR11006130901130006500613000000000000000   10300002 00104100000000000000000000001520     
