100   9503051023925742000000000002550000000002550000200000001041040614032114000385YR8XYI0614216509000385   1030000100030000   541120003013777031200000030MOB BANK               YGN           MMR11006140321140003850614000000000000000   10300002 00104100000000000000000000005100     
100   9503051024752863000000000000295000000000295000200000001041040614123539000415ZUWH6I0614216519000415   1030000100030000   541120003001777031200000030MOB BANK               YGN           MMR11006141235390004150614000000000000000   10300002 00104100000000000000000000000590     
100   35710830937398360000000000009650000000009650002000000010410406140936410005939940300614216516000593   1030000100030000   541120003003777031200000030MOB BANK               YGN           MMR11006140936410005930614000000000000000   10300003 00104100000000000000000000001930     
100   950305102257878100000000000120000000000120000020000000104104061403524000065522SEBF0614216510000655   1030000100030000   541120003104777031200000031MOB BANK               YGN           MMR11006140352400006550614000000000000000   10300002 00104100000000000000000000002400     
100   62921400095291480000000000001850000000001850002000000010410406141236540005622222220614216519000562   1030000100030000   541120003005777031200000030MOB BANK               YGN           MMR11006141236540005620614000000000000000   10300009 00104100000000000000000000000370     
100   35710500373215830000000000018000000000018000002000000010410406141125590003730882160614216517000373   1030000100030000   541120003002777031200000030MOB BANK               YGN           MMR11006141125590003730614000000000000000   10300005 00104100000000000000000000003600     
100   62622000796837650000000000003150000000003150002000000010410406140925500005900414040614216515000590   1030000100030000   541120003003777031200000030MOB BANK               YGN           MMR11006140925500005900614000000000000000   10300006 00104100000000000000000000000630     
100   9503051026379293000000000001149500000001149500200000001041040614102944001550UHK8MV0614216516001550   1030000100030000   581250000001777031200000005MOB BANK               YGN           MMR11006141029440015500614000000000000000   10300002 00104100000000000000000000003908     
100   9503051889383226000000000001050000000001050000200000001041040614065651001791514F3F0614216513001791   1030000100030000   541120003106777031200000031MOB BANK               YGN           MMR11006140656510017910614000000000000000   10300002 00104100000000000000000000002100     
100   95051815176210320000000000010000000000010000002000000010410406140750020017935173770614216514001793   1030000100030000   541120003106777031200000031MOB BANK               YGN           MMR11006140750020017930614000000000000000   10300013 00104100000000000000000000003500     
100   9503051872318569000000000003110000000003110000200000001041040614110938000389VYHNSP0614216517000389   1030000100030000   541120003013777031200000030MOB BANK               YGN           MMR11006141109380003890614000000000000000   10300002 00104100000000000000000000006220     
100   62346600107100320000000000001700000000001700002000000010410406140501300006576069520614216511000657   1030000100030000   541120003104777031200000031MOB BANK               YGN           MMR11006140501300006570614000000000000000   10300005 00104100000000000000000000000340     
100   35710830148072170000000000020500000000020500002000000010410406140607300003988685210614216512000398   1030000100030000   541120003105777031200000031MOB BANK               YGN           MMR11006140607300003980614000000000000000   10300003 00104100000000000000000000004100     
100   62441900102403330000000000098800000000098800002000000010410406140632120019109953200614216513001910   1030000100030000   541120003117777031200000031MOB BANK               YGN           MMR11006140632120019100614000000000000000   10300003 00104100000000000000000000034580     
100   35710500180348250000000000093450000000093450002000000010410406140351250004133518990614216510000413   1030000100030000   541120003001777031200000030MOB BANK               YGN           MMR11006140351250004130614000000000000000   10300005 00104100000000000000000000018690     
100   9503051872318569000000000000555000000000555000200000001041040614112335000595ARKHCO0614216517000595   1030000100030000   541120003003777031200000030MOB BANK               YGN           MMR11006141123350005950614000000000000000   10300002 00104100000000000000000000001110     
100   9503051896152523000000000001655500000001655500200000001041040614114603001551S8QTTU0614216518001551   1030000100030000   581250000001777031200000005MOB BANK               YGN           MMR11006141146030015510614000000000000000   10300002 00104100000000000000000000005629     
100   9503051896256316000000000007830000000007830000200000001041040614055032001735KD5LTP0614216512001735   1030000100030000   541160000001777031200000006MOB BANK               YGN           MMR11006140550320017350614000000000000000   10300002 00104100000000000000000000015660     
100   9503051021948274000000000002730000000002730000200000001041040614113350000548CJHQQ80614216518000548   1030000100030000   541120003111777031200000031MOB BANK               YGN           MMR11006141133500005480614000000000000000   10300002 00104100000000000000000000005460     
100   35710500344440570000000000009900000000009900002000000010410406140429500005862992260614216510000586   1030000100030000   541120003003777031200000030MOB BANK               YGN           MMR11006140429500005860614000000000000000   10300005 00104100000000000000000000001980     
100   9503051873696005000000000002770000000002770000200000001041040614063900001915CRS51Z0614216513001915   1030000100030000   541120003117777031200000031MOB BANK               YGN           MMR11006140639000019150614000000000000000   10300002 00104100000000000000000000005540     
100   95030800044713840000000000024100000000024100002000000010410406140649340019198937610614216513001919   1030000100030000   541120003117777031200000031MOB BANK               YGN           MMR11006140649340019190614000000000000000   10300003 00104100000000000000000000004820     
100   9503051895542799000000000001880000000001880000200000001041040614075919001927NLFOQQ0614216514001927   1030000100030000   541120003117777031200000031MOB BANK               YGN           MMR11006140759190019270614000000000000000   10300002 00104100000000000000000000003760     
100   35710500373215830000000000018000000000018000002000000010410406141127550003749775910614216517000374   1030000100030000   541120003002777031200000030MOB BANK               YGN           MMR11006141127550003740614000000000000000   10300005 00104100000000000000000000003600     
100   35710950994368600000000000066900000000066900002000000010410406141006150017380117620614216516001738   1030000100030000   541160000001777031200000006MOB BANK               YGN           MMR11006141006150017380614000000000000000   10300003 00104100000000000000000000013380     
100   9503051025553047000000000001750000000001750000200000001041040614054640000370714VRS0614216512000370   1030000100030000   541120003002777031200000030MOB BANK               YGN           MMR11006140546400003700614000000000000000   10300002 00104100000000000000000000003500     
100   35710830937398360000000000022500000000022500002000000010410406140920090003879841010614216515000387   1030000100030000   541120003013777031200000030MOB BANK               YGN           MMR11006140920090003870614000000000000000   10300003 00104100000000000000000000004500     
100   35710830821060960000000000007200000000007200002000000010410406140604160003968665820614216512000396   1030000100030000   541120003105777031200000031MOB BANK               YGN           MMR11006140604160003960614000000000000000   10300003 00104100000000000000000000001440     
100   9503190006134581000000000000340000000000340000200000001041040614102558000561EOUO8D0614216516000561   1030000100030000   541120003005777031200000030MOB BANK               YGN           MMR11006141025580005610614000000000000000   10300014 00104100000000000000000000000680     
100   35710500373215830000000000022500000000022500002000000010410406141107560001985101320614216517000198   1030000100030000   541120003006777031200000030MOB BANK               YGN           MMR11006141107560001980614000000000000000   10300005 00104100000000000000000000004500     
100   95030510226655960000000000051100000000051100002000000010410406140659090005881FVZO00614216513000588   1030000100030000   541120003003777031200000030MOB BANK               YGN           MMR11006140659090005880614000000000000000   10300002 00104100000000000000000000010220     
100   9503051025553047000000000000550000000000550000200000001041040614061415000726XZ4YHQ0614216512000726   1030000100030000   541120003008777031200000030MOB BANK               YGN           MMR11006140614150007260614000000000000000   10300002 00104100000000000000000000001100     
100   35710830336367950000000000005200000000005200002000000010410406140656320019238979410614216513001923   1030000100030000   541120003117777031200000031MOB BANK               YGN           MMR11006140656320019230614000000000000000   10300003 00104100000000000000000000001040     
