100   35710830987193460000000000014600000000014600002000000010410406150517410032207026310615216611003220   1030000100030000   541110001907777031200000019MOB BANK               YGN           MMR11006150517410032200615000000000000000   10300003 00104100000000000000000000002920     
100   9503051022728782000000000006500000000006500000200000001041040615075800003222XASLGH0615216614003222   1030000100030000   541110001907777031200000019MOB BANK               YGN           MMR11006150758000032220615000000000000000   10300002 00104100000000000000000000013000     
100   35710830854303860000000000012054000000012054002000000010410406150804020032248024310615216614003224   1030000100030000   541110001907777031200000019MOB BANK               YGN           MMR11006150804020032240615000000000000000   10300003 00104100000000000000000000002411     
100   62441900102089000000000000023000000000023000002000000010410406150805210032262031560615216614003226   1030000100030000   541110001907777031200000019MOB BANK               YGN           MMR11006150805210032260615000000000000000   10300003 00104100000000000000000000008050     
100   9503190004227528000000000001226500000001226500200000001041040615104235000566QQ66J80615216617000566   1030000100030000   541120003005777031200000030MOB BANK               YGN           MMR11006151042350005660615000000000000000   10300014 00104100000000000000000000002453     
100   9503051025228756000000000000775000000000775000200000001041040615102740000611ETJMSO0615216616000611   1030000100030000   541120003003777031200000030MOB BANK               YGN           MMR11006151027400006110615000000000000000   10300002 00104100000000000000000000001550     
100   35710830598266500000000000037926000000037926002000000010410406151008170007318769900615216616000731   1030000100030000   541120003008777031200000030MOB BANK               YGN           MMR11006151008170007310615000000000000000   10300003 00104100000000000000000000007585     
100   9503051891166262000000000004310000000004310000200000001041040615040822001934NNTZL80615216610001934   1030000100030000   541120003117777031200000031MOB BANK               YGN           MMR11006150408220019340615000000000000000   10300002 00104100000000000000000000008620     
100   35710500313225040000000000023900000000023900002000000010410406150427450019370271180615216610001937   1030000100030000   541120003117777031200000031MOB BANK               YGN           MMR11006150427450019370615000000000000000   10300005 00104100000000000000000000004780     
100   95030518841978370000000000099900000000099900002000000010410406150809240019407KNJEJ0615216614001940   1030000100030000   541120003117777031200000031MOB BANK               YGN           MMR11006150809240019400615000000000000000   10300002 00104100000000000000000000019980     
100   95031800645584410000000000006300000000006300002000000010410406151131240005675706230615216618000567   1030000100030000   541120003005777031200000030MOB BANK               YGN           MMR11006151131240005670615000000000000000   10300013 00104100000000000000000000001260     
100   35710830760305260000000000005600000000005600002000000010410406150642130006077533510615216613000607   1030000100030000   541120003003777031200000030MOB BANK               YGN           MMR11006150642130006070615000000000000000   10300003 00104100000000000000000000001120     
100   35710830031405130000000000015000000000015000002000000010410406151139410017669318210615216618001766   1030000100030000   541110001903777031200000019MOB BANK               YGN           MMR11006151139410017660615000000000000000   10300003 00104100000000000000000000003000     
100   9503051025426087000000000002460000000002460000200000001041040615043859002531PDC8EA0615216611002531   1030000100030000   541110001905777031200000019MOB BANK               YGN           MMR11006150438590025310615000000000000000   10300002 00104100000000000000000000004920     
100   9503051872439837000000000002970000000002970000200000001041040615101327000337JUMDM90615216616000337   1030000100030000   541120003012777031200000030MOB BANK               YGN           MMR11006151013270003370615000000000000000   10300002 00104100000000000000000000005940     
100   35710500354802170000000000017430000000017430002000000010410406150337230006009780110615216610000600   1030000100030000   541120003003777031200000030MOB BANK               YGN           MMR11006150337230006000615000000000000000   10300005 00104100000000000000000000003486     
100   35710830503255120000000000036000000000036000002000000010410406151452080006910473010615216621000691   1030000100030000   581210001201777031200000012MOB BANK               YGN           MMR11006151452080006910615000000000000000   10300003 00104100000000000000000000012240     
100   35710500324239130000000000013440000000013440002000000010410406150615460014100504110615216612001410   1030000100030000   541110001920777031200000019MOB BANK               YGN           MMR11006150615460014100615000000000000000   10300005 00104100000000000000000000002688     
100   9503051896597123000000000002250000000002250000200000001041040615082907003228URFCXD0615216614003228   1030000100030000   541110001907777031200000019MOB BANK               YGN           MMR11006150829070032280615000000000000000   10300002 00104100000000000000000000004500     
100   35710830673876870000000000007050000000007050002000000010410406150954490032308689100615216616003230   1030000100030000   541110001907777031200000019MOB BANK               YGN           MMR11006150954490032300615000000000000000   10300003 00104100000000000000000000001410     
100   9503190004402071000000000000800000000000800000200000001041040615121426000733NMWLBF0615216618000733   1030000100030000   541120003008777031200000030MOB BANK               YGN           MMR11006151214260007330615000000000000000   10300014 00104100000000000000000000001600     
100   35710950616797520000000000121600000000121600002000000010410406141224180006840946000614216518000684   1030000100030000   581210001201777031200000012MOB BANK               YGN           MMR11006141224180006840614000000000000000   10300003 00104100000000000000000000041344     
100   95030800074758790000000000034500000000034500002000000010410406140804000017499384210614216514001749   1030000100030000   541110001903777031200000019MOB BANK               YGN           MMR11006140804000017490614000000000000000   10300003 00104100000000000000000000006900     
100   35710500174994660000000000115000000000115000002000000010410406140706260032106135500614216513003210   1030000100030000   541110001907777031200000019MOB BANK               YGN           MMR11006140706260032100614000000000000000   10300005 00104100000000000000000000023000     
100   9503190001379199000000000013200000000013200000200000001041040614133412000685QVZW8C0614216520000685   1030000100030000   581210001201777031200000012MOB BANK               YGN           MMR11006141334120006850614000000000000000   10300014 00104100000000000000000000044880     
100   95030540006100140000000000030800000000030800002000000010410406140809560017520GQDQA0614216514001752   1030000100030000   541110001903777031200000019MOB BANK               YGN           MMR11006140809560017520614000000000000000   10300002 00104100000000000000000000006160     
100   9503051026026423000000000003580000000003580000200000001041040614081230001754ASHGOY0614216514001754   1030000100030000   541110001903777031200000019MOB BANK               YGN           MMR11006140812300017540614000000000000000   10300002 00104100000000000000000000007160     
100   35710500192091860000000000004400000000004400002000000010410406140858570032150625940614216515003215   1030000100030000   541110001907777031200000019MOB BANK               YGN           MMR11006140858570032150614000000000000000   10300005 00104100000000000000000000000880     
100   62622000508359390000000000016170000000016170002000000010410406140913240025260424020614216515002526   1030000100030000   541110001905777031200000019MOB BANK               YGN           MMR11006140913240025260614000000000000000   10300006 00104100000000000000000000003234     
100   9503051889051377000000000003280000000003280000200000001041040614043739001743W7PMBM0614216511001743   1030000100030000   541110001903777031200000019MOB BANK               YGN           MMR11006140437390017430614000000000000000   10300002 00104100000000000000000000006560     
100   62921400012796350000000000080000000000080000002000000010410406140516180032012222220614216511003201   1030000100030000   541110001907777031200000019MOB BANK               YGN           MMR11006140516180032010614000000000000000   10300009 00104100000000000000000000016000     
100   9503051019995063000000000001185800000001185800200000001041040614062353003206OW0XZY0614216512003206   1030000100030000   541110001907777031200000019MOB BANK               YGN           MMR11006140623530032060614000000000000000   10300002 00104100000000000000000000002372     
100   62346600140161540000000000045080000000045080002000000010410406140604340025225443290614216512002522   1030000100030000   541110001905777031200000019MOB BANK               YGN           MMR11006140604340025220614000000000000000   10300005 00104100000000000000000000009016     
100   62343302007543450000000000029500000000029500002000000010410406140756020017472911590614216514001747   1030000100030000   541110001903777031200000019MOB BANK               YGN           MMR11006140756020017470614000000000000000   10300004 00104100000000000000000000005900     
100   9503051895556393000000000007700000000007700000200000001041040614061435003204GF96NR0614216512003204   1030000100030000   541110001907777031200000019MOB BANK               YGN           MMR11006140614350032040614000000000000000   10300002 00104100000000000000000000015400     
100   35710500392767360000000000030700000000030700002000000010410406141507320006868812180614216521000686   1030000100030000   581210001201777031200000012MOB BANK               YGN           MMR11006141507320006860614000000000000000   10300005 00104100000000000000000000010438     
100   9503051891638310000000000023000000000023000000200000001041040614042825003198BATMEF0614216510003198   1030000100030000   541110001907777031200000019MOB BANK               YGN           MMR11006140428250031980614000000000000000   10300002 00104100000000000000000000046000     
100   35710830256443770000000000068000000000068000002000000010410406150457430025396906510615216611002539   1030000100030000   541110001905777031200000019MOB BANK               YGN           MMR11006150457430025390615000000000000000   10300003 00104100000000000000000000013600     
100   35710500385765320000000000005733000000005733002000000010410406150644430025433993060615216613002543   1030000100030000   541110001905777031200000019MOB BANK               YGN           MMR11006150644430025430615000000000000000   10300005 00104100000000000000000000001147     
100   35710830108187960000000000035600000000035600002000000010410406150704260025537666820615216613002553   1030000100030000   541110001905777031200000019MOB BANK               YGN           MMR11006150704260025530615000000000000000   10300003 00104100000000000000000000007120     
100   9503051887191076000000000000779100000000779100200000001041040615114458000569XL33170615216618000569   1030000100030000   541120003005777031200000030MOB BANK               YGN           MMR11006151144580005690615000000000000000   10300002 00104100000000000000000000001558     
100   35710830152247760000000000112650000000112650002000000010410406150930300003338543200615216616000333   1030000100030000   541120003012777031200000030MOB BANK               YGN           MMR11006150930300003330615000000000000000   10300003 00104100000000000000000000022530     
100   62921400089951830000000000010000000000010000002000000010410406150718360014122222220615216613001412   1030000100030000   541110001920777031200000019MOB BANK               YGN           MMR11006150718360014120615000000000000000   10300009 00104100000000000000000000002000     
100   9503051886232608000000000001900000000001900000200000001041040615083650001419FTZOVS0615216615001419   1030000100030000   541110001920777031200000019MOB BANK               YGN           MMR11006150836500014190615000000000000000   10300002 00104100000000000000000000003800     
100   95030518965971230000000000014200000000014200002000000010410406150835310025553JMLMD0615216615002555   1030000100030000   541110001905777031200000019MOB BANK               YGN           MMR11006150835310025550615000000000000000   10300002 00104100000000000000000000002840     
100   9503051021928771000000000004110000000004110000200000001041040615103057003233SXCWV40615216617003233   1030000100030000   541110001907777031200000019MOB BANK               YGN           MMR11006151030570032330615000000000000000   10300002 00104100000000000000000000008220     
100   9503051025152899000000000000980000000000980000200000001041040615031149000660JCNWNH0615216609000660   1030000100030000   541120003104777031200000031MOB BANK               YGN           MMR11006150311490006600615000000000000000   10300002 00104100000000000000000000001960     
100   95030518862326080000000000155100000000155100002000000010410406150859150025617SVANW0615216615002561   1030000100030000   541110001905777031200000019MOB BANK               YGN           MMR11006150859150025610615000000000000000   10300002 00104100000000000000000000031020     
100   62921400069854420000000000067000000000067000002000000010410406150911500025682222220615216615002568   1030000100030000   541110001905777031200000019MOB BANK               YGN           MMR11006150911500025680615000000000000000   10300009 00104100000000000000000000013400     
100   9503051025766961000000000003800000000003800000200000001041040615110414002572S8N2EA0615216617002572   1030000100030000   541110001905777031200000019MOB BANK               YGN           MMR11006151104140025720615000000000000000   10300002 00104100000000000000000000007600     
100   35710950871071350000000000004900000000004900002000000010410406150929080006098534930615216615000609   1030000100030000   541120003003777031200000030MOB BANK               YGN           MMR11006150929080006090615000000000000000   10300003 00104100000000000000000000000980     
100   35710900040727510000000000006950000000006950002000000010410406150518260006027030810615216611000602   1030000100030000   541120003003777031200000030MOB BANK               YGN           MMR11006150518260006020615000000000000000   10300003 00104100000000000000000000001390     
100   95051805228314790000000000016300000000016300002000000010410406151050560032354186410615216617003235   1030000100030000   541110001907777031200000019MOB BANK               YGN           MMR11006151050560032350615000000000000000   10300013 00104100000000000000000000005705     
100   35710830897451440000000000130000000000130000002000000010410406151147550032379367610615216618003237   1030000100030000   541110001907777031200000019MOB BANK               YGN           MMR11006151147550032370615000000000000000   10300003 00104100000000000000000000026000     
100   35710830577340540000000000028800000000028800002000000010410406150505060017616951400615216611001761   1030000100030000   541110001903777031200000019MOB BANK               YGN           MMR11006150505060017610615000000000000000   10300003 00104100000000000000000000005760     
100   35710500370827550000000000040320000000040320002000000010410406151116380003935200780615216617000393   1030000100030000   541120003013777031200000030MOB BANK               YGN           MMR11006151116380003930615000000000000000   10300005 00104100000000000000000000008064     
100   35710500365403400000000000002548000000002548002000000010410406150711570005649241930615216613000564   1030000100030000   541120003005777031200000030MOB BANK               YGN           MMR11006150711570005640615000000000000000   10300005 00104100000000000000000000000510     
100   35710500391144240000000000007938000000007938002000000010410406150742020003311584050615216614000331   1030000100030000   541120003012777031200000030MOB BANK               YGN           MMR11006150742020003310615000000000000000   10300005 00104100000000000000000000001588     
100   35710830630956980000000000020750000000020750002000000010410406150937550004178587710615216616000417   1030000100030000   541120003001777031200000030MOB BANK               YGN           MMR11006150937550004170615000000000000000   10300003 00104100000000000000000000004150     
100   35710500355363310000000000006780000000006780002000000010410406150943180006622125550615216616000662   1030000100030000   541120003104777031200000031MOB BANK               YGN           MMR11006150943180006620615000000000000000   10300005 00104100000000000000000000001356     
100   9503051024283976000000000004120000000004120000200000001041040615130202002580NWGXGC0615216619002580   1030000100030000   541110001905777031200000019MOB BANK               YGN           MMR11006151302020025800615000000000000000   10300002 00104100000000000000000000008240     
100   62921400090089520000000000120000000000120000002000000010410406150449030032182222220615216611003218   1030000100030000   541110001907777031200000019MOB BANK               YGN           MMR11006150449030032180615000000000000000   10300009 00104100000000000000000000024000     
100   9503051887191076000000000000612500000000612500200000001041040615103454000565ICVMQ70615216617000565   1030000100030000   541120003005777031200000030MOB BANK               YGN           MMR11006151034540005650615000000000000000   10300002 00104100000000000000000000001225     
100   9503051022202689000000000002380000000002380000200000001041040615104126001764Z8KSE80615216617001764   1030000100030000   541110001903777031200000019MOB BANK               YGN           MMR11006151041260017640615000000000000000   10300002 00104100000000000000000000004760     
100   9503051886229232000000000002190000000002190000200000001041040615052234000201DMSWAT0615216611000201   1030000100030000   541120003006777031200000030MOB BANK               YGN           MMR11006150522340002010615000000000000000   10300002 00104100000000000000000000004380     
100   95030518724398370000000000027000000000027000002000000010410406150950450003361OLCHY0615216616000336   1030000100030000   541120003012777031200000030MOB BANK               YGN           MMR11006150950450003360615000000000000000   10300002 00104100000000000000000000005400     
100   35710500311460280000000000010000000000010000002000000010410406151146170006895008730615216618000689   1030000100030000   581210001201777031200000012MOB BANK               YGN           MMR11006151146170006890615000000000000000   10300005 00104100000000000000000000003400     
100   9503051892313434000000000004246000000004246000200000001041040615095944000941JQ1UDT0615216616000941   1030000100030000   581210001501777031200000015MOB BANK               YGN           MMR11006150959440009410615000000000000000   10300002 00104100000000000000000000014436     
100   35710500315491550000000000016240000000016240002000000010410406150420580014055184910615216610001405   1030000100030000   541110001920777031200000019MOB BANK               YGN           MMR11006150420580014050615000000000000000   10300005 00104100000000000000000000003248     
100   9503051887563241000000000003652000000003652000200000001041040615075804001553MYIIBK0615216614001553   1030000100030000   581250000001777031200000005MOB BANK               YGN           MMR11006150758040015530615000000000000000   10300002 00104100000000000000000000012417     
100   35710950785350700000000000020680000000020680002000000010410406150936310015548579210615216616001554   1030000100030000   581250000001777031200000005MOB BANK               YGN           MMR11006150936310015540615000000000000000   10300003 00104100000000000000000000007031     
100   35710500140111400000000000016555000000016555002000000010410406150953290015555575510615216616001555   1030000100030000   581250000001777031200000005MOB BANK               YGN           MMR11006150953290015550615000000000000000   10300005 00104100000000000000000000005629     
100   35710500324053320000000000011000000000011000002000000010410406151221110015568057410615216618001556   1030000100030000   581250000001777031200000005MOB BANK               YGN           MMR11006151221110015560615000000000000000   10300005 00104100000000000000000000003740     
