100   62622000675314220000000000008200000000008200002000000010410406161157350003450717200616216718000345   1030000100030000   541120003012777031200000030MOB BANK               YGN           MMR11006161157350003450616000000000000000   10300006 00104100000000000000000000001640     
100   35710500354005530000000000030100000000030100002000000010410406160437260007360330020616216711000736   1030000100030000   541120003008777031200000030MOB BANK               YGN           MMR11006160437260007360616000000000000000   10300005 00104100000000000000000000006020     
100   62441900002430240000000000025800000000025800002000000010410406160829190017756801150616216714001775   1030000100030000   541110001903777031200000019MOB BANK               YGN           MMR11006160829190017750616000000000000000   10300003 00104100000000000000000000009030     
100   35710500334389510000000000010500000000010500002000000010410406161152140003424635870616216718000342   1030000100030000   541120003012777031200000030MOB BANK               YGN           MMR11006161152140003420616000000000000000   10300005 00104100000000000000000000002100     
100   35710500115719890000000000010500000000010500002000000010410406160525420005533434860616216711000553   1030000100030000   541120003111777031200000031MOB BANK               YGN           MMR11006160525420005530616000000000000000   10300005 00104100000000000000000000002100     
100   35710500373248680000000000017545000000017545002000000010410406160649390015580199650616216713001558   1030000100030000   581250000001777031200000005MOB BANK               YGN           MMR11006160649390015580616000000000000000   10300005 00104100000000000000000000005965     
100   62921400044706860000000000026125000000026125002000000010410406160854170015612222220616216715001561   1030000100030000   581250000001777031200000005MOB BANK               YGN           MMR11006160854170015610616000000000000000   10300009 00104100000000000000000000008882     
100   35710830677775070000000000033800000000033800002000000010410406161005440017777394510616216716001777   1030000100030000   541110001903777031200000019MOB BANK               YGN           MMR11006161005440017770616000000000000000   10300003 00104100000000000000000000006760     
100   62346600141280090000000000008000000000008000002000000010410406160518480002043143910616216711000204   1030000100030000   541120003006777031200000030MOB BANK               YGN           MMR11006160518480002040616000000000000000   10300005 00104100000000000000000000001600     
100   62622000524595220000000000018800000000018800002000000010410406160750370007990150380616216714000799   1030000100030000   541120003103777031200000031MOB BANK               YGN           MMR11006160750370007990616000000000000000   10300006 00104100000000000000000000003760     
100   35710830807091310000000000024000000000024000002000000010410406161109390018137778020616216717001813   1030000100030000   541120003106777031200000031MOB BANK               YGN           MMR11006161109390018130616000000000000000   10300003 00104100000000000000000000004800     
100   62921400096025150000000000021000000000021000002000000010410406160633560005542222220616216713000554   1030000100030000   541120003111777031200000031MOB BANK               YGN           MMR11006160633560005540616000000000000000   10300009 00104100000000000000000000004200     
100   62921400096025150000000000034000000000034000002000000010410406160644230018042222220616216713001804   1030000100030000   541120003106777031200000031MOB BANK               YGN           MMR11006160644230018040616000000000000000   10300009 00104100000000000000000000006800     
100   35710500324251990000000000018240000000018240002000000010410406160421580032452990870616216710003245   1030000100030000   541110001907777031200000019MOB BANK               YGN           MMR11006160421580032450616000000000000000   10300005 00104100000000000000000000003648     
100   62622000307755440000000000038000000000038000002000000010410406160457000032490427390616216711003249   1030000100030000   541110001907777031200000019MOB BANK               YGN           MMR11006160457000032490616000000000000000   10300006 00104100000000000000000000007600     
100   35710500324433170000000000057300000000057300002000000010410406160723450007385058220616216713000738   1030000100030000   541120003008777031200000030MOB BANK               YGN           MMR11006160723450007380616000000000000000   10300005 00104100000000000000000000011460     
100   35710830485748900000000000005000000000005000002000000010410406160549510005755859310616216712000575   1030000100030000   541120003005777031200000030MOB BANK               YGN           MMR11006160549510005750616000000000000000   10300003 00104100000000000000000000001000     
100   95030518873402510000000000068200000000068200002000000010410406160641460009474QGZIT0616216713000947   1030000100030000   581210001501777031200000015MOB BANK               YGN           MMR11006160641460009470616000000000000000   10300002 00104100000000000000000000023188     
100   9503051885018834000000000000950000000000950000200000001041040616110330001958KSR4DI0616216717001958   1030000100030000   541120003117777031200000031MOB BANK               YGN           MMR11006161103300019580616000000000000000   10300002 00104100000000000000000000001900     
100   35710500161614890000000000007950000000007950002000000010410406160947090025866083500616216716002586   1030000100030000   541110001905777031200000019MOB BANK               YGN           MMR11006160947090025860616000000000000000   10300005 00104100000000000000000000001590     
100   95030201000351880000000000033000000000033000002000000010410406160341300032420000140616216710003242   1030000100030000   541110001907777031200000019MOB BANK               YGN           MMR11006160341300032420616000000000000000   10200002 00104100000000000000000000006600     
100   9503051020837965000000000000950000000000950000200000001041040616080406000801E9NHA10616216714000801   1030000100030000   541120003103777031200000031MOB BANK               YGN           MMR11006160804060008010616000000000000000   10300002 00104100000000000000000000001900     
100   950319000530436700000000000399000000000399000020000000104104061607532600177374SS3C0616216714001773   1030000100030000   541110001903777031200000019MOB BANK               YGN           MMR11006160753260017730616000000000000000   10300014 00104100000000000000000000007980     
100   62622000524595220000000000043600000000043600002000000010410406160808030005550300500616216714000555   1030000100030000   541120003111777031200000031MOB BANK               YGN           MMR11006160808030005550616000000000000000   10300006 00104100000000000000000000008720     
100   35710500152008820000000000040000000000040000002000000010410406160527540017472037660616216711001747   1030000100030000   541160000001777031200000006MOB BANK               YGN           MMR11006160527540017470616000000000000000   10300005 00104100000000000000000000008000     
100   35710500335563720000000000157800000000157800002000000010410406160945370017493835340616216716001749   1030000100030000   541160000001777031200000006MOB BANK               YGN           MMR11006160945370017490616000000000000000   10300005 00104100000000000000000000031560     
100   950305189555639300000000000600000000000600000020000000104104061606500600325482PYCO0616216713003254   1030000100030000   541110001907777031200000019MOB BANK               YGN           MMR11006160650060032540616000000000000000   10300002 00104100000000000000000000012000     
100   35710830096276610000000000033500000000033500002000000010410406160445390019505474100616216711001950   1030000100030000   541120003117777031200000031MOB BANK               YGN           MMR11006160445390019500616000000000000000   10300003 00104100000000000000000000006700     
100   95030800049782970000000000024000000000024000002000000010410406161154400018198048210616216718001819   1030000100030000   541120003106777031200000031MOB BANK               YGN           MMR11006161154400018190616000000000000000   10300003 00104100000000000000000000004800     
100   9503051025065935000000000001536000000001536000200000001041040616110338000206JGFFK80616216717000206   1030000100030000   541120003006777031200000030MOB BANK               YGN           MMR11006161103380002060616000000000000000   10300002 00104100000000000000000000003072     
100   9503051894485867000000000009840000000009840000200000001041040616121529001753JMXCDU0616216718001753   1030000100030000   541160000001777031200000006MOB BANK               YGN           MMR11006161215290017530616000000000000000   10300002 00104100000000000000000000019680     
100   35710500371406110000000000021700000000021700002000000010410406160827210019542669210616216714001954   1030000100030000   541120003117777031200000031MOB BANK               YGN           MMR11006160827210019540616000000000000000   10300005 00104100000000000000000000004340     
100   95030800072155490000000000013328000000013328002000000010410406160926500032587161210616216715003258   1030000100030000   541110001907777031200000019MOB BANK               YGN           MMR11006160926500032580616000000000000000   10300003 00104100000000000000000000002666     
100   9503051885994901000000000001970000000001970000200000001041040616060558000377SYBTDH0616216712000377   1030000100030000   541120003002777031200000030MOB BANK               YGN           MMR11006160605580003770616000000000000000   10300002 00104100000000000000000000003940     
100   9503051891060176000000000001700000000001700000200000001041040616082921000804KWHR5E0616216714000804   1030000100030000   541120003103777031200000031MOB BANK               YGN           MMR11006160829210008040616000000000000000   10300002 00104100000000000000000000003400     
100   9503051897519316000000000002400000000002400000200000001041040616123002000806ISUWIC0616216719000806   1030000100030000   541120003103777031200000031MOB BANK               YGN           MMR11006161230020008060616000000000000000   10300002 00104100000000000000000000004800     
100   35710500161598630000000000004992000000004992002000000010410406160752370007403201660616216714000740   1030000100030000   541120003008777031200000030MOB BANK               YGN           MMR11006160752370007400616000000000000000   10300005 00104100000000000000000000000998     
