100   35710500141061630000000000027900000000027900002000000010410406170919550002115886430617216815000211   1030000100030000   541120003006777031200000030MOB BANK               YGN           MMR11006170919550002110617000000000000000   10300005 00104100000000000000000000005580     
100   35710830515799190000000000005800000000005800002000000010410406170904120005785665310617216815000578   1030000100030000   541120003005777031200000030MOB BANK               YGN           MMR11006170904120005780617000000000000000   10300003 00104100000000000000000000001160     
100   9503051026080859000000000001230000000001230000200000001041040617080518000397OTOW7A0617216814000397   1030000100030000   541120003013777031200000030MOB BANK               YGN           MMR11006170805180003970617000000000000000   10300002 00104100000000000000000000002460     
100   950305102279638300000000000180000000000180000020000000104104061706145700040741D5RY0617216812000407   1030000100030000   541120003105777031200000031MOB BANK               YGN           MMR11006170614570004070617000000000000000   10300002 00104100000000000000000000003600     
100   35710500135973620000000000008750000000008750002000000010410406171115100005798612390617216817000579   1030000100030000   541120003005777031200000030MOB BANK               YGN           MMR11006171115100005790617000000000000000   10300005 00104100000000000000000000001750     
100   35710500305404370000000000045200000000045200002000000010410406171034190004218713640617216817000421   1030000100030000   541120003001777031200000030MOB BANK               YGN           MMR11006171034190004210617000000000000000   10300005 00104100000000000000000000009040     
100   9503051897432890000000000001750000000001750000200000001041040617120429000561C1OCAZ0617216818000561   1030000100030000   541120003111777031200000031MOB BANK               YGN           MMR11006171204290005610617000000000000000   10300002 00104100000000000000000000003500     
100   35710500112066020000000000008000000000008000002000000010410406171103580006664244900617216817000666   1030000100030000   541120003104777031200000031MOB BANK               YGN           MMR11006171103580006660617000000000000000   10300005 00104100000000000000000000001600     
100   9503051885721320000000000001700000000001700000200000001041040617025600000017JLJJZR0617216809000017   1030000100030000   541110900003777030900000003MOB BANK               YGN           MMR11006170256000000170617000000000000000   10300002 00104100000000000000000000003400     
100   9503051873691980000000000002500000000002500000200000001041040617072557000018PXPNEB0617216813000018   1030000100030000   541110900003777030900000003MOB BANK               YGN           MMR11006170725570000180617000000000000000   10300002 00104100000000000000000000005000     
100   9503051020171217000000000000640000000000640000200000001041040617045207000557WNQIHZ0617216811000557   1030000100030000   541120003111777031200000031MOB BANK               YGN           MMR11006170452070005570617000000000000000   10300002 00104100000000000000000000001280     
100   9503051873269506000000000001950000000001950000200000001041040617061312000405NYQMZT0617216812000405   1030000100030000   541120003105777031200000031MOB BANK               YGN           MMR11006170613120004050617000000000000000   10300002 00104100000000000000000000003900     
100   9503051896089840000000000007000000000007000000200000001041040617065303000208PB85O60617216813000208   1030000100030000   541120003006777031200000030MOB BANK               YGN           MMR11006170653030002080617000000000000000   10300002 00104100000000000000000000014000     
100   62622000817203730000000000029000000000029000002000000010410406170743180003491110060617216814000349   1030000100030000   541120003012777031200000030MOB BANK               YGN           MMR11006170743180003490617000000000000000   10300006 00104100000000000000000000005800     
100   35710830253483420000000000025990000000025990002000000010410406171120170003996481910617216817000399   1030000100030000   541120003013777031200000030MOB BANK               YGN           MMR11006171120170003990617000000000000000   10300003 00104100000000000000000000005198     
100   62921400070530180000000000049440000000049440002000000010410406170738130005582222220617216814000558   1030000100030000   541120003111777031200000031MOB BANK               YGN           MMR11006170738130005580617000000000000000   10300009 00104100000000000000000000009888     
100   62622000606864620000000000007600000000007600002000000010410406170320150005771397230617216809000577   1030000100030000   541120003005777031200000030MOB BANK               YGN           MMR11006170320150005770617000000000000000   10300006 00104100000000000000000000001520     
100   35710500109511330000000000032000000000032000002000000010410406171200280006972383210617216818000697   1030000100030000   581210001201777031200000012MOB BANK               YGN           MMR11006171200280006970617000000000000000   10300005 00104100000000000000000000010880     
100   35710830077294770000000000029383000000029383002000000010410406171214240005806806510617216818000580   1030000100030000   541120003005777031200000030MOB BANK               YGN           MMR11006171214240005800617000000000000000   10300003 00104100000000000000000000005877     
100   9503051025317716000000000013140000000013140000200000001041040617085228001762KSNOM50617216815001762   1030000100030000   541160000001777031200000006MOB BANK               YGN           MMR11006170852280017620617000000000000000   10300002 00104100000000000000000000026280     
100   9503051022792622000000000002100000000002100000200000001041040617054045001432HOQ50A0617216812001432   1030000100030000   541110001920777031200000019MOB BANK               YGN           MMR11006170540450014320617000000000000000   10300002 00104100000000000000000000004200     
100   9503051889820144000000000001150000000001150000200000001041040617084700001440BBNNZI0617216815001440   1030000100030000   541110001920777031200000019MOB BANK               YGN           MMR11006170847000014400617000000000000000   10300002 00104100000000000000000000002300     
100   35710500146108420000000000019950000000019950002000000010410406170514510019728479760617216811001972   1030000100030000   541120003117777031200000031MOB BANK               YGN           MMR11006170514510019720617000000000000000   10300005 00104100000000000000000000003990     
100   9503051885556932000000000001899000000001899000200000001041040617114933001801R5HL0W0617216818001801   1030000100030000   541110001903777031200000019MOB BANK               YGN           MMR11006171149330018010617000000000000000   10300002 00104100000000000000000000003798     
100   35710830250360530000000000014800000000014800002000000010410406170638360015044791720617216813001504   1030000100030000   541110001915777031200000019MOB BANK               YGN           MMR11006170638360015040617000000000000000   10300003 00104100000000000000000000002960     
100   9503051886260484000000000001090000000001090000200000001041040617081200001507IOE5IJ0617216814001507   1030000100030000   541110001915777031200000019MOB BANK               YGN           MMR11006170812000015070617000000000000000   10300002 00104100000000000000000000002180     
100   35710500362771170000000000011300000000011300002000000010410406170815000015090947330617216814001509   1030000100030000   541110001915777031200000019MOB BANK               YGN           MMR11006170815000015090617000000000000000   10300005 00104100000000000000000000002260     
100   9503051888973100000000000027600000000027600000200000001041040617115906001766XAKBBO0617216818001766   1030000100030000   541160000001777031200000006MOB BANK               YGN           MMR11006171159060017660617000000000000000   10300002 00104100000000000000000000055200     
100   9503190003589696000000000001920000000001920000200000001041040617091040001444ML399H0617216815001444   1030000100030000   541110001920777031200000019MOB BANK               YGN           MMR11006170910400014440617000000000000000   10300014 00104100000000000000000000003840     
100   9503051020892051000000000002800000000002800000200000001041040617094402001449QK0PZA0617216816001449   1030000100030000   541110001920777031200000019MOB BANK               YGN           MMR11006170944020014490617000000000000000   10300002 00104100000000000000000000005600     
100   95030518880869940000000000249600000000249600002000000010410406170535030019778JBC1N0617216812001977   1030000100030000   541120003117777031200000031MOB BANK               YGN           MMR11006170535030019770617000000000000000   10300002 00104100000000000000000000049920     
100   35710500167658420000000000031800000000031800002000000010410406171251070018045056850617216819001804   1030000100030000   541110001903777031200000019MOB BANK               YGN           MMR11006171251070018040617000000000000000   10300005 00104100000000000000000000006360     
100   35710830388836990000000000069384000000069384002000000010410406170642470025964816810617216813002596   1030000100030000   541110001905777031200000019MOB BANK               YGN           MMR11006170642470025960617000000000000000   10300003 00104100000000000000000000013877     
100   9503051024727048000000000000560000000000560000200000001041040617072424002604XZAG450617216813002604   1030000100030000   541110001905777031200000019MOB BANK               YGN           MMR11006170724240026040617000000000000000   10300002 00104100000000000000000000001120     
100   9503190006604906000000000002970000000002970000200000001041040617085909001513XBZ26G0617216815001513   1030000100030000   541110001915777031200000019MOB BANK               YGN           MMR11006170859090015130617000000000000000   10300014 00104100000000000000000000005940     
100   35710500365714850000000000300000000000300000002000000010410406170654200017880119680617216813001788   1030000100030000   541110001903777031200000019MOB BANK               YGN           MMR11006170654200017880617000000000000000   10300005 00104100000000000000000000060000     
100   9503051025990603000000000003880000000003880000200000001041040617075201001790T8JT8A0617216814001790   1030000100030000   541110001903777031200000019MOB BANK               YGN           MMR11006170752010017900617000000000000000   10300002 00104100000000000000000000007760     
100   9503054000674101000000000001750000000001750000200000001041040617062308001983S0IO4X0617216812001983   1030000100030000   541120003117777031200000031MOB BANK               YGN           MMR11006170623080019830617000000000000000   10300002 00104100000000000000000000003500     
100   9503051888118052000000000002890000000002890000200000001041040617073914001987VARUQR0617216814001987   1030000100030000   541120003117777031200000031MOB BANK               YGN           MMR11006170739140019870617000000000000000   10300002 00104100000000000000000000005780     
100   35710830768069170000000000012705000000012705002000000010410406170936540015635861510617216816001563   1030000100030000   581250000001777031200000005MOB BANK               YGN           MMR11006170936540015630617000000000000000   10300003 00104100000000000000000000004320     
100   9503051026361051000000000002585000000002585000200000001041040617095036001564AE0KJR0617216816001564   1030000100030000   581250000001777031200000005MOB BANK               YGN           MMR11006170950360015640617000000000000000   10300002 00104100000000000000000000008789     
100   9503051026246260000000000002596000000002596000200000001041040617121248001565ZBRCOW0617216818001565   1030000100030000   581250000001777031200000005MOB BANK               YGN           MMR11006171212480015650617000000000000000   10300002 00104100000000000000000000008826     
100   9503051024477479000000000002273600000002273600200000001041040617095833002615IQWY3Z0617216816002615   1030000100030000   541110001905777031200000019MOB BANK               YGN           MMR11006170958330026150617000000000000000   10300002 00104100000000000000000000004547     
100   62921400047391970000000000005700000000005700002000000010410406170952380015152222220617216816001515   1030000100030000   541110001915777031200000019MOB BANK               YGN           MMR11006170952380015150617000000000000000   10300009 00104100000000000000000000001140     
100   95030510256922330000000000011900000000011900002000000010410406171043000015190QD6G80617216817001519   1030000100030000   541110001915777031200000019MOB BANK               YGN           MMR11006171043000015190617000000000000000   10300002 00104100000000000000000000002380     
100   95031900000573250000000000086600000000086600002000000010410406170831330017930K3U7H0617216815001793   1030000100030000   541110001903777031200000019MOB BANK               YGN           MMR11006170831330017930617000000000000000   10300014 00104100000000000000000000017320     
100   35710500165438840000000000038800000000038800002000000010410406170940240017959302440617216816001795   1030000100030000   541110001903777031200000019MOB BANK               YGN           MMR11006170940240017950617000000000000000   10300005 00104100000000000000000000007760     
100   35710830229954830000000000010780000000010780002000000010410406181148590015715294110618216918001571   1030000100030000   581250000001777031200000005MOB BANK               YGN           MMR11006181148590015710618000000000000000   10300003 00104100000000000000000000003665     
100   9503051022705442000000000003204600000003204600200000001041040618104803000624VAUKRU0618216917000624   1030000100030000   541120003003777031200000030MOB BANK               YGN           MMR11006181048030006240618000000000000000   10300002 00104100000000000000000000006409     
100   62343301013188690000000000123200000000123200002000000010410406180955280007028039990618216916000702   1030000100030000   581210001201777031200000012MOB BANK               YGN           MMR11006180955280007020618000000000000000   10300004 00104100000000000000000000041888     
100   35710830755497990000000000021136000000021136002000000010410406180936290003574499100618216916000357   1030000100030000   541120003012777031200000030MOB BANK               YGN           MMR11006180936290003570618000000000000000   10300003 00104100000000000000000000004227     
100   35710500334769360000000000039425000000039425002000000010410406180826130004034917050618216914000403   1030000100030000   541120003013777031200000030MOB BANK               YGN           MMR11006180826130004030618000000000000000   10300005 00104100000000000000000000007885     
100   35710830204185870000000000033120000000033120002000000010410406181051580005684951920618216917000568   1030000100030000   541120003111777031200000031MOB BANK               YGN           MMR11006181051580005680618000000000000000   10300003 00104100000000000000000000006624     
100   9503051025898160000000000013300000000013300000200000001041040618061721000565YKKKWP0618216912000565   1030000100030000   541120003111777031200000031MOB BANK               YGN           MMR11006180617210005650618000000000000000   10300002 00104100000000000000000000026600     
100   9503051025591005000000000031980000000031980000200000001041040618094323001773MZYPLN0618216916001773   1030000100030000   541160000001777031200000006MOB BANK               YGN           MMR11006180943230017730618000000000000000   10300002 00104100000000000000000000063960     
100   9503051024904878000000000001700000000001700000200000001041040617122319001464C8TATN0617216818001464   1030000100030000   541110001920777031200000019MOB BANK               YGN           MMR11006171223190014640617000000000000000   10300002 00104100000000000000000000003400     
100   95030510262462600000000000013145000000013145002000000010410406171224080015663K9C0K0617216818001566   1030000100030000   581250000001777031200000005MOB BANK               YGN           MMR11006171224080015660617000000000000000   10300002 00104100000000000000000000004469     
100   35710500384044870000000000004116000000004116002000000010410406170422110019667370160617216810001966   1030000100030000   541120003117777031200000031MOB BANK               YGN           MMR11006170422110019660617000000000000000   10300005 00104100000000000000000000000823     
100   35710830354450210000000000083600000000083600002000000010410406171137230015216584420617216818001521   1030000100030000   541110001915777031200000019MOB BANK               YGN           MMR11006171137230015210617000000000000000   10300003 00104100000000000000000000016720     
100   62343301016281430000000000008480000000008480002000000010410406171210470015239988920617216818001523   1030000100030000   541110001915777031200000019MOB BANK               YGN           MMR11006171210470015230617000000000000000   10300004 00104100000000000000000000001696     
100   35710500364200550000000000015500000000015500002000000010410406171052250017971464300617216817001797   1030000100030000   541110001903777031200000019MOB BANK               YGN           MMR11006171052250017970617000000000000000   10300005 00104100000000000000000000003100     
100   9503051025707593000000000019323000000019323000200000001041040617062806001758YNNLG70617216812001758   1030000100030000   541160000001777031200000006MOB BANK               YGN           MMR11006170628060017580617000000000000000   10300002 00104100000000000000000000038646     
100   9503051873061184000000000000600000000000600000200000001041040617122457001467CTEKQZ0617216818001467   1030000100030000   541110001920777031200000019MOB BANK               YGN           MMR11006171224570014670617000000000000000   10300002 00104100000000000000000000001200     
100   35710900056202690000000000014245000000014245002000000010410406181241310015735609210618216919001573   1030000100030000   581250000001777031200000005MOB BANK               YGN           MMR11006181241310015730618000000000000000   10300003 00104100000000000000000000004843     
100   9503051896846488000000000001750000000001750000200000001041040618062533000381W6AQ2O0618216912000381   1030000100030000   541120003002777031200000030MOB BANK               YGN           MMR11006180625330003810618000000000000000   10300002 00104100000000000000000000003500     
100   62346600171218780000000000043500000000043500002000000010410406180814090005664996430618216914000566   1030000100030000   541120003111777031200000031MOB BANK               YGN           MMR11006180814090005660618000000000000000   10300005 00104100000000000000000000008700     
100   35710830755497990000000000023904000000023904002000000010410406180941010007544526310618216916000754   1030000100030000   541120003008777031200000030MOB BANK               YGN           MMR11006180941010007540618000000000000000   10300003 00104100000000000000000000004781     
100   9503051895874986000000000001400000000001400000200000001041040618102547001503GNAEQE0618216916001503   1030000100030000   541110001920777031200000019MOB BANK               YGN           MMR11006181025470015030618000000000000000   10300002 00104100000000000000000000002800     
100   35710830588795360000000000004650000000004650002000000010410406180849080004244214920618216915000424   1030000100030000   541120003001777031200000030MOB BANK               YGN           MMR11006180849080004240618000000000000000   10300003 00104100000000000000000000000930     
100   9503054000515171000000000003650000000003650000200000001041040618101350000622YTAG2M0618216916000622   1030000100030000   541120003003777031200000030MOB BANK               YGN           MMR11006181013500006220618000000000000000   10300002 00104100000000000000000000007300     
100   9503051892156429000000000000890000000000890000200000001041040618112743000572VRJ9B40618216917000572   1030000100030000   541120003111777031200000031MOB BANK               YGN           MMR11006181127430005720618000000000000000   10300002 00104100000000000000000000001780     
100   9503051021046442000000000003190000000003190000200000001041040617105432001827E6RFEU0617216817001827   1030000100030000   541120003106777031200000031MOB BANK               YGN           MMR11006171054320018270617000000000000000   10300002 00104100000000000000000000006380     
100   35710500305450140000000000035800000000035800002000000010410406170410390017833455730617216810001783   1030000100030000   541110001903777031200000019MOB BANK               YGN           MMR11006170410390017830617000000000000000   10300005 00104100000000000000000000007160     
100   9503051893126066000000000001440000000001440000200000001041040617110113001799JH0ORM0617216817001799   1030000100030000   541110001903777031200000019MOB BANK               YGN           MMR11006171101130017990617000000000000000   10300002 00104100000000000000000000002880     
100   9503051026433231000000000001140000000001140000200000001041040617043326001500EKJAIO0617216811001500   1030000100030000   541110001915777031200000019MOB BANK               YGN           MMR11006170433260015000617000000000000000   10300002 00104100000000000000000000002280     
100   9503051891180610000000000002750000000002750000200000001041040617055544001502QB18VE0617216812001502   1030000100030000   541110001915777031200000019MOB BANK               YGN           MMR11006170555440015020617000000000000000   10300002 00104100000000000000000000005500     
100   9503051895048789000000000008493000000008493000200000001041040617065701001760SUKZOP0617216813001760   1030000100030000   541160000001777031200000006MOB BANK               YGN           MMR11006170657010017600617000000000000000   10300002 00104100000000000000000000016986     
100   62346600102356590000000000042900000000042900002000000010410406170430540017856738830617216811001785   1030000100030000   541110001903777031200000019MOB BANK               YGN           MMR11006170430540017850617000000000000000   10300005 00104100000000000000000000008580     
100   95030201000351880000000000019404000000019404002000000010410406170331060032639763930617216810003263   1030000100030000   541110001907777031200000019MOB BANK               YGN           MMR11006170331060032630617000000000000000   10200002 00104100000000000000000000003881     
100   9503190003156298000000000002783200000002783200200000001041040618083450000748NQJ08I0618216915000748   1030000100030000   541120003008777031200000030MOB BANK               YGN           MMR11006180834500007480618000000000000000   10300014 00104100000000000000000000005566     
100   35710830588795360000000000012000000000012000002000000010410406180837190007494144020618216915000749   1030000100030000   541120003008777031200000030MOB BANK               YGN           MMR11006180837190007490618000000000000000   10300003 00104100000000000000000000002400     
100   9503190003156298000000000005035000000005035000200000001041040618082907000404FRW1U20618216914000404   1030000100030000   541120003013777031200000030MOB BANK               YGN           MMR11006180829070004040618000000000000000   10300014 00104100000000000000000000010070     
100   9503051884936077000000000000545000000000545000200000001041040618064138000616YOJ16G0618216913000616   1030000100030000   541120003003777031200000030MOB BANK               YGN           MMR11006180641380006160618000000000000000   10300002 00104100000000000000000000001090     
100   35710500131808620000000000006000000000006000002000000010410406180623080006724828470618216912000672   1030000100030000   541120003104777031200000031MOB BANK               YGN           MMR11006180623080006720618000000000000000   10300005 00104100000000000000000000001200     
100   62622000267447690000000000096000000000096000002000000010410406180547070003181737530618216912000318   1030000100030000   541110001917777031200000019MOB BANK               YGN           MMR11006180547070003180618000000000000000   10300006 00104100000000000000000000019200     
100   95030518871910760000000000006811000000006811002000000010410406181123530005821ZRHNF0618216917000582   1030000100030000   541120003005777031200000030MOB BANK               YGN           MMR11006181123530005820618000000000000000   10300002 00104100000000000000000000001362     
100   950305189587498600000000000120000000000120000020000000104104061811113700150641NYH50618216917001506   1030000100030000   541110001920777031200000019MOB BANK               YGN           MMR11006181111370015060618000000000000000   10300002 00104100000000000000000000002400     
100   35710830971908200000000000173700000000173700002000000010410406170343540032663743510617216810003266   1030000100030000   541110001907777031200000019MOB BANK               YGN           MMR11006170343540032660617000000000000000   10300003 00104100000000000000000000034740     
100   9503051895556393000000000011500000000011500000200000001041040617061732003270GJKKQS0617216812003270   1030000100030000   541110001907777031200000019MOB BANK               YGN           MMR11006170617320032700617000000000000000   10300002 00104100000000000000000000023000     
100   35710830388836990000000000062573000000062573002000000010410406170646510032724841310617216813003272   1030000100030000   541110001907777031200000019MOB BANK               YGN           MMR11006170646510032720617000000000000000   10300003 00104100000000000000000000012515     
100   35710500341373700000000000018000000000018000002000000010410406170655340032748467200617216813003274   1030000100030000   541110001907777031200000019MOB BANK               YGN           MMR11006170655340032740617000000000000000   10300005 00104100000000000000000000003600     
100   9503051024468775000000000000430000000000430000200000001041040617075114003278PUQY840617216814003278   1030000100030000   541110001907777031200000019MOB BANK               YGN           MMR11006170751140032780617000000000000000   10300002 00104100000000000000000000000860     
100   95030510230236470000000000031500000000031500002000000010410406170924200032809AZHIK0617216815003280   1030000100030000   541110001907777031200000019MOB BANK               YGN           MMR11006170924200032800617000000000000000   10300002 00104100000000000000000000006300     
100   9503051889820144000000000002065000000002065000200000001041040617100322003283COC7OP0617216816003283   1030000100030000   541110001907777031200000019MOB BANK               YGN           MMR11006171003220032830617000000000000000   10300002 00104100000000000000000000004130     
100   9503051892400686000000000000700000000000700000200000001041040617115922003291IJXMMW0617216818003291   1030000100030000   541110001907777031200000019MOB BANK               YGN           MMR11006171159220032910617000000000000000   10300002 00104100000000000000000000001400     
100   9503051885953626000000000002496000000002496000200000001041040618105408000569KKGLQK0618216917000569   1030000100030000   541120003111777031200000031MOB BANK               YGN           MMR11006181054080005690618000000000000000   10300002 00104100000000000000000000004992     
100   9503051886164074000000000001850000000001850000200000001041040618110009000570UUPXWN0618216917000570   1030000100030000   541120003111777031200000031MOB BANK               YGN           MMR11006181100090005700618000000000000000   10300002 00104100000000000000000000003700     
100   35710830407674350000000000018800000000018800002000000010410406180956230018334618410618216916001833   1030000100030000   541110001903777031200000019MOB BANK               YGN           MMR11006180956230018330618000000000000000   10300003 00104100000000000000000000003760     
100   35710950617061590000000000011520000000011520002000000010410406180931270033324468910618216916003332   1030000100030000   541110001907777031200000019MOB BANK               YGN           MMR11006180931270033320618000000000000000   10300003 00104100000000000000000000002304     
100   35710500384860210000000000044800000000044800002000000010410406180431120018127118900618216911001812   1030000100030000   541110001903777031200000019MOB BANK               YGN           MMR11006180431120018120618000000000000000   10300005 00104100000000000000000000008960     
100   35710500141371680000000000038800000000038800002000000010410406180435230018134991490618216911001813   1030000100030000   541110001903777031200000019MOB BANK               YGN           MMR11006180435230018130618000000000000000   10300005 00104100000000000000000000007760     
100   9503051885483558000000000023640000000023640000200000001041040618101502001835TQ2CM50618216916001835   1030000100030000   541110001903777031200000019MOB BANK               YGN           MMR11006181015020018350618000000000000000   10300002 00104100000000000000000000047280     
100   9503051021957267000000000005710000000005710000200000001041040618101004002012BACJ650618216916002012   1030000100030000   541120003117777031200000031MOB BANK               YGN           MMR11006181010040020120618000000000000000   10300002 00104100000000000000000000011420     
100   35710500196096330000000000051700000000051700002000000010410406171301360032942863850617216819003294   1030000100030000   541110001907777031200000019MOB BANK               YGN           MMR11006171301360032940617000000000000000   10300005 00104100000000000000000000010340     
100   9503051890093269000000000007245000000007245000200000001041040617130517003297SSYKTU0617216819003297   1030000100030000   541110001907777031200000019MOB BANK               YGN           MMR11006171305170032970617000000000000000   10300002 00104100000000000000000000014490     
100   35710830609652810000000000009500000000009500002000000010410406170446590032684122110617216811003268   1030000100030000   541110001907777031200000019MOB BANK               YGN           MMR11006170446590032680617000000000000000   10300003 00104100000000000000000000001900     
100   35710830064936040000000000017450000000017450002000000010410406171024380032856148010617216816003285   1030000100030000   541110001907777031200000019MOB BANK               YGN           MMR11006171024380032850617000000000000000   10300003 00104100000000000000000000003490     
100   9503051888696289000000000000102900000000102900200000001041040617032259003261NRH8HK0617216809003261   1030000100030000   541110001907777031200000019MOB BANK               YGN           MMR11006170322590032610617000000000000000   10300002 00104100000000000000000000000206     
100   35710500305391320000000000006800000000006800002000000010410406170719030014366792850617216813001436   1030000100030000   541110001920777031200000019MOB BANK               YGN           MMR11006170719030014360617000000000000000   10300005 00104100000000000000000000001360     
100   9503051023343094000000000002860000000002860000200000001041040617060107001980USQQVK0617216812001980   1030000100030000   541120003117777031200000031MOB BANK               YGN           MMR11006170601070019800617000000000000000   10300002 00104100000000000000000000005720     
100   9503190002890459000000000002420000000002420000200000001041040617085241002610O3PW1R0617216815002610   1030000100030000   541110001905777031200000019MOB BANK               YGN           MMR11006170852410026100617000000000000000   10300014 00104100000000000000000000004840     
100   62441900003098090000000000046000000000046000002000000010410406180927220026219802480618216915002621   1030000100030000   541110001905777031200000019MOB BANK               YGN           MMR11006180927220026210618000000000000000   10300003 00104100000000000000000000016100     
100   9503190000297400000000000002500000000002500000200000001041040618070754001823U0S23Z0618216913001823   1030000100030000   541110001903777031200000019MOB BANK               YGN           MMR11006180707540018230618000000000000000   10300014 00104100000000000000000000005000     
100   9503051888672785000000000001980000000001980000200000001041040618080212001824ZSEN3I0618216914001824   1030000100030000   541110001903777031200000019MOB BANK               YGN           MMR11006180802120018240618000000000000000   10300002 00104100000000000000000000003960     
100   62622000620593870000000000013200000000013200002000000010410406181102280026241610490618216917002624   1030000100030000   541110001905777031200000019MOB BANK               YGN           MMR11006181102280026240618000000000000000   10300006 00104100000000000000000000002640     
100   35710500175833190000000000070800000000070800002000000010410406181213130026276302950618216918002627   1030000100030000   541110001905777031200000019MOB BANK               YGN           MMR11006181213130026270618000000000000000   10300005 00104100000000000000000000014160     
100   35710500314252400000000000057250000000057250002000000010410406181113060033381910750618216917003338   1030000100030000   541110001907777031200000019MOB BANK               YGN           MMR11006181113060033380618000000000000000   10300005 00104100000000000000000000011450     
100   95030510250125720000000000034600000000034600002000000010410406181013380020147DARKL0618216916002014   1030000100030000   541120003117777031200000031MOB BANK               YGN           MMR11006181013380020140618000000000000000   10300002 00104100000000000000000000006920     
100   95030510254921470000000000063210000000063210002000000010410406181126040033412RATE30618216917003341   1030000100030000   541110001907777031200000019MOB BANK               YGN           MMR11006181126040033410618000000000000000   10300002 00104100000000000000000000012642     
100   35710950158156500000000000117700000000117700002000000010410406161315330006938533410616216719000693   1030000100030000   581210001201777031200000012MOB BANK               YGN           MMR11006161315330006930616000000000000000   10300003 00104100000000000000000000040018     
100   35710500150128320000000000080300000000080300002000000010410406161444290006947370380616216721000694   1030000100030000   581210001201777031200000012MOB BANK               YGN           MMR11006161444290006940616000000000000000   10300005 00104100000000000000000000027302     
100   9503051892638707000000000000570000000000570000200000001041040618054714000745YFQBTI0618216912000745   1030000100030000   541120003008777031200000030MOB BANK               YGN           MMR11006180547140007450618000000000000000   10300002 00104100000000000000000000001140     
100   9503051885787586000000000004570000000004570000200000001041040618074528000746CVB3PX0618216914000746   1030000100030000   541120003008777031200000030MOB BANK               YGN           MMR11006180745280007460618000000000000000   10300002 00104100000000000000000000009140     
100   35710830986756050000000000018000000000018000002000000010410406180846000003854196110618216915000385   1030000100030000   541120003002777031200000030MOB BANK               YGN           MMR11006180846000003850618000000000000000   10300003 00104100000000000000000000003600     
100   9503051897186652000000000000460000000000460000200000001041040618100514000674ET8XTK0618216916000674   1030000100030000   541120003104777031200000031MOB BANK               YGN           MMR11006181005140006740618000000000000000   10300002 00104100000000000000000000000920     
100   35710830236480320000000000017500000000017500002000000010410406181057130002164983510618216917000216   1030000100030000   541120003006777031200000030MOB BANK               YGN           MMR11006181057130002160618000000000000000   10300003 00104100000000000000000000003500     
100   9503051023952316000000000004370000000004370000200000001041040618075713000323CK1S280618216914000323   1030000100030000   541110001917777031200000019MOB BANK               YGN           MMR11006180757130003230618000000000000000   10300002 00104100000000000000000000008740     
100   95030800038698360000000000057900000000057900002000000010410406180815170018254011910618216914001825   1030000100030000   541110001903777031200000019MOB BANK               YGN           MMR11006180815170018250618000000000000000   10300003 00104100000000000000000000011580     
100   9503051894170980000000000000770000000000770000200000001041040618041302003301KW62D80618216910003301   1030000100030000   541110001907777031200000019MOB BANK               YGN           MMR11006180413020033010618000000000000000   10300002 00104100000000000000000000001540     
100   95030201000351880000000000050150000000050150002000000010410406181155050033442801510618216918003344   1030000100030000   541110001907777031200000019MOB BANK               YGN           MMR11006181155050033440618000000000000000   10200002 00104100000000000000000000010030     
100   9503190003288307000000000002391200000002391200200000001041040618123358003346B81MRC0618216919003346   1030000100030000   541110001907777031200000019MOB BANK               YGN           MMR11006181233580033460618000000000000000   10300014 00104100000000000000000000004782     
100   9503051024986610000000000004174800000004174800200000001041040618050300003305TYNDAZ0618216911003305   1030000100030000   541110001907777031200000019MOB BANK               YGN           MMR11006180503000033050618000000000000000   10300002 00104100000000000000000000008350     
100   9503051885483558000000000002500000000002500000200000001041040618102454001840UHRNS30618216916001840   1030000100030000   541110001903777031200000019MOB BANK               YGN           MMR11006181024540018400618000000000000000   10300002 00104100000000000000000000005000     
100   35710500304781410000000000015000000000015000002000000010410406181036160018413017000618216917001841   1030000100030000   541110001903777031200000019MOB BANK               YGN           MMR11006181036160018410618000000000000000   10300005 00104100000000000000000000003000     
100   35710500394697450000000000043150000000043150002000000010410406181250440033506176990618216919003350   1030000100030000   541110001907777031200000019MOB BANK               YGN           MMR11006181250440033500618000000000000000   10300005 00104100000000000000000000008630     
100   95030518871910760000000000005096000000005096002000000010410406181227570006268CYB100618216918000626   1030000100030000   541120003003777031200000030MOB BANK               YGN           MMR11006181227570006260618000000000000000   10300002 00104100000000000000000000001019     
100   9503051025088689000000000002200000000002200000200000001041040618063337001481WOE2Z20618216913001481   1030000100030000   541110001920777031200000019MOB BANK               YGN           MMR11006180633370014810618000000000000000   10300002 00104100000000000000000000004400     
100   9503051026195541000000000008600000000008600000200000001041040618043824000297XHQDDX0618216911000297   1030000100030000   541120000006777031200000002MOB BANK               YGN           MMR11006180438240002970618000000000000000   10300002 00104100000000000000000000017200     
100   35710500370229830000000000014250000000014250002000000010410406181152420003290359510618216918000329   1030000100030000   541110001917777031200000019MOB BANK               YGN           MMR11006181152420003290618000000000000000   10300005 00104100000000000000000000002850     
100   9503051896846488000000000000925000000000925000200000001041040618064900000618PYGGWY0618216913000618   1030000100030000   541120003003777031200000030MOB BANK               YGN           MMR11006180649000006180618000000000000000   10300002 00104100000000000000000000001850     
100   9503051892156429000000000001095000000001095000200000001041040618114540000676OBQPFD0618216918000676   1030000100030000   541120003104777031200000031MOB BANK               YGN           MMR11006181145400006760618000000000000000   10300002 00104100000000000000000000002190     
100   35710830559820690000000000013800000000013800002000000010410406180824090007474065100618216914000747   1030000100030000   541120003008777031200000030MOB BANK               YGN           MMR11006180824090007470618000000000000000   10300003 00104100000000000000000000002760     
100   62346600172668710000000000055100000000055100002000000010410406180607220003209618990618216912000320   1030000100030000   541110001917777031200000019MOB BANK               YGN           MMR11006180607220003200618000000000000000   10300005 00104100000000000000000000011020     
100   9503051019623483000000000002045000000002045000200000001041040618113603002019REULCW0618216918002019   1030000100030000   541120003117777031200000031MOB BANK               YGN           MMR11006181136030020190618000000000000000   10300002 00104100000000000000000000004090     
100   35710500351321150000000000011730000000011730002000000010410406180447110018187328560618216911001818   1030000100030000   541110001903777031200000019MOB BANK               YGN           MMR11006180447110018180618000000000000000   10300005 00104100000000000000000000002346     
100   9503051894939178000000000003760000000003760000200000001041040618084017001827UEPAIU0618216915001827   1030000100030000   541110001903777031200000019MOB BANK               YGN           MMR11006180840170018270618000000000000000   10300002 00104100000000000000000000007520     
100   95030518910439580000000000044800000000044800002000000010410406180842350018292FASYX0618216915001829   1030000100030000   541110001903777031200000019MOB BANK               YGN           MMR11006180842350018290618000000000000000   10300002 00104100000000000000000000008960     
100   35710500110225040000000000011400000000011400002000000010410406180510320033101776340618216911003310   1030000100030000   541110001907777031200000019MOB BANK               YGN           MMR11006180510320033100618000000000000000   10300005 00104100000000000000000000002280     
100   62622000267447690000000000056900000000056900002000000010410406180518540018191608600618216911001819   1030000100030000   541110001903777031200000019MOB BANK               YGN           MMR11006180518540018190618000000000000000   10300006 00104100000000000000000000011380     
100   9503051885184784000000000003116400000003116400200000001041040618061409003316RHSUVC0618216912003316   1030000100030000   541110001907777031200000019MOB BANK               YGN           MMR11006180614090033160618000000000000000   10300002 00104100000000000000000000006233     
100   95031900066034600000000000110000000000110000002000000010410406180625580033189VXFSZ0618216912003318   1030000100030000   541110001907777031200000019MOB BANK               YGN           MMR11006180625580033180618000000000000000   10300014 00104100000000000000000000022000     
100   9503190004227528000000000000730000000000730000200000001041040618083630000405W1SWXH0618216915000405   1030000100030000   541120003013777031200000030MOB BANK               YGN           MMR11006180836300004050618000000000000000   10300014 00104100000000000000000000001460     
100   35710500322890900000000000016500000000016500002000000010410406180900260005677093900618216915000567   1030000100030000   541120003111777031200000031MOB BANK               YGN           MMR11006180900260005670618000000000000000   10300005 00104100000000000000000000003300     
100   35710500373767930000000000004400000000004400002000000010410406180413280006705219190618216910000670   1030000100030000   541120003104777031200000031MOB BANK               YGN           MMR11006180413280006700618000000000000000   10300005 00104100000000000000000000000880     
100   35710830040623770000000000014000000000014000002000000010410406180719100014833675210618216913001483   1030000100030000   541110001920777031200000019MOB BANK               YGN           MMR11006180719100014830618000000000000000   10300003 00104100000000000000000000002800     
100   35710830101436900000000000022475000000022475002000000010410406180903140015684299510618216915001568   1030000100030000   581250000001777031200000005MOB BANK               YGN           MMR11006180903140015680618000000000000000   10300003 00104100000000000000000000007642     
100   9503051893055943000000000002249500000002249500200000001041040618090808001569LFRX9Q0618216915001569   1030000100030000   581250000001777031200000005MOB BANK               YGN           MMR11006180908080015690618000000000000000   10300002 00104100000000000000000000007648     
100   9503051887923775000000000001600000000001600000200000001041040618083335000383OBFKDX0618216915000383   1030000100030000   541120003002777031200000030MOB BANK               YGN           MMR11006180833350003830618000000000000000   10300002 00104100000000000000000000003200     
100   9503051873016402000000000001100000000001100000200000001041040618093901000752RNFI5R0618216916000752   1030000100030000   541120003008777031200000030MOB BANK               YGN           MMR11006180939010007520618000000000000000   10300002 00104100000000000000000000002200     
100   35710830175768840000000000021800000000021800002000000010410406181129370018425177900618216917001842   1030000100030000   541110001903777031200000019MOB BANK               YGN           MMR11006181129370018420618000000000000000   10300003 00104100000000000000000000004360     
100   35710830808466440000000000104700000000104700002000000010410406181136090018435217010618216918001843   1030000100030000   541110001903777031200000019MOB BANK               YGN           MMR11006181136090018430618000000000000000   10300003 00104100000000000000000000020940     
100   62346600172668710000000000028800000000028800002000000010410406180534250018202825070618216912001820   1030000100030000   541110001903777031200000019MOB BANK               YGN           MMR11006180534250018200618000000000000000   10300005 00104100000000000000000000005760     
100   95030510239523160000000000010560000000010560002000000010410406180844390018315KVTNZ0618216915001831   1030000100030000   541110001903777031200000019MOB BANK               YGN           MMR11006180844390018310618000000000000000   10300002 00104100000000000000000000002112     
100   9503051024168920000000000001850000000001850000200000001041040618095525002004C8AC5B0618216916002004   1030000100030000   541120003117777031200000031MOB BANK               YGN           MMR11006180955250020040618000000000000000   10300002 00104100000000000000000000003700     
100   35710830565949540000000000018100000000018100002000000010410406181005130020084671420618216916002008   1030000100030000   541120003117777031200000031MOB BANK               YGN           MMR11006181005130020080618000000000000000   10300003 00104100000000000000000000003620     
100   9503051884474418000000000011600000000011600000200000001041040618055024001821H8ZDLU0618216912001821   1030000100030000   541110001903777031200000019MOB BANK               YGN           MMR11006180550240018210618000000000000000   10300002 00104100000000000000000000023200     
100   35710950321940300000000000035800000000035800002000000010410406180427160018102643710618216910001810   1030000100030000   541110001903777031200000019MOB BANK               YGN           MMR11006180427160018100618000000000000000   10300003 00104100000000000000000000007160     
100   62622000686410480000000000022000000000022000002000000010410406180415450008120932460618216910000812   1030000100030000   541120003103777031200000031MOB BANK               YGN           MMR11006180415450008120618000000000000000   10300006 00104100000000000000000000004400     
100   95031100011159890000000000007000000000007000002000000010410406180755130014881399780618216914001488   1030000100030000   541110001920777031200000019MOB BANK               YGN           MMR11006180755130014880618000000000000000   10300006 00104100000000000000000000001400     
100   35710950024238800000000000027000000000027000002000000010410406180803280014913940910618216914001491   1030000100030000   541110001920777031200000019MOB BANK               YGN           MMR11006180803280014910618000000000000000   10300003 00104100000000000000000000005400     
100   35710500324811680000000000033000000000033000002000000010410406180830310000204357030618216915000020   1030000100030000   541110900003777030900000003MOB BANK               YGN           MMR11006180830310000200618000000000000000   10300005 00104100000000000000000000006600     
100   9503051019623483000000000002700000000002700000200000001041040618111521000571MQNH9T0618216917000571   1030000100030000   541120003111777031200000031MOB BANK               YGN           MMR11006181115210005710618000000000000000   10300002 00104100000000000000000000005400     
100   9503051874665322000000000001690000000001690000200000001041040618080525000325TC3I4I0618216914000325   1030000100030000   541110001917777031200000019MOB BANK               YGN           MMR11006180805250003250618000000000000000   10300002 00104100000000000000000000003380     
100   35710950440015610000000000019000000000019000002000000010410406181137250004065224610618216918000406   1030000100030000   541120003013777031200000030MOB BANK               YGN           MMR11006181137250004060618000000000000000   10300003 00104100000000000000000000003800     
100   9503051020186793000000000002350000000002350000200000001041040618043151000564XNBOF90618216911000564   1030000100030000   541120003111777031200000031MOB BANK               YGN           MMR11006180431510005640618000000000000000   10300002 00104100000000000000000000004700     
100   62346600112840030000000000031800000000031800002000000010410406180429450018111735960618216910001811   1030000100030000   541110001903777031200000019MOB BANK               YGN           MMR11006180429450018110618000000000000000   10300005 00104100000000000000000000006360     
100   95030510239523160000000000032368000000032368002000000010410406180847280033240BIRH60618216915003324   1030000100030000   541110001907777031200000019MOB BANK               YGN           MMR11006180847280033240618000000000000000   10300002 00104100000000000000000000006474     
100   9503051023952316000000000002100000000002100000200000001041040618085503003326RPTTDW0618216915003326   1030000100030000   541110001907777031200000019MOB BANK               YGN           MMR11006180855030033260618000000000000000   10300002 00104100000000000000000000004200     
100   35710500102913570000000000046500000000046500002000000010410406180924110033294183130618216915003329   1030000100030000   541110001907777031200000019MOB BANK               YGN           MMR11006180924110033290618000000000000000   10300005 00104100000000000000000000009300     
100   9503051894116629000000000002850000000002850000200000001041040618113837002022KDLTZD0618216918002022   1030000100030000   541120003117777031200000031MOB BANK               YGN           MMR11006181138370020220618000000000000000   10300002 00104100000000000000000000005700     
100   35710830565949540000000000011050000000011050002000000010410406181016550020164741810618216916002016   1030000100030000   541120003117777031200000031MOB BANK               YGN           MMR11006181016550020160618000000000000000   10300003 00104100000000000000000000002210     
100   35710500384044870000000000002600000000002600002000000010410406170426270019699483780617216810001969   1030000100030000   541120003117777031200000031MOB BANK               YGN           MMR11006170426270019690617000000000000000   10300005 00104100000000000000000000000520     
100   35710830772245730000000000013530000000013530002000000010410406181150590015725306030618216918001572   1030000100030000   581250000001777031200000005MOB BANK               YGN           MMR11006181150590015720618000000000000000   10300003 00104100000000000000000000004600     
100   35710500197750200000000000110608000000110608002000000010410406180859580017711966260618216915001771   1030000100030000   541160000001777031200000006MOB BANK               YGN           MMR11006180859580017710618000000000000000   10300005 00104100000000000000000000022122     
100   35710500334236150000000000009000000000009000002000000010410406180812430014947790820618216914001494   1030000100030000   541110001920777031200000019MOB BANK               YGN           MMR11006180812430014940618000000000000000   10300005 00104100000000000000000000001800     
100   35710830229841230000000000023650000000023650002000000010410406180943090015704539030618216916001570   1030000100030000   581250000001777031200000005MOB BANK               YGN           MMR11006180943090015700618000000000000000   10300003 00104100000000000000000000008041     
100   62622000480861320000000000007400000000007400002000000010410406180409110004020719300618216910000402   1030000100030000   541120003013777031200000030MOB BANK               YGN           MMR11006180409110004020618000000000000000   10300006 00104100000000000000000000001480     
100   9503051025632841000000000002970000000002970000200000001041040618124540000628NRARS20618216919000628   1030000100030000   541120003003777031200000030MOB BANK               YGN           MMR11006181245400006280618000000000000000   10300002 00104100000000000000000000005940     
100   9503051025425352000000000007150000000007150000200000001041040618055837000701BDLKK40618216912000701   1030000100030000   581210001201777031200000012MOB BANK               YGN           MMR11006180558370007010618000000000000000   10300002 00104100000000000000000000024310     
100   9503051891043958000000000001200000000001200000200000001041040618082301001497L2JEAH0618216914001497   1030000100030000   541110001920777031200000019MOB BANK               YGN           MMR11006180823010014970618000000000000000   10300002 00104100000000000000000000002400     
100   35710950617061590000000000036480000000036480002000000010410406180940020015004520310618216916001500   1030000100030000   541110001920777031200000019MOB BANK               YGN           MMR11006180940020015000618000000000000000   10300003 00104100000000000000000000007296     
