100   9503051895458061000000000001150000000001150000200000001041040619041234001515SXB2X70619217010001515   1030000100030000   541110001920777031200000019MOB BANK               YGN           MMR11006190412340015150619000000000000000   10300002 00104100000000000000000000002300     
100   35710500345482120000000000033500000000033500002000000010410406190435060015202568150619217011001520   1030000100030000   541110001920777031200000019MOB BANK               YGN           MMR11006190435060015200619000000000000000   10300005 00104100000000000000000000006700     
100   62346600121441720000000000031900000000031900002000000010410406190918010015938912130619217015001593   1030000100030000   541110001915777031200000019MOB BANK               YGN           MMR11006190918010015930619000000000000000   10300005 00104100000000000000000000006380     
100   9503051024426450000000000001500000000001500000200000001041040619091705000332YRTBQF0619217015000332   1030000100030000   541110001917777031200000019MOB BANK               YGN           MMR11006190917050003320619000000000000000   10300002 00104100000000000000000000003000     
100   35710830931944380000000000024500000000024500002000000010410406190837210005812784300619217015000581   1030000100030000   541120003111777031200000031MOB BANK               YGN           MMR11006190837210005810619000000000000000   10300003 00104100000000000000000000004900     
100   35710500354242720000000000037000000000037000002000000010410406190749320005769121560619217014000576   1030000100030000   541120003111777031200000031MOB BANK               YGN           MMR11006190749320005760619000000000000000   10300005 00104100000000000000000000007400     
100   35710500165846980000000000007500000000007500002000000010410406190835130015250328830619217015001525   1030000100030000   541110001920777031200000019MOB BANK               YGN           MMR11006190835130015250619000000000000000   10300005 00104100000000000000000000001500     
100   9503051885952198000000000174000000000174000000200000001041040619083418000426MPSLJ90619217015000426   1030000100030000   541120003001777031200000030MOB BANK               YGN           MMR11006190834180004260619000000000000000   10300002 00104100000000000000000000348000     
100   62441900103808730000000000038800000000038800002000000010410406190653230008159980780619217013000815   1030000100030000   541120003103777031200000031MOB BANK               YGN           MMR11006190653230008150619000000000000000   10300003 00104100000000000000000000013580     
100   35710500364805470000000000093120000000093120002000000010410406190951460015956574160619217016001595   1030000100030000   541110001915777031200000019MOB BANK               YGN           MMR11006190951460015950619000000000000000   10300005 00104100000000000000000000018624     
100   9503051893734646000000000005030000000005030000200000001041040619075145000577ZEUHEM0619217014000577   1030000100030000   541120003111777031200000031MOB BANK               YGN           MMR11006190751450005770619000000000000000   10300002 00104100000000000000000000010060     
100   950305189373464600000000000175000000000175000020000000104104061907533200057809KCD70619217014000578   1030000100030000   541120003111777031200000031MOB BANK               YGN           MMR11006190753320005780619000000000000000   10300002 00104100000000000000000000003500     
100   9503051896015662000000000002310000000002310000200000001041040619093806001529MQIKEF0619217016001529   1030000100030000   541110001920777031200000019MOB BANK               YGN           MMR11006190938060015290619000000000000000   10300002 00104100000000000000000000004620     
100   35710950661399840000000000026500000000026500002000000010410406190507080005741522910619217011000574   1030000100030000   541120003111777031200000031MOB BANK               YGN           MMR11006190507080005740619000000000000000   10300003 00104100000000000000000000005300     
100   35710500135973880000000000011000000000011000002000000010410406191104270007633030050619217017000763   1030000100030000   541120003008777031200000030MOB BANK               YGN           MMR11006191104270007630619000000000000000   10300005 00104100000000000000000000002200     
100   35710830288338780000000000005800000000005800002000000010410406190916130008213017500619217015000821   1030000100030000   541120003103777031200000031MOB BANK               YGN           MMR11006190916130008210619000000000000000   10300003 00104100000000000000000000001160     
100   62921400009076160000000000017000000000017000002000000010410406190959120002222222220619217016000222   1030000100030000   541120003006777031200000030MOB BANK               YGN           MMR11006190959120002220619000000000000000   10300009 00104100000000000000000000003400     
100   35710830253483420000000000033800000000033800002000000010410406190756220008172538410619217014000817   1030000100030000   541120003103777031200000031MOB BANK               YGN           MMR11006190756220008170619000000000000000   10300003 00104100000000000000000000006760     
100   35710830931944380000000000008500000000008500002000000010410406190814050005792644610619217014000579   1030000100030000   541120003111777031200000031MOB BANK               YGN           MMR11006190814050005790619000000000000000   10300003 00104100000000000000000000001700     
100   62921400009076160000000000012000000000012000002000000010410406191007110004082222220619217016000408   1030000100030000   541120003013777031200000030MOB BANK               YGN           MMR11006191007110004080619000000000000000   10300009 00104100000000000000000000002400     
100   35710830931944380000000000023000000000023000002000000010410406190822000005802692200619217014000580   1030000100030000   541120003111777031200000031MOB BANK               YGN           MMR11006190822000005800619000000000000000   10300003 00104100000000000000000000004600     
100   62921400000978970000000000008400000000008400002000000010410406191018100006792222220619217016000679   1030000100030000   541120003104777031200000031MOB BANK               YGN           MMR11006191018100006790619000000000000000   10300009 00104100000000000000000000001680     
100   35710830403550250000000000011750000000011750002000000010410406191051310007573589300619217017000757   1030000100030000   541120003008777031200000030MOB BANK               YGN           MMR11006191051310007570619000000000000000   10300003 00104100000000000000000000002350     
100   35650973630007350000000000096000000000096000002000000010410406190753260017775050720619217014001777   1030000100030000   541160000001777031200000006MOB BANK               YGN           MMR11006190753260017770619000000000000000   10300005 00104100000000000000000000033600     
100   35710500133912120000000000123480000000123480002000000010410406191110100017795427620619217017001779   1030000100030000   541160000001777031200000006MOB BANK               YGN           MMR11006191110100017790619000000000000000   10300005 00104100000000000000000000024696     
100   9503051022431684000000000000800000000000800000200000001041040619101451000409GFOSA70619217016000409   1030000100030000   541120003013777031200000030MOB BANK               YGN           MMR11006191014510004090619000000000000000   10300002 00104100000000000000000000001600     
100   35710830974657430000000000008900000000008900002000000010410406190629030005752014710619217012000575   1030000100030000   541120003111777031200000031MOB BANK               YGN           MMR11006190629030005750619000000000000000   10300003 00104100000000000000000000001780     
100   35710950617061590000000000012480000000012480002000000010410406191223370015434141900619217018001543   1030000100030000   541110001920777031200000019MOB BANK               YGN           MMR11006191223370015430619000000000000000   10300003 00104100000000000000000000002496     
100   62346600180642750000000000013600000000013600002000000010410406191054180007593356650619217017000759   1030000100030000   541120003008777031200000030MOB BANK               YGN           MMR11006191054180007590619000000000000000   10300005 00104100000000000000000000002720     
100   95030510219165940000000000014000000000014000002000000010410406190404540015135DHORP0619217010001513   1030000100030000   541110001920777031200000019MOB BANK               YGN           MMR11006190404540015130619000000000000000   10300002 00104100000000000000000000002800     
100   95031800149058410000000000518130000000518130002000000010410406191219540017811642480619217018001781   1030000100030000   541160000001777031200000006MOB BANK               YGN           MMR11006191219540017810619000000000000000   10300013 00104100000000000000000000103626     
100   35710830065846830000000000048500000000048500002000000010410406191235120000264211410619217019000026   1030000100030000   701120003701777031200000037MOB BANK               YGN           MMR11006191235120000260619000000000000000   10300003 00104100000000000000000000016490     
100   35710830668568640000000000009792000000009792002000000010410406190741210015862448230619217014001586   1030000100030000   541110001915777031200000019MOB BANK               YGN           MMR11006190741210015860619000000000000000   10300003 00104100000000000000000000001958     
100   35710830219346650000000000018750000000018750002000000010410406190739110033612435220619217014003361   1030000100030000   541110001907777031200000019MOB BANK               YGN           MMR11006190739110033610619000000000000000   10300003 00104100000000000000000000003750     
100   9503051895846174000000000000884900000000884900200000001041040619084619003365BVPZ1H0619217015003365   1030000100030000   541110001907777031200000019MOB BANK               YGN           MMR11006190846190033650619000000000000000   10300002 00104100000000000000000000001770     
100   9503051020211245000000000002280000000002280000200000001041040619040615001848BKMDJY0619217010001848   1030000100030000   541110001903777031200000019MOB BANK               YGN           MMR11006190406150018480619000000000000000   10300002 00104100000000000000000000004560     
100   35710500365478650000000000040800000000040800002000000010410406190607560018500054260619217012001850   1030000100030000   541110001903777031200000019MOB BANK               YGN           MMR11006190607560018500619000000000000000   10300005 00104100000000000000000000008160     
100   9503051020473605000000000001020000000001020000200000001041040619064024001851YCNBBC0619217013001851   1030000100030000   541110001903777031200000019MOB BANK               YGN           MMR11006190640240018510619000000000000000   10300002 00104100000000000000000000002040     
100   9503051024854313000000000002400000000002400000200000001041040619081344001862OHLKWZ0619217014001862   1030000100030000   541110001903777031200000019MOB BANK               YGN           MMR11006190813440018620619000000000000000   10300002 00104100000000000000000000004800     
100   35710830114587170000000000007700000000007700002000000010410406190437260015751344720619217011001575   1030000100030000   581250000001777031200000005MOB BANK               YGN           MMR11006190437260015750619000000000000000   10300003 00104100000000000000000000002618     
100   9503051026018792000000000003542000000003542000200000001041040619053314001576B8R1JB0619217012001576   1030000100030000   581250000001777031200000005MOB BANK               YGN           MMR11006190533140015760619000000000000000   10300002 00104100000000000000000000012043     
100   9503051888691553000000000001265000000001265000200000001041040619102526001578IST8F60619217016001578   1030000100030000   581250000001777031200000005MOB BANK               YGN           MMR11006191025260015780619000000000000000   10300002 00104100000000000000000000004301     
100   95030510265387080000000000007700000000007700002000000010410406191106450015794BMYOX0619217017001579   1030000100030000   581250000001777031200000005MOB BANK               YGN           MMR11006191106450015790619000000000000000   10300002 00104100000000000000000000002618     
100   9503051025376589000000000002880000000002880000200000001041040619090818001874YPJEP30619217015001874   1030000100030000   541110001903777031200000019MOB BANK               YGN           MMR11006190908180018740619000000000000000   10300002 00104100000000000000000000005760     
100   35710830960774240000000000012000000000012000002000000010410406190847490033682847110619217015003368   1030000100030000   541110001907777031200000019MOB BANK               YGN           MMR11006190847490033680619000000000000000   10300003 00104100000000000000000000002400     
100   35710830326052210000000000017500000000017500002000000010410406190902090033702933110619217015003370   1030000100030000   541110001907777031200000019MOB BANK               YGN           MMR11006190902090033700619000000000000000   10300003 00104100000000000000000000003500     
100   9503051020473605000000000003880000000003880000200000001041040619065050001853ZLNXQK0619217013001853   1030000100030000   541110001903777031200000019MOB BANK               YGN           MMR11006190650500018530619000000000000000   10300002 00104100000000000000000000007760     
100   9503051024426450000000000002650000000002650000200000001041040619093012003376QWOGHL0619217016003376   1030000100030000   541110001907777031200000019MOB BANK               YGN           MMR11006190930120033760619000000000000000   10300002 00104100000000000000000000005300     
100   95030201002781010000000000032500000000032500002000000010410406190315420015805354400619217009001580   1030000100030000   541110001915777031200000019MOB BANK               YGN           MMR11006190315420015800619000000000000000   10200002 00104100000000000000000000006500     
100   62346600111152980000000000070000000000070000002000000010410406191136560015802938980619217018001580   1030000100030000   581250000001777031200000005MOB BANK               YGN           MMR11006191136560015800619000000000000000   10300005 00104100000000000000000000023800     
100   9503051895458061000000000000460000000000460000200000001041040619043539002631MTNR2K0619217011002631   1030000100030000   541110001905777031200000019MOB BANK               YGN           MMR11006190435390026310619000000000000000   10300002 00104100000000000000000000000920     
100   62441900103808730000000000030000000000030000002000000010410406190723530020276045340619217013002027   1030000100030000   541120003117777031200000031MOB BANK               YGN           MMR11006190723530020270619000000000000000   10300003 00104100000000000000000000010500     
100   9503051024490639000000000003047800000003047800200000001041040619045728002634PQ2ZHS0619217011002634   1030000100030000   541110001905777031200000019MOB BANK               YGN           MMR11006190457280026340619000000000000000   10300002 00104100000000000000000000006096     
100   9503051895458061000000000004460000000004460000200000001041040619050150002638XFDB1U0619217011002638   1030000100030000   541110001905777031200000019MOB BANK               YGN           MMR11006190501500026380619000000000000000   10300002 00104100000000000000000000008920     
100   35710500354802170000000000003332000000003332002000000010410406190913060026436444340619217015002643   1030000100030000   541110001905777031200000019MOB BANK               YGN           MMR11006190913060026430619000000000000000   10300005 00104100000000000000000000000666     
100   35710500393361670000000000072600000000072600002000000010410406191056130026489214500619217017002648   1030000100030000   541110001905777031200000019MOB BANK               YGN           MMR11006191056130026480619000000000000000   10300005 00104100000000000000000000014520     
100   35710500192911920000000000012400000000012400002000000010410406190658190018547583700619217013001854   1030000100030000   541110001903777031200000019MOB BANK               YGN           MMR11006190658190018540619000000000000000   10300005 00104100000000000000000000002480     
100   35710500393445180000000000009180000000009180002000000010410406190700080018559853710619217013001855   1030000100030000   541110001903777031200000019MOB BANK               YGN           MMR11006190700080018550619000000000000000   10300005 00104100000000000000000000001836     
100   9503051024854313000000000002400000000002400000200000001041040619082527001866KZPOIW0619217014001866   1030000100030000   541110001903777031200000019MOB BANK               YGN           MMR11006190825270018660619000000000000000   10300002 00104100000000000000000000004800     
100   9503051890849728000000000001200000000001200000200000001041040619093312003379ZBYXWL0619217016003379   1030000100030000   541110001907777031200000019MOB BANK               YGN           MMR11006190933120033790619000000000000000   10300002 00104100000000000000000000002400     
100   35710500121408180000000000130000000000130000002000000010410406191003070033844438670619217016003384   1030000100030000   541110001907777031200000019MOB BANK               YGN           MMR11006191003070033840619000000000000000   10300005 00104100000000000000000000026000     
100   35710830856024220000000000018130000000018130002000000010410406191024560033873429710619217016003387   1030000100030000   541110001907777031200000019MOB BANK               YGN           MMR11006191024560033870619000000000000000   10300003 00104100000000000000000000003626     
100   9503051897185274000000000000320000000000320000200000001041040619104031003393JQAGKM0619217017003393   1030000100030000   541110001907777031200000019MOB BANK               YGN           MMR11006191040310033930619000000000000000   10300002 00104100000000000000000000000640     
100   35710830235478120000000000015000000000015000002000000010410406190538480015831712920619217012001583   1030000100030000   541110001915777031200000019MOB BANK               YGN           MMR11006190538480015830619000000000000000   10300003 00104100000000000000000000003000     
100   9503051891670438000000000028800000000028800000200000001041040619120921002655TDWUT20619217018002655   1030000100030000   541110001905777031200000019MOB BANK               YGN           MMR11006191209210026550619000000000000000   10300002 00104100000000000000000000057600     
100   9503051895846174000000000001836000000001836000200000001041040619091619001876DRZL0X0619217015001876   1030000100030000   541110001903777031200000019MOB BANK               YGN           MMR11006190916190018760619000000000000000   10300002 00104100000000000000000000003672     
100   9503051020295339000000000002880000000002880000200000001041040619093520001877VWZNKY0619217016001877   1030000100030000   541110001903777031200000019MOB BANK               YGN           MMR11006190935200018770619000000000000000   10300002 00104100000000000000000000005760     
100   35710500301052980000000000009900000000009900002000000010410406190848160020315110380619217015002031   1030000100030000   541120003117777031200000031MOB BANK               YGN           MMR11006190848160020310619000000000000000   10300005 00104100000000000000000000001980     
100   35710500354274810000000000065400000000065400002000000010410406191048290033971229240619217017003397   1030000100030000   541110001907777031200000019MOB BANK               YGN           MMR11006191048290033970619000000000000000   10300005 00104100000000000000000000013080     
100   9503051893103354000000000005350000000005350000200000001041040619105057003400LRVGDA0619217017003400   1030000100030000   541110001907777031200000019MOB BANK               YGN           MMR11006191050570034000619000000000000000   10300002 00104100000000000000000000010700     
100   35710500344217900000000000020800000000020800002000000010410406191014310018789900990619217016001878   1030000100030000   541110001903777031200000019MOB BANK               YGN           MMR11006191014310018780619000000000000000   10300005 00104100000000000000000000004160     
100   35710830697104230000000000012900000000012900002000000010410406190857510020372907310619217015002037   1030000100030000   541120003117777031200000031MOB BANK               YGN           MMR11006190857510020370619000000000000000   10300003 00104100000000000000000000002580     
100   35710500390964720000000000031000000000031000002000000010410406190850040018686592670619217015001868   1030000100030000   541110001903777031200000019MOB BANK               YGN           MMR11006190850040018680619000000000000000   10300005 00104100000000000000000000006200     
100   35710500305371510000000000002500000000002500002000000010410406191049490020399491660619217017002039   1030000100030000   541120003117777031200000031MOB BANK               YGN           MMR11006191049490020390619000000000000000   10300005 00104100000000000000000000000500     
100   9503051024854313000000000003300000000003300000200000001041040619072652001857PD1PVY0619217013001857   1030000100030000   541110001903777031200000019MOB BANK               YGN           MMR11006190726520018570619000000000000000   10300002 00104100000000000000000000006600     
100   35710500375244750000000000014000000000014000002000000010410406190730420018586594840619217014001858   1030000100030000   541110001903777031200000019MOB BANK               YGN           MMR11006190730420018580619000000000000000   10300005 00104100000000000000000000002800     
100   9503051020754707000000000002600000000002600000200000001041040619074130001859ZGJ0JV0619217014001859   1030000100030000   541110001903777031200000019MOB BANK               YGN           MMR11006190741300018590619000000000000000   10300002 00104100000000000000000000005200     
100   35710830319179570000000000086200000000086200002000000010410406190623570033581983820619217012003358   1030000100030000   541110001907777031200000019MOB BANK               YGN           MMR11006190623570033580619000000000000000   10300003 00104100000000000000000000017240     
100   9503051026216800000000000005660000000005660000200000001041040619085925001870QYTYEO0619217015001870   1030000100030000   541110001903777031200000019MOB BANK               YGN           MMR11006190859250018700619000000000000000   10300002 00104100000000000000000000011320     
100   9503051023952316000000000001468800000001468800200000001041040618083551001559NFVHPC0618216915001559   1030000100030000   541110001915777031200000019MOB BANK               YGN           MMR11006180835510015590618000000000000000   10300002 00104100000000000000000000002938     
100   9503051024426450000000000000335000000000335000200000001041040619090623003373WTOVGM0619217015003373   1030000100030000   541110001907777031200000019MOB BANK               YGN           MMR11006190906230033730619000000000000000   10300002 00104100000000000000000000000670     
100   95030510204240530000000000036848000000036848002000000010410406191231220034032UXVFO0619217019003403   1030000100030000   541110001907777031200000019MOB BANK               YGN           MMR11006191231220034030619000000000000000   10300002 00104100000000000000000000007370     
100   35710500330244700000000000007900000000007900002000000010410406180721000015506796120618216913001550   1030000100030000   541110001915777031200000019MOB BANK               YGN           MMR11006180721000015500618000000000000000   10300005 00104100000000000000000000001580     
100   35710830489028360000000000032000000000032000002000000010410406190956020033813256320619217016003381   1030000100030000   541110001907777031200000019MOB BANK               YGN           MMR11006190956020033810619000000000000000   10300003 00104100000000000000000000006400     
100   35710500112221200000000000050100000000050100002000000010410406191005490015775155100619217016001577   1030000100030000   581250000001777031200000005MOB BANK               YGN           MMR11006191005490015770619000000000000000   10300005 00104100000000000000000000017034     
100   9503190006269825000000000001140000000001140000200000001041040618051532001534VTMFJ70618216911001534   1030000100030000   541110001915777031200000019MOB BANK               YGN           MMR11006180515320015340618000000000000000   10300014 00104100000000000000000000002280     
100   62346600145613570000000000027900000000027900002000000010410406181109530015679017470618216917001567   1030000100030000   541110001915777031200000019MOB BANK               YGN           MMR11006181109530015670618000000000000000   10300005 00104100000000000000000000005580     
100   950305189104395800000000001597000000001597000020000000104104061807542600155443SMKZ0618216914001554   1030000100030000   541110001915777031200000019MOB BANK               YGN           MMR11006180754260015540618000000000000000   10300002 00104100000000000000000000031940     
100   9503051896722044000000000001620000000001620000200000001041040618122546001570FHOPMW0618216918001570   1030000100030000   541110001915777031200000019MOB BANK               YGN           MMR11006181225460015700618000000000000000   10300002 00104100000000000000000000003240     
100   9503051886803275000000000002950000000002950000200000001041040618052726000454IKIMUM0618216911000454   1030000100030000   541120000011777031200000002MOB BANK               YGN           MMR11006180527260004540618000000000000000   10300002 00104100000000000000000000005900     
100   35710830629508690000000000036600000000036600002000000010410406180821560015564051710618216914001556   1030000100030000   541110001915777031200000019MOB BANK               YGN           MMR11006180821560015560618000000000000000   10300003 00104100000000000000000000007320     
100   62346600172668710000000000039400000000039400002000000010410406180555000015412852650618216912001541   1030000100030000   541110001915777031200000019MOB BANK               YGN           MMR11006180555000015410618000000000000000   10300005 00104100000000000000000000007880     
100   95030510255260270000000000015400000000015400002000000010410406180850490015619NA22G0618216915001561   1030000100030000   541110001915777031200000019MOB BANK               YGN           MMR11006180850490015610618000000000000000   10300002 00104100000000000000000000003080     
100   95030201908280130000000000010100000000010100002000000010410406180601250015439021620618216912001543   1030000100030000   541110001915777031200000019MOB BANK               YGN           MMR11006180601250015430618000000000000000   10200002 00104100000000000000000000002020     
100   35710830542568870000000000015700000000015700002000000010410406180904380015634307920618216915001563   1030000100030000   541110001915777031200000019MOB BANK               YGN           MMR11006180904380015630618000000000000000   10300003 00104100000000000000000000003140     
100   9503051024840817000000000003190000000003190000200000001041040618063709001546QRWLUR0618216913001546   1030000100030000   541110001915777031200000019MOB BANK               YGN           MMR11006180637090015460618000000000000000   10300002 00104100000000000000000000006380     
100   9503051894170980000000000000520000000000520000200000001041040618042253001527GTNEDD0618216910001527   1030000100030000   541110001915777031200000019MOB BANK               YGN           MMR11006180422530015270618000000000000000   10300002 00104100000000000000000000001040     
100   95030518958749860000000000026000000000026000002000000010410406181053590015657DKOAS0618216917001565   1030000100030000   541110001915777031200000019MOB BANK               YGN           MMR11006181053590015650618000000000000000   10300002 00104100000000000000000000005200     
100   9503051023328087000000000001935000000001935000200000001041040618070848001548HRMVX00618216913001548   1030000100030000   541110001915777031200000019MOB BANK               YGN           MMR11006180708480015480618000000000000000   10300002 00104100000000000000000000003870     
100   9503051025826468000000000001800000000001800000200000001041040618051759001537MYYGCD0618216911001537   1030000100030000   541110001915777031200000019MOB BANK               YGN           MMR11006180517590015370618000000000000000   10300002 00104100000000000000000000003600     
100   35710500141371680000000000005000000000005000002000000010410406180542300015390066330618216912001539   1030000100030000   541110001915777031200000019MOB BANK               YGN           MMR11006180542300015390618000000000000000   10300005 00104100000000000000000000001000     
