100   9503054000778092000000000002248800000002248800200000001041040620034752000682AOQ46K0620217110000682   1030000100030000   541120003104777031200000031MOB BANK               YGN           MMR11006200347520006820620000000000000000   10300002 00104100000000000000000000004498     
100   35710830204784090000000000024985000000024985002000000010410406200639180015830716010620217113001583   1030000100030000   581250000001777031200000005MOB BANK               YGN           MMR11006200639180015830620000000000000000   10300003 00104100000000000000000000008495     
100   9503051894736012000000000002139500000002139500200000001041040620082745001584OL2ELA0620217114001584   1030000100030000   581250000001777031200000005MOB BANK               YGN           MMR11006200827450015840620000000000000000   10300002 00104100000000000000000000007274     
100   95030518894139400000000000057900000000057900002000000010410406200511260018862XQLUT0620217111001886   1030000100030000   541110001903777031200000019MOB BANK               YGN           MMR11006200511260018860620000000000000000   10300002 00104100000000000000000000011580     
100   9503051025843380000000000000697500000000697500200000001041040620113250002055LGCT0E0620217118002055   1030000100030000   541120003117777031200000031MOB BANK               YGN           MMR11006201132500020550620000000000000000   10300002 00104100000000000000000000001395     
100   35710500315455590000000000012350000000012350002000000010410406201011070026731922500620217116002673   1030000100030000   541110001905777031200000019MOB BANK               YGN           MMR11006201011070026730620000000000000000   10300005 00104100000000000000000000002470     
100   9503190006199618000000000000883200000000883200200000001041040620081609000770A9I0FL0620217114000770   1030000100030000   541120003008777031200000030MOB BANK               YGN           MMR11006200816090007700620000000000000000   10300014 00104100000000000000000000001766     
100   95030518875632410000000000044500000000044500002000000010410406200933300015856BUIJG0620217116001585   1030000100030000   581250000001777031200000005MOB BANK               YGN           MMR11006200933300015850620000000000000000   10300002 00104100000000000000000000015130     
100   35710830265570730000000000035700000000035700002000000010410406201211200006362708200620217118000636   1030000100030000   541120003003777031200000030MOB BANK               YGN           MMR11006201211200006360620000000000000000   10300003 00104100000000000000000000007140     
100   62921400083074620000000000033200000000033200002000000010410406201135330026772222220620217118002677   1030000100030000   541110001905777031200000019MOB BANK               YGN           MMR11006201135330026770620000000000000000   10300009 00104100000000000000000000006640     
100   9503051020004640000000000004428000000004428000200000001041040620094651003418PZ9T5L0620217116003418   1030000100030000   541110001907777031200000019MOB BANK               YGN           MMR11006200946510034180620000000000000000   10300002 00104100000000000000000000008856     
100   35710830623492940000000000085000000000085000002000000010410406200949220034201856410620217116003420   1030000100030000   541110001907777031200000019MOB BANK               YGN           MMR11006200949220034200620000000000000000   10300003 00104100000000000000000000017000     
100   35710830926151690000000000015500000000015500002000000010410406200543590004110384010620217112000411   1030000100030000   541120003013777031200000030MOB BANK               YGN           MMR11006200543590004110620000000000000000   10300003 00104100000000000000000000003100     
100   9503190006199618000000000002915300000002915300200000001041040620075026000587YAOEY30620217114000587   1030000100030000   541120003005777031200000030MOB BANK               YGN           MMR11006200750260005870620000000000000000   10300014 00104100000000000000000000005831     
100   35710500395755330000000000004950000000004950002000000010410406200935570015865873580620217116001586   1030000100030000   581250000001777031200000005MOB BANK               YGN           MMR11006200935570015860620000000000000000   10300005 00104100000000000000000000001683     
100   35710830156263350000000000020240000000020240002000000010410406201037520015872147410620217117001587   1030000100030000   581250000001777031200000005MOB BANK               YGN           MMR11006201037520015870620000000000000000   10300003 00104100000000000000000000006882     
100   9503051888898372000000000003880000000003880000200000001041040620063229001888SQDITO0620217113001888   1030000100030000   541110001903777031200000019MOB BANK               YGN           MMR11006200632290018880620000000000000000   10300002 00104100000000000000000000007760     
100   35710830770702080000000000072422000000072422002000000010410406201212010026802712310620217118002680   1030000100030000   541110001905777031200000019MOB BANK               YGN           MMR11006201212010026800620000000000000000   10300003 00104100000000000000000000014484     
100   35710830604468860000000000031000000000031000002000000010410406200821150006901327710620217114000690   1030000100030000   541120003104777031200000031MOB BANK               YGN           MMR11006200821150006900620000000000000000   10300003 00104100000000000000000000006200     
100   9503051024160786000000000001280000000001280000200000001041040620045650000684DROBS80620217111000684   1030000100030000   541120003104777031200000031MOB BANK               YGN           MMR11006200456500006840620000000000000000   10300002 00104100000000000000000000002560     
100   9503051020259756000000000001820000000001820000200000001041040620100403003422DBXPPM0620217116003422   1030000100030000   541110001907777031200000019MOB BANK               YGN           MMR11006201004030034220620000000000000000   10300002 00104100000000000000000000003640     
100   35710500313606520000000000018240000000018240002000000010410406201035560034259581170620217117003425   1030000100030000   541110001907777031200000019MOB BANK               YGN           MMR11006201035560034250620000000000000000   10300005 00104100000000000000000000003648     
100   95030510234562430000000000008036000000008036002000000010410406201053180034275MQKHK0620217117003427   1030000100030000   541110001907777031200000019MOB BANK               YGN           MMR11006201053180034270620000000000000000   10300002 00104100000000000000000000001607     
100   62346600111957380000000000018920000000018920002000000010410406201127560034303827910620217117003430   1030000100030000   541110001907777031200000019MOB BANK               YGN           MMR11006201127560034300620000000000000000   10300005 00104100000000000000000000003784     
100   9503190004227528000000000001485000000001485000200000001041040620095048000588H5FQ8L0620217116000588   1030000100030000   541120003005777031200000030MOB BANK               YGN           MMR11006200950480005880620000000000000000   10300014 00104100000000000000000000002970     
100   9503051025165768000000000000754600000000754600200000001041040620091310000632IQNYGL0620217115000632   1030000100030000   541120003003777031200000030MOB BANK               YGN           MMR11006200913100006320620000000000000000   10300002 00104100000000000000000000001509     
100   9503051022860791000000000001400000000001400000200000001041040620052835001549EUIKYS0620217111001549   1030000100030000   541110001920777031200000019MOB BANK               YGN           MMR11006200528350015490620000000000000000   10300002 00104100000000000000000000002800     
100   9503051889575334000000000013100000000013100000200000001041040620045643001890CXSIRY0620217111001890   1030000100030000   541120003106777031200000031MOB BANK               YGN           MMR11006200456430018900620000000000000000   10300002 00104100000000000000000000026200     
100   35710830354450210000000000028800000000028800002000000010410406200656520018900821500620217113001890   1030000100030000   541110001903777031200000019MOB BANK               YGN           MMR11006200656520018900620000000000000000   10300003 00104100000000000000000000005760     
100   35710500195383520000000000017900000000017900002000000010410406200637120005838739050620217113000583   1030000100030000   541120003111777031200000031MOB BANK               YGN           MMR11006200637120005830620000000000000000   10300005 00104100000000000000000000003580     
100   62921400092992470000000000016500000000016500002000000010410406200832430007722222220620217115000772   1030000100030000   541120003008777031200000030MOB BANK               YGN           MMR11006200832430007720620000000000000000   10300009 00104100000000000000000000003300     
100   95030518724398370000000000010500000000010500002000000010410406200956110004286DOPMD0620217116000428   1030000100030000   541120003001777031200000030MOB BANK               YGN           MMR11006200956110004280620000000000000000   10300002 00104100000000000000000000002100     
100   35710830061749640000000000016000000000016000002000000010410406200844440006921468610620217115000692   1030000100030000   541120003104777031200000031MOB BANK               YGN           MMR11006200844440006920620000000000000000   10300003 00104100000000000000000000003200     
100   9503051025261005000000000000639800000000639800200000001041040620114603003434BSSLFS0620217118003434   1030000100030000   541110001907777031200000019MOB BANK               YGN           MMR11006201146030034340620000000000000000   10300002 00104100000000000000000000001280     
100   62622000215785430000000000024750000000024750002000000010410406201149340034361615490620217118003436   1030000100030000   541110001907777031200000019MOB BANK               YGN           MMR11006201149340034360620000000000000000   10300006 00104100000000000000000000004950     
100   35710500161614890000000000010350000000010350002000000010410406201305410034416355580620217119003441   1030000100030000   541110001907777031200000019MOB BANK               YGN           MMR11006201305410034410620000000000000000   10300005 00104100000000000000000000002070     
100   35710830920003470000000000007546000000007546002000000010410406201035580005892136010620217117000589   1030000100030000   541120003005777031200000030MOB BANK               YGN           MMR11006201035580005890620000000000000000   10300003 00104100000000000000000000001509     
100   9503051026600680000000000005220000000005220000200000001041040620075709000767UPMVDL0620217114000767   1030000100030000   541120003008777031200000030MOB BANK               YGN           MMR11006200757090007670620000000000000000   10300002 00104100000000000000000000010440     
100   95030510203011450000000000027900000000027900002000000010410406200805200018935EKOM80620217114001893   1030000100030000   541110001903777031200000019MOB BANK               YGN           MMR11006200805200018930620000000000000000   10300002 00104100000000000000000000005580     
100   35710830251531550000000000013400000000013400002000000010410406201008120018941969310620217116001894   1030000100030000   541110001903777031200000019MOB BANK               YGN           MMR11006201008120018940620000000000000000   10300003 00104100000000000000000000002680     
100   9503051025825262000000000008760000000008760000200000001041040620073805001891NS9MFI0620217114001891   1030000100030000   541110001903777031200000019MOB BANK               YGN           MMR11006200738050018910620000000000000000   10300002 00104100000000000000000000017520     
100   62921400095774850000000000060000000000060000002000000010410406200703550034152222220620217113003415   1030000100030000   541110001907777031200000019MOB BANK               YGN           MMR11006200703550034150620000000000000000   10300009 00104100000000000000000000012000     
100   35710830243046500000000000030000000000030000002000000010410406191034130018763485510619217017001876   1030000100030000   541120003106777031200000031MOB BANK               YGN           MMR11006191034130018760619000000000000000   10300003 00104100000000000000000000006000     
100   62622000504547720000000000019000000000019000002000000010410406190901520018641740180619217015001864   1030000100030000   541120003106777031200000031MOB BANK               YGN           MMR11006190901520018640619000000000000000   10300006 00104100000000000000000000003800     
100   95030518918234090000000000047900000000047900002000000010410406191143200018791U7UVJ0619217018001879   1030000100030000   541120003106777031200000031MOB BANK               YGN           MMR11006191143200018790619000000000000000   10300002 00104100000000000000000000009580     
100   35710950103814920000000000031000000000031000002000000010410406190934150018683125710619217016001868   1030000100030000   541120003106777031200000031MOB BANK               YGN           MMR11006190934150018680619000000000000000   10300003 00104100000000000000000000006200     
100   62441900103808730000000000029900000000029900002000000010410406190646270018608036700619217013001860   1030000100030000   541120003106777031200000031MOB BANK               YGN           MMR11006190646270018600619000000000000000   10300003 00104100000000000000000000010465     
100   9503051886635610000000000005890000000005890000200000001041040620111204002050SKSOUM0620217117002050   1030000100030000   541120003117777031200000031MOB BANK               YGN           MMR11006201112040020500620000000000000000   10300002 00104100000000000000000000011780     
100   62622000946936250000000000012100000000012100002000000010410406201141280034322218620620217118003432   1030000100030000   541110001907777031200000019MOB BANK               YGN           MMR11006201141280034320620000000000000000   10300006 00104100000000000000000000002420     
100   62343302004208890000000000028500000000028500002000000010410406190843370018619072880619217015001861   1030000100030000   541120003106777031200000031MOB BANK               YGN           MMR11006190843370018610619000000000000000   10300004 00104100000000000000000000005700     
100   9503051023456243000000000000607600000000607600200000001041040620123053003438IRARWS0620217119003438   1030000100030000   541110001907777031200000019MOB BANK               YGN           MMR11006201230530034380620000000000000000   10300002 00104100000000000000000000001215     
100   9503051020466146000000000000860000000000860000200000001041040620051142000686VSP3Y30620217111000686   1030000100030000   541120003104777031200000031MOB BANK               YGN           MMR11006200511420006860620000000000000000   10300002 00104100000000000000000000001720     
100   9503051883850345000000000002050000000002050000200000001041040620104241000393K0QB600620217117000393   1030000100030000   541120003002777031200000030MOB BANK               YGN           MMR11006201042410003930620000000000000000   10300002 00104100000000000000000000004100     
100   9503051889575334000000000001700000000001700000200000001041040620053650000416STDKEL0620217112000416   1030000100030000   541120003105777031200000031MOB BANK               YGN           MMR11006200536500004160620000000000000000   10300002 00104100000000000000000000003400     
100   35710500364535510000000000007450000000007450002000000010410406201153050005904690380620217118000590   1030000100030000   541120003005777031200000030MOB BANK               YGN           MMR11006201153050005900620000000000000000   10300005 00104100000000000000000000001490     
100   95030518911860130000000000031600000000031600002000000010410406200430450008256A0OON0620217111000825   1030000100030000   541120003103777031200000031MOB BANK               YGN           MMR11006200430450008250620000000000000000   10300002 00104100000000000000000000006320     
100   35710830926151690000000000012500000000012500002000000010410406200527240002310284520620217111000231   1030000100030000   541120003006777031200000030MOB BANK               YGN           MMR11006200527240002310620000000000000000   10300003 00104100000000000000000000002500     
100   9503051895118731000000000001125000000001125000200000001041040620041715000585GF4K1L0620217110000585   1030000100030000   541120003005777031200000030MOB BANK               YGN           MMR11006200417150005850620000000000000000   10300002 00104100000000000000000000002250     
100   35710830926151690000000000009150000000009150002000000010410406200519090005860235100620217111000586   1030000100030000   541120003005777031200000030MOB BANK               YGN           MMR11006200519090005860620000000000000000   10300003 00104100000000000000000000001830     
100   35710500130360230000000000122400000000122400002000000010410406200745160017844189930620217114001784   1030000100030000   541160000001777031200000006MOB BANK               YGN           MMR11006200745160017840620000000000000000   10300005 00104100000000000000000000024480     
100   950305188403197800000000000049000000000049000020000000104104062012394200069412CEKW0620217119000694   1030000100030000   541120003104777031200000031MOB BANK               YGN           MMR11006201239420006940620000000000000000   10300002 00104100000000000000000000000980     
100   62921400038854470000000000004000000000004000002000000010410406200802280006882222220620217114000688   1030000100030000   541120003104777031200000031MOB BANK               YGN           MMR11006200802280006880620000000000000000   10300009 00104100000000000000000000000800     
100   35710830920003470000000000005348000000005348002000000010410406201027570007742087810620217116000774   1030000100030000   541120003008777031200000030MOB BANK               YGN           MMR11006201027570007740620000000000000000   10300003 00104100000000000000000000001070     
100   35710500395507000000000000007500000000007500002000000010410406200525120020442691500620217111002044   1030000100030000   541120003117777031200000031MOB BANK               YGN           MMR11006200525120020440620000000000000000   10300005 00104100000000000000000000001500     
100   9503051896025281000000000000370000000000370000200000001041040620060145002047VEEVRX0620217112002047   1030000100030000   541120003117777031200000031MOB BANK               YGN           MMR11006200601450020470620000000000000000   10300002 00104100000000000000000000000740     
100   35710830966784520000000000017500000000017500002000000010410406200402560003899777710620217110000389   1030000100030000   541120003002777031200000030MOB BANK               YGN           MMR11006200402560003890620000000000000000   10300003 00104100000000000000000000003500     
100   95030510234713330000000000017500000000017500002000000010410406201047210003946H7XHJ0620217117000394   1030000100030000   541120003002777031200000030MOB BANK               YGN           MMR11006201047210003940620000000000000000   10300002 00104100000000000000000000003500     
100   9503051887191076000000000000352800000000352800200000001041040620130402000592PH6HQO0620217119000592   1030000100030000   541120003005777031200000030MOB BANK               YGN           MMR11006201304020005920620000000000000000   10300002 00104100000000000000000000000706     
100   95030518895753340000000000030800000000030800002000000010410406200526130008273WLSHH0620217111000827   1030000100030000   541120003103777031200000031MOB BANK               YGN           MMR11006200526130008270620000000000000000   10300002 00104100000000000000000000006160     
100   35710500313821770000000000023800000000023800002000000010410406201245090018981110620620217119001898   1030000100030000   541110001903777031200000019MOB BANK               YGN           MMR11006201245090018980620000000000000000   10300005 00104100000000000000000000004760     
100   9503051886635610000000000000750000000000750000200000001041040620113942001899M2PABB0620217118001899   1030000100030000   541120003106777031200000031MOB BANK               YGN           MMR11006201139420018990620000000000000000   10300002 00104100000000000000000000001500     
100   35710830995449820000000000023000000000023000002000000010410406200426450026709920640620217110002670   1030000100030000   541110001905777031200000019MOB BANK               YGN           MMR11006200426450026700620000000000000000   10300003 00104100000000000000000000004600     
100   95031100012272140000000000130000000000130000002000000010410406200532000034081134630620217112003408   1030000100030000   541110001907777031200000019MOB BANK               YGN           MMR11006200532000034080620000000000000000   10300006 00104100000000000000000000026000     
100   62343301016282180000000000025300000000025300002000000010410406200701560034103901770620217113003410   1030000100030000   541110001907777031200000019MOB BANK               YGN           MMR11006200701560034100620000000000000000   10300004 00104100000000000000000000005060     
100   9503190005279353000000000004490000000004490000200000001041040620093603000233R9L95W0620217116000233   1030000100030000   541120003006777031200000030MOB BANK               YGN           MMR11006200936030002330620000000000000000   10300014 00104100000000000000000000008980     
