100   35711450000079280000000000016500000000016500002000000010410406210634030004218832450621217213000421   1030000100030000   541120003105777031200000031MOB BANK               YGN           MMR11006210634030004210621000000000000000   10200001 00104100000000000000000000003300     
100   95030201330520690000000000039984000000039984002000000010410406210811590026932472700621217214002693   1030000100030000   541110001905777031200000019MOB BANK               YGN           MMR11006210811590026930621000000000000000   10200002 00104100000000000000000000007997     
100   35710500112567140000000000052500000000052500002000000010410406200440190000226228370620217111000022   1030000100030000   541110900003777030900000003MOB BANK               YGN           MMR11006200440190000220620000000000000000   10300005 00104100000000000000000000010500     
100   35710830740213860000000000014000000000014000002000000010410406211011380000680629910621217216000068   1030000100030000   541180000001777031200000008MOB BANK               YGN           MMR11006211011380000680621000000000000000   10300003 00104100000000000000000000002800     
100   9503051025544640000000000001550000000001550000200000001041040621025751000066I2CPMP0621217209000066   1030000100030000   541180000001777031200000008MOB BANK               YGN           MMR11006210257510000660621000000000000000   10300002 00104100000000000000000000003100     
100   35710500364491530000000000080000000000080000002000000010410406210616250034450776720621217212003445   1030000100030000   541110001907777031200000019MOB BANK               YGN           MMR11006210616250034450621000000000000000   10300005 00104100000000000000000000016000     
100   35710500160352120000000000009500000000009500002000000010410406210802200034477730440621217214003447   1030000100030000   541110001907777031200000019MOB BANK               YGN           MMR11006210802200034470621000000000000000   10300005 00104100000000000000000000001900     
100   95030800077646290000000000021500000000021500002000000010410406210409180003968456000621217210000396   1030000100030000   541120003002777031200000030MOB BANK               YGN           MMR11006210409180003960621000000000000000   10300003 00104100000000000000000000004300     
100   9503051022844639000000000001060000000001060000200000001041040621054859000597KCS3YY0621217212000597   1030000100030000   541120003005777031200000030MOB BANK               YGN           MMR11006210548590005970621000000000000000   10300002 00104100000000000000000000002120     
100   9503051873585521000000000003840000000003840000200000001041040621112622000709TVM0XU0621217217000709   1030000100030000   541120003104777031200000031MOB BANK               YGN           MMR11006211126220007090621000000000000000   10300002 00104100000000000000000000007680     
100   35710500364491530000000000037900000000037900002000000010410406210610180019080471990621217212001908   1030000100030000   541110001903777031200000019MOB BANK               YGN           MMR11006210610180019080621000000000000000   10300005 00104100000000000000000000007580     
100   35710500354802170000000000005355000000005355002000000010410406210410230005949937930621217210000594   1030000100030000   541120003005777031200000030MOB BANK               YGN           MMR11006210410230005940621000000000000000   10300005 00104100000000000000000000001071     
100   9503051025031911000000000012760000000012760000200000001041040621085555000709LV34SV0621217215000709   1030000100030000   581210001201777031200000012MOB BANK               YGN           MMR11006210855550007090621000000000000000   10300002 00104100000000000000000000043384     
100   35710500305737270000000000047000000000047000002000000010410406210648210019100664050621217213001910   1030000100030000   541120003106777031200000031MOB BANK               YGN           MMR11006210648210019100621000000000000000   10300005 00104100000000000000000000009400     
100   35710830285032570000000000055500000000055500002000000010410406210702490019109497020621217213001910   1030000100030000   541110001903777031200000019MOB BANK               YGN           MMR11006210702490019100621000000000000000   10300003 00104100000000000000000000011100     
100   9503051021569872000000000000340000000000340000200000001041040621044345000595DBFPIB0621217211000595   1030000100030000   541120003005777031200000030MOB BANK               YGN           MMR11006210443450005950621000000000000000   10300002 00104100000000000000000000000680     
100   9503051025982337000000000001400000000001400000200000001041040621031936000697PZSBLP0621217209000697   1030000100030000   541120003104777031200000031MOB BANK               YGN           MMR11006210319360006970621000000000000000   10300002 00104100000000000000000000002800     
100   62441900003890660000000000020200000000020200002000000010410406210738110020679053960621217214002067   1030000100030000   541120003117777031200000031MOB BANK               YGN           MMR11006210738110020670621000000000000000   10300003 00104100000000000000000000007070     
100   95030540005127800000000000005880000000005880002000000010410406210857530020702KFDZU0621217215002070   1030000100030000   541120003117777031200000031MOB BANK               YGN           MMR11006210857530020700621000000000000000   10300002 00104100000000000000000000001176     
100   9503051872408832000000000000931000000000931000200000001041040621112725003450V3LQWW0621217217003450   1030000100030000   541110001907777031200000019MOB BANK               YGN           MMR11006211127250034500621000000000000000   10300002 00104100000000000000000000001862     
100   35710500304781410000000000026700000000026700002000000010410406211146050034535278530621217218003453   1030000100030000   541110001907777031200000019MOB BANK               YGN           MMR11006211146050034530621000000000000000   10300005 00104100000000000000000000005340     
100   9503051885963526000000000000565000000000565000200000001041040621065819000598F4WUNV0621217213000598   1030000100030000   541120003005777031200000030MOB BANK               YGN           MMR11006210658190005980621000000000000000   10300002 00104100000000000000000000001130     
100   95030800034708090000000000212300000000212300002000000010410406211139150007111155610621217218000711   1030000100030000   581210001201777031200000012MOB BANK               YGN           MMR11006211139150007110621000000000000000   10300003 00104100000000000000000000072182     
100   62921400053321900000000000016500000000016500002000000010410406211139580009602222220621217218000960   1030000100030000   581210001501777031200000015MOB BANK               YGN           MMR11006211139580009600621000000000000000   10300009 00104100000000000000000000005610     
100   35710500178992100000000000030000000000030000002000000010410406210503150019027525910621217211001902   1030000100030000   541110001903777031200000019MOB BANK               YGN           MMR11006210503150019020621000000000000000   10300005 00104100000000000000000000006000     
100   35710500334870810000000000035880000000035880002000000010410406211207160034582571190621217218003458   1030000100030000   541110001907777031200000019MOB BANK               YGN           MMR11006211207160034580621000000000000000   10300005 00104100000000000000000000007176     
100   62622000226252440000000000003332000000003332002000000010410406210758280005992219510621217214000599   1030000100030000   541120003005777031200000030MOB BANK               YGN           MMR11006210758280005990621000000000000000   10300006 00104100000000000000000000000666     
100   35710500374196760000000000006300000000006300002000000010410406210805120006001660980621217214000600   1030000100030000   541120003005777031200000030MOB BANK               YGN           MMR11006210805120006000621000000000000000   10300005 00104100000000000000000000001260     
100   95030800077646290000000000041700000000041700002000000010410406210423290004318541100621217210000431   1030000100030000   541120003001777031200000030MOB BANK               YGN           MMR11006210423290004310621000000000000000   10300003 00104100000000000000000000008340     
100   35710500304443900000000000019600000000019600002000000010410406210755580004329218440621217214000432   1030000100030000   541120003001777031200000030MOB BANK               YGN           MMR11006210755580004320621000000000000000   10300005 00104100000000000000000000003920     
100   9503190005270691000000000004340000000004340000200000001041040621041121000397SS5U3S0621217210000397   1030000100030000   541120003002777031200000030MOB BANK               YGN           MMR11006210411210003970621000000000000000   10300014 00104100000000000000000000008680     
100   35710500334808210000000000032000000000032000002000000010410406210630290005852733930621217213000585   1030000100030000   541120003111777031200000031MOB BANK               YGN           MMR11006210630290005850621000000000000000   10300005 00104100000000000000000000006400     
100   9503190001503509000000000000355000000000355000200000001041040621084229000781YUEY050621217215000781   1030000100030000   541120003008777031200000030MOB BANK               YGN           MMR11006210842290007810621000000000000000   10300014 00104100000000000000000000000710     
100   9503051888518483000000000003580000000003580000200000001041040621071851001914MDEGJW0621217213001914   1030000100030000   541110001903777031200000019MOB BANK               YGN           MMR11006210718510019140621000000000000000   10300002 00104100000000000000000000007160     
100   62443001760059620000000000015000000000015000002000000010410406211150320019169313710621217218001916   1030000100030000   541120003106777031200000031MOB BANK               YGN           MMR11006211150320019160621000000000000000   10300005 00104100000000000000000000005250     
100   35710500178992100000000000039900000000039900002000000010410406210508480019047731760621217211001904   1030000100030000   541110001903777031200000019MOB BANK               YGN           MMR11006210508480019040621000000000000000   10300005 00104100000000000000000000007980     
100   9503190005270691000000000003700000000003700000200000001041040621041251000398A3PHV20621217210000398   1030000100030000   541120003002777031200000030MOB BANK               YGN           MMR11006210412510003980621000000000000000   10300014 00104100000000000000000000007400     
100   35710830422378410000000000014500000000014500002000000010410406210538480003998993010621217212000399   1030000100030000   541120003002777031200000030MOB BANK               YGN           MMR11006210538480003990621000000000000000   10300003 00104100000000000000000000002900     
100   35710500315350710000000000007000000000007000002000000010410406210948050004003749150621217216000400   1030000100030000   541120003002777031200000030MOB BANK               YGN           MMR11006210948050004000621000000000000000   10300005 00104100000000000000000000001400     
100   9503051885542064000000000000440000000000440000200000001041040621102254000401QBHHEV0621217216000401   1030000100030000   541120003002777031200000030MOB BANK               YGN           MMR11006211022540004010621000000000000000   10300002 00104100000000000000000000000880     
100   9503051873048264000000000001310000000001310000200000001041040621093041000601AN7AKG0621217216000601   1030000100030000   541120003005777031200000030MOB BANK               YGN           MMR11006210930410006010621000000000000000   10300002 00104100000000000000000000002620     
100   9503051885542064000000000000530000000000530000200000001041040621102916000602TMLYIK0621217216000602   1030000100030000   541120003005777031200000030MOB BANK               YGN           MMR11006211029160006020621000000000000000   10300002 00104100000000000000000000001060     
100   35710830546874040000000000019400000000019400002000000010410406210620120007799241410621217212000779   1030000100030000   541120003008777031200000030MOB BANK               YGN           MMR11006210620120007790621000000000000000   10300003 00104100000000000000000000003880     
100   35710830611664910000000000014450000000014450002000000010410406210732070007069672910621217214000706   1030000100030000   541120003104777031200000031MOB BANK               YGN           MMR11006210732070007060621000000000000000   10300003 00104100000000000000000000002890     
100   62622000945177170000000000031800000000031800002000000010410406210805580019161616880621217214001916   1030000100030000   541110001903777031200000019MOB BANK               YGN           MMR11006210805580019160621000000000000000   10300006 00104100000000000000000000006360     
100   9503051026355384000000000003880000000003880000200000001041040621120616001919QRHQHC0621217218001919   1030000100030000   541110001903777031200000019MOB BANK               YGN           MMR11006211206160019190621000000000000000   10300002 00104100000000000000000000007760     
100   9503051872410127000000000000568400000000568400200000001041040621035137002688QKVW9C0621217210002688   1030000100030000   541110001905777031200000019MOB BANK               YGN           MMR11006210351370026880621000000000000000   10300002 00104100000000000000000000001137     
100   62346600104805520000000000023000000000023000002000000010410406210843020026961051510621217215002696   1030000100030000   541110001905777031200000019MOB BANK               YGN           MMR11006210843020026960621000000000000000   10300005 00104100000000000000000000004600     
100   9503051872972761000000000000770000000000770000200000001041040621111605002700QNZIGD0621217217002700   1030000100030000   541110001905777031200000019MOB BANK               YGN           MMR11006211116050027000621000000000000000   10300002 00104100000000000000000000001540     
100   9503051872439837000000000001200000000001200000200000001041040621031937000777TXN6QX0621217209000777   1030000100030000   541120003008777031200000030MOB BANK               YGN           MMR11006210319370007770621000000000000000   10300002 00104100000000000000000000002400     
100   35710830012709570000000000054500000000054500002000000010410406211321220007121768410621217219000712   1030000100030000   581210001201777031200000012MOB BANK               YGN           MMR11006211321220007120621000000000000000   10300003 00104100000000000000000000018530     
100   62441900102427920000000000046850000000046850002000000010410406210500510006992882090621217211000699   1030000100030000   541120003104777031200000031MOB BANK               YGN           MMR11006210500510006990621000000000000000   10300003 00104100000000000000000000016397     
100   35710500181828970000000000018700000000018700002000000010410406210447580005962645490621217211000596   1030000100030000   541120003005777031200000030MOB BANK               YGN           MMR11006210447580005960621000000000000000   10300005 00104100000000000000000000003740     
100   95030518844090590000000000015000000000015000002000000010410406210918520007831LJNHI0621217215000783   1030000100030000   541120003008777031200000030MOB BANK               YGN           MMR11006210918520007830621000000000000000   10300002 00104100000000000000000000003000     
100   35710500374947600000000000217000000000217000002000000010410406211217540019211621340621217218001921   1030000100030000   541110001903777031200000019MOB BANK               YGN           MMR11006211217540019210621000000000000000   10300005 00104100000000000000000000043400     
100   9503051024943280000000000002080000000002080000200000001041040621122304001923ILLMFZ0621217218001923   1030000100030000   541110001903777031200000019MOB BANK               YGN           MMR11006211223040019230621000000000000000   10300002 00104100000000000000000000004160     
100   35710500374947600000000000031800000000031800002000000010410406211225530019250174710621217218001925   1030000100030000   541110001903777031200000019MOB BANK               YGN           MMR11006211225530019250621000000000000000   10300005 00104100000000000000000000006360     
100   62343301011224100000000000028730000000028730002000000010410406210553560019069856420621217212001906   1030000100030000   541110001903777031200000019MOB BANK               YGN           MMR11006210553560019060621000000000000000   10300004 00104100000000000000000000005746     
100   62343301017717520000000000011500000000011500002000000010410406211118460015589852860621217217001558   1030000100030000   541110001920777031200000019MOB BANK               YGN           MMR11006211118460015580621000000000000000   10300004 00104100000000000000000000002300     
