100   9503051892701695000000000013151000000013151000200000001041040622120832001792Q1H7S90622217318001792   1030000100030000   541160000001777031200000006MOB BANK               YGN           MMR11006221208320017920622000000000000000   10300002 00104100000000000000000000026302     
100   35710830251531550000000000016000000000016000002000000010410406220612180019217834000622217312001921   1030000100030000   541120003106777031200000031MOB BANK               YGN           MMR11006220612180019210622000000000000000   10300003 00104100000000000000000000003200     
100   9503051026112223000000000001480000000001480000200000001041040622065432000608QK4OFF0622217313000608   1030000100030000   541120003005777031200000030MOB BANK               YGN           MMR11006220654320006080622000000000000000   10300002 00104100000000000000000000002960     
100   9503051890831981000000000000650000000000650000200000001041040622060739000850UGHPJA0622217312000850   1030000100030000   541120003103777031200000031MOB BANK               YGN           MMR11006220607390008500622000000000000000   10300002 00104100000000000000000000001300     
100   35710500383367130000000000038000000000038000002000000010410406220532240008465318720622217312000846   1030000100030000   541120003103777031200000031MOB BANK               YGN           MMR11006220532240008460622000000000000000   10300005 00104100000000000000000000007600     
100   35710500353338380000000000057440000000057440002000000010410406220556080007141069620622217312000714   1030000100030000   541120003104777031200000031MOB BANK               YGN           MMR11006220556080007140622000000000000000   10300005 00104100000000000000000000011488     
100   95030518730106860000000000020500000000020500002000000010410406221141430020968LAMPL0622217318002096   1030000100030000   541120003117777031200000031MOB BANK               YGN           MMR11006221141430020960622000000000000000   10300002 00104100000000000000000000004100     
100   9503051024667913000000000002265000000002265000200000001041040622130819003516TXWEA30622217319003516   1030000100030000   541110001907777031200000019MOB BANK               YGN           MMR11006221308190035160622000000000000000   10300002 00104100000000000000000000004530     
100   35710830472249680000000000007742000000007742002000000010410406221149500027909859200622217318002790   1030000100030000   541110001905777031200000019MOB BANK               YGN           MMR11006221149500027900622000000000000000   10300003 00104100000000000000000000001548     
100   62346600161338580000000000008050000000008050002000000010410406220856550027412035800622217315002741   1030000100030000   541110001905777031200000019MOB BANK               YGN           MMR11006220856550027410622000000000000000   10300005 00104100000000000000000000001610     
100   9503051024943280000000000002130000000002130000200000001041040622093227002745ZZUYX70622217316002745   1030000100030000   541110001905777031200000019MOB BANK               YGN           MMR11006220932270027450622000000000000000   10300002 00104100000000000000000000004260     
100   35710500314424270000000000044800000000044800002000000010410406220743250019466987360622217314001946   1030000100030000   541110001903777031200000019MOB BANK               YGN           MMR11006220743250019460622000000000000000   10300005 00104100000000000000000000008960     
100   9503051894576343000000000002175000000002175000200000001041040622074745001949WJCWNM0622217314001949   1030000100030000   541110001903777031200000019MOB BANK               YGN           MMR11006220747450019490622000000000000000   10300002 00104100000000000000000000004350     
100   9503051019605159000000000005853800000005853800200000001041040622093408002749QBTKXG0622217316002749   1030000100030000   541110001905777031200000019MOB BANK               YGN           MMR11006220934080027490622000000000000000   10300002 00104100000000000000000000011708     
100   35710500152849020000000000046158000000046158002000000010410406220802540034776452730622217314003477   1030000100030000   541110001907777031200000019MOB BANK               YGN           MMR11006220802540034770622000000000000000   10300005 00104100000000000000000000009232     
100   62622000056707870000000000005450000000005450002000000010410406220845150034792522360622217315003479   1030000100030000   541110001907777031200000019MOB BANK               YGN           MMR11006220845150034790622000000000000000   10300006 00104100000000000000000000001090     
100   9503051019605159000000000001597400000001597400200000001041040622094728003482DESPUT0622217316003482   1030000100030000   541110001907777031200000019MOB BANK               YGN           MMR11006220947280034820622000000000000000   10300002 00104100000000000000000000003195     
100   35710500314728200000000000033890000000033890002000000010410406221300240006101981410622217319000610   1030000100030000   541120003005777031200000030MOB BANK               YGN           MMR11006221300240006100622000000000000000   10300005 00104100000000000000000000006778     
100   62921400042565490000000000077600000000077600002000000010410406220727340008522222220622217313000852   1030000100030000   541120003103777031200000031MOB BANK               YGN           MMR11006220727340008520622000000000000000   10300009 00104100000000000000000000015520     
100   35710500383367130000000000017200000000017200002000000010410406220558040007151821700622217312000715   1030000100030000   541120003104777031200000031MOB BANK               YGN           MMR11006220558040007150622000000000000000   10300005 00104100000000000000000000003440     
100   35710500121682310000000000010800000000010800002000000010410406221020480027542867310622217316002754   1030000100030000   541110001905777031200000019MOB BANK               YGN           MMR11006221020480027540622000000000000000   10300005 00104100000000000000000000002160     
100   35710500373395850000000000009800000000009800002000000010410406220314060006048904160622217309000604   1030000100030000   541120003005777031200000030MOB BANK               YGN           MMR11006220314060006040622000000000000000   10300005 00104100000000000000000000001960     
100   9503051888898372000000000003690000000003690000200000001041040622045655000842QLXX8B0622217311000842   1030000100030000   541120003103777031200000031MOB BANK               YGN           MMR11006220456550008420622000000000000000   10300002 00104100000000000000000000007380     
100   9503051025898871000000000015810000000015810000200000001041040622051346002077UI2Z9A0622217311002077   1030000100030000   541120003117777031200000031MOB BANK               YGN           MMR11006220513460020770622000000000000000   10300002 00104100000000000000000000031620     
100   9503051025362167000000000001479500000001479500200000001041040622071101001592W6NDHX0622217313001592   1030000100030000   581250000001777031200000005MOB BANK               YGN           MMR11006220711010015920622000000000000000   10300002 00104100000000000000000000005030     
100   62346600130849710000000000015895000000015895002000000010410406220955290015937031310622217316001593   1030000100030000   581250000001777031200000005MOB BANK               YGN           MMR11006220955290015930622000000000000000   10300005 00104100000000000000000000005404     
100   9503051893148128000000000001965000000001965000200000001041040622095759003485KVRKWE0622217316003485   1030000100030000   541110001907777031200000019MOB BANK               YGN           MMR11006220957590034850622000000000000000   10300002 00104100000000000000000000003930     
100   9503051025871993000000000010000000000010000000200000001041040622102319003488QKOPHA0622217316003488   1030000100030000   541110001907777031200000019MOB BANK               YGN           MMR11006221023190034880622000000000000000   10300002 00104100000000000000000000020000     
100   62346600111833790000000000002940000000002940002000000010410406221135360034910453670622217318003491   1030000100030000   541110001907777031200000019MOB BANK               YGN           MMR11006221135360034910622000000000000000   10300005 00104100000000000000000000000588     
100   9503051893148128000000000003245000000003245000200000001041040622102921002758RVPIK50622217316002758   1030000100030000   541110001905777031200000019MOB BANK               YGN           MMR11006221029210027580622000000000000000   10300002 00104100000000000000000000006490     
100   35710830286925890000000000004050000000004050002000000010410406221030270027639382910622217317002763   1030000100030000   541110001905777031200000019MOB BANK               YGN           MMR11006221030270027630622000000000000000   10300003 00104100000000000000000000000810     
100   9503051886988464000000000001800000000001800000200000001041040622114145003495NDQDF00622217318003495   1030000100030000   541110001907777031200000019MOB BANK               YGN           MMR11006221141450034950622000000000000000   10300002 00104100000000000000000000003600     
100   9503190002182600000000000007060000000007060000200000001041040622044236001930Y9JMG50622217311001930   1030000100030000   541110001903777031200000019MOB BANK               YGN           MMR11006220442360019300622000000000000000   10300014 00104100000000000000000000014120     
100   9503051896670011000000000015450000000015450000200000001041040622075430002723DRCPBK0622217314002723   1030000100030000   541110001905777031200000019MOB BANK               YGN           MMR11006220754300027230622000000000000000   10300002 00104100000000000000000000030900     
100   35710830032169820000000000023500000000023500002000000010410406220731140019228307510622217314001922   1030000100030000   541120003106777031200000031MOB BANK               YGN           MMR11006220731140019220622000000000000000   10300003 00104100000000000000000000004700     
100   35710500165224410000000000021395000000021395002000000010410406211144050015890746560621217218001589   1030000100030000   581250000001777031200000005MOB BANK               YGN           MMR11006211144050015890621000000000000000   10300005 00104100000000000000000000007274     
100   62346600178431090000000000026180000000026180002000000010410406211214220015900699070621217218001590   1030000100030000   581250000001777031200000005MOB BANK               YGN           MMR11006211214220015900621000000000000000   10300005 00104100000000000000000000008901     
100   9503051888395064000000000007120000000007120000200000001041040622121730000278Q4W45J0622217318000278   1030000100030000   541120003115777031200000031MOB BANK               YGN           MMR11006221217300002780622000000000000000   10300002 00104100000000000000000000014240     
100   62346600132721470000000000007700000000007700002000000010410406220954250003685123540622217316000368   1030000100030000   541120003012777031200000030MOB BANK               YGN           MMR11006220954250003680622000000000000000   10300005 00104100000000000000000000001540     
100   62346600152723010000000000024696000000024696002000000010410406220455000002724139750622217311000272   1030000100030000   541120003115777031200000031MOB BANK               YGN           MMR11006220455000002720622000000000000000   10300005 00104100000000000000000000004939     
100   62622000540998620000000000012900000000012900002000000010410406220626490004341912190622217312000434   1030000100030000   541120003001777031200000030MOB BANK               YGN           MMR11006220626490004340622000000000000000   10300006 00104100000000000000000000002580     
100   9503051897465692000000000000750000000000750000200000001041040622035703000413A6G8D00622217310000413   1030000100030000   541120003013777031200000030MOB BANK               YGN           MMR11006220357030004130622000000000000000   10300002 00104100000000000000000000001500     
100   9503190006134581000000000001355000000001355000200000001041040622100452000641QBV8P20622217316000641   1030000100030000   541120003003777031200000030MOB BANK               YGN           MMR11006221004520006410622000000000000000   10300014 00104100000000000000000000002710     
100   9503051025228293000000000005000000000005000000200000001041040622073359000008NKBUKE0622217314000008   1030000100030000   701120003702777031200000037MOB BANK               YGN           MMR11006220733590000080622000000000000000   10300002 00104100000000000000000000017000     
100   35710500382683870000000000028000000000028000002000000010410406220457370003638246240622217311000363   1030000100030000   541120003012777031200000030MOB BANK               YGN           MMR11006220457370003630622000000000000000   10300005 00104100000000000000000000005600     
100   35710500174687680000000000045000000000045000002000000010410406220540160001585766070622217312000158   1030000100030000   541110001919777031200000019MOB BANK               YGN           MMR11006220540160001580622000000000000000   10300005 00104100000000000000000000009000     
100   35710830736536350000000000012600000000012600002000000010410406220608090004147809110622217312000414   1030000100030000   541120003013777031200000030MOB BANK               YGN           MMR11006220608090004140622000000000000000   10300003 00104100000000000000000000002520     
100   35710500155505830000000000018150000000018150002000000010410406220643060004352394510622217313000435   1030000100030000   541120003001777031200000030MOB BANK               YGN           MMR11006220643060004350622000000000000000   10300005 00104100000000000000000000003630     
100   35710500365402580000000000041160000000041160002000000010410406220514200003650745390622217311000365   1030000100030000   541120003012777031200000030MOB BANK               YGN           MMR11006220514200003650622000000000000000   10300005 00104100000000000000000000008232     
100   35710500385425830000000000031850000000031850002000000010410406221022140002763377880622217316000276   1030000100030000   541120003115777031200000031MOB BANK               YGN           MMR11006221022140002760622000000000000000   10300005 00104100000000000000000000006370     
100   35710500162225210000000000018400000000018400002000000010410406220736170002740171580622217314000274   1030000100030000   541120003115777031200000031MOB BANK               YGN           MMR11006220736170002740622000000000000000   10300005 00104100000000000000000000003680     
100   35710830257838370000000000016200000000016200002000000010410406220827070004178642810622217314000417   1030000100030000   541120003013777031200000030MOB BANK               YGN           MMR11006220827070004170622000000000000000   10300003 00104100000000000000000000003240     
100   35710500333258100000000000021070000000021070002000000010410406220832230006395708730622217315000639   1030000100030000   541120003003777031200000030MOB BANK               YGN           MMR11006220832230006390622000000000000000   10300005 00104100000000000000000000004214     
100   62622000013631220000000000021560000000021560002000000010410406221126520006451874190622217317000645   1030000100030000   541120003003777031200000030MOB BANK               YGN           MMR11006221126520006450622000000000000000   10300006 00104100000000000000000000004312     
100   35710500335365230000000000062850000000062850002000000010410406220348480002700962630622217310000270   1030000100030000   541120003115777031200000031MOB BANK               YGN           MMR11006220348480002700622000000000000000   10300005 00104100000000000000000000012570     
100   35710830784197840000000000004400000000004400002000000010410406221115580006439656010622217317000643   1030000100030000   541120003003777031200000030MOB BANK               YGN           MMR11006221115580006430622000000000000000   10300003 00104100000000000000000000000880     
100   9503051024439792000000000005520000000005520000200000001041040622130531000281BSOLSK0622217319000281   1030000100030000   541120003115777031200000031MOB BANK               YGN           MMR11006221305310002810622000000000000000   10300002 00104100000000000000000000011040     
100   35710830546874040000000000025990000000025990002000000010410406220711130004158187410622217313000415   1030000100030000   541120003013777031200000030MOB BANK               YGN           MMR11006220711130004150622000000000000000   10300003 00104100000000000000000000005198     
100   62921400040836870000000000047790000000047790002000000010410406221122050004362222220622217317000436   1030000100030000   541120003001777031200000030MOB BANK               YGN           MMR11006221122050004360622000000000000000   10300009 00104100000000000000000000009558     
100   9503051019925292000000000003180000000003180000200000001041040622044825001933QODM1Z0622217311001933   1030000100030000   541110001903777031200000019MOB BANK               YGN           MMR11006220448250019330622000000000000000   10300002 00104100000000000000000000006360     
100   62443000810004470000000000006960000000006960002000000010410406221140560034933297510622217318003493   1030000100030000   541110001907777031200000019MOB BANK               YGN           MMR11006221140560034930622000000000000000   10300005 00104100000000000000000000002436     
100   35710500381204480000000000015390000000015390002000000010410406221142230034966758880622217318003496   1030000100030000   541110001907777031200000019MOB BANK               YGN           MMR11006221142230034960622000000000000000   10300005 00104100000000000000000000003078     
100   9503190005803046000000000015540000000015540000200000001041040622141120000716G67YYE0622217320000716   1030000100030000   581210001201777031200000012MOB BANK               YGN           MMR11006221411200007160622000000000000000   10300014 00104100000000000000000000052836     
100   95030518724101270000000000015190000000015190002000000010410406221041580027656IRKJR0622217317002765   1030000100030000   541110001905777031200000019MOB BANK               YGN           MMR11006221041580027650622000000000000000   10300002 00104100000000000000000000003038     
100   35710830214404400000000000005920000000005920002000000010410406220326230006056838700622217309000605   1030000100030000   541120003005777031200000030MOB BANK               YGN           MMR11006220326230006050622000000000000000   10300003 00104100000000000000000000001184     
100   9503190006293916000000000002687700000002687700200000001041040622045445000606WK6E740622217311000606   1030000100030000   541120003005777031200000030MOB BANK               YGN           MMR11006220454450006060622000000000000000   10300014 00104100000000000000000000005376     
100   35710500353338380000000000018240000000018240002000000010410406220550260007126502000622217312000712   1030000100030000   541120003104777031200000031MOB BANK               YGN           MMR11006220550260007120622000000000000000   10300005 00104100000000000000000000003648     
100   9503051883526937000000000000300000000000300000200000001041040622052410002080IQIUG70622217311002080   1030000100030000   541120003117777031200000031MOB BANK               YGN           MMR11006220524100020800622000000000000000   10300002 00104100000000000000000000000600     
100   62622000056707870000000000031000000000031000002000000010410406220838400019511873490622217315001951   1030000100030000   541110001903777031200000019MOB BANK               YGN           MMR11006220838400019510622000000000000000   10300006 00104100000000000000000000006200     
100   62346600103111200000000000021800000000021800002000000010410406221004030019539386430622217316001953   1030000100030000   541110001903777031200000019MOB BANK               YGN           MMR11006221004030019530622000000000000000   10300005 00104100000000000000000000004360     
100   9503051025373016000000000000410000000000410000200000001041040622121126003499DJNAQU0622217318003499   1030000100030000   541110001907777031200000019MOB BANK               YGN           MMR11006221211260034990622000000000000000   10300002 00104100000000000000000000000820     
100   35710950600906620000000000048870000000048870002000000010410406221055390027699534110622217317002769   1030000100030000   541110001905777031200000019MOB BANK               YGN           MMR11006221055390027690622000000000000000   10300003 00104100000000000000000000009774     
100   35710500121682310000000000011729000000011729002000000010410406221105280027730050060622217317002773   1030000100030000   541110001905777031200000019MOB BANK               YGN           MMR11006221105280027730622000000000000000   10300005 00104100000000000000000000002346     
100   9503051021654856000000000018126200000018126200200000001041040622110631002774ZWCPVE0622217317002774   1030000100030000   541110001905777031200000019MOB BANK               YGN           MMR11006221106310027740622000000000000000   10300002 00104100000000000000000000036252     
100   35710950137923720000000000023000000000023000002000000010410406220404200007887066200622217310000788   1030000100030000   541120003008777031200000030MOB BANK               YGN           MMR11006220404200007880622000000000000000   10300003 00104100000000000000000000004600     
100   9503051023287713000000000005280000000005280000200000001041040622071654002083ELLGPY0622217313002083   1030000100030000   541120003117777031200000031MOB BANK               YGN           MMR11006220716540020830622000000000000000   10300002 00104100000000000000000000010560     
100   9503051019925292000000000002380000000002380000200000001041040622045841001935FC6NHH0622217311001935   1030000100030000   541110001903777031200000019MOB BANK               YGN           MMR11006220458410019350622000000000000000   10300002 00104100000000000000000000004760     
100   35710500183513510000000000012000000000012000002000000010410406221229460035033182470622217318003503   1030000100030000   541110001907777031200000019MOB BANK               YGN           MMR11006221229460035030622000000000000000   10300005 00104100000000000000000000002400     
100   9503051893140448000000000002950000000002950000200000001041040622042113000588KTPZFC0622217310000588   1030000100030000   541120003111777031200000031MOB BANK               YGN           MMR11006220421130005880622000000000000000   10300002 00104100000000000000000000005900     
100   95030518908319810000000000006500000000006500002000000010410406221019210008547XLCZL0622217316000854   1030000100030000   541120003103777031200000031MOB BANK               YGN           MMR11006221019210008540622000000000000000   10300002 00104100000000000000000000001300     
100   9503190006602066000000000018700000000018700000200000001041040622144051000717G0MK8T0622217321000717   1030000100030000   581210001201777031200000012MOB BANK               YGN           MMR11006221440510007170622000000000000000   10300014 00104100000000000000000000063580     
100   95030510258539340000000000041735000000041735002000000010410406220610520019374C8A170622217312001937   1030000100030000   541110001903777031200000019MOB BANK               YGN           MMR11006220610520019370622000000000000000   10300002 00104100000000000000000000008347     
100   9503051020393266000000000003493000000003493000200000001041040622111400002777XRNRWO0622217317002777   1030000100030000   541110001905777031200000019MOB BANK               YGN           MMR11006221114000027770622000000000000000   10300002 00104100000000000000000000006986     
100   9503051023878768000000000000980000000000980000200000001041040622063512000607MFETUR0622217313000607   1030000100030000   541120003005777031200000030MOB BANK               YGN           MMR11006220635120006070622000000000000000   10300002 00104100000000000000000000001960     
100   9503051883526937000000000000470000000000470000200000001041040622051504000844W0O3VC0622217311000844   1030000100030000   541120003103777031200000031MOB BANK               YGN           MMR11006220515040008440622000000000000000   10300002 00104100000000000000000000000940     
100   35710500374900320000000000053350000000053350002000000010410406220706050009675691410622217313000967   1030000100030000   581210001501777031200000015MOB BANK               YGN           MMR11006220706050009670622000000000000000   10300005 00104100000000000000000000018139     
100   35710500314446540000000000005600000000005600002000000010410406220946330020876891060622217316002087   1030000100030000   541120003117777031200000031MOB BANK               YGN           MMR11006220946330020870622000000000000000   10300005 00104100000000000000000000001120     
100   9503051020393266000000000008520000000008520000200000001041040622104717001956XV7L1B0622217317001956   1030000100030000   541110001903777031200000019MOB BANK               YGN           MMR11006221047170019560622000000000000000   10300002 00104100000000000000000000017040     
100   35710500333416500000000000022400000000022400002000000010410406221048400019573781500622217317001957   1030000100030000   541110001903777031200000019MOB BANK               YGN           MMR11006221048400019570622000000000000000   10300005 00104100000000000000000000004480     
100   35710500383331320000000000012572000000012572002000000010410406221240020035053558510622217319003505   1030000100030000   541110001907777031200000019MOB BANK               YGN           MMR11006221240020035050622000000000000000   10300005 00104100000000000000000000002514     
100   9503051888898372000000000001780000000001780000200000001041040622043525000840BPE2EK0622217311000840   1030000100030000   541120003103777031200000031MOB BANK               YGN           MMR11006220435250008400622000000000000000   10300002 00104100000000000000000000003560     
100   35710830736536350000000000027500000000027500002000000010410406220559090007917755010622217312000791   1030000100030000   541120003008777031200000030MOB BANK               YGN           MMR11006220559090007910622000000000000000   10300003 00104100000000000000000000005500     
100   9503051024088243000000000002400000000002400000200000001041040622102644002090KOSJOT0622217316002090   1030000100030000   541120003117777031200000031MOB BANK               YGN           MMR11006221026440020900622000000000000000   10300002 00104100000000000000000000004800     
100   95030510237033470000000000040500000000040500002000000010410406220621550015815UWX6B0622217312001581   1030000100030000   541110001920777031200000019MOB BANK               YGN           MMR11006220621550015810622000000000000000   10300002 00104100000000000000000000008100     
100   9503051891929594000000000000780000000000780000200000001041040622071305001585VT4YK10622217313001585   1030000100030000   541110001920777031200000019MOB BANK               YGN           MMR11006220713050015850622000000000000000   10300002 00104100000000000000000000001560     
100   62622000816944120000000000005650000000005650002000000010410406221240520035062493110622217319003506   1030000100030000   541110001907777031200000019MOB BANK               YGN           MMR11006221240520035060622000000000000000   10300006 00104100000000000000000000001130     
100   9503051019993837000000000000710500000000710500200000001041040622072334002714QCBK2U0622217313002714   1030000100030000   541110001905777031200000019MOB BANK               YGN           MMR11006220723340027140622000000000000000   10300002 00104100000000000000000000001421     
100   9503051890831981000000000000800000000000800000200000001041040622054602000589506NOI0622217312000589   1030000100030000   541120003111777031200000031MOB BANK               YGN           MMR11006220546020005890622000000000000000   10300002 00104100000000000000000000001600     
100   35710500100620630000000000012000000000012000002000000010410406220634070005907245010622217313000590   1030000100030000   541120003111777031200000031MOB BANK               YGN           MMR11006220634070005900622000000000000000   10300005 00104100000000000000000000002400     
100   35710830714699350000000000192202000000192202002000000010410406220725290019418273110622217313001941   1030000100030000   541110001903777031200000019MOB BANK               YGN           MMR11006220725290019410622000000000000000   10300003 00104100000000000000000000038440     
100   9503051885601035000000000001800000000001800000200000001041040622080352000591WZYBXP0622217314000591   1030000100030000   541120003111777031200000031MOB BANK               YGN           MMR11006220803520005910622000000000000000   10300002 00104100000000000000000000003600     
100   35710500391584880000000000022450000000022450002000000010410406221243130035103898890622217319003510   1030000100030000   541110001907777031200000019MOB BANK               YGN           MMR11006221243130035100622000000000000000   10300005 00104100000000000000000000004490     
100   35710500381204480000000000010200000000010200002000000010410406221115410027849624580622217317002784   1030000100030000   541110001905777031200000019MOB BANK               YGN           MMR11006221115410027840622000000000000000   10300005 00104100000000000000000000002040     
100   9503051020393266000000000004688600000004688600200000001041040622111817002785ZRNBS80622217317002785   1030000100030000   541110001905777031200000019MOB BANK               YGN           MMR11006221118170027850622000000000000000   10300002 00104100000000000000000000009377     
100   9503051019993837000000000000568400000000568400200000001041040622073748002717Z0ACKS0622217314002717   1030000100030000   541110001905777031200000019MOB BANK               YGN           MMR11006220737480027170622000000000000000   10300002 00104100000000000000000000001137     
100   35710830299417870000000000010600000000010600002000000010410406220759130007938475510622217314000793   1030000100030000   541120003008777031200000030MOB BANK               YGN           MMR11006220759130007930622000000000000000   10300003 00104100000000000000000000002120     
100   9503051891670503000000000003280000000003280000200000001041040622114913001958CKRWDX0622217318001958   1030000100030000   541110001903777031200000019MOB BANK               YGN           MMR11006221149130019580622000000000000000   10300002 00104100000000000000000000006560     
100   35710500153831750000000000020000000000020000002000000010410406221043340020930100500622217317002093   1030000100030000   541120003117777031200000031MOB BANK               YGN           MMR11006221043340020930622000000000000000   10300005 00104100000000000000000000004000     
100   9503051019605159000000000003880000000003880000200000001041040622072722001943STYLXE0622217313001943   1030000100030000   541110001903777031200000019MOB BANK               YGN           MMR11006220727220019430622000000000000000   10300002 00104100000000000000000000007760     
100   95031204800308150000000000027000000000027000002000000010410406220423050034632222220622217310003463   1030000100030000   541110001907777031200000019MOB BANK               YGN           MMR11006220423050034630622000000000000000   10300009 00104100000000000000000000005400     
100   9503051024381903000000000001105000000001105000200000001041040622080332002727K2Z2GM0622217314002727   1030000100030000   541110001905777031200000019MOB BANK               YGN           MMR11006220803320027270622000000000000000   10300002 00104100000000000000000000002210     
100   9503190006129375000000000003075000000003075000200000001041040622083359002731CW4A7L0622217315002731   1030000100030000   541110001905777031200000019MOB BANK               YGN           MMR11006220833590027310622000000000000000   10300014 00104100000000000000000000006150     
100   35710830159837440000000000016900000000016900002000000010410406220837230027358704500622217315002735   1030000100030000   541110001905777031200000019MOB BANK               YGN           MMR11006220837230027350622000000000000000   10300003 00104100000000000000000000003380     
100   62346600166376270000000000042600000000042600002000000010410406220657260017881513620622217313001788   1030000100030000   541160000001777031200000006MOB BANK               YGN           MMR11006220657260017880622000000000000000   10300005 00104100000000000000000000008520     
100   35710500384743320000000000038400000000038400002000000010410406220825460017900943330622217314001790   1030000100030000   541160000001777031200000006MOB BANK               YGN           MMR11006220825460017900622000000000000000   10300005 00104100000000000000000000007680     
