100   35710950147399270000000000031584000000031584002000000010410406230446320005995959400623217411000599   1030000100030000   541120003111777031200000031MOB BANK               YGN           MMR11006230446320005990623000000000000000   10300003 00104100000000000000000000006317     
100   35710500190723290000000000013648000000013648002000000010410406231100520006128285640623217417000612   1030000100030000   541120003005777031200000030MOB BANK               YGN           MMR11006231100520006120623000000000000000   10300005 00104100000000000000000000002730     
100   35710500313632010000000000010400000000010400002000000010410406230435410006495228650623217411000649   1030000100030000   541120003003777031200000030MOB BANK               YGN           MMR11006230435410006490623000000000000000   10300005 00104100000000000000000000002080     
100   35710830586844070000000000072390000000072390002000000010410406230300400017965324200623217409001796   1030000100030000   541160000001777031200000006MOB BANK               YGN           MMR11006230300400017960623000000000000000   10300003 00104100000000000000000000014478     
100   9503051895405021000000000003990000000003990000200000001041040623094026000237YLF3KK0623217416000237   1030000100030000   541120003006777031200000030MOB BANK               YGN           MMR11006230940260002370623000000000000000   10300002 00104100000000000000000000007980     
100   35710830257243510000000000013350000000013350002000000010410406230931250006577668610623217416000657   1030000100030000   541120003003777031200000030MOB BANK               YGN           MMR11006230931250006570623000000000000000   10300003 00104100000000000000000000002670     
100   35710950933183530000000000102900000000102900002000000010410406231123230007208340510623217417000720   1030000100030000   581210001201777031200000012MOB BANK               YGN           MMR11006231123230007200623000000000000000   10300003 00104100000000000000000000034986     
100   35710500355476190000000000022800000000022800002000000010410406230624350015958395720623217412001595   1030000100030000   581250000001777031200000005MOB BANK               YGN           MMR11006230624350015950623000000000000000   10300005 00104100000000000000000000007752     
100   9503051026386587000000000029700000000029700000200000001041040623055331001799GKZGPF0623217412001799   1030000100030000   541160000001777031200000006MOB BANK               YGN           MMR11006230553310017990623000000000000000   10300002 00104100000000000000000000059400     
100   9503051026213179000000000000950000000000950000200000001041040623081138000600XNZGNB0623217414000600   1030000100030000   541120003111777031200000031MOB BANK               YGN           MMR11006230811380006000623000000000000000   10300002 00104100000000000000000000001900     
100   35710830158634410000000000002800000000002800002000000010410406230711220008006828330623217413000800   1030000100030000   541120003008777031200000030MOB BANK               YGN           MMR11006230711220008000623000000000000000   10300003 00104100000000000000000000000560     
100   35710830366636890000000000015125000000015125002000000010410406231005090015967871110623217416001596   1030000100030000   581250000001777031200000005MOB BANK               YGN           MMR11006231005090015960623000000000000000   10300003 00104100000000000000000000005142     
100   95030510233290770000000000044000000000044000002000000010410406230709020009733WUDJO0623217413000973   1030000100030000   581210001501777031200000015MOB BANK               YGN           MMR11006230709020009730623000000000000000   10300002 00104100000000000000000000014960     
100   35710830010308230000000000004000000000004000002000000010410406230357490004385667110623217410000438   1030000100030000   541120003001777031200000030MOB BANK               YGN           MMR11006230357490004380623000000000000000   10300003 00104100000000000000000000000800     
100   35710500394309370000000000017450000000017450002000000010410406231308450006591371210623217419000659   1030000100030000   541120003003777031200000030MOB BANK               YGN           MMR11006231308450006590623000000000000000   10300005 00104100000000000000000000003490     
100   62622000227536400000000000208900000000208900002000000010410406231316040007212224720623217419000721   1030000100030000   581210001201777031200000012MOB BANK               YGN           MMR11006231316040007210623000000000000000   10300006 00104100000000000000000000071026     
100   35710830697575310000000000009800000000009800002000000010410406230616320008606499310623217412000860   1030000100030000   541120003103777031200000031MOB BANK               YGN           MMR11006230616320008600623000000000000000   10300003 00104100000000000000000000001960     
100   9503051888939952000000000005500000000005500000200000001041040623113850000602ODWOKK0623217418000602   1030000100030000   541120003111777031200000031MOB BANK               YGN           MMR11006231138500006020623000000000000000   10300002 00104100000000000000000000011000     
100   9503051026167276000000000002131500000002131500200000001041040623060616000651T3EVJY0623217412000651   1030000100030000   541120003003777031200000030MOB BANK               YGN           MMR11006230606160006510623000000000000000   10300002 00104100000000000000000000004263     
100   35710830189674390000000000014245000000014245002000000010410406231119580015978319910623217417001597   1030000100030000   581250000001777031200000005MOB BANK               YGN           MMR11006231119580015970623000000000000000   10300003 00104100000000000000000000004843     
100   9503051887897425000000000001380500000001380500200000001041040623124220001598QDTUG00623217419001598   1030000100030000   581250000001777031200000005MOB BANK               YGN           MMR11006231242200015980623000000000000000   10300002 00104100000000000000000000004694     
100   9503051888570872000000000001660000000001660000200000001041040623061043002101KD54JZ0623217412002101   1030000100030000   541120003117777031200000031MOB BANK               YGN           MMR11006230610430021010623000000000000000   10300002 00104100000000000000000000003320     
100   35710500362859610000000000007800000000007800002000000010410406230712430021050550410623217413002105   1030000100030000   541120003117777031200000031MOB BANK               YGN           MMR11006230712430021050623000000000000000   10300005 00104100000000000000000000001560     
100   35710500304819210000000000052900000000052900002000000010410406231123150002395348630623217417000239   1030000100030000   541120003006777031200000030MOB BANK               YGN           MMR11006231123150002390623000000000000000   10300005 00104100000000000000000000010580     
100   62346600146623870000000000023000000000023000002000000010410406230418140005978626790623217410000597   1030000100030000   541120003111777031200000031MOB BANK               YGN           MMR11006230418140005970623000000000000000   10300005 00104100000000000000000000004600     
100   35710500313632010000000000019000000000019000002000000010410406230445360004390342510623217411000439   1030000100030000   541120003001777031200000030MOB BANK               YGN           MMR11006230445360004390623000000000000000   10300005 00104100000000000000000000003800     
100   9503051895768261000000000001566000000001566000200000001041040623102433000440YJ7PNN0623217416000440   1030000100030000   541120003001777031200000030MOB BANK               YGN           MMR11006231024330004400623000000000000000   10300002 00104100000000000000000000003132     
100   9503051895768261000000000001800000000001800000200000001041040623102217000404ITSU3D0623217416000404   1030000100030000   541120003002777031200000030MOB BANK               YGN           MMR11006231022170004040623000000000000000   10300002 00104100000000000000000000003600     
100   95030518913700050000000000038700000000038700002000000010410406231124280021087JG3ZI0623217417002108   1030000100030000   541120003117777031200000031MOB BANK               YGN           MMR11006231124280021080623000000000000000   10300002 00104100000000000000000000007740     
100   35710830467347100000000000031000000000031000002000000010410406230306500004275361110623217409000427   1030000100030000   541120003105777031200000031MOB BANK               YGN           MMR11006230306500004270623000000000000000   10300003 00104100000000000000000000006200     
100   35710500170982350000000000018000000000018000002000000010410406231155570021119743940623217418002111   1030000100030000   541120003117777031200000031MOB BANK               YGN           MMR11006231155570021110623000000000000000   10300005 00104100000000000000000000003600     
100   35710500170982350000000000098000000000098000002000000010410406231228140021133561850623217418002113   1030000100030000   541120003117777031200000031MOB BANK               YGN           MMR11006231228140021130623000000000000000   10300005 00104100000000000000000000019600     
100   9503051894403639000000000001570000000001570000200000001041040623120039000441P89B9Q0623217418000441   1030000100030000   541120003001777031200000030MOB BANK               YGN           MMR11006231200390004410623000000000000000   10300002 00104100000000000000000000003140     
100   35710500170982350000000000052200000000052200002000000010410406231247290021142178440623217419002114   1030000100030000   541120003117777031200000031MOB BANK               YGN           MMR11006231247290021140623000000000000000   10300005 00104100000000000000000000010440     
100   35710500122191090000000000037500000000037500002000000010410406230750510006540841350623217414000654   1030000100030000   541120003003777031200000030MOB BANK               YGN           MMR11006230750510006540623000000000000000   10300005 00104100000000000000000000007500     
100   35710830158634410000000000014750000000014750002000000010410406230655200007986732110623217413000798   1030000100030000   541120003008777031200000030MOB BANK               YGN           MMR11006230655200007980623000000000000000   10300003 00104100000000000000000000002950     
100   95030510210401300000000000019000000000019000002000000010410406230741230019382H3GZ50623217414001938   1030000100030000   541120003106777031200000031MOB BANK               YGN           MMR11006230741230019380623000000000000000   10300002 00104100000000000000000000003800     
