100   9503051025374030000000000005750000000005750000200000001041040625112522000387GHIRE90625217617000387   1030000100030000   541120003012777031200000030MOB BANK               YGN           MMR11006251125220003870625000000000000000   10300002 00104100000000000000000000011500     
100   9503051887654461000000000001430000000001430000200000001041040625074815000612ZXITBX0625217614000612   1030000100030000   541120003111777031200000031MOB BANK               YGN           MMR11006250748150006120625000000000000000   10300002 00104100000000000000000000002860     
100   9503051895402879000000000013400000000013400000200000001041040625113642000729D025VH0625217618000729   1030000100030000   581210001201777031200000012MOB BANK               YGN           MMR11006251136420007290625000000000000000   10300002 00104100000000000000000000045560     
100   35710500354378600000000000013500000000013500002000000010410406250912520006744171860625217615000674   1030000100030000   541120003003777031200000030MOB BANK               YGN           MMR11006250912520006740625000000000000000   10300005 00104100000000000000000000002700     
100   9503051020768756000000000001920000000001920000200000001041040625080849000382HY9MQ20625217614000382   1030000100030000   541120003012777031200000030MOB BANK               YGN           MMR11006250808490003820625000000000000000   10300002 00104100000000000000000000003840     
100   95030801780278710000000000004200000000004200002000000010410406250556110003783657210625217612000378   1030000100030000   541120003012777031200000030MOB BANK               YGN           MMR11006250556110003780625000000000000000   10300003 00104100000000000000000000000840     
100   35710500310098790000000000013805000000013805002000000010410406251142050016081951050625217618001608   1030000100030000   581250000001777031200000005MOB BANK               YGN           MMR11006251142050016080625000000000000000   10300005 00104100000000000000000000004694     
100   35710830874564620000000000025000000000025000002000000010410406250608220004363730310625217612000436   1030000100030000   541120003105777031200000031MOB BANK               YGN           MMR11006250608220004360625000000000000000   10300003 00104100000000000000000000005000     
100   9503051884988904000000000003119000000003119000200000001041040625050154000420DEOPOX0625217611000420   1030000100030000   541120003013777031200000030MOB BANK               YGN           MMR11006250501540004200625000000000000000   10300002 00104100000000000000000000006238     
100   95030518952452110000000000062000000000062000002000000010410406250931000007414UZGNR0625217616000741   1030000100030000   541120003104777031200000031MOB BANK               YGN           MMR11006250931000007410625000000000000000   10300002 00104100000000000000000000012400     
100   9503051874525534000000000006585600000006585600200000001041040625064606000820VB4JJO0625217613000820   1030000100030000   541120003008777031200000030MOB BANK               YGN           MMR11006250646060008200625000000000000000   10300002 00104100000000000000000000013171     
100   95030510221535100000000000025800000000025800002000000010410406251145210008766ZK1K50625217618000876   1030000100030000   541120003103777031200000031MOB BANK               YGN           MMR11006251145210008760625000000000000000   10300002 00104100000000000000000000005160     
100   35710950378724730000000000058000000000058000002000000010410406250527080019713482930625217611001971   1030000100030000   541120003106777031200000031MOB BANK               YGN           MMR11006250527080019710625000000000000000   10300003 00104100000000000000000000011600     
100   35710500110943210000000000012500000000012500002000000010410406250854460006134128130625217615000613   1030000100030000   541120003111777031200000031MOB BANK               YGN           MMR11006250854460006130625000000000000000   10300005 00104100000000000000000000002500     
100   35710950561615270000000000660100000000660100002000000010410406251446040007306836510625217621000730   1030000100030000   581210001201777031200000012MOB BANK               YGN           MMR11006251446040007300625000000000000000   10300003 00104100000000000000000000224434     
100   95050201013488770000000000005050000000005050002000000010410406250518560008192431180625217611000819   1030000100030000   541120003008777031200000030MOB BANK               YGN           MMR11006250518560008190625000000000000000   10200002 00104100000000000000000000001767     
100   9503051891853828000000000002280000000002280000200000001041040625043952001973MLS68C0625217611001973   1030000100030000   541110001903777031200000019MOB BANK               YGN           MMR11006250439520019730625000000000000000   10300002 00104100000000000000000000004560     
100   35710500121290840000000000032000000000032000002000000010410406250625120019749232580625217612001974   1030000100030000   541120003106777031200000031MOB BANK               YGN           MMR11006250625120019740625000000000000000   10300005 00104100000000000000000000006400     
100   9503051884320744000000000000900000000000900000200000001041040625072718000380CWP0TR0625217613000380   1030000100030000   541120003012777031200000030MOB BANK               YGN           MMR11006250727180003800625000000000000000   10300002 00104100000000000000000000001800     
100   35710830498419260000000000023800000000023800002000000010410406250549340019773617510625217612001977   1030000100030000   541110001903777031200000019MOB BANK               YGN           MMR11006250549340019770625000000000000000   10300003 00104100000000000000000000004760     
100   9503051872378829000000000011400000000011400000200000001041040625035120000024JCLTEU0625217610000024   1030000100030000   541110900003777030900000003MOB BANK               YGN           MMR11006250351200000240625000000000000000   10300002 00104100000000000000000000022800     
100   95030791000585170000000000027500000000027500002000000010410406251011340000258574740625217616000025   1030000100030000   541110900003777030900000003MOB BANK               YGN           MMR11006251011340000250625000000000000000   10200004 00104100000000000000000000005500     
100   35710830067119890000000000052000000000052000002000000010410406250522000001063452110625217611000106   1030000100030000   541120002101777031200000021MOB BANK               YGN           MMR11006250522000001060625000000000000000   10300003 00104100000000000000000000010400     
100   9503051019962964000000000002350000000002350000200000001041040625065516000610VGNE3T0625217613000610   1030000100030000   541120003111777031200000031MOB BANK               YGN           MMR11006250655160006100625000000000000000   10300002 00104100000000000000000000004700     
100   9503051895524433000000000003444700000003444700200000001041040625120312000676FTYI1K0625217618000676   1030000100030000   541120003003777031200000030MOB BANK               YGN           MMR11006251203120006760625000000000000000   10300002 00104100000000000000000000006890     
100   9503190006503454000000000001545500000001545500200000001041040625120555001609DBHD1Y0625217618001609   1030000100030000   581250000001777031200000005MOB BANK               YGN           MMR11006251205550016090625000000000000000   10300014 00104100000000000000000000005255     
100   9503051893522934000000000003520000000003520000200000001041040625064953000421OHX4MJ0625217613000421   1030000100030000   541120003013777031200000030MOB BANK               YGN           MMR11006250649530004210625000000000000000   10300002 00104100000000000000000000007040     
100   9503051896809262000000000000890000000000890000200000001041040625103334000615UVID7X0625217617000615   1030000100030000   541120003111777031200000031MOB BANK               YGN           MMR11006251033340006150625000000000000000   10300002 00104100000000000000000000001780     
100   62921400061700860000000000021500000000021500002000000010410406251234590008242222220625217619000824   1030000100030000   541120003008777031200000030MOB BANK               YGN           MMR11006251234590008240625000000000000000   10300009 00104100000000000000000000004300     
100   95030518877625460000000000034900000000034900002000000010410406250628210019773VTJHU0625217612001977   1030000100030000   541120003106777031200000031MOB BANK               YGN           MMR11006250628210019770625000000000000000   10300002 00104100000000000000000000006980     
100   95030510253740300000000000023500000000023500002000000010410406251147110004229JB0KL0625217618000422   1030000100030000   541120003013777031200000030MOB BANK               YGN           MMR11006251147110004220625000000000000000   10300002 00104100000000000000000000004700     
100   62346600115305610000000000017900000000017900002000000010410406250521390007378909340625217611000737   1030000100030000   541120003104777031200000031MOB BANK               YGN           MMR11006250521390007370625000000000000000   10300005 00104100000000000000000000003580     
100   35710500385527560000000000032550000000032550002000000010410406251047010008214997380625217617000821   1030000100030000   541120003008777031200000030MOB BANK               YGN           MMR11006251047010008210625000000000000000   10300005 00104100000000000000000000006510     
100   35710830823019940000000000055500000000055500002000000010410406250552420019793636400625217612001979   1030000100030000   541110001903777031200000019MOB BANK               YGN           MMR11006250552420019790625000000000000000   10300003 00104100000000000000000000011100     
100   35710500365836050000000000041500000000041500002000000010410406250809380019806197030625217614001980   1030000100030000   541120003106777031200000031MOB BANK               YGN           MMR11006250809380019800625000000000000000   10300005 00104100000000000000000000008300     
100   62346600159827680000000000122400000000122400002000000010410406250320290018044486460625217609001804   1030000100030000   541160000001777031200000006MOB BANK               YGN           MMR11006250320290018040625000000000000000   10300005 00104100000000000000000000024480     
100   95030801780278710000000000006100000000006100002000000010410406250529460004473499120625217611000447   1030000100030000   541120003001777031200000030MOB BANK               YGN           MMR11006250529460004470625000000000000000   10300003 00104100000000000000000000001220     
100   9503051019548672000000000001450000000001450000200000001041040625073102000611I9LMDL0625217614000611   1030000100030000   541120003111777031200000031MOB BANK               YGN           MMR11006250731020006110625000000000000000   10300002 00104100000000000000000000002900     
100   95030518919786900000000000013350000000013350002000000010410406250747110006732XJSCK0625217614000673   1030000100030000   541120003003777031200000030MOB BANK               YGN           MMR11006250747110006730625000000000000000   10300002 00104100000000000000000000002670     
100   35710500325717940000000000016200000000016200002000000010410406250558400021249254440625217612002124   1030000100030000   541120003117777031200000031MOB BANK               YGN           MMR11006250558400021240625000000000000000   10300005 00104100000000000000000000003240     
100   95031900061612460000000000100000000000100000002000000010410406250829290008705TTVS90625217614000870   1030000100030000   541120003103777031200000031MOB BANK               YGN           MMR11006250829290008700625000000000000000   10300014 00104100000000000000000000020000     
100   35710500374317880000000000067760000000067760002000000010410406251148390009865319250625217618000986   1030000100030000   581210001501777031200000015MOB BANK               YGN           MMR11006251148390009860625000000000000000   10300005 00104100000000000000000000023038     
100   35710830823019940000000000022800000000022800002000000010410406250556330019803659410625217612001980   1030000100030000   541110001903777031200000019MOB BANK               YGN           MMR11006250556330019800625000000000000000   10300003 00104100000000000000000000004560     
100   9503051019911235000000000001300000000001300000200000001041040625084758001984AGPUEG0625217615001984   1030000100030000   541120003106777031200000031MOB BANK               YGN           MMR11006250847580019840625000000000000000   10300002 00104100000000000000000000002600     
100   9503051888250061000000000002365000000002365000200000001041040625094720001606DMYDI60625217616001606   1030000100030000   581250000001777031200000005MOB BANK               YGN           MMR11006250947200016060625000000000000000   10300002 00104100000000000000000000008041     
100   9503051024997336000000000001700000000001700000200000001041040625125700000423ASFDDS0625217619000423   1030000100030000   541120003013777031200000030MOB BANK               YGN           MMR11006251257000004230625000000000000000   10300002 00104100000000000000000000003400     
100   35710500305404370000000000010300000000010300002000000010410406250916550004481341820625217615000448   1030000100030000   541120003001777031200000030MOB BANK               YGN           MMR11006250916550004480625000000000000000   10300005 00104100000000000000000000002060     
100   9503051020838146000000000000997500000000997500200000001041040625035941000734XAXGLK0625217610000734   1030000100030000   541120003104777031200000031MOB BANK               YGN           MMR11006250359410007340625000000000000000   10300002 00104100000000000000000000001995     
100   9503051022639740000000000013140000000013140000200000001041040625060418001806B30G8S0625217612001806   1030000100030000   541160000001777031200000006MOB BANK               YGN           MMR11006250604180018060625000000000000000   10300002 00104100000000000000000000026280     
100   9503051020177958000000000002500000000002500000200000001041040625091544000874JVKQTF0625217615000874   1030000100030000   541120003103777031200000031MOB BANK               YGN           MMR11006250915440008740625000000000000000   10300002 00104100000000000000000000005000     
100   35710500365836050000000000007500000000007500002000000010410406250828070021278006910625217614002127   1030000100030000   541120003117777031200000031MOB BANK               YGN           MMR11006250828070021270625000000000000000   10300005 00104100000000000000000000001500     
100   95030801780278710000000000007400000000007400002000000010410406250542380003763576010625217612000376   1030000100030000   541120003012777031200000030MOB BANK               YGN           MMR11006250542380003760625000000000000000   10300003 00104100000000000000000000001480     
100   9503190000688103000000000007870000000007870000200000001041040625123152000441D1Z18I0625217619000441   1030000100030000   541120003105777031200000031MOB BANK               YGN           MMR11006251231520004410625000000000000000   10300014 00104100000000000000000000015740     
100   9503051025374030000000000001200000000001200000200000001041040625115546000390DKRKPO0625217618000390   1030000100030000   541120003012777031200000030MOB BANK               YGN           MMR11006251155460003900625000000000000000   10300002 00104100000000000000000000002400     
100   35710830402834250000000000015800000000015800002000000010410406251132020008225672410625217618000822   1030000100030000   541120003008777031200000030MOB BANK               YGN           MMR11006251132020008220625000000000000000   10300003 00104100000000000000000000003160     
100   35710500121101000000000000033450000000033450002000000010410406250345290008170668350625217610000817   1030000100030000   541120003008777031200000030MOB BANK               YGN           MMR11006250345290008170625000000000000000   10300005 00104100000000000000000000006690     
100   35710500315337790000000000195000000000195000002000000010410406251254150019926831490625217619001992   1030000100030000   541120003106777031200000031MOB BANK               YGN           MMR11006251254150019920625000000000000000   10300005 00104100000000000000000000039000     
100   9503051025746567000000000030461600000030461600200000001041040625130738001808AZC7EX0625217619001808   1030000100030000   541160000001777031200000006MOB BANK               YGN           MMR11006251307380018080625000000000000000   10300002 00104100000000000000000000060923     
100   35710500375685140000000000014850000000014850002000000010410406251316430009888897630625217619000988   1030000100030000   581210001501777031200000015MOB BANK               YGN           MMR11006251316430009880625000000000000000   10300005 00104100000000000000000000005049     
100   9503051023980317000000000000600000000000600000200000001041040625095857002131DFV1UI0625217616002131   1030000100030000   541120003117777031200000031MOB BANK               YGN           MMR11006250958570021310625000000000000000   10300002 00104100000000000000000000001200     
100   35710830361982310000000000009800000000009800002000000010410406251043280021355380910625217617002135   1030000100030000   541120003117777031200000031MOB BANK               YGN           MMR11006251043280021350625000000000000000   10300003 00104100000000000000000000001960     
100   35710830509022450000000000011500000000011500002000000010410406251236050004436056710625217619000443   1030000100030000   541120003105777031200000031MOB BANK               YGN           MMR11006251236050004430625000000000000000   10300003 00104100000000000000000000002300     
100   9503051895245211000000000005950000000005950000200000001041040625090034000614TEHF9C0625217615000614   1030000100030000   541120003111777031200000031MOB BANK               YGN           MMR11006250900340006140625000000000000000   10300002 00104100000000000000000000011900     
100   9503051019911235000000000003730000000003730000200000001041040625083846000872ELFKO30625217615000872   1030000100030000   541120003103777031200000031MOB BANK               YGN           MMR11006250838460008720625000000000000000   10300002 00104100000000000000000000007460     
100   9503051024290807000000000001814400000001814400200000001041040625033836000608Q9RP7T0625217610000608   1030000100030000   541120003111777031200000031MOB BANK               YGN           MMR11006250338360006080625000000000000000   10300002 00104100000000000000000000003629     
100   9503051888237233000000000002707500000002707500200000001041040625071509000739C0MFUC0625217613000739   1030000100030000   541120003104777031200000031MOB BANK               YGN           MMR11006250715090007390625000000000000000   10300002 00104100000000000000000000005415     
100   9503051021256553000000000001749000000001749000200000001041040625102012001607KP5JNI0625217616001607   1030000100030000   581250000001777031200000005MOB BANK               YGN           MMR11006251020120016070625000000000000000   10300002 00104100000000000000000000005947     
