100   35710830233797600000000000020800000000020800002000000010410406260746230016362958420626217714001636   1030000100030000   541110001915777031200000019MOB BANK               YGN           MMR11006260746230016360626000000000000000   10300003 00104100000000000000000000004160     
100   35710500361122310000000000004550000000004550002000000010410406261102460004573557190626217717000457   1030000100030000   541120003001777031200000030MOB BANK               YGN           MMR11006261102460004570626000000000000000   10300005 00104100000000000000000000000910     
100   35710830784197840000000000012100000000012100002000000010410406260844380006333308000626217715000633   1030000100030000   541120003005777031200000030MOB BANK               YGN           MMR11006260844380006330626000000000000000   10300003 00104100000000000000000000002420     
100   35710500385435400000000000002100000000002100002000000010410406261143020006379979390626217718000637   1030000100030000   541120003005777031200000030MOB BANK               YGN           MMR11006261143020006370626000000000000000   10300005 00104100000000000000000000000420     
100   9503051021239807000000000001450000000001450000200000001041040626083505000426HD3O8Z0626217715000426   1030000100030000   541120003013777031200000030MOB BANK               YGN           MMR11006260835050004260626000000000000000   10300002 00104100000000000000000000002900     
100   95030518730018830000000000053350000000053350002000000010410406261352560009944IJM5N0626217720000994   1030000100030000   581210001501777031200000015MOB BANK               YGN           MMR11006261352560009940626000000000000000   10300002 00104100000000000000000000018139     
100   62346600183225740000000000008800000000008800002000000010410406260536240016112373950626217712001611   1030000100030000   581250000001777031200000005MOB BANK               YGN           MMR11006260536240016110626000000000000000   10300005 00104100000000000000000000002992     
100   9503051891941409000000000002950000000002950000200000001041040626115522001651GASGH90626217718001651   1030000100030000   541110001915777031200000019MOB BANK               YGN           MMR11006261155220016510626000000000000000   10300002 00104100000000000000000000005900     
100   9503051021239807000000000000215000000000215000200000001041040626084214000631JQBCWC0626217715000631   1030000100030000   541120003005777031200000030MOB BANK               YGN           MMR11006260842140006310626000000000000000   10300002 00104100000000000000000000000430     
100   9503051891456044000000000000980000000000980000200000001041040626111850000398IM6BFE0626217717000398   1030000100030000   541120003012777031200000030MOB BANK               YGN           MMR11006261118500003980626000000000000000   10300002 00104100000000000000000000001960     
100   35710500393508460000000000049900000000049900002000000010410406260929070003963232330626217715000396   1030000100030000   541120003012777031200000030MOB BANK               YGN           MMR11006260929070003960626000000000000000   10300005 00104100000000000000000000009980     
100   35710500154867050000000000010450000000010450002000000010410406261029480016127350480626217716001612   1030000100030000   581250000001777031200000005MOB BANK               YGN           MMR11006261029480016120626000000000000000   10300005 00104100000000000000000000003553     
100   9503051021085572000000000001683000000001683000200000001041040626104750001613QGSWW90626217717001613   1030000100030000   581250000001777031200000005MOB BANK               YGN           MMR11006261047500016130626000000000000000   10300002 00104100000000000000000000005722     
100   35710950267828570000000000030500000000030500002000000010410406260716580006202782010626217713000620   1030000100030000   541120003111777031200000031MOB BANK               YGN           MMR11006260716580006200626000000000000000   10300003 00104100000000000000000000006100     
100   9503051025492600000000000006700000000006700000200000001041040626045904000338CGEKZF0626217711000338   1030000100030000   541110001917777031200000019MOB BANK               YGN           MMR11006260459040003380626000000000000000   10300002 00104100000000000000000000013400     
100   9503051894047295000000000001288700000001288700200000001041040626125228000641O26KOQ0626217719000641   1030000100030000   541120003005777031200000030MOB BANK               YGN           MMR11006261252280006410626000000000000000   10300002 00104100000000000000000000002578     
100   9503051873627984000000000002200000000002200000200000001041040626060901000879DL54KH0626217712000879   1030000100030000   541120003103777031200000031MOB BANK               YGN           MMR11006260609010008790626000000000000000   10300002 00104100000000000000000000004400     
100   9503051026360376000000000001760000000001760000200000001041040626113536001630GJWFTD0626217718001630   1030000100030000   541110001920777031200000019MOB BANK               YGN           MMR11006261135360016300626000000000000000   10300002 00104100000000000000000000003520     
100   9503051020606410000000000001900000000001900000200000001041040626093906000621DBJZGG0626217716000621   1030000100030000   541120003111777031200000031MOB BANK               YGN           MMR11006260939060006210626000000000000000   10300002 00104100000000000000000000003800     
100   9503051025056199000000000004300000000004300000200000001041040626033541000622JNJVXM0626217710000622   1030000100030000   541120003005777031200000030MOB BANK               YGN           MMR11006260335410006220626000000000000000   10300002 00104100000000000000000000008600     
100   95030510255645560000000000023485000000023485002000000010410406260437570006239HLTLT0626217711000623   1030000100030000   541120003005777031200000030MOB BANK               YGN           MMR11006260437570006230626000000000000000   10300002 00104100000000000000000000004697     
100   35710500333744120000000000003200000000003200002000000010410406261236180006397750740626217719000639   1030000100030000   541120003005777031200000030MOB BANK               YGN           MMR11006261236180006390626000000000000000   10300005 00104100000000000000000000000640     
100   35710500172243440000000000022570000000022570002000000010410406260841220007509446720626217715000750   1030000100030000   541120003104777031200000031MOB BANK               YGN           MMR11006260841220007500626000000000000000   10300005 00104100000000000000000000004514     
100   9503051885091187000000000003562500000003562500200000001041040626123008000752I2DGWG0626217719000752   1030000100030000   541120003104777031200000031MOB BANK               YGN           MMR11006261230080007520626000000000000000   10300002 00104100000000000000000000007125     
100   95030446860511120000000000015235000000015235002000000010410406261233370016141296680626217719001614   1030000100030000   581250000001777031200000005MOB BANK               YGN           MMR11006261233370016140626000000000000000   10300007 00104100000000000000000000005180     
100   35710500130038170000000000006400000000006400002000000010410406260640410016324506810626217713001632   1030000100030000   541110001915777031200000019MOB BANK               YGN           MMR11006260640410016320626000000000000000   10300005 00104100000000000000000000001280     
100   9503051025492600000000000003200000000003200000200000001041040626054829003558SSOUZQ0626217712003558   1030000100030000   541110001907777031200000019MOB BANK               YGN           MMR11006260548290035580626000000000000000   10300002 00104100000000000000000000006400     
100   95030510256928110000000000009500000000009500002000000010410406260553010035657B3KU60626217712003565   1030000100030000   541110001907777031200000019MOB BANK               YGN           MMR11006260553010035650626000000000000000   10300002 00104100000000000000000000001900     
100   95030510239527610000000000096330000000096330002000000010410406260704100028288JBGHX0626217713002828   1030000100030000   541110001905777031200000019MOB BANK               YGN           MMR11006260704100028280626000000000000000   10300002 00104100000000000000000000019266     
100   35710830671840190000000000023000000000023000002000000010410406261110140020084181610626217717002008   1030000100030000   541110001903777031200000019MOB BANK               YGN           MMR11006261110140020080626000000000000000   10300003 00104100000000000000000000004600     
100   35710830355259540000000000021550000000021550002000000010410406260902390016423416100626217715001642   1030000100030000   541110001915777031200000019MOB BANK               YGN           MMR11006260902390016420626000000000000000   10300003 00104100000000000000000000004310     
100   9503051891941409000000000001380000000001380000200000001041040626115942001653UFJYR50626217718001653   1030000100030000   541110001915777031200000019MOB BANK               YGN           MMR11006261159420016530626000000000000000   10300002 00104100000000000000000000002760     
100   35710500363824950000000000028800000000028800002000000010410406260513280019931089430626217711001993   1030000100030000   541110001903777031200000019MOB BANK               YGN           MMR11006260513280019930626000000000000000   10300005 00104100000000000000000000005760     
100   95030510263575210000000000026900000000026900002000000010410406260415020021420UCCZP0626217710002142   1030000100030000   541120003117777031200000031MOB BANK               YGN           MMR11006260415020021420626000000000000000   10300002 00104100000000000000000000005380     
100   9503051872405630000000000001930000000001930000200000001041040626075233002147ADV6RX0626217714002147   1030000100030000   541120003117777031200000031MOB BANK               YGN           MMR11006260752330021470626000000000000000   10300002 00104100000000000000000000003860     
100   9503051025977519000000000000765000000000765000200000001041040626090512002150PINBPK0626217715002150   1030000100030000   541120003117777031200000031MOB BANK               YGN           MMR11006260905120021500626000000000000000   10300002 00104100000000000000000000001530     
100   9503051892449683000000000003180000000003180000200000001041040626043528001989SUDO3H0626217711001989   1030000100030000   541110001903777031200000019MOB BANK               YGN           MMR11006260435280019890626000000000000000   10300002 00104100000000000000000000006360     
100   62346600199776990000000000039900000000039900002000000010410406261137250020114099670626217718002011   1030000100030000   541110001903777031200000019MOB BANK               YGN           MMR11006261137250020110626000000000000000   10300005 00104100000000000000000000007980     
100   9503051893807517000000000003280000000003280000200000001041040626124440002014G3N6RI0626217719002014   1030000100030000   541110001903777031200000019MOB BANK               YGN           MMR11006261244400020140626000000000000000   10300002 00104100000000000000000000006560     
100   9503051025462801000000000004416000000004416000200000001041040626081330002001REKWJ50626217714002001   1030000100030000   541110001903777031200000019MOB BANK               YGN           MMR11006260813300020010626000000000000000   10300002 00104100000000000000000000008832     
100   35710830595790510000000000040350000000040350002000000010410406261048380028434052000626217717002843   1030000100030000   541110001905777031200000019MOB BANK               YGN           MMR11006261048380028430626000000000000000   10300003 00104100000000000000000000008070     
100   95031800503187500000000000007000000000007000002000000010410406261127140021522924300626217717002152   1030000100030000   541120003117777031200000031MOB BANK               YGN           MMR11006261127140021520626000000000000000   10300013 00104100000000000000000000001400     
100   35710500354036070000000000038800000000038800002000000010410406260509220019910359220626217711001991   1030000100030000   541110001903777031200000019MOB BANK               YGN           MMR11006260509220019910626000000000000000   10300005 00104100000000000000000000007760     
100   9503190005844289000000000000750000000000750000200000001041040626070438003571A3TZZ70626217713003571   1030000100030000   541110001907777031200000019MOB BANK               YGN           MMR11006260704380035710626000000000000000   10300014 00104100000000000000000000001500     
100   62346600168715560000000000043120000000043120002000000010410406260725250035741245180626217713003574   1030000100030000   541110001907777031200000019MOB BANK               YGN           MMR11006260725250035740626000000000000000   10300005 00104100000000000000000000008624     
100   62622000341442340000000000036800000000036800002000000010410406260422450028133158680626217710002813   1030000100030000   541110001905777031200000019MOB BANK               YGN           MMR11006260422450028130626000000000000000   10300006 00104100000000000000000000007360     
100   95030518849068490000000000019200000000019200002000000010410406261132160021557FCAVT0626217718002155   1030000100030000   541120003117777031200000031MOB BANK               YGN           MMR11006261132160021550626000000000000000   10300002 00104100000000000000000000003840     
100   95030518856887760000000000008300000000008300002000000010410406260838040035827IOVAN0626217715003582   1030000100030000   541110001907777031200000019MOB BANK               YGN           MMR11006260838040035820626000000000000000   10300002 00104100000000000000000000001660     
100   9503051894854344000000000002150000000002150000200000001041040626041537002807DPMJGT0626217710002807   1030000100030000   541110001905777031200000019MOB BANK               YGN           MMR11006260415370028070626000000000000000   10300002 00104100000000000000000000004300     
100   35710830080569200000000000039900000000039900002000000010410406260900230028353402500626217715002835   1030000100030000   541110001905777031200000019MOB BANK               YGN           MMR11006260900230028350626000000000000000   10300003 00104100000000000000000000007980     
100   95030800025415270000000000088000000000088000002000000010410406260359570035471600110626217710003547   1030000100030000   541110001907777031200000019MOB BANK               YGN           MMR11006260359570035470626000000000000000   10300003 00104100000000000000000000017600     
100   35710500120667650000000000015000000000015000002000000010410406261206390021619205450626217718002161   1030000100030000   541120003117777031200000031MOB BANK               YGN           MMR11006261206390021610626000000000000000   10300005 00104100000000000000000000003000     
100   9503190005844289000000000000440000000000440000200000001041040626070120002821L7MJQ60626217713002821   1030000100030000   541110001905777031200000019MOB BANK               YGN           MMR11006260701200028210626000000000000000   10300014 00104100000000000000000000000880     
100   9503051891941409000000000001900000000001900000200000001041040626121544003592FAAEUM0626217718003592   1030000100030000   541110001907777031200000019MOB BANK               YGN           MMR11006261215440035920626000000000000000   10300002 00104100000000000000000000003800     
100   62346600199776990000000000013490000000013490002000000010410406261216420028477523030626217718002847   1030000100030000   541110001905777031200000019MOB BANK               YGN           MMR11006261216420028470626000000000000000   10300005 00104100000000000000000000002698     
100   9503051872802653000000000005590000000005590000200000001041040626071717001997UPBRLA0626217713001997   1030000100030000   541110001903777031200000019MOB BANK               YGN           MMR11006260717170019970626000000000000000   10300002 00104100000000000000000000011180     
100   9503051892449683000000000003000000000003000000200000001041040626034426001615LWLAE80626217710001615   1030000100030000   541110001920777031200000019MOB BANK               YGN           MMR11006260344260016150626000000000000000   10300002 00104100000000000000000000006000     
100   35710830594724890000000000012096000000012096002000000010410406260508580016172013910626217711001617   1030000100030000   541110001920777031200000019MOB BANK               YGN           MMR11006260508580016170626000000000000000   10300003 00104100000000000000000000002419     
100   35710830793719760000000000010000000000010000002000000010410406260510550016192025610626217711001619   1030000100030000   541110001920777031200000019MOB BANK               YGN           MMR11006260510550016190626000000000000000   10300003 00104100000000000000000000002000     
100   95030510223019600000000000195000000000195000002000000010410406260741330019973T9KIS0626217714001997   1030000100030000   541120003106777031200000031MOB BANK               YGN           MMR11006260741330019970626000000000000000   10300002 00104100000000000000000000039000     
100   35710500385127920000000000010800000000010800002000000010410406260600490016293688750626217712001629   1030000100030000   541110001915777031200000019MOB BANK               YGN           MMR11006260600490016290626000000000000000   10300005 00104100000000000000000000002160     
100   9503051023936178000000000001010000000001010000200000001041040626080415003578ONL8B10626217714003578   1030000100030000   541110001907777031200000019MOB BANK               YGN           MMR11006260804150035780626000000000000000   10300002 00104100000000000000000000002020     
100   9503051024861490000000000002100000000002100000200000001041040626120552003588SZKB8A0626217718003588   1030000100030000   541110001907777031200000019MOB BANK               YGN           MMR11006261205520035880626000000000000000   10300002 00104100000000000000000000004200     
100   9503051873627984000000000001850000000001850000200000001041040626062805002144XJX9FM0626217712002144   1030000100030000   541120003117777031200000031MOB BANK               YGN           MMR11006260628050021440626000000000000000   10300002 00104100000000000000000000003700     
100   35710500394185510000000000124800000000124800002000000010410406260739060018120108980626217714001812   1030000100030000   541160000001777031200000006MOB BANK               YGN           MMR11006260739060018120626000000000000000   10300005 00104100000000000000000000024960     
100   35710500363922960000000000076320000000076320002000000010410406261248130018141791640626217719001814   1030000100030000   541160000001777031200000006MOB BANK               YGN           MMR11006261248130018140626000000000000000   10300005 00104100000000000000000000015264     
100   9503051025094448000000000000570000000000570000200000001041040626052834003555P8SQWK0626217711003555   1030000100030000   541110001907777031200000019MOB BANK               YGN           MMR11006260528340035550626000000000000000   10300002 00104100000000000000000000001140     
100   9503051025995917000000000002500000000002500000200000001041040626073309001999HD8NFK0626217714001999   1030000100030000   541110001903777031200000019MOB BANK               YGN           MMR11006260733090019990626000000000000000   10300002 00104100000000000000000000005000     
100   62622000099685000000000000024000000000024000002000000010410406260728220016343944760626217713001634   1030000100030000   541110001915777031200000019MOB BANK               YGN           MMR11006260728220016340626000000000000000   10300006 00104100000000000000000000004800     
100   9503051026334751000000000000480000000000480000200000001041040626084207001638RJUCN20626217715001638   1030000100030000   541110001915777031200000019MOB BANK               YGN           MMR11006260842070016380626000000000000000   10300002 00104100000000000000000000000960     
100   9503051875531796000000000000520000000000520000200000001041040626111834002003RMMUGJ0626217717002003   1030000100030000   541120003106777031200000031MOB BANK               YGN           MMR11006261118340020030626000000000000000   10300002 00104100000000000000000000001040     
100   35710500160790460000000000007350000000007350002000000010410406260849580016400574840626217715001640   1030000100030000   541110001915777031200000019MOB BANK               YGN           MMR11006260849580016400626000000000000000   10300005 00104100000000000000000000001470     
100   95051080172305680000000000037050000000037050002000000010410406260706570028323069510626217713002832   1030000100030000   541110001905777031200000019MOB BANK               YGN           MMR11006260706570028320626000000000000000   10300005 00104100000000000000000000012967     
100   62346600112379440000000000022800000000022800002000000010410406260413530019870719110626217710001987   1030000100030000   541110001903777031200000019MOB BANK               YGN           MMR11006260413530019870626000000000000000   10300005 00104100000000000000000000004560     
100   9503051025248259000000000000696000000000696000200000001041040625061036001611SWCOOW0625217612001611   1030000100030000   541110001920777031200000019MOB BANK               YGN           MMR11006250610360016110625000000000000000   10300002 00104100000000000000000000001392     
100   35710830135257370000000000032000000000032000002000000010410406250518220016123430420625217611001612   1030000100030000   541110001915777031200000019MOB BANK               YGN           MMR11006250518220016120625000000000000000   10300003 00104100000000000000000000006400     
100   35710500182143360000000000017000000000017000002000000010410406250451590016090243300625217611001609   1030000100030000   541110001915777031200000019MOB BANK               YGN           MMR11006250451590016090625000000000000000   10300005 00104100000000000000000000003400     
100   35710830856024220000000000024696000000024696002000000010410406250549500028023619110625217612002802   1030000100030000   541110001905777031200000019MOB BANK               YGN           MMR11006250549500028020625000000000000000   10300003 00104100000000000000000000004939     
100   35710851228171860000000000004900000000004900002000000010410406250520120027993441310625217611002799   1030000100030000   541110001905777031200000019MOB BANK               YGN           MMR11006250520120027990625000000000000000   10300003 00104100000000000000000000000980     
100   9503051022208223000000000001900000000001900000200000001041040625041027003538COYLP00625217610003538   1030000100030000   541110001907777031200000019MOB BANK               YGN           MMR11006250410270035380625000000000000000   10300002 00104100000000000000000000003800     
100   9503051887492128000000000002950000000002950000200000001041040625045428001609XUPD6J0625217611001609   1030000100030000   541110001920777031200000019MOB BANK               YGN           MMR11006250454280016090625000000000000000   10300002 00104100000000000000000000005900     
100   95031900019099380000000000015800000000015800002000000010410406260543550016259P3U1F0626217712001625   1030000100030000   541110001915777031200000019MOB BANK               YGN           MMR11006260543550016250626000000000000000   10300014 00104100000000000000000000003160     
100   35710830361413550000000000031500000000031500002000000010410406261007510020003807210626217716002000   1030000100030000   541120003106777031200000031MOB BANK               YGN           MMR11006261007510020000626000000000000000   10300003 00104100000000000000000000006300     
100   9503051025248259000000000002250000000002250000200000001041040625054353001614QJSH2W0625217612001614   1030000100030000   541110001915777031200000019MOB BANK               YGN           MMR11006250543530016140625000000000000000   10300002 00104100000000000000000000004500     
100   9503051026542593000000000001824000000001824000200000001041040625050723003541FN9K5U0625217611003541   1030000100030000   541110001907777031200000019MOB BANK               YGN           MMR11006250507230035410625000000000000000   10300002 00104100000000000000000000003648     
100   62343301011474660000000000011100000000011100002000000010410406260540000008286015990626217712000828   1030000100030000   541120003008777031200000030MOB BANK               YGN           MMR11006260540000008280626000000000000000   10300004 00104100000000000000000000002220     
100   35710500334721330000000000031150000000031150002000000010410406260829170004531377360626217714000453   1030000100030000   541120003001777031200000030MOB BANK               YGN           MMR11006260829170004530626000000000000000   10300005 00104100000000000000000000006230     
100   95030510212398070000000000007800000000007800002000000010410406260845460004541ZFM2U0626217715000454   1030000100030000   541120003001777031200000030MOB BANK               YGN           MMR11006260845460004540626000000000000000   10300002 00104100000000000000000000001560     
100   9503190004897726000000000000605000000000605000200000001041040626054618000628G13SMK0626217712000628   1030000100030000   541120003005777031200000030MOB BANK               YGN           MMR11006260546180006280626000000000000000   10300014 00104100000000000000000000001210     
100   9503051025411543000000000003795000000003795000200000001041040626074608000629YVBLX40626217714000629   1030000100030000   541120003005777031200000030MOB BANK               YGN           MMR11006260746080006290626000000000000000   10300002 00104100000000000000000000007590     
100   9503051886425384000000000002347500000002347500200000001041040626074254000746HOCRIH0626217714000746   1030000100030000   541120003104777031200000031MOB BANK               YGN           MMR11006260742540007460626000000000000000   10300002 00104100000000000000000000004695     
100   62346600159398830000000000003264000000003264002000000010410406260922330016447303170626217715001644   1030000100030000   541110001915777031200000019MOB BANK               YGN           MMR11006260922330016440626000000000000000   10300005 00104100000000000000000000000653     
100   35710830158634410000000000012700000000012700002000000010410406260611040003942386510626217712000394   1030000100030000   541120003012777031200000030MOB BANK               YGN           MMR11006260611040003940626000000000000000   10300003 00104100000000000000000000002540     
100   9503051019623483000000000002730000000002730000200000001041040626090701000881VDLQAH0626217715000881   1030000100030000   541120003103777031200000031MOB BANK               YGN           MMR11006260907010008810626000000000000000   10300002 00104100000000000000000000005460     
100   9503051886963087000000000006390000000006390000200000001041040626072735000834CLFEJS0626217713000834   1030000100030000   541120003008777031200000030MOB BANK               YGN           MMR11006260727350008340626000000000000000   10300002 00104100000000000000000000012780     
100   35710830927463450000000000024500000000024500002000000010410406260451100016201907210626217711001620   1030000100030000   541110001915777031200000019MOB BANK               YGN           MMR11006260451100016200626000000000000000   10300003 00104100000000000000000000004900     
100   95030518855663290000000000005800000000005800002000000010410406260916220008838T64V70626217715000883   1030000100030000   541120003103777031200000031MOB BANK               YGN           MMR11006260916220008830626000000000000000   10300002 00104100000000000000000000001160     
100   35710830158634410000000000020700000000020700002000000010410406260630350008322503610626217713000832   1030000100030000   541120003008777031200000030MOB BANK               YGN           MMR11006260630350008320626000000000000000   10300003 00104100000000000000000000004140     
100   35710830279338280000000000003200000000003200002000000010410406260912400008363476120626217715000836   1030000100030000   541120003008777031200000030MOB BANK               YGN           MMR11006260912400008360626000000000000000   10300003 00104100000000000000000000000640     
100   35710830557972930000000000010050000000010050002000000010410406260824560007483189800626217714000748   1030000100030000   541120003104777031200000031MOB BANK               YGN           MMR11006260824560007480626000000000000000   10300003 00104100000000000000000000002010     
100   9503051892893179000000000002250000000002250000200000001041040626093637001646X0MHDB0626217716001646   1030000100030000   541110001915777031200000019MOB BANK               YGN           MMR11006260936370016460626000000000000000   10300002 00104100000000000000000000004500     
100   35710950463500400000000000030050000000030050002000000010410406260936480004553621000626217716000455   1030000100030000   541120003001777031200000030MOB BANK               YGN           MMR11006260936480004550626000000000000000   10300003 00104100000000000000000000006010     
100   35710900873195820000000000031500000000031500002000000010410406260523320016222101410626217711001622   1030000100030000   541110001915777031200000019MOB BANK               YGN           MMR11006260523320016220626000000000000000   10300003 00104100000000000000000000006300     
100   35710500120667650000000000074300000000074300002000000010410406260353120006184622230626217710000618   1030000100030000   541120003111777031200000031MOB BANK               YGN           MMR11006260353120006180626000000000000000   10300005 00104100000000000000000000014860     
100   35710500361122310000000000010350000000010350002000000010410406261100220006352747200626217717000635   1030000100030000   541120003005777031200000030MOB BANK               YGN           MMR11006261100220006350626000000000000000   10300005 00104100000000000000000000002070     
100   9503051025506458000000000001070000000001070000200000001041040626095043000885PN1VXJ0626217716000885   1030000100030000   541120003103777031200000031MOB BANK               YGN           MMR11006260950430008850626000000000000000   10300002 00104100000000000000000000002140     
100   9503051025697513000000000001400000000001400000200000001041040626065710001623FTIVTD0626217713001623   1030000100030000   541110001920777031200000019MOB BANK               YGN           MMR11006260657100016230626000000000000000   10300002 00104100000000000000000000002800     
100   35710950418422490000000000014600000000014600002000000010410406260555130008302291410626217712000830   1030000100030000   541120003008777031200000030MOB BANK               YGN           MMR11006260555130008300626000000000000000   10300003 00104100000000000000000000002920     
100   35710500106582660000000000010200000000010200002000000010410406260939120016485502350626217716001648   1030000100030000   541110001915777031200000019MOB BANK               YGN           MMR11006260939120016480626000000000000000   10300005 00104100000000000000000000002040     
