100   35710830772245730000000000018095000000018095002000000010410406241206520016027241410624217518001602   1030000100030000   581250000001777031200000005MOB BANK               YGN           MMR11006241206520016020624000000000000000   10300003 00104100000000000000000000006152     
100   35710500301813150000000000030500000000030500002000000010410406241126430004100383330624217517000410   1030000100030000   541120003002777031200000030MOB BANK               YGN           MMR11006241126430004100624000000000000000   10300005 00104100000000000000000000006100     
100   9503051872713942000000000008360000000008360000200000001041040624134931000725GWVKS00624217520000725   1030000100030000   581210001201777031200000012MOB BANK               YGN           MMR11006241349310007250624000000000000000   10300002 00104100000000000000000000028424     
100   9503051891754885000000000000720000000000720000200000001041040624072125000664JVNOWF0624217513000664   1030000100030000   541120003003777031200000030MOB BANK               YGN           MMR11006240721250006640624000000000000000   10300002 00104100000000000000000000001440     
100   9503051886903935000000000002640000000002640000200000001041040624103327000618KE9KOW0624217517000618   1030000100030000   541120003005777031200000030MOB BANK               YGN           MMR11006241033270006180624000000000000000   10300002 00104100000000000000000000005280     
100   35710830077294770000000000016317000000016317002000000010410406241112480006196917010624217517000619   1030000100030000   541120003005777031200000030MOB BANK               YGN           MMR11006241112480006190624000000000000000   10300003 00104100000000000000000000003264     
100   9503051893420394000000000003150000000003150000200000001041040624092358001959UWXNTE0624217515001959   1030000100030000   541120003106777031200000031MOB BANK               YGN           MMR11006240923580019590624000000000000000   10300002 00104100000000000000000000006300     
100   9503190001950809000000000001900000000001900000200000001041040624062303000604FZCMLR0624217512000604   1030000100030000   541120003111777031200000031MOB BANK               YGN           MMR11006240623030006040624000000000000000   10300014 00104100000000000000000000003800     
100   35710500365360250000000000085650000000085650002000000010410406241307440008156882950624217519000815   1030000100030000   541120003008777031200000030MOB BANK               YGN           MMR11006241307440008150624000000000000000   10300005 00104100000000000000000000017130     
100   9503051872337205000000000002420000000002420000200000001041040624072752000979QGVNEO0624217513000979   1030000100030000   581210001501777031200000015MOB BANK               YGN           MMR11006240727520009790624000000000000000   10300002 00104100000000000000000000008228     
100   35710830407417860000000000058120000000058120002000000010410406240422100003714453200624217510000371   1030000100030000   541120003012777031200000030MOB BANK               YGN           MMR11006240422100003710624000000000000000   10300003 00104100000000000000000000011624     
100   9503051022722967000000000001288200000001288200200000001041040624064213000720PC4R0W0624217513000720   1030000100030000   541120003104777031200000031MOB BANK               YGN           MMR11006240642130007200624000000000000000   10300002 00104100000000000000000000002576     
100   35710500324430020000000000019192000000019192002000000010410406240842520006662999230624217515000666   1030000100030000   541120003003777031200000030MOB BANK               YGN           MMR11006240842520006660624000000000000000   10300005 00104100000000000000000000003838     
100   35710830407417860000000000013700000000013700002000000010410406240430050008074500610624217511000807   1030000100030000   541120003008777031200000030MOB BANK               YGN           MMR11006240430050008070624000000000000000   10300003 00104100000000000000000000002740     
100   35710830407417860000000000009200000000009200002000000010410406240437040006144542510624217511000614   1030000100030000   541120003005777031200000030MOB BANK               YGN           MMR11006240437040006140624000000000000000   10300003 00104100000000000000000000001840     
100   35710500143090720000000000010395000000010395002000000010410406240525190016005749910624217511001600   1030000100030000   581250000001777031200000005MOB BANK               YGN           MMR11006240525190016000624000000000000000   10300005 00104100000000000000000000003534     
100   62622000392672610000000000010300000000010300002000000010410406240345030016001914990624217510001600   1030000100030000   541110001915777031200000019MOB BANK               YGN           MMR11006240345030016000624000000000000000   10300006 00104100000000000000000000002060     
100   35710500155505830000000000056200000000056200002000000010410406241146480004457119730624217518000445   1030000100030000   541120003001777031200000030MOB BANK               YGN           MMR11006241146480004450624000000000000000   10300005 00104100000000000000000000011240     
100   9503051025744919000000000000100000000000100000200000001041040624093618000727NMXGEE0624217516000727   1030000100030000   541120003104777031200000031MOB BANK               YGN           MMR11006240936180007270624000000000000000   10300002 00104100000000000000000000000200     
100   35710500393380070000000000002610000000002610002000000010410406241005530006674819770624217516000667   1030000100030000   541120003003777031200000030MOB BANK               YGN           MMR11006241005530006670624000000000000000   10300005 00104100000000000000000000000522     
100   9503051025609138000000000000780000000000780000200000001041040624103307000668UBR9QT0624217517000668   1030000100030000   541120003003777031200000030MOB BANK               YGN           MMR11006241033070006680624000000000000000   10300002 00104100000000000000000000001560     
100   35710500333258100000000000008064000000008064002000000010410406240816020008090795790624217514000809   1030000100030000   541120003008777031200000030MOB BANK               YGN           MMR11006240816020008090624000000000000000   10300005 00104100000000000000000000001613     
100   35710830654350900000000000047900000000047900002000000010410406241049540021186779510624217517002118   1030000100030000   541120003117777031200000031MOB BANK               YGN           MMR11006241049540021180624000000000000000   10300003 00104100000000000000000000009580     
100   62921400002488050000000000000550000000000550002000000010410406240801540007222222220624217514000722   1030000100030000   541120003104777031200000031MOB BANK               YGN           MMR11006240801540007220624000000000000000   10300009 00104100000000000000000000000110     
100   62921400064224610000000000015092000000015092002000000010410406240806110006152222220624217514000615   1030000100030000   541120003005777031200000030MOB BANK               YGN           MMR11006240806110006150624000000000000000   10300009 00104100000000000000000000003018     
100   35650973670006810000000000008360000000008360002000000010410406241144490009806013480624217518000980   1030000100030000   581210001501777031200000015MOB BANK               YGN           MMR11006241144490009800624000000000000000   10300005 00104100000000000000000000004974     
100   35710950472686390000000000017490000000017490002000000010410406240839020016015994400624217515001601   1030000100030000   581250000001777031200000005MOB BANK               YGN           MMR11006240839020016010624000000000000000   10300003 00104100000000000000000000005947     
100   35710500343506760000000000020700000000020700002000000010410406240406110016020521020624217510001602   1030000100030000   541110001915777031200000019MOB BANK               YGN           MMR11006240406110016020624000000000000000   10300005 00104100000000000000000000004140     
100   9503051889811143000000000001800000000001800000200000001041040624065701000407SQOSQO0624217513000407   1030000100030000   541120003002777031200000030MOB BANK               YGN           MMR11006240657010004070624000000000000000   10300002 00104100000000000000000000003600     
100   9503051019972161000000000000980000000000980000200000001041040624103935000729QV24FH0624217517000729   1030000100030000   541120003104777031200000031MOB BANK               YGN           MMR11006241039350007290624000000000000000   10300002 00104100000000000000000000001960     
100   35710500394309370000000000007150000000007150002000000010410406241108000006691333770624217517000669   1030000100030000   541120003003777031200000030MOB BANK               YGN           MMR11006241108000006690624000000000000000   10300005 00104100000000000000000000001430     
100   35710830189498170000000000027500000000027500002000000010410406241147490006067127010624217518000606   1030000100030000   541120003111777031200000031MOB BANK               YGN           MMR11006241147490006060624000000000000000   10300003 00104100000000000000000000005500     
100   9503054000483420000000000000880000000000880000200000001041040624055547000718Z8KBCP0624217512000718   1030000100030000   541120003104777031200000031MOB BANK               YGN           MMR11006240555470007180624000000000000000   10300002 00104100000000000000000000001760     
100   9503051023877158000000000000870000000000870000200000001041040624053026000661EEZE6R0624217512000661   1030000100030000   541120003003777031200000030MOB BANK               YGN           MMR11006240530260006610624000000000000000   10300002 00104100000000000000000000001740     
100   35710500393380070000000000006615000000006615002000000010410406241001480006161819530624217516000616   1030000100030000   541120003005777031200000030MOB BANK               YGN           MMR11006241001480006160624000000000000000   10300005 00104100000000000000000000001323     
100   9503051022844639000000000002505000000002505000200000001041040624100913000617HV8XRE0624217516000617   1030000100030000   541120003005777031200000030MOB BANK               YGN           MMR11006241009130006170624000000000000000   10300002 00104100000000000000000000005010     
100   9503051020787186000000000001850000000001850000200000001041040624062211001952WLHJQS0624217512001952   1030000100030000   541120003106777031200000031MOB BANK               YGN           MMR11006240622110019520624000000000000000   10300002 00104100000000000000000000003700     
100   35710950535218630000000000022440000000022440002000000010410406241214280016037287000624217518001603   1030000100030000   581250000001777031200000005MOB BANK               YGN           MMR11006241214280016030624000000000000000   10300003 00104100000000000000000000007630     
100   9503051024296234000000000003096500000003096500200000001041040624123520001604NOAXWR0624217519001604   1030000100030000   581250000001777031200000005MOB BANK               YGN           MMR11006241235200016040624000000000000000   10300002 00104100000000000000000000010528     
100   9503051022844639000000000000975000000000975000200000001041040624101818000811T2RSYD0624217516000811   1030000100030000   541120003008777031200000030MOB BANK               YGN           MMR11006241018180008110624000000000000000   10300002 00104100000000000000000000001950     
100   9503051024932887000000000004200000000004200000200000001041040624064533000443S8KRCO0624217513000443   1030000100030000   541120003001777031200000030MOB BANK               YGN           MMR11006240645330004430624000000000000000   10300002 00104100000000000000000000008400     
100   62343302003737400000000000018000000000018000002000000010410406241146040003733911800624217518000373   1030000100030000   541120003012777031200000030MOB BANK               YGN           MMR11006241146040003730624000000000000000   10300004 00104100000000000000000000003600     
100   9503051884231016000000000001200000000001200000200000001041040624110747000731OPRVRL0624217517000731   1030000100030000   541120003104777031200000031MOB BANK               YGN           MMR11006241107470007310624000000000000000   10300002 00104100000000000000000000002400     
100   35710830999106540000000000021100000000021100002000000010410406241124410006706988210624217517000670   1030000100030000   541120003003777031200000030MOB BANK               YGN           MMR11006241124410006700624000000000000000   10300003 00104100000000000000000000004220     
100   9503051022722967000000000001400000000001400000200000001041040624060424000432NXVMAH0624217512000432   1030000100030000   541120003105777031200000031MOB BANK               YGN           MMR11006240604240004320624000000000000000   10300002 00104100000000000000000000002800     
100   35710500123554730000000000013600000000013600002000000010410406240901290007240877540624217515000724   1030000100030000   541120003104777031200000031MOB BANK               YGN           MMR11006240901290007240624000000000000000   10300005 00104100000000000000000000002720     
100   9503051896313877000000000002300000000002300000200000001041040624130341000724GUPTON0624217519000724   1030000100030000   581210001201777031200000012MOB BANK               YGN           MMR11006241303410007240624000000000000000   10300002 00104100000000000000000000007820     
100   95030518917548850000000000013925000000013925002000000010410406240718410006636WWWAA0624217513000663   1030000100030000   541120003003777031200000030MOB BANK               YGN           MMR11006240718410006630624000000000000000   10300002 00104100000000000000000000002785     
100   35710500344843920000000000025900000000025900002000000010410406240835300019562787670624217515001956   1030000100030000   541120003106777031200000031MOB BANK               YGN           MMR11006240835300019560624000000000000000   10300005 00104100000000000000000000005180     
100   9503051891754885000000000003700000000003700000200000001041040624070349000444GTYFV80624217513000444   1030000100030000   541120003001777031200000030MOB BANK               YGN           MMR11006240703490004440624000000000000000   10300002 00104100000000000000000000007400     
100   9503051896514532000000000001230000000001230000200000001041040623040956000035I3H2TQ0623217410000035   1030000100030000   541110001909777031200000019MOB BANK               YGN           MMR11006230409560000350623000000000000000   10300002 00104100000000000000000000002460     
100   9503190005218518000000000017340000000017340000200000001041040623042144000165C4KHSG0623217410000165   1030000100030000   541110001919777031200000019MOB BANK               YGN           MMR11006230421440001650623000000000000000   10300014 00104100000000000000000000034680     
100   9503051896514532000000000001360000000001360000200000001041040623034120001600SRIIGJ0623217410001600   1030000100030000   541110001920777031200000019MOB BANK               YGN           MMR11006230341200016000623000000000000000   10300002 00104100000000000000000000002720     
100   35710830064936040000000000017000000000017000002000000010410406230302290035255335020623217409003525   1030000100030000   541110001907777031200000019MOB BANK               YGN           MMR11006230302290035250623000000000000000   10300003 00104100000000000000000000003400     
100   9503190005218518000000000001600000000001600000200000001041040623042910000167B2Y0G60623217410000167   1030000100030000   541110001919777031200000019MOB BANK               YGN           MMR11006230429100001670623000000000000000   10300014 00104100000000000000000000003200     
100   9503051896649759000000000002930000000002930000200000001041040623041812000325NWUTCT0623217410000325   1030000100030000   541110001916777031200000019MOB BANK               YGN           MMR11006230418120003250623000000000000000   10300002 00104100000000000000000000005860     
100   9503190005215845000000000000760000000000760000200000001041040623043047000020DTHJ0B0623217411000020   1030000100030000   541110001902777031200000019MOB BANK               YGN           MMR11006230430470000200623000000000000000   10300014 00104100000000000000000000001520     
