100   9503051023444421000000000002300000000002300000200000001041040627073812003604QMT3RB0627217814003604   1030000100030000   541110001907777031200000019MOB BANK               YGN           MMR11006270738120036040627000000000000000   10300002 00104100000000000000000000004600     
100   9503051890947316000000000000450000000000450000200000001041040627114305000681REKE9J0627217818000681   1030000100030000   541120003003777031200000030MOB BANK               YGN           MMR11006271143050006810627000000000000000   10300002 00104100000000000000000000000900     
100   9503051019558648000000000021700000000021700000200000001041040627044938003600CSCGQ90627217811003600   1030000100030000   541110001907777031200000019MOB BANK               YGN           MMR11006270449380036000627000000000000000   10300002 00104100000000000000000000043400     
100   35710830829538100000000000004500000000004500002000000010410406270931580036092232010627217816003609   1030000100030000   541110001907777031200000019MOB BANK               YGN           MMR11006270931580036090627000000000000000   10300003 00104100000000000000000000000900     
100   62622000032186210000000000008800000000008800002000000010410406271000320036123480750627217816003612   1030000100030000   541110001907777031200000019MOB BANK               YGN           MMR11006271000320036120627000000000000000   10300006 00104100000000000000000000001760     
100   35710830954159220000000000023500000000023500002000000010410406270626240004501118620627217812000450   1030000100030000   541120003105777031200000031MOB BANK               YGN           MMR11006270626240004500627000000000000000   10300003 00104100000000000000000000004700     
100   35710500310444210000000000011300000000011300002000000010410406270332590007586469010627217810000758   1030000100030000   541120003104777031200000031MOB BANK               YGN           MMR11006270332590007580627000000000000000   10300005 00104100000000000000000000002260     
100   95030510252152090000000000111100000000111100002000000010410406271224330007414GNFOC0627217818000741   1030000100030000   581210001201777031200000012MOB BANK               YGN           MMR11006271224330007410627000000000000000   10300002 00104100000000000000000000037774     
100   35710500394419420000000000022800000000022800002000000010410406271012340020320444670627217816002032   1030000100030000   541110001903777031200000019MOB BANK               YGN           MMR11006271012340020320627000000000000000   10300005 00104100000000000000000000004560     
100   9503051887621668000000000000240000000000240000200000001041040627103111003615CLS0PP0627217817003615   1030000100030000   541110001907777031200000019MOB BANK               YGN           MMR11006271031110036150627000000000000000   10300002 00104100000000000000000000000480     
100   9503051023433283000000000009900000000009900000200000001041040627052905002855FPMCVG0627217811002855   1030000100030000   541110001905777031200000019MOB BANK               YGN           MMR11006270529050028550627000000000000000   10300002 00104100000000000000000000019800     
100   9503051025375326000000000003575000000003575000200000001041040627045059000643U4CIJK0627217811000643   1030000100030000   541120003005777031200000030MOB BANK               YGN           MMR11006270450590006430627000000000000000   10300002 00104100000000000000000000007150     
100   35710500324757640000000000003234000000003234002000000010410406270718040006440309900627217813000644   1030000100030000   541120003005777031200000030MOB BANK               YGN           MMR11006270718040006440627000000000000000   10300005 00104100000000000000000000000647     
100   35710830388554650000000000185400000000185400002000000010410406271334080007423685000627217820000742   1030000100030000   581210001201777031200000012MOB BANK               YGN           MMR11006271334080007420627000000000000000   10300003 00104100000000000000000000063036     
100   9503190006330403000000000003450000000003450000200000001041040627104807002017YEYY0R0627217817002017   1030000100030000   541120003106777031200000031MOB BANK               YGN           MMR11006271048070020170627000000000000000   10300014 00104100000000000000000000006900     
100   35710500121118270000000000013000000000013000002000000010410406271213020036264298230627217818003626   1030000100030000   541110001907777031200000019MOB BANK               YGN           MMR11006271213020036260627000000000000000   10300005 00104100000000000000000000002600     
100   62343302006876020000000000200000000000200000002000000010410406271104500036209915080627217817003620   1030000100030000   541110001907777031200000019MOB BANK               YGN           MMR11006271104500036200627000000000000000   10300004 00104100000000000000000000040000     
100   35710900344880920000000000090900000000090900002000000010410406271131000036232946110627217818003623   1030000100030000   541110001907777031200000019MOB BANK               YGN           MMR11006271131000036230627000000000000000   10300003 00104100000000000000000000018180     
100   9503051894001557000000000000870000000000870000200000001041040627122850003630QNPIOZ0627217818003630   1030000100030000   541110001907777031200000019MOB BANK               YGN           MMR11006271228500036300627000000000000000   10300002 00104100000000000000000000001740     
100   35710851357231240000000000003330000000003330002000000010410406270817420007611786310627217814000761   1030000100030000   541120003104777031200000031MOB BANK               YGN           MMR11006270817420007610627000000000000000   10300003 00104100000000000000000000000666     
100   35710500394309370000000000003750000000003750002000000010410406270901190006461339810627217815000646   1030000100030000   541120003005777031200000030MOB BANK               YGN           MMR11006270901190006460627000000000000000   10300005 00104100000000000000000000000750     
100   35710500353262120000000000043700000000043700002000000010410406270543290028609474510627217812002860   1030000100030000   541110001905777031200000019MOB BANK               YGN           MMR11006270543290028600627000000000000000   10300005 00104100000000000000000000008740     
100   35710500334236150000000000014500000000014500002000000010410406271041000028802160380627217817002880   1030000100030000   541110001905777031200000019MOB BANK               YGN           MMR11006271041000028800627000000000000000   10300005 00104100000000000000000000002900     
100   9503051894387717000000000001489600000001489600200000001041040627100527002876MU7EAO0627217816002876   1030000100030000   541110001905777031200000019MOB BANK               YGN           MMR11006271005270028760627000000000000000   10300002 00104100000000000000000000002979     
100   9503051895516793000000000015180000000015180000200000001041040626131915000735SYJ5VT0626217719000735   1030000100030000   581210001201777031200000012MOB BANK               YGN           MMR11006261319150007350626000000000000000   10300002 00104100000000000000000000051612     
100   35710830347162990000000000153700000000153700002000000010410406261519340007375677510626217721000737   1030000100030000   581210001201777031200000012MOB BANK               YGN           MMR11006261519340007370626000000000000000   10300003 00104100000000000000000000052258     
100   35710500376074290000000000158300000000158300002000000010410406261414110007361796780626217720000736   1030000100030000   581210001201777031200000012MOB BANK               YGN           MMR11006261414110007360626000000000000000   10300005 00104100000000000000000000053822     
100   35710830920003470000000000005684000000005684002000000010410406271055050004602730610627217817000460   1030000100030000   541120003001777031200000030MOB BANK               YGN           MMR11006271055050004600627000000000000000   10300003 00104100000000000000000000001137     
100   35710830345197270000000000011330000000011330002000000010410406271111250016172828700627217817001617   1030000100030000   581250000001777031200000005MOB BANK               YGN           MMR11006271111250016170627000000000000000   10300003 00104100000000000000000000003852     
100   9503051887275630000000000002409000000002409000200000001041040627123327001618HDDMSK0627217819001618   1030000100030000   581250000001777031200000005MOB BANK               YGN           MMR11006271233270016180627000000000000000   10300002 00104100000000000000000000008191     
100   35710950139660180000000000032977000000032977002000000010410406270800010028641680300627217814002864   1030000100030000   541110001905777031200000019MOB BANK               YGN           MMR11006270800010028640627000000000000000   10300003 00104100000000000000000000006596     
100   35710500121118270000000000037400000000037400002000000010410406271226170036289326990627217818003628   1030000100030000   541110001907777031200000019MOB BANK               YGN           MMR11006271226170036280627000000000000000   10300005 00104100000000000000000000007480     
100   62343302007510850000000000037230000000037230002000000010410406270902440007633890500627217815000763   1030000100030000   541120003104777031200000031MOB BANK               YGN           MMR11006270902440007630627000000000000000   10300004 00104100000000000000000000007446     
100   35710500382756710000000000025650000000025650002000000010410406270948310006473005410627217816000647   1030000100030000   541120003005777031200000030MOB BANK               YGN           MMR11006270948310006470627000000000000000   10300005 00104100000000000000000000005130     
100   35710500324757640000000000006615000000006615002000000010410406270720460006452898450627217813000645   1030000100030000   541120003005777031200000030MOB BANK               YGN           MMR11006270720460006450627000000000000000   10300005 00104100000000000000000000001323     
100   9503051022001610000000000001050000000001050000200000001041040627065726002010YR4ETT0627217813002010   1030000100030000   541120003106777031200000031MOB BANK               YGN           MMR11006270657260020100627000000000000000   10300002 00104100000000000000000000002100     
100   35710500363357330000000000385900000000385900002000000010410406270804000028722322280627217814002872   1030000100030000   541110001905777031200000019MOB BANK               YGN           MMR11006270804000028720627000000000000000   10300005 00104100000000000000000000077180     
100   9503051887701106000000000001280000000001280000200000001041040627113959000765COWVFY0627217818000765   1030000100030000   541120003104777031200000031MOB BANK               YGN           MMR11006271139590007650627000000000000000   10300002 00104100000000000000000000002560     
100   35710830782753190000000000045800000000045800002000000010410406270439390004480478110627217811000448   1030000100030000   541120003105777031200000031MOB BANK               YGN           MMR11006270439390004480627000000000000000   10300003 00104100000000000000000000009160     
100   35710830920003470000000000029746000000029746002000000010410406271022420006482536410627217816000648   1030000100030000   541120003005777031200000030MOB BANK               YGN           MMR11006271022420006480627000000000000000   10300003 00104100000000000000000000005949     
100   9503051893871125000000000000720000000000720000200000001041040627051341000841EAVMZM0627217811000841   1030000100030000   541120003008777031200000030MOB BANK               YGN           MMR11006270513410008410627000000000000000   10300002 00104100000000000000000000001440     
100   95031900058920800000000000022800000000022800002000000010410406270915400020244JCKVJ0627217815002024   1030000100030000   541110001903777031200000019MOB BANK               YGN           MMR11006270915400020240627000000000000000   10300014 00104100000000000000000000004560     
100   35710500160443050000000000027750000000027750002000000010410406270422110021739026380627217810002173   1030000100030000   541120003117777031200000031MOB BANK               YGN           MMR11006270422110021730627000000000000000   10300005 00104100000000000000000000005550     
100   9503051889609166000000000000410000000000410000200000001041040627061306002176QWPWUH0627217812002176   1030000100030000   541120003117777031200000031MOB BANK               YGN           MMR11006270613060021760627000000000000000   10300002 00104100000000000000000000000820     
100   9503051023379049000000000002260000000002260000200000001041040627053057000842QBJUNM0627217812000842   1030000100030000   541120003008777031200000030MOB BANK               YGN           MMR11006270530570008420627000000000000000   10300002 00104100000000000000000000004520     
100   9503051025609138000000000000900000000000900000200000001041040627104318000843HZOTRN0627217817000843   1030000100030000   541120003008777031200000030MOB BANK               YGN           MMR11006271043180008430627000000000000000   10300002 00104100000000000000000000001800     
100   9503051024214047000000000002906600000002906600200000001041040627065617002180ON6FQ90627217813002180   1030000100030000   541120003117777031200000031MOB BANK               YGN           MMR11006270656170021800627000000000000000   10300002 00104100000000000000000000005813     
100   95030510259283480000000000078540000000078540002000000010410406270657570020201H3W8R0627217813002020   1030000100030000   541110001903777031200000019MOB BANK               YGN           MMR11006270657570020200627000000000000000   10300002 00104100000000000000000000015708     
100   62346600112752900000000000040900000000040900002000000010410406271158370020207153720627217818002020   1030000100030000   541120003106777031200000031MOB BANK               YGN           MMR11006271158370020200627000000000000000   10300005 00104100000000000000000000008180     
100   95030510256091380000000000004850000000004850002000000010410406271028510006803Q02QV0627217816000680   1030000100030000   541120003003777031200000030MOB BANK               YGN           MMR11006271028510006800627000000000000000   10300002 00104100000000000000000000000970     
100   9503051022654038000000000003000000000003000000200000001041040627112513000624FCDNLK0627217817000624   1030000100030000   541120003111777031200000031MOB BANK               YGN           MMR11006271125130006240627000000000000000   10300002 00104100000000000000000000006000     
100   35710830224578070000000000008500000000008500002000000010410406270329120007550055310627217809000755   1030000100030000   541120003104777031200000031MOB BANK               YGN           MMR11006270329120007550627000000000000000   10300003 00104100000000000000000000001700     
100   95030510249922530000000000031800000000031800002000000010410406270954360020305LDPSD0627217816002030   1030000100030000   541110001903777031200000019MOB BANK               YGN           MMR11006270954360020300627000000000000000   10300002 00104100000000000000000000006360     
100   9503051893095063000000000004350000000004350000200000001041040627090318002183YJCNCZ0627217815002183   1030000100030000   541120003117777031200000031MOB BANK               YGN           MMR11006270903180021830627000000000000000   10300002 00104100000000000000000000008700     
100   35710830805642540000000000032800000000032800002000000010410406271119360020342877710627217817002034   1030000100030000   541110001903777031200000019MOB BANK               YGN           MMR11006271119360020340627000000000000000   10300003 00104100000000000000000000006560     
100   35710500363357330000000000085000000000085000002000000010410406270724230036020941230627217813003602   1030000100030000   541110001907777031200000019MOB BANK               YGN           MMR11006270724230036020627000000000000000   10300005 00104100000000000000000000017000     
