100   9503051888203995000000000009850000000009850000200000001041040628094634002040AVGDIG0628217916002040   1030000100030000   541120003106777031200000031MOB BANK               YGN           MMR11006280946340020400628000000000000000   10300002 00104100000000000000000000019700     
100   62622000167936510000000000004942000000004942002000000010410406281241290006533483120628217919000653   1030000100030000   541120003005777031200000030MOB BANK               YGN           MMR11006281241290006530628000000000000000   10300006 00104100000000000000000000000988     
100   62346600125569380000000000020700000000020700002000000010410406281139070006289229400628217918000628   1030000100030000   541120003111777031200000031MOB BANK               YGN           MMR11006281139070006280628000000000000000   10300005 00104100000000000000000000004140     
100   35710851194293910000000000035329000000035329002000000010410406280530420028909424510628217912002890   1030000100030000   541110001905777031200000019MOB BANK               YGN           MMR11006280530420028900628000000000000000   10300003 00104100000000000000000000007066     
100   62346600166102360000000000011858000000011858002000000010410406281238440022100539610628217919002210   1030000100030000   541120003117777031200000031MOB BANK               YGN           MMR11006281238440022100628000000000000000   10300005 00104100000000000000000000002372     
100   35710500101079260000000000011123000000011123002000000010410406280725510036504159960628217913003650   1030000100030000   541110001907777031200000019MOB BANK               YGN           MMR11006280725510036500628000000000000000   10300005 00104100000000000000000000002225     
100   35710500361163310000000000076000000000076000002000000010410406281149550036631269820628217918003663   1030000100030000   541110001907777031200000019MOB BANK               YGN           MMR11006281149550036630628000000000000000   10300005 00104100000000000000000000015200     
100   35710830244124530000000000019796000000019796002000000010410406280533590004039444110628217912000403   1030000100030000   541120003012777031200000030MOB BANK               YGN           MMR11006280533590004030628000000000000000   10300003 00104100000000000000000000003959     
100   35710500314052830000000000014725000000014725002000000010410406281105450007697886400628217917000769   1030000100030000   541120003104777031200000031MOB BANK               YGN           MMR11006281105450007690628000000000000000   10300005 00104100000000000000000000002945     
100   35710500334922710000000000021500000000021500002000000010410406280424470020241414020628217910002024   1030000100030000   541120003106777031200000031MOB BANK               YGN           MMR11006280424470020240628000000000000000   10300005 00104100000000000000000000004300     
100   95031900061809070000000000014700000000014700002000000010410406280445010021899BVH9C0628217911002189   1030000100030000   541120003117777031200000031MOB BANK               YGN           MMR11006280445010021890628000000000000000   10300014 00104100000000000000000000002940     
100   9503051025241916000000000001536000000001536000200000001041040628074847001647M938ZT0628217914001647   1030000100030000   541110001920777031200000019MOB BANK               YGN           MMR11006280748470016470628000000000000000   10300002 00104100000000000000000000003072     
100   35710830061291820000000000004400000000004400002000000010410406280523310004549381310628217911000454   1030000100030000   541120003105777031200000031MOB BANK               YGN           MMR11006280523310004540628000000000000000   10300003 00104100000000000000000000000880     
100   9503051886545983000000000002280000000002280000200000001041040628092612002048XBIYOY0628217915002048   1030000100030000   541110001903777031200000019MOB BANK               YGN           MMR11006280926120020480628000000000000000   10300002 00104100000000000000000000004560     
100   35710851194293910000000000002784000000002784002000000010410406280536370036389459810628217912003638   1030000100030000   541110001907777031200000019MOB BANK               YGN           MMR11006280536370036380628000000000000000   10300003 00104100000000000000000000000557     
100   35710500145024860000000000037900000000037900002000000010410406280701280004050865370628217913000405   1030000100030000   541120003012777031200000030MOB BANK               YGN           MMR11006280701280004050628000000000000000   10300005 00104100000000000000000000007580     
100   9503051893385589000000000001940000000001940000200000001041040628113020000408HBUCC90628217918000408   1030000100030000   541120003012777031200000030MOB BANK               YGN           MMR11006281130200004080628000000000000000   10300002 00104100000000000000000000003880     
100   35710500174555000000000000280700000000280700002000000010410406281412390007473302510628217920000747   1030000100030000   581210001201777031200000012MOB BANK               YGN           MMR11006281412390007470628000000000000000   10300005 00104100000000000000000000095438     
100   9503190001137084000000000000918000000000918000200000001041040628062350002043OYYE4U0628217912002043   1030000100030000   541110001903777031200000019MOB BANK               YGN           MMR11006280623500020430628000000000000000   10300014 00104100000000000000000000001836     
100   35710500385390680000000000024750000000024750002000000010410406281148090016214744980628217918001621   1030000100030000   581250000001777031200000005MOB BANK               YGN           MMR11006281148090016210628000000000000000   10300005 00104100000000000000000000008415     
100   35710500305077580000000000015950000000015950002000000010410406281219540016229554100628217918001622   1030000100030000   581250000001777031200000005MOB BANK               YGN           MMR11006281219540016220628000000000000000   10300005 00104100000000000000000000005423     
100   35710500305612190000000000089300000000089300002000000010410406280816400021940483680628217914002194   1030000100030000   541120003117777031200000031MOB BANK               YGN           MMR11006280816400021940628000000000000000   10300005 00104100000000000000000000017860     
100   62346600178431090000000000016830000000016830002000000010410406281015200016208066100628217916001620   1030000100030000   581250000001777031200000005MOB BANK               YGN           MMR11006281015200016200628000000000000000   10300005 00104100000000000000000000005722     
100   35710830803698370000000000002500000000002500002000000010410406280837110008480543210628217915000848   1030000100030000   541120003008777031200000030MOB BANK               YGN           MMR11006280837110008480628000000000000000   10300003 00104100000000000000000000000500     
100   35711450000405560000000000004200000000004200002000000010410406280555500036467757520628217912003646   1030000100030000   541110001907777031200000019MOB BANK               YGN           MMR11006280555500036460628000000000000000   10200001 00104100000000000000000000000840     
100   35710851194293910000000000026558000000026558002000000010410406280533030028929438510628217912002892   1030000100030000   541110001905777031200000019MOB BANK               YGN           MMR11006280533030028920628000000000000000   10300003 00104100000000000000000000005312     
100   9503051025241916000000000001320900000001320900200000001041040628071748002897MH1QOF0628217913002897   1030000100030000   541110001905777031200000019MOB BANK               YGN           MMR11006280717480028970628000000000000000   10300002 00104100000000000000000000002642     
100   62622000550905550000000000013000000000013000002000000010410406280820280021973482440628217914002197   1030000100030000   541120003117777031200000031MOB BANK               YGN           MMR11006280820280021970628000000000000000   10300006 00104100000000000000000000002600     
100   9503051022715094000000000000540000000000540000200000001041040628071252000626D94PXP0628217913000626   1030000100030000   541120003111777031200000031MOB BANK               YGN           MMR11006280712520006260628000000000000000   10300002 00104100000000000000000000001080     
100   9503051895206650000000000006850000000006850000200000001041040628100140002053JUNTDB0628217916002053   1030000100030000   541110001903777031200000019MOB BANK               YGN           MMR11006281001400020530628000000000000000   10300002 00104100000000000000000000013700     
100   35710500190723290000000000014270000000014270002000000010410406281130260006524689380628217918000652   1030000100030000   541120003005777031200000030MOB BANK               YGN           MMR11006281130260006520628000000000000000   10300005 00104100000000000000000000002854     
100   9503051885483558000000000001450000000001450000200000001041040628100249002054THQXSY0628217916002054   1030000100030000   541110001903777031200000019MOB BANK               YGN           MMR11006281002490020540628000000000000000   10300002 00104100000000000000000000002900     
100   9503051023374214000000000001280000000001280000200000001041040628093652000850C4UWB80628217916000850   1030000100030000   541120003008777031200000030MOB BANK               YGN           MMR11006280936520008500628000000000000000   10300002 00104100000000000000000000002560     
100   9503051890094929000000000004000000000004000000200000001041040628080919003654GAIYZ50628217914003654   1030000100030000   541110001907777031200000019MOB BANK               YGN           MMR11006280809190036540628000000000000000   10300002 00104100000000000000000000008000     
100   95030201000351880000000000033420000000033420002000000010410406281216490029041764420628217918002904   1030000100030000   541110001905777031200000019MOB BANK               YGN           MMR11006281216490029040628000000000000000   10200002 00104100000000000000000000006684     
100   9503054000785063000000000000450000000000450000200000001041040628104009002200BVPHKE0628217917002200   1030000100030000   541120003117777031200000031MOB BANK               YGN           MMR11006281040090022000628000000000000000   10300002 00104100000000000000000000000900     
100   9503051025843992000000000000665000000000665000200000001041040628075304000685ERBEEM0628217914000685   1030000100030000   541120003003777031200000030MOB BANK               YGN           MMR11006280753040006850628000000000000000   10300002 00104100000000000000000000001330     
100   35710500343313200000000000025800000000025800002000000010410406281056410020569578330628217917002056   1030000100030000   541110001903777031200000019MOB BANK               YGN           MMR11006281056410020560628000000000000000   10300005 00104100000000000000000000005160     
100   9503051025492600000000000000145000000000145000200000001041040628124920002908LFIAHC0628217919002908   1030000100030000   541110001905777031200000019MOB BANK               YGN           MMR11006281249200029080628000000000000000   10300002 00104100000000000000000000000290     
100   35710950871071350000000000006000000000006000002000000010410406281240190008532002010628217919000853   1030000100030000   541120003008777031200000030MOB BANK               YGN           MMR11006281240190008530628000000000000000   10300003 00104100000000000000000000001200     
100   9503051890306430000000000003850000000003850000200000001041040628071056002030QNE3KB0628217913002030   1030000100030000   541120003106777031200000031MOB BANK               YGN           MMR11006280710560020300628000000000000000   10300002 00104100000000000000000000007700     
100   62622000550905550000000000049500000000049500002000000010410406280746280020333871090628217914002033   1030000100030000   541120003106777031200000031MOB BANK               YGN           MMR11006280746280020330628000000000000000   10300006 00104100000000000000000000009900     
100   9503051024607794000000000004080000000004080000200000001041040628035902002039CMWEUM0628217910002039   1030000100030000   541110001903777031200000019MOB BANK               YGN           MMR11006280359020020390628000000000000000   10300002 00104100000000000000000000008160     
100   35710830237158560000000000016000000000016000002000000010410406280734490016440169020628217914001644   1030000100030000   541110001920777031200000019MOB BANK               YGN           MMR11006280734490016440628000000000000000   10300003 00104100000000000000000000003200     
100   9503051892765112000000000001040000000001040000200000001041040628100059001649BHQZS00628217916001649   1030000100030000   541110001920777031200000019MOB BANK               YGN           MMR11006281000590016490628000000000000000   10300002 00104100000000000000000000002080     
100   35710500374250380000000000001078000000001078002000000010410406281006360036582584270628217916003658   1030000100030000   541110001907777031200000019MOB BANK               YGN           MMR11006281006360036580628000000000000000   10300005 00104100000000000000000000000216     
100   35710830184169570000000000080000000000080000002000000010410406281119160036611515720628217917003661   1030000100030000   541110001907777031200000019MOB BANK               YGN           MMR11006281119160036610628000000000000000   10300003 00104100000000000000000000016000     
100   35710830925341210000000000005150000000005150002000000010410406280953460006511002720628217916000651   1030000100030000   541120003005777031200000030MOB BANK               YGN           MMR11006280953460006510628000000000000000   10300003 00104100000000000000000000001030     
100   35710500334453940000000000008500000000008500002000000010410406281057030022070635140628217917002207   1030000100030000   541120003117777031200000031MOB BANK               YGN           MMR11006281057030022070628000000000000000   10300005 00104100000000000000000000001700     
100   9503051890203090000000000001365000000001365000200000001041040628055329003643UZMVDD0628217912003643   1030000100030000   541110001907777031200000019MOB BANK               YGN           MMR11006280553290036430628000000000000000   10300002 00104100000000000000000000002730     
100   35710830755199900000000000189200000000189200002000000010410406280629010007459774310628217912000745   1030000100030000   581210001201777031200000012MOB BANK               YGN           MMR11006280629010007450628000000000000000   10300003 00104100000000000000000000064328     
100   95030518851898740000000000229900000000229900002000000010410406281346190007463P949B0628217920000746   1030000100030000   581210001201777031200000012MOB BANK               YGN           MMR11006281346190007460628000000000000000   10300002 00104100000000000000000000078166     
