100   9503190006161196000000000002400000000002400000200000001041040629114036002082W2B9JC0629218018002082   1030000100030000   541120003106777031200000031MOB BANK               YGN           MMR11006291140360020820629000000000000000   10300014 00104100000000000000000000004800     
100   9503051887621668000000000003430000000003430000200000001041040629090903003683H11XZL0629218015003683   1030000100030000   541110001907777031200000019MOB BANK               YGN           MMR11006290909030036830629000000000000000   10300002 00104100000000000000000000006860     
100   62622000752755660000000000012000000000012000002000000010410406290856390020743872910629218015002074   1030000100030000   541110001903777031200000019MOB BANK               YGN           MMR11006290856390020740629000000000000000   10300006 00104100000000000000000000002400     
100   35650880490021120000000000040000000000040000002000000010410406290247020000325248300629218009000032   1030000100030000   541110900002777030900000002MOB BANK               YGN           MMR11006290247020000320629000000000000000   10300005 00104100000000000000000000014000     
100   35710830121717800000000000011000000000011000002000000010410406291121210001480168310629218017000148   1030000100030000   541120003112777031200000031MOB BANK               YGN           MMR11006291121210001480629000000000000000   10300003 00104100000000000000000000002200     
100   35710500323743630000000000032500000000032500002000000010410406291015300001445721190629218016000144   1030000100030000   541120003112777031200000031MOB BANK               YGN           MMR11006291015300001440629000000000000000   10300005 00104100000000000000000000006500     
100   35710830071848140000000000007000000000007000002000000010410406290749380001398897920629218014000139   1030000100030000   541120003112777031200000031MOB BANK               YGN           MMR11006290749380001390629000000000000000   10300003 00104100000000000000000000001400     
100   35710830898981090000000000014000000000014000002000000010410406291201160001490407810629218018000149   1030000100030000   541120003112777031200000031MOB BANK               YGN           MMR11006291201160001490629000000000000000   10300003 00104100000000000000000000002800     
100   35710830913084930000000000028000000000028000002000000010410406291116520000980141410629218017000098   1030000100030000   541120000018777031200000002MOB BANK               YGN           MMR11006291116520000980629000000000000000   10300003 00104100000000000000000000005600     
100   35710500323743630000000000017000000000017000002000000010410406290958130001411180270629218016000141   1030000100030000   541120003112777031200000031MOB BANK               YGN           MMR11006290958130001410629000000000000000   10300005 00104100000000000000000000003400     
100   35710500333258100000000000008673000000008673002000000010410406290730330006560473020629218014000656   1030000100030000   541120003005777031200000030MOB BANK               YGN           MMR11006290730330006560629000000000000000   10300005 00104100000000000000000000001735     
100   35710500384854450000000000003450000000003450002000000010410406290820510007744093150629218014000774   1030000100030000   541120003104777031200000031MOB BANK               YGN           MMR11006290820510007740629000000000000000   10300005 00104100000000000000000000000690     
100   62622000851014220000000000014250000000014250002000000010410406291223420006593931620629218018000659   1030000100030000   541120003005777031200000030MOB BANK               YGN           MMR11006291223420006590629000000000000000   10300006 00104100000000000000000000002850     
100   62622000752755660000000000018800000000018800002000000010410406290844440020703484300629218015002070   1030000100030000   541110001903777031200000019MOB BANK               YGN           MMR11006290844440020700629000000000000000   10300006 00104100000000000000000000003760     
100   9503051025801743000000000001390000000001390000200000001041040629060700003673UKQYBD0629218012003673   1030000100030000   541110001907777031200000019MOB BANK               YGN           MMR11006290607000036730629000000000000000   10300002 00104100000000000000000000002780     
100   9503051025219821000000000002200000000002200000200000001041040629042547000458CQKI4E0629218010000458   1030000100030000   541120003105777031200000031MOB BANK               YGN           MMR11006290425470004580629000000000000000   10300002 00104100000000000000000000004400     
100   62343302006543540000000000048615000000048615002000000010410406290949190006586786620629218016000658   1030000100030000   541120003005777031200000030MOB BANK               YGN           MMR11006290949190006580629000000000000000   10300004 00104100000000000000000000009723     
100   9503051026419248000000000003680000000003680000200000001041040629085111002072FGRBDY0629218015002072   1030000100030000   541110001903777031200000019MOB BANK               YGN           MMR11006290851110020720629000000000000000   10300002 00104100000000000000000000007360     
100   9503051895412159000000000001050000000001050000200000001041040629091150002074BT9WKN0629218015002074   1030000100030000   541120003106777031200000031MOB BANK               YGN           MMR11006290911500020740629000000000000000   10300002 00104100000000000000000000002100     
100   9503051026304028000000000000780000000000780000200000001041040629063050002914MCPF3K0629218013002914   1030000100030000   541110001905777031200000019MOB BANK               YGN           MMR11006290630500029140629000000000000000   10300002 00104100000000000000000000001560     
100   9503051025898160000000000002900000000002900000200000001041040629115353000637WMKQLI0629218018000637   1030000100030000   541120003111777031200000031MOB BANK               YGN           MMR11006291153530006370629000000000000000   10300002 00104100000000000000000000005800     
100   35710830158394580000000000012980000000012980002000000010410406291245140016280671610629218019001628   1030000100030000   581250000001777031200000005MOB BANK               YGN           MMR11006291245140016280629000000000000000   10300003 00104100000000000000000000004413     
100   35710950422828170000000000220000000000220000002000000010410406290610010036758300210629218012003675   1030000100030000   541110001907777031200000019MOB BANK               YGN           MMR11006290610010036750629000000000000000   10300003 00104100000000000000000000044000     
100   9503051887621668000000000001320000000001320000200000001041040629070925003677YWL7BI0629218013003677   1030000100030000   541110001907777031200000019MOB BANK               YGN           MMR11006290709250036770629000000000000000   10300002 00104100000000000000000000002640     
100   62346600175332470000000000094400000000094400002000000010410406291009530020766983840629218016002076   1030000100030000   541110001903777031200000019MOB BANK               YGN           MMR11006291009530020760629000000000000000   10300005 00104100000000000000000000018880     
100   9503051023923887000000000002100000000002100000200000001041040629082654003679QZNSE30629218014003679   1030000100030000   541110001907777031200000019MOB BANK               YGN           MMR11006290826540036790629000000000000000   10300002 00104100000000000000000000004200     
100   35710830564577150000000000006700000000006700002000000010410406290838490036819193010629218015003681   1030000100030000   541110001907777031200000019MOB BANK               YGN           MMR11006290838490036810629000000000000000   10300003 00104100000000000000000000001340     
100   62346600111053310000000000027000000000027000002000000010410406290929360020778542290629218015002077   1030000100030000   541120003106777031200000031MOB BANK               YGN           MMR11006290929360020770629000000000000000   10300005 00104100000000000000000000005400     
100   95030201000351880000000000021666000000021666002000000010410406290948110029191864670629218016002919   1030000100030000   541110001905777031200000019MOB BANK               YGN           MMR11006290948110029190629000000000000000   10200002 00104100000000000000000000004333     
100   35710500364815600000000000034000000000034000002000000010410406291008110001427579520629218016000142   1030000100030000   541120003112777031200000031MOB BANK               YGN           MMR11006291008110001420629000000000000000   10300005 00104100000000000000000000006800     
100   35710830688350310000000000006000000000006000002000000010410406291015410036859774300629218016003685   1030000100030000   541110001907777031200000019MOB BANK               YGN           MMR11006291015410036850629000000000000000   10300003 00104100000000000000000000001200     
100   9503190006587192000000000000333200000000333200200000001041040629123101003687GWQWFN0629218019003687   1030000100030000   541110001907777031200000019MOB BANK               YGN           MMR11006291231010036870629000000000000000   10300014 00104100000000000000000000000666     
100   35710830544229840000000000023000000000023000002000000010410406290628440006308412510629218012000630   1030000100030000   541120003111777031200000031MOB BANK               YGN           MMR11006290628440006300629000000000000000   10300003 00104100000000000000000000004600     
100   9503051025151180000000000002430000000002430000200000001041040629095759002926LXS6MJ0629218016002926   1030000100030000   541110001905777031200000019MOB BANK               YGN           MMR11006290957590029260629000000000000000   10300002 00104100000000000000000000004860     
100   9503051892923737000000000002180000000002180000200000001041040629093347000893WTCUDY0629218016000893   1030000100030000   541120003103777031200000031MOB BANK               YGN           MMR11006290933470008930629000000000000000   10300002 00104100000000000000000000004360     
100   35710830743378400000000000026730000000026730002000000010410406291243080016270658920629218019001627   1030000100030000   581250000001777031200000005MOB BANK               YGN           MMR11006291243080016270629000000000000000   10300003 00104100000000000000000000009088     
100   35710830355628090000000000031500000000031500002000000010410406290651570006318551810629218013000631   1030000100030000   541120003111777031200000031MOB BANK               YGN           MMR11006290651570006310629000000000000000   10300003 00104100000000000000000000006300     
100   35710830108326310000000000027450000000027450002000000010410406290525450008578034700629218011000857   1030000100030000   541120003008777031200000030MOB BANK               YGN           MMR11006290525450008570629000000000000000   10300003 00104100000000000000000000005490     
100   9503051888601164000000000003400000000003400000200000001041040629091423000859YNTRGX0629218015000859   1030000100030000   541120003008777031200000030MOB BANK               YGN           MMR11006290914230008590629000000000000000   10300002 00104100000000000000000000006800     
100   9503051887684286000000000003570000000003570000200000001041040629034202002217LKOQLV0629218010002217   1030000100030000   541120003117777031200000031MOB BANK               YGN           MMR11006290342020022170629000000000000000   10300002 00104100000000000000000000007140     
100   9503051897805764000000000004080000000004080000200000001041040629035945002065VVFWCW0629218010002065   1030000100030000   541110001903777031200000019MOB BANK               YGN           MMR11006290359450020650629000000000000000   10300002 00104100000000000000000000008160     
100   35710500393922360000000000014800000000014800002000000010410406290828010006322319920629218014000632   1030000100030000   541120003111777031200000031MOB BANK               YGN           MMR11006290828010006320629000000000000000   10300005 00104100000000000000000000002960     
100   95030518895623730000000000026600000000026600002000000010410406291312270007496CULGO0629218019000749   1030000100030000   581210001201777031200000012MOB BANK               YGN           MMR11006291312270007490629000000000000000   10300002 00104100000000000000000000009044     
100   9503051891315323000000000000288000000000288000200000001041040629031508000772GADXOI0629218009000772   1030000100030000   541120003104777031200000031MOB BANK               YGN           MMR11006290315080007720629000000000000000   10300002 00104100000000000000000000000576     
100   95030518754344210000000000013600000000013600002000000010410406290943340022280WCUDY0629218016002228   1030000100030000   541120003117777031200000031MOB BANK               YGN           MMR11006290943340022280629000000000000000   10300002 00104100000000000000000000002720     
100   35710500183979900000000000009700000000009700002000000010410406290945000022307732690629218016002230   1030000100030000   541120003117777031200000031MOB BANK               YGN           MMR11006290945000022300629000000000000000   10300005 00104100000000000000000000001940     
100   35710500162906350000000000039500000000039500002000000010410406291001130006340463850629218016000634   1030000100030000   541120003111777031200000031MOB BANK               YGN           MMR11006291001130006340629000000000000000   10300005 00104100000000000000000000007900     
100   9503051024095917000000000004217000000004217000200000001041040629071345000655LZZUZO0629218013000655   1030000100030000   541120003005777031200000030MOB BANK               YGN           MMR11006290713450006550629000000000000000   10300002 00104100000000000000000000008434     
100   9503051024218170000000000003515000000003515000200000001041040629084728000657ZDORHU0629218015000657   1030000100030000   541120003005777031200000030MOB BANK               YGN           MMR11006290847280006570629000000000000000   10300002 00104100000000000000000000007030     
100   9503051897805764000000000001180000000001180000200000001041040629041359003667F9EBSG0629218010003667   1030000100030000   541110001907777031200000019MOB BANK               YGN           MMR11006290413590036670629000000000000000   10300002 00104100000000000000000000002360     
100   9503051889613655000000000002240000000002240000200000001041040629122045000862J6AW6L0629218018000862   1030000100030000   541120003008777031200000030MOB BANK               YGN           MMR11006291220450008620629000000000000000   10300002 00104100000000000000000000004480     
100   35710830248721440000000000022800000000022800002000000010410406290503340020687901910629218011002068   1030000100030000   541110001903777031200000019MOB BANK               YGN           MMR11006290503340020680629000000000000000   10300003 00104100000000000000000000004560     
100   35710500355718580000000000095500000000095500002000000010410406290752250020684041350629218014002068   1030000100030000   541120003106777031200000031MOB BANK               YGN           MMR11006290752250020680629000000000000000   10300005 00104100000000000000000000019100     
100   9503051887563241000000000002960200000002960200200000001041040629052402001625QGED0J0629218011001625   1030000100030000   581250000001777031200000005MOB BANK               YGN           MMR11006290524020016250629000000000000000   10300002 00104100000000000000000000010065     
100   62441900102492680000000000036025000000036025002000000010410406291121440016264072400629218017001626   1030000100030000   581250000001777031200000005MOB BANK               YGN           MMR11006291121440016260629000000000000000   10300003 00104100000000000000000000021435     
100   35710500395140030000000000253600000000253600002000000010410406290428540036699054580629218010003669   1030000100030000   541110001907777031200000019MOB BANK               YGN           MMR11006290428540036690629000000000000000   10300005 00104100000000000000000000050720     
100   9503051894621230000000000002250000000002250000200000001041040629065342002062TWQOAE0629218013002062   1030000100030000   541120003106777031200000031MOB BANK               YGN           MMR11006290653420020620629000000000000000   10300002 00104100000000000000000000004500     
