100   9503051873627984000000000000590000000000590000200000001041040703065207003822CRUV9A0703218413003822   1030000100030000   541110001907777031200000019MOB BANK               YGN           MMR11007030652070038220703000000000000000   10300002 00104100000000000000000000001180     
100   95051010120002350000000000019000000000019000002000000010410407030702380003716667360703218413000371   1030000100030000   541110001917777031200000019MOB BANK               YGN           MMR11007030702380003710703000000000000000   10300005 00104100000000000000000000006650     
100   35710830161915110000000000011790000000011790002000000010410407030538000003672668110703218412000367   1030000100030000   541110001917777031200000019MOB BANK               YGN           MMR11007030538000003670703000000000000000   10300003 00104100000000000000000000002358     
100   62921400025448050000000000069000000000069000002000000010410407030442470001232222220703218411000123   1030000100030000   541120000010777031200000002MOB BANK               YGN           MMR11007030442470001230703000000000000000   10300009 00104100000000000000000000013800     
100   35710830165723060000000000017760000000017760002000000010410407030723330003733301510703218413000373   1030000100030000   541110001917777031200000019MOB BANK               YGN           MMR11007030723330003730703000000000000000   10300003 00104100000000000000000000003552     
100   9503051889712911000000000002130000000002130000200000001041040703090819000472XRFN1Y0703218415000472   1030000100030000   541120003001777031200000030MOB BANK               YGN           MMR11007030908190004720703000000000000000   10300002 00104100000000000000000000004260     
100   9503051887191076000000000000274400000000274400200000001041040703101351000474WOHH9C0703218416000474   1030000100030000   541120003001777031200000030MOB BANK               YGN           MMR11007031013510004740703000000000000000   10300002 00104100000000000000000000000549     
100   9503051023323682000000000001000000000001000000200000001041040703100244000420TM6JNK0703218416000420   1030000100030000   541120003012777031200000030MOB BANK               YGN           MMR11007031002440004200703000000000000000   10300002 00104100000000000000000000002000     
100   35710950661967940000000000009100000000009100002000000010410407030851310004163829310703218415000416   1030000100030000   541120003012777031200000030MOB BANK               YGN           MMR11007030851310004160703000000000000000   10300003 00104100000000000000000000001820     
100   9503051022752618000000000009270000000009270000200000001041040703052316000365GBFPHT0703218411000365   1030000100030000   541110001917777031200000019MOB BANK               YGN           MMR11007030523160003650703000000000000000   10300002 00104100000000000000000000018540     
100   35710500385443400000000000013600000000013600002000000010410407031043520004245988720703218417000424   1030000100030000   541120003012777031200000030MOB BANK               YGN           MMR11007031043520004240703000000000000000   10300005 00104100000000000000000000002720     
100   95030510201592380000000000033500000000033500002000000010410407030952250004739DXADX0703218416000473   1030000100030000   541120003001777031200000030MOB BANK               YGN           MMR11007030952250004730703000000000000000   10300002 00104100000000000000000000006700     
100   35710830250632220000000000022650000000022650002000000010410407030457350004452425610703218411000445   1030000100030000   541120003013777031200000030MOB BANK               YGN           MMR11007030457350004450703000000000000000   10300003 00104100000000000000000000004530     
100   9503051896895675000000000001600000000001600000200000001041040703072447000665NQU1HZ0703218413000665   1030000100030000   541120003111777031200000031MOB BANK               YGN           MMR11007030724470006650703000000000000000   10300002 00104100000000000000000000003200     
100   95030510265092460000000000016000000000016000002000000010410407030749250009275R2TSK0703218414000927   1030000100030000   541120003103777031200000031MOB BANK               YGN           MMR11007030749250009270703000000000000000   10300002 00104100000000000000000000003200     
100   9503051023461466000000000002100000000002100000200000001041040703113840000933PFZCAX0703218418000933   1030000100030000   541120003103777031200000031MOB BANK               YGN           MMR11007031138400009330703000000000000000   10300002 00104100000000000000000000004200     
100   9503051026206272000000000003950000000003950000200000001041040703090550002295AE49YT0703218415002295   1030000100030000   541120003117777031200000031MOB BANK               YGN           MMR11007030905500022950703000000000000000   10300002 00104100000000000000000000007900     
100   35710500364918250000000000012800000000012800002000000010410407030933300022976929360703218416002297   1030000100030000   541120003117777031200000031MOB BANK               YGN           MMR11007030933300022970703000000000000000   10300005 00104100000000000000000000002560     
100   35710830710931800000000000007700000000007700002000000010410407030819140022763635620703218414002276   1030000100030000   541120003117777031200000031MOB BANK               YGN           MMR11007030819140022760703000000000000000   10300003 00104100000000000000000000001540     
100   9503051020152704000000000001080000000001080000200000001041040703122027000666NUOQ9Q0703218418000666   1030000100030000   541120003111777031200000031MOB BANK               YGN           MMR11007031220270006660703000000000000000   10300002 00104100000000000000000000002160     
100   35710830838971490000000000093900000000093900002000000010410407031126450008164760720703218417000816   1030000100030000   541120003104777031200000031MOB BANK               YGN           MMR11007031126450008160703000000000000000   10300003 00104100000000000000000000018780     
100   35710830165723060000000000010180000000010180002000000010410407030557230017332784510703218412001733   1030000100030000   541110001915777031200000019MOB BANK               YGN           MMR11007030557230017330703000000000000000   10300003 00104100000000000000000000002036     
100   9503051024934669000000000005150000000005150000200000001041040703082313002279WNHRGS0703218414002279   1030000100030000   541120003117777031200000031MOB BANK               YGN           MMR11007030823130022790703000000000000000   10300002 00104100000000000000000000010300     
100   9503051020159238000000000001616000000001616000200000001041040703094755000681EQ8HXT0703218416000681   1030000100030000   541120003005777031200000030MOB BANK               YGN           MMR11007030947550006810703000000000000000   10300002 00104100000000000000000000003232     
100   35710500195183960000000000005400000000005400002000000010410407030953090008101929320703218416000810   1030000100030000   541120003104777031200000031MOB BANK               YGN           MMR11007030953090008100703000000000000000   10300005 00104100000000000000000000001080     
100   9503051888002629000000000002450000000002450000200000001041040703112219000920HQ2U1Q0703218417000920   1030000100030000   541120003008777031200000030MOB BANK               YGN           MMR11007031122190009200703000000000000000   10300002 00104100000000000000000000004900     
100   35710830267646790000000000027000000000027000002000000010410407030731040021933346600703218414002193   1030000100030000   541120003106777031200000031MOB BANK               YGN           MMR11007030731040021930703000000000000000   10300003 00104100000000000000000000005400     
100   9503051889926800000000000004150000000004150000200000001041040703084721002196YMV1BF0703218415002196   1030000100030000   541120003106777031200000031MOB BANK               YGN           MMR11007030847210021960703000000000000000   10300002 00104100000000000000000000008300     
100   9503051024934669000000000016550000000016550000200000001041040703100557002199EGEPEX0703218416002199   1030000100030000   541120003106777031200000031MOB BANK               YGN           MMR11007031005570021990703000000000000000   10300002 00104100000000000000000000033100     
100   35710830984319910000000000034000000000034000002000000010410407030654320038253127410703218413003825   1030000100030000   541110001907777031200000019MOB BANK               YGN           MMR11007030654320038250703000000000000000   10300003 00104100000000000000000000006800     
100   35710830395611790000000000015000000000015000002000000010410407030658370038283151900703218413003828   1030000100030000   541110001907777031200000019MOB BANK               YGN           MMR11007030658370038280703000000000000000   10300003 00104100000000000000000000003000     
100   9503051886886775000000000004300000000004300000200000001041040703110054003841ERRJVL0703218417003841   1030000100030000   541110001907777031200000019MOB BANK               YGN           MMR11007031100540038410703000000000000000   10300002 00104100000000000000000000008600     
100   9503190001261348000000000000800000000000800000200000001041040703080532000929MWT06L0703218414000929   1030000100030000   541120003103777031200000031MOB BANK               YGN           MMR11007030805320009290703000000000000000   10300014 00104100000000000000000000001600     
100   9503051026329512000000000000800000000000800000200000001041040703052323000921V2NEI90703218411000921   1030000100030000   541120003103777031200000031MOB BANK               YGN           MMR11007030523230009210703000000000000000   10300002 00104100000000000000000000001600     
100   9503051896054794000000000003900000000003900000200000001041040703033933001693AWWVYU0703218410001693   1030000100030000   541110001920777031200000019MOB BANK               YGN           MMR11007030339330016930703000000000000000   10300002 00104100000000000000000000007800     
100   35710830839855140000000000009312000000009312002000000010410407031153180017594919910703218418001759   1030000100030000   541110001915777031200000019MOB BANK               YGN           MMR11007031153180017590703000000000000000   10300003 00104100000000000000000000001862     
100   62444501100190230000000000070800000000070800002000000010410407030423230018434498340703218410001843   1030000100030000   541160000001777031200000006MOB BANK               YGN           MMR11007030423230018430703000000000000000   10300002 00104100000000000000000000024780     
100   9503051895206650000000000025500000000025500000200000001041040703101512002155F6RW8F0703218416002155   1030000100030000   541110001903777031200000019MOB BANK               YGN           MMR11007031015120021550703000000000000000   10300002 00104100000000000000000000051000     
100   35650880430021830000000000014000000000014000002000000010410407031044010021577556110703218417002157   1030000100030000   541110001903777031200000019MOB BANK               YGN           MMR11007031044010021570703000000000000000   10300005 00104100000000000000000000004900     
100   9503051025722055000000000004150000000004150000200000001041040703040821002120SVBRSN0703218410002120   1030000100030000   541110001903777031200000019MOB BANK               YGN           MMR11007030408210021200703000000000000000   10300002 00104100000000000000000000008300     
100   62346600190741580000000000044665000000044665002000000010410407030411110021215461230703218410002121   1030000100030000   541110001903777031200000019MOB BANK               YGN           MMR11007030411110021210703000000000000000   10300005 00104100000000000000000000008933     
100   35710830323249300000000000006650000000006650002000000010410407031145370008184873920703218418000818   1030000100030000   541120003104777031200000031MOB BANK               YGN           MMR11007031145370008180703000000000000000   10300003 00104100000000000000000000001330     
100   9503051025771987000000000002210000000002210000200000001041040703062119001736T4DDTT0703218412001736   1030000100030000   541110001915777031200000019MOB BANK               YGN           MMR11007030621190017360703000000000000000   10300002 00104100000000000000000000004420     
100   35710830531146080000000000046000000000046000002000000010410407030610340006622863610703218412000662   1030000100030000   541120003111777031200000031MOB BANK               YGN           MMR11007030610340006620703000000000000000   10300003 00104100000000000000000000009200     
100   9503190005584679000000000001815000000001815000200000001041040703104429002300I6AA300703218417002300   1030000100030000   541120003117777031200000031MOB BANK               YGN           MMR11007031044290023000703000000000000000   10300014 00104100000000000000000000003630     
100   95030800004071500000000000023500000000023500002000000010410407030321110029791847300703218409002979   1030000100030000   541110001905777031200000019MOB BANK               YGN           MMR11007030321110029790703000000000000000   10300003 00104100000000000000000000004700     
100   35710830425623390000000000006150000000006150002000000010410407031130090038454781100703218418003845   1030000100030000   541110001907777031200000019MOB BANK               YGN           MMR11007031130090038450703000000000000000   10300003 00104100000000000000000000001230     
100   950305102005868700000000001250000000001250000020000000104104070311452600384877XBNY0703218418003848   1030000100030000   541110001907777031200000019MOB BANK               YGN           MMR11007031145260038480703000000000000000   10300002 00104100000000000000000000025000     
100   9503051020938813000000000001540000000001540000200000001041040703040340000657W9UCFE0703218410000657   1030000100030000   541120003111777031200000031MOB BANK               YGN           MMR11007030403400006570703000000000000000   10300002 00104100000000000000000000003080     
100   35710830531146080000000000016700000000016700002000000010410407030700060008043160800703218413000804   1030000100030000   541120003104777031200000031MOB BANK               YGN           MMR11007030700060008040703000000000000000   10300003 00104100000000000000000000003340     
100   35710830685092710000000000039500000000039500002000000010410407030846370009143799820703218415000914   1030000100030000   541120003008777031200000030MOB BANK               YGN           MMR11007030846370009140703000000000000000   10300003 00104100000000000000000000007900     
100   35710500373710670000000000159300000000159300002000000010410407030746320018456065970703218414001845   1030000100030000   541160000001777031200000006MOB BANK               YGN           MMR11007030746320018450703000000000000000   10300005 00104100000000000000000000031860     
100   35710500303584750000000000023800000000023800002000000010410407030413360021224184780703218410002122   1030000100030000   541110001903777031200000019MOB BANK               YGN           MMR11007030413360021220703000000000000000   10300005 00104100000000000000000000004760     
100   35710500182810950000000000028800000000028800002000000010410407030506010021254472770703218411002125   1030000100030000   541110001903777031200000019MOB BANK               YGN           MMR11007030506010021250703000000000000000   10300005 00104100000000000000000000005760     
100   62622000121863140000000000023800000000023800002000000010410407030533030021275034140703218412002127   1030000100030000   541110001903777031200000019MOB BANK               YGN           MMR11007030533030021270703000000000000000   10300006 00104100000000000000000000004760     
100   9503051895206650000000000005450000000005450000200000001041040703065237002129MLKONI0703218413002129   1030000100030000   541110001903777031200000019MOB BANK               YGN           MMR11007030652370021290703000000000000000   10300002 00104100000000000000000000010900     
100   35710500132341150000000000005700000000005700002000000010410407030631160017382225200703218413001738   1030000100030000   541110001915777031200000019MOB BANK               YGN           MMR11007030631160017380703000000000000000   10300005 00104100000000000000000000001140     
100   9503051020019556000000000001632000000001632000200000001041040703084134002287MNYZIJ0703218415002287   1030000100030000   541120003117777031200000031MOB BANK               YGN           MMR11007030841340022870703000000000000000   10300002 00104100000000000000000000003264     
100   95030518871910760000000000004900000000004900002000000010410407031105120006833XLN7E0703218417000683   1030000100030000   541120003005777031200000030MOB BANK               YGN           MMR11007031105120006830703000000000000000   10300002 00104100000000000000000000000980     
100   9503190000657819000000000000730000000000730000200000001041040703053534000800157CF60703218412000800   1030000100030000   541120003104777031200000031MOB BANK               YGN           MMR11007030535340008000703000000000000000   10300014 00104100000000000000000000001460     
100   9503190005584679000000000002280000000002280000200000001041040703110912000812O287A80703218417000812   1030000100030000   541120003104777031200000031MOB BANK               YGN           MMR11007031109120008120703000000000000000   10300014 00104100000000000000000000004560     
100   9503051026329512000000000003580000000003580000200000001041040703052737000923BF6FEG0703218411000923   1030000100030000   541120003103777031200000031MOB BANK               YGN           MMR11007030527370009230703000000000000000   10300002 00104100000000000000000000007160     
100   62622000121863140000000000022400000000022400002000000010410407030436340017185005140703218411001718   1030000100030000   541110001915777031200000019MOB BANK               YGN           MMR11007030436340017180703000000000000000   10300006 00104100000000000000000000004480     
100   9503054000504514000000000000176400000000176400200000001041040703105223002303PYWQ2B0703218417002303   1030000100030000   541120003117777031200000031MOB BANK               YGN           MMR11007031052230023030703000000000000000   10300002 00104100000000000000000000000353     
100   950319000002638700000000000048500000000048500020000000104104070307565700298358Q6AA0703218414002983   1030000100030000   541110001905777031200000019MOB BANK               YGN           MMR11007030756570029830703000000000000000   10300014 00104100000000000000000000000970     
100   9503051025753530000000000011280000000011280000200000001041040702105552000756N4XSBR0702218317000756   1030000100030000   581210001201777031200000012MOB BANK               YGN           MMR11007021055520007560702000000000000000   10300002 00104100000000000000000000038352     
100   35710830893936480000000000045000000000045000002000000010410407030445460021782354800703218411002178   1030000100030000   541120003106777031200000031MOB BANK               YGN           MMR11007030445460021780703000000000000000   10300003 00104100000000000000000000009000     
100   9503051021080128000000000009440000000009440000200000001041040703121129000935G6ZCZI0703218418000935   1030000100030000   541120003103777031200000031MOB BANK               YGN           MMR11007031211290009350703000000000000000   10300002 00104100000000000000000000018880     
100   35710950661967940000000000004800000000004800002000000010410407030846570004463801900703218415000446   1030000100030000   541120003013777031200000030MOB BANK               YGN           MMR11007030846570004460703000000000000000   10300003 00104100000000000000000000000960     
100   9503051894403639000000000000500000000000500000200000001041040703071406000471F5MJWN0703218413000471   1030000100030000   541120003001777031200000030MOB BANK               YGN           MMR11007030714060004710703000000000000000   10300002 00104100000000000000000000001000     
100   95030518918951830000000000146500000000146500002000000010410407030449180002527ULQ8M0703218411000252   1030000100030000   541120000017777031200000002MOB BANK               YGN           MMR11007030449180002520703000000000000000   10300002 00104100000000000000000000029300     
100   35710830774292550000000000007500000000007500002000000010410407031020500004224365110703218416000422   1030000100030000   541120003012777031200000030MOB BANK               YGN           MMR11007031020500004220703000000000000000   10300003 00104100000000000000000000001500     
100   9503190000026387000000000000530000000000530000200000001041040703070037000369CRPKS20703218413000369   1030000100030000   541110001917777031200000019MOB BANK               YGN           MMR11007030700370003690703000000000000000   10300014 00104100000000000000000000001060     
100   35710830277463370000000000020000000000020000002000000010410407031149020038514894310703218418003851   1030000100030000   541110001907777031200000019MOB BANK               YGN           MMR11007031149020038510703000000000000000   10300003 00104100000000000000000000004000     
100   95030790000845710000000000045000000000045000002000000010410407031226490038544134410703218418003854   1030000100030000   541110001907777031200000019MOB BANK               YGN           MMR11007031226490038540703000000000000000   10200004 00104100000000000000000000009000     
100   9503051889712911000000000000597000000000597000200000001041040703090238000677XZRJH20703218415000677   1030000100030000   541120003005777031200000030MOB BANK               YGN           MMR11007030902380006770703000000000000000   10300002 00104100000000000000000000001194     
100   9503051025656279000000000001850000000001850000200000001041040703115930001761MREHOY0703218418001761   1030000100030000   541110001915777031200000019MOB BANK               YGN           MMR11007031159300017610703000000000000000   10300002 00104100000000000000000000003700     
100   9503051024934669000000000003700000000003700000200000001041040703075114000806YAIBSN0703218414000806   1030000100030000   541120003104777031200000031MOB BANK               YGN           MMR11007030751140008060703000000000000000   10300002 00104100000000000000000000007400     
100   9503051886611595000000000002009000000002009000200000001041040703082001000905QPLGLF0703218414000905   1030000100030000   541120003008777031200000030MOB BANK               YGN           MMR11007030820010009050703000000000000000   10300002 00104100000000000000000000004018     
100   35710830108215010000000000007700000000007700002000000010410407031121020016394726400703218417001639   1030000100030000   581250000001777031200000005MOB BANK               YGN           MMR11007031121020016390703000000000000000   10300003 00104100000000000000000000002618     
100   95030800006011330000000000033400000000033400002000000010410407031220250017675082710703218418001767   1030000100030000   541110001915777031200000019MOB BANK               YGN           MMR11007031220250017670703000000000000000   10300003 00104100000000000000000000006680     
100   9503190006209359000000000003100000000003100000200000001041040703052826002181J66MV20703218411002181   1030000100030000   541120003106777031200000031MOB BANK               YGN           MMR11007030528260021810703000000000000000   10300014 00104100000000000000000000006200     
100   95031900055846790000000000006800000000006800002000000010410407031053530023051K3X0W0703218417002305   1030000100030000   541120003117777031200000031MOB BANK               YGN           MMR11007031053530023050703000000000000000   10300014 00104100000000000000000000001360     
100   62346600179823520000000000013000000000013000002000000010410407030654060021313715570703218413002131   1030000100030000   541110001903777031200000019MOB BANK               YGN           MMR11007030654060021310703000000000000000   10300005 00104100000000000000000000002600     
100   35650880400018080000000000021800000000021800002000000010410407030718070021320120660703218413002132   1030000100030000   541110001903777031200000019MOB BANK               YGN           MMR11007030718070021320703000000000000000   10300005 00104100000000000000000000007630     
100   35710500185666850000000000023000000000023000002000000010410407030626530006633317670703218412000663   1030000100030000   541120003111777031200000031MOB BANK               YGN           MMR11007030626530006630703000000000000000   10300005 00104100000000000000000000004600     
100   9503190002260406000000000003800000000003800000200000001041040703105546000759JSZC5L0703218417000759   1030000100030000   581210001201777031200000012MOB BANK               YGN           MMR11007031055460007590703000000000000000   10300014 00104100000000000000000000012920     
100   35710830328950790000000000032800000000032800002000000010410407030847000021483802120703218415002148   1030000100030000   541110001903777031200000019MOB BANK               YGN           MMR11007030847000021480703000000000000000   10300003 00104100000000000000000000006560     
100   9503051026153748000000000008650000000008650000200000001041040703082053001752XDVPCC0703218414001752   1030000100030000   541110001915777031200000019MOB BANK               YGN           MMR11007030820530017520703000000000000000   10300002 00104100000000000000000000017300     
100   9503190004915551000000000004895000000004895000200000001041040703072703001741EI4KVG0703218413001741   1030000100030000   541110001915777031200000019MOB BANK               YGN           MMR11007030727030017410703000000000000000   10300014 00104100000000000000000000009790     
100   35710830531146080000000000030400000000030400002000000010410407030631260022712988720703218413002271   1030000100030000   541120003117777031200000031MOB BANK               YGN           MMR11007030631260022710703000000000000000   10300003 00104100000000000000000000006080     
100   9503051025371127000000000001750000000001750000200000001041040703054439000659U4OHYT0703218412000659   1030000100030000   541120003111777031200000031MOB BANK               YGN           MMR11007030544390006590703000000000000000   10300002 00104100000000000000000000003500     
100   35710500324402550000000000056500000000056500002000000010410407030638230006643501650703218413000664   1030000100030000   541120003111777031200000031MOB BANK               YGN           MMR11007030638230006640703000000000000000   10300005 00104100000000000000000000011300     
100   9503051889379620000000000002200000000002200000200000001041040703062614000802Q7EQO90703218412000802   1030000100030000   541120003104777031200000031MOB BANK               YGN           MMR11007030626140008020703000000000000000   10300002 00104100000000000000000000004400     
100   9503051023322544000000000001080000000001080000200000001041040703111234000814OW90JK0703218417000814   1030000100030000   541120003104777031200000031MOB BANK               YGN           MMR11007031112340008140703000000000000000   10300002 00104100000000000000000000002160     
100   35710500355243450000000000019250000000019250002000000010410407031238020016400545540703218419001640   1030000100030000   581250000001777031200000005MOB BANK               YGN           MMR11007031238020016400703000000000000000   10300005 00104100000000000000000000006545     
100   9503051026667929000000000001980000000001980000200000001041040703124312001641MCGDG10703218419001641   1030000100030000   581250000001777031200000005MOB BANK               YGN           MMR11007031243120016410703000000000000000   10300002 00104100000000000000000000006732     
100   9503051885996880000000000001750000000001750000200000001041040703045734001721IXHXSG0703218411001721   1030000100030000   541110001915777031200000019MOB BANK               YGN           MMR11007030457340017210703000000000000000   10300002 00104100000000000000000000003500     
100   9503051025370087000000000003700000000003700000200000001041040703054357001725XQURZD0703218412001725   1030000100030000   541110001915777031200000019MOB BANK               YGN           MMR11007030543570017250703000000000000000   10300002 00104100000000000000000000007400     
100   35710500125142930000000000019600000000019600002000000010410407030919180008081884590703218415000808   1030000100030000   541120003104777031200000031MOB BANK               YGN           MMR11007030919180008080703000000000000000   10300005 00104100000000000000000000003920     
100   35710830205408360000000000032900000000032900002000000010410407030931260009164068710703218416000916   1030000100030000   541120003008777031200000030MOB BANK               YGN           MMR11007030931260009160703000000000000000   10300003 00104100000000000000000000006580     
100   62622000501314610000000000017500000000017500002000000010410407030950260009185674750703218416000918   1030000100030000   541120003008777031200000030MOB BANK               YGN           MMR11007030950260009180703000000000000000   10300006 00104100000000000000000000003500     
100   62346600177204220000000000029000000000029000002000000010410407030530130021845606600703218412002184   1030000100030000   541120003106777031200000031MOB BANK               YGN           MMR11007030530130021840703000000000000000   10300005 00104100000000000000000000005800     
100   35710830954951220000000000045300000000045300002000000010410407030811450021353590610703218414002135   1030000100030000   541110001903777031200000019MOB BANK               YGN           MMR11007030811450021350703000000000000000   10300003 00104100000000000000000000009060     
100   9503190004875664000000000001880000000001880000200000001041040703083213002141A2SB800703218415002141   1030000100030000   541110001903777031200000019MOB BANK               YGN           MMR11007030832130021410703000000000000000   10300014 00104100000000000000000000003760     
100   35710950661967940000000000004800000000004800002000000010410407030916070006793976820703218415000679   1030000100030000   541120003005777031200000030MOB BANK               YGN           MMR11007030916070006790703000000000000000   10300003 00104100000000000000000000000960     
100   35710830624963680000000000025800000000025800002000000010410407030809220009313576400703218414000931   1030000100030000   541120003103777031200000031MOB BANK               YGN           MMR11007030809220009310703000000000000000   10300003 00104100000000000000000000005160     
100   35710500103781880000000000014150000000014150002000000010410407030831300017548876280703218415001754   1030000100030000   541110001915777031200000019MOB BANK               YGN           MMR11007030831300017540703000000000000000   10300005 00104100000000000000000000002830     
100   35710500345771200000000000118000000000118000002000000010410407030743230017444825180703218414001744   1030000100030000   541110001915777031200000019MOB BANK               YGN           MMR11007030743230017440703000000000000000   10300005 00104100000000000000000000023600     
100   9503051020019556000000000000142100000000142100200000001041040703090029002292D0HT9U0703218415002292   1030000100030000   541120003117777031200000031MOB BANK               YGN           MMR11007030900290022920703000000000000000   10300002 00104100000000000000000000000284     
100   35710830531146080000000000008800000000008800002000000010410407030636430022733020410703218413002273   1030000100030000   541120003117777031200000031MOB BANK               YGN           MMR11007030636430022730703000000000000000   10300003 00104100000000000000000000001760     
100   35710830060717490000000000052800000000052800002000000010410407031506230007606078500703218421000760   1030000100030000   581210001201777031200000012MOB BANK               YGN           MMR11007031506230007600703000000000000000   10300003 00104100000000000000000000017952     
100   9503051888546542000000000001530000000001530000200000001041040703115605000821L8CZEZ0703218418000821   1030000100030000   541120003104777031200000031MOB BANK               YGN           MMR11007031156050008210703000000000000000   10300002 00104100000000000000000000003060     
100   9503051024478600000000000002300000000002300000200000001041040703052115000919DIVTBU0703218411000919   1030000100030000   541120003103777031200000031MOB BANK               YGN           MMR11007030521150009190703000000000000000   10300002 00104100000000000000000000004600     
100   95031900017275950000000000007500000000007500002000000010410407030720420009253FX4P20703218413000925   1030000100030000   541120003103777031200000031MOB BANK               YGN           MMR11007030720420009250703000000000000000   10300014 00104100000000000000000000001500     
100   62622000815483370000000000014000000000014000002000000010410407030613380021874775150703218412002187   1030000100030000   541120003106777031200000031MOB BANK               YGN           MMR11007030613380021870703000000000000000   10300006 00104100000000000000000000002800     
100   62622000994741460000000000015500000000015500002000000010410407030618560021895005610703218412002189   1030000100030000   541120003106777031200000031MOB BANK               YGN           MMR11007030618560021890703000000000000000   10300006 00104100000000000000000000003100     
100   9503051025371127000000000002990000000002990000200000001041040703062419002191SNKDWE0703218412002191   1030000100030000   541120003106777031200000031MOB BANK               YGN           MMR11007030624190021910703000000000000000   10300002 00104100000000000000000000005980     
100   9503051885483558000000000008300000000008300000200000001041040703084409002146HHB1BP0703218415002146   1030000100030000   541110001903777031200000019MOB BANK               YGN           MMR11007030844090021460703000000000000000   10300002 00104100000000000000000000016600     
100   95031900058920800000000000031000000000031000002000000010410407030343080038128ZX02A0703218410003812   1030000100030000   541110001907777031200000019MOB BANK               YGN           MMR11007030343080038120703000000000000000   10300014 00104100000000000000000000006200     
100   9503051025283538000000000003850000000003850000200000001041040703051528003817C1XM5H0703218411003817   1030000100030000   541110001907777031200000019MOB BANK               YGN           MMR11007030515280038170703000000000000000   10300002 00104100000000000000000000007700     
