100   9503051873434449000000000002180000000002180000200000001041040702090615000913XBMFGQ0702218315000913   1030000100030000   541120003103777031200000031MOB BANK               YGN           MMR11007020906150009130702000000000000000   10300002 00104100000000000000000000004360     
100   9503051898017377000000000002430000000002430000200000001041040702061617000896ULQSSS0702218312000896   1030000100030000   541120003008777031200000030MOB BANK               YGN           MMR11007020616170008960702000000000000000   10300002 00104100000000000000000000004860     
100   95030800082826960000000000008000000000008000002000000010410407020454550016713769710702218311001671   1030000100030000   541110001915777031200000019MOB BANK               YGN           MMR11007020454550016710702000000000000000   10300003 00104100000000000000000000001600     
100   35710830619014260000000000067200000000067200002000000010410407020511160018353867720702218311001835   1030000100030000   541160000001777031200000006MOB BANK               YGN           MMR11007020511160018350702000000000000000   10300003 00104100000000000000000000013440     
100   9503051872393869000000000003180000000003180000200000001041040702032155002090R0CJWP0702218309002090   1030000100030000   541110001903777031200000019MOB BANK               YGN           MMR11007020321550020900702000000000000000   10300002 00104100000000000000000000006360     
100   9503051025284320000000000000865000000000865000200000001041040702063300000897NMPYEC0702218313000897   1030000100030000   541120003008777031200000030MOB BANK               YGN           MMR11007020633000008970702000000000000000   10300002 00104100000000000000000000001730     
100   9503051024997526000000000000363000000000363000200000001041040702062324001636J4QBBK0702218312001636   1030000100030000   581250000001777031200000005MOB BANK               YGN           MMR11007020623240016360702000000000000000   10300002 00104100000000000000000000001234     
100   9503051022568576000000000000960000000000960000200000001041040702074858001691FTLIZR0702218314001691   1030000100030000   541110001915777031200000019MOB BANK               YGN           MMR11007020748580016910702000000000000000   10300002 00104100000000000000000000001920     
100   35710500335672960000000000012000000000012000002000000010410407020814240037781911710702218314003778   1030000100030000   541110001907777031200000019MOB BANK               YGN           MMR11007020814240037780702000000000000000   10300005 00104100000000000000000000002400     
100   9503051872791724000000000001460000000001460000200000001041040702083736001696OE2VJA0702218315001696   1030000100030000   541110001915777031200000019MOB BANK               YGN           MMR11007020837360016960702000000000000000   10300002 00104100000000000000000000002920     
100   95030518967522150000000000010900000000010900002000000010410407021126000017113DQJVK0702218317001711   1030000100030000   541110001915777031200000019MOB BANK               YGN           MMR11007021126000017110702000000000000000   10300002 00104100000000000000000000002180     
100   35710500101868620000000000023500000000023500002000000010410407020906390021112257010702218315002111   1030000100030000   541110001903777031200000019MOB BANK               YGN           MMR11007020906390021110702000000000000000   10300005 00104100000000000000000000004700     
100   35710830346520560000000000020500000000020500002000000010410407020843520006535143310702218315000653   1030000100030000   541120003111777031200000031MOB BANK               YGN           MMR11007020843520006530702000000000000000   10300003 00104100000000000000000000004100     
100   95031900048763320000000000033000000000033000002000000010410407020957370009155PPSGD0702218316000915   1030000100030000   541120003103777031200000031MOB BANK               YGN           MMR11007020957370009150702000000000000000   10300014 00104100000000000000000000006600     
100   95030510205770820000000000021900000000021900002000000010410407020713440008980KAVV90702218313000898   1030000100030000   541120003008777031200000030MOB BANK               YGN           MMR11007020713440008980702000000000000000   10300002 00104100000000000000000000004380     
100   9503051024818169000000000001520000000001520000200000001041040702055220001674LUNJCS0702218312001674   1030000100030000   541110001915777031200000019MOB BANK               YGN           MMR11007020552200016740702000000000000000   10300002 00104100000000000000000000003040     
100   9503051026241485000000000014610000000014610000200000001041040702112248001837M8AIPX0702218317001837   1030000100030000   541160000001777031200000006MOB BANK               YGN           MMR11007021122480018370702000000000000000   10300002 00104100000000000000000000029220     
100   9503051021336298000000000002592000000002592000200000001041040702100530002113SFSXFL0702218316002113   1030000100030000   541110001903777031200000019MOB BANK               YGN           MMR11007021005300021130702000000000000000   10300002 00104100000000000000000000005184     
100   35710500310586940000000000049500000000049500002000000010410407021110080021147030480702218317002114   1030000100030000   541110001903777031200000019MOB BANK               YGN           MMR11007021110080021140702000000000000000   10300005 00104100000000000000000000009900     
100   9503051024986073000000000001300000000001300000200000001041040702112333002115S2YDVX0702218317002115   1030000100030000   541110001903777031200000019MOB BANK               YGN           MMR11007021123330021150702000000000000000   10300002 00104100000000000000000000002600     
100   35710500335280660000000000011000000000011000002000000010410407020413520020946418690702218310002094   1030000100030000   541110001903777031200000019MOB BANK               YGN           MMR11007020413520020940702000000000000000   10300005 00104100000000000000000000002200     
100   9503051024198869000000000002600000000002600000200000001041040702060739003764W0QWRB0702218312003764   1030000100030000   541110001907777031200000019MOB BANK               YGN           MMR11007020607390037640702000000000000000   10300002 00104100000000000000000000005200     
100   95031204000377590000000000018000000000018000002000000010410407020651330037672222220702218313003767   1030000100030000   541110001907777031200000019MOB BANK               YGN           MMR11007020651330037670702000000000000000   10300009 00104100000000000000000000003600     
100   35710830633805610000000000024476000000024476002000000010410407020656330037704499510702218313003770   1030000100030000   541110001907777031200000019MOB BANK               YGN           MMR11007020656330037700702000000000000000   10300003 00104100000000000000000000004895     
100   35710500325497090000000000001100000000001100002000000010410407020523120007923075450702218311000792   1030000100030000   541120003104777031200000031MOB BANK               YGN           MMR11007020523120007920702000000000000000   10300005 00104100000000000000000000000220     
100   9503051024997526000000000002645500000002645500200000001041040702093008001637SKIBFJ0702218316001637   1030000100030000   581250000001777031200000005MOB BANK               YGN           MMR11007020930080016370702000000000000000   10300002 00104100000000000000000000008995     
100   35710500331811140000000000005700000000005700002000000010410407021214140017155164740702218318001715   1030000100030000   541110001915777031200000019MOB BANK               YGN           MMR11007021214140017150702000000000000000   10300005 00104100000000000000000000001140     
100   9503051024864726000000000001800000000001800000200000001041040702064019002158TZCLIL0702218313002158   1030000100030000   541120003106777031200000031MOB BANK               YGN           MMR11007020640190021580702000000000000000   10300002 00104100000000000000000000003600     
100   35710830766521700000000000024500000000024500002000000010410407020757430008994866510702218314000899   1030000100030000   541120003008777031200000030MOB BANK               YGN           MMR11007020757430008990702000000000000000   10300003 00104100000000000000000000004900     
100   9503051887896096000000000003660000000003660000200000001041040702093936001699VFE62V0702218316001699   1030000100030000   541110001915777031200000019MOB BANK               YGN           MMR11007020939360016990702000000000000000   10300002 00104100000000000000000000007320     
100   9503190000061145000000000001600000000001600000200000001041040702100952001701WM7XBN0702218316001701   1030000100030000   541110001915777031200000019MOB BANK               YGN           MMR11007021009520017010702000000000000000   10300014 00104100000000000000000000003200     
100   35710500355860540000000000014500000000014500002000000010410407020700510021618545840702218313002161   1030000100030000   541120003106777031200000031MOB BANK               YGN           MMR11007020700510021610702000000000000000   10300005 00104100000000000000000000002900     
100   35710830378403770000000000019500000000019500002000000010410407021117470006546066900702218317000654   1030000100030000   541120003111777031200000031MOB BANK               YGN           MMR11007021117470006540702000000000000000   10300003 00104100000000000000000000003900     
100   95030510244815390000000000023500000000023500002000000010410407020856580009003BDZUO0702218315000900   1030000100030000   541120003008777031200000030MOB BANK               YGN           MMR11007020856580009000702000000000000000   10300002 00104100000000000000000000004700     
100   9503051025694999000000000003600000000003600000200000001041040702120138000901TFH0AU0702218318000901   1030000100030000   541120003008777031200000030MOB BANK               YGN           MMR11007021201380009010702000000000000000   10300002 00104100000000000000000000007200     
100   35710500394315960000000000010500000000010500002000000010410407020619010016786873850702218312001678   1030000100030000   541110001920777031200000019MOB BANK               YGN           MMR11007020619010016780702000000000000000   10300005 00104100000000000000000000002100     
100   950305102601957600000000000399000000000399000020000000104104070204220800209665GEBK0702218310002096   1030000100030000   541110001903777031200000019MOB BANK               YGN           MMR11007020422080020960702000000000000000   10300002 00104100000000000000000000007980     
100   35710500343117690000000000025800000000025800002000000010410407020543020020986345280702218312002098   1030000100030000   541110001903777031200000019MOB BANK               YGN           MMR11007020543020020980702000000000000000   10300005 00104100000000000000000000005160     
100   9503051025764024000000000002254000000002254000200000001041040702050113002965REOEBX0702218311002965   1030000100030000   541110001905777031200000019MOB BANK               YGN           MMR11007020501130029650702000000000000000   10300002 00104100000000000000000000004508     
100   9503051892743986000000000003800000000003800000200000001041040702090939002968MVT6B20702218315002968   1030000100030000   541110001905777031200000019MOB BANK               YGN           MMR11007020909390029680702000000000000000   10300002 00104100000000000000000000007600     
100   35710500304549930000000000245000000000245000002000000010410407020706470037759262260702218313003775   1030000100030000   541110001907777031200000019MOB BANK               YGN           MMR11007020706470037750702000000000000000   10300005 00104100000000000000000000049000     
100   9503051889557217000000000005030000000005030000200000001041040701065745002961YPYXAD0701218213002961   1030000100030000   541110001905777031200000019MOB BANK               YGN           MMR11007010657450029610701000000000000000   10300002 00104100000000000000000000010060     
100   35710950617061590000000000020700000000020700002000000010410407010435510016585015310701218211001658   1030000100030000   541110001915777031200000019MOB BANK               YGN           MMR11007010435510016580701000000000000000   10300003 00104100000000000000000000004140     
100   9503051025553765000000000001750000000001750000200000001041040701045221001661CKDE4M0701218211001661   1030000100030000   541110001915777031200000019MOB BANK               YGN           MMR11007010452210016610701000000000000000   10300002 00104100000000000000000000003500     
100   35710830197412960000000000023232000000023232002000000010410407010534490016635369030701218212001663   1030000100030000   541110001915777031200000019MOB BANK               YGN           MMR11007010534490016630701000000000000000   10300003 00104100000000000000000000004646     
100   35710500383904540000000000028000000000028000002000000010410407010609470037459454090701218212003745   1030000100030000   541110001907777031200000019MOB BANK               YGN           MMR11007010609470037450701000000000000000   10300005 00104100000000000000000000005600     
100   9503051025742301000000000000810000000000810000200000001041040701061412003747ELHUNG0701218212003747   1030000100030000   541110001907777031200000019MOB BANK               YGN           MMR11007010614120037470701000000000000000   10300002 00104100000000000000000000001620     
100   35710500350372230000000000035200000000035200002000000010410407010651050037516541250701218213003751   1030000100030000   541110001907777031200000019MOB BANK               YGN           MMR11007010651050037510701000000000000000   10300005 00104100000000000000000000007040     
100   62921400051205380000000000022500000000022500002000000010410407010605220016662222220701218212001666   1030000100030000   541110001915777031200000019MOB BANK               YGN           MMR11007010605220016660701000000000000000   10300009 00104100000000000000000000004500     
100   9503051892335379000000000003000000000003000000200000001041040701034228001672IZ7KPW0701218210001672   1030000100030000   541110001920777031200000019MOB BANK               YGN           MMR11007010342280016720701000000000000000   10300002 00104100000000000000000000006000     
100   9503051891944064000000000003576000000003576000200000001041040701064703003749F8LRHH0701218213003749   1030000100030000   541110001907777031200000019MOB BANK               YGN           MMR11007010647030037490701000000000000000   10300002 00104100000000000000000000007152     
100   35710500120871260000000000014500000000014500002000000010410407020434030022641518750702218311002264   1030000100030000   541120003117777031200000031MOB BANK               YGN           MMR11007020434030022640702000000000000000   10300005 00104100000000000000000000002900     
100   35710500354802170000000000021120000000021120002000000010410407020844570004403975890702218315000440   1030000100030000   541120003013777031200000030MOB BANK               YGN           MMR11007020844570004400702000000000000000   10300005 00104100000000000000000000004224     
100   35710830695023330000000000037500000000037500002000000010410407021247490004436607110702218319000443   1030000100030000   541120003013777031200000030MOB BANK               YGN           MMR11007021247490004430702000000000000000   10300003 00104100000000000000000000007500     
100   9503051025132222000000000002300000000002300000200000001041040702072451000473XRQHXN0702218313000473   1030000100030000   541120003105777031200000031MOB BANK               YGN           MMR11007020724510004730702000000000000000   10300002 00104100000000000000000000004600     
100   62921400000702740000000000017000000000017000002000000010410407021141060001612222220702218318000161   1030000100030000   541120003112777031200000031MOB BANK               YGN           MMR11007021141060001610702000000000000000   10300009 00104100000000000000000000003400     
100   95030510257640240000000000012000000000012000002000000010410407020422020003471XI41C0702218310000347   1030000100030000   541110001917777031200000019MOB BANK               YGN           MMR11007020422020003470702000000000000000   10300002 00104100000000000000000000002400     
100   9503051872616616000000000016370000000016370000200000001041040702130818000189ZSSXUX0702218319000189   1030000100030000   541110001919777031200000019MOB BANK               YGN           MMR11007021308180001890702000000000000000   10300002 00104100000000000000000000032740     
100   9503190000061145000000000001150000000001150000200000001041040702105402000353Z1DHK90702218317000353   1030000100030000   541110001917777031200000019MOB BANK               YGN           MMR11007021054020003530702000000000000000   10300014 00104100000000000000000000002300     
100   9503051020577082000000000000670000000000670000200000001041040702072650000468ZTOOSI0702218313000468   1030000100030000   541120003001777031200000030MOB BANK               YGN           MMR11007020726500004680702000000000000000   10300002 00104100000000000000000000001340     
100   9503190005744448000000000004700000000004700000200000001041040702111701000160U4CTMC0702218317000160   1030000100030000   541120003112777031200000031MOB BANK               YGN           MMR11007021117010001600702000000000000000   10300014 00104100000000000000000000009400     
100   35710500131090440000000000027000000000027000002000000010410407021129430002463785420702218317000246   1030000100030000   541120003006777031200000030MOB BANK               YGN           MMR11007021129430002460702000000000000000   10300005 00104100000000000000000000005400     
100   95031200201099700000000000062800000000062800002000000010410407021214380002982222220702218318000298   1030000100030000   541120003115777031200000031MOB BANK               YGN           MMR11007021214380002980702000000000000000   10300009 00104100000000000000000000012560     
100   9503051019938766000000000000960000000000960000200000001041040702120501000296HY55TX0702218318000296   1030000100030000   541120003115777031200000031MOB BANK               YGN           MMR11007021205010002960702000000000000000   10300002 00104100000000000000000000001920     
100   9503051873938597000000000001900000000001900000200000001041040702045051000351ZOXCSZ0702218311000351   1030000100030000   541110001917777031200000019MOB BANK               YGN           MMR11007020450510003510702000000000000000   10300002 00104100000000000000000000003800     
100   35710830805691700000000000026000000000026000002000000010410407021111530003576031410702218317000357   1030000100030000   541110001917777031200000019MOB BANK               YGN           MMR11007021111530003570702000000000000000   10300003 00104100000000000000000000005200     
100   9503190006564639000000000002200000000002200000200000001041040702090653000441A3WNXT0702218315000441   1030000100030000   541120003013777031200000030MOB BANK               YGN           MMR11007020906530004410702000000000000000   10300014 00104100000000000000000000004400     
100   62622000595317860000000000044300000000044300002000000010410407021226150000404654190702218318000040   1030000100030000   701120003701777031200000037MOB BANK               YGN           MMR11007021226150000400702000000000000000   10300006 00104100000000000000000000015062     
100   9503190001455791000000000006900000000006900000200000001041040702061848000102LB1QC10702218312000102   1030000100030000   541120000018777031200000002MOB BANK               YGN           MMR11007020618480001020702000000000000000   10300014 00104100000000000000000000013800     
100   95030518943296020000000000024500000000024500002000000010410407021148540002935N3DQA0702218318000293   1030000100030000   541120003115777031200000031MOB BANK               YGN           MMR11007021148540002930702000000000000000   10300002 00104100000000000000000000004900     
100   9503051023148873000000000003000000000003000000200000001041040702063134000469R479ZO0702218313000469   1030000100030000   541120003105777031200000031MOB BANK               YGN           MMR11007020631340004690702000000000000000   10300002 00104100000000000000000000006000     
100   9503190000061145000000000004320000000004320000200000001041040702110058000355WVT13L0702218317000355   1030000100030000   541110001917777031200000019MOB BANK               YGN           MMR11007021100580003550702000000000000000   10300014 00104100000000000000000000008640     
100   9503051873938597000000000001080000000001080000200000001041040702044226000349YLI04V0702218311000349   1030000100030000   541110001917777031200000019MOB BANK               YGN           MMR11007020442260003490702000000000000000   10300002 00104100000000000000000000002160     
100   35710500334826780000000000024000000000024000002000000010410407020343110004394489050702218310000439   1030000100030000   541120003013777031200000030MOB BANK               YGN           MMR11007020343110004390702000000000000000   10300005 00104100000000000000000000004800     
100   9503051892923737000000000002750000000002750000200000001041040702045935000466AEX4D10702218311000466   1030000100030000   541120003105777031200000031MOB BANK               YGN           MMR11007020459350004660702000000000000000   10300002 00104100000000000000000000005500     
100   9503190005744448000000000001600000000001600000200000001041040702120504000476FP8Q4H0702218318000476   1030000100030000   541120003105777031200000031MOB BANK               YGN           MMR11007021205040004760702000000000000000   10300014 00104100000000000000000000003200     
100   9503051025062007000000000002899000000002899000200000001041040702115832000182ZRQ48O0702218318000182   1030000100030000   541110001919777031200000019MOB BANK               YGN           MMR11007021158320001820702000000000000000   10300002 00104100000000000000000000005798     
100   35710830623304680000000000064000000000064000002000000010410407021140390004426204110702218318000442   1030000100030000   541120003013777031200000030MOB BANK               YGN           MMR11007021140390004420702000000000000000   10300003 00104100000000000000000000012800     
100   62921400059323610000000000015000000000015000002000000010410407020638380004712222220702218313000471   1030000100030000   541120003105777031200000031MOB BANK               YGN           MMR11007020638380004710702000000000000000   10300009 00104100000000000000000000003000     
100   9503051885091187000000000001620000000001620000200000001041040702100014000796AJ5OYI0702218316000796   1030000100030000   541120003104777031200000031MOB BANK               YGN           MMR11007021000140007960702000000000000000   10300002 00104100000000000000000000003240     
100   9503051888237233000000000001450000000001450000200000001041040702050248000909EF6HIN0702218311000909   1030000100030000   541120003103777031200000031MOB BANK               YGN           MMR11007020502480009090702000000000000000   10300002 00104100000000000000000000002900     
100   62346600191308280000000000020800000000020800002000000010410407020648240016795334040702218313001679   1030000100030000   541110001915777031200000019MOB BANK               YGN           MMR11007020648240016790702000000000000000   10300005 00104100000000000000000000004160     
100   95030800082826960000000000007000000000007000002000000010410407020650200016814462110702218313001681   1030000100030000   541110001915777031200000019MOB BANK               YGN           MMR11007020650200016810702000000000000000   10300003 00104100000000000000000000001400     
100   95030510250837300000000000028800000000028800002000000010410407020741340016819EB8CG0702218314001681   1030000100030000   541110001920777031200000019MOB BANK               YGN           MMR11007020741340016810702000000000000000   10300002 00104100000000000000000000005760     
100   35710830138172580000000000077126000000077126002000000010410407021128260029726130800702218317002972   1030000100030000   541110001905777031200000019MOB BANK               YGN           MMR11007021128260029720702000000000000000   10300003 00104100000000000000000000015425     
100   35710950510561100000000000011760000000011760002000000010410407020853060037825198710702218315003782   1030000100030000   541110001907777031200000019MOB BANK               YGN           MMR11007020853060037820702000000000000000   10300003 00104100000000000000000000002352     
100   95030518927439860000000000002900000000002900002000000010410407020901530037850BF4BM0702218315003785   1030000100030000   541110001907777031200000019MOB BANK               YGN           MMR11007020901530037850702000000000000000   10300002 00104100000000000000000000000580     
100   35710500334826780000000000033750000000033750002000000010410407020350560006734708680702218310000673   1030000100030000   541120003005777031200000030MOB BANK               YGN           MMR11007020350560006730702000000000000000   10300005 00104100000000000000000000006750     
100   9503051887998652000000000001104000000001104000200000001041040702103545001703CO78FT0702218317001703   1030000100030000   541110001915777031200000019MOB BANK               YGN           MMR11007021035450017030702000000000000000   10300002 00104100000000000000000000002208     
100   9503190002199224000000000002700000000002700000200000001041040702071658002165RDK88Q0702218313002165   1030000100030000   541120003106777031200000031MOB BANK               YGN           MMR11007020716580021650702000000000000000   10300014 00104100000000000000000000005400     
100   9503051021822677000000000003300000000003300000200000001041040702104608001705AOS7QN0702218317001705   1030000100030000   541110001915777031200000019MOB BANK               YGN           MMR11007021046080017050702000000000000000   10300002 00104100000000000000000000006600     
100   35710500354004050000000000034500000000034500002000000010410407021253390029750135990702218319002975   1030000100030000   541110001905777031200000019MOB BANK               YGN           MMR11007021253390029750702000000000000000   10300005 00104100000000000000000000006900     
100   9503051026276234000000000000880000000000880000200000001041040702100619003787NMBPID0702218316003787   1030000100030000   541110001907777031200000019MOB BANK               YGN           MMR11007021006190037870702000000000000000   10300002 00104100000000000000000000001760     
100   9503051024868263000000000003576000000003576000200000001041040702105212003790KRUIGH0702218317003790   1030000100030000   541110001907777031200000019MOB BANK               YGN           MMR11007021052120037900702000000000000000   10300002 00104100000000000000000000007152     
100   95030510230575530000000000047600000000047600002000000010410407020823020009110BECGO0702218314000911   1030000100030000   541120003103777031200000031MOB BANK               YGN           MMR11007020823020009110702000000000000000   10300002 00104100000000000000000000009520     
100   95030518907252410000000000009850000000009850002000000010410407020700310016841WXOB40702218313001684   1030000100030000   541110001915777031200000019MOB BANK               YGN           MMR11007020700310016840702000000000000000   10300002 00104100000000000000000000001970     
100   35710830437234190000000000013000000000013000002000000010410407020748000016844808200702218314001684   1030000100030000   541110001920777031200000019MOB BANK               YGN           MMR11007020748000016840702000000000000000   10300003 00104100000000000000000000002600     
100   35710500390876530000000000080000000000080000002000000010410407021136550037945317150702218318003794   1030000100030000   541110001907777031200000019MOB BANK               YGN           MMR11007021136550037940702000000000000000   10300005 00104100000000000000000000016000     
100   9503051872946963000000000003460000000003460000200000001041040702114103003797QKG2PB0702218318003797   1030000100030000   541110001907777031200000019MOB BANK               YGN           MMR11007021141030037970702000000000000000   10300002 00104100000000000000000000006920     
100   9503051897741019000000000003724000000003724000200000001041040702042849000674V7R4WO0702218310000674   1030000100030000   541120003005777031200000030MOB BANK               YGN           MMR11007020428490006740702000000000000000   10300002 00104100000000000000000000007448     
100   35710830994377160000000000003800000000003800002000000010410407021010450021715664710702218316002171   1030000100030000   541120003106777031200000031MOB BANK               YGN           MMR11007021010450021710702000000000000000   10300003 00104100000000000000000000000760     
100   35710950925120890000000000023000000000023000002000000010410407020554540006494129510702218312000649   1030000100030000   541120003111777031200000031MOB BANK               YGN           MMR11007020554540006490702000000000000000   10300003 00104100000000000000000000004600     
100   35710830390582420000000000025000000000025000002000000010410407020441220009053688410702218311000905   1030000100030000   541120003103777031200000031MOB BANK               YGN           MMR11007020441220009050702000000000000000   10300003 00104100000000000000000000005000     
100   35710500166342120000000000017000000000017000002000000010410407021048550017076698170702218317001707   1030000100030000   541110001915777031200000019MOB BANK               YGN           MMR11007021048550017070702000000000000000   10300005 00104100000000000000000000003400     
100   35710830620535320000000000005300000000005300002000000010410407020701580016864532010702218313001686   1030000100030000   541110001915777031200000019MOB BANK               YGN           MMR11007020701580016860702000000000000000   10300003 00104100000000000000000000001060     
100   9503051890049170000000000005690000000005690000200000001041040702062845002101POXRRG0702218312002101   1030000100030000   541110001903777031200000019MOB BANK               YGN           MMR11007020628450021010702000000000000000   10300002 00104100000000000000000000011380     
100   35710500157474940000000000032800000000032800002000000010410407020703340021037900720702218313002103   1030000100030000   541110001903777031200000019MOB BANK               YGN           MMR11007020703340021030702000000000000000   10300005 00104100000000000000000000006560     
100   35710830673119920000000000034368000000034368002000000010410407020629060006504334810702218312000650   1030000100030000   541120003111777031200000031MOB BANK               YGN           MMR11007020629060006500702000000000000000   10300003 00104100000000000000000000006874     
100   9503051022394403000000000002640000000002640000200000001041040702115905001687IUQFNW0702218318001687   1030000100030000   541110001920777031200000019MOB BANK               YGN           MMR11007021159050016870702000000000000000   10300002 00104100000000000000000000005280     
100   95030800097365180000000000038710000000038710002000000010410407021151260038026268810702218318003802   1030000100030000   541110001907777031200000019MOB BANK               YGN           MMR11007021151260038020702000000000000000   10300003 00104100000000000000000000007742     
100   35710830805691700000000000034000000000034000002000000010410407021230440038056504600702218319003805   1030000100030000   541110001907777031200000019MOB BANK               YGN           MMR11007021230440038050702000000000000000   10300003 00104100000000000000000000006800     
100   9503051025744919000000000000630000000000630000200000001041040702095252000794XDMCRA0702218316000794   1030000100030000   541120003104777031200000031MOB BANK               YGN           MMR11007020952520007940702000000000000000   10300002 00104100000000000000000000001260     
100   95031200201099700000000000018500000000018500002000000010410407021233490021742222220702218319002174   1030000100030000   541120003106777031200000031MOB BANK               YGN           MMR11007021233490021740702000000000000000   10300009 00104100000000000000000000003700     
100   35710500170730060000000000027900000000027900002000000010410407021053420017098726690702218317001709   1030000100030000   541110001915777031200000019MOB BANK               YGN           MMR11007021053420017090702000000000000000   10300005 00104100000000000000000000005580     
100   35710950661647920000000000010176000000010176002000000010410407020720520016884645540702218313001688   1030000100030000   541110001915777031200000019MOB BANK               YGN           MMR11007020720520016880702000000000000000   10300003 00104100000000000000000000002035     
100   9503051020755605000000000004245000000004245000200000001041040702072052002105BUEJAH0702218313002105   1030000100030000   541110001903777031200000019MOB BANK               YGN           MMR11007020720520021050702000000000000000   10300002 00104100000000000000000000008490     
100   9503051890049170000000000002760000000002760000200000001041040702073749002106UOXYKW0702218314002106   1030000100030000   541110001903777031200000019MOB BANK               YGN           MMR11007020737490021060702000000000000000   10300002 00104100000000000000000000005520     
100   95030518916237000000000000033900000000033900002000000010410407020803430021077PKIQZ0702218314002107   1030000100030000   541110001903777031200000019MOB BANK               YGN           MMR11007020803430021070702000000000000000   10300002 00104100000000000000000000006780     
100   95030510209117600000000000022800000000022800002000000010410407020842130021090AADRW0702218315002109   1030000100030000   541110001903777031200000019MOB BANK               YGN           MMR11007020842130021090702000000000000000   10300002 00104100000000000000000000004560     
100   35710500355860540000000000022500000000022500002000000010410407020648340006512114170702218313000651   1030000100030000   541120003111777031200000031MOB BANK               YGN           MMR11007020648340006510702000000000000000   10300005 00104100000000000000000000004500     
100   9503051025371622000000000002280000000002280000200000001041040702044223000907DSY4US0702218311000907   1030000100030000   541120003103777031200000031MOB BANK               YGN           MMR11007020442230009070702000000000000000   10300002 00104100000000000000000000004560     
