100   35710500160733530000000000009150000000009150002000000010410406301246560037322287360630218119003732   1030000100030000   541110001907777031200000019MOB BANK               YGN           MMR11006301246560037320630000000000000000   10300005 00104100000000000000000000001830     
100   62346600173091920000000000144000000000144000002000000010410406301249130037341933170630218119003734   1030000100030000   541110001907777031200000019MOB BANK               YGN           MMR11006301249130037340630000000000000000   10300005 00104100000000000000000000028800     
100   9503051025373016000000000001360000000001360000200000001041040630131321003739OKZBQ30630218119003739   1030000100030000   541110001907777031200000019MOB BANK               YGN           MMR11006301313210037390630000000000000000   10300002 00104100000000000000000000002720     
100   9503051025132115000000000005250000000005250000200000001041040630082347001665NWZWRK0630218114001665   1030000100030000   541110001920777031200000019MOB BANK               YGN           MMR11006300823470016650630000000000000000   10300002 00104100000000000000000000010500     
100   9503051024214831000000000002060000000002060000200000001041040630041904003695FOVHQQ0630218110003695   1030000100030000   541110001907777031200000019MOB BANK               YGN           MMR11006300419040036950630000000000000000   10300002 00104100000000000000000000004120     
100   35710830303941330000000000008000000000008000002000000010410406300944180008728226010630218116000872   1030000100030000   541120003008777031200000030MOB BANK               YGN           MMR11006300944180008720630000000000000000   10300003 00104100000000000000000000001600     
100   35710500313639200000000000012200000000012200002000000010410406301131530008745972480630218118000874   1030000100030000   541120003008777031200000030MOB BANK               YGN           MMR11006301131530008740630000000000000000   10300005 00104100000000000000000000002440     
100   62346600171418680000000000107780000000107780002000000010410406301157030020855149090630218118002085   1030000100030000   541110001903777031200000019MOB BANK               YGN           MMR11006301157030020850630000000000000000   10300005 00104100000000000000000000021556     
100   950305102549206300000000000621300000000621300020000000104104063006383200181709UZAS0630218113001817   1030000100030000   541160000001777031200000006MOB BANK               YGN           MMR11006300638320018170630000000000000000   10300002 00104100000000000000000000012426     
100   95030510242253810000000000014000000000014000002000000010410406300748590001540HDICN0630218114000154   1030000100030000   541120003112777031200000031MOB BANK               YGN           MMR11006300748590001540630000000000000000   10300002 00104100000000000000000000002800     
100   62441900001824200000000000051032000000051032002000000010410406300353300006617968650630218110000661   1030000100030000   541120003005777031200000030MOB BANK               YGN           MMR11006300353300006610630000000000000000   10300003 00104100000000000000000000017861     
100   62441900001824200000000000009849000000009849002000000010410406300606040006626944150630218112000662   1030000100030000   541120003005777031200000030MOB BANK               YGN           MMR11006300606040006620630000000000000000   10300003 00104100000000000000000000003447     
100   35710500375838930000000000045900000000045900002000000010410406300616310006636519480630218112000663   1030000100030000   541120003005777031200000030MOB BANK               YGN           MMR11006300616310006630630000000000000000   10300005 00104100000000000000000000009180     
100   95030800033190220000000000009200000000009200002000000010410406300904110022387985210630218115002238   1030000100030000   541120003117777031200000031MOB BANK               YGN           MMR11006300904110022380630000000000000000   10300003 00104100000000000000000000001840     
100   35710500380600990000000000055500000000055500002000000010410406301203490021233381570630218118002123   1030000100030000   541120003106777031200000031MOB BANK               YGN           MMR11006301203490021230630000000000000000   10300005 00104100000000000000000000011100     
100   9503051022705418000000000005400000000005400000200000001041040630050457000898JK4A8I0630218111000898   1030000100030000   541120003103777031200000031MOB BANK               YGN           MMR11006300504570008980630000000000000000   10300002 00104100000000000000000000010800     
100   9503051024214831000000000003850000000003850000200000001041040630040503002080SXIMYZ0630218110002080   1030000100030000   541110001903777031200000019MOB BANK               YGN           MMR11006300405030020800630000000000000000   10300002 00104100000000000000000000007700     
100   62346600110338220000000000020500000000020500002000000010410406300314130016598968410630218109001659   1030000100030000   541110001920777031200000019MOB BANK               YGN           MMR11006300314130016590630000000000000000   10300005 00104100000000000000000000004100     
100   35710830041906990000000000066200000000066200002000000010410406300510380029366584010630218111002936   1030000100030000   541110001905777031200000019MOB BANK               YGN           MMR11006300510380029360630000000000000000   10300003 00104100000000000000000000013240     
100   9503051023854249000000000002000000000002000000200000001041040630074525000642SVH3GQ0630218114000642   1030000100030000   541120003111777031200000031MOB BANK               YGN           MMR11006300745250006420630000000000000000   10300002 00104100000000000000000000004000     
100   9503051025241916000000000000768000000000768000200000001041040630055113001661BZTQE50630218112001661   1030000100030000   541110001920777031200000019MOB BANK               YGN           MMR11006300551130016610630000000000000000   10300002 00104100000000000000000000001536     
100   35710830214160100000000000011500000000011500002000000010410406300941470001558210820630218116000155   1030000100030000   541120003112777031200000031MOB BANK               YGN           MMR11006300941470001550630000000000000000   10300003 00104100000000000000000000002300     
100   62443000119127940000000000028990000000028990002000000010410406301009220001566060930630218116000156   1030000100030000   541120003112777031200000031MOB BANK               YGN           MMR11006301009220001560630000000000000000   10300005 00104100000000000000000000010146     
100   35710500136009270000000000006800000000006800002000000010410406301121450004647894040630218117000464   1030000100030000   541120003001777031200000030MOB BANK               YGN           MMR11006301121450004640630000000000000000   10300005 00104100000000000000000000001360     
100   62622000164121950000000000014500000000014500002000000010410406300758330006433932480630218114000643   1030000100030000   541120003111777031200000031MOB BANK               YGN           MMR11006300758330006430630000000000000000   10300006 00104100000000000000000000002900     
100   9503051886239272000000000000910000000000910000200000001041040630111654002245VKYX470630218117002245   1030000100030000   541120003117777031200000031MOB BANK               YGN           MMR11006301116540022450630000000000000000   10300002 00104100000000000000000000001820     
100   35710500136009270000000000004350000000004350002000000010410406301113370006897512280630218117000689   1030000100030000   541120003003777031200000030MOB BANK               YGN           MMR11006301113370006890630000000000000000   10300005 00104100000000000000000000000870     
100   950305102168252700000000000141000000000141000020000000104104063011180000069141POLD0630218117000691   1030000100030000   541120003003777031200000030MOB BANK               YGN           MMR11006301118000006910630000000000000000   10300002 00104100000000000000000000002820     
100   9503051872337569000000000002000000000002000000200000001041040630101037002083NVQ9SY0630218116002083   1030000100030000   541110001903777031200000019MOB BANK               YGN           MMR11006301010370020830630000000000000000   10300002 00104100000000000000000000004000     
100   35710500323625170000000000089090000000089090002000000010410406300758510029455002950630218114002945   1030000100030000   541110001905777031200000019MOB BANK               YGN           MMR11006300758510029450630000000000000000   10300005 00104100000000000000000000017818     
100   9503051895069736000000000019690000000019690000200000001041040630130045000751L5RBQM0630218119000751   1030000100030000   581210001201777031200000012MOB BANK               YGN           MMR11006301300450007510630000000000000000   10300002 00104100000000000000000000066946     
100   62443000112787820000000000036960000000036960002000000010410406301051370006444158870630218117000644   1030000100030000   541120003111777031200000031MOB BANK               YGN           MMR11006301051370006440630000000000000000   10300005 00104100000000000000000000012936     
100   62921400089423260000000000037400000000037400002000000010410406300552020010032222220630218112001003   1030000100030000   581210001501777031200000015MOB BANK               YGN           MMR11006300552020010030630000000000000000   10300009 00104100000000000000000000012716     
100   35710500174942280000000000130000000000130000002000000010410406300346380036917742400630218110003691   1030000100030000   541110001907777031200000019MOB BANK               YGN           MMR11006300346380036910630000000000000000   10300005 00104100000000000000000000026000     
100   9503051891338242000000000001750000000001750000200000001041040630040512003693KR5SHL0630218110003693   1030000100030000   541110001907777031200000019MOB BANK               YGN           MMR11006300405120036930630000000000000000   10300002 00104100000000000000000000003500     
100   62346600100356870000000000130000000000130000002000000010410406300637000036971540160630218113003697   1030000100030000   541110001907777031200000019MOB BANK               YGN           MMR11006300637000036970630000000000000000   10300005 00104100000000000000000000026000     
100   35710500325513090000000000370000000000370000002000000010410406300728530037004056280630218113003700   1030000100030000   541110001907777031200000019MOB BANK               YGN           MMR11006300728530037000630000000000000000   10300005 00104100000000000000000000074000     
100   35710500120016890000000000005000000000005000002000000010410406300801180037027712240630218114003702   1030000100030000   541110001907777031200000019MOB BANK               YGN           MMR11006300801180037020630000000000000000   10300005 00104100000000000000000000001000     
100   62443000112787820000000000029990000000029990002000000010410406301014230001571139130630218116000157   1030000100030000   541120003112777031200000031MOB BANK               YGN           MMR11006301014230001570630000000000000000   10300005 00104100000000000000000000010496     
100   9503051888898372000000000002650000000002650000200000001041040630061444000640M3T2ZT0630218112000640   1030000100030000   541120003111777031200000031MOB BANK               YGN           MMR11006300614440006400630000000000000000   10300002 00104100000000000000000000005300     
100   35710830371405050000000000032300000000032300002000000010410406300810540008667665510630218114000866   1030000100030000   541120003008777031200000030MOB BANK               YGN           MMR11006300810540008660630000000000000000   10300003 00104100000000000000000000006460     
100   35710500345199080000000000015000000000015000002000000010410406300733360020951881960630218114002095   1030000100030000   541120003106777031200000031MOB BANK               YGN           MMR11006300733360020950630000000000000000   10300005 00104100000000000000000000003000     
100   35710500193233750000000000030100000000030100002000000010410406301116070029515430020630218117002951   1030000100030000   541110001905777031200000019MOB BANK               YGN           MMR11006301116070029510630000000000000000   10300005 00104100000000000000000000006020     
100   35710830675270270000000000013000000000013000002000000010410406300812400008687676200630218114000868   1030000100030000   541120003008777031200000030MOB BANK               YGN           MMR11006300812400008680630000000000000000   10300003 00104100000000000000000000002600     
100   35710500315965940000000000073530000000073530002000000010410406301151550018238843890630218118001823   1030000100030000   541160000001777031200000006MOB BANK               YGN           MMR11006301151550018230630000000000000000   10300005 00104100000000000000000000014706     
100   35710830492096110000000000017500000000017500002000000010410406301033270037098520910630218117003709   1030000100030000   541110001907777031200000019MOB BANK               YGN           MMR11006301033270037090630000000000000000   10300003 00104100000000000000000000003500     
100   35710500315938310000000000030000000000030000002000000010410406301048150037128023860630218117003712   1030000100030000   541110001907777031200000019MOB BANK               YGN           MMR11006301048150037120630000000000000000   10300005 00104100000000000000000000006000     
100   35710500315938310000000000144000000000144000002000000010410406301050170037147562730630218117003714   1030000100030000   541110001907777031200000019MOB BANK               YGN           MMR11006301050170037140630000000000000000   10300005 00104100000000000000000000028800     
100   35710830336284530000000000073000000000073000002000000010410406301139430037228918410630218118003722   1030000100030000   541110001907777031200000019MOB BANK               YGN           MMR11006301139430037220630000000000000000   10300003 00104100000000000000000000014600     
100   62346600101314110000000000022000000000022000002000000010410406301207580037244388940630218118003724   1030000100030000   541110001907777031200000019MOB BANK               YGN           MMR11006301207580037240630000000000000000   10300005 00104100000000000000000000004400     
100   95030510238542490000000000033600000000033600002000000010410406300747340001525T3DJG0630218114000152   1030000100030000   541120003112777031200000031MOB BANK               YGN           MMR11006300747340001520630000000000000000   10300002 00104100000000000000000000006720     
100   9503051895421341000000000001760000000001760000200000001041040630085035000870AERLXM0630218115000870   1030000100030000   541120003008777031200000030MOB BANK               YGN           MMR11006300850350008700630000000000000000   10300002 00104100000000000000000000003520     
100   95030510201338860000000000029500000000029500002000000010410406300738280020971LARHI0630218114002097   1030000100030000   541120003106777031200000031MOB BANK               YGN           MMR11006300738280020970630000000000000000   10300002 00104100000000000000000000005900     
100   95030518869351840000000000070800000000070800002000000010410406300916370018215Z6QCU0630218115001821   1030000100030000   541160000001777031200000006MOB BANK               YGN           MMR11006300916370018210630000000000000000   10300002 00104100000000000000000000014160     
100   95030800033190220000000000008500000000008500002000000010410406300940300022428203130630218116002242   1030000100030000   541120003117777031200000031MOB BANK               YGN           MMR11006300940300022420630000000000000000   10300003 00104100000000000000000000001700     
100   35710830920003470000000000016954000000016954002000000010410407011044140007007225510701218217000700   1030000100030000   541120003003777031200000030MOB BANK               YGN           MMR11007011044140007000701000000000000000   10300003 00104100000000000000000000003391     
100   62622000108984230000000000009900000000009900002000000010410407010718120006465010170701218213000646   1030000100030000   541120003111777031200000031MOB BANK               YGN           MMR11007010718120006460701000000000000000   10300006 00104100000000000000000000001980     
100   95030800005874230000000000009800000000009800002000000010410407010848390006476532020701218215000647   1030000100030000   541120003111777031200000031MOB BANK               YGN           MMR11007010848390006470701000000000000000   10300003 00104100000000000000000000001960     
100   9503051025447976000000000001300000000001300000200000001041040701074646000885ANTFJT0701218214000885   1030000100030000   541120003008777031200000030MOB BANK               YGN           MMR11007010746460008850701000000000000000   10300002 00104100000000000000000000002600     
100   35710500183183430000000000012900000000012900002000000010410407010612490007771057130701218212000777   1030000100030000   541120003104777031200000031MOB BANK               YGN           MMR11007010612490007770701000000000000000   10300005 00104100000000000000000000002580     
100   35710830402834250000000000025000000000025000002000000010410407010803430008876262410701218214000887   1030000100030000   541120003008777031200000030MOB BANK               YGN           MMR11007010803430008870701000000000000000   10300003 00104100000000000000000000005000     
100   35710830229164710000000000021600000000021600002000000010410407011029530006697139410701218216000669   1030000100030000   541120003005777031200000030MOB BANK               YGN           MMR11007011029530006690701000000000000000   10300003 00104100000000000000000000004320     
100   35710500104180830000000000045570000000045570002000000010410407011005100008891512780701218216000889   1030000100030000   541120003008777031200000030MOB BANK               YGN           MMR11007011005100008890701000000000000000   10300005 00104100000000000000000000009114     
100   35710500120871260000000000006900000000006900002000000010410407011115440008910730250701218217000891   1030000100030000   541120003008777031200000030MOB BANK               YGN           MMR11007011115440008910701000000000000000   10300005 00104100000000000000000000001380     
100   9503051892266269000000000001560000000001560000200000001041040701073033000779ZNMQRZ0701218214000779   1030000100030000   541120003104777031200000031MOB BANK               YGN           MMR11007010730330007790701000000000000000   10300002 00104100000000000000000000003120     
100   9503054000512780000000000000460000000000460000200000001041040701095545000781BXC3ZV0701218216000781   1030000100030000   541120003104777031200000031MOB BANK               YGN           MMR11007010955450007810701000000000000000   10300002 00104100000000000000000000000920     
100   9503051023379049000000000001300000000001300000200000001041040701055554000665KEJ1XG0701218212000665   1030000100030000   541120003005777031200000030MOB BANK               YGN           MMR11007010555540006650701000000000000000   10300002 00104100000000000000000000002600     
100   9503054000504514000000000000675000000000675000200000001041040701104000000783LJK0ZG0701218217000783   1030000100030000   541120003104777031200000031MOB BANK               YGN           MMR11007011040000007830701000000000000000   10300002 00104100000000000000000000001350     
100   35710500381711510000000000010342000000010342002000000010410407010728140006660450030701218213000666   1030000100030000   541120003005777031200000030MOB BANK               YGN           MMR11007010728140006660701000000000000000   10300005 00104100000000000000000000002068     
100   9503051897113011000000000001150000000001150000200000001041040701063903000879MEM2DQ0701218213000879   1030000100030000   541120003008777031200000030MOB BANK               YGN           MMR11007010639030008790701000000000000000   10300002 00104100000000000000000000002300     
100   35710500375838930000000000032050000000032050002000000010410407010602580006995256790701218212000699   1030000100030000   541120003003777031200000030MOB BANK               YGN           MMR11007010602580006990701000000000000000   10300005 00104100000000000000000000006410     
100   9503051897859779000000000001000000000001000000200000001041040701064525000881ZICDUX0701218213000881   1030000100030000   541120003008777031200000030MOB BANK               YGN           MMR11007010645250008810701000000000000000   10300002 00104100000000000000000000002000     
100   9503051891069649000000000000405000000000405000200000001041040701114024000785M65XZW0701218218000785   1030000100030000   541120003104777031200000031MOB BANK               YGN           MMR11007011140240007850701000000000000000   10300002 00104100000000000000000000000810     
100   95030510256412140000000000012000000000012000002000000010410407010736470000273SIYYA0701218214000027   1030000100030000   541110900003777030900000003MOB BANK               YGN           MMR11007010736470000270701000000000000000   10300002 00104100000000000000000000002400     
100   35710500381711510000000000005100000000005100002000000010410407010743490008838740020701218214000883   1030000100030000   541120003008777031200000030MOB BANK               YGN           MMR11007010743490008830701000000000000000   10300005 00104100000000000000000000001020     
100   9503051023302231000000000002380000000002380000200000001041040701092641000462PQPMIZ0701218215000462   1030000100030000   541120003105777031200000031MOB BANK               YGN           MMR11007010926410004620701000000000000000   10300002 00104100000000000000000000004760     
100   9503190006134581000000000000615000000000615000200000001041040701095357000667VJ2CWM0701218216000667   1030000100030000   541120003005777031200000030MOB BANK               YGN           MMR11007010953570006670701000000000000000   10300014 00104100000000000000000000001230     
100   9503051872733411000000000003129000000003129000200000001041040701121832000787ZNS7HH0701218218000787   1030000100030000   541120003104777031200000031MOB BANK               YGN           MMR11007011218320007870701000000000000000   10300002 00104100000000000000000000006258     
100   35710830534963020000000000029000000000029000002000000010410407010607410021315566210701218212002131   1030000100030000   541120003106777031200000031MOB BANK               YGN           MMR11007010607410021310701000000000000000   10300003 00104100000000000000000000005800     
100   35710500182183860000000000004300000000004300002000000010410407010813140021378133860701218214002137   1030000100030000   541120003106777031200000031MOB BANK               YGN           MMR11007010813140021370701000000000000000   10300005 00104100000000000000000000000860     
100   35710500114795630000000000011000000000011000002000000010410407011213430016325158610701218218001632   1030000100030000   581250000001777031200000005MOB BANK               YGN           MMR11007011213430016320701000000000000000   10300005 00104100000000000000000000003740     
100   35710830238528730000000000055500000000055500002000000010410407010442100022525053200701218211002252   1030000100030000   541120003117777031200000031MOB BANK               YGN           MMR11007010442100022520701000000000000000   10300003 00104100000000000000000000011100     
100   95051010143071410000000000003400000000003400002000000010410407011254340007896281010701218219000789   1030000100030000   541120003104777031200000031MOB BANK               YGN           MMR11007011254340007890701000000000000000   10300005 00104100000000000000000000001190     
100   35710500325253780000000000013200000000013200002000000010410407011258080016340727890701218219001634   1030000100030000   581250000001777031200000005MOB BANK               YGN           MMR11007011258080016340701000000000000000   10300005 00104100000000000000000000004488     
100   35710900153734040000000000016100000000016100002000000010410407010833290021406441100701218215002140   1030000100030000   541120003106777031200000031MOB BANK               YGN           MMR11007010833290021400701000000000000000   10300003 00104100000000000000000000003220     
100   9503051888378730000000000002000000000002000000200000001041040701104243002144UT62SR0701218217002144   1030000100030000   541120003106777031200000031MOB BANK               YGN           MMR11007011042430021440701000000000000000   10300002 00104100000000000000000000004000     
100   95030518915886970000000000069600000000069600002000000010410407011120540018291YANFP0701218217001829   1030000100030000   541160000001777031200000006MOB BANK               YGN           MMR11007011120540018290701000000000000000   10300002 00104100000000000000000000013920     
100   62346600180456620000000000006250000000006250002000000010410407010815440022558850280701218214002255   1030000100030000   541120003117777031200000031MOB BANK               YGN           MMR11007010815440022550701000000000000000   10300005 00104100000000000000000000001250     
100   35710830096276610000000000032050000000032050002000000010410407010949310022586897210701218216002258   1030000100030000   541120003117777031200000031MOB BANK               YGN           MMR11007010949310022580701000000000000000   10300003 00104100000000000000000000006410     
100   35710500374811060000000000029900000000029900002000000010410407011159080021489641140701218218002148   1030000100030000   541120003106777031200000031MOB BANK               YGN           MMR11007011159080021480701000000000000000   10300005 00104100000000000000000000005980     
100   9503051888743537000000000018150000000018150000200000001041040701071112001011YF1BHX0701218213001011   1030000100030000   581210001501777031200000015MOB BANK               YGN           MMR11007010711120010110701000000000000000   10300002 00104100000000000000000000061710     
100   9503051872394677000000000012483000000012483000200000001041040701053737001827E7LKJ30701218212001827   1030000100030000   541160000001777031200000006MOB BANK               YGN           MMR11007010537370018270701000000000000000   10300002 00104100000000000000000000024966     
100   9503051024293587000000000002280000000002280000200000001041040701064013001630YMSSQK0701218213001630   1030000100030000   581250000001777031200000005MOB BANK               YGN           MMR11007010640130016300701000000000000000   10300002 00104100000000000000000000007752     
100   9503051892065877000000000001950000000001950000200000001041040701033608002249OHCWNQ0701218210002249   1030000100030000   541120003117777031200000031MOB BANK               YGN           MMR11007010336080022490701000000000000000   10300002 00104100000000000000000000003900     
100   9503051888914401000000000000382500000000382500200000001041040701084712001631H1KZQX0701218215001631   1030000100030000   581250000001777031200000005MOB BANK               YGN           MMR11007010847120016310701000000000000000   10300002 00104100000000000000000000001300     
100   9503051873061184000000000001500000000001500000200000001041040630122106003726BODDL10630218118003726   1030000100030000   541110001907777031200000019MOB BANK               YGN           MMR11006301221060037260630000000000000000   10300002 00104100000000000000000000003000     
100   9503054000566208000000000001650000000001650000200000001041040630061927002235ZZTEFM0630218112002235   1030000100030000   541120003117777031200000031MOB BANK               YGN           MMR11006300619270022350630000000000000000   10300002 00104100000000000000000000003300     
100   35710500325237530000000000025000000000025000002000000010410406301232000037298952520630218119003729   1030000100030000   541110001907777031200000019MOB BANK               YGN           MMR11006301232000037290630000000000000000   10300005 00104100000000000000000000005000     
100   35710500155505830000000000231200000000231200002000000010410406300737160004634009370630218114000463   1030000100030000   541120003001777031200000030MOB BANK               YGN           MMR11006300737160004630630000000000000000   10300005 00104100000000000000000000046240     
100   62921400083110840000000000000100000000000100002000000010410406290445080001802222220629218011000180   1030000100030000   581210000001777031200000001MOB BANK               YGN           MMR11006290445080001800629000000000000000   10300009 00104100000000000000000000000034     
100   62346600151151380000000000027000000000027000002000000010410406300824470000379789020630218114000037   1030000100030000   701120003701777031200000037MOB BANK               YGN           MMR11006300824470000370630000000000000000   10300005 00104100000000000000000000009180     
100   35710830241411360000000000013500000000013500002000000010410406300848150004127889710630218115000412   1030000100030000   541120003012777031200000030MOB BANK               YGN           MMR11006300848150004120630000000000000000   10300003 00104100000000000000000000002700     
100   9503051888898372000000000001620000000001620000200000001041040630075854000900O2PVBJ0630218114000900   1030000100030000   541120003103777031200000031MOB BANK               YGN           MMR11006300758540009000630000000000000000   10300002 00104100000000000000000000003240     
