100   35710500190872850000000000003300000000003300002000000010410407040631170038612112160704218513003861   1030000100030000   541110001907777031200000019MOB BANK               YGN           MMR11007040631170038610704000000000000000   10300005 00104100000000000000000000000660     
100   35710500325456320000000000026100000000026100002000000010410407040829320004795148280704218514000479   1030000100030000   541120003001777031200000030MOB BANK               YGN           MMR11007040829320004790704000000000000000   10300005 00104100000000000000000000005220     
100   9503051891658847000000000027630000000027630000200000001041040704044245002311GK7TUF0704218511002311   1030000100030000   541120003117777031200000031MOB BANK               YGN           MMR11007040442450023110704000000000000000   10300002 00104100000000000000000000055260     
100   9503051889562126000000000011480000000011480000200000001041040704081037002173E6MR9F0704218514002173   1030000100030000   541110001903777031200000019MOB BANK               YGN           MMR11007040810370021730704000000000000000   10300002 00104100000000000000000000022960     
100   62622000659747230000000000029900000000029900002000000010410407040812320021764777000704218514002176   1030000100030000   541110001903777031200000019MOB BANK               YGN           MMR11007040812320021760704000000000000000   10300006 00104100000000000000000000005980     
100   9503051886425384000000000004700000000004700000200000001041040704102732002220XQKHZQ0704218516002220   1030000100030000   541120003106777031200000031MOB BANK               YGN           MMR11007041027320022200704000000000000000   10300002 00104100000000000000000000009400     
100   35710500392217570000000000023000000000023000002000000010410407040633420038631947680704218513003863   1030000100030000   541110001907777031200000019MOB BANK               YGN           MMR11007040633420038630704000000000000000   10300005 00104100000000000000000000004600     
100   35710830920003470000000000008782000000008782002000000010410407041059100006903235120704218517000690   1030000100030000   541120003005777031200000030MOB BANK               YGN           MMR11007041059100006900704000000000000000   10300003 00104100000000000000000000001756     
100   35710500345407970000000000069000000000069000002000000010410407040619580029996487730704218512002999   1030000100030000   541110001905777031200000019MOB BANK               YGN           MMR11007040619580029990704000000000000000   10300005 00104100000000000000000000013800     
100   9503051887462642000000000003180000000003180000200000001041040704100611002180D0IDLJ0704218516002180   1030000100030000   541110001903777031200000019MOB BANK               YGN           MMR11007041006110021800704000000000000000   10300002 00104100000000000000000000006360     
100   9503051020130916000000000022000000000022000000200000001041040704082156003871UTN7LY0704218514003871   1030000100030000   541110001907777031200000019MOB BANK               YGN           MMR11007040821560038710704000000000000000   10300002 00104100000000000000000000044000     
100   9503051885952198000000000013100000000013100000200000001041040704084032000480TPFMJO0704218515000480   1030000100030000   541120003001777031200000030MOB BANK               YGN           MMR11007040840320004800704000000000000000   10300002 00104100000000000000000000026200     
100   35710830564656010000000000003950000000003950002000000010410407040919060004812634800704218515000481   1030000100030000   541120003001777031200000030MOB BANK               YGN           MMR11007040919060004810704000000000000000   10300003 00104100000000000000000000000790     
100   9503051026617247000000000002416500000002416500200000001041040704101640000482MKHM2E0704218516000482   1030000100030000   541120003001777031200000030MOB BANK               YGN           MMR11007041016400004820704000000000000000   10300002 00104100000000000000000000004833     
100   62346600134073700000000000008400000000008400002000000010410407041251300006918988730704218519000691   1030000100030000   541120003005777031200000030MOB BANK               YGN           MMR11007041251300006910704000000000000000   10300005 00104100000000000000000000001680     
100   35710500390140530000000000008295000000008295002000000010410407040400490016436479330704218510001643   1030000100030000   581250000001777031200000005MOB BANK               YGN           MMR11007040400490016430704000000000000000   10300005 00104100000000000000000000002820     
100   62346600178431090000000000024000000000024000002000000010410407041041490016448483180704218517001644   1030000100030000   581250000001777031200000005MOB BANK               YGN           MMR11007041041490016440704000000000000000   10300005 00104100000000000000000000008160     
100   9503051887677850000000000001755000000001755000200000001041040704045418000686P6OO5L0704218511000686   1030000100030000   541120003005777031200000030MOB BANK               YGN           MMR11007040454180006860704000000000000000   10300002 00104100000000000000000000003510     
100   9503051892749199000000000001600000000001600000200000001041040704101805000938QXYAUW0704218516000938   1030000100030000   541120003103777031200000031MOB BANK               YGN           MMR11007041018050009380704000000000000000   10300002 00104100000000000000000000003200     
100   9503051026002119000000000003290000000003290000200000001041040704114340002185F44LOB0704218518002185   1030000100030000   541110001903777031200000019MOB BANK               YGN           MMR11007041143400021850704000000000000000   10300002 00104100000000000000000000006580     
100   9503051886882873000000000003850000000003850000200000001041040704060610001017BTFQKP0704218512001017   1030000100030000   581210001501777031200000015MOB BANK               YGN           MMR11007040606100010170704000000000000000   10300002 00104100000000000000000000013090     
100   9503190000054728000000000002805000000002805000200000001041040704115522001019XH8W5W0704218518001019   1030000100030000   581210001501777031200000015MOB BANK               YGN           MMR11007041155220010190704000000000000000   10300014 00104100000000000000000000009537     
100   9503051025236098000000000005305000000005305000200000001041040704064248003006VPJ5PM0704218513003006   1030000100030000   541110001905777031200000019MOB BANK               YGN           MMR11007040642480030060704000000000000000   10300002 00104100000000000000000000010610     
100   62343302009020840000000000023900000000023900002000000010410407040329380022063927970704218509002206   1030000100030000   541120003106777031200000031MOB BANK               YGN           MMR11007040329380022060704000000000000000   10300004 00104100000000000000000000004780     
100   95030510250335290000000000018200000000018200002000000010410407041111150038751BJEKD0704218517003875   1030000100030000   541110001907777031200000019MOB BANK               YGN           MMR11007041111150038750704000000000000000   10300002 00104100000000000000000000003640     
100   9503051892951191000000000012800000000012800000200000001041040704121155003878CP3RIE0704218518003878   1030000100030000   541110001907777031200000019MOB BANK               YGN           MMR11007041211550038780704000000000000000   10300002 00104100000000000000000000025600     
100   9503051019808027000000000003880000000003880000200000001041040704103040000482FORKMQ0704218517000482   1030000100030000   541120003105777031200000031MOB BANK               YGN           MMR11007041030400004820704000000000000000   10300002 00104100000000000000000000007760     
100   9503051024984391000000000002200000000002200000200000001041040704051338000476WS4CFF0704218511000476   1030000100030000   541120003001777031200000030MOB BANK               YGN           MMR11007040513380004760704000000000000000   10300002 00104100000000000000000000004400     
100   95031100018776530000000000214800000000214800002000000010410407041030120018496034290704218517001849   1030000100030000   541160000001777031200000006MOB BANK               YGN           MMR11007041030120018490704000000000000000   10300006 00104100000000000000000000042960     
100   9503051025794351000000000004040000000004040000200000001041040704102500000826T1VHPT0704218516000826   1030000100030000   541120003104777031200000031MOB BANK               YGN           MMR11007041025000008260704000000000000000   10300002 00104100000000000000000000008080     
100   9503051887191076000000000000245000000000245000200000001041040704125919000692RTWBJO0704218519000692   1030000100030000   541120003005777031200000030MOB BANK               YGN           MMR11007041259190006920704000000000000000   10300002 00104100000000000000000000000490     
100   9503051024984391000000000000735000000000735000200000001041040704052433000687SMJOXL0704218511000687   1030000100030000   541120003005777031200000030MOB BANK               YGN           MMR11007040524330006870704000000000000000   10300002 00104100000000000000000000001470     
100   9503051892749199000000000000800000000000800000200000001041040704102513000940DACNLS0704218516000940   1030000100030000   541120003103777031200000031MOB BANK               YGN           MMR11007041025130009400704000000000000000   10300002 00104100000000000000000000001600     
100   62444500200627900000000000012800000000012800002000000010410407040641150022105163600704218513002210   1030000100030000   541120003106777031200000031MOB BANK               YGN           MMR11007040641150022100704000000000000000   10300002 00104100000000000000000000004480     
100   9503051024810372000000000002850000000002850000200000001041040704085641002217DVYUII0704218515002217   1030000100030000   541120003106777031200000031MOB BANK               YGN           MMR11007040856410022170704000000000000000   10300002 00104100000000000000000000005700     
100   35710830657685240000000000038000000000038000002000000010410407041240350038813844000704218519003881   1030000100030000   541110001907777031200000019MOB BANK               YGN           MMR11007041240350038810704000000000000000   10300003 00104100000000000000000000007600     
100   95051010142840840000000000017510000000017510002000000010410407041117460008282106670704218517000828   1030000100030000   541120003104777031200000031MOB BANK               YGN           MMR11007041117460008280704000000000000000   10300005 00104100000000000000000000006128     
100   35710830898149240000000000032560000000032560002000000010410407041157130010213583410704218518001021   1030000100030000   581210001501777031200000015MOB BANK               YGN           MMR11007041157130010210704000000000000000   10300003 00104100000000000000000000011070     
100   35710830190397580000000000038000000000038000002000000010410407040829380030082338000704218514003008   1030000100030000   541110001905777031200000019MOB BANK               YGN           MMR11007040829380030080704000000000000000   10300003 00104100000000000000000000007600     
100   9503190000688988000000000002415000000002415000200000001041040704083735003011AO9KW80704218515003011   1030000100030000   541110001905777031200000019MOB BANK               YGN           MMR11007040837350030110704000000000000000   10300014 00104100000000000000000000004830     
100   95030800063846680000000000022800000000022800002000000010410407040839260030142396900704218515003014   1030000100030000   541110001905777031200000019MOB BANK               YGN           MMR11007040839260030140704000000000000000   10300003 00104100000000000000000000004560     
100   9503190000050825000000000001260000000001260000200000001041040704104750003017W2Z4DB0704218517003017   1030000100030000   541110001905777031200000019MOB BANK               YGN           MMR11007041047500030170704000000000000000   10300014 00104100000000000000000000002520     
100   35710830657685240000000000034500000000034500002000000010410407041230380030243784400704218519003024   1030000100030000   541110001905777031200000019MOB BANK               YGN           MMR11007041230380030240704000000000000000   10300003 00104100000000000000000000006900     
100   62622000177279220000000000005150000000005150002000000010410407041301130038835016400704218519003883   1030000100030000   541110001907777031200000019MOB BANK               YGN           MMR11007041301130038830704000000000000000   10300006 00104100000000000000000000001030     
100   9503051885953626000000000003750000000003750000200000001041040704105847000484BC0ZMM0704218517000484   1030000100030000   541120003105777031200000031MOB BANK               YGN           MMR11007041058470004840704000000000000000   10300002 00104100000000000000000000007500     
100   35710950372369350000000000014000000000014000002000000010410407040906460006682560900704218515000668   1030000100030000   541120003111777031200000031MOB BANK               YGN           MMR11007040906460006680704000000000000000   10300003 00104100000000000000000000002800     
100   9503051024984391000000000000420000000000420000200000001041040704051547000478OTAMTA0704218511000478   1030000100030000   541120003001777031200000030MOB BANK               YGN           MMR11007040515470004780704000000000000000   10300002 00104100000000000000000000000840     
100   35710830054583430000000000044160000000044160002000000010410407041142170006693493900704218518000669   1030000100030000   541120003111777031200000031MOB BANK               YGN           MMR11007041142170006690704000000000000000   10300003 00104100000000000000000000008832     
100   9503051885952198000000000002080000000002080000200000001041040704072553000689AH1U3V0704218513000689   1030000100030000   541120003005777031200000030MOB BANK               YGN           MMR11007040725530006890704000000000000000   10300002 00104100000000000000000000004160     
100   9503051885483558000000000007640000000007640000200000001041040704042005002164FY93YB0704218510002164   1030000100030000   541110001903777031200000019MOB BANK               YGN           MMR11007040420050021640704000000000000000   10300002 00104100000000000000000000015280     
100   9503051025654571000000000006260000000006260000200000001041040704072415002167Q207K00704218513002167   1030000100030000   541110001903777031200000019MOB BANK               YGN           MMR11007040724150021670704000000000000000   10300002 00104100000000000000000000012520     
100   95031900056280210000000000030000000000030000002000000010410407031119210003046BWK8U0703218417000304   1030000100030000   541120000006777031200000002MOB BANK               YGN           MMR11007031119210003040703000000000000000   10300014 00104100000000000000000000006000     
100   9503051024190205000000000012600000000012600000200000001041040703082826000108IVA4FP0703218414000108   1030000100030000   541120002101777031200000021MOB BANK               YGN           MMR11007030828260001080703000000000000000   10300002 00104100000000000000000000025200     
100   95031900068903640000000000012000000000012000002000000010410407041057250021824MLTFF0704218517002182   1030000100030000   541110001903777031200000019MOB BANK               YGN           MMR11007041057250021820704000000000000000   10300014 00104100000000000000000000002400     
100   35710500325964860000000000019208000000019208002000000010410407041140220030205623890704218518003020   1030000100030000   541110001905777031200000019MOB BANK               YGN           MMR11007041140220030200704000000000000000   10300005 00104100000000000000000000003842     
100   35710500304744050000000000017300000000017300002000000010410407040503160004492115520704218511000449   1030000100030000   541120003013777031200000030MOB BANK               YGN           MMR11007040503160004490704000000000000000   10300005 00104100000000000000000000003460     
100   95030800042899350000000000009400000000009400002000000010410407041032090004303073010704218517000430   1030000100030000   541120003012777031200000030MOB BANK               YGN           MMR11007041032090004300704000000000000000   10300003 00104100000000000000000000001880     
100   62343302003670230000000000110000000000110000002000000010410407040514450002545871160704218511000254   1030000100030000   541120000017777031200000002MOB BANK               YGN           MMR11007040514450002540704000000000000000   10300004 00104100000000000000000000022000     
100   62622000723226680000000000031200000000031200002000000010410407040517070029955036250704218511002995   1030000100030000   541110001905777031200000019MOB BANK               YGN           MMR11007040517070029950704000000000000000   10300006 00104100000000000000000000006240     
100   35710830109603900000000000045500000000045500002000000010410407040726560021701961810704218513002170   1030000100030000   541110001903777031200000019MOB BANK               YGN           MMR11007040726560021700704000000000000000   10300003 00104100000000000000000000009100     
100   35710500121118270000000000069900000000069900002000000010410407040607200038588233390704218512003858   1030000100030000   541110001907777031200000019MOB BANK               YGN           MMR11007040607200038580704000000000000000   10300005 00104100000000000000000000013980     
