100   35710830760420180000000000014450000000014450002000000010410407051210290016492303010705218618001649   1030000100030000   581250000001777031200000005MOB BANK               YGN           MMR11007051210290016490705000000000000000   10300003 00104100000000000000000000004913     
100   95030800091392750000000000050000000000050000002000000010410407051240210039202482220705218619003920   1030000100030000   541110001907777031200000019MOB BANK               YGN           MMR11007051240210039200705000000000000000   10300003 00104100000000000000000000010000     
100   35710500323207620000000000012000000000012000002000000010410407050604570009261940070705218612000926   1030000100030000   541120003008777031200000030MOB BANK               YGN           MMR11007050604570009260705000000000000000   10300005 00104100000000000000000000002400     
100   35710500101985110000000000010000000000010000002000000010410407040458510007626782030704218511000762   1030000100030000   581210001201777031200000012MOB BANK               YGN           MMR11007040458510007620704000000000000000   10300005 00104100000000000000000000003400     
100   9503190005489911000000000008090000000008090000200000001041040704103538000763WTT8LQ0704218517000763   1030000100030000   581210001201777031200000012MOB BANK               YGN           MMR11007041035380007630704000000000000000   10300014 00104100000000000000000000027506     
100   9503051890110824000000000008550000000008550000200000001041040704121254000764KV9PBR0704218518000764   1030000100030000   581210001201777031200000012MOB BANK               YGN           MMR11007041212540007640704000000000000000   10300002 00104100000000000000000000029070     
100   9503051886732920000000000002010000000002010000200000001041040704091301001714OAKUSG0704218515001714   1030000100030000   541110001920777031200000019MOB BANK               YGN           MMR11007040913010017140704000000000000000   10300002 00104100000000000000000000004020     
100   35710500335885650000000000101200000000101200002000000010410407041254220007668478150704218519000766   1030000100030000   581210001201777031200000012MOB BANK               YGN           MMR11007041254220007660704000000000000000   10300005 00104100000000000000000000034408     
100   35710830986437020000000000128700000000128700002000000010410407041405040007675658620704218520000767   1030000100030000   581210001201777031200000012MOB BANK               YGN           MMR11007041405040007670704000000000000000   10300003 00104100000000000000000000043758     
100   950305102622794800000000000240000000000240000020000000104104070508544100390164LRVK0705218615003901   1030000100030000   541110001907777031200000019MOB BANK               YGN           MMR11007050854410039010705000000000000000   10300002 00104100000000000000000000004800     
100   35710830480783480000000000265700000000265700002000000010410407041459550007684679700704218521000768   1030000100030000   581210001201777031200000012MOB BANK               YGN           MMR11007041459550007680704000000000000000   10300003 00104100000000000000000000090338     
100   35710500381711510000000000010600000000010600002000000010410407051019320006969417110705218616000696   1030000100030000   541120003005777031200000030MOB BANK               YGN           MMR11007051019320006960705000000000000000   10300005 00104100000000000000000000002120     
100   35710900116061460000000000106500000000106500002000000010410407051221580010252371920705218618001025   1030000100030000   581210001501777031200000015MOB BANK               YGN           MMR11007051221580010250705000000000000000   10300003 00104100000000000000000000036210     
100   35710830705695110000000000055550000000055550002000000010410407050443460004379622710705218611000437   1030000100030000   541120003012777031200000030MOB BANK               YGN           MMR11007050443460004370705000000000000000   10300003 00104100000000000000000000011110     
100   9503051886341425000000000009660000000009660000200000001041040705110118000484J8GTOW0705218617000484   1030000100030000   541120003001777031200000030MOB BANK               YGN           MMR11007051101180004840705000000000000000   10300002 00104100000000000000000000019320     
100   35710900116061460000000000014500000000014500002000000010410407051243190010262500010705218619001026   1030000100030000   581210001501777031200000015MOB BANK               YGN           MMR11007051243190010260705000000000000000   10300003 00104100000000000000000000004930     
100   9503051021979931000000000001107600000001107600200000001041040705094201000694WTYLEQ0705218616000694   1030000100030000   541120003005777031200000030MOB BANK               YGN           MMR11007050942010006940705000000000000000   10300002 00104100000000000000000000002215     
100   35710830666937470000000000004500000000004500002000000010410407050703170008320459900705218613000832   1030000100030000   541120003104777031200000031MOB BANK               YGN           MMR11007050703170008320705000000000000000   10300003 00104100000000000000000000000900     
100   35710500345434940000000000132000000000132000002000000010410407050903310001256485100705218615000125   1030000100030000   541120000005777031200000002MOB BANK               YGN           MMR11007050903310001250705000000000000000   10300005 00104100000000000000000000026400     
100   9503051887669576000000000003827000000003827000200000001041040705101241000695DBGCLI0705218616000695   1030000100030000   541120003005777031200000030MOB BANK               YGN           MMR11007051012410006950705000000000000000   10300002 00104100000000000000000000007654     
100   62343301017679660000000000030200000000030200002000000010410407050403200017212007720705218610001721   1030000100030000   541110001920777031200000019MOB BANK               YGN           MMR11007050403200017210705000000000000000   10300004 00104100000000000000000000006040     
100   35710500112066930000000000013000000000013000002000000010410407050648320009286161600705218613000928   1030000100030000   541120003008777031200000030MOB BANK               YGN           MMR11007050648320009280705000000000000000   10300005 00104100000000000000000000002600     
100   35710500314414450000000000020000000000020000002000000010410407050643420022408275220705218613002240   1030000100030000   541120003106777031200000031MOB BANK               YGN           MMR11007050643420022400705000000000000000   10300005 00104100000000000000000000004000     
100   9503051021451048000000000000960000000000960000200000001041040705043501003888JNT44F0705218611003888   1030000100030000   541110001907777031200000019MOB BANK               YGN           MMR11007050435010038880705000000000000000   10300002 00104100000000000000000000001920     
100   35710500353871720000000000008771000000008771002000000010410407050836210030317194850705218615003031   1030000100030000   541110001905777031200000019MOB BANK               YGN           MMR11007050836210030310705000000000000000   10300005 00104100000000000000000000001754     
100   9503051025255759000000000003000000000003000000200000001041040705090619003904NISKWG0705218615003904   1030000100030000   541110001907777031200000019MOB BANK               YGN           MMR11007050906190039040705000000000000000   10300002 00104100000000000000000000006000     
100   9503051886756325000000000002400000000002400000200000001041040705064641001646U28J3R0705218613001646   1030000100030000   581250000001777031200000005MOB BANK               YGN           MMR11007050646410016460705000000000000000   10300002 00104100000000000000000000008160     
100   35710500395945420000000000010120000000010120002000000010410407050950520016471304020705218616001647   1030000100030000   581250000001777031200000005MOB BANK               YGN           MMR11007050950520016470705000000000000000   10300005 00104100000000000000000000003441     
100   35710830968751400000000000033880000000033880002000000010410407051100400016481884110705218617001648   1030000100030000   581250000001777031200000005MOB BANK               YGN           MMR11007051100400016480705000000000000000   10300003 00104100000000000000000000011519     
100   35710500183880980000000000046000000000046000002000000010410407051039000030352203420705218617003035   1030000100030000   541110001905777031200000019MOB BANK               YGN           MMR11007051039000030350705000000000000000   10300005 00104100000000000000000000009200     
100   35710500394246330000000000049700000000049700002000000010410407051144130030395635640705218618003039   1030000100030000   541110001905777031200000019MOB BANK               YGN           MMR11007051144130030390705000000000000000   10300005 00104100000000000000000000009940     
100   9503190007215298000000000008620000000008620000200000001041040705043801000924BF321R0705218611000924   1030000100030000   541120003008777031200000030MOB BANK               YGN           MMR11007050438010009240705000000000000000   10300014 00104100000000000000000000017240     
100   95030800091392750000000000027000000000027000002000000010410407051228320022062411410705218618002206   1030000100030000   541110001903777031200000019MOB BANK               YGN           MMR11007051228320022060705000000000000000   10300003 00104100000000000000000000005400     
100   9503051021863457000000000002850000000002850000200000001041040705124046003046AIYRNH0705218619003046   1030000100030000   541110001905777031200000019MOB BANK               YGN           MMR11007051240460030460705000000000000000   10300002 00104100000000000000000000005700     
100   9503051023070234000000000001700000000001700000200000001041040705041156002236VE4FLU0705218610002236   1030000100030000   541120003106777031200000031MOB BANK               YGN           MMR11007050411560022360705000000000000000   10300002 00104100000000000000000000003400     
