100   35710830515799190000000000003850000000003850002000000010410407061035110007050371210706218717000705   1030000100030000   541120003005777031200000030MOB BANK               YGN           MMR11007061035110007050706000000000000000   10300003 00104100000000000000000000000770     
100   62622000677345210000000000112290000000112290002000000010410407060350230018536265120706218710001853   1030000100030000   541160000001777031200000006MOB BANK               YGN           MMR11007060350230018530706000000000000000   10300006 00104100000000000000000000022458     
100   95030518924207830000000000005250000000005250002000000010410407060908020030636PQIKK0706218715003063   1030000100030000   541110001905777031200000019MOB BANK               YGN           MMR11007060908020030630706000000000000000   10300002 00104100000000000000000000001050     
100   35710500335724290000000000060600000000060600002000000010410407060458270022161317070706218711002216   1030000100030000   541110001903777031200000019MOB BANK               YGN           MMR11007060458270022160706000000000000000   10300005 00104100000000000000000000012120     
100   9503051025793981000000000008880000000008880000200000001041040706054759001855HYYOPM0706218712001855   1030000100030000   541160000001777031200000006MOB BANK               YGN           MMR11007060547590018550706000000000000000   10300002 00104100000000000000000000017760     
100   62346600173091920000000000031650000000031650002000000010410407061210430030698613200706218718003069   1030000100030000   541110001905777031200000019MOB BANK               YGN           MMR11007061210430030690706000000000000000   10300005 00104100000000000000000000006330     
100   9503051022696062000000000001150000000001150000200000001041040706092132000701JF6YKZ0706218715000701   1030000100030000   541120003005777031200000030MOB BANK               YGN           MMR11007060921320007010706000000000000000   10300002 00104100000000000000000000002300     
100   9503051021802364000000000004490000000004490000200000001041040706053159002219IV1MAJ0706218712002219   1030000100030000   541110001903777031200000019MOB BANK               YGN           MMR11007060531590022190706000000000000000   10300002 00104100000000000000000000008980     
100   9503051025794526000000000002400000000002400000200000001041040706061148002221SYEXE30706218712002221   1030000100030000   541110001903777031200000019MOB BANK               YGN           MMR11007060611480022210706000000000000000   10300002 00104100000000000000000000004800     
100   35710500385008880000000000495330000000495330002000000010410407060715530018585483910706218713001858   1030000100030000   541160000001777031200000006MOB BANK               YGN           MMR11007060715530018580706000000000000000   10300005 00104100000000000000000000099066     
100   9503190000602690000000000003960000000003960000200000001041040706095543001651I5FHCN0706218716001651   1030000100030000   581250000001777031200000005MOB BANK               YGN           MMR11007060955430016510706000000000000000   10300014 00104100000000000000000000013464     
100   35710830577208970000000000063800000000063800002000000010410407060359030023217994420706218710002321   1030000100030000   541120003117777031200000031MOB BANK               YGN           MMR11007060359030023210706000000000000000   10300003 00104100000000000000000000012760     
100   35710830577208970000000000016500000000016500002000000010410407060405180023268031920706218710002326   1030000100030000   541120003117777031200000031MOB BANK               YGN           MMR11007060405180023260706000000000000000   10300003 00104100000000000000000000003300     
100   35710500325517050000000000023500000000023500002000000010410407060643420023354009450706218713002335   1030000100030000   541120003117777031200000031MOB BANK               YGN           MMR11007060643420023350706000000000000000   10300005 00104100000000000000000000004700     
100   62622000716621550000000000005800000000005800002000000010410407060734070023385679300706218714002338   1030000100030000   541120003117777031200000031MOB BANK               YGN           MMR11007060734070023380706000000000000000   10300006 00104100000000000000000000001160     
100   9503190004227528000000000001350000000001350000200000001041040706094610000702XP18690706218716000702   1030000100030000   541120003005777031200000030MOB BANK               YGN           MMR11007060946100007020706000000000000000   10300014 00104100000000000000000000002700     
100   35710500333660120000000000011850000000011850002000000010410407061002430007030952170706218716000703   1030000100030000   541120003005777031200000030MOB BANK               YGN           MMR11007061002430007030706000000000000000   10300005 00104100000000000000000000002370     
100   95030518950509000000000000031800000000031800002000000010410407060657350022258Y5NJM0706218713002225   1030000100030000   541110001903777031200000019MOB BANK               YGN           MMR11007060657350022250706000000000000000   10300002 00104100000000000000000000006360     
100   9503051026289112000000000006050000000006050000200000001041040706123732002341C4V0X00706218719002341   1030000100030000   541120003117777031200000031MOB BANK               YGN           MMR11007061237320023410706000000000000000   10300002 00104100000000000000000000012100     
100   9503051888601164000000000003400000000003400000200000001041040706112918000945BZWZ4S0706218717000945   1030000100030000   541120003008777031200000030MOB BANK               YGN           MMR11007061129180009450706000000000000000   10300002 00104100000000000000000000006800     
100   95030518927650880000000000016500000000016500002000000010410407060845080009402AXWJN0706218715000940   1030000100030000   541120003008777031200000030MOB BANK               YGN           MMR11007060845080009400706000000000000000   10300002 00104100000000000000000000003300     
100   9503051895050900000000000001250000000001250000200000001041040706070251002226OK9ORM0706218713002226   1030000100030000   541110001903777031200000019MOB BANK               YGN           MMR11007060702510022260706000000000000000   10300002 00104100000000000000000000002500     
100   62441900102427920000000000032600000000032600002000000010410407060745210008416983030706218714000841   1030000100030000   541120003104777031200000031MOB BANK               YGN           MMR11007060745210008410706000000000000000   10300003 00104100000000000000000000011410     
100   62921400009636680000000000104000000000104000002000000010410407061428030007712222220706218720000771   1030000100030000   581210001201777031200000012MOB BANK               YGN           MMR11007061428030007710706000000000000000   10300009 00104100000000000000000000035360     
100   9503051025675410000000000001600000000001600000200000001041040705033934002317BPI2CD0705218610002317   1030000100030000   541120003117777031200000031MOB BANK               YGN           MMR11007050339340023170705000000000000000   10300002 00104100000000000000000000003200     
100   9503051886904495000000000002200000000002200000200000001041040706102635000677KASH2D0706218716000677   1030000100030000   541120003111777031200000031MOB BANK               YGN           MMR11007061026350006770706000000000000000   10300002 00104100000000000000000000004400     
100   35710500301028400000000000180000000000180000002000000010410407060233480002584582990706218709000258   1030000100030000   541120000017777031200000002MOB BANK               YGN           MMR11007060233480002580706000000000000000   10300005 00104100000000000000000000036000     
100   9503051024843365000000000002500000000002500000200000001041040706112319000497POGH2X0706218717000497   1030000100030000   541120003105777031200000031MOB BANK               YGN           MMR11007061123190004970706000000000000000   10300002 00104100000000000000000000005000     
100   9503051886904495000000000002200000000002200000200000001041040706103419000678EKNHKM0706218717000678   1030000100030000   541120003111777031200000031MOB BANK               YGN           MMR11007061034190006780706000000000000000   10300002 00104100000000000000000000004400     
100   35710500351145760000000000015500000000015500002000000010410407060425360004412202650706218710000441   1030000100030000   541120003012777031200000030MOB BANK               YGN           MMR11007060425360004410706000000000000000   10300005 00104100000000000000000000003100     
100   9503051025278322000000000002000000000002000000200000001041040706061029000491QVIHGC0706218712000491   1030000100030000   541120003105777031200000031MOB BANK               YGN           MMR11007060610290004910706000000000000000   10300002 00104100000000000000000000004000     
100   35710500345440540000000000005700000000005700002000000010410407060822280004874475310706218714000487   1030000100030000   541120003001777031200000030MOB BANK               YGN           MMR11007060822280004870706000000000000000   10300005 00104100000000000000000000001140     
100   35710830122889800000000000016500000000016500002000000010410407060820010004439560210706218714000443   1030000100030000   541120003012777031200000030MOB BANK               YGN           MMR11007060820010004430706000000000000000   10300003 00104100000000000000000000003300     
100   9503051891262020000000000001790000000001790000200000001041040706050953000674LJLL1D0706218711000674   1030000100030000   541120003111777031200000031MOB BANK               YGN           MMR11007060509530006740706000000000000000   10300002 00104100000000000000000000003580     
100   9503051025364130000000000001900000000001900000200000001041040706090138000493TUK5RV0706218715000493   1030000100030000   541120003105777031200000031MOB BANK               YGN           MMR11007060901380004930706000000000000000   10300002 00104100000000000000000000003800     
100   35710830508073110000000000033207500000033207502000000010410407061026470004880320910706218716000488   1030000100030000   541120003001777031200000030MOB BANK               YGN           MMR11007061026470004880706000000000000000   10300003 00104100000000000000000000006642     
100   9503051884794351000000000001000000000001000000200000001041040706074548000676Q4ETTQ0706218714000676   1030000100030000   541120003111777031200000031MOB BANK               YGN           MMR11007060745480006760706000000000000000   10300002 00104100000000000000000000002000     
100   35710830500543770000000000019000000000019000002000000010410407060601480004898731010706218712000489   1030000100030000   541120003105777031200000031MOB BANK               YGN           MMR11007060601480004890706000000000000000   10300003 00104100000000000000000000003800     
100   35710500383841430000000000010976000000010976002000000010410407061041490004893985690706218717000489   1030000100030000   541120003001777031200000030MOB BANK               YGN           MMR11007061041490004890706000000000000000   10300005 00104100000000000000000000002195     
100   9503051872409939000000000002200000000002200000200000001041040706094706000495MEHL360706218716000495   1030000100030000   541120003105777031200000031MOB BANK               YGN           MMR11007060947060004950706000000000000000   10300002 00104100000000000000000000004400     
100   35710500355703300000000000037900000000037900002000000010410407060853140022286408540706218715002228   1030000100030000   541110001903777031200000019MOB BANK               YGN           MMR11007060853140022280706000000000000000   10300005 00104100000000000000000000007580     
100   9503051887795058000000000003390000000003390000200000001041040706104603002230MCBXMF0706218717002230   1030000100030000   541110001903777031200000019MOB BANK               YGN           MMR11007061046030022300706000000000000000   10300002 00104100000000000000000000006780     
100   35710500394394580000000000021300000000021300002000000010410407060656410009369052240706218713000936   1030000100030000   541120003008777031200000030MOB BANK               YGN           MMR11007060656410009360706000000000000000   10300005 00104100000000000000000000004260     
100   35710830529143960000000000009550000000009550002000000010410407061006580039260202010706218716003926   1030000100030000   541110001907777031200000019MOB BANK               YGN           MMR11007061006580039260706000000000000000   10300003 00104100000000000000000000001910     
100   62921400024247500000000000019050000000019050002000000010410407060713140006992222220706218713000699   1030000100030000   541120003005777031200000030MOB BANK               YGN           MMR11007060713140006990706000000000000000   10300009 00104100000000000000000000003810     
100   62343302004114900000000000041400000000041400002000000010410407060844590007004917210706218715000700   1030000100030000   541120003005777031200000030MOB BANK               YGN           MMR11007060844590007000706000000000000000   10300004 00104100000000000000000000008280     
100   35710900116061460000000000070000000000070000002000000010410407061351420010311550310706218720001031   1030000100030000   581210001501777031200000015MOB BANK               YGN           MMR11007061351420010310706000000000000000   10300003 00104100000000000000000000023800     
100   62346600190299390000000000024700000000024700002000000010410407061206500039284451550706218718003928   1030000100030000   541110001907777031200000019MOB BANK               YGN           MMR11007061206500039280706000000000000000   10300005 00104100000000000000000000004940     
100   35710830083927960000000000012789000000012789002000000010410407061215300039300973210706218718003930   1030000100030000   541110001907777031200000019MOB BANK               YGN           MMR11007061215300039300706000000000000000   10300003 00104100000000000000000000002558     
100   62921400003726960000000000001800000000001800002000000010410407061201520008432222220706218718000843   1030000100030000   541120003104777031200000031MOB BANK               YGN           MMR11007061201520008430706000000000000000   10300009 00104100000000000000000000000360     
100   9503051023977966000000000002970000000002970000200000001041040706042756003051WK6FPO0706218710003051   1030000100030000   541110001905777031200000019MOB BANK               YGN           MMR11007060427560030510706000000000000000   10300002 00104100000000000000000000005940     
100   9503051888415573000000000003047800000003047800200000001041040706053814003055ILXXLG0706218712003055   1030000100030000   541110001905777031200000019MOB BANK               YGN           MMR11007060538140030550706000000000000000   10300002 00104100000000000000000000006096     
100   9503051888415573000000000001372000000001372000200000001041040706054020003057AYDC9C0706218712003057   1030000100030000   541110001905777031200000019MOB BANK               YGN           MMR11007060540200030570706000000000000000   10300002 00104100000000000000000000002744     
100   9503051886612403000000000000540000000000540000200000001041040706122755000679MYNWCF0706218718000679   1030000100030000   541120003111777031200000031MOB BANK               YGN           MMR11007061227550006790706000000000000000   10300002 00104100000000000000000000001080     
100   35710830508073110000000000012000000000012000002000000010410407061054220009430486410706218717000943   1030000100030000   541120003008777031200000030MOB BANK               YGN           MMR11007061054220009430706000000000000000   10300003 00104100000000000000000000002400     
100   35710830794790350000000000026800000000026800002000000010410407060313020022137718400706218709002213   1030000100030000   541110001903777031200000019MOB BANK               YGN           MMR11007060313020022130706000000000000000   10300003 00104100000000000000000000005360     
