100   35710500186083390000000000076400000000076400002000000010410407070549420039431138590707218812003943   1030000100030000   541110001907777031200000019MOB BANK               YGN           MMR11007070549420039430707000000000000000   10300005 00104100000000000000000000015280     
100   9503051893706057000000000001140000000001140000200000001041040707121530001656GJAUNW0707218818001656   1030000100030000   581250000001777031200000005MOB BANK               YGN           MMR11007071215300016560707000000000000000   10300002 00104100000000000000000000003876     
100   9503051025422920000000000003275000000003275000200000001041040707071608002249ATKBRP0707218813002249   1030000100030000   541110001903777031200000019MOB BANK               YGN           MMR11007070716080022490707000000000000000   10300002 00104100000000000000000000006550     
100   9503051025072352000000000003850000000003850000200000001041040707075129003946HD9QTX0707218814003946   1030000100030000   541110001907777031200000019MOB BANK               YGN           MMR11007070751290039460707000000000000000   10300002 00104100000000000000000000007700     
100   9503051019735865000000000002500000000002500000200000001041040707112542003951WJNZAX0707218817003951   1030000100030000   541110001907777031200000019MOB BANK               YGN           MMR11007071125420039510707000000000000000   10300002 00104100000000000000000000005000     
100   35710500304503970000000000010192000000010192002000000010410407071134380039559895580707218818003955   1030000100030000   541110001907777031200000019MOB BANK               YGN           MMR11007071134380039550707000000000000000   10300005 00104100000000000000000000002038     
100   9503051024937449000000000000455000000000455000200000001041040707033739003937XU3GMC0707218810003937   1030000100030000   541110001907777031200000019MOB BANK               YGN           MMR11007070337390039370707000000000000000   10300002 00104100000000000000000000000910     
100   9503051887217160000000000001450000000001450000200000001041040707073457002251FPKLEJ0707218814002251   1030000100030000   541110001903777031200000019MOB BANK               YGN           MMR11007070734570022510707000000000000000   10300002 00104100000000000000000000002900     
100   35710830518828670000000000028800000000028800002000000010410407071010260022538862710707218816002253   1030000100030000   541110001903777031200000019MOB BANK               YGN           MMR11007071010260022530707000000000000000   10300003 00104100000000000000000000005760     
100   9503051020018038000000000000955000000000955000200000001041040707121842003958YUTGXB0707218818003958   1030000100030000   541110001907777031200000019MOB BANK               YGN           MMR11007071218420039580707000000000000000   10300002 00104100000000000000000000001910     
100   9503190003579523000000000018420000000018420000200000001041040707052116001868UI24E70707218811001868   1030000100030000   541160000001777031200000006MOB BANK               YGN           MMR11007070521160018680707000000000000000   10300014 00104100000000000000000000036840     
100   9503051895922306000000000013452000000013452000200000001041040707082401001871XEZ4LQ0707218814001871   1030000100030000   541160000001777031200000006MOB BANK               YGN           MMR11007070824010018710707000000000000000   10300002 00104100000000000000000000026904     
100   9503190001137084000000000001080000000001080000200000001041040707124111002258BWZJL90707218819002258   1030000100030000   541110001903777031200000019MOB BANK               YGN           MMR11007071241110022580707000000000000000   10300014 00104100000000000000000000002160     
100   9503051894688171000000000002580000000002580000200000001041040707104239002256UN6MSJ0707218817002256   1030000100030000   541110001903777031200000019MOB BANK               YGN           MMR11007071042390022560707000000000000000   10300002 00104100000000000000000000005160     
100   35710500375520470000000000022000000000022000002000000010410407061140450022503998490706218718002250   1030000100030000   541120003106777031200000031MOB BANK               YGN           MMR11007061140450022500706000000000000000   10300005 00104100000000000000000000004400     
100   9503051025693611000000000023100000000023100000200000001041040706123950001862Q8BGEX0706218719001862   1030000100030000   541160000001777031200000006MOB BANK               YGN           MMR11007061239500018620706000000000000000   10300002 00104100000000000000000000046200     
100   35710830010322250000000000019500000000019500002000000010410407060514140022478445600706218711002247   1030000100030000   541120003106777031200000031MOB BANK               YGN           MMR11007060514140022470706000000000000000   10300003 00104100000000000000000000003900     
100   35710830637518600000000000379000000000379000002000000010410407070641230000817608510707218813000081   1030000100030000   541120000015777031200000002MOB BANK               YGN           MMR11007070641230000810707000000000000000   10300003 00104100000000000000000000075800     
100   9503051024864692000000000001350000000001350000200000001041040707043551000682U0EBWV0707218811000682   1030000100030000   541120003111777031200000031MOB BANK               YGN           MMR11007070435510006820707000000000000000   10300002 00104100000000000000000000002700     
100   35710500363826850000000000063500000000063500002000000010410407070448110004910001400707218811000491   1030000100030000   541120003001777031200000030MOB BANK               YGN           MMR11007070448110004910707000000000000000   10300005 00104100000000000000000000012700     
100   9503051889976292000000000000630000000000630000200000001041040707101020000709LBZTM70707218816000709   1030000100030000   541120003005777031200000030MOB BANK               YGN           MMR11007071010200007090707000000000000000   10300002 00104100000000000000000000001260     
100   9503190003821685000000000001262500000001262500200000001041040707053610000493BP90OY0707218812000493   1030000100030000   541120003001777031200000030MOB BANK               YGN           MMR11007070536100004930707000000000000000   10300014 00104100000000000000000000002525     
100   9503190003746361000000000002650000000002650000200000001041040707120148000685V9R2QL0707218818000685   1030000100030000   541120003111777031200000031MOB BANK               YGN           MMR11007071201480006850707000000000000000   10300014 00104100000000000000000000005300     
100   9503051896717309000000000003796800000003796800200000001041040707082800000456JNSWCL0707218814000456   1030000100030000   541120003012777031200000030MOB BANK               YGN           MMR11007070828000004560707000000000000000   10300002 00104100000000000000000000007594     
100   62622000640207340000000000052500000000052500002000000010410407070448060004476019140707218811000447   1030000100030000   541120003012777031200000030MOB BANK               YGN           MMR11007070448060004470707000000000000000   10300006 00104100000000000000000000010500     
100   62343301015252730000000000002200000000002200002000000010410407070508170004923921740707218811000492   1030000100030000   541120003001777031200000030MOB BANK               YGN           MMR11007070508170004920707000000000000000   10300004 00104100000000000000000000000440     
100   35710500143687060000000000039000000000039000002000000010410407071243120007733753790707218819000773   1030000100030000   581210001201777031200000012MOB BANK               YGN           MMR11007071243120007730707000000000000000   10300005 00104100000000000000000000013260     
100   35650883650002940000000000027336000000027336002000000010410407071133350007103916670707218818000710   1030000100030000   541120003005777031200000030MOB BANK               YGN           MMR11007071133350007100707000000000000000   10300005 00104100000000000000000000009568     
100   9503051895431001000000000008610000000008610000200000001041040707131904000774FI3PI90707218819000774   1030000100030000   581210001201777031200000012MOB BANK               YGN           MMR11007071319040007740707000000000000000   10300002 00104100000000000000000000029274     
100   35710830637518600000000000195600000000195600002000000010410407070624510000797509210707218812000079   1030000100030000   541120000015777031200000002MOB BANK               YGN           MMR11007070624510000790707000000000000000   10300003 00104100000000000000000000039120     
100   95030518978057640000000000025500000000025500002000000010410407070638210004505XAGIR0707218813000450   1030000100030000   541120003012777031200000030MOB BANK               YGN           MMR11007070638210004500707000000000000000   10300002 00104100000000000000000000005100     
100   9503051891978690000000000001425000000001425000200000001041040707054453000707HKYJPK0707218812000707   1030000100030000   541120003005777031200000030MOB BANK               YGN           MMR11007070544530007070707000000000000000   10300002 00104100000000000000000000002850     
100   35710830237622210000000000027500000000027500002000000010410407070755000006838050210707218814000683   1030000100030000   541120003111777031200000031MOB BANK               YGN           MMR11007070755000006830707000000000000000   10300003 00104100000000000000000000005500     
100   35710830257243510000000000008800000000008800002000000010410407070945540007088715610707218816000708   1030000100030000   541120003005777031200000030MOB BANK               YGN           MMR11007070945540007080707000000000000000   10300003 00104100000000000000000000001760     
100   95051809517647790000000000014500000000014500002000000010410407070849420006848373370707218815000684   1030000100030000   541120003111777031200000031MOB BANK               YGN           MMR11007070849420006840707000000000000000   10300013 00104100000000000000000000005075     
100   9503190003746361000000000013990000000013990000200000001041040707112652002264E6X33R0707218817002264   1030000100030000   541120003106777031200000031MOB BANK               YGN           MMR11007071126520022640707000000000000000   10300014 00104100000000000000000000027980     
100   9503190003746361000000000011500000000011500000200000001041040707113654002266F3J49U0707218818002266   1030000100030000   541120003106777031200000031MOB BANK               YGN           MMR11007071136540022660707000000000000000   10300014 00104100000000000000000000023000     
100   35710900116061460000000000004600000000004600002000000010410407071124320010349307410707218817001034   1030000100030000   581210001501777031200000015MOB BANK               YGN           MMR11007071124320010340707000000000000000   10300003 00104100000000000000000000001564     
100   62441900002324720000000000010450000000010450002000000010410407070423240016538033710707218810001653   1030000100030000   581250000001777031200000005MOB BANK               YGN           MMR11007070423240016530707000000000000000   10300003 00104100000000000000000000006218     
100   9503051890782762000000000001380000000001380000200000001041040707041716002236WYDYQL0707218810002236   1030000100030000   541110001903777031200000019MOB BANK               YGN           MMR11007070417160022360707000000000000000   10300002 00104100000000000000000000002760     
100   35710500375048320000000000012000000000012000002000000010410407070623200030756040880707218812003075   1030000100030000   541110001905777031200000019MOB BANK               YGN           MMR11007070623200030750707000000000000000   10300005 00104100000000000000000000002400     
100   35710830196969950000000000022000000000022000002000000010410407070927100016548603110707218815001654   1030000100030000   581250000001777031200000005MOB BANK               YGN           MMR11007070927100016540707000000000000000   10300003 00104100000000000000000000007480     
100   35710500334518480000000000038995550000038995552000000010410407071031110016557073240707218817001655   1030000100030000   581250000001777031200000005MOB BANK               YGN           MMR11007071031110016550707000000000000000   10300005 00104100000000000000000000013258     
100   9503051026181186000000000003680000000003680000200000001041040707072954003082WYCXYW0707218813003082   1030000100030000   541110001905777031200000019MOB BANK               YGN           MMR11007070729540030820707000000000000000   10300002 00104100000000000000000000007360     
100   9503051895206650000000000001920000000001920000200000001041040707054725002242S9DK1D0707218812002242   1030000100030000   541110001903777031200000019MOB BANK               YGN           MMR11007070547250022420707000000000000000   10300002 00104100000000000000000000003840     
100   95030201641683130000000000055200000000055200002000000010410407070332310039359159470707218810003935   1030000100030000   541110001907777031200000019MOB BANK               YGN           MMR11007070332310039350707000000000000000   10200002 00104100000000000000000000011040     
