100   35710500142606140000000000009216000000009216002000000010410407101256340017778489960710219119001777   1030000100030000   541110001920777031200000019MOB BANK               YGN           MMR11007101256340017770710000000000000000   10300005 00104100000000000000000000001843     
100   9503190000363715000000000000931000000000931000200000001041040710062527004028IEU8L60710219112004028   1030000100030000   541110001907777031200000019MOB BANK               YGN           MMR11007100625270040280710000000000000000   10300014 00104100000000000000000000001862     
100   35710950602920450000000000015000000000015000002000000010410407100907230018534404420710219115001853   1030000100030000   541110001915777031200000019MOB BANK               YGN           MMR11007100907230018530710000000000000000   10300003 00104100000000000000000000003000     
100   62921400087437080000000000020600000000020600002000000010410407100336190018382222220710219110001838   1030000100030000   541110001915777031200000019MOB BANK               YGN           MMR11007100336190018380710000000000000000   10300009 00104100000000000000000000004120     
100   9503051895839914000000000002000000000002000000200000001041040710104233001012BV107Q0710219117001012   1030000100030000   541120003008777031200000030MOB BANK               YGN           MMR11007101042330010120710000000000000000   10300002 00104100000000000000000000004000     
100   35710830147306580000000000012000000000012000002000000010410407100330070018362380810710219110001836   1030000100030000   541110001915777031200000019MOB BANK               YGN           MMR11007100330070018360710000000000000000   10300003 00104100000000000000000000002400     
100   35710500341159470000000000035500000000035500002000000010410407100529280010017798300710219111001001   1030000100030000   541120003008777031200000030MOB BANK               YGN           MMR11007100529280010010710000000000000000   10300005 00104100000000000000000000007100     
100   9503051891645398000000000004000000000004000000200000001041040710040408004008LTVPCN0710219110004008   1030000100030000   541110001907777031200000019MOB BANK               YGN           MMR11007100404080040080710000000000000000   10300002 00104100000000000000000000008000     
100   9503051023559020000000000028000000000028000000200000001041040710083459004033IC8MZW0710219115004033   1030000100030000   541110001907777031200000019MOB BANK               YGN           MMR11007100834590040330710000000000000000   10300002 00104100000000000000000000056000     
100   9503190000835423000000000002750000000002750000200000001041040710060834001842E7IO6H0710219112001842   1030000100030000   541110001915777031200000019MOB BANK               YGN           MMR11007100608340018420710000000000000000   10300014 00104100000000000000000000005500     
100   9503051023557107000000000008824900000008824900200000001041040710050737003145XL0REF0710219111003145   1030000100030000   541110001905777031200000019MOB BANK               YGN           MMR11007100507370031450710000000000000000   10300002 00104100000000000000000000017650     
100   95031900003637150000000000031262000000031262002000000010410407100631120031502PTTSL0710219113003150   1030000100030000   541110001905777031200000019MOB BANK               YGN           MMR11007100631120031500710000000000000000   10300014 00104100000000000000000000006252     
100   35710500325352450000000000006400000000006400002000000010410407100641250031531579490710219113003153   1030000100030000   541110001905777031200000019MOB BANK               YGN           MMR11007100641250031530710000000000000000   10300005 00104100000000000000000000001280     
100   62622000341442340000000000029000000000029000002000000010410407100657400031557929980710219113003155   1030000100030000   541110001905777031200000019MOB BANK               YGN           MMR11007100657400031550710000000000000000   10300006 00104100000000000000000000005800     
100   9503051872403643000000000002880000000002880000200000001041040710101616002323MPQCYO0710219116002323   1030000100030000   541110001903777031200000019MOB BANK               YGN           MMR11007101016160023230710000000000000000   10300002 00104100000000000000000000005760     
100   35710830136837590000000000003050000000003050002000000010410407101041080040364967010710219117004036   1030000100030000   541110001907777031200000019MOB BANK               YGN           MMR11007101041080040360710000000000000000   10300003 00104100000000000000000000000610     
100   9503054000505602000000000000465500000000465500200000001041040710081433003160Y59NVQ0710219114003160   1030000100030000   541110001905777031200000019MOB BANK               YGN           MMR11007100814330031600710000000000000000   10300002 00104100000000000000000000000931     
100   95030518946397110000000000019500000000019500002000000010410407100903220017733MCDVI0710219115001773   1030000100030000   541110001920777031200000019MOB BANK               YGN           MMR11007100903220017730710000000000000000   10300002 00104100000000000000000000003900     
100   9503190000855363000000000001190000000001190000200000001041040710090956001855WKD2RT0710219115001855   1030000100030000   541110001915777031200000019MOB BANK               YGN           MMR11007100909560018550710000000000000000   10300014 00104100000000000000000000002380     
100   9503051023557107000000000001724800000001724800200000001041040710041943004014RK5IJL0710219110004014   1030000100030000   541110001907777031200000019MOB BANK               YGN           MMR11007100419430040140710000000000000000   10300002 00104100000000000000000000003450     
100   9503051022704247000000000002700000000002700000200000001041040710032349000996RNDMBW0710219109000996   1030000100030000   541120003008777031200000030MOB BANK               YGN           MMR11007100323490009960710000000000000000   10300002 00104100000000000000000000005400     
100   35710500325352450000000000018000000000018000002000000010410407100653500018447583690710219113001844   1030000100030000   541110001915777031200000019MOB BANK               YGN           MMR11007100653500018440710000000000000000   10300005 00104100000000000000000000003600     
100   62921400041272110000000000027500000000027500002000000010410407100429290040162222220710219110004016   1030000100030000   541110001907777031200000019MOB BANK               YGN           MMR11007100429290040160710000000000000000   10300009 00104100000000000000000000005500     
100   9503051895976781000000000002330000000002330000200000001041040710101143003165LC6IMJ0710219116003165   1030000100030000   541110001905777031200000019MOB BANK               YGN           MMR11007101011430031650710000000000000000   10300002 00104100000000000000000000004660     
100   9503051895976781000000000001960000000001960000200000001041040710102354003168CEG2ED0710219116003168   1030000100030000   541110001905777031200000019MOB BANK               YGN           MMR11007101023540031680710000000000000000   10300002 00104100000000000000000000003920     
100   35710500384360750000000000022800000000022800002000000010410407101145170023252505640710219118002325   1030000100030000   541110001903777031200000019MOB BANK               YGN           MMR11007101145170023250710000000000000000   10300005 00104100000000000000000000004560     
100   62441900102293360000000000028800000000028800002000000010410407101216470023278946720710219118002327   1030000100030000   541110001903777031200000019MOB BANK               YGN           MMR11007101216470023270710000000000000000   10300003 00104100000000000000000000010080     
100   35710500384360750000000000026148000000026148002000000010410407101136340040383917780710219118004038   1030000100030000   541110001907777031200000019MOB BANK               YGN           MMR11007101136340040380710000000000000000   10300005 00104100000000000000000000005230     
100   35710500142606140000000000006174000000006174002000000010410407101248210040418879790710219119004041   1030000100030000   541110001907777031200000019MOB BANK               YGN           MMR11007101248210040410710000000000000000   10300005 00104100000000000000000000001235     
100   35710830652211690000000000013350000000013350002000000010410407101040560031724965710710219117003172   1030000100030000   541110001905777031200000019MOB BANK               YGN           MMR11007101040560031720710000000000000000   10300003 00104100000000000000000000002670     
100   950305102442200400000000000598000000000598000020000000104104071006343200100308QLI70710219113001003   1030000100030000   541120003008777031200000030MOB BANK               YGN           MMR11007100634320010030710000000000000000   10300002 00104100000000000000000000011960     
100   9503051895976781000000000001110000000001110000200000001041040710091258001857AXJHUW0710219115001857   1030000100030000   541110001915777031200000019MOB BANK               YGN           MMR11007100912580018570710000000000000000   10300002 00104100000000000000000000002220     
100   9503051872600446000000000002240000000002240000200000001041040710051902004019EHYBD20710219111004019   1030000100030000   541110001907777031200000019MOB BANK               YGN           MMR11007100519020040190710000000000000000   10300002 00104100000000000000000000004480     
100   95031900021940920000000000023000000000023000002000000010410407091036200039883Y6AAY0709219017003988   1030000100030000   541110001907777031200000019MOB BANK               YGN           MMR11007091036200039880709000000000000000   10300014 00104100000000000000000000004600     
100   9503051025564440000000000002670000000002670000200000001041040709111238003991H7EPK40709219017003991   1030000100030000   541110001907777031200000019MOB BANK               YGN           MMR11007091112380039910709000000000000000   10300002 00104100000000000000000000005340     
100   95030510241910470000000000022550000000022550002000000010410407090810170031149USRRS0709219014003114   1030000100030000   541110001905777031200000019MOB BANK               YGN           MMR11007090810170031140709000000000000000   10300002 00104100000000000000000000004510     
100   9503051025476280000000000004380600000004380600200000001041040709113740003995K8W6WJ0709219018003995   1030000100030000   541110001907777031200000019MOB BANK               YGN           MMR11007091137400039950709000000000000000   10300002 00104100000000000000000000008761     
100   35710830944695160000000000047040000000047040002000000010410407090853350031165681710709219015003116   1030000100030000   541110001905777031200000019MOB BANK               YGN           MMR11007090853350031160709000000000000000   10300003 00104100000000000000000000009408     
100   9503051020591026000000000003870000000003870000200000001041040709095236003123QEWMUO0709219016003123   1030000100030000   541110001905777031200000019MOB BANK               YGN           MMR11007090952360031230709000000000000000   10300002 00104100000000000000000000007740     
100   35710830828382840000000000037436000000037436002000000010410407091056310031356419210709219017003135   1030000100030000   541110001905777031200000019MOB BANK               YGN           MMR11007091056310031350709000000000000000   10300003 00104100000000000000000000007487     
100   9503051024931871000000000013570000000013570000200000001041040709112406003137MK21J20709219017003137   1030000100030000   541110001905777031200000019MOB BANK               YGN           MMR11007091124060031370709000000000000000   10300002 00104100000000000000000000027140     
100   35710830627187610000000000023200000000023200002000000010410407091152110040016753210709219018004001   1030000100030000   541110001907777031200000019MOB BANK               YGN           MMR11007091152110040010709000000000000000   10300003 00104100000000000000000000004640     
100   95030800087954730000000000016268000000016268002000000010410407090558010039724628300709219012003972   1030000100030000   541110001907777031200000019MOB BANK               YGN           MMR11007090558010039720709000000000000000   10300003 00104100000000000000000000003254     
100   9503051887948962000000000000960000000000960000200000001041040709123135004004MPFAYI0709219019004004   1030000100030000   541110001907777031200000019MOB BANK               YGN           MMR11007091231350040040709000000000000000   10300002 00104100000000000000000000001920     
100   35710500355666190000000000015650000000015650002000000010410407090855290039831457200709219015003983   1030000100030000   541110001907777031200000019MOB BANK               YGN           MMR11007090855290039830709000000000000000   10300005 00104100000000000000000000003130     
100   35710830431061280000000000013500000000013500002000000010410407090710210017505062300709219013001750   1030000100030000   541110001920777031200000019MOB BANK               YGN           MMR11007090710210017500709000000000000000   10300003 00104100000000000000000000002700     
100   35710500163874310000000000022700000000022700002000000010410407090551080031106770820709219012003110   1030000100030000   541110001905777031200000019MOB BANK               YGN           MMR11007090551080031100709000000000000000   10300005 00104100000000000000000000004540     
100   9503051019771480000000000000670000000000670000200000001041040709073613003112YBOC1L0709219014003112   1030000100030000   541110001905777031200000019MOB BANK               YGN           MMR11007090736130031120709000000000000000   10300002 00104100000000000000000000001340     
100   35710830908908550000000000018000000000018000002000000010410407100748500031583933130710219114003158   1030000100030000   541110001905777031200000019MOB BANK               YGN           MMR11007100748500031580710000000000000000   10300003 00104100000000000000000000003600     
100   9503051886454434000000000000490000000000490000200000001041040709062520003975PEUEOM0709219012003975   1030000100030000   541110001907777031200000019MOB BANK               YGN           MMR11007090625200039750709000000000000000   10300002 00104100000000000000000000000980     
100   9503051019771480000000000003030000000003030000200000001041040709073040003979UNG0OO0709219014003979   1030000100030000   541110001907777031200000019MOB BANK               YGN           MMR11007090730400039790709000000000000000   10300002 00104100000000000000000000006060     
100   9503190002194092000000000006688500000006688500200000001041040709113155003140YEU0R40709219018003140   1030000100030000   541110001905777031200000019MOB BANK               YGN           MMR11007091131550031400709000000000000000   10300014 00104100000000000000000000013377     
100   9503051887010110000000000001176000000001176000200000001041040709102845003985GXJSUW0709219016003985   1030000100030000   541110001907777031200000019MOB BANK               YGN           MMR11007091028450039850709000000000000000   10300002 00104100000000000000000000002352     
100   62346600138831660000000000024000000000024000002000000010410407101145140008734158120710219118000873   1030000100030000   541120003104777031200000031MOB BANK               YGN           MMR11007101145140008730710000000000000000   10300005 00104100000000000000000000004800     
100   95030510209724160000000000250500000000250500002000000010410407100506440000927JMJL90710219111000092   1030000100030000   541120000015777031200000002MOB BANK               YGN           MMR11007100506440000920710000000000000000   10300002 00104100000000000000000000050100     
100   35710500305398010000000000015500000000015500002000000010410407100823160006988819680710219114000698   1030000100030000   541120003111777031200000031MOB BANK               YGN           MMR11007100823160006980710000000000000000   10300005 00104100000000000000000000003100     
100   950305102090344500000000000055000000000055000020000000104104071005111000086775GE2W0710219111000867   1030000100030000   541120003104777031200000031MOB BANK               YGN           MMR11007100511100008670710000000000000000   10300002 00104100000000000000000000001100     
100   35710500334794270000000000023000000000023000002000000010410407100737580003839942080710219114000383   1030000100030000   541110001917777031200000019MOB BANK               YGN           MMR11007100737580003830710000000000000000   10300005 00104100000000000000000000004600     
100   9503051892039229000000000000500000000000500000200000001041040710085709000699VZDHEN0710219115000699   1030000100030000   541120003111777031200000031MOB BANK               YGN           MMR11007100857090006990710000000000000000   10300002 00104100000000000000000000001000     
100   9503051872455403000000000000950000000000950000200000001041040710092154000964LTJMSD0710219115000964   1030000100030000   541120003103777031200000031MOB BANK               YGN           MMR11007100921540009640710000000000000000   10300002 00104100000000000000000000001900     
100   35710830794955930000000000105500000000105500002000000010410407100753110001313959210710219114000131   1030000100030000   541120000010777031200000002MOB BANK               YGN           MMR11007100753110001310710000000000000000   10300003 00104100000000000000000000021100     
100   9503051894202007000000000000850000000000850000200000001041040710115721000875ZJZ4XW0710219118000875   1030000100030000   541120003104777031200000031MOB BANK               YGN           MMR11007101157210008750710000000000000000   10300002 00104100000000000000000000001700     
100   35710500395818120000000000081200000000081200002000000010410407100343380002659064310710219110000265   1030000100030000   541120000017777031200000002MOB BANK               YGN           MMR11007100343380002650710000000000000000   10300005 00104100000000000000000000016240     
100   35710830604468860000000000008450000000008450002000000010410407100725130008693791410710219113000869   1030000100030000   541120003104777031200000031MOB BANK               YGN           MMR11007100725130008690710000000000000000   10300003 00104100000000000000000000001690     
100   9503051026662904000000000005500000000005500000200000001041040710051543000115CI0HYS0710219111000115   1030000100030000   541120000018777031200000002MOB BANK               YGN           MMR11007100515430001150710000000000000000   10300002 00104100000000000000000000011000     
100   35710500345395670000000000023000000000023000002000000010410407101047220000977824130710219117000097   1030000100030000   541120000015777031200000002MOB BANK               YGN           MMR11007101047220000970710000000000000000   10300005 00104100000000000000000000004600     
100   35710500370440370000000000023000000000023000002000000010410407100733570004682154590710219114000468   1030000100030000   541120003013777031200000030MOB BANK               YGN           MMR11007100733570004680710000000000000000   10300005 00104100000000000000000000004600     
100   35710500380961270000000000012500000000012500002000000010410407100656440003794814500710219113000379   1030000100030000   541110001917777031200000019MOB BANK               YGN           MMR11007100656440003790710000000000000000   10300005 00104100000000000000000000002500     
100   35710500101079260000000000044160000000044160002000000010410407100833100003851685380710219115000385   1030000100030000   541110001917777031200000019MOB BANK               YGN           MMR11007100833100003850710000000000000000   10300005 00104100000000000000000000008832     
100   35710500381711510000000000021800000000021800002000000010410407101023230007233270300710219116000723   1030000100030000   541120003005777031200000030MOB BANK               YGN           MMR11007101023230007230710000000000000000   10300005 00104100000000000000000000004360     
100   62346600161429820000000000145000000000145000002000000010410407100416030002663614470710219110000266   1030000100030000   541120000017777031200000002MOB BANK               YGN           MMR11007100416030002660710000000000000000   10300005 00104100000000000000000000029000     
100   9503190000478935000000000003360000000003360000200000001041040710084343001006U9FB0P0710219115001006   1030000100030000   541120003008777031200000030MOB BANK               YGN           MMR11007100843430010060710000000000000000   10300014 00104100000000000000000000006720     
100   9503051897741019000000000001100000000001100000200000001041040710091404000503PD6ETJ0710219115000503   1030000100030000   541120003001777031200000030MOB BANK               YGN           MMR11007100914040005030710000000000000000   10300002 00104100000000000000000000002200     
100   9503051873585521000000000000860000000000860000200000001041040710120225000877QZYPHU0710219118000877   1030000100030000   541120003104777031200000031MOB BANK               YGN           MMR11007101202250008770710000000000000000   10300002 00104100000000000000000000001720     
100   35710830229639450000000000016282000000016282002000000010410407101055340004695053530710219117000469   1030000100030000   541120003013777031200000030MOB BANK               YGN           MMR11007101055340004690710000000000000000   10300003 00104100000000000000000000003256     
100   9503051891148914000000000000980000000000980000200000001041040710094944000871O2TKS10710219116000871   1030000100030000   541120003104777031200000031MOB BANK               YGN           MMR11007100949440008710710000000000000000   10300002 00104100000000000000000000001960     
100   9503051897404360000000000002900000000002900000200000001041040710065856000010AYRJXR0710219113000010   1030000100030000   541110900005777030900000004MOB BANK               YGN           MMR11007100658560000100710000000000000000   10300002 00104100000000000000000000005800     
100   35710500384360750000000000017000000000017000002000000010410407101110520003876605200710219117000387   1030000100030000   541110001917777031200000019MOB BANK               YGN           MMR11007101110520003870710000000000000000   10300005 00104100000000000000000000003400     
100   9503051892039229000000000001790000000001790000200000001041040710093018000966JA8IFH0710219116000966   1030000100030000   541120003103777031200000031MOB BANK               YGN           MMR11007100930180009660710000000000000000   10300002 00104100000000000000000000003580     
100   35710950281821970000000000006800000000006800002000000010410407100945510010084635220710219116001008   1030000100030000   541120003008777031200000030MOB BANK               YGN           MMR11007100945510010080710000000000000000   10300003 00104100000000000000000000001360     
100   9503051894774260000000000002000000000002000000200000001041040710040712000501OF1UNO0710219110000501   1030000100030000   541120003001777031200000030MOB BANK               YGN           MMR11007100407120005010710000000000000000   10300002 00104100000000000000000000004000     
100   62921400018168650000000000008450000000008450002000000010410407100955560005042222220710219116000504   1030000100030000   541120003001777031200000030MOB BANK               YGN           MMR11007100955560005040710000000000000000   10300009 00104100000000000000000000001690     
100   9503051886196464000000000000395000000000395000200000001041040710120423000878ZHYZ880710219118000878   1030000100030000   541120003104777031200000031MOB BANK               YGN           MMR11007101204230008780710000000000000000   10300002 00104100000000000000000000000790     
100   35710500163940720000000000055000000000055000002000000010410407100759400000950310050710219114000095   1030000100030000   541120000015777031200000002MOB BANK               YGN           MMR11007100759400000950710000000000000000   10300005 00104100000000000000000000011000     
100   9503190000363715000000000002448000000002448000200000001041040710070738000381L3JV1M0710219113000381   1030000100030000   541110001917777031200000019MOB BANK               YGN           MMR11007100707380003810710000000000000000   10300014 00104100000000000000000000004896     
100   9503190006738795000000000000850000000000850000200000001041040710104110000135R4O4G20710219117000135   1030000100030000   541120000010777031200000002MOB BANK               YGN           MMR11007101041100001350710000000000000000   10300014 00104100000000000000000000001700     
100   9503051897974529000000000002440000000002440000200000001041040710041913000697LHGGAK0710219110000697   1030000100030000   541120003111777031200000031MOB BANK               YGN           MMR11007100419130006970710000000000000000   10300002 00104100000000000000000000004880     
100   9503051021948043000000000027200000000027200000200000001041040710082623000133QDLRHH0710219114000133   1030000100030000   541120000010777031200000002MOB BANK               YGN           MMR11007100826230001330710000000000000000   10300002 00104100000000000000000000054400     
100   35710500370440370000000000003350000000003350002000000010410407100741160005026162190710219114000502   1030000100030000   541120003001777031200000030MOB BANK               YGN           MMR11007100741160005020710000000000000000   10300005 00104100000000000000000000000670     
100   62444500200544090000000000022000000000022000002000000010410407100803490009628985900710219114000962   1030000100030000   541120003103777031200000031MOB BANK               YGN           MMR11007100803490009620710000000000000000   10300002 00104100000000000000000000007700     
100   95030800067618400000000000017000000000017000002000000010410407100601190017673288120710219112001767   1030000100030000   541110001920777031200000019MOB BANK               YGN           MMR11007100601190017670710000000000000000   10300003 00104100000000000000000000003400     
100   35710830460302750000000000009163000000009163002000000010410407101114120031775165400710219117003177   1030000100030000   541110001905777031200000019MOB BANK               YGN           MMR11007101114120031770710000000000000000   10300003 00104100000000000000000000001833     
100   9503051024478527000000000003542400000003542400200000001041040710052943001761WBCGCU0710219111001761   1030000100030000   541110001920777031200000019MOB BANK               YGN           MMR11007100529430017610710000000000000000   10300002 00104100000000000000000000007085     
100   62441900002078210000000000004848000000004848002000000010410407100819300018499881410710219114001849   1030000100030000   541110001915777031200000019MOB BANK               YGN           MMR11007100819300018490710000000000000000   10300003 00104100000000000000000000001697     
100   35710500304291690000000000012600000000012600002000000010410407101024350010101107230710219116001010   1030000100030000   541120003008777031200000030MOB BANK               YGN           MMR11007101024350010100710000000000000000   10300005 00104100000000000000000000002520     
100   9503051024498277000000000001300000000001300000200000001041040710055014002293JMMXFO0710219112002293   1030000100030000   541120003106777031200000031MOB BANK               YGN           MMR11007100550140022930710000000000000000   10300002 00104100000000000000000000002600     
100   35710500304111910000000000018000000000018000002000000010410407100456290023038536590710219111002303   1030000100030000   541110001903777031200000019MOB BANK               YGN           MMR11007100456290023030710000000000000000   10300005 00104100000000000000000000003600     
100   35710500304111910000000000044500000000044500002000000010410407100536520040242621210710219112004024   1030000100030000   541110001907777031200000019MOB BANK               YGN           MMR11007100536520040240710000000000000000   10300005 00104100000000000000000000008900     
100   35710500375890230000000000015895000000015895002000000010410407100450450016655857240710219111001665   1030000100030000   581250000001777031200000005MOB BANK               YGN           MMR11007100450450016650710000000000000000   10300005 00104100000000000000000000005404     
100   35710500133744320000000000008195000000008195002000000010410407101237290016660902590710219119001666   1030000100030000   581250000001777031200000005MOB BANK               YGN           MMR11007101237290016660710000000000000000   10300005 00104100000000000000000000002786     
100   35710830970515430000000000007000000000007000002000000010410407100848130018514289500710219115001851   1030000100030000   541110001915777031200000019MOB BANK               YGN           MMR11007100848130018510710000000000000000   10300003 00104100000000000000000000001400     
