100   9503051890766435000000000001970000000001970000200000001041040709041747001785OQMIW20709219010001785   1030000100030000   541110001915777031200000019MOB BANK               YGN           MMR11007090417470017850709000000000000000   10300002 00104100000000000000000000003940     
100   9503051025564440000000000001570000000001570000200000001041040709101109001818RU0DG20709219016001818   1030000100030000   541110001915777031200000019MOB BANK               YGN           MMR11007091011090018180709000000000000000   10300002 00104100000000000000000000003140     
100   9503051024088318000000000002140000000002140000200000001041040709083510002386S4WHWD0709219015002386   1030000100030000   541120003117777031200000031MOB BANK               YGN           MMR11007090835100023860709000000000000000   10300002 00104100000000000000000000004280     
100   35710830606249530000000000019750000000019750002000000010410407091003530018166103420709219016001816   1030000100030000   541110001915777031200000019MOB BANK               YGN           MMR11007091003530018160709000000000000000   10300003 00104100000000000000000000003950     
100   9503051026534517000000000003470000000003470000200000001041040709105206001827ZVQKUI0709219017001827   1030000100030000   541110001915777031200000019MOB BANK               YGN           MMR11007091052060018270709000000000000000   10300002 00104100000000000000000000006940     
100   35710500345806290000000000009800000000009800002000000010410407090925280023899293870709219015002389   1030000100030000   541120003117777031200000031MOB BANK               YGN           MMR11007090925280023890709000000000000000   10300005 00104100000000000000000000001960     
100   35710830977486350000000000037900000000037900002000000010410407090428240022754090610709219010002275   1030000100030000   541120003106777031200000031MOB BANK               YGN           MMR11007090428240022750709000000000000000   10300003 00104100000000000000000000007580     
100   35710500184616140000000000022800000000022800002000000010410407090440030022769013860709219011002276   1030000100030000   541110001903777031200000019MOB BANK               YGN           MMR11007090440030022760709000000000000000   10300005 00104100000000000000000000004560     
100   35710500331241630000000000028800000000028800002000000010410407090832180022887457920709219015002288   1030000100030000   541110001903777031200000019MOB BANK               YGN           MMR11007090832180022880709000000000000000   10300005 00104100000000000000000000005760     
100   9503051025196532000000000006960000000006960000200000001041040709074208001800KH43VI0709219014001800   1030000100030000   541110001915777031200000019MOB BANK               YGN           MMR11007090742080018000709000000000000000   10300002 00104100000000000000000000013920     
100   35710500150842600000000000029800000000029800002000000010410407090522250023778988640709219011002377   1030000100030000   541120003117777031200000031MOB BANK               YGN           MMR11007090522250023770709000000000000000   10300005 00104100000000000000000000005960     
100   9503051872768151000000000001094400000001094400200000001041040709070215001791VYKNI60709219013001791   1030000100030000   541110001915777031200000019MOB BANK               YGN           MMR11007090702150017910709000000000000000   10300002 00104100000000000000000000002189     
100   35710500394751970000000000024500000000024500002000000010410407090758310018023978020709219014001802   1030000100030000   541110001915777031200000019MOB BANK               YGN           MMR11007090758310018020709000000000000000   10300005 00104100000000000000000000004900     
100   9503051023381268000000000003550000000003550000200000001041040709055420002279PGJDJ00709219012002279   1030000100030000   541120003106777031200000031MOB BANK               YGN           MMR11007090554200022790709000000000000000   10300002 00104100000000000000000000007100     
100   35710500323983050000000000055500000000055500002000000010410407090842510022902505940709219015002290   1030000100030000   541110001903777031200000019MOB BANK               YGN           MMR11007090842510022900709000000000000000   10300005 00104100000000000000000000011100     
100   35710500136189030000000000018450000000018450002000000010410407090830080018099442690709219015001809   1030000100030000   541110001915777031200000019MOB BANK               YGN           MMR11007090830080018090709000000000000000   10300005 00104100000000000000000000003690     
100   9503051019771480000000000003360000000003360000200000001041040709070913001793BC5TND0709219013001793   1030000100030000   541110001915777031200000019MOB BANK               YGN           MMR11007090709130017930709000000000000000   10300002 00104100000000000000000000006720     
100   95030800016104300000000000015456000000015456002000000010410407090730060017955180720709219014001795   1030000100030000   541110001915777031200000019MOB BANK               YGN           MMR11007090730060017950709000000000000000   10300003 00104100000000000000000000003091     
100   35710500343696270000000000017900000000017900002000000010410407090534200023802822740709219012002380   1030000100030000   541120003117777031200000031MOB BANK               YGN           MMR11007090534200023800709000000000000000   10300005 00104100000000000000000000003580     
100   35710500196516190000000000055500000000055500002000000010410407090525570022807857210709219011002280   1030000100030000   541110001903777031200000019MOB BANK               YGN           MMR11007090525570022800709000000000000000   10300005 00104100000000000000000000011100     
100   62343302009816900000000000012100000000012100002000000010410407090941440016614809270709219016001661   1030000100030000   581250000001777031200000005MOB BANK               YGN           MMR11007090941440016610709000000000000000   10300004 00104100000000000000000000004114     
100   9503051026364428000000000010500000000010500000200000001041040709043357001885TYVGOU0709219011001885   1030000100030000   541160000001777031200000006MOB BANK               YGN           MMR11007090433570018850709000000000000000   10300002 00104100000000000000000000021000     
100   9503051024322576000000000001400000000001400000200000001041040709080605001804TFAZEK0709219014001804   1030000100030000   541110001915777031200000019MOB BANK               YGN           MMR11007090806050018040709000000000000000   10300002 00104100000000000000000000002800     
100   9503051025564440000000000063800000000063800000200000001041040709110005002292FGK5FT0709219017002292   1030000100030000   541110001903777031200000019MOB BANK               YGN           MMR11007091100050022920709000000000000000   10300002 00104100000000000000000000127600     
100   9503051023297092000000000002500000000002500000200000001041040709110253002294WWJBRT0709219017002294   1030000100030000   541110001903777031200000019MOB BANK               YGN           MMR11007091102530022940709000000000000000   10300002 00104100000000000000000000005000     
100   62921400007436800000000000003400000000003400002000000010410407090911030018122222220709219015001812   1030000100030000   541110001915777031200000019MOB BANK               YGN           MMR11007090911030018120709000000000000000   10300009 00104100000000000000000000000680     
100   35710500115520130000000000051600000000051600002000000010410407090551310018876195500709219012001887   1030000100030000   541160000001777031200000006MOB BANK               YGN           MMR11007090551310018870709000000000000000   10300005 00104100000000000000000000010320     
100   35710900936553750000000000122400000000122400002000000010410407090617170018914743810709219012001891   1030000100030000   541160000001777031200000006MOB BANK               YGN           MMR11007090617170018910709000000000000000   10300003 00104100000000000000000000024480     
100   95030800010970590000000000033800000000033800002000000010410407090728010022845168400709219013002284   1030000100030000   541110001903777031200000019MOB BANK               YGN           MMR11007090728010022840709000000000000000   10300003 00104100000000000000000000006760     
100   95030518869225880000000000018130000000018130002000000010410407090844280009878X73UI0709219015000987   1030000100030000   541120003008777031200000030MOB BANK               YGN           MMR11007090844280009870709000000000000000   10300002 00104100000000000000000000003626     
100   35710830196969950000000000022275550000022275552000000010410407091109100016626495210709219017001662   1030000100030000   581250000001777031200000005MOB BANK               YGN           MMR11007091109100016620709000000000000000   10300003 00104100000000000000000000007574     
100   9503051888914401000000000000675000000000675000200000001041040709114120001663KIFV0X0709219018001663   1030000100030000   581250000001777031200000005MOB BANK               YGN           MMR11007091141200016630709000000000000000   10300002 00104100000000000000000000002295     
100   35710830802098680000000000100000000000100000002000000010410407090815460018935454800709219014001893   1030000100030000   541160000001777031200000006MOB BANK               YGN           MMR11007090815460018930709000000000000000   10300003 00104100000000000000000000020000     
100   35710830104933010000000000020250000000020250002000000010410407090408150017833969700709219010001783   1030000100030000   541110001915777031200000019MOB BANK               YGN           MMR11007090408150017830709000000000000000   10300003 00104100000000000000000000004050     
100   35710900305304670000000000020100000000020100002000000010410407090817420018065466320709219014001806   1030000100030000   541110001915777031200000019MOB BANK               YGN           MMR11007090817420018060709000000000000000   10300003 00104100000000000000000000004020     
100   62441900003458110000000000015700000000015700002000000010410407090730350023833707790709219014002383   1030000100030000   541120003117777031200000031MOB BANK               YGN           MMR11007090730350023830709000000000000000   10300003 00104100000000000000000000005495     
100   9503190006742813000000000002880000000002880000200000001041040709113631002296C0E54J0709219018002296   1030000100030000   541110001903777031200000019MOB BANK               YGN           MMR11007091136310022960709000000000000000   10300014 00104100000000000000000000005760     
100   35710500335919160000000000004992000000004992002000000010410407090933200018146194750709219016001814   1030000100030000   541110001915777031200000019MOB BANK               YGN           MMR11007090933200018140709000000000000000   10300005 00104100000000000000000000000998     
100   35710500363736680000000000032500000000032500002000000010410407090733490017978843440709219014001797   1030000100030000   541110001915777031200000019MOB BANK               YGN           MMR11007090733490017970709000000000000000   10300005 00104100000000000000000000006500     
100   9503051025492600000000000012240000000012240000200000001041040709085006001895GZQL2B0709219015001895   1030000100030000   541160000001777031200000006MOB BANK               YGN           MMR11007090850060018950709000000000000000   10300002 00104100000000000000000000024480     
100   9503051886944558000000000002400000000002400000200000001041040709081105002286QKRLEF0709219014002286   1030000100030000   541110001903777031200000019MOB BANK               YGN           MMR11007090811050022860709000000000000000   10300002 00104100000000000000000000004800     
100   35710500154068850000000000062900000000062900002000000010410407090619500017884712190709219012001788   1030000100030000   541110001915777031200000019MOB BANK               YGN           MMR11007090619500017880709000000000000000   10300005 00104100000000000000000000012580     
100   35710830312409470000000000058800000000058800002000000010410407090434410022744128300709219011002274   1030000100030000   541110001903777031200000019MOB BANK               YGN           MMR11007090434410022740709000000000000000   10300003 00104100000000000000000000011760     
100   9503051025598414000000000034890000000034890000200000001041040708130005000777GPV23P0708218919000777   1030000100030000   581210001201777031200000012MOB BANK               YGN           MMR11007081300050007770708000000000000000   10300002 00104100000000000000000000118626     
100   9503051023557404000000000002370000000002370000200000001041040708051045001771HRQVXD0708218911001771   1030000100030000   541110001915777031200000019MOB BANK               YGN           MMR11007080510450017710708000000000000000   10300002 00104100000000000000000000004740     
100   35710500163874310000000000300000000000300000002000000010410407090613190022823295510709219012002282   1030000100030000   541110001903777031200000019MOB BANK               YGN           MMR11007090613190022820709000000000000000   10300005 00104100000000000000000000060000     
100   9503190005805330000000000002400000000002400000200000001041040708045731003962Q39YY90708218911003962   1030000100030000   541110001907777031200000019MOB BANK               YGN           MMR11007080457310039620708000000000000000   10300014 00104100000000000000000000004800     
100   9503051020186678000000000015100000000015100000200000001041040708120335000469EJGBTM0708218918000469   1030000100030000   541120000011777031200000002MOB BANK               YGN           MMR11007081203350004690708000000000000000   10300002 00104100000000000000000000030200     
100   9503190003163591000000000035000000000035000000200000001041040708131114000778AEA0KD0708218919000778   1030000100030000   581210001201777031200000012MOB BANK               YGN           MMR11007081311140007780708000000000000000   10300014 00104100000000000000000000119000     
100   9503051024477537000000000002280000000002280000200000001041040708065351001774EP0RGK0708218913001774   1030000100030000   541110001915777031200000019MOB BANK               YGN           MMR11007080653510017740708000000000000000   10300002 00104100000000000000000000004560     
100   9503051873605972000000000001560000000001560000200000001041040708041812002264HWJISL0708218910002264   1030000100030000   541110001903777031200000019MOB BANK               YGN           MMR11007080418120022640708000000000000000   10300002 00104100000000000000000000003120     
100   35710500345695980000000000014500000000014500002000000010410407080654120022689265840708218913002268   1030000100030000   541110001903777031200000019MOB BANK               YGN           MMR11007080654120022680708000000000000000   10300005 00104100000000000000000000002900     
100   95030510204793050000000000024650000000024650002000000010410407080320170030964GJKOO0708218909003096   1030000100030000   541110001905777031200000019MOB BANK               YGN           MMR11007080320170030960708000000000000000   10300002 00104100000000000000000000004930     
100   9503051872410127000000000003185000000003185000200000001041040708034107003100AS8ZZS0708218910003100   1030000100030000   541110001905777031200000019MOB BANK               YGN           MMR11007080341070031000708000000000000000   10300002 00104100000000000000000000006370     
100   35710830803262410000000000275000000000275000002000000010410407090805400001325394120709219014000132   1030000100030000   541120000005777031200000002MOB BANK               YGN           MMR11007090805400001320709000000000000000   10300003 00104100000000000000000000055000     
100   95030510201617130000000000024500000000024500002000000010410407091046120005058ORRWS0709219017000505   1030000100030000   541120003105777031200000031MOB BANK               YGN           MMR11007091046120005050709000000000000000   10300002 00104100000000000000000000004900     
100   35710500311399730000000000014500000000014500002000000010410407090848510004635605060709219015000463   1030000100030000   541120003013777031200000030MOB BANK               YGN           MMR11007090848510004630709000000000000000   10300005 00104100000000000000000000002900     
100   95030518869225880000000000021600000000021600002000000010410407090902440004644FFXXD0709219015000464   1030000100030000   541120003013777031200000030MOB BANK               YGN           MMR11007090902440004640709000000000000000   10300002 00104100000000000000000000004320     
100   9503051886512868000000000001455300000001455300200000001041040709085537000716T1LLQR0709219015000716   1030000100030000   541120003005777031200000030MOB BANK               YGN           MMR11007090855370007160709000000000000000   10300002 00104100000000000000000000002911     
100   35710830210748680000000000054400000000054400002000000010410407090755140006935331610709219014000693   1030000100030000   541120003111777031200000031MOB BANK               YGN           MMR11007090755140006930709000000000000000   10300003 00104100000000000000000000010880     
100   9503051896071863000000000002750000000002750000200000001041040709050920000501XHEUOI0709219011000501   1030000100030000   541120003105777031200000031MOB BANK               YGN           MMR11007090509200005010709000000000000000   10300002 00104100000000000000000000005500     
100   9503051885845269000000000009410000000009410000200000001041040709111016000781DVPVRD0709219017000781   1030000100030000   581210001201777031200000012MOB BANK               YGN           MMR11007091110160007810709000000000000000   10300002 00104100000000000000000000031994     
100   9503051891854743000000000002300000000002300000200000001041040709090055000474AP7UGB0709219015000474   1030000100030000   541120000011777031200000002MOB BANK               YGN           MMR11007090900550004740709000000000000000   10300002 00104100000000000000000000004600     
100   35710830066529360000000000017500000000017500002000000010410407091208260006946850800709219018000694   1030000100030000   541120003111777031200000031MOB BANK               YGN           MMR11007091208260006940709000000000000000   10300003 00104100000000000000000000003500     
100   9503051024976264000000000001421700000001421700200000001041040709095351000861ADDA0M0709219016000861   1030000100030000   541120003104777031200000031MOB BANK               YGN           MMR11007090953510008610709000000000000000   10300002 00104100000000000000000000002844     
100   35710830241847220000000000044200000000044200002000000010410407091117000004656542210709219017000465   1030000100030000   541120003013777031200000030MOB BANK               YGN           MMR11007091117000004650709000000000000000   10300003 00104100000000000000000000008840     
100   95030518866115950000000000024500000000024500002000000010410407090948430009916SG5GR0709219016000991   1030000100030000   541120003008777031200000030MOB BANK               YGN           MMR11007090948430009910709000000000000000   10300002 00104100000000000000000000004900     
100   35710500185213000000000000063000000000063000002000000010410407090605400001090230420709219012000109   1030000100030000   541120000018777031200000002MOB BANK               YGN           MMR11007090605400001090709000000000000000   10300005 00104100000000000000000000012600     
100   95031900065897270000000000058000000000058000002000000010410407090952150004759BWFPV0709219016000475   1030000100030000   541120000011777031200000002MOB BANK               YGN           MMR11007090952150004750709000000000000000   10300014 00104100000000000000000000011600     
100   35710500334769360000000000028316000000028316002000000010410407090933550007178528000709219016000717   1030000100030000   541120003005777031200000030MOB BANK               YGN           MMR11007090933550007170709000000000000000   10300005 00104100000000000000000000005663     
100   9503051022600858000000000029110000000029110000200000001041040709051256000260NRAD2Z0709219011000260   1030000100030000   541120000017777031200000002MOB BANK               YGN           MMR11007090512560002600709000000000000000   10300002 00104100000000000000000000058220     
100   35710500185271170000000000029000000000029000002000000010410407090700510004726494040709219013000472   1030000100030000   541120000011777031200000002MOB BANK               YGN           MMR11007090700510004720709000000000000000   10300005 00104100000000000000000000005800     
100   35710500134031320000000000011000000000011000002000000010410407090728110004722019580709219013000472   1030000100030000   541120003012777031200000030MOB BANK               YGN           MMR11007090728110004720709000000000000000   10300005 00104100000000000000000000002200     
100   9503051886611595000000000001033900000001033900200000001041040709100056000718CVAEUY0709219016000718   1030000100030000   541120003005777031200000030MOB BANK               YGN           MMR11007091000560007180709000000000000000   10300002 00104100000000000000000000002068     
100   35710500384240630000000000152500000000152500002000000010410407090714410000862686570709219013000086   1030000100030000   541120000015777031200000002MOB BANK               YGN           MMR11007090714410000860709000000000000000   10300005 00104100000000000000000000030500     
100   62622000205347450000000000022500000000022500002000000010410407090611330005037355490709219012000503   1030000100030000   541120003105777031200000031MOB BANK               YGN           MMR11007090611330005030709000000000000000   10300006 00104100000000000000000000004500     
100   95031900027904850000000000013050000000013050002000000010410407090653090007145V0R5P0709219013000714   1030000100030000   541120003005777031200000030MOB BANK               YGN           MMR11007090653090007140709000000000000000   10300014 00104100000000000000000000002610     
100   35710500175059990000000000036000000000036000002000000010410407090950050000403172650709219016000040   1030000100030000   541110900002777030900000002MOB BANK               YGN           MMR11007090950050000400709000000000000000   10300005 00104100000000000000000000007200     
100   95030510257968510000000000069520000000069520002000000010410407091357450010402BPL820709219020001040   1030000100030000   581210001501777031200000015MOB BANK               YGN           MMR11007091357450010400709000000000000000   10300002 00104100000000000000000000023637     
100   9503051890620277000000000014500000000014500000200000001041040709102137000261MUZJA90709219016000261   1030000100030000   541120000017777031200000002MOB BANK               YGN           MMR11007091021370002610709000000000000000   10300002 00104100000000000000000000029000     
100   9503051021577081000000000004140000000004140000200000001041040709072234000715YSLTGZ0709219013000715   1030000100030000   541120003005777031200000030MOB BANK               YGN           MMR11007090722340007150709000000000000000   10300002 00104100000000000000000000008280     
100   9503051023461847000000000002982000000002982000200000001041040709115051000719KHJTLD0709219018000719   1030000100030000   541120003005777031200000030MOB BANK               YGN           MMR11007091150510007190709000000000000000   10300002 00104100000000000000000000005964     
100   62444500200554710000000000011300000000011300002000000010410407090859320008598561810709219015000859   1030000100030000   541120003104777031200000031MOB BANK               YGN           MMR11007090859320008590709000000000000000   10300002 00104100000000000000000000003955     
100   35710830253483420000000000035800000000035800002000000010410407090920320009595843310709219015000959   1030000100030000   541120003103777031200000031MOB BANK               YGN           MMR11007090920320009590709000000000000000   10300003 00104100000000000000000000007160     
100   35710830039310770000000000009450000000009450002000000010410407090423260004614060810709219010000461   1030000100030000   541120003013777031200000030MOB BANK               YGN           MMR11007090423260004610709000000000000000   10300003 00104100000000000000000000001890     
100   35710830385361310000000000029300000000029300002000000010410407090627510006924807210709219012000692   1030000100030000   541120003111777031200000031MOB BANK               YGN           MMR11007090627510006920709000000000000000   10300003 00104100000000000000000000005860     
100   35710500304191940000000000060000000000060000002000000010410407090934170001114882650709219016000111   1030000100030000   541120000018777031200000002MOB BANK               YGN           MMR11007090934170001110709000000000000000   10300005 00104100000000000000000000012000     
100   9503051019621297000000000006790000000006790000200000001041040709095557000474ZM4S4M0709219016000474   1030000100030000   541120003012777031200000030MOB BANK               YGN           MMR11007090955570004740709000000000000000   10300002 00104100000000000000000000013580     
100   35710830229050030000000000011300000000011300002000000010410407091157510008646787210709219018000864   1030000100030000   541120003104777031200000031MOB BANK               YGN           MMR11007091157510008640709000000000000000   10300003 00104100000000000000000000002260     
100   35710830900839560000000000018000000000018000002000000010410407090900170009895721810709219015000989   1030000100030000   541120003008777031200000030MOB BANK               YGN           MMR11007090900170009890709000000000000000   10300003 00104100000000000000000000003600     
100   9503051025548856000000000000740000000000740000200000001041040709044249000982N1JDHG0709219011000982   1030000100030000   541120003008777031200000030MOB BANK               YGN           MMR11007090442490009820709000000000000000   10300002 00104100000000000000000000001480     
