100   9503051023440718000000000001790000000001790000200000001041040708092022002367F95F5D0708218915002367   1030000100030000   541120003117777031200000031MOB BANK               YGN           MMR11007080920220023670708000000000000000   10300002 00104100000000000000000000003580     
100   62441900102427920000000000068300000000068300002000000010410407080948490023709823100708218916002370   1030000100030000   541120003117777031200000031MOB BANK               YGN           MMR11007080948490023700708000000000000000   10300003 00104100000000000000000000023905     
100   35710500143696470000000000063000000000063000002000000010410407081141560023736795860708218918002373   1030000100030000   541120003117777031200000031MOB BANK               YGN           MMR11007081141560023730708000000000000000   10300005 00104100000000000000000000012600     
100   35710830003715740000000000072300000000072300002000000010410407080703070018796378910708218913001879   1030000100030000   541160000001777031200000006MOB BANK               YGN           MMR11007080703070018790708000000000000000   10300003 00104100000000000000000000014460     
100   95030518889144010000000000002550000000002550002000000010410407081158560016580CDPYE0708218918001658   1030000100030000   581250000001777031200000005MOB BANK               YGN           MMR11007081158560016580708000000000000000   10300002 00104100000000000000000000000867     
100   35710500301798890000000000197400000000197400002000000010410407081118170018813312630708218917001881   1030000100030000   541160000001777031200000006MOB BANK               YGN           MMR11007081118170018810708000000000000000   10300005 00104100000000000000000000039480     
100   35710950472686390000000000026950000000026950002000000010410407081229030016598334500708218918001659   1030000100030000   581250000001777031200000005MOB BANK               YGN           MMR11007081229030016590708000000000000000   10300003 00104100000000000000000000009163     
100   35710950334399050000000000090000000000090000002000000010410407071006220004648838320707218816000464   1030000100030000   541120000011777031200000002MOB BANK               YGN           MMR11007071006220004640707000000000000000   10300003 00104100000000000000000000018000     
100   9503051022578856000000000006200000000006200000200000001041040707100946000465BNAQZW0707218816000465   1030000100030000   541120000011777031200000002MOB BANK               YGN           MMR11007071009460004650707000000000000000   10300002 00104100000000000000000000012400     
100   62343301015252730000000000004350000000004350002000000010410407070527050009491988660707218811000949   1030000100030000   541120003008777031200000030MOB BANK               YGN           MMR11007070527050009490707000000000000000   10300004 00104100000000000000000000000870     
100   35710830545872810000000000055000000000055000002000000010410407071013360001278881740707218816000127   1030000100030000   541120000010777031200000002MOB BANK               YGN           MMR11007071013360001270707000000000000000   10300003 00104100000000000000000000011000     
100   9503051024864692000000000003100000000003100000200000001041040707041947000951AALMG60707218810000951   1030000100030000   541120003103777031200000031MOB BANK               YGN           MMR11007070419470009510707000000000000000   10300002 00104100000000000000000000006200     
100   9503051025152899000000000001690000000001690000200000001041040707105822002355KBUFSP0707218817002355   1030000100030000   541120003117777031200000031MOB BANK               YGN           MMR11007071058220023550707000000000000000   10300002 00104100000000000000000000003380     
100   9503190004052561000000000007840000000007840000200000001041040707091106002347GBHT4L0707218815002347   1030000100030000   541120003117777031200000031MOB BANK               YGN           MMR11007070911060023470707000000000000000   10300014 00104100000000000000000000015680     
100   95051809517647790000000000010000000000010000002000000010410407070920350023504338190707218815002350   1030000100030000   541120003117777031200000031MOB BANK               YGN           MMR11007070920350023500707000000000000000   10300013 00104100000000000000000000003500     
100   35710950334399050000000000047000000000047000002000000010410407071005120004638831320707218816000463   1030000100030000   541120000011777031200000002MOB BANK               YGN           MMR11007071005120004630707000000000000000   10300003 00104100000000000000000000009400     
100   95030800097137230000000000011712000000011712002000000010410407080753460009636682810708218914000963   1030000100030000   541120003008777031200000030MOB BANK               YGN           MMR11007080753460009630708000000000000000   10300003 00104100000000000000000000002342     
100   95030540007798430000000000018350000000018350002000000010410407081122320008577IHGKV0708218917000857   1030000100030000   541120003104777031200000031MOB BANK               YGN           MMR11007081122320008570708000000000000000   10300002 00104100000000000000000000003670     
100   35710500390466750000000000018000000000018000002000000010410407080534300009578072130708218912000957   1030000100030000   541120003008777031200000030MOB BANK               YGN           MMR11007080534300009570708000000000000000   10300005 00104100000000000000000000003600     
100   62343302009382860000000000006000000000006000002000000010410407081249500004675860990708218919000467   1030000100030000   541120003012777031200000030MOB BANK               YGN           MMR11007081249500004670708000000000000000   10300004 00104100000000000000000000001200     
100   9503051021182494000000000001095000000001095000200000001041040708120715000498RPTZPP0708218918000498   1030000100030000   541120003001777031200000030MOB BANK               YGN           MMR11007081207150004980708000000000000000   10300002 00104100000000000000000000002190     
100   35710500375838930000000000016900000000016900002000000010410407080620460009594909190708218912000959   1030000100030000   541120003008777031200000030MOB BANK               YGN           MMR11007080620460009590708000000000000000   10300005 00104100000000000000000000003380     
100   62441900102427920000000000027500000000027500002000000010410407081015500006885063150708218916000688   1030000100030000   541120003111777031200000031MOB BANK               YGN           MMR11007081015500006880708000000000000000   10300003 00104100000000000000000000009625     
100   35710500310480670000000000003200000000003200002000000010410407080855510009672252510708218915000967   1030000100030000   541120003008777031200000030MOB BANK               YGN           MMR11007080855510009670708000000000000000   10300005 00104100000000000000000000000640     
100   35710500383502840000000000010800000000010800002000000010410407080603480004970418580708218912000497   1030000100030000   541120003001777031200000030MOB BANK               YGN           MMR11007080603480004970708000000000000000   10300005 00104100000000000000000000002160     
100   35710830760305260000000000011500000000011500002000000010410407080700500009616365120708218913000961   1030000100030000   541120003008777031200000030MOB BANK               YGN           MMR11007080700500009610708000000000000000   10300003 00104100000000000000000000002300     
100   95030518884889430000000000010192000000010192002000000010410407081106430008559ZDMUW0708218917000855   1030000100030000   541120003104777031200000031MOB BANK               YGN           MMR11007081106430008550708000000000000000   10300002 00104100000000000000000000002038     
100   9503051890248152000000000000280000000000280000200000001041040708101425000969SVSHVT0708218916000969   1030000100030000   541120003008777031200000030MOB BANK               YGN           MMR11007081014250009690708000000000000000   10300002 00104100000000000000000000000560     
100   9503051021432931000000000009860000000009860000200000001041040708103324000464EAOSXP0708218917000464   1030000100030000   541120003012777031200000030MOB BANK               YGN           MMR11007081033240004640708000000000000000   10300002 00104100000000000000000000019720     
100   9503051896375975000000000001280000000001280000200000001041040708105731000689GR0CEC0708218917000689   1030000100030000   541120003111777031200000031MOB BANK               YGN           MMR11007081057310006890708000000000000000   10300002 00104100000000000000000000002560     
100   35710830091080010000000000010000000000010000002000000010410407080527230023625804500708218911002362   1030000100030000   541120003117777031200000031MOB BANK               YGN           MMR11007080527230023620708000000000000000   10300003 00104100000000000000000000002000     
100   35710830553635670000000000019500000000019500002000000010410407080530450023645824700708218912002364   1030000100030000   541120003117777031200000031MOB BANK               YGN           MMR11007080530450023640708000000000000000   10300003 00104100000000000000000000003900     
