100   62921400016432690000000000173216000000173216002000000010410407111247580019032222220711219219001903   1030000100030000   541160000001777031200000006MOB BANK               YGN           MMR11007111247580019030711000000000000000   10300009 00104100000000000000000000034643     
100   35710500145440580000000000019100000000019100002000000010410407120518590007361520580712219311000736   1030000100030000   541120003005777031200000030MOB BANK               YGN           MMR11007120518590007360712000000000000000   10300005 00104100000000000000000000003820     
100   9503051025964160000000000002650000000002650000200000001041040712113045000030MPXHVP0712219318000030   1030000100030000   541110900003777030900000003MOB BANK               YGN           MMR11007121130450000300712000000000000000   10300002 00104100000000000000000000005300     
100   35710830520209210000000000180000000000180000002000000010410407120749280001221217020712219314000122   1030000100030000   541120000018777031200000002MOB BANK               YGN           MMR11007120749280001220712000000000000000   10300003 00104100000000000000000000036000     
100   9503051886611595000000000003532800000003532800200000001041040712054912000479WNDQS90712219312000479   1030000100030000   541120003012777031200000030MOB BANK               YGN           MMR11007120549120004790712000000000000000   10300002 00104100000000000000000000007066     
100   95031900065711470000000000023800000000023800002000000010410407121152070007422GSB7W0712219318000742   1030000100030000   541120003005777031200000030MOB BANK               YGN           MMR11007121152070007420712000000000000000   10300014 00104100000000000000000000004760     
100   95031900065711470000000000006050000000006050002000000010410407121153190007439CF9BN0712219318000743   1030000100030000   541120003005777031200000030MOB BANK               YGN           MMR11007121153190007430712000000000000000   10300014 00104100000000000000000000001210     
100   62346600100978930000000000001750000000001750002000000010410407120631590007371276890712219313000737   1030000100030000   541120003005777031200000030MOB BANK               YGN           MMR11007120631590007370712000000000000000   10300005 00104100000000000000000000000350     
100   9503051024600153000000000002470000000002470000200000001041040712095426000234WCXAUY0712219316000234   1030000100030000   541120003114777031200000031MOB BANK               YGN           MMR11007120954260002340712000000000000000   10300002 00104100000000000000000000004940     
100   9503051023207901000000000002600000000002600000200000001041040712100527000520ZAEQEN0712219316000520   1030000100030000   541120003105777031200000031MOB BANK               YGN           MMR11007121005270005200712000000000000000   10300002 00104100000000000000000000005200     
100   35710830148072170000000000015500000000015500002000000010410407120559170007070555910712219312000707   1030000100030000   541120003111777031200000031MOB BANK               YGN           MMR11007120559170007070712000000000000000   10300003 00104100000000000000000000003100     
100   95030518890217430000000000058500000000058500002000000010410407120120530000128VXINQ0712219307000012   1030000100030000   541110900005777030900000004MOB BANK               YGN           MMR11007120120530000120712000000000000000   10300002 00104100000000000000000000011700     
100   35710830014937400000000000008673000000008673002000000010410407120705120007390951410712219313000739   1030000100030000   541120003005777031200000030MOB BANK               YGN           MMR11007120705120007390712000000000000000   10300003 00104100000000000000000000001735     
100   35710500364429840000000000016750000000016750002000000010410407120419340007340883320712219310000734   1030000100030000   541120003005777031200000030MOB BANK               YGN           MMR11007120419340007340712000000000000000   10300005 00104100000000000000000000003350     
100   35710500312619830000000000019000000000019000002000000010410407120800030007089508210712219314000708   1030000100030000   541120003111777031200000031MOB BANK               YGN           MMR11007120800030007080712000000000000000   10300005 00104100000000000000000000003800     
100   95030510250428190000000000033800000000033800002000000010410407121133400007096YACZJ0712219318000709   1030000100030000   541120003111777031200000031MOB BANK               YGN           MMR11007121133400007090712000000000000000   10300002 00104100000000000000000000006760     
100   35710830629325520000000000004150000000004150002000000010410407120959560002351999710712219316000235   1030000100030000   541120003114777031200000031MOB BANK               YGN           MMR11007120959560002350712000000000000000   10300003 00104100000000000000000000000830     
100   95030800008005030000000000017500000000017500002000000010410407120818200002321390120712219314000232   1030000100030000   541120003114777031200000031MOB BANK               YGN           MMR11007120818200002320712000000000000000   10300003 00104100000000000000000000003500     
100   9503051896720022000000000001455300000001455300200000001041040712110856000740OKORNH0712219317000740   1030000100030000   541120003005777031200000030MOB BANK               YGN           MMR11007121108560007400712000000000000000   10300002 00104100000000000000000000002911     
100   95030800061752560000000000021950000000021950002000000010410407120426080007359996910712219310000735   1030000100030000   541120003005777031200000030MOB BANK               YGN           MMR11007120426080007350712000000000000000   10300003 00104100000000000000000000004390     
100   9503051024600153000000000001100000000001100000200000001041040712094706000233LDF7RI0712219316000233   1030000100030000   541120003114777031200000031MOB BANK               YGN           MMR11007120947060002330712000000000000000   10300002 00104100000000000000000000002200     
100   35710950071890230000000000038995000000038995002000000010410407120857030016721622500712219315001672   1030000100030000   581250000001777031200000005MOB BANK               YGN           MMR11007120857030016720712000000000000000   10300003 00104100000000000000000000013258     
100   9503051872759234000000000001190000000001190000200000001041040712035049003200ZUNKPO0712219310003200   1030000100030000   541110001905777031200000019MOB BANK               YGN           MMR11007120350490032000712000000000000000   10300002 00104100000000000000000000002380     
100   95030518923722320000000000027000000000027000002000000010410407120354390023271HYLIM0712219310002327   1030000100030000   541120003106777031200000031MOB BANK               YGN           MMR11007120354390023270712000000000000000   10300002 00104100000000000000000000005400     
100   9503051021654369000000000002600000000002600000200000001041040712130444002448XKF0CA0712219319002448   1030000100030000   541120003117777031200000031MOB BANK               YGN           MMR11007121304440024480712000000000000000   10300002 00104100000000000000000000005200     
100   35710950210755540000000000023045000000023045002000000010410407120945140016731911510712219316001673   1030000100030000   581250000001777031200000005MOB BANK               YGN           MMR11007120945140016730712000000000000000   10300003 00104100000000000000000000007835     
100   35710830059994600000000000003900000000003900002000000010410407120523250010310340800712219311001031   1030000100030000   541120003008777031200000030MOB BANK               YGN           MMR11007120523250010310712000000000000000   10300003 00104100000000000000000000000780     
100   35710830856926050000000000119130000000119130002000000010410407120850580019081586010712219315001908   1030000100030000   541160000001777031200000006MOB BANK               YGN           MMR11007120850580019080712000000000000000   10300003 00104100000000000000000000023826     
100   35710500344026000000000000004450000000004450002000000010410407121308030008952063680712219319000895   1030000100030000   541120003104777031200000031MOB BANK               YGN           MMR11007121308030008950712000000000000000   10300005 00104100000000000000000000000890     
100   9503051888914401000000000000330000000000330000200000001041040712115322001674CG9WZZ0712219318001674   1030000100030000   581250000001777031200000005MOB BANK               YGN           MMR11007121153220016740712000000000000000   10300002 00104100000000000000000000001122     
100   9503051890266402000000000004940000000004940000200000001041040712061912002424JVUUVQ0712219312002424   1030000100030000   541120003117777031200000031MOB BANK               YGN           MMR11007120619120024240712000000000000000   10300002 00104100000000000000000000009880     
100   62346600140887650000000000017050000000017050002000000010410407121013510008892397790712219316000889   1030000100030000   541120003104777031200000031MOB BANK               YGN           MMR11007121013510008890712000000000000000   10300005 00104100000000000000000000003410     
100   9503051024997336000000000001380000000001380000200000001041040712110017001033S3KF9Y0712219317001033   1030000100030000   541120003008777031200000030MOB BANK               YGN           MMR11007121100170010330712000000000000000   10300002 00104100000000000000000000002760     
100   35710500374971100000000000022500000000022500002000000010410407120652510023325445450712219313002332   1030000100030000   541120003106777031200000031MOB BANK               YGN           MMR11007120652510023320712000000000000000   10300005 00104100000000000000000000004500     
100   35710830380947500000000000018000000000018000002000000010410407120843180023351540010712219315002335   1030000100030000   541120003106777031200000031MOB BANK               YGN           MMR11007120843180023350712000000000000000   10300003 00104100000000000000000000003600     
100   35710830106345080000000000023500000000023500002000000010410407120622290024260695010712219312002426   1030000100030000   541120003117777031200000031MOB BANK               YGN           MMR11007120622290024260712000000000000000   10300003 00104100000000000000000000004700     
100   35710830106345080000000000018500000000018500002000000010410407120625480024280715000712219312002428   1030000100030000   541120003117777031200000031MOB BANK               YGN           MMR11007120625480024280712000000000000000   10300003 00104100000000000000000000003700     
100   35710500193753260000000000018948000000018948002000000010410407120733230024307402670712219314002430   1030000100030000   541120003117777031200000031MOB BANK               YGN           MMR11007120733230024300712000000000000000   10300005 00104100000000000000000000003790     
100   9503051885100061000000000060420000000060420000200000001041040712120457001914DDCHNT0712219318001914   1030000100030000   541160000001777031200000006MOB BANK               YGN           MMR11007121204570019140712000000000000000   10300002 00104100000000000000000000120840     
100   35710830380947500000000000018000000000018000002000000010410407120905550023381675710712219315002338   1030000100030000   541120003106777031200000031MOB BANK               YGN           MMR11007120905550023380712000000000000000   10300003 00104100000000000000000000003600     
100   35710500143722780000000000004600000000004600002000000010410407120903050024322710930712219315002432   1030000100030000   541120003117777031200000031MOB BANK               YGN           MMR11007120903050024320712000000000000000   10300005 00104100000000000000000000000920     
100   35710500385667070000000000017760000000017760002000000010410407120907240024345540980712219315002434   1030000100030000   541120003117777031200000031MOB BANK               YGN           MMR11007120907240024340712000000000000000   10300005 00104100000000000000000000003552     
100   35710830784068150000000000115100000000115100002000000010410407120956030024381976410712219316002438   1030000100030000   541120003117777031200000031MOB BANK               YGN           MMR11007120956030024380712000000000000000   10300003 00104100000000000000000000023020     
100   35710830629325520000000000082300000000082300002000000010410407121037020024402222400712219317002440   1030000100030000   541120003117777031200000031MOB BANK               YGN           MMR11007121037020024400712000000000000000   10300003 00104100000000000000000000016460     
100   9503051026439998000000000001392700000001392700200000001041040712101951000891B73R1E0712219316000891   1030000100030000   541120003104777031200000031MOB BANK               YGN           MMR11007121019510008910712000000000000000   10300002 00104100000000000000000000002786     
100   9503190002302547000000000003740000000003740000200000001041040712105253002442DRG4VH0712219317002442   1030000100030000   541120003117777031200000031MOB BANK               YGN           MMR11007121052530024420712000000000000000   10300014 00104100000000000000000000007480     
100   9503051021654369000000000007565000000007565000200000001041040712130308002446TCCXUT0712219319002446   1030000100030000   541120003117777031200000031MOB BANK               YGN           MMR11007121303080024460712000000000000000   10300002 00104100000000000000000000015130     
100   35710830629325520000000000005900000000005900002000000010410407121149050008932654610712219318000893   1030000100030000   541120003104777031200000031MOB BANK               YGN           MMR11007121149050008930712000000000000000   10300003 00104100000000000000000000001180     
100   9503051024600153000000000007150000000007150000200000001041040712093505002436YPD5WG0712219316002436   1030000100030000   541120003117777031200000031MOB BANK               YGN           MMR11007120935050024360712000000000000000   10300002 00104100000000000000000000014300     
