100   9503051025307501000000000002700000000002700000200000001041040711080251000103PKLAWE0711219214000103   1030000100030000   541120000015777031200000002MOB BANK               YGN           MMR11007110802510001030711000000000000000   10300002 00104100000000000000000000005400     
100   35710830577208970000000000011000000000011000002000000010410407110726040002242436610711219213000224   1030000100030000   541120003114777031200000031MOB BANK               YGN           MMR11007110726040002240711000000000000000   10300003 00104100000000000000000000002200     
100   62921400074589280000000000028700000000028700002000000010410407110650040005082222220711219213000508   1030000100030000   541120003001777031200000030MOB BANK               YGN           MMR11007110650040005080711000000000000000   10300009 00104100000000000000000000005740     
100   9503051023461847000000000001200000000001200000200000001041040711090136001027WHSHAR0711219215001027   1030000100030000   541120003008777031200000030MOB BANK               YGN           MMR11007110901360010270711000000000000000   10300002 00104100000000000000000000002400     
100   35710830221683960000000000013000000000013000002000000010410407111015310002253453320711219216000225   1030000100030000   541120003114777031200000031MOB BANK               YGN           MMR11007111015310002250711000000000000000   10300003 00104100000000000000000000002600     
100   62622000540998620000000000011100000000011100002000000010410407110507420007297931640711219211000729   1030000100030000   541120003005777031200000030MOB BANK               YGN           MMR11007110507420007290711000000000000000   10300006 00104100000000000000000000002220     
100   9503051888350408000000000002990000000002990000200000001041040711100514000731BCYJQZ0711219216000731   1030000100030000   541120003005777031200000030MOB BANK               YGN           MMR11007111005140007310711000000000000000   10300002 00104100000000000000000000005980     
100   9503051872857079000000000000600000000000600000200000001041040711083133000881FCUZU10711219215000881   1030000100030000   541120003104777031200000031MOB BANK               YGN           MMR11007110831330008810711000000000000000   10300002 00104100000000000000000000001200     
100   9503051024855831000000000003750000000003750000200000001041040711102401000705MNKB5B0711219216000705   1030000100030000   541120003111777031200000031MOB BANK               YGN           MMR11007111024010007050711000000000000000   10300002 00104100000000000000000000007500     
100   9503051023624212000000000003045000000003045000200000001041040711102150000226VKVVJG0711219216000226   1030000100030000   541120003114777031200000031MOB BANK               YGN           MMR11007111021500002260711000000000000000   10300002 00104100000000000000000000006090     
100   9503051026352860000000000000420000000000420000200000001041040711042419000728TAGD3K0711219210000728   1030000100030000   541120003005777031200000030MOB BANK               YGN           MMR11007110424190007280711000000000000000   10300002 00104100000000000000000000000840     
100   35710830634612960000000000038750000000038750002000000010410407111011470008843430910711219216000884   1030000100030000   541120003104777031200000031MOB BANK               YGN           MMR11007111011470008840711000000000000000   10300003 00104100000000000000000000007750     
100   35710500353671660000000000007800000000007800002000000010410407110359050010183368950711219210001018   1030000100030000   541120003008777031200000030MOB BANK               YGN           MMR11007110359050010180711000000000000000   10300005 00104100000000000000000000001560     
100   62921400074589280000000000005500000000005500002000000010410407110809520010262222220711219214001026   1030000100030000   541120003008777031200000030MOB BANK               YGN           MMR11007110809520010260711000000000000000   10300009 00104100000000000000000000001100     
100   35710830434614240000000000031800000000031800002000000010410407110636530005142141510711219213000514   1030000100030000   541120003105777031200000031MOB BANK               YGN           MMR11007110636530005140711000000000000000   10300003 00104100000000000000000000006360     
100   35710830402381060000000000003450000000003450002000000010410407111126480008863881000711219217000886   1030000100030000   541120003104777031200000031MOB BANK               YGN           MMR11007111126480008860711000000000000000   10300003 00104100000000000000000000000690     
100   35710500141141670000000000007850000000007850002000000010410407110613470010209644000711219212001020   1030000100030000   541120003008777031200000030MOB BANK               YGN           MMR11007110613470010200711000000000000000   10300005 00104100000000000000000000001570     
100   35710500365403400000000000020160000000020160002000000010410407110631570010210822440711219213001021   1030000100030000   541120003008777031200000030MOB BANK               YGN           MMR11007110631570010210711000000000000000   10300005 00104100000000000000000000004032     
100   9503051023465673000000000006900000000006900000200000001041040711025553000118HEGRPP0711219209000118   1030000100030000   541120000018777031200000002MOB BANK               YGN           MMR11007110255530001180711000000000000000   10300002 00104100000000000000000000013800     
100   35710830905532890000000000047000000000047000002000000010410407110448160004731489720711219211000473   1030000100030000   541120003013777031200000030MOB BANK               YGN           MMR11007110448160004730711000000000000000   10300003 00104100000000000000000000009400     
100   35710950012552000000000000038200000000038200002000000010410407110508580004741614010711219211000474   1030000100030000   541120003013777031200000030MOB BANK               YGN           MMR11007110508580004740711000000000000000   10300003 00104100000000000000000000007640     
100   35710500325927170000000000009500000000009500002000000010410407110422070007014270360711219210000701   1030000100030000   541120003111777031200000031MOB BANK               YGN           MMR11007110422070007010711000000000000000   10300005 00104100000000000000000000001900     
100   62343302001190280000000000046000000000046000002000000010410407110307260002686856060711219209000268   1030000100030000   541120000017777031200000002MOB BANK               YGN           MMR11007110307260002680711000000000000000   10300004 00104100000000000000000000009200     
100   62441900103611390000000000025000000000025000002000000010410407110948000004751063930711219216000475   1030000100030000   541120003013777031200000030MOB BANK               YGN           MMR11007110948000004750711000000000000000   10300003 00104100000000000000000000008750     
100   35710830765895620000000000010500000000010500002000000010410407110710130005162341510711219213000516   1030000100030000   541120003105777031200000031MOB BANK               YGN           MMR11007110710130005160711000000000000000   10300003 00104100000000000000000000002100     
100   9503051025948254000000000000768000000000768000200000001041040711040422000969EPX0Y90711219210000969   1030000100030000   541120003103777031200000031MOB BANK               YGN           MMR11007110404220009690711000000000000000   10300002 00104100000000000000000000001536     
100   9503051025411790000000000000745000000000745000200000001041040711060332000730BQ0QZY0711219212000730   1030000100030000   541120003005777031200000030MOB BANK               YGN           MMR11007110603320007300711000000000000000   10300002 00104100000000000000000000001490     
100   9503051874508084000000000001540000000001540000200000001041040711121434001028C62GVB0711219218001028   1030000100030000   541120003008777031200000030MOB BANK               YGN           MMR11007111214340010280711000000000000000   10300002 00104100000000000000000000003080     
100   35710500165185710000000000015450000000015450002000000010410407110445190002225675630711219211000222   1030000100030000   541120003114777031200000031MOB BANK               YGN           MMR11007110445190002220711000000000000000   10300005 00104100000000000000000000003090     
100   62346600140476130000000000026500000000026500002000000010410407110355010004726218510711219210000472   1030000100030000   541120003013777031200000030MOB BANK               YGN           MMR11007110355010004720711000000000000000   10300005 00104100000000000000000000005300     
100   9503051025411790000000000001130000000001130000200000001041040711055615000506YOIUZ70711219212000506   1030000100030000   541120003001777031200000030MOB BANK               YGN           MMR11007110556150005060711000000000000000   10300002 00104100000000000000000000002260     
100   35710500355702720000000000026000000000026000002000000010410407110621360007020070360711219212000702   1030000100030000   541120003111777031200000031MOB BANK               YGN           MMR11007110621360007020711000000000000000   10300005 00104100000000000000000000005200     
100   35710830950014170000000000018500000000018500002000000010410407110755050007032610620711219214000703   1030000100030000   541120003111777031200000031MOB BANK               YGN           MMR11007110755050007030711000000000000000   10300003 00104100000000000000000000003700     
100   62441900101312500000000000012900000000012900002000000010410407110453540002232067010711219211000223   1030000100030000   541120003114777031200000031MOB BANK               YGN           MMR11007110453540002230711000000000000000   10300003 00104100000000000000000000004515     
100   62441900101312500000000000022500000000022500002000000010410407110435590005106948480711219211000510   1030000100030000   541120003105777031200000031MOB BANK               YGN           MMR11007110435590005100711000000000000000   10300003 00104100000000000000000000007875     
100   9503051025411790000000000009280000000009280000200000001041040711061509000507FX3A1G0711219212000507   1030000100030000   541120003001777031200000030MOB BANK               YGN           MMR11007110615090005070711000000000000000   10300002 00104100000000000000000000018560     
100   9503051026352860000000000000620000000000620000200000001041040711042149000727YCOMWS0711219210000727   1030000100030000   541120003005777031200000030MOB BANK               YGN           MMR11007110421490007270711000000000000000   10300002 00104100000000000000000000001240     
100   35710830014937400000000000004900000000004900002000000010410407111145360007323993710711219218000732   1030000100030000   541120003005777031200000030MOB BANK               YGN           MMR11007111145360007320711000000000000000   10300003 00104100000000000000000000000980     
100   9503051894513262000000000006000000000006000000200000001041040711102245000119ZQYTEW0711219216000119   1030000100030000   541120000018777031200000002MOB BANK               YGN           MMR11007111022450001190711000000000000000   10300002 00104100000000000000000000012000     
100   9503051025891579000000000014500000000014500000200000001041040711054930000269JGZPYG0711219212000269   1030000100030000   541120000017777031200000002MOB BANK               YGN           MMR11007110549300002690711000000000000000   10300002 00104100000000000000000000029000     
100   9503051897018848000000000002640000000002640000200000001041040711090038000704WBFQRP0711219215000704   1030000100030000   541120003111777031200000031MOB BANK               YGN           MMR11007110900380007040711000000000000000   10300002 00104100000000000000000000005280     
100   35710830984812690000000000010290000000010290002000000010410407110430170040461381810711219211004046   1030000100030000   541110001907777031200000019MOB BANK               YGN           MMR11007110430170040460711000000000000000   10300003 00104100000000000000000000002058     
100   62346600170540200000000000010175000000010175002000000010410407111055480016700238080711219217001670   1030000100030000   581250000001777031200000005MOB BANK               YGN           MMR11007111055480016700711000000000000000   10300005 00104100000000000000000000003460     
100   35710830221683960000000000004500000000004500002000000010410407111127300024203885120711219217002420   1030000100030000   541120003117777031200000031MOB BANK               YGN           MMR11007111127300024200711000000000000000   10300003 00104100000000000000000000000900     
100   35710500370344000000000000033000000000033000002000000010410407110551020023153423890711219212002315   1030000100030000   541120003106777031200000031MOB BANK               YGN           MMR11007110551020023150711000000000000000   10300005 00104100000000000000000000006600     
100   35710830794790350000000000014000000000014000002000000010410407110329450023311018710711219209002331   1030000100030000   541110001903777031200000019MOB BANK               YGN           MMR11007110329450023310711000000000000000   10300003 00104100000000000000000000002800     
100   62921400012003910000000000019800000000019800002000000010410407110405280023332222220711219210002333   1030000100030000   541110001903777031200000019MOB BANK               YGN           MMR11007110405280023330711000000000000000   10300009 00104100000000000000000000003960     
100   35710500335631470000000000159800000000159800002000000010410407110435450023360383510711219211002336   1030000100030000   541110001903777031200000019MOB BANK               YGN           MMR11007110435450023360711000000000000000   10300005 00104100000000000000000000031960     
100   35710500335631470000000000149900000000149900002000000010410407110438480023374739570711219211002337   1030000100030000   541110001903777031200000019MOB BANK               YGN           MMR11007110438480023370711000000000000000   10300005 00104100000000000000000000029980     
100   9503054000511089000000000004260000000004260000200000001041040711043640002410DGEWYX0711219211002410   1030000100030000   541120003117777031200000031MOB BANK               YGN           MMR11007110436400024100711000000000000000   10300002 00104100000000000000000000008520     
100   35710830966857210000000000173216000000173216002000000010410407110333230019001040510711219210001900   1030000100030000   541160000001777031200000006MOB BANK               YGN           MMR11007110333230019000711000000000000000   10300003 00104100000000000000000000034643     
100   35710830484266380000000000030600000000030600002000000010410407110740380023412523930711219214002341   1030000100030000   541110001903777031200000019MOB BANK               YGN           MMR11007110740380023410711000000000000000   10300003 00104100000000000000000000006120     
100   9503190000076556000000000003880000000003880000200000001041040711082930002344A2H02V0711219214002344   1030000100030000   541110001903777031200000019MOB BANK               YGN           MMR11007110829300023440711000000000000000   10300014 00104100000000000000000000007760     
100   9503051024165926000000000003990000000003990000200000001041040711083108002346LUJN780711219215002346   1030000100030000   541110001903777031200000019MOB BANK               YGN           MMR11007110831080023460711000000000000000   10300002 00104100000000000000000000007980     
100   9503051019805221000000000001990000000001990000200000001041040711061948002414TM0CH60711219212002414   1030000100030000   541120003117777031200000031MOB BANK               YGN           MMR11007110619480024140711000000000000000   10300002 00104100000000000000000000003980     
100   35710830630708240000000000060900000000060900002000000010410407111042330023503615430711219217002350   1030000100030000   541110001903777031200000019MOB BANK               YGN           MMR11007111042330023500711000000000000000   10300003 00104100000000000000000000012180     
100   9503051025742095000000000001689000000001689000200000001041040711120706002352JDMFPK0711219218002352   1030000100030000   541110001903777031200000019MOB BANK               YGN           MMR11007111207060023520711000000000000000   10300002 00104100000000000000000000003378     
100   35710830558360180000000000030500000000030500002000000010410407110954380024183328010711219216002418   1030000100030000   541120003117777031200000031MOB BANK               YGN           MMR11007110954380024180711000000000000000   10300003 00104100000000000000000000006100     
100   35710500385568070000000000019000000000019000002000000010410407110935090024165281520711219216002416   1030000100030000   541120003117777031200000031MOB BANK               YGN           MMR11007110935090024160711000000000000000   10300005 00104100000000000000000000003800     
100   9503051026667929000000000001859000000001859000200000001041040711074829001668DOHW1X0711219214001668   1030000100030000   581250000001777031200000005MOB BANK               YGN           MMR11007110748290016680711000000000000000   10300002 00104100000000000000000000006321     
100   35710500395924700000000000032120000000032120002000000010410407111022520016695990980711219216001669   1030000100030000   581250000001777031200000005MOB BANK               YGN           MMR11007111022520016690711000000000000000   10300005 00104100000000000000000000010921     
100   9503051886309075000000000001650000000001650000200000001041040711085357004056F9O9F10711219215004056   1030000100030000   541110001907777031200000019MOB BANK               YGN           MMR11007110853570040560711000000000000000   10300002 00104100000000000000000000003300     
100   9503051887948962000000000020000000000020000000200000001041040711111029004060C1CBI30711219217004060   1030000100030000   541110001907777031200000019MOB BANK               YGN           MMR11007111110290040600711000000000000000   10300002 00104100000000000000000000040000     
100   9503051887998652000000000002670000000002670000200000001041040711070523004049AO0MPQ0711219213004049   1030000100030000   541110001907777031200000019MOB BANK               YGN           MMR11007110705230040490711000000000000000   10300002 00104100000000000000000000005340     
100   9503051894207667000000000002140000000002140000200000001041040711120659004062YODVF50711219218004062   1030000100030000   541110001907777031200000019MOB BANK               YGN           MMR11007111206590040620711000000000000000   10300002 00104100000000000000000000004280     
100   35710830829757480000000000110000000000110000002000000010410407111237420040644306310711219219004064   1030000100030000   541110001907777031200000019MOB BANK               YGN           MMR11007111237420040640711000000000000000   10300003 00104100000000000000000000022000     
100   9503051024436632000000000002090000000002090000200000001041040711074817003186BYLIZU0711219214003186   1030000100030000   541110001905777031200000019MOB BANK               YGN           MMR11007110748170031860711000000000000000   10300002 00104100000000000000000000004180     
100   9503051025100294000000000003600000000003600000200000001041040711083338003190YSKOVG0711219215003190   1030000100030000   541110001905777031200000019MOB BANK               YGN           MMR11007110833380031900711000000000000000   10300002 00104100000000000000000000007200     
100   9503051886309075000000000001730000000001730000200000001041040711084848003192ON9OYR0711219215003192   1030000100030000   541110001905777031200000019MOB BANK               YGN           MMR11007110848480031920711000000000000000   10300002 00104100000000000000000000003460     
100   35710500100690270000000000055500000000055500002000000010410407100834040024048125120710219115002404   1030000100030000   541120003117777031200000031MOB BANK               YGN           MMR11007100834040024040710000000000000000   10300005 00104100000000000000000000011100     
100   9503051872455403000000000005300000000005300000200000001041040710091726002405JG17DN0710219115002405   1030000100030000   541120003117777031200000031MOB BANK               YGN           MMR11007100917260024050710000000000000000   10300002 00104100000000000000000000010600     
100   35710500324904740000000000033300000000033300002000000010410407100459520024013990830710219111002401   1030000100030000   541120003117777031200000031MOB BANK               YGN           MMR11007100459520024010710000000000000000   10300005 00104100000000000000000000006660     
100   35710500324904740000000000010500000000010500002000000010410407100511280024023636660710219111002402   1030000100030000   541120003117777031200000031MOB BANK               YGN           MMR11007100511280024020710000000000000000   10300005 00104100000000000000000000002100     
100   35710500370416520000000000022700000000022700002000000010410407100723360024030849660710219113002403   1030000100030000   541120003117777031200000031MOB BANK               YGN           MMR11007100723360024030710000000000000000   10300005 00104100000000000000000000004540     
100   35710830975045170000000000150000000000150000002000000010410407090511460001104351010709219011000110   1030000100030000   541120002101777031200000021MOB BANK               YGN           MMR11007090511460001100709000000000000000   10300003 00104100000000000000000000030000     
100   35710500141187880000000000018500000000018500002000000010410407100927450024068107980710219115002406   1030000100030000   541120003117777031200000031MOB BANK               YGN           MMR11007100927450024060710000000000000000   10300005 00104100000000000000000000003700     
