100   9503051887488902000000000006710000000006710000200000001041040710065756000783ZN0JWR0710219113000783   1030000100030000   581210001201777031200000012MOB BANK               YGN           MMR11007100657560007830710000000000000000   10300002 00104100000000000000000000022814     
100   9503051888049331000000000009000000000009000000200000001041040712092309000139IKDEGN0712219315000139   1030000100030000   541120000010777031200000002MOB BANK               YGN           MMR11007120923090001390712000000000000000   10300002 00104100000000000000000000018000     
100   9503051023962414000000000009000000000009000000200000001041040712092836000140VDRKZX0712219315000140   1030000100030000   541120000010777031200000002MOB BANK               YGN           MMR11007120928360001400712000000000000000   10300002 00104100000000000000000000018000     
100   35710500375050450000000000009850000000009850002000000010410407120316390018620438330712219309001862   1030000100030000   541110001915777031200000019MOB BANK               YGN           MMR11007120316390018620712000000000000000   10300005 00104100000000000000000000001970     
100   35710950083210210000000000015500000000015500002000000010410407120318310023569591310712219309002356   1030000100030000   541110001903777031200000019MOB BANK               YGN           MMR11007120318310023560712000000000000000   10300003 00104100000000000000000000003100     
100   35710500393138020000000000041600000000041600002000000010410407120422110023589557420712219310002358   1030000100030000   541110001903777031200000019MOB BANK               YGN           MMR11007120422110023580712000000000000000   10300005 00104100000000000000000000008320     
100   95030510204473360000000000011700000000011700002000000010410407120333410018649YTUUW0712219310001864   1030000100030000   541110001915777031200000019MOB BANK               YGN           MMR11007120333410018640712000000000000000   10300002 00104100000000000000000000002340     
100   35710830290752890000000000011348000000011348002000000010410407120346520018669761320712219310001866   1030000100030000   541110001915777031200000019MOB BANK               YGN           MMR11007120346520018660712000000000000000   10300003 00104100000000000000000000002270     
100   35710500344247290000000000039500000000039500002000000010410407120500330018694152630712219311001869   1030000100030000   541110001915777031200000019MOB BANK               YGN           MMR11007120500330018690712000000000000000   10300005 00104100000000000000000000007900     
100   35710830901997110000000000005184000000005184002000000010410407130520240008988962510713219411000898   1030000100030000   541120003104777031200000031GAMONE PWINT (BKLZ)    YGN           MMR11007130520240008980713000000000000000   10300003 00104100000000000000000000001037     
100   9503051021679473000000000000380000000000380000200000001041040713060630000900EMPYLG0713219412000900   1030000100030000   541120003104777031200000031GAMONE PWINT (BKLZ)    YGN           MMR11007130606300009000713000000000000000   10300002 00104100000000000000000000000760     
100   35710500375520470000000000036500000000036500002000000010410407130554580023490473420713219412002349   1030000100030000   541120003106777031200000031GAMONE PWINT (BKLZ)    YGN           MMR11007130554580023490713000000000000000   10300005 00104100000000000000000000007300     
100   9503051023543396000000000001750000000001750000200000001041040713110000000529RGUZ210713219417000529   1030000100030000   541120003105777031200000031GAMONE PWINT (BKLZ)    YGN           MMR11007131100000005290713000000000000000   10300002 00104100000000000000000000003500     
100   35710830629152760000000000370000000000370000002000000010410407131009030000440694510713219416000044   1030000100030000   541110900002777030900000002KAUNG HEIN ELECTRONICS NPT           MMR11007131009030000440713000000000000000   10300003 00104100000000000000000000074000     
100   9503051872910522000000000000250000000000250000200000001041040713063300000902B0D3ZY0713219413000902   1030000100030000   541120003104777031200000031GAMONE PWINT (BKLZ)    YGN           MMR11007130633000009020713000000000000000   10300002 00104100000000000000000000000500     
100   35710830920003470000000000010241000000010241002000000010410407131012380007480716010713219416000748   1030000100030000   541120003005777031200000030GAMONE PWINT (TGZ)     YGN           MMR11007131012380007480713000000000000000   10300003 00104100000000000000000000002048     
100   62921400072131090000000000045100000000045100002000000010410407130614040010462222220713219412001046   1030000100030000   581210001501777031200000015ROYAL GARDEN PREMIER   YGN           MMR11007130614040010460713000000000000000   10300009 00104100000000000000000000015334     
100   35711410000248070000000000012300000000012300002000000010410407130636160016765341770713219413001676   1030000100030000   581250000001777031200000005AVENUE J COFFEE SHOP   YGN           MMR11007130636160016760713000000000000000   10200001 00104100000000000000000000004182     
100   35710500375520470000000000005000000000005000002000000010410407130556280023506926950713219412002350   1030000100030000   541120003106777031200000031GAMONE PWINT (BKLZ)    YGN           MMR11007130556280023500713000000000000000   10300005 00104100000000000000000000001000     
100   35710830018755650000000000015000000000015000002000000010410407131013040017940718600713219416001794   1030000100030000   541110001920777031200000019GAMONE PWINT (KBA)     YGN           MMR11007131013040017940713000000000000000   10300003 00104100000000000000000000003000     
100   9503051897174310000000000001705000000001705000200000001041040713081406001677G94IZR0713219414001677   1030000100030000   581250000001777031200000005AVENUE J COFFEE SHOP   YGN           MMR11007130814060016770713000000000000000   10300002 00104100000000000000000000005797     
100   35710500343300250000000000017000000000017000002000000010410407131047450010470502010713219417001047   1030000100030000   541120003008777031200000030GAMONE PWINT (TGZ)     YGN           MMR11007131047450010470713000000000000000   10300005 00104100000000000000000000003400     
100   9503051872910522000000000001250000000001250000200000001041040713062916002353WRXNAP0713219412002353   1030000100030000   541120003106777031200000031GAMONE PWINT (BKLZ)    YGN           MMR11007130629160023530713000000000000000   10300002 00104100000000000000000000002500     
100   9503051024945251000000000003880000000003880000200000001041040713060338002364CPXINU0713219412002364   1030000100030000   541110001903777031200000019GAMONE PWINT (KBA)     YGN           MMR11007130603380023640713000000000000000   10300002 00104100000000000000000000007760     
100   35710500365448470000000000069400000000069400002000000010410407130621430023660714920713219412002366   1030000100030000   541110001903777031200000019GAMONE PWINT (KBA)     YGN           MMR11007130621430023660713000000000000000   10300005 00104100000000000000000000013880     
100   35710500365494990000000000054000000000054000002000000010410407131049480040910252440713219417004091   1030000100030000   541110001907777031200000019GAMONE PWINT (KBA)     YGN           MMR11007131049480040910713000000000000000   10300005 00104100000000000000000000010800     
100   35710500355574690000000000015000000000015000002000000010410407130925420017927858100713219415001792   1030000100030000   541110001920777031200000019GAMONE PWINT (KBA)     YGN           MMR11007130925420017920713000000000000000   10300005 00104100000000000000000000003000     
100   9503051889877953000000000001920800000001920800200000001041040713125956004095S5GSVP0713219419004095   1030000100030000   541110001907777031200000019GAMONE PWINT (KBA)     YGN           MMR11007131259560040950713000000000000000   10300002 00104100000000000000000000003842     
100   9503051872368283000000000001050000000001050000200000001041040713071730000711JBKOAR0713219413000711   1030000100030000   541120003111777031200000031GAMONE PWINT (BKLZ)    YGN           MMR11007130717300007110713000000000000000   10300002 00104100000000000000000000002100     
100   35710500305943350000000000028800000000028800002000000010410407130800100023696982110713219414002369   1030000100030000   541110001903777031200000019GAMONE PWINT (KBA)     YGN           MMR11007130800100023690713000000000000000   10300005 00104100000000000000000000005760     
100   35710500146205020000000000024000000000024000002000000010410407131128290007121117190713219417000712   1030000100030000   541120003111777031200000031GAMONE PWINT (BKLZ)    YGN           MMR11007131128290007120713000000000000000   10300005 00104100000000000000000000004800     
100   9503051025136165000000000001750000000001750000200000001041040713062941001788DSUUJ40713219412001788   1030000100030000   541110001920777031200000019GAMONE PWINT (KBA)     YGN           MMR11007130629410017880713000000000000000   10300002 00104100000000000000000000003500     
100   9503051026142873000000000002850000000002850000200000001041040713112535002356IERDAD0713219417002356   1030000100030000   541120003106777031200000031GAMONE PWINT (BKLZ)    YGN           MMR11007131125350023560713000000000000000   10300002 00104100000000000000000000005700     
100   9503051891538130000000000001215000000001215000200000001041040713114314000237Q8JRW90713219418000237   1030000100030000   541120003114777031200000031GAMONE PWINT (BKLZ)    YGN           MMR11007131143140002370713000000000000000   10300002 00104100000000000000000000002430     
100   35710830977126150000000000019000000000019000002000000010410407130533390005259042100713219412000525   1030000100030000   541120003105777031200000031GAMONE PWINT (BKLZ)    YGN           MMR11007130533390005250713000000000000000   10300003 00104100000000000000000000003800     
100   62346600184295020000000000006857000000006857002000000010410407130519250007454371930713219411000745   1030000100030000   541120003005777031200000030GAMONE PWINT (TGZ)     YGN           MMR11007130519250007450713000000000000000   10300005 00104100000000000000000000001372     
100   9503051024814655000000000002990000000002990000200000001041040713053712000746VQBPBK0713219412000746   1030000100030000   541120003005777031200000030GAMONE PWINT (TGZ)     YGN           MMR11007130537120007460713000000000000000   10300002 00104100000000000000000000005980     
100   35710500330747640000000000028100000000028100002000000010410407130743160024522697350713219414002452   1030000100030000   541120003117777031200000031GAMONE PWINT (BKLZ)    YGN           MMR11007130743160024520713000000000000000   10300005 00104100000000000000000000005620     
100   35710500330747640000000000043000000000043000002000000010410407130806180024548939320713219414002454   1030000100030000   541120003117777031200000031GAMONE PWINT (BKLZ)    YGN           MMR11007130806180024540713000000000000000   10300005 00104100000000000000000000008600     
100   9503051875037638000000000000615000000000615000200000001041040713050948004082NCYJ5E0713219411004082   1030000100030000   541110001907777031200000019GAMONE PWINT (KBA)     YGN           MMR11007130509480040820713000000000000000   10300002 00104100000000000000000000001230     
100   35710830876363110000000000010000000000010000002000000010410407131014550040840729700713219416004084   1030000100030000   541110001907777031200000019GAMONE PWINT (KBA)     YGN           MMR11007131014550040840713000000000000000   10300003 00104100000000000000000000002000     
100   9503051895122337000000000002050000000002050000200000001041040713053721000527EDVDSK0713219412000527   1030000100030000   541120003105777031200000031GAMONE PWINT (BKLZ)    YGN           MMR11007130537210005270713000000000000000   10300002 00104100000000000000000000004100     
100   9503051025513603000000000113830000000113830000200000001041040713125310000785KLFRWH0713219419000785   1030000100030000   581210001201777031200000012L OPERA RESTAURANT YGN YGN           MMR11007131253100007850713000000000000000   10300002 00104100000000000000000000387022     
100   62343302000779110000000000005047000000005047002000000010410407130859010007474846860713219415000747   1030000100030000   541120003005777031200000030GAMONE PWINT (TGZ)     YGN           MMR11007130859010007470713000000000000000   10300004 00104100000000000000000000001010     
100   9503051026120663000000000026080000000026080000200000001041040713075918001042WPZXDN0713219414001042   1030000100030000   541120003008777031200000030GAMONE PWINT (TGZ)     YGN           MMR11007130759180010420713000000000000000   10300002 00104100000000000000000000052160     
100   95030518898779530000000000051220000000051220002000000010410407131309200032122JVRGC0713219419003212   1030000100030000   541110001905777031200000019GAMONE PWINT (KBA)     YGN           MMR11007131309200032120713000000000000000   10300002 00104100000000000000000000010244     
