100   35710500395547690000000000027000000000027000002000000010410407141018280041213353640714219516004121   1030000100030000   541110001907777031200000019GAMONE PWINT (KBA)     YGN           MMR11007141018280041210714000000000000000   10300005 00104100000000000000000000005400     
100   9503051886756325000000000001250000000001250000200000001041040714121120001682SSG14E0714219518001682   1030000100030000   581250000001777031200000005AVENUE J COFFEE SHOP   YGN           MMR11007141211200016820714000000000000000   10300002 00104100000000000000000000004250     
100   35710830732187020000000000010400000000010400002000000010410407140716380018018300010714219513001801   1030000100030000   541110001920777031200000019GAMONE PWINT (KBA)     YGN           MMR11007140716380018010714000000000000000   10300003 00104100000000000000000000002080     
100   9503051897685828000000000003350000000003350000200000001041040714051104000512OEYIX20714219511000512   1030000100030000   541120003001777031200000030GAMONE PWINT (TGZ)     YGN           MMR11007140511040005120714000000000000000   10300002 00104100000000000000000000006700     
100   62444500100095790000000000041000000000041000002000000010410407141312170007221251020714219519000722   1030000100030000   541120003111777031200000031GAMONE PWINT (BKLZ)    YGN           MMR11007141312170007220714000000000000000   10300002 00104100000000000000000000014350     
100   9503051888959505000000000000800000000000800000200000001041040714071232000716VMELZT0714219513000716   1030000100030000   541120003111777031200000031GAMONE PWINT (BKLZ)    YGN           MMR11007140712320007160714000000000000000   10300002 00104100000000000000000000001600     
100   95030518865206220000000000023000000000023000002000000010410407140932040009823ELHRZ0714219516000982   1030000100030000   541120003103777031200000031GAMONE PWINT (BKLZ)    YGN           MMR11007140932040009820714000000000000000   10300002 00104100000000000000000000004600     
100   9503190003635317000000000001500000000001500000200000001041040714070438000513LZWTPH0714219513000513   1030000100030000   541120003001777031200000030GAMONE PWINT (TGZ)     YGN           MMR11007140704380005130714000000000000000   10300014 00104100000000000000000000003000     
100   9503051020151011000000000002160000000002160000200000001041040714085530000908PZDNFA0714219515000908   1030000100030000   541120003104777031200000031GAMONE PWINT (BKLZ)    YGN           MMR11007140855300009080714000000000000000   10300002 00104100000000000000000000004320     
100   35711410000248070000000000016150000000016150002000000010410407140535440016790469450714219512001679   1030000100030000   581250000001777031200000005AVENUE J COFFEE SHOP   YGN           MMR11007140535440016790714000000000000000   10200001 00104100000000000000000000005491     
100   35710500315691040000000000020500000000020500002000000010410407140833030007171457300714219515000717   1030000100030000   541120003111777031200000031GAMONE PWINT (BKLZ)    YGN           MMR11007140833030007170714000000000000000   10300005 00104100000000000000000000004100     
100   35710830131266350000000000055000000000055000002000000010410407140655170002728171920714219513000272   1030000100030000   541120000017777031200000002ZAW TI KA THINKAN TIKE YGN           MMR11007140655170002720714000000000000000   10300003 00104100000000000000000000011000     
100   35710950011429520000000000002500000000002500002000000010410407140729060005148374710714219513000514   1030000100030000   541120003001777031200000030GAMONE PWINT (TGZ)     YGN           MMR11007140729060005140714000000000000000   10300003 00104100000000000000000000000500     
100   35710830480841060000000000037500000000037500002000000010410407141208380007180052010714219518000718   1030000100030000   541120003111777031200000031GAMONE PWINT (BKLZ)    YGN           MMR11007141208380007180714000000000000000   10300003 00104100000000000000000000007500     
100   35710830597535730000000000010000000000010000002000000010410407141152140009849953520714219518000984   1030000100030000   541120003103777031200000031GAMONE PWINT (BKLZ)    YGN           MMR11007141152140009840714000000000000000   10300003 00104100000000000000000000002000     
100   9503051025744919000000000000230000000000230000200000001041040714104959000910GICE4W0714219517000910   1030000100030000   541120003104777031200000031GAMONE PWINT (BKLZ)    YGN           MMR11007141049590009100714000000000000000   10300002 00104100000000000000000000000460     
100   35711410000248070000000000017760000000017760002000000010410407140536230016802669840714219512001680   1030000100030000   581250000001777031200000005AVENUE J COFFEE SHOP   YGN           MMR11007140536230016800714000000000000000   10200001 00104100000000000000000000006038     
100   62622000908184240000000000078300000000078300002000000010410407140442510019197987260714219511001919   1030000100030000   541160000001777031200000006MK FASHION             YGN           MMR11007140442510019190714000000000000000   10300006 00104100000000000000000000015660     
100   9503190005489911000000000008970000000008970000200000001041040714105406000787S5U02I0714219517000787   1030000100030000   581210001201777031200000012L OPERA RESTAURANT YGN YGN           MMR11007141054060007870714000000000000000   10300014 00104100000000000000000000030498     
100   35710830869093620000000000015200000000015200002000000010410407141107510009129687400714219517000912   1030000100030000   541120003104777031200000031GAMONE PWINT (BKLZ)    YGN           MMR11007141107510009120714000000000000000   10300003 00104100000000000000000000003040     
100   62622000144024530000000000023173000000023173002000000010410407141002100007507957600714219516000750   1030000100030000   541120003005777031200000030GAMONE PWINT (TGZ)     YGN           MMR11007141002100007500714000000000000000   10300006 00104100000000000000000000004635     
100   9503051025143765000000000001300000000001300000200000001041040714062315000714QXQFOD0714219512000714   1030000100030000   541120003111777031200000031GAMONE PWINT (BKLZ)    YGN           MMR11007140623150007140714000000000000000   10300002 00104100000000000000000000002600     
100   9503051888914401000000000000720000000000720000200000001041040714054713001681GSDXJG0714219512001681   1030000100030000   581250000001777031200000005AVENUE J COFFEE SHOP   YGN           MMR11007140547130016810714000000000000000   10300002 00104100000000000000000000002448     
100   35710830428494880000000000058000000000058000002000000010410407140252320001506715310714219509000150   1030000100030000   541120000010777031200000002ZAW TI KA THINKAN TIKE YGN           MMR11007140252320001500714000000000000000   10300003 00104100000000000000000000011600     
100   62444500100095790000000000042000000000042000002000000010410407141248470007201244360714219519000720   1030000100030000   541120003111777031200000031GAMONE PWINT (BKLZ)    YGN           MMR11007141248470007200714000000000000000   10300002 00104100000000000000000000014700     
100   35710830419657800000000000027500000000027500002000000010410407140642490007158097030714219513000715   1030000100030000   541120003111777031200000031GAMONE PWINT (BKLZ)    YGN           MMR11007140642490007150714000000000000000   10300003 00104100000000000000000000005500     
100   9503051019859368000000000003500000000003500000200000001041040714052840000980TJ18TG0714219511000980   1030000100030000   541120003103777031200000031GAMONE PWINT (BKLZ)    YGN           MMR11007140528400009800714000000000000000   10300002 00104100000000000000000000007000     
100   9503051891438182000000000002700000000002700000200000001041040714060644002370YNG6WT0714219512002370   1030000100030000   541120003106777031200000031GAMONE PWINT (BKLZ)    YGN           MMR11007140606440023700714000000000000000   10300002 00104100000000000000000000005400     
100   9503051891192086000000000000150000000000150000200000001041040714103542004125EWKGMC0714219517004125   1030000100030000   541110001907777031200000019GAMONE PWINT (KBA)     YGN           MMR11007141035420041250714000000000000000   10300002 00104100000000000000000000000300     
100   9503051888133242000000000003380000000003380000200000001041040714065711002383HG62TF0714219513002383   1030000100030000   541110001903777031200000019GAMONE PWINT (KBA)     YGN           MMR11007140657110023830714000000000000000   10300002 00104100000000000000000000006760     
100   9503051025152899000000000001200000000001200000200000001041040714095336002460BY5GNN0714219516002460   1030000100030000   541120003117777031200000031GAMONE PWINT (BKLZ)    YGN           MMR11007140953360024600714000000000000000   10300002 00104100000000000000000000002400     
100   35710830634612960000000000014100000000014100002000000010410407141052590024629598110714219517002462   1030000100030000   541120003117777031200000031GAMONE PWINT (BKLZ)    YGN           MMR11007141052590024620714000000000000000   10300003 00104100000000000000000000002820     
100   35710830770702080000000000007742000000007742002000000010410407140343440041037022610714219510004103   1030000100030000   541110001907777031200000019GAMONE PWINT (KBA)     YGN           MMR11007140343440041030714000000000000000   10300003 00104100000000000000000000001548     
100   9503051019673041000000000007800000000007800000200000001041040714103822004127GWZKBK0714219517004127   1030000100030000   541110001907777031200000019GAMONE PWINT (KBA)     YGN           MMR11007141038220041270714000000000000000   10300002 00104100000000000000000000015600     
100   9503051890370832000000000001060000000001060000200000001041040714111954004129BFGEXR0714219517004129   1030000100030000   541110001907777031200000019GAMONE PWINT (KBA)     YGN           MMR11007141119540041290714000000000000000   10300002 00104100000000000000000000002120     
100   9503051024231157000000000000352800000000352800200000001041040714045504004107PKIQDJ0714219511004107   1030000100030000   541110001907777031200000019GAMONE PWINT (KBA)     YGN           MMR11007140455040041070714000000000000000   10300002 00104100000000000000000000000706     
100   9503051887341416000000000006140000000006140000200000001041040714072334002385GFZF1C0714219513002385   1030000100030000   541110001903777031200000019GAMONE PWINT (KBA)     YGN           MMR11007140723340023850714000000000000000   10300002 00104100000000000000000000012280     
100   9503051024231157000000000000382200000000382200200000001041040714044445003216K55UJU0714219511003216   1030000100030000   541110001905777031200000019GAMONE PWINT (KBA)     YGN           MMR11007140444450032160714000000000000000   10300002 00104100000000000000000000000764     
100   35710500325238520000000000019000000000019000002000000010410407141153220041326533370714219518004132   1030000100030000   541110001907777031200000019GAMONE PWINT (KBA)     YGN           MMR11007141153220041320714000000000000000   10300005 00104100000000000000000000003800     
100   35710830506077940000000000055600000000055600002000000010410407140951200023879228110714219516002387   1030000100030000   541110001903777031200000019GAMONE PWINT (KBA)     YGN           MMR11007140951200023870714000000000000000   10300003 00104100000000000000000000011120     
100   35710500332651640000000000012650000000012650002000000010410407140648090041105284280714219513004110   1030000100030000   541110001907777031200000019GAMONE PWINT (KBA)     YGN           MMR11007140648090041100714000000000000000   10300005 00104100000000000000000000002530     
100   35710830612567060000000000018130000000018130002000000010410407140740580041128446010714219514004112   1030000100030000   541110001907777031200000019GAMONE PWINT (KBA)     YGN           MMR11007140740580041120714000000000000000   10300003 00104100000000000000000000003626     
100   9503051025510674000000000003280000000003280000200000001041040714035022002375FZGH8D0714219510002375   1030000100030000   541110001903777031200000019GAMONE PWINT (KBA)     YGN           MMR11007140350220023750714000000000000000   10300002 00104100000000000000000000006560     
100   9503051894216494000000000002100000000002100000200000001041040714070350002376DEBN2Y0714219513002376   1030000100030000   541120003106777031200000031GAMONE PWINT (BKLZ)    YGN           MMR11007140703500023760714000000000000000   10300002 00104100000000000000000000004200     
100   9503051887621668000000000001140000000001140000200000001041040714112340003222CQYRTN0714219517003222   1030000100030000   541110001905777031200000019GAMONE PWINT (KBA)     YGN           MMR11007141123400032220714000000000000000   10300002 00104100000000000000000000002280     
100   9503051896514532000000000001900000000001900000200000001041040714095819004116W4QO0Z0714219516004116   1030000100030000   541110001907777031200000019GAMONE PWINT (KBA)     YGN           MMR11007140958190041160714000000000000000   10300002 00104100000000000000000000003800     
100   35710500331142710000000000184200000000184200002000000010410407140403020019176719250714219510001917   1030000100030000   541160000001777031200000006MK FASHION             YGN           MMR11007140403020019170714000000000000000   10300005 00104100000000000000000000036840     
100   9503051025100286000000000003280000000003280000200000001041040714062519002377J0KRKM0714219512002377   1030000100030000   541110001903777031200000019GAMONE PWINT (KBA)     YGN           MMR11007140625190023770714000000000000000   10300002 00104100000000000000000000006560     
100   9503051025492147000000000000676200000000676200200000001041040714101302004118OU0MGF0714219516004118   1030000100030000   541110001907777031200000019GAMONE PWINT (KBA)     YGN           MMR11007141013020041180714000000000000000   10300002 00104100000000000000000000001352     
100   35710500325446190000000000045800000000045800002000000010410407140636030023810827870714219513002381   1030000100030000   541110001903777031200000019GAMONE PWINT (KBA)     YGN           MMR11007140636030023810714000000000000000   10300005 00104100000000000000000000009160     
100   9503051019673041000000000007800000000007800000200000001041040714102742004123HJ2BDF0714219516004123   1030000100030000   541110001907777031200000019GAMONE PWINT (KBA)     YGN           MMR11007141027420041230714000000000000000   10300002 00104100000000000000000000015600     
100   9503051875434421000000000003250000000003250000200000001041040714072622002458W3JL250714219513002458   1030000100030000   541120003117777031200000031GAMONE PWINT (BKLZ)    YGN           MMR11007140726220024580714000000000000000   10300002 00104100000000000000000000006500     
