100   62441900002287360000000000007500000000007500002000000010410407150653020018193947230715219613001819   1030000100030000   541110001920777031200000019GAMONE PWINT (KBA)     YGN           MMR11007150653020018190715000000000000000   10300003 00104100000000000000000000002625     
100   62921400072281980000000000082560000000082560002000000010410407151157150001652222220715219618000165   1030000100030000   541120003112777031200000031GAMONE PWINT (BKLZ)    YGN           MMR11007151157150001650715000000000000000   10300009 00104100000000000000000000016512     
100   9503051891606085000000000002475000000002475000200000001041040715085151001684BOLPQ20715219615001684   1030000100030000   581250000001777031200000005AVENUE J COFFEE SHOP   YGN           MMR11007150851510016840715000000000000000   10300002 00104100000000000000000000008415     
100   9503051896886872000000000003145000000003145000200000001041040715091508001055W55NB40715219615001055   1030000100030000   541120003008777031200000030GAMONE PWINT (TGZ)     YGN           MMR11007150915080010550715000000000000000   10300002 00104100000000000000000000006290     
100   9503051023456243000000000000912000000000912000200000001041040715121214001829THFQH60715219618001829   1030000100030000   541110001920777031200000019GAMONE PWINT (KBA)     YGN           MMR11007151212140018290715000000000000000   10300002 00104100000000000000000000001824     
100   35710950441137470000000000001100000000001100002000000010410407150521240002396248600715219611000239   1030000100030000   541120003114777031200000031GAMONE PWINT (BKLZ)    YGN           MMR11007150521240002390715000000000000000   10300003 00104100000000000000000000000220     
100   9503051025123163000000000000166600000000166600200000001041040715070506000240FYT9RD0715219613000240   1030000100030000   541120003114777031200000031GAMONE PWINT (BKLZ)    YGN           MMR11007150705060002400715000000000000000   10300002 00104100000000000000000000000333     
100   95030510248084340000000000020500000000020500002000000010410407150922410018856L9R9X0715219615001885   1030000100030000   541110001915777031200000019GAMONE PWINT (KBA)     YGN           MMR11007150922410018850715000000000000000   10300002 00104100000000000000000000004100     
100   62343302006426310000000000235000000000235000002000000010410407150826260000147022830715219614000014   1030000100030000   541110900005777030900000004ZAW TI KA (MANDALAY)   MDY           MMR11007150826260000140715000000000000000   10300004 00104100000000000000000000047000     
100   35710500364961470000000000027000000000027000002000000010410407150541060002757306540715219612000275   1030000100030000   541120000017777031200000002ZAW TI KA THINKAN TIKE YGN           MMR11007150541060002750715000000000000000   10300005 00104100000000000000000000005400     
100   35710500382801270000000000065200000000065200002000000010410407151328560000435174410715219619000043   1030000100030000   701120003701777031200000037PRINCE HOTEL YANGON    YGN           MMR11007151328560000430715000000000000000   10300005 00104100000000000000000000022168     
100   35710830005356990000000000004000000000004000002000000010410407151254050005218964610715219619000521   1030000100030000   541120003001777031200000030GAMONE PWINT (TGZ)     YGN           MMR11007151254050005210715000000000000000   10300003 00104100000000000000000000000800     
100   62444500200571130000000000011520000000011520002000000010410407151148390018241839010715219618001824   1030000100030000   541110001920777031200000019GAMONE PWINT (KBA)     YGN           MMR11007151148390018240715000000000000000   10300002 00104100000000000000000000004032     
100   35710500333660120000000000008750000000008750002000000010410407151042500007535373170715219617000753   1030000100030000   541120003005777031200000030GAMONE PWINT (TGZ)     YGN           MMR11007151042500007530715000000000000000   10300005 00104100000000000000000000001750     
100   35710500314052830000000000004850000000004850002000000010410407151009230010638711440715219616001063   1030000100030000   541120003008777031200000030GAMONE PWINT (TGZ)     YGN           MMR11007151009230010630715000000000000000   10300005 00104100000000000000000000000970     
100   9503051888743537000000000003630000000003630000200000001041040715061835001054HV0O1Y0715219612001054   1030000100030000   581210001501777031200000015ROYAL GARDEN PREMIER   YGN           MMR11007150618350010540715000000000000000   10300002 00104100000000000000000000012342     
100   9503190006134581000000000004075000000004075000200000001041040715091721001057DCMH410715219615001057   1030000100030000   541120003008777031200000030GAMONE PWINT (TGZ)     YGN           MMR11007150917210010570715000000000000000   10300014 00104100000000000000000000008150     
100   9503051025241916000000000000969600000000969600200000001041040715043753001876TXXMDS0715219611001876   1030000100030000   541110001915777031200000019GAMONE PWINT (KBA)     YGN           MMR11007150437530018760715000000000000000   10300002 00104100000000000000000000001939     
100   9503190006307500000000000002820000000002820000200000001041040715115753000241T7YE280715219618000241   1030000100030000   541120003114777031200000031GAMONE PWINT (BKLZ)    YGN           MMR11007151157530002410715000000000000000   10300014 00104100000000000000000000005640     
100   35710500363266740000000000134750000000134750002000000010410407150630240005188518610715219613000518   1030000100030000   541120003001777031200000030GAMONE PWINT (TGZ)     YGN           MMR11007150630240005180715000000000000000   10300005 00104100000000000000000000026950     
100   35710830282444980000000000046700000000046700002000000010410407150959500000217919200715219616000021   1030000100030000   541120000015777031200000002ZAW TI KA THINKAN TIKE YGN           MMR11007150959500000210715000000000000000   10300003 00104100000000000000000000009340     
100   95030518893329830000000000021500000000021500002000000010410407151048480005360B0K3Y0715219617000536   1030000100030000   541120003105777031200000031GAMONE PWINT (BKLZ)    YGN           MMR11007151048480005360715000000000000000   10300002 00104100000000000000000000004300     
100   35710500333319660000000000004608000000004608002000000010410407150920550010594478310715219615001059   1030000100030000   541120003008777031200000030GAMONE PWINT (TGZ)     YGN           MMR11007150920550010590715000000000000000   10300005 00104100000000000000000000000922     
100   9503051875153799000000000001480000000001480000200000001041040715091230001883NHCFOE0715219615001883   1030000100030000   541110001915777031200000019GAMONE PWINT (KBA)     YGN           MMR11007150912300018830715000000000000000   10300002 00104100000000000000000000002960     
100   35710830084519150000000000450000000000450000002000000010410407150541000023966366210715219612002396   1030000100030000   541110001903777031200000019GAMONE PWINT (KBA)     YGN           MMR11007150541000023960715000000000000000   10300003 00104100000000000000000000090000     
100   35710830134136110000000000015000000000015000002000000010410407151209410024718698300715219618002471   1030000100030000   541120003117777031200000031GAMONE PWINT (BKLZ)    YGN           MMR11007151209410024710715000000000000000   10300003 00104100000000000000000000003000     
100   9503051020299067000000000002000000000002000000200000001041040715121232002411OTALGX0715219618002411   1030000100030000   541110001903777031200000019GAMONE PWINT (KBA)     YGN           MMR11007151212320024110715000000000000000   10300002 00104100000000000000000000004000     
100   62441900002287360000000000044800000000044800002000000010410407150600320023989809220715219612002398   1030000100030000   541110001903777031200000019GAMONE PWINT (KBA)     YGN           MMR11007150600320023980715000000000000000   10300003 00104100000000000000000000015680     
100   35710900070124810000000000032800000000032800002000000010410407150651460024006790810715219613002400   1030000100030000   541110001903777031200000019GAMONE PWINT (KBA)     YGN           MMR11007150651460024000715000000000000000   10300003 00104100000000000000000000006560     
100   9503051024175230000000000000385000000000385000200000001041040715090226003235HI51MQ0715219615003235   1030000100030000   541110001905777031200000019GAMONE PWINT (KBA)     YGN           MMR11007150902260032350715000000000000000   10300002 00104100000000000000000000000770     
100   35710500362940880000000000059000000000059000002000000010410407150709470041353740420715219613004135   1030000100030000   541110001907777031200000019GAMONE PWINT (KBA)     YGN           MMR11007150709470041350715000000000000000   10300005 00104100000000000000000000011800     
100   35710500162550340000000000027000000000027000002000000010410407150526400023861250910715219611002386   1030000100030000   541120003106777031200000031GAMONE PWINT (BKLZ)    YGN           MMR11007150526400023860715000000000000000   10300005 00104100000000000000000000005400     
100   35710500108090670000000000021000000000021000002000000010410407151117130024681799130715219617002468   1030000100030000   541120003117777031200000031GAMONE PWINT (BKLZ)    YGN           MMR11007151117130024680715000000000000000   10300005 00104100000000000000000000004200     
100   950305102542499100000000000235000000000235000020000000104104071503490700322996PUCD0715219610003229   1030000100030000   541110001905777031200000019GAMONE PWINT (KBA)     YGN           MMR11007150349070032290715000000000000000   10300002 00104100000000000000000000004700     
100   9503051884255783000000000004370000000004370000200000001041040715092836003237GP2YU10715219615003237   1030000100030000   541110001905777031200000019GAMONE PWINT (KBA)     YGN           MMR11007150928360032370715000000000000000   10300002 00104100000000000000000000008740     
100   9503054000776435000000000002300000000002300000200000001041040715074959002390HGK51G0715219614002390   1030000100030000   541120003106777031200000031GAMONE PWINT (BKLZ)    YGN           MMR11007150749590023900715000000000000000   10300002 00104100000000000000000000004600     
100   9503051873063644000000000001800000000001800000200000001041040715091230002403HB8XUZ0715219615002403   1030000100030000   541110001903777031200000019GAMONE PWINT (KBA)     YGN           MMR11007150912300024030715000000000000000   10300002 00104100000000000000000000003600     
100   62622000455294720000000000228200000000228200002000000010410407150830400041377918400715219615004137   1030000100030000   541110001907777031200000019GAMONE PWINT (KBA)     YGN           MMR11007150830400041370715000000000000000   10300006 00104100000000000000000000045640     
100   62622000455294720000000000170000000000170000002000000010410407150841340041419102260715219615004141   1030000100030000   541110001907777031200000019GAMONE PWINT (KBA)     YGN           MMR11007150841340041410715000000000000000   10300006 00104100000000000000000000034000     
100   9503051875153799000000000004960000000004960000200000001041040715105644002405KDVI130715219617002405   1030000100030000   541110001903777031200000019GAMONE PWINT (KBA)     YGN           MMR11007151056440024050715000000000000000   10300002 00104100000000000000000000009920     
100   35710500340355250000000000015000000000015000002000000010410407150428510023835795750715219610002383   1030000100030000   541120003106777031200000031GAMONE PWINT (BKLZ)    YGN           MMR11007150428510023830715000000000000000   10300005 00104100000000000000000000003000     
100   9503051024425031000000000001550000000001550000200000001041040715050324002394PQJOEN0715219611002394   1030000100030000   541110001903777031200000019GAMONE PWINT (KBA)     YGN           MMR11007150503240023940715000000000000000   10300002 00104100000000000000000000003100     
100   95030518751537990000000000025800000000025800002000000010410407151113250024076YVQIT0715219617002407   1030000100030000   541110001903777031200000019GAMONE PWINT (KBA)     YGN           MMR11007151113250024070715000000000000000   10300002 00104100000000000000000000005160     
100   35710500165159240000000000038800000000038800002000000010410407150307580023923119750715219609002392   1030000100030000   541110001903777031200000019GAMONE PWINT (KBA)     YGN           MMR11007150307580023920715000000000000000   10300005 00104100000000000000000000007760     
100   62343302008993140000000000005000000000005000002000000010410407150450180018788844050715219611001878   1030000100030000   541110001915777031200000019GAMONE PWINT (KBA)     YGN           MMR11007150450180018780715000000000000000   10300004 00104100000000000000000000001000     
100   35710500314053170000000000035500000000035500002000000010410407150845410041433967070715219615004143   1030000100030000   541110001907777031200000019GAMONE PWINT (KBA)     YGN           MMR11007150845410041430715000000000000000   10300005 00104100000000000000000000007100     
100   35710830002602150000000000118200000000118200002000000010410407151103570041478303810715219617004147   1030000100030000   541110001907777031200000019GAMONE PWINT (KBA)     YGN           MMR11007151103570041470715000000000000000   10300003 00104100000000000000000000023640     
100   9503051872492406000000000000800000000000800000200000001041040715085709003232OOVGQI0715219615003232   1030000100030000   541110001905777031200000019GAMONE PWINT (KBA)     YGN           MMR11007150857090032320715000000000000000   10300002 00104100000000000000000000001600     
100   9503051024378693000000000001392000000001392000200000001041040715054149001817JD50GX0715219612001817   1030000100030000   541110001920777031200000019GAMONE PWINT (KBA)     YGN           MMR11007150541490018170715000000000000000   10300002 00104100000000000000000000002784     
100   35710500375452230000000000006100000000006100002000000010410407150546470018807597480715219612001880   1030000100030000   541110001915777031200000019GAMONE PWINT (KBA)     YGN           MMR11007150546470018800715000000000000000   10300005 00104100000000000000000000001220     
100   35710500385905580000000000057375000000057375002000000010410407151258020016851739250715219619001685   1030000100030000   581250000001777031200000005AVENUE J COFFEE SHOP   YGN           MMR11007151258020016850715000000000000000   10300005 00104100000000000000000000019508     
100   35710500110308460000000000020100000000020100002000000010410407150347460018731398320715219610001873   1030000100030000   541110001915777031200000019GAMONE PWINT (KBA)     YGN           MMR11007150347460018730715000000000000000   10300005 00104100000000000000000000004020     
100   35710500363877180000000000008000000000008000002000000010410407150420140018755356480715219610001875   1030000100030000   541110001915777031200000019GAMONE PWINT (KBA)     YGN           MMR11007150420140018750715000000000000000   10300005 00104100000000000000000000001600     
100   35710500315815540000000000029500000000029500002000000010410407150653210010523497920715219613001052   1030000100030000   541120003008777031200000030GAMONE PWINT (TGZ)     YGN           MMR11007150653210010520715000000000000000   10300005 00104100000000000000000000005900     
