100   35710500355797600000000000002500000000002500002000000010410407160406280010709262450716219710001070   1030000100030000   541120003008777031200000030GAMONE PWINT (TGZ)     YGN           MMR11007160406280010700716000000000000000   10300005 00104100000000000000000000000500     
100   35710500302761980000000000055000000000055000002000000010410407161009070002790913110716219716000279   1030000100030000   541120000017777031200000002ZAW TI KA THINKAN TIKE YGN           MMR11007161009070002790716000000000000000   10300005 00104100000000000000000000011000     
100   9503051024337038000000000002300000000002300000200000001041040716044650002398YK5L0G0716219711002398   1030000100030000   541120003106777031200000031GAMONE PWINT (BKLZ)    YGN           MMR11007160446500023980716000000000000000   10300002 00104100000000000000000000004600     
100   9503051026241485000000000002421000000002421000200000001041040716044256002478EILOAQ0716219711002478   1030000100030000   541120003117777031200000031GAMONE PWINT (BKLZ)    YGN           MMR11007160442560024780716000000000000000   10300002 00104100000000000000000000004842     
100   95031100019468960000000000044900000000044900002000000010410407160957540041839104490716219716004183   1030000100030000   541110001907777031200000019GAMONE PWINT (KBA)     YGN           MMR11007160957540041830716000000000000000   10300006 00104100000000000000000000008980     
100   9503051894939285000000000001750000000001750000200000001041040716061806001839HIXKAZ0716219712001839   1030000100030000   541110001920777031200000019GAMONE PWINT (KBA)     YGN           MMR11007160618060018390716000000000000000   10300002 00104100000000000000000000003500     
100   35710830936624670000000000058600000000058600002000000010410407161007270024506604910716219716002450   1030000100030000   541110001903777031200000019GAMONE PWINT (KBA)     YGN           MMR11007161007270024500716000000000000000   10300003 00104100000000000000000000011720     
100   35710830653862510000000000022800000000022800002000000010410407160317250032404144610716219709003240   1030000100030000   541110001905777031200000019GAMONE PWINT (KBA)     YGN           MMR11007160317250032400716000000000000000   10300003 00104100000000000000000000004560     
100   35710830653862510000000000042000000000042000002000000010410407160324440032424188530716219709003242   1030000100030000   541110001905777031200000019GAMONE PWINT (KBA)     YGN           MMR11007160324440032420716000000000000000   10300003 00104100000000000000000000008400     
100   35710830136855640000000000020490000000020490002000000010410407160442320032444655410716219711003244   1030000100030000   541110001905777031200000019GAMONE PWINT (KBA)     YGN           MMR11007160442320032440716000000000000000   10300003 00104100000000000000000000004098     
100   35710830318158210000000000018800000000018800002000000010410407160658270032475470810716219713003247   1030000100030000   541110001905777031200000019GAMONE PWINT (KBA)     YGN           MMR11007160658270032470716000000000000000   10300003 00104100000000000000000000003760     
100   35710500324252640000000000130000000000130000002000000010410407160527190041531423860716219711004153   1030000100030000   541110001907777031200000019GAMONE PWINT (KBA)     YGN           MMR11007160527190041530716000000000000000   10300005 00104100000000000000000000026000     
100   35710500325308240000000000019112000000019112002000000010410407160904130019088502240716219715001908   1030000100030000   541110001915777031200000019GAMONE PWINT (KBA)     YGN           MMR11007160904130019080716000000000000000   10300005 00104100000000000000000000003822     
100   35710830381908630000000000064800000000064800002000000010410407160632000024305312110716219713002430   1030000100030000   541110001903777031200000019GAMONE PWINT (KBA)     YGN           MMR11007160632000024300716000000000000000   10300003 00104100000000000000000000012960     
100   35710830318158210000000000040800000000040800002000000010410407160637580024325348010716219713002432   1030000100030000   541110001903777031200000019GAMONE PWINT (KBA)     YGN           MMR11007160637580024320716000000000000000   10300003 00104100000000000000000000008160     
100   35710830207816380000000000019000000000019000002000000010410407160450230024814702500716219711002481   1030000100030000   541120003117777031200000031GAMONE PWINT (BKLZ)    YGN           MMR11007160450230024810716000000000000000   10300003 00104100000000000000000000003800     
100   95030510227882080000000000015000000000015000002000000010410407160748210024071JNCJ70716219714002407   1030000100030000   541120003106777031200000031GAMONE PWINT (BKLZ)    YGN           MMR11007160748210024070716000000000000000   10300002 00104100000000000000000000003000     
100   9503051890007343000000000002550000000002550000200000001041040716060224002483UP4QJM0716219712002483   1030000100030000   541120003117777031200000031GAMONE PWINT (BKLZ)    YGN           MMR11007160602240024830716000000000000000   10300002 00104100000000000000000000005100     
100   9503051023441575000000000025980000000025980000200000001041040716054558004155G2SXHW0716219712004155   1030000100030000   541110001907777031200000019GAMONE PWINT (KBA)     YGN           MMR11007160545580041550716000000000000000   10300002 00104100000000000000000000051960     
100   9503051892922119000000000007500000000007500000200000001041040716115306004187BW8YXV0716219718004187   1030000100030000   541110001907777031200000019GAMONE PWINT (KBA)     YGN           MMR11007161153060041870716000000000000000   10300002 00104100000000000000000000015000     
100   35710500191641830000000000035900000000035900002000000010410407161201330024557531340716219718002455   1030000100030000   541110001903777031200000019GAMONE PWINT (KBA)     YGN           MMR11007161201330024550716000000000000000   10300005 00104100000000000000000000007180     
100   35710500360660800000000000019600000000019600002000000010410407160743180032496074050716219714003249   1030000100030000   541110001905777031200000019GAMONE PWINT (KBA)     YGN           MMR11007160743180032490716000000000000000   10300005 00104100000000000000000000003920     
100   35710830032865300000000000037400000000037400002000000010410407160804180032545865920716219714003254   1030000100030000   541110001905777031200000019GAMONE PWINT (KBA)     YGN           MMR11007160804180032540716000000000000000   10300003 00104100000000000000000000007480     
100   35710500184647250000000000022800000000022800002000000010410407161121350032561646900716219717003256   1030000100030000   541110001905777031200000019GAMONE PWINT (KBA)     YGN           MMR11007161121350032560716000000000000000   10300005 00104100000000000000000000004560     
100   9503051888213838000000000001420000000001420000200000001041040716121010003258GUAOWF0716219718003258   1030000100030000   541110001905777031200000019GAMONE PWINT (KBA)     YGN           MMR11007161210100032580716000000000000000   10300002 00104100000000000000000000002840     
100   9503051024304509000000000000120000000000120000200000001041040716061905004158TVNESQ0716219712004158   1030000100030000   541110001907777031200000019GAMONE PWINT (KBA)     YGN           MMR11007160619050041580716000000000000000   10300002 00104100000000000000000000000240     
100   35710830318158210000000000012000000000012000002000000010410407160648540041615413510716219713004161   1030000100030000   541110001907777031200000019GAMONE PWINT (KBA)     YGN           MMR11007160648540041610716000000000000000   10300003 00104100000000000000000000002400     
100   62921400065270200000000000018300000000018300002000000010410407160710450019022222220716219713001902   1030000100030000   541110001915777031200000019GAMONE PWINT (KBA)     YGN           MMR11007160710450019020716000000000000000   10300009 00104100000000000000000000003660     
100   62346600122183310000000000027700000000027700002000000010410407161008390019101253490716219716001910   1030000100030000   541110001915777031200000019GAMONE PWINT (KBA)     YGN           MMR11007161008390019100716000000000000000   10300005 00104100000000000000000000005540     
100   95030800008005030000000000009900000000009900002000000010410407161310480025007705000716219719002500   1030000100030000   541120003117777031200000031GAMONE PWINT (BKLZ)    YGN           MMR11007161310480025000716000000000000000   10300003 00104100000000000000000000001980     
100   62346600150318300000000000045800000000045800002000000010410407160726190024347940450716219713002434   1030000100030000   541110001903777031200000019GAMONE PWINT (KBA)     YGN           MMR11007160726190024340716000000000000000   10300005 00104100000000000000000000009160     
100   9503051024643708000000000000540000000000540000200000001041040716122225001916ABT6VX0716219718001916   1030000100030000   541110001915777031200000019GAMONE PWINT (KBA)     YGN           MMR11007161222250019160716000000000000000   10300002 00104100000000000000000000001080     
100   9503051022788208000000000001050000000001050000200000001041040716075447002409EAQUFY0716219714002409   1030000100030000   541120003106777031200000031GAMONE PWINT (BKLZ)    YGN           MMR11007160754470024090716000000000000000   10300002 00104100000000000000000000002100     
100   35710830191877220000000000015000000000015000002000000010410407160757580024115827910716219714002411   1030000100030000   541120003106777031200000031GAMONE PWINT (BKLZ)    YGN           MMR11007160757580024110716000000000000000   10300003 00104100000000000000000000003000     
100   35710500314052670000000000109300000000109300002000000010410407160633100024887927660716219713002488   1030000100030000   541120003117777031200000031GAMONE PWINT (BKLZ)    YGN           MMR11007160633100024880716000000000000000   10300005 00104100000000000000000000021860     
100   9503051024643708000000000006100000000006100000200000001041040716121108004192FGQBBN0716219718004192   1030000100030000   541110001907777031200000019GAMONE PWINT (KBA)     YGN           MMR11007161211080041920716000000000000000   10300002 00104100000000000000000000012200     
100   35710500150831710000000000019000000000019000002000000010410407160715110041646579910716219713004164   1030000100030000   541110001907777031200000019GAMONE PWINT (KBA)     YGN           MMR11007160715110041640716000000000000000   10300005 00104100000000000000000000003800     
100   9503051894089263000000000010480000000010480000200000001041040716081318004166JRHWMP0716219714004166   1030000100030000   541110001907777031200000019GAMONE PWINT (KBA)     YGN           MMR11007160813180041660716000000000000000   10300002 00104100000000000000000000020960     
100   9503051024320497000000000001040000000001040000200000001041040716104102001842N3GXSV0716219717001842   1030000100030000   541110001920777031200000019GAMONE PWINT (KBA)     YGN           MMR11007161041020018420716000000000000000   10300002 00104100000000000000000000002080     
100   62343301017138610000000000060800000000060800002000000010410407161215440024578032280716219718002457   1030000100030000   541110001903777031200000019GAMONE PWINT (KBA)     YGN           MMR11007161215440024570716000000000000000   10300004 00104100000000000000000000012160     
100   35710500391492140000000000036000000000036000002000000010410407161300300032603644490716219719003260   1030000100030000   541110001905777031200000019GAMONE PWINT (KBA)     YGN           MMR11007161300300032600716000000000000000   10300005 00104100000000000000000000007200     
100   35710830733113330000000000032900000000032900002000000010410407161313410025017722220716219719002501   1030000100030000   541120003117777031200000031GAMONE PWINT (BKLZ)    YGN           MMR11007161313410025010716000000000000000   10300003 00104100000000000000000000006580     
100   95030518951693950000000000045800000000045800002000000010410407160740090024367JF5RK0716219714002436   1030000100030000   541110001903777031200000019GAMONE PWINT (KBA)     YGN           MMR11007160740090024360716000000000000000   10300002 00104100000000000000000000009160     
100   9503051895169395000000000003780000000003780000200000001041040716074552002438V2ZJLB0716219714002438   1030000100030000   541110001903777031200000019GAMONE PWINT (KBA)     YGN           MMR11007160745520024380716000000000000000   10300002 00104100000000000000000000007560     
100   35710500391492140000000000007500000000007500002000000010410407161305580032624330970716219719003262   1030000100030000   541110001905777031200000019GAMONE PWINT (KBA)     YGN           MMR11007161305580032620716000000000000000   10300005 00104100000000000000000000001500     
100   35710500324252640000000000050500000000050500002000000010410407160405180018976284050716219710001897   1030000100030000   541110001915777031200000019GAMONE PWINT (KBA)     YGN           MMR11007160405180018970716000000000000000   10300005 00104100000000000000000000010100     
100   35710500335460680000000000023900000000023900002000000010410407161000570024149068560716219716002414   1030000100030000   541120003106777031200000031GAMONE PWINT (BKLZ)    YGN           MMR11007161000570024140716000000000000000   10300005 00104100000000000000000000004780     
100   35710830602993680000000000005900000000005900002000000010410407160817100024915943210716219714002491   1030000100030000   541120003117777031200000031GAMONE PWINT (BKLZ)    YGN           MMR11007160817100024910716000000000000000   10300003 00104100000000000000000000001180     
100   35710500101984870000000000024700000000024700002000000010410407161219030041953155780716219718004195   1030000100030000   541110001907777031200000019GAMONE PWINT (KBA)     YGN           MMR11007161219030041950716000000000000000   10300005 00104100000000000000000000004940     
100   35710500391492140000000000010000000000010000002000000010410407161254250041999247060716219719004199   1030000100030000   541110001907777031200000019GAMONE PWINT (KBA)     YGN           MMR11007161254250041990716000000000000000   10300005 00104100000000000000000000002000     
100   35710500126289370000000000045500000000045500002000000010410407160834550041704136340716219715004170   1030000100030000   541110001907777031200000019GAMONE PWINT (KBA)     YGN           MMR11007160834550041700716000000000000000   10300005 00104100000000000000000000009100     
100   9503051025590254000000000003200000000003200000200000001041040716090343004174GSGUEG0716219715004174   1030000100030000   541110001907777031200000019GAMONE PWINT (KBA)     YGN           MMR11007160903430041740716000000000000000   10300002 00104100000000000000000000006400     
100   35710830695434280000000000013300000000013300002000000010410407160333540018924243510716219710001892   1030000100030000   541110001915777031200000019GAMONE PWINT (KBA)     YGN           MMR11007160333540018920716000000000000000   10300003 00104100000000000000000000002660     
100   35710500150779000000000000033000000000033000002000000010410407161123470018450845380716219717001845   1030000100030000   541110001920777031200000019GAMONE PWINT (KBA)     YGN           MMR11007161123470018450716000000000000000   10300005 00104100000000000000000000006600     
100   9503051886420542000000000001230000000001230000200000001041040716073217001904A5YRSF0716219714001904   1030000100030000   541110001915777031200000019GAMONE PWINT (KBA)     YGN           MMR11007160732170019040716000000000000000   10300002 00104100000000000000000000002460     
100   35710830869209550000000000006144000000006144002000000010410407161139230019127156520716219718001912   1030000100030000   541110001915777031200000019GAMONE PWINT (KBA)     YGN           MMR11007161139230019120716000000000000000   10300003 00104100000000000000000000001229     
100   62622000723226680000000000008000000000008000002000000010410407160329490018359013330716219709001835   1030000100030000   541110001920777031200000019GAMONE PWINT (KBA)     YGN           MMR11007160329490018350716000000000000000   10300006 00104100000000000000000000001600     
100   9503051895169395000000000003390000000003390000200000001041040716075019002440WPXWPB0716219714002440   1030000100030000   541110001903777031200000019GAMONE PWINT (KBA)     YGN           MMR11007160750190024400716000000000000000   10300002 00104100000000000000000000006780     
100   62622000290532750000000000020000000000020000002000000010410407160850460024429143730716219715002442   1030000100030000   541110001903777031200000019GAMONE PWINT (KBA)     YGN           MMR11007160850460024420716000000000000000   10300006 00104100000000000000000000004000     
100   9503051025590254000000000006480000000006480000200000001041040716085320002444NMQ6UC0716219715002444   1030000100030000   541110001903777031200000019GAMONE PWINT (KBA)     YGN           MMR11007160853200024440716000000000000000   10300002 00104100000000000000000000012960     
100   35710830963810990000000000008400000000008400002000000010410407160421310024754529300716219710002475   1030000100030000   541120003117777031200000031GAMONE PWINT (BKLZ)    YGN           MMR11007160421310024750716000000000000000   10300003 00104100000000000000000000001680     
100   95031800503187500000000000015000000000015000002000000010410407160837410024935146020716219715002493   1030000100030000   541120003117777031200000031GAMONE PWINT (BKLZ)    YGN           MMR11007160837410024930716000000000000000   10300013 00104100000000000000000000003000     
100   9503051024091528000000000006000000000006000000200000001041040716092135004178FXXHKP0716219715004178   1030000100030000   541110001907777031200000019GAMONE PWINT (KBA)     YGN           MMR11007160921350041780716000000000000000   10300002 00104100000000000000000000012000     
100   35710500126289370000000000003800000000003800002000000010410407160739180019063414200716219714001906   1030000100030000   541110001915777031200000019GAMONE PWINT (KBA)     YGN           MMR11007160739180019060716000000000000000   10300005 00104100000000000000000000000760     
100   35710500101984870000000000022100000000022100002000000010410407161149220018506800080716219718001850   1030000100030000   541110001920777031200000019GAMONE PWINT (KBA)     YGN           MMR11007161149220018500716000000000000000   10300005 00104100000000000000000000004420     
100   9503051885625091000000000002725700000002725700200000001041040716092359002446VW3JNP0716219715002446   1030000100030000   541110001903777031200000019GAMONE PWINT (KBA)     YGN           MMR11007160923590024460716000000000000000   10300002 00104100000000000000000000005452     
100   35710900133797670000000000008000000000008000002000000010410407160931010024486386220716219716002448   1030000100030000   541110001903777031200000019GAMONE PWINT (KBA)     YGN           MMR11007160931010024480716000000000000000   10300003 00104100000000000000000000001600     
100   9503051026637310000000000002280000000002280000200000001041040716034033002422XKGBJS0716219710002422   1030000100030000   541110001903777031200000019GAMONE PWINT (KBA)     YGN           MMR11007160340330024220716000000000000000   10300002 00104100000000000000000000004560     
100   9503051020120636000000000003580000000003580000200000001041040716041354002424CIXC3A0716219710002424   1030000100030000   541110001903777031200000019GAMONE PWINT (KBA)     YGN           MMR11007160413540024240716000000000000000   10300002 00104100000000000000000000007160     
100   62346600180879120000000000044900000000044900002000000010410407160512020024268484010716219711002426   1030000100030000   541110001903777031200000019GAMONE PWINT (KBA)     YGN           MMR11007160512020024260716000000000000000   10300005 00104100000000000000000000008980     
100   35710500161956020000000000010500000000010500002000000010410407160948150024979759180716219716002497   1030000100030000   541120003117777031200000031GAMONE PWINT (BKLZ)    YGN           MMR11007160948150024970716000000000000000   10300005 00104100000000000000000000002100     
100   95031100019468960000000000039500000000039500002000000010410407160934480041809134090716219716004180   1030000100030000   541110001907777031200000019GAMONE PWINT (KBA)     YGN           MMR11007160934480041800716000000000000000   10300006 00104100000000000000000000007900     
100   35710500126491980000000000011000000000011000002000000010410407160622470019002418260716219712001900   1030000100030000   541110001915777031200000019GAMONE PWINT (KBA)     YGN           MMR11007160622470019000716000000000000000   10300005 00104100000000000000000000002200     
100   9503051024643708000000000001360000000001360000200000001041040716122031001914NCNHUJ0716219718001914   1030000100030000   541110001915777031200000019GAMONE PWINT (KBA)     YGN           MMR11007161220310019140716000000000000000   10300002 00104100000000000000000000002720     
100   9503051022639617000000000002120000000002120000200000001041040716033812001894I0JIXQ0716219710001894   1030000100030000   541110001915777031200000019GAMONE PWINT (KBA)     YGN           MMR11007160338120018940716000000000000000   10300002 00104100000000000000000000004240     
100   35710830936624670000000000012500000000012500002000000010410407161012550024526637620716219716002452   1030000100030000   541110001903777031200000019GAMONE PWINT (KBA)     YGN           MMR11007161012550024520716000000000000000   10300003 00104100000000000000000000002500     
100   35710830265117400000000000003773000000003773002000000010410407160752370032525795900716219714003252   1030000100030000   541110001905777031200000019GAMONE PWINT (KBA)     YGN           MMR11007160752370032520716000000000000000   10300003 00104100000000000000000000000755     
100   35710500112066020000000000016955000000016955002000000010410407151200430002159085120715219618000215   1030000100030000   541120003101777031200000031GAMONE PWINT (BKLZ)    YGN           MMR11007151200430002150715000000000000000   10300005 00104100000000000000000000003391     
100   9503051896467590000000000002300000000002300000200000001041040716084544000480N5G2IJ0716219715000480   1030000100030000   541120003013777031200000030GAMONE PWINT (TGZ)     YGN           MMR11007160845440004800716000000000000000   10300002 00104100000000000000000000004600     
100   35710500373834350000000000040500000000040500002000000010410407161041070010869173390716219717001086   1030000100030000   541120003008777031200000030GAMONE PWINT (TGZ)     YGN           MMR11007161041070010860716000000000000000   10300005 00104100000000000000000000008100     
100   9503051872697616000000000003890000000003890000200000001041040716082221000494UXILYR0716219714000494   1030000100030000   541120003012777031200000030GAMONE PWINT (TGZ)     YGN           MMR11007160822210004940716000000000000000   10300002 00104100000000000000000000007780     
100   35710950917126070000000000007500000000007500002000000010410407161138400007267152120716219718000726   1030000100030000   541120003111777031200000031GAMONE PWINT (BKLZ)    YGN           MMR11007161138400007260716000000000000000   10300003 00104100000000000000000000001500     
100   950305189275080900000000000610000000000610000020000000104104071607015600107335DA3K0716219713001073   1030000100030000   541120003008777031200000030GAMONE PWINT (TGZ)     YGN           MMR11007160701560010730716000000000000000   10300002 00104100000000000000000000012200     
100   35710830634612960000000000031100000000031100002000000010410407161140050009187160610716219718000918   1030000100030000   541120003104777031200000031GAMONE PWINT (BKLZ)    YGN           MMR11007161140050009180716000000000000000   10300003 00104100000000000000000000006220     
100   62441900003092960000000000173000000000173000002000000010410407161046180002611789970716219717000261   1030000100030000   541120003006777031200000030GAMONE PWINT (TGZ)     YGN           MMR11007161046180002610716000000000000000   10300003 00104100000000000000000000060550     
100   9503051894089263000000000004500000000004500000200000001041040716063342000394GA3JY00716219713000394   1030000100030000   541110001917777031200000019GAMONE PWINT (KBA)     YGN           MMR11007160633420003940716000000000000000   10300002 00104100000000000000000000009000     
100   35710500155228300000000000009500000000009500002000000010410407161207550010887311710716219718001088   1030000100030000   541120003008777031200000030GAMONE PWINT (TGZ)     YGN           MMR11007161207550010880716000000000000000   10300005 00104100000000000000000000001900     
100   9503051893341160000000000001333000000001333000200000001041040716104219000524M5XOJ60716219717000524   1030000100030000   541120003001777031200000030GAMONE PWINT (TGZ)     YGN           MMR11007161042190005240716000000000000000   10300002 00104100000000000000000000002666     
100   9503051872697616000000000002005000000002005000200000001041040716074618000758G3UA2J0716219714000758   1030000100030000   541120003005777031200000030GAMONE PWINT (TGZ)     YGN           MMR11007160746180007580716000000000000000   10300002 00104100000000000000000000004010     
100   9503051872697616000000000000215000000000215000200000001041040716075100000759SF8ISO0716219714000759   1030000100030000   541120003005777031200000030GAMONE PWINT (TGZ)     YGN           MMR11007160751000007590716000000000000000   10300002 00104100000000000000000000000430     
100   62441900003615450000000000037000000000037000002000000010410407161230250009203868800716219719000920   1030000100030000   541120003104777031200000031GAMONE PWINT (BKLZ)    YGN           MMR11007161230250009200716000000000000000   10300003 00104100000000000000000000012950     
100   62346600165115250000000000018590000000018590002000000010410407160718080016876982530716219713001687   1030000100030000   581250000001777031200000005AVENUE J COFFEE SHOP   YGN           MMR11007160718080016870716000000000000000   10300005 00104100000000000000000000006321     
100   35710830273683300000000000013475000000013475002000000010410407160916170016886297810716219715001688   1030000100030000   581250000001777031200000005AVENUE J COFFEE SHOP   YGN           MMR11007160916170016880716000000000000000   10300003 00104100000000000000000000004582     
100   35710830024732380000000000013000000000013000002000000010410407160832310010756035210716219715001075   1030000100030000   541120003008777031200000030GAMONE PWINT (TGZ)     YGN           MMR11007160832310010750716000000000000000   10300003 00104100000000000000000000002600     
100   62622000501314610000000000009000000000009000002000000010410407160823220002589223670716219714000258   1030000100030000   541120003006777031200000030GAMONE PWINT (TGZ)     YGN           MMR11007160823220002580716000000000000000   10300006 00104100000000000000000000001800     
100   9503051896467590000000000000540000000000540000200000001041040716085927000481W0OHSD0716219715000481   1030000100030000   541120003013777031200000030GAMONE PWINT (TGZ)     YGN           MMR11007160859270004810716000000000000000   10300002 00104100000000000000000000001080     
100   35710950472686390000000000016950000000016950002000000010410407161023170016896699840716219716001689   1030000100030000   581250000001777031200000005AVENUE J COFFEE SHOP   YGN           MMR11007161023170016890716000000000000000   10300003 00104100000000000000000000005763     
100   9503051024320497000000000001280000000001280000200000001041040716103057000400TWAAFX0716219717000400   1030000100030000   541110001917777031200000019GAMONE PWINT (KBA)     YGN           MMR11007161030570004000716000000000000000   10300002 00104100000000000000000000002560     
100   9503051021947821000000000001195000000001195000200000001041040716085332000760RTXE8R0716219715000760   1030000100030000   541120003005777031200000030GAMONE PWINT (TGZ)     YGN           MMR11007160853320007600716000000000000000   10300002 00104100000000000000000000002390     
100   35710500374274550000000000060000000000060000002000000010410407160953540003966444370716219716000396   1030000100030000   541110001917777031200000019GAMONE PWINT (KBA)     YGN           MMR11007160953540003960716000000000000000   10300005 00104100000000000000000000012000     
100   9503051026627642000000000001250000000001250000200000001041040716033920000390Z8QRMD0716219710000390   1030000100030000   541110001917777031200000019GAMONE PWINT (KBA)     YGN           MMR11007160339200003900716000000000000000   10300002 00104100000000000000000000002500     
100   35710830287301160000000000039000000000039000002000000010410407160409100009904455210716219710000990   1030000100030000   541120003103777031200000031GAMONE PWINT (BKLZ)    YGN           MMR11007160409100009900716000000000000000   10300003 00104100000000000000000000007800     
100   35710830500573540000000000013500000000013500002000000010410407160654530009925449410716219713000992   1030000100030000   541120003103777031200000031GAMONE PWINT (BKLZ)    YGN           MMR11007160654530009920716000000000000000   10300003 00104100000000000000000000002700     
100   950305188595219800000000000085000000000085000020000000104104071608432700107769JZIB0716219715001077   1030000100030000   541120003008777031200000030GAMONE PWINT (TGZ)     YGN           MMR11007160843270010770716000000000000000   10300002 00104100000000000000000000001700     
100   9503051896279904000000000002970400000002970400200000001041040716102629001083IQ9ZTV0716219716001083   1030000100030000   541120003008777031200000030GAMONE PWINT (TGZ)     YGN           MMR11007161026290010830716000000000000000   10300002 00104100000000000000000000005941     
100   35710830747726810000000000016550000000016550002000000010410407160909560007616259810716219715000761   1030000100030000   541120003005777031200000030GAMONE PWINT (TGZ)     YGN           MMR11007160909560007610716000000000000000   10300003 00104100000000000000000000003310     
100   35710830747726810000000000008500000000008500002000000010410407160846440010796120510716219715001079   1030000100030000   541120003008777031200000030GAMONE PWINT (TGZ)     YGN           MMR11007160846440010790716000000000000000   10300003 00104100000000000000000000001700     
100   35710500365921190000000000005150000000005150002000000010410407160600380009153518790716219712000915   1030000100030000   541120003104777031200000031GAMONE PWINT (BKLZ)    YGN           MMR11007160600380009150716000000000000000   10300005 00104100000000000000000000001030     
100   35710830196969950000000000031570000000031570002000000010410407161039360016916797810716219717001691   1030000100030000   581250000001777031200000005AVENUE J COFFEE SHOP   YGN           MMR11007161039360016910716000000000000000   10300003 00104100000000000000000000010734     
100   35710500375524190000000000010900000000010900002000000010410407160748260002431783580716219714000243   1030000100030000   541120003114777031200000031GAMONE PWINT (BKLZ)    YGN           MMR11007160748260002430716000000000000000   10300005 00104100000000000000000000002180     
100   9503051024187045000000000002300000000002300000200000001041040716041514000724NVIKDD0716219710000724   1030000100030000   541120003111777031200000031GAMONE PWINT (BKLZ)    YGN           MMR11007160415140007240716000000000000000   10300002 00104100000000000000000000004600     
100   9503190006161881000000000003580000000003580000200000001041040716074324000994LGJG1D0716219714000994   1030000100030000   541120003103777031200000031GAMONE PWINT (BKLZ)    YGN           MMR11007160743240009940716000000000000000   10300014 00104100000000000000000000007160     
100   35710830770083560000000000010500000000010500002000000010410407160405070010684430910716219710001068   1030000100030000   541120003008777031200000030GAMONE PWINT (TGZ)     YGN           MMR11007160405070010680716000000000000000   10300003 00104100000000000000000000002100     
100   9503051023930692000000000000600000000000600000200000001041040716112109000244RK4E4Z0716219717000244   1030000100030000   541120003114777031200000031GAMONE PWINT (BKLZ)    YGN           MMR11007161121090002440716000000000000000   10300002 00104100000000000000000000001200     
100   9503051025321254000000000003620000000003620000200000001041040716060621000392SORDHZ0716219712000392   1030000100030000   541110001917777031200000019GAMONE PWINT (KBA)     YGN           MMR11007160606210003920716000000000000000   10300002 00104100000000000000000000007240     
100   62921400000910800000000000036080000000036080002000000010410407161141140016922222220716219718001692   1030000100030000   581250000001777031200000005AVENUE J COFFEE SHOP   YGN           MMR11007161141140016920716000000000000000   10300009 00104100000000000000000000012267     
100   35710500320108430000000000034700000000034700002000000010410407160522410000475821290716219711000047   1030000100030000   541110900002777030900000002KAUNG HEIN ELECTRONICS NPT           MMR11007160522410000470716000000000000000   10300005 00104100000000000000000000006940     
100   62444500200723440000000000006650000000006650002000000010410407160545540004792099290716219712000479   1030000100030000   541120003013777031200000030GAMONE PWINT (TGZ)     YGN           MMR11007160545540004790716000000000000000   10300002 00104100000000000000000000002327     
100   35710500355039010000000000008160000000008160002000000010410407161140040004848986060716219718000484   1030000100030000   541120003013777031200000030GAMONE PWINT (TGZ)     YGN           MMR11007161140040004840716000000000000000   10300005 00104100000000000000000000001632     
100   35710500355797600000000000004500000000004500002000000010410407160352590007562714690716219710000756   1030000100030000   541120003005777031200000030GAMONE PWINT (TGZ)     YGN           MMR11007160352590007560716000000000000000   10300005 00104100000000000000000000000900     
100   35710830077294770000000000009702000000009702002000000010410407160736290007575699100716219714000757   1030000100030000   541120003005777031200000030GAMONE PWINT (TGZ)     YGN           MMR11007160736290007570716000000000000000   10300003 00104100000000000000000000001940     
100   9503051872620402000000000002430200000002430200200000001041040716071659000916DHYMYU0716219713000916   1030000100030000   541120003104777031200000031GAMONE PWINT (BKLZ)    YGN           MMR11007160716590009160716000000000000000   10300002 00104100000000000000000000004860     
100   95030518866006060000000000010800000000010800002000000010410407160957020003989DGBNU0716219716000398   1030000100030000   541110001917777031200000019GAMONE PWINT (KBA)     YGN           MMR11007160957020003980716000000000000000   10300002 00104100000000000000000000002160     
100   35710830024732380000000000015000000000015000002000000010410407160803030004905858410716219714000490   1030000100030000   541120003012777031200000030GAMONE PWINT (TGZ)     YGN           MMR11007160803030004900716000000000000000   10300003 00104100000000000000000000003000     
100   35710830482213100000000000005184000000005184002000000010410407160611380007255190000716219712000725   1030000100030000   541120003111777031200000031GAMONE PWINT (BKLZ)    YGN           MMR11007160611380007250716000000000000000   10300003 00104100000000000000000000001037     
