100   35710500350355160000000000015500000000015500002000000010410407201200010007375594270720220118000737   1030000100030000   541120003111777031200000031GAMONE PWINT (BKLZ)    YGN           MMR11007201200010007370720000000000000000   10300005 00104100000000000000000000003100     
100   9503051872733411000000000001000000000001000000200000001041040720103215000261BSZPQF0720220117000261   1030000100030000   541120003114777031200000031GAMONE PWINT (BKLZ)    YGN           MMR11007201032150002610720000000000000000   10300002 00104100000000000000000000002000     
100   9503051884577608000000000000330000000000330000200000001041040720120938000798VCTKXY0720220118000798   1030000100030000   541120003005777031200000030GAMONE PWINT (TGZ)     YGN           MMR11007201209380007980720000000000000000   10300002 00104100000000000000000000000660     
100   35710830044946040000000000011000000000011000002000000010410407200733030009580238500720220114000958   1030000100030000   541120003104777031200000031GAMONE PWINT (BKLZ)    YGN           MMR11007200733030009580720000000000000000   10300003 00104100000000000000000000002200     
100   9503190005554250000000000001900000000001900000200000001041040720053133000258I3ZH510720220112000258   1030000100030000   541120003114777031200000031GAMONE PWINT (BKLZ)    YGN           MMR11007200531330002580720000000000000000   10300014 00104100000000000000000000003800     
100   35710830894880830000000000223900000000223900002000000010410407201403080008042579010720220120000804   1030000100030000   581210001201777031200000012L OPERA RESTAURANT YGN YGN           MMR11007201403080008040720000000000000000   10300003 00104100000000000000000000076126     
100   62343302007232330000000000027000000000027000002000000010410407200549580025192091340720220112002519   1030000100030000   541110001903777031200000019GAMONE PWINT (KBA)     YGN           MMR11007200549580025190720000000000000000   10300004 00104100000000000000000000005400     
100   9503051024854560000000000000294000000000294000200000001041040720044336003341F4KTOB0720220111003341   1030000100030000   541110001905777031200000019GAMONE PWINT (KBA)     YGN           MMR11007200443360033410720000000000000000   10300002 00104100000000000000000000000588     
100   35710500380494230000000000016950000000016950002000000010410407200608380025216390850720220112002521   1030000100030000   541110001903777031200000019GAMONE PWINT (KBA)     YGN           MMR11007200608380025210720000000000000000   10300005 00104100000000000000000000003390     
100   35710500374145600000000000031500000000031500002000000010410407200855500024677971030720220115002467   1030000100030000   541120003106777031200000031GAMONE PWINT (BKLZ)    YGN           MMR11007200855500024670720000000000000000   10300005 00104100000000000000000000006300     
100   9503051021329657000000000000360000000000360000200000001041040720052111003344BHJY1E0720220111003344   1030000100030000   541110001905777031200000019GAMONE PWINT (KBA)     YGN           MMR11007200521110033440720000000000000000   10300002 00104100000000000000000000000720     
100   9503051886598057000000000000775000000000775000200000001041040720044714004299PVWZUX0720220111004299   1030000100030000   541110001907777031200000019GAMONE PWINT (KBA)     YGN           MMR11007200447140042990720000000000000000   10300002 00104100000000000000000000001550     
100   62622000255143790000000000011650000000011650002000000010410407200431190025259231670720220111002525   1030000100030000   541120003117777031200000031GAMONE PWINT (BKLZ)    YGN           MMR11007200431190025250720000000000000000   10300006 00104100000000000000000000002330     
100   95030510213296570000000000016600000000016600002000000010410407200512470043019OBBSD0720220111004301   1030000100030000   541110001907777031200000019GAMONE PWINT (KBA)     YGN           MMR11007200512470043010720000000000000000   10300002 00104100000000000000000000003320     
100   62921400080336210000000000015200000000015200002000000010410407200856370043042222220720220115004304   1030000100030000   541110001907777031200000019GAMONE PWINT (KBA)     YGN           MMR11007200856370043040720000000000000000   10300009 00104100000000000000000000003040     
100   35710500385487620000000000005500000000005500002000000010410407201111430043066959170720220117004306   1030000100030000   541110001907777031200000019GAMONE PWINT (KBA)     YGN           MMR11007201111430043060720000000000000000   10300005 00104100000000000000000000001100     
100   35710830121473920000000000013300000000013300002000000010410407200848160009600689820720220115000960   1030000100030000   541120003104777031200000031GAMONE PWINT (BKLZ)    YGN           MMR11007200848160009600720000000000000000   10300003 00104100000000000000000000002660     
100   35710500395504110000000000004500000000004500002000000010410407200622150002599857930720220112000259   1030000100030000   541120003114777031200000031GAMONE PWINT (BKLZ)    YGN           MMR11007200622150002590720000000000000000   10300005 00104100000000000000000000000900     
100   95030518892059320000000000028225000000028225002000000010410407200526330007931JUVYE0720220111000793   1030000100030000   541120003005777031200000030GAMONE PWINT (TGZ)     YGN           MMR11007200526330007930720000000000000000   10300002 00104100000000000000000000005645     
100   35710500350355160000000000070500000000070500002000000010410407201224270007389947980720220118000738   1030000100030000   541120003111777031200000031GAMONE PWINT (BKLZ)    YGN           MMR11007201224270007380720000000000000000   10300005 00104100000000000000000000014100     
100   35710830627208820000000000012800000000012800002000000010410407200409480005349019020720220110000534   1030000100030000   541120003001777031200000030GAMONE PWINT (TGZ)     YGN           MMR11007200409480005340720000000000000000   10300003 00104100000000000000000000002560     
100   35710830627208820000000000004800000000004800002000000010410407200418070005359068910720220110000535   1030000100030000   541120003001777031200000030GAMONE PWINT (TGZ)     YGN           MMR11007200418070005350720000000000000000   10300003 00104100000000000000000000000960     
100   35710500155505830000000000050000000000050000002000000010410407200605170005366185000720220112000536   1030000100030000   541120003001777031200000030GAMONE PWINT (TGZ)     YGN           MMR11007200605170005360720000000000000000   10300005 00104100000000000000000000010000     
100   35710500365403400000000000008624000000008624002000000010410407200535200007947961850720220112000794   1030000100030000   541120003005777031200000030GAMONE PWINT (TGZ)     YGN           MMR11007200535200007940720000000000000000   10300005 00104100000000000000000000001725     
100   62622000746148720000000000012054000000012054002000000010410407201028340007950150610720220116000795   1030000100030000   541120003005777031200000030GAMONE PWINT (TGZ)     YGN           MMR11007201028340007950720000000000000000   10300006 00104100000000000000000000002411     
100   35710830661855460000000000026112000000026112002000000010410407200646500011289961110720220113001128   1030000100030000   541120003008777031200000030GAMONE PWINT (TGZ)     YGN           MMR11007200646500011280720000000000000000   10300003 00104100000000000000000000005222     
100   9503051885952198000000000012500000000012500000200000001041040720093026000537HR3FG90720220116000537   1030000100030000   541120003001777031200000030GAMONE PWINT (TGZ)     YGN           MMR11007200930260005370720000000000000000   10300002 00104100000000000000000000025000     
100   62622000007768600000000000000850000000000850002000000010410407201101220009629868780720220117000962   1030000100030000   541120003104777031200000031GAMONE PWINT (BKLZ)    YGN           MMR11007201101220009620720000000000000000   10300006 00104100000000000000000000000170     
100   35710500350355160000000000012100000000012100002000000010410407201138070009649588090720220118000964   1030000100030000   541120003104777031200000031GAMONE PWINT (BKLZ)    YGN           MMR11007201138070009640720000000000000000   10300005 00104100000000000000000000002420     
100   35710500375524190000000000003300000000003300002000000010410407200847400002605050180720220115000260   1030000100030000   541120003114777031200000031GAMONE PWINT (BKLZ)    YGN           MMR11007200847400002600720000000000000000   10300005 00104100000000000000000000000660     
100   35710500324106620000000000009450000000009450002000000010410407201121130007963120770720220117000796   1030000100030000   541120003005777031200000030GAMONE PWINT (TGZ)     YGN           MMR11007201121130007960720000000000000000   10300005 00104100000000000000000000001890     
100   9503051884582640000000000004600000000004600000200000001041040720064926000735ZAFEDB0720220113000735   1030000100030000   541120003111777031200000031GAMONE PWINT (BKLZ)    YGN           MMR11007200649260007350720000000000000000   10300002 00104100000000000000000000009200     
100   9503051872733411000000000001203000000001203000200000001041040720122312000966M7HXPJ0720220118000966   1030000100030000   541120003104777031200000031GAMONE PWINT (BKLZ)    YGN           MMR11007201223120009660720000000000000000   10300002 00104100000000000000000000002406     
100   35710500144556280000000000008690000000008690002000000010410407201224090017101600460720220118001710   1030000100030000   581250000001777031200000005AVENUE J COFFEE SHOP   YGN           MMR11007201224090017100720000000000000000   10300005 00104100000000000000000000002955     
100   9503051026241485000000000022630000000022630000200000001041040720092407001935WMDY9R0720220115001935   1030000100030000   541160000001777031200000006MK FASHION             YGN           MMR11007200924070019350720000000000000000   10300002 00104100000000000000000000045260     
100   62343302005123390000000000002009000000002009002000000010410407201148420007978876670720220118000797   1030000100030000   541120003005777031200000030GAMONE PWINT (TGZ)     YGN           MMR11007201148420007970720000000000000000   10300004 00104100000000000000000000000402     
100   9503054000496455000000000003090000000003090000200000001041040720061941000956NPBWKX0720220112000956   1030000100030000   541120003104777031200000031GAMONE PWINT (BKLZ)    YGN           MMR11007200619410009560720000000000000000   10300002 00104100000000000000000000006180     
100   9503051873838508000000000008024000000008024000200000001041040720113120001937KETY3X0720220118001937   1030000100030000   541160000001777031200000006MK FASHION             YGN           MMR11007201131200019370720000000000000000   10300002 00104100000000000000000000016048     
100   35710830473445430000000000051500000000051500002000000010410407200719430007360158510720220113000736   1030000100030000   541120003111777031200000031GAMONE PWINT (BKLZ)    YGN           MMR11007200719430007360720000000000000000   10300003 00104100000000000000000000010300     
100   62622000255143790000000000035900000000035900002000000010410407200454490024619977280720220111002461   1030000100030000   541120003106777031200000031GAMONE PWINT (BKLZ)    YGN           MMR11007200454490024610720000000000000000   10300006 00104100000000000000000000007180     
