100   9503190006740841000000000000855000000000855000200000001041040721041320000802TV0HQZ0721220210000802   1030000100030000   541120003005777031200000030GAMONE PWINT (TGZ)     YGN           MMR11007210413200008020721000000000000000   10300014 00104100000000000000000000001710     
100   95031900067408410000000000008800000000008800002000000010410407210349070011338HVJ4K0721220210001133   1030000100030000   541120003008777031200000030GAMONE PWINT (TGZ)     YGN           MMR11007210349070011330721000000000000000   10300014 00104100000000000000000000001760     
100   35710900024016060000000000008200000000008200002000000010410407210525220011358112400721220211001135   1030000100030000   541120003008777031200000030GAMONE PWINT (TGZ)     YGN           MMR11007210525220011350721000000000000000   10300003 00104100000000000000000000001640     
100   62622000284676410000000000016555000000016555002000000010410407210926110017120192310721220215001712   1030000100030000   581250000001777031200000005AVENUE J COFFEE SHOP   YGN           MMR11007210926110017120721000000000000000   10300006 00104100000000000000000000005629     
100   9503051888691553000000000002035000000002035000200000001041040721105112001713NMIOJL0721220217001713   1030000100030000   581250000001777031200000005AVENUE J COFFEE SHOP   YGN           MMR11007211051120017130721000000000000000   10300002 00104100000000000000000000006919     
100   35710830214404400000000000007600000000007600002000000010410407210422380008037736000721220210000803   1030000100030000   541120003005777031200000030GAMONE PWINT (TGZ)     YGN           MMR11007210422380008030721000000000000000   10300003 00104100000000000000000000001520     
100   35710500395140030000000000069300000000069300002000000010410407210716380008066307870721220213000806   1030000100030000   581210001201777031200000012L OPERA RESTAURANT YGN YGN           MMR11007210716380008060721000000000000000   10300005 00104100000000000000000000023562     
100   35710500395507000000000000036500000000036500002000000010410407210655020007407598110721220213000740   1030000100030000   541120003111777031200000031GAMONE PWINT (BKLZ)    YGN           MMR11007210655020007400721000000000000000   10300005 00104100000000000000000000007300     
100   62343302007950900000000000124800000000124800002000000010410407210814400008077956830721220214000807   1030000100030000   581210001201777031200000012L OPERA RESTAURANT YGN YGN           MMR11007210814400008070721000000000000000   10300004 00104100000000000000000000042432     
100   35710830610398470000000000014500000000014500002000000010410407210857530007419387510721220215000741   1030000100030000   541120003111777031200000031GAMONE PWINT (BKLZ)    YGN           MMR11007210857530007410721000000000000000   10300003 00104100000000000000000000002900     
100   35710500315066190000000000199550000000199550002000000010410407210746230019439513950721220214001943   1030000100030000   541160000001777031200000006MK FASHION             YGN           MMR11007210746230019430721000000000000000   10300005 00104100000000000000000000039910     
100   9503051025228756000000000002480000000002480000200000001041040721102326001141RPY6GL0721220216001141   1030000100030000   541120003008777031200000030GAMONE PWINT (TGZ)     YGN           MMR11007211023260011410721000000000000000   10300002 00104100000000000000000000004960     
100   35710500355039010000000000004650000000004650002000000010410407210300160005390883790721220209000539   1030000100030000   541120003001777031200000030GAMONE PWINT (TGZ)     YGN           MMR11007210300160005390721000000000000000   10300005 00104100000000000000000000000930     
100   35710500375720780000000000033500000000033500002000000010410407210345380024762396020721220210002476   1030000100030000   541120003106777031200000031GAMONE PWINT (BKLZ)    YGN           MMR11007210345380024760721000000000000000   10300005 00104100000000000000000000006700     
100   35710500385530280000000000044900000000044900002000000010410407210601090024816297660721220212002481   1030000100030000   541120003106777031200000031GAMONE PWINT (BKLZ)    YGN           MMR11007210601090024810721000000000000000   10300005 00104100000000000000000000008980     
100   35710500153080810000000000035900000000035900002000000010410407210640150024866958700721220213002486   1030000100030000   541120003106777031200000031GAMONE PWINT (BKLZ)    YGN           MMR11007210640150024860721000000000000000   10300005 00104100000000000000000000007180     
100   35710500345782270000000000055000000000055000002000000010410407180535150001550047570718219912000155   1030000100030000   541120000010777031200000002ZAW TI KA THINKAN TIKE YGN           MMR11007180535150001550718000000000000000   10300005 00104100000000000000000000011000     
100   62622000188700100000000000008400000000008400002000000010410407180825070005159138070718219914000515   1030000100030000   541120003012777031200000030GAMONE PWINT (TGZ)     YGN           MMR11007180825070005150718000000000000000   10300006 00104100000000000000000000001680     
100   35710500133526100000000000007400000000007400002000000010410407180932150005179956140718219916000517   1030000100030000   541120003012777031200000030GAMONE PWINT (TGZ)     YGN           MMR11007180932150005170718000000000000000   10300005 00104100000000000000000000001480     
100   62622000796837650000000000003800000000003800002000000010410407180924590007809018710718219915000780   1030000100030000   541120003005777031200000030GAMONE PWINT (TGZ)     YGN           MMR11007180924590007800718000000000000000   10300006 00104100000000000000000000000760     
100   9503051024815116000000000001750000000001750000200000001041040718044603000503QZFKNZ0718219911000503   1030000100030000   541120003012777031200000030GAMONE PWINT (TGZ)     YGN           MMR11007180446030005030718000000000000000   10300002 00104100000000000000000000003500     
100   95030518882207420000000000017400000000017400002000000010410407180322350009330TQPQU0718219909000933   1030000100030000   541120003104777031200000031GAMONE PWINT (BKLZ)    YGN           MMR11007180322350009330718000000000000000   10300002 00104100000000000000000000003480     
100   9503051891606085000000000001771000000001771000200000001041040718103809001702C7HTQO0718219917001702   1030000100030000   581250000001777031200000005AVENUE J COFFEE SHOP   YGN           MMR11007181038090017020718000000000000000   10300002 00104100000000000000000000006022     
100   95030800082796840000000000011809000000011809002000000010410407180943300005313741200718219916000531   1030000100030000   541120003001777031200000030GAMONE PWINT (TGZ)     YGN           MMR11007180943300005310718000000000000000   10300003 00104100000000000000000000002362     
100   9503051023966142000000000004200000000004200000200000001041040718101408000521DGGFOB0718219916000521   1030000100030000   541120003012777031200000030GAMONE PWINT (TGZ)     YGN           MMR11007181014080005210718000000000000000   10300002 00104100000000000000000000008400     
100   35710500303662540000000000015800000000015800002000000010410407180505430004930336150718219911000493   1030000100030000   541120003013777031200000030GAMONE PWINT (TGZ)     YGN           MMR11007180505430004930718000000000000000   10300005 00104100000000000000000000003160     
100   35710830341678570000000000021700000000021700002000000010410407181035180007824052010718219917000782   1030000100030000   541120003005777031200000030GAMONE PWINT (TGZ)     YGN           MMR11007181035180007820718000000000000000   10300003 00104100000000000000000000004340     
100   62622000606864620000000000022946000000022946002000000010410407180413190007789227430718219910000778   1030000100030000   541120003005777031200000030GAMONE PWINT (TGZ)     YGN           MMR11007180413190007780718000000000000000   10300006 00104100000000000000000000004589     
100   35710500111197220000000000089800000000089800002000000010410407180630550019236675230718219913001923   1030000100030000   541160000001777031200000006MK FASHION             YGN           MMR11007180630550019230718000000000000000   10300005 00104100000000000000000000017960     
100   35710830075733960000000000022400000000022400002000000010410407180700180004962762010718219913000496   1030000100030000   541120003013777031200000030GAMONE PWINT (TGZ)     YGN           MMR11007180700180004960718000000000000000   10300003 00104100000000000000000000004480     
100   35710500324001920000000000103500000000103500002000000010410407180546150000286004310718219912000028   1030000100030000   541120000015777031200000002ZAW TI KA THINKAN TIKE YGN           MMR11007180546150000280718000000000000000   10300005 00104100000000000000000000020700     
100   35710500105941230000000000098500000000098500002000000010410407180645430001576015740718219913000157   1030000100030000   541120000010777031200000002ZAW TI KA THINKAN TIKE YGN           MMR11007180645430001570718000000000000000   10300005 00104100000000000000000000019700     
100   9503051026352860000000000000425000000000425000200000001041040718043800000529SAO1450718219911000529   1030000100030000   541120003001777031200000030GAMONE PWINT (TGZ)     YGN           MMR11007180438000005290718000000000000000   10300002 00104100000000000000000000000850     
100   62346600110653370000000000008700000000008700002000000010410407180751040007793478390718219914000779   1030000100030000   541120003005777031200000030GAMONE PWINT (TGZ)     YGN           MMR11007180751040007790718000000000000000   10300005 00104100000000000000000000001740     
100   35710500173106550000000000007800000000007800002000000010410407180651380005092249640718219913000509   1030000100030000   541120003012777031200000030GAMONE PWINT (TGZ)     YGN           MMR11007180651380005090718000000000000000   10300005 00104100000000000000000000001560     
100   95031800645584410000000000003600000000003600002000000010410407181133040007833737310718219918000783   1030000100030000   541120003005777031200000030GAMONE PWINT (TGZ)     YGN           MMR11007181133040007830718000000000000000   10300013 00104100000000000000000000000720     
100   35710830064061430000000000020640000000020640002000000010410407180446510011031961420718219911001103   1030000100030000   541120003008777031200000030GAMONE PWINT (TGZ)     YGN           MMR11007180446510011030718000000000000000   10300003 00104100000000000000000000004128     
100   9503051024622298000000000001060000000001060000200000001041040718124600000941FMO0Y20718219919000941   1030000100030000   541120003104777031200000031GAMONE PWINT (BKLZ)    YGN           MMR11007181246000009410718000000000000000   10300002 00104100000000000000000000002120     
100   9503051023966142000000000007770000000007770000200000001041040718101739000499KE10QQ0718219916000499   1030000100030000   541120003013777031200000030GAMONE PWINT (TGZ)     YGN           MMR11007181017390004990718000000000000000   10300002 00104100000000000000000000015540     
100   35710500355609010000000000032150000000032150002000000010410407180708530009354434560718219913000935   1030000100030000   541120003104777031200000031GAMONE PWINT (BKLZ)    YGN           MMR11007180708530009350718000000000000000   10300005 00104100000000000000000000006430     
100   35710830623958420000000000045200000000045200002000000010410407180752390005303076100718219914000530   1030000100030000   541120003001777031200000030GAMONE PWINT (TGZ)     YGN           MMR11007180752390005300718000000000000000   10300003 00104100000000000000000000009040     
100   35710500173106550000000000010500000000010500002000000010410407180702510005126619490718219913000512   1030000100030000   541120003012777031200000030GAMONE PWINT (TGZ)     YGN           MMR11007180702510005120718000000000000000   10300005 00104100000000000000000000002100     
100   9503051024817401000000000006960000000006960000200000001041040718104104001104INCNOV0718219917001104   1030000100030000   541120003008777031200000030GAMONE PWINT (TGZ)     YGN           MMR11007181041040011040718000000000000000   10300002 00104100000000000000000000013920     
100   9503051886612403000000000000175000000000175000200000001041040718130141000943XVH0VH0718219919000943   1030000100030000   541120003104777031200000031GAMONE PWINT (BKLZ)    YGN           MMR11007181301410009430718000000000000000   10300002 00104100000000000000000000000350     
100   35710830211734880000000000020075000000020075002000000010410407180740480017003005000718219914001700   1030000100030000   581250000001777031200000005AVENUE J COFFEE SHOP   YGN           MMR11007180740480017000718000000000000000   10300003 00104100000000000000000000006826     
100   62346600100684150000000000074000000000074000002000000010410407180550220024358032830718219912002435   1030000100030000   541120003106777031200000031GAMONE PWINT (BKLZ)    YGN           MMR11007180550220024350718000000000000000   10300005 00104100000000000000000000014800     
100   62443000141198680000000000022500000000022500002000000010410407180558220024382778730718219912002438   1030000100030000   541120003106777031200000031GAMONE PWINT (BKLZ)    YGN           MMR11007180558220024380718000000000000000   10300005 00104100000000000000000000007875     
100   9503051022112557000000000003648000000003648000200000001041040718072400002511RBKKHV0718219913002511   1030000100030000   541120003117777031200000031GAMONE PWINT (BKLZ)    YGN           MMR11007180724000025110718000000000000000   10300002 00104100000000000000000000007296     
100   9503051023771096000000000000965000000000965000200000001041040718100904000781E1V0EH0718219916000781   1030000100030000   541120003005777031200000030GAMONE PWINT (TGZ)     YGN           MMR11007181009040007810718000000000000000   10300002 00104100000000000000000000001930     
100   35710830066420510000000000009950000000009950002000000010410407180735280009372972910718219914000937   1030000100030000   541120003104777031200000031GAMONE PWINT (BKLZ)    YGN           MMR11007180735280009370718000000000000000   10300003 00104100000000000000000000001990     
100   35710950661967940000000000010100000000010100002000000010410407180623030005062538510718219912000506   1030000100030000   541120003012777031200000030GAMONE PWINT (TGZ)     YGN           MMR11007180623030005060718000000000000000   10300003 00104100000000000000000000002020     
100   35710500303672940000000000030635000000030635002000000010410407180921420017016920260718219915001701   1030000100030000   581250000001777031200000005AVENUE J COFFEE SHOP   YGN           MMR11007180921420017010718000000000000000   10300005 00104100000000000000000000010416     
100   95030510239661420000000000004250000000004250002000000010410407180948450005198BOPRI0718219916000519   1030000100030000   541120003012777031200000030GAMONE PWINT (TGZ)     YGN           MMR11007180948450005190718000000000000000   10300002 00104100000000000000000000000850     
100   35710500335401450000000000021000000000021000002000000010410407180532080004944209210718219912000494   1030000100030000   541120003013777031200000030GAMONE PWINT (TGZ)     YGN           MMR11007180532080004940718000000000000000   10300005 00104100000000000000000000004200     
100   35710830837673180000000000045600000000045600002000000010410407180854080004983445200718219915000498   1030000100030000   541120003013777031200000030GAMONE PWINT (TGZ)     YGN           MMR11007180854080004980718000000000000000   10300003 00104100000000000000000000009120     
100   35710950569382470000000000015895000000015895002000000010410407180553320016992361410718219912001699   1030000100030000   581250000001777031200000005AVENUE J COFFEE SHOP   YGN           MMR11007180553320016990718000000000000000   10300003 00104100000000000000000000005404     
