100   9503051020221285000000000007500000000007500000200000001041040722080729004321YRFRWN0722220314004321   1030000100030000   541110001907777031200000019GAMONE PWINT (KBA)     YGN           MMR11007220807290043210722000000000000000   10300002 00104100000000000000000000015000     
100   35710500110026880000000000024000000000024000002000000010410407220918160043230606190722220315004323   1030000100030000   541110001907777031200000019GAMONE PWINT (KBA)     YGN           MMR11007220918160043230722000000000000000   10300005 00104100000000000000000000004800     
100   9503051022686485000000000001500000000001500000200000001041040721031657001897DRZVTJ0721220209001897   1030000100030000   541110001920777031200000019GAMONE PWINT (KBA)     YGN           MMR11007210316570018970721000000000000000   10300002 00104100000000000000000000003000     
100   9503051026107660000000000001250000000001250000200000001041040722121703001154K4OXT70722220318001154   1030000100030000   541120003008777031200000030GAMONE PWINT (TGZ)     YGN           MMR11007221217030011540722000000000000000   10300002 00104100000000000000000000002500     
100   62346600180642750000000000008600000000008600002000000010410407220753130005483396280722220314000548   1030000100030000   541120003001777031200000030GAMONE PWINT (TGZ)     YGN           MMR11007220753130005480722000000000000000   10300005 00104100000000000000000000001720     
100   35710830402088510000000000021150000000021150002000000010410407220524210008056746510722220311000805   1030000100030000   541120003005777031200000030GAMONE PWINT (TGZ)     YGN           MMR11007220524210008050722000000000000000   10300003 00104100000000000000000000004230     
100   62622000540998620000000000015400000000015400002000000010410407220540170008060852140722220312000806   1030000100030000   541120003005777031200000030GAMONE PWINT (TGZ)     YGN           MMR11007220540170008060722000000000000000   10300006 00104100000000000000000000003080     
100   9503051897190787000000000000580000000000580000200000001041040722081718001148MMRAQP0722220314001148   1030000100030000   541120003008777031200000030GAMONE PWINT (TGZ)     YGN           MMR11007220817180011480722000000000000000   10300002 00104100000000000000000000001160     
100   9503051022531913000000000000560000000000560000200000001041040722055150000263BGWNQ80722220312000263   1030000100030000   541120003114777031200000031GAMONE PWINT (BKLZ)    YGN           MMR11007220551500002630722000000000000000   10300002 00104100000000000000000000001120     
100   62346600183238200000000000023500000000023500002000000010410407221258120007495182660722220319000749   1030000100030000   541120003111777031200000031GAMONE PWINT (BKLZ)    YGN           MMR11007221258120007490722000000000000000   10300005 00104100000000000000000000004700     
100   9503051024705945000000000002725000000002725000200000001041040722054000000973R1LKVE0722220312000973   1030000100030000   541120003104777031200000031GAMONE PWINT (BKLZ)    YGN           MMR11007220540000009730722000000000000000   10300002 00104100000000000000000000005450     
100   9503051019617626000000000002630000000002630000200000001041040722110355000529N3V9VC0722220317000529   1030000100030000   541120003012777031200000030GAMONE PWINT (TGZ)     YGN           MMR11007221103550005290722000000000000000   10300002 00104100000000000000000000005260     
100   9503051886443114000000000000990000000000990000200000001041040722042139000743OONRNN0722220310000743   1030000100030000   541120003111777031200000031GAMONE PWINT (BKLZ)    YGN           MMR11007220421390007430722000000000000000   10300002 00104100000000000000000000001980     
100   35710500192861270000000000021700000000021700002000000010410407221015260002684304340722220316000268   1030000100030000   541120003114777031200000031GAMONE PWINT (BKLZ)    YGN           MMR11007221015260002680722000000000000000   10300005 00104100000000000000000000004340     
100   9503051025411865000000000000630000000000630000200000001041040722065450000807JLLQYZ0722220313000807   1030000100030000   541120003005777031200000030GAMONE PWINT (TGZ)     YGN           MMR11007220654500008070722000000000000000   10300002 00104100000000000000000000001260     
100   9503051897190787000000000010280000000010280000200000001041040722081225000808BMD4NE0722220314000808   1030000100030000   541120003005777031200000030GAMONE PWINT (TGZ)     YGN           MMR11007220812250008080722000000000000000   10300002 00104100000000000000000000020560     
100   9503051026361135000000000001188000000001188000200000001041040722103909001716XE7XNF0722220317001716   1030000100030000   581250000001777031200000005AVENUE J COFFEE SHOP   YGN           MMR11007221039090017160722000000000000000   10300002 00104100000000000000000000004039     
100   9503051023885375000000000000290000000000290000200000001041040722060856000264QOUO7O0722220312000264   1030000100030000   541120003114777031200000031GAMONE PWINT (BKLZ)    YGN           MMR11007220608560002640722000000000000000   10300002 00104100000000000000000000000580     
100   62346600100842630000000000004500000000004500002000000010410407220536060005419155030722220312000541   1030000100030000   541120003001777031200000030GAMONE PWINT (TGZ)     YGN           MMR11007220536060005410722000000000000000   10300005 00104100000000000000000000000900     
100   35710500375422610000000000029000000000029000002000000010410407220651300007453286960722220313000745   1030000100030000   541120003111777031200000031GAMONE PWINT (BKLZ)    YGN           MMR11007220651300007450722000000000000000   10300005 00104100000000000000000000005800     
100   62343301012341160000000000049500000000049500002000000010410407220842240008098997030722220315000809   1030000100030000   541120003005777031200000030GAMONE PWINT (TGZ)     YGN           MMR11007220842240008090722000000000000000   10300004 00104100000000000000000000009900     
100   9503051026246260000000000000680000000000680000200000001041040722121729001717WHUKOV0722220318001717   1030000100030000   581250000001777031200000005AVENUE J COFFEE SHOP   YGN           MMR11007221217290017170722000000000000000   10300002 00104100000000000000000000002312     
100   9503051023885375000000000000590000000000590000200000001041040722061729000265GNR0TU0722220312000265   1030000100030000   541120003114777031200000031GAMONE PWINT (BKLZ)    YGN           MMR11007220617290002650722000000000000000   10300002 00104100000000000000000000001180     
100   9503051024321479000000000002790000000002790000200000001041040722063033000975FMDAHS0722220313000975   1030000100030000   541120003104777031200000031GAMONE PWINT (BKLZ)    YGN           MMR11007220630330009750722000000000000000   10300002 00104100000000000000000000005580     
100   9503051025490935000000000000830000000000830000200000001041040722063452000976MIOEWJ0722220313000976   1030000100030000   541120003104777031200000031GAMONE PWINT (BKLZ)    YGN           MMR11007220634520009760722000000000000000   10300002 00104100000000000000000000001660     
100   9503051025464914000000000004140000000004140000200000001041040722034945000049AFDZLL0722220310000049   1030000100030000   701120003701777031200000037PRINCE HOTEL YANGON    YGN           MMR11007220349450000490722000000000000000   10300002 00104100000000000000000000014076     
100   9503051884936077000000000002440000000002440000200000001041040722054922000543ZDRPHZ0722220312000543   1030000100030000   541120003001777031200000030GAMONE PWINT (TGZ)     YGN           MMR11007220549220005430722000000000000000   10300002 00104100000000000000000000004880     
100   9503051889948739000000000004700000000004700000200000001041040722085406000746FATX510722220315000746   1030000100030000   541120003111777031200000031GAMONE PWINT (BKLZ)    YGN           MMR11007220854060007460722000000000000000   10300002 00104100000000000000000000009400     
100   35650883120000580000000000012150000000012150002000000010410407220948360008104798770722220316000810   1030000100030000   541120003005777031200000030GAMONE PWINT (TGZ)     YGN           MMR11007220948360008100722000000000000000   10300005 00104100000000000000000000004252     
100   9503051026107660000000000000950000000000950000200000001041040722121042001152LLTLTX0722220318001152   1030000100030000   541120003008777031200000030GAMONE PWINT (TGZ)     YGN           MMR11007221210420011520722000000000000000   10300002 00104100000000000000000000001900     
100   35710500155505830000000000030000000000030000002000000010410407220620220005444955590722220312000544   1030000100030000   541120003001777031200000030GAMONE PWINT (TGZ)     YGN           MMR11007220620220005440722000000000000000   10300005 00104100000000000000000000006000     
100   9503051025490935000000000000320000000000320000200000001041040722063647000977LHPQCV0722220313000977   1030000100030000   541120003104777031200000031GAMONE PWINT (BKLZ)    YGN           MMR11007220636470009770722000000000000000   10300002 00104100000000000000000000000640     
100   35710500375838930000000000004550000000004550002000000010410407220608520011462139340722220312001146   1030000100030000   541120003008777031200000030GAMONE PWINT (TGZ)     YGN           MMR11007220608520011460722000000000000000   10300005 00104100000000000000000000000910     
100   9503051025411865000000000000485000000000485000200000001041040722064604000545PMKIYZ0722220313000545   1030000100030000   541120003001777031200000030GAMONE PWINT (TGZ)     YGN           MMR11007220646040005450722000000000000000   10300002 00104100000000000000000000000970     
100   9503051025100781000000000002940000000002940000200000001041040722104307000747TC6CQS0722220317000747   1030000100030000   541120003111777031200000031GAMONE PWINT (BKLZ)    YGN           MMR11007221043070007470722000000000000000   10300002 00104100000000000000000000005880     
100   9503051026120291000000000002180000000002180000200000001041040722101914000811BUHX0W0722220316000811   1030000100030000   541120003005777031200000030GAMONE PWINT (TGZ)     YGN           MMR11007221019140008110722000000000000000   10300002 00104100000000000000000000004360     
100   9503051021054271000000000000470000000000470000200000001041040722121312000812RG8FJX0722220318000812   1030000100030000   541120003005777031200000030GAMONE PWINT (TGZ)     YGN           MMR11007221213120008120722000000000000000   10300002 00104100000000000000000000000940     
100   9503051888764202000000000000360000000000360000200000001041040722092636000267I2UVN00722220315000267   1030000100030000   541120003114777031200000031GAMONE PWINT (BKLZ)    YGN           MMR11007220926360002670722000000000000000   10300002 00104100000000000000000000000720     
100   9503051873619866000000000000600000000000600000200000001041040722103500000979DVSIIR0722220317000979   1030000100030000   541120003104777031200000031GAMONE PWINT (BKLZ)    YGN           MMR11007221035000009790722000000000000000   10300002 00104100000000000000000000001200     
100   9503051024930360000000000000970000000000970000200000001041040722053228000971S8ANGT0722220312000971   1030000100030000   541120003104777031200000031GAMONE PWINT (BKLZ)    YGN           MMR11007220532280009710722000000000000000   10300002 00104100000000000000000000001940     
100   9503051884112687000000000011080000000011080000200000001041040722053919002533N47O4M0722220312002533   1030000100030000   541110001903777031200000019GAMONE PWINT (KBA)     YGN           MMR11007220539190025330722000000000000000   10300002 00104100000000000000000000022160     
100   35710500383331320000000000005096000000005096002000000010410407221059270043311270590722220317004331   1030000100030000   541110001907777031200000019GAMONE PWINT (KBA)     YGN           MMR11007221059270043310722000000000000000   10300005 00104100000000000000000000001019     
100   62921400054323390000000000012000000000012000002000000010410407220552560043132222220722220312004313   1030000100030000   541110001907777031200000019GAMONE PWINT (KBA)     YGN           MMR11007220552560043130722000000000000000   10300009 00104100000000000000000000002400     
100   9503051025367398000000000007160000000007160000200000001041040722070829002536LUTTHS0722220313002536   1030000100030000   541110001903777031200000019GAMONE PWINT (KBA)     YGN           MMR11007220708290025360722000000000000000   10300002 00104100000000000000000000014320     
100   35710500165901090000000000049700000000049700002000000010410407220958200033522509240722220316003352   1030000100030000   541110001905777031200000019GAMONE PWINT (KBA)     YGN           MMR11007220958200033520722000000000000000   10300005 00104100000000000000000000009940     
100   95031900014483330000000000065800000000065800002000000010410407221201400033586A9S2Q0722220318003358   1030000100030000   541110001905777031200000019GAMONE PWINT (KBA)     YGN           MMR11007221201400033580722000000000000000   10300014 00104100000000000000000000013160     
100   35710500375388630000000000066500000000066500002000000010410407220651420025375024540722220313002537   1030000100030000   541120003117777031200000031GAMONE PWINT (BKLZ)    YGN           MMR11007220651420025370722000000000000000   10300005 00104100000000000000000000013300     
100   35710830645340910000000000062100000000062100002000000010410407220643140043157219600722220313004315   1030000100030000   541110001907777031200000019GAMONE PWINT (KBA)     YGN           MMR11007220643140043150722000000000000000   10300003 00104100000000000000000000012420     
100   9503051026112223000000000006000000000006000000200000001041040722070328004317HOJRLR0722220313004317   1030000100030000   541110001907777031200000019GAMONE PWINT (KBA)     YGN           MMR11007220703280043170722000000000000000   10300002 00104100000000000000000000012000     
100   35710500150741130000000000023000000000023000002000000010410407220805470043192311900722220314004319   1030000100030000   541110001907777031200000019GAMONE PWINT (KBA)     YGN           MMR11007220805470043190722000000000000000   10300005 00104100000000000000000000004600     
100   9503051025236890000000000003380000000003380000200000001041040722081022002540HUF1M40722220314002540   1030000100030000   541110001903777031200000019GAMONE PWINT (KBA)     YGN           MMR11007220810220025400722000000000000000   10300002 00104100000000000000000000006760     
