100   35710500391788580000000000053100000000053100002000000010410407231221170004320838130723220418000432   1030000100030000   541110001917777031200000019GAMONE PWINT (KBA)     YGN           MMR11007231221170004320723000000000000000   10300005 00104100000000000000000000010620     
100   9503051022431494000000000000390000000000390000200000001041040723092622000556PIBTSJ0723220415000556   1030000100030000   541120003001777031200000030GAMONE PWINT (TGZ)     YGN           MMR11007230926220005560723000000000000000   10300002 00104100000000000000000000000780     
100   35710830104221930000000000009050000000009050002000000010410407230733410008156162210723220414000815   1030000100030000   541120003005777031200000030GAMONE PWINT (TGZ)     YGN           MMR11007230733410008150723000000000000000   10300003 00104100000000000000000000001810     
100   35650883690012310000000000031900000000031900002000000010410407231012260008168304510723220416000816   1030000100030000   541120003005777031200000030GAMONE PWINT (TGZ)     YGN           MMR11007231012260008160723000000000000000   10300005 00104100000000000000000000011165     
100   35710500313358520000000000007203000000007203002000000010410407231106090008177253650723220417000817   1030000100030000   541120003005777031200000030GAMONE PWINT (TGZ)     YGN           MMR11007231106090008170723000000000000000   10300005 00104100000000000000000000001441     
100   9503051896745557000000000004340000000004340000200000001041040723055735000809LN1ASH0723220412000809   1030000100030000   581210001201777031200000012L OPERA RESTAURANT YGN YGN           MMR11007230557350008090723000000000000000   10300002 00104100000000000000000000014756     
100   9503051889593477000000000008180000000008180000200000001041040723100758000274YNW8OM0723220416000274   1030000100030000   541120003114777031200000031GAMONE PWINT (BKLZ)    YGN           MMR11007231007580002740723000000000000000   10300002 00104100000000000000000000016360     
100   9503051885838165000000000000580000000000580000200000001041040723040213000272O5I3VX0723220410000272   1030000100030000   541120003114777031200000031GAMONE PWINT (BKLZ)    YGN           MMR11007230402130002720723000000000000000   10300002 00104100000000000000000000001160     
100   35710830155667880000000000058996000000058996002000000010410407231210160008187821800723220418000818   1030000100030000   541120003005777031200000030GAMONE PWINT (TGZ)     YGN           MMR11007231210160008180723000000000000000   10300003 00104100000000000000000000011799     
100   35710830014937400000000000001862000000001862002000000010410407231244490008198029010723220419000819   1030000100030000   541120003005777031200000030GAMONE PWINT (TGZ)     YGN           MMR11007231244490008190723000000000000000   10300003 00104100000000000000000000000372     
100   35710500315561680000000000120000000000120000002000000010410407230857320004812400570723220415000481   1030000100030000   541120000011777031200000002ZAW TI KA THINKAN TIKE YGN           MMR11007230857320004810723000000000000000   10300005 00104100000000000000000000024000     
100   9503190005279353000000000001637000000001637000200000001041040723072516000552DSVKFB0723220413000552   1030000100030000   541120003001777031200000030GAMONE PWINT (TGZ)     YGN           MMR11007230725160005520723000000000000000   10300014 00104100000000000000000000003274     
100   9503190005279353000000000002500000000002500000200000001041040723072901000553DTFTN00723220413000553   1030000100030000   541120003001777031200000030GAMONE PWINT (TGZ)     YGN           MMR11007230729010005530723000000000000000   10300014 00104100000000000000000000005000     
100   62444500100208650000000000013300000000013300002000000010410407230404400007525877310723220410000752   1030000100030000   541120003111777031200000031GAMONE PWINT (BKLZ)    YGN           MMR11007230404400007520723000000000000000   10300002 00104100000000000000000000004655     
100   62921400001503080000000000133100000000133100002000000010410407231302130008102222220723220419000810   1030000100030000   581210001201777031200000012L OPERA RESTAURANT YGN YGN           MMR11007231302130008100723000000000000000   10300009 00104100000000000000000000045254     
100   35710830066297280000000000005500000000005500002000000010410407230717340007536065510723220413000753   1030000100030000   541120003111777031200000031GAMONE PWINT (BKLZ)    YGN           MMR11007230717340007530723000000000000000   10300003 00104100000000000000000000001100     
100   35710500355039010000000000008526000000008526002000000010410407230911370005546519850723220415000554   1030000100030000   541120003001777031200000030GAMONE PWINT (TGZ)     YGN           MMR11007230911370005540723000000000000000   10300005 00104100000000000000000000001705     
100   9503051025371390000000000001800000000001800000200000001041040723105455000754YUNYOJ0723220417000754   1030000100030000   541120003111777031200000031GAMONE PWINT (BKLZ)    YGN           MMR11007231054550007540723000000000000000   10300002 00104100000000000000000000003600     
100   35710830922480780000000000029900000000029900002000000010410407231137210025167624210723220418002516   1030000100030000   541120003106777031200000031GAMONE PWINT (BKLZ)    YGN           MMR11007231137210025160723000000000000000   10300003 00104100000000000000000000005980     
100   35710500334803830000000000022500000000022500002000000010410407231134360025455287800723220418002545   1030000100030000   541120003117777031200000031GAMONE PWINT (BKLZ)    YGN           MMR11007231134360025450723000000000000000   10300005 00104100000000000000000000004500     
100   95030518724619630000000000017700000000017700002000000010410407230532250019093NDTXJ0723220412001909   1030000100030000   541110001920777031200000019GAMONE PWINT (KBA)     YGN           MMR11007230532250019090723000000000000000   10300002 00104100000000000000000000003540     
100   35710830972008920000000000013800000000013800002000000010410407230528120033635409320723220411003363   1030000100030000   541110001905777031200000019GAMONE PWINT (KBA)     YGN           MMR11007230528120033630723000000000000000   10300003 00104100000000000000000000002760     
100   35710950454704350000000000037700000000037700002000000010410407230451440019715190630723220411001971   1030000100030000   541110001915777031200000019GAMONE PWINT (KBA)     YGN           MMR11007230451440019710723000000000000000   10300003 00104100000000000000000000007540     
100   95030518901068140000000000020500000000020500002000000010410407230622170019739LAW5V0723220412001973   1030000100030000   541110001915777031200000019GAMONE PWINT (KBA)     YGN           MMR11007230622170019730723000000000000000   10300002 00104100000000000000000000004100     
100   95030518931842060000000000017000000000017000002000000010410407231055030025127MRUIW0723220417002512   1030000100030000   541120003106777031200000031GAMONE PWINT (BKLZ)    YGN           MMR11007231055030025120723000000000000000   10300002 00104100000000000000000000003400     
100   9503051885863312000000000000650000000000650000200000001041040723064759004362KSWFOS0723220413004362   1030000100030000   541110001907777031200000019GAMONE PWINT (KBA)     YGN           MMR11007230647590043620723000000000000000   10300002 00104100000000000000000000001300     
100   9503051889381386000000000003800000000003800000200000001041040723050734002506ZYP1ED0723220411002506   1030000100030000   541120003106777031200000031GAMONE PWINT (BKLZ)    YGN           MMR11007230507340025060723000000000000000   10300002 00104100000000000000000000007600     
100   62622000946142580000000000004200000000004200002000000010410407230846230043710765010723220415004371   1030000100030000   541110001907777031200000019GAMONE PWINT (KBA)     YGN           MMR11007230846230043710723000000000000000   10300006 00104100000000000000000000000840     
100   35710830422461640000000000025600000000025600002000000010410407230724100011606105110723220413001160   1030000100030000   541120003008777031200000030GAMONE PWINT (TGZ)     YGN           MMR11007230724100011600723000000000000000   10300003 00104100000000000000000000005120     
100   9503051024025740000000000001754500000001754500200000001041040723063852001719LCZXUA0723220413001719   1030000100030000   581250000001777031200000005AVENUE J COFFEE SHOP   YGN           MMR11007230638520017190723000000000000000   10300002 00104100000000000000000000005965     
100   9503051873525634000000000003290000000003290000200000001041040723074903002552Z5M7PL0723220414002552   1030000100030000   541110001903777031200000019GAMONE PWINT (KBA)     YGN           MMR11007230749030025520723000000000000000   10300002 00104100000000000000000000006580     
100   9503051895567622000000000004300000000004300000200000001041040723094300004374QGMBOE0723220416004374   1030000100030000   541110001907777031200000019GAMONE PWINT (KBA)     YGN           MMR11007230943000043740723000000000000000   10300002 00104100000000000000000000008600     
100   62441900003953780000000000012900000000012900002000000010410407230351360043384047540723220410004338   1030000100030000   541110001907777031200000019GAMONE PWINT (KBA)     YGN           MMR11007230351360043380723000000000000000   10300003 00104100000000000000000000004515     
100   9503051019588603000000000000260000000000260000200000001041040723100304004377ZUJU430723220416004377   1030000100030000   541110001907777031200000019GAMONE PWINT (KBA)     YGN           MMR11007231003040043770723000000000000000   10300002 00104100000000000000000000000520     
100   9503051891057560000000000002891000000002891000200000001041040723085359001163NTNPT40723220415001163   1030000100030000   541120003008777031200000030GAMONE PWINT (TGZ)     YGN           MMR11007230853590011630723000000000000000   10300002 00104100000000000000000000005782     
100   35710830373265420000000000020900000000020900002000000010410407231200530017207765520723220418001720   1030000100030000   581250000001777031200000005AVENUE J COFFEE SHOP   YGN           MMR11007231200530017200723000000000000000   10300003 00104100000000000000000000007106     
100   35710830136051820000000000013632000000013632002000000010410407230649250025405896720723220413002540   1030000100030000   541120003117777031200000031GAMONE PWINT (BKLZ)    YGN           MMR11007230649250025400723000000000000000   10300003 00104100000000000000000000002726     
100   95030510250919640000000000048500000000048500002000000010410407230945370019786IMNTJ0723220416001978   1030000100030000   541110001915777031200000019GAMONE PWINT (KBA)     YGN           MMR11007230945370019780723000000000000000   10300002 00104100000000000000000000009700     
100   9503051897725160000000000000652800000000652800200000001041040723114133001980NIFAU20723220418001980   1030000100030000   541110001915777031200000019GAMONE PWINT (KBA)     YGN           MMR11007231141330019800723000000000000000   10300002 00104100000000000000000000001306     
100   9503051025746823000000000050000000000050000000200000001041040723052445004347WTFZHN0723220411004347   1030000100030000   541110001907777031200000019GAMONE PWINT (KBA)     YGN           MMR11007230524450043470723000000000000000   10300002 00104100000000000000000000100000     
100   9503054000469148000000000012870000000012870000200000001041040723023755001948HQJTUA0723220409001948   1030000100030000   541160000001777031200000006MK FASHION             YGN           MMR11007230237550019480723000000000000000   10300002 00104100000000000000000000025740     
100   35710830339367400000000000027500000000027500002000000010410407230751350019766269610723220414001976   1030000100030000   541110001915777031200000019GAMONE PWINT (KBA)     YGN           MMR11007230751350019760723000000000000000   10300003 00104100000000000000000000005500     
100   9503051021508409000000000001440000000001440000200000001041040723090357001165U2OEOQ0723220415001165   1030000100030000   541120003008777031200000030GAMONE PWINT (TGZ)     YGN           MMR11007230903570011650723000000000000000   10300002 00104100000000000000000000002880     
100   9503051886577119000000000000700000000000700000200000001041040723072510001914GSHKCA0723220413001914   1030000100030000   541110001920777031200000019GAMONE PWINT (KBA)     YGN           MMR11007230725100019140723000000000000000   10300002 00104100000000000000000000001400     
100   35710830339367400000000000025800000000025800002000000010410407230804090025546345110723220414002554   1030000100030000   541110001903777031200000019GAMONE PWINT (KBA)     YGN           MMR11007230804090025540723000000000000000   10300003 00104100000000000000000000005160     
100   35710500315039620000000000060000000000060000002000000010410407230528530043537980170723220411004353   1030000100030000   541110001907777031200000019GAMONE PWINT (KBA)     YGN           MMR11007230528530043530723000000000000000   10300005 00104100000000000000000000012000     
100   35710500305186800000000000056500000000056500002000000010410407231145040025567976780723220418002556   1030000100030000   541110001903777031200000019GAMONE PWINT (KBA)     YGN           MMR11007231145040025560723000000000000000   10300005 00104100000000000000000000011300     
100   35710500102216440000000000019900000000019900002000000010410407230920270011676165680723220415001167   1030000100030000   541120003008777031200000030GAMONE PWINT (TGZ)     YGN           MMR11007230920270011670723000000000000000   10300005 00104100000000000000000000003980     
100   35710500323712520000000000035900000000035900002000000010410407230334220025041712250723220410002504   1030000100030000   541120003106777031200000031GAMONE PWINT (BKLZ)    YGN           MMR11007230334220025040723000000000000000   10300005 00104100000000000000000000007180     
100   9503051025371390000000000001050000000001050000200000001041040723103543002543XLQTZ20723220417002543   1030000100030000   541120003117777031200000031GAMONE PWINT (BKLZ)    YGN           MMR11007231035430025430723000000000000000   10300002 00104100000000000000000000002100     
100   35710500120625170000000000011200000000011200002000000010410407231116520025448185980723220417002544   1030000100030000   541120003117777031200000031GAMONE PWINT (BKLZ)    YGN           MMR11007231116520025440723000000000000000   10300005 00104100000000000000000000002240     
100   35710950278993870000000000018000000000018000002000000010410407230736100019166177110723220414001916   1030000100030000   541110001920777031200000019GAMONE PWINT (KBA)     YGN           MMR11007230736100019160723000000000000000   10300003 00104100000000000000000000003600     
100   9503051886575998000000000009700000000009700000200000001041040723053321004356LUWJJE0723220412004356   1030000100030000   541110001907777031200000019GAMONE PWINT (KBA)     YGN           MMR11007230533210043560723000000000000000   10300002 00104100000000000000000000019400     
100   9503051025801743000000000002355000000002355000200000001041040723063745004359EH7T2K0723220413004359   1030000100030000   541110001907777031200000019GAMONE PWINT (KBA)     YGN           MMR11007230637450043590723000000000000000   10300002 00104100000000000000000000004710     
100   95030510249319620000000000006000000000006000002000000010410407230406260019676XBY2Q0723220410001967   1030000100030000   541110001915777031200000019GAMONE PWINT (KBA)     YGN           MMR11007230406260019670723000000000000000   10300002 00104100000000000000000000001200     
100   9503051872461963000000000003600000000003600000200000001041040723041321001969XX58HM0723220410001969   1030000100030000   541110001915777031200000019GAMONE PWINT (KBA)     YGN           MMR11007230413210019690723000000000000000   10300002 00104100000000000000000000007200     
100   9503051887621668000000000003420000000003420000200000001041040723082331004367ZMR1QD0723220414004367   1030000100030000   541110001907777031200000019GAMONE PWINT (KBA)     YGN           MMR11007230823310043670723000000000000000   10300002 00104100000000000000000000006840     
100   95030510230494770000000000004600000000004600002000000010410407220700460019580THT9D0722220313001958   1030000100030000   541110001915777031200000019GAMONE PWINT (KBA)     YGN           MMR11007220700460019580722000000000000000   10300002 00104100000000000000000000000920     
100   9503051024428654000000000001300000000001300000200000001041040722121459001961BJP7ZQ0722220318001961   1030000100030000   541110001915777031200000019GAMONE PWINT (KBA)     YGN           MMR11007221214590019610722000000000000000   10300002 00104100000000000000000000002600     
100   35710500333129660000000000016500000000016500002000000010410407231317090003095098660723220419000309   1030000100030000   541120003115777031200000031GAMONE PWINT (BKLZ)    YGN           MMR11007231317090003090723000000000000000   10300005 00104100000000000000000000003300     
100   9503051894015623000000000002050000000002050000200000001041040723090547001017SXX8GA0723220415001017   1030000100030000   541120003103777031200000031GAMONE PWINT (BKLZ)    YGN           MMR11007230905470010170723000000000000000   10300002 00104100000000000000000000004100     
100   9503051022431494000000000000859500000000859500200000001041040723092225000555BTEKHC0723220415000555   1030000100030000   541120003001777031200000030GAMONE PWINT (TGZ)     YGN           MMR11007230922250005550723000000000000000   10300002 00104100000000000000000000001719     
100   35710500363810340000000000044400000000044400002000000010410407230613050009827620290723220412000982   1030000100030000   541120003104777031200000031GAMONE PWINT (BKLZ)    YGN           MMR11007230613050009820723000000000000000   10300005 00104100000000000000000000008880     
100   9503051894015623000000000002640000000002640000200000001041040723092928000986PDBQK40723220415000986   1030000100030000   541120003104777031200000031GAMONE PWINT (BKLZ)    YGN           MMR11007230929280009860723000000000000000   10300002 00104100000000000000000000005280     
100   35710830369914370000000000021300000000021300002000000010410407231040500009887285210723220417000988   1030000100030000   541120003104777031200000031GAMONE PWINT (BKLZ)    YGN           MMR11007231040500009880723000000000000000   10300003 00104100000000000000000000004260     
100   9503051026001806000000000003750000000003750000200000001041040723064525000430RGZSIE0723220413000430   1030000100030000   541110001917777031200000019GAMONE PWINT (KBA)     YGN           MMR11007230645250004300723000000000000000   10300002 00104100000000000000000000007500     
100   9503051023276690000000000001080000000001080000200000001041040723064613000551F8XGEC0723220413000551   1030000100030000   541120003001777031200000030GAMONE PWINT (TGZ)     YGN           MMR11007230646130005510723000000000000000   10300002 00104100000000000000000000002160     
100   9503051891978690000000000003125000000003125000200000001041040723050741000814ZQBILB0723220411000814   1030000100030000   541120003005777031200000030GAMONE PWINT (TGZ)     YGN           MMR11007230507410008140723000000000000000   10300002 00104100000000000000000000006250     
100   9503051025951431000000000001850000000001850000200000001041040723114611000755LERITE0723220418000755   1030000100030000   541120003111777031200000031GAMONE PWINT (BKLZ)    YGN           MMR11007231146110007550723000000000000000   10300002 00104100000000000000000000003700     
100   35710830267264130000000000006200000000006200002000000010410407231206370009907799910723220418000990   1030000100030000   541120003104777031200000031GAMONE PWINT (BKLZ)    YGN           MMR11007231206370009900723000000000000000   10300003 00104100000000000000000000001240     
100   35710500374034310000000000005500000000005500002000000010410407231025170005576638240723220416000557   1030000100030000   541120003001777031200000030GAMONE PWINT (TGZ)     YGN           MMR11007231025170005570723000000000000000   10300005 00104100000000000000000000001100     
100   35710830136051820000000000039600000000039600002000000010410407230702520005515977350723220413000551   1030000100030000   541120003105777031200000031GAMONE PWINT (BKLZ)    YGN           MMR11007230702520005510723000000000000000   10300003 00104100000000000000000000007920     
100   35710500335367540000000000014600000000014600002000000010410407230922010009840151420723220415000984   1030000100030000   541120003104777031200000031GAMONE PWINT (BKLZ)    YGN           MMR11007230922010009840723000000000000000   10300005 00104100000000000000000000002920     
