100   35710500323508680000000000027000000000027000002000000010410407240753050011763653830724220514001176   1030000100030000   541120003008777031200000030GAMONE PWINT (TGZ)     YGN           MMR11007240753050011760724000000000000000   10300005 00104100000000000000000000005400     
100   62444500200695550000000000030900000000030900002000000010410407240425160025236360970724220510002523   1030000100030000   541120003106777031200000031GAMONE PWINT (BKLZ)    YGN           MMR11007240425160025230724000000000000000   10300002 00104100000000000000000000010815     
100   35710830677020000000000000026000000000026000002000000010410407240708180019864649920724220513001986   1030000100030000   541110001915777031200000019GAMONE PWINT (KBA)     YGN           MMR11007240708180019860724000000000000000   10300003 00104100000000000000000000005200     
100   9503051891079218000000000001440000000001440000200000001041040724102209001925BZBMHR0724220516001925   1030000100030000   541110001920777031200000019GAMONE PWINT (KBA)     YGN           MMR11007241022090019250724000000000000000   10300002 00104100000000000000000000002880     
100   35710500144126370000000000014000000000014000002000000010410407241117520025770146670724220517002577   1030000100030000   541110001903777031200000019GAMONE PWINT (KBA)     YGN           MMR11007241117520025770724000000000000000   10300005 00104100000000000000000000002800     
100   35710830900573800000000000026000000000026000002000000010410407240753540044024923510724220514004402   1030000100030000   541110001907777031200000019GAMONE PWINT (KBA)     YGN           MMR11007240753540044020724000000000000000   10300003 00104100000000000000000000005200     
100   35710500365666830000000000010080000000010080002000000010410407241211560009965324310724220518000996   1030000100030000   541120003104777031200000031GAMONE PWINT (BKLZ)    YGN           MMR11007241211560009960724000000000000000   10300005 00104100000000000000000000002016     
100   9503190000652562000000000002250000000002250000200000001041040724080728001026JR28XW0724220514001026   1030000100030000   541120003103777031200000031GAMONE PWINT (BKLZ)    YGN           MMR11007240807280010260724000000000000000   10300014 00104100000000000000000000004500     
100   62622000805151540000000000013700000000013700002000000010410407240853310008230978800724220515000823   1030000100030000   541120003005777031200000030GAMONE PWINT (TGZ)     YGN           MMR11007240853310008230724000000000000000   10300006 00104100000000000000000000002740     
100   35710830084307290000000000030000000000030000002000000010410407231151150000357707610723220418000035   1030000100030000   541110900003777030900000003TOP STAR SPORTWEARS &  NPT           MMR11007231151150000350723000000000000000   10300003 00104100000000000000000000006000     
100   35650883620012870000000000021000000000021000002000000010410407230405240000330288470723220410000033   1030000100030000   541120000015777031200000002ZAW TI KA THINKAN TIKE YGN           MMR11007230405240000330723000000000000000   10300005 00104100000000000000000000007350     
100   35710830084307290000000000009500000000009500002000000010410407231153090000367719010723220418000036   1030000100030000   541110900003777030900000003TOP STAR SPORTWEARS &  NPT           MMR11007231153090000360723000000000000000   10300003 00104100000000000000000000001900     
100   35710500113918750000000000025500000000025500002000000010410407240832090007618556120724220515000761   1030000100030000   541120003111777031200000031GAMONE PWINT (BKLZ)    YGN           MMR11007240832090007610724000000000000000   10300005 00104100000000000000000000005100     
100   9503051884906849000000000000130000000000130000200000001041040724102431000279VVOWJH0724220516000279   1030000100030000   541120003114777031200000031GAMONE PWINT (BKLZ)    YGN           MMR11007241024310002790724000000000000000   10300002 00104100000000000000000000000260     
100   35710500133553160000000000013500000000013500002000000010410407240833390004416307960724220515000441   1030000100030000   541110001917777031200000019GAMONE PWINT (KBA)     YGN           MMR11007240833390004410724000000000000000   10300005 00104100000000000000000000002700     
100   95031200201117450000000000016500000000016500002000000010410407240812530005332222220724220514000533   1030000100030000   541120003012777031200000030GAMONE PWINT (TGZ)     YGN           MMR11007240812530005330724000000000000000   10300009 00104100000000000000000000003300     
100   62343302004369680000000000031500000000031500002000000010410407240656260005039927490724220513000503   1030000100030000   541120003013777031200000030GAMONE PWINT (TGZ)     YGN           MMR11007240656260005030724000000000000000   10300004 00104100000000000000000000006300     
100   35710500354444940000000000010080000000010080002000000010410407240519370004358891570724220511000435   1030000100030000   541110001917777031200000019GAMONE PWINT (KBA)     YGN           MMR11007240519370004350724000000000000000   10300005 00104100000000000000000000002016     
100   9503051020481103000000000002100000000002100000200000001041040724084524000444IAGIHG0724220515000444   1030000100030000   541110001917777031200000019GAMONE PWINT (KBA)     YGN           MMR11007240845240004440724000000000000000   10300002 00104100000000000000000000004200     
100   62346600181163150000000000004200000000004200002000000010410407240454490002788608700724220511000278   1030000100030000   541120003114777031200000031GAMONE PWINT (BKLZ)    YGN           MMR11007240454490002780724000000000000000   10300005 00104100000000000000000000000840     
100   35710851079736570000000000068500000000068500002000000010410407240638390004374472030724220513000437   1030000100030000   541110001917777031200000019GAMONE PWINT (KBA)     YGN           MMR11007240638390004370724000000000000000   10300003 00104100000000000000000000013700     
100   95031200201117450000000000006250000000006250002000000010410407240820310005052222220724220514000505   1030000100030000   541120003013777031200000030GAMONE PWINT (TGZ)     YGN           MMR11007240820310005050724000000000000000   10300009 00104100000000000000000000001250     
100   35710950142159690000000000011900000000011900002000000010410407240652350004394555700724220513000439   1030000100030000   541110001917777031200000019GAMONE PWINT (KBA)     YGN           MMR11007240652350004390724000000000000000   10300003 00104100000000000000000000002380     
100   35710830402088510000000000071000000000071000002000000010410407241107520005066087320724220517000506   1030000100030000   541120003013777031200000030GAMONE PWINT (TGZ)     YGN           MMR11007241107520005060724000000000000000   10300003 00104100000000000000000000014200     
100   35710500365666830000000000029280000000029280002000000010410407241053010025599012840724220517002559   1030000100030000   541120003117777031200000031GAMONE PWINT (BKLZ)    YGN           MMR11007241053010025590724000000000000000   10300005 00104100000000000000000000005856     
100   35710500375974890000000000003400000000003400002000000010410407241135190011786869270724220518001178   1030000100030000   541120003008777031200000030GAMONE PWINT (TGZ)     YGN           MMR11007241135190011780724000000000000000   10300005 00104100000000000000000000000680     
100   9503051025928926000000000003000000000003000000200000001041040724071919001988XOOGZ90724220513001988   1030000100030000   541110001915777031200000019GAMONE PWINT (KBA)     YGN           MMR11007240719190019880724000000000000000   10300002 00104100000000000000000000006000     
100   95031800781411680000000000019745000000019745002000000010410407241051290017256826360724220517001725   1030000100030000   581250000001777031200000005AVENUE J COFFEE SHOP   YGN           MMR11007241051290017250724000000000000000   10300013 00104100000000000000000000006713     
100   9503051889734618000000000013975000000013975000200000001041040724055445001952LRCNOG0724220512001952   1030000100030000   541160000001777031200000006MK FASHION             YGN           MMR11007240554450019520724000000000000000   10300002 00104100000000000000000000027950     
100   9503051026177887000000000003890000000003890000200000001041040724042231001172VVSMEB0724220510001172   1030000100030000   541120003008777031200000030GAMONE PWINT (TGZ)     YGN           MMR11007240422310011720724000000000000000   10300002 00104100000000000000000000007780     
100   35710500386126670000000000021450000000021450002000000010410407240449230017229253820724220511001722   1030000100030000   581250000001777031200000005AVENUE J COFFEE SHOP   YGN           MMR11007240449230017220724000000000000000   10300005 00104100000000000000000000007293     
100   35710500173978350000000000244100000000244100002000000010410407240805270044052454400724220514004405   1030000100030000   541110001907777031200000019GAMONE PWINT (KBA)     YGN           MMR11007240805270044050724000000000000000   10300005 00104100000000000000000000048820     
100   9503051019957212000000000000610000000000610000200000001041040724093731001998YW2XRS0724220516001998   1030000100030000   541110001915777031200000019GAMONE PWINT (KBA)     YGN           MMR11007240937310019980724000000000000000   10300002 00104100000000000000000000001220     
100   62921400044252680000000000006300000000006300002000000010410407241137070020002222220724220518002000   1030000100030000   541110001915777031200000019GAMONE PWINT (KBA)     YGN           MMR11007241137070020000724000000000000000   10300009 00104100000000000000000000001260     
100   35650883660011270000000000115250000000115250002000000010410407241145500019541966980724220518001954   1030000100030000   541160000001777031200000006MK FASHION             YGN           MMR11007241145500019540724000000000000000   10300005 00104100000000000000000000040337     
100   35710830823725810000000000052800000000052800002000000010410407240552190025644194010724220512002564   1030000100030000   541110001903777031200000019GAMONE PWINT (KBA)     YGN           MMR11007240552190025640724000000000000000   10300003 00104100000000000000000000010560     
100   35710500360198080000000000016390000000016390002000000010410407240848020017239796910724220515001723   1030000100030000   581250000001777031200000005AVENUE J COFFEE SHOP   YGN           MMR11007240848020017230724000000000000000   10300005 00104100000000000000000000005573     
100   9503051025928926000000000000640000000000640000200000001041040724072409001990R5UKN70724220513001990   1030000100030000   541110001915777031200000019GAMONE PWINT (KBA)     YGN           MMR11007240724090019900724000000000000000   10300002 00104100000000000000000000001280     
100   9503051893135992000000000000970000000000970000200000001041040724073741001992SQQCDN0724220514001992   1030000100030000   541110001915777031200000019GAMONE PWINT (KBA)     YGN           MMR11007240737410019920724000000000000000   10300002 00104100000000000000000000001940     
100   35710950454704350000000000098000000000098000002000000010410407240627400033754406120724220512003375   1030000100030000   541110001905777031200000019GAMONE PWINT (KBA)     YGN           MMR11007240627400033750724000000000000000   10300003 00104100000000000000000000019600     
100   62346600128818800000000000022000000000022000002000000010410407240543370007572053930724220512000757   1030000100030000   541120003111777031200000031GAMONE PWINT (BKLZ)    YGN           MMR11007240543370007570724000000000000000   10300005 00104100000000000000000000004400     
100   9503051025649563000000000001000000000001000000200000001041040724064902000758SFMUY90724220513000758   1030000100030000   541120003111777031200000031GAMONE PWINT (BKLZ)    YGN           MMR11007240649020007580724000000000000000   10300002 00104100000000000000000000002000     
100   9503190005907029000000000000770000000000770000200000001041040724100915001724I1X9LJ0724220516001724   1030000100030000   581250000001777031200000005AVENUE J COFFEE SHOP   YGN           MMR11007241009150017240724000000000000000   10300014 00104100000000000000000000002618     
100   35710500325411360000000000034100000000034100002000000010410407240811500044084307020724220514004408   1030000100030000   541110001907777031200000019GAMONE PWINT (KBA)     YGN           MMR11007240811500044080724000000000000000   10300005 00104100000000000000000000006820     
100   35710500131980620000000000024000000000024000002000000010410407240653340025675901770724220513002567   1030000100030000   541110001903777031200000019GAMONE PWINT (KBA)     YGN           MMR11007240653340025670724000000000000000   10300005 00104100000000000000000000004800     
100   95030510204736050000000000003000000000003000002000000010410407240711070025696HNHIE0724220513002569   1030000100030000   541110001903777031200000019GAMONE PWINT (KBA)     YGN           MMR11007240711070025690724000000000000000   10300002 00104100000000000000000000000600     
100   35710830356291520000000000130000000000130000002000000010410407240340340043853403610724220510004385   1030000100030000   541110001907777031200000019GAMONE PWINT (KBA)     YGN           MMR11007240340340043850724000000000000000   10300003 00104100000000000000000000026000     
100   9503051896064736000000000012050000000012050000200000001041040724041425004387UWC5ZO0724220510004387   1030000100030000   541110001907777031200000019GAMONE PWINT (KBA)     YGN           MMR11007240414250043870724000000000000000   10300002 00104100000000000000000000024100     
100   35711450001291930000000000002250000000002250002000000010410407240438510043899175330724220511004389   1030000100030000   541110001907777031200000019GAMONE PWINT (KBA)     YGN           MMR11007240438510043890724000000000000000   10200001 00104100000000000000000000000450     
100   95031800370731220000000000003675000000003675002000000010410407240801570025539143750724220514002553   1030000100030000   541120003117777031200000031GAMONE PWINT (BKLZ)    YGN           MMR11007240801570025530724000000000000000   10300013 00104100000000000000000000000735     
100   62343301011789330000000000038800000000038800002000000010410407240834140033846018060724220515003384   1030000100030000   541110001905777031200000019GAMONE PWINT (KBA)     YGN           MMR11007240834140033840724000000000000000   10300004 00104100000000000000000000007760     
100   950305188758159900000000000650000000000650000020000000104104072410090600339023XK5C0724220516003390   1030000100030000   541110001905777031200000019GAMONE PWINT (KBA)     YGN           MMR11007241009060033900724000000000000000   10300002 00104100000000000000000000013000     
100   9503051019618780000000000003500000000003500000200000001041040724065148000759XKOFUY0724220513000759   1030000100030000   541120003111777031200000031GAMONE PWINT (BKLZ)    YGN           MMR11007240651480007590724000000000000000   10300002 00104100000000000000000000007000     
100   95031900036353170000000000011000000000011000002000000010410407241231540011802W6JR50724220519001180   1030000100030000   541120003008777031200000030GAMONE PWINT (TGZ)     YGN           MMR11007241231540011800724000000000000000   10300014 00104100000000000000000000002200     
100   9503190000652562000000000003170000000003170000200000001041040724075630001022QZBQJT0724220514001022   1030000100030000   541120003103777031200000031GAMONE PWINT (BKLZ)    YGN           MMR11007240756300010220724000000000000000   10300014 00104100000000000000000000006340     
100   35710830081593440000000000022110000000022110002000000010410407241209540017266459520724220518001726   1030000100030000   581250000001777031200000005AVENUE J COFFEE SHOP   YGN           MMR11007241209540017260724000000000000000   10300003 00104100000000000000000000007518     
100   9503051025946183000000000004460000000004460000200000001041040724073632002550UMERF50724220514002550   1030000100030000   541120003117777031200000031GAMONE PWINT (BKLZ)    YGN           MMR11007240736320025500724000000000000000   10300002 00104100000000000000000000008920     
100   9503051026018842000000000000355000000000355000200000001041040724090137004412HXYWQS0724220515004412   1030000100030000   541110001907777031200000019GAMONE PWINT (KBA)     YGN           MMR11007240901370044120724000000000000000   10300002 00104100000000000000000000000710     
100   9503051025932639000000000002900000000002900000200000001041040724100236004418JDR2G60724220516004418   1030000100030000   541110001907777031200000019GAMONE PWINT (KBA)     YGN           MMR11007241002360044180724000000000000000   10300002 00104100000000000000000000005800     
100   9503051026152377000000000000960000000000960000200000001041040724115535002002OESJZS0724220518002002   1030000100030000   541110001915777031200000019GAMONE PWINT (KBA)     YGN           MMR11007241155350020020724000000000000000   10300002 00104100000000000000000000001920     
100   9503051019822390000000000006860000000006860000200000001041040724051701004392Y0ELKU0724220511004392   1030000100030000   541110001907777031200000019GAMONE PWINT (KBA)     YGN           MMR11007240517010043920724000000000000000   10300002 00104100000000000000000000013720     
100   95030510208779530000000000006600000000006600002000000010410407240918110019948TCEKW0724220515001994   1030000100030000   541110001915777031200000019GAMONE PWINT (KBA)     YGN           MMR11007240918110019940724000000000000000   10300002 00104100000000000000000000001320     
100   35710500131980620000000000024000000000024000002000000010410407240630320019845536380724220513001984   1030000100030000   541110001915777031200000019GAMONE PWINT (KBA)     YGN           MMR11007240630320019840724000000000000000   10300005 00104100000000000000000000004800     
100   35710830330428460000000000059500000000059500002000000010410407240809400025565018110724220514002556   1030000100030000   541120003117777031200000031GAMONE PWINT (BKLZ)    YGN           MMR11007240809400025560724000000000000000   10300003 00104100000000000000000000011900     
100   35710500321547240000000000033800000000033800002000000010410407240853070007622009420724220515000762   1030000100030000   541120003111777031200000031GAMONE PWINT (BKLZ)    YGN           MMR11007240853070007620724000000000000000   10300005 00104100000000000000000000006760     
100   9503051884095957000000000001350000000001350000200000001041040724113930001932TYYASD0724220518001932   1030000100030000   541110001920777031200000019GAMONE PWINT (KBA)     YGN           MMR11007241139300019320724000000000000000   10300002 00104100000000000000000000002700     
100   35710500181305650000000000007800000000007800002000000010410407240545470043940912020724220512004394   1030000100030000   541110001907777031200000019GAMONE PWINT (KBA)     YGN           MMR11007240545470043940724000000000000000   10300005 00104100000000000000000000001560     
100   35710500365547470000000000017600000000017600002000000010410407240748510025738575620724220514002573   1030000100030000   541110001903777031200000019GAMONE PWINT (KBA)     YGN           MMR11007240748510025730724000000000000000   10300005 00104100000000000000000000003520     
100   95030800016104300000000000037056000000037056002000000010410407240741480043994850930724220514004399   1030000100030000   541110001907777031200000019GAMONE PWINT (KBA)     YGN           MMR11007240741480043990724000000000000000   10300003 00104100000000000000000000007411     
100   9503051019636691000000000000250000000000250000200000001041040724121713000560QV7DEG0724220518000560   1030000100030000   541120003001777031200000030GAMONE PWINT (TGZ)     YGN           MMR11007241217130005600724000000000000000   10300002 00104100000000000000000000000500     
100   35710830250062700000000000029700000000029700002000000010410407240325490009933315010724220509000993   1030000100030000   541120003104777031200000031GAMONE PWINT (BKLZ)    YGN           MMR11007240325490009930724000000000000000   10300003 00104100000000000000000000005940     
100   62622000219193580000000000028800000000028800002000000010410407240806190010240767230724220514001024   1030000100030000   541120003103777031200000031GAMONE PWINT (BKLZ)    YGN           MMR11007240806190010240724000000000000000   10300006 00104100000000000000000000005760     
100   35710500132822700000000000014250000000014250002000000010410407240920260019961189390724220515001996   1030000100030000   541110001915777031200000019GAMONE PWINT (KBA)     YGN           MMR11007240920260019960724000000000000000   10300005 00104100000000000000000000002850     
100   62346600180647130000000000023500000000023500002000000010410407240902210007634932630724220515000763   1030000100030000   541120003111777031200000031GAMONE PWINT (BKLZ)    YGN           MMR11007240902210007630724000000000000000   10300005 00104100000000000000000000004700     
100   9503051026614509000000000005630000000005630000200000001041040724102358000764GYQ2EY0724220516000764   1030000100030000   541120003111777031200000031GAMONE PWINT (BKLZ)    YGN           MMR11007241023580007640724000000000000000   10300002 00104100000000000000000000011260     
100   35710830143488080000000000031450000000031450002000000010410407240516100008213977110724220511000821   1030000100030000   541120003005777031200000030GAMONE PWINT (TGZ)     YGN           MMR11007240516100008210724000000000000000   10300003 00104100000000000000000000006290     
100   9503051026027405000000000000877100000000877100200000001041040724053053000822MJD5MO0724220512000822   1030000100030000   541120003005777031200000030GAMONE PWINT (TGZ)     YGN           MMR11007240530530008220724000000000000000   10300002 00104100000000000000000000001754     
