100   9503051023307107000000000000180000000000180000200000001041040725065659000515I6FFUJ0725220613000515   1030000100030000   541120003013777031200000030GAMONE PWINT (TGZ)     YGN           MMR11007250656590005150725000000000000000   10300002 00104100000000000000000000000360     
100   62343301017519600000000000016500000000016500002000000010410407250615220010014017150725220612001001   1030000100030000   541120003104777031200000031GAMONE PWINT (BKLZ)    YGN           MMR11007250615220010010725000000000000000   10300004 00104100000000000000000000003300     
100   9503051022722967000000000002380000000002380000200000001041040725065203001003J0M2B60725220613001003   1030000100030000   541120003104777031200000031GAMONE PWINT (BKLZ)    YGN           MMR11007250652030010030725000000000000000   10300002 00104100000000000000000000004760     
100   35710500111942950000000000015600000000015600002000000010410407250743010010046684260725220614001004   1030000100030000   541120003104777031200000031GAMONE PWINT (BKLZ)    YGN           MMR11007250743010010040725000000000000000   10300005 00104100000000000000000000003120     
100   9503051024968956000000000005580000000005580000200000001041040725111357002598NXQVIN0725220617002598   1030000100030000   541110001903777031200000019GAMONE PWINT (KBA)     YGN           MMR11007251113570025980725000000000000000   10300002 00104100000000000000000000011160     
100   62622000144024530000000000012950000000012950002000000010410407250748040005660708600725220614000566   1030000100030000   541120003001777031200000030GAMONE PWINT (TGZ)     YGN           MMR11007250748040005660725000000000000000   10300006 00104100000000000000000000002590     
100   35710830666308550000000000014500000000014500002000000010410407250442350007672415610725220611000767   1030000100030000   541120003111777031200000031GAMONE PWINT (BKLZ)    YGN           MMR11007250442350007670725000000000000000   10300003 00104100000000000000000000002900     
100   9503051894207618000000000002160000000002160000200000001041040725062644000768MIPVWD0725220612000768   1030000100030000   541120003111777031200000031GAMONE PWINT (BKLZ)    YGN           MMR11007250626440007680725000000000000000   10300002 00104100000000000000000000004320     
100   9503051886309075000000000003600000000003600000200000001041040725042255004422V6AGNS0725220610004422   1030000100030000   541110001907777031200000019GAMONE PWINT (KBA)     YGN           MMR11007250422550044220725000000000000000   10300002 00104100000000000000000000007200     
100   95030201000351880000000000058200000000058200002000000010410407250634270044242150630725220613004424   1030000100030000   541110001907777031200000019GAMONE PWINT (KBA)     YGN           MMR11007250634270044240725000000000000000   10200002 00104100000000000000000000011640     
100   35710830336336020000000000010290000000010290002000000010410407250447310034022445310725220611003402   1030000100030000   541110001905777031200000019GAMONE PWINT (KBA)     YGN           MMR11007250447310034020725000000000000000   10300003 00104100000000000000000000002058     
100   9503051891884815000000000000560000000000560000200000001041040725074146004426IALKXJ0725220614004426   1030000100030000   541110001907777031200000019GAMONE PWINT (KBA)     YGN           MMR11007250741460044260725000000000000000   10300002 00104100000000000000000000001120     
100   35710830109603900000000000029900000000029900002000000010410407250923510034074103310725220615003407   1030000100030000   541110001905777031200000019GAMONE PWINT (KBA)     YGN           MMR11007250923510034070725000000000000000   10300003 00104100000000000000000000005980     
100   35710830223789610000000000075000000000075000002000000010410407250756540044283581600725220614004428   1030000100030000   541110001907777031200000019GAMONE PWINT (KBA)     YGN           MMR11007250756540044280725000000000000000   10300003 00104100000000000000000000015000     
100   35710500380485400000000000164600000000164600002000000010410407250717520025890477940725220613002589   1030000100030000   541110001903777031200000019GAMONE PWINT (KBA)     YGN           MMR11007250717520025890725000000000000000   10300005 00104100000000000000000000032920     
100   95030510254493110000000000016000000000016000002000000010410407250758090044315KVFQY0725220614004431   1030000100030000   541110001907777031200000019GAMONE PWINT (KBA)     YGN           MMR11007250758090044310725000000000000000   10300002 00104100000000000000000000003200     
100   9503051026151650000000000002300000000002300000200000001041040724110002000283SKSSCC0724220517000283   1030000100030000   541120000017777031200000002ZAW TI KA THINKAN TIKE YGN           MMR11007241100020002830724000000000000000   10300002 00104100000000000000000000004600     
100   9503051891399004000000000016670000000016670000200000001041040724141408000812WGS6NC0724220520000812   1030000100030000   581210001201777031200000012L OPERA RESTAURANT YGN YGN           MMR11007241414080008120724000000000000000   10300002 00104100000000000000000000056678     
100   9503051024320109000000000009604000000009604000200000001041040725123856000520YUKR630725220619000520   1030000100030000   541120003013777031200000030GAMONE PWINT (TGZ)     YGN           MMR11007251238560005200725000000000000000   10300002 00104100000000000000000000019208     
100   62441900102191050000000000024000000000024000002000000010410407250711470005167047280725220613000516   1030000100030000   541120003013777031200000030GAMONE PWINT (TGZ)     YGN           MMR11007250711470005160725000000000000000   10300003 00104100000000000000000000008400     
100   9503051872439837000000000000890000000000890000200000001041040725064144000828XTDZR40725220613000828   1030000100030000   541120003005777031200000030GAMONE PWINT (TGZ)     YGN           MMR11007250641440008280725000000000000000   10300002 00104100000000000000000000001780     
100   35710500314052830000000000009450000000009450002000000010410407251019110010084683090725220616001008   1030000100030000   541120003104777031200000031GAMONE PWINT (BKLZ)    YGN           MMR11007251019110010080725000000000000000   10300005 00104100000000000000000000001890     
100   9503051872439837000000000001500000000001500000200000001041040725062508000545RLUJVS0725220612000545   1030000100030000   541120003012777031200000030GAMONE PWINT (TGZ)     YGN           MMR11007250625080005450725000000000000000   10300002 00104100000000000000000000003000     
100   95030518869044950000000000030200000000030200002000000010410407251001090010069EEPMB0725220616001006   1030000100030000   541120003104777031200000031GAMONE PWINT (BKLZ)    YGN           MMR11007251001090010060725000000000000000   10300002 00104100000000000000000000006040     
100   35710830529373550000000000100950000000100950002000000010410407250922530019584097410725220615001958   1030000100030000   541160000001777031200000006MK FASHION             YGN           MMR11007250922530019580725000000000000000   10300003 00104100000000000000000000020190     
100   35710500364745990000000000031800000000031800002000000010410407251225020026016450830725220618002601   1030000100030000   541110001903777031200000019GAMONE PWINT (KBA)     YGN           MMR11007251225020026010725000000000000000   10300005 00104100000000000000000000006360     
100   9503190006135299000000000001626800000001626800200000001041040725093826000829U2M60W0725220616000829   1030000100030000   541120003005777031200000030GAMONE PWINT (TGZ)     YGN           MMR11007250938260008290725000000000000000   10300014 00104100000000000000000000003254     
100   9503051885465902000000000003990000000003990000200000001041040725045138002586DJXKYW0725220611002586   1030000100030000   541110001903777031200000019GAMONE PWINT (KBA)     YGN           MMR11007250451380025860725000000000000000   10300002 00104100000000000000000000007980     
100   9503051024799302000000000000800000000000800000200000001041040725070459000556VH1RTN0725220613000556   1030000100030000   541120003105777031200000031GAMONE PWINT (BKLZ)    YGN           MMR11007250704590005560725000000000000000   10300002 00104100000000000000000000001600     
100   950319000613458100000000000014000000000014000020000000104104072508501400051728K36H0725220615000517   1030000100030000   541120003013777031200000030GAMONE PWINT (TGZ)     YGN           MMR11007250850140005170725000000000000000   10300014 00104100000000000000000000000280     
100   35710500383860720000000000014500000000014500002000000010410407251034200005181853050725220617000518   1030000100030000   541120003013777031200000030GAMONE PWINT (TGZ)     YGN           MMR11007251034200005180725000000000000000   10300005 00104100000000000000000000002900     
100   35710830366995010000000000224500000000224500002000000010410407250614590000352970100725220612000035   1030000100030000   541110001101777031200000011CITICOM COMPUTER & MOB YGN           MMR11007250614590000350725000000000000000   10300003 00104100000000000000000000044900     
100   35710830080751020000000000002150000000002150002000000010410407250335090009992011110725220610000999   1030000100030000   541120003104777031200000031GAMONE PWINT (BKLZ)    YGN           MMR11007250335090009990725000000000000000   10300003 00104100000000000000000000000430     
100   35710500143957170000000000020000000000020000002000000010410407250742510025280074330725220614002528   1030000100030000   541120003106777031200000031GAMONE PWINT (BKLZ)    YGN           MMR11007250742510025280725000000000000000   10300005 00104100000000000000000000004000     
100   35710830007306390000000000025800000000025800002000000010410407250922500025934097120725220615002593   1030000100030000   541110001903777031200000019GAMONE PWINT (KBA)     YGN           MMR11007250922500025930725000000000000000   10300003 00104100000000000000000000005160     
100   9503051025645363000000000002850000000002850000200000001041040725084834001031HRHBE90725220615001031   1030000100030000   541120003103777031200000031GAMONE PWINT (BKLZ)    YGN           MMR11007250848340010310725000000000000000   10300002 00104100000000000000000000005700     
100   35710830071134090000000000062700000000062700002000000010410407250611180001452947920725220612000145   1030000100030000   541120000005777031200000002ZAW TI KA THINKAN TIKE YGN           MMR11007250611180001450725000000000000000   10300003 00104100000000000000000000012540     
100   35710830611887920000000000023500000000023500002000000010410407251212160005195113810725220618000519   1030000100030000   541120003013777031200000030GAMONE PWINT (TGZ)     YGN           MMR11007251212160005190725000000000000000   10300003 00104100000000000000000000004700     
100   9503051888562721000000000006730000000006730000200000001041040725082132000770V3HXPZ0725220614000770   1030000100030000   541120003111777031200000031GAMONE PWINT (BKLZ)    YGN           MMR11007250821320007700725000000000000000   10300002 00104100000000000000000000013460     
100   9503051022030544000000000002280000000002280000200000001041040725095502002596OMY8YA0725220616002596   1030000100030000   541110001903777031200000019GAMONE PWINT (KBA)     YGN           MMR11007250955020025960725000000000000000   10300002 00104100000000000000000000004560     
100   9503051889535056000000000004390000000004390000200000001041040725051025000563VSVRTZ0725220611000563   1030000100030000   541120003001777031200000030GAMONE PWINT (TGZ)     YGN           MMR11007250510250005630725000000000000000   10300002 00104100000000000000000000008780     
100   9503051872439837000000000001588500000001588500200000001041040725070651000564SEXWDW0725220613000564   1030000100030000   541120003001777031200000030GAMONE PWINT (TGZ)     YGN           MMR11007250706510005640725000000000000000   10300002 00104100000000000000000000003177     
100   9503051885952198000000000010000000000010000000200000001041040725071159000565YH3EMF0725220613000565   1030000100030000   541120003001777031200000030GAMONE PWINT (TGZ)     YGN           MMR11007250711590005650725000000000000000   10300002 00104100000000000000000000020000     
100   95031900056186180000000000009900000000009900002000000010410407250754280011882I8D5N0725220614001188   1030000100030000   541120003008777031200000030GAMONE PWINT (TGZ)     YGN           MMR11007250754280011880725000000000000000   10300014 00104100000000000000000000001980     
100   9503051885091187000000000001800000000001800000200000001041040725113236001011T7KHMQ0725220618001011   1030000100030000   541120003104777031200000031GAMONE PWINT (BKLZ)    YGN           MMR11007251132360010110725000000000000000   10300002 00104100000000000000000000003600     
100   9503054000482547000000000000465000000000465000200000001041040725113931001013WBYP7S0725220618001013   1030000100030000   541120003104777031200000031GAMONE PWINT (BKLZ)    YGN           MMR11007251139310010130725000000000000000   10300002 00104100000000000000000000000930     
100   35710830388936800000000000049000000000049000002000000010410407250946450025634240610725220616002563   1030000100030000   541120003117777031200000031GAMONE PWINT (BKLZ)    YGN           MMR11007250946450025630725000000000000000   10300003 00104100000000000000000000009800     
100   95030510220305440000000000008300000000008300002000000010410407250946290044365GNI0Y0725220616004436   1030000100030000   541110001907777031200000019GAMONE PWINT (KBA)     YGN           MMR11007250946290044360725000000000000000   10300002 00104100000000000000000000001660     
100   9503051024943280000000000000555000000000555000200000001041040725095705004438FHLQT00725220616004438   1030000100030000   541110001907777031200000019GAMONE PWINT (KBA)     YGN           MMR11007250957050044380725000000000000000   10300002 00104100000000000000000000001110     
