100   35710830696634810000000000007296000000007296002000000010410407260720110002822001400726220713000282   1030000100030000   541120003114777031200000031GAMONE PWINT (BKLZ)    YGN           MMR11007260720110002820726000000000000000   10300003 00104100000000000000000000001459     
100   35710500314086750000000000004050000000004050002000000010410407261002440002849762230726220716000284   1030000100030000   541120003114777031200000031GAMONE PWINT (BKLZ)    YGN           MMR11007261002440002840726000000000000000   10300005 00104100000000000000000000000810     
100   9503051025398286000000000000900000000000900000200000001041040726094422000283PEKDQD0726220716000283   1030000100030000   541120003114777031200000031GAMONE PWINT (BKLZ)    YGN           MMR11007260944220002830726000000000000000   10300002 00104100000000000000000000001800     
100   9503051025146727000000000004250000000004250000200000001041040726053847000568NKOOLA0726220712000568   1030000100030000   541120003001777031200000030GAMONE PWINT (TGZ)     YGN           MMR11007260538470005680726000000000000000   10300002 00104100000000000000000000008500     
100   9503051898001363000000000002400000000002400000200000001041040726034230002607HZID4R0726220710002607   1030000100030000   541110001903777031200000019GAMONE PWINT (KBA)     YGN           MMR11007260342300026070726000000000000000   10300002 00104100000000000000000000004800     
100   35710500372214110000000000013800000000013800002000000010410407260425120026092458510726220710002609   1030000100030000   541110001903777031200000019GAMONE PWINT (KBA)     YGN           MMR11007260425120026090726000000000000000   10300005 00104100000000000000000000002760     
100   9503051892663911000000000004640000000004640000200000001041040726083416003424WHIHKA0726220715003424   1030000100030000   541110001905777031200000019GAMONE PWINT (KBA)     YGN           MMR11007260834160034240726000000000000000   10300002 00104100000000000000000000009280     
100   35710500133434600000000000081600000000081600002000000010410407260443150026111259080726220711002611   1030000100030000   541110001903777031200000019GAMONE PWINT (KBA)     YGN           MMR11007260443150026110726000000000000000   10300005 00104100000000000000000000016320     
100   35710500124226950000000000006240000000006240002000000010410407260809410026136387380726220714002613   1030000100030000   541110001903777031200000019GAMONE PWINT (KBA)     YGN           MMR11007260809410026130726000000000000000   10300005 00104100000000000000000000001248     
100   35710500384915260000000000014800000000014800002000000010410407260634430007724802840726220713000772   1030000100030000   541120003111777031200000031GAMONE PWINT (BKLZ)    YGN           MMR11007260634430007720726000000000000000   10300005 00104100000000000000000000002960     
100   62343302007850830000000000026000000000026000002000000010410407260553530011949000510726220712001194   1030000100030000   541120003008777031200000030GAMONE PWINT (TGZ)     YGN           MMR11007260553530011940726000000000000000   10300004 00104100000000000000000000005200     
100   62346600171803200000000000014000000000014000002000000010410407261248580019450257860726220719001945   1030000100030000   541110001920777031200000019GAMONE PWINT (KBA)     YGN           MMR11007261248580019450726000000000000000   10300005 00104100000000000000000000002800     
100   9503051025312550000000000002280000000002280000200000001041040726085211002616FT1QEY0726220715002616   1030000100030000   541110001903777031200000019GAMONE PWINT (KBA)     YGN           MMR11007260852110026160726000000000000000   10300002 00104100000000000000000000004560     
100   35710500170890770000000000024800000000024800002000000010410407260946580026199976150726220716002619   1030000100030000   541110001903777031200000019GAMONE PWINT (KBA)     YGN           MMR11007260946580026190726000000000000000   10300005 00104100000000000000000000004960     
100   35710830487665460000000000081400000000081400002000000010410407260843370034282501900726220715003428   1030000100030000   541110001905777031200000019GAMONE PWINT (KBA)     YGN           MMR11007260843370034280726000000000000000   10300003 00104100000000000000000000016280     
100   9503051025398286000000000001945000000001945000200000001041040726093458001016MPC7DY0726220716001016   1030000100030000   541120003104777031200000031GAMONE PWINT (BKLZ)    YGN           MMR11007260934580010160726000000000000000   10300002 00104100000000000000000000003890     
100   62622000403561780000000000019698000000019698002000000010410407260849040011962137170726220715001196   1030000100030000   541120003008777031200000030GAMONE PWINT (TGZ)     YGN           MMR11007260849040011960726000000000000000   10300006 00104100000000000000000000003940     
100   9503051872439837000000000000465000000000465000200000001041040726094711001198VRZV810726220716001198   1030000100030000   541120003008777031200000030GAMONE PWINT (TGZ)     YGN           MMR11007260947110011980726000000000000000   10300002 00104100000000000000000000000930     
100   9503051895251326000000000000645000000000645000200000001041040726093937001018W0RYMI0726220716001018   1030000100030000   541120003104777031200000031GAMONE PWINT (BKLZ)    YGN           MMR11007260939370010180726000000000000000   10300002 00104100000000000000000000001290     
100   62343301016488440000000000032822000000032822002000000010410407261016400010207850710726220716001020   1030000100030000   541120003104777031200000031GAMONE PWINT (BKLZ)    YGN           MMR11007261016400010200726000000000000000   10300004 00104100000000000000000000006564     
100   35710500315922210000000000008850000000008850002000000010410407260701360044478238340726220713004447   1030000100030000   541110001907777031200000019GAMONE PWINT (KBA)     YGN           MMR11007260701360044470726000000000000000   10300005 00104100000000000000000000001770     
100   9503051889734618000000000013670000000013670000200000001041040726065412001962UTSXZS0726220713001962   1030000100030000   541160000001777031200000006MK FASHION             YGN           MMR11007260654120019620726000000000000000   10300002 00104100000000000000000000027340     
100   9503051896092968000000000006290000000006290000200000001041040726031038003415WR7KGY0726220709003415   1030000100030000   541110001905777031200000019GAMONE PWINT (KBA)     YGN           MMR11007260310380034150726000000000000000   10300002 00104100000000000000000000012580     
100   9503051889389348000000000002300000000002300000200000001041040726073025004452LV6WMT0726220714004452   1030000100030000   541110001907777031200000019GAMONE PWINT (KBA)     YGN           MMR11007260730250044520726000000000000000   10300002 00104100000000000000000000004600     
100   62921400017368160000000000019600000000019600002000000010410407261240010044592222220726220719004459   1030000100030000   541110001907777031200000019GAMONE PWINT (KBA)     YGN           MMR11007261240010044590726000000000000000   10300009 00104100000000000000000000003920     
100   35710500324901280000000000081400000000081400002000000010410407261105140034391039880726220717003439   1030000100030000   541110001905777031200000019GAMONE PWINT (KBA)     YGN           MMR11007261105140034390726000000000000000   10300005 00104100000000000000000000016280     
100   35710830029500780000000000015288000000015288002000000010410407260453410034201122220726220711003420   1030000100030000   541110001905777031200000019GAMONE PWINT (KBA)     YGN           MMR11007260453410034200726000000000000000   10300003 00104100000000000000000000003058     
100   35710500354802170000000000006321000000006321002000000010410407260445360011924904430726220711001192   1030000100030000   541120003008777031200000030GAMONE PWINT (TGZ)     YGN           MMR11007260445360011920726000000000000000   10300005 00104100000000000000000000001264     
100   9503051024165900000000000002160000000002160000200000001041040726032450004443UMQ9OJ0726220709004443   1030000100030000   541110001907777031200000019GAMONE PWINT (KBA)     YGN           MMR11007260324500044430726000000000000000   10300002 00104100000000000000000000004320     
