100   62921400098845500000000000008700000000008700002000000010410407270831280012202222220727220815001220   1030000100030000   541120003008777031200000030GAMONE PWINT (TGZ)     YGN           MMR11007270831280012200727000000000000000   10300009 00104100000000000000000000001740     
100   62343302004428830000000000005500000000005500002000000010410407270603080010459709970727220812001045   1030000100030000   541120003103777031200000031GAMONE PWINT (BKLZ)    YGN           MMR11007270603080010450727000000000000000   10300004 00104100000000000000000000001100     
100   62921400039264150000000000040052000000040052002000000010410407271014020019692222220727220816001969   1030000100030000   541160000001777031200000006MK FASHION             YGN           MMR11007271014020019690727000000000000000   10300009 00104100000000000000000000008010     
100   62343301016488440000000000009900000000009900002000000010410407271149040005732063310727220818000573   1030000100030000   541120003001777031200000030GAMONE PWINT (TGZ)     YGN           MMR11007271149040005730727000000000000000   10300004 00104100000000000000000000001980     
100   9503051026134458000000000001500000000001500000200000001041040727063005004471VFJ1VY0727220813004471   1030000100030000   541110001907777031200000019GAMONE PWINT (KBA)     YGN           MMR11007270630050044710727000000000000000   10300002 00104100000000000000000000003000     
100   9503051897914269000000000001900000000001900000200000001041040727044303004465U8BUI60727220811004465   1030000100030000   541110001907777031200000019GAMONE PWINT (KBA)     YGN           MMR11007270443030044650727000000000000000   10300002 00104100000000000000000000003800     
100   95030518742310420000000000013700000000013700002000000010410407270707330044762KXJZZ0727220813004476   1030000100030000   541110001907777031200000019GAMONE PWINT (KBA)     YGN           MMR11007270707330044760727000000000000000   10300002 00104100000000000000000000002740     
100   35710500183513510000000000016400000000016400002000000010410407271143490044868650490727220818004486   1030000100030000   541110001907777031200000019GAMONE PWINT (KBA)     YGN           MMR11007271143490044860727000000000000000   10300005 00104100000000000000000000003280     
100   9503051891882769000000000002080000000002080000200000001041040727084741004481JJVKGG0727220815004481   1030000100030000   541110001907777031200000019GAMONE PWINT (KBA)     YGN           MMR11007270847410044810727000000000000000   10300002 00104100000000000000000000004160     
100   35710830869924910000000000006576000000006576002000000010410407270914300044831327110727220815004483   1030000100030000   541110001907777031200000019GAMONE PWINT (KBA)     YGN           MMR11007270914300044830727000000000000000   10300003 00104100000000000000000000001315     
100   9503051889958068000000000002500000000002500000200000001041040727115550004488AWHJOW0727220818004488   1030000100030000   541110001907777031200000019GAMONE PWINT (KBA)     YGN           MMR11007271155500044880727000000000000000   10300002 00104100000000000000000000005000     
100   9503051874231042000000000000573300000000573300200000001041040727051035003444KIG2VF0727220811003444   1030000100030000   541110001905777031200000019GAMONE PWINT (KBA)     YGN           MMR11007270510350034440727000000000000000   10300002 00104100000000000000000000001147     
100   9503051026541884000000000001505000000001505000200000001041040727100951003448FOL7CX0727220816003448   1030000100030000   541110001905777031200000019GAMONE PWINT (KBA)     YGN           MMR11007271009510034480727000000000000000   10300002 00104100000000000000000000003010     
100   35710500304421130000000000014900000000014900002000000010410407270722190003245689030727220813000324   1030000100030000   541120003115777031200000031GAMONE PWINT (BKLZ)    YGN           MMR11007270722190003240727000000000000000   10300005 00104100000000000000000000002980     
100   95030478996977530000000000016500000000016500002000000010410407261055140025704955590726220717002570   1030000100030000   541120003117777031200000031GAMONE PWINT (BKLZ)    YGN           MMR11007261055140025700726000000000000000   10300007 00104100000000000000000000003300     
100   62921400098845500000000000028300000000028300002000000010410407270812050012182222220727220814001218   1030000100030000   541120003008777031200000030GAMONE PWINT (TGZ)     YGN           MMR11007270812050012180727000000000000000   10300009 00104100000000000000000000005660     
100   35710830484507030000000000064625000000064625002000000010410407271238250017332550700727220819001733   1030000100030000   581250000001777031200000005AVENUE J COFFEE SHOP   YGN           MMR11007271238250017330727000000000000000   10300003 00104100000000000000000000021972     
100   62921400000910800000000000066000000000066000002000000010410407271239260017342222220727220819001734   1030000100030000   581250000001777031200000005AVENUE J COFFEE SHOP   YGN           MMR11007271239260017340727000000000000000   10300009 00104100000000000000000000022440     
100   9503190006212437000000000004580000000004580000200000001041040727075931002631PNGNT20727220814002631   1030000100030000   541110001903777031200000019GAMONE PWINT (KBA)     YGN           MMR11007270759310026310727000000000000000   10300014 00104100000000000000000000009160     
100   9503051895011571000000000002080000000002080000200000001041040727080749002635J5AAAD0727220814002635   1030000100030000   541110001903777031200000019GAMONE PWINT (KBA)     YGN           MMR11007270807490026350727000000000000000   10300002 00104100000000000000000000004160     
100   95030800079364170000000000033800000000033800002000000010410407271101290026371969110727220817002637   1030000100030000   541110001903777031200000019GAMONE PWINT (KBA)     YGN           MMR11007271101290026370727000000000000000   10300003 00104100000000000000000000006760     
100   9503051025844321000000000002300000000002300000200000001041040727090027000171YIUDUG0727220815000171   1030000100030000   541120003112777031200000031GAMONE PWINT (BKLZ)    YGN           MMR11007270900270001710727000000000000000   10300002 00104100000000000000000000004600     
100   35710830330428460000000000043800000000043800002000000010410407270904030001721264500727220815000172   1030000100030000   541120003112777031200000031GAMONE PWINT (BKLZ)    YGN           MMR11007270904030001720727000000000000000   10300003 00104100000000000000000000008760     
100   9503051895011571000000000002900000000002900000200000001041040727080053000075T36W5S0727220814000075   1030000100030000   541110001914777031200000019GAMONE PWINT (KBA)     YGN           MMR11007270800530000750727000000000000000   10300002 00104100000000000000000000005800     
100   35710830843332430000000000016500000000016500002000000010410407270754180010480845920727220814001048   1030000100030000   541120003103777031200000031GAMONE PWINT (BKLZ)    YGN           MMR11007270754180010480727000000000000000   10300003 00104100000000000000000000003300     
100   35710830660176320000000000021800000000021800002000000010410407271058140010501949600727220817001050   1030000100030000   541120003103777031200000031GAMONE PWINT (BKLZ)    YGN           MMR11007271058140010500727000000000000000   10300003 00104100000000000000000000004360     
100   9503190006517900000000000001630000000001630000200000001041040727122616001052085TMZ0727220818001052   1030000100030000   541120003103777031200000031GAMONE PWINT (BKLZ)    YGN           MMR11007271226160010520727000000000000000   10300014 00104100000000000000000000003260     
100   62622000463785640000000000038800000000038800002000000010410407270652450026292158540727220813002629   1030000100030000   541110001903777031200000019GAMONE PWINT (KBA)     YGN           MMR11007270652450026290727000000000000000   10300006 00104100000000000000000000007760     
100   9503051026108205000000000006650000000006650000200000001041040727101041001227W3MMMY0727220816001227   1030000100030000   541120003008777031200000030GAMONE PWINT (TGZ)     YGN           MMR11007271010410012270727000000000000000   10300002 00104100000000000000000000013300     
100   35710900797356050000000000015300000000015300002000000010410407270606400000640200130727220812000064   1030000100030000   541110001914777031200000019GAMONE PWINT (KBA)     YGN           MMR11007270606400000640727000000000000000   10300003 00104100000000000000000000003060     
100   35710950602920450000000000012500000000012500002000000010410407270906310000811279400727220815000081   1030000100030000   541110001914777031200000019GAMONE PWINT (KBA)     YGN           MMR11007270906310000810727000000000000000   10300003 00104100000000000000000000002500     
100   62921400098845500000000000004800000000004800002000000010410407270801440005482222220727220814000548   1030000100030000   541120003012777031200000030GAMONE PWINT (TGZ)     YGN           MMR11007270801440005480727000000000000000   10300009 00104100000000000000000000000960     
100   9503051024940534000000000000950000000000950000200000001041040727041456001205QOPYPL0727220810001205   1030000100030000   541120003008777031200000030GAMONE PWINT (TGZ)     YGN           MMR11007270414560012050727000000000000000   10300002 00104100000000000000000000001900     
100   35710500155279790000000000027000000000027000002000000010410407271157580001737429200727220818000173   1030000100030000   541120003112777031200000031GAMONE PWINT (BKLZ)    YGN           MMR11007271157580001730727000000000000000   10300005 00104100000000000000000000005400     
100   35710830330428460000000000038000000000038000002000000010410407270833130001701079510727220815000170   1030000100030000   541120003112777031200000031GAMONE PWINT (BKLZ)    YGN           MMR11007270833130001700727000000000000000   10300003 00104100000000000000000000007600     
100   9503051024814531000000000001650000000001650000200000001041040727095359000550G4DEAZ0727220816000550   1030000100030000   541120003012777031200000030GAMONE PWINT (TGZ)     YGN           MMR11007270953590005500727000000000000000   10300002 00104100000000000000000000003300     
100   35710500354014030000000000034500000000034500002000000010410407270757430025513460380727220814002551   1030000100030000   541120003106777031200000031GAMONE PWINT (BKLZ)    YGN           MMR11007270757430025510727000000000000000   10300005 00104100000000000000000000006900     
100   35710830992192700000000000081500000000081500002000000010410407270733470025720722810727220814002572   1030000100030000   541120003117777031200000031GAMONE PWINT (BKLZ)    YGN           MMR11007270733470025720727000000000000000   10300003 00104100000000000000000000016300     
100   9503051022369702000000000000820000000000820000200000001041040727073340000071LS9Q6A0727220814000071   1030000100030000   541110001914777031200000019GAMONE PWINT (KBA)     YGN           MMR11007270733400000710727000000000000000   10300002 00104100000000000000000000001640     
100   35710830560639430000000000025795000000025795002000000010410407271235550017322535630727220819001732   1030000100030000   581250000001777031200000005AVENUE J COFFEE SHOP   YGN           MMR11007271235550017320727000000000000000   10300003 00104100000000000000000000008770     
100   95030510248145310000000000017000000000017000002000000010410407271006490008344YID3F0727220816000834   1030000100030000   541120003005777031200000030GAMONE PWINT (TGZ)     YGN           MMR11007271006490008340727000000000000000   10300002 00104100000000000000000000003400     
100   9503051888271976000000000001745000000001745000200000001041040727102201000835JXXQBM0727220816000835   1030000100030000   541120003005777031200000030GAMONE PWINT (TGZ)     YGN           MMR11007271022010008350727000000000000000   10300002 00104100000000000000000000003490     
100   950319000613458100000000000215000000000215000020000000104104072708411600122349GR770727220815001223   1030000100030000   541120003008777031200000030GAMONE PWINT (TGZ)     YGN           MMR11007270841160012230727000000000000000   10300014 00104100000000000000000000004300     
100   35710830021438720000000000035750000000035750002000000010410407271047040008361882510727220817000836   1030000100030000   541120003005777031200000030GAMONE PWINT (TGZ)     YGN           MMR11007271047040008360727000000000000000   10300003 00104100000000000000000000007150     
100   62622000746148720000000000010819000000010819002000000010410407271051000008372352020727220817000837   1030000100030000   541120003005777031200000030GAMONE PWINT (TGZ)     YGN           MMR11007271051000008370727000000000000000   10300006 00104100000000000000000000002164     
100   35710500344729910000000000115000000000115000002000000010410407271124090008185828520727220817000818   1030000100030000   581210001201777031200000012L OPERA RESTAURANT YGN YGN           MMR11007271124090008180727000000000000000   10300005 00104100000000000000000000039100     
100   9503051873016345000000000018950000000018950000200000001041040727143017000819ZXDVQO0727220821000819   1030000100030000   581210001201777031200000012L OPERA RESTAURANT YGN YGN           MMR11007271430170008190727000000000000000   10300002 00104100000000000000000000064430     
100   9503051894208301000000000004080000000004080000200000001041040727114017002639IOKXEQ0727220818002639   1030000100030000   541110001903777031200000019GAMONE PWINT (KBA)     YGN           MMR11007271140170026390727000000000000000   10300002 00104100000000000000000000008160     
100   35710500121890390000000000038800000000038800002000000010410407271154440026416152760727220818002641   1030000100030000   541110001903777031200000019GAMONE PWINT (KBA)     YGN           MMR11007271154440026410727000000000000000   10300005 00104100000000000000000000007760     
100   9503051025805959000000000000925000000000925000200000001041040727093408000289E8U0TO0727220816000289   1030000100030000   541120003114777031200000031GAMONE PWINT (BKLZ)    YGN           MMR11007270934080002890727000000000000000   10300002 00104100000000000000000000001850     
100   35710500304421130000000000026700000000026700002000000010410407270739180002862496740727220814000286   1030000100030000   541120003114777031200000031GAMONE PWINT (BKLZ)    YGN           MMR11007270739180002860727000000000000000   10300005 00104100000000000000000000005340     
100   95030510249405340000000000044352000000044352002000000010410407270426080012095FBEWD0727220810001209   1030000100030000   541120003008777031200000030GAMONE PWINT (TGZ)     YGN           MMR11007270426080012090727000000000000000   10300002 00104100000000000000000000008870     
100   9503051888025760000000000000850000000000850000200000001041040727033244001203XCP5DL0727220810001203   1030000100030000   541120003008777031200000030GAMONE PWINT (TGZ)     YGN           MMR11007270332440012030727000000000000000   10300002 00104100000000000000000000001700     
100   9503051024940534000000000004435200000004435200200000001041040727041835001207SOEIC40727220810001207   1030000100030000   541120003008777031200000030GAMONE PWINT (TGZ)     YGN           MMR11007270418350012070727000000000000000   10300002 00104100000000000000000000008870     
100   9503190002315671000000000000130000000000130000200000001041040727025921001024MZKT2W0727220809001024   1030000100030000   541120003104777031200000031GAMONE PWINT (BKLZ)    YGN           MMR11007270259210010240727000000000000000   10300014 00104100000000000000000000000260     
100   35710500334866040000000000034100000000034100002000000010410407270337290010261108600727220810001026   1030000100030000   541120003104777031200000031GAMONE PWINT (BKLZ)    YGN           MMR11007270337290010260727000000000000000   10300005 00104100000000000000000000006820     
100   35710500343685380000000000026243000000026243002000000010410407270532590008335588770727220812000833   1030000100030000   541120003005777031200000030GAMONE PWINT (TGZ)     YGN           MMR11007270532590008330727000000000000000   10300005 00104100000000000000000000005249     
100   35710500100127790000000000022000000000022000002000000010410407270823170000786608440727220814000078   1030000100030000   541110001914777031200000019GAMONE PWINT (KBA)     YGN           MMR11007270823170000780727000000000000000   10300005 00104100000000000000000000004400     
100   9503190000692261000000000002750000000002750000200000001041040727043259000313H04I4W0727220811000313   1030000100030000   541120003115777031200000031GAMONE PWINT (BKLZ)    YGN           MMR11007270432590003130727000000000000000   10300014 00104100000000000000000000005500     
100   35710830803079770000000000009600000000009600002000000010410407270448220007749730410727220811000774   1030000100030000   541120003111777031200000031GAMONE PWINT (BKLZ)    YGN           MMR11007270448220007740727000000000000000   10300003 00104100000000000000000000001920     
100   35710830803079770000000000009600000000009600002000000010410407270455070007759770820727220811000775   1030000100030000   541120003111777031200000031GAMONE PWINT (BKLZ)    YGN           MMR11007270455070007750727000000000000000   10300003 00104100000000000000000000001920     
100   35710500155279790000000000038500000000038500002000000010410407271201480007774450830727220818000777   1030000100030000   541120003111777031200000031GAMONE PWINT (BKLZ)    YGN           MMR11007271201480007770727000000000000000   10300005 00104100000000000000000000007700     
100   35710900797356050000000000013500000000013500002000000010410407270548400019510092210727220812001951   1030000100030000   541110001920777031200000019GAMONE PWINT (KBA)     YGN           MMR11007270548400019510727000000000000000   10300003 00104100000000000000000000002700     
100   9503051025170636000000000012120000000012120000200000001041040727080628002633WFE8MD0727220814002633   1030000100030000   541110001903777031200000019GAMONE PWINT (KBA)     YGN           MMR11007270806280026330727000000000000000   10300002 00104100000000000000000000024240     
100   35710830369914370000000000072300000000072300002000000010410407270528030005639968420727220811000563   1030000100030000   541120003105777031200000031GAMONE PWINT (BKLZ)    YGN           MMR11007270528030005630727000000000000000   10300003 00104100000000000000000000014460     
100   35711450000330070000000000012960000000012960002000000010410407270434300012117464730727220811001211   1030000100030000   541120003008777031200000030GAMONE PWINT (TGZ)     YGN           MMR11007270434300012110727000000000000000   10200001 00104100000000000000000000002592     
100   35710900797356050000000000008000000000008000002000000010410407270613280019540241010727220812001954   1030000100030000   541110001920777031200000019GAMONE PWINT (KBA)     YGN           MMR11007270613280019540727000000000000000   10300003 00104100000000000000000000001600     
100   35710500384047010000000000024000000000024000002000000010410407270623300019564074330727220812001956   1030000100030000   541110001920777031200000019GAMONE PWINT (KBA)     YGN           MMR11007270623300019560727000000000000000   10300005 00104100000000000000000000004800     
100   62622000540998620000000000009000000000009000002000000010410407270343400005702227660727220810000570   1030000100030000   541120003001777031200000030GAMONE PWINT (TGZ)     YGN           MMR11007270343400005700727000000000000000   10300006 00104100000000000000000000001800     
100   35710830992192700000000000035800000000035800002000000010410407270746430007760800430727220814000776   1030000100030000   541120003111777031200000031GAMONE PWINT (BKLZ)    YGN           MMR11007270746430007760727000000000000000   10300003 00104100000000000000000000007160     
100   95031800365437860000000000013000000000013000002000000010410407270614120003225854460727220812000322   1030000100030000   541120003115777031200000031GAMONE PWINT (BKLZ)    YGN           MMR11007270614120003220727000000000000000   10300013 00104100000000000000000000002600     
100   35710830803079770000000000011760000000011760002000000010410407270517020003159902330727220811000315   1030000100030000   541120003115777031200000031GAMONE PWINT (BKLZ)    YGN           MMR11007270517020003150727000000000000000   10300003 00104100000000000000000000002352     
100   95031900029695920000000000004500000000004500002000000010410407270559470012166E5TVR0727220812001216   1030000100030000   541120003008777031200000030GAMONE PWINT (TGZ)     YGN           MMR11007270559470012160727000000000000000   10300014 00104100000000000000000000000900     
100   35710900797356050000000000012000000000012000002000000010410407270550120019520101310727220812001952   1030000100030000   541110001920777031200000019GAMONE PWINT (KBA)     YGN           MMR11007270550120019520727000000000000000   10300003 00104100000000000000000000002400     
100   35710500335561660000000000008575000000008575002000000010410407270449190017318254330727220811001731   1030000100030000   581250000001777031200000005AVENUE J COFFEE SHOP   YGN           MMR11007270449190017310727000000000000000   10300005 00104100000000000000000000002916     
100   95030800021253050000000000033320000000033320002000000010410407270705110019660551300727220813001966   1030000100030000   541160000001777031200000006MK FASHION             YGN           MMR11007270705110019660727000000000000000   10300003 00104100000000000000000000006664     
100   62622000003577370000000000057766000000057766002000000010410407270355310005712350770727220810000571   1030000100030000   541120003001777031200000030GAMONE PWINT (TGZ)     YGN           MMR11007270355310005710727000000000000000   10300006 00104100000000000000000000011553     
100   35710500324711850000000000016850000000016850002000000010410407271031370005728936710727220817000572   1030000100030000   541120003001777031200000030GAMONE PWINT (TGZ)     YGN           MMR11007271031370005720727000000000000000   10300005 00104100000000000000000000003370     
