100   35710500355039010000000000019160000000019160002000000010410407290725030005834986600729221013000583   1030000100030000   541120003001777031200000030GAMONE PWINT (TGZ)     YGN           MMR11007290725030005830729000000000000000   10300005 00104100000000000000000000003832     
100   9503051886872502000000000008470000000008470000200000001041040729091507000584OFZHHL0729221015000584   1030000100030000   541120003001777031200000030GAMONE PWINT (TGZ)     YGN           MMR11007290915070005840729000000000000000   10300002 00104100000000000000000000016940     
100   35710830744353130000000000006174000000006174002000000010410407290926360008458679710729221015000845   1030000100030000   541120003005777031200000030GAMONE PWINT (TGZ)     YGN           MMR11007290926360008450729000000000000000   10300003 00104100000000000000000000001235     
100   35710900040727510000000000060401000000060401002000000010410407290939130008468755420729221016000846   1030000100030000   541120003005777031200000030GAMONE PWINT (TGZ)     YGN           MMR11007290939130008460729000000000000000   10300003 00104100000000000000000000012080     
100   35710500394030250000000000011150000000011150002000000010410407290704490003026405650729221013000302   1030000100030000   541120003114777031200000031GAMONE PWINT (BKLZ)    YGN           MMR11007290704490003020729000000000000000   10300005 00104100000000000000000000002230     
100   35710830229164710000000000033048000000033048002000000010410407291152150005659553710729221018000565   1030000100030000   541120003012777031200000030GAMONE PWINT (TGZ)     YGN           MMR11007291152150005650729000000000000000   10300003 00104100000000000000000000006610     
100   9503051021616988000000000000375000000000375000200000001041040729105144000847EGRUDM0729221017000847   1030000100030000   541120003005777031200000030GAMONE PWINT (TGZ)     YGN           MMR11007291051440008470729000000000000000   10300002 00104100000000000000000000000750     
100   62346600156004440000000000003600000000003600002000000010410407291147320008488280360729221018000848   1030000100030000   541120003005777031200000030GAMONE PWINT (TGZ)     YGN           MMR11007291147320008480729000000000000000   10300005 00104100000000000000000000000720     
100   35710830927173200000000000103700000000103700002000000010410407282329390000375098010729221005000037   1030000100030000   701110900010777030900000008HOTEL 101              NPT           MMR11007282329390000370729000000000000000   10300003 00104100000000000000000000035258     
100   9503051891827988000000000001529200000001529200200000001041040729052544000300MNVJBV0729221011000300   1030000100030000   541120003114777031200000031GAMONE PWINT (BKLZ)    YGN           MMR11007290525440003000729000000000000000   10300002 00104100000000000000000000003058     
100   9503051023696251000000000000240000000000240000200000001041040729062255000301NOWHKN0729221012000301   1030000100030000   541120003114777031200000031GAMONE PWINT (BKLZ)    YGN           MMR11007290622550003010729000000000000000   10300002 00104100000000000000000000000480     
100   9503051023301241000000000002080000000002080000200000001041040729092152000555S49VDR0729221015000555   1030000100030000   541120003012777031200000030GAMONE PWINT (TGZ)     YGN           MMR11007290921520005550729000000000000000   10300002 00104100000000000000000000004160     
100   35710830229164710000000000008900000000008900002000000010410407291215240005859692610729221018000585   1030000100030000   541120003001777031200000030GAMONE PWINT (TGZ)     YGN           MMR11007291215240005850729000000000000000   10300003 00104100000000000000000000001780     
100   9503051889609166000000000000555000000000555000200000001041040729073001001030ZG8USI0729221014001030   1030000100030000   541120003104777031200000031GAMONE PWINT (BKLZ)    YGN           MMR11007290730010010300729000000000000000   10300002 00104100000000000000000000001110     
100   9503051021213422000000000008210000000008210000200000001041040729060124002586YSCNQS0729221012002586   1030000100030000   541120003117777031200000031GAMONE PWINT (BKLZ)    YGN           MMR11007290601240025860729000000000000000   10300002 00104100000000000000000000016420     
100   35710500353370110000000000036540000000036540002000000010410407290936130025891703710729221016002589   1030000100030000   541120003117777031200000031GAMONE PWINT (BKLZ)    YGN           MMR11007290936130025890729000000000000000   10300005 00104100000000000000000000007308     
100   35710500172165300000000000022500000000022500002000000010410407291140200025721464570729221018002572   1030000100030000   541120003106777031200000031GAMONE PWINT (BKLZ)    YGN           MMR11007291140200025720729000000000000000   10300005 00104100000000000000000000004500     
100   35710500353370110000000000003900000000003900002000000010410407290940280025914448660729221016002591   1030000100030000   541120003117777031200000031GAMONE PWINT (BKLZ)    YGN           MMR11007290940280025910729000000000000000   10300005 00104100000000000000000000000780     
100   35710500123348660000000000008000000000008000002000000010410407291126420012494522330729221017001249   1030000100030000   541120003008777031200000030GAMONE PWINT (TGZ)     YGN           MMR11007291126420012490729000000000000000   10300005 00104100000000000000000000001600     
100   9503051026741591000000000000340000000000340000200000001041040729113117001251LFFAM50729221018001251   1030000100030000   541120003008777031200000030GAMONE PWINT (TGZ)     YGN           MMR11007291131170012510729000000000000000   10300002 00104100000000000000000000000680     
100   35710950619452860000000000021945000000021945002000000010410407291128110017429409300729221017001742   1030000100030000   581250000001777031200000005AVENUE J COFFEE SHOP   YGN           MMR11007291128110017420729000000000000000   10300003 00104100000000000000000000007461     
100   9503190002835330000000000002079000000002079000200000001041040729120631001743HFBR3J0729221018001743   1030000100030000   581250000001777031200000005AVENUE J COFFEE SHOP   YGN           MMR11007291206310017430729000000000000000   10300014 00104100000000000000000000007069     
100   35710500385008880000000000169898880000169898882000000010410407290658430019774567990729221013001977   1030000100030000   541160000001777031200000006MK FASHION             YGN           MMR11007290658430019770729000000000000000   10300005 00104100000000000000000000033980     
100   95051805626745160000000000008500000000008500002000000010410407291056070025944632880729221017002594   1030000100030000   541120003117777031200000031GAMONE PWINT (BKLZ)    YGN           MMR11007291056070025940729000000000000000   10300013 00104100000000000000000000002975     
100   9503190006441358000000000002360000000002360000200000001041040729044120002582AO9JSZ0729221011002582   1030000100030000   541120003117777031200000031GAMONE PWINT (BKLZ)    YGN           MMR11007290441200025820729000000000000000   10300014 00104100000000000000000000004720     
100   35710830187894520000000000042100000000042100002000000010410407290557280025847424910729221012002584   1030000100030000   541120003117777031200000031GAMONE PWINT (BKLZ)    YGN           MMR11007290557280025840729000000000000000   10300003 00104100000000000000000000008420     
100   9503190003635317000000000001755000000001755000200000001041040729072650001243I58U5S0729221013001243   1030000100030000   541120003008777031200000030GAMONE PWINT (TGZ)     YGN           MMR11007290726500012430729000000000000000   10300014 00104100000000000000000000003510     
100   35710950635494170000000000008690000000008690002000000010410407290850140017418461610729221015001741   1030000100030000   581250000001777031200000005AVENUE J COFFEE SHOP   YGN           MMR11007290850140017410729000000000000000   10300003 00104100000000000000000000002955     
100   62343302007902810000000000055700000000055700002000000010410407291149500025964833220729221018002596   1030000100030000   541120003117777031200000031GAMONE PWINT (BKLZ)    YGN           MMR11007291149500025960729000000000000000   10300004 00104100000000000000000000011140     
100   35710830755199900000000000571800000000571800002000000010410407280913530000169963410728220915000016   1030000100030000   581210001201777031200000012L OPERA RESTAURANT YGN YGN           MMR11007280913530000160728000000000000000   10300003 00104100000000000000000000194412     
