100   9503051890657774000000000002080000000002080000200000001041040729115846002655WQBHVJ0729221018002655   1030000100030000   541110001903777031200000019GAMONE PWINT (KBA)     YGN           MMR11007291158460026550729000000000000000   10300002 00104100000000000000000000004160     
100   35710830916786140000000000019500000000019500002000000010410407290518010020087188220729221011002008   1030000100030000   541110001915777031200000019GAMONE PWINT (KBA)     YGN           MMR11007290518010020080729000000000000000   10300003 00104100000000000000000000003900     
100   9503051024728780000000000002160000000002160000200000001041040729040026001976KJCW5U0729221010001976   1030000100030000   541110001920777031200000019GAMONE PWINT (KBA)     YGN           MMR11007290400260019760729000000000000000   10300002 00104100000000000000000000004320     
100   62921400071639650000000000035500000000035500002000000010410407290549390034772222220729221012003477   1030000100030000   541110001905777031200000019GAMONE PWINT (KBA)     YGN           MMR11007290549390034770729000000000000000   10300009 00104100000000000000000000007100     
100   35710830415153460000000000008400000000008400002000000010410407290402380045146736010729221010004514   1030000100030000   541110001907777031200000019GAMONE PWINT (KBA)     YGN           MMR11007290402380045140729000000000000000   10300003 00104100000000000000000000001680     
100   9503051024435188000000000005750000000005750000200000001041040729045306004516KGNLU20729221011004516   1030000100030000   541110001907777031200000019GAMONE PWINT (KBA)     YGN           MMR11007290453060045160729000000000000000   10300002 00104100000000000000000000011500     
100   35710500363545930000000000025800000000025800002000000010410407290542500020102580260729221012002010   1030000100030000   541110001915777031200000019GAMONE PWINT (KBA)     YGN           MMR11007290542500020100729000000000000000   10300005 00104100000000000000000000005160     
100   9503051024417632000000000002475000000002475000200000001041040729045023003472SYZWVK0729221011003472   1030000100030000   541110001905777031200000019GAMONE PWINT (KBA)     YGN           MMR11007290450230034720729000000000000000   10300002 00104100000000000000000000004950     
100   35710830415153460000000000018800000000018800002000000010410407290357080026516703000729221010002651   1030000100030000   541110001903777031200000019GAMONE PWINT (KBA)     YGN           MMR11007290357080026510729000000000000000   10300003 00104100000000000000000000003760     
100   9503051024417632000000000002600000000002600000200000001041040729044031002006AGOFDC0729221011002006   1030000100030000   541110001915777031200000019GAMONE PWINT (KBA)     YGN           MMR11007290440310020060729000000000000000   10300002 00104100000000000000000000005200     
100   35710830762183030000000000003600000000003600002000000010410407300350240045275302600730221110004527   1030000100030000   541110001907777031200000019GAMONE PWINT (KBA)     YGN           MMR11007300350240045270730000000000000000   10300003 00104100000000000000000000000720     
100   35710500344032690000000000038800000000038800002000000010410407300747540005303207780730221114000530   1030000100030000   541120003013777031200000030GAMONE PWINT (TGZ)     YGN           MMR11007300747540005300730000000000000000   10300005 00104100000000000000000000007760     
100   35710830289925910000000000020500000000020500002000000010410407301124140005688025600730221117000568   1030000100030000   541120003105777031200000031GAMONE PWINT (BKLZ)    YGN           MMR11007301124140005680730000000000000000   10300003 00104100000000000000000000004100     
100   62346600160663300000000000001900000000001900002000000010410407300922330003050822720730221115000305   1030000100030000   541120003114777031200000031GAMONE PWINT (BKLZ)    YGN           MMR11007300922330003050730000000000000000   10300005 00104100000000000000000000000380     
100   35710500153831750000000000003250000000003250002000000010410407301135350003075846080730221118000307   1030000100030000   541120003114777031200000031GAMONE PWINT (BKLZ)    YGN           MMR11007301135350003070730000000000000000   10300005 00104100000000000000000000000650     
100   35710830286371880000000000021500000000021500002000000010410407300451470005885670900730221111000588   1030000100030000   541120003001777031200000030GAMONE PWINT (TGZ)     YGN           MMR11007300451470005880730000000000000000   10300003 00104100000000000000000000004300     
100   35710500330052140000000000036000000000036000002000000010410407300832110005310066840730221115000531   1030000100030000   541120003013777031200000030GAMONE PWINT (TGZ)     YGN           MMR11007300832110005310730000000000000000   10300005 00104100000000000000000000007200     
100   9503051025440104000000000002430000000002430000200000001041040730054108000569D5WSJT0730221112000569   1030000100030000   541120003012777031200000030GAMONE PWINT (TGZ)     YGN           MMR11007300541080005690730000000000000000   10300002 00104100000000000000000000004860     
100   35710500155505830000000000058400000000058400002000000010410407300454230005894349910730221111000589   1030000100030000   541120003001777031200000030GAMONE PWINT (TGZ)     YGN           MMR11007300454230005890730000000000000000   10300005 00104100000000000000000000011680     
100   9503051025585825000000000000850000000000850000200000001041040730084519000779LZPYZW0730221115000779   1030000100030000   541120003111777031200000031GAMONE PWINT (BKLZ)    YGN           MMR11007300845190007790730000000000000000   10300002 00104100000000000000000000001700     
100   35710830495420860000000000020500000000020500002000000010410407300946190007807438100730221116000780   1030000100030000   541120003111777031200000031GAMONE PWINT (BKLZ)    YGN           MMR11007300946190007800730000000000000000   10300003 00104100000000000000000000004100     
100   35710830927173200000000000077000000000077000002000000010410407301102250000397894610730221117000039   1030000100030000   701110900010777030900000008HOTEL 101              NPT           MMR11007301102250000390730000000000000000   10300003 00104100000000000000000000026180     
100   95031900056184930000000000021800000000021800002000000010410407301145060005703XMB5B0730221118000570   1030000100030000   541120003105777031200000031GAMONE PWINT (BKLZ)    YGN           MMR11007301145060005700730000000000000000   10300014 00104100000000000000000000004360     
100   62622000784018130000000000043600000000043600002000000010410407301038030005902447740730221117000590   1030000100030000   541120003001777031200000030GAMONE PWINT (TGZ)     YGN           MMR11007301038030005900730000000000000000   10300006 00104100000000000000000000008720     
100   35710500344032690000000000016500000000016500002000000010410407300745410005714399130730221114000571   1030000100030000   541120003012777031200000030GAMONE PWINT (TGZ)     YGN           MMR11007300745410005710730000000000000000   10300005 00104100000000000000000000003300     
100   62443000803074540000000000005400000000005400002000000010410407300533240005286614220730221112000528   1030000100030000   541120003013777031200000030GAMONE PWINT (TGZ)     YGN           MMR11007300533240005280730000000000000000   10300005 00104100000000000000000000001890     
100   62346600131935900000000000006272000000006272002000000010410407300627300005291424340730221112000529   1030000100030000   541120003013777031200000030GAMONE PWINT (TGZ)     YGN           MMR11007300627300005290730000000000000000   10300005 00104100000000000000000000001254     
100   62921400041947240000000000055500000000055500002000000010410407300356100000382222220730221110000038   1030000100030000   541110900003777030900000003TOP STAR SPORTWEARS &  NPT           MMR11007300356100000380730000000000000000   10300009 00104100000000000000000000011100     
100   9503051026917159000000000000495000000000495000200000001041040730090911001072ILSNFO0730221115001072   1030000100030000   541120003103777031200000031GAMONE PWINT (BKLZ)    YGN           MMR11007300909110010720730000000000000000   10300002 00104100000000000000000000000990     
100   9503051025617933000000000014892000000014892000200000001041040730034002001981YJGRYW0730221110001981   1030000100030000   541160000001777031200000006MK FASHION             YGN           MMR11007300340020019810730000000000000000   10300002 00104100000000000000000000029784     
100   95030510234607650000000000117280000000117280002000000010410407300552590019845WE5EE0730221112001984   1030000100030000   541160000001777031200000006MK FASHION             YGN           MMR11007300552590019840730000000000000000   10300002 00104100000000000000000000023456     
100   9503051020903445000000000000675000000000675000200000001041040730032328002599OFAXIV0730221109002599   1030000100030000   541120003117777031200000031GAMONE PWINT (BKLZ)    YGN           MMR11007300323280025990730000000000000000   10300002 00104100000000000000000000001350     
100   9503190003635317000000000000130000000000130000200000001041040730045618001257A96RS40730221111001257   1030000100030000   541120003008777031200000030GAMONE PWINT (TGZ)     YGN           MMR11007300456180012570730000000000000000   10300014 00104100000000000000000000000260     
100   62622000784018130000000000024000000000024000002000000010410407301028240012652224790730221116001265   1030000100030000   541120003008777031200000030GAMONE PWINT (TGZ)     YGN           MMR11007301028240012650730000000000000000   10300006 00104100000000000000000000004800     
100   62921400091811140000000000008100000000008100002000000010410407300658150026012222220730221113002601   1030000100030000   541120003117777031200000031GAMONE PWINT (BKLZ)    YGN           MMR11007300658150026010730000000000000000   10300009 00104100000000000000000000001620     
100   35710500303516520000000000014100000000014100002000000010410407300748280026028335430730221114002602   1030000100030000   541120003117777031200000031GAMONE PWINT (BKLZ)    YGN           MMR11007300748280026020730000000000000000   10300005 00104100000000000000000000002820     
100   35710830495420860000000000030150000000030150002000000010410407300954330010747487500730221116001074   1030000100030000   541120003103777031200000031GAMONE PWINT (BKLZ)    YGN           MMR11007300954330010740730000000000000000   10300003 00104100000000000000000000006030     
100   9503051887563241000000000000995000000000995000200000001041040730052632001745OPAVCC0730221111001745   1030000100030000   581250000001777031200000005AVENUE J COFFEE SHOP   YGN           MMR11007300526320017450730000000000000000   10300002 00104100000000000000000000003383     
100   9503051892493053000000000001755000000001755000200000001041040730080536002575DDE41C0730221114002575   1030000100030000   541120003106777031200000031GAMONE PWINT (BKLZ)    YGN           MMR11007300805360025750730000000000000000   10300002 00104100000000000000000000003510     
100   9503051886713466000000000000810000000000810000200000001041040730084754001033GPYARS0730221115001033   1030000100030000   541120003104777031200000031GAMONE PWINT (BKLZ)    YGN           MMR11007300847540010330730000000000000000   10300002 00104100000000000000000000001620     
100   9503051026917159000000000000540000000000540000200000001041040730091601001035THN9IN0730221115001035   1030000100030000   541120003104777031200000031GAMONE PWINT (BKLZ)    YGN           MMR11007300916010010350730000000000000000   10300002 00104100000000000000000000001080     
100   9503051892974086000000000006240000000006240000200000001041040730055256001259T7RKHU0730221112001259   1030000100030000   541120003008777031200000030GAMONE PWINT (TGZ)     YGN           MMR11007300552560012590730000000000000000   10300002 00104100000000000000000000012480     
100   9503051025844172000000000000450000000000450000200000001041040730104712002605QLOHVI0730221117002605   1030000100030000   541120003117777031200000031GAMONE PWINT (BKLZ)    YGN           MMR11007301047120026050730000000000000000   10300002 00104100000000000000000000000900     
100   62346600168478870000000000131240000000131240002000000010410407301013110019870224410730221116001987   1030000100030000   541160000001777031200000006MK FASHION             YGN           MMR11007301013110019870730000000000000000   10300005 00104100000000000000000000026248     
100   9503051024840544000000000001364000000001364000200000001041040730073150001746PQYVQC0730221114001746   1030000100030000   581250000001777031200000005AVENUE J COFFEE SHOP   YGN           MMR11007300731500017460730000000000000000   10300002 00104100000000000000000000004638     
100   9503051892316163000000000003289000000003289000200000001041040730084002001747QPVIQX0730221115001747   1030000100030000   581250000001777031200000005AVENUE J COFFEE SHOP   YGN           MMR11007300840020017470730000000000000000   10300002 00104100000000000000000000011183     
100   9503051025744919000000000000520000000000520000200000001041040730105829001037PWPSRR0730221117001037   1030000100030000   541120003104777031200000031GAMONE PWINT (BKLZ)    YGN           MMR11007301058290010370730000000000000000   10300002 00104100000000000000000000001040     
100   35710500140248790000000000004850000000004850002000000010410407301110090012673642340730221117001267   1030000100030000   541120003008777031200000030GAMONE PWINT (TGZ)     YGN           MMR11007301110090012670730000000000000000   10300005 00104100000000000000000000000970     
100   35710500345287430000000000017100000000017100002000000010410407301049360026072783290730221117002607   1030000100030000   541120003117777031200000031GAMONE PWINT (BKLZ)    YGN           MMR11007301049360026070730000000000000000   10300005 00104100000000000000000000003420     
100   9503051893906335000000000013464000000013464000200000001041040730112436001989G41AE80730221117001989   1030000100030000   541160000001777031200000006MK FASHION             YGN           MMR11007301124360019890730000000000000000   10300002 00104100000000000000000000026928     
100   35710500383689140000000000017910000000017910002000000010410407301221540025802699140730221118002580   1030000100030000   541120003106777031200000031GAMONE PWINT (BKLZ)    YGN           MMR11007301221540025800730000000000000000   10300005 00104100000000000000000000003582     
100   95030510261189640000000000009000000000009000002000000010410407301119230010395I7BE70730221117001039   1030000100030000   541120003104777031200000031GAMONE PWINT (BKLZ)    YGN           MMR11007301119230010390730000000000000000   10300002 00104100000000000000000000001800     
100   35710500363672070000000000019240000000019240002000000010410407300600490012618267700730221112001261   1030000100030000   541120003008777031200000030GAMONE PWINT (TGZ)     YGN           MMR11007300600490012610730000000000000000   10300005 00104100000000000000000000003848     
100   9503051895236822000000000003780000000003780000200000001041040730075706001070TBOG1P0730221114001070   1030000100030000   541120003103777031200000031GAMONE PWINT (BKLZ)    YGN           MMR11007300757060010700730000000000000000   10300002 00104100000000000000000000007560     
