100   9503051020532822000000000002280000000002280000200000001041040731052213001077AAAZVA0731221211001077   1030000100030000   541120003103777031200000031GAMONE PWINT (BKLZ)    YGN           MMR11007310522130010770731000000000000000   10300002 00104100000000000000000000004560     
100   950305102345038600000000000108000000000108000020000000104104073104333500053589DPZQ0731221211000535   1030000100030000   541120003013777031200000030GAMONE PWINT (TGZ)     YGN           MMR11007310433350005350731000000000000000   10300002 00104100000000000000000000002160     
100   35710830351749440000000000049000000000049000002000000010410407310534310007834567310731221212000783   1030000100030000   541120003111777031200000031GAMONE PWINT (BKLZ)    YGN           MMR11007310534310007830731000000000000000   10300003 00104100000000000000000000009800     
100   9503051894171509000000000000170000000000170000200000001041040731031421001042DYLNB70731221209001042   1030000100030000   541120003104777031200000031GAMONE PWINT (BKLZ)    YGN           MMR11007310314210010420731000000000000000   10300002 00104100000000000000000000000340     
100   35650883650002940000000000014400000000014400002000000010410407310943070012826098460731221216001282   1030000100030000   541120003008777031200000030GAMONE PWINT (TGZ)     YGN           MMR11007310943070012820731000000000000000   10300005 00104100000000000000000000005040     
100   9503051026857454000000000003670000000003670000200000001041040731094604001283SB1CZQ0731221216001283   1030000100030000   541120003008777031200000030GAMONE PWINT (TGZ)     YGN           MMR11007310946040012830731000000000000000   10300002 00104100000000000000000000007340     
100   9503051885891461000000000002500000000002500000200000001041040731064400000309ZELUD10731221213000309   1030000100030000   541120003114777031200000031GAMONE PWINT (BKLZ)    YGN           MMR11007310644000003090731000000000000000   10300002 00104100000000000000000000005000     
100   95030800040704340000000000007700000000007700002000000010410407310554120008544685400731221212000854   1030000100030000   541120003005777031200000030GAMONE PWINT (TGZ)     YGN           MMR11007310554120008540731000000000000000   10300003 00104100000000000000000000001540     
100   35710830748819870000000000037300000000037300002000000010410407310647450020455006710731221213002045   1030000100030000   541110001915777031200000019GAMONE PWINT (KBA)     YGN           MMR11007310647450020450731000000000000000   10300003 00104100000000000000000000007460     
100   9503190000056087000000000002160000000002160000200000001041040731034449002586U9A8T90731221210002586   1030000100030000   541120003106777031200000031GAMONE PWINT (BKLZ)    YGN           MMR11007310344490025860731000000000000000   10300014 00104100000000000000000000004320     
100   62346600180034710000000000679830000000679830002000000010410407311200500027148118930731221218002714   1030000100030000   541110001903777031200000019GAMONE PWINT (KBA)     YGN           MMR11007311200500027140731000000000000000   10300005 00104100000000000000000000135966     
100   35710500386024940000000000032220000000032220002000000010410407310804070020227343330731221214002022   1030000100030000   541110001920777031200000019GAMONE PWINT (KBA)     YGN           MMR11007310804070020220731000000000000000   10300005 00104100000000000000000000006444     
100   35710950564297000000000000007700000000007700002000000010410407311124090020566665100731221217002056   1030000100030000   541110001915777031200000019GAMONE PWINT (KBA)     YGN           MMR11007311124090020560731000000000000000   10300003 00104100000000000000000000001540     
100   9503051885891461000000000005820000000005820000200000001041040731052705002609YF0YCX0731221211002609   1030000100030000   541120003117777031200000031GAMONE PWINT (BKLZ)    YGN           MMR11007310527050026090731000000000000000   10300002 00104100000000000000000000011640     
100   35710830949182070000000000019040000000019040002000000010410407311208400027156932210731221218002715   1030000100030000   541110001903777031200000019GAMONE PWINT (KBA)     YGN           MMR11007311208400027150731000000000000000   10300003 00104100000000000000000000003808     
100   9503051890991165000000000003180000000003180000200000001041040731100536002702Z5HKBE0731221216002702   1030000100030000   541110001903777031200000019GAMONE PWINT (KBA)     YGN           MMR11007311005360027020731000000000000000   10300002 00104100000000000000000000006360     
100   95030518927508090000000000021500000000021500002000000010410407310532310012734IJAKX0731221212001273   1030000100030000   541120003008777031200000030GAMONE PWINT (TGZ)     YGN           MMR11007310532310012730731000000000000000   10300002 00104100000000000000000000004300     
100   35710500334769360000000000025627000000025627002000000010410407310834350005382285280731221215000538   1030000100030000   541120003013777031200000030GAMONE PWINT (TGZ)     YGN           MMR11007310834350005380731000000000000000   10300005 00104100000000000000000000005126     
100   62346600100686130000000000017500000000017500002000000010410407310604590007844730980731221212000784   1030000100030000   541120003111777031200000031GAMONE PWINT (BKLZ)    YGN           MMR11007310604590007840731000000000000000   10300005 00104100000000000000000000003500     
100   35710500164568970000000000017900000000017900002000000010410407310725500007850814420731221213000785   1030000100030000   541120003111777031200000031GAMONE PWINT (BKLZ)    YGN           MMR11007310725500007850731000000000000000   10300005 00104100000000000000000000003580     
100   35710830285446080000000000010800000000010800002000000010410407310528300010484531210731221211001048   1030000100030000   541120003104777031200000031GAMONE PWINT (BKLZ)    YGN           MMR11007310528300010480731000000000000000   10300003 00104100000000000000000000002160     
100   9503051025479557000000000000590000000000590000200000001041040731060931000856J7Z7T50731221212000856   1030000100030000   541120003005777031200000030GAMONE PWINT (TGZ)     YGN           MMR11007310609310008560731000000000000000   10300002 00104100000000000000000000001180     
100   35710830351749440000000000015300000000015300002000000010410407310523140010794499600731221211001079   1030000100030000   541120003103777031200000031GAMONE PWINT (BKLZ)    YGN           MMR11007310523140010790731000000000000000   10300003 00104100000000000000000000003060     
100   9503051894582853000000000008500000000008500000200000001041040731110603000539OYEXG70731221217000539   1030000100030000   541120003013777031200000030GAMONE PWINT (TGZ)     YGN           MMR11007311106030005390731000000000000000   10300002 00104100000000000000000000017000     
100   95030518957461840000000000026166000000026166002000000010410407311059050046074UUBKO0731221217004607   1030000100030000   541110001907777031200000019GAMONE PWINT (KBA)     YGN           MMR11007311059050046070731000000000000000   10300002 00104100000000000000000000005233     
100   9503190005096187000000000029720000000029720000200000001041040731114743004610N0U0C00731221218004610   1030000100030000   541110001907777031200000019GAMONE PWINT (KBA)     YGN           MMR11007311147430046100731000000000000000   10300014 00104100000000000000000000059440     
100   9503051025872173000000000000625000000000625000200000001041040731045247002001OZW2N20731221211002001   1030000100030000   541110001920777031200000019GAMONE PWINT (KBA)     YGN           MMR11007310452470020010731000000000000000   10300002 00104100000000000000000000001250     
100   9503051897070823000000000000960000000000960000200000001041040731115008002058UVST3G0731221218002058   1030000100030000   541110001915777031200000019GAMONE PWINT (KBA)     YGN           MMR11007311150080020580731000000000000000   10300002 00104100000000000000000000001920     
100   95030510244978160000000000083100000000083100002000000010410407310539220026129BXJJF0731221212002612   1030000100030000   541120003117777031200000031GAMONE PWINT (BKLZ)    YGN           MMR11007310539220026120731000000000000000   10300002 00104100000000000000000000016620     
100   35710830329125850000000000021500000000021500002000000010410407310437540020394227510731221211002039   1030000100030000   541110001915777031200000019GAMONE PWINT (KBA)     YGN           MMR11007310437540020390731000000000000000   10300003 00104100000000000000000000004300     
100   35710500164568970000000000057900000000057900002000000010410407310606580025928362550731221212002592   1030000100030000   541120003106777031200000031GAMONE PWINT (BKLZ)    YGN           MMR11007310606580025920731000000000000000   10300005 00104100000000000000000000011580     
100   9503051891616423000000000001242000000001242000200000001041040730053454000450KVOLSW0730221112000450   1030000100030000   541110001917777031200000019GAMONE PWINT (KBA)     YGN           MMR11007300534540004500730000000000000000   10300002 00104100000000000000000000002484     
100   35710830718391600000000000016200000000016200002000000010410407310752360007865395720731221214000786   1030000100030000   541120003111777031200000031GAMONE PWINT (BKLZ)    YGN           MMR11007310752360007860731000000000000000   10300003 00104100000000000000000000003240     
100   95030800051245940000000000008400000000008400002000000010410407311146440004646800610731221218000464   1030000100030000   541110001917777031200000019GAMONE PWINT (KBA)     YGN           MMR11007311146440004640731000000000000000   10300003 00104100000000000000000000001680     
100   35710830583160750000000000027500000000027500002000000010410407310848480007875733000731221215000787   1030000100030000   541120003111777031200000031GAMONE PWINT (BKLZ)    YGN           MMR11007310848480007870731000000000000000   10300003 00104100000000000000000000005500     
100   62622000774817580000000000019600000000019600002000000010410407311121270008572370150731221217000857   1030000100030000   541120003005777031200000030GAMONE PWINT (TGZ)     YGN           MMR11007311121270008570731000000000000000   10300006 00104100000000000000000000003920     
100   35710830774294120000000000032400000000032400002000000010410407310710310012755143410731221213001275   1030000100030000   541120003008777031200000030GAMONE PWINT (TGZ)     YGN           MMR11007310710310012750731000000000000000   10300003 00104100000000000000000000006480     
100   9503051897684508000000000000665000000000665000200000001041040731043756001046JQJ8340731221211001046   1030000100030000   541120003104777031200000031GAMONE PWINT (BKLZ)    YGN           MMR11007310437560010460731000000000000000   10300002 00104100000000000000000000001330     
100   35710830194854490000000000013000000000013000002000000010410407311018220010526270410731221216001052   1030000100030000   541120003104777031200000031GAMONE PWINT (BKLZ)    YGN           MMR11007311018220010520731000000000000000   10300003 00104100000000000000000000002600     
100   9503051022364943000000000002750000000002750000200000001041040731081239004588FPSPYJ0731221214004588   1030000100030000   541110001907777031200000019GAMONE PWINT (KBA)     YGN           MMR11007310812390045880731000000000000000   10300002 00104100000000000000000000005500     
100   95030800021092590000000000311300000000311300002000000010410407301344260000278866720730221120000027   1030000100030000   581210001201777031200000012L OPERA RESTAURANT YGN YGN           MMR11007301344260000270730000000000000000   10300003 00104100000000000000000000105842     
100   9503051020446858000000000002060000000002060000200000001041040730101421000457DLLPT30730221116000457   1030000100030000   541110001917777031200000019GAMONE PWINT (KBA)     YGN           MMR11007301014210004570730000000000000000   10300002 00104100000000000000000000004120     
100   35710900074674380000000000020700000000020700002000000010410407300933170004537359830730221116000453   1030000100030000   541110001917777031200000019GAMONE PWINT (KBA)     YGN           MMR11007300933170004530730000000000000000   10300003 00104100000000000000000000004140     
100   35710830243780430000000000012000000000012000002000000010410407301015500004597615110730221116000459   1030000100030000   541110001917777031200000019GAMONE PWINT (KBA)     YGN           MMR11007301015500004590730000000000000000   10300003 00104100000000000000000000002400     
100   9503051872708595000000000019910000000019910000200000001041040730135531000028CPVCGR0730221120000028   1030000100030000   581210001201777031200000012L OPERA RESTAURANT YGN YGN           MMR11007301355310000280730000000000000000   10300002 00104100000000000000000000067694     
100   35710830045924560000000000310000000000310000002000000010410407301103490000637903110730221117000063   1030000100030000   541110900002777030900000002KAUNG HEIN ELECTRONICS NPT           MMR11007301103490000630730000000000000000   10300003 00104100000000000000000000062000     
100   9503051895690317000000000003080000000003080000200000001041040730091610002680BLLTPF0730221115002680   1030000100030000   541110001903777031200000019GAMONE PWINT (KBA)     YGN           MMR11007300916100026800730000000000000000   10300002 00104100000000000000000000006160     
100   35710500183753190000000000022150000000022150002000000010410407300733000045505703160730221114004550   1030000100030000   541110001907777031200000019GAMONE PWINT (KBA)     YGN           MMR11007300733000045500730000000000000000   10300005 00104100000000000000000000004430     
100   62443000103184490000000000004700000000004700002000000010410407311020000046021436670731221216004602   1030000100030000   541110001907777031200000019GAMONE PWINT (KBA)     YGN           MMR11007311020000046020731000000000000000   10300005 00104100000000000000000000001645     
100   9503190006935268000000000000700000000000700000200000001041040731064055004578H7H30Q0731221213004578   1030000100030000   541110001907777031200000019GAMONE PWINT (KBA)     YGN           MMR11007310640550045780731000000000000000   10300014 00104100000000000000000000001400     
100   9503051024728780000000000001500000000001500000200000001041040801040703004623AKUVQS0801221310004623   1030000100030000   541110001907777031200000019GAMONE PWINT (KBA)     YGN           MMR11008010407030046230801000000000000000   10300002 00104100000000000000000000003000     
100   35710830283973200000000000004900000000004900002000000010410408011035580020545016010801221317002054   1030000100030000   541110001920777031200000019GAMONE PWINT (KBA)     YGN           MMR11008011035580020540801000000000000000   10300003 00104100000000000000000000000980     
100   9503051021412131000000000002580000000002580000200000001041040801122023003552GS0KPJ0801221318003552   1030000100030000   541110001905777031200000019GAMONE PWINT (KBA)     YGN           MMR11008011220230035520801000000000000000   10300002 00104100000000000000000000005160     
100   35710500315844910000000000018500000000018500002000000010410408011240500026220284380801221319002622   1030000100030000   541120003117777031200000031GAMONE PWINT (BKLZ)    YGN           MMR11008011240500026220801000000000000000   10300005 00104100000000000000000000003700     
100   9503051025617933000000000013396000000013396000200000001041040801105101001997YTBLDO0801221317001997   1030000100030000   541160000001777031200000006MK FASHION             YGN           MMR11008011051010019970801000000000000000   10300002 00104100000000000000000000026792     
100   35710830371305060000000000028000000000028000002000000010410408011037510010925027210801221317001092   1030000100030000   541120003103777031200000031GAMONE PWINT (BKLZ)    YGN           MMR11008011037510010920801000000000000000   10300003 00104100000000000000000000005600     
100   35710830539519910000000000022800000000022800002000000010410407300535150026715931710730221112002671   1030000100030000   541110001903777031200000019GAMONE PWINT (KBA)     YGN           MMR11007300535150026710730000000000000000   10300003 00104100000000000000000000004560     
100   9503051887963482000000000002880000000002880000200000001041040730034333002664G4YQBG0730221110002664   1030000100030000   541110001903777031200000019GAMONE PWINT (KBA)     YGN           MMR11007300343330026640730000000000000000   10300002 00104100000000000000000000005760     
100   35710500115283930000000000021950000000021950002000000010410407300718330019822894980730221113001982   1030000100030000   541110001920777031200000019GAMONE PWINT (KBA)     YGN           MMR11007300718330019820730000000000000000   10300005 00104100000000000000000000004390     
100   35710500323436160000000000018800000000018800002000000010410407300934430026843474510730221116002684   1030000100030000   541110001903777031200000019GAMONE PWINT (KBA)     YGN           MMR11007300934430026840730000000000000000   10300005 00104100000000000000000000003760     
100   35710830520063590000000000007248000000007248002000000010410407300552350020136035610730221112002013   1030000100030000   541110001915777031200000019GAMONE PWINT (KBA)     YGN           MMR11007300552350020130730000000000000000   10300003 00104100000000000000000000001450     
100   62444500200637310000000000017960000000017960002000000010410407300624320026740283370730221112002674   1030000100030000   541110001903777031200000019GAMONE PWINT (KBA)     YGN           MMR11007300624320026740730000000000000000   10300002 00104100000000000000000000006286     
100   35710500100810970000000000004896000000004896002000000010410407300606190020160310010730221112002016   1030000100030000   541110001915777031200000019GAMONE PWINT (KBA)     YGN           MMR11007300606190020160730000000000000000   10300005 00104100000000000000000000000979     
100   62346600160852560000000000017800000000017800002000000010410407300742560019862988150730221114001986   1030000100030000   541110001920777031200000019GAMONE PWINT (KBA)     YGN           MMR11007300742560019860730000000000000000   10300005 00104100000000000000000000003560     
100   35710500381711510000000000003500000000003500002000000010410408011047380012912436010801221317001291   1030000100030000   541120003008777031200000030GAMONE PWINT (TGZ)     YGN           MMR11008011047380012910801000000000000000   10300005 00104100000000000000000000000700     
100   35710830408330960000000000008800000000008800002000000010410408011129180027305336010801221317002730   1030000100030000   541110001903777031200000019GAMONE PWINT (KBA)     YGN           MMR11008011129180027300801000000000000000   10300003 00104100000000000000000000001760     
100   35710500354850180000000000025480000000025480002000000010410408010339590035314294810801221310003531   1030000100030000   541110001905777031200000019GAMONE PWINT (KBA)     YGN           MMR11008010339590035310801000000000000000   10300005 00104100000000000000000000005096     
100   95031900070455540000000000049070000000049070002000000010410408010414160020503ZHQZF0801221310002050   1030000100030000   541110001920777031200000019GAMONE PWINT (KBA)     YGN           MMR11008010414160020500801000000000000000   10300014 00104100000000000000000000009814     
100   35710500133554640000000000039150000000039150002000000010410408010751450020520470940801221314002052   1030000100030000   541110001920777031200000019GAMONE PWINT (KBA)     YGN           MMR11008010751450020520801000000000000000   10300005 00104100000000000000000000007830     
100   62443000803870350000000000024950000000024950002000000010410408010525220035379054710801221311003537   1030000100030000   541110001905777031200000019GAMONE PWINT (KBA)     YGN           MMR11008010525220035370801000000000000000   10300005 00104100000000000000000000008732     
100   9503051896597123000000000014250000000014250000200000001041040801073542003541J4OTZJ0801221314003541   1030000100030000   541110001905777031200000019GAMONE PWINT (KBA)     YGN           MMR11008010735420035410801000000000000000   10300002 00104100000000000000000000028500     
100   35710500363736680000000000007600000000007600002000000010410408010401390046216356630801221310004621   1030000100030000   541110001907777031200000019GAMONE PWINT (KBA)     YGN           MMR11008010401390046210801000000000000000   10300005 00104100000000000000000000001520     
100   35710950670457920000000000017600000000017600002000000010410407300458000026675708200730221111002667   1030000100030000   541110001903777031200000019GAMONE PWINT (KBA)     YGN           MMR11007300458000026670730000000000000000   10300003 00104100000000000000000000003520     
100   35710900061863690000000000029700000000029700002000000010410407300642500020186337200730221113002018   1030000100030000   541110001915777031200000019GAMONE PWINT (KBA)     YGN           MMR11007300642500020180730000000000000000   10300003 00104100000000000000000000005940     
100   9503051889764383000000000001290000000001290000200000001041040730070219002020AVC3ZE0730221113002020   1030000100030000   541110001915777031200000019GAMONE PWINT (KBA)     YGN           MMR11007300702190020200730000000000000000   10300002 00104100000000000000000000002580     
100   9503051888400013000000000000770000000000770000200000001041040730075234002023FLBBVZ0730221114002023   1030000100030000   541110001915777031200000019GAMONE PWINT (KBA)     YGN           MMR11007300752340020230730000000000000000   10300002 00104100000000000000000000001540     
100   35710500394168290000000000023400000000023400002000000010410407300501240045320413620730221111004532   1030000100030000   541110001907777031200000019GAMONE PWINT (KBA)     YGN           MMR11007300501240045320730000000000000000   10300005 00104100000000000000000000004680     
100   9503190007309141000000000003080000000003080000200000001041040730052521002669VX5SKP0730221111002669   1030000100030000   541110001903777031200000019GAMONE PWINT (KBA)     YGN           MMR11007300525210026690730000000000000000   10300014 00104100000000000000000000006160     
100   95030510261522450000000000006000000000006000002000000010410407300848190045658Z4ENV0730221115004565   1030000100030000   541110001907777031200000019GAMONE PWINT (KBA)     YGN           MMR11007300848190045650730000000000000000   10300002 00104100000000000000000000001200     
100   62346600160852560000000000005700000000005700002000000010410407300801020020256492790730221114002025   1030000100030000   541110001915777031200000019GAMONE PWINT (KBA)     YGN           MMR11007300801020020250730000000000000000   10300005 00104100000000000000000000001140     
100   35710950248310940000000000029000000000029000002000000010410408010628410046253532300801221312004625   1030000100030000   541110001907777031200000019GAMONE PWINT (KBA)     YGN           MMR11008010628410046250801000000000000000   10300003 00104100000000000000000000005800     
100   9503051894752951000000000000900000000000900000200000001041040801074421004633ACSTOH0801221314004633   1030000100030000   541110001907777031200000019GAMONE PWINT (KBA)     YGN           MMR11008010744210046330801000000000000000   10300002 00104100000000000000000000001800     
100   35710830624960200000000000004345000000004345002000000010410408011056190017555138020801221317001755   1030000100030000   581250000001777031200000005AVENUE J COFFEE SHOP   YGN           MMR11008011056190017550801000000000000000   10300003 00104100000000000000000000001477     
100   9503051893734117000000000000869000000000869000200000001041040801122942001757X58JH10801221318001757   1030000100030000   581250000001777031200000005AVENUE J COFFEE SHOP   YGN           MMR11008011229420017570801000000000000000   10300002 00104100000000000000000000002955     
100   62346600181120170000000000017160000000017160002000000010410408011234480017583114420801221319001758   1030000100030000   581250000001777031200000005AVENUE J COFFEE SHOP   YGN           MMR11008011234480017580801000000000000000   10300005 00104100000000000000000000005834     
100   35710500345764450000000000023800000000023800002000000010410408010540200027233153130801221312002723   1030000100030000   541110001903777031200000019GAMONE PWINT (KBA)     YGN           MMR11008010540200027230801000000000000000   10300005 00104100000000000000000000004760     
100   95030510256977030000000000009000000000009000002000000010410408010823360035462IHDLE0801221314003546   1030000100030000   541110001905777031200000019GAMONE PWINT (KBA)     YGN           MMR11008010823360035460801000000000000000   10300002 00104100000000000000000000001800     
100   9503051026532966000000000006440000000006440000200000001041040801092354003548PYHVDK0801221315003548   1030000100030000   541110001905777031200000019GAMONE PWINT (KBA)     YGN           MMR11008010923540035480801000000000000000   10300002 00104100000000000000000000012880     
100   35710500313988190000000000007600000000007600002000000010410407300823180020276229420730221114002027   1030000100030000   541110001915777031200000019GAMONE PWINT (KBA)     YGN           MMR11007300823180020270730000000000000000   10300005 00104100000000000000000000001520     
100   9503051887835425000000000001300000000001300000200000001041040730083845002030MQDVQD0730221115002030   1030000100030000   541110001915777031200000019GAMONE PWINT (KBA)     YGN           MMR11007300838450020300730000000000000000   10300002 00104100000000000000000000002600     
100   35710500132528360000000000005400000000005400002000000010410407300846310034850721480730221115003485   1030000100030000   541110001905777031200000019GAMONE PWINT (KBA)     YGN           MMR11007300846310034850730000000000000000   10300005 00104100000000000000000000001080     
100   95031900054574540000000000003984000000003984002000000010410407301001200045676NPNPF0730221116004567   1030000100030000   541110001907777031200000019GAMONE PWINT (KBA)     YGN           MMR11007301001200045670730000000000000000   10300014 00104100000000000000000000000797     
100   9503051022701938000000000001485000000001485000200000001041040730075736001989MNICWL0730221114001989   1030000100030000   541110001920777031200000019GAMONE PWINT (KBA)     YGN           MMR11007300757360019890730000000000000000   10300002 00104100000000000000000000002970     
100   35710830617779900000000000051800000000051800002000000010410407300810410026786864210730221114002678   1030000100030000   541110001903777031200000019GAMONE PWINT (KBA)     YGN           MMR11007300810410026780730000000000000000   10300003 00104100000000000000000000010360     
100   35710500394168290000000000004550000000004550002000000010410407300505550045374278610730221111004537   1030000100030000   541110001907777031200000019GAMONE PWINT (KBA)     YGN           MMR11007300505550045370730000000000000000   10300005 00104100000000000000000000000910     
100   95031900073091410000000000004000000000004000002000000010410407300517300045398JTQ9J0730221111004539   1030000100030000   541110001907777031200000019GAMONE PWINT (KBA)     YGN           MMR11007300517300045390730000000000000000   10300014 00104100000000000000000000000800     
100   9503051893127379000000000000340000000000340000200000001041040801085058004635IL11HH0801221315004635   1030000100030000   541110001907777031200000019GAMONE PWINT (KBA)     YGN           MMR11008010850580046350801000000000000000   10300002 00104100000000000000000000000680     
100   35710500102893850000000000013400000000013400002000000010410408010917150046372461450801221315004637   1030000100030000   541110001907777031200000019GAMONE PWINT (KBA)     YGN           MMR11008010917150046370801000000000000000   10300005 00104100000000000000000000002680     
100   62921400029883660000000000028200000000028200002000000010410408010946430046412222220801221316004641   1030000100030000   541110001907777031200000019GAMONE PWINT (KBA)     YGN           MMR11008010946430046410801000000000000000   10300009 00104100000000000000000000005640     
100   9503051021412131000000000001500000000001500000200000001041040801125039004643SRFMRU0801221319004643   1030000100030000   541110001907777031200000019GAMONE PWINT (KBA)     YGN           MMR11008011250390046430801000000000000000   10300002 00104100000000000000000000003000     
100   9503051025197787000000000014170800000014170800200000001041040801130521004647JUIUKJ0801221319004647   1030000100030000   541110001907777031200000019GAMONE PWINT (KBA)     YGN           MMR11008011305210046470801000000000000000   10300002 00104100000000000000000000028342     
100   9503190007153887000000000002887500000002887500200000001041040801093530001754O1M0KT0801221316001754   1030000100030000   581250000001777031200000005AVENUE J COFFEE SHOP   YGN           MMR11008010935300017540801000000000000000   10300014 00104100000000000000000000009818     
100   35710950574142220000000000004180000000004180002000000010410408011224580017565669910801221318001756   1030000100030000   581250000001777031200000005AVENUE J COFFEE SHOP   YGN           MMR11008011224580017560801000000000000000   10300003 00104100000000000000000000001421     
100   35710500350350030000000000038000000000038000002000000010410408010929440027262489030801221315002726   1030000100030000   541110001903777031200000019GAMONE PWINT (KBA)     YGN           MMR11008010929440027260801000000000000000   10300005 00104100000000000000000000007600     
100   9503054000429076000000000001250000000001250000200000001041040730084226001990EQWFY60730221115001990   1030000100030000   541110001920777031200000019GAMONE PWINT (KBA)     YGN           MMR11007300842260019900730000000000000000   10300002 00104100000000000000000000002500     
100   35710830243780430000000000009700000000009700002000000010410407301034180020327725910730221117002032   1030000100030000   541110001915777031200000019GAMONE PWINT (KBA)     YGN           MMR11007301034180020320730000000000000000   10300003 00104100000000000000000000001940     
100   35710830651280420000000000220000000000220000002000000010410407300523360045415861810730221111004541   1030000100030000   541110001907777031200000019GAMONE PWINT (KBA)     YGN           MMR11007300523360045410730000000000000000   10300003 00104100000000000000000000044000     
100   95030800016104300000000000027500000000027500002000000010410407300525070045435870910730221111004543   1030000100030000   541110001907777031200000019GAMONE PWINT (KBA)     YGN           MMR11007300525070045430730000000000000000   10300003 00104100000000000000000000005500     
100   9503051024725364000000000000705600000000705600200000001041040730075101004553X152N80730221114004553   1030000100030000   541110001907777031200000019GAMONE PWINT (KBA)     YGN           MMR11007300751010045530730000000000000000   10300002 00104100000000000000000000001411     
100   35710500343646930000000000005684000000005684002000000010410407300803020045569251520730221114004556   1030000100030000   541110001907777031200000019GAMONE PWINT (KBA)     YGN           MMR11007300803020045560730000000000000000   10300005 00104100000000000000000000001137     
100   35710500101079260000000000005390000000005390002000000010410407300859420034874289810730221115003487   1030000100030000   541110001905777031200000019GAMONE PWINT (KBA)     YGN           MMR11007300859420034870730000000000000000   10300005 00104100000000000000000000001078     
100   9503051020393266000000000000793800000000793800200000001041040730102143004570MUCADN0730221116004570   1030000100030000   541110001907777031200000019GAMONE PWINT (KBA)     YGN           MMR11007301021430045700730000000000000000   10300002 00104100000000000000000000001588     
100   35710500325742770000000000009500000000009500002000000010410407310412350020363402740731221210002036   1030000100030000   541110001915777031200000019GAMONE PWINT (KBA)     YGN           MMR11007310412350020360731000000000000000   10300005 00104100000000000000000000001900     
100   35710950700939460000000000005200000000005200002000000010410407311227590035207048120731221218003520   1030000100030000   541110001905777031200000019GAMONE PWINT (KBA)     YGN           MMR11007311227590035200731000000000000000   10300003 00104100000000000000000000001040     
100   950319000509618700000000000408000000000408000020000000104104073009215300268222O94N0730221115002682   1030000100030000   541110001903777031200000019GAMONE PWINT (KBA)     YGN           MMR11007300921530026820730000000000000000   10300014 00104100000000000000000000008160     
100   35710830757945020000000000020700000000020700002000000010410407311202180020436894010731221218002043   1030000100030000   541110001920777031200000019GAMONE PWINT (KBA)     YGN           MMR11007311202180020430731000000000000000   10300003 00104100000000000000000000004140     
100   62346600101643470000000000011700000000011700002000000010410407310622340020089290530731221212002008   1030000100030000   541110001920777031200000019GAMONE PWINT (KBA)     YGN           MMR11007310622340020080731000000000000000   10300005 00104100000000000000000000002340     
100   9503051894171509000000000000100000000000100000200000001041040731031946001044YYUKVW0731221209001044   1030000100030000   541120003104777031200000031GAMONE PWINT (BKLZ)    YGN           MMR11007310319460010440731000000000000000   10300002 00104100000000000000000000000200     
100   35710830945801220000000000081300000000081300002000000010410407311151570026196831910731221218002619   1030000100030000   541120003117777031200000031GAMONE PWINT (BKLZ)    YGN           MMR11007311151570026190731000000000000000   10300003 00104100000000000000000000016260     
100   35710830329861830000000000022000000000022000002000000010410407310631060010504906730731221213001050   1030000100030000   541120003104777031200000031GAMONE PWINT (BKLZ)    YGN           MMR11007310631060010500731000000000000000   10300003 00104100000000000000000000004400     
100   9503190006398491000000000003488000000003488000200000001041040731072406003500JNV2FR0731221213003500   1030000100030000   541110001905777031200000019GAMONE PWINT (KBA)     YGN           MMR11007310724060035000731000000000000000   10300014 00104100000000000000000000006976     
100   35710830323893130000000000014000000000014000002000000010410407310830060026995620800731221215002699   1030000100030000   541110001903777031200000019GAMONE PWINT (KBA)     YGN           MMR11007310830060026990731000000000000000   10300003 00104100000000000000000000002800     
100   9503051887963482000000000002880000000002880000200000001041040730033617002662V0B2JF0730221110002662   1030000100030000   541110001903777031200000019GAMONE PWINT (KBA)     YGN           MMR11007300336170026620730000000000000000   10300002 00104100000000000000000000005760     
100   35710500150016600000000000006500000000006500002000000010410407300625150045468289570730221112004546   1030000100030000   541110001907777031200000019GAMONE PWINT (KBA)     YGN           MMR11007300625150045460730000000000000000   10300005 00104100000000000000000000001300     
100   9503051025424363000000000000300000000000300000200000001041040730050448004534GUMOAK0730221111004534   1030000100030000   541110001907777031200000019GAMONE PWINT (KBA)     YGN           MMR11007300504480045340730000000000000000   10300002 00104100000000000000000000000600     
100   35710500344114290000000000325000000000325000002000000010410407300758230026761208740730221114002676   1030000100030000   541110001903777031200000019GAMONE PWINT (KBA)     YGN           MMR11007300758230026760730000000000000000   10300005 00104100000000000000000000065000     
100   9503190005618618000000000000450000000000450000200000001041040731045435000536Y17EOE0731221211000536   1030000100030000   541120003013777031200000030GAMONE PWINT (TGZ)     YGN           MMR11007310454350005360731000000000000000   10300014 00104100000000000000000000000900     
100   35710500341436750000000000019500000000019500002000000010410407311031450026143657250731221217002614   1030000100030000   541120003117777031200000031GAMONE PWINT (BKLZ)    YGN           MMR11007311031450026140731000000000000000   10300005 00104100000000000000000000003900     
100   95030510253718790000000000006750000000006750002000000010410407310739100010859ARSKE0731221214001085   1030000100030000   541120003103777031200000031GAMONE PWINT (BKLZ)    YGN           MMR11007310739100010850731000000000000000   10300002 00104100000000000000000000001350     
100   35710500343646930000000000010228000000010228002000000010410407311007320020549438090731221216002054   1030000100030000   541110001915777031200000019GAMONE PWINT (KBA)     YGN           MMR11007311007320020540731000000000000000   10300005 00104100000000000000000000002046     
100   9503051884796380000000000000750000000000750000200000001041040731082450004593KEAAET0731221214004593   1030000100030000   541110001907777031200000019GAMONE PWINT (KBA)     YGN           MMR11007310824500045930731000000000000000   10300002 00104100000000000000000000001500     
100   9503051886427992000000000002280000000002280000200000001041040731112745002710B1OVYV0731221217002710   1030000100030000   541110001903777031200000019GAMONE PWINT (KBA)     YGN           MMR11007311127450027100731000000000000000   10300002 00104100000000000000000000004560     
100   62343302001383900000000000029900000000029900002000000010410408011113410002101025370801221317000210   1030000100030000   541110001904777031200000019GAMONE PWINT (KBA)     YGN           MMR11008011113410002100801000000000000000   10300004 00104100000000000000000000005980     
100   95031900020044650000000000038500000000038500002000000010410408011359320000414I3JB00801221320000041   1030000100030000   701110900010777030900000008HOTEL 101              NPT           MMR11008011359320000410801000000000000000   10300014 00104100000000000000000000013090     
100   950305188690778700000000000315000000000315000020000000104104080106450500054366LXRF0801221313000543   1030000100030000   541120003013777031200000030GAMONE PWINT (TGZ)     YGN           MMR11008010645050005430801000000000000000   10300002 00104100000000000000000000006300     
100   35710500381711510000000000024060000000024060002000000010410408011015240005967626880801221316000596   1030000100030000   541120003001777031200000030GAMONE PWINT (TGZ)     YGN           MMR11008011015240005960801000000000000000   10300005 00104100000000000000000000004812     
100   35710500324897160000000000024300000000024300002000000010410408010813370007918755230801221314000791   1030000100030000   541120003111777031200000031GAMONE PWINT (BKLZ)    YGN           MMR11008010813370007910801000000000000000   10300005 00104100000000000000000000004860     
100   35710830014937400000000000006835000000006835002000000010410408011114100008655245200801221317000865   1030000100030000   541120003005777031200000030GAMONE PWINT (TGZ)     YGN           MMR11008011114100008650801000000000000000   10300003 00104100000000000000000000001367     
100   35710830014937400000000000001862000000001862002000000010410408011237110008675743300801221319000867   1030000100030000   541120003005777031200000030GAMONE PWINT (TGZ)     YGN           MMR11008011237110008670801000000000000000   10300003 00104100000000000000000000000372     
100   9503051897587156000000000001305000000001305000200000001041040801124107000547DUPYC30801221319000547   1030000100030000   541120003013777031200000030GAMONE PWINT (TGZ)     YGN           MMR11008011241070005470801000000000000000   10300002 00104100000000000000000000002610     
100   9503051023293349000000000004295000000004295000200000001041040731065202002013AVPFPR0731221213002013   1030000100030000   541110001920777031200000019GAMONE PWINT (KBA)     YGN           MMR11007310652020020130731000000000000000   10300002 00104100000000000000000000008590     
100   35710830201235750000000000286900000000286900002000000010410407300754440000266768520730221114000026   1030000100030000   581210001201777031200000012L OPERA RESTAURANT YGN YGN           MMR11007300754440000260730000000000000000   10300003 00104100000000000000000000097546     
100   9503190001343401000000000002280000000002280000200000001041040731031130002691M0EA8T0731221209002691   1030000100030000   541110001903777031200000019GAMONE PWINT (KBA)     YGN           MMR11007310311300026910731000000000000000   10300014 00104100000000000000000000004560     
100   9503051020393266000000000001530000000001530000200000001041040730094549001993ZMH5CM0730221116001993   1030000100030000   541110001920777031200000019GAMONE PWINT (KBA)     YGN           MMR11007300945490019930730000000000000000   10300002 00104100000000000000000000003060     
100   9503051022701938000000000001040000000001040000200000001041040730080720003483VTKGBF0730221114003483   1030000100030000   541110001905777031200000019GAMONE PWINT (KBA)     YGN           MMR11007300807200034830730000000000000000   10300002 00104100000000000000000000002080     
100   35710500325159080000000000054500000000054500002000000010410407310500410045741102780731221211004574   1030000100030000   541110001907777031200000019GAMONE PWINT (KBA)     YGN           MMR11007310500410045740731000000000000000   10300005 00104100000000000000000000010900     
100   35710830124043890000000000014850000000014850002000000010410407310755310012785413310731221214001278   1030000100030000   541120003008777031200000030GAMONE PWINT (TGZ)     YGN           MMR11007310755310012780731000000000000000   10300003 00104100000000000000000000002970     
100   9503051895146062000000000003495000000003495000200000001041040731054719001081UAYQKV0731221212001081   1030000100030000   541120003103777031200000031GAMONE PWINT (BKLZ)    YGN           MMR11007310547190010810731000000000000000   10300002 00104100000000000000000000006990     
100   9503054000563460000000000003900000000003900000200000001041040801032900001088ZTZSCU0801221309001088   1030000100030000   541120003103777031200000031GAMONE PWINT (BKLZ)    YGN           MMR11008010329000010880801000000000000000   10300002 00104100000000000000000000007800     
100   35710830217752090000000000004950000000004950002000000010410408010359100010902635110801221310001090   1030000100030000   541120003103777031200000031GAMONE PWINT (BKLZ)    YGN           MMR11008010359100010900801000000000000000   10300003 00104100000000000000000000000990     
100   95030510227042050000000000018700000000018700002000000010410408010926260005442NLUVU0801221315000544   1030000100030000   541120003013777031200000030GAMONE PWINT (TGZ)     YGN           MMR11008010926260005440801000000000000000   10300002 00104100000000000000000000003740     
100   62921400083256050000000000013550000000013550002000000010410408010450240010562222220801221311001056   1030000100030000   541120003104777031200000031GAMONE PWINT (BKLZ)    YGN           MMR11008010450240010560801000000000000000   10300009 00104100000000000000000000002710     
100   9503190006521613000000000000980000000000980000200000001041040801054650001058JMJ8AY0801221312001058   1030000100030000   541120003104777031200000031GAMONE PWINT (BKLZ)    YGN           MMR11008010546500010580801000000000000000   10300014 00104100000000000000000000001960     
100   95031800709210130000000000005050000000005050002000000010410408010553300010606182070801221312001060   1030000100030000   541120003104777031200000031GAMONE PWINT (BKLZ)    YGN           MMR11008010553300010600801000000000000000   10300013 00104100000000000000000000001010     
100   35710500324897160000000000008600000000008600002000000010410408010835450010646358740801221315001064   1030000100030000   541120003104777031200000031GAMONE PWINT (BKLZ)    YGN           MMR11008010835450010640801000000000000000   10300005 00104100000000000000000000001720     
100   95030201796826130000000000004950000000004950002000000010410408010914550010660688080801221315001066   1030000100030000   541120003104777031200000031GAMONE PWINT (BKLZ)    YGN           MMR11008010914550010660801000000000000000   10200002 00104100000000000000000000000990     
100   9503051022364943000000000001755000000001755000200000001041040731082613002025X4PZYF0731221214002025   1030000100030000   541110001920777031200000019GAMONE PWINT (KBA)     YGN           MMR11007310826130020250731000000000000000   10300002 00104100000000000000000000003510     
100   35710830592643810000000000016500000000016500002000000010410407310953220035126120400731221216003512   1030000100030000   541110001905777031200000019GAMONE PWINT (KBA)     YGN           MMR11007310953220035120731000000000000000   10300003 00104100000000000000000000003300     
100   35710900070894480000000000058114000000058114002000000010410407310956200035156138110731221216003515   1030000100030000   541110001905777031200000019GAMONE PWINT (KBA)     YGN           MMR11007310956200035150731000000000000000   10300003 00104100000000000000000000011623     
100   35710830475682160000000000003800000000003800002000000010410407311152140046126833510731221218004612   1030000100030000   541110001907777031200000019GAMONE PWINT (KBA)     YGN           MMR11007311152140046120731000000000000000   10300003 00104100000000000000000000000760     
100   62346600166069290000000000014800000000014800002000000010410407310741540020475132470731221214002047   1030000100030000   541110001915777031200000019GAMONE PWINT (KBA)     YGN           MMR11007310741540020470731000000000000000   10300005 00104100000000000000000000002960     
100   35710500381423760000000000047900000000047900002000000010410407310810370025950749560731221214002595   1030000100030000   541120003106777031200000031GAMONE PWINT (BKLZ)    YGN           MMR11007310810370025950731000000000000000   10300005 00104100000000000000000000009580     
100   35710500341436750000000000035250000000035250002000000010410407311030030026138373210731221217002613   1030000100030000   541120003117777031200000031GAMONE PWINT (BKLZ)    YGN           MMR11007311030030026130731000000000000000   10300005 00104100000000000000000000007050     
100   35710500116325420000000000018360000000018360002000000010410407311100040027063193760731221217002706   1030000100030000   541110001903777031200000019GAMONE PWINT (KBA)     YGN           MMR11007311100040027060731000000000000000   10300005 00104100000000000000000000003672     
100   9503051025669900000000000001740000000001740000200000001041040801123409000582DXXBKX0801221319000582   1030000100030000   541120003012777031200000030GAMONE PWINT (TGZ)     YGN           MMR11008011234090005820801000000000000000   10300002 00104100000000000000000000003480     
100   9503051024304509000000000000525000000000525000200000001041040801074412000864DEWVMY0801221314000864   1030000100030000   541120003005777031200000030GAMONE PWINT (TGZ)     YGN           MMR11008010744120008640801000000000000000   10300002 00104100000000000000000000001050     
100   35710830576423230000000000069600000000069600002000000010410408010326170007892437810801221309000789   1030000100030000   541120003111777031200000031GAMONE PWINT (BKLZ)    YGN           MMR11008010326170007890801000000000000000   10300003 00104100000000000000000000013920     
100   62346600111879330000000000013200000000013200002000000010410408011128260008665033620801221317000866   1030000100030000   541120003005777031200000030GAMONE PWINT (TGZ)     YGN           MMR11008011128260008660801000000000000000   10300005 00104100000000000000000000002640     
100   9503051886907787000000000001950000000001950000200000001041040801070157000575GELKPS0801221313000575   1030000100030000   541120003012777031200000030GAMONE PWINT (TGZ)     YGN           MMR11008010701570005750801000000000000000   10300002 00104100000000000000000000003900     
100   9503051892893104000000000002280000000002280000200000001041040801114204000546SVLCRG0801221318000546   1030000100030000   541120003013777031200000030GAMONE PWINT (TGZ)     YGN           MMR11008011142040005460801000000000000000   10300002 00104100000000000000000000004560     
100   9503051893355087000000000001650000000001650000200000001041040801052219000790TN9YRI0801221311000790   1030000100030000   541120003111777031200000031GAMONE PWINT (BKLZ)    YGN           MMR11008010522190007900801000000000000000   10300002 00104100000000000000000000003300     
100   9503054000482547000000000000350000000000350000200000001041040801061915001062VMGMJL0801221312001062   1030000100030000   541120003104777031200000031GAMONE PWINT (BKLZ)    YGN           MMR11008010619150010620801000000000000000   10300002 00104100000000000000000000000700     
100   62443000165202870000000000012700000000012700002000000010410407310845180020494179260731221215002049   1030000100030000   541110001915777031200000019GAMONE PWINT (KBA)     YGN           MMR11007310845180020490731000000000000000   10300005 00104100000000000000000000004445     
100   35710500125590660000000000004900000000004900002000000010410407310610570020416334030731221212002041   1030000100030000   541110001915777031200000019GAMONE PWINT (KBA)     YGN           MMR11007310610570020410731000000000000000   10300005 00104100000000000000000000000980     
100   62346600162890150000000000051210000000051210002000000010410407310613050026942128650731221212002694   1030000100030000   541110001903777031200000019GAMONE PWINT (KBA)     YGN           MMR11007310613050026940731000000000000000   10300005 00104100000000000000000000010242     
100   35710950564297000000000000032457000000032457002000000010410407311116150027086617610731221217002708   1030000100030000   541110001903777031200000019GAMONE PWINT (KBA)     YGN           MMR11007311116150027080731000000000000000   10300003 00104100000000000000000000006492     
100   62346600181541180000000000073500000000073500002000000010410407311050300035170563850731221217003517   1030000100030000   541110001905777031200000019GAMONE PWINT (KBA)     YGN           MMR11007311050300035170731000000000000000   10300005 00104100000000000000000000014700     
100   35710830329125850000000000036700000000036700002000000010410407310510100020064421200731221211002006   1030000100030000   541110001920777031200000019GAMONE PWINT (KBA)     YGN           MMR11007310510100020060731000000000000000   10300003 00104100000000000000000000007340     
100   35710830629325520000000000092900000000092900002000000010410407311118260025996630710731221217002599   1030000100030000   541120003106777031200000031GAMONE PWINT (BKLZ)    YGN           MMR11007311118260025990731000000000000000   10300003 00104100000000000000000000018580     
100   35710830629325520000000000042100000000042100002000000010410407311048320026186451410731221217002618   1030000100030000   541120003117777031200000031GAMONE PWINT (BKLZ)    YGN           MMR11007311048320026180731000000000000000   10300003 00104100000000000000000000008420     
100   62622000235006690000000000085600000000085600002000000010410408010944220010683304630801221316001068   1030000100030000   541120003104777031200000031GAMONE PWINT (BKLZ)    YGN           MMR11008010944220010680801000000000000000   10300006 00104100000000000000000000017120     
100   9503051025744919000000000000370000000000370000200000001041040801104603001070VK2EB30801221317001070   1030000100030000   541120003104777031200000031GAMONE PWINT (BKLZ)    YGN           MMR11008011046030010700801000000000000000   10300002 00104100000000000000000000000740     
100   9503051897627960000000000000650000000000650000200000001041040801064639000594BJ85PK0801221313000594   1030000100030000   541120003001777031200000030GAMONE PWINT (TGZ)     YGN           MMR11008010646390005940801000000000000000   10300002 00104100000000000000000000001300     
100   62921400082216480000000000008500000000008500002000000010410408010815100003112222220801221314000311   1030000100030000   541120003114777031200000031GAMONE PWINT (BKLZ)    YGN           MMR11008010815100003110801000000000000000   10300009 00104100000000000000000000001700     
100   35710500164765640000000000020000000000020000002000000010410408010829500007928897840801221314000792   1030000100030000   541120003111777031200000031GAMONE PWINT (BKLZ)    YGN           MMR11008010829500007920801000000000000000   10300005 00104100000000000000000000004000     
100   35710830371305060000000000032400000000032400002000000010410408011022000007934932220801221316000793   1030000100030000   541120003111777031200000031GAMONE PWINT (BKLZ)    YGN           MMR11008011022000007930801000000000000000   10300003 00104100000000000000000000006480     
100   35710500144656010000000000004000000000004000002000000010410408011311410010730916870801221319001073   1030000100030000   541120003104777031200000031GAMONE PWINT (BKLZ)    YGN           MMR11008011311410010730801000000000000000   10300005 00104100000000000000000000000800     
100   62622000606864620000000000012794000000012794002000000010410408010509000008613285290801221311000861   1030000100030000   541120003005777031200000030GAMONE PWINT (TGZ)     YGN           MMR11008010509000008610801000000000000000   10300006 00104100000000000000000000002559     
100   35710500115094500000000000032200000000032200002000000010410407311213540026207226590731221218002620   1030000100030000   541120003117777031200000031GAMONE PWINT (BKLZ)    YGN           MMR11007311213540026200731000000000000000   10300005 00104100000000000000000000006440     
100   35710500123883670000000000055600000000055600002000000010410407310704180026979169780731221213002697   1030000100030000   541110001903777031200000019GAMONE PWINT (KBA)     YGN           MMR11007310704180026970731000000000000000   10300005 00104100000000000000000000011120     
100   35710500124797370000000000005200000000005200002000000010410407310939480020513353520731221216002051   1030000100030000   541110001915777031200000019GAMONE PWINT (KBA)     YGN           MMR11007310939480020510731000000000000000   10300005 00104100000000000000000000001040     
100   950305102615237700000000000056000000000056000020000000104104073112065500206397XZLC0731221218002063   1030000100030000   541110001915777031200000019GAMONE PWINT (KBA)     YGN           MMR11007311206550020630731000000000000000   10300002 00104100000000000000000000001120     
100   35710830248885040000000000008100000000008100002000000010410407310837030020315662410731221215002031   1030000100030000   541110001920777031200000019GAMONE PWINT (KBA)     YGN           MMR11007310837030020310731000000000000000   10300003 00104100000000000000000000001620     
100   35710500333612860000000000075300000000075300002000000010410407311252490035227553190731221219003522   1030000100030000   541110001905777031200000019GAMONE PWINT (KBA)     YGN           MMR11007311252490035220731000000000000000   10300005 00104100000000000000000000015060     
100   35710500360897850000000000004250000000004250002000000010410407310758320045858548200731221214004585   1030000100030000   541110001907777031200000019GAMONE PWINT (KBA)     YGN           MMR11007310758320045850731000000000000000   10300005 00104100000000000000000000000850     
100   35710830376367910000000000004147000000004147002000000010410407310617470017494826810731221212001749   1030000100030000   581250000001777031200000005AVENUE J COFFEE SHOP   YGN           MMR11007310617470017490731000000000000000   10300003 00104100000000000000000000001410     
100   62622000235006690000000000015550000000015550002000000010410408010923460003133286280801221315000313   1030000100030000   541120003114777031200000031GAMONE PWINT (BKLZ)    YGN           MMR11008010923460003130801000000000000000   10300006 00104100000000000000000000003110     
100   35710900388973140000000000008900000000008900002000000010410408011057520005795147410801221317000579   1030000100030000   541120003012777031200000030GAMONE PWINT (TGZ)     YGN           MMR11008011057520005790801000000000000000   10300003 00104100000000000000000000001780     
100   9503190001817115000000000003800000000003800000200000001041040801061529000542OE86A60801221312000542   1030000100030000   541120003013777031200000030GAMONE PWINT (TGZ)     YGN           MMR11008010615290005420801000000000000000   10300014 00104100000000000000000000007600     
100   35710500381711510000000000013350000000013350002000000010410408011031000005974810630801221317000597   1030000100030000   541120003001777031200000030GAMONE PWINT (TGZ)     YGN           MMR11008011031000005970801000000000000000   10300005 00104100000000000000000000002670     
100   9503051889521726000000000001245000000001245000200000001041040801034038000859LGYBYO0801221310000859   1030000100030000   541120003005777031200000030GAMONE PWINT (TGZ)     YGN           MMR11008010340380008590801000000000000000   10300002 00104100000000000000000000002490     
100   35710500384044870000000000005088000000005088002000000010410408010351270008606194510801221310000860   1030000100030000   541120003005777031200000030GAMONE PWINT (TGZ)     YGN           MMR11008010351270008600801000000000000000   10300005 00104100000000000000000000001018     
100   62622000226252440000000000002401000000002401002000000010410408010517530008622450140801221311000862   1030000100030000   541120003005777031200000030GAMONE PWINT (TGZ)     YGN           MMR11008010517530008620801000000000000000   10300006 00104100000000000000000000000480     
100   9503051889660037000000000002807100000002807100200000001041040801115950000314MGH2DO0801221318000314   1030000100030000   541120003114777031200000031GAMONE PWINT (BKLZ)    YGN           MMR11008011159500003140801000000000000000   10300002 00104100000000000000000000005614     
100   35710950526509110000000000038800000000038800002000000010410407311133480027126722910731221218002712   1030000100030000   541110001903777031200000019GAMONE PWINT (KBA)     YGN           MMR11007311133480027120731000000000000000   10300003 00104100000000000000000000007760     
100   35710500386024940000000000078000000000078000002000000010410407310822230045918763130731221214004591   1030000100030000   541110001907777031200000019GAMONE PWINT (KBA)     YGN           MMR11007310822230045910731000000000000000   10300005 00104100000000000000000000015600     
100   35710830136318240000000000100000000000100000002000000010410407310926490045965961010731221215004596   1030000100030000   541110001907777031200000019GAMONE PWINT (KBA)     YGN           MMR11007310926490045960731000000000000000   10300003 00104100000000000000000000020000     
100   9503190006917779000000000001259500000001259500200000001041040731063114001750WNHZ320731221213001750   1030000100030000   581250000001777031200000005AVENUE J COFFEE SHOP   YGN           MMR11007310631140017500731000000000000000   10300014 00104100000000000000000000004282     
100   62346600163074780000000000010230000000010230002000000010410407311023450017511387230731221216001751   1030000100030000   581250000001777031200000005AVENUE J COFFEE SHOP   YGN           MMR11007311023450017510731000000000000000   10300005 00104100000000000000000000003478     
100   35710500335739140000000000089080000000089080002000000010410407310307140019938737460731221209001993   1030000100030000   541160000001777031200000006MK FASHION             YGN           MMR11007310307140019930731000000000000000   10300005 00104100000000000000000000017816     
100   9503051886430434000000000006170000000006170000200000001041040731075329001277VLUCTN0731221214001277   1030000100030000   541120003008777031200000030GAMONE PWINT (TGZ)     YGN           MMR11007310753290012770731000000000000000   10300002 00104100000000000000000000012340     
100   62441900102717590000000000029500000000029500002000000010410407310645270020435807580731221213002043   1030000100030000   541110001915777031200000019GAMONE PWINT (KBA)     YGN           MMR11007310645270020430731000000000000000   10300003 00104100000000000000000000010325     
100   35710500381711510000000000011400000000011400002000000010410408011036410005986493060801221317000598   1030000100030000   541120003001777031200000030GAMONE PWINT (TGZ)     YGN           MMR11008011036410005980801000000000000000   10300005 00104100000000000000000000002280     
100   62622000540998620000000000006000000000006000002000000010410408010730410008633304300801221314000863   1030000100030000   541120003005777031200000030GAMONE PWINT (TGZ)     YGN           MMR11008010730410008630801000000000000000   10300006 00104100000000000000000000001200     
100   35710830826620720000000000012650000000012650002000000010410407311023250005926300610731221216000592   1030000100030000   541120003001777031200000030GAMONE PWINT (TGZ)     YGN           MMR11007311023250005920731000000000000000   10300003 00104100000000000000000000002530     
100   9503051891195048000000000000790000000000790000200000001041040731085304001280HLPE3H0731221215001280   1030000100030000   541120003008777031200000030GAMONE PWINT (TGZ)     YGN           MMR11007310853040012800731000000000000000   10300002 00104100000000000000000000001580     
100   95030800015976780000000000028700000000028700002000000010410407310557230008554704410731221212000855   1030000100030000   541120003005777031200000030GAMONE PWINT (TGZ)     YGN           MMR11007310557230008550731000000000000000   10300003 00104100000000000000000000005740     
100   62343301015828030000000000103400000000103400002000000010410407310833560000308039700731221215000030   1030000100030000   581210001201777031200000012L OPERA RESTAURANT YGN YGN           MMR11007310833560000300731000000000000000   10300004 00104100000000000000000000035156     
100   35710500305579440000000000017000000000017000002000000010410407311159140004669771410731221218000466   1030000100030000   541110001917777031200000019GAMONE PWINT (KBA)     YGN           MMR11007311159140004660731000000000000000   10300005 00104100000000000000000000003400     
100   9503051025479557000000000000280000000000280000200000001041040731035106000853EXKXNC0731221210000853   1030000100030000   541120003005777031200000030GAMONE PWINT (TGZ)     YGN           MMR11007310351060008530731000000000000000   10300002 00104100000000000000000000000560     
100   35710830596896600000000000032900000000032900002000000010410407311208160017526929800731221218001752   1030000100030000   581250000001777031200000005AVENUE J COFFEE SHOP   YGN           MMR11007311208160017520731000000000000000   10300003 00104100000000000000000000011186     
100   35710500334733960000000000014500000000014500002000000010410407310755450020174274760731221214002017   1030000100030000   541110001920777031200000019GAMONE PWINT (KBA)     YGN           MMR11007310755450020170731000000000000000   10300005 00104100000000000000000000002900     
100   9503190006433371000000000000900000000000900000200000001041040731120015002061DZ1F1L0731221218002061   1030000100030000   541110001915777031200000019GAMONE PWINT (KBA)     YGN           MMR11007311200150020610731000000000000000   10300014 00104100000000000000000000001800     
100   95030510232933490000000000029500000000029500002000000010410407310630560034944GYWLP0731221213003494   1030000100030000   541110001905777031200000019GAMONE PWINT (KBA)     YGN           MMR11007310630560034940731000000000000000   10300002 00104100000000000000000000005900     
100   62343301015898400000000000022950000000022950002000000010410407311010500045981073500731221216004598   1030000100030000   541110001907777031200000019GAMONE PWINT (KBA)     YGN           MMR11007311010500045980731000000000000000   10300004 00104100000000000000000000004590     
100   95030518730043660000000000038000000000038000002000000010410407311016110046002JAHRA0731221216004600   1030000100030000   541110001907777031200000019GAMONE PWINT (KBA)     YGN           MMR11007311016110046000731000000000000000   10300002 00104100000000000000000000007600     
100   95030510212180580000000000018130000000018130002000000010410407310848500035059HKFGD0731221215003505   1030000100030000   541110001905777031200000019GAMONE PWINT (KBA)     YGN           MMR11007310848500035050731000000000000000   10300002 00104100000000000000000000003626     
100   35710830032213960000000000033600000000033600002000000010410407310607080010834763010731221212001083   1030000100030000   541120003103777031200000031GAMONE PWINT (BKLZ)    YGN           MMR11007310607080010830731000000000000000   10300003 00104100000000000000000000006720     
