100   35710500146372410000000000020000000000020000002000000010410408020605270003166919450802221412000316   1030000100030000   541120003114777031200000031GAMONE PWINT (BKLZ)    YGN           MMR11008020605270003160802000000000000000   10300005 00104100000000000000000000004000     
100   35710830486505180000000000014300000000014300002000000010410408020805570003172755910802221414000317   1030000100030000   541120003114777031200000031GAMONE PWINT (BKLZ)    YGN           MMR11008020805570003170802000000000000000   10300003 00104100000000000000000000002860     
100   9503051024191047000000000001420000000001420000200000001041040802125949004669ILECJV0802221419004669   1030000100030000   541110001907777031200000019GAMONE PWINT (KBA)     YGN           MMR11008021259490046690802000000000000000   10300002 00104100000000000000000000002840     
100   35710500314900040000000000019500000000019500002000000010410408010535170026107904730801221312002610   1030000100030000   541120003106777031200000031GAMONE PWINT (BKLZ)    YGN           MMR11008010535170026100801000000000000000   10300005 00104100000000000000000000003900     
100   35710500363859360000000000039900000000039900002000000010410408010642500026139617090801221313002613   1030000100030000   541120003106777031200000031GAMONE PWINT (BKLZ)    YGN           MMR11008010642500026130801000000000000000   10300005 00104100000000000000000000007980     
100   35710830235746000000000000103400000000103400002000000010410408021356070008564856900802221420000856   1030000100030000   581210001201777031200000012L OPERA RESTAURANT YGN YGN           MMR11008021356070008560802000000000000000   10300003 00104100000000000000000000035156     
100   9503051020577082000000000000700000000000700000200000001041040802114210001297BK9M2X0802221418001297   1030000100030000   541120003008777031200000030GAMONE PWINT (TGZ)     YGN           MMR11008021142100012970802000000000000000   10300002 00104100000000000000000000001400     
100   35710830234217940000000000007200000000007200002000000010410408021143270020604060820802221418002060   1030000100030000   541110001920777031200000019GAMONE PWINT (KBA)     YGN           MMR11008021143270020600802000000000000000   10300003 00104100000000000000000000001440     
100   35710500304333020000000000012600000000012600002000000010410408020323360026216200520802221409002621   1030000100030000   541120003106777031200000031GAMONE PWINT (BKLZ)    YGN           MMR11008020323360026210802000000000000000   10300005 00104100000000000000000000002520     
100   9503051019587712000000000001800000000001800000200000001041040802111607002748VTPVLX0802221417002748   1030000100030000   541110001903777031200000019GAMONE PWINT (KBA)     YGN           MMR11008021116070027480802000000000000000   10300002 00104100000000000000000000003600     
100   9503051026142618000000000002100000000002100000200000001041040802062728000577TIG33Z0802221412000577   1030000100030000   541120003105777031200000031GAMONE PWINT (BKLZ)    YGN           MMR11008020627280005770802000000000000000   10300002 00104100000000000000000000004200     
100   9503051024814275000000000002200000000002200000200000001041040802095554000869BUGFPA0802221416000869   1030000100030000   541120003005777031200000030GAMONE PWINT (TGZ)     YGN           MMR11008020955540008690802000000000000000   10300002 00104100000000000000000000004400     
100   35710830134062270000000000028000000000028000002000000010410408020739400007962598110802221414000796   1030000100030000   541120003111777031200000031GAMONE PWINT (BKLZ)    YGN           MMR11008020739400007960802000000000000000   10300003 00104100000000000000000000005600     
100   35710830091129870000000000022000000000022000002000000010410408020816560007972821710802221414000797   1030000100030000   541120003111777031200000031GAMONE PWINT (BKLZ)    YGN           MMR11008020816560007970802000000000000000   10300003 00104100000000000000000000004400     
100   95030510255983720000000000369900000000369900002000000010410408021413420008586QRFIS0802221420000858   1030000100030000   581210001201777031200000012L OPERA RESTAURANT YGN YGN           MMR11008021413420008580802000000000000000   10300002 00104100000000000000000000125766     
100   35710950032886700000000000012000000000012000002000000010410408021200390013004164110802221418001300   1030000100030000   541120003008777031200000030GAMONE PWINT (TGZ)     YGN           MMR11008021200390013000802000000000000000   10300003 00104100000000000000000000002400     
100   9503051023205384000000000000250000000000250000200000001041040802072135002624LMINEU0802221413002624   1030000100030000   541120003117777031200000031GAMONE PWINT (BKLZ)    YGN           MMR11008020721350026240802000000000000000   10300002 00104100000000000000000000000500     
100   95030510232053840000000000005000000000005000002000000010410408020727550026254AWZOY0802221413002625   1030000100030000   541120003117777031200000031GAMONE PWINT (BKLZ)    YGN           MMR11008020727550026250802000000000000000   10300002 00104100000000000000000000001000     
100   35710500195267040000000000209600000000209600002000000010410408020451180035602344410802221411003560   1030000100030000   541110001905777031200000019GAMONE PWINT (KBA)     YGN           MMR11008020451180035600802000000000000000   10300005 00104100000000000000000000041920     
100   35710500313358520000000000010388000000010388002000000010410408021042150008706391580802221417000870   1030000100030000   541120003005777031200000030GAMONE PWINT (TGZ)     YGN           MMR11008021042150008700802000000000000000   10300005 00104100000000000000000000002078     
100   35710500355039010000000000003600000000003600002000000010410408021210040008711764080802221418000871   1030000100030000   541120003005777031200000030GAMONE PWINT (TGZ)     YGN           MMR11008021210040008710802000000000000000   10300005 00104100000000000000000000000720     
100   95030518925704700000000000013500000000013500002000000010410408021029060007980XOMZU0802221416000798   1030000100030000   541120003111777031200000031GAMONE PWINT (BKLZ)    YGN           MMR11008021029060007980802000000000000000   10300002 00104100000000000000000000002700     
100   9503054000553875000000000002000000000002000000200000001041040802062619000575KVJSRT0802221412000575   1030000100030000   541120003105777031200000031GAMONE PWINT (BKLZ)    YGN           MMR11008020626190005750802000000000000000   10300002 00104100000000000000000000004000     
100   9503051892199494000000000002925000000002925000200000001041040802120632001302GKDQ4C0802221418001302   1030000100030000   541120003008777031200000030GAMONE PWINT (TGZ)     YGN           MMR11008021206320013020802000000000000000   10300002 00104100000000000000000000005850     
100   35711450001720290000000000025000000000025000002000000010410408021025530026281159550802221416002628   1030000100030000   541120003117777031200000031GAMONE PWINT (BKLZ)    YGN           MMR11008021025530026280802000000000000000   10200001 00104100000000000000000000005000     
100   35710500195267040000000000067900000000067900002000000010410408020453330035628588770802221411003562   1030000100030000   541110001905777031200000019GAMONE PWINT (KBA)     YGN           MMR11008020453330035620802000000000000000   10300005 00104100000000000000000000013580     
100   35710500365884890000000000001500000000001500002000000010410408020425180046523713220802221410004652   1030000100030000   541110001907777031200000019GAMONE PWINT (KBA)     YGN           MMR11008020425180046520802000000000000000   10300005 00104100000000000000000000000300     
100   35710500364902980000000000026400000000026400002000000010410408020823430004854520830802221414000485   1030000100030000   541120000011777031200000002ZAW TI KA THINKAN TIKE YGN           MMR11008020823430004850802000000000000000   10300005 00104100000000000000000000005280     
100   9503051893074548000000000001280000000001280000200000001041040802031603001076YIMK9A0802221409001076   1030000100030000   541120003104777031200000031GAMONE PWINT (BKLZ)    YGN           MMR11008020316030010760802000000000000000   10300002 00104100000000000000000000002560     
100   9503051026648127000000000000825000000000825000200000001041040802043034001079ISFOJD0802221411001079   1030000100030000   541120003104777031200000031GAMONE PWINT (BKLZ)    YGN           MMR11008020430340010790802000000000000000   10300002 00104100000000000000000000001650     
100   9503051886903935000000000008660000000008660000200000001041040802082110000601SF5LQK0802221414000601   1030000100030000   541120003001777031200000030GAMONE PWINT (TGZ)     YGN           MMR11008020821100006010802000000000000000   10300002 00104100000000000000000000017320     
100   9503051026218160000000000001170000000001170000200000001041040802122745002634OMZTOK0802221418002634   1030000100030000   541120003106777031200000031GAMONE PWINT (BKLZ)    YGN           MMR11008021227450026340802000000000000000   10300002 00104100000000000000000000002340     
100   35710500195267040000000000040800000000040800002000000010410408020425290027360748640802221410002736   1030000100030000   541110001903777031200000019GAMONE PWINT (KBA)     YGN           MMR11008020425290027360802000000000000000   10300005 00104100000000000000000000008160     
100   62622000052361180000000000005700000000005700002000000010410408020533290046543306000802221412004654   1030000100030000   541110001907777031200000019GAMONE PWINT (KBA)     YGN           MMR11008020533290046540802000000000000000   10300006 00104100000000000000000000001140     
100   35710500355797600000000000001050000000001050002000000010410408020638110046560073740802221413004656   1030000100030000   541110001907777031200000019GAMONE PWINT (KBA)     YGN           MMR11008020638110046560802000000000000000   10300005 00104100000000000000000000000210     
100   9503051886988464000000000001600000000001600000200000001041040802085410004658H7GZ4R0802221415004658   1030000100030000   541110001907777031200000019GAMONE PWINT (KBA)     YGN           MMR11008020854100046580802000000000000000   10300002 00104100000000000000000000003200     
100   9503051026017927000000000005390000000005390000200000001041040802050000003566IIUYAJ0802221411003566   1030000100030000   541110001905777031200000019GAMONE PWINT (KBA)     YGN           MMR11008020500000035660802000000000000000   10300002 00104100000000000000000000010780     
100   9503051023975358000000000007100000000007100000200000001041040802102132004660WVMLXO0802221416004660   1030000100030000   541110001907777031200000019GAMONE PWINT (KBA)     YGN           MMR11008021021320046600802000000000000000   10300002 00104100000000000000000000014200     
100   9503051019587712000000000001405000000001405000200000001041040802110029004662DQD6IM0802221417004662   1030000100030000   541110001907777031200000019GAMONE PWINT (KBA)     YGN           MMR11008021100290046620802000000000000000   10300002 00104100000000000000000000002810     
100   9503051025030475000000000000650000000000650000200000001041040802053900001081TUURYK0802221412001081   1030000100030000   541120003104777031200000031GAMONE PWINT (BKLZ)    YGN           MMR11008020539000010810802000000000000000   10300002 00104100000000000000000000001300     
100   35710830562257650000000000022000000000022000002000000010410408020949280010823377010802221416001082   1030000100030000   541120003104777031200000031GAMONE PWINT (BKLZ)    YGN           MMR11008020949280010820802000000000000000   10300003 00104100000000000000000000004400     
100   9503051019587712000000000002080000000002080000200000001041040802110907002744NJNDTV0802221417002744   1030000100030000   541110001903777031200000019GAMONE PWINT (KBA)     YGN           MMR11008021109070027440802000000000000000   10300002 00104100000000000000000000004160     
100   62921400063151030000000000082800000000082800002000000010410408020850470027382222220802221415002738   1030000100030000   541110001903777031200000019GAMONE PWINT (KBA)     YGN           MMR11008020850470027380802000000000000000   10300009 00104100000000000000000000016560     
100   95030800006011330000000000342000000000342000002000000010410408021201190046654168110802221418004665   1030000100030000   541110001907777031200000019GAMONE PWINT (KBA)     YGN           MMR11008021201190046650802000000000000000   10300003 00104100000000000000000000068400     
100   35710500183513510000000000018000000000018000002000000010410408021219290046679644750802221418004667   1030000100030000   541110001907777031200000019GAMONE PWINT (KBA)     YGN           MMR11008021219290046670802000000000000000   10300005 00104100000000000000000000003600     
100   35710500323999310000000000590920000000590920002000000010410408020631000020012080390802221413002001   1030000100030000   541160000001777031200000006MK FASHION             YGN           MMR11008020631000020010802000000000000000   10300005 00104100000000000000000000118184     
100   35710500312538080000000000254320000000254320002000000010410408021051140020035691690802221417002003   1030000100030000   541160000001777031200000006MK FASHION             YGN           MMR11008021051140020030802000000000000000   10300005 00104100000000000000000000050864     
100   9503051891050185000000000004290000000004290000200000001041040802102738003570XJFCPR0802221416003570   1030000100030000   541110001905777031200000019GAMONE PWINT (KBA)     YGN           MMR11008021027380035700802000000000000000   10300002 00104100000000000000000000008580     
100   9503051873876672000000000001000000000001000000200000001041040802093128001295WHX1G40802221416001295   1030000100030000   541120003008777031200000030GAMONE PWINT (TGZ)     YGN           MMR11008020931280012950802000000000000000   10300002 00104100000000000000000000002000     
100   9503051020159378000000000005760000000005760000200000001041040802111148002746FAP5HE0802221417002746   1030000100030000   541110001903777031200000019GAMONE PWINT (KBA)     YGN           MMR11008021111480027460802000000000000000   10300002 00104100000000000000000000011520     
100   35710830927173200000000000223300000000223300002000000010410408020304390000430948310802221409000043   1030000100030000   701110900010777030900000008HOTEL 101              NPT           MMR11008020304390000430802000000000000000   10300003 00104100000000000000000000075922     
