100   35710500395394300000000000004410000000004410002000000010410408030935300003208060560803221516000320   1030000100030000   541120003114777031200000031GAMONE PWINT (BKLZ)    YGN           MMR11008030935300003200803000000000000000   10300005 00104100000000000000000000000882     
100   35710500313698440000000000010800000000010800002000000010410408031117330003226551950803221517000322   1030000100030000   541120003114777031200000031GAMONE PWINT (BKLZ)    YGN           MMR11008031117330003220803000000000000000   10300005 00104100000000000000000000002160     
100   62921400060123870000000000007500000000007500002000000010410408031047140003212222220803221517000321   1030000100030000   541120003114777031200000031GAMONE PWINT (BKLZ)    YGN           MMR11008031047140003210803000000000000000   10300009 00104100000000000000000000001500     
100   9503051023495407000000000000744800000000744800200000001041040803102907000589HHKOZN0803221516000589   1030000100030000   541120003012777031200000030GAMONE PWINT (TGZ)     YGN           MMR11008031029070005890803000000000000000   10300002 00104100000000000000000000001490     
100   9503051025755493000000000001710000000001710000200000001041040803093638000587MG7QCP0803221516000587   1030000100030000   541120003012777031200000030GAMONE PWINT (TGZ)     YGN           MMR11008030936380005870803000000000000000   10300002 00104100000000000000000000003420     
100   62441900102191050000000000015500000000015500002000000010410408030801090008006078990803221514000800   1030000100030000   541120003111777031200000031GAMONE PWINT (BKLZ)    YGN           MMR11008030801090008000803000000000000000   10300003 00104100000000000000000000005425     
100   35710830221814310000000000008500000000008500002000000010410408031059460008012438710803221517000801   1030000100030000   541120003111777031200000031GAMONE PWINT (BKLZ)    YGN           MMR11008031059460008010803000000000000000   10300003 00104100000000000000000000001700     
100   95031900070925560000000000303200000000303200002000000010410408031414190008621QSS1V0803221520000862   1030000100030000   581210001201777031200000012L OPERA RESTAURANT YGN YGN           MMR11008031414190008620803000000000000000   10300014 00104100000000000000000000103088     
100   35710500305737270000000000009400000000009400002000000010410408030950210010965709270803221516001096   1030000100030000   541120003104777031200000031GAMONE PWINT (BKLZ)    YGN           MMR11008030950210010960803000000000000000   10300005 00104100000000000000000000001880     
100   35710500395394300000000000010780000000010780002000000010410408031102570010985709050803221517001098   1030000100030000   541120003104777031200000031GAMONE PWINT (BKLZ)    YGN           MMR11008031102570010980803000000000000000   10300005 00104100000000000000000000002156     
100   9503051025631009000000000001025000000001025000200000001041040803043505001085X8DIMF0803221511001085   1030000100030000   541120003104777031200000031GAMONE PWINT (BKLZ)    YGN           MMR11008030435050010850803000000000000000   10300002 00104100000000000000000000002050     
100   9503051884794146000000000000170000000000170000200000001041040803051807001087KMKUSX0803221511001087   1030000100030000   541120003104777031200000031GAMONE PWINT (BKLZ)    YGN           MMR11008030518070010870803000000000000000   10300002 00104100000000000000000000000340     
100   9503051024321479000000000000370000000000370000200000001041040803070532001092PRKGRS0803221513001092   1030000100030000   541120003104777031200000031GAMONE PWINT (BKLZ)    YGN           MMR11008030705320010920803000000000000000   10300002 00104100000000000000000000000740     
100   950305102579780000000000000110000000000110000020000000104104080305583900109083M0QQ0803221512001090   1030000100030000   541120003104777031200000031GAMONE PWINT (BKLZ)    YGN           MMR11008030558390010900803000000000000000   10300002 00104100000000000000000000002200     
100   9503051021478280000000000000860000000000860000200000001041040803074607001094WX4HRS0803221514001094   1030000100030000   541120003104777031200000031GAMONE PWINT (BKLZ)    YGN           MMR11008030746070010940803000000000000000   10300002 00104100000000000000000000001720     
100   9503051024860997000000000004500000000004500000200000001041040803042040002630ILT5RO0803221510002630   1030000100030000   541120003117777031200000031GAMONE PWINT (BKLZ)    YGN           MMR11008030420400026300803000000000000000   10300002 00104100000000000000000000009000     
100   9503051894179858000000000004475000000004475000200000001041040803063813002631TP9LA60803221513002631   1030000100030000   541120003117777031200000031GAMONE PWINT (BKLZ)    YGN           MMR11008030638130026310803000000000000000   10300002 00104100000000000000000000008950     
100   95030518881107110000000000027600000000027600002000000010410408030705550026326T39SE0803221513002632   1030000100030000   541120003117777031200000031GAMONE PWINT (BKLZ)    YGN           MMR11008030705550026320803000000000000000   10300002 00104100000000000000000000005520     
100   9503051024466761000000000003790000000003790000200000001041040803071129002633BKDVAR0803221513002633   1030000100030000   541120003117777031200000031GAMONE PWINT (BKLZ)    YGN           MMR11008030711290026330803000000000000000   10300002 00104100000000000000000000007580     
100   9503051024225431000000000001450000000001450000200000001041040803102534002634GP8HLT0803221516002634   1030000100030000   541120003117777031200000031GAMONE PWINT (BKLZ)    YGN           MMR11008031025340026340803000000000000000   10300002 00104100000000000000000000002900     
100   9503051025577467000000000012000000000012000000200000001041040803091217001313PLI5WB0803221515001313   1030000100030000   541120003008777031200000030GAMONE PWINT (TGZ)     YGN           MMR11008030912170013130803000000000000000   10300002 00104100000000000000000000024000     
100   9503051887151823000000000012452800000012452800200000001041040803033539002007X7IML90803221510002007   1030000100030000   541160000001777031200000006MK FASHION             YGN           MMR11008030335390020070803000000000000000   10300002 00104100000000000000000000024906     
100   9503051025051604000000000015261000000015261000200000001041040803060416002010M2V2PV0803221512002010   1030000100030000   541160000001777031200000006MK FASHION             YGN           MMR11008030604160020100803000000000000000   10300002 00104100000000000000000000030522     
