100   35710830503000930000000000017376000000017376002000000010410408070713290021185641010807221913002118   1030000100030000   541110001915777031200000019GAMONE PWINT (KBA)     YGN           MMR11008070713290021180807000000000000000   10300003 00104100000000000000000000003475     
100   95030800044713840000000000021000000000021000002000000010410408071028020026926808410807221916002692   1030000100030000   541120003106777031200000031GAMONE PWINT (BKLZ)    YGN           MMR11008071028020026920807000000000000000   10300003 00104100000000000000000000004200     
100   9503051026541165000000000006500000000006500000200000001041040807075548003624Z59OUI0807221914003624   1030000100030000   541110001905777031200000019GAMONE PWINT (KBA)     YGN           MMR11008070755480036240807000000000000000   10300002 00104100000000000000000000013000     
100   95030510252007480000000000038475000000038475002000000010410408070626570020356FDAV00807221912002035   1030000100030000   541160000001777031200000006MK FASHION             YGN           MMR11008070626570020350807000000000000000   10300002 00104100000000000000000000007695     
100   62622000973998730000000000010800000000010800002000000010410408070955370028534473350807221916002853   1030000100030000   541110001903777031200000019GAMONE PWINT (KBA)     YGN           MMR11008070955370028530807000000000000000   10300006 00104100000000000000000000002160     
100   62622000605703020000000000032800000000032800002000000010410408071135330028574911170807221918002857   1030000100030000   541110001903777031200000019GAMONE PWINT (KBA)     YGN           MMR11008071135330028570807000000000000000   10300006 00104100000000000000000000006560     
100   35710851389956200000000000019000000000019000002000000010410408070558150026815189610807221912002681   1030000100030000   541120003106777031200000031GAMONE PWINT (BKLZ)    YGN           MMR11008070558150026810807000000000000000   10300003 00104100000000000000000000003800     
100   35710830169415190000000000121500000000121500002000000010410408070812210026815994310807221914002681   1030000100030000   541120003117777031200000031GAMONE PWINT (BKLZ)    YGN           MMR11008070812210026810807000000000000000   10300003 00104100000000000000000000024300     
100   35710830075169570000000000034900000000034900002000000010410408071150220026957302310807221918002695   1030000100030000   541120003106777031200000031GAMONE PWINT (BKLZ)    YGN           MMR11008071150220026950807000000000000000   10300003 00104100000000000000000000006980     
100   9503051872707167000000000002180000000002180000200000001041040807063315002822XXNQTG0807221913002822   1030000100030000   541110001903777031200000019GAMONE PWINT (KBA)     YGN           MMR11008070633150028220807000000000000000   10300002 00104100000000000000000000004360     
100   35710500304226100000000000040020000000040020002000000010410408070734310028256238170807221914002825   1030000100030000   541110001903777031200000019GAMONE PWINT (KBA)     YGN           MMR11008070734310028250807000000000000000   10300005 00104100000000000000000000008004     
100   9503051026256921000000000001920000000001920000200000001041040807103542002144ZLXD0I0807221917002144   1030000100030000   541110001915777031200000019GAMONE PWINT (KBA)     YGN           MMR11008071035420021440807000000000000000   10300002 00104100000000000000000000003840     
100   95030518939031750000000000011800000000011800002000000010410408071039090021461C7LB80807221917002146   1030000100030000   541110001915777031200000019GAMONE PWINT (KBA)     YGN           MMR11008071039090021460807000000000000000   10300002 00104100000000000000000000002360     
100   35710830102449690000000000008500000000008500002000000010410408070821250021306048610807221914002130   1030000100030000   541110001915777031200000019GAMONE PWINT (KBA)     YGN           MMR11008070821250021300807000000000000000   10300003 00104100000000000000000000001700     
100   95030518936604780000000000056400000000056400002000000010410408070656090026835YSEZV0807221913002683   1030000100030000   541120003106777031200000031GAMONE PWINT (BKLZ)    YGN           MMR11008070656090026830807000000000000000   10300002 00104100000000000000000000011280     
100   9503051894387717000000000000217400000000217400200000001041040807075420004759HF4IXS0807221914004759   1030000100030000   541110001907777031200000019GAMONE PWINT (KBA)     YGN           MMR11008070754200047590807000000000000000   10300002 00104100000000000000000000000435     
100   9503051886883517000000000001100000000001100000200000001041040807071448002120DWUZYK0807221913002120   1030000100030000   541110001915777031200000019GAMONE PWINT (KBA)     YGN           MMR11008070714480021200807000000000000000   10300002 00104100000000000000000000002200     
100   35710500101079260000000000031752000000031752002000000010410408070818310036265090550807221914003626   1030000100030000   541110001905777031200000019GAMONE PWINT (KBA)     YGN           MMR11008070818310036260807000000000000000   10300005 00104100000000000000000000006350     
100   9503051023381383000000000005550000000005550000200000001041040807122319002859DCJGJI0807221918002859   1030000100030000   541110001903777031200000019GAMONE PWINT (KBA)     YGN           MMR11008071223190028590807000000000000000   10300002 00104100000000000000000000011100     
100   35710500302931100000000000018000000000018000002000000010410408070600000026823319670807221912002682   1030000100030000   541120003106777031200000031GAMONE PWINT (BKLZ)    YGN           MMR11008070600000026820807000000000000000   10300005 00104100000000000000000000003600     
100   35710500375425920000000000022150000000022150002000000010410408071007110026833432440807221916002683   1030000100030000   541120003117777031200000031GAMONE PWINT (BKLZ)    YGN           MMR11008071007110026830807000000000000000   10300005 00104100000000000000000000004430     
100   9503051024708808000000000003586800000003586800200000001041040807075232004757MHVEOK0807221914004757   1030000100030000   541110001907777031200000019GAMONE PWINT (KBA)     YGN           MMR11008070752320047570807000000000000000   10300002 00104100000000000000000000007174     
100   9503051024708808000000000000117600000000117600200000001041040807080320004761DB3VU90807221914004761   1030000100030000   541110001907777031200000019GAMONE PWINT (KBA)     YGN           MMR11008070803200047610807000000000000000   10300002 00104100000000000000000000000235     
100   62622000431935520000000000026000000000026000002000000010410408070816210047654693100807221914004765   1030000100030000   541110001907777031200000019GAMONE PWINT (KBA)     YGN           MMR11008070816210047650807000000000000000   10300006 00104100000000000000000000005200     
100   9503051026276234000000000000980000000000980000200000001041040807085505004768O4PSPG0807221915004768   1030000100030000   541110001907777031200000019GAMONE PWINT (KBA)     YGN           MMR11008070855050047680807000000000000000   10300002 00104100000000000000000000001960     
100   35710500335133080000000000027048000000027048002000000010410408070943400047732250840807221916004773   1030000100030000   541110001907777031200000019GAMONE PWINT (KBA)     YGN           MMR11008070943400047730807000000000000000   10300005 00104100000000000000000000005410     
100   9503051025696929000000000001440000000001440000200000001041040807114926002112DHOREF0807221918002112   1030000100030000   541110001920777031200000019GAMONE PWINT (KBA)     YGN           MMR11008071149260021120807000000000000000   10300002 00104100000000000000000000002880     
100   35710500344026000000000000011750000000011750002000000010410408060812570003304556410806221814000330   1030000100030000   541120003114777031200000031GAMONE PWINT (BKLZ)    YGN           MMR11008060812570003300806000000000000000   10300005 00104100000000000000000000002350     
100   95030518868608120000000000091000000000091000002000000010410408060935150003257AZWIQ0806221816000325   1030000100030000   541120000006777031200000002ZAW TI KA THINKAN TIKE YGN           MMR11008060935150003250806000000000000000   10300002 00104100000000000000000000018200     
100   9503051026097432000000000001780000000001780000200000001041040806095839000056GT4LVW0806221816000056   1030000100030000   701120003701777031200000037PRINCE HOTEL YANGON    YGN           MMR11008060958390000560806000000000000000   10300002 00104100000000000000000000006052     
100   62346600151129370000000000003550000000003550002000000010410408060911140003336149010806221815000333   1030000100030000   541120003114777031200000031GAMONE PWINT (BKLZ)    YGN           MMR11008060911140003330806000000000000000   10300005 00104100000000000000000000000710     
100   95030800003877660000000000011700000000011700002000000010410408050350290003257143230805221710000325   1030000100030000   541120003114777031200000031GAMONE PWINT (BKLZ)    YGN           MMR11008050350290003250805000000000000000   10300003 00104100000000000000000000002340     
100   9503051891315323000000000000350000000000350000200000001041040805032047000324QSS6RN0805221709000324   1030000100030000   541120003114777031200000031GAMONE PWINT (BKLZ)    YGN           MMR11008050320470003240805000000000000000   10300002 00104100000000000000000000000700     
100   9503051025845450000000000004670000000004670000200000001041040805043202000326BOO3LL0805221711000326   1030000100030000   541120003114777031200000031GAMONE PWINT (BKLZ)    YGN           MMR11008050432020003260805000000000000000   10300002 00104100000000000000000000009340     
100   9503190000692261000000000000320000000000320000200000001041040805055554000328H66GZN0805221712000328   1030000100030000   541120003114777031200000031GAMONE PWINT (BKLZ)    YGN           MMR11008050555540003280805000000000000000   10300014 00104100000000000000000000000640     
100   35710830012979680000000000024900000000024900002000000010410408050814580003298730010805221714000329   1030000100030000   541120003114777031200000031GAMONE PWINT (BKLZ)    YGN           MMR11008050814580003290805000000000000000   10300003 00104100000000000000000000004980     
100   35710500114326870000000000004700000000004700002000000010410408070718180047547321560807221913004754   1030000100030000   541110001907777031200000019GAMONE PWINT (KBA)     YGN           MMR11008070718180047540807000000000000000   10300005 00104100000000000000000000000940     
100   95030518958786640000000000022700000000022700002000000010410408071100120047854EFUMR0807221917004785   1030000100030000   541110001907777031200000019GAMONE PWINT (KBA)     YGN           MMR11008071100120047850807000000000000000   10300002 00104100000000000000000000004540     
100   35710500131966030000000000006200000000006200002000000010410408071000360006217264130807221916000621   1030000100030000   541120003001777031200000030GAMONE PWINT (TGZ)     YGN           MMR11008071000360006210807000000000000000   10300005 00104100000000000000000000001240     
100   62921400029883660000000000070000000000070000002000000010410408070415180004782222220807221910000478   1030000100030000   541110001917777031200000019GAMONE PWINT (KBA)     YGN           MMR11008070415180004780807000000000000000   10300009 00104100000000000000000000014000     
100   9503051026614236000000000001375000000001375000200000001041040807111406000336EKAB6M0807221917000336   1030000100030000   541120003114777031200000031GAMONE PWINT (BKLZ)    YGN           MMR11008071114060003360807000000000000000   10300002 00104100000000000000000000002750     
100   95031900067380840000000000020700000000020700002000000010410408071243320005644I0D6A0807221919000564   1030000100030000   541120003013777031200000030GAMONE PWINT (TGZ)     YGN           MMR11008071243320005640807000000000000000   10300014 00104100000000000000000000004140     
100   9503051892726676000000000001250000000001250000200000001041040807090128000827PKDZGF0807221915000827   1030000100030000   541120003111777031200000031GAMONE PWINT (BKLZ)    YGN           MMR11008070901280008270807000000000000000   10300002 00104100000000000000000000002500     
100   35710830096854460000000000027700000000027700002000000010410408071059360003356997810807221917000335   1030000100030000   541120003114777031200000031GAMONE PWINT (BKLZ)    YGN           MMR11008071059360003350807000000000000000   10300003 00104100000000000000000000005540     
100   35710500344026000000000000023762000000023762002000000010410408070622360008970278070807221912000897   1030000100030000   541120003005777031200000030GAMONE PWINT (TGZ)     YGN           MMR11008070622360008970807000000000000000   10300005 00104100000000000000000000004752     
100   35710500143486580000000000024500000000024500002000000010410408070756420004816770610807221914000481   1030000100030000   541110001917777031200000019GAMONE PWINT (KBA)     YGN           MMR11008070756420004810807000000000000000   10300005 00104100000000000000000000004900     
100   35710830414304960000000000014700000000014700002000000010410408070431050008214666610807221911000821   1030000100030000   541120003111777031200000031GAMONE PWINT (BKLZ)    YGN           MMR11008070431050008210807000000000000000   10300003 00104100000000000000000000002940     
100   35710830364560680000000000028990000000028990002000000010410408070354560005624449800807221910000562   1030000100030000   541120003013777031200000030GAMONE PWINT (TGZ)     YGN           MMR11008070354560005620807000000000000000   10300003 00104100000000000000000000005798     
100   35711410000015810000000000005310000000005310002000000010410408070842480004833417710807221915000483   1030000100030000   541110001917777031200000019GAMONE PWINT (KBA)     YGN           MMR11008070842480004830807000000000000000   10200001 00104100000000000000000000001062     
100   35710500334051410000000000036800000000036800002000000010410408070854400004853297330807221915000485   1030000100030000   541110001917777031200000019GAMONE PWINT (KBA)     YGN           MMR11008070854400004850807000000000000000   10300005 00104100000000000000000000007360     
100   9503051897740623000000000004230000000004230000200000001041040807043322000822OC0EMK0807221911000822   1030000100030000   541120003111777031200000031GAMONE PWINT (BKLZ)    YGN           MMR11008070433220008220807000000000000000   10300002 00104100000000000000000000008460     
100   95031800299423420000000000047500000000047500002000000010410408070634220008236563670807221913000823   1030000100030000   541120003111777031200000031GAMONE PWINT (BKLZ)    YGN           MMR11008070634220008230807000000000000000   10300013 00104100000000000000000000009500     
100   35710830826620720000000000009450000000009450002000000010410408071121540008997131610807221917000899   1030000100030000   541120003005777031200000030GAMONE PWINT (TGZ)     YGN           MMR11008071121540008990807000000000000000   10300003 00104100000000000000000000001890     
100   35710830394911460000000000080400000000080400002000000010410408070904410011336308210807221915001133   1030000100030000   541120003103777031200000031GAMONE PWINT (BKLZ)    YGN           MMR11008070904410011330807000000000000000   10300003 00104100000000000000000000016080     
100   95030540007817810000000000023800000000023800002000000010410408070937250011359J2GVE0807221916001135   1030000100030000   541120003103777031200000031GAMONE PWINT (BKLZ)    YGN           MMR11008070937250011350807000000000000000   10300002 00104100000000000000000000004760     
100   35710830703108900000000000005500000000005500002000000010410408071218550011377473610807221918001137   1030000100030000   541120003103777031200000031GAMONE PWINT (BKLZ)    YGN           MMR11008071218550011370807000000000000000   10300003 00104100000000000000000000001100     
100   9503051022816264000000000000770000000000770000200000001041040807032910001117YUW9EB0807221909001117   1030000100030000   541120003104777031200000031GAMONE PWINT (BKLZ)    YGN           MMR11008070329100011170807000000000000000   10300002 00104100000000000000000000001540     
100   35710500370875150000000000040500000000040500002000000010410408070738520008259847870807221914000825   1030000100030000   541120003111777031200000031GAMONE PWINT (BKLZ)    YGN           MMR11008070738520008250807000000000000000   10300005 00104100000000000000000000008100     
100   35711410000015810000000000014900000000014900002000000010410408070835550021325613590807221915002132   1030000100030000   541110001915777031200000019GAMONE PWINT (KBA)     YGN           MMR11008070835550021320807000000000000000   10200001 00104100000000000000000000002980     
100   95030518943877170000000000006272000000006272002000000010410408070837170036281TVLYD0807221915003628   1030000100030000   541110001905777031200000019GAMONE PWINT (KBA)     YGN           MMR11008070837170036280807000000000000000   10300002 00104100000000000000000000001254     
100   9503051025868585000000000002300000000002300000200000001041040807084001003630OLRURO0807221915003630   1030000100030000   541110001905777031200000019GAMONE PWINT (KBA)     YGN           MMR11008070840010036300807000000000000000   10300002 00104100000000000000000000004600     
100   35710500192507920000000000048314000000048314002000000010410408070911590036332961540807221915003633   1030000100030000   541110001905777031200000019GAMONE PWINT (KBA)     YGN           MMR11008070911590036330807000000000000000   10300005 00104100000000000000000000009663     
100   9503051020604548000000000002665000000002665000200000001041040807091043001120FD0CEX0807221915001120   1030000100030000   541120003104777031200000031GAMONE PWINT (BKLZ)    YGN           MMR11008070910430011200807000000000000000   10300002 00104100000000000000000000005330     
100   62346600170543500000000000010500000000010500002000000010410408070707220021125059610807221913002112   1030000100030000   541110001915777031200000019GAMONE PWINT (KBA)     YGN           MMR11008070707220021120807000000000000000   10300005 00104100000000000000000000002100     
100   9503051887104681000000000001025000000001025000200000001041040807123837002862SYE9VO0807221919002862   1030000100030000   541110001903777031200000019GAMONE PWINT (KBA)     YGN           MMR11008071238370028620807000000000000000   10300002 00104100000000000000000000002050     
100   95031800503187500000000000018500000000018500002000000010410408071030090026849308660807221917002684   1030000100030000   541120003117777031200000031GAMONE PWINT (BKLZ)    YGN           MMR11008071030090026840807000000000000000   10300013 00104100000000000000000000003700     
100   35710830096854460000000000044450000000044450002000000010410408071055150026856971610807221917002685   1030000100030000   541120003117777031200000031GAMONE PWINT (BKLZ)    YGN           MMR11008071055150026850807000000000000000   10300003 00104100000000000000000000008890     
100   9503051025218492000000000007340000000007340000200000001041040807080454002838JF0JC90807221914002838   1030000100030000   541110001903777031200000019GAMONE PWINT (KBA)     YGN           MMR11008070804540028380807000000000000000   10300002 00104100000000000000000000014680     
100   9503051872403643000000000001450000000001450000200000001041040807082125002840E71THU0807221914002840   1030000100030000   541110001903777031200000019GAMONE PWINT (KBA)     YGN           MMR11008070821250028400807000000000000000   10300002 00104100000000000000000000002900     
100   62346600166069290000000000031500000000031500002000000010410408070516370021109438760807221911002110   1030000100030000   541110001915777031200000019GAMONE PWINT (KBA)     YGN           MMR11008070516370021100807000000000000000   10300005 00104100000000000000000000006300     
100   35710830855259790000000000007150000000007150002000000010410408070358360017774471720807221910001777   1030000100030000   581250000001777031200000005AVENUE J COFFEE SHOP   YGN           MMR11008070358360017770807000000000000000   10300003 00104100000000000000000000002431     
100   62622000870632650000000000015700000000015700002000000010410408070910110021354919470807221915002135   1030000100030000   541110001915777031200000019GAMONE PWINT (KBA)     YGN           MMR11008070910110021350807000000000000000   10300006 00104100000000000000000000003140     
100   9503051026779468000000000005750000000005750000200000001041040807101335004775IBJVKN0807221916004775   1030000100030000   541110001907777031200000019GAMONE PWINT (KBA)     YGN           MMR11008071013350047750807000000000000000   10300002 00104100000000000000000000011500     
100   62622000605703020000000000037399000000037399002000000010410408071041550047784473660807221917004778   1030000100030000   541110001907777031200000019GAMONE PWINT (KBA)     YGN           MMR11008071041550047780807000000000000000   10300006 00104100000000000000000000007480     
100   35710500384363230000000000087200000000087200002000000010410408071053110047836291850807221917004783   1030000100030000   541110001907777031200000019GAMONE PWINT (KBA)     YGN           MMR11008071053110047830807000000000000000   10300005 00104100000000000000000000017440     
100   35710830314924800000000000016900000000016900002000000010410408070941580036396531910807221916003639   1030000100030000   541110001905777031200000019GAMONE PWINT (KBA)     YGN           MMR11008070941580036390807000000000000000   10300003 00104100000000000000000000003380     
100   9503190006231627000000000001205000000001205000200000001041040807071042002114QVX12B0807221913002114   1030000100030000   541110001915777031200000019GAMONE PWINT (KBA)     YGN           MMR11008070710420021140807000000000000000   10300014 00104100000000000000000000002410     
100   9503190003655380000000000000720000000000720000200000001041040807091652002106W2S17Q0807221915002106   1030000100030000   541110001920777031200000019GAMONE PWINT (KBA)     YGN           MMR11008070916520021060807000000000000000   10300014 00104100000000000000000000001440     
100   35710500185642190000000000015000000000015000002000000010410408070940150026851326240807221916002685   1030000100030000   541120003106777031200000031GAMONE PWINT (BKLZ)    YGN           MMR11008070940150026850807000000000000000   10300005 00104100000000000000000000003000     
100   62921400018065690000000000023600000000023600002000000010410408071131580026862222220807221918002686   1030000100030000   541120003117777031200000031GAMONE PWINT (BKLZ)    YGN           MMR11008071131580026860807000000000000000   10300009 00104100000000000000000000004720     
100   35711410000015810000000000023800000000023800002000000010410408070851240028433422870807221915002843   1030000100030000   541110001903777031200000019GAMONE PWINT (KBA)     YGN           MMR11008070851240028430807000000000000000   10200001 00104100000000000000000000004760     
100   35710830041627630000000000022800000000022800002000000010410408070914510028456369220807221915002845   1030000100030000   541110001903777031200000019GAMONE PWINT (KBA)     YGN           MMR11008070914510028450807000000000000000   10300003 00104100000000000000000000004560     
100   35710830647474870000000000009700000000009700002000000010410408070422150036124613710807221910003612   1030000100030000   541110001905777031200000019GAMONE PWINT (KBA)     YGN           MMR11008070422150036120807000000000000000   10300003 00104100000000000000000000001940     
100   35710830557972930000000000036800000000036800002000000010410408070617310017785305210807221912001778   1030000100030000   581250000001777031200000005AVENUE J COFFEE SHOP   YGN           MMR11008070617310017780807000000000000000   10300003 00104100000000000000000000012512     
100   35710500351992960000000000022770000000022770002000000010410408070623540017791505070807221912001779   1030000100030000   581250000001777031200000005AVENUE J COFFEE SHOP   YGN           MMR11008070623540017790807000000000000000   10300005 00104100000000000000000000007742     
100   62346600172269660000000000026345000000026345002000000010410408070910010017802324520807221915001780   1030000100030000   581250000001777031200000005AVENUE J COFFEE SHOP   YGN           MMR11008070910010017800807000000000000000   10300005 00104100000000000000000000008957     
100   35710500112221200000000000067300000000067300002000000010410408071224140017813867750807221918001781   1030000100030000   581250000001777031200000005AVENUE J COFFEE SHOP   YGN           MMR11008071224140017810807000000000000000   10300005 00104100000000000000000000022882     
100   95031900053042010000000000069000000000069000002000000010410408070912080021383JC9XL0807221915002138   1030000100030000   541110001915777031200000019GAMONE PWINT (KBA)     YGN           MMR11008070912080021380807000000000000000   10300014 00104100000000000000000000013800     
100   35710500335133080000000000029500000000029500002000000010410408070932170021407402060807221916002140   1030000100030000   541110001915777031200000019GAMONE PWINT (KBA)     YGN           MMR11008070932170021400807000000000000000   10300005 00104100000000000000000000005900     
100   9503051024217438000000000001422000000001422000200000001041040807071119002101W6VKTO0807221913002101   1030000100030000   541110001920777031200000019GAMONE PWINT (KBA)     YGN           MMR11008070711190021010807000000000000000   10300002 00104100000000000000000000002844     
100   35710830132426890000000000013440000000013440002000000010410408070533260026785040810807221912002678   1030000100030000   541120003117777031200000031GAMONE PWINT (BKLZ)    YGN           MMR11008070533260026780807000000000000000   10300003 00104100000000000000000000002688     
100   35710500334721330000000000016000000000016000002000000010410408070803180028366564760807221914002836   1030000100030000   541110001903777031200000019GAMONE PWINT (KBA)     YGN           MMR11008070803180028360807000000000000000   10300005 00104100000000000000000000003200     
100   9503190001839523000000000011520000000011520000200000001041040807075704002833M2MBQQ0807221914002833   1030000100030000   541110001903777031200000019GAMONE PWINT (KBA)     YGN           MMR11008070757040028330807000000000000000   10300014 00104100000000000000000000023040     
100   35710500183116780000000000026250000000026250002000000010410408071117340047879064380807221917004787   1030000100030000   541110001907777031200000019GAMONE PWINT (KBA)     YGN           MMR11008071117340047870807000000000000000   10300005 00104100000000000000000000005250     
100   35650880370003910000000000025800000000025800002000000010410408071218200047910002760807221918004791   1030000100030000   541110001907777031200000019GAMONE PWINT (KBA)     YGN           MMR11008071218200047910807000000000000000   10300005 00104100000000000000000000009030     
100   62622000528065320000000000006174000000006174002000000010410408071220460047944901100807221918004794   1030000100030000   541110001907777031200000019GAMONE PWINT (KBA)     YGN           MMR11008071220460047940807000000000000000   10300006 00104100000000000000000000001235     
100   35710830643218610000000000004800000000004800002000000010410408071233000047977558200807221919004797   1030000100030000   541110001907777031200000019GAMONE PWINT (KBA)     YGN           MMR11008071233000047970807000000000000000   10300003 00104100000000000000000000000960     
100   9503051891847929000000000004500000000004500000200000001041040807075342002124EOZGMA0807221914002124   1030000100030000   541110001915777031200000019GAMONE PWINT (KBA)     YGN           MMR11008070753420021240807000000000000000   10300002 00104100000000000000000000009000     
100   35710500335672880000000000013000000000013000002000000010410408071230240036433030570807221919003643   1030000100030000   541110001905777031200000019GAMONE PWINT (KBA)     YGN           MMR11008071230240036430807000000000000000   10300005 00104100000000000000000000002600     
100   95030800010739930000000000056900000000056900002000000010410408070944470026886548810807221916002688   1030000100030000   541120003106777031200000031GAMONE PWINT (BKLZ)    YGN           MMR11008070944470026880807000000000000000   10300003 00104100000000000000000000011380     
100   9503054000781781000000000002430000000002430000200000001041040807101205002690T9P9IW0807221916002690   1030000100030000   541120003106777031200000031GAMONE PWINT (BKLZ)    YGN           MMR11008071012050026900807000000000000000   10300002 00104100000000000000000000004860     
100   9503051889406860000000000001395000000001395000200000001041040807072326002122KWIRUC0807221913002122   1030000100030000   541110001915777031200000019GAMONE PWINT (KBA)     YGN           MMR11008070723260021220807000000000000000   10300002 00104100000000000000000000002790     
100   9503190001361775000000000002880000000002880000200000001041040807100134002855O4W2Z70807221916002855   1030000100030000   541110001903777031200000019GAMONE PWINT (KBA)     YGN           MMR11008071001340028550807000000000000000   10300014 00104100000000000000000000005760     
100   62444500200722370000000000038100000000038100002000000010410408070654300036205519760807221913003620   1030000100030000   541110001905777031200000019GAMONE PWINT (KBA)     YGN           MMR11008070654300036200807000000000000000   10300002 00104100000000000000000000013335     
100   35710830503000930000000000023300000000023300002000000010410408070734310036225767210807221914003622   1030000100030000   541110001905777031200000019GAMONE PWINT (KBA)     YGN           MMR11008070734310036220807000000000000000   10300003 00104100000000000000000000004660     
100   9503051874175165000000000002990000000002990000200000001041040807094347002851F41N1O0807221916002851   1030000100030000   541110001903777031200000019GAMONE PWINT (KBA)     YGN           MMR11008070943470028510807000000000000000   10300002 00104100000000000000000000005980     
100   9503051872707167000000000002180000000002180000200000001041040807041402002808ZA38XN0807221910002808   1030000100030000   541110001903777031200000019GAMONE PWINT (KBA)     YGN           MMR11008070414020028080807000000000000000   10300002 00104100000000000000000000004360     
100   9503051890912526000000000008220000000008220000200000001041040807070029004748LSB9WO0807221913004748   1030000100030000   541110001907777031200000019GAMONE PWINT (KBA)     YGN           MMR11008070700290047480807000000000000000   10300002 00104100000000000000000000016440     
100   35710500110859490000000000010094000000010094002000000010410408070716270047512180130807221913004751   1030000100030000   541110001907777031200000019GAMONE PWINT (KBA)     YGN           MMR11008070716270047510807000000000000000   10300005 00104100000000000000000000002019     
100   35710500323500250000000000059900000000059900002000000010410408070409060026809215770807221910002680   1030000100030000   541120003106777031200000031GAMONE PWINT (BKLZ)    YGN           MMR11008070409060026800807000000000000000   10300005 00104100000000000000000000011980     
100   35710830818323120000000000016000000000016000002000000010410408070749310008265857210807221914000826   1030000100030000   541120003111777031200000031GAMONE PWINT (BKLZ)    YGN           MMR11008070749310008260807000000000000000   10300003 00104100000000000000000000003200     
100   35710500344226320000000000021250000000021250002000000010410408071027240021428086950807221916002142   1030000100030000   541110001915777031200000019GAMONE PWINT (KBA)     YGN           MMR11008071027240021420807000000000000000   10300005 00104100000000000000000000004250     
