100   9503051873351734000000000001225000000001225000200000001041040805071405004687WFHOXP0805221713004687   1030000100030000   541110001907777031200000019GAMONE PWINT (KBA)     YGN           MMR11008050714050046870805000000000000000   10300002 00104100000000000000000000002450     
100   9503051897764425000000000000650000000000650000200000001041040805073208004693DTYRDK0805221714004693   1030000100030000   541110001907777031200000019GAMONE PWINT (KBA)     YGN           MMR11008050732080046930805000000000000000   10300002 00104100000000000000000000001300     
100   35710500392217570000000000011000000000011000002000000010410408050740140046960509040805221714004696   1030000100030000   541110001907777031200000019GAMONE PWINT (KBA)     YGN           MMR11008050740140046960805000000000000000   10300005 00104100000000000000000000002200     
100   95030510202588080000000000059400000000059400002000000010410408050346070013373YKFPP0805221710001337   1030000100030000   541120003008777031200000030GAMONE PWINT (TGZ)     YGN           MMR11008050346070013370805000000000000000   10300002 00104100000000000000000000011880     
100   62343302004365620000000000024750000000024750002000000010410408050844200017665868450805221715001766   1030000100030000   581250000001777031200000005AVENUE J COFFEE SHOP   YGN           MMR11008050844200017660805000000000000000   10300004 00104100000000000000000000008415     
100   9503051895930986000000000001226500000001226500200000001041040805092810001767UDOREY0805221715001767   1030000100030000   581250000001777031200000005AVENUE J COFFEE SHOP   YGN           MMR11008050928100017670805000000000000000   10300002 00104100000000000000000000004170     
100   35710500385549270000000000004950000000004950002000000010410408051257560017685567680805221719001768   1030000100030000   581250000001777031200000005AVENUE J COFFEE SHOP   YGN           MMR11008051257560017680805000000000000000   10300005 00104100000000000000000000001683     
100   9503051026409553000000000000850000000000850000200000001041040805054811002648LYTQVX0805221712002648   1030000100030000   541120003117777031200000031GAMONE PWINT (BKLZ)    YGN           MMR11008050548110026480805000000000000000   10300002 00104100000000000000000000001700     
100   95030510264095530000000000003150000000003150002000000010410408050644390026521DUZWQ0805221713002652   1030000100030000   541120003117777031200000031GAMONE PWINT (BKLZ)    YGN           MMR11008050644390026520805000000000000000   10300002 00104100000000000000000000000630     
100   95030510219478210000000000010704000000010704002000000010410408051145100006118SDEBQ0805221718000611   1030000100030000   541120003001777031200000030GAMONE PWINT (TGZ)     YGN           MMR11008051145100006110805000000000000000   10300002 00104100000000000000000000002141     
100   35710500334417990000000000014880000000014880002000000010410408051227200008148490890805221718000814   1030000100030000   541120003111777031200000031GAMONE PWINT (BKLZ)    YGN           MMR11008051227200008140805000000000000000   10300005 00104100000000000000000000002976     
100   62441900101191150000000000003950000000003950002000000010410408051251030011089017700805221719001108   1030000100030000   541120003104777031200000031GAMONE PWINT (BKLZ)    YGN           MMR11008051251030011080805000000000000000   10300003 00104100000000000000000000001382     
100   95031100001146940000000000009500000000009500002000000010410408050628000008104466780805221712000810   1030000100030000   541120003111777031200000031GAMONE PWINT (BKLZ)    YGN           MMR11008050628000008100805000000000000000   10300006 00104100000000000000000000001900     
100   35710500323659570000000000020000000000020000002000000010410408050649190008112726260805221713000811   1030000100030000   541120003111777031200000031GAMONE PWINT (BKLZ)    YGN           MMR11008050649190008110805000000000000000   10300005 00104100000000000000000000004000     
100   9503051023557404000000000002450000000002450000200000001041040805081714000812PPVUJR0805221714000812   1030000100030000   541120003111777031200000031GAMONE PWINT (BKLZ)    YGN           MMR11008050817140008120805000000000000000   10300002 00104100000000000000000000004900     
100   9503051026871513000000000001760000000001760000200000001041040805085324004698QAPIUM0805221715004698   1030000100030000   541110001907777031200000019GAMONE PWINT (KBA)     YGN           MMR11008050853240046980805000000000000000   10300002 00104100000000000000000000003520     
100   9503051022331348000000000000390000000000390000200000001041040805064851002655NOVELR0805221713002655   1030000100030000   541120003117777031200000031GAMONE PWINT (BKLZ)    YGN           MMR11008050648510026550805000000000000000   10300002 00104100000000000000000000000780     
100   35710830001060460000000000031900000000031900002000000010410408050619060026588034800805221712002658   1030000100030000   541120003106777031200000031GAMONE PWINT (BKLZ)    YGN           MMR11008050619060026580805000000000000000   10300003 00104100000000000000000000006380     
100   9503051024293785000000000003535000000003535000200000001041040805051119002644ZMZIMV0805221711002644   1030000100030000   541120003117777031200000031GAMONE PWINT (BKLZ)    YGN           MMR11008050511190026440805000000000000000   10300002 00104100000000000000000000007070     
100   62622000392758430000000000014500000000014500002000000010410408050909580008133381630805221715000813   1030000100030000   541120003111777031200000031GAMONE PWINT (BKLZ)    YGN           MMR11008050909580008130805000000000000000   10300006 00104100000000000000000000002900     
100   35710830273899220000000000013950000000013950002000000010410408051121230002739848510805221717000273   1030000100030000   541120003006777031200000030GAMONE PWINT (TGZ)     YGN           MMR11008051121230002730805000000000000000   10300003 00104100000000000000000000002790     
100   9503051020209454000000000000410000000000410000200000001041040805080536000882THPXAE0805221714000882   1030000100030000   541120003005777031200000030GAMONE PWINT (TGZ)     YGN           MMR11008050805360008820805000000000000000   10300002 00104100000000000000000000000820     
100   35710830641728760000000000016317000000016317002000000010410408050722290026588415110805221713002658   1030000100030000   541120003117777031200000031GAMONE PWINT (BKLZ)    YGN           MMR11008050722290026580805000000000000000   10300003 00104100000000000000000000003264     
100   9503051887179469000000000005955000000005955000200000001041040805080503002662PUN3AJ0805221714002662   1030000100030000   541120003117777031200000031GAMONE PWINT (BKLZ)    YGN           MMR11008050805030026620805000000000000000   10300002 00104100000000000000000000011910     
100   35710830075044410000000000009444000000009444002000000010410408051030230008839542510805221717000883   1030000100030000   541120003005777031200000030GAMONE PWINT (TGZ)     YGN           MMR11008051030230008830805000000000000000   10300003 00104100000000000000000000001889     
100   35710500313644720000000000068171000000068171002000000010410408051140210008848059690805221718000884   1030000100030000   541120003005777031200000030GAMONE PWINT (TGZ)     YGN           MMR11008051140210008840805000000000000000   10300005 00104100000000000000000000013634     
100   35710830445305570000000000063300000000063300002000000010410408050931510006029191210805221716000602   1030000100030000   541120003012777031200000030GAMONE PWINT (TGZ)     YGN           MMR11008050931510006020805000000000000000   10300003 00104100000000000000000000012660     
100   35710500332850220000000000004950000000004950002000000010410408051141540008856832690805221718000885   1030000100030000   541120003005777031200000030GAMONE PWINT (TGZ)     YGN           MMR11008051141540008850805000000000000000   10300005 00104100000000000000000000000990     
100   35710830014937400000000000003724000000003724002000000010410408051204260008870106810805221718000887   1030000100030000   541120003005777031200000030GAMONE PWINT (TGZ)     YGN           MMR11008051204260008870805000000000000000   10300003 00104100000000000000000000000745     
100   35710830716372340000000000026800000000026800002000000010410408050653530027718243500805221713002771   1030000100030000   541110001903777031200000019GAMONE PWINT (KBA)     YGN           MMR11008050653530027710805000000000000000   10300003 00104100000000000000000000005360     
100   9503051025133063000000000005800000000005800000200000001041040805090222002773DRTZMV0805221715002773   1030000100030000   541110001903777031200000019GAMONE PWINT (KBA)     YGN           MMR11008050902220027730805000000000000000   10300002 00104100000000000000000000011600     
100   35710830273899220000000000021400000000021400002000000010410408051201320008860089320805221718000886   1030000100030000   541120003005777031200000030GAMONE PWINT (TGZ)     YGN           MMR11008051201320008860805000000000000000   10300003 00104100000000000000000000004280     
100   95030800052950300000000000002500000000002500002000000010410408051118430013409832510805221717001340   1030000100030000   541120003008777031200000030GAMONE PWINT (TGZ)     YGN           MMR11008051118430013400805000000000000000   10300003 00104100000000000000000000000500     
100   9503051023318666000000000034500000000034500000200000001041040805052329002023DU6APY0805221711002023   1030000100030000   541160000001777031200000006MK FASHION             YGN           MMR11008050523290020230805000000000000000   10300002 00104100000000000000000000069000     
100   9503051025073145000000000001200000000001200000200000001041040805044451001118PZITU80805221711001118   1030000100030000   541120003103777031200000031GAMONE PWINT (BKLZ)    YGN           MMR11008050444510011180805000000000000000   10300002 00104100000000000000000000002400     
100   95030510220105040000000000025800000000025800002000000010410408050726210011205HWSME0805221713001120   1030000100030000   541120003103777031200000031GAMONE PWINT (BKLZ)    YGN           MMR11008050726210011200805000000000000000   10300002 00104100000000000000000000005160     
100   95030510210674480000000000008600000000008600002000000010410408050327320011014QVBVR0805221709001101   1030000100030000   541120003104777031200000031GAMONE PWINT (BKLZ)    YGN           MMR11008050327320011010805000000000000000   10300002 00104100000000000000000000001720     
100   95030510219478210000000000016800000000016800002000000010410408051135260013425TE4VO0805221718001342   1030000100030000   541120003008777031200000030GAMONE PWINT (TGZ)     YGN           MMR11008051135260013420805000000000000000   10300002 00104100000000000000000000003360     
100   62921400066107760000000000003400000000003400002000000010410408050625190020702222220805221712002070   1030000100030000   541110001915777031200000019GAMONE PWINT (KBA)     YGN           MMR11008050625190020700805000000000000000   10300009 00104100000000000000000000000680     
100   95030201000351880000000000009212000000009212002000000010410408050726380046906197780805221713004690   1030000100030000   541110001907777031200000019GAMONE PWINT (KBA)     YGN           MMR11008050726380046900805000000000000000   10200002 00104100000000000000000000001842     
100   9503051026681227000000000000330000000000330000200000001041040805121315000888CPOBPF0805221718000888   1030000100030000   541120003005777031200000030GAMONE PWINT (TGZ)     YGN           MMR11008051213150008880805000000000000000   10300002 00104100000000000000000000000660     
100   9503051891315323000000000001720000000001720000200000001041040805031734002642NJEYPD0805221709002642   1030000100030000   541120003117777031200000031GAMONE PWINT (BKLZ)    YGN           MMR11008050317340026420805000000000000000   10300002 00104100000000000000000000003440     
100   9503051026409553000000000000600000000000600000200000001041040805054123002647QMXWN10805221712002647   1030000100030000   541120003117777031200000031GAMONE PWINT (BKLZ)    YGN           MMR11008050541230026470805000000000000000   10300002 00104100000000000000000000001200     
100   35710830716372340000000000055000000000055000002000000010410408050640280035788162910805221713003578   1030000100030000   541110001905777031200000019GAMONE PWINT (KBA)     YGN           MMR11008050640280035780805000000000000000   10300003 00104100000000000000000000011000     
100   62441900001115930000000000017100000000017100002000000010410408051116250035839039700805221717003583   1030000100030000   541110001905777031200000019GAMONE PWINT (KBA)     YGN           MMR11008051116250035830805000000000000000   10300003 00104100000000000000000000005985     
100   35710500335401450000000000006400000000006400002000000010410408050645170008792591720805221713000879   1030000100030000   541120003005777031200000030GAMONE PWINT (TGZ)     YGN           MMR11008050645170008790805000000000000000   10300005 00104100000000000000000000001280     
100   62343302003832510000000000005900000000005900002000000010410408050702520008801048940805221713000880   1030000100030000   541120003005777031200000030GAMONE PWINT (TGZ)     YGN           MMR11008050702520008800805000000000000000   10300004 00104100000000000000000000001180     
100   62622000226252440000000000003295000000003295002000000010410408050746030008813331430805221714000881   1030000100030000   541120003005777031200000030GAMONE PWINT (TGZ)     YGN           MMR11008050746030008810805000000000000000   10300006 00104100000000000000000000000659     
100   62441900003533850000000000003650000000003650002000000010410408050512250006105886570805221711000610   1030000100030000   541120003001777031200000030GAMONE PWINT (TGZ)     YGN           MMR11008050512250006100805000000000000000   10300003 00104100000000000000000000001277     
100   35710830445305570000000000008600000000008600002000000010410408050934160006059205800805221716000605   1030000100030000   541120003012777031200000030GAMONE PWINT (TGZ)     YGN           MMR11008050934160006050805000000000000000   10300003 00104100000000000000000000001720     
100   95031010360107410000000000013500000000013500002000000010410408051157320020709539970805221718002070   1030000100030000   541110001920777031200000019GAMONE PWINT (KBA)     YGN           MMR11008051157320020700805000000000000000   10300005 00104100000000000000000000002700     
100   35710830185469690000000000016150000000016150002000000010410408050644590020728190010805221713002072   1030000100030000   541110001915777031200000019GAMONE PWINT (KBA)     YGN           MMR11008050644590020720805000000000000000   10300003 00104100000000000000000000003230     
100   9503051897764425000000000001110000000001110000200000001041040805065827002075LKYRZU0805221713002075   1030000100030000   541110001915777031200000019GAMONE PWINT (KBA)     YGN           MMR11008050658270020750805000000000000000   10300002 00104100000000000000000000002220     
100   35710500392217570000000000005600000000005600002000000010410408050749430020773822080805221714002077   1030000100030000   541110001915777031200000019GAMONE PWINT (KBA)     YGN           MMR11008050749430020770805000000000000000   10300005 00104100000000000000000000001120     
100   35710830225915300000000000015500000000015500002000000010410408050449160046797495800805221711004679   1030000100030000   541110001907777031200000019GAMONE PWINT (KBA)     YGN           MMR11008050449160046790805000000000000000   10300003 00104100000000000000000000003100     
100   35710830548544670000000000014800000000014800002000000010410408050641010046848166300805221713004684   1030000100030000   541110001907777031200000019GAMONE PWINT (KBA)     YGN           MMR11008050641010046840805000000000000000   10300003 00104100000000000000000000002960     
