100   35710500365402580000000000038990000000038990002000000010410408080554110005683811010808222012000568   1030000100030000   541120003013777031200000030GAMONE PWINT (TGZ)     YGN           MMR11008080554110005680808000000000000000   10300005 00104100000000000000000000007798     
100   9503051874230648000000000000300000000000300000200000001041040808072123000569ARKBRL0808222013000569   1030000100030000   541120003013777031200000030GAMONE PWINT (TGZ)     YGN           MMR11008080721230005690808000000000000000   10300002 00104100000000000000000000000600     
100   9503051874230648000000000000900000000000900000200000001041040808072420000570YZ78QR0808222013000570   1030000100030000   541120003013777031200000030GAMONE PWINT (TGZ)     YGN           MMR11008080724200005700808000000000000000   10300002 00104100000000000000000000001800     
100   35710500345536180000000000060900000000060900002000000010410408081235550003409937170808222019000340   1030000100030000   541120003114777031200000031GAMONE PWINT (BKLZ)    YGN           MMR11008081235550003400808000000000000000   10300005 00104100000000000000000000012180     
100   35710830755615880000000000002700000000002700002000000010410408080410110011243181310808222010001124   1030000100030000   541120003104777031200000031GAMONE PWINT (BKLZ)    YGN           MMR11008080410110011240808000000000000000   10300003 00104100000000000000000000000540     
100   35710500365402580000000000033712000000033712002000000010410408080610160006114349160808222012000611   1030000100030000   541120003012777031200000030GAMONE PWINT (TGZ)     YGN           MMR11008080610160006110808000000000000000   10300005 00104100000000000000000000006742     
100   35710500332850220000000000021000000000021000002000000010410408080453160013587085870808222011001358   1030000100030000   541120003008777031200000030GAMONE PWINT (TGZ)     YGN           MMR11008080453160013580808000000000000000   10300005 00104100000000000000000000004200     
100   9503051024712388000000000001650000000001650000200000001041040808092652000829WLWRIJ0808222015000829   1030000100030000   541120003111777031200000031GAMONE PWINT (BKLZ)    YGN           MMR11008080926520008290808000000000000000   10300002 00104100000000000000000000003300     
100   35710830824581660000000000025300000000025300002000000010410408080943410006245182320808222016000624   1030000100030000   541120003001777031200000030GAMONE PWINT (TGZ)     YGN           MMR11008080943410006240808000000000000000   10300003 00104100000000000000000000005060     
100   9503190007097522000000000004580000000004580000200000001041040808103231002877OE3RKD0808222017002877   1030000100030000   541110001903777031200000019GAMONE PWINT (KBA)     YGN           MMR11008081032310028770808000000000000000   10300014 00104100000000000000000000009160     
100   62346600157167110000000000011000000000011000002000000010410408080540060048030818840808222012004803   1030000100030000   541110001907777031200000019GAMONE PWINT (KBA)     YGN           MMR11008080540060048030808000000000000000   10300005 00104100000000000000000000002200     
100   35710830782038080000000000038400000000038400002000000010410408080547480048053767010808222012004805   1030000100030000   541110001907777031200000019GAMONE PWINT (KBA)     YGN           MMR11008080547480048050808000000000000000   10300003 00104100000000000000000000007680     
100   9503051893126066000000000001146600000001146600200000001041040808105636004808VWJOGG0808222017004808   1030000100030000   541110001907777031200000019GAMONE PWINT (KBA)     YGN           MMR11008081056360048080808000000000000000   10300002 00104100000000000000000000002293     
100   62441900002249090000000000018277000000018277002000000010410408081200250048105996180808222018004810   1030000100030000   541110001907777031200000019GAMONE PWINT (KBA)     YGN           MMR11008081200250048100808000000000000000   10300003 00104100000000000000000000006397     
100   35710500195613050000000000044900000000044900002000000010410408080704540036506651490808222013003650   1030000100030000   541110001905777031200000019GAMONE PWINT (KBA)     YGN           MMR11008080704540036500808000000000000000   10300005 00104100000000000000000000008980     
100   9503051893867487000000000004880000000004880000200000001041040808081452002689XS3PCR0808222014002689   1030000100030000   541120003117777031200000031GAMONE PWINT (BKLZ)    YGN           MMR11008080814520026890808000000000000000   10300002 00104100000000000000000000009760     
100   62622000311851720000000000038800000000038800002000000010410408080427500028734474540808222010002873   1030000100030000   541110001903777031200000019GAMONE PWINT (KBA)     YGN           MMR11008080427500028730808000000000000000   10300006 00104100000000000000000000007760     
100   9503051884683877000000000004160000000004160000200000001041040808083103002875TMINJS0808222015002875   1030000100030000   541110001903777031200000019GAMONE PWINT (KBA)     YGN           MMR11008080831030028750808000000000000000   10300002 00104100000000000000000000008320     
100   9503051893867487000000000001700000000001700000200000001041040808082456002690EJAUOT0808222014002690   1030000100030000   541120003117777031200000031GAMONE PWINT (BKLZ)    YGN           MMR11008080824560026900808000000000000000   10300002 00104100000000000000000000003400     
100   9503051025667946000000000005000000000005000000200000001041040808090702002691V2VAM80808222015002691   1030000100030000   541120003117777031200000031GAMONE PWINT (BKLZ)    YGN           MMR11008080907020026910808000000000000000   10300002 00104100000000000000000000010000     
100   35710830338436720000000000033500000000033500002000000010410408081119520026925759310808222017002692   1030000100030000   541120003117777031200000031GAMONE PWINT (BKLZ)    YGN           MMR11008081119520026920808000000000000000   10300003 00104100000000000000000000006700     
100   35710830755199900000000000402000000000402000002000000010410408070852500008746237110807221915000874   1030000100030000   581210001201777031200000012L OPERA RESTAURANT YGN YGN           MMR11008070852500008740807000000000000000   10300003 00104100000000000000000000136680     
100   35710830295509500000000000035000000000035000002000000010410408081116020006255736410808222017000625   1030000100030000   541120003001777031200000030GAMONE PWINT (TGZ)     YGN           MMR11008081116020006250808000000000000000   10300003 00104100000000000000000000007000     
100   9503051025247384000000000000347900000000347900200000001041040808123957000342ZF6IBY0808222019000342   1030000100030000   541120003114777031200000031GAMONE PWINT (BKLZ)    YGN           MMR11008081239570003420808000000000000000   10300002 00104100000000000000000000000696     
100   9503051888025760000000000002700000000002700000200000001041040808054507000609O9HLDN0808222012000609   1030000100030000   541120003012777031200000030GAMONE PWINT (TGZ)     YGN           MMR11008080545070006090808000000000000000   10300002 00104100000000000000000000005400     
100   35710830036365510000000000021500000000021500002000000010410408080534230013603686410808222012001360   1030000100030000   541120003008777031200000030GAMONE PWINT (TGZ)     YGN           MMR11008080534230013600808000000000000000   10300003 00104100000000000000000000004300     
100   95030800010739930000000000010000000000010000002000000010410408080744500013624469210808222014001362   1030000100030000   541120003008777031200000030GAMONE PWINT (TGZ)     YGN           MMR11008080744500013620808000000000000000   10300003 00104100000000000000000000002000     
100   9503051026540019000000000001375000000001375000200000001041040808045400001783XTXKIM0808222011001783   1030000100030000   581250000001777031200000005AVENUE J COFFEE SHOP   YGN           MMR11008080454000017830808000000000000000   10300002 00104100000000000000000000004675     
100   62346600147133620000000000009500000000009500002000000010410408081143190008301370020808222018000830   1030000100030000   541120003111777031200000031GAMONE PWINT (BKLZ)    YGN           MMR11008081143190008300808000000000000000   10300005 00104100000000000000000000001900     
100   9503051887921761000000000004600000000004600000200000001041040808102014001364I7BJWH0808222016001364   1030000100030000   541120003008777031200000030GAMONE PWINT (TGZ)     YGN           MMR11008081020140013640808000000000000000   10300002 00104100000000000000000000009200     
100   35710830205036690000000000012000000000012000002000000010410408080526260011253638710808222011001125   1030000100030000   541120003104777031200000031GAMONE PWINT (BKLZ)    YGN           MMR11008080526260011250808000000000000000   10300003 00104100000000000000000000002400     
100   9503051891067510000000000018075000000018075000200000001041040808094235002039KH1XU80808222016002039   1030000100030000   541160000001777031200000006MK FASHION             YGN           MMR11008080942350020390808000000000000000   10300002 00104100000000000000000000036150     
100   9503190005782760000000000001400000000001400000200000001041040808081231000613GNBT8H0808222014000613   1030000100030000   541120003012777031200000030GAMONE PWINT (TGZ)     YGN           MMR11008080812310006130808000000000000000   10300014 00104100000000000000000000002800     
100   9503051874349976000000000001700000000001700000200000001041040808100944001784RKIDGX0808222016001784   1030000100030000   581250000001777031200000005AVENUE J COFFEE SHOP   YGN           MMR11008081009440017840808000000000000000   10300002 00104100000000000000000000005780     
100   9503190004624377000000000003499000000003499000200000001041040808110014000572BFXF4L0808222017000572   1030000100030000   541120003013777031200000030GAMONE PWINT (TGZ)     YGN           MMR11008081100140005720808000000000000000   10300014 00104100000000000000000000006998     
100   9503051024288611000000000000715000000000715000200000001041040808101954001785QMWU9J0808222016001785   1030000100030000   581250000001777031200000005AVENUE J COFFEE SHOP   YGN           MMR11008081019540017850808000000000000000   10300002 00104100000000000000000000002431     
100   950305102559326600000000000319000000000319000020000000104104080812232500178699PTDE0808222018001786   1030000100030000   581250000001777031200000005AVENUE J COFFEE SHOP   YGN           MMR11008081223250017860808000000000000000   10300002 00104100000000000000000000010846     
100   35710500395389030000000000016000000000016000002000000010410408080513440005673135120808222011000567   1030000100030000   541120003013777031200000030GAMONE PWINT (TGZ)     YGN           MMR11008080513440005670808000000000000000   10300005 00104100000000000000000000003200     
