100   35710500355609010000000000035900000000035900002000000010410408080857410027061671390808222015002706   1030000100030000   541120003106777031200000031GAMONE PWINT (BKLZ)    YGN           MMR11008080857410027060808000000000000000   10300005 00104100000000000000000000007180     
100   35710500304237740000000000045900000000045900002000000010410408080408590027004796280808222010002700   1030000100030000   541120003106777031200000031GAMONE PWINT (BKLZ)    YGN           MMR11008080408590027000808000000000000000   10300005 00104100000000000000000000009180     
100   62622000689312580000000000008000000000008000002000000010410408090421470013714902960809222110001371   1030000100030000   541120003008777031200000030GAMONE PWINT (TGZ)     YGN           MMR11008090421470013710809000000000000000   10300006 00104100000000000000000000001600     
100   35710830369914370000000000043500000000043500002000000010410408090817160011555937170809222114001155   1030000100030000   541120003103777031200000031GAMONE PWINT (BKLZ)    YGN           MMR11008090817160011550809000000000000000   10300003 00104100000000000000000000008700     
100   62444500200455710000000000011800000000011800002000000010410408090937530011576963610809222116001157   1030000100030000   541120003103777031200000031GAMONE PWINT (BKLZ)    YGN           MMR11008090937530011570809000000000000000   10300002 00104100000000000000000000004130     
100   9503051025372562000000000003080000000003080000200000001041040809100227001159XZ39HA0809222116001159   1030000100030000   541120003103777031200000031GAMONE PWINT (BKLZ)    YGN           MMR11008091002270011590809000000000000000   10300002 00104100000000000000000000006160     
100   35710500321999680000000000138936000000138936002000000010410408090714280020439946240809222113002043   1030000100030000   541160000001777031200000006MK FASHION             YGN           MMR11008090714280020430809000000000000000   10300005 00104100000000000000000000027787     
100   35710500126092180000000000030550000000030550002000000010410408091135510003521354090809222118000352   1030000100030000   541120003114777031200000031GAMONE PWINT (BKLZ)    YGN           MMR11008091135510003520809000000000000000   10300005 00104100000000000000000000006110     
100   35710500375450170000000000011850000000011850002000000010410408090936400011330925350809222116001133   1030000100030000   541120003104777031200000031GAMONE PWINT (BKLZ)    YGN           MMR11008090936400011330809000000000000000   10300005 00104100000000000000000000002370     
100   9503051894018296000000000000480000000000480000200000001041040809064157000628UDKKON0809222113000628   1030000100030000   541120003001777031200000030GAMONE PWINT (TGZ)     YGN           MMR11008090641570006280809000000000000000   10300002 00104100000000000000000000000960     
100   9503051021948019000000000001190000000001190000200000001041040809104112001376RW6D6O0809222117001376   1030000100030000   541120003008777031200000030GAMONE PWINT (TGZ)     YGN           MMR11008091041120013760809000000000000000   10300002 00104100000000000000000000002380     
100   9503051024816726000000000000935000000000935000200000001041040809031733000901UORXFP0809222109000901   1030000100030000   541120003005777031200000030GAMONE PWINT (TGZ)     YGN           MMR11008090317330009010809000000000000000   10300002 00104100000000000000000000001870     
100   62622000540998620000000000009750000000009750002000000010410408090741550009024913810809222114000902   1030000100030000   541120003005777031200000030GAMONE PWINT (TGZ)     YGN           MMR11008090741550009020809000000000000000   10300006 00104100000000000000000000001950     
100   35710830014937400000000000004691000000004691002000000010410408091105100009064311120809222117000906   1030000100030000   541120003005777031200000030GAMONE PWINT (TGZ)     YGN           MMR11008091105100009060809000000000000000   10300003 00104100000000000000000000000938     
100   9503051021194796000000000002490000000002490000200000001041040809061433000594A4JT3P0809222112000594   1030000100030000   541120003105777031200000031GAMONE PWINT (BKLZ)    YGN           MMR11008090614330005940809000000000000000   10300002 00104100000000000000000000004980     
100   35710830233493260000000000023045000000023045002000000010410408090756290017895927950809222114001789   1030000100030000   581250000001777031200000005AVENUE J COFFEE SHOP   YGN           MMR11008090756290017890809000000000000000   10300003 00104100000000000000000000007835     
100   9503051025863305000000000000764500000000764500200000001041040809092020001790HANZRV0809222115001790   1030000100030000   581250000001777031200000005AVENUE J COFFEE SHOP   YGN           MMR11008090920200017900809000000000000000   10300002 00104100000000000000000000002599     
100   35710830991046960000000000012550000000012550002000000010410408090952030009043872510809222116000904   1030000100030000   541120003005777031200000030GAMONE PWINT (TGZ)     YGN           MMR11008090952030009040809000000000000000   10300003 00104100000000000000000000002510     
100   9503051025609138000000000001210000000001210000200000001041040809102822000905YL6UMO0809222116000905   1030000100030000   541120003005777031200000030GAMONE PWINT (TGZ)     YGN           MMR11008091028220009050809000000000000000   10300002 00104100000000000000000000002420     
100   9503051026691440000000000001200000000001200000200000001041040809044111002694ZBFBVA0809222111002694   1030000100030000   541120003117777031200000031GAMONE PWINT (BKLZ)    YGN           MMR11008090441110026940809000000000000000   10300002 00104100000000000000000000002400     
100   9503051025657897000000000001700000000001700000200000001041040809040157000833JZJILP0809222110000833   1030000100030000   541120003111777031200000031GAMONE PWINT (BKLZ)    YGN           MMR11008090401570008330809000000000000000   10300002 00104100000000000000000000003400     
100   9503051891705358000000000000500000000000500000200000001041040809065013001151UY1E0O0809222113001151   1030000100030000   541120003103777031200000031GAMONE PWINT (BKLZ)    YGN           MMR11008090650130011510809000000000000000   10300002 00104100000000000000000000001000     
100   35710830345197270000000000012925000000012925002000000010410408090931590017915969770809222116001791   1030000100030000   581250000001777031200000005AVENUE J COFFEE SHOP   YGN           MMR11008090931590017910809000000000000000   10300003 00104100000000000000000000004394     
100   35710830975976690000000000021725000000021725002000000010410408091058040017924268510809222117001792   1030000100030000   581250000001777031200000005AVENUE J COFFEE SHOP   YGN           MMR11008091058040017920809000000000000000   10300003 00104100000000000000000000007386     
100   9503051891705358000000000000500000000000500000200000001041040809065724001153TXJGOD0809222113001153   1030000100030000   541120003103777031200000031GAMONE PWINT (BKLZ)    YGN           MMR11008090657240011530809000000000000000   10300002 00104100000000000000000000001000     
100   62622000084939220000000000007500000000007500002000000010410408090842310026975360470809222115002697   1030000100030000   541120003117777031200000031GAMONE PWINT (BKLZ)    YGN           MMR11008090842310026970809000000000000000   10300006 00104100000000000000000000001500     
100   62346600176528230000000000005929000000005929002000000010410408091139400003538900100809222118000353   1030000100030000   541120003114777031200000031GAMONE PWINT (BKLZ)    YGN           MMR11008091139400003530809000000000000000   10300005 00104100000000000000000000001186     
100   9503051021569872000000000001345000000001345000200000001041040809032425001368AQZHAQ0809222109001368   1030000100030000   541120003008777031200000030GAMONE PWINT (TGZ)     YGN           MMR11008090324250013680809000000000000000   10300002 00104100000000000000000000002690     
100   9503051894018296000000000001840000000001840000200000001041040809055841000627OH7HAR0809222112000627   1030000100030000   541120003001777031200000030GAMONE PWINT (TGZ)     YGN           MMR11008090558410006270809000000000000000   10300002 00104100000000000000000000003680     
100   62622000975843340000000000009800000000009800002000000010410408090513430011294922270809222111001129   1030000100030000   541120003104777031200000031GAMONE PWINT (BKLZ)    YGN           MMR11008090513430011290809000000000000000   10300006 00104100000000000000000000001960     
100   35710830237488320000000000020000000000020000002000000010410408091133520027164483410809222118002716   1030000100030000   541120003106777031200000031GAMONE PWINT (BKLZ)    YGN           MMR11008091133520027160809000000000000000   10300003 00104100000000000000000000004000     
100   35710830156030780000000000010150000000010150002000000010410408090724050003485911240809222113000348   1030000100030000   541120003114777031200000031GAMONE PWINT (BKLZ)    YGN           MMR11008090724050003480809000000000000000   10300003 00104100000000000000000000002030     
100   9503051022816264000000000000250000000000250000200000001041040809060945001130B6ZNRN0809222112001130   1030000100030000   541120003104777031200000031GAMONE PWINT (BKLZ)    YGN           MMR11008090609450011300809000000000000000   10300002 00104100000000000000000000000500     
100   9503051025744919000000000000100000000000100000200000001041040809093305001132GJVGYC0809222116001132   1030000100030000   541120003104777031200000031GAMONE PWINT (BKLZ)    YGN           MMR11008090933050011320809000000000000000   10300002 00104100000000000000000000000200     
100   9503051025915543000000000001034000000001034000200000001041040809054616001788BCWREC0809222112001788   1030000100030000   581250000001777031200000005AVENUE J COFFEE SHOP   YGN           MMR11008090546160017880809000000000000000   10300002 00104100000000000000000000003516     
100   9503190001346735000000000005000000000005000000200000001041040809085758004829MVTK990809222115004829   1030000100030000   541110001907777031200000019GAMONE PWINT (KBA)     YGN           MMR11008090857580048290809000000000000000   10300014 00104100000000000000000000010000     
100   62921400091200390000000000068500000000068500002000000010410408090809210048262222220809222114004826   1030000100030000   541110001907777031200000019GAMONE PWINT (KBA)     YGN           MMR11008090809210048260809000000000000000   10300009 00104100000000000000000000013700     
100   9503051024223832000000000029640000000029640000200000001041040809082437002047L9E55D0809222114002047   1030000100030000   541160000001777031200000006MK FASHION             YGN           MMR11008090824370020470809000000000000000   10300002 00104100000000000000000000059280     
100   62622000183746660000000000038514000000038514002000000010410408091037450048324923410809222117004832   1030000100030000   541110001907777031200000019GAMONE PWINT (KBA)     YGN           MMR11008091037450048320809000000000000000   10300006 00104100000000000000000000007703     
100   9503051872326224000000000002790000000002790000200000001041040809121206004834VWOMVY0809222118004834   1030000100030000   541110001907777031200000019GAMONE PWINT (KBA)     YGN           MMR11008091212060048340809000000000000000   10300002 00104100000000000000000000005580     
100   9503051026175105000000000002760000000002760000200000001041040809110545002895EGHN5H0809222117002895   1030000100030000   541110001903777031200000019GAMONE PWINT (KBA)     YGN           MMR11008091105450028950809000000000000000   10300002 00104100000000000000000000005520     
100   9503051024853463000000000003650000000003650000200000001041040809064950004816PVMLGE0809222113004816   1030000100030000   541110001907777031200000019GAMONE PWINT (KBA)     YGN           MMR11008090649500048160809000000000000000   10300002 00104100000000000000000000007300     
100   9503051884667060000000000010500000000010500000200000001041040809073856004823NFT8M90809222114004823   1030000100030000   541110001907777031200000019GAMONE PWINT (KBA)     YGN           MMR11008090738560048230809000000000000000   10300002 00104100000000000000000000021000     
