100   95051080160000950000000000021800000000021800002000000010410408101233450029189006920810222219002918   1030000100030000   541110001903777031200000019GAMONE PWINT (KBA)     YGN           MMR11008101233450029180810000000000000000   10300005 00104100000000000000000000007630     
100   9503051890906593000000000001415000000001415000200000001041040810110752004861RJU6PF0810222217004861   1030000100030000   541110001907777031200000019GAMONE PWINT (KBA)     YGN           MMR11008101107520048610810000000000000000   10300002 00104100000000000000000000002830     
100   9503051895219984000000000001500000000001500000200000001041040810101145002721WQSCMX0810222216002721   1030000100030000   541120003106777031200000031GAMONE PWINT (BKLZ)    YGN           MMR11008101011450027210810000000000000000   10300002 00104100000000000000000000003000     
100   9503051025552965000000000001960000000001960000200000001041040810032241004838BLG5GB0810222209004838   1030000100030000   541110001907777031200000019GAMONE PWINT (KBA)     YGN           MMR11008100322410048380810000000000000000   10300002 00104100000000000000000000003920     
100   62346600161429820000000000044936000000044936002000000010410408100547330048424046470810222212004842   1030000100030000   541110001907777031200000019GAMONE PWINT (KBA)     YGN           MMR11008100547330048420810000000000000000   10300005 00104100000000000000000000008987     
100   95030799001587230000000000069500000000069500002000000010410408101135500048659543260810222218004865   1030000100030000   541110001907777031200000019GAMONE PWINT (KBA)     YGN           MMR11008101135500048650810000000000000000   10200004 00104100000000000000000000013900     
100   9503051896630767000000000006000000000006000000200000001041040810113941004867K2T8X30810222218004867   1030000100030000   541110001907777031200000019GAMONE PWINT (KBA)     YGN           MMR11008101139410048670810000000000000000   10300002 00104100000000000000000000012000     
100   9503051894082797000000000026740000000026740000200000001041040810083833004846IKNONQ0810222215004846   1030000100030000   541110001907777031200000019GAMONE PWINT (KBA)     YGN           MMR11008100838330048460810000000000000000   10300002 00104100000000000000000000053480     
100   35710500395369150000000000008624000000008624002000000010410408100840100048498852470810222215004849   1030000100030000   541110001907777031200000019GAMONE PWINT (KBA)     YGN           MMR11008100840100048490810000000000000000   10300005 00104100000000000000000000001725     
100   35710830127356910000000000022800000000022800002000000010410408100805330029051873420810222214002905   1030000100030000   541110001903777031200000019GAMONE PWINT (KBA)     YGN           MMR11008100805330029050810000000000000000   10300003 00104100000000000000000000004560     
100   9503051025930468000000000001940000000001940000200000001041040810062425003672ZALA3R0810222212003672   1030000100030000   541110001905777031200000019GAMONE PWINT (KBA)     YGN           MMR11008100624250036720810000000000000000   10300002 00104100000000000000000000003880     
100   35710500196506290000000000029900000000029900002000000010410408101140380027255295980810222218002725   1030000100030000   541120003106777031200000031GAMONE PWINT (BKLZ)    YGN           MMR11008101140380027250810000000000000000   10300005 00104100000000000000000000005980     
100   35710500374217550000000000021364000000021364002000000010410408100857120048514512550810222215004851   1030000100030000   541110001907777031200000019GAMONE PWINT (KBA)     YGN           MMR11008100857120048510810000000000000000   10300005 00104100000000000000000000004273     
100   62346600198576280000000000011000000000011000002000000010410408100909050048533582210810222215004853   1030000100030000   541110001907777031200000019GAMONE PWINT (KBA)     YGN           MMR11008100909050048530810000000000000000   10300005 00104100000000000000000000002200     
100   9503051024436640000000000000960000000000960000200000001041040810083437002908JQJSTY0810222215002908   1030000100030000   541110001903777031200000019GAMONE PWINT (KBA)     YGN           MMR11008100834370029080810000000000000000   10300002 00104100000000000000000000001920     
100   62443000103189100000000000047900000000047900002000000010410408100848280029108668480810222215002910   1030000100030000   541110001903777031200000019GAMONE PWINT (KBA)     YGN           MMR11008100848280029100810000000000000000   10300005 00104100000000000000000000016765     
100   35710500370550580000000000046200000000046200002000000010410408100914410036775355440810222215003677   1030000100030000   541110001905777031200000019GAMONE PWINT (KBA)     YGN           MMR11008100914410036770810000000000000000   10300005 00104100000000000000000000009240     
100   35710830345309140000000000010290000000010290002000000010410408101112410036842996310810222217003684   1030000100030000   541110001905777031200000019GAMONE PWINT (KBA)     YGN           MMR11008101112410036840810000000000000000   10300003 00104100000000000000000000002058     
100   9503051026036240000000000004600000000004600000200000001041040810102720004855RN9NQM0810222216004855   1030000100030000   541110001907777031200000019GAMONE PWINT (KBA)     YGN           MMR11008101027200048550810000000000000000   10300002 00104100000000000000000000009200     
100   35710830785273470000000000005586000000005586002000000010410408101032270048572754810810222217004857   1030000100030000   541110001907777031200000019GAMONE PWINT (KBA)     YGN           MMR11008101032270048570810000000000000000   10300003 00104100000000000000000000001117     
100   62343301018159220000000000037800000000037800002000000010410408101141360029141869510810222218002914   1030000100030000   541110001903777031200000019GAMONE PWINT (KBA)     YGN           MMR11008101141360029140810000000000000000   10300004 00104100000000000000000000007560     
100   95031900061717730000000000039000000000039000002000000010410408100729300027003U5V6T0810222213002700   1030000100030000   541120003117777031200000031GAMONE PWINT (BKLZ)    YGN           MMR11008100729300027000810000000000000000   10300014 00104100000000000000000000007800     
100   35710830392357740000000000012000000000012000002000000010410408100756320027011819310810222214002701   1030000100030000   541120003117777031200000031GAMONE PWINT (BKLZ)    YGN           MMR11008100756320027010810000000000000000   10300003 00104100000000000000000000002400     
100   62441900103761520000000000017000000000017000002000000010410408100923410027049085420810222215002704   1030000100030000   541120003117777031200000031GAMONE PWINT (BKLZ)    YGN           MMR11008100923410027040810000000000000000   10300003 00104100000000000000000000005950     
100   9503051024968956000000000001580000000001580000200000001041040810121202002916DS4Y0B0810222218002916   1030000100030000   541110001903777031200000019GAMONE PWINT (KBA)     YGN           MMR11008101212020029160810000000000000000   10300002 00104100000000000000000000003160     
100   62346600120484070000000000063800000000063800002000000010410408091401250008828350500809222120000882   1030000100030000   581210001201777031200000012L OPERA RESTAURANT YGN YGN           MMR11008091401250008820809000000000000000   10300005 00104100000000000000000000021692     
100   35710830077309470000000000040000000000040000002000000010410408091139570036654519910809222118003665   1030000100030000   541110001905777031200000019GAMONE PWINT (KBA)     YGN           MMR11008091139570036650809000000000000000   10300003 00104100000000000000000000008000     
100   9503051895219984000000000003700000000003700000200000001041040810100331000356QD6NX70810222216000356   1030000100030000   541120003114777031200000031GAMONE PWINT (BKLZ)    YGN           MMR11008101003310003560810000000000000000   10300002 00104100000000000000000000007400     
100   9503051894213525000000000000700000000000700000200000001041040810114556002124UFRZXG0810222218002124   1030000100030000   541110001920777031200000019GAMONE PWINT (KBA)     YGN           MMR11008101145560021240810000000000000000   10300002 00104100000000000000000000001400     
100   35710830969857580000000000012980000000012980002000000010410408101031590017952752110810222217001795   1030000100030000   581250000001777031200000005AVENUE J COFFEE SHOP   YGN           MMR11008101031590017950810000000000000000   10300003 00104100000000000000000000004413     
100   35710830170537850000000000011900000000011900002000000010410408100617320013861225420810222212001386   1030000100030000   541120003008777031200000030GAMONE PWINT (TGZ)     YGN           MMR11008100617320013860810000000000000000   10300003 00104100000000000000000000002380     
100   35710500365403400000000000028224000000028224002000000010410408100801000013880137980810222214001388   1030000100030000   541120003008777031200000030GAMONE PWINT (TGZ)     YGN           MMR11008100801000013880810000000000000000   10300005 00104100000000000000000000005645     
100   35710830905941500000000000020000000000020000002000000010410408100420240001410522610810222210000141   1030000100030000   541120000018777031200000002ZAW TI KA THINKAN TIKE YGN           MMR11008100420240001410810000000000000000   10300003 00104100000000000000000000004000     
100   62343302009144100000000000003100000000003100002000000010410408100843350013964872940810222215001396   1030000100030000   541120003008777031200000030GAMONE PWINT (TGZ)     YGN           MMR11008100843350013960810000000000000000   10300004 00104100000000000000000000000620     
100   62343302000779110000000000019100000000019100002000000010410408100742330006301053430810222214000630   1030000100030000   541120003001777031200000030GAMONE PWINT (TGZ)     YGN           MMR11008100742330006300810000000000000000   10300004 00104100000000000000000000003820     
100   35710500324003900000000000039000000000039000002000000010410408100918400013987760000810222215001398   1030000100030000   541120003008777031200000030GAMONE PWINT (TGZ)     YGN           MMR11008100918400013980810000000000000000   10300005 00104100000000000000000000007800     
100   35710500324003900000000000006550000000006550002000000010410408100939000006312915220810222216000631   1030000100030000   541120003001777031200000030GAMONE PWINT (TGZ)     YGN           MMR11008100939000006310810000000000000000   10300005 00104100000000000000000000001310     
100   35710830229164710000000000011601000000011601002000000010410408101018130006322669430810222216000632   1030000100030000   541120003001777031200000030GAMONE PWINT (TGZ)     YGN           MMR11008101018130006320810000000000000000   10300003 00104100000000000000000000002320     
100   35710500353245060000000000027500000000027500002000000010410408100452310008359261570810222211000835   1030000100030000   541120003111777031200000031GAMONE PWINT (BKLZ)    YGN           MMR11008100452310008350810000000000000000   10300005 00104100000000000000000000005500     
100   9503190005504776000000000001770000000001770000200000001041040810081553000836JG3MNP0810222214000836   1030000100030000   541120003111777031200000031GAMONE PWINT (BKLZ)    YGN           MMR11008100815530008360810000000000000000   10300014 00104100000000000000000000003540     
100   9503051024620409000000000066000000000066000000200000001041040810031724000138AIAF890810222209000138   1030000100030000   541120000018777031200000002ZAW TI KA THINKAN TIKE YGN           MMR11008100317240001380810000000000000000   10300002 00104100000000000000000000132000     
100   9503051025215209000000000005600000000005600000200000001041040810105218000885Q1KJKD0810222217000885   1030000100030000   581210001201777031200000012L OPERA RESTAURANT YGN YGN           MMR11008101052180008850810000000000000000   10300002 00104100000000000000000000019040     
100   35710830345309140000000000008640000000008640002000000010410408101109160021202975810810222217002120   1030000100030000   541110001920777031200000019GAMONE PWINT (KBA)     YGN           MMR11008101109160021200810000000000000000   10300003 00104100000000000000000000001728     
100   9503190005504776000000000001550000000001550000200000001041040810082220000837FD79QG0810222214000837   1030000100030000   541120003111777031200000031GAMONE PWINT (BKLZ)    YGN           MMR11008100822200008370810000000000000000   10300014 00104100000000000000000000003100     
100   35710500330012050000000000019000000000019000002000000010410408101020050008384760180810222216000838   1030000100030000   541120003111777031200000031GAMONE PWINT (BKLZ)    YGN           MMR11008101020050008380810000000000000000   10300005 00104100000000000000000000003800     
100   62622000947889120000000000023000000000023000002000000010410408100344220003554705370810222210000355   1030000100030000   541120003114777031200000031GAMONE PWINT (BKLZ)    YGN           MMR11008100344220003550810000000000000000   10300006 00104100000000000000000000004600     
100   35710500323664920000000000030525000000030525002000000010410408100855270017948295220810222215001794   1030000100030000   581250000001777031200000005AVENUE J COFFEE SHOP   YGN           MMR11008100855270017940810000000000000000   10300005 00104100000000000000000000010378     
