100   9503051019621297000000000002865000000002865000200000001041040811083912000636XTXSVF0811222315000636   1030000100030000   541120003001777031200000030GAMONE PWINT (TGZ)     YGN           MMR11008110839120006360811000000000000000   10300002 00104100000000000000000000005730     
100   9503051894597695000000000000800000000000800000200000001041040811051020000841JFIF330811222311000841   1030000100030000   541120003111777031200000031GAMONE PWINT (BKLZ)    YGN           MMR11008110510200008410811000000000000000   10300002 00104100000000000000000000001600     
100   9503051024040475000000000004910000000004910000200000001041040811100420002715J13AVC0811222316002715   1030000100030000   541120003117777031200000031GAMONE PWINT (BKLZ)    YGN           MMR11008111004200027150811000000000000000   10300002 00104100000000000000000000009820     
100   9503051894973128000000000003500000000003500000200000001041040811090021000637URNHZC0811222315000637   1030000100030000   541120003001777031200000030GAMONE PWINT (TGZ)     YGN           MMR11008110900210006370811000000000000000   10300002 00104100000000000000000000007000     
100   9503051885796835000000000000750000000000750000200000001041040811100054000618ZMQIY00811222316000618   1030000100030000   541120003012777031200000030GAMONE PWINT (TGZ)     YGN           MMR11008111000540006180811000000000000000   10300002 00104100000000000000000000001500     
100   35710500375838930000000000007252000000007252002000000010410408110604330009101396130811222312000910   1030000100030000   541120003005777031200000030GAMONE PWINT (TGZ)     YGN           MMR11008110604330009100811000000000000000   10300005 00104100000000000000000000001450     
100   9503051892476116000000000015603700000015603700200000001041040811050241002052BJJLVY0811222311002052   1030000100030000   541160000001777031200000006MK FASHION             YGN           MMR11008110502410020520811000000000000000   10300002 00104100000000000000000000031208     
100   62921400041852190000000000080200000000080200002000000010410408110106560000472222220811222307000047   1030000100030000   701110900010777030900000008HOTEL 101              NPT           MMR11008110106560000470811000000000000000   10300009 00104100000000000000000000027268     
100   9503051889621021000000000016425000000016425000200000001041040811065850002054XIKU4A0811222313002054   1030000100030000   541160000001777031200000006MK FASHION             YGN           MMR11008110658500020540811000000000000000   10300002 00104100000000000000000000032850     
100   9503051021054271000000000000330000000000330000200000001041040811120221000638EB4FK20811222318000638   1030000100030000   541120003001777031200000030GAMONE PWINT (TGZ)     YGN           MMR11008111202210006380811000000000000000   10300002 00104100000000000000000000000660     
100   9503051022715094000000000001950000000001950000200000001041040811070239002735WNBZGG0811222313002735   1030000100030000   541120003106777031200000031GAMONE PWINT (BKLZ)    YGN           MMR11008110702390027350811000000000000000   10300002 00104100000000000000000000003900     
100   62346600185567670000000000037500000000037500002000000010410408110922340027433969120811222315002743   1030000100030000   541120003106777031200000031GAMONE PWINT (BKLZ)    YGN           MMR11008110922340027430811000000000000000   10300005 00104100000000000000000000007500     
100   35710500112042840000000000002200000000002200002000000010410408111001390003618704580811222316000361   1030000100030000   541120003114777031200000031GAMONE PWINT (BKLZ)    YGN           MMR11008111001390003610811000000000000000   10300005 00104100000000000000000000000440     
100   35710500164765640000000000015000000000015000002000000010410408110349200003581005340811222310000358   1030000100030000   541120003114777031200000031GAMONE PWINT (BKLZ)    YGN           MMR11008110349200003580811000000000000000   10300005 00104100000000000000000000003000     
100   9503190006571410000000000000180000000000180000200000001041040811051235000359XLXZ5L0811222311000359   1030000100030000   541120003114777031200000031GAMONE PWINT (BKLZ)    YGN           MMR11008110512350003590811000000000000000   10300014 00104100000000000000000000000360     
100   35710830332048910000000000002700000000002700002000000010410408111228420003622092400811222318000362   1030000100030000   541120003114777031200000031GAMONE PWINT (BKLZ)    YGN           MMR11008111228420003620811000000000000000   10300003 00104100000000000000000000000540     
100   95030518934718500000000000066000000000066000002000000010410408110923510000506AILLG0811222315000050   1030000100030000   701110900010777030900000008HOTEL 101              NPT           MMR11008110923510000500811000000000000000   10300002 00104100000000000000000000022440     
100   35710830913262300000000000027350000000027350002000000010410408110704290006350147100811222313000635   1030000100030000   541120003001777031200000030GAMONE PWINT (TGZ)     YGN           MMR11008110704290006350811000000000000000   10300003 00104100000000000000000000005470     
100   9503051885796835000000000001620000000001620000200000001041040811094942001403WOTN8O0811222316001403   1030000100030000   541120003008777031200000030GAMONE PWINT (TGZ)     YGN           MMR11008110949420014030811000000000000000   10300002 00104100000000000000000000003240     
100   35710500324218000000000000010650000000010650002000000010410408110643300006346478060811222313000634   1030000100030000   541120003001777031200000030GAMONE PWINT (TGZ)     YGN           MMR11008110643300006340811000000000000000   10300005 00104100000000000000000000002130     
100   35710830014937400000000000002900000000002900002000000010410408110456510009089381300811222311000908   1030000100030000   541120003005777031200000030GAMONE PWINT (TGZ)     YGN           MMR11008110456510009080811000000000000000   10300003 00104100000000000000000000000580     
100   35710500385916710000000000020680000000020680002000000010410408110810100017979879770811222314001797   1030000100030000   581250000001777031200000005AVENUE J COFFEE SHOP   YGN           MMR11008110810100017970811000000000000000   10300005 00104100000000000000000000007031     
100   35710500325054530000000000021650000000021650002000000010410408110919020003609316400811222315000360   1030000100030000   541120003114777031200000031GAMONE PWINT (BKLZ)    YGN           MMR11008110919020003600811000000000000000   10300005 00104100000000000000000000004330     
100   35710500335644670000000000017280000000017280002000000010410408110605420021344991050811222312002134   1030000100030000   541110001920777031200000019GAMONE PWINT (KBA)     YGN           MMR11008110605420021340811000000000000000   10300005 00104100000000000000000000003456     
100   62622000383468840000000000007250000000007250002000000010410408110502270009095573120811222311000909   1030000100030000   541120003005777031200000030GAMONE PWINT (TGZ)     YGN           MMR11008110502270009090811000000000000000   10300006 00104100000000000000000000001450     
100   9503051875434421000000000002995000000002995000200000001041040811044845002711J7CLTP0811222311002711   1030000100030000   541120003117777031200000031GAMONE PWINT (BKLZ)    YGN           MMR11008110448450027110811000000000000000   10300002 00104100000000000000000000005990     
100   62346600185567670000000000031000000000031000002000000010410408110849500027130232220811222315002713   1030000100030000   541120003117777031200000031GAMONE PWINT (BKLZ)    YGN           MMR11008110849500027130811000000000000000   10300005 00104100000000000000000000006200     
100   35710500333261980000000000044900000000044900002000000010410408111218300029371438090811222318002937   1030000100030000   541110001903777031200000019GAMONE PWINT (KBA)     YGN           MMR11008111218300029370811000000000000000   10300005 00104100000000000000000000008980     
100   62346600187870570000000000026000000000026000002000000010410408110441570027323778590811222311002732   1030000100030000   541120003106777031200000031GAMONE PWINT (BKLZ)    YGN           MMR11008110441570027320811000000000000000   10300005 00104100000000000000000000005200     
100   35710830004848490000000000059900000000059900002000000010410408110345470029248954920811222310002924   1030000100030000   541110001903777031200000019GAMONE PWINT (KBA)     YGN           MMR11008110345470029240811000000000000000   10300003 00104100000000000000000000011980     
100   35710500150741130000000000023000000000023000002000000010410408110901580048769022380811222315004876   1030000100030000   541110001907777031200000019GAMONE PWINT (KBA)     YGN           MMR11008110901580048760811000000000000000   10300005 00104100000000000000000000004600     
100   95030518893738390000000000033800000000033800002000000010410408110351020029266DYXHU0811222310002926   1030000100030000   541110001903777031200000019GAMONE PWINT (KBA)     YGN           MMR11008110351020029260811000000000000000   10300002 00104100000000000000000000006760     
100   9503051026407508000000000025575000000025575000200000001041040811112249002056RNVGGJ0811222317002056   1030000100030000   541160000001777031200000006MK FASHION             YGN           MMR11008111122490020560811000000000000000   10300002 00104100000000000000000000051150     
100   9503051025425568000000000002167600000002167600200000001041040811122303004888BR2VTJ0811222318004888   1030000100030000   541110001907777031200000019GAMONE PWINT (KBA)     YGN           MMR11008111223030048880811000000000000000   10300002 00104100000000000000000000004335     
100   9503190001661109000000000030000000000030000000200000001041040811041556002928WG3A9R0811222310002928   1030000100030000   541110001903777031200000019GAMONE PWINT (KBA)     YGN           MMR11008110415560029280811000000000000000   10300014 00104100000000000000000000060000     
100   9503051889566291000000000000495000000000495000200000001041040811110610001798YZOMFL0811222317001798   1030000100030000   581250000001777031200000005AVENUE J COFFEE SHOP   YGN           MMR11008111106100017980811000000000000000   10300002 00104100000000000000000000001683     
100   35710500381204480000000000004200000000004200002000000010410408110701120036911633280811222313003691   1030000100030000   541110001905777031200000019GAMONE PWINT (KBA)     YGN           MMR11008110701120036910811000000000000000   10300005 00104100000000000000000000000840     
100   9503051887621668000000000010838800000010838800200000001041040811081306003694QONTZS0811222314003694   1030000100030000   541110001905777031200000019GAMONE PWINT (KBA)     YGN           MMR11008110813060036940811000000000000000   10300002 00104100000000000000000000021678     
