100   62449600000252940000000000006600000000031500002021000010484008130705460006285326930813222513000628   10300001   35150104541120003012777031200000030GAMONE PWINT (TGZ)     YGN           MMR11008130705460006280813000000000000000   00010344F00104100000000000000000000037067     
100   62441903002759810000000000004900000000023400002021000010484008130716430006456792210813222513000645   10300001   35150104541120003001777031200000030GAMONE PWINT (TGZ)     YGN           MMR11008130716430006450813000000000000000   00010344F00104100000000000000000000028821     
100   62449600000252940000000000012100000000057800002021000010484008130659120005761248230813222513000576   10300001   35150104541120003013777031200000030GAMONE PWINT (TGZ)     YGN           MMR11008130659120005760813000000000000000   00010344F00104100000000000000000000063840     
100   62441903003568230000000000038500000000183900002021000010484008130721030005778963690813222513000577   10300001   35150104541120003013777031200000030GAMONE PWINT (TGZ)     YGN           MMR11008130721030005770813000000000000000   00010344F00104100000000000000000000192210     
100   62441903002759810000000000003072000000014700002021000010484008130656260014312993670813222513001431   10300001   35150104541120003008777031200000030GAMONE PWINT (TGZ)     YGN           MMR11008130656260014310813000000000000000   00010344F00104100000000000000000000019964     
