100   9503051887678502000000000000500000000000500000200000001041040814120853000382VH2YUO0814222618000382   1030000100030000   541120003114777031200000031GAMONE PWINT (BKLZ)    YGN           MMR11008141208530003820814000000000000000   10300002 00104100000000000000000000001000     
100   35710500305737270000000000018350000000018350002000000010410408140357180003767278070814222610000376   1030000100030000   541120003114777031200000031GAMONE PWINT (BKLZ)    YGN           MMR11008140357180003760814000000000000000   10300005 00104100000000000000000000003670     
100   62622000316755860000000000010450000000010450002000000010410408140507400003776000750814222611000377   1030000100030000   541120003114777031200000031GAMONE PWINT (BKLZ)    YGN           MMR11008140507400003770814000000000000000   10300006 00104100000000000000000000002090     
100   35710830414974950000000000012500000000012500002000000010410408140551290003785629110814222612000378   1030000100030000   541120003114777031200000031GAMONE PWINT (BKLZ)    YGN           MMR11008140551290003780814000000000000000   10300003 00104100000000000000000000002500     
100   9503051025699071000000000000770000000000770000200000001041040814074900001809QQ8SHX0814222614001809   1030000100030000   581250000001777031200000005AVENUE J COFFEE SHOP   YGN           MMR11008140749000018090814000000000000000   10300002 00104100000000000000000000002618     
100   95030518973353330000000000053600000000053600002000000010410408140718020022057NAB3S0814222613002205   1030000100030000   541110001915777031200000019GAMONE PWINT (KBA)     YGN           MMR11008140718020022050814000000000000000   10300002 00104100000000000000000000010720     
100   9503190003635317000000000001620000000001620000200000001041040814085147000588M1K0EY0814222615000588   1030000100030000   541120003013777031200000030GAMONE PWINT (TGZ)     YGN           MMR11008140851470005880814000000000000000   10300014 00104100000000000000000000003240     
100   95031800645584410000000000007450000000007450002000000010410408141131180006537746150814222618000653   1030000100030000   541120003001777031200000030GAMONE PWINT (TGZ)     YGN           MMR11008141131180006530814000000000000000   10300013 00104100000000000000000000001490     
100   9503051020953572000000000004580000000004580000200000001041040814071521001179ZNMZVH0814222613001179   1030000100030000   541120003103777031200000031GAMONE PWINT (BKLZ)    YGN           MMR11008140715210011790814000000000000000   10300002 00104100000000000000000000009160     
100   62622000121863140000000000009450000000009450002000000010410408140336240021956406160814222610002195   1030000100030000   541110001915777031200000019GAMONE PWINT (KBA)     YGN           MMR11008140336240021950814000000000000000   10300006 00104100000000000000000000001890     
100   35710500393837630000000000026800000000026800002000000010410408141158210029964012690814222618002996   1030000100030000   541110001903777031200000019GAMONE PWINT (KBA)     YGN           MMR11008141158210029960814000000000000000   10300005 00104100000000000000000000005360     
100   35710500393837630000000000020800000000020800002000000010410408141203240029973260610814222618002997   1030000100030000   541110001903777031200000019GAMONE PWINT (KBA)     YGN           MMR11008141203240029970814000000000000000   10300005 00104100000000000000000000004160     
100   35710830843474900000000000004500000000004500002000000010410408140350450011564904710814222610001156   1030000100030000   541120003104777031200000031GAMONE PWINT (BKLZ)    YGN           MMR11008140350450011560814000000000000000   10300003 00104100000000000000000000000900     
100   35710500385905580000000000039060000000039060002000000010410408140815050018103805110814222614001810   1030000100030000   581250000001777031200000005AVENUE J COFFEE SHOP   YGN           MMR11008140815050018100814000000000000000   10300005 00104100000000000000000000013280     
100   35710830509556070000000000012550000000012550002000000010410408140810460021636464710814222614002163   1030000100030000   541110001920777031200000019GAMONE PWINT (KBA)     YGN           MMR11008140810460021630814000000000000000   10300003 00104100000000000000000000002510     
100   9503190007082086000000000001754500000001754500200000001041040814082226001811S9JJZ50814222614001811   1030000100030000   581250000001777031200000005AVENUE J COFFEE SHOP   YGN           MMR11008140822260018110814000000000000000   10300014 00104100000000000000000000005965     
100   9503051886926647000000000001270000000001270000200000001041040814074123002207TNC0LQ0814222614002207   1030000100030000   541110001915777031200000019GAMONE PWINT (KBA)     YGN           MMR11008140741230022070814000000000000000   10300002 00104100000000000000000000002540     
100   35710830252722290000000000007500000000007500002000000010410408140916380022136860010814222615002213   1030000100030000   541110001915777031200000019GAMONE PWINT (KBA)     YGN           MMR11008140916380022130814000000000000000   10300003 00104100000000000000000000001500     
100   62441900103173390000000000011472000000011472002000000010410408140919390022169855610814222615002216   1030000100030000   541110001915777031200000019GAMONE PWINT (KBA)     YGN           MMR11008140919390022160814000000000000000   10300003 00104100000000000000000000004015     
100   35710500300031540000000000063000000000063000002000000010410408141202270011814984400814222618001181   1030000100030000   541120003103777031200000031GAMONE PWINT (BKLZ)    YGN           MMR11008141202270011810814000000000000000   10300005 00104100000000000000000000012600     
100   9503051885734745000000000004190000000004190000200000001041040814073607001158ILHJC60814222614001158   1030000100030000   541120003104777031200000031GAMONE PWINT (BKLZ)    YGN           MMR11008140736070011580814000000000000000   10300002 00104100000000000000000000008380     
100   9503051885734745000000000000380000000000380000200000001041040814073710001159371RKA0814222614001159   1030000100030000   541120003104777031200000031GAMONE PWINT (BKLZ)    YGN           MMR11008140737100011590814000000000000000   10300002 00104100000000000000000000000760     
100   9503051020004368000000000001705000000001705000200000001041040814045945002197IHVQDP0814222611002197   1030000100030000   541110001915777031200000019GAMONE PWINT (KBA)     YGN           MMR11008140459450021970814000000000000000   10300002 00104100000000000000000000003410     
100   35710500185642190000000000035500000000035500002000000010410408140630410027360412680814222613002736   1030000100030000   541120003117777031200000031GAMONE PWINT (BKLZ)    YGN           MMR11008140630410027360814000000000000000   10300005 00104100000000000000000000007100     
100   35710830331368380000000000022600000000022600002000000010410408140639060027375914710814222613002737   1030000100030000   541120003117777031200000031GAMONE PWINT (BKLZ)    YGN           MMR11008140639060027370814000000000000000   10300003 00104100000000000000000000004520     
100   35710500360350930000000000021500000000021500002000000010410408140642280027389227050814222613002738   1030000100030000   541120003117777031200000031GAMONE PWINT (BKLZ)    YGN           MMR11008140642280027380814000000000000000   10300005 00104100000000000000000000004300     
100   35710500364831370000000000056300000000056300002000000010410408141208450030016615020814222618003001   1030000100030000   541110001903777031200000019GAMONE PWINT (KBA)     YGN           MMR11008141208450030010814000000000000000   10300005 00104100000000000000000000011260     
100   35710830229952280000000000026000000000026000002000000010410408140712040005836112610814222613000583   1030000100030000   541120003013777031200000030GAMONE PWINT (TGZ)     YGN           MMR11008140712040005830814000000000000000   10300003 00104100000000000000000000005200     
100   9503051026093811000000000000755000000000755000200000001041040814074931001161XR4H3Q0814222614001161   1030000100030000   541120003104777031200000031GAMONE PWINT (BKLZ)    YGN           MMR11008140749310011610814000000000000000   10300002 00104100000000000000000000001510     
100   9503051885845269000000000001606000000001606000200000001041040814102756001812AQXAGH0814222616001812   1030000100030000   581250000001777031200000005AVENUE J COFFEE SHOP   YGN           MMR11008141027560018120814000000000000000   10300002 00104100000000000000000000005460     
100   9503051884729316000000000001200000000001200000200000001041040814092424002167YABQ670814222615002167   1030000100030000   541110001920777031200000019GAMONE PWINT (KBA)     YGN           MMR11008140924240021670814000000000000000   10300002 00104100000000000000000000002400     
100   9503051892193182000000000014850000000014850000200000001041040814064431002739RYGNYK0814222613002739   1030000100030000   541120003117777031200000031GAMONE PWINT (BKLZ)    YGN           MMR11008140644310027390814000000000000000   10300002 00104100000000000000000000029700     
100   35710500355044790000000000020735000000020735002000000010410408141031400018139130120814222617001813   1030000100030000   581250000001777031200000005AVENUE J COFFEE SHOP   YGN           MMR11008141031400018130814000000000000000   10300005 00104100000000000000000000007050     
100   9503190006120242000000000001350000000001350000200000001041040814102630002171T5LK530814222616002171   1030000100030000   541110001920777031200000019GAMONE PWINT (KBA)     YGN           MMR11008141026300021710814000000000000000   10300014 00104100000000000000000000002700     
100   35710500371336160000000000155820000000155820002000000010410408140757470022112366540814222614002211   1030000100030000   541110001915777031200000019GAMONE PWINT (KBA)     YGN           MMR11008140757470022110814000000000000000   10300005 00104100000000000000000000031164     
100   35710830594095980000000000016500000000016500002000000010410408140626090008545837030814222612000854   1030000100030000   541120003111777031200000031GAMONE PWINT (BKLZ)    YGN           MMR11008140626090008540814000000000000000   10300003 00104100000000000000000000003300     
100   35710830085922210000000000019900000000019900002000000010410408140513010027875398310814222611002787   1030000100030000   541120003106777031200000031GAMONE PWINT (BKLZ)    YGN           MMR11008140513010027870814000000000000000   10300003 00104100000000000000000000003980     
100   35710500360350930000000000037300000000037300002000000010410408140704090027429935400814222613002742   1030000100030000   541120003117777031200000031GAMONE PWINT (BKLZ)    YGN           MMR11008140704090027420814000000000000000   10300005 00104100000000000000000000007460     
100   35710830556457730000000000053800000000053800002000000010410408140809560027436459810814222614002743   1030000100030000   541120003117777031200000031GAMONE PWINT (BKLZ)    YGN           MMR11008140809560027430814000000000000000   10300003 00104100000000000000000000010760     
100   35710500375679870000000000017600000000017600002000000010410408140855050027441600280814222615002744   1030000100030000   541120003117777031200000031GAMONE PWINT (BKLZ)    YGN           MMR11008140855050027440814000000000000000   10300005 00104100000000000000000000003520     
100   62441900101633030000000000024150000000024150002000000010410408141201000011664049090814222618001166   1030000100030000   541120003104777031200000031GAMONE PWINT (BKLZ)    YGN           MMR11008141201000011660814000000000000000   10300003 00104100000000000000000000008452     
100   35710500340460840000000000011550000000011550002000000010410408141201540018143502110814222618001814   1030000100030000   581250000001777031200000005AVENUE J COFFEE SHOP   YGN           MMR11008141201540018140814000000000000000   10300005 00104100000000000000000000003927     
100   35710500321227210000000000021100000000021100002000000010410408141149120027457954700814222618002745   1030000100030000   541120003117777031200000031GAMONE PWINT (BKLZ)    YGN           MMR11008141149120027450814000000000000000   10300005 00104100000000000000000000004220     
100   9503051887678502000000000001340000000001340000200000001041040814123104002746DANCGE0814222619002746   1030000100030000   541120003117777031200000031GAMONE PWINT (BKLZ)    YGN           MMR11008141231040027460814000000000000000   10300002 00104100000000000000000000002680     
100   35710900062105080000000000015000000000015000002000000010410408140513570029745403820814222611002974   1030000100030000   541110001903777031200000019GAMONE PWINT (KBA)     YGN           MMR11008140513570029740814000000000000000   10300003 00104100000000000000000000003000     
100   62921400047584520000000000050300000000050300002000000010410408140716260029762222220814222613002976   1030000100030000   541110001903777031200000019GAMONE PWINT (KBA)     YGN           MMR11008140716260029760814000000000000000   10300009 00104100000000000000000000010060     
100   35710830331368380000000000022000000000022000002000000010410408140646240008565958510814222613000856   1030000100030000   541120003111777031200000031GAMONE PWINT (BKLZ)    YGN           MMR11008140646240008560814000000000000000   10300003 00104100000000000000000000004400     
100   9503051885791745000000000001800000000001800000200000001041040814074941000585E54FJT0814222614000585   1030000100030000   541120003013777031200000030GAMONE PWINT (TGZ)     YGN           MMR11008140749410005850814000000000000000   10300002 00104100000000000000000000003600     
100   95030800085191700000000000056900000000056900002000000010410408140649130027895975500814222613002789   1030000100030000   541120003106777031200000031GAMONE PWINT (BKLZ)    YGN           MMR11008140649130027890814000000000000000   10300003 00104100000000000000000000011380     
100   9503054000679514000000000003950000000003950000200000001041040814084220002793EPHU9Z0814222615002793   1030000100030000   541120003106777031200000031GAMONE PWINT (BKLZ)    YGN           MMR11008140842200027930814000000000000000   10300002 00104100000000000000000000007900     
100   35710500363679000000000000027000000000027000002000000010410408140851140027957650190814222615002795   1030000100030000   541120003106777031200000031GAMONE PWINT (BKLZ)    YGN           MMR11008140851140027950814000000000000000   10300005 00104100000000000000000000005400     
100   9503051894640818000000000000320000000000320000200000001041040814090748001452F0GNMF0814222615001452   1030000100030000   541120003008777031200000030GAMONE PWINT (TGZ)     YGN           MMR11008140907480014520814000000000000000   10300002 00104100000000000000000000000640     
100   35710830870232880000000000036350000000036350002000000010410408141028260014547290810814222616001454   1030000100030000   541120003008777031200000030GAMONE PWINT (TGZ)     YGN           MMR11008141028260014540814000000000000000   10300003 00104100000000000000000000007270     
100   35710900146081310000000000021230000000021230002000000010410408141204160018157865720814222618001815   1030000100030000   581250000001777031200000005AVENUE J COFFEE SHOP   YGN           MMR11008141204160018150814000000000000000   10300003 00104100000000000000000000007218     
100   9503051891606085000000000002167000000002167000200000001041040814120533001816GCFZ4E0814222618001816   1030000100030000   581250000001777031200000005AVENUE J COFFEE SHOP   YGN           MMR11008141205330018160814000000000000000   10300002 00104100000000000000000000007368     
100   9503051025131547000000000003580000000003580000200000001041040814080138002982LPQMFT0814222614002982   1030000100030000   541110001903777031200000019GAMONE PWINT (KBA)     YGN           MMR11008140801380029820814000000000000000   10300002 00104100000000000000000000007160     
100   9503051885064382000000000005688000000005688000200000001041040814103148002219AZPJCE0814222617002219   1030000100030000   541110001915777031200000019GAMONE PWINT (KBA)     YGN           MMR11008141031480022190814000000000000000   10300002 00104100000000000000000000011376     
100   9503051875035905000000000001160000000001160000200000001041040814104017002221GZSV7Z0814222617002221   1030000100030000   541110001915777031200000019GAMONE PWINT (KBA)     YGN           MMR11008141040170022210814000000000000000   10300002 00104100000000000000000000002320     
100   35710830247899590000000000018900000000018900002000000010410408140441350027325209610814222611002732   1030000100030000   541120003117777031200000031GAMONE PWINT (BKLZ)    YGN           MMR11008140441350027320814000000000000000   10300003 00104100000000000000000000003780     
100   9503051894728209000000000002300000000002300000200000001041040814060046000379OZUJHQ0814222612000379   1030000100030000   541120003114777031200000031GAMONE PWINT (BKLZ)    YGN           MMR11008140600460003790814000000000000000   10300002 00104100000000000000000000004600     
100   35710830843474900000000000023000000000023000002000000010410408140519060011755434710814222611001175   1030000100030000   541120003103777031200000031GAMONE PWINT (BKLZ)    YGN           MMR11008140519060011750814000000000000000   10300003 00104100000000000000000000004600     
100   62343302004798930000000000004900000000004900002000000010410408140711560022034990870814222613002203   1030000100030000   541110001915777031200000019GAMONE PWINT (KBA)     YGN           MMR11008140711560022030814000000000000000   10300004 00104100000000000000000000000980     
100   950305188924404800000000000110000000000110000020000000104104081409232300279752RCYV0814222615002797   1030000100030000   541120003106777031200000031GAMONE PWINT (BKLZ)    YGN           MMR11008140923230027970814000000000000000   10300002 00104100000000000000000000002200     
100   95030518963031420000000000052000000000052000002000000010410408141103350027986KTS4V0814222617002798   1030000100030000   541120003106777031200000031GAMONE PWINT (BKLZ)    YGN           MMR11008141103350027980814000000000000000   10300002 00104100000000000000000000010400     
100   9503051885791745000000000000930000000000930000200000001041040814075553000586EOYGB50814222614000586   1030000100030000   541120003013777031200000030GAMONE PWINT (TGZ)     YGN           MMR11008140755530005860814000000000000000   10300002 00104100000000000000000000001860     
100   35710830913262300000000000031350000000031350002000000010410408140839590006526640010814222615000652   1030000100030000   541120003001777031200000030GAMONE PWINT (TGZ)     YGN           MMR11008140839590006520814000000000000000   10300003 00104100000000000000000000006270     
100   9503051024367811000000000002250000000002250000200000001041040814101007000857JAHF200814222616000857   1030000100030000   541120003111777031200000031GAMONE PWINT (BKLZ)    YGN           MMR11008141010070008570814000000000000000   10300002 00104100000000000000000000004500     
100   9503190001299892000000000004230000000004230000200000001041040814070156001177V6MSSW0814222613001177   1030000100030000   541120003103777031200000031GAMONE PWINT (BKLZ)    YGN           MMR11008140701560011770814000000000000000   10300014 00104100000000000000000000008460     
100   62622000316755860000000000012000000000012000002000000010410408140444540027336844300814222611002733   1030000100030000   541120003117777031200000031GAMONE PWINT (BKLZ)    YGN           MMR11008140444540027330814000000000000000   10300006 00104100000000000000000000002400     
100   9503051025644440000000000003100000000003100000200000001041040814050103002734A2JXPZ0814222611002734   1030000100030000   541120003117777031200000031GAMONE PWINT (BKLZ)    YGN           MMR11008140501030027340814000000000000000   10300002 00104100000000000000000000006200     
100   9503051887809560000000000001580000000001580000200000001041040814100904002988I8XGRI0814222616002988   1030000100030000   541110001903777031200000019GAMONE PWINT (KBA)     YGN           MMR11008141009040029880814000000000000000   10300002 00104100000000000000000000003160     
100   35710500105284440000000000058000000000058000002000000010410408141034420029908037660814222617002990   1030000100030000   541110001903777031200000019GAMONE PWINT (KBA)     YGN           MMR11008141034420029900814000000000000000   10300005 00104100000000000000000000011600     
100   9503051020686164000000000005760000000005760000200000001041040814105923002992O4VCOE0814222617002992   1030000100030000   541110001903777031200000019GAMONE PWINT (KBA)     YGN           MMR11008141059230029920814000000000000000   10300002 00104100000000000000000000011520     
100   9503051020686164000000000006860000000006860000200000001041040814112846002994UONY4T0814222617002994   1030000100030000   541110001903777031200000019GAMONE PWINT (KBA)     YGN           MMR11008141128460029940814000000000000000   10300002 00104100000000000000000000013720     
100   62441900102520640000000000024365000000024365002000000010410408140435070018089701270814222611001808   1030000100030000   581250000001777031200000005AVENUE J COFFEE SHOP   YGN           MMR11008140435070018080814000000000000000   10300003 00104100000000000000000000014497     
100   9503051025679578000000000002130000000002130000200000001041040814105725002223AWOYSZ0814222617002223   1030000100030000   541110001915777031200000019GAMONE PWINT (KBA)     YGN           MMR11008141057250022230814000000000000000   10300002 00104100000000000000000000004260     
100   35710500140660450000000000026200000000026200002000000010410408140511060027351195860814222611002735   1030000100030000   541120003117777031200000031GAMONE PWINT (BKLZ)    YGN           MMR11008140511060027350814000000000000000   10300005 00104100000000000000000000005240     
100   35710830509556070000000000046250000000046250002000000010410408140755360050196373710814222614005019   1030000100030000   541110001907777031200000019GAMONE PWINT (KBA)     YGN           MMR11008140755360050190814000000000000000   10300003 00104100000000000000000000009250     
100   9503051025218492000000000001318100000001318100200000001041040814103129005034PH7XJR0814222617005034   1030000100030000   541110001907777031200000019GAMONE PWINT (KBA)     YGN           MMR11008141031290050340814000000000000000   10300002 00104100000000000000000000002636     
100   35710500333416270000000000003185000000003185002000000010410408141036460050362654730814222617005036   1030000100030000   541110001907777031200000019GAMONE PWINT (KBA)     YGN           MMR11008141036460050360814000000000000000   10300005 00104100000000000000000000000637     
100   35710500344290820000000000006500000000006500002000000010410408140653150050020610450814222613005002   1030000100030000   541110001907777031200000019GAMONE PWINT (KBA)     YGN           MMR11008140653150050020814000000000000000   10300005 00104100000000000000000000001300     
100   35710830612567060000000000001200000000001200002000000010410408140700170050056041820814222613005005   1030000100030000   541110001907777031200000019GAMONE PWINT (KBA)     YGN           MMR11008140700170050050814000000000000000   10300003 00104100000000000000000000000240     
100   9503051887809560000000000002450000000002450000200000001041040814100434005028SJTIPT0814222616005028   1030000100030000   541110001907777031200000019GAMONE PWINT (KBA)     YGN           MMR11008141004340050280814000000000000000   10300002 00104100000000000000000000004900     
100   95031100015654720000000000290000000000290000002000000010410408141038470050396825890814222617005039   1030000100030000   541110001907777031200000019GAMONE PWINT (KBA)     YGN           MMR11008141038470050390814000000000000000   10300006 00104100000000000000000000058000     
100   950305102521849200000000000142100000000142100020000000104104081411114400504111QRKA0814222617005041   1030000100030000   541110001907777031200000019GAMONE PWINT (KBA)     YGN           MMR11008141111440050410814000000000000000   10300002 00104100000000000000000000002842     
100   35710851307242000000000000029547000000029547002000000010410408140702440050076056510814222613005007   1030000100030000   541110001907777031200000019GAMONE PWINT (KBA)     YGN           MMR11008140702440050070814000000000000000   10300003 00104100000000000000000000005910     
100   95051010106049620000000000016800000000016800002000000010410408141156230050456587440814222618005045   1030000100030000   541110001907777031200000019GAMONE PWINT (KBA)     YGN           MMR11008141156230050450814000000000000000   10300005 00104100000000000000000000005880     
100   35710830503000930000000000028200000000028200002000000010410408141225190050497992010814222618005049   1030000100030000   541110001907777031200000019GAMONE PWINT (KBA)     YGN           MMR11008141225190050490814000000000000000   10300003 00104100000000000000000000005640     
100   35710830107294800000000000008134000000008134002000000010410408140539490037385559110814222612003738   1030000100030000   541110001905777031200000019GAMONE PWINT (KBA)     YGN           MMR11008140539490037380814000000000000000   10300003 00104100000000000000000000001627     
100   9503051887662829000000000001750000000001750000200000001041040814073312005011YRECJY0814222614005011   1030000100030000   541110001907777031200000019GAMONE PWINT (KBA)     YGN           MMR11008140733120050110814000000000000000   10300002 00104100000000000000000000003500     
100   9503051023334887000000000002400000000002400000200000001041040814074029005014ACSQLX0814222614005014   1030000100030000   541110001907777031200000019GAMONE PWINT (KBA)     YGN           MMR11008140740290050140814000000000000000   10300002 00104100000000000000000000004800     
100   35710500345775260000000000029000000000029000002000000010410408140414480027312880640814222610002731   1030000100030000   541120003117777031200000031GAMONE PWINT (BKLZ)    YGN           MMR11008140414480027310814000000000000000   10300005 00104100000000000000000000005800     
100   35710830799071910000000000005400000000005400002000000010410408140734160037416245820814222614003741   1030000100030000   541110001905777031200000019GAMONE PWINT (KBA)     YGN           MMR11008140734160037410814000000000000000   10300003 00104100000000000000000000001080     
100   95030510227056570000000000006970000000006970002000000010410408141117530037432LLAU30814222617003743   1030000100030000   541110001905777031200000019GAMONE PWINT (KBA)     YGN           MMR11008141117530037430814000000000000000   10300002 00104100000000000000000000001394     
100   35710830503000930000000000099000000000099000002000000010410408141139220037457716310814222618003745   1030000100030000   541110001905777031200000019GAMONE PWINT (KBA)     YGN           MMR11008141139220037450814000000000000000   10300003 00104100000000000000000000019800     
100   35710500364831370000000000058000000000058000002000000010410408141152080037474729110814222618003747   1030000100030000   541110001905777031200000019GAMONE PWINT (KBA)     YGN           MMR11008141152080037470814000000000000000   10300005 00104100000000000000000000011600     
100   35710500333626150000000000014112000000014112002000000010410408140753390050161515580814222614005016   1030000100030000   541110001907777031200000019GAMONE PWINT (KBA)     YGN           MMR11008140753390050160814000000000000000   10300005 00104100000000000000000000002822     
100   35710500393514630000000000274000000000274000002000000010410408140831460050223797030814222615005022   1030000100030000   541110001907777031200000019GAMONE PWINT (KBA)     YGN           MMR11008140831460050220814000000000000000   10300005 00104100000000000000000000054800     
100   35710500371336160000000000094400000000094400002000000010410408140725540029782568630814222613002978   1030000100030000   541110001903777031200000019GAMONE PWINT (KBA)     YGN           MMR11008140725540029780814000000000000000   10300005 00104100000000000000000000018880     
100   35710830227755880000000000011250000000011250002000000010410408140901290050266769110814222615005026   1030000100030000   541110001907777031200000019GAMONE PWINT (KBA)     YGN           MMR11008140901290050260814000000000000000   10300003 00104100000000000000000000002250     
100   9503051024943280000000000002385000000002385000200000001041040814101610005031FGVBJL0814222616005031   1030000100030000   541110001907777031200000019GAMONE PWINT (KBA)     YGN           MMR11008141016100050310814000000000000000   10300002 00104100000000000000000000004770     
