100   9503051885045696000000000000550000000000550000200000001041040813122446000938DBQ2VS0813222518000938   1030000100030000   541120003005777031200000030GAMONE PWINT (TGZ)     YGN           MMR11008131224460009380813000000000000000   10300002 00104100000000000000000000001100     
100   9503051884936077000000000002420000000002420000200000001041040813053807001424CFQQW30813222512001424   1030000100030000   541120003008777031200000030GAMONE PWINT (TGZ)     YGN           MMR11008130538070014240813000000000000000   10300002 00104100000000000000000000004840     
100   35710830363648330000000000011600000000011600002000000010410408130612520014277117400813222512001427   1030000100030000   541120003008777031200000030GAMONE PWINT (TGZ)     YGN           MMR11008130612520014270813000000000000000   10300003 00104100000000000000000000002320     
100   9503051872531658000000000002950000000002950000200000001041040813061415001429JZUTCP0813222512001429   1030000100030000   541120003008777031200000030GAMONE PWINT (TGZ)     YGN           MMR11008130614150014290813000000000000000   10300002 00104100000000000000000000005900     
100   62441900102000550000000000006050000000006050002000000010410408130813110003749059300813222514000374   1030000100030000   541120003114777031200000031GAMONE PWINT (BKLZ)    YGN           MMR11008130813110003740813000000000000000   10300003 00104100000000000000000000002117     
100   35710851711947920000000000017000000000017000002000000010410408130954470004968448900813222516000496   1030000100030000   541110001917777031200000019GAMONE PWINT (KBA)     YGN           MMR11008130954470004960813000000000000000   10300003 00104100000000000000000000003400     
100   95030518977251600000000000025200000000025200002000000010410408131114560004994CYAQY0813222517000499   1030000100030000   541110001917777031200000019GAMONE PWINT (KBA)     YGN           MMR11008131114560004990813000000000000000   10300002 00104100000000000000000000005040     
100   35710830975643540000000000016800000000016800002000000010410408130625300008487193130813222512000848   1030000100030000   541120003111777031200000031GAMONE PWINT (BKLZ)    YGN           MMR11008130625300008480813000000000000000   10300003 00104100000000000000000000003360     
100   95031900019006550000000000061900000000061900002000000010410408130527110004920Z680L0813222511000492   1030000100030000   541110001917777031200000019GAMONE PWINT (KBA)     YGN           MMR11008130527110004920813000000000000000   10300014 00104100000000000000000000012380     
100   35710500334769360000000000035084000000035084002000000010410408130802050014353705430813222514001435   1030000100030000   541120003008777031200000030GAMONE PWINT (TGZ)     YGN           MMR11008130802050014350813000000000000000   10300005 00104100000000000000000000007017     
100   35710500324040530000000000023000000000023000002000000010410408130602200003702064380813222512000370   1030000100030000   541120003114777031200000031GAMONE PWINT (BKLZ)    YGN           MMR11008130602200003700813000000000000000   10300005 00104100000000000000000000004600     
100   95030701000163810000000000005684000000005684002000000010410408130601220009314979610813222512000931   1030000100030000   541120003005777031200000030GAMONE PWINT (TGZ)     YGN           MMR11008130601220009310813000000000000000   10200004 00104100000000000000000000001137     
100   9503190003156298000000000003709300000003709300200000001041040813082856000932I7VWXF0813222514000932   1030000100030000   541120003005777031200000030GAMONE PWINT (TGZ)     YGN           MMR11008130828560009320813000000000000000   10300014 00104100000000000000000000007419     
100   9503051026207262000000000002550000000002550000200000001041040813081150000578MJCILF0813222514000578   1030000100030000   541120003013777031200000030GAMONE PWINT (TGZ)     YGN           MMR11008130811500005780813000000000000000   10300002 00104100000000000000000000005100     
100   35710900256887000000000000031900000000031900002000000010410408131017200011518584110813222516001151   1030000100030000   541120003104777031200000031GAMONE PWINT (BKLZ)    YGN           MMR11008131017200011510813000000000000000   10300003 00104100000000000000000000006380     
100   35710500341910210000000000018000000000018000002000000010410408131041560006362095490813222517000636   1030000100030000   541120003012777031200000030GAMONE PWINT (TGZ)     YGN           MMR11008131041560006360813000000000000000   10300005 00104100000000000000000000003600     
100   9503051025645363000000000001400000000001400000200000001041040813074314000849LJ89E10813222514000849   1030000100030000   541120003111777031200000031GAMONE PWINT (BKLZ)    YGN           MMR11008130743140008490813000000000000000   10300002 00104100000000000000000000002800     
100   35710900256887000000000000003400000000003400002000000010410408131018130011528589420813222516001152   1030000100030000   541120003104777031200000031GAMONE PWINT (BKLZ)    YGN           MMR11008131018130011520813000000000000000   10300003 00104100000000000000000000000680     
100   9503051026207262000000000001300000000001300000200000001041040813083809001437YSRTHT0813222515001437   1030000100030000   541120003008777031200000030GAMONE PWINT (TGZ)     YGN           MMR11008130838090014370813000000000000000   10300002 00104100000000000000000000002600     
100   35710830363648330000000000019000000000019000002000000010410408130608560006277093710813222512000627   1030000100030000   541120003012777031200000030GAMONE PWINT (TGZ)     YGN           MMR11008130608560006270813000000000000000   10300003 00104100000000000000000000003800     
100   95030800069620180000000000017500000000017500002000000010410408130714310006317487300813222513000631   1030000100030000   541120003012777031200000030GAMONE PWINT (TGZ)     YGN           MMR11008130714310006310813000000000000000   10300003 00104100000000000000000000003500     
100   35710830678545950000000000147950000000147950002000000010410408131040100006498721200813222517000649   1030000100030000   541120003001777031200000030GAMONE PWINT (TGZ)     YGN           MMR11008131040100006490813000000000000000   10300003 00104100000000000000000000029590     
100   62622000371467150000000000155200000000155200002000000010410408131305490000615991080813222519000061   1030000100030000   701120003701777031200000037PRINCE HOTEL YANGON    YGN           MMR11008131305490000610813000000000000000   10300006 00104100000000000000000000052768     
100   35710500355039010000000000016320000000016320002000000010410408131050230005799386200813222517000579   1030000100030000   541120003013777031200000030GAMONE PWINT (TGZ)     YGN           MMR11008131050230005790813000000000000000   10300005 00104100000000000000000000003264     
100   35710500341910210000000000035168000000035168002000000010410408131138140006509040100813222518000650   1030000100030000   541120003001777031200000030GAMONE PWINT (TGZ)     YGN           MMR11008131138140006500813000000000000000   10300005 00104100000000000000000000007034     
100   9503051024997278000000000006300000000006300000200000001041040813043858001168RCQEXP0813222511001168   1030000100030000   541120003103777031200000031GAMONE PWINT (BKLZ)    YGN           MMR11008130438580011680813000000000000000   10300002 00104100000000000000000000012600     
100   9503051890384551000000000004580000000004580000200000001041040813112920002967HXJEFJ0813222517002967   1030000100030000   541110001903777031200000019GAMONE PWINT (KBA)     YGN           MMR11008131129200029670813000000000000000   10300002 00104100000000000000000000009160     
100   35710500343070150000000000012650000000012650002000000010410408131001150011493005160813222516001149   1030000100030000   541120003104777031200000031GAMONE PWINT (BKLZ)    YGN           MMR11008131001150011490813000000000000000   10300005 00104100000000000000000000002530     
100   95031900023694390000000000017490000000017490002000000010410408130608550018013S9PZR0813222512001801   1030000100030000   581250000001777031200000005AVENUE J COFFEE SHOP   YGN           MMR11008130608550018010813000000000000000   10300014 00104100000000000000000000005947     
100   35710830853086400000000000017985000000017985002000000010410408130823040018037898610813222514001803   1030000100030000   581250000001777031200000005AVENUE J COFFEE SHOP   YGN           MMR11008130823040018030813000000000000000   10300003 00104100000000000000000000006115     
100   62921400041780570000000000010450000000010450002000000010410408131119370018052222220813222517001805   1030000100030000   581250000001777031200000005AVENUE J COFFEE SHOP   YGN           MMR11008131119370018050813000000000000000   10300009 00104100000000000000000000003553     
100   35710830229954830000000000017450000000017450002000000010410408131200540018069205600813222518001806   1030000100030000   581250000001777031200000005AVENUE J COFFEE SHOP   YGN           MMR11008131200540018060813000000000000000   10300003 00104100000000000000000000005933     
100   35710830095058420000000000009295000000009295002000000010410408130722040018027532510813222513001802   1030000100030000   581250000001777031200000005AVENUE J COFFEE SHOP   YGN           MMR11008130722040018020813000000000000000   10300003 00104100000000000000000000003160     
100   35710500304333100000000000038445000000038445002000000010410408130946210018041920770813222516001804   1030000100030000   581250000001777031200000005AVENUE J COFFEE SHOP   YGN           MMR11008130946210018040813000000000000000   10300005 00104100000000000000000000013071     
100   35710500333383180000000000007800000000007800002000000010410408131245100014499856820813222519001449   1030000100030000   541120003008777031200000030GAMONE PWINT (TGZ)     YGN           MMR11008131245100014490813000000000000000   10300005 00104100000000000000000000001560     
100   62921400051371440000000000029650000000029650002000000010410408130609250021672222220813222512002167   1030000100030000   541110001915777031200000019GAMONE PWINT (KBA)     YGN           MMR11008130609250021670813000000000000000   10300009 00104100000000000000000000005930     
100   35711450000122580000000000025000000000025000002000000010410408130821100021699588720813222514002169   1030000100030000   541110001915777031200000019GAMONE PWINT (KBA)     YGN           MMR11008130821100021690813000000000000000   10200001 00104100000000000000000000005000     
100   95030518728045840000000000006100000000006100002000000010410408130850440021714ORFXW0813222515002171   1030000100030000   541110001915777031200000019GAMONE PWINT (KBA)     YGN           MMR11008130850440021710813000000000000000   10300002 00104100000000000000000000001220     
100   9503051872804584000000000002150000000002150000200000001041040813090100002173QQPBVX0813222515002173   1030000100030000   541110001915777031200000019GAMONE PWINT (KBA)     YGN           MMR11008130901000021730813000000000000000   10300002 00104100000000000000000000004300     
100   9503051886987789000000000000870000000000870000200000001041040813090221002175AGXLYU0813222515002175   1030000100030000   541110001915777031200000019GAMONE PWINT (KBA)     YGN           MMR11008130902210021750813000000000000000   10300002 00104100000000000000000000001740     
100   9503051022364943000000000001500000000001500000200000001041040813091130002177VAK14Q0813222515002177   1030000100030000   541110001915777031200000019GAMONE PWINT (KBA)     YGN           MMR11008130911300021770813000000000000000   10300002 00104100000000000000000000003000     
100   95030510250156580000000000003200000000003200002000000010410408131001020021797XX0TF0813222516002179   1030000100030000   541110001915777031200000019GAMONE PWINT (KBA)     YGN           MMR11008131001020021790813000000000000000   10300002 00104100000000000000000000000640     
100   95031900065871920000000000001824000000001824002000000010410408131023530021819U0C500813222516002181   1030000100030000   541110001915777031200000019GAMONE PWINT (KBA)     YGN           MMR11008131023530021810813000000000000000   10300014 00104100000000000000000000000365     
100   9503051891500015000000000000489600000000489600200000001041040813110114002186RDHWNS0813222517002186   1030000100030000   541110001915777031200000019GAMONE PWINT (KBA)     YGN           MMR11008131101140021860813000000000000000   10300002 00104100000000000000000000000979     
100   62622000528065320000000000002544000000002544002000000010410408131208230021886843560813222518002188   1030000100030000   541110001915777031200000019GAMONE PWINT (KBA)     YGN           MMR11008131208230021880813000000000000000   10300006 00104100000000000000000000000509     
100   35710830339559710000000000034700000000034700002000000010410408131214190021909286010813222518002190   1030000100030000   541110001915777031200000019GAMONE PWINT (KBA)     YGN           MMR11008131214190021900813000000000000000   10300003 00104100000000000000000000006940     
100   95030510244286540000000000008064000000008064002000000010410408131229140021914EMD0P0813222518002191   1030000100030000   541110001915777031200000019GAMONE PWINT (KBA)     YGN           MMR11008131229140021910813000000000000000   10300002 00104100000000000000000000001613     
100   62346600101553780000000000016500000000016500002000000010410408130723590021505022390813222513002150   1030000100030000   541110001920777031200000019GAMONE PWINT (KBA)     YGN           MMR11008130723590021500813000000000000000   10300005 00104100000000000000000000003300     
100   9503051026093340000000000001600000000001600000200000001041040813055216002770SFMKQU0813222512002770   1030000100030000   541120003106777031200000031GAMONE PWINT (BKLZ)    YGN           MMR11008130552160027700813000000000000000   10300002 00104100000000000000000000003200     
100   9503051893660247000000000006940000000006940000200000001041040813044536003719E1YJUO0813222511003719   1030000100030000   541110001905777031200000019GAMONE PWINT (KBA)     YGN           MMR11008130445360037190813000000000000000   10300002 00104100000000000000000000013880     
100   35710500362940880000000000190000000000190000002000000010410408130556410049601753710813222512004960   1030000100030000   541110001907777031200000019GAMONE PWINT (KBA)     YGN           MMR11008130556410049600813000000000000000   10300005 00104100000000000000000000038000     
100   95030518869877890000000000015000000000015000002000000010410408130713040029570SVT7U0813222513002957   1030000100030000   541110001903777031200000019GAMONE PWINT (KBA)     YGN           MMR11008130713040029570813000000000000000   10300002 00104100000000000000000000003000     
100   35710950137513370000000000016800000000016800002000000010410408130728370029597571810813222513002959   1030000100030000   541110001903777031200000019GAMONE PWINT (KBA)     YGN           MMR11008130728370029590813000000000000000   10300003 00104100000000000000000000003360     
100   9503051026186953000000000001580000000001580000200000001041040813081125002960OQVIGD0813222514002960   1030000100030000   541110001903777031200000019GAMONE PWINT (KBA)     YGN           MMR11008130811250029600813000000000000000   10300002 00104100000000000000000000003160     
100   9503051026777587000000000003580000000003580000200000001041040813094419002962X6R3VJ0813222516002962   1030000100030000   541110001903777031200000019GAMONE PWINT (KBA)     YGN           MMR11008130944190029620813000000000000000   10300002 00104100000000000000000000007160     
100   35710500313939430000000000005500000000005500002000000010410408130955400029645041760813222516002964   1030000100030000   541110001903777031200000019GAMONE PWINT (KBA)     YGN           MMR11008130955400029640813000000000000000   10300005 00104100000000000000000000001100     
100   35710830201527640000000000020000000000020000002000000010410408130757270027727744910813222514002772   1030000100030000   541120003106777031200000031GAMONE PWINT (BKLZ)    YGN           MMR11008130757270027720813000000000000000   10300003 00104100000000000000000000004000     
100   62441900003920370000000000020000000000020000002000000010410408130949590027775789340813222516002777   1030000100030000   541120003106777031200000031GAMONE PWINT (BKLZ)    YGN           MMR11008130949590027770813000000000000000   10300003 00104100000000000000000000007000     
100   9503051892503299000000000007900000000007900000200000001041040813045749003724VUS4RP0813222511003724   1030000100030000   541110001905777031200000019GAMONE PWINT (KBA)     YGN           MMR11008130457490037240813000000000000000   10300002 00104100000000000000000000015800     
100   9503051024803914000000000011500000000011500000200000001041040813065114004963SGJCSO0813222513004963   1030000100030000   541110001907777031200000019GAMONE PWINT (KBA)     YGN           MMR11008130651140049630813000000000000000   10300002 00104100000000000000000000023000     
100   62921400063382200000000000016900000000016900002000000010410408130734000037262222220813222514003726   1030000100030000   541110001905777031200000019GAMONE PWINT (KBA)     YGN           MMR11008130734000037260813000000000000000   10300009 00104100000000000000000000003380     
100   9503051892902962000000000029000000000029000000200000001041040813070455004966NGDOQS0813222513004966   1030000100030000   541110001907777031200000019GAMONE PWINT (KBA)     YGN           MMR11008130704550049660813000000000000000   10300002 00104100000000000000000000058000     
100   35710830833004090000000000045800000000045800002000000010410408131117250029668944700813222517002966   1030000100030000   541110001903777031200000019GAMONE PWINT (KBA)     YGN           MMR11008131117250029660813000000000000000   10300003 00104100000000000000000000009160     
100   35710500186538550000000000033800000000033800002000000010410408131240100029693878210813222519002969   1030000100030000   541110001903777031200000019GAMONE PWINT (KBA)     YGN           MMR11008131240100029690813000000000000000   10300005 00104100000000000000000000006760     
100   95030510246223710000000000080000000000080000002000000010410408130417480049431R8LUJ0813222510004943   1030000100030000   541110001907777031200000019GAMONE PWINT (KBA)     YGN           MMR11008130417480049430813000000000000000   10300002 00104100000000000000000000016000     
100   35710830421626350000000000139900000000139900002000000010410408131048080027818768930813222517002781   1030000100030000   541120003106777031200000031GAMONE PWINT (BKLZ)    YGN           MMR11008131048080027810813000000000000000   10300003 00104100000000000000000000027980     
100   35710500364814790000000000045500000000045500002000000010410408131053360027835499350813222517002783   1030000100030000   541120003106777031200000031GAMONE PWINT (BKLZ)    YGN           MMR11008131053360027830813000000000000000   10300005 00104100000000000000000000009100     
100   9503051873938597000000000007230000000007230000200000001041040813104755003729PULVDG0813222517003729   1030000100030000   541110001905777031200000019GAMONE PWINT (KBA)     YGN           MMR11008131047550037290813000000000000000   10300002 00104100000000000000000000014460     
100   35710500114988940000000000006500000000006500002000000010410408130809360049696145650813222514004969   1030000100030000   541110001907777031200000019GAMONE PWINT (KBA)     YGN           MMR11008130809360049690813000000000000000   10300005 00104100000000000000000000001300     
100   9503051873661280000000000008000000000008000000200000001041040813110830002728TGOPZD0813222517002728   1030000100030000   541120003117777031200000031GAMONE PWINT (BKLZ)    YGN           MMR11008131108300027280813000000000000000   10300002 00104100000000000000000000016000     
100   35710500385105640000000000009500000000009500002000000010410408131120290027294991130813222517002729   1030000100030000   541120003117777031200000031GAMONE PWINT (BKLZ)    YGN           MMR11008131120290027290813000000000000000   10300005 00104100000000000000000000001900     
100   35710500330708790000000000003700000000003700002000000010410408131114330037323393800813222517003732   1030000100030000   541110001905777031200000019GAMONE PWINT (KBA)     YGN           MMR11008131114330037320813000000000000000   10300005 00104100000000000000000000000740     
100   950305102622643700000000000064500000000064500020000000104104081308425400497114JPJD0813222515004971   1030000100030000   541110001907777031200000019GAMONE PWINT (KBA)     YGN           MMR11008130842540049710813000000000000000   10300002 00104100000000000000000000001290     
100   35710950006122110000000000030000000000030000002000000010410408130421340049466449610813222510004946   1030000100030000   541110001907777031200000019GAMONE PWINT (KBA)     YGN           MMR11008130421340049460813000000000000000   10300003 00104100000000000000000000006000     
100   9503190002064600000000000002260000000002260000200000001041040813124959004987O2C9F70813222519004987   1030000100030000   541110001907777031200000019GAMONE PWINT (KBA)     YGN           MMR11008131249590049870813000000000000000   10300014 00104100000000000000000000004520     
100   95030510208888440000000000015400000000015400002000000010410408131116590037349ZPES90813222517003734   1030000100030000   541110001905777031200000019GAMONE PWINT (KBA)     YGN           MMR11008131116590037340813000000000000000   10300002 00104100000000000000000000003080     
100   9503051893660247000000000003340000000003340000200000001041040813042601004950ONUFEJ0813222510004950   1030000100030000   541110001907777031200000019GAMONE PWINT (KBA)     YGN           MMR11008130426010049500813000000000000000   10300002 00104100000000000000000000006680     
100   62346600126666610000000000140000000000140000002000000010410408131057000049774897960813222517004977   1030000100030000   541110001907777031200000019GAMONE PWINT (KBA)     YGN           MMR11008131057000049770813000000000000000   10300005 00104100000000000000000000028000     
100   62622000708294250000000000013800000000013800002000000010410408131230180049816000050813222519004981   1030000100030000   541110001907777031200000019GAMONE PWINT (KBA)     YGN           MMR11008131230180049810813000000000000000   10300006 00104100000000000000000000002760     
100   9503051024428654000000000002469600000002469600200000001041040813124356004983AOZ5JT0813222519004983   1030000100030000   541110001907777031200000019GAMONE PWINT (KBA)     YGN           MMR11008131243560049830813000000000000000   10300002 00104100000000000000000000004939     
100   9503051893660247000000000000900000000000900000200000001041040813042753004952KGAT4J0813222510004952   1030000100030000   541110001907777031200000019GAMONE PWINT (KBA)     YGN           MMR11008130427530049520813000000000000000   10300002 00104100000000000000000000001800     
100   9503051893660247000000000002190000000002190000200000001041040813043520004954OFYCCV0813222511004954   1030000100030000   541110001907777031200000019GAMONE PWINT (KBA)     YGN           MMR11008130435200049540813000000000000000   10300002 00104100000000000000000000004380     
100   35710500394475350000000000039500000000039500002000000010410408130340400029527828840813222510002952   1030000100030000   541110001903777031200000019GAMONE PWINT (KBA)     YGN           MMR11008130340400029520813000000000000000   10300005 00104100000000000000000000007900     
100   9503051893833661000000000001805000000001805000200000001041040813052908004957CM9PIW0813222511004957   1030000100030000   541110001907777031200000019GAMONE PWINT (KBA)     YGN           MMR11008130529080049570813000000000000000   10300002 00104100000000000000000000003610     
100   9503051023002054000000000002580000000002580000200000001041040813105431001172CTU2WQ0813222517001172   1030000100030000   541120003103777031200000031GAMONE PWINT (BKLZ)    YGN           MMR11008131054310011720813000000000000000   10300002 00104100000000000000000000005160     
100   35710500116364690000000000006000000000006000002000000010410408131119110014418721580813222517001441   1030000100030000   541120003008777031200000030GAMONE PWINT (TGZ)     YGN           MMR11008131119110014410813000000000000000   10300005 00104100000000000000000000001200     
100   9503051025645363000000000005880000000005880000200000001041040813075551000850AVUTWK0813222514000850   1030000100030000   541120003111777031200000031GAMONE PWINT (BKLZ)    YGN           MMR11008130755510008500813000000000000000   10300002 00104100000000000000000000011760     
100   9503051023053560000000000001450000000001450000200000001041040813115708001446AXYY2Z0813222518001446   1030000100030000   541120003008777031200000030GAMONE PWINT (TGZ)     YGN           MMR11008131157080014460813000000000000000   10300002 00104100000000000000000000002900     
100   35710500320583470000000000022030000000022030002000000010410408131002200009345083120813222516000934   1030000100030000   541120003005777031200000030GAMONE PWINT (TGZ)     YGN           MMR11008131002200009340813000000000000000   10300005 00104100000000000000000000004406     
100   35710500324040530000000000014100000000014100002000000010410408130605170003719426390813222512000371   1030000100030000   541120003114777031200000031GAMONE PWINT (BKLZ)    YGN           MMR11008130605170003710813000000000000000   10300005 00104100000000000000000000002820     
100   35710500333383180000000000011500000000011500002000000010410408131238220005806757700813222519000580   1030000100030000   541120003013777031200000030GAMONE PWINT (TGZ)     YGN           MMR11008131238220005800813000000000000000   10300005 00104100000000000000000000002300     
100   9503051890113588000000000003700000000003700000200000001041040813092314000851HXJGRR0813222515000851   1030000100030000   541120003111777031200000031GAMONE PWINT (BKLZ)    YGN           MMR11008130923140008510813000000000000000   10300002 00104100000000000000000000007400     
100   9503051025645363000000000002100000000002100000200000001041040813071650001170MYTCFG0813222513001170   1030000100030000   541120003103777031200000031GAMONE PWINT (BKLZ)    YGN           MMR11008130716500011700813000000000000000   10300002 00104100000000000000000000004200     
100   35710830693010410000000000037500000000037500002000000010410408130647170004947323920813222513000494   1030000100030000   541110001917777031200000019GAMONE PWINT (KBA)     YGN           MMR11008130647170004940813000000000000000   10300003 00104100000000000000000000007500     
100   35710500385105640000000000026000000000026000002000000010410408131050360008520868490813222517000852   1030000100030000   541120003111777031200000031GAMONE PWINT (BKLZ)    YGN           MMR11008131050360008520813000000000000000   10300005 00104100000000000000000000005200     
100   9503051025000494000000000002249100000002249100200000001041040813102644000935ELXOQM0813222516000935   1030000100030000   541120003005777031200000030GAMONE PWINT (TGZ)     YGN           MMR11008131026440009350813000000000000000   10300002 00104100000000000000000000004498     
100   35710500380016480000000000015750000000015750002000000010410408130638060011467205810813222513001146   1030000100030000   541120003104777031200000031GAMONE PWINT (BKLZ)    YGN           MMR11008130638060011460813000000000000000   10300005 00104100000000000000000000003150     
100   9503051025121449000000000008450000000008450000200000001041040813041919000490KWXTMS0813222510000490   1030000100030000   541110001917777031200000019GAMONE PWINT (KBA)     YGN           MMR11008130419190004900813000000000000000   10300002 00104100000000000000000000016900     
100   95030510249972780000000000002200000000002200002000000010410408130403140005757MIWLL0813222510000575   1030000100030000   541120003013777031200000030GAMONE PWINT (TGZ)     YGN           MMR11008130403140005750813000000000000000   10300002 00104100000000000000000000000440     
100   35710500333383180000000000021000000000021000002000000010410408131147030009364149650813222518000936   1030000100030000   541120003005777031200000030GAMONE PWINT (TGZ)     YGN           MMR11008131147030009360813000000000000000   10300005 00104100000000000000000000004200     
100   9503051026626966000000000000950000000000950000200000001041040813042057001422YUS28D0813222510001422   1030000100030000   541120003008777031200000030GAMONE PWINT (TGZ)     YGN           MMR11008130420570014220813000000000000000   10300002 00104100000000000000000000001900     
100   35710500374393440000000000004116000000004116002000000010410408131030160006463484610813222517000646   1030000100030000   541120003001777031200000030GAMONE PWINT (TGZ)     YGN           MMR11008131030160006460813000000000000000   10300005 00104100000000000000000000000823     
100   62441900003533850000000000009400000000009400002000000010410408130906490007161870460813222515000716   1030000100030000   541120003003777031200000030GAMONE PWINT (TGZ)     YGN           MMR11008130906490007160813000000000000000   10300003 00104100000000000000000000003290     
100   95030800094390140000000000485700000000485700002000000010410408131345390008909834110813222520000890   1030000100030000   581210001201777031200000012L OPERA RESTAURANT YGN YGN           MMR11008131345390008900813000000000000000   10300003 00104100000000000000000000165138     
100   9503051895372874000000000083820000000083820000200000001041040813135600000891APTAUT0813222520000891   1030000100030000   581210001201777031200000012L OPERA RESTAURANT YGN YGN           MMR11008131356000008910813000000000000000   10300002 00104100000000000000000000284988     
100   62346600187650120000000000008350000000008350002000000010410408130353560009304013300813222510000930   1030000100030000   541120003005777031200000030GAMONE PWINT (TGZ)     YGN           MMR11008130353560009300813000000000000000   10300005 00104100000000000000000000001670     
100   9503051884707924000000000006570000000006570000200000001041040813080552000060MNBKLJ0813222514000060   1030000100030000   701120003701777031200000037PRINCE HOTEL YANGON    YGN           MMR11008130805520000600813000000000000000   10300002 00104100000000000000000000022338     
100   35650710310002030000000000040800000000040800002000000010410408130530410008477314910813222512000847   1030000100030000   541120003111777031200000031GAMONE PWINT (BKLZ)    YGN           MMR11008130530410008470813000000000000000   10300005 00104100000000000000000000014280     
100   95030510262072620000000000017200000000017200002000000010410408130826300006343XOHDE0813222514000634   1030000100030000   541120003012777031200000030GAMONE PWINT (TGZ)     YGN           MMR11008130826300006340813000000000000000   10300002 00104100000000000000000000003440     
100   9503051885045696000000000006530000000006530000200000001041040813121817000937B3SFV80813222518000937   1030000100030000   541120003005777031200000030GAMONE PWINT (TGZ)     YGN           MMR11008131218170009370813000000000000000   10300002 00104100000000000000000000013060     
