100   9503051025056199000000000000600000000000600000200000001041040812044618001412ZCSSW30812222411001412   1030000100030000   541120003008777031200000030GAMONE PWINT (TGZ)     YGN           MMR11008120446180014120812000000000000000   10300002 00104100000000000000000000001200     
100   35710830498135290000000000120400000000120400002000000010410408120918260003259590820812222415000325   1030000100030000   541120000021777031200000002ZAW TI KA THINKAN TIKE YGN           MMR11008120918260003250812000000000000000   10300003 00104100000000000000000000024080     
100   9503051886800933000000000000210000000000210000200000001041040812062213000920BANTVS0812222412000920   1030000100030000   541120003005777031200000030GAMONE PWINT (TGZ)     YGN           MMR11008120622130009200812000000000000000   10300002 00104100000000000000000000000420     
100   9503051019581764000000000002250000000002250000200000001041040812060008001414263JI30812222412001414   1030000100030000   541120003008777031200000030GAMONE PWINT (TGZ)     YGN           MMR11008120600080014140812000000000000000   10300002 00104100000000000000000000004500     
100   62346600119883060000000000007800000000007800002000000010410408120442080003667354770812222411000366   1030000100030000   541120003114777031200000031GAMONE PWINT (BKLZ)    YGN           MMR11008120442080003660812000000000000000   10300005 00104100000000000000000000001560     
100   9503051884936077000000000000960000000000960000200000001041040812065857000640XHSCGD0812222413000640   1030000100030000   541120003001777031200000030GAMONE PWINT (TGZ)     YGN           MMR11008120658570006400812000000000000000   10300002 00104100000000000000000000001920     
100   9503051026352902000000000001850000000001850000200000001041040812072015000923UGJXOB0812222413000923   1030000100030000   541120003005777031200000030GAMONE PWINT (TGZ)     YGN           MMR11008120720150009230812000000000000000   10300002 00104100000000000000000000003700     
100   35710500324184340000000000019000000000019000002000000010410408120413130008437646990812222410000843   1030000100030000   541120003111777031200000031GAMONE PWINT (BKLZ)    YGN           MMR11008120413130008430812000000000000000   10300005 00104100000000000000000000003800     
100   35710830997504800000000000006900000000006900002000000010410408120840460009289364800812222415000928   1030000100030000   541120003005777031200000030GAMONE PWINT (TGZ)     YGN           MMR11008120840460009280812000000000000000   10300003 00104100000000000000000000001380     
100   9503051022844639000000000003175000000003175000200000001041040812114217001418OBPA3A0812222418001418   1030000100030000   541120003008777031200000030GAMONE PWINT (TGZ)     YGN           MMR11008121142170014180812000000000000000   10300002 00104100000000000000000000006350     
100   35710500183891120000000000023500000000023500002000000010410408120816510008446032010812222414000844   1030000100030000   541120003111777031200000031GAMONE PWINT (BKLZ)    YGN           MMR11008120816510008440812000000000000000   10300005 00104100000000000000000000004700     
100   95030510206064440000000000007150000000007150002000000010410408120519160009145OIRUK0812222411000914   1030000100030000   541120003005777031200000030GAMONE PWINT (TGZ)     YGN           MMR11008120519160009140812000000000000000   10300002 00104100000000000000000000001430     
100   35710830678521930000000000023860000000023860002000000010410408120940410021589724310812222416002158   1030000100030000   541110001915777031200000019GAMONE PWINT (KBA)     YGN           MMR11008120940410021580812000000000000000   10300003 00104100000000000000000000004772     
100   9503051892294246000000000043500000000043500000200000001041040812081834000622LGBDLK0812222414000622   1030000100030000   541120003012777031200000030GAMONE PWINT (TGZ)     YGN           MMR11008120818340006220812000000000000000   10300002 00104100000000000000000000087000     
100   35710830826620720000000000004700000000004700002000000010410408121030420006420024410812222417000642   1030000100030000   541120003001777031200000030GAMONE PWINT (TGZ)     YGN           MMR11008121030420006420812000000000000000   10300003 00104100000000000000000000000940     
100   35710500110943210000000000013500000000013500002000000010410408120939370008451418560812222416000845   1030000100030000   541120003111777031200000031GAMONE PWINT (BKLZ)    YGN           MMR11008120939370008450812000000000000000   10300005 00104100000000000000000000002700     
100   95031800831194230000000000010650000000010650002000000010410408120723090011401249290812222413001140   1030000100030000   541120003104777031200000031GAMONE PWINT (BKLZ)    YGN           MMR11008120723090011400812000000000000000   10300013 00104100000000000000000000002130     
100   35710500392206430000000000017000000000017000002000000010410408121200170021602583580812222418002160   1030000100030000   541110001915777031200000019GAMONE PWINT (KBA)     YGN           MMR11008121200170021600812000000000000000   10300005 00104100000000000000000000003400     
100   35710500365403400000000000005880000000005880002000000010410408120615050009172323650812222412000917   1030000100030000   541120003005777031200000030GAMONE PWINT (TGZ)     YGN           MMR11008120615050009170812000000000000000   10300005 00104100000000000000000000001176     
100   9503190000657819000000000000905000000000905000200000001041040812085719001142RSSDKF0812222415001142   1030000100030000   541120003104777031200000031GAMONE PWINT (BKLZ)    YGN           MMR11008120857190011420812000000000000000   10300014 00104100000000000000000000001810     
100   9503051886295829000000000002342400000002342400200000001041040812121014002162STULYJ0812222418002162   1030000100030000   541110001915777031200000019GAMONE PWINT (KBA)     YGN           MMR11008121210140021620812000000000000000   10300002 00104100000000000000000000004685     
100   35710500313358520000000000008050000000008050002000000010410408121038550006434798450812222417000643   1030000100030000   541120003001777031200000030GAMONE PWINT (TGZ)     YGN           MMR11008121038550006430812000000000000000   10300005 00104100000000000000000000001610     
100   9503051885360954000000000002400000000002400000200000001041040812110801002142MZ8BIU0812222417002142   1030000100030000   541110001920777031200000019GAMONE PWINT (KBA)     YGN           MMR11008121108010021420812000000000000000   10300002 00104100000000000000000000004800     
100   35710500195582930000000000012000000000012000002000000010410408120328060021517591840812222409002151   1030000100030000   541110001915777031200000019GAMONE PWINT (KBA)     YGN           MMR11008120328060021510812000000000000000   10300005 00104100000000000000000000002400     
100   95030510254259560000000000055800000000055800002000000010410408120433200021548SDL4Y0812222411002154   1030000100030000   541110001915777031200000019GAMONE PWINT (KBA)     YGN           MMR11008120433200021540812000000000000000   10300002 00104100000000000000000000011160     
100   95030510252001770000000000050000000000050000002000000010410408120606390049012LGJHK0812222412004901   1030000100030000   541110001907777031200000019GAMONE PWINT (KBA)     YGN           MMR11008120606390049010812000000000000000   10300002 00104100000000000000000000010000     
100   62346600110749170000000000016320000000016320002000000010410408120609210049036685430812222412004903   1030000100030000   541110001907777031200000019GAMONE PWINT (KBA)     YGN           MMR11008120609210049030812000000000000000   10300005 00104100000000000000000000003264     
100   35710830928411610000000000016400000000016400002000000010410408120622280049068535000812222412004906   1030000100030000   541110001907777031200000019GAMONE PWINT (KBA)     YGN           MMR11008120622280049060812000000000000000   10300003 00104100000000000000000000003280     
100   9503051024714707000000000001020000000001020000200000001041040812062459004908AJCSOP0812222412004908   1030000100030000   541110001907777031200000019GAMONE PWINT (KBA)     YGN           MMR11008120624590049080812000000000000000   10300002 00104100000000000000000000002040     
100   35710500393247420000000000057000000000057000002000000010410408120637000049107047680812222413004910   1030000100030000   541110001907777031200000019GAMONE PWINT (KBA)     YGN           MMR11008120637000049100812000000000000000   10300005 00104100000000000000000000011400     
100   9503051894545876000000000004100000000004100000200000001041040812052644004897SUB1LL0812222411004897   1030000100030000   541110001907777031200000019GAMONE PWINT (KBA)     YGN           MMR11008120526440048970812000000000000000   10300002 00104100000000000000000000008200     
100   35710500383331320000000000014210000000014210002000000010410408120817590049132727050812222414004913   1030000100030000   541110001907777031200000019GAMONE PWINT (KBA)     YGN           MMR11008120817590049130812000000000000000   10300005 00104100000000000000000000002842     
100   35710500383331320000000000016000000000016000002000000010410408120827440049157443000812222414004915   1030000100030000   541110001907777031200000019GAMONE PWINT (KBA)     YGN           MMR11008120827440049150812000000000000000   10300005 00104100000000000000000000003200     
100   9503051025487766000000000003675000000003675000200000001041040812090904004920WGBMWW0812222415004920   1030000100030000   541110001907777031200000019GAMONE PWINT (KBA)     YGN           MMR11008120909040049200812000000000000000   10300002 00104100000000000000000000007350     
100   9503051024428654000000000003096800000003096800200000001041040812122339004934HGJ73Y0812222418004934   1030000100030000   541110001907777031200000019GAMONE PWINT (KBA)     YGN           MMR11008121223390049340812000000000000000   10300002 00104100000000000000000000006194     
100   9503051024962090000000000006240000000006240000200000001041040812050449002752CMXPWB0812222411002752   1030000100030000   541120003106777031200000031GAMONE PWINT (BKLZ)    YGN           MMR11008120504490027520812000000000000000   10300002 00104100000000000000000000012480     
100   35710500163187820000000000078800000000078800002000000010410408120723200027553220480812222413002755   1030000100030000   541120003106777031200000031GAMONE PWINT (BKLZ)    YGN           MMR11008120723200027550812000000000000000   10300005 00104100000000000000000000015760     
100   9503051872811993000000000002550000000002550000200000001041040812084621002759KPPUBD0812222415002759   1030000100030000   541120003106777031200000031GAMONE PWINT (BKLZ)    YGN           MMR11008120846210027590812000000000000000   10300002 00104100000000000000000000005100     
100   35710500165604250000000000019000000000019000002000000010410408120858550027615260430812222415002761   1030000100030000   541120003106777031200000031GAMONE PWINT (BKLZ)    YGN           MMR11008120858550027610812000000000000000   10300005 00104100000000000000000000003800     
100   35710500345450440000000000014000000000014000002000000010410408120939510049233617310812222416004923   1030000100030000   541110001907777031200000019GAMONE PWINT (KBA)     YGN           MMR11008120939510049230812000000000000000   10300005 00104100000000000000000000002800     
100   35710500354745250000000000070000000000070000002000000010410408121009220049268645770812222416004926   1030000100030000   541110001907777031200000019GAMONE PWINT (KBA)     YGN           MMR11008121009220049260812000000000000000   10300005 00104100000000000000000000014000     
100   95030510251045440000000000016100000000016100002000000010410408120536510027192YFIHF0812222412002719   1030000100030000   541120003117777031200000031GAMONE PWINT (BKLZ)    YGN           MMR11008120536510027190812000000000000000   10300002 00104100000000000000000000003220     
100   9503051023760271000000000017400000000017400000200000001041040812063056003711IJRSYL0812222413003711   1030000100030000   541110001905777031200000019GAMONE PWINT (KBA)     YGN           MMR11008120630560037110812000000000000000   10300002 00104100000000000000000000034800     
100   9503051888415573000000000001793700000001793700200000001041040812101845004929NUCMLB0812222416004929   1030000100030000   541110001907777031200000019GAMONE PWINT (KBA)     YGN           MMR11008121018450049290812000000000000000   10300002 00104100000000000000000000003588     
100   9503051894387717000000000000352800000000352800200000001041040812102206004931OC9EKN0812222416004931   1030000100030000   541110001907777031200000019GAMONE PWINT (KBA)     YGN           MMR11008121022060049310812000000000000000   10300002 00104100000000000000000000000706     
100   35710500305675960000000000016000000000016000002000000010410408120921020027641197570812222415002764   1030000100030000   541120003106777031200000031GAMONE PWINT (BKLZ)    YGN           MMR11008120921020027640812000000000000000   10300005 00104100000000000000000000003200     
100   35710900619550880000000000018500000000018500002000000010410408121146520027220481310812222418002722   1030000100030000   541120003117777031200000031GAMONE PWINT (BKLZ)    YGN           MMR11008121146520027220812000000000000000   10300003 00104100000000000000000000003700     
100   35710830811948870000000000027400000000027400002000000010410408121238210037160790300812222419003716   1030000100030000   541110001905777031200000019GAMONE PWINT (KBA)     YGN           MMR11008121238210037160812000000000000000   10300003 00104100000000000000000000005480     
100   35710500345867330000000000007644000000007644002000000010410408120907080049187763880812222415004918   1030000100030000   541110001907777031200000019GAMONE PWINT (KBA)     YGN           MMR11008120907080049180812000000000000000   10300005 00104100000000000000000000001529     
