100   9503051895206650000000000010550000000010550000200000001041040818044119003056RR7IOB0818223011003056   1030000100030000   541110001903777031200000019GAMONE PWINT (KBA)     YGN           MMR11008180441190030560818000000000000000   10300002 00104100000000000000000000021100     
100   62622000226252440000000000003883000000003883002000000010410408180649040007207547370818223013000720   1030000100030000   541120003003777031200000030GAMONE PWINT (TGZ)     YGN           MMR11008180649040007200818000000000000000   10300006 00104100000000000000000000000777     
100   9503051896467657000000000000550000000000550000200000001041040818075315001225L7OWJY0818223014001225   1030000100030000   541120003103777031200000031GAMONE PWINT (BKLZ)    YGN           MMR11008180753150012250818000000000000000   10300002 00104100000000000000000000001100     
100   9503051872707233000000000002064000000002064000200000001041040818033515002190IYY6ZO0818223010002190   1030000100030000   541110001920777031200000019GAMONE PWINT (KBA)     YGN           MMR11008180335150021900818000000000000000   10300002 00104100000000000000000000004128     
100   9503051024466696000000000001017500000001017500200000001041040818085939001824Y5UMHK0818223015001824   1030000100030000   581250000001777031200000005AVENUE J COFFEE SHOP   YGN           MMR11008180859390018240818000000000000000   10300002 00104100000000000000000000003460     
100   35710500165652830000000000010780000000010780002000000010410408180928220018258195780818223015001825   1030000100030000   581250000001777031200000005AVENUE J COFFEE SHOP   YGN           MMR11008180928220018250818000000000000000   10300005 00104100000000000000000000003665     
100   35710830414304960000000000019500000000019500002000000010410408180958180028551669920818223016002855   1030000100030000   541120003106777031200000031GAMONE PWINT (BKLZ)    YGN           MMR11008180958180028550818000000000000000   10300003 00104100000000000000000000003900     
100   9503051889702730000000000006260000000006260000200000001041040818032228001219MEHITB0818223009001219   1030000100030000   541120003103777031200000031GAMONE PWINT (BKLZ)    YGN           MMR11008180322280012190818000000000000000   10300002 00104100000000000000000000012520     
100   35710500315265830000000000013700000000013700002000000010410408181011350014909619110818223016001490   1030000100030000   541120003008777031200000030GAMONE PWINT (TGZ)     YGN           MMR11008181011350014900818000000000000000   10300005 00104100000000000000000000002740     
100   9503051024857589000000000000610000000000610000200000001041040818081601000981VVEL7W0818223014000981   1030000100030000   541120003005777031200000030GAMONE PWINT (TGZ)     YGN           MMR11008180816010009810818000000000000000   10300002 00104100000000000000000000001220     
100   9503051025303864000000000003580000000003580000200000001041040818121324001227J72MLP0818223018001227   1030000100030000   541120003103777031200000031GAMONE PWINT (BKLZ)    YGN           MMR11008181213240012270818000000000000000   10300002 00104100000000000000000000007160     
100   9503051886617238000000000002650000000002650000200000001041040818062922002199ELNEXM0818223012002199   1030000100030000   541110001920777031200000019GAMONE PWINT (KBA)     YGN           MMR11008180629220021990818000000000000000   10300002 00104100000000000000000000005300     
100   35710830153300370000000000017836000000017836002000000010410408180747520014880887320818223014001488   1030000100030000   541120003008777031200000030GAMONE PWINT (TGZ)     YGN           MMR11008180747520014880818000000000000000   10300003 00104100000000000000000000003567     
100   62346600146623870000000000023000000000023000002000000010410408180500450008693702140818223011000869   1030000100030000   541120003111777031200000031GAMONE PWINT (BKLZ)    YGN           MMR11008180500450008690818000000000000000   10300005 00104100000000000000000000004600     
100   9503051895054407000000000006760000000006760000200000001041040818061100003059F42UPV0818223012003059   1030000100030000   541110001903777031200000019GAMONE PWINT (KBA)     YGN           MMR11008180611000030590818000000000000000   10300002 00104100000000000000000000013520     
100   35710500343856560000000000027800000000027800002000000010410408180716460030617325310818223013003061   1030000100030000   541110001903777031200000019GAMONE PWINT (KBA)     YGN           MMR11008180716460030610818000000000000000   10300005 00104100000000000000000000005560     
100   35710500111705270000000000035900000000035900002000000010410408180900150030634377880818223015003063   1030000100030000   541110001903777031200000019GAMONE PWINT (KBA)     YGN           MMR11008180900150030630818000000000000000   10300005 00104100000000000000000000007180     
100   35710830576645740000000000049800000000049800002000000010410408180905260030641352810818223015003064   1030000100030000   541110001903777031200000019GAMONE PWINT (KBA)     YGN           MMR11008180905260030640818000000000000000   10300003 00104100000000000000000000009960     
100   35710830208692010000000000037578000000037578002000000010410408180937590030661548110818223016003066   1030000100030000   541110001903777031200000019GAMONE PWINT (KBA)     YGN           MMR11008180937590030660818000000000000000   10300003 00104100000000000000000000007516     
100   35710500394309370000000000013600000000013600002000000010410408180839570006682832350818223015000668   1030000100030000   541120003001777031200000030GAMONE PWINT (TGZ)     YGN           MMR11008180839570006680818000000000000000   10300005 00104100000000000000000000002720     
100   35710500334769360000000000045766000000045766002000000010410408180753520007231035580818223014000723   1030000100030000   541120003003777031200000030GAMONE PWINT (TGZ)     YGN           MMR11008180753520007230818000000000000000   10300005 00104100000000000000000000009153     
100   35710500344270110000000000024300000000024300002000000010410408180945200009823727040818223016000982   1030000100030000   541120003005777031200000030GAMONE PWINT (TGZ)     YGN           MMR11008180945200009820818000000000000000   10300005 00104100000000000000000000004860     
100   35710830269604420000000000020100000000020100002000000010410408180638430022030472410818223013002203   1030000100030000   541110001920777031200000019GAMONE PWINT (KBA)     YGN           MMR11008180638430022030818000000000000000   10300003 00104100000000000000000000004020     
100   62622000854424790000000000032500000000032500002000000010410408180536290008707656430818223012000870   1030000100030000   541120003111777031200000031GAMONE PWINT (BKLZ)    YGN           MMR11008180536290008700818000000000000000   10300006 00104100000000000000000000006500     
100   9503051889733917000000000002780000000002780000200000001041040818051602001221EDQKIT0818223011001221   1030000100030000   541120003103777031200000031GAMONE PWINT (BKLZ)    YGN           MMR11008180516020012210818000000000000000   10300002 00104100000000000000000000005560     
100   35710500394309370000000000006900000000006900002000000010410408180843200006693548770818223015000669   1030000100030000   541120003001777031200000030GAMONE PWINT (TGZ)     YGN           MMR11008180843200006690818000000000000000   10300005 00104100000000000000000000001380     
100   95030800030710940000000000023800000000023800002000000010410408181023360030691821910818223016003069   1030000100030000   541110001903777031200000019GAMONE PWINT (KBA)     YGN           MMR11008181023360030690818000000000000000   10300003 00104100000000000000000000004760     
100   9503051025001336000000000006800000000006800000200000001041040818052733002775WSAC330818223011002775   1030000100030000   541120003117777031200000031GAMONE PWINT (BKLZ)    YGN           MMR11008180527330027750818000000000000000   10300002 00104100000000000000000000013600     
100   35710500355318370000000000009400000000009400002000000010410408180944090006704394020818223016000670   1030000100030000   541120003001777031200000030GAMONE PWINT (TGZ)     YGN           MMR11008180944090006700818000000000000000   10300005 00104100000000000000000000001880     
100   9503051023380195000000000001990400000001990400200000001041040818080543000724MHCWAU0818223014000724   1030000100030000   541120003003777031200000030GAMONE PWINT (TGZ)     YGN           MMR11008180805430007240818000000000000000   10300002 00104100000000000000000000003981     
100   62622000746148720000000000014050000000014050002000000010410408180947200009837268400818223016000983   1030000100030000   541120003005777031200000030GAMONE PWINT (TGZ)     YGN           MMR11008180947200009830818000000000000000   10300006 00104100000000000000000000002810     
100   35710500395480350000000000013600000000013600002000000010410408180600210038112919130818223012003811   1030000100030000   541110001905777031200000019GAMONE PWINT (KBA)     YGN           MMR11008180600210038110818000000000000000   10300005 00104100000000000000000000002720     
100   35710830669166350000000000005800000000005800002000000010410408180306510051649201220818223009005164   1030000100030000   541110001907777031200000019GAMONE PWINT (KBA)     YGN           MMR11008180306510051640818000000000000000   10300003 00104100000000000000000000001160     
100   35710830542436610000000000042600000000042600002000000010410408180603400027780262310818223012002778   1030000100030000   541120003117777031200000031GAMONE PWINT (BKLZ)    YGN           MMR11008180603400027780818000000000000000   10300003 00104100000000000000000000008520     
100   9503051894576343000000000001979600000001979600200000001041040818092044003817QCUV9Y0818223015003817   1030000100030000   541110001905777031200000019GAMONE PWINT (KBA)     YGN           MMR11008180920440038170818000000000000000   10300002 00104100000000000000000000003959     
100   62343302001348370000000000080000000000080000002000000010410408180439490051677036750818223011005167   1030000100030000   541110001907777031200000019GAMONE PWINT (KBA)     YGN           MMR11008180439490051670818000000000000000   10300004 00104100000000000000000000016000     
100   35710500373218800000000000018500000000018500002000000010410408180649110027815123560818223013002781   1030000100030000   541120003117777031200000031GAMONE PWINT (BKLZ)    YGN           MMR11008180649110027810818000000000000000   10300005 00104100000000000000000000003700     
100   35710500102677950000000000145000000000145000002000000010410408180715480051691311050818223013005169   1030000100030000   541110001907777031200000019GAMONE PWINT (KBA)     YGN           MMR11008180715480051690818000000000000000   10300005 00104100000000000000000000029000     
100   35710830208692010000000000007600000000007600002000000010410408180908430051721372510818223015005172   1030000100030000   541110001907777031200000019GAMONE PWINT (KBA)     YGN           MMR11008180908430051720818000000000000000   10300003 00104100000000000000000000001520     
100   62346600121417310000000000028500000000028500002000000010410408181015230051818647390818223016005181   1030000100030000   541110001907777031200000019GAMONE PWINT (KBA)     YGN           MMR11008181015230051810818000000000000000   10300005 00104100000000000000000000005700     
100   9503051889595233000000000000803600000000803600200000001041040818092847005175MTVL4F0818223015005175   1030000100030000   541110001907777031200000019GAMONE PWINT (KBA)     YGN           MMR11008180928470051750818000000000000000   10300002 00104100000000000000000000001607     
100   62343302003686820000000000041160000000041160002000000010410408181004580051789995250818223016005178   1030000100030000   541110001907777031200000019GAMONE PWINT (KBA)     YGN           MMR11008181004580051780818000000000000000   10300004 00104100000000000000000000008232     
100   35710950616141890000000000092400000000092400002000000010410408171223000009013898130817222918000901   1030000100030000   581210001201777031200000012L OPERA RESTAURANT YGN YGN           MMR11008171223000009010817000000000000000   10300003 00104100000000000000000000031416     
100   9503051873291633000000000003980000000003980000200000001041040817112043001214SQNTGZ0817222917001214   1030000100030000   541120003103777031200000031GAMONE PWINT (BKLZ)    YGN           MMR11008171120430012140817000000000000000   10300002 00104100000000000000000000007960     
100   950319000610673800000000001991000000001991000020000000104104081614355600089793M9GJ0816222821000897   1030000100030000   581210001201777031200000012L OPERA RESTAURANT YGN YGN           MMR11008161435560008970816000000000000000   10300014 00104100000000000000000000067694     
100   9503051024166890000000000000520000000000520000200000001041040817053227002767QJPMYQ0817222912002767   1030000100030000   541120003117777031200000031GAMONE PWINT (BKLZ)    YGN           MMR11008170532270027670817000000000000000   10300002 00104100000000000000000000001040     
100   9503051888458284000000000002580000000002580000200000001041040817085221003048PZQH9W0817222915003048   1030000100030000   541110001903777031200000019GAMONE PWINT (KBA)     YGN           MMR11008170852210030480817000000000000000   10300002 00104100000000000000000000005160     
100   9503051872379595000000000002780000000002780000200000001041040817113203001216WCOP3Y0817222918001216   1030000100030000   541120003103777031200000031GAMONE PWINT (BKLZ)    YGN           MMR11008171132030012160817000000000000000   10300002 00104100000000000000000000005560     
100   35710830071121790000000000021800000000021800002000000010410408170604480012101629010817222912001210   1030000100030000   541120003103777031200000031GAMONE PWINT (BKLZ)    YGN           MMR11008170604480012100817000000000000000   10300003 00104100000000000000000000004360     
100   9503051887136865000000000000600000000000600000200000001041040817111047001476LTAO740817222917001476   1030000100030000   541120003008777031200000030GAMONE PWINT (TGZ)     YGN           MMR11008171110470014760817000000000000000   10300002 00104100000000000000000000001200     
100   9503051024217842000000000003600000000003600000200000001041040817114339001479KMXKPI0817222918001479   1030000100030000   541120003008777031200000030GAMONE PWINT (TGZ)     YGN           MMR11008171143390014790817000000000000000   10300002 00104100000000000000000000007200     
100   35710830618108410000000000018200000000018200002000000010410408170706240006621998540817222913000662   1030000100030000   541120003001777031200000030GAMONE PWINT (TGZ)     YGN           MMR11008170706240006620817000000000000000   10300003 00104100000000000000000000003640     
100   95031900055256800000000000002300000000002300002000000010410408171124590004017XRSXZ0817222917000401   1030000100030000   541120003114777031200000031GAMONE PWINT (BKLZ)    YGN           MMR11008171124590004010817000000000000000   10300014 00104100000000000000000000000460     
100   35710500363770810000000000025500000000025500002000000010410408170818120021855729920817222914002185   1030000100030000   541110001920777031200000019GAMONE PWINT (KBA)     YGN           MMR11008170818120021850817000000000000000   10300005 00104100000000000000000000005100     
100   35710830088694540000000000045800000000045800002000000010410408170740570012122205900817222914001212   1030000100030000   541120003103777031200000031GAMONE PWINT (BKLZ)    YGN           MMR11008170740570012120817000000000000000   10300003 00104100000000000000000000009160     
100   35710500333501150000000000001000000000001000002000000010410408170958420027695506930817222916002769   1030000100030000   541120003117777031200000031GAMONE PWINT (BKLZ)    YGN           MMR11008170958420027690817000000000000000   10300005 00104100000000000000000000000200     
100   9503054000781559000000000001950000000001950000200000001041040817031143002835J4CO7Z0817222909002835   1030000100030000   541120003106777031200000031GAMONE PWINT (BKLZ)    YGN           MMR11008170311430028350817000000000000000   10300002 00104100000000000000000000003900     
100   35710500333501150000000000002650000000002650002000000010410408170946150003995776010817222916000399   1030000100030000   541120003114777031200000031GAMONE PWINT (BKLZ)    YGN           MMR11008170946150003990817000000000000000   10300005 00104100000000000000000000000530     
100   9503051025215209000000000007800000000007800000200000001041040817051747000900RQ0NYW0817222911000900   1030000100030000   581210001201777031200000012L OPERA RESTAURANT YGN YGN           MMR11008170517470009000817000000000000000   10300002 00104100000000000000000000026520     
100   9503051889249146000000000004860000000004860000200000001041040817065013003046TQA25F0817222913003046   1030000100030000   541110001903777031200000019GAMONE PWINT (KBA)     YGN           MMR11008170650130030460817000000000000000   10300002 00104100000000000000000000009720     
100   9503190006209359000000000006650000000006650000200000001041040817031650001206N9RTG60817222909001206   1030000100030000   541120003103777031200000031GAMONE PWINT (BKLZ)    YGN           MMR11008170316500012060817000000000000000   10300014 00104100000000000000000000013300     
100   35710830576423230000000000041000000000041000002000000010410408170642340008671855520817222913000867   1030000100030000   541120003111777031200000031GAMONE PWINT (BKLZ)    YGN           MMR11008170642340008670817000000000000000   10300003 00104100000000000000000000008200     
100   35710830618108410000000000006800000000006800002000000010410408170712020014702032420817222913001470   1030000100030000   541120003008777031200000030GAMONE PWINT (TGZ)     YGN           MMR11008170712020014700817000000000000000   10300003 00104100000000000000000000001360     
100   9503051021362609000000000000650000000000650000200000001041040817104757000400ARTJF90817222917000400   1030000100030000   541120003114777031200000031GAMONE PWINT (BKLZ)    YGN           MMR11008171047570004000817000000000000000   10300002 00104100000000000000000000001300     
100   9503051026724506000000000004020000000004020000200000001041040817103220001472ENHJFE0817222917001472   1030000100030000   541120003008777031200000030GAMONE PWINT (TGZ)     YGN           MMR11008171032200014720817000000000000000   10300002 00104100000000000000000000008040     
100   9503051021948019000000000001125000000001125000200000001041040817105011001474UNP1XX0817222917001474   1030000100030000   541120003008777031200000030GAMONE PWINT (TGZ)     YGN           MMR11008171050110014740817000000000000000   10300002 00104100000000000000000000002250     
100   62622000570771390000000000151000000000151000002000000010410408170704160000427545620817222913000042   1030000100030000   541110001101777031200000011CITICOM COMPUTER & MOB YGN           MMR11008170704160000420817000000000000000   10300006 00104100000000000000000000030200     
100   35710500384860210000000000085000000000085000002000000010410408170823590051427588260817222914005142   1030000100030000   541110001907777031200000019GAMONE PWINT (KBA)     YGN           MMR11008170823590051420817000000000000000   10300005 00104100000000000000000000017000     
100   9503190005096187000000000019000000000019000000200000001041040817090347005144HV3I610817222915005144   1030000100030000   541110001907777031200000019GAMONE PWINT (KBA)     YGN           MMR11008170903470051440817000000000000000   10300014 00104100000000000000000000038000     
100   9503051886981063000000000000705600000000705600200000001041040817092948005147WRM4LA0817222915005147   1030000100030000   541110001907777031200000019GAMONE PWINT (KBA)     YGN           MMR11008170929480051470817000000000000000   10300002 00104100000000000000000000001411     
100   35710830398014350000000000024108000000024108002000000010410408170948070051492968900817222916005149   1030000100030000   541110001907777031200000019GAMONE PWINT (KBA)     YGN           MMR11008170948070051490817000000000000000   10300003 00104100000000000000000000004822     
100   35710500335697710000000000018200000000018200002000000010410408171221180051548466030817222918005154   1030000100030000   541110001907777031200000019GAMONE PWINT (KBA)     YGN           MMR11008171221180051540817000000000000000   10300005 00104100000000000000000000003640     
100   9503051020577082000000000001400000000001400000200000001041040818052753000664K6OZJF0818223011000664   1030000100030000   541120003001777031200000030GAMONE PWINT (TGZ)     YGN           MMR11008180527530006640818000000000000000   10300002 00104100000000000000000000002800     
100   9503051020577082000000000000995000000000995000200000001041040818052531000718ZPZP1D0818223011000718   1030000100030000   541120003003777031200000030GAMONE PWINT (TGZ)     YGN           MMR11008180525310007180818000000000000000   10300002 00104100000000000000000000001990     
100   35710830687635710000000000006000000000006000002000000010410408180729110012230775220818223013001223   1030000100030000   541120003103777031200000031GAMONE PWINT (BKLZ)    YGN           MMR11008180729110012230818000000000000000   10300003 00104100000000000000000000001200     
100   62346600189712140000000000204877000000204877002000000010410408180425060020694058680818223010002069   1030000100030000   541160000001777031200000006MK FASHION             YGN           MMR11008180425060020690818000000000000000   10300005 00104100000000000000000000040976     
100   9503051872674037000000000020472000000020472000200000001041040818042841002071WOZNVG0818223010002071   1030000100030000   541160000001777031200000006MK FASHION             YGN           MMR11008180428410020710818000000000000000   10300002 00104100000000000000000000040944     
100   35710500365403400000000000008526000000008526002000000010410408180637460014853229580818223013001485   1030000100030000   541120003008777031200000030GAMONE PWINT (TGZ)     YGN           MMR11008180637460014850818000000000000000   10300005 00104100000000000000000000001705     
100   9503051895205132000000000016728000000016728000200000001041040818070738002073JW7CNC0818223013002073   1030000100030000   541160000001777031200000006MK FASHION             YGN           MMR11008180707380020730818000000000000000   10300002 00104100000000000000000000033456     
100   35710900105563590000000000088560000000088560002000000010410408180719540020750719610818223013002075   1030000100030000   541160000001777031200000006MK FASHION             YGN           MMR11008180719540020750818000000000000000   10300003 00104100000000000000000000017712     
100   35710500365925070000000000166000000000166000002000000010410408180223490000557639630818223008000055   1030000100030000   701110900010777030900000008HOTEL 101              NPT           MMR11008180223490000550818000000000000000   10300005 00104100000000000000000000056440     
100   9503051887977706000000000001425000000001425000200000001041040818053703000665DKLMH10818223012000665   1030000100030000   541120003001777031200000030GAMONE PWINT (TGZ)     YGN           MMR11008180537030006650818000000000000000   10300002 00104100000000000000000000002850     
100   35710500365403400000000000001715000000001715002000000010410408180628190007197805280818223012000719   1030000100030000   541120003003777031200000030GAMONE PWINT (TGZ)     YGN           MMR11008180628190007190818000000000000000   10300005 00104100000000000000000000000343     
100   35710830718195500000000000239153000000239153002000000010410408180920210020771442210818223015002077   1030000100030000   541160000001777031200000006MK FASHION             YGN           MMR11008180920210020770818000000000000000   10300003 00104100000000000000000000047831     
100   9503051887563241000000000002739000000002739000200000001041040818071622001823L300R00818223013001823   1030000100030000   581250000001777031200000005AVENUE J COFFEE SHOP   YGN           MMR11008180716220018230818000000000000000   10300002 00104100000000000000000000009313     
100   9503051026710414000000000002850000000002850000200000001041040818084509002852TAXT5W0818223015002852   1030000100030000   541120003106777031200000031GAMONE PWINT (BKLZ)    YGN           MMR11008180845090028520818000000000000000   10300002 00104100000000000000000000005700     
100   35710900621159140000000000011500000000011500002000000010410408181013210030681760300818223016003068   1030000100030000   541110001903777031200000019GAMONE PWINT (KBA)     YGN           MMR11008181013210030680818000000000000000   10300003 00104100000000000000000000002300     
100   9503051892386364000000000014500000000014500000200000001041040818101822002079CSLKMM0818223016002079   1030000100030000   541160000001777031200000006MK FASHION             YGN           MMR11008181018220020790818000000000000000   10300002 00104100000000000000000000029000     
