100   9503051023874635000000000017060100000017060100200000001041040818124211002083VVKYPN0818223019002083   1030000100030000   541160000001777031200000006MK FASHION             YGN           MMR11008181242110020830818000000000000000   10300002 00104100000000000000000000034120     
100   9503051025001336000000000002900000000002900000200000001041040818050539000407O9KNOC0818223011000407   1030000100030000   541120003114777031200000031GAMONE PWINT (BKLZ)    YGN           MMR11008180505390004070818000000000000000   10300002 00104100000000000000000000005800     
100   95030792001146240000000000005400000000005400002000000010410408190701380008723147400819223113000872   1030000100030000   541120003111777031200000031GAMONE PWINT (BKLZ)    YGN           MMR11008190701380008720819000000000000000   10200004 00104100000000000000000000001080     
100   9503051023746452000000000004750000000004750000200000001041040819071759000873RSEBYI0819223113000873   1030000100030000   541120003111777031200000031GAMONE PWINT (BKLZ)    YGN           MMR11008190717590008730819000000000000000   10300002 00104100000000000000000000009500     
100   9503051022408153000000000001950000000001950000200000001041040819080812001183SGBZXU0819223114001183   1030000100030000   541120003104777031200000031GAMONE PWINT (BKLZ)    YGN           MMR11008190808120011830819000000000000000   10300002 00104100000000000000000000003900     
100   9503051872598327000000000001970000000001970000200000001041040819062408000409WOORWX0819223112000409   1030000100030000   541120003114777031200000031GAMONE PWINT (BKLZ)    YGN           MMR11008190624080004090819000000000000000   10300002 00104100000000000000000000003940     
100   9503051872620402000000000008600000000008600000200000001041040819094853000875UR6ASS0819223116000875   1030000100030000   541120003111777031200000031GAMONE PWINT (BKLZ)    YGN           MMR11008190948530008750819000000000000000   10300002 00104100000000000000000000017200     
100   9503051872683699000000000001850000000001850000200000001041040819081123001185NSUZEW0819223114001185   1030000100030000   541120003104777031200000031GAMONE PWINT (BKLZ)    YGN           MMR11008190811230011850819000000000000000   10300002 00104100000000000000000000003700     
100   35710830357443160000000000028875000000028875002000000010410408191221100018291167110819223118001829   1030000100030000   581250000001777031200000005AVENUE J COFFEE SHOP   YGN           MMR11008191221100018290819000000000000000   10300003 00104100000000000000000000009818     
100   62921400061878580000000000003208000000003208002000000010410408190913560014942222220819223115001494   1030000100030000   541120003008777031200000030GAMONE PWINT (TGZ)     YGN           MMR11008190913560014940819000000000000000   10300009 00104100000000000000000000000642     
100   62622000805151540000000000006300000000006300002000000010410408190409170009867787030819223110000986   1030000100030000   541120003005777031200000030GAMONE PWINT (TGZ)     YGN           MMR11008190409170009860819000000000000000   10300006 00104100000000000000000000001260     
100   9503051872620402000000000001730000000001730000200000001041040819095537000272DD7ZSF0819223116000272   1030000100030000   541120003110777031200000031GAMONE PWINT (BKLZ)    YGN           MMR11008190955370002720819000000000000000   10300002 00104100000000000000000000003460     
100   95030510261672760000000000024480000000024480002000000010410408190909150006392TEGSC0819223115000639   1030000100030000   541120003012777031200000030GAMONE PWINT (TGZ)     YGN           MMR11008190909150006390819000000000000000   10300002 00104100000000000000000000004896     
100   95030518937693030000000000040000000000040000002000000010410408190513010009888W2SBF0819223111000988   1030000100030000   541120003005777031200000030GAMONE PWINT (TGZ)     YGN           MMR11008190513010009880819000000000000000   10300002 00104100000000000000000000008000     
100   35710500344729910000000000033600000000033600002000000010410408191113440009045848510819223117000904   1030000100030000   581210001201777031200000012L OPERA RESTAURANT YGN YGN           MMR11008191113440009040819000000000000000   10300005 00104100000000000000000000011424     
100   9503051893307377000000000000160000000000160000200000001041040819082458000989PLWYFN0819223114000989   1030000100030000   541120003005777031200000030GAMONE PWINT (TGZ)     YGN           MMR11008190824580009890819000000000000000   10300002 00104100000000000000000000000320     
100   9503051888886617000000000000690000000000690000200000001041040819051623002229IFURQI0819223111002229   1030000100030000   541110001915777031200000019GAMONE PWINT (KBA)     YGN           MMR11008190516230022290819000000000000000   10300002 00104100000000000000000000001380     
100   9503051885184784000000000005644800000005644800200000001041040819052831005189UGBQKJ0819223111005189   1030000100030000   541110001907777031200000019GAMONE PWINT (KBA)     YGN           MMR11008190528310051890819000000000000000   10300002 00104100000000000000000000011290     
100   9503051023440411000000000000529200000000529200200000001041040819061458005191TWTOJH0819223112005191   1030000100030000   541110001907777031200000019GAMONE PWINT (KBA)     YGN           MMR11008190614580051910819000000000000000   10300002 00104100000000000000000000001058     
100   95030518888866170000000000036800000000036800002000000010410408190537430022335DVNUP0819223112002233   1030000100030000   541110001915777031200000019GAMONE PWINT (KBA)     YGN           MMR11008190537430022330819000000000000000   10300002 00104100000000000000000000007360     
100   9503051872778069000000000035000000000035000000200000001041040819054456003827HVY8WP0819223112003827   1030000100030000   541110001905777031200000019GAMONE PWINT (KBA)     YGN           MMR11008190544560038270819000000000000000   10300002 00104100000000000000000000070000     
100   35710500345099330000000000039100000000039100002000000010410408190541390038237093430819223112003823   1030000100030000   541110001905777031200000019GAMONE PWINT (KBA)     YGN           MMR11008190541390038230819000000000000000   10300005 00104100000000000000000000007820     
100   95030518879247990000000000018800000000018800002000000010410408190754350038373OIKYW0819223114003837   1030000100030000   541110001905777031200000019GAMONE PWINT (KBA)     YGN           MMR11008190754350038370819000000000000000   10300002 00104100000000000000000000003760     
100   35710500182398040000000000015000000000015000002000000010410408190549340022358279060819223112002235   1030000100030000   541110001915777031200000019GAMONE PWINT (KBA)     YGN           MMR11008190549340022350819000000000000000   10300005 00104100000000000000000000003000     
100   35710830433304050000000000012650000000012650002000000010410408191217270018281144910819223118001828   1030000100030000   581250000001777031200000005AVENUE J COFFEE SHOP   YGN           MMR11008191217270018280819000000000000000   10300003 00104100000000000000000000004301     
100   35710500324265930000000000045900000000045900002000000010410408190631580030795429510819223113003079   1030000100030000   541110001903777031200000019GAMONE PWINT (KBA)     YGN           MMR11008190631580030790819000000000000000   10300005 00104100000000000000000000009180     
100   35710500374456710000000000030800000000030800002000000010410408190755300030833061970819223114003083   1030000100030000   541110001903777031200000019GAMONE PWINT (KBA)     YGN           MMR11008190755300030830819000000000000000   10300005 00104100000000000000000000006160     
100   62622000083605840000000000045800000000045800002000000010410408190851430030857976730819223115003085   1030000100030000   541110001903777031200000019GAMONE PWINT (KBA)     YGN           MMR11008190851430030850819000000000000000   10300006 00104100000000000000000000009160     
100   35710830628599530000000000018645000000018645002000000010410408190924070018270104810819223115001827   1030000100030000   581250000001777031200000005AVENUE J COFFEE SHOP   YGN           MMR11008190924070018270819000000000000000   10300003 00104100000000000000000000006339     
100   35710500325863700000000000008500000000008500002000000010410408190553510022375619210819223112002237   1030000100030000   541110001915777031200000019GAMONE PWINT (KBA)     YGN           MMR11008190553510022370819000000000000000   10300005 00104100000000000000000000001700     
100   35710500324291180000000000028300000000028300002000000010410408190730200038337668370819223114003833   1030000100030000   541110001905777031200000019GAMONE PWINT (KBA)     YGN           MMR11008190730200038330819000000000000000   10300005 00104100000000000000000000005660     
100   9503051026800199000000000003820000000003820000200000001041040819083146003842IAOVHY0819223115003842   1030000100030000   541110001905777031200000019GAMONE PWINT (KBA)     YGN           MMR11008190831460038420819000000000000000   10300002 00104100000000000000000000007640     
100   35710500343646930000000000018645000000018645002000000010410408190914060030879273160819223115003087   1030000100030000   541110001903777031200000019GAMONE PWINT (KBA)     YGN           MMR11008190914060030870819000000000000000   10300005 00104100000000000000000000003729     
100   9503051019826045000000000003580000000003580000200000001041040819114733003090XXIPUV0819223118003090   1030000100030000   541110001903777031200000019GAMONE PWINT (KBA)     YGN           MMR11008191147330030900819000000000000000   10300002 00104100000000000000000000007160     
100   9503051020827628000000000001029000000001029000200000001041040819104022003846HVJYCT0819223117003846   1030000100030000   541110001905777031200000019GAMONE PWINT (KBA)     YGN           MMR11008191040220038460819000000000000000   10300002 00104100000000000000000000002058     
100   35710830526089070000000000009000000000009000002000000010410408190957280027930304910819223116002793   1030000100030000   541120003117777031200000031GAMONE PWINT (BKLZ)    YGN           MMR11008190957280027930819000000000000000   10300003 00104100000000000000000000001800     
100   9503051020888851000000000001240000000001240000200000001041040819064901002245Y4XZQZ0819223113002245   1030000100030000   541110001915777031200000019GAMONE PWINT (KBA)     YGN           MMR11008190649010022450819000000000000000   10300002 00104100000000000000000000002480     
100   9503051025363645000000000003371200000003371200200000001041040819104740003851OAVC0C0819223117003851   1030000100030000   541110001905777031200000019GAMONE PWINT (KBA)     YGN           MMR11008191047400038510819000000000000000   10300002 00104100000000000000000000006742     
100   9503051887924799000000000000625000000000625000200000001041040819072903002247EHTNT40819223113002247   1030000100030000   541110001915777031200000019GAMONE PWINT (KBA)     YGN           MMR11008190729030022470819000000000000000   10300002 00104100000000000000000000001250     
100   9503051872389818000000000003800000000003800000200000001041040819114818002869HTSYKH0819223118002869   1030000100030000   541120003106777031200000031GAMONE PWINT (BKLZ)    YGN           MMR11008191148180028690819000000000000000   10300002 00104100000000000000000000007600     
100   95030800083360700000000000033800000000033800002000000010410408190750310030819543220819223114003081   1030000100030000   541110001903777031200000019GAMONE PWINT (KBA)     YGN           MMR11008190750310030810819000000000000000   10300003 00104100000000000000000000006760     
100   35710500182398040000000000018000000000018000002000000010410408190559540022425158080819223112002242   1030000100030000   541110001915777031200000019GAMONE PWINT (KBA)     YGN           MMR11008190559540022420819000000000000000   10300005 00104100000000000000000000003600     
100   35710900367728730000000000030000000000030000002000000010410408190744190027839506110819223114002783   1030000100030000   541120003117777031200000031GAMONE PWINT (BKLZ)    YGN           MMR11008190744190027830819000000000000000   10300003 00104100000000000000000000006000     
100   35710830767876870000000000033000000000033000002000000010410408190826440027859760510819223114002785   1030000100030000   541120003117777031200000031GAMONE PWINT (BKLZ)    YGN           MMR11008190826440027850819000000000000000   10300003 00104100000000000000000000006600     
100   62346600156502900000000000009950000000009950002000000010410408191017380022526687230819223116002252   1030000100030000   541110001915777031200000019GAMONE PWINT (KBA)     YGN           MMR11008191017380022520819000000000000000   10300005 00104100000000000000000000001990     
100   9503051872683699000000000004920000000004920000200000001041040819093012002787LVFQM40819223116002787   1030000100030000   541120003117777031200000031GAMONE PWINT (BKLZ)    YGN           MMR11008190930120027870819000000000000000   10300002 00104100000000000000000000009840     
100   9503051887179394000000000001600000000001600000200000001041040819115637002255XQBJO60819223118002255   1030000100030000   541110001915777031200000019GAMONE PWINT (KBA)     YGN           MMR11008191156370022550819000000000000000   10300002 00104100000000000000000000003200     
100   9503051890991165000000000004500000000004500000200000001041040819080634002249BP3J3B0819223114002249   1030000100030000   541110001915777031200000019GAMONE PWINT (KBA)     YGN           MMR11008190806340022490819000000000000000   10300002 00104100000000000000000000009000     
100   9503051026952651000000000001340000000001340000200000001041040819075115002784FXUAZ60819223114002784   1030000100030000   541120003117777031200000031GAMONE PWINT (BKLZ)    YGN           MMR11008190751150027840819000000000000000   10300002 00104100000000000000000000002680     
