100   35710500354307330000000000019000000000019000002000000010410408210900290052961196940821223315005296   1030000100030000   541110001907777031200000019GAMONE PWINT (KBA)     YGN           MMR11008210900290052960821000000000000000   10300005 00104100000000000000000000003800     
100   950305102548564600000000000418000000000418000020000000104104082110122700388725CUAI0821223316003887   1030000100030000   541110001905777031200000019GAMONE PWINT (KBA)     YGN           MMR11008211012270038870821000000000000000   10300002 00104100000000000000000000008360     
100   35710500314860690000000000022197000000022197002000000010410408210903500052990203360821223315005299   1030000100030000   541110001907777031200000019GAMONE PWINT (KBA)     YGN           MMR11008210903500052990821000000000000000   10300005 00104100000000000000000000004440     
100   35710500325450040000000000039800000000039800002000000010410408210542160038641822500821223312003864   1030000100030000   541110001905777031200000019GAMONE PWINT (KBA)     YGN           MMR11008210542160038640821000000000000000   10300005 00104100000000000000000000007960     
100   62346600150635440000000000002000000000002000002000000010410408200405090004136163900820223210000413   1030000100030000   541120003114777031200000031GAMONE PWINT (BKLZ)    YGN           MMR11008200405090004130820000000000000000   10300005 00104100000000000000000000000400     
100   35710830292613840000000000022000000000022000002000000010410408200626380004167680010820223212000416   1030000100030000   541120003114777031200000031GAMONE PWINT (BKLZ)    YGN           MMR11008200626380004160820000000000000000   10300003 00104100000000000000000000004400     
100   9503051026796751000000000001590000000001590000200000001041040820083634000418B9JTPN0820223215000418   1030000100030000   541120003114777031200000031GAMONE PWINT (BKLZ)    YGN           MMR11008200836340004180820000000000000000   10300002 00104100000000000000000000003180     
100   9503051872733411000000000002960000000002960000200000001041040820113451000419IOTD7D0820223218000419   1030000100030000   541120003114777031200000031GAMONE PWINT (BKLZ)    YGN           MMR11008201134510004190820000000000000000   10300002 00104100000000000000000000005920     
100   9503051872733411000000000000370000000000370000200000001041040820114203000420XEZG1K0820223218000420   1030000100030000   541120003114777031200000031GAMONE PWINT (BKLZ)    YGN           MMR11008201142030004200820000000000000000   10300002 00104100000000000000000000000740     
100   35710500186202500000000000023000000000023000002000000010410408201153100004215476150820223218000421   1030000100030000   541120003114777031200000031GAMONE PWINT (BKLZ)    YGN           MMR11008201153100004210820000000000000000   10300005 00104100000000000000000000004600     
100   35710830277519150000000000019000000000019000002000000010410408200807030004178282510820223214000417   1030000100030000   541120003114777031200000031GAMONE PWINT (BKLZ)    YGN           MMR11008200807030004170820000000000000000   10300003 00104100000000000000000000003800     
100   9503051020047342000000000004160000000004160000200000001041040821090247003133AQBZRV0821223315003133   1030000100030000   541110001903777031200000019GAMONE PWINT (KBA)     YGN           MMR11008210902470031330821000000000000000   10300002 00104100000000000000000000008320     
100   35710900110034920000000000004050000000004050002000000010410408211052540004287917510821223317000428   1030000100030000   541120003114777031200000031GAMONE PWINT (BKLZ)    YGN           MMR11008211052540004280821000000000000000   10300003 00104100000000000000000000000810     
100   9503190004642718000000000000765000000000765000200000001041040821103946001012183SPG0821223317001012   1030000100030000   541120003005777031200000030GAMONE PWINT (TGZ)     YGN           MMR11008211039460010120821000000000000000   10300014 00104100000000000000000000001530     
100   9503051025906724000000000000435000000000435000200000001041040821085919001205ENS0DU0821223315001205   1030000100030000   541120003104777031200000031GAMONE PWINT (BKLZ)    YGN           MMR11008210859190012050821000000000000000   10300002 00104100000000000000000000000870     
100   35710500313788520000000000008550000000008550002000000010410408210719050023061570560821223313002306   1030000100030000   541110001915777031200000019GAMONE PWINT (KBA)     YGN           MMR11008210719050023060821000000000000000   10300005 00104100000000000000000000001710     
100   35710950248528920000000000010400000000010400002000000010410408210339240004225316520821223310000422   1030000100030000   541120003114777031200000031GAMONE PWINT (BKLZ)    YGN           MMR11008210339240004220821000000000000000   10300003 00104100000000000000000000002080     
100   9503051024623650000000000004465000000004465000200000001041040821045007001007AHF28B0821223311001007   1030000100030000   541120003005777031200000030GAMONE PWINT (TGZ)     YGN           MMR11008210450070010070821000000000000000   10300002 00104100000000000000000000008930     
100   9503190004718013000000000001070000000001070000200000001041040821120444000429A3A17O0821223318000429   1030000100030000   541120003114777031200000031GAMONE PWINT (BKLZ)    YGN           MMR11008211204440004290821000000000000000   10300014 00104100000000000000000000002140     
100   9503051887347538000000000001972000000001972000200000001041040821070320000530F3LPCK0821223313000530   1030000100030000   541110001917777031200000019GAMONE PWINT (KBA)     YGN           MMR11008210703200005300821000000000000000   10300002 00104100000000000000000000003944     
100   9503051894399530000000000003900000000003900000200000001041040821072825001250ICBMCA0821223313001250   1030000100030000   541120003103777031200000031GAMONE PWINT (BKLZ)    YGN           MMR11008210728250012500821000000000000000   10300002 00104100000000000000000000007800     
100   9503051895099659000000000002220000000002220000200000001041040821131115000431YANVPB0821223319000431   1030000100030000   541120003114777031200000031GAMONE PWINT (BKLZ)    YGN           MMR11008211311150004310821000000000000000   10300002 00104100000000000000000000004440     
100   9503190003730837000000000001900000000001900000200000001041040821062149000881U9FG240821223312000881   1030000100030000   541120003111777031200000031GAMONE PWINT (BKLZ)    YGN           MMR11008210621490008810821000000000000000   10300014 00104100000000000000000000003800     
100   9503051888457898000000000002630000000002630000200000001041040821123715001013WLLLS90821223319001013   1030000100030000   541120003005777031200000030GAMONE PWINT (TGZ)     YGN           MMR11008211237150010130821000000000000000   10300002 00104100000000000000000000005260     
100   9503190004718013000000000001150000000001150000200000001041040821115542001207H41V8H0821223318001207   1030000100030000   541120003104777031200000031GAMONE PWINT (BKLZ)    YGN           MMR11008211155420012070821000000000000000   10300014 00104100000000000000000000002300     
100   35710500144001450000000000034045000000034045002000000010410408211020080018407634990821223316001840   1030000100030000   581250000001777031200000005AVENUE J COFFEE SHOP   YGN           MMR11008211020080018400821000000000000000   10300005 00104100000000000000000000011575     
100   9503051894202023000000000003400000000003400000200000001041040821041841000423UGVGHR0821223310000423   1030000100030000   541120003114777031200000031GAMONE PWINT (BKLZ)    YGN           MMR11008210418410004230821000000000000000   10300002 00104100000000000000000000006800     
100   35710500305676950000000000041500000000041500002000000010410408210700360008827612400821223313000882   1030000100030000   541120003111777031200000031GAMONE PWINT (BKLZ)    YGN           MMR11008210700360008820821000000000000000   10300005 00104100000000000000000000008300     
100   95031900003876150000000000033100000000033100002000000010410408210755340012528QQL560821223314001252   1030000100030000   541120003103777031200000031GAMONE PWINT (BKLZ)    YGN           MMR11008210755340012520821000000000000000   10300014 00104100000000000000000000006620     
100   35710500133554640000000000051650000000051650002000000010410408210942020022316168840821223316002231   1030000100030000   541110001920777031200000019GAMONE PWINT (KBA)     YGN           MMR11008210942020022310821000000000000000   10300005 00104100000000000000000000010330     
100   35710500166353670000000000014880000000014880002000000010410408211033350008830605280821223317000883   1030000100030000   541120003111777031200000031GAMONE PWINT (BKLZ)    YGN           MMR11008211033350008830821000000000000000   10300005 00104100000000000000000000002976     
100   9503190006930095000000000004361500000004361500200000001041040821104748001842YUU46Q0821223317001842   1030000100030000   581250000001777031200000005AVENUE J COFFEE SHOP   YGN           MMR11008211047480018420821000000000000000   10300014 00104100000000000000000000014829     
100   9503051024295368000000000000730000000000730000200000001041040821085802002309XYPXIF0821223315002309   1030000100030000   541110001915777031200000019GAMONE PWINT (KBA)     YGN           MMR11008210858020023090821000000000000000   10300002 00104100000000000000000000001460     
100   62622000835299960000000000082500000000082500002000000010410408210850090000597443560821223315000059   1030000100030000   701110900010777030900000008HOTEL 101              NPT           MMR11008210850090000590821000000000000000   10300006 00104100000000000000000000028050     
100   9503051889467243000000000002300000000002300000200000001041040821051915000424UYFGNW0821223311000424   1030000100030000   541120003114777031200000031GAMONE PWINT (BKLZ)    YGN           MMR11008210519150004240821000000000000000   10300002 00104100000000000000000000004600     
100   9503190001947722000000000000630000000000630000200000001041040821071035000677JL20K40821223313000677   1030000100030000   541120003001777031200000030GAMONE PWINT (TGZ)     YGN           MMR11008210710350006770821000000000000000   10300014 00104100000000000000000000001260     
100   9503051889097636000000000001150000000001150000200000001041040821115215000884DB52OA0821223318000884   1030000100030000   541120003111777031200000031GAMONE PWINT (BKLZ)    YGN           MMR11008211152150008840821000000000000000   10300002 00104100000000000000000000002300     
100   35710830894308380000000000013360000000013360002000000010410408210613160010096239810821223312001009   1030000100030000   541120003005777031200000030GAMONE PWINT (TGZ)     YGN           MMR11008210613160010090821000000000000000   10300003 00104100000000000000000000002672     
100   95030518967671300000000000008000000000008000002000000010410408210503350022982NKEEE0821223311002298   1030000100030000   541110001915777031200000019GAMONE PWINT (KBA)     YGN           MMR11008210503350022980821000000000000000   10300002 00104100000000000000000000001600     
100   35710830264178490000000000006600000000006600002000000010410408210533370023006001910821223312002300   1030000100030000   541110001915777031200000019GAMONE PWINT (KBA)     YGN           MMR11008210533370023000821000000000000000   10300003 00104100000000000000000000001320     
100   35710830438713580000000000069000000000069000002000000010410408210906260012547278800821223315001254   1030000100030000   541120003103777031200000031GAMONE PWINT (BKLZ)    YGN           MMR11008210906260012540821000000000000000   10300003 00104100000000000000000000013800     
100   35710500133554640000000000013500000000013500002000000010410408211041030022359059760821223317002235   1030000100030000   541110001920777031200000019GAMONE PWINT (KBA)     YGN           MMR11008211041030022350821000000000000000   10300005 00104100000000000000000000002700     
100   35710500363756630000000000060500000000060500002000000010410408211247500000617590950821223319000061   1030000100030000   701110900010777030900000008HOTEL 101              NPT           MMR11008211247500000610821000000000000000   10300005 00104100000000000000000000020570     
100   95030800043111010000000000005700000000005700002000000010410408210648010004256448300821223313000425   1030000100030000   541120003114777031200000031GAMONE PWINT (BKLZ)    YGN           MMR11008210648010004250821000000000000000   10300003 00104100000000000000000000001140     
100   9503051893447108000000000005550000000005550000200000001041040821070909000534LUIJFT0821223313000534   1030000100030000   541110001917777031200000019GAMONE PWINT (KBA)     YGN           MMR11008210709090005340821000000000000000   10300002 00104100000000000000000000011100     
100   9503051024798346000000000000835000000000835000200000001041040821074435001010INTXPH0821223314001010   1030000100030000   541120003005777031200000030GAMONE PWINT (TGZ)     YGN           MMR11008210744350010100821000000000000000   10300002 00104100000000000000000000001670     
100   9503051025034857000000000001050000000001050000200000001041040821120905001209PZVPNX0821223318001209   1030000100030000   541120003104777031200000031GAMONE PWINT (BKLZ)    YGN           MMR11008211209050012090821000000000000000   10300002 00104100000000000000000000002100     
100   9503051894312079000000000003640000000003640000200000001041040821055048001509AVLZXG0821223312001509   1030000100030000   541120003008777031200000030GAMONE PWINT (TGZ)     YGN           MMR11008210550480015090821000000000000000   10300002 00104100000000000000000000007280     
100   35710830193800530000000000020650000000020650002000000010410408210719260004266636720821223313000426   1030000100030000   541120003114777031200000031GAMONE PWINT (BKLZ)    YGN           MMR11008210719260004260821000000000000000   10300003 00104100000000000000000000004130     
100   35710830746956920000000000023000000000023000002000000010410408210408040005275488620821223310000527   1030000100030000   541110001917777031200000019GAMONE PWINT (KBA)     YGN           MMR11008210408040005270821000000000000000   10300003 00104100000000000000000000004600     
100   35710500122908450000000000050200000000050200002000000010410408211159010006782121550821223318000678   1030000100030000   541120003001777031200000030GAMONE PWINT (TGZ)     YGN           MMR11008211159010006780821000000000000000   10300005 00104100000000000000000000010040     
100   62622000030037340000000000015000000000015000002000000010410408210623010023027791170821223312002302   1030000100030000   541110001915777031200000019GAMONE PWINT (KBA)     YGN           MMR11008210623010023020821000000000000000   10300006 00104100000000000000000000003000     
100   9503051020051369000000000001815000000001815000200000001041040821030903001203HVLG9L0821223309001203   1030000100030000   541120003104777031200000031GAMONE PWINT (BKLZ)    YGN           MMR11008210309030012030821000000000000000   10300002 00104100000000000000000000003630     
100   35710830082291390000000000004250000000004250002000000010410408210828040004277048610821223314000427   1030000100030000   541120003114777031200000031GAMONE PWINT (BKLZ)    YGN           MMR11008210828040004270821000000000000000   10300003 00104100000000000000000000000850     
100   9503051025374790000000000001320000000001320000200000001041040821095630001011GPUIT60821223316001011   1030000100030000   541120003005777031200000030GAMONE PWINT (TGZ)     YGN           MMR11008210956300010110821000000000000000   10300002 00104100000000000000000000002640     
100   35710900110034920000000000024500000000024500002000000010410408211008480012587653010821223316001258   1030000100030000   541120003103777031200000031GAMONE PWINT (BKLZ)    YGN           MMR11008211008480012580821000000000000000   10300003 00104100000000000000000000004900     
100   9503051023672104000000000000570000000000570000200000001041040821070543002304ZHEE3H0821223313002304   1030000100030000   541110001915777031200000019GAMONE PWINT (KBA)     YGN           MMR11008210705430023040821000000000000000   10300002 00104100000000000000000000001140     
100   9503051889467243000000000004480000000004480000200000001041040821060154001248GYSWE70821223312001248   1030000100030000   541120003103777031200000031GAMONE PWINT (BKLZ)    YGN           MMR11008210601540012480821000000000000000   10300002 00104100000000000000000000008960     
100   9503051896767130000000000002480000000002480000200000001041040821045634002294Q3ZVJK0821223311002294   1030000100030000   541110001915777031200000019GAMONE PWINT (KBA)     YGN           MMR11008210456340022940821000000000000000   10300002 00104100000000000000000000004960     
100   35710830420632390000000000071500000000071500002000000010410408211012130009117673510821223316000911   1030000100030000   581210001201777031200000012L OPERA RESTAURANT YGN YGN           MMR11008211012130009110821000000000000000   10300003 00104100000000000000000000024310     
100   35710900476958400000000000004350000000004350002000000010410408210417120052745543410821223310005274   1030000100030000   541110001907777031200000019GAMONE PWINT (KBA)     YGN           MMR11008210417120052740821000000000000000   10300003 00104100000000000000000000000870     
100   35710500393620720000000000010560000000010560002000000010410408210925050053024749790821223315005302   1030000100030000   541110001907777031200000019GAMONE PWINT (KBA)     YGN           MMR11008210925050053020821000000000000000   10300005 00104100000000000000000000002112     
100   9503051873664524000000000001728000000001728000200000001041040821114717005305HLWGEJ0821223318005305   1030000100030000   541110001907777031200000019GAMONE PWINT (KBA)     YGN           MMR11008211147170053050821000000000000000   10300002 00104100000000000000000000003456     
100   35710950013208970000000000033418000000033418002000000010410408210549210038696096310821223312003869   1030000100030000   541110001905777031200000019GAMONE PWINT (KBA)     YGN           MMR11008210549210038690821000000000000000   10300003 00104100000000000000000000006684     
100   35710950013208970000000000039592000000039592002000000010410408210603180038726180020821223312003872   1030000100030000   541110001905777031200000019GAMONE PWINT (KBA)     YGN           MMR11008210603180038720821000000000000000   10300003 00104100000000000000000000007918     
100   35710830674486120000000000064800000000064800002000000010410408210508350031195851710821223311003119   1030000100030000   541110001903777031200000019GAMONE PWINT (KBA)     YGN           MMR11008210508350031190821000000000000000   10300003 00104100000000000000000000012960     
100   9503051025573235000000000005580000000005580000200000001041040821072707003124S0T70I0821223313003124   1030000100030000   541110001903777031200000019GAMONE PWINT (KBA)     YGN           MMR11008210727070031240821000000000000000   10300002 00104100000000000000000000011160     
100   35710500313788520000000000035800000000035800002000000010410408210734010031265600030821223314003126   1030000100030000   541110001903777031200000019GAMONE PWINT (KBA)     YGN           MMR11008210734010031260821000000000000000   10300005 00104100000000000000000000007160     
100   9503051872318031000000000002280000000002280000200000001041040821075206003128A1PUQD0821223314003128   1030000100030000   541110001903777031200000019GAMONE PWINT (KBA)     YGN           MMR11008210752060031280821000000000000000   10300002 00104100000000000000000000004560     
100   35710500383331320000000000010780000000010780002000000010410408211200010053074888380821223318005307   1030000100030000   541110001907777031200000019GAMONE PWINT (KBA)     YGN           MMR11008211200010053070821000000000000000   10300005 00104100000000000000000000002156     
100   9503051022112383000000000001824000000001824000200000001041040821121227005311XRBLMI0821223318005311   1030000100030000   541110001907777031200000019GAMONE PWINT (KBA)     YGN           MMR11008211212270053110821000000000000000   10300002 00104100000000000000000000003648     
100   95051010189815600000000000032200000000032200002000000010410408210421050052777203860821223310005277   1030000100030000   541110001907777031200000019GAMONE PWINT (KBA)     YGN           MMR11008210421050052770821000000000000000   10300005 00104100000000000000000000011270     
100   35710500354307330000000000007000000000007000002000000010410408210847540038765390180821223315003876   1030000100030000   541110001905777031200000019GAMONE PWINT (KBA)     YGN           MMR11008210847540038760821000000000000000   10300005 00104100000000000000000000001400     
100   62346600170558860000000000145000000000145000002000000010410408210451050052798622130821223311005279   1030000100030000   541110001907777031200000019GAMONE PWINT (KBA)     YGN           MMR11008210451050052790821000000000000000   10300005 00104100000000000000000000029000     
100   35710500333106140000000000007600000000007600002000000010410408210454430052819678940821223311005281   1030000100030000   541110001907777031200000019GAMONE PWINT (KBA)     YGN           MMR11008210454430052810821000000000000000   10300005 00104100000000000000000000001520     
100   9503051022112383000000000001572900000001572900200000001041040821121617005318AGVWV70821223318005318   1030000100030000   541110001907777031200000019GAMONE PWINT (KBA)     YGN           MMR11008211216170053180821000000000000000   10300002 00104100000000000000000000003146     
100   62622000898101270000000000008624000000008624002000000010410408210850000038807791980821223315003880   1030000100030000   541110001905777031200000019GAMONE PWINT (KBA)     YGN           MMR11008210850000038800821000000000000000   10300006 00104100000000000000000000001725     
100   9503051024203842000000000000825000000000825000200000001041040821085239003882MDUSQ50821223315003882   1030000100030000   541110001905777031200000019GAMONE PWINT (KBA)     YGN           MMR11008210852390038820821000000000000000   10300002 00104100000000000000000000001650     
100   35710500325450040000000000017700000000017700002000000010410408210606060052832936830821223312005283   1030000100030000   541110001907777031200000019GAMONE PWINT (KBA)     YGN           MMR11008210606060052830821000000000000000   10300005 00104100000000000000000000003540     
100   35710500172503800000000000175000000000175000002000000010410408210630110052852641870821223313005285   1030000100030000   541110001907777031200000019GAMONE PWINT (KBA)     YGN           MMR11008210630110052850821000000000000000   10300005 00104100000000000000000000035000     
100   9503051023328087000000000001845000000001845000200000001041040821043223002290B6DAXP0821223311002290   1030000100030000   541110001915777031200000019GAMONE PWINT (KBA)     YGN           MMR11008210432230022900821000000000000000   10300002 00104100000000000000000000003690     
100   35710500315548170000000000003400000000003400002000000010410408210638400052883633050821223313005288   1030000100030000   541110001907777031200000019GAMONE PWINT (KBA)     YGN           MMR11008210638400052880821000000000000000   10300005 00104100000000000000000000000680     
100   9503051893447108000000000000665000000000665000200000001041040821080939005291VIZ3PV0821223314005291   1030000100030000   541110001907777031200000019GAMONE PWINT (KBA)     YGN           MMR11008210809390052910821000000000000000   10300002 00104100000000000000000000001330     
100   35710500310004310000000000010600000000010600002000000010410408210847160052930602920821223315005293   1030000100030000   541110001907777031200000019GAMONE PWINT (KBA)     YGN           MMR11008210847160052930821000000000000000   10300005 00104100000000000000000000002120     
