100   95030518903933540000000000014000000000014000002000000010410408200409530005042QHVQT0820223210000504   1030000100030000   541110001917777031200000019GAMONE PWINT (KBA)     YGN           MMR11008200409530005040820000000000000000   10300002 00104100000000000000000000002800     
100   9503051022799072000000000001150000000001150000200000001041040820115247001245DXK8YT0820223218001245   1030000100030000   541120003103777031200000031GAMONE PWINT (BKLZ)    YGN           MMR11008201152470012450820000000000000000   10300002 00104100000000000000000000002300     
100   9503051022472779000000000002080000000002080000200000001041040820112020000523UOGARZ0820223217000523   1030000100030000   541110001917777031200000019GAMONE PWINT (KBA)     YGN           MMR11008201120200005230820000000000000000   10300002 00104100000000000000000000004160     
100   35710500374799360000000000022000000000022000002000000010410408201025510008785468570820223216000878   1030000100030000   541120003111777031200000031GAMONE PWINT (BKLZ)    YGN           MMR11008201025510008780820000000000000000   10300005 00104100000000000000000000004400     
100   35710830360182720000000000015750000000015750002000000010410408200400000009936800310820223210000993   1030000100030000   541120003005777031200000030GAMONE PWINT (TGZ)     YGN           MMR11008200400000009930820000000000000000   10300003 00104100000000000000000000003150     
100   9503051024914471000000000002350000000002350000200000001041040820044141000506MBR5230820223211000506   1030000100030000   541110001917777031200000019GAMONE PWINT (KBA)     YGN           MMR11008200441410005060820000000000000000   10300002 00104100000000000000000000004700     
100   35710830191377430000000000002550000000002550002000000010410408200836070010018456910820223215001001   1030000100030000   541120003005777031200000030GAMONE PWINT (TGZ)     YGN           MMR11008200836070010010820000000000000000   10300003 00104100000000000000000000000510     
100   62346600117311690000000000030500000000030500002000000010410408200919050000459464480820223215000045   1030000100030000   541110900003777030900000003TOP STAR SPORTWEARS &  NPT           MMR11008200919050000450820000000000000000   10300005 00104100000000000000000000006100     
100   35710500353863070000000000030500000000030500002000000010410408200901320005148314490820223215000514   1030000100030000   541110001917777031200000019GAMONE PWINT (KBA)     YGN           MMR11008200901320005140820000000000000000   10300005 00104100000000000000000000006100     
100   35710500135497850000000000020200000000020200002000000010410408200548050009955068080820223212000995   1030000100030000   541120003005777031200000030GAMONE PWINT (TGZ)     YGN           MMR11008200548050009950820000000000000000   10300005 00104100000000000000000000004040     
100   35710830191377430000000000030000000000030000002000000010410408200824020006508384400820223214000650   1030000100030000   541120003012777031200000030GAMONE PWINT (TGZ)     YGN           MMR11008200824020006500820000000000000000   10300003 00104100000000000000000000006000     
100   9503051025912862000000000002750000000002750000200000001041040820061518000508YQTV7Z0820223212000508   1030000100030000   541110001917777031200000019GAMONE PWINT (KBA)     YGN           MMR11008200615180005080820000000000000000   10300002 00104100000000000000000000005500     
100   35710830021619160000000000058700000000058700002000000010410408200414330006436887500820223210000643   1030000100030000   541120003012777031200000030GAMONE PWINT (TGZ)     YGN           MMR11008200414330006430820000000000000000   10300003 00104100000000000000000000011740     
100   9503051893901492000000000001010000000001010000200000001041040820114238001196BLJIMK0820223218001196   1030000100030000   541120003104777031200000031GAMONE PWINT (BKLZ)    YGN           MMR11008201142380011960820000000000000000   10300002 00104100000000000000000000002020     
100   62343302007047120000000000027400000000027400002000000010410408201150350010047816000820223218001004   1030000100030000   541120003005777031200000030GAMONE PWINT (TGZ)     YGN           MMR11008201150350010040820000000000000000   10300004 00104100000000000000000000005480     
100   9503051021829367000000000000990000000000990000200000001041040820074942001188EQJ9ZA0820223214001188   1030000100030000   541120003104777031200000031GAMONE PWINT (BKLZ)    YGN           MMR11008200749420011880820000000000000000   10300002 00104100000000000000000000001980     
100   35710830745226490000000000071100000000071100002000000010410408200458500012357153210820223211001235   1030000100030000   541120003103777031200000031GAMONE PWINT (BKLZ)    YGN           MMR11008200458500012350820000000000000000   10300003 00104100000000000000000000014220     
100   9503190004930725000000000002100000000002100000200000001041040820103051000519A0U4SL0820223217000519   1030000100030000   541110001917777031200000019GAMONE PWINT (KBA)     YGN           MMR11008201030510005190820000000000000000   10300014 00104100000000000000000000004200     
100   62444501100205260000000000609900000000609900002000000010410408201340500009063271900820223220000906   1030000100030000   581210001201777031200000012L OPERA RESTAURANT YGN YGN           MMR11008201340500009060820000000000000000   10300002 00104100000000000000000000362890     
100   35710500374303920000000000011850000000011850002000000010410408200740040009975956020820223214000997   1030000100030000   541120003005777031200000030GAMONE PWINT (TGZ)     YGN           MMR11008200740040009970820000000000000000   10300005 00104100000000000000000000002370     
100   9503051886239272000000000000840000000000840000200000001041040820114759001198NSEEWW0820223218001198   1030000100030000   541120003104777031200000031GAMONE PWINT (BKLZ)    YGN           MMR11008201147590011980820000000000000000   10300002 00104100000000000000000000001680     
100   35650710310002030000000000092000000000092000002000000010410408200944580005171394110820223216000517   1030000100030000   541110001917777031200000019GAMONE PWINT (KBA)     YGN           MMR11008200944580005170820000000000000000   10300005 00104100000000000000000000032200     
100   9503051023380195000000000001515200000001515200200000001041040820080833000999XAWCDH0820223214000999   1030000100030000   541120003005777031200000030GAMONE PWINT (TGZ)     YGN           MMR11008200808330009990820000000000000000   10300002 00104100000000000000000000003030     
100   9503051896394059000000000000800000000000800000200000001041040820071848001237QKVFE70820223213001237   1030000100030000   541120003103777031200000031GAMONE PWINT (BKLZ)    YGN           MMR11008200718480012370820000000000000000   10300002 00104100000000000000000000001600     
100   62622000555879980000000000008000000000008000002000000010410408200723040012397441370820223213001239   1030000100030000   541120003103777031200000031GAMONE PWINT (BKLZ)    YGN           MMR11008200723040012390820000000000000000   10300006 00104100000000000000000000001600     
100   62346600129221480000000000125100000000125100002000000010410408200707260005104331110820223213000510   1030000100030000   541110001917777031200000019GAMONE PWINT (KBA)     YGN           MMR11008200707260005100820000000000000000   10300005 00104100000000000000000000025020     
100   9503051026832218000000000001380000000001380000200000001041040820103736000521AEJIGI0820223217000521   1030000100030000   541110001917777031200000019GAMONE PWINT (KBA)     YGN           MMR11008201037360005210820000000000000000   10300002 00104100000000000000000000002760     
100   9503190004807832000000000026690000000026690000200000001041040820145411000907P4E3LB0820223221000907   1030000100030000   581210001201777031200000012L OPERA RESTAURANT YGN YGN           MMR11008201454110009070820000000000000000   10300014 00104100000000000000000000090746     
100   9503190006994547000000000004300000000004300000200000001041040820051030000044N5GPVH0820223211000044   1030000100030000   541110900003777030900000003TOP STAR SPORTWEARS &  NPT           MMR11008200510300000440820000000000000000   10300014 00104100000000000000000000008600     
100   35710500370342510000000000007400000000007400002000000010410408200708000005965813400820223213000596   1030000100030000   541120003013777031200000030GAMONE PWINT (TGZ)     YGN           MMR11008200708000005960820000000000000000   10300005 00104100000000000000000000001480     
100   9503051890707207000000000002380000000002380000200000001041040820080644000647AFDNK80820223214000647   1030000100030000   541120003012777031200000030GAMONE PWINT (TGZ)     YGN           MMR11008200806440006470820000000000000000   10300002 00104100000000000000000000004760     
100   9503051025284361000000000003950000000003950000200000001041040820090225001190QRBOAB0820223215001190   1030000100030000   541120003104777031200000031GAMONE PWINT (BKLZ)    YGN           MMR11008200902250011900820000000000000000   10300002 00104100000000000000000000007900     
100   9503051020838609000000000000190000000000190000200000001041040820122410001200DNMMHH0820223218001200   1030000100030000   541120003104777031200000031GAMONE PWINT (BKLZ)    YGN           MMR11008201224100012000820000000000000000   10300002 00104100000000000000000000000380     
100   62441900003865670000000000038500000000038500002000000010410408200904170005976909620820223215000597   1030000100030000   541120003013777031200000030GAMONE PWINT (TGZ)     YGN           MMR11008200904170005970820000000000000000   10300003 00104100000000000000000000013475     
100   35710830880554380000000000021500000000021500002000000010410408200817520012418347510820223214001241   1030000100030000   541120003103777031200000031GAMONE PWINT (BKLZ)    YGN           MMR11008200817520012410820000000000000000   10300003 00104100000000000000000000004300     
100   9503051872733411000000000000700000000000700000200000001041040820105955001243WPGQL30820223217001243   1030000100030000   541120003103777031200000031GAMONE PWINT (BKLZ)    YGN           MMR11008201059550012430820000000000000000   10300002 00104100000000000000000000001400     
100   62346600101332500000000000070000000000070000002000000010410408200544360000392012690820223212000039   1030000100030000   509410001701777031200000017AYAWADDYMANDALAY JEWEL YGN           MMR11008200544360000390820000000000000000   10300005 00104100000000000000000000035000     
100   9503051026204384000000000005750000000005750000200000001041040820041245000877XIFXWP0820223210000877   1030000100030000   541120003111777031200000031GAMONE PWINT (BKLZ)    YGN           MMR11008200412450008770820000000000000000   10300002 00104100000000000000000000011500     
100   35710500393508460000000000020150000000020150002000000010410408201056050005985616890820223217000598   1030000100030000   541120003013777031200000030GAMONE PWINT (TGZ)     YGN           MMR11008201056050005980820000000000000000   10300005 00104100000000000000000000004030     
100   95031400000003530000000000012100000000012100002000000010410408201005370011921027770820223216001192   1030000100030000   541120003104777031200000031GAMONE PWINT (BKLZ)    YGN           MMR11008201005370011920820000000000000000   10300010 00104100000000000000000000002420     
100   35710500190137030000000000022800000000022800002000000010410408200820470031067808630820223214003106   1030000100030000   541110001903777031200000019GAMONE PWINT (KBA)     YGN           MMR11008200820470031060820000000000000000   10300005 00104100000000000000000000004560     
100   9503051893121844000000000010450000000010450000200000001041040820091425005226N5ME9A0820223215005226   1030000100030000   541110001907777031200000019GAMONE PWINT (KBA)     YGN           MMR11008200914250052260820000000000000000   10300002 00104100000000000000000000020900     
100   9503051024360204000000000000627200000000627200200000001041040820092619005228AJMIEI0820223215005228   1030000100030000   541110001907777031200000019GAMONE PWINT (KBA)     YGN           MMR11008200926190052280820000000000000000   10300002 00104100000000000000000000001254     
100   35710830952410700000000000022080000000022080002000000010410408201257460052680026810820223219005268   1030000100030000   541110001907777031200000019GAMONE PWINT (KBA)     YGN           MMR11008201257460052680820000000000000000   10300003 00104100000000000000000000004416     
100   35710830547339270000000000023000000000023000002000000010410408200348230051976730600820223210005197   1030000100030000   541110001907777031200000019GAMONE PWINT (KBA)     YGN           MMR11008200348230051970820000000000000000   10300003 00104100000000000000000000004600     
100   35710830653862510000000000045500000000045500002000000010410408200526270052007318910820223211005200   1030000100030000   541110001907777031200000019GAMONE PWINT (KBA)     YGN           MMR11008200526270052000820000000000000000   10300003 00104100000000000000000000009100     
100   35710500365403400000000000006076000000006076002000000010410408200635040015011442230820223213001501   1030000100030000   541120003008777031200000030GAMONE PWINT (TGZ)     YGN           MMR11008200635040015010820000000000000000   10300005 00104100000000000000000000001215     
100   35710830824320470000000000013680000000013680002000000010410408200847170022748524000820223215002274   1030000100030000   541110001915777031200000019GAMONE PWINT (KBA)     YGN           MMR11008200847170022740820000000000000000   10300003 00104100000000000000000000002736     
100   62622000307755440000000000031400000000031400002000000010410408200908080022767013160820223215002276   1030000100030000   541110001915777031200000019GAMONE PWINT (KBA)     YGN           MMR11008200908080022760820000000000000000   10300006 00104100000000000000000000006280     
100   9503051023761873000000000002045000000002045000200000001041040820072317002268BF2GV00820223213002268   1030000100030000   541110001915777031200000019GAMONE PWINT (KBA)     YGN           MMR11008200723170022680820000000000000000   10300002 00104100000000000000000000004090     
100   9503051024842961000000000005200000000005200000200000001041040820120329002806CSFMYJ0820223218002806   1030000100030000   541120003117777031200000031GAMONE PWINT (BKLZ)    YGN           MMR11008201203290028060820000000000000000   10300002 00104100000000000000000000010400     
100   9503051022799072000000000000865000000000865000200000001041040820125148002809ZRIFAN0820223219002809   1030000100030000   541120003117777031200000031GAMONE PWINT (BKLZ)    YGN           MMR11008201251480028090820000000000000000   10300002 00104100000000000000000000001730     
100   35710500355967310000000000006664000000006664002000000010410408200933260052325421220820223216005232   1030000100030000   541110001907777031200000019GAMONE PWINT (KBA)     YGN           MMR11008200933260052320820000000000000000   10300005 00104100000000000000000000001333     
100   62622000798392680000000000013700000000013700002000000010410408200722350022127978320820223213002212   1030000100030000   541110001920777031200000019GAMONE PWINT (KBA)     YGN           MMR11008200722350022120820000000000000000   10300006 00104100000000000000000000002740     
100   35710830132160710000000000023500000000023500002000000010410408200607160028727563800820223212002872   1030000100030000   541120003106777031200000031GAMONE PWINT (BKLZ)    YGN           MMR11008200607160028720820000000000000000   10300003 00104100000000000000000000004700     
100   9503051891903433000000000024500000000024500000200000001041040820093904005234GWJKOJ0820223216005234   1030000100030000   541110001907777031200000019GAMONE PWINT (KBA)     YGN           MMR11008200939040052340820000000000000000   10300002 00104100000000000000000000049000     
100   35710500355967310000000000018720000000018720002000000010410408200910520022781087010820223215002278   1030000100030000   541110001915777031200000019GAMONE PWINT (KBA)     YGN           MMR11008200910520022780820000000000000000   10300005 00104100000000000000000000003744     
100   35710500161286030000000000014465000000014465002000000010410408200803540018318651520820223214001831   1030000100030000   581250000001777031200000005AVENUE J COFFEE SHOP   YGN           MMR11008200803540018310820000000000000000   10300005 00104100000000000000000000004918     
100   35710950298037830000000000016885000000016885002000000010410408201005280018328992920820223216001832   1030000100030000   581250000001777031200000005AVENUE J COFFEE SHOP   YGN           MMR11008201005280018320820000000000000000   10300003 00104100000000000000000000005741     
100   9503051872424748000000000001990000000001990000200000001041040820094548005237QAWPNX0820223216005237   1030000100030000   541110001907777031200000019GAMONE PWINT (KBA)     YGN           MMR11008200945480052370820000000000000000   10300002 00104100000000000000000000003980     
100   9503051891903433000000000009450000000009450000200000001041040820095157005239YFEUVN0820223216005239   1030000100030000   541110001907777031200000019GAMONE PWINT (KBA)     YGN           MMR11008200951570052390820000000000000000   10300002 00104100000000000000000000018900     
100   9503051893072112000000000000830000000000830000200000001041040820095833005242SAF7TP0820223216005242   1030000100030000   541110001907777031200000019GAMONE PWINT (KBA)     YGN           MMR11008200958330052420820000000000000000   10300002 00104100000000000000000000001660     
100   35650973690006300000000000033000000000033000002000000010410408200927390022170924900820223215002217   1030000100030000   541110001920777031200000019GAMONE PWINT (KBA)     YGN           MMR11008200927390022170820000000000000000   10300005 00104100000000000000000000011550     
100   62346600127226960000000000037000000000037000002000000010410408200537050052093204040820223212005209   1030000100030000   541110001907777031200000019GAMONE PWINT (KBA)     YGN           MMR11008200537050052090820000000000000000   10300005 00104100000000000000000000007400     
100   35710500304462620000000000005500000000005500002000000010410408200933140022808811280820223216002280   1030000100030000   541110001915777031200000019GAMONE PWINT (KBA)     YGN           MMR11008200933140022800820000000000000000   10300005 00104100000000000000000000001100     
100   62346600181817310000000000003648000000003648002000000010410408201109260022823701050820223217002282   1030000100030000   541110001915777031200000019GAMONE PWINT (KBA)     YGN           MMR11008201109260022820820000000000000000   10300005 00104100000000000000000000000730     
100   35710830777398360000000000033900000000033900002000000010410408201035440028789174600820223217002878   1030000100030000   541120003106777031200000031GAMONE PWINT (BKLZ)    YGN           MMR11008201035440028780820000000000000000   10300003 00104100000000000000000000006780     
100   35710830074541830000000000015290000000015290002000000010410408201032210018339154300820223217001833   1030000100030000   581250000001777031200000005AVENUE J COFFEE SHOP   YGN           MMR11008201032210018330820000000000000000   10300003 00104100000000000000000000005199     
100   35710500325655560000000000006490000000006490002000000010410408201047400018342191180820223217001834   1030000100030000   581250000001777031200000005AVENUE J COFFEE SHOP   YGN           MMR11008201047400018340820000000000000000   10300005 00104100000000000000000000002207     
100   35710830385166460000000000143900000000143900002000000010410408200350100022596741400820223210002259   1030000100030000   541110001915777031200000019GAMONE PWINT (KBA)     YGN           MMR11008200350100022590820000000000000000   10300003 00104100000000000000000000028780     
100   9503190004930725000000000000245000000000245000200000001041040820100336005244EA26130820223216005244   1030000100030000   541110001907777031200000019GAMONE PWINT (KBA)     YGN           MMR11008201003360052440820000000000000000   10300014 00104100000000000000000000000490     
100   35710500303070350000000000013000000000013000002000000010410408201006160052468607570820223216005246   1030000100030000   541110001907777031200000019GAMONE PWINT (KBA)     YGN           MMR11008201006160052460820000000000000000   10300005 00104100000000000000000000002600     
100   35710830745226490000000000038500000000038500002000000010410408200444000027977064220820223211002797   1030000100030000   541120003117777031200000031GAMONE PWINT (BKLZ)    YGN           MMR11008200444000027970820000000000000000   10300003 00104100000000000000000000007700     
100   9503051872733411000000000002850000000002850000200000001041040820105321002879JX4OFR0820223217002879   1030000100030000   541120003106777031200000031GAMONE PWINT (BKLZ)    YGN           MMR11008201053210028790820000000000000000   10300002 00104100000000000000000000005700     
100   35710500110145350000000000002400000000002400002000000010410408200554450052133706540820223212005213   1030000100030000   541110001907777031200000019GAMONE PWINT (KBA)     YGN           MMR11008200554450052130820000000000000000   10300005 00104100000000000000000000000480     
100   9503051026909040000000000006600000000006600000200000001041040820074405005216RBJADD0820223214005216   1030000100030000   541110001907777031200000019GAMONE PWINT (KBA)     YGN           MMR11008200744050052160820000000000000000   10300002 00104100000000000000000000013200     
100   9503190005688900000000000002820000000002820000200000001041040820102107005248RGQKGD0820223216005248   1030000100030000   541110001907777031200000019GAMONE PWINT (KBA)     YGN           MMR11008201021070052480820000000000000000   10300014 00104100000000000000000000005640     
100   62346600185503720000000000017985000000017985002000000010410408201050300018350793980820223217001835   1030000100030000   581250000001777031200000005AVENUE J COFFEE SHOP   YGN           MMR11008201050300018350820000000000000000   10300005 00104100000000000000000000006115     
100   9503051023032754000000000002140000000002140000200000001041040820115734002284KDLTO20820223218002284   1030000100030000   541110001915777031200000019GAMONE PWINT (KBA)     YGN           MMR11008201157340022840820000000000000000   10300002 00104100000000000000000000004280     
100   9503190005665528000000000002250000000002250000200000001041040820122129002882MS356J0820223218002882   1030000100030000   541120003106777031200000031GAMONE PWINT (BKLZ)    YGN           MMR11008201221290028820820000000000000000   10300014 00104100000000000000000000004500     
100   35710900757753160000000000011250000000011250002000000010410408200827430052198406530820223214005219   1030000100030000   541110001907777031200000019GAMONE PWINT (KBA)     YGN           MMR11008200827430052190820000000000000000   10300003 00104100000000000000000000002250     
100   9503051024418119000000000002250000000002250000200000001041040820065722001505FLMSVM0820223213001505   1030000100030000   541120003008777031200000030GAMONE PWINT (TGZ)     YGN           MMR11008200657220015050820000000000000000   10300002 00104100000000000000000000004500     
100   62346600112881370000000000031790000000031790002000000010410408201118040018364914260820223217001836   1030000100030000   581250000001777031200000005AVENUE J COFFEE SHOP   YGN           MMR11008201118040018360820000000000000000   10300005 00104100000000000000000000010809     
100   95030510253562010000000000107420000000107420002000000010410408200846050020884IVU9W0820223215002088   1030000100030000   541160000001777031200000006MK FASHION             YGN           MMR11008200846050020880820000000000000000   10300002 00104100000000000000000000021484     
100   9503051025492063000000000017060100000017060100200000001041040820091515002090ZJCFE10820223215002090   1030000100030000   541160000001777031200000006MK FASHION             YGN           MMR11008200915150020900820000000000000000   10300002 00104100000000000000000000034120     
100   62921400082674010000000000003400000000003400002000000010410408200444170022612222220820223211002261   1030000100030000   541110001915777031200000019GAMONE PWINT (KBA)     YGN           MMR11008200444170022610820000000000000000   10300009 00104100000000000000000000000680     
100   9503051026909040000000000004550400000004550400200000001041040820064027002264G0EDE90820223213002264   1030000100030000   541110001915777031200000019GAMONE PWINT (KBA)     YGN           MMR11008200640270022640820000000000000000   10300002 00104100000000000000000000009101     
100   9503051024160752000000000006000000000006000000200000001041040820071134002800ZVWJOA0820223213002800   1030000100030000   541120003117777031200000031GAMONE PWINT (BKLZ)    YGN           MMR11008200711340028000820000000000000000   10300002 00104100000000000000000000012000     
100   950319000493072500000000000134400000000134400020000000104104082010453200525253O13C0820223217005252   1030000100030000   541110001907777031200000019GAMONE PWINT (KBA)     YGN           MMR11008201045320052520820000000000000000   10300014 00104100000000000000000000002688     
100   35710830277519150000000000018900000000018900002000000010410408200801010028018246310820223214002801   1030000100030000   541120003117777031200000031GAMONE PWINT (BKLZ)    YGN           MMR11008200801010028010820000000000000000   10300003 00104100000000000000000000003780     
100   35710830653862510000000000117000000000117000002000000010410408200504090030997185100820223211003099   1030000100030000   541110001903777031200000019GAMONE PWINT (KBA)     YGN           MMR11008200504090030990820000000000000000   10300003 00104100000000000000000000023400     
100   35710851178745800000000000045800000000045800002000000010410408200548360031017451910820223212003101   1030000100030000   541110001903777031200000019GAMONE PWINT (KBA)     YGN           MMR11008200548360031010820000000000000000   10300003 00104100000000000000000000009160     
100   9503051025928710000000000000980000000000980000200000001041040820075419003104WERDU00820223214003104   1030000100030000   541110001903777031200000019GAMONE PWINT (KBA)     YGN           MMR11008200754190031040820000000000000000   10300002 00104100000000000000000000001960     
100   62346600131225730000000000016100000000016100002000000010410408200842580052223823890820223215005222   1030000100030000   541110001907777031200000019GAMONE PWINT (KBA)     YGN           MMR11008200842580052220820000000000000000   10300005 00104100000000000000000000003220     
100   35710830912767990000000000080000000000080000002000000010410408201104250052559346710820223217005255   1030000100030000   541110001907777031200000019GAMONE PWINT (KBA)     YGN           MMR11008201104250052550820000000000000000   10300003 00104100000000000000000000016000     
100   950319000607527100000000000570000000000570000020000000104104082011591100228645YOA70820223218002286   1030000100030000   541110001915777031200000019GAMONE PWINT (KBA)     YGN           MMR11008201159110022860820000000000000000   10300014 00104100000000000000000000011400     
100   62346600111833790000000000015288000000015288002000000010410408201240350038607265530820223219003860   1030000100030000   541110001905777031200000019GAMONE PWINT (KBA)     YGN           MMR11008201240350038600820000000000000000   10300005 00104100000000000000000000003058     
100   95030510249581710000000000204877000000204877002000000010410408201024250020920TJRUM0820223216002092   1030000100030000   541160000001777031200000006MK FASHION             YGN           MMR11008201024250020920820000000000000000   10300002 00104100000000000000000000040976     
100   9503051023560093000000000017630000000017630000200000001041040820102909002094NGGZ4C0820223216002094   1030000100030000   541160000001777031200000006MK FASHION             YGN           MMR11008201029090020940820000000000000000   10300002 00104100000000000000000000035260     
100   9503051887182000000000000007632400000007632400200000001041040820064150002266THSR050820223213002266   1030000100030000   541110001915777031200000019GAMONE PWINT (KBA)     YGN           MMR11008200641500022660820000000000000000   10300002 00104100000000000000000000015265     
100   9503051886239272000000000001000000000001000000200000001041040820114342002803XCCASK0820223218002803   1030000100030000   541120003117777031200000031GAMONE PWINT (BKLZ)    YGN           MMR11008201143420028030820000000000000000   10300002 00104100000000000000000000002000     
100   9503051886615257000000000001291200000001291200200000001041040820111936005258LGOPDX0820223217005258   1030000100030000   541110001907777031200000019GAMONE PWINT (KBA)     YGN           MMR11008201119360052580820000000000000000   10300002 00104100000000000000000000002582     
100   9503051873549196000000000000274400000000274400200000001041040820115819005261YOU6CA0820223218005261   1030000100030000   541110001907777031200000019GAMONE PWINT (KBA)     YGN           MMR11008201158190052610820000000000000000   10300002 00104100000000000000000000000549     
100   9503190006075271000000000006977200000006977200200000001041040820121408005263HJKPLF0820223218005263   1030000100030000   541110001907777031200000019GAMONE PWINT (KBA)     YGN           MMR11008201214080052630820000000000000000   10300014 00104100000000000000000000013954     
100   9503051872733411000000000003600000000003600000200000001041040820115256002804VXYLTT0820223218002804   1030000100030000   541120003117777031200000031GAMONE PWINT (BKLZ)    YGN           MMR11008201152560028040820000000000000000   10300002 00104100000000000000000000007200     
100   9503051023876523000000000016800000000016800000200000001041040819065616000063DQDJHV0819223113000063   1030000100030000   701120003701777031200000037PRINCE HOTEL YANGON    YGN           MMR11008190656160000630819000000000000000   10300002 00104100000000000000000000057120     
100   35710500385494550000000000019500000000019500002000000010410408200452240030974645960820223211003097   1030000100030000   541110001903777031200000019GAMONE PWINT (KBA)     YGN           MMR11008200452240030970820000000000000000   10300005 00104100000000000000000000003900     
