100   621486029553637500000000001375000000006567000020210000104840082012013600005700057U0820223218000057   10300001   35150104701110900010777030900000008HOTEL 101              NPT           MMR11008201201360000570820000000000000000   00010344F00104100000000000000000001296982     
100   62441903002759810000000000004600000000022000002021000010484008200710040006756016480820223213000675   10300001   35150104541120003001777031200000030GAMONE PWINT (TGZ)     YGN           MMR11008200710040006750820000000000000000   00010344F00104100000000000000000000027396     
100   62441903002759810000000000015360000000073400002021000010484008200702370005953898370820223213000595   10300001   35150104541120003013777031200000030GAMONE PWINT (TGZ)     YGN           MMR11008200702370005950820000000000000000   00010344F00104100000000000000000000079721     
