100   62622000357759600000000000057900000000057900002000000010410408210841590028947443480821223315002894   1030000100030000   541120003106777031200000031GAMONE PWINT (BKLZ)    YGN           MMR11008210841590028940821000000000000000   10300006 00104100000000000000000000011580     
100   35710830456631260000000000016600000000016600002000000010410408221147310015196885210822223418001519   1030000100030000   541120003008777031200000030GAMONE PWINT (TGZ)     YGN           MMR11008221147310015190822000000000000000   10300003 00104100000000000000000000003320     
100   35710500114297580000000000026068000000026068002000000010410408220926480039080081040822223415003908   1030000100030000   541110001905777031200000019GAMONE PWINT (KBA)     YGN           MMR11008220926480039080822000000000000000   10300005 00104100000000000000000000005214     
100   35710500355797600000000000021600000000021600002000000010410408220411010006806916850822223410000680   1030000100030000   541120003001777031200000030GAMONE PWINT (TGZ)     YGN           MMR11008220411010006800822000000000000000   10300005 00104100000000000000000000004320     
100   35710830346800730000000000045800000000045800002000000010410408221048450012706532700822223417001270   1030000100030000   541120003103777031200000031GAMONE PWINT (BKLZ)    YGN           MMR11008221048450012700822000000000000000   10300003 00104100000000000000000000009160     
100   35710500325773460000000000035000000000035000002000000010410408220608350053328374010822223412005332   1030000100030000   541110001907777031200000019GAMONE PWINT (KBA)     YGN           MMR11008220608350053320822000000000000000   10300005 00104100000000000000000000007000     
100   95010121409808550000000000002250000000002250002000000010410408220737550053344054720822223414005334   1030000100030000   541110001907777031200000019GAMONE PWINT (KBA)     YGN           MMR11008220737550053340822000000000000000   10100001 00104100000000000000000000000450     
100   35710500364767920000000000003450000000003450002000000010410408220843170010162548840822223415001016   1030000100030000   541120003005777031200000030GAMONE PWINT (TGZ)     YGN           MMR11008220843170010160822000000000000000   10300005 00104100000000000000000000000690     
100   35710500394194350000000000010200000000010200002000000010410408220929100039125271540822223415003912   1030000100030000   541110001905777031200000019GAMONE PWINT (KBA)     YGN           MMR11008220929100039120822000000000000000   10300005 00104100000000000000000000002040     
100   35710830134932250000000000026300000000026300002000000010410408220710270031415222910822223413003141   1030000100030000   541110001903777031200000019GAMONE PWINT (KBA)     YGN           MMR11008220710270031410822000000000000000   10300003 00104100000000000000000000005260     
100   35710500391973870000000000009500000000009500002000000010410408221047310031471503300822223417003147   1030000100030000   541110001903777031200000019GAMONE PWINT (KBA)     YGN           MMR11008221047310031470822000000000000000   10300005 00104100000000000000000000001900     
100   35710950139660180000000000022736000000022736002000000010410408220747410053365446300822223414005336   1030000100030000   541110001907777031200000019GAMONE PWINT (KBA)     YGN           MMR11008220747410053360822000000000000000   10300003 00104100000000000000000000004547     
100   35710950139660180000000000004606000000004606002000000010410408220748340053385451600822223414005338   1030000100030000   541110001907777031200000019GAMONE PWINT (KBA)     YGN           MMR11008220748340053380822000000000000000   10300003 00104100000000000000000000000921     
100   9503051889609166000000000000960000000000960000200000001041040822080712000433QEA4SX0822223414000433   1030000100030000   541120003114777031200000031GAMONE PWINT (BKLZ)    YGN           MMR11008220807120004330822000000000000000   10300002 00104100000000000000000000001920     
100   95030510267233340000000000046800000000046800002000000010410408210551520028193YJZIB0821223312002819   1030000100030000   541120003117777031200000031GAMONE PWINT (BKLZ)    YGN           MMR11008210551520028190821000000000000000   10300002 00104100000000000000000000009360     
100   9503190000293193000000000004850000000004850000200000001041040821064852002821PZ8I8T0821223313002821   1030000100030000   541120003117777031200000031GAMONE PWINT (BKLZ)    YGN           MMR11008210648520028210821000000000000000   10300014 00104100000000000000000000009700     
100   95031900044437860000000000185000000000185000002000000010410408210739410028239LB38A0821223314002823   1030000100030000   541120003117777031200000031GAMONE PWINT (BKLZ)    YGN           MMR11008210739410028230821000000000000000   10300014 00104100000000000000000000037000     
100   35710830070333750000000000030000000000030000002000000010410408210440520028865685310821223311002886   1030000100030000   541120003106777031200000031GAMONE PWINT (BKLZ)    YGN           MMR11008210440520028860821000000000000000   10300003 00104100000000000000000000006000     
100   9503190001360744000000000003660000000003660000200000001041040821075324002824DB4Y310821223314002824   1030000100030000   541120003117777031200000031GAMONE PWINT (BKLZ)    YGN           MMR11008210753240028240821000000000000000   10300014 00104100000000000000000000007320     
100   9503051026769311000000000000670000000000670000200000001041040821075712002825QN86AI0821223314002825   1030000100030000   541120003117777031200000031GAMONE PWINT (BKLZ)    YGN           MMR11008210757120028250821000000000000000   10300002 00104100000000000000000000001340     
100   35710830762130150000000000011500000000011500002000000010410408210556560028886141810821223312002888   1030000100030000   541120003106777031200000031GAMONE PWINT (BKLZ)    YGN           MMR11008210556560028880821000000000000000   10300003 00104100000000000000000000002300     
100   62346600188942590000000000021000000000021000002000000010410408210901240028278075920821223315002827   1030000100030000   541120003117777031200000031GAMONE PWINT (BKLZ)    YGN           MMR11008210901240028270821000000000000000   10300005 00104100000000000000000000004200     
100   62346600193062530000000000044500000000044500002000000010410408210937480028280033830821223316002828   1030000100030000   541120003117777031200000031GAMONE PWINT (BKLZ)    YGN           MMR11008210937480028280821000000000000000   10300005 00104100000000000000000000008900     
100   35710500305676950000000000019500000000019500002000000010410408210639390028909696460821223313002890   1030000100030000   541120003106777031200000031GAMONE PWINT (BKLZ)    YGN           MMR11008210639390028900821000000000000000   10300005 00104100000000000000000000003900     
100   35710500104397900000000000016000000000016000002000000010410408211113400028296718650821223317002829   1030000100030000   541120003117777031200000031GAMONE PWINT (BKLZ)    YGN           MMR11008211113400028290821000000000000000   10300005 00104100000000000000000000003200     
100   35710500134031320000000000036950000000036950002000000010410408210412240028157768520821223310002815   1030000100030000   541120003117777031200000031GAMONE PWINT (BKLZ)    YGN           MMR11008210412240028150821000000000000000   10300005 00104100000000000000000000007390     
100   35710500134031320000000000036950000000036950002000000010410408210413300028160749660821223310002816   1030000100030000   541120003117777031200000031GAMONE PWINT (BKLZ)    YGN           MMR11008210413300028160821000000000000000   10300005 00104100000000000000000000007390     
100   35710500395504860000000000017000000000017000002000000010410408210821590028935142970821223314002893   1030000100030000   541120003106777031200000031GAMONE PWINT (BKLZ)    YGN           MMR11008210821590028930821000000000000000   10300005 00104100000000000000000000003400     
100   9503051889669434000000000002190000000002190000200000001041040821091659002897SYLPJK0821223315002897   1030000100030000   541120003106777031200000031GAMONE PWINT (BKLZ)    YGN           MMR11008210916590028970821000000000000000   10300002 00104100000000000000000000004380     
100   35710830306425720000000000031900000000031900002000000010410408210611250028206228710821223312002820   1030000100030000   541120003117777031200000031GAMONE PWINT (BKLZ)    YGN           MMR11008210611250028200821000000000000000   10300003 00104100000000000000000000006380     
100   35710830193800530000000000008800000000008800002000000010410408210709080028226575010821223313002822   1030000100030000   541120003117777031200000031GAMONE PWINT (BKLZ)    YGN           MMR11008210709080028220821000000000000000   10300003 00104100000000000000000000001760     
100   35710500156211370000000000005700000000005700002000000010410408210758360028269405860821223314002826   1030000100030000   541120003117777031200000031GAMONE PWINT (BKLZ)    YGN           MMR11008210758360028260821000000000000000   10300005 00104100000000000000000000001140     
100   35710500323994510000000000056460000000056460002000000010410408220558300053263600540822223412005326   1030000100030000   541110001907777031200000019GAMONE PWINT (KBA)     YGN           MMR11008220558300053260822000000000000000   10300005 00104100000000000000000000011292     
100   35710500363756630000000000060500000000060500002000000010410408220959130000655299340822223416000065   1030000100030000   701110900010777030900000008HOTEL 101              NPT           MMR11008220959130000650822000000000000000   10300005 00104100000000000000000000020570     
100   62622000835299960000000000082500000000082500002000000010410408221058440000677993790822223417000067   1030000100030000   701110900010777030900000008HOTEL 101              NPT           MMR11008221058440000670822000000000000000   10300006 00104100000000000000000000028050     
100   9503051886724380000000000000700000000000700000200000001041040822074550002241AEVFKL0822223414002241   1030000100030000   541110001920777031200000019GAMONE PWINT (KBA)     YGN           MMR11008220745500022410822000000000000000   10300002 00104100000000000000000000001400     
100   35710500355039010000000000006976000000006976002000000010410408221054150010173702010822223417001017   1030000100030000   541120003005777031200000030GAMONE PWINT (TGZ)     YGN           MMR11008221054150010170822000000000000000   10300005 00104100000000000000000000001395     
100   62346600130532240000000000017800000000017800002000000010410408220853250015152988110822223415001515   1030000100030000   541120003008777031200000030GAMONE PWINT (TGZ)     YGN           MMR11008220853250015150822000000000000000   10300005 00104100000000000000000000003560     
100   35710500391973870000000000005250000000005250002000000010410408221122030039175247540822223417003917   1030000100030000   541110001905777031200000019GAMONE PWINT (KBA)     YGN           MMR11008221122030039170822000000000000000   10300005 00104100000000000000000000001050     
100   95030800006912090000000000140000000000140000002000000010410408221001040053406246610822223416005340   1030000100030000   541110001907777031200000019GAMONE PWINT (KBA)     YGN           MMR11008221001040053400822000000000000000   10300003 00104100000000000000000000028000     
100   35710830447467240000000000033000000000033000002000000010410408221023300053436381120822223416005343   1030000100030000   541110001907777031200000019GAMONE PWINT (KBA)     YGN           MMR11008221023300053430822000000000000000   10300003 00104100000000000000000000006600     
100   35710830447467240000000000016000000000016000002000000010410408221030040053466420600822223417005346   1030000100030000   541110001907777031200000019GAMONE PWINT (KBA)     YGN           MMR11008221030040053460822000000000000000   10300003 00104100000000000000000000003200     
100   9503051025248689000000000000265000000000265000200000001041040822062646001213BDRKR20822223412001213   1030000100030000   541120003104777031200000031GAMONE PWINT (BKLZ)    YGN           MMR11008220626460012130822000000000000000   10300002 00104100000000000000000000000530     
100   9503051873238535000000000017210100000017210100200000001041040822071139002098PW6RPF0822223413002098   1030000100030000   541160000001777031200000006MK FASHION             YGN           MMR11008220711390020980822000000000000000   10300002 00104100000000000000000000034420     
100   9503051024196905000000000007320000000007320000200000001041040822075422003898XQDVCY0822223414003898   1030000100030000   541110001905777031200000019GAMONE PWINT (KBA)     YGN           MMR11008220754220038980822000000000000000   10300002 00104100000000000000000000014640     
100   9503051873090134000000000000510000000000510000200000001041040822094233001264UHACF00822223416001264   1030000100030000   541120003103777031200000031GAMONE PWINT (BKLZ)    YGN           MMR11008220942330012640822000000000000000   10300002 00104100000000000000000000001020     
100   9503051024466035000000000002300000000002300000200000001041040822040351003137HJIKVN0822223410003137   1030000100030000   541110001903777031200000019GAMONE PWINT (KBA)     YGN           MMR11008220403510031370822000000000000000   10300002 00104100000000000000000000004600     
100   62346600107162520000000000027800000000027800002000000010410408220730190031433844410822223414003143   1030000100030000   541110001903777031200000019GAMONE PWINT (KBA)     YGN           MMR11008220730190031430822000000000000000   10300005 00104100000000000000000000005560     
100   35710500184227720000000000017000000000017000002000000010410408220945500031459328590822223416003145   1030000100030000   541110001903777031200000019GAMONE PWINT (KBA)     YGN           MMR11008220945500031450822000000000000000   10300005 00104100000000000000000000003400     
100   9503051026810990000000000003750000000003750000200000001041040822110657005350KAMVRQ0822223417005350   1030000100030000   541110001907777031200000019GAMONE PWINT (KBA)     YGN           MMR11008221106570053500822000000000000000   10300002 00104100000000000000000000007500     
100   9503051024293181000000000000710000000000710000200000001041040822121048001018ROWQCJ0822223418001018   1030000100030000   541120003005777031200000030GAMONE PWINT (TGZ)     YGN           MMR11008221210480010180822000000000000000   10300002 00104100000000000000000000001420     
100   9503190005348083000000000000450000000000450000200000001041040822081805001262RGPDP00822223414001262   1030000100030000   541120003103777031200000031GAMONE PWINT (BKLZ)    YGN           MMR11008220818050012620822000000000000000   10300014 00104100000000000000000000000900     
100   35710830999054560000000000008200000000008200002000000010410408221213190039247040110822223418003924   1030000100030000   541110001905777031200000019GAMONE PWINT (KBA)     YGN           MMR11008221213190039240822000000000000000   10300003 00104100000000000000000000001640     
100   35710830971476220000000000014210000000014210002000000010410408221146260053606878810822223418005360   1030000100030000   541110001907777031200000019GAMONE PWINT (KBA)     YGN           MMR11008221146260053600822000000000000000   10300003 00104100000000000000000000002842     
100   9503051025130721000000000007450000000007450000200000001041040822113631005355ZO4N2L0822223418005355   1030000100030000   541110001907777031200000019GAMONE PWINT (KBA)     YGN           MMR11008221136310053550822000000000000000   10300002 00104100000000000000000000014900     
100   95030518730901340000000000007000000000007000002000000010410408221008020012661FBKXW0822223416001266   1030000100030000   541120003103777031200000031GAMONE PWINT (BKLZ)    YGN           MMR11008221008020012660822000000000000000   10300002 00104100000000000000000000001400     
100   9503051894055892000000000000436800000000436800200000001041040822065521001513FR0ENP0822223413001513   1030000100030000   541120003008777031200000030GAMONE PWINT (TGZ)     YGN           MMR11008220655210015130822000000000000000   10300002 00104100000000000000000000000874     
100   9503051024947331000000000022062000000022062000200000001041040822095509002105Y1U5WB0822223416002105   1030000100030000   541160000001777031200000006MK FASHION             YGN           MMR11008220955090021050822000000000000000   10300002 00104100000000000000000000044124     
100   9503051024293181000000000001200000000001200000200000001041040822120032000654GUAQQN0822223418000654   1030000100030000   541120003012777031200000030GAMONE PWINT (TGZ)     YGN           MMR11008221200320006540822000000000000000   10300002 00104100000000000000000000002400     
100   9503051889595233000000000001176000000001176000200000001041040822120730003919QEHDQ40822223418003919   1030000100030000   541110001905777031200000019GAMONE PWINT (KBA)     YGN           MMR11008221207300039190822000000000000000   10300002 00104100000000000000000000002352     
100   35710830971476220000000000011368000000011368002000000010410408221241070053637206920822223419005363   1030000100030000   541110001907777031200000019GAMONE PWINT (KBA)     YGN           MMR11008221241070053630822000000000000000   10300003 00104100000000000000000000002274     
100   9503190000368060000000000004800000000004800000200000001041040822104206001517C8XZ0W0822223417001517   1030000100030000   541120003008777031200000030GAMONE PWINT (TGZ)     YGN           MMR11008221042060015170822000000000000000   10300014 00104100000000000000000000009600     
100   35710830194957030000000000043200000000043200002000000010410408220906190039045918110822223415003904   1030000100030000   541110001905777031200000019GAMONE PWINT (KBA)     YGN           MMR11008220906190039040822000000000000000   10300003 00104100000000000000000000008640     
100   9503051894055892000000000001350000000001350000200000001041040822071400000603XTFBJU0822223413000603   1030000100030000   541120003013777031200000030GAMONE PWINT (TGZ)     YGN           MMR11008220714000006030822000000000000000   10300002 00104100000000000000000000002700     
100   9503051024623650000000000005420000000005420000200000001041040822041217001015B8MV6I0822223410001015   1030000100030000   541120003005777031200000030GAMONE PWINT (TGZ)     YGN           MMR11008220412170010150822000000000000000   10300002 00104100000000000000000000010840     
