100   62622000841517170000000000008800000000008800002000000010410408230628220004357994840823223512000435   1030000100030000   541120003114777031200000031GAMONE PWINT (BKLZ)    YGN           MMR11008230628220004350823000000000000000   10300006 00104100000000000000000000001760     
100   62622000841517170000000000003100000000003100002000000010410408230644250004367994960823223513000436   1030000100030000   541120003114777031200000031GAMONE PWINT (BKLZ)    YGN           MMR11008230644250004360823000000000000000   10300006 00104100000000000000000000000620     
100   35710500334769360000000000022785000000022785002000000010410408230808220010229005560823223514001022   1030000100030000   541120003005777031200000030GAMONE PWINT (TGZ)     YGN           MMR11008230808220010220823000000000000000   10300005 00104100000000000000000000004557     
100   35710500161233230000000000015000000000015000002000000010410408230535190015296604070823223512001529   1030000100030000   541120003008777031200000030GAMONE PWINT (TGZ)     YGN           MMR11008230535190015290823000000000000000   10300005 00104100000000000000000000003000     
100   35710830418121800000000000029600000000029600002000000010410408230856270015354498810823223515001535   1030000100030000   541120003008777031200000030GAMONE PWINT (TGZ)     YGN           MMR11008230856270015350823000000000000000   10300003 00104100000000000000000000005920     
100   35710830418121800000000000007500000000007500002000000010410408230900250015374522700823223515001537   1030000100030000   541120003008777031200000030GAMONE PWINT (TGZ)     YGN           MMR11008230900250015370823000000000000000   10300003 00104100000000000000000000001500     
100   9503051025598307000000000013455400000013455400200000001041040823085550002832SIKG2F0823223515002832   1030000100030000   541120003117777031200000031GAMONE PWINT (BKLZ)    YGN           MMR11008230855500028320823000000000000000   10300002 00104100000000000000000000026911     
100   35710830498419260000000000072600000000072600002000000010410408230700010031553800220823223513003155   1030000100030000   541110001903777031200000019GAMONE PWINT (KBA)     YGN           MMR11008230700010031550823000000000000000   10300003 00104100000000000000000000014520     
100   35710830236383060000000000045800000000045800002000000010410408230938100031614749210823223516003161   1030000100030000   541110001903777031200000019GAMONE PWINT (KBA)     YGN           MMR11008230938100031610823000000000000000   10300003 00104100000000000000000000009160     
100   35710500344460290000000000020500000000020500002000000010410408231054270008876837270823223517000887   1030000100030000   541120003111777031200000031GAMONE PWINT (BKLZ)    YGN           MMR11008231054270008870823000000000000000   10300005 00104100000000000000000000004100     
100   62343302004744800000000000112118000000112118002000000010410408230449220021097925470823223511002109   1030000100030000   541160000001777031200000006MK FASHION             YGN           MMR11008230449220021090823000000000000000   10300004 00104100000000000000000000022424     
100   35710900273433950000000000027000000000027000002000000010410408231000490031634885010823223516003163   1030000100030000   541110001903777031200000019GAMONE PWINT (KBA)     YGN           MMR11008231000490031630823000000000000000   10300003 00104100000000000000000000005400     
100   35710500165317800000000000065000000000065000002000000010410408230743220001758866020823223514000175   1030000100030000   541120000010777031200000002ZAW TI KA THINKAN TIKE YGN           MMR11008230743220001750823000000000000000   10300005 00104100000000000000000000013000     
100   35710500352871820000000000026650000000026650002000000010410408231244000004404802780823223519000440   1030000100030000   541120003114777031200000031GAMONE PWINT (BKLZ)    YGN           MMR11008231244000004400823000000000000000   10300005 00104100000000000000000000005330     
100   9503051897582850000000000003724000000003724000200000001041040823033821001523MLSMVV0823223510001523   1030000100030000   541120003008777031200000030GAMONE PWINT (TGZ)     YGN           MMR11008230338210015230823000000000000000   10300002 00104100000000000000000000007448     
100   35710500364480800000000000059500000000059500002000000010410408231120100031654324510823223517003165   1030000100030000   541110001903777031200000019GAMONE PWINT (KBA)     YGN           MMR11008231120100031650823000000000000000   10300005 00104100000000000000000000011900     
100   35710830554392500000000000013000000000013000002000000010410408231013490000474963110823223516000047   1030000100030000   541110900003777030900000003TOP STAR SPORTWEARS &  NPT           MMR11008231013490000470823000000000000000   10300003 00104100000000000000000000002600     
100   9503051025367786000000000012696000000012696000200000001041040823100607002111SAATPN0823223516002111   1030000100030000   541160000001777031200000006MK FASHION             YGN           MMR11008231006070021110823000000000000000   10300002 00104100000000000000000000025392     
100   9503051025127933000000000003330000000003330000200000001041040823105630000438IMYT8M0823223517000438   1030000100030000   541120003114777031200000031GAMONE PWINT (BKLZ)    YGN           MMR11008231056300004380823000000000000000   10300002 00104100000000000000000000006660     
100   62343302007902810000000000026000000000026000002000000010410408231139490004398874990823223518000439   1030000100030000   541120003114777031200000031GAMONE PWINT (BKLZ)    YGN           MMR11008231139490004390823000000000000000   10300004 00104100000000000000000000005200     
100   35710500140161980000000000158260000000158260002000000010410408231039070021136093270823223517002113   1030000100030000   541160000001777031200000006MK FASHION             YGN           MMR11008231039070021130823000000000000000   10300005 00104100000000000000000000031652     
100   9503051872806076000000000001000000000001000000200000001041040823051722001020RY92B50823223511001020   1030000100030000   541120003005777031200000030GAMONE PWINT (TGZ)     YGN           MMR11008230517220010200823000000000000000   10300002 00104100000000000000000000002000     
100   9503051023471564000000000002350000000002350000200000001041040823053933001021LAHQOT0823223512001021   1030000100030000   541120003005777031200000030GAMONE PWINT (TGZ)     YGN           MMR11008230539330010210823000000000000000   10300002 00104100000000000000000000004700     
100   35710830515799190000000000007100000000007100002000000010410408231017250010234984720823223516001023   1030000100030000   541120003005777031200000030GAMONE PWINT (TGZ)     YGN           MMR11008231017250010230823000000000000000   10300003 00104100000000000000000000001420     
100   95030800032393030000000000002413000000002413002000000010410408231112560010245317710823223517001024   1030000100030000   541120003005777031200000030GAMONE PWINT (TGZ)     YGN           MMR11008231112560010240823000000000000000   10300003 00104100000000000000000000000483     
100   35710500365403400000000000008036000000008036002000000010410408231153120010257341430823223518001025   1030000100030000   541120003005777031200000030GAMONE PWINT (TGZ)     YGN           MMR11008231153120010250823000000000000000   10300005 00104100000000000000000000001607     
100   35710830344840620000000000027000000000027000002000000010410408230846070015334436900823223515001533   1030000100030000   541120003008777031200000030GAMONE PWINT (TGZ)     YGN           MMR11008230846070015330823000000000000000   10300003 00104100000000000000000000005400     
100   9503051897582850000000000001296000000001296000200000001041040823041317001525B0Y5PZ0823223510001525   1030000100030000   541120003008777031200000030GAMONE PWINT (TGZ)     YGN           MMR11008230413170015250823000000000000000   10300002 00104100000000000000000000002592     
100   62441900101516540000000000017700000000017700002000000010410408230845350028314091140823223515002831   1030000100030000   541120003117777031200000031GAMONE PWINT (BKLZ)    YGN           MMR11008230845350028310823000000000000000   10300003 00104100000000000000000000006195     
100   95030510251279330000000000022500000000022500002000000010410408231130110012738EEYI50823223518001273   1030000100030000   541120003103777031200000031GAMONE PWINT (BKLZ)    YGN           MMR11008231130110012730823000000000000000   10300002 00104100000000000000000000004500     
100   35710500323476740000000000039300000000039300002000000010410408230656010004374048820823223513000437   1030000100030000   541120003114777031200000031GAMONE PWINT (BKLZ)    YGN           MMR11008230656010004370823000000000000000   10300005 00104100000000000000000000007860     
100   9503051873819045000000000001220000000001220000200000001041040823043304001527DUWN3O0823223511001527   1030000100030000   541120003008777031200000030GAMONE PWINT (TGZ)     YGN           MMR11008230433040015270823000000000000000   10300002 00104100000000000000000000002440     
100   35710500363756630000000000010500000000010500002000000010410408230243400000695377300823223509000069   1030000100030000   701110900010777030900000008HOTEL 101              NPT           MMR11008230243400000690823000000000000000   10300005 00104100000000000000000000003570     
100   35710830979045430000000000028250000000028250002000000010410408230701240012213808510823223513001221   1030000100030000   541120003104777031200000031GAMONE PWINT (BKLZ)    YGN           MMR11008230701240012210823000000000000000   10300003 00104100000000000000000000005650     
100   9503051022962720000000000000525000000000525000200000001041040823103118001223LFWCGZ0823223517001223   1030000100030000   541120003104777031200000031GAMONE PWINT (BKLZ)    YGN           MMR11008231031180012230823000000000000000   10300002 00104100000000000000000000001050     
100   9503051896381684000000000002320000000002320000200000001041040823113329001543NNHBXF0823223518001543   1030000100030000   541120003008777031200000030GAMONE PWINT (TGZ)     YGN           MMR11008231133290015430823000000000000000   10300002 00104100000000000000000000004640     
100   35710500312538080000000000015800000000015800002000000010410408230614260031539203050823223512003153   1030000100030000   541110001903777031200000019GAMONE PWINT (KBA)     YGN           MMR11008230614260031530823000000000000000   10300005 00104100000000000000000000003160     
100   62622000835299960000000000089170000000089170002000000010410408230303200000718381660823223509000071   1030000100030000   701110900010777030900000008HOTEL 101              NPT           MMR11008230303200000710823000000000000000   10300006 00104100000000000000000000030318     
100   35710500325458480000000000027000000000027000002000000010410408230733150031570419620823223514003157   1030000100030000   541110001903777031200000019GAMONE PWINT (KBA)     YGN           MMR11008230733150031570823000000000000000   10300005 00104100000000000000000000005400     
100   9503051022159814000000000005360000000005360000200000001041040823083709003159TLBDZD0823223515003159   1030000100030000   541110001903777031200000019GAMONE PWINT (KBA)     YGN           MMR11008230837090031590823000000000000000   10300002 00104100000000000000000000010720     
100   9503051025033412000000000001870000000001870000200000001041040823044933003934K4DOFY0823223511003934   1030000100030000   541110001905777031200000019GAMONE PWINT (KBA)     YGN           MMR11008230449330039340823000000000000000   10300002 00104100000000000000000000003740     
100   95031900064820630000000000122794000000122794002000000010410408230832590039406WKGRG0823223515003940   1030000100030000   541110001905777031200000019GAMONE PWINT (KBA)     YGN           MMR11008230832590039400823000000000000000   10300014 00104100000000000000000000024559     
100   35710500381204480000000000016000000000016000002000000010410408230640490053712962760823223513005371   1030000100030000   541110001907777031200000019GAMONE PWINT (KBA)     YGN           MMR11008230640490053710823000000000000000   10300005 00104100000000000000000000003200     
100   9503051024379642000000000011500000000011500000200000001041040823092551005380UVRAFG0823223515005380   1030000100030000   541110001907777031200000019GAMONE PWINT (KBA)     YGN           MMR11008230925510053800823000000000000000   10300002 00104100000000000000000000023000     
100   9503051887924799000000000000410000000000410000200000001041040823082429005377OZWD2M0823223514005377   1030000100030000   541110001907777031200000019GAMONE PWINT (KBA)     YGN           MMR11008230824290053770823000000000000000   10300002 00104100000000000000000000000820     
100   35710830974637300000000000010750000000010750002000000010410408230944200053824786210823223516005382   1030000100030000   541110001907777031200000019GAMONE PWINT (KBA)     YGN           MMR11008230944200053820823000000000000000   10300003 00104100000000000000000000002150     
100   9503051024379642000000000002710000000002710000200000001041040823095220005384IIGIX80823223516005384   1030000100030000   541110001907777031200000019GAMONE PWINT (KBA)     YGN           MMR11008230952200053840823000000000000000   10300002 00104100000000000000000000005420     
