100   62622000127409460000000000039900000000039900002000000010410408230956060029159395770823223516002915   1030000100030000   541120003106777031200000031GAMONE PWINT (BKLZ)    YGN           MMR11008230956060029150823000000000000000   10300006 00104100000000000000000000007980     
100   35710830575697990000000000004200000000004200002000000010410408241007240004463564600824223616000446   1030000100030000   541120003114777031200000031GAMONE PWINT (BKLZ)    YGN           MMR11008241007240004460824000000000000000   10300003 00104100000000000000000000000840     
100   35710830421759340000000000045800000000045800002000000010410408240524220012771866310824223611001277   1030000100030000   541120003103777031200000031GAMONE PWINT (BKLZ)    YGN           MMR11008240524220012770824000000000000000   10300003 00104100000000000000000000009160     
100   35710830102119500000000000004700000000004700002000000010410408240636010010382296310824223613001038   1030000100030000   541120003005777031200000030GAMONE PWINT (TGZ)     YGN           MMR11008240636010010380824000000000000000   10300003 00104100000000000000000000000940     
100   35710500154036680000000000002700000000002700002000000010410408240643180004438007390824223613000443   1030000100030000   541120003114777031200000031GAMONE PWINT (BKLZ)    YGN           MMR11008240643180004430824000000000000000   10300005 00104100000000000000000000000540     
100   35710950510308260000000000003450000000003450002000000010410408240343500006841263210824223610000684   1030000100030000   541120003001777031200000030GAMONE PWINT (TGZ)     YGN           MMR11008240343500006840824000000000000000   10300003 00104100000000000000000000000690     
100   35710830647481210000000000050450000000050450002000000010410408240428390010281532010824223610001028   1030000100030000   541120003005777031200000030GAMONE PWINT (TGZ)     YGN           MMR11008240428390010280824000000000000000   10300003 00104100000000000000000000010090     
100   62622000540998620000000000020800000000020800002000000010410408240622540006858383430824223612000685   1030000100030000   541120003001777031200000030GAMONE PWINT (TGZ)     YGN           MMR11008240622540006850824000000000000000   10300006 00104100000000000000000000004160     
100   950305102655152900000000000230000000000230000020000000104104082411151300127925EKBU0824223617001279   1030000100030000   541120003103777031200000031GAMONE PWINT (BKLZ)    YGN           MMR11008241115130012790824000000000000000   10300002 00104100000000000000000000004600     
100   95030510233801950000000000031161000000031161002000000010410408240801080010402UNITI0824223614001040   1030000100030000   541120003005777031200000030GAMONE PWINT (TGZ)     YGN           MMR11008240801080010400824000000000000000   10300002 00104100000000000000000000006232     
100   35710500345440620000000000015300000000015300002000000010410408240455260010301405200824223611001030   1030000100030000   541120003005777031200000030GAMONE PWINT (TGZ)     YGN           MMR11008240455260010300824000000000000000   10300005 00104100000000000000000000003060     
100   35710500355039010000000000011300000000011300002000000010410408240901020006867418800824223615000686   1030000100030000   541120003001777031200000030GAMONE PWINT (TGZ)     YGN           MMR11008240901020006860824000000000000000   10300005 00104100000000000000000000002260     
100   9503051025133634000000000004200000000004200000200000001041040824060045000042LIH5UD0824223612000042   1030000100030000   509410001701777031200000017AYAWADDYMANDALAY JEWEL YGN           MMR11008240600450000420824000000000000000   10300002 00104100000000000000000000021000     
100   35710500355039010000000000002744000000002744002000000010410408241024250010427062490824223616001042   1030000100030000   541120003005777031200000030GAMONE PWINT (TGZ)     YGN           MMR11008241024250010420824000000000000000   10300005 00104100000000000000000000000549     
100   35710950886095010000000000008500000000008500002000000010410408240751480004442750920824223614000444   1030000100030000   541120003114777031200000031GAMONE PWINT (BKLZ)    YGN           MMR11008240751480004440824000000000000000   10300003 00104100000000000000000000001700     
100   62622000851014220000000000002900000000002900002000000010410408240545480010328951520824223612001032   1030000100030000   541120003005777031200000030GAMONE PWINT (TGZ)     YGN           MMR11008240545480010320824000000000000000   10300006 00104100000000000000000000000580     
100   9503051025371200000000000001760000000001760000200000001041040824062446000889OWORIP0824223612000889   1030000100030000   541120003111777031200000031GAMONE PWINT (BKLZ)    YGN           MMR11008240624460008890824000000000000000   10300002 00104100000000000000000000003520     
100   35710950852731450000000000277200000000277200002000000010410408241416280009135059010824223620000913   1030000100030000   581210001201777031200000012L OPERA RESTAURANT YGN YGN           MMR11008241416280009130824000000000000000   10300003 00104100000000000000000000094248     
100   35710500395612770000000000004450000000004450002000000010410408240849300004459245890824223615000445   1030000100030000   541120003114777031200000031GAMONE PWINT (BKLZ)    YGN           MMR11008240849300004450824000000000000000   10300005 00104100000000000000000000000890     
100   35710500301230360000000000010150000000010150002000000010410408240551380010362577380824223612001036   1030000100030000   541120003005777031200000030GAMONE PWINT (TGZ)     YGN           MMR11008240551380010360824000000000000000   10300005 00104100000000000000000000002030     
100   9503051873224576000000000000585000000000585000200000001041040824053021000442REXHMT0824223612000442   1030000100030000   541120003114777031200000031GAMONE PWINT (BKLZ)    YGN           MMR11008240530210004420824000000000000000   10300002 00104100000000000000000000001170     
100   35710830061815970000000000011000000000011000002000000010410408241128240008904050610824223617000890   1030000100030000   541120003111777031200000031GAMONE PWINT (BKLZ)    YGN           MMR11008241128240008900824000000000000000   10300003 00104100000000000000000000002200     
100   35710500303523790000000000017000000000017000002000000010410408240858580031741099800824223615003174   1030000100030000   541110001903777031200000019GAMONE PWINT (KBA)     YGN           MMR11008240858580031740824000000000000000   10300005 00104100000000000000000000003400     
100   35710500373528280000000000034900000000034900002000000010410408240902430031767588990824223615003176   1030000100030000   541110001903777031200000019GAMONE PWINT (KBA)     YGN           MMR11008240902430031760824000000000000000   10300005 00104100000000000000000000006980     
100   35710830102119500000000000002800000000002800002000000010410408240618210015522190310824223612001552   1030000100030000   541120003008777031200000030GAMONE PWINT (TGZ)     YGN           MMR11008240618210015520824000000000000000   10300003 00104100000000000000000000000560     
100   35710500304549930000000000007500000000007500002000000010410408240620500022452014990824223612002245   1030000100030000   541110001920777031200000019GAMONE PWINT (KBA)     YGN           MMR11008240620500022450824000000000000000   10300005 00104100000000000000000000001500     
100   62443000110049980000000000019500000000019500002000000010410408240948230031794644140824223616003179   1030000100030000   541110001903777031200000019GAMONE PWINT (KBA)     YGN           MMR11008240948230031790824000000000000000   10300005 00104100000000000000000000006825     
100   35710500365926060000000000006350000000006350002000000010410408240549490053927995960824223612005392   1030000100030000   541110001907777031200000019GAMONE PWINT (KBA)     YGN           MMR11008240549490053920824000000000000000   10300005 00104100000000000000000000001270     
100   9503051026076691000000000003000000000003000000200000001041040824081336002247HQINMJ0824223614002247   1030000100030000   541110001920777031200000019GAMONE PWINT (KBA)     YGN           MMR11008240813360022470824000000000000000   10300002 00104100000000000000000000006000     
100   35710830739040200000000000040800000000040800002000000010410408241006470031813560910824223616003181   1030000100030000   541110001903777031200000019GAMONE PWINT (KBA)     YGN           MMR11008241006470031810824000000000000000   10300003 00104100000000000000000000008160     
100   9503051023879576000000000002410800000002410800200000001041040824071825005394WWX0KN0824223613005394   1030000100030000   541110001907777031200000019GAMONE PWINT (KBA)     YGN           MMR11008240718250053940824000000000000000   10300002 00104100000000000000000000004822     
100   9503051893159430000000000003790000000003790000200000001041040824111758003183T3SSC70824223617003183   1030000100030000   541110001903777031200000019GAMONE PWINT (KBA)     YGN           MMR11008241117580031830824000000000000000   10300002 00104100000000000000000000007580     
100   35710500314401650000000000007550000000007550002000000010410408240719370053969409310824223613005396   1030000100030000   541110001907777031200000019GAMONE PWINT (KBA)     YGN           MMR11008240719370053960824000000000000000   10300005 00104100000000000000000000001510     
100   35710500360846120000000000081100000000081100002000000010410408240735310053981053710824223614005398   1030000100030000   541110001907777031200000019GAMONE PWINT (KBA)     YGN           MMR11008240735310053980824000000000000000   10300005 00104100000000000000000000016220     
100   62622000181198300000000000058800000000058800002000000010410408241233530054029676260824223619005402   1030000100030000   541110001907777031200000019GAMONE PWINT (KBA)     YGN           MMR11008241233530054020824000000000000000   10300006 00104100000000000000000000011760     
100   9503051891057560000000000003944000000003944000200000001041040824050710002836PQFPKX0824223611002836   1030000100030000   541120003117777031200000031GAMONE PWINT (BKLZ)    YGN           MMR11008240507100028360824000000000000000   10300002 00104100000000000000000000007888     
100   35710500353648740000000000024900000000024900002000000010410408240625580028394504650824223612002839   1030000100030000   541120003117777031200000031GAMONE PWINT (BKLZ)    YGN           MMR11008240625580028390824000000000000000   10300005 00104100000000000000000000004980     
100   9503051890093269000000000005900000000005900000200000001041040824123732005404QHQUUA0824223619005404   1030000100030000   541110001907777031200000019GAMONE PWINT (KBA)     YGN           MMR11008241237320054040824000000000000000   10300002 00104100000000000000000000011800     
100   35710500360846120000000000070000000000070000002000000010410408240810390039494493220824223614003949   1030000100030000   541110001905777031200000019GAMONE PWINT (KBA)     YGN           MMR11008240810390039490824000000000000000   10300005 00104100000000000000000000014000     
100   35710950886095010000000000001800000000001800002000000010410408240744390028422708100824223614002842   1030000100030000   541120003117777031200000031GAMONE PWINT (BKLZ)    YGN           MMR11008240744390028420824000000000000000   10300003 00104100000000000000000000000360     
100   62346600124446480000000000135000000000135000002000000010410408240935490028452304940824223616002845   1030000100030000   541120003117777031200000031GAMONE PWINT (BKLZ)    YGN           MMR11008240935490028450824000000000000000   10300005 00104100000000000000000000027000     
100   35710500355548050000000000025800000000025800002000000010410408240531390031726073870824223612003172   1030000100030000   541110001903777031200000019GAMONE PWINT (KBA)     YGN           MMR11008240531390031720824000000000000000   10300005 00104100000000000000000000005160     
100   35710500345440620000000000004800000000004800002000000010410408240512310015482219680824223611001548   1030000100030000   541120003008777031200000030GAMONE PWINT (TGZ)     YGN           MMR11008240512310015480824000000000000000   10300005 00104100000000000000000000000960     
100   35710500345440620000000000008000000000008000002000000010410408240522140015500677140824223611001550   1030000100030000   541120003008777031200000030GAMONE PWINT (TGZ)     YGN           MMR11008240522140015500824000000000000000   10300005 00104100000000000000000000001600     
100   35710830571182090000000000025000000000025000002000000010410408241005350029253553710824223616002925   1030000100030000   541120003106777031200000031GAMONE PWINT (BKLZ)    YGN           MMR11008241005350029250824000000000000000   10300003 00104100000000000000000000005000     
100   35710830762130150000000000006000000000006000002000000010410408241129040029284054510824223617002928   1030000100030000   541120003106777031200000031GAMONE PWINT (BKLZ)    YGN           MMR11008241129040029280824000000000000000   10300003 00104100000000000000000000001200     
100   9503051025492832000000000001420000000001420000200000001041040824084914003958ELHGZD0824223615003958   1030000100030000   541110001905777031200000019GAMONE PWINT (KBA)     YGN           MMR11008240849140039580824000000000000000   10300002 00104100000000000000000000002840     
100   9503051024717718000000000002940000000002940000200000001041040824123337003962VVJTIU0824223619003962   1030000100030000   541110001905777031200000019GAMONE PWINT (KBA)     YGN           MMR11008241233370039620824000000000000000   10300002 00104100000000000000000000005880     
100   35710830890130890000000000015650000000015650002000000010410408230615400018443534210823223512001844   1030000100030000   581250000001777031200000005AVENUE J COFFEE SHOP   YGN           MMR11008230615400018440823000000000000000   10300003 00104100000000000000000000005321     
100   9503190006309134000000000000434500000000434500200000001041040823113234001845A8RQ9S0823223518001845   1030000100030000   581250000001777031200000005AVENUE J COFFEE SHOP   YGN           MMR11008231132340018450823000000000000000   10300014 00104100000000000000000000001477     
100   62444500200604710000000000017000000000017000002000000010410408230913100029134874110823223515002913   1030000100030000   541120003106777031200000031GAMONE PWINT (BKLZ)    YGN           MMR11008230913100029130823000000000000000   10300002 00104100000000000000000000005950     
