100   35710830064061430000000000024864000000024864002000000010410408251003140015642179620825223716001564   1030000100030000   541120003008777031200000030GAMONE PWINT (TGZ)     YGN           MMR11008251003140015640825000000000000000   10300003 00104100000000000000000000004973     
100   35710830402834250000000000038000000000038000002000000010410408251014340015662247510825223716001566   1030000100030000   541120003008777031200000030GAMONE PWINT (TGZ)     YGN           MMR11008251014340015660825000000000000000   10300003 00104100000000000000000000007600     
100   35710830077708850000000000019100000000019100002000000010410408251040080015682401010825223717001568   1030000100030000   541120003008777031200000030GAMONE PWINT (TGZ)     YGN           MMR11008251040080015680825000000000000000   10300003 00104100000000000000000000003820     
100   35710500324430930000000000009500000000009500002000000010410408251051340015722535030825223717001572   1030000100030000   541120003008777031200000030GAMONE PWINT (TGZ)     YGN           MMR11008251051340015720825000000000000000   10300005 00104100000000000000000000001900     
100   35710500184317730000000000141900000000141900002000000010410408251455160009161402630825223721000916   1030000100030000   581210001201777031200000012L OPERA RESTAURANT YGN YGN           MMR11008251455160009160825000000000000000   10300005 00104100000000000000000000048246     
100   62343302000779110000000000010298000000010298002000000010410408250501500015585861540825223711001558   1030000100030000   541120003008777031200000030GAMONE PWINT (TGZ)     YGN           MMR11008250501500015580825000000000000000   10300004 00104100000000000000000000002060     
100   9503051872465683000000000002016000000002016000200000001041040825060757001282HFRAYB0825223712001282   1030000100030000   541120003103777031200000031GAMONE PWINT (BKLZ)    YGN           MMR11008250607570012820825000000000000000   10300002 00104100000000000000000000004032     
100   35710830430071360000000000058996000000058996002000000010410408250800390015611444010825223714001561   1030000100030000   541120003008777031200000030GAMONE PWINT (TGZ)     YGN           MMR11008250800390015610825000000000000000   10300003 00104100000000000000000000011799     
100   95031900063091340000000000008580000000008580002000000010410408250958510018496M5QMZ0825223716001849   1030000100030000   581250000001777031200000005AVENUE J COFFEE SHOP   YGN           MMR11008250958510018490825000000000000000   10300014 00104100000000000000000000002917     
100   35710950472686390000000000024400000000024400002000000010410408250957440018482146620825223716001848   1030000100030000   581250000001777031200000005AVENUE J COFFEE SHOP   YGN           MMR11008250957440018480825000000000000000   10300003 00104100000000000000000000008296     
100   9503051893292264000000000003300000000003300000200000001041040825044722000688BQY1HR0825223711000688   1030000100030000   541120003001777031200000030GAMONE PWINT (TGZ)     YGN           MMR11008250447220006880825000000000000000   10300002 00104100000000000000000000006600     
100   9503051022023572000000000002610000000002610000200000001041040825075620003972KEPQGI0825223714003972   1030000100030000   541110001905777031200000019GAMONE PWINT (KBA)     YGN           MMR11008250756200039720825000000000000000   10300002 00104100000000000000000000005220     
100   9503051888664808000000000004300000000004300000200000001041040825081749002932QGOU3M0825223714002932   1030000100030000   541120003106777031200000031GAMONE PWINT (BKLZ)    YGN           MMR11008250817490029320825000000000000000   10300002 00104100000000000000000000008600     
100   35710500335631470000000000039900000000039900002000000010410408250534230031884124500825223712003188   1030000100030000   541110001903777031200000019GAMONE PWINT (KBA)     YGN           MMR11008250534230031880825000000000000000   10300005 00104100000000000000000000007980     
100   35710500334051410000000000020800000000020800002000000010410408250844220039770746850825223715003977   1030000100030000   541110001905777031200000019GAMONE PWINT (KBA)     YGN           MMR11008250844220039770825000000000000000   10300005 00104100000000000000000000004160     
100   95030518915737150000000000052560000000052560002000000010410408250541190054091BX6MA0825223712005409   1030000100030000   541110001907777031200000019GAMONE PWINT (KBA)     YGN           MMR11008250541190054090825000000000000000   10300002 00104100000000000000000000010512     
100   35710500120262310000000000198440000000198440002000000010410408250748470021199400480825223714002119   1030000100030000   541160000001777031200000006MK FASHION             YGN           MMR11008250748470021190825000000000000000   10300005 00104100000000000000000000039688     
100   9503051025332756000000000003300000000003300000200000001041040825073658003194TI05AA0825223714003194   1030000100030000   541110001903777031200000019GAMONE PWINT (KBA)     YGN           MMR11008250736580031940825000000000000000   10300002 00104100000000000000000000006600     
100   35710830928411610000000000011000000000011000002000000010410408250644540054120989610825223713005412   1030000100030000   541110001907777031200000019GAMONE PWINT (KBA)     YGN           MMR11008250644540054120825000000000000000   10300003 00104100000000000000000000002200     
100   9503051888415573000000000000646800000000646800200000001041040825073511005414VQUXYG0825223714005414   1030000100030000   541110001907777031200000019GAMONE PWINT (KBA)     YGN           MMR11008250735110054140825000000000000000   10300002 00104100000000000000000000001294     
100   62343302008545410000000000008000000000008000002000000010410408250809230022539029040825223714002253   1030000100030000   541110001920777031200000019GAMONE PWINT (KBA)     YGN           MMR11008250809230022530825000000000000000   10300004 00104100000000000000000000001600     
100   35710900871900660000000000018500000000018500002000000010410408250944590028472070100825223716002847   1030000100030000   541120003117777031200000031GAMONE PWINT (BKLZ)    YGN           MMR11008250944590028470825000000000000000   10300003 00104100000000000000000000003700     
100   9503190005696523000000000002072700000002072700200000001041040825094057003983JFFTX80825223716003983   1030000100030000   541110001905777031200000019GAMONE PWINT (KBA)     YGN           MMR11008250940570039830825000000000000000   10300014 00104100000000000000000000004146     
100   9503051022023572000000000000550000000000550000200000001041040825073732005416FLVXFP0825223714005416   1030000100030000   541110001907777031200000019GAMONE PWINT (KBA)     YGN           MMR11008250737320054160825000000000000000   10300002 00104100000000000000000000001100     
100   9503051022519967000000000028800000000028800000200000001041040825084237005419YYHNAS0825223715005419   1030000100030000   541110001907777031200000019GAMONE PWINT (KBA)     YGN           MMR11008250842370054190825000000000000000   10300002 00104100000000000000000000057600     
100   35710500393445180000000000035300000000035300002000000010410408250947070039921149260825223716003992   1030000100030000   541110001905777031200000019GAMONE PWINT (KBA)     YGN           MMR11008250947070039920825000000000000000   10300005 00104100000000000000000000007060     
100   62622000575119130000000000024402000000024402002000000010410408250602080039678552420825223712003967   1030000100030000   541110001905777031200000019GAMONE PWINT (KBA)     YGN           MMR11008250602080039670825000000000000000   10300006 00104100000000000000000000004880     
100   9503190005696523000000000002572500000002572500200000001041040825092711005423TVJ2FH0825223715005423   1030000100030000   541110001907777031200000019GAMONE PWINT (KBA)     YGN           MMR11008250927110054230825000000000000000   10300014 00104100000000000000000000005145     
100   35710830219091390000000000025500000000025500002000000010410408251018020029342268320825223716002934   1030000100030000   541120003106777031200000031GAMONE PWINT (BKLZ)    YGN           MMR11008251018020029340825000000000000000   10300003 00104100000000000000000000005100     
100   35710500335631470000000000101800000000101800002000000010410408250533140031877854950825223712003187   1030000100030000   541110001903777031200000019GAMONE PWINT (KBA)     YGN           MMR11008250533140031870825000000000000000   10300005 00104100000000000000000000020360     
100   950319000569652300000000000082000000000082000020000000104104082509500700542501HD2P0825223716005425   1030000100030000   541110001907777031200000019GAMONE PWINT (KBA)     YGN           MMR11008250950070054250825000000000000000   10300014 00104100000000000000000000001640     
100   35710500133099660000000000043500000000043500002000000010410408251140570054299201370825223718005429   1030000100030000   541110001907777031200000019GAMONE PWINT (KBA)     YGN           MMR11008251140570054290825000000000000000   10300005 00104100000000000000000000008700     
100   35710500385957300000000000023000000000023000002000000010410408251213380054317473970825223718005431   1030000100030000   541110001907777031200000019GAMONE PWINT (KBA)     YGN           MMR11008251213380054310825000000000000000   10300005 00104100000000000000000000004600     
100   95030510214357440000000000056000000000056000002000000010410408250918270054212JLUZE0825223715005421   1030000100030000   541110001907777031200000019GAMONE PWINT (KBA)     YGN           MMR11008250918270054210825000000000000000   10300002 00104100000000000000000000011200     
