100   95030518857568130000000000004300000000004300002000000010410408270638290015883HPXHH0827223913001588   1030000100030000   541120003008777031200000030GAMONE PWINT (TGZ)     YGN           MMR11008270638290015880827000000000000000   10300002 00104100000000000000000000000860     
100   35710830282035690000000000021100000000021100002000000010410408270643340015918261510827223913001591   1030000100030000   541120003008777031200000030GAMONE PWINT (TGZ)     YGN           MMR11008270643340015910827000000000000000   10300003 00104100000000000000000000004220     
100   35710900213023630000000000030200000000030200002000000010410408270456370015867620000827223911001586   1030000100030000   541120003008777031200000030GAMONE PWINT (TGZ)     YGN           MMR11008270456370015860827000000000000000   10300003 00104100000000000000000000006040     
100   62346600130382410000000000007200000000007200002000000010410408270654100015937519320827223913001593   1030000100030000   541120003008777031200000030GAMONE PWINT (TGZ)     YGN           MMR11008270654100015930827000000000000000   10300005 00104100000000000000000000001440     
100   9503051888648090000000000001850000000001850000200000001041040827060736000896DOUBBT0827223912000896   1030000100030000   541120003111777031200000031GAMONE PWINT (BKLZ)    YGN           MMR11008270607360008960827000000000000000   10300002 00104100000000000000000000003700     
100   9503051024361780000000000023540000000023540000200000001041040827124409000921XUYJWF0827223919000921   1030000100030000   581210001201777031200000012L OPERA RESTAURANT YGN YGN           MMR11008271244090009210827000000000000000   10300002 00104100000000000000000000080036     
100   950319000652866700000000000225000000000225000020000000104104082708283100129736FZ5M0827223914001297   1030000100030000   541120003103777031200000031GAMONE PWINT (BKLZ)    YGN           MMR11008270828310012970827000000000000000   10300014 00104100000000000000000000004500     
100   9503051026452264000000000001463000000001463000200000001041040827070943001855GC2XDJ0827223913001855   1030000100030000   581250000001777031200000005AVENUE J COFFEE SHOP   YGN           MMR11008270709430018550827000000000000000   10300002 00104100000000000000000000004974     
100   35710830604821050000000000020515000000020515002000000010410408270756430018568700520827223914001856   1030000100030000   581250000001777031200000005AVENUE J COFFEE SHOP   YGN           MMR11008270756430018560827000000000000000   10300003 00104100000000000000000000006975     
100   35710500355243450000000000007700000000007700002000000010410408270910590018581730410827223915001858   1030000100030000   581250000001777031200000005AVENUE J COFFEE SHOP   YGN           MMR11008270910590018580827000000000000000   10300005 00104100000000000000000000002618     
100   95030510233277410000000000018645000000018645002000000010410408270959450018591HT07C0827223916001859   1030000100030000   581250000001777031200000005AVENUE J COFFEE SHOP   YGN           MMR11008270959450018590827000000000000000   10300002 00104100000000000000000000006339     
100   95030800032393030000000000010192000000010192002000000010410408270859340007019077610827223915000701   1030000100030000   541120003001777031200000030GAMONE PWINT (TGZ)     YGN           MMR11008270859340007010827000000000000000   10300003 00104100000000000000000000002038     
100   35710500355087510000000000218900000000218900002000000010410408270707410009209591570827223913000920   1030000100030000   581210001201777031200000012L OPERA RESTAURANT YGN YGN           MMR11008270707410009200827000000000000000   10300005 00104100000000000000000000074426     
100   9503051887921761000000000001355000000001355000200000001041040827102229001595XRGD1W0827223916001595   1030000100030000   541120003008777031200000030GAMONE PWINT (TGZ)     YGN           MMR11008271022290015950827000000000000000   10300002 00104100000000000000000000002710     
100   35710500374982410000000000024000000000024000002000000010410408270812590006681480830827223914000668   1030000100030000   541120003012777031200000030GAMONE PWINT (TGZ)     YGN           MMR11008270812590006680827000000000000000   10300005 00104100000000000000000000004800     
100   35710830061815970000000000013800000000013800002000000010410408271052320008989755400827223917000898   1030000100030000   541120003111777031200000031GAMONE PWINT (BKLZ)    YGN           MMR11008271052320008980827000000000000000   10300003 00104100000000000000000000002760     
100   9503051889707044000000000002850000000002850000200000001041040827104125001299DTWEBZ0827223917001299   1030000100030000   541120003103777031200000031GAMONE PWINT (BKLZ)    YGN           MMR11008271041250012990827000000000000000   10300002 00104100000000000000000000005700     
100   9503051889044208000000000000825000000000825000200000001041040827123829001860GBZC1S0827223919001860   1030000100030000   581250000001777031200000005AVENUE J COFFEE SHOP   YGN           MMR11008271238290018600827000000000000000   10300002 00104100000000000000000000002805     
100   35710500321116740000000000017500000000017500002000000010410408270829150005399891580827223914000539   1030000100030000   541110001917777031200000019GAMONE PWINT (KBA)     YGN           MMR11008270829150005390827000000000000000   10300005 00104100000000000000000000003500     
100   95030800032393030000000000001700000000001700002000000010410408270738150010668589720827223914001066   1030000100030000   541120003005777031200000030GAMONE PWINT (TGZ)     YGN           MMR11008270738150010660827000000000000000   10300003 00104100000000000000000000000340     
100   35710830155009850000000000006400000000006400002000000010410408270913440010679162520827223915001067   1030000100030000   541120003005777031200000030GAMONE PWINT (TGZ)     YGN           MMR11008270913440010670827000000000000000   10300003 00104100000000000000000000001280     
100   35710830136202640000000000350000000000350000002000000010410408270544460000235670300827223912000023   1030000100030000   541120002101777031200000021SHWELAYAUNG THINGAN RO YGN           MMR11008270544460000230827000000000000000   10300003 00104100000000000000000000070000     
100   9503051888648090000000000002100000000002100000200000001041040827054911001295XLVS550827223912001295   1030000100030000   541120003103777031200000031GAMONE PWINT (BKLZ)    YGN           MMR11008270549110012950827000000000000000   10300002 00104100000000000000000000004200     
100   95030800032393030000000000003675000000003675002000000010410408271027240010689604510827223916001068   1030000100030000   541120003005777031200000030GAMONE PWINT (TGZ)     YGN           MMR11008271027240010680827000000000000000   10300003 00104100000000000000000000000735     
100   95030800010555600000000000033500000000033500002000000010410408270742280000498615110827223914000049   1030000100030000   541110900003777030900000003TOP STAR SPORTWEARS &  NPT           MMR11008270742280000490827000000000000000   10300003 00104100000000000000000000006700     
100   9503054000504514000000000000470400000000470400200000001041040827070953000459CVAJS10827223913000459   1030000100030000   541120003114777031200000031GAMONE PWINT (BKLZ)    YGN           MMR11008270709530004590827000000000000000   10300002 00104100000000000000000000000941     
100   35710830282035690000000000019600000000019600002000000010410408270550100006067941300827223912000606   1030000100030000   541120003013777031200000030GAMONE PWINT (TGZ)     YGN           MMR11008270550100006060827000000000000000   10300003 00104100000000000000000000003920     
100   35710500323514370000000000010780000000010780002000000010410408271036520010694047290827223917001069   1030000100030000   541120003005777031200000030GAMONE PWINT (TGZ)     YGN           MMR11008271036520010690827000000000000000   10300005 00104100000000000000000000002156     
100   95030800032393030000000000006027000000006027002000000010410408271227140010700323610827223918001070   1030000100030000   541120003005777031200000030GAMONE PWINT (TGZ)     YGN           MMR11008271227140010700827000000000000000   10300003 00104100000000000000000000001206     
100   35710830282035690000000000030700000000030700002000000010410408270621470006078130910827223912000607   1030000100030000   541120003013777031200000030GAMONE PWINT (TGZ)     YGN           MMR11008270621470006070827000000000000000   10300003 00104100000000000000000000006140     
100   35710500164765640000000000035500000000035500002000000010410408270541410008956206000827223912000895   1030000100030000   541120003111777031200000031GAMONE PWINT (BKLZ)    YGN           MMR11008270541410008950827000000000000000   10300005 00104100000000000000000000007100     
100   35650713610004190000000000003822000000003822002000000010410408270658030010651796000827223913001065   1030000100030000   541120003005777031200000030GAMONE PWINT (TGZ)     YGN           MMR11008270658030010650827000000000000000   10300005 00104100000000000000000000001338     
100   95030518906374870000000000005700000000005700002000000010410408270843080054605NWFWU0827223915005460   1030000100030000   541110001907777031200000019GAMONE PWINT (KBA)     YGN           MMR11008270843080054600827000000000000000   10300002 00104100000000000000000000001140     
100   35710500323994510000000000034200000000034200002000000010410408270915360054640297560827223915005464   1030000100030000   541110001907777031200000019GAMONE PWINT (KBA)     YGN           MMR11008270915360054640827000000000000000   10300005 00104100000000000000000000006840     
100   35710830391966120000000000018650000000018650002000000010410408270918100054679189210827223915005467   1030000100030000   541110001907777031200000019GAMONE PWINT (KBA)     YGN           MMR11008270918100054670827000000000000000   10300003 00104100000000000000000000003730     
100   35710500330762560000000000017000000000017000002000000010410408271049470029633309000827223917002963   1030000100030000   541120003106777031200000031GAMONE PWINT (BKLZ)    YGN           MMR11008271049470029630827000000000000000   10300005 00104100000000000000000000003400     
100   35710830110091480000000000007300000000007300002000000010410408270412020028687352410827223910002868   1030000100030000   541120003117777031200000031GAMONE PWINT (BKLZ)    YGN           MMR11008270412020028680827000000000000000   10300003 00104100000000000000000000001460     
100   95051010190000220000000000005200000000005200002000000010410408270654530028819001610827223913002881   1030000100030000   541120003117777031200000031GAMONE PWINT (BKLZ)    YGN           MMR11008270654530028810827000000000000000   10300005 00104100000000000000000000001820     
100   62622000113306730000000000123620000000123620002000000010410408270948370021450587110827223916002145   1030000100030000   541160000001777031200000006MK FASHION             YGN           MMR11008270948370021450827000000000000000   10300006 00104100000000000000000000024724     
100   9503051886182332000000000003050000000003050000200000001041040827104724003230NVJ7TN0827223917003230   1030000100030000   541110001903777031200000019GAMONE PWINT (KBA)     YGN           MMR11008271047240032300827000000000000000   10300002 00104100000000000000000000006100     
100   9503051024818524000000000003550000000003550000200000001041040827113441002965WJBJJI0827223918002965   1030000100030000   541120003106777031200000031GAMONE PWINT (BKLZ)    YGN           MMR11008271134410029650827000000000000000   10300002 00104100000000000000000000007100     
100   35710830616526490000000000019000000000019000002000000010410408270940440054719324520827223916005471   1030000100030000   541110001907777031200000019GAMONE PWINT (KBA)     YGN           MMR11008270940440054710827000000000000000   10300003 00104100000000000000000000003800     
100   35710830546853900000000000014994000000014994002000000010410408270956040054749416520827223916005474   1030000100030000   541110001907777031200000019GAMONE PWINT (KBA)     YGN           MMR11008270956040054740827000000000000000   10300003 00104100000000000000000000002999     
100   9503051873841825000000000017677000000017677000200000001041040827124156002348G9CAER0827223919002348   1030000100030000   541110001915777031200000019GAMONE PWINT (KBA)     YGN           MMR11008271241560023480827000000000000000   10300002 00104100000000000000000000035354     
100   9503051896103146000000000003490000000003490000200000001041040827065027002948LBEALB0827223913002948   1030000100030000   541120003106777031200000031GAMONE PWINT (BKLZ)    YGN           MMR11008270650270029480827000000000000000   10300002 00104100000000000000000000006980     
100   35710950486350910000000000006200000000006200002000000010410408270452320023367595410827223911002336   1030000100030000   541110001915777031200000019GAMONE PWINT (KBA)     YGN           MMR11008270452320023360827000000000000000   10300003 00104100000000000000000000001240     
100   62346600101750200000000000081135000000081135002000000010410408271011040054775924130827223916005477   1030000100030000   541110001907777031200000019GAMONE PWINT (KBA)     YGN           MMR11008271011040054770827000000000000000   10300005 00104100000000000000000000016227     
100   9503051026207650000000000000900000000000900000200000001041040827101927002884AHPIVG0827223916002884   1030000100030000   541120003117777031200000031GAMONE PWINT (BKLZ)    YGN           MMR11008271019270028840827000000000000000   10300002 00104100000000000000000000001800     
100   62343302004176380000000000042500000000042500002000000010410408270934530040079809010827223916004007   1030000100030000   541110001905777031200000019GAMONE PWINT (KBA)     YGN           MMR11008270934530040070827000000000000000   10300004 00104100000000000000000000008500     
100   35711450000122580000000000015000000000015000002000000010410408270813530029514380350827223914002951   1030000100030000   541120003106777031200000031GAMONE PWINT (BKLZ)    YGN           MMR11008270813530029510827000000000000000   10200001 00104100000000000000000000003000     
100   35710500395246550000000000016555550000016555552000000010410408270851030018578126420827223915001857   1030000100030000   581250000001777031200000005AVENUE J COFFEE SHOP   YGN           MMR11008270851030018570827000000000000000   10300005 00104100000000000000000000005629     
100   950319000336402500000000000398000000000398000020000000104104082705022900321454KV7B0827223911003214   1030000100030000   541110001903777031200000019GAMONE PWINT (KBA)     YGN           MMR11008270502290032140827000000000000000   10300014 00104100000000000000000000007960     
100   35710830958347260000000000008000000000008000002000000010410408270519410028787758310827223911002878   1030000100030000   541120003117777031200000031GAMONE PWINT (BKLZ)    YGN           MMR11008270519410028780827000000000000000   10300003 00104100000000000000000000001600     
100   35710500103087630000000000147600000000147600002000000010410408271215560040137223520827223918004013   1030000100030000   541110001905777031200000019GAMONE PWINT (KBA)     YGN           MMR11008271215560040130827000000000000000   10300005 00104100000000000000000000029520     
100   95030510233145580000000000023200000000023200002000000010410408270713320023389ZHLAF0827223913002338   1030000100030000   541110001915777031200000019GAMONE PWINT (KBA)     YGN           MMR11008270713320023380827000000000000000   10300002 00104100000000000000000000004640     
100   9503051891025856000000000001650000000001650000200000001041040827090248002956LDHM5S0827223915002956   1030000100030000   541120003106777031200000031GAMONE PWINT (BKLZ)    YGN           MMR11008270902480029560827000000000000000   10300002 00104100000000000000000000003300     
100   9503051889318883000000000003101700000003101700200000001041040827080905004000KBLKOI0827223914004000   1030000100030000   541110001905777031200000019GAMONE PWINT (KBA)     YGN           MMR11008270809050040000827000000000000000   10300002 00104100000000000000000000006204     
100   9503051024980951000000000001225000000001225000200000001041040827085021002340WFAQJM0827223915002340   1030000100030000   541110001915777031200000019GAMONE PWINT (KBA)     YGN           MMR11008270850210023400827000000000000000   10300002 00104100000000000000000000002450     
100   35710830503000930000000000019957000000019957002000000010410408270556300032177979210827223912003217   1030000100030000   541110001903777031200000019GAMONE PWINT (KBA)     YGN           MMR11008270556300032170827000000000000000   10300003 00104100000000000000000000003992     
100   9503051889606576000000000005950000000005950000200000001041040827071126003220HYELFL0827223913003220   1030000100030000   541110001903777031200000019GAMONE PWINT (KBA)     YGN           MMR11008270711260032200827000000000000000   10300002 00104100000000000000000000011900     
100   9503051891847929000000000000576000000000576000200000001041040827095635002342ZDTCSQ0827223916002342   1030000100030000   541110001915777031200000019GAMONE PWINT (KBA)     YGN           MMR11008270956350023420827000000000000000   10300002 00104100000000000000000000001152     
100   35710830816929480000000000016500000000016500002000000010410408271005070023449470820827223916002344   1030000100030000   541110001915777031200000019GAMONE PWINT (KBA)     YGN           MMR11008271005070023440827000000000000000   10300003 00104100000000000000000000003300     
100   9503051025890712000000000001365000000001365000200000001041040827044516005449FE4SXI0827223911005449   1030000100030000   541110001907777031200000019GAMONE PWINT (KBA)     YGN           MMR11008270445160054490827000000000000000   10300002 00104100000000000000000000002730     
100   62441900001534470000000000016000000000016000002000000010410408271022080029598908780827223916002959   1030000100030000   541120003106777031200000031GAMONE PWINT (BKLZ)    YGN           MMR11008271022080029590827000000000000000   10300003 00104100000000000000000000005600     
100   62343302004380140000000000032900000000032900002000000010410408270822340040033955840827223914004003   1030000100030000   541110001905777031200000019GAMONE PWINT (KBA)     YGN           MMR11008270822340040030827000000000000000   10300004 00104100000000000000000000006580     
100   35710830770702080000000000012936000000012936002000000010410408270616350054518099630827223912005451   1030000100030000   541110001907777031200000019GAMONE PWINT (KBA)     YGN           MMR11008270616350054510827000000000000000   10300003 00104100000000000000000000002587     
100   9503051024980951000000000001100000000001100000200000001041040827082522003222MIUXOY0827223914003222   1030000100030000   541110001903777031200000019GAMONE PWINT (KBA)     YGN           MMR11008270825220032220827000000000000000   10300002 00104100000000000000000000002200     
100   9503051889477895000000000001920000000001920000200000001041040827092010003227IDDKLZ0827223915003227   1030000100030000   541110001903777031200000019GAMONE PWINT (KBA)     YGN           MMR11008270920100032270827000000000000000   10300002 00104100000000000000000000003840     
100   35710500375420970000000000019000000000019000002000000010410408271024170029617741090827223916002961   1030000100030000   541120003106777031200000031GAMONE PWINT (BKLZ)    YGN           MMR11008271024170029610827000000000000000   10300005 00104100000000000000000000003800     
100   35710500341917990000000000140000000000140000002000000010410408270617370054530290620827223912005453   1030000100030000   541110001907777031200000019GAMONE PWINT (KBA)     YGN           MMR11008270617370054530827000000000000000   10300005 00104100000000000000000000028000     
100   62343302004380140000000000006000000000006000002000000010410408270808560054579865000827223914005457   1030000100030000   541110001907777031200000019GAMONE PWINT (KBA)     YGN           MMR11008270808560054570827000000000000000   10300004 00104100000000000000000000001200     
100   62622000581490280000000000013500000000013500002000000010410408271207090023460587660827223918002346   1030000100030000   541110001915777031200000019GAMONE PWINT (KBA)     YGN           MMR11008271207090023460827000000000000000   10300006 00104100000000000000000000002700     
100   9503051023031087000000000003450000000003450000200000001041040827084702003225ZONLPY0827223915003225   1030000100030000   541110001903777031200000019GAMONE PWINT (KBA)     YGN           MMR11008270847020032250827000000000000000   10300002 00104100000000000000000000006900     
100   9503051026151650000000000006500000000006500000200000001041040826035657000288OAODJO0826223810000288   1030000100030000   541120000017777031200000002ZAW TI KA THINKAN TIKE YGN           MMR11008260356570002880826000000000000000   10300002 00104100000000000000000000013000     
100   62443000112787820000000000057900000000057900002000000010410408261222440029441168940826223818002944   1030000100030000   541120003106777031200000031GAMONE PWINT (BKLZ)    YGN           MMR11008261222440029440826000000000000000   10300005 00104100000000000000000000020265     
