100   95031900063075000000000000013250000000013250002000000010410408251155110004527FSH9N0825223718000452   1030000100030000   541120003114777031200000031GAMONE PWINT (BKLZ)    YGN           MMR11008251155110004520825000000000000000   10300014 00104100000000000000000000002650     
100   35710500355039010000000000011300000000011300002000000010410408250733280010523122850825223714001052   1030000100030000   541120003005777031200000030GAMONE PWINT (TGZ)     YGN           MMR11008250733280010520825000000000000000   10300005 00104100000000000000000000002260     
100   95051010130000690000000000006000000000006000002000000010410408250926130004504712790825223715000450   1030000100030000   541120003114777031200000031GAMONE PWINT (BKLZ)    YGN           MMR11008250926130004500825000000000000000   10300005 00104100000000000000000000002100     
100   35710500313456530000000000042000000000042000002000000010410408261103300006622986900826223817000662   1030000100030000   541120003012777031200000030GAMONE PWINT (TGZ)     YGN           MMR11008261103300006620826000000000000000   10300005 00104100000000000000000000008400     
100   35710830281944040000000000229400000000229400002000000010410408261103470023261182810826223817002326   1030000100030000   541110001915777031200000019GAMONE PWINT (KBA)     YGN           MMR11008261103470023260826000000000000000   10300003 00104100000000000000000000045880     
100   62346600183225740000000000012045000000012045002000000010410408261205010018523914880826223818001852   1030000100030000   581250000001777031200000005AVENUE J COFFEE SHOP   YGN           MMR11008261205010018520826000000000000000   10300005 00104100000000000000000000004095     
100   9503051896659162000000000001050000000001050000200000001041040826090437002260HAVCOR0826223815002260   1030000100030000   541110001920777031200000019GAMONE PWINT (KBA)     YGN           MMR11008260904370022600826000000000000000   10300002 00104100000000000000000000002100     
100   35710830281944040000000000142380000000142380002000000010410408261105490023281195020826223817002328   1030000100030000   541110001915777031200000019GAMONE PWINT (KBA)     YGN           MMR11008261105490023280826000000000000000   10300003 00104100000000000000000000028476     
100   9503051024805497000000000001075000000001075000200000001041040826070102001060X1PMMX0826223813001060   1030000100030000   541120003005777031200000030GAMONE PWINT (TGZ)     YGN           MMR11008260701020010600826000000000000000   10300002 00104100000000000000000000002150     
100   95030800032393030000000000004226000000004226002000000010410408260919090010610555210826223815001061   1030000100030000   541120003005777031200000030GAMONE PWINT (TGZ)     YGN           MMR11008260919090010610826000000000000000   10300003 00104100000000000000000000000845     
100   9503051025170875000000000004750000000004750000200000001041040826114041002330OR7DH40826223818002330   1030000100030000   541110001915777031200000019GAMONE PWINT (KBA)     YGN           MMR11008261140410023300826000000000000000   10300002 00104100000000000000000000009500     
100   9503051892550035000000000000520000000000520000200000001041040826035104000692W2HHYO0826223810000692   1030000100030000   541120003001777031200000030GAMONE PWINT (TGZ)     YGN           MMR11008260351040006920826000000000000000   10300002 00104100000000000000000000001040     
100   9503190003635317000000000000525000000000525000200000001041040826044448000693EAO4XB0826223811000693   1030000100030000   541120003001777031200000030GAMONE PWINT (TGZ)     YGN           MMR11008260444480006930826000000000000000   10300014 00104100000000000000000000001050     
100   9503051896496110000000000001556500000001556500200000001041040826122933001853P4UHFZ0826223818001853   1030000100030000   581250000001777031200000005AVENUE J COFFEE SHOP   YGN           MMR11008261229330018530826000000000000000   10300002 00104100000000000000000000005292     
100   62441901002894480000000000237140000000237140002000000010410408260608090021369839610826223812002136   1030000100030000   541160000001777031200000006MK FASHION             YGN           MMR11008260608090021360826000000000000000   10300003 00104100000000000000000000082999     
100   9503051026910196000000000012164200000012164200200000001041040826071542002316IBB2IR0826223813002316   1030000100030000   541110001915777031200000019GAMONE PWINT (KBA)     YGN           MMR11008260715420023160826000000000000000   10300002 00104100000000000000000000024328     
100   35710830021438720000000000054600000000054600002000000010410408260823180006940219910826223814000694   1030000100030000   541120003001777031200000030GAMONE PWINT (TGZ)     YGN           MMR11008260823180006940826000000000000000   10300003 00104100000000000000000000010920     
100   95030800032393030000000000004606000000004606002000000010410408261204530010621549510826223818001062   1030000100030000   541120003005777031200000030GAMONE PWINT (TGZ)     YGN           MMR11008261204530010620826000000000000000   10300003 00104100000000000000000000000921     
100   9503051885986402000000000000010000000000010000200000001041040826031834002127GVJECZ0826223809002127   1030000100030000   541160000001777031200000006MK FASHION             YGN           MMR11008260318340021270826000000000000000   10300002 00104100000000000000000000000020     
100   9503051872722463000000000001170000000001170000200000001041040826104634000695UTUYWP0826223817000695   1030000100030000   541120003001777031200000030GAMONE PWINT (TGZ)     YGN           MMR11008261046340006950826000000000000000   10300002 00104100000000000000000000002340     
100   62343302008407630000000000122550000000122550002000000010410408260953280021382059300826223816002138   1030000100030000   541160000001777031200000006MK FASHION             YGN           MMR11008260953280021380826000000000000000   10300004 00104100000000000000000000024510     
100   35710500342574180000000000013000000000013000002000000010410408260803350023189161110826223814002318   1030000100030000   541110001915777031200000019GAMONE PWINT (KBA)     YGN           MMR11008260803350023180826000000000000000   10300005 00104100000000000000000000002600     
100   9503051023461847000000000002700000000002700000200000001041040826062420000659YAZATQ0826223812000659   1030000100030000   541120003012777031200000030GAMONE PWINT (TGZ)     YGN           MMR11008260624200006590826000000000000000   10300002 00104100000000000000000000005400     
100   35710830061815970000000000016500000000016500002000000010410408260953550008930763610826223816000893   1030000100030000   541120003111777031200000031GAMONE PWINT (BKLZ)    YGN           MMR11008260953550008930826000000000000000   10300003 00104100000000000000000000003300     
100   950305189255003500000000000054500000000054500020000000104104082604021400105357J5SC0826223810001053   1030000100030000   541120003005777031200000030GAMONE PWINT (TGZ)     YGN           MMR11008260402140010530826000000000000000   10300002 00104100000000000000000000001090     
100   35710830647481210000000000025600000000025600002000000010410408261005020015800830320826223816001580   1030000100030000   541120003008777031200000030GAMONE PWINT (TGZ)     YGN           MMR11008261005020015800826000000000000000   10300003 00104100000000000000000000005120     
100   9503051020004640000000000007828000000007828000200000001041040826092100002320L91B0S0826223815002320   1030000100030000   541110001915777031200000019GAMONE PWINT (KBA)     YGN           MMR11008260921000023200826000000000000000   10300002 00104100000000000000000000015656     
100   9503051025152899000000000000650000000000650000200000001041040826092859002861LAWUU50826223815002861   1030000100030000   541120003117777031200000031GAMONE PWINT (BKLZ)    YGN           MMR11008260928590028610826000000000000000   10300002 00104100000000000000000000001300     
100   9503051891291185000000000028349900000028349900200000001041040826120424002140NFQVUK0826223818002140   1030000100030000   541160000001777031200000006MK FASHION             YGN           MMR11008261204240021400826000000000000000   10300002 00104100000000000000000000056700     
100   35710500385448520000000000017732000000017732002000000010410408260932400023238784880826223816002323   1030000100030000   541110001915777031200000019GAMONE PWINT (KBA)     YGN           MMR11008260932400023230826000000000000000   10300005 00104100000000000000000000003546     
100   9503051885986402000000000014330000000014330000200000001041040826032920002130SPHWRH0826223809002130   1030000100030000   541160000001777031200000006MK FASHION             YGN           MMR11008260329200021300826000000000000000   10300002 00104100000000000000000000028660     
100   35710500390464850000000000020800000000020800002000000010410408260646530004535579650826223813000453   1030000100030000   541120003114777031200000031GAMONE PWINT (BKLZ)    YGN           MMR11008260646530004530826000000000000000   10300005 00104100000000000000000000004160     
100   35710500353370110000000000021600000000021600002000000010410408261057500012275690480826223817001227   1030000100030000   541120003104777031200000031GAMONE PWINT (BKLZ)    YGN           MMR11008261057500012270826000000000000000   10300005 00104100000000000000000000004320     
100   35710500313456530000000000006900000000006900002000000010410408261110250015825512210826223817001582   1030000100030000   541120003008777031200000030GAMONE PWINT (TGZ)     YGN           MMR11008261110250015820826000000000000000   10300005 00104100000000000000000000001380     
100   35710500160436610000000000006600000000006600002000000010410408261125360018513851650826223817001851   1030000100030000   581250000001777031200000005AVENUE J COFFEE SHOP   YGN           MMR11008261125360018510826000000000000000   10300005 00104100000000000000000000002244     
100   35710500325926830000000000114600000000114600002000000010410408260748380032013053680826223814003201   1030000100030000   541110001903777031200000019GAMONE PWINT (KBA)     YGN           MMR11008260748380032010826000000000000000   10300005 00104100000000000000000000022920     
100   9503051024481018000000000001362200000001362200200000001041040826094947003996LKWVU00826223816003996   1030000100030000   541110001905777031200000019GAMONE PWINT (KBA)     YGN           MMR11008260949470039960826000000000000000   10300002 00104100000000000000000000002724     
100   9503051894400650000000000000530000000000530000200000001041040826033939005434IW1BFD0826223810005434   1030000100030000   541110001907777031200000019GAMONE PWINT (KBA)     YGN           MMR11008260339390054340826000000000000000   10300002 00104100000000000000000000001060     
100   9503051026910196000000000023500000000023500000200000001041040826061028005440I7AZNZ0826223812005440   1030000100030000   541110001907777031200000019GAMONE PWINT (KBA)     YGN           MMR11008260610280054400826000000000000000   10300002 00104100000000000000000000047000     
100   62346600140301140000000000025800000000025800002000000010410408260933280032055891600826223816003205   1030000100030000   541110001903777031200000019GAMONE PWINT (KBA)     YGN           MMR11008260933280032050826000000000000000   10300005 00104100000000000000000000005160     
100   35710830772436640000000000042800000000042800002000000010410408261032270032070994910826223817003207   1030000100030000   541110001903777031200000019GAMONE PWINT (KBA)     YGN           MMR11008261032270032070826000000000000000   10300003 00104100000000000000000000008560     
100   9503051892520673000000000003552000000003552000200000001041040826074020002858O6JWGE0826223814002858   1030000100030000   541120003117777031200000031GAMONE PWINT (BKLZ)    YGN           MMR11008260740200028580826000000000000000   10300002 00104100000000000000000000007104     
100   9503051893992772000000000003580000000003580000200000001041040826074413003198HTRLUU0826223814003198   1030000100030000   541110001903777031200000019GAMONE PWINT (KBA)     YGN           MMR11008260744130031980826000000000000000   10300002 00104100000000000000000000007160     
100   9503051893992772000000000002350000000002350000200000001041040826074716003199QVHRPO0826223814003199   1030000100030000   541110001903777031200000019GAMONE PWINT (KBA)     YGN           MMR11008260747160031990826000000000000000   10300002 00104100000000000000000000004700     
