100   62443100328876850000000000058000000000058000002000000010410402271230460178934818360227205819017893   1030000500030000   598320001601000015172200016MAX ENERGY             PTN           MMR11002271230460178930227000000000000000   10300001 00104100000000006960000000000000     
100   62911028202088990000000000010800000000010800002000000010410403010435452440342184800301899131135059   1030000300030000   444410125271104519000021125SP Bakery San YeikNyei GMP           MMR11003010435452440340301000000000000000   10300001 00104100000000001102000000000000     
100   95050316524518200000000000019900000000019900002000000010410402270418180001535238130227205810000153   1030000500030000   531120155902000045311201559GAMONE PWINT           PTN           MMR11002270418180001530227000000000000000   10300001 00104100000000004776000000000000     
100   62911028202287150000000000033185000000033185002000000010410402270201360003792184800227205808000379   1030000500030000   806220172409013008062201724GRAND HANTHA HOSPITAL  PTN           MMR11002270201360003790227000000000000000   10300001 00104100000000001991000000000000     
100   62911028202287150000000000002400000000002400002000000010410402270204070003802184800227205808000380   1030000500030000   806220172409013008062201724GRAND HANTHA HOSPITAL  PTN           MMR11002270204070003800227000000000000000   10300001 00104100000000000144000000000000     
100   62911028202468650000000000370050000000370050002000000010410402270656460012132184800227205813001213   1030000500030000   503920036604000015039200366PRO-1 HOME CENTER      PTN           MMR11002270656460012130227000000000000000   10300001 00104100000000022203000000000000     
100   62911028202150190000000000030000000000030000002000000010410402251314310678872184800225205613067887   1030000600030000   554100000946315799420000471DENKO BAHAN            YANGON        MMR11002251314310678870225000000000000000   10300001 00104100000000000900000000000000     
100   95030301100126550000000000020000000000020000002000000010410402261059120059672184800226205710005967   1030000600030000   554100002324315799420000481DENKO NORTH OKKALAPA   YANGON        MMR11002261059120059670226000000000000000   10300001 00104100000000000600000000000000     
100   62443100393841160000000000036000000000036000002000000010410402260629530045832742760226205706004583   1030000600030000   554100001226315799420000679DENKO MAGWAY - 2       MAGWAY        MMR11002260629530045830226000000000000000   10300001 00104100000000004320000000000000     
100   95030301100344690000000000010000000000010000002000000010410402261129100127562184800226205711012756   1030000600030000   554100001011315799420000505DENKO HTAN TA PIN      YANGON        MMR11002261129100127560226000000000000000   10300001 00104100000000000300000000000000     
100   95050320093758110000000000035000000000035000002000000010410402260614420042881005180226205706004288   1030000600030000   554100002139315799420001488DENKO MDY-12           MANDALAY      MMR11002260614420042880226000000000000000   10300001 00104100000000004200000000000000     
100   62911028202204070000000000050000000000050000002000000010410402260320080679472184800226205703067947   1030000600030000   554100000946315799420000471DENKO BAHAN            YANGON        MMR11002260320080679470226000000000000000   10300001 00104100000000001500000000000000     
100   95050322426452690000000000050000000000050000002000000010410402270414320089913500550227205804008991   1030000600030000   554100001217315799420000669DENKO PHAYAR GYI       BAGO          MMR11002270414320089910227000000000000000   10300001 00104100000000006000000000000000     
100   95050328491914360000000000082620000000082620002000000010410402270348470022925408330227205810002292   1030000500030000   569120035101019505691200351MK FASHION SHOP        PTN           MMR11002270348470022920227000000000000000   10300001 00104100000000019829000000000000     
100   62911028202335820000000000020000000000020000002000000010410402271117340040642184800227205811004064   1030000600030000   554100000744315799420000322DENKO AMARAPURA-PACHI  MANDALAY      MMR11002271117340040640227000000000000000   10300001 00104100000000000600000000000000     
100   95030308100042590000000000098500000000098500002000000010410402270608300046512184800227205812004651   1030000500030000   598320001701000015172200017MAX ENERGY             PTN           MMR11002270608300046510227000000000000000   10300001 00104100000000002955000000000000     
100   62911028202312890000000000021005000000021005002000000010410402270642290046922184800227205813004692   1030000500030000   598320001702000015172200017MAX ENERGY             PTN           MMR11002270642290046920227000000000000000   10300001 00104100000000000630000000000000     
100   95030308100042590000000000045000000000045000002000000010410402270609000046522184800227205812004652   1030000500030000   598320001701000015172200017MAX ENERGY             PTN           MMR11002270609000046520227000000000000000   10300001 00104100000000001350000000000000     
100   95030301100129110000000000032000000000032000002000000010410402270242130059872184800227205809005987   1030000500030000   598320001404000015172200014MAX ENERGY             PTN           MMR11002270242130059870227000000000000000   10300001 00104100000000000960000000000000     
100   62911028202099050000000000041000000000041000002000000010410402270608520174782184800227205812017478   1030000500030000   598320001902000015172200019MAX ENERGY             PTN           MMR11002270608520174780227000000000000000   10300001 00104100000000001230000000000000     
100   95050324154190880000000000021000000000021000002000000010410402270856330178903961690227205815017890   1030000500030000   598320001602000015172200016MAX ENERGY             PTN           MMR11002270856330178900227000000000000000   10300001 00104100000000002520000000000000     
100   62443100311760720000000000044500000000044500002000000010410402271014310560279514810227205810056027   1030000600030000   554100002085315799420000471DENKO BAHAN            YANGON        MMR11002271014310560270227000000000000000   10300001 00104100000000005340000000000000     
100   95050325925517520000000000017000000000017000002000000010410402270833200178460061050227205815017846   1030000500030000   598320001601000015172200016MAX ENERGY             PTN           MMR11002270833200178460227000000000000000   10300001 00104100000000002040000000000000     
100   62911028202446540000000000043000000000043000002000000010410402270101180196372184800227205807019637   1030000500030000   598320001201000015172200012MAX ENERGY             PTN           MMR11002270101180196370227000000000000000   10300001 00104100000000001290000000000000     
100   95030301100121270000000000030000000000030000002000000010410402270731110376302184800227205807037630   1030000600030000   554100001756315799420001137DENKO NORTH DAGON 2    YANGON        MMR11002270731110376300227000000000000000   10300001 00104100000000000900000000000000     
100   62911028202221220000000000005000000000005000002000000010410402270212460681522184800227205802068152   1030000600030000   554100000946315799420000471DENKO BAHAN            YANGON        MMR11002270212460681520227000000000000000   10300001 00104100000000000150000000000000     
100   95030301100124570000000000036500000000036500002000000010410402280507120064862184800228205911006486   1030000500030000   541120020801022205411200208ORANGE (TAMWE)         PTN           MMR11002280507120064860228000000000000000   10300001 00104100000000002190000000000000     
100   62443100350052510000000000016000000000016000002000000010410403011534030158419265460301000743541232   1030000200030000   541188001075000008000000294KBZ BANK               CITY MART - J MMR11003011534030158410301000000000000000   10300001 00104100000000004000000000000000     
100   62911028202446700000000000020000000000020000002000000010410402270343350196822184800227205810019682   1030000500030000   598320001201000015172200012MAX ENERGY             PTN           MMR11002270343350196820227000000000000000   10300001 00104100000000000600000000000000     
100   95030346130941600000000000005450000000005450002000000010410402281142390023062184800228000332788360   1030000300030000   806200000197000000000000097CB BANK                AUNG YADANA H MMR11002281142390023060228000000000000000   10300001F00104100000000000327000000000000     
100   95030301100121270000000000033000000000033000002000000010410402280908420128032184800228205916012803   1040001600030000   598320000917000000010000665MMTM - Thingangyun     Ygn           MMR11002280908420128030228000000000000000   10300001F00104100000000000990000000000000     
100   62911028202471600000000000027350000000027350002000000010410403010423090594032184800301206011059403   1040001600030000   591220000276000000010000264Shwe Ohh Pharmacy (YGH Yangon        MMR11003010423090594030301000000000000000   10300001F00104100000000001641000000000000     
100   62911028202287150000000000059500000000059500002000000010410402270522020002542184800227205811000254   1030000500030000   806220172406013008062201724GRAND HANTHA HOSPITAL  PTN           MMR11002270522020002540227000000000000000   10300001 00104100000000003570000000000000     
100   95030318100004530000000000013000000000013000002000000010410402270340550071602184800227205803007160   1030000600030000   554100001218315799420000670DENKO MAWLAMYAING      MON STATE.    MMR11002270340550071600227000000000000000   10300001 00104100000000000390000000000000     
100   62911028202520120000000000050000000000050000002000000010410403011112260812462184800301206018081246   1040001600030000   598320000658000000010000527Shwe Taung Energy (YGN Yangon        MMR11003011112260812460301000000000000000   10300001F00104100000000001500000000000000     
100   62911028202366010000000000014800000000014800002000000010410402280949280005812184800228205916000581   1030000500030000   566120038301016505661200383RIPPLE FLIPFLOPS       PTN           MMR11002280949280005810228000000000000000   10300001 00104100000000000888000000000000     
100   95030358967724300000000000020000000000020000002000000010410402270112230126762184800227205807012676   1030000500030000   598320001102000015172200011MAX ENERGY             PTN           MMR11002270112230126760227000000000000000   10300001 00104100000000000600000000000000     
100   62911028202684060000000000011250000000011250002000000010410402280412320008562184800228205910000856   1030000500030000   591220010401014405912200104SHWE OHH PHARMACY      PTN           MMR11002280412320008560228000000000000000   10300001 00104100000000000675000000000000     
100   62443100372702000000000000008000000000008000002000000010410402270649150197406599680227205813019740   1030000500030000   598320001201000015172200012MAX ENERGY             PTN           MMR11002270649150197400227000000000000000   10300001 00104100000000000960000000000000     
100   62911028202890630000000000155850000000155850002000000010410403011505580009732184800301000743539823   1030000200030000   541188001350000008000000395KBZ BANK               OCEAN SUPERMA MMR11003011505580009730301000000000000000   10300001 00104100000000009351000000000000     
100   95050312482469810000000000037600000000037600002000000010410403010827270042229574340301000743516963   1030000200030000   541188001288000008000001475KBZ BANK               CITY CARE STA MMR11003010827270042220301000000000000000   10300001 00104100000000009400000000000000     
100   62911028202231380000000000004300000000004300002000000010410403011432110080012184800301000743537999   1030000200030000   541188001088000008000000294KBZ BANK               CITY MART - J MMR11003011432110080010301000000000000000   10300001 00104100000000000258000000000000     
100   62911028202130970000000000010000000000010000002000000010410403011506270048652184800301000743539846   1030000200030000   541188001311000008000000325KBZ BANK               CITY MART - A MMR11003011506270048650301000000000000000   10300001 00104100000000000600000000000000     
100   62443100315853220000000000010000000000010000002000000010410403011038150019709160860301000743522474   1030000200030000   541188001481000008000000399KBZ BANK               OCEAN SUPERCE MMR11003011038150019700301000000000000000   10300001 00104100000000002500000000000000     
100   62911028202527800000000000025130000000025130002000000010410403011806220119232184800301000743549106   1030000200030000   541188001306000008000000325KBZ BANK               CITY MART - A MMR11003011806220119230301000000000000000   10300001 00104100000000001508000000000000     
100   62443100315853220000000000036350000000036350002000000010410403011040120019710983540301000743522607   1030000200030000   541188001481000008000000399KBZ BANK               OCEAN SUPERCE MMR11003011040120019710301000000000000000   10300001 00104100000000009088000000000000     
100   62911028202204560000000000031000000000031000002000000010410403010327110009872184800301000743520105   1030000200030000   806288000085000008000003871KBZ BANK               PUN HLAING CL MMR11003010327110009870301000000000000000   10300001 00104100000000001860000000000000     
100   62911028202110420000000000015000000000015000002000000010410403011549120047482184800301000743541914   1030000200030000   541188001316000008000000306KBZ BANK               CITY MART - S MMR11003011549120047480301000000000000000   10300001 00104100000000000900000000000000     
100   62911028202231380000000000001500000000001500002000000010410403011429000114522184800301000743537816   1030000200030000   541188001073000008000000294KBZ BANK               CITY MART - J MMR11003011429000114520301000000000000000   10300001 00104100000000000090000000000000     
100   95030322236782320000000000002000000000002000002000000010410403010822020094692184800301000743516857   1030000200030000   541188001047000008000000010KBZ BANK               MARKETPLACE - MMR11003010822020094690301000000000000000   10300001 00104100000000000120000000000000     
100   62911028202130970000000000012900000000012900002000000010410403011752230046622184800301000743548472   1030000200030000   541188001023000008000000298KBZ BANK               CITY MART - M MMR11003011752230046620301000000000000000   10300001 00104100000000000774000000000000     
100   62911028202045260000000000009550000000009550002000000010410403011548490114622184800301000743541894   1030000200030000   541188001073000008000000294KBZ BANK               CITY MART - J MMR11003011548490114620301000000000000000   10300001 00104100000000000573000000000000     
100   62911028202231380000000000041650000000041650002000000010410403011423270081012184800301000743537459   1030000200030000   541188001081000008000000294KBZ BANK               CITY MART - J MMR11003011423270081010301000000000000000   10300001 00104100000000002499000000000000     
100   62911028202907560000000000043250000000043250002000000010410403010359481325092184800301133291048059   1030000900030000   541119001361190110000000977Ocean PZD C 15         YANGONAUNG    MMR11003010359481325090301000000000000000   10300001F00104100000000002595000000000000     
100   95030394609966640000000000003250000000003250002000000010410403010424081331122184800301449541008059   1030000900030000   591219000500190110000000347Shwe Ohh Pharmacy -  ( YANGONUNG     MMR11003010424081331120301000000000000000   10300001F00104100000000000195000000000000     
100   62443100360763680000000000107300000000107300002000000010410403011746460261314235710301000743548171   1030000200030000   541188001041000008000000010KBZ BANK               MARKETPLACE - MMR11003011746460261310301000000000000000   10300001 00104100000000026825000000000000     
100   95030306100020320000000000017250000000017250002000000010410403010528530627092184800301206012062709   1040001600030000   591220000277000000010000265Shwe Ohh Pharmacy (Thu Yangon        MMR11003010528530627090301000000000000000   10300001F00104100000000001035000000000000     
100   62911028202289130000000000019000000000019000002000000010410403011123570822702184800301206018082270   1040001600030000   598320000658000000010000527Shwe Taung Energy (YGN Yangon        MMR11003011123570822700301000000000000000   10300001F00104100000000000570000000000000     
100   62911028202441420000000000035950000000035950002000000010410403011118300817802184800301206018081780   1040001600030000   591220000297000000010000285Shwe Ohh Pharmacy (Nor Yangon        MMR11003011118300817800301000000000000000   10300001F00104100000000002157000000000000     
100   62911028202359000000000000017270000000017270002000000010410403010317070568222184800301206010056822   1040001600030000   581420000238000000010000226My Hill Coffeehouse    Yangon        MMR11003010317070568220301000000000000000   10300001F00104100000000000518000000000000     
100   95030301100124990000000000147600000000147600002000000010410403010449390606582184800301206011060658   1040001600030000   591220000266000000010000254Shwe Ohh Pharmacy (Sin Yangon        MMR11003010449390606580301000000000000000   10300001F00104100000000008856000000000000     
100   62911028202284420000000000036550000000036550002000000010410403010343520577872184800301206010057787   1040001600030000   591220000266000000010000254Shwe Ohh Pharmacy (Sin Yangon        MMR11003010343520577870301000000000000000   10300001F00104100000000002193000000000000     
100   62911028202161240000000000019464000000019464002000000010410403011009260284762184800301000743520794   1030000200030000   541188001024000008000000298KBZ BANK               CITY MART - M MMR11003011009260284760301000000000000000   10300001 00104100000000001168000000000000     
100   95050323049250880000000000048000000000048000002000000010410403010327571317551027270301729570957059   1030000900030000   569119001497190110000001091Next Generation GCS CM YANGONAW      MMR11003010327571317550301000000000000000   10300001F00104100000000011520000000000000     
100   62911028202441420000000000036100000000036100002000000010410403011130490828762184800301206018082876   1040001600030000   591220000297000000010000285Shwe Ohh Pharmacy (Nor Yangon        MMR11003011130490828760301000000000000000   10300001F00104100000000002166000000000000     
100   62911028202234680000000000021800000000021800002000000010410403011711030158542184800301000743545876   1030000200030000   541188001075000008000000294KBZ BANK               CITY MART - J MMR11003011711030158540301000000000000000   10300001 00104100000000001308000000000000     
100   95030301100415710000000000035650000000035650002000000010410403011021231428462184800301970511623059   1030000900030000   541119001244190110000000955City Mart JS C 3       YANGONUT      MMR11003011021231428460301000000000000000   10300001F00104100000000002139000000000000     
100   62911028202196800000000000050000000000050000002000000010410403010949321418692184800301371191632059   1030000900030000   554119001102190110000000214New Day Energy MTN     YANGON        MMR11003010949321418690301000000000000000   10300001F00104100000000001500000000000000     
100   62911028202217510000000000009183000000009183002000000010410403010304452429092184800301446390955059   1030000500030000   555610112237104519000010487Ocean Super Center St  ohn           MMR11003010304452429090301000000000000000   10300001 00104100000000000551000000000000     
100   95050327185992630000000000043000000000043000002000000010410403010942461416968790540301266121646059   1030000900030000   541119000113190110000000077Sein Gay Har Chinatown YANGON        MMR11003010942461416960301000000000000000   10300001F00104100000000010750000000000000     
100   95050313396828960000000000032572000000032572002000000010410403011117001446719278260301235471700059   1030000900030000   541119001304190110000000968Ocean Mingalar MDY C 1 MANDALAYHARSI MMR11003011117001446710301000000000000000   10300001F00104100000000008143000000000000     
100   95050322921717110000000000020000000000020000002000000010410403010105322421307872410301561520742059   1030000500030000   888810111244104519000009671Max Energy CoLtd 10                  MMR11003010105322421300301000000000000000   10300001 00104100000000002400000000000000     
100   62911028202248050000000000032000000000032000002000000010410403010228322425362184800301971580819059   1030000300030000   888810125460104519000021287Shwe Taung Energy CoLt               MMR11003010228322425360301000000000000000   10300001 00104100000000000960000000000000     
100   62443100300743690000000000014598000000014598002000000010410403011206581460933919340301157361858059   1030000900030000   541119001358190110000000977Ocean PZD C 12         YANGONAUNG    MMR11003011206581460930301000000000000000   10300001F00104100000000003650000000000000     
100   95050322295410690000000000030000000000030000002000000010410403010823131394656095040301949531413059   1030000900030000   554119001103190110000000215New Day Energy MYG     YANGONONE     MMR11003010823131394650301000000000000000   10300001F00104100000000003600000000000000     
100   62911028202415850000000000005161000000005161002000000010410403010851101401892184800301360211510059   1030000900030000   541119001242190110000000955City Mart JS C 1       YANGONUT      MMR11003010851101401890301000000000000000   10300001F00104100000000000310000000000000     
100   95030301100122750000000000015800000000015800002000000010410403011126571449472184800301411561757059   1030000900030000   541119001081190110000000872Sein Gay Har Hledan    YANGONUT      MMR11003011126571449470301000000000000000   10300001F00104100000000000948000000000000     
100   62911028202679290000000000010500000000010500002000000010410403011049121437942184800301659191712059   1030000900030000   541119001113190110000000872Sein Gay Har Hledan    YANGONUT      MMR11003011049121437940301000000000000000   10300001F00104100000000000630000000000000     
100   62911028202243670000000000035650000000035650002000000010410403010730051380252184800301135001405059   1030000900030000   591219000796190110000000628Shwe Ohh Pharmacy ST-3 YANGONMYOTHIT MMR11003010730051380250301000000000000000   10300001F00104100000000002139000000000000     
100   62911028202243670000000000005900000000005900002000000010410403010651231370172184800301559211323059   1030000900030000   541119001274190110000000961City Mart PLST City Ca YANGONMYOTHIT MMR11003010651231370170301000000000000000   10300001F00104100000000000354000000000000     
100   95030301100122750000000000018000000000018000002000000010410403011105081443222184800301013351708059   1030000900030000   541119001074190110000000872Sein Gay Har Hledan    YANGONUT      MMR11003011105081443220301000000000000000   10300001F00104100000000001080000000000000     
100   62911028202207380000000000023800000000023800002000000010410403010247462428342184800301354340900059   1030000500030000   555610110581104519000009164City Mart China Town P int Cen       MMR11003010247462428340301000000000000000   10300001 00104100000000001428000000000000     
100   95050310456843760000000000028400000000028400002000000010410403011152391456917394500301892221839059   1030000900030000   541119000124190110000000080Sein Gay Har BAK       YANGONADA     MMR11003011152391456910301000000000000000   10300001F00104100000000007100000000000000     
100   95030301100124570000000000036225000000036225002000000010410403010453172441422184800301034211140059   1030000300030000   444410124354104519000020484The Pizza Company Rest urant         MMR11003010453172441420301000000000000000   10300001 00104100000000003695000000000000     
100   62911028202243420000000000028850000000028850002000000010410403010649181369632184800301534191318059   1030000900030000   541119001261190110000000958City Mart PLST C 4     YANGONMYOTHIT MMR11003010649181369630301000000000000000   10300001F00104100000000001731000000000000     
100   95050326094581320000000000019926000000019926002000000010410403011020151428007599190301945501615059   1030000900030000   541119001513190110000001102Ocean MGDTM C-6        YANGONADON    MMR11003011020151428000301000000000000000   10300001F00104100000000004982000000000000     
100   62911028202679290000000000016500000000016500002000000010410403011039481434082184800301366091748059   1030000900030000   541119001079190110000000872Sein Gay Har Hledan    YANGONUT      MMR11003011039481434080301000000000000000   10300001F00104100000000000990000000000000     
100   62911028202679290000000000007000000000007000002000000010410403011127521449712184800301425571752059   1030000900030000   541119001081190110000000872Sein Gay Har Hledan    YANGONUT      MMR11003011127521449710301000000000000000   10300001F00104100000000000420000000000000     
100   62911028202679290000000000011000000000011000002000000010410403011105421443412184800301024351742059   1030000900030000   541119001074190110000000872Sein Gay Har Hledan    YANGONUT      MMR11003011105421443410301000000000000000   10300001F00104100000000000660000000000000     
100   62911028202463780000000000032700000000032700002000000010410403010257432428942184800301428380933059   1030000500030000   555610110570104519000009164City Mart China Town P int Cen       MMR11003010257432428940301000000000000000   10300001 00104100000000001962000000000000     
100   95050314995854750000000000017000000000017000002000000010410403010958291421433116660301540281629059   1030000900030000   591219001421190110000001025Life Plus Store 26     YANGONADON    MMR11003010958291421430301000000000000000   10300001F00104100000000004080000000000000     
100   62911028202133520000000000006000000000006000002000000010410403011150341456372184800301862201834059   1030000900030000   541119001077190110000000872Sein Gay Har Hledan    YANGONUT      MMR11003011150341456370301000000000000000   10300001F00104100000000000360000000000000     
100   62911028202217510000000000002000000000002000002000000010410403010305192429342184800301474420916059   1030000500030000   555610112532104519000010487Ocean Super Center St  ohn           MMR11003010305192429340301000000000000000   10300001 00104100000000000120000000000000     
100   62911028202466750000000000091650000000091650002000000010410403010747282468822184800301615221448059   1030000500030000   555610114572104519000012532City Mart Ahlone Branc               MMR11003010747282468820301000000000000000   10300001 00104100000000005499000000000000     
100   62911028202208780000000000010100000000010100002000000010410403010816282472552184800301116471442059   1030000500030000   555610112238104519000010487Ocean Super Center St  ohn           MMR11003010816282472550301000000000000000   10300001 00104100000000000606000000000000     
100   95030353248676040000000000011000000000011000002000000010410403010829262475042184800301468031530059   1030000500030000   555610112240104519000010487Ocean Super Center St  ohn           MMR11003010829262475040301000000000000000   10300001 00104100000000000660000000000000     
100   62911028202269410000000000007000000000007000002000000010410403010701312461002184800301552301348059   1030000300030000   555510125170104519000021039G N G Convenience Stor G0395F        MMR11003010701312461000301000000000000000   10300001 00104100000000000420000000000000     
100   62911028202447120000000000073550000000073550002000000010410403010628172456862184800301971031332059   1030000500030000   555610112235104519000010487Ocean Super Center St  ohn           MMR11003010628172456860301000000000000000   10300001 00104100000000004413000000000000     
100   62911028202827530000000000150000000000150000002000000010410403010954032488272184800301194221625059   1030000300030000   555510124358104519000020166Makro Myanmar                        MMR11003010954032488270301000000000000000   10300001 00104100000000009000000000000000     
100   62911028202204490000000000033923000000033923002000000010410403010522162445732184800301534521139059   1030000500030000   555610112236104519000010487Ocean Super Center St  ohn           MMR11003010522162445730301000000000000000   10300001 00104100000000002035000000000000     
100   62911028202140610000000000043800000000043800002000000010410403010956332488752184800301251251609059   1030000300030000   555510124358104519000020166Makro Myanmar                        MMR11003010956332488750301000000000000000   10300001 00104100000000002628000000000000     
100   95030343892826500000000000025500000000025500002000000010410403010646142459512184800301338191345059   1030000500030000   555610103474104519000003432City Mart Junction Zaw na 1          MMR11003010646142459510301000000000000000   10300001 00104100000000001530000000000000     
100   62911028202196800000000000121700000000121700002000000010410403011113342502232184800301139421711059   1030000300030000   555510124692104519000020166Makro Myanmar                        MMR11003011113342502230301000000000000000   10300001 00104100000000007302000000000000     
100   95030320529939180000000000090000000000090000002000000010410403011053062505592184800301625001806059   1030000500030000   888810109468104519000008487Max Energy CoLtd 4                   MMR11003011053062505590301000000000000000   10300001 00104100000000002700000000000000     
100   95050321455580800000000000003500000000003500002000000010410403010855132479113627240301022281540059   1030000500030000   555610110569104519000009163City Mart Ayeyarwon Br nch           MMR11003010855132479110301000000000000000   10300001 00104100000000000875000000000000     
100   62911028202593140000000000010600000000010600002000000010410403010554532450772184800301189251212059   1030000500030000   555610114570104519000012532City Mart Ahlone Branc               MMR11003010554532450770301000000000000000   10300001 00104100000000000636000000000000     
100   95030305700676370000000000060000000000060000002000000010410402281109510044102184800228205911004410   1030000600030000   554100002141315799420001490DENKO MEIKHTILA 3      MANDALAY      MMR11002281109510044100228000000000000000   10300001 00104100000000001800000000000000     
100   95050329252108030000000000010000000000010000002000000010410402281318150029394749070228205919002939   1030000500030000   598320041901000055983200419MAX ENERGY             PTN           MMR11002281318150029390228000000000000000   10300001 00104100000000001200000000000000     
100   95050329252108030000000000013000000000013000002000000010410402281321130029418224230228205919002941   1030000500030000   598320041901000055983200419MAX ENERGY             PTN           MMR11002281321130029410228000000000000000   10300001 00104100000000001560000000000000     
100   62911028202393160000000000020000000000020000002000000010410402281055160072132184800228205910007213   1030000600030000   554100001218315799420000670DENKO MAWLAMYAING      MON STATE.    MMR11002281055160072130228000000000000000   10300001 00104100000000000600000000000000     
100   62911028202124790000000000037990000000037990002000000010410402280948240005122184800228205916000512   1030000500030000   531120155807000045311201558GAMONE PWINT           PTN           MMR11002280948240005120228000000000000000   10300001 00104100000000002279000000000000     
100   95030346130941600000000000039000000000039000002000000010410402281125560023032184800228000332786204   1030000300030000   806200000197000000000000097CB BANK                AUNG YADANA H MMR11002281125560023030228000000000000000   10300001F00104100000000002340000000000000     
100   95050318601641810000000000019000000000019000002000000010410402281031090001772187790228205917000177   1030000500030000   531120155713000045311201557GAMONE PWINT           PTN           MMR11002281031090001770228000000000000000   10300001 00104100000000004560000000000000     
100   62911028202610960000000000028200000000028200002000000010410402280721450013402184800228205913001340   1030000500030000   503920036610000015039200366PRO-1 HOME CENTER      PTN           MMR11002280721450013400228000000000000000   10300001 00104100000000001692000000000000     
100   95050321455580800000000000044176000000044176002000000010410403010846522478285194630301922231516059   1030000500030000   555610110557104519000009163City Mart Ayeyarwon Br nch           MMR11003010846522478280301000000000000000   10300001 00104100000000011044000000000000     
100   95050316573091630000000000018900000000018900002000000010410403011052392498668316770301605231707059   1030000300030000   555510124362104519000020166Makro Myanmar                        MMR11003011052392498660301000000000000000   10300001 00104100000000004536000000000000     
100   62911028202169750000000000067271000000067271002000000010410403010559412451222184800301238281203059   1030000500030000   555610118965104519000016137City Mart South Okkala WZYD BR       MMR11003010559412451220301000000000000000   10300001 00104100000000004036000000000000     
100   95050319695392670000000000014600000000014600002000000010410403011013262492205351030301687441655059   1030000300030000   555610103656104519000003559Capital Hypermarket Da bon           MMR11003011013262492200301000000000000000   10300001 00104100000000003650000000000000     
100   62443100364681690000000000013400000000013400002000000010410403010622232455101315850301722521212059   1030000300030000   555510124697104519000020166Makro Myanmar                        MMR11003010622232455100301000000000000000   10300001 00104100000000003216000000000000     
100   62911028202417260000000000035000000000035000002000000010410402270958530124792184800227205816012479   1030000500030000   598320001402000015172200014MAX ENERGY             PTN           MMR11002270958530124790227000000000000000   10300001 00104100000000001050000000000000     
100   62911028202677390000000000014078000000014078002000000010410402271007440005282184800227205810000528   1030000600030000   5499000023523157994200016371 STOP S M KAMARKYI    YANGON        MMR11002271007440005280227000000000000000   10300001 00104100000000001436000000000000     
100   62911028202492080000000000005850000000005850002000000010410403010232461306312184800301217020946059   1030000900030000   541119000112190110000000077Sein Gay Har Chinatown YANGON        MMR11003010232461306310301000000000000000   10300001F00104100000000000351000000000000     
100   62911028202400660000000000024000000000024000002000000010410402280632490000452184800228205913000045   1030000500030000   573220181601000055732201816REMAX                  PTN           MMR11002280632490000450228000000000000000   10300001 00104100000000001440000000000000     
100   62911028202170490000000000021500000000021500002000000010410402280615300001842184800228205912000184   1030000500030000   573220039601000065732200396REMAX                  PTN           MMR11002280615300001840228000000000000000   10300001 00104100000000001290000000000000     
100   62911028202449440000000000075000000000075000002000000010410402281025290047222184800228205916004722   1030000500030000   598320001701000015172200017MAX ENERGY             PTN           MMR11002281025290047220228000000000000000   10300001 00104100000000002250000000000000     
100   95050321690472590000000000006200000000006200002000000010410402280557540003348845700228205912000334   1030000500030000   531120155716000045311201557GAMONE PWINT           PTN           MMR11002280557540003340228000000000000000   10300001 00104100000000001488000000000000     
100   62911028202870750000000000137650000000137650002000000010410402281409420011952184800228000743487661   1030000200030000   541188001360000008000000395KBZ BANK               OCEAN SUPERMA MMR11002281409420011950228000000000000000   10300001 00104100000000008259000000000000     
100   62911028202663430000000000003200000000003200002000000010410402280926500036992184800228205915003699   1030000500030000   541120020701022205411200207ORANGE (YDG)           PTN           MMR11002280926500036990228000000000000000   10300001 00104100000000000192000000000000     
100   95050318052625040000000000010500000000010500002000000010410402281154220056424111990228205911005642   1030000600030000   549900002153315799420001502EASY MART- 003         YANGON        MMR11002281154220056420228000000000000000   10300001 00104100000000004463000000000000     
100   62911028202026780000000000014450000000014450002000000010410402280636080003402184800228205913000340   1030000500030000   531120155905000045311201559GAMONE PWINT           PTN           MMR11002280636080003400228000000000000000   10300001 00104100000000000867000000000000     
100   62911028202366010000000000274740000000274740002000000010410402280842140021702184800228205915002170   1030000500030000   569120058001019505691200580MK FASHION SHOP        PTN           MMR11002280842140021700228000000000000000   10300001 00104100000000016484000000000000     
100   62911028202366010000000000029500000000029500002000000010410402280509050002722184800228205911000272   1030000500030000   594520116701000015945201167TOYS M 21              PTN           MMR11002280509050002720228000000000000000   10300001 00104100000000001770000000000000     
100   62911028202204490000000000077000000000077000002000000010410402280449380562182184800228205904056218   1030000600030000   554100002085315799420000471DENKO BAHAN            YANGON        MMR11002280449380562180228000000000000000   10300001 00104100000000002310000000000000     
100   62911028202143500000000000044536000000044536002000000010410402281203560153562184800228205918015356   1030000500030000   598320002101000015172200021MAX ENERGY             PTN           MMR11002281203560153560228000000000000000   10300001 00104100000000001336000000000000     
100   62911028202677390000000000030000000000030000002000000010410402281208280178302184800228205912017830   1030000600030000   554100001118315799420000576DENKO THAN HLYIN - 2   THAN HLYIN    MMR11002281208280178300228000000000000000   10300001 00104100000000000900000000000000     
100   62911028202154640000000000052011000000052011002000000010410402280257540319152184800228205902031915   1030000600030000   554100001009315799420000504DENKO SOUTH DAGON      YANGON        MMR11002280257540319150228000000000000000   10300001 00104100000000001560000000000000     
100   95050319618267120000000000010000000000010000002000000010410402280307109961992016130228205910996199   1040001600030000   598320000917000000010000665MMTM - Thingangyun     Ygn           MMR11002280307109961990228000000000000000   10300001F00104100000000001200000000000000     
100   62911028202287150000000000211300000000211300002000000010410402270520550002532184800227205811000253   1030000500030000   806220172406013008062201724GRAND HANTHA HOSPITAL  PTN           MMR11002270520550002530227000000000000000   10300001 00104100000000012678000000000000     
