100   62911028202132040000000000020004000000020004002000000010410403010722010181702184800301206013018170   1030000500030000   598320001602000015172200016MAX ENERGY             PTN           MMR11003010722010181700301000000000000000   10300001 00104100000000000600000000000000     
100   62911028202533900000000000030000000000030000002000000010410403010759280154412184800301206014015441   1030000500030000   598320002101000015172200021MAX ENERGY             PTN           MMR11003010759280154410301000000000000000   10300001 00104100000000000900000000000000     
100   62911028202807400000000000050000000000050000002000000010410403010936320181472184800301206016018147   1030000500030000   598320001601000015172200016MAX ENERGY             PTN           MMR11003010936320181470301000000000000000   10300001 00104100000000001500000000000000     
100   62911028202445710000000000074000000000074000002000000010410403010407390200742184800301206010020074   1030000500030000   598320001201000015172200012MAX ENERGY             PTN           MMR11003010407390200740301000000000000000   10300001 00104100000000002220000000000000     
100   62911028202286990000000000030000000000030000002000000010410403010209260204912184800301206008020491   1030000500030000   598320001202000015172200012MAX ENERGY             PTN           MMR11003010209260204910301000000000000000   10300001 00104100000000000900000000000000     
100   95050321188471220000000000021000000000021000002000000010410403021113520015015961650302000743571408   1030000200030000   541188001496000008000000399KBZ BANK               OCEAN SUPERCE MMR11003021113520015010302000000000000000   10300001 00104100000000005250000000000000     
100   95050324550191030000000000041800000000041800002000000010410403021246040029368249030302000743575797   1030000200030000   541188001436000008000000401KBZ BANK               OCEAN SUPERCE MMR11003021246040029360302000000000000000   10300001 00104100000000010450000000000000     
100   62911028202590580000000000033150000000033150002000000010410403021512240047512184800302000743582909   1030000200030000   541188001023000008000000298KBZ BANK               CITY MART - M MMR11003021512240047510302000000000000000   10300001 00104100000000001989000000000000     
100   95050311184380560000000000002940000000002940002000000010410403011711284128651415890302000006733139   1020000200030000   333400010001204104000000281Myanmar Soft-Gate Tech Yangon        MMR11003011711284128650302000000000000000   10300001F05104100000000000617000000000000     
100   95050317376014640000000000000980000000000980002000000010410403021013284328348051260302000006736428   1020000200030000   333400010001204104000000281Myanmar Soft-Gate Tech Yangon        MMR11003021013284328340302000000000000000   10300001F05104100000000000206000000000000     
100   95050314996291580000000000002940000000002940002000000010410403021218264826146028450302000006737003   1020000200030000   333400010001204104000000281Myanmar Soft-Gate Tech Yangon        MMR11003021218264826140302000000000000000   10300001F05104100000000000617000000000000     
100   95050323067379780000000000100000000000100000002000000010410403020424465446386812610302000006734430   1030000200030000   333800010001203104000003327KBZPay                 Yangon        MMR11003020424465446380302000000000000000   10300001F05104100000000021000000000000000     
100   95050316530487400000000000030000000000030000002000000010410403020423435343773082160302000006734411   1030000200030000   333800010001203104000003327KBZPay                 Yangon        MMR11003020423435343770302000000000000000   10300001F05104100000000006300000000000000     
100   95050310616516480000000000004900000000004900002000000010410403021125225522652377380302000006736720   1020000200030000   333400010001204104000000281Myanmar Soft-Gate Tech Yangon        MMR11003021125225522650302000000000000000   10300001F05104100000000001029000000000000     
100   95050323133124350000000000000980000000000980002000000010410403020424185418411429680302000006734421   1020000200030000   333400010001204104000000281Myanmar Soft-Gate Tech Yangon        MMR11003020424185418410302000000000000000   10300001F05104100000000000206000000000000     
100   62443100395250310000000000000980000000000980002000000010410403021403013301937936220302000006737472   1020000200030000   333400010001204104000000281Myanmar Soft-Gate Tech Yangon        MMR11003021403013301930302000000000000000   10300001F05104100000000000206000000000000     
100   62911028202242760000000000022750000000022750002000000010410403021335160054452184800302000743578061   1030000200030000   541188001315000008000000306KBZ BANK               CITY MART - S MMR11003021335160054450302000000000000000   10300001 00104100000000001365000000000000     
100   62911028202118690000000000007600000000007600002000000010410403021200470053662184800302000743573704   1030000200030000   541188001064000008000000314KBZ BANK               MARKETPLACE - MMR11003021200470053660302000000000000000   10300001 00104100000000000456000000000000     
100   62911028202752030000000000032800000000032800002000000010410403021125450016082184800302000743591994   1030000200030000   569988000792000008000004571KBZ BANK               NPT-THE ONE   MMR11003021125450016080302000000000000000   10300001 00104100000000001968000000000000     
100   95050310283518110000000000011920000000011920002000000010410403021101040040704989940302000743570730   1030000200030000   541188001440000008000000401KBZ BANK               OCEAN SUPERCE MMR11003021101040040700302000000000000000   10300001 00104100000000002980000000000000     
100   95030301100184470000000000002400000000002400002000000010410403021413350058992184800302000743579894   1030000200030000   541188001071000008000000314KBZ BANK               MARKETPLACE - MMR11003021413350058990302000000000000000   10300001 00104100000000000144000000000000     
100   95050315730155710000000000030006000000030006002000000010410403021447390040758526180302000743581622   1030000200030000   541188001440000008000000401KBZ BANK               OCEAN SUPERCE MMR11003021447390040750302000000000000000   10300001 00104100000000007502000000000000     
100   95050316438375580000000000010400000000010400002000000010410403021425100018506533310302000743580432   1030000200030000   541188001480000008000000399KBZ BANK               OCEAN SUPERCE MMR11003021425100018500302000000000000000   10300001 00104100000000002600000000000000     
100   62911028202068510000000000028270000000028270002000000010410403021353540044062184800302000743578897   1030000200030000   541188001432000008000000401KBZ BANK               OCEAN SUPERCE MMR11003021353540044060302000000000000000   10300001 00104100000000001696000000000000     
100   95050313113158460000000000004900000000004900002000000010410403011657182718229763410302000006733118   1020000200030000   333400010001204104000000281Myanmar Soft-Gate Tech Yangon        MMR11003011657182718220302000000000000000   10300001F05104100000000001029000000000000     
100   95050315110306410000000000002940000000002940002000000010410403020807393739232086440302000006735793   1020000200030000   333400010001204104000000281Myanmar Soft-Gate Tech Yangon        MMR11003020807393739230302000000000000000   10300001F05104100000000000617000000000000     
100   95030395875796410000000000050000000000050000002000000010410403021214084408332184800302000006736968   1030000200030000   333800010001203104000003327KBZPay                 Yangon        MMR11003021214084408330302000000000000000   10300001F05104100000000010500000000000000     
100   95050312926040930000000000004900000000004900002000000010410403020821025102785306310302000006735874   1020000200030000   333400010001204104000000281Myanmar Soft-Gate Tech Yangon        MMR11003020821025102780302000000000000000   10300001F05104100000000001029000000000000     
100   95050313710136610000000000002940000000002940002000000010410403020222035203271720620302000006733754   1020000200030000   333400010001204104000000281Myanmar Soft-Gate Tech Yangon        MMR11003020222035203270302000000000000000   10300001F05104100000000000617000000000000     
100   95050319111666800000000000000980000000000980002000000010410403021129045904126278020302000006736728   1020000200030000   333400010001204104000000281Myanmar Soft-Gate Tech Yangon        MMR11003021129045904120302000000000000000   10300001F05104100000000000206000000000000     
100   95050316736513170000000000000980000000000980002000000010410403020356412641725245230302000006734245   1020000200030000   333400010001204104000000281Myanmar Soft-Gate Tech Yangon        MMR11003020356412641720302000000000000000   10300001F05104100000000000206000000000000     
100   62911028202440680000000000008200000000008200002000000010410403021305462663342184800302113361954060   1030000500030000   555610120970104519000017733City Express MCS 14                  MMR11003021305462663340302000000000000000   10300001 00104100000000000492000000000000     
100   95050321188471220000000000018760000000018760002000000010410403021106290010132741780302000743571009   1030000200030000   541188001484000008000000399KBZ BANK               OCEAN SUPERCE MMR11003021106290010130302000000000000000   10300001 00104100000000004690000000000000     
100   95050326945666250000000000024700000000024700002000000010410403021148030069034263290302000743573139   1030000200030000   541188001317000008000000306KBZ BANK               CITY MART - S MMR11003021148030069030302000000000000000   10300001 00104100000000006175000000000000     
100   95050311876202380000000000015800000000015800002000000010410403021148120023366107830302206118002336   1020000200030000   541100255002300115411000025MWD BANK               YGN           MMR11003021148120023360302000000000000000   10300001 00104100000000003950000000000000     
100   95030317922148660000000000024000000000024000002000000010410403021522400029022184800302000743583426   1030000200030000   541188001006000008000000008KBZ BANK               MARKETPLACE - MMR11003021522400029020302000000000000000   10300001 00104100000000001440000000000000     
100   62911028202161240000000000019047000000019047002000000010410403021044580285522184800302000743569870   1030000200030000   541188001024000008000000298KBZ BANK               CITY MART - M MMR11003021044580285520302000000000000000   10300001 00104100000000001143000000000000     
100   95030301100119050000000000100000000000100000002000000010410403021136110611352184800302000006736764   1030000200030000   333800010001203104000003327KBZPay                 Yangon        MMR11003021136110611350302000000000000000   10300001F05104100000000021000000000000000     
100   95050310585042220000000000050310000000050310002000000010410403020935190519786483870302000006736210   1030000200030000   333800010001203104000003327KBZPay                 Yangon        MMR11003020935190519780302000000000000000   10300001F05104100000000010565000000000000     
100   95050319161596230000000000000980000000000980002000000010410403020240061006687018460302000006733843   1020000200030000   333400010001204104000000281Myanmar Soft-Gate Tech Yangon        MMR11003020240061006680302000000000000000   10300001F05104100000000000206000000000000     
100   95050318608138520000000000016000000000016000002000000010410403021517244724271836860302000006737816   1030000200030000   333800010001203104000003327KBZPay                 Yangon        MMR11003021517244724270302000000000000000   10300001F05104100000000003360000000000000     
100   95050323067379780000000000300000000000300000002000000010410403020356452645380287770302000006734250   1030000200030000   333800010001203104000003327KBZPay                 Yangon        MMR11003020356452645380302000000000000000   10300001F05104100000000063000000000000000     
100   62911028202341350000000000004200000000004200002000000010410403021136582653392184800302619121821060   1030000500030000   555610121902104519000018347City Express MCS 79                  MMR11003021136582653390302000000000000000   10300001 00104100000000000252000000000000     
100   95050314567080940000000000000980000000000980002000000010410403020106423642650735120302000006733501   1020000200030000   333400010001204104000000281Myanmar Soft-Gate Tech Yangon        MMR11003020106423642650302000000000000000   10300001F05104100000000000206000000000000     
100   95050311931431670000000000004900000000004900002000000010410403021311364136382808580302000006737267   1020000200030000   333400010001204104000000281Myanmar Soft-Gate Tech Yangon        MMR11003021311364136380302000000000000000   10300001F05104100000000001029000000000000     
100   95050315701710960000000000004900000000004900002000000010410403020313044304626082400302000006733978   1020000200030000   333400010001204104000000281Myanmar Soft-Gate Tech Yangon        MMR11003020313044304620302000000000000000   10300001F05104100000000001029000000000000     
100   62443100313529540000000000001960000000001960002000000010410403020502423242925405200302000006734670   1020000200030000   333400010001204104000000281Myanmar Soft-Gate Tech Yangon        MMR11003020502423242920302000000000000000   10300001F05104100000000000412000000000000     
100   95050311931431670000000000009800000000009800002000000010410403020921415141299632430302000006736160   1020000200030000   333400010001204104000000281Myanmar Soft-Gate Tech Yangon        MMR11003020921415141290302000000000000000   10300001F05104100000000002058000000000000     
100   95030302100015820000000000016607000000016607002000000010410403021456160120172184800302000743582041   1030000200030000   541188001061000008000000314KBZ BANK               MARKETPLACE - MMR11003021456160120170302000000000000000   10300001 00104100000000000996000000000000     
100   95030301100315070000000000009950000000009950002000000010410403020329201189302184800302206110118930   1040001600030000   591220000272000000010000260Shwe Ohh Pharmacy ( Th Yangon        MMR11003020329201189300302000000000000000   10300001F00104100000000000597000000000000     
100   62911028202757730000000000013271000000013271002000000010410403020918030161932184800302000743566399   1030000200030000   541188001054000008000000314KBZ BANK               MARKETPLACE - MMR11003020918030161930302000000000000000   10300001 00104100000000000796000000000000     
100   62443101065883000000000000038200000000038200002000000010410403021619180171953264000302000743586443   1030000200030000   541188001070000008000000314KBZ BANK               MARKETPLACE - MMR11003021619180171950302000000000000000   10300001 00104100000000009550000000000000     
100   95030301100119050000000000300000000000300000002000000010410403021132540254042184800302000006736745   1030000200030000   333800010001203104000003327KBZPay                 Yangon        MMR11003021132540254040302000000000000000   10300001F05104100000000063000000000000000     
100   62911028202101190000000000001000000000001000002000000010410403021534580458212184800302000006737889   1030000200030000   333800010001203104000003327KBZPay                 Yangon        MMR11003021534580458210302000000000000000   10300001F05104100000000000210000000000000     
100   95030301100119050000000000300000000000300000002000000010410403021134590459122184800302000006736757   1030000200030000   333800010001203104000003327KBZPay                 Yangon        MMR11003021134590459120302000000000000000   10300001F05104100000000063000000000000000     
100   95050319111666800000000000000980000000000980002000000010410403021141431143819327700302000006736798   1020000200030000   333400010001204104000000281Myanmar Soft-Gate Tech Yangon        MMR11003021141431143810302000000000000000   10300001F05104100000000000206000000000000     
100   95050310427855490000000000001960000000001960002000000010410403020422115211263167260302000006734397   1020000200030000   333400010001204104000000281Myanmar Soft-Gate Tech Yangon        MMR11003020422115211260302000000000000000   10300001F05104100000000000412000000000000     
100   95050312695033440000000000000980000000000980002000000010410403021322145214241241190302000006737307   1020000200030000   333400010001204104000000281Myanmar Soft-Gate Tech Yangon        MMR11003021322145214240302000000000000000   10300001F05104100000000000206000000000000     
100   95050315110306410000000000004900000000004900002000000010410403021303483348586368830302000006737221   1020000200030000   333400010001204104000000281Myanmar Soft-Gate Tech Yangon        MMR11003021303483348580302000000000000000   10300001F05104100000000001029000000000000     
100   95030302100015820000000000022440000000022440002000000010410403020755582605982184800302665251407060   1030000300030000   555510110946104519000009439Penshoppe Earth Fashio               MMR11003020755582605980302000000000000000   10300001 00104100000000001346000000000000     
100   95050323133124350000000000050000000000050000002000000010410403020517584758459220740302000006734802   1030000200030000   333800010001203104000003327KBZPay                 Yangon        MMR11003020517584758450302000000000000000   10300001F05104100000000010500000000000000     
100   95050310456843760000000000001960000000001960002000000010410403020618044804415270660302000006735162   1020000200030000   333400010001204104000000281Myanmar Soft-Gate Tech Yangon        MMR11003020618044804410302000000000000000   10300001F05104100000000000412000000000000     
100   95050314570621780000000000000980000000000980002000000010410403020822575257217554470302000006735882   1020000200030000   333400010001204104000000281Myanmar Soft-Gate Tech Yangon        MMR11003020822575257210302000000000000000   10300001F05104100000000000206000000000000     
100   62911028202451150000000000037000000000037000002000000010410403021045242642842184800302062181733060   1030000500030000   555610122582104519000018896City Mart Hlaing Thar  ar            MMR11003021045242642840302000000000000000   10300001 00104100000000002220000000000000     
100   95030301100125070000000000035640000000035640002000000010410403020601221265902184800302206113126590   1040001600030000   581420000803000000010000579Jeff's Kitchen (Ahlone Yangon        MMR11003020601221265900302000000000000000   10300001F00104100000000001069000000000000     
100   62911028202234680000000000008400000000008400002000000010410403021115450119962184800302000743571504   1030000200030000   541188001061000008000000314KBZ BANK               MARKETPLACE - MMR11003021115450119960302000000000000000   10300001 00104100000000000504000000000000     
100   62911028202204800000000000012950000000012950002000000010410403021534230115212184800302000743584004   1030000200030000   541188001073000008000000294KBZ BANK               CITY MART - J MMR11003021534230115210302000000000000000   10300001 00104100000000000777000000000000     
100   95050322921717110000000000042346000000042346002000000010410403021141070246734093100302000743572801   1030000200030000   541188001004000008000000008KBZ BANK               MARKETPLACE - MMR11003021141070246730302000000000000000   10300001 00104100000000010587000000000000     
100   62911028202093430000000000000980000000000980002000000010410403020439430943542184800302000006734536   1020000200030000   333400010001204104000000281Myanmar Soft-Gate Tech Yangon        MMR11003020439430943540302000000000000000   10300001F05104100000000000206000000000000     
100   95050312926040930000000000002940000000002940002000000010410403021341311131234546160302000006737381   1020000200030000   333400010001204104000000281Myanmar Soft-Gate Tech Yangon        MMR11003021341311131230302000000000000000   10300001F05104100000000000617000000000000     
100   95030301100425040000000000028600000000028600002000000010410403020742321232092184800302000006735642   1030000200030000   3333000100012031040000040282C2P (Myanmar) Co. Ltd Yangon        MMR11003020742321232090302000000000000000   10300001F05104100000000010000000000000000     
100   95030305100040620000000000018500000000018500002000000010410403021443570095012184800302000743581418   1030000200030000   541188001056000008000000314KBZ BANK               MARKETPLACE - MMR11003021443570095010302000000000000000   10300001 00104100000000001110000000000000     
100   95050320360851930000000000002940000000002940002000000010410403020257322732158160370302000006733907   1020000200030000   333400010001204104000000281Myanmar Soft-Gate Tech Yangon        MMR11003020257322732150302000000000000000   10300001F05104100000000000617000000000000     
100   95050313679794950000000000100000000000100000002000000010410403020900023002431370010302000006736072   1030000200030000   333800010001203104000003327KBZPay                 Yangon        MMR11003020900023002430302000000000000000   10300001F05104100000000021000000000000000     
100   95050312498129060000000000006860000000006860002000000010410403021400593059129588710302000006737483   1020000200030000   333400010001204104000000281Myanmar Soft-Gate Tech Yangon        MMR11003021400593059120302000000000000000   10300001F05104100000000001441000000000000     
100   95050319528093960000000000004900000000004900002000000010410403021406523652485141830302000006737509   1020000200030000   333400010001204104000000281Myanmar Soft-Gate Tech Yangon        MMR11003021406523652480302000000000000000   10300001F05104100000000001029000000000000     
100   62443100395535610000000000200000000000200000002000000010410403020626235623435781230302000006735219   1030000200030000   333800010001203104000003327KBZPay                 Yangon        MMR11003020626235623430302000000000000000   10300001F05104100000000042000000000000000     
100   95050312498129060000000000003920000000003920002000000010410403020301013101829302270302000006733925   1020000200030000   333400010001204104000000281Myanmar Soft-Gate Tech Yangon        MMR11003020301013101820302000000000000000   10300001F05104100000000000823000000000000     
100   95050315099113150000000000000980000000000980002000000010410403021015584558451441320302000006736435   1020000200030000   333400010001204104000000281Myanmar Soft-Gate Tech Yangon        MMR11003021015584558450302000000000000000   10300001F05104100000000000206000000000000     
100   62443100381661260000000000006950000000006950002000000010410403021012262634166313680302707401651060   1030000500030000   555610115765104519000013506MarketplaceMyanmarPlaz Branch        MMR11003021012262634160302000000000000000   10300001 00104100000000001738000000000000     
100   95030301100126550000000000080000000000080000002000000010410403020457091228172184800302206111122817   1040001600030000   591220000085000000010000081Golden Bell (North Okk Yangon        MMR11003020457091228170302000000000000000   10300001F00104100000000004800000000000000     
100   95030301100119050000000000300000000000300000002000000010410403021131220122992184800302000006736740   1030000200030000   333800010001203104000003327KBZPay                 Yangon        MMR11003021131220122990302000000000000000   10300001F05104100000000063000000000000000     
100   95030301100118480000000000010000000000010000002000000010410403020435040504082184800302000006734515   1030000200030000   333800010001203104000003327KBZPay                 Yangon        MMR11003020435040504080302000000000000000   10300001F05104100000000002100000000000000     
100   62911028202103410000000000044000000000044000002000000010410403020610001270722184800302206113127072   1040001600030000   598320000854000000010000608Terminal Petrol Statio Yangon        MMR11003020610001270720302000000000000000   10300001F00104100000000001320000000000000     
100   62911028202482750000000000026350000000026350002000000010410403021144590119982184800302000743572985   1030000200030000   541188001061000008000000314KBZ BANK               MARKETPLACE - MMR11003021144590119980302000000000000000   10300001 00104100000000001581000000000000     
100   95050315743141220000000000001960000000001960002000000010410403021241331133979078130302000006737116   1020000200030000   333400010001204104000000281Myanmar Soft-Gate Tech Yangon        MMR11003021241331133970302000000000000000   10300001F05104100000000000412000000000000     
100   95050314996291580000000000001960000000001960002000000010410403021240301030244120670302000006737112   1020000200030000   333400010001204104000000281Myanmar Soft-Gate Tech Yangon        MMR11003021240301030240302000000000000000   10300001F05104100000000000412000000000000     
100   95050310456843760000000000002940000000002940002000000010410403020942571257784831390302000006736256   1020000200030000   333400010001204104000000281Myanmar Soft-Gate Tech Yangon        MMR11003020942571257780302000000000000000   10300001F05104100000000000617000000000000     
100   62443100392426520000000000010000000000010000002000000010410403021403263326736794310302000006737494   1030000200030000   333800010001203104000003327KBZPay                 Yangon        MMR11003021403263326730302000000000000000   10300001F05104100000000002100000000000000     
100   95050325787151080000000000200000000000200000002000000010410403021129255925041235470302000006736733   1030000200030000   333800010001203104000003327KBZPay                 Yangon        MMR11003021129255925040302000000000000000   10300001F05104100000000042000000000000000     
100   95050310534130230000000000007500000000007500002000000010410403020925322624521526420302356541524060   1030000300030000   444410124519104519000020594Seezar Food Juntion Ci y             MMR11003020925322624520302000000000000000   10300001 00104100000000003188000000000000     
100   95030333100021460000000000010200000000010200002000000010410403021010212635302184800302868461648060   1030000500030000   555610112252104519000010487Ocean Super Center St  ohn           MMR11003021010212635300302000000000000000   10300001 00104100000000000612000000000000     
100   95050311560587250000000000013550000000013550002000000010410403021052412643949242600302217231700060   1030000500030000   555610104031104519000003821City Mart North Point  enter         MMR11003021052412643940302000000000000000   10300001 00104100000000003388000000000000     
100   95050310305109410000000000001960000000001960002000000010410403020601073107133461760302000006735055   1020000200030000   333400010001204104000000281Myanmar Soft-Gate Tech Yangon        MMR11003020601073107130302000000000000000   10300001F05104100000000000412000000000000     
100   62911028202078000000000000100000000000100000002000000010410403020800223022142184800302000006735752   1030000200030000   333800010001203104000003327KBZPay                 Yangon        MMR11003020800223022140302000000000000000   10300001F05104100000000021000000000000000     
100   95050312498129060000000000009500000000009500002000000010410403020821535153858696370302000006735875   1030000200030000   3333000100012031040000040282C2P (Myanmar) Co. Ltd Yangon        MMR11003020821535153850302000000000000000   10300001F05104100000000010000000000000000     
100   62911028202161240000000000049720000000049720002000000010410403021133590110352184800302000743572445   1030000200030000   541188001009000008000000008KBZ BANK               MARKETPLACE - MMR11003021133590110350302000000000000000   10300001 00104100000000002983000000000000     
100   95030301100184470000000000100000000000100000002000000010410403020135070507112184800302000006733574   1030000200030000   333800010001203104000003327KBZPay                 Yangon        MMR11003020135070507110302000000000000000   10300001F05104100000000021000000000000000     
100   95030301100157400000000000001960000000001960002000000010410403020531130113982184800302000006734873   1020000200030000   333400010001204104000000281Myanmar Soft-Gate Tech Yangon        MMR11003020531130113980302000000000000000   10300001F05104100000000000412000000000000     
100   95050317248519320000000000003000000000003000002000000010410403020136510651557600340302000006733582   1030000200030000   3338000100012031040000040022C2P (Myanmar) Co. Ltd Yangon        MMR11003020136510651550302000000000000000   10300001F05104100000000000630000000000000     
100   62911028202215530000000000005100000000005100002000000010410403021002110166432184800302000743567931   1030000200030000   541188001079000008000000294KBZ BANK               CITY MART - J MMR11003021002110166430302000000000000000   10300001 00104100000000000306000000000000     
100   95050312568198510000000000002000000000002000002000000010410403020039150915815777670302000006733439   1030000200030000   3338000100012031040000040022C2P (Myanmar) Co. Ltd Yangon        MMR11003020039150915810302000000000000000   10300001F05104100000000000420000000000000     
100   95050317376014640000000000000980000000000980002000000010410403020135490549207685440302000006733578   1020000200030000   333400010001204104000000281Myanmar Soft-Gate Tech Yangon        MMR11003020135490549200302000000000000000   10300001F05104100000000000206000000000000     
100   95050317343045830000000000000980000000000980002000000010410403021537140714906879410302000006737907   1020000200030000   333400010001204104000000281Myanmar Soft-Gate Tech Yangon        MMR11003021537140714900302000000000000000   10300001F05104100000000000206000000000000     
100   95050312298324450000000000000980000000000980002000000010410403021626295629265226930302000006738030   1020000200030000   333400010001204104000000281Myanmar Soft-Gate Tech Yangon        MMR11003021626295629260302000000000000000   10300001F05104100000000000206000000000000     
100   95050311560587250000000000038400000000038400002000000010410403021051362643600895090302172211733060   1030000500030000   555610104031104519000003821City Mart North Point  enter         MMR11003021051362643600302000000000000000   10300001 00104100000000009600000000000000     
100   62443100395250310000000000000980000000000980002000000010410403021411524152460099280302000006737516   1020000200030000   333400010001204104000000281Myanmar Soft-Gate Tech Yangon        MMR11003021411524152460302000000000000000   10300001F05104100000000000206000000000000     
100   95050310902464360000000000005880000000005880002000000010410403020616294629723533070302000006735148   1020000200030000   333400010001204104000000281Myanmar Soft-Gate Tech Yangon        MMR11003020616294629720302000000000000000   10300001F05104100000000001235000000000000     
100   95050310743661680000000000014500000000014500002000000010410403020803572611547043890302484501439060   1030000300030000   444410123548104519000019766YKKO NPST                            MMR11003020803572611540302000000000000000   10300001 00104100000000006163000000000000     
100   95030308100042590000000000010550000000010550002000000010410403020827521643932184800302396571452060   1030000900030000   541119001230190110000000947City Mart TM City Care YANGONONE     MMR11003020827521643930302000000000000000   10300001F00104100000000000633000000000000     
100   95050310743661680000000000032360000000032360002000000010410403020728001625719681880302048581300060   1030000900030000   541119001264190110000000958City Mart PLST C 7     YANGONMYOTHIT MMR11003020728001625710302000000000000000   10300001F00104100000000008090000000000000     
100   62911028202616250000000002000000000002000000002000000010410403020809091638272184800302970391409060   1030000900030000   594419000706190110000000537Zwe Htet Gems & Jewell YANGONAW      MMR11003020809091638270302000000000000000   10300001F00104100000000120000000000000000     
100   95030308100042590000000000016000000000016000002000000010410403020833551645762184800302535031555060   1030000900030000   541119001223190110000000945City Mart TM C 8       YANGONONE     MMR11003020833551645760302000000000000000   10300001F00104100000000000960000000000000     
100   95030360160133170000000000002250000000002250002000000010410403021018511393762184800302206117139376   1040001600030000   591220000289000000010000277Shwe Ohh Pharmacy (Par Yangon        MMR11003021018511393760302000000000000000   10300001F00104100000000000135000000000000     
100   95050324767581840000000000017850000000017850002000000010410403021224521503422383090302206119150342   1040001600030000   541120000561000000010000465Ocean Shwe Gone Daing  Yangon        MMR11003021224521503420302000000000000000   10300001F00104100000000004463000000000000     
100   95030301857170060000000000003600000000003600002000000010410403020249261546022184800302532190926060   1030000900030000   581219000931190110000000740Shwe Palin City Mall   YANGONAW      MMR11003020249261546020302000000000000000   10300001F00104100000000000367000000000000     
100   95030308100042590000000000015500000000015500002000000010410403020837051646922184800302623071505060   1030000900030000   541119001227190110000000945City Mart TM C 12      YANGONONE     MMR11003020837051646920302000000000000000   10300001F00104100000000000930000000000000     
100   62443100395250310000000000000980000000000980002000000010410403021344561456916283740302000006737394   1020000200030000   333400010001204104000000281Myanmar Soft-Gate Tech Yangon        MMR11003021344561456910302000000000000000   10300001F05104100000000000206000000000000     
100   95050319470122050000000000018700000000018700002000000010410403020617311604401965690302521471231060   1030000900030000   541119001189190110000000942City Mart HDC C 4      YANGONUT      MMR11003020617311604400302000000000000000   10300001F00104100000000004675000000000000     
100   62911028202616250000000002000000000002000000002000000010410403020809451638442184800302984391445060   1030000900030000   594419000706190110000000537Zwe Htet Gems & Jewell YANGONAW      MMR11003020809451638440302000000000000000   10300001F00104100000000120000000000000000     
100   62911028202030150000000000008200000000008200002000000010410403020701101296132184800302206114129613   1040001600030000   541120000556000000010000465Ocean Shwe Gone Daing  Yangon        MMR11003020701101296130302000000000000000   10300001F00104100000000000492000000000000     
100   95030333100021460000000000005850000000005850002000000010410403020229351542742184800302369590835060   1030000900030000   591219000694190110000000525Shwe Ohh Pharmacy ST-2 YANGONAW      MMR11003020229351542740302000000000000000   10300001F00104100000000000351000000000000     
100   62911028202234680000000000003950000000003950002000000010410403020504181582172184800302962341118060   1030000900030000   723019001054190110000000857Beauty Diary JC        YANGONN       MMR11003020504181582170302000000000000000   10300001F00104100000000000237000000000000     
100   62911028202132040000000000025500000000025500002000000010410403021046181415932184800302206117141593   1040001600030000   598320000838000000010000600Regency Petrol Station Ygn           MMR11003021046181415930302000000000000000   10300001F00104100000000000765000000000000     
100   95050312498129060000000000004900000000004900002000000010410403020743121312153143250302000006735648   1020000200030000   333400010001204104000000281Myanmar Soft-Gate Tech Yangon        MMR11003020743121312150302000000000000000   10300001F05104100000000001029000000000000     
100   62443100344229520000000000040042000000040042002000000010410403020604011600018078840302211341201060   1030000900030000   541119001281190110000000963City Mart SPL C6       YANGONMYOTHIT MMR11003020604011600010302000000000000000   10300001F00104100000000010011000000000000     
100   95030301100129520000000000073850000000073850002000000010410403021130571454492184800302206118145449   1040001600030000   591220000300000000010000288Shwe Ohh Pharmacy (Daw Yangon        MMR11003021130571454490302000000000000000   10300001F00104100000000004431000000000000     
100   62911028202482750000000000012500000000012500002000000010410403020723361624352184800302948531336060   1030000900030000   541119000113190110000000077Sein Gay Har Chinatown YANGON        MMR11003020723361624350302000000000000000   10300001F00104100000000000750000000000000     
100   62911028202616250000000001000000000001000000002000000010410403020811101638942184800302024411410060   1030000900030000   594419000706190110000000537Zwe Htet Gems & Jewell YANGONAW      MMR11003020811101638940302000000000000000   10300001F00104100000000060000000000000000     
100   95030301100124400000000000009900000000009900002000000010410403020348021558432184800302239181002060   1030000900030000   541119001272190110000000960City Mart PLST Season  YANGONMYOTHIT MMR11003020348021558430302000000000000000   10300001F00104100000000000594000000000000     
100   95030301100315070000000000048000000000048000002000000010410403020740381312472184800302206114131247   1040001600030000   591220000302000000010000290Shwe Ohh Pharmacy (Nor Yangon        MMR11003020740381312470302000000000000000   10300001F00104100000000002880000000000000     
100   62911028202169750000000000286860000000286860002000000010410403020704471297562184800302206114129756   1040001600030000   541120000563000000010000465Ocean Shwe Gone Daing  Yangon        MMR11003020704471297560302000000000000000   10300001F00104100000000017212000000000000     
100   95030307100064460000000000058000000000058000002000000010410403020223391541852184800302330530839060   1030000900030000   554119000345190110000000212New Day Energy PZD     YANGONAUNG    MMR11003020223391541850302000000000000000   10300001F00104100000000001740000000000000     
100   95050328074436620000000000040000000000040000002000000010410403010059590200347092760301206007020034   1030000500030000   598320001201000015172200012MAX ENERGY             PTN           MMR11003010059590200340301000000000000000   10300001 00104100000000004800000000000000     
100   62911028202004330000000000008200000000008200002000000010410403020245441545412184800302500150944060   1030000900030000   581219001105190110000000890Shwepalin City Mall Ta YANGONAW      MMR11003020245441545410302000000000000000   10300001F00104100000000000836000000000000     
100   95050314829126520000000000050000000000050000002000000010410403020455112511856216940302000006734613   1030000200030000   333800010001203104000003327KBZPay                 Yangon        MMR11003020455112511850302000000000000000   10300001F05104100000000010500000000000000     
100   95050326750398570000000000011600000000011600002000000010410403020727462600076291810302801571346060   1030000500030000   555610104024104519000003821City Mart North Point  enter         MMR11003020727462600070302000000000000000   10300001 00104100000000002900000000000000     
100   95030302100015820000000000018500000000018500002000000010410403020731281308732184800302206114130873   1040001600030000   569920000593000000010000468BOSSINI (Junction City Yangon        MMR11003020731281308730302000000000000000   10300001F00104100000000001110000000000000     
100   95050315440420430000000000025800000000025800002000000010410403021100161695487164640302269301716060   1030000900030000   541119001266190110000000958City Mart PLST C9      YANGONMYOTHIT MMR11003021100161695480302000000000000000   10300001F00104100000000006450000000000000     
100   95050312867570630000000000004100000000004100002000000010410403021359450058949596780302000743579202   1030000200030000   541188001071000008000000314KBZ BANK               MARKETPLACE - MMR11003021359450058940302000000000000000   10300001 00104100000000001025000000000000     
100   62443100344229520000000000004500000000004500002000000010410403020609451601956596540302342391245060   1030000900030000   541119001289190110000000964City Mart SPL Season C YANGONMYOTHIT MMR11003020609451601950302000000000000000   10300001F00104100000000001125000000000000     
100   95050328303533000000000000052600000000052600002000000010410403020724381306084979720302206114130608   1040001600030000   591220000298000000010000286Shwe Ohh Pharmacy (Shw Yangon        MMR11003020724381306080302000000000000000   10300001F00104100000000012624000000000000     
100   62911028202030150000000000006750000000006750002000000010410403020836491338532184800302206115133853   1040001600030000   541120000584000000010000465Ocean Shwe Gone Daing  Yangon        MMR11003020836491338530302000000000000000   10300001F00104100000000000405000000000000     
100   62443100344229520000000000015900000000015900002000000010410403020607321601276511450302301371232060   1030000900030000   541119001290190110000000965City Mart SPL City Car YANGONMYOTHIT MMR11003020607321601270302000000000000000   10300001F00104100000000003975000000000000     
100   95050328212196190000000000098350000000098350002000000010410403020739221628968100700302275091422060   1030000900030000   541119001279190110000000963City Mart SPL C 4      YANGONMYOTHIT MMR11003020739221628960302000000000000000   10300001F00104100000000024588000000000000     
100   95050316818236190000000000000980000000000980002000000010410403021248011801567425640302000006737148   1020000200030000   333400010001204104000000281Myanmar Soft-Gate Tech Yangon        MMR11003021248011801560302000000000000000   10300001F05104100000000000206000000000000     
100   95030301100183220000000000100000000000100000002000000010410403020547001700892184800302000006734994   1030000500030000   333800010001201104000003863AYA Pay                Yangon        MMR11003020547001700890302000000000000000   10300001F05104100000000021000000000000000     
100   95050314774151170000000000056950000000056950002000000010410403020457232571141930030302769261143060   1030000300030000   555610103659104519000003559Capital Hypermarket Da bon           MMR11003020457232571140302000000000000000   10300001 00104100000000014238000000000000     
100   62911028202234680000000000006450000000006450002000000010410403011058560006782184800301206017000678   1030000500030000   591220012301014405912200123SHWE OHH PHARMACY      PTN           MMR11003011058560006780301000000000000000   10300001 00104100000000000387000000000000     
100   62911028202499190000000000017000000000017000002000000010410403020504462572602184800302960341105060   1030000300030000   888810125940104519000021285Shwe Taung Energy CoLt               MMR11003020504462572600302000000000000000   10300001 00104100000000000510000000000000     
100   95050316717221100000000000012630000000012630002000000010410403020610061602034944060302347401206060   1030000900030000   541119000115190110000000078Sein Gay Har Kan Thar  YANGONOKKALAP MMR11003020610061602030302000000000000000   10300001F00104100000000003158000000000000     
100   95050314557307430000000000002940000000002940002000000010410403020432360236886131840302000006734496   1020000200030000   333400010001204104000000281Myanmar Soft-Gate Tech Yangon        MMR11003020432360236880302000000000000000   10300001F05104100000000000617000000000000     
100   95030301100124400000000000003250000000003250002000000010410403020353511559932184800302331231051060   1030000900030000   541119001266190110000000958City Mart PLST C9      YANGONMYOTHIT MMR11003020353511559930302000000000000000   10300001F00104100000000000195000000000000     
100   62911028202077190000000000001960000000001960002000000010410403021330260026542184800302000006737347   1020000200030000   333400010001204104000000281Myanmar Soft-Gate Tech Yangon        MMR11003021330260026540302000000000000000   10300001F05104100000000000412000000000000     
100   62911028202659640000000000020300000000020300002000000010410403020555522583002184800302430291210060   1030000500030000   555610112249104519000010487Ocean Super Center St  ohn           MMR11003020555522583000302000000000000000   10300001 00104100000000001218000000000000     
100   95050312498129060000000000009800000000009800002000000010410403020846121612405816890302000006735971   1020000200030000   333400010001204104000000281Myanmar Soft-Gate Tech Yangon        MMR11003020846121612400302000000000000000   10300001F05104100000000002058000000000000     
100   95050310305100650000000000055000000000055000002000000010410403020248041804219727750302000006733873   1030000200030000   3338000100012031040000040022C2P (Myanmar) Co. Ltd Yangon        MMR11003020248041804210302000000000000000   10300001F05104100000000011550000000000000     
100   62911028202133520000000000013666000000013666002000000010410403021155391712472184800302489251839060   1030000900030000   541119001191190110000000942City Mart HDC C 6      YANGONUT      MMR11003021155391712470302000000000000000   10300001F00104100000000000820000000000000     
100   95050319156011610000000000010000000000010000002000000010410403020351002557972195550302994301003060   1030000500030000   888810111244104519000009671Max Energy CoLtd 10                  MMR11003020351002557970302000000000000000   10300001 00104100000000001200000000000000     
100   95050314950595330000000000005000000000005000002000000010410403021254352435642468190302000006737177   1030000200030000   3338000100012031040000040022C2P (Myanmar) Co. Ltd Yangon        MMR11003021254352435640302000000000000000   10300001F05104100000000001050000000000000     
100   62911028202659640000000000032590000000032590002000000010410403020626262589802184800302347051309060   1030000500030000   555610112238104519000010487Ocean Super Center St  ohn           MMR11003020626262589800302000000000000000   10300001 00104100000000001955000000000000     
100   62911028202752030000000000079650000000079650002000000010410403021048211691512184800302971181721060   1030000900030000   541119001327190110000000971Ocean Junction NPT C 5 NAYPYITAW     MMR11003021048211691510302000000000000000   10300001F00104100000000004779000000000000     
100   62443100333488440000000000084700000000084700002000000010410403020422432565478294900302942571053060   1030000500030000   555610118958104519000016137City Mart South Okkala WZYD BR       MMR11003020422432565470302000000000000000   10300001 00104100000000021175000000000000     
100   95050316769671810000000000001960000000001960002000000010410403020449061906434649550302000006734586   1020000200030000   333400010001204104000000281Myanmar Soft-Gate Tech Yangon        MMR11003020449061906430302000000000000000   10300001F05104100000000000412000000000000     
100   95030311452592120000000000009400000000009400002000000010410403020321022552522184800302335490937060   1030000300030000   444410116806104519000014353BreadTalk JunctionCity               MMR11003020321022552520302000000000000000   10300001 00104100000000000959000000000000     
100   95030301100124400000000000009200000000009200002000000010410403020321302554762184800302594061033060   1030000300030000   444410123548104519000019766YKKO NPST                            MMR11003020321302554760302000000000000000   10300001 00104100000000000938000000000000     
100   62911028202803930000000000020000000000020000002000000010410403021448081808862184800302000006737677   1030000200030000   333800010001203104000003327KBZPay                 Yangon        MMR11003021448081808860302000000000000000   10300001F05104100000000004200000000000000     
100   95050310283518110000000000005250000000005250002000000010410403021108330004004394260302000743571112   1030000200030000   541188001449000008000000401KBZ BANK               OCEAN SUPERCE MMR11003021108330004000302000000000000000   10300001 00104100000000001313000000000000     
100   95050324947866880000000000010000000000010000002000000010410403020445080006734309170302000743571474   1030000200030000   799381230912000008000001001KBZ BANK               ALIBABA AMUSE MMR11003020445080006730302000000000000000   10300001 00104100000000002400000000000000     
100   95050324947866880000000000010000000000010000002000000010410403020452180006741174390302000743571840   1030000200030000   799381230912000008000001001KBZ BANK               ALIBABA AMUSE MMR11003020452180006740302000000000000000   10300001 00104100000000002400000000000000     
100   95050316385053500000000000084000000000084000002000000010410403020733280000584965920302000743579366   1030000200030000   599988000598000008000003433KBZ BANK               SWEETY HOME ( MMR11003020733280000580302000000000000000   10300001 00104100000000020160000000000000     
100   62911028202204560000000000031000000000031000002000000010410403020450590008482184800302000743571777   1030000200030000   806288000621000008000003871KBZ BANK               PUN HLAING CL MMR11003020450590008480302000000000000000   10300001 00104100000000001860000000000000     
100   95050313113158460000000000000980000000000980002000000010410403020151472147922642890302000006733630   1020000200030000   333400010001204104000000281Myanmar Soft-Gate Tech Yangon        MMR11003020151472147920302000000000000000   10300001F05104100000000000206000000000000     
100   62443100395250310000000000000980000000000980002000000010410403021355242524954631250302000006737445   1020000200030000   333400010001204104000000281Myanmar Soft-Gate Tech Yangon        MMR11003021355242524950302000000000000000   10300001F05104100000000000206000000000000     
100   62443100379116470000000000012500000000012500002000000010410403021248381838969163220302000006737152   1030000200030000   333800010001203104000003327KBZPay                 Yangon        MMR11003021248381838960302000000000000000   10300001F05104100000000002625000000000000     
100   62443100333488440000000000084900000000084900002000000010410403020327362553530713260302450570912060   1030000300030000   555510124697104519000020166Makro Myanmar                        MMR11003020327362553530302000000000000000   10300001 00104100000000020376000000000000     
100   95030360160133170000000000028900000000028900002000000010410403021010431675472184800302775401643060   1030000900030000   541119000142190110000000083SeinGayHarParami Cente YANGON        MMR11003021010431675470302000000000000000   10300001F00104100000000001734000000000000     
100   62911028202467900000000000133500000000133500002000000010410403020647452592632184800302719191337060   1030000300030000   555510120538104519000017437Art and T8                           MMR11003020647452592630302000000000000000   10300001 00104100000000008010000000000000     
100   62911028202138320000000000004900000000004900002000000010410403020547381738252184800302000006734995   1020000200030000   333400010001204104000000281Myanmar Soft-Gate Tech Yangon        MMR11003020547381738250302000000000000000   10300001F05104100000000001029000000000000     
100   95050312498129060000000000001960000000001960002000000010410403021253292329897510740302000006737179   1020000200030000   333400010001204104000000281Myanmar Soft-Gate Tech Yangon        MMR11003021253292329890302000000000000000   10300001F05104100000000000412000000000000     
100   95050312855530910000000000060000000000060000002000000010410403020306000001249217180302000743566936   1030000200030000   594488000253000008000002280KBZ BANK               PWINT HTUN GO MMR11003020306000001240302000000000000000   10300001 00104100000000014400000000000000     
100   95030310098554020000000000031250000000031250002000000010410403010621220011742184800301206012001174   1030000500030000   531120155802000045311201558GAMONE PWINT           PTN           MMR11003010621220011740301000000000000000   10300001 00104100000000001875000000000000     
100   62443101061229100000000000009100000000009100002000000010410403010255420005628998750301206009000562   1030000500030000   581220045401000015812200454FEEL MYANMAR II RESTAU PTN           MMR11003010255420005620301000000000000000   10300001 00104100000000003868000000000000     
100   62443100313529540000000000007150000000007150002000000010410403011138150003533749140301206018000353   1030000500030000   531120155905000045311201559GAMONE PWINT           PTN           MMR11003011138150003530301000000000000000   10300001 00104100000000001716000000000000     
100   62911028202498440000000000070000000000070000002000000010410403011135330064442184800301206018006444   1030000500030000   598320001404000015172200014MAX ENERGY             PTN           MMR11003011135330064440301000000000000000   10300001 00104100000000002100000000000000     
100   95050313843656520000000000018500000000018500002000000010410403010640260017557826900301000332916251   1030000300030000   591200000169000000000000084CB BANK                MEDICARE STOR MMR11003010640260017550301000000000000000   10300001F00104100000000004440000000000000     
100   95030308100042590000000000054000000000054000002000000010410403010651440047882184800301206013004788   1030000500030000   598320001702000015172200017MAX ENERGY             PTN           MMR11003010651440047880301000000000000000   10300001 00104100000000001620000000000000     
100   95050323049250880000000000018000000000018000002000000010410403010509320054895295880301206011005489   1030000500030000   569120104001008205691201040ESCORT ( CITY MALL-ST. PTN           MMR11003010509320054890301000000000000000   10300001 00104100000000004320000000000000     
100   95050312867570630000000000003500000000003500002000000010410403020704492595362476270302113331318060   1030000300030000   444410125409104519000021236KFC JC                               MMR11003020704492595360302000000000000000   10300001 00104100000000001488000000000000     
100   62911028202004330000000000029650000000029650002000000010410403020240562548782184800302887130946060   1030000500030000   555610112233104519000010487Ocean Super Center St  ohn           MMR11003020240562548780302000000000000000   10300001 00104100000000001779000000000000     
100   95050318601641810000000000000980000000000980002000000010410403020650552055797774100302000006735378   1020000200030000   333400010001204104000000281Myanmar Soft-Gate Tech Yangon        MMR11003020650552055790302000000000000000   10300001F05104100000000000206000000000000     
100   95050324104751500000000000107250000000107250002000000010410403020348072557045330320302871231057060   1030000500030000   555610110601104519000009166City Mart 47 Branch                  MMR11003020348072557040302000000000000000   10300001 00104100000000026813000000000000     
100   95050327285327260000000000061042000000061042002000000010410403020618402586480228110302896471210060   1030000300030000   555610103621104519000003559Capital Hypermarket Da bon           MMR11003020618402586480302000000000000000   10300001 00104100000000015261000000000000     
100   95050325784857510000000000003400000000003400002000000010410403020126062544340990410302354590741060   1030000500030000   555610120986104519000017749City Express MCS 68                  MMR11003020126062544340302000000000000000   10300001 00104100000000000850000000000000     
100   62443100318296470000000000070600000000070600002000000010410403020739392602256788600302156081404060   1030000300030000   888810125458104519000021285Shwe Taung Energy CoLt               MMR11003020739392602250302000000000000000   10300001 00104100000000008472000000000000     
100   95050323067379780000000000300000000000300000002000000010410403020411154115471599870302000006734333   1030000200030000   333800010001203104000003327KBZPay                 Yangon        MMR11003020411154115470302000000000000000   10300001F05104100000000063000000000000000     
100   95050316377032610000000000083000000000083000002000000010410403010522060007351656240301206011000735   1030000500030000   481220022101000024812200221ANYCALL MOBILE         PTN           MMR11003010522060007350301000000000000000   10300001 00104100000000019920000000000000     
100   62911028202595380000000000073000000000073000002000000010410403010618240066872184800301206012006687   1030000500030000   598320041903000055983200419MAX ENERGY             PTN           MMR11003010618240066870301000000000000000   10300001 00104100000000002190000000000000     
100   95050311048637960000000000015750000000015750002000000010410403011025060006913152320301000332950188   1030000300030000   541100000447000000000000319CB BANK                ONESTOP KITCH MMR11003011025060006910301000000000000000   10300001F00104100000000003938000000000000     
100   62911028202162640000000000037350000000037350002000000010410403011109510044042184800301206017004404   1030000500030000   541120020901022205411200209ORANGE (HLAING)        PTN           MMR11003011109510044040301000000000000000   10300001 00104100000000002241000000000000     
100   95050320205194540000000000059650000000059650002000000010410403010940250006159045830301206016000615   1030000500030000   591220014201014405912200142SHWE OHH PHARMACY      PTN           MMR11003010940250006150301000000000000000   10300001 00104100000000014316000000000000     
100   62443100372718280000000000030250000000030250002000000010410403011331230008267940730301206020000826   1030000500030000   581220146401013205812201464THAI 47 (HELPIN BRANCH PTN           MMR11003011331230008260301000000000000000   10300001 00104100000000012857000000000000     
100   62911028202524260000000000042000000000042000002000000010410403011040180029962184800301206017002996   1030000500030000   598320002104000015172200021MAX ENERGY             PTN           MMR11003011040180029960301000000000000000   10300001 00104100000000001260000000000000     
100   95030308100042590000000000083000000000083000002000000010410403010655400047892184800301206013004789   1030000500030000   598320001702000015172200017MAX ENERGY             PTN           MMR11003010655400047890301000000000000000   10300001 00104100000000002490000000000000     
100   95050316997303010000000000002940000000002940002000000010410403020713104310356632200302000006735481   1020000200030000   333400010001204104000000281Myanmar Soft-Gate Tech Yangon        MMR11003020713104310350302000000000000000   10300001F05104100000000000617000000000000     
100   95050318617855880000000000002940000000002940002000000010410403020718154815651674740302000006735516   1020000200030000   333400010001204104000000281Myanmar Soft-Gate Tech Yangon        MMR11003020718154815650302000000000000000   10300001F05104100000000000617000000000000     
100   95030302100015820000000000031864000000031864002000000010410403021011132633932184800302679391654060   1030000500030000   555610112242104519000010487Ocean Super Center St  ohn           MMR11003021011132633930302000000000000000   10300001 00104100000000001912000000000000     
100   95050317919176400000000000001700000000001700002000000010410403021040372641232462470302819111733060   1030000500030000   555610120940104519000017714City Mart Yuzana Dagon Seikkan       MMR11003021040372641230302000000000000000   10300001 00104100000000000425000000000000     
100   95050312005798410000000000004900000000004900002000000010410403021514274427383489350302000006737805   1020000200030000   333400010001204104000000281Myanmar Soft-Gate Tech Yangon        MMR11003021514274427380302000000000000000   10300001F05104100000000001029000000000000     
100   95030391376131630000000000015000000000015000002000000010410403021221375137252184800302000006737020   1030000200030000   333800010001203104000003327KBZPay                 Yangon        MMR11003021221375137250302000000000000000   10300001F05104100000000003150000000000000     
100   95050314557307430000000000002940000000002940002000000010410403020659352935299511680302000006735421   1020000200030000   333400010001204104000000281Myanmar Soft-Gate Tech Yangon        MMR11003020659352935290302000000000000000   10300001F05104100000000000617000000000000     
100   95050323133124350000000000002940000000002940002000000010410403021258162816920815710302000006737198   1020000200030000   333400010001204104000000281Myanmar Soft-Gate Tech Yangon        MMR11003021258162816920302000000000000000   10300001F05104100000000000617000000000000     
100   95050314126593570000000000016400000000016400002000000010410403011151310000805742020301000332961576   1030000300030000   591200000312000000000000193CB BANK                MEDICARE STOR MMR11003011151310000800301000000000000000   10300001F00104100000000003936000000000000     
100   62911028202136750000000000057000000000057000002000000010410403010249090047712184800301206009004771   1030000500030000   598320001702000015172200017MAX ENERGY             PTN           MMR11003010249090047710301000000000000000   10300001 00104100000000001710000000000000     
100   95030310098554020000000000022000000000022000002000000010410403010606570007262184800301206012000726   1030000500030000   531120155804000045311201558GAMONE PWINT           PTN           MMR11003010606570007260301000000000000000   10300001 00104100000000001320000000000000     
100   62911028202443730000000000020000000000020000002000000010410403010843450168002184800301206015016800   1030000500030000   598320001901000015172200019MAX ENERGY             PTN           MMR11003010843450168000301000000000000000   10300001 00104100000000000600000000000000     
100   62911028202440680000000000059282000000059282002000000010410403011120000201762184800301206017020176   1030000500030000   598320001201000015172200012MAX ENERGY             PTN           MMR11003011120000201760301000000000000000   10300001 00104100000000001779000000000000     
100   62911028202116610000000000030000000000030000002000000010410403010006180180872184800301206006018087   1030000500030000   598320001602000015172200016MAX ENERGY             PTN           MMR11003010006180180870301000000000000000   10300001 00104100000000000900000000000000     
100   62911028202143500000000000025773000000025773002000000010410403010011540153592184800301206006015359   1030000500030000   598320002101000015172200021MAX ENERGY             PTN           MMR11003010011540153590301000000000000000   10300001 00104100000000000773000000000000     
100   62443101006037900000000000051000000000051000002000000010410403010707490167618762960301206013016761   1030000500030000   598320001901000015172200019MAX ENERGY             PTN           MMR11003010707490167610301000000000000000   10300001 00104100000000006120000000000000     
100   62911028202581590000000000000980000000000980002000000010410403020110014001092184800302000006733507   1020000200030000   333400010001204104000000281Myanmar Soft-Gate Tech Yangon        MMR11003020110014001090302000000000000000   10300001F05104100000000000206000000000000     
100   95050319156011610000000000000980000000000980002000000010410403021310484048667851130302000006737261   1020000200030000   333400010001204104000000281Myanmar Soft-Gate Tech Yangon        MMR11003021310484048660302000000000000000   10300001F05104100000000000206000000000000     
100   95030301100122910000000000049250000000049250002000000010410403021113172647602184800302781411752060   1030000500030000   555610110572104519000009164City Mart China Town P int Cen       MMR11003021113172647600302000000000000000   10300001 00104100000000002955000000000000     
100   95050310213446310000000000009800000000009800002000000010410403020614304430419901510302000006735137   1020000200030000   333400010001204104000000281Myanmar Soft-Gate Tech Yangon        MMR11003020614304430410302000000000000000   10300001F05104100000000002058000000000000     
100   95050326426352250000000000050000000000050000002000000010410403020701253125602816650302000006735427   1030000200030000   333800010001203104000003327KBZPay                 Yangon        MMR11003020701253125600302000000000000000   10300001F05104100000000010500000000000000     
100   95030353051876670000000000022000000000022000002000000010410403021210094009972184800302000006736957   1030000200030000   333800010001203104000003327KBZPay                 Yangon        MMR11003021210094009970302000000000000000   10300001F05104100000000004620000000000000     
100   95050323067379780000000000300000000000300000002000000010410403020423115311114819750302000006734410   1030000200030000   333800010001203104000003327KBZPay                 Yangon        MMR11003020423115311110302000000000000000   10300001F05104100000000063000000000000000     
100   95050318214455130000000000002940000000002940002000000010410403020022015201888025830302000006733431   1020000200030000   333400010001204104000000281Myanmar Soft-Gate Tech Yangon        MMR11003020022015201880302000000000000000   10300001F05104100000000000617000000000000     
