100   62911028202114550000000000006000000000006000002000000010410403031449271927752184800303000006744509   1030000200030000   333800010001203104000003327KBZPay                 Yangon        MMR11003031449271927750303000000000000000   10300001F05104100000000001260000000000000     
100   62911028202489110000000000211550000000211550002000000010410403030346241813182184800303824161024061   1030000900030000   541119001231190110000000951Marketplace KTY C 1    YANGONARTAUNG MMR11003030346241813180303000000000000000   10300001F00104100000000012693000000000000     
100   62911028202418410000000000006300000000006300002000000010410403030400201816542184800303004301020061   1030000900030000   541119001202190110000000944City Mart HDC City Car YANGONUT      MMR11003030400201816540303000000000000000   10300001F00104100000000000378000000000000     
100   62911028202366010000000000112000000000112000002000000010410403030901371992172184800303206216199217   1040001600030000   598320000326000000010000314PT Power Petrol Statio Nay Pyi Taw   MMR11003030901371992170303000000000000000   10300001F00104100000000003360000000000000     
100   62443100346413950000000000028600000000028600002000000010410403030900143014393738710303000006742408   1030000200030000   3333000100012031040000040282C2P (Myanmar) Co. Ltd Yangon        MMR11003030900143014390303000000000000000   10300001F05104100000000010000000000000000     
100   95050316717221100000000000100800000000100800002000000010410403030502413241299907220303000006740318   1030000900030000   333800010001202104000003301uab bank               Yangon        MMR11003030502413241290303000000000000000   10300001F05104100000000021168000000000000     
100   62911028202118690000000000017500000000017500002000000010410403020545150006552184800302206112000655   1030000500030000   569120038601016505691200386ORANGE KIDZ            PTN           MMR11003020545150006550302000000000000000   10300001 00104100000000001050000000000000     
100   62911028202530850000000000009038000000009038002000000010410403020844010003742184800302206115000374   1030000500030000   531120155716000045311201557GAMONE PWINT           PTN           MMR11003020844010003740302000000000000000   10300001 00104100000000000542000000000000     
100   95050316873917690000000000000980000000000980002000000010410403030859272927882086230303000006742403   1030000200030000   3334000100012031040000040102C2P (Myanmar) Co. Ltd Yangon        MMR11003030859272927880303000000000000000   10300001F05104100000000000206000000000000     
100   95050325630928770000000000000980000000000980002000000010410403030500473047710247610303000006740314   1020000200030000   333400010001204104000000281Myanmar Soft-Gate Tech Yangon        MMR11003030500473047710303000000000000000   10300001F05104100000000000206000000000000     
100   95050314931885730000000000001960000000001960002000000010410403031100493049977823340303000006743328   1020000200030000   333400010001204104000000281Myanmar Soft-Gate Tech Yangon        MMR11003031100493049970303000000000000000   10300001F05104100000000000412000000000000     
100   62911028202592560000000000020000000000020000002000000010410403030541582722222184800303221371244061   1030000500030000   888810121685104519000009666Max Energy CoLtd 5                   MMR11003030541582722220303000000000000000   10300001 00104100000000000600000000000000     
100   95050327185992630000000000098500000000098500002000000010410403031202082782768624850303544431842061   1030000300030000   555510120539104519000017438Art and T8                           MMR11003031202082782760303000000000000000   10300001 00104100000000023640000000000000     
100   62443100346413950000000000028600000000028600002000000010410403030903383338444795520303000006742434   1030000200030000   3333000100012031040000040282C2P (Myanmar) Co. Ltd Yangon        MMR11003030903383338440303000000000000000   10300001F05104100000000010000000000000000     
100   95050326590859670000000000018500000000018500002000000010410403030727102734822206980303881561308061   1030000300030000   555510114367104519000012359MGOU IV                              MMR11003030727102734820303000000000000000   10300001 00104100000000004440000000000000     
100   62443100364681690000000000020450000000020450002000000010410403030940242756052305860303892091605061   1030000500030000   555610112231104519000010487Ocean Super Center St  ohn           MMR11003030940242756050303000000000000000   10300001 00104100000000005113000000000000     
100   95030305100040620000000000046710000000046710002000000010410403020801060005392184800302206114000539   1030000500030000   569120089901000035691200899NICHII                 PTN           MMR11003020801060005390302000000000000000   10300001 00104100000000002803000000000000     
100   95050322083768590000000000011835000000011835002000000010410403021122150003202292280302000333121496   1030000300030000   591200000289000000000000170CB BANK                MEDICARE STOR MMR11003021122150003200302000000000000000   10300001F00104100000000002840000000000000     
100   62911028202752030000000000110000000000110000002000000010410403021121380003032184800302206117000303   1030000500030000   569120159601019505691201596MK FASHION SHOP        PTN           MMR11003021121380003030302000000000000000   10300001 00104100000000006600000000000000     
100   62911028202524260000000000037750000000037750002000000010410403020836120003762184800302206115000376   1030000500030000   591220010901014405912200109SHWE OHH PHARMACY      PTN           MMR11003020836120003760302000000000000000   10300001 00104100000000002265000000000000     
100   95050316385053500000000000216000000000216000002000000010410403020705130000612561360302206113000061   1030000500030000   571220130801002005712201308PERFECT PWINT OO       PTN           MMR11003020705130000610302000000000000000   10300001 00104100000000051840000000000000     
100   95050322104201170000000000024000000000024000002000000010410403020420020002868124710302206110000286   1030000500030000   566120038401016505661200384RIPPLE FLIPFLOPS       PTN           MMR11003020420020002860302000000000000000   10300001 00104100000000005760000000000000     
100   95050324444444460000000000035000000000035000002000000010410403020808370007340519050302206114000734   1030000500030000   581220044201022605812200442HOT POT CITY (AHLONE)  PTN           MMR11003020808370007340302000000000000000   10300001 00104100000000014875000000000000     
100   62911028202467900000000000030000000000030000002000000010410403010427300012712184800301206004001271   1030000600030000   597700001920315799420001290NATURE REPUBLIC JTM    LANMADAW TWP. MMR11003010427300012710301000000000000000   10300001 00104100000000001800000000000000     
100   62443101037081820000000000055300000000055300002000000010410403030439062709518169650303567161145061   1030000300030000   555510120538104519000017437Art and T8                           MMR11003030439062709510303000000000000000   10300001 00104100000000013272000000000000     
100   62911028202442410000000000001500000000001500002000000010410403030606052722252184800303224371249061   1030000300030000   444410125416104519000021243KFC Kyee Myin Daing                  MMR11003030606052722250303000000000000000   10300001 00104100000000000153000000000000     
100   95030320108927800000000000220000000000220000002000000010410403030724272738222184800303373191409061   1030000300030000   555510117028104519000014526Ooredoo Kiosk RPAN                   MMR11003030724272738220303000000000000000   10300001 00104100000000013200000000000000     
100   62911028202170490000000000021050000000021050002000000010410403030806532740772184800303713351411061   1030000500030000   555610112234104519000010487Ocean Super Center St  ohn           MMR11003030806532740770303000000000000000   10300001 00104100000000001263000000000000     
100   62911028202442410000000000004600000000004600002000000010410403030604092721902184800303182351249061   1030000300030000   444410125416104519000021243KFC Kyee Myin Daing                  MMR11003030604092721900303000000000000000   10300001 00104100000000000469000000000000     
100   95050319468370810000000000046200000000046200002000000010410403030700103010214455140303000006741399   1030000200030000   3333000100012031040000040282C2P (Myanmar) Co. Ltd Yangon        MMR11003030700103010210303000000000000000   10300001F05104100000000010000000000000000     
100   62911028202154720000000000070000000000070000002000000010410403030955372758742184800303260251623061   1030000300030000   888810125458104519000021285Shwe Taung Energy CoLt               MMR11003030955372758740303000000000000000   10300001 00104100000000002100000000000000     
100   62911028202234010000000000021900000000021900002000000010410403030538042717192184800303576081211061   1030000500030000   555610110572104519000009164City Mart China Town P int Cen       MMR11003030538042717190303000000000000000   10300001 00104100000000001314000000000000     
100   62443100393841160000000000028000000000028000002000000010410403010024500046329859540301206000004632   1030000600030000   554100001226315799420000679DENKO MAGWAY - 2       MAGWAY        MMR11003010024500046320301000000000000000   10300001 00104100000000003360000000000000     
100   95050321232876860000000000050000000000050000002000000010410403010553480145711606800301206005014571   1030000600030000   554100001212315799420000664DENKO TA TAR OO        TA TAR OO     MMR11003010553480145710301000000000000000   10300001 00104100000000006000000000000000     
100   95050316355723530000000000009550000000009550002000000010410403010935210022170187730301206009002217   1030000600030000   5499000022283157994200015671 STOP S M BOGYOKE RD  YANGON        MMR11003010935210022170301000000000000000   10300001 00104100000000004059000000000000     
100   62911028202686950000000000042000000000042000002000000010410402282306260685022184800301206023068502   1030000600030000   554100000946315799420000471DENKO BAHAN            YANGON        MMR11002282306260685020301000000000000000   10300001 00104100000000001260000000000000     
100   62911028202221220000000000010000000000010000002000000010410402282319020685042184800301206023068504   1030000600030000   554100000946315799420000471DENKO BAHAN            YANGON        MMR11002282319020685040301000000000000000   10300001 00104100000000000300000000000000     
100   95050321232876860000000000075000000000075000002000000010410403010941510314177393350301206009031417   1030000600030000   554100001865315799420001235DENKO NAY PYI TAW 2    NAYPYITAW     MMR11003010941510314170301000000000000000   10300001 00104100000000009000000000000000     
100   95050320531117320000000000347000000000347000002000000010410403010445150320631444680301206004032063   1030000600030000   554100001009315799420000504DENKO SOUTH DAGON      YANGON        MMR11003010445150320630301000000000000000   10300001 00104100000000041640000000000000     
100   95030385550669610000000000055000000000055000002000000010410403010418320610192184800301206004061019   1030000600030000   554100000957315799420000480DENKO N.DAGON - 3      YANGON        MMR11003010418320610190301000000000000000   10300001 00104100000000001650000000000000     
100   62911028202290100000000000025810000000025810002000000010410403030816532742392184800303951451431061   1030000300030000   444410125393104519000021220Myanmar Bakery CoLtd                 MMR11003030816532742390303000000000000000   10300001 00104100000000002633000000000000     
100   95050312498129060000000000004900000000004900002000000010410403031305273527205399270303000006743946   1020000200030000   333400010001204104000000281Myanmar Soft-Gate Tech Yangon        MMR11003031305273527200303000000000000000   10300001F05104100000000001029000000000000     
100   62443100371022130000000000033000000000033000002000000010410403030446022709266432070303529151100061   1030000300030000   888810125458104519000021285Shwe Taung Energy CoLt               MMR11003030446022709260303000000000000000   10300001 00104100000000003960000000000000     
100   95050312498129060000000000004900000000004900002000000010410403030057462746574886550303000006738426   1020000200030000   333400010001204104000000281Myanmar Soft-Gate Tech Yangon        MMR11003030057462746570303000000000000000   10300001F05104100000000001029000000000000     
100   62911028202166940000000000007900000000007900002000000010410403031046012768012184800303573151746061   1030000300030000   444410125394104519000021221Myanmar Bakery CoLtd                 MMR11003031046012768010303000000000000000   10300001 00104100000000000806000000000000     
100   62911028202440680000000000007150000000007150002000000010410403031213562783012184800303581461809061   1030000500030000   555610120970104519000017733City Express MCS 14                  MMR11003031213562783010303000000000000000   10300001 00104100000000000429000000000000     
100   62443100364681690000000000020250000000020250002000000010410403030653422730479412590303332271346061   1030000500030000   555610110599104519000009166City Mart 47 Branch                  MMR11003030653422730470303000000000000000   10300001 00104100000000005063000000000000     
100   62911028202449440000000000528000000000528000002000000010410403030836482745722184800303390061515061   1030000300030000   444410123324104519000019560Zealax Hotel FO                      MMR11003030836482745720303000000000000000   10300001 00104100000000053856000000000000     
100   62443100363668680000000000027576000000027576002000000010410403020850150012914164400302206115001291   1030000500030000   581220024101000015812200241SHWE LAR HOT POT       PTN           MMR11003020850150012910302000000000000000   10300001 00104100000000011720000000000000     
100   95050322104201170000000000024213000000024213002000000010410403020502230010947142770302206111001094   1030000500030000   531120155714000045311201557GAMONE PWINT           PTN           MMR11003020502230010940302000000000000000   10300001 00104100000000005811000000000000     
100   95050325925517520000000000078500000000078500002000000010410403020509410011325745580302206111001132   1030000500030000   569120051501000015691200515AMERICAN BRANDED COLLE PTN           MMR11003020509410011320302000000000000000   10300001 00104100000000018840000000000000     
100   95050324154190880000000000032997000000032997002000000010410403021306570031624461060302206119003162   1030000500030000   598320002104000015172200021MAX ENERGY             PTN           MMR11003021306570031620302000000000000000   10300001 00104100000000003960000000000000     
100   62443101037081820000000000135120000000135120002000000010410403020948520012911611510302206116001291   1030000500030000   569120096201019505691200962MK FASHION SHOP        PTN           MMR11003020948520012910302000000000000000   10300001 00104100000000032429000000000000     
100   95050315833864180000000000040000000000040000002000000010410403020326300124405755800302206109012440   1030000500030000   598320001401000015172200014MAX ENERGY             PTN           MMR11003020326300124400302000000000000000   10300001 00104100000000004800000000000000     
100   62911028202527800000000000040000000000040000002000000010410403020531250182562184800302206112018256   1030000500030000   598320001601000015172200016MAX ENERGY             PTN           MMR11003020531250182560302000000000000000   10300001 00104100000000001200000000000000     
100   62443100372702000000000000033000000000033000002000000010410403020903560203171540200302206115020317   1030000500030000   598320001201000015172200012MAX ENERGY             PTN           MMR11003020903560203170302000000000000000   10300001 00104100000000003960000000000000     
100   95050313113158460000000000000980000000000980002000000010410403030317324732672369310303000006739390   1020000200030000   333400010001204104000000281Myanmar Soft-Gate Tech Yangon        MMR11003030317324732670303000000000000000   10300001F05104100000000000206000000000000     
100   62443100330108240000000000005000000000005000002000000010410403030325555555404447270303000006739452   1030000200030000   333800010001203104000003327KBZPay                 Yangon        MMR11003030325555555400303000000000000000   10300001F05104100000000001050000000000000     
100   62911028202777610000000000078000000000078000002000000010410403010118040074242184800301206001007424   1030000600030000   554100002323315799420000474DENKO N.DAGON - 1      YANGON        MMR11003010118040074240301000000000000000   10300001 00104100000000002340000000000000     
100   95050324767581840000000000014700000000014700002000000010410403030303441804383780290303424330944061   1030000900030000   541119001464190110000000077Sein Gay Har Chinatown YANGON        MMR11003030303441804380303000000000000000   10300001F00104100000000003675000000000000     
100   95030321939721770000000000000980000000000980002000000010410403030719344934912184800303000006741588   1020000200030000   333400010001204104000000281Myanmar Soft-Gate Tech Yangon        MMR11003030719344934910303000000000000000   10300001F05104100000000000206000000000000     
100   95050317284600370000000000050000000000050000002000000010410403031123225322028880140303000006743451   1030000200030000   333800010001203104000003327KBZPay                 Yangon        MMR11003031123225322020303000000000000000   10300001F05104100000000010500000000000000     
100   62443100395250310000000000000980000000000980002000000010410403031558202820793576590303000006744811   1020000200030000   333400010001204104000000281Myanmar Soft-Gate Tech Yangon        MMR11003031558202820790303000000000000000   10300001F05104100000000000206000000000000     
100   95050314649264560000000000009800000000009800002000000010410403030907303730051660750303000006742473   1020000200030000   333400010001204104000000281Myanmar Soft-Gate Tech Yangon        MMR11003030907303730050303000000000000000   10300001F05104100000000002058000000000000     
100   95050320531117320000000000060534000000060534002000000010410403021051040129505937640302206117012950   1030000500030000   598320002702000015172200027MAX ENERGY             PTN           MMR11003021051040129500302000000000000000   10300001 00104100000000007264000000000000     
100   62911028202655010000000000018000000000018000002000000010410403021120260183582184800302206117018358   1030000500030000   598320001602000015172200016MAX ENERGY             PTN           MMR11003021120260183580302000000000000000   10300001 00104100000000000540000000000000     
100   62911028202787510000000000011900000000011900002000000010410403031517070025812184800303000743637254   1030000200030000   541188001077000008000000294KBZ BANK               CITY MART - J MMR11003031517070025810303000000000000000   10300001 00104100000000000714000000000000     
100   62443100315853220000000000277000000000277000002000000010410403031003340008812539500303000743612698   1030000200030000   541188001479000008000000399KBZ BANK               OCEAN SUPERCE MMR11003031003340008810303000000000000000   10300001 00104100000000069250000000000000     
100   95050314114509310000000000070000000000070000002000000010410403031603420019953788150303000743640396   1030000200030000   541188001481000008000000399KBZ BANK               OCEAN SUPERCE MMR11003031603420019950303000000000000000   10300001 00104100000000017500000000000000     
100   95050310283518110000000000036000000000036000002000000010410403031553040029507603700303000743639688   1030000200030000   541188001436000008000000401KBZ BANK               OCEAN SUPERCE MMR11003031553040029500303000000000000000   10300001 00104100000000009000000000000000     
100   95030373878201810000000000004500000000004500002000000010410403031606230019962184800303000743640584   1030000200030000   541188001481000008000000399KBZ BANK               OCEAN SUPERCE MMR11003031606230019960303000000000000000   10300001 00104100000000000270000000000000     
100   95050312498129060000000000000980000000000980002000000010410403031230240024705484370303000006743766   1020000200030000   333400010001204104000000281Myanmar Soft-Gate Tech Yangon        MMR11003031230240024700303000000000000000   10300001F05104100000000000206000000000000     
100   95050315743141220000000000000980000000000980002000000010410403031215484548730277340303000006743688   1020000200030000   333400010001204104000000281Myanmar Soft-Gate Tech Yangon        MMR11003031215484548730303000000000000000   10300001F05104100000000000206000000000000     
100   95050319096688200000000000035000000000035000002000000010410403030525395539097878700303000006740564   1030000200030000   333800010001203104000003327KBZPay                 Yangon        MMR11003030525395539090303000000000000000   10300001F05104100000000007350000000000000     
100   95050315099113150000000000000980000000000980002000000010410403031525575557566881560303000006744674   1020000200030000   333400010001204104000000281Myanmar Soft-Gate Tech Yangon        MMR11003031525575557560303000000000000000   10300001F05104100000000000206000000000000     
100   95050319096688200000000000300000000000300000002000000010410403030523465346297793610303000006740545   1030000200030000   333800010001203104000003327KBZPay                 Yangon        MMR11003030523465346290303000000000000000   10300001F05104100000000063000000000000000     
100   95050327416134790000000000022000000000022000002000000010410403030312364236497000160303000006739346   1030000200030000   3333000100012031040000040282C2P (Myanmar) Co. Ltd Yangon        MMR11003030312364236490303000000000000000   10300001F05104100000000010000000000000000     
100   95030394609966640000000000021000000000021000002000000010410403030835172745852184800303413071510061   1030000500030000   555610114574104519000012532City Mart Ahlone Branc               MMR11003030835172745850303000000000000000   10300001 00104100000000001260000000000000     
100   95050328074436620000000000009800000000009800002000000010410403030514154415907197930303000006740465   1020000200030000   333400010001204104000000281Myanmar Soft-Gate Tech Yangon        MMR11003030514154415900303000000000000000   10300001F05104100000000002058000000000000     
100   95050313843656520000000000000980000000000980002000000010410403030225145514934156330303000006738912   1020000200030000   333400010001204104000000281Myanmar Soft-Gate Tech Yangon        MMR11003030225145514930303000000000000000   10300001F05104100000000000206000000000000     
100   95030317922148660000000000166300000000166300002000000010410403030711410001812184800303000743630896   1030000200030000   594488000572000008000003806KBZ BANK               CASIO SHOW RO MMR11003030711410001810303000000000000000   10300001 00104100000000009978000000000000     
100   95050310607449490000000000043350000000043350002000000010410403031610050019970653380303000743640859   1030000200030000   541188001481000008000000399KBZ BANK               OCEAN SUPERCE MMR11003031610050019970303000000000000000   10300001 00104100000000010838000000000000     
100   95050310750557450000000000016200000000016200002000000010410403031428230047925001370303000743634188   1030000200030000   541188001316000008000000306KBZ BANK               CITY MART - S MMR11003031428230047920303000000000000000   10300001 00104100000000004050000000000000     
100   62911028202295310000000000005200000000005200002000000010410403031042490080512184800303000743615945   1030000200030000   541188001088000008000000294KBZ BANK               CITY MART - J MMR11003031042490080510303000000000000000   10300001 00104100000000000312000000000000     
100   95030301100351360000000000050000000000050000002000000010410403030830310031202184800303000006742173   1030000200030000   333800010001203104000003327KBZPay                 Yangon        MMR11003030830310031200303000000000000000   10300001F05104100000000010500000000000000     
100   95050325630928770000000000056550000000056550002000000010410403031330460008856107620303000743629967   1030000200030000   541188001479000008000000399KBZ BANK               OCEAN SUPERCE MMR11003031330460008850303000000000000000   10300001 00104100000000014138000000000000     
100   62911028202161240000000000014080000000014080002000000010410403030826530013462184800303000743636142   1030000200030000   581288000389000008000002776KBZ BANK               RANGOON TEA H MMR11003030826530013460303000000000000000   10300001 00104100000000001436000000000000     
100   62911028202169750000000000002800000000002800002000000010410403031131530080562184800303000743619853   1030000200030000   541188001088000008000000294KBZ BANK               CITY MART - J MMR11003031131530080560303000000000000000   10300001 00104100000000000168000000000000     
100   95050319220344710000000000002500000000002500002000000010410403031025195519228419010303000006743118   1030000900030000   333400010001202104000002022ACS                    Yangon        MMR11003031025195519220303000000000000000   10300001F05104100000000000525000000000000     
100   62911028202212490000000000047000000000047000002000000010410403021215300203802184800302206118020380   1030000500030000   598320001201000015172200012MAX ENERGY             PTN           MMR11003021215300203800302000000000000000   10300001 00104100000000001410000000000000     
100   95050315557781210000000000020000000000020000002000000010410403030817104710486242160303000006742044   1030000200030000   333800010001203104000003327KBZPay                 Yangon        MMR11003030817104710480303000000000000000   10300001F05104100000000004200000000000000     
100   95050316067768680000000000000980000000000980002000000010410403031416284628931583720303000006744323   1020000200030000   333400010001204104000000281Myanmar Soft-Gate Tech Yangon        MMR11003031416284628930303000000000000000   10300001F05104100000000000206000000000000     
100   62911028202908550000000000015000000000015000002000000010410403030616544654362184800303000006741000   1030000200030000   333800010001203104000003327KBZPay                 Yangon        MMR11003030616544654360303000000000000000   10300001F05104100000000003150000000000000     
100   95050311419479170000000000001960000000001960002000000010410403030322235223262199110303000006739422   1020000200030000   333400010001204104000000281Myanmar Soft-Gate Tech Yangon        MMR11003030322235223260303000000000000000   10300001F05104100000000000412000000000000     
100   62443100334378030000000000134700000000134700002000000010410403030718172733740639590303744481329061   1030000300030000   555510124697104519000020166Makro Myanmar                        MMR11003030718172733740303000000000000000   10300001 00104100000000032328000000000000     
100   95050314829126520000000000002940000000002940002000000010410403031248101810780441820303000006743850   1020000200030000   333400010001204104000000281Myanmar Soft-Gate Tech Yangon        MMR11003031248101810780303000000000000000   10300001F05104100000000000617000000000000     
100   95050318214455130000000000002940000000002940002000000010410403031530530053508534050303000006744707   1020000200030000   333400010001204104000000281Myanmar Soft-Gate Tech Yangon        MMR11003031530530053500303000000000000000   10300001F05104100000000000617000000000000     
100   62911028202161240000000000019871000000019871002000000010410403031014330048702184800303000743613448   1030000200030000   541188001023000008000000298KBZ BANK               CITY MART - M MMR11003031014330048700303000000000000000   10300001 00104100000000001192000000000000     
100   62911028202290100000000000044677000000044677002000000010410403031510390081902184800303000743636913   1030000200030000   541188001081000008000000294KBZ BANK               CITY MART - J MMR11003031510390081900303000000000000000   10300001 00104100000000002681000000000000     
100   62911028202290100000000000014200000000014200002000000010410403031531510005302184800303000743638399   1030000200030000   581288000938000008000000484KBZ BANK               PIZZA HUT (YA MMR11003031531510005300303000000000000000   10300001 00104100000000001448000000000000     
100   95030301100338180000000000100000000000100000002000000010410403030130170017532184800303000006738555   1030000200030000   333800010001203104000003327KBZPay                 Yangon        MMR11003030130170017530303000000000000000   10300001F05104100000000021000000000000000     
100   62443100315853220000000000159560000000159560002000000010410403031011450015069574920303000743613270   1030000200030000   541188001496000008000000399KBZ BANK               OCEAN SUPERCE MMR11003031011450015060303000000000000000   10300001 00104100000000039890000000000000     
100   62911028202154720000000000075400000000075400002000000010410403031708320039342184800303000743645012   1030000200030000   541188001002000008000000008KBZ BANK               MARKETPLACE - MMR11003031708320039340303000000000000000   10300001 00104100000000004524000000000000     
100   62911028202709150000000000006425000000006425002000000010410403031404270031392184800303000743632668   1030000200030000   541188001428000008000000401KBZ BANK               OCEAN SUPERCE MMR11003031404270031390303000000000000000   10300001 00104100000000000386000000000000     
100   95050314649264560000000000009800000000009800002000000010410403030908553855740008260303000006742490   1020000200030000   333400010001204104000000281Myanmar Soft-Gate Tech Yangon        MMR11003030908553855740303000000000000000   10300001F05104100000000002058000000000000     
100   62443100323117100000000000060000000000060000002000000010410403030805423542760299200303000006741942   1030000200030000   333800010001203104000003327KBZPay                 Yangon        MMR11003030805423542760303000000000000000   10300001F05104100000000012600000000000000     
100   95050328074436620000000000009800000000009800002000000010410403030509253925188935510303000006740398   1020000200030000   333400010001204104000000281Myanmar Soft-Gate Tech Yangon        MMR11003030509253925180303000000000000000   10300001F05104100000000002058000000000000     
100   95050314649264560000000000009800000000009800002000000010410403030910144014111419250303000006742505   1020000200030000   333400010001204104000000281Myanmar Soft-Gate Tech Yangon        MMR11003030910144014110303000000000000000   10300001F05104100000000002058000000000000     
100   95050325630928770000000000004900000000004900002000000010410403031107523752977312760303000006743371   1020000200030000   333400010001204104000000281Myanmar Soft-Gate Tech Yangon        MMR11003031107523752970303000000000000000   10300001F05104100000000001029000000000000     
100   95050316049877640000000000001960000000001960002000000010410403031423065306576626270303000006744352   1020000200030000   333400010001204104000000281Myanmar Soft-Gate Tech Yangon        MMR11003031423065306570303000000000000000   10300001F05104100000000000412000000000000     
100   95050311438762210000000000040000000000040000002000000010410403031205493549453667410303000006743633   1030000200030000   333800010001203104000003327KBZPay                 Yangon        MMR11003031205493549450303000000000000000   10300001F05104100000000008400000000000000     
100   62443100350052510000000000003300000000003300002000000010410403030305493549575432780303000006739292   1030000200030000   333300010001203104000003632Myanmar Tradenet Test  Yangon        MMR11003030305493549570303000000000000000   10300001F05104100000000010000000000000000     
100   95050311482249300000000000100000000000100000002000000010410403030937200720664043440303000006742708   1030000200030000   333800010001203104000003327KBZPay                 Yangon        MMR11003030937200720660303000000000000000   10300001F05104100000000021000000000000000     
100   95050313062063490000000000002940000000002940002000000010410403031337220722430612010303000006744113   1020000200030000   333400010001204104000000281Myanmar Soft-Gate Tech Yangon        MMR11003031337220722430303000000000000000   10300001F05104100000000000617000000000000     
100   95050312005798410000000000000980000000000980002000000010410403030444561456438084550303000006740129   1020000200030000   333400010001204104000000281Myanmar Soft-Gate Tech Yangon        MMR11003030444561456430303000000000000000   10300001F05104100000000000206000000000000     
100   62911028202610960000000000375750000000375750002000000010410403031315400247472184800303000743628656   1030000200030000   541188001004000008000000008KBZ BANK               MARKETPLACE - MMR11003031315400247470303000000000000000   10300001 00104100000000022545000000000000     
100   95050319220344710000000000000980000000000980002000000010410403031236280628400526920303000006743791   1020000200030000   333400010001204104000000281Myanmar Soft-Gate Tech Yangon        MMR11003031236280628400303000000000000000   10300001F05104100000000000206000000000000     
100   62911028202418410000000000018311000000018311002000000010410403030429581823492184800303366591058061   1030000900030000   541119001193190110000000942City Mart HDC C 8      YANGONUT      MMR11003030429581823490303000000000000000   10300001F00104100000000001099000000000000     
100   95050311959900780000000000000980000000000980002000000010410403030437260726364452990303000006740035   1020000200030000   333400010001204104000000281Myanmar Soft-Gate Tech Yangon        MMR11003030437260726360303000000000000000   10300001F05104100000000000206000000000000     
100   95030301100121840000000000200000000000200000002000000010410403030833380338482184800303000006742195   1030000200030000   333800010001203104000003327KBZPay                 Yangon        MMR11003030833380338480303000000000000000   10300001F05104100000000042000000000000000     
100   95050325630928770000000000004900000000004900002000000010410403031109503950725575170303000006743384   1020000200030000   333400010001204104000000281Myanmar Soft-Gate Tech Yangon        MMR11003031109503950720303000000000000000   10300001F05104100000000001029000000000000     
100   95050328074436620000000000004900000000004900002000000010410403030511454145740332710303000006740422   1020000200030000   333400010001204104000000281Myanmar Soft-Gate Tech Yangon        MMR11003030511454145740303000000000000000   10300001F05104100000000001029000000000000     
100   95050316818236190000000000001960000000001960002000000010410403030719164916322802650303000006741574   1020000200030000   333400010001204104000000281Myanmar Soft-Gate Tech Yangon        MMR11003030719164916320303000000000000000   10300001F05104100000000000412000000000000     
100   95030301100351360000000000010000000000010000002000000010410403030620355035942184800303000006741040   1030000200030000   333800010001203104000003327KBZPay                 Yangon        MMR11003030620355035940303000000000000000   10300001F05104100000000002100000000000000     
100   95050316818236190000000000000980000000000980002000000010410403030723585358183944550303000006741615   1020000200030000   333400010001204104000000281Myanmar Soft-Gate Tech Yangon        MMR11003030723585358180303000000000000000   10300001F05104100000000000206000000000000     
100   95050320531117320000000000352000000000352000002000000010410403010454520320663679040301206004032066   1030000600030000   554100001009315799420000504DENKO SOUTH DAGON      YANGON        MMR11003010454520320660301000000000000000   10300001 00104100000000042240000000000000     
100   95030301857170060000000000017500000000017500002000000010410403020435340055102184800302206111005510   1030000500030000   569120104001008205691201040ESCORT ( CITY MALL-ST. PTN           MMR11003020435340055100302000000000000000   10300001 00104100000000001050000000000000     
100   95050310213446310000000000002940000000002940002000000010410403031606123612465229080303000006744856   1020000200030000   333400010001204104000000281Myanmar Soft-Gate Tech Yangon        MMR11003031606123612460303000000000000000   10300001F05104100000000000617000000000000     
100   62911028202777790000000000003000000000003000002000000010410403031443361336032184800303000006744479   1030000200030000   333800010001203104000003327KBZPay                 Yangon        MMR11003031443361336030303000000000000000   10300001F05104100000000000630000000000000     
100   95050315557781210000000000170000000000170000002000000010410403030240001000996234290303000006739041   1030000200030000   333800010001203104000003327KBZPay                 Yangon        MMR11003030240001000990303000000000000000   10300001F05104100000000035700000000000000     
100   62911028202537390000000000050000000000050000002000000010410403030146151791722184800303915160815061   1030000900030000   554119000997190110000000803Puma Power SOKL        YANGONOKKALAP MMR11003030146151791720303000000000000000   10300001F00104100000000001500000000000000     
100   95050310746600650000000000045000000000045000002000000010410403030133110311757304890303000006738570   1030000200030000   333800010001203104000003327KBZPay                 Yangon        MMR11003030133110311750303000000000000000   10300001F05104100000000009450000000000000     
100   62911028202114550000000000014000000000014000002000000010410403031041141114732184800303000006743215   1030000200030000   333800010001203104000003327KBZPay                 Yangon        MMR11003031041141114730303000000000000000   10300001F05104100000000002940000000000000     
100   95030317922148660000000000014650000000014650002000000010410403031441490154302184800303000743635217   1030000200030000   541188001008000008000000008KBZ BANK               MARKETPLACE - MMR11003031441490154300303000000000000000   10300001 00104100000000000879000000000000     
100   95050317343045830000000000000980000000000980002000000010410403031041171117344943850303000006743212   1020000200030000   333400010001204104000000281Myanmar Soft-Gate Tech Yangon        MMR11003031041171117340303000000000000000   10300001F05104100000000000206000000000000     
100   95050318057347910000000000000980000000000980002000000010410403031248151815532094300303000006743846   1020000200030000   333400010001204104000000281Myanmar Soft-Gate Tech Yangon        MMR11003031248151815530303000000000000000   10300001F05104100000000000206000000000000     
100   95050310305109410000000000000980000000000980002000000010410403030411004100391524060303000006739840   1020000200030000   333400010001204104000000281Myanmar Soft-Gate Tech Yangon        MMR11003030411004100390303000000000000000   10300001F05104100000000000206000000000000     
100   95030343955682170000000000050000000000050000002000000010410403031311214121282184800303000006743965   1030000200030000   333800010001203104000003327KBZPay                 Yangon        MMR11003031311214121280303000000000000000   10300001F05104100000000010500000000000000     
100   95050318601641810000000000002940000000002940002000000010410403031413454345549931240303000006744306   1020000200030000   333400010001204104000000281Myanmar Soft-Gate Tech Yangon        MMR11003031413454345540303000000000000000   10300001F05104100000000000617000000000000     
100   95050312695033440000000000004900000000004900002000000010410403030214064406967376200303000006738830   1020000200030000   333400010001204104000000281Myanmar Soft-Gate Tech Yangon        MMR11003030214064406960303000000000000000   10300001F05104100000000001029000000000000     
100   95050319528093960000000000001960000000001960002000000010410403030419244924109616280303000006739915   1020000200030000   333400010001204104000000281Myanmar Soft-Gate Tech Yangon        MMR11003030419244924100303000000000000000   10300001F05104100000000000412000000000000     
100   95050313062063490000000000001960000000001960002000000010410403030509313931077283030303000006740403   1020000200030000   333400010001204104000000281Myanmar Soft-Gate Tech Yangon        MMR11003030509313931070303000000000000000   10300001F05104100000000000412000000000000     
100   95050311959900780000000000000980000000000980002000000010410403031510204020848619140303000006744610   1020000200030000   333400010001204104000000281Myanmar Soft-Gate Tech Yangon        MMR11003031510204020840303000000000000000   10300001F05104100000000000206000000000000     
100   62911028202905250000000000067000000000067000002000000010410403031010484048502184800303000006743013   1030000200030000   333800010001203104000003327KBZPay                 Yangon        MMR11003031010484048500303000000000000000   10300001F05104100000000014070000000000000     
100   95050316563230820000000000050000000000050000002000000010410403030348201820257192220303000006739660   1030000200030000   333800010001203104000003327KBZPay                 Yangon        MMR11003030348201820250303000000000000000   10300001F05104100000000010500000000000000     
100   62911028202233510000000000048916000000048916002000000010410403031401490146922184800303000743632480   1030000200030000   541188001082000008000000294KBZ BANK               CITY MART - J MMR11003031401490146920303000000000000000   10300001 00104100000000002935000000000000     
100   95030301100344690000000000053350000000053350002000000010410403031700030159152184800303000743644431   1030000200030000   541188001037000008000000010KBZ BANK               MARKETPLACE - MMR11003031700030159150303000000000000000   10300001 00104100000000003201000000000000     
100   62911028202169750000000000037979000000037979002000000010410403031208000167632184800303000743622960   1030000200030000   541188001079000008000000294KBZ BANK               CITY MART - J MMR11003031208000167630303000000000000000   10300001 00104100000000002279000000000000     
100   95050316896526710000000000082500000000082500002000000010410403030333500350640887010303000006739536   1030000200030000   333800010001203104000003327KBZPay                 Yangon        MMR11003030333500350640303000000000000000   10300001F05104100000000017325000000000000     
100   95050318131043910000000000009800000000009800002000000010410403030948341834455525730303000006742829   1020000200030000   333400010001204104000000281Myanmar Soft-Gate Tech Yangon        MMR11003030948341834450303000000000000000   10300001F05104100000000002058000000000000     
100   95050318646071770000000000000980000000000980002000000010410403030644311431580404010303000006741224   1020000200030000   333400010001204104000000281Myanmar Soft-Gate Tech Yangon        MMR11003030644311431580303000000000000000   10300001F05104100000000000206000000000000     
100   62443100376865460000000000006000000000006000002000000010410403030203521793853829730303973330852061   1030000900030000   581219000528190110000000376Shwepalin (Hantharwadd YANGONUT      MMR11003030203521793850303000000000000000   10300001F00104100000000002550000000000000     
100   95050328074436620000000000004900000000004900002000000010410403030516364636956056030303000006740486   1020000200030000   333400010001204104000000281Myanmar Soft-Gate Tech Yangon        MMR11003030516364636950303000000000000000   10300001F05104100000000001029000000000000     
100   95030317922148660000000000033000000000033000002000000010410403020823380007192184800302206114000719   1030000500030000   729820064401000017298200644HAIR REPUBLIC SALON    PTN           MMR11003020823380007190302000000000000000   10300001 00104100000000001980000000000000     
100   95050316124652250000000000004900000000004900002000000010410403031406573657740016330303000006744265   1020000200030000   333400010001204104000000281Myanmar Soft-Gate Tech Yangon        MMR11003031406573657740303000000000000000   10300001F05104100000000001029000000000000     
100   95050310816569570000000000050000000000050000002000000010410403030925315531489171090303000006742646   1030000200030000   333800010001203104000003327KBZPay                 Yangon        MMR11003030925315531480303000000000000000   10300001F05104100000000010500000000000000     
100   95050310427855490000000000002940000000002940002000000010410403030925115511387518610303000006742650   1020000200030000   333400010001204104000000281Myanmar Soft-Gate Tech Yangon        MMR11003030925115511380303000000000000000   10300001F05104100000000000617000000000000     
100   95050312280776950000000000030000000000030000002000000010410403030528525852349190800303000006740596   1030000200030000   333800010001203104000003327KBZPay                 Yangon        MMR11003030528525852340303000000000000000   10300001F05104100000000006300000000000000     
100   95050323722449090000000000004900000000004900002000000010410403031228155815043582310303000006743751   1020000200030000   333400010001204104000000281Myanmar Soft-Gate Tech Yangon        MMR11003031228155815040303000000000000000   10300001F05104100000000001029000000000000     
100   62911028202078000000000000100000000000100000002000000010410403030909093909462184800303000006742489   1030000200030000   333800010001203104000003327KBZPay                 Yangon        MMR11003030909093909460303000000000000000   10300001F05104100000000021000000000000000     
100   95030384418409420000000000040000000000040000002000000010410403030548351835892184800303000006740767   1030000200030000   333800010001203104000003327KBZPay                 Yangon        MMR11003030548351835890303000000000000000   10300001F05104100000000008400000000000000     
100   95030306100103570000000000025300000000025300002000000010410403030942140261362184800303000743611581   1030000200030000   541188001039000008000000010KBZ BANK               MARKETPLACE - MMR11003030942140261360303000000000000000   10300001 00104100000000001518000000000000     
100   95030301100315070000000000006000000000006000002000000010410403030534440444322184800303000006740642   1030000300030000   333300010001206104000002741Get All Myanmar Compan Yangon        MMR11003030534440444320303000000000000000   10300001F05104100000000010000000000000000     
100   62443100360763680000000000239050000000239050002000000010410403030240181799673014420303191100918061   1030000900030000   591219000795190110000000627Shwe Ohh Pharmacy ST-3 YANGONINDAING MMR11003030240181799670303000000000000000   10300001F00104100000000057372000000000000     
100   95050311959900780000000000000980000000000980002000000010410403031433300330318278760303000006744431   1020000200030000   333400010001204104000000281Myanmar Soft-Gate Tech Yangon        MMR11003031433300330310303000000000000000   10300001F05104100000000000206000000000000     
100   95050310520330790000000000300000000000300000002000000010410403030936260626271965480303000006742731   1030000200030000   333800010001203104000003327KBZPay                 Yangon        MMR11003030936260626270303000000000000000   10300001F05104100000000063000000000000000     
100   95050315889680120000000000002009000000002009002000000010410403031436150615286541170303000006744444   1030000200030000   333800010001203104000003327KBZPay                 Yangon        MMR11003031436150615280303000000000000000   10300001F05104100000000000422000000000000     
100   95050310427855490000000000001960000000001960002000000010410403031338550855382264490303000006744116   1020000200030000   333400010001204104000000281Myanmar Soft-Gate Tech Yangon        MMR11003031338550855380303000000000000000   10300001F05104100000000000412000000000000     
100   95050312498129060000000000000980000000000980002000000010410403030214104410825723720303000006738831   1020000200030000   333400010001204104000000281Myanmar Soft-Gate Tech Yangon        MMR11003030214104410820303000000000000000   10300001F05104100000000000206000000000000     
100   62911028202284420000000000059000000000059000002000000010410403021015210125212184800302206116012521   1030000500030000   598320001401000015172200014MAX ENERGY             PTN           MMR11003021015210125210302000000000000000   10300001 00104100000000001770000000000000     
100   62911028202225440000000000001600000000001600002000000010410403031048332769702184800303788251705061   1030000500030000   555610110572104519000009164City Mart China Town P int Cen       MMR11003031048332769700303000000000000000   10300001 00104100000000000096000000000000     
100   95050328035424750000000000053350000000053350002000000010410403030905062750483398320303074351553061   1030000500030000   555610103978104519000003818Ocean Oattara Thiri Na PyiTaw        MMR11003030905062750480303000000000000000   10300001 00104100000000013338000000000000     
100   95050314401921990000000000000980000000000980002000000010410403031505573557946966660303000006744589   1020000200030000   333400010001204104000000281Myanmar Soft-Gate Tech Yangon        MMR11003031505573557940303000000000000000   10300001F05104100000000000206000000000000     
100   95050317338786370000000000003000000000003000002000000010410403030220435043350766260303000006738881   1030000200030000   3334000100012031040000040102C2P (Myanmar) Co. Ltd Yangon        MMR11003030220435043350303000000000000000   10300001F05104100000000000630000000000000     
100   95050311779172060000000000010000000000010000002000000010410403031128391948377482950303024581739061   1030000900030000   541119001462190110000000077Sein Gay Har Chinatown YANGON        MMR11003031128391948370303000000000000000   10300001F00104100000000002500000000000000     
100   62443100318296470000000000028600000000028600002000000010410403030638251861747985660303751081325061   1030000900030000   581219000423190110000000284BCC (SYS)              YANGON        MMR11003030638251861740303000000000000000   10300001F00104100000000012155000000000000     
100   62443100318296470000000000062500000000062500002000000010410403030701111936114370030303206214193611   1040001600030000   598320000658000000010000527Shwe Taung Energy (YGN Yangon        MMR11003030701111936110303000000000000000   10300001F00104100000000007500000000000000     
100   95050325784857510000000000010650000000010650002000000010410403030828491895052426610303768581449061   1030000900030000   541119001206190110000000948City Mart YK C 4       YANGONAUNG    MMR11003030828491895050303000000000000000   10300001F00104100000000002663000000000000     
100   95050313240335680000000000047850000000047850002000000010410403030919331908466461790303526491533061   1030000900030000   591219000601190110000000441Shwe Ohh Pharmacy St-3 YANGON        MMR11003030919331908460303000000000000000   10300001F00104100000000011484000000000000     
100   95050310534130230000000000026200000000026200002000000010410403031125161947354177980303956551716061   1030000900030000   541119001207190110000000948City Mart YK C 5       YANGONAUNG    MMR11003031125161947350303000000000000000   10300001F00104100000000006550000000000000     
100   95050311382087030000000000027000000000027000002000000010410403030354362436899014890303000006739712   1030000200030000   3338000100012031040000040022C2P (Myanmar) Co. Ltd Yangon        MMR11003030354362436890303000000000000000   10300001F05104100000000005670000000000000     
100   62911028202116530000000000025250000000025250002000000010410403030734271878692184800303781041427061   1030000900030000   541119000121190110000000080Sein Gay Har BAK       YANGONADA     MMR11003030734271878690303000000000000000   10300001F00104100000000001515000000000000     
100   95030333257899680000000000414000000000414000002000000010410403030946271916522184800303019161627061   1030000900030000   541119000160190110000000084Pro (1) Global (Pazund YANGONARTAUNG MMR11003030946271916520303000000000000000   10300001F00104100000000024840000000000000     
100   95050314401921990000000000000980000000000980002000000010410403031249561956737136850303000006743851   1020000200030000   333400010001204104000000281Myanmar Soft-Gate Tech Yangon        MMR11003031249561956730303000000000000000   10300001F05104100000000000206000000000000     
100   95050312498129060000000000001960000000001960002000000010410403031150212021415149690303000006743581   1020000200030000   333400010001204104000000281Myanmar Soft-Gate Tech Yangon        MMR11003031150212021410303000000000000000   10300001F05104100000000000412000000000000     
100   95050324250133010000000000015000000000015000002000000010410403031149262116868539760303206218211686   1040001600030000   598320000911000000010000662MMTM - Tamwe           Ygn           MMR11003031149262116860303000000000000000   10300001F00104100000000001800000000000000     
100   95050325139996190000000000003300000000003300002000000010410403030256132613686404490303000006739191   1030000200030000   333300010001203104000003632Myanmar Tradenet Test  Yangon        MMR11003030256132613680303000000000000000   10300001F05104100000000010000000000000000     
100   62911028202656670000000000013100000000013100002000000010410403030651071931722184800303206213193172   1040001600030000   541120000555000000010000465Ocean Shwe Gone Daing  Yangon        MMR11003030651071931720303000000000000000   10300001F00104100000000000786000000000000     
100   95050319220344710000000000000980000000000980002000000010410403031455242524191924110303000006744544   1020000200030000   333400010001204104000000281Myanmar Soft-Gate Tech Yangon        MMR11003031455242524190303000000000000000   10300001F05104100000000000206000000000000     
100   95050319528093960000000000000980000000000980002000000010410403031454472447730271620303000006744539   1020000200030000   333400010001204104000000281Myanmar Soft-Gate Tech Yangon        MMR11003031454472447730303000000000000000   10300001F05104100000000000206000000000000     
100   95050328855407440000000000535000000000535000002000000010410403030827301894735731580303745571430061   1030000900030000   594419000599190110000000439Shwe Nan Taw Jewellery YANGONUT      MMR11003030827301894730303000000000000000   10300001F00104100000000128400000000000000     
100   95030301100124400000000000006000000000006000002000000010410403030950061917462184800303072201606061   1030000900030000   541119001272190110000000960City Mart PLST Season  YANGONMYOTHIT MMR11003030950061917460303000000000000000   10300001F00104100000000000360000000000000     
100   95030333257899680000000000810900000000810900002000000010410403031019011926842184800303654491601061   1030000900030000   541119000881190110000000084Pro (1) Global (Pazund YANGONARTAUNG MMR11003031019011926840303000000000000000   10300001F00104100000000048654000000000000     
100   62911028202415850000000000010000000000010000002000000010410403031040141933642184800303083101714061   1030000900030000   541119001081190110000000872Sein Gay Har Hledan    YANGONUT      MMR11003031040141933640303000000000000000   10300001F00104100000000000600000000000000     
100   95050310456843760000000000006200000000006200002000000010410403031124221947102525500303939541722061   1030000900030000   541119000124190110000000080Sein Gay Har BAK       YANGONADA     MMR11003031124221947100303000000000000000   10300001F00104100000000001550000000000000     
100   95050313763920110000000000050000000000050000002000000010410403031250512051958789330303000006743863   1030000200030000   333800010001203104000003327KBZPay                 Yangon        MMR11003031250512051950303000000000000000   10300001F05104100000000010500000000000000     
100   95030320529939180000000000015000000000015000002000000010410403031242061966742184800303186121906061   1030000900030000   581219001121190110000000902Yoon Kitchen           YANGONONE     MMR11003031242061966740303000000000000000   10300001F00104100000000001530000000000000     
100   95050313732480420000000000002940000000002940002000000010410403031452292229084888690303000006744529   1020000200030000   333400010001204104000000281Myanmar Soft-Gate Tech Yangon        MMR11003031452292229080303000000000000000   10300001F05104100000000000617000000000000     
100   62911028202290100000000000043159000000043159002000000010410403030754561884922184800303150241456061   1030000900030000   806219001119190110000000900Shwe La Min Hospital L YANGONAW      MMR11003030754561884920303000000000000000   10300001F00104100000000002590000000000000     
100   95050321232876860000000000081000000000081000002000000010410402281538290058985671340228205915005898   1030000600030000   554100002328315799420001235DENKO NAY PYI TAW 2    NAYPYITAW     MMR11002281538290058980228000000000000000   10300001 00104100000000009720000000000000     
100   62911028202023630000000000040000000000040000002000000010410402281253050061582184800228205912006158   1030000600030000   554100002324315799420000481DENKO NORTH OKKALAPA   YANGON        MMR11002281253050061580228000000000000000   10300001 00104100000000001200000000000000     
100   62911028202023630000000000082000000000082000002000000010410402281245510438272184800228205912043827   1030000600030000   554100000969315799420000481DENKO NORTH OKKALAPA   YANGON        MMR11002281245510438270228000000000000000   10300001 00104100000000002460000000000000     
100   95030305700676370000000000060000000000060000002000000010410402280655170328862184800228205906032886   1030000600030000   554100001106315799420000564DENKO PHYUU            PHYUU         MMR11002280655170328860228000000000000000   10300001 00104100000000001800000000000000     
100   62911028202472440000000000062000000000062000002000000010410403020626430057222184800302206112005722   1030000500030000   598320001403000015172200014MAX ENERGY             PTN           MMR11003020626430057220302000000000000000   10300001 00104100000000001860000000000000     
100   62443100379321630000000000102500000000102500002000000010410403031126132095467142560303206218209546   1040001600030000   598320000658000000010000527Shwe Taung Energy (YGN Yangon        MMR11003031126132095460303000000000000000   10300001F00104100000000012300000000000000     
100   62443100300855550000000000297750000000297750002000000010410403031031011930581723980303885011701061   1030000900030000   541119000376190110000000178Pro (1) Global (East D YANGONMYOTHIT MMR11003031031011930580303000000000000000   10300001F00104100000000074438000000000000     
100   62911028202675310000000000003290000000003290002000000010410403020604280003992184800302206112000399   1030000500030000   531120155803000045311201558GAMONE PWINT           PTN           MMR11003020604280003990302000000000000000   10300001 00104100000000000197000000000000     
100   95030385550669610000000000003300000000003300002000000010410403030706381938532184800303206214193853   1040001600030000   581420000098000000010000094Cha Tra Mue (Pinlon)   Yangon        MMR11003030706381938530303000000000000000   10300001F00104100000000000099000000000000     
100   95050316717221100000000000000980000000000980002000000010410403030752162216261781500303000006741847   1020000200030000   333400010001204104000000281Myanmar Soft-Gate Tech Yangon        MMR11003030752162216260303000000000000000   10300001F05104100000000000206000000000000     
100   95050316785465380000000000001960000000001960002000000010410403030251032103763439910303000006739143   1020000200030000   333400010001204104000000281Myanmar Soft-Gate Tech Yangon        MMR11003030251032103760303000000000000000   10300001F05104100000000000412000000000000     
100   62911028202692550000000000001200000000001200002000000010410403031206132132512184800303206219213251   1040001600030000   591220000289000000010000277Shwe Ohh Pharmacy (Par Yangon        MMR11003031206132132510303000000000000000   10300001F00104100000000000072000000000000     
100   62911028202662510000000000037000000000037000002000000010410403031302382183792184800303206220218379   1040001600030000   598320000911000000010000662MMTM - Tamwe           Ygn           MMR11003031302382183790303000000000000000   10300001F00104100000000001110000000000000     
100   62911028202415850000000000005800000000005800002000000010410403031036581932632184800303012061758061   1030000900030000   541119001076190110000000872Sein Gay Har Hledan    YANGONUT      MMR11003031036581932630303000000000000000   10300001F00104100000000000348000000000000     
100   95050310616516480000000000002940000000002940002000000010410403030252222222198482450303000006739158   1020000200030000   333400010001204104000000281Myanmar Soft-Gate Tech Yangon        MMR11003030252222222190303000000000000000   10300001F05104100000000000617000000000000     
100   95030301100122420000000000050000000000050000002000000010410403030851512151272184800303000006742312   1030000200030000   333800010001203104000003327KBZPay                 Yangon        MMR11003030851512151270303000000000000000   10300001F05104100000000010500000000000000     
100   95050317003048070000000000100000000000100000002000000010410403030243581358727631490303000006739077   1030000200030000   333800010001203104000003327KBZPay                 Yangon        MMR11003030243581358720303000000000000000   10300001F05104100000000021000000000000000     
100   95050322104201170000000000036000000000036000002000000010410403031337200720292349590303000006744108   1030000200030000   333800010001203104000003327KBZPay                 Yangon        MMR11003031337200720290303000000000000000   10300001F05104100000000007560000000000000     
100   95050313400680100000000000063504000000063504002000000010410403030449141914387744170303000006740173   1030000900030000   333800010001202104000003301uab bank               Yangon        MMR11003030449141914380303000000000000000   10300001F05104100000000013336000000000000     
100   62911028202260320000000000143700000000143700002000000010410403030452311866842184800303206211186684   1040001600030000   591220000626000000010000497AAA Pharmacy           Ygn           MMR11003030452311866840303000000000000000   10300001F00104100000000008622000000000000     
100   62911028202180130000000000058250000000058250002000000010410403031014311925522184800303573441631061   1030000900030000   541119001283190110000000963City Mart SPL C 8      YANGONMYOTHIT MMR11003031014311925520303000000000000000   10300001F00104100000000003495000000000000     
100   95050310332595380000000000000980000000000980002000000010410403030245581558299283980303000006739103   1020000200030000   333400010001204104000000281Myanmar Soft-Gate Tech Yangon        MMR11003030245581558290303000000000000000   10300001F05104100000000000206000000000000     
100   95050325139996190000000000003300000000003300002000000010410403030302573257776574680303000006739228   1030000200030000   333300010001203104000003632Myanmar Tradenet Test  Yangon        MMR11003030302573257770303000000000000000   10300001F05104100000000010000000000000000     
100   62911028202180130000000000025750000000025750002000000010410403031008341923492184800303439381634061   1030000900030000   541119001290190110000000965City Mart SPL City Car YANGONMYOTHIT MMR11003031008341923490303000000000000000   10300001F00104100000000001545000000000000     
100   62911028202674810000000000004200000000004200002000000010410403030625151857622184800303487551215061   1030000900030000   541119001206190110000000948City Mart YK C 4       YANGONAUNG    MMR11003030625151857620303000000000000000   10300001F00104100000000000252000000000000     
100   95050315122972560000000000009800000000009800002000000010410403030450002000806176780303000006740191   1020000200030000   333400010001204104000000281Myanmar Soft-Gate Tech Yangon        MMR11003030450002000800303000000000000000   10300001F05104100000000002058000000000000     
100   62911028202692550000000000002100000000002100002000000010410403031207392133932184800303206219213393   1040001600030000   591220000289000000010000277Shwe Ohh Pharmacy (Par Yangon        MMR11003031207392133930303000000000000000   10300001F00104100000000000126000000000000     
100   62443100379321630000000000044000000000044000002000000010410403030629332725554170120303667581214061   1030000300030000   888810125458104519000021285Shwe Taung Energy CoLt               MMR11003030629332725550303000000000000000   10300001 00104100000000005280000000000000     
100   95050319870763910000000000000980000000000980002000000010410403031300243024228704240303000006743919   1020000200030000   333400010001204104000000281Myanmar Soft-Gate Tech Yangon        MMR11003031300243024220303000000000000000   10300001F05104100000000000206000000000000     
100   95050314570621780000000000000980000000000980002000000010410403030603143314537063400303000006740890   1020000200030000   333400010001204104000000281Myanmar Soft-Gate Tech Yangon        MMR11003030603143314530303000000000000000   10300001F05104100000000000206000000000000     
100   62911028202170490000000000004200000000004200002000000010410403030810112741762184800303851411414061   1030000300030000   444410120049104519000017043YKKO St John                         MMR11003030810112741760303000000000000000   10300001 00104100000000000428000000000000     
100   95030394609966640000000000000900000000000900002000000010410403030839502746292184800303470091555061   1030000500030000   555610114575104519000012532City Mart Ahlone Branc               MMR11003030839502746290303000000000000000   10300001 00104100000000000054000000000000     
