100   62911028202447120000000000054150000000054150002000000010410403040739232861762184800304722101407062   1030000500030000   555610114572104519000012532City Mart Ahlone Branc               MMR11003040739232861760304000000000000000   10300001 00104100000000003249000000000000     
100   95050319286546940000000000005150000000005150002000000010410403040205362441765690210304206309244176   1040001600030000   591220000258000000010000246Shwe Ohh Pharmacy (Sin Yangon        MMR11003040205362441760304000000000000000   10300001F00104100000000001236000000000000     
100   62911028202679290000000000100604000000100604002000000010410403040252012201862184800304000006745941   1030000200030000   333800010001203104000003327KBZPay                 Yangon        MMR11003040252012201860304000000000000000   10300001F05104100000000021127000000000000     
100   95050312911050270000000000000980000000000980002000000010410403040457432743501391660304000006747193   1020000200030000   333400010001204104000000281Myanmar Soft-Gate Tech Yangon        MMR11003040457432743500304000000000000000   10300001F05104100000000000206000000000000     
100   95050311173010810000000000002500000000002500002000000010410403041453392339316499810304000006751450   1030000900030000   333400010001202104000002022ACS                    Yangon        MMR11003041453392339310304000000000000000   10300001F05104100000000000525000000000000     
100   62911028202291190000000000010100000000010100002000000010410403040433012502092184800304206311250209   1040001600030000   591220000283000000010000271Shwe Ohh Pharmacy ( Ky Yangon        MMR11003040433012502090304000000000000000   10300001F00104100000000000606000000000000     
100   62911028202400660000000000035250000000035250002000000010410403040703052855512184800304868321320062   1030000500030000   555610108773104519000003821City Mart North Point  enter         MMR11003040703052855510304000000000000000   10300001 00104100000000002115000000000000     
100   62443100379321630000000000087200000000087200002000000010410403040654522854887194370304776281353062   1030000300030000   555510124364104519000020166Makro Myanmar                        MMR11003040654522854880304000000000000000   10300001 00104100000000020928000000000000     
100   95050310081566510000000000030000000000030000002000000010410403040955572557161904610304000006749771   1030000200030000   333800010001203104000003327KBZPay                 Yangon        MMR11003040955572557160304000000000000000   10300001F05104100000000006300000000000000     
100   62911028202662690000000000095000000000095000002000000010410403040328042823752184800304532570906062   1030000300030000   555510124695104519000020166Makro Myanmar                        MMR11003040328042823750304000000000000000   10300001 00104100000000005700000000000000     
100   62911028202077430000000000000980000000000980002000000010410403040553092309682184800304000006747676   1020000200030000   333400010001204104000000281Myanmar Soft-Gate Tech Yangon        MMR11003040553092309680304000000000000000   10300001F05104100000000000206000000000000     
100   62911028202225850000000000051450000000051450002000000010410403040551152844192184800304265201244062   1030000300030000   555510123978104519000020166Makro Myanmar                        MMR11003040551152844190304000000000000000   10300001 00104100000000003087000000000000     
100   62911028202105070000000000057000000000057000002000000010410403040304062463442184800304206310246344   1040001600030000   598320000658000000010000527Shwe Taung Energy (YGN Yangon        MMR11003040304062463440304000000000000000   10300001F00104100000000001710000000000000     
100   62911028202761360000000000019182000000019182002000000010410403040808022867982184800304565481400062   1030000500030000   555610103976104519000003818Ocean Oattara Thiri Na PyiTaw        MMR11003040808022867980304000000000000000   10300001 00104100000000001151000000000000     
100   62911028202446540000000000059500000000059500002000000010410403040225162449582184800304206309244958   1040001600030000   591220000287000000010000275Shwe Ohh Pharmacy (Wit Yangon        MMR11003040225162449580304000000000000000   10300001F00104100000000003570000000000000     
100   62911028202132040000000000011000000000011000002000000010410403040611152557932184800304206313255793   1040001600030000   598320000838000000010000600Regency Petrol Station Ygn           MMR11003040611152557930304000000000000000   10300001F00104100000000000330000000000000     
100   95050325139996190000000000003300000000003300002000000010410403040258482848725278520304000006745991   1030000200030000   333300010001203104000003632Myanmar Tradenet Test  Yangon        MMR11003040258482848720304000000000000000   10300001F05104100000000010000000000000000     
100   95030301100425790000000000083200000000083200002000000010410403041039582897662184800304806271756062   1030000300030000   555510124686104519000020166Makro Myanmar                        MMR11003041039582897660304000000000000000   10300001 00104100000000004992000000000000     
100   95030328100017490000000000030000000000030000002000000010410403031013590010072184800303206216001007   1030000500030000   598320101301005405983201013PT POWER (NPT)         PTN           MMR11003031013590010070303000000000000000   10300001 00104100000000000900000000000000     
100   95030308100042590000000000121000000000121000002000000010410403031318310048652184800303206219004865   1030000500030000   598320001701000015172200017MAX ENERGY             PTN           MMR11003031318310048650303000000000000000   10300001 00104100000000003630000000000000     
100   62911028202666400000000000050000000000050000002000000010410403041607033703602184800304000006751684   1030000200030000   333800010001203104000003327KBZPay                 Yangon        MMR11003041607033703600304000000000000000   10300001F05104100000000010500000000000000     
100   95050326948926900000000000250000000000250000002000000010410403040329165916167491020304000006746292   1030000200030000   333800010001203104000003327KBZPay                 Yangon        MMR11003040329165916160304000000000000000   10300001F05104100000000052500000000000000     
100   62443100364681690000000000038900000000038900002000000010410403041028092891429826640304876561630062   1030000300030000   555510124358104519000020166Makro Myanmar                        MMR11003041028092891420304000000000000000   10300001 00104100000000009336000000000000     
100   95050316818236190000000000001960000000001960002000000010410403040916314631995470580304000006749422   1020000200030000   333400010001204104000000281Myanmar Soft-Gate Tech Yangon        MMR11003040916314631990304000000000000000   10300001F05104100000000000412000000000000     
100   62911028202827610000000000070000000000070000002000000010410403040404033403872184800304000006746639   1030000200030000   333800010001203104000003327KBZPay                 Yangon        MMR11003040404033403870304000000000000000   10300001F05104100000000014700000000000000     
100   95050322990383760000000000001000000000001000002000000010410403041305273527196571110304000006750894   1030000200030000   3334000100012031040000040102C2P (Myanmar) Co. Ltd Yangon        MMR11003041305273527190304000000000000000   10300001F05104100000000000210000000000000     
100   95050316818236190000000000001960000000001960002000000010410403040623435343154144690304000006747931   1020000200030000   333400010001204104000000281Myanmar Soft-Gate Tech Yangon        MMR11003040623435343150304000000000000000   10300001F05104100000000000412000000000000     
100   62911028202684060000000000031987000000031987002000000010410403041041392894252184800304279101720062   1030000500030000   555610104031104519000003821City Mart North Point  enter         MMR11003041041392894250304000000000000000   10300001 00104100000000001919000000000000     
100   62443100384474840000000000300000000000300000002000000010410403040315354535197647430304000006746126   1030000200030000   333800010001203104000003327KBZPay                 Yangon        MMR11003040315354535190304000000000000000   10300001F05104100000000063000000000000000     
100   95050316818236190000000000001960000000001960002000000010410403041029525952141479120304000006750034   1020000200030000   333400010001204104000000281Myanmar Soft-Gate Tech Yangon        MMR11003041029525952140304000000000000000   10300001F05104100000000000412000000000000     
100   95050319391394380000000000007150000000007150002000000010410403041005472886951819510304208341606062   1030000500030000   555610110595104519000009166City Mart 47 Branch                  MMR11003041005472886950304000000000000000   10300001 00104100000000001788000000000000     
100   95050316573091630000000000002940000000002940002000000010410403040402233223700930530304000006746603   1020000200030000   333400010001204104000000281Myanmar Soft-Gate Tech Yangon        MMR11003040402233223700304000000000000000   10300001F05104100000000000617000000000000     
100   95050312498129060000000000008820000000008820002000000010410403040300413041809725390304000006746017   1020000200030000   333400010001204104000000281Myanmar Soft-Gate Tech Yangon        MMR11003040300413041800304000000000000000   10300001F05104100000000001852000000000000     
100   95050311077567400000000000003000000000003000002000000010410403041611324132301457260304000006751692   1030000900030000   333400010001202104000002022ACS                    Yangon        MMR11003041611324132300304000000000000000   10300001F05104100000000000630000000000000     
100   62443100384474840000000000300000000000300000002000000010410403040308343834079980680304000006746088   1030000200030000   333800010001203104000003327KBZPay                 Yangon        MMR11003040308343834070304000000000000000   10300001F05104100000000063000000000000000     
100   95050316653112190000000000015000000000015000002000000010410403041019114911424443710304000006749965   1030000200030000   333800010001203104000003327KBZPay                 Yangon        MMR11003041019114911420304000000000000000   10300001F05104100000000003150000000000000     
100   95050323133124350000000000005880000000005880002000000010410403041420235023137811900304000006751286   1020000200030000   333400010001204104000000281Myanmar Soft-Gate Tech Yangon        MMR11003041420235023130304000000000000000   10300001F05104100000000001235000000000000     
100   95050314190972620000000000005880000000005880002000000010410403040105563556302980920304000006745353   1020000200030000   333400010001204104000000281Myanmar Soft-Gate Tech Yangon        MMR11003040105563556300304000000000000000   10300001F05104100000000001235000000000000     
100   95030302100067550000000000095700000000095700002000000010410403041002332886662184800304162321643062   1030000300030000   555510123978104519000020166Makro Myanmar                        MMR11003041002332886660304000000000000000   10300001 00104100000000005742000000000000     
100   62443100378297160000000000004900000000004900002000000010410403041200533053053691630304000006750554   1020000200030000   333400010001204104000000281Myanmar Soft-Gate Tech Yangon        MMR11003041200533053050304000000000000000   10300001F05104100000000001029000000000000     
100   62911028202110340000000000010300000000010300002000000010410403041527140096482184800304000743703058   1030000200030000   541188001047000008000000010KBZ BANK               MARKETPLACE - MMR11003041527140096480304000000000000000   10300001 00104100000000000618000000000000     
100   95050319331516290000000000123134000000123134002000000010410403041415210041063137320304000743698154   1030000200030000   541188001440000008000000401KBZ BANK               OCEAN SUPERCE MMR11003041415210041060304000000000000000   10300001 00104100000000030784000000000000     
100   62911028202299030000000000015900000000015900002000000010410403041102570050582184800304000743681839   1030000200030000   541188001366000008000000395KBZ BANK               OCEAN SUPERMA MMR11003041102570050580304000000000000000   10300001 00104100000000000954000000000000     
100   62911028202449440000000000050000000000050000002000000010410403041416550006282184800304000743698280   1030000200030000   581288000382000008000002788KBZ BANK               THE BRUNCH SO MMR11003041416550006280304000000000000000   10300001 00104100000000005100000000000000     
100   95030301100124400000000000032400000000032400002000000010410403040333020015872184800304000743676775   1030000200030000   591288000018000008000002044KBZ BANK               PINLON PHARMA MMR11003040333020015870304000000000000000   10300001 00104100000000001944000000000000     
100   62911028202151910000000000115777000000115777002000000010410403041152220030242184800304000743686329   1030000200030000   541188001006000008000000008KBZ BANK               MARKETPLACE - MMR11003041152220030240304000000000000000   10300001 00104100000000006947000000000000     
100   95030318100004530000000000028772000000028772002000000010410403041422370016852184800304000743698687   1030000200030000   541188001438000008000000401KBZ BANK               OCEAN SUPERCE MMR11003041422370016850304000000000000000   10300001 00104100000000001726000000000000     
100   95030318100004530000000000022800000000022800002000000010410403041351270029092184800304000743696165   1030000200030000   541188001444000008000000401KBZ BANK               OCEAN SUPERCE MMR11003041351270029090304000000000000000   10300001 00104100000000001368000000000000     
100   95050312498129060000000000004900000000004900002000000010410403041327385738364592030304000006751033   1020000200030000   333400010001204104000000281Myanmar Soft-Gate Tech Yangon        MMR11003041327385738360304000000000000000   10300001F05104100000000001029000000000000     
100   95050320360851930000000000002940000000002940002000000010410403040328515851542448470304000006746288   1020000200030000   333400010001204104000000281Myanmar Soft-Gate Tech Yangon        MMR11003040328515851540304000000000000000   10300001F05104100000000000617000000000000     
100   95050312695033440000000000000980000000000980002000000010410403040224005400086030600304000006745722   1020000200030000   333400010001204104000000281Myanmar Soft-Gate Tech Yangon        MMR11003040224005400080304000000000000000   10300001F05104100000000000206000000000000     
100   62911028202267920000000000038250000000038250002000000010410403041211562912572184800304840571833062   1030000500030000   555610108840104519000003432City Mart Junction Zaw na 1          MMR11003041211562912570304000000000000000   10300001 00104100000000002295000000000000     
100   95050316769671810000000000020300000000020300002000000010410403040612104210648641010304000006747852   1030000200030000   333800010001203104000003327KBZPay                 Yangon        MMR11003040612104210640304000000000000000   10300001F05104100000000004263000000000000     
100   95050316818236190000000000000980000000000980002000000010410403041311594159568138500304000006750928   1020000200030000   333400010001204104000000281Myanmar Soft-Gate Tech Yangon        MMR11003041311594159560304000000000000000   10300001F05104100000000000206000000000000     
100   95050316049877640000000000004900000000004900002000000010410403041218034803047968310304000006750664   1020000200030000   333400010001204104000000281Myanmar Soft-Gate Tech Yangon        MMR11003041218034803040304000000000000000   10300001F05104100000000001029000000000000     
100   95030301100170760000000000016027000000016027002000000010410403031129260041322184800303000333293389   1030000300030000   591200000213000000000000110CB BANK                MEDICARE STOR MMR11003031129260041320303000000000000000   10300001F00104100000000000962000000000000     
100   62443101057131720000000000014600000000014600002000000010410403041525230011424328670304000743702903   1030000200030000   581288000950000008000004879KBZ BANK               PIZZA HUT RES MMR11003041525230011420304000000000000000   10300001 00104100000000006205000000000000     
100   95050310902464360000000000009800000000009800002000000010410403040330390039187405930304000006746299   1020000200030000   333400010001204104000000281Myanmar Soft-Gate Tech Yangon        MMR11003040330390039180304000000000000000   10300001F05104100000000002058000000000000     
100   62911028202169750000000000025650000000025650002000000010410403041231040048202184800304000743689676   1030000200030000   541188001316000008000000306KBZ BANK               CITY MART - S MMR11003041231040048200304000000000000000   10300001 00104100000000001539000000000000     
100   62443100315853220000000000065468000000065468002000000010410403040959390020049143510304000743676519   1030000200030000   541188001481000008000000399KBZ BANK               OCEAN SUPERCE MMR11003040959390020040304000000000000000   10300001 00104100000000016367000000000000     
100   95030301100124400000000000018500000000018500002000000010410403040328120015942184800304000743676415   1030000200030000   591288000181000008000002044KBZ BANK               PINLON PHARMA MMR11003040328120015940304000000000000000   10300001 00104100000000001110000000000000     
100   95050324444444460000000000149800000000149800002000000010410403041253160018423266150304000743720212   1030000200030000   581288000098000008000003562KBZ BANK               CANTON PARADI MMR11003041253160018420304000000000000000   10300001 00104100000000063665000000000000     
100   62911028202169750000000000002700000000002700002000000010410403041233550049292184800304000743689947   1030000200030000   541188001322000008000000306KBZ BANK               CITY MART - S MMR11003041233550049290304000000000000000   10300001 00104100000000000162000000000000     
100   95030365566134760000000000026200000000026200002000000010410403041550290012872184800304000743704670   1030000200030000   541188001360000008000000395KBZ BANK               OCEAN SUPERMA MMR11003041550290012870304000000000000000   10300001 00104100000000001572000000000000     
100   95030394609966640000000000002700000000002700002000000010410403041520080170322184800304000743702595   1030000200030000   541188001032000008000000298KBZ BANK               CITY MART - M MMR11003041520080170320304000000000000000   10300001 00104100000000000162000000000000     
100   62443100364681690000000000007000000000007000002000000010410403040426312067032072440304496561031062   1030000900030000   581219000931190110000000740Shwe Palin City Mall   YANGONAW      MMR11003040426312067030304000000000000000   10300001F00104100000000002975000000000000     
100   62911028202110340000000000060050000000060050002000000010410403041523430202242184800304000743702803   1030000200030000   541188001038000008000000010KBZ BANK               MARKETPLACE - MMR11003041523430202240304000000000000000   10300001 00104100000000003603000000000000     
100   95050318057347910000000000000980000000000980002000000010410403041532370237228152290304000006751580   1020000200030000   333400010001204104000000281Myanmar Soft-Gate Tech Yangon        MMR11003041532370237220304000000000000000   10300001F05104100000000000206000000000000     
100   95050325139996190000000000003300000000003300002000000010410403040336080608066008730304000006746258   1030000200030000   333300010001203104000003632Myanmar Tradenet Test  Yangon        MMR11003040336080608060304000000000000000   10300001F05104100000000010000000000000000     
100   95050319006804440000000000004900000000004900002000000010410403040939450945058940020304000006749624   1020000200030000   333400010001204104000000281Myanmar Soft-Gate Tech Yangon        MMR11003040939450945050304000000000000000   10300001F05104100000000001029000000000000     
100   95050314570621780000000000001960000000001960002000000010410403041339480948856159420304000006751095   1020000200030000   333400010001204104000000281Myanmar Soft-Gate Tech Yangon        MMR11003041339480948850304000000000000000   10300001F05104100000000000412000000000000     
100   95050319928585020000000000000980000000000980002000000010410403040234240424608923870304000006745792   1020000200030000   333400010001204104000000281Myanmar Soft-Gate Tech Yangon        MMR11003040234240424600304000000000000000   10300001F05104100000000000206000000000000     
100   95050313616076540000000000025200000000025200002000000010410403040242541254694221710304000006745880   1030000200030000   333800010001203104000003327KBZPay                 Yangon        MMR11003040242541254690304000000000000000   10300001F05104100000000005292000000000000     
100   95050317775833170000000000025200000000025200002000000010410403040740361036764960000304000006748645   1030000200030000   333800010001203104000003327KBZPay                 Yangon        MMR11003040740361036760304000000000000000   10300001F05104100000000005292000000000000     
100   62911028202520530000000000010000000000010000002000000010410403041148441844772184800304000006750491   1030000500030000   333800010001201104000003863AYA Pay                Yangon        MMR11003041148441844770304000000000000000   10300001F05104100000000002100000000000000     
100   95050313072967520000000000003000000000003000002000000010410403040344411441069774840304000006746432   1030000200030000   3338000100012031040000040022C2P (Myanmar) Co. Ltd Yangon        MMR11003040344411441060304000000000000000   10300001F05104100000000000630000000000000     
100   95030318100002710000000000002940000000002940002000000010410403040244011401822184800304000006745890   1020000200030000   333400010001204104000000281Myanmar Soft-Gate Tech Yangon        MMR11003040244011401820304000000000000000   10300001F05104100000000000617000000000000     
100   62911028202905250000000000001000000000001000002000000010410403041446031603352184800304000006751419   1030000200030000   333800010001203104000003327KBZPay                 Yangon        MMR11003041446031603350304000000000000000   10300001F05104100000000000210000000000000     
100   62911028202905250000000000002000000000002000002000000010410403041448481848732184800304000006751432   1030000200030000   333800010001203104000003327KBZPay                 Yangon        MMR11003041448481848730304000000000000000   10300001F05104100000000000420000000000000     
100   62911028202663430000000000003950000000003950002000000010410403041613300178292184800304000743706243   1030000200030000   541188001030000008000000298KBZ BANK               CITY MART - M MMR11003041613300178290304000000000000000   10300001 00104100000000000237000000000000     
100   95050315701710960000000000200000000000200000002000000010410403040837110711585520020304000006749123   1030000200030000   333800010001203104000003327KBZPay                 Yangon        MMR11003040837110711580304000000000000000   10300001F05104100000000042000000000000000     
100   95050317465574180000000000300000000000300000002000000010410403041444041404464421840304000006751403   1030000200030000   333800010001203104000003327KBZPay                 Yangon        MMR11003041444041404460304000000000000000   10300001F05104100000000063000000000000000     
100   62911028202446540000000000023938000000023938002000000010410403040920450281492184800304000743673937   1030000200030000   541188001025000008000000298KBZ BANK               CITY MART - M MMR11003040920450281490304000000000000000   10300001 00104100000000001436000000000000     
100   95050329213164970000000000002940000000002940002000000010410403040233430343000661450304000006745804   1020000200030000   333400010001204104000000281Myanmar Soft-Gate Tech Yangon        MMR11003040233430343000304000000000000000   10300001F05104100000000000617000000000000     
100   95050326155679180000000000008820000000008820002000000010410403040236110611895618900304000006745817   1020000200030000   333400010001204104000000281Myanmar Soft-Gate Tech Yangon        MMR11003040236110611890304000000000000000   10300001F05104100000000001852000000000000     
100   95050319468370810000000000002940000000002940002000000010410403041436380638344506940304000006751376   1020000200030000   333400010001204104000000281Myanmar Soft-Gate Tech Yangon        MMR11003041436380638340304000000000000000   10300001F05104100000000000617000000000000     
100   95050311959900780000000000000980000000000980002000000010410403040246021602351803360304000006745906   1020000200030000   333400010001204104000000281Myanmar Soft-Gate Tech Yangon        MMR11003040246021602350304000000000000000   10300001F05104100000000000206000000000000     
100   95050320360851930000000000050000000000050000002000000010410403041247331733313351240304000006750815   1030000200030000   333800010001203104000003327KBZPay                 Yangon        MMR11003041247331733310304000000000000000   10300001F05104100000000010500000000000000     
100   95050310427855490000000000000980000000000980002000000010410403041442111211902769360304000006751399   1020000200030000   333400010001204104000000281Myanmar Soft-Gate Tech Yangon        MMR11003041442111211900304000000000000000   10300001F05104100000000000206000000000000     
100   95050311121153200000000000001960000000001960002000000010410403041236120612741273280304000006750765   1020000200030000   333400010001204104000000281Myanmar Soft-Gate Tech Yangon        MMR11003041236120612740304000000000000000   10300001F05104100000000000412000000000000     
100   95030301100129110000000000021050000000021050002000000010410403040510042078842184800304189401104062   1030000900030000   591219000500190110000000347Shwe Ohh Pharmacy -  ( YANGONUNG     MMR11003040510042078840304000000000000000   10300001F00104100000000001263000000000000     
100   95050315919368400000000000061000000000061000002000000010410403040339010901295327960304000006746380   1030000200030000   333800010001203104000003327KBZPay                 Yangon        MMR11003040339010901290304000000000000000   10300001F05104100000000012810000000000000     
100   95050310822142100000000000050000000000050000002000000010410403040640481048843634110304000006748073   1030000200030000   333800010001203104000003327KBZPay                 Yangon        MMR11003040640481048840304000000000000000   10300001F05104100000000010500000000000000     
100   95030394609966640000000000025400000000025400002000000010410403041104020281612184800304000743681964   1030000200030000   541188001025000008000000298KBZ BANK               CITY MART - M MMR11003041104020281610304000000000000000   10300001 00104100000000001524000000000000     
100   62443100335647210000000000016660000000016660002000000010410403032346361636031753920304000006745206   1020000200030000   333400010001204104000000281Myanmar Soft-Gate Tech Yangon        MMR11003032346361636030304000000000000000   10300001F05104100000000003499000000000000     
100   62911028202328650000000000032239000000032239002000000010410403041259560287582184800304000743692329   1030000200030000   541188001024000008000000298KBZ BANK               CITY MART - M MMR11003041259560287580304000000000000000   10300001 00104100000000001934000000000000     
100   62443100350052510000000000053600000000053600002000000010410403040844191419755009440304000006749185   1030000200030000   333300010001203104000003632Myanmar Tradenet Test  Yangon        MMR11003040844191419750304000000000000000   10300001F05104100000000010000000000000000     
100   95050316818236190000000000002940000000002940002000000010410403040232150215039008970304000006745770   1020000200030000   333400010001204104000000281Myanmar Soft-Gate Tech Yangon        MMR11003040232150215030304000000000000000   10300001F05104100000000000617000000000000     
100   95050310213446310000000000004900000000004900002000000010410403041236210621686656210304000006750775   1020000200030000   333400010001204104000000281Myanmar Soft-Gate Tech Yangon        MMR11003041236210621680304000000000000000   10300001F05104100000000001029000000000000     
100   95050318242219520000000000000980000000000980002000000010410403041334330433647897010304000006751073   1020000200030000   333400010001204104000000281Myanmar Soft-Gate Tech Yangon        MMR11003041334330433640304000000000000000   10300001F05104100000000000206000000000000     
100   95050323233042810000000000010500000000010500002000000010410403041249051905375003720304000006750827   1030000200030000   333800010001203104000003327KBZPay                 Yangon        MMR11003041249051905370304000000000000000   10300001F05104100000000002205000000000000     
100   62911028202161240000000000010392000000010392002000000010410403041809430130992184800304000743715072   1030000200030000   541188001020000008000000298KBZ BANK               CITY MART - M MMR11003041809430130990304000000000000000   10300001 00104100000000000624000000000000     
100   62443100340648380000000000030000000000030000002000000010410403041236530653178308690304000006750777   1030000200030000   333800010001203104000003327KBZPay                 Yangon        MMR11003041236530653170304000000000000000   10300001F05104100000000006300000000000000     
100   95050322957045260000000000015000000000015000002000000010410403040749501950719321780304000006748702   1030000200030000   3338000100012031040000040022C2P (Myanmar) Co. Ltd Yangon        MMR11003040749501950710304000000000000000   10300001F05104100000000003150000000000000     
100   95050323233042810000000000001960000000001960002000000010410403040936250625320422310304000006749603   1020000200030000   333400010001204104000000281Myanmar Soft-Gate Tech Yangon        MMR11003040936250625320304000000000000000   10300001F05104100000000000412000000000000     
100   95050319996628650000000000000980000000000980002000000010410403041148281828526741310304000006750484   1020000200030000   333400010001204104000000281Myanmar Soft-Gate Tech Yangon        MMR11003041148281828520304000000000000000   10300001F05104100000000000206000000000000     
100   95050316818236190000000000000980000000000980002000000010410403040641031103915286590304000006748088   1020000200030000   333400010001204104000000281Myanmar Soft-Gate Tech Yangon        MMR11003040641031103910304000000000000000   10300001F05104100000000000206000000000000     
100   62911028202222390000000000014800000000014800002000000010410403041301300130642184800304000743692449   1030000200030000   541188001020000008000000298KBZ BANK               CITY MART - M MMR11003041301300130640304000000000000000   10300001 00104100000000000888000000000000     
100   95030301100124570000000000050000000000050000002000000010410403040150422042842184800304000006745536   1030000200030000   333800010001203104000003327KBZPay                 Yangon        MMR11003040150422042840304000000000000000   10300001F05104100000000010500000000000000     
100   62911028202502480000000000006870000000006870002000000010410403040617402096562184800304265471240062   1030000900030000   541119000144190110000000083SeinGayHarParami Cente YANGON        MMR11003040617402096560304000000000000000   10300001F00104100000000000412000000000000     
100   95050314190972620000000000008300000000008300002000000010410403040927102150812840670304541571510062   1030000900030000   541119001074190110000000872Sein Gay Har Hledan    YANGONUT      MMR11003040927102150810304000000000000000   10300001F00104100000000002075000000000000     
100   62911028202132460000000000072500000000072500002000000010410403040559312091592184800304975291231062   1030000900030000   573219001178190110000000934UNIQUE Pansodan        YANGONADA     MMR11003040559312091590304000000000000000   10300001F00104100000000004350000000000000     
100   95050313400081980000000000035000000000035000002000000010410403041151382138020386660304000006750508   1030000200030000   333800010001203104000003327KBZPay                 Yangon        MMR11003041151382138020304000000000000000   10300001F05104100000000007350000000000000     
100   95030364439875210000000000018522000000018522002000000010410403040711412111612184800304181411341062   1030000900030000   541119001250190110000000955City Mart JS C 9       YANGONUT      MMR11003040711412111610304000000000000000   10300001F00104100000000001111000000000000     
100   62443100399918110000000000035280000000035280002000000010410403040717282113350342930304296471328062   1030000900030000   581219000032190110000000040Hot Pot King Time City YANGONUT      MMR11003040717282113350304000000000000000   10300001F00104100000000014994000000000000     
100   95050310553090700000000000009775000000009775002000000010410403040705172109818435160304070351317062   1030000900030000   541119000124190110000000080Sein Gay Har BAK       YANGONADA     MMR11003040705172109810304000000000000000   10300001F00104100000000002444000000000000     
100   95050313710136610000000000010999000000010999002000000010410403040946532156513301800304891161653062   1030000900030000   541119000113190110000000077Sein Gay Har Chinatown YANGON        MMR11003040946532156510304000000000000000   10300001F00104100000000002750000000000000     
100   95050316785465380000000000002940000000002940002000000010410403041553242324553194840304000006751639   1020000200030000   333400010001204104000000281Myanmar Soft-Gate Tech Yangon        MMR11003041553242324550304000000000000000   10300001F05104100000000000617000000000000     
100   95030363083688740000000000032350000000032350002000000010410403040548282088542184800304786181228062   1030000900030000   541119001206190110000000948City Mart YK C 4       YANGONAUNG    MMR11003040548282088540304000000000000000   10300001F00104100000000001941000000000000     
100   62911028202418410000000000011700000000011700002000000010410403040451022073442184800304870211102062   1030000900030000   591219000601190110000000441Shwe Ohh Pharmacy St-3 YANGON        MMR11003040451022073440304000000000000000   10300001F00104100000000000702000000000000     
100   62911028202031710000000000073650000000073650002000000010410403040836332136422184800304675061533062   1030000900030000   541119001189190110000000942City Mart HDC C 4      YANGONUT      MMR11003040836332136420304000000000000000   10300001F00104100000000004419000000000000     
100   62443100399918110000000000048686000000048686002000000010410403040836372136453782440304676061537062   1030000900030000   541119001247190110000000955City Mart JS C 6       YANGONUT      MMR11003040836372136450304000000000000000   10300001F00104100000000012172000000000000     
100   95050313836159580000000000014150000000014150002000000010410403040942052155156606770304806121605062   1030000900030000   541119000113190110000000077Sein Gay Har Chinatown YANGON        MMR11003040942052155150304000000000000000   10300001F00104100000000003538000000000000     
100   62911028202115700000000000023210000000023210002000000010410403041301332213062184800304572311933062   1030000900030000   581219001443190110000001047Noodle Bowl Sayarsan   YANGON        MMR11003041301332213060304000000000000000   10300001F00104100000000002367000000000000     
100   62911028202116530000000000034400000000034400002000000010410403040418002064502184800304345481000062   1030000900030000   591219000969190110000000776Shwe Ohh Pharmacy St ( YANGONADA     MMR11003040418002064500304000000000000000   10300001F00104100000000002064000000000000     
100   95050310553090700000000000013502000000013502002000000010410403040650412106132236910304869201341062   1030000900030000   541119000122190110000000080Sein Gay Har BAK       YANGONADA     MMR11003040650412106130304000000000000000   10300001F00104100000000003376000000000000     
100   95050314190972620000000000008500000000008500002000000010410403040939352154423386900304762091635062   1030000900030000   541119001189190110000000942City Mart HDC C 4      YANGONUT      MMR11003040939352154420304000000000000000   10300001F00104100000000002125000000000000     
100   62911028202298040000000000060000000000060000002000000010410403040331492474792184800304206310247479   1040001600030000   591220000043000000010000041Mingalar Pharmacy      Yangon        MMR11003040331492474790304000000000000000   10300001F00104100000000003600000000000000     
100   95050320047636150000000000027000000000027000002000000010410403040555112844648712310304332241201062   1030000300030000   555510111517104519000009890Unique Mobile 1                      MMR11003040555112844640304000000000000000   10300001 00104100000000006480000000000000     
100   95050319996628650000000000000980000000000980002000000010410403041153192319402039140304000006750514   1020000200030000   333400010001204104000000281Myanmar Soft-Gate Tech Yangon        MMR11003041153192319400304000000000000000   10300001F05104100000000000206000000000000     
100   62911028202446540000000000102700000000102700002000000010410403040212362444802184800304206309244480   1040001600030000   591220000287000000010000275Shwe Ohh Pharmacy (Wit Yangon        MMR11003040212362444800304000000000000000   10300001F00104100000000006162000000000000     
100   95050314396102920000000000090000000000090000002000000010410403040757542754602882030304000006748782   1030000200030000   333800010001203104000003327KBZPay                 Yangon        MMR11003040757542754600304000000000000000   10300001F05104100000000018900000000000000     
100   95030301100360840000000000033500000000033500002000000010410403040318442822612184800304410470905062   1030000300030000   555510111517104519000009890Unique Mobile 1                      MMR11003040318442822610304000000000000000   10300001 00104100000000002010000000000000     
100   95050322295410690000000000042401000000042401002000000010410403040225392817929250470304736550834062   1030000500030000   555610118960104519000016137City Mart South Okkala WZYD BR       MMR11003040225392817920304000000000000000   10300001 00104100000000010601000000000000     
100   62443101057131720000000000148300000000148300002000000010410403040810222867320378590304479431433062   1030000500030000   555610112240104519000010487Ocean Super Center St  ohn           MMR11003040810222867320304000000000000000   10300001 00104100000000037075000000000000     
100   62911028202777790000000000007700000000007700002000000010410403041554462446172184800304000006751644   1030000200030000   333800010001203104000003327KBZPay                 Yangon        MMR11003041554462446170304000000000000000   10300001F05104100000000001617000000000000     
100   95030301100121840000000000127600000000127600002000000010410403040442472833922184800304863111132062   1030000300030000   555510124694104519000020166Makro Myanmar                        MMR11003040442472833920304000000000000000   10300001 00104100000000007656000000000000     
100   95050319220344710000000000000980000000000980002000000010410403040656502650538931950304000006748217   1020000200030000   333400010001204104000000281Myanmar Soft-Gate Tech Yangon        MMR11003040656502650530304000000000000000   10300001F05104100000000000206000000000000     
100   62443100372702000000000000055000000000055000002000000010410403040855212635186066250304206315263518   1040001600030000   598320000658000000010000527Shwe Taung Energy (YGN Yangon        MMR11003040855212635180304000000000000000   10300001F00104100000000006600000000000000     
100   95030301100126970000000000168050000000168050002000000010410403040949352663092184800304206316266309   1040001600030000   591220000287000000010000275Shwe Ohh Pharmacy (Wit Yangon        MMR11003040949352663090304000000000000000   10300001F00104100000000010083000000000000     
100   62443100381661260000000000007000000000007000002000000010410403041128082743180897240304206318274318   1040001600030000   591220000284000000010000272Shwe Ohh Pharmacy (San Yangon        MMR11003041128082743180304000000000000000   10300001F00104100000000001680000000000000     
100   62911028202269410000000000009000000000009000002000000010410403040654542854322184800304706241341062   1030000300030000   555510125170104519000021039G N G Convenience Stor G0395F        MMR11003040654542854320304000000000000000   10300001 00104100000000000540000000000000     
100   62911028202133520000000000006795000000006795002000000010410403041205262200362184800304799351826062   1030000900030000   541119001195190110000000942City Mart HDC C 10     YANGONUT      MMR11003041205262200360304000000000000000   10300001F00104100000000000408000000000000     
100   95050310332595380000000000004900000000004900002000000010410403040853192319929371220304000006749262   1020000200030000   333400010001204104000000281Myanmar Soft-Gate Tech Yangon        MMR11003040853192319920304000000000000000   10300001F05104100000000001029000000000000     
100   95050318242219520000000000000980000000000980002000000010410403041041121112146351480304000006750114   1020000200030000   333400010001204104000000281Myanmar Soft-Gate Tech Yangon        MMR11003041041121112140304000000000000000   10300001F05104100000000000206000000000000     
100   95050315110306410000000000001960000000001960002000000010410403040040391039666200790304000006745286   1020000200030000   333400010001204104000000281Myanmar Soft-Gate Tech Yangon        MMR11003040040391039660304000000000000000   10300001F05104100000000000412000000000000     
100   95050313830289390000000000050400000000050400002000000010410403040235380538710576360304000006745811   1030000200030000   333800010001203104000003327KBZPay                 Yangon        MMR11003040235380538710304000000000000000   10300001F05104100000000010584000000000000     
100   62443100364681690000000000100000000000100000002000000010410403040824042132553612240304439541404062   1030000900030000   541119001212190110000000948City Mart YK C 10      YANGONAUNG    MMR11003040824042132550304000000000000000   10300001F00104100000000025000000000000000     
100   62911028202446540000000000055950000000055950002000000010410403040429302067772184800304538591030062   1030000900030000   581219000368190110000000241Beauty In The Pot (PHS YANGON        MMR11003040429302067770304000000000000000   10300001F00104100000000005707000000000000     
100   62911028202212490000000000034000000000034000002000000010410403040447482509532184800304206311250953   1040001600030000   569120000925000000010000672Generation Concept Sto Ygn           MMR11003040447482509530304000000000000000   10300001F00104100000000002040000000000000     
100   95050317084233280000000000027000000000027000002000000010410403040623105310224655270304000006747932   1030000200030000   333800010001203104000003327KBZPay                 Yangon        MMR11003040623105310220304000000000000000   10300001F05104100000000005670000000000000     
100   62911028202228250000000000031992000000031992002000000010410403041051542897982184800304847291736062   1030000500030000   555610112235104519000010487Ocean Super Center St  ohn           MMR11003041051542897980304000000000000000   10300001 00104100000000001920000000000000     
100   95050315110306410000000000001960000000001960002000000010410403041300033003764918630304000006750877   1020000200030000   333400010001204104000000281Myanmar Soft-Gate Tech Yangon        MMR11003041300033003760304000000000000000   10300001F05104100000000000412000000000000     
100   95050318575030940000000000009800000000009800002000000010410403041219494949653010860304000006750667   1020000200030000   333400010001204104000000281Myanmar Soft-Gate Tech Yangon        MMR11003041219494949650304000000000000000   10300001F05104100000000002058000000000000     
100   95050310816569570000000000050000000000050000002000000010410403040322125212741122590304000006746232   1030000200030000   333800010001203104000003327KBZPay                 Yangon        MMR11003040322125212740304000000000000000   10300001F05104100000000010500000000000000     
100   62911028202150190000000000030000000000030000002000000010410403041135352904132184800304730041803062   1030000300030000   888810125940104519000021285Shwe Taung Energy CoLt               MMR11003041135352904130304000000000000000   10300001 00104100000000000900000000000000     
100   95050323133124350000000000025000000000025000002000000010410403041003293329215209570304000006749839   1030000200030000   333800010001203104000003327KBZPay                 Yangon        MMR11003041003293329210304000000000000000   10300001F05104100000000005250000000000000     
100   95050313062063490000000000002940000000002940002000000010410403041427255725202854450304000006751325   1020000200030000   333400010001204104000000281Myanmar Soft-Gate Tech Yangon        MMR11003041427255725200304000000000000000   10300001F05104100000000000617000000000000     
100   62911028202234680000000000003500000000003500002000000010410403041007202887192184800304249351637062   1030000500030000   555610110574104519000009164City Mart China Town P int Cen       MMR11003041007202887190304000000000000000   10300001 00104100000000000210000000000000     
100   95050319470122050000000000060750000000060750002000000010410403041206432909653095950304428351800062   1030000500030000   555610110563104519000009163City Mart Ayeyarwon Br nch           MMR11003041206432909650304000000000000000   10300001 00104100000000015188000000000000     
100   95050327531396450000000000009800000000009800002000000010410403041301303130989961180304000006750885   1020000200030000   333400010001204104000000281Myanmar Soft-Gate Tech Yangon        MMR11003041301303130980304000000000000000   10300001F05104100000000002058000000000000     
100   95050315474529910000000000022000000000022000002000000010410403041601193119784762230304000006751667   1030000200030000   3333000100012031040000040282C2P (Myanmar) Co. Ltd Yangon        MMR11003041601193119780304000000000000000   10300001F05104100000000010000000000000000     
100   95050318597867880000000000024000000000024000002000000010410403041018114811876181280304000006749955   1030000200030000   333800010001203104000003327KBZPay                 Yangon        MMR11003041018114811870304000000000000000   10300001F05104100000000005040000000000000     
100   62911028202786290000000000030000000000030000002000000010410403041217524752662184800304000006750665   1030000200030000   333800010001203104000003327KBZPay                 Yangon        MMR11003041217524752660304000000000000000   10300001F05104100000000006300000000000000     
100   95050325139996190000000000003300000000003300002000000010410403040304163416511292780304000006746047   1030000200030000   333300010001203104000003632Myanmar Tradenet Test  Yangon        MMR11003040304163416510304000000000000000   10300001F05104100000000010000000000000000     
100   62443100378297160000000000004900000000004900002000000010410403041203303330741954050304000006750572   1020000200030000   333400010001204104000000281Myanmar Soft-Gate Tech Yangon        MMR11003041203303330740304000000000000000   10300001F05104100000000001029000000000000     
100   95050316601084530000000000000980000000000980002000000010410403040316304630745909850304000006746151   1020000200030000   333400010001204104000000281Myanmar Soft-Gate Tech Yangon        MMR11003040316304630740304000000000000000   10300001F05104100000000000206000000000000     
100   95030320108927800000000000150000000000150000002000000010410403020535290000952184800302206105000095   1030000600030000   581300002341315799420001626HTUNHTUNOOLIQUOR PARA  YANGON        MMR11003020535290000950302000000000000000   10300001 00104100000000015300000000000000     
100   62911028202023630000000000031000000000031000002000000010410403011228030062422184800301206012006242   1030000600030000   554100002324315799420000481DENKO NORTH OKKALAPA   YANGON        MMR11003011228030062420301000000000000000   10300001 00104100000000000930000000000000     
100   62443100323428970000000000036989000000036989002000000010410403020103220076429082630302206101007642   1030000600030000   581200000526315799420000143SIGNATURE FINEDINING 1 YANGON        MMR11003020103220076420302000000000000000   10300001 00104100000000015721000000000000     
100   62911028202204490000000000052000000000052000002000000010410403020447570566522184800302206104056652   1030000600030000   554100002085315799420000471DENKO BAHAN            YANGON        MMR11003020447570566520302000000000000000   10300001 00104100000000001560000000000000     
100   62911028202150190000000000030000000000030000002000000010410403020458410566552184800302206104056655   1030000600030000   554100002085315799420000471DENKO BAHAN            YANGON        MMR11003020458410566550302000000000000000   10300001 00104100000000000900000000000000     
100   95030301100126550000000000035000000000035000002000000010410403020434490547652184800302206104054765   1030000600030000   554100000952315799420000474DENKO N.DAGON - 1      YANGON        MMR11003020434490547650302000000000000000   10300001 00104100000000001050000000000000     
100   62911028202154640000000000014350000000014350002000000010410403030706290013872184800303206213001387   1030000500030000   581220024401000015812200244SHWE LAR HOT POT       PTN           MMR11003030706290013870303000000000000000   10300001 00104100000000001464000000000000     
100   95050326094581320000000000005700000000005700002000000010410403030902190009539838070303206215000953   1030000500030000   531120156007000045311201560GAMONE PWINT           PTN           MMR11003030902190009530303000000000000000   10300001 00104100000000001368000000000000     
100   62911028202104650000000000037135000000037135002000000010410403031156550122052184800303206218012205   1030000500030000   598320001003000015172200010MAX ENERGY             PTN           MMR11003031156550122050303000000000000000   10300001 00104100000000001114000000000000     
100   95030301100121270000000000033250000000033250002000000010410403030629260003642184800303206212000364   1030000500030000   573220039601000065732200396REMAX                  PTN           MMR11003030629260003640303000000000000000   10300001 00104100000000001995000000000000     
100   62911028202132460000000000008820000000008820002000000010410403031041110007802184800303206217000780   1030000500030000   531120155806000045311201558GAMONE PWINT           PTN           MMR11003031041110007800303000000000000000   10300001 00104100000000000529000000000000     
100   95050328035424750000000000016000000000016000002000000010410403030922530007124298730303206215000712   1030000500030000   569120102701008205691201027ESCORT                 PTN           MMR11003030922530007120303000000000000000   10300001 00104100000000003840000000000000     
100   62911028202169750000000000012200000000012200002000000010410403030624270066792184800303206212006679   1030000500030000   541120020801022205411200208ORANGE (TAMWE)         PTN           MMR11003030624270066790303000000000000000   10300001 00104100000000000732000000000000     
100   95050315955808830000000000015000000000015000002000000010410403030041240131868616990303206207013186   1030000500030000   598320001102000015172200011MAX ENERGY             PTN           MMR11003030041240131860303000000000000000   10300001 00104100000000001800000000000000     
100   95050315955808830000000000023716000000023716002000000010410403030043570131873234060303206207013187   1030000500030000   598320001102000015172200011MAX ENERGY             PTN           MMR11003030043570131870303000000000000000   10300001 00104100000000002846000000000000     
100   62911028202136750000000000047000000000047000002000000010410403031157550048642184800303206218004864   1030000500030000   598320001701000015172200017MAX ENERGY             PTN           MMR11003031157550048640303000000000000000   10300001 00104100000000001410000000000000     
100   95050326094581320000000000011300000000011300002000000010410403030933330017255355540303206216001725   1030000500030000   531120156008000045311201560GAMONE PWINT           PTN           MMR11003030933330017250303000000000000000   10300001 00104100000000002712000000000000     
100   95030331635936620000000000038903000000038903002000000010410403031229380122122184800303206218012212   1030000500030000   598320001003000015172200010MAX ENERGY             PTN           MMR11003031229380122120303000000000000000   10300001 00104100000000001167000000000000     
100   95050312867570630000000000011875000000011875002000000010410403030732490002574199850303206214000257   1030000500030000   573220038801000015732200388REMAX                  PTN           MMR11003030732490002570303000000000000000   10300001 00104100000000002850000000000000     
100   62911028202831990000000000005500000000005500002000000010410403030144140032982184800303206201003298   1030000600030000   554100000746315799420000324DENKO SHANKALAY KYUN   MANDALAY      MMR11003030144140032980303000000000000000   10300001 00104100000000000165000000000000     
100   62911028202170490000000000040000000000040000002000000010410403030841460130802184800303206215013080   1030000500030000   598320001402000015172200014MAX ENERGY             PTN           MMR11003030841460130800303000000000000000   10300001 00104100000000001200000000000000     
100   62911028202401160000000000069100000000069100002000000010410403031023570003852184800303206216000385   1030000500030000   806220172406013008062201724GRAND HANTHA HOSPITAL  PTN           MMR11003031023570003850303000000000000000   10300001 00104100000000004146000000000000     
100   95050321232876860000000000091000000000091000002000000010410403030251040060365007290303206202006036   1030000600030000   554100002328315799420001235DENKO NAY PYI TAW 2    NAYPYITAW     MMR11003030251040060360303000000000000000   10300001 00104100000000010920000000000000     
100   62911028202136750000000000055000000000055000002000000010410403030845490048852184800303206215004885   1030000500030000   598320001702000015172200017MAX ENERGY             PTN           MMR11003030845490048850303000000000000000   10300001 00104100000000001650000000000000     
100   62911028202136750000000000008000000000008000002000000010410403030848480048862184800303206215004886   1030000500030000   598320001702000015172200017MAX ENERGY             PTN           MMR11003030848480048860303000000000000000   10300001 00104100000000000240000000000000     
100   62443100308767300000000003000000000003000000002000000010410403031228420007261929820303206212000726   1030000600030000   573200001086315799420000543MYOSATTHIT ELECTRONIC  MONYWA        MMR11003031228420007260303000000000000000   10300001 00104100000000720000000000000000     
100   95050319286546940000000000049500000000049500002000000010410403030201090018258872280303206208001825   1030000500030000   591220132901008605912201329THEIK DI WIN SHOP      PTN           MMR11003030201090018250303000000000000000   10300001 00104100000000011880000000000000     
100   62443100364681690000000000022000000000022000002000000010410403030856500184587128780303206215018458   1030000500030000   598320001601000015172200016MAX ENERGY             PTN           MMR11003030856500184580303000000000000000   10300001 00104100000000002640000000000000     
100   62911028202169750000000000035000000000035000002000000010410403030636060161082184800303206213016108   1030000500030000   598320002102000015172200021MAX ENERGY             PTN           MMR11003030636060161080303000000000000000   10300001 00104100000000001050000000000000     
100   62911028202321130000000000030000000000030000002000000010410403030426070615462184800303206204061546   1030000600030000   554100000957315799420000480DENKO N.DAGON - 3      YANGON        MMR11003030426070615460303000000000000000   10300001 00104100000000000900000000000000     
100   62911028202668140000000000056000000000056000002000000010410403031010460616912184800303206210061691   1030000600030000   554100000957315799420000480DENKO N.DAGON - 3      YANGON        MMR11003031010460616910303000000000000000   10300001 00104100000000001680000000000000     
100   62443100327902100000000000060000000000060000002000000010410403031219430187176972370303206218018717   1030000500030000   598320001902000015172200019MAX ENERGY             PTN           MMR11003031219430187170303000000000000000   10300001 00104100000000007200000000000000     
100   95030331635936620000000000020000000000020000002000000010410403030412500209232184800303206210020923   1030000500030000   598320001301000015172200013MAX ENERGY             PTN           MMR11003030412500209230303000000000000000   10300001 00104100000000000600000000000000     
100   62911028202448030000000000100000000000100000002000000010410403030728460185952184800303206213018595   1030000500030000   598320001902000015172200019MAX ENERGY             PTN           MMR11003030728460185950303000000000000000   10300001 00104100000000003000000000000000     
100   62443100317863910000000000050000000000050000002000000010410403030032220614800269470303206200061480   1030000600030000   554100000957315799420000480DENKO N.DAGON - 3      YANGON        MMR11003030032220614800303000000000000000   10300001 00104100000000006000000000000000     
100   95050324411430900000000000040000000000040000002000000010410403030902290690561490550303206209069056   1030000600030000   554100000946315799420000471DENKO BAHAN            YANGON        MMR11003030902290690560303000000000000000   10300001 00104100000000004800000000000000     
100   62911028202444490000000000045000000000045000002000000010410403031326090187402184800303206219018740   1030000500030000   598320001902000015172200019MAX ENERGY             PTN           MMR11003031326090187400303000000000000000   10300001 00104100000000001350000000000000     
100   62911028202533900000000000020000000000020000002000000010410403031047100161722184800303206217016172   1030000500030000   598320002102000015172200021MAX ENERGY             PTN           MMR11003031047100161720303000000000000000   10300001 00104100000000000600000000000000     
100   95050326590859670000000000017750000000017750002000000010410403040622302849202492200304963521239062   1030000300030000   555510114367104519000012359MGOU IV                              MMR11003040622302849200304000000000000000   10300001 00104100000000004260000000000000     
100   62443100372702000000000000208800000000208800002000000010410403041043272895049414950304411131750062   1030000500030000   555610112233104519000010487Ocean Super Center St  ohn           MMR11003041043272895040304000000000000000   10300001 00104100000000052200000000000000     
100   95050311876202380000000000040000000000040000002000000010410403021037070314810044120302206110031481   1030000600030000   554100001865315799420001235DENKO NAY PYI TAW 2    NAYPYITAW     MMR11003021037070314810302000000000000000   10300001 00104100000000004800000000000000     
100   62911028202290100000000000074947000000074947002000000010410403041010440033062184800304206316003306   1020000200030000   806200105002300018062000010MWD BANK               YGN           MMR11003041010440033060304000000000000000   10300001 00104100000000004497000000000000     
100   62911028202233510000000000062950000000062950002000000010410403040935322655152184800304206316265515   1040001600030000   591220000283000000010000271Shwe Ohh Pharmacy ( Ky Yangon        MMR11003040935322655150304000000000000000   10300001F00104100000000003777000000000000     
100   62443100376865460000000000024500000000024500002000000010410403041058532716589670240304206317271658   1040001600030000   591220000271000000010000259Shwe Ohh Pharmacy (Gwa Yangon        MMR11003041058532716580304000000000000000   10300001F00104100000000005880000000000000     
100   95030301100121270000000000040100000000040100002000000010410403030654240009202184800303206213000920   1030000500030000   569120037501016505691200375SOON FASHION SHOP      PTN           MMR11003030654240009200303000000000000000   10300001 00104100000000002406000000000000     
100   62911028202446540000000000059500000000059500002000000010410403040226512450332184800304206309245033   1040001600030000   591220000287000000010000275Shwe Ohh Pharmacy (Wit Yangon        MMR11003040226512450330304000000000000000   10300001F00104100000000003570000000000000     
100   95050316818236190000000000002940000000002940002000000010410403032329515951341839010304000006745201   1020000200030000   333400010001204104000000281Myanmar Soft-Gate Tech Yangon        MMR11003032329515951340304000000000000000   10300001F05104100000000000617000000000000     
100   95050318214455130000000000000980000000000980002000000010410403040246591659860150870304000006745912   1020000200030000   333400010001204104000000281Myanmar Soft-Gate Tech Yangon        MMR11003040246591659860304000000000000000   10300001F05104100000000000206000000000000     
100   95050315919368400000000000001960000000001960002000000010410403040311384138694938140304000006746129   1020000200030000   333400010001204104000000281Myanmar Soft-Gate Tech Yangon        MMR11003040311384138690304000000000000000   10300001F05104100000000000412000000000000     
100   62911028202225440000000000004000000000004000002000000010410403040206502819512184800304994170951062   1030000300030000   444410118802104519000016003SP Bakery Yangon SR 3                MMR11003040206502819510304000000000000000   10300001 00104100000000000408000000000000     
100   95050314534800510000000000030200000000030200002000000010410403040852052205507718730304000006749250   1030000200030000   333800010001203104000003327KBZPay                 Yangon        MMR11003040852052205500304000000000000000   10300001F05104100000000006342000000000000     
100   95050316377977350000000000008000000000008000002000000010410403040955452545853642180304000006749768   1030000200030000   3338000100012031040000040022C2P (Myanmar) Co. Ltd Yangon        MMR11003040955452545850304000000000000000   10300001F05104100000000001680000000000000     
100   95050313113158460000000000002940000000002940002000000010410403041559022902673109740304000006751664   1020000200030000   333400010001204104000000281Myanmar Soft-Gate Tech Yangon        MMR11003041559022902670304000000000000000   10300001F05104100000000000617000000000000     
100   95030301100344690000000000030000000000030000002000000010410403020124520687382184800302206101068738   1030000600030000   554100000946315799420000471DENKO BAHAN            YANGON        MMR11003020124520687380302000000000000000   10300001 00104100000000000900000000000000     
100   95050317072727910000000000001960000000001960002000000010410403040513574357763378820304000006747342   1020000200030000   333400010001204104000000281Myanmar Soft-Gate Tech Yangon        MMR11003040513574357760304000000000000000   10300001F05104100000000000412000000000000     
100   62443100372702000000000000069600000000069600002000000010410403040818152871052215050304990061520062   1030000500030000   555610114570104519000012532City Mart Ahlone Branc               MMR11003040818152871050304000000000000000   10300001 00104100000000017400000000000000     
100   95030301100121840000000000200000000000200000002000000010410403041000593059952184800304000006749812   1030000200030000   333800010001203104000003327KBZPay                 Yangon        MMR11003041000593059950304000000000000000   10300001F05104100000000042000000000000000     
100   62911028202440680000000000006150000000006150002000000010410403041326582917702184800304644551939062   1030000500030000   555610120970104519000017733City Express MCS 14                  MMR11003041326582917700304000000000000000   10300001 00104100000000000369000000000000     
100   62911028202000450000000000002940000000002940002000000010410403040325145514412184800304000006746261   1020000200030000   333400010001204104000000281Myanmar Soft-Gate Tech Yangon        MMR11003040325145514410304000000000000000   10300001F05104100000000000617000000000000     
100   95050313113158460000000000000980000000000980002000000010410403040126535653061328440304000006745426   1020000200030000   333400010001204104000000281Myanmar Soft-Gate Tech Yangon        MMR11003040126535653060304000000000000000   10300001F05104100000000000206000000000000     
100   95050313102162270000000000046850000000046850002000000010410403040938522881803897470304486071628062   1030000500030000   555610110574104519000009164City Mart China Town P int Cen       MMR11003040938522881800304000000000000000   10300001 00104100000000011713000000000000     
100   62911028202631420000000000005800000000005800002000000010410403041042032895562184800304503171713062   1030000500030000   555610110572104519000009164City Mart China Town P int Cen       MMR11003041042032895560304000000000000000   10300001 00104100000000000348000000000000     
100   95050312498129060000000000002940000000002940002000000010410403040104293429683066010304000006745350   1020000200030000   333400010001204104000000281Myanmar Soft-Gate Tech Yangon        MMR11003040104293429680304000000000000000   10300001F05104100000000000617000000000000     
