100   95030301100124990000000000044284000000044284002000000010410403050916362160342184800305463660181910   1040001400030000   806210000094028062100000766Yoma OUE Pun Hlaing Ho pital  Yoma O MMR11003050916362160340305000000000000000   10300001 00104100000000002657000000000000     
100   62911028202161240000000000007343000000007343002000000010410403050958160050482184800305000743740202   1030000200030000   541188001023000008000000298KBZ BANK               CITY MART - M MMR11003050958160050480305000000000000000   10300001 00104100000000000441000000000000     
100   95050312498129060000000000003920000000003920002000000010410403051048231823647831850305000006755274   1020000200030000   333400010001204104000000281Myanmar Soft-Gate Tech Yangon        MMR11003051048231823640305000000000000000   10300001F05104100000000000823000000000000     
100   95050312498129060000000000000980000000000980002000000010410403051032430243046009170305000006755215   1020000200030000   333400010001204104000000281Myanmar Soft-Gate Tech Yangon        MMR11003051032430243040305000000000000000   10300001F05104100000000000206000000000000     
100   95030301100419020000000000005800000000005800002000000010410403050508182323332184800305837381118063   1030000900030000   541119001195190110000000942City Mart HDC C 10     YANGONUT      MMR11003050508182323330305000000000000000   10300001F00104100000000000348000000000000     
100   62911028202418410000000000015500000000015500002000000010410403040526240008922184800304206311000892   1030000500030000   531120155712000045311201557GAMONE PWINT           PTN           MMR11003040526240008920304000000000000000   10300001 00104100000000000930000000000000     
100   95030301100119050000000000300000000000300000002000000010410403051240531053312184800305000006755764   1030000200030000   333800010001203104000003327KBZPay                 Yangon        MMR11003051240531053310305000000000000000   10300001F05104100000000063000000000000000     
100   62911028202169750000000000218536000000218536002000000010410403051059140202682184800305000743743111   1030000200030000   541188001038000008000000010KBZ BANK               MARKETPLACE - MMR11003051059140202680305000000000000000   10300001 00104100000000013112000000000000     
100   95050314996291580000000000000980000000000980002000000010410403051355072507368498830305000006756105   1020000200030000   333400010001204104000000281Myanmar Soft-Gate Tech Yangon        MMR11003051355072507360305000000000000000   10300001F05104100000000000206000000000000     
100   62911028202162640000000000036500000000036500002000000010410403050544042333472184800305543141204063   1030000900030000   571219001537190110000001113Pro 1 Plus Store-2     YANGONADON    MMR11003050544042333470305000000000000000   10300001F00104100000000002190000000000000     
100   95050316348780660000000000042500000000042500002000000010410403050950382400407236170305325201638063   1030000900030000   541119001519190110000001102Ocean MGDTM C-12       YANGONADON    MMR11003050950382400400305000000000000000   10300001F00104100000000010625000000000000     
100   62911028202163630000000000099750000000099750002000000010410403051058592424802184800305235281759063   1030000900030000   591219000695190110000000526Shwe Ohh Pharmacy ST-2 YANGONNGKUUN  MMR11003051058592424800305000000000000000   10300001F00104100000000005985000000000000     
100   95030337100000390000000000217100000000217100002000000010410403051110452428702184800305527401745063   1030000900030000   591219000796190110000000628Shwe Ohh Pharmacy ST-3 YANGONMYOTHIT MMR11003051110452428700305000000000000000   10300001F00104100000000013026000000000000     
100   95030301100338180000000000220000000000220000002000000010410403051110512428722184800305529401751063   1030000900030000   481219000910190110000000719Snoopy Mobile ( 1 )Tar YANGON        MMR11003051110512428720305000000000000000   10300001F00104100000000013200000000000000     
100   62911028202029420000000000052509000000052509002000000010410403050450192317222184800305402201119063   1030000900030000   554119000997190110000000803Puma Power SOKL        YANGONOKKALAP MMR11003050450192317220305000000000000000   10300001F00104100000000001575000000000000     
100   95050325784857510000000000003900000000003900002000000010410403050850332381719874160305895201533063   1030000900030000   541119001206190110000000948City Mart YK C 4       YANGONAUNG    MMR11003050850332381710305000000000000000   10300001F00104100000000000975000000000000     
100   62911028202700480000000000053100000000053100002000000010410403050458162320412184800305637281116063   1030000900030000   569919000580190110000000420D & C Myanmar (JC)     YANGONUT      MMR11003050458162320410305000000000000000   10300001F00104100000000003186000000000000     
100   95050320205194540000000000045817000000045817002000000010410403051123072432289994910305801531707063   1030000900030000   541119001266190110000000958City Mart PLST C9      YANGONMYOTHIT MMR11003051123072432280305000000000000000   10300001F00104100000000011455000000000000     
100   95050317343045830000000000001960000000001960002000000010410403050042171217830776490305000006752111   1020000200030000   333400010001204104000000281Myanmar Soft-Gate Tech Yangon        MMR11003050042171217830305000000000000000   10300001F05104100000000000412000000000000     
100   62911028202101190000000000000500000000000500002000000010410403051412364236472184800305000006756180   1030000200030000   333800010001203104000003327KBZPay                 Yangon        MMR11003051412364236470305000000000000000   10300001F05104100000000000105000000000000     
100   62911028202228250000000000073000000000073000002000000010410403041421170004942184800304000743698600   1030000200030000   596588001920000008000005403KBZ BANK               MAHAR SAN USA MMR11003041421170004940304000000000000000   10300001 00104100000000004380000000000000     
100   95050319156544340000000000002940000000002940002000000010410403050235240524138953810305000006752487   1020000200030000   333400010001204104000000281Myanmar Soft-Gate Tech Yangon        MMR11003050235240524130305000000000000000   10300001F05104100000000000617000000000000     
100   62911028202169750000000000010900000000010900002000000010410403050503332969242184800305969331134063   1030000500030000   555610118963104519000016137City Mart South Okkala WZYD BR       MMR11003050503332969240305000000000000000   10300001 00104100000000000654000000000000     
100   62911028202162640000000000015000000000015000002000000010410403041115360019082184800304206317001908   1030000500030000   591220132901008605912201329THEIK DI WIN SHOP      PTN           MMR11003041115360019080304000000000000000   10300001 00104100000000000900000000000000     
100   95050316818236190000000000000980000000000980002000000010410403051255402540930165100305000006755842   1020000200030000   333400010001204104000000281Myanmar Soft-Gate Tech Yangon        MMR11003051255402540930305000000000000000   10300001F05104100000000000206000000000000     
100   62911028202076850000000000002500000000002500002000000010410403050453292329222184800305000006753282   1030000900030000   333400010001202104000002022ACS                    Yangon        MMR11003050453292329220305000000000000000   10300001F05104100000000000525000000000000     
100   62911028202680670000000000177200000000177200002000000010410403050952352401102184800305379221635063   1030000900030000   541119000131190110000000083SeinGayHarParami Cente YANGON        MMR11003050952352401100305000000000000000   10300001F00104100000000010632000000000000     
100   62911028202677390000000000050000000000050000002000000010410403051416582464282184800305636462058063   1030000900030000   554119000345190110000000212New Day Energy PZD     YANGONAUNG    MMR11003051416582464280305000000000000000   10300001F00104100000000001500000000000000     
100   95030313499565480000000000002000000000002000002000000010410403050853422342802184800305000006754703   1030000200030000   333800010001203104000003327KBZPay                 Yangon        MMR11003050853422342800305000000000000000   10300001F05104100000000000420000000000000     
100   95050310427855490000000000000980000000000980002000000010410403051359112911758583930305000006756121   1020000200030000   333400010001204104000000281Myanmar Soft-Gate Tech Yangon        MMR11003051359112911750305000000000000000   10300001F05104100000000000206000000000000     
100   62911028202162640000000000138850000000138850002000000010410403050505122322342184800305770351112063   1030000900030000   541119001514190110000001102Ocean MGDTM C-7        YANGONADON    MMR11003050505122322340305000000000000000   10300001F00104100000000008331000000000000     
100   62443100339191980000000000048000000000048000002000000010410403051028452413662704200305365581645063   1030000900030000   573219001181190110000000937UNIQUE Hlaing          YANGON        MMR11003051028452413660305000000000000000   10300001F00104100000000011520000000000000     
100   95050314365758940000000000029400000000029400002000000010410403050259022952118443240305594420931063   1030000500030000   555610120946104519000017714City Mart Yuzana Dagon Seikkan       MMR11003050259022952110305000000000000000   10300001 00104100000000007350000000000000     
100   95050326154591400000000000017650000000017650002000000010410403050927503019228902440305169561506063   1030000500030000   555610110572104519000009164City Mart China Town P int Cen       MMR11003050927503019220305000000000000000   10300001 00104100000000004413000000000000     
100   62443101057131720000000000060210000000060210002000000010410403051022353031224356690305863511604063   1030000500030000   555610115763104519000013506MarketplaceMyanmarPlaz Branch        MMR11003051022353031220305000000000000000   10300001 00104100000000015053000000000000     
100   95030301100019550000000000009000000000009000002000000010410403040808020005882184800304206314000588   1030000500030000   531120155807000045311201558GAMONE PWINT           PTN           MMR11003040808020005880304000000000000000   10300001 00104100000000000540000000000000     
100   62911028202146650000000000021600000000021600002000000010410403040248080018462184800304206309001846   1030000500030000   591220132901008605912201329THEIK DI WIN SHOP      PTN           MMR11003040248080018460304000000000000000   10300001 00104100000000001296000000000000     
100   62911028202198620000000000083500000000083500002000000010410403050742022363102184800305545121402063   1030000900030000   554119000345190110000000212New Day Energy PZD     YANGONAUNG    MMR11003050742022363100305000000000000000   10300001F00104100000000002505000000000000     
100   62911028202313470000000000042663000000042663002000000010410403050630352345052184800305308001335063   1030000900030000   541119001358190110000000977Ocean PZD C 12         YANGONAUNG    MMR11003050630352345050305000000000000000   10300001F00104100000000002560000000000000     
100   95030301100124570000000000073000000000073000002000000010410403050951192400662184800305343211619063   1030000900030000   573219001180190110000000936UNIQUE UChit Maung     YANGON        MMR11003050951192400660305000000000000000   10300001F00104100000000004380000000000000     
100   95050315099113150000000000002940000000002940002000000010410403051357232723256846340305000006756116   1020000200030000   333400010001204104000000281Myanmar Soft-Gate Tech Yangon        MMR11003051357232723250305000000000000000   10300001F05104100000000000617000000000000     
100   95030364439875210000000000022900000000022900002000000010410403050638522347122184800305440081352063   1030000900030000   541119001250190110000000955City Mart JS C 9       YANGONUT      MMR11003050638522347120305000000000000000   10300001F00104100000000001374000000000000     
100   95050310608512070000000000002940000000002940002000000010410403051455172517173711560305000006756401   1020000200030000   333400010001204104000000281Myanmar Soft-Gate Tech Yangon        MMR11003051455172517170305000000000000000   10300001F05104100000000000617000000000000     
100   95050323067379780000000000100000000000100000002000000010410403050558412841850230260305000006753710   1030000200030000   333800010001203104000003327KBZPay                 Yangon        MMR11003050558412841850305000000000000000   10300001F05104100000000021000000000000000     
100   95050316124652250000000000004900000000004900002000000010410403051158422842381392100305000006755592   1020000200030000   333400010001204104000000281Myanmar Soft-Gate Tech Yangon        MMR11003051158422842380305000000000000000   10300001F05104100000000001029000000000000     
100   95030339867270590000000000041300000000041300002000000010410403050526592973642184800305605561146063   1030000500030000   555610118968104519000016137City Mart South Okkala WZYD BR       MMR11003050526592973640305000000000000000   10300001 00104100000000002478000000000000     
100   62911028202820010000000000034230000000034230002000000010410403051020283030832184800305811491620063   1030000300030000   444410108783104519000007876The Pizza CompanyResta rant II       MMR11003051020283030830305000000000000000   10300001 00104100000000003492000000000000     
100   62911028202076850000000000007500000000007500002000000010410403051103023040262184800305159311747063   1030000500030000   555610103474104519000003432City Mart Junction Zaw na 1          MMR11003051103023040260305000000000000000   10300001 00104100000000000450000000000000     
100   95030301100129110000000000010200000000010200002000000010410403051015382409132184800305008451638063   1030000900030000   591219000610190110000000450Shwe Ohh Pharmacy St-1 YANGONUNG     MMR11003051015382409130305000000000000000   10300001F00104100000000000612000000000000     
100   62911028202496870000000000001500000000001500002000000010410403050409312960122184800305707401039063   1030000500030000   555610124465104519000003432City Mart Junction Zaw na 1          MMR11003050409312960120305000000000000000   10300001 00104100000000000090000000000000     
100   62911028202126850000000000193150000000193150002000000010410403040725290015012184800304206313001501   1030000500030000   503920036604000015039200366PRO-1 HOME CENTER      PTN           MMR11003040725290015010304000000000000000   10300001 00104100000000011589000000000000     
100   62443100313529540000000000004050000000004050002000000010410403041120390004000641950304206317000400   1030000500030000   531120155905000045311201559GAMONE PWINT           PTN           MMR11003041120390004000304000000000000000   10300001 00104100000000000972000000000000     
100   62911028202133520000000000013400000000013400002000000010410403040752590044992184800304206314004499   1030000500030000   541120020901022205411200209ORANGE (HLAING)        PTN           MMR11003040752590044990304000000000000000   10300001 00104100000000000804000000000000     
100   62443100327902100000000000260400000000260400002000000010410403040614060000346903430304206312000034   1030000500030000   569120105501000015691201055MIX (YUZANA PLAZA)     PTN           MMR11003040614060000340304000000000000000   10300001 00104100000000062496000000000000     
100   95030301100425790000000000018000000000018000002000000010410403041122440004692184800304206317000469   1030000500030000   541120129721000045411201297MAKRO MYANMAR          PTN           MMR11003041122440004690304000000000000000   10300001 00104100000000001080000000000000     
100   95050317728825080000000000004700000000004700002000000010410403040756270017937839480304000333435728   1030000300030000   591200000169000000000000084CB BANK                MEDICARE STOR MMR11003040756270017930304000000000000000   10300001F00104100000000001128000000000000     
100   62443100314843770000000000037986000000037986002000000010410403050450532966824471290305648211121063   1030000500030000   555610118969104519000016137City Mart South Okkala WZYD BR       MMR11003050450532966820305000000000000000   10300001 00104100000000009497000000000000     
100   95050312498129060000000000001960000000001960002000000010410403051255562556815122550305000006755848   1020000200030000   333400010001204104000000281Myanmar Soft-Gate Tech Yangon        MMR11003051255562556810305000000000000000   10300001F05104100000000000412000000000000     
100   62911028202665170000000000040648000000040648002000000010410403050437462964152184800305259061120063   1030000500030000   555610108840104519000003432City Mart Junction Zaw na 1          MMR11003050437462964150305000000000000000   10300001 00104100000000002439000000000000     
100   62911028202690240000000000020000000000020000002000000010410403050423432962032184800305954511059063   1030000500030000   555610104050104519000003821City Mart North Point  enter         MMR11003050423432962030305000000000000000   10300001 00104100000000001200000000000000     
100   62911028202169750000000000003860000000003860002000000010410403050616302982572184800305898451252063   1030000300030000   555610125778104519000021591One Stop Kitchen Super arket         MMR11003050616302982570305000000000000000   10300001 00104100000000000232000000000000     
100   62911028202045260000000000005000000000005000002000000010410403050958043026082184800305139271635063   1030000500030000   555610110572104519000009164City Mart China Town P int Cen       MMR11003050958043026080305000000000000000   10300001 00104100000000000300000000000000     
100   62443100360763680000000000236200000000236200002000000010410403050354072957453329380305332221036063   1030000300030000   555510100032104519000000029Myanmar American Visio               MMR11003050354072957450305000000000000000   10300001 00104100000000056688000000000000     
100   95050310178107440000000000050000000000050000002000000010410403050554492449510315350305000006753671   1030000200030000   333800010001203104000003327KBZPay                 Yangon        MMR11003050554492449510305000000000000000   10300001F05104100000000010500000000000000     
100   95050313145843230000000000040430000000040430002000000010410403041015470004859571350304000333456304   1030000300030000   541100000444000000000000319CB BANK                ONESTOP KITCH MMR11003041015470004850304000000000000000   10300001F00104100000000010108000000000000     
100   62443100300743690000000000006000000000006000002000000010410403041322000004994833530304000333479650   1030000300030000   541100000444000000000000319CB BANK                ONESTOP KITCH MMR11003041322000004990304000000000000000   10300001F00104100000000001500000000000000     
100   95050314791376690000000000007850000000007850002000000010410403040224330018942725630304206308001894   1030000500030000   541120025401022205411200254ORANGE 2(MDY)          PTN           MMR11003040224330018940304000000000000000   10300001 00104100000000001963000000000000     
100   62911028202112400000000000026000000000026000002000000010410403040620250061212184800304206312006121   1030000500030000   598320001403000015172200014MAX ENERGY             PTN           MMR11003040620250061210304000000000000000   10300001 00104100000000000780000000000000     
100   95050319216089110000000000009200000000009200002000000010410403040931550002029365500304206316000202   1030000500030000   531120155902000045311201559GAMONE PWINT           PTN           MMR11003040931550002020304000000000000000   10300001 00104100000000002208000000000000     
100   95030346130941600000000000150000000000150000002000000010410403041149090024192184800304000333468570   1030000300030000   806200000192000000000000097CB BANK                AUNG YADANA H MMR11003041149090024190304000000000000000   10300001F00104100000000009000000000000000     
100   62911028202228250000000000041000000000041000002000000010410403040932560004722184800304000743674677   1030000200030000   596588001920000008000005403KBZ BANK               MAHAR SAN USA MMR11003040932560004720304000000000000000   10300001 00104100000000002460000000000000     
100   95030301100337010000000000018500000000018500002000000010410403041149440019892184800304206318001989   1030000500030000   541120025102022205411200251ORANGE (THANLYIN-2)    PTN           MMR11003041149440019890304000000000000000   10300001 00104100000000001110000000000000     
100   62911028202496870000000000005200000000005200002000000010410403050402242959002184800305549331012063   1030000500030000   555610103479104519000003432City Mart Junction Zaw na 6          MMR11003050402242959000305000000000000000   10300001 00104100000000000312000000000000     
100   62911028202496870000000000000800000000000800002000000010410403050409502960582184800305761431041063   1030000500030000   555610108764104519000003432City Mart Junction Zaw na 1          MMR11003050409502960580305000000000000000   10300001 00104100000000000048000000000000     
100   62911028202169750000000000016199000000016199002000000010410403050552432978752184800305342251204063   1030000300030000   555510125152104519000021022One Stop Mart Shopping Mall 0002     MMR11003050552432978750305000000000000000   10300001 00104100000000000972000000000000     
100   95050328035424750000000000152450000000152450002000000010410403050617402982975187710305954481212063   1030000500030000   555610103981104519000003818Ocean Oattara Thiri Na PyiTaw        MMR11003050617402982970305000000000000000   10300001 00104100000000038113000000000000     
100   95050319156544340000000000004900000000004900002000000010410403050330272954144641470305878580947063   1030000300030000   555610125205104519000021068Capital Supermarket 2  Dagon         MMR11003050330272954140305000000000000000   10300001 00104100000000001225000000000000     
100   95030339867270590000000000089939000000089939002000000010410403050524122973072184800305523531150063   1030000500030000   555610118961104519000016137City Mart South Okkala WZYD BR       MMR11003050524122973070305000000000000000   10300001 00104100000000005396000000000000     
100   95050315955808830000000000013100000000013100002000000010410403050819223006928051480305439551419063   1030000300030000   555610125783104519000021591One Stop Kitchen Super arket         MMR11003050819223006920305000000000000000   10300001 00104100000000003275000000000000     
100   62911028202169750000000000007000000000007000002000000010410403050506362969682184800305031351152063   1030000500030000   555610118968104519000016137City Mart South Okkala WZYD BR       MMR11003050506362969680305000000000000000   10300001 00104100000000000420000000000000     
100   95050329252108030000000000025000000000025000002000000010410403041316510011833181050304000333479056   1030000300030000   598300000335000000000000215CB BANK                YANGON PETROL MMR11003041316510011830304000000000000000   10300001F00104100000000003000000000000000     
100   95050315099113150000000000002700000000002700002000000010410403040928350018037798120304000333449378   1030000300030000   591200000169000000000000084CB BANK                MEDICARE STOR MMR11003040928350018030304000000000000000   10300001F00104100000000000648000000000000     
100   62443101065883000000000000014050000000014050002000000010410403040443550000786944790304206311000078   1030000500030000   581220166101000015812201661KRISPY KREME           PTN           MMR11003040443550000780304000000000000000   10300001 00104100000000005972000000000000     
100   62911028202189480000000000023950000000023950002000000010410403040739440006332184800304206314000633   1030000500030000   591220010601014405912200106SHWE OHH PHARMACY      PTN           MMR11003040739440006330304000000000000000   10300001 00104100000000001437000000000000     
100   95050311048637960000000000010100000000010100002000000010410403041018000004877833770304000333456581   1030000300030000   541100000444000000000000319CB BANK                ONESTOP KITCH MMR11003041018000004870304000000000000000   10300001F00104100000000002525000000000000     
100   95050315144611650000000000029950000000029950002000000010410403040736590027839577070304000333432761   1030000300030000   591200000314000000000000195CB BANK                MEDICARE STOR MMR11003040736590027830304000000000000000   10300001F00104100000000007188000000000000     
100   62911028202761360000000000093480000000093480002000000010410403040802410004012184800304206314000401   1030000500030000   569120102801019505691201028MK FASHION SHOP        PTN           MMR11003040802410004010304000000000000000   10300001 00104100000000005609000000000000     
100   62911028202126850000000000060000000000060000002000000010410403040814290207682184800304206314020768   1030000500030000   598320001201000015172200012MAX ENERGY             PTN           MMR11003040814290207680304000000000000000   10300001 00104100000000001800000000000000     
100   62911028202187730000000000150000000000150000002000000010410403050307182951282184800305483360915063   1030000300030000   555510124690104519000020166Makro Myanmar                        MMR11003050307182951280305000000000000000   10300001 00104100000000009000000000000000     
100   62911028202169750000000000028860000000028860002000000010410403050639352986892184800305519091320063   1030000500030000   555610108840104519000003432City Mart Junction Zaw na 1          MMR11003050639352986890305000000000000000   10300001 00104100000000001732000000000000     
100   62911028202461130000000000059500000000059500002000000010410403050633472986902184800305520091321063   1030000500030000   555610110581104519000009164City Mart China Town P int Cen       MMR11003050633472986900305000000000000000   10300001 00104100000000003570000000000000     
100   95030317922148660000000000036000000000036000002000000010410403050745122999882184800305433191445063   1030000300030000   555510123830104519000020024LOccitane City Mall                  MMR11003050745122999880305000000000000000   10300001 00104100000000002160000000000000     
100   62911028202225440000000000003200000000003200002000000010410403051010073029212184800305580421618063   1030000500030000   555610110576104519000009164City Mart China Town P int Cen       MMR11003051010073029210305000000000000000   10300001 00104100000000000192000000000000     
100   62911028202110420000000000021650000000021650002000000010410403050323012953502184800305774540911063   1030000500030000   555610103464104519000003420City Mart Yankin Cente 3             MMR11003050323012953500305000000000000000   10300001 00104100000000001299000000000000     
100   95050311076838860000000000011950000000011950002000000010410403050540472976294932420305966111224063   1030000500030000   555610123194104519000019444Neighbourhood Shwe Moe Kaung         MMR11003050540472976290305000000000000000   10300001 00104100000000002988000000000000     
100   95050318805978240000000000007000000000007000002000000010410403051010253028837321270305533401602063   1030000500030000   555610112255104519000010487Ocean Super Center St  ohn           MMR11003051010253028830305000000000000000   10300001 00104100000000001750000000000000     
100   62911028202446540000000000029000000000029000002000000010410403040104460206322184800304206307020632   1030000500030000   598320001201000015172200012MAX ENERGY             PTN           MMR11003040104460206320304000000000000000   10300001 00104100000000000870000000000000     
100   62443101083052160000000000160000000000160000002000000010410403040800090214024449420304206314021402   1030000500030000   598320001202000015172200012MAX ENERGY             PTN           MMR11003040800090214020304000000000000000   10300001 00104100000000019200000000000000     
100   62911028202194090000000000019343000000019343002000000010410403040755210207632184800304206314020763   1030000500030000   598320001201000015172200012MAX ENERGY             PTN           MMR11003040755210207630304000000000000000   10300001 00104100000000000580000000000000     
100   62911028202484810000000000040000000000040000002000000010410403040945520186512184800304206316018651   1030000500030000   598320001601000015172200016MAX ENERGY             PTN           MMR11003040945520186510304000000000000000   10300001 00104100000000001200000000000000     
100   95050328074436620000000000040000000000040000002000000010410403040106400212314633400304206307021231   1030000500030000   598320001202000015172200012MAX ENERGY             PTN           MMR11003040106400212310304000000000000000   10300001 00104100000000004800000000000000     
100   62911028202418410000000000012282000000012282002000000010410403051359500050752184800305000743754714   1030000200030000   541188001023000008000000298KBZ BANK               CITY MART - M MMR11003051359500050750305000000000000000   10300001 00104100000000000737000000000000     
100   62911028202207460000000000009000000000009000002000000010410403051202140060072184800305000743746315   1030000200030000   541188001071000008000000314KBZ BANK               MARKETPLACE - MMR11003051202140060070305000000000000000   10300001 00104100000000000540000000000000     
100   95030395875796410000000000017050000000017050002000000010410403051151060070432184800305000743745642   1030000200030000   541188001060000008000000314KBZ BANK               MARKETPLACE - MMR11003051151060070430305000000000000000   10300001 00104100000000001023000000000000     
100   95030313499565480000000000012900000000012900002000000010410403050509152972042184800305386481113063   1030000300030000   444410125422104519000021249KFC South Okkalapa Nan awin          MMR11003050509152972040305000000000000000   10300001 00104100000000001316000000000000     
100   62911028202400660000000000010300000000010300002000000010410403050303582951012184800305451330953063   1030000300030000   444410125412104519000021239KFC Parami SGH                       MMR11003050303582951010305000000000000000   10300001 00104100000000001051000000000000     
100   95050315955808830000000000010500000000010500002000000010410403050832483008101441540305641011536063   1030000300030000   555610125780104519000021591One Stop Kitchen Super arket         MMR11003050832483008100305000000000000000   10300001 00104100000000002625000000000000     
100   62911028202482750000000000006143000000006143002000000010410403050513542970922184800305212421129063   1030000300030000   444410116806104519000014353BreadTalk JunctionCity               MMR11003050513542970920305000000000000000   10300001 00104100000000000627000000000000     
100   95030301100124570000000000010900000000010900002000000010410403050648232988212184800305700161345063   1030000300030000   444410123018104519000019288KFC JS                               MMR11003050648232988210305000000000000000   10300001 00104100000000001112000000000000     
100   95050324622440820000000000068500000000068500002000000010410403050746402999549448670305377181405063   1030000500030000   555610110595104519000009166City Mart 47 Branch                  MMR11003050746402999540305000000000000000   10300001 00104100000000017125000000000000     
100   95030301100120440000000000035700000000035700002000000010410403050908293016202184800305762421515063   1030000500030000   555610103479104519000003432City Mart Junction Zaw na 6          MMR11003050908293016200305000000000000000   10300001 00104100000000002142000000000000     
100   95050324250133010000000000015000000000015000002000000010410403050948523309963689700305206416330996   1040001600030000   598320000911000000010000662MMTM - Tamwe           Ygn           MMR11003050948523309960305000000000000000   10300001F00104100000000001800000000000000     
100   95050314401921990000000000000980000000000980002000000010410403051230050005037115420305000006755716   1020000200030000   333400010001204104000000281Myanmar Soft-Gate Tech Yangon        MMR11003051230050005030305000000000000000   10300001F05104100000000000206000000000000     
100   62911028202150190000000000050500000000050500002000000010410403051501060007462184800305000743758557   1030000200030000   541188001010000008000000008KBZ BANK               MARKETPLACE - MMR11003051501060007460305000000000000000   10300001 00104100000000003030000000000000     
100   62911028202492160000000000065050000000065050002000000010410403051148590009682184800305000743745525   1030000200030000   541188001058000008000000314KBZ BANK               MARKETPLACE - MMR11003051148590009680305000000000000000   10300001 00104100000000003903000000000000     
100   62911028202233510000000000014609000000014609002000000010410403051816310013652184800305000743771734   1030000200030000   541188001022000008000000298KBZ BANK               CITY MART - M MMR11003051816310013650305000000000000000   10300001 00104100000000000877000000000000     
100   62911028202120320000000000069230000000069230002000000010410403050459530011252184800305000743744520   1030000200030000   569988000803000008000004614KBZ BANK               JCY-IPANEMA   MMR11003050459530011250305000000000000000   10300001 00104100000000004154000000000000     
100   95030301100126970000000000056900000000056900002000000010410403050601320010372184800305000743748394   1030000200030000   541188000960000008000004886KBZ BANK               EASY-1        MMR11003050601320010370305000000000000000   10300001 00104100000000003414000000000000     
100   62911028202150190000000000064000000000064000002000000010410403050523200000752184800305000743745760   1030000200030000   569988000806000008000004620KBZ BANK               STJ-BLAZON    MMR11003050523200000750305000000000000000   10300001 00104100000000003840000000000000     
100   95030318100002710000000000045727000000045727002000000010410403051157190041202184800305000743746006   1030000200030000   541188001440000008000000401KBZ BANK               OCEAN SUPERCE MMR11003051157190041200305000000000000000   10300001 00104100000000002744000000000000     
100   95050311736839760000000000000980000000000980002000000010410403051205533553496945230305000006755629   1020000200030000   333400010001204104000000281Myanmar Soft-Gate Tech Yangon        MMR11003051205533553490305000000000000000   10300001F05104100000000000206000000000000     
100   95050311959900780000000000001960000000001960002000000010410403051326345634995534250305000006755972   1020000200030000   333400010001204104000000281Myanmar Soft-Gate Tech Yangon        MMR11003051326345634990305000000000000000   10300001F05104100000000000412000000000000     
100   95050311959900780000000000000980000000000980002000000010410403051325265526503796660305000006755966   1020000200030000   333400010001204104000000281Myanmar Soft-Gate Tech Yangon        MMR11003051325265526500305000000000000000   10300001F05104100000000000206000000000000     
100   95030321939721770000000000000980000000000980002000000010410403050829415941582184800305000006754590   1020000200030000   333400010001204104000000281Myanmar Soft-Gate Tech Yangon        MMR11003050829415941580305000000000000000   10300001F05104100000000000206000000000000     
100   95050328275983620000000000034600000000034600002000000010410403050313204320666790750305000006752694   1030000300030000   333300010001206104000000984Mandalar Min Express   Yangon        MMR11003050313204320660305000000000000000   10300001F05104100000000010000000000000000     
100   95030301100120850000000000010000000000010000002000000010410403050521555155992184800305000006753476   1030000200030000   333800010001203104000003327KBZPay                 Yangon        MMR11003050521555155990305000000000000000   10300001F05104100000000002100000000000000     
100   95030378062733680000000000047000000000047000002000000010410403050504223192022184800305206412319202   1040001600030000   598320000326000000010000314PT Power Petrol Statio Nay Pyi Taw   MMR11003050504223192020305000000000000000   10300001F00104100000000001410000000000000     
100   62911028202532910000000000016150000000016150002000000010410403051158423051332184800305684271858063   1030000300030000   555610103621104519000003559Capital Hypermarket Da bon           MMR11003051158423051330305000000000000000   10300001 00104100000000000969000000000000     
100   95030395875796410000000000016200000000016200002000000010410403051149310070422184800305000743745555   1030000200030000   541188001060000008000000314KBZ BANK               MARKETPLACE - MMR11003051149310070420305000000000000000   10300001 00104100000000000972000000000000     
100   62911028202105070000000000047450000000047450002000000010410403051702150007552184800305000743766706   1030000200030000   541188001010000008000000008KBZ BANK               MARKETPLACE - MMR11003051702150007550305000000000000000   10300001 00104100000000002847000000000000     
100   62911028202482750000000000018150000000018150002000000010410403051210340097022184800305000743746883   1030000200030000   541188001056000008000000314KBZ BANK               MARKETPLACE - MMR11003051210340097020305000000000000000   10300001 00104100000000001089000000000000     
100   95030321939721770000000000002940000000002940002000000010410403051331170117862184800305000006755993   1020000200030000   333400010001204104000000281Myanmar Soft-Gate Tech Yangon        MMR11003051331170117860305000000000000000   10300001F05104100000000000617000000000000     
100   95050325139996190000000000003300000000003300002000000010410403050244221422855478650305000006752524   1030000200030000   333300010001203104000003632Myanmar Tradenet Test  Yangon        MMR11003050244221422850305000000000000000   10300001F05104100000000010000000000000000     
100   95030301100338180000000000300000000000300000002000000010410403051046241624722184800305000006755266   1030000200030000   333800010001203104000003327KBZPay                 Yangon        MMR11003051046241624720305000000000000000   10300001F05104100000000063000000000000000     
100   95050313836159580000000000001000000000001000002000000010410403050448071807024556380305000006753258   1030000200030000   3334000100012031040000040102C2P (Myanmar) Co. Ltd Yangon        MMR11003050448071807020305000000000000000   10300001F05104100000000000210000000000000     
100   95050316818236190000000000000980000000000980002000000010410403051251212121901817580305000006755825   1020000200030000   333400010001204104000000281Myanmar Soft-Gate Tech Yangon        MMR11003051251212121900305000000000000000   10300001F05104100000000000206000000000000     
100   62911028202465350000000000013950000000013950002000000010410403051157203052522184800305858361822063   1030000500030000   555610110576104519000009164City Mart China Town P int Cen       MMR11003051157203052520305000000000000000   10300001 00104100000000000837000000000000     
100   62911028202110420000000000037500000000037500002000000010410403050341333147392184800305206410314739   1040001600030000   591220000270000000010000258Shwe Ohh Pharmacy (U C Yangon        MMR11003050341333147390305000000000000000   10300001F00104100000000002250000000000000     
100   62443100317500820000000000015000000000015000002000000010410403051006443644878973750305000006755105   1030000200030000   333800010001203104000003327KBZPay                 Yangon        MMR11003051006443644870305000000000000000   10300001F05104100000000003150000000000000     
100   95030301100179930000000000010000000000010000002000000010410403051107143714692184800305000006755366   1030000500030000   333800010001201104000003863AYA Pay                Yangon        MMR11003051107143714690305000000000000000   10300001F05104100000000002100000000000000     
100   95050316997303010000000000000980000000000980002000000010410403051320365036892144180305000006755950   1020000200030000   333400010001204104000000281Myanmar Soft-Gate Tech Yangon        MMR11003051320365036890305000000000000000   10300001F05104100000000000206000000000000     
100   95050316638224720000000000020000000000020000002000000010410403050429425942780996120305000006753159   1030000200030000   333800010001203104000003327KBZPay                 Yangon        MMR11003050429425942780305000000000000000   10300001F05104100000000004200000000000000     
100   95050316355723530000000000001960000000001960002000000010410403051322015201020491690305000006755948   1020000200030000   333400010001204104000000281Myanmar Soft-Gate Tech Yangon        MMR11003051322015201020305000000000000000   10300001F05104100000000000412000000000000     
100   62911028202825140000000000005100000000005100002000000010410403051141283048202184800305261101838063   1030000300030000   555610103655104519000003559Capital Hypermarket Da bon           MMR11003051141283048200305000000000000000   10300001 00104100000000000306000000000000     
100   95050314307746340000000000002940000000002940002000000010410403051452562256373626470305000006756389   1020000200030000   333400010001204104000000281Myanmar Soft-Gate Tech Yangon        MMR11003051452562256370305000000000000000   10300001F05104100000000000617000000000000     
100   95050325139996190000000000003300000000003300002000000010410403050238120812728868720305000006752503   1030000200030000   333300010001203104000003632Myanmar Tradenet Test  Yangon        MMR11003050238120812720305000000000000000   10300001F05104100000000010000000000000000     
100   62443100314843770000000000040000000000040000002000000010410403051343251325633541380305000006756048   1030000200030000   333800010001203104000003327KBZPay                 Yangon        MMR11003051343251325630305000000000000000   10300001F05104100000000008400000000000000     
100   95050312820609340000000000300000000000300000002000000010410403050538130813527265670305000006753576   1030000200030000   333800010001203104000003327KBZPay                 Yangon        MMR11003050538130813520305000000000000000   10300001F05104100000000063000000000000000     
100   95050322478649490000000000004900000000004900002000000010410403050150232023787726810305000006752302   1020000200030000   333400010001204104000000281Myanmar Soft-Gate Tech Yangon        MMR11003050150232023780305000000000000000   10300001F05104100000000001029000000000000     
100   95030301100332300000000000014550000000014550002000000010410403050348292302062184800305370181029063   1030000900030000   541119001282190110000000963City Mart SPL C 7      YANGONMYOTHIT MMR11003050348292302060305000000000000000   10300001F00104100000000000873000000000000     
100   95030356977005070000000000037890000000037890002000000010410403051152200190722184800305000743745706   1030000200030000   541188001040000008000000010KBZ BANK               MARKETPLACE - MMR11003051152200190720305000000000000000   10300001 00104100000000002273000000000000     
100   95050317338786370000000000000980000000000980002000000010410403050339390939966293960305000006752868   1020000200030000   333400010001204104000000281Myanmar Soft-Gate Tech Yangon        MMR11003050339390939960305000000000000000   10300001F05104100000000000206000000000000     
100   62911028202750390000000000004900000000004900002000000010410403050626165616452184800305000006753870   1020000200030000   333400010001204104000000281Myanmar Soft-Gate Tech Yangon        MMR11003050626165616450305000000000000000   10300001F05104100000000001029000000000000     
100   95050315743141220000000000001960000000001960002000000010410403050827595759239789060305000006754579   1020000200030000   333400010001204104000000281Myanmar Soft-Gate Tech Yangon        MMR11003050827595759230305000000000000000   10300001F05104100000000000412000000000000     
100   95050318057347910000000000000980000000000980002000000010410403050228475847492258780305000006752465   1020000200030000   333400010001204104000000281Myanmar Soft-Gate Tech Yangon        MMR11003050228475847490305000000000000000   10300001F05104100000000000206000000000000     
100   95050314190972620000000000003000000000003000002000000010410403051301543154535207650305000006755866   1030000200030000   3334000100012031040000040102C2P (Myanmar) Co. Ltd Yangon        MMR11003051301543154530305000000000000000   10300001F05104100000000000630000000000000     
100   95050316769671810000000000001960000000001960002000000010410403050011044104412428970305000006752065   1020000200030000   333400010001204104000000281Myanmar Soft-Gate Tech Yangon        MMR11003050011044104410305000000000000000   10300001F05104100000000000412000000000000     
100   95050318057347910000000000000980000000000980002000000010410403051118224822693129680305000006755430   1020000200030000   333400010001204104000000281Myanmar Soft-Gate Tech Yangon        MMR11003051118224822690305000000000000000   10300001F05104100000000000206000000000000     
100   95050315099113150000000000001960000000001960002000000010410403051324405440285449150305000006755961   1020000200030000   333400010001204104000000281Myanmar Soft-Gate Tech Yangon        MMR11003051324405440280305000000000000000   10300001F05104100000000000412000000000000     
100   62443100328070970000000000017850000000017850002000000010410403051149463050306349550305538211847063   1030000500030000   555610112249104519000010487Ocean Super Center St  ohn           MMR11003051149463050300305000000000000000   10300001 00104100000000004463000000000000     
100   62911028202610960000000000083000000000083000002000000010410403050050462276602184800305164200746063   1030000900030000   554119000348190110000000215New Day Energy MYG     YANGONONE     MMR11003050050462276600305000000000000000   10300001F00104100000000002490000000000000     
100   95050315110306410000000000002940000000002940002000000010410403051251042104150080010305000006755824   1020000200030000   333400010001204104000000281Myanmar Soft-Gate Tech Yangon        MMR11003051251042104150305000000000000000   10300001F05104100000000000617000000000000     
100   95050310902464360000000000015000000000015000002000000010410403050949571957082037220305000006755016   1030000200030000   3338000100012031040000040022C2P (Myanmar) Co. Ltd Yangon        MMR11003050949571957080305000000000000000   10300001F05104100000000003150000000000000     
100   62911028202442410000000000004399000000004399002000000010410403051157460121482184800305000743746029   1030000200030000   541188001061000008000000314KBZ BANK               MARKETPLACE - MMR11003051157460121480305000000000000000   10300001 00104100000000000264000000000000     
100   62911028202472440000000000006400000000006400002000000010410403051423360171872184800305000743756275   1030000200030000   541188001032000008000000298KBZ BANK               CITY MART - M MMR11003051423360171870305000000000000000   10300001 00104100000000000384000000000000     
100   95050323233042810000000000015000000000015000002000000010410403051340381038220576790305000006756030   1030000200030000   333800010001203104000003327KBZPay                 Yangon        MMR11003051340381038220305000000000000000   10300001F05104100000000003150000000000000     
100   95050319870763910000000000000980000000000980002000000010410403051438210821885278950305000006756317   1020000200030000   333400010001204104000000281Myanmar Soft-Gate Tech Yangon        MMR11003051438210821880305000000000000000   10300001F05104100000000000206000000000000     
100   95050317338786370000000000002940000000002940002000000010410403050143411341896074320305000006752265   1020000200030000   333400010001204104000000281Myanmar Soft-Gate Tech Yangon        MMR11003050143411341890305000000000000000   10300001F05104100000000000617000000000000     
100   95030301100425380000000000009900000000009900002000000010410403050951173310252184800305206416331025   1040001600030000   541120000575000000010000465Ocean Shwe Gone Daing  Yangon        MMR11003050951173310250305000000000000000   10300001F00104100000000000594000000000000     
100   95050310652791070000000000005000000000005000002000000010410403050508253825309343640305000006753392   1030000200030000   333800010001203104000003327KBZPay                 Yangon        MMR11003050508253825300305000000000000000   10300001F05104100000000001050000000000000     
100   95050310427855490000000000002940000000002940002000000010410403051016154615677065980305000006755143   1020000200030000   333400010001204104000000281Myanmar Soft-Gate Tech Yangon        MMR11003051016154615670305000000000000000   10300001F05104100000000000617000000000000     
100   62443100364681690000000000021750000000021750002000000010410403051227413056772072870305488061925063   1030000500030000   555610110581104519000009164City Mart China Town P int Cen       MMR11003051227413056770305000000000000000   10300001 00104100000000005438000000000000     
100   95050320335873810000000000000980000000000980002000000010410403050919244924117164860305000006754852   1020000200030000   333400010001204104000000281Myanmar Soft-Gate Tech Yangon        MMR11003050919244924110305000000000000000   10300001F05104100000000000206000000000000     
100   95050315099113150000000000001960000000001960002000000010410403051319264926060406600305000006755941   1020000200030000   333400010001204104000000281Myanmar Soft-Gate Tech Yangon        MMR11003051319264926060305000000000000000   10300001F05104100000000000412000000000000     
100   62911028202757730000000000030000000000030000002000000010410403050317443136102184800305206410313610   1040001600030000   569120000924000000010000671Generation Concept Sto Ygn           MMR11003050317443136100305000000000000000   10300001F00104100000000001800000000000000     
100   62911028202105070000000000075050000000075050002000000010410403050952363310452184800305206416331045   1040001600030000   591220000264000000010000252Shwe Ohh Pharmacy (Sha Yangon        MMR11003050952363310450305000000000000000   10300001F00104100000000004503000000000000     
100   95050317728825080000000000002000000000002000002000000010410403051049181918786179360305000006755276   1030000200030000   3334000100012031040000040102C2P (Myanmar) Co. Ltd Yangon        MMR11003051049181918780305000000000000000   10300001F05104100000000000420000000000000     
100   95030313499565480000000000000500000000000500002000000010410403051339410941922184800305000006756022   1030000200030000   333800010001203104000003327KBZPay                 Yangon        MMR11003051339410941920305000000000000000   10300001F05104100000000000105000000000000     
100   95050315066440750000000000009800000000009800002000000010410403051241521152183384970305000006755768   1020000200030000   333400010001204104000000281Myanmar Soft-Gate Tech Yangon        MMR11003051241521152180305000000000000000   10300001F05104100000000002058000000000000     
100   62911028202492160000000000013900000000013900002000000010410403051156080173082184800305000743745929   1030000200030000   541188001070000008000000314KBZ BANK               MARKETPLACE - MMR11003051156080173080305000000000000000   10300001 00104100000000000834000000000000     
100   95050314248677090000000000060000000000060000002000000010410403051535000500755874630305000006756539   1030000200030000   333800010001203104000003327KBZPay                 Yangon        MMR11003051535000500750305000000000000000   10300001F05104100000000012600000000000000     
100   62911028202078000000000000100000000000100000002000000010410403050437140714272184800305000006753186   1030000200030000   333800010001203104000003327KBZPay                 Yangon        MMR11003050437140714270305000000000000000   10300001F05104100000000021000000000000000     
100   95050311559234320000000000012740000000012740002000000010410403051239120912120420390305000006755756   1020000200030000   333400010001204104000000281Myanmar Soft-Gate Tech Yangon        MMR11003051239120912120305000000000000000   10300001F05104100000000002675000000000000     
100   95030322236782320000000000020300000000020300002000000010410403051426430202932184800305000743756461   1030000200030000   541188001038000008000000010KBZ BANK               MARKETPLACE - MMR11003051426430202930305000000000000000   10300001 00104100000000001218000000000000     
100   95050321976590420000000000014891000000014891002000000010410403051109093342401477200305206418334240   1040001600030000   541120000561000000010000465Ocean Shwe Gone Daing  Yangon        MMR11003051109093342400305000000000000000   10300001F00104100000000003723000000000000     
100   62911028202750390000000000001960000000001960002000000010410403050628365836892184800305000006753883   1020000200030000   333400010001204104000000281Myanmar Soft-Gate Tech Yangon        MMR11003050628365836890305000000000000000   10300001F05104100000000000412000000000000     
100   95050318511918960000000000050300000000050300002000000010410403050924165416937249960305000006754881   1030000200030000   333800010001203104000003327KBZPay                 Yangon        MMR11003050924165416930305000000000000000   10300001F05104100000000010563000000000000     
100   62911028202446700000000000070000000000070000002000000010410403050405103510982184800305000006753054   1030000200030000   333800010001203104000003327KBZPay                 Yangon        MMR11003050405103510980305000000000000000   10300001F05104100000000014700000000000000     
100   62443100300743690000000000048545000000048545002000000010410403051211323394765292740305206419339476   1040001600030000   541120000560000000010000465Ocean Shwe Gone Daing  Yangon        MMR11003051211323394760305000000000000000   10300001F00104100000000012137000000000000     
100   95050314401921990000000000000980000000000980002000000010410403051018344834343846110305000006755148   1020000200030000   333400010001204104000000281Myanmar Soft-Gate Tech Yangon        MMR11003051018344834340305000000000000000   10300001F05104100000000000206000000000000     
100   95050316769671810000000000000980000000000980002000000010410403050223095309885223370305000006752435   1020000200030000   333400010001204104000000281Myanmar Soft-Gate Tech Yangon        MMR11003050223095309880305000000000000000   10300001F05104100000000000206000000000000     
100   95050319156544340000000000004900000000004900002000000010410403050229205920943911260305000006752464   1020000200030000   333400010001204104000000281Myanmar Soft-Gate Tech Yangon        MMR11003050229205920940305000000000000000   10300001F05104100000000001029000000000000     
100   62911028202905250000000000096000000000096000002000000010410403050640181018112184800305000006753943   1030000200030000   333800010001203104000003327KBZPay                 Yangon        MMR11003050640181018110305000000000000000   10300001F05104100000000020160000000000000     
100   95030301100119050000000000300000000000300000002000000010410403051242251225572184800305000006755777   1030000200030000   333800010001203104000003327KBZPay                 Yangon        MMR11003051242251225570305000000000000000   10300001F05104100000000063000000000000000     
100   95050315474529910000000000001960000000001960002000000010410403051250042004791732490305000006755808   1020000200030000   333400010001204104000000281Myanmar Soft-Gate Tech Yangon        MMR11003051250042004790305000000000000000   10300001F05104100000000000412000000000000     
100   62911028202222620000000000014950000000014950002000000010410403050312132294422184800305893420913063   1030000900030000   541119000112190110000000077Sein Gay Har Chinatown YANGON        MMR11003050312132294420305000000000000000   10300001F00104100000000000897000000000000     
100   95050313113158460000000000001960000000001960002000000010410403051436140614061973990305000006756306   1020000200030000   333400010001204104000000281Myanmar Soft-Gate Tech Yangon        MMR11003051436140614060305000000000000000   10300001F05104100000000000412000000000000     
100   95050312498129060000000000009500000000009500002000000010410403051039480948821051720305000006755238   1030000200030000   3333000100012031040000040282C2P (Myanmar) Co. Ltd Yangon        MMR11003051039480948820305000000000000000   10300001F05104100000000010000000000000000     
100   95050317465574180000000000015000000000015000002000000010410403050941571157680214540305000006754970   1030000200030000   333800010001203104000003327KBZPay                 Yangon        MMR11003050941571157680305000000000000000   10300001F05104100000000003150000000000000     
100   95050313710136610000000000002940000000002940002000000010410403050543111311489974970305000006753605   1020000200030000   333400010001204104000000281Myanmar Soft-Gate Tech Yangon        MMR11003050543111311480305000000000000000   10300001F05104100000000000617000000000000     
100   62911028202093430000000000000980000000000980002000000010410403041721265126312184800305000006751816   1020000200030000   333400010001204104000000281Myanmar Soft-Gate Tech Yangon        MMR11003041721265126310305000000000000000   10300001F05104100000000000206000000000000     
100   62911028202027440000000000074671000000074671002000000010410403050328593141462184800305206410314146   1040001600030000   541120000553000000010000465Ocean Shwe Gone Daing  Yangon        MMR11003050328593141460305000000000000000   10300001F00104100000000004480000000000000     
100   95050320788558180000000000052950000000052950002000000010410403050947493309801952120305206416330980   1040001600030000   591220000302000000010000290Shwe Ohh Pharmacy (Nor Yangon        MMR11003050947493309800305000000000000000   10300001F00104100000000012708000000000000     
100   95050323233042810000000000000980000000000980002000000010410403050312264226601492910305000006752689   1020000200030000   333400010001204104000000281Myanmar Soft-Gate Tech Yangon        MMR11003050312264226600305000000000000000   10300001F05104100000000000206000000000000     
100   62443100328070970000000000044700000000044700002000000010410403051201273051598597710305724291846063   1030000500030000   555610112241104519000010487Ocean Super Center St  ohn           MMR11003051201273051590305000000000000000   10300001 00104100000000011175000000000000     
100   95050315110306410000000000001960000000001960002000000010410403051301103110843470070305000006755863   1020000200030000   333400010001204104000000281Myanmar Soft-Gate Tech Yangon        MMR11003051301103110840305000000000000000   10300001F05104100000000000412000000000000     
100   62911028202245730000000000044770000000044770002000000010410403050346303149702184800305206410314970   1040001600030000   581420000961000000010000708Imperial Garden (Sein  Yangon        MMR11003050346303149700305000000000000000   10300001F00104100000000001343000000000000     
100   95050313411345710000000000015000000000015000002000000010410403050123115311733996360305000006752188   1030000200030000   333800010001203104000003327KBZPay                 Yangon        MMR11003050123115311730305000000000000000   10300001F05104100000000003150000000000000     
100   95030301100119050000000000100000000000100000002000000010410403051245091509762184800305000006755792   1030000200030000   333800010001203104000003327KBZPay                 Yangon        MMR11003051245091509760305000000000000000   10300001F05104100000000021000000000000000     
100   95050315110306410000000000000980000000000980002000000010410403051336590659727186730305000006756017   1020000200030000   333400010001204104000000281Myanmar Soft-Gate Tech Yangon        MMR11003051336590659720305000000000000000   10300001F05104100000000000206000000000000     
100   95050315150726490000000000001960000000001960002000000010410403050237230723050606290305000006752499   1020000200030000   333400010001204104000000281Myanmar Soft-Gate Tech Yangon        MMR11003050237230723050305000000000000000   10300001F05104100000000000412000000000000     
100   95050314160856250000000000004900000000004900002000000010410403050738440844212668540305000006754237   1020000200030000   333400010001204104000000281Myanmar Soft-Gate Tech Yangon        MMR11003050738440844210305000000000000000   10300001F05104100000000001029000000000000     
100   95050327416134790000000000002940000000002940002000000010410403051336320632228839210305000006756012   1020000200030000   333400010001204104000000281Myanmar Soft-Gate Tech Yangon        MMR11003051336320632220305000000000000000   10300001F05104100000000000617000000000000     
100   95030301100119050000000000300000000000300000002000000010410403051244101410042184800305000006755784   1030000200030000   333800010001203104000003327KBZPay                 Yangon        MMR11003051244101410040305000000000000000   10300001F05104100000000063000000000000000     
100   95050317465574180000000000010000000000010000002000000010410403050443501350257861350305000006753236   1030000200030000   333800010001203104000003327KBZPay                 Yangon        MMR11003050443501350250305000000000000000   10300001F05104100000000002100000000000000     
100   95030301100332300000000000012456000000012456002000000010410403050350002302352184800305390201000063   1030000900030000   541119001282190110000000963City Mart SPL C 7      YANGONMYOTHIT MMR11003050350002302350305000000000000000   10300001F00104100000000000747000000000000     
100   62911028202313470000000000109500000000109500002000000010410403050706393265262184800305206414326526   1040001600030000   591220000285000000010000273Shwe Ohh Pharmacy (47t Yangon        MMR11003050706393265260305000000000000000   10300001F00104100000000006570000000000000     
100   95050311959900780000000000000980000000000980002000000010410403050411554155098201730305000006753089   1020000200030000   333400010001204104000000281Myanmar Soft-Gate Tech Yangon        MMR11003050411554155090305000000000000000   10300001F05104100000000000206000000000000     
100   95050326511614440000000000030000000000030000002000000010410403050713393268697881290305206414326869   1040001600030000   598320000838000000010000600Regency Petrol Station Ygn           MMR11003050713393268690305000000000000000   10300001F00104100000000003600000000000000     
100   95050315401626960000000000028000000000028000002000000010410403050922293306295512380305206416330629   1040001600030000   598320000322000000010000310PT Power Petrol Statio Yangon        MMR11003050922293306290305000000000000000   10300001F00104100000000003360000000000000     
100   95050311121153200000000000000980000000000980002000000010410403050315304530826705650305000006752711   1020000200030000   333400010001204104000000281Myanmar Soft-Gate Tech Yangon        MMR11003050315304530820305000000000000000   10300001F05104100000000000206000000000000     
100   95050318057347910000000000000980000000000980002000000010410403051437280728990321510305000006756314   1020000200030000   333400010001204104000000281Myanmar Soft-Gate Tech Yangon        MMR11003051437280728990305000000000000000   10300001F05104100000000000206000000000000     
100   95050317465574180000000000005000000000005000002000000010410403041647291729348067190305000006751773   1030000200030000   333800010001203104000003327KBZPay                 Yangon        MMR11003041647291729340305000000000000000   10300001F05104100000000001050000000000000     
100   62911028202690080000000000009050000000009050002000000010410403050634302345922184800305367041330063   1030000900030000   541119001076190110000000872Sein Gay Har Hledan    YANGONUT      MMR11003050634302345920305000000000000000   10300001F00104100000000000543000000000000     
100   62911028202243670000000000015500000000015500002000000010410403050724212358682184800305240541321063   1030000900030000   541119001274190110000000961City Mart PLST City Ca YANGONMYOTHIT MMR11003050724212358680305000000000000000   10300001F00104100000000000930000000000000     
100   62443101003317490000000000066300000000066300002000000010410403050632022345375718230305331021302063   1030000900030000   581219000427190110000000287Sushi Tei Myanmar (Dha YANGON        MMR11003050632022345370305000000000000000   10300001F00104100000000028178000000000000     
100   95050315413187270000000000090850000000090850002000000010410403050716132356527966380305090461313063   1030000900030000   541119000882190110000000084Pro (1) Global (Pazund YANGONARTAUNG MMR11003050716132356520305000000000000000   10300001F00104100000000022713000000000000     
100   62911028202827610000000000020000000000020000002000000010410403050355252525972184800305000006752984   1030000200030000   333800010001203104000003327KBZPay                 Yangon        MMR11003050355252525970305000000000000000   10300001F05104100000000004200000000000000     
100   62911028202077010000000000000980000000000980002000000010410403050953472347902184800305000006755043   1020000200030000   333400010001204104000000281Myanmar Soft-Gate Tech Yangon        MMR11003050953472347900305000000000000000   10300001F05104100000000000206000000000000     
100   62911028202243420000000000013400000000013400002000000010410403050723202358332184800305212531320063   1030000900030000   541119001262190110000000958City Mart PLST C 5     YANGONMYOTHIT MMR11003050723202358330305000000000000000   10300001F00104100000000000804000000000000     
100   62911028202415850000000000053650000000053650002000000010410403051056472423992184800305168261747063   1030000900030000   541119001076190110000000872Sein Gay Har Hledan    YANGONUT      MMR11003051056472423990305000000000000000   10300001F00104100000000003219000000000000     
100   95050314307746340000000000000980000000000980002000000010410403051454582458905364050305000006756398   1020000200030000   333400010001204104000000281Myanmar Soft-Gate Tech Yangon        MMR11003051454582458900305000000000000000   10300001F05104100000000000206000000000000     
100   62911028202133520000000000005184000000005184002000000010410403051204582443192184800305592341858063   1030000900030000   541119001191190110000000942City Mart HDC C 6      YANGONUT      MMR11003051204582443190305000000000000000   10300001F00104100000000000311000000000000     
100   62911028202248050000000000063422000000063422002000000010410403050454022319172184800305553241102063   1030000900030000   541119001330190110000000971Ocean Junction NPT C 8 NAYPYITAW     MMR11003050454022319170305000000000000000   10300001F00104100000000003805000000000000     
100   62911028202686950000000000077415000000077415002000000010410403050508082323322184800305836381108063   1030000900030000   541119001080190110000000872Sein Gay Har Hledan    YANGONUT      MMR11003050508082323320305000000000000000   10300001F00104100000000004645000000000000     
100   62443100316099160000000000005800000000005800002000000010410403050723222358363008930305214531322063   1030000900030000   581219000528190110000000376Shwepalin (Hantharwadd YANGONUT      MMR11003050723222358360305000000000000000   10300001F00104100000000002465000000000000     
100   62911028202692550000000000019533000000019533002000000010410403051116352430372184800305656461735063   1030000900030000   541119000139190110000000083SeinGayHarParami Cente YANGON        MMR11003051116352430370305000000000000000   10300001F00104100000000001172000000000000     
