100   95030364439875210000000000012800000000012800002000000010410403050729020004722184800305206413000472   1030000500030000   569120116201000405691201162AMERICAN COLLECTION (J PTN           MMR11003050729020004720305000000000000000   10300001 00104100000000000768000000000000     
100   62911028202366010000000000010000000000010000002000000010410403050315160007162184800305206409000716   1030000500030000   569120102701008205691201027ESCORT                 PTN           MMR11003050315160007160305000000000000000   10300001 00104100000000000600000000000000     
100   95030333100021460000000000007434000000007434002000000010410403061704020169592184800306000743816596   1030000200030000   541188001079000008000000294KBZ BANK               CITY MART - J MMR11003061704020169590306000000000000000   10300001 00104100000000000446000000000000     
100   95050313123223200000000000000980000000000980002000000010410403051639450945557527110306000006756706   1020000200030000   333400010001204104000000281Myanmar Soft-Gate Tech Yangon        MMR11003051639450945550306000000000000000   10300001F05104100000000000206000000000000     
100   62911028202104650000000000101000000000101000002000000010410403050927580125482184800305206415012548   1030000500030000   598320001003000015172200010MAX ENERGY             PTN           MMR11003050927580125480305000000000000000   10300001 00104100000000003030000000000000     
100   95050315948162700000000000037200000000037200002000000010410403061459240056384398050306000743809449   1030000200030000   541188001331000008000000327KBZ BANK               CITY MART - S MMR11003061459240056380306000000000000000   10300001 00104100000000009300000000000000     
100   62911028202350660000000000031200000000031200002000000010410403061147112677152184800306517171811064   1030000900030000   541119001195190110000000942City Mart HDC C 10     YANGONUT      MMR11003061147112677150306000000000000000   10300001F00104100000000001872000000000000     
100   95030301100122750000000000038010000000038010002000000010410403060826462614732184800306899561446064   1030000900030000   581219000371190110000000243Jo Jo Hot Pot (Junctio YANGONN       MMR11003060826462614730306000000000000000   10300001F00104100000000003877000000000000     
100   95050320531117320000000000027800000000027800002000000010410403060920022630316206940306026501502064   1030000900030000   571219001537190110000001113Pro 1 Plus Store-2     YANGONADON    MMR11003060920022630310306000000000000000   10300001F00104100000000006672000000000000     
100   95030301100126220000000000047200000000047200002000000010410403060908552627412184800306824381555064   1030000900030000   541119000547190110000000394Super One ShoppingMall YANGON        MMR11003060908552627410306000000000000000   10300001F00104100000000002832000000000000     
100   95030301100360840000000000002940000000002940002000000010410403061459002900952184800306000006760526   1020000200030000   333400010001204104000000281Myanmar Soft-Gate Tech Yangon        MMR11003061459002900950306000000000000000   10300001F05104100000000000617000000000000     
100   95030301100126550000000000027250000000027250002000000010410403061018292648302184800306362481629064   1030000900030000   541119000141190110000000083SeinGayHarParami Cente YANGON        MMR11003061018292648300306000000000000000   10300001F00104100000000001635000000000000     
100   95050310456843760000000000006800000000006800002000000010410403061213422684412440840306024431842064   1030000900030000   541119000124190110000000080Sein Gay Har BAK       YANGONADA     MMR11003061213422684410306000000000000000   10300001F00104100000000001700000000000000     
100   95050324247403260000000000069300000000069300002000000010410403060909102627519511910306831391510064   1030000900030000   541119000283190110000000177Pro1 Global (Insein)   YANGON        MMR11003060909102627510306000000000000000   10300001F00104100000000017325000000000000     
100   95050312498129060000000000001960000000001960002000000010410403060445101510934938570306000006757905   1020000200030000   333400010001204104000000281Myanmar Soft-Gate Tech Yangon        MMR11003060445101510930306000000000000000   10300001F05104100000000000412000000000000     
100   62911028202680670000000000016000000000016000002000000010410403051013170005222184800305206416000522   1030000500030000   5712201074010080057122010741-2-1 PUBLIC CO. LTD   PTN           MMR11003051013170005220305000000000000000   10300001 00104100000000000960000000000000     
100   62911028202366010000000000014000000000014000002000000010410403050319580007172184800305206409000717   1030000500030000   569120102701008205691201027ESCORT                 PTN           MMR11003050319580007170305000000000000000   10300001 00104100000000000840000000000000     
100   95050320205194540000000000125450000000125450002000000010410403051059410012435924070305206417001243   1030000500030000   591220013501014405912200135SHWE OHH PHARMACY      PTN           MMR11003051059410012430305000000000000000   10300001 00104100000000030108000000000000     
100   95050312482469810000000000012600000000012600002000000010410403050227300024606875850305206408002460   1030000500030000   541120020601022205411200206ORANGE (NOKL)          PTN           MMR11003050227300024600305000000000000000   10300001 00104100000000003150000000000000     
100   62443101037081820000000000054000000000054000002000000010410403050657560070306143710305206413007030   1030000500030000   598320001404000015172200014MAX ENERGY             PTN           MMR11003050657560070300305000000000000000   10300001 00104100000000006480000000000000     
100   95030301100128610000000000020750000000020750002000000010410403051144030034702184800305206418003470   1030000500030000   581220024001000015812200240SHWE LAR HOT POT       PTN           MMR11003051144030034700305000000000000000   10300001 00104100000000002117000000000000     
100   62911028202446700000000000020000000000020000002000000010410403050239440049822184800305206409004982   1030000500030000   598320001702000015172200017MAX ENERGY             PTN           MMR11003050239440049820305000000000000000   10300001 00104100000000000600000000000000     
100   62911028202366010000000000031440000000031440002000000010410403060306163093362184800306951360937064   1030000500030000   555610103976104519000003818Ocean Oattara Thiri Na PyiTaw        MMR11003060306163093360306000000000000000   10300001 00104100000000001886000000000000     
100   62911028202557750000000000076750000000076750002000000010410403061112352666922184800306759421735064   1030000900030000   591219000759190110000000591Shwe Ohh Pharmacy ST-3 YANGONOKKALAP MMR11003061112352666920306000000000000000   10300001F00104100000000004605000000000000     
100   62911028202221220000000000000750000000000750002000000010410403060144263087032184800306124130804064   1030000300030000   555510125557104519000021378OneStopMartShoppingMal 0049          MMR11003060144263087030306000000000000000   10300001 00104100000000000045000000000000     
100   62911028202676220000000000010250000000010250002000000010410403061037442654982184800306863071744064   1030000900030000   541119001281190110000000963City Mart SPL C6       YANGONMYOTHIT MMR11003061037442654980306000000000000000   10300001F00104100000000000615000000000000     
100   95050316769671810000000000024500000000024500002000000010410403061058152662130533070306403281715064   1030000900030000   541119001074190110000000872Sein Gay Har Hledan    YANGONUT      MMR11003061058152662130306000000000000000   10300001F00104100000000006125000000000000     
100   95050315690875920000000000107450000000107450002000000010410403061009133170009937390306555371632064   1030000300030000   555610103661104519000003559Capital Hypermarket Da bon           MMR11003061009133170000306000000000000000   10300001 00104100000000026863000000000000     
100   62911028202616250000000000118350000000118350002000000010410403061044143178272184800306790131731064   1030000500030000   555610112234104519000010487Ocean Super Center St  ohn           MMR11003061044143178270306000000000000000   10300001 00104100000000007101000000000000     
100   62911028202442250000000000009100000000009100002000000010410403060832363150322184800306808011552064   1030000500030000   555610112253104519000010487Ocean Super Center St  ohn           MMR11003060832363150320306000000000000000   10300001 00104100000000000546000000000000     
100   95030308100042590000000000032000000000032000002000000010410403050525300049332184800305206411004933   1030000500030000   598320001701000015172200017MAX ENERGY             PTN           MMR11003050525300049330305000000000000000   10300001 00104100000000000960000000000000     
100   95030380891034700000000000078500000000078500002000000010410403050425520039482184800305206410003948   1030000500030000   541120024602022205411200246ORANGE (THANLYIN)      PTN           MMR11003050425520039480305000000000000000   10300001 00104100000000004710000000000000     
100   62443100398006570000000000102410000000102410002000000010410403050716230055349618870305206413005534   1030000500030000   581220063701000015812200637CHINESE 47             PTN           MMR11003050716230055340305000000000000000   10300001 00104100000000043525000000000000     
100   62443100372702000000000000002700000000002700002000000010410403050655110006023980650305206413000602   1030000500030000   591220013401014405912200134SHWE OHH PHARMACY      PTN           MMR11003050655110006020305000000000000000   10300001 00104100000000000648000000000000     
100   62443100398006570000000000050050000000050050002000000010410403050852000015226569190305206415001522   1030000500030000   581220042101000055812200421OLIVE & TWIST          PTN           MMR11003050852000015220305000000000000000   10300001 00104100000000021272000000000000     
100   95050322426452690000000000060000000000060000002000000010410403050358230039633244280305206410003963   1030000500030000   598320115101005405983201151PT POWER (HLEGU)       PTN           MMR11003050358230039630305000000000000000   10300001 00104100000000007200000000000000     
100   95030308100042590000000000097000000000097000002000000010410403050530240049922184800305206412004992   1030000500030000   598320001702000015172200017MAX ENERGY             PTN           MMR11003050530240049920305000000000000000   10300001 00104100000000002910000000000000     
100   62911028202221220000000000010400000000010400002000000010410403051059500000412184800305206417000041   1030000500030000   541120182201000045411201822EASY MART-005          PTN           MMR11003051059500000410305000000000000000   10300001 00104100000000000624000000000000     
100   95050312224678430000000000001960000000001960002000000010410403060101013101898037690306000006757055   1020000200030000   333400010001204104000000281Myanmar Soft-Gate Tech Yangon        MMR11003060101013101890306000000000000000   10300001F05104100000000000412000000000000     
100   62443100318296470000000000030464000000030464002000000010410403060959313168047774330306295281622064   1030000300030000   888810125458104519000021285Shwe Taung Energy CoLt               MMR11003060959313168040306000000000000000   10300001 00104100000000003656000000000000     
100   62911028202677880000000000217422000000217422002000000010410403060513403112962184800306570421125064   1030000500030000   555610118969104519000016137City Mart South Okkala WZYD BR       MMR11003060513403112960306000000000000000   10300001 00104100000000013045000000000000     
100   62443100390038980000000000091400000000091400002000000010410403060447403108155023670306948161100064   1030000500030000   555610118968104519000016137City Mart South Okkala WZYD BR       MMR11003060447403108150306000000000000000   10300001 00104100000000022850000000000000     
100   62911028202147720000000000067000000000067000002000000010410403061010473170522184800306625391645064   1030000500030000   555610112249104519000010487Ocean Super Center St  ohn           MMR11003061010473170520306000000000000000   10300001 00104100000000004020000000000000     
100   95030301100126220000000000051280000000051280002000000010410403061114313184772184800306705451730064   1030000500030000   555610112235104519000010487Ocean Super Center St  ohn           MMR11003061114313184770306000000000000000   10300001 00104100000000003077000000000000     
100   62911028202163630000000000027500000000027500002000000010410403060013173083892184800306894590607064   1030000500030000   555510105936104519000005289Pin Lon Hospital                     MMR11003060013173083890306000000000000000   10300001 00104100000000001650000000000000     
100   62443100390038980000000000008000000000008000002000000010410403060451383109208328640306087211120064   1030000500030000   555610118972104519000016137City Mart South Okkala WZYD BR       MMR11003060451383109200306000000000000000   10300001 00104100000000002000000000000000     
100   95050322715181550000000000027200000000027200002000000010410403051101100001420966620305206417000142   1030000500030000   503920037006000045039200370PRO-1 HOME CENTER      PTN           MMR11003051101100001420305000000000000000   10300001 00104100000000006528000000000000     
100   95050322715181550000000000213100000000213100002000000010410403051107460001442619100305206417000144   1030000500030000   503920037006000045039200370PRO-1 HOME CENTER      PTN           MMR11003051107460001440305000000000000000   10300001 00104100000000051144000000000000     
100   62911028202169750000000000002800000000002800002000000010410403050538190015972184800305206412001597   1030000500030000   503920036604000015039200366PRO-1 HOME CENTER      PTN           MMR11003050538190015970305000000000000000   10300001 00104100000000000168000000000000     
100   62911028202446130000000000003350000000003350002000000010410403051009550039832184800305206416003983   1030000500030000   541120020701022205411200207ORANGE (YDG)           PTN           MMR11003051009550039830305000000000000000   10300001 00104100000000000201000000000000     
100   62911028202312890000000000037500000000037500002000000010410403050727230050012184800305206413005001   1030000500030000   598320001702000015172200017MAX ENERGY             PTN           MMR11003050727230050010305000000000000000   10300001 00104100000000001125000000000000     
100   62911028202593140000000000007150000000007150002000000010410403051309020000472184800305206419000047   1030000500030000   541120182801000045411201828EASY MART-011          PTN           MMR11003051309020000470305000000000000000   10300001 00104100000000000429000000000000     
100   62911028202680670000000000048000000000048000002000000010410403051010190005202184800305206416000520   1030000500030000   5712201074010080057122010741-2-1 PUBLIC CO. LTD   PTN           MMR11003051010190005200305000000000000000   10300001 00104100000000002880000000000000     
100   62911028202231380000000000030000000000030000002000000010410403051143230193672184800305206418019367   1030000500030000   598320001902000015172200019MAX ENERGY             PTN           MMR11003051143230193670305000000000000000   10300001 00104100000000000900000000000000     
100   62911028202465350000000000006900000000006900002000000010410403060431483105542184800306570011110064   1030000300030000   444410125393104519000021220Myanmar Bakery CoLtd                 MMR11003060431483105540306000000000000000   10300001 00104100000000000704000000000000     
100   95030302100067550000000000020550000000020550002000000010410403061012563170912184800306681411619064   1030000500030000   555610112234104519000010487Ocean Super Center St  ohn           MMR11003061012563170910306000000000000000   10300001 00104100000000001233000000000000     
100   62443100328070970000000000004600000000004600002000000010410403060912053158024469360306931421509064   1030000500030000   555610110596104519000009166City Mart 47 Branch                  MMR11003060912053158020306000000000000000   10300001 00104100000000001150000000000000     
100   95050312695033440000000000002940000000002940002000000010410403061001563156191079300306000006759400   1020000200030000   333400010001204104000000281Myanmar Soft-Gate Tech Yangon        MMR11003061001563156190306000000000000000   10300001F05104100000000000617000000000000     
100   95050312695033440000000000000980000000000980002000000010410403060157222722187867500306000006757187   1020000200030000   333400010001204104000000281Myanmar Soft-Gate Tech Yangon        MMR11003060157222722180306000000000000000   10300001F05104100000000000206000000000000     
100   62443100330048680000000000065000000000065000002000000010410403060444083107873286090306914141120064   1030000300030000   555510124687104519000020166Makro Myanmar                        MMR11003060444083107870306000000000000000   10300001 00104100000000015600000000000000     
100   62911028202686950000000000110800000000110800002000000010410403060520133114242184800306755481151064   1030000300030000   555510124686104519000020166Makro Myanmar                        MMR11003060520133114240306000000000000000   10300001 00104100000000006648000000000000     
100   62443100383487320000000000022250000000022250002000000010410403060717413138914057670306192561324064   1030000500030000   555610112234104519000010487Ocean Super Center St  ohn           MMR11003060717413138910306000000000000000   10300001 00104100000000005563000000000000     
100   95050315955808830000000000018000000000018000002000000010410403050102180134805648850305206407013480   1030000500030000   598320001102000015172200011MAX ENERGY             PTN           MMR11003050102180134800305000000000000000   10300001 00104100000000002160000000000000     
100   95050310750557450000000000032000000000032000002000000010410403050314060138615053170305206409013861   1030000500030000   598320001101000015172200011MAX ENERGY             PTN           MMR11003050314060138610305000000000000000   10300001 00104100000000003840000000000000     
100   95050318052625040000000000030000000000030000002000000010410403042326000170474677130305206405017047   1030000500030000   598320001001000015172200010MAX ENERGY             PTN           MMR11003042326000170470305000000000000000   10300001 00104100000000003600000000000000     
100   62911028202448030000000000020000000000020000002000000010410403050614020192022184800305206412019202   1030000500030000   598320001902000015172200019MAX ENERGY             PTN           MMR11003050614020192020305000000000000000   10300001 00104100000000000600000000000000     
100   62911028202448030000000000010000000000010000002000000010410403050615530192042184800305206412019204   1030000500030000   598320001902000015172200019MAX ENERGY             PTN           MMR11003050615530192040305000000000000000   10300001 00104100000000000300000000000000     
100   62911028202531840000000000061028000000061028002000000010410403050701060187812184800305206413018781   1030000500030000   598320001602000015172200016MAX ENERGY             PTN           MMR11003050701060187810305000000000000000   10300001 00104100000000001831000000000000     
100   95030320529939180000000000070000000000070000002000000010410403051125030139452184800305206417013945   1030000500030000   598320001101000015172200011MAX ENERGY             PTN           MMR11003051125030139450305000000000000000   10300001 00104100000000002100000000000000     
100   95050329252108030000000000024500000000024500002000000010410403050643560163954150840305206413016395   1030000500030000   598320002102000015172200021MAX ENERGY             PTN           MMR11003050643560163950305000000000000000   10300001 00104100000000002940000000000000     
100   62443100328070970000000000010000000000010000002000000010410403060907213157340922890306837381519064   1030000500030000   555610110598104519000009166City Mart 47 Branch                  MMR11003060907213157340306000000000000000   10300001 00104100000000002500000000000000     
100   62911028202684060000000000070000000000070000002000000010410403060402463100492184800306873311025064   1030000300030000   888810125940104519000021285Shwe Taung Energy CoLt               MMR11003060402463100490306000000000000000   10300001 00104100000000002100000000000000     
100   95050324800108530000000000013800000000013800002000000010410403060838183151179440600306941061546064   1030000300030000   555610103622104519000003559Capital Hypermarket Da bon           MMR11003060838183151170306000000000000000   10300001 00104100000000003450000000000000     
100   62911028202668140000000000044272000000044272002000000010410403060750483143402184800306835221449064   1030000500030000   555610112240104519000010487Ocean Super Center St  ohn           MMR11003060750483143400306000000000000000   10300001 00104100000000002656000000000000     
100   62911028202496870000000000004000000000004000002000000010410403061113163185632184800306818491744064   1030000500030000   555610103477104519000003432City Mart Junction Zaw na 4          MMR11003061113163185630306000000000000000   10300001 00104100000000000240000000000000     
100   62911028202101190000000000001000000000001000002000000010410403060901033103242184800306000006759180   1030000200030000   333800010001203104000003327KBZPay                 Yangon        MMR11003060901033103240306000000000000000   10300001F05104100000000000210000000000000     
100   95030301100119620000000000034200000000034200002000000010410403060626123126152184800306426541237064   1030000300030000   555510124365104519000020166Makro Myanmar                        MMR11003060626123126150306000000000000000   10300001 00104100000000002052000000000000     
100   62911028202674810000000000012550000000012550002000000010410403060620433126542184800306473561230064   1030000500030000   555610110601104519000009166City Mart 47 Branch                  MMR11003060620433126540306000000000000000   10300001 00104100000000000753000000000000     
100   62443100369813440000000000020000000000020000002000000010410403050220100214510180810305206408021451   1030000500030000   598320001301000015172200013MAX ENERGY             PTN           MMR11003050220100214510305000000000000000   10300001 00104100000000002400000000000000     
100   95050315110306410000000000002940000000002940002000000010410403051630430043689179600305000006756684   1020000200030000   333400010001204104000000281Myanmar Soft-Gate Tech Yangon        MMR11003051630430043680305000000000000000   10300001F05104100000000000617000000000000     
100   95050318134586070000000000040400000000040400002000000010410403061625110055152731780306000743814301   1030000200030000   541188001315000008000000306KBZ BANK               CITY MART - S MMR11003061625110055150306000000000000000   10300001 00104100000000010100000000000000     
100   62911028202161240000000000019311000000019311002000000010410403061030310014062184800306000743794867   1030000200030000   541188001022000008000000298KBZ BANK               CITY MART - M MMR11003061030310014060306000000000000000   10300001 00104100000000001159000000000000     
100   95050315955808830000000000010850000000010850002000000010410403060226440007328463170306000743790545   1030000200030000   591288001555000008000005035KBZ BANK               ORCHID (TWN)  MMR11003060226440007320306000000000000000   10300001 00104100000000002604000000000000     
100   62911028202668140000000000055800000000055800002000000010410403060714260007852184800306000743805202   1030000200030000   569988000807000008000004620KBZ BANK               STJ-BLAZON    MMR11003060714260007850306000000000000000   10300001 00104100000000003348000000000000     
100   62911028202033530000000000023002000000023002002000000010410403061059150030422184800306000743796332   1030000200030000   541188001463000008000000391KBZ BANK               OCEAN SUPER C MMR11003061059150030420306000000000000000   10300001 00104100000000001380000000000000     
100   95050313453886860000000000016000000000016000002000000010410403061222170046979816640306000743801072   1030000200030000   541188001343000008000000327KBZ BANK               CITY MART - S MMR11003061222170046970306000000000000000   10300001 00104100000000004000000000000000     
100   95050314749068520000000000012750000000012750002000000010410403060820243148199355500306502481458064   1030000500030000   555610103976104519000003818Ocean Oattara Thiri Na PyiTaw        MMR11003060820243148190306000000000000000   10300001 00104100000000003188000000000000     
100   95050321237170130000000000086900000000086900002000000010410403060711023173201760070306010511606064   1030000500030000   555610110560104519000009163City Mart Ayeyarwon Br nch           MMR11003060711023173200306000000000000000   10300001 00104100000000021725000000000000     
100   95050312498129060000000000000980000000000980002000000010410403060457302730686676150306000006757991   1020000200030000   333400010001204104000000281Myanmar Soft-Gate Tech Yangon        MMR11003060457302730680306000000000000000   10300001F05104100000000000206000000000000     
100   95050313113158460000000000002940000000002940002000000010410403061001233123906121840306000006759399   1020000200030000   333400010001204104000000281Myanmar Soft-Gate Tech Yangon        MMR11003061001233123900306000000000000000   10300001F05104100000000000617000000000000     
100   62911028202225440000000000002700000000002700002000000010410403060944413164582184800306842131603064   1030000300030000   444410116806104519000014353BreadTalk JunctionCity               MMR11003060944413164580306000000000000000   10300001 00104100000000000275000000000000     
100   95030301100360840000000000002940000000002940002000000010410403061500393039082184800306000006760529   1020000200030000   333400010001204104000000281Myanmar Soft-Gate Tech Yangon        MMR11003061500393039080306000000000000000   10300001F05104100000000000617000000000000     
100   62911028202023630000000000050000000000050000002000000010410403061023443174292184800306171551650064   1030000300030000   888810125460104519000021287Shwe Taung Energy CoLt               MMR11003061023443174290306000000000000000   10300001 00104100000000001500000000000000     
100   62911028202207380000000000015350000000015350002000000010410403061021313173262184800306020511624064   1030000500030000   555610120172104519000017155City Care Standalone S oreCity       MMR11003061021313173260306000000000000000   10300001 00104100000000000921000000000000     
100   62911028202033530000000000065650000000065650002000000010410403061047090017712184800306000743795670   1030000200030000   541188001452000008000000391KBZ BANK               OCEAN SUPER C MMR11003061047090017710306000000000000000   10300001 00104100000000003939000000000000     
100   62911028202668140000000000113000000000113000002000000010410403060658430001322184800306000743804423   1030000200030000   569988001630000008000005150KBZ BANK               YDG OFFICE    MMR11003060658430001320306000000000000000   10300001 00104100000000006780000000000000     
100   95050319111666800000000000000980000000000980002000000010410403060630560056116766960306000006758533   1020000200030000   333400010001204104000000281Myanmar Soft-Gate Tech Yangon        MMR11003060630560056110306000000000000000   10300001F05104100000000000206000000000000     
100   62911028202225440000000000002300000000002300002000000010410403061538370010492184800306000743811828   1030000200030000   541188001058000008000000314KBZ BANK               MARKETPLACE - MMR11003061538370010490306000000000000000   10300001 00104100000000000138000000000000     
100   62911028202161240000000000021850000000021850002000000010410403061729270037052184800306000743818105   1030000200030000   541188001021000008000000298KBZ BANK               CITY MART - M MMR11003061729270037050306000000000000000   10300001 00104100000000001311000000000000     
100   62911028202417260000000000003900000000003900002000000010410403061737440037072184800306000743818618   1030000200030000   541188001021000008000000298KBZ BANK               CITY MART - M MMR11003061737440037070306000000000000000   10300001 00104100000000000234000000000000     
100   95050312728902740000000000008410000000008410002000000010410403061720330051946547320306000743817651   1030000200030000   541188001023000008000000298KBZ BANK               CITY MART - M MMR11003061720330051940306000000000000000   10300001 00104100000000002103000000000000     
100   95050327416134790000000000004900000000004900002000000010410403061530150015336412790306000006760656   1020000200030000   333400010001204104000000281Myanmar Soft-Gate Tech Yangon        MMR11003061530150015330306000000000000000   10300001F05104100000000001029000000000000     
100   62911028202158290000000000011800000000011800002000000010410403060422103104512184800306430551028064   1030000500030000   555610114570104519000012532City Mart Ahlone Branc               MMR11003060422103104510306000000000000000   10300001 00104100000000000708000000000000     
100   62443100328070970000000000010000000000010000002000000010410403060907323157439270410306848381552064   1030000500030000   555610110598104519000009166City Mart 47 Branch                  MMR11003060907323157430306000000000000000   10300001 00104100000000002500000000000000     
100   62911028202910690000000000013000000000013000002000000010410403060401523152242184800306000006757673   1030000200030000   333800010001203104000003327KBZPay                 Yangon        MMR11003060401523152240306000000000000000   10300001F05104100000000002730000000000000     
100   95030301100360840000000000001960000000001960002000000010410403061457382738142184800306000006760521   1020000200030000   333400010001204104000000281Myanmar Soft-Gate Tech Yangon        MMR11003061457382738140306000000000000000   10300001F05104100000000000412000000000000     
100   95050326590859670000000000020882000000020882002000000010410403060653133133339986840306431251340064   1030000500030000   555610118958104519000016137City Mart South Okkala WZYD BR       MMR11003060653133133330306000000000000000   10300001 00104100000000005221000000000000     
100   62911028202147720000000000221965000000221965002000000010410403061123413186122184800306894521708064   1030000500030000   555610112237104519000010487Ocean Super Center St  ohn           MMR11003061123413186120306000000000000000   10300001 00104100000000013318000000000000     
100   95030301100331070000000000018500000000018500002000000010410403060357203099642184800306754261030064   1030000500030000   555610103468104519000003420City Mart Yankin Cente 7             MMR11003060357203099640306000000000000000   10300001 00104100000000001110000000000000     
100   95050314749068520000000000018450000000018450002000000010410403060755273143975454860306927261403064   1030000500030000   555610103965104519000003818Ocean Oattara Thiri Na PyiTaw        MMR11003060755273143970306000000000000000   10300001 00104100000000004613000000000000     
100   95050315948162700000000000035100000000035100002000000010410403061522000033750837800306000743810840   1030000200030000   541188001333000008000000327KBZ BANK               CITY MART - S MMR11003061522000033750306000000000000000   10300001 00104100000000008775000000000000     
100   95050315948162700000000000080700000000080700002000000010410403061523390033769185310306000743811009   1030000200030000   541188001333000008000000327KBZ BANK               CITY MART - S MMR11003061523390033760306000000000000000   10300001 00104100000000020175000000000000     
100   95050316818236190000000000002940000000002940002000000010410403060930470047921249490306000006759281   1020000200030000   333400010001204104000000281Myanmar Soft-Gate Tech Yangon        MMR11003060930470047920306000000000000000   10300001F05104100000000000617000000000000     
100   62911028202709150000000000017400000000017400002000000010410403061640550030682184800306000743815165   1030000200030000   541188001447000008000000401KBZ BANK               OCEAN SUPERCE MMR11003061640550030680306000000000000000   10300001 00104100000000001044000000000000     
100   95050310213446310000000000004900000000004900002000000010410403051744201420952654760306000006756780   1020000200030000   333400010001204104000000281Myanmar Soft-Gate Tech Yangon        MMR11003051744201420950306000000000000000   10300001F05104100000000001029000000000000     
100   95050315005801680000000000015450000000015450002000000010410403061218560161384774090306000743800908   1030000200030000   541188001037000008000000010KBZ BANK               MARKETPLACE - MMR11003061218560161380306000000000000000   10300001 00104100000000003863000000000000     
100   95050324947866880000000000015650000000015650002000000010410403061219420161399731540306000743800939   1030000200030000   541188001037000008000000010KBZ BANK               MARKETPLACE - MMR11003061219420161390306000000000000000   10300001 00104100000000003913000000000000     
100   95050316818236190000000000002940000000002940002000000010410403061352162216964845400306000006760243   1020000200030000   333400010001204104000000281Myanmar Soft-Gate Tech Yangon        MMR11003061352162216960306000000000000000   10300001F05104100000000000617000000000000     
100   95030301100119050000000000060000000000060000002000000010410403060809283928252184800306000006758996   1030000200030000   333800010001203104000003327KBZPay                 Yangon        MMR11003060809283928250306000000000000000   10300001F05104100000000012600000000000000     
100   62911028202147720000000000009800000000009800002000000010410403061125143186782184800306003551740064   1030000500030000   555610112532104519000010487Ocean Super Center St  ohn           MMR11003061125143186780306000000000000000   10300001 00104100000000000588000000000000     
100   95050312224678430000000000002940000000002940002000000010410403060418134813186250670306000006757771   1020000200030000   333400010001204104000000281Myanmar Soft-Gate Tech Yangon        MMR11003060418134813180306000000000000000   10300001F05104100000000000617000000000000     
100   95050314245895270000000000010000000000010000002000000010410403060625265526744603900306000006758506   1030000200030000   333800010001203104000003327KBZPay                 Yangon        MMR11003060625265526740306000000000000000   10300001F05104100000000002100000000000000     
100   95030301100119050000000000300000000000300000002000000010410403060805113511362184800306000006758986   1030000200030000   333800010001203104000003327KBZPay                 Yangon        MMR11003060805113511360306000000000000000   10300001F05104100000000063000000000000000     
100   62911028202163630000000000099750000000099750002000000010410403061149534046182184800306206518404618   1040001600030000   591220000281000000010000269Shwe Ohh Pharmacy (San Yangon        MMR11003061149534046180306000000000000000   10300001F00104100000000005985000000000000     
100   95050315110306410000000000002940000000002940002000000010410403061219264926120788350306000006759891   1020000200030000   333400010001204104000000281Myanmar Soft-Gate Tech Yangon        MMR11003061219264926120306000000000000000   10300001F05104100000000000617000000000000     
100   62911028202030150000000000027382000000027382002000000010410403060834493150542184800306845031505064   1030000500030000   555610118961104519000016137City Mart South Okkala WZYD BR       MMR11003060834493150540306000000000000000   10300001 00104100000000001643000000000000     
100   95050316818236190000000000000980000000000980002000000010410403060951032103094384270306000006759362   1020000200030000   333400010001204104000000281Myanmar Soft-Gate Tech Yangon        MMR11003060951032103090306000000000000000   10300001F05104100000000000206000000000000     
100   95050310427855490000000000001960000000001960002000000010410403061053252325358710390306000006759609   1020000200030000   333400010001204104000000281Myanmar Soft-Gate Tech Yangon        MMR11003061053252325350306000000000000000   10300001F05104100000000000412000000000000     
100   95050311121153200000000000000980000000000980002000000010410403060931500150701334580306000006759285   1020000200030000   333400010001204104000000281Myanmar Soft-Gate Tech Yangon        MMR11003060931500150700306000000000000000   10300001F05104100000000000206000000000000     
100   95050312911050270000000000045000000000045000002000000010410403061135500550234263510306000006759754   1030000200030000   333800010001203104000003327KBZPay                 Yangon        MMR11003061135500550230306000000000000000   10300001F05104100000000009450000000000000     
100   95030301100338180000000000035000000000035000002000000010410403060551352135442184800306000006758332   1030000200030000   333800010001203104000003327KBZPay                 Yangon        MMR11003060551352135440306000000000000000   10300001F05104100000000007350000000000000     
100   95030301100346910000000000050000000000050000002000000010410403061254242424272184800306000006760010   1030000200030000   333800010001203104000003327KBZPay                 Yangon        MMR11003061254242424270306000000000000000   10300001F05104100000000010500000000000000     
100   95050319379439060000000000050000000000050000002000000010410403061437240724097895080306000006760431   1030000200030000   333800010001203104000003327KBZPay                 Yangon        MMR11003061437240724090306000000000000000   10300001F05104100000000010500000000000000     
100   95050313732480420000000000000980000000000980002000000010410403060936310631764639560306000006759297   1020000200030000   333400010001204104000000281Myanmar Soft-Gate Tech Yangon        MMR11003060936310631760306000000000000000   10300001F05104100000000000206000000000000     
100   95050314950595330000000000001000000000001000002000000010410403060505143514648073350306000006758046   1030000200030000   3338000100012031040000040022C2P (Myanmar) Co. Ltd Yangon        MMR11003060505143514640306000000000000000   10300001F05104100000000000210000000000000     
100   62911028202112400000000000062700000000062700002000000010410403060957363953382184800306206516395338   1040001600030000   591220000296000000010000284Shwe Ohh Pharmacy (Lan Yangon        MMR11003060957363953380306000000000000000   10300001F00104100000000003762000000000000     
100   62443100301716860000000000100000000000100000002000000010410403060026065606345704440306000006757013   1030000200030000   333800010001203104000003327KBZPay                 Yangon        MMR11003060026065606340306000000000000000   10300001F05104100000000021000000000000000     
100   95030301100119050000000000150000000000150000002000000010410403060302383238642184800306000006757406   1030000200030000   333800010001203104000003327KBZPay                 Yangon        MMR11003060302383238640306000000000000000   10300001F05104100000000031500000000000000     
100   62911028202108530000000000071503000000071503002000000010410403060511143793732184800306206512379373   1040001600030000   598320000310000000010000298PT Power Petrol Statio Yangon        MMR11003060511143793730306000000000000000   10300001F00104100000000002145000000000000     
100   95050311382087030000000000016000000000016000002000000010410403060903393339625880350306000006759190   1030000200030000   333800010001203104000003327KBZPay                 Yangon        MMR11003060903393339620306000000000000000   10300001F05104100000000003360000000000000     
100   62911028202291190000000000017500000000017500002000000010410403060444343778252184800306206511377825   1040001600030000   591220000283000000010000271Shwe Ohh Pharmacy ( Ky Yangon        MMR11003060444343778250306000000000000000   10300001F00104100000000001050000000000000     
100   95050327531396450000000000004900000000004900002000000010410403060443331333601633600306000006757891   1020000200030000   333400010001204104000000281Myanmar Soft-Gate Tech Yangon        MMR11003060443331333600306000000000000000   10300001F05104100000000001029000000000000     
100   95050326593223450000000000020350000000020350002000000010410403061057440096197732960306000743796235   1030000200030000   541188001127000008000000296KBZ BANK               CITY MART - J MMR11003061057440096190306000000000000000   10300001 00104100000000005088000000000000     
100   62443100372702000000000000069600000000069600002000000010410403061205430133049896020306000743800164   1030000200030000   541188001305000008000000325KBZ BANK               CITY MART - A MMR11003061205430133040306000000000000000   10300001 00104100000000017400000000000000     
100   95050317248519320000000000020000000000020000002000000010410403061134010401574178420306000006759745   1030000200030000   3338000100012031040000040022C2P (Myanmar) Co. Ltd Yangon        MMR11003061134010401570306000000000000000   10300001F05104100000000004200000000000000     
100   95050312498129060000000000000980000000000980002000000010410403060533140314268243540306000006758213   1020000200030000   333400010001204104000000281Myanmar Soft-Gate Tech Yangon        MMR11003060533140314260306000000000000000   10300001F05104100000000000206000000000000     
100   95050316049877640000000000000980000000000980002000000010410403060449441944623371180306000006757926   1020000200030000   333400010001204104000000281Myanmar Soft-Gate Tech Yangon        MMR11003060449441944620306000000000000000   10300001F05104100000000000206000000000000     
100   95050316818236190000000000000980000000000980002000000010410403061237310731637724880306000006759965   1020000200030000   333400010001204104000000281Myanmar Soft-Gate Tech Yangon        MMR11003061237310731630306000000000000000   10300001F05104100000000000206000000000000     
100   95050313732480420000000000000980000000000980002000000010410403060147291729961172460306000006757161   1020000200030000   333400010001204104000000281Myanmar Soft-Gate Tech Yangon        MMR11003060147291729960306000000000000000   10300001F05104100000000000206000000000000     
100   95050310652791070000000000010000000000010000002000000010410403061247321732332767430306000006759996   1030000200030000   333800010001203104000003327KBZPay                 Yangon        MMR11003061247321732330306000000000000000   10300001F05104100000000002100000000000000     
100   95050311926829590000000000001960000000001960002000000010410403051805153515461002280306000006756807   1020000200030000   333400010001204104000000281Myanmar Soft-Gate Tech Yangon        MMR11003051805153515460306000000000000000   10300001F05104100000000000412000000000000     
100   95050316818236190000000000000980000000000980002000000010410403061412354235958320560306000006760323   1020000200030000   333400010001204104000000281Myanmar Soft-Gate Tech Yangon        MMR11003061412354235950306000000000000000   10300001F05104100000000000206000000000000     
100   95030301100119050000000000300000000000300000002000000010410403060728145814062184800306000006758799   1030000200030000   333800010001203104000003327KBZPay                 Yangon        MMR11003060728145814060306000000000000000   10300001F05104100000000063000000000000000     
100   62911028202313470000000000050000000000050000002000000010410403051308350188402184800305206419018840   1030000500030000   598320001602000015172200016MAX ENERGY             PTN           MMR11003051308350188400305000000000000000   10300001 00104100000000001500000000000000     
100   62911028202803930000000000100000000000100000002000000010410403060501133113562184800306000006758010   1030000200030000   333800010001203104000003327KBZPay                 Yangon        MMR11003060501133113560306000000000000000   10300001F05104100000000021000000000000000     
100   95030301100344690000000000050000000000050000002000000010410403051708023802902184800306000006756745   1030000200030000   333800010001203104000003327KBZPay                 Yangon        MMR11003051708023802900306000000000000000   10300001F05104100000000010500000000000000     
100   95050319156011610000000000000980000000000980002000000010410403061226105610234334820306000006759914   1020000200030000   333400010001204104000000281Myanmar Soft-Gate Tech Yangon        MMR11003061226105610230306000000000000000   10300001F05104100000000000206000000000000     
100   62443100301716860000000000300000000000300000002000000010410403060025055505183966860306000006757011   1030000200030000   333800010001203104000003327KBZPay                 Yangon        MMR11003060025055505180306000000000000000   10300001F05104100000000063000000000000000     
100   95050311438762210000000000040000000000040000002000000010410403061233420342334419920306000006759947   1030000200030000   333800010001203104000003327KBZPay                 Yangon        MMR11003061233420342330306000000000000000   10300001F05104100000000008400000000000000     
100   95030301100155910000000000110000000000110000002000000010410403060733440344432184800306000006758835   1030000200030000   333800010001203104000003327KBZPay                 Yangon        MMR11003060733440344430306000000000000000   10300001F05104100000000023100000000000000     
100   95030301100120850000000000015000000000015000002000000010410403060738020802322184800306000006758851   1030000200030000   333800010001203104000003327KBZPay                 Yangon        MMR11003060738020802320306000000000000000   10300001F05104100000000003150000000000000     
100   62443101053241940000000000030036000000030036002000000010410403061133000140465108770306000743798285   1030000200030000   541188001304000008000000325KBZ BANK               CITY MART - A MMR11003061133000140460306000000000000000   10300001 00104100000000007509000000000000     
100   62911028202077190000000000000980000000000980002000000010410403061049561956302184800306000006759583   1020000200030000   333400010001204104000000281Myanmar Soft-Gate Tech Yangon        MMR11003061049561956300306000000000000000   10300001F05104100000000000206000000000000     
100   62911028202030150000000000020200000000020200002000000010410403061240201020392184800306000006759973   1030000200030000   333800010001203104000003327KBZPay                 Yangon        MMR11003061240201020390306000000000000000   10300001F05104100000000004242000000000000     
100   95050312360118350000000000002500000000002500002000000010410403060838570857089525700306000006759097   1030000900030000   333400010001202104000002022ACS                    Yangon        MMR11003060838570857080306000000000000000   10300001F05104100000000000525000000000000     
100   95050312498129060000000000004900000000004900002000000010410403061241041104367809980306000006759975   1020000200030000   333400010001204104000000281Myanmar Soft-Gate Tech Yangon        MMR11003061241041104360306000000000000000   10300001F05104100000000001029000000000000     
100   62911028202655010000000000066200000000066200002000000010410403061038253178322184800306794131738064   1030000300030000   555510124685104519000020166Makro Myanmar                        MMR11003061038253178320306000000000000000   10300001 00104100000000003972000000000000     
100   95050323133124350000000000071000000000071000002000000010410403060821595159854312960306000006759041   1030000200030000   333800010001203104000003327KBZPay                 Yangon        MMR11003060821595159850306000000000000000   10300001F05104100000000014910000000000000     
100   95050314190972620000000000002940000000002940002000000010410403061311414141800944750306000006760082   1020000200030000   333400010001204104000000281Myanmar Soft-Gate Tech Yangon        MMR11003061311414141800306000000000000000   10300001F05104100000000000617000000000000     
100   95030394609966640000000000030000000000030000002000000010410403060330153095972184800306290580941064   1030000300030000   888810125940104519000021285Shwe Taung Energy CoLt               MMR11003060330153095970306000000000000000   10300001 00104100000000000900000000000000     
100   95050312926040930000000000002000000000002000002000000010410403060850422042669100220306000006759135   1030000200030000   333800010001203104000003327KBZPay                 Yangon        MMR11003060850422042660306000000000000000   10300001F05104100000000000420000000000000     
100   95050317376014640000000000000980000000000980002000000010410403060915004500524554450306000006759230   1020000200030000   333400010001204104000000281Myanmar Soft-Gate Tech Yangon        MMR11003060915004500520306000000000000000   10300001F05104100000000000206000000000000     
100   95050316818236190000000000001960000000001960002000000010410403061405543554156582980306000006760297   1020000200030000   333400010001204104000000281Myanmar Soft-Gate Tech Yangon        MMR11003061405543554150306000000000000000   10300001F05104100000000000412000000000000     
100   62911028202138320000000000009800000000009800002000000010410403061009493949722184800306000006759435   1020000200030000   333400010001204104000000281Myanmar Soft-Gate Tech Yangon        MMR11003061009493949720306000000000000000   10300001F05104100000000002058000000000000     
100   95050314735271470000000000240000000000240000002000000010410403061435110511036242590306000006760422   1030000200030000   333800010001203104000003327KBZPay                 Yangon        MMR11003061435110511030306000000000000000   10300001F05104100000000050400000000000000     
100   95050315345734110000000000005880000000005880002000000010410403061537080708194760300306000006760670   1020000200030000   333400010001204104000000281Myanmar Soft-Gate Tech Yangon        MMR11003061537080708190306000000000000000   10300001F05104100000000001235000000000000     
100   95050312498129060000000000001960000000001960002000000010410403061343471347233107820306000006760208   1020000200030000   333400010001204104000000281Myanmar Soft-Gate Tech Yangon        MMR11003061343471347230306000000000000000   10300001F05104100000000000412000000000000     
100   95050325455962190000000000002940000000002940002000000010410403060343521352923832320306000006757587   1020000200030000   333400010001204104000000281Myanmar Soft-Gate Tech Yangon        MMR11003060343521352920306000000000000000   10300001F05104100000000000617000000000000     
100   62443100317500820000000000040000000000040000002000000010410403061542311231279717750306000006760683   1030000200030000   333800010001203104000003327KBZPay                 Yangon        MMR11003061542311231270306000000000000000   10300001F05104100000000008400000000000000     
100   95050310685238570000000000001000000000001000002000000010410403051642351235859264690306000006756709   1030000200030000   3334000100012031040000040102C2P (Myanmar) Co. Ltd Yangon        MMR11003051642351235850306000000000000000   10300001F05104100000000000210000000000000     
100   95050310213446310000000000009800000000009800002000000010410403051742371237640917180306000006756777   1020000200030000   333400010001204104000000281Myanmar Soft-Gate Tech Yangon        MMR11003051742371237640306000000000000000   10300001F05104100000000002058000000000000     
100   95050316438375580000000000001960000000001960002000000010410403060352562256535569900306000006757628   1020000200030000   333400010001204104000000281Myanmar Soft-Gate Tech Yangon        MMR11003060352562256530306000000000000000   10300001F05104100000000000412000000000000     
100   95050316049877640000000000000980000000000980002000000010410403060501003100626761250306000006757993   1020000200030000   333400010001204104000000281Myanmar Soft-Gate Tech Yangon        MMR11003060501003100620306000000000000000   10300001F05104100000000000206000000000000     
100   95050318048516790000000000005000000000005000002000000010410403061335210521448150370306000006760177   1030000200030000   3334000100012031040000040102C2P (Myanmar) Co. Ltd Yangon        MMR11003061335210521440306000000000000000   10300001F05104100000000001050000000000000     
100   62443100379321630000000000122000000000122000002000000010410403060403333755717307480306206511375571   1040001600030000   598320000658000000010000527Shwe Taung Energy (YGN Yangon        MMR11003060403333755710306000000000000000   10300001F00104100000000014640000000000000     
100   62443100392426520000000000010000000000010000002000000010410403060619054905286171290306000006758483   1030000200030000   333800010001203104000003327KBZPay                 Yangon        MMR11003060619054905280306000000000000000   10300001F05104100000000002100000000000000     
100   62443100301716860000000000300000000000300000002000000010410403060022105210230661890306000006757007   1030000200030000   333800010001203104000003327KBZPay                 Yangon        MMR11003060022105210230306000000000000000   10300001F05104100000000063000000000000000     
100   62443100395250310000000000000980000000000980002000000010410403060620475047114518800306000006758491   1020000200030000   333400010001204104000000281Myanmar Soft-Gate Tech Yangon        MMR11003060620475047110306000000000000000   10300001F05104100000000000206000000000000     
100   62443100301716860000000000300000000000300000002000000010410403060023375337845619340306000006757009   1030000200030000   333800010001203104000003327KBZPay                 Yangon        MMR11003060023375337840306000000000000000   10300001F05104100000000063000000000000000     
100   95050320684106730000000000018000000000018000002000000010410403061202273227377398290306000006759828   1030000200030000   333800010001203104000003327KBZPay                 Yangon        MMR11003061202273227370306000000000000000   10300001F05104100000000003780000000000000     
100   62443100372702000000000000058000000000058000002000000010410403061702250173421419680306000743816492   1030000200030000   541188001003000008000000008KBZ BANK               MARKETPLACE - MMR11003061702250173420306000000000000000   10300001 00104100000000014500000000000000     
100   95050317518971470000000000015000000000015000002000000010410403061135150515125916000306000006759750   1030000200030000   3338000100012031040000040022C2P (Myanmar) Co. Ltd Yangon        MMR11003061135150515120306000000000000000   10300001F05104100000000003150000000000000     
100   62911028202443730000000000050250000000050250002000000010410403060319472529752184800306622490947064   1030000900030000   591219000795190110000000627Shwe Ohh Pharmacy ST-3 YANGONINDAING MMR11003060319472529750306000000000000000   10300001F00104100000000003015000000000000     
100   62911028202446700000000000020000000000020000002000000010410403061437480748062184800306000006760433   1030000200030000   333800010001203104000003327KBZPay                 Yangon        MMR11003061437480748060306000000000000000   10300001F05104100000000004200000000000000     
100   95050315110306410000000000001960000000001960002000000010410403060035360536702399470306000006757028   1020000200030000   333400010001204104000000281Myanmar Soft-Gate Tech Yangon        MMR11003060035360536700306000000000000000   10300001F05104100000000000412000000000000     
100   62443100340648380000000000002000000000002000002000000010410403061250032003414505010306000006759997   1030000200030000   333800010001203104000003327KBZPay                 Yangon        MMR11003061250032003410306000000000000000   10300001F05104100000000000420000000000000     
100   95050312498129060000000000009500000000009500002000000010410403060246081608248378080306000006757336   1030000200030000   3333000100012031040000040282C2P (Myanmar) Co. Ltd Yangon        MMR11003060246081608240306000000000000000   10300001F05104100000000010000000000000000     
100   62911028202057620000000000085000000000085000002000000010410403060744101410752184800306000006758900   1030000200030000   333800010001203104000003327KBZPay                 Yangon        MMR11003060744101410750306000000000000000   10300001F05104100000000017850000000000000     
100   95050316049877640000000000002940000000002940002000000010410403061417194719233278010306000006760339   1020000200030000   333400010001204104000000281Myanmar Soft-Gate Tech Yangon        MMR11003061417194719230306000000000000000   10300001F05104100000000000617000000000000     
100   95050310213446310000000000004900000000004900002000000010410403060400263026783917410306000006757667   1020000200030000   333400010001204104000000281Myanmar Soft-Gate Tech Yangon        MMR11003060400263026780306000000000000000   10300001F05104100000000001029000000000000     
100   62911028202067520000000000002940000000002940002000000010410403060404263426572184800306000006757680   1020000200030000   333400010001204104000000281Myanmar Soft-Gate Tech Yangon        MMR11003060404263426570306000000000000000   10300001F05104100000000000617000000000000     
100   62443100371022130000000000207440000000207440002000000010410403060527413803818158440306206512380381   1040001600030000   581420000804000000010000580Jeff's Kitchen (Kan Ye Yangon        MMR11003060527413803810306000000000000000   10300001F00104100000000024893000000000000     
100   62911028202328650000000000015000000000015000002000000010410403061005413958992184800306206517395899   1040001600030000   598320000658000000010000527Shwe Taung Energy (YGN Yangon        MMR11003061005413958990306000000000000000   10300001F00104100000000000450000000000000     
100   95050315690875920000000000062000000000062000002000000010410403060919453932012901970306206516393201   1040001600030000   569120000928000000010000675Generation Concept Sto Ygn           MMR11003060919453932010306000000000000000   10300001F00104100000000014880000000000000     
100   95050326155679180000000000005880000000005880002000000010410403060419084908901208120306000006757777   1020000200030000   333400010001204104000000281Myanmar Soft-Gate Tech Yangon        MMR11003060419084908900306000000000000000   10300001F05104100000000001235000000000000     
100   95050319468370810000000000000980000000000980002000000010410403051721315131642569660306000006756759   1020000200030000   333400010001204104000000281Myanmar Soft-Gate Tech Yangon        MMR11003051721315131640306000000000000000   10300001F05104100000000000206000000000000     
100   95050312498129060000000000001960000000001960002000000010410403061234270427709377370306000006759956   1020000200030000   333400010001204104000000281Myanmar Soft-Gate Tech Yangon        MMR11003061234270427700306000000000000000   10300001F05104100000000000412000000000000     
100   95050316818236190000000000001960000000001960002000000010410403061344571457821455340306000006760209   1020000200030000   333400010001204104000000281Myanmar Soft-Gate Tech Yangon        MMR11003061344571457820306000000000000000   10300001F05104100000000000412000000000000     
100   95030318100002710000000000100000000000100000002000000010410403061435420542952184800306000006760427   1030000200030000   333800010001203104000003327KBZPay                 Yangon        MMR11003061435420542950306000000000000000   10300001F05104100000000021000000000000000     
100   95050320335873810000000000000980000000000980002000000010410403060838380838691178180306000006759100   1020000200030000   333400010001204104000000281Myanmar Soft-Gate Tech Yangon        MMR11003060838380838690306000000000000000   10300001F05104100000000000206000000000000     
100   62911028202290100000000000111233000000111233002000000010410403061230480117922184800306000743801595   1030000200030000   541188001073000008000000294KBZ BANK               CITY MART - J MMR11003061230480117920306000000000000000   10300001 00104100000000006674000000000000     
100   95050311931431670000000000203600000000203600002000000010410403060539432567137993970306344091243064   1030000900030000   541119001331190110000000971Ocean Junction NPT C 9 NAYPYITAW     MMR11003060539432567130306000000000000000   10300001F00104100000000050900000000000000     
100   62443100395964530000000000012750000000012750002000000010410403061117462668683582740306895471746064   1030000900030000   541119001358190110000000977Ocean PZD C 12         YANGONAUNG    MMR11003061117462668680306000000000000000   10300001F00104100000000003188000000000000     
100   62443100300743690000000000011600000000011600002000000010410403061111002666547228090306734411700064   1030000900030000   541119001233190110000000951Marketplace KTY C 3    YANGONARTAUNG MMR11003061111002666540306000000000000000   10300001F00104100000000002900000000000000     
100   95050316818236190000000000001960000000001960002000000010410403061322115211419802850306000006760130   1020000200030000   333400010001204104000000281Myanmar Soft-Gate Tech Yangon        MMR11003061322115211410306000000000000000   10300001F05104100000000000412000000000000     
100   95050314557307430000000000002940000000002940002000000010410403061012174217065065040306000006759448   1020000200030000   333400010001204104000000281Myanmar Soft-Gate Tech Yangon        MMR11003061012174217060306000000000000000   10300001F05104100000000000617000000000000     
100   95050310213446310000000000000980000000000980002000000010410403061228175817456072400306000006759928   1020000200030000   333400010001204104000000281Myanmar Soft-Gate Tech Yangon        MMR11003061228175817450306000000000000000   10300001F05104100000000000206000000000000     
100   62911028202593140000000000050000000000050000002000000010410403061209064063752184800306206519406375   1040001600030000   598320000658000000010000527Shwe Taung Energy (YGN Yangon        MMR11003061209064063750306000000000000000   10300001F00104100000000001500000000000000     
100   95050311419479170000000000001960000000001960002000000010410403060317234723625399710306000006757472   1020000200030000   333400010001204104000000281Myanmar Soft-Gate Tech Yangon        MMR11003060317234723620306000000000000000   10300001F05104100000000000412000000000000     
100   95050317085125750000000000030000000000030000002000000010410403061125575557802015360306000006759714   1030000200030000   333800010001203104000003327KBZPay                 Yangon        MMR11003061125575557800306000000000000000   10300001F05104100000000006300000000000000     
100   95050316049877640000000000001960000000001960002000000010410403061419194919871625530306000006760348   1020000200030000   333400010001204104000000281Myanmar Soft-Gate Tech Yangon        MMR11003061419194919870306000000000000000   10300001F05104100000000000412000000000000     
100   95050312940629360000000000095000000000095000002000000010410403060222145214230115660306000006757254   1030000200030000   333800010001203104000003327KBZPay                 Yangon        MMR11003060222145214230306000000000000000   10300001F05104100000000019950000000000000     
100   62443100336591330000000000182350000000182350002000000010410403060525242563476505960306070551124064   1030000900030000   541119001164190110000000930OCEAN HTY C 14         YANGONTHARYA  MMR11003060525242563470306000000000000000   10300001F00104100000000045588000000000000     
100   95050324247403260000000000060600000000060600002000000010410403060936182635365951650306391061618064   1030000900030000   541119000282190110000000177Pro1 Global (Insein)   YANGON        MMR11003060936182635360306000000000000000   10300001F00104100000000015150000000000000     
100   62443100372702000000000000029200000000029200002000000010410403060308193093546967090306975380931064   1030000500030000   555610112242104519000010487Ocean Super Center St  ohn           MMR11003060308193093540306000000000000000   10300001 00104100000000007300000000000000     
100   62911028202212490000000000010900000000010900002000000010410403060417262543652184800306557471026064   1030000900030000   581219000715190110000000546Akkhaya Tea House(Dago YANGON        MMR11003060417262543650306000000000000000   10300001F00104100000000001112000000000000     
100   62911028202449440000000000379000000000379000002000000010410403061107572665452184800306651371757064   1030000900030000   599919001138190110000000918Lucky Man Uwisarya     YANGONUT      MMR11003061107572665450306000000000000000   10300001F00104100000000022740000000000000     
100   62911028202133520000000000006450000000006450002000000010410403061159152680632184800306760291815064   1030000900030000   541119001189190110000000942City Mart HDC C 4      YANGONUT      MMR11003061159152680630306000000000000000   10300001F00104100000000000387000000000000     
100   95030301100360840000000000002940000000002940002000000010410403061455522552092184800306000006760514   1020000200030000   333400010001204104000000281Myanmar Soft-Gate Tech Yangon        MMR11003061455522552090306000000000000000   10300001F05104100000000000617000000000000     
100   95050316049877640000000000000980000000000980002000000010410403061557002700596923360306000006760714   1020000200030000   333400010001204104000000281Myanmar Soft-Gate Tech Yangon        MMR11003061557002700590306000000000000000   10300001F05104100000000000206000000000000     
100   62911028202823570000000000050000000000050000002000000010410403061126365636932184800306000006759722   1030000200030000   333800010001203104000003327KBZPay                 Yangon        MMR11003061126365636930306000000000000000   10300001F05104100000000010500000000000000     
100   95050315099113150000000000001960000000001960002000000010410403060546441644531298930306000006758299   1020000200030000   333400010001204104000000281Myanmar Soft-Gate Tech Yangon        MMR11003060546441644530306000000000000000   10300001F05104100000000000412000000000000     
100   62443100300743690000000000010605000000010605002000000010410403061040012656003157260306945101701064   1030000900030000   581219000981190110000000788Jo Jo Hot Pot (KTY)    YANGONARTAUNG MMR11003061040012656000306000000000000000   10300001F00104100000000004507000000000000     
100   95050315110306410000000000002940000000002940002000000010410403061556132613568065270306000006760712   1020000200030000   333400010001204104000000281Myanmar Soft-Gate Tech Yangon        MMR11003061556132613560306000000000000000   10300001F05104100000000000617000000000000     
100   95050311931431670000000000008000000000008000002000000010410403060535452566059646450306267051245064   1030000900030000   541119001331190110000000971Ocean Junction NPT C 9 NAYPYITAW     MMR11003060535452566050306000000000000000   10300001F00104100000000002000000000000000     
100   95030301100296750000000000017900000000017900002000000010410403061015492647432184800306291451649064   1030000900030000   541119000141190110000000083SeinGayHarParami Cente YANGON        MMR11003061015492647430306000000000000000   10300001F00104100000000001074000000000000     
100   62443101003317490000000000032000000000032000002000000010410403060917562629737859430306986471556064   1030000900030000   541119000160190110000000084Pro (1) Global (Pazund YANGONARTAUNG MMR11003060917562629730306000000000000000   10300001F00104100000000008000000000000000     
100   62443100372702000000000000040800000000040800002000000010410403060256233091920272060306746250956064   1030000500030000   555610112238104519000010487Ocean Super Center St  ohn           MMR11003060256233091920306000000000000000   10300001 00104100000000010200000000000000     
100   95030301100126220000000000015000000000015000002000000010410403060845462620042184800306284151546064   1030000900030000   541119000546190110000000394Super One ShoppingMall YANGON        MMR11003060845462620040306000000000000000   10300001F00104100000000000900000000000000     
100   62443100395964530000000000017250000000017250002000000010410403061116482668325235230306870461748064   1030000900030000   541119001358190110000000977Ocean PZD C 12         YANGONAUNG    MMR11003061116482668320306000000000000000   10300001F00104100000000004313000000000000     
100   95030301100128950000000000071800000000071800002000000010410403061154252679142184800306651241825064   1030000900030000   581319000844190110000000659Beer Vibe              YANGONUNG     MMR11003061154252679140306000000000000000   10300001F00104100000000007324000000000000     
100   95050325784857510000000000004000000000004000002000000010410403060905332626137617920306728351533064   1030000900030000   541119001215190110000000950City Mart YK City Care YANGONAUNG    MMR11003060905332626130306000000000000000   10300001F00104100000000001000000000000000     
100   95030301100415710000000000025300000000025300002000000010410403060935082634962184800306366051608064   1030000900030000   541119001364190110000000977Ocean PZD C18          YANGONAUNG    MMR11003060935082634960306000000000000000   10300001F00104100000000001518000000000000     
100   62443100336591330000000000683550000000683550002000000010410403060518502561823200990306955481150064   1030000900030000   541119001164190110000000930OCEAN HTY C 14         YANGONTHARYA  MMR11003060518502561820306000000000000000   10300001F00104100000000170888000000000000     
100   62911028202492080000000000006700000000006700002000000010410403060928412633142184800306232581541064   1030000900030000   541119000112190110000000077Sein Gay Har Chinatown YANGON        MMR11003060928412633140306000000000000000   10300001F00104100000000000402000000000000     
