100   62911028202720510000000000035000000000035000002000000010410403060513530011652184800306206511001165   1030000500030000   531120156001000045311201560GAMONE PWINT           PTN           MMR11003060513530011650306000000000000000   10300001 00104100000000002100000000000000     
100   62911028202245320000000003150000000003150000002000000010410403050525140001922184800305206411000192   1030000500030000   701120124803000057011201248NOVOTEL YANGON MAX     PTN           MMR11003050525140001920305000000000000000   10300001 00104100000000321300000000000000     
100   62911028202502480000000000018050000000018050002000000010410403040646140113582184800304206306011358   1030000600030000   549900001955315799420001324EASY MART 011          HLAING        MMR11003040646140113580304000000000000000   10300001 00104100000000001841000000000000     
100   62443100393841160000000000022000000000022000002000000010410403032250200046903491500304206322004690   1030000600030000   554100001226315799420000679DENKO MAGWAY - 2       MAGWAY        MMR11003032250200046900304000000000000000   10300001 00104100000000002640000000000000     
100   62911028202761360000000000050000000000050000002000000010410403040844000061642184800304206308006164   1030000600030000   554100002328315799420001235DENKO NAY PYI TAW 2    NAYPYITAW     MMR11003040844000061640304000000000000000   10300001 00104100000000001500000000000000     
100   62911028202777610000000000087000000000087000002000000010410403040140070077912184800304206301007791   1030000600030000   554100002323315799420000474DENKO N.DAGON - 1      YANGON        MMR11003040140070077910304000000000000000   10300001 00104100000000002610000000000000     
100   62443100302523870000000000045000000000045000002000000010410403032300420441085143980304206323044108   1030000600030000   554100000969315799420000481DENKO NORTH OKKALAPA   YANGON        MMR11003032300420441080304000000000000000   10300001 00104100000000005400000000000000     
100   62911028202221220000000000006000000000006000002000000010410403032303160571132184800304206323057113   1030000600030000   554100002085315799420000471DENKO BAHAN            YANGON        MMR11003032303160571130304000000000000000   10300001 00104100000000000180000000000000     
100   62443100317863910000000000050000000000050000002000000010410403040030140618081243340304206300061808   1030000600030000   554100000957315799420000480DENKO N.DAGON - 3      YANGON        MMR11003040030140618080304000000000000000   10300001 00104100000000006000000000000000     
100   62443101071845130000000000062700000000062700002000000010410403070840321032666554740307000006764681   1030000200030000   3333000100012031040000040282C2P (Myanmar) Co. Ltd Yangon        MMR11003070840321032660307000000000000000   10300001F05104100000000010000000000000000     
100   95050310427855490000000000000980000000000980002000000010410403070254302430620085720307000006761649   1020000200030000   333400010001204104000000281Myanmar Soft-Gate Tech Yangon        MMR11003070254302430620307000000000000000   10300001F05104100000000000206000000000000     
100   62911028202679290000000000100604000000100604002000000010410403070611264126692184800307000006763394   1030000200030000   333800010001203104000003327KBZPay                 Yangon        MMR11003070611264126690307000000000000000   10300001F05104100000000021127000000000000     
100   62911028202099050000000000128950000000128950002000000010410403070623554489632184800307206613448963   1040001600030000   591220000266000000010000254Shwe Ohh Pharmacy (Sin Yangon        MMR11003070623554489630307000000000000000   10300001F00104100000000007737000000000000     
100   62911028202099050000000000024000000000024000002000000010410403070650464503132184800307206613450313   1040001600030000   569120000931000000010000678Generation Concept Sto Ygn           MMR11003070650464503130307000000000000000   10300001F00104100000000001440000000000000     
100   95050316786253730000000000015000000000015000002000000010410403070925505550181888230307000006765010   1030000200030000   333800010001203104000003327KBZPay                 Yangon        MMR11003070925505550180307000000000000000   10300001F05104100000000003150000000000000     
100   95050312498129060000000000002940000000002940002000000010410403070320305030010717050307000006761863   1020000200030000   333400010001204104000000281Myanmar Soft-Gate Tech Yangon        MMR11003070320305030010307000000000000000   10300001F05104100000000000617000000000000     
100   62911028202023630000000000064000000000064000002000000010410403040244400214292184800304206302021429   1030000600030000   554100001116315799420000574DENKO HLAE KUU         HLAE KUU      MMR11003040244400214290304000000000000000   10300001 00104100000000001920000000000000     
100   62911028202023630000000000082000000000082000002000000010410403040011550691642184800304206300069164   1030000600030000   554100000946315799420000471DENKO BAHAN            YANGON        MMR11003040011550691640304000000000000000   10300001 00104100000000002460000000000000     
100   62911028202225850000000000053821000000053821002000000010410403071125250033432184800307206617003343   1020000200030000   806200105002300018062000010MWD BANK               YGN           MMR11003071125250033430307000000000000000   10300001 00104100000000003229000000000000     
100   62443101072700490000000000078100000000078100002000000010410403071537090020167015880307000743867661   1030000200030000   541188001482000008000000399KBZ BANK               OCEAN SUPERCE MMR11003071537090020160307000000000000000   10300001 00104100000000019525000000000000     
100   95050316049877640000000000001960000000001960002000000010410403071331190119449173880307000006766392   1020000200030000   333400010001204104000000281Myanmar Soft-Gate Tech Yangon        MMR11003071331190119440307000000000000000   10300001F05104100000000000412000000000000     
100   62911028202441420000000000005000000000005000002000000010410403071656070013422184800307000743872523   1030000200030000   541188001287000008000000472KBZ BANK               NEIGHBOURHOOD MMR11003071656070013420307000000000000000   10300001 00104100000000000300000000000000     
100   95050310750557450000000000018900000000018900002000000010410403071755370049269101910307000743876183   1030000200030000   541188001316000008000000306KBZ BANK               CITY MART - S MMR11003071755370049260307000000000000000   10300001 00104100000000004725000000000000     
100   95030353248676040000000000008850000000008850002000000010410403071652400118642184800307000743872334   1030000200030000   541188001073000008000000294KBZ BANK               CITY MART - J MMR11003071652400118640307000000000000000   10300001 00104100000000000531000000000000     
100   95050312020318170000000000033171000000033171002000000010410403071137582913742151590307471071858065   1030000900030000   541119001187190110000000942City Mart HDC C 2      YANGONUT      MMR11003071137582913740307000000000000000   10300001F00104100000000008293000000000000     
100   62443100323891610000000000053500000000053500002000000010410403070933282878527746090307201031628065   1030000900030000   541119000079190110000000057Pro (1) Global (Tampaw MANDALAYHARSI MMR11003070933282878520307000000000000000   10300001F00104100000000013375000000000000     
100   62911028202616250000000000127538000000127538002000000010410403071016402889992184800307904461640065   1030000900030000   541119000130190110000000082Sein Gay Har Super Cen YANGON        MMR11003071016402889990307000000000000000   10300001F00104100000000007652000000000000     
100   95030301100120850000000000016000000000016000002000000010410403070555054474142184800307206612447414   1040001600030000   569120000926000000010000673Generation Concept Sto Ygn           MMR11003070555054474140307000000000000000   10300001F00104100000000000960000000000000     
100   95050311382087030000000000017000000000017000002000000010410403071416294629267266110307000006766592   1030000200030000   333800010001203104000003327KBZPay                 Yangon        MMR11003071416294629260307000000000000000   10300001F05104100000000003570000000000000     
100   95050318057347910000000000000980000000000980002000000010410403071115544554964229560307000006765714   1020000200030000   333400010001204104000000281Myanmar Soft-Gate Tech Yangon        MMR11003071115544554960307000000000000000   10300001F05104100000000000206000000000000     
100   95050318057347910000000000000980000000000980002000000010410403071529055905190803840307000006766919   1020000200030000   333400010001204104000000281Myanmar Soft-Gate Tech Yangon        MMR11003071529055905190307000000000000000   10300001F05104100000000000206000000000000     
100   95050314160856250000000000000980000000000980002000000010410403071111514151745541660307000006765682   1020000200030000   333400010001204104000000281Myanmar Soft-Gate Tech Yangon        MMR11003071111514151740307000000000000000   10300001F05104100000000000206000000000000     
100   62911028202400660000000000035000000000035000002000000010410403071444360000432184800307000743864539   1030000200030000   723088001793000008000001918KBZ BANK               ROSA LEE      MMR11003071444360000430307000000000000000   10300001 00104100000000002100000000000000     
100   95050329888918380000000000030350000000030350002000000010410403071701090118651507130307000743872881   1030000200030000   541188001073000008000000294KBZ BANK               CITY MART - J MMR11003071701090118650307000000000000000   10300001 00104100000000007588000000000000     
100   62443100363992240000000000100000000000100000002000000010410403071504000056746299450307000743865763   1030000200030000   541188001331000008000000327KBZ BANK               CITY MART - S MMR11003071504000056740307000000000000000   10300001 00104100000000025000000000000000     
100   95050324411430900000000000018800000000018800002000000010410403071745050016089187010307000743875559   1030000200030000   581288000947000008000004873KBZ BANK               PIZZA HUT RES MMR11003071745050016080307000000000000000   10300001 00104100000000007990000000000000     
100   62443100364681690000000000014600000000014600002000000010410403071358080011702931250307000743860941   1030000200030000   581288000950000008000004879KBZ BANK               PIZZA HUT RES MMR11003071358080011700307000000000000000   10300001 00104100000000006205000000000000     
100   95030325100019320000000000009500000000009500002000000010410403071629440037112184800307000743870837   1030000200030000   541188001369000008000000395KBZ BANK               OCEAN SUPERMA MMR11003071629440037110307000000000000000   10300001 00104100000000000570000000000000     
100   95050312498129060000000000006860000000006860002000000010410403070231140114885518100307000006761485   1020000200030000   333400010001204104000000281Myanmar Soft-Gate Tech Yangon        MMR11003070231140114880307000000000000000   10300001F05104100000000001441000000000000     
100   62911028202335820000000000065235000000065235002000000010410403071403150010682184800307000743861335   1030000200030000   541188001348000008000000395KBZ BANK               OCEAN SUPERMA MMR11003071403150010680307000000000000000   10300001 00104100000000003914000000000000     
100   95050315110306410000000000002940000000002940002000000010410403071605583558880718750307000006767036   1020000200030000   333400010001204104000000281Myanmar Soft-Gate Tech Yangon        MMR11003071605583558880307000000000000000   10300001F05104100000000000617000000000000     
100   95050318180584510000000000022000000000022000002000000010410403070817454745474973570307000006764498   1030000200030000   333800010001203104000003327KBZPay                 Yangon        MMR11003070817454745470307000000000000000   10300001F05104100000000004620000000000000     
100   95050318601641810000000000003550000000003550002000000010410403060543210005792951420306206512000579   1030000500030000   591220011401014405912200114SHWE OHH PHARMACY      PTN           MMR11003060543210005790306000000000000000   10300001 00104100000000000852000000000000     
100   95050313145843230000000000060000000000060000002000000010410403071307393739367521400307000006766267   1030000200030000   333800010001203104000003327KBZPay                 Yangon        MMR11003071307393739360307000000000000000   10300001F05104100000000012600000000000000     
100   95050316818236190000000000001960000000001960002000000010410403071207403740346683560307000006765926   1020000200030000   333400010001204104000000281Myanmar Soft-Gate Tech Yangon        MMR11003071207403740340307000000000000000   10300001F05104100000000000412000000000000     
100   95050312695033440000000000000980000000000980002000000010410403070529425942767007800307000006763067   1020000200030000   333400010001204104000000281Myanmar Soft-Gate Tech Yangon        MMR11003070529425942760307000000000000000   10300001F05104100000000000206000000000000     
100   95050319220344710000000000000980000000000980002000000010410403071127375737198506240307000006765783   1020000200030000   333400010001204104000000281Myanmar Soft-Gate Tech Yangon        MMR11003071127375737190307000000000000000   10300001F05104100000000000206000000000000     
100   62911028202104650000000000057943000000057943002000000010410403070809212856622184800307856391421065   1030000900030000   541119001279190110000000963City Mart SPL C 4      YANGONMYOTHIT MMR11003070809212856620307000000000000000   10300001F00104100000000003477000000000000     
100   62911028202163630000000000043000000000043000002000000010410403061205210173442184800306206518017344   1030000500030000   598320001001000015172200010MAX ENERGY             PTN           MMR11003061205210173440306000000000000000   10300001 00104100000000001290000000000000     
100   95050320531117320000000000066126000000066126002000000010410403060800290142710412320306206514014271   1030000500030000   598320002701000015172200027MAX ENERGY             PTN           MMR11003060800290142710306000000000000000   10300001 00104100000000007935000000000000     
100   95030301100415710000000000019501000000019501002000000010410403060811040189392184800306206514018939   1030000500030000   598320001601000015172200016MAX ENERGY             PTN           MMR11003060811040189390306000000000000000   10300001 00104100000000000585000000000000     
100   62911028202709150000000000046720000000046720002000000010410403071137220044192184800307000743848235   1030000200030000   541188001420000008000000401KBZ BANK               OCEAN SUPERCE MMR11003071137220044190307000000000000000   10300001 00104100000000002803000000000000     
100   62911028202752030000000000084000000000084000002000000010410403030510120242962184800303206205024296   1030000600030000   554100001155315799420000607DENKO NPT 1            NAYPYITAW.    MMR11003030510120242960303000000000000000   10300001 00104100000000002520000000000000     
100   95050322083768590000000000027250000000027250002000000010410403071712390141283925490307000743873713   1030000200030000   541188001304000008000000325KBZ BANK               CITY MART - A MMR11003071712390141280307000000000000000   10300001 00104100000000006813000000000000     
100   95050324411430900000000000030000000000030000002000000010410403071737370156334059370307000743875187   1030000200030000   541188001008000008000000008KBZ BANK               MARKETPLACE - MMR11003071737370156330307000000000000000   10300001 00104100000000007500000000000000     
100   95050311403968010000000000010000000000010000002000000010410403071439380938819003690307000006766715   1030000200030000   333800010001203104000003327KBZPay                 Yangon        MMR11003071439380938810307000000000000000   10300001F05104100000000002100000000000000     
100   95050312498129060000000000000980000000000980002000000010410403071238280828892393750307000006766128   1020000200030000   333400010001204104000000281Myanmar Soft-Gate Tech Yangon        MMR11003071238280828890307000000000000000   10300001F05104100000000000206000000000000     
100   95030363502824520000000000001000000000001000002000000010410403071353512351602184800307000006766488   1030000200030000   333800010001203104000003327KBZPay                 Yangon        MMR11003071353512351600307000000000000000   10300001F05104100000000000210000000000000     
100   95050313843656520000000000000980000000000980002000000010410403070252282228768348140307000006761632   1020000200030000   333400010001204104000000281Myanmar Soft-Gate Tech Yangon        MMR11003070252282228760307000000000000000   10300001F05104100000000000206000000000000     
100   95050318608138520000000000012100000000012100002000000010410403070909233923215788870307000006764881   1030000200030000   333800010001203104000003327KBZPay                 Yangon        MMR11003070909233923210307000000000000000   10300001F05104100000000002541000000000000     
100   95050310332595380000000000004900000000004900002000000010410403071422455245715698720307000006766628   1020000200030000   333400010001204104000000281Myanmar Soft-Gate Tech Yangon        MMR11003071422455245710307000000000000000   10300001F05104100000000001029000000000000     
100   95030384418409420000000000050000000000050000002000000010410403070223595359802184800307000006761458   1030000200030000   333800010001203104000003327KBZPay                 Yangon        MMR11003070223595359800307000000000000000   10300001F05104100000000010500000000000000     
100   95050310332595380000000000000980000000000980002000000010410403071356512651668918600307000006766514   1020000200030000   333400010001204104000000281Myanmar Soft-Gate Tech Yangon        MMR11003071356512651660307000000000000000   10300001F05104100000000000206000000000000     
100   62911028202684060000000000038050000000038050002000000010410403070431014426552184800307206611442655   1040001600030000   591220000258000000010000246Shwe Ohh Pharmacy (Sin Yangon        MMR11003070431014426550307000000000000000   10300001F00104100000000002283000000000000     
100   95050315345734110000000000000980000000000980002000000010410403070917474747226760590307000006764944   1020000200030000   333400010001204104000000281Myanmar Soft-Gate Tech Yangon        MMR11003070917474747220307000000000000000   10300001F05104100000000000206000000000000     
100   95050316785465380000000000001960000000001960002000000010410403071607163716605761290307000006767039   1020000200030000   333400010001204104000000281Myanmar Soft-Gate Tech Yangon        MMR11003071607163716600307000000000000000   10300001F05104100000000000412000000000000     
100   62911028202029420000000000104150000000104150002000000010410403070606554480872184800307206613448087   1040001600030000   591220000284000000010000272Shwe Ohh Pharmacy (San Yangon        MMR11003070606554480870307000000000000000   10300001F00104100000000006249000000000000     
100   95030337113021520000000000011303000000011303002000000010410403070615282826602184800307035451228065   1030000900030000   541119001242190110000000955City Mart JS C 1       YANGONUT      MMR11003070615282826600307000000000000000   10300001F00104100000000000678000000000000     
100   62911028202161240000000000012150000000012150002000000010410403071046410290642184800307000743844034   1030000200030000   541188001024000008000000298KBZ BANK               CITY MART - M MMR11003071046410290640307000000000000000   10300001 00104100000000000729000000000000     
100   95030304441505280000000006839376000006839376002000000010410403070350192019622184800307000006762173   1010000100030000   333500010001212104000003087Internal Revenue Depar Yangon        MMR11003070350192019620307000000000000000   10300001F05104100000000060000000000000000     
100   95050314570621780000000000000980000000000980002000000010410403070751562156260696880307000006764258   1020000200030000   333400010001204104000000281Myanmar Soft-Gate Tech Yangon        MMR11003070751562156260307000000000000000   10300001F05104100000000000206000000000000     
100   95050323133124350000000000002940000000002940002000000010410403071333580358960911460307000006766399   1020000200030000   333400010001204104000000281Myanmar Soft-Gate Tech Yangon        MMR11003071333580358960307000000000000000   10300001F05104100000000000617000000000000     
100   62911028202446700000000000020140000000020140002000000010410403071234250425592184800307000006766098   1030000200030000   333800010001203104000003327KBZPay                 Yangon        MMR11003071234250425590307000000000000000   10300001F05104100000000004229000000000000     
100   95050310397364970000000000001960000000001960002000000010410403071538030803969066260307000006766943   1020000200030000   333400010001204104000000281Myanmar Soft-Gate Tech Yangon        MMR11003071538030803960307000000000000000   10300001F05104100000000000412000000000000     
100   62911028202803930000000000050000000000050000002000000010410403071444311431472184800307000006766749   1030000200030000   333800010001203104000003327KBZPay                 Yangon        MMR11003071444311431470307000000000000000   10300001F05104100000000010500000000000000     
100   95050315430281830000000000050000000000050000002000000010410403070919004900906675490307000006764959   1030000200030000   333800010001203104000003327KBZPay                 Yangon        MMR11003070919004900900307000000000000000   10300001F05104100000000010500000000000000     
100   62911028202764900000000000001000000000001000002000000010410403071427585758062184800307000006766651   1030000200030000   333800010001203104000003327KBZPay                 Yangon        MMR11003071427585758060307000000000000000   10300001F05104100000000000210000000000000     
100   95030301100118480000000000040000000000040000002000000010410403070221595159332184800307000006761438   1030000200030000   333800010001203104000003327KBZPay                 Yangon        MMR11003070221595159330307000000000000000   10300001F05104100000000008400000000000000     
100   95050312498129060000000000001960000000001960002000000010410403071404413441552308660307000006766541   1020000200030000   333400010001204104000000281Myanmar Soft-Gate Tech Yangon        MMR11003071404413441550307000000000000000   10300001F05104100000000000412000000000000     
100   95050328246950960000000000130000000000130000002000000010410403070629344492464638890307206613449246   1040001600030000   541120000561000000010000465Ocean Shwe Gone Daing  Yangon        MMR11003070629344492460307000000000000000   10300001F00104100000000032500000000000000     
100   62443100379321630000000000136000000000136000002000000010410403070917034570570065550307206616457057   1040001600030000   598320000658000000010000527Shwe Taung Energy (YGN Yangon        MMR11003070917034570570307000000000000000   10300001F00104100000000016320000000000000     
100   95050312695033440000000000000980000000000980002000000010410403071217054705201641020307000006765978   1020000200030000   333400010001204104000000281Myanmar Soft-Gate Tech Yangon        MMR11003071217054705200307000000000000000   10300001F05104100000000000206000000000000     
100   95050312020318170000000000012000000000012000002000000010410403071141382914857023950307546111838065   1030000900030000   541119001187190110000000942City Mart HDC C 2      YANGONUT      MMR11003071141382914850307000000000000000   10300001F00104100000000003000000000000000     
100   95030301100360840000000000007900000000007900002000000010410403070221082772992184800307089510808065   1030000900030000   591219000969190110000000776Shwe Ohh Pharmacy St ( YANGONADA     MMR11003070221082772990307000000000000000   10300001F00104100000000000474000000000000     
100   95050313732480420000000000002940000000002940002000000010410403071358102810273876050307000006766518   1020000200030000   333400010001204104000000281Myanmar Soft-Gate Tech Yangon        MMR11003071358102810270307000000000000000   10300001F05104100000000000617000000000000     
100   62911028202150190000000000030000000000030000002000000010410403070430122799992184800307470001112065   1030000900030000   554119000345190110000000212New Day Energy PZD     YANGONAUNG    MMR11003070430122799990307000000000000000   10300001F00104100000000000900000000000000     
100   62911028202446700000000000032150000000032150002000000010410403070723202844812184800307154531320065   1030000900030000   541119001156190110000000930OCEAN HTY C 6          YANGONTHARYA  MMR11003070723202844810307000000000000000   10300001F00104100000000001929000000000000     
100   95050325925517520000000000093126000000093126002000000010410403071313450250359681440307000743857438   1030000200030000   541188001004000008000000008KBZ BANK               MARKETPLACE - MMR11003071313450250350307000000000000000   10300001 00104100000000023282000000000000     
100   62911028202908550000000000079000000000079000002000000010410403070446091609792184800307000006762664   1030000200030000   333800010001203104000003327KBZPay                 Yangon        MMR11003070446091609790307000000000000000   10300001F05104100000000016590000000000000     
100   95050321798808970000000000065000000000065000002000000010410403070351192119922169400307000006762190   1030000200030000   333800010001203104000003327KBZPay                 Yangon        MMR11003070351192119920307000000000000000   10300001F05104100000000013650000000000000     
100   62911028202099050000000000039950000000039950002000000010410403070732222847172184800307300021422065   1030000900030000   541119001244190110000000955City Mart JS C 3       YANGONUT      MMR11003070732222847170307000000000000000   10300001F00104100000000002397000000000000     
100   95050318214455130000000000002940000000002940002000000010410403070615154515365660050307000006763428   1020000200030000   333400010001204104000000281Myanmar Soft-Gate Tech Yangon        MMR11003070615154515360307000000000000000   10300001F05104100000000000617000000000000     
100   95030306757281900000000000030000000000030000002000000010410403040636360014812184800304206306001481   1030000600030000   597700001901315799420001271NATURE REPUBLIC HLD    KAMARYUT.     MMR11003040636360014810304000000000000000   10300001 00104100000000001800000000000000     
100   95050313616076540000000000005200000000005200002000000010410403071145443318166343180307446281810065   1030000500030000   555610119280104519000016348City Express MCS 45                  MMR11003071145443318160307000000000000000   10300001 00104100000000001300000000000000     
100   95050315615561720000000000000980000000000980002000000010410403071109553955942236690307000006765673   1020000200030000   333400010001204104000000281Myanmar Soft-Gate Tech Yangon        MMR11003071109553955940307000000000000000   10300001F05104100000000000206000000000000     
100   95050312498129060000000000002940000000002940002000000010410403071303393339745783820307000006766250   1020000200030000   333400010001204104000000281Myanmar Soft-Gate Tech Yangon        MMR11003071303393339740307000000000000000   10300001F05104100000000000617000000000000     
100   95050314557307430000000000001960000000001960002000000010410403071313104310135868910307000006766291   1020000200030000   333400010001204104000000281Myanmar Soft-Gate Tech Yangon        MMR11003071313104310130307000000000000000   10300001F05104100000000000412000000000000     
100   95030393174848800000000000009600000000009600002000000010410403070416473244272184800307183061111065   1030000500030000   555610110566104519000009163City Mart Ayeyarwon Br nch           MMR11003070416473244270307000000000000000   10300001 00104100000000000576000000000000     
100   62443100384660050000000000179300000000179300002000000010410403060943200007520909100306000743813673   1030000200030000   599988000623000008000004242KBZ BANK               SWEETY HOME M MMR11003060943200007520306000000000000000   10300001 00104100000000043032000000000000     
100   95050311959900780000000000001960000000001960002000000010410403071354522452195528530307000006766502   1020000200030000   333400010001204104000000281Myanmar Soft-Gate Tech Yangon        MMR11003071354522452190307000000000000000   10300001F05104100000000000412000000000000     
100   62443100395250310000000000120000000000120000002000000010410403070442241224156723240307000006762636   1030000200030000   333800010001203104000003327KBZPay                 Yangon        MMR11003070442241224150307000000000000000   10300001F05104100000000025200000000000000     
100   95050328876009750000000000300000000000300000002000000010410403070252262226130000620307000006761618   1030000200030000   333800010001203104000003327KBZPay                 Yangon        MMR11003070252262226130307000000000000000   10300001F05104100000000063000000000000000     
100   95050328876009750000000000300000000000300000002000000010410403070254052405576780750307000006761646   1030000200030000   333800010001203104000003327KBZPay                 Yangon        MMR11003070254052405570307000000000000000   10300001F05104100000000063000000000000000     
100   62911028202029420000000000058000000000058000002000000010410403070543552818932184800307590131255065   1030000900030000   554119000997190110000000803Puma Power SOKL        YANGONOKKALAP MMR11003070543552818930307000000000000000   10300001F00104100000000001740000000000000     
100   95050315430281830000000000058800000000058800002000000010410403070815292858351668600307966451429065   1030000900030000   573219001179190110000000935UNIQUE Seikkanthar     YANGONADA     MMR11003070815292858350307000000000000000   10300001F00104100000000014112000000000000     
100   95050316997303010000000000001960000000001960002000000010410403070446591659696553040307000006762676   1020000200030000   333400010001204104000000281Myanmar Soft-Gate Tech Yangon        MMR11003070446591659690307000000000000000   10300001F05104100000000000412000000000000     
100   95050313836159580000000000001000000000001000002000000010410403070933050305686774380307000006765083   1030000200030000   3334000100012031040000040102C2P (Myanmar) Co. Ltd Yangon        MMR11003070933050305680307000000000000000   10300001F05104100000000000210000000000000     
100   62911028202610960000000000069000000000069000002000000010410403041045570572922184800304206310057292   1030000600030000   554100002085315799420000471DENKO BAHAN            YANGON        MMR11003041045570572920304000000000000000   10300001 00104100000000002070000000000000     
100   95050319928585020000000000001960000000001960002000000010410403070925455545466845680307000006765004   1020000200030000   333400010001204104000000281Myanmar Soft-Gate Tech Yangon        MMR11003070925455545460307000000000000000   10300001F05104100000000000412000000000000     
100   95050314703432410000000000001000000000001000002000000010410403071201013101453038210307000006765903   1030000200030000   3338000100012031040000040022C2P (Myanmar) Co. Ltd Yangon        MMR11003071201013101450307000000000000000   10300001F05104100000000000210000000000000     
100   62911028202593060000000000042322000000042322002000000010410403061052550040372184800306206517004037   1030000500030000   541120020701022205411200207ORANGE (YDG)           PTN           MMR11003061052550040370306000000000000000   10300001 00104100000000002539000000000000     
100   62911028202248050000000000026000000000026000002000000010410403070225433230802184800307442540843065   1030000300030000   888810125460104519000021287Shwe Taung Energy CoLt               MMR11003070225433230800307000000000000000   10300001 00104100000000000780000000000000     
100   95030301100124400000000000013800000000013800002000000010410403070335373236732184800307244041007065   1030000300030000   444410123548104519000019766YKKO NPST                            MMR11003070335373236730307000000000000000   10300001 00104100000000001408000000000000     
100   62911028202520950000000000102470000000102470002000000010410403071020203299242184800307826481648065   1030000300030000   555610103619104519000003559Capital Hypermarket Da bon           MMR11003071020203299240307000000000000000   10300001 00104100000000006148000000000000     
100   62911028202416760000000000092000000000092000002000000010410403070248273232392184800307675160952065   1030000300030000   888810125940104519000021285Shwe Taung Energy CoLt               MMR11003070248273232390307000000000000000   10300001 00104100000000002760000000000000     
100   95050312498129060000000000001960000000001960002000000010410403070235420542577000380307000006761507   1020000200030000   333400010001204104000000281Myanmar Soft-Gate Tech Yangon        MMR11003070235420542570307000000000000000   10300001F05104100000000000412000000000000     
100   62443100330105920000000000010000000000010000002000000010410403071354022402497181010307000006766490   1030000500030000   333800010001201104000003863AYA Pay                Yangon        MMR11003071354022402490307000000000000000   10300001F05104100000000002100000000000000     
100   95050320335873810000000000001960000000001960002000000010410403070449231923328646500307000006762701   1020000200030000   333400010001204104000000281Myanmar Soft-Gate Tech Yangon        MMR11003070449231923320307000000000000000   10300001F05104100000000000412000000000000     
100   95050315743141220000000000001960000000001960002000000010410403071055002500537655940307000006765581   1020000200030000   333400010001204104000000281Myanmar Soft-Gate Tech Yangon        MMR11003071055002500530307000000000000000   10300001F05104100000000000412000000000000     
100   95050312937155340000000000002500000000002500002000000010410403070331132785965680220307685011013065   1030000900030000   591219000918190110000000727Shwe Ohh Pharmacy St 3 YANGONOKKALAP MMR11003070331132785960307000000000000000   10300001F00104100000000000600000000000000     
100   95030302100062270000000000011500000000011500002000000010410403070805070290442184800307000743836610   1030000200030000   541188001024000008000000298KBZ BANK               CITY MART - M MMR11003070805070290440307000000000000000   10300001 00104100000000000690000000000000     
100   62443101064466810000000000035000000000035000002000000010410403070436420642434134690307000006762594   1030000900030000   333400010001202104000002022ACS                    Yangon        MMR11003070436420642430307000000000000000   10300001F05104100000000007350000000000000     
100   95050318919136220000000000018850000000018850002000000010410403070444422803914985650307713141142065   1030000900030000   599919001065190110000000251Pro (1) Global (MawlaM MONLAMYAING   MMR11003070444422803910307000000000000000   10300001F00104100000000004524000000000000     
100   95050311048637960000000000025000000000025000002000000010410403071045313304363585100307566151726065   1030000500030000   555610110574104519000009164City Mart China Town P int Cen       MMR11003071045313304360307000000000000000   10300001 00104100000000006250000000000000     
100   62911028202807400000000000050000000000050000002000000010410403071010273297632184800307593391619065   1030000300030000   888810125458104519000021285Shwe Taung Energy CoLt               MMR11003071010273297630307000000000000000   10300001 00104100000000001500000000000000     
100   62911028202909050000000000016950000000016950002000000010410403061032070013312184800306206517001331   1030000500030000   531120156002000045311201560GAMONE PWINT           PTN           MMR11003061032070013310306000000000000000   10300001 00104100000000001017000000000000     
100   95050310917297450000000000269900000000269900002000000010410403060546450008133036510306206512000813   1030000500030000   481220018401000024812200184SUPER MOBILE           PTN           MMR11003060546450008130306000000000000000   10300001 00104100000000064776000000000000     
100   62911028202466670000000000139400000000139400002000000010410403061035270007332184800306206517000733   1030000500030000   591220012301014405912200123SHWE OHH PHARMACY      PTN           MMR11003061035270007330306000000000000000   10300001 00104100000000008364000000000000     
100   62911028202417260000000000025000000000025000002000000010410403061201270072702184800306206518007270   1030000500030000   598320001404000015172200014MAX ENERGY             PTN           MMR11003061201270072700306000000000000000   10300001 00104100000000000750000000000000     
100   62911028202154640000000000039060000000039060002000000010410403061029200016852184800306000743816258   1030000200030000   591288000018000008000002044KBZ BANK               PINLON PHARMA MMR11003061029200016850306000000000000000   10300001 00104100000000002344000000000000     
100   62443100372702000000000000008100000000008100002000000010410403060609060040224433710306206512004022   1030000500030000   541120020701022205411200207ORANGE (YDG)           PTN           MMR11003060609060040220306000000000000000   10300001 00104100000000002025000000000000     
100   62443100330108240000000000009800000000009800002000000010410403070036390639934285380307000006761124   1020000200030000   333400010001204104000000281Myanmar Soft-Gate Tech Yangon        MMR11003070036390639930307000000000000000   10300001F05104100000000002058000000000000     
100   95050313145843230000000000020000000000020000002000000010410403070346171617451914110307000006762134   1030000200030000   333800010001203104000003327KBZPay                 Yangon        MMR11003070346171617450307000000000000000   10300001F05104100000000004200000000000000     
100   95050319379439060000000000010000000000010000002000000010410403070240471047084120900307000006761537   1030000200030000   333800010001203104000003327KBZPay                 Yangon        MMR11003070240471047080307000000000000000   10300001F05104100000000002100000000000000     
100   95050311959900780000000000000980000000000980002000000010410403071353192319624216430307000006766493   1020000200030000   333400010001204104000000281Myanmar Soft-Gate Tech Yangon        MMR11003071353192319620307000000000000000   10300001F05104100000000000206000000000000     
100   95050316818236190000000000001960000000001960002000000010410403071352192219329258980307000006766481   1020000200030000   333400010001204104000000281Myanmar Soft-Gate Tech Yangon        MMR11003071352192219320307000000000000000   10300001F05104100000000000412000000000000     
100   95030301100124400000000000003050000000003050002000000010410403070335492787092184800307747051049065   1030000900030000   541119001274190110000000961City Mart PLST City Ca YANGONMYOTHIT MMR11003070335492787090307000000000000000   10300001F00104100000000000183000000000000     
100   95050317343045830000000000001960000000001960002000000010410403070739110911378157780307000006764135   1020000200030000   333400010001204104000000281Myanmar Soft-Gate Tech Yangon        MMR11003070739110911370307000000000000000   10300001F05104100000000000412000000000000     
100   95050323722449090000000000009800000000009800002000000010410403070347461746833566590307000006762146   1020000200030000   333400010001204104000000281Myanmar Soft-Gate Tech Yangon        MMR11003070347461746830307000000000000000   10300001F05104100000000002058000000000000     
100   62911028202053740000000000030000000000030000002000000010410403060744360004632184800306206514000463   1030000500030000   806220072802000018062200728WITORIYA HOSPITAL      PTN           MMR11003060744360004630306000000000000000   10300001 00104100000000001800000000000000     
100   95030315150842990000000000035250000000035250002000000010410403060547230006632184800306206512000663   1030000500030000   531120155604000045311201556GAMONE PWINT           PTN           MMR11003060547230006630306000000000000000   10300001 00104100000000002115000000000000     
100   62911028202193670000000000070007000000070007002000000010410403060622170189192184800306206512018919   1030000500030000   598320001601000015172200016MAX ENERGY             PTN           MMR11003060622170189190306000000000000000   10300001 00104100000000002100000000000000     
100   95030317922148660000000000031000000000031000002000000010410403060429550229132184800306206510022913   1030000500030000   598320001302000015172200013MAX ENERGY             PTN           MMR11003060429550229130306000000000000000   10300001 00104100000000000930000000000000     
100   62443100372702000000000000015600000000015600002000000010410403060140550211104817820306206508021110   1030000500030000   598320001201000015172200012MAX ENERGY             PTN           MMR11003060140550211100306000000000000000   10300001 00104100000000001872000000000000     
100   62911028202150190000000000040000000000040000002000000010410403061305220132842184800306206519013284   1030000500030000   598320001401000015172200014MAX ENERGY             PTN           MMR11003061305220132840306000000000000000   10300001 00104100000000001200000000000000     
100   95050325925517520000000000025000000000025000002000000010410403060208090188722910050306206508018872   1030000500030000   598320001601000015172200016MAX ENERGY             PTN           MMR11003060208090188720306000000000000000   10300001 00104100000000003000000000000000     
100   62911028202143500000000000079133000000079133002000000010410403052346590160052184800306206506016005   1030000500030000   598320002101000015172200021MAX ENERGY             PTN           MMR11003052346590160050306000000000000000   10300001 00104100000000002374000000000000     
100   95050315681162360000000000030000000000030000002000000010410403070439100910726127560307000006762611   1030000200030000   333800010001203104000003327KBZPay                 Yangon        MMR11003070439100910720307000000000000000   10300001F05104100000000006300000000000000     
100   62911028202788350000000000020000000000020000002000000010410403071441471147322184800307000006766718   1030000200030000   333800010001203104000003327KBZPay                 Yangon        MMR11003071441471147320307000000000000000   10300001F05104100000000004200000000000000     
100   62911028202616250000000000472000000000472000002000000010410403070954202883832184800307513241620065   1030000900030000   541119001068190110000000082Sein Gay Har Super Cen YANGON        MMR11003070954202883830307000000000000000   10300001F00104100000000028320000000000000     
100   95050312498129060000000000001960000000001960002000000010410403071034460446843244720307000006765457   1020000200030000   333400010001204104000000281Myanmar Soft-Gate Tech Yangon        MMR11003071034460446840307000000000000000   10300001F05104100000000000412000000000000     
100   62443100361813580000000000300000000000300000002000000010410403070238020802690475550307000006761514   1030000200030000   333800010001203104000003327KBZPay                 Yangon        MMR11003070238020802690307000000000000000   10300001F05104100000000063000000000000000     
100   95050328876009750000000000300000000000300000002000000010410403070253102310263305590307000006761638   1030000200030000   333800010001203104000003327KBZPay                 Yangon        MMR11003070253102310260307000000000000000   10300001F05104100000000063000000000000000     
100   62911028202029420000000000084500000000084500002000000010410403070751372851842184800307566211437065   1030000900030000   541119001282190110000000963City Mart SPL C 7      YANGONMYOTHIT MMR11003070751372851840307000000000000000   10300001F00104100000000005070000000000000     
100   62911028202284420000000000101956000000101956002000000010410403071110592906202184800307975401759065   1030000900030000   541119001187190110000000942City Mart HDC C 2      YANGONUT      MMR11003071110592906200307000000000000000   10300001F00104100000000006117000000000000     
100   62443100318296470000000000035000000000035000002000000010410403070627463261199596340307488561241065   1030000300030000   888810125940104519000021285Shwe Taung Energy CoLt               MMR11003070627463261190307000000000000000   10300001 00104100000000004200000000000000     
100   62911028202117110000000000050000000000050000002000000010410403070900523052612184800307000006764821   1030000200030000   333800010001203104000003327KBZPay                 Yangon        MMR11003070900523052610307000000000000000   10300001F05104100000000010500000000000000     
100   95030301100183220000000000047442000000047442002000000010410403062350553226592184800307039380702065   1030000300030000   888810111525104519000009898PT Power Premium Diese 8             MMR11003062350553226590307000000000000000   10300001 00104100000000001423000000000000     
100   62911028202668140000000000146600000000146600002000000010410403071004482886502184800307680341648065   1030000900030000   541119001283190110000000963City Mart SPL C 8      YANGONMYOTHIT MMR11003071004482886500307000000000000000   10300001F00104100000000008796000000000000     
100   95030393174848800000000000030400000000030400002000000010410403070511173248852184800307826401128065   1030000500030000   555610110563104519000009163City Mart Ayeyarwon Br nch           MMR11003070511173248850307000000000000000   10300001 00104100000000001824000000000000     
100   62911028202133520000000000003530000000003530002000000010410403071203402920102184800307868331840065   1030000900030000   541119001195190110000000942City Mart HDC C 10     YANGONUT      MMR11003071203402920100307000000000000000   10300001F00104100000000000212000000000000     
100   62911028202078000000000000200000000000200000002000000010410403070759232923062184800307000006764325   1030000200030000   333800010001203104000003327KBZPay                 Yangon        MMR11003070759232923060307000000000000000   10300001F05104100000000042000000000000000     
100   62911028202286990000000000035000000000035000002000000010410403070152143230092184800307362410844065   1030000500030000   888810121685104519000009666Max Energy CoLtd 5                   MMR11003070152143230090307000000000000000   10300001 00104100000000001050000000000000     
100   62443100371022130000000000043000000000043000002000000010410403070512003248951320140307840411111065   1030000300030000   888810125458104519000021285Shwe Taung Energy CoLt               MMR11003070512003248950307000000000000000   10300001 00104100000000005160000000000000     
100   95050313830289390000000000011000000000011000002000000010410403070244303232038191740307638130913065   1030000300030000   555510124298104519000020435MGOU Pyay                            MMR11003070244303232030307000000000000000   10300001 00104100000000002640000000000000     
100   95050326094581320000000000011750000000011750002000000010410403070434273243777694950307117021144065   1030000300030000   555510103683104519000003576Capital Express North  kkala1        MMR11003070434273243770307000000000000000   10300001 00104100000000002820000000000000     
100   62443100306028540000000000015645000000015645002000000010410403070644483263530823350307828131335065   1030000300030000   444410124354104519000020484The Pizza Company Rest urant         MMR11003070644483263530307000000000000000   10300001 00104100000000006649000000000000     
100   62911028202489110000000000163150000000163150002000000010410403071128392911192184800307306581739065   1030000900030000   541119001232190110000000951Marketplace KTY C 2    YANGONARTAUNG MMR11003071128392911190307000000000000000   10300001F00104100000000009789000000000000     
100   95050320335873810000000000021200000000021200002000000010410403071017232890206294400307919471623065   1030000900030000   481219000916190110000000725Snoopy Mobile ( 7 )Hle YANGONUT      MMR11003071017232890200307000000000000000   10300001F00104100000000005088000000000000     
100   62911028202907490000000000024085000000024085002000000010410403071012293297852184800307624401643065   1030000500030000   555610103468104519000003420City Mart Yankin Cente 7             MMR11003071012293297850307000000000000000   10300001 00104100000000001445000000000000     
100   62911028202261230000000000005100000000005100002000000010410403070949163294922184800307204231633065   1030000300030000   555610103748104519000003624G and G Convenience St re 165        MMR11003070949163294920307000000000000000   10300001 00104100000000000306000000000000     
100   62911028202471600000000000045050000000045050002000000010410403071201163318792184800307526301846065   1030000500030000   555610110576104519000009164City Mart China Town P int Cen       MMR11003071201163318790307000000000000000   10300001 00104100000000002703000000000000     
100   62443100357925510000000000001350000000001350002000000010410403071058083306631046010307890271723065   1030000300030000   555510123133104519000019386Promart                              MMR11003071058083306630307000000000000000   10300001 00104100000000000324000000000000     
100   62911028202465680000000000010900000000010900002000000010410403071059123306642184800307891271725065   1030000500030000   555610110570104519000009164City Mart China Town P int Cen       MMR11003071059123306640307000000000000000   10300001 00104100000000000654000000000000     
100   62911028202213220000000000041996000000041996002000000010410403071149523317372184800307367251803065   1030000500030000   555610110572104519000009164City Mart China Town P int Cen       MMR11003071149523317370307000000000000000   10300001 00104100000000002520000000000000     
100   62911028202261230000000000074700000000074700002000000010410403070948003294652184800307164221612065   1030000300030000   555610103748104519000003624G and G Convenience St re 165        MMR11003070948003294650307000000000000000   10300001 00104100000000004482000000000000     
100   95050324250133010000000000009100000000009100002000000010410403070941563293133043930307960121649065   1030000300030000   555510125146104519000021022One Stop Mart Shopping Mall 0002     MMR11003070941563293130307000000000000000   10300001 00104100000000002184000000000000     
100   62911028202463780000000000024900000000024900002000000010410403070923383289842184800307520521517065   1030000500030000   555610110574104519000009164City Mart China Town P int Cen       MMR11003070923383289840307000000000000000   10300001 00104100000000001494000000000000     
100   95050322295410690000000000015344000000015344002000000010410403070845453283939349130307666141518065   1030000500030000   555610115765104519000013506MarketplaceMyanmarPlaz Branch        MMR11003070845453283930307000000000000000   10300001 00104100000000003836000000000000     
100   95050310427855490000000000025200000000025200002000000010410403070951393294704185830307170221618065   1030000500030000   555610103472104519000003420City Mart Yankin Cente 11            MMR11003070951393294700307000000000000000   10300001 00104100000000006300000000000000     
100   95050324250133010000000000007733000000007733002000000010410403070940403292834696410307913111619065   1030000300030000   555510125146104519000021022One Stop Mart Shopping Mall 0002     MMR11003070940403292830307000000000000000   10300001 00104100000000001856000000000000     
100   62911028202482750000000000015500000000015500002000000010410403070856363285542184800307913251505065   1030000500030000   555610110581104519000009164City Mart China Town P int Cen       MMR11003070856363285540307000000000000000   10300001 00104100000000000930000000000000     
100   95050316786253730000000000035000000000035000002000000010410403070903273327165363390307000006764833   1030000200030000   333800010001203104000003327KBZPay                 Yangon        MMR11003070903273327160307000000000000000   10300001F05104100000000007350000000000000     
100   62443100326436660000000000036850000000036850002000000010410403071054333305769308420307778221755065   1030000300030000   555510123133104519000019386Promart                              MMR11003071054333305760307000000000000000   10300001 00104100000000008844000000000000     
100   62443100379321630000000000020100000000020100002000000010410403070948173293734015640307030161630065   1030000500030000   555610114575104519000012532City Mart Ahlone Branc               MMR11003070948173293730307000000000000000   10300001 00104100000000005025000000000000     
100   95050310902464360000000000009800000000009800002000000010410403071524375437529151350307000006766902   1020000200030000   333400010001204104000000281Myanmar Soft-Gate Tech Yangon        MMR11003071524375437520307000000000000000   10300001F05104100000000002058000000000000     
100   95050312498129060000000000000980000000000980002000000010410403071228555855094860890307000006766055   1020000200030000   333400010001204104000000281Myanmar Soft-Gate Tech Yangon        MMR11003071228555855090307000000000000000   10300001F05104100000000000206000000000000     
100   95050315615561720000000000000980000000000980002000000010410403071111224122247194140307000006765681   1020000200030000   333400010001204104000000281Myanmar Soft-Gate Tech Yangon        MMR11003071111224122240307000000000000000   10300001F05104100000000000206000000000000     
100   95050319220344710000000000000980000000000980002000000010410403070004463446462391400307000006761088   1020000200030000   333400010001204104000000281Myanmar Soft-Gate Tech Yangon        MMR11003070004463446460307000000000000000   10300001F05104100000000000206000000000000     
100   62443100379321630000000000026000000000026000002000000010410403070917474571055108100307206616457105   1040001600030000   598320000658000000010000527Shwe Taung Energy (YGN Yangon        MMR11003070917474571050307000000000000000   10300001F00104100000000003120000000000000     
100   62911028202684060000000000032900000000032900002000000010410403070433414427752184800307206611442775   1040001600030000   591220000258000000010000246Shwe Ohh Pharmacy (Sin Yangon        MMR11003070433414427750307000000000000000   10300001F00104100000000001974000000000000     
100   95050316818236190000000000000980000000000980002000000010410403070418394839743127320307000006762437   1020000200030000   333400010001204104000000281Myanmar Soft-Gate Tech Yangon        MMR11003070418394839740307000000000000000   10300001F05104100000000000206000000000000     
100   95050313113158460000000000007840000000007840002000000010410403070546131613651624870307000006763201   1020000200030000   333400010001204104000000281Myanmar Soft-Gate Tech Yangon        MMR11003070546131613650307000000000000000   10300001F05104100000000001646000000000000     
100   95050315259054570000000000000980000000000980002000000010410403070254422442261397820307000006761651   1020000200030000   333400010001204104000000281Myanmar Soft-Gate Tech Yangon        MMR11003070254422442260307000000000000000   10300001F05104100000000000206000000000000     
100   95050315259054570000000000000980000000000980002000000010410403070950292029845583030307000006765206   1020000200030000   333400010001204104000000281Myanmar Soft-Gate Tech Yangon        MMR11003070950292029840307000000000000000   10300001F05104100000000000206000000000000     
100   95050323233042810000000000000980000000000980002000000010410403070404123412171439190307000006762325   1020000200030000   333400010001204104000000281Myanmar Soft-Gate Tech Yangon        MMR11003070404123412170307000000000000000   10300001F05104100000000000206000000000000     
100   62911028202441420000000000062450000000062450002000000010410403071015174604892184800307206617460489   1040001600030000   591220000297000000010000285Shwe Ohh Pharmacy (Nor Yangon        MMR11003071015174604890307000000000000000   10300001F00104100000000003747000000000000     
100   95050312498129060000000000009800000000009800002000000010410403071418234823825613620307000006766606   1020000200030000   333400010001204104000000281Myanmar Soft-Gate Tech Yangon        MMR11003071418234823820307000000000000000   10300001F05104100000000002058000000000000     
100   95050313441999020000000000020000000000020000002000000010410403070625435543308539530307000006763516   1030000200030000   3338000100012031040000040022C2P (Myanmar) Co. Ltd Yangon        MMR11003070625435543300307000000000000000   10300001F05104100000000004200000000000000     
100   95030325100019320000000000057900000000057900002000000010410403071624410110042184800307000743870544   1030000200030000   541188001349000008000000395KBZ BANK               OCEAN SUPERMA MMR11003071624410110040307000000000000000   10300001 00104100000000003474000000000000     
100   95050316272163320000000000009000000000009000002000000010410403070527485748763702830307000006763048   1030000200030000   333800010001203104000003327KBZPay                 Yangon        MMR11003070527485748760307000000000000000   10300001F05104100000000001890000000000000     
100   95050328876009750000000000100000000000100000002000000010410403070618144814843922470307000006763449   1030000200030000   333800010001203104000003327KBZPay                 Yangon        MMR11003070618144814840307000000000000000   10300001F05104100000000021000000000000000     
100   95050318057347910000000000000980000000000980002000000010410403071419184918247351200307000006766609   1020000200030000   333400010001204104000000281Myanmar Soft-Gate Tech Yangon        MMR11003071419184918240307000000000000000   10300001F05104100000000000206000000000000     
