100   95030378062733680000000000041000000000041000002000000010410403070549070011582184800307206612001158   1030000500030000   598320101301005405983201013PT POWER (NPT)         PTN           MMR11003070549070011580307000000000000000   10300001 00104100000000001230000000000000     
100   62911028202595380000000000040000000000040000002000000010410403070437550034782184800307206611003478   1030000500030000   598320041901000055983200419MAX ENERGY             PTN           MMR11003070437550034780307000000000000000   10300001 00104100000000001200000000000000     
100   95050320531117320000000000405000000000405000002000000010410403070621520060264894180307206612006026   1030000500030000   598320001004000015172200010MAX ENERGY             PTN           MMR11003070621520060260307000000000000000   10300001 00104100000000048600000000000000     
100   95050325141379530000000000052000000000052000002000000010410403070810140072658193440307206614007265   1030000500030000   598320041903000055983200419MAX ENERGY             PTN           MMR11003070810140072650307000000000000000   10300001 00104100000000006240000000000000     
100   62911028202187730000000000006850000000006850002000000010410403070950470043932184800307206616004393   1030000500030000   541120020902022205411200209ORANGE (HLAING)        PTN           MMR11003070950470043930307000000000000000   10300001 00104100000000000411000000000000     
100   62443100316099160000000000075000000000075000002000000010410403071043480066718542550307206617006671   1030000500030000   598320001403000015172200014MAX ENERGY             PTN           MMR11003071043480066710307000000000000000   10300001 00104100000000009000000000000000     
100   95050313616076540000000000015500000000015500002000000010410403070242440004306454150307206609000430   1030000500030000   573220038801000015732200388REMAX                  PTN           MMR11003070242440004300307000000000000000   10300001 00104100000000003720000000000000     
100   62911028202418410000000000017650000000017650002000000010410403070801000010322184800307206614001032   1030000500030000   531120155712000045311201557GAMONE PWINT           PTN           MMR11003070801000010320307000000000000000   10300001 00104100000000001059000000000000     
100   62911028202222620000000000015000000000015000002000000010410403070108020699062184800307206601069906   1030000600030000   554100000946315799420000471DENKO BAHAN            YANGON        MMR11003070108020699060307000000000000000   10300001 00104100000000000450000000000000     
100   62911028202130970000000000052000000000052000002000000010410403071316220702852184800307206613070285   1030000600030000   554100000946315799420000471DENKO BAHAN            YANGON        MMR11003071316220702850307000000000000000   10300001 00104100000000001560000000000000     
100   95050324154190880000000000040000000000040000002000000010410403070409130231793843750307206610023179   1030000500030000   598320001302000015172200013MAX ENERGY             PTN           MMR11003070409130231790307000000000000000   10300001 00104100000000004800000000000000     
100   95030385550669610000000000050000000000050000002000000010410403071003110627902184800307206610062790   1030000600030000   554100000957315799420000480DENKO N.DAGON - 3      YANGON        MMR11003071003110627900307000000000000000   10300001 00104100000000001500000000000000     
100   95030301100121270000000000016000000000016000002000000010410403070918164571292184800307206616457129   1040001600030000   598320000917000000010000665MMTM - Thingangyun     Ygn           MMR11003070918164571290307000000000000000   10300001F00104100000000000480000000000000     
100   62911028202235910000000000022220000000022220002000000010410403070156484364612184800307206608436461   1040001600030000   581420000803000000010000579Jeff's Kitchen (Ahlone Yangon        MMR11003070156484364610307000000000000000   10300001F00104100000000000667000000000000     
100   95050313968650950000000000092000000000092000002000000010410403080230080008139541190308000006768032   1030000200030000   333800010001203104000003327KBZPay                 Yangon        MMR11003080230080008130308000000000000000   10300001F05104100000000019320000000000000     
100   62911028202221220000000000008800000000008800002000000010410403080812120042932184800308000743892594   1030000200030000   541188001288000008000001475KBZ BANK               CITY CARE STA MMR11003080812120042930308000000000000000   10300001 00104100000000000528000000000000     
100   95050314538419220000000000010885000000010885002000000010410403050425590007413159180305206404000741   1030000600030000   5499000022293157994200015671 STOP S M BOGYOKE RD  YANGON        MMR11003050425590007410305000000000000000   10300001 00104100000000004626000000000000     
100   62443100370782070000000000054100000000054100002000000010410403071046210136845237590307206617013684   1030000500030000   598320001402000015172200014MAX ENERGY             PTN           MMR11003071046210136840307000000000000000   10300001 00104100000000006492000000000000     
100   62911028202752030000000000116300000000116300002000000010410403070910100003512184800307206615000351   1030000500030000   569120159601019505691201596MK FASHION SHOP        PTN           MMR11003070910100003510307000000000000000   10300001 00104100000000006978000000000000     
100   62911028202415850000000000007000000000007000002000000010410403070941200014482184800307206616001448   1030000500030000   531120155714000045311201557GAMONE PWINT           PTN           MMR11003070941200014480307000000000000000   10300001 00104100000000000420000000000000     
100   62911028202296630000000000061850000000061850002000000010410403070413280053322184800307206604005332   1030000600030000   581200001904315799420001274SIGNATURE FINEDINING 2 BAHAN         MMR11003070413280053320307000000000000000   10300001 00104100000000006309000000000000     
100   62911028202461620000000000027000000000027000002000000010410403070158130005322184800307206608000532   1030000500030000   591220014301014405912200143SHWE OHH PHARMACY      PTN           MMR11003070158130005320307000000000000000   10300001 00104100000000001620000000000000     
100   95030301100425790000000000010000000000010000002000000010410403071021320010992184800307206610001099   1030000600030000   554100000732315799420000312DENKO MDY - 74         MANDALAY      MMR11003071021320010990307000000000000000   10300001 00104100000000000300000000000000     
100   95030333247185050000000000005650000000005650002000000010410403070920060001102184800307206615000110   1030000500030000   541120182801000045411201828EASY MART-011          PTN           MMR11003070920060001100307000000000000000   10300001 00104100000000000339000000000000     
100   95050314791376690000000000009900000000009900002000000010410403070625120019420192020307206612001942   1030000500030000   541120025401022205411200254ORANGE 2(MDY)          PTN           MMR11003070625120019420307000000000000000   10300001 00104100000000002475000000000000     
100   62911028202687780000000000018500000000018500002000000010410403071013080003322184800307206616000332   1030000500030000   531120155702000045311201557GAMONE PWINT           PTN           MMR11003071013080003320307000000000000000   10300001 00104100000000001110000000000000     
100   95050327243132200000000000015200000000015200002000000010410403070416210002317404010307206610000231   1030000500030000   531120155602000045311201556GAMONE PWINT           PTN           MMR11003070416210002310307000000000000000   10300001 00104100000000003648000000000000     
100   62911028202392410000000000015000000000015000002000000010410403070727070074692184800307206607007469   1030000600030000   554100001218315799420000670DENKO MAWLAMYAING      MON STATE.    MMR11003070727070074690307000000000000000   10300001 00104100000000000450000000000000     
100   95050329252108030000000000017000000000017000002000000010410403071258030096377436300307206619009637   1030000500030000   598320041902000055983200419MAX ENERGY             PTN           MMR11003071258030096370307000000000000000   10300001 00104100000000002040000000000000     
100   62911028202169750000000000040150000000040150002000000010410403070852110018692184800307206615001869   1030000500030000   503920036604000015039200366PRO-1 HOME CENTER      PTN           MMR11003070852110018690307000000000000000   10300001 00104100000000002409000000000000     
100   95030301100129110000000000004400000000004400002000000010410403071200350004842184800307000333961548   1030000300030000   591200000288000000000000169CB BANK                MEDICARE STOR MMR11003071200350004840307000000000000000   10300001F00104100000000000264000000000000     
100   62911028202527800000000000025000000000025000002000000010410403071046050191232184800307206617019123   1030000500030000   598320001601000015172200016MAX ENERGY             PTN           MMR11003071046050191230307000000000000000   10300001 00104100000000000750000000000000     
100   95050310283518110000000000015500000000015500002000000010410403081036370044310379020308000743898595   1030000200030000   541188001420000008000000401KBZ BANK               OCEAN SUPERCE MMR11003081036370044310308000000000000000   10300001 00104100000000003875000000000000     
100   62911028202196800000000000004100000000004100002000000010410403081554180023392184800308000743921453   1030000200030000   541188001188000008000000383KBZ BANK               OCEAN SUPER C MMR11003081554180023390308000000000000000   10300001 00104100000000000246000000000000     
100   95050315796541830000000000045400000000045400002000000010410403080530300030378600410308000006769786   1030000200030000   333800010001203104000003327KBZPay                 Yangon        MMR11003080530300030370308000000000000000   10300001F05104100000000009534000000000000     
100   62911028202287150000000000021500000000021500002000000010410403081023010037902184800308000743897563   1030000200030000   541188001021000008000000298KBZ BANK               CITY MART - M MMR11003081023010037900308000000000000000   10300001 00104100000000001290000000000000     
100   95050312498129060000000000000980000000000980002000000010410403080435250525058762190308000006769280   1020000200030000   333400010001204104000000281Myanmar Soft-Gate Tech Yangon        MMR11003080435250525050308000000000000000   10300001F05104100000000000206000000000000     
100   62443100330108240000000000002940000000002940002000000010410403080532140214591820280308000006769801   1020000200030000   333400010001204104000000281Myanmar Soft-Gate Tech Yangon        MMR11003080532140214590308000000000000000   10300001F05104100000000000617000000000000     
100   95050312498129060000000000001960000000001960002000000010410403081135380538338671710308000006772571   1020000200030000   333400010001204104000000281Myanmar Soft-Gate Tech Yangon        MMR11003081135380538330308000000000000000   10300001F05104100000000000412000000000000     
100   62911028202491090000000000020000000000020000002000000010410403081339460946852184800308000006773244   1030000900030000   333400010001202104000002022ACS                    Yangon        MMR11003081339460946850308000000000000000   10300001F05104100000000004200000000000000     
100   62911028202616740000000000062450000000062450002000000010410403081426570080282184800308000743916088   1030000200030000   541188001313000008000000306KBZ BANK               CITY MART - S MMR11003081426570080280308000000000000000   10300001 00104100000000003747000000000000     
100   95050324247403260000000000123793000000123793002000000010410403080942370158682045300308000743895149   1030000200030000   541188001124000008000000296KBZ BANK               CITY MART - J MMR11003080942370158680308000000000000000   10300001 00104100000000030949000000000000     
100   62911028202788350000000000010000000000010000002000000010410403081532180218972184800308000006773826   1030000200030000   333800010001203104000003327KBZPay                 Yangon        MMR11003081532180218970308000000000000000   10300001F05104100000000002100000000000000     
100   62911028202788350000000000008000000000008000002000000010410403080433250325532184800308000006769254   1030000200030000   333800010001203104000003327KBZPay                 Yangon        MMR11003080433250325530308000000000000000   10300001F05104100000000001680000000000000     
100   95050312119522920000000000013720000000013720002000000010410403081333230323886083170308000006773194   1020000200030000   333400010001204104000000281Myanmar Soft-Gate Tech Yangon        MMR11003081333230323880308000000000000000   10300001F05104100000000002881000000000000     
100   95050311121153200000000000000980000000000980002000000010410403081335350535705998070308000006773212   1020000200030000   333400010001204104000000281Myanmar Soft-Gate Tech Yangon        MMR11003081335350535700308000000000000000   10300001F05104100000000000206000000000000     
100   62911028202169750000000000002000000000002000002000000010410403081157190049892184800308000743905053   1030000200030000   541188001322000008000000306KBZ BANK               CITY MART - S MMR11003081157190049890308000000000000000   10300001 00104100000000000120000000000000     
100   62911028202169750000000000001800000000001800002000000010410403081253020049902184800308000743909390   1030000200030000   541188001322000008000000306KBZ BANK               CITY MART - S MMR11003081253020049900308000000000000000   10300001 00104100000000000108000000000000     
100   62911028202421380000000000072008000000072008002000000010410403070449270197602184800307206611019760   1030000500030000   598320001902000015172200019MAX ENERGY             PTN           MMR11003070449270197600307000000000000000   10300001 00104100000000002160000000000000     
100   62911028202446540000000000049000000000049000002000000010410403071226330221572184800307206618022157   1030000500030000   598320001202000015172200012MAX ENERGY             PTN           MMR11003071226330221570307000000000000000   10300001 00104100000000001470000000000000     
100   62911028202655010000000000030000000000030000002000000010410403071003320191182184800307206616019118   1030000500030000   598320001602000015172200016MAX ENERGY             PTN           MMR11003071003320191180307000000000000000   10300001 00104100000000000900000000000000     
100   62443100372702000000000000050000000000050000002000000010410403070855260220762739190307206615022076   1030000500030000   598320001202000015172200012MAX ENERGY             PTN           MMR11003070855260220760307000000000000000   10300001 00104100000000006000000000000000     
100   95030324143046220000000000020000000000020000002000000010410403070127320625832184800307206601062583   1030000600030000   554100000957315799420000480DENKO N.DAGON - 3      YANGON        MMR11003070127320625830307000000000000000   10300001 00104100000000000600000000000000     
100   95050321232876860000000000076000000000076000002000000010410403070336140317664112830307206603031766   1030000600030000   554100001865315799420001235DENKO NAY PYI TAW 2    NAYPYITAW     MMR11003070336140317660307000000000000000   10300001 00104100000000009120000000000000     
100   62911028202221220000000000010000000000010000002000000010410403062258470579152184800307206622057915   1030000600030000   554100002085315799420000471DENKO BAHAN            YANGON        MMR11003062258470579150307000000000000000   10300001 00104100000000000300000000000000     
100   62911028202104650000000000088000000000088000002000000010410403070302120231632184800307206609023163   1030000500030000   598320001302000015172200013MAX ENERGY             PTN           MMR11003070302120231630307000000000000000   10300001 00104100000000002640000000000000     
100   95050312878706670000000000003000000000003000002000000010410403081132040204115026360308000006772541   1030000200030000   3334000100012031040000040102C2P (Myanmar) Co. Ltd Yangon        MMR11003081132040204110308000000000000000   10300001F05104100000000000630000000000000     
100   95030394609966640000000000015900000000015900002000000010410403080948140291322184800308000743895394   1030000200030000   541188001024000008000000298KBZ BANK               CITY MART - M MMR11003080948140291320308000000000000000   10300001 00104100000000000954000000000000     
100   95050319928585020000000000000980000000000980002000000010410403080539040904206437340308000006769855   1020000200030000   333400010001204104000000281Myanmar Soft-Gate Tech Yangon        MMR11003080539040904200308000000000000000   10300001F05104100000000000206000000000000     
100   95050316873917690000000000100000000000100000002000000010410403081331030103691040620308000006773182   1030000200030000   3338000100012031040000040022C2P (Myanmar) Co. Ltd Yangon        MMR11003081331030103690308000000000000000   10300001F05104100000000021000000000000000     
100   95030333100021460000000000001303000000001303002000000010410403081554350149742184800308000743921460   1030000200030000   541188001082000008000000294KBZ BANK               CITY MART - J MMR11003081554350149740308000000000000000   10300001 00104100000000000078000000000000     
100   62911028202788350000000000010000000000010000002000000010410403072239070907762184800308000006767366   1030000200030000   333800010001203104000003327KBZPay                 Yangon        MMR11003072239070907760308000000000000000   10300001F05104100000000002100000000000000     
100   62911028202161240000000000015954000000015954002000000010410403081036120291412184800308000743898566   1030000200030000   541188001024000008000000298KBZ BANK               CITY MART - M MMR11003081036120291410308000000000000000   10300001 00104100000000000957000000000000     
100   62443100330108240000000000001960000000001960002000000010410403080534570457076182060308000006769819   1020000200030000   333400010001204104000000281Myanmar Soft-Gate Tech Yangon        MMR11003080534570457070308000000000000000   10300001F05104100000000000412000000000000     
100   62911028202290100000000000054150000000054150002000000010410403081113530084722184800308000743901561   1030000200030000   541188001081000008000000294KBZ BANK               CITY MART - J MMR11003081113530084720308000000000000000   10300001 00104100000000003249000000000000     
100   95050313968650950000000000001000000000001000002000000010410403080232290229804498640308000006768051   1030000200030000   333800010001203104000003327KBZPay                 Yangon        MMR11003080232290229800308000000000000000   10300001F05104100000000000210000000000000     
100   95050319928585020000000000000980000000000980002000000010410403080536570657886096960308000006769840   1020000200030000   333400010001204104000000281Myanmar Soft-Gate Tech Yangon        MMR11003080536570657880308000000000000000   10300001F05104100000000000206000000000000     
100   62911028202231380000000000000800000000000800002000000010410403081254060081992184800308000743909471   1030000200030000   541188001088000008000000294KBZ BANK               CITY MART - J MMR11003081254060081990308000000000000000   10300001 00104100000000000048000000000000     
100   62911028202231380000000000008700000000008700002000000010410403081314050082002184800308000743911007   1030000200030000   541188001088000008000000294KBZ BANK               CITY MART - J MMR11003081314050082000308000000000000000   10300001 00104100000000000522000000000000     
100   62911028202232370000000000004000000000004000002000000010410403080947171717132184800308000006771889   1030000200030000   333800010001203104000003327KBZPay                 Yangon        MMR11003080947171717130308000000000000000   10300001F05104100000000000840000000000000     
100   62443100393841160000000000086000000000086000002000000010410403051342180047355193860305206413004735   1030000600030000   554100001226315799420000679DENKO MAGWAY - 2       MAGWAY        MMR11003051342180047350305000000000000000   10300001 00104100000000010320000000000000     
100   62911028202610960000000000063000000000063000002000000010410403051014100012392184800305206410001239   1030000600030000   554100000796315799420000361DENKO HTOE BO 2        YANGON        MMR11003051014100012390305000000000000000   10300001 00104100000000001890000000000000     
100   95050325784857510000000000004900000000004900002000000010410403080921373100878281890308406511537066   1030000900030000   541119001207190110000000948City Mart YK C 5       YANGONAUNG    MMR11003080921373100870308000000000000000   10300001F00104100000000001225000000000000     
100   95050324133333980000000000040350000000040350002000000010410403081124303135865707130308767541730066   1030000900030000   541119001267190110000000958City Mart PLST C 10    YANGONMYOTHIT MMR11003081124303135860308000000000000000   10300001F00104100000000010088000000000000     
100   95050323722449090000000000004409000000004409002000000010410403080839530953143274990308000006771351   1020000200030000   333400010001204104000000281Myanmar Soft-Gate Tech Yangon        MMR11003080839530953140308000000000000000   10300001F05104100000000000926000000000000     
100   95050324773225760000000000030000000000030000002000000010410403080142531253644910330308000006767714   1030000200030000   333800010001203104000003327KBZPay                 Yangon        MMR11003080142531253640308000000000000000   10300001F05104100000000006300000000000000     
100   62443101000669310000000000050000000000050000002000000010410403080740511051600722100308000006770862   1030000300030000   333300010001206104000002147DICA Company Limited   Yangon        MMR11003080740511051600308000000000000000   10300001F05104100000000010000000000000000     
100   62911028202415850000000000008990000000008990002000000010410403080954413110072184800308007241641066   1030000900030000   541119001191190110000000942City Mart HDC C 6      YANGONUT      MMR11003080954413110070308000000000000000   10300001F00104100000000000539000000000000     
100   62911028202133520000000000007897000000007897002000000010410403081202383144732184800308355321838066   1030000900030000   541119001195190110000000942City Mart HDC C 10     YANGONUT      MMR11003081202383144730308000000000000000   10300001F00104100000000000474000000000000     
100   62443100355445150000000000121500000000121500002000000010410403080212273354859612490308828410850066   1030000300030000   555510124694104519000020166Makro Myanmar                        MMR11003080212273354850308000000000000000   10300001 00104100000000029160000000000000     
100   95050319161596230000000000000980000000000980002000000010410403080245541554073392390308000006768163   1020000200030000   333400010001204104000000281Myanmar Soft-Gate Tech Yangon        MMR11003080245541554070308000000000000000   10300001F05104100000000000206000000000000     
100   62443100330108240000000000020000000000020000002000000010410403080537000700917749450308000006769839   1030000200030000   333800010001203104000003327KBZPay                 Yangon        MMR11003080537000700910308000000000000000   10300001F05104100000000004200000000000000     
100   95050324247403260000000000067550000000067550002000000010410403080948350092835945940308000743895411   1030000200030000   541188001132000008000000296KBZ BANK               CITY MART - J MMR11003080948350092830308000000000000000   10300001 00104100000000016888000000000000     
100   62911028202154720000000000046000000000046000002000000010410403081146050200892184800308000743904245   1030000200030000   541188001059000008000000314KBZ BANK               MARKETPLACE - MMR11003081146050200890308000000000000000   10300001 00104100000000002760000000000000     
100   95050311736839760000000000000980000000000980002000000010410403080138560856078300390308000006767692   1020000200030000   333400010001204104000000281Myanmar Soft-Gate Tech Yangon        MMR11003080138560856070308000000000000000   10300001F05104100000000000206000000000000     
100   62911028202169750000000000019200000000019200002000000010410403081152260049442184800308000743904702   1030000200030000   541188001316000008000000306KBZ BANK               CITY MART - S MMR11003081152260049440308000000000000000   10300001 00104100000000001152000000000000     
100   62911028202445480000000000096788000000096788002000000010410403081106170054002184800308000743901004   1030000200030000   541188001023000008000000298KBZ BANK               CITY MART - M MMR11003081106170054000308000000000000000   10300001 00104100000000005807000000000000     
100   62911028202242760000000000049650000000049650002000000010410403081353440049482184800308000743913782   1030000200030000   541188001316000008000000306KBZ BANK               CITY MART - S MMR11003081353440049480308000000000000000   10300001 00104100000000002979000000000000     
100   62911028202393160000000000030000000000030000002000000010410403051500190073942184800305206415007394   1030000600030000   554100001218315799420000670DENKO MAWLAMYAING      MON STATE.    MMR11003051500190073940305000000000000000   10300001 00104100000000000900000000000000     
100   62911028202663430000000000091000000000091000002000000010410403042149350214852184800305206421021485   1030000600030000   554100001116315799420000574DENKO HLAE KUU         HLAE KUU      MMR11003042149350214850305000000000000000   10300001 00104100000000002730000000000000     
100   62911028202204070000000000050000000000050000002000000010410403050417080574232184800305206404057423   1030000600030000   554100002085315799420000471DENKO BAHAN            YANGON        MMR11003050417080574230305000000000000000   10300001 00104100000000001500000000000000     
100   62443101003317490000000000053130000000053130002000000010410403050816030106911781930305206408010691   1030000600030000   581200000524315799420000141FUJI COFFEE HOUSE      YANGON        MMR11003050816030106910305000000000000000   10300001 00104100000000022581000000000000     
100   62911028202023630000000000073000000000073000002000000010410403050445150319752184800305206404031975   1030000600030000   554100001003315799420000497DENKO KONE TA LA PAUNG YANGON        MMR11003050445150319750305000000000000000   10300001 00104100000000002190000000000000     
100   95030300067918830000000000020200000000020200002000000010410403080710403064372184800308132401340066   1030000900030000   541119001083190110000000872Sein Gay Har Hledan    YANGONUT      MMR11003080710403064370308000000000000000   10300001F00104100000000001212000000000000     
100   95030339867270590000000000121050000000121050002000000010410403081113523133042184800308573431752066   1030000900030000   591219000695190110000000526Shwe Ohh Pharmacy ST-2 YANGONNGKUUN  MMR11003081113523133040308000000000000000   10300001F00104100000000007263000000000000     
100   95050319111666800000000000000980000000000980002000000010410403080243391339912335580308000006768150   1020000200030000   333400010001204104000000281Myanmar Soft-Gate Tech Yangon        MMR11003080243391339910308000000000000000   10300001F05104100000000000206000000000000     
100   62911028202581590000000000004900000000004900002000000010410403080155252525442184800308000006767780   1020000200030000   333400010001204104000000281Myanmar Soft-Gate Tech Yangon        MMR11003080155252525440308000000000000000   10300001F05104100000000001029000000000000     
100   62911028202029420000000000010000000000010000002000000010410403080245113000212184800308298150911066   1030000900030000   554119000997190110000000803Puma Power SOKL        YANGONOKKALAP MMR11003080245113000210308000000000000000   10300001F00104100000000000300000000000000     
100   95030301100127050000000000021700000000021700002000000010410403080604403046832184800308054341240066   1030000900030000   541119001361190110000000977Ocean PZD C 15         YANGONAUNG    MMR11003080604403046830308000000000000000   10300001F00104100000000001302000000000000     
100   95030301100332300000000000054950000000054950002000000010410403081148303141442184800308142181830066   1030000900030000   541119001265190110000000958City Mart PLST C 8     YANGONMYOTHIT MMR11003081148303141440308000000000000000   10300001F00104100000000003297000000000000     
100   95050320335873810000000000000980000000000980002000000010410403080359582958234655700308000006768900   1020000200030000   333400010001204104000000281Myanmar Soft-Gate Tech Yangon        MMR11003080359582958230308000000000000000   10300001F05104100000000000206000000000000     
100   62911028202581590000000000009800000000009800002000000010410403080152562256262184800308000006767761   1020000200030000   333400010001204104000000281Myanmar Soft-Gate Tech Yangon        MMR11003080152562256260308000000000000000   10300001F05104100000000002058000000000000     
100   95050318057347910000000000002940000000002940002000000010410403080256222622668570130308000006768283   1020000200030000   333400010001204104000000281Myanmar Soft-Gate Tech Yangon        MMR11003080256222622660308000000000000000   10300001F05104100000000000617000000000000     
100   95030301100124570000000000200000000000200000002000000010410403080641311131252184800308000006770337   1030000200030000   333800010001203104000003327KBZPay                 Yangon        MMR11003080641311131250308000000000000000   10300001F05104100000000042000000000000000     
100   62911028202290100000000000029239000000029239002000000010410403080459093373902184800308325271152066   1030000300030000   444410125393104519000021220Myanmar Bakery CoLtd                 MMR11003080459093373900308000000000000000   10300001 00104100000000002982000000000000     
100   95050312926040930000000000001000000000001000002000000010410403081304053405222437820308000006773014   1030000200030000   333800010001203104000003327KBZPay                 Yangon        MMR11003081304053405220308000000000000000   10300001F05104100000000000210000000000000     
100   95050315158357300000000000002940000000002940002000000010410403081402313231414595170308000006773367   1020000200030000   333400010001204104000000281Myanmar Soft-Gate Tech Yangon        MMR11003081402313231410308000000000000000   10300001F05104100000000000617000000000000     
100   95050319870763910000000000000980000000000980002000000010410403081302323232194175400308000006773005   1020000200030000   333400010001204104000000281Myanmar Soft-Gate Tech Yangon        MMR11003081302323232190308000000000000000   10300001F05104100000000000206000000000000     
100   62911028202245730000000000047081000000047081002000000010410403080546583380972184800308219191241066   1030000300030000   555510125356104519000015328Myittar Oo Eye Hospita               MMR11003080546583380970308000000000000000   10300001 00104100000000002825000000000000     
100   62911028202170490000000000042150000000042150002000000010410403080951283523452184800308203211605066   1030000500030000   555610112233104519000010487Ocean Super Center St  ohn           MMR11003080951283523450308000000000000000   10300001 00104100000000002529000000000000     
100   62911028202231380000000000025000000000025000002000000010410403080708253431312184800308881441330066   1030000500030000   888810121685104519000009666Max Energy CoLtd 5                   MMR11003080708253431310308000000000000000   10300001 00104100000000000750000000000000     
100   62443100372702000000000000207400000000207400002000000010410403080856203514848948870308971251505066   1030000500030000   555610114573104519000012532City Mart Ahlone Branc               MMR11003080856203514840308000000000000000   10300001 00104100000000051850000000000000     
100   62443100301716860000000000001960000000001960002000000010410403081451222122599467520308000006773643   1020000200030000   333400010001204104000000281Myanmar Soft-Gate Tech Yangon        MMR11003081451222122590308000000000000000   10300001F05104100000000000412000000000000     
100   95050318919136220000000000012700000000012700002000000010410403080438183025030799120308683081118066   1030000900030000   541119001471190110000001069K Mart Super Market-1  MONLAMYAING   MMR11003080438183025030308000000000000000   10300001F00104100000000003175000000000000     
100   95030308100042590000000000053750000000053750002000000010410403080912233098392184800308264421523066   1030000900030000   541119000181190110000000086SeinGayHar (Hlaing Tha YANGONTHARYA  MMR11003080912233098390308000000000000000   10300001F00104100000000003225000000000000     
100   62911028202668140000000000080000000000080000002000000010410403080949303108152184800308872191630066   1030000900030000   554119000997190110000000803Puma Power SOKL        YANGONOKKALAP MMR11003080949303108150308000000000000000   10300001F00104100000000002400000000000000     
100   95050317376014640000000000000980000000000980002000000010410403081155342534046508660308000006772651   1020000200030000   333400010001204104000000281Myanmar Soft-Gate Tech Yangon        MMR11003081155342534040308000000000000000   10300001F05104100000000000206000000000000     
100   95050313715913510000000000006125000000006125002000000010410403080955573110409423790308029251657066   1030000900030000   541119000121190110000000080Sein Gay Har BAK       YANGONADA     MMR11003080955573110400308000000000000000   10300001F00104100000000001532000000000000     
100   62911028202170490000000000005750000000005750002000000010410403080227393356362184800308097040936066   1030000500030000   555610115764104519000013506MarketplaceMyanmarPlaz Branch        MMR11003080227393356360308000000000000000   10300001 00104100000000000345000000000000     
100   95050316311487940000000000018500000000018500002000000010410403080555453044360302330308886251245066   1030000900030000   541119001363190110000000977Ocean PZD C17          YANGONAUNG    MMR11003080555453044360308000000000000000   10300001F00104100000000004625000000000000     
100   95050319161596230000000000000980000000000980002000000010410403080242281228353988060308000006768132   1020000200030000   333400010001204104000000281Myanmar Soft-Gate Tech Yangon        MMR11003080242281228350308000000000000000   10300001F05104100000000000206000000000000     
100   95050319928585020000000000000980000000000980002000000010410403080540431043104614670308000006769867   1020000200030000   333400010001204104000000281Myanmar Soft-Gate Tech Yangon        MMR11003080540431043100308000000000000000   10300001F05104100000000000206000000000000     
100   95050313113158460000000000004900000000004900002000000010410403081350192019272693110308000006773297   1020000200030000   333400010001204104000000281Myanmar Soft-Gate Tech Yangon        MMR11003081350192019270308000000000000000   10300001F05104100000000001029000000000000     
100   95050312878706670000000000003000000000003000002000000010410403081451022102017815040308000006773642   1030000200030000   3334000100012031040000040102C2P (Myanmar) Co. Ltd Yangon        MMR11003081451022102010308000000000000000   10300001F05104100000000000630000000000000     
100   62911028202763000000000000010000000000010000002000000010410403080312423005472184800308549420942066   1030000900030000   591219000601190110000000441Shwe Ohh Pharmacy St-3 YANGON        MMR11003080312423005470308000000000000000   10300001F00104100000000000600000000000000     
100   95050313145843230000000000000980000000000980002000000010410403080357372737672918120308000006768880   1020000200030000   333400010001204104000000281Myanmar Soft-Gate Tech Yangon        MMR11003080357372737670308000000000000000   10300001F05104100000000000206000000000000     
100   95050311131833760000000000030000000000030000002000000010410403080349431943486151790308000006768815   1030000200030000   333800010001203104000003327KBZPay                 Yangon        MMR11003080349431943480308000000000000000   10300001F05104100000000006300000000000000     
100   95050310427855490000000000000980000000000980002000000010410403080948341834129508890308000006771898   1020000200030000   333400010001204104000000281Myanmar Soft-Gate Tech Yangon        MMR11003080948341834120308000000000000000   10300001F05104100000000000206000000000000     
100   62911028202194090000000000013004000000013004002000000010410403080650573428952184800308578251335066   1030000500030000   888810121685104519000009666Max Energy CoLtd 5                   MMR11003080650573428950308000000000000000   10300001 00104100000000000390000000000000     
100   62911028202154720000000000049100000000049100002000000010410403080955033524012184800308279241632066   1030000500030000   555610103467104519000003420City Mart Yankin Cente 6             MMR11003080955033524010308000000000000000   10300001 00104100000000002946000000000000     
100   95050318712627500000000000012250000000012250002000000010410403080939483521706799600308923101629066   1030000300030000   555610103689104519000003577Capital Supermarket N  agon          MMR11003080939483521700308000000000000000   10300001 00104100000000003063000000000000     
100   62911028202136750000000000052150000000052150002000000010410403080841563514682184800308953231546066   1030000500030000   555610104031104519000003821City Mart North Point  enter         MMR11003080841563514680308000000000000000   10300001 00104100000000003129000000000000     
100   95030378062733680000000000013400000000013400002000000010410403080958503524842184800308393291606066   1030000500030000   555610103975104519000003818Ocean Oattara Thiri Na PyiTaw        MMR11003080958503524840308000000000000000   10300001 00104100000000000804000000000000     
100   95050312878706670000000000003000000000003000002000000010410403081607093709116502940308000006773965   1030000200030000   3334000100012031040000040102C2P (Myanmar) Co. Ltd Yangon        MMR11003081607093709110308000000000000000   10300001F05104100000000000630000000000000     
100   62911028202161240000000000040000000000040000002000000010410403080601485107672184800308206713510767   1040001600030000   598320000658000000010000527Shwe Taung Energy (YGN Yangon        MMR11003080601485107670308000000000000000   10300001F00104100000000001200000000000000     
100   95030318100004530000000000021000000000021000002000000010410403050342100073592184800305206403007359   1030000600030000   554100001218315799420000670DENKO MAWLAMYAING      MON STATE.    MMR11003050342100073590305000000000000000   10300001 00104100000000000630000000000000     
100   95050315259054570000000000001960000000001960002000000010410403081524105410091120000308000006773791   1020000200030000   333400010001204104000000281Myanmar Soft-Gate Tech Yangon        MMR11003081524105410090308000000000000000   10300001F05104100000000000412000000000000     
100   62911028202502300000000000005900000000005900002000000010410403081240013550372184800308163101908066   1030000300030000   555610103750104519000003626G and G Convenience St re 67         MMR11003081240013550370308000000000000000   10300001 00104100000000000354000000000000     
100   95030318552081020000000000003400000000003400002000000010410403081211573546972184800308678421802066   1030000500030000   555610121909104519000018354City Express MCS 101                 MMR11003081211573546970308000000000000000   10300001 00104100000000000204000000000000     
100   62911028202446700000000000001100000000001100002000000010410403080506213621912184800308000006769551   1030000200030000   333800010001203104000003327KBZPay                 Yangon        MMR11003080506213621910308000000000000000   10300001F05104100000000000231000000000000     
100   62443101065883000000000000050000000000050000002000000010410403080709373937608273810308000006770567   1030000300030000   333300010001206104000002147DICA Company Limited   Yangon        MMR11003080709373937600308000000000000000   10300001F05104100000000010000000000000000     
100   62911028202110340000000000025000000000025000002000000010410403081140215308522184800308206718530852   1040001600030000   598320000658000000010000527Shwe Taung Energy (YGN Yangon        MMR11003081140215308520308000000000000000   10300001F00104100000000000750000000000000     
100   95050311419479170000000000001960000000001960002000000010410403080713194319553480840308000006770608   1020000200030000   333400010001204104000000281Myanmar Soft-Gate Tech Yangon        MMR11003080713194319550308000000000000000   10300001F05104100000000000412000000000000     
100   95030301100319290000000000000980000000000980002000000010410403081513304330762184800308000006773748   1020000200030000   333400010001204104000000281Myanmar Soft-Gate Tech Yangon        MMR11003081513304330760308000000000000000   10300001F05104100000000000206000000000000     
100   95050322921717110000000000030000000000030000002000000010410403080116083352393938620308572560721066   1030000500030000   888810111244104519000009671Max Energy CoLtd 10                  MMR11003080116083352390308000000000000000   10300001 00104100000000003600000000000000     
100   62911028202029420000000000032400000000032400002000000010410403080549183042912184800308806191218066   1030000900030000   541119000816190110000000178Pro (1) Global (East D YANGONMYOTHIT MMR11003080549183042910308000000000000000   10300001F00104100000000001944000000000000     
100   62911028202499190000000000007500000000007500002000000010410403080555513044382184800308888251251066   1030000900030000   573219001177190110000000933UNIQUE Kabaraye        YANGON        MMR11003080555513044380308000000000000000   10300001F00104100000000000450000000000000     
100   95050315110306410000000000001960000000001960002000000010410403080451322132054905610308000006769425   1020000200030000   333400010001204104000000281Myanmar Soft-Gate Tech Yangon        MMR11003080451322132050308000000000000000   10300001F05104100000000000412000000000000     
100   95030385550669610000000000021350000000021350002000000010410403080836293087562184800308549061529066   1030000900030000   541119000816190110000000178Pro (1) Global (East D YANGONMYOTHIT MMR11003080836293087560308000000000000000   10300001F00104100000000001281000000000000     
100   62911028202078000000000000200000000000200000002000000010410403081259342934782184800308000006772993   1030000200030000   333800010001203104000003327KBZPay                 Yangon        MMR11003081259342934780308000000000000000   10300001F05104100000000042000000000000000     
100   95030301100122750000000000198000000000198000002000000010410403060938040023482184800306206509002348   1030000600030000   509400000546315799420000148SHWE SAN EAIN J.C      YANGON        MMR11003060938040023480306000000000000000   10300001 00104100000000019800000000000000     
100   62911028202448030000000000020900000000020900002000000010410403061056180025392184800306206510002539   1030000600030000   581200002287315799420000141FUJI COFFEE HOUSE      YANGON        MMR11003061056180025390306000000000000000   10300001 00104100000000002132000000000000     
100   95030301100126550000000000025000000000025000002000000010410403061056540443982184800306206510044398   1030000600030000   554100000969315799420000481DENKO NORTH OKKALAPA   YANGON        MMR11003061056540443980306000000000000000   10300001 00104100000000000750000000000000     
100   62911028202284910000000000041000000000041000002000000010410403060307450697082184800306206503069708   1030000600030000   554100000946315799420000471DENKO BAHAN            YANGON        MMR11003060307450697080306000000000000000   10300001 00104100000000001230000000000000     
100   62911028202221220000000000005000000000005000002000000010410403052301580576622184800306206523057662   1030000600030000   554100002085315799420000471DENKO BAHAN            YANGON        MMR11003052301580576620306000000000000000   10300001 00104100000000000150000000000000     
100   62911028202225440000000000010000000000010000002000000010410403080157423357172184800308194140943066   1030000300030000   444410118802104519000016003SP Bakery Yangon SR 3                MMR11003080157423357170308000000000000000   10300001 00104100000000001020000000000000     
100   95050328351497860000000000180000000000180000002000000010410403081203403340691466100308000006772691   1030000500030000   333800010001201104000003863AYA Pay                Yangon        MMR11003081203403340690308000000000000000   10300001F05104100000000037800000000000000     
100   62911028202684060000000000017537000000017537002000000010410403080515073376012184800308583451148066   1030000500030000   555610104046104519000003821City Mart North Point  enter         MMR11003080515073376010308000000000000000   10300001 00104100000000001052000000000000     
100   95050314996291580000000000001960000000001960002000000010410403081413344334906247650308000006773418   1020000200030000   333400010001204104000000281Myanmar Soft-Gate Tech Yangon        MMR11003081413344334900308000000000000000   10300001F05104100000000000412000000000000     
100   95030313499565480000000000014500000000014500002000000010410403080715084508052184800308000006770631   1030000500030000   333800010001201104000003863AYA Pay                Yangon        MMR11003080715084508050308000000000000000   10300001F05104100000000003045000000000000     
100   62443100350052510000000000063600000000063600002000000010410403080816464646603189900308000006771133   1030000200030000   333300010001203104000003632Myanmar Tradenet Test  Yangon        MMR11003080816464646600308000000000000000   10300001F05104100000000010000000000000000     
100   95050314126593570000000000003000000000003000002000000010410403081007163526522473470308612381614066   1030000300030000   555510125581104519000021394One Stop Mart Shopping all0080       MMR11003081007163526520308000000000000000   10300001 00104100000000000720000000000000     
100   62911028202440680000000000011750000000011750002000000010410403081153223544642184800308343251832066   1030000500030000   555610120970104519000017733City Express MCS 14                  MMR11003081153223544640308000000000000000   10300001 00104100000000000705000000000000     
100   95050312878706670000000000003000000000003000002000000010410403081612014201586417840308000006773985   1030000200030000   3334000100012031040000040102C2P (Myanmar) Co. Ltd Yangon        MMR11003081612014201580308000000000000000   10300001F05104100000000000630000000000000     
100   95050312926040930000000000030000000000030000002000000010410403080906133613832097430308000006771543   1030000200030000   333800010001203104000003327KBZPay                 Yangon        MMR11003080906133613830308000000000000000   10300001F05104100000000006300000000000000     
100   95050311184380560000000000002940000000002940002000000010410403081524575457422772490308000006773794   1020000200030000   333400010001204104000000281Myanmar Soft-Gate Tech Yangon        MMR11003081524575457420308000000000000000   10300001F05104100000000000617000000000000     
100   95050318214455130000000000002940000000002940002000000010410403080212544254802917460308000006767904   1020000200030000   333400010001204104000000281Myanmar Soft-Gate Tech Yangon        MMR11003080212544254800308000000000000000   10300001F05104100000000000617000000000000     
100   95050319528093960000000000000980000000000980002000000010410403081429215921019552620308000006773514   1020000200030000   333400010001204104000000281Myanmar Soft-Gate Tech Yangon        MMR11003081429215921010308000000000000000   10300001F05104100000000000206000000000000     
100   95050321976590420000000000020000000000020000002000000010410403081329225922559388140308000006773163   1030000200030000   333800010001203104000003327KBZPay                 Yangon        MMR11003081329225922550308000000000000000   10300001F05104100000000004200000000000000     
100   95050313843656520000000000000980000000000980002000000010410403080749031903350225310308000006770921   1020000200030000   333400010001204104000000281Myanmar Soft-Gate Tech Yangon        MMR11003080749031903350308000000000000000   10300001F05104100000000000206000000000000     
100   95050313968650950000000000000980000000000980002000000010410403080618004800655990000308000006770131   1020000200030000   333400010001204104000000281Myanmar Soft-Gate Tech Yangon        MMR11003080618004800650308000000000000000   10300001F05104100000000000206000000000000     
100   95030301100127050000000000031300000000031300002000000010410403080532095090482184800308206712509048   1040001600030000   591220000043000000010000041Mingalar Pharmacy      Yangon        MMR11003080532095090480308000000000000000   10300001F00104100000000001878000000000000     
100   95050317338786370000000000003000000000003000002000000010410403080107083708139236460308000006767556   1030000200030000   3334000100012031040000040102C2P (Myanmar) Co. Ltd Yangon        MMR11003080107083708130308000000000000000   10300001F05104100000000000630000000000000     
100   62911028202077190000000000000980000000000980002000000010410403080221145114942184800308000006767952   1020000200030000   333400010001204104000000281Myanmar Soft-Gate Tech Yangon        MMR11003080221145114940308000000000000000   10300001F05104100000000000206000000000000     
100   62911028202663430000000000034000000000034000002000000010410403050206020332062184800305206402033206   1030000600030000   554100001106315799420000564DENKO PHYUU            PHYUU         MMR11003050206020332060305000000000000000   10300001 00104100000000001020000000000000     
100   95050312498129060000000000000980000000000980002000000010410403080227445744802505770308000006768015   1020000200030000   333400010001204104000000281Myanmar Soft-Gate Tech Yangon        MMR11003080227445744800308000000000000000   10300001F05104100000000000206000000000000     
100   95050311275575990000000000050000000000050000002000000010410403081112324232085792230308000006772428   1030000200030000   333800010001203104000003327KBZPay                 Yangon        MMR11003081112324232080308000000000000000   10300001F05104100000000010500000000000000     
100   95050323133124350000000000010000000000010000002000000010410403081544561456004850450308000006773890   1030000200030000   333800010001203104000003327KBZPay                 Yangon        MMR11003081544561456000308000000000000000   10300001F05104100000000002100000000000000     
100   62911028202464020000000000001750000000001750002000000010410403080552313381412184800308277221221066   1030000500030000   555610110576104519000009164City Mart China Town P int Cen       MMR11003080552313381410308000000000000000   10300001 00104100000000000105000000000000     
100   95050314064416890000000000001960000000001960002000000010410403081304163416124090300308000006773020   1020000200030000   333400010001204104000000281Myanmar Soft-Gate Tech Yangon        MMR11003081304163416120308000000000000000   10300001F05104100000000000412000000000000     
100   62911028202406110000000000067700000000067700002000000010410403080423353368932184800308648511054066   1030000300030000   555510103684104519000003576Capital Express North  kkala1        MMR11003080423353368930308000000000000000   10300001 00104100000000004062000000000000     
100   95050326593223450000000000021200000000021200002000000010410403080528093377736522440308784571139066   1030000500030000   555610110565104519000009163City Mart Ayeyarwon Br nch           MMR11003080528093377730308000000000000000   10300001 00104100000000005300000000000000     
100   62911028202231380000000000010900000000010900002000000010410403080613463384972184800308734421254066   1030000300030000   444410125408104519000021235KFC JMT                              MMR11003080613463384970308000000000000000   10300001 00104100000000001112000000000000     
100   95050319161596230000000000000980000000000980002000000010410403080703103310213401460308000006770507   1020000200030000   333400010001204104000000281Myanmar Soft-Gate Tech Yangon        MMR11003080703103310210308000000000000000   10300001F05104100000000000206000000000000     
100   62443100379321630000000000125000000000125000002000000010410403080351013364819626940308129191051066   1030000300030000   888810125940104519000021285Shwe Taung Energy CoLt               MMR11003080351013364810308000000000000000   10300001 00104100000000015000000000000000     
100   95050326593223450000000000008550000000008550002000000010410403080523173377499997600308756561112066   1030000500030000   555610110557104519000009163City Mart Ayeyarwon Br nch           MMR11003080523173377490308000000000000000   10300001 00104100000000002138000000000000     
100   95050314557307430000000000001960000000001960002000000010410403081311284128146168270308000006773051   1020000200030000   333400010001204104000000281Myanmar Soft-Gate Tech Yangon        MMR11003081311284128140308000000000000000   10300001F05104100000000000412000000000000     
100   62443100371022130000000000097000000000097000002000000010410403080814505169368147340308206715516936   1040001600030000   598320000658000000010000527Shwe Taung Energy (YGN Yangon        MMR11003080814505169360308000000000000000   10300001F00104100000000011640000000000000     
100   95050312878706670000000000003000000000003000002000000010410403081609423942044765360308000006773975   1030000200030000   3334000100012031040000040102C2P (Myanmar) Co. Ltd Yangon        MMR11003081609423942040308000000000000000   10300001F05104100000000000630000000000000     
100   95050313113158460000000000004900000000004900002000000010410403081506503650534424970308000006773718   1020000200030000   333400010001204104000000281Myanmar Soft-Gate Tech Yangon        MMR11003081506503650530308000000000000000   10300001F05104100000000001029000000000000     
100   95050316818236190000000000000980000000000980002000000010410403081219104910060955530308000006772756   1020000200030000   333400010001204104000000281Myanmar Soft-Gate Tech Yangon        MMR11003081219104910060308000000000000000   10300001F05104100000000000206000000000000     
100   95050314703432410000000000001000000000001000002000000010410403081414524452381290200308000006773446   1030000200030000   3338000100012031040000040022C2P (Myanmar) Co. Ltd Yangon        MMR11003081414524452380308000000000000000   10300001F05104100000000000210000000000000     
100   95050315564078030000000000001960000000001960002000000010410403080115364536877073390308000006767586   1020000200030000   333400010001204104000000281Myanmar Soft-Gate Tech Yangon        MMR11003080115364536870308000000000000000   10300001F05104100000000000412000000000000     
100   62911028202189480000000000023950000000023950002000000010410403080529205088782184800308206712508878   1040001600030000   591220000295000000010000283Shwe Ohh Pharmacy (39t Yangon        MMR11003080529205088780308000000000000000   10300001F00104100000000001437000000000000     
100   62911028202196800000000000021950000000021950002000000010410403080911105197152184800308206716519715   1040001600030000   541120000569000000010000465Ocean Shwe Gone Daing  Yangon        MMR11003080911105197150308000000000000000   10300001F00104100000000001317000000000000     
100   95050311184380560000000000002940000000002940002000000010410403081526565656878155420308000006773802   1020000200030000   333400010001204104000000281Myanmar Soft-Gate Tech Yangon        MMR11003081526565656870308000000000000000   10300001F05104100000000000617000000000000     
100   95050313113158460000000000000980000000000980002000000010410403080616564656720692160308000006770126   1020000200030000   333400010001204104000000281Myanmar Soft-Gate Tech Yangon        MMR11003080616564656720308000000000000000   10300001F05104100000000000206000000000000     
100   62443100330108240000000000002940000000002940002000000010410403080529305930498174930308000006769778   1020000200030000   333400010001204104000000281Myanmar Soft-Gate Tech Yangon        MMR11003080529305930490308000000000000000   10300001F05104100000000000617000000000000     
100   95030301100425380000000000040000000000040000002000000010410403081013265234032184800308206717523403   1040001600030000   598320000658000000010000527Shwe Taung Energy (YGN Yangon        MMR11003081013265234030308000000000000000   10300001F00104100000000001200000000000000     
100   95050320531117320000000000035203000000035203002000000010410403070619000060258369340307206612006025   1030000500030000   598320001004000015172200010MAX ENERGY             PTN           MMR11003070619000060250307000000000000000   10300001 00104100000000004224000000000000     
100   95050321455580800000000000041050000000041050002000000010410403081007243526286289020308588361659066   1030000300030000   555610103661104519000003559Capital Hypermarket Da bon           MMR11003081007243526280308000000000000000   10300001 00104100000000010263000000000000     
100   62911028202445710000000000097000000000097000002000000010410403071033360221162184800307206617022116   1030000500030000   598320001202000015172200012MAX ENERGY             PTN           MMR11003071033360221160307000000000000000   10300001 00104100000000002910000000000000     
100   62443100301716860000000000010000000000010000002000000010410403080223135313954158250308000006767965   1030000200030000   333800010001203104000003327KBZPay                 Yangon        MMR11003080223135313950308000000000000000   10300001F05104100000000002100000000000000     
100   62911028202905250000000000002200000000002200002000000010410403080944001400912184800308000006771853   1030000200030000   333800010001203104000003327KBZPay                 Yangon        MMR11003080944001400910308000000000000000   10300001F05104100000000000462000000000000     
100   95050319928585020000000000000980000000000980002000000010410403080314124412233867970308000006768436   1020000200030000   333400010001204104000000281Myanmar Soft-Gate Tech Yangon        MMR11003080314124412230308000000000000000   10300001F05104100000000000206000000000000     
100   62911028202674810000000000004800000000004800002000000010410403081154043544332184800308296231805066   1030000500030000   555610110601104519000009166City Mart 47 Branch                  MMR11003081154043544330308000000000000000   10300001 00104100000000000288000000000000     
100   95050311121153200000000000001960000000001960002000000010410403081316504650812863300308000006773089   1020000200030000   333400010001204104000000281Myanmar Soft-Gate Tech Yangon        MMR11003081316504650810308000000000000000   10300001F05104100000000000412000000000000     
100   95030302100015820000000000019300000000019300002000000010410403080753375159512184800308206714515951   1040001600030000   591220000296000000010000284Shwe Ohh Pharmacy (Lan Yangon        MMR11003080753375159510308000000000000000   10300001F00104100000000001158000000000000     
100   95050316818236190000000000001960000000001960002000000010410403080823085308019799830308000006771208   1020000200030000   333400010001204104000000281Myanmar Soft-Gate Tech Yangon        MMR11003080823085308010308000000000000000   10300001F05104100000000000412000000000000     
100   62443100318296470000000000086000000000086000002000000010410403081014403527414040860308752431640066   1030000300030000   888810125458104519000021285Shwe Taung Energy CoLt               MMR11003081014403527410308000000000000000   10300001 00104100000000010320000000000000     
100   62443100326436660000000000040000000000040000002000000010410403071200420134994690690307206618013499   1030000500030000   598320002702000015172200027MAX ENERGY             PTN           MMR11003071200420134990307000000000000000   10300001 00104100000000004800000000000000     
100   95050312618592720000000000010000000000010000002000000010410403080300453045548910520308000006768326   1030000200030000   333800010001203104000003327KBZPay                 Yangon        MMR11003080300453045540308000000000000000   10300001F05104100000000002100000000000000     
100   95050312520116690000000000011232000000011232002000000010410403071028040005461422040307206616000546   1030000500030000   531120155803000045311201558GAMONE PWINT           PTN           MMR11003071028040005460307000000000000000   10300001 00104100000000002696000000000000     
100   95050315955808830000000000018612000000018612002000000010410403070954020141842533340307206616014184   1030000500030000   598320001101000015172200011MAX ENERGY             PTN           MMR11003070954020141840307000000000000000   10300001 00104100000000002234000000000000     
100   62911028202088990000000000030000000000030000002000000010410403070559470073582184800307206612007358   1030000500030000   598320001404000015172200014MAX ENERGY             PTN           MMR11003070559470073580307000000000000000   10300001 00104100000000000900000000000000     
100   95050314995854750000000000035000000000035000002000000010410403080957303110766459210308050271630066   1030000900030000   591219001421190110000001025Life Plus Store 26     YANGONADON    MMR11003080957303110760308000000000000000   10300001F00104100000000008400000000000000     
100   95050316769671810000000000000980000000000980002000000010410403080551322132857422850308000006769939   1020000200030000   333400010001204104000000281Myanmar Soft-Gate Tech Yangon        MMR11003080551322132850308000000000000000   10300001F05104100000000000206000000000000     
100   95050312498129060000000000001960000000001960002000000010410403081322285228581125720308000006773125   1020000200030000   333400010001204104000000281Myanmar Soft-Gate Tech Yangon        MMR11003081322285228580308000000000000000   10300001F05104100000000000412000000000000     
100   95050316311487940000000000002228000000002228002000000010410403080611083048771287840308186411208066   1030000900030000   541119001351190110000000977Ocean PZD C5           YANGONAUNG    MMR11003080611083048770308000000000000000   10300001F00104100000000000557000000000000     
100   95050320360851930000000000004900000000004900002000000010410403081355282528414345590308000006773321   1020000200030000   333400010001204104000000281Myanmar Soft-Gate Tech Yangon        MMR11003081355282528410308000000000000000   10300001F05104100000000001029000000000000     
100   95050314307746340000000000000980000000000980002000000010410403081334390439447735650308000006773210   1020000200030000   333400010001204104000000281Myanmar Soft-Gate Tech Yangon        MMR11003081334390439440308000000000000000   10300001F05104100000000000206000000000000     
100   62443100376865460000000000006400000000006400002000000010410403080200282994158045110308065300828066   1030000900030000   581219000528190110000000376Shwepalin (Hantharwadd YANGONUT      MMR11003080200282994150308000000000000000   10300001F00104100000000002720000000000000     
100   95050314287403810000000000002940000000002940002000000010410403080447321732783508420308000006769389   1020000200030000   333400010001204104000000281Myanmar Soft-Gate Tech Yangon        MMR11003080447321732780308000000000000000   10300001F05104100000000000617000000000000     
100   95050313843656520000000000000980000000000980002000000010410403080555022502465429980308000006769964   1020000200030000   333400010001204104000000281Myanmar Soft-Gate Tech Yangon        MMR11003080555022502460308000000000000000   10300001F05104100000000000206000000000000     
100   62911028202677390000000000050000000000050000002000000010410403081459393167092184800308440292139066   1030000900030000   554119000345190110000000212New Day Energy PZD     YANGONAUNG    MMR11003081459393167090308000000000000000   10300001F00104100000000001500000000000000     
100   95050318180584510000000000015200000000015200002000000010410403080508493849881175160308000006769580   1030000200030000   333800010001203104000003327KBZPay                 Yangon        MMR11003080508493849880308000000000000000   10300001F05104100000000003192000000000000     
100   62911028202593140000000000015450000000015450002000000010410403070611340020132184800307206612002013   1030000500030000   503920036610000015039200366PRO-1 HOME CENTER      PTN           MMR11003070611340020130307000000000000000   10300001 00104100000000000927000000000000     
100   62443100390038980000000000056006000000056006002000000010410403070522480014597079110307206611001459   1030000500030000   598320005201000015172200052MAX ENERGY             PTN           MMR11003070522480014590307000000000000000   10300001 00104100000000006721000000000000     
100   62443100370782070000000000130000000000130000002000000010410403071010510015382107860307206616001538   1030000500030000   481220073201005904812200732TECHNOLAND COMPUTER TR PTN           MMR11003071010510015380307000000000000000   10300001 00104100000000031200000000000000     
100   95050315158357300000000000008850000000008850002000000010410403070947250018412873730307000333944746   1030000300030000   591200000169000000000000084CB BANK                MEDICARE STOR MMR11003070947250018410307000000000000000   10300001F00104100000000002124000000000000     
100   95050312520116690000000000017500000000017500002000000010410403071018130006231251850307206616000623   1030000500030000   531120155805000045311201558GAMONE PWINT           PTN           MMR11003071018130006230307000000000000000   10300001 00104100000000004200000000000000     
100   95050316355723530000000000012200000000012200002000000010410403070213470020386333410307000333883389   1030000300030000   541100000443000000000000319CB BANK                ONESTOP KITCH MMR11003070213470020380307000000000000000   10300001F00104100000000003050000000000000     
100   62911028202419650000000000008100000000008100002000000010410403070216490019972184800307206608001997   1030000500030000   591220132901008605912201329THEIK DI WIN SHOP      PTN           MMR11003070216490019970307000000000000000   10300001 00104100000000000486000000000000     
100   95050315144611650000000000008300000000008300002000000010410403070945530018404611310307000333944524   1030000300030000   591200000169000000000000084CB BANK                MEDICARE STOR MMR11003070945530018400307000000000000000   10300001F00104100000000001992000000000000     
