100   95050314248677090000000000040000000000040000002000000010410403090328165816558410710309000006775619   1030000200030000   333800010001203104000003327KBZPay                 Yangon        MMR11003090328165816550309000000000000000   10300001F05104100000000008400000000000000     
100   62911028202243670000000000069550000000069550002000000010410403090501435705322184800309206812570532   1040001600030000   591220000288000000010000276Shwe Ohh Pharmacy (Nor Yangon        MMR11003090501435705320309000000000000000   10300001F00104100000000004173000000000000     
100   95050319220344710000000000001960000000001960002000000010410403091112554255610085660309000006779381   1020000200030000   333400010001204104000000281Myanmar Soft-Gate Tech Yangon        MMR11003091112554255610309000000000000000   10300001F05104100000000000412000000000000     
100   95050312498129060000000000001960000000001960002000000010410403091212124212583912610309000006779749   1020000200030000   333400010001204104000000281Myanmar Soft-Gate Tech Yangon        MMR11003091212124212580309000000000000000   10300001F05104100000000000412000000000000     
100   62911028202133520000000000004201000000004201002000000010410403091200583367882184800309824301858067   1030000900030000   541119001191190110000000942City Mart HDC C 6      YANGONUT      MMR11003091200583367880309000000000000000   10300001F00104100000000000252000000000000     
100   95050313374257020000000000090720000000090720002000000010410403090138380838327729940309000006774713   1030000900030000   333800010001202104000003301uab bank               Yangon        MMR11003090138380838320309000000000000000   10300001F05104100000000019051000000000000     
100   95050328137327770000000000020000000000020000002000000010410403081311540087207820750308206719008720   1030000500030000   598320068302000055983200683MAX ENERGY             PTN           MMR11003081311540087200308000000000000000   10300001 00104100000000002400000000000000     
100   95030305700676370000000000080000000000080000002000000010410403080706110076182184800308206707007618   1030000600030000   554100001237315799420000691DENKO AUNG PAN         KALAW.        MMR11003080706110076180308000000000000000   10300001 00104100000000002400000000000000     
100   62911028202502480000000000029000000000029000002000000010410403081052530138262184800308206717013826   1030000500030000   598320001402000015172200014MAX ENERGY             PTN           MMR11003081052530138260308000000000000000   10300001 00104100000000000870000000000000     
100   95050314567755980000000000002940000000002940002000000010410403091347051705725331700309000006780156   1020000200030000   333400010001204104000000281Myanmar Soft-Gate Tech Yangon        MMR11003091347051705720309000000000000000   10300001F05104100000000000617000000000000     
100   95050329613303740000000000030000000000030000002000000010410403090810464046184375530309000006778052   1030000200030000   333800010001203104000003327KBZPay                 Yangon        MMR11003090810464046180309000000000000000   10300001F05104100000000006300000000000000     
100   62911028202737030000000000300000000000300000002000000010410403090810474047352184800309000006778049   1030000200030000   333800010001203104000003327KBZPay                 Yangon        MMR11003090810474047350309000000000000000   10300001F05104100000000063000000000000000     
100   95050324411430900000000000029500000000029500002000000010410403090724455445969914860309000006777665   1010000100030000   333500010001212104000002840Internal Revenue Depar Yangon        MMR11003090724455445960309000000000000000   10300001F05104100000000060000000000000000     
100   95050311959900780000000000000980000000000980002000000010410403090223585358835566880309000006774994   1020000200030000   333400010001204104000000281Myanmar Soft-Gate Tech Yangon        MMR11003090223585358830309000000000000000   10300001F05104100000000000206000000000000     
100   95050327416134790000000000004900000000004900002000000010410403090415074507670367920309000006776077   1020000200030000   333400010001204104000000281Myanmar Soft-Gate Tech Yangon        MMR11003090415074507670309000000000000000   10300001F05104100000000001029000000000000     
100   95050315158357300000000000004900000000004900002000000010410403090216004600365311590309000006774934   1020000200030000   333400010001204104000000281Myanmar Soft-Gate Tech Yangon        MMR11003090216004600360309000000000000000   10300001F05104100000000001029000000000000     
100   95050313113158460000000000002940000000002940002000000010410403091425365536839374950309000006780328   1020000200030000   333400010001204104000000281Myanmar Soft-Gate Tech Yangon        MMR11003091425365536830309000000000000000   10300001F05104100000000000617000000000000     
100   95050323133124350000000000100000000000100000002000000010410403090310084008304474410309000006775435   1030000200030000   333800010001203104000003327KBZPay                 Yangon        MMR11003090310084008300309000000000000000   10300001F05104100000000021000000000000000     
100   95050312878706670000000000023000000000023000002000000010410403090250003222114984990309953200900067   1030000900030000   573219001178190110000000934UNIQUE Pansodan        YANGONADA     MMR11003090250003222110309000000000000000   10300001F00104100000000005520000000000000     
100   95050315615561720000000000000980000000000980002000000010410403091403013301644906150309000006780227   1020000200030000   333400010001204104000000281Myanmar Soft-Gate Tech Yangon        MMR11003091403013301640309000000000000000   10300001F05104100000000000206000000000000     
100   95050319220344710000000000000980000000000980002000000010410403091503433343655899740309000006780475   1020000200030000   333400010001204104000000281Myanmar Soft-Gate Tech Yangon        MMR11003091503433343650309000000000000000   10300001F05104100000000000206000000000000     
100   62911028202194090000000000020000000000020000002000000010410403080147050191682184800308206708019168   1030000500030000   598320001602000015172200016MAX ENERGY             PTN           MMR11003080147050191680308000000000000000   10300001 00104100000000000600000000000000     
100   62911028202174450000000000062500000000062500002000000010410403090715410001522184800309000743967712   1030000200030000   569988000806000008000004620KBZ BANK               STJ-BLAZON    MMR11003090715410001520309000000000000000   10300001 00104100000000003750000000000000     
100   95030322371504830000000000055970000000055970002000000010410403091137300027182184800309000743958387   1030000200030000   541188001483000008000000399KBZ BANK               OCEAN SUPERCE MMR11003091137300027180309000000000000000   10300001 00104100000000003358000000000000     
100   95030350862184340000000000004900000000004900002000000010410403091537270030342184800309000743974674   1030000200030000   541188001465000008000000391KBZ BANK               OCEAN SUPER C MMR11003091537270030340309000000000000000   10300001 00104100000000000294000000000000     
100   95050312240830690000000000002940000000002940002000000010410403090130450045481034910309000006774682   1020000200030000   333400010001204104000000281Myanmar Soft-Gate Tech Yangon        MMR11003090130450045480309000000000000000   10300001F05104100000000000617000000000000     
100   95050313113158460000000000000980000000000980002000000010410403090318354835257183710309000006775520   1020000200030000   333400010001204104000000281Myanmar Soft-Gate Tech Yangon        MMR11003090318354835250309000000000000000   10300001F05104100000000000206000000000000     
100   95050323133124350000000000020000000000020000002000000010410403091519434943565048820309000006780551   1030000200030000   333800010001203104000003327KBZPay                 Yangon        MMR11003091519434943560309000000000000000   10300001F05104100000000004200000000000000     
100   62443100317500820000000000009750000000009750002000000010410403090517095713495198910309206812571349   1040001600030000   591220000288000000010000276Shwe Ohh Pharmacy (Nor Yangon        MMR11003090517095713490309000000000000000   10300001F00104100000000002340000000000000     
100   62911028202169750000000000061712000000061712002000000010410403090525503614462184800309827561102067   1030000500030000   555610103474104519000003432City Mart Junction Zaw na 1          MMR11003090525503614460309000000000000000   10300001 00104100000000003703000000000000     
100   95050318052625040000000000020000000000020000002000000010410403090751355792466099320309206814579246   1040001600030000   598320000842000000010000602Regency Petrol Station Yangon        MMR11003090751355792460309000000000000000   10300001F00104100000000002400000000000000     
100   95050318575030940000000000004900000000004900002000000010410403090332350235261545490309000006775666   1020000200030000   333400010001204104000000281Myanmar Soft-Gate Tech Yangon        MMR11003090332350235260309000000000000000   10300001F05104100000000001029000000000000     
100   62911028202174450000000000017700000000017700002000000010410403090638023627762184800309744081317067   1030000300030000   444410116806104519000014353BreadTalk JunctionCity               MMR11003090638023627760309000000000000000   10300001 00104100000000001805000000000000     
100   95050321204334990000000000021000000000021000002000000010410403081015430068635693340308206716006863   1030000500030000   598320001403000015172200014MAX ENERGY             PTN           MMR11003081015430068630308000000000000000   10300001 00104100000000002520000000000000     
100   95030380157605420000000000083470000000083470002000000010410403091546070003972184800309000743975151   1030000200030000   541188001487000008000000399KBZ BANK               OCEAN SUPERCE MMR11003091546070003970309000000000000000   10300001 00104100000000005008000000000000     
100   62443100315853220000000000035216000000035216002000000010410403091403350003941822640309000743968926   1030000200030000   541188001487000008000000399KBZ BANK               OCEAN SUPERCE MMR11003091403350003940309000000000000000   10300001 00104100000000008804000000000000     
100   62911028202265290000000000002000000000002000002000000010410403091805240035762184800309000743982722   1030000200030000   541188001263000008000000310KBZ BANK               CITY MART- FM MMR11003091805240035760309000000000000000   10300001 00104100000000000120000000000000     
100   95050323670692380000000000009800000000009800002000000010410403091530180018781573650309000006780588   1020000200030000   333400010001204104000000281Myanmar Soft-Gate Tech Yangon        MMR11003091530180018780309000000000000000   10300001F05104100000000002058000000000000     
100   62911028202611200000000000016800000000016800002000000010410403091235380085232184800309000743962658   1030000200030000   541188001081000008000000294KBZ BANK               CITY MART - J MMR11003091235380085230309000000000000000   10300001 00104100000000001008000000000000     
100   95050311076838860000000000011050000000011050002000000010410403091802370101229089710309000743982572   1030000200030000   541188001056000008000000314KBZ BANK               MARKETPLACE - MMR11003091802370101220309000000000000000   10300001 00104100000000002763000000000000     
100   62443100315853220000000000018200000000018200002000000010410403090955000027169006380309000743951008   1030000200030000   541188001483000008000000399KBZ BANK               OCEAN SUPERCE MMR11003090955000027160309000000000000000   10300001 00104100000000004550000000000000     
100   62911028202118690000000000004350000000004350002000000010410403091537320071552184800309000743974678   1030000200030000   541188001060000008000000314KBZ BANK               MARKETPLACE - MMR11003091537320071550309000000000000000   10300001 00104100000000000261000000000000     
100   62911028202265290000000000048950000000048950002000000010410403091145349977142184800309153474775150   1040001400030000   541110000008015411100000051City Mart -FMI City Ci y Mart Holdin MMR11003091145349977140309000000000000000   10300001 00104100000000002937000000000000     
100   62911028202225850000000000010000000000010000002000000010410403090207445631842184800309206809563184   1040001600030000   591220000276000000010000264Shwe Ohh Pharmacy (YGH Yangon        MMR11003090207445631840309000000000000000   10300001F00104100000000000600000000000000     
100   62911028202449440000000000055000000000055000002000000010410403081157580217522184800308206718021752   1030000500030000   598320001201000015172200012MAX ENERGY             PTN           MMR11003081157580217520308000000000000000   10300001 00104100000000001650000000000000     
100   62443100318296470000000000200000000000200000002000000010410403091211305969717813280309206819596971   1040001600030000   598320000658000000010000527Shwe Taung Energy (YGN Yangon        MMR11003091211305969710309000000000000000   10300001F00104100000000024000000000000000     
100   95050324411430900000000000099790000000099790002000000010410403090738550855895127600309000006777782   1010000100030000   333500010001212104000002543Internal Revenue Depar Yangon        MMR11003090738550855890309000000000000000   10300001F05104100000000060000000000000000     
100   95050316206034940000000000039000000000039000002000000010410403090344393590646772020309912131016067   1030000300030000   555510111518104519000009891Unique Mobile 2                      MMR11003090344393590640309000000000000000   10300001 00104100000000009360000000000000     
100   95050319204938440000000000005000000000005000002000000010410403091101313131967886920309000006779323   1030000200030000   333800010001203104000003327KBZPay                 Yangon        MMR11003091101313131960309000000000000000   10300001F05104100000000001050000000000000     
100   62911028202786290000000000009000000000009000002000000010410403090213244324202184800309000006774916   1030000200030000   333800010001203104000003327KBZPay                 Yangon        MMR11003090213244324200309000000000000000   10300001F05104100000000001890000000000000     
100   95030322371504830000000000095500000000095500002000000010410403091134450027172184800309000743958137   1030000200030000   541188001483000008000000399KBZ BANK               OCEAN SUPERCE MMR11003091134450027170309000000000000000   10300001 00104100000000005730000000000000     
100   95050311831926380000000000034713000000034713002000000010410403091013220043571474180309000743952141   1030000200030000   541188001002000008000000008KBZ BANK               MARKETPLACE - MMR11003091013220043570309000000000000000   10300001 00104100000000008679000000000000     
100   62911028202243670000000000017800000000017800002000000010410403091250140064582184800309000743963708   1030000200030000   541188001282000008000000319KBZ BANK               NEIGHBOURHOOD MMR11003091250140064580309000000000000000   10300001 00104100000000001068000000000000     
100   95030306100103570000000000023450000000023450002000000010410403091500390245922184800309000743972555   1030000200030000   541188001325000008000000304KBZ BANK               CITY MART - S MMR11003091500390245920309000000000000000   10300001 00104100000000001407000000000000     
100   95050314570621780000000000000980000000000980002000000010410403090740131013972964550309000006777795   1020000200030000   333400010001204104000000281Myanmar Soft-Gate Tech Yangon        MMR11003090740131013970309000000000000000   10300001F05104100000000000206000000000000     
100   95050319352689750000000000210000000000210000002000000010410403090252222222743247410309000006775242   1030000200030000   333800010001203104000003327KBZPay                 Yangon        MMR11003090252222222740309000000000000000   10300001F05104100000000044100000000000000     
100   95050312498129060000000000000980000000000980002000000010410403090056412641634084580309000006774554   1020000200030000   333400010001204104000000281Myanmar Soft-Gate Tech Yangon        MMR11003090056412641630309000000000000000   10300001F05104100000000000206000000000000     
100   95050323133124350000000000010000000000010000002000000010410403090232130213504801010309000006775055   1030000200030000   333800010001203104000003327KBZPay                 Yangon        MMR11003090232130213500309000000000000000   10300001F05104100000000002100000000000000     
100   62443101057131720000000000012600000000012600002000000010410403090239543583928034670309101080904067   1030000500030000   555610115764104519000013506MarketplaceMyanmarPlaz Branch        MMR11003090239543583920309000000000000000   10300001 00104100000000003150000000000000     
100   95050318575030940000000000009800000000009800002000000010410403090428065806869615850309000006776179   1020000200030000   333400010001204104000000281Myanmar Soft-Gate Tech Yangon        MMR11003090428065806860309000000000000000   10300001F05104100000000002058000000000000     
100   62911028202169750000000000007500000000007500002000000010410403090623295753262184800309206813575326   1040001600030000   541120000559000000010000465Ocean Shwe Gone Daing  Yangon        MMR11003090623295753260309000000000000000   10300001F00104100000000000450000000000000     
100   62911028202471600000000000028350000000028350002000000010410403090630413626452184800309559591241067   1030000500030000   555610110576104519000009164City Mart China Town P int Cen       MMR11003090630413626450309000000000000000   10300001 00104100000000001701000000000000     
100   95050310652791070000000000005000000000005000002000000010410403090157582758789212230309000006774833   1030000200030000   333800010001203104000003327KBZPay                 Yangon        MMR11003090157582758780309000000000000000   10300001F05104100000000001050000000000000     
100   95050318617855880000000000000980000000000980002000000010410403091329195919659232330309000006780101   1020000200030000   333400010001204104000000281Myanmar Soft-Gate Tech Yangon        MMR11003091329195919650309000000000000000   10300001F05104100000000000206000000000000     
100   95050315330275830000000000002940000000002940002000000010410403090803093309584702130309000006777994   1020000200030000   333400010001204104000000281Myanmar Soft-Gate Tech Yangon        MMR11003090803093309580309000000000000000   10300001F05104100000000000617000000000000     
100   95050324411430900000000000502000000000502000002000000010410403090729475947783560220309000006777706   1010000100030000   333500010001212104000002543Internal Revenue Depar Yangon        MMR11003090729475947780309000000000000000   10300001F05104100000000060000000000000000     
100   95050310397364970000000000000980000000000980002000000010410403091540171017331148150309000006780617   1020000200030000   333400010001204104000000281Myanmar Soft-Gate Tech Yangon        MMR11003091540171017330309000000000000000   10300001F05104100000000000206000000000000     
100   95030301100121270000000000027500000000027500002000000010410403090328553229702184800309328580955067   1030000900030000   541119000122190110000000080Sein Gay Har BAK       YANGONADA     MMR11003090328553229700309000000000000000   10300001F00104100000000001650000000000000     
100   62911028202446700000000000200000000000200000002000000010410403090547261726772184800309000006776854   1030000200030000   333800010001203104000003327KBZPay                 Yangon        MMR11003090547261726770309000000000000000   10300001F05104100000000042000000000000000     
100   95050316818236190000000000000980000000000980002000000010410403091047271727464908520309000006779239   1020000200030000   333400010001204104000000281Myanmar Soft-Gate Tech Yangon        MMR11003091047271727460309000000000000000   10300001F05104100000000000206000000000000     
100   95050316818236190000000000000980000000000980002000000010410403090842291229500815270309000006778324   1020000200030000   333400010001204104000000281Myanmar Soft-Gate Tech Yangon        MMR11003090842291229500309000000000000000   10300001F05104100000000000206000000000000     
100   95030301100121270000000000012700000000012700002000000010410403090311433225932184800309137410943067   1030000900030000   541119000120190110000000080Sein Gay Har BAK       YANGONADA     MMR11003090311433225930309000000000000000   10300001F00104100000000000762000000000000     
100   95050318131043910000000000004900000000004900002000000010410403091033250325859234650309000006779167   1020000200030000   333400010001204104000000281Myanmar Soft-Gate Tech Yangon        MMR11003091033250325850309000000000000000   10300001F05104100000000001029000000000000     
100   95050312298324450000000000000980000000000980002000000010410403091538040804258523990309000006780612   1020000200030000   333400010001204104000000281Myanmar Soft-Gate Tech Yangon        MMR11003091538040804250309000000000000000   10300001F05104100000000000206000000000000     
100   95050315564078030000000000001960000000001960002000000010410403091137160716455614540309000006779550   1020000200030000   333400010001204104000000281Myanmar Soft-Gate Tech Yangon        MMR11003091137160716450309000000000000000   10300001F05104100000000000412000000000000     
100   62911028202823570000000000020000000000020000002000000010410403090338560856432184800309000006775731   1030000200030000   333800010001203104000003327KBZPay                 Yangon        MMR11003090338560856430309000000000000000   10300001F05104100000000004200000000000000     
100   95050318057347910000000000000980000000000980002000000010410403090100333033115737070309000006774563   1020000200030000   333400010001204104000000281Myanmar Soft-Gate Tech Yangon        MMR11003090100333033110309000000000000000   10300001F05104100000000000206000000000000     
100   95050311736839760000000000000980000000000980002000000010410403091354422442744480690309000006780187   1020000200030000   333400010001204104000000281Myanmar Soft-Gate Tech Yangon        MMR11003091354422442740309000000000000000   10300001F05104100000000000206000000000000     
100   95050324411430900000000000145417000000145417002000000010410403090733510351588517670309000006777738   1010000100030000   333500010001212104000002543Internal Revenue Depar Yangon        MMR11003090733510351580309000000000000000   10300001F05104100000000060000000000000000     
100   95050315166583130000000000050000000000050000002000000010410403091537020702011999110309000006780609   1030000200030000   333800010001203104000003327KBZPay                 Yangon        MMR11003091537020702010309000000000000000   10300001F05104100000000010500000000000000     
100   95050325630928770000000000000980000000000980002000000010410403090747281728741141870309000006777868   1020000200030000   333400010001204104000000281Myanmar Soft-Gate Tech Yangon        MMR11003090747281728740309000000000000000   10300001F05104100000000000206000000000000     
100   95050310427855490000000000001960000000001960002000000010410403090152432243570949810309000006774786   1020000200030000   333400010001204104000000281Myanmar Soft-Gate Tech Yangon        MMR11003090152432243570309000000000000000   10300001F05104100000000000412000000000000     
100   62911028202161240000000000009786000000009786002000000010410403091032040286552184800309000743953574   1030000200030000   541188001025000008000000298KBZ BANK               CITY MART - M MMR11003091032040286550309000000000000000   10300001 00104100000000000587000000000000     
100   95030321939721770000000000000980000000000980002000000010410403090233530353702184800309000006775059   1020000200030000   333400010001204104000000281Myanmar Soft-Gate Tech Yangon        MMR11003090233530353700309000000000000000   10300001F05104100000000000206000000000000     
100   62443100378297160000000000004900000000004900002000000010410403090835190519066198210309000006778269   1020000200030000   333400010001204104000000281Myanmar Soft-Gate Tech Yangon        MMR11003090835190519060309000000000000000   10300001F05104100000000001029000000000000     
100   95050310397364970000000000000980000000000980002000000010410403090050302030809127130309000006774525   1020000200030000   333400010001204104000000281Myanmar Soft-Gate Tech Yangon        MMR11003090050302030800309000000000000000   10300001F05104100000000000206000000000000     
100   95050312498129060000000000001960000000001960002000000010410403091153462346948167430309000006779658   1020000200030000   333400010001204104000000281Myanmar Soft-Gate Tech Yangon        MMR11003091153462346940309000000000000000   10300001F05104100000000000412000000000000     
100   62443100392426520000000000010000000000010000002000000010410403091256262626296253930309000006779957   1030000200030000   333800010001203104000003327KBZPay                 Yangon        MMR11003091256262626290309000000000000000   10300001F05104100000000002100000000000000     
100   62911028202151590000000000042590000000042590002000000010410403091735160134642184800309000743980996   1030000200030000   541188001305000008000000325KBZ BANK               CITY MART - A MMR11003091735160134640309000000000000000   10300001 00104100000000002555000000000000     
100   95050311959900780000000000000980000000000980002000000010410403090142111211799297330309000006774731   1020000200030000   333400010001204104000000281Myanmar Soft-Gate Tech Yangon        MMR11003090142111211790309000000000000000   10300001F05104100000000000206000000000000     
100   62911028202067520000000000001960000000001960002000000010410403091353022302592184800309000006780175   1020000200030000   333400010001204104000000281Myanmar Soft-Gate Tech Yangon        MMR11003091353022302590309000000000000000   10300001F05104100000000000412000000000000     
100   95030301100126220000000000100000000000100000002000000010410403090302083208422184800309000006775340   1030000200030000   333800010001203104000003327KBZPay                 Yangon        MMR11003090302083208420309000000000000000   10300001F05104100000000021000000000000000     
100   95050317343045830000000000002940000000002940002000000010410403090936260626249794120309000006778766   1020000200030000   333400010001204104000000281Myanmar Soft-Gate Tech Yangon        MMR11003090936260626240309000000000000000   10300001F05104100000000000617000000000000     
100   62911028202446700000000000010000000000010000002000000010410403090540541054402184800309000006776788   1030000200030000   333800010001203104000003327KBZPay                 Yangon        MMR11003090540541054400309000000000000000   10300001F05104100000000002100000000000000     
100   95050319928585020000000000002940000000002940002000000010410403090902213221232042270309000006778491   1020000200030000   333400010001204104000000281Myanmar Soft-Gate Tech Yangon        MMR11003090902213221230309000000000000000   10300001F05104100000000000617000000000000     
100   62911028202443400000000000015500000000015500002000000010410403091144050133492184800309000743958982   1030000200030000   541188001020000008000000298KBZ BANK               CITY MART - M MMR11003091144050133490309000000000000000   10300001 00104100000000000930000000000000     
100   62911028202443400000000000030029000000030029002000000010410403091146010133502184800309000743959151   1030000200030000   541188001020000008000000298KBZ BANK               CITY MART - M MMR11003091146010133500309000000000000000   10300001 00104100000000001802000000000000     
100   95050313113158460000000000003920000000003920002000000010410403091434030403406325250309000006780357   1020000200030000   333400010001204104000000281Myanmar Soft-Gate Tech Yangon        MMR11003091434030403400309000000000000000   10300001F05104100000000000823000000000000     
100   95050313836159580000000000003000000000003000002000000010410403090935540554131531700309000006778754   1030000200030000   3334000100012031040000040102C2P (Myanmar) Co. Ltd Yangon        MMR11003090935540554130309000000000000000   10300001F05104100000000000630000000000000     
100   62911028202446700000000000300000000000300000002000000010410403090536270627692184800309000006776748   1030000200030000   333800010001203104000003327KBZPay                 Yangon        MMR11003090536270627690309000000000000000   10300001F05104100000000063000000000000000     
100   95050318617855880000000000002940000000002940002000000010410403090302013201218119770309000006775343   1020000200030000   333400010001204104000000281Myanmar Soft-Gate Tech Yangon        MMR11003090302013201210309000000000000000   10300001F05104100000000000617000000000000     
100   95050324411430900000000000136599000000136599002000000010410403090747441744136184420309000006777875   1010000100030000   333500010001212104000002535Internal Revenue Depar Yangon        MMR11003090747441744130309000000000000000   10300001F05104100000000060000000000000000     
100   95050312498129060000000000000980000000000980002000000010410403091301333133709729100309000006779984   1020000200030000   333400010001204104000000281Myanmar Soft-Gate Tech Yangon        MMR11003091301333133700309000000000000000   10300001F05104100000000000206000000000000     
100   62443100330108240000000000000980000000000980002000000010410403091456352635748949450309000006780448   1020000200030000   333400010001204104000000281Myanmar Soft-Gate Tech Yangon        MMR11003091456352635740309000000000000000   10300001F05104100000000000206000000000000     
100   95050312360118350000000000007000000000007000002000000010410403091044191419018383690309000006779229   1030000200030000   333800010001203104000003327KBZPay                 Yangon        MMR11003091044191419010309000000000000000   10300001F05104100000000001470000000000000     
100   95050316355723530000000000001960000000001960002000000010410403090948271827026893330309000006778845   1020000200030000   333400010001204104000000281Myanmar Soft-Gate Tech Yangon        MMR11003090948271827020309000000000000000   10300001F05104100000000000412000000000000     
100   95050310121313850000000000196560000000196560002000000010410403090251392139833332510309000006775233   1030000900030000   333800010001202104000003301uab bank               Yangon        MMR11003090251392139830309000000000000000   10300001F05104100000000041278000000000000     
100   62911028202193670000000000300000000000300000002000000010410403090545401540972184800309000006776836   1030000200030000   333800010001203104000003327KBZPay                 Yangon        MMR11003090545401540970309000000000000000   10300001F05104100000000063000000000000000     
100   95050310305109410000000000000980000000000980002000000010410403090901343134457084820309000006778493   1020000200030000   333400010001204104000000281Myanmar Soft-Gate Tech Yangon        MMR11003090901343134450309000000000000000   10300001F05104100000000000206000000000000     
100   95050320047636150000000000020000000000020000002000000010410403090647183281496148760309456171318067   1030000900030000   573219001178190110000000934UNIQUE Pansodan        YANGONADA     MMR11003090647183281490309000000000000000   10300001F00104100000000004800000000000000     
100   95050322295410690000000000050000000000050000002000000010410403090719513289604872310309918491351067   1030000900030000   554119001103190110000000215New Day Energy MYG     YANGONONE     MMR11003090719513289600309000000000000000   10300001F00104100000000006000000000000000     
100   95030301100124400000000000042541000000042541002000000010410403091112213355502184800309024421721067   1030000900030000   541119001260190110000000958City Mart PLST C 3     YANGONMYOTHIT MMR11003091112213355500309000000000000000   10300001F00104100000000002553000000000000     
100   62911028202169750000000000030176000000030176002000000010410403090435303597222184800309806041155067   1030000500030000   555610118962104519000016137City Mart South Okkala WZYD BR       MMR11003090435303597220309000000000000000   10300001 00104100000000001811000000000000     
100   95050318631979070000000000010500000000010500002000000010410403090537463262166255720309243071246067   1030000900030000   541119000158190110000000084Pro (1) Global (Pazund YANGONARTAUNG MMR11003090537463262160309000000000000000   10300001F00104100000000002625000000000000     
100   95050320531117320000000000014600000000014600002000000010410403091013513337245262710309767431651067   1030000900030000   541119001274190110000000961City Mart PLST City Ca YANGONMYOTHIT MMR11003091013513337240309000000000000000   10300001F00104100000000003650000000000000     
100   62911028202890970000000000014300000000014300002000000010410403091115273356302184800309073451727067   1030000900030000   541119001312190110000000968Ocean Mingalar MDY C 2 MANDALAYHARSI MMR11003091115273356300309000000000000000   10300001F00104100000000000858000000000000     
100   95050319938772870000000000005000000000005000002000000010410403091503013301495474280309000006780473   1030000200030000   333800010001203104000003327KBZPay                 Yangon        MMR11003091503013301490309000000000000000   10300001F05104100000000001050000000000000     
100   62911028202443400000000000048498000000048498002000000010410403090318563588192184800309627500923067   1030000500030000   555610112235104519000010487Ocean Super Center St  ohn           MMR11003090318563588190309000000000000000   10300001 00104100000000002910000000000000     
100   95030301100121270000000000005400000000005400002000000010410403090332553230552184800309377021055067   1030000900030000   541119000122190110000000080Sein Gay Har BAK       YANGONADA     MMR11003090332553230550309000000000000000   10300001F00104100000000000324000000000000     
100   95050321976590420000000000006300000000006300002000000010410403090650373282491021120309517201337067   1030000900030000   541119001229190110000000946City Mart TM Season C  YANGONONE     MMR11003090650373282490309000000000000000   10300001F00104100000000001575000000000000     
100   62443100313529540000000000004800000000004800002000000010410403091026283341625191400309078561628067   1030000900030000   599919000620190110000000453IQ Educational Toy Sto YANGONADA     MMR11003091026283341620309000000000000000   10300001F00104100000000001152000000000000     
100   62911028202150190000000000030000000000030000002000000010410403090348213591152184800309967171032067   1030000300030000   888810125940104519000021285Shwe Taung Energy CoLt               MMR11003090348213591150309000000000000000   10300001 00104100000000000900000000000000     
100   95050323133124350000000000020000000000020000002000000010410403091517404740532424570309000006780544   1030000200030000   333800010001203104000003327KBZPay                 Yangon        MMR11003091517404740530309000000000000000   10300001F05104100000000004200000000000000     
100   62911028202261800000000000070000000000070000002000000010410403080559300175962184800308206712017596   1030000500030000   598320001001000015172200010MAX ENERGY             PTN           MMR11003080559300175960308000000000000000   10300001 00104100000000002100000000000000     
100   95030301100316300000000000012750000000012750002000000010410403081056180003802184800308206717000380   1030000500030000   531120155608000045311201556GAMONE PWINT           PTN           MMR11003081056180003800308000000000000000   10300001 00104100000000000765000000000000     
100   95050313123223200000000000007500000000007500002000000010410403081144240020909983810308000334125669   1030000300030000   541100000218000000000000113CB BANK                ONESTOP KITCH MMR11003081144240020900308000000000000000   10300001F00104100000000001875000000000000     
100   95030301100035220000000000007150000000007150002000000010410403080627510007392184800308206712000739   1030000500030000   581220045401000015812200454FEEL MYANMAR II RESTAU PTN           MMR11003080627510007390308000000000000000   10300001 00104100000000000729000000000000     
100   62911028202809480000000000115300000000115300002000000010410403080252130006832184800308206709000683   1030000500030000   591220014201014405912200142SHWE OHH PHARMACY      PTN           MMR11003080252130006830308000000000000000   10300001 00104100000000006918000000000000     
100   62911028202169750000000000002800000000002800002000000010410403090434513597732184800309876071159067   1030000500030000   555610118972104519000016137City Mart South Okkala WZYD BR       MMR11003090434513597730309000000000000000   10300001 00104100000000000168000000000000     
100   95030301100196920000000000012000000000012000002000000010410403090734103293262184800309132041410067   1030000900030000   541119001361190110000000977Ocean PZD C 15         YANGONAUNG    MMR11003090734103293260309000000000000000   10300001F00104100000000000720000000000000     
100   62443100306028540000000000022400000000022400002000000010410403091035203344461433400309277051720067   1030000900030000   541119001241190110000000082Sein Gay Har Super Cen YANGON        MMR11003091035203344460309000000000000000   10300001F00104100000000005600000000000000     
100   62443100379321630000000000060000000000060000002000000010410403090446393598812665530309016151105067   1030000300030000   888810125458104519000021285Shwe Taung Energy CoLt               MMR11003090446393598810309000000000000000   10300001 00104100000000007200000000000000     
100   95050317728825080000000000010250000000010250002000000010410403090506373254132319430309746361137067   1030000900030000   541119000120190110000000080Sein Gay Har BAK       YANGONADA     MMR11003090506373254130309000000000000000   10300001F00104100000000002563000000000000     
100   95050320531117320000000000012700000000012700002000000010410403090951073330787247520309368211607067   1030000900030000   541119001272190110000000960City Mart PLST Season  YANGONMYOTHIT MMR11003090951073330780309000000000000000   10300001F00104100000000003175000000000000     
100   95030301100121270000000000034000000000034000002000000010410403091007053335642184800309669371605067   1030000900030000   541119000124190110000000080Sein Gay Har BAK       YANGONADA     MMR11003091007053335640309000000000000000   10300001F00104100000000002040000000000000     
100   95050320531117320000000000068600000000068600002000000010410403091014503337662213050309797441650067   1030000900030000   541119001263190110000000958City Mart PLST C 6     YANGONMYOTHIT MMR11003091014503337660309000000000000000   10300001F00104100000000017150000000000000     
100   62911028202126020000000001088800000001088800002000000010410403080732540008882184800308206714000888   1030000500030000   503920036607000015039200366PRO-1 HOME CENTER      PTN           MMR11003080732540008880308000000000000000   10300001 00104100000000065328000000000000     
100   62911028202610960000000000090000000000090000002000000010410403080508050025412184800308206711002541   1030000500030000   598320003602000015172200036MAX ENERGY             PTN           MMR11003080508050025410308000000000000000   10300001 00104100000000002700000000000000     
100   95030301100127050000000000052500000000052500002000000010410403080526330015412184800308206711001541   1030000500030000   591220020501005105912200205MINGALAR PHARMACY      PTN           MMR11003080526330015410308000000000000000   10300001 00104100000000003150000000000000     
100   95030392891915960000000000031500000000031500002000000010410403080319080008412184800308206709000841   1030000500030000   481220022101000024812200221ANYCALL MOBILE         PTN           MMR11003080319080008410308000000000000000   10300001 00104100000000001890000000000000     
100   62443101053241940000000000067950000000067950002000000010410403080311080005937087840308206709000593   1030000500030000   581220089001000015812200890KRISPY KREME           PTN           MMR11003080311080005930308000000000000000   10300001 00104100000000028879000000000000     
100   62911028202366010000000000055000000000055000002000000010410403080924400012132184800308206715001213   1030000500030000   598320101301005405983201013PT POWER (NPT)         PTN           MMR11003080924400012130308000000000000000   10300001 00104100000000001650000000000000     
100   95050328491914360000000000090000000000090000002000000010410403080927520022501927240308206715002250   1030000500030000   503920036610000015039200366PRO-1 HOME CENTER      PTN           MMR11003080927520022500308000000000000000   10300001 00104100000000021600000000000000     
100   95050324622440820000000000025000000000025000002000000010410403080820440058604757280308206708005860   1030000600030000   549900002153315799420001502EASY MART- 003         YANGON        MMR11003080820440058600308000000000000000   10300001 00104100000000010625000000000000     
100   95050315474529910000000000001960000000001960002000000010410403090405193519882530990309000006775981   1020000200030000   333400010001204104000000281Myanmar Soft-Gate Tech Yangon        MMR11003090405193519880309000000000000000   10300001F05104100000000000412000000000000     
100   95050315738465950000000000132500000000132500002000000010410403090355503592527913920309138281013067   1030000300030000   555610103656104519000003559Capital Hypermarket Da bon           MMR11003090355503592520309000000000000000   10300001 00104100000000033125000000000000     
100   95030301100124400000000000013500000000013500002000000010410403091117433356762184800309101471743067   1030000900030000   541119001274190110000000961City Mart PLST City Ca YANGONMYOTHIT MMR11003091117433356760309000000000000000   10300001F00104100000000000810000000000000     
100   95030301100351360000000000019000000000019000002000000010410403090802543254332184800309000006778004   1030000500030000   333800010001201104000003863AYA Pay                Yangon        MMR11003090802543254330309000000000000000   10300001F05104100000000003990000000000000     
100   95050310305109410000000000000980000000000980002000000010410403090903203320030389790309000006778505   1020000200030000   333400010001204104000000281Myanmar Soft-Gate Tech Yangon        MMR11003090903203320030309000000000000000   10300001F05104100000000000206000000000000     
100   95050312675525330000000000017000000000017000002000000010410403091005463546680014350309000006778968   1030000200030000   333800010001203104000003327KBZPay                 Yangon        MMR11003091005463546680309000000000000000   10300001F05104100000000003570000000000000     
100   95030301100196920000000000010800000000010800002000000010410403090651053282582184800309523211305067   1030000900030000   541119001359190110000000977Ocean PZD C 13         YANGONAUNG    MMR11003090651053282580309000000000000000   10300001F00104100000000000648000000000000     
100   95050318601641810000000000002700000000002700002000000010410403091041043666107958230309043111739067   1030000500030000   555610112657104519000010852City Express MCS 58                  MMR11003091041043666100309000000000000000   10300001 00104100000000000675000000000000     
100   62911028202221220000000000010000000000010000002000000010410403080101180234002184800308206707023400   1030000500030000   598320001302000015172200013MAX ENERGY             PTN           MMR11003080101180234000308000000000000000   10300001 00104100000000000300000000000000     
100   95030301100129110000000000037000000000037000002000000010410403080228460135022184800308206708013502   1030000500030000   598320001401000015172200014MAX ENERGY             PTN           MMR11003080228460135020308000000000000000   10300001 00104100000000001110000000000000     
100   62911028202335820000000000020000000000020000002000000010410403081241130216122184800308206712021612   1030000600030000   554100000725315799420000306DENKO MDY - 78         MANDALAY      MMR11003081241130216120308000000000000000   10300001 00104100000000000600000000000000     
100   62911028202416760000000000026000000000026000002000000010410403080105420104532184800308206701010453   1030000600030000   554100002319315799420000477DENKO INSEIN           YANGON        MMR11003080105420104530308000000000000000   10300001 00104100000000000780000000000000     
100   62443101003317490000000000113000000000113000002000000010410403080322160135103236640308206709013510   1030000500030000   598320001401000015172200014MAX ENERGY             PTN           MMR11003080322160135100308000000000000000   10300001 00104100000000013560000000000000     
100   62911028202239140000000000030000000000030000002000000010410403080710520704202184800308206707070420   1030000600030000   554100000946315799420000471DENKO BAHAN            YANGON        MMR11003080710520704200308000000000000000   10300001 00104100000000000900000000000000     
100   95030333409030400000000000030000000000030000002000000010410403080159350061582184800308206708006158   1030000500030000   598320001004000015172200010MAX ENERGY             PTN           MMR11003080159350061580308000000000000000   10300001 00104100000000000900000000000000     
100   62911028202125290000000000040000000000040000002000000010410403080258250234312184800308206709023431   1030000500030000   598320001302000015172200013MAX ENERGY             PTN           MMR11003080258250234310308000000000000000   10300001 00104100000000001200000000000000     
100   62911028202440680000000000009500000000009500002000000010410403091151103678142184800309735201816067   1030000500030000   555610120970104519000017733City Express MCS 14                  MMR11003091151103678140309000000000000000   10300001 00104100000000000570000000000000     
100   95050316818236190000000000000980000000000980002000000010410403091415404540582850120309000006780285   1020000200030000   333400010001204104000000281Myanmar Soft-Gate Tech Yangon        MMR11003091415404540580309000000000000000   10300001F05104100000000000206000000000000     
100   62443100355445150000000000010200000000010200002000000010410403090930113652441616790309109591546067   1030000500030000   555610110601104519000009166City Mart 47 Branch                  MMR11003090930113652440309000000000000000   10300001 00104100000000002550000000000000     
100   95030331635936620000000000039000000000039000002000000010410403091158413681312184800309151411816067   1030000500030000   888810109465104519000008484Max Energy CoLtd 1                   MMR11003091158413681310309000000000000000   10300001 00104100000000001170000000000000     
100   62911028202397530000000000100200000000100200002000000010410403090817124712992184800309000006778111   1030000900030000   333300010001202104000002659MSP                    Yangon        MMR11003090817124712990309000000000000000   10300001F05104100000000010000000000000000     
100   95050312119522920000000000002940000000002940002000000010410403090225045504640524330309000006775000   1020000200030000   333400010001204104000000281Myanmar Soft-Gate Tech Yangon        MMR11003090225045504640309000000000000000   10300001F05104100000000000617000000000000     
100   95050324411430900000000000402050000000402050002000000010410403090720385038943219830309000006777636   1010000100030000   333500010001212104000002840Internal Revenue Depar Yangon        MMR11003090720385038940309000000000000000   10300001F05104100000000060000000000000000     
100   62443100359121590000000000006450000000006450002000000010410403091141043677021713910309568121851067   1030000500030000   555610103479104519000003432City Mart Junction Zaw na 6          MMR11003091141043677020309000000000000000   10300001 00104100000000001613000000000000     
100   62911028202752030000000000070000000000070000002000000010410403080733250092962184800308206707009296   1030000600030000   554100001217315799420000669DENKO PHAYAR GYI       BAGO          MMR11003080733250092960308000000000000000   10300001 00104100000000002100000000000000     
100   62911028202500810000000000035000000000035000002000000010410403080741420068222184800308206714006822   1030000500030000   598320001403000015172200014MAX ENERGY             PTN           MMR11003080741420068220308000000000000000   10300001 00104100000000001050000000000000     
100   62911028202533900000000000020000000000020000002000000010410403080625500141122184800308206712014112   1030000500030000   598320002001000015172200020MAX ENERGY             PTN           MMR11003080625500141120308000000000000000   10300001 00104100000000000600000000000000     
100   95030301100121270000000000010000000000010000002000000010410403081026585244712184800308206717524471   1040001600030000   598320000918000000010000665MMTM - Thingangyun     Ygn           MMR11003081026585244710308000000000000000   10300001F00104100000000000300000000000000     
100   95050324411430900000000000370645000000370645002000000010410403090743381338964617030309000006777832   1010000100030000   333500010001212104000002535Internal Revenue Depar Yangon        MMR11003090743381338960309000000000000000   10300001F05104100000000060000000000000000     
100   62911028202193670000000000300000000000300000002000000010410403090544321432852184800309000006776822   1030000200030000   333800010001203104000003327KBZPay                 Yangon        MMR11003090544321432850309000000000000000   10300001F05104100000000063000000000000000     
100   62911028202537390000000000039500000000039500002000000010410403090723343290612184800309975531334067   1030000900030000   554119000997190110000000803Puma Power SOKL        YANGONOKKALAP MMR11003090723343290610309000000000000000   10300001F00104100000000001185000000000000     
100   95030301100183220000000000250000000000250000002000000010410403090718444844392184800309000006777618   1030000500030000   333800010001201104000003863AYA Pay                Yangon        MMR11003090718444844390309000000000000000   10300001F05104100000000052500000000000000     
100   95050312119522920000000000080640000000080640002000000010410403090308323832556126900309000006775414   1030000900030000   333800010001202104000003301uab bank               Yangon        MMR11003090308323832550309000000000000000   10300001F05104100000000016934000000000000     
100   95050315199558640000000000024750000000024750002000000010410403091012033659809163340309146421618067   1030000300030000   555610103661104519000003559Capital Hypermarket Da bon           MMR11003091012033659800309000000000000000   10300001 00104100000000006188000000000000     
100   95050321237170130000000000019800000000019800002000000010410403091130003676234763570309463071800067   1030000500030000   555610110557104519000009163City Mart Ayeyarwon Br nch           MMR11003091130003676230309000000000000000   10300001 00104100000000004950000000000000     
100   95050311876202380000000000030050000000030050002000000010410403091142403677939018390309711181843067   1030000500030000   555610103975104519000003818Ocean Oattara Thiri Na PyiTaw        MMR11003091142403677930309000000000000000   10300001 00104100000000007513000000000000     
100   62911028202809060000000000050000000000050000002000000010410403090908573857552184800309000006778559   1030000200030000   333800010001203104000003327KBZPay                 Yangon        MMR11003090908573857550309000000000000000   10300001F05104100000000010500000000000000     
100   95050317084233280000000000020000000000020000002000000010410403090812044204231070560309000006778070   1030000200030000   333800010001203104000003327KBZPay                 Yangon        MMR11003090812044204230309000000000000000   10300001F05104100000000004200000000000000     
100   95050318617855880000000000000980000000000980002000000010410403091325555555732707450309000006780089   1020000200030000   333400010001204104000000281Myanmar Soft-Gate Tech Yangon        MMR11003091325555555730309000000000000000   10300001F05104100000000000206000000000000     
100   62911028202174450000000000050000000000050000002000000010410403090742103636672184800309944141421067   1030000500030000   888810111244104519000009671Max Energy CoLtd 10                  MMR11003090742103636670309000000000000000   10300001 00104100000000001500000000000000     
100   62911028202581590000000000000980000000000980002000000010410403091217314731082184800309000006779773   1020000200030000   333400010001204104000000281Myanmar Soft-Gate Tech Yangon        MMR11003091217314731080309000000000000000   10300001F05104100000000000206000000000000     
100   62911028202660870000000000001000000000001000002000000010410403090222265226232184800309000006774986   1030000200030000   333800010001203104000003327KBZPay                 Yangon        MMR11003090222265226230309000000000000000   10300001F05104100000000000210000000000000     
100   62911028202472440000000000063000000000063000002000000010410403080709310135702184800308206713013570   1030000500030000   598320001401000015172200014MAX ENERGY             PTN           MMR11003080709310135700308000000000000000   10300001 00104100000000001890000000000000     
100   95050312498129060000000000004900000000004900002000000010410403091126205620893415800309000006779483   1020000200030000   333400010001204104000000281Myanmar Soft-Gate Tech Yangon        MMR11003091126205620890309000000000000000   10300001F05104100000000001029000000000000     
100   95030321939721770000000000000980000000000980002000000010410403091139400940022184800309000006779561   1020000200030000   333400010001204104000000281Myanmar Soft-Gate Tech Yangon        MMR11003091139400940020309000000000000000   10300001F05104100000000000206000000000000     
100   95050319331516290000000000001960000000001960002000000010410403091542131213347672980309000006780622   1020000200030000   333400010001204104000000281Myanmar Soft-Gate Tech Yangon        MMR11003091542131213340309000000000000000   10300001F05104100000000000412000000000000     
100   95050318400277060000000000015000000000015000002000000010410403090952532253433418160309000006778876   1030000200030000   333800010001203104000003327KBZPay                 Yangon        MMR11003090952532253430309000000000000000   10300001F05104100000000003150000000000000     
100   95030349489765520000000000025900000000025900002000000010410403091014223337422184800309779441622067   1030000900030000   541119000121190110000000080Sein Gay Har BAK       YANGONADA     MMR11003091014223337420309000000000000000   10300001F00104100000000001554000000000000     
100   95050312845568060000000000039000000000039000002000000010410403090834473643985687630309940051518067   1030000300030000   555510111518104519000009891Unique Mobile 2                      MMR11003090834473643980309000000000000000   10300001 00104100000000009360000000000000     
100   62911028202225440000000000003200000000003200002000000010410403091010433660302184800309215441612067   1030000500030000   555610110576104519000009164City Mart China Town P int Cen       MMR11003091010433660300309000000000000000   10300001 00104100000000000192000000000000     
100   95050322654733420000000000001000000000001000002000000010410403091215014501806111350309000006779763   1030000200030000   3338000100012031040000040022C2P (Myanmar) Co. Ltd Yangon        MMR11003091215014501800309000000000000000   10300001F05104100000000000210000000000000     
100   95050313145843230000000000000980000000000980002000000010410403090510454045782234330309000006776528   1020000200030000   333400010001204104000000281Myanmar Soft-Gate Tech Yangon        MMR11003090510454045780309000000000000000   10300001F05104100000000000206000000000000     
100   95050315701710960000000000050000000000050000002000000010410403090326595659052311350309000006775601   1030000200030000   333800010001203104000003327KBZPay                 Yangon        MMR11003090326595659050309000000000000000   10300001F05104100000000010500000000000000     
100   95050313123223200000000000000980000000000980002000000010410403091313194319256182620309000006780038   1020000200030000   333400010001204104000000281Myanmar Soft-Gate Tech Yangon        MMR11003091313194319250309000000000000000   10300001F05104100000000000206000000000000     
100   95050323722449090000000000004900000000004900002000000010410403090322185218968666000309000006775553   1020000200030000   333400010001204104000000281Myanmar Soft-Gate Tech Yangon        MMR11003090322185218960309000000000000000   10300001F05104100000000001029000000000000     
100   95050325925517520000000000023000000000023000002000000010410403090250485648931254540309206809564893   1040001600030000   598320000838000000010000600Regency Petrol Station Ygn           MMR11003090250485648930309000000000000000   10300001F00104100000000002760000000000000     
