100   95050315429354870000000000015400000000015400002000000010410403090230520029696538590309000334217972   1030000300030000   591200000183000000000000090CB BANK                MEDICARE STOR MMR11003090230520029690309000000000000000   10300001F00104100000000003696000000000000     
100   62911028202684060000000000351250000000351250002000000010410403090418450004992184800309206810000499   1030000500030000   806220067201014208062200672FAME  (CLINIC)         PTN           MMR11003090418450004990309000000000000000   10300001 00104100000000021075000000000000     
100   95030320529939180000000000117000000000117000002000000010410403090422150006352184800309206810000635   1030000500030000   598320002103000015172200021MAX ENERGY             PTN           MMR11003090422150006350309000000000000000   10300001 00104100000000003510000000000000     
100   62911028202446130000000000025000000000025000002000000010410403091027210059362184800309206816005936   1030000500030000   569120104001008205691201040ESCORT ( CITY MALL-ST. PTN           MMR11003091027210059360309000000000000000   10300001 00104100000000001500000000000000     
100   62911028202162640000000000020000000000020000002000000010410403091101350021102184800309206817002110   1030000500030000   591220132901008605912201329THEIK DI WIN SHOP      PTN           MMR11003091101350021100309000000000000000   10300001 00104100000000001200000000000000     
100   95050329252108030000000000020000000000020000002000000010410403091333250098318381370309206820009831   1030000500030000   598320041902000055983200419MAX ENERGY             PTN           MMR11003091333250098310309000000000000000   10300001 00104100000000002400000000000000     
100   62911028202464440000000000114000000000114000002000000010410403090359540007742184800309206810000774   1030000500030000   591220012301014405912200123SHWE OHH PHARMACY      PTN           MMR11003090359540007740309000000000000000   10300001 00104100000000006840000000000000     
100   95030301100129110000000000006500000000006500002000000010410403090913250018672184800309206815001867   1030000500030000   503920036606000015039200366PRO-1 HOME CENTER      PTN           MMR11003090913250018670309000000000000000   10300001 00104100000000000390000000000000     
100   62911028202290100000000000030000000000030000002000000010410403090538240071042184800309206805007104   1030000600030000   554100002324315799420000481DENKO NORTH OKKALAPA   YANGON        MMR11003090538240071040309000000000000000   10300001 00104100000000000900000000000000     
100   95030390626214130000000000060360000000060360002000000010410403091036210071552184800309206810007155   1030000600030000   554100002324315799420000481DENKO NORTH OKKALAPA   YANGON        MMR11003091036210071550309000000000000000   10300001 00104100000000001811000000000000     
100   62911028202204490000000000089000000000089000002000000010410403090408100706292184800309206804070629   1030000600030000   554100000946315799420000471DENKO BAHAN            YANGON        MMR11003090408100706290309000000000000000   10300001 00104100000000002670000000000000     
100   95030308100042590000000000085000000000085000002000000010410403090913110204772184800309206815020477   1030000500030000   598320001902000015172200019MAX ENERGY             PTN           MMR11003090913110204770309000000000000000   10300001 00104100000000002550000000000000     
100   95050320531117320000000000076211000000076211002000000010410403091259430146523204270309206819014652   1030000500030000   598320002701000015172200027MAX ENERGY             PTN           MMR11003091259430146520309000000000000000   10300001 00104100000000009145000000000000     
100   95030308100042590000000000102000000000102000002000000010410403090912280204752184800309206815020475   1030000500030000   598320001902000015172200019MAX ENERGY             PTN           MMR11003090912280204750309000000000000000   10300001 00104100000000003060000000000000     
100   62443100302523870000000000038000000000038000002000000010410403090007210446151375290309206800044615   1030000600030000   554100000969315799420000481DENKO NORTH OKKALAPA   YANGON        MMR11003090007210446150309000000000000000   10300001 00104100000000004560000000000000     
100   62911028202221220000000000006000000000006000002000000010410403082307580705672184800309206823070567   1030000600030000   554100000946315799420000471DENKO BAHAN            YANGON        MMR11003082307580705670309000000000000000   10300001 00104100000000000180000000000000     
100   62911028202537390000000000040000000000040000002000000010410403091208070393092184800309206812039309   1030000600030000   554100001756315799420001137DENKO NORTH DAGON 2    YANGON        MMR11003091208070393090309000000000000000   10300001 00104100000000001200000000000000     
100   62911028202537390000000000056000000000056000002000000010410403091208250393102184800309206812039310   1030000600030000   554100001756315799420001137DENKO NORTH DAGON 2    YANGON        MMR11003091208250393100309000000000000000   10300001 00104100000000001680000000000000     
100   62911028202099390000000000034000000000034000002000000010410403091032010194712184800309206817019471   1030000500030000   598320001602000015172200016MAX ENERGY             PTN           MMR11003091032010194710309000000000000000   10300001 00104100000000001020000000000000     
100   62911028202284420000000000078100000000078100002000000010410403090649470192302184800309206813019230   1030000500030000   598320001901000015172200019MAX ENERGY             PTN           MMR11003090649470192300309000000000000000   10300001 00104100000000002343000000000000     
100   62443100369813440000000000020000000000020000002000000010410403090108500236720779620309206807023672   1030000500030000   598320001302000015172200013MAX ENERGY             PTN           MMR11003090108500236720309000000000000000   10300001 00104100000000002400000000000000     
100   62911028202221220000000000003157000000003157002000000010410403100118250005722184800310000743998130   1030000200030000   541188000966000008000004949KBZ BANK               EASY-7        MMR11003100118250005720310000000000000000   10300001 00104100000000000189000000000000     
100   62443100378297160000000000030000000000030000002000000010410403100931090109973363440310000006785473   1030000200030000   333800010001203104000003327KBZPay                 Yangon        MMR11003100931090109970310000000000000000   10300001F05104100000000006300000000000000     
100   95050321976590420000000000015000000000015000002000000010410403100332250225108447900310000006782429   1030000200030000   333800010001203104000003327KBZPay                 Yangon        MMR11003100332250225100310000000000000000   10300001F05104100000000003150000000000000     
100   95050311959900780000000000002940000000002940002000000010410403100331140114411994380310000006782415   1020000200030000   333400010001204104000000281Myanmar Soft-Gate Tech Yangon        MMR11003100331140114410310000000000000000   10300001F05104100000000000617000000000000     
100   95050318057347910000000000002940000000002940002000000010410403101132110211151024480310000006786158   1020000200030000   333400010001204104000000281Myanmar Soft-Gate Tech Yangon        MMR11003101132110211150310000000000000000   10300001F05104100000000000617000000000000     
100   62911028202537390000000000054100000000054100002000000010410403101813220056002184800310000744032665   1030000200030000   541188001315000008000000306KBZ BANK               CITY MART - S MMR11003101813220056000310000000000000000   10300001 00104100000000003246000000000000     
100   62911028202537390000000000019000000000019000002000000010410403101816210056012184800310000744032814   1030000200030000   541188001315000008000000306KBZ BANK               CITY MART - S MMR11003101816210056010310000000000000000   10300001 00104100000000001140000000000000     
100   62443100330108240000000000004900000000004900002000000010410403101330230023790513890310000006786766   1020000200030000   333400010001204104000000281Myanmar Soft-Gate Tech Yangon        MMR11003101330230023790310000000000000000   10300001F05104100000000001029000000000000     
100   62911028202161240000000000017424000000017424002000000010410403101044380056032184800310000744005098   1030000200030000   541188001023000008000000298KBZ BANK               CITY MART - M MMR11003101044380056030310000000000000000   10300001 00104100000000001045000000000000     
100   62443101001072630000000000005600000000005600002000000010410403101542390037540228670310000744024599   1030000200030000   541188001369000008000000395KBZ BANK               OCEAN SUPERMA MMR11003101542390037540310000000000000000   10300001 00104100000000001400000000000000     
100   62911028202443730000000000019100000000019100002000000010410403101140440039042184800310000744009259   1030000200030000   541188001021000008000000298KBZ BANK               CITY MART - M MMR11003101140440039040310000000000000000   10300001 00104100000000001146000000000000     
100   95050325455962190000000000100000000000100000002000000010410403100701353135762937960310000006784339   1030000200030000   333800010001203104000003327KBZPay                 Yangon        MMR11003100701353135760310000000000000000   10300001F05104100000000021000000000000000     
100   62911028202446700000000000100000000000100000002000000010410403100248031803642184800310000006781911   1030000500030000   333800010001201104000003863AYA Pay                Yangon        MMR11003100248031803640310000000000000000   10300001F05104100000000021000000000000000     
100   95050311419479170000000000001960000000001960002000000010410403100436420642284357020310000006783079   1020000200030000   333400010001204104000000281Myanmar Soft-Gate Tech Yangon        MMR11003100436420642280310000000000000000   10300001F05104100000000000412000000000000     
100   62443100301716860000000000001960000000001960002000000010410403100648301830932682670310000006784230   1020000200030000   333400010001204104000000281Myanmar Soft-Gate Tech Yangon        MMR11003100648301830930310000000000000000   10300001F05104100000000000412000000000000     
100   95050311931431670000000000004900000000004900002000000010410403100735230523582172090310000006784607   1020000200030000   333400010001204104000000281Myanmar Soft-Gate Tech Yangon        MMR11003100735230523580310000000000000000   10300001F05104100000000001029000000000000     
100   62911028202446700000000000100000000000100000002000000010410403100239450945152184800310000006781802   1030000500030000   333800010001201104000003863AYA Pay                Yangon        MMR11003100239450945150310000000000000000   10300001F05104100000000021000000000000000     
100   95050316208229120000000000008200000000008200002000000010410403100436583474304697410310816061158068   1030000900030000   541119000113190110000000077Sein Gay Har Chinatown YANGON        MMR11003100436583474300310000000000000000   10300001F00104100000000002050000000000000     
100   95050312926040930000000000005000000000005000002000000010410403101041261126833357730310000006785931   1030000200030000   333800010001203104000003327KBZPay                 Yangon        MMR11003101041261126830310000000000000000   10300001F05104100000000001050000000000000     
100   95050312947607030000000000025000000000025000002000000010410403100846571657322817210310000006785143   1030000200030000   333800010001203104000003327KBZPay                 Yangon        MMR11003100846571657320310000000000000000   10300001F05104100000000005250000000000000     
100   62911028202809060000000000100000000000100000002000000010410403100333070307912184800310000006782442   1030000200030000   333800010001203104000003327KBZPay                 Yangon        MMR11003100333070307910310000000000000000   10300001F05104100000000021000000000000000     
100   95050318741700180000000000000980000000000980002000000010410403101448101810880684090310000006787142   1020000200030000   333400010001204104000000281Myanmar Soft-Gate Tech Yangon        MMR11003101448101810880310000000000000000   10300001F05104100000000000206000000000000     
100   95030321939721770000000000000980000000000980002000000010410403101355022502202184800310000006786888   1020000200030000   333400010001204104000000281Myanmar Soft-Gate Tech Yangon        MMR11003101355022502200310000000000000000   10300001F05104100000000000206000000000000     
100   95050317823045920000000000040000000000040000002000000010410403100737190719383739480310000006784621   1030000200030000   333800010001203104000003327KBZPay                 Yangon        MMR11003100737190719380310000000000000000   10300001F05104100000000008400000000000000     
100   95050314567755980000000000001960000000001960002000000010410403100143191319975612170310000006781419   1020000200030000   333400010001204104000000281Myanmar Soft-Gate Tech Yangon        MMR11003100143191319970310000000000000000   10300001F05104100000000000412000000000000     
100   95050312498129060000000000000980000000000980002000000010410403100048121812644761210310000006781226   1020000200030000   333400010001204104000000281Myanmar Soft-Gate Tech Yangon        MMR11003100048121812640310000000000000000   10300001F05104100000000000206000000000000     
100   62911028202750390000000000000980000000000980002000000010410403100201213121492184800310000006781543   1020000200030000   333400010001204104000000281Myanmar Soft-Gate Tech Yangon        MMR11003100201213121490310000000000000000   10300001F05104100000000000206000000000000     
100   95050314401921990000000000000980000000000980002000000010410403091756262626014623360310000006780899   1020000200030000   333400010001204104000000281Myanmar Soft-Gate Tech Yangon        MMR11003091756262626010310000000000000000   10300001F05104100000000000206000000000000     
100   95050325455962190000000000001960000000001960002000000010410403101037200720195095310310000006785911   1020000200030000   333400010001204104000000281Myanmar Soft-Gate Tech Yangon        MMR11003101037200720190310000000000000000   10300001F05104100000000000412000000000000     
100   95050323133124350000000000002940000000002940002000000010410403100242561256982776440310000006781838   1020000200030000   333400010001204104000000281Myanmar Soft-Gate Tech Yangon        MMR11003100242561256980310000000000000000   10300001F05104100000000000617000000000000     
100   95050314401921990000000000000980000000000980002000000010410403091703013301998098490310000006780823   1020000200030000   333400010001204104000000281Myanmar Soft-Gate Tech Yangon        MMR11003091703013301990310000000000000000   10300001F05104100000000000206000000000000     
100   95050312641885210000000000005000000000005000002000000010410403101137030703065981930310000006786175   1030000200030000   333800010001203104000003327KBZPay                 Yangon        MMR11003101137030703060310000000000000000   10300001F05104100000000001050000000000000     
100   95050317071956460000000000000980000000000980002000000010410403101439180918602336570310000006787103   1020000200030000   333400010001204104000000281Myanmar Soft-Gate Tech Yangon        MMR11003101439180918600310000000000000000   10300001F05104100000000000206000000000000     
100   62911028202489110000000000305900000000305900002000000010410403100417243469252184800310516471024068   1030000900030000   541119001239190110000000953Marketplace KTYCity Ca YANGONARTAUNG MMR11003100417243469250310000000000000000   10300001F00104100000000018354000000000000     
100   95030399304534290000000000007500000000007500002000000010410403100337493459582184800310955071049068   1030000900030000   541119001208190110000000948City Mart YK C 6       YANGONAUNG    MMR11003100337493459580310000000000000000   10300001F00104100000000000450000000000000     
100   95050316311487940000000000021300000000021300002000000010410403100747493521611321130310571171449068   1030000900030000   541119001363190110000000977Ocean PZD C17          YANGONAUNG    MMR11003100747493521610310000000000000000   10300001F00104100000000005325000000000000     
100   62911028202154800000000000043200000000043200002000000010410403100653383507722184800310719231338068   1030000900030000   571219001537190110000001113Pro 1 Plus Store-2     YANGONADON    MMR11003100653383507720310000000000000000   10300001F00104100000000002592000000000000     
100   95030349489765520000000000015000000000015000002000000010410403100944301430082184800310000006785571   1030000200030000   333800010001203104000003327KBZPay                 Yangon        MMR11003100944301430080310000000000000000   10300001F05104100000000003150000000000000     
100   62911028202690080000000000012300000000012300002000000010410403100411373467802184800310425411037068   1030000900030000   541119001076190110000000872Sein Gay Har Hledan    YANGONUT      MMR11003100411373467800310000000000000000   10300001F00104100000000000738000000000000     
100   95050317997326290000000000040100000000040100002000000010410403100735313518430434520310372051431068   1030000900030000   599919001065190110000000251Pro (1) Global (MawlaM MONLAMYAING   MMR11003100735313518430310000000000000000   10300001F00104100000000009624000000000000     
100   95050312498129060000000000000980000000000980002000000010410403101333190319378776310310000006786779   1020000200030000   333400010001204104000000281Myanmar Soft-Gate Tech Yangon        MMR11003101333190319370310000000000000000   10300001F05104100000000000206000000000000     
100   95050321057500320000000000004900000000004900002000000010410403100435180518212704540310000006783065   1020000200030000   333400010001204104000000281Myanmar Soft-Gate Tech Yangon        MMR11003100435180518210310000000000000000   10300001F05104100000000001029000000000000     
100   95050318617855880000000000000980000000000980002000000010410403101335190519840428800310000006786786   1020000200030000   333400010001204104000000281Myanmar Soft-Gate Tech Yangon        MMR11003101335190519840310000000000000000   10300001F05104100000000000206000000000000     
100   95050315889680120000000000001000000000001000002000000010410403101141141114175896830310000006786188   1030000200030000   333800010001203104000003327KBZPay                 Yangon        MMR11003101141141114170310000000000000000   10300001F05104100000000000210000000000000     
100   62911028202443730000000000015500000000015500002000000010410403101139400293152184800310000744009167   1030000200030000   541188001024000008000000298KBZ BANK               CITY MART - M MMR11003101139400293150310000000000000000   10300001 00104100000000000930000000000000     
100   95030301100127050000000000010450000000010450002000000010410403100748573521882184800310583181457068   1030000900030000   541119001363190110000000977Ocean PZD C17          YANGONAUNG    MMR11003100748573521880310000000000000000   10300001F00104100000000000627000000000000     
100   62911028202003590000000000034000000000034000002000000010410403101104083575452184800310987341708068   1030000900030000   541119000139190110000000083SeinGayHarParami Cente YANGON        MMR11003101104083575450310000000000000000   10300001F00104100000000002040000000000000     
100   95050319156544340000000000002600000000002600002000000010410403100048223712306959910310865200743068   1030000300030000   555610125205104519000021068Capital Supermarket 2  Dagon         MMR11003100048223712300310000000000000000   10300001 00104100000000000650000000000000     
100   62911028202105070000000000051450000000051450002000000010410403100625033749812184800310526121339068   1030000500030000   555610112250104519000010487Ocean Super Center St  ohn           MMR11003100625033749810310000000000000000   10300001 00104100000000003087000000000000     
100   62911028202217690000000000007200000000007200002000000010410403100932423776592184800310286061657068   1030000500030000   555610110572104519000009164City Mart China Town P int Cen       MMR11003100932423776590310000000000000000   10300001 00104100000000000432000000000000     
100   95050326094581320000000000028000000000028000002000000010410403101109323576957719510310071391732068   1030000900030000   569119001499190110000001093Next Generation GCS TM YANGONADON    MMR11003101109323576950310000000000000000   10300001F00104100000000006720000000000000     
100   62911028202105070000000000050000000000050000002000000010410403100131423714132184800310998000822068   1030000300030000   888810125940104519000021285Shwe Taung Energy CoLt               MMR11003100131423714130310000000000000000   10300001 00104100000000001500000000000000     
100   95030320108927800000000000066585000000066585002000000010410403101212513593612184800310203421851068   1030000900030000   581319001043190110000000847Transporter Bar-1      YANGONOKKALAP MMR11003101212513593610310000000000000000   10300001F00104100000000006792000000000000     
100   62911028202207380000000000004100000000004100002000000010410403100546523741962184800310507171206068   1030000500030000   555610110572104519000009164City Mart China Town P int Cen       MMR11003100546523741960310000000000000000   10300001 00104100000000000246000000000000     
100   62911028202105070000000000032800000000032800002000000010410403100657153751972184800310841251349068   1030000500030000   555610112249104519000010487Ocean Super Center St  ohn           MMR11003100657153751970310000000000000000   10300001 00104100000000001968000000000000     
100   62911028202105070000000000051800000000051800002000000010410403100627523750292184800310608151349068   1030000500030000   555610112250104519000010487Ocean Super Center St  ohn           MMR11003100627523750290310000000000000000   10300001 00104100000000003108000000000000     
100   95050318041680090000000000005000000000005000002000000010410403101306353635497294020310000006786627   1030000200030000   333800010001203104000003327KBZPay                 Yangon        MMR11003101306353635490310000000000000000   10300001F05104100000000001050000000000000     
100   95050326094581320000000000021832000000021832002000000010410403101153173588879627280310886231817068   1030000900030000   541119001512190110000001102Ocean MGDTM C-5        YANGONADON    MMR11003101153173588870310000000000000000   10300001F00104100000000005458000000000000     
100   95050312498129060000000000000980000000000980002000000010410403100407013701444406470310000006782780   1020000200030000   333400010001204104000000281Myanmar Soft-Gate Tech Yangon        MMR11003100407013701440310000000000000000   10300001F05104100000000000206000000000000     
100   95050326094581320000000000024000000000024000002000000010410403101056083573008315180310818261708068   1030000900030000   569119001499190110000001093Next Generation GCS TM YANGONADON    MMR11003101056083573000310000000000000000   10300001F00104100000000005760000000000000     
100   62911028202133520000000000007085000000007085002000000010410403101152023588522184800310861221802068   1030000900030000   541119001191190110000000942City Mart HDC C 6      YANGONUT      MMR11003101152023588520310000000000000000   10300001F00104100000000000425000000000000     
100   62443101061229100000000000019570000000019570002000000010410403101056393573126577600310825261739068   1030000900030000   701119000065190110000000024Lotte Hotel            YANGON        MMR11003101056393573120310000000000000000   10300001F00104100000000008318000000000000     
100   95050314557307430000000000001960000000001960002000000010410403101506473647460442590310000006787247   1020000200030000   333400010001204104000000281Myanmar Soft-Gate Tech Yangon        MMR11003101506473647460310000000000000000   10300001F05104100000000000412000000000000     
100   62911028202482750000000000040300000000040300002000000010410403101134573584132184800310562041857068   1030000900030000   541119000113190110000000077Sein Gay Har Chinatown YANGON        MMR11003101134573584130310000000000000000   10300001F00104100000000002418000000000000     
100   62911028202827530000000000056800000000056800002000000010410403101042133787852184800310873101733068   1030000300030000   555610103621104519000003559Capital Hypermarket Da bon           MMR11003101042133787850310000000000000000   10300001 00104100000000003408000000000000     
100   95050315259054570000000000000980000000000980002000000010410403100914424442796838600310000006785350   1020000200030000   333400010001204104000000281Myanmar Soft-Gate Tech Yangon        MMR11003100914424442790310000000000000000   10300001F05104100000000000206000000000000     
100   95030301100351360000000000010000000000010000002000000010410403101256072607012184800310000006786551   1030000200030000   333800010001203104000003327KBZPay                 Yangon        MMR11003101256072607010310000000000000000   10300001F05104100000000002100000000000000     
100   95030301100216560000000000000980000000000980002000000010410403101109203920342184800310000006786061   1020000200030000   333400010001204104000000281Myanmar Soft-Gate Tech Yangon        MMR11003101109203920340310000000000000000   10300001F05104100000000000206000000000000     
100   95050316067768680000000000001960000000001960002000000010410403101417394739637379120310000006786978   1020000200030000   333400010001204104000000281Myanmar Soft-Gate Tech Yangon        MMR11003101417394739630310000000000000000   10300001F05104100000000000412000000000000     
100   62911028202295310000000000005400000000005400002000000010410403101114033794402184800310761451729068   1030000500030000   555610112243104519000010487Ocean Super Center St  ohn           MMR11003101114033794400310000000000000000   10300001 00104100000000000324000000000000     
100   95050313123223200000000000000980000000000980002000000010410403101412324232135726630310000006786948   1020000200030000   333400010001204104000000281Myanmar Soft-Gate Tech Yangon        MMR11003101412324232130310000000000000000   10300001F05104100000000000206000000000000     
100   95050315122972560000000000000980000000000980002000000010410403100914094409848491080310000006785335   1020000200030000   333400010001204104000000281Myanmar Soft-Gate Tech Yangon        MMR11003100914094409840310000000000000000   10300001F05104100000000000206000000000000     
100   95050316818236190000000000002940000000002940002000000010410403100322495249023625040310000006782310   1020000200030000   333400010001204104000000281Myanmar Soft-Gate Tech Yangon        MMR11003100322495249020310000000000000000   10300001F05104100000000000617000000000000     
100   62911028202610540000000000015000000000015000002000000010410403100737446424382184800310206914642438   1040001600030000   598320000658000000010000527Shwe Taung Energy (YGN Yangon        MMR11003100737446424380310000000000000000   10300001F00104100000000000450000000000000     
100   95050312618592720000000000030000000000030000002000000010410403100910134013758150700310000006785312   1030000200030000   333800010001203104000003327KBZPay                 Yangon        MMR11003100910134013750310000000000000000   10300001F05104100000000006300000000000000     
100   95050315424817550000000000001960000000001960002000000010410403100724555455307469930310000006784531   1020000200030000   333400010001204104000000281Myanmar Soft-Gate Tech Yangon        MMR11003100724555455300310000000000000000   10300001F05104100000000000412000000000000     
100   95050314190972620000000000070500000000070500002000000010410403100424575457275122890310000006782970   1030000200030000   333800010001203104000003327KBZPay                 Yangon        MMR11003100424575457270310000000000000000   10300001F05104100000000014805000000000000     
100   95050312937155340000000000004400000000004400002000000010410403100338386303037314100310206910630303   1040001600030000   591220000291000000010000279Shwe Ohh Pharmacy (Sou Yangon        MMR11003100338386303030310000000000000000   10300001F00104100000000001056000000000000     
100   62911028202465680000000000015000000000015000002000000010410403100641356399162184800310206913639916   1040001600030000   598320000658000000010000527Shwe Taung Energy (YGN Yangon        MMR11003100641356399160310000000000000000   10300001F00104100000000000450000000000000     
100   62911028202304060000000000029000000000029000002000000010410403100622295229012184800310000006784034   1030000200030000   333800010001203104000003327KBZPay                 Yangon        MMR11003100622295229010310000000000000000   10300001F05104100000000006090000000000000     
100   62911028202528550000000000057400000000057400002000000010410403100932446479392184800310206916647939   1040001600030000   541120000555000000010000465Ocean Shwe Gone Daing  Yangon        MMR11003100932446479390310000000000000000   10300001F00104100000000003444000000000000     
100   62911028202295310000000000034250000000034250002000000010410403101100093792752184800310536371709068   1030000500030000   555610112252104519000010487Ocean Super Center St  ohn           MMR11003101100093792750310000000000000000   10300001 00104100000000002055000000000000     
100   95050314567755980000000000009300000000009300002000000010410403100821295129689937730310000006784947   1030000200030000   333800010001203104000003327KBZPay                 Yangon        MMR11003100821295129680310000000000000000   10300001F05104100000000001953000000000000     
100   62911028202416760000000000036000000000036000002000000010410403080410440075742184800308206704007574   1030000600030000   554100002320315799420000564DENKO PHYUU            PHYUU         MMR11003080410440075740308000000000000000   10300001 00104100000000001080000000000000     
100   62911028202663430000000000075000000000075000002000000010410403080158350335112184800308206701033511   1030000600030000   554100001106315799420000564DENKO PHYUU            PHYUU         MMR11003080158350335110308000000000000000   10300001 00104100000000002250000000000000     
100   95030301100126550000000000030000000000030000002000000010410403081148300445982184800308206711044598   1030000600030000   554100000969315799420000481DENKO NORTH OKKALAPA   YANGON        MMR11003081148300445980308000000000000000   10300001 00104100000000000900000000000000     
100   95030305700676370000000000120000000000120000002000000010410403081219280150952184800308206712015095   1030000600030000   554100001212315799420000664DENKO TA TAR OO        TA TAR OO     MMR11003081219280150950308000000000000000   10300001 00104100000000003600000000000000     
100   95050318621775380000000000005000000000005000002000000010410403100030440044227810920310000006781188   1030000200030000   3338000100012031040000040022C2P (Myanmar) Co. Ltd Yangon        MMR11003100030440044220310000000000000000   10300001F05104100000000001050000000000000     
100   62911028202312890000000000045000000000045000002000000010410403090602110142672184800309206812014267   1030000500030000   598320002001000015172200020MAX ENERGY             PTN           MMR11003090602110142670309000000000000000   10300001 00104100000000001350000000000000     
100   95050314557307430000000000002940000000002940002000000010410403100659522952629632990310000006784329   1020000200030000   333400010001204104000000281Myanmar Soft-Gate Tech Yangon        MMR11003100659522952620310000000000000000   10300001F05104100000000000617000000000000     
100   95050310676042860000000000005000000000005000002000000010410403101221525152742932240310000006786382   1030000900030000   333400010001202104000002022ACS                    Yangon        MMR11003101221525152740310000000000000000   10300001F05104100000000001050000000000000     
100   95030301100128610000000000050000000000050000002000000010410403101521155115632184800310000006787297   1030000200030000   333800010001203104000003327KBZPay                 Yangon        MMR11003101521155115630310000000000000000   10300001F05104100000000010500000000000000     
100   62911028202537390000000000061450000000061450002000000010410403100658476408502184800310206913640850   1040001600030000   591220000284000000010000272Shwe Ohh Pharmacy (San Yangon        MMR11003100658476408500310000000000000000   10300001F00104100000000003687000000000000     
100   62911028202221220000000000009750000000009750002000000010410403091021370001732184800309206816000173   1030000500030000   541120182201000045411201822EASY MART-005          PTN           MMR11003091021370001730309000000000000000   10300001 00104100000000000585000000000000     
100   62911028202446540000000000022798000000022798002000000010410403101154223800922184800310669251824068   1030000500030000   555610112241104519000010487Ocean Super Center St  ohn           MMR11003101154223800920310000000000000000   10300001 00104100000000001368000000000000     
100   95050315005801680000000000002940000000002940002000000010410403101617474747397137620310000006787493   1020000200030000   333400010001204104000000281Myanmar Soft-Gate Tech Yangon        MMR11003101617474747390310000000000000000   10300001F05104100000000000617000000000000     
100   95030301100341540000000000020000000000020000002000000010410403100219434943212184800310000006781665   1030000200030000   333800010001203104000003327KBZPay                 Yangon        MMR11003100219434943210310000000000000000   10300001F05104100000000004200000000000000     
100   62911028202788350000000000010000000000010000002000000010410403100816194619332184800310000006784907   1030000200030000   333800010001203104000003327KBZPay                 Yangon        MMR11003100816194619330310000000000000000   10300001F05104100000000002100000000000000     
100   62443100345308040000000000005000000000005000002000000010410403101456022602798790100310000006787178   1030000900030000   333400010001202104000002022ACS                    Yangon        MMR11003101456022602790310000000000000000   10300001F05104100000000001050000000000000     
100   62911028202610960000000000050010000000050010002000000010410403090633070035862184800309206806003586   1030000600030000   554100001268315799420000722DENKO KYAUK SE         KYAUK SE      MMR11003090633070035860309000000000000000   10300001 00104100000000001500000000000000     
100   95050325784857510000000000013000000000013000002000000010410403090812240018709332980309206814001870   1030000500030000   481220074501000014812200745TECHNOLAND (36TH ST)   PTN           MMR11003090812240018700309000000000000000   10300001 00104100000000003120000000000000     
100   62911028202498440000000000061000000000061000002000000010410403090852110137802184800309206815013780   1030000500030000   598320001401000015172200014MAX ENERGY             PTN           MMR11003090852110137800309000000000000000   10300001 00104100000000001830000000000000     
100   95050314950595330000000000006000000000006000002000000010410403100401363136714151180310000006782719   1030000200030000   3338000100012031040000040022C2P (Myanmar) Co. Ltd Yangon        MMR11003100401363136710310000000000000000   10300001F05104100000000001260000000000000     
100   95050313145843230000000000151000000000151000002000000010410403101028105810763017340310000006785862   1030000200030000   333800010001203104000003327KBZPay                 Yangon        MMR11003101028105810760310000000000000000   10300001F05104100000000031710000000000000     
100   95030301100127050000000000085000000000085000002000000010410403090137340556422184800309206801055642   1030000600030000   554100000952315799420000474DENKO N.DAGON - 1      YANGON        MMR11003090137340556420309000000000000000   10300001 00104100000000002550000000000000     
100   95050317492158990000000000012328000000012328002000000010410403101104440034994442120310000744006444   1030000200030000   541188001424000008000000401KBZ BANK               OCEAN SUPERCE MMR11003101104440034990310000000000000000   10300001 00104100000000003082000000000000     
100   95050312360118350000000000009000000000009000002000000010410403100520565056346824820310000006783528   1030000200030000   333800010001203104000003327KBZPay                 Yangon        MMR11003100520565056340310000000000000000   10300001F05104100000000001890000000000000     
100   95050318741700180000000000000980000000000980002000000010410403101443471347933989060310000006787119   1020000200030000   333400010001204104000000281Myanmar Soft-Gate Tech Yangon        MMR11003101443471347930310000000000000000   10300001F05104100000000000206000000000000     
100   95050324154190880000000000003145000000003145002000000010410403101305053809525556440310908351929068   1030000300030000   555510125332104519000021173One Stop Mart Shopping all0003       MMR11003101305053809520310000000000000000   10300001 00104100000000000755000000000000     
100   95050311619387960000000000030000000000030000002000000010410403100420305030859825050310000006782908   1030000200030000   333800010001203104000003327KBZPay                 Yangon        MMR11003100420305030850310000000000000000   10300001F05104100000000006300000000000000     
100   95050312498129060000000000001960000000001960002000000010410403101244191419382847150310000006786495   1020000200030000   333400010001204104000000281Myanmar Soft-Gate Tech Yangon        MMR11003101244191419380310000000000000000   10300001F05104100000000000412000000000000     
100   95030394609966640000000000006700000000006700002000000010410403100949346488432184800310206916648843   1040001600030000   591220000303000000010000291Shwe Ohh Pharmacy (Kyu Yangon        MMR11003100949346488430310000000000000000   10300001F00104100000000000402000000000000     
100   95050314950595330000000000001000000000001000002000000010410403100418144814746605180310000006782884   1030000200030000   3338000100012031040000040022C2P (Myanmar) Co. Ltd Yangon        MMR11003100418144814740310000000000000000   10300001F05104100000000000210000000000000     
100   95050313145843230000000000000980000000000980002000000010410403100322535253244050500310000006782318   1020000200030000   333400010001204104000000281Myanmar Soft-Gate Tech Yangon        MMR11003100322535253240310000000000000000   10300001F05104100000000000206000000000000     
100   95030301100127050000000000030100000000030100002000000010410403100802013525422184800310815321401068   1030000900030000   541119001364190110000000977Ocean PZD C18          YANGONAUNG    MMR11003100802013525420310000000000000000   10300001F00104100000000001806000000000000     
100   62911028202199870000000000071100000000071100002000000010410403100252466284982184800310206909628498   1040001600030000   591220000277000000010000265Shwe Ohh Pharmacy (Thu Yangon        MMR11003100252466284980310000000000000000   10300001F00104100000000004266000000000000     
100   95030301100129110000000000212500000000212500002000000010410403090912000018662184800309206815001866   1030000500030000   503920036606000015039200366PRO-1 HOME CENTER      PTN           MMR11003090912000018660309000000000000000   10300001 00104100000000012750000000000000     
100   62911028202296630000000000058258000000058258002000000010410403091305370194682184800309206819019468   1030000500030000   598320001601000015172200016MAX ENERGY             PTN           MMR11003091305370194680309000000000000000   10300001 00104100000000001748000000000000     
100   95050316377977350000000000004000000000004000002000000010410403100926425642691710960310000006785446   1030000200030000   3338000100012031040000040022C2P (Myanmar) Co. Ltd Yangon        MMR11003100926425642690310000000000000000   10300001F05104100000000000840000000000000     
100   62911028202708080000000000051450000000051450002000000010410403090833400016362184800309206815001636   1030000500030000   531120155802000045311201558GAMONE PWINT           PTN           MMR11003090833400016360309000000000000000   10300001 00104100000000003087000000000000     
100   95050325784857510000000000004550000000004550002000000010410403100834053534014129310310350041505068   1030000900030000   541119001206190110000000948City Mart YK C 4       YANGONAUNG    MMR11003100834053534010310000000000000000   10300001F00104100000000001138000000000000     
100   95050311931431670000000000004900000000004900002000000010410403100737070707005477060310000006784617   1020000200030000   333400010001204104000000281Myanmar Soft-Gate Tech Yangon        MMR11003100737070707000310000000000000000   10300001F05104100000000001029000000000000     
100   95050311959900780000000000000980000000000980002000000010410403100512064206534115520310000006783442   1020000200030000   333400010001204104000000281Myanmar Soft-Gate Tech Yangon        MMR11003100512064206530310000000000000000   10300001F05104100000000000206000000000000     
100   62443100318296470000000000216900000000216900002000000010410403101025296512583102440310206917651258   1040001600030000   598320000658000000010000527Shwe Taung Energy (YGN Yangon        MMR11003101025296512580310000000000000000   10300001F00104100000000026028000000000000     
100   95050318741700180000000000000980000000000980002000000010410403101445311531219031600310000006787127   1020000200030000   333400010001204104000000281Myanmar Soft-Gate Tech Yangon        MMR11003101445311531210310000000000000000   10300001F05104100000000000206000000000000     
100   95050314292165140000000000028000000000028000002000000010410403100512084208262377940310000006783439   1030000200030000   3338000100012031040000040022C2P (Myanmar) Co. Ltd Yangon        MMR11003100512084208260310000000000000000   10300001F05104100000000005880000000000000     
100   62911028202788350000000000010000000000010000002000000010410403100917314731322184800310000006785367   1030000200030000   333800010001203104000003327KBZPay                 Yangon        MMR11003100917314731320310000000000000000   10300001F05104100000000002100000000000000     
100   62911028202610540000000000015000000000015000002000000010410403100736486423932184800310206914642393   1040001600030000   598320000658000000010000527Shwe Taung Energy (YGN Yangon        MMR11003100736486423930310000000000000000   10300001F00104100000000000450000000000000     
100   95050315005801680000000000000980000000000980002000000010410403101016044604148144990310000006785777   1020000200030000   333400010001204104000000281Myanmar Soft-Gate Tech Yangon        MMR11003101016044604140310000000000000000   10300001F05104100000000000206000000000000     
100   62911028202400660000000000013550000000013550002000000010410403100701003752832184800310948291313068   1030000500030000   555610112231104519000010487Ocean Super Center St  ohn           MMR11003100701003752830310000000000000000   10300001 00104100000000000813000000000000     
100   95050328137327770000000000050000000000050000002000000010410403100707583758730689800310000006784388   1030000200030000   333800010001203104000003327KBZPay                 Yangon        MMR11003100707583758730310000000000000000   10300001F05104100000000010500000000000000     
100   62443101001072630000000000053000000000053000002000000010410403101539110051361540770310000744024397   1030000200030000   541188001366000008000000395KBZ BANK               OCEAN SUPERMA MMR11003101539110051360310000000000000000   10300001 00104100000000013250000000000000     
100   95030320108927800000000000135000000000135000002000000010410403090345510001042184800309206803000104   1030000600030000   581300002341315799420001626HTUNHTUNOOLIQUOR PARA  YANGON        MMR11003090345510001040309000000000000000   10300001 00104100000000013770000000000000     
100   95050321232876860000000000091000000000091000002000000010410403090215100065613659100309206802006561   1030000600030000   554100002328315799420001235DENKO NAY PYI TAW 2    NAYPYITAW     MMR11003090215100065610309000000000000000   10300001 00104100000000010920000000000000     
100   62911028202169750000000000046002000000046002002000000010410403090639220001602184800309206813000160   1030000500030000   598320002101000015172200021MAX ENERGY             PTN           MMR11003090639220001600309000000000000000   10300001 00104100000000001380000000000000     
100   62911028202169750000000000029000000000029000002000000010410403090139570039732184800309206808003973   1030000500030000   598320002104000015172200021MAX ENERGY             PTN           MMR11003090139570039730309000000000000000   10300001 00104100000000000870000000000000     
100   62443100300743690000000000002750000000002750002000000010410403091405560006751431030309000334305512   1030000300030000   541100000444000000000000319CB BANK                ONESTOP KITCH MMR11003091405560006750309000000000000000   10300001F00104100000000000688000000000000     
