100   95050328074436620000000000050000000000050000002000000010410403120647420226608174700312207113022660   1030000500030000   598320001201000015172200012MAX ENERGY             PTN           MMR11003120647420226600312000000000000000   10300001 00104100000000006000000000000000     
100   62911028202440680000000000048563000000048563002000000010410403120950580227202184800312207116022720   1030000500030000   598320001201000015172200012MAX ENERGY             PTN           MMR11003120950580227200312000000000000000   10300001 00104100000000001457000000000000     
100   95050325925517520000000000036000000000036000002000000010410403120331010198514735190312207110019851   1030000500030000   598320001602000015172200016MAX ENERGY             PTN           MMR11003120331010198510312000000000000000   10300001 00104100000000004320000000000000     
100   95030317922148660000000000043000000000043000002000000010410403121125020245402184800312207117024540   1030000500030000   598320001302000015172200013MAX ENERGY             PTN           MMR11003121125020245400312000000000000000   10300001 00104100000000001290000000000000     
100   95050326228858240000000000025000000000025000002000000010410403130923030003579700720313000744159602   1030000200030000   599981230820000008000000766KBZ BANK               PRO 1 GLOBAL  MMR11003130923030003570313000000000000000   10300001 00104100000000006000000000000000     
100   95050326228858240000000000040600000000040600002000000010410403130917010003564317790313000744159314   1030000200030000   599981230820000008000000766KBZ BANK               PRO 1 GLOBAL  MMR11003130917010003560313000000000000000   10300001 00104100000000009744000000000000     
100   95050328035424750000000000090800000000090800002000000010410403130509400032553862360313207211003255   1020000200030000   541100255008300115411000025MWD BANK               YGN           MMR11003130509400032550313000000000000000   10300001 00104100000000022700000000000000     
100   62911028202870910000000000010800000000010800002000000010410403131403000014042184800313000744154382   1030000200030000   541188001354000008000000395KBZ BANK               OCEAN SUPERMA MMR11003131403000014040313000000000000000   10300001 00104100000000000648000000000000     
100   62911028202400660000000000093600000000093600002000000010410403120752460023482184800312207114002348   1030000500030000   569120058001019505691200580MK FASHION SHOP        PTN           MMR11003120752460023480312000000000000000   10300001 00104100000000005616000000000000     
100   95030399304534290000000000003850000000003850002000000010410403130150264096292184800313268450813071   1030000500030000   555610112649104519000010844City Express MCS 20                  MMR11003130150264096290313000000000000000   10300001 00104100000000000231000000000000     
100   95050310427855490000000000000980000000000980002000000010410403131429155915263140230313000006801706   1020000200030000   333400010001204104000000281Myanmar Soft-Gate Tech Yangon        MMR11003131429155915260313000000000000000   10300001F05104100000000000206000000000000     
100   62911028202045260000000000009400000000009400002000000010410403121050170008482184800312207117000848   1030000500030000   591220012301014405912200123SHWE OHH PHARMACY      PTN           MMR11003121050170008480312000000000000000   10300001 00104100000000000564000000000000     
100   62911028202529960000000000014350000000014350002000000010410403121306080000472184800312207119000047   1030000500030000   541120182901000045411201829EASY MART-012          PTN           MMR11003121306080000470312000000000000000   10300001 00104100000000000861000000000000     
100   95050313702988830000000000002940000000002940002000000010410403131323235323112970030313000006801454   1020000200030000   333400010001204104000000281Myanmar Soft-Gate Tech Yangon        MMR11003131323235323110313000000000000000   10300001F05104100000000000617000000000000     
100   95050314401921990000000000000980000000000980002000000010410403131526435643134707620313000006801846   1020000200030000   333400010001204104000000281Myanmar Soft-Gate Tech Yangon        MMR11003131526435643130313000000000000000   10300001F05104100000000000206000000000000     
100   95030301100425380000000000011650000000011650002000000010410403130417158280812184800313207211828081   1040001600030000   541120000202000000010000190abc Store Outlet - 58  Yangon        MMR11003130417158280810313000000000000000   10300001F00104100000000000699000000000000     
100   62443100323891610000000000040550000000040550002000000010410403131258490014447587100313000744151584   1030000200030000   541188001360000008000000395KBZ BANK               OCEAN SUPERMA MMR11003131258490014440313000000000000000   10300001 00104100000000010138000000000000     
100   62911028202663430000000000001100000000001100002000000010410403130958170100602184800313000744143163   1030000200030000   541188001047000008000000010KBZ BANK               MARKETPLACE - MMR11003130958170100600313000000000000000   10300001 00104100000000000066000000000000     
100   62443100315853220000000000038528000000038528002000000010410403131135180020279415490313000744147434   1030000200030000   541188001482000008000000399KBZ BANK               OCEAN SUPERCE MMR11003131135180020270313000000000000000   10300001 00104100000000009632000000000000     
100   95050326593223450000000000047200000000047200002000000010410403131059530107812550270313000744145632   1030000200030000   541188001129000008000000296KBZ BANK               CITY MART - J MMR11003131059530107810313000000000000000   10300001 00104100000000011800000000000000     
100   62911028202136750000000000004300000000004300002000000010410403131243420083292184800313000744150908   1030000200030000   541188001088000008000000294KBZ BANK               CITY MART - J MMR11003131243420083290313000000000000000   10300001 00104100000000000258000000000000     
100   62911028202296630000000000007900000000007900002000000010410403131313220014612184800313000744169473   1030000200030000   541188000976000008000004913KBZ BANK               EASY-17       MMR11003131313220014610313000000000000000   10300001 00104100000000000474000000000000     
100   62443100390038980000000000019000000000019000002000000010410403131319290049587161620313000744152495   1030000200030000   541188001016000008000000008KBZ BANK               MARKETPLACE - MMR11003131319290049580313000000000000000   10300001 00104100000000004750000000000000     
100   95030302100062270000000000021100000000021100002000000010410403131858270059392184800313000744168372   1030000200030000   541188001023000008000000298KBZ BANK               CITY MART - M MMR11003131858270059390313000000000000000   10300001 00104100000000001266000000000000     
100   95030313100013730000000000074200000000074200002000000010410403130713498379932184800313207214837993   1040001600030000   541120000581000000010000465Ocean Shwe Gone Daing  Yangon        MMR11003130713498379930313000000000000000   10300001F00104100000000004452000000000000     
100   95050314160856250000000000001960000000001960002000000010410403131543351335494466120313000006801885   1020000200030000   333400010001204104000000281Myanmar Soft-Gate Tech Yangon        MMR11003131543351335490313000000000000000   10300001F05104100000000000412000000000000     
100   62443100363668680000000000035014000000035014002000000010410403120614010008060238880312207112000806   1030000500030000   806220172406013008062201724GRAND HANTHA HOSPITAL  PTN           MMR11003120614010008060312000000000000000   10300001 00104100000000008403000000000000     
100   62911028202261800000000000149700000000149700002000000010410403130652364134592184800313658211302071   1030000300030000   555510124685104519000020166Makro Myanmar                        MMR11003130652364134590313000000000000000   10300001 00104100000000008982000000000000     
100   62443101083052160000000000624059000000624059002000000010410403130934513525846395750313045195243751   1040001400030000   592110000075015921100000365Million Mart Million M rt No. (519/  MMR11003130934513525840313000000000000000   10300001 00104100000000149774000000000000     
100   62911028202328650000000000020000000000020000002000000010410403130529198319762184800313207212831976   1040001600030000   598320000658000000010000527Shwe Taung Energy (YGN Yangon        MMR11003130529198319760313000000000000000   10300001F00104100000000000600000000000000     
100   95030301100425380000000000040000000000040000002000000010410403130529558320112184800313207212832011   1040001600030000   598320000658000000010000527Shwe Taung Energy (YGN Yangon        MMR11003130529558320110313000000000000000   10300001F00104100000000001200000000000000     
100   95030313100013730000000000055423000000055423002000000010410403130642238362412184800313207213836241   1040001600030000   541120000567000000010000465Ocean Shwe Gone Daing  Yangon        MMR11003130642238362410313000000000000000   10300001F00104100000000003325000000000000     
100   95050319502933380000000000000980000000000980002000000010410403130249241924918770380313000006798860   1020000200030000   333400010001204104000000281Myanmar Soft-Gate Tech Yangon        MMR11003130249241924910313000000000000000   10300001F05104100000000000206000000000000     
100   95050312675525330000000000010000000000010000002000000010410403121749301930000252670313000006798218   1030000200030000   333800010001203104000003327KBZPay                 Yangon        MMR11003121749301930000313000000000000000   10300001F05104100000000002100000000000000     
100   95050319111666800000000000001960000000001960002000000010410403130705393539320466590313000006799958   1020000200030000   333400010001204104000000281Myanmar Soft-Gate Tech Yangon        MMR11003130705393539320313000000000000000   10300001F05104100000000000412000000000000     
100   95050318180584510000000000003000000000003000002000000010410403130810414041956736140313000006800208   1030000200030000   333800010001203104000003327KBZPay                 Yangon        MMR11003130810414041950313000000000000000   10300001F05104100000000000630000000000000     
100   62911028202684060000000000046912000000046912002000000010410403130318454101512184800313999480904071   1030000500030000   555610104018104519000003821City Mart North Point  enter         MMR11003130318454101510313000000000000000   10300001 00104100000000002815000000000000     
100   62911028202065050000000000005000000000005000002000000010410403130634200420912184800313000006799854   1030000200030000   333800010001203104000003327KBZPay                 Yangon        MMR11003130634200420910313000000000000000   10300001F05104100000000001050000000000000     
100   95050315474529910000000000000979000000000979002000000010410403130536410641214197030313000006799582   1020000200030000   333400010001204104000000281Myanmar Soft-Gate Tech Yangon        MMR11003130536410641210313000000000000000   10300001F05104100000000000205000000000000     
100   62911028202067520000000000004900000000004900002000000010410403130645051505962184800313000006799893   1020000200030000   333400010001204104000000281Myanmar Soft-Gate Tech Yangon        MMR11003130645051505960313000000000000000   10300001F05104100000000001029000000000000     
100   95050321204334990000000000020000000000020000002000000010410403121047230083919876630312207117008391   1030000500030000   598320001404000015172200014MAX ENERGY             PTN           MMR11003121047230083910312000000000000000   10300001 00104100000000002400000000000000     
100   95050316818236190000000000002940000000002940002000000010410403130227085708618855470313000006798768   1020000200030000   333400010001204104000000281Myanmar Soft-Gate Tech Yangon        MMR11003130227085708610313000000000000000   10300001F05104100000000000617000000000000     
100   62911028202788350000000000008000000000008000002000000010410403131527025702412184800313000006801848   1030000200030000   333800010001203104000003327KBZPay                 Yangon        MMR11003131527025702410313000000000000000   10300001F05104100000000001680000000000000     
100   95050324250133010000000000010000000000010000002000000010410403131147188550961743040313207218855096   1040001600030000   598320000911000000010000662MMTM - Tamwe           Ygn           MMR11003131147188550960313000000000000000   10300001F00104100000000001200000000000000     
100   62911028202108530000000000020000000000020000002000000010410403130805478405472184800313207215840547   1040001600030000   598320000310000000010000298PT Power Petrol Statio Yangon        MMR11003130805478405470313000000000000000   10300001F00104100000000000600000000000000     
100   95030313100013730000000000003700000000003700002000000010410403130654428369712184800313207213836971   1040001600030000   541120000575000000010000465Ocean Shwe Gone Daing  Yangon        MMR11003130654428369710313000000000000000   10300001F00104100000000000222000000000000     
100   95050312926040930000000000002940000000002940002000000010410403130243521352840422860313000006798830   1020000200030000   333400010001204104000000281Myanmar Soft-Gate Tech Yangon        MMR11003130243521352840313000000000000000   10300001F05104100000000000617000000000000     
100   62443101037081820000000000064000000000064000002000000010410403131102364180785388390313312331705071   1030000500030000   888810121685104519000009666Max Energy CoLtd 5                   MMR11003131102364180780313000000000000000   10300001 00104100000000007680000000000000     
100   62911028202809060000000000010000000000010000002000000010410403131145451545622184800313000006801021   1030000500030000   333800010001201104000003863AYA Pay                Yangon        MMR11003131145451545620313000000000000000   10300001F05104100000000002100000000000000     
100   95050315298771650000000000050000000000050000002000000010410403130248541854262075340313000006798858   1030000200030000   333800010001203104000003327KBZPay                 Yangon        MMR11003130248541854260313000000000000000   10300001F05104100000000010500000000000000     
100   95050319604564870000000000002940000000002940002000000010410403131000573057372679090313000006800603   1020000200030000   333400010001204104000000281Myanmar Soft-Gate Tech Yangon        MMR11003131000573057370313000000000000000   10300001F05104100000000000617000000000000     
100   62911028202610540000000000008550000000008550002000000010410403131757030121602184800313000744165897   1030000200030000   541188001073000008000000294KBZ BANK               CITY MART - J MMR11003131757030121600313000000000000000   10300001 00104100000000000513000000000000     
100   95050323133124350000000000003920000000003920002000000010410403130433280328114202750313000006799325   1020000200030000   333400010001204104000000281Myanmar Soft-Gate Tech Yangon        MMR11003130433280328110313000000000000000   10300001F05104100000000000823000000000000     
100   95050313145843230000000000031000000000031000002000000010410403130338280828338103390313000006799102   1030000200030000   333800010001203104000003327KBZPay                 Yangon        MMR11003130338280828330313000000000000000   10300001F05104100000000006510000000000000     
100   62911028202108380000000000042150000000042150002000000010410403131410330162342184800313000744154755   1030000200030000   541188001080000008000000294KBZ BANK               CITY MART - J MMR11003131410330162340313000000000000000   10300001 00104100000000002529000000000000     
100   95050312498129060000000000000980000000000980002000000010410403131242041204660260740313000006801287   1020000200030000   333400010001204104000000281Myanmar Soft-Gate Tech Yangon        MMR11003131242041204660313000000000000000   10300001F05104100000000000206000000000000     
100   95030301100118480000000000038000000000038000002000000010410403130327165716922184800313000006799051   1030000200030000   333800010001203104000003327KBZPay                 Yangon        MMR11003130327165716920313000000000000000   10300001F05104100000000007980000000000000     
100   62443100301716860000000000005000000000005000002000000010410403131626315631351076050313000006801993   1030000200030000   333800010001203104000003327KBZPay                 Yangon        MMR11003131626315631350313000000000000000   10300001F05104100000000001050000000000000     
100   62911028202053740000000000045160000000045160002000000010410403130702188373922184800313207214837392   1040001600030000   598320000848000000010000605Terminal Petrol Statio Yangon        MMR11003130702188373920313000000000000000   10300001F00104100000000001355000000000000     
100   62911028202169750000000000014199000000014199002000000010410403130819388412202184800313207215841220   1040001600030000   541120000563000000010000465Ocean Shwe Gone Daing  Yangon        MMR11003130819388412200313000000000000000   10300001F00104100000000000852000000000000     
100   95050319451859610000000000030000000000030000002000000010410403131616404640042813630313000006801976   1030000200030000   333800010001203104000003327KBZPay                 Yangon        MMR11003131616404640040313000000000000000   10300001F05104100000000006300000000000000     
100   62443100323117100000000000140000000000140000002000000010410403130714474447109956010313000006799987   1030000200030000   333800010001203104000003327KBZPay                 Yangon        MMR11003130714474447100313000000000000000   10300001F05104100000000029400000000000000     
100   95050317284600370000000000010000000000010000002000000010410403131553202320321161150313000006801918   1030000200030000   333800010001203104000003327KBZPay                 Yangon        MMR11003131553202320320313000000000000000   10300001F05104100000000002100000000000000     
100   62911028202421380000000000092000000000092000002000000010410403120522370074742184800312207111007474   1030000500030000   598320001403000015172200014MAX ENERGY             PTN           MMR11003120522370074740312000000000000000   10300001 00104100000000002760000000000000     
100   95050317728825080000000000001000000000001000002000000010410403130554362436752374360313000006799660   1030000200030000   3334000100012031040000040102C2P (Myanmar) Co. Ltd Yangon        MMR11003130554362436750313000000000000000   10300001F05104100000000000210000000000000     
100   95050319709462380000000000000980000000000980002000000010410403131057522752642083420313000006800814   1020000200030000   333400010001204104000000281Myanmar Soft-Gate Tech Yangon        MMR11003131057522752640313000000000000000   10300001F05104100000000000206000000000000     
100   95050315158357300000000000002940000000002940002000000010410403131159062906810005450313000006801070   1020000200030000   333400010001204104000000281Myanmar Soft-Gate Tech Yangon        MMR11003131159062906810313000000000000000   10300001F05104100000000000617000000000000     
100   95050329888918380000000000007400000000007400002000000010410403130355164106321663650313653261003071   1030000500030000   555610112231104519000010487Ocean Super Center St  ohn           MMR11003130355164106320313000000000000000   10300001 00104100000000001850000000000000     
100   95050320360851930000000000000980000000000980002000000010410403131334220422471232450313000006801496   1020000200030000   333400010001204104000000281Myanmar Soft-Gate Tech Yangon        MMR11003131334220422470313000000000000000   10300001F05104100000000000206000000000000     
100   95050316377977350000000000002000000000002000002000000010410403130751052105893175880313000006800118   1030000200030000   3338000100012031040000040022C2P (Myanmar) Co. Ltd Yangon        MMR11003130751052105890313000000000000000   10300001F05104100000000000420000000000000     
100   62911028202440680000000000001550000000001550002000000010410403131609140166552184800313000744160357   1030000200030000   541188001075000008000000294KBZ BANK               CITY MART - J MMR11003131609140166550313000000000000000   10300001 00104100000000000093000000000000     
100   62443100330108240000000000004900000000004900002000000010410403130705503550632119070313000006799962   1020000200030000   333400010001204104000000281Myanmar Soft-Gate Tech Yangon        MMR11003130705503550630313000000000000000   10300001F05104100000000001029000000000000     
100   95050318617855880000000000004900000000004900002000000010410403131432570257563055130313000006801722   1020000200030000   333400010001204104000000281Myanmar Soft-Gate Tech Yangon        MMR11003131432570257560313000000000000000   10300001F05104100000000001029000000000000     
100   62911028202077010000000000000980000000000980002000000010410403131120195019322184800313000006800892   1020000200030000   333400010001204104000000281Myanmar Soft-Gate Tech Yangon        MMR11003131120195019320313000000000000000   10300001F05104100000000000206000000000000     
100   95050319286546940000000000026400000000026400002000000010410403121054030007511954600312207117000751   1030000500030000   569120067501022105691200675HLA FAMILY FASHION CEN PTN           MMR11003121054030007510312000000000000000   10300001 00104100000000006336000000000000     
100   62911028202116610000000000100000000000100000002000000010410403130850204163212184800313778121633071   1030000500030000   888810111244104519000009671Max Energy CoLtd 10                  MMR11003130850204163210313000000000000000   10300001 00104100000000003000000000000000     
100   95050318601641810000000000006000000000006000002000000010410403121310230002975635600312000334789861   1030000300030000   541100000591000000000000403CB BANK                ONE STOP MART MMR11003121310230002970312000000000000000   10300001F00104100000000001500000000000000     
100   95050319204938440000000000020000000000020000002000000010410403130058412841323557630313000006798508   1030000200030000   333800010001203104000003327KBZPay                 Yangon        MMR11003130058412841320313000000000000000   10300001F05104100000000004200000000000000     
100   95050311779172060000000000013600000000013600002000000010410403131256492649673480610313000006801343   1030000200030000   333800010001203104000003327KBZPay                 Yangon        MMR11003131256492649670313000000000000000   10300001F05104100000000002856000000000000     
100   95050314248677090000000000023200000000023200002000000010410403120953090026780458510312000334765275   1030000300030000   806200000192000000000000097CB BANK                AUNG YADANA H MMR11003120953090026780312000000000000000   10300001F00104100000000005568000000000000     
100   95050310685238570000000000003000000000003000002000000010410403130731200120851523390313000006800038   1030000200030000   3334000100012031040000040102C2P (Myanmar) Co. Ltd Yangon        MMR11003130731200120850313000000000000000   10300001F05104100000000000630000000000000     
100   62911028202663430000000000000250000000000250002000000010410403130933430234922184800313000744142208   1030000200030000   541188001042000008000000010KBZ BANK               MARKETPLACE - MMR11003130933430234920313000000000000000   10300001 00104100000000000015000000000000     
100   62911028202161240000000000036666000000036666002000000010410403131050140290572184800313000744145239   1030000200030000   541188001025000008000000298KBZ BANK               CITY MART - M MMR11003131050140290570313000000000000000   10300001 00104100000000002200000000000000     
100   95050323233042810000000000000980000000000980002000000010410403131237190719503650800313000006801264   1020000200030000   333400010001204104000000281Myanmar Soft-Gate Tech Yangon        MMR11003131237190719500313000000000000000   10300001F05104100000000000206000000000000     
100   95050319528093960000000000001960000000001960002000000010410403130359092909486621100313000006799196   1020000200030000   333400010001204104000000281Myanmar Soft-Gate Tech Yangon        MMR11003130359092909480313000000000000000   10300001F05104100000000000412000000000000     
100   95050328570548980000000000068650000000068650002000000010410403131048130178930982880313000744145155   1030000200030000   541188001003000008000000008KBZ BANK               MARKETPLACE - MMR11003131048130178930313000000000000000   10300001 00104100000000017163000000000000     
100   95050316377977350000000000003000000000003000002000000010410403131238090809311913220313000006801269   1030000200030000   3338000100012031040000040022C2P (Myanmar) Co. Ltd Yangon        MMR11003131238090809310313000000000000000   10300001F05104100000000000630000000000000     
100   95050314570621780000000000005880000000005880002000000010410403131345181518239579970313000006801539   1020000200030000   333400010001204104000000281Myanmar Soft-Gate Tech Yangon        MMR11003131345181518230313000000000000000   10300001F05104100000000001235000000000000     
100   95050319204938440000000000005000000000005000002000000010410403130603573357561062260313000006799699   1030000200030000   333800010001203104000003327KBZPay                 Yangon        MMR11003130603573357560313000000000000000   10300001F05104100000000001050000000000000     
100   95050319788089010000000000050000000000050000002000000010410403131508533853399665070313000006801810   1030000200030000   333800010001203104000003327KBZPay                 Yangon        MMR11003131508533853390313000000000000000   10300001F05104100000000010500000000000000     
100   95050314064416890000000000000980000000000980002000000010410403131238380838783565710313000006801272   1020000200030000   333400010001204104000000281Myanmar Soft-Gate Tech Yangon        MMR11003131238380838780313000000000000000   10300001F05104100000000000206000000000000     
100   95050327531396450000000000300000000000300000002000000010410403130348001800261238170313000006799142   1030000200030000   333800010001203104000003327KBZPay                 Yangon        MMR11003130348001800260313000000000000000   10300001F05104100000000063000000000000000     
100   95050317376014640000000000002940000000002940002000000010410403130059422942125210120313000006798511   1020000200030000   333400010001204104000000281Myanmar Soft-Gate Tech Yangon        MMR11003130059422942120313000000000000000   10300001F05104100000000000617000000000000     
100   95050327531396450000000000070000000000070000002000000010410403131045241524727721640313000006800753   1030000200030000   333800010001203104000003327KBZPay                 Yangon        MMR11003131045241524720313000000000000000   10300001F05104100000000014700000000000000     
100   95050310397364970000000000000980000000000980002000000010410403130150312031067288080313000006798625   1020000200030000   333400010001204104000000281Myanmar Soft-Gate Tech Yangon        MMR11003130150312031060313000000000000000   10300001F05104100000000000206000000000000     
100   95050319220344710000000000002940000000002940002000000010410403131059162916473735900313000006800815   1020000200030000   333400010001204104000000281Myanmar Soft-Gate Tech Yangon        MMR11003131059162916470313000000000000000   10300001F05104100000000000617000000000000     
100   95050311959900780000000000000980000000000980002000000010410403121648011801731990250313000006798126   1020000200030000   333400010001204104000000281Myanmar Soft-Gate Tech Yangon        MMR11003121648011801730313000000000000000   10300001F05104100000000000206000000000000     
100   95030301100120280000000000005000000000005000002000000010410403130848051805172184800313000006800336   1030000200030000   333800010001203104000003327KBZPay                 Yangon        MMR11003130848051805170313000000000000000   10300001F05104100000000001050000000000000     
100   62911028202204560000000000020500000000020500002000000010410403130453242324192184800313000006799405   1030000200030000   333800010001203104000003327KBZPay                 Yangon        MMR11003130453242324190313000000000000000   10300001F05104100000000004305000000000000     
100   95050316818236190000000000000980000000000980002000000010410403130505253525931067980313000006799438   1020000200030000   333400010001204104000000281Myanmar Soft-Gate Tech Yangon        MMR11003130505253525930313000000000000000   10300001F05104100000000000206000000000000     
100   95050312549035820000000000030000000000030000002000000010410403130332020202535309000313000006799066   1030000200030000   333800010001203104000003327KBZPay                 Yangon        MMR11003130332020202530313000000000000000   10300001F05104100000000006300000000000000     
100   62911028202118690000000000026596000000026596002000000010410403131722170204332184800313000744164129   1030000200030000   541188001059000008000000314KBZ BANK               MARKETPLACE - MMR11003131722170204330313000000000000000   10300001 00104100000000001596000000000000     
100   95050317376014640000000000000980000000000980002000000010410403131548371837116118600313000006801905   1020000200030000   333400010001204104000000281Myanmar Soft-Gate Tech Yangon        MMR11003131548371837110313000000000000000   10300001F05104100000000000206000000000000     
100   95050314570621780000000000000980000000000980002000000010410403131049191919605473480313000006800776   1020000200030000   333400010001204104000000281Myanmar Soft-Gate Tech Yangon        MMR11003131049191919600313000000000000000   10300001F05104100000000000206000000000000     
100   95050311959900780000000000000980000000000980002000000010410403130450042004839500590313000006799393   1020000200030000   333400010001204104000000281Myanmar Soft-Gate Tech Yangon        MMR11003130450042004830313000000000000000   10300001F05104100000000000206000000000000     
100   95050311121153200000000000001960000000001960002000000010410403130603243324145679330313000006799700   1020000200030000   333400010001204104000000281Myanmar Soft-Gate Tech Yangon        MMR11003130603243324140313000000000000000   10300001F05104100000000000412000000000000     
100   95050312498129060000000000001960000000001960002000000010410403131304033403414622520313000006801366   1020000200030000   333400010001204104000000281Myanmar Soft-Gate Tech Yangon        MMR11003131304033403410313000000000000000   10300001F05104100000000000412000000000000     
100   95050316717221100000000000000980000000000980002000000010410403130338220822126450910313000006799100   1020000200030000   333400010001204104000000281Myanmar Soft-Gate Tech Yangon        MMR11003130338220822120313000000000000000   10300001F05104100000000000206000000000000     
100   95050319938772870000000000000980000000000980002000000010410403130254532453163486330313000006798887   1020000200030000   333400010001204104000000281Myanmar Soft-Gate Tech Yangon        MMR11003130254532453160313000000000000000   10300001F05104100000000000206000000000000     
100   95050313145843230000000000002940000000002940002000000010410403130254552455965138810313000006798889   1020000200030000   333400010001204104000000281Myanmar Soft-Gate Tech Yangon        MMR11003130254552455960313000000000000000   10300001F05104100000000000617000000000000     
100   95050310902464360000000000005880000000005880002000000010410403130753322332374828360313000006800132   1020000200030000   333400010001204104000000281Myanmar Soft-Gate Tech Yangon        MMR11003130753322332370313000000000000000   10300001F05104100000000001235000000000000     
100   95050319938772870000000000000980000000000980002000000010410403130257192719490181360313000006798897   1020000200030000   333400010001204104000000281Myanmar Soft-Gate Tech Yangon        MMR11003130257192719490313000000000000000   10300001F05104100000000000206000000000000     
100   95050318741700180000000000000980000000000980002000000010410403130405333533898188490313000006799223   1020000200030000   333400010001204104000000281Myanmar Soft-Gate Tech Yangon        MMR11003130405333533890313000000000000000   10300001F05104100000000000206000000000000     
100   95050316717221100000000000000980000000000980002000000010410403130309463946178358680313000006798962   1020000200030000   333400010001204104000000281Myanmar Soft-Gate Tech Yangon        MMR11003130309463946170313000000000000000   10300001F05104100000000000206000000000000     
100   62443100378093870000000000053002000000053002002000000010410403130747384151261097910313063041556071   1030000500030000   888810111244104519000009671Max Energy CoLtd 10                  MMR11003130747384151260313000000000000000   10300001 00104100000000006360000000000000     
100   95030325264619140000000000072500000000072500002000000010410403130345104132552184800313079151010071   1030000900030000   729819000945190110000000752SML Clinic             YANGON        MMR11003130345104132550313000000000000000   10300001F00104100000000004350000000000000     
100   95030301100129110000000000012000000000012000002000000010410403130437184145652184800313974071118071   1030000900030000   591219001406190110000001010Life Plus Store 11     YANGONUNG     MMR11003130437184145650313000000000000000   10300001F00104100000000000720000000000000     
100   62911028202108380000000000150000000000150000002000000010410403130627584130372184800313065561239071   1030000300030000   555510124697104519000020166Makro Myanmar                        MMR11003130627584130370313000000000000000   10300001 00104100000000009000000000000000     
100   95050317834964620000000000042314000000042314002000000010410403130525454158605685040313879551145071   1030000900030000   541119001363190110000000977Ocean PZD C17          YANGONAUNG    MMR11003130525454158600313000000000000000   10300001F00104100000000010579000000000000     
100   62911028202112730000000000017000000000017000002000000010410403130948244163932184800313880161636071   1030000300030000   888810125940104519000021285Shwe Taung Energy CoLt               MMR11003130948244163930313000000000000000   10300001 00104100000000000510000000000000     
100   95030302100067550000000000085200000000085200002000000010410403131011244169202184800313613411603071   1030000300030000   555510124694104519000020166Makro Myanmar                        MMR11003131011244169200313000000000000000   10300001 00104100000000005112000000000000     
100   95050317834964620000000000001500000000001500002000000010410403130557364167238984290313496271236071   1030000900030000   541119001372190110000000978Ocean PZD Season C 2   YANGONAUNG    MMR11003130557364167230313000000000000000   10300001F00104100000000000375000000000000     
100   95050320559934420000000000180040000000180040002000000010410403130406274107904883520313855361036071   1030000500030000   555610103469104519000003420City Mart Yankin Cente 8             MMR11003130406274107900313000000000000000   10300001 00104100000000045010000000000000     
100   62443100372702000000000000069600000000069600002000000010410403130604254127067757290313569351241071   1030000500030000   555610112243104519000010487Ocean Super Center St  ohn           MMR11003130604254127060313000000000000000   10300001 00104100000000017400000000000000     
100   95050317088336250000000000045000000000045000002000000010410403131411474147604537420313000006801641   1030000200030000   333800010001203104000003327KBZPay                 Yangon        MMR11003131411474147600313000000000000000   10300001F05104100000000009450000000000000     
100   95030308100042590000000000329450000000329450002000000010410403130612364171152184800313772421236071   1030000900030000   541119000616190110000000452Pro(1) Global-Hlaing T YANGONTHARYA  MMR11003130612364171150313000000000000000   10300001F00104100000000019767000000000000     
100   95050323670692380000000000010000000000010000002000000010410403121911084108986947700313000006798306   1030000200030000   333800010001203104000003327KBZPay                 Yangon        MMR11003121911084108980313000000000000000   10300001F05104100000000002100000000000000     
100   62443100334378030000000000150000000000150000002000000010410403130612174127899409780313682411225071   1030000300030000   555510124690104519000020166Makro Myanmar                        MMR11003130612174127890313000000000000000   10300001 00104100000000036000000000000000     
100   62443100333488440000000000176350000000176350002000000010410403130810574148804402880313698501434071   1030000500030000   555610103466104519000003420City Mart Yankin Cente 5             MMR11003130810574148800313000000000000000   10300001 00104100000000044088000000000000     
100   62443100390038980000000000139100000000139100002000000010410403130618134172380892070313852481213071   1030000900030000   581219001121190110000000902Yoon Kitchen           YANGONONE     MMR11003130618134172380313000000000000000   10300001F00104100000000059118000000000000     
100   95050317834964620000000000003068000000003068002000000010410403130447134148164458040313154171113071   1030000900030000   541119001355190110000000977Ocean PZD C9           YANGONAUNG    MMR11003130447134148160313000000000000000   10300001F00104100000000000767000000000000     
100   95050328212196190000000000029241000000029241002000000010410403130603124168672714750313602331212071   1030000900030000   541119001282190110000000963City Mart SPL C 7      YANGONMYOTHIT MMR11003130603124168670313000000000000000   10300001F00104100000000007311000000000000     
100   95050317834964620000000000010018000000010018002000000010410403130553534166277416910313430231253071   1030000900030000   541119001353190110000000977Ocean PZD C 7          YANGONAUNG    MMR11003130553534166270313000000000000000   10300001F00104100000000002505000000000000     
100   95030301100124400000000000008000000000008000002000000010410403131132554256552184800313083021855071   1030000900030000   541119001259190110000000958City Mart PLST C 2     YANGONMYOTHIT MMR11003131132554256550313000000000000000   10300001F00104100000000000480000000000000     
100   62911028202610960000000000023350000000023350002000000010410403131108484183162184800313649441703071   1030000500030000   555610119285104519000016353City Express MCS 96                  MMR11003131108484183160313000000000000000   10300001 00104100000000001401000000000000     
100   95050310685238570000000000001000000000001000002000000010410403130321415141092089130313000006799021   1030000200030000   3334000100012031040000040102C2P (Myanmar) Co. Ltd Yangon        MMR11003130321415141090313000000000000000   10300001F05104100000000000210000000000000     
100   62443100372702000000000000105800000000105800002000000010410403131152174190813395510313739221806071   1030000500030000   555610103464104519000003420City Mart Yankin Cente 3             MMR11003131152174190810313000000000000000   10300001 00104100000000026450000000000000     
100   62911028202133520000000000004638000000004638002000000010410403131201134264602184800313664311813071   1030000900030000   541119001195190110000000942City Mart HDC C 10     YANGONUT      MMR11003131201134264600313000000000000000   10300001F00104100000000000278000000000000     
100   95050325784857510000000000005600000000005600002000000010410403131049404245042168520313213191740071   1030000900030000   541119001213190110000000949City Mart YK Season C  YANGONAUNG    MMR11003131049404245040313000000000000000   10300001F00104100000000001400000000000000     
100   62911028202610960000000000116000000000116000002000000010410403131140384258982184800313256101838071   1030000900030000   554119000348190110000000215New Day Energy MYG     YANGONONE     MMR11003131140384258980313000000000000000   10300001F00104100000000003480000000000000     
100   95050314064416890000000000001960000000001960002000000010410403130513484348813777270313000006799486   1020000200030000   333400010001204104000000281Myanmar Soft-Gate Tech Yangon        MMR11003130513484348810313000000000000000   10300001F05104100000000000412000000000000     
100   95050318608138520000000000001850000000001850002000000010410403121812254225771905150313000006798250   1030000200030000   333800010001203104000003327KBZPay                 Yangon        MMR11003121812254225770313000000000000000   10300001F05104100000000000389000000000000     
100   95050310616516480000000000005880000000005880002000000010410403130818294829947792940313000006800236   1020000200030000   333400010001204104000000281Myanmar Soft-Gate Tech Yangon        MMR11003130818294829940313000000000000000   10300001F05104100000000001235000000000000     
100   62443100300743690000000000009765000000009765002000000010410403130955034228165984060313893251603071   1030000900030000   581219000981190110000000788Jo Jo Hot Pot (KTY)    YANGONARTAUNG MMR11003130955034228160313000000000000000   10300001F00104100000000004150000000000000     
100   62911028202788270000000000040000000000040000002000000010410403120416560001292184800312207110000129   1030000500030000   598320001304000015172200013MAX ENERGY             PTN           MMR11003120416560001290312000000000000000   10300001 00104100000000001200000000000000     
100   95050328035424750000000000095000000000095000002000000010410403121210530000488139050312207118000048   1030000500030000   569120100801008405691201008M.Y FASHION            PTN           MMR11003121210530000480312000000000000000   10300001 00104100000000022800000000000000     
100   95050322083768590000000000013750000000013750002000000010410403121200460004724834080312000334781684   1030000300030000   591200000289000000000000170CB BANK                MEDICARE STOR MMR11003121200460004720312000000000000000   10300001F00104100000000003300000000000000     
100   95050314538419220000000000011730000000011730002000000010410403120426050008091089840312000334723800   1030000300030000   541100000444000000000000319CB BANK                ONESTOP KITCH MMR11003120426050008090312000000000000000   10300001F00104100000000002933000000000000     
100   95050324154190880000000000066000000000066000002000000010410403120306380006930634650312207109000693   1030000500030000   591220012901014405912200129SHWE OHH PHARMACY      PTN           MMR11003120306380006930312000000000000000   10300001 00104100000000015840000000000000     
100   62911028202473430000000000073700000000073700002000000010410403120502270006142184800312207111000614   1030000500030000   591220014301014405912200143SHWE OHH PHARMACY      PTN           MMR11003120502270006140312000000000000000   10300001 00104100000000004422000000000000     
100   62911028202132460000000000016050000000016050002000000010410403120648470007722184800312207113000772   1030000500030000   591220042601014405912200426SHWE OHH PHARMACY      PTN           MMR11003120648470007720312000000000000000   10300001 00104100000000000963000000000000     
100   62443100374797770000000000114680000000114680002000000010410403131047034177337211060313813161727071   1030000500030000   555610112235104519000010487Ocean Super Center St  ohn           MMR11003131047034177330313000000000000000   10300001 00104100000000028670000000000000     
100   62911028202112730000000000041800000000041800002000000010410403131152594191132184800313785231827071   1030000300030000   888810125458104519000021285Shwe Taung Energy CoLt               MMR11003131152594191130313000000000000000   10300001 00104100000000001254000000000000     
100   62911028202284420000000000028576000000028576002000000010410403131008304231772184800313163381630071   1030000900030000   541119001247190110000000955City Mart JS C 6       YANGONUT      MMR11003131008304231770313000000000000000   10300001F00104100000000001715000000000000     
100   62911028202750390000000000001960000000001960002000000010410403131121125112102184800313000006800895   1020000200030000   333400010001204104000000281Myanmar Soft-Gate Tech Yangon        MMR11003131121125112100313000000000000000   10300001F05104100000000000412000000000000     
100   62911028202440680000000000006150000000006150002000000010410403131248334197882184800313756181930071   1030000500030000   555610120970104519000017733City Express MCS 14                  MMR11003131248334197880313000000000000000   10300001 00104100000000000369000000000000     
100   95050325784857510000000000008600000000008600002000000010410403131045114243450516030313084151711071   1030000900030000   541119001208190110000000948City Mart YK C 6       YANGONAUNG    MMR11003131045114243450313000000000000000   10300001F00104100000000002150000000000000     
100   62911028202132460000000000039375000000039375002000000010410403130630044175332184800313053001304071   1030000900030000   581219000230190110000000129MinLan Restaurant(Maya YANGONONE     MMR11003130630044175330313000000000000000   10300001F00104100000000004016000000000000     
100   62911028202284260000000000013941000000013941002000000010410403131010244232332184800313207401624071   1030000900030000   541119001249190110000000955City Mart JS C 8       YANGONUT      MMR11003131010244232330313000000000000000   10300001F00104100000000000837000000000000     
100   62443100379321630000000000060012000000060012002000000010410403120743470006819997380312207114000681   1030000500030000   598320088701005405983200887PT POWER TRADING CO. L PTN           MMR11003120743470006810312000000000000000   10300001 00104100000000007202000000000000     
100   62443100379321630000000000040712000000040712002000000010410403120744350006821649860312207114000682   1030000500030000   598320088701005405983200887PT POWER TRADING CO. L PTN           MMR11003120744350006820312000000000000000   10300001 00104100000000004886000000000000     
100   62911028202303640000000000065700000000065700002000000010410403120426260021932184800312207110002193   1030000500030000   591220132901008605912201329THEIK DI WIN SHOP      PTN           MMR11003120426260021930312000000000000000   10300001 00104100000000003942000000000000     
100   95050311779172060000000000010000000000010000002000000010410403120850130010180543610312207115001018   1030000500030000   569120069101008205691200691ESCORT                 PTN           MMR11003120850130010180312000000000000000   10300001 00104100000000002400000000000000     
100   95050314248677090000000000087200000000087200002000000010410403121117110026875174470312000334776143   1030000300030000   806200000192000000000000097CB BANK                AUNG YADANA H MMR11003121117110026870312000000000000000   10300001F00104100000000020928000000000000     
100   95050325925517520000000000007250000000007250002000000010410403120528410024080068690312000334731586   1030000300030000   541100000443000000000000319CB BANK                ONESTOP KITCH MMR11003120528410024080312000000000000000   10300001F00104100000000001813000000000000     
100   62911028202525820000000000054000000000054000002000000010410403120855210044302184800312207115004430   1030000500030000   598320002104000015172200021MAX ENERGY             PTN           MMR11003120855210044300312000000000000000   10300001 00104100000000001620000000000000     
100   95030308100042590000000000042000000000042000002000000010410403120917390053792184800312207115005379   1030000500030000   598320001702000015172200017MAX ENERGY             PTN           MMR11003120917390053790312000000000000000   10300001 00104100000000001260000000000000     
100   95050313400081980000000000005000000000005000002000000010410403131313224322721317550313000006801394   1030000200030000   333800010001203104000003327KBZPay                 Yangon        MMR11003131313224322720313000000000000000   10300001F05104100000000001050000000000000     
100   95050313145843230000000000002940000000002940002000000010410403130825405540259445430313000006800263   1020000200030000   333400010001204104000000281Myanmar Soft-Gate Tech Yangon        MMR11003130825405540250313000000000000000   10300001F05104100000000000617000000000000     
100   95030361482647470000000000021060000000021060002000000010410403131117434183932184800313764471711071   1030000500030000   555610112235104519000010487Ocean Super Center St  ohn           MMR11003131117434183930313000000000000000   10300001 00104100000000001264000000000000     
100   62911028202397530000000000049350000000049350002000000010410403130837434207312184800313346071543071   1030000900030000   541119000077190110000000056Pro (1) Global-TheikPa MANDALAYHARSI MMR11003130837434207310313000000000000000   10300001F00104100000000002961000000000000     
100   62443100300743690000000000019800000000019800002000000010410403130925474220001353200313278551547071   1030000900030000   541119001233190110000000951Marketplace KTY C 3    YANGONARTAUNG MMR11003130925474220000313000000000000000   10300001F00104100000000004950000000000000     
100   95050316818236190000000000000980000000000980002000000010410403130525455545107422620313000006799536   1020000200030000   333400010001204104000000281Myanmar Soft-Gate Tech Yangon        MMR11003130525455545100313000000000000000   10300001F05104100000000000206000000000000     
100   95050312210363590000000000003000000000003000002000000010410403130420075007639245300313000006799273   1030000200030000   333800010001203104000003327KBZPay                 Yangon        MMR11003130420075007630313000000000000000   10300001F05104100000000000630000000000000     
100   62443100381661260000000000017950000000017950002000000010410403131122224184737381260313884511715071   1030000500030000   555610108840104519000003432City Mart Junction Zaw na 1          MMR11003131122224184730313000000000000000   10300001 00104100000000004488000000000000     
100   95030308100042590000000000033009000000033009002000000010410403120918160053802184800312207115005380   1030000500030000   598320001702000015172200017MAX ENERGY             PTN           MMR11003120918160053800312000000000000000   10300001 00104100000000000990000000000000     
100   62911028202304220000000000166200000000166200002000000010410403120414440020132184800312207110002013   1030000500030000   503920036606000015039200366PRO-1 HOME CENTER      PTN           MMR11003120414440020130312000000000000000   10300001 00104100000000009972000000000000     
100   62911028202440680000000000008004000000008004002000000010410403121645400040532184800312000744119330   1030000200030000   541188001021000008000000298KBZ BANK               CITY MART - M MMR11003121645400040530312000000000000000   10300001 00104100000000000480000000000000     
100   62911028202313470000000000050000000000050000002000000010410403121306430199262184800312207119019926   1030000500030000   598320001601000015172200016MAX ENERGY             PTN           MMR11003121306430199260312000000000000000   10300001 00104100000000001500000000000000     
100   62443100369787460000000000020000000000020000002000000010410403120257020139774024710312207109013977   1030000500030000   598320002702000015172200027MAX ENERGY             PTN           MMR11003120257020139770312000000000000000   10300001 00104100000000002400000000000000     
100   95050324773225760000000000055000000000055000002000000010410403121001010150776983350312207116015077   1030000500030000   598320002701000015172200027MAX ENERGY             PTN           MMR11003121001010150770312000000000000000   10300001 00104100000000006600000000000000     
100   62911028202198620000000000103000000000103000002000000010410403121152140199432184800312207118019943   1030000500030000   598320001602000015172200016MAX ENERGY             PTN           MMR11003121152140199430312000000000000000   10300001 00104100000000003090000000000000     
100   95050320531117320000000000070822000000070822002000000010410403121331340151106061080312207120015110   1030000500030000   598320002701000015172200027MAX ENERGY             PTN           MMR11003121331340151100312000000000000000   10300001 00104100000000008499000000000000     
100   62443100378093870000000000129450000000129450002000000010410403130809304200398303520313837391430071   1030000900030000   581219000206190110000000108Beauty in the Pot      YANGON        MMR11003130809304200390313000000000000000   10300001F00104100000000055017000000000000     
100   62911028202750390000000000004900000000004900002000000010410403131115324532332184800313000006800877   1020000200030000   333400010001204104000000281Myanmar Soft-Gate Tech Yangon        MMR11003131115324532330313000000000000000   10300001F05104100000000001029000000000000     
100   62911028202112730000000000082860000000082860002000000010410403131128494187042184800313206021824071   1030000500030000   555610112243104519000010487Ocean Super Center St  ohn           MMR11003131128494187040313000000000000000   10300001 00104100000000004972000000000000     
100   62443100340422630000000000035000000000035000002000000010410403130559438337947331810313207212833794   1040001600030000   598320000658000000010000527Shwe Taung Energy (YGN Yangon        MMR11003130559438337940313000000000000000   10300001F00104100000000004200000000000000     
100   62911028202169750000000000039800000000039800002000000010410403130845428425952184800313207215842595   1040001600030000   541120000569000000010000465Ocean Shwe Gone Daing  Yangon        MMR11003130845428425950313000000000000000   10300001F00104100000000002388000000000000     
100   95050315158357300000000000004900000000004900002000000010410403130216234623438940570313000006798712   1020000200030000   333400010001204104000000281Myanmar Soft-Gate Tech Yangon        MMR11003130216234623430313000000000000000   10300001F05104100000000001029000000000000     
100   62911028202757730000000000023000000000023000002000000010410403130956390136132184800313000744143092   1030000200030000   541188001305000008000000325KBZ BANK               CITY MART - A MMR11003130956390136130313000000000000000   10300001 00104100000000001380000000000000     
100   62911028202679290000000000006036000000006036002000000010410403131126425642662184800313000006800921   1030000200030000   333800010001203104000003327KBZPay                 Yangon        MMR11003131126425642660313000000000000000   10300001F05104100000000001268000000000000     
