100   95050319528093960000000000001960000000001960002000000010410403141533210321614590220314000006808363   1020000200030000   333400010001204104000000281Myanmar Soft-Gate Tech Yangon        MMR11003141533210321610314000000000000000   10300001F05104100000000000412000000000000     
100   95030341448197210000000000062685000000062685002000000010410403141618180236012184800314000744210757   1030000200030000   541188001042000008000000010KBZ BANK               MARKETPLACE - MMR11003141618180236010314000000000000000   10300001 00104100000000003761000000000000     
100   95050319331315630000000000004900000000004900002000000010410403141449281928154249840314000006808169   1020000200030000   333400010001204104000000281Myanmar Soft-Gate Tech Yangon        MMR11003141449281928150314000000000000000   10300001F05104100000000001029000000000000     
100   95030301100118480000000000010000000000010000002000000010410403140832350235012184800314000006805944   1030000200030000   333800010001203104000003327KBZPay                 Yangon        MMR11003140832350235010314000000000000000   10300001F05104100000000002100000000000000     
100   95050312482469810000000000017900000000017900002000000010410403141727540055438101030314000744214112   1030000200030000   541188001286000008000000472KBZ BANK               NEIGHBOURHOOD MMR11003141727540055430314000000000000000   10300001 00104100000000004475000000000000     
100   95050319567821930000000000300000000000300000002000000010410403140737270727268894480314000006805493   1030000200030000   333800010001203104000003327KBZPay                 Yangon        MMR11003140737270727260314000000000000000   10300001F05104100000000063000000000000000     
100   62443100372702000000000000324450000000324450002000000010410403141448180125446440480314000744206271   1030000200030000   541188001306000008000000325KBZ BANK               CITY MART - A MMR11003141448180125440314000000000000000   10300001 00104100000000081113000000000000     
100   95050324247403260000000000129200000000129200002000000010410403141745300162346193260314000744215099   1030000200030000   541188001124000008000000296KBZ BANK               CITY MART - J MMR11003141745300162340314000000000000000   10300001 00104100000000032300000000000000     
100   95030301100425380000000000021750000000021750002000000010410403130404100006992184800313207210000699   1030000500030000   591220013401014405912200134SHWE OHH PHARMACY      PTN           MMR11003130404100006990313000000000000000   10300001 00104100000000001305000000000000     
100   62911028202194090000000000029810000000029810002000000010410403130317400228372184800313207209022837   1030000500030000   598320001201000015172200012MAX ENERGY             PTN           MMR11003130317400228370313000000000000000   10300001 00104100000000000894000000000000     
100   95030301100126550000000000027000000000027000002000000010410403130845140148612184800313207215014861   1030000500030000   598320001102000015172200011MAX ENERGY             PTN           MMR11003130845140148610313000000000000000   10300001 00104100000000000810000000000000     
100   95050316573091630000000000008820000000008820002000000010410403140429595959841602780314000006803916   1020000200030000   333400010001204104000000281Myanmar Soft-Gate Tech Yangon        MMR11003140429595959840314000000000000000   10300001F05104100000000001852000000000000     
100   95050313113158460000000000000980000000000980002000000010410403140323485348269467290314000006803327   1020000200030000   333400010001204104000000281Myanmar Soft-Gate Tech Yangon        MMR11003140323485348260314000000000000000   10300001F05104100000000000206000000000000     
100   62443100379321630000000000016000000000016000002000000010410403141049324452029923710314584191732072   1030000900030000   581219001105190110000000890Shwepalin City Mall Ta YANGONAW      MMR11003141049324452020314000000000000000   10300001F00104100000000006800000000000000     
100   95050316818236190000000000002940000000002940002000000010410403140142261226926253140314000006802600   1020000200030000   333400010001204104000000281Myanmar Soft-Gate Tech Yangon        MMR11003140142261226920314000000000000000   10300001F05104100000000000617000000000000     
100   62911028202163480000000000355685000000355685002000000010410403141012244224932184800314000006806695   1010000100030000   333500010001212104000002543Internal Revenue Depar Yangon        MMR11003141012244224930314000000000000000   10300001F05104100000000060000000000000000     
100   62911028202161240000000000001400000000001400002000000010410403141031160178922184800314000744188433   1030000200030000   541188001032000008000000298KBZ BANK               CITY MART - M MMR11003141031160178920314000000000000000   10300001 00104100000000000084000000000000     
100   95050316818236190000000000000980000000000980002000000010410403140632320232590739020314000006805007   1020000200030000   333400010001204104000000281Myanmar Soft-Gate Tech Yangon        MMR11003140632320232590314000000000000000   10300001F05104100000000000206000000000000     
100   95050316997303010000000000002940000000002940002000000010410403141033450345261916580314000006806856   1020000200030000   333400010001204104000000281Myanmar Soft-Gate Tech Yangon        MMR11003141033450345260314000000000000000   10300001F05104100000000000617000000000000     
100   95050319528093960000000000001960000000001960002000000010410403140439370937530581620314000006804002   1020000200030000   333400010001204104000000281Myanmar Soft-Gate Tech Yangon        MMR11003140439370937530314000000000000000   10300001F05104100000000000412000000000000     
100   95050319938772870000000000000980000000000980002000000010410403141237270727563022840314000006807555   1020000200030000   333400010001204104000000281Myanmar Soft-Gate Tech Yangon        MMR11003141237270727560314000000000000000   10300001F05104100000000000206000000000000     
100   62911028202100930000000000006400000000006400002000000010410403141639510063172184800314000744211682   1030000200030000   541188001071000008000000314KBZ BANK               MARKETPLACE - MMR11003141639510063170314000000000000000   10300001 00104100000000000384000000000000     
100   95050318617855880000000000000980000000000980002000000010410403141039070907291320910314000006806892   1020000200030000   333400010001204104000000281Myanmar Soft-Gate Tech Yangon        MMR11003141039070907290314000000000000000   10300001F05104100000000000206000000000000     
100   95050322478649490000000000002940000000002940002000000010410403140354022402640587340314000006803589   1020000200030000   333400010001204104000000281Myanmar Soft-Gate Tech Yangon        MMR11003140354022402640314000000000000000   10300001F05104100000000000617000000000000     
100   95050319996628650000000000002940000000002940002000000010410403140322185218015105520314000006803315   1020000200030000   333400010001204104000000281Myanmar Soft-Gate Tech Yangon        MMR11003140322185218010314000000000000000   10300001F05104100000000000617000000000000     
100   95050312224678430000000000002940000000002940002000000010410403140239370937771921300314000006802958   1020000200030000   333400010001204104000000281Myanmar Soft-Gate Tech Yangon        MMR11003140239370937770314000000000000000   10300001F05104100000000000617000000000000     
100   95050317728825080000000000010700000000010700002000000010410403140454124245669659350314408261150072   1030000500030000   555610103473104519000003420City Mart Yankin Cente 12            MMR11003140454124245660314000000000000000   10300001 00104100000000002675000000000000     
100   95050311926829590000000000000980000000000980002000000010410403141355362536221029960314000006807928   1020000200030000   333400010001204104000000281Myanmar Soft-Gate Tech Yangon        MMR11003141355362536220314000000000000000   10300001F05104100000000000206000000000000     
100   95050312947607030000000000020000000000020000002000000010410403140854272427642449020314000006806119   1030000200030000   333800010001203104000003327KBZPay                 Yangon        MMR11003140854272427640314000000000000000   10300001F05104100000000004200000000000000     
100   95050310427855490000000000000980000000000980002000000010410403141518254825589632770314000006808290   1020000200030000   333400010001204104000000281Myanmar Soft-Gate Tech Yangon        MMR11003141518254825580314000000000000000   10300001F05104100000000000206000000000000     
100   95030394609966640000000000007700000000007700002000000010410403140452184245412184800314374251104072   1030000500030000   555610114572104519000012532City Mart Ahlone Branc               MMR11003140452184245410314000000000000000   10300001 00104100000000000462000000000000     
100   62911028202366010000000000040750000000040750002000000010410403140941344285512184800314867141652072   1030000500030000   555610108768104519000003818City Mart Oattara Thir NPT           MMR11003140941344285510314000000000000000   10300001 00104100000000002445000000000000     
100   95050314567080940000000000000980000000000980002000000010410403141051562156674881160314000006806951   1020000200030000   333400010001204104000000281Myanmar Soft-Gate Tech Yangon        MMR11003141051562156670314000000000000000   10300001F05104100000000000206000000000000     
100   95030301100125070000000000300000000000300000002000000010410403140853102310362184800314000006806109   1030000200030000   333800010001203104000003327KBZPay                 Yangon        MMR11003140853102310360314000000000000000   10300001F05104100000000063000000000000000     
100   95050311121153200000000000002940000000002940002000000010410403141308183818779973150314000006807696   1020000200030000   333400010001204104000000281Myanmar Soft-Gate Tech Yangon        MMR11003141308183818770314000000000000000   10300001F05104100000000000617000000000000     
100   95050313968650950000000000000980000000000980002000000010410403141308473847665015700314000006807692   1020000200030000   333400010001204104000000281Myanmar Soft-Gate Tech Yangon        MMR11003141308473847660314000000000000000   10300001F05104100000000000206000000000000     
100   62911028202000450000000000004900000000004900002000000010410403140558502850292184800314000006804703   1020000200030000   333400010001204104000000281Myanmar Soft-Gate Tech Yangon        MMR11003140558502850290314000000000000000   10300001F05104100000000001029000000000000     
100   95050324247403260000000000010450000000010450002000000010410403141049494296413228680314408191718072   1030000300030000   444410125394104519000021221Myanmar Bakery CoLtd                 MMR11003141049494296410314000000000000000   10300001 00104100000000004442000000000000     
100   95050316818236190000000000001960000000001960002000000010410403140842291229427236280314000006805968   1020000200030000   333400010001204104000000281Myanmar Soft-Gate Tech Yangon        MMR11003140842291229420314000000000000000   10300001F05104100000000000412000000000000     
100   95030301100121680000000000020000000000020000002000000010410403140855502550952184800314000006806128   1030000200030000   333800010001203104000003327KBZPay                 Yangon        MMR11003140855502550950314000000000000000   10300001F05104100000000004200000000000000     
100   95050311740551900000000000100000000000100000002000000010410403140302523252742807920314000006803159   1030000200030000   333800010001203104000003327KBZPay                 Yangon        MMR11003140302523252740314000000000000000   10300001F05104100000000021000000000000000     
100   62443100330108240000000000004900000000004900002000000010410403141107163716094285490314000006807048   1020000200030000   333400010001204104000000281Myanmar Soft-Gate Tech Yangon        MMR11003141107163716090314000000000000000   10300001F05104100000000001029000000000000     
100   95050328137327770000000000020000000000020000002000000010410403140611184118375150240314000006804764   1030000200030000   333800010001203104000003327KBZPay                 Yangon        MMR11003140611184118370314000000000000000   10300001F05104100000000004200000000000000     
100   95050313062063490000000000004900000000004900002000000010410403140807473747061568120314000006805753   1020000200030000   333400010001204104000000281Myanmar Soft-Gate Tech Yangon        MMR11003140807473747060314000000000000000   10300001F05104100000000001029000000000000     
100   95050316124652250000000000025450000000025450002000000010410403140839014276212278830314584131528072   1030000500030000   555610110570104519000009164City Mart China Town P int Cen       MMR11003140839014276210314000000000000000   10300001 00104100000000006363000000000000     
100   62443100379321630000000000013800000000013800002000000010410403141036244294979583320314194111755072   1030000500030000   555610112532104519000010487Ocean Super Center St  ohn           MMR11003141036244294970314000000000000000   10300001 00104100000000003450000000000000     
100   95050317088336250000000000003000000000003000002000000010410403140304373437330559760314000006803177   1030000200030000   3338000100012031040000040022C2P (Myanmar) Co. Ltd Yangon        MMR11003140304373437330314000000000000000   10300001F05104100000000000630000000000000     
100   95050313968650950000000000000980000000000980002000000010410403141304393439268405760314000006807675   1020000200030000   333400010001204104000000281Myanmar Soft-Gate Tech Yangon        MMR11003141304393439260314000000000000000   10300001F05104100000000000206000000000000     
100   95050310427855490000000000001960000000001960002000000010410403140203513351006082940314000006802722   1020000200030000   333400010001204104000000281Myanmar Soft-Gate Tech Yangon        MMR11003140203513351000314000000000000000   10300001F05104100000000000412000000000000     
100   95050315743141220000000000000980000000000980002000000010410403140809543954890170920314000006805772   1020000200030000   333400010001204104000000281Myanmar Soft-Gate Tech Yangon        MMR11003140809543954890314000000000000000   10300001F05104100000000000206000000000000     
100   95030302100015820000000000008000000000008000002000000010410403140710274264692184800314019441307072   1030000500030000   555610110570104519000009164City Mart China Town P int Cen       MMR11003140710274264690314000000000000000   10300001 00104100000000000480000000000000     
100   62911028202163480000000000365880000000365880002000000010410403141008283828402184800314000006806670   1010000100030000   333500010001212104000002543Internal Revenue Depar Yangon        MMR11003141008283828400314000000000000000   10300001F05104100000000060000000000000000     
100   95050318180584510000000000020000000000020000002000000010410403140754392439179610900314000006805646   1030000200030000   333800010001203104000003327KBZPay                 Yangon        MMR11003140754392439170314000000000000000   10300001F05104100000000004200000000000000     
100   62911028202163480000000000286173000000286173002000000010410403141003553355872184800314000006806616   1010000100030000   333500010001212104000002543Internal Revenue Depar Yangon        MMR11003141003553355870314000000000000000   10300001F05104100000000060000000000000000     
100   95050310314438940000000000020000000000020000002000000010410403140505133513054276420314000006804240   1030000200030000   333800010001203104000003327KBZPay                 Yangon        MMR11003140505133513050314000000000000000   10300001F05104100000000004200000000000000     
100   62911028202684060000000000050250000000050250002000000010410403140842234276342184800314606141522072   1030000500030000   555610108843104519000003821City Mart North Point  enter         MMR11003140842234276340314000000000000000   10300001 00104100000000003015000000000000     
100   95050319161596230000000000000980000000000980002000000010410403140253502350159843330314000006803075   1020000200030000   333400010001204104000000281Myanmar Soft-Gate Tech Yangon        MMR11003140253502350150314000000000000000   10300001F05104100000000000206000000000000     
100   95050313145843230000000000050000000000050000002000000010410403141359222922944334930314000006807944   1030000200030000   333800010001203104000003327KBZPay                 Yangon        MMR11003141359222922940314000000000000000   10300001F05104100000000010500000000000000     
100   95050319156544340000000000002600000000002600002000000010410403140103514224948742800314927310755072   1030000300030000   555610125205104519000021068Capital Supermarket 2  Dagon         MMR11003140103514224940314000000000000000   10300001 00104100000000000650000000000000     
100   62911028202163480000000000478726000000478726002000000010410403140956232623402184800314000006806577   1010000100030000   333500010001212104000002543Internal Revenue Depar Yangon        MMR11003140956232623400314000000000000000   10300001F05104100000000060000000000000000     
100   95050325637546660000000000045211000000045211002000000010410403140739564267976476130314453101413072   1030000500030000   555610103969104519000003818Ocean Oattara Thiri Na PyiTaw        MMR11003140739564267970314000000000000000   10300001 00104100000000011303000000000000     
100   95050310676042860000000000010000000000010000002000000010410403141509043904402597350314000006808244   1030000200030000   333800010001203104000003327KBZPay                 Yangon        MMR11003141509043904400314000000000000000   10300001F05104100000000002100000000000000     
100   95050315345734110000000000002940000000002940002000000010410403140504503450762623940314000006804246   1020000200030000   333400010001204104000000281Myanmar Soft-Gate Tech Yangon        MMR11003140504503450760314000000000000000   10300001F05104100000000000617000000000000     
100   95050321455580800000000000025663000000025663002000000010410403140239304263527994070314866341356072   1030000500030000   555610110560104519000009163City Mart Ayeyarwon Br nch           MMR11003140239304263520314000000000000000   10300001 00104100000000006416000000000000     
100   62911028202520120000000000030000000000030000002000000010410403141018304291032184800314588471607072   1030000300030000   888810125458104519000021285Shwe Taung Energy CoLt               MMR11003141018304291030314000000000000000   10300001 00104100000000000900000000000000     
100   95050314893649800000000000003000000000003000002000000010410403140912254225111696940314000006806284   1030000200030000   3334000100012031040000040102C2P (Myanmar) Co. Ltd Yangon        MMR11003140912254225110314000000000000000   10300001F05104100000000000630000000000000     
100   62911028202674810000000000007500000000007500002000000010410403140417254240622184800314761451047072   1030000500030000   555610110599104519000009166City Mart 47 Branch                  MMR11003140417254240620314000000000000000   10300001 00104100000000000450000000000000     
100   95030301100125070000000000300000000000300000002000000010410403140851482148412184800314000006806092   1030000200030000   333800010001203104000003327KBZPay                 Yangon        MMR11003140851482148410314000000000000000   10300001F05104100000000063000000000000000     
100   95050320360851930000000000001960000000001960002000000010410403140155382538512522690314000006802666   1020000200030000   333400010001204104000000281Myanmar Soft-Gate Tech Yangon        MMR11003140155382538510314000000000000000   10300001F05104100000000000412000000000000     
100   95050313113158460000000000009800000000009800002000000010410403141303363336691710730314000006807673   1020000200030000   333400010001204104000000281Myanmar Soft-Gate Tech Yangon        MMR11003141303363336690314000000000000000   10300001F05104100000000002058000000000000     
100   62443101001072630000000000066000000000066000002000000010410403130819190000464487980313207214000046   1030000500030000   569120170301008205691201703ESCORT                 PTN           MMR11003130819190000460313000000000000000   10300001 00104100000000015840000000000000     
100   62911028202150190000000000015400000000015400002000000010410403110720560022212184800311207007002221   1030000600030000   581200001874315799420001244BLACK CANYON TC        KAMARYUT      MMR11003110720560022210311000000000000000   10300001 00104100000000001571000000000000     
100   62911028202154800000000000054442000000054442002000000010410403111007100088872184800311207010008887   1030000600030000   554100002323315799420000474DENKO N.DAGON - 1      YANGON        MMR11003111007100088870311000000000000000   10300001 00104100000000001633000000000000     
100   62911028202147150000000000026334000000026334002000000010410403110305250079062184800311207003007906   1030000600030000   581200000526315799420000143SIGNATURE FINEDINING 1 YANGON        MMR11003110305250079060311000000000000000   10300001 00104100000000002686000000000000     
100   95050326228858240000000000111000000000111000002000000010410403110651280076818578540311207006007681   1030000600030000   554100001237315799420000691DENKO AUNG PAN         KALAW.        MMR11003110651280076810311000000000000000   10300001 00104100000000013320000000000000     
100   62911028202023630000000000136000000000136000002000000010410403110851370042932184800311207008004293   1030000600030000   554100000744315799420000322DENKO AMARAPURA-PACHI  MANDALAY      MMR11003110851370042930311000000000000000   10300001 00104100000000004080000000000000     
100   62911028202029420000000000024150000000024150002000000010410403111130400003612184800311207011000361   1030000600030000   591200002214315799420001559365 PHARMACY 1         YANGON        MMR11003111130400003610311000000000000000   10300001 00104100000000001449000000000000     
100   95050318041680090000000000004200000000004200002000000010410403111617430023866819100311000744075320   1030000200030000   541188001188000008000000383KBZ BANK               OCEAN SUPER C MMR11003111617430023860311000000000000000   10300001 00104100000000001050000000000000     
100   95050312498129060000000000001960000000001960002000000010410403141304523452660058250314000006807677   1020000200030000   333400010001204104000000281Myanmar Soft-Gate Tech Yangon        MMR11003141304523452660314000000000000000   10300001F05104100000000000412000000000000     
100   95050326590859670000000000005500000000005500002000000010410403140607024255136802730314673351216072   1030000300030000   555510114367104519000012359MGOU IV                              MMR11003140607024255130314000000000000000   10300001 00104100000000001320000000000000     
100   95050312695033440000000000002940000000002940002000000010410403140345271527908204640314000006803518   1020000200030000   333400010001204104000000281Myanmar Soft-Gate Tech Yangon        MMR11003140345271527900314000000000000000   10300001F05104100000000000617000000000000     
100   95050311959900780000000000000980000000000980002000000010410403141611384138412937730314000006808471   1020000200030000   333400010001204104000000281Myanmar Soft-Gate Tech Yangon        MMR11003141611384138410314000000000000000   10300001F05104100000000000206000000000000     
100   95050318601641810000000000000979000000000979002000000010410403141552462246551285250314000006808418   1020000200030000   333400010001204104000000281Myanmar Soft-Gate Tech Yangon        MMR11003141552462246550314000000000000000   10300001F05104100000000000205000000000000     
100   95030301100125070000000000200000000000200000002000000010410403141306403640982184800314000006807683   1030000200030000   333800010001203104000003327KBZPay                 Yangon        MMR11003141306403640980314000000000000000   10300001F05104100000000042000000000000000     
100   95050326493030660000000000050000000000050000002000000010410403140753322332216305940314000006805632   1030000200030000   333800010001203104000003327KBZPay                 Yangon        MMR11003140753322332210314000000000000000   10300001F05104100000000010500000000000000     
100   95050320360851930000000000000980000000000980002000000010410403140200473047697309950314000006802703   1020000200030000   333400010001204104000000281Myanmar Soft-Gate Tech Yangon        MMR11003140200473047690314000000000000000   10300001F05104100000000000206000000000000     
100   62443101061229100000000004940000000004940000002000000010410403101057410000226662700310206910000022   1030000600030000   701100000977315799420000494LOTTE HOTELS & RESORTS YANGON        MMR11003101057410000220310000000000000000   10300001 00104100000002099500000000000000     
100   62443101076362230000000004940000000004940000002000000010410403101056020000211620150310206910000021   1030000600030000   701100000977315799420000494LOTTE HOTELS & RESORTS YANGON        MMR11003101056020000210310000000000000000   10300001 00104100000002099500000000000000     
100   95030305700676370000000000060000000000060000002000000010410403100531410151982184800310206905015198   1030000600030000   554100001212315799420000664DENKO TA TAR OO        TA TAR OO     MMR11003100531410151980310000000000000000   10300001 00104100000000001800000000000000     
100   95030305700676370000000000010000000000010000002000000010410403100533150151992184800310206905015199   1030000600030000   554100001212315799420000664DENKO TA TAR OO        TA TAR OO     MMR11003100533150151990310000000000000000   10300001 00104100000000000300000000000000     
100   95030305700676370000000000030000000000030000002000000010410403100712370046472184800310206907004647   1030000600030000   554100002141315799420001490DENKO MEIKHTILA 3      MANDALAY      MMR11003100712370046470310000000000000000   10300001 00104100000000000900000000000000     
100   95050326228858240000000000051500000000051500002000000010410403100838530337562391730310206908033756   1030000600030000   554100001106315799420000564DENKO PHYUU            PHYUU         MMR11003100838530337560310000000000000000   10300001 00104100000000006180000000000000     
100   62443100303702210000000000050000000000050000002000000010410403110444170396052740190311207004039605   1030000600030000   554100001756315799420001137DENKO NORTH DAGON 2    YANGON        MMR11003110444170396050311000000000000000   10300001 00104100000000006000000000000000     
100   62911028202752030000000000120060000000120060002000000010410403130358360004292184800313207210000429   1030000500030000   569120159601019505691201596MK FASHION SHOP        PTN           MMR11003130358360004290313000000000000000   10300001 00104100000000007204000000000000     
100   62911028202193670000000000212000000000212000002000000010410403140509463946882184800314000006804266   1010000100030000   333500010001212104000002840Internal Revenue Depar Yangon        MMR11003140509463946880314000000000000000   10300001F05104100000000060000000000000000     
100   95050315110306410000000000001960000000001960002000000010410403141514204420867980280314000006808251   1020000200030000   333400010001204104000000281Myanmar Soft-Gate Tech Yangon        MMR11003141514204420860314000000000000000   10300001F05104100000000000412000000000000     
100   95050314302558730000000000003920000000003920002000000010410403141325185518644420030314000006807767   1020000200030000   333400010001204104000000281Myanmar Soft-Gate Tech Yangon        MMR11003141325185518640314000000000000000   10300001F05104100000000000823000000000000     
100   62911028202359000000000000009900000000009900002000000010410403140419008905092184800314207311890509   1040001600030000   591220000626000000010000497AAA Pharmacy           Ygn           MMR11003140419008905090314000000000000000   10300001F00104100000000000594000000000000     
100   95050319156011610000000000000980000000000980002000000010410403141319384938276668190314000006807744   1020000200030000   333400010001204104000000281Myanmar Soft-Gate Tech Yangon        MMR11003141319384938270314000000000000000   10300001F05104100000000000206000000000000     
100   95030301100128610000000000300000000000300000002000000010410403141529015901972184800314000006808335   1030000200030000   333800010001203104000003327KBZPay                 Yangon        MMR11003141529015901970314000000000000000   10300001F05104100000000063000000000000000     
100   95050310332595380000000000000980000000000980002000000010410403140221075107668877340314000006802834   1020000200030000   333400010001204104000000281Myanmar Soft-Gate Tech Yangon        MMR11003140221075107660314000000000000000   10300001F05104100000000000206000000000000     
100   95050310427855490000000000000980000000000980002000000010410403140324005400374509850314000006803330   1020000200030000   333400010001204104000000281Myanmar Soft-Gate Tech Yangon        MMR11003140324005400370314000000000000000   10300001F05104100000000000206000000000000     
100   62443100359121590000000000015800000000015800002000000010410403130309030006133401230313207209000613   1030000500030000   591220013101014405912200131SHWE OHH PHARMACY      PTN           MMR11003130309030006130313000000000000000   10300001 00104100000000003792000000000000     
100   95030301100118480000000000038970000000038970002000000010410403130350240005382184800313000334880421   1030000300030000   591200000188000000000000093CB BANK                MEDICARE STOR MMR11003130350240005380313000000000000000   10300001F00104100000000002338000000000000     
100   62911028202150190000000000010400000000010400002000000010410403130716230004312184800313207213000431   1030000500030000   591220010701014405912200107SHWE OHH PHARMACY      PTN           MMR11003130716230004310313000000000000000   10300001 00104100000000000624000000000000     
100   95030394609966640000000000010165000000010165002000000010410403130556340046142184800313207212004614   1030000500030000   541120020902022205411200209ORANGE (HLAING)        PTN           MMR11003130556340046140313000000000000000   10300001 00104100000000000610000000000000     
100   95050313067820340000000000025000000000025000002000000010410403130941430007797963140313207216000779   1030000500030000   531120155807000045311201558GAMONE PWINT           PTN           MMR11003130941430007790313000000000000000   10300001 00104100000000006000000000000000     
100   62911028202533900000000000020000000000020000002000000010410403131037050085582184800313207217008558   1030000500030000   598320001404000015172200014MAX ENERGY             PTN           MMR11003131037050085580313000000000000000   10300001 00104100000000000600000000000000     
100   95030301100125070000000000101850000000101850002000000010410403130802390025502184800313207214002550   1030000500030000   503920036610000015039200366PRO-1 HOME CENTER      PTN           MMR11003130802390025500313000000000000000   10300001 00104100000000006111000000000000     
100   95030301100123250000000000008448000000008448002000000010410403130616150012732184800313207212001273   1030000500030000   531120156007000045311201560GAMONE PWINT           PTN           MMR11003130616150012730313000000000000000   10300001 00104100000000000507000000000000     
100   95050313497815710000000000010000000000010000002000000010410403141017364736646788940314000006806734   1030000200030000   333800010001203104000003327KBZPay                 Yangon        MMR11003141017364736640314000000000000000   10300001F05104100000000002100000000000000     
100   95050321798808970000000000020000000000020000002000000010410403140524525452092332990314000006804447   1030000200030000   333800010001203104000003327KBZPay                 Yangon        MMR11003140524525452090314000000000000000   10300001F05104100000000004200000000000000     
100   62443100372702000000000000147250000000147250002000000010410403141130514464300980520314398001851072   1030000900030000   541119001242190110000000955City Mart JS C 1       YANGONUT      MMR11003141130514464300314000000000000000   10300001F00104100000000036813000000000000     
100   95050326426352250000000000070300000000070300002000000010410403141418484848325987420314000006808027   1030000300030000   333800010001206104000001412INTERNET WALLET MYANMA Yangon        MMR11003141418484848320314000000000000000   10300001F05104100000000014763000000000000     
100   95050319006804440000000000000980000000000980002000000010410403140427075707203085070314000006803878   1020000200030000   333400010001204104000000281Myanmar Soft-Gate Tech Yangon        MMR11003140427075707200314000000000000000   10300001F05104100000000000206000000000000     
100   62911028202154800000000000117424000000117424002000000010410403141050494452442184800314610201749072   1030000900030000   541119001266190110000000958City Mart PLST C9      YANGONMYOTHIT MMR11003141050494452440314000000000000000   10300001F00104100000000007045000000000000     
100   95050312926040930000000000002940000000002940002000000010410403141324305430113278120314000006807776   1020000200030000   333400010001204104000000281Myanmar Soft-Gate Tech Yangon        MMR11003141324305430110314000000000000000   10300001F05104100000000000617000000000000     
100   95050319928585020000000000000980000000000980002000000010410403140823425342811647500314000006805857   1020000200030000   333400010001204104000000281Myanmar Soft-Gate Tech Yangon        MMR11003140823425342810314000000000000000   10300001F05104100000000000206000000000000     
100   62443100363668680000000000026100000000026100002000000010410403131205430032856615390313207218003285   1030000500030000   581220041801000055812200418SHWE LAR HOT POT       PTN           MMR11003131205430032850313000000000000000   10300001 00104100000000011093000000000000     
100   95050325925517520000000000040000000000040000002000000010410403130800120085253090780313207214008525   1030000500030000   598320001404000015172200014MAX ENERGY             PTN           MMR11003130800120085250313000000000000000   10300001 00104100000000004800000000000000     
100   62443100336591330000000000056905000000056905002000000010410403130841590023866055370313207215002386   1030000500030000   569120058001019505691200580MK FASHION SHOP        PTN           MMR11003130841590023860313000000000000000   10300001 00104100000000013657000000000000     
100   95050320205194540000000000044850000000044850002000000010410403130646210014708899200313207213001470   1030000500030000   591220013501014405912200135SHWE OHH PHARMACY      PTN           MMR11003130646210014700313000000000000000   10300001 00104100000000010764000000000000     
100   95030331635936620000000000021500000000021500002000000010410403131243510041492184800313207219004149   1030000500030000   598320041901000055983200419MAX ENERGY             PTN           MMR11003131243510041490313000000000000000   10300001 00104100000000000645000000000000     
100   62911028202472440000000000057000000000057000002000000010410403131245320085782184800313207219008578   1030000500030000   598320001404000015172200014MAX ENERGY             PTN           MMR11003131245320085780313000000000000000   10300001 00104100000000001710000000000000     
100   95050322312197120000000000571400000000571400002000000010410403130301510023961833840313207209002396   1030000500030000   503920036604000015039200366PRO-1 HOME CENTER      PTN           MMR11003130301510023960313000000000000000   10300001 00104100000000137136000000000000     
100   95050314248677090000000000020340000000020340002000000010410403131022450029722508900313000334928796   1030000300030000   806200000197000000000000097CB BANK                AUNG YADANA H MMR11003131022450029720313000000000000000   10300001F00104100000000004882000000000000     
100   95050316818236190000000000001960000000001960002000000010410403140628405840978029730314000006804960   1020000200030000   333400010001204104000000281Myanmar Soft-Gate Tech Yangon        MMR11003140628405840970314000000000000000   10300001F05104100000000000412000000000000     
100   62443100379116470000000000001960000000001960002000000010410403140327585758092942450314000006803362   1020000200030000   333400010001204104000000281Myanmar Soft-Gate Tech Yangon        MMR11003140327585758090314000000000000000   10300001F05104100000000000412000000000000     
100   95050319161596230000000000000980000000000980002000000010410403141116294629837845750314000006807100   1020000200030000   333400010001204104000000281Myanmar Soft-Gate Tech Yangon        MMR11003141116294629830314000000000000000   10300001F05104100000000000206000000000000     
100   95050316124652250000000000009800000000009800002000000010410403140926175617044576430314000006806389   1020000200030000   333400010001204104000000281Myanmar Soft-Gate Tech Yangon        MMR11003140926175617040314000000000000000   10300001F05104100000000002058000000000000     
100   62911028202193670000000000120800000000120800002000000010410403140527105710852184800314000006804436   1030000500030000   333800010001201104000003863AYA Pay                Yangon        MMR11003140527105710850314000000000000000   10300001F05104100000000025368000000000000     
100   62911028202243420000000000030550000000030550002000000010410403140755294405892184800314806251429072   1030000900030000   541119001284190110000000963City Mart SPL C 9      YANGONMYOTHIT MMR11003140755294405890314000000000000000   10300001F00104100000000001833000000000000     
100   95050313113158460000000000000980000000000980002000000010410403141322275227911625640314000006807760   1020000200030000   333400010001204104000000281Myanmar Soft-Gate Tech Yangon        MMR11003141322275227910314000000000000000   10300001F05104100000000000206000000000000     
100   62911028202193670000000000120960000000120960002000000010410403141625005500902184800314000006808502   1030000900030000   333800010001202104000003301uab bank               Yangon        MMR11003141625005500900314000000000000000   10300001F05104100000000025402000000000000     
100   62911028202031710000000000030000000000030000002000000010410403130944260144972184800313207216014497   1030000500030000   598320001401000015172200014MAX ENERGY             PTN           MMR11003130944260144970313000000000000000   10300001 00104100000000000900000000000000     
100   62911028202448030000000000030000000000030000002000000010410403130113090233942184800313207207023394   1030000500030000   598320001202000015172200012MAX ENERGY             PTN           MMR11003130113090233940313000000000000000   10300001 00104100000000000900000000000000     
100   62443100369813440000000000020000000000020000002000000010410403130136080233472245540313207208023347   1030000500030000   598320001301000015172200013MAX ENERGY             PTN           MMR11003130136080233470313000000000000000   10300001 00104100000000002400000000000000     
100   95050329252108030000000000018000000000018000002000000010410403130858500174962665300313207215017496   1030000500030000   598320002102000015172200021MAX ENERGY             PTN           MMR11003130858500174960313000000000000000   10300001 00104100000000002160000000000000     
100   62911028202655010000000000067000000000067000002000000010410403131048460201022184800313207217020102   1030000500030000   598320001602000015172200016MAX ENERGY             PTN           MMR11003131048460201020313000000000000000   10300001 00104100000000002010000000000000     
100   62911028202611530000000000030000000000030000002000000010410403131107150201042184800313207217020104   1030000500030000   598320001602000015172200016MAX ENERGY             PTN           MMR11003131107150201040313000000000000000   10300001 00104100000000000900000000000000     
100   62443100336591330000000000080000000000080000002000000010410403130705060144603260980313207213014460   1030000500030000   598320001401000015172200014MAX ENERGY             PTN           MMR11003130705060144600313000000000000000   10300001 00104100000000009600000000000000     
100   95030301100415710000000000015416000000015416002000000010410403131125260201092184800313207217020109   1030000500030000   598320001602000015172200016MAX ENERGY             PTN           MMR11003131125260201090313000000000000000   10300001 00104100000000000463000000000000     
100   62911028202212490000000000010100000000010100002000000010410403140403214353382184800314898331021072   1030000900030000   581219000715190110000000546Akkhaya Tea House(Dago YANGON        MMR11003140403214353380314000000000000000   10300001F00104100000000001030000000000000     
100   95050321057500320000000000004900000000004900002000000010410403141214044404370143350314000006807445   1020000200030000   333400010001204104000000281Myanmar Soft-Gate Tech Yangon        MMR11003141214044404370314000000000000000   10300001F05104100000000001029000000000000     
100   62911028202133520000000000011122000000011122002000000010410403141205154473172184800314974351815072   1030000900030000   541119001196190110000000942City Mart HDC C 11     YANGONUT      MMR11003141205154473170314000000000000000   10300001F00104100000000000667000000000000     
100   95050313497815710000000000010000000000010000002000000010410403141015544554960179000314000006806722   1030000200030000   333800010001203104000003327KBZPay                 Yangon        MMR11003141015544554960314000000000000000   10300001F05104100000000002100000000000000     
100   62911028202093430000000000000980000000000980002000000010410403141226575657032184800314000006807515   1020000200030000   333400010001204104000000281Myanmar Soft-Gate Tech Yangon        MMR11003141226575657030314000000000000000   10300001F05104100000000000206000000000000     
100   62911028202668140000000000056000000000056000002000000010410403141051594452832184800314633211759072   1030000900030000   554119001101190110000000213New Day Energy SOK     YANGONOKKALAP MMR11003141051594452830314000000000000000   10300001F00104100000000001680000000000000     
100   95050311959900780000000000000980000000000980002000000010410403140425385538471759180314000006803869   1020000200030000   333400010001204104000000281Myanmar Soft-Gate Tech Yangon        MMR11003140425385538470314000000000000000   10300001F05104100000000000206000000000000     
100   95050311541992990000000000200000000000200000002000000010410403140428505850668382900314000006803901   1030000200030000   333800010001203104000003327KBZPay                 Yangon        MMR11003140428505850660314000000000000000   10300001F05104100000000042000000000000000     
100   62911028202287980000000000020000000000020000002000000010410403130934370200512184800313207216020051   1030000500030000   598320001601000015172200016MAX ENERGY             PTN           MMR11003130934370200510313000000000000000   10300001 00104100000000000600000000000000     
100   62911028202212490000000000051000000000051000002000000010410403130533090228902184800313207212022890   1030000500030000   598320001201000015172200012MAX ENERGY             PTN           MMR11003130533090228900313000000000000000   10300001 00104100000000001530000000000000     
100   95050322921717110000000000020000000000020000002000000010410403130322500141067131680313207209014106   1030000500030000   598320002702000015172200027MAX ENERGY             PTN           MMR11003130322500141060313000000000000000   10300001 00104100000000002400000000000000     
100   95050313640946520000000000008400000000008400002000000010410403141026034292602086770314818561618072   1030000300030000   555610103657104519000003559Capital Hypermarket Da bon           MMR11003141026034292600314000000000000000   10300001 00104100000000002100000000000000     
100   62443100372702000000000000001900000000001900002000000010410403141453290125451732600314000744206576   1030000200030000   541188001306000008000000325KBZ BANK               CITY MART - A MMR11003141453290125450314000000000000000   10300001 00104100000000000475000000000000     
100   95050315439834520000000000020000000000020000002000000010410403140124295429933104570314000006802507   1030000200030000   333800010001203104000003327KBZPay                 Yangon        MMR11003140124295429930314000000000000000   10300001F05104100000000004200000000000000     
100   95050313067820340000000000054900000000054900002000000010410403140443221322992404300314000006804036   1030000200030000   333800010001203104000003327KBZPay                 Yangon        MMR11003140443221322990314000000000000000   10300001F05104100000000011529000000000000     
100   62911028202193670000000000630571000000630571002000000010410403141531120112722184800314000006808343   1010000100030000   333500010001212104000002840Internal Revenue Depar Yangon        MMR11003141531120112720314000000000000000   10300001F05104100000000060000000000000000     
100   95050315150726490000000000000980000000000980002000000010410403141328075807281115060314000006807789   1020000200030000   333400010001204104000000281Myanmar Soft-Gate Tech Yangon        MMR11003141328075807280314000000000000000   10300001F05104100000000000206000000000000     
100   62911028202163300000000000009950000000009950002000000010410403140706194395572184800314226361319072   1030000900030000   541119000120190110000000080Sein Gay Har BAK       YANGONADA     MMR11003140706194395570314000000000000000   10300001F00104100000000000597000000000000     
100   95050312926040930000000000002940000000002940002000000010410403140920355035191867140314000006806350   1020000200030000   333400010001204104000000281Myanmar Soft-Gate Tech Yangon        MMR11003140920355035190314000000000000000   10300001F05104100000000000617000000000000     
100   62911028202703370000000000019300000000019300002000000010410403140252094339692184800314274220909072   1030000900030000   541119001158190110000000930OCEAN HTY C 8          YANGONTHARYA  MMR11003140252094339690314000000000000000   10300001F00104100000000001158000000000000     
100   62911028202202580000000000010250000000010250002000000010410403140437584361462184800314319071158072   1030000900030000   591219000970190110000000777Shwe Ohh Pharmacy St ( YANGONAW      MMR11003140437584361460314000000000000000   10300001F00104100000000000615000000000000     
100   95030315490490030000000000026700000000026700002000000010410403140609124382552184800314504391212072   1030000900030000   541119001231190110000000951Marketplace KTY C 1    YANGONARTAUNG MMR11003140609124382550314000000000000000   10300001F00104100000000001602000000000000     
100   62911028202328650000000000013350000000013350002000000010410403140827294413512184800314230571429072   1030000900030000   541119000128190110000000082Sein Gay Har Super Cen YANGON        MMR11003140827294413510314000000000000000   10300001F00104100000000000801000000000000     
100   62911028202150190000000000040000000000040000002000000010410403140208158851822184800314207309885182   1040001600030000   598320000658000000010000527Shwe Taung Energy (YGN Yangon        MMR11003140208158851820314000000000000000   10300001F00104100000000001200000000000000     
100   95030333478847140000000000010450000000010450002000000010410403140420244240982184800314806481038072   1030000300030000   444410116806104519000014353BreadTalk JunctionCity               MMR11003140420244240980314000000000000000   10300001 00104100000000001066000000000000     
100   62911028202154800000000000050000000000050000002000000010410403100845580087272184800310206908008727   1030000600030000   554100002323315799420000474DENKO N.DAGON - 1      YANGON        MMR11003100845580087270310000000000000000   10300001 00104100000000001500000000000000     
100   95030301100124400000000000060000000000060000002000000010410403131118130000722184800313000334935844   1030000300030000   804300000082000000000000024CB BANK                UNITED VISION MMR11003131118130000720313000000000000000   10300001F00104100000000003600000000000000     
100   95030339867270590000000000004000000000004000002000000010410403140436130003802184800314000744190970   1030000200030000   591288001564000008000005050KBZ BANK               ORCHID(SOKL)  MMR11003140436130003800314000000000000000   10300001 00104100000000000240000000000000     
100   62443100315853220000000000075030000000075030002000000010410403141105010016019524810314000744190875   1030000200030000   541188001496000008000000399KBZ BANK               OCEAN SUPERCE MMR11003141105010016010314000000000000000   10300001 00104100000000018758000000000000     
100   95050322328337270000000000037550000000037550002000000010410403141613130031106484200314000744210545   1030000200030000   541188001465000008000000391KBZ BANK               OCEAN SUPER C MMR11003141613130031100314000000000000000   10300001 00104100000000009388000000000000     
100   95050310251874990000000000027879000000027879002000000010410403141403560042766986710314000744203737   1030000200030000   541188001440000008000000401KBZ BANK               OCEAN SUPERCE MMR11003141403560042760314000000000000000   10300001 00104100000000006970000000000000     
100   62911028202161240000000000015936000000015936002000000010410403141029080041772184800314000744188278   1030000200030000   541188001021000008000000298KBZ BANK               CITY MART - M MMR11003141029080041770314000000000000000   10300001 00104100000000000956000000000000     
100   62911028202078000000000000058200000000058200002000000010410403141120314461642184800314230501731072   1030000900030000   591219000693190110000000524Shwe Ohh Pharmacy ST-2 YANGON        MMR11003141120314461640314000000000000000   10300001F00104100000000003492000000000000     
100   95050319567821930000000000151000000000151000002000000010410403140919034903633179230314000006806325   1030000200030000   333800010001203104000003327KBZPay                 Yangon        MMR11003140919034903630314000000000000000   10300001F05104100000000031710000000000000     
100   95050311077567400000000000003000000000003000002000000010410403141118184818362803190314000006807116   1030000900030000   333400010001202104000002022ACS                    Yangon        MMR11003141118184818360314000000000000000   10300001F05104100000000000630000000000000     
100   95050314567755980000000000000950000000000950002000000010410403140926005600743434520314000006806392   1030000200030000   333800010001203104000003327KBZPay                 Yangon        MMR11003140926005600740314000000000000000   10300001F05104100000000000200000000000000     
100   95050317517212300000000000006300000000006300002000000010410403140342448890226807440314207310889022   1040001600030000   541120000584000000010000465Ocean Shwe Gone Daing  Yangon        MMR11003140342448890220314000000000000000   10300001F00104100000000001575000000000000     
100   95050317517212300000000000025750000000025750002000000010410403140419348905408794600314207311890540   1040001600030000   541120000559000000010000465Ocean Shwe Gone Daing  Yangon        MMR11003140419348905400314000000000000000   10300001F00104100000000006438000000000000     
100   95030301100118480000000000018450000000018450002000000010410403141113259135192184800314207318913519   1040001600030000   591220001006000000010000736Shwe Ohh Pharmacy (Kyi Ygn           MMR11003141113259135190314000000000000000   10300001F00104100000000001107000000000000     
100   62911028202122480000000000049850000000049850002000000010410403140845010059502184800314000744183861   1030000200030000   541188001023000008000000298KBZ BANK               CITY MART - M MMR11003140845010059500314000000000000000   10300001 00104100000000002991000000000000     
100   62911028202538950000000000050000000000050000002000000010410403140848311831832184800314000006806055   1030000500030000   333800010001201104000003863AYA Pay                Yangon        MMR11003140848311831830314000000000000000   10300001F05104100000000010500000000000000     
100   95050311736839760000000000000980000000000980002000000010410403132332170217549423570314000006802307   1020000200030000   333400010001204104000000281Myanmar Soft-Gate Tech Yangon        MMR11003132332170217540314000000000000000   10300001F05104100000000000206000000000000     
100   95050327531396450000000000009800000000009800002000000010410403140236420642971671730314000006802937   1020000200030000   333400010001204104000000281Myanmar Soft-Gate Tech Yangon        MMR11003140236420642970314000000000000000   10300001F05104100000000002058000000000000     
100   95050316321163940000000000006550000000006550002000000010410403140931240124412838850314000006806431   1030000200030000   333800010001203104000003327KBZPay                 Yangon        MMR11003140931240124410314000000000000000   10300001F05104100000000001376000000000000     
100   95030349489765520000000000010000000000010000002000000010410403140338010801852184800314000006803447   1030000200030000   333800010001203104000003327KBZPay                 Yangon        MMR11003140338010801850314000000000000000   10300001F05104100000000002100000000000000     
100   95050316949180000000000000002940000000002940002000000010410403141545111511556242710314000006808399   1020000200030000   333400010001204104000000281Myanmar Soft-Gate Tech Yangon        MMR11003141545111511550314000000000000000   10300001F05104100000000000617000000000000     
100   95050316438375580000000000280000000000280000002000000010410403140240321032436878750314000006802967   1030000200030000   333800010001203104000003327KBZPay                 Yangon        MMR11003140240321032430314000000000000000   10300001F05104100000000058800000000000000     
100   95050316601084530000000000000980000000000980002000000010410403140244201420498701430314000006802987   1020000200030000   333400010001204104000000281Myanmar Soft-Gate Tech Yangon        MMR11003140244201420490314000000000000000   10300001F05104100000000000206000000000000     
100   62911028202132040000000000047000000000047000002000000010410403140826569026342184800314207315902634   1040001600030000   598320000838000000010000600Regency Petrol Station Ygn           MMR11003140826569026340314000000000000000   10300001F00104100000000001410000000000000     
100   95050324250133010000000000010000000000010000002000000010410403141303019231921795830314207320923192   1040001600030000   598320000911000000010000662MMTM - Tamwe           Ygn           MMR11003141303019231920314000000000000000   10300001F00104100000000001200000000000000     
100   62911028202162640000000000051700000000051700002000000010410403131043130022132184800313207217002213   1030000500030000   591220132901008605912201329THEIK DI WIN SHOP      PTN           MMR11003131043130022130313000000000000000   10300001 00104100000000003102000000000000     
100   95030320529939180000000000100000000000100000002000000010410403141030284295582184800314284141743072   1030000500030000   888810109467104519000008486Max Energy CoLtd 3                   MMR11003141030284295580314000000000000000   10300001 00104100000000003000000000000000     
100   62911028202400660000000000049350000000049350002000000010410403141636300108512184800314000744211545   1030000200030000   541188001129000008000000296KBZ BANK               CITY MART - J MMR11003141636300108510314000000000000000   10300001 00104100000000002961000000000000     
100   95050322220807920000000000038659000000038659002000000010410403140543398949480510310314207312894948   1040001600030000   541120000557000000010000465Ocean Shwe Gone Daing  Yangon        MMR11003140543398949480314000000000000000   10300001F00104100000000009665000000000000     
100   95030394609966640000000000030000000000030000002000000010410403140523418937232184800314207312893723   1040001600030000   598320000658000000010000527Shwe Taung Energy (YGN Yangon        MMR11003140523418937230314000000000000000   10300001F00104100000000000900000000000000     
100   95050313113158460000000000006860000000006860002000000010410403141451252125735902320314000006808184   1020000200030000   333400010001204104000000281Myanmar Soft-Gate Tech Yangon        MMR11003141451252125730314000000000000000   10300001F05104100000000001441000000000000     
100   95050314950595330000000000001000000000001000002000000010410403140031180118974210830314000006802371   1030000200030000   3338000100012031040000040022C2P (Myanmar) Co. Ltd Yangon        MMR11003140031180118970314000000000000000   10300001F05104100000000000210000000000000     
100   62911028202616170000000000071032000000071032002000000010410403141957120297322184800314000744219702   1030000200030000   541188001024000008000000298KBZ BANK               CITY MART - M MMR11003141957120297320314000000000000000   10300001 00104100000000004262000000000000     
100   62911028202067520000000000001960000000001960002000000010410403141038110811312184800314000006806887   1020000200030000   333400010001204104000000281Myanmar Soft-Gate Tech Yangon        MMR11003141038110811310314000000000000000   10300001F05104100000000000412000000000000     
100   95050316785465380000000000000980000000000980002000000010410403141338260826742767540314000006807852   1020000200030000   333400010001204104000000281Myanmar Soft-Gate Tech Yangon        MMR11003141338260826740314000000000000000   10300001F05104100000000000206000000000000     
100   95050317728825080000000000087210000000087210002000000010410403141105070058467787230314000744190880   1030000200030000   569188000267000008000002252KBZ BANK               AMERICAN COLL MMR11003141105070058460314000000000000000   10300001 00104100000000020930000000000000     
100   62911028202108380000000000039410000000039410002000000010410403141332050050902184800314000744201526   1030000200030000   541188001084000008000000294KBZ BANK               CITY MART - J MMR11003141332050050900314000000000000000   10300001 00104100000000002365000000000000     
100   95030341448197210000000000007700000000007700002000000010410403141622530101632184800314000744210950   1030000200030000   541188001047000008000000010KBZ BANK               MARKETPLACE - MMR11003141622530101630314000000000000000   10300001 00104100000000000462000000000000     
100   95050312675525330000000000007500000000007500002000000010410403141031340134863569070314000006806828   1030000200030000   333800010001203104000003327KBZPay                 Yangon        MMR11003141031340134860314000000000000000   10300001F05104100000000001575000000000000     
100   62911028202532910000000000061250000000061250002000000010410403141238469212232184800314207319921223   1040001600030000   541120000563000000010000465Ocean Shwe Gone Daing  Yangon        MMR11003141238469212230314000000000000000   10300001F00104100000000003675000000000000     
100   62911028202419650000000000008400000000008400002000000010410403141004549077622184800314207317907762   1040001600030000   591220000301000000010000289Shwe Ohh Pharmacy (Yay Yangon        MMR11003141004549077620314000000000000000   10300001F00104100000000000504000000000000     
100   95050328866468050000000000016000000000016000002000000010410403131021130019127466350313207216001912   1030000500030000   569120069001008205691200690ESCORT                 PTN           MMR11003131021130019120313000000000000000   10300001 00104100000000003840000000000000     
100   62911028202777610000000000085000000000085000002000000010410403110110400088062184800311207001008806   1030000600030000   554100002323315799420000474DENKO N.DAGON - 1      YANGON        MMR11003110110400088060311000000000000000   10300001 00104100000000002550000000000000     
100   95050312695033440000000000000980000000000980002000000010410403140343071307683502480314000006803491   1020000200030000   333400010001204104000000281Myanmar Soft-Gate Tech Yangon        MMR11003140343071307680314000000000000000   10300001F05104100000000000206000000000000     
100   62911028202231380000000000030000000000030000002000000010410403130804330204762184800313207214020476   1030000500030000   598320001901000015172200019MAX ENERGY             PTN           MMR11003130804330204760313000000000000000   10300001 00104100000000000900000000000000     
100   62443101001072630000000000410000000000410000002000000010410403130724150008839870910313207213000883   1030000500030000   481220018401000024812200184SUPER MOBILE           PTN           MMR11003130724150008830313000000000000000   10300001 00104100000000098400000000000000     
100   62911028202023890000000000061000000000061000002000000010410403111156450641432184800311207011064143   1030000600030000   554100000957315799420000480DENKO N.DAGON - 3      YANGON        MMR11003111156450641430311000000000000000   10300001 00104100000000001830000000000000     
