100   95050314064416890000000000001960000000001960002000000010410403160350212021125193340316000006816405   1020000200030000   333400010001204104000000281Myanmar Soft-Gate Tech Yangon        MMR11003160350212021120316000000000000000   10300001F05104100000000000412000000000000     
100   95030301100129110000000000013700000000013700002000000010410403150648280026984052100315207413002698   1030000500030000   503920036610000015039200366PRO-1 HOME CENTER      PTN           MMR11003150648280026980315000000000000000   10300001 00104100000000000822000000000000     
100   95030301100319290000000000001960000000001960002000000010410403160328455845244052100316000006816277   1020000200030000   333400010001204104000000281Myanmar Soft-Gate Tech Yangon        MMR11003160328455845240316000000000000000   10300001F05104100000000000412000000000000     
100   95050319528093960000000000001960000000001960002000000010410403161429395939050561290316000006819099   1020000200030000   333400010001204104000000281Myanmar Soft-Gate Tech Yangon        MMR11003161429395939050316000000000000000   10300001F05104100000000000412000000000000     
100   95050315564078030000000000002940000000002940002000000010410403161219524952915545780316000006818582   1020000200030000   333400010001204104000000281Myanmar Soft-Gate Tech Yangon        MMR11003161219524952910316000000000000000   10300001F05104100000000000617000000000000     
100   62911028202169750000000000060647000000060647002000000010410403160854094526544052100316797251530074   1030000500030000   555610103479104519000003432City Mart Junction Zaw na 6          MMR11003160854094526540316000000000000000   10300001 00104100000000003639000000000000     
100   62443100364681690000000000004700000000004700002000000010410403160741504513430301450316965091449074   1030000500030000   555610112238104519000010487Ocean Super Center St  ohn           MMR11003160741504513430316000000000000000   10300001 00104100000000001175000000000000     
100   95050315110306410000000000001960000000001960002000000010410403160119534953715887130316000006815693   1020000200030000   333400010001204104000000281Myanmar Soft-Gate Tech Yangon        MMR11003160119534953710316000000000000000   10300001F05104100000000000412000000000000     
100   95050310314438940000000000009000000000009000002000000010410403160759272927087323060316000006817620   1030000200030000   333800010001203104000003327KBZPay                 Yangon        MMR11003160759272927080316000000000000000   10300001F05104100000000001890000000000000     
100   95050312554086980000000000019000000000019000002000000010410403160440114482869232930316580111105074   1030000500030000   555610122579104519000018896City Mart Hlaing Thar  ar            MMR11003160440114482860316000000000000000   10300001 00104100000000004750000000000000     
100   95050317376014640000000000038260000000038260002000000010410403161240284908533114180316329101928074   1030000900030000   541119001357190110000000977Ocean PZD C 11         YANGONAUNG    MMR11003161240284908530316000000000000000   10300001F00104100000000009565000000000000     
100   95030301100341540000000000010000000000010000002000000010410403161229525952004052100316000006818631   1030000200030000   333800010001203104000003327KBZPay                 Yangon        MMR11003161229525952000316000000000000000   10300001F05104100000000002100000000000000     
100   95050311718887830000000000040000000000040000002000000010410403160233160316159379180316000006815920   1030000200030000   333800010001203104000003327KBZPay                 Yangon        MMR11003160233160316150316000000000000000   10300001F05104100000000008400000000000000     
100   62911028202147720000000000057000000000057000002000000010410403151025570203954052100315207416020395   1030000500030000   598320001602000015172200016MAX ENERGY             PTN           MMR11003151025570203950315000000000000000   10300001 00104100000000001710000000000000     
100   62443100390038980000000000039870000000039870002000000010410403151252210014297245930315207419001429   1030000500030000   581220024101000015812200241SHWE LAR HOT POT       PTN           MMR11003151252210014290315000000000000000   10300001 00104100000000016945000000000000     
100   95050322158563070000000000040000000000040000002000000010410403150802220088574774900315207414008857   1030000500030000   598320001404000015172200014MAX ENERGY             PTN           MMR11003150802220088570315000000000000000   10300001 00104100000000004800000000000000     
100   62443100379321630000000000102000000000102000002000000010410403150656580239195837430315207413023919   1030000500030000   598320001202000015172200012MAX ENERGY             PTN           MMR11003150656580239190315000000000000000   10300001 00104100000000012240000000000000     
100   95050323722449090000000000004409000000004409002000000010410403160342531253514342340316000006816363   1020000200030000   333400010001204104000000281Myanmar Soft-Gate Tech Yangon        MMR11003160342531253510316000000000000000   10300001F05104100000000000926000000000000     
100   95050312498129060000000000000980000000000980002000000010410403161200573057563552910316000006818503   1020000200030000   333400010001204104000000281Myanmar Soft-Gate Tech Yangon        MMR11003161200573057560316000000000000000   10300001F05104100000000000206000000000000     
100   62443100300743690000000000095810000000095810002000000010410403161244260461389639060316207519046138   1040001600030000   581420000803000000010000579Jeff's Kitchen (Ahlone Yangon        MMR11003161244260461380316000000000000000   10300001F00104100000000011497000000000000     
100   95050314327553180000000000080000000000080000002000000010410403161047501750454659170316000006818258   1030000200030000   333800010001203104000003327KBZPay                 Yangon        MMR11003161047501750450316000000000000000   10300001F05104100000000016800000000000000     
100   95030307100064460000000000042000000000042000002000000010410403160415344781544052100316132451034074   1030000900030000   554119000345190110000000212New Day Energy PZD     YANGONAUNG    MMR11003160415344781540316000000000000000   10300001F00104100000000001260000000000000     
100   95050319528093960000000000000980000000000980002000000010410403160744241424414202120316000006817542   1020000200030000   333400010001204104000000281Myanmar Soft-Gate Tech Yangon        MMR11003160744241424410316000000000000000   10300001F05104100000000000206000000000000     
100   95050316818236190000000000000980000000000980002000000010410403161302163216156943540316000006818774   1020000200030000   333400010001204104000000281Myanmar Soft-Gate Tech Yangon        MMR11003161302163216150316000000000000000   10300001F05104100000000000206000000000000     
100   95050317376014640000000000000980000000000980002000000010410403161346291629002191950316000006818935   1020000200030000   333400010001204104000000281Myanmar Soft-Gate Tech Yangon        MMR11003161346291629000316000000000000000   10300001F05104100000000000206000000000000     
100   95050318951177660000000000045000000000045000002000000010410403161533310331012759990316000006819296   1030000200030000   333800010001203104000003327KBZPay                 Yangon        MMR11003161533310331010316000000000000000   10300001F05104100000000009450000000000000     
100   95050315099113150000000000000980000000000980002000000010410403161550562056031909070316000006819341   1020000200030000   333400010001204104000000281Myanmar Soft-Gate Tech Yangon        MMR11003161550562056030316000000000000000   10300001F05104100000000000206000000000000     
100   95050312498129060000000000000980000000000980002000000010410403160445241524182143640316000006816702   1020000200030000   333400010001204104000000281Myanmar Soft-Gate Tech Yangon        MMR11003160445241524180316000000000000000   10300001F05104100000000000206000000000000     
100   62911028202684060000000000019857000000019857002000000010410403160451544484544052100316814191154074   1030000500030000   555610104032104519000003821City Mart North Point  enter         MMR11003160451544484540316000000000000000   10300001 00104100000000001191000000000000     
100   95050310494988230000000000010000000000010000002000000010410403161340241024598716740316000006818911   1030000200030000   333800010001203104000003327KBZPay                 Yangon        MMR11003161340241024590316000000000000000   10300001F05104100000000002100000000000000     
100   95050311068653690000000000050000000000050000002000000010410403161545521552399284870316000006819331   1030000200030000   333800010001203104000003327KBZPay                 Yangon        MMR11003161545521552390316000000000000000   10300001F05104100000000010500000000000000     
100   95050315005801680000000000002940000000002940002000000010410403161113184318628935850316000006818337   1020000200030000   333400010001204104000000281Myanmar Soft-Gate Tech Yangon        MMR11003161113184318620316000000000000000   10300001F05104100000000000617000000000000     
100   95050315344668630000000000009400000000009400002000000010410403160503334486816686070316131321154074   1030000300030000   444410116806104519000014353BreadTalk JunctionCity               MMR11003160503334486810316000000000000000   10300001 00104100000000003995000000000000     
100   95050315099113150000000000000980000000000980002000000010410403160343131313417817500316000006816366   1020000200030000   333400010001204104000000281Myanmar Soft-Gate Tech Yangon        MMR11003160343131313410316000000000000000   10300001F05104100000000000206000000000000     
100   62911028202077010000000000000980000000000980002000000010410403161151012101924052100316000006818471   1020000200030000   333400010001204104000000281Myanmar Soft-Gate Tech Yangon        MMR11003161151012101920316000000000000000   10300001F05104100000000000206000000000000     
100   95050312498129060000000000002940000000002940002000000010410403160900403040142548470316000006817847   1020000200030000   333400010001204104000000281Myanmar Soft-Gate Tech Yangon        MMR11003160900403040140316000000000000000   10300001F05104100000000000617000000000000     
100   95050315345734110000000000004900000000004900002000000010410403160859552955125598130316000006817845   1020000200030000   333400010001204104000000281Myanmar Soft-Gate Tech Yangon        MMR11003160859552955120316000000000000000   10300001F05104100000000001029000000000000     
100   95050316818236190000000000001960000000001960002000000010410403161048331833136311650316000006818254   1020000200030000   333400010001204104000000281Myanmar Soft-Gate Tech Yangon        MMR11003161048331833130316000000000000000   10300001F05104100000000000412000000000000     
100   95050319156544340000000000000980000000000980002000000010410403160656452645425195670316000006817311   1020000200030000   333400010001204104000000281Myanmar Soft-Gate Tech Yangon        MMR11003160656452645420316000000000000000   10300001F05104100000000000206000000000000     
100   62911028202312890000000000026000000000026000002000000010410403160446214483464052100316655141123074   1030000500030000   888810121685104519000009666Max Energy CoLtd 5                   MMR11003160446214483460316000000000000000   10300001 00104100000000000780000000000000     
100   95050318805978240000000000012800000000012800002000000010410403160709504508356897590316243391345074   1030000500030000   555610122351104519000018696CityMartSupermarket Sh ePyiTha       MMR11003160709504508350316000000000000000   10300001 00104100000000003200000000000000     
100   95050317248519320000000000003500000000003500002000000010410403160415214521175971610316000006816543   1030000200030000   3338000100012031040000040022C2P (Myanmar) Co. Ltd Yangon        MMR11003160415214521170316000000000000000   10300001F05104100000000000735000000000000     
100   95050313396828960000000000004900000000004900002000000010410403160955522552716226550316000006818058   1020000200030000   333400010001204104000000281Myanmar Soft-Gate Tech Yangon        MMR11003160955522552710316000000000000000   10300001F05104100000000001029000000000000     
100   95050324622440820000000000009200000000009200002000000010410403160434314481878736290316433041150074   1030000500030000   555610114575104519000012532City Mart Ahlone Branc               MMR11003160434314481870316000000000000000   10300001 00104100000000002300000000000000     
100   95030333478847140000000000059190000000059190002000000010410403160943591044074052100316135910670085   1040001400030000   546210000143025462100000389STK Bakery Supply STK  akery Supply  MMR11003160943591044070316000000000000000   10300001 00104100000000003551000000000000     
100   62911028202117290000000000200000000000200000002000000010410403160444341434292184800316000006816689   1030000200030000   333800010001203104000003327KBZPay                 Yangon        MMR11003160444341434290316000000000000000   10300001F05104100000000042000000000000000     
100   95030301100216560000000000000980000000000980002000000010410403161334590459764052100316000006818889   1020000200030000   333400010001204104000000281Myanmar Soft-Gate Tech Yangon        MMR11003161334590459760316000000000000000   10300001F05104100000000000206000000000000     
100   62911028202192270000000000008000000000008000002000000010410403160204583458372184800316000006815834   1030000200030000   333800010001203104000003327KBZPay                 Yangon        MMR11003160204583458370316000000000000000   10300001F05104100000000001680000000000000     
100   95050320360851930000000000000980000000000980002000000010410403160105033503068154730316000006815657   1020000200030000   333400010001204104000000281Myanmar Soft-Gate Tech Yangon        MMR11003160105033503060316000000000000000   10300001F05104100000000000206000000000000     
100   95050316067768680000000000004900000000004900002000000010410403161514194419846660660316000006819253   1020000200030000   333400010001204104000000281Myanmar Soft-Gate Tech Yangon        MMR11003161514194419840316000000000000000   10300001F05104100000000001029000000000000     
100   62911028202440680000000000006150000000006150002000000010410403161106584550434052100316093351700074   1030000500030000   555610120970104519000017733City Express MCS 14                  MMR11003161106584550430316000000000000000   10300001 00104100000000000369000000000000     
100   62911028202788350000000000005000000000005000002000000010410403152216284628364052100316000006815510   1030000200030000   333800010001203104000003327KBZPay                 Yangon        MMR11003152216284628360316000000000000000   10300001F05104100000000001050000000000000     
100   62911028202029420000000000003900000000003900002000000010410403160719224826694052100316282491322074   1030000900030000   541119001283190110000000963City Mart SPL C 8      YANGONMYOTHIT MMR11003160719224826690316000000000000000   10300001F00104100000000000234000000000000     
100   62911028202808150000000000005400000000005400002000000010410403160734384830464052100316547041438074   1030000900030000   581219000931190110000000740Shwe Palin City Mall   YANGONAW      MMR11003160734384830460316000000000000000   10300001F00104100000000000551000000000000     
100   95030301100120440000000000071000000000071000002000000010410403161016534541184052100316814441656074   1030000300030000   555610103643104519000003559Capital Hypermarket Da bon           MMR11003161016534541180316000000000000000   10300001 00104100000000004260000000000000     
100   62443100364681690000000000049400000000049400002000000010410403161026344543069361330316074551617074   1030000500030000   555610110570104519000009164City Mart China Town P int Cen       MMR11003161026344543060316000000000000000   10300001 00104100000000012350000000000000     
100   95050318741700180000000000005100000000005100002000000010410403161249594566150064520316239191943074   1030000300030000   555510125555104519000021376One Stop Mart Shopping Mall021       MMR11003161249594566150316000000000000000   10300001 00104100000000001224000000000000     
100   62443100316099160000000000005400000000005400002000000010410403160713204825179593110316168431320074   1030000900030000   581219000528190110000000376Shwepalin (Hantharwadd YANGONUT      MMR11003160713204825170316000000000000000   10300001F00104100000000002295000000000000     
100   95050317903887690000000000002940000000002940002000000010410403160818244824662074690316000006817687   1020000200030000   333400010001204104000000281Myanmar Soft-Gate Tech Yangon        MMR11003160818244824660316000000000000000   10300001F05104100000000000617000000000000     
100   95050314567080940000000000020000000000020000002000000010410403161003274538612836490316453311643074   1030000500030000   555610122985104519000019269City Mart Supermarket  hanlyin       MMR11003161003274538610316000000000000000   10300001 00104100000000005000000000000000     
100   62911028202029420000000000063000000000063000002000000010410403160512434796024052100316151421143074   1030000900030000   554119000997190110000000803Puma Power SOKL        YANGONOKKALAP MMR11003160512434796020316000000000000000   10300001F00104100000000001890000000000000     
100   62911028202343170000000000005000000000005000002000000010410403161013124541652184800316887471620074   1030000500030000   555610103961104519000003818Ocean Oattara Thiri Na PyiTaw        MMR11003161013124541650316000000000000000   10300001 00104100000000000300000000000000     
100   62911028202105070000000000096000000000096000002000000010410403161029114543874052100316191591613074   1030000300030000   888810125458104519000021285Shwe Taung Energy CoLt               MMR11003161029114543870316000000000000000   10300001 00104100000000002880000000000000     
100   95050323481251170000000000040000000000040000002000000010410403161317474747843893880316000006818827   1030000200030000   333800010001203104000003327KBZPay                 Yangon        MMR11003161317474747840316000000000000000   10300001F05104100000000008400000000000000     
100   95050327192897240000000000013390000000013390002000000010410403160401594778221789440316906311059074   1030000900030000   541119000136190110000000083SeinGayHarParami Cente YANGON        MMR11003160401594778220316000000000000000   10300001F00104100000000003348000000000000     
100   95050312498129060000000000002940000000002940002000000010410403161215424542821815330316000006818570   1020000200030000   333400010001204104000000281Myanmar Soft-Gate Tech Yangon        MMR11003161215424542820316000000000000000   10300001F05104100000000000617000000000000     
100   95050317919176400000000000004000000000004000002000000010410403161203024560975120300316504331821074   1030000500030000   555610120946104519000017714City Mart Yuzana Dagon Seikkan       MMR11003161203024560970316000000000000000   10300001 00104100000000001000000000000000     
100   95030301100118480000000000031346000000031346002000000010410403160817504841552184800316355471450074   1030000900030000   541119001357190110000000977Ocean PZD C 11         YANGONAUNG    MMR11003160817504841550316000000000000000   10300001F00104100000000001881000000000000     
100   95030320108927800000000000110000000000110000002000000010410403160410274780104052100316027401027074   1030000900030000   592119000255190110000000150HtunHtunOo Liquor (May YANGONONE     MMR11003160410274780100316000000000000000   10300001F00104100000000006600000000000000     
100   62911028202676220000000000028000000000028000002000000010410403160738244831464052100316613081424074   1030000900030000   569119001500190110000001094Next Generation GCS Hl YANGONUT      MMR11003160738244831460316000000000000000   10300001F00104100000000001680000000000000     
100   95050322312885760000000000030000000000030000002000000010410403152315394539903033460316000006815532   1030000200030000   333800010001203104000003327KBZPay                 Yangon        MMR11003152315394539900316000000000000000   10300001F05104100000000006300000000000000     
100   95050313497815710000000000005000000000005000002000000010410403161115384538045971260316000006818341   1030000200030000   333800010001203104000003327KBZPay                 Yangon        MMR11003161115384538040316000000000000000   10300001F05104100000000001050000000000000     
100   62443100379321630000000000245300000000245300002000000010410403161101314549639106040316982301723074   1030000500030000   555610112249104519000010487Ocean Super Center St  ohn           MMR11003161101314549630316000000000000000   10300001 00104100000000061325000000000000     
100   62443100379321630000000000045000000000045000002000000010410403161108234551053978400316179371756074   1030000500030000   555610112254104519000010487Ocean Super Center St  ohn           MMR11003161108234551050316000000000000000   10300001 00104100000000011250000000000000     
100   95050328866468050000000000022100000000022100002000000010410403160929534859203432170316624591553074   1030000900030000   541119000145190110000000083SeinGayHarParami Cente YANGON        MMR11003160929534859200316000000000000000   10300001F00104100000000005525000000000000     
100   95050319938772870000000000001960000000001960002000000010410403161219574957573808200316000006818584   1020000200030000   333400010001204104000000281Myanmar Soft-Gate Tech Yangon        MMR11003161219574957570316000000000000000   10300001F05104100000000000412000000000000     
100   95030385550669610000000000015800000000015800002000000010410403161029034875164052100316856591603074   1030000900030000   541119000816190110000000178Pro (1) Global (East D YANGONMYOTHIT MMR11003161029034875160316000000000000000   10300001F00104100000000000948000000000000     
100   95030352597917530000000000010000000000010000002000000010410403160427455745352184800316000006816604   1030000200030000   333800010001203104000003327KBZPay                 Yangon        MMR11003160427455745350316000000000000000   10300001F05104100000000002100000000000000     
100   95050310608512070000000000004900000000004900002000000010410403160728255825810869530316000006817458   1020000200030000   333400010001204104000000281Myanmar Soft-Gate Tech Yangon        MMR11003160728255825810316000000000000000   10300001F05104100000000001029000000000000     
100   95050322823372070000000000027604000000027604002000000010410403161026484543057708840316073551616074   1030000300030000   444410113680104519000011776The Pizza Company Rest urant         MMR11003161026484543050316000000000000000   10300001 00104100000000011732000000000000     
100   95050311382087030000000000003920000000003920002000000010410403160828315831845975320316000006817726   1020000200030000   333400010001204104000000281Myanmar Soft-Gate Tech Yangon        MMR11003160828315831840316000000000000000   10300001F05104100000000000823000000000000     
100   95050310427855490000000000001960000000001960002000000010410403161526115611932334530316000006819286   1020000200030000   333400010001204104000000281Myanmar Soft-Gate Tech Yangon        MMR11003161526115611930316000000000000000   10300001F05104100000000000412000000000000     
100   62911028202091860000000000005880000000005880002000000010410403161219074907074052100316000006818577   1020000200030000   333400010001204104000000281Myanmar Soft-Gate Tech Yangon        MMR11003161219074907070316000000000000000   10300001F05104100000000001235000000000000     
100   95050312287957830000000000040000000000040000002000000010410403161101204884777368460316620311720074   1030000900030000   541119001353190110000000977Ocean PZD C 7          YANGONAUNG    MMR11003161101204884770316000000000000000   10300001F00104100000000010000000000000000     
100   95050310616516480000000000001960000000001960002000000010410403161227385738662155720316000006818606   1020000200030000   333400010001204104000000281Myanmar Soft-Gate Tech Yangon        MMR11003161227385738660316000000000000000   10300001F05104100000000000412000000000000     
100   62911028202192270000000000021000000000021000002000000010410403161228405840614052100316000006818615   1030000200030000   333800010001203104000003327KBZPay                 Yangon        MMR11003161228405840610316000000000000000   10300001F05104100000000004410000000000000     
100   95030382736894330000000000110000000000110000002000000010410403160752024519754052100316873451416074   1030000300030000   555510100188104519000000183United Vision 1                      MMR11003160752024519750316000000000000000   10300001 00104100000000006600000000000000     
100   95030301100120440000000000012100000000012100002000000010410403161107454551804052100316285411751074   1030000300030000   444410100542104519000000531YKKO (Thingangyun)                   MMR11003161107454551800316000000000000000   10300001 00104100000000001234000000000000     
100   95050314307746340000000000000980000000000980002000000010410403161321205120673042870316000006818844   1020000200030000   333400010001204104000000281Myanmar Soft-Gate Tech Yangon        MMR11003161321205120670316000000000000000   10300001F05104100000000000206000000000000     
100   95050316717221100000000000000980000000000980002000000010410403160521205120707962450316000006816891   1020000200030000   333400010001204104000000281Myanmar Soft-Gate Tech Yangon        MMR11003160521205120700316000000000000000   10300001F05104100000000000206000000000000     
100   95050314327553180000000000010000000000010000002000000010410403161049051905821354200316000006818263   1030000200030000   333800010001203104000003327KBZPay                 Yangon        MMR11003161049051905820316000000000000000   10300001F05104100000000002100000000000000     
100   95050313497815710000000000020000000000020000002000000010410403160758352835754273390316000006817619   1030000200030000   333800010001203104000003327KBZPay                 Yangon        MMR11003160758352835750316000000000000000   10300001F05104100000000004200000000000000     
100   62911028202788350000000000005000000000005000002000000010410403151657222722872184800316000006815306   1030000200030000   333800010001203104000003327KBZPay                 Yangon        MMR11003151657222722870316000000000000000   10300001F05104100000000001050000000000000     
100   95050315345734110000000000000980000000000980002000000010410403161343211321065241570316000006818922   1020000200030000   333400010001204104000000281Myanmar Soft-Gate Tech Yangon        MMR11003161343211321060316000000000000000   10300001F05104100000000000206000000000000     
100   95050316901496590000000000018042000000018042002000000010410403161140310403606942980316207518040360   1040001600030000   541120000560000000010000465Ocean Shwe Gone Daing  Yangon        MMR11003161140310403600316000000000000000   10300001F00104100000000004511000000000000     
100   95050313145843230000000000015000000000015000002000000010410403160238470847232854340316000006815955   1030000200030000   333800010001203104000003327KBZPay                 Yangon        MMR11003160238470847230316000000000000000   10300001F05104100000000003150000000000000     
100   95050322312885760000000000010000000000010000002000000010410403160738470847776400820316000006817513   1030000200030000   333800010001203104000003327KBZPay                 Yangon        MMR11003160738470847770316000000000000000   10300001F05104100000000002100000000000000     
100   95050312498129060000000000000980000000000980002000000010410403161343481348015667120316000006818924   1020000200030000   333400010001204104000000281Myanmar Soft-Gate Tech Yangon        MMR11003161343481348010316000000000000000   10300001F05104100000000000206000000000000     
100   62911028202448030000000000150000000000150000002000000010410403150403420233022184800315207410023302   1030000500030000   598320001201000015172200012MAX ENERGY             PTN           MMR11003150403420233020315000000000000000   10300001 00104100000000004500000000000000     
100   95050329252108030000000000010000000000010000002000000010410403151322160043484761850315207419004348   1030000500030000   598320041901000055983200419MAX ENERGY             PTN           MMR11003151322160043480315000000000000000   10300001 00104100000000001200000000000000     
100   62911028202500810000000000031000000000031000002000000010410403150920420088754052100315207415008875   1030000500030000   598320001404000015172200014MAX ENERGY             PTN           MMR11003150920420088750315000000000000000   10300001 00104100000000000930000000000000     
100   62911028202078000000000000089100000000089100002000000010410403160104570070844052100316207508007084   1040001600030000   591220000258000000010000246Shwe Ohh Pharmacy (Sin Yangon        MMR11003160104570070840316000000000000000   10300001F00104100000000005346000000000000     
100   62911028202908480000000000020000000000020000002000000010410403160230500050482184800316000006815910   1030000200030000   333800010001203104000003327KBZPay                 Yangon        MMR11003160230500050480316000000000000000   10300001F05104100000000004200000000000000     
100   95050319938772870000000000001960000000001960002000000010410403161331380138533468330316000006818875   1020000200030000   333400010001204104000000281Myanmar Soft-Gate Tech Yangon        MMR11003161331380138530316000000000000000   10300001F05104100000000000412000000000000     
100   95050312878706670000000000005000000000005000002000000010410403160931480148691779680316000006817979   1030000200030000   3334000100012031040000040102C2P (Myanmar) Co. Ltd Yangon        MMR11003160931480148690316000000000000000   10300001F05104100000000001050000000000000     
100   95050319528093960000000000000980000000000980002000000010410403161433460346309710330316000006819117   1020000200030000   333400010001204104000000281Myanmar Soft-Gate Tech Yangon        MMR11003161433460346300316000000000000000   10300001F05104100000000000206000000000000     
100   62911028202685470000000000110000000000110000002000000010410403161035050346484052100316207517034648   1040001600030000   806220000001000000010000001Victoria Hospital      Yangon        MMR11003161035050346480316000000000000000   10300001F00104100000000006600000000000000     
100   95050314567080940000000000000980000000000980002000000010410403160134000400307433260316000006815738   1020000200030000   333400010001204104000000281Myanmar Soft-Gate Tech Yangon        MMR11003160134000400300316000000000000000   10300001F05104100000000000206000000000000     
100   95050319528093960000000000001960000000001960002000000010410403161432210221607086170316000006819112   1020000200030000   333400010001204104000000281Myanmar Soft-Gate Tech Yangon        MMR11003161432210221600316000000000000000   10300001F05104100000000000412000000000000     
100   62911028202593140000000000040000000000040000002000000010410403160948040313802184800316207516031380   1040001600030000   598320000838000000010000600Regency Petrol Station Ygn           MMR11003160948040313800316000000000000000   10300001F00104100000000001200000000000000     
100   62911028202593140000000000010000000000010000002000000010410403160948390314124052100316207516031412   1040001600030000   598320000838000000010000600Regency Petrol Station Ygn           MMR11003160948390314120316000000000000000   10300001F00104100000000000300000000000000     
100   62911028202031480000000000007000000000007000002000000010410403160535070192804052100316207512019280   1040001600030000   598320000914000000010000663MMTM - Ywarma          Ygn           MMR11003160535070192800316000000000000000   10300001F00104100000000000210000000000000     
100   95030333478847140000000000042200000000042200002000000010410403160805270266864052100316207515026686   1040001600030000   541120000557000000010000465Ocean Shwe Gone Daing  Yangon        MMR11003160805270266860316000000000000000   10300001F00104100000000002532000000000000     
100   62911028202169750000000000036500000000036500002000000010410403160717490246074052100316207514024607   1040001600030000   598320000838000000010000600Regency Petrol Station Ygn           MMR11003160717490246070316000000000000000   10300001F00104100000000001095000000000000     
100   95030303100044290000000000014200000000014200002000000010410403160659000238244052100316207513023824   1040001600030000   541120000567000000010000465Ocean Shwe Gone Daing  Yangon        MMR11003160659000238240316000000000000000   10300001F00104100000000000852000000000000     
100   62911028202169750000000000006100000000006100002000000010410403160727480250522184800316207514025052   1040001600030000   541120000584000000010000465Ocean Shwe Gone Daing  Yangon        MMR11003160727480250520316000000000000000   10300001F00104100000000000366000000000000     
100   62443100378093870000000000019750000000019750002000000010410403160933570306870127200316207516030687   1040001600030000   541120000561000000010000465Ocean Shwe Gone Daing  Yangon        MMR11003160933570306870316000000000000000   10300001F00104100000000004938000000000000     
100   95050327936713000000000000020000000000020000002000000010410403161133420342920333040316000006818405   1030000200030000   333800010001203104000003327KBZPay                 Yangon        MMR11003161133420342920316000000000000000   10300001F05104100000000004200000000000000     
100   62911028202594880000000000077650000000077650002000000010410403160335040135214052100316207510013521   1040001600030000   591220000270000000010000258Shwe Ohh Pharmacy (U C Yangon        MMR11003160335040135210316000000000000000   10300001F00104100000000004659000000000000     
100   95030301100157400000000000000980000000000980002000000010410403161332420242814052100316000006818878   1020000200030000   333400010001204104000000281Myanmar Soft-Gate Tech Yangon        MMR11003161332420242810316000000000000000   10300001F05104100000000000206000000000000     
100   62911028202169750000000000026648000000026648002000000010410403160808480268174052100316207515026817   1040001600030000   541120000557000000010000465Ocean Shwe Gone Daing  Yangon        MMR11003160808480268170316000000000000000   10300001F00104100000000001599000000000000     
100   62443100313529540000000000010000000000010000002000000010410403151733560356070550250316000006815351   1030000200030000   333800010001203104000003327KBZPay                 Yangon        MMR11003151733560356070316000000000000000   10300001F05104100000000002100000000000000     
100   62911028202108530000000000067782000000067782002000000010410403160342250138134052100316207510013813   1040001600030000   598320000310000000010000298PT Power Petrol Statio Yangon        MMR11003160342250138130316000000000000000   10300001F00104100000000002034000000000000     
100   95050324250133010000000000010000000000010000002000000010410403161014310330342751390316207517033034   1040001600030000   598320000911000000010000662MMTM - Tamwe           Ygn           MMR11003161014310330340316000000000000000   10300001F00104100000000001200000000000000     
100   95050312845568060000000000100000000000100000002000000010410403160758572857857748560316000006817601   1030000200030000   333800010001203104000003327KBZPay                 Yangon        MMR11003160758572857850316000000000000000   10300001F05104100000000021000000000000000     
100   95050317376014640000000000000980000000000980002000000010410403161559022902508433900316000006819350   1020000200030000   333400010001204104000000281Myanmar Soft-Gate Tech Yangon        MMR11003161559022902500316000000000000000   10300001F05104100000000000206000000000000     
100   95050311959900780000000000002940000000002940002000000010410403160214134413038882400316000006815872   1020000200030000   333400010001204104000000281Myanmar Soft-Gate Tech Yangon        MMR11003160214134413030316000000000000000   10300001F05104100000000000617000000000000     
100   95050313113158460000000000004900000000004900002000000010410403161514514451793185540316000006819257   1020000200030000   333400010001204104000000281Myanmar Soft-Gate Tech Yangon        MMR11003161514514451790316000000000000000   10300001F05104100000000001029000000000000     
100   95030382736894330000000000264000000000264000002000000010410403160711484512124052100316775031410074   1030000300030000   555510100188104519000000183United Vision 1                      MMR11003160711484512120316000000000000000   10300001 00104100000000015840000000000000     
100   62911028202631420000000000087900000000087900002000000010410403160754574516094052100316354231451074   1030000300030000   555510124364104519000020166Makro Myanmar                        MMR11003160754574516090316000000000000000   10300001 00104100000000005274000000000000     
100   62443100378093870000000000030600000000030600002000000010410403160758224516518102750316410261424074   1030000300030000   555510120538104519000017437Art and T8                           MMR11003160758224516510316000000000000000   10300001 00104100000000007344000000000000     
100   62443101003317490000000000044550000000044550002000000010410403161318090489726518040316207520048972   1040001600030000   581420000804000000010000580Jeff's Kitchen (Kan Ye Yangon        MMR11003161318090489720316000000000000000   10300001F00104100000000005346000000000000     
100   95050317317598540000000000100000000000100000002000000010410403160846431643579871910316000006817797   1030000200030000   333800010001203104000003327KBZPay                 Yangon        MMR11003160846431643570316000000000000000   10300001F05104100000000021000000000000000     
100   95050310902464360000000000006860000000006860002000000010410403160154002400631351920316000006815785   1020000200030000   333400010001204104000000281Myanmar Soft-Gate Tech Yangon        MMR11003160154002400630316000000000000000   10300001F05104100000000001441000000000000     
100   95030333478847140000000000066000000000066000002000000010410403160637284502644052100316435061316074   1030000300030000   555510124690104519000020166Makro Myanmar                        MMR11003160637284502640316000000000000000   10300001 00104100000000003960000000000000     
100   95050313396828960000000000002940000000002940002000000010410403160034470447946880840316000006815597   1020000200030000   333400010001204104000000281Myanmar Soft-Gate Tech Yangon        MMR11003160034470447940316000000000000000   10300001F05104100000000000617000000000000     
100   62911028202788350000000000010000000000010000002000000010410403160242091209704052100316000006815976   1030000200030000   333800010001203104000003327KBZPay                 Yangon        MMR11003160242091209700316000000000000000   10300001F05104100000000002100000000000000     
100   95050316785465380000000000000980000000000980002000000010410403161302543254827369000316000006818779   1020000200030000   333400010001204104000000281Myanmar Soft-Gate Tech Yangon        MMR11003161302543254820316000000000000000   10300001F05104100000000000206000000000000     
100   62911028202468650000000000055000000000055000002000000010410403160633434501894052100316329011346074   1030000300030000   555510124694104519000020166Makro Myanmar                        MMR11003160633434501890316000000000000000   10300001 00104100000000003300000000000000     
100   95030333478847140000000000084500000000084500002000000010410403161237470455714052100316207519045571   1040001600030000   541120000575000000010000465Ocean Shwe Gone Daing  Yangon        MMR11003161237470455710316000000000000000   10300001F00104100000000005070000000000000     
100   62911028202192270000000000002000000000002000002000000010410403160742571257754052100316000006817534   1030000200030000   333800010001203104000003327KBZPay                 Yangon        MMR11003160742571257750316000000000000000   10300001F05104100000000000420000000000000     
100   95050318242219520000000000000980000000000980002000000010410403160700113011315621170316000006817329   1020000200030000   333400010001204104000000281Myanmar Soft-Gate Tech Yangon        MMR11003160700113011310316000000000000000   10300001F05104100000000000206000000000000     
100   95050318057347910000000000002940000000002940002000000010410403161414534453560135830316000006819050   1020000200030000   333400010001204104000000281Myanmar Soft-Gate Tech Yangon        MMR11003161414534453560316000000000000000   10300001F05104100000000000617000000000000     
100   95050315053846650000000000050000000000050000002000000010410403161045361536826396750316000006818245   1030000200030000   333800010001203104000003327KBZPay                 Yangon        MMR11003161045361536820316000000000000000   10300001F05104100000000010500000000000000     
100   95050315398070120000000000010000000000010000002000000010410403160446191619036469770316000006816706   1030000200030000   333800010001203104000003327KBZPay                 Yangon        MMR11003160446191619030316000000000000000   10300001F05104100000000002100000000000000     
100   95050312240830690000000000004900000000004900002000000010410403161454532453326235160316000006819185   1020000200030000   333400010001204104000000281Myanmar Soft-Gate Tech Yangon        MMR11003161454532453320316000000000000000   10300001F05104100000000001029000000000000     
100   95050314570621780000000000000980000000000980002000000010410403161101033103327453560316000006818297   1020000200030000   333400010001204104000000281Myanmar Soft-Gate Tech Yangon        MMR11003161101033103320316000000000000000   10300001F05104100000000000206000000000000     
100   95030302100062270000000000056550000000056550002000000010410403160655144506094052100316932261308074   1030000300030000   555510124364104519000020166Makro Myanmar                        MMR11003160655144506090316000000000000000   10300001 00104100000000003393000000000000     
100   95050312695033440000000000000980000000000980002000000010410403160146521652352256120316000006815769   1020000200030000   333400010001204104000000281Myanmar Soft-Gate Tech Yangon        MMR11003160146521652350316000000000000000   10300001F05104100000000000206000000000000     
100   95050316067768680000000000001960000000001960002000000010410403161242261226793539690316000006818682   1020000200030000   333400010001204104000000281Myanmar Soft-Gate Tech Yangon        MMR11003161242261226790316000000000000000   10300001F05104100000000000412000000000000     
100   95050315743141220000000000000980000000000980002000000010410403161358312831473611000316000006818977   1020000200030000   333400010001204104000000281Myanmar Soft-Gate Tech Yangon        MMR11003161358312831470316000000000000000   10300001F05104100000000000206000000000000     
100   95050325455962190000000000001960000000001960002000000010410403161013414341111098910316000006818125   1020000200030000   333400010001204104000000281Myanmar Soft-Gate Tech Yangon        MMR11003161013414341110316000000000000000   10300001F05104100000000000412000000000000     
100   62911028202788350000000000005000000000005000002000000010410403152338450845044052100316000006815543   1030000200030000   333800010001203104000003327KBZPay                 Yangon        MMR11003152338450845040316000000000000000   10300001F05104100000000001050000000000000     
100   95050312160676580000000000000980000000000980002000000010410403161140031003001900430316000006818424   1020000200030000   333400010001204104000000281Myanmar Soft-Gate Tech Yangon        MMR11003161140031003000316000000000000000   10300001F05104100000000000206000000000000     
100   95050312240830690000000000002940000000002940002000000010410403160500253025113636360316000006816771   1020000200030000   333400010001204104000000281Myanmar Soft-Gate Tech Yangon        MMR11003160500253025110316000000000000000   10300001F05104100000000000617000000000000     
100   62911028202105070000000000017342000000017342002000000010410403160652014505022184800316767201310074   1030000500030000   555610114570104519000012532City Mart Ahlone Branc               MMR11003160652014505020316000000000000000   10300001 00104100000000001041000000000000     
100   62911028202808150000000000017200000000017200002000000010410403160727344511064052100316625551334074   1030000500030000   555610112240104519000010487Ocean Super Center St  ohn           MMR11003160727344511060316000000000000000   10300001 00104100000000001032000000000000     
100   95050318741700180000000000000980000000000980002000000010410403160645431543898670830316000006817258   1020000200030000   333400010001204104000000281Myanmar Soft-Gate Tech Yangon        MMR11003160645431543890316000000000000000   10300001F05104100000000000206000000000000     
100   62443100389971990000000000010000000000010000002000000010410403160447471747956044260316000006816714   1030000200030000   333800010001203104000003327KBZPay                 Yangon        MMR11003160447471747950316000000000000000   10300001F05104100000000002100000000000000     
100   95050312498129060000000000000980000000000980002000000010410403160455432543727320730316000006816754   1020000200030000   333400010001204104000000281Myanmar Soft-Gate Tech Yangon        MMR11003160455432543720316000000000000000   10300001F05104100000000000206000000000000     
100   95050310902464360000000000004900000000004900002000000010410403160156182618181759350316000006815796   1020000200030000   333400010001204104000000281Myanmar Soft-Gate Tech Yangon        MMR11003160156182618180316000000000000000   10300001F05104100000000001029000000000000     
100   62911028202808150000000000001500000000001500002000000010410403160659494513384052100316957091434074   1030000500030000   555610112250104519000010487Ocean Super Center St  ohn           MMR11003160659494513380316000000000000000   10300001 00104100000000000090000000000000     
100   95050327409540490000000000021800000000021800002000000010410403140817090019037752570314207314001903   1030000500030000   531120155802000045311201558GAMONE PWINT           PTN           MMR11003140817090019030314000000000000000   10300001 00104100000000005232000000000000     
100   95050320928153430000000000026500000000026500002000000010410403150905340002638109810315207415000263   1030000500030000   531120155603000045311201556GAMONE PWINT           PTN           MMR11003150905340002630315000000000000000   10300001 00104100000000006360000000000000     
100   95030346645639490000000000079150000000079150002000000010410403150521110013394052200315207411001339   1030000500030000   531120155712000045311201557GAMONE PWINT           PTN           MMR11003150521110013390315000000000000000   10300001 00104100000000004749000000000000     
100   62911028202616170000000000012700000000012700002000000010410403150944190003482184800315207416000348   1030000500030000   481220165901000045812201659CHESTER                PTN           MMR11003150944190003480315000000000000000   10300001 00104100000000000762000000000000     
100   95030378062733680000000000060000000000060000002000000010410403150438320014752184800315207411001475   1030000500030000   598320101301005405983201013PT POWER (NPT)         PTN           MMR11003150438320014750315000000000000000   10300001 00104100000000001800000000000000     
100   95050320928153430000000000026650000000026650002000000010410403150926510008228889500315207415000822   1030000500030000   531120155604000045311201556GAMONE PWINT           PTN           MMR11003150926510008220315000000000000000   10300001 00104100000000006396000000000000     
100   62911028202189480000000000057750000000057750002000000010410403150741220007954052100315207414000795   1030000500030000   591220010601014405912200106SHWE OHH PHARMACY      PTN           MMR11003150741220007950315000000000000000   10300001 00104100000000003465000000000000     
100   62911028202143500000000000035000000000035000002000000010410403150047100008072184800315207407000807   1030000500030000   598320002101000015172200021MAX ENERGY             PTN           MMR11003150047100008070315000000000000000   10300001 00104100000000001050000000000000     
100   62911028202616170000000000221800000000221800002000000010410403150926190027002184800315207415002700   1030000500030000   503920036604000015039200366PRO-1 HOME CENTER      PTN           MMR11003150926190027000315000000000000000   10300001 00104100000000013308000000000000     
100   95050312482469810000000000036000000000036000002000000010410403150352420026066797010315000335205206   1030000300030000   541100000443000000000000319CB BANK                ONESTOP KITCH MMR11003150352420026060315000000000000000   10300001F00104100000000009000000000000000     
100   95050312482469810000000000029800000000029800002000000010410403150354270026083321850315000335205440   1030000300030000   541100000443000000000000319CB BANK                ONESTOP KITCH MMR11003150354270026080315000000000000000   10300001F00104100000000007450000000000000     
100   62443100379321630000000000056000000000056000002000000010410403150652000239179241280315207413023917   1030000500030000   598320001202000015172200012MAX ENERGY             PTN           MMR11003150652000239170315000000000000000   10300001 00104100000000006720000000000000     
100   62443100379321630000000000045000000000045000002000000010410403150653400239186617080315207413023918   1030000500030000   598320001202000015172200012MAX ENERGY             PTN           MMR11003150653400239180315000000000000000   10300001 00104100000000005400000000000000     
100   95030301100129110000000000051000000000051000002000000010410403151057090148264052100315207417014826   1030000500030000   598320001401000015172200014MAX ENERGY             PTN           MMR11003151057090148260315000000000000000   10300001 00104100000000001530000000000000     
100   95050324154190880000000000042000000000042000002000000010410403151221080204034740070315207418020403   1030000500030000   598320001601000015172200016MAX ENERGY             PTN           MMR11003151221080204030315000000000000000   10300001 00104100000000005040000000000000     
100   95050314567080940000000000005800000000005800002000000010410403151115080042331973280315207417004233   1030000500030000   541120024602022205411200246ORANGE (THANLYIN)      PTN           MMR11003151115080042330315000000000000000   10300001 00104100000000001450000000000000     
100   62911028202136750000000000080000000000080000002000000010410403151043430055514052100315207417005551   1030000500030000   598320001701000015172200017MAX ENERGY             PTN           MMR11003151043430055510315000000000000000   10300001 00104100000000002400000000000000     
100   62911028202193830000000000110000000000110000002000000010410403150412560203232184800315207410020323   1030000500030000   598320001601000015172200016MAX ENERGY             PTN           MMR11003150412560203230315000000000000000   10300001 00104100000000003300000000000000     
100   62911028202169750000000000030000000000030000002000000010410403150657300047794052100315207413004779   1030000500030000   598320002104000015172200021MAX ENERGY             PTN           MMR11003150657300047790315000000000000000   10300001 00104100000000000900000000000000     
100   62911028202527800000000000045000000000045000002000000010410403151056550204012184800315207417020401   1030000500030000   598320001602000015172200016MAX ENERGY             PTN           MMR11003151056550204010315000000000000000   10300001 00104100000000001350000000000000     
100   95050314567080940000000000013800000000013800002000000010410403151107400049016724920315207417004901   1030000500030000   541120024603022205411200246ORANGE (THANLYIN)      PTN           MMR11003151107400049010315000000000000000   10300001 00104100000000003450000000000000     
100   95050322149411750000000000020000000000020000002000000010410403150400160079347867610315207410007934   1030000500030000   598320001403000015172200014MAX ENERGY             PTN           MMR11003150400160079340315000000000000000   10300001 00104100000000002400000000000000     
100   62911028202170490000000000068000000000068000002000000010410403150454500079492184800315207411007949   1030000500030000   598320001403000015172200014MAX ENERGY             PTN           MMR11003150454500079490315000000000000000   10300001 00104100000000002040000000000000     
100   95050320531117320000000000070133000000070133002000000010410403151304530155116252210315207419015511   1030000500030000   598320002701000015172200027MAX ENERGY             PTN           MMR11003151304530155110315000000000000000   10300001 00104100000000008416000000000000     
