100   62911028202078000000000000010000000000010000002000000010410403150453282328492184800315000006810850   1030000500030000   333800010001201104000003863AYA Pay                Yangon        MMR11003150453282328490315000000000000000   10300001F05104100000000002100000000000000     
100   95050310427855490000000000000980000000000980002000000010410403150933120312756265260315000006813092   1020000200030000   333400010001204104000000281Myanmar Soft-Gate Tech Yangon        MMR11003150933120312750315000000000000000   10300001F05104100000000000206000000000000     
100   95050317775833170000000000030500000000030500002000000010410403150742051205526331880315000006812255   1030000200030000   333800010001203104000003327KBZPay                 Yangon        MMR11003150742051205520315000000000000000   10300001F05104100000000006405000000000000     
100   95050315345734110000000000001960000000001960002000000010410403151101503150409845850315000006813711   1020000200030000   333400010001204104000000281Myanmar Soft-Gate Tech Yangon        MMR11003151101503150400315000000000000000   10300001F05104100000000000412000000000000     
100   62443100355445150000000000020287000000020287002000000010410403150237394346918010220315653100917073   1030000500030000   555610110599104519000009166City Mart 47 Branch                  MMR11003150237394346910315000000000000000   10300001 00104100000000005072000000000000     
100   62911028202115470000000000020000000000020000002000000010410403150630534374972184800315381001311073   1030000300030000   888810125458104519000021285Shwe Taung Energy CoLt               MMR11003150630534374970315000000000000000   10300001 00104100000000000600000000000000     
100   95050313968650950000000000000980000000000980002000000010410403151249511951841997610315000006814306   1020000200030000   333400010001204104000000281Myanmar Soft-Gate Tech Yangon        MMR11003151249511951840315000000000000000   10300001F05104100000000000206000000000000     
100   95050314401921990000000000000980000000000980002000000010410403151412384238630422330315000006814768   1020000200030000   333400010001204104000000281Myanmar Soft-Gate Tech Yangon        MMR11003151412384238630315000000000000000   10300001F05104100000000000206000000000000     
100   62911028202448030000000000150000000000150000002000000010410403150311024349712184800315995400926073   1030000300030000   555510124697104519000020166Makro Myanmar                        MMR11003150311024349710315000000000000000   10300001 00104100000000009000000000000000     
100   62911028202290100000000000026400000000026400002000000010410403150419454356952184800315923481014073   1030000300030000   444410125393104519000021220Myanmar Bakery CoLtd                 MMR11003150419454356950315000000000000000   10300001 00104100000000002693000000000000     
100   62443101037081820000000000091500000000091500002000000010410403150823404391037610670315688541428073   1030000300030000   555510120538104519000017437Art and T8                           MMR11003150823404391030315000000000000000   10300001 00104100000000021960000000000000     
100   62911028202616170000000000150000000000150000002000000010410403151104374417582184800315325331709073   1030000300030000   555510124687104519000020166Makro Myanmar                        MMR11003151104374417580315000000000000000   10300001 00104100000000009000000000000000     
100   62911028202281450000000000055400000000055400002000000010410403150356484565112184800315050261048073   1030000900030000   591219000795190110000000627Shwe Ohh Pharmacy ST-3 YANGONINDAING MMR11003150356484565110315000000000000000   10300001F00104100000000003324000000000000     
100   95030339867270590000000000002250000000002250002000000010410403151153274427494052100315693291810073   1030000300030000   555610103773104519000003649G and G Convenience St re 279        MMR11003151153274427490315000000000000000   10300001 00104100000000000135000000000000     
100   62911028202193830000000000080000000000080000002000000010410403151014534410334052100315329551601073   1030000500030000   888810111244104519000009671Max Energy CoLtd 10                  MMR11003151014534410330315000000000000000   10300001 00104100000000002400000000000000     
100   95050318601641810000000000006800000000006800002000000010410403151358134438320918980315280262027073   1030000500030000   555610112657104519000010852City Express MCS 58                  MMR11003151358134438320315000000000000000   10300001 00104100000000001700000000000000     
100   62911028202170490000000000030450000000030450002000000010410403150816354390304052100315585481448073   1030000500030000   555610112233104519000010487Ocean Super Center St  ohn           MMR11003150816354390300315000000000000000   10300001 00104100000000001827000000000000     
100   62443100333488440000000000061800000000061800002000000010410403151012504407721901970315936411602073   1030000500030000   555610118960104519000016137City Mart South Okkala WZYD BR       MMR11003151012504407720315000000000000000   10300001 00104100000000015450000000000000     
100   62911028202225440000000000001700000000001700002000000010410403150959384409642184800315227511614073   1030000500030000   555610110572104519000009164City Mart China Town P int Cen       MMR11003150959384409640315000000000000000   10300001 00104100000000000102000000000000     
100   62443100387665370000000000018416000000018416002000000010410403151137424424035945270315207081817073   1030000500030000   555610110601104519000009166City Mart 47 Branch                  MMR11003151137424424030315000000000000000   10300001 00104100000000004604000000000000     
100   95050323133124350000000000010000000000010000002000000010410403151114474447759349080315000006813780   1030000200030000   333800010001203104000003327KBZPay                 Yangon        MMR11003151114474447750315000000000000000   10300001F05104100000000002100000000000000     
100   95030308100042590000000000004500000000004500002000000010410403150457524578302184800315788271152073   1030000900030000   541119001230190110000000947City Mart TM City Care YANGONONE     MMR11003150457524578300315000000000000000   10300001F00104100000000000270000000000000     
100   62911028202451150000000000022680000000022680002000000010410403151121554422532184800315032001821073   1030000500030000   555610122582104519000018896City Mart Hlaing Thar  ar            MMR11003151121554422530315000000000000000   10300001 00104100000000001361000000000000     
100   95050319379439060000000000001000000000001000002000000010410403151014414441198852310315000006813423   1030000200030000   333800010001203104000003327KBZPay                 Yangon        MMR11003151014414441190315000000000000000   10300001F05104100000000000210000000000000     
100   62443100372702000000000000094500000000094500002000000010410403150821034390734703580315646521401073   1030000500030000   555610114570104519000012532City Mart Ahlone Branc               MMR11003150821034390730315000000000000000   10300001 00104100000000023625000000000000     
100   62443100333488440000000000118400000000118400002000000010410403151008214407049277770315850361624073   1030000500030000   555610118960104519000016137City Mart South Okkala WZYD BR       MMR11003151008214407040315000000000000000   10300001 00104100000000029600000000000000     
100   62911028202440680000000000004100000000004100002000000010410403151330474436722184800315039002000073   1030000500030000   555610120970104519000017733City Express MCS 14                  MMR11003151330474436720315000000000000000   10300001 00104100000000000246000000000000     
100   62911028202448030000000000029500000000029500002000000010410403151027404657862184800315594571640073   1030000900030000   573219000379190110000000247Infinity Business-Phil YANGONUNG     MMR11003151027404657860315000000000000000   10300001F00104100000000001770000000000000     
100   95050318057347910000000000000980000000000980002000000010410403151429375937725670650315000006814839   1020000200030000   333400010001204104000000281Myanmar Soft-Gate Tech Yangon        MMR11003151429375937720315000000000000000   10300001F05104100000000000206000000000000     
100   95050310332595380000000000000980000000000980002000000010410403151129135913202541370315000006813855   1020000200030000   333400010001204104000000281Myanmar Soft-Gate Tech Yangon        MMR11003151129135913200315000000000000000   10300001F05104100000000000206000000000000     
100   62911028202823240000000000012700000000012700002000000010410403151054314665504052100315139241731073   1030000900030000   541119000149190110000000083SeinGayHarParami Cente YANGON        MMR11003151054314665500315000000000000000   10300001F00104100000000000762000000000000     
100   95030308100042590000000000007000000000007000002000000010410403151125394674834052100315816551739073   1030000900030000   541119001173190110000000931OCEAN HTY SEASON       YANGON        MMR11003151125394674830315000000000000000   10300001F00104100000000000420000000000000     
100   95050316321163940000000000000980000000000980002000000010410403151528295829226664370315000006815092   1020000200030000   333400010001204104000000281Myanmar Soft-Gate Tech Yangon        MMR11003151528295829220315000000000000000   10300001F05104100000000000206000000000000     
100   95030328100017490000000000050000000000050000002000000010410403150322009501782184800315207410950178   1040001600030000   598320000326000000010000314PT Power Petrol Statio Nay Pyi Taw   MMR11003150322009501780315000000000000000   10300001F00104100000000001500000000000000     
100   62911028202655010000000000021600000000021600002000000010410403151114374671694052100315596441737073   1030000900030000   541119001207190110000000948City Mart YK C 5       YANGONAUNG    MMR11003151114374671690315000000000000000   10300001F00104100000000001296000000000000     
100   62911028202193830000000000022000000000022000002000000010410403151151224681382184800315246211822073   1030000900030000   541119001068190110000000082Sein Gay Har Super Cen YANGON        MMR11003151151224681380315000000000000000   10300001F00104100000000001320000000000000     
100   62911028202133520000000000005323000000005323002000000010410403151201324683644052100315396311832073   1030000900030000   541119001189190110000000942City Mart HDC C 4      YANGONUT      MMR11003151201324683640315000000000000000   10300001F00104100000000000319000000000000     
100   95050311419479170000000000000980000000000980002000000010410403150827405740201085840315000006812579   1020000200030000   333400010001204104000000281Myanmar Soft-Gate Tech Yangon        MMR11003150827405740200315000000000000000   10300001F05104100000000000206000000000000     
100   62911028202328650000000000020000000000020000002000000010410403150536409563844359100315207412956384   1040001600030000   598320000658000000010000527Shwe Taung Energy (YGN Yangon        MMR11003150536409563840315000000000000000   10300001F00104100000000000600000000000000     
100   95050315259054570000000000000980000000000980002000000010410403150219004900173393160315000006809397   1020000200030000   333400010001204104000000281Myanmar Soft-Gate Tech Yangon        MMR11003150219004900170315000000000000000   10300001F05104100000000000206000000000000     
100   95050321976590420000000000018846000000018846002000000010410403151109499748393249710315207418974839   1040001600030000   541120000561000000010000465Ocean Shwe Gone Daing  Yangon        MMR11003151109499748390315000000000000000   10300001F00104100000000004712000000000000     
100   95050315345734110000000000001960000000001960002000000010410403151024345434888355490315000006813490   1020000200030000   333400010001204104000000281Myanmar Soft-Gate Tech Yangon        MMR11003151024345434880315000000000000000   10300001F05104100000000000412000000000000     
100   62443100379321630000000000016000000000016000002000000010410403150424409525916245060315207411952591   1040001600030000   598320000658000000010000527Shwe Taung Energy (YGN Yangon        MMR11003150424409525910315000000000000000   10300001F00104100000000001920000000000000     
100   95050318621775380000000000003000000000003000002000000010410403151616404640420487410315000006815237   1030000200030000   3338000100012031040000040022C2P (Myanmar) Co. Ltd Yangon        MMR11003151616404640420315000000000000000   10300001F05104100000000000630000000000000     
100   95050315150726490000000000002940000000002940002000000010410403150520045004248421910315000006811075   1020000200030000   333400010001204104000000281Myanmar Soft-Gate Tech Yangon        MMR11003150520045004240315000000000000000   10300001F05104100000000000617000000000000     
100   95030305700676370000000000080000000000080000002000000010410403150414519522012184800315207411952201   1040001600030000   598320000316000000010000304PT Power Petrol Statio Yangon        MMR11003150414519522010315000000000000000   10300001F00104100000000002400000000000000     
100   62911028202225440000000000008950000000008950002000000010410403150224239478762184800315207409947876   1040001600030000   591220000276000000010000264Shwe Ohh Pharmacy (YGH Yangon        MMR11003150224239478760315000000000000000   10300001F00104100000000000537000000000000     
100   62911028202154800000000000039600000000039600002000000010410403150457489541134052100315207411954113   1040001600030000   591220000288000000010000276Shwe Ohh Pharmacy (Nor Yangon        MMR11003150457489541130315000000000000000   10300001F00104100000000002376000000000000     
100   95030301100122750000000000051350000000051350002000000010410403151049284664054052100315047191728073   1030000900030000   541119001191190110000000942City Mart HDC C 6      YANGONUT      MMR11003151049284664050315000000000000000   10300001F00104100000000003081000000000000     
100   95050320360851930000000000000980000000000980002000000010410403151328575857838931970315000006814554   1020000200030000   333400010001204104000000281Myanmar Soft-Gate Tech Yangon        MMR11003151328575857830315000000000000000   10300001F05104100000000000206000000000000     
100   62911028202164620000000000009250000000009250002000000010410403150603004594702184800315817331200073   1030000900030000   541119001233190110000000951Marketplace KTY C 3    YANGONARTAUNG MMR11003150603004594700315000000000000000   10300001F00104100000000000555000000000000     
100   62443100318296470000000000070550000000070550002000000010410403150735329622359098660315207414962235   1040001600030000   541120000555000000010000465Ocean Shwe Gone Daing  Yangon        MMR11003150735329622350315000000000000000   10300001F00104100000000017638000000000000     
100   95050315110306410000000000002940000000002940002000000010410403151225375537053889150315000006814156   1020000200030000   333400010001204104000000281Myanmar Soft-Gate Tech Yangon        MMR11003151225375537050315000000000000000   10300001F05104100000000000617000000000000     
100   62443100325551180000000000040000000000040000002000000010410403150432299529183755410315207411952918   1040001600030000   591220000043000000010000041Mingalar Pharmacy      Yangon        MMR11003150432299529180315000000000000000   10300001F00104100000000009600000000000000     
100   62911028202533820000000000180000000000180000002000000010410403150904059662642184800315207416966264   1040001600030000   591220000263000000010000251Shwe Ohh Pharmacy (KM- Yangon        MMR11003150904059662640315000000000000000   10300001F00104100000000010800000000000000     
100   95050319902033540000000000110000000000110000002000000010410403151050059730480696860315207417973048   1040001600030000   591220000085000000010000081Golden Bell (North Okk Yangon        MMR11003151050059730480315000000000000000   10300001F00104100000000026400000000000000     
100   62911028202193830000000000113000000000113000002000000010410403151129274675794052100315884591727073   1030000900030000   541119000127190110000000082Sein Gay Har Super Cen YANGON        MMR11003151129274675790315000000000000000   10300001F00104100000000006780000000000000     
100   95050318048516790000000000040000000000040000002000000010410403151326565656250506820315000006814539   1030000200030000   333800010001203104000003327KBZPay                 Yangon        MMR11003151326565656250315000000000000000   10300001F05104100000000008400000000000000     
100   95030320108927800000000000110000000000110000002000000010410403150647514605322184800315478171351073   1030000900030000   592119000255190110000000150HtunHtunOo Liquor (May YANGONONE     MMR11003150647514605320315000000000000000   10300001F00104100000000006600000000000000     
100   95050323233042810000000000000980000000000980002000000010410403151517124712501416050315000006815060   1020000200030000   333400010001204104000000281Myanmar Soft-Gate Tech Yangon        MMR11003151517124712500315000000000000000   10300001F05104100000000000206000000000000     
100   62443100348951400000000000100000000000100000002000000010410403151127315731345591070315000006813847   1030000200030000   333800010001203104000003327KBZPay                 Yangon        MMR11003151127315731340315000000000000000   10300001F05104100000000021000000000000000     
100   95050319928585020000000000000980000000000980002000000010410403150324235423294513200315000006809980   1020000200030000   333400010001204104000000281Myanmar Soft-Gate Tech Yangon        MMR11003150324235423290315000000000000000   10300001F05104100000000000206000000000000     
100   62911028202110420000000000389000000000389000002000000010410403150936384644974052100315779061638073   1030000900030000   573219001177190110000000933UNIQUE Kabaraye        YANGON        MMR11003150936384644970315000000000000000   10300001F00104100000000023340000000000000     
100   62911028202231380000000000010185000000010185002000000010410403150737269623112184800315207414962311   1040001600030000   581420000655000000010000524Little Boss Dumplings  Ygn           MMR11003150737269623110315000000000000000   10300001F00104100000000000306000000000000     
100   95050313715913510000000000009397000000009397002000000010410403151111534670952824250315538411753073   1030000900030000   581219000372190110000000244Jo Jo HotPot(CapitalHy YANGONA       MMR11003151111534670950315000000000000000   10300001F00104100000000003994000000000000     
100   95050314567755980000000000000980000000000980002000000010410403151027005700267079070315000006813508   1020000200030000   333400010001204104000000281Myanmar Soft-Gate Tech Yangon        MMR11003151027005700260315000000000000000   10300001F05104100000000000206000000000000     
100   95050318288857520000000000040000000000040000002000000010410403151217154715048215280315000006814110   1030000200030000   333800010001203104000003327KBZPay                 Yangon        MMR11003151217154715040315000000000000000   10300001F05104100000000008400000000000000     
100   95050318180584510000000000002000000000002000002000000010410403150821495149906902330315000006812533   1030000200030000   333800010001203104000003327KBZPay                 Yangon        MMR11003150821495149900315000000000000000   10300001F05104100000000000420000000000000     
100   95050310332595380000000000004900000000004900002000000010410403151121085108313817830315000006813810   1020000200030000   333400010001204104000000281Myanmar Soft-Gate Tech Yangon        MMR11003151121085108310315000000000000000   10300001F05104100000000001029000000000000     
100   95050312498129060000000000001960000000001960002000000010410403151327595759285258500315000006814549   1020000200030000   333400010001204104000000281Myanmar Soft-Gate Tech Yangon        MMR11003151327595759280315000000000000000   10300001F05104100000000000412000000000000     
100   62911028202610960000000000070000000000070000002000000010410403121007520339472184800312207110033947   1030000600030000   554100001106315799420000564DENKO PHYUU            PHYUU         MMR11003121007520339470312000000000000000   10300001 00104100000000002100000000000000     
100   62911028202136750000000000149100000000149100002000000010410403150515544363994052100315888441118073   1030000300030000   555510124689104519000020166Makro Myanmar                        MMR11003150515544363990315000000000000000   10300001 00104100000000008946000000000000     
100   95050317343045830000000000000980000000000980002000000010410403150647381738476308300315000006811828   1020000200030000   333400010001204104000000281Myanmar Soft-Gate Tech Yangon        MMR11003150647381738470315000000000000000   10300001F05104100000000000206000000000000     
100   95050319156544340000000000004900000000004900002000000010410403150148491849820768960315000006809207   1020000200030000   333400010001204104000000281Myanmar Soft-Gate Tech Yangon        MMR11003150148491849820315000000000000000   10300001F05104100000000001029000000000000     
100   95050312695033440000000000000980000000000980002000000010410403150753232323681016890315000006812335   1020000200030000   333400010001204104000000281Myanmar Soft-Gate Tech Yangon        MMR11003150753232323680315000000000000000   10300001F05104100000000000206000000000000     
100   95030301100126220000000000200000000000200000002000000010410403151102403240732184800315000006813716   1030000500030000   333800010001201104000003863AYA Pay                Yangon        MMR11003151102403240730315000000000000000   10300001F05104100000000042000000000000000     
100   95050312911050270000000000000980000000000980002000000010410403150303093309755775850315000006809789   1020000200030000   333400010001204104000000281Myanmar Soft-Gate Tech Yangon        MMR11003150303093309750315000000000000000   10300001F05104100000000000206000000000000     
100   62911028202225850000000000005400000000005400002000000010410403150404564355322184800315701341039073   1030000500030000   555610112532104519000010487Ocean Super Center St  ohn           MMR11003150404564355320315000000000000000   10300001 00104100000000000324000000000000     
100   95050316717221100000000000000980000000000980002000000010410403141642341234242852640315000006808532   1020000200030000   333400010001204104000000281Myanmar Soft-Gate Tech Yangon        MMR11003141642341234240315000000000000000   10300001F05104100000000000206000000000000     
100   95050326155679180000000000008820000000008820002000000010410403150544461446999138340315000006811296   1020000200030000   333400010001204104000000281Myanmar Soft-Gate Tech Yangon        MMR11003150544461446990315000000000000000   10300001F05104100000000001852000000000000     
100   62911028202133940000000000025350000000025350002000000010410403151224324430674052100315144521836073   1030000500030000   555610110599104519000009166City Mart 47 Branch                  MMR11003151224324430670315000000000000000   10300001 00104100000000001521000000000000     
100   62443100303702210000000000044000000000044000002000000010410403120911040398250798900312207109039825   1030000600030000   554100001756315799420001137DENKO NORTH DAGON 2    YANGON        MMR11003120911040398250312000000000000000   10300001 00104100000000005280000000000000     
100   62911028202482830000000000098100000000098100002000000010410403120404200090552184800312207104009055   1030000600030000   809900000538315799420000147GRAND HANTHA HOSPITAL  YANGON        MMR11003120404200090550312000000000000000   10300001 00104100000000005886000000000000     
100   62911028202446700000000000023000000000023000002000000010410403130325040006502184800313207209000650   1030000500030000   591220012401014405912200124SHWE OHH PHARMACY      PTN           MMR11003130325040006500313000000000000000   10300001 00104100000000001380000000000000     
100   95030310098554020000000000016600000000016600002000000010410403150544214368564052200315478131230073   1030000300030000   444410125393104519000021220Myanmar Bakery CoLtd                 MMR11003150544214368560315000000000000000   10300001 00104100000000001693000000000000     
100   95050318052625040000000000035000000000035000002000000010410403151310554435230010170315831391902073   1030000300030000   444410116426104519000014037Hotel Kamarkyi                       MMR11003151310554435230315000000000000000   10300001 00104100000000014875000000000000     
100   95030310098554020000000000004900000000004900002000000010410403150342114353052184800315428141048073   1030000500030000   555610112249104519000010487Ocean Super Center St  ohn           MMR11003150342114353050315000000000000000   10300001 00104100000000000294000000000000     
100   62911028202166940000000000017200000000017200002000000010410403151756440014362184800315000744264294   1030000200030000   541188001131000008000000296KBZ BANK               CITY MART - J MMR11003151756440014360315000000000000000   10300001 00104100000000001032000000000000     
100   95050319528093960000000000001960000000001960002000000010410403150559132913189237230315000006811419   1020000200030000   333400010001204104000000281Myanmar Soft-Gate Tech Yangon        MMR11003150559132913180315000000000000000   10300001F05104100000000000412000000000000     
100   95050312695033440000000000001960000000001960002000000010410403150308513851808740440315000006809838   1020000200030000   333400010001204104000000281Myanmar Soft-Gate Tech Yangon        MMR11003150308513851800315000000000000000   10300001F05104100000000000412000000000000     
100   95050314287403810000000000030000000000030000002000000010410403150304283428193527690315000006809802   1030000200030000   333800010001203104000003327KBZPay                 Yangon        MMR11003150304283428190315000000000000000   10300001F05104100000000006300000000000000     
100   95030301100183220000000000050000000000050000002000000010410403150638040804144052100315000006811740   1030000500030000   333800010001201104000003863AYA Pay                Yangon        MMR11003150638040804140315000000000000000   10300001F05104100000000010500000000000000     
100   95050312498129060000000000001960000000001960002000000010410403151250262026646749280315000006814309   1020000200030000   333400010001204104000000281Myanmar Soft-Gate Tech Yangon        MMR11003151250262026640315000000000000000   10300001F05104100000000000412000000000000     
100   95030301100102610000000000020000000000020000002000000010410403150459572957414052200315000006810907   1030000200030000   333800010001203104000003327KBZPay                 Yangon        MMR11003150459572957410315000000000000000   10300001F05104100000000004200000000000000     
100   95050318057347910000000000004900000000004900002000000010410403151301173117141500530315000006814378   1020000200030000   333400010001204104000000281Myanmar Soft-Gate Tech Yangon        MMR11003151301173117140315000000000000000   10300001F05104100000000001029000000000000     
100   62911028202194090000000000060300000000060300002000000010410403150359074354472184800315581271037073   1030000300030000   555510124690104519000020166Makro Myanmar                        MMR11003150359074354470315000000000000000   10300001 00104100000000003618000000000000     
100   95050316573091630000000000053550000000053550002000000010410403151148064425611193630315413161821073   1030000300030000   555510124365104519000020166Makro Myanmar                        MMR11003151148064425610315000000000000000   10300001 00104100000000012852000000000000     
100   62911028202023890000000000088270000000088270002000000010410403130822390135512184800313207208013551   1030000600030000   554100001011315799420000505DENKO HTAN TA PIN      YANGON        MMR11003130822390135510313000000000000000   10300001 00104100000000002648000000000000     
100   95050319161596230000000000000980000000000980002000000010410403150100363036555561930315000006809032   1020000200030000   333400010001204104000000281Myanmar Soft-Gate Tech Yangon        MMR11003150100363036550315000000000000000   10300001F05104100000000000206000000000000     
100   95030305100040620000000000231450000000231450002000000010410403150839340162902184800315000744231717   1030000200030000   541188001001000008000000008KBZ BANK               MARKETPLACE - MMR11003150839340162900315000000000000000   10300001 00104100000000013887000000000000     
100   95050312498129060000000000000980000000000980002000000010410403150900243024512172760315000006812826   1020000200030000   333400010001204104000000281Myanmar Soft-Gate Tech Yangon        MMR11003150900243024510315000000000000000   10300001F05104100000000000206000000000000     
100   95050321455580800000000000201600000000201600002000000010410403151028455845683603900315000006813527   1030000900030000   333800010001202104000003301uab bank               Yangon        MMR11003151028455845680315000000000000000   10300001F05104100000000042336000000000000     
100   62911028202161240000000000030000000000030000002000000010410403150349279512282184800315207410951228   1040001600030000   598320000658000000010000527Shwe Taung Energy (YGN Yangon        MMR11003150349279512280315000000000000000   10300001F00104100000000000900000000000000     
100   62443100348951400000000000300000000000300000002000000010410403151124475447679917210315000006813832   1030000200030000   333800010001203104000003327KBZPay                 Yangon        MMR11003151124475447670315000000000000000   10300001F05104100000000063000000000000000     
100   62911028202447120000000000073700000000073700002000000010410403150559114370644052100315782291251073   1030000500030000   555610114572104519000012532City Mart Ahlone Branc               MMR11003150559114370640315000000000000000   10300001 00104100000000004422000000000000     
100   95050312675525330000000000010000000000010000002000000010410403151442161216847161440315000006814899   1030000200030000   333800010001203104000003327KBZPay                 Yangon        MMR11003151442161216840315000000000000000   10300001F05104100000000002100000000000000     
100   95050318608138520000000000001200000000001200002000000010410403151557282728220290770315000006815179   1030000200030000   333800010001203104000003327KBZPay                 Yangon        MMR11003151557282728220315000000000000000   10300001F05104100000000000252000000000000     
100   95050312498129060000000000001960000000001960002000000010410403150112264226743824350315000006809077   1020000200030000   333400010001204104000000281Myanmar Soft-Gate Tech Yangon        MMR11003150112264226740315000000000000000   10300001F05104100000000000412000000000000     
100   62911028202447120000000000016050000000016050002000000010410403150556434370242184800315722261259073   1030000500030000   555610114572104519000012532City Mart Ahlone Branc               MMR11003150556434370240315000000000000000   10300001 00104100000000000963000000000000     
100   95050313411345710000000000022000000000022000002000000010410403151040331033246653610315000006813591   1030000200030000   333800010001203104000003327KBZPay                 Yangon        MMR11003151040331033240315000000000000000   10300001F05104100000000004620000000000000     
100   95050310409767690000000000030000000000030000002000000010410403151539480948985539100315000006815130   1030000200030000   333800010001203104000003327KBZPay                 Yangon        MMR11003151539480948980315000000000000000   10300001F05104100000000006300000000000000     
100   95050315445638160000000000110000000000110000002000000010410403151210434043581336250315000006814072   1030000200030000   333800010001203104000003327KBZPay                 Yangon        MMR11003151210434043580315000000000000000   10300001F05104100000000023100000000000000     
100   95050314567755980000000000000980000000000980002000000010410403150210354035425471120315000006809330   1020000200030000   333400010001204104000000281Myanmar Soft-Gate Tech Yangon        MMR11003150210354035420315000000000000000   10300001F05104100000000000206000000000000     
100   95050311230075240000000000040000000000040000002000000010410403150258412841355520560315000006809732   1030000200030000   333800010001203104000003327KBZPay                 Yangon        MMR11003150258412841350315000000000000000   10300001F05104100000000008400000000000000     
100   62911028202756820000000000040000000000040000002000000010410403141042260057722184800314207310005772   1030000600030000   554100001252315799420000706DENKO MONEYWAR - 2     MONEYWAR      MMR11003141042260057720314000000000000000   10300001 00104100000000001200000000000000     
100   62443100348951400000000000300000000000300000002000000010410403151126175617176442040315000006813841   1030000200030000   333800010001203104000003327KBZPay                 Yangon        MMR11003151126175617170315000000000000000   10300001F05104100000000063000000000000000     
100   95050327996244850000000000500000000000500000002000000010410403151152292229861619090315000006813959   1030000200030000   3338000100012031040000040022C2P (Myanmar) Co. Ltd Yangon        MMR11003151152292229860315000000000000000   10300001F05104100000000105000000000000000     
100   95050319938772870000000000000980000000000980002000000010410403151624475447548004190315000006815249   1020000200030000   333400010001204104000000281Myanmar Soft-Gate Tech Yangon        MMR11003151624475447540315000000000000000   10300001F05104100000000000206000000000000     
100   62911028202610960000000000086000000000086000002000000010410403120521380067172184800312207105006717   1030000600030000   554100001213315799420000665DENKO KWYAL TUT SONE   MANDALAY      MMR11003120521380067170312000000000000000   10300001 00104100000000002580000000000000     
100   62443100348951400000000000300000000000300000002000000010410403151123035303789491660315000006813814   1030000200030000   333800010001203104000003327KBZPay                 Yangon        MMR11003151123035303780315000000000000000   10300001F05104100000000063000000000000000     
100   95050316638224720000000000020000000000020000002000000010410403150337060706490697650315000006810124   1030000200030000   333800010001203104000003327KBZPay                 Yangon        MMR11003150337060706490315000000000000000   10300001F05104100000000004200000000000000     
100   95030380891034700000000000058000000000058000002000000010410403151408443844964052100315000006814752   1030000200030000   3338000100012031040000040022C2P (Myanmar) Co. Ltd Yangon        MMR11003151408443844960315000000000000000   10300001F05104100000000012180000000000000     
100   95050326590859670000000000035250000000035250002000000010410403150249134347611328980315729180937073   1030000300030000   555510114367104519000012359MGOU IV                              MMR11003150249134347610315000000000000000   10300001 00104100000000008460000000000000     
100   95050312695033440000000000000980000000000980002000000010410403150756392639761442350315000006812352   1020000200030000   333400010001204104000000281Myanmar Soft-Gate Tech Yangon        MMR11003150756392639760315000000000000000   10300001F05104100000000000206000000000000     
100   95050316818236190000000000000980000000000980002000000010410403151257072707961003890315000006814349   1020000200030000   333400010001204104000000281Myanmar Soft-Gate Tech Yangon        MMR11003151257072707960315000000000000000   10300001F05104100000000000206000000000000     
100   95050319107635450000000000200000000000200000002000000010410403150410194019821883280315000006810452   1030000200030000   333800010001203104000003327KBZPay                 Yangon        MMR11003150410194019820315000000000000000   10300001F05104100000000042000000000000000     
100   95030310098554020000000000007000000000007000002000000010410403150404214355042184800315662321026073   1030000300030000   555510116506104519000014097MGOU                                 MMR11003150404214355040315000000000000000   10300001 00104100000000000420000000000000     
100   62911028202170490000000000013100000000013100002000000010410403150404344355112184800315671321051073   1030000300030000   444410100537104519000000526YKKO (Junction Square)               MMR11003150404344355110315000000000000000   10300001 00104100000000001336000000000000     
100   62911028202421380000000000027546000000027546002000000010410403120352420079322184800312207103007932   1030000600030000   581200000526315799420000143SIGNATURE FINEDINING 1 YANGON        MMR11003120352420079320312000000000000000   10300001 00104100000000002810000000000000     
100   95050319502933380000000000000980000000000980002000000010410403151205483548384811380315000006814031   1020000200030000   333400010001204104000000281Myanmar Soft-Gate Tech Yangon        MMR11003151205483548380315000000000000000   10300001F05104100000000000206000000000000     
100   95050313411345710000000000022000000000022000002000000010410403151038170817620128730315000006813576   1030000200030000   333800010001203104000003327KBZPay                 Yangon        MMR11003151038170817620315000000000000000   10300001F05104100000000004620000000000000     
100   95050319502933380000000000000980000000000980002000000010410403151204103410695236880315000006814019   1020000200030000   333400010001204104000000281Myanmar Soft-Gate Tech Yangon        MMR11003151204103410690315000000000000000   10300001F05104100000000000206000000000000     
100   95030310098554020000000000004700000000004700002000000010410403150326594351122184800315170550904073   1030000500030000   555610112532104519000010487Ocean Super Center St  ohn           MMR11003150326594351120315000000000000000   10300001 00104100000000000282000000000000     
100   95050312695033440000000000001960000000001960002000000010410403150758252825715343020315000006812368   1020000200030000   333400010001204104000000281Myanmar Soft-Gate Tech Yangon        MMR11003150758252825710315000000000000000   10300001F05104100000000000412000000000000     
100   95050319379439060000000000005000000000005000002000000010410403151012564256162327430315000006813404   1030000200030000   333800010001203104000003327KBZPay                 Yangon        MMR11003151012564256160315000000000000000   10300001F05104100000000001050000000000000     
100   95050316717221100000000000000980000000000980002000000010410403151241181118932774420315000006814246   1020000200030000   333400010001204104000000281Myanmar Soft-Gate Tech Yangon        MMR11003151241181118930315000000000000000   10300001F05104100000000000206000000000000     
100   95050314567080940000000000000980000000000980002000000010410403151347261726724677370315000006814654   1020000200030000   333400010001204104000000281Myanmar Soft-Gate Tech Yangon        MMR11003151347261726720315000000000000000   10300001F05104100000000000206000000000000     
100   95050312695033440000000000002940000000002940002000000010410403150751472147877044910315000006812328   1020000200030000   333400010001204104000000281Myanmar Soft-Gate Tech Yangon        MMR11003150751472147870315000000000000000   10300001F05104100000000000617000000000000     
100   95050313968650950000000000000980000000000980002000000010410403151252462246372493820315000006814327   1020000200030000   333400010001204104000000281Myanmar Soft-Gate Tech Yangon        MMR11003151252462246370315000000000000000   10300001F05104100000000000206000000000000     
100   95050312224678430000000000001960000000001960002000000010410403150855552555373825240315000006812792   1020000200030000   333400010001204104000000281Myanmar Soft-Gate Tech Yangon        MMR11003150855552555370315000000000000000   10300001F05104100000000000412000000000000     
100   95030301100126220000000000100000000000100000002000000010410403150612574257924052100315000006811515   1030000200030000   333800010001203104000003327KBZPay                 Yangon        MMR11003150612574257920315000000000000000   10300001F05104100000000021000000000000000     
100   62911028202684060000000000017300000000017300002000000010410403150252344348682184800315866300901073   1030000500030000   555610122584104519000018896City Mart Hlaing Thar  ar            MMR11003150252344348680315000000000000000   10300001 00104100000000001038000000000000     
100   95050323722449090000000000004900000000004900002000000010410403151437380738551912690315000006814874   1020000200030000   333400010001204104000000281Myanmar Soft-Gate Tech Yangon        MMR11003151437380738550315000000000000000   10300001F05104100000000001029000000000000     
100   95050317248519320000000000003000000000003000002000000010410403150143071307459201570315000006809185   1030000200030000   3338000100012031040000040022C2P (Myanmar) Co. Ltd Yangon        MMR11003150143071307450315000000000000000   10300001F05104100000000000630000000000000     
100   95030301100216560000000000000980000000000980002000000010410403150352482248382184800315000006810311   1020000200030000   333400010001204104000000281Myanmar Soft-Gate Tech Yangon        MMR11003150352482248380315000000000000000   10300001F05104100000000000206000000000000     
100   62911028202077010000000000000980000000000980002000000010410403150757422742794052100315000006812361   1020000200030000   333400010001204104000000281Myanmar Soft-Gate Tech Yangon        MMR11003150757422742790315000000000000000   10300001F05104100000000000206000000000000     
100   95050326228858240000000000052000000000052000002000000010410403140536020040225297580314207305004022   1030000600030000   554100001232315799420000686DENKO TAUNG LAY LONE   TAUNGGYI      MMR11003140536020040220314000000000000000   10300001 00104100000000006240000000000000     
100   62911028202366010000000000120000000000120000002000000010410403140459510014462184800314207311001446   1030000500030000   598320101301005405983201013PT POWER (NPT)         PTN           MMR11003140459510014460314000000000000000   10300001 00104100000000003600000000000000     
100   95030318100004530000000000016000000000016000002000000010410403140447130077462184800314207304007746   1030000600030000   554100001218315799420000670DENKO MAWLAMYAING      MON STATE.    MMR11003140447130077460314000000000000000   10300001 00104100000000000480000000000000     
100   62911028202533900000000000030000000000030000002000000010410403140308280077552184800314207309007755   1030000500030000   598320001403000015172200014MAX ENERGY             PTN           MMR11003140308280077550314000000000000000   10300001 00104100000000000900000000000000     
100   62911028202023630000000000082000000000082000002000000010410403140717550155072184800314207307015507   1030000600030000   554100001212315799420000664DENKO TA TAR OO        TA TAR OO     MMR11003140717550155070314000000000000000   10300001 00104100000000002460000000000000     
100   62911028202446700000000000020000000000020000002000000010410403140453090145912184800314207311014591   1030000500030000   598320001401000015172200014MAX ENERGY             PTN           MMR11003140453090145910314000000000000000   10300001 00104100000000000600000000000000     
100   62911028202677390000000000030000000000030000002000000010410403140337310188592184800314207303018859   1030000600030000   554100001118315799420000576DENKO THAN HLYIN - 2   THAN HLYIN    MMR11003140337310188590314000000000000000   10300001 00104100000000000900000000000000     
100   62443100303702210000000000081000000000081000002000000010410403140924520336421782040314207309033642   1030000600030000   554100001009315799420000504DENKO SOUTH DAGON      YANGON        MMR11003140924520336420314000000000000000   10300001 00104100000000009720000000000000     
100   62911028202029420000000000015000000000015000002000000010410403140438420185032184800314207311018503   1030000500030000   598320001001000015172200010MAX ENERGY             PTN           MMR11003140438420185030314000000000000000   10300001 00104100000000000450000000000000     
100   62443100317863910000000000050000000000050000002000000010410403140036400647296920120314207300064729   1030000600030000   554100000957315799420000480DENKO N.DAGON - 3      YANGON        MMR11003140036400647290314000000000000000   10300001 00104100000000006000000000000000     
100   95050329252108030000000000016000000000016000002000000010410403141255100042456753280314207319004245   1030000500030000   598320041901000055983200419MAX ENERGY             PTN           MMR11003141255100042450314000000000000000   10300001 00104100000000001920000000000000     
100   62443100303702210000000000124000000000124000002000000010410403140415410091952610140314207304009195   1030000600030000   554100002323315799420000474DENKO N.DAGON - 1      YANGON        MMR11003140415410091950314000000000000000   10300001 00104100000000014880000000000000     
100   62911028202447790000000000046000000000046000002000000010410403140756240236952184800314207314023695   1030000500030000   598320001202000015172200012MAX ENERGY             PTN           MMR11003140756240236950314000000000000000   10300001 00104100000000001380000000000000     
100   95030301100128380000000000083000000000083000002000000010410403140125330091722184800314207301009172   1030000600030000   554100002323315799420000474DENKO N.DAGON - 1      YANGON        MMR11003140125330091720314000000000000000   10300001 00104100000000002490000000000000     
100   62911028202449440000000000079000000000079000002000000010410403140311440206992184800314207309020699   1030000500030000   598320001901000015172200019MAX ENERGY             PTN           MMR11003140311440206990314000000000000000   10300001 00104100000000002370000000000000     
100   62911028202104650000000000097000000000097000002000000010410403140326160247092184800314207309024709   1030000500030000   598320001302000015172200013MAX ENERGY             PTN           MMR11003140326160247090314000000000000000   10300001 00104100000000002910000000000000     
100   95030301100126550000000000027000000000027000002000000010410403141119180563472184800314207311056347   1030000600030000   554100000952315799420000474DENKO N.DAGON - 1      YANGON        MMR11003141119180563470314000000000000000   10300001 00104100000000000810000000000000     
100   62911028202397530000000000074000000000074000002000000010410403140419380154922184800314207304015492   1030000600030000   554100001212315799420000664DENKO TA TAR OO        TA TAR OO     MMR11003140419380154920314000000000000000   10300001 00104100000000002220000000000000     
100   62911028202204560000000000112500000000112500002000000010410403140730500091002184800314207307009100   1030000600030000   809900000538315799420000147GRAND HANTHA HOSPITAL  YANGON        MMR11003140730500091000314000000000000000   10300001 00104100000000006750000000000000     
100   62911028202616170000000000004500000000004500002000000010410403151910250010274052100315000744267055   1030000200030000   541188001014000008000000008KBZ BANK               MARKETPLACE - MMR11003151910250010270315000000000000000   10300001 00104100000000000270000000000000     
100   62911028202235910000000005000000000005000000002000000010410403150438420006932184800315000744239247   1030000200030000   806288000932000008000001738KBZ BANK               SHWE GONE DIN MMR11003150438420006930315000000000000000   10300001 00104100000000300000000000000000     
100   95030333816931040000000000025800000000025800002000000010410403151641000011514052100315000744259992   1030000200030000   541188001350000008000000395KBZ BANK               OCEAN SUPERMA MMR11003151641000011510315000000000000000   10300001 00104100000000001548000000000000     
100   95050312675873230000000000004900000000004900002000000010410403151330230023284180290315000006814566   1020000200030000   333400010001204104000000281Myanmar Soft-Gate Tech Yangon        MMR11003151330230023280315000000000000000   10300001F05104100000000001029000000000000     
100   95030301100121270000000000015000000000015000002000000010410403141045409110902184800314207317911090   1040001600030000   598320000918000000010000665MMTM - Thingangyun     Ygn           MMR11003141045409110900314000000000000000   10300001F00104100000000000450000000000000     
100   62911028202788350000000000005000000000005000002000000010410403151533270327724052100315000006815110   1030000200030000   333800010001203104000003327KBZPay                 Yangon        MMR11003151533270327720315000000000000000   10300001F05104100000000001050000000000000     
100   62443100340648380000000000003000000000003000002000000010410403151235400540484265210315000006814215   1030000200030000   333800010001203104000003327KBZPay                 Yangon        MMR11003151235400540480315000000000000000   10300001F05104100000000000630000000000000     
100   62911028202161240000000000013000000000013000002000000010410403151117110060774052200315000744239871   1030000200030000   541188001023000008000000298KBZ BANK               CITY MART - M MMR11003151117110060770315000000000000000   10300001 00104100000000000780000000000000     
100   62443100313529540000000000002000000000002000002000000010410403151825140159461761710315000744265540   1030000200030000   541188001055000008000000314KBZ BANK               MARKETPLACE - MMR11003151825140159460315000000000000000   10300001 00104100000000000500000000000000     
100   95050318400277060000000000050000000000050000002000000010410403150236150615721485380315000006809548   1030000200030000   333800010001203104000003327KBZPay                 Yangon        MMR11003150236150615720315000000000000000   10300001F05104100000000010500000000000000     
100   62443100348951400000000000300000000000300000002000000010410403151134240424582470100315000006813879   1030000200030000   333800010001203104000003327KBZPay                 Yangon        MMR11003151134240424580315000000000000000   10300001F05104100000000063000000000000000     
100   95030333816931040000000000007200000000007200002000000010410403151645550038024052100315000744260257   1030000200030000   541188001369000008000000395KBZ BANK               OCEAN SUPERMA MMR11003151645550038020315000000000000000   10300001 00104100000000000432000000000000     
100   62911028202472440000000000070183000000070183002000000010410403151327570297582184800315000744249353   1030000200030000   541188001024000008000000298KBZ BANK               CITY MART - M MMR11003151327570297580315000000000000000   10300001 00104100000000004211000000000000     
100   95050318131043910000000000002940000000002940002000000010410403151534040404319794130315000006815113   1020000200030000   333400010001204104000000281Myanmar Soft-Gate Tech Yangon        MMR11003151534040404310315000000000000000   10300001F05104100000000000617000000000000     
100   62443100348951400000000000300000000000300000002000000010410403151133080308978640740315000006813872   1030000200030000   333800010001203104000003327KBZPay                 Yangon        MMR11003151133080308970315000000000000000   10300001F05104100000000063000000000000000     
100   95050314567755980000000000000980000000000980002000000010410403151030360036380554190315000006813536   1020000200030000   333400010001204104000000281Myanmar Soft-Gate Tech Yangon        MMR11003151030360036380315000000000000000   10300001F05104100000000000206000000000000     
100   62911028202231380000000000011500000000011500002000000010410403151431550087724052100315000744253655   1030000200030000   541188001081000008000000294KBZ BANK               CITY MART - J MMR11003151431550087720315000000000000000   10300001 00104100000000000690000000000000     
100   95050310616516480000000000002940000000002940002000000010410403151334270427786836560315000006814587   1020000200030000   333400010001204104000000281Myanmar Soft-Gate Tech Yangon        MMR11003151334270427780315000000000000000   10300001F05104100000000000617000000000000     
100   62911028202231380000000000001200000000001200002000000010410403151344140083944052100315000744250494   1030000200030000   541188001088000008000000294KBZ BANK               CITY MART - J MMR11003151344140083940315000000000000000   10300001 00104100000000000072000000000000     
100   95050312298324450000000000000980000000000980002000000010410403151235250525639513530315000006814213   1020000200030000   333400010001204104000000281Myanmar Soft-Gate Tech Yangon        MMR11003151235250525630315000000000000000   10300001F05104100000000000206000000000000     
100   62911028202231380000000000002100000000002100002000000010410403151436550167624052100315000744253978   1030000200030000   541188001075000008000000294KBZ BANK               CITY MART - J MMR11003151436550167620315000000000000000   10300001 00104100000000000126000000000000     
100   62911028202663430000000000002000000000002000002000000010410403151621050179932184800315000744258985   1030000200030000   541188001032000008000000298KBZ BANK               CITY MART - M MMR11003151621050179930315000000000000000   10300001 00104100000000000120000000000000     
100   95050315144611650000000000005000000000005000002000000010410403150733150315338601890315000006812182   1030000200030000   333800010001203104000003327KBZPay                 Yangon        MMR11003150733150315330315000000000000000   10300001F05104100000000001050000000000000     
100   95050312675873230000000000002940000000002940002000000010410403151334340434759925690315000006814580   1020000200030000   333400010001204104000000281Myanmar Soft-Gate Tech Yangon        MMR11003151334340434750315000000000000000   10300001F05104100000000000617000000000000     
100   95050312613888920000000000020000000000020000002000000010410403150432400240650450440315000006810667   1030000200030000   333800010001203104000003327KBZPay                 Yangon        MMR11003150432400240650315000000000000000   10300001F05104100000000004200000000000000     
100   95050316818236190000000000000980000000000980002000000010410403151334390439785173580315000006814585   1020000200030000   333400010001204104000000281Myanmar Soft-Gate Tech Yangon        MMR11003151334390439780315000000000000000   10300001F05104100000000000206000000000000     
100   62911028202366430000000000002940000000002940002000000010410403150432200220512184800315000006810663   1020000200030000   333400010001204104000000281Myanmar Soft-Gate Tech Yangon        MMR11003150432200220510315000000000000000   10300001F05104100000000000617000000000000     
100   95050312498129060000000000001960000000001960002000000010410403150235370537166102450315000006809543   1020000200030000   333400010001204104000000281Myanmar Soft-Gate Tech Yangon        MMR11003150235370537160315000000000000000   10300001F05104100000000000412000000000000     
100   62911028202231380000000000007000000000007000002000000010410403151439410084004052100315000744254117   1030000200030000   541188001088000008000000294KBZ BANK               CITY MART - J MMR11003151439410084000315000000000000000   10300001 00104100000000000420000000000000     
100   95030341448197210000000000028820000000028820002000000010410403151653450114104052100315000744260684   1030000200030000   541188001009000008000000008KBZ BANK               MARKETPLACE - MMR11003151653450114100315000000000000000   10300001 00104100000000001729000000000000     
100   62443100348951400000000000300000000000300000002000000010410403151131550155741690450315000006813865   1030000200030000   333800010001203104000003327KBZPay                 Yangon        MMR11003151131550155740315000000000000000   10300001F05104100000000063000000000000000     
100   95030305100040620000000000026400000000026400002000000010410403150830480242572184800315000744231558   1030000200030000   541188001012000008000000008KBZ BANK               MARKETPLACE - MMR11003150830480242570315000000000000000   10300001 00104100000000001584000000000000     
100   62911028202616170000000000044300000000044300002000000010410403151931120049744052100315000744267582   1030000200030000   541188001002000008000000008KBZ BANK               MARKETPLACE - MMR11003151931120049740315000000000000000   10300001 00104100000000002658000000000000     
100   62911028202290100000000000033270000000033270002000000010410403151120100122332184800315000744240079   1030000200030000   541188001073000008000000294KBZ BANK               CITY MART - J MMR11003151120100122330315000000000000000   10300001 00104100000000001996000000000000     
100   95050312675873230000000000002940000000002940002000000010410403151338440844389429050315000006814613   1020000200030000   333400010001204104000000281Myanmar Soft-Gate Tech Yangon        MMR11003151338440844380315000000000000000   10300001F05104100000000000617000000000000     
100   62911028202170490000000000003280000000003280002000000010410403150708044381174052100315245431315073   1030000500030000   555610112249104519000010487Ocean Super Center St  ohn           MMR11003150708044381170315000000000000000   10300001 00104100000000000197000000000000     
100   95030384418409420000000000020000000000020000002000000010410403150242011201972184800315000006809584   1030000200030000   333800010001203104000003327KBZPay                 Yangon        MMR11003150242011201970315000000000000000   10300001F05104100000000004200000000000000     
100   95050324411430900000000000026000000000026000002000000010410403120538200011835026140312207105001183   1030000600030000   554100002085315799420000471DENKO BAHAN            YANGON        MMR11003120538200011830312000000000000000   10300001 00104100000000003120000000000000     
100   95050322426452690000000000065000000000065000002000000010410403120332190093906387680312207103009390   1030000600030000   554100001217315799420000669DENKO PHAYAR GYI       BAGO          MMR11003120332190093900312000000000000000   10300001 00104100000000007800000000000000     
100   95030305100040620000000000070000000000070000002000000010410403121201540715372184800312207112071537   1030000600030000   554100000946315799420000471DENKO BAHAN            YANGON        MMR11003121201540715370312000000000000000   10300001 00104100000000002100000000000000     
100   95050321232876860000000000085000000000085000002000000010410403120507010068765706910312207105006876   1030000600030000   554100002328315799420001235DENKO NAY PYI TAW 2    NAYPYITAW     MMR11003120507010068760312000000000000000   10300001 00104100000000010200000000000000     
100   62911028202181120000000000147000000000147000002000000010410403120130440221802184800312207101022180   1030000600030000   554100002086315799420001136DENKOHLAING THAR YAR   YANGON        MMR11003120130440221800312000000000000000   10300001 00104100000000004410000000000000     
100   62443100302523870000000000042000000000042000002000000010410403120425580449386132390312207104044938   1030000600030000   554100000969315799420000481DENKO NORTH OKKALAPA   YANGON        MMR11003120425580449380312000000000000000   10300001 00104100000000005040000000000000     
100   62443100303702210000000000465000000000465000002000000010410403120905310398219231510312207109039821   1030000600030000   554100001756315799420001137DENKO NORTH DAGON 2    YANGON        MMR11003120905310398210312000000000000000   10300001 00104100000000055800000000000000     
100   62443100303702210000000000068100000000068100002000000010410403120908290398234188960312207109039823   1030000600030000   554100001756315799420001137DENKO NORTH DAGON 2    YANGON        MMR11003120908290398230312000000000000000   10300001 00104100000000008172000000000000     
100   62911028202204070000000000050000000000050000002000000010410403120545280400182184800312207105040018   1030000600030000   554100001001315799420000498DENKO SHWE PYI THAR    YANGON        MMR11003120545280400180312000000000000000   10300001 00104100000000001500000000000000     
100   62911028202303640000000000020000000000020000002000000010410403120359080713762184800312207103071376   1030000600030000   554100000946315799420000471DENKO BAHAN            YANGON        MMR11003120359080713760312000000000000000   10300001 00104100000000000600000000000000     
100   62911028202221220000000000007000000000007000002000000010410403112328090713312184800312207123071331   1030000600030000   554100000946315799420000471DENKO BAHAN            YANGON        MMR11003112328090713310312000000000000000   10300001 00104100000000000210000000000000     
100   62911028202290100000000000030000000000030000002000000010410403120949350714932184800312207109071493   1030000600030000   554100000946315799420000471DENKO BAHAN            YANGON        MMR11003120949350714930312000000000000000   10300001 00104100000000000900000000000000     
100   62443100340422630000000004564400000004564400002000000010410403110659090000258493450311207006000025   1030000600030000   701100000977315799420000494LOTTE HOTELS & RESORTS YANGON        MMR11003110659090000250311000000000000000   10300001 00104100000001939870000000000000     
100   62911028202752520000000000058000000000058000002000000010410403110334460078522184800311207003007852   1030000600030000   554100002320315799420000564DENKO PHYUU            PHYUU         MMR11003110334460078520311000000000000000   10300001 00104100000000001740000000000000     
100   62911028202752030000000000113000000000113000002000000010410403111422040253282184800311207014025328   1030000600030000   554100001155315799420000607DENKO NPT 1            NAYPYITAW.    MMR11003111422040253280311000000000000000   10300001 00104100000000003390000000000000     
100   95050321232876860000000000092000000000092000002000000010410403130442400069519160200313207204006951   1030000600030000   554100002328315799420001235DENKO NAY PYI TAW 2    NAYPYITAW     MMR11003130442400069510313000000000000000   10300001 00104100000000011040000000000000     
100   62911028202269410000000000020000000000020000002000000010410403130508050075042184800313207205007504   1030000600030000   554100002324315799420000481DENKO NORTH OKKALAPA   YANGON        MMR11003130508050075040313000000000000000   10300001 00104100000000000600000000000000     
100   95030306100103570000000000046644000000046644002000000010410403131030050177612184800313207210017761   1030000600030000   809900000537315799420000147GRAND HANTHA HOSPITAL  YANGON        MMR11003131030050177610313000000000000000   10300001 00104100000000002799000000000000     
100   62911028202677390000000000030000000000030000002000000010410403130511380716582184800313207205071658   1030000600030000   554100000946315799420000471DENKO BAHAN            YANGON        MMR11003130511380716580313000000000000000   10300001 00104100000000000900000000000000     
100   95050327409540490000000000009000000000009000002000000010410403140723500007550717150314207313000755   1030000500030000   531120155803000045311201558GAMONE PWINT           PTN           MMR11003140723500007550314000000000000000   10300001 00104100000000002160000000000000     
100   95050319391394380000000000005940000000005940002000000010410403140224520019308281660314000335030512   1030000300030000   591200000169000000000000084CB BANK                MEDICARE STOR MMR11003140224520019300314000000000000000   10300001F00104100000000001426000000000000     
100   62911028202680670000000000040000000000040000002000000010410403140644370234962184800314207313023496   1030000500030000   598320001301000015172200013MAX ENERGY             PTN           MMR11003140644370234960314000000000000000   10300001 00104100000000001200000000000000     
100   62911028202663430000000000008000000000008000002000000010410403151618430022402184800315000744258866   1030000200030000   541188001022000008000000298KBZ BANK               CITY MART - M MMR11003151618430022400315000000000000000   10300001 00104100000000000480000000000000     
100   62911028202221220000000000005350000000005350002000000010410403140153020000642184800314207308000064   1030000500030000   541120181701000045411201817EASY MART-003          PTN           MMR11003140153020000640314000000000000000   10300001 00104100000000000321000000000000     
100   95050329252108030000000000010000000000010000002000000010410403140359200012253126440314207310001225   1030000500030000   598320002103000015172200021MAX ENERGY             PTN           MMR11003140359200012250314000000000000000   10300001 00104100000000001200000000000000     
100   62443100311760720000000000051500000000051500002000000010410403141017010017266874030314207310001726   1030000600030000   554100002085315799420000471DENKO BAHAN            YANGON        MMR11003141017010017260314000000000000000   10300001 00104100000000006180000000000000     
100   62911028202610540000000000011000000000011000002000000010410403140717150013642184800314207307001364   1030000600030000   597700001920315799420001290NATURE REPUBLIC JTM    LANMADAW TWP. MMR11003140717150013640314000000000000000   10300001 00104100000000000660000000000000     
100   62911028202449440000000000112880000000112880002000000010410403141157080029312184800314207318002931   1030000500030000   581220106701000015812201067THAI 47                PTN           MMR11003141157080029310314000000000000000   10300001 00104100000000011514000000000000     
100   95030320108927800000000000107000000000107000002000000010410403141318580007082184800314207319000708   1030000500030000   541120131301000055411201313MILLION MART YDN       PTN           MMR11003141318580007080314000000000000000   10300001 00104100000000006420000000000000     
100   95030312100077850000000000129493000000129493002000000010410403141043200024252184800314207317002425   1020000200030000   806200105001300018062000010MWD BANK               YGN           MMR11003141043200024250314000000000000000   10300001 00104100000000007770000000000000     
100   95050326590859670000000000005600000000005600002000000010410403140548040005518772730314000335056829   1030000300030000   541100000241000000000000133CB BANK                G & G CONVENI MMR11003140548040005510314000000000000000   10300001F00104100000000001400000000000000     
100   62911028202171550000000000030000000000030000002000000010410403140008500006582184800314207306000658   1030000500030000   598320005301000015172200053MAX ENERGY             PTN           MMR11003140008500006580314000000000000000   10300001 00104100000000000900000000000000     
