100   62911028202010500000000000020730000000020730002000000010410403161041540013962184800316207517001396   1030000500030000   531120155712000045311201557GAMONE PWINT           PTN           MMR11003161041540013960316000000000000000   10300001 00104100000000001244000000000000     
100   62443101072700490000000000138174000000138174002000000010410403161048550019426468690316000744285123   1030000200030000   541188001480000008000000399KBZ BANK               OCEAN SUPERCE MMR11003161048550019420316000000000000000   10300001 00104100000000034544000000000000     
100   95030301100124570000000000022770000000022770002000000010410403160306360074654052100316207509007465   1030000500030000   541120020801022205411200208ORANGE (TAMWE)         PTN           MMR11003160306360074650316000000000000000   10300001 00104100000000001366000000000000     
100   62443100355445150000000000072800000000072800002000000010410403160643570005380089880316207513000538   1030000500030000   581220114301008505812201143GOLDEN DUCK (KAN TAW M PTN           MMR11003160643570005380316000000000000000   10300001 00104100000000030940000000000000     
100   95050316901496590000000000007828000000007828002000000010410403160648380006892146000316207513000689   1030000500030000   541120045801009205411200458126 STORE              PTN           MMR11003160648380006890316000000000000000   10300001 00104100000000001957000000000000     
100   95050314842866260000000000004704000000004704002000000010410403160451000014844271020316207511001484   1030000500030000   531120156007000045311201560GAMONE PWINT           PTN           MMR11003160451000014840316000000000000000   10300001 00104100000000001129000000000000     
100   95050314842866260000000000013968000000013968002000000010410403160456460014856260520316207511001485   1030000500030000   531120156007000045311201560GAMONE PWINT           PTN           MMR11003160456460014850316000000000000000   10300001 00104100000000003352000000000000     
100   95050324444444460000000000050700000000050700002000000010410403160558210021784416010316000744289429   1030000200030000   581288000098000008000003562KBZ BANK               CANTON PARADI MMR11003160558210021780316000000000000000   10300001 00104100000000021548000000000000     
100   62911028202196800000000000001700000000001700002000000010410403171100044665892184800317338281701075   1030000500030000   555610112532104519000010487Ocean Super Center St  ohn           MMR11003171100044665890317000000000000000   10300001 00104100000000000102000000000000     
100   95050326593223450000000000113400000000113400002000000010410403170422335000971156430317379521033075   1030000900030000   541119000882190110000000084Pro (1) Global (Pazund YANGONARTAUNG MMR11003170422335000970317000000000000000   10300001F00104100000000028350000000000000     
100   62911028202668140000000000043550000000043550002000000010410403170948105077894052100317862181610075   1030000900030000   541119001280190110000000963City Mart SPL C 5      YANGONMYOTHIT MMR11003170948105077890317000000000000000   10300001F00104100000000002613000000000000     
100   95030301100425380000000000030000000000030000002000000010410403171023454660064052100317516511645075   1030000300030000   888810125940104519000021285Shwe Taung Energy CoLt               MMR11003171023454660060317000000000000000   10300001 00104100000000000900000000000000     
100   62911028202440680000000000006450000000006450002000000010410403171348424686854052100317168172030075   1030000500030000   555610120970104519000017733City Express MCS 14                  MMR11003171348424686850317000000000000000   10300001 00104100000000000387000000000000     
100   95050327996244850000000000300000000000300000002000000010410403170518064806759127910317000006821858   1030000200030000   3338000100012031040000040022C2P (Myanmar) Co. Ltd Yangon        MMR11003170518064806750317000000000000000   10300001F05104100000000063000000000000000     
100   95050320205194540000000000024300000000024300002000000010410403171011035082855757240317134411603075   1030000900030000   591219000969190110000000776Shwe Ohh Pharmacy St ( YANGONADA     MMR11003171011035082850317000000000000000   10300001F00104100000000005832000000000000     
100   62911028202677390000000000030000000000030000002000000010410403171348395128914052100317858182039075   1030000900030000   554119000345190110000000212New Day Energy PZD     YANGONAUNG    MMR11003171348395128910317000000000000000   10300001F00104100000000000900000000000000     
100   62911028202126020000000000118500000000118500002000000010410403160912510025364052100316207515002536   1030000500030000   503920036611000015039200366PRO-1 HOME CENTER      PTN           MMR11003160912510025360316000000000000000   10300001 00104100000000007110000000000000     
100   95030301100344930000000000026060000000026060002000000010410403160502100005732184800316000335378336   1030000300030000   591200000229000000000000123CB BANK                MEDICARE STOR MMR11003160502100005730316000000000000000   10300001F00104100000000001564000000000000     
100   62911028202237400000000000069500000000069500002000000010410403160831320010894052100316207515001089   1030000500030000   569120037801016505691200378SOON FASHION SHOP      PTN           MMR11003160831320010890316000000000000000   10300001 00104100000000004170000000000000     
100   95050323282717740000000000010000000000010000002000000010410403160817540001985549820316207514000198   1030000500030000   598320001303000015172200013MAX ENERGY             PTN           MMR11003160817540001980316000000000000000   10300001 00104100000000001200000000000000     
100   95030318100004530000000000047500000000047500002000000010410403160739580002224052100316207514000222   1030000500030000   503920036904017205039200369PRO-1 HOME CENTER      PTN           MMR11003160739580002220316000000000000000   10300001 00104100000000002850000000000000     
100   95050314842866260000000000022950000000022950002000000010410403160253500020135335920316207509002013   1030000500030000   531120156005000045311201560GAMONE PWINT           PTN           MMR11003160253500020130316000000000000000   10300001 00104100000000005508000000000000     
100   95050314842866260000000000018822000000018822002000000010410403160313170024756683700316207509002475   1030000500030000   531120156008000045311201560GAMONE PWINT           PTN           MMR11003160313170024750316000000000000000   10300001 00104100000000004517000000000000     
100   62911028202350660000000000010500000000010500002000000010410403161234130063764052100316000744289676   1030000200030000   541188001071000008000000314KBZ BANK               MARKETPLACE - MMR11003161234130063760316000000000000000   10300001 00104100000000000630000000000000     
100   62911028202196800000000000007255000000007255002000000010410403171054054665254052100317252231759075   1030000500030000   555610112238104519000010487Ocean Super Center St  ohn           MMR11003171054054665250317000000000000000   10300001 00104100000000000435000000000000     
100   62911028202451150000000000045950000000045950002000000010410403171132454672594052100317245041841075   1030000500030000   555610122578104519000018896City Mart Hlaing Thar  ar            MMR11003171132454672590317000000000000000   10300001 00104100000000002757000000000000     
100   62443100313529540000000000007370000000007370002000000010410403171201304676588417080317754291830075   1030000500030000   555610112985104519000011143Market Place by City M rt Sule       MMR11003171201304676580317000000000000000   10300001 00104100000000001843000000000000     
100   62911028202674810000000000015550000000015550002000000010410403171140314673314052100317335091800075   1030000500030000   555610110599104519000009166City Mart 47 Branch                  MMR11003171140314673310317000000000000000   10300001 00104100000000000933000000000000     
100   95050319667137090000000000029000000000029000002000000010410403171033195088598892010317503031719075   1030000900030000   541119001262190110000000958City Mart PLST C 5     YANGONMYOTHIT MMR11003171033195088590317000000000000000   10300001F00104100000000007250000000000000     
100   95030301100196920000000000027600000000027600002000000010410403170456265009494052100317885261126075   1030000900030000   541119001358190110000000977Ocean PZD C 12         YANGONAUNG    MMR11003170456265009490317000000000000000   10300001F00104100000000001656000000000000     
100   95050315345734110000000000000980000000000980002000000010410403171020445044712111880317000006824321   1020000200030000   333400010001204104000000281Myanmar Soft-Gate Tech Yangon        MMR11003171020445044710317000000000000000   10300001F05104100000000000206000000000000     
100   95050320335873810000000000070000000000070000002000000010410403170920105010452913400317000006823864   1030000200030000   333800010001203104000003327KBZPay                 Yangon        MMR11003170920105010450317000000000000000   10300001F05104100000000014700000000000000     
100   62443100372718280000000000084000000000084000002000000010410403161215200088215835060316000744288927   1030000200030000   541188001081000008000000294KBZ BANK               CITY MART - J MMR11003161215200088210316000000000000000   10300001 00104100000000021000000000000000     
100   62443100372702000000000000020000000000020000002000000010410403160846190235854829360316207515023585   1030000500030000   598320001201000015172200012MAX ENERGY             PTN           MMR11003160846190235850316000000000000000   10300001 00104100000000002400000000000000     
100   62911028202446540000000000045000000000045000002000000010410403160023450234634052100316207506023463   1030000500030000   598320001201000015172200012MAX ENERGY             PTN           MMR11003160023450234630316000000000000000   10300001 00104100000000001350000000000000     
100   62443101053241940000000000065200000000065200002000000010410403161209550145588459270316000744288675   1030000200030000   541188001304000008000000325KBZ BANK               CITY MART - A MMR11003161209550145580316000000000000000   10300001 00104100000000016300000000000000     
100   95050315955808830000000000016000000000016000002000000010410403160116480155820141730316207507015582   1030000500030000   598320001101000015172200011MAX ENERGY             PTN           MMR11003160116480155820316000000000000000   10300001 00104100000000001920000000000000     
100   62443100376865460000000000010500000000010500002000000010410403160334420135131435300316207510013513   1040001600030000   591220000271000000010000259Shwe Ohh Pharmacy (Gwa Yangon        MMR11003160334420135130316000000000000000   10300001F00104100000000002520000000000000     
100   62911028202418410000000000119830000000119830002000000010410403161337470168994052100316000744292305   1030000200030000   541188001037000008000000010KBZ BANK               MARKETPLACE - MMR11003161337470168990316000000000000000   10300001 00104100000000007190000000000000     
100   62911028202446540000000000010450000000010450002000000010410403161143330168124052100316000744287455   1030000200030000   541188001075000008000000294KBZ BANK               CITY MART - J MMR11003161143330168120316000000000000000   10300001 00104100000000000627000000000000     
100   95050316637484950000000000018850000000018850002000000010410403171136114674173034150317441141822075   1030000500030000   555610103978104519000003818Ocean Oattara Thiri Na PyiTaw        MMR11003171136114674170317000000000000000   10300001 00104100000000004713000000000000     
100   95030385550669610000000000022900000000022900002000000010410403170838585061832184800317938081558075   1030000900030000   541119001263190110000000958City Mart PLST C 6     YANGONMYOTHIT MMR11003170838585061830317000000000000000   10300001F00104100000000001374000000000000     
100   95050318601641810000000000010573000000010573002000000010410403171042445091063934560317658121744075   1030000900030000   541119001223190110000000945City Mart TM C 8       YANGONONE     MMR11003171042445091060317000000000000000   10300001F00104100000000002644000000000000     
100   62443100326022250000000000028600000000028600002000000010410403170822005200273503470317000006823395   1030000200030000   3333000100012031040000040282C2P (Myanmar) Co. Ltd Yangon        MMR11003170822005200270317000000000000000   10300001F05104100000000010000000000000000     
100   95050322823372070000000000020000000000020000002000000010410403171115225099389402590317217451722075   1030000900030000   554119001103190110000000215New Day Energy MYG     YANGONONE     MMR11003171115225099380317000000000000000   10300001F00104100000000002400000000000000     
100   95050316377977350000000000003000000000003000002000000010410403171221335133281892250317000006825007   1030000200030000   3338000100012031040000040022C2P (Myanmar) Co. Ltd Yangon        MMR11003171221335133280317000000000000000   10300001F05104100000000000630000000000000     
100   95050312240830690000000000004900000000004900002000000010410403171329235923572317730317000006825400   1020000200030000   333400010001204104000000281Myanmar Soft-Gate Tech Yangon        MMR11003171329235923570317000000000000000   10300001F05104100000000001029000000000000     
100   95050315743141220000000000000980000000000980002000000010410403170627185718635702190317000006822456   1020000200030000   333400010001204104000000281Myanmar Soft-Gate Tech Yangon        MMR11003170627185718630317000000000000000   10300001F05104100000000000206000000000000     
100   95050323282717740000000000030000000000030000002000000010410403161154140205576857880316207518020557   1030000500030000   598320001601000015172200016MAX ENERGY             PTN           MMR11003161154140205570316000000000000000   10300001 00104100000000003600000000000000     
100   62911028202284420000000000045641000000045641002000000010410403161606560160004052100316000744298812   1030000200030000   541188001055000008000000314KBZ BANK               MARKETPLACE - MMR11003161606560160000316000000000000000   10300001 00104100000000002739000000000000     
100   95030308100042590000000000072000000000072000002000000010410403160910410225214052100316207515022521   1030000500030000   598320001902000015172200019MAX ENERGY             PTN           MMR11003160910410225210316000000000000000   10300001 00104100000000002160000000000000     
100   62443100369787460000000000030000000000030000002000000010410403161039150241899701710316207517024189   1030000500030000   598320001202000015172200012MAX ENERGY             PTN           MMR11003161039150241890316000000000000000   10300001 00104100000000003600000000000000     
100   95030303100037510000000000039100000000039100002000000010410403161332360501412184800316207520050141   1040001600030000   581420000255000000010000243The Lord (Yankin)      Yangon        MMR11003161332360501410316000000000000000   10300001F00104100000000001173000000000000     
100   62911028202161240000000000023664000000023664002000000010410403171019420063284052100317000744325536   1030000200030000   541188001023000008000000298KBZ BANK               CITY MART - M MMR11003171019420063280317000000000000000   10300001 00104100000000001420000000000000     
100   95030305700676370000000000096100000000096100002000000010410403171441200044924052100317000744343914   1030000200030000   541188001504000008000000403KBZ BANK               OCEAN SUPERCE MMR11003171441200044920317000000000000000   10300001 00104100000000005766000000000000     
100   95050323282717740000000000009700000000009700002000000010410403170912300007912686360317000744322485   1030000200030000   581288001546000008000005007KBZ BANK               PWINT THIT SA MMR11003170912300007910317000000000000000   10300001 00104100000000004123000000000000     
100   95030359617000430000000000300000000000300000002000000010410403171328525852624052100317000006825398   1030000200030000   333800010001203104000003327KBZPay                 Yangon        MMR11003171328525852620317000000000000000   10300001F05104100000000063000000000000000     
100   95050311419479170000000000000980000000000980002000000010410403171624395439650409960317000006826082   1020000200030000   333400010001204104000000281Myanmar Soft-Gate Tech Yangon        MMR11003171624395439650317000000000000000   10300001F05104100000000000206000000000000     
100   95050311736839760000000000000980000000000980002000000010410403170224095409096023630317000006820223   1020000200030000   333400010001204104000000281Myanmar Soft-Gate Tech Yangon        MMR11003170224095409090317000000000000000   10300001F05104100000000000206000000000000     
100   95050319391394380000000000005400000000005400002000000010410403170941354653203338880317580111638075   1030000500030000   555610110595104519000009166City Mart 47 Branch                  MMR11003170941354653200317000000000000000   10300001 00104100000000001350000000000000     
100   62443100371022130000000000014600000000014600002000000010410403171026594661747154430317760021706075   1030000500030000   555610103464104519000003420City Mart Yankin Cente 3             MMR11003171026594661740317000000000000000   10300001 00104100000000003650000000000000     
100   95050328074436620000000000040000000000040000002000000010410403160306190240503988140316207509024050   1030000500030000   598320001202000015172200012MAX ENERGY             PTN           MMR11003160306190240500316000000000000000   10300001 00104100000000004800000000000000     
100   95030301100119050000000000100000000000100000002000000010410403170523315331004052100317000006821901   1030000200030000   333800010001203104000003327KBZPay                 Yangon        MMR11003170523315331000317000000000000000   10300001F05104100000000021000000000000000     
100   95050317942168830000000000004900000000004900002000000010410403170229475947889001990317000006820247   1020000200030000   333400010001204104000000281Myanmar Soft-Gate Tech Yangon        MMR11003170229475947880317000000000000000   10300001F05104100000000001029000000000000     
100   62443100314002660000000000065280000000065280002000000010410403171233050027266382960317000744335336   1030000200030000   541188001459000008000000391KBZ BANK               OCEAN SUPER C MMR11003171233050027260317000000000000000   10300001 00104100000000016320000000000000     
100   62911028202737030000000000300000000000300000002000000010410403170530230023004052100317000006821972   1030000200030000   333800010001203104000003327KBZPay                 Yangon        MMR11003170530230023000317000000000000000   10300001F05104100000000063000000000000000     
100   95050322312885760000000000007000000000007000002000000010410403170830010001798375830317000006823467   1030000200030000   333800010001203104000003327KBZPay                 Yangon        MMR11003170830010001790317000000000000000   10300001F05104100000000001470000000000000     
100   62443100318296470000000000025850000000025850002000000010410403171633050024116814050317000744349406   1030000200030000   541188001022000008000000298KBZ BANK               CITY MART - M MMR11003171633050024110317000000000000000   10300001 00104100000000006463000000000000     
100   95050317084233280000000000002940000000002940002000000010410403170831200120193333280317000006823486   1020000200030000   333400010001204104000000281Myanmar Soft-Gate Tech Yangon        MMR11003170831200120190317000000000000000   10300001F05104100000000000617000000000000     
100   62911028202158290000000000017350000000017350002000000010410403170308190763592184800317207610076359   1040001600030000   591220000278000000010000266Shwe Ohh Pharmacy (Bah Yangon        MMR11003170308190763590317000000000000000   10300001F00104100000000001041000000000000     
100   95030341448197210000000000024650000000024650002000000010410403171652440238252184800317000744350215   1030000200030000   541188001042000008000000010KBZ BANK               MARKETPLACE - MMR11003171652440238250317000000000000000   10300001 00104100000000001479000000000000     
100   62911028202416760000000000096000000000096000002000000010410403171014540978654052100317207617097865   1040001600030000   598320000854000000010000608Terminal Petrol Statio Yangon        MMR11003171014540978650317000000000000000   10300001F00104100000000002880000000000000     
100   95050316124652250000000000008100000000008100002000000010410403171127571042676254020317207618104267   1040001600030000   541120000573000000010000465Ocean Shwe Gone Daing  Yangon        MMR11003171127571042670317000000000000000   10300001F00104100000000002025000000000000     
100   95050319111666800000000000000980000000000980002000000010410403170325155515226021270317000006820767   1020000200030000   333400010001204104000000281Myanmar Soft-Gate Tech Yangon        MMR11003170325155515220317000000000000000   10300001F05104100000000000206000000000000     
100   95050312240830690000000000004900000000004900002000000010410403171327265726138927660317000006825383   1020000200030000   333400010001204104000000281Myanmar Soft-Gate Tech Yangon        MMR11003171327265726130317000000000000000   10300001F05104100000000001029000000000000     
100   95050320335873810000000000000980000000000980002000000010410403170925195519619693530317000006823901   1020000200030000   333400010001204104000000281Myanmar Soft-Gate Tech Yangon        MMR11003170925195519610317000000000000000   10300001F05104100000000000206000000000000     
100   95050317100052460000000000000980000000000980002000000010410403171328455845102232630317000006825397   1020000200030000   333400010001204104000000281Myanmar Soft-Gate Tech Yangon        MMR11003171328455845100317000000000000000   10300001F05104100000000000206000000000000     
100   62911028202471860000000000003200000000003200002000000010410403170750574636942184800317255191419075   1030000300030000   444410125393104519000021220Myanmar Bakery CoLtd                 MMR11003170750574636940317000000000000000   10300001 00104100000000000326000000000000     
100   95050320360851930000000000000980000000000980002000000010410403171327345734563885120317000006825385   1020000200030000   333400010001204104000000281Myanmar Soft-Gate Tech Yangon        MMR11003171327345734560317000000000000000   10300001F05104100000000000206000000000000     
100   95050311121153200000000000001960000000001960002000000010410403171026075607925501950317000006824367   1020000200030000   333400010001204104000000281Myanmar Soft-Gate Tech Yangon        MMR11003171026075607920317000000000000000   10300001F05104100000000000412000000000000     
100   95050310332595380000000000000980000000000980002000000010410403171134300430876339120317000006824759   1020000200030000   333400010001204104000000281Myanmar Soft-Gate Tech Yangon        MMR11003171134300430870317000000000000000   10300001F05104100000000000206000000000000     
100   62911028202406110000000000031000000000031000002000000010410403170641470871754052100317207613087175   1040001600030000   591220000294000000010000282Shwe Ohh Pharmacy (Kha Yangon        MMR11003170641470871750317000000000000000   10300001F00104100000000001860000000000000     
100   95050316818236190000000000000980000000000980002000000010410403170831330133865411250317000006823475   1020000200030000   333400010001204104000000281Myanmar Soft-Gate Tech Yangon        MMR11003170831330133860317000000000000000   10300001F05104100000000000206000000000000     
100   95050310332595380000000000004900000000004900002000000010410403171136040604064686640317000006824766   1020000200030000   333400010001204104000000281Myanmar Soft-Gate Tech Yangon        MMR11003171136040604060317000000000000000   10300001F05104100000000001029000000000000     
100   95050310409767690000000000006000000000006000002000000010410403170837590759883673660317000006823544   1030000200030000   333800010001203104000003327KBZPay                 Yangon        MMR11003170837590759880317000000000000000   10300001F05104100000000001260000000000000     
100   95050312937155340000000000011500000000011500002000000010410403171031540992778806910317207617099277   1040001600030000   591220000288000000010000276Shwe Ohh Pharmacy (Nor Yangon        MMR11003171031540992770317000000000000000   10300001F00104100000000002760000000000000     
100   95050312240830690000000000004900000000004900002000000010410403171331070107377275180317000006825412   1020000200030000   333400010001204104000000281Myanmar Soft-Gate Tech Yangon        MMR11003171331070107370317000000000000000   10300001F05104100000000001029000000000000     
100   62911028202366010000000000098000000000098000002000000010410403170907570940854052100317207616094085   1040001600030000   598320000326000000010000314PT Power Petrol Statio Nay Pyi Taw   MMR11003170907570940850317000000000000000   10300001F00104100000000002940000000000000     
100   95050319161596230000000000000980000000000980002000000010410403170140001000188079710317000006819967   1020000200030000   333400010001204104000000281Myanmar Soft-Gate Tech Yangon        MMR11003170140001000180317000000000000000   10300001F05104100000000000206000000000000     
100   62911028202803930000000000020000000000020000002000000010410403170731030103122184800317000006822998   1030000200030000   333800010001203104000003327KBZPay                 Yangon        MMR11003170731030103120317000000000000000   10300001F05104100000000004200000000000000     
100   95050315345734110000000000000980000000000980002000000010410403161633500350898859360317000006819450   1020000200030000   333400010001204104000000281Myanmar Soft-Gate Tech Yangon        MMR11003161633500350890317000000000000000   10300001F05104100000000000206000000000000     
100   62911028202737030000000000300000000000300000002000000010410403170531550155084052100317000006821994   1030000200030000   333800010001203104000003327KBZPay                 Yangon        MMR11003170531550155080317000000000000000   10300001F05104100000000063000000000000000     
100   62911028202290100000000000120800000000120800002000000010410403170743170900184052100317207614090018   1040001600030000   591220000295000000010000283Shwe Ohh Pharmacy (39t Yangon        MMR11003170743170900180317000000000000000   10300001F00104100000000007248000000000000     
100   95030302100015820000000000007050000000007050002000000010410403170830090921754052100317207615092175   1040001600030000   591220000296000000010000284Shwe Ohh Pharmacy (Lan Yangon        MMR11003170830090921750317000000000000000   10300001F00104100000000000423000000000000     
100   62911028202105070000000000266350000000266350002000000010410403171122481037882184800317207618103788   1040001600030000   591220000262000000010000250Shwe Ohh Pharmacy (SC- Yangon        MMR11003171122481037880317000000000000000   10300001F00104100000000015981000000000000     
100   95030317922148660000000000067063000000067063002000000010410403171847170160494052100317000744355872   1030000200030000   541188001008000008000000008KBZ BANK               MARKETPLACE - MMR11003171847170160490317000000000000000   10300001 00104100000000004024000000000000     
100   95050311273457710000000000100000000000100000002000000010410403170935130513988721820317000006823963   1030000200030000   333800010001203104000003327KBZPay                 Yangon        MMR11003170935130513980317000000000000000   10300001F05104100000000021000000000000000     
100   95050312926040930000000000001960000000001960002000000010410403171237170717786509310317000006825096   1020000200030000   333400010001204104000000281Myanmar Soft-Gate Tech Yangon        MMR11003171237170717780317000000000000000   10300001F05104100000000000412000000000000     
100   62911028202808150000000000002300000000002300002000000010410403171058240154254052100317000744328426   1030000200030000   541188001082000008000000294KBZ BANK               CITY MART - J MMR11003171058240154250317000000000000000   10300001 00104100000000000138000000000000     
100   62443100371022130000000000053000000000053000002000000010410403170752580904669311890317207614090466   1040001600030000   598320000658000000010000527Shwe Taung Energy (YGN Yangon        MMR11003170752580904660317000000000000000   10300001F00104100000000006360000000000000     
100   95030302100015820000000000017150000000017150002000000010410403170831390922564052100317207615092256   1040001600030000   591220000296000000010000284Shwe Ohh Pharmacy (Lan Yangon        MMR11003170831390922560317000000000000000   10300001F00104100000000001029000000000000     
100   62911028202907490000000000032300000000032300002000000010410403171038110997984052100317207617099798   1040001600030000   591220000299000000010000287Shwe Ohh Pharmacy (Yan Yangon        MMR11003171038110997980317000000000000000   10300001F00104100000000001938000000000000     
100   95050320360851930000000000000980000000000980002000000010410403170449091909933610430317000006821557   1020000200030000   333400010001204104000000281Myanmar Soft-Gate Tech Yangon        MMR11003170449091909930317000000000000000   10300001F05104100000000000206000000000000     
100   95050327996244850000000000100000000000100000002000000010410403170714434443466432400317000006822858   1030000200030000   3338000100012031040000040022C2P (Myanmar) Co. Ltd Yangon        MMR11003170714434443460317000000000000000   10300001F05104100000000021000000000000000     
100   95050314567755980000000000002050000000002050002000000010410403170928275827201856590317000006823926   1030000200030000   333800010001203104000003327KBZPay                 Yangon        MMR11003170928275827200317000000000000000   10300001F05104100000000000431000000000000     
100   62911028202261230000000000090550000000090550002000000010410403170934154652932184800317543091630075   1030000300030000   555610103748104519000003624G and G Convenience St re 165        MMR11003170934154652930317000000000000000   10300001 00104100000000005433000000000000     
100   95050312675525330000000000013000000000013000002000000010410403171446531653305282310317000006825774   1030000200030000   333800010001203104000003327KBZPay                 Yangon        MMR11003171446531653300317000000000000000   10300001F05104100000000002730000000000000     
100   95050313396828960000000000001960000000001960002000000010410403170246531653924459600317000006820366   1020000200030000   333400010001204104000000281Myanmar Soft-Gate Tech Yangon        MMR11003170246531653920317000000000000000   10300001F05104100000000000412000000000000     
100   95050314567080940000000000000980000000000980002000000010410403170306513651876232790317000006820592   1020000200030000   333400010001204104000000281Myanmar Soft-Gate Tech Yangon        MMR11003170306513651870317000000000000000   10300001F05104100000000000206000000000000     
100   95050323233042810000000000000980000000000980002000000010410403171315554555100495050317000006825313   1020000200030000   333400010001204104000000281Myanmar Soft-Gate Tech Yangon        MMR11003171315554555100317000000000000000   10300001F05104100000000000206000000000000     
100   95050323282717740000000000007350000000007350002000000010410403170542094618798532230317683101252075   1030000300030000   444410125394104519000021221Myanmar Bakery CoLtd                 MMR11003170542094618790317000000000000000   10300001 00104100000000003124000000000000     
100   95050317823045920000000000030000000000030000002000000010410403171341041104235622690317000006825472   1030000200030000   333800010001203104000003327KBZPay                 Yangon        MMR11003171341041104230317000000000000000   10300001F05104100000000006300000000000000     
100   95050317915469510000000000090720000000090720002000000010410403170741351135167744500317000006823084   1030000900030000   333800010001202104000003301uab bank               Yangon        MMR11003170741351135160317000000000000000   10300001F05104100000000019051000000000000     
100   95030301100123250000000000005000000000005000002000000010410403170255172517924052100317000006820457   1030000200030000   333800010001203104000003327KBZPay                 Yangon        MMR11003170255172517920317000000000000000   10300001F05104100000000001050000000000000     
100   95050325630928770000000000000980000000000980002000000010410403171154092409971211480317000006824854   1020000200030000   333400010001204104000000281Myanmar Soft-Gate Tech Yangon        MMR11003171154092409970317000000000000000   10300001F05104100000000000206000000000000     
100   95050316997303010000000000001960000000001960002000000010410403170254442444895239210317000006820432   1020000200030000   333400010001204104000000281Myanmar Soft-Gate Tech Yangon        MMR11003170254442444890317000000000000000   10300001F05104100000000000412000000000000     
100   95050314557307430000000000002940000000002940002000000010410403171401313131293629830317000006825572   1020000200030000   333400010001204104000000281Myanmar Soft-Gate Tech Yangon        MMR11003171401313131290317000000000000000   10300001F05104100000000000617000000000000     
100   95030301100118480000000000050000000000050000002000000010410403171606153615874052100317000006826032   1030000200030000   333800010001203104000003327KBZPay                 Yangon        MMR11003171606153615870317000000000000000   10300001F05104100000000010500000000000000     
100   95050315158357300000000000000980000000000980002000000010410403170943051305044991370317000006824015   1020000200030000   333400010001204104000000281Myanmar Soft-Gate Tech Yangon        MMR11003170943051305040317000000000000000   10300001F05104100000000000206000000000000     
100   62443100372702000000000000030200000000030200002000000010410403171003464656878977110317087321632075   1030000500030000   555610112983104519000011143Market Place by City M rt Sule       MMR11003171003464656870317000000000000000   10300001 00104100000000007550000000000000     
100   95050310685238570000000000003000000000003000002000000010410403171457262726217019890317000006825815   1030000200030000   3334000100012031040000040102C2P (Myanmar) Co. Ltd Yangon        MMR11003171457262726210317000000000000000   10300001F05104100000000000630000000000000     
100   95050324622440820000000000025000000000025000002000000010410403150022030059666157600315207400005966   1030000600030000   549900002153315799420001502EASY MART- 003         YANGON        MMR11003150022030059660315000000000000000   10300001 00104100000000010625000000000000     
100   95030305700676370000000000080000000000080000002000000010410403151012590047864052100315207410004786   1030000600030000   554100002141315799420001490DENKO MEIKHTILA 3      MANDALAY      MMR11003151012590047860315000000000000000   10300001 00104100000000002400000000000000     
100   62911028202393160000000000050000000000050000002000000010410403150511190077814052200315207405007781   1030000600030000   554100001218315799420000670DENKO MAWLAMYAING      MON STATE.    MMR11003150511190077810315000000000000000   10300001 00104100000000001500000000000000     
100   95050320531117320000000000396000000000396000002000000010410403150536020337389904210315207405033738   1030000600030000   554100001009315799420000504DENKO SOUTH DAGON      YANGON        MMR11003150536020337380315000000000000000   10300001 00104100000000047520000000000000     
100   62911028202154800000000000050201000000050201002000000010410403150713130564312184800315207407056431   1030000600030000   554100000952315799420000474DENKO N.DAGON - 1      YANGON        MMR11003150713130564310315000000000000000   10300001 00104100000000001506000000000000     
100   62911028202397530000000000030000000000030000002000000010410403150226310136402184800315207402013640   1030000600030000   554100001011315799420000505DENKO HTAN TA PIN      YANGON        MMR11003150226310136400315000000000000000   10300001 00104100000000000900000000000000     
100   95050311876202380000000000030000000000030000002000000010410403150339310070877562880315207403007087   1030000600030000   554100002328315799420001235DENKO NAY PYI TAW 2    NAYPYITAW     MMR11003150339310070870315000000000000000   10300001 00104100000000003600000000000000     
100   62443100383487320000000000175000000000175000002000000010410403160639510008086614710316207513000808   1030000500030000   729820064401000017298200644HAIR REPUBLIC SALON    PTN           MMR11003160639510008080316000000000000000   10300001 00104100000000042000000000000000     
100   95050320360851930000000000000980000000000980002000000010410403170255222522871338620317000006820454   1020000200030000   333400010001204104000000281Myanmar Soft-Gate Tech Yangon        MMR11003170255222522870317000000000000000   10300001F05104100000000000206000000000000     
100   95050312498129060000000000002940000000002940002000000010410403171409413941611977340317000006825612   1020000200030000   333400010001204104000000281Myanmar Soft-Gate Tech Yangon        MMR11003171409413941610317000000000000000   10300001F05104100000000000617000000000000     
100   95030301100155910000000000030000000000030000002000000010410403170309313931084052100317000006820624   1030000200030000   333800010001203104000003327KBZPay                 Yangon        MMR11003170309313931080317000000000000000   10300001F05104100000000006300000000000000     
100   62911028202169180000000000010400000000010400002000000010410403170505574613744052100317960351132075   1030000500030000   555610120984104519000017747City Express MCS 112                 MMR11003170505574613740317000000000000000   10300001 00104100000000000624000000000000     
100   95030349489765520000000000030000000000030000002000000010410403170605283528192184800317000006822261   1030000200030000   333800010001203104000003327KBZPay                 Yangon        MMR11003170605283528190317000000000000000   10300001F05104100000000006300000000000000     
100   95050314703432410000000000040000000000040000002000000010410403171143131313329729180317000006824795   1030000200030000   3338000100012031040000040022C2P (Myanmar) Co. Ltd Yangon        MMR11003171143131313320317000000000000000   10300001F05104100000000008400000000000000     
100   95050315066440750000000000003920000000003920002000000010410403170847261726098631120317000006823598   1020000200030000   333400010001204104000000281Myanmar Soft-Gate Tech Yangon        MMR11003170847261726090317000000000000000   10300001F05104100000000000823000000000000     
100   95050312498129060000000000004900000000004900002000000010410403170256152615367863450317000006820471   1020000200030000   333400010001204104000000281Myanmar Soft-Gate Tech Yangon        MMR11003170256152615360317000000000000000   10300001F05104100000000001029000000000000     
100   62911028202169750000000000002800000000002800002000000010410403161452250025034052100316000744295511   1030000200030000   541188001188000008000000383KBZ BANK               OCEAN SUPER C MMR11003161452250025030316000000000000000   10300001 00104100000000000168000000000000     
100   95030327835334700000000000009778000000009778002000000010410403161011200126982184800316000744283583   1030000200030000   541188001242000008000000323KBZ BANK               CITY MART - I MMR11003161011200126980316000000000000000   10300001 00104100000000000587000000000000     
100   62911028202803930000000000031350000000031350002000000010410403171128331043264052100317207618104326   1040001600030000   591220000298000000010000286Shwe Ohh Pharmacy (Shw Yangon        MMR11003171128331043260317000000000000000   10300001F00104100000000001881000000000000     
100   95050328074436620000000000046000000000046000002000000010410403171046071004712792650317207617100471   1040001600030000   591220000287000000010000275Shwe Ohh Pharmacy (Wit Yangon        MMR11003171046071004710317000000000000000   10300001F00104100000000011040000000000000     
100   62911028202132040000000000007900000000007900002000000010410403170709530885274052100317207614088527   1040001600030000   541120000563000000010000465Ocean Shwe Gone Daing  Yangon        MMR11003170709530885270317000000000000000   10300001F00104100000000000474000000000000     
100   95050316818236190000000000000980000000000980002000000010410403170948321832588381430317000006824072   1020000200030000   333400010001204104000000281Myanmar Soft-Gate Tech Yangon        MMR11003170948321832580317000000000000000   10300001F05104100000000000206000000000000     
100   95050311273457710000000000050000000000050000002000000010410403170909523952609863730317000006823794   1030000200030000   333800010001203104000003327KBZPay                 Yangon        MMR11003170909523952600317000000000000000   10300001F05104100000000010500000000000000     
100   95030301100102610000000000020000000000020000002000000010410403170617444744604052100317000006822361   1030000200030000   333800010001203104000003327KBZPay                 Yangon        MMR11003170617444744600317000000000000000   10300001F05104100000000004200000000000000     
100   95050313616076540000000000009050000000009050002000000010410403170903343334714821170317000006823728   1030000200030000   333800010001203104000003327KBZPay                 Yangon        MMR11003170903343334710317000000000000000   10300001F05104100000000001901000000000000     
100   95050319938772870000000000000980000000000980002000000010410403171312404240735537600317000006825286   1020000200030000   333400010001204104000000281Myanmar Soft-Gate Tech Yangon        MMR11003171312404240730317000000000000000   10300001F05104100000000000206000000000000     
100   95030301100170760000000000007300000000007300002000000010410403170550454620124052100317887181255075   1030000300030000   555610125778104519000021591One Stop Kitchen Super arket         MMR11003170550454620120317000000000000000   10300001 00104100000000000438000000000000     
100   95050319928585020000000000000980000000000980002000000010410403170849071907845241050317000006823612   1020000200030000   333400010001204104000000281Myanmar Soft-Gate Tech Yangon        MMR11003170849071907840317000000000000000   10300001F05104100000000000206000000000000     
100   95050316184853420000000000010000000000010000002000000010410403170400313031163323390317000006821068   1030000200030000   333800010001203104000003327KBZPay                 Yangon        MMR11003170400313031160317000000000000000   10300001F05104100000000002100000000000000     
100   95050317343045830000000000000980000000000980002000000010410403171410414041376934800317000006825614   1020000200030000   333400010001204104000000281Myanmar Soft-Gate Tech Yangon        MMR11003171410414041370317000000000000000   10300001F05104100000000000206000000000000     
100   62911028202261230000000000001200000000001200002000000010410403170940214653874052100317684151641075   1030000300030000   555610103748104519000003624G and G Convenience St re 165        MMR11003170940214653870317000000000000000   10300001 00104100000000000072000000000000     
100   95050316049877640000000000001960000000001960002000000010410403171555542554480324860317000006825986   1020000200030000   333400010001204104000000281Myanmar Soft-Gate Tech Yangon        MMR11003171555542554480317000000000000000   10300001F05104100000000000412000000000000     
100   95050312926040930000000000001960000000001960002000000010410403170349241924141053370317000006820988   1020000200030000   333400010001204104000000281Myanmar Soft-Gate Tech Yangon        MMR11003170349241924140317000000000000000   10300001F05104100000000000412000000000000     
100   95050312498129060000000000004900000000004900002000000010410403170216294629743399430317000006820172   1020000200030000   333400010001204104000000281Myanmar Soft-Gate Tech Yangon        MMR11003170216294629740317000000000000000   10300001F05104100000000001029000000000000     
100   95050314307746340000000000000980000000000980002000000010410403170439270927013525340317000006821448   1020000200030000   333400010001204104000000281Myanmar Soft-Gate Tech Yangon        MMR11003170439270927010317000000000000000   10300001F05104100000000000206000000000000     
100   95030301100422150000000000000980000000000980002000000010410403170735010501172184800317000006823022   1020000200030000   333400010001204104000000281Myanmar Soft-Gate Tech Yangon        MMR11003170735010501170317000000000000000   10300001F05104100000000000206000000000000     
100   95050317100052460000000000000980000000000980002000000010410403171031090109683849460317000006824397   1020000200030000   333400010001204104000000281Myanmar Soft-Gate Tech Yangon        MMR11003171031090109680317000000000000000   10300001F05104100000000000206000000000000     
100   95050323233042810000000000010500000000010500002000000010410403171004403440397324620317000006824210   1030000200030000   333800010001203104000003327KBZPay                 Yangon        MMR11003171004403440390317000000000000000   10300001F05104100000000002205000000000000     
100   62443100338139870000000000300000000000300000002000000010410403161345440002376117940316000744292692   1030000200030000   541188001067000008000000314KBZ BANK               MARKETPLACE - MMR11003161345440002370316000000000000000   10300001 00104100000000075000000000000000     
100   95030312100077850000000000011964000000011964002000000010410403161020560159542184800316000744283944   1030000200030000   541188001055000008000000314KBZ BANK               MARKETPLACE - MMR11003161020560159540316000000000000000   10300001 00104100000000000718000000000000     
100   95050317903887690000000000000980000000000980002000000010410403171255562556074941920317000006825184   1020000200030000   333400010001204104000000281Myanmar Soft-Gate Tech Yangon        MMR11003171255562556070317000000000000000   10300001F05104100000000000206000000000000     
100   95050327996244850000000000200000000000200000002000000010410403170905083508463168690317000006823741   1030000200030000   3338000100012031040000040022C2P (Myanmar) Co. Ltd Yangon        MMR11003170905083508460317000000000000000   10300001F05104100000000042000000000000000     
100   95050311419479170000000000000980000000000980002000000010410403161904263426975738390317000006819633   1020000200030000   333400010001204104000000281Myanmar Soft-Gate Tech Yangon        MMR11003161904263426970317000000000000000   10300001F05104100000000000206000000000000     
100   95050310427855490000000000000980000000000980002000000010410403170213434343550775230317000006820158   1020000200030000   333400010001204104000000281Myanmar Soft-Gate Tech Yangon        MMR11003170213434343550317000000000000000   10300001F05104100000000000206000000000000     
100   95050314775367220000000000033100000000033100002000000010410403170816144614256808440317000006823354   1030000200030000   333800010001203104000003327KBZPay                 Yangon        MMR11003170816144614250317000000000000000   10300001F05104100000000006951000000000000     
100   62443100340648380000000000003000000000003000002000000010410403171342191219537360280317000006825486   1030000200030000   333800010001203104000003327KBZPay                 Yangon        MMR11003171342191219530317000000000000000   10300001F05104100000000000630000000000000     
100   62911028202449440000000000507600000000507600002000000010410403170156404595234052100317482240856075   1030000300030000   555510107297104519000006507Bumrungrad Clinc Yango               MMR11003170156404595230317000000000000000   10300001 00104100000000030456000000000000     
100   62443100333488440000000000000650000000000650002000000010410403170646234628596929190317059171354075   1030000500030000   555610121914104519000018359City Express MCS 114                 MMR11003170646234628590317000000000000000   10300001 00104100000000000163000000000000     
100   62443100379321630000000000002200000000002200002000000010410403170916045070221260920317425461504075   1030000900030000   581219000446190110000000301Shwepalin (Highway-4)  MONIKTO       MMR11003170916045070220317000000000000000   10300001F00104100000000000935000000000000     
100   62911028202225440000000000008950000000008950002000000010410403170545540841054052100317207612084105   1040001600030000   591220000276000000010000264Shwe Ohh Pharmacy (YGH Yangon        MMR11003170545540841050317000000000000000   10300001F00104100000000000537000000000000     
100   62911028202161240000000000023480000000023480002000000010410403171751400044184052100317000744353506   1030000200030000   541188001021000008000000298KBZ BANK               CITY MART - M MMR11003171751400044180317000000000000000   10300001 00104100000000001409000000000000     
100   62443100344229520000000000110150000000110150002000000010410403160306170029926612350316207509002992   1030000500030000   541120020601022205411200206ORANGE (NOKL)          PTN           MMR11003160306170029920316000000000000000   10300001 00104100000000027538000000000000     
100   95050319938772870000000000000980000000000980002000000010410403171258122812696679510317000006825193   1020000200030000   333400010001204104000000281Myanmar Soft-Gate Tech Yangon        MMR11003171258122812690317000000000000000   10300001F05104100000000000206000000000000     
100   95050310685238570000000000003000000000003000002000000010410403171505453545475367400317000006825843   1030000200030000   3334000100012031040000040102C2P (Myanmar) Co. Ltd Yangon        MMR11003171505453545470317000000000000000   10300001F05104100000000000630000000000000     
100   62443100393841160000000000031000000000031000002000000010410403141358310049569377480314207313004956   1030000600030000   554100001226315799420000679DENKO MAGWAY - 2       MAGWAY        MMR11003141358310049560314000000000000000   10300001 00104100000000003720000000000000     
100   95050311883152260000000000050150000000050150002000000010410403170508045012236078230317043381104075   1030000900030000   569919000580190110000000420D & C Myanmar (JC)     YANGONUT      MMR11003170508045012230317000000000000000   10300001F00104100000000012036000000000000     
100   95050311419479170000000000000980000000000980002000000010410403161642531253525384240317000006819464   1020000200030000   333400010001204104000000281Myanmar Soft-Gate Tech Yangon        MMR11003161642531253520317000000000000000   10300001F05104100000000000206000000000000     
100   62911028202077010000000000000980000000000980002000000010410403171102403240194052100317000006824599   1020000200030000   333400010001204104000000281Myanmar Soft-Gate Tech Yangon        MMR11003171102403240190317000000000000000   10300001F05104100000000000206000000000000     
100   95050312171561790000000000015000000000015000002000000010410403170403113311467366640317000006821097   1030000200030000   333800010001203104000003327KBZPay                 Yangon        MMR11003170403113311460317000000000000000   10300001F05104100000000003150000000000000     
100   95050317176867660000000000001960000000001960002000000010410403170712034203861474950317000006822838   1020000200030000   333400010001204104000000281Myanmar Soft-Gate Tech Yangon        MMR11003170712034203860317000000000000000   10300001F05104100000000000412000000000000     
100   62443100372702000000000000030150000000030150002000000010410403171000544656298466530317008291623075   1030000500030000   555610112983104519000011143Market Place by City M rt Sule       MMR11003171000544656290317000000000000000   10300001 00104100000000007538000000000000     
100   95050317084233280000000000002940000000002940002000000010410403170757132713835921820317000006823206   1020000200030000   333400010001204104000000281Myanmar Soft-Gate Tech Yangon        MMR11003170757132713830317000000000000000   10300001F05104100000000000617000000000000     
100   95050319938772870000000000001960000000001960002000000010410403171255402540936594410317000006825181   1020000200030000   333400010001204104000000281Myanmar Soft-Gate Tech Yangon        MMR11003171255402540930317000000000000000   10300001F05104100000000000412000000000000     
100   95050316717221100000000000000980000000000980002000000010410403170544221422611837200317000006822097   1020000200030000   333400010001204104000000281Myanmar Soft-Gate Tech Yangon        MMR11003170544221422610317000000000000000   10300001F05104100000000000206000000000000     
100   95030301100344930000000000027150000000027150002000000010410403160958150003254052100316000744299991   1030000200030000   591288001558000008000005041KBZ BANK               ORCHID (TGG1) MMR11003160958150003250316000000000000000   10300001 00104100000000001629000000000000     
100   95050314842866260000000000008064000000008064002000000010410403160506520015994061820316207511001599   1030000500030000   531120156001000045311201560GAMONE PWINT           PTN           MMR11003160506520015990316000000000000000   10300001 00104100000000001935000000000000     
100   95030314100003900000000000007332000000007332002000000010410403161842060018974052100316000744306273   1030000200030000   541188001452000008000000391KBZ BANK               OCEAN SUPER C MMR11003161842060018970316000000000000000   10300001 00104100000000000440000000000000     
100   95030308100042590000000000013600000000013600002000000010410403160900470002494052100316000335407223   1030000300030000   581400000753000000000000518CB BANK                KFC (HLD)     MMR11003160900470002490316000000000000000   10300001F00104100000000000408000000000000     
100   62911028202527490000000000035200000000035200002000000010410403160837040019844052100316000744296182   1030000200030000   591288000018000008000002044KBZ BANK               PINLON PHARMA MMR11003160837040019840316000000000000000   10300001 00104100000000002112000000000000     
100   62911028202225440000000000001250000000001250002000000010410403161517420017094052100316000744296644   1030000200030000   541188001058000008000000314KBZ BANK               MARKETPLACE - MMR11003161517420017090316000000000000000   10300001 00104100000000000075000000000000     
100   95050323282717740000000000010000000000010000002000000010410403160155440073404383550316207508007340   1030000500030000   598320068301000055983200683MAX ENERGY             PTN           MMR11003160155440073400316000000000000000   10300001 00104100000000001200000000000000     
100   62443100363668680000000000017500000000017500002000000010410403161729290025212411010316000744303211   1030000200030000   541188001188000008000000383KBZ BANK               OCEAN SUPER C MMR11003161729290025210316000000000000000   10300001 00104100000000004375000000000000     
100   62443100314002660000000000012500000000012500002000000010410403170640064627068326390317816081312075   1030000300030000   555510118813104519000016014MGOU Ocean Center                    MMR11003170640064627060317000000000000000   10300001 00104100000000003000000000000000     
100   62443100333488440000000000018500000000018500002000000010410403170712014632688084890317601481324075   1030000500030000   555610108761104519000003420City Mart Yankin Cente 1             MMR11003170712014632680317000000000000000   10300001 00104100000000004625000000000000     
100   95050316231020800000000000050400000000050400002000000010410403170747391739414354430317000006823143   1030000900030000   333800010001202104000003301uab bank               Yangon        MMR11003170747391739410317000000000000000   10300001F05104100000000010584000000000000     
100   95050311419479170000000000000980000000000980002000000010410403161656312631189213510317000006819490   1020000200030000   333400010001204104000000281Myanmar Soft-Gate Tech Yangon        MMR11003161656312631180317000000000000000   10300001F05104100000000000206000000000000     
100   95050314893649800000000000002940000000002940002000000010410403170258052805287012450317000006820497   1020000200030000   333400010001204104000000281Myanmar Soft-Gate Tech Yangon        MMR11003170258052805280317000000000000000   10300001F05104100000000000617000000000000     
100   95050317942168830000000000004900000000004900002000000010410403171259112911935027020317000006825200   1020000200030000   333400010001204104000000281Myanmar Soft-Gate Tech Yangon        MMR11003171259112911930317000000000000000   10300001F05104100000000001029000000000000     
100   62911028202225440000000000001600000000001600002000000010410403170553154622074052100317135331242075   1030000500030000   555610110576104519000009164City Mart China Town P int Cen       MMR11003170553154622070317000000000000000   10300001 00104100000000000096000000000000     
100   62911028202261800000000000030000000000030000002000000010410403170640364628232184800317992151313075   1030000500030000   888810109465104519000008484Max Energy CoLtd 1                   MMR11003170640364628230317000000000000000   10300001 00104100000000000900000000000000     
100   62911028202169750000000000030000000000030000002000000010410403160041370013862184800316207507001386   1030000500030000   598320002103000015172200021MAX ENERGY             PTN           MMR11003160041370013860316000000000000000   10300001 00104100000000000900000000000000     
100   62911028202440680000000000012000000000012000002000000010410403161110040088154052100316000744285983   1030000200030000   541188001081000008000000294KBZ BANK               CITY MART - J MMR11003161110040088150316000000000000000   10300001 00104100000000000720000000000000     
100   95050314842866260000000000010752000000010752002000000010410403160516140012340586700316207511001234   1030000500030000   531120156003000045311201560GAMONE PWINT           PTN           MMR11003160516140012340316000000000000000   10300001 00104100000000002580000000000000     
100   62911028202507190000000000082000000000082000002000000010410403160108170048602184800316207507004860   1030000500030000   598320002104000015172200021MAX ENERGY             PTN           MMR11003160108170048600316000000000000000   10300001 00104100000000002460000000000000     
100   62443100315853220000000000094868000000094868002000000010410403161307280013223565050316000744291054   1030000200030000   541188001488000008000000399KBZ BANK               OCEAN SUPERCE MMR11003161307280013220316000000000000000   10300001 00104100000000023717000000000000     
100   62911028202161240000000000004825000000004825002000000010410403161012030022944052100316000744283618   1030000200030000   541188001022000008000000298KBZ BANK               CITY MART - M MMR11003161012030022940316000000000000000   10300001 00104100000000000290000000000000     
100   62443100390038980000000000057000000000057000002000000010410403160259520015892711760316207509001589   1030000500030000   598320005201000015172200052MAX ENERGY             PTN           MMR11003160259520015890316000000000000000   10300001 00104100000000006840000000000000     
100   62443100399918110000000000026313000000026313002000000010410403160635560018416189250316207513001841   1030000500030000   531120155714000045311201557GAMONE PWINT           PTN           MMR11003160635560018410316000000000000000   10300001 00104100000000006315000000000000     
100   62443101007477200000000000113045000000113045002000000010410403171051214664684445130317181201723075   1030000500030000   555610118961104519000016137City Mart South Okkala WZYD BR       MMR11003171051214664680317000000000000000   10300001 00104100000000028262000000000000     
100   95030301100120850000000000010000000000010000002000000010410403170920135013014052100317000006823868   1030000200030000   333800010001203104000003327KBZPay                 Yangon        MMR11003170920135013010317000000000000000   10300001F05104100000000002100000000000000     
100   62443100334378030000000000142450000000142450002000000010410403170910515069037870850317360401551075   1030000900030000   581219000423190110000000284BCC (SYS)              YANGON        MMR11003170910515069030317000000000000000   10300001F00104100000000060542000000000000     
100   95050315150726490000000000005850000000005850002000000010410403170958155080123509080317985281615075   1030000900030000   541119000116190110000000078Sein Gay Har Kan Thar  YANGONOKKALAP MMR11003170958155080120317000000000000000   10300001F00104100000000001463000000000000     
100   95030301100121270000000000274350000000274350002000000010410403170425245001734052100317423551024075   1030000900030000   541119001513190110000001102Ocean MGDTM C-6        YANGONADON    MMR11003170425245001730317000000000000000   10300001F00104100000000016461000000000000     
100   95050315344668630000000000007000000000007000002000000010410403170941165076358296330317775111616075   1030000900030000   541119000112190110000000077Sein Gay Har Chinatown YANGON        MMR11003170941165076350317000000000000000   10300001F00104100000000001750000000000000     
100   62911028202668140000000000053300000000053300002000000010410403170954365079394052100317946241636075   1030000900030000   541119001290190110000000965City Mart SPL City Car YANGONMYOTHIT MMR11003170954365079390317000000000000000   10300001F00104100000000003198000000000000     
100   95030349489765520000000000000500000000000500002000000010410403170721095109454052100317000006822912   1030000200030000   333800010001203104000003327KBZPay                 Yangon        MMR11003170721095109450317000000000000000   10300001F05104100000000000105000000000000     
