100   95050325329474660000000000317500000000317500002000000010410403180430295209282990430318668001129076   1030000900030000   594419000581190110000000421Zwe Htet Gems & Jewell MANDALAYTHARS MMR11003180430295209280318000000000000000   10300001F00104100000000076200000000000000     
100   95030325264619140000000000005500000000005500002000000010410403180805454758864052100318036341420076   1030000300030000   555510125327104519000021173One Stop Mart Shopping Mall 0003     MMR11003180805454758860318000000000000000   10300001 00104100000000000330000000000000     
100   62911028202440680000000000010450000000010450002000000010410403181026104780484052100318986561603076   1030000500030000   555610120970104519000017733City Express MCS 14                  MMR11003181026104780480318000000000000000   10300001 00104100000000000627000000000000     
100   95050316785465380000000000001960000000001960002000000010410403180620055005810132800318000006829097   1020000200030000   333400010001204104000000281Myanmar Soft-Gate Tech Yangon        MMR11003180620055005810318000000000000000   10300001F05104100000000000412000000000000     
100   62911028202533900000000000003800000000003800002000000010410403180525385222924052100318478551138076   1030000900030000   541119000161190110000000084Pro (1) Global (Pazund YANGONARTAUNG MMR11003180525385222920318000000000000000   10300001F00104100000000000228000000000000     
100   62911028202400660000000000089100000000089100002000000010410403180616145236204052100318268461214076   1030000900030000   569919001038190110000000843MDS MPZ                YANGON        MMR11003180616145236200318000000000000000   10300001F00104100000000005346000000000000     
100   95050313640946520000000000010800000000010800002000000010410403181044404783232046290318420131726076   1030000500030000   555610103464104519000003420City Mart Yankin Cente 3             MMR11003181044404783230318000000000000000   10300001 00104100000000002700000000000000     
100   95050316997303010000000000001960000000001960002000000010410403181419474947721145880318000006832224   1020000200030000   333400010001204104000000281Myanmar Soft-Gate Tech Yangon        MMR11003181419474947720318000000000000000   10300001F05104100000000000412000000000000     
100   62443100311760720000000000054000000000054000002000000010410403160845010685253347070316207508068525   1030000600030000   554100000955315799420000477DENKO INSEIN           YANGON        MMR11003160845010685250316000000000000000   10300001 00104100000000006480000000000000     
100   62911028202400660000000000047000000000047000002000000010410403180544580000714052100318000744382322   1030000200030000   569988002299000008000006122KBZ BANK               SOON - MYANMA MMR11003180544580000710318000000000000000   10300001 00104100000000002820000000000000     
100   62911028202400660000000000029900000000029900002000000010410403180459280003294052100318000744379063   1030000200030000   569988000882000008000004526KBZ BANK               HAG-BLAZON    MMR11003180459280003290318000000000000000   10300001 00104100000000001794000000000000     
100   62911028202400660000000000034600000000034600002000000010410403180604260002004052100318000744383849   1030000200030000   569188002008000008000005457KBZ BANK               IMMI BRANDED  MMR11003180604260002000318000000000000000   10300001 00104100000000002076000000000000     
100   62911028202235910000000005000000000005000000002000000010410403180233590007334052100318000744370538   1030000200030000   806288000932000008000001738KBZ BANK               SHWE GONE DIN MMR11003180233590007330318000000000000000   10300001 00104100000000300000000000000000     
100   95050313453886860000000000004200000000004200002000000010410403181844320048937926010318000744404729   1030000200030000   541188001343000008000000327KBZ BANK               CITY MART - S MMR11003181844320048930318000000000000000   10300001 00104100000000001050000000000000     
100   95030333100021460000000000002862000000002862002000000010410403181636430053534052100318000744398493   1030000200030000   541188001084000008000000294KBZ BANK               CITY MART - J MMR11003181636430053530318000000000000000   10300001 00104100000000000172000000000000     
100   62911028202441420000000000034100000000034100002000000010410403181528510089054052100318000744395066   1030000200030000   541188001081000008000000294KBZ BANK               CITY MART - J MMR11003181528510089050318000000000000000   10300001 00104100000000002046000000000000     
100   62911028202304220000000000921100000000921100002000000010410403180453585214724052100318981231158076   1030000900030000   541119000161190110000000084Pro (1) Global (Pazund YANGONARTAUNG MMR11003180453585214720318000000000000000   10300001F00104100000000055266000000000000     
100   62911028202284420000000000039152000000039152002000000010410403180600175232114052100318024301217076   1030000900030000   541119001187190110000000942City Mart HDC C 2      YANGONUT      MMR11003180600175232110318000000000000000   10300001F00104100000000002349000000000000     
100   62911028202684060000000000008350000000008350002000000010410403180442195211894052100318806121119076   1030000900030000   541119001191190110000000942City Mart HDC C 6      YANGONUT      MMR11003180442195211890318000000000000000   10300001F00104100000000000501000000000000     
100   95050316573091630000000000030520000000030520002000000010410403181054364784821620810318652221736076   1030000300030000   555510125332104519000021173One Stop Mart Shopping all0003       MMR11003181054364784820318000000000000000   10300001 00104100000000007325000000000000     
100   95050315955808830000000000075700000000075700002000000010410403181159304796177500530318279291847076   1030000300030000   555510124365104519000020166Makro Myanmar                        MMR11003181159304796170318000000000000000   10300001 00104100000000018168000000000000     
100   95050319391394380000000000001627000000001627002000000010410403180936174772309457740318889051605076   1030000500030000   555610110599104519000009166City Mart 47 Branch                  MMR11003180936174772300318000000000000000   10300001 00104100000000000407000000000000     
100   95030310098554020000000000025352000000025352002000000010410403180402085202944052100318308321008076   1030000900030000   806219001119190110000000900Shwe La Min Hospital L YANGONAW      MMR11003180402085202940318000000000000000   10300001F00104100000000001521000000000000     
100   95030320108927800000000000135000000000135000002000000010410403180527165223464052100318514571116076   1030000900030000   592119000255190110000000150HtunHtunOo Liquor (May YANGONONE     MMR11003180527165223460318000000000000000   10300001F00104100000000008100000000000000     
100   62911028202165530000000000120098000000120098002000000010410403181643250073554052100318000744398861   1030000200030000   541188001314000008000000306KBZ BANK               CITY MART - S MMR11003181643250073550318000000000000000   10300001 00104100000000007206000000000000     
100   95030325264619140000000000024796000000024796002000000010410403181114380160874052100318000744377783   1030000200030000   541188001055000008000000314KBZ BANK               MARKETPLACE - MMR11003181114380160870318000000000000000   10300001 00104100000000001488000000000000     
100   95030333478847140000000000031500000000031500002000000010410403181603480021424052100318000744396873   1030000200030000   541188001474000008000000391KBZ BANK               OCEAN SUPER C MMR11003181603480021420318000000000000000   10300001 00104100000000001890000000000000     
100   95030310098554020000000000069666000000069666002000000010410403180350090017544052100318207710001754   1020000200030000   806200105003300018062000010MWD BANK               YGN           MMR11003180350090017540318000000000000000   10300001 00104100000000004180000000000000     
100   62911028202616170000000000017500000000017500002000000010410403180804090021054052100318000744392223   1030000200030000   599988000601000008000003442KBZ BANK               SWEETY HOME ( MMR11003180804090021050318000000000000000   10300001 00104100000000001050000000000000     
100   62911028202204560000000000195000000000195000002000000010410403180339360010384052100318000744373401   1030000200030000   806288000621000008000003871KBZ BANK               PUN HLAING CL MMR11003180339360010380318000000000000000   10300001 00104100000000011700000000000000     
100   62911028202169750000000000024300000000024300002000000010410403180411380015374052100318000744375353   1030000200030000   541188000976000008000004913KBZ BANK               EASY-17       MMR11003180411380015370318000000000000000   10300001 00104100000000001458000000000000     
100   62911028202204800000000000014000000000014000002000000010410403181419290053364052100318000744391280   1030000200030000   541188001084000008000000294KBZ BANK               CITY MART - J MMR11003181419290053360318000000000000000   10300001 00104100000000000840000000000000     
100   62911028202788270000000000040000000000040000002000000010410403180318035193744052100318805480903076   1030000900030000   554119001103190110000000215New Day Energy MYG     YANGONONE     MMR11003180318035193740318000000000000000   10300001F00104100000000001200000000000000     
100   62911028202418410000000000042350000000042350002000000010410403180533185224814052100318588031218076   1030000900030000   591219000601190110000000441Shwe Ohh Pharmacy St-3 YANGON        MMR11003180533185224810318000000000000000   10300001F00104100000000002541000000000000     
100   95050314570621780000000000000980000000000980002000000010410403181219354935826273530318000006831627   1020000200030000   333400010001204104000000281Myanmar Soft-Gate Tech Yangon        MMR11003181219354935820318000000000000000   10300001F05104100000000000206000000000000     
100   62911028202204490000000000019700000000019700002000000010410403180411185205004052100318423411018076   1030000900030000   581219000715190110000000546Akkhaya Tea House(Dago YANGON        MMR11003180411185205000318000000000000000   10300001F00104100000000002009000000000000     
100   95050313145843230000000000095000000000095000002000000010410403180321085108170700900318000006827480   1030000200030000   333800010001203104000003327KBZPay                 Yangon        MMR11003180321085108170318000000000000000   10300001F05104100000000019950000000000000     
100   62443100315853220000000000044000000000044000002000000010410403180408135204331799070318384381013076   1030000900030000   569119001507190110000001101Next Generation GCS MY SAGAING       MMR11003180408135204330318000000000000000   10300001F00104100000000010560000000000000     
100   95050314931885730000000000000980000000000980002000000010410403181523395339098351490318000006832484   1020000200030000   333400010001204104000000281Myanmar Soft-Gate Tech Yangon        MMR11003181523395339090318000000000000000   10300001F05104100000000000206000000000000     
100   95050314308945310000000000005000000000005000002000000010410403180324385438017722530318000006827503   1030000900030000   333400010001202104000002022ACS                    Yangon        MMR11003180324385438010318000000000000000   10300001F05104100000000001050000000000000     
100   62911028202616740000000000067750000000067750002000000010410403181445590082624052100318000744392993   1030000200030000   541188001313000008000000306KBZ BANK               CITY MART - S MMR11003181445590082620318000000000000000   10300001 00104100000000004065000000000000     
100   95050324411430900000000000025000000000025000002000000010410403170812370023965666530317207608002396   1030000600030000   554100002085315799420000471DENKO BAHAN            YANGON        MMR11003170812370023960317000000000000000   10300001 00104100000000003000000000000000     
100   62443100369813440000000000020000000000020000002000000010410403170847040002170283600317207615000217   1030000500030000   598320001304000015172200013MAX ENERGY             PTN           MMR11003170847040002170317000000000000000   10300001 00104100000000002400000000000000     
100   62911028202503210000000000013250000000013250002000000010410403170453040012454052100317207611001245   1030000500030000   591220011001014405912200110SHWE OHH PHARMACY      PTN           MMR11003170453040012450317000000000000000   10300001 00104100000000000795000000000000     
100   95050320531117320000000000014500000000014500002000000010410403171219410006693544730317000335592761   1030000300030000   581400000697000000000000483CB BANK                KFC NORTH DAG MMR11003171219410006690317000000000000000   10300001F00104100000000001740000000000000     
100   95050328246950960000000000042050000000042050002000000010410403171021080010210459400317207616001021   1030000500030000   541120045701005405411200457126 STORE              PTN           MMR11003171021080010210317000000000000000   10300001 00104100000000010513000000000000     
100   62911028202143500000000001281000000001281000002000000010410403170823350004754052100317207614000475   1030000500030000   573320111001000015733201110YAMAHA                 PTN           MMR11003170823350004750317000000000000000   10300001 00104100000000076860000000000000     
100   62443101006037900000000000050000000000050000002000000010410403170733320002056602590317207614000205   1030000500030000   598320001304000015172200013MAX ENERGY             PTN           MMR11003170733320002050317000000000000000   10300001 00104100000000006000000000000000     
100   95050321976590420000000000075700000000075700002000000010410403180951135290646408070318478211613076   1030000900030000   541119001082190110000000872Sein Gay Har Hledan    YANGONUT      MMR11003180951135290640318000000000000000   10300001F00104100000000018925000000000000     
100   95050318317382610000000000009500000000009500002000000010410403181034435303181961190318302041743076   1030000900030000   541119001079190110000000872Sein Gay Har Hledan    YANGONUT      MMR11003181034435303180318000000000000000   10300001F00104100000000002375000000000000     
100   62911028202668140000000000111000000000111000002000000010410403170625350206354052100317207612020635   1030000500030000   598320001601000015172200016MAX ENERGY             PTN           MMR11003170625350206350317000000000000000   10300001 00104100000000003330000000000000     
100   95050316818236190000000000004900000000004900002000000010410403180326315631724502660318000006827528   1020000200030000   333400010001204104000000281Myanmar Soft-Gate Tech Yangon        MMR11003180326315631720318000000000000000   10300001F05104100000000001029000000000000     
100   95030301954234130000000000030000000000030000002000000010410403180624285428804052100318000006829124   1030000200030000   333800010001203104000003327KBZPay                 Yangon        MMR11003180624285428800318000000000000000   10300001F05104100000000006300000000000000     
100   62911028202161240000000000064740000000064740002000000010410403180734182733084052100318041879754768   1040001400030000   546210000143025462100000389STK Bakery Supply STK  akery Supply  MMR11003180734182733080318000000000000000   10300001 00104100000000003884000000000000     
100   62911028202655010000000000064500000000064500002000000010410403180626554744904052100318131561231076   1030000300030000   555510124692104519000020166Makro Myanmar                        MMR11003180626554744900318000000000000000   10300001 00104100000000003870000000000000     
100   95050313145843230000000000047750000000047750002000000010410403181029025301526833550318182591602076   1030000900030000   541119000122190110000000080Sein Gay Har BAK       YANGONADA     MMR11003181029025301520318000000000000000   10300001F00104100000000011938000000000000     
100   95050311883152260000000000051500000000051500002000000010410403170526440003920865480317207611000392   1030000500030000   566120065101016505661200651HEATWAVE               PTN           MMR11003170526440003920317000000000000000   10300001 00104100000000012360000000000000     
100   62911028202595380000000000040000000000040000002000000010410403170728190045214052100317207613004521   1030000500030000   598320041901000055983200419MAX ENERGY             PTN           MMR11003170728190045210317000000000000000   10300001 00104100000000001200000000000000     
100   95030382736894330000000000033880000000033880002000000010410403171348490014794052100317207620001479   1030000500030000   581220146401013205812201464THAI 47 (HELPIN BRANCH PTN           MMR11003171348490014790317000000000000000   10300001 00104100000000003456000000000000     
100   95030301100415710000000000007300000000007300002000000010410403171117580018974052100317207617001897   1030000500030000   531120155714000045311201557GAMONE PWINT           PTN           MMR11003171117580018970317000000000000000   10300001 00104100000000000438000000000000     
100   62443100379321630000000000060000000000060000002000000010410403170221480044670349770317207608004467   1030000500030000   598320115101005405983201151PT POWER (HLEGU)       PTN           MMR11003170221480044670317000000000000000   10300001 00104100000000007200000000000000     
100   62911028202446700000000000028000000000028000002000000010410403170543490000614052100317207612000061   1030000500030000   804320041701000018043200417ZEEKWEK EYEWEAR        PTN           MMR11003170543490000610317000000000000000   10300001 00104100000000001680000000000000     
100   95030333478847140000000000028000000000028000002000000010410403170551100050634052100317207612005063   1030000500030000   598320002104000015172200021MAX ENERGY             PTN           MMR11003170551100050630317000000000000000   10300001 00104100000000000840000000000000     
100   95030301100316300000000000012100000000012100002000000010410403171049340008842184800317207617000884   1030000500030000   531120155604000045311201556GAMONE PWINT           PTN           MMR11003171049340008840317000000000000000   10300001 00104100000000000726000000000000     
100   62911028202132460000000000087670000000087670002000000010410403181120225315714052100318152501722076   1030000900030000   541119001357190110000000977Ocean PZD C 11         YANGONAUNG    MMR11003181120225315710318000000000000000   10300001F00104100000000005260000000000000     
100   62911028202186410000000000048620000000048620002000000010410403181504165349814052100318974342116076   1030000900030000   581319001532190110000001079I Four-2               YANGON        MMR11003181504165349810318000000000000000   10300001F00104100000000004959000000000000     
100   62443100301716860000000000000980000000000980002000000010410403180523215321316707080318000006828623   1020000200030000   333400010001204104000000281Myanmar Soft-Gate Tech Yangon        MMR11003180523215321310318000000000000000   10300001F05104100000000000206000000000000     
100   95050312878706670000000000003000000000003000002000000010410403181524525452516699010318000006832492   1030000200030000   3334000100012031040000040102C2P (Myanmar) Co. Ltd Yangon        MMR11003181524525452510318000000000000000   10300001F05104100000000000630000000000000     
100   95050326228858240000000000070000000000070000002000000010410403161159070343218510370316207511034321   1030000600030000   554100001106315799420000564DENKO PHYUU            PHYUU         MMR11003161159070343210316000000000000000   10300001 00104100000000008400000000000000     
100   62443100318296470000000000023100000000023100002000000010410403181324185340026443720318701541918076   1030000900030000   581219000423190110000000284BCC (SYS)              YANGON        MMR11003181324185340020318000000000000000   10300001F00104100000000009818000000000000     
100   62911028202133520000000000007214000000007214002000000010410403181203035325884052100318857331803076   1030000900030000   541119001191190110000000942City Mart HDC C 6      YANGONUT      MMR11003181203035325880318000000000000000   10300001F00104100000000000433000000000000     
100   95050311121153200000000000000980000000000980002000000010410403181328395839339748690318000006832018   1020000200030000   333400010001204104000000281Myanmar Soft-Gate Tech Yangon        MMR11003181328395839330318000000000000000   10300001F05104100000000000206000000000000     
100   95050329252108030000000000024000000000024000002000000010410403171243590015624856830317207619001562   1030000500030000   598320002103000015172200021MAX ENERGY             PTN           MMR11003171243590015620317000000000000000   10300001 00104100000000002880000000000000     
100   62911028202023630000000000030000000000030000002000000010410403170127300156954052100317207601015695   1030000600030000   554100001212315799420000664DENKO TA TAR OO        TA TAR OO     MMR11003170127300156950317000000000000000   10300001 00104100000000000900000000000000     
100   62443100317863910000000000047000000000047000002000000010410403170458110405783270050317207604040578   1030000600030000   554100001756315799420001137DENKO NORTH DAGON 2    YANGON        MMR11003170458110405780317000000000000000   10300001 00104100000000005640000000000000     
100   95030361482647470000000000030000000000030000002000000010410403171157510217594052100317207618021759   1030000500030000   598320001901000015172200019MAX ENERGY             PTN           MMR11003171157510217590317000000000000000   10300001 00104100000000000900000000000000     
100   62443100306416880000000000030588000000030588002000000010410403171142530207008076700317207618020700   1030000500030000   598320001602000015172200016MAX ENERGY             PTN           MMR11003171142530207000317000000000000000   10300001 00104100000000003670000000000000     
100   62911028202531350000000000030000000000030000002000000010410403170556170179792184800317207612017979   1030000500030000   598320002102000015172200021MAX ENERGY             PTN           MMR11003170556170179790317000000000000000   10300001 00104100000000000900000000000000     
100   62911028202313470000000000060000000000060000002000000010410403170124470205842184800317207607020584   1030000500030000   598320001602000015172200016MAX ENERGY             PTN           MMR11003170124470205840317000000000000000   10300001 00104100000000001800000000000000     
100   95050327531396450000000000035000000000035000002000000010410403180938100810691110230318000006830697   1030000200030000   333800010001203104000003327KBZPay                 Yangon        MMR11003180938100810690318000000000000000   10300001F05104100000000007350000000000000     
100   95050318601641810000000000000979000000000979002000000010410403181032090209045266160318000006831085   1020000200030000   333400010001204104000000281Myanmar Soft-Gate Tech Yangon        MMR11003181032090209040318000000000000000   10300001F05104100000000000205000000000000     
100   95050313113158460000000000000980000000000980002000000010410403180739380938963061730318000006829752   1020000200030000   333400010001204104000000281Myanmar Soft-Gate Tech Yangon        MMR11003180739380938960318000000000000000   10300001F05104100000000000206000000000000     
100   95050311121153200000000000000980000000000980002000000010410403181332010201657670720318000006832034   1020000200030000   333400010001204104000000281Myanmar Soft-Gate Tech Yangon        MMR11003181332010201650318000000000000000   10300001F05104100000000000206000000000000     
100   95050318131043910000000000000980000000000980002000000010410403181142251225224195560318000006831466   1020000200030000   333400010001204104000000281Myanmar Soft-Gate Tech Yangon        MMR11003181142251225220318000000000000000   10300001F05104100000000000206000000000000     
100   95050316272163320000000000000980000000000980002000000010410403180234200420071076940318000006827072   1020000200030000   333400010001204104000000281Myanmar Soft-Gate Tech Yangon        MMR11003180234200420070318000000000000000   10300001F05104100000000000206000000000000     
100   95050323282717740000000000009750000000009750002000000010410403180203231382137771970318207709138213   1040001600030000   591220000299000000010000287Shwe Ohh Pharmacy (Yan Yangon        MMR11003180203231382130318000000000000000   10300001F00104100000000002340000000000000     
100   95050312878706670000000000001000000000001000002000000010410403181532330233316784100318000006832511   1030000200030000   3334000100012031040000040102C2P (Myanmar) Co. Ltd Yangon        MMR11003181532330233310318000000000000000   10300001F05104100000000000210000000000000     
100   62911028202498440000000000014850000000014850002000000010410403181545410210974052100318000744395932   1030000200030000   541188001038000008000000010KBZ BANK               MARKETPLACE - MMR11003181545410210970318000000000000000   10300001 00104100000000000891000000000000     
100   95050312498129060000000000001960000000001960002000000010410403180033180318217700660318000006826479   1020000200030000   333400010001204104000000281Myanmar Soft-Gate Tech Yangon        MMR11003180033180318210318000000000000000   10300001F05104100000000000412000000000000     
100   95050325455962190000000000001960000000001960002000000010410403181442591259232883460318000006832341   1020000200030000   333400010001204104000000281Myanmar Soft-Gate Tech Yangon        MMR11003181442591259230318000000000000000   10300001F05104100000000000412000000000000     
100   95050311273457710000000000020000000000020000002000000010410403181535450545261741560318000006832522   1030000200030000   333800010001203104000003327KBZPay                 Yangon        MMR11003181535450545260318000000000000000   10300001F05104100000000004200000000000000     
100   95050315615561720000000000000980000000000980002000000010410403180038100810071005630318000006826486   1020000200030000   333400010001204104000000281Myanmar Soft-Gate Tech Yangon        MMR11003180038100810070318000000000000000   10300001F05104100000000000206000000000000     
100   95050311736839760000000000000980000000000980002000000010410403180442121212157692590318000006828289   1020000200030000   333400010001204104000000281Myanmar Soft-Gate Tech Yangon        MMR11003180442121212150318000000000000000   10300001F05104100000000000206000000000000     
100   95050317248519320000000000003500000000003500002000000010410403180543211321811118300318000006828787   1030000200030000   3338000100012031040000040022C2P (Myanmar) Co. Ltd Yangon        MMR11003180543211321810318000000000000000   10300001F05104100000000000735000000000000     
100   95050312641885210000000000022000000000022000002000000010410403180639060906995515740318000006829246   1030000200030000   333800010001203104000003327KBZPay                 Yangon        MMR11003180639060906990318000000000000000   10300001F05104100000000004620000000000000     
100   62911028202027440000000000027901000000027901002000000010410403181114031674784052100318207718167478   1040001600030000   541120000553000000010000465Ocean Shwe Gone Daing  Yangon        MMR11003181114031674780318000000000000000   10300001F00104100000000001674000000000000     
100   95030301100360840000000000000980000000000980002000000010410403180255402540034052100318000006827228   1020000200030000   333400010001204104000000281Myanmar Soft-Gate Tech Yangon        MMR11003180255402540030318000000000000000   10300001F05104100000000000206000000000000     
100   62911028202077010000000000000980000000000980002000000010410403181502053205514052100318000006832413   1020000200030000   333400010001204104000000281Myanmar Soft-Gate Tech Yangon        MMR11003181502053205510318000000000000000   10300001F05104100000000000206000000000000     
100   62911028202750390000000000004900000000004900002000000010410403181410514051824052100318000006832181   1020000200030000   333400010001204104000000281Myanmar Soft-Gate Tech Yangon        MMR11003181410514051820318000000000000000   10300001F05104100000000001029000000000000     
100   95050317903887690000000000002940000000002940002000000010410403180347101710586240230318000006827766   1020000200030000   333400010001204104000000281Myanmar Soft-Gate Tech Yangon        MMR11003180347101710580318000000000000000   10300001F05104100000000000617000000000000     
100   62911028202093430000000000000980000000000980002000000010410403180453222322484052100318000006828370   1020000200030000   333400010001204104000000281Myanmar Soft-Gate Tech Yangon        MMR11003180453222322480318000000000000000   10300001F05104100000000000206000000000000     
100   95050318694773110000000000050000000000050000002000000010410403180853492349755721580318000006830376   1030000200030000   3338000100012031040000040022C2P (Myanmar) Co. Ltd Yangon        MMR11003180853492349750318000000000000000   10300001F05104100000000010500000000000000     
100   95050318694773110000000000050000000000050000002000000010410403180858292829312416620318000006830434   1030000200030000   3338000100012031040000040022C2P (Myanmar) Co. Ltd Yangon        MMR11003180858292829310318000000000000000   10300001F05104100000000010500000000000000     
100   95050311712422700000000000100000000000100000002000000010410403181211164116669067920318000006831589   1030000200030000   333800010001203104000003327KBZPay                 Yangon        MMR11003181211164116660318000000000000000   10300001F05104100000000021000000000000000     
100   62443100313529540000000000001960000000001960002000000010410403180414014401101969270318000006828022   1020000200030000   333400010001204104000000281Myanmar Soft-Gate Tech Yangon        MMR11003180414014401100318000000000000000   10300001F05104100000000000412000000000000     
100   95050311419479170000000000000980000000000980002000000010410403181204203420779238110318000006831558   1020000200030000   333400010001204104000000281Myanmar Soft-Gate Tech Yangon        MMR11003181204203420770318000000000000000   10300001F05104100000000000206000000000000     
100   95050311419479170000000000001960000000001960002000000010410403181208083808212372890318000006831575   1020000200030000   333400010001204104000000281Myanmar Soft-Gate Tech Yangon        MMR11003181208083808210318000000000000000   10300001F05104100000000000412000000000000     
100   95050311419479170000000000000980000000000980002000000010410403181209443944910720400318000006831581   1020000200030000   333400010001204104000000281Myanmar Soft-Gate Tech Yangon        MMR11003181209443944910318000000000000000   10300001F05104100000000000206000000000000     
100   95050310427855490000000000001960000000001960002000000010410403181413144314229408300318000006832193   1020000200030000   333400010001204104000000281Myanmar Soft-Gate Tech Yangon        MMR11003181413144314220318000000000000000   10300001F05104100000000000412000000000000     
100   62443100355445150000000000039500000000039500002000000010410403180202254713149182950318005300826076   1030000300030000   555510124695104519000020166Makro Myanmar                        MMR11003180202254713140318000000000000000   10300001 00104100000000009480000000000000     
100   95030310098554020000000000020800000000020800002000000010410403180643034747274052100318449131334076   1030000300030000   444410120049104519000017043YKKO St John                         MMR11003180643034747270318000000000000000   10300001 00104100000000002122000000000000     
100   62443101076362230000000000050000000000050000002000000010410403180727164755841579440318648141441076   1030000300030000   555510122550104519000018869VNC Fashion Myanmar Pl za            MMR11003180727164755840318000000000000000   10300001 00104100000000012000000000000000     
100   95050316124652250000000000009800000000009800002000000010410403180707043704351153960318000006829471   1020000200030000   333400010001204104000000281Myanmar Soft-Gate Tech Yangon        MMR11003180707043704350318000000000000000   10300001F05104100000000002058000000000000     
100   95050317942168830000000000025000000000025000002000000010410403181007303730524925780318000006830897   1030000200030000   333800010001203104000003327KBZPay                 Yangon        MMR11003181007303730520318000000000000000   10300001F05104100000000005250000000000000     
100   62911028202788350000000000010000000000010000002000000010410403172008573857324052100318000006826339   1030000200030000   333800010001203104000003327KBZPay                 Yangon        MMR11003172008573857320318000000000000000   10300001F05104100000000002100000000000000     
100   95050315017843630000000000001960000000001960002000000010410403181512554255873394040318000006832449   1020000200030000   333400010001204104000000281Myanmar Soft-Gate Tech Yangon        MMR11003181512554255870318000000000000000   10300001F05104100000000000412000000000000     
100   62911028202161240000000000020000000000020000002000000010410403180441371451234052100318207711145123   1040001600030000   598320000658000000010000527Shwe Taung Energy (YGN Yangon        MMR11003180441371451230318000000000000000   10300001F00104100000000000600000000000000     
100   95050317903887690000000000001960000000001960002000000010410403181446181618187840920318000006832359   1020000200030000   333400010001204104000000281Myanmar Soft-Gate Tech Yangon        MMR11003181446181618180318000000000000000   10300001F05104100000000000412000000000000     
100   62911028202708080000000000300000000000300000002000000010410403181111464146954052100318000006831312   1030000200030000   333800010001203104000003327KBZPay                 Yangon        MMR11003181111464146950318000000000000000   10300001F05104100000000063000000000000000     
100   62911028202807400000000000030000000000030000002000000010410403180903111584014052100318207716158401   1040001600030000   598320000854000000010000608Terminal Petrol Statio Yangon        MMR11003180903111584010318000000000000000   10300001F00104100000000000900000000000000     
100   95050313968650950000000000004900000000004900002000000010410403180606213621310061500318000006828974   1020000200030000   333400010001204104000000281Myanmar Soft-Gate Tech Yangon        MMR11003180606213621310318000000000000000   10300001F05104100000000001029000000000000     
100   62443100323117100000000000015000000000015000002000000010410403180108113811294480790318000006826549   1030000200030000   333800010001203104000003327KBZPay                 Yangon        MMR11003180108113811290318000000000000000   10300001F05104100000000003150000000000000     
100   95050311959900780000000000001960000000001960002000000010410403180648471847305260450318000006829337   1020000200030000   333400010001204104000000281Myanmar Soft-Gate Tech Yangon        MMR11003180648471847300318000000000000000   10300001F05104100000000000412000000000000     
100   95050318694773110000000000050000000000050000002000000010410403180857412741594069100318000006830427   1030000200030000   3338000100012031040000040022C2P (Myanmar) Co. Ltd Yangon        MMR11003180857412741590318000000000000000   10300001F05104100000000010500000000000000     
100   95050313113158460000000000001960000000001960002000000010410403180257592759543154900318000006827255   1020000200030000   333400010001204104000000281Myanmar Soft-Gate Tech Yangon        MMR11003180257592759540318000000000000000   10300001F05104100000000000412000000000000     
100   62911028202248050000000000031000000000031000002000000010410403181028541636374052100318207717163637   1040001600030000   598320000660000000010000529Shwe Taung Energy (NPT Naypyitaw     MMR11003181028541636370318000000000000000   10300001F00104100000000000930000000000000     
100   95050314931885730000000000002500000000002500002000000010410403181047341734905351260318000006831166   1030000200030000   3338000100012031040000040022C2P (Myanmar) Co. Ltd Yangon        MMR11003181047341734900318000000000000000   10300001F05104100000000000525000000000000     
100   95050313968650950000000000014700000000014700002000000010410403180602193219539380730318000006828932   1020000200030000   333400010001204104000000281Myanmar Soft-Gate Tech Yangon        MMR11003180602193219530318000000000000000   10300001F05104100000000003087000000000000     
100   95050312240830690000000000002940000000002940002000000010410403180158432843632487920318000006826809   1020000200030000   333400010001204104000000281Myanmar Soft-Gate Tech Yangon        MMR11003180158432843630318000000000000000   10300001F05104100000000000617000000000000     
100   62911028202788350000000000007000000000007000002000000010410403180806283628594052100318000006829980   1030000200030000   333800010001203104000003327KBZPay                 Yangon        MMR11003180806283628590318000000000000000   10300001F05104100000000001470000000000000     
100   95050323670692380000000000010000000000010000002000000010410403180110404040032828310318000006826566   1030000200030000   333800010001203104000003327KBZPay                 Yangon        MMR11003180110404040030318000000000000000   10300001F05104100000000002100000000000000     
100   62911028202789750000000000015700000000015700002000000010410403180718371536864052100318207714153686   1040001600030000   591220000298000000010000286Shwe Ohh Pharmacy (Shw Yangon        MMR11003180718371536860318000000000000000   10300001F00104100000000000942000000000000     
100   95050315743141220000000000001960000000001960002000000010410403180447231723343501000318000006828324   1020000200030000   333400010001204104000000281Myanmar Soft-Gate Tech Yangon        MMR11003180447231723340318000000000000000   10300001F05104100000000000412000000000000     
100   62911028202685470000000000024620000000024620002000000010410403181045531649844052100318207717164984   1040001600030000   806220000001000000010000001Victoria Hospital      Yangon        MMR11003181045531649840318000000000000000   10300001F00104100000000001477000000000000     
100   95050312675873230000000000002940000000002940002000000010410403180456512651319855650318000006828401   1020000200030000   333400010001204104000000281Myanmar Soft-Gate Tech Yangon        MMR11003180456512651310318000000000000000   10300001F05104100000000000617000000000000     
100   62443100391804560000000000004900000000004900002000000010410403180653042304665941220318000006829359   1020000200030000   333400010001204104000000281Myanmar Soft-Gate Tech Yangon        MMR11003180653042304660318000000000000000   10300001F05104100000000001029000000000000     
100   62911028202023630000000000030000000000030000002000000010410403150622360222682184800315207406022268   1030000600030000   554100000725315799420000306DENKO MDY - 78         MANDALAY      MMR11003150622360222680315000000000000000   10300001 00104100000000000900000000000000     
100   62911028202417260000000000050000000000050000002000000010410403170737060017244052100317207614001724   1030000500030000   806220046402006308062200464ASIA ROYAL HOSPITAL    PTN           MMR11003170737060017240317000000000000000   10300001 00104100000000003000000000000000     
100   62911028202401160000000000050084000000050084002000000010410403171048020010362184800317207617001036   1030000500030000   806220172406013008062201724GRAND HANTHA HOSPITAL  PTN           MMR11003171048020010360317000000000000000   10300001 00104100000000003005000000000000     
100   62911028202473430000000000034400000000034400002000000010410403181108391670144052100318207718167014   1040001600030000   591220000278000000010000266Shwe Ohh Pharmacy (Bah Yangon        MMR11003181108391670140318000000000000000   10300001F00104100000000002064000000000000     
100   95050312878706670000000000001000000000001000002000000010410403181530330033478436590318000006832506   1030000200030000   3334000100012031040000040102C2P (Myanmar) Co. Ltd Yangon        MMR11003181530330033470318000000000000000   10300001F05104100000000000210000000000000     
100   95030325100019320000000000008600000000008600002000000010410403181543380038334052100318000744395851   1030000200030000   541188001369000008000000395KBZ BANK               OCEAN SUPERMA MMR11003181543380038330318000000000000000   10300001 00104100000000000516000000000000     
100   62911028202132460000000000027850000000027850002000000010410403180213081386214052100318207709138621   1040001600030000   591220000285000000010000273Shwe Ohh Pharmacy (47t Yangon        MMR11003180213081386210318000000000000000   10300001F00104100000000001671000000000000     
100   95050312498129060000000000000980000000000980002000000010410403180046301630829353150318000006826503   1020000200030000   333400010001204104000000281Myanmar Soft-Gate Tech Yangon        MMR11003180046301630820318000000000000000   10300001F05104100000000000206000000000000     
100   95050315017843630000000000000980000000000980002000000010410403181353072307086018240318000006832115   1020000200030000   333400010001204104000000281Myanmar Soft-Gate Tech Yangon        MMR11003181353072307080318000000000000000   10300001F05104100000000000206000000000000     
100   95050315564078030000000000001960000000001960002000000010410403181301373137314621050318000006831862   1020000200030000   333400010001204104000000281Myanmar Soft-Gate Tech Yangon        MMR11003181301373137310318000000000000000   10300001F05104100000000000412000000000000     
100   95050311959900780000000000000980000000000980002000000010410403180808173817930168460318000006829987   1020000200030000   333400010001204104000000281Myanmar Soft-Gate Tech Yangon        MMR11003180808173817930318000000000000000   10300001F05104100000000000206000000000000     
100   62911028202806660000000000027872000000027872002000000010410403180619104743594052100318961481212076   1030000500030000   555610112986104519000011143Market Place by City M rt Sule       MMR11003180619104743590318000000000000000   10300001 00104100000000001672000000000000     
100   62911028202461130000000000020000000000020000002000000010410403180728444754084052100318391011441076   1030000500030000   555610110574104519000009164City Mart China Town P int Cen       MMR11003180728444754080318000000000000000   10300001 00104100000000001200000000000000     
100   95050314401921990000000000000980000000000980002000000010410403181315104510004706140318000006831942   1020000200030000   333400010001204104000000281Myanmar Soft-Gate Tech Yangon        MMR11003181315104510000318000000000000000   10300001F05104100000000000206000000000000     
100   95050324411430900000000000160000000000160000002000000010410403180913024302519366940318000006830525   1030000300030000   333300010001206104000002147DICA Company Limited   Yangon        MMR11003180913024302510318000000000000000   10300001F05104100000000010000000000000000     
100   62911028202217510000000000008490000000008490002000000010410403180309134718694052100318733420928076   1030000500030000   555610112233104519000010487Ocean Super Center St  ohn           MMR11003180309134718690318000000000000000   10300001 00104100000000000509000000000000     
100   62911028202531350000000000100000000000100000002000000010410403170621050015184052100317207612001518   1030000500030000   598320002103000015172200021MAX ENERGY             PTN           MMR11003170621050015180317000000000000000   10300001 00104100000000003000000000000000     
100   62911028202703370000000000040000000000040000002000000010410403170125340215154052100317207607021515   1030000500030000   598320001901000015172200019MAX ENERGY             PTN           MMR11003170125340215150317000000000000000   10300001 00104100000000001200000000000000     
100   95050317338786370000000000003000000000003000002000000010410403180705263526542806440318000006829463   1030000200030000   3334000100012031040000040102C2P (Myanmar) Co. Ltd Yangon        MMR11003180705263526540318000000000000000   10300001F05104100000000000630000000000000     
100   95030363083688740000000000015000000000015000002000000010410403180551382138944052100318000006828864   1030000200030000   333800010001203104000003327KBZPay                 Yangon        MMR11003180551382138940318000000000000000   10300001F05104100000000003150000000000000     
100   95050318057347910000000000004900000000004900002000000010410403181010314031049883230318000006830921   1020000200030000   333400010001204104000000281Myanmar Soft-Gate Tech Yangon        MMR11003181010314031040318000000000000000   10300001F05104100000000001029000000000000     
100   95050328491914360000000000295000000000295000002000000010410403181245565031891316080318155635679926   1040001400030000   481210000125024812100000900S-Power Mobile S-Power Mobile No.Sa( MMR11003181245565031890318000000000000000   10300001 00104100000000070800000000000000     
100   95050314570621780000000000001960000000001960002000000010410403180722505250149161090318000006829613   1020000200030000   333400010001204104000000281Myanmar Soft-Gate Tech Yangon        MMR11003180722505250140318000000000000000   10300001F05104100000000000412000000000000     
100   62911028202693960000000000019250000000019250002000000010410403180316125193384052100318785460912076   1030000900030000   541119001246190110000000955City Mart JS C 5       YANGONUT      MMR11003180316125193380318000000000000000   10300001F00104100000000001155000000000000     
100   62911028202684060000000000057000000000057000002000000010410403180354314723234052100318274221030076   1030000300030000   888810125940104519000021285Shwe Taung Energy CoLt               MMR11003180354314723230318000000000000000   10300001 00104100000000001710000000000000     
100   62911028202366010000000000136050000000136050002000000010410403180541034737614052100318109101235076   1030000500030000   555610103965104519000003818Ocean Oattara Thiri Na PyiTaw        MMR11003180541034737610318000000000000000   10300001 00104100000000008163000000000000     
100   95050318694773110000000000050000000000050000002000000010410403180855482548610679030318000006830403   1030000200030000   3338000100012031040000040022C2P (Myanmar) Co. Ltd Yangon        MMR11003180855482548610318000000000000000   10300001F05104100000000010500000000000000     
100   95050312613888920000000000050000000000050000002000000010410403180801123112770423740318000006829937   1030000200030000   333800010001203104000003327KBZPay                 Yangon        MMR11003180801123112770318000000000000000   10300001F05104100000000010500000000000000     
100   95050324250133010000000000040000000000040000002000000010410403180941261603499117360318207716160349   1040001600030000   598320000911000000010000662MMTM - Tamwe           Ygn           MMR11003180941261603490318000000000000000   10300001F00104100000000004800000000000000     
100   95050316785465380000000000000980000000000980002000000010410403181203243324807585630318000006831554   1020000200030000   333400010001204104000000281Myanmar Soft-Gate Tech Yangon        MMR11003181203243324800318000000000000000   10300001F05104100000000000206000000000000     
100   95050314570621780000000000001960000000001960002000000010410403180303563356047225740318000006827298   1020000200030000   333400010001204104000000281Myanmar Soft-Gate Tech Yangon        MMR11003180303563356040318000000000000000   10300001F05104100000000000412000000000000     
100   62911028202708080000000000300000000000300000002000000010410403181110014001514052100318000006831276   1030000200030000   333800010001203104000003327KBZPay                 Yangon        MMR11003181110014001510318000000000000000   10300001F05104100000000063000000000000000     
100   95050318180584510000000000000980000000000980002000000010410403180347141714344587750318000006827764   1020000200030000   333400010001204104000000281Myanmar Soft-Gate Tech Yangon        MMR11003180347141714340318000000000000000   10300001F05104100000000000206000000000000     
100   95050326228858240000000000047500000000047500002000000010410403160101030040399861560316207501004039   1030000600030000   554100001232315799420000686DENKO TAUNG LAY LONE   TAUNGGYI      MMR11003160101030040390316000000000000000   10300001 00104100000000005700000000000000     
100   95050321232876860000000000078000000000078000002000000010410403160846100071988304520316207508007198   1030000600030000   554100002328315799420001235DENKO NAY PYI TAW 2    NAYPYITAW     MMR11003160846100071980316000000000000000   10300001 00104100000000009360000000000000     
100   95050326228858240000000000057000000000057000002000000010410403160103060040405109450316207501004040   1030000600030000   554100001232315799420000686DENKO TAUNG LAY LONE   TAUNGGYI      MMR11003160103060040400316000000000000000   10300001 00104100000000006840000000000000     
100   95050322823372070000000000061000000000061000002000000010410403160931060016785172670316207509001678   1030000600030000   509400000547315799420000149SHWE SAN EAIN T.C      YANGON        MMR11003160931060016780316000000000000000   10300001 00104100000000024400000000000000     
100   62911028202204490000000000042000000000042000002000000010410403160452330020982184800316207504002098   1030000600030000   554100002085315799420000471DENKO BAHAN            YANGON        MMR11003160452330020980316000000000000000   10300001 00104100000000001260000000000000     
100   95050324133333980000000000019000000000019000002000000010410403161239470404771340940316207512040477   1030000600030000   554100001756315799420001137DENKO NORTH DAGON 2    YANGON        MMR11003161239470404770316000000000000000   10300001 00104100000000002280000000000000     
100   95050324133333980000000000007500000000007500002000000010410403161240070404780915480316207512040478   1030000600030000   554100001756315799420001137DENKO NORTH DAGON 2    YANGON        MMR11003161240070404780316000000000000000   10300001 00104100000000000900000000000000     
100   95050311403968010000000000035000000000035000002000000010410403181313584358572968560318000006831928   1030000200030000   333800010001203104000003327KBZPay                 Yangon        MMR11003181313584358570318000000000000000   10300001F05104100000000007350000000000000     
100   95050320360851930000000000002940000000002940002000000010410403180349141914398573490318000006827779   1020000200030000   333400010001204104000000281Myanmar Soft-Gate Tech Yangon        MMR11003180349141914390318000000000000000   10300001F05104100000000000617000000000000     
100   95050315424817550000000000001960000000001960002000000010410403180750312031278260680318000006829841   1020000200030000   333400010001204104000000281Myanmar Soft-Gate Tech Yangon        MMR11003180750312031270318000000000000000   10300001F05104100000000000412000000000000     
100   95050310427855490000000000000980000000000980002000000010410403180150142014444140400318000006826755   1020000200030000   333400010001204104000000281Myanmar Soft-Gate Tech Yangon        MMR11003180150142014440318000000000000000   10300001F05104100000000000206000000000000     
100   95050315615561720000000000000980000000000980002000000010410403180053492349431090720318000006826514   1020000200030000   333400010001204104000000281Myanmar Soft-Gate Tech Yangon        MMR11003180053492349430318000000000000000   10300001F05104100000000000206000000000000     
100   95050317743858310000000000013900000000013900002000000010410403180236064715129424450318260060908076   1030000500030000   555610110581104519000009164City Mart China Town P int Cen       MMR11003180236064715120318000000000000000   10300001 00104100000000003475000000000000     
100   95050311419479170000000000001960000000001960002000000010410403171720315031543714920318000006826184   1020000200030000   333400010001204104000000281Myanmar Soft-Gate Tech Yangon        MMR11003171720315031540318000000000000000   10300001F05104100000000000412000000000000     
100   95030339867270590000000000005200000000005200002000000010410403181214144799084052100318677511839076   1030000300030000   555610103773104519000003649G and G Convenience St re 279        MMR11003181214144799080318000000000000000   10300001 00104100000000000312000000000000     
100   95050318180584510000000000020000000000020000002000000010410403181328555855094365750318000006832017   1030000200030000   333800010001203104000003327KBZPay                 Yangon        MMR11003181328555855090318000000000000000   10300001F05104100000000004200000000000000     
100   95050319161596230000000000000980000000000980002000000010410403180429205920219004680318000006828161   1020000200030000   333400010001204104000000281Myanmar Soft-Gate Tech Yangon        MMR11003180429205920210318000000000000000   10300001F05104100000000000206000000000000     
100   95050318317382610000000000007700000000007700002000000010410403181017115298176237870318964471611076   1030000900030000   541119001196190110000000942City Mart HDC C 11     YANGONUT      MMR11003181017115298170318000000000000000   10300001F00104100000000001925000000000000     
100   62443100328070970000000000017321000000017321002000000010410403181032195302560308710318255021719076   1030000900030000   541119001514190110000001102Ocean MGDTM C-7        YANGONADON    MMR11003181032195302560318000000000000000   10300001F00104100000000004331000000000000     
100   95050323233042810000000000000980000000000980002000000010410403181327355735291401170318000006832011   1020000200030000   333400010001204104000000281Myanmar Soft-Gate Tech Yangon        MMR11003181327355735290318000000000000000   10300001F05104100000000000206000000000000     
100   95050319996628650000000000000980000000000980002000000010410403180926505650839537130318000006830637   1020000200030000   333400010001204104000000281Myanmar Soft-Gate Tech Yangon        MMR11003180926505650830318000000000000000   10300001F05104100000000000206000000000000     
