100   62911028202186410000000000077900000000077900002000000010410403200905025027164052100320891351524078   1030000300030000   555510124688104519000020166Makro Myanmar                        MMR11003200905025027160320000000000000000   10300001 00104100000000004674000000000000     
100   95050311959900780000000000000980000000000980002000000010410403200300163016529606070320000006837649   1020000200030000   333400010001204104000000281Myanmar Soft-Gate Tech Yangon        MMR11003200300163016520320000000000000000   10300001F05104100000000000206000000000000     
100   95050316818236190000000000000980000000000980002000000010410403200211094109808038690320000006837510   1020000200030000   333400010001204104000000281Myanmar Soft-Gate Tech Yangon        MMR11003200211094109800320000000000000000   10300001F05104100000000000206000000000000     
100   62911028202138320000000000019600000000019600002000000010410403200314124412564052100320000006837703   1020000200030000   333400010001204104000000281Myanmar Soft-Gate Tech Yangon        MMR11003200314124412560320000000000000000   10300001F05104100000000004116000000000000     
100   95050319604564870000000000002940000000002940002000000010410403201518574857357083010320000006840493   1020000200030000   333400010001204104000000281Myanmar Soft-Gate Tech Yangon        MMR11003201518574857350320000000000000000   10300001F05104100000000000617000000000000     
100   62911028202170490000000000031450000000031450002000000010410403200434444979844052100320307021152078   1030000300030000   555610103657104519000003559Capital Hypermarket Da bon           MMR11003200434444979840320000000000000000   10300001 00104100000000001887000000000000     
100   62911028202074950000000000028000000000028000002000000010410403200855325032534052100320695011640078   1030000500030000   888810121685104519000009666Max Energy CoLtd 5                   MMR11003200855325032530320000000000000000   10300001 00104100000000000840000000000000     
100   62911028202685470000000000013000000000013000002000000010410403201305233084384052100320207920308438   1040001600030000   806220000002000000010000001Victoria Hospital      Yangon        MMR11003201305233084380320000000000000000   10300001F00104100000000000780000000000000     
100   95050316818236190000000000000980000000000980002000000010410403201305053505114288620320000006840046   1020000200030000   333400010001204104000000281Myanmar Soft-Gate Tech Yangon        MMR11003201305053505110320000000000000000   10300001F05104100000000000206000000000000     
100   62911028202802520000000000022950000000022950002000000010410403200414344977624052100320007491023078   1030000500030000   555610110597104519000009166City Mart 47 Branch                  MMR11003200414344977620320000000000000000   10300001 00104100000000001377000000000000     
100   62911028202217510000000000047858000000047858002000000010410403200652475003674052100320546261302078   1030000500030000   555610112237104519000010487Ocean Super Center St  ohn           MMR11003200652475003670320000000000000000   10300001 00104100000000002871000000000000     
100   62911028202166940000000000068975000000068975002000000010410403200654415003194052100320484231311078   1030000300030000   555510114764104519000012710S and P Distribution C Ltd           MMR11003200654415003190320000000000000000   10300001 00104100000000004139000000000000     
100   62911028202169750000000000002800000000002800002000000010410403200814535018134052100320598471441078   1030000500030000   555610118972104519000016137City Mart South Okkala WZYD BR       MMR11003200814535018130320000000000000000   10300001 00104100000000000168000000000000     
100   95050325925517520000000000075800000000075800002000000010410403200403414974820116650320628311038078   1030000300030000   555510125244104519000021098Gadget Store by Win Mo ile Wor       MMR11003200403414974820320000000000000000   10300001 00104100000000018192000000000000     
100   95030326160984770000000000002550000000002550002000000010410403200911095029134052100320178451502078   1030000300030000   555510103704104519000003580G N G ConvenienceStore G0311         MMR11003200911095029130320000000000000000   10300001 00104100000000000153000000000000     
100   95050314160856250000000000000980000000000980002000000010410403200204063406112839730320000006837489   1020000200030000   333400010001204104000000281Myanmar Soft-Gate Tech Yangon        MMR11003200204063406110320000000000000000   10300001F05104100000000000206000000000000     
100   95050316949180000000000000005880000000005880002000000010410403201519094909258735490320000006840492   1020000200030000   333400010001204104000000281Myanmar Soft-Gate Tech Yangon        MMR11003201519094909250320000000000000000   10300001F05104100000000001235000000000000     
100   95050316736513170000000000001000000000001000002000000010410403200616474647034769370320000006838514   1030000200030000   333800010001203104000003327KBZPay                 Yangon        MMR11003200616474647030320000000000000000   10300001F05104100000000000210000000000000     
100   95050318317382610000000000038000000000038000002000000010410403201123323002581925540320207918300258   1040001600030000   569120000972000000010000719Generation Concept Sto Ygn           MMR11003201123323002580320000000000000000   10300001F00104100000000009120000000000000     
100   95050313715913510000000000010100000000010100002000000010410403201230595064411238940320188001910078   1030000500030000   555610110561104519000009163City Mart Ayeyarwon Br nch           MMR11003201230595064410320000000000000000   10300001 00104100000000002525000000000000     
100   95030301100121270000000000058050000000058050002000000010410403200911185700544052100320452411518078   1030000900030000   571219001537190110000001113Pro 1 Plus Store-2     YANGONADON    MMR11003200911185700540320000000000000000   10300001F00104100000000003483000000000000     
100   62911028202074950000000000001400000000001400002000000010410403200949015036024052100320205191615078   1030000500030000   555610114575104519000012532City Mart Ahlone Branc               MMR11003200949015036020320000000000000000   10300001 00104100000000000084000000000000     
100   62911028202074950000000000001600000000001600002000000010410403200948015035654052100320143171637078   1030000500030000   555610114572104519000012532City Mart Ahlone Branc               MMR11003200948015035650320000000000000000   10300001 00104100000000000096000000000000     
100   62911028202397530000000000059800000000059800002000000010410403200708315669984052100320157381331078   1030000900030000   541119000079190110000000057Pro (1) Global (Tampaw MANDALAYHARSI MMR11003200708315669980320000000000000000   10300001F00104100000000003588000000000000     
100   95030301100423480000000000026800000000026800002000000010410403200723235673024052100320375531323078   1030000900030000   541119001263190110000000958City Mart PLST C 6     YANGONMYOTHIT MMR11003200723235673020320000000000000000   10300001F00104100000000001608000000000000     
100   62443100328070970000000000005850000000005850002000000010410403201156415059685139580320521251849078   1030000300030000   555510124359104519000020166Makro Myanmar                        MMR11003201156415059680320000000000000000   10300001 00104100000000001404000000000000     
100   95050326511614440000000000030700000000030700002000000010410403201313355068320898550320806461935078   1030000300030000   444410100535104519000000524YKKO (Tamwe)                         MMR11003201313355068320320000000000000000   10300001 00104100000000013048000000000000     
100   62911028202498440000000000011500000000011500002000000010410403200713535671144052100320247431353078   1030000900030000   541119001074190110000000872Sein Gay Har Hledan    YANGONUT      MMR11003200713535671140320000000000000000   10300001F00104100000000000690000000000000     
100   95050310081566510000000000000500000000000500002000000010410403200524275427622875390320000006838289   1030000200030000   333800010001203104000003327KBZPay                 Yangon        MMR11003200524275427620320000000000000000   10300001F05104100000000000105000000000000     
100   95050324247403260000000000120950000000120950002000000010410403200247115611007953590320081170911078   1030000900030000   541119000286190110000000177Pro1 Global (Insein)   YANGON        MMR11003200247115611000320000000000000000   10300001F00104100000000030238000000000000     
100   62911028202260160000000000104000000000104000002000000010410403200636355662754052100320629061335078   1030000900030000   554119001101190110000000213New Day Energy SOK     YANGONOKKALAP MMR11003200636355662750320000000000000000   10300001F00104100000000003120000000000000     
100   62911028202180050000000000015243000000015243002000000010410403201011325047864052100320888201727078   1030000500030000   888810121685104519000009666Max Energy CoLtd 5                   MMR11003201011325047860320000000000000000   10300001 00104100000000000457000000000000     
100   95050314064416890000000000001960000000001960002000000010410403200323285328326896780320000006837734   1020000200030000   333400010001204104000000281Myanmar Soft-Gate Tech Yangon        MMR11003200323285328320320000000000000000   10300001F05104100000000000412000000000000     
100   62443100330108240000000000001960000000001960002000000010410403200423395339005669780320000006838005   1020000200030000   333400010001204104000000281Myanmar Soft-Gate Tech Yangon        MMR11003200423395339000320000000000000000   10300001F05104100000000000412000000000000     
100   62911028202359000000000000020000000000020000002000000010410403200055475600954052100320681250747078   1030000900030000   554119000997190110000000803Puma Power SOKL        YANGONOKKALAP MMR11003200055475600950320000000000000000   10300001F00104100000000000600000000000000     
100   62911028202802520000000000009400000000009400002000000010410403200611155656894052100320216411215078   1030000900030000   541119001215190110000000950City Mart YK City Care YANGONAUNG    MMR11003200611155656890320000000000000000   10300001F00104100000000000564000000000000     
100   62911028202248050000000000064000000000064000002000000010410403200843515692824052100320864131551078   1030000900030000   541119001330190110000000971Ocean Junction NPT C 8 NAYPYITAW     MMR11003200843515692820320000000000000000   10300001F00104100000000003840000000000000     
100   95050316524518200000000000022300000000022300002000000010410403200916195701894549740320551461519078   1030000900030000   594519000444190110000000299BKB Baby&ToysCenter(Ta YANGON        MMR11003200916195701890320000000000000000   10300001F00104100000000005352000000000000     
100   95050312498129060000000000001960000000001960002000000010410403201327085708142465940320000006840114   1020000200030000   333400010001204104000000281Myanmar Soft-Gate Tech Yangon        MMR11003201327085708140320000000000000000   10300001F05104100000000000412000000000000     
100   62911028202418410000000000021003000000021003002000000010410403201100055049454052100320124281700078   1030000500030000   555610112252104519000010487Ocean Super Center St  ohn           MMR11003201100055049450320000000000000000   10300001 00104100000000001260000000000000     
100   62911028202294730000000000030000000000030000002000000010410403200643190015804052100320000744470117   1030000200030000   598388001833000008000005310KBZ BANK               BOC (138 MILE MMR11003200643190015800320000000000000000   10300001 00104100000000000900000000000000     
100   62911028202668140000000000271200000000271200002000000010410403201037040012984052100320000744481356   1030000200030000   581288001737000008000005244KBZ BANK               SEAFOOD CITY  MMR11003201037040012980320000000000000000   10300001 00104100000000027662000000000000     
100   62443100379116470000000000010053000000010053002000000010410403201815380066372265930320000744484733   1030000200030000   541188001023000008000000298KBZ BANK               CITY MART - M MMR11003201815380066370320000000000000000   10300001 00104100000000002514000000000000     
100   62911028202170490000000000006950000000006950002000000010410403200526250022794052100320207911002279   1020000200030000   541100015007300235411000001MWD BANK               YGN           MMR11003200526250022790320000000000000000   10300001 00104100000000000417000000000000     
100   95050315122972560000000000000980000000000980002000000010410403200730140014019897020320000006838806   1020000200030000   333400010001204104000000281Myanmar Soft-Gate Tech Yangon        MMR11003200730140014010320000000000000000   10300001F05104100000000000206000000000000     
100   95050321188471220000000000027250000000027250002000000010410403201634250010969677380320000744479394   1030000200030000   541188001479000008000000399KBZ BANK               OCEAN SUPERCE MMR11003201634250010960320000000000000000   10300001 00104100000000006813000000000000     
100   62911028202193830000000000039000000000039000002000000010410403200215100019964052100320000744460165   1030000200030000   598388001826000008000005292KBZ BANK               BOC(TA DA OO) MMR11003200215100019960320000000000000000   10300001 00104100000000001170000000000000     
100   62911028202161240000000000001400000000001400002000000010410403201034430037714052100320000744463489   1030000200030000   541188001033000008000000298KBZ BANK               CITY MART - M MMR11003201034430037710320000000000000000   10300001 00104100000000000084000000000000     
100   95050316818236190000000000001960000000001960002000000010410403201121445144446882990320000006839678   1020000200030000   333400010001204104000000281Myanmar Soft-Gate Tech Yangon        MMR11003201121445144440320000000000000000   10300001F05104100000000000412000000000000     
100   95050317903887690000000000001960000000001960002000000010410403200621455145671038920320000006838537   1020000200030000   333400010001204104000000281Myanmar Soft-Gate Tech Yangon        MMR11003200621455145670320000000000000000   10300001F05104100000000000412000000000000     
100   62911028202290100000000000040000000000040000002000000010410403200434245632914052100320546041124078   1030000900030000   554119001102190110000000214New Day Energy MTN     YANGON        MMR11003200434245632910320000000000000000   10300001F00104100000000001200000000000000     
100   62911028202112730000000000106391000000106391002000000010410403201133005056464052100320063041821078   1030000500030000   555610112241104519000010487Ocean Super Center St  ohn           MMR11003201133005056460320000000000000000   10300001 00104100000000006384000000000000     
100   62911028202197630000000000027825000000027825002000000010410403200912125700834052100320477421512078   1030000900030000   541119001220190110000000945City Mart TM C 5       YANGONONE     MMR11003200912125700830320000000000000000   10300001F00104100000000001670000000000000     
100   62443100371022130000000000012700000000012700002000000010410403201017125041556457510320953471623078   1030000500030000   555610103470104519000003420City Mart Yankin Cente 9             MMR11003201017125041550320000000000000000   10300001 00104100000000003175000000000000     
100   95030302100062270000000000097100000000097100002000000010410403201017225041574052100320956471628078   1030000300030000   555510124686104519000020166Makro Myanmar                        MMR11003201017225041570320000000000000000   10300001 00104100000000005826000000000000     
100   95050310332595380000000000000980000000000980002000000010410403200621015101702691410320000006838534   1020000200030000   333400010001204104000000281Myanmar Soft-Gate Tech Yangon        MMR11003200621015101700320000000000000000   10300001F05104100000000000206000000000000     
100   62443100379321630000000000030000000000030000002000000010410403201123300015948535470320000744483621   1030000200030000   598388001833000008000005310KBZ BANK               BOC (138 MILE MMR11003201123300015940320000000000000000   10300001 00104100000000003600000000000000     
100   95050319532433550000000000024000000000024000002000000010410403201136060030857237160320000744466208   1030000200030000   541188001436000008000000401KBZ BANK               OCEAN SUPERCE MMR11003201136060030850320000000000000000   10300001 00104100000000006000000000000000     
100   62911028202161240000000000012700000000012700002000000010410403201032210026464052100320000744463360   1030000200030000   541188001022000008000000298KBZ BANK               CITY MART - M MMR11003201032210026460320000000000000000   10300001 00104100000000000762000000000000     
100   95050312728902740000000000004700000000004700002000000010410403201657190027022010640320000744480828   1030000200030000   541188001022000008000000298KBZ BANK               CITY MART - M MMR11003201657190027020320000000000000000   10300001 00104100000000001175000000000000     
100   95050314570621780000000000000980000000000980002000000010410403200030380038911357450320000006837307   1020000200030000   333400010001204104000000281Myanmar Soft-Gate Tech Yangon        MMR11003200030380038910320000000000000000   10300001F05104100000000000206000000000000     
100   95050315743141220000000000000980000000000980002000000010410403201443201320810473070320000006840379   1020000200030000   333400010001204104000000281Myanmar Soft-Gate Tech Yangon        MMR11003201443201320810320000000000000000   10300001F05104100000000000206000000000000     
100   62443100301716860000000000000980000000000980002000000010410403201443201320979331170320000006840380   1020000200030000   333400010001204104000000281Myanmar Soft-Gate Tech Yangon        MMR11003201443201320970320000000000000000   10300001F05104100000000000206000000000000     
100   95030359617000430000000000300000000000300000002000000010410403200554292429454052100320000006838391   1030000200030000   333800010001203104000003327KBZPay                 Yangon        MMR11003200554292429450320000000000000000   10300001F05104100000000063000000000000000     
100   95050311419479170000000000001960000000001960002000000010410403201023425342399847570320000006839456   1020000200030000   333400010001204104000000281Myanmar Soft-Gate Tech Yangon        MMR11003201023425342390320000000000000000   10300001F05104100000000000412000000000000     
100   95050310644222860000000000070650000000070650002000000010410403201128115056134173700320011021821078   1030000500030000   555610112243104519000010487Ocean Super Center St  ohn           MMR11003201128115056130320000000000000000   10300001 00104100000000017663000000000000     
100   62443100330108240000000000002940000000002940002000000010410403200421525152050627230320000006838003   1020000200030000   333400010001204104000000281Myanmar Soft-Gate Tech Yangon        MMR11003200421525152050320000000000000000   10300001F05104100000000000617000000000000     
100   95050310283577350000000000030200000000030200002000000010410403200703415668721889880320067331341078   1030000900030000   541119001195190110000000942City Mart HDC C 10     YANGONUT      MMR11003200703415668720320000000000000000   10300001F00104100000000007550000000000000     
100   95050317338786370000000000002940000000002940002000000010410403200820465046125450140320000006839047   1020000200030000   333400010001204104000000281Myanmar Soft-Gate Tech Yangon        MMR11003200820465046120320000000000000000   10300001F05104100000000000617000000000000     
100   62911028202133520000000000007450000000007450002000000010410403201159575749884052100320131291857078   1030000900030000   541119001191190110000000942City Mart HDC C 6      YANGONUT      MMR11003201159575749880320000000000000000   10300001F00104100000000000447000000000000     
100   62443100311760720000000000069850000000069850002000000010410403200656185667068499820320942261318078   1030000900030000   541119001245190110000000955City Mart JS C 4       YANGONUT      MMR11003200656185667060320000000000000000   10300001F00104100000000017463000000000000     
100   95050310427855490000000000000980000000000980002000000010410403201426225622177678680320000006840325   1020000200030000   333400010001204104000000281Myanmar Soft-Gate Tech Yangon        MMR11003201426225622170320000000000000000   10300001F05104100000000000206000000000000     
100   62911028202750390000000000001960000000001960002000000010410403200457262726544052100320000006838165   1020000200030000   333400010001204104000000281Myanmar Soft-Gate Tech Yangon        MMR11003200457262726540320000000000000000   10300001F05104100000000000412000000000000     
100   62911028202418410000000000014600000000014600002000000010410403201547100116324052100320000744476964   1030000200030000   541188001065000008000000314KBZ BANK               MARKETPLACE - MMR11003201547100116320320000000000000000   10300001 00104100000000000876000000000000     
100   95050319928585020000000000001960000000001960002000000010410403200536490649036265450320000006838329   1020000200030000   333400010001204104000000281Myanmar Soft-Gate Tech Yangon        MMR11003200536490649030320000000000000000   10300001F05104100000000000412000000000000     
100   95050318694773110000000000050000000000050000002000000010410403200337020702891684040320000006837804   1030000200030000   3338000100012031040000040022C2P (Myanmar) Co. Ltd Yangon        MMR11003200337020702890320000000000000000   10300001F05104100000000010500000000000000     
100   95050316818236190000000000000980000000000980002000000010410403200944551455341670250320000006839312   1020000200030000   333400010001204104000000281Myanmar Soft-Gate Tech Yangon        MMR11003200944551455340320000000000000000   10300001F05104100000000000206000000000000     
100   95050316321163940000000000000980000000000980002000000010410403201254472447776451680320000006840018   1020000200030000   333400010001204104000000281Myanmar Soft-Gate Tech Yangon        MMR11003201254472447770320000000000000000   10300001F05104100000000000206000000000000     
100   95050313145843230000000000050000000000050000002000000010410403200434590459257407360320000006838051   1030000200030000   333800010001203104000003327KBZPay                 Yangon        MMR11003200434590459250320000000000000000   10300001F05104100000000010500000000000000     
100   95050322740667800000000000300000000000300000002000000010410403200335020502985329400320000006837799   1030000200030000   333800010001203104000003327KBZPay                 Yangon        MMR11003200335020502980320000000000000000   10300001F05104100000000063000000000000000     
100   62911028202166940000000000043521000000043521002000000010410403200655275003344052100320502241322078   1030000300030000   555510114764104519000012710S and P Distribution C Ltd           MMR11003200655275003340320000000000000000   10300001 00104100000000002611000000000000     
100   62911028202449440000000000062000000000062000002000000010410403191024480012824052100319207816001282   1030000500030000   598320002101000015172200021MAX ENERGY             PTN           MMR11003191024480012820319000000000000000   10300001 00104100000000001860000000000000     
100   95050323282717740000000000015000000000015000002000000010410403190051120006178521690319207807000617   1030000500030000   598320001303000015172200013MAX ENERGY             PTN           MMR11003190051120006170319000000000000000   10300001 00104100000000001800000000000000     
100   62443100326436660000000000066600000000066600002000000010410403201243215759489841750320796131921078   1030000900030000   541119001206190110000000948City Mart YK C 4       YANGONAUNG    MMR11003201243215759480320000000000000000   10300001F00104100000000016650000000000000     
100   95050319216089110000000000004900000000004900002000000010410403190741290001867656930319000335865999   1030000300030000   581400000689000000000000475CB BANK                KFC JC        MMR11003190741290001860319000000000000000   10300001F00104100000000000588000000000000     
100   95030301100121270000000000040500000000040500002000000010410403201017450001504052100320000744480173   1030000200030000   569988002306000008000006143KBZ BANK               SOON - TERMIN MMR11003201017450001500320000000000000000   10300001 00104100000000002430000000000000     
100   95030301100122750000000000009800000000009800002000000010410403201200305750094052100320148301830078   1030000900030000   541119001081190110000000872Sein Gay Har Hledan    YANGONUT      MMR11003201200305750090320000000000000000   10300001F00104100000000000588000000000000     
100   95050315298771650000000000010000000000010000002000000010410403200427325732354017290320000006838018   1030000200030000   333800010001203104000003327KBZPay                 Yangon        MMR11003200427325732350320000000000000000   10300001F05104100000000002100000000000000     
100   95050318048516790000000000005000000000005000002000000010410403201544131413225430530320000006840549   1030000200030000   3334000100012031040000040102C2P (Myanmar) Co. Ltd Yangon        MMR11003201544131413220320000000000000000   10300001F05104100000000001050000000000000     
100   95050311121153200000000000000980000000000980002000000010410403200558152815512705200320000006838403   1020000200030000   333400010001204104000000281Myanmar Soft-Gate Tech Yangon        MMR11003200558152815510320000000000000000   10300001F05104100000000000206000000000000     
100   95050316717221100000000000000980000000000980002000000010410403200736120612932230270320000006838836   1020000200030000   333400010001204104000000281Myanmar Soft-Gate Tech Yangon        MMR11003200736120612930320000000000000000   10300001F05104100000000000206000000000000     
100   95050318694773110000000000050000000000050000002000000010410403200338130813610031560320000006837827   1030000200030000   3338000100012031040000040022C2P (Myanmar) Co. Ltd Yangon        MMR11003200338130813610320000000000000000   10300001F05104100000000010500000000000000     
100   95050320360851930000000000001960000000001960002000000010410403201246391639558104170320000006839986   1020000200030000   333400010001204104000000281Myanmar Soft-Gate Tech Yangon        MMR11003201246391639550320000000000000000   10300001F05104100000000000412000000000000     
100   95050312240830690000000000002940000000002940002000000010410403200651382138435024660320000006838663   1020000200030000   333400010001204104000000281Myanmar Soft-Gate Tech Yangon        MMR11003200651382138430320000000000000000   10300001F05104100000000000617000000000000     
100   95050311419479170000000000001960000000001960002000000010410403201450162016957168100320000006840396   1020000200030000   333400010001204104000000281Myanmar Soft-Gate Tech Yangon        MMR11003201450162016950320000000000000000   10300001F05104100000000000412000000000000     
100   62911028202403550000000000013250000000013250002000000010410403201309290165204052100320000744470030   1030000200030000   541188001124000008000000296KBZ BANK               CITY MART - J MMR11003201309290165200320000000000000000   10300001 00104100000000000795000000000000     
100   95050324247403260000000000060000000000060000002000000010410403200632434999932861600320021011315078   1030000300030000   555510114688104519000012635Win Mobile World                     MMR11003200632434999930320000000000000000   10300001 00104100000000014400000000000000     
100   62443100371022130000000000057000000000057000002000000010410403200833375020958755110320005011541078   1030000300030000   555510123467104519000019689MGOU Myanmar Plaza                   MMR11003200833375020950320000000000000000   10300001 00104100000000013680000000000000     
100   95030301100122750000000000054410000000054410002000000010410403201158055749424052100320103281805078   1030000900030000   541119001077190110000000872Sein Gay Har Hledan    YANGONUT      MMR11003201158055749420320000000000000000   10300001F00104100000000003265000000000000     
100   62911028202677390000000000050000000000050000002000000010410403201219105754654052100320469491810078   1030000900030000   554119001102190110000000214New Day Energy MTN     YANGON        MMR11003201219105754650320000000000000000   10300001F00104100000000001500000000000000     
100   95050322420590810000000000013560000000013560002000000010410403201024055719634805030320885541605078   1030000900030000   541119001513190110000001102Ocean MGDTM C-6        YANGONADON    MMR11003201024055719630320000000000000000   10300001F00104100000000003390000000000000     
100   62911028202502480000000000006500000000006500002000000010410403201121365738744052100320328511736078   1030000900030000   541119001080190110000000872Sein Gay Har Hledan    YANGONUT      MMR11003201121365738740320000000000000000   10300001F00104100000000000390000000000000     
100   62911028202286990000000000030000000000030000002000000010410403190208410231644052100319207808023164   1030000500030000   598320001902000015172200019MAX ENERGY             PTN           MMR11003190208410231640319000000000000000   10300001 00104100000000000900000000000000     
100   62911028202443650000000000043900000000043900002000000010410403200700215004974052100320722331325078   1030000500030000   555610112248104519000010487Ocean Super Center St  ohn           MMR11003200700215004970320000000000000000   10300001 00104100000000002634000000000000     
100   95050314649264560000000000030000000000030000002000000010410403201337200720227508490320000006840146   1030000200030000   333800010001203104000003327KBZPay                 Yangon        MMR11003201337200720220320000000000000000   10300001F05104100000000006300000000000000     
100   95050319161596230000000000000980000000000980002000000010410403200542211221939570420320000006838348   1020000200030000   333400010001204104000000281Myanmar Soft-Gate Tech Yangon        MMR11003200542211221930320000000000000000   10300001F05104100000000000206000000000000     
100   95050323722449090000000000004409000000004409002000000010410403201341021102029075880320000006840153   1020000200030000   333400010001204104000000281Myanmar Soft-Gate Tech Yangon        MMR11003201341021102020320000000000000000   10300001F05104100000000000926000000000000     
100   95050315615561720000000000000980000000000980002000000010410403191945531553777882280320000006837197   1020000200030000   333400010001204104000000281Myanmar Soft-Gate Tech Yangon        MMR11003191945531553770320000000000000000   10300001F05104100000000000206000000000000     
100   62443100355445150000000000051550000000051550002000000010410403201720520110553833310320000744482190   1030000200030000   541188001056000008000000314KBZ BANK               MARKETPLACE - MMR11003201720520110550320000000000000000   10300001 00104100000000012888000000000000     
100   95050312240830690000000000002940000000002940002000000010410403200133380338306144700320000006837421   1020000200030000   333400010001204104000000281Myanmar Soft-Gate Tech Yangon        MMR11003200133380338300320000000000000000   10300001F05104100000000000617000000000000     
100   62443100340648380000000000030000000000030000002000000010410403200935080508797599420320000006839286   1030000200030000   333800010001203104000003327KBZPay                 Yangon        MMR11003200935080508790320000000000000000   10300001F05104100000000006300000000000000     
100   95050322740667800000000000100000000000100000002000000010410403200336170617456641490320000006837813   1030000200030000   333800010001203104000003327KBZPay                 Yangon        MMR11003200336170617450320000000000000000   10300001F05104100000000021000000000000000     
100   95050316043499650000000000005000000000005000002000000010410403192027545754476229800320000006837206   1030000200030000   333800010001203104000003327KBZPay                 Yangon        MMR11003192027545754470320000000000000000   10300001F05104100000000001050000000000000     
100   62911028202100930000000000045210000000045210002000000010410403191152570003184052100319207818000318   1030000500030000   581220180601000085812201806CHAPTER 8              PTN           MMR11003191152570003180319000000000000000   10300001 00104100000000004611000000000000     
100   95050316785465380000000000001960000000001960002000000010410403201127205720400783630320000006839694   1020000200030000   333400010001204104000000281Myanmar Soft-Gate Tech Yangon        MMR11003201127205720400320000000000000000   10300001F05104100000000000412000000000000     
100   62911028202150190000000000030000000000030000002000000010410403200943465034614052100320979121632078   1030000300030000   888810125458104519000021285Shwe Taung Energy CoLt               MMR11003200943465034610320000000000000000   10300001 00104100000000000900000000000000     
100   95030301100118480000000000015000000000015000002000000010410403201020535718664052100320816501653078   1030000900030000   541119001373190110000000979Ocean PZD City Care C- YANGONAUNG    MMR11003201020535718660320000000000000000   10300001F00104100000000000900000000000000     
100   62911028202091860000000000003000000000003000002000000010410403201027175717444052100320000006839480   1030000200030000   3334000100012031040000040102C2P (Myanmar) Co. Ltd Yangon        MMR11003201027175717440320000000000000000   10300001F05104100000000000630000000000000     
100   95050317343045830000000000001960000000001960002000000010410403201127345734682521210320000006839704   1020000200030000   333400010001204104000000281Myanmar Soft-Gate Tech Yangon        MMR11003201127345734680320000000000000000   10300001F05104100000000000412000000000000     
100   62911028202103410000000000026800000000026800002000000010410403190930350013104052100319207816001310   1030000500030000   581220021101000015812200211SHWE LAR HOT POT       PTN           MMR11003190930350013100319000000000000000   10300001 00104100000000002734000000000000     
100   95050322312885760000000000015000000000015000002000000010410403201342261226384118430320000006840172   1030000200030000   333800010001203104000003327KBZPay                 Yangon        MMR11003201342261226380320000000000000000   10300001F05104100000000003150000000000000     
100   95050311382087030000000000001960000000001960002000000010410403201238200820613146710320000006839952   1020000200030000   333400010001204104000000281Myanmar Soft-Gate Tech Yangon        MMR11003201238200820610320000000000000000   10300001F05104100000000000412000000000000     
100   95050320360851930000000000000980000000000980002000000010410403201248541854739756650320000006839996   1020000200030000   333400010001204104000000281Myanmar Soft-Gate Tech Yangon        MMR11003201248541854730320000000000000000   10300001F05104100000000000206000000000000     
100   62911028202809060000000000086550000000086550002000000010410403200209172704014052100320207909270401   1040001600030000   591220000277000000010000265Shwe Ohh Pharmacy (Thu Yangon        MMR11003200209172704010320000000000000000   10300001F00104100000000005193000000000000     
100   95050319111666800000000000000980000000000980002000000010410403200354112411063421620320000006837907   1020000200030000   333400010001204104000000281Myanmar Soft-Gate Tech Yangon        MMR11003200354112411060320000000000000000   10300001F05104100000000000206000000000000     
100   95050312641885210000000000045000000000045000002000000010410403200757282728610662880320000006838933   1030000200030000   333800010001203104000003327KBZPay                 Yangon        MMR11003200757282728610320000000000000000   10300001F05104100000000009450000000000000     
100   95050314557307430000000000002940000000002940002000000010410403200731300130298244530320000006838813   1020000200030000   333400010001204104000000281Myanmar Soft-Gate Tech Yangon        MMR11003200731300130290320000000000000000   10300001F05104100000000000617000000000000     
100   95050316717221100000000000000980000000000980002000000010410403200733490349813882760320000006838824   1020000200030000   333400010001204104000000281Myanmar Soft-Gate Tech Yangon        MMR11003200733490349810320000000000000000   10300001F05104100000000000206000000000000     
100   95050316901496590000000000010350000000010350002000000010410403191149410007091818580319207818000709   1030000500030000   541120045801009205411200458126 STORE              PTN           MMR11003191149410007090319000000000000000   10300001 00104100000000002588000000000000     
100   62443100390038980000000000116578000000116578002000000010410403190732470031340451320319207814003134   1030000500030000   581220106701000015812201067THAI 47                PTN           MMR11003190732470031340319000000000000000   10300001 00104100000000049546000000000000     
100   62911028202331290000000000096250000000096250002000000010410403191014240008194052100319207816000819   1030000500030000   591220014201014405912200142SHWE OHH PHARMACY      PTN           MMR11003191014240008190319000000000000000   10300001 00104100000000005775000000000000     
100   95030308100042590000000000010200000000010200002000000010410403190920570002894052100319000335878179   1030000300030000   581400000753000000000000518CB BANK                KFC (HLD)     MMR11003190920570002890319000000000000000   10300001F00104100000000000306000000000000     
100   95050326593223450000000000015050000000015050002000000010410403190825290021115834250319207814002111   1030000500030000   581220021001000015812200210SHWE LAR HOT POT       PTN           MMR11003190825290021110319000000000000000   10300001 00104100000000006397000000000000     
100   62443100350052510000000000035000000000035000002000000010410403190806430009254437060319207814000925   1030000500030000   581220044201022605812200442HOT POT CITY (AHLONE)  PTN           MMR11003190806430009250319000000000000000   10300001 00104100000000014875000000000000     
100   62443100306416880000000000023000000000023000002000000010410403190755480011141132090319207814001114   1030000500030000   569120037801016505691200378SOON FASHION SHOP      PTN           MMR11003190755480011140319000000000000000   10300001 00104100000000005520000000000000     
100   95030382736894330000000000055580000000055580002000000010410403190612070008734052100319207812000873   1030000500030000   806220172402013008062201724GRAND HANTHA HOSPITAL  PTN           MMR11003190612070008730319000000000000000   10300001 00104100000000003335000000000000     
100   95050315099113150000000000002940000000002940002000000010410403200537490749114612970320000006838331   1020000200030000   333400010001204104000000281Myanmar Soft-Gate Tech Yangon        MMR11003200537490749110320000000000000000   10300001F05104100000000000617000000000000     
100   95050329720648480000000000110000000000110000002000000010410403191647461746612414250320000006837038   1030000500030000   333800010001201104000003863AYA Pay                Yangon        MMR11003191647461746610320000000000000000   10300001F05104100000000023100000000000000     
100   95050320360851930000000000002940000000002940002000000010410403192331430143981272350320000006837270   1020000200030000   333400010001204104000000281Myanmar Soft-Gate Tech Yangon        MMR11003192331430143980320000000000000000   10300001F05104100000000000617000000000000     
100   62911028202204560000000000015000000000015000002000000010410403201233510351114052100320000006839933   1030000200030000   333800010001203104000003327KBZPay                 Yangon        MMR11003201233510351110320000000000000000   10300001F05104100000000003150000000000000     
100   95050315743141220000000000000980000000000980002000000010410403201448241824482125550320000006840390   1020000200030000   333400010001204104000000281Myanmar Soft-Gate Tech Yangon        MMR11003201448241824480320000000000000000   10300001F05104100000000000206000000000000     
100   62911028202290100000000000030100000000030100002000000010410403200622562831284052100320207913283128   1040001600030000   591220000295000000010000283Shwe Ohh Pharmacy (39t Yangon        MMR11003200622562831280320000000000000000   10300001F00104100000000001806000000000000     
100   95030307963177330000000000069950000000069950002000000010410403200901190301534052100320000744460477   1030000200030000   541188001024000008000000298KBZ BANK               CITY MART - M MMR11003200901190301530320000000000000000   10300001 00104100000000004197000000000000     
100   95050318180584510000000000008000000000008000002000000010410403201047051705385485800320000006839557   1030000200030000   333800010001203104000003327KBZPay                 Yangon        MMR11003201047051705380320000000000000000   10300001F05104100000000001680000000000000     
100   62911028202151340000000000035000000000035000002000000010410403170900380006084052100317207615000608   1030000500030000   581220159201000015812201592GOLDEN DUCK (SAYAR SAN PTN           MMR11003170900380006080317000000000000000   10300001 00104100000000003570000000000000     
100   62911028202169750000000000016000000000016000002000000010410403190635480076404052100319207813007640   1030000500030000   541120020801022205411200208ORANGE (TAMWE)         PTN           MMR11003190635480076400319000000000000000   10300001 00104100000000000960000000000000     
100   95050329252108030000000000022916000000022916002000000010410403191302180086150931970319207819008615   1030000500030000   598320041903000055983200419MAX ENERGY             PTN           MMR11003191302180086150319000000000000000   10300001 00104100000000002750000000000000     
100   95030339867270590000000000065000000000065000002000000010410403190514320080124052100319207811008012   1030000500030000   598320001004000015172200010MAX ENERGY             PTN           MMR11003190514320080120319000000000000000   10300001 00104100000000001950000000000000     
100   62911028202472850000000000055000000000055000002000000010410403190939490249144052100319207816024914   1030000500030000   598320001202000015172200012MAX ENERGY             PTN           MMR11003190939490249140319000000000000000   10300001 00104100000000001650000000000000     
100   95050320531117320000000000070000000000070000002000000010410403191301290159985974510319207819015998   1030000500030000   598320002701000015172200027MAX ENERGY             PTN           MMR11003191301290159980319000000000000000   10300001 00104100000000008400000000000000     
100   62911028202231380000000000035000000000035000002000000010410403191202470223044052100319207818022304   1030000500030000   598320001901000015172200019MAX ENERGY             PTN           MMR11003191202470223040319000000000000000   10300001 00104100000000001050000000000000     
100   62443100316099160000000000067000000000067000002000000010410403190657500155672188900319207813015567   1030000500030000   598320001402000015172200014MAX ENERGY             PTN           MMR11003190657500155670319000000000000000   10300001 00104100000000008040000000000000     
100   95030302388346590000000000020000000000020000002000000010410403200745231523454052100320000006838870   1030000200030000   3338000100012031040000040022C2P (Myanmar) Co. Ltd Yangon        MMR11003200745231523450320000000000000000   10300001F05104100000000004200000000000000     
100   62911028202472440000000000151173000000151173002000000010410403201156080212124052100320000744467069   1030000200030000   541188001038000008000000010KBZ BANK               MARKETPLACE - MMR11003201156080212120320000000000000000   10300001 00104100000000009070000000000000     
100   95050314557307430000000000002940000000002940002000000010410403200636470647001209110320000006838598   1020000200030000   333400010001204104000000281Myanmar Soft-Gate Tech Yangon        MMR11003200636470647000320000000000000000   10300001F05104100000000000617000000000000     
100   95050316377977350000000000003000000000003000002000000010410403200343501350203336520320000006837862   1030000200030000   3338000100012031040000040022C2P (Myanmar) Co. Ltd Yangon        MMR11003200343501350200320000000000000000   10300001F05104100000000000630000000000000     
100   62443100313529540000000000001960000000001960002000000010410403200443071307292449910320000006838084   1020000200030000   333400010001204104000000281Myanmar Soft-Gate Tech Yangon        MMR11003200443071307290320000000000000000   10300001F05104100000000000412000000000000     
100   95050317041521450000000000019400000000019400002000000010410403200531044989704527870320684591110078   1030000500030000   555610118958104519000016137City Mart South Okkala WZYD BR       MMR11003200531044989700320000000000000000   10300001 00104100000000004850000000000000     
100   95050316736513170000000000012000000000012000002000000010410403200612324232727989240320000006838462   1030000200030000   333800010001203104000003327KBZPay                 Yangon        MMR11003200612324232720320000000000000000   10300001F05104100000000002520000000000000     
100   95050313640946520000000000028850000000028850002000000010410403200902245026247443010320772301553078   1030000300030000   555610103619104519000003559Capital Hypermarket Da bon           MMR11003200902245026240320000000000000000   10300001 00104100000000007213000000000000     
100   62911028202448030000000000030000000000030000002000000010410403190125580241854052100319207807024185   1030000500030000   598320001201000015172200012MAX ENERGY             PTN           MMR11003190125580241850319000000000000000   10300001 00104100000000000900000000000000     
100   62443100372702000000000000020000000000020000002000000010410403190751240243319394510319207814024331   1030000500030000   598320001201000015172200012MAX ENERGY             PTN           MMR11003190751240243310319000000000000000   10300001 00104100000000002400000000000000     
100   95050322149411750000000000030000000000030000002000000010410403191129180156180506480319207817015618   1030000500030000   598320001402000015172200014MAX ENERGY             PTN           MMR11003191129180156180319000000000000000   10300001 00104100000000003600000000000000     
100   62911028202527800000000000020000000000020000002000000010410403190031450208594052100319207807020859   1030000500030000   598320001602000015172200016MAX ENERGY             PTN           MMR11003190031450208590319000000000000000   10300001 00104100000000000600000000000000     
100   95050319996628650000000000000980000000000980002000000010410403200256162616596301110320000006837635   1020000200030000   333400010001204104000000281Myanmar Soft-Gate Tech Yangon        MMR11003200256162616590320000000000000000   10300001F05104100000000000206000000000000     
100   62443101065883000000000000035760000000035760002000000010410403201102430179934102390320000744464748   1030000200030000   541188001070000008000000314KBZ BANK               MARKETPLACE - MMR11003201102430179930320000000000000000   10300001 00104100000000008940000000000000     
100   95050313732480420000000000002940000000002940002000000010410403200403153315386811680320000006837937   1020000200030000   333400010001204104000000281Myanmar Soft-Gate Tech Yangon        MMR11003200403153315380320000000000000000   10300001F05104100000000000617000000000000     
100   95050315150726490000000000000980000000000980002000000010410403201348111811496111300320000006840187   1020000200030000   333400010001204104000000281Myanmar Soft-Gate Tech Yangon        MMR11003201348111811490320000000000000000   10300001F05104100000000000206000000000000     
100   62911028202822900000000000020000000000020000002000000010410403200504363436134052100320000006838209   1030000200030000   333800010001203104000003327KBZPay                 Yangon        MMR11003200504363436130320000000000000000   10300001F05104100000000004200000000000000     
100   95050316785465380000000000001960000000001960002000000010410403200702523252601804790320000006838700   1020000200030000   333400010001204104000000281Myanmar Soft-Gate Tech Yangon        MMR11003200702523252600320000000000000000   10300001F05104100000000000412000000000000     
100   95030320529939180000000000058818000000058818002000000010410403200243084965574052100320440140921078   1030000300030000   555510125331104519000021173One Stop Mart Shopping Mall 0003     MMR11003200243084965570320000000000000000   10300001 00104100000000003529000000000000     
100   95050324247403260000000001703400000001703400002000000010410403200626174998849471540320858541236078   1030000300030000   555510114688104519000012635Win Mobile World                     MMR11003200626174998840320000000000000000   10300001 00104100000000408816000000000000     
100   62911028202443650000000000021400000000021400002000000010410403200717065007624052100320093481321078   1030000500030000   555610112244104519000010487Ocean Super Center St  ohn           MMR11003200717065007620320000000000000000   10300001 00104100000000001284000000000000     
100   95050319870763910000000000001000000000001000002000000010410403200913594359547528110320000006839208   1030000200030000   3334000100012031040000040102C2P (Myanmar) Co. Ltd Yangon        MMR11003200913594359540320000000000000000   10300001F05104100000000000210000000000000     
100   95050319144542320000000000100000000000100000002000000010410403201004453445424634830320000006839377   1030000200030000   333800010001203104000003327KBZPay                 Yangon        MMR11003201004453445420320000000000000000   10300001F05104100000000021000000000000000     
100   62443100361813580000000000050000000000050000002000000010410403200301083108921343650320000006837651   1030000200030000   333800010001203104000003327KBZPay                 Yangon        MMR11003200301083108920320000000000000000   10300001F05104100000000010500000000000000     
100   62911028202418410000000000008200000000008200002000000010410403201549560180254052100320000744477090   1030000200030000   541188001070000008000000314KBZ BANK               MARKETPLACE - MMR11003201549560180250320000000000000000   10300001 00104100000000000492000000000000     
100   95050316818236190000000000000980000000000980002000000010410403201502193219288820590320000006840442   1020000200030000   333400010001204104000000281Myanmar Soft-Gate Tech Yangon        MMR11003201502193219280320000000000000000   10300001F05104100000000000206000000000000     
100   62443100371309900000000000043150000000043150002000000010410403201340115069497423390320959082035078   1030000300030000   555510125330104519000021173One Stop Mart Shopping Mall 0003     MMR11003201340115069490320000000000000000   10300001 00104100000000010356000000000000     
100   95050311077567400000000000010000000000010000002000000010410403201257102710247593590320000006840021   1030000900030000   333400010001202104000002022ACS                    Yangon        MMR11003201257102710240320000000000000000   10300001F05104100000000002100000000000000     
100   62911028202685470000000000015000000000015000002000000010410403201339023107644052100320207920310764   1040001600030000   806220000002000000010000001Victoria Hospital      Yangon        MMR11003201339023107640320000000000000000   10300001F00104100000000000900000000000000     
100   95050320360851930000000000000980000000000980002000000010410403201236510651031579320320000006839945   1020000200030000   333400010001204104000000281Myanmar Soft-Gate Tech Yangon        MMR11003201236510651030320000000000000000   10300001F05104100000000000206000000000000     
100   95030341448197210000000000030000000000030000002000000010410403192347582658454052100320207906265845   1040001600030000   598320000854000000010000608Terminal Petrol Statio Yangon        MMR11003192347582658450320000000000000000   10300001F00104100000000000900000000000000     
100   95050311121153200000000000000980000000000980002000000010410403200609333933984599180320000006838453   1020000200030000   333400010001204104000000281Myanmar Soft-Gate Tech Yangon        MMR11003200609333933980320000000000000000   10300001F05104100000000000206000000000000     
100   95050328876009750000000000030000000000030000002000000010410403200612394239952946700320000006838457   1030000200030000   333800010001203104000003327KBZPay                 Yangon        MMR11003200612394239950320000000000000000   10300001F05104100000000006300000000000000     
100   62911028202665170000000000483840000000483840002000000010410403200517424742184052100320000006838267   1030000900030000   333800010001202104000003301uab bank               Yangon        MMR11003200517424742180320000000000000000   10300001F05104100000000101606000000000000     
100   62911028202169750000000000012000000000012000002000000010410403200814245017554052100320519441410078   1030000500030000   555610118966104519000016137City Mart South Okkala WZYD BR       MMR11003200814245017550320000000000000000   10300001 00104100000000000720000000000000     
100   62443100340648380000000000005000000000005000002000000010410403200210214021673081240320000006837509   1030000200030000   333800010001203104000003327KBZPay                 Yangon        MMR11003200210214021670320000000000000000   10300001F05104100000000001050000000000000     
100   95050310332595380000000000004900000000004900002000000010410403201318474847492551040320000006840084   1020000200030000   333400010001204104000000281Myanmar Soft-Gate Tech Yangon        MMR11003201318474847490320000000000000000   10300001F05104100000000001029000000000000     
100   95050318242219520000000000000980000000000980002000000010410403201319314931380813460320000006840093   1020000200030000   333400010001204104000000281Myanmar Soft-Gate Tech Yangon        MMR11003201319314931380320000000000000000   10300001F05104100000000000206000000000000     
100   62911028202610540000000000009400000000009400002000000010410403200619214998254052100320777501247078   1030000300030000   555510120538104519000017437Art and T8                           MMR11003200619214998250320000000000000000   10300001 00104100000000000564000000000000     
100   62911028202269410000000000006600000000006600002000000010410403200653485003094052100320468221323078   1030000300030000   555510125170104519000021039G N G Convenience Stor G0395F        MMR11003200653485003090320000000000000000   10300001 00104100000000000396000000000000     
100   62911028202115470000000000020000000000020000002000000010410403200650475002674052100320416191316078   1030000300030000   888810125940104519000021285Shwe Taung Energy CoLt               MMR11003200650475002670320000000000000000   10300001 00104100000000000600000000000000     
100   95050327285327260000000000037650000000037650002000000010410403200629534999421124020320942571254078   1030000300030000   555610103643104519000003559Capital Hypermarket Da bon           MMR11003200629534999420320000000000000000   10300001 00104100000000009413000000000000     
100   95050322222444890000000000045000000000045000002000000010410403200825595019560407600320795541416078   1030000300030000   555610103655104519000003559Capital Hypermarket Da bon           MMR11003200825595019560320000000000000000   10300001 00104100000000011250000000000000     
100   62443100300743690000000000039277000000039277002000000010410403200902512911365705430320207916291136   1040001600030000   541120000563000000010000465Ocean Shwe Gone Daing  Yangon        MMR11003200902512911360320000000000000000   10300001F00104100000000009820000000000000     
100   95030359617000430000000000300000000000300000002000000010410403200403233323454052100320000006837939   1030000200030000   333800010001203104000003327KBZPay                 Yangon        MMR11003200403233323450320000000000000000   10300001F05104100000000063000000000000000     
100   95050311959900780000000000001960000000001960002000000010410403200315344534850201750320000006837704   1020000200030000   333400010001204104000000281Myanmar Soft-Gate Tech Yangon        MMR11003200315344534850320000000000000000   10300001F05104100000000000412000000000000     
100   95050312613888920000000000005000000000005000002000000010410403201010304030824719930320000006839398   1030000200030000   333800010001203104000003327KBZPay                 Yangon        MMR11003201010304030820320000000000000000   10300001F05104100000000001050000000000000     
