100   95050316785465380000000000000980000000000980002000000010410403191243031303352584450319000006836279   1020000200030000   333400010001204104000000281Myanmar Soft-Gate Tech Yangon        MMR11003191243031303350319000000000000000   10300001F05104100000000000206000000000000     
100   95050311959900780000000000002940000000002940002000000010410403190644351435481947410319000006834813   1020000200030000   333400010001204104000000281Myanmar Soft-Gate Tech Yangon        MMR11003190644351435480319000000000000000   10300001F05104100000000000617000000000000     
100   95050324104751500000000000047000000000047000002000000010410403190351562087617961660319207810208761   1040001600030000   569920000593000000010000468BOSSINI (Junction City Yangon        MMR11003190351562087610319000000000000000   10300001F00104100000000011280000000000000     
100   95050318741700180000000000001960000000001960002000000010410403190248371837407110700319000006833491   1020000200030000   333400010001204104000000281Myanmar Soft-Gate Tech Yangon        MMR11003190248371837400319000000000000000   10300001F05104100000000000412000000000000     
100   95030315490490030000000000041200000000041200002000000010410403190750442218964052100319207814221896   1040001600030000   591220000301000000010000289Shwe Ohh Pharmacy (Yay Yangon        MMR11003190750442218960319000000000000000   10300001F00104100000000002472000000000000     
100   62911028202610540000000000002950000000002950002000000010410403191801120170134052100319000744443479   1030000200030000   541188001075000008000000294KBZ BANK               CITY MART - J MMR11003191801120170130319000000000000000   10300001 00104100000000000177000000000000     
100   95050313702988830000000000002940000000002940002000000010410403190041241124065216720319000006833060   1020000200030000   333400010001204104000000281Myanmar Soft-Gate Tech Yangon        MMR11003190041241124060319000000000000000   10300001F05104100000000000617000000000000     
100   95050323722449090000000000004409000000004409002000000010410403190148491849413989720319000006833234   1020000200030000   333400010001204104000000281Myanmar Soft-Gate Tech Yangon        MMR11003190148491849410319000000000000000   10300001F05104100000000000926000000000000     
100   95050327192897240000000000039280000000039280002000000010410403190512115433641692120319672421111077   1030000900030000   541119001222190110000000945City Mart TM C 7       YANGONONE     MMR11003190512115433640319000000000000000   10300001F00104100000000009820000000000000     
100   95050312498129060000000000000980000000000980002000000010410403191227085708749109290319000006836229   1020000200030000   333400010001204104000000281Myanmar Soft-Gate Tech Yangon        MMR11003191227085708740319000000000000000   10300001F05104100000000000206000000000000     
100   95050310291835770000000000020000000000020000002000000010410403191145331533453471060319000006836072   1030000200030000   333800010001203104000003327KBZPay                 Yangon        MMR11003191145331533450319000000000000000   10300001F05104100000000004200000000000000     
100   95050319502933380000000000000980000000000980002000000010410403190428235823090926250319000006834096   1020000200030000   333400010001204104000000281Myanmar Soft-Gate Tech Yangon        MMR11003190428235823090319000000000000000   10300001F05104100000000000206000000000000     
100   62443100300743690000000000007717000000007717002000000010410403191134365530770081000319876041836077   1030000900030000   581219000981190110000000788Jo Jo Hot Pot (KTY)    YANGONARTAUNG MMR11003191134365530770319000000000000000   10300001F00104100000000003280000000000000     
100   95030339867270590000000000003850000000003850002000000010410403191117084918414052100319654451722077   1030000300030000   555610103748104519000003624G and G Convenience St re 165        MMR11003191117084918410319000000000000000   10300001 00104100000000000231000000000000     
100   95050318242219520000000000000980000000000980002000000010410403190328245824602748930319000006833719   1020000200030000   333400010001204104000000281Myanmar Soft-Gate Tech Yangon        MMR11003190328245824600319000000000000000   10300001F05104100000000000206000000000000     
100   95050317376014640000000000015100000000015100002000000010410403191225115542480846860319728551811077   1030000900030000   541119001349190110000000977Ocean PZD C 3          YANGONAUNG    MMR11003191225115542480319000000000000000   10300001F00104100000000003775000000000000     
100   95030366960186690000000000031000000000031000002000000010410403190535092144154052100319207812214415   1040001600030000   591220000277000000010000265Shwe Ohh Pharmacy (Thu Yangon        MMR11003190535092144150319000000000000000   10300001F00104100000000001860000000000000     
100   95050315150726490000000000000980000000000980002000000010410403191453172317440676680319000006836752   1020000200030000   333400010001204104000000281Myanmar Soft-Gate Tech Yangon        MMR11003191453172317440319000000000000000   10300001F05104100000000000206000000000000     
100   62443100301716860000000000001960000000001960002000000010410403190731340134237061260319000006835053   1020000200030000   333400010001204104000000281Myanmar Soft-Gate Tech Yangon        MMR11003190731340134230319000000000000000   10300001F05104100000000000412000000000000     
100   95050322295410690000000000062000000000062000002000000010410403190433122108794316310319207811210879   1040001600030000   569120000923000000010000670Generation Concept Sto Ygn           MMR11003190433122108790319000000000000000   10300001F00104100000000014880000000000000     
100   62911028202130710000000000020000000000020000002000000010410403190607152162814052100319207813216281   1040001600030000   569120000924000000010000671Generation Concept Sto Ygn           MMR11003190607152162810319000000000000000   10300001F00104100000000001200000000000000     
100   95050318575030940000000000004900000000004900002000000010410403190733150315665408780319000006835057   1020000200030000   333400010001204104000000281Myanmar Soft-Gate Tech Yangon        MMR11003190733150315660319000000000000000   10300001F05104100000000001029000000000000     
100   95050311959900780000000000000980000000000980002000000010410403191134350435535123550319000006836029   1020000200030000   333400010001204104000000281Myanmar Soft-Gate Tech Yangon        MMR11003191134350435530319000000000000000   10300001F05104100000000000206000000000000     
100   62911028202595380000000000099500000000099500002000000010410403190240582055914052100319207809205591   1040001600030000   591220000273000000010000261Shwe Ohh Pharmacy (WZY Yangon        MMR11003190240582055910319000000000000000   10300001F00104100000000005970000000000000     
100   62911028202322040000000000001000000000001000002000000010410403191327215721204052100319000006836470   1030000200030000   3334000100012031040000040102C2P (Myanmar) Co. Ltd Yangon        MMR11003191327215721200319000000000000000   10300001F05104100000000000210000000000000     
100   62443100359121590000000000002940000000002940002000000010410403190828335833195919350319000006835258   1020000200030000   333400010001204104000000281Myanmar Soft-Gate Tech Yangon        MMR11003190828335833190319000000000000000   10300001F05104100000000000617000000000000     
100   95050318057347910000000000000980000000000980002000000010410403190726515651982018710319000006835032   1020000200030000   333400010001204104000000281Myanmar Soft-Gate Tech Yangon        MMR11003190726515651980319000000000000000   10300001F05104100000000000206000000000000     
100   62911028202207460000000000003000000000003000002000000010410403190646064869334052100319623141327077   1030000500030000   555610112242104519000010487Ocean Super Center St  ohn           MMR11003190646064869330319000000000000000   10300001 00104100000000000180000000000000     
100   95050324800108530000000000006900000000006900002000000010410403190509074853178302050319352371143077   1030000300030000   555610103654104519000003559Capital Hypermarket Da bon           MMR11003190509074853170319000000000000000   10300001 00104100000000001725000000000000     
100   95050313817486860000000000028450000000028450002000000010410403191525070034106259740319000744435734   1030000200030000   541188001428000008000000401KBZ BANK               OCEAN SUPERCE MMR11003191525070034100319000000000000000   10300001 00104100000000007113000000000000     
100   62911028202692550000000000009715000000009715002000000010410403191140135532074052100319961101813077   1030000900030000   541119000141190110000000083SeinGayHarParami Cente YANGON        MMR11003191140135532070319000000000000000   10300001F00104100000000000583000000000000     
100   95050310608512070000000000022300000000022300002000000010410403180427440019695699720318000335694097   1030000300030000   591200000169000000000000084CB BANK                MEDICARE STOR MMR11003180427440019690318000000000000000   10300001F00104100000000005352000000000000     
100   95030333100021460000000000023350000000023350002000000010410403191407020124124052100319000744432145   1030000200030000   541188001073000008000000294KBZ BANK               CITY MART - J MMR11003191407020124120319000000000000000   10300001 00104100000000001401000000000000     
100   95050325139996190000000000093600000000093600002000000010410403190246551655195798610319000006833460   1030000200030000   333300010001203104000003632Myanmar Tradenet Test  Yangon        MMR11003190246551655190319000000000000000   10300001F05104100000000010000000000000000     
100   95050316067768680000000000000980000000000980002000000010410403190250232023052068150319000006833497   1020000200030000   333400010001204104000000281Myanmar Soft-Gate Tech Yangon        MMR11003190250232023050319000000000000000   10300001F05104100000000000206000000000000     
100   95050310291835770000000000010000000000010000002000000010410403191138280828768428520319000006836047   1030000200030000   333800010001203104000003327KBZPay                 Yangon        MMR11003191138280828760319000000000000000   10300001F05104100000000002100000000000000     
100   95050323722449090000000000004900000000004900002000000010410403190150442044848606780319000006833242   1020000200030000   333400010001204104000000281Myanmar Soft-Gate Tech Yangon        MMR11003190150442044840319000000000000000   10300001F05104100000000001029000000000000     
100   95050316736513170000000000000980000000000980002000000010410403190051202120163564230319000006833081   1020000200030000   333400010001204104000000281Myanmar Soft-Gate Tech Yangon        MMR11003190051202120160319000000000000000   10300001F05104100000000000206000000000000     
100   62911028202417260000000000024172000000024172002000000010410403191344320109224052100319000744431106   1030000200030000   541188001056000008000000314KBZ BANK               MARKETPLACE - MMR11003191344320109220319000000000000000   10300001 00104100000000001450000000000000     
100   95050316818236190000000000004900000000004900002000000010410403190539560956963089310319000006834485   1020000200030000   333400010001204104000000281Myanmar Soft-Gate Tech Yangon        MMR11003190539560956960319000000000000000   10300001F05104100000000001029000000000000     
100   62911028202397530000000000056000000000056000002000000010410403180215550158034052100318207708015803   1030000500030000   598320002701000015172200027MAX ENERGY             PTN           MMR11003180215550158030318000000000000000   10300001 00104100000000001680000000000000     
100   62911028202734630000000000065000000000065000002000000010410403181018420009254052100318207716000925   1030000500030000   481220018401000024812200184SUPER MOBILE           PTN           MMR11003181018420009250318000000000000000   10300001 00104100000000003900000000000000     
100   62911028202734630000000000359500000000359500002000000010410403180959380009234052100318207716000923   1030000500030000   481220018401000024812200184SUPER MOBILE           PTN           MMR11003180959380009230318000000000000000   10300001 00104100000000021570000000000000     
100   95030301100124990000000000009600000000009600002000000010410403190353135415124052100319322231013077   1030000900030000   541119001172190110000000931OCEAN HTY SEASON C 1   YANGONTHARYA  MMR11003190353135415120319000000000000000   10300001F00104100000000000576000000000000     
100   95050318805978240000000000021000000000021000002000000010410403191009235506303380250319987391623077   1030000900030000   541119001516190110000001102Ocean MGDTM C-9        YANGONADON    MMR11003191009235506300319000000000000000   10300001F00104100000000005250000000000000     
100   62443100379184770000000000020000000000020000002000000010410403191240251025304236930319000006836273   1030000200030000   333800010001203104000003327KBZPay                 Yangon        MMR11003191240251025300319000000000000000   10300001F05104100000000004200000000000000     
100   95030301100124400000000000008800000000008800002000000010410403191118485526584052100319561481748077   1030000900030000   541119001274190110000000961City Mart PLST City Ca YANGONMYOTHIT MMR11003191118485526580319000000000000000   10300001F00104100000000000528000000000000     
100   62911028202169750000000000224335000000224335002000000010410403191151040275224052100319000744426060   1030000200030000   541188001039000008000000010KBZ BANK               MARKETPLACE - MMR11003191151040275220319000000000000000   10300001 00104100000000013460000000000000     
100   95050312947607030000000000001000000000001000002000000010410403191041511151011393100319000006835801   1030000200030000   333800010001203104000003327KBZPay                 Yangon        MMR11003191041511151010319000000000000000   10300001F05104100000000000210000000000000     
100   95050312781844250000000000030000000000030000002000000010410403190851462146857912220319000006835333   1030000200030000   333800010001203104000003327KBZPay                 Yangon        MMR11003190851462146850319000000000000000   10300001F05104100000000006300000000000000     
100   95050315345734110000000000009800000000009800002000000010410403190544581458831521920319000006834519   1020000200030000   333400010001204104000000281Myanmar Soft-Gate Tech Yangon        MMR11003190544581458830319000000000000000   10300001F05104100000000002058000000000000     
100   62911028202202580000000000047950000000047950002000000010410403190503112125374052100319207812212537   1040001600030000   591220000296000000010000284Shwe Ohh Pharmacy (Lan Yangon        MMR11003190503112125370319000000000000000   10300001F00104100000000002877000000000000     
100   95050317743858310000000000005000000000005000002000000010410403190954542454249990190319000006835616   1030000200030000   3338000100012031040000040022C2P (Myanmar) Co. Ltd Yangon        MMR11003190954542454240319000000000000000   10300001F05104100000000001050000000000000     
100   95050314401921990000000000000980000000000980002000000010410403190832210221400876800319000006835273   1020000200030000   333400010001204104000000281Myanmar Soft-Gate Tech Yangon        MMR11003190832210221400319000000000000000   10300001F05104100000000000206000000000000     
100   95050317903887690000000000000980000000000980002000000010410403191457332733059024190319000006836766   1020000200030000   333400010001204104000000281Myanmar Soft-Gate Tech Yangon        MMR11003191457332733050319000000000000000   10300001F05104100000000000206000000000000     
100   62911028202130710000000000006000000000006000002000000010410403191220360161534052100319000744427386   1030000200030000   541188001055000008000000314KBZ BANK               MARKETPLACE - MMR11003191220360161530319000000000000000   10300001 00104100000000000360000000000000     
100   95050316818236190000000000000980000000000980002000000010410403191349251925237286610319000006836558   1020000200030000   333400010001204104000000281Myanmar Soft-Gate Tech Yangon        MMR11003191349251925230319000000000000000   10300001F05104100000000000206000000000000     
100   62443100340422630000000000074150000000074150002000000010410403190519165435130039630319781491116077   1030000900030000   541119000162190110000000084Pro (1) Global (Pazund YANGONARTAUNG MMR11003190519165435130319000000000000000   10300001F00104100000000018538000000000000     
100   95050312160676580000000000002940000000002940002000000010410403191201093109051903680319000006836127   1020000200030000   333400010001204104000000281Myanmar Soft-Gate Tech Yangon        MMR11003191201093109050319000000000000000   10300001F05104100000000000617000000000000     
100   95050326689257240000000000014600000000014600002000000010410403191044445516844698070319794141744077   1030000900030000   541119001266190110000000958City Mart PLST C9      YANGONMYOTHIT MMR11003191044445516840319000000000000000   10300001F00104100000000003650000000000000     
100   95050314307746340000000000000980000000000980002000000010410403190154322432160259270319000006833258   1020000200030000   333400010001204104000000281Myanmar Soft-Gate Tech Yangon        MMR11003190154322432160319000000000000000   10300001F05104100000000000206000000000000     
100   95050310427855490000000000001960000000001960002000000010410403190600003000278727530319000006834582   1020000200030000   333400010001204104000000281Myanmar Soft-Gate Tech Yangon        MMR11003190600003000270319000000000000000   10300001F05104100000000000412000000000000     
100   95050316818236190000000000000980000000000980002000000010410403190306343634893890830319000006833579   1020000200030000   333400010001204104000000281Myanmar Soft-Gate Tech Yangon        MMR11003190306343634890319000000000000000   10300001F05104100000000000206000000000000     
100   95030301100124990000000000037900000000037900002000000010410403190343355413234052100319194131035077   1030000900030000   541119001157190110000000930OCEAN HTY C 7          YANGONTHARYA  MMR11003190343355413230319000000000000000   10300001F00104100000000002274000000000000     
100   62911028202291190000000000008400000000008400002000000010410403191233120182844052100319000744427914   1030000200030000   541188001032000008000000298KBZ BANK               CITY MART - M MMR11003191233120182840319000000000000000   10300001 00104100000000000504000000000000     
100   95030318100002710000000000100000000000100000002000000010410403190632080208354052100319000006834742   1030000200030000   333800010001203104000003327KBZPay                 Yangon        MMR11003190632080208350319000000000000000   10300001F05104100000000021000000000000000     
100   95050317903887690000000000001960000000001960002000000010410403190839320932468082410319000006835294   1020000200030000   333400010001204104000000281Myanmar Soft-Gate Tech Yangon        MMR11003190839320932460319000000000000000   10300001F05104100000000000412000000000000     
100   95050319709462380000000000000980000000000980002000000010410403190349481948609614150319000006833876   1020000200030000   333400010001204104000000281Myanmar Soft-Gate Tech Yangon        MMR11003190349481948600319000000000000000   10300001F05104100000000000206000000000000     
100   62911028202169750000000000100627000000100627002000000010410403190725062205864052100319207814220586   1040001600030000   541120000563000000010000465Ocean Shwe Gone Daing  Yangon        MMR11003190725062205860319000000000000000   10300001F00104100000000006038000000000000     
100   95050317903887690000000000001960000000001960002000000010410403190115094509284876340319000006833136   1020000200030000   333400010001204104000000281Myanmar Soft-Gate Tech Yangon        MMR11003190115094509280319000000000000000   10300001F05104100000000000412000000000000     
100   62443100317491910000000000020550000000020550002000000010410403190621304865828472240319098511247077   1030000500030000   555610110599104519000009166City Mart 47 Branch                  MMR11003190621304865820319000000000000000   10300001 00104100000000005138000000000000     
100   62443100318296470000000000051100000000051100002000000010410403190807504883132784580319607361455077   1030000500030000   555610112241104519000010487Ocean Super Center St  ohn           MMR11003190807504883130319000000000000000   10300001 00104100000000012775000000000000     
100   95050325784857510000000000003100000000003100002000000010410403190702245460227146360319688321324077   1030000900030000   541119001207190110000000948City Mart YK C 5       YANGONAUNG    MMR11003190702245460220319000000000000000   10300001F00104100000000000775000000000000     
100   95050311121153200000000000008900000000008900002000000010410403191140001000690166090319000006836051   1030000200030000   333800010001203104000003327KBZPay                 Yangon        MMR11003191140001000690319000000000000000   10300001F05104100000000001869000000000000     
100   95050312498129060000000000002940000000002940002000000010410403190939440944583720640319000006835538   1020000200030000   333400010001204104000000281Myanmar Soft-Gate Tech Yangon        MMR11003190939440944580319000000000000000   10300001F05104100000000000617000000000000     
100   95050324250133010000000000010000000000010000002000000010410403190522472137358387150319207812213735   1040001600030000   598320000911000000010000662MMTM - Tamwe           Ygn           MMR11003190522472137350319000000000000000   10300001F00104100000000001200000000000000     
100   95050318214455130000000000002940000000002940002000000010410403190145171517442337230319000006833224   1020000200030000   333400010001204104000000281Myanmar Soft-Gate Tech Yangon        MMR11003190145171517440319000000000000000   10300001F05104100000000000617000000000000     
100   95050314950595330000000000002000000000002000002000000010410403191206413641805293740319000006836144   1030000200030000   3338000100012031040000040022C2P (Myanmar) Co. Ltd Yangon        MMR11003191206413641800319000000000000000   10300001F05104100000000000420000000000000     
100   95050313836159580000000000003000000000003000002000000010410403181708433843570089070319000006832755   1030000200030000   3334000100012031040000040102C2P (Myanmar) Co. Ltd Yangon        MMR11003181708433843570319000000000000000   10300001F05104100000000000630000000000000     
100   95050317343045830000000000000980000000000980002000000010410403191618174817664066730319000006836974   1020000200030000   333400010001204104000000281Myanmar Soft-Gate Tech Yangon        MMR11003191618174817660319000000000000000   10300001F05104100000000000206000000000000     
100   95050315344668630000000000009850000000009850002000000010410403190750364880091047000319147191449077   1030000300030000   444410116806104519000014353BreadTalk JunctionCity               MMR11003190750364880090319000000000000000   10300001 00104100000000004187000000000000     
100   95050327192897240000000000002940000000002940002000000010410403191507233723303981640319000006836793   1020000200030000   333400010001204104000000281Myanmar Soft-Gate Tech Yangon        MMR11003191507233723300319000000000000000   10300001F05104100000000000617000000000000     
100   95050316997303010000000000000980000000000980002000000010410403190912274227728507890319000006835412   1020000200030000   333400010001204104000000281Myanmar Soft-Gate Tech Yangon        MMR11003190912274227720319000000000000000   10300001F05104100000000000206000000000000     
100   95050311931431670000000000002940000000002940002000000010410403191114284428353726350319000006835945   1020000200030000   333400010001204104000000281Myanmar Soft-Gate Tech Yangon        MMR11003191114284428350319000000000000000   10300001F05104100000000000617000000000000     
100   95050318057347910000000000000980000000000980002000000010410403190608063806462117600319000006834609   1020000200030000   333400010001204104000000281Myanmar Soft-Gate Tech Yangon        MMR11003190608063806460319000000000000000   10300001F05104100000000000206000000000000     
100   62443101023815100000000000014000000000014000002000000010410403190447124850099358860319915181146077   1030000500030000   555610114573104519000012532City Mart Ahlone Branc               MMR11003190447124850090319000000000000000   10300001 00104100000000003500000000000000     
100   95050317823045920000000000010000000000010000002000000010410403190103503350361486270319000006833103   1030000200030000   333800010001203104000003327KBZPay                 Yangon        MMR11003190103503350360319000000000000000   10300001F05104100000000002100000000000000     
100   62443100335647210000000000009800000000009800002000000010410403190708513851040621520319000006834947   1020000200030000   333400010001204104000000281Myanmar Soft-Gate Tech Yangon        MMR11003190708513851040319000000000000000   10300001F05104100000000002058000000000000     
100   95050311876202380000000000041750000000041750002000000010410403191021454908454953350319166541622077   1030000500030000   555610103978104519000003818Ocean Oattara Thiri Na PyiTaw        MMR11003191021454908450319000000000000000   10300001 00104100000000010438000000000000     
100   95050317903887690000000000004900000000004900002000000010410403190113134313833138750319000006833131   1020000200030000   333400010001204104000000281Myanmar Soft-Gate Tech Yangon        MMR11003190113134313830319000000000000000   10300001F05104100000000001029000000000000     
100   62911028202225440000000000003200000000003200002000000010410403190942244900904052100319129161652077   1030000500030000   555610110576104519000009164City Mart China Town P int Cen       MMR11003190942244900900319000000000000000   10300001 00104100000000000192000000000000     
100   95050314557307430000000000001960000000001960002000000010410403190259232923170415670319000006833549   1020000200030000   333400010001204104000000281Myanmar Soft-Gate Tech Yangon        MMR11003190259232923170319000000000000000   10300001F05104100000000000412000000000000     
100   95050310305109410000000000001960000000001960002000000010410403191313254325043896550319000006836393   1020000200030000   333400010001204104000000281Myanmar Soft-Gate Tech Yangon        MMR11003191313254325040319000000000000000   10300001F05104100000000000412000000000000     
100   95050312498129060000000000003920000000003920002000000010410403191415244524555634130319000006836639   1020000200030000   333400010001204104000000281Myanmar Soft-Gate Tech Yangon        MMR11003191415244524550319000000000000000   10300001F05104100000000000823000000000000     
100   62911028202169750000000000025727000000025727002000000010410403190615014864424052100319905431218077   1030000300030000   555510125146104519000021022One Stop Mart Shopping Mall 0002     MMR11003190615014864420319000000000000000   10300001 00104100000000001544000000000000     
100   62911028202448030000000000119498000000119498002000000010410403190615334864454052100319908431228077   1030000500030000   555610112237104519000010487Ocean Super Center St  ohn           MMR11003190615334864450319000000000000000   10300001 00104100000000007170000000000000     
100   95050312498129060000000000002940000000002940002000000010410403191515494549712329160319000006836815   1020000200030000   333400010001204104000000281Myanmar Soft-Gate Tech Yangon        MMR11003191515494549710319000000000000000   10300001F05104100000000000617000000000000     
100   62911028202290100000000000040550000000040550002000000010410403190726044875854052100319570541326077   1030000300030000   444410125393104519000021220Myanmar Bakery CoLtd                 MMR11003190726044875850319000000000000000   10300001 00104100000000004136000000000000     
100   62911028202350660000000000009600000000009600002000000010410403191055364915694052100319265301759077   1030000300030000   555510123678104519000019885Art N T8                             MMR11003191055364915690319000000000000000   10300001 00104100000000000576000000000000     
100   95050325139996190000000000003300000000003300002000000010410403190407313731354231220319000006833968   1030000200030000   333300010001203104000003632Myanmar Tradenet Test  Yangon        MMR11003190407313731350319000000000000000   10300001F05104100000000010000000000000000     
100   95050318057347910000000000000980000000000980002000000010410403191015514551801727770319000006835702   1020000200030000   333400010001204104000000281Myanmar Soft-Gate Tech Yangon        MMR11003191015514551800319000000000000000   10300001F05104100000000000206000000000000     
100   62911028202807400000000000018400000000018400002000000010410403190314474837054052100319143440909077   1030000300030000   555510124692104519000020166Makro Myanmar                        MMR11003190314474837050319000000000000000   10300001 00104100000000001104000000000000     
100   62911028202154720000000000020850000000020850002000000010410403190302294836674052100319093400931077   1030000500030000   555610103470104519000003420City Mart Yankin Cente 9             MMR11003190302294836670319000000000000000   10300001 00104100000000001251000000000000     
100   95050324104751500000000000031500000000031500002000000010410403190420134846532663830319428571030077   1030000300030000   555510111380104519000009762Best Style Fashion                   MMR11003190420134846530319000000000000000   10300001 00104100000000007560000000000000     
100   95050322295410690000000000032600000000032600002000000010410403190459074851758216950319148281101077   1030000500030000   555610115765104519000013506MarketplaceMyanmarPlaz Branch        MMR11003190459074851750319000000000000000   10300001 00104100000000008150000000000000     
100   95050314641725490000000000006700000000006700002000000010410403190735404877589309420319814041452077   1030000500030000   555610108840104519000003432City Mart Junction Zaw na 1          MMR11003190735404877580319000000000000000   10300001 00104100000000001675000000000000     
100   62911028202147150000000000032400000000032400002000000010410403190735274877634052100319819051405077   1030000500030000   555610112981104519000011143Market Place by City M rt Sule       MMR11003190735274877630319000000000000000   10300001 00104100000000001944000000000000     
100   95050314302558730000000000002940000000002940002000000010410403191212074207300251190319000006836151   1020000200030000   333400010001204104000000281Myanmar Soft-Gate Tech Yangon        MMR11003191212074207300319000000000000000   10300001F05104100000000000617000000000000     
100   62911028202207460000000000004600000000004600002000000010410403190632514868454052100319492081348077   1030000500030000   555610112532104519000010487Ocean Super Center St  ohn           MMR11003190632514868450319000000000000000   10300001 00104100000000000276000000000000     
100   95030301100129110000000000008900000000008900002000000010410403191051484914294052100319058221734077   1030000500030000   555610110559104519000009163City Mart Ayeyarwon Br nch           MMR11003191051484914290319000000000000000   10300001 00104100000000000534000000000000     
100   95050319709462380000000000020000000000020000002000000010410403190610534053373855170319000006834622   1030000200030000   3338000100012031040000040022C2P (Myanmar) Co. Ltd Yangon        MMR11003190610534053370319000000000000000   10300001F05104100000000004200000000000000     
100   95050325139996190000000000003300000000003300002000000010410403190409093909329188670319000006833976   1030000200030000   333300010001203104000003632Myanmar Tradenet Test  Yangon        MMR11003190409093909320319000000000000000   10300001F05104100000000010000000000000000     
100   95050312781844250000000000193000000000193000002000000010410403190217314731485386910319000006833333   1030000200030000   333800010001203104000003327KBZPay                 Yangon        MMR11003190217314731480319000000000000000   10300001F05104100000000040530000000000000     
100   95050311959900780000000000000980000000000980002000000010410403191006193619583295160319000006835663   1020000200030000   333400010001204104000000281Myanmar Soft-Gate Tech Yangon        MMR11003191006193619580319000000000000000   10300001F05104100000000000206000000000000     
100   62443101015591650000000000010000000000010000002000000010410403190711434143368969030319000006834950   1030000300030000   333300010001206104000002147DICA Company Limited   Yangon        MMR11003190711434143360319000000000000000   10300001F05104100000000010000000000000000     
100   95050314996291580000000000001960000000001960002000000010410403190311294129898848280319000006833625   1020000200030000   333400010001204104000000281Myanmar Soft-Gate Tech Yangon        MMR11003190311294129890319000000000000000   10300001F05104100000000000412000000000000     
100   62911028202807400000000000115300000000115300002000000010410403190312594836714052100319098400957077   1030000300030000   555510124694104519000020166Makro Myanmar                        MMR11003190312594836710319000000000000000   10300001 00104100000000006918000000000000     
100   95050313702988830000000000006750000000006750002000000010410403190324434838109443960319283530904077   1030000500030000   555610120973104519000017736City Express MCS 27                  MMR11003190324434838100319000000000000000   10300001 00104100000000001688000000000000     
100   95050325455962190000000000002940000000002940002000000010410403190158122812841996850319000006833273   1020000200030000   333400010001204104000000281Myanmar Soft-Gate Tech Yangon        MMR11003190158122812840319000000000000000   10300001F05104100000000000617000000000000     
100   95050323233042810000000000000980000000000980002000000010410403191103073307603130680319000006835907   1020000200030000   333400010001204104000000281Myanmar Soft-Gate Tech Yangon        MMR11003191103073307600319000000000000000   10300001F05104100000000000206000000000000     
100   95030359617000430000000000300000000000300000002000000010410403190410594059384052100319000006833988   1030000200030000   333800010001203104000003327KBZPay                 Yangon        MMR11003190410594059380319000000000000000   10300001F05104100000000063000000000000000     
100   95050312947607030000000000015000000000015000002000000010410403190305013501235543310319000006833580   1030000200030000   333800010001203104000003327KBZPay                 Yangon        MMR11003190305013501230319000000000000000   10300001F05104100000000003150000000000000     
100   62443100392426520000000000010000000000010000002000000010410403191310144014849279480319000006836381   1030000200030000   333800010001203104000003327KBZPay                 Yangon        MMR11003191310144014840319000000000000000   10300001F05104100000000002100000000000000     
100   95050310794962000000000000019450000000019450002000000010410403190335344839624571600319487061034077   1030000500030000   555610103957104519000003818Ocean Oattara Thiri Na PyiTaw        MMR11003190335344839620319000000000000000   10300001 00104100000000004863000000000000     
100   62911028202213220000000000023800000000023800002000000010410403190519304854994052100319623491114077   1030000300030000   555510124687104519000020166Makro Myanmar                        MMR11003190519304854990319000000000000000   10300001 00104100000000001428000000000000     
100   62443101072700490000000000150000000000150000002000000010410403191012454905778337710319807401658077   1030000300030000   555510124687104519000020166Makro Myanmar                        MMR11003191012454905770319000000000000000   10300001 00104100000000036000000000000000     
100   62911028202245730000000000207242000000207242002000000010410403190219194832684052100319508510811077   1030000500030000   555610118964104519000016137City Mart South Okkala WZYD BR       MMR11003190219194832680319000000000000000   10300001 00104100000000012435000000000000     
100   62911028202207460000000000007608000000007608002000000010410403190625454867454052100319353021335077   1030000500030000   555610112233104519000010487Ocean Super Center St  ohn           MMR11003190625454867450319000000000000000   10300001 00104100000000000456000000000000     
100   95030301100119620000000000034700000000034700002000000010410403190909404894284052100319170411542077   1030000300030000   555510124693104519000020166Makro Myanmar                        MMR11003190909404894280319000000000000000   10300001 00104100000000002082000000000000     
100   95050315345734110000000000001960000000001960002000000010410403191423135313708939090319000006836658   1020000200030000   333400010001204104000000281Myanmar Soft-Gate Tech Yangon        MMR11003191423135313700319000000000000000   10300001F05104100000000000412000000000000     
100   62911028202116530000000000034100000000034100002000000010410403190530015438104052100319001001201077   1030000900030000   541119000121190110000000080Sein Gay Har BAK       YANGONADA     MMR11003190530015438100319000000000000000   10300001F00104100000000002046000000000000     
100   62443101023815100000000000007100000000007100002000000010410403191159214926626861130319790291843077   1030000500030000   555610114573104519000012532City Mart Ahlone Branc               MMR11003191159214926620319000000000000000   10300001 00104100000000001775000000000000     
100   62443100330108240000000000100000000000100000002000000010410403190820235023527486740319000006835235   1030000200030000   333800010001203104000003327KBZPay                 Yangon        MMR11003190820235023520319000000000000000   10300001F05104100000000021000000000000000     
100   62443100359121590000000000001960000000001960002000000010410403191230450045834151840319000006836245   1020000200030000   333400010001204104000000281Myanmar Soft-Gate Tech Yangon        MMR11003191230450045830319000000000000000   10300001F05104100000000000412000000000000     
100   62911028202709150000000000047154000000047154002000000010410403191802130036424052100319000744443509   1030000200030000   541188001424000008000000401KBZ BANK               OCEAN SUPERCE MMR11003191802130036420319000000000000000   10300001 00104100000000002829000000000000     
100   95030378062733680000000000041522000000041522002000000010410403190558330022044052100319207812002204   1020000200030000   541100255006300115411000025MWD BANK               YGN           MMR11003190558330022040319000000000000000   10300001 00104100000000002491000000000000     
100   95030378062733680000000000083000000000083000002000000010410403190543250027574052100319207812002757   1020000200030000   541100255004300115411000025MWD BANK               YGN           MMR11003190543250027570319000000000000000   10300001 00104100000000004980000000000000     
100   95050321188471220000000000012850000000012850002000000010410403191625210020864947640319000744438382   1030000200030000   541188001482000008000000399KBZ BANK               OCEAN SUPERCE MMR11003191625210020860319000000000000000   10300001 00104100000000003213000000000000     
100   62443100355903280000000000019150000000019150002000000010410403191408250029244351960319000744432209   1030000200030000   541188001454000008000000391KBZ BANK               OCEAN SUPER C MMR11003191408250029240319000000000000000   10300001 00104100000000004788000000000000     
100   95050310750557450000000000013550000000013550002000000010410403191140530057233259500319000744425617   1030000200030000   541188001315000008000000306KBZ BANK               CITY MART - S MMR11003191140530057230319000000000000000   10300001 00104100000000003388000000000000     
100   62443101057131720000000000089750000000089750002000000010410403191309000018788642440319000744429380   1030000200030000   541188001058000008000000314KBZ BANK               MARKETPLACE - MMR11003191309000018780319000000000000000   10300001 00104100000000022438000000000000     
100   95050317728825080000000000003000000000003000002000000010410403191121055105647031320319000006835977   1030000200030000   3334000100012031040000040102C2P (Myanmar) Co. Ltd Yangon        MMR11003191121055105640319000000000000000   10300001F05104100000000000630000000000000     
100   95050311419479170000000000000980000000000980002000000010410403181823185318690174170319000006832831   1020000200030000   333400010001204104000000281Myanmar Soft-Gate Tech Yangon        MMR11003181823185318690319000000000000000   10300001F05104100000000000206000000000000     
100   95030301100125070000000000123480000000123480002000000010410403190736465468374052100319266061446077   1030000900030000   581219000032190110000000040Hot Pot King Time City YANGONUT      MMR11003190736465468370319000000000000000   10300001F00104100000000012595000000000000     
100   95050328074436620000000000011650000000011650002000000010410403190910455491696855410319947401545077   1030000900030000   591219000899190110000000708Shwe Ohh Pharmacy St 3 YANGONONE     MMR11003190910455491690319000000000000000   10300001F00104100000000002796000000000000     
100   95030301100124400000000000057136000000057136002000000010410403191109505524084052100319363391750077   1030000900030000   541119001262190110000000958City Mart PLST C 5     YANGONMYOTHIT MMR11003191109505524080319000000000000000   10300001F00104100000000003428000000000000     
100   62911028202313470000000000034898000000034898002000000010410403190603155446024052100319600331215077   1030000900030000   541119001358190110000000977Ocean PZD C 12         YANGONAUNG    MMR11003190603155446020319000000000000000   10300001F00104100000000002094000000000000     
100   95050311382087030000000000001960000000001960002000000010410403190421475147709273770319000006834040   1020000200030000   333400010001204104000000281Myanmar Soft-Gate Tech Yangon        MMR11003190421475147700319000000000000000   10300001F05104100000000000412000000000000     
100   62443100330220920000000000747150000000747150002000000010410403190917025493046940510319046471502077   1030000900030000   541119000815190110000000178Pro (1) Global (East D YANGONMYOTHIT MMR11003190917025493040319000000000000000   10300001F00104100000000186788000000000000     
100   95050315158357300000000000000980000000000980002000000010410403191230240024339194380319000006836242   1020000200030000   333400010001204104000000281Myanmar Soft-Gate Tech Yangon        MMR11003191230240024330319000000000000000   10300001F05104100000000000206000000000000     
100   62911028202402980000000000035600000000035600002000000010410403191054550053724052100319000744423646   1030000200030000   541188001084000008000000294KBZ BANK               CITY MART - J MMR11003191054550053720319000000000000000   10300001 00104100000000002136000000000000     
100   95030341448197210000000000033600000000033600002000000010410403180548580001904052100318207712000190   1030000500030000   554120065301000015541200653HTS MYANMAR COMPANY    PTN           MMR11003180548580001900318000000000000000   10300001 00104100000000001008000000000000     
100   95030325264619140000000000098100000000098100002000000010410403180608590001904052100318000744384242   1030000200030000   597788000987000008000001873KBZ BANK               CLINIQUE (JUN MMR11003180608590001900318000000000000000   10300001 00104100000000005886000000000000     
100   95050323282717740000000000015000000000015000002000000010410403180009120004215963080318207706000421   1030000500030000   598320001303000015172200013MAX ENERGY             PTN           MMR11003180009120004210318000000000000000   10300001 00104100000000001800000000000000     
100   95030361482647470000000000008100000000008100002000000010410403181127310005424052100318207717000542   1030000500030000   531120155711000045311201557GAMONE PWINT           PTN           MMR11003181127310005420318000000000000000   10300001 00104100000000000486000000000000     
100   95050324154190880000000000038000000000038000002000000010410403181040530003353698770318207717000335   1030000500030000   598320001304000015172200013MAX ENERGY             PTN           MMR11003181040530003350318000000000000000   10300001 00104100000000004560000000000000     
100   95050318601641810000000000004700000000004700002000000010410403181102490007190649100318207717000719   1030000500030000   591220011401014405912200114SHWE OHH PHARMACY      PTN           MMR11003181102490007190318000000000000000   10300001 00104100000000001128000000000000     
100   95050319902033540000000000027500000000027500002000000010410403191006535505455032730319920361653077   1030000900030000   541119001516190110000001102Ocean MGDTM C-9        YANGONADON    MMR11003191006535505450319000000000000000   10300001F00104100000000006875000000000000     
100   95050327192897240000000000003900000000003900002000000010410403190517305434774997080319752471130077   1030000900030000   541119001229190110000000946City Mart TM Season C  YANGONONE     MMR11003190517305434770319000000000000000   10300001F00104100000000000975000000000000     
100   95030301100125070000000000103780000000103780002000000010410403190945345499684052100319501151634077   1030000900030000   541119001244190110000000955City Mart JS C 3       YANGONUT      MMR11003190945345499680319000000000000000   10300001F00104100000000006227000000000000     
100   62911028202147150000000000073000000000073000002000000010410403190523265211714052100319053268195814   1040001400030000   806210000098028062100000766Yoma OUE Pun Hlaing Ho pital  Yoma O MMR11003190523265211710319000000000000000   10300001 00104100000000004380000000000000     
100   95030301100124990000000000047100000000047100002000000010410403190346035413744052100319233161003077   1030000900030000   541119001157190110000000930OCEAN HTY C 7          YANGONTHARYA  MMR11003190346035413740319000000000000000   10300001F00104100000000002826000000000000     
100   62911028202118690000000000018000000000018000002000000010410403190706045461164052100319756361304077   1030000900030000   563119000646190110000000477Monster Fashion Access YANGONUT      MMR11003190706045461160319000000000000000   10300001F00104100000000001080000000000000     
100   95030301100125070000000000018000000000018000002000000010410403190835425483484052100319358051542077   1030000900030000   599919000648190110000000479Ximi Voque Store       YANGONUT      MMR11003190835425483480319000000000000000   10300001F00104100000000001080000000000000     
100   62911028202593140000000000012100000000012100002000000010410403191046025517194052100319822161702077   1030000900030000   541119001282190110000000963City Mart SPL C 7      YANGONMYOTHIT MMR11003191046025517190319000000000000000   10300001F00104100000000000726000000000000     
100   62443100313529540000000000004450000000004450002000000010410403181119360005659081710318207717000565   1030000500030000   531120155901000045311201559GAMONE PWINT           PTN           MMR11003181119360005650318000000000000000   10300001 00104100000000001068000000000000     
100   95030301100121270000000000019350000000019350002000000010410403181202000026544052100318000335752645   1030000300030000   541100000218000000000000113CB BANK                ONESTOP KITCH MMR11003181202000026540318000000000000000   10300001F00104100000000001161000000000000     
100   62443100330727820000000000241800000000241800002000000010410403180851240026557374060318207715002655   1030000500030000   503920036611000015039200366PRO-1 HOME CENTER      PTN           MMR11003180851240026550318000000000000000   10300001 00104100000000058032000000000000     
100   62911028202472440000000000049000000000049000002000000010410403180701320084054052100318207713008405   1030000500030000   598320001403000015172200014MAX ENERGY             PTN           MMR11003180701320084050318000000000000000   10300001 00104100000000001470000000000000     
100   95030301100319290000000000013700000000013700002000000010410403180245450019684052100318000335681365   1030000300030000   591200000169000000000000084CB BANK                MEDICARE STOR MMR11003180245450019680318000000000000000   10300001F00104100000000000822000000000000     
100   95050315955808830000000000017000000000017000002000000010410403180100460155244395690318207707015524   1030000500030000   598320001102000015172200011MAX ENERGY             PTN           MMR11003180100460155240318000000000000000   10300001 00104100000000002040000000000000     
100   62911028202417260000000000040000000000040000002000000010410403181153080084624052100318207718008462   1030000500030000   598320001403000015172200014MAX ENERGY             PTN           MMR11003181153080084620318000000000000000   10300001 00104100000000001200000000000000     
100   62911028202154640000000000028800000000028800002000000010410403180657250021424052100318207713002142   1030000500030000   531120156005000045311201560GAMONE PWINT           PTN           MMR11003180657250021420318000000000000000   10300001 00104100000000001728000000000000     
100   62443100316099160000000000005400000000005400002000000010410403190937025497865373120319378071602077   1030000900030000   581219000528190110000000376Shwepalin (Hantharwadd YANGONUT      MMR11003190937025497860319000000000000000   10300001F00104100000000002295000000000000     
100   62911028202465350000000000037000000000037000002000000010410403191034265513604052100319542041726077   1030000900030000   563119000646190110000000477Monster Fashion Access YANGONUT      MMR11003191034265513600319000000000000000   10300001F00104100000000002220000000000000     
100   95050317088336250000000000076000000000076000002000000010410403191223455345220761770319000006836212   1030000200030000   333800010001203104000003327KBZPay                 Yangon        MMR11003191223455345220319000000000000000   10300001F05104100000000015960000000000000     
100   62911028202502480000000000017060000000017060002000000010410403190354185415284052100319333241018077   1030000900030000   541119000149190110000000083SeinGayHarParami Cente YANGON        MMR11003190354185415280319000000000000000   10300001F00104100000000001024000000000000     
100   62911028202118690000000000026500000000026500002000000010410403190728095466194052100319112581309077   1030000900030000   562119000696190110000000527Plus Nine Five Fashion YANGONUT      MMR11003190728095466190319000000000000000   10300001F00104100000000001590000000000000     
100   62911028202031710000000000028950000000028950002000000010410403191059115520984052100319117291711077   1030000900030000   541119001191190110000000942City Mart HDC C 6      YANGONUT      MMR11003191059115520980319000000000000000   10300001F00104100000000001737000000000000     
100   62911028202661370000000000205600000000205600002000000010410403190813205477354052100319890431420077   1030000900030000   541119000161190110000000084Pro (1) Global (Pazund YANGONARTAUNG MMR11003190813205477350319000000000000000   10300001F00104100000000012336000000000000     
100   95050323133124350000000000010000000000010000002000000010410403191323475347457201510319000006836466   1030000200030000   333800010001203104000003327KBZPay                 Yangon        MMR11003191323475347450319000000000000000   10300001F05104100000000002100000000000000     
100   95050313123223200000000000013800000000013800002000000010410403180455320019723160620318000335697909   1030000300030000   591200000169000000000000084CB BANK                MEDICARE STOR MMR11003180455320019720318000000000000000   10300001F00104100000000003312000000000000     
100   62911028202154640000000000021800000000021800002000000010410403180647420013184052100318207713001318   1030000500030000   531120156003000045311201560GAMONE PWINT           PTN           MMR11003180647420013180318000000000000000   10300001 00104100000000001308000000000000     
100   62911028202193670000000000048100000000048100002000000010410403180947470024594052100318207716002459   1030000500030000   503920036606000015039200366PRO-1 HOME CENTER      PTN           MMR11003180947470024590318000000000000000   10300001 00104100000000002886000000000000     
100   95050315199558640000000000031750000000031750002000000010410403180512470008725309890318207711000872   1030000500030000   531120155803000045311201558GAMONE PWINT           PTN           MMR11003180512470008720318000000000000000   10300001 00104100000000007620000000000000     
100   62911028202132040000000000026592000000026592002000000010410403180112090051424052100318207707005142   1030000500030000   598320002104000015172200021MAX ENERGY             PTN           MMR11003180112090051420318000000000000000   10300001 00104100000000000798000000000000     
100   95050314791376690000000000019600000000019600002000000010410403171110410005610969970317207617000561   1030000500030000   541120025201022205411200252ORANGE (80ST)          PTN           MMR11003171110410005610317000000000000000   10300001 00104100000000004900000000000000     
100   62911028202161240000000000031382000000031382002000000010410403191022510064924052100319000744422432   1030000200030000   541188001023000008000000298KBZ BANK               CITY MART - M MMR11003191022510064920319000000000000000   10300001 00104100000000001883000000000000     
100   62911028202291190000000000055050000000055050002000000010410403191215340184304052100319000744427181   1030000200030000   541188001030000008000000298KBZ BANK               CITY MART - M MMR11003191215340184300319000000000000000   10300001 00104100000000003303000000000000     
100   95050318057347910000000000000980000000000980002000000010410403190722575257123586100319000006835015   1020000200030000   333400010001204104000000281Myanmar Soft-Gate Tech Yangon        MMR11003190722575257120319000000000000000   10300001F05104100000000000206000000000000     
100   95030301100425380000000000013000000000013000002000000010410403190758365473654052100319633281436077   1030000900030000   541119001213190110000000949City Mart YK Season C  YANGONAUNG    MMR11003190758365473650319000000000000000   10300001F00104100000000000780000000000000     
100   95050326689257240000000000010900000000010900002000000010410403191031045512386690930319449011704077   1030000900030000   541119001272190110000000960City Mart PLST Season  YANGONMYOTHIT MMR11003191031045512380319000000000000000   10300001F00104100000000002725000000000000     
100   62911028202067520000000000025300000000025300002000000010410403190419435421284052100319771491043077   1030000900030000   573219001182190110000000938UNIQUE North Okkalapa  YANGONOKKALAP MMR11003190419435421280319000000000000000   10300001F00104100000000001518000000000000     
100   62911028202808150000000000005600000000005600002000000010410403190540405440824052100319205101240077   1030000900030000   581219000931190110000000740Shwe Palin City Mall   YANGONAW      MMR11003190540405440820319000000000000000   10300001F00104100000000000571000000000000     
100   95030301100125070000000000025000000000025000002000000010410403190806275475564052100319762361427077   1030000900030000   563119000646190110000000477Monster Fashion Access YANGONUT      MMR11003190806275475560319000000000000000   10300001F00104100000000001500000000000000     
100   95050318141561190000000000010000000000010000002000000010410403181722055205711826650319000006832767   1030000200030000   333800010001203104000003327KBZPay                 Yangon        MMR11003181722055205710319000000000000000   10300001F05104100000000002100000000000000     
100   95030306100103570000000000054600000000054600002000000010410403191020145509414052100319233501614077   1030000900030000   541119001218190110000000945City Mart TM C 3       YANGONONE     MMR11003191020145509410319000000000000000   10300001F00104100000000003276000000000000     
