100   95050326511614440000000000030400000000030400002000000010410403191231480006532499350319207812000653   1030000600030000   5499000022383157994200015691 STOP S M SATSAN      YANGON        MMR11003191231480006530319000000000000000   10300001 00104100000000012920000000000000     
100   62911028202537390000000000040000000000040000002000000010410403181235420659774052100318207712065977   1030000600030000   554100000957315799420000480DENKO N.DAGON - 3      YANGON        MMR11003181235420659770318000000000000000   10300001 00104100000000001200000000000000     
100   62911028202590580000000000050000000000050000002000000010410403181048400344604052100318207710034460   1030000600030000   554100001106315799420000564DENKO PHYUU            PHYUU         MMR11003181048400344600318000000000000000   10300001 00104100000000001500000000000000     
100   95030382736894330000000000030000000000030000002000000010410403191044430091814052100319207810009181   1030000600030000   809900000538315799420000147GRAND HANTHA HOSPITAL  YANGON        MMR11003191044430091810319000000000000000   10300001 00104100000000001800000000000000     
100   95050325141379530000000000030000000000030000002000000010410403190138430301170599650319207801030117   1030000600030000   554100001006315799420000502DENKO DAGON HARBOUR    YANGON        MMR11003190138430301170319000000000000000   10300001 00104100000000003600000000000000     
100   95050321232876860000000000074000000000074000002000000010410403190301070327102153250319207803032710   1030000600030000   554100001865315799420001235DENKO NAY PYI TAW 2    NAYPYITAW     MMR11003190301070327100319000000000000000   10300001 00104100000000008880000000000000     
100   95050324154190880000000000047800000000047800002000000010410403210557420017037346370321208012001703   1030000500030000   591220020501005105912200205MINGALAR PHARMACY      PTN           MMR11003210557420017030321000000000000000   10300001 00104100000000011472000000000000     
100   95050314791376690000000000004700000000004700002000000010410403210310540021806218260321208009002180   1030000500030000   541120025401022205411200254ORANGE 2(MDY)          PTN           MMR11003210310540021800321000000000000000   10300001 00104100000000001175000000000000     
100   95050314692738880000000000006600000000006600002000000010410403220749125254936421920322464201437080   1030000500030000   555610103468104519000003420City Mart Yankin Cente 7             MMR11003220749125254930322000000000000000   10300001 00104100000000001650000000000000     
100   62911028202464020000000000012550000000012550002000000010410403221033415277984052100322655071728080   1030000500030000   555610110570104519000009164City Mart China Town P int Cen       MMR11003221033415277980322000000000000000   10300001 00104100000000000753000000000000     
100   95050313710136610000000000002940000000002940002000000010410403221027285728034014020322000006852043   1020000200030000   333400010001204104000000281Myanmar Soft-Gate Tech Yangon        MMR11003221027285728030322000000000000000   10300001F05104100000000000617000000000000     
100   62911028202449440000000000043000000000043000002000000010410403220700125248694052100322624301307080   1030000500030000   555610122584104519000018896City Mart Hlaing Thar  ar            MMR11003220700125248690322000000000000000   10300001 00104100000000002580000000000000     
100   62911028202808230000000000003500000000003500002000000010410403220900445263724052100322659291539080   1030000500030000   555610112986104519000011143Market Place by City M rt Sule       MMR11003220900445263720322000000000000000   10300001 00104100000000000210000000000000     
100   62443101071845130000000000018394310000018394312000000010410403221021005100760113390322000006851988   1030000200030000   333300010001203104000003632Myanmar Tradenet Test  Yangon        MMR11003221021005100760322000000000000000   10300001F05104100000000010000000000000000     
100   62911028202448030000000000150000000000150000002000000010410403220616535244444052100322021561225080   1030000500030000   888810121685104519000009666Max Energy CoLtd 5                   MMR11003220616535244440322000000000000000   10300001 00104100000000004500000000000000     
100   95050314692738880000000000005600000000005600002000000010410403220759235255915074180322605281428080   1030000500030000   555610103463104519000003420City Mart Yankin Cente 2             MMR11003220759235255910322000000000000000   10300001 00104100000000001400000000000000     
100   62443100340288250000000000150000000000150000002000000010410403210925350001555957250321208015000155   1030000500030000   594420054101009605944200541NEW YORK JEWLERY SHOP  PTN           MMR11003210925350001550321000000000000000   10300001 00104100000000036000000000000000     
100   95030339867270590000000000016800000000016800002000000010410403210824310009554052100321208014000955   1030000500030000   531120155805000045311201558GAMONE PWINT           PTN           MMR11003210824310009550321000000000000000   10300001 00104100000000001008000000000000     
100   62443100300743690000000000006600000000006600002000000010410403211136410009560423970321208018000956   1030000500030000   531120155803000045311201558GAMONE PWINT           PTN           MMR11003211136410009560321000000000000000   10300001 00104100000000001584000000000000     
100   62911028202366010000000000074000000000074000002000000010410403210450110016914052100321208011001691   1030000500030000   598320101301005405983201013PT POWER (NPT)         PTN           MMR11003210450110016910321000000000000000   10300001 00104100000000002220000000000000     
100   95030308100042590000000000120000000000120000002000000010410403210248450057994052100321208009005799   1030000500030000   598320001702000015172200017MAX ENERGY             PTN           MMR11003210248450057990321000000000000000   10300001 00104100000000003600000000000000     
100   95030308100042590000000000056000000000056000002000000010410403210250550058004052100321208009005800   1030000500030000   598320001702000015172200017MAX ENERGY             PTN           MMR11003210250550058000321000000000000000   10300001 00104100000000001680000000000000     
100   95030320108927800000000000055000000000055000002000000010410403210547080001314052100321208005000131   1030000600030000   581300002341315799420001626HTUNHTUNOOLIQUOR PARA  YANGON        MMR11003210547080001310321000000000000000   10300001 00104100000000005610000000000000     
100   62443100372718280000000000075749000000075749002000000010410403211132570016935381420321208018001693   1030000500030000   581220146401013205812201464THAI 47 (HELPIN BRANCH PTN           MMR11003211132570016930321000000000000000   10300001 00104100000000032194000000000000     
100   95050328074436620000000000002940000000002940002000000010410403220518024802934302750322000006849463   1020000200030000   333400010001204104000000281Myanmar Soft-Gate Tech Yangon        MMR11003220518024802930322000000000000000   10300001F05104100000000000617000000000000     
100   95050312926040930000000000006000000000006000002000000010410403220520165016547352430322000006849485   1030000200030000   333800010001203104000003327KBZPay                 Yangon        MMR11003220520165016540322000000000000000   10300001F05104100000000001260000000000000     
100   62911028202313470000000000015200000000015200002000000010410403220355105225964052100322570241009080   1030000500030000   555610110597104519000009166City Mart 47 Branch                  MMR11003220355105225960322000000000000000   10300001 00104100000000000912000000000000     
100   62911028202463780000000000055150000000055150002000000010410403220915505265914052100322956441552080   1030000500030000   555610110576104519000009164City Mart China Town P int Cen       MMR11003220915505265910322000000000000000   10300001 00104100000000003309000000000000     
100   95050320624349010000000000020000000000020000002000000010410403220228526050000701120322229580852080   1030000900030000   554119001101190110000000213New Day Energy SOK     YANGONOKKALAP MMR11003220228526050000322000000000000000   10300001F00104100000000002400000000000000     
100   95050315743141220000000000001960000000001960002000000010410403221016074607791957900322000006851959   1020000200030000   333400010001204104000000281Myanmar Soft-Gate Tech Yangon        MMR11003221016074607790322000000000000000   10300001F05104100000000000412000000000000     
100   62911028202808150000000000001200000000001200002000000010410403220825395258944052100322982531433080   1030000500030000   555610112992104519000011143Market Place by City M rt Sule       MMR11003220825395258940322000000000000000   10300001 00104100000000000072000000000000     
100   95050312498129060000000000015680000000015680002000000010410403221324095409130245700322000006852971   1020000200030000   333400010001204104000000281Myanmar Soft-Gate Tech Yangon        MMR11003221324095409130322000000000000000   10300001F05104100000000003293000000000000     
100   95050318741700180000000000011180000000011180002000000010410403210837320029438715990321000336194466   1030000300030000   541100000443000000000000319CB BANK                ONESTOP KITCH MMR11003210837320029430321000000000000000   10300001F00104100000000002795000000000000     
100   95030308100042590000000000100000000000100000002000000010410403210958220058794052100321208016005879   1030000500030000   598320001701000015172200017MAX ENERGY             PTN           MMR11003210958220058790321000000000000000   10300001 00104100000000003000000000000000     
100   95030308100042590000000000080000000000080000002000000010410403210958560058804052100321208016005880   1030000500030000   598320001701000015172200017MAX ENERGY             PTN           MMR11003210958560058800321000000000000000   10300001 00104100000000002400000000000000     
100   95030320108927800000000000088500000000088500002000000010410403210610560007954052100321208012000795   1030000500030000   541120131301000055411201313MILLION MART YDN       PTN           MMR11003210610560007950321000000000000000   10300001 00104100000000005310000000000000     
100   62911028202907560000000000025000000000025000002000000010410403210428530097514052100321208010009751   1030000500030000   598320001404000015172200014MAX ENERGY             PTN           MMR11003210428530097510321000000000000000   10300001 00104100000000000750000000000000     
100   62911028202196800000000000037000000000037000002000000010410403211128190213204052100321208017021320   1030000500030000   598320001602000015172200016MAX ENERGY             PTN           MMR11003211128190213200321000000000000000   10300001 00104100000000001110000000000000     
100   62443100303702210000000000455000000000455000002000000010410403210738200411800730720321208007041180   1030000600030000   554100001756315799420001137DENKO NORTH DAGON 2    YANGON        MMR11003210738200411800321000000000000000   10300001 00104100000000054600000000000000     
100   62443100303702210000000000441000000000441000002000000010410403210746430411821971510321208007041182   1030000600030000   554100001756315799420001137DENKO NORTH DAGON 2    YANGON        MMR11003210746430411820321000000000000000   10300001 00104100000000052920000000000000     
100   95050319938772870000000000000980000000000980002000000010410403221513344334842578960322000006853428   1020000200030000   333400010001204104000000281Myanmar Soft-Gate Tech Yangon        MMR11003221513344334840322000000000000000   10300001F05104100000000000206000000000000     
100   62911028202520380000000000030000000000030000002000000010410403220504015233694052100322588311155080   1030000300030000   888810125940104519000021285Shwe Taung Energy CoLt               MMR11003220504015233690322000000000000000   10300001 00104100000000000900000000000000     
100   62911028202225850000000000004700000000004700002000000010410403220411465228224052100322840431038080   1030000500030000   555610112532104519000010487Ocean Super Center St  ohn           MMR11003220411465228220322000000000000000   10300001 00104100000000000282000000000000     
100   62443100379321630000000000014500000000014500002000000010410403220817585258121318500322872471411080   1030000500030000   555610112532104519000010487Ocean Super Center St  ohn           MMR11003220817585258120322000000000000000   10300001 00104100000000003625000000000000     
100   62911028202393160000000000188800000000188800002000000010410403220937146140274052100322235071614080   1030000900030000   599919001067190110000000251Pro (1) Global (MawlaM MONLAMYAING   MMR11003220937146140270322000000000000000   10300001F00104100000000011328000000000000     
100   62443100303702210000000000040000000000040000002000000010410403210750460411840574320321208007041184   1030000600030000   554100001756315799420001137DENKO NORTH DAGON 2    YANGON        MMR11003210750460411840321000000000000000   10300001 00104100000000004800000000000000     
100   62911028202485720000000000015000000000015000002000000010410403210903150248374052100321208015024837   1030000500030000   598320001201000015172200012MAX ENERGY             PTN           MMR11003210903150248370321000000000000000   10300001 00104100000000000450000000000000     
100   62443100371022130000000000018000000000018000002000000010410403221054426160555787260322606241742080   1030000900030000   541119000127190110000000082Sein Gay Har Super Cen YANGON        MMR11003221054426160550322000000000000000   10300001F00104100000000004500000000000000     
100   95050324411430900000000000035000000000035000002000000010410403210554300158343871210321208012015834   1030000500030000   598320001402000015172200014MAX ENERGY             PTN           MMR11003210554300158340321000000000000000   10300001 00104100000000004200000000000000     
100   62911028202099050000000000030000000000030000002000000010410403210428000227304052100321208010022730   1030000500030000   598320001901000015172200019MAX ENERGY             PTN           MMR11003210428000227300321000000000000000   10300001 00104100000000000900000000000000     
100   62911028202668140000000000069000000000069000002000000010410403211127550101044052100321208011010104   1030000600030000   554100002323315799420000474DENKO N.DAGON - 1      YANGON        MMR11003211127550101040321000000000000000   10300001 00104100000000002070000000000000     
100   62911028202296630000000000050000000000050000002000000010410403210727480212854052100321208013021285   1030000500030000   598320001602000015172200016MAX ENERGY             PTN           MMR11003210727480212850321000000000000000   10300001 00104100000000001500000000000000     
100   62911028202126850000000000063000000000063000002000000010410403210649420247984052100321208013024798   1030000500030000   598320001201000015172200012MAX ENERGY             PTN           MMR11003210649420247980321000000000000000   10300001 00104100000000001890000000000000     
100   62911028202446700000000000020000000000020000002000000010410403210633000227694052100321208013022769   1030000500030000   598320001901000015172200019MAX ENERGY             PTN           MMR11003210633000227690321000000000000000   10300001 00104100000000000600000000000000     
100   95050322426452690000000000063000000000063000002000000010410403210356520096155005040321208003009615   1030000600030000   554100001217315799420000669DENKO PHAYAR GYI       BAGO          MMR11003210356520096150321000000000000000   10300001 00104100000000007560000000000000     
100   62911028202472440000000000040000000000040000002000000010410403210821390158654052100321208014015865   1030000500030000   598320001402000015172200014MAX ENERGY             PTN           MMR11003210821390158650321000000000000000   10300001 00104100000000001200000000000000     
100   62911028202204070000000000050000000000050000002000000010410403190326280028444052100319207803002844   1030000600030000   554100002085315799420000471DENKO BAHAN            YANGON        MMR11003190326280028440319000000000000000   10300001 00104100000000001500000000000000     
100   95050314635839930000000000011350000000011350002000000010410403221004466147303305680322691341646080   1030000900030000   541119001462190110000000077Sein Gay Har Chinatown YANGON        MMR11003221004466147300322000000000000000   10300001F00104100000000002838000000000000     
100   95030301100155910000000000013650000000013650002000000010410403220822156121924052100322101521415080   1030000900030000   541119001246190110000000955City Mart JS C 5       YANGONUT      MMR11003220822156121920322000000000000000   10300001F00104100000000000819000000000000     
100   95050314020354280000000000011600000000011600002000000010410403220919326135964299260322982491532080   1030000900030000   541119000116190110000000078Sein Gay Har Kan Thar  YANGONOKKALAP MMR11003220919326135960322000000000000000   10300001F00104100000000002900000000000000     
100   62911028202590580000000000057000000000057000002000000010410403200504380139214052100320207905013921   1030000600030000   554100001011315799420000505DENKO HTAN TA PIN      YANGON        MMR11003200504380139210320000000000000000   10300001 00104100000000001710000000000000     
100   95050315199558640000000000011600000000011600002000000010410403220515166080345955230322705451116080   1030000900030000   541119001349190110000000977Ocean PZD C 3          YANGONAUNG    MMR11003220515166080340322000000000000000   10300001F00104100000000002900000000000000     
100   62911028202003590000000000023400000000023400002000000010410403221122166167284052100322069521716080   1030000900030000   541119000149190110000000083SeinGayHarParami Cente YANGON        MMR11003221122166167280322000000000000000   10300001F00104100000000001404000000000000     
100   62911028202397530000000000021000000000021000002000000010410403180437310344184052100318207704034418   1030000600030000   554100001106315799420000564DENKO PHYUU            PHYUU         MMR11003180437310344180318000000000000000   10300001 00104100000000000630000000000000     
100   95050322921717110000000000020000000000020000002000000010410403210127020212257132450321208007021225   1030000500030000   598320001601000015172200016MAX ENERGY             PTN           MMR11003210127020212250321000000000000000   10300001 00104100000000002400000000000000     
100   95050320531117320000000000408000000000408000002000000010410403210519550344455304060321208005034445   1030000600030000   554100001009315799420000504DENKO SOUTH DAGON      YANGON        MMR11003210519550344450321000000000000000   10300001 00104100000000048960000000000000     
100   95050314996291580000000000001960000000001960002000000010410403221442041204844146340322000006853314   1020000200030000   333400010001204104000000281Myanmar Soft-Gate Tech Yangon        MMR11003221442041204840322000000000000000   10300001F05104100000000000412000000000000     
100   95050310616516480000000000002940000000002940002000000010410403220525335533289331510322000006849530   1020000200030000   333400010001204104000000281Myanmar Soft-Gate Tech Yangon        MMR11003220525335533280322000000000000000   10300001F05104100000000000617000000000000     
100   62911028202026450000000000035450000000035450002000000010410403221214120032714052100322000744559735   1030000200030000   541188001463000008000000391KBZ BANK               OCEAN SUPER C MMR11003221214120032710322000000000000000   10300001 00104100000000002127000000000000     
100   62443100372718280000000000028200000000028200002000000010410403221246400157022672130322000744561834   1030000200030000   541188001082000008000000294KBZ BANK               CITY MART - J MMR11003221246400157020322000000000000000   10300001 00104100000000007050000000000000     
100   62443100379116470000000000007613000000007613002000000010410403221650320068178482730322000744575186   1030000200030000   541188001023000008000000298KBZ BANK               CITY MART - M MMR11003221650320068170322000000000000000   10300001 00104100000000001904000000000000     
100   62911028202147720000000000012900000000012900002000000010410403221423430002294052100322000744567869   1030000200030000   541188001311000008000000325KBZ BANK               CITY MART - A MMR11003221423430002290322000000000000000   10300001 00104100000000000774000000000000     
100   62443100379321630000000000055000000000055000002000000010410403181022370344551365520318207710034455   1030000600030000   554100001106315799420000564DENKO PHYUU            PHYUU         MMR11003181022370344550318000000000000000   10300001 00104100000000006600000000000000     
100   95050318065288040000000000020300000000020300002000000010410403220236516051165743670322276060951080   1030000900030000   591219000795190110000000627Shwe Ohh Pharmacy ST-3 YANGONINDAING MMR11003220236516051160322000000000000000   10300001F00104100000000004872000000000000     
100   95030301100126550000000000030000000000030000002000000010410403191223040081494052100319207812008149   1030000600030000   554100002324315799420000481DENKO NORTH OKKALAPA   YANGON        MMR11003191223040081490319000000000000000   10300001 00104100000000000900000000000000     
100   95050311048637960000000000005950000000005950002000000010410403221020476151563588560322982501647080   1030000900030000   541119000123190110000000080Sein Gay Har BAK       YANGON        MMR11003221020476151560322000000000000000   10300001F00104100000000001488000000000000     
100   62911028202359000000000000008450000000008450002000000010410403220746166112934052100322547161416080   1030000900030000   541119000375190110000000178Pro (1) Global (East D YANGONMYOTHIT MMR11003220746166112930322000000000000000   10300001F00104100000000000507000000000000     
100   95050318601641810000000000002664000000002664002000000010410403221208036175970500990322627381803080   1030000900030000   541119001223190110000000945City Mart TM C 8       YANGONONE     MMR11003221208036175970322000000000000000   10300001F00104100000000000666000000000000     
100   95050317834964620000000000011187000000011187002000000010410403221144376171944692570322377141837080   1030000900030000   541119001357190110000000977Ocean PZD C 11         YANGONAUNG    MMR11003221144376171940322000000000000000   10300001F00104100000000002797000000000000     
100   95030301100121270000000000015000000000015000002000000010410403200454230410124052100320207904041012   1030000600030000   554100001756315799420001137DENKO NORTH DAGON 2    YANGON        MMR11003200454230410120320000000000000000   10300001 00104100000000000450000000000000     
100   62911028202231380000000000007000000000007000002000000010410403221437060086094052100322000744568660   1030000200030000   541188001088000008000000294KBZ BANK               CITY MART - J MMR11003221437060086090322000000000000000   10300001 00104100000000000420000000000000     
100   62911028202147720000000000052136000000052136002000000010410403221418470128174052100322000744567572   1030000200030000   541188001306000008000000325KBZ BANK               CITY MART - A MMR11003221418470128170322000000000000000   10300001 00104100000000003128000000000000     
100   62443101071845130000000000018394310000018394312000000010410403221031030103647914650322000006852070   1030000200030000   333300010001203104000003632Myanmar Tradenet Test  Yangon        MMR11003221031030103640322000000000000000   10300001F05104100000000010000000000000000     
100   62911028202154800000000000010600000000010600002000000010410403221444300066234052100322000744569072   1030000200030000   541188001071000008000000314KBZ BANK               MARKETPLACE - MMR11003221444300066230322000000000000000   10300001 00104100000000000636000000000000     
100   62911028202161240000000000016692000000016692002000000010410403221007300067724052100322000744552462   1030000200030000   541188001023000008000000298KBZ BANK               CITY MART - M MMR11003221007300067720322000000000000000   10300001 00104100000000001002000000000000     
100   95050324247403260000000000008200000000008200002000000010410403221554430281357845740322000744572634   1030000200030000   541188001041000008000000010KBZ BANK               MARKETPLACE - MMR11003221554430281350322000000000000000   10300001 00104100000000002050000000000000     
100   95050315743141220000000000001960000000001960002000000010410403220644171417936572770322000006850203   1020000200030000   333400010001204104000000281Myanmar Soft-Gate Tech Yangon        MMR11003220644171417930322000000000000000   10300001F05104100000000000412000000000000     
100   95050318131043910000000000000980000000000980002000000010410403220454572457019806430322000006849246   1020000200030000   333400010001204104000000281Myanmar Soft-Gate Tech Yangon        MMR11003220454572457010322000000000000000   10300001F05104100000000000206000000000000     
100   95030301100316300000000000250000000000250000002000000010410403221110004000774052100322000006852268   1030000200030000   333800010001203104000003327KBZPay                 Yangon        MMR11003221110004000770322000000000000000   10300001F05104100000000052500000000000000     
100   95030327835334700000000000007250000000007250002000000010410403221822040033604052100322000744578907   1030000200030000   541188001243000008000000323KBZ BANK               CITY MART - I MMR11003221822040033600322000000000000000   10300001 00104100000000000435000000000000     
100   95050314307746340000000000000980000000000980002000000010410403221620255025053891060322000006853617   1020000200030000   333400010001204104000000281Myanmar Soft-Gate Tech Yangon        MMR11003221620255025050322000000000000000   10300001F05104100000000000206000000000000     
100   62911028202446700000000000010000000000010000002000000010410403220531420142954052100322000006849599   1030000200030000   333800010001203104000003327KBZPay                 Yangon        MMR11003220531420142950322000000000000000   10300001F05104100000000002100000000000000     
100   95050316785465380000000000000980000000000980002000000010410403221103093309809687890322000006852227   1020000200030000   333400010001204104000000281Myanmar Soft-Gate Tech Yangon        MMR11003221103093309800322000000000000000   10300001F05104100000000000206000000000000     
100   95030301100316300000000000300000000000300000002000000010410403221108023802974052100322000006852255   1030000200030000   333800010001203104000003327KBZPay                 Yangon        MMR11003221108023802970322000000000000000   10300001F05104100000000063000000000000000     
100   62911028202520120000000000040000000000040000002000000010410403220218435217964052100322400460848080   1030000300030000   888810125459104519000021286Shwe Taung Energy CoLt               MMR11003220218435217960322000000000000000   10300001 00104100000000001200000000000000     
100   95050310902464360000000000020000000000020000002000000010410403221315384538271898190322000006852920   1030000200030000   3338000100012031040000040022C2P (Myanmar) Co. Ltd Yangon        MMR11003221315384538270322000000000000000   10300001F05104100000000004200000000000000     
100   95050313123223200000000000000980000000000980002000000010410403220053052305935331980322000006847416   1020000200030000   333400010001204104000000281Myanmar Soft-Gate Tech Yangon        MMR11003220053052305930322000000000000000   10300001F05104100000000000206000000000000     
100   62911028202421040000000000055000000000055000002000000010410403221210114277404052100322208119427740   1040001600030000   598320000850000000010000606Terminal Petrol Statio Yangon        MMR11003221210114277400322000000000000000   10300001F00104100000000001650000000000000     
100   62443100350052510000000000003300000000003300002000000010410403220343351335428999190322000006848507   1030000200030000   333300010001203104000003632Myanmar Tradenet Test  Yangon        MMR11003220343351335420322000000000000000   10300001F05104100000000010000000000000000     
100   95050316949180000000000000002940000000002940002000000010410403220257182718833544950322000006848024   1020000200030000   333400010001204104000000281Myanmar Soft-Gate Tech Yangon        MMR11003220257182718830322000000000000000   10300001F05104100000000000617000000000000     
100   95030314863516850000000000018000000000018000002000000010410403221059152915754052100322000006852206   1030000200030000   333800010001203104000003327KBZPay                 Yangon        MMR11003221059152915750322000000000000000   10300001F05104100000000003780000000000000     
100   95050310427855490000000000001960000000001960002000000010410403220301363136587020120322000006848050   1020000200030000   333400010001204104000000281Myanmar Soft-Gate Tech Yangon        MMR11003220301363136580322000000000000000   10300001F05104100000000000412000000000000     
100   62911028202460550000000000152150000000152150002000000010410403220420413998194052100322208111399819   1040001600030000   591220000276000000010000264Shwe Ohh Pharmacy (YGH Yangon        MMR11003220420413998190322000000000000000   10300001F00104100000000009129000000000000     
100   62443100397667340000000000029400000000029400002000000010410403220734040404778195160322000006850580   1020000200030000   333400010001204104000000281Myanmar Soft-Gate Tech Yangon        MMR11003220734040404770322000000000000000   10300001F05104100000000006174000000000000     
100   95050318048516790000000000003000000000003000002000000010410403221229555955035118060322000006852662   1030000200030000   3334000100012031040000040102C2P (Myanmar) Co. Ltd Yangon        MMR11003221229555955030322000000000000000   10300001F05104100000000000630000000000000     
100   95050319528093960000000000001960000000001960002000000010410403221227525752460160600322000006852652   1020000200030000   333400010001204104000000281Myanmar Soft-Gate Tech Yangon        MMR11003221227525752460322000000000000000   10300001F05104100000000000412000000000000     
100   95050316067768680000000000000980000000000980002000000010410403221300063006988508120322000006852834   1020000200030000   333400010001204104000000281Myanmar Soft-Gate Tech Yangon        MMR11003221300063006980322000000000000000   10300001F05104100000000000206000000000000     
100   62911028202498440000000000006800000000006800002000000010410403221151426173074052100322436211842080   1030000900030000   541119001083190110000000872Sein Gay Har Hledan    YANGONUT      MMR11003221151426173070322000000000000000   10300001F00104100000000000408000000000000     
100   95050310299956570000000000014349000000014349002000000010410403220646056100166232380322824161305080   1030000900030000   541119001355190110000000977Ocean PZD C9           YANGONAUNG    MMR11003220646056100160322000000000000000   10300001F00104100000000003588000000000000     
100   62911028202393160000000000030000000000030000002000000010410403211136370079944052100321208011007994   1030000600030000   554100001218315799420000670DENKO MAWLAMYAING      MON STATE.    MMR11003211136370079940321000000000000000   10300001 00104100000000000900000000000000     
100   95050316818236190000000000000980000000000980002000000010410403221226445644531813090322000006852641   1020000200030000   333400010001204104000000281Myanmar Soft-Gate Tech Yangon        MMR11003221226445644530322000000000000000   10300001F05104100000000000206000000000000     
100   62911028202078000000000000020000000000020000002000000010410403220446511651524052100322000006849137   1030000200030000   333800010001203104000003327KBZPay                 Yangon        MMR11003220446511651520322000000000000000   10300001F05104100000000004200000000000000     
100   62443101071845130000000000018394310000018394312000000010410403220850392039750253650322000006851280   1030000200030000   333300010001203104000003632Myanmar Tradenet Test  Yangon        MMR11003220850392039750322000000000000000   10300001F05104100000000010000000000000000     
100   62911028202823160000000000040150000000040150002000000010410403220907443744524052100322000006851429   1030000200030000   333800010001203104000003327KBZPay                 Yangon        MMR11003220907443744520322000000000000000   10300001F05104100000000008432000000000000     
100   95050315150726490000000000000980000000000980002000000010410403221210544054965458440322000006852526   1020000200030000   333400010001204104000000281Myanmar Soft-Gate Tech Yangon        MMR11003221210544054960322000000000000000   10300001F05104100000000000206000000000000     
100   62911028202610540000000000020000000000020000002000000010410403220801444107324052100322208115410732   1040001600030000   598320000658000000010000527Shwe Taung Energy (YGN Yangon        MMR11003220801444107320322000000000000000   10300001F00104100000000000600000000000000     
100   62443100379184770000000000021530000000021530002000000010410403220950224160102951490322208116416010   1040001600030000   541120000559000000010000465Ocean Shwe Gone Daing  Yangon        MMR11003220950224160100322000000000000000   10300001F00104100000000005383000000000000     
100   62443101071845130000000000018394310000018394312000000010410403220842261226198977180322000006851187   1030000200030000   333300010001203104000003632Myanmar Tradenet Test  Yangon        MMR11003220842261226190322000000000000000   10300001F05104100000000010000000000000000     
100   95050317518971470000000000015000000000015000002000000010410403221355472547262493860322000006853122   1030000200030000   3338000100012031040000040022C2P (Myanmar) Co. Ltd Yangon        MMR11003221355472547260322000000000000000   10300001F05104100000000003150000000000000     
100   62911028202077430000000000000980000000000980002000000010410403220212464246204052100322000006847724   1020000200030000   333400010001204104000000281Myanmar Soft-Gate Tech Yangon        MMR11003220212464246200322000000000000000   10300001F05104100000000000206000000000000     
100   95050317376014640000000000000980000000000980002000000010410403221334140414759103800322000006853020   1020000200030000   333400010001204104000000281Myanmar Soft-Gate Tech Yangon        MMR11003221334140414750322000000000000000   10300001F05104100000000000206000000000000     
100   95050312106296360000000000007600000000007600002000000010410403220349151915416375000322000006848543   1030000200030000   333800010001203104000003327KBZPay                 Yangon        MMR11003220349151915410322000000000000000   10300001F05104100000000001596000000000000     
100   95050314307746340000000000000980000000000980002000000010410403220849161916865927470322000006851260   1020000200030000   333400010001204104000000281Myanmar Soft-Gate Tech Yangon        MMR11003220849161916860322000000000000000   10300001F05104100000000000206000000000000     
100   62443101071845130000000000018394310000018394312000000010410403220901443144759331370322000006851374   1030000200030000   333300010001203104000003632Myanmar Tradenet Test  Yangon        MMR11003220901443144750322000000000000000   10300001F05104100000000010000000000000000     
100   95050317338786370000000000003000000000003000002000000010410403221210344034132153480322000006852538   1030000200030000   3334000100012031040000040102C2P (Myanmar) Co. Ltd Yangon        MMR11003221210344034130322000000000000000   10300001F05104100000000000630000000000000     
100   95050312947607030000000000003000000000003000002000000010410403221041251125835361800322000006852112   1030000200030000   333800010001203104000003327KBZPay                 Yangon        MMR11003221041251125830322000000000000000   10300001F05104100000000000630000000000000     
100   95050319996628650000000000000980000000000980002000000010410403221104253425674862770322000006852237   1020000200030000   333400010001204104000000281Myanmar Soft-Gate Tech Yangon        MMR11003221104253425670322000000000000000   10300001F05104100000000000206000000000000     
100   62911028202448030000000000023850000000023850002000000010410403221514130261114052100322000744570551   1030000200030000   541188001004000008000000008KBZ BANK               MARKETPLACE - MMR11003221514130261110322000000000000000   10300001 00104100000000001431000000000000     
100   95050311736839760000000000000980000000000980002000000010410403221057032703832312090322000006852190   1020000200030000   333400010001204104000000281Myanmar Soft-Gate Tech Yangon        MMR11003221057032703830322000000000000000   10300001F05104100000000000206000000000000     
100   95050316355723530000000000000980000000000980002000000010410403220410244024640026070322000006848772   1020000200030000   333400010001204104000000281Myanmar Soft-Gate Tech Yangon        MMR11003220410244024640322000000000000000   10300001F05104100000000000206000000000000     
100   62443100306698200000000000138600000000138600002000000010410403220424093999519479840322208111399951   1040001600030000   591220000278000000010000266Shwe Ohh Pharmacy (Bah Yangon        MMR11003220424093999510322000000000000000   10300001F00104100000000033264000000000000     
100   62911028202139640000000000024623000000024623002000000010410403221841530277854052100322000744579586   1030000200030000   541188001039000008000000010KBZ BANK               MARKETPLACE - MMR11003221841530277850322000000000000000   10300001 00104100000000001477000000000000     
100   62443101071845130000000000018394310000018394312000000010410403220857332733062735180322000006851330   1030000200030000   333300010001203104000003632Myanmar Tradenet Test  Yangon        MMR11003220857332733060322000000000000000   10300001F05104100000000010000000000000000     
100   95050312498129060000000000001960000000001960002000000010410403220257332733853630050322000006848026   1020000200030000   333400010001204104000000281Myanmar Soft-Gate Tech Yangon        MMR11003220257332733850322000000000000000   10300001F05104100000000000412000000000000     
100   95050327192897240000000000009350000000009350002000000010410403221201524269715373350322208119426971   1040001600030000   591220000289000000010000277Shwe Ohh Pharmacy (Par Yangon        MMR11003221201524269710322000000000000000   10300001F00104100000000002244000000000000     
100   95050318267399100000000000000980000000000980002000000010410403220748531853877201570322000006850738   1020000200030000   333400010001204104000000281Myanmar Soft-Gate Tech Yangon        MMR11003220748531853870322000000000000000   10300001F05104100000000000206000000000000     
100   95050317248519320000000000003000000000003000002000000010410403220333430343748573710322000006848414   1030000200030000   3338000100012031040000040022C2P (Myanmar) Co. Ltd Yangon        MMR11003220333430343740322000000000000000   10300001F05104100000000000630000000000000     
100   95030314863516850000000000007000000000007000002000000010410403220958202820264052100322000006851822   1030000200030000   333800010001203104000003327KBZPay                 Yangon        MMR11003220958202820260322000000000000000   10300001F05104100000000001470000000000000     
100   62911028202166940000000000108790000000108790002000000010410403221720490166374052100322000744576405   1030000200030000   541188001124000008000000296KBZ BANK               CITY MART - J MMR11003221720490166370322000000000000000   10300001 00104100000000006527000000000000     
100   95050311959900780000000000000980000000000980002000000010410403220332330233160141100322000006848399   1020000200030000   333400010001204104000000281Myanmar Soft-Gate Tech Yangon        MMR11003220332330233160322000000000000000   10300001F05104100000000000206000000000000     
100   95050316997303010000000000001960000000001960002000000010410403221046351635678411420322000006852144   1020000200030000   333400010001204104000000281Myanmar Soft-Gate Tech Yangon        MMR11003221046351635670322000000000000000   10300001F05104100000000000412000000000000     
100   95050316601084530000000000002940000000002940002000000010410403220347531753306289900322000006848558   1020000200030000   333400010001204104000000281Myanmar Soft-Gate Tech Yangon        MMR11003220347531753300322000000000000000   10300001F05104100000000000617000000000000     
100   95050318267399100000000000000980000000000980002000000010410403220745431543105499640322000006850713   1020000200030000   333400010001204104000000281Myanmar Soft-Gate Tech Yangon        MMR11003220745431543100322000000000000000   10300001F05104100000000000206000000000000     
100   62443101071845130000000000018394310000018394312000000010410403220845441544396353020322000006851225   1030000200030000   333300010001203104000003632Myanmar Tradenet Test  Yangon        MMR11003220845441544390322000000000000000   10300001F05104100000000010000000000000000     
100   95050318712627500000000000019600000000019600002000000010410403221339580958027451310322000006853045   1020000200030000   333400010001204104000000281Myanmar Soft-Gate Tech Yangon        MMR11003221339580958020322000000000000000   10300001F05104100000000004116000000000000     
100   95050314570621780000000000000980000000000980002000000010410403221244071407725203150322000006852747   1020000200030000   333400010001204104000000281Myanmar Soft-Gate Tech Yangon        MMR11003221244071407720322000000000000000   10300001F05104100000000000206000000000000     
100   95050323233042810000000000000980000000000980002000000010410403221107273727923210280322000006852251   1020000200030000   333400010001204104000000281Myanmar Soft-Gate Tech Yangon        MMR11003221107273727920322000000000000000   10300001F05104100000000000206000000000000     
100   95050314996291580000000000001960000000001960002000000010410403221436350635980841370322000006853296   1020000200030000   333400010001204104000000281Myanmar Soft-Gate Tech Yangon        MMR11003221436350635980322000000000000000   10300001F05104100000000000412000000000000     
100   95050319928585020000000000000980000000000980002000000010410403220249301930193119480322000006847953   1020000200030000   333400010001204104000000281Myanmar Soft-Gate Tech Yangon        MMR11003220249301930190322000000000000000   10300001F05104100000000000206000000000000     
100   95050312298324450000000000002940000000002940002000000010410403220444381438544678790322000006849116   1020000200030000   333400010001204104000000281Myanmar Soft-Gate Tech Yangon        MMR11003220444381438540322000000000000000   10300001F05104100000000000617000000000000     
100   95050314996291580000000000002940000000002940002000000010410403221439200920215798830322000006853308   1020000200030000   333400010001204104000000281Myanmar Soft-Gate Tech Yangon        MMR11003221439200920210322000000000000000   10300001F05104100000000000617000000000000     
100   62911028202075030000000000027196000000027196002000000010410403210535140002424052100321208012000242   1030000500030000   551120123201000205511201232MINGALAR MOTOR CO. LTD PTN           MMR11003210535140002420321000000000000000   10300001 00104100000000001632000000000000     
100   62911028202471600000000000043100000000043100002000000010410403220925305267304052100322126551510080   1030000500030000   555610110574104519000009164City Mart China Town P int Cen       MMR11003220925305267300322000000000000000   10300001 00104100000000002586000000000000     
100   62911028202045260000000000030000000000030000002000000010410403220827525261394052100322328101540080   1030000500030000   888810121685104519000009666Max Energy CoLtd 5                   MMR11003220827525261390322000000000000000   10300001 00104100000000000900000000000000     
100   62911028202212490000000000010100000000010100002000000010410403220426336071174052100322248561033080   1030000900030000   581219000715190110000000546Akkhaya Tea House(Dago YANGON        MMR11003220426336071170322000000000000000   10300001F00104100000000001030000000000000     
100   62911028202091860000000000003920000000003920002000000010410403220740191019524052100322000006850660   1020000200030000   333400010001204104000000281Myanmar Soft-Gate Tech Yangon        MMR11003220740191019520322000000000000000   10300001F05104100000000000823000000000000     
100   95050329192229210000000001000000000001000000002000000010410403220151435216653764590322258220854080   1030000300030000   555510119008104519000016170Z N T Mobile                         MMR11003220151435216650322000000000000000   10300001 00104100000000240000000000000000     
100   95050321232876860000000000073000000000073000002000000010410403200300060327431258560320207903032743   1030000600030000   554100001865315799420001235DENKO NAY PYI TAW 2    NAYPYITAW     MMR11003200300060327430320000000000000000   10300001 00104100000000008760000000000000     
100   95050314557307430000000000001960000000001960002000000010410403221355382538650756280322000006853115   1020000200030000   333400010001204104000000281Myanmar Soft-Gate Tech Yangon        MMR11003221355382538650322000000000000000   10300001F05104100000000000412000000000000     
100   95050315099113150000000000009800000000009800002000000010410403220452282228793451780322000006849222   1020000200030000   333400010001204104000000281Myanmar Soft-Gate Tech Yangon        MMR11003220452282228790322000000000000000   10300001F05104100000000002058000000000000     
100   62443101071845130000000000018394310000018394312000000010410403220832560256560324960322000006851127   1030000200030000   333300010001203104000003632Myanmar Tradenet Test  Yangon        MMR11003220832560256560322000000000000000   10300001F05104100000000010000000000000000     
100   95050315330275830000000000001960000000001960002000000010410403221350112011862408770322000006853086   1020000200030000   333400010001204104000000281Myanmar Soft-Gate Tech Yangon        MMR11003221350112011860322000000000000000   10300001F05104100000000000412000000000000     
100   95050312498129060000000000000980000000000980002000000010410403221305013501616855640322000006852869   1020000200030000   333400010001204104000000281Myanmar Soft-Gate Tech Yangon        MMR11003221305013501610322000000000000000   10300001F05104100000000000206000000000000     
100   62443100379321630000000000165000000000165000002000000010410403220355553988805147990322208110398880   1040001600030000   598320000658000000010000527Shwe Taung Energy (YGN Yangon        MMR11003220355553988800322000000000000000   10300001F00104100000000019800000000000000     
100   62443100379321630000000000020000000000020000002000000010410403220356273988970190540322208110398897   1040001600030000   598320000658000000010000527Shwe Taung Energy (YGN Yangon        MMR11003220356273988970322000000000000000   10300001F00104100000000002400000000000000     
100   62443100317863910000000000310800000000310800002000000010410403220701104081713012510322208114408171   1040001600030000   573220000396000000010000372Snoopy Mobile (North D Yangon        MMR11003220701104081710322000000000000000   10300001F00104100000000074592000000000000     
100   95050315199558640000000000031000000000031000002000000010410403220447346074904508590322426171134080   1030000900030000   541119001363190110000000977Ocean PZD C17          YANGONAUNG    MMR11003220447346074900322000000000000000   10300001F00104100000000007750000000000000     
100   62911028202204490000000000097000000000097000002000000010410403190612530730164052100319207806073016   1030000600030000   554100000946315799420000471DENKO BAHAN            YANGON        MMR11003190612530730160319000000000000000   10300001 00104100000000002910000000000000     
100   95050318131043910000000000000980000000000980002000000010410403221518514851450926470322000006853436   1020000200030000   333400010001204104000000281Myanmar Soft-Gate Tech Yangon        MMR11003221518514851450322000000000000000   10300001F05104100000000000206000000000000     
100   62911028202531350000000000088000000000088000002000000010410403210424460006674052100321208010000667   1030000500030000   598320001301000015172200013MAX ENERGY             PTN           MMR11003210424460006670321000000000000000   10300001 00104100000000002640000000000000     
100   62911028202610960000000000120120000000120120002000000010410403201120540029974052100320207911002997   1030000600030000   581200002287315799420000141FUJI COFFEE HOUSE      YANGON        MMR11003201120540029970320000000000000000   10300001 00104100000000012252000000000000     
100   62443100376865460000000000035000000000035000002000000010410403200508050007356095260320207905000735   1030000600030000   729800001938315799420001308CLEAN & DETOX SPASHAN  SANCHAUNG     MMR11003200508050007350320000000000000000   10300001 00104100000000008400000000000000     
100   62443100393841160000000000060000000000060000002000000010410403201310150051744203520320207913005174   1030000600030000   554100001226315799420000679DENKO MAGWAY - 2       MAGWAY        MMR11003201310150051740320000000000000000   10300001 00104100000000007200000000000000     
100   95030305700676370000000000050000000000050000002000000010410403200400560041024052100320207904004102   1030000600030000   554100001232315799420000686DENKO TAUNG LAY LONE   TAUNGGYI      MMR11003200400560041020320000000000000000   10300001 00104100000000001500000000000000     
100   62911028202405530000000000040000000000040000002000000010410403221158064266114052100322208118426611   1040001600030000   598320000854000000010000608Terminal Petrol Statio Yangon        MMR11003221158064266110322000000000000000   10300001F00104100000000001200000000000000     
100   95050310864314220000000000050000000000050000002000000010410403220933200320419122130322000006851635   1030000200030000   333800010001203104000003327KBZPay                 Yangon        MMR11003220933200320410322000000000000000   10300001F05104100000000010500000000000000     
100   62443101071845130000000000018394310000018394312000000010410403221038020802201389810322000006852102   1030000200030000   333300010001203104000003632Myanmar Tradenet Test  Yangon        MMR11003221038020802200322000000000000000   10300001F05104100000000010000000000000000     
100   95050317376014640000000000001960000000001960002000000010410403221257502750943550670322000006852823   1020000200030000   333400010001204104000000281Myanmar Soft-Gate Tech Yangon        MMR11003221257502750940322000000000000000   10300001F05104100000000000412000000000000     
100   62443101071845130000000000018394310000018394312000000010410403220828485848763374620322000006851087   1030000200030000   333300010001203104000003632Myanmar Tradenet Test  Yangon        MMR11003220828485848760322000000000000000   10300001F05104100000000010000000000000000     
100   95050315743141220000000000001960000000001960002000000010410403221128525852525032960322000006852359   1020000200030000   333400010001204104000000281Myanmar Soft-Gate Tech Yangon        MMR11003221128525852520322000000000000000   10300001F05104100000000000412000000000000     
100   95050316818236190000000000000980000000000980002000000010410403221223405340620075510322000006852616   1020000200030000   333400010001204104000000281Myanmar Soft-Gate Tech Yangon        MMR11003221223405340620322000000000000000   10300001F05104100000000000206000000000000     
100   95050328074436620000000000002940000000002940002000000010410403220514294429595274460322000006849429   1020000200030000   333400010001204104000000281Myanmar Soft-Gate Tech Yangon        MMR11003220514294429590322000000000000000   10300001F05104100000000000617000000000000     
100   62443100383487320000000000100800000000100800002000000010410403200839530005715960720320207908000571   1030000600030000   809900002340315799420001625CLINIQUE DE SKIN TGG   YANGON        MMR11003200839530005710320000000000000000   10300001 00104100000000024192000000000000     
100   62911028202260160000000000032859000000032859002000000010410403200615530029834052100320207906002983   1030000600030000   581200002287315799420000141FUJI COFFEE HOUSE      YANGON        MMR11003200615530029830320000000000000000   10300001 00104100000000003352000000000000     
100   95050312539675540000000000002500000000002500002000000010410403201300390051239246070320207913005123   1030000600030000   554100002139315799420001488DENKO MDY-12           MANDALAY      MMR11003201300390051230320000000000000000   10300001 00104100000000000300000000000000     
100   95030305700676370000000000080000000000080000002000000010410403200910470048964052100320207909004896   1030000600030000   554100002141315799420001490DENKO MEIKHTILA 3      MANDALAY      MMR11003200910470048960320000000000000000   10300001 00104100000000002400000000000000     
100   95030318100004530000000000020000000000020000002000000010410403200348130079434052100320207903007943   1030000600030000   554100001218315799420000670DENKO MAWLAMYAING      MON STATE.    MMR11003200348130079430320000000000000000   10300001 00104100000000000600000000000000     
100   62911028202221220000000000007000000000007000002000000010410403200130200731894052100320207901073189   1030000600030000   554100000946315799420000471DENKO BAHAN            YANGON        MMR11003200130200731890320000000000000000   10300001 00104100000000000210000000000000     
100   62911028202686950000000000050000000000050000002000000010410403200137030731914052100320207901073191   1030000600030000   554100000946315799420000471DENKO BAHAN            YANGON        MMR11003200137030731910320000000000000000   10300001 00104100000000001500000000000000     
100   62911028202197630000000000012500000000012500002000000010410403200839040125094052100320207908012509   1030000600030000   554100002319315799420000477DENKO INSEIN           YANGON        MMR11003200839040125090320000000000000000   10300001 00104100000000000375000000000000     
100   62443101071845130000000000018394310000018394312000000010410403221025395539394439480322000006852026   1030000200030000   333300010001203104000003632Myanmar Tradenet Test  Yangon        MMR11003221025395539390322000000000000000   10300001F05104100000000010000000000000000     
100   95050315743141220000000000000980000000000980002000000010410403221014204420591532440322000006851947   1020000200030000   333400010001204104000000281Myanmar Soft-Gate Tech Yangon        MMR11003221014204420590322000000000000000   10300001F05104100000000000206000000000000     
100   62911028202684060000000000014991000000014991002000000010410403220452505232534052100322435221133080   1030000500030000   555610104024104519000003821City Mart North Point  enter         MMR11003220452505232530322000000000000000   10300001 00104100000000000900000000000000     
100   95050325141379530000000000022600000000022600002000000010410403220335155223811878680322281031017080   1030000300030000   555610103648104519000003559Capital Hypermarket Da bon           MMR11003220335155223810322000000000000000   10300001 00104100000000005650000000000000     
100   62911028202045260000000000020800000000020800002000000010410403220852445262704052100322509211523080   1030000500030000   555610120972104519000017735City Express MCS 24                  MMR11003220852445262700322000000000000000   10300001 00104100000000001248000000000000     
100   95050315259054570000000000000980000000000980002000000010410403220929025902045221500322000006851616   1020000200030000   333400010001204104000000281Myanmar Soft-Gate Tech Yangon        MMR11003220929025902040322000000000000000   10300001F05104100000000000206000000000000     
100   95050313710136610000000000002940000000002940002000000010410403221023515351280964310322000006852016   1020000200030000   333400010001204104000000281Myanmar Soft-Gate Tech Yangon        MMR11003221023515351280322000000000000000   10300001F05104100000000000617000000000000     
100   95050324702000270000000001000000000001000000002000000010410403220152495216725502170322264240806080   1030000300030000   555510119008104519000016170Z N T Mobile                         MMR11003220152495216720322000000000000000   10300001 00104100000000240000000000000000     
100   95030316535481960000000000093000000000093000002000000010410403200521410732344052100320207905073234   1030000600030000   554100000946315799420000471DENKO BAHAN            YANGON        MMR11003200521410732340320000000000000000   10300001 00104100000000002790000000000000     
100   62443100391527780000000000035000000000035000002000000010410403200752550663048925300320207907066304   1030000600030000   554100000957315799420000480DENKO N.DAGON - 3      YANGON        MMR11003200752550663040320000000000000000   10300001 00104100000000004200000000000000     
100   95050311876202380000000000030000000000030000002000000010410403200957200264346712800320207909026434   1030000600030000   554100001155315799420000607DENKO NPT 1            NAYPYITAW.    MMR11003200957200264340320000000000000000   10300001 00104100000000003600000000000000     
100   62911028202393160000000000020000000000020000002000000010410403200651410079514052100320207906007951   1030000600030000   554100001218315799420000670DENKO MAWLAMYAING      MON STATE.    MMR11003200651410079510320000000000000000   10300001 00104100000000000600000000000000     
100   95030320529939180000000000046950000000046950002000000010410403200144440081214052100320207901008121   1030000600030000   581200000526315799420000143SIGNATURE FINEDINING 1 YANGON        MMR11003200144440081210320000000000000000   10300001 00104100000000004789000000000000     
100   62911028202471860000000000061000000000061000002000000010410403201136440242834052100320207911024283   1030000600030000   554100001113315799420000571DENKO THAN HLYIN -1    THAN HLYIN    MMR11003201136440242830320000000000000000   10300001 00104100000000001830000000000000     
100   95030301100126550000000000025000000000025000002000000010410403200659370570394052100320207906057039   1030000600030000   554100000952315799420000474DENKO N.DAGON - 1      YANGON        MMR11003200659370570390320000000000000000   10300001 00104100000000000750000000000000     
100   95050320093758110000000000015000000000015000002000000010410403191052420050774783160319207810005077   1030000600030000   554100002139315799420001488DENKO MDY-12           MANDALAY      MMR11003191052420050770319000000000000000   10300001 00104100000000001800000000000000     
100   95050324702000270000000001000000000001000000002000000010410403220153205216763849690322267240841080   1030000300030000   555510119008104519000016170Z N T Mobile                         MMR11003220153205216760322000000000000000   10300001 00104100000000240000000000000000     
100   62911028202593060000000000027800000000027800002000000010410403220524405236904052100322971571106080   1030000500030000   555610112985104519000011143Market Place by City M rt Sule       MMR11003220524405236900322000000000000000   10300001 00104100000000001668000000000000     
100   62443100301716860000000000002940000000002940002000000010410403221314064406366940730322000006852910   1020000200030000   333400010001204104000000281Myanmar Soft-Gate Tech Yangon        MMR11003221314064406360322000000000000000   10300001F05104100000000000617000000000000     
100   62443101071845130000000000018394310000018394312000000010410403221028385838767489190322000006852050   1030000200030000   333300010001203104000003632Myanmar Tradenet Test  Yangon        MMR11003221028385838760322000000000000000   10300001F05104100000000010000000000000000     
100   95050316717221100000000000000980000000000980002000000010410403220727525752461316180322000006850502   1020000200030000   333400010001204104000000281Myanmar Soft-Gate Tech Yangon        MMR11003220727525752460322000000000000000   10300001F05104100000000000206000000000000     
100   95050315345734110000000000000980000000000980002000000010410403220717114711760813800322000006850433   1020000200030000   333400010001204104000000281Myanmar Soft-Gate Tech Yangon        MMR11003220717114711760322000000000000000   10300001F05104100000000000206000000000000     
100   62911028202808150000000000040200000000040200002000000010410403220815515257934052100322851441456080   1030000500030000   555610112982104519000011143Market Place by City M rt Sule       MMR11003220815515257930322000000000000000   10300001 00104100000000002412000000000000     
100   62443100379321630000000000087000000000087000002000000010410403220837225260702098200322225051530080   1030000300030000   888810125940104519000021285Shwe Taung Energy CoLt               MMR11003220837225260700322000000000000000   10300001 00104100000000010440000000000000     
