100   62911028202416760000000000098000000000098000002000000010410403220546180693164052100322208105069316   1030000600030000   554100000955315799420000477DENKO INSEIN           YANGON        MMR11003220546180693160322000000000000000   10300001 00104100000000002940000000000000     
100   62443101071845130000000000018394310000018394312000000010410403230334340434010018550323000006855069   1030000200030000   333300010001203104000003632Myanmar Tradenet Test  Yangon        MMR11003230334340434010323000000000000000   10300001F05104100000000010000000000000000     
100   95050310397364970000000000004900000000004900002000000010410403231537520752412144400323000006860030   1020000200030000   333400010001204104000000281Myanmar Soft-Gate Tech Yangon        MMR11003231537520752410323000000000000000   10300001F05104100000000001029000000000000     
100   62443101071845130000000000018394310000018394312000000010410403230348511851850392840323000006855167   1030000200030000   333300010001203104000003632Myanmar Tradenet Test  Yangon        MMR11003230348511851850323000000000000000   10300001F05104100000000010000000000000000     
100   95050319978637470000000000005000000000005000002000000010410403230245201520176423260323000006854571   1030000200030000   3338000100012031040000040022C2P (Myanmar) Co. Ltd Yangon        MMR11003230245201520170323000000000000000   10300001F05104100000000001050000000000000     
100   95050310676042860000000000020000000000020000002000000010410403231400423042865279180323000006859638   1030000200030000   333800010001203104000003327KBZPay                 Yangon        MMR11003231400423042860323000000000000000   10300001F05104100000000004200000000000000     
100   95050311926829590000000000000980000000000980002000000010410403231306293629472314600323000006859397   1020000200030000   333400010001204104000000281Myanmar Soft-Gate Tech Yangon        MMR11003231306293629470323000000000000000   10300001F05104100000000000206000000000000     
100   95050316818236190000000000001960000000001960002000000010410403230810044004282328380323000006857493   1020000200030000   333400010001204104000000281Myanmar Soft-Gate Tech Yangon        MMR11003230810044004280323000000000000000   10300001F05104100000000000412000000000000     
100   95050322220807920000000000023944000000023944002000000010410403231026094815394527100323208217481539   1040001600030000   541120000555000000010000465Ocean Shwe Gone Daing  Yangon        MMR11003231026094815390323000000000000000   10300001F00104100000000005986000000000000     
100   62911028202789750000000000023700000000023700002000000010410403231128064869854052100323208218486985   1040001600030000   591220000271000000010000259Shwe Ohh Pharmacy (Gwa Yangon        MMR11003231128064869850323000000000000000   10300001F00104100000000001422000000000000     
100   95050315564078030000000000000980000000000980002000000010410403230252342234585997800323000006854634   1020000200030000   333400010001204104000000281Myanmar Soft-Gate Tech Yangon        MMR11003230252342234580323000000000000000   10300001F05104100000000000206000000000000     
100   95050316421999920000000000000980000000000980002000000010410403230549581958415172220323000006856406   1020000200030000   333400010001204104000000281Myanmar Soft-Gate Tech Yangon        MMR11003230549581958410323000000000000000   10300001F05104100000000000206000000000000     
100   95050311926829590000000000001960000000001960002000000010410403231302573257732229500323000006859379   1020000200030000   333400010001204104000000281Myanmar Soft-Gate Tech Yangon        MMR11003231302573257730323000000000000000   10300001F05104100000000000412000000000000     
100   95050316067768680000000000002940000000002940002000000010410403230806253625607285840323000006857476   1020000200030000   333400010001204104000000281Myanmar Soft-Gate Tech Yangon        MMR11003230806253625600323000000000000000   10300001F05104100000000000617000000000000     
100   95050316421999920000000000001960000000001960002000000010410403230545121512291099880323000006856350   1020000200030000   333400010001204104000000281Myanmar Soft-Gate Tech Yangon        MMR11003230545121512290323000000000000000   10300001F05104100000000000412000000000000     
100   95050318180584510000000000010000000000010000002000000010410403230754492449654151060323000006857368   1030000200030000   333800010001203104000003327KBZPay                 Yangon        MMR11003230754492449650323000000000000000   10300001F05104100000000002100000000000000     
100   95030301100121680000000000005000000000005000002000000010410403230208283828704052100323000006854314   1030000200030000   333800010001203104000003327KBZPay                 Yangon        MMR11003230208283828700323000000000000000   10300001F05104100000000001050000000000000     
100   62911028202446700000000000174300000000174300002000000010410403231232210221764052100323000006859223   1030000200030000   333800010001203104000003327KBZPay                 Yangon        MMR11003231232210221760323000000000000000   10300001F05104100000000036603000000000000     
100   95050312498129060000000000000980000000000980002000000010410403231340451045117357150323000006859534   1020000200030000   333400010001204104000000281Myanmar Soft-Gate Tech Yangon        MMR11003231340451045110323000000000000000   10300001F05104100000000000206000000000000     
100   95050315474529910000000000000979000000000979002000000010410403230650582058450810440323000006856865   1020000200030000   333400010001204104000000281Myanmar Soft-Gate Tech Yangon        MMR11003230650582058450323000000000000000   10300001F05104100000000000205000000000000     
100   95030325264619140000000000020280000000020280002000000010410403230700414710264052100323208214471026   1040001600030000   541120000557000000010000465Ocean Shwe Gone Daing  Yangon        MMR11003230700414710260323000000000000000   10300001F00104100000000001217000000000000     
100   62911028202471600000000000057450000000057450002000000010410403230828204749214052100323208215474921   1040001600030000   591220000296000000010000284Shwe Ohh Pharmacy (Lan Yangon        MMR11003230828204749210323000000000000000   10300001F00104100000000003447000000000000     
100   95050318712627500000000000018800000000018800002000000010410403230946054789030711560323208216478903   1040001600030000   541120000563000000010000465Ocean Shwe Gone Daing  Yangon        MMR11003230946054789030323000000000000000   10300001F00104100000000004700000000000000     
100   95050312498129060000000000005880000000005880002000000010410403231241081108718839440323000006859283   1020000200030000   333400010001204104000000281Myanmar Soft-Gate Tech Yangon        MMR11003231241081108710323000000000000000   10300001F05104100000000001235000000000000     
100   95050316421999920000000000000980000000000980002000000010410403230547311731400129670323000006856375   1020000200030000   333400010001204104000000281Myanmar Soft-Gate Tech Yangon        MMR11003230547311731400323000000000000000   10300001F05104100000000000206000000000000     
100   95050310305440490000000000055908000000055908002000000010410403230432375339079305430323165231102081   1030000500030000   555610110557104519000009163City Mart Ayeyarwon Br nch           MMR11003230432375339070323000000000000000   10300001 00104100000000013977000000000000     
100   95050317743858310000000000014575000000014575002000000010410403220158120001138807140322000336306824   1030000300030000   591200000224000000000000115CB BANK                MEDICARE STOR MMR11003220158120001130322000000000000000   10300001F00104100000000003498000000000000     
100   95050316901496590000000000007200000000007200002000000010410403220936240007222597340322208116000722   1030000500030000   541120045801009205411200458126 STORE              PTN           MMR11003220936240007220322000000000000000   10300001 00104100000000001800000000000000     
100   62911028202185590000000000038000000000038000002000000010410403220427390103704052100322208110010370   1030000500030000   598320068302000055983200683MAX ENERGY             PTN           MMR11003220427390103700322000000000000000   10300001 00104100000000001140000000000000     
100   62911028202151910000000000046000000000046000002000000010410403221037100099404052100322208117009940   1030000500030000   598320001404000015172200014MAX ENERGY             PTN           MMR11003221037100099400322000000000000000   10300001 00104100000000001380000000000000     
100   62911028202143500000000000036000000000036000002000000010410403220116210015714052100322208107001571   1030000500030000   598320002101000015172200021MAX ENERGY             PTN           MMR11003220116210015710322000000000000000   10300001 00104100000000001080000000000000     
100   95050329252108030000000000032000000000032000002000000010410403221238180016863465570322208119001686   1030000500030000   598320002101000015172200021MAX ENERGY             PTN           MMR11003221238180016860322000000000000000   10300001 00104100000000003840000000000000     
100   62443100318296470000000000062004000000062004002000000010410403220657490010534665000322208113001053   1030000500030000   598320001303000015172200013MAX ENERGY             PTN           MMR11003220657490010530322000000000000000   10300001 00104100000000007440000000000000     
100   95050329579110880000000000100000000000100000002000000010410403230700013001316193380323000006856923   1030000200030000   3338000100012031040000040022C2P (Myanmar) Co. Ltd Yangon        MMR11003230700013001310323000000000000000   10300001F05104100000000021000000000000000     
100   95050311926829590000000000001960000000001960002000000010410403230803323332412668770323000006857444   1020000200030000   333400010001204104000000281Myanmar Soft-Gate Tech Yangon        MMR11003230803323332410323000000000000000   10300001F05104100000000000412000000000000     
100   62911028202446700000000000008000000000008000002000000010410403230813334333534052100323000006857533   1030000200030000   333800010001203104000003327KBZPay                 Yangon        MMR11003230813334333530323000000000000000   10300001F05104100000000001680000000000000     
100   62911028202538950000000000100000000000100000002000000010410403230545251525734052100323000006856356   1030000200030000   333800010001203104000003327KBZPay                 Yangon        MMR11003230545251525730323000000000000000   10300001F05104100000000021000000000000000     
100   95050316717221100000000000000980000000000980002000000010410403230357262726762520270323000006855317   1020000200030000   333400010001204104000000281Myanmar Soft-Gate Tech Yangon        MMR11003230357262726760323000000000000000   10300001F05104100000000000206000000000000     
100   62443100397667340000000000004900000000004900002000000010410403230802463246020931190323000006857437   1020000200030000   333400010001204104000000281Myanmar Soft-Gate Tech Yangon        MMR11003230802463246020323000000000000000   10300001F05104100000000001029000000000000     
100   95050310409767690000000000003000000000003000002000000010410403231213544354826931660323000006859122   1030000200030000   333800010001203104000003327KBZPay                 Yangon        MMR11003231213544354820323000000000000000   10300001F05104100000000000630000000000000     
100   95050315474529910000000000000980000000000980002000000010410403230518234823438689570323000006856157   1020000200030000   333400010001204104000000281Myanmar Soft-Gate Tech Yangon        MMR11003230518234823430323000000000000000   10300001F05104100000000000206000000000000     
100   95030320529939180000000000076807000000076807002000000010410403220057530081894052100322208100008189   1030000600030000   581200000526315799420000143SIGNATURE FINEDINING 1 YANGON        MMR11003220057530081890322000000000000000   10300001 00104100000000007834000000000000     
100   62911028202104650000000000062000000000062000002000000010410403220342510153154052100322208110015315   1030000500030000   598320001003000015172200010MAX ENERGY             PTN           MMR11003220342510153150322000000000000000   10300001 00104100000000001860000000000000     
100   62911028202418410000000000013450000000013450002000000010410403220517180016324052100322208111001632   1030000500030000   531120155712000045311201557GAMONE PWINT           PTN           MMR11003220517180016320322000000000000000   10300001 00104100000000000807000000000000     
100   62911028202366010000000000040000000000040000002000000010410403221211510017534052100322208118001753   1030000500030000   598320101301005405983201013PT POWER (NPT)         PTN           MMR11003221211510017530322000000000000000   10300001 00104100000000001200000000000000     
100   62911028202231380000000000008085000000008085002000000010410403220746520000164052100322208114000016   1030000500030000   581220199401000085812201994LITTLE BOSS MAWTIN     PTN           MMR11003220746520000160322000000000000000   10300001 00104100000000000825000000000000     
100   62911028202445480000000000580000000000580000002000000010410403220640240013194052100322208113001319   1030000500030000   598320001801000015172200018MAX ENERGY             PTN           MMR11003220640240013190322000000000000000   10300001 00104100000000017400000000000000     
100   62911028202445480000000000048300000000048300002000000010410403220646260013204052100322208113001320   1030000500030000   598320001801000015172200018MAX ENERGY             PTN           MMR11003220646260013200322000000000000000   10300001 00104100000000001449000000000000     
100   95050324250133010000000000009259000000009259002000000010410403221004210003884085330322000336368827   1030000300030000   541100000449000000000000319CB BANK                ONESTOP KITCH MMR11003221004210003880322000000000000000   10300001F00104100000000002315000000000000     
100   95050316785465380000000000000980000000000980002000000010410403231153142314368413960323000006859007   1020000200030000   333400010001204104000000281Myanmar Soft-Gate Tech Yangon        MMR11003231153142314360323000000000000000   10300001F05104100000000000206000000000000     
100   62443101071845130000000000018394310000018394312000000010410403230404043404409187730323000006855281   1030000200030000   333300010001203104000003632Myanmar Tradenet Test  Yangon        MMR11003230404043404400323000000000000000   10300001F05104100000000010000000000000000     
100   62911028202685470000000000021060000000021060002000000010410403231004054798854052100323208217479885   1040001600030000   806220000001000000010000001Victoria Hospital      Yangon        MMR11003231004054798850323000000000000000   10300001F00104100000000001264000000000000     
100   95050318267399100000000000000980000000000980002000000010410403231152222222196250890323000006859003   1020000200030000   333400010001204104000000281Myanmar Soft-Gate Tech Yangon        MMR11003231152222222190323000000000000000   10300001F05104100000000000206000000000000     
100   95050319528093960000000000001960000000001960002000000010410403230309253925710820660323000006854827   1020000200030000   333400010001204104000000281Myanmar Soft-Gate Tech Yangon        MMR11003230309253925710323000000000000000   10300001F05104100000000000412000000000000     
100   95050316818236190000000000000980000000000980002000000010410403230805483548014321260323000006857463   1020000200030000   333400010001204104000000281Myanmar Soft-Gate Tech Yangon        MMR11003230805483548010323000000000000000   10300001F05104100000000000206000000000000     
100   62911028202446700000000000300000000000300000002000000010410403230811444144954052100323000006857510   1030000200030000   333800010001203104000003327KBZPay                 Yangon        MMR11003230811444144950323000000000000000   10300001F05104100000000063000000000000000     
100   62911028202161240000000000018750000000018750002000000010410403231205380300334052100323000744603602   1030000200030000   541188001025000008000000298KBZ BANK               CITY MART - M MMR11003231205380300330323000000000000000   10300001 00104100000000001125000000000000     
100   95050315833864180000000000008000000000008000002000000010410403220707120009138395440322208113000913   1030000500030000   573220038801000015732200388REMAX                  PTN           MMR11003220707120009130322000000000000000   10300001 00104100000000001920000000000000     
100   62443101057131720000000000036500000000036500002000000010410403220304550001441637180322208109000144   1030000500030000   581220166101000015812201661KRISPY KREME           PTN           MMR11003220304550001440322000000000000000   10300001 00104100000000015513000000000000     
100   95030301100415710000000000010000000000010000002000000010410403221155050016784052100322208118001678   1030000500030000   598320002101000015172200021MAX ENERGY             PTN           MMR11003221155050016780322000000000000000   10300001 00104100000000000300000000000000     
100   95050324622440820000000000025000000000025000002000000010410403220023200059969693760322208100005996   1030000600030000   549900002153315799420001502EASY MART- 003         YANGON        MMR11003220023200059960322000000000000000   10300001 00104100000000010625000000000000     
100   95030301100425380000000000010000000000010000002000000010410403221309080066834052100322000336391487   1030000300030000   598300000342000000000000222CB BANK                YANGON PETROL MMR11003221309080066830322000000000000000   10300001F00104100000000000300000000000000     
100   95050315745833530000000000005000000000005000002000000010410403220322350059462048870322208103005946   1030000600030000   554100001252315799420000706DENKO MONEYWAR - 2     MONEYWAR      MMR11003220322350059460322000000000000000   10300001 00104100000000000600000000000000     
100   62911028202312890000000000048000000000048000002000000010410403220903340058774052100322208115005877   1030000500030000   598320001702000015172200017MAX ENERGY             PTN           MMR11003220903340058770322000000000000000   10300001 00104100000000001440000000000000     
100   62911028202595380000000000026000000000026000002000000010410403220457230049484052100322208111004948   1030000500030000   598320041901000055983200419MAX ENERGY             PTN           MMR11003220457230049480322000000000000000   10300001 00104100000000000780000000000000     
100   95050311559234320000000000004900000000004900002000000010410403230938080808075754100323000006858167   1020000200030000   333400010001204104000000281Myanmar Soft-Gate Tech Yangon        MMR11003230938080808070323000000000000000   10300001F05104100000000001029000000000000     
100   95050312675525330000000000018000000000018000002000000010410403231059032903907988480323000006858713   1030000200030000   333800010001203104000003327KBZPay                 Yangon        MMR11003231059032903900323000000000000000   10300001F05104100000000003780000000000000     
100   62443101071845130000000000018394310000018394312000000010410403230314554455180112320323000006854865   1030000200030000   333300010001203104000003632Myanmar Tradenet Test  Yangon        MMR11003230314554455180323000000000000000   10300001F05104100000000010000000000000000     
100   62911028202291190000000000043650000000043650002000000010410403230743194728824052100323208214472882   1040001600030000   591220000303000000010000291Shwe Ohh Pharmacy (Kyu Yangon        MMR11003230743194728820323000000000000000   10300001F00104100000000002619000000000000     
100   95050311382087030000000000001960000000001960002000000010410403231434140414168754340323000006859788   1020000200030000   333400010001204104000000281Myanmar Soft-Gate Tech Yangon        MMR11003231434140414160323000000000000000   10300001F05104100000000000412000000000000     
100   95050314996291580000000000001960000000001960002000000010410403231351052105470321730323000006859579   1020000200030000   333400010001204104000000281Myanmar Soft-Gate Tech Yangon        MMR11003231351052105470323000000000000000   10300001F05104100000000000412000000000000     
100   95050313062063490000000000000980000000000980002000000010410403231405253525473626700323000006859666   1020000200030000   333400010001204104000000281Myanmar Soft-Gate Tech Yangon        MMR11003231405253525470323000000000000000   10300001F05104100000000000206000000000000     
100   95050318741700180000000000001960000000001960002000000010410403230512304230107341830323000006856099   1020000200030000   333400010001204104000000281Myanmar Soft-Gate Tech Yangon        MMR11003230512304230100323000000000000000   10300001F05104100000000000412000000000000     
100   62911028202777610000000000046000000000046000002000000010410403220105150083454052100322208101008345   1030000600030000   554100002324315799420000481DENKO NORTH OKKALAPA   YANGON        MMR11003220105150083450322000000000000000   10300001 00104100000000001380000000000000     
100   95050323282717740000000000010000000000010000002000000010410403220925020158941320870322208115015894   1030000500030000   598320002001000015172200020MAX ENERGY             PTN           MMR11003220925020158940322000000000000000   10300001 00104100000000001200000000000000     
100   95050321232876860000000000093000000000093000002000000010410403220559300329178870370322208105032917   1030000600030000   554100001865315799420001235DENKO NAY PYI TAW 2    NAYPYITAW     MMR11003220559300329170322000000000000000   10300001 00104100000000011160000000000000     
100   95050322990383760000000000021000000000021000002000000010410403220945064157109050860322208116415710   1040001600030000   591220000043000000010000041Mingalar Pharmacy      Yangon        MMR11003220945064157100322000000000000000   10300001F00104100000000005040000000000000     
100   62443100325551180000000000025000000000025000002000000010410403220352000184277857290322208110018427   1030000500030000   598320002102000015172200021MAX ENERGY             PTN           MMR11003220352000184270322000000000000000   10300001 00104100000000003000000000000000     
100   62911028202665170000000000030000000000030000002000000010410403220045020249664052100322208107024966   1030000500030000   598320001201000015172200012MAX ENERGY             PTN           MMR11003220045020249660322000000000000000   10300001 00104100000000000900000000000000     
100   95030385550669610000000000096675000000096675002000000010410403220855200666944052100322208108066694   1030000600030000   554100000957315799420000480DENKO N.DAGON - 3      YANGON        MMR11003220855200666940322000000000000000   10300001 00104100000000002900000000000000     
100   62443100313002190000000000030000000000030000002000000010410403221125530415213295380322208111041521   1030000600030000   554100001001315799420000498DENKO SHWE PYI THAR    YANGON        MMR11003221125530415210322000000000000000   10300001 00104100000000003600000000000000     
100   62911028202737030000000000300000000000300000002000000010410403231142071207324052100323000006858953   1030000200030000   333800010001203104000003327KBZPay                 Yangon        MMR11003231142071207320323000000000000000   10300001F05104100000000063000000000000000     
100   95050319753756490000000000010000000000010000002000000010410403231407293729055364280323000006859678   1030000200030000   333800010001203104000003327KBZPay                 Yangon        MMR11003231407293729050323000000000000000   10300001F05104100000000002100000000000000     
100   62911028202677880000000000126000000000126000002000000010410403230524414656414052100323208212465641   1040001600030000   591220000292000000010000280Shwe Ohh Pharmacy (Cha Yangon        MMR11003230524414656410323000000000000000   10300001F00104100000000007560000000000000     
100   95050311121153200000000000001960000000001960002000000010410403230144321432622668600323000006854211   1020000200030000   333400010001204104000000281Myanmar Soft-Gate Tech Yangon        MMR11003230144321432620323000000000000000   10300001F05104100000000000412000000000000     
100   95050311131833760000000000050000000000050000002000000010410403230453512351678808360323000006855904   1030000200030000   333800010001203104000003327KBZPay                 Yangon        MMR11003230453512351670323000000000000000   10300001F05104100000000010500000000000000     
100   62443100330727820000000000050000000000050000002000000010410403230236384581432876780323208209458143   1040001600030000   598320000838000000010000600Regency Petrol Station Ygn           MMR11003230236384581430323000000000000000   10300001F00104100000000006000000000000000     
100   62911028202170490000000000038850000000038850002000000010410403231416010213874052100323000744612159   1030000200030000   541188001038000008000000010KBZ BANK               MARKETPLACE - MMR11003231416010213870323000000000000000   10300001 00104100000000002331000000000000     
100   95050312160676580000000000000980000000000980002000000010410403230838390839753165560323000006857752   1020000200030000   333400010001204104000000281Myanmar Soft-Gate Tech Yangon        MMR11003230838390839750323000000000000000   10300001F05104100000000000206000000000000     
100   95050312695033440000000000000980000000000980002000000010410403230754192419295803550323000006857361   1020000200030000   333400010001204104000000281Myanmar Soft-Gate Tech Yangon        MMR11003230754192419290323000000000000000   10300001F05104100000000000206000000000000     
100   95030301100155910000000000050000000000050000002000000010410403231307313731254052100323000006859403   1030000200030000   333800010001203104000003327KBZPay                 Yangon        MMR11003231307313731250323000000000000000   10300001F05104100000000010500000000000000     
100   62443100371022130000000000041000000000041000002000000010410403230550094672356909800323208212467235   1040001600030000   598320000658000000010000527Shwe Taung Energy (YGN Yangon        MMR11003230550094672350323000000000000000   10300001F00104100000000004920000000000000     
100   62911028202684060000000000017350000000017350002000000010410403230417145335394052100323656521050081   1030000500030000   555610122578104519000018896City Mart Hlaing Thar  ar            MMR11003230417145335390323000000000000000   10300001 00104100000000001041000000000000     
100   62443100355445150000000000016850000000016850002000000010410403230817455367277370940323984451450081   1030000300030000   444410116806104519000014353BreadTalk JunctionCity               MMR11003230817455367270323000000000000000   10300001 00104100000000007162000000000000     
100   62911028202150190000000000048950000000048950002000000010410403231150444890704052100323208218489070   1040001600030000   591220000268000000010000256Shwe Ohh Pharmacy (Uni Yangon        MMR11003231150444890700323000000000000000   10300001F00104100000000002937000000000000     
100   62443100333488440000000000043550000000043550002000000010410403231053084838034683510323208217483803   1040001600030000   581420000246000000010000234Hot Pot Country        Yangon        MMR11003231053084838030323000000000000000   10300001F00104100000000005226000000000000     
100   95030314863516850000000000025000000000025000002000000010410403230520045004024052100323000006856165   1030000200030000   333800010001203104000003327KBZPay                 Yangon        MMR11003230520045004020323000000000000000   10300001F05104100000000005250000000000000     
100   62911028202115700000000000021050000000021050002000000010410403230314285327934052100323738420933081   1030000300030000   444410125393104519000021220Myanmar Bakery CoLtd                 MMR11003230314285327930323000000000000000   10300001 00104100000000002147000000000000     
100   95050316818236190000000000000980000000000980002000000010410403231423415341733711790323000006859738   1020000200030000   333400010001204104000000281Myanmar Soft-Gate Tech Yangon        MMR11003231423415341730323000000000000000   10300001F05104100000000000206000000000000     
100   95050312160676580000000000000980000000000980002000000010410403230719214921254782390323000006857108   1020000200030000   333400010001204104000000281Myanmar Soft-Gate Tech Yangon        MMR11003230719214921250323000000000000000   10300001F05104100000000000206000000000000     
100   95050328570548980000000000018600000000018600002000000010410403230456215339399186380323199251113081   1030000500030000   555610118964104519000016137City Mart South Okkala WZYD BR       MMR11003230456215339390323000000000000000   10300001 00104100000000004650000000000000     
100   95050312926040930000000000005000000000005000002000000010410403230222395239580678080323000006854406   1030000200030000   333800010001203104000003327KBZPay                 Yangon        MMR11003230222395239580323000000000000000   10300001F05104100000000001050000000000000     
100   62911028202359000000000000077150000000077150002000000010410403230607405349674052100323602361215081   1030000300030000   555510124690104519000020166Makro Myanmar                        MMR11003230607405349670323000000000000000   10300001 00104100000000004629000000000000     
100   95050314287403810000000000000980000000000980002000000010410403230919014901630286070323000006858019   1020000200030000   333400010001204104000000281Myanmar Soft-Gate Tech Yangon        MMR11003230919014901630323000000000000000   10300001F05104100000000000206000000000000     
100   62443101071845130000000000018394310000018394312000000010410403230421555155762056240323000006855546   1030000200030000   333300010001203104000003632Myanmar Tradenet Test  Yangon        MMR11003230421555155760323000000000000000   10300001F05104100000000010000000000000000     
100   95050328137327770000000000020000000000020000002000000010410403231323135313304052180323000006859460   1030000200030000   333800010001203104000003327KBZPay                 Yangon        MMR11003231323135313300323000000000000000   10300001F05104100000000004200000000000000     
100   62443101071845130000000000018394310000018394312000000010410403230420425042016209330323000006855424   1030000200030000   333300010001203104000003632Myanmar Tradenet Test  Yangon        MMR11003230420425042010323000000000000000   10300001F05104100000000010000000000000000     
100   62911028202520380000000000050000000000050000002000000010410403230249555326214052100323519210907081   1030000300030000   888810125940104519000021285Shwe Taung Energy CoLt               MMR11003230249555326210323000000000000000   10300001 00104100000000001500000000000000     
100   95050313732480420000000000002940000000002940002000000010410403231022335233514442010323000006858495   1020000200030000   333400010001204104000000281Myanmar Soft-Gate Tech Yangon        MMR11003231022335233510323000000000000000   10300001F05104100000000000617000000000000     
100   62911028202471600000000000036050000000036050002000000010410403231055295392074052100323323301753081   1030000500030000   555610110576104519000009164City Mart China Town P int Cen       MMR11003231055295392070323000000000000000   10300001 00104100000000002163000000000000     
100   62911028202295310000000000042800000000042800002000000010410403231057075392774052100323414351726081   1030000500030000   555610112240104519000010487Ocean Super Center St  ohn           MMR11003231057075392770323000000000000000   10300001 00104100000000002568000000000000     
100   62911028202150190000000000030000000000030000002000000010410403230916245375344052100323015451517081   1030000300030000   888810125940104519000021285Shwe Taung Energy CoLt               MMR11003230916245375340323000000000000000   10300001 00104100000000000900000000000000     
100   95050313836159580000000000003000000000003000002000000010410403231226215621234853700323000006859184   1030000200030000   3334000100012031040000040102C2P (Myanmar) Co. Ltd Yangon        MMR11003231226215621230323000000000000000   10300001F05104100000000000630000000000000     
100   62443101071845130000000000018394310000018394312000000010410403230326525652638548290323000006855009   1030000200030000   333300010001203104000003632Myanmar Tradenet Test  Yangon        MMR11003230326525652630323000000000000000   10300001F05104100000000010000000000000000     
100   95050320531117320000000000011900000000011900002000000010410403230235106247379755810323969050910081   1030000900030000   541119001526190110000001105Ocean MGDTM City Care  YANGONADON    MMR11003230235106247370323000000000000000   10300001F00104100000000002975000000000000     
100   95050318131043910000000000000980000000000980002000000010410403231229375937013201210323000006859210   1020000200030000   333400010001204104000000281Myanmar Soft-Gate Tech Yangon        MMR11003231229375937010323000000000000000   10300001F05104100000000000206000000000000     
100   62911028202668140000000000029190000000029190002000000010410403230945135379804052100323637141627081   1030000300030000   444410108089104519000007236The Pizza and Swensens I             MMR11003230945135379800323000000000000000   10300001 00104100000000002977000000000000     
100   62911028202440680000000000027500000000027500002000000010410403231209235401544052100323573371833081   1030000300030000   444410114126104519000009744Traditional Shan Food                MMR11003231209235401540323000000000000000   10300001 00104100000000002805000000000000     
100   95030314863516850000000000018000000000018000002000000010410403230426245624614052100323000006855630   1030000200030000   333800010001203104000003327KBZPay                 Yangon        MMR11003230426245624610323000000000000000   10300001F05104100000000003780000000000000     
100   62911028202440680000000000005100000000005100002000000010410403231254495405874052100323230231926081   1030000500030000   555610120970104519000017733City Express MCS 14                  MMR11003231254495405870323000000000000000   10300001 00104100000000000306000000000000     
100   95050312695033440000000000000980000000000980002000000010410403231324345434119009630323000006859473   1020000200030000   333400010001204104000000281Myanmar Soft-Gate Tech Yangon        MMR11003231324345434110323000000000000000   10300001F05104100000000000206000000000000     
100   95050312926040930000000000010000000000010000002000000010410403221824115411108848510323000006853801   1030000200030000   333800010001203104000003327KBZPay                 Yangon        MMR11003221824115411100323000000000000000   10300001F05104100000000002100000000000000     
100   62911028202225440000000000001600000000001600002000000010410403231152385399474052100323296201846081   1030000500030000   555610110576104519000009164City Mart China Town P int Cen       MMR11003231152385399470323000000000000000   10300001 00104100000000000096000000000000     
100   62443100372702000000000000030600000000030600002000000010410403230929555377405073330323323581556081   1030000500030000   555610112981104519000011143Market Place by City M rt Sule       MMR11003230929555377400323000000000000000   10300001 00104100000000007650000000000000     
100   62911028202677390000000000015900000000015900002000000010410403230950405380484052100323732201614081   1030000500030000   555610122984104519000019269City Mart Supermarket  hanlyin       MMR11003230950405380480323000000000000000   10300001 00104100000000000954000000000000     
100   95050324104751500000000000033000000000033000002000000010410403231051525390292945930323079201734081   1030000500030000   555610110601104519000009166City Mart 47 Branch                  MMR11003231051525390290323000000000000000   10300001 00104100000000008250000000000000     
100   95050319528093960000000000001960000000001960002000000010410403230429555955006872470323000006855661   1020000200030000   333400010001204104000000281Myanmar Soft-Gate Tech Yangon        MMR11003230429555955000323000000000000000   10300001F05104100000000000412000000000000     
100   62911028202789750000000000038000000000038000002000000010410403231056415391134052100323208241755081   1030000300030000   555510125344104519000010634Asia Royal Co Ltd                    MMR11003231056415391130323000000000000000   10300001 00104100000000002280000000000000     
100   95030333100021460000000000005350000000005350002000000010410403230958375381594052100323873261651081   1030000500030000   555610112234104519000010487Ocean Super Center St  ohn           MMR11003230958375381590323000000000000000   10300001 00104100000000000321000000000000     
100   62443101071845130000000000018394310000018394312000000010410403230330010001302023500323000006855031   1030000200030000   333300010001203104000003632Myanmar Tradenet Test  Yangon        MMR11003230330010001300323000000000000000   10300001F05104100000000010000000000000000     
100   95030301100124400000000000011200000000011200002000000010410403231335570003844052100323000744609707   1030000200030000   541188001046000008000000010KBZ BANK               MARKETPLACE - MMR11003231335570003840323000000000000000   10300001 00104100000000000672000000000000     
100   95050325925517520000000000008300000000008300002000000010410403231425150066655888640323000744612645   1030000200030000   541188001071000008000000314KBZ BANK               MARKETPLACE - MMR11003231425150066650323000000000000000   10300001 00104100000000002075000000000000     
100   62911028202110420000000000019000000000019000002000000010410403230912230055844052100323000744594116   1030000200030000   541188001016000008000000008KBZ BANK               MARKETPLACE - MMR11003230912230055840323000000000000000   10300001 00104100000000001140000000000000     
100   62911028202527150000000000022900000000022900002000000010410403231830180128724052100323000744624175   1030000200030000   541188001306000008000000325KBZ BANK               CITY MART - A MMR11003231830180128720323000000000000000   10300001 00104100000000001374000000000000     
100   62443101071845130000000000018394310000018394312000000010410403230331050105681597950323000006855034   1030000200030000   333300010001203104000003632Myanmar Tradenet Test  Yangon        MMR11003230331050105680323000000000000000   10300001F05104100000000010000000000000000     
100   62443100355445150000000000037600000000037600002000000010410403231435040176771016290323000744613264   1030000200030000   541188001054000008000000314KBZ BANK               MARKETPLACE - MMR11003231435040176770323000000000000000   10300001 00104100000000009400000000000000     
100   95030314863516850000000000005000000000005000002000000010410403230331280128344052100323000006855039   1030000200030000   333800010001203104000003327KBZPay                 Yangon        MMR11003230331280128340323000000000000000   10300001F05104100000000001050000000000000     
100   95030314863516850000000000018000000000018000002000000010410403230627035703004052100323000006856714   1030000200030000   333800010001203104000003327KBZPay                 Yangon        MMR11003230627035703000323000000000000000   10300001F05104100000000003780000000000000     
100   62443101071845130000000000018394310000018394312000000010410403230427045704367978860323000006855631   1030000200030000   333300010001203104000003632Myanmar Tradenet Test  Yangon        MMR11003230427045704360323000000000000000   10300001F05104100000000010000000000000000     
100   62443101071845130000000000018394310000018394312000000010410403230325455545608973790323000006854992   1030000200030000   333300010001203104000003632Myanmar Tradenet Test  Yangon        MMR11003230325455545600323000000000000000   10300001F05104100000000010000000000000000     
100   95050318257792630000000000008300000000008300002000000010410403230612466293456994900323591421246081   1030000900030000   541119001246190110000000955City Mart JS C 5       YANGONUT      MMR11003230612466293450323000000000000000   10300001F00104100000000002075000000000000     
100   95030316535481960000000000126900000000126900002000000010410403230720106308984052100323524501310081   1030000900030000   591219000507190110000000354Shwe Ohh Pharmacy - (S YANGON        MMR11003230720106308980323000000000000000   10300001F00104100000000007614000000000000     
100   62911028202290100000000000030000000000030000002000000010410403230832466326014052100323554021546081   1030000900030000   554119000345190110000000212New Day Energy PZD     YANGONAUNG    MMR11003230832466326010323000000000000000   10300001F00104100000000000900000000000000     
100   95030337100000390000000000040550000000040550002000000010410403230713536307754052100323454431353081   1030000900030000   541119000816190110000000178Pro (1) Global (East D YANGONMYOTHIT MMR11003230713536307750323000000000000000   10300001F00104100000000002433000000000000     
100   95030333100021460000000000000900000000000900002000000010410403231003406349434052100323942331640081   1030000900030000   581219001105190110000000890Shwepalin City Mall Ta YANGONAW      MMR11003231003406349430323000000000000000   10300001F00104100000000000092000000000000     
100   62911028202400660000000000122000000000122000002000000010410403231231040166614052100323000744605454   1030000200030000   541188001124000008000000296KBZ BANK               CITY MART - J MMR11003231231040166610323000000000000000   10300001 00104100000000007320000000000000     
100   95030301100125070000000000200000000000200000002000000010410403230730220022584052100323000006857182   1030000200030000   333800010001203104000003327KBZPay                 Yangon        MMR11003230730220022580323000000000000000   10300001F05104100000000042000000000000000     
100   95050315743141220000000000001960000000001960002000000010410403231030520052960966850323000006858552   1020000200030000   333400010001204104000000281Myanmar Soft-Gate Tech Yangon        MMR11003231030520052960323000000000000000   10300001F05104100000000000412000000000000     
100   62911028202161240000000000047262000000047262002000000010410403230952390068564052100323000744595622   1030000200030000   541188001023000008000000298KBZ BANK               CITY MART - M MMR11003230952390068560323000000000000000   10300001 00104100000000002836000000000000     
100   62911028202150190000000000014650000000014650002000000010410403231016490068584052100323000744596656   1030000200030000   541188001023000008000000298KBZ BANK               CITY MART - M MMR11003231016490068580323000000000000000   10300001 00104100000000000879000000000000     
100   62911028202616250000000000131400000000131400002000000010410403231129450176434052100323000744601115   1030000200030000   541188001054000008000000314KBZ BANK               MARKETPLACE - MMR11003231129450176430323000000000000000   10300001 00104100000000007884000000000000     
100   62911028202130710000000000029150000000029150002000000010410403231731570176994052100323000744621368   1030000200030000   541188001054000008000000314KBZ BANK               MARKETPLACE - MMR11003231731570176990323000000000000000   10300001 00104100000000001749000000000000     
100   62443100315853220000000000151079000000151079002000000010410403231154500020108121530323000744602889   1030000200030000   541188001485000008000000399KBZ BANK               OCEAN SUPERCE MMR11003231154500020100323000000000000000   10300001 00104100000000037770000000000000     
100   62911028202212490000000000007100000000007100002000000010410403230410596265714052100323944401059081   1030000900030000   581219000715190110000000546Akkhaya Tea House(Dago YANGON        MMR11003230410596265710323000000000000000   10300001F00104100000000000724000000000000     
100   62911028202154800000000000047000000000047000002000000010410403230440276272074052100323305101127081   1030000900030000   554119001103190110000000215New Day Energy MYG     YANGONONE     MMR11003230440276272070323000000000000000   10300001F00104100000000001410000000000000     
100   95050313710136610000000000037950000000037950002000000010410403231034286357656009390323473041728081   1030000900030000   541119001363190110000000977Ocean PZD C17          YANGONAUNG    MMR11003231034286357650323000000000000000   10300001F00104100000000009488000000000000     
100   95030301100196920000000000012400000000012400002000000010410403230620516295694052100323735501251081   1030000900030000   541119001353190110000000977Ocean PZD C 7          YANGONAUNG    MMR11003230620516295690323000000000000000   10300001F00104100000000000744000000000000     
100   62911028202610960000000000139000000000139000002000000010410403230925246339294052100323352551524081   1030000900030000   729819001442190110000001046Eliza Skin Republic Sa YANGON        MMR11003230925246339290323000000000000000   10300001F00104100000000008340000000000000     
100   62911028202133520000000000013600000000013600002000000010410403231203406380664052100323103331840081   1030000900030000   541119001187190110000000942City Mart HDC C 2      YANGONUT      MMR11003231203406380660323000000000000000   10300001F00104100000000000816000000000000     
100   95030301100196920000000000002700000000002700002000000010410403230622156296084052100323757521215081   1030000900030000   541119001353190110000000977Ocean PZD C 7          YANGONAUNG    MMR11003230622156296080323000000000000000   10300001F00104100000000000162000000000000     
100   62911028202243670000000000109500000000109500002000000010410403220810050003004052100322208114000300   1030000500030000   806220195401000018062201954PIN LON HOSPITAL       PTN           MMR11003220810050003000322000000000000000   10300001 00104100000000006570000000000000     
100   95050312878706670000000000003000000000003000002000000010410403231236110611216506180323000006859247   1030000200030000   3334000100012031040000040102C2P (Myanmar) Co. Ltd Yangon        MMR11003231236110611210323000000000000000   10300001F05104100000000000630000000000000     
100   62911028202737030000000000300000000000300000002000000010410403231143311331744052100323000006858959   1030000200030000   333800010001203104000003327KBZPay                 Yangon        MMR11003231143311331740323000000000000000   10300001F05104100000000063000000000000000     
100   95050311959900780000000000000980000000000980002000000010410403231453552355497101860323000006859877   1020000200030000   333400010001204104000000281Myanmar Soft-Gate Tech Yangon        MMR11003231453552355490323000000000000000   10300001F05104100000000000206000000000000     
100   95050316377977350000000000004000000000004000002000000010410403230851402140364562760323000006857838   1030000200030000   3338000100012031040000040022C2P (Myanmar) Co. Ltd Yangon        MMR11003230851402140360323000000000000000   10300001F05104100000000000840000000000000     
100   62443101071845130000000000018394310000018394312000000010410403230314164416214013000323000006854786   1030000200030000   333300010001203104000003632Myanmar Tradenet Test  Yangon        MMR11003230314164416210323000000000000000   10300001F05104100000000010000000000000000     
100   62911028202260320000000000219300000000219300002000000010410403230428594627214052100323208211462721   1040001600030000   591220000626000000010000497AAA Pharmacy           Ygn           MMR11003230428594627210323000000000000000   10300001F00104100000000013158000000000000     
100   95050316818236190000000000001960000000001960002000000010410403230149321932816994740323000006854225   1020000200030000   333400010001204104000000281Myanmar Soft-Gate Tech Yangon        MMR11003230149321932810323000000000000000   10300001F05104100000000000412000000000000     
100   95050312498129060000000000000980000000000980002000000010410403230858462846259605300323000006857886   1020000200030000   333400010001204104000000281Myanmar Soft-Gate Tech Yangon        MMR11003230858462846250323000000000000000   10300001F05104100000000000206000000000000     
100   95050312728902740000000000026400000000026400002000000010410403231057356364626335990323966271735081   1030000900030000   541119001075190110000000872Sein Gay Har Hledan    YANGONUT      MMR11003231057356364620323000000000000000   10300001F00104100000000006600000000000000     
100   95050314893649800000000000020000000000020000002000000010410403230834076326239775500323568041507081   1030000900030000   541119001464190110000000077Sein Gay Har Chinatown YANGON        MMR11003230834076326230323000000000000000   10300001F00104100000000005000000000000000     
100   62443100395250310000000000027620000000027620002000000010410403230926116339486725810323361561511081   1030000900030000   541119001262190110000000958City Mart PLST C 5     YANGONMYOTHIT MMR11003230926116339480323000000000000000   10300001F00104100000000006905000000000000     
100   62443101023815100000000000065000000000065000002000000010410403230739146313475548260323795091414081   1030000900030000   554119001099190110000000211New Day Energy SCH     YANGONUNG     MMR11003230739146313470323000000000000000   10300001F00104100000000007800000000000000     
100   62911028202088990000000000016112000000016112002000000010410403230507206278344052100323686371120081   1030000900030000   581219000718190110000000549Chilli Pot Mala Xiang  YANGONUT      MMR11003230507206278340323000000000000000   10300001F00104100000000001643000000000000     
100   95050318131767790000000000020500000000020500002000000010410403230908306334934647850323090381530081   1030000900030000   541119000122190110000000080Sein Gay Har BAK       YANGONADA     MMR11003230908306334930323000000000000000   10300001F00104100000000005125000000000000     
100   62443101007477200000000000364900000000364900002000000010410403231048416361659640960323750181741081   1030000900030000   573219001177190110000000933UNIQUE Kabaraye        YANGON        MMR11003231048416361650323000000000000000   10300001F00104100000000087576000000000000     
100   62911028202313470000000000063000000000063000002000000010410403220345340008124052100322208110000812   1030000500030000   591220013201014405912200132SHWE OHH PHARMACY      PTN           MMR11003220345340008120322000000000000000   10300001 00104100000000003780000000000000     
100   62443101071845130000000000018394310000018394312000000010410403230405063506372166080323000006855390   1030000200030000   333300010001203104000003632Myanmar Tradenet Test  Yangon        MMR11003230405063506370323000000000000000   10300001F05104100000000010000000000000000     
100   95050314735271470000000000004900000000004900002000000010410403230410224022598408030323000006855445   1020000200030000   333400010001204104000000281Myanmar Soft-Gate Tech Yangon        MMR11003230410224022590323000000000000000   10300001F05104100000000001029000000000000     
100   62911028202446700000000000001500000000001500002000000010410403231152332233944052100323000006859004   1030000200030000   333800010001203104000003327KBZPay                 Yangon        MMR11003231152332233940323000000000000000   10300001F05104100000000000315000000000000     
100   95050310427855490000000000001960000000001960002000000010410403230259102910245075490323000006854712   1020000200030000   333400010001204104000000281Myanmar Soft-Gate Tech Yangon        MMR11003230259102910240323000000000000000   10300001F05104100000000000412000000000000     
100   95050314567755980000000000000920000000000920002000000010410403230933550355464016530323000006858137   1030000200030000   333800010001203104000003327KBZPay                 Yangon        MMR11003230933550355460323000000000000000   10300001F05104100000000000193000000000000     
100   62443101071845130000000000018394310000018394312000000010410403230638240824569498340323000006856764   1030000200030000   333300010001203104000003632Myanmar Tradenet Test  Yangon        MMR11003230638240824560323000000000000000   10300001F05104100000000010000000000000000     
100   95050316785465380000000000000980000000000980002000000010410403231250552055937186950323000006859325   1020000200030000   333400010001204104000000281Myanmar Soft-Gate Tech Yangon        MMR11003231250552055930323000000000000000   10300001F05104100000000000206000000000000     
100   62443101071845130000000000018394310000018394312000000010410403230359332933876989020323000006855318   1030000200030000   333300010001203104000003632Myanmar Tradenet Test  Yangon        MMR11003230359332933870323000000000000000   10300001F05104100000000010000000000000000     
100   62911028202169750000000000030000000000030000002000000010410403220356240184284052100322208110018428   1030000500030000   598320002102000015172200021MAX ENERGY             PTN           MMR11003220356240184280322000000000000000   10300001 00104100000000000900000000000000     
100   62911028202417000000000000021500000000021500002000000010410403230915026336444052100323175451502081   1030000900030000   541119001206190110000000948City Mart YK C 4       YANGONAUNG    MMR11003230915026336440323000000000000000   10300001F00104100000000001290000000000000     
100   62911028202313470000000000028133000000028133002000000010410403230438516271744052100323285081151081   1030000900030000   541119001357190110000000977Ocean PZD C 11         YANGONAUNG    MMR11003230438516271740323000000000000000   10300001F00104100000000001688000000000000     
100   62911028202462200000000000030800000000030800002000000010410403230529496283604052100323006591149081   1030000900030000   591219000604190110000000444Shwe Ohh Pharmacy St-1 YANGON        MMR11003230529496283600323000000000000000   10300001F00104100000000001848000000000000     
100   62911028202110420000000000008200000000008200002000000010410403230746386315104052100323899161438081   1030000900030000   581219000946190110000000753Shwepalin Samone Resid YANGON        MMR11003230746386315100323000000000000000   10300001F00104100000000000836000000000000     
100   62911028202143500000000000053500000000053500002000000010410403220854300056554052100322208115005655   1030000500030000   598320002104000015172200021MAX ENERGY             PTN           MMR11003220854300056550322000000000000000   10300001 00104100000000001605000000000000     
100   62911028202462200000000000026650000000026650002000000010410403230526396282934052100323968561139081   1030000900030000   591219000604190110000000444Shwe Ohh Pharmacy St-1 YANGON        MMR11003230526396282930323000000000000000   10300001F00104100000000001599000000000000     
100   62911028202668140000000000019850000000019850002000000010410403231017396353124052100323174471639081   1030000900030000   541119000165190110000000085SeinGayHar (Dagon Cent YANGONUNG     MMR11003231017396353120323000000000000000   10300001F00104100000000001191000000000000     
100   95050318670242480000000000300000000000300000002000000010410403230707363736886775260323000006856993   1030000200030000   333800010001203104000003327KBZPay                 Yangon        MMR11003230707363736880323000000000000000   10300001F05104100000000063000000000000000     
100   62911028202462200000000000078650000000078650002000000010410403230509024646704052100323208212464670   1040001600030000   591220000279000000010000267Shwe Ohh Pharmacy (Ar  Yangon        MMR11003230509024646700323000000000000000   10300001F00104100000000004719000000000000     
100   95050320205194540000000000050400000000050400002000000010410403230925164778396640720323208216477839   1040001600030000   591220000295000000010000283Shwe Ohh Pharmacy (39t Yangon        MMR11003230925164778390323000000000000000   10300001F00104100000000012096000000000000     
100   95050322104201170000000000050000000000050000002000000010410403230439520952193888290323000006855751   1030000200030000   333800010001203104000003327KBZPay                 Yangon        MMR11003230439520952190323000000000000000   10300001F05104100000000010500000000000000     
100   95050318057347910000000000001960000000001960002000000010410403230844431443866215240323000006857785   1020000200030000   333400010001204104000000281Myanmar Soft-Gate Tech Yangon        MMR11003230844431443860323000000000000000   10300001F05104100000000000412000000000000     
100   95050319938772870000000000000980000000000980002000000010410403231252032203928924530323000006859328   1020000200030000   333400010001204104000000281Myanmar Soft-Gate Tech Yangon        MMR11003231252032203920323000000000000000   10300001F05104100000000000206000000000000     
100   95050316785465380000000000001960000000001960002000000010410403230351112111423371190323000006855254   1020000200030000   333400010001204104000000281Myanmar Soft-Gate Tech Yangon        MMR11003230351112111420323000000000000000   10300001F05104100000000000412000000000000     
100   95050320360851930000000000002940000000002940002000000010410403230608283828904030310323000006856541   1020000200030000   333400010001204104000000281Myanmar Soft-Gate Tech Yangon        MMR11003230608283828900323000000000000000   10300001F05104100000000000617000000000000     
100   62911028202116120000000000033684000000033684002000000010410403231202436380454052100323088321843081   1030000900030000   541119001189190110000000942City Mart HDC C 4      YANGONUT      MMR11003231202436380450323000000000000000   10300001F00104100000000002021000000000000     
100   62443101071845130000000000018394310000018394312000000010410403230323165316855289420323000006854945   1030000200030000   333300010001203104000003632Myanmar Tradenet Test  Yangon        MMR11003230323165316850323000000000000000   10300001F05104100000000010000000000000000     
100   62911028202527800000000000025000000000025000002000000010410403220201590000254052100322208108000025   1030000500030000   598320001601000015172200016MAX ENERGY             PTN           MMR11003220201590000250322000000000000000   10300001 00104100000000000750000000000000     
100   95050310616516480000000000003000000000003000002000000010410403230528595859587767330323000006856233   1030000200030000   3334000100012031040000040102C2P (Myanmar) Co. Ltd Yangon        MMR11003230528595859580323000000000000000   10300001F05104100000000000630000000000000     
100   62443100330727820000000000120300000000120300002000000010410403230215045323694867310323139440802081   1030000300030000   555510124690104519000020166Makro Myanmar                        MMR11003230215045323690323000000000000000   10300001 00104100000000028872000000000000     
100   95050319978637470000000000010000000000010000002000000010410403230633410341651150830323000006856765   1030000200030000   3338000100012031040000040022C2P (Myanmar) Co. Ltd Yangon        MMR11003230633410341650323000000000000000   10300001F05104100000000002100000000000000     
100   95030349489765520000000000015000000000015000002000000010410403231614564456974052100323000006860151   1030000200030000   333800010001203104000003327KBZPay                 Yangon        MMR11003231614564456970323000000000000000   10300001F05104100000000003150000000000000     
100   95030316535481960000000000125550000000125550002000000010410403230719044718574052100323208214471857   1040001600030000   591220000282000000010000270Shwe Ohh Pharmacy (Shw Yangon        MMR11003230719044718570323000000000000000   10300001F00104100000000007533000000000000     
100   95050311959900780000000000000980000000000980002000000010410403230408393839327414490323000006855428   1020000200030000   333400010001204104000000281Myanmar Soft-Gate Tech Yangon        MMR11003230408393839320323000000000000000   10300001F05104100000000000206000000000000     
