100   62911028202484810000000000045000000000045000002000000010410403231010010215864052100323208216021586   1030000500030000   598320001602000015172200016MAX ENERGY             PTN           MMR11003231010010215860323000000000000000   10300001 00104100000000001350000000000000     
100   62911028202197630000000000010000000000010000002000000010410403230418070739614052100323208204073961   1030000600030000   554100000946315799420000471DENKO BAHAN            YANGON        MMR11003230418070739610323000000000000000   10300001 00104100000000000300000000000000     
100   62911028202610960000000000091000000000091000002000000010410403230744120740054052100323208207074005   1030000600030000   554100000946315799420000471DENKO BAHAN            YANGON        MMR11003230744120740050323000000000000000   10300001 00104100000000002730000000000000     
100   95050319753756490000000000050000000000050000002000000010410403240153452345522490500324000006860889   1030000200030000   333800010001203104000003327KBZPay                 Yangon        MMR11003240153452345520324000000000000000   10300001F05104100000000010500000000000000     
100   62911028202202580000000000017650000000017650002000000010410403240310036460344052100324868400903082   1030000900030000   591219000970190110000000777Shwe Ohh Pharmacy St ( YANGONAW      MMR11003240310036460340324000000000000000   10300001F00104100000000001059000000000000     
100   95050310397364970000000000000980000000000980002000000010410403232347181718873796890324000006860511   1020000200030000   333400010001204104000000281Myanmar Soft-Gate Tech Yangon        MMR11003232347181718870324000000000000000   10300001F05104100000000000206000000000000     
100   95050317338786370000000000003000000000003000002000000010410403240159472947987107570324000006860916   1030000200030000   3334000100012031040000040102C2P (Myanmar) Co. Ltd Yangon        MMR11003240159472947980324000000000000000   10300001F05104100000000000630000000000000     
100   95050318131043910000000000004900000000004900002000000010410403240611564156709512130324000006863086   1020000200030000   333400010001204104000000281Myanmar Soft-Gate Tech Yangon        MMR11003240611564156700324000000000000000   10300001F05104100000000001029000000000000     
100   95050311077567400000000000018500000000018500002000000010410403241054176571518191960324336241717082   1030000900030000   541119000151190110000000083SeinGayHarParami Cente YANGON        MMR11003241054176571510324000000000000000   10300001F00104100000000004625000000000000     
100   95050314950595330000000000001000000000001000002000000010410403241254262426805908150324000006866060   1030000200030000   3338000100012031040000040022C2P (Myanmar) Co. Ltd Yangon        MMR11003241254262426800324000000000000000   10300001F05104100000000000210000000000000     
100   95030307100064460000000000063000000000063000002000000010410403240211576452604052100324504410857082   1030000900030000   554119000345190110000000212New Day Energy PZD     YANGONAUNG    MMR11003240211576452600324000000000000000   10300001F00104100000000001890000000000000     
100   95050313123223200000000000000980000000000980002000000010410403240526555655860994420324000006862735   1020000200030000   333400010001204104000000281Myanmar Soft-Gate Tech Yangon        MMR11003240526555655860324000000000000000   10300001F05104100000000000206000000000000     
100   95050324154190880000000000002940000000002940002000000010410403240527185718362646910324000006862746   1020000200030000   333400010001204104000000281Myanmar Soft-Gate Tech Yangon        MMR11003240527185718360324000000000000000   10300001F05104100000000000617000000000000     
100   95050323133124350000000000004900000000004900002000000010410403240317314731648384010324000006861465   1020000200030000   333400010001204104000000281Myanmar Soft-Gate Tech Yangon        MMR11003240317314731640324000000000000000   10300001F05104100000000001029000000000000     
100   62911028202132460000000000010423000000010423002000000010410403231050540010004052100323208217001000   1030000500030000   531120155803000045311201558GAMONE PWINT           PTN           MMR11003231050540010000323000000000000000   10300001 00104100000000000625000000000000     
100   95030301100124990000000000020000000000020000002000000010410403230129170232574052100323208207023257   1030000500030000   598320001901000015172200019MAX ENERGY             PTN           MMR11003230129170232570323000000000000000   10300001 00104100000000000600000000000000     
100   62911028202451150000000000068696000000068696002000000010410403241122465507774052100324226581753082   1030000500030000   555610122580104519000018896City Mart Hlaing Thar  ar            MMR11003241122465507770324000000000000000   10300001 00104100000000004122000000000000     
100   95050318057347910000000000002940000000002940002000000010410403240733190319682171980324000006863806   1020000200030000   333400010001204104000000281Myanmar Soft-Gate Tech Yangon        MMR11003240733190319680324000000000000000   10300001F05104100000000000617000000000000     
100   95050316421999920000000000017080000000017080002000000010410403240807326529126248530324803371432082   1030000900030000   541119001264190110000000958City Mart PLST C 7     YANGONMYOTHIT MMR11003240807326529120324000000000000000   10300001F00104100000000004270000000000000     
100   95050313763920110000000000030000000000030000002000000010410403240712564256235136570324000006863643   1030000200030000   333800010001203104000003327KBZPay                 Yangon        MMR11003240712564256230324000000000000000   10300001F05104100000000006300000000000000     
100   95050319161596230000000000000980000000000980002000000010410403240538480848258916460324000006862824   1020000200030000   333400010001204104000000281Myanmar Soft-Gate Tech Yangon        MMR11003240538480848250324000000000000000   10300001F05104100000000000206000000000000     
100   95050317100052460000000000000800000000000800002000000010410403241434090409585567760324000006866662   1030000200030000   333800010001203104000003327KBZPay                 Yangon        MMR11003241434090409580324000000000000000   10300001F05104100000000000168000000000000     
100   95050314557307430000000000001960000000001960002000000010410403240345081508165490740324000006861751   1020000200030000   333400010001204104000000281Myanmar Soft-Gate Tech Yangon        MMR11003240345081508160324000000000000000   10300001F05104100000000000412000000000000     
100   95050317343045830000000000000980000000000980002000000010410403240351582158637313420324000006861823   1020000200030000   333400010001204104000000281Myanmar Soft-Gate Tech Yangon        MMR11003240351582158630324000000000000000   10300001F05104100000000000206000000000000     
100   95050310427855490000000000002940000000002940002000000010410403240200013001995455090324000006860920   1020000200030000   333400010001204104000000281Myanmar Soft-Gate Tech Yangon        MMR11003240200013001990324000000000000000   10300001F05104100000000000617000000000000     
100   95050312498129060000000000000980000000000980002000000010410403241114574457968787630324000006865512   1020000200030000   333400010001204104000000281Myanmar Soft-Gate Tech Yangon        MMR11003241114574457960324000000000000000   10300001F05104100000000000206000000000000     
100   95050316818236190000000000000980000000000980002000000010410403240343221322050291790324000006861724   1020000200030000   333400010001204104000000281Myanmar Soft-Gate Tech Yangon        MMR11003240343221322050324000000000000000   10300001F05104100000000000206000000000000     
100   95050312498129060000000000000980000000000980002000000010410403240611484148071164620324000006863083   1020000200030000   333400010001204104000000281Myanmar Soft-Gate Tech Yangon        MMR11003240611484148070324000000000000000   10300001F05104100000000000206000000000000     
100   62443100301716860000000000001960000000001960002000000010410403240735490549063909560324000006863831   1020000200030000   333400010001204104000000281Myanmar Soft-Gate Tech Yangon        MMR11003240735490549060324000000000000000   10300001F05104100000000000412000000000000     
100   95050318180584510000000000004500000000004500002000000010410403240911194119790319370324000006864686   1030000200030000   333800010001203104000003327KBZPay                 Yangon        MMR11003240911194119790324000000000000000   10300001F05104100000000000945000000000000     
100   95050327883696130000000000040000000000040000002000000010410403240239010901192915990324000006861163   1030000200030000   333800010001203104000003327KBZPay                 Yangon        MMR11003240239010901190324000000000000000   10300001F05104100000000008400000000000000     
100   95050311959900780000000000000980000000000980002000000010410403240257242724947618150324000006861297   1020000200030000   333400010001204104000000281Myanmar Soft-Gate Tech Yangon        MMR11003240257242724940324000000000000000   10300001F05104100000000000206000000000000     
100   95050316067768680000000000001960000000001960002000000010410403241231450145302603180324000006865943   1020000200030000   333400010001204104000000281Myanmar Soft-Gate Tech Yangon        MMR11003241231450145300324000000000000000   10300001F05104100000000000412000000000000     
100   95050319502933380000000000000980000000000980002000000010410403241153552355649128020324000006865734   1020000200030000   333400010001204104000000281Myanmar Soft-Gate Tech Yangon        MMR11003241153552355640324000000000000000   10300001F05104100000000000206000000000000     
100   95050316818236190000000000002940000000002940002000000010410403241102183218323659990324000006865441   1020000200030000   333400010001204104000000281Myanmar Soft-Gate Tech Yangon        MMR11003241102183218320324000000000000000   10300001F05104100000000000617000000000000     
100   95050315110306410000000000001960000000001960002000000010410403240009163916084392560324000006860544   1020000200030000   333400010001204104000000281Myanmar Soft-Gate Tech Yangon        MMR11003240009163916080324000000000000000   10300001F05104100000000000412000000000000     
100   95050316321163940000000000000980000000000980002000000010410403241545201520667305340324000006866999   1020000200030000   333400010001204104000000281Myanmar Soft-Gate Tech Yangon        MMR11003241545201520660324000000000000000   10300001F05104100000000000206000000000000     
100   95050311959900780000000000000980000000000980002000000010410403240255322532815880570324000006861275   1020000200030000   333400010001204104000000281Myanmar Soft-Gate Tech Yangon        MMR11003240255322532810324000000000000000   10300001F05104100000000000206000000000000     
100   95050315099113150000000000004900000000004900002000000010410403241601263126125652860324000006867080   1020000200030000   333400010001204104000000281Myanmar Soft-Gate Tech Yangon        MMR11003241601263126120324000000000000000   10300001F05104100000000001029000000000000     
100   95050325139996190000000000150000000000150000002000000010410403240414424442994093550324000006862046   1030000300030000   333300010001206104000002147DICA Company Limited   Yangon        MMR11003240414424442990324000000000000000   10300001F05104100000000010000000000000000     
100   95050311121153200000000000000980000000000980002000000010410403240859272927432312240324000006864594   1020000200030000   333400010001204104000000281Myanmar Soft-Gate Tech Yangon        MMR11003240859272927430324000000000000000   10300001F05104100000000000206000000000000     
100   95050316818236190000000000000980000000000980002000000010410403241059282928003149410324000006865386   1020000200030000   333400010001204104000000281Myanmar Soft-Gate Tech Yangon        MMR11003241059282928000324000000000000000   10300001F05104100000000000206000000000000     
100   95050310794962000000000000005000000000005000002000000010410403240335110511248469110324000006861656   1030000200030000   3338000100012031040000040022C2P (Myanmar) Co. Ltd Yangon        MMR11003240335110511240324000000000000000   10300001F05104100000000001050000000000000     
100   95050316997303010000000000001960000000001960002000000010410403241339430943059298210324000006866341   1020000200030000   333400010001204104000000281Myanmar Soft-Gate Tech Yangon        MMR11003241339430943050324000000000000000   10300001F05104100000000000412000000000000     
100   95050314117051850000000000000980000000000980002000000010410403240453032303708831360324000006862420   1020000200030000   333400010001204104000000281Myanmar Soft-Gate Tech Yangon        MMR11003240453032303700324000000000000000   10300001F05104100000000000206000000000000     
100   95050318057347910000000000000980000000000980002000000010410403241206393639349213120324000006865810   1020000200030000   333400010001204104000000281Myanmar Soft-Gate Tech Yangon        MMR11003241206393639340324000000000000000   10300001F05104100000000000206000000000000     
100   62911028202163480000000000100000000000100000002000000010410403240609463946994052100324000006863062   1030000500030000   333800010001201104000003863AYA Pay                Yangon        MMR11003240609463946990324000000000000000   10300001F05104100000000021000000000000000     
100   95050324154190880000000000000980000000000980002000000010410403241114334433180440120324000006865502   1020000200030000   333400010001204104000000281Myanmar Soft-Gate Tech Yangon        MMR11003241114334433180324000000000000000   10300001F05104100000000000206000000000000     
100   95050317343045830000000000000980000000000980002000000010410403240258592859220923120324000006861310   1020000200030000   333400010001204104000000281Myanmar Soft-Gate Tech Yangon        MMR11003240258592859220324000000000000000   10300001F05104100000000000206000000000000     
100   95050313732480420000000000002940000000002940002000000010410403240714154415833994660324000006863655   1020000200030000   333400010001204104000000281Myanmar Soft-Gate Tech Yangon        MMR11003240714154415830324000000000000000   10300001F05104100000000000617000000000000     
100   95050318180584510000000000001960000000001960002000000010410403240134430443637447960324000006860757   1020000200030000   333400010001204104000000281Myanmar Soft-Gate Tech Yangon        MMR11003240134430443630324000000000000000   10300001F05104100000000000412000000000000     
100   95050325139996190000000000093600000000093600002000000010410403240312524252168298920324000006861422   1030000200030000   333300010001203104000003632Myanmar Tradenet Test  Yangon        MMR11003240312524252160324000000000000000   10300001F05104100000000010000000000000000     
100   95050317100052460000000000000800000000000800002000000010410403240506473647228490980324000006862545   1030000200030000   333800010001203104000003327KBZPay                 Yangon        MMR11003240506473647220324000000000000000   10300001F05104100000000000168000000000000     
100   95050313062063490000000000000980000000000980002000000010410403240047071707055789760324000006860622   1020000200030000   333400010001204104000000281Myanmar Soft-Gate Tech Yangon        MMR11003240047071707050324000000000000000   10300001F05104100000000000206000000000000     
100   95030389156816320000000000074300000000074300002000000010410403240341421142104052100324000006861712   1030000200030000   333800010001203104000003327KBZPay                 Yangon        MMR11003240341421142100324000000000000000   10300001F05104100000000015603000000000000     
100   95050319161596230000000000000980000000000980002000000010410403240242111211396306050324000006861185   1020000200030000   333400010001204104000000281Myanmar Soft-Gate Tech Yangon        MMR11003240242111211390324000000000000000   10300001F05104100000000000206000000000000     
100   95030301100120850000000000005000000000005000002000000010410403240656532653514052100324000006863463   1030000200030000   333800010001203104000003327KBZPay                 Yangon        MMR11003240656532653510324000000000000000   10300001F05104100000000001050000000000000     
100   95050316949180000000000000002940000000002940002000000010410403240913094309040404460324000006864706   1020000200030000   333400010001204104000000281Myanmar Soft-Gate Tech Yangon        MMR11003240913094309040324000000000000000   10300001F05104100000000000617000000000000     
100   95050312106296360000000000011150000000011150002000000010410403240733360336110519500324000006863784   1030000200030000   333800010001203104000003327KBZPay                 Yangon        MMR11003240733360336110324000000000000000   10300001F05104100000000002342000000000000     
100   95050314557307430000000000005880000000005880002000000010410403241142211221287475540324000006865667   1020000200030000   333400010001204104000000281Myanmar Soft-Gate Tech Yangon        MMR11003241142211221280324000000000000000   10300001F05104100000000001235000000000000     
100   95050315122972560000000000002940000000002940002000000010410403240338350835195249240324000006861678   1020000200030000   333400010001204104000000281Myanmar Soft-Gate Tech Yangon        MMR11003240338350835190324000000000000000   10300001F05104100000000000617000000000000     
100   95050311382087030000000000005500000000005500002000000010410403240512234223886838490324000006862585   1030000200030000   333800010001203104000003327KBZPay                 Yangon        MMR11003240512234223880324000000000000000   10300001F05104100000000001155000000000000     
100   95050316818236190000000000000980000000000980002000000010410403240345551555943838260324000006861752   1020000200030000   333400010001204104000000281Myanmar Soft-Gate Tech Yangon        MMR11003240345551555940324000000000000000   10300001F05104100000000000206000000000000     
100   62911028202169750000000000036914000000036914002000000010410403241013555436734052100324208317543673   1040001600030000   541120000559000000010000465Ocean Shwe Gone Daing  Yangon        MMR11003241013555436730324000000000000000   10300001F00104100000000002215000000000000     
100   62911028202291190000000000119000000000119000002000000010410403240841455482684052100324770111517082   1030000500030000   555610112249104519000010487Ocean Super Center St  ohn           MMR11003240841455482680324000000000000000   10300001 00104100000000007140000000000000     
100   62911028202189480000000000006800000000006800002000000010410403240240345216694052100324208309521669   1040001600030000   591220000260000000010000248Shwe Ohh Pharmacy (KDL Yangon        MMR11003240240345216690324000000000000000   10300001F00104100000000000408000000000000     
100   95050317517212300000000000044400000000044400002000000010410403240815385374636418730324208315537463   1040001600030000   541120000569000000010000465Ocean Shwe Gone Daing  Yangon        MMR11003240815385374630324000000000000000   10300001F00104100000000011100000000000000     
100   62911028202027440000000000030000000000030000002000000010410403240129355433224052100324293570735082   1030000300030000   888810125460104519000021287Shwe Taung Energy CoLt               MMR11003240129355433220324000000000000000   10300001 00104100000000000900000000000000     
100   95030301100121270000000000003000000000003000002000000010410403240612025461294052100324813421215082   1030000300030000   444410113806104519000011882Shwepalin Junction Cit Level2        MMR11003240612025461290324000000000000000   10300001 00104100000000000306000000000000     
100   62911028202524260000000000141300000000141300002000000010410403240621035462734052100324988501215082   1030000300030000   555510124688104519000020166Makro Myanmar                        MMR11003240621035462730324000000000000000   10300001 00104100000000008478000000000000     
100   95050316124652250000000000002940000000002940002000000010410403241218254825784255670324000006865875   1020000200030000   333400010001204104000000281Myanmar Soft-Gate Tech Yangon        MMR11003241218254825780324000000000000000   10300001F05104100000000000617000000000000     
100   95050317578818060000000000002100000000002100002000000010410403240957475493757681380324274341630082   1030000500030000   555610104032104519000003821City Mart North Point  enter         MMR11003240957475493750324000000000000000   10300001 00104100000000000525000000000000     
100   95050319006804440000000000018394310000018394312000000010410403240815384538809383310324000006864185   1030000200030000   333300010001203104000003632Myanmar Tradenet Test  Yangon        MMR11003240815384538800324000000000000000   10300001F05104100000000010000000000000000     
100   95030337100000390000000000147550000000147550002000000010410403240538025299474052100324208312529947   1040001600030000   591220000288000000010000276Shwe Ohh Pharmacy (Nor Yangon        MMR11003240538025299470324000000000000000   10300001F00104100000000008853000000000000     
100   62911028202789750000000000030000000000030000002000000010410403240910275486304052100324272401528082   1030000300030000   555510125344104519000010634Asia Royal Co Ltd                    MMR11003240910275486300324000000000000000   10300001 00104100000000001800000000000000     
100   95050329780998140000000000698400000000698400002000000010410403241027195447928362150324208317544792   1040001600030000   509420000084000000010000080KKA Gold & Jewellery   Mandalay      MMR11003241027195447920324000000000000000   10300001F00104100000000279360000000000000     
100   95050310457113440000000000025000000000025000002000000010410403240417524752409731770324000006862111   1030000200030000   333800010001203104000003327KBZPay                 Yangon        MMR11003240417524752400324000000000000000   10300001F05104100000000005250000000000000     
100   62911028202291190000000000020000000000020000002000000010410403240830305482174052100324684071541082   1030000500030000   555610112253104519000010487Ocean Super Center St  ohn           MMR11003240830305482170324000000000000000   10300001 00104100000000001200000000000000     
100   95050319709462380000000000010000000000010000002000000010410403240115434543224057890324000006860686   1030000200030000   3338000100012031040000040022C2P (Myanmar) Co. Ltd Yangon        MMR11003240115434543220324000000000000000   10300001F05104100000000002100000000000000     
100   95050320335873810000000000020000000000020000002000000010410403240922135213657610080324000006864777   1030000200030000   333800010001203104000003327KBZPay                 Yangon        MMR11003240922135213650324000000000000000   10300001F05104100000000004200000000000000     
100   95050319788089010000000000050000000000050000002000000010410403241322575257517645730324000006866236   1030000200030000   333800010001203104000003327KBZPay                 Yangon        MMR11003241322575257510324000000000000000   10300001F05104100000000010500000000000000     
100   95050316949180000000000000000980000000000980002000000010410403240223505350035625280324000006861078   1020000200030000   333400010001204104000000281Myanmar Soft-Gate Tech Yangon        MMR11003240223505350030324000000000000000   10300001F05104100000000000206000000000000     
100   95030301100319290000000000002940000000002940002000000010410403240519264926314052100324000006862667   1020000200030000   333400010001204104000000281Myanmar Soft-Gate Tech Yangon        MMR11003240519264926310324000000000000000   10300001F05104100000000000617000000000000     
100   62911028202243910000000000067450000000067450002000000010410403240817255479204052100324278451427082   1030000300030000   555510124364104519000020166Makro Myanmar                        MMR11003240817255479200324000000000000000   10300001 00104100000000004047000000000000     
100   95050316717221100000000000000980000000000980002000000010410403240408543854266086420324000006862012   1020000200030000   333400010001204104000000281Myanmar Soft-Gate Tech Yangon        MMR11003240408543854260324000000000000000   10300001F05104100000000000206000000000000     
100   62911028202291190000000000036439000000036439002000000010410403240855265484554052100324027261504082   1030000500030000   555610112240104519000010487Ocean Super Center St  ohn           MMR11003240855265484550324000000000000000   10300001 00104100000000002186000000000000     
100   95050317517212300000000000005500000000005500002000000010410403240800435368207725110324208315536820   1040001600030000   541120000555000000010000465Ocean Shwe Gone Daing  Yangon        MMR11003240800435368200324000000000000000   10300001F00104100000000001375000000000000     
100   62911028202524830000000000011750000000011750002000000010410403241122545496094052100324208318549609   1040001600030000   591220000259000000010000247Shwe Ohh Pharmacy (KKT Yangon        MMR11003241122545496090324000000000000000   10300001F00104100000000000705000000000000     
100   95030301100121270000000000011550000000011550002000000010410403240551475458454052100324404191249082   1030000300030000   444410124838104519000020784Cafe Amazon Junction C ty            MMR11003240551475458450324000000000000000   10300001 00104100000000001178000000000000     
100   62443100333488440000000000023000000000023000002000000010410403240627445463785150360324140571246082   1030000300030000   444410106710104519000005921YKKO Bahan 2                         MMR11003240627445463780324000000000000000   10300001 00104100000000009775000000000000     
100   62911028202154720000000000012300000000012300002000000010410403241002315493614052100324257331610082   1030000300030000   444410118915104519000016097SP Bakery Yangon SR 1                MMR11003241002315493610324000000000000000   10300001 00104100000000001255000000000000     
100   95050313547265370000000000150000000000150000002000000010410403240817114711422773370324000006864208   1030000200030000   333800010001203104000003327KBZPay                 Yangon        MMR11003240817114711420324000000000000000   10300001F05104100000000031500000000000000     
100   62911028202012660000000000047600000000047600002000000010410403240644155466034052100324467131358082   1030000500030000   555610112233104519000010487Ocean Super Center St  ohn           MMR11003240644155466030324000000000000000   10300001 00104100000000002856000000000000     
100   95050322957045260000000000120000000000120000002000000010410403241029445944273319610324000006865277   1030000200030000   3338000100012031040000040022C2P (Myanmar) Co. Ltd Yangon        MMR11003241029445944270324000000000000000   10300001F05104100000000025200000000000000     
100   62911028202112730000000000144306000000144306002000000010410403241232135516754052100324435001903082   1030000500030000   555610112234104519000010487Ocean Super Center St  ohn           MMR11003241232135516750324000000000000000   10300001 00104100000000008658000000000000     
100   95050327416134790000000000004900000000004900002000000010410403240628225822840192900324000006863222   1020000200030000   333400010001204104000000281Myanmar Soft-Gate Tech Yangon        MMR11003240628225822840324000000000000000   10300001F05104100000000001029000000000000     
100   95050317578818060000000000020232000000020232002000000010410403240952115493016284190324174281640082   1030000500030000   555610104032104519000003821City Mart North Point  enter         MMR11003240952115493010324000000000000000   10300001 00104100000000005058000000000000     
100   62911028202161240000000000020000000000020000002000000010410403241145015516404052100324208318551640   1040001600030000   598320000658000000010000527Shwe Taung Energy (YGN Yangon        MMR11003241145015516400324000000000000000   10300001F00104100000000000600000000000000     
100   95050314893649800000000000003920000000003920002000000010410403240828295829003539240324000006864306   1020000200030000   333400010001204104000000281Myanmar Soft-Gate Tech Yangon        MMR11003240828295829000324000000000000000   10300001F05104100000000000823000000000000     
100   62911028202212490000000000004600000000004600002000000010410403240403016470364052100324370331001082   1030000900030000   581219000715190110000000546Akkhaya Tea House(Dago YANGON        MMR11003240403016470360324000000000000000   10300001F00104100000000000469000000000000     
100   62443100313002190000000000009500000000009500002000000010410403241032525499203404700324043071719082   1030000500030000   555610122353104519000018696CityMartSupermarket Sh ePyiTha       MMR11003241032525499200324000000000000000   10300001 00104100000000002375000000000000     
100   95050322104201170000000000015000000000015000002000000010410403240328335833527157010324000006861568   1030000200030000   333800010001203104000003327KBZPay                 Yangon        MMR11003240328335833520324000000000000000   10300001F05104100000000003150000000000000     
100   62443100330105920000000000043532000000043532002000000010410403241008016558841582030324508381601082   1030000900030000   541119001349190110000000977Ocean PZD C 3          YANGONAUNG    MMR11003241008016558840324000000000000000   10300001F00104100000000010883000000000000     
100   95050310332595380000000000000980000000000980002000000010410403240225045504360582730324000006861093   1020000200030000   333400010001204104000000281Myanmar Soft-Gate Tech Yangon        MMR11003240225045504360324000000000000000   10300001F05104100000000000206000000000000     
100   95050312498129060000000000000980000000000980002000000010410403240125185518192405410324000006860718   1020000200030000   333400010001204104000000281Myanmar Soft-Gate Tech Yangon        MMR11003240125185518190324000000000000000   10300001F05104100000000000206000000000000     
100   95050324154190880000000000002940000000002940002000000010410403240525435543969256840324000006862715   1020000200030000   333400010001204104000000281Myanmar Soft-Gate Tech Yangon        MMR11003240525435543960324000000000000000   10300001F05104100000000000617000000000000     
100   62911028202481760000000000041050000000041050002000000010410403230352100001484052100323208210000148   1030000500030000   806220172403013008062201724GRAND HANTHA HOSPITAL  PTN           MMR11003230352100001480323000000000000000   10300001 00104100000000002463000000000000     
100   62911028202482830000000000064000000000064000002000000010410403230557130001554052100323208212000155   1030000500030000   806220172403013008062201724GRAND HANTHA HOSPITAL  PTN           MMR11003230557130001550323000000000000000   10300001 00104100000000003840000000000000     
100   62443100393841160000000000020000000000020000002000000010410403231303400052510577020323208213005251   1030000600030000   554100001226315799420000679DENKO MAGWAY - 2       MAGWAY        MMR11003231303400052510323000000000000000   10300001 00104100000000002400000000000000     
100   62911028202162640000000000045500000000045500002000000010410403231113060025244052100323208217002524   1030000500030000   591220132901008605912201329THEIK DI WIN SHOP      PTN           MMR11003231113060025240323000000000000000   10300001 00104100000000002730000000000000     
100   95050325925517520000000000050000000000050000002000000010410403230604590215390640250323208212021539   1030000500030000   598320001602000015172200016MAX ENERGY             PTN           MMR11003230604590215390323000000000000000   10300001 00104100000000006000000000000000     
100   62911028202132460000000000017500000000017500002000000010410403231122590010074052100323208217001007   1030000500030000   531120155805000045311201558GAMONE PWINT           PTN           MMR11003231122590010070323000000000000000   10300001 00104100000000001050000000000000     
100   95030333409030400000000000040000000000040000002000000010410403230323040198894052100323208209019889   1030000500030000   598320001001000015172200010MAX ENERGY             PTN           MMR11003230323040198890323000000000000000   10300001 00104100000000001200000000000000     
100   95030308100042590000000000015000000000015000002000000010410403230616400040034052100323000336503125   1030000300030000   581400000753000000000000518CB BANK                KFC (HLD)     MMR11003230616400040030323000000000000000   10300001F00104100000000000450000000000000     
100   95050315833864180000000000012900000000012900002000000010410403241047246569779674250324221171724082   1030000900030000   541119000141190110000000083SeinGayHarParami Cente YANGON        MMR11003241047246569770324000000000000000   10300001F00104100000000003225000000000000     
100   62911028202366010000000000040100000000040100002000000010410403240816456531354052100324936461445082   1030000900030000   541119001328190110000000971Ocean Junction NPT C6  NAYPYITAW     MMR11003240816456531350324000000000000000   10300001F00104100000000002406000000000000     
100   62911028202417000000000000020600000000020600002000000010410403240433006477174052100324758031100082   1030000900030000   541119001206190110000000948City Mart YK C 4       YANGONAUNG    MMR11003240433006477170324000000000000000   10300001F00104100000000001236000000000000     
100   95030301100305820000000000021427000000021427002000000010410403240731166520494052100324324011416082   1030000900030000   541119001280190110000000963City Mart SPL C 5      YANGONMYOTHIT MMR11003240731166520490324000000000000000   10300001F00104100000000001286000000000000     
100   62911028202313470000000000018050000000018050002000000010410403240950336554614052100324280201633082   1030000900030000   541119001358190110000000977Ocean PZD C 12         YANGONAUNG    MMR11003240950336554610324000000000000000   10300001F00104100000000001083000000000000     
100   62443100379321630000000000150000000000150000002000000010410403240947575491769418960324002211619082   1030000300030000   555510124686104519000020166Makro Myanmar                        MMR11003240947575491760324000000000000000   10300001 00104100000000036000000000000000     
100   62911028202534810000000000132600000000132600002000000010410403240604516499524052100324072341251082   1030000900030000   541119000285190110000000177Pro1 Global (Insein)   YANGON        MMR11003240604516499520324000000000000000   10300001F00104100000000007956000000000000     
100   62911028202359000000000000010000000000010000002000000010410403240954446555584052100324324241644082   1030000900030000   541119000547190110000000394Super One ShoppingMall YANGON        MMR11003240954446555580324000000000000000   10300001F00104100000000000600000000000000     
100   62911028202132460000000000010000000000010000002000000010410403231127570010094052100323208217001009   1030000500030000   531120155805000045311201558GAMONE PWINT           PTN           MMR11003231127570010090323000000000000000   10300001 00104100000000000600000000000000     
100   62443100325551180000000000063406000000063406002000000010410403230301470028987699690323208203002898   1030000600030000   5499000022273157994200015671 STOP S M BOGYOKE RD  YANGON        MMR11003230301470028980323000000000000000   10300001 00104100000000026948000000000000     
100   62911028202132040000000000014950000000014950002000000010410403230650090034444052100323208213003444   1030000500030000   503920036604000015039200366PRO-1 HOME CENTER      PTN           MMR11003230650090034440323000000000000000   10300001 00104100000000000897000000000000     
100   62911028202677390000000000020000000000020000002000000010410403230921150159994052100323208215015999   1030000500030000   598320002001000015172200020MAX ENERGY             PTN           MMR11003230921150159990323000000000000000   10300001 00104100000000000600000000000000     
100   62911028202703370000000000050000000000050000002000000010410403230200290161244052100323208208016124   1030000500030000   598320001402000015172200014MAX ENERGY             PTN           MMR11003230200290161240323000000000000000   10300001 00104100000000001500000000000000     
100   62443101006037900000000000010000000000010000002000000010410403231023090010212789520323208216001021   1030000500030000   598320001301000015172200013MAX ENERGY             PTN           MMR11003231023090010210323000000000000000   10300001 00104100000000001200000000000000     
100   62911028202284260000000000019903000000019903002000000010410403230524350012754052100323208211001275   1030000500030000   806220172406013008062201724GRAND HANTHA HOSPITAL  PTN           MMR11003230524350012750323000000000000000   10300001 00104100000000001194000000000000     
100   62911028202088990000000000030000000000030000002000000010410403230547290092954052100323208212009295   1030000500030000   598320001403000015172200014MAX ENERGY             PTN           MMR11003230547290092950323000000000000000   10300001 00104100000000000900000000000000     
100   95050310332595380000000000002940000000002940002000000010410403240225595559698930250324000006861099   1020000200030000   333400010001204104000000281Myanmar Soft-Gate Tech Yangon        MMR11003240225595559690324000000000000000   10300001F05104100000000000617000000000000     
100   62911028202249530000000000006900000000006900002000000010410403240425396475224052100324629551039082   1030000900030000   541119001274190110000000961City Mart PLST City Ca YANGONMYOTHIT MMR11003240425396475220324000000000000000   10300001F00104100000000000414000000000000     
100   95030301100118480000000000019350000000019350002000000010410403240539036492874052100324675091203082   1030000900030000   541119001208190110000000948City Mart YK C 6       YANGONAUNG    MMR11003240539036492870324000000000000000   10300001F00104100000000001161000000000000     
100   62443100333488440000000000018000000000018000002000000010410403240759556527143363330324696291455082   1030000900030000   554119001101190110000000213New Day Energy SOK     YANGONOKKALAP MMR11003240759556527140324000000000000000   10300001F00104100000000002160000000000000     
100   62443100306416880000000000044500000000044500002000000010410403231115350006269811150323208217000626   1030000500030000   569120057801016505691200578IMMI                   PTN           MMR11003231115350006260323000000000000000   10300001 00104100000000010680000000000000     
100   95050311121153200000000000000980000000000980002000000010410403240902013201660659750324000006864614   1020000200030000   333400010001204104000000281Myanmar Soft-Gate Tech Yangon        MMR11003240902013201660324000000000000000   10300001F05104100000000000206000000000000     
100   62911028202419650000000000015000000000015000002000000010410403241143106583864052100324200131810082   1030000900030000   591219001416190110000001020Life Plus Store 21     YANGONAUNG    MMR11003241143106583860324000000000000000   10300001F00104100000000000900000000000000     
100   95050315110306410000000000001960000000001960002000000010410403240003013301066045040324000006860535   1020000200030000   333400010001204104000000281Myanmar Soft-Gate Tech Yangon        MMR11003240003013301060324000000000000000   10300001F05104100000000000412000000000000     
100   62443100318296470000000000048000000000048000002000000010410403230656050011738186250323208213001173   1030000500030000   598320001303000015172200013MAX ENERGY             PTN           MMR11003230656050011730323000000000000000   10300001 00104100000000005760000000000000     
100   62911028202204560000000000034850000000034850002000000010410403231348210018704052100323208213001870   1030000600030000   581200000442315799420000068MR COW FOOD & BBQ 1    YANGON        MMR11003231348210018700323000000000000000   10300001 00104100000000003555000000000000     
100   62911028202023630000000000100000000000100000002000000010410403230413510036394052100323208204003639   1030000600030000   554100000746315799420000324DENKO SHANKALAY KYUN   MANDALAY      MMR11003230413510036390323000000000000000   10300001 00104100000000003000000000000000     
100   95030301100129110000000000040000000000040000002000000010410403230221360159284052100323208208015928   1030000500030000   598320001401000015172200014MAX ENERGY             PTN           MMR11003230221360159280323000000000000000   10300001 00104100000000001200000000000000     
100   62911028202655010000000000049021000000049021002000000010410403230959360215814052100323208216021581   1030000500030000   598320001602000015172200016MAX ENERGY             PTN           MMR11003230959360215810323000000000000000   10300001 00104100000000001471000000000000     
100   62911028202485720000000000015000000000015000002000000010410403230821210186044052100323208214018604   1030000500030000   598320002102000015172200021MAX ENERGY             PTN           MMR11003230821210186040323000000000000000   10300001 00104100000000000450000000000000     
100   95030301100341540000000000035000000000035000002000000010410403231038400246224052100323208217024622   1030000500030000   598320001902000015172200019MAX ENERGY             PTN           MMR11003231038400246220323000000000000000   10300001 00104100000000001050000000000000     
100   62911028202397530000000000072000000000072000002000000010410403230245020229814052100323208202022981   1030000600030000   554100000725315799420000306DENKO MDY - 78         MANDALAY      MMR11003230245020229810323000000000000000   10300001 00104100000000002160000000000000     
100   62911028202110420000000000013700000000013700002000000010410403241057365502894052100324574291743082   1030000300030000   444410118915104519000016097SP Bakery Yangon SR 1                MMR11003241057365502890324000000000000000   10300001 00104100000000001397000000000000     
100   95050317903887690000000000000980000000000980002000000010410403240552562256417944750324000006862929   1020000200030000   333400010001204104000000281Myanmar Soft-Gate Tech Yangon        MMR11003240552562256410324000000000000000   10300001F05104100000000000206000000000000     
100   62443100330108240000000000000980000000000980002000000010410403241350192019823915280324000006866399   1020000200030000   333400010001204104000000281Myanmar Soft-Gate Tech Yangon        MMR11003241350192019820324000000000000000   10300001F05104100000000000206000000000000     
100   62443100372702000000000000140300000000140300002000000010410403241424016608097220250324523542001082   1030000900030000   581219000202190110000000105RedDot Brew House(Saya YANGON        MMR11003241424016608090324000000000000000   10300001F00104100000000059628000000000000     
100   62911028202248050000000000033000000000033000002000000010410403240233235436554052100324685020935082   1030000300030000   888810125460104519000021287Shwe Taung Energy CoLt               MMR11003240233235436550324000000000000000   10300001 00104100000000000990000000000000     
100   62911028202313470000000000060000000000060000002000000010410403230405540001824052100323208210000182   1030000500030000   598320001601000015172200016MAX ENERGY             PTN           MMR11003230405540001820323000000000000000   10300001 00104100000000001800000000000000     
100   95050325925517520000000000036000000000036000002000000010410403241006265430849333870324208317543084   1040001600030000   598320000838000000010000600Regency Petrol Station Ygn           MMR11003241006265430840324000000000000000   10300001F00104100000000004320000000000000     
100   62911028202150190000000000006100000000006100002000000010410403240415155447744052100324053551051082   1030000300030000   555510120538104519000017437Art and T8                           MMR11003240415155447740324000000000000000   10300001 00104100000000000366000000000000     
