100   95050318180584510000000000015000000000015000002000000010410403260518204820625731130326000006876296   1030000200030000   333800010001203104000003327KBZPay                 Yangon        MMR11003260518204820620326000000000000000   10300001F05104100000000003150000000000000     
100   95050325455962190000000000001960000000001960002000000010410403261022145214309887060326000006877825   1020000200030000   333400010001204104000000281Myanmar Soft-Gate Tech Yangon        MMR11003261022145214300326000000000000000   10300001F05104100000000000412000000000000     
100   62911028202466670000000000018600000000018600002000000010410403260758415713154052100326048291417084   1030000500030000   555610110576104519000009164City Mart China Town P int Cen       MMR11003260758415713150326000000000000000   10300001 00104100000000001116000000000000     
100   95050310427855490000000000001960000000001960002000000010410403260940061006212050130326000006877657   1020000200030000   333400010001204104000000281Myanmar Soft-Gate Tech Yangon        MMR11003260940061006210326000000000000000   10300001F05104100000000000412000000000000     
100   95050311173010810000000000002500000000002500002000000010410403260219154915914877920326000006875202   1030000900030000   333400010001202104000002022ACS                    Yangon        MMR11003260219154915910326000000000000000   10300001F05104100000000000525000000000000     
100   95050319925596540000000000014700000000014700002000000010410403251743561356974707730326000006874568   1020000200030000   333400010001204104000000281Myanmar Soft-Gate Tech Yangon        MMR11003251743561356970326000000000000000   10300001F05104100000000003087000000000000     
100   95050314557307430000000000001960000000001960002000000010410403260546361636121745390326000006876485   1020000200030000   333400010001204104000000281Myanmar Soft-Gate Tech Yangon        MMR11003260546361636120326000000000000000   10300001F05104100000000000412000000000000     
100   95050316321163940000000000000980000000000980002000000010410403261155182518220933550326000006878201   1020000200030000   333400010001204104000000281Myanmar Soft-Gate Tech Yangon        MMR11003261155182518220326000000000000000   10300001F05104100000000000206000000000000     
100   95050314641725490000000000020000000000020000002000000010410403260547416922648355330326348171241084   1030000900030000   541119001198190110000000942City Mart HDC C 13     YANGONUT      MMR11003260547416922640326000000000000000   10300001F00104100000000005000000000000000     
100   62443100391804560000000000002940000000002940002000000010410403260225435543419920470326000006875231   1020000200030000   333400010001204104000000281Myanmar Soft-Gate Tech Yangon        MMR11003260225435543410326000000000000000   10300001F05104100000000000617000000000000     
100   95050315150726490000000000000980000000000980002000000010410403260913294329846922480326000006877543   1020000200030000   333400010001204104000000281Myanmar Soft-Gate Tech Yangon        MMR11003260913294329840326000000000000000   10300001F05104100000000000206000000000000     
100   95050312020729360000000000403500000000403500002000000010410403260804176956009000450326824341417084   1030000900030000   594419001118190110000000899Zwe Htet Gems & Jewell YANGON        MMR11003260804176956000326000000000000000   10300001F00104100000000096840000000000000     
100   62443101007477200000000000057860000000057860002000000010410403261458077040404749100326875282107084   1030000900030000   581219001122190110000000903Malibu Bar             YANGONONE     MMR11003261458077040400326000000000000000   10300001F00104100000000024591000000000000     
100   95050320360851930000000000002940000000002940002000000010410403261248561856259110880326000006878421   1020000200030000   333400010001204104000000281Myanmar Soft-Gate Tech Yangon        MMR11003261248561856250326000000000000000   10300001F05104100000000000617000000000000     
100   95050317072727910000000000001960000000001960002000000010410403261311194119799621450326000006878508   1020000200030000   333400010001204104000000281Myanmar Soft-Gate Tech Yangon        MMR11003261311194119790326000000000000000   10300001F05104100000000000412000000000000     
100   95050313441999020000000000010050000000010050002000000010410403261016394639318234580326000006877804   1030000200030000   333800010001203104000003327KBZPay                 Yangon        MMR11003261016394639310326000000000000000   10300001F05104100000000002111000000000000     
100   95050313145843230000000000060000000000060000002000000010410403260313304330535643790326000006875501   1030000200030000   333800010001203104000003327KBZPay                 Yangon        MMR11003260313304330530326000000000000000   10300001F05104100000000012600000000000000     
100   95050312160676580000000000000980000000000980002000000010410403261216074607651018650326000006878279   1020000200030000   333400010001204104000000281Myanmar Soft-Gate Tech Yangon        MMR11003261216074607650326000000000000000   10300001F05104100000000000206000000000000     
100   62911028202446700000000000300000000000300000002000000010410403261022255225424052100326000006877826   1030000500030000   333800010001201104000003863AYA Pay                Yangon        MMR11003261022255225420326000000000000000   10300001F05104100000000063000000000000000     
100   95050324154190880000000000050807000000050807002000000010410403260356575675395986420326736321020084   1030000500030000   555610108774104519000003821City Mart North Point  enter         MMR11003260356575675390326000000000000000   10300001 00104100000000012702000000000000     
100   62911028202662690000000000150000000000150000002000000010410403260721385706954052100326159501303084   1030000300030000   555510124694104519000020166Makro Myanmar                        MMR11003260721385706950326000000000000000   10300001 00104100000000009000000000000000     
100   95050323233042810000000000000980000000000980002000000010410403260627145714775220550326000006876719   1020000200030000   333400010001204104000000281Myanmar Soft-Gate Tech Yangon        MMR11003260627145714770326000000000000000   10300001F05104100000000000206000000000000     
100   62911028202118690000000000044150000000044150002000000010410403260920485727064052100326982491506084   1030000300030000   555510124689104519000020166Makro Myanmar                        MMR11003260920485727060326000000000000000   10300001 00104100000000002649000000000000     
100   95050312926040930000000000001960000000001960002000000010410403261347311731543011520326000006878662   1020000200030000   333400010001204104000000281Myanmar Soft-Gate Tech Yangon        MMR11003261347311731540326000000000000000   10300001F05104100000000000412000000000000     
100   95050311068653690000000000040000000000040000002000000010410403260502323232203823360326000006876189   1030000200030000   333800010001203104000003327KBZPay                 Yangon        MMR11003260502323232200326000000000000000   10300001F05104100000000008400000000000000     
100   62443100374831340000000000017050000000017050002000000010410403260201405663735218310326206290843084   1030000300030000   444410123677104519000019693Cafe Salween                         MMR11003260201405663730326000000000000000   10300001 00104100000000007247000000000000     
100   95030301100119620000000000021950000000021950002000000010410403260915425726194052100326867431558084   1030000300030000   555510124694104519000020166Makro Myanmar                        MMR11003260915425726190326000000000000000   10300001 00104100000000001317000000000000     
100   95030306100078820000000000037500000000037500002000000010410403260734345708914052100326432021424084   1030000500030000   555610112248104519000010487Ocean Super Center St  ohn           MMR11003260734345708910326000000000000000   10300001 00104100000000002250000000000000     
100   95050312498129060000000000003920000000003920002000000010410403260335140514037040980326000006875657   1020000200030000   333400010001204104000000281Myanmar Soft-Gate Tech Yangon        MMR11003260335140514030326000000000000000   10300001F05104100000000000823000000000000     
100   95050319938772870000000000000980000000000980002000000010410403260537350735017298520326000006876427   1020000200030000   333400010001204104000000281Myanmar Soft-Gate Tech Yangon        MMR11003260537350735010326000000000000000   10300001F05104100000000000206000000000000     
100   95050316184853420000000000010000000000010000002000000010410403260908063806079170640326000006877518   1030000200030000   333800010001203104000003327KBZPay                 Yangon        MMR11003260908063806070326000000000000000   10300001F05104100000000002100000000000000     
100   62443101053241940000000000072000000000072000002000000010410403260518455691341660300326999141239084   1030000300030000   555510111681104519000010027VNC Fashion                          MMR11003260518455691340326000000000000000   10300001 00104100000000017280000000000000     
100   95030301100296750000000002999000000002999000002000000010410403260710275707004052100326165501322084   1030000300030000   555510114637104519000012589Win Mobile                           MMR11003260710275707000326000000000000000   10300001 00104100000000179940000000000000     
100   95050312940629360000000000001960000000001960002000000010410403261540181018402756230326000006879125   1020000200030000   333400010001204104000000281Myanmar Soft-Gate Tech Yangon        MMR11003261540181018400326000000000000000   10300001F05104100000000000412000000000000     
100   95050313062063490000000000004900000000004900002000000010410403260857282728912560700326000006877469   1020000200030000   333400010001204104000000281Myanmar Soft-Gate Tech Yangon        MMR11003260857282728910326000000000000000   10300001F05104100000000001029000000000000     
100   95050311959900780000000000002940000000002940002000000010410403260207203720910260850326000006875158   1020000200030000   333400010001204104000000281Myanmar Soft-Gate Tech Yangon        MMR11003260207203720910326000000000000000   10300001F05104100000000000617000000000000     
100   95050312695033440000000000000980000000000980002000000010410403261422035203033096610326000006878801   1020000200030000   333400010001204104000000281Myanmar Soft-Gate Tech Yangon        MMR11003261422035203030326000000000000000   10300001F05104100000000000206000000000000     
100   62443100317491910000000000019150000000019150002000000010410403260728165708191333700326327571358084   1030000500030000   555610110599104519000009166City Mart 47 Branch                  MMR11003260728165708190326000000000000000   10300001 00104100000000004788000000000000     
100   95050317728825080000000000003000000000003000002000000010410403260736530653977943640326000006877075   1030000200030000   3334000100012031040000040102C2P (Myanmar) Co. Ltd Yangon        MMR11003260736530653970326000000000000000   10300001F05104100000000000630000000000000     
100   95050315005801680000000000002940000000002940002000000010410403260353312331028863660326000006875780   1020000200030000   333400010001204104000000281Myanmar Soft-Gate Tech Yangon        MMR11003260353312331020326000000000000000   10300001F05104100000000000617000000000000     
100   95050312498129060000000000001960000000001960002000000010410403260508133813185475840326000006876231   1020000200030000   333400010001204104000000281Myanmar Soft-Gate Tech Yangon        MMR11003260508133813180326000000000000000   10300001F05104100000000000412000000000000     
100   95050314020354280000000000009800000000009800002000000010410403260224205420244963020326000006875222   1020000200030000   333400010001204104000000281Myanmar Soft-Gate Tech Yangon        MMR11003260224205420240326000000000000000   10300001F05104100000000002058000000000000     
100   95050311048637960000000000008517000000008517002000000010410403260544435691393312780326005141254084   1030000500030000   555610112240104519000010487Ocean Super Center St  ohn           MMR11003260544435691390326000000000000000   10300001 00104100000000002130000000000000     
100   95030306100078820000000000025700000000025700002000000010410403260654475702424052100326562231320084   1030000500030000   555610112240104519000010487Ocean Super Center St  ohn           MMR11003260654475702420326000000000000000   10300001 00104100000000001542000000000000     
100   95050313396828960000000000000980000000000980002000000010410403261347371737841359030326000006878661   1020000200030000   333400010001204104000000281Myanmar Soft-Gate Tech Yangon        MMR11003261347371737840326000000000000000   10300001F05104100000000000206000000000000     
100   62911028202446700000000000167200000000167200002000000010410403260553012301524052100326000006876528   1030000200030000   333800010001203104000003327KBZPay                 Yangon        MMR11003260553012301520326000000000000000   10300001F05104100000000035112000000000000     
100   95050317376014640000000000000980000000000980002000000010410403261101513151214869850326000006877993   1020000200030000   333400010001204104000000281Myanmar Soft-Gate Tech Yangon        MMR11003261101513151210326000000000000000   10300001F05104100000000000206000000000000     
100   95050318741700180000000000000980000000000980002000000010410403251657142714791402760326000006874488   1020000200030000   333400010001204104000000281Myanmar Soft-Gate Tech Yangon        MMR11003251657142714790326000000000000000   10300001F05104100000000000206000000000000     
100   62911028202907560000000000002400000000002400002000000010410403260537535689774052100326796051249084   1030000500030000   555610112532104519000010487Ocean Super Center St  ohn           MMR11003260537535689770326000000000000000   10300001 00104100000000000144000000000000     
100   62911028202446700000000000300000000000300000002000000010410403260745581558484052100326000006877126   1030000200030000   333800010001203104000003327KBZPay                 Yangon        MMR11003260745581558480326000000000000000   10300001F05104100000000063000000000000000     
100   95030301100122420000000000030000000000030000002000000010410403260515424542614052100326000006876278   1030000200030000   333800010001203104000003327KBZPay                 Yangon        MMR11003260515424542610326000000000000000   10300001F05104100000000006300000000000000     
100   62443100391804560000000000002940000000002940002000000010410403260221585158716615500326000006875211   1020000200030000   333400010001204104000000281Myanmar Soft-Gate Tech Yangon        MMR11003260221585158710326000000000000000   10300001F05104100000000000617000000000000     
100   95050317100052460000000000000800000000000800002000000010410403260425585558499546680326000006875972   1030000200030000   333800010001203104000003327KBZPay                 Yangon        MMR11003260425585558490326000000000000000   10300001F05104100000000000168000000000000     
100   62443100325551180000000000094700000000094700002000000010410403260348315673430516150326476171028084   1030000300030000   555510124694104519000020166Makro Myanmar                        MMR11003260348315673430326000000000000000   10300001 00104100000000022728000000000000     
100   62911028202133940000000000040850000000040850002000000010410403260447565681914052100326693161151084   1030000300030000   555510124696104519000020166Makro Myanmar                        MMR11003260447565681910326000000000000000   10300001 00104100000000002451000000000000     
100   95050323670692380000000000010000000000010000002000000010410403261559332933266061190326000006879182   1030000200030000   333800010001203104000003327KBZPay                 Yangon        MMR11003261559332933260326000000000000000   10300001F05104100000000002100000000000000     
100   62443100389971990000000000030000000000030000002000000010410403260520335033317383610326000006876305   1030000200030000   333800010001203104000003327KBZPay                 Yangon        MMR11003260520335033310326000000000000000   10300001F05104100000000006300000000000000     
100   62911028202809060000000000050000000000050000002000000010410403260306223622314052100326000006875455   1030000200030000   333800010001203104000003327KBZPay                 Yangon        MMR11003260306223622310326000000000000000   10300001F05104100000000010500000000000000     
100   62443100363992240000000000029400000000029400002000000010410403261506303630826486680326000006878982   1020000200030000   333400010001204104000000281Myanmar Soft-Gate Tech Yangon        MMR11003261506303630820326000000000000000   10300001F05104100000000006174000000000000     
100   95050325305150830000000000000980000000000980002000000010410403260914134413105270000326000006877546   1020000200030000   333400010001204104000000281Myanmar Soft-Gate Tech Yangon        MMR11003260914134413100326000000000000000   10300001F05104100000000000206000000000000     
100   95030301100124570000000000300000000000300000002000000010410403260613544354224052100326000006876645   1030000200030000   333800010001203104000003327KBZPay                 Yangon        MMR11003260613544354220326000000000000000   10300001F05104100000000063000000000000000     
100   95050321057500320000000000079900000000079900002000000010410403260323535671340345950326239001040084   1030000300030000   555510124690104519000020166Makro Myanmar                        MMR11003260323535671340326000000000000000   10300001 00104100000000019176000000000000     
100   95050326750398570000000000014900000000014900002000000010410403260453285682683908450326818221107084   1030000500030000   555610104033104519000003821City Mart North Point  enter         MMR11003260453285682680326000000000000000   10300001 00104100000000003725000000000000     
100   62443100313002190000000000022000000000022000002000000010410403260713385705580993310326960421313084   1030000500030000   555610104020104519000003821City Mart North Point  enter         MMR11003260713385705580326000000000000000   10300001 00104100000000005500000000000000     
100   95050315955808830000000000029000000000029000002000000010410403260101315661526190020326047440733084   1030000500030000   888810109468104519000008487Max Energy CoLtd 4                   MMR11003260101315661520326000000000000000   10300001 00104100000000003480000000000000     
100   62911028202417000000000000004900000000004900002000000010410403260619165696554052100326697471215084   1030000500030000   555610110599104519000009166City Mart 47 Branch                  MMR11003260619165696550326000000000000000   10300001 00104100000000000294000000000000     
100   62911028202661370000000000040350000000040350002000000010410403260917215726814052100326943471533084   1030000500030000   555610104050104519000003821City Mart North Point  enter         MMR11003260917215726810326000000000000000   10300001 00104100000000002421000000000000     
100   95050319938772870000000000000980000000000980002000000010410403260539560956510092910326000006876440   1020000200030000   333400010001204104000000281Myanmar Soft-Gate Tech Yangon        MMR11003260539560956510326000000000000000   10300001F05104100000000000206000000000000     
100   95050311121153200000000000001960000000001960002000000010410403260354242424663821110326000006875785   1020000200030000   333400010001204104000000281Myanmar Soft-Gate Tech Yangon        MMR11003260354242424660326000000000000000   10300001F05104100000000000412000000000000     
100   95030301100316300000000000070000000000070000002000000010410403261557062706994052100326000006879173   1030000200030000   333800010001203104000003327KBZPay                 Yangon        MMR11003261557062706990326000000000000000   10300001F05104100000000014700000000000000     
100   95050312618592720000000000020000000000020000002000000010410403261304213421114664000326000006878488   1030000200030000   333800010001203104000003327KBZPay                 Yangon        MMR11003261304213421110326000000000000000   10300001F05104100000000004200000000000000     
100   95050313396828960000000000000980000000000980002000000010410403260820385038115525290326000006877292   1020000200030000   333400010001204104000000281Myanmar Soft-Gate Tech Yangon        MMR11003260820385038110326000000000000000   10300001F05104100000000000206000000000000     
100   62911028202150190000000000040000000000040000002000000010410403260422096567224052100326208511656722   1040001600030000   598320000658000000010000527Shwe Taung Energy (YGN Yangon        MMR11003260422096567220326000000000000000   10300001F00104100000000001200000000000000     
100   95050314430707800000000000011000000000011000002000000010410403260810296697877262870326208515669787   1040001600030000   541120000560000000010000465Ocean Shwe Gone Daing  Yangon        MMR11003260810296697870326000000000000000   10300001F00104100000000002750000000000000     
100   62911028202105070000000000068000000000068000002000000010410403261045316794574052100326208517679457   1040001600030000   598320000658000000010000527Shwe Taung Energy (YGN Yangon        MMR11003261045316794570326000000000000000   10300001F00104100000000002040000000000000     
100   95050327830341470000000000029000000000029000002000000010410403261141385752651820170326742111808084   1030000300030000   444410112698104519000010891Hotel Shwe Gone Daing                MMR11003261141385752650326000000000000000   10300001 00104100000000012325000000000000     
100   62911028202116120000000000165235000000165235002000000010410403261209185757084052100326359371826084   1030000500030000   555610112237104519000010487Ocean Super Center St  ohn           MMR11003261209185757080326000000000000000   10300001 00104100000000009914000000000000     
100   95050316785465380000000000000980000000000980002000000010410403261158592859265891000326000006878224   1020000200030000   333400010001204104000000281Myanmar Soft-Gate Tech Yangon        MMR11003261158592859260326000000000000000   10300001F05104100000000000206000000000000     
100   62911028202446700000000000116000000000116000002000000010410403260900213021554052100326000006877484   1030000200030000   333800010001203104000003327KBZPay                 Yangon        MMR11003260900213021550326000000000000000   10300001F05104100000000024360000000000000     
100   95050327192897240000000000015476000000015476002000000010410403260526096917710688580326986561109084   1030000900030000   541119001221190110000000945City Mart TM C 6       YANGONONE     MMR11003260526096917710326000000000000000   10300001F00104100000000003869000000000000     
100   62911028202471600000000000001200000000001200002000000010410403261224145759344052100326699531805084   1030000500030000   555610110582104519000009164City Mart China Town P int Cen       MMR11003261224145759340326000000000000000   10300001 00104100000000000072000000000000     
100   95050328876009750000000000025000000000025000002000000010410403260401523152971028970326000006875832   1030000200030000   333800010001203104000003327KBZPay                 Yangon        MMR11003260401523152970326000000000000000   10300001F05104100000000005250000000000000     
100   95050318180584510000000000000980000000000980002000000010410403260229475947498267990326000006875250   1020000200030000   333400010001204104000000281Myanmar Soft-Gate Tech Yangon        MMR11003260229475947490326000000000000000   10300001F05104100000000000206000000000000     
100   62911028202417000000000000002600000000002600002000000010410403260403446899664052100326695331044084   1030000900030000   541119001255190110000000956City Mart JS Season C  YANGONUT      MMR11003260403446899660326000000000000000   10300001F00104100000000000156000000000000     
100   95050326511614440000000000022357000000022357002000000010410403261258195763306316480326333291908084   1030000300030000   555610125778104519000021591One Stop Kitchen Super arket         MMR11003261258195763300326000000000000000   10300001 00104100000000005590000000000000     
100   62911028202471600000000000015000000000015000002000000010410403261218305759084052100326663511803084   1030000500030000   555610110572104519000009164City Mart China Town P int Cen       MMR11003261218305759080326000000000000000   10300001 00104100000000000900000000000000     
100   62911028202112730000000000015650000000015650002000000010410403260937095730174052100326430051642084   1030000300030000   444410116806104519000014353BreadTalk JunctionCity               MMR11003260937095730170326000000000000000   10300001 00104100000000001596000000000000     
100   62911028202109290000000000042900000000042900002000000010410403261202565757104052100326361371830084   1030000500030000   555610112238104519000010487Ocean Super Center St  ohn           MMR11003261202565757100326000000000000000   10300001 00104100000000002574000000000000     
100   95050318741700180000000000002350000000002350002000000010410403261257555763207458390326309271953084   1030000300030000   555510125555104519000021376One Stop Mart Shopping Mall021       MMR11003261257555763200326000000000000000   10300001 00104100000000000564000000000000     
100   95030326100018400000000000022250000000022250002000000010410403260955295733694052100326938251646084   1030000500030000   555610103978104519000003818Ocean Oattara Thiri Na PyiTaw        MMR11003260955295733690326000000000000000   10300001 00104100000000001335000000000000     
100   95030399304534290000000000003100000000003100002000000010410403261045455743774052100326491221750084   1030000500030000   555610112649104519000010844City Express MCS 20                  MMR11003261045455743770326000000000000000   10300001 00104100000000000186000000000000     
100   62911028202499270000000000008700000000008700002000000010410403260921336736114052100326208516673611   1040001600030000   591220000301000000010000289Shwe Ohh Pharmacy (Yay Yangon        MMR11003260921336736110326000000000000000   10300001F00104100000000000522000000000000     
100   95030301100344930000000000003615000000003615002000000010410403261016485738134052100326623511625084   1030000500030000   555610103474104519000003432City Mart Junction Zaw na 1          MMR11003261016485738130326000000000000000   10300001 00104100000000000217000000000000     
100   95050311077567400000000000000980000000000980002000000010410403260402433243070943870326000006875833   1020000200030000   333400010001204104000000281Myanmar Soft-Gate Tech Yangon        MMR11003260402433243070326000000000000000   10300001F05104100000000000206000000000000     
100   62443100301716860000000000002940000000002940002000000010410403261515504550609791650326000006879020   1020000200030000   333400010001204104000000281Myanmar Soft-Gate Tech Yangon        MMR11003261515504550600326000000000000000   10300001F05104100000000000617000000000000     
100   62911028202132040000000000036000000000036000002000000010410403260516256598164052100326208512659816   1040001600030000   598320000838000000010000600Regency Petrol Station Ygn           MMR11003260516256598160326000000000000000   10300001F00104100000000001080000000000000     
100   95050311926829590000000000000980000000000980002000000010410403261515504550054834190326000006879018   1020000200030000   333400010001204104000000281Myanmar Soft-Gate Tech Yangon        MMR11003261515504550050326000000000000000   10300001F05104100000000000206000000000000     
100   95030366196289820000000000007000000000007000002000000010410403261148267014494052100326366181826084   1030000900030000   541119000121190110000000080Sein Gay Har BAK       YANGONADA     MMR11003261148267014490326000000000000000   10300001F00104100000000000420000000000000     
100   62911028202446700000000000300000000000300000002000000010410403260742541254064052100326000006877112   1030000200030000   333800010001203104000003327KBZPay                 Yangon        MMR11003260742541254060326000000000000000   10300001F05104100000000063000000000000000     
100   95030333100021460000000000003820000000003820002000000010410403261108495747194052100326980401717084   1030000500030000   555610112252104519000010487Ocean Super Center St  ohn           MMR11003261108495747190326000000000000000   10300001 00104100000000000229000000000000     
100   95030301100124990000000000072164000000072164002000000010410403260503356912464052100326617331135084   1030000900030000   541119001157190110000000930OCEAN HTY C 7          YANGONTHARYA  MMR11003260503356912460326000000000000000   10300001F00104100000000004330000000000000     
100   95050314307746340000000000000980000000000980002000000010410403251728035803336360210326000006874544   1020000200030000   333400010001204104000000281Myanmar Soft-Gate Tech Yangon        MMR11003251728035803330326000000000000000   10300001F05104100000000000206000000000000     
100   95050325784857510000000000003700000000003700002000000010410403260237196884793395630326634070919084   1030000900030000   541119001207190110000000948City Mart YK C 5       YANGONAUNG    MMR11003260237196884790326000000000000000   10300001F00104100000000000925000000000000     
100   62443100313002190000000000010515000000010515002000000010410403261121055750072245650326388561754084   1030000500030000   555610122347104519000018696CityMartSupermarket Sh ePyiTha       MMR11003261121055750070326000000000000000   10300001 00104100000000002629000000000000     
100   62911028202520610000000000009500000000009500002000000010410403260314416889974052100326999440941084   1030000900030000   541119000161190110000000084Pro (1) Global (Pazund YANGONARTAUNG MMR11003260314416889970326000000000000000   10300001F00104100000000000570000000000000     
100   95050310397364970000000000005880000000005880002000000010410403261328465846277968970326000006878583   1020000200030000   333400010001204104000000281Myanmar Soft-Gate Tech Yangon        MMR11003261328465846270326000000000000000   10300001F05104100000000001235000000000000     
100   62443100393281130000000000022400000000022400002000000010410403260448396908917213420326357181139084   1030000900030000   541119000882190110000000084Pro (1) Global (Pazund YANGONARTAUNG MMR11003260448396908910326000000000000000   10300001F00104100000000005600000000000000     
100   62911028202109290000000000063000000000063000002000000010410403261130425750574052100326455591720084   1030000500030000   555610112249104519000010487Ocean Super Center St  ohn           MMR11003261130425750570326000000000000000   10300001 00104100000000003780000000000000     
100   62911028202722750000000000097171000000097171002000000010410403260322406891504052100326102520940084   1030000900030000   599919000569190110000000251Pro (1) Global (MawlaM MONLAMYAING   MMR11003260322406891500326000000000000000   10300001F00104100000000005830000000000000     
100   62443100371022130000000000017800000000017800002000000010410403261038336995104699660326830081733084   1030000900030000   541119000126190110000000082Sein Gay Har Super Cen YANGON        MMR11003261038336995100326000000000000000   10300001F00104100000000004450000000000000     
100   62443100384660050000000000012700000000012700002000000010410403261028236992220082590326595581623084   1030000900030000   541119001303190110000000968Ocean Mingalar MDY C11 MANDALAYHARSI MMR11003261028236992220326000000000000000   10300001F00104100000000003175000000000000     
100   95030353248676040000000000026950000000026950002000000010410403251416170211644052100325000744701930   1030000200030000   541188001059000008000000314KBZ BANK               MARKETPLACE - MMR11003251416170211640325000000000000000   10300001 00104100000000001617000000000000     
100   62443100344229520000000000002000000000002000002000000010410403260759196954705695480326724291419084   1030000900030000   541119001289190110000000964City Mart SPL Season C YANGONMYOTHIT MMR11003260759196954700326000000000000000   10300001F00104100000000000500000000000000     
100   62911028202708160000000000061678000000061678002000000010410403251442500047804052100325000744703476   1030000200030000   541188001432000008000000401KBZ BANK               OCEAN SUPERCE MMR11003251442500047800325000000000000000   10300001 00104100000000003701000000000000     
100   62911028202708160000000000013000000000013000002000000010410403251444570047814052100325000744703567   1030000200030000   541188001432000008000000401KBZ BANK               OCEAN SUPERCE MMR11003251444570047810325000000000000000   10300001 00104100000000000780000000000000     
100   95050326306163850000000000654500000000654500002000000010410403250949170009084416790325000744708095   1030000200030000   599988000603000008000003448KBZ BANK               SWEETY HOME(6 MMR11003250949170009080325000000000000000   10300001 00104100000000157080000000000000     
100   62911028202243420000000000041000000000041000002000000010410403250918550024264052100325000744706757   1030000200030000   591288000837000008000004646KBZ BANK               PINLON PHARMA MMR11003250918550024260325000000000000000   10300001 00104100000000002460000000000000     
100   95050312937155340000000000070650000000070650002000000010410403260433056905366156610326101031105084   1030000900030000   541119001264190110000000958City Mart PLST C 7     YANGONMYOTHIT MMR11003260433056905360326000000000000000   10300001F00104100000000017663000000000000     
100   62911028202366010000000000451300000000451300002000000010410403260451076909654052100326408211107084   1030000900030000   541119001328190110000000971Ocean Junction NPT C6  NAYPYITAW     MMR11003260451076909650326000000000000000   10300001F00104100000000027078000000000000     
100   62911028202169750000000000100091000000100091002000000010410403260520526600924052100326208512660092   1040001600030000   541120000555000000010000465Ocean Shwe Gone Daing  Yangon        MMR11003260520526600920326000000000000000   10300001F00104100000000006006000000000000     
100   62911028202416760000000000092000000000092000002000000010410403260242526518024052100326208509651802   1040001600030000   598320000854000000010000608Terminal Petrol Statio Yangon        MMR11003260242526518020326000000000000000   10300001F00104100000000002760000000000000     
100   62911028202112400000000000053650000000053650002000000010410403260817156701444052100326208515670144   1040001600030000   591220000276000000010000264Shwe Ohh Pharmacy (YGH Yangon        MMR11003260817156701440326000000000000000   10300001F00104100000000003219000000000000     
100   62911028202471600000000000002000000000002000002000000010410403261130155751394052100326580031838084   1030000500030000   555610120983104519000017746City Express MCS 109                 MMR11003261130155751390326000000000000000   10300001 00104100000000000120000000000000     
100   62911028202133940000000000018750000000018750002000000010410403261204435757714052100326446411819084   1030000500030000   555610112982104519000011143Market Place by City M rt Sule       MMR11003261204435757710326000000000000000   10300001 00104100000000001125000000000000     
100   62911028202151590000000000066000000000066000002000000010410403260315106532884052100326208510653288   1040001600030000   569120000924000000010000671Generation Concept Sto Ygn           MMR11003260315106532880326000000000000000   10300001F00104100000000003960000000000000     
100   62911028202756820000000000039750000000039750002000000010410403251347340022414052100325000744700035   1030000200030000   541188001486000008000000399KBZ BANK               OCEAN SUPERCE MMR11003251347340022410325000000000000000   10300001 00104100000000002385000000000000     
100   62911028202708160000000000004200000000004200002000000010410403251449180032564052100325000744703766   1030000200030000   541188001447000008000000401KBZ BANK               OCEAN SUPERCE MMR11003251449180032560325000000000000000   10300001 00104100000000000252000000000000     
100   62911028202531350000000000054560000000054560002000000010410403250957170057794052100325000744684700   1030000200030000   541188001002000008000000008KBZ BANK               MARKETPLACE - MMR11003250957170057790325000000000000000   10300001 00104100000000003274000000000000     
100   62911028202531350000000000004950000000004950002000000010410403250958310057804052100325000744684769   1030000200030000   541188001002000008000000008KBZ BANK               MARKETPLACE - MMR11003250958310057800325000000000000000   10300001 00104100000000000297000000000000     
100   95050313972523920000000000100000000000100000002000000010410403251017170002125899080325000744709255   1030000200030000   594488000253000008000002280KBZ BANK               PWINT HTUN GO MMR11003251017170002120325000000000000000   10300001 00104100000000024000000000000000     
100   95030341448197210000000000017900000000017900002000000010410403250830550000734052100325000336849453   1030000300030000   591200000310000000000000191CB BANK                MEDICARE STOR MMR11003250830550000730325000000000000000   10300001F00104100000000001074000000000000     
100   62443101053241940000000000140650000000140650002000000010410403251524510000655496460325000744705469   1030000200030000   541188001079000008000000294KBZ BANK               CITY MART - J MMR11003251524510000650325000000000000000   10300001 00104100000000035163000000000000     
100   62911028202472440000000000007600000000007600002000000010410403251352380041184052100325000744700382   1030000200030000   541188001033000008000000298KBZ BANK               CITY MART - M MMR11003251352380041180325000000000000000   10300001 00104100000000000456000000000000     
100   95050328035424750000000000197650000000197650002000000010410403260925395729002135220326265591551084   1030000500030000   555610103981104519000003818Ocean Oattara Thiri Na PyiTaw        MMR11003260925395729000326000000000000000   10300001 00104100000000049413000000000000     
100   95050319161596230000000000000980000000000980002000000010410403260727455745233071280326000006877024   1020000200030000   333400010001204104000000281Myanmar Soft-Gate Tech Yangon        MMR11003260727455745230326000000000000000   10300001F05104100000000000206000000000000     
100   62443100344229520000000000010150000000010150002000000010410403260747156951456206050326478171415084   1030000900030000   541119001290190110000000965City Mart SPL City Car YANGONMYOTHIT MMR11003260747156951450326000000000000000   10300001F00104100000000002538000000000000     
100   62443100390038980000000000129900000000129900002000000010410403260848076966764213180326641181507084   1030000900030000   541119001331190110000000971Ocean Junction NPT C 9 NAYPYITAW     MMR11003260848076966760326000000000000000   10300001F00104100000000032475000000000000     
100   95030302100067550000000000073900000000073900002000000010410403261006075735484052100326229351640084   1030000300030000   555510124359104519000020166Makro Myanmar                        MMR11003261006075735480326000000000000000   10300001 00104100000000004434000000000000     
100   95050314635839930000000000004500000000004500002000000010410403260606466927533653160326700361246084   1030000900030000   541119001079190110000000872Sein Gay Har Hledan    YANGONUT      MMR11003260606466927530326000000000000000   10300001F00104100000000001125000000000000     
100   62443100344229520000000000006400000000006400002000000010410403260751146952671248600326567211414084   1030000900030000   541119001289190110000000964City Mart SPL Season C YANGONMYOTHIT MMR11003260751146952670326000000000000000   10300001F00104100000000001600000000000000     
100   62911028202422290000000000400000000000400000002000000010410403260733486948414052100326247031448084   1030000900030000   481219000916190110000000725Snoopy Mobile ( 7 )Hle YANGONUT      MMR11003260733486948410326000000000000000   10300001F00104100000000024000000000000000     
100   62911028202756820000000000004400000000004400002000000010410403251351110022434052100325000744700286   1030000200030000   541188001486000008000000399KBZ BANK               OCEAN SUPERCE MMR11003251351110022430325000000000000000   10300001 00104100000000000264000000000000     
100   95030380157605420000000000058550000000058550002000000010410403251308270004974052100325000744697425   1030000200030000   541188001487000008000000399KBZ BANK               OCEAN SUPERCE MMR11003251308270004970325000000000000000   10300001 00104100000000003513000000000000     
100   62911028202592980000000000005800000000005800002000000010410403251055290013714052100325000744710909   1030000200030000   541188000960000008000004886KBZ BANK               EASY-1        MMR11003251055290013710325000000000000000   10300001 00104100000000000348000000000000     
100   62911028202449440000000000055850000000055850002000000010410403251157330091594052100325000744692443   1030000200030000   541188001081000008000000294KBZ BANK               CITY MART - J MMR11003251157330091590325000000000000000   10300001 00104100000000003351000000000000     
100   62911028202611200000000000009325000000009325002000000010410403251429300134274052100325000744702742   1030000200030000   541188001061000008000000314KBZ BANK               MARKETPLACE - MMR11003251429300134270325000000000000000   10300001 00104100000000000560000000000000     
100   62443100313529540000000000009950000000009950002000000010410403251729380165218062140325000744711103   1030000200030000   541188001055000008000000314KBZ BANK               MARKETPLACE - MMR11003251729380165210325000000000000000   10300001 00104100000000002488000000000000     
100   62911028202539860000000000086792000000086792002000000010410403251513210215104052100325000744704892   1030000200030000   541188001038000008000000010KBZ BANK               MARKETPLACE - MMR11003251513210215100325000000000000000   10300001 00104100000000005208000000000000     
100   62911028202161240000000000005650000000005650002000000010410403251730180302534052100325000744711136   1030000200030000   541188001025000008000000298KBZ BANK               CITY MART - M MMR11003251730180302530325000000000000000   10300001 00104100000000000339000000000000     
100   62911028202616170000000000037125000000037125002000000010410403261120447007464052100326829501744084   1030000900030000   723019001050190110000000853Nail Diary(SYS) -2     YANGON        MMR11003261120447007460326000000000000000   10300001F00104100000000002228000000000000     
100   62911028202502480000000000022550000000022550002000000010410403260544056921814052100326284141205084   1030000900030000   541119000141190110000000083SeinGayHarParami Cente YANGON        MMR11003260544056921810326000000000000000   10300001F00104100000000001353000000000000     
100   62443100384660050000000000145050000000145050002000000010410403261000366984421709740326981301636084   1030000900030000   541119001307190110000000968Ocean Mingalar MDY C 1 MANDALAYHARSI MMR11003261000366984420326000000000000000   10300001F00104100000000036263000000000000     
100   62911028202466750000000000302000000000302000002000000010410403260953216982814052100326859231621084   1030000900030000   599919001138190110000000918Lucky Man Uwisarya     YANGONUT      MMR11003260953216982810326000000000000000   10300001F00104100000000018120000000000000     
100   95050317378464240000000000050000000000050000002000000010410403261135237011416862720326139051823084   1030000900030000   541119001304190110000000968Ocean Mingalar MDY C 1 MANDALAYHARSI MMR11003261135237011410326000000000000000   10300001F00104100000000012500000000000000     
100   95050318741700180000000000054500000000054500002000000010410403261131497010445550620326065011849084   1030000900030000   541119001361190110000000977Ocean PZD C 15         YANGONAUNG    MMR11003261131497010440326000000000000000   10300001F00104100000000013625000000000000     
100   95050326228858240000000000101000000000101000002000000010410403260844306966035950770326584141530084   1030000900030000   541119001331190110000000971Ocean Junction NPT C 9 NAYPYITAW     MMR11003260844306966030326000000000000000   10300001F00104100000000025250000000000000     
100   62911028202593060000000000024400000000024400002000000010410403260908136971654052100326003381513084   1030000900030000   541119001077190110000000872Sein Gay Har Hledan    YANGONUT      MMR11003260908136971650326000000000000000   10300001F00104100000000001464000000000000     
100   95030301100121270000000000043000000000043000002000000010410403251029116090904052100325208417609090   1040001600030000   598320000917000000010000665MMTM - Thingangyun     Ygn           MMR11003251029116090900325000000000000000   10300001F00104100000000001290000000000000     
100   95050313123223200000000000000980000000000980002000000010410403261330530053409706550326000006878597   1020000200030000   333400010001204104000000281Myanmar Soft-Gate Tech Yangon        MMR11003261330530053400326000000000000000   10300001F05104100000000000206000000000000     
100   95050315557781210000000000020000000000020000002000000010410403260131240124839580080326000006875006   1030000200030000   333800010001203104000003327KBZPay                 Yangon        MMR11003260131240124830326000000000000000   10300001F05104100000000004200000000000000     
100   95050312498129060000000000009800000000009800002000000010410403260930380038100482740326000006877612   1020000200030000   333400010001204104000000281Myanmar Soft-Gate Tech Yangon        MMR11003260930380038100326000000000000000   10300001F05104100000000002058000000000000     
100   95050315259054570000000000000980000000000980002000000010410403260531370137648951010326000006876386   1020000200030000   333400010001204104000000281Myanmar Soft-Gate Tech Yangon        MMR11003260531370137640326000000000000000   10300001F05104100000000000206000000000000     
100   95050312695033440000000000000980000000000980002000000010410403260430240024199461580326000006876000   1020000200030000   333400010001204104000000281Myanmar Soft-Gate Tech Yangon        MMR11003260430240024190326000000000000000   10300001F05104100000000000206000000000000     
100   95050318601641810000000000000980000000000980002000000010410403260331510151222423920326000006875619   1020000200030000   333400010001204104000000281Myanmar Soft-Gate Tech Yangon        MMR11003260331510151220326000000000000000   10300001F05104100000000000206000000000000     
100   95050316717221100000000000000980000000000980002000000010410403260233080308048353080326000006875269   1020000200030000   333400010001204104000000281Myanmar Soft-Gate Tech Yangon        MMR11003260233080308040326000000000000000   10300001F05104100000000000206000000000000     
100   95050319709462380000000000010000000000010000002000000010410403261147151715643642840326000006878167   1030000200030000   3338000100012031040000040022C2P (Myanmar) Co. Ltd Yangon        MMR11003261147151715640326000000000000000   10300001F05104100000000002100000000000000     
100   95050314641725490000000000013900000000013900002000000010410403260600566925939922720326587301256084   1030000900030000   541119001191190110000000942City Mart HDC C 6      YANGONUT      MMR11003260600566925930326000000000000000   10300001F00104100000000003475000000000000     
100   95050319831637890000000000450000000000450000002000000010410403260803306955777347960326805331430084   1030000900030000   594419001118190110000000899Zwe Htet Gems & Jewell YANGON        MMR11003260803306955770326000000000000000   10300001F00104100000000108000000000000000     
100   62443100303702210000000000102800000000102800002000000010410403260917556973968489870326180471555084   1030000900030000   541119001280190110000000963City Mart SPL C 5      YANGONMYOTHIT MMR11003260917556973960326000000000000000   10300001F00104100000000025700000000000000     
100   62443100372702000000000000015500000000015500002000000010410403261432047037991444130326800022104084   1030000900030000   541119000113190110000000077Sein Gay Har Chinatown YANGON        MMR11003261432047037990326000000000000000   10300001F00104100000000003875000000000000     
100   62911028202150190000000000112050000000112050002000000010410403260618486930544052100326935481248084   1030000900030000   581219001545190110000001119Paradise Hot Pot       YANGONUT      MMR11003260618486930540326000000000000000   10300001F00104100000000011429000000000000     
100   95050311077567400000000000006200000000006200002000000010410403260620296930885305650326957501229084   1030000900030000   541119000148190110000000083SeinGayHarParami Cente YANGON        MMR11003260620296930880326000000000000000   10300001F00104100000000001550000000000000     
100   95050311077567400000000000027500000000027500002000000010410403260652536939041575200326562221353084   1030000900030000   541119000152190110000000083SeinGayHarParami Cente YANGON        MMR11003260652536939040326000000000000000   10300001F00104100000000006875000000000000     
100   95050316049877640000000000002940000000002940002000000010410403260232080208180005570326000006875262   1020000200030000   333400010001204104000000281Myanmar Soft-Gate Tech Yangon        MMR11003260232080208180326000000000000000   10300001F05104100000000000617000000000000     
100   95050311121153200000000000000980000000000980002000000010410403260732090209682986180326000006877047   1020000200030000   333400010001204104000000281Myanmar Soft-Gate Tech Yangon        MMR11003260732090209680326000000000000000   10300001F05104100000000000206000000000000     
100   95050310332595380000000000004900000000004900002000000010410403261235260526992415840326000006878359   1020000200030000   333400010001204104000000281Myanmar Soft-Gate Tech Yangon        MMR11003261235260526990326000000000000000   10300001F05104100000000001029000000000000     
100   95050316067768680000000000000980000000000980002000000010410403261455292529616401580326000006878931   1020000200030000   333400010001204104000000281Myanmar Soft-Gate Tech Yangon        MMR11003261455292529610326000000000000000   10300001F05104100000000000206000000000000     
100   95050311121153200000000000000980000000000980002000000010410403260504223422658780810326000006876203   1020000200030000   333400010001204104000000281Myanmar Soft-Gate Tech Yangon        MMR11003260504223422650326000000000000000   10300001F05104100000000000206000000000000     
100   95050315833864180000000000150000000000150000002000000010410403260310445668727296270326891380938084   1030000300030000   555510124694104519000020166Makro Myanmar                        MMR11003260310445668720326000000000000000   10300001 00104100000000036000000000000000     
100   62911028202907560000000000050750000000050750002000000010410403260500235683894052100326988291108084   1030000500030000   555610112248104519000010487Ocean Super Center St  ohn           MMR11003260500235683890326000000000000000   10300001 00104100000000003045000000000000     
100   95050311121153200000000000000980000000000980002000000010410403261127175717070508070326000006878096   1020000200030000   333400010001204104000000281Myanmar Soft-Gate Tech Yangon        MMR11003261127175717070326000000000000000   10300001F05104100000000000206000000000000     
100   95050311077567400000000000018600000000018600002000000010410403260743496950706291150326419131449084   1030000900030000   541119000151190110000000083SeinGayHarParami Cente YANGON        MMR11003260743496950700326000000000000000   10300001F00104100000000004650000000000000     
100   62911028202260570000000000371300000000371300002000000010410403260835456963754052100326409051545084   1030000900030000   573219001177190110000000933UNIQUE Kabaraye        YANGON        MMR11003260835456963750326000000000000000   10300001F00104100000000022278000000000000     
100   95050315344668630000000000004850000000004850002000000010410403260814135715703957900326380431430084   1030000300030000   444410116806104519000014353BreadTalk JunctionCity               MMR11003260814135715700326000000000000000   10300001 00104100000000002062000000000000     
100   62443101053241940000000000056300000000056300002000000010410403260532585689050603480326697011200084   1030000300030000   444410118069104519000015348Astons Specialities Ya gon           MMR11003260532585689050326000000000000000   10300001 00104100000000023928000000000000     
100   95050325925517520000000000011180000000011180002000000010410403261120157007347118010326818501715084   1030000900030000   541119001349190110000000977Ocean PZD C 3          YANGONAUNG    MMR11003261120157007340326000000000000000   10300001F00104100000000002795000000000000     
100   95030301100344930000000000324000000000324000002000000010410403260931266977304052100326427011626084   1030000900030000   573219001183190110000000939UNIQUE Thingangyun     YANGONNGKUUN  MMR11003260931266977300326000000000000000   10300001F00104100000000019440000000000000     
100   62911028202186410000000000076890000000076890002000000010410403261536387043404052100326935062238084   1030000900030000   581319001483190110000001079I Four-1               YANGON        MMR11003261536387043400326000000000000000   10300001F00104100000000007843000000000000     
100   62911028202133520000000000007700000000007700002000000010410403261208267019024052100326701381826084   1030000900030000   541119001191190110000000942City Mart HDC C 6      YANGONUT      MMR11003261208267019020326000000000000000   10300001F00104100000000000462000000000000     
