100   62911028202594880000000000034015000000034015002000000010410403270342547100794052100327054121054085   1030000900030000   541119000145190110000000083SeinGayHarParami Cente YANGON        MMR11003270342547100790327000000000000000   10300001F00104100000000002041000000000000     
100   95050310864314220000000000009050000000009050002000000010410403260941100000127007570326208516000012   1030000500030000   531120155803000045311201558GAMONE PWINT           PTN           MMR11003260941100000120326000000000000000   10300001 00104100000000002172000000000000     
100   95050314950595330000000000001000000000001000002000000010410403270446561656246096850327000006880657   1030000200030000   3338000100012031040000040022C2P (Myanmar) Co. Ltd Yangon        MMR11003270446561656240327000000000000000   10300001F05104100000000000210000000000000     
100   95030301100124400000000000002800000000002800002000000010410403271123507212274052100327529531750085   1030000900030000   541119001272190110000000960City Mart PLST Season  YANGONMYOTHIT MMR11003271123507212270327000000000000000   10300001F00104100000000000168000000000000     
100   95030301100118480000000000132474000000132474002000000010410403261111060073344052100326000744731928   1030000200030000   541188001060000008000000314KBZ BANK               MARKETPLACE - MMR11003261111060073340326000000000000000   10300001 00104100000000007948000000000000     
100   95050322715181550000000000103900000000103900002000000010410403260944050008678149480326208516000867   1030000500030000   569120037701016505691200377SOON FASHION SHOP      PTN           MMR11003260944050008670326000000000000000   10300001 00104100000000024936000000000000     
100   62911028202442250000000000047494000000047494002000000010410403261542560120314052100326000744743670   1030000200030000   541188001019000008000000298KBZ BANK               CITY MART - M MMR11003261542560120310326000000000000000   10300001 00104100000000002850000000000000     
100   95050319111666800000000000000980000000000980002000000010410403270748521852179011990327000006881545   1020000200030000   333400010001204104000000281Myanmar Soft-Gate Tech Yangon        MMR11003270748521852170327000000000000000   10300001F05104100000000000206000000000000     
100   62911028202472440000000000054000000000054000002000000010410403260646020003024052100326208513000302   1030000500030000   598320001403000015172200014MAX ENERGY             PTN           MMR11003260646020003020326000000000000000   10300001 00104100000000001620000000000000     
100   95030301100122750000000000022500000000022500002000000010410403270426007109934052100327705561000085   1030000900030000   541119001074190110000000872Sein Gay Har Hledan    YANGONUT      MMR11003270426007109930327000000000000000   10300001F00104100000000001350000000000000     
100   62911028202291190000000000025500000000025500002000000010410403271054497204114052100327885241749085   1030000900030000   591219000607190110000000447Shwe Ohh Pharmacy St-3 YANGONINDAING MMR11003271054497204110327000000000000000   10300001F00104100000000001530000000000000     
100   95050313079290890000000000013600000000013600002000000010410403271012097190866799480327817421609085   1030000900030000   541119000117190110000000078Sein Gay Har Kan Thar  YANGONOKKALAP MMR11003271012097190860327000000000000000   10300001F00104100000000003400000000000000     
100   62911028202655010000000000037350000000037350002000000010410403271218157225194052100327512481815085   1030000900030000   541119001203190110000000948City Mart YK C 1       YANGONAUNG    MMR11003271218157225190327000000000000000   10300001F00104100000000002241000000000000     
100   62911028202466670000000000020000000000020000002000000010410403270446587267884052100327208611726788   1040001600030000   598320000658000000010000527Shwe Taung Energy (YGN Yangon        MMR11003270446587267880327000000000000000   10300001F00104100000000000600000000000000     
100   62443100372702000000000000005480000000005480002000000010410403270926557178882813750327882561555085   1030000900030000   541119000113190110000000077Sein Gay Har Chinatown YANGON        MMR11003270926557178880327000000000000000   10300001F00104100000000001370000000000000     
100   95030301100126550000000000471000000000471000002000000010410403270424067109434052100327669541006085   1030000900030000   541119000132190110000000083SeinGayHarParami Cente YANGONOKKALAP MMR11003270424067109430327000000000000000   10300001F00104100000000028260000000000000     
100   95030301100124400000000000009790000000009790002000000010410403271118097210854052100327420481709085   1030000900030000   541119001267190110000000958City Mart PLST C 10    YANGONMYOTHIT MMR11003271118097210850327000000000000000   10300001F00104100000000000587000000000000     
100   95050312878706670000000000001000000000001000002000000010410403270053532353431188840327000006879784   1030000200030000   3334000100012031040000040102C2P (Myanmar) Co. Ltd Yangon        MMR11003270053532353430327000000000000000   10300001F05104100000000000210000000000000     
100   95050316785465380000000000000980000000000980002000000010410403271530150015305408010327000006883397   1020000200030000   333400010001204104000000281Myanmar Soft-Gate Tech Yangon        MMR11003271530150015300327000000000000000   10300001F05104100000000000206000000000000     
100   95030301100120850000000000011650000000011650002000000010410403271713050023944052100327000744785504   1030000200030000   541188001058000008000000314KBZ BANK               MARKETPLACE - MMR11003271713050023940327000000000000000   10300001 00104100000000000699000000000000     
100   62911028202290100000000000014200000000014200002000000010410403271741150006294052100327000744786811   1030000200030000   581288000938000008000000484KBZ BANK               PIZZA HUT (YA MMR11003271741150006290327000000000000000   10300001 00104100000000001448000000000000     
100   95050315158357300000000000001960000000001960002000000010410403270748271827725536830327000006881541   1020000200030000   333400010001204104000000281Myanmar Soft-Gate Tech Yangon        MMR11003270748271827720327000000000000000   10300001F05104100000000000412000000000000     
100   95050313702988830000000000002940000000002940002000000010410403270558272827136168160327000006881020   1020000200030000   333400010001204104000000281Myanmar Soft-Gate Tech Yangon        MMR11003270558272827130327000000000000000   10300001F05104100000000000617000000000000     
100   95050323233042810000000000000980000000000980002000000010410403270224155415999607660327000006880018   1020000200030000   333400010001204104000000281Myanmar Soft-Gate Tech Yangon        MMR11003270224155415990327000000000000000   10300001F05104100000000000206000000000000     
100   95050317100052460000000000001960000000001960002000000010410403271211134113985827770327000006882582   1020000200030000   333400010001204104000000281Myanmar Soft-Gate Tech Yangon        MMR11003271211134113980327000000000000000   10300001F05104100000000000412000000000000     
100   62911028202764820000000000169500000000169500002000000010410403270734287151714052100327805041428085   1030000900030000   541119001082190110000000872Sein Gay Har Hledan    YANGONUT      MMR11003270734287151710327000000000000000   10300001F00104100000000010170000000000000     
100   62911028202260400000000000228200000000228200002000000010410403270644237140954052100327011141323085   1030000900030000   573219001183190110000000939UNIQUE Thingangyun     YANGONNGKUUN  MMR11003270644237140950327000000000000000   10300001F00104100000000013692000000000000     
100   62911028202764820000000000013500000000013500002000000010410403270422137109064052100327642521013085   1030000900030000   541119001074190110000000872Sein Gay Har Hledan    YANGONUT      MMR11003270422137109060327000000000000000   10300001F00104100000000000810000000000000     
100   62911028202662690000000000093000000000093000002000000010410403270349477102144052100327154191047085   1030000900030000   541119000882190110000000084Pro (1) Global (Pazund YANGONARTAUNG MMR11003270349477102140327000000000000000   10300001F00104100000000005580000000000000     
100   95050313079290890000000000008380000000008380002000000010410403270932577180306288910327990021657085   1030000900030000   541119000116190110000000078Sein Gay Har Kan Thar  YANGONOKKALAP MMR11003270932577180300327000000000000000   10300001F00104100000000002095000000000000     
100   95050311876202380000000000044620000000044620002000000010410403271028077195399764070327173581607085   1030000900030000   541119001332190110000000971Ocean Junction NPT C 1 NAYPYITAW     MMR11003271028077195390327000000000000000   10300001F00104100000000011155000000000000     
100   95050317834964620000000000005500000000005500002000000010410403270505447118374685870327328351144085   1030000900030000   541119001353190110000000977Ocean PZD C 7          YANGONAUNG    MMR11003270505447118370327000000000000000   10300001F00104100000000001375000000000000     
100   62443100322986690000000000040500000000040500002000000010410403270615037134222863190327497451203085   1030000900030000   541119000152190110000000083SeinGayHarParami Cente YANGON        MMR11003270615037134220327000000000000000   10300001F00104100000000010125000000000000     
100   62911028202422370000000000063950000000063950002000000010410403271642140021364052100327000744784045   1030000200030000   541188001134000008000000296KBZ BANK               CITY MART - J MMR11003271642140021360327000000000000000   10300001 00104100000000003837000000000000     
100   62911028202207460000000000005200000000005200002000000010410403271309340074134052100327000744774734   1030000200030000   541188001060000008000000314KBZ BANK               MARKETPLACE - MMR11003271309340074130327000000000000000   10300001 00104100000000000312000000000000     
100   95050311736839760000000000001960000000001960002000000010410403271133200320600359740327000006882456   1020000200030000   333400010001204104000000281Myanmar Soft-Gate Tech Yangon        MMR11003271133200320600327000000000000000   10300001F05104100000000000412000000000000     
100   95050321057500320000000000004900000000004900002000000010410403270635370537443629050327000006881207   1020000200030000   333400010001204104000000281Myanmar Soft-Gate Tech Yangon        MMR11003270635370537440327000000000000000   10300001F05104100000000001029000000000000     
100   62911028202446700000000000300000000000300000002000000010410403271504013401564052100327000006883314   1030000200030000   333800010001203104000003327KBZPay                 Yangon        MMR11003271504013401560327000000000000000   10300001F05104100000000063000000000000000     
100   95050323722449090000000000004409000000004409002000000010410403271059082908240444840327000006882315   1020000200030000   333400010001204104000000281Myanmar Soft-Gate Tech Yangon        MMR11003271059082908240327000000000000000   10300001F05104100000000000926000000000000     
100   95050313710136610000000000002940000000002940002000000010410403271400453045010705840327000006883060   1020000200030000   333400010001204104000000281Myanmar Soft-Gate Tech Yangon        MMR11003271400453045010327000000000000000   10300001F05104100000000000617000000000000     
100   95050319331516290000000000035050000000035050002000000010410403271822440037909047650327000744788587   1030000200030000   541188001424000008000000401KBZ BANK               OCEAN SUPERCE MMR11003271822440037900327000000000000000   10300001 00104100000000008763000000000000     
100   62911028202440680000000000070766000000070766002000000010410403250200000000364052100325208408000036   1030000500030000   598320001202000015172200012MAX ENERGY             PTN           MMR11003250200000000360325000000000000000   10300001 00104100000000002123000000000000     
100   62911028202448030000000000120000000000120000002000000010410403250447580001124052100325208411000112   1030000500030000   598320001201000015172200012MAX ENERGY             PTN           MMR11003250447580001120325000000000000000   10300001 00104100000000003600000000000000     
100   95050319111666800000000000000980000000000980002000000010410403270741271127009983700327000006881514   1020000200030000   333400010001204104000000281Myanmar Soft-Gate Tech Yangon        MMR11003270741271127000327000000000000000   10300001F05104100000000000206000000000000     
100   62911028202685470000000000010000000000010000002000000010410403271255487585534052100327208619758553   1040001600030000   806220000003000000010000001Victoria Hospital      Yangon        MMR11003271255487585530327000000000000000   10300001F00104100000000000600000000000000     
100   62443100379321630000000000064000000000064000002000000010410403271031137466918111580327208617746691   1040001600030000   598320000658000000010000527Shwe Taung Energy (YGN Yangon        MMR11003271031137466910327000000000000000   10300001F00104100000000007680000000000000     
100   95050317175714970000000000009500000000009500002000000010410403270811467385613799250327208615738561   1040001600030000   541120000559000000010000465Ocean Shwe Gone Daing  Yangon        MMR11003270811467385610327000000000000000   10300001F00104100000000002375000000000000     
100   62911028202708080000000000178650000000178650002000000010410403270104005789984052100327451350755085   1030000300030000   555610125778104519000021591One Stop Kitchen Super arket         MMR11003270104005789980327000000000000000   10300001 00104100000000010719000000000000     
100   95050314307746340000000000000980000000000980002000000010410403270140361036336472890327000006879874   1020000200030000   333400010001204104000000281Myanmar Soft-Gate Tech Yangon        MMR11003270140361036330327000000000000000   10300001F05104100000000000206000000000000     
100   95030341448197210000000000006300000000006300002000000010410403271537090105534052100327000744780804   1030000200030000   541188001047000008000000010KBZ BANK               MARKETPLACE - MMR11003271537090105530327000000000000000   10300001 00104100000000000378000000000000     
100   95050316785465380000000000000980000000000980002000000010410403270936320632784636420327000006881960   1020000200030000   333400010001204104000000281Myanmar Soft-Gate Tech Yangon        MMR11003270936320632780327000000000000000   10300001F05104100000000000206000000000000     
100   62911028202612030000000000004700000000004700002000000010410403271604030044414052100327000744782207   1030000200030000   541188001288000008000001475KBZ BANK               CITY CARE STA MMR11003271604030044410327000000000000000   10300001 00104100000000000282000000000000     
100   95030301100126220000000000100000000000100000002000000010410403271004443444864052100327000006882076   1030000200030000   333800010001203104000003327KBZPay                 Yangon        MMR11003271004443444860327000000000000000   10300001F05104100000000021000000000000000     
100   95050314307746340000000000009800000000009800002000000010410403270424195419436352140327000006880530   1020000200030000   333400010001204104000000281Myanmar Soft-Gate Tech Yangon        MMR11003270424195419430327000000000000000   10300001F05104100000000002058000000000000     
100   95050316785465380000000000001960000000001960002000000010410403271015484548080104450327000006882120   1020000200030000   333400010001204104000000281Myanmar Soft-Gate Tech Yangon        MMR11003271015484548080327000000000000000   10300001F05104100000000000412000000000000     
100   95050317518971470000000000015000000000015000002000000010410403271036370637921501640327000006882213   1030000200030000   3338000100012031040000040022C2P (Myanmar) Co. Ltd Yangon        MMR11003271036370637920327000000000000000   10300001F05104100000000003150000000000000     
100   95050318617855880000000000000980000000000980002000000010410403270649471947299898610327000006881276   1020000200030000   333400010001204104000000281Myanmar Soft-Gate Tech Yangon        MMR11003270649471947290327000000000000000   10300001F05104100000000000206000000000000     
100   95050317175714970000000000016200000000016200002000000010410403270838357399282657340327208615739928   1040001600030000   541120000573000000010000465Ocean Shwe Gone Daing  Yangon        MMR11003270838357399280327000000000000000   10300001F00104100000000004050000000000000     
100   95050317343045830000000000000980000000000980002000000010410403270803423342753714150327000006881609   1020000200030000   333400010001204104000000281Myanmar Soft-Gate Tech Yangon        MMR11003270803423342750327000000000000000   10300001F05104100000000000206000000000000     
100   95050319211130030000000000027900000000027900002000000010410403271137117215835912870327806071811085   1030000900030000   541119001279190110000000963City Mart SPL C 4      YANGONMYOTHIT MMR11003271137117215830327000000000000000   10300001F00104100000000006975000000000000     
100   95050313970192050000000000010000000000010000002000000010410403271206495881847395160327033361815085   1030000500030000   555610112651104519000010846City Express MCS 34                  MMR11003271206495881840327000000000000000   10300001 00104100000000002500000000000000     
100   95030301100122750000000000006500000000006500002000000010410403270411507106654052100327468411050085   1030000900030000   541119001113190110000000872Sein Gay Har Hledan    YANGONUT      MMR11003270411507106650327000000000000000   10300001F00104100000000000390000000000000     
100   95030341448197210000000000030000000000030000002000000010410403270837207398614052100327208615739861   1040001600030000   598320000854000000010000608Terminal Petrol Statio Yangon        MMR11003270837207398610327000000000000000   10300001F00104100000000000900000000000000     
100   62911028202907560000000000025000000000025000002000000010410403270322535800934052100327707081007085   1030000500030000   888810109467104519000008486Max Energy CoLtd 3                   MMR11003270322535800930327000000000000000   10300001 00104100000000000750000000000000     
100   62911028202091860000000000012000000000012000002000000010410403260656240000054052100326208513000005   1030000500030000   481220023801000024812200238ANYCALL MOBILE         PTN           MMR11003260656240000050326000000000000000   10300001 00104100000000000720000000000000     
100   62911028202170490000000000036000000000036000002000000010410403250105420000224052100325208407000022   1030000500030000   598320001403000015172200014MAX ENERGY             PTN           MMR11003250105420000220325000000000000000   10300001 00104100000000001080000000000000     
100   95050314287403810000000000008000000000008000002000000010410403251001500000020771430325208416000002   1030000500030000   569120109701008205691201097ESCORT (PYAY)          PTN           MMR11003251001500000020325000000000000000   10300001 00104100000000001920000000000000     
100   95030393174848800000000000103900000000103900002000000010410403250904270000224052100325208415000022   1030000500030000   503920036611000015039200366PRO-1 HOME CENTER      PTN           MMR11003250904270000220325000000000000000   10300001 00104100000000006234000000000000     
100   62911028202136750000000000071000000000071000002000000010410403250133400000254052100325208408000025   1030000500030000   598320001403000015172200014MAX ENERGY             PTN           MMR11003250133400000250325000000000000000   10300001 00104100000000002130000000000000     
100   62443100374831340000000000053970000000053970002000000010410403251355290003494026960325208420000349   1030000500030000   581220049201006405812200492OTHENTIC RESTAURANT    PTN           MMR11003251355290003490325000000000000000   10300001 00104100000000022938000000000000     
100   95050310644222860000000000033500000000033500002000000010410403250954310004926154370325208416000492   1030000500030000   564120055801016505641200558BABY & ME              PTN           MMR11003250954310004920325000000000000000   10300001 00104100000000008040000000000000     
100   62443100372718280000000000060979000000060979002000000010410403251311020000357331930325208419000035   1030000500030000   581220146401013205812201464THAI 47 (HELPIN BRANCH PTN           MMR11003251311020000350325000000000000000   10300001 00104100000000025916000000000000     
100   95050318052625040000000000030000000000030000002000000010410403250007240058717390440325208406005871   1030000500030000   598320002104000015172200021MAX ENERGY             PTN           MMR11003250007240058710325000000000000000   10300001 00104100000000003600000000000000     
100   95050310494988230000000000010000000000010000002000000010410403270751442144448671610327000006881558   1030000200030000   333800010001203104000003327KBZPay                 Yangon        MMR11003270751442144440327000000000000000   10300001F05104100000000002100000000000000     
100   95050315110306410000000000005000000000005000002000000010410403270340141014925501180327000006880326   1030000200030000   333800010001203104000003327KBZPay                 Yangon        MMR11003270340141014920327000000000000000   10300001F05104100000000001050000000000000     
100   95030359617000430000000000300000000000300000002000000010410403271456342634344052100327000006883280   1030000200030000   333800010001203104000003327KBZPay                 Yangon        MMR11003271456342634340327000000000000000   10300001F05104100000000063000000000000000     
100   95050312498129060000000000000980000000000980002000000010410403271126235623598537060327000006882428   1020000200030000   333400010001204104000000281Myanmar Soft-Gate Tech Yangon        MMR11003271126235623590327000000000000000   10300001F05104100000000000206000000000000     
100   62911028202231380000000000006000000000006000002000000010410403271322010186194052100327000744775282   1030000200030000   541188001032000008000000298KBZ BANK               CITY MART - M MMR11003271322010186190327000000000000000   10300001 00104100000000000360000000000000     
100   95050313113158460000000000002940000000002940002000000010410403270337390739057153660327000006880314   1020000200030000   333400010001204104000000281Myanmar Soft-Gate Tech Yangon        MMR11003270337390739050327000000000000000   10300001F05104100000000000617000000000000     
100   95030395875796410000000000060000000000060000002000000010410403270142461246244052100327000006879875   1030000200030000   333800010001203104000003327KBZPay                 Yangon        MMR11003270142461246240327000000000000000   10300001F05104100000000012600000000000000     
100   62911028202446700000000000300000000000300000002000000010410403271502383238054052100327000006883310   1030000200030000   333800010001203104000003327KBZPay                 Yangon        MMR11003271502383238050327000000000000000   10300001F05104100000000063000000000000000     
100   62911028202147720000000000059000000000059000002000000010410403250300040000324052100325208409000032   1030000500030000   598320001604000015172200016MAX ENERGY             PTN           MMR11003250300040000320325000000000000000   10300001 00104100000000001770000000000000     
100   62911028202193830000000000087000000000087000002000000010410403251025520000544052100325208416000054   1030000500030000   598320001602000015172200016MAX ENERGY             PTN           MMR11003251025520000540325000000000000000   10300001 00104100000000002610000000000000     
100   95050324154190880000000000006400000000006400002000000010410403251647320026767636660325000744709268   1030000200030000   541188001188000008000000383KBZ BANK               OCEAN SUPER C MMR11003251647320026760325000000000000000   10300001 00104100000000001600000000000000     
100   62911028202680670000000000030000000000030000002000000010410403250639260000454052100325208413000045   1030000500030000   598320001302000015172200013MAX ENERGY             PTN           MMR11003250639260000450325000000000000000   10300001 00104100000000000900000000000000     
100   62443100372702000000000000040000000000040000002000000010410403250727480001507368570325208413000150   1030000500030000   598320001202000015172200012MAX ENERGY             PTN           MMR11003250727480001500325000000000000000   10300001 00104100000000004800000000000000     
100   62911028202662690000000000290954000000290954002000000010410403250233370002584052100325208409000258   1030000500030000   551120123201000205511201232MINGALAR MOTOR CO. LTD PTN           MMR11003250233370002580325000000000000000   10300001 00104100000000017457000000000000     
100   95050318843447930000000000004450000000004450002000000010410403250619110010363297740325208412001036   1030000500030000   531120155803000045311201558GAMONE PWINT           PTN           MMR11003250619110010360325000000000000000   10300001 00104100000000001068000000000000     
100   62443100371022130000000000041700000000041700002000000010410403251333100025970721990325208420002597   1030000500030000   581220123001000045812201230YOON KITCHEN           PTN           MMR11003251333100025970325000000000000000   10300001 00104100000000017723000000000000     
100   95030301100126220000000000300000000000300000002000000010410403271002453245264052100327000006882070   1030000200030000   333800010001203104000003327KBZPay                 Yangon        MMR11003271002453245260327000000000000000   10300001F05104100000000063000000000000000     
100   95050312210363590000000000001000000000001000002000000010410403271454332433916975390327000006883270   1030000200030000   333800010001203104000003327KBZPay                 Yangon        MMR11003271454332433910327000000000000000   10300001F05104100000000000210000000000000     
100   62911028202105070000000000053581000000053581002000000010410403271247250044664052100327000744773900   1030000200030000   541188001006000008000000008KBZ BANK               MARKETPLACE - MMR11003271247250044660327000000000000000   10300001 00104100000000003215000000000000     
100   62443100340648380000000000003000000000003000002000000010410403270503183318499728410327000006880756   1030000200030000   333800010001203104000003327KBZPay                 Yangon        MMR11003270503183318490327000000000000000   10300001F05104100000000000630000000000000     
100   95050313702988830000000000001960000000001960002000000010410403270405213521961224500327000006880409   1020000200030000   333400010001204104000000281Myanmar Soft-Gate Tech Yangon        MMR11003270405213521960327000000000000000   10300001F05104100000000000412000000000000     
100   62911028202446700000000000300000000000300000002000000010410403271453302330034052100327000006883268   1030000500030000   333800010001201104000003863AYA Pay                Yangon        MMR11003271453302330030327000000000000000   10300001F05104100000000063000000000000000     
100   95050328876009750000000000025000000000025000002000000010410403270627595759991891480327000006881176   1030000200030000   333800010001203104000003327KBZPay                 Yangon        MMR11003270627595759990327000000000000000   10300001F05104100000000005250000000000000     
100   95050312675873230000000000002940000000002940002000000010410403271515584558192103040327000006883348   1020000200030000   333400010001204104000000281Myanmar Soft-Gate Tech Yangon        MMR11003271515584558190327000000000000000   10300001F05104100000000000617000000000000     
100   95030320529939180000000000120000000000120000002000000010410403250944150000754052100325208416000075   1030000500030000   598320002102000015172200021MAX ENERGY             PTN           MMR11003250944150000750325000000000000000   10300001 00104100000000003600000000000000     
100   62911028202472850000000000088000000000088000002000000010410403250336030000754052100325208410000075   1030000500030000   598320001902000015172200019MAX ENERGY             PTN           MMR11003250336030000750325000000000000000   10300001 00104100000000002640000000000000     
100   95030301100332300000000000066000000000066000002000000010410403251024410000644052100325208416000064   1030000500030000   569120104001008205691201040ESCORT ( CITY MALL-ST. PTN           MMR11003251024410000640325000000000000000   10300001 00104100000000003960000000000000     
100   62911028202143500000000000055000000000055000002000000010410403251216420001154052100325208418000115   1030000500030000   598320002101000015172200021MAX ENERGY             PTN           MMR11003251216420001150325000000000000000   10300001 00104100000000001650000000000000     
100   62911028202680670000000000010000000000010000002000000010410403250638590000444052100325208413000044   1030000500030000   598320001302000015172200013MAX ENERGY             PTN           MMR11003250638590000440325000000000000000   10300001 00104100000000000300000000000000     
100   62911028202485720000000000045000000000045000002000000010410403250310530000324052100325208409000032   1030000500030000   598320002701000015172200027MAX ENERGY             PTN           MMR11003250310530000320325000000000000000   10300001 00104100000000001350000000000000     
100   95050320531117320000000000065000000000065000002000000010410403251234580001052544660325208419000105   1030000500030000   598320002701000015172200027MAX ENERGY             PTN           MMR11003251234580001050325000000000000000   10300001 00104100000000007800000000000000     
100   95050311823681970000000000017000000000017000002000000010410403261031090005049376490326000744730363   1030000200030000   541188001487000008000000399KBZ BANK               OCEAN SUPERCE MMR11003261031090005040326000000000000000   10300001 00104100000000004250000000000000     
100   95050323576695670000000000021150000000021150002000000010410403271747130116262267520327000744787086   1030000200030000   541188001056000008000000314KBZ BANK               MARKETPLACE - MMR11003271747130116260327000000000000000   10300001 00104100000000005288000000000000     
100   95050316818236190000000000002940000000002940002000000010410403270210144014744650220327000006879965   1020000200030000   333400010001204104000000281Myanmar Soft-Gate Tech Yangon        MMR11003270210144014740327000000000000000   10300001F05104100000000000617000000000000     
100   95050317343045830000000000001960000000001960002000000010410403270806253625645451730327000006881614   1020000200030000   333400010001204104000000281Myanmar Soft-Gate Tech Yangon        MMR11003270806253625640327000000000000000   10300001F05104100000000000412000000000000     
100   95050315122972560000000000000980000000000980002000000010410403271308363836945578200327000006882798   1020000200030000   333400010001204104000000281Myanmar Soft-Gate Tech Yangon        MMR11003271308363836940327000000000000000   10300001F05104100000000000206000000000000     
100   95050318608138520000000000003002000000003002002000000010410403271507133713600365460327000006883329   1030000200030000   333800010001203104000003327KBZPay                 Yangon        MMR11003271507133713600327000000000000000   10300001F05104100000000000630000000000000     
100   95050325630928770000000000000980000000000980002000000010410403270458482848041380900327000006880729   1020000200030000   333400010001204104000000281Myanmar Soft-Gate Tech Yangon        MMR11003270458482848040327000000000000000   10300001F05104100000000000206000000000000     
100   95050314307746340000000000009800000000009800002000000010410403270447251725916338350327000006880662   1020000200030000   333400010001204104000000281Myanmar Soft-Gate Tech Yangon        MMR11003270447251725910327000000000000000   10300001F05104100000000002058000000000000     
100   95050319331315630000000000016660000000016660002000000010410403271352042204879053360327000006883015   1020000200030000   333400010001204104000000281Myanmar Soft-Gate Tech Yangon        MMR11003271352042204870327000000000000000   10300001F05104100000000003499000000000000     
100   95030301100124990000000000016700000000016700002000000010410403261117200007974052100326000744732174   1030000200030000   581288000943000008000001849KBZ BANK               PIZZA HUT RES MMR11003261117200007970326000000000000000   10300001 00104100000000001703000000000000     
100   95050325925517520000000000066880000000066880002000000010410403260624270000676958130326208512000067   1030000500030000   581220146401013205812201464THAI 47 (HELPIN BRANCH PTN           MMR11003260624270000670326000000000000000   10300001 00104100000000028424000000000000     
100   95050316901496590000000000009650000000009650002000000010410403261228280000067373300326208518000006   1030000500030000   541120045801009205411200458126 STORE              PTN           MMR11003261228280000060326000000000000000   10300001 00104100000000002413000000000000     
100   95050310864314220000000000011900000000011900002000000010410403261016520000593277130326208516000059   1030000500030000   531120155801000045311201558GAMONE PWINT           PTN           MMR11003261016520000590326000000000000000   10300001 00104100000000002856000000000000     
100   95050318052625040000000000069000000000069000002000000010410403260836070001897603250326208515000189   1030000500030000   598320001003000015172200010MAX ENERGY             PTN           MMR11003260836070001890326000000000000000   10300001 00104100000000008280000000000000     
100   62911028202668140000000000090100000000090100002000000010410403260959140002164052100326208516000216   1030000500030000   598320002103000015172200021MAX ENERGY             PTN           MMR11003260959140002160326000000000000000   10300001 00104100000000002703000000000000     
100   62911028202448030000000000030000000000030000002000000010410403260659350004864052100326208513000486   1030000500030000   598320001902000015172200019MAX ENERGY             PTN           MMR11003260659350004860326000000000000000   10300001 00104100000000000900000000000000     
100   95030374458345210000000000005150000000005150002000000010410403260938390000174052100326208516000017   1030000500030000   531120155807000045311201558GAMONE PWINT           PTN           MMR11003260938390000170326000000000000000   10300001 00104100000000000309000000000000     
100   95050312498129060000000000002940000000002940002000000010410403271339060906434010810327000006882939   1020000200030000   333400010001204104000000281Myanmar Soft-Gate Tech Yangon        MMR11003271339060906430327000000000000000   10300001F05104100000000000617000000000000     
100   62911028202221220000000000009150000000009150002000000010410403270754360059304052100327000744765042   1030000200030000   541188001002000008000000008KBZ BANK               MARKETPLACE - MMR11003270754360059300327000000000000000   10300001 00104100000000000549000000000000     
100   95030341448197210000000000063000000000063000002000000010410403271611430136654052100327000744782622   1030000200030000   541188001049000008000000010KBZ BANK               MARKETPLACE - MMR11003271611430136650327000000000000000   10300001 00104100000000003780000000000000     
100   95050319156544340000000000000980000000000980002000000010410403271036180618753154130327000006882209   1020000200030000   333400010001204104000000281Myanmar Soft-Gate Tech Yangon        MMR11003271036180618750327000000000000000   10300001F05104100000000000206000000000000     
100   95050314307746340000000000002940000000002940002000000010410403270138290829616231390327000006879869   1020000200030000   333400010001204104000000281Myanmar Soft-Gate Tech Yangon        MMR11003270138290829610327000000000000000   10300001F05104100000000000617000000000000     
100   95050315330275830000000000000980000000000980002000000010410403271540391039133755520327000006883435   1020000200030000   333400010001204104000000281Myanmar Soft-Gate Tech Yangon        MMR11003271540391039130327000000000000000   10300001F05104100000000000206000000000000     
100   95030301100126220000000000300000000000300000002000000010410403271003363336254052100327000006882071   1030000200030000   333800010001203104000003327KBZPay                 Yangon        MMR11003271003363336250327000000000000000   10300001F05104100000000063000000000000000     
100   95050316997303010000000000000980000000000980002000000010410403271357142714632358330327000006883045   1020000200030000   333400010001204104000000281Myanmar Soft-Gate Tech Yangon        MMR11003271357142714630327000000000000000   10300001F05104100000000000206000000000000     
100   62911028202446700000000000020000000000020000002000000010410403260108030000464052100326208507000046   1030000500030000   598320001701000015172200017MAX ENERGY             PTN           MMR11003260108030000460326000000000000000   10300001 00104100000000000600000000000000     
100   95050312020318170000000000020000000000020000002000000010410403261057030001241479780326208517000124   1030000500030000   598320001401000015172200014MAX ENERGY             PTN           MMR11003261057030001240326000000000000000   10300001 00104100000000002400000000000000     
100   95050328303533000000000000391500000000391500002000000010410403260334550000073736020326000744729460   1030000200030000   573288000072000008000003849KBZ BANK               WAI YAN ELECT MMR11003260334550000070326000000000000000   10300001 00104100000000093960000000000000     
100   95030313100013730000000000010350000000010350002000000010410403260706310000144052100326208513000014   1030000500030000   531120155903000045311201559GAMONE PWINT           PTN           MMR11003260706310000140326000000000000000   10300001 00104100000000000621000000000000     
100   62911028202534810000000000023000000000023000002000000010410403261200520002534052100326208518000253   1030000500030000   598320001603000015172200016MAX ENERGY             PTN           MMR11003261200520002530326000000000000000   10300001 00104100000000000690000000000000     
100   95050310864314220000000000025050000000025050002000000010410403261123480001472160550326208517000147   1030000500030000   531120155802000045311201558GAMONE PWINT           PTN           MMR11003261123480001470326000000000000000   10300001 00104100000000006012000000000000     
100   95030307100064460000000000088000000000088000002000000010410403261151530002704052100326208518000270   1030000500030000   598320002001000015172200020MAX ENERGY             PTN           MMR11003261151530002700326000000000000000   10300001 00104100000000002640000000000000     
100   62911028202442250000000000021000000000021000002000000010410403260656180003644052100326208513000364   1030000500030000   598320001202000015172200012MAX ENERGY             PTN           MMR11003260656180003640326000000000000000   10300001 00104100000000000630000000000000     
100   95030341448197210000000000010500000000010500002000000010410403271530440030324052100327000744780478   1030000200030000   541188001053000008000000539KBZ BANK               SAFARI BOOK S MMR11003271530440030320327000000000000000   10300001 00104100000000000630000000000000     
100   62911028202161240000000000030979000000030979002000000010410403270955580303924052100327000744767421   1030000200030000   541188001025000008000000298KBZ BANK               CITY MART - M MMR11003270955580303920327000000000000000   10300001 00104100000000001859000000000000     
100   95050311959900780000000000000980000000000980002000000010410403271304343434030620740327000006882781   1020000200030000   333400010001204104000000281Myanmar Soft-Gate Tech Yangon        MMR11003271304343434030327000000000000000   10300001F05104100000000000206000000000000     
100   95050324154190880000000000042500000000042500002000000010410403271900230200780535650327000744789940   1030000200030000   541188001007000008000000008KBZ BANK               MARKETPLACE - MMR11003271900230200780327000000000000000   10300001 00104100000000010625000000000000     
100   95050312498129060000000000000980000000000980002000000010410403271351242124187315780327000006883005   1020000200030000   333400010001204104000000281Myanmar Soft-Gate Tech Yangon        MMR11003271351242124180327000000000000000   10300001F05104100000000000206000000000000     
100   95050327416134790000000000001960000000001960002000000010410403271342211221108968260327000006882951   1020000200030000   333400010001204104000000281Myanmar Soft-Gate Tech Yangon        MMR11003271342211221100327000000000000000   10300001F05104100000000000412000000000000     
100   95050316997303010000000000001960000000001960002000000010410403270241291129766898370327000006880072   1020000200030000   333400010001204104000000281Myanmar Soft-Gate Tech Yangon        MMR11003270241291129760327000000000000000   10300001F05104100000000000412000000000000     
100   95030301100126220000000000300000000000300000002000000010410403271001393139044052100327000006882059   1030000200030000   333800010001203104000003327KBZPay                 Yangon        MMR11003271001393139040327000000000000000   10300001F05104100000000063000000000000000     
100   62443100395964530000000000030000000000030000002000000010410403260817330001653872800326208514000165   1030000500030000   598320002104000015172200021MAX ENERGY             PTN           MMR11003260817330001650326000000000000000   10300001 00104100000000003600000000000000     
100   62911028202503210000000000050000000000050000002000000010410403260613520002944052100326208512000294   1030000500030000   598320001403000015172200014MAX ENERGY             PTN           MMR11003260613520002940326000000000000000   10300001 00104100000000001500000000000000     
100   62911028202472850000000000050000000000050000002000000010410403260918210004494052100326208515000449   1030000500030000   598320001201000015172200012MAX ENERGY             PTN           MMR11003260918210004490326000000000000000   10300001 00104100000000001500000000000000     
100   62911028202471600000000000009500000000009500002000000010410403260415020007534052100326208510000753   1030000500030000   591220014301014405912200143SHWE OHH PHARMACY      PTN           MMR11003260415020007530326000000000000000   10300001 00104100000000000570000000000000     
100   95050310543219930000000000100000000000100000002000000010410403260414180000030858770326208510000003   1030000500030000   594420049801000015944200498MORE & MORE GEMS       PTN           MMR11003260414180000030326000000000000000   10300001 00104100000000024000000000000000     
100   62911028202680670000000000158160000000158160002000000010410403260904110000044052100326208515000004   1030000500030000   5712201074010080057122010741-2-1 PUBLIC CO. LTD   PTN           MMR11003260904110000040326000000000000000   10300001 00104100000000009490000000000000     
100   95030366960186690000000000012000000000012000002000000010410403260451050000854052100326000336982931   1030000300030000   531100000820000000000000559CB BANK                MGOU          MMR11003260451050000850326000000000000000   10300001F00104100000000000720000000000000     
100   95050320205194540000000000170450000000170450002000000010410403260355350000042168630326208510000004   1030000500030000   591220013501014405912200135SHWE OHH PHARMACY      PTN           MMR11003260355350000040326000000000000000   10300001 00104100000000040908000000000000     
100   95050318601641810000000000000980000000000980002000000010410403270526055605406508540327000006880808   1020000200030000   333400010001204104000000281Myanmar Soft-Gate Tech Yangon        MMR11003270526055605400327000000000000000   10300001F05104100000000000206000000000000     
100   95050314703432410000000000001000000000001000002000000010410403270916264626714309830327000006881897   1030000200030000   3338000100012031040000040022C2P (Myanmar) Co. Ltd Yangon        MMR11003270916264626710327000000000000000   10300001F05104100000000000210000000000000     
100   95050318242219520000000000000980000000000980002000000010410403270533120312724430570327000006880874   1020000200030000   333400010001204104000000281Myanmar Soft-Gate Tech Yangon        MMR11003270533120312720327000000000000000   10300001F05104100000000000206000000000000     
100   95050317088336250000000000115000000000115000002000000010410403270437180718350969210327000006880609   1030000200030000   333800010001203104000003327KBZPay                 Yangon        MMR11003270437180718350327000000000000000   10300001F05104100000000024150000000000000     
100   95050317376014640000000000000980000000000980002000000010410403270634210421215281540327000006881202   1020000200030000   333400010001204104000000281Myanmar Soft-Gate Tech Yangon        MMR11003270634210421210327000000000000000   10300001F05104100000000000206000000000000     
100   95050315424817550000000000000980000000000980002000000010410403270557232723916083060327000006881017   1020000200030000   333400010001204104000000281Myanmar Soft-Gate Tech Yangon        MMR11003270557232723910327000000000000000   10300001F05104100000000000206000000000000     
100   95050320684106730000000000002000000000002000002000000010410403270730300030376593640327000006881455   1030000200030000   3338000100012031040000040022C2P (Myanmar) Co. Ltd Yangon        MMR11003270730300030370327000000000000000   10300001F05104100000000000420000000000000     
100   62911028202231380000000000039568000000039568002000000010410403271313280051034052100327000744774893   1030000200030000   541188001021000008000000298KBZ BANK               CITY MART - M MMR11003271313280051030327000000000000000   10300001 00104100000000002374000000000000     
100   95050326228858240000000000096000000000096000002000000010410403260157400001340175760326208508000134   1030000500030000   598320002702000015172200027MAX ENERGY             PTN           MMR11003260157400001340326000000000000000   10300001 00104100000000011520000000000000     
100   62443100316099160000000000079000000000079000002000000010410403260639380001752204280326208513000175   1030000500030000   598320001402000015172200014MAX ENERGY             PTN           MMR11003260639380001750326000000000000000   10300001 00104100000000009480000000000000     
100   95050325925517520000000000032800000000032800002000000010410403260401120000679291390326208510000067   1030000500030000   503920036606000015039200366PRO-1 HOME CENTER      PTN           MMR11003260401120000670326000000000000000   10300001 00104100000000007872000000000000     
100   95030301100120440000000000012400000000012400002000000010410403260559350001304052100326000336991757   1030000300030000   531100000604000000000000408CB BANK                CAPITAL HYPER MMR11003260559350001300326000000000000000   10300001F00104100000000000744000000000000     
100   62911028202221220000000000010000000000010000002000000010410403260432200002104052100326208511000210   1030000500030000   598320001404000015172200014MAX ENERGY             PTN           MMR11003260432200002100326000000000000000   10300001 00104100000000000300000000000000     
100   62911028202169750000000000028000000000028000002000000010410403260628060003974052100326000744736507   1030000200030000   594488000563000008000003779KBZ BANK               CHERRY OO (CA MMR11003260628060003970326000000000000000   10300001 00104100000000001680000000000000     
100   95030313100013730000000000009790000000009790002000000010410403260725380000154052100326208513000015   1030000500030000   531120155904000045311201559GAMONE PWINT           PTN           MMR11003260725380000150326000000000000000   10300001 00104100000000000587000000000000     
100   62443100355445150000000000070950000000070950002000000010410403260356310000642681450326208510000064   1030000500030000   503920036606000015039200366PRO-1 HOME CENTER      PTN           MMR11003260356310000640326000000000000000   10300001 00104100000000017028000000000000     
100   95050313113158460000000000000980000000000980002000000010410403271131160116805317190327000006882455   1020000200030000   333400010001204104000000281Myanmar Soft-Gate Tech Yangon        MMR11003271131160116800327000000000000000   10300001F05104100000000000206000000000000     
100   95030341448197210000000000016900000000016900002000000010410403271614050146244052100327000744782752   1030000200030000   541188001044000008000000010KBZ BANK               MARKETPLACE - MMR11003271614050146240327000000000000000   10300001 00104100000000001014000000000000     
100   62911028202443730000000000027000000000027000002000000010410403270209115792994052100327685370836085   1030000300030000   888810125458104519000021285Shwe Taung Energy CoLt               MMR11003270209115792990327000000000000000   10300001 00104100000000000810000000000000     
100   95050318843447930000000000011300000000011300002000000010410403270933085854342898840327044001655085   1030000500030000   555610110557104519000009163City Mart Ayeyarwon Br nch           MMR11003270933085854340327000000000000000   10300001 00104100000000002825000000000000     
100   95050316421999920000000000002940000000002940002000000010410403271218514851377230680327000006882607   1020000200030000   333400010001204104000000281Myanmar Soft-Gate Tech Yangon        MMR11003271218514851370327000000000000000   10300001F05104100000000000617000000000000     
100   62911028202447120000000000176000000000176000002000000010410403270722015834174052100327182521344085   1030000500030000   555610114572104519000012532City Mart Ahlone Branc               MMR11003270722015834170327000000000000000   10300001 00104100000000010560000000000000     
100   95050317919176400000000000001353000000001353002000000010410403271122025874923494520327089541708085   1030000500030000   555610120944104519000017714City Mart Yuzana Dagon Seikkan       MMR11003271122025874920327000000000000000   10300001 00104100000000000339000000000000     
100   62911028202088990000000000022800000000022800002000000010410403270520495815744052100327598481151085   1030000500030000   555610114572104519000012532City Mart Ahlone Branc               MMR11003270520495815740327000000000000000   10300001 00104100000000001368000000000000     
100   95050310864314220000000000008550000000008550002000000010410403260937340000485355090326208516000048   1030000500030000   531120155805000045311201558GAMONE PWINT           PTN           MMR11003260937340000480326000000000000000   10300001 00104100000000002052000000000000     
100   95050314641725490000000000011000000000011000002000000010410403260534210000875646030326000336988556   1030000300030000   531100000820000000000000559CB BANK                MGOU          MMR11003260534210000870326000000000000000   10300001F00104100000000002640000000000000     
100   95050324622440820000000000032650000000032650002000000010410403261722120142358089720326000744748667   1030000200030000   541188001305000008000000325KBZ BANK               CITY MART - A MMR11003261722120142350326000000000000000   10300001 00104100000000008163000000000000     
100   62911028202331290000000000165350000000165350002000000010410403260949470008594052100326208516000859   1030000500030000   591220014201014405912200142SHWE OHH PHARMACY      PTN           MMR11003260949470008590326000000000000000   10300001 00104100000000009921000000000000     
100   62443100369787460000000000021012000000021012002000000010410403261834420032855976100326000744751981   1030000200030000   541188001022000008000000298KBZ BANK               CITY MART - M MMR11003261834420032850326000000000000000   10300001 00104100000000005253000000000000     
100   95050322083768590000000000079560000000079560002000000010410403261731040142389827300326000744749121   1030000200030000   541188001305000008000000325KBZ BANK               CITY MART - A MMR11003261731040142380326000000000000000   10300001 00104100000000019890000000000000     
100   62911028202502480000000000018214000000018214002000000010410403261547110284564052100326000744743857   1030000200030000   541188001041000008000000010KBZ BANK               MARKETPLACE - MMR11003261547110284560326000000000000000   10300001 00104100000000001093000000000000     
100   62911028202405530000000000026050000000026050002000000010410403261331230168354052100326000744737896   1030000200030000   541188001124000008000000296KBZ BANK               CITY MART - J MMR11003261331230168350326000000000000000   10300001 00104100000000001563000000000000     
100   62911028202088990000000000038250000000038250002000000010410403270529005816964052100327772571124085   1030000500030000   555610114574104519000012532City Mart Ahlone Branc               MMR11003270529005816960327000000000000000   10300001 00104100000000002295000000000000     
100   95050312554086980000000000005900000000005900002000000010410403270933225854411246360327053011630085   1030000500030000   555610110557104519000009163City Mart Ayeyarwon Br nch           MMR11003270933225854410327000000000000000   10300001 00104100000000001475000000000000     
100   62911028202115470000000000016500000000016500002000000010410403271050125868034052100327077181707085   1030000500030000   555610114571104519000012532City Mart Ahlone Branc               MMR11003271050125868030327000000000000000   10300001 00104100000000000990000000000000     
100   95050320624349010000000000030000000000030000002000000010410403270252225798949146530327486520941085   1030000500030000   888810109465104519000008484Max Energy CoLtd 1                   MMR11003270252225798940327000000000000000   10300001 00104100000000003600000000000000     
100   62443100374068610000000000037250000000037250002000000010410403270359335803956181950327060301056085   1030000500030000   555610103468104519000003420City Mart Yankin Cente 7             MMR11003270359335803950327000000000000000   10300001 00104100000000009313000000000000     
100   62911028202595200000000000121700000000121700002000000010410403270905145849984052100327442331534085   1030000300030000   555510124696104519000020166Makro Myanmar                        MMR11003270905145849980327000000000000000   10300001 00104100000000007302000000000000     
100   95050324247403260000000000130670000000130670002000000010410403270914255851305962310327615421514085   1030000300030000   555510100173104519000000168MK Fashion Shop                      MMR11003270914255851300327000000000000000   10300001 00104100000000031361000000000000     
100   62443100313002190000000000004000000000004000002000000010410403271200105882708883170327162411853085   1030000500030000   555610122351104519000018696CityMartSupermarket Sh ePyiTha       MMR11003271200105882700327000000000000000   10300001 00104100000000001000000000000000     
100   62443100398006570000000000041600000000041600002000000010410403261807000173848515200326000744750805   1030000200030000   541188001075000008000000294KBZ BANK               CITY MART - J MMR11003261807000173840326000000000000000   10300001 00104100000000010400000000000000     
100   62911028202442250000000000006400000000006400002000000010410403261546570042194052100326000744743842   1030000200030000   541188001033000008000000298KBZ BANK               CITY MART - M MMR11003261546570042190326000000000000000   10300001 00104100000000000384000000000000     
100   95030313100013730000000000012055000000012055002000000010410403261018380046524052100326000337024961   1030000300030000   541100000442000000000000319CB BANK                ONESTOP KITCH MMR11003261018380046520326000000000000000   10300001F00104100000000000723000000000000     
100   95030301100126550000000000089400000000089400002000000010410403261030450284024052100326000744730346   1030000200030000   541188001041000008000000010KBZ BANK               MARKETPLACE - MMR11003261030450284020326000000000000000   10300001 00104100000000005364000000000000     
100   62911028202136750000000000016700000000016700002000000010410403261522500010384052100326000744742802   1030000200030000   581288000940000008000001248KBZ BANK               PIZZA HUT (TH MMR11003261522500010380326000000000000000   10300001 00104100000000001703000000000000     
100   95050326689257240000000000012150000000012150002000000010410403261149510018068600300326000337036929   1030000300030000   531100000797000000000000540CB BANK                CAPITAL SUPER MMR11003261149510018060326000000000000000   10300001F00104100000000002916000000000000     
100   95030312100077850000000000038673000000038673002000000010410403261050240178744052100326000744731072   1030000200030000   541188001054000008000000314KBZ BANK               MARKETPLACE - MMR11003261050240178740326000000000000000   10300001 00104100000000002320000000000000     
100   62911028202169750000000000221011000000221011002000000010410403261037360280244052100326000744730584   1030000200030000   541188001039000008000000010KBZ BANK               MARKETPLACE - MMR11003261037360280240326000000000000000   10300001 00104100000000013261000000000000     
100   62911028202045260000000000039250000000039250002000000010410403270530035817094052100327791571158085   1030000500030000   555610112240104519000010487Ocean Super Center St  ohn           MMR11003270530035817090327000000000000000   10300001 00104100000000002355000000000000     
100   62443101037081820000000000111350000000111350002000000010410403271139275877387650450327448091832085   1030000300030000   555510124693104519000020166Makro Myanmar                        MMR11003271139275877380327000000000000000   10300001 00104100000000026724000000000000     
100   62443100313002190000000000029750000000029750002000000010410403271152155879552352610327728221842085   1030000500030000   555610122356104519000018696CityMartSupermarket Sh ePyiTha       MMR11003271152155879550327000000000000000   10300001 00104100000000007438000000000000     
100   62443100313002190000000000037337000000037337002000000010410403271158585882420785220327119401821085   1030000500030000   555610122351104519000018696CityMartSupermarket Sh ePyiTha       MMR11003271158585882420327000000000000000   10300001 00104100000000009335000000000000     
100   62443101023815100000000000011442000000011442002000000010410403271212155882449132740327122401827085   1030000500030000   555610114570104519000012532City Mart Ahlone Branc               MMR11003271212155882440327000000000000000   10300001 00104100000000002861000000000000     
100   62911028202722750000000000089000000000089000002000000010410403270305127094564052100327637350912085   1030000900030000   599919000570190110000000251Pro (1) Global (MawlaM MONLAMYAING   MMR11003270305127094560327000000000000000   10300001F00104100000000005340000000000000     
100   62911028202304220000000000068650000000068650002000000010410403270317477096344052100327755470947085   1030000900030000   541119000158190110000000084Pro (1) Global (Pazund YANGONARTAUNG MMR11003270317477096340327000000000000000   10300001F00104100000000004119000000000000     
100   95050316573091630000000000004900000000004900002000000010410403270428535853047664240327000006880572   1020000200030000   333400010001204104000000281Myanmar Soft-Gate Tech Yangon        MMR11003270428535853040327000000000000000   10300001F05104100000000001029000000000000     
100   62911028202527490000000000080000000000080000002000000010410403261346020008304052100326208520000830   1030000500030000   581220159201000015812201592GOLDEN DUCK (SAYAR SAN PTN           MMR11003261346020008300326000000000000000   10300001 00104100000000008160000000000000     
100   95050314538419220000000000015971000000015971002000000010410403260426150031821199160326000336979806   1030000300030000   541100000443000000000000319CB BANK                ONESTOP KITCH MMR11003260426150031820326000000000000000   10300001F00104100000000003993000000000000     
100   95050318919136220000000000027750000000027750002000000010410403261602560037717177770326000744744768   1030000200030000   541188001424000008000000401KBZ BANK               OCEAN SUPERCE MMR11003261602560037710326000000000000000   10300001 00104100000000006938000000000000     
100   62911028202680670000000000092366000000092366002000000010410403261508420244784052100326000744742195   1030000200030000   541188001042000008000000010KBZ BANK               MARKETPLACE - MMR11003261508420244780326000000000000000   10300001 00104100000000005542000000000000     
100   95030317922148660000000000096142000000096142002000000010410403261820260117064052100326000744751414   1030000200030000   541188001009000008000000008KBZ BANK               MARKETPLACE - MMR11003261820260117060326000000000000000   10300001 00104100000000005769000000000000     
100   95050310357533060000000000053600000000053600002000000010410403260831550018250567830326000744741883   1030000200030000   569988000803000008000004614KBZ BANK               JCY-IPANEMA   MMR11003260831550018250326000000000000000   10300001 00104100000000012864000000000000     
100   95050318048516790000000000005000000000005000002000000010410403261630290029004408710326000006879273   1030000200030000   3334000100012031040000040102C2P (Myanmar) Co. Ltd Yangon        MMR11003261630290029000326000000000000000   10300001F05104100000000001050000000000000     
100   95050314307746340000000000000980000000000980002000000010410403270442511251279401820327000006880640   1020000200030000   333400010001204104000000281Myanmar Soft-Gate Tech Yangon        MMR11003270442511251270327000000000000000   10300001F05104100000000000206000000000000     
100   95030301100121270000000000019250000000019250002000000010410403270255527093304052100327550250952085   1030000900030000   541119001263190110000000958City Mart PLST C 6     YANGONMYOTHIT MMR11003270255527093300327000000000000000   10300001F00104100000000001155000000000000     
100   95050313062063490000000000001960000000001960002000000010410403271014344434555061900327000006882115   1020000200030000   333400010001204104000000281Myanmar Soft-Gate Tech Yangon        MMR11003271014344434550327000000000000000   10300001F05104100000000000412000000000000     
100   95050324154190880000000000018600000000018600002000000010410403271328395889295663290327209571902085   1030000300030000   555510125330104519000021173One Stop Mart Shopping Mall 0003     MMR11003271328395889290327000000000000000   10300001 00104100000000004464000000000000     
100   95050318843447930000000000003950000000003950002000000010410403270929535853791161260327974571540085   1030000500030000   555610110565104519000009163City Mart Ayeyarwon Br nch           MMR11003270929535853790327000000000000000   10300001 00104100000000000988000000000000     
100   62911028202166940000000000013400000000013400002000000010410403270938035855044052100327138051649085   1030000300030000   444410125394104519000021221Myanmar Bakery CoLtd                 MMR11003270938035855040327000000000000000   10300001 00104100000000001367000000000000     
100   95050314365758940000000000006800000000006800002000000010410403271132275876293664710327301021804085   1030000500030000   555610120948104519000017714City Mart Yuzana Dagon Seikkan       MMR11003271132275876290327000000000000000   10300001 00104100000000001700000000000000     
100   62911028202194090000000000067600000000067600002000000010410403270238575794824052100327981070930085   1030000300030000   555510124691104519000020166Makro Myanmar                        MMR11003270238575794820327000000000000000   10300001 00104100000000004056000000000000     
100   62443100364681690000000000005700000000005700002000000010410403270852345850189097090327468351529085   1030000500030000   555610110574104519000009164City Mart China Town P int Cen       MMR11003270852345850180327000000000000000   10300001 00104100000000001425000000000000     
100   95050318621775380000000000001000000000001000002000000010410403271209353935125742680327000006882574   1030000200030000   3338000100012031040000040022C2P (Myanmar) Co. Ltd Yangon        MMR11003271209353935120327000000000000000   10300001F05104100000000000210000000000000     
100   95050314759815990000000000050000000000050000002000000010410403270959312931972728650327000006882054   1030000200030000   333800010001203104000003327KBZPay                 Yangon        MMR11003270959312931970327000000000000000   10300001F05104100000000010500000000000000     
100   95050323133124350000000000002940000000002940002000000010410403271355292529407400870327000006883036   1020000200030000   333400010001204104000000281Myanmar Soft-Gate Tech Yangon        MMR11003271355292529400327000000000000000   10300001F05104100000000000617000000000000     
100   62911028202498930000000000150000000000150000002000000010410403270333275800224052100327623031010085   1030000300030000   555510124364104519000020166Makro Myanmar                        MMR11003270333275800220327000000000000000   10300001 00104100000000009000000000000000     
100   62911028202067520000000000008000000000008000002000000010410403271645080177734052100327000744784156   1030000200030000   541188001037000008000000010KBZ BANK               MARKETPLACE - MMR11003271645080177730327000000000000000   10300001 00104100000000000480000000000000     
100   62911028202764820000000000006900000000006900002000000010410403270407597105854052100327405371059085   1030000900030000   541119001113190110000000872Sein Gay Har Hledan    YANGONUT      MMR11003270407597105850327000000000000000   10300001F00104100000000000414000000000000     
100   95050322158563070000000000390500000000390500002000000010410403250817220006426297980325208414000642   1030000500030000   571220130701002005712201307PERFECT PWINT OO       PTN           MMR11003250817220006420325000000000000000   10300001 00104100000000093720000000000000     
100   62911028202136750000000000047000000000047000002000000010410403260809430000884052100326208514000088   1030000500030000   598320001702000015172200017MAX ENERGY             PTN           MMR11003260809430000880326000000000000000   10300001 00104100000000001410000000000000     
100   95030301100122750000000000012000000000012000002000000010410403270452087115464052100327114221108085   1030000900030000   541119001074190110000000872Sein Gay Har Hledan    YANGONUT      MMR11003270452087115460327000000000000000   10300001F00104100000000000720000000000000     
100   62911028202788270000000000040000000000040000002000000010410403271139597216454052100327853091859085   1030000900030000   554119001101190110000000213New Day Energy SOK     YANGONOKKALAP MMR11003271139597216450327000000000000000   10300001F00104100000000001200000000000000     
100   62911028202027440000000000055000000000055000002000000010410403271146387218024052100327975161838085   1030000900030000   554119000348190110000000215New Day Energy MYG     YANGONONE     MMR11003271146387218020327000000000000000   10300001F00104100000000001650000000000000     
100   62911028202133520000000000005700000000005700002000000010410403271205107222144052100327280351810085   1030000900030000   541119001191190110000000942City Mart HDC C 6      YANGONUT      MMR11003271205107222140327000000000000000   10300001F00104100000000000342000000000000     
100   95050317071956460000000000009800000000009800002000000010410403271129555955713579610327000006882436   1020000200030000   333400010001204104000000281Myanmar Soft-Gate Tech Yangon        MMR11003271129555955710327000000000000000   10300001F05104100000000002058000000000000     
100   62443100355445150000000000099700000000099700002000000010410403270931087179876203810327956011608085   1030000900030000   541119000161190110000000084Pro (1) Global (Pazund YANGONARTAUNG MMR11003270931087179870327000000000000000   10300001F00104100000000024925000000000000     
100   62443100355445150000000000008557000000008557002000000010410403271024467194364806620327089541646085   1030000900030000   541119001355190110000000977Ocean PZD C9           YANGONAUNG    MMR11003271024467194360327000000000000000   10300001F00104100000000002140000000000000     
100   62911028202809060000000000155400000000155400002000000010410403270441317113424052100327972111131085   1030000900030000   541119000153190110000000083SeinGayHarParami Cente YANGON        MMR11003270441317113420327000000000000000   10300001F00104100000000009324000000000000     
100   95050325305150830000000000000980000000000980002000000010410403270603193319559473130327000006881039   1020000200030000   333400010001204104000000281Myanmar Soft-Gate Tech Yangon        MMR11003270603193319550327000000000000000   10300001F05104100000000000206000000000000     
100   62911028202471860000000000067200000000067200002000000010410403250949230000694052100325208416000069   1030000500030000   503920036610000015039200366PRO-1 HOME CENTER      PTN           MMR11003250949230000690325000000000000000   10300001 00104100000000004032000000000000     
100   95050315250339200000000000000980000000000980002000000010410403270409023902084529460327000006880430   1020000200030000   333400010001204104000000281Myanmar Soft-Gate Tech Yangon        MMR11003270409023902080327000000000000000   10300001F05104100000000000206000000000000     
100   62911028202764820000000000019000000000019000002000000010410403270328437098244052100327876580943085   1030000900030000   569119001500190110000001094Next Generation GCS Hl YANGONUT      MMR11003270328437098240327000000000000000   10300001F00104100000000001140000000000000     
100   95050313113158460000000000002940000000002940002000000010410403271517234723320450550327000006883356   1020000200030000   333400010001204104000000281Myanmar Soft-Gate Tech Yangon        MMR11003271517234723320327000000000000000   10300001F05104100000000000617000000000000     
100   62911028202158290000000000014500000000014500002000000010410403250312170006454052100325208409000645   1030000500030000   591220012501014405912200125SHWE OHH PHARMACY      PTN           MMR11003250312170006450325000000000000000   10300001 00104100000000000870000000000000     
100   95050314307746340000000000002940000000002940002000000010410403270429095909546011750327000006880579   1020000200030000   333400010001204104000000281Myanmar Soft-Gate Tech Yangon        MMR11003270429095909540327000000000000000   10300001F05104100000000000617000000000000     
100   62911028202789750000000000023550000000023550002000000010410403270138357180194052100327208608718019   1040001600030000   591220000271000000010000259Shwe Ohh Pharmacy (Gwa Yangon        MMR11003270138357180190327000000000000000   10300001F00104100000000001413000000000000     
100   95050317834964620000000000026825000000026825002000000010410403270522187122348161030327625521118085   1030000900030000   541119001349190110000000977Ocean PZD C 3          YANGONAUNG    MMR11003270522187122340327000000000000000   10300001F00104100000000006707000000000000     
100   62911028202248050000000000025700000000025700002000000010410403270937237181454052100327077071623085   1030000900030000   541119001330190110000000971Ocean Junction NPT C 8 NAYPYITAW     MMR11003270937237181450327000000000000000   10300001F00104100000000001542000000000000     
100   62911028202003590000000000020500000000020500002000000010410403270557547130124052100327203271254085   1030000900030000   541119000148190110000000083SeinGayHarParami Cente YANGON        MMR11003270557547130120327000000000000000   10300001F00104100000000001230000000000000     
100   62443100372702000000000000012550000000012550002000000010410403270906367173734224730327473361536085   1030000900030000   541119000113190110000000077Sein Gay Har Chinatown YANGON        MMR11003270906367173730327000000000000000   10300001F00104100000000003138000000000000     
100   95050319211130030000000000042200000000042200002000000010410403271140307216619302930327863101830085   1030000900030000   541119001290190110000000965City Mart SPL City Car YANGONMYOTHIT MMR11003271140307216610327000000000000000   10300001F00104100000000010550000000000000     
100   95030301100124400000000000014100000000014100002000000010410403271121207211644052100327477511720085   1030000900030000   541119001274190110000000961City Mart PLST City Ca YANGONMYOTHIT MMR11003271121207211640327000000000000000   10300001F00104100000000000846000000000000     
100   95030301100122750000000000031900000000031900002000000010410403270406107105414052100327370361010085   1030000900030000   541119001077190110000000872Sein Gay Har Hledan    YANGONUT      MMR11003270406107105410327000000000000000   10300001F00104100000000001914000000000000     
100   95030301100196920000000000004800000000004800002000000010410403270618257134964052100327552481225085   1030000900030000   541119001355190110000000977Ocean PZD C9           YANGONAUNG    MMR11003270618257134960327000000000000000   10300001F00104100000000000288000000000000     
