100   95050314995854750000000000150000000000150000002000000010410403250211415839662844680325208409583966   1040001600030000   806220000003000000010000001Victoria Hospital      Yangon        MMR11003250211415839660325000000000000000   10300001F00104100000000036000000000000000     
100   95030305700676370000000000090000000000090000002000000010410403251057116114844052100325208417611484   1040001600030000   598320000316000000010000304PT Power Petrol Statio Yangon        MMR11003251057116114840325000000000000000   10300001F00104100000000002700000000000000     
100   95050310644222860000000000012000000000012000002000000010410403251026306088598147230325208417608859   1040001600030000   569120000924000000010000671Generation Concept Sto Ygn           MMR11003251026306088590325000000000000000   10300001F00104100000000002880000000000000     
100   62443100330108240000000000010000000000010000002000000010410403250528005800183176990325000006870068   1030000200030000   333800010001203104000003327KBZPay                 Yangon        MMR11003250528005800180325000000000000000   10300001F05104100000000002100000000000000     
100   62443100301716860000000000010000000000010000002000000010410403250529385938511524510325000006870078   1030000200030000   333800010001203104000003327KBZPay                 Yangon        MMR11003250529385938510325000000000000000   10300001F05104100000000002100000000000000     
100   62443100359121590000000000006250000000006250002000000010410403250419165894017036260325208411589401   1040001600030000   591220000295000000010000283Shwe Ohh Pharmacy (39t Yangon        MMR11003250419165894010325000000000000000   10300001F00104100000000001500000000000000     
100   95050310644222860000000000017000000000017000002000000010410403251027206089281452200325208417608928   1040001600030000   569120000924000000010000671Generation Concept Sto Ygn           MMR11003251027206089280325000000000000000   10300001F00104100000000004080000000000000     
100   62911028202593140000000000050000000000050000002000000010410403251018226082194052100325208417608219   1040001600030000   598320000658000000010000527Shwe Taung Energy (YGN Yangon        MMR11003251018226082190325000000000000000   10300001F00104100000000001500000000000000     
100   95050315690875920000000000055500000000055500002000000010410403240945090004339092360324208316000433   1030000500030000   481220139101000064812201391SERVICE CHANNEL MOBILE PTN           MMR11003240945090004330324000000000000000   10300001 00104100000000013320000000000000     
100   95050319067144780000000000057400000000057400002000000010410403241546140046955957590324000744661231   1030000200030000   541188001420000008000000401KBZ BANK               OCEAN SUPERCE MMR11003241546140046950324000000000000000   10300001 00104100000000014350000000000000     
100   62911028202445480000000000608500000000608500002000000010410403241211490074434052100324208312007443   1030000600030000   554100000745315799420000323DENKO SWAL TAW MDY     MANDALAY      MMR11003241211490074430324000000000000000   10300001 00104100000000018255000000000000     
100   62443101076362230000000000108600000000108600002000000010410403241206060013430865600324000744668957   1030000200030000   581288001737000008000005244KBZ BANK               SEAFOOD CITY  MMR11003241206060013430324000000000000000   10300001 00104100000000046155000000000000     
100   62443101076362230000000000179400000000179400002000000010410403241209070013454170570324000744669067   1030000200030000   581288001737000008000005244KBZ BANK               SEAFOOD CITY  MMR11003241209070013450324000000000000000   10300001 00104100000000076245000000000000     
100   62911028202162640000000000011850000000011850002000000010410403240408130051094052100324208310005109   1030000500030000   541120020902022205411200209ORANGE (HLAING)        PTN           MMR11003240408130051090324000000000000000   10300001 00104100000000000711000000000000     
100   62911028202103410000000000037950000000037950002000000010410403240605350025404052100324208312002540   1030000500030000   591220132901008605912201329THEIK DI WIN SHOP      PTN           MMR11003240605350025400324000000000000000   10300001 00104100000000002277000000000000     
100   62911028202890630000000000148500000000148500002000000010410403241257120015534052100324000744651219   1030000200030000   541188001360000008000000395KBZ BANK               OCEAN SUPERMA MMR11003241257120015530324000000000000000   10300001 00104100000000008910000000000000     
100   95050324154190880000000000013150000000013150002000000010410403251012286077657551560325208417607765   1040001600030000   541120000553000000010000465Ocean Shwe Gone Daing  Yangon        MMR11003251012286077650325000000000000000   10300001F00104100000000003288000000000000     
100   95050327416134790000000000000980000000000980002000000010410403251328315831972374480325000006873640   1020000200030000   333400010001204104000000281Myanmar Soft-Gate Tech Yangon        MMR11003251328315831970325000000000000000   10300001F05104100000000000206000000000000     
100   62911028202290100000000000045250000000045250002000000010410403250542465570384052100325958101257083   1030000300030000   444410125393104519000021220Myanmar Bakery CoLtd                 MMR11003250542465570380325000000000000000   10300001 00104100000000004616000000000000     
100   95030301100124570000000000036225000000036225002000000010410403250514475566874052100325510421138083   1030000300030000   444410124354104519000020484The Pizza Company Rest urant         MMR11003250514475566870325000000000000000   10300001 00104100000000003695000000000000     
100   95050328035424750000000000020124000000020124002000000010410403250833415594432021290325150051535083   1030000500030000   555610108768104519000003818City Mart Oattara Thir NPT           MMR11003250833415594430325000000000000000   10300001 00104100000000005031000000000000     
100   95050313970192050000000000004350000000004350002000000010410403251239165633694282250325791211903083   1030000500030000   555610112651104519000010846City Express MCS 34                  MMR11003251239165633690325000000000000000   10300001 00104100000000001088000000000000     
100   95050315298771650000000000002940000000002940002000000010410403251529035903138012700325000006874241   1020000200030000   333400010001204104000000281Myanmar Soft-Gate Tech Yangon        MMR11003251529035903130325000000000000000   10300001F05104100000000000617000000000000     
100   95030341448197210000000000234458000000234458002000000010410403250604035573574052100325339341228083   1030000500030000   555610112237104519000010487Ocean Super Center St  ohn           MMR11003250604035573570325000000000000000   10300001 00104100000000014067000000000000     
100   62911028202130710000000000034200000000034200002000000010410403240452460001094052100324000744644415   1030000200030000   594488000553000008000003755KBZ BANK               MONTBLANC BOU MMR11003240452460001090324000000000000000   10300001 00104100000000002052000000000000     
100   95050322158563070000000000079000000000079000002000000010410403241009010008931071450324000744663596   1030000200030000   599988000603000008000003448KBZ BANK               SWEETY HOME(6 MMR11003241009010008930324000000000000000   10300001 00104100000000018960000000000000     
100   62911028202808230000000000075000000000075000002000000010410403240411490001124052100324208310000112   1030000500030000   806220058301000018062200583DSC DENTAL             PTN           MMR11003240411490001120324000000000000000   10300001 00104100000000004500000000000000     
100   62911028202421200000000000065003000000065003002000000010410403240303390059414052100324208309005941   1030000500030000   598320001702000015172200017MAX ENERGY             PTN           MMR11003240303390059410324000000000000000   10300001 00104100000000001950000000000000     
100   62911028202108460000000000045000000000045000002000000010410403240227000260014052100324208308026001   1030000500030000   598320001202000015172200012MAX ENERGY             PTN           MMR11003240227000260010324000000000000000   10300001 00104100000000001350000000000000     
100   62911028202534810000000000025000000000025000002000000010410403240511080236884052100324208311023688   1030000500030000   598320001901000015172200019MAX ENERGY             PTN           MMR11003240511080236880324000000000000000   10300001 00104100000000000750000000000000     
100   62911028202151590000000000018600000000018600002000000010410403241756200128974052100324000744667317   1030000200030000   541188001306000008000000325KBZ BANK               CITY MART - A MMR11003241756200128970324000000000000000   10300001 00104100000000001116000000000000     
100   62911028202514440000000000030000000000030000002000000010410403240257430236194052100324208309023619   1030000500030000   598320001901000015172200019MAX ENERGY             PTN           MMR11003240257430236190324000000000000000   10300001 00104100000000000900000000000000     
100   62443100355445150000000000076000000000076000002000000010410403250848465596245751750325401181523083   1030000300030000   555510124685104519000020166Makro Myanmar                        MMR11003250848465596240325000000000000000   10300001 00104100000000018240000000000000     
100   62443100340422630000000000002850000000002850002000000010410403251126405621220140110325006541748083   1030000300030000   444410125393104519000021220Myanmar Bakery CoLtd                 MMR11003251126405621220325000000000000000   10300001 00104100000000001212000000000000     
100   95050324154190880000000000011100000000011100002000000010410403250957036066341196910325208416606634   1040001600030000   541120000584000000010000465Ocean Shwe Gone Daing  Yangon        MMR11003250957036066340325000000000000000   10300001F00104100000000002775000000000000     
100   95050320531117320000000000038400000000038400002000000010410403251151196807485863420325676211819083   1030000900030000   541119001512190110000001102Ocean MGDTM C-5        YANGONADON    MMR11003251151196807480325000000000000000   10300001F00104100000000009600000000000000     
100   62911028202538120000000000070200000000070200002000000010410403251149316161584052100325208418616158   1040001600030000   541120000561000000010000465Ocean Shwe Gone Daing  Yangon        MMR11003251149316161580325000000000000000   10300001F00104100000000004212000000000000     
100   95030344250922120000000000017350000000017350002000000010410403250612206713514052100325810421220083   1030000900030000   541119001264190110000000958City Mart PLST C 7     YANGONMYOTHIT MMR11003250612206713510325000000000000000   10300001F00104100000000001041000000000000     
100   95050311931431670000000000017900000000017900002000000010410403251207356811432218070325964371835083   1030000900030000   541119001327190110000000971Ocean Junction NPT C 5 NAYPYITAW     MMR11003251207356811430325000000000000000   10300001F00104100000000004475000000000000     
100   62911028202110340000000000035000000000035000002000000010410403251118016133004052100325208418613300   1040001600030000   598320000658000000010000527Shwe Taung Energy (YGN Yangon        MMR11003251118016133000325000000000000000   10300001F00104100000000001050000000000000     
100   62443100372718280000000000080400000000080400002000000010410403240818560154514142990324000744636960   1030000200030000   541188001005000008000000008KBZ BANK               MARKETPLACE - MMR11003240818560154510324000000000000000   10300001 00104100000000020100000000000000     
100   62911028202112730000000000054500000000054500002000000010410403241633350181764052100324000744663401   1030000200030000   541188001070000008000000314KBZ BANK               MARKETPLACE - MMR11003241633350181760324000000000000000   10300001 00104100000000003270000000000000     
100   62911028202163630000000000057000000000057000002000000010410403232321010574864052100324208323057486   1030000600030000   554100000952315799420000474DENKO N.DAGON - 1      YANGON        MMR11003232321010574860324000000000000000   10300001 00104100000000001710000000000000     
100   95050315955808830000000000031000000000031000002000000010410403240230370163989440830324208309016398   1030000500030000   598320001102000015172200011MAX ENERGY             PTN           MMR11003240230370163980324000000000000000   10300001 00104100000000003720000000000000     
100   62911028202777610000000000075000000000075000002000000010410403240135550574904052100324208301057490   1030000600030000   554100000952315799420000474DENKO N.DAGON - 1      YANGON        MMR11003240135550574900324000000000000000   10300001 00104100000000002250000000000000     
100   95030301100126550000000000032000000000032000002000000010410403241048270742944052100324208310074294   1030000600030000   554100000946315799420000471DENKO BAHAN            YANGON        MMR11003241048270742940324000000000000000   10300001 00104100000000000960000000000000     
100   62911028202161240000000000019561000000019561002000000010410403240956120301154052100324000744639537   1030000200030000   541188001025000008000000298KBZ BANK               CITY MART - M MMR11003240956120301150324000000000000000   10300001 00104100000000001174000000000000     
100   95050318712627500000000000002940000000002940002000000010410403250330380038518093070325000006868854   1020000200030000   333400010001204104000000281Myanmar Soft-Gate Tech Yangon        MMR11003250330380038510325000000000000000   10300001F05104100000000000617000000000000     
100   95030379578686440000000000010400000000010400002000000010410403250931146767564052100325022011614083   1030000900030000   591219000608190110000000448Shwe Ohh Pharmacy St-2 YANGON        MMR11003250931146767560325000000000000000   10300001F00104100000000000624000000000000     
100   95050317834964620000000000010000000000010000002000000010410403251128496802521877690325341581749083   1030000900030000   541119001349190110000000977Ocean PZD C 3          YANGONAUNG    MMR11003251128496802520325000000000000000   10300001F00104100000000002500000000000000     
100   95050318965033780000000000003100000000003100002000000010410403250837296752373333390325103071529083   1030000900030000   541119001347190110000000977Ocean PZD C 1          YANGONAUNG    MMR11003250837296752370325000000000000000   10300001F00104100000000000775000000000000     
100   62911028202204560000000000033500000000033500002000000010410403250406219536144052100325362184997639   1040001400030000   806210000094028062100000766Yoma OUE Pun Hlaing Ho pital  Yoma O MMR11003250406219536140325000000000000000   10300001 00104100000000002010000000000000     
100   62911028202212490000000000010200000000010200002000000010410403250400446681814052100325935301044083   1030000900030000   581219000715190110000000546Akkhaya Tea House(Dago YANGON        MMR11003250400446681810325000000000000000   10300001F00104100000000001040000000000000     
100   95050320531117320000000000007250000000007250002000000010410403251156136808498828000325747261813083   1030000900030000   541119001525190110000001105Ocean MGDTM City Care  YANGONADON    MMR11003251156136808490325000000000000000   10300001F00104100000000001813000000000000     
100   95050325925517520000000000036100000000036100002000000010410403250702436726919191250325651321343083   1030000900030000   581219000351190110000000218Min Lan Restaurant (Th YANGONA       MMR11003250702436726910325000000000000000   10300001F00104100000000015343000000000000     
100   95050319695392670000000000006800000000006800002000000010410403250952096773537806850325383221609083   1030000900030000   591219001415190110000001019Life Plus Store 20     YANGON        MMR11003250952096773530325000000000000000   10300001F00104100000000001632000000000000     
100   95050316997303010000000000000980000000000980002000000010410403251546141614582970150325000006874308   1020000200030000   333400010001204104000000281Myanmar Soft-Gate Tech Yangon        MMR11003251546141614580325000000000000000   10300001F05104100000000000206000000000000     
100   95050318712627500000000000001960000000001960002000000010410403250501043104079970910325000006869781   1020000200030000   333400010001204104000000281Myanmar Soft-Gate Tech Yangon        MMR11003250501043104070325000000000000000   10300001F05104100000000000412000000000000     
100   95050313640946520000000000300000000000300000002000000010410403251255262526457672310325000006873414   1030000200030000   333800010001203104000003327KBZPay                 Yangon        MMR11003251255262526450325000000000000000   10300001F05104100000000063000000000000000     
100   95050325305150830000000000000980000000000980002000000010410403251410044004547417030325000006873869   1020000200030000   333400010001204104000000281Myanmar Soft-Gate Tech Yangon        MMR11003251410044004540325000000000000000   10300001F05104100000000000206000000000000     
100   62911028202091860000000000002940000000002940002000000010410403250920495049084052100325000006872049   1020000200030000   333400010001204104000000281Myanmar Soft-Gate Tech Yangon        MMR11003250920495049080325000000000000000   10300001F05104100000000000617000000000000     
100   95050312498129060000000000002940000000002940002000000010410403251340291029215679440325000006873708   1020000200030000   333400010001204104000000281Myanmar Soft-Gate Tech Yangon        MMR11003251340291029210325000000000000000   10300001F05104100000000000617000000000000     
100   95050312568198510000000000002000000000002000002000000010410403250450522052572850390325000006869695   1030000200030000   3338000100012031040000040022C2P (Myanmar) Co. Ltd Yangon        MMR11003250450522052570325000000000000000   10300001F05104100000000000420000000000000     
100   95030301100341540000000000015000000000015000002000000010410403250846371637644052100325000006871757   1030000200030000   333800010001203104000003327KBZPay                 Yangon        MMR11003250846371637640325000000000000000   10300001F05104100000000003150000000000000     
100   62911028202677390000000000050000000000050000002000000010410403251445196831284052100325037152119083   1030000900030000   554119000345190110000000212New Day Energy PZD     YANGONAUNG    MMR11003251445196831280325000000000000000   10300001F00104100000000001500000000000000     
100   62443100359121590000000000027350000000027350002000000010410403250438246690302169620325422081124083   1030000900030000   541119000124190110000000080Sein Gay Har BAK       YANGONADA     MMR11003250438246690300325000000000000000   10300001F00104100000000006838000000000000     
100   95050317834964620000000000001700000000001700002000000010410403251130546802970225200325372001854083   1030000900030000   541119001349190110000000977Ocean PZD C 3          YANGONAUNG    MMR11003251130546802970325000000000000000   10300001F00104100000000000425000000000000     
100   62911028202514440000000000060400000000060400002000000010410403250954156774224052100325427241615083   1030000900030000   541119001196190110000000942City Mart HDC C 11     YANGONUT      MMR11003250954156774220325000000000000000   10300001F00104100000000003624000000000000     
100   62443100372718280000000000011200000000011200002000000010410403240801160030145710370324000744636714   1030000200030000   541188001022000008000000298KBZ BANK               CITY MART - M MMR11003240801160030140324000000000000000   10300001 00104100000000002800000000000000     
100   62911028202169750000000000002800000000002800002000000010410403241650300086404052100324000744664250   1030000200030000   541188001189000008000000383KBZ BANK               OCEAN SUPER C MMR11003241650300086400324000000000000000   10300001 00104100000000000168000000000000     
100   62911028202212490000000000082000000000082000002000000010410403240735380255464052100324208314025546   1030000500030000   598320001201000015172200012MAX ENERGY             PTN           MMR11003240735380255460324000000000000000   10300001 00104100000000002460000000000000     
100   62443100306416880000000000026366000000026366002000000010410403241128070004703574890324208317000470   1030000500030000   598320001603000015172200016MAX ENERGY             PTN           MMR11003241128070004700324000000000000000   10300001 00104100000000003164000000000000     
100   95050314570621780000000000000980000000000980002000000010410403251051352135569714620325000006872714   1020000200030000   333400010001204104000000281Myanmar Soft-Gate Tech Yangon        MMR11003251051352135560325000000000000000   10300001F05104100000000000206000000000000     
100   95050314557307430000000000009800000000009800002000000010410403250806033603177879160325000006871392   1020000200030000   333400010001204104000000281Myanmar Soft-Gate Tech Yangon        MMR11003250806033603170325000000000000000   10300001F05104100000000002058000000000000     
100   95050310652791070000000000050000000000050000002000000010410403250341111111231227850325000006868962   1030000200030000   333800010001203104000003327KBZPay                 Yangon        MMR11003250341111111230325000000000000000   10300001F05104100000000010500000000000000     
100   95050319996628650000000000000980000000000980002000000010410403251400353035404112050325000006873816   1020000200030000   333400010001204104000000281Myanmar Soft-Gate Tech Yangon        MMR11003251400353035400325000000000000000   10300001F05104100000000000206000000000000     
100   95050313168701670000000000031000000000031000002000000010410403250820465046899602950325000006871524   1030000200030000   333800010001203104000003327KBZPay                 Yangon        MMR11003250820465046890325000000000000000   10300001F05104100000000006510000000000000     
100   95030301100179930000000000010000000000010000002000000010410403250917194719634052100325000006872006   1030000200030000   333800010001203104000003327KBZPay                 Yangon        MMR11003250917194719630325000000000000000   10300001F05104100000000002100000000000000     
100   62443100337100010000000000010000000000010000002000000010410403250333130313652710140325000006868880   1030000200030000   3338000100012031040000040022C2P (Myanmar) Co. Ltd Yangon        MMR11003250333130313650325000000000000000   10300001F05104100000000002100000000000000     
100   95050312498129060000000000001960000000001960002000000010410403251244521452904197150325000006873325   1020000200030000   333400010001204104000000281Myanmar Soft-Gate Tech Yangon        MMR11003251244521452900325000000000000000   10300001F05104100000000000412000000000000     
100   95050321232876860000000000084000000000084000002000000010410403240303300078119270630324208303007811   1030000600030000   554100002328315799420001235DENKO NAY PYI TAW 2    NAYPYITAW     MMR11003240303300078110324000000000000000   10300001 00104100000000010080000000000000     
100   95050312498129060000000000000980000000000980002000000010410403250828205820091851100325000006871596   1020000200030000   333400010001204104000000281Myanmar Soft-Gate Tech Yangon        MMR11003250828205820090325000000000000000   10300001F05104100000000000206000000000000     
100   62911028202057620000000000020000000000020000002000000010410403250239510951634052100325000006868359   1030000200030000   333800010001203104000003327KBZPay                 Yangon        MMR11003250239510951630325000000000000000   10300001F05104100000000004200000000000000     
100   62911028202593140000000000019700000000019700002000000010410403250944225605914052100325737241628083   1030000500030000   555610103468104519000003420City Mart Yankin Cente 7             MMR11003250944225605910325000000000000000   10300001 00104100000000001182000000000000     
100   95050326228858240000000000079464000000079464002000000010410403240217000082510497630324208302008251   1030000600030000   581200000526315799420000143SIGNATURE FINEDINING 1 YANGON        MMR11003240217000082510324000000000000000   10300001 00104100000000033772000000000000     
100   95050323670692380000000000010000000000010000002000000010410403251434010401350807090325000006873983   1030000200030000   333800010001203104000003327KBZPay                 Yangon        MMR11003251434010401350325000000000000000   10300001F05104100000000002100000000000000     
100   95050315330275830000000000000980000000000980002000000010410403250800183018929446540325000006871351   1020000200030000   333400010001204104000000281Myanmar Soft-Gate Tech Yangon        MMR11003250800183018920325000000000000000   10300001F05104100000000000206000000000000     
100   62911028202756820000000000030000000000030000002000000010410403250741145586574052100325110091433083   1030000300030000   555510125523104519000021338MGOU Monywa                          MMR11003250741145586570325000000000000000   10300001 00104100000000001800000000000000     
100   95050311736839760000000000001960000000001960002000000010410403250241411141660305580325000006868371   1020000200030000   333400010001204104000000281Myanmar Soft-Gate Tech Yangon        MMR11003250241411141660325000000000000000   10300001F05104100000000000412000000000000     
100   62911028202249610000000000000980000000000980002000000010410403250459232923684052100325000006869757   1020000200030000   333400010001204104000000281Myanmar Soft-Gate Tech Yangon        MMR11003250459232923680325000000000000000   10300001F05104100000000000206000000000000     
100   62443100323117100000000000250000000000250000002000000010410403250655362536025290610325000006870818   1030000200030000   333800010001203104000003327KBZPay                 Yangon        MMR11003250655362536020325000000000000000   10300001F05104100000000052500000000000000     
100   95050316818236190000000000000980000000000980002000000010410403250523015301596481960325000006870007   1020000200030000   333400010001204104000000281Myanmar Soft-Gate Tech Yangon        MMR11003250523015301590325000000000000000   10300001F05104100000000000206000000000000     
100   95050312160676580000000000015000000000015000002000000010410403250617474747239666180325000006870488   1030000200030000   333800010001203104000003327KBZPay                 Yangon        MMR11003250617474747230325000000000000000   10300001F05104100000000003150000000000000     
100   95050315424817550000000000000980000000000980002000000010410403250625215521381730350325000006870570   1020000200030000   333400010001204104000000281Myanmar Soft-Gate Tech Yangon        MMR11003250625215521380325000000000000000   10300001F05104100000000000206000000000000     
100   95030340548278620000000000030000000000030000002000000010410403250632120212724052100325000006870621   1030000200030000   333800010001203104000003327KBZPay                 Yangon        MMR11003250632120212720325000000000000000   10300001F05104100000000006300000000000000     
100   95050314557307430000000000002940000000002940002000000010410403251304093409780977280325000006873482   1020000200030000   333400010001204104000000281Myanmar Soft-Gate Tech Yangon        MMR11003251304093409780325000000000000000   10300001F05104100000000000617000000000000     
100   95050313113158460000000000006860000000006860002000000010410403250632160216619737490325000006870625   1020000200030000   333400010001204104000000281Myanmar Soft-Gate Tech Yangon        MMR11003250632160216610325000000000000000   10300001F05104100000000001441000000000000     
100   95050325305150830000000000000980000000000980002000000010410403251400353035125764540325000006873814   1020000200030000   333400010001204104000000281Myanmar Soft-Gate Tech Yangon        MMR11003251400353035120325000000000000000   10300001F05104100000000000206000000000000     
100   95050316321163940000000000000980000000000980002000000010410403250905413541083843970325000006871921   1020000200030000   333400010001204104000000281Myanmar Soft-Gate Tech Yangon        MMR11003250905413541080325000000000000000   10300001F05104100000000000206000000000000     
100   95050310427855490000000000001960000000001960002000000010410403251254092409959324790325000006873400   1020000200030000   333400010001204104000000281Myanmar Soft-Gate Tech Yangon        MMR11003251254092409950325000000000000000   10300001F05104100000000000412000000000000     
100   62911028202233510000000000003550000000003550002000000010410403251009405608114052100325041371630083   1030000300030000   444410125393104519000021220Myanmar Bakery CoLtd                 MMR11003251009405608110325000000000000000   10300001 00104100000000000362000000000000     
100   95050327531396450000000000009800000000009800002000000010410403250918444844696177230325000006872015   1020000200030000   333400010001204104000000281Myanmar Soft-Gate Tech Yangon        MMR11003250918444844690325000000000000000   10300001F05104100000000002058000000000000     
100   95050316321163940000000000002940000000002940002000000010410403251306563656634367340325000006873503   1020000200030000   333400010001204104000000281Myanmar Soft-Gate Tech Yangon        MMR11003251306563656630325000000000000000   10300001F05104100000000000617000000000000     
100   62443100333488440000000000071940000000071940002000000010410403251006225607924246590325015361642083   1030000300030000   444410121373104519000018029Shan Yoe Yar Restauran               MMR11003251006225607920325000000000000000   10300001 00104100000000030575000000000000     
100   95050310676042860000000000050000000000050000002000000010410403250255042504408482900325000006868497   1030000200030000   333800010001203104000003327KBZPay                 Yangon        MMR11003250255042504400325000000000000000   10300001F05104100000000010500000000000000     
100   95030325264619140000000000150000000000150000002000000010410403250312175552854052100325697400958083   1030000300030000   555510124364104519000020166Makro Myanmar                        MMR11003250312175552850325000000000000000   10300001 00104100000000009000000000000000     
100   95050314893649800000000000004900000000004900002000000010410403250435390539504162500325000006869508   1020000200030000   333400010001204104000000281Myanmar Soft-Gate Tech Yangon        MMR11003250435390539500325000000000000000   10300001F05104100000000001029000000000000     
100   95050316818236190000000000002940000000002940002000000010410403250124005400407802130325000006867837   1020000200030000   333400010001204104000000281Myanmar Soft-Gate Tech Yangon        MMR11003250124005400400325000000000000000   10300001F05104100000000000617000000000000     
100   95050316321163940000000000000980000000000980002000000010410403251310174017098984410325000006873520   1020000200030000   333400010001204104000000281Myanmar Soft-Gate Tech Yangon        MMR11003251310174017090325000000000000000   10300001F05104100000000000206000000000000     
100   95050314387821000000000000155000000000155000002000000010410403251241281128405849630325000006873301   1030000400030000   333800010001205104000004531Onepay                 Yangon        MMR11003251241281128400325000000000000000   10300001F05104100000000032550000000000000     
100   95050319111666800000000000000980000000000980002000000010410403251249261926925934730325000006873347   1020000200030000   333400010001204104000000281Myanmar Soft-Gate Tech Yangon        MMR11003251249261926920325000000000000000   10300001F05104100000000000206000000000000     
100   95050310427855490000000000001960000000001960002000000010410403251554072407001317670325000006874334   1020000200030000   333400010001204104000000281Myanmar Soft-Gate Tech Yangon        MMR11003251554072407000325000000000000000   10300001F05104100000000000412000000000000     
100   62911028202668140000000000149250000000149250002000000010410403250540565570144052100325934091218083   1030000300030000   555510124688104519000020166Makro Myanmar                        MMR11003250540565570140325000000000000000   10300001 00104100000000008955000000000000     
100   95030325264619140000000000010236000000010236002000000010410403250402375558184052100325338301031083   1030000300030000   555510125330104519000021173One Stop Mart Shopping Mall 0003     MMR11003250402375558180325000000000000000   10300001 00104100000000000614000000000000     
100   95050318214455130000000000002940000000002940002000000010410403250522385238998559930325000006870012   1020000200030000   333400010001204104000000281Myanmar Soft-Gate Tech Yangon        MMR11003250522385238990325000000000000000   10300001F05104100000000000617000000000000     
100   95050312498129060000000000001960000000001960002000000010410403251300463046982629760325000006873456   1020000200030000   333400010001204104000000281Myanmar Soft-Gate Tech Yangon        MMR11003251300463046980325000000000000000   10300001F05104100000000000412000000000000     
100   62911028202269410000000000005150000000005150002000000010410403250313375552924052100325712410941083   1030000300030000   555510125170104519000021039G N G Convenience Stor G0395F        MMR11003250313375552920325000000000000000   10300001 00104100000000000309000000000000     
100   95050312695033440000000000002940000000002940002000000010410403251432470247002459570325000006873973   1020000200030000   333400010001204104000000281Myanmar Soft-Gate Tech Yangon        MMR11003251432470247000325000000000000000   10300001F05104100000000000617000000000000     
100   95050313062063490000000000000980000000000980002000000010410403251143371337825778330325000006872985   1020000200030000   333400010001204104000000281Myanmar Soft-Gate Tech Yangon        MMR11003251143371337820325000000000000000   10300001F05104100000000000206000000000000     
100   95050311121153200000000000001960000000001960002000000010410403250844371437498461040325000006871743   1020000200030000   333400010001204104000000281Myanmar Soft-Gate Tech Yangon        MMR11003250844371437490325000000000000000   10300001F05104100000000000412000000000000     
100   95050314190972620000000000300000000000300000002000000010410403251118454845145097560325000006872861   1030000200030000   333800010001203104000003327KBZPay                 Yangon        MMR11003251118454845140325000000000000000   10300001F05104100000000063000000000000000     
100   95050313072967520000000000020000000000020000002000000010410403250224305430601277290325000006868220   1030000200030000   3338000100012031040000040022C2P (Myanmar) Co. Ltd Yangon        MMR11003250224305430600325000000000000000   10300001F05104100000000004200000000000000     
100   95050313145843230000000000070000000000070000002000000010410403251236180618120892180325000006873269   1030000200030000   333800010001203104000003327KBZPay                 Yangon        MMR11003251236180618120325000000000000000   10300001F05104100000000014700000000000000     
100   95050319938772870000000000015000000000015000002000000010410403251235070507010650680325000006873264   1030000200030000   333800010001203104000003327KBZPay                 Yangon        MMR11003251235070507010325000000000000000   10300001F05104100000000003150000000000000     
100   62443100378297160000000000002940000000002940002000000010410403251139400940220735780325000006872975   1020000200030000   333400010001204104000000281Myanmar Soft-Gate Tech Yangon        MMR11003251139400940220325000000000000000   10300001F05104100000000000617000000000000     
100   95030349489765520000000000037000000000037000002000000010410403250346201620844052100325000006868990   1030000200030000   333800010001203104000003327KBZPay                 Yangon        MMR11003250346201620840325000000000000000   10300001F05104100000000007770000000000000     
100   95050320335873810000000000000980000000000980002000000010410403250547401740712120180325000006870241   1020000200030000   333400010001204104000000281Myanmar Soft-Gate Tech Yangon        MMR11003250547401740710325000000000000000   10300001F05104100000000000206000000000000     
100   95050316321163940000000000035100000000035100002000000010410403250846591659709056710325000006871751   1030000200030000   333800010001203104000003327KBZPay                 Yangon        MMR11003250846591659700325000000000000000   10300001F05104100000000007371000000000000     
100   95050312911050270000000000000980000000000980002000000010410403250800543054577794050325000006871356   1020000200030000   333400010001204104000000281Myanmar Soft-Gate Tech Yangon        MMR11003250800543054570325000000000000000   10300001F05104100000000000206000000000000     
100   95050322654733420000000000000980000000000980002000000010410403250155152515302589390325000006868009   1020000200030000   333400010001204104000000281Myanmar Soft-Gate Tech Yangon        MMR11003250155152515300325000000000000000   10300001F05104100000000000206000000000000     
100   95050316736513170000000000016000000000016000002000000010410403251055172517494757170325000006872731   1030000200030000   333800010001203104000003327KBZPay                 Yangon        MMR11003251055172517490325000000000000000   10300001F05104100000000003360000000000000     
100   95050319938772870000000000001960000000001960002000000010410403251306233623746019830325000006873499   1020000200030000   333400010001204104000000281Myanmar Soft-Gate Tech Yangon        MMR11003251306233623740325000000000000000   10300001F05104100000000000412000000000000     
100   95050322312885760000000000025000000000025000002000000010410403250540341034798985410325000006870156   1030000200030000   333800010001203104000003327KBZPay                 Yangon        MMR11003250540341034790325000000000000000   10300001F05104100000000005250000000000000     
100   95050313062063490000000000004900000000004900002000000010410403251140201020485693240325000006872976   1020000200030000   333400010001204104000000281Myanmar Soft-Gate Tech Yangon        MMR11003251140201020480325000000000000000   10300001F05104100000000001029000000000000     
100   95050311959900780000000000000980000000000980002000000010410403250638000800068170100325000006870667   1020000200030000   333400010001204104000000281Myanmar Soft-Gate Tech Yangon        MMR11003250638000800060325000000000000000   10300001F05104100000000000206000000000000     
100   95030301954234130000000000200000000000200000002000000010410403250646261626414052100325000006870719   1030000200030000   333800010001203104000003327KBZPay                 Yangon        MMR11003250646261626410325000000000000000   10300001F05104100000000042000000000000000     
100   95050323722449090000000000004409000000004409002000000010410403251203213321657175520325000006873086   1020000200030000   333400010001204104000000281Myanmar Soft-Gate Tech Yangon        MMR11003251203213321650325000000000000000   10300001F05104100000000000926000000000000     
100   62911028202581830000000000003100000000003100002000000010410403250601463146404052100325000006870369   1030000200030000   333800010001203104000003327KBZPay                 Yangon        MMR11003250601463146400325000000000000000   10300001F05104100000000000651000000000000     
100   95050312695033440000000000000980000000000980002000000010410403251419304930827502120325000006873906   1020000200030000   333400010001204104000000281Myanmar Soft-Gate Tech Yangon        MMR11003251419304930820325000000000000000   10300001F05104100000000000206000000000000     
100   95050316736513170000000000000980000000000980002000000010410403250514074407499800720325000006869904   1020000200030000   333400010001204104000000281Myanmar Soft-Gate Tech Yangon        MMR11003250514074407490325000000000000000   10300001F05104100000000000206000000000000     
100   95030301100120850000000000015000000000015000002000000010410403250537020702674052100325000006870152   1030000200030000   333800010001203104000003327KBZPay                 Yangon        MMR11003250537020702670325000000000000000   10300001F05104100000000003150000000000000     
100   95050316067768680000000000000980000000000980002000000010410403250142501250727376650325000006867937   1020000200030000   333400010001204104000000281Myanmar Soft-Gate Tech Yangon        MMR11003250142501250720325000000000000000   10300001F05104100000000000206000000000000     
100   95050316067768680000000000000980000000000980002000000010410403250144171417347461750325000006867953   1020000200030000   333400010001204104000000281Myanmar Soft-Gate Tech Yangon        MMR11003250144171417340325000000000000000   10300001F05104100000000000206000000000000     
100   95050312675525330000000000010000000000010000002000000010410403250848431843334099260325000006871770   1030000200030000   333800010001203104000003327KBZPay                 Yangon        MMR11003250848431843330325000000000000000   10300001F05104100000000002100000000000000     
100   62911028202093430000000000001960000000001960002000000010410403250405573557624052100325000006869208   1020000200030000   333400010001204104000000281Myanmar Soft-Gate Tech Yangon        MMR11003250405573557620325000000000000000   10300001F05104100000000000412000000000000     
100   62443100392426520000000000010000000000010000002000000010410403251020155015030941630325000006872511   1030000200030000   333800010001203104000003327KBZPay                 Yangon        MMR11003251020155015030325000000000000000   10300001F05104100000000002100000000000000     
100   62911028202679290000000000009830000000009830002000000010410403250420155015174052100325000006869353   1030000200030000   333800010001203104000003327KBZPay                 Yangon        MMR11003250420155015170325000000000000000   10300001F05104100000000002064000000000000     
100   95050325455962190000000000014700000000014700002000000010410403250809233923931425620325000006871418   1020000200030000   333400010001204104000000281Myanmar Soft-Gate Tech Yangon        MMR11003250809233923930325000000000000000   10300001F05104100000000003087000000000000     
100   95050317085125750000000000030000000000030000002000000010410403250733280328122411120325000006871089   1030000200030000   333800010001203104000003327KBZPay                 Yangon        MMR11003250733280328120325000000000000000   10300001F05104100000000006300000000000000     
100   95050310332595380000000000004900000000004900002000000010410403250948151815212702070325000006872259   1020000200030000   333400010001204104000000281Myanmar Soft-Gate Tech Yangon        MMR11003250948151815210325000000000000000   10300001F05104100000000001029000000000000     
100   95050325630928770000000000001960000000001960002000000010410403250655182518293553030325000006870820   1020000200030000   333400010001204104000000281Myanmar Soft-Gate Tech Yangon        MMR11003250655182518290325000000000000000   10300001F05104100000000000412000000000000     
100   95050315743141220000000000000980000000000980002000000010410403251155212521744210940325000006873048   1020000200030000   333400010001204104000000281Myanmar Soft-Gate Tech Yangon        MMR11003251155212521740325000000000000000   10300001F05104100000000000206000000000000     
100   95030301100179930000000000010000000000010000002000000010410403250920445044364052100325000006872041   1030000500030000   333800010001201104000003863AYA Pay                Yangon        MMR11003250920445044360325000000000000000   10300001F05104100000000002100000000000000     
100   62911028202684060000000000071000000000071000002000000010410403250400075557874052100325300281021083   1030000300030000   888810125940104519000021285Shwe Taung Energy CoLt               MMR11003250400075557870325000000000000000   10300001 00104100000000002130000000000000     
100   95050319111666800000000000000980000000000980002000000010410403251253162316339239700325000006873395   1020000200030000   333400010001204104000000281Myanmar Soft-Gate Tech Yangon        MMR11003251253162316330325000000000000000   10300001F05104100000000000206000000000000     
100   95050315005801680000000000002940000000002940002000000010410403250052292229797717040325000006867737   1020000200030000   333400010001204104000000281Myanmar Soft-Gate Tech Yangon        MMR11003250052292229790325000000000000000   10300001F05104100000000000617000000000000     
100   95050314557307430000000000002940000000002940002000000010410403251253452345917587220325000006873399   1020000200030000   333400010001204104000000281Myanmar Soft-Gate Tech Yangon        MMR11003251253452345910325000000000000000   10300001F05104100000000000617000000000000     
100   95050318214455130000000000002940000000002940002000000010410403251003243324999118950325000006872378   1020000200030000   333400010001204104000000281Myanmar Soft-Gate Tech Yangon        MMR11003251003243324990325000000000000000   10300001F05104100000000000617000000000000     
100   95050313123223200000000000000980000000000980002000000010410403251404453445769069500325000006873835   1020000200030000   333400010001204104000000281Myanmar Soft-Gate Tech Yangon        MMR11003251404453445760325000000000000000   10300001F05104100000000000206000000000000     
100   95050327531396450000000000002940000000002940002000000010410403251613064306443055250325000006874374   1020000200030000   333400010001204104000000281Myanmar Soft-Gate Tech Yangon        MMR11003251613064306440325000000000000000   10300001F05104100000000000617000000000000     
100   95050322654733420000000000002940000000002940002000000010410403251318554855802289380325000006873578   1020000200030000   333400010001204104000000281Myanmar Soft-Gate Tech Yangon        MMR11003251318554855800325000000000000000   10300001F05104100000000000617000000000000     
100   95030301100124400000000000150000000000150000002000000010410403250551355571874052100325140211237083   1030000300030000   555510124364104519000020166Makro Myanmar                        MMR11003250551355571870325000000000000000   10300001 00104100000000009000000000000000     
100   62911028202350170000000000030000000000030000002000000010410403250438490849864052100325000006869556   1030000200030000   333800010001203104000003327KBZPay                 Yangon        MMR11003250438490849860325000000000000000   10300001F05104100000000006300000000000000     
100   95050316785465380000000000000980000000000980002000000010410403251143211321944040750325000006872987   1020000200030000   333400010001204104000000281Myanmar Soft-Gate Tech Yangon        MMR11003251143211321940325000000000000000   10300001F05104100000000000206000000000000     
100   95050316601084530000000000000980000000000980002000000010410403250412454245943986580325000006869294   1020000200030000   333400010001204104000000281Myanmar Soft-Gate Tech Yangon        MMR11003250412454245940325000000000000000   10300001F05104100000000000206000000000000     
100   95050311959900780000000000000980000000000980002000000010410403250518314831966737250325000006869960   1020000200030000   333400010001204104000000281Myanmar Soft-Gate Tech Yangon        MMR11003250518314831960325000000000000000   10300001F05104100000000000206000000000000     
100   62443101053241940000000000031300000000031300002000000010410403250813035591009773130325711411418083   1030000300030000   444410108089104519000007236The Pizza and Swensens I             MMR11003250813035591000325000000000000000   10300001 00104100000000013303000000000000     
100   95050312498129060000000000002940000000002940002000000010410403251326245624490636900325000006873627   1020000200030000   333400010001204104000000281Myanmar Soft-Gate Tech Yangon        MMR11003251326245624490325000000000000000   10300001F05104100000000000617000000000000     
100   95030302388346590000000000019100000000019100002000000010410403250538245570464052100325970111238083   1030000500030000   555610103981104519000003818Ocean Oattara Thiri Na PyiTaw        MMR11003250538245570460325000000000000000   10300001 00104100000000001146000000000000     
100   62443100340422630000000000022200000000022200002000000010410403251117465619591707490325786451740083   1030000300030000   444410125393104519000021220Myanmar Bakery CoLtd                 MMR11003251117465619590325000000000000000   10300001 00104100000000009435000000000000     
100   62911028202663500000000000095000000000095000002000000010410403250339145876644052100325208410587664   1040001600030000   806220000003000000010000001Victoria Hospital      Yangon        MMR11003250339145876640325000000000000000   10300001F00104100000000005700000000000000     
100   62911028202383670000000000026050000000026050002000000010410403241127410016824052100324000744644753   1030000200030000   541188001354000008000000395KBZ BANK               OCEAN SUPERMA MMR11003241127410016820324000000000000000   10300001 00104100000000001563000000000000     
100   95030322236782320000000000148500000000148500002000000010410403241629400076094052100324000744663215   1030000200030000   541188001262000008000000310KBZ BANK               CITY MART- FM MMR11003241629400076090324000000000000000   10300001 00104100000000008910000000000000     
100   62911028202731170000000000050000000000050000002000000010410403240436030018074052100324208311001807   1030000500030000   598320101301005405983201013PT POWER (NPT)         PTN           MMR11003240436030018070324000000000000000   10300001 00104100000000001500000000000000     
100   95030308100042590000000000115005000000115005002000000010410403240926070059624052100324208315005962   1030000500030000   598320001702000015172200017MAX ENERGY             PTN           MMR11003240926070059620324000000000000000   10300001 00104100000000003450000000000000     
100   62911028202168430000000000005600000000005600002000000010410403240838360003584052100324000744659545   1030000200030000   581288000824000008000004520KBZ BANK               TITU?S JUNCTI MMR11003240838360003580324000000000000000   10300001 00104100000000000571000000000000     
100   95050324154190880000000000050000000000050000002000000010410403240350470058038965900324208310005803   1030000500030000   598320002104000015172200021MAX ENERGY             PTN           MMR11003240350470058030324000000000000000   10300001 00104100000000006000000000000000     
100   95030308100042590000000000105000000000105000002000000010410403240926410059634052100324208315005963   1030000500030000   598320001702000015172200017MAX ENERGY             PTN           MMR11003240926410059630324000000000000000   10300001 00104100000000003150000000000000     
100   62911028202242760000000000050200000000050200002000000010410403241431350084054052100324000744657426   1030000200030000   541188001313000008000000306KBZ BANK               CITY MART - S MMR11003241431350084050324000000000000000   10300001 00104100000000003012000000000000     
100   62443100306028540000000000018000000000018000002000000010410403251200475627820480490325913331850083   1030000500030000   555610110570104519000009164City Mart China Town P int Cen       MMR11003251200475627820325000000000000000   10300001 00104100000000004500000000000000     
100   95030301100121270000000000017300000000017300002000000010410403250536565569634052100325877041251083   1030000300030000   444410116806104519000014353BreadTalk JunctionCity               MMR11003250536565569630325000000000000000   10300001 00104100000000001765000000000000     
100   62911028202313470000000000010400000000010400002000000010410403250921225600744052100325031501503083   1030000500030000   555610110597104519000009166City Mart 47 Branch                  MMR11003250921225600740325000000000000000   10300001 00104100000000000624000000000000     
100   95050328035424750000000000126350000000126350002000000010410403250837315595075070970325240091542083   1030000500030000   555610108768104519000003818City Mart Oattara Thir NPT           MMR11003250837315595070325000000000000000   10300001 00104100000000031588000000000000     
100   62911028202225440000000000001600000000001600002000000010410403251043515613914052100325947121713083   1030000500030000   555610110576104519000009164City Mart China Town P int Cen       MMR11003251043515613910325000000000000000   10300001 00104100000000000096000000000000     
100   62911028202313470000000000012700000000012700002000000010410403250926516050094052100325208416605009   1040001600030000   591220000285000000010000273Shwe Ohh Pharmacy (47t Yangon        MMR11003250926516050090325000000000000000   10300001F00104100000000000762000000000000     
100   62911028202225440000000000001400000000001400002000000010410403250825175594284052100325133041547083   1030000500030000   555610117864104519000009164City Mart China Town P int Cen       MMR11003250825175594280325000000000000000   10300001 00104100000000000084000000000000     
100   62911028202169750000000000073000000000073000002000000010410403250143585826374052100325208408582637   1040001600030000   591220000273000000010000261Shwe Ohh Pharmacy (WZY Yangon        MMR11003250143585826370325000000000000000   10300001F00104100000000004380000000000000     
