100   62911028202890630000000000079850000000079850002000000010410403281700360017654052100328000744830759   1030000200030000   541188001354000008000000395KBZ BANK               OCEAN SUPERMA MMR11003281700360017650328000000000000000   10300001 00104100000000004791000000000000     
100   62911028202449440000000000037300000000037300002000000010410403280140340024234052100328000744803300   1030000200030000   581288000098000008000003562KBZ BANK               CANTON PARADI MMR11003280140340024230328000000000000000   10300001 00104100000000003805000000000000     
100   95030380157605420000000000027000000000027000002000000010410403281041270020394052100328000744808802   1030000200030000   541188001485000008000000399KBZ BANK               OCEAN SUPERCE MMR11003281041270020390328000000000000000   10300001 00104100000000001620000000000000     
100   62911028202151910000000000043450000000043450002000000010410403280158120024254052100328000744803724   1030000200030000   581288000098000008000003562KBZ BANK               CANTON PARADI MMR11003280158120024250328000000000000000   10300001 00104100000000004432000000000000     
100   62911028202151910000000000005700000000005700002000000010410403280159060024264052100328000744803737   1030000200030000   581288000098000008000003562KBZ BANK               CANTON PARADI MMR11003280159060024260328000000000000000   10300001 00104100000000000581000000000000     
100   95050312441495100000000000100000000000100000002000000010410403280533050002278342870328000744814308   1030000200030000   594488000253000008000002280KBZ BANK               PWINT HTUN GO MMR11003280533050002270328000000000000000   10300001 00104100000000024000000000000000     
100   62911028202610540000000000013000000000013000002000000010410403281146080016804052100328000744813294   1030000200030000   541188001085000008000000294KBZ BANK               CITY MART - J MMR11003281146080016800328000000000000000   10300001 00104100000000000780000000000000     
100   95050312441495100000000000100000000000100000002000000010410403280530400002217662100328000744814148   1030000200030000   594488000253000008000002280KBZ BANK               PWINT HTUN GO MMR11003280530400002210328000000000000000   10300001 00104100000000024000000000000000     
100   62911028202133520000000000026646000000026646002000000010410403281214337430994052100328108441833086   1030000900030000   541119001191190110000000942City Mart HDC C 6      YANGONUT      MMR11003281214337430990328000000000000000   10300001F00104100000000001599000000000000     
100   95050313079290890000000000005499000000005499002000000010410403280759477365181505230328976291447086   1030000900030000   541119000113190110000000077Sein Gay Har Chinatown YANGON        MMR11003280759477365180328000000000000000   10300001F00104100000000001375000000000000     
100   95030346645639490000000000007300000000007300002000000010410403280237217858044052100328208709785804   1040001600030000   591220000258000000010000246Shwe Ohh Pharmacy (Sin Yangon        MMR11003280237217858040328000000000000000   10300001F00104100000000000438000000000000     
100   62911028202212490000000000004700000000004700002000000010410403280417537313174052100328975471053086   1030000900030000   581219000715190110000000546Akkhaya Tea House(Dago YANGON        MMR11003280417537313170328000000000000000   10300001F00104100000000000479000000000000     
100   95030346645639490000000000002200000000002200002000000010410403280239357858984052100328208709785898   1040001600030000   591220000258000000010000246Shwe Ohh Pharmacy (Sin Yangon        MMR11003280239357858980328000000000000000   10300001F00104100000000000132000000000000     
100   62911028202163630000000000034950000000034950002000000010410403280959488069604052100328208716806960   1040001600030000   591220000291000000010000279Shwe Ohh Pharmacy (Sou Yangon        MMR11003280959488069600328000000000000000   10300001F00104100000000002097000000000000     
100   62911028202534810000000000013950000000013950002000000010410403281142378155184052100328208718815518   1040001600030000   541120000563000000010000465Ocean Shwe Gone Daing  Yangon        MMR11003281142378155180328000000000000000   10300001F00104100000000000837000000000000     
100   62911028202328650000000000025000000000025000002000000010410403280848125962864052100328500161513086   1030000300030000   888810125940104519000021285Shwe Taung Energy CoLt               MMR11003280848125962860328000000000000000   10300001 00104100000000000750000000000000     
100   95050314950595330000000000001000000000001000002000000010410403281149261926273830400328000006888878   1030000200030000   3338000100012031040000040022C2P (Myanmar) Co. Ltd Yangon        MMR11003281149261926270328000000000000000   10300001F05104100000000000210000000000000     
100   95050316997303010000000000000980000000000980002000000010410403281558222822133028890328000006890055   1020000200030000   333400010001204104000000281Myanmar Soft-Gate Tech Yangon        MMR11003281558222822130328000000000000000   10300001F05104100000000000206000000000000     
100   62911028202807400000000000029241000000029241002000000010410403281904460178584052100328000744835589   1030000200030000   541188001037000008000000010KBZ BANK               MARKETPLACE - MMR11003281904460178580328000000000000000   10300001 00104100000000001755000000000000     
100   62443100392426520000000000010000000000010000002000000010410403280438170817619443180328000006885615   1030000200030000   333800010001203104000003327KBZPay                 Yangon        MMR11003280438170817610328000000000000000   10300001F05104100000000002100000000000000     
100   95050311121153200000000000001960000000001960002000000010410403281304463446278702760328000006889244   1020000200030000   333400010001204104000000281Myanmar Soft-Gate Tech Yangon        MMR11003281304463446270328000000000000000   10300001F05104100000000000412000000000000     
100   95050313441999020000000000004900000000004900002000000010410403280906143614611200490328000006887765   1020000200030000   333400010001204104000000281Myanmar Soft-Gate Tech Yangon        MMR11003280906143614610328000000000000000   10300001F05104100000000001029000000000000     
100   95050319938772870000000000000980000000000980002000000010410403281249101910735312700328000006889151   1020000200030000   333400010001204104000000281Myanmar Soft-Gate Tech Yangon        MMR11003281249101910730328000000000000000   10300001F05104100000000000206000000000000     
100   95050312498129060000000000012740000000012740002000000010410403281048501850202106610328000006888479   1020000200030000   333400010001204104000000281Myanmar Soft-Gate Tech Yangon        MMR11003281048501850200328000000000000000   10300001F05104100000000002675000000000000     
100   62911028202610540000000000003600000000003600002000000010410403281140200087864052100328000744812889   1030000200030000   541188001088000008000000294KBZ BANK               CITY MART - J MMR11003281140200087860328000000000000000   10300001 00104100000000000216000000000000     
100   62443100306028540000000000010600000000010600002000000010410403280528305935968087580328697571107086   1030000500030000   555610110574104519000009164City Mart China Town P int Cen       MMR11003280528305935960328000000000000000   10300001 00104100000000002650000000000000     
100   62443100330108240000000000001960000000001960002000000010410403280508533853779534220328000006885874   1020000200030000   333400010001204104000000281Myanmar Soft-Gate Tech Yangon        MMR11003280508533853770328000000000000000   10300001F05104100000000000412000000000000     
100   95050314570621780000000000000980000000000980002000000010410403280832570257808881030328000006887512   1020000200030000   333400010001204104000000281Myanmar Soft-Gate Tech Yangon        MMR11003280832570257800328000000000000000   10300001F05104100000000000206000000000000     
100   95050328384000040000000000049000000000049000002000000010410403270835290003569352370327208615000356   1030000500030000   598320002001000015172200020MAX ENERGY             PTN           MMR11003270835290003560327000000000000000   10300001 00104100000000005880000000000000     
100   95050327192897240000000000007150000000007150002000000010410403281321457441845993470328686511945086   1030000900030000   541119000141190110000000083SeinGayHarParami Cente YANGON        MMR11003281321457441840328000000000000000   10300001F00104100000000001788000000000000     
100   95050310553090700000000000006500000000006500002000000010410403280807567367256207390328092371456086   1030000900030000   541119000122190110000000080Sein Gay Har BAK       YANGONADA     MMR11003280807567367250328000000000000000   10300001F00104100000000001625000000000000     
100   62911028202221220000000000010000000000010000002000000010410403242329060041834052100325208423004183   1030000600030000   554100002085315799420000471DENKO BAHAN            YANGON        MMR11003242329060041830325000000000000000   10300001 00104100000000000300000000000000     
100   95050315345734110000000000001960000000001960002000000010410403280602143214371087820328000006886292   1020000200030000   333400010001204104000000281Myanmar Soft-Gate Tech Yangon        MMR11003280602143214370328000000000000000   10300001F05104100000000000412000000000000     
100   95050316736513170000000000000980000000000980002000000010410403280405443544056747680328000006885319   1020000200030000   333400010001204104000000281Myanmar Soft-Gate Tech Yangon        MMR11003280405443544050328000000000000000   10300001F05104100000000000206000000000000     
100   95050319938772870000000000000980000000000980002000000010410403281536070607114681370328000006889962   1020000200030000   333400010001204104000000281Myanmar Soft-Gate Tech Yangon        MMR11003281536070607110328000000000000000   10300001F05104100000000000206000000000000     
100   95050319111666800000000000000980000000000980002000000010410403281441261126870865820328000006889725   1020000200030000   333400010001204104000000281Myanmar Soft-Gate Tech Yangon        MMR11003281441261126870328000000000000000   10300001F05104100000000000206000000000000     
100   62911028202357510000000000023200000000023200002000000010410403281403100116614052100328000744821755   1030000200030000   541188001349000008000000395KBZ BANK               OCEAN SUPERMA MMR11003281403100116610328000000000000000   10300001 00104100000000001392000000000000     
100   62911028202531350000000000048747000000048747002000000010410403281003140191264052100328000744806746   1030000200030000   541188001003000008000000008KBZ BANK               MARKETPLACE - MMR11003281003140191260328000000000000000   10300001 00104100000000002925000000000000     
100   62911028202531350000000000004750000000004750002000000010410403281004370191274052100328000744806845   1030000200030000   541188001003000008000000008KBZ BANK               MARKETPLACE - MMR11003281004370191270328000000000000000   10300001 00104100000000000285000000000000     
100   95050310427855490000000000003920000000003920002000000010410403280052472247748507130328000006884092   1020000200030000   333400010001204104000000281Myanmar Soft-Gate Tech Yangon        MMR11003280052472247740328000000000000000   10300001F05104100000000000823000000000000     
100   62911028202023630000000000038000000000038000002000000010410403241354060743414052100324208313074341   1030000600030000   554100000946315799420000471DENKO BAHAN            YANGON        MMR11003241354060743410324000000000000000   10300001 00104100000000001140000000000000     
100   95050312539675540000000000002000000000002000002000000010410403250146230052595809260325208401005259   1030000600030000   554100002139315799420001488DENKO MDY-12           MANDALAY      MMR11003250146230052590325000000000000000   10300001 00104100000000000240000000000000     
100   95050313836159580000000000001000000000001000002000000010410403281328015801669298440328000006889363   1030000200030000   3334000100012031040000040102C2P (Myanmar) Co. Ltd Yangon        MMR11003281328015801660328000000000000000   10300001F05104100000000000210000000000000     
100   95050317343045830000000000000980000000000980002000000010410403280724155415055455310328000006886912   1020000200030000   333400010001204104000000281Myanmar Soft-Gate Tech Yangon        MMR11003280724155415050328000000000000000   10300001F05104100000000000206000000000000     
100   62443100306416880000000000023607000000023607002000000010410403271047460003175402290327208617000317   1030000500030000   598320002104000015172200021MAX ENERGY             PTN           MMR11003271047460003170327000000000000000   10300001 00104100000000002833000000000000     
100   95030321100003180000000000002500000000002500002000000010410403280902377380514052100328882321537086   1030000900030000   541119001264190110000000958City Mart PLST C 7     YANGONMYOTHIT MMR11003280902377380510328000000000000000   10300001F00104100000000000150000000000000     
100   62911028202019440000000000003300000000003300002000000010410403281107030027244052100328000744810567   1030000200030000   541188001188000008000000383KBZ BANK               OCEAN SUPER C MMR11003281107030027240328000000000000000   10300001 00104100000000000198000000000000     
100   62911028202318830000000000004600000000004600002000000010410403281629240213054052100328000744829336   1030000200030000   541188001059000008000000314KBZ BANK               MARKETPLACE - MMR11003281629240213050328000000000000000   10300001 00104100000000000276000000000000     
100   95050319925596540000000000011760000000011760002000000010410403280955122512424050040328000006888104   1020000200030000   333400010001204104000000281Myanmar Soft-Gate Tech Yangon        MMR11003280955122512420328000000000000000   10300001F05104100000000002470000000000000     
100   95030301100120850000000000010000000000010000002000000010410403280256192619134052100328000006884701   1030000200030000   333800010001203104000003327KBZPay                 Yangon        MMR11003280256192619130328000000000000000   10300001F05104100000000002100000000000000     
100   95050323670692380000000000010000000000010000002000000010410403280514074407856654740328000006885916   1030000200030000   333800010001203104000003327KBZPay                 Yangon        MMR11003280514074407850328000000000000000   10300001F05104100000000002100000000000000     
100   95050310397364970000000000001960000000001960002000000010410403281411534153387475760328000006889566   1020000200030000   333400010001204104000000281Myanmar Soft-Gate Tech Yangon        MMR11003281411534153380328000000000000000   10300001F05104100000000000412000000000000     
100   95050312498129060000000000000980000000000980002000000010410403280338560856958790000328000006885079   1020000200030000   333400010001204104000000281Myanmar Soft-Gate Tech Yangon        MMR11003280338560856950328000000000000000   10300001F05104100000000000206000000000000     
100   95050325305150830000000000000980000000000980002000000010410403280149581958919599590328000006884307   1020000200030000   333400010001204104000000281Myanmar Soft-Gate Tech Yangon        MMR11003280149581958910328000000000000000   10300001F05104100000000000206000000000000     
100   95050323233042810000000000000980000000000980002000000010410403280614374437149860820328000006886365   1020000200030000   333400010001204104000000281Myanmar Soft-Gate Tech Yangon        MMR11003280614374437140328000000000000000   10300001F05104100000000000206000000000000     
100   95050312498129060000000000002940000000002940002000000010410403281332210221780695640328000006889382   1020000200030000   333400010001204104000000281Myanmar Soft-Gate Tech Yangon        MMR11003281332210221780328000000000000000   10300001F05104100000000000617000000000000     
100   95050317376014640000000000000980000000000980002000000010410403281346401640474085700328000006889437   1020000200030000   333400010001204104000000281Myanmar Soft-Gate Tech Yangon        MMR11003281346401640470328000000000000000   10300001F05104100000000000206000000000000     
100   62443100389971990000000000006000000000006000002000000010410403281133430343187135380328000006888772   1030000200030000   333800010001203104000003327KBZPay                 Yangon        MMR11003281133430343180328000000000000000   10300001F05104100000000001260000000000000     
100   62911028202161240000000000002350000000002350002000000010410403281806080052044052100328000744833451   1030000200030000   541188001021000008000000298KBZ BANK               CITY MART - M MMR11003281806080052040328000000000000000   10300001 00104100000000000141000000000000     
100   95050322149411750000000000030000000000030000002000000010410403270313410004134018890327208609000413   1030000500030000   598320001403000015172200014MAX ENERGY             PTN           MMR11003270313410004130327000000000000000   10300001 00104100000000003600000000000000     
100   95050319331315630000000000002940000000002940002000000010410403280639160916832108980328000006886545   1020000200030000   333400010001204104000000281Myanmar Soft-Gate Tech Yangon        MMR11003280639160916830328000000000000000   10300001F05104100000000000617000000000000     
100   62911028202823400000000000050000000000050000002000000010410403280919134913744052100328000006887862   1030000200030000   333800010001203104000003327KBZPay                 Yangon        MMR11003280919134913740328000000000000000   10300001F05104100000000010500000000000000     
100   95050319211130030000000000012500000000012500002000000010410403280952257393185702530328637221625086   1030000900030000   591219001403190110000001007Life Plus Store 3      YANGONN       MMR11003280952257393180328000000000000000   10300001F00104100000000003000000000000000     
100   62911028202161240000000000003250000000003250002000000010410403281040130308354052100328000744808708   1030000200030000   541188001024000008000000298KBZ BANK               CITY MART - M MMR11003281040130308350328000000000000000   10300001 00104100000000000195000000000000     
100   95050326393773020000000000002940000000002940002000000010410403280432510251427365220328000006885563   1020000200030000   333400010001204104000000281Myanmar Soft-Gate Tech Yangon        MMR11003280432510251420328000000000000000   10300001F05104100000000000617000000000000     
100   62443100379116470000000000010100000000010100002000000010410403281544010305295186230328000744827237   1030000200030000   541188001025000008000000298KBZ BANK               CITY MART - M MMR11003281544010305290328000000000000000   10300001 00104100000000002525000000000000     
100   95050313062063490000000000000980000000000980002000000010410403281352232223712433210328000006889456   1020000200030000   333400010001204104000000281Myanmar Soft-Gate Tech Yangon        MMR11003281352232223710328000000000000000   10300001F05104100000000000206000000000000     
100   95050319753756490000000000015000000000015000002000000010410403271645381538945493100328000006883597   1030000200030000   333800010001203104000003327KBZPay                 Yangon        MMR11003271645381538940328000000000000000   10300001F05104100000000003150000000000000     
100   95050314307746340000000000001960000000001960002000000010410403280956402640965787620328000006888125   1020000200030000   333400010001204104000000281Myanmar Soft-Gate Tech Yangon        MMR11003280956402640960328000000000000000   10300001F05104100000000000412000000000000     
100   95050317100052460000000000010050000000010050002000000010410403280431120112976953530328000006885545   1030000200030000   333800010001203104000003327KBZPay                 Yangon        MMR11003280431120112970328000000000000000   10300001F05104100000000002111000000000000     
100   62911028202464440000000000014550000000014550002000000010410403281054490128064052100328000744809751   1030000200030000   541188001073000008000000294KBZ BANK               CITY MART - J MMR11003281054490128060328000000000000000   10300001 00104100000000000873000000000000     
100   95050319928585020000000000000980000000000980002000000010410403281009093909007695400328000006888202   1020000200030000   333400010001204104000000281Myanmar Soft-Gate Tech Yangon        MMR11003281009093909000328000000000000000   10300001F05104100000000000206000000000000     
100   95050322312197120000000000100000000000100000002000000010410403280654252425416987050328000006886672   1030000200030000   333800010001203104000003327KBZPay                 Yangon        MMR11003280654252425410328000000000000000   10300001F05104100000000021000000000000000     
100   95050319161596230000000000000980000000000980002000000010410403281114514451781851320328000006888637   1020000200030000   333400010001204104000000281Myanmar Soft-Gate Tech Yangon        MMR11003281114514451780328000000000000000   10300001F05104100000000000206000000000000     
100   62443100340648380000000000003000000000003000002000000010410403281431150115650780730328000006889676   1030000200030000   333800010001203104000003327KBZPay                 Yangon        MMR11003281431150115650328000000000000000   10300001F05104100000000000630000000000000     
100   95050314557307430000000000000980000000000980002000000010410403281333300330699043150328000006889384   1020000200030000   333400010001204104000000281Myanmar Soft-Gate Tech Yangon        MMR11003281333300330690328000000000000000   10300001F05104100000000000206000000000000     
100   95050316785465380000000000000980000000000980002000000010410403281245451545126965180328000006889131   1020000200030000   333400010001204104000000281Myanmar Soft-Gate Tech Yangon        MMR11003281245451545120328000000000000000   10300001F05104100000000000206000000000000     
100   62911028202750390000000000001960000000001960002000000010410403281104363436564052100328000006888572   1020000200030000   333400010001204104000000281Myanmar Soft-Gate Tech Yangon        MMR11003281104363436560328000000000000000   10300001F05104100000000000412000000000000     
100   95030301100122420000000000050000000000050000002000000010410403280906053605104052100328000006887759   1030000200030000   333800010001203104000003327KBZPay                 Yangon        MMR11003280906053605100328000000000000000   10300001F05104100000000010500000000000000     
100   95050319996628650000000000000980000000000980002000000010410403280706063606664533040328000006886771   1020000200030000   333400010001204104000000281Myanmar Soft-Gate Tech Yangon        MMR11003280706063606660328000000000000000   10300001F05104100000000000206000000000000     
100   95030301100122420000000000050000000000050000002000000010410403280701343134974052100328000006886732   1030000200030000   333800010001203104000003327KBZPay                 Yangon        MMR11003280701343134970328000000000000000   10300001F05104100000000010500000000000000     
100   95050323233042810000000000000980000000000980002000000010410403280301363136622380190328000006884746   1020000200030000   333400010001204104000000281Myanmar Soft-Gate Tech Yangon        MMR11003280301363136620328000000000000000   10300001F05104100000000000206000000000000     
100   95050311806372620000000000046100000000046100002000000010410403281825540032092263020328000744834238   1030000200030000   541188001436000008000000401KBZ BANK               OCEAN SUPERCE MMR11003281825540032090328000000000000000   10300001 00104100000000011525000000000000     
100   95050329213164970000000000004900000000004900002000000010410403281049201920787149170328000006888482   1020000200030000   333400010001204104000000281Myanmar Soft-Gate Tech Yangon        MMR11003281049201920780328000000000000000   10300001F05104100000000001029000000000000     
100   95050319938772870000000000000980000000000980002000000010410403281251182118730270150328000006889165   1020000200030000   333400010001204104000000281Myanmar Soft-Gate Tech Yangon        MMR11003281251182118730328000000000000000   10300001F05104100000000000206000000000000     
100   62911028202662690000000000036600000000036600002000000010410403280433490349254052100328000006885575   1030000200030000   3333000100012031040000040282C2P (Myanmar) Co. Ltd Yangon        MMR11003280433490349250328000000000000000   10300001F05104100000000010000000000000000     
100   62443100335647210000000000003920000000003920002000000010410403280137590759926294620328000006884247   1020000200030000   333400010001204104000000281Myanmar Soft-Gate Tech Yangon        MMR11003280137590759920328000000000000000   10300001F05104100000000000823000000000000     
100   95050316949180000000000000002940000000002940002000000010410403281452142214509213340328000006889778   1020000200030000   333400010001204104000000281Myanmar Soft-Gate Tech Yangon        MMR11003281452142214500328000000000000000   10300001F05104100000000000617000000000000     
100   95050310616516480000000000002940000000002940002000000010410403281412084208105823270328000006889571   1020000200030000   333400010001204104000000281Myanmar Soft-Gate Tech Yangon        MMR11003281412084208100328000000000000000   10300001F05104100000000000617000000000000     
100   95050327185992630000000000021800000000021800002000000010410403281706110128309688270328000744830975   1030000200030000   541188001073000008000000294KBZ BANK               CITY MART - J MMR11003281706110128300328000000000000000   10300001 00104100000000005450000000000000     
100   62911028202610540000000000011500000000011500002000000010410403281157570169664052100328000744813987   1030000200030000   541188001080000008000000294KBZ BANK               CITY MART - J MMR11003281157570169660328000000000000000   10300001 00104100000000000690000000000000     
100   95050311077567400000000000003000000000003000002000000010410403281132530253115241390328000006888761   1030000900030000   333400010001202104000002022ACS                    Yangon        MMR11003281132530253110328000000000000000   10300001F05104100000000000630000000000000     
100   95050319161596230000000000000980000000000980002000000010410403280111494149156840850328000006884146   1020000200030000   333400010001204104000000281Myanmar Soft-Gate Tech Yangon        MMR11003280111494149150328000000000000000   10300001F05104100000000000206000000000000     
100   62911028202737030000000000300000000000300000002000000010410403281520385038504052100328000006889903   1030000200030000   333800010001203104000003327KBZPay                 Yangon        MMR11003281520385038500328000000000000000   10300001F05104100000000063000000000000000     
100   95030301100102610000000000010000000000010000002000000010410403281121575157554052100328000006888692   1030000200030000   333800010001203104000003327KBZPay                 Yangon        MMR11003281121575157550328000000000000000   10300001F05104100000000002100000000000000     
100   95050316997303010000000000001960000000001960002000000010410403280924485448191625980328000006887901   1020000200030000   333400010001204104000000281Myanmar Soft-Gate Tech Yangon        MMR11003280924485448190328000000000000000   10300001F05104100000000000412000000000000     
100   95050326426352250000000000050000000000050000002000000010410403280916054605973108270328000006887840   1030000200030000   333800010001203104000003327KBZPay                 Yangon        MMR11003280916054605970328000000000000000   10300001F05104100000000010500000000000000     
100   95030301100118480000000000010000000000010000002000000010410403280516304630684052100328000006885944   1030000200030000   333800010001203104000003327KBZPay                 Yangon        MMR11003280516304630680328000000000000000   10300001F05104100000000002100000000000000     
100   95050325139996190000000000003300000000003300002000000010410403280311004100851153190328000006884823   1030000200030000   333300010001203104000003632Myanmar Tradenet Test  Yangon        MMR11003280311004100850328000000000000000   10300001F05104100000000010000000000000000     
100   95050311959900780000000000000980000000000980002000000010410403280216074607533741730328000006884432   1020000200030000   333400010001204104000000281Myanmar Soft-Gate Tech Yangon        MMR11003280216074607530328000000000000000   10300001F05104100000000000206000000000000     
100   95050319996628650000000000000980000000000980002000000010410403280322565256927933320328000006884926   1020000200030000   333400010001204104000000281Myanmar Soft-Gate Tech Yangon        MMR11003280322565256920328000000000000000   10300001F05104100000000000206000000000000     
100   95030301100122420000000000150000000000150000002000000010410403280523235323624052100328000006886000   1030000200030000   333800010001203104000003327KBZPay                 Yangon        MMR11003280523235323620328000000000000000   10300001F05104100000000031500000000000000     
100   62911028202261230000000000094163000000094163002000000010410403280527135936184052100328725591106086   1030000500030000   555610118961104519000016137City Mart South Okkala WZYD BR       MMR11003280527135936180328000000000000000   10300001 00104100000000005650000000000000     
100   62911028202088990000000000012000000000012000002000000010410403280456565938584052100328055171238086   1030000300030000   444410125271104519000021125SP Bakery San YeikNyei GMP           MMR11003280456565938580328000000000000000   10300001 00104100000000001224000000000000     
100   95050317100052460000000000000800000000000800002000000010410403281025355535280028650328000006888327   1030000200030000   333800010001203104000003327KBZPay                 Yangon        MMR11003281025355535280328000000000000000   10300001F05104100000000000168000000000000     
100   95050319753756490000000000015000000000015000002000000010410403281512254225191376400328000006889876   1030000200030000   333800010001203104000003327KBZPay                 Yangon        MMR11003281512254225190328000000000000000   10300001F05104100000000003150000000000000     
100   95050318057347910000000000001960000000001960002000000010410403281317104710285397790328000006889316   1020000200030000   333400010001204104000000281Myanmar Soft-Gate Tech Yangon        MMR11003281317104710280328000000000000000   10300001F05104100000000000412000000000000     
100   95050312498129060000000000002940000000002940002000000010410403281326505650350950920328000006889362   1020000200030000   333400010001204104000000281Myanmar Soft-Gate Tech Yangon        MMR11003281326505650350328000000000000000   10300001F05104100000000000617000000000000     
100   95050318741700180000000000000980000000000980002000000010410403280224255425194167210328000006884472   1020000200030000   333400010001204104000000281Myanmar Soft-Gate Tech Yangon        MMR11003280224255425190328000000000000000   10300001F05104100000000000206000000000000     
100   62911028202684060000000000013200000000013200002000000010410403280600225940634052100328359301258086   1030000500030000   555610122584104519000018896City Mart Hlaing Thar  ar            MMR11003280600225940630328000000000000000   10300001 00104100000000000792000000000000     
100   95050314735271470000000000082000000000082000002000000010410403280917424742051455790328000006887844   1030000500030000   333800010001201104000003863AYA Pay                Yangon        MMR11003280917424742050328000000000000000   10300001F05104100000000017220000000000000     
100   95050313970192050000000000002700000000002700002000000010410403280209455916778699180328164390847086   1030000500030000   555610112651104519000010846City Express MCS 34                  MMR11003280209455916770328000000000000000   10300001 00104100000000000675000000000000     
100   95030325264619140000000000024980000000024980002000000010410403280709495950514052100328764401306086   1030000500030000   555610103468104519000003420City Mart Yankin Cente 7             MMR11003280709495950510328000000000000000   10300001 00104100000000001499000000000000     
100   62911028202471860000000000016000000000016000002000000010410403271208550000234052100327208618000023   1030000500030000   581220142001000015812201420GOLDEN DUCK (NAN THI D PTN           MMR11003271208550000230327000000000000000   10300001 00104100000000001632000000000000     
100   62911028202045260000000000035000000000035000002000000010410403270947400006764052100327208616000676   1030000500030000   598320001202000015172200012MAX ENERGY             PTN           MMR11003270947400006760327000000000000000   10300001 00104100000000001050000000000000     
100   95030302100062270000000000018700000000018700002000000010410403271316310023814052100327208619002381   1030000500030000   581220021001000015812200210SHWE LAR HOT POT       PTN           MMR11003271316310023810327000000000000000   10300001 00104100000000001907000000000000     
100   95050318805978240000000000010520000000010520002000000010410403270519440001444770960327208611000144   1030000500030000   531120155712000045311201557GAMONE PWINT           PTN           MMR11003270519440001440327000000000000000   10300001 00104100000000002525000000000000     
100   62911028202907560000000000083000000000083000002000000010410403270453120001824052100327208611000182   1030000500030000   503920036606000015039200366PRO-1 HOME CENTER      PTN           MMR11003270453120001820327000000000000000   10300001 00104100000000004980000000000000     
100   62911028202907560000000000007500000000007500002000000010410403270424360000414052100327208610000041   1030000500030000   503920036602000015039200366PRO-1 HOME CENTER      PTN           MMR11003270424360000410327000000000000000   10300001 00104100000000000450000000000000     
100   62911028202067520000000000006120000000006120002000000010410403270610190000754052100327208612000075   1030000500030000   531120156003000045311201560GAMONE PWINT           PTN           MMR11003270610190000750327000000000000000   10300001 00104100000000000367000000000000     
100   62443100369813440000000000030000000000030000002000000010410403270230110002728040280327208609000272   1030000500030000   598320001302000015172200013MAX ENERGY             PTN           MMR11003270230110002720327000000000000000   10300001 00104100000000003600000000000000     
100   62911028202616250000000000102000000000102000002000000010410403270410250003034052100327208610000303   1030000500030000   598320001604000015172200016MAX ENERGY             PTN           MMR11003270410250003030327000000000000000   10300001 00104100000000003060000000000000     
100   62911028202366010000000000038000000000038000002000000010410403270351220000274052100327208610000027   1030000500030000   569120102701008205691201027ESCORT                 PTN           MMR11003270351220000270327000000000000000   10300001 00104100000000002280000000000000     
100   62911028202174450000000000047000000000047000002000000010410403270145190002894052100327208608000289   1030000500030000   598320001604000015172200016MAX ENERGY             PTN           MMR11003270145190002890327000000000000000   10300001 00104100000000001410000000000000     
100   62443100372702000000000000025745000000025745002000000010410403270735380000466678730327208614000046   1030000500030000   541120020701022205411200207ORANGE (YDG)           PTN           MMR11003270735380000460327000000000000000   10300001 00104100000000006437000000000000     
100   95050325925517520000000000164000000000164000002000000010410403270631540002183543960327208613000218   1030000500030000   503920036606000015039200366PRO-1 HOME CENTER      PTN           MMR11003270631540002180327000000000000000   10300001 00104100000000039360000000000000     
100   62911028202133940000000000053007000000053007002000000010410403270731370003284052100327208614000328   1030000500030000   598320001603000015172200016MAX ENERGY             PTN           MMR11003270731370003280327000000000000000   10300001 00104100000000001590000000000000     
100   62443100372702000000000000012420000000012420002000000010410403270622330000536253250327208612000053   1030000500030000   531120155901000045311201559GAMONE PWINT           PTN           MMR11003270622330000530327000000000000000   10300001 00104100000000002981000000000000     
100   95050324444444460000000000035000000000035000002000000010410403270728430011288246120327208613001128   1030000500030000   581220044201022605812200442HOT POT CITY (AHLONE)  PTN           MMR11003270728430011280327000000000000000   10300001 00104100000000014875000000000000     
100   95050315345734110000000000018900000000018900002000000010410403270549210000457735540327208612000045   1030000500030000   531120156006000045311201560GAMONE PWINT           PTN           MMR11003270549210000450327000000000000000   10300001 00104100000000004536000000000000     
100   95030305100040620000000000584100000000584100002000000010410403270417310001344052100327208610000134   1030000500030000   503920036611000015039200366PRO-1 HOME CENTER      PTN           MMR11003270417310001340327000000000000000   10300001 00104100000000035046000000000000     
100   95050322921717110000000000020000000000020000002000000010410403270358530003325671370327208610000332   1030000500030000   598320001304000015172200013MAX ENERGY             PTN           MMR11003270358530003320327000000000000000   10300001 00104100000000002400000000000000     
100   95050327830341470000000000128100000000128100002000000010410403261807140000104493810327208600000010   1030000500030000   701120110602000017011201106HOTEL SHWE GONE DAING  PTN           MMR11003261807140000100327000000000000000   10300001 00104100000000054443000000000000     
100   62911028202610540000000000012600000000012600002000000010410403270833000000184052100327208615000018   1030000500030000   581220148201017105812201482GOLDEN DUCK RESTAURANT PTN           MMR11003270833000000180327000000000000000   10300001 00104100000000001285000000000000     
100   95050310989069570000000000018183000000018183002000000010410403271153290001874005090327000337198882   1030000300030000   591200000330000000000000210CB BANK                MEDICARE STOR MMR11003271153290001870327000000000000000   10300001F00104100000000004364000000000000     
100   62911028202284420000000000030000000000030000002000000010410403270838590002384052100327208615000238   1030000500030000   598320001401000015172200014MAX ENERGY             PTN           MMR11003270838590002380327000000000000000   10300001 00104100000000000900000000000000     
100   95050313640946520000000000011150000000011150002000000010410403271017570002611416550327000337186490   1030000300030000   531100000598000000000000408CB BANK                CAPITAL HYPER MMR11003271017570002610327000000000000000   10300001F00104100000000002676000000000000     
100   95050316348780660000000000088600000000088600002000000010410403271256470044126763830327000744774237   1030000200030000   596588000900000008000000712KBZ BANK               AK CONCEPT SH MMR11003271256470044120327000000000000000   10300001 00104100000000021264000000000000     
100   62443101006037900000000000032000000000032000002000000010410403271200000036454090190327000337199714   1030000300030000   806200000197000000000000097CB BANK                AUNG YADANA H MMR11003271200000036450327000000000000000   10300001F00104100000000007680000000000000     
100   62911028202463030000000000040000000000040000002000000010410403280628555962714052100328481151524086   1030000300030000   555510122556104519000018875VNC Fashion Taw Win Ce ter           MMR11003280628555962710328000000000000000   10300001 00104100000000002400000000000000     
100   95030301100121270000000000042000000000042000002000000010410403271119417505904052100327208618750590   1040001600030000   598320000917000000010000665MMTM - Thingangyun     Ygn           MMR11003271119417505900327000000000000000   10300001F00104100000000001260000000000000     
100   62443100371022130000000000045000000000045000002000000010410403280954025972650659980328764221608086   1030000300030000   888810125458104519000021285Shwe Taung Energy CoLt               MMR11003280954025972650328000000000000000   10300001 00104100000000005400000000000000     
100   62911028202225440000000000001600000000001600002000000010410403281014555977584052100328422531644086   1030000500030000   555610110576104519000009164City Mart China Town P int Cen       MMR11003281014555977580328000000000000000   10300001 00104100000000000096000000000000     
100   62911028202449440000000000064500000000064500002000000010410403280900185968964052100328305571512086   1030000500030000   555610122578104519000018896City Mart Hlaing Thar  ar            MMR11003280900185968960328000000000000000   10300001 00104100000000003870000000000000     
100   62911028202072060000000000005500000000005500002000000010410403280950455972484052100328741201639086   1030000300030000   444410123123104519000019377YKKO Sanchaung                       MMR11003280950455972480328000000000000000   10300001 00104100000000000561000000000000     
100   62911028202807400000000000141400000000141400002000000010410403281107235983944052100328370361736086   1030000300030000   555510124685104519000020166Makro Myanmar                        MMR11003281107235983940328000000000000000   10300001 00104100000000008484000000000000     
100   95030301100196920000000000051300000000051300002000000010410403280709427353964052100328359391342086   1030000900030000   541119001347190110000000977Ocean PZD C 1          YANGONAUNG    MMR11003280709427353960328000000000000000   10300001F00104100000000003078000000000000     
100   62911028202443570000000000027384000000027384002000000010410403280845477376474052100328639151547086   1030000900030000   541119000176190110000000086SeinGayHar (Hlaing Tha YANGONTHARYA  MMR11003280845477376470328000000000000000   10300001F00104100000000001643000000000000     
100   95030356977005070000000000159000000000159000002000000010410403280649537979784052100328208713797978   1040001600030000   591220000303000000010000291Shwe Ohh Pharmacy (Kyu Yangon        MMR11003280649537979780328000000000000000   10300001F00104100000000009540000000000000     
100   62911028202527490000000000059000000000059000002000000010410403280417257898214052100328208711789821   1040001600030000   591220000291000000010000279Shwe Ohh Pharmacy (Sou Yangon        MMR11003280417257898210328000000000000000   10300001F00104100000000003540000000000000     
100   95050315150726490000000000006200000000006200002000000010410403280907107381636753620328942371510086   1030000900030000   541119000116190110000000078Sein Gay Har Kan Thar  YANGONOKKALAP MMR11003280907107381630328000000000000000   10300001F00104100000000001550000000000000     
100   62911028202104650000000000113000000000113000002000000010410403280459107321274052100328405291110086   1030000900030000   554119001101190110000000213New Day Energy SOK     YANGONOKKALAP MMR11003280459107321270328000000000000000   10300001F00104100000000003390000000000000     
100   95050324411430900000000000029000000000029000002000000010410403250350030042285128490325208403004228   1030000600030000   554100002085315799420000471DENKO BAHAN            YANGON        MMR11003250350030042280325000000000000000   10300001 00104100000000003480000000000000     
100   62911028202527150000000000130000000000130000002000000010410403250805060047994052100325208408004799   1030000600030000   806200002188315799420001535ASIA ROYAL HOSPITAL    YANGON        MMR11003250805060047990325000000000000000   10300001 00104100000000007800000000000000     
100   62911028202393160000000000020000000000020000002000000010410403251204540081564052100325208412008156   1030000600030000   554100001218315799420000670DENKO MAWLAMYAING      MON STATE.    MMR11003251204540081560325000000000000000   10300001 00104100000000000600000000000000     
100   62443101053241940000000000057000000000057000002000000010410403250959200745185813980325208409074518   1030000600030000   554100000946315799420000471DENKO BAHAN            YANGON        MMR11003250959200745180325000000000000000   10300001 00104100000000006840000000000000     
100   95050314557307430000000000002940000000002940002000000010410403280630240024383676370328000006886481   1020000200030000   333400010001204104000000281Myanmar Soft-Gate Tech Yangon        MMR11003280630240024380328000000000000000   10300001F05104100000000000617000000000000     
100   62911028202163480000000000324000000000324000002000000010410403280710000011924052100328000744820360   1030000200030000   569988000807000008000004620KBZ BANK               STJ-BLAZON    MMR11003280710000011920328000000000000000   10300001 00104100000000019440000000000000     
100   95030322371504830000000000009500000000009500002000000010410403281238520011714052100328000744816681   1030000200030000   541188001479000008000000399KBZ BANK               OCEAN SUPERCE MMR11003281238520011710328000000000000000   10300001 00104100000000000570000000000000     
100   62911028202161240000000000042400000000042400002000000010410403281411220045314052100328000744822221   1030000200030000   541188001006000008000000008KBZ BANK               MARKETPLACE - MMR11003281411220045310328000000000000000   10300001 00104100000000002544000000000000     
100   62911028202443570000000000017466000000017466002000000010410403280850007377394052100328693201500086   1030000900030000   541119000176190110000000086SeinGayHar (Hlaing Tha YANGONTHARYA  MMR11003280850007377390328000000000000000   10300001F00104100000000001048000000000000     
100   62443100357925510000000000008200000000008200002000000010410403281021047400514901010328076511604086   1030000900030000   541119000882190110000000084Pro (1) Global (Pazund YANGONARTAUNG MMR11003281021047400510328000000000000000   10300001F00104100000000002050000000000000     
100   62443100317500820000000000013300000000013300002000000010410403280450287913345392080328208711791334   1040001600030000   591220000288000000010000276Shwe Ohh Pharmacy (Nor Yangon        MMR11003280450287913340328000000000000000   10300001F00104100000000003192000000000000     
100   62911028202527490000000000029000000000029000002000000010410403280459377321404052100328413291137086   1030000900030000   541119001262190110000000958City Mart PLST C 5     YANGONMYOTHIT MMR11003280459377321400328000000000000000   10300001F00104100000000001740000000000000     
100   95050310553090700000000000014350000000014350002000000010410403280750027363121093530328869201402086   1030000900030000   541119000123190110000000080Sein Gay Har BAK       YANGON        MMR11003280750027363120328000000000000000   10300001F00104100000000003588000000000000     
100   62911028202019440000000000028186000000028186002000000010410403281028337402764052100328243581633086   1030000900030000   541119001260190110000000958City Mart PLST C 3     YANGONMYOTHIT MMR11003281028337402760328000000000000000   10300001F00104100000000001691000000000000     
100   95050315430281830000000000031703000000031703002000000010410403280845077376277568930328629151507086   1030000900030000   581219000718190110000000549Chilli Pot Mala Xiang  YANGONUT      MMR11003280845077376270328000000000000000   10300001F00104100000000013474000000000000     
100   95050314020354280000000000007800000000007800002000000010410403280908387381990143690328964381538086   1030000900030000   541119000116190110000000078Sein Gay Har Kan Thar  YANGONOKKALAP MMR11003280908387381990328000000000000000   10300001F00104100000000001950000000000000     
