100   62911028202285170000000000018750000000018750002000000010410403291115156095384052100329675431737087   1030000500030000   555610104045104519000003821City Mart North Point  enter         MMR11003291115156095380329000000000000000   10300001 00104100000000001125000000000000     
100   95030321939721770000000000000980000000000980002000000010410403291207273727854052100329000006895982   1020000200030000   333400010001204104000000281Myanmar Soft-Gate Tech Yangon        MMR11003291207273727850329000000000000000   10300001F05104100000000000206000000000000     
100   95050323722449090000000000004409000000004409002000000010410403291010124012449835600329000006895253   1020000200030000   333400010001204104000000281Myanmar Soft-Gate Tech Yangon        MMR11003291010124012440329000000000000000   10300001F05104100000000000926000000000000     
100   95030301100338180000000000300000000000300000002000000010410403291020455045854052100329000006895333   1030000200030000   333800010001203104000003327KBZPay                 Yangon        MMR11003291020455045850329000000000000000   10300001F05104100000000063000000000000000     
100   95050323233042810000000000000980000000000980002000000010410403281725255525123113980329000006890280   1020000200030000   333400010001204104000000281Myanmar Soft-Gate Tech Yangon        MMR11003281725255525120329000000000000000   10300001F05104100000000000206000000000000     
100   62911028202370470000000000002940000000002940002000000010410403290929305930084052100329000006894957   1020000200030000   333400010001204104000000281Myanmar Soft-Gate Tech Yangon        MMR11003290929305930080329000000000000000   10300001F05104100000000000617000000000000     
100   95050318141561190000000000050000000000050000002000000010410403290727185718442473590329000006893951   1030000200030000   333800010001203104000003327KBZPay                 Yangon        MMR11003290727185718440329000000000000000   10300001F05104100000000010500000000000000     
100   95050324622440820000000000036676000000036676002000000010410403290648326058328851090329545171307087   1030000500030000   555610110599104519000009166City Mart 47 Branch                  MMR11003290648326058320329000000000000000   10300001 00104100000000009169000000000000     
100   62443100303702210000000000048700000000048700002000000010410403270310540421015160790327208603042101   1030000600030000   554100001756315799420001137DENKO NORTH DAGON 2    YANGON        MMR11003270310540421010327000000000000000   10300001 00104100000000005844000000000000     
100   95050321232876860000000000047500000000047500002000000010410403271039470333504891710327208610033350   1030000600030000   554100001865315799420001235DENKO NAY PYI TAW 2    NAYPYITAW     MMR11003271039470333500327000000000000000   10300001 00104100000000005700000000000000     
100   95030306100103570000000000028000000000028000002000000010410403271107190700434052100327208611070043   1030000600030000   554100000955315799420000477DENKO INSEIN           YANGON        MMR11003271107190700430327000000000000000   10300001 00104100000000000840000000000000     
100   95050324133333980000000000008000000000008000002000000010410403270039390420632841320327208600042063   1030000600030000   554100001756315799420001137DENKO NORTH DAGON 2    YANGON        MMR11003270039390420630327000000000000000   10300001 00104100000000000960000000000000     
100   62911028202248050000000000033000000000033000002000000010410403290213496028304052100329621430833087   1030000300030000   888810125460104519000021287Shwe Taung Energy CoLt               MMR11003290213496028300329000000000000000   10300001 00104100000000000990000000000000     
100   95030301100332300000000000002000000000002000002000000010410403290343001300184052100329000006891891   1030000200030000   333800010001203104000003327KBZPay                 Yangon        MMR11003290343001300180329000000000000000   10300001F05104100000000000420000000000000     
100   62911028202417260000000000034000000000034000002000000010410403280443570139674052100328208704013967   1030000600030000   809900000541315799420000147GRAND HANTHA HOSPITAL  YANGON        MMR11003280443570139670328000000000000000   10300001 00104100000000002040000000000000     
100   62911028202906570000000000047500000000047500002000000010410403290806186068774052100329960361445087   1030000300030000   555510124692104519000020166Makro Myanmar                        MMR11003290806186068770329000000000000000   10300001 00104100000000002850000000000000     
100   62443101057131720000000000030200000000030200002000000010410403290941056081870552020329781081651087   1030000500030000   555610112249104519000010487Ocean Super Center St  ohn           MMR11003290941056081870329000000000000000   10300001 00104100000000007550000000000000     
100   95050327883696130000000000050000000000050000002000000010410403290410334033183701580329000006892165   1030000200030000   333800010001203104000003327KBZPay                 Yangon        MMR11003290410334033180329000000000000000   10300001F05104100000000010500000000000000     
100   62911028202764900000000000205000000000205000002000000010410403291228305830824052100329000006896128   1030000200030000   333800010001203104000003327KBZPay                 Yangon        MMR11003291228305830820329000000000000000   10300001F05104100000000043050000000000000     
100   62443101057131720000000000212050000000212050002000000010410403290816436070441913560329193481452087   1030000500030000   555610112234104519000010487Ocean Super Center St  ohn           MMR11003290816436070440329000000000000000   10300001 00104100000000053013000000000000     
100   95050323722449090000000000004900000000004900002000000010410403291007153715404282470329000006895233   1020000200030000   333400010001204104000000281Myanmar Soft-Gate Tech Yangon        MMR11003291007153715400329000000000000000   10300001F05104100000000001029000000000000     
100   95030370087325670000000000300000000000300000002000000010410403291622165216574052100329000006897292   1030000200030000   333800010001203104000003327KBZPay                 Yangon        MMR11003291622165216570329000000000000000   10300001F05104100000000063000000000000000     
100   95050324411430900000000000374000000000374000002000000010410403290754456066854381360329707221451087   1030000300030000   555510114689104519000012636Win Mobile                           MMR11003290754456066850329000000000000000   10300001 00104100000000089760000000000000     
100   95030301100354740000000000020000000000020000002000000010410403291614394439354052100329000006897261   1030000200030000   333800010001203104000003327KBZPay                 Yangon        MMR11003291614394439350329000000000000000   10300001F05104100000000004200000000000000     
100   95050313145843230000000000100000000000100000002000000010410403291049501950652325260329000006895520   1030000200030000   333800010001203104000003327KBZPay                 Yangon        MMR11003291049501950650329000000000000000   10300001F05104100000000021000000000000000     
100   95050321232876860000000000057005000000057005002000000010410403270303490080337068560327208603008033   1030000600030000   554100002328315799420001235DENKO NAY PYI TAW 2    NAYPYITAW     MMR11003270303490080330327000000000000000   10300001 00104100000000006841000000000000     
100   95030301100332300000000000300000000000300000002000000010410403291049031903904052100329000006895517   1030000200030000   333800010001203104000003327KBZPay                 Yangon        MMR11003291049031903900329000000000000000   10300001F05104100000000063000000000000000     
100   62911028202722750000000000084000000000084000002000000010410403280334120000074052100328208710000007   1030000500030000   503920036906017205039200369PRO-1 HOME CENTER      PTN           MMR11003280334120000070328000000000000000   10300001 00104100000000005040000000000000     
100   62443100390038980000000000070000000000070000002000000010410403280508240053509874610328208705005350   1030000600030000   554100001226315799420000679DENKO MAGWAY - 2       MAGWAY        MMR11003280508240053500328000000000000000   10300001 00104100000000008400000000000000     
100   95030308100042590000000000111000000000111000002000000010410403280959090001994052100328208716000199   1030000500030000   598320001702000015172200017MAX ENERGY             PTN           MMR11003280959090001990328000000000000000   10300001 00104100000000003330000000000000     
100   95050316997303010000000000001960000000001960002000000010410403291355212521717238980329000006896610   1020000200030000   333400010001204104000000281Myanmar Soft-Gate Tech Yangon        MMR11003291355212521710329000000000000000   10300001F05104100000000000412000000000000     
100   95050315615561720000000000000980000000000980002000000010410403290452342234332510230329000006892605   1020000200030000   333400010001204104000000281Myanmar Soft-Gate Tech Yangon        MMR11003290452342234330329000000000000000   10300001F05104100000000000206000000000000     
100   95050310608512070000000000001960000000001960002000000010410403290038230823559809020329000006890569   1020000200030000   333400010001204104000000281Myanmar Soft-Gate Tech Yangon        MMR11003290038230823550329000000000000000   10300001F05104100000000000412000000000000     
100   95050326228858240000000000069200000000069200002000000010410403251413500000709154600325208414000070   1030000600030000   581200002403315799420001675PARADISE HOTPOT TC     YANGON        MMR11003251413500000700325000000000000000   10300001 00104100000000029410000000000000     
100   95050319067144780000000000018600000000018600002000000010410403291000480044524837780329000744850367   1030000200030000   541188001440000008000000401KBZ BANK               OCEAN SUPERCE MMR11003291000480044520329000000000000000   10300001 00104100000000004650000000000000     
100   95030321128605110000000000113100000000113100002000000010410403290549240022904052100329000744859461   1030000200030000   599988000601000008000003442KBZ BANK               SWEETY HOME ( MMR11003290549240022900329000000000000000   10300001 00104100000000006786000000000000     
100   62443100315853220000000000071550000000071550002000000010410403291034170016638573940329000744852036   1030000200030000   541188001496000008000000399KBZ BANK               OCEAN SUPERCE MMR11003291034170016630329000000000000000   10300001 00104100000000017888000000000000     
100   62911028202463030000000000016700000000016700002000000010410403291230240013634052100329000744860232   1030000200030000   581288000950000008000004879KBZ BANK               PIZZA HUT RES MMR11003291230240013630329000000000000000   10300001 00104100000000001703000000000000     
100   62443100315853220000000000027255000000027255002000000010410403291020130020542680430329000744851287   1030000200030000   541188001485000008000000399KBZ BANK               OCEAN SUPERCE MMR11003291020130020540329000000000000000   10300001 00104100000000006814000000000000     
100   62911028202473840000000000008900000000008900002000000010410403291630390017104052100329000744874175   1030000200030000   541188001085000008000000294KBZ BANK               CITY MART - J MMR11003291630390017100329000000000000000   10300001 00104100000000000534000000000000     
100   95050319938772870000000000000980000000000980002000000010410403291611184118786267260329000006897253   1020000200030000   333400010001204104000000281Myanmar Soft-Gate Tech Yangon        MMR11003291611184118780329000000000000000   10300001F05104100000000000206000000000000     
100   95030370087325670000000000300000000000300000002000000010410403291623265326554052100329000006897298   1030000200030000   333800010001203104000003327KBZPay                 Yangon        MMR11003291623265326550329000000000000000   10300001F05104100000000063000000000000000     
100   95030363083688740000000000151000000000151000002000000010410403291022425242594052100329000006895346   1030000500030000   333800010001201104000003863AYA Pay                Yangon        MMR11003291022425242590329000000000000000   10300001F05104100000000031710000000000000     
100   95030301100338180000000000005000000000005000002000000010410403291019084908654052100329000006895323   1030000200030000   333800010001203104000003327KBZPay                 Yangon        MMR11003291019084908650329000000000000000   10300001F05104100000000001050000000000000     
100   95050319006804440000000000000980000000000980002000000010410403290917044704366069500329000006894838   1020000200030000   333400010001204104000000281Myanmar Soft-Gate Tech Yangon        MMR11003290917044704360329000000000000000   10300001F05104100000000000206000000000000     
100   62911028202533820000000000030000000000030000002000000010410403290542276052424052100329720321254087   1030000500030000   888810109467104519000008486Max Energy CoLtd 3                   MMR11003290542276052420329000000000000000   10300001 00104100000000000900000000000000     
100   62911028202661370000000000080500000000080500002000000010410403290729166063354052100329220571300087   1030000500030000   555610118965104519000016137City Mart South Okkala WZYD BR       MMR11003290729166063350329000000000000000   10300001 00104100000000004830000000000000     
100   62911028202140610000000000068100000000068100002000000010410403290748126066034052100329604171403087   1030000500030000   555610118967104519000016137City Mart South Okkala WZYD BR       MMR11003290748126066030329000000000000000   10300001 00104100000000004086000000000000     
100   62911028202461130000000000014750000000014750002000000010410403290705226061604052100329983431350087   1030000500030000   555610110576104519000009164City Mart China Town P int Cen       MMR11003290705226061600329000000000000000   10300001 00104100000000000885000000000000     
100   62911028202313470000000000012642000000012642002000000010410403290334086034754052100329446031023087   1030000500030000   555610110599104519000009166City Mart 47 Branch                  MMR11003290334086034750329000000000000000   10300001 00104100000000000759000000000000     
100   95030301100332300000000000020000000000020000002000000010410403291044041404484052100329000006895483   1030000200030000   333800010001203104000003327KBZPay                 Yangon        MMR11003291044041404480329000000000000000   10300001F05104100000000004200000000000000     
100   62911028202136750000000000062000000000062000002000000010410403280722100423164052100328208707042316   1030000600030000   554100001001315799420000498DENKO SHWE PYI THAR    YANGON        MMR11003280722100423160328000000000000000   10300001 00104100000000001860000000000000     
100   95050311382087030000000000037000000000037000002000000010410403291000353035526020050329000006895183   1030000200030000   333800010001203104000003327KBZPay                 Yangon        MMR11003291000353035520329000000000000000   10300001F05104100000000007770000000000000     
100   95030301100124400000000000002700000000002700002000000010410403291050067631364052100329952201706087   1030000900030000   541119001272190110000000960City Mart PLST Season  YANGONMYOTHIT MMR11003291050067631360329000000000000000   10300001F00104100000000000162000000000000     
100   62443100350052510000000000069185000000069185002000000010410403260800200027352901090326208508002735   1030000600030000   581200000714315799420000296IPPUDO RAMEN JS        YANGON        MMR11003260800200027350326000000000000000   10300001 00104100000000029404000000000000     
100   95050317743858310000000000014850000000014850002000000010410403290232066030031241870329885120908087   1030000500030000   555610110570104519000009164City Mart China Town P int Cen       MMR11003290232066030030329000000000000000   10300001 00104100000000003713000000000000     
100   62443100399918110000000000031578000000031578002000000010410403291333240002735438170329000744864119   1030000200030000   541188001079000008000000294KBZ BANK               CITY MART - J MMR11003291333240002730329000000000000000   10300001 00104100000000007895000000000000     
100   95030333478847140000000000027401000000027401002000000010410403291239590017324052100329000744860948   1030000200030000   541188001468000008000000391KBZ BANK               OCEAN SUPER C MMR11003291239590017320329000000000000000   10300001 00104100000000001644000000000000     
100   95050314287403810000000000000980000000000980002000000010410403291240141014262465510329000006896211   1020000200030000   333400010001204104000000281Myanmar Soft-Gate Tech Yangon        MMR11003291240141014260329000000000000000   10300001F05104100000000000206000000000000     
100   62911028202232370000000000005000000000005000002000000010410403291242001200034052100329000006896223   1030000200030000   333800010001203104000003327KBZPay                 Yangon        MMR11003291242001200030329000000000000000   10300001F05104100000000001050000000000000     
100   62911028202721270000000000300000000000300000002000000010410403291242001200574052100329000006896222   1030000200030000   333800010001203104000003327KBZPay                 Yangon        MMR11003291242001200570329000000000000000   10300001F05104100000000063000000000000000     
100   95050311077567400000000000002940000000002940002000000010410403291400193019717324080329000006896623   1020000200030000   333400010001204104000000281Myanmar Soft-Gate Tech Yangon        MMR11003291400193019710329000000000000000   10300001F05104100000000000617000000000000     
100   62443100301716860000000000000980000000000980002000000010410403291458022802200714140329000006896944   1020000200030000   333400010001204104000000281Myanmar Soft-Gate Tech Yangon        MMR11003291458022802200329000000000000000   10300001F05104100000000000206000000000000     
100   62911028202764900000000000050500000000050500002000000010410403291034370437644052100329000006895425   1030000200030000   333800010001203104000003327KBZPay                 Yangon        MMR11003291034370437640329000000000000000   10300001F05104100000000010605000000000000     
100   62911028202786290000000000060000000000060000002000000010410403291357112711134052100329000006896618   1030000200030000   333800010001203104000003327KBZPay                 Yangon        MMR11003291357112711130329000000000000000   10300001F05104100000000012600000000000000     
100   95030301100215990000000000200000000000200000002000000010410403291223065306214052100329000006896084   1030000200030000   333800010001203104000003327KBZPay                 Yangon        MMR11003291223065306210329000000000000000   10300001F05104100000000042000000000000000     
100   95050323233042810000000000000980000000000980002000000010410403291326575657504189300329000006896464   1020000200030000   333400010001204104000000281Myanmar Soft-Gate Tech Yangon        MMR11003291326575657500329000000000000000   10300001F05104100000000000206000000000000     
100   95050321685338790000000000090500000000090500002000000010410403290528566048598645250329198011210087   1030000300030000   555510114637104519000012589Win Mobile                           MMR11003290528566048590329000000000000000   10300001 00104100000000021720000000000000     
100   95030301100126970000000000022400000000022400002000000010410403290857066075834052100329006261534087   1030000500030000   555610110595104519000009166City Mart 47 Branch                  MMR11003290857066075830329000000000000000   10300001 00104100000000001344000000000000     
100   95030301100319860000000000300000000000300000002000000010410403291513374337614052100329000006897009   1030000200030000   333800010001203104000003327KBZPay                 Yangon        MMR11003291513374337610329000000000000000   10300001F05104100000000063000000000000000     
100   95050312498129060000000000004900000000004900002000000010410403290815034503186629520329000006894348   1020000200030000   333400010001204104000000281Myanmar Soft-Gate Tech Yangon        MMR11003290815034503180329000000000000000   10300001F05104100000000001029000000000000     
100   62911028202109290000000000019000000000019000002000000010410403290509127539294052100329386391112087   1030000900030000   569119001495190110000001089Next Generation GCS MP YANGON        MMR11003290509127539290329000000000000000   10300001F00104100000000001140000000000000     
100   62911028202221220000000000003300000000003300002000000010410403270203070030374052100327208602003037   1030000600030000   5499000022273157994200015671 STOP S M BOGYOKE RD  YANGON        MMR11003270203070030370327000000000000000   10300001 00104100000000000337000000000000     
100   62911028202243670000000000036700000000036700002000000010410403290919027604914052100329250491502087   1030000900030000   541119001261190110000000958City Mart PLST C 4     YANGONMYOTHIT MMR11003290919027604910329000000000000000   10300001F00104100000000002202000000000000     
100   62443100330108240000000000002940000000002940002000000010410403290927455745051537530329000006894937   1020000200030000   333400010001204104000000281Myanmar Soft-Gate Tech Yangon        MMR11003290927455745050329000000000000000   10300001F05104100000000000617000000000000     
100   95030301100354740000000000010000000000010000002000000010410403291044091409214052100329000006895485   1030000200030000   333800010001203104000003327KBZPay                 Yangon        MMR11003291044091409210329000000000000000   10300001F05104100000000002100000000000000     
100   62911028202112400000000000032000000000032000002000000010410403290950366083574052100329991191636087   1030000300030000   888810125458104519000021285Shwe Taung Energy CoLt               MMR11003290950366083570329000000000000000   10300001 00104100000000000960000000000000     
100   95030301100131580000000000010000000000010000002000000010410403291127185718194052100329000006895695   1030000200030000   333800010001203104000003327KBZPay                 Yangon        MMR11003291127185718190329000000000000000   10300001F05104100000000002100000000000000     
100   95050314307746340000000000000980000000000980002000000010410403291146581658024664230329000006895833   1020000200030000   333400010001204104000000281Myanmar Soft-Gate Tech Yangon        MMR11003291146581658020329000000000000000   10300001F05104100000000000206000000000000     
100   95030301100124400000000000003186000000003186002000000010410403291100297634754052100329208301729087   1030000900030000   541119001263190110000000958City Mart PLST C 6     YANGONMYOTHIT MMR11003291100297634750329000000000000000   10300001F00104100000000000191000000000000     
100   95030313499565480000000000001000000000001000002000000010410403290836430643824052100329000006894525   1030000200030000   333800010001203104000003327KBZPay                 Yangon        MMR11003290836430643820329000000000000000   10300001F05104100000000000210000000000000     
100   95030301100215990000000000300000000000300000002000000010410403291036450645764052100329000006895437   1030000200030000   333800010001203104000003327KBZPay                 Yangon        MMR11003291036450645760329000000000000000   10300001F05104100000000063000000000000000     
100   95030301100332300000000000300000000000300000002000000010410403291045511551794052100329000006895498   1030000200030000   333800010001203104000003327KBZPay                 Yangon        MMR11003291045511551790329000000000000000   10300001F05104100000000063000000000000000     
100   95050315099113150000000000001960000000001960002000000010410403290641341134561560380329000006893563   1020000200030000   333400010001204104000000281Myanmar Soft-Gate Tech Yangon        MMR11003290641341134560329000000000000000   10300001F05104100000000000412000000000000     
100   62911028202809140000000000200000000000200000002000000010410403291451452145264052100329000006896917   1030000500030000   333800010001201104000003863AYA Pay                Yangon        MMR11003291451452145260329000000000000000   10300001F05104100000000042000000000000000     
100   62911028202465350000000000014950000000014950002000000010410403291051490174894052100329000744853145   1030000200030000   541188001075000008000000294KBZ BANK               CITY MART - J MMR11003291051490174890329000000000000000   10300001 00104100000000000897000000000000     
100   95030301100338180000000000300000000000300000002000000010410403291330490049864052100329000006896498   1030000200030000   333800010001203104000003327KBZPay                 Yangon        MMR11003291330490049860329000000000000000   10300001F05104100000000063000000000000000     
100   95050319111666800000000000000980000000000980002000000010410403290833070307290686560329000006894498   1020000200030000   333400010001204104000000281Myanmar Soft-Gate Tech Yangon        MMR11003290833070307290329000000000000000   10300001F05104100000000000206000000000000     
100   62911028202181120000000000033250000000033250002000000010410403290236557507054052100329708060955087   1030000900030000   541119001262190110000000958City Mart PLST C 5     YANGONMYOTHIT MMR11003290236557507050329000000000000000   10300001F00104100000000001995000000000000     
100   95030320529939180000000000334750000000334750002000000010410403290350497521204052100329427201049087   1030000900030000   541119000162190110000000084Pro (1) Global (Pazund YANGONARTAUNG MMR11003290350497521200329000000000000000   10300001F00104100000000020085000000000000     
100   95050313970192050000000000005350000000005350002000000010410403291153156102543522320329650251829087   1030000500030000   555610112651104519000010846City Express MCS 34                  MMR11003291153156102540329000000000000000   10300001 00104100000000001338000000000000     
100   62911028202105070000000000018100000000018100002000000010410403291208416104264052100329876381828087   1030000500030000   555610114572104519000012532City Mart Ahlone Branc               MMR11003291208416104260329000000000000000   10300001 00104100000000001086000000000000     
100   62911028202507190000000000056300000000056300002000000010410403291130097642824052100329755001809087   1030000900030000   729819000945190110000000752SML Clinic             YANGON        MMR11003291130097642820329000000000000000   10300001F00104100000000003378000000000000     
100   62911028202169750000000000018550000000018550002000000010410403290220587504704052100329588500858087   1030000900030000   591219000503190110000000350Shwe Ohh Pharmacy (WZD YANGONNGKUUN  MMR11003290220587504700329000000000000000   10300001F00104100000000001113000000000000     
100   62911028202264610000000000078800000000078800002000000010410403290551447550684052100329011211244087   1030000900030000   541119000131190110000000083SeinGayHarParami Cente YANGON        MMR11003290551447550680329000000000000000   10300001F00104100000000004728000000000000     
100   95030317922148660000000000045000000000045000002000000010410403290942057611244052100329622121605087   1030000900030000   729819000768190110000000600Urban Beauty Studio    YANGON        MMR11003290942057611240329000000000000000   10300001F00104100000000002700000000000000     
100   95050311173010810000000000017500000000017500002000000010410403290637527563116432740329721071352087   1030000900030000   594219000084190110000000059Innwa Books            YANGONUT      MMR11003290637527563110329000000000000000   10300001F00104100000000004200000000000000     
100   95050316818236190000000000000980000000000980002000000010410403290953342334693686800329000006895136   1020000200030000   333400010001204104000000281Myanmar Soft-Gate Tech Yangon        MMR11003290953342334690329000000000000000   10300001F05104100000000000206000000000000     
100   95050316049877640000000000000980000000000980002000000010410403290316504650797717260329000006891629   1020000200030000   333400010001204104000000281Myanmar Soft-Gate Tech Yangon        MMR11003290316504650790329000000000000000   10300001F05104100000000000206000000000000     
100   95050315345734110000000000004900000000004900002000000010410403290701013101590395620329000006893720   1020000200030000   333400010001204104000000281Myanmar Soft-Gate Tech Yangon        MMR11003290701013101590329000000000000000   10300001F05104100000000001029000000000000     
100   95050317003064220000000000001960000000001960002000000010410403291245321532299160550329000006896240   1020000200030000   333400010001204104000000281Myanmar Soft-Gate Tech Yangon        MMR11003291245321532290329000000000000000   10300001F05104100000000000412000000000000     
100   62443101037081820000000000102150000000102150002000000010410403271422150000933670420327208614000093   1030000600030000   581200002403315799420001675PARADISE HOTPOT TC     YANGON        MMR11003271422150000930327000000000000000   10300001 00104100000000043414000000000000     
100   62911028202393160000000000030000000000030000002000000010410403270319380081954052100327208603008195   1030000600030000   554100001218315799420000670DENKO MAWLAMYAING      MON STATE.    MMR11003270319380081950327000000000000000   10300001 00104100000000000900000000000000     
100   95050314703432410000000000001000000000001000002000000010410403291330500050032621910329000006896499   1030000200030000   3338000100012031040000040022C2P (Myanmar) Co. Ltd Yangon        MMR11003291330500050030329000000000000000   10300001F05104100000000000210000000000000     
100   62911028202161240000000000016335000000016335002000000010410403291002040073974052100329000744850407   1030000200030000   541188001023000008000000298KBZ BANK               CITY MART - M MMR11003291002040073970329000000000000000   10300001 00104100000000000980000000000000     
100   95050314703432410000000000001000000000001000002000000010410403291332010201695926880329000006896503   1030000200030000   3338000100012031040000040022C2P (Myanmar) Co. Ltd Yangon        MMR11003291332010201690329000000000000000   10300001F05104100000000000210000000000000     
100   62911028202721270000000000110000000000110000002000000010410403291244011401104052100329000006896237   1030000200030000   333800010001203104000003327KBZPay                 Yangon        MMR11003291244011401100329000000000000000   10300001F05104100000000023100000000000000     
100   95050311926829590000000000000980000000000980002000000010410403290948561856854027180329000006895103   1020000200030000   333400010001204104000000281Myanmar Soft-Gate Tech Yangon        MMR11003290948561856850329000000000000000   10300001F05104100000000000206000000000000     
100   62911028202045260000000000029100000000029100002000000010410403291337000170084052100329000744864366   1030000200030000   541188001080000008000000294KBZ BANK               CITY MART - J MMR11003291337000170080329000000000000000   10300001 00104100000000001746000000000000     
100   62911028202045260000000000011000000000011000002000000010410403291346180175044052100329000744865044   1030000200030000   541188001075000008000000294KBZ BANK               CITY MART - J MMR11003291346180175040329000000000000000   10300001 00104100000000000660000000000000     
100   95030302100062270000000000019950000000019950002000000010410403290807010309044052100329000744847107   1030000200030000   541188001024000008000000298KBZ BANK               CITY MART - M MMR11003290807010309040329000000000000000   10300001 00104100000000001197000000000000     
100   95050313079290890000000000016497000000016497002000000010410403290231407506164206450329661010940087   1030000900030000   541119000113190110000000077Sein Gay Har Chinatown YANGON        MMR11003290231407506160329000000000000000   10300001F00104100000000004125000000000000     
100   95050310685238570000000000013500000000013500002000000010410403290232057506235944030329666020905087   1030000900030000   541119001462190110000000077Sein Gay Har Chinatown YANGON        MMR11003290232057506230329000000000000000   10300001F00104100000000003375000000000000     
100   95030325264619140000000000047700000000047700002000000010410403290548527549854052100329968181252087   1030000900030000   591219000603190110000000443Shwe Ohh Pharmacy St-8 YANGON        MMR11003290548527549850329000000000000000   10300001F00104100000000002862000000000000     
100   62911028202126850000000000010700000000010700002000000010410403290348297520794052100329408181029087   1030000900030000   581219000715190110000000546Akkhaya Tea House(Dago YANGON        MMR11003290348297520790329000000000000000   10300001F00104100000000001091000000000000     
100   62911028202169750000000000027550000000027550002000000010410403290611107556004052100329313411210087   1030000900030000   541119000144190110000000083SeinGayHarParami Cente YANGON        MMR11003290611107556000329000000000000000   10300001F00104100000000001653000000000000     
100   62911028202530280000000000050000000000050000002000000010410403291201177650284052100329266311817087   1030000900030000   554119000345190110000000212New Day Energy PZD     YANGONAUNG    MMR11003291201177650280329000000000000000   10300001F00104100000000001500000000000000     
100   95030302100067550000000000040500000000040500002000000010410403291150417647794052100329099201841087   1030000900030000   591219000504190110000000351Shwe Ohh Pharmacy - (Y YANGONAW      MMR11003291150417647790329000000000000000   10300001F00104100000000002430000000000000     
100   62911028202154800000000000005000000000005000002000000010410403290304267511934052100329951340926087   1030000900030000   541119001272190110000000960City Mart PLST Season  YANGONMYOTHIT MMR11003290304267511930329000000000000000   10300001F00104100000000000300000000000000     
100   62443100355903280000000000003000000000003000002000000010410403291146591659199621680329000006895835   1030000200030000   3334000100012031040000040102C2P (Myanmar) Co. Ltd Yangon        MMR11003291146591659190329000000000000000   10300001F05104100000000000630000000000000     
100   62911028202662690000000004379208000004379208002000000010410403290439070907034052100329000006892468   1010000100030000   333500010001212104000002535Internal Revenue Depar Yangon        MMR11003290439070907030329000000000000000   10300001F05104100000000060000000000000000     
100   95050315005801680000000000002940000000002940002000000010410403281755092509838071440329000006890338   1020000200030000   333400010001204104000000281Myanmar Soft-Gate Tech Yangon        MMR11003281755092509830329000000000000000   10300001F05104100000000000617000000000000     
100   95050325139996190000000000003300000000003300002000000010410403290254432443742724150329000006891354   1030000200030000   333300010001203104000003632Myanmar Tradenet Test  Yangon        MMR11003290254432443740329000000000000000   10300001F05104100000000010000000000000000     
100   95030301100338420000000000300000000000300000002000000010410403291202533253824052100329000006895945   1030000200030000   333800010001203104000003327KBZPay                 Yangon        MMR11003291202533253820329000000000000000   10300001F05104100000000063000000000000000     
100   62911028202232370000000000005000000000005000002000000010410403291204083408804052100329000006895956   1030000200030000   333800010001203104000003327KBZPay                 Yangon        MMR11003291204083408800329000000000000000   10300001F05104100000000001050000000000000     
100   62911028202777790000000000011000000000011000002000000010410403291343201320454052100329000006896562   1030000200030000   333800010001203104000003327KBZPay                 Yangon        MMR11003291343201320450329000000000000000   10300001F05104100000000002310000000000000     
100   95050318741700180000000000000980000000000980002000000010410403291148071807727969190329000006895846   1020000200030000   333400010001204104000000281Myanmar Soft-Gate Tech Yangon        MMR11003291148071807720329000000000000000   10300001F05104100000000000206000000000000     
100   62911028202154800000000000025000000000025000002000000010410403290931327608404052100329453011632087   1030000900030000   554119001103190110000000215New Day Energy MYG     YANGONONE     MMR11003290931327608400329000000000000000   10300001F00104100000000000750000000000000     
100   62911028202154800000000000023000000000023000002000000010410403290300367511144052100329909300936087   1030000900030000   541119001262190110000000958City Mart PLST C 5     YANGONMYOTHIT MMR11003290300367511140329000000000000000   10300001F00104100000000001380000000000000     
100   95050313240335680000000000004850000000004850002000000010410403290226057505375178160329620560805087   1030000900030000   591219000601190110000000441Shwe Ohh Pharmacy St-3 YANGON        MMR11003290226057505370329000000000000000   10300001F00104100000000001164000000000000     
100   62911028202169750000000000022000000000022000002000000010410403290549177549944052100329975191217087   1030000900030000   541119000131190110000000083SeinGayHarParami Cente YANGON        MMR11003290549177549940329000000000000000   10300001F00104100000000001320000000000000     
100   62911028202222620000000000008100000000008100002000000010410403291006447618154052100329059361644087   1030000900030000   541119001462190110000000077Sein Gay Har Chinatown YANGON        MMR11003291006447618150329000000000000000   10300001F00104100000000000486000000000000     
100   95050320205194540000000000041750000000041750002000000010410403291108567637071018870329357381756087   1030000900030000   541119001266190110000000958City Mart PLST C9      YANGONMYOTHIT MMR11003291108567637070329000000000000000   10300001F00104100000000010438000000000000     
100   62911028202282930000000000014100000000014100002000000010410403290532547545824052100329755021254087   1030000900030000   541119000286190110000000177Pro1 Global (Insein)   YANGON        MMR11003290532547545820329000000000000000   10300001F00104100000000000846000000000000     
100   62911028202193830000000000039700000000039700002000000010410403291042367628854052100329770121736087   1030000900030000   541119000130190110000000082Sein Gay Har Super Cen YANGON        MMR11003291042367628850329000000000000000   10300001F00104100000000002382000000000000     
100   95050315099113150000000000002940000000002940002000000010410403290645111511596602930329000006893582   1020000200030000   333400010001204104000000281Myanmar Soft-Gate Tech Yangon        MMR11003290645111511590329000000000000000   10300001F05104100000000000617000000000000     
100   62911028202446700000000000130000000000130000002000000010410403290745121512584052100329000006894110   1030000200030000   333800010001203104000003327KBZPay                 Yangon        MMR11003290745121512580329000000000000000   10300001F05104100000000027300000000000000     
100   95050316818236190000000000000980000000000980002000000010410403290753272327689764290329000006894173   1020000200030000   333400010001204104000000281Myanmar Soft-Gate Tech Yangon        MMR11003290753272327680329000000000000000   10300001F05104100000000000206000000000000     
100   95050324411430900000000000011800000000011800002000000010410403291609430074461693930329000744873105   1030000200030000   541188001023000008000000298KBZ BANK               CITY MART - M MMR11003291609430074460329000000000000000   10300001 00104100000000002950000000000000     
100   95030301100216560000000000002940000000002940002000000010410403290754502450054052100329000006894183   1020000200030000   333400010001204104000000281Myanmar Soft-Gate Tech Yangon        MMR11003290754502450050329000000000000000   10300001F05104100000000000617000000000000     
100   95030353051876670000000000150000000000150000002000000010410403291151342134184052100329000006895867   1030000200030000   333800010001203104000003327KBZPay                 Yangon        MMR11003291151342134180329000000000000000   10300001F05104100000000031500000000000000     
100   95050316818236190000000000000980000000000980002000000010410403291159042904153607420329000006895905   1020000200030000   333400010001204104000000281Myanmar Soft-Gate Tech Yangon        MMR11003291159042904150329000000000000000   10300001F05104100000000000206000000000000     
100   62911028202679290000000000300000000000300000002000000010410403291043231323004052100329000006895474   1030000200030000   333800010001203104000003327KBZPay                 Yangon        MMR11003291043231323000329000000000000000   10300001F05104100000000063000000000000000     
100   95030399304534290000000000071400000000071400002000000010410403290342477519484052100329328121047087   1030000900030000   541119001207190110000000948City Mart YK C 5       YANGONAUNG    MMR11003290342477519480329000000000000000   10300001F00104100000000004284000000000000     
100   95030301100338420000000000018200000000018200002000000010410403290536297546894052100329816061229087   1030000900030000   541119001079190110000000872Sein Gay Har Hledan    YANGONUT      MMR11003290536297546890329000000000000000   10300001F00104100000000001092000000000000     
100   95030392891915960000000000073300000000073300002000000010410403291108398755054052100329208818875505   1040001600030000   541120000575000000010000465Ocean Shwe Gone Daing  Yangon        MMR11003291108398755050329000000000000000   10300001F00104100000000004398000000000000     
100   62911028202260160000000000041050000000041050002000000010410403290747018638504052100329208814863850   1040001600030000   591220000626000000010000497AAA Pharmacy           Ygn           MMR11003290747018638500329000000000000000   10300001F00104100000000002463000000000000     
100   62443100379321630000000000078000000000078000002000000010410403290250198496529589380329208809849652   1040001600030000   598320000658000000010000527Shwe Taung Energy (YGN Yangon        MMR11003290250198496520329000000000000000   10300001F00104100000000009360000000000000     
100   62911028202243420000000000007000000000007000002000000010410403290928038684274052100329208816868427   1040001600030000   581420000098000000010000094Cha Tra Mue (Pinlon)   Yangon        MMR11003290928038684270329000000000000000   10300001F00104100000000000210000000000000     
100   62911028202169750000000000004800000000004800002000000010410403290429068536164052100329208811853616   1040001600030000   541120000561000000010000465Ocean Shwe Gone Daing  Yangon        MMR11003290429068536160329000000000000000   10300001F00104100000000000288000000000000     
100   62911028202133520000000000006100000000006100002000000010410403291209037652074052100329388391803087   1030000900030000   541119001189190110000000942City Mart HDC C 4      YANGONUT      MMR11003291209037652070329000000000000000   10300001F00104100000000000366000000000000     
100   95030367537085740000000000002940000000002940002000000010410403291256362636174052100329000006896311   1020000200030000   333400010001204104000000281Myanmar Soft-Gate Tech Yangon        MMR11003291256362636170329000000000000000   10300001F05104100000000000617000000000000     
100   95050318131043910000000000004900000000004900002000000010410403290852332233941112040329000006894643   1020000200030000   333400010001204104000000281Myanmar Soft-Gate Tech Yangon        MMR11003290852332233940329000000000000000   10300001F05104100000000001029000000000000     
100   95050315150726490000000000000980000000000980002000000010410403291350042004339316950329000006896589   1020000200030000   333400010001204104000000281Myanmar Soft-Gate Tech Yangon        MMR11003291350042004330329000000000000000   10300001F05104100000000000206000000000000     
100   62911028202492160000000000070150000000070150002000000010410403291311160117564052100329000744862781   1030000200030000   541188001056000008000000314KBZ BANK               MARKETPLACE - MMR11003291311160117560329000000000000000   10300001 00104100000000004209000000000000     
100   62911028202078000000000000200000000000200000002000000010410403291031390139044052100329000006895411   1030000200030000   333800010001203104000003327KBZPay                 Yangon        MMR11003291031390139040329000000000000000   10300001F05104100000000042000000000000000     
100   95030301100338180000000000100000000000100000002000000010410403291332110211344052100329000006896507   1030000200030000   333800010001203104000003327KBZPay                 Yangon        MMR11003291332110211340329000000000000000   10300001F05104100000000021000000000000000     
100   95050311780044340000000000120000000000120000002000000010410403290435090509815304620329000006892427   1030000200030000   333800010001203104000003327KBZPay                 Yangon        MMR11003290435090509810329000000000000000   10300001F05104100000000025200000000000000     
100   62911028202809140000000000300000000000300000002000000010410403291438200820954052100329000006896830   1030000500030000   333800010001201104000003863AYA Pay                Yangon        MMR11003291438200820950329000000000000000   10300001F05104100000000063000000000000000     
100   95030301100170760000000000019050000000019050002000000010410403291110428757114052100329208818875711   1040001600030000   541120000575000000010000465Ocean Shwe Gone Daing  Yangon        MMR11003291110428757110329000000000000000   10300001F00104100000000001143000000000000     
100   95050325925517520000000000046300000000046300002000000010410403291026088720306772130329208817872030   1040001600030000   591220000285000000010000273Shwe Ohh Pharmacy (47t Yangon        MMR11003291026088720300329000000000000000   10300001F00104100000000011112000000000000     
100   62911028202499270000000000021200000000021200002000000010410403291018528714964052100329208817871496   1040001600030000   591220000301000000010000289Shwe Ohh Pharmacy (Yay Yangon        MMR11003291018528714960329000000000000000   10300001F00104100000000001272000000000000     
100   62911028202440680000000000014300000000014300002000000010410403291217448817714052100329208819881771   1040001600030000   592120000400000000010000377Bo 1000 Fine Wines & L Yangon        MMR11003291217448817710329000000000000000   10300001F00104100000000000858000000000000     
100   62911028202537390000000000080000000000080000002000000010410403280447120003494052100328208711000349   1030000500030000   598320001001000015172200010MAX ENERGY             PTN           MMR11003280447120003490328000000000000000   10300001 00104100000000002400000000000000     
100   62911028202218270000000000040150000000040150002000000010410403291027548721744052100329208817872174   1040001600030000   591220000296000000010000284Shwe Ohh Pharmacy (Lan Yangon        MMR11003291027548721740329000000000000000   10300001F00104100000000002409000000000000     
100   95050324104751500000000000095900000000095900002000000010410403291023188718189906900329208817871818   1040001600030000   591220000285000000010000273Shwe Ohh Pharmacy (47t Yangon        MMR11003291023188718180329000000000000000   10300001F00104100000000023016000000000000     
100   62911028202777610000000000095000000000095000002000000010410403260135550577374052100326208501057737   1030000600030000   554100000952315799420000474DENKO N.DAGON - 1      YANGON        MMR11003260135550577370326000000000000000   10300001 00104100000000002850000000000000     
100   95030301100338420000000000000500000000000500002000000010410403291137010701214052100329000006895776   1030000200030000   333800010001203104000003327KBZPay                 Yangon        MMR11003291137010701210329000000000000000   10300001F05104100000000000105000000000000     
100   62911028202910690000000000300000000000300000002000000010410403291045211521174052100329000006895495   1030000200030000   333800010001203104000003327KBZPay                 Yangon        MMR11003291045211521170329000000000000000   10300001F05104100000000063000000000000000     
100   95030301100332300000000000300000000000300000002000000010410403291050512051144052100329000006895524   1030000200030000   333800010001203104000003327KBZPay                 Yangon        MMR11003291050512051140329000000000000000   10300001F05104100000000063000000000000000     
100   95050313113158460000000000000980000000000980002000000010410403290933410341699871250329000006894993   1020000200030000   333400010001204104000000281Myanmar Soft-Gate Tech Yangon        MMR11003290933410341690329000000000000000   10300001F05104100000000000206000000000000     
100   62911028202057620000000000200000000000200000002000000010410403290549471947414052100329000006893126   1030000200030000   333800010001203104000003327KBZPay                 Yangon        MMR11003290549471947410329000000000000000   10300001F05104100000000042000000000000000     
100   95050314064416890000000000000980000000000980002000000010410403290041521152794851560329000006890574   1020000200030000   333400010001204104000000281Myanmar Soft-Gate Tech Yangon        MMR11003290041521152790329000000000000000   10300001F05104100000000000206000000000000     
100   95050317003064220000000000001960000000001960002000000010410403291241551155597422960329000006896215   1020000200030000   333400010001204104000000281Myanmar Soft-Gate Tech Yangon        MMR11003291241551155590329000000000000000   10300001F05104100000000000412000000000000     
100   62911028202910690000000000030000000000030000002000000010410403290955502550474052100329000006895154   1030000200030000   333800010001203104000003327KBZPay                 Yangon        MMR11003290955502550470329000000000000000   10300001F05104100000000006300000000000000     
100   62911028202112400000000000045000000000045000002000000010410403291007148706564052100329208817870656   1040001600030000   591220000282000000010000270Shwe Ohh Pharmacy (Shw Yangon        MMR11003291007148706560329000000000000000   10300001F00104100000000002700000000000000     
100   62911028202677390000000000070000000000070000002000000010410403290318138507544052100329208810850754   1040001600030000   598320000850000000010000606Terminal Petrol Statio Yangon        MMR11003290318138507540329000000000000000   10300001F00104100000000002100000000000000     
100   62911028202265290000000000007650000000007650002000000010410403290758478643384052100329208814864338   1040001600030000   591220000266000000010000254Shwe Ohh Pharmacy (Sin Yangon        MMR11003290758478643380329000000000000000   10300001F00104100000000000459000000000000     
100   95030316535481960000000000107400000000107400002000000010410403290649598613744052100329208813861374   1040001600030000   591220000282000000010000270Shwe Ohh Pharmacy (Shw Yangon        MMR11003290649598613740329000000000000000   10300001F00104100000000006444000000000000     
100   62911028202417000000000000027200000000027200002000000010410403291028508722314052100329208817872231   1040001600030000   591220000043000000010000041Mingalar Pharmacy      Yangon        MMR11003291028508722310329000000000000000   10300001F00104100000000001632000000000000     
100   62911028202023630000000000032000000000032000002000000010410403260125520087044052100326208501008704   1030000600030000   554100002324315799420000481DENKO NORTH OKKALAPA   YANGON        MMR11003260125520087040326000000000000000   10300001 00104100000000000960000000000000     
100   95050321232876860000000000073000000000073000002000000010410403260245150332146700600326208502033214   1030000600030000   554100001865315799420001235DENKO NAY PYI TAW 2    NAYPYITAW     MMR11003260245150332140326000000000000000   10300001 00104100000000008760000000000000     
100   62443100313002190000000000030000000000030000002000000010410403260608510420372000680326208506042037   1030000600030000   554100001001315799420000498DENKO SHWE PYI THAR    YANGON        MMR11003260608510420370326000000000000000   10300001 00104100000000003600000000000000     
100   95050313123223200000000000000980000000000980002000000010410403291403033303255671590329000006896635   1020000200030000   333400010001204104000000281Myanmar Soft-Gate Tech Yangon        MMR11003291403033303250329000000000000000   10300001F05104100000000000206000000000000     
100   95050316818236190000000000002940000000002940002000000010410403281935140514486418950329000006890416   1020000200030000   333400010001204104000000281Myanmar Soft-Gate Tech Yangon        MMR11003281935140514480329000000000000000   10300001F05104100000000000617000000000000     
100   95050310427855490000000000001960000000001960002000000010410403290733420342948998430329000006894002   1020000200030000   333400010001204104000000281Myanmar Soft-Gate Tech Yangon        MMR11003290733420342940329000000000000000   10300001F05104100000000000412000000000000     
100   62911028202777790000000000007500000000007500002000000010410403291102423242174052100329000006895590   1030000200030000   333800010001203104000003327KBZPay                 Yangon        MMR11003291102423242170329000000000000000   10300001F05104100000000001575000000000000     
100   95050315743141220000000000000980000000000980002000000010410403290631140114586773130329000006893471   1020000200030000   333400010001204104000000281Myanmar Soft-Gate Tech Yangon        MMR11003290631140114580329000000000000000   10300001F05104100000000000206000000000000     
100   62911028202218270000000000016250000000016250002000000010410403291720570170334052100329000744876626   1030000200030000   541188001080000008000000294KBZ BANK               CITY MART - J MMR11003291720570170330329000000000000000   10300001 00104100000000000975000000000000     
100   95050314287403810000000000000980000000000980002000000010410403291242291229155855580329000006896229   1020000200030000   333400010001204104000000281Myanmar Soft-Gate Tech Yangon        MMR11003291242291229150329000000000000000   10300001F05104100000000000206000000000000     
100   62911028202446700000000000300000000000300000002000000010410403290743151315854052100329000006894095   1030000200030000   333800010001203104000003327KBZPay                 Yangon        MMR11003290743151315850329000000000000000   10300001F05104100000000063000000000000000     
100   62443100390038980000000000200000000000200000002000000010410403260700520271236447560326208507027123   1030000600030000   554100001155315799420000607DENKO NPT 1            NAYPYITAW.    MMR11003260700520271230326000000000000000   10300001 00104100000000024000000000000000     
100   95030390626214130000000000030000000000030000002000000010410403260347430462814052100326208503046281   1030000600030000   554100000969315799420000481DENKO NORTH OKKALAPA   YANGON        MMR11003260347430462810326000000000000000   10300001 00104100000000000900000000000000     
100   95030301100125070000000000031500000000031500002000000010410403261041180139024052100326208510013902   1030000600030000   809900000541315799420000147GRAND HANTHA HOSPITAL  YANGON        MMR11003261041180139020326000000000000000   10300001 00104100000000001890000000000000     
100   95030301100126550000000000035000000000035000002000000010410403260858100747274052100326208508074727   1030000600030000   554100000946315799420000471DENKO BAHAN            YANGON        MMR11003260858100747270326000000000000000   10300001 00104100000000001050000000000000     
100   62911028202204070000000000060000000000060000002000000010410403260517520746564052100326208505074656   1030000600030000   554100000946315799420000471DENKO BAHAN            YANGON        MMR11003260517520746560326000000000000000   10300001 00104100000000001800000000000000     
100   95030301100081740000000000071000000000071000002000000010410403280501120000994052100328000337310007   1030000300030000   573200000991000000000000705CB BANK                UNIQUE MOBILE MMR11003280501120000990328000000000000000   10300001F00104100000000004260000000000000     
100   62911028202235910000000000085470000000085470002000000010410403280716400002894052100328208713000289   1030000500030000   581220063701000015812200637CHINESE 47             PTN           MMR11003280716400002890328000000000000000   10300001 00104100000000008718000000000000     
100   62911028202126850000000000075000000000075000002000000010410403280700000009024052100328208713000902   1030000500030000   598320001201000015172200012MAX ENERGY             PTN           MMR11003280700000009020328000000000000000   10300001 00104100000000002250000000000000     
100   95050328876009750000000000015000000000015000002000000010410403290519324932082921930329000006892838   1030000200030000   333800010001203104000003327KBZPay                 Yangon        MMR11003290519324932080329000000000000000   10300001F05104100000000003150000000000000     
100   62911028202520380000000000050000000000050000002000000010410403290259216031414052100329048270910087   1030000300030000   888810125458104519000021285Shwe Taung Energy CoLt               MMR11003290259216031410329000000000000000   10300001 00104100000000001500000000000000     
100   62911028202065050000000000110000000000110000002000000010410403291214434443884052100329000006896018   1030000200030000   333800010001203104000003327KBZPay                 Yangon        MMR11003291214434443880329000000000000000   10300001F05104100000000023100000000000000     
100   95030301100121680000000000003000000000003000002000000010410403290423295329564052100329000006892311   1030000200030000   333800010001203104000003327KBZPay                 Yangon        MMR11003290423295329560329000000000000000   10300001F05104100000000000630000000000000     
100   62443101057131720000000000029300000000029300002000000010410403290849276075099459560329885211538087   1030000500030000   555610112255104519000010487Ocean Super Center St  ohn           MMR11003290849276075090329000000000000000   10300001 00104100000000007325000000000000     
100   95030367537085740000000000000980000000000980002000000010410403290512304230834052100329000006892776   1020000200030000   333400010001204104000000281Myanmar Soft-Gate Tech Yangon        MMR11003290512304230830329000000000000000   10300001F05104100000000000206000000000000     
100   95050315250339200000000000000980000000000980002000000010410403291322265226769231850329000006896442   1020000200030000   333400010001204104000000281Myanmar Soft-Gate Tech Yangon        MMR11003291322265226760329000000000000000   10300001F05104100000000000206000000000000     
100   95030353051876670000000000005000000000005000002000000010410403291017314731544052100329000006895304   1030000200030000   333800010001203104000003327KBZPay                 Yangon        MMR11003291017314731540329000000000000000   10300001F05104100000000001050000000000000     
100   62911028202169750000000000007400000000007400002000000010410403280559220000284052100328208712000028   1030000500030000   591220012101014405912200121SHWE OHH PHARMACY      PTN           MMR11003280559220000280328000000000000000   10300001 00104100000000000444000000000000     
100   62443101037081820000000000156275000000156275002000000010410403280638300016510456490328208706001651   1030000600030000   569100000514315799420000134RENE MYANMAR CM        YANGON        MMR11003280638300016510328000000000000000   10300001 00104100000000037506000000000000     
100   95050328384000040000000000074700000000074700002000000010410403280752550000172831110328208714000017   1030000500030000   594420172601000015944201726VJM (PL)               PTN           MMR11003280752550000170328000000000000000   10300001 00104100000000017928000000000000     
100   62911028202655010000000000034001000000034001002000000010410403281004520003454052100328208716000345   1030000500030000   598320001601000015172200016MAX ENERGY             PTN           MMR11003281004520003450328000000000000000   10300001 00104100000000001020000000000000     
100   62911028202108460000000000045000000000045000002000000010410403280227140007684052100328208708000768   1030000500030000   598320001202000015172200012MAX ENERGY             PTN           MMR11003280227140007680328000000000000000   10300001 00104100000000001350000000000000     
100   62911028202417260000000000036500000000036500002000000010410403280556110001084052100328208712000108   1030000500030000   806220172406013008062201724GRAND HANTHA HOSPITAL  PTN           MMR11003280556110001080328000000000000000   10300001 00104100000000002190000000000000     
100   62911028202104650000000000110000000000110000002000000010410403281310560006554052100328208719000655   1030000500030000   598320001004000015172200010MAX ENERGY             PTN           MMR11003281310560006550328000000000000000   10300001 00104100000000003300000000000000     
100   95050320531117320000000000017000000000017000002000000010410403280809530003847944970328208714000384   1030000500030000   598320001001000015172200010MAX ENERGY             PTN           MMR11003280809530003840328000000000000000   10300001 00104100000000002040000000000000     
100   62911028202327330000000000013850000000013850002000000010410403290953216084464052100329114251640087   1030000500030000   555610112982104519000011143Market Place by City M rt Sule       MMR11003290953216084460329000000000000000   10300001 00104100000000000831000000000000     
100   62443100323117100000000000035000000000035000002000000010410403290616254625924439870329000006893357   1030000200030000   333800010001203104000003327KBZPay                 Yangon        MMR11003290616254625920329000000000000000   10300001F05104100000000007350000000000000     
100   95030370087325670000000000500000000000500000002000000010410403291626425642904052100329000006897308   1030000200030000   3338000100012031040000040022C2P (Myanmar) Co. Ltd Yangon        MMR11003291626425642900329000000000000000   10300001F05104100000000105000000000000000     
100   95030370087325670000000000300000000000300000002000000010410403291621195119854052100329000006897284   1030000200030000   333800010001203104000003327KBZPay                 Yangon        MMR11003291621195119850329000000000000000   10300001F05104100000000063000000000000000     
100   95050316818236190000000000000980000000000980002000000010410403290821225122316871020329000006894389   1020000200030000   333400010001204104000000281Myanmar Soft-Gate Tech Yangon        MMR11003290821225122310329000000000000000   10300001F05104100000000000206000000000000     
100   62911028202169750000000000000600000000000600002000000010410403290306156032124052100329139350924087   1030000500030000   555610118968104519000016137City Mart South Okkala WZYD BR       MMR11003290306156032120329000000000000000   10300001 00104100000000000036000000000000     
100   95050322104201170000000000043000000000043000002000000010410403291527555755975756690329000006897070   1030000200030000   333800010001203104000003327KBZPay                 Yangon        MMR11003291527555755970329000000000000000   10300001F05104100000000009030000000000000     
100   62911028202126850000000000150000000000150000002000000010410403291003156085334052100329259311652087   1030000300030000   555510124871104519000020166Makro Myanmar                        MMR11003291003156085330329000000000000000   10300001 00104100000000009000000000000000     
100   62443101006037900000000000010000000000010000002000000010410403280155440004676890300328208708000467   1030000500030000   598320001304000015172200013MAX ENERGY             PTN           MMR11003280155440004670328000000000000000   10300001 00104100000000001200000000000000     
100   62911028202287980000000000040000000000040000002000000010410403280154130010334052100328208708001033   1030000500030000   598320001902000015172200019MAX ENERGY             PTN           MMR11003280154130010330328000000000000000   10300001 00104100000000001200000000000000     
100   62911028202443730000000000020000000000020000002000000010410403280840010012384052100328208715001238   1030000500030000   598320001902000015172200019MAX ENERGY             PTN           MMR11003280840010012380328000000000000000   10300001 00104100000000000600000000000000     
100   62911028202485720000000000020000000000020000002000000010410403281116000000444052100328208717000044   1030000500030000   598320001203000015172200012MAX ENERGY             PTN           MMR11003281116000000440328000000000000000   10300001 00104100000000000600000000000000     
100   62911028202296630000000000469000000000469000002000000010410403280848240027054052100328208708002705   1030000600030000   509400000546315799420000148SHWE SAN EAIN J.C      YANGON        MMR11003280848240027050328000000000000000   10300001 00104100000000046900000000000000     
100   95050329252108030000000000010000000000010000002000000010410403281312080003792092830328208719000379   1030000500030000   598320041901000055983200419MAX ENERGY             PTN           MMR11003281312080003790328000000000000000   10300001 00104100000000001200000000000000     
100   95050329632900220000000000020000000000020000002000000010410403280420500005011060020328208710000501   1030000500030000   598320001301000015172200013MAX ENERGY             PTN           MMR11003280420500005010328000000000000000   10300001 00104100000000002400000000000000     
100   62443100379116470000000000166950000000166950002000000010410403280515230011537420600328208711001153   1030000500030000   581220044201022605812200442HOT POT CITY (AHLONE)  PTN           MMR11003280515230011530328000000000000000   10300001 00104100000000070954000000000000     
100   62911028202764900000000000300000000000300000002000000010410403291225055505554052100329000006896100   1030000200030000   333800010001203104000003327KBZPay                 Yangon        MMR11003291225055505550329000000000000000   10300001F05104100000000063000000000000000     
100   62443100330108240000000000002940000000002940002000000010410403290929255925136821580329000006894955   1020000200030000   333400010001204104000000281Myanmar Soft-Gate Tech Yangon        MMR11003290929255925130329000000000000000   10300001F05104100000000000617000000000000     
100   62911028202674810000000000010918000000010918002000000010410403290356096037134052100329743261031087   1030000500030000   555610110599104519000009166City Mart 47 Branch                  MMR11003290356096037130329000000000000000   10300001 00104100000000000655000000000000     
100   62911028202057620000000000211213000000211213002000000010410403291330466112054052100329856591946087   1030000500030000   555610112238104519000010487Ocean Super Center St  ohn           MMR11003291330466112050329000000000000000   10300001 00104100000000012673000000000000     
100   95050317003064220000000000000980000000000980002000000010410403291158132813251869830329000006895896   1020000200030000   333400010001204104000000281Myanmar Soft-Gate Tech Yangon        MMR11003291158132813250329000000000000000   10300001F05104100000000000206000000000000     
100   95050312867570630000000000015000000000015000002000000010410403290413424342652729870329000006892210   1030000500030000   333800010001201104000003863AYA Pay                Yangon        MMR11003290413424342650329000000000000000   10300001F05104100000000003150000000000000     
100   95050315330275830000000000009800000000009800002000000010410403290514484448919872250329000006892804   1020000200030000   333400010001204104000000281Myanmar Soft-Gate Tech Yangon        MMR11003290514484448910329000000000000000   10300001F05104100000000002058000000000000     
100   95050317176867660000000000001960000000001960002000000010410403290310424042529114460329000006891544   1020000200030000   333400010001204104000000281Myanmar Soft-Gate Tech Yangon        MMR11003290310424042520329000000000000000   10300001F05104100000000000412000000000000     
100   62911028202125290000000000040000000000040000002000000010410403280334160004354052100328208710000435   1030000500030000   598320001302000015172200013MAX ENERGY             PTN           MMR11003280334160004350328000000000000000   10300001 00104100000000001200000000000000     
100   62911028202481270000000000055101000000055101002000000010410403280351190005484052100328208710000548   1030000500030000   598320001404000015172200014MAX ENERGY             PTN           MMR11003280351190005480328000000000000000   10300001 00104100000000001653000000000000     
100   62911028202449440000000000091000000000091000002000000010410403280336130010744052100328208710001074   1030000500030000   598320001902000015172200019MAX ENERGY             PTN           MMR11003280336130010740328000000000000000   10300001 00104100000000002730000000000000     
100   62911028202595380000000000077100000000077100002000000010410403280646150002584052100328208713000258   1030000500030000   598320041902000055983200419MAX ENERGY             PTN           MMR11003280646150002580328000000000000000   10300001 00104100000000002313000000000000     
100   62911028202010500000000000041000000000041000002000000010410403280648440001034052100328208713000103   1030000500030000   569120069001008205691200690ESCORT                 PTN           MMR11003280648440001030328000000000000000   10300001 00104100000000002460000000000000     
100   62911028202807400000000000050000000000050000002000000010410403280852180002594052100328208715000259   1030000500030000   598320001602000015172200016MAX ENERGY             PTN           MMR11003280852180002590328000000000000000   10300001 00104100000000001500000000000000     
100   95050318257792630000000000002000000000002000002000000010410403280934390001270228780328000337346845   1030000300030000   591200000310000000000000191CB BANK                MEDICARE STOR MMR11003280934390001270328000000000000000   10300001F00104100000000000480000000000000     
100   62911028202162640000000000026550000000026550002000000010410403280947240001334052100328208716000133   1030000500030000   541120020901022205411200209ORANGE (HLAING)        PTN           MMR11003280947240001330328000000000000000   10300001 00104100000000001593000000000000     
100   95050318694773110000000000000980000000000980002000000010410403290219164916456745540329000006891018   1020000200030000   333400010001204104000000281Myanmar Soft-Gate Tech Yangon        MMR11003290219164916450329000000000000000   10300001F05104100000000000206000000000000     
100   95050312498129060000000000004900000000004900002000000010410403291311544154705841780329000006896383   1020000200030000   333400010001204104000000281Myanmar Soft-Gate Tech Yangon        MMR11003291311544154700329000000000000000   10300001F05104100000000001029000000000000     
100   95050313062063490000000000002940000000002940002000000010410403291014284428702885270329000006895287   1020000200030000   333400010001204104000000281Myanmar Soft-Gate Tech Yangon        MMR11003291014284428700329000000000000000   10300001F05104100000000000617000000000000     
100   95030301100319860000000000050000000000050000002000000010410403291515574557794052100329000006897024   1030000200030000   333800010001203104000003327KBZPay                 Yangon        MMR11003291515574557790329000000000000000   10300001F05104100000000010500000000000000     
100   95050317100052460000000000000980000000000980002000000010410403291318274827530884340329000006896416   1020000200030000   333400010001204104000000281Myanmar Soft-Gate Tech Yangon        MMR11003291318274827530329000000000000000   10300001F05104100000000000206000000000000     
100   62911028202446540000000000029250000000029250002000000010410403291138506099214052100329218061857087   1030000500030000   555610112242104519000010487Ocean Super Center St  ohn           MMR11003291138506099210329000000000000000   10300001 00104100000000001755000000000000     
100   95050322957045260000000000001000000000001000002000000010410403291309283928767494270329000006896364   1030000200030000   3338000100012031040000040022C2P (Myanmar) Co. Ltd Yangon        MMR11003291309283928760329000000000000000   10300001F05104100000000000210000000000000     
100   95050319938772870000000000002940000000002940002000000010410403290420015001945850860329000006892277   1020000200030000   333400010001204104000000281Myanmar Soft-Gate Tech Yangon        MMR11003290420015001940329000000000000000   10300001F05104100000000000617000000000000     
100   95030308100042590000000000106000000000106000002000000010410403281003420002004052100328208716000200   1030000500030000   598320001702000015172200017MAX ENERGY             PTN           MMR11003281003420002000328000000000000000   10300001 00104100000000003180000000000000     
100   95050320531117320000000000440000000000440000002000000010410403280811260003869597460328208714000386   1030000500030000   598320001001000015172200010MAX ENERGY             PTN           MMR11003280811260003860328000000000000000   10300001 00104100000000052800000000000000     
100   62911028202169750000000000037000000000037000002000000010410403280608290004004052100328208712000400   1030000500030000   598320002104000015172200021MAX ENERGY             PTN           MMR11003280608290004000328000000000000000   10300001 00104100000000001110000000000000     
100   62911028202171060000000000025000000000025000002000000010410403280636410010214052100328208713001021   1030000500030000   598320001901000015172200019MAX ENERGY             PTN           MMR11003280636410010210328000000000000000   10300001 00104100000000000750000000000000     
100   95030306100103570000000000008350000000008350002000000010410403281006530001674052100328208716000167   1030000500030000   531120155714000045311201557GAMONE PWINT           PTN           MMR11003281006530001670328000000000000000   10300001 00104100000000000501000000000000     
100   62911028202221220000000000008000000000008000002000000010410403272251590750634052100328208722075063   1030000600030000   554100000946315799420000471DENKO BAHAN            YANGON        MMR11003272251590750630328000000000000000   10300001 00104100000000000240000000000000     
100   62911028202221220000000000010000000000010000002000000010410403272252280750644052100328208722075064   1030000600030000   554100000946315799420000471DENKO BAHAN            YANGON        MMR11003272252280750640328000000000000000   10300001 00104100000000000300000000000000     
100   95050312539675540000000000003000000000003000002000000010410403281240240054071922630328208712005407   1030000600030000   554100002139315799420001488DENKO MDY-12           MANDALAY      MMR11003281240240054070328000000000000000   10300001 00104100000000000360000000000000     
100   62911028202154720000000000051900000000051900002000000010410403290301526031694052100329082300934087   1030000500030000   555610103466104519000003420City Mart Yankin Cente 5             MMR11003290301526031690329000000000000000   10300001 00104100000000003114000000000000     
100   62911028202169750000000000031213000000031213002000000010410403290243136031764052100329090310925087   1030000500030000   555610118969104519000016137City Mart South Okkala WZYD BR       MMR11003290243136031760329000000000000000   10300001 00104100000000001873000000000000     
100   62911028202318750000000000002800000000002800002000000010410403290439226042364052100329408131117087   1030000500030000   555610112532104519000010487Ocean Super Center St  ohn           MMR11003290439226042360329000000000000000   10300001 00104100000000000168000000000000     
100   62443100364681690000000000057100000000057100002000000010410403290836106073110856750329585071519087   1030000300030000   555510124693104519000020166Makro Myanmar                        MMR11003290836106073110329000000000000000   10300001 00104100000000013704000000000000     
100   62443100316099160000000000100000000000100000002000000010410403290421065106650808310329000006892284   1030000200030000   333800010001203104000003327KBZPay                 Yangon        MMR11003290421065106650329000000000000000   10300001F05104100000000021000000000000000     
100   95050314096739990000000000200000000000200000002000000010410403290521075107654574410329000006892854   1030000200030000   333800010001203104000003327KBZPay                 Yangon        MMR11003290521075107650329000000000000000   10300001F05104100000000042000000000000000     
100   62443100301716860000000000000980000000000980002000000010410403290418314831286191240329000006892256   1020000200030000   333400010001204104000000281Myanmar Soft-Gate Tech Yangon        MMR11003290418314831280329000000000000000   10300001F05104100000000000206000000000000     
100   62911028202809060000000000040100000000040100002000000010410403290804176068474052100329929341440087   1030000300030000   555510124692104519000020166Makro Myanmar                        MMR11003290804176068470329000000000000000   10300001 00104100000000002406000000000000     
100   95050322426452690000000000061000000000061000002000000010410403280312190098139500710328208703009813   1030000600030000   554100001217315799420000669DENKO PHAYAR GYI       BAGO          MMR11003280312190098130328000000000000000   10300001 00104100000000007320000000000000     
100   95030301100155910000000000032900000000032900002000000010410403270822400016434052100327208608001643   1030000600030000   569100000514315799420000134RENE MYANMAR CM        YANGON        MMR11003270822400016430327000000000000000   10300001 00104100000000001974000000000000     
100   62911028202221220000000000010000000000010000002000000010410403262255570046894052100327208622004689   1030000600030000   554100002085315799420000471DENKO BAHAN            YANGON        MMR11003262255570046890327000000000000000   10300001 00104100000000000300000000000000     
100   62911028202445480000000000605000000000605000002000000010410403270341450233144052100327208603023314   1030000600030000   554100001116315799420000574DENKO HLAE KUU         HLAE KUU      MMR11003270341450233140327000000000000000   10300001 00104100000000018150000000000000     
100   62911028202204490000000000051000000000051000002000000010410403271138550048534052100327208611004853   1030000600030000   554100002085315799420000471DENKO BAHAN            YANGON        MMR11003271138550048530327000000000000000   10300001 00104100000000001530000000000000     
100   95050312539675540000000000003000000000003000002000000010410403270557550053447820640327208605005344   1030000600030000   554100002139315799420001488DENKO MDY-12           MANDALAY      MMR11003270557550053440327000000000000000   10300001 00104100000000000360000000000000     
100   95030318100004530000000000020000000000020000002000000010410403270237080081934052100327208602008193   1030000600030000   554100001218315799420000670DENKO MAWLAMYAING      MON STATE.    MMR11003270237080081930327000000000000000   10300001 00104100000000000600000000000000     
100   62443100303702210000000000061700000000061700002000000010410403270309550421006813270327208603042100   1030000600030000   554100001756315799420001137DENKO NORTH DAGON 2    YANGON        MMR11003270309550421000327000000000000000   10300001 00104100000000007404000000000000     
