100   62911028202809060000000000034949000000034949002000000010410403290103240114844052100329208801011484   1030000600030000   581200000524315799420000141FUJI COFFEE HOUSE      YANGON        MMR11003290103240114840329000000000000000   10300001 00104100000000003565000000000000     
100   62911028202466750000000000089600000000089600002000000010410403280503400003094052100328208711000309   1030000500030000   569120074801000015691200748NEWBURY ST. U.S.A COLL PTN           MMR11003280503400003090328000000000000000   10300001 00104100000000005376000000000000     
100   95030301100126550000000000030000000000030000002000000010410403281152300109474052100328208711010947   1030000600030000   554100002323315799420000474DENKO N.DAGON - 1      YANGON        MMR11003281152300109470328000000000000000   10300001 00104100000000000900000000000000     
100   62911028202108200000000000023000000000023000002000000010410403291014190000254052100329208816000025   1030000500030000   569120037501016505691200375SOON FASHION SHOP      PTN           MMR11003291014190000250329000000000000000   10300001 00104100000000001380000000000000     
100   62911028202287150000000000089000000000089000002000000010410403291313130001094052100329208813000109   1030000600030000   581200002403315799420001675PARADISE HOTPOT TC     YANGON        MMR11003291313130001090329000000000000000   10300001 00104100000000009078000000000000     
100   95030302100067550000000000320595000000320595002000000010410403291610130002334052100329000337560553   1030000300030000   806200000419000000000000300CB BANK                KAN THARYAR H MMR11003291610130002330329000000000000000   10300001F00104100000000019236000000000000     
100   62911028202616250000000000137000000000137000002000000010410403290858450006004052100329208815000600   1030000500030000   598320001604000015172200016MAX ENERGY             PTN           MMR11003290858450006000329000000000000000   10300001 00104100000000004110000000000000     
100   95050324154190880000000000043000000000043000002000000010410403291014230005156190250329208816000515   1030000500030000   598320002103000015172200021MAX ENERGY             PTN           MMR11003291014230005150329000000000000000   10300001 00104100000000005160000000000000     
100   95030370087325670000000000100000000000100000002000000010410403291637040704554052100330000006897338   1030000200030000   3338000100012031040000040022C2P (Myanmar) Co. Ltd Yangon        MMR11003291637040704550330000000000000000   10300001F05104100000000021000000000000000     
100   95030301100117720000000000300000000000300000002000000010410403301459272927724052100330000006904975   1030000200030000   333800010001203104000003327KBZPay                 Yangon        MMR11003301459272927720330000000000000000   10300001F05104100000000063000000000000000     
100   62911028202077010000000000000980000000000980002000000010410403301103353335634052100330000006903520   1020000200030000   333400010001204104000000281Myanmar Soft-Gate Tech Yangon        MMR11003301103353335630330000000000000000   10300001F05104100000000000206000000000000     
100   95030301100183220000000000300000000000300000002000000010410403300316354635534052100330000006898925   1030000500030000   333800010001201104000003863AYA Pay                Yangon        MMR11003300316354635530330000000000000000   10300001F05104100000000063000000000000000     
100   95050319996628650000000000000980000000000980002000000010410403300818374837738606230330000006902069   1020000200030000   333400010001204104000000281Myanmar Soft-Gate Tech Yangon        MMR11003300818374837730330000000000000000   10300001F05104100000000000206000000000000     
100   95050324773225760000000000050000000000050000002000000010410403301118394839414770620330000006903627   1030000200030000   333800010001203104000003327KBZPay                 Yangon        MMR11003301118394839410330000000000000000   10300001F05104100000000010500000000000000     
100   95030370087325670000000000300000000000300000002000000010410403300319504950824052100330000006898993   1030000500030000   333800010001201104000003863AYA Pay                Yangon        MMR11003300319504950820330000000000000000   10300001F05104100000000063000000000000000     
100   95050327022536610000000000038500000000038500002000000010410403300152182218092317180330000006898145   1030000200030000   3333000100012031040000040282C2P (Myanmar) Co. Ltd Yangon        MMR11003300152182218090330000000000000000   10300001F05104100000000010000000000000000     
100   95030380891034700000000000050000000000050000002000000010410403300109413941444052100330000006897946   1030000200030000   333800010001203104000003327KBZPay                 Yangon        MMR11003300109413941440330000000000000000   10300001F05104100000000010500000000000000     
100   62443100330108240000000000010000000000010000002000000010410403301214054405977309720330000006903965   1030000200030000   333800010001203104000003327KBZPay                 Yangon        MMR11003301214054405970330000000000000000   10300001F05104100000000002100000000000000     
100   95030384418409420000000000202000000000202000002000000010410403300324095409684052100330000006899032   1030000200030000   333800010001203104000003327KBZPay                 Yangon        MMR11003300324095409680330000000000000000   10300001F05104100000000042420000000000000     
100   95050316586367540000000000000980000000000980002000000010410403300417154715571010800330000006899571   1020000200030000   333400010001204104000000281Myanmar Soft-Gate Tech Yangon        MMR11003300417154715570330000000000000000   10300001F05104100000000000206000000000000     
100   62911028202077010000000000002940000000002940002000000010410403300611574157094052100330000006900778   1020000200030000   333400010001204104000000281Myanmar Soft-Gate Tech Yangon        MMR11003300611574157090330000000000000000   10300001F05104100000000000617000000000000     
100   95050326393773020000000000002940000000002940002000000010410403301358092809320713580330000006904610   1020000200030000   333400010001204104000000281Myanmar Soft-Gate Tech Yangon        MMR11003301358092809320330000000000000000   10300001F05104100000000000617000000000000     
100   62911028202684060000000000090000000000090000002000000010410403300514597750764052100330026441159088   1030000900030000   591219000601190110000000441Shwe Ohh Pharmacy St-3 YANGON        MMR11003300514597750760330000000000000000   10300001F00104100000000005400000000000000     
100   95050316321163940000000000000980000000000980002000000010410403301331100110087068220330000006904422   1020000200030000   333400010001204104000000281Myanmar Soft-Gate Tech Yangon        MMR11003301331100110080330000000000000000   10300001F05104100000000000206000000000000     
100   95030301100128610000000000050000000000050000002000000010410403300755222522664052100330000006901762   1030000200030000   333800010001203104000003327KBZPay                 Yangon        MMR11003300755222522660330000000000000000   10300001F05104100000000010500000000000000     
100   95050312360118350000000000005000000000005000002000000010410403300304343434955331210330000006898805   1030000200030000   333800010001203104000003327KBZPay                 Yangon        MMR11003300304343434950330000000000000000   10300001F05104100000000001050000000000000     
100   95030301100193120000000000300000000000300000002000000010410403301510314031674052100330000006905040   1030000200030000   333800010001203104000003327KBZPay                 Yangon        MMR11003301510314031670330000000000000000   10300001F05104100000000063000000000000000     
100   95030370087325670000000000300000000000300000002000000010410403300512274227074052100330000006900201   1030000200030000   333800010001203104000003327KBZPay                 Yangon        MMR11003300512274227070330000000000000000   10300001F05104100000000063000000000000000     
100   95030301100121840000000000300000000000300000002000000010410403301117464746774052100330000006903625   1030000200030000   333800010001203104000003327KBZPay                 Yangon        MMR11003301117464746770330000000000000000   10300001F05104100000000063000000000000000     
100   95030370087325670000000000300000000000300000002000000010410403301523295329324052100330000006905129   1030000200030000   333800010001203104000003327KBZPay                 Yangon        MMR11003301523295329320330000000000000000   10300001F05104100000000063000000000000000     
100   95050319753756490000000000060000000000060000002000000010410403301554502450511600190330000006905283   1030000200030000   333800010001203104000003327KBZPay                 Yangon        MMR11003301554502450510330000000000000000   10300001F05104100000000012600000000000000     
100   95050319753756490000000000015000000000015000002000000010410403300657582758196421310330000006901197   1030000200030000   333800010001203104000003327KBZPay                 Yangon        MMR11003300657582758190330000000000000000   10300001F05104100000000003150000000000000     
100   95030370087325670000000000300000000000300000002000000010410403300326095609024052100330000006899039   1030000500030000   333800010001201104000003863AYA Pay                Yangon        MMR11003300326095609020330000000000000000   10300001F05104100000000063000000000000000     
100   95050318057347910000000000000980000000000980002000000010410403301526385638224990260330000006905138   1020000200030000   333400010001204104000000281Myanmar Soft-Gate Tech Yangon        MMR11003301526385638220330000000000000000   10300001F05104100000000000206000000000000     
100   62911028202909210000000000300000000000300000002000000010410403301607233723454052100330000006905324   1030000200030000   333800010001203104000003327KBZPay                 Yangon        MMR11003301607233723450330000000000000000   10300001F05104100000000063000000000000000     
100   62911028202660950000000000055000000000055000002000000010410403300625575557844052100330000006900897   1030000200030000   333800010001203104000003327KBZPay                 Yangon        MMR11003300625575557840330000000000000000   10300001F05104100000000011550000000000000     
100   95050313710136610000000000003920000000003920002000000010410403301032150215551230430330000006903323   1020000200030000   333400010001204104000000281Myanmar Soft-Gate Tech Yangon        MMR11003301032150215550330000000000000000   10300001F05104100000000000823000000000000     
100   95030370087325670000000000300000000000300000002000000010410403300539260926414052100330000006900438   1030000200030000   333800010001203104000003327KBZPay                 Yangon        MMR11003300539260926410330000000000000000   10300001F05104100000000063000000000000000     
100   95050317343045830000000000001960000000001960002000000010410403300352372237942067610330000006899347   1020000200030000   333400010001204104000000281Myanmar Soft-Gate Tech Yangon        MMR11003300352372237940330000000000000000   10300001F05104100000000000412000000000000     
100   95030301100215990000000000300000000000300000002000000010410403300350592059234052100330000006899330   1030000200030000   333800010001203104000003327KBZPay                 Yangon        MMR11003300350592059230330000000000000000   10300001F05104100000000063000000000000000     
100   62443100313529540000000000003500000000003500002000000010410403300303133313336898590330000006898796   1030000200030000   333800010001203104000003327KBZPay                 Yangon        MMR11003300303133313330330000000000000000   10300001F05104100000000000735000000000000     
100   95050319928585020000000000000980000000000980002000000010410403301310154015882110770330000006904279   1020000200030000   333400010001204104000000281Myanmar Soft-Gate Tech Yangon        MMR11003301310154015880330000000000000000   10300001F05104100000000000206000000000000     
100   95050312878706670000000000003000000000003000002000000010410403301510494049353422870330000006905039   1030000200030000   3334000100012031040000040102C2P (Myanmar) Co. Ltd Yangon        MMR11003301510494049350330000000000000000   10300001F05104100000000000630000000000000     
100   95030370087325670000000000300000000000300000002000000010410403300616564656574052100330000006900809   1030000200030000   333800010001203104000003327KBZPay                 Yangon        MMR11003300616564656570330000000000000000   10300001F05104100000000063000000000000000     
100   95030370087325670000000000200000000000200000002000000010410403300327075707554052100330000006899070   1030000500030000   333800010001201104000003863AYA Pay                Yangon        MMR11003300327075707550330000000000000000   10300001F05104100000000042000000000000000     
100   95050315259054570000000000000980000000000980002000000010410403300828225822396783560330000006902184   1020000200030000   333400010001204104000000281Myanmar Soft-Gate Tech Yangon        MMR11003300828225822390330000000000000000   10300001F05104100000000000206000000000000     
100   62911028202161240000000000020000000000020000002000000010410403300202016139544052100330103300823088   1030000300030000   888810125458104519000021285Shwe Taung Energy CoLt               MMR11003300202016139540330000000000000000   10300001 00104100000000000600000000000000     
100   95050323576695670000000000021300000000021300002000000010410403300939146193630634760330235091652088   1030000500030000   555610112240104519000010487Ocean Super Center St  ohn           MMR11003300939146193630330000000000000000   10300001 00104100000000005325000000000000     
100   95030367537085740000000000005880000000005880002000000010410403301322575257074052100330000006904368   1020000200030000   333400010001204104000000281Myanmar Soft-Gate Tech Yangon        MMR11003301322575257070330000000000000000   10300001F05104100000000001235000000000000     
100   62911028202679290000000000300000000000300000002000000010410403300121555155184052100330000006897994   1030000200030000   333800010001203104000003327KBZPay                 Yangon        MMR11003300121555155180330000000000000000   10300001F05104100000000063000000000000000     
100   95050311184380560000000000000980000000000980002000000010410403300254582458585501400330000006898669   1020000200030000   333400010001204104000000281Myanmar Soft-Gate Tech Yangon        MMR11003300254582458580330000000000000000   10300001F05104100000000000206000000000000     
100   95050312298324450000000000001960000000001960002000000010410403301501183118258976000330000006904988   1020000200030000   333400010001204104000000281Myanmar Soft-Gate Tech Yangon        MMR11003301501183118250330000000000000000   10300001F05104100000000000412000000000000     
100   95050312360118350000000000010000000000010000002000000010410403301052192219883969100330000006903454   1030000200030000   333800010001203104000003327KBZPay                 Yangon        MMR11003301052192219880330000000000000000   10300001F05104100000000002100000000000000     
100   62911028202169750000000000015000000000015000002000000010410403300942347822424052100330272121634088   1030000900030000   573219001180190110000000936UNIQUE UChit Maung     YANGON        MMR11003300942347822420330000000000000000   10300001F00104100000000000900000000000000     
100   62911028202777790000000000007525000000007525002000000010410403291725585558624052100330000006897474   1030000200030000   333800010001203104000003327KBZPay                 Yangon        MMR11003291725585558620330000000000000000   10300001F05104100000000001580000000000000     
100   62911028202161240000000000021350000000021350002000000010410403301110010052804052100330000744900540   1030000200030000   541188001021000008000000298KBZ BANK               CITY MART - M MMR11003301110010052800330000000000000000   10300001 00104100000000001281000000000000     
100   62911028202715250000000000300000000000300000002000000010410403300716414641504052100330000006901361   1030000200030000   333800010001203104000003327KBZPay                 Yangon        MMR11003300716414641500330000000000000000   10300001F05104100000000063000000000000000     
100   62911028202349600000000000001000000000001000002000000010410403300855232523554052100330000006902412   1030000200030000   3338000100012031040000040022C2P (Myanmar) Co. Ltd Yangon        MMR11003300855232523550330000000000000000   10300001F05104100000000000210000000000000     
100   95050313400081980000000000003000000000003000002000000010410403300753492349447769060330000006901755   1030000200030000   333800010001203104000003327KBZPay                 Yangon        MMR11003300753492349440330000000000000000   10300001F05104100000000000630000000000000     
100   95050318617855880000000000002940000000002940002000000010410403301358292829937408610330000006904614   1020000200030000   333400010001204104000000281Myanmar Soft-Gate Tech Yangon        MMR11003301358292829930330000000000000000   10300001F05104100000000000617000000000000     
100   95050312298324450000000000002940000000002940002000000010410403301459042904312280960330000006904973   1020000200030000   333400010001204104000000281Myanmar Soft-Gate Tech Yangon        MMR11003301459042904310330000000000000000   10300001F05104100000000000617000000000000     
100   95050312695033440000000000000980000000000980002000000010410403300301133113953508530330000006898765   1020000200030000   333400010001204104000000281Myanmar Soft-Gate Tech Yangon        MMR11003300301133113950330000000000000000   10300001F05104100000000000206000000000000     
100   95050312360118350000000000005000000000005000002000000010410403300706013601304853920330000006901263   1030000200030000   333800010001203104000003327KBZPay                 Yangon        MMR11003300706013601300330000000000000000   10300001F05104100000000001050000000000000     
100   95050310608512070000000000004900000000004900002000000010410403301109543954277188980330000006903560   1020000200030000   333400010001204104000000281Myanmar Soft-Gate Tech Yangon        MMR11003301109543954270330000000000000000   10300001F05104100000000001029000000000000     
100   62911028202249120000000000012504000000012504002000000010410403300919557815664052100330875491555088   1030000900030000   541119001262190110000000958City Mart PLST C 5     YANGONMYOTHIT MMR11003300919557815660330000000000000000   10300001F00104100000000000750000000000000     
100   95030301100119390000000000030000000000030000002000000010410403291722275227364052100330000006897463   1030000200030000   333800010001203104000003327KBZPay                 Yangon        MMR11003291722275227360330000000000000000   10300001F05104100000000006300000000000000     
100   62911028202809060000000000050000000000050000002000000010410403301157282728874052100330000006903856   1030000200030000   333800010001203104000003327KBZPay                 Yangon        MMR11003301157282728870330000000000000000   10300001F05104100000000010500000000000000     
100   95030301100419850000000000172000000000172000002000000010410403300635070507514052100330000006900989   1030000500030000   333800010001201104000003863AYA Pay                Yangon        MMR11003300635070507510330000000000000000   10300001F05104100000000036120000000000000     
100   95050310685238570000000000020200000000020200002000000010410403300226077717209352600330124560807088   1030000900030000   541119000113190110000000077Sein Gay Har Chinatown YANGON        MMR11003300226077717200330000000000000000   10300001F00104100000000005050000000000000     
100   95030301100131580000000000200000000000200000002000000010410403300311384138564052100330000006898886   1030000500030000   333800010001201104000003863AYA Pay                Yangon        MMR11003300311384138560330000000000000000   10300001F05104100000000042000000000000000     
100   95030301100193120000000000300000000000300000002000000010410403300833470347264052100330000006902226   1030000200030000   333800010001203104000003327KBZPay                 Yangon        MMR11003300833470347260330000000000000000   10300001F05104100000000063000000000000000     
100   62911028202019440000000000013755000000013755002000000010410403300452150023994052100330000744901372   1030000200030000   591288000018000008000002044KBZ BANK               PINLON PHARMA MMR11003300452150023990330000000000000000   10300001 00104100000000000825000000000000     
100   62911028202715250000000000005000000000005000002000000010410403300726315631354052100330000006901479   1030000200030000   333800010001203104000003327KBZPay                 Yangon        MMR11003300726315631350330000000000000000   10300001F05104100000000001050000000000000     
100   95030301100351360000000000300000000000300000002000000010410403300628225822784052100330000006900932   1030000200030000   333800010001203104000003327KBZPay                 Yangon        MMR11003300628225822780330000000000000000   10300001F05104100000000063000000000000000     
100   95030301100425790000000000047200000000047200002000000010410403301004256197094052100330697321643088   1030000300030000   555510124358104519000020166Makro Myanmar                        MMR11003301004256197090330000000000000000   10300001 00104100000000002832000000000000     
100   95050310427855490000000000000980000000000980002000000010410403301158082808966423100330000006903866   1020000200030000   333400010001204104000000281Myanmar Soft-Gate Tech Yangon        MMR11003301158082808960330000000000000000   10300001F05104100000000000206000000000000     
100   95030370087325670000000000300000000000300000002000000010410403301548311831214052100330000006905253   1030000200030000   333800010001203104000003327KBZPay                 Yangon        MMR11003301548311831210330000000000000000   10300001F05104100000000063000000000000000     
100   62911028202909210000000000300000000000300000002000000010410403301603583358604052100330000006905311   1030000200030000   333800010001203104000003327KBZPay                 Yangon        MMR11003301603583358600330000000000000000   10300001F05104100000000063000000000000000     
100   95030301100121840000000000100000000000100000002000000010410403301208103810434052100330000006903928   1030000200030000   333800010001203104000003327KBZPay                 Yangon        MMR11003301208103810430330000000000000000   10300001F05104100000000021000000000000000     
100   95050317376014640000000000001960000000001960002000000010410403300612504250289841310330000006900783   1020000200030000   333400010001204104000000281Myanmar Soft-Gate Tech Yangon        MMR11003300612504250280330000000000000000   10300001F05104100000000000412000000000000     
100   62911028202004410000000001000000000001000000002000000010410403301647340010884052100330000744920549   1030000200030000   541188001011000008000000008KBZ BANK               MARKETPLACE - MMR11003301647340010880330000000000000000   10300001 00104100000000060000000000000000     
100   95050323576695670000000000198400000000198400002000000010410403300713250012333541830330000744910503   1030000200030000   569988000807000008000004620KBZ BANK               STJ-BLAZON    MMR11003300713250012330330000000000000000   10300001 00104100000000047616000000000000     
100   95030333816931040000000000036370000000036370002000000010410403301544170018354052100330000744917411   1030000200030000   541188001354000008000000395KBZ BANK               OCEAN SUPERMA MMR11003301544170018350330000000000000000   10300001 00104100000000002182000000000000     
100   95030333816931040000000000035800000000035800002000000010410403301547000018364052100330000744917552   1030000200030000   541188001354000008000000395KBZ BANK               OCEAN SUPERMA MMR11003301547000018360330000000000000000   10300001 00104100000000002148000000000000     
100   95030333816931040000000000015810000000015810002000000010410403301542040018344052100330000744917332   1030000200030000   541188001354000008000000395KBZ BANK               OCEAN SUPERMA MMR11003301542040018340330000000000000000   10300001 00104100000000000949000000000000     
100   62911028202019440000000000033000000000033000002000000010410403301040090023674052100330000744921832   1030000200030000   591288000181000008000002044KBZ BANK               PINLON PHARMA MMR11003301040090023670330000000000000000   10300001 00104100000000001980000000000000     
100   95030370087325670000000000500000000000500000002000000010410403291631330133854052100330000006897322   1030000200030000   3338000100012031040000040022C2P (Myanmar) Co. Ltd Yangon        MMR11003291631330133850330000000000000000   10300001F05104100000000105000000000000000     
100   95050316321163940000000000000980000000000980002000000010410403301336320632249146190330000006904464   1020000200030000   333400010001204104000000281Myanmar Soft-Gate Tech Yangon        MMR11003301336320632240330000000000000000   10300001F05104100000000000206000000000000     
100   62911028202679290000000000200000000000200000002000000010410403300519234923164052100330000006900260   1030000200030000   333800010001203104000003327KBZPay                 Yangon        MMR11003300519234923160330000000000000000   10300001F05104100000000042000000000000000     
100   95030370087325670000000000300000000000300000002000000010410403301524315431004052100330000006905133   1030000200030000   333800010001203104000003327KBZPay                 Yangon        MMR11003301524315431000330000000000000000   10300001F05104100000000063000000000000000     
100   62911028202679290000000000300000000000300000002000000010410403300417374737144052100330000006899577   1030000200030000   333800010001203104000003327KBZPay                 Yangon        MMR11003300417374737140330000000000000000   10300001F05104100000000063000000000000000     
100   95030301100125070000000000300000000000300000002000000010410403300709333933134052100330000006901281   1030000200030000   333800010001203104000003327KBZPay                 Yangon        MMR11003300709333933130330000000000000000   10300001F05104100000000063000000000000000     
100   95030301100131580000000000300000000000300000002000000010410403300310094009314052100330000006898848   1030000500030000   333800010001201104000003863AYA Pay                Yangon        MMR11003300310094009310330000000000000000   10300001F05104100000000063000000000000000     
100   62911028202150190000000000030000000000030000002000000010410403300350596148064052100330171181046088   1030000300030000   888810125458104519000021285Shwe Taung Energy CoLt               MMR11003300350596148060330000000000000000   10300001 00104100000000000900000000000000     
100   95050328303533000000000000003000000000003000002000000010410403301256582658498890900330000006904195   1030000200030000   3334000100012031040000040102C2P (Myanmar) Co. Ltd Yangon        MMR11003301256582658490330000000000000000   10300001F05104100000000000630000000000000     
100   62911028202908550000000000100000000000100000002000000010410403300918494849684052100330000006902698   1030000200030000   333800010001203104000003327KBZPay                 Yangon        MMR11003300918494849680330000000000000000   10300001F05104100000000021000000000000000     
100   95030301100121680000000000050000000000050000002000000010410403300242111211064052100330000006898487   1030000200030000   333800010001203104000003327KBZPay                 Yangon        MMR11003300242111211060330000000000000000   10300001F05104100000000010500000000000000     
100   95050323855563310000000000102998000000102998002000000010410403301531530020682932360330000744916849   1030000200030000   541188001480000008000000399KBZ BANK               OCEAN SUPERCE MMR11003301531530020680330000000000000000   10300001 00104100000000025750000000000000     
100   95030370087325670000000000300000000000300000002000000010410403300546251625014052100330000006900508   1030000200030000   333800010001203104000003327KBZPay                 Yangon        MMR11003300546251625010330000000000000000   10300001F05104100000000063000000000000000     
100   95030301100126220000000000062100000000062100002000000010410403301708330053144052100330000744921726   1030000200030000   541188001021000008000000298KBZ BANK               CITY MART - M MMR11003301708330053140330000000000000000   10300001 00104100000000003726000000000000     
100   95050312498129060000000000001960000000001960002000000010410403301236400640617224630330000006904069   1020000200030000   333400010001204104000000281Myanmar Soft-Gate Tech Yangon        MMR11003301236400640610330000000000000000   10300001F05104100000000000412000000000000     
100   95030308100042590000000000025050000000025050002000000010410403301454050094674052100330000744914928   1030000200030000   541188001081000008000000294KBZ BANK               CITY MART - J MMR11003301454050094670330000000000000000   10300001 00104100000000001503000000000000     
100   95050310281229490000000000030100000000030100002000000010410403301451412141417323510330000006904917   1030000200030000   333800010001203104000003327KBZPay                 Yangon        MMR11003301451412141410330000000000000000   10300001F05104100000000006321000000000000     
100   95050313453886860000000000018000000000018000002000000010410403301817530063523373430330000744925505   1030000200030000   541188001331000008000000327KBZ BANK               CITY MART - S MMR11003301817530063520330000000000000000   10300001 00104100000000004500000000000000     
100   95030370087325670000000000300000000000300000002000000010410403300621325132674052100330000006900855   1030000200030000   333800010001203104000003327KBZPay                 Yangon        MMR11003300621325132670330000000000000000   10300001F05104100000000063000000000000000     
100   95050314570621780000000000001960000000001960002000000010410403300424515451041252300330000006899644   1020000200030000   333400010001204104000000281Myanmar Soft-Gate Tech Yangon        MMR11003300424515451040330000000000000000   10300001F05104100000000000412000000000000     
100   95050314893649800000000000002940000000002940002000000010410403300828425842033989170330000006902165   1020000200030000   333400010001204104000000281Myanmar Soft-Gate Tech Yangon        MMR11003300828425842030330000000000000000   10300001F05104100000000000617000000000000     
100   95050319938772870000000000010500000000010500002000000010410403300956306195675932590330515241625088   1030000300030000   555510124298104519000020435MGOU Pyay                            MMR11003300956306195670330000000000000000   10300001 00104100000000002520000000000000     
100   62911028202000450000000000001960000000001960002000000010410403300254582458944052100330000006898676   1020000200030000   333400010001204104000000281Myanmar Soft-Gate Tech Yangon        MMR11003300254582458940330000000000000000   10300001F05104100000000000412000000000000     
100   95050317834964620000000000007650000000007650002000000010410403301117187850561465650330131471718088   1030000900030000   541119001358190110000000977Ocean PZD C 12         YANGONAUNG    MMR11003301117187850560330000000000000000   10300001F00104100000000001913000000000000     
100   95030385550669610000000000006800000000006800002000000010410403301131596211244052100330656001819088   1030000300030000   555610103756104519000003632G and G Convenience St re 105        MMR11003301131596211240330000000000000000   10300001 00104100000000000408000000000000     
100   95050319156544340000000000016826000000016826002000000010410403300921127816218556790330913511512088   1030000900030000   541119001263190110000000958City Mart PLST C 6     YANGONMYOTHIT MMR11003300921127816210330000000000000000   10300001F00104100000000004207000000000000     
100   95030301100338180000000000150000000000150000002000000010410403300131290129554052100330000006898022   1030000200030000   333800010001203104000003327KBZPay                 Yangon        MMR11003300131290129550330000000000000000   10300001F05104100000000031500000000000000     
100   95030301100344690000000000100000000000100000002000000010410403301337280728484052100330000006904471   1030000200030000   333800010001203104000003327KBZPay                 Yangon        MMR11003301337280728480330000000000000000   10300001F05104100000000021000000000000000     
100   95050318180584510000000000000980000000000980002000000010410403301145411541828330880330000006903784   1020000200030000   333400010001204104000000281Myanmar Soft-Gate Tech Yangon        MMR11003301145411541820330000000000000000   10300001F05104100000000000206000000000000     
100   95050327416134790000000000001960000000001960002000000010410403301246291629605912530330000006904126   1020000200030000   333400010001204104000000281Myanmar Soft-Gate Tech Yangon        MMR11003301246291629600330000000000000000   10300001F05104100000000000412000000000000     
100   95050314287403810000000000000980000000000980002000000010410403300636400640730272510330000006901014   1020000200030000   333400010001204104000000281Myanmar Soft-Gate Tech Yangon        MMR11003300636400640730330000000000000000   10300001F05104100000000000206000000000000     
100   95050312498129060000000000000980000000000980002000000010410403292344591459762792100330000006897753   1020000200030000   333400010001204104000000281Myanmar Soft-Gate Tech Yangon        MMR11003292344591459760330000000000000000   10300001F05104100000000000206000000000000     
100   62443100323117100000000000037480000000037480002000000010410403300433100310913330260330000006899730   1030000200030000   333300010001203104000004523Ying Family Trading Co Yangon        MMR11003300433100310910330000000000000000   10300001F05104100000000010000000000000000     
100   95030301100193120000000000300000000000300000002000000010410403300833010301844052100330000006902219   1030000200030000   333800010001203104000003327KBZPay                 Yangon        MMR11003300833010301840330000000000000000   10300001F05104100000000063000000000000000     
100   62911028202139640000000000049968000000049968002000000010410403301121306210404052100330530551731088   1030000500030000   555610104045104519000003821City Mart North Point  enter         MMR11003301121306210400330000000000000000   10300001 00104100000000002998000000000000     
100   95030339867270590000000000016549000000016549002000000010410403301208096217184052100330436381840088   1030000500030000   555610118967104519000016137City Mart South Okkala WZYD BR       MMR11003301208096217180330000000000000000   10300001 00104100000000000993000000000000     
100   95030301100131580000000000003700000000003700002000000010410403301030047836924052100330207001704088   1030000900030000   541119001372190110000000978Ocean PZD Season C 2   YANGONAUNG    MMR11003301030047836920330000000000000000   10300001F00104100000000000222000000000000     
100   95050312173216740000000000011300000000011300002000000010410403301115307850013118140330090451730088   1030000900030000   541119001290190110000000965City Mart SPL City Car YANGONMYOTHIT MMR11003301115307850010330000000000000000   10300001F00104100000000002825000000000000     
100   95050322149411750000000000020000000000020000002000000010410403300214597715980494510330071440859088   1030000900030000   554119001101190110000000213New Day Energy SOK     YANGONOKKALAP MMR11003300214597715980330000000000000000   10300001F00104100000000002400000000000000     
100   95050329252108030000000000006900000000006900002000000010410403300528227753719259430330198581122088   1030000900030000   541119001289190110000000964City Mart SPL Season C YANGONMYOTHIT MMR11003300528227753710330000000000000000   10300001F00104100000000001725000000000000     
100   95030399304534290000000000060000000000060000002000000010410403300734507786134052100330155041450088   1030000900030000   541119001207190110000000948City Mart YK C 5       YANGONAUNG    MMR11003300734507786130330000000000000000   10300001F00104100000000003600000000000000     
100   95050314893649800000000000005499000000005499002000000010410403300910017812505010330330697401501088   1030000900030000   541119000113190110000000077Sein Gay Har Chinatown YANGON        MMR11003300910017812500330000000000000000   10300001F00104100000000001375000000000000     
100   95030301100419850000000000300000000000300000002000000010410403300633030303284052100330000006900974   1030000500030000   333800010001201104000003863AYA Pay                Yangon        MMR11003300633030303280330000000000000000   10300001F05104100000000063000000000000000     
100   95050311382087030000000000008820000000008820002000000010410403301238410841724260050330000006904081   1020000200030000   333400010001204104000000281Myanmar Soft-Gate Tech Yangon        MMR11003301238410841720330000000000000000   10300001F05104100000000001852000000000000     
100   95050319928585020000000000001960000000001960002000000010410403301243511351029217500330000006904108   1020000200030000   333400010001204104000000281Myanmar Soft-Gate Tech Yangon        MMR11003301243511351020330000000000000000   10300001F05104100000000000412000000000000     
100   62443100313529540000000000300000000000300000002000000010410403300241111111728125600330000006898514   1030000200030000   333800010001203104000003327KBZPay                 Yangon        MMR11003300241111111720330000000000000000   10300001F05104100000000063000000000000000     
100   95050312498129060000000000000980000000000980002000000010410403301045481548505366300330000006903419   1020000200030000   333400010001204104000000281Myanmar Soft-Gate Tech Yangon        MMR11003301045481548500330000000000000000   10300001F05104100000000000206000000000000     
100   95050319161596230000000000000980000000000980002000000010410403300244211421731515660330000006898552   1020000200030000   333400010001204104000000281Myanmar Soft-Gate Tech Yangon        MMR11003300244211421730330000000000000000   10300001F05104100000000000206000000000000     
100   95050318646071770000000000000980000000000980002000000010410403301031000100667925460330000006903299   1020000200030000   333400010001204104000000281Myanmar Soft-Gate Tech Yangon        MMR11003301031000100660330000000000000000   10300001F05104100000000000206000000000000     
100   95030301100183480000000000300000000000300000002000000010410403300934310431954052100330000006902845   1030000500030000   333800010001201104000003863AYA Pay                Yangon        MMR11003300934310431950330000000000000000   10300001F05104100000000063000000000000000     
100   95030339867270590000000000106705000000106705002000000010410403301214346218114052100330570451820088   1030000500030000   555610118967104519000016137City Mart South Okkala WZYD BR       MMR11003301214346218110330000000000000000   10300001 00104100000000006402000000000000     
100   62443100357321690000000000057683000000057683002000000010410403301432306228375671030330879002143088   1030000300030000   555510125330104519000021173One Stop Mart Shopping Mall 0003     MMR11003301432306228370330000000000000000   10300001 00104100000000013844000000000000     
100   95030389641831340000000000027850000000027850002000000010410403300744387788814052100330315141438088   1030000900030000   541119000158190110000000084Pro (1) Global (Pazund YANGONARTAUNG MMR11003300744387788810330000000000000000   10300001F00104100000000001671000000000000     
100   95030301100131580000000000054108000000054108002000000010410403301017417833114052100330957471641088   1030000900030000   541119001355190110000000977Ocean PZD C9           YANGONAUNG    MMR11003301017417833110330000000000000000   10300001F00104100000000003246000000000000     
100   95030301100419020000000000009200000000009200002000000010410403301150127858964052100330717201812088   1030000900030000   541119001195190110000000942City Mart HDC C 10     YANGONUT      MMR11003301150127858960330000000000000000   10300001F00104100000000000552000000000000     
100   62911028202690080000000000015850000000015850002000000010410403300638537771394052100330311081353088   1030000900030000   541119001076190110000000872Sein Gay Har Hledan    YANGONUT      MMR11003300638537771390330000000000000000   10300001F00104100000000000951000000000000     
100   62911028202222620000000000013000000000013000002000000010410403300741487788054052100330266111448088   1030000900030000   541119000112190110000000077Sein Gay Har Chinatown YANGON        MMR11003300741487788050330000000000000000   10300001F00104100000000000780000000000000     
100   95050313710136610000000000010500000000010500002000000010410403300912507813528315290330763421550088   1030000900030000   541119000113190110000000077Sein Gay Har Chinatown YANGON        MMR11003300912507813520330000000000000000   10300001F00104100000000002625000000000000     
100   95050316785465380000000000001960000000001960002000000010410403301135020502346763490330000006903724   1020000200030000   333400010001204104000000281Myanmar Soft-Gate Tech Yangon        MMR11003301135020502340330000000000000000   10300001F05104100000000000412000000000000     
100   95030313499565480000000000003000000000003000002000000010410403301141011101654052100330000006903749   1030000200030000   333800010001203104000003327KBZPay                 Yangon        MMR11003301141011101650330000000000000000   10300001F05104100000000000630000000000000     
100   95050314307746340000000000000980000000000980002000000010410403300945531553141946860330000006902941   1020000200030000   333400010001204104000000281Myanmar Soft-Gate Tech Yangon        MMR11003300945531553140330000000000000000   10300001F05104100000000000206000000000000     
100   95030370087325670000000000300000000000300000002000000010410403291640351035914052100330000006897356   1030000500030000   333800010001201104000003863AYA Pay                Yangon        MMR11003291640351035910330000000000000000   10300001F05104100000000063000000000000000     
100   95030301100344690000000000300000000000300000002000000010410403301336070607234052100330000006904462   1030000200030000   333800010001203104000003327KBZPay                 Yangon        MMR11003301336070607230330000000000000000   10300001F05104100000000063000000000000000     
100   62911028202030150000000000019000000000019000002000000010410403301337360736154052100330000006904470   1030000200030000   333800010001203104000003327KBZPay                 Yangon        MMR11003301337360736150330000000000000000   10300001F05104100000000003990000000000000     
100   95050310332595380000000000002940000000002940002000000010410403300238020802256388020330000006898477   1020000200030000   333400010001204104000000281Myanmar Soft-Gate Tech Yangon        MMR11003300238020802250330000000000000000   10300001F05104100000000000617000000000000     
100   95030370087325670000000000200000000000200000002000000010410403291642241224824052100330000006897362   1030000500030000   333800010001201104000003863AYA Pay                Yangon        MMR11003291642241224820330000000000000000   10300001F05104100000000042000000000000000     
100   62911028202463030000000000010350000000010350002000000010410403301134406212314052100330798071839088   1030000500030000   555610112238104519000010487Ocean Super Center St  ohn           MMR11003301134406212310330000000000000000   10300001 00104100000000000621000000000000     
100   62911028202136750000000000076500000000076500002000000010410403300317427725574052100330561470942088   1030000900030000   541119001218190110000000945City Mart TM C 3       YANGONONE     MMR11003300317427725570330000000000000000   10300001F00104100000000004590000000000000     
100   95050314160856250000000000015622000000015622002000000010410403301019227833668095660330995491622088   1030000900030000   541119001517190110000001102Ocean MGDTM C-10       YANGONADON    MMR11003301019227833660330000000000000000   10300001F00104100000000003906000000000000     
100   62911028202499270000000000030800000000030800002000000010410403301035216201984052100330343031702088   1030000500030000   555610110595104519000009166City Mart 47 Branch                  MMR11003301035216201980330000000000000000   10300001 00104100000000001848000000000000     
100   62911028202295310000000000012500000000012500002000000010410403301109026208204052100330234411718088   1030000500030000   555610112238104519000010487Ocean Super Center St  ohn           MMR11003301109026208200330000000000000000   10300001 00104100000000000750000000000000     
100   95030301100121270000000000025150000000025150002000000010410403300332247728274052100330713021024088   1030000900030000   591219000969190110000000776Shwe Ohh Pharmacy St ( YANGONADA     MMR11003300332247728270330000000000000000   10300001F00104100000000001509000000000000     
100   62911028202212490000000000010300000000010300002000000010410403300424467738984052100330312541046088   1030000900030000   581219000715190110000000546Akkhaya Tea House(Dago YANGON        MMR11003300424467738980330000000000000000   10300001F00104100000000001051000000000000     
100   62911028202482750000000000008346000000008346002000000010410403300956027826544052100330530261602088   1030000900030000   541119000112190110000000077Sein Gay Har Chinatown YANGON        MMR11003300956027826540330000000000000000   10300001F00104100000000000501000000000000     
100   95050319006804440000000000004900000000004900002000000010410403300933080308653258960330000006902831   1020000200030000   333400010001204104000000281Myanmar Soft-Gate Tech Yangon        MMR11003300933080308650330000000000000000   10300001F05104100000000001029000000000000     
100   95030361923040350000000000010000000000010000002000000010410403301040411041054052100330000006903394   1030000200030000   333800010001203104000003327KBZPay                 Yangon        MMR11003301040411041050330000000000000000   10300001F05104100000000002100000000000000     
100   95030301100136200000000000050000000000050000002000000010410403300738080808884052100330000006901603   1030000200030000   333800010001203104000003327KBZPay                 Yangon        MMR11003300738080808880330000000000000000   10300001F05104100000000010500000000000000     
100   95030313499565480000000000005000000000005000002000000010410403300440431043844052100330000006899826   1030000200030000   333800010001203104000003327KBZPay                 Yangon        MMR11003300440431043840330000000000000000   10300001F05104100000000001050000000000000     
100   95050312498129060000000000000980000000000980002000000010410403300059082908618430330330000006897908   1020000200030000   333400010001204104000000281Myanmar Soft-Gate Tech Yangon        MMR11003300059082908610330000000000000000   10300001F05104100000000000206000000000000     
100   62911028202777790000000000014000000000014000002000000010410403301513464346144052100330000006905058   1030000200030000   333800010001203104000003327KBZPay                 Yangon        MMR11003301513464346140330000000000000000   10300001F05104100000000002940000000000000     
100   62911028202660870000000000001000000000001000002000000010410403300226375637204052100330000006898376   1030000200030000   333800010001203104000003327KBZPay                 Yangon        MMR11003300226375637200330000000000000000   10300001F05104100000000000210000000000000     
100   95030301100215990000000000006500000000006500002000000010410403300604376164784052100330302331243088   1030000500030000   555610112252104519000010487Ocean Super Center St  ohn           MMR11003300604376164780330000000000000000   10300001 00104100000000000390000000000000     
100   62911028202136750000000000023700000000023700002000000010410403300328507727714052100330683580950088   1030000900030000   541119001229190110000000946City Mart TM Season C  YANGONONE     MMR11003300328507727710330000000000000000   10300001F00104100000000001422000000000000     
100   95030301100121270000000000010300000000010300002000000010410403300324357726914052100330634540935088   1030000900030000   541119000122190110000000080Sein Gay Har BAK       YANGONADA     MMR11003300324357726910330000000000000000   10300001F00104100000000000618000000000000     
100   95050321685338790000000000014000000000014000002000000010410403301041256202948671260330500091714088   1030000300030000   555510114689104519000012636Win Mobile                           MMR11003301041256202940330000000000000000   10300001 00104100000000003360000000000000     
100   62911028202222620000000000014000000000014000002000000010410403300737517786814052100330188071451088   1030000900030000   541119000113190110000000077Sein Gay Har Chinatown YANGON        MMR11003300737517786810330000000000000000   10300001F00104100000000000840000000000000     
100   95050312173216740000000000116150000000116150002000000010410403301107327848063884010330958371732088   1030000900030000   541119001282190110000000963City Mart SPL C 7      YANGONMYOTHIT MMR11003301107327848060330000000000000000   10300001F00104100000000029038000000000000     
100   62911028202616170000000000083250000000083250002000000010410403301355427881074052100330058252042088   1030000900030000   581219001391190110000000996King BBQ sayarsan      YANGON        MMR11003301355427881070330000000000000000   10300001F00104100000000008492000000000000     
100   95050312020318170000000000020000000000020000002000000010410403290128130004815277040329208807000481   1030000500030000   598320002101000015172200021MAX ENERGY             PTN           MMR11003290128130004810329000000000000000   10300001 00104100000000002400000000000000     
100   62443100379321630000000000040000000000040000002000000010410403300206169109517529930330208909910951   1040001600030000   598320000658000000010000527Shwe Taung Energy (YGN Yangon        MMR11003300206169109510330000000000000000   10300001F00104100000000004800000000000000     
100   95050313702988830000000000001960000000001960002000000010410403301253302330834089850330000006904158   1020000200030000   333400010001204104000000281Myanmar Soft-Gate Tech Yangon        MMR11003301253302330830330000000000000000   10300001F05104100000000000412000000000000     
100   95030370087325670000000000300000000000300000002000000010410403301551272127294052100330000006905266   1030000200030000   333800010001203104000003327KBZPay                 Yangon        MMR11003301551272127290330000000000000000   10300001F05104100000000063000000000000000     
100   95030367537085740000000000009800000000009800002000000010410403300302523252394052100330000006898778   1020000200030000   333400010001204104000000281Myanmar Soft-Gate Tech Yangon        MMR11003300302523252390330000000000000000   10300001F05104100000000002058000000000000     
100   95050318646071770000000000001960000000001960002000000010410403300623485348280862470330000006900876   1020000200030000   333400010001204104000000281Myanmar Soft-Gate Tech Yangon        MMR11003300623485348280330000000000000000   10300001F05104100000000000412000000000000     
100   62443100372718280000000000017900000000017900002000000010410403300450166154522954220330929191143088   1030000500030000   555610112256104519000010487Ocean Super Center St  ohn           MMR11003300450166154520330000000000000000   10300001 00104100000000004475000000000000     
100   62911028202448030000000000050000000000050000002000000010410403300622556167204052100330612511247088   1030000300030000   888810125458104519000021285Shwe Taung Energy CoLt               MMR11003300622556167200330000000000000000   10300001 00104100000000001500000000000000     
100   95030309581505260000000000060300000000060300002000000010410403300732506176564052100330877031404088   1030000300030000   555510124694104519000020166Makro Myanmar                        MMR11003300732506176560330000000000000000   10300001 00104100000000003618000000000000     
100   95030370087325670000000000300000000000300000002000000010410403301550002000994052100330000006905258   1030000200030000   333800010001203104000003327KBZPay                 Yangon        MMR11003301550002000990330000000000000000   10300001F05104100000000063000000000000000     
100   62911028202281450000000000083200000000083200002000000010410403300451059180044052100330208911918004   1040001600030000   591220000287000000010000275Shwe Ohh Pharmacy (Wit Yangon        MMR11003300451059180040330000000000000000   10300001F00104100000000004992000000000000     
100   62911028202231380000000000040000000000040000002000000010410403291204450014224052100329208818001422   1030000500030000   598320001901000015172200019MAX ENERGY             PTN           MMR11003291204450014220329000000000000000   10300001 00104100000000001200000000000000     
100   95030379578686440000000000047850000000047850002000000010410403290953520002764052100329208816000276   1030000500030000   541120020801022205411200208ORANGE (TAMWE)         PTN           MMR11003290953520002760329000000000000000   10300001 00104100000000002871000000000000     
100   62443100318296470000000000032500000000032500002000000010410403292344579052224444590330208906905222   1040001600030000   598320000658000000010000527Shwe Taung Energy (YGN Yangon        MMR11003292344579052220330000000000000000   10300001F00104100000000003900000000000000     
100   62911028202127430000000000250650000000250650002000000010410403300953409335184052100330208916933518   1040001600030000   591220000302000000010000290Shwe Ohh Pharmacy (Nor Yangon        MMR11003300953409335180330000000000000000   10300001F00104100000000015039000000000000     
100   62911028202010920000000000038000000000038000002000000010410403300637376168934052100330858051327088   1030000300030000   888810125940104519000021285Shwe Taung Energy CoLt               MMR11003300637376168930330000000000000000   10300001 00104100000000001140000000000000     
100   62911028202684060000000000057000000000057000002000000010410403300450379179794052100330208911917979   1040001600030000   598320000658000000010000527Shwe Taung Energy (YGN Yangon        MMR11003300450379179790330000000000000000   10300001F00104100000000001710000000000000     
100   95050313970192050000000000007250000000007250002000000010410403301231566220522607560330851041936088   1030000500030000   555610112651104519000010846City Express MCS 34                  MMR11003301231566220520330000000000000000   10300001 00104100000000001813000000000000     
100   62911028202708080000000000040000000000040000002000000010410403290944500005524052100329208816000552   1030000500030000   598320002004000015172200020MAX ENERGY             PTN           MMR11003290944500005520329000000000000000   10300001 00104100000000001200000000000000     
100   95030305100040620000000000068000000000068000002000000010410403291202150006404052100329208812000640   1030000600030000   554100000523315799420000140DENKO BAHAN MINIMART   YANGON        MMR11003291202150006400329000000000000000   10300001 00104100000000002040000000000000     
100   62911028202313470000000000060000000000060000002000000010410403291302510004764052100329208819000476   1030000500030000   598320001601000015172200016MAX ENERGY             PTN           MMR11003291302510004760329000000000000000   10300001 00104100000000001800000000000000     
100   62911028202485720000000000015000000000015000002000000010410403291025280010494052100329208816001049   1030000500030000   598320001202000015172200012MAX ENERGY             PTN           MMR11003291025280010490329000000000000000   10300001 00104100000000000450000000000000     
100   95050319524870520000000000008850000000008850002000000010410403290922100027121622620329000337512382   1030000300030000   591200000225000000000000120CB BANK                MEDICARE STOR MMR11003290922100027120329000000000000000   10300001F00104100000000002124000000000000     
100   62911028202463030000000000081300000000081300002000000010410403291118560044524052100329000744855103   1030000200030000   596588000900000008000000712KBZ BANK               AK CONCEPT SH MMR11003291118560044520329000000000000000   10300001 00104100000000004878000000000000     
100   95030338164853990000000000665000000000665000002000000010410403290357430027124052100329208803002712   1030000600030000   509400000546315799420000148SHWE SAN EAIN J.C      YANGON        MMR11003290357430027120329000000000000000   10300001 00104100000000066500000000000000     
100   95050321685338790000000000073780000000073780002000000010410403291122240018194494030329000744878266   1030000200030000   569988000805000008000004620KBZ BANK               STJ-BLAZON    MMR11003291122240018190329000000000000000   10300001 00104100000000017707000000000000     
100   95030301100119390000000000300000000000300000002000000010410403300112404240024052100330000006897958   1030000200030000   333800010001203104000003327KBZPay                 Yangon        MMR11003300112404240020330000000000000000   10300001F05104100000000063000000000000000     
100   95030318100002710000000000020000000000020000002000000010410403301213464346334052100330000006903950   1030000200030000   333800010001203104000003327KBZPay                 Yangon        MMR11003301213464346330330000000000000000   10300001F05104100000000004200000000000000     
100   95050320335873810000000000000980000000000980002000000010410403300328155815052863410330000006899077   1020000200030000   333400010001204104000000281Myanmar Soft-Gate Tech Yangon        MMR11003300328155815050330000000000000000   10300001F05104100000000000206000000000000     
100   62911028202492080000000000031300000000031300002000000010410403300542436163654052100330144241233088   1030000300030000   555510120538104519000017437Art and T8                           MMR11003300542436163650330000000000000000   10300001 00104100000000001878000000000000     
100   95030301100215990000000000036500000000036500002000000010410403300608236165294052100330376371251088   1030000500030000   555610112248104519000010487Ocean Super Center St  ohn           MMR11003300608236165290330000000000000000   10300001 00104100000000002190000000000000     
100   95050311184380560000000000000980000000000980002000000010410403300252292229567153880330000006898647   1020000200030000   333400010001204104000000281Myanmar Soft-Gate Tech Yangon        MMR11003300252292229560330000000000000000   10300001F05104100000000000206000000000000     
100   95050312926040930000000000008000000000008000002000000010410403292142561256714359500330000006897671   1030000200030000   333800010001203104000003327KBZPay                 Yangon        MMR11003292142561256710330000000000000000   10300001F05104100000000001680000000000000     
100   95050318741700180000000000001960000000001960002000000010410403300404403440967535640330000006899451   1020000200030000   333400010001204104000000281Myanmar Soft-Gate Tech Yangon        MMR11003300404403440960330000000000000000   10300001F05104100000000000412000000000000     
100   62443100325551180000000000034351000000034351002000000010410403290708360000065523260329000337494652   1030000300030000   541100000444000000000000319CB BANK                ONESTOP KITCH MMR11003290708360000060329000000000000000   10300001F00104100000000008588000000000000     
100   95030306100103570000000000024600000000024600002000000010410403301712170094924052100330000744921950   1030000200030000   541188001246000008000000323KBZ BANK               CITY MART - I MMR11003301712170094920330000000000000000   10300001 00104100000000001476000000000000     
100   62911028202133520000000000013200000000013200002000000010410403301214167864054052100330053441816088   1030000900030000   541119001191190110000000942City Mart HDC C 6      YANGONUT      MMR11003301214167864050330000000000000000   10300001F00104100000000000792000000000000     
100   62911028202290100000000000038200000000038200002000000010410403300921239317754052100330208916931775   1040001600030000   591220000295000000010000283Shwe Ohh Pharmacy (39t Yangon        MMR11003300921239317750330000000000000000   10300001F00104100000000002292000000000000     
100   95030305100040620000000000089000000000089000002000000010410403291207540053274052100329208812005327   1030000600030000   554100002085315799420000471DENKO BAHAN            YANGON        MMR11003291207540053270329000000000000000   10300001 00104100000000002670000000000000     
100   62443101000669310000000000149100000000149100002000000010410403301332369528162451160330208920952816   1040001600030000   581420000139000000010000131SUSHI TEI MYANMAR      Yangon        MMR11003301332369528160330000000000000000   10300001F00104100000000017892000000000000     
100   95030305100040620000000000068000000000068000002000000010410403291203060006414052100329208812000641   1030000600030000   554100000523315799420000140DENKO BAHAN MINIMART   YANGON        MMR11003291203060006410329000000000000000   10300001 00104100000000002040000000000000     
100   62911028202218270000000000058550000000058550002000000010410403301016389351804052100330208917935180   1040001600030000   591220000296000000010000284Shwe Ohh Pharmacy (Lan Yangon        MMR11003301016389351800330000000000000000   10300001F00104100000000003513000000000000     
100   95030301100124570000000000040000000000040000002000000010410403290200440005074052100329208808000507   1030000500030000   598320002102000015172200021MAX ENERGY             PTN           MMR11003290200440005070329000000000000000   10300001 00104100000000001200000000000000     
100   62911028202196800000000000500000000000500000002000000010410403290847410013174052100329208815001317   1030000500030000   806220009106024108062200091ARYU INTL HOSPITAL     PTN           MMR11003290847410013170329000000000000000   10300001 00104100000000030000000000000000     
100   95050328074436620000000000030750000000030750002000000010410403291015580000236275340329208816000023   1030000500030000   591220012501014405912200125SHWE OHH PHARMACY      PTN           MMR11003291015580000230329000000000000000   10300001 00104100000000007380000000000000     
100   62911028202909050000000000014200000000014200002000000010410403290639470000524052100329208813000052   1030000500030000   531120155716000045311201557GAMONE PWINT           PTN           MMR11003290639470000520329000000000000000   10300001 00104100000000000852000000000000     
100   62911028202448030000000000030000000000030000002000000010410403291136300001984052100329208818000198   1030000500030000   598320001203000015172200012MAX ENERGY             PTN           MMR11003291136300001980329000000000000000   10300001 00104100000000000900000000000000     
100   95030301100344690000000000020000000000020000002000000010410403291103320008284052100329208817000828   1030000500030000   598320001403000015172200014MAX ENERGY             PTN           MMR11003291103320008280329000000000000000   10300001 00104100000000000600000000000000     
100   62911028202135350000000000278300000000278300002000000010410403291316390002344052100329208819000234   1030000500030000   581220146401013205812201464THAI 47 (HELPIN BRANCH PTN           MMR11003291316390002340329000000000000000   10300001 00104100000000028387000000000000     
100   95030325264619140000000000020000000000020000002000000010410403290537060005504052100329208812000550   1030000500030000   598320001603000015172200016MAX ENERGY             PTN           MMR11003290537060005500329000000000000000   10300001 00104100000000000600000000000000     
100   62911028202803930000000000300000000000300000002000000010410403300507363736664052100330000006900147   1030000200030000   333800010001203104000003327KBZPay                 Yangon        MMR11003300507363736660330000000000000000   10300001F05104100000000063000000000000000     
100   62911028202161240000000000059450000000059450002000000010410403300542512953254052100330125106388850   1040001400030000   546210000143025462100000389STK Bakery Supply STK  akery Supply  MMR11003300542512953250330000000000000000   10300001 00104100000000003567000000000000     
100   95050318646071770000000000004900000000004900002000000010410403300502253225692685150330000006900083   1020000200030000   333400010001204104000000281Myanmar Soft-Gate Tech Yangon        MMR11003300502253225690330000000000000000   10300001F05104100000000001029000000000000     
100   62911028202764900000000000002000000000002000002000000010410403301505463546084052100330000006905013   1030000200030000   333800010001203104000003327KBZPay                 Yangon        MMR11003301505463546080330000000000000000   10300001F05104100000000000420000000000000     
100   95030301100121840000000000300000000000300000002000000010410403301119324932984052100330000006903636   1030000200030000   333800010001203104000003327KBZPay                 Yangon        MMR11003301119324932980330000000000000000   10300001F05104100000000063000000000000000     
100   95050314117051850000000000025000000000025000002000000010410403300428305830702989880330000006899705   1030000200030000   3338000100012031040000040022C2P (Myanmar) Co. Ltd Yangon        MMR11003300428305830700330000000000000000   10300001F05104100000000005250000000000000     
100   95030301100117720000000000300000000000300000002000000010410403301457532753504052100330000006904960   1030000200030000   333800010001203104000003327KBZPay                 Yangon        MMR11003301457532753500330000000000000000   10300001F05104100000000063000000000000000     
100   95030301100119390000000000030000000000030000002000000010410403291720585058374052100330000006897460   1030000200030000   333800010001203104000003327KBZPay                 Yangon        MMR11003291720585058370330000000000000000   10300001F05104100000000006300000000000000     
100   95030301100129110000000000158850000000158850002000000010410403301226539470264052100330208919947026   1040001600030000   591220000303000000010000291Shwe Ohh Pharmacy (Kyu Yangon        MMR11003301226539470260330000000000000000   10300001F00104100000000009531000000000000     
100   95050319156011610000000000074407000000074407002000000010410403301324467877285415740330894541946088   1030000900030000   541119001358190110000000977Ocean PZD C 12         YANGONAUNG    MMR11003301324467877280330000000000000000   10300001F00104100000000018602000000000000     
100   62911028202161240000000000001400000000001400002000000010410403301111560045094052100330000744900675   1030000200030000   541188001033000008000000298KBZ BANK               CITY MART - M MMR11003301111560045090330000000000000000   10300001 00104100000000000084000000000000     
100   95050317621139300000000000005750000000005750002000000010410403301208037862795742330330964381803088   1030000900030000   541119001331190110000000971Ocean Junction NPT C 9 NAYPYITAW     MMR11003301208037862790330000000000000000   10300001F00104100000000001438000000000000     
100   95030301100121270000000000005000000000005000002000000010410403300708509255094052100330208914925509   1040001600030000   581420000103000000010000099Cha Tra Mue (Junction  Yangon        MMR11003300708509255090330000000000000000   10300001F00104100000000000150000000000000     
100   62911028202026290000000000200000000000200000002000000010410403300218044804394052100330000006898309   1030000200030000   333800010001203104000003327KBZPay                 Yangon        MMR11003300218044804390330000000000000000   10300001F05104100000000042000000000000000     
100   62911028202026290000000000060000000000060000002000000010410403300218474847934052100330000006898312   1030000200030000   333800010001203104000003327KBZPay                 Yangon        MMR11003300218474847930330000000000000000   10300001F05104100000000012600000000000000     
100   62911028202417260000000000040000000000040000002000000010410403290132220007114052100329208808000711   1030000500030000   598320001403000015172200014MAX ENERGY             PTN           MMR11003290132220007110329000000000000000   10300001 00104100000000001200000000000000     
100   95050324411430900000000000100000000000100000002000000010410403290549350001137162950329208805000113   1030000600030000   481200002344315799420001629TECHNOLAND INYA STREET YANGON        MMR11003290549350001130329000000000000000   10300001 00104100000000024000000000000000     
100   62911028202471860000000000055000000000055000002000000010410403290752300001914052100329208814000191   1030000500030000   598320115101005405983201151PT POWER (HLEGU)       PTN           MMR11003290752300001910329000000000000000   10300001 00104100000000001650000000000000     
100   62911028202446700000000000020000000000020000002000000010410403290200500005294052100329208808000529   1030000500030000   598320002001000015172200020MAX ENERGY             PTN           MMR11003290200500005290329000000000000000   10300001 00104100000000000600000000000000     
100   62911028202527800000000000060000000000060000002000000010410403290141270005294052100329208808000529   1030000500030000   598320001604000015172200016MAX ENERGY             PTN           MMR11003290141270005290329000000000000000   10300001 00104100000000001800000000000000     
100   62911028202170490000000000035000000000035000002000000010410403290918240006094052100329208815000609   1030000500030000   598320001401000015172200014MAX ENERGY             PTN           MMR11003290918240006090329000000000000000   10300001 00104100000000001050000000000000     
100   62911028202481760000000000292124000000292124002000000010410403290721470049794052100329208807004979   1030000600030000   809900000539315799420000147GRAND HANTHA HOSPITAL  YANGON        MMR11003290721470049790329000000000000000   10300001 00104100000000017527000000000000     
100   95030385550669610000000000020350000000020350002000000010410403291102370673944052100329208811067394   1030000600030000   554100000957315799420000480DENKO N.DAGON - 3      YANGON        MMR11003291102370673940329000000000000000   10300001 00104100000000000611000000000000     
100   95050316818236190000000000002940000000002940002000000010410403300224175417765877440330000006898357   1020000200030000   333400010001204104000000281Myanmar Soft-Gate Tech Yangon        MMR11003300224175417760330000000000000000   10300001F05104100000000000617000000000000     
100   95050312498129060000000000004900000000004900002000000010410403300240591059084820630330000006898512   1020000200030000   333400010001204104000000281Myanmar Soft-Gate Tech Yangon        MMR11003300240591059080330000000000000000   10300001F05104100000000001029000000000000     
100   95030301100121840000000000300000000000300000002000000010410403301206533653814052100330000006903920   1030000200030000   333800010001203104000003327KBZPay                 Yangon        MMR11003301206533653810330000000000000000   10300001F05104100000000063000000000000000     
100   62443101076362230000000000010000000000010000002000000010410403300516324632932138920330000006900225   1030000300030000   333300010001206104000002147DICA Company Limited   Yangon        MMR11003300516324632930330000000000000000   10300001F05104100000000010000000000000000     
100   95030370087325670000000000200000000000200000002000000010410403300321185118464052100330000006899003   1030000500030000   333800010001201104000003863AYA Pay                Yangon        MMR11003300321185118460330000000000000000   10300001F05104100000000042000000000000000     
100   95030301100119390000000000300000000000300000002000000010410403291725205520574052100330000006897473   1030000200030000   333800010001203104000003327KBZPay                 Yangon        MMR11003291725205520570330000000000000000   10300001F05104100000000063000000000000000     
100   95050319220344710000000000004900000000004900002000000010410403300709483948276251120330000006901290   1020000200030000   333400010001204104000000281Myanmar Soft-Gate Tech Yangon        MMR11003300709483948270330000000000000000   10300001F05104100000000001029000000000000     
100   62911028202026290000000000300000000000300000002000000010410403300212244224454052100330000006898277   1030000200030000   333800010001203104000003327KBZPay                 Yangon        MMR11003300212244224450330000000000000000   10300001F05104100000000063000000000000000     
100   62911028202045260000000000036787000000036787002000000010410403290945500140134052100329208809014013   1030000600030000   809900000541315799420000147GRAND HANTHA HOSPITAL  YANGON        MMR11003290945500140130329000000000000000   10300001 00104100000000002207000000000000     
100   62911028202445480000000000614000000000614000002000000010410403290626370075554052100329208806007555   1030000600030000   554100000745315799420000323DENKO SWAL TAW MDY     MANDALAY      MMR11003290626370075550329000000000000000   10300001 00104100000000018420000000000000     
100   62443100374831340000000000029060000000029060002000000010410403290606520036884524960329000337485993   1030000300030000   806200000197000000000000097CB BANK                AUNG YADANA H MMR11003290606520036880329000000000000000   10300001F00104100000000006974000000000000     
100   95050321232876860000000000080000000000080000002000000010410403290307480334595639300329208803033459   1030000600030000   554100001865315799420001235DENKO NAY PYI TAW 2    NAYPYITAW     MMR11003290307480334590329000000000000000   10300001 00104100000000009600000000000000     
100   95050318741700180000000000007650000000007650002000000010410403290936300034176566280329000337514152   1030000300030000   541100000443000000000000319CB BANK                ONESTOP KITCH MMR11003290936300034170329000000000000000   10300001F00104100000000001913000000000000     
100   95030305100040620000000000080000000000080000002000000010410403291159250053234052100329208811005323   1030000600030000   554100002085315799420000471DENKO BAHAN            YANGON        MMR11003291159250053230329000000000000000   10300001 00104100000000002400000000000000     
100   62443100313002190000000000030000000000030000002000000010410403291016200425004537760329208810042500   1030000600030000   554100001001315799420000498DENKO SHWE PYI THAR    YANGON        MMR11003291016200425000329000000000000000   10300001 00104100000000003600000000000000     
100   62911028202204490000000000078000000000078000002000000010410403291234190053324052100329208812005332   1030000600030000   554100002085315799420000471DENKO BAHAN            YANGON        MMR11003291234190053320329000000000000000   10300001 00104100000000002340000000000000     
100   95030370087325670000000000300000000000300000002000000010410403301522375237244052100330000006905119   1030000200030000   333800010001203104000003327KBZPay                 Yangon        MMR11003301522375237240330000000000000000   10300001F05104100000000063000000000000000     
100   95050319111666800000000000000980000000000980002000000010410403300823565356375045980330000006902126   1020000200030000   333400010001204104000000281Myanmar Soft-Gate Tech Yangon        MMR11003300823565356370330000000000000000   10300001F05104100000000000206000000000000     
100   62911028202737030000000000300000000000300000002000000010410403301320365036164052100330000006904352   1030000200030000   333800010001203104000003327KBZPay                 Yangon        MMR11003301320365036160330000000000000000   10300001F05104100000000063000000000000000     
100   62911028202011260000000000165000000000165000002000000010410403300824415441764052100330000006902132   1030000200030000   333800010001203104000003327KBZPay                 Yangon        MMR11003300824415441760330000000000000000   10300001F05104100000000034650000000000000     
100   95030325264619140000000000045000000000045000002000000010410403300634196169144052100330890071300088   1030000300030000   555510125344104519000010634Asia Royal Co Ltd                    MMR11003300634196169140330000000000000000   10300001 00104100000000002700000000000000     
100   95050315955808830000000000126400000000126400002000000010410403301455202520802366060330000006904945   1030000200030000   333800010001203104000003327KBZPay                 Yangon        MMR11003301455202520800330000000000000000   10300001F05104100000000026544000000000000     
100   95030301100193120000000000100000000000100000002000000010410403301511304130414052100330000006905046   1030000200030000   333800010001203104000003327KBZPay                 Yangon        MMR11003301511304130410330000000000000000   10300001F05104100000000021000000000000000     
100   95050311184380560000000000000980000000000980002000000010410403300249501950775416300330000006898613   1020000200030000   333400010001204104000000281Myanmar Soft-Gate Tech Yangon        MMR11003300249501950770330000000000000000   10300001F05104100000000000206000000000000     
