100   95050329252108030000000000025800000000025800002000000010410404021122360003599207060402000745061125   1030000200030000   569988000785000008000004550KBZ BANK               JML-ZAXY      MMR11004021122360003590402000000000000000   10300001 00104100000000006192000000000000     
100   62911028202446130000000000016700000000016700002000000010410404020909530000114052100402209215000011   1030000500030000   566120038101016505661200381RIPPLE FLIPFLOPS       PTN           MMR11004020909530000110402000000000000000   10300001 00104100000000001002000000000000     
100   95030339867270590000000000051000000000051000002000000010410404020821580002174052100402209214000217   1030000500030000   569120069001008205691200690ESCORT                 PTN           MMR11004020821580002170402000000000000000   10300001 00104100000000003060000000000000     
100   95030353305053700000000000234398000000234398002000000010410404020519250000084052100402209211000008   1030000500030000   829920122401000018299201224KMD (KYAUKTADA)        PTN           MMR11004020519250000080402000000000000000   10300001 00104100000000014064000000000000     
100   62911028202189480000000000040700000000040700002000000010410404020656110000984384700402209213000098   1030000500030000   591220010601014405912200106SHWE OHH PHARMACY      PTN           MMR11004020656110000980402000000000000000   10300001 00104100000000002442000000000000     
100   62911028202527800000000000034750000000034750002000000010410404020255030007924052100402209209000792   1030000500030000   598320001601000015172200016MAX ENERGY             PTN           MMR11004020255030007920402000000000000000   10300001 00104100000000001043000000000000     
100   62911028202525820000000000060000000000060000002000000010410404020709550010754052100402209213001075   1030000500030000   598320002101000015172200021MAX ENERGY             PTN           MMR11004020709550010750402000000000000000   10300001 00104100000000001800000000000000     
100   62443100360763680000000000146940000000146940002000000010410404021119430001090859550402209217000109   1030000500030000   569120159701009305691201597MK FASHION SHOP        PTN           MMR11004021119430001090402000000000000000   10300001 00104100000000035266000000000000     
100   95050323233042810000000000000980000000000980002000000010410404031028115811340527240403000006930123   1020000200030000   333400010001204104000000281Myanmar Soft-Gate Tech Yangon        MMR11004031028115811340403000000000000000   10300001F05104100000000000206000000000000     
100   62911028202737030000000000300000000000300000002000000010410404031326495649284052100403000006930863   1030000200030000   333800010001203104000003327KBZPay                 Yangon        MMR11004031326495649280403000000000000000   10300001F05104100000000063000000000000000     
100   95030391376131630000000000035000000000035000002000000010410404031128175817634052100403000006930390   1030000200030000   333800010001203104000003327KBZPay                 Yangon        MMR11004031128175817630403000000000000000   10300001F05104100000000007350000000000000     
100   62911028202110340000000000021100000000021100002000000010410404030722256672214997910403633501331092   1030000500030000   555610114572104519000012532City Mart Ahlone Branc               MMR11004030722256672210403000000000000000   10300001 00104100000000001266000000000000     
100   62911028202684060000000000009915000000009915002000000010410404030430456641424052100403520011103092   1030000500030000   555610122578104519000018896City Mart Hlaing Thar  ar            MMR11004030430456641420403000000000000000   10300001 00104100000000000595000000000000     
100   95050327416134790000000000001960000000001960002000000010410404030824105410642058970403000006929612   1020000200030000   333400010001204104000000281Myanmar Soft-Gate Tech Yangon        MMR11004030824105410640403000000000000000   10300001F05104100000000000412000000000000     
100   95030367537085740000000000000980000000000980002000000010410404030324205420664052100403000006928098   1020000200030000   333400010001204104000000281Myanmar Soft-Gate Tech Yangon        MMR11004030324205420660403000000000000000   10300001F05104100000000000206000000000000     
100   95050318617855880000000000000980000000000980002000000010410404031628565856136535780403000006931580   1020000200030000   333400010001204104000000281Myanmar Soft-Gate Tech Yangon        MMR11004031628565856130403000000000000000   10300001F05104100000000000206000000000000     
100   62911028202151590000000000011000000000011000002000000010410404020557540001094384700402209212000109   1030000500030000   569120066901008205691200669ESCORT                 PTN           MMR11004020557540001090402000000000000000   10300001 00104100000000000660000000000000     
100   95030301100117720000000000082300000000082300002000000010410404020646580007944052100402209213000794   1030000500030000   503920036610000015039200366PRO-1 HOME CENTER      PTN           MMR11004020646580007940402000000000000000   10300001 00104100000000004938000000000000     
100   62911028202761360000000000116000000000116000002000000010410404020903150001204052100402209215000120   1030000500030000   569120159601019505691201596MK FASHION SHOP        PTN           MMR11004020903150001200402000000000000000   10300001 00104100000000006960000000000000     
100   62911028202708080000000000082350000000082350002000000010410404020837410001484052100402209215000148   1030000500030000   531120155710000045311201557GAMONE PWINT           PTN           MMR11004020837410001480402000000000000000   10300001 00104100000000004941000000000000     
100   62911028202761360000000000142271000000142271002000000010410404020608360000594560710402209212000059   1030000500030000   569120102801019505691201028MK FASHION SHOP        PTN           MMR11004020608360000590402000000000000000   10300001 00104100000000008536000000000000     
100   95030313499565480000000000052950000000052950002000000010410404020618070003484384700402000338145797   1030000300030000   531100000750000000000000408CB BANK                CAPITAL HYPER MMR11004020618070003480402000000000000000   10300001F00104100000000003177000000000000     
100   62911028202421200000000000055000000000055000002000000010410404020309450004594052100402209209000459   1030000500030000   598320001702000015172200017MAX ENERGY             PTN           MMR11004020309450004590402000000000000000   10300001 00104100000000001650000000000000     
100   95050317175714970000000000020900000000020900002000000010410404020424250000677667250402209210000067   1030000500030000   591220012101014405912200121SHWE OHH PHARMACY      PTN           MMR11004020424250000670402000000000000000   10300001 00104100000000005016000000000000     
100   62911028202207460000000000043392000000043392002000000010410404030617096660784052100403066461209092   1030000500030000   555610112242104519000010487Ocean Super Center St  ohn           MMR11004030617096660780403000000000000000   10300001 00104100000000002604000000000000     
100   95050318180109730000000000035000000000035000002000000010410404030602316657623747110403628301230092   1030000500030000   555610112242104519000010487Ocean Super Center St  ohn           MMR11004030602316657620403000000000000000   10300001 00104100000000008750000000000000     
100   62911028202148970000000000004250000000004250002000000010410404030643576665804786210403760151315092   1030000300030000   444410116806104519000014353BreadTalk JunctionCity               MMR11004030643576665800403000000000000000   10300001 00104100000000000434000000000000     
100   95030301100120850000000000027100000000027100002000000010410404031020086705994052100403322491652092   1030000500030000   555610112234104519000010487Ocean Super Center St  ohn           MMR11004031020086705990403000000000000000   10300001 00104100000000001626000000000000     
100   95050316818236190000000000000980000000000980002000000010410404031127495749640521520403000006930386   1020000200030000   333400010001204104000000281Myanmar Soft-Gate Tech Yangon        MMR11004031127495749640403000000000000000   10300001F05104100000000000206000000000000     
100   62911028202807400000000000107150000000107150002000000010410404031000486702694052100403892301641092   1030000300030000   555510124691104519000020166Makro Myanmar                        MMR11004031000486702690403000000000000000   10300001 00104100000000006429000000000000     
100   62911028202045260000000000010400000000010400002000000010410404031022216706026074610403327491658092   1030000500030000   555610120972104519000017735City Express MCS 24                  MMR11004031022216706020403000000000000000   10300001 00104100000000000624000000000000     
100   95050314893649800000000000001960000000001960002000000010410404030857292729678754000403000006929741   1020000200030000   333400010001204104000000281Myanmar Soft-Gate Tech Yangon        MMR11004030857292729670403000000000000000   10300001F05104100000000000412000000000000     
100   95030301100086460000000000030000000000030000002000000010410404020122370012664052100402209207001266   1030000500030000   598320001304000015172200013MAX ENERGY             PTN           MMR11004020122370012660402000000000000000   10300001 00104100000000000900000000000000     
100   95030339867270590000000000037200000000037200002000000010410404020909550000264052100402209215000026   1030000500030000   569120009201016505691200092SOON FASHION SHOP      PTN           MMR11004020909550000260402000000000000000   10300001 00104100000000002232000000000000     
100   95030339867270590000000000042000000000042000002000000010410404021028180001276119000402209216000127   1030000500030000   531120155717000045311201557GAMONE PWINT           PTN           MMR11004021028180001270402000000000000000   10300001 00104100000000002520000000000000     
100   95050325925517520000000000047000000000047000002000000010410404020414260015836695540402209210001583   1030000500030000   598320001201000015172200012MAX ENERGY             PTN           MMR11004020414260015830402000000000000000   10300001 00104100000000005640000000000000     
100   62911028202171550000000000020000000000020000002000000010410404020635270004994721810402209213000499   1030000500030000   598320001701000015172200017MAX ENERGY             PTN           MMR11004020635270004990402000000000000000   10300001 00104100000000000600000000000000     
100   62911028202189480000000000074500000000074500002000000010410404020602460000974052100402209212000097   1030000500030000   591220010601014405912200106SHWE OHH PHARMACY      PTN           MMR11004020602460000970402000000000000000   10300001 00104100000000004470000000000000     
100   95030301100183220000000000028000000000028000002000000010410404020228410001304384700402209208000130   1030000500030000   598320004502000015172200045MAX ENERGY             PTN           MMR11004020228410001300402000000000000000   10300001 00104100000000000840000000000000     
100   62911028202162640000000000023450000000023450002000000010410404021041060002614052100402209217000261   1030000500030000   541120020901022205411200209ORANGE (HLAING)        PTN           MMR11004021041060002610402000000000000000   10300001 00104100000000001407000000000000     
100   62443100372421420000000000058861000000058861002000000010410404030434186654843818410403221141241092   1030000500030000   555610103970104519000003818Ocean Oattara Thiri Na PyiTaw        MMR11004030434186654840403000000000000000   10300001 00104100000000014716000000000000     
100   62911028202118690000000000113000000000113000002000000010410404030613056659984052100403954411243092   1030000300030000   555510124688104519000020166Makro Myanmar                        MMR11004030613056659980403000000000000000   10300001 00104100000000006780000000000000     
100   62911028202206880000000000067200000000067200002000000010410404030712516672164052100403627491352092   1030000300030000   555510124691104519000020166Makro Myanmar                        MMR11004030712516672160403000000000000000   10300001 00104100000000004032000000000000     
100   62911028202691640000000000150000000000150000002000000010410404030844046687594052100403737111541092   1030000300030000   555510124696104519000020166Makro Myanmar                        MMR11004030844046687590403000000000000000   10300001 00104100000000009000000000000000     
100   62911028202674810000000000040150000000040150002000000010410404031032596708094052100403628001740092   1030000300030000   555510124689104519000020166Makro Myanmar                        MMR11004031032596708090403000000000000000   10300001 00104100000000002409000000000000     
100   95050317728825080000000000015239000000015239002000000010410404030555066657408789650403600291200092   1030000500030000   555610103477104519000003432City Mart Junction Zaw na 4          MMR11004030555066657400403000000000000000   10300001 00104100000000003810000000000000     
100   95030302100062270000000000121450000000121450002000000010410404030831046685154052100403406001502092   1030000300030000   555510124694104519000020166Makro Myanmar                        MMR11004030831046685150403000000000000000   10300001 00104100000000007287000000000000     
100   62443100344229520000000000006750000000006750002000000010410404030343228604703442370403554131022092   1030000900030000   541119001290190110000000965City Mart SPL City Car YANGONMYOTHIT MMR11004030343228604700403000000000000000   10300001F00104100000000001688000000000000     
100   62911028202185670000000000030000000000030000002000000010410404020357180010014052100402209210001001   1030000500030000   598320068301000055983200683MAX ENERGY             PTN           MMR11004020357180010010402000000000000000   10300001 00104100000000000900000000000000     
100   95050322312197120000000000218950000000218950002000000010410404020722250008005633020402209213000800   1030000500030000   503920036610000015039200366PRO-1 HOME CENTER      PTN           MMR11004020722250008000402000000000000000   10300001 00104100000000052548000000000000     
100   95030339867270590000000000030510000000030510002000000010410404021018250002064052100402209216000206   1030000500030000   531120155707000045311201557GAMONE PWINT           PTN           MMR11004021018250002060402000000000000000   10300001 00104100000000001831000000000000     
100   95030379578686440000000000022150000000022150002000000010410404020202110004334384700402000338111947   1030000300030000   541100000589000000000000401CB BANK                ONE STOP MART MMR11004020202110004330402000000000000000   10300001F00104100000000001329000000000000     
100   62911028202171550000000000020000000000020000002000000010410404020635570005004052100402209213000500   1030000500030000   598320001701000015172200017MAX ENERGY             PTN           MMR11004020635570005000402000000000000000   10300001 00104100000000000600000000000000     
100   62911028202761360000000000602600000000602600002000000010410404020854020001184052100402209215000118   1030000500030000   569120159601019505691201596MK FASHION SHOP        PTN           MMR11004020854020001180402000000000000000   10300001 00104100000000036156000000000000     
100   62443100395964530000000000026400000000026400002000000010410404020617090001607782290402209212000160   1030000500030000   503920036602000015039200366PRO-1 HOME CENTER      PTN           MMR11004020617090001600402000000000000000   10300001 00104100000000006336000000000000     
100   95050322104201170000000000018568000000018568002000000010410404020555070003300030450402209212000330   1030000500030000   531120155712000045311201557GAMONE PWINT           PTN           MMR11004020555070003300402000000000000000   10300001 00104100000000004456000000000000     
100   62443100337100010000000000024650000000024650002000000010410404030257558596887159030403992270955092   1030000900030000   541119001156190110000000930OCEAN HTY C 6          YANGONTHARYA  MMR11004030257558596880403000000000000000   10300001F00104100000000006163000000000000     
100   95030333100021460000000000000900000000000900002000000010410404030416118610514052100403996461011092   1030000900030000   581219001105190110000000890Shwepalin City Mall Ta YANGONAW      MMR11004030416118610510403000000000000000   10300001F00104100000000000092000000000000     
100   95050320205194540000000000075264000000075264002000000010410404030610568639281413850403328401256092   1030000900030000   541119001261190110000000958City Mart PLST C 4     YANGONMYOTHIT MMR11004030610568639280403000000000000000   10300001F00104100000000018816000000000000     
100   62911028202284420000000000065010000000065010002000000010410404030805108668125268300403543351410092   1030000900030000   541119001187190110000000942City Mart HDC C 2      YANGONUT      MMR11004030805108668120403000000000000000   10300001F00104100000000003901000000000000     
100   62443101006037900000000000025750000000025750002000000010410404030815116736916280490403581222052092   1030000300030000   444410116456104519000014056Shwe Kaung Mawtin                    MMR11004030815116736910403000000000000000   10300001 00104100000000010944000000000000     
100   62911028202417260000000000021700000000021700002000000010410404030307338598374052100403098370933092   1030000900030000   581219000715190110000000546Akkhaya Tea House(Dago YANGON        MMR11004030307338598370403000000000000000   10300001F00104100000000002213000000000000     
100   62443100378093870000000000083550000000083550002000000010410404030541508632335555990403778111250092   1030000900030000   541119001208190110000000948City Mart YK C 6       YANGONAUNG    MMR11004030541508632330403000000000000000   10300001F00104100000000020888000000000000     
100   62911028202313470000000000057400000000057400002000000010410404030523408627924052100403424531140092   1030000900030000   591219000609190110000000449Shwe Ohh Pharmacy St-3 YANGONAUNG    MMR11004030523408627920403000000000000000   10300001F00104100000000003444000000000000     
100   95050329252108030000000000043000000000043000002000000010410404020603080010170285740402209212001017   1030000500030000   598320002104000015172200021MAX ENERGY             PTN           MMR11004020603080010170402000000000000000   10300001 00104100000000005160000000000000     
100   95030312100077850000000000046000000000046000002000000010410404020639580013774052100402209213001377   1030000500030000   598320001303000015172200013MAX ENERGY             PTN           MMR11004020639580013770402000000000000000   10300001 00104100000000001380000000000000     
100   95030301100129110000000000057000000000057000002000000010410404021724350045464052100402000745059739   1030000200030000   596588000900000008000000712KBZ BANK               AK CONCEPT SH MMR11004021724350045460402000000000000000   10300001 00104100000000003420000000000000     
100   95050329734064360000000000020000000000020000002000000010410404021024430016483944880402209216001648   1030000500030000   598320001201000015172200012MAX ENERGY             PTN           MMR11004021024430016480402000000000000000   10300001 00104100000000002400000000000000     
100   62911028202088990000000000050000000000050000002000000010410404021142400014244052100402209218001424   1030000500030000   598320001404000015172200014MAX ENERGY             PTN           MMR11004021142400014240402000000000000000   10300001 00104100000000001500000000000000     
100   95030301100129110000000000030000000000030000002000000010410404021144150015634052100402209218001563   1030000500030000   598320001403000015172200014MAX ENERGY             PTN           MMR11004021144150015630402000000000000000   10300001 00104100000000000900000000000000     
100   62911028202446540000000000059000000000059000002000000010410404020257010015643411210402209209001564   1030000500030000   598320001201000015172200012MAX ENERGY             PTN           MMR11004020257010015640402000000000000000   10300001 00104100000000001770000000000000     
100   62911028202448030000000000030000000000030000002000000010410404020153090015513028000402209208001551   1030000500030000   598320001202000015172200012MAX ENERGY             PTN           MMR11004020153090015510402000000000000000   10300001 00104100000000000900000000000000     
100   95050325637546660000000000281286000000281286002000000010410404031143296722522344200403573161816092   1030000500030000   555610103960104519000003818Ocean Oattara Thiri Na PyiTaw        MMR11004031143296722520403000000000000000   10300001 00104100000000070322000000000000     
100   62911028202202580000000000026300000000026300002000000010410404030412568609904052100403946421056092   1030000900030000   591219000504190110000000351Shwe Ohh Pharmacy - (Y YANGONAW      MMR11004030412568609900403000000000000000   10300001F00104100000000001578000000000000     
100   95050313970192050000000000005750000000005750002000000010410404031207466728123656290403357501812092   1030000500030000   555610112651104519000010846City Express MCS 34                  MMR11004031207466728120403000000000000000   10300001 00104100000000001438000000000000     
100   95050319695392670000000000200000000000200000002000000010410404030558478636330442140403091281247092   1030000900030000   573219001183190110000000939UNIQUE Thingangyun     YANGONNGKUUN  MMR11004030558478636330403000000000000000   10300001F00104100000000048000000000000000     
100   62911028202417000000000000008100000000008100002000000010410404030654468650584052100403194241346092   1030000900030000   541119001206190110000000948City Mart YK C 4       YANGONAUNG    MMR11004030654468650580403000000000000000   10300001F00104100000000000486000000000000     
100   95050318710290270000000000015100000000015100002000000010410404031146256722630606620403586161859092   1030000500030000   555610112245104519000010487Ocean Super Center St  ohn           MMR11004031146256722630403000000000000000   10300001 00104100000000003775000000000000     
100   62911028202222620000000000008100000000008100002000000010410404030131218588584052100403579010821092   1030000900030000   541119000112190110000000077Sein Gay Har Chinatown YANGON        MMR11004030131218588580403000000000000000   10300001F00104100000000000486000000000000     
100   62443100344229520000000000070763000000070763002000000010410404030338258603858399830403490081025092   1030000900030000   541119001281190110000000963City Mart SPL C6       YANGONMYOTHIT MMR11004030338258603850403000000000000000   10300001F00104100000000017691000000000000     
100   62911028202350660000000000016800000000016800002000000010410404031155038736274052100403986251803092   1030000900030000   723019001041190110000000846Beauty Diary IS        YANGONUT      MMR11004031155038736270403000000000000000   10300001F00104100000000001008000000000000     
100   95030301100121270000000000049000000000049000002000000010410404021104461377144052100402209218137714   1040001600030000   598320000915000000010000664MMTM - North Dagon     Ygn           MMR11004021104461377140402000000000000000   10300001F00104100000000001470000000000000     
100   62911028202656830000000000005200000000005200002000000010410404031026310027794052100403000745081518   1030000200030000   541188001058000008000000314KBZ BANK               MARKETPLACE - MMR11004031026310027790403000000000000000   10300001 00104100000000000312000000000000     
100   95030318100004530000000000065467000000065467002000000010410404031202020048094052100403000745085894   1030000200030000   541188001420000008000000401KBZ BANK               OCEAN SUPERCE MMR11004031202020048090403000000000000000   10300001 00104100000000003928000000000000     
100   95050312499482960000000000025850000000025850002000000010410404031338070079105945820403000745090211   1030000200030000   541188001023000008000000298KBZ BANK               CITY MART - M MMR11004031338070079100403000000000000000   10300001 00104100000000006463000000000000     
100   62911028202481760000000000265574000000265574002000000010410404031859520147646839410403000745106835   1030000200030000   541188001020000008000000298KBZ BANK               CITY MART - M MMR11004031859520147640403000000000000000   10300001 00104100000000015934000000000000     
100   62911028202418410000000000026194000000026194002000000010410404031531470183614052100403000745095865   1030000200030000   541188001037000008000000010KBZ BANK               MARKETPLACE - MMR11004031531470183610403000000000000000   10300001 00104100000000001572000000000000     
100   62911028202616250000000000072956000000072956002000000010410404031439240019414052100403000745093196   1030000200030000   541188001308000008000000325KBZ BANK               CITY MART - A MMR11004031439240019410403000000000000000   10300001 00104100000000004377000000000000     
100   62911028202676220000000000050400000000050400002000000010410404030945420019805854400403000745098104   1030000200030000   591288000838000008000004646KBZ BANK               PINLON PHARMA MMR11004030945420019800403000000000000000   10300001 00104100000000003024000000000000     
100   95030301100128950000000000008000000000008000002000000010410404030850348680955540600403563201534092   1030000900030000   573219001177190110000000933UNIQUE Kabaraye        YANGON        MMR11004030850348680950403000000000000000   10300001F00104100000000000480000000000000     
100   62911028202463030000000000032000000000032000002000000010410404031300006733134052100403032301938092   1030000300030000   888810125940104519000021285Shwe Taung Energy CoLt               MMR11004031300006733130403000000000000000   10300001 00104100000000000960000000000000     
100   95030301100127470000000000297500000000297500002000000010410404030709158654134052100403466391315092   1030000900030000   599919001139190110000000919Lucky Man Myaynigone   YANGONUNG     MMR11004030709158654130403000000000000000   10300001F00104100000000017850000000000000     
100   95030301100128950000000001849000000001849000002000000010410404030848598680464052100403529181559092   1030000900030000   573219001177190110000000933UNIQUE Kabaraye        YANGON        MMR11004030848598680460403000000000000000   10300001F00104100000000110940000000000000     
100   62443100328070970000000000018350000000018350002000000010410404031111176715542854770403622391751092   1030000300030000   555510124689104519000020166Makro Myanmar                        MMR11004031111176715540403000000000000000   10300001 00104100000000004404000000000000     
100   95050318964967630000000000076475000000076475002000000010410404030554158635006711690403978241215092   1030000900030000   541119000116190110000000078Sein Gay Har Kan Thar  YANGONOKKALAP MMR11004030554158635000403000000000000000   10300001F00104100000000019119000000000000     
100   62911028202404050000000000005900000000005900002000000010410404031124128727334052100403294541712092   1030000900030000   541119001255190110000000956City Mart JS Season C  YANGONUT      MMR11004031124128727330403000000000000000   10300001F00104100000000000354000000000000     
100   62443100311760720000000000038150000000038150002000000010410404031009288703450612330403377391628092   1030000900030000   541119001250190110000000955City Mart JS C 9       YANGONUT      MMR11004031009288703450403000000000000000   10300001F00104100000000009538000000000000     
100   95050313817486860000000000018016000000018016002000000010410404031608300041611122910403000745097732   1030000200030000   541188001426000008000000401KBZ BANK               OCEAN SUPERCE MMR11004031608300041610403000000000000000   10300001 00104100000000004504000000000000     
100   95050327936713000000000000025000000000025000002000000010410404030432500250287889250403000006928429   1030000200030000   333800010001203104000003327KBZPay                 Yangon        MMR11004030432500250280403000000000000000   10300001F05104100000000005250000000000000     
100   95050312498129060000000000002940000000002940002000000010410404030130580058590634190403000006927668   1020000200030000   333400010001204104000000281Myanmar Soft-Gate Tech Yangon        MMR11004030130580058590403000000000000000   10300001F05104100000000000617000000000000     
100   95050325814892040000000000071750000000071750002000000010410404031704230204312520100403000745100999   1030000200030000   541188001007000008000000008KBZ BANK               MARKETPLACE - MMR11004031704230204310403000000000000000   10300001 00104100000000017938000000000000     
100   62911028202161240000000000017500000000017500002000000010410404031221340048884052100403000745086799   1030000200030000   541188001006000008000000008KBZ BANK               MARKETPLACE - MMR11004031221340048880403000000000000000   10300001 00104100000000001050000000000000     
100   95050310143760610000000000200000000000200000002000000010410404030440270028716151670403209311002871   1020000200030000   541100255004300115411000025MWD BANK               YGN           MMR11004030440270028710403000000000000000   10300001 00104100000000050000000000000000     
100   95050320093758110000000000013650000000013650002000000010410404031114220080888144540403000745083483   1030000200030000   541188001361000008000000395KBZ BANK               OCEAN SUPERMA MMR11004031114220080880403000000000000000   10300001 00104100000000003413000000000000     
100   95050315144611650000000000027300000000027300002000000010410404031538460079264768260403000745096225   1030000200030000   541188001023000008000000298KBZ BANK               CITY MART - M MMR11004031538460079260403000000000000000   10300001 00104100000000006825000000000000     
100   62911028202684060000000000014100000000014100002000000010410404031016268705544052100403548461626092   1030000900030000   591219000601190110000000441Shwe Ohh Pharmacy St-3 YANGON        MMR11004031016268705540403000000000000000   10300001F00104100000000000846000000000000     
100   62911028202280200000000000015800000000015800002000000010410404031032428710446153410403944021742092   1030000900030000   541119001195190110000000942City Mart HDC C 10     YANGONUT      MMR11004031032428710440403000000000000000   10300001F00104100000000000948000000000000     
100   95050323576695670000000000011450000000011450002000000010410404031122458726846074640403253521745092   1030000900030000   541119000124190110000000080Sein Gay Har BAK       YANGONADA     MMR11004031122458726840403000000000000000   10300001F00104100000000002863000000000000     
100   62911028202350660000000000016850000000016850002000000010410404031216248741744052100403398461824092   1030000900030000   541119001080190110000000872Sein Gay Har Hledan    YANGONUT      MMR11004031216248741740403000000000000000   10300001F00104100000000001011000000000000     
100   62443100300855550000000000038400000000038400002000000010410404030928518691676676040403430581551092   1030000900030000   541119000290190110000000178Pro (1) Global (East D YANGONMYOTHIT MMR11004030928518691670403000000000000000   10300001F00104100000000009600000000000000     
100   62443100311760720000000000053000000000053000002000000010410404031100458719789549800403695301745092   1030000900030000   573219001181190110000000937UNIQUE Hlaing          YANGON        MMR11004031100458719780403000000000000000   10300001F00104100000000012720000000000000     
100   95030393581449300000000000005600000000005600002000000010410404031023498707824052100403730531649092   1030000900030000   541119001259190110000000958City Mart PLST C 2     YANGONMYOTHIT MMR11004031023498707820403000000000000000   10300001F00104100000000000336000000000000     
100   62443100384660050000000000086800000000086800002000000010410404031027208708925910170403821571620092   1030000900030000   541119001300190110000000968Ocean Mingalar MDY C 8 MANDALAYHARSI MMR11004031027208708920403000000000000000   10300001F00104100000000021700000000000000     
100   62443100315853220000000000058200000000058200002000000010410404031257560023076286200403000745088405   1030000200030000   541188001486000008000000399KBZ BANK               OCEAN SUPERCE MMR11004031257560023070403000000000000000   10300001 00104100000000014550000000000000     
100   95050310143760610000000000033500000000033500002000000010410404030443450028729797020403209311002872   1020000200030000   541100255004300115411000025MWD BANK               YGN           MMR11004030443450028720403000000000000000   10300001 00104100000000008375000000000000     
100   95030301100332300000000000040000000000040000002000000010410404030830340034654052100403000006929631   1030000200030000   333800010001203104000003327KBZPay                 Yangon        MMR11004030830340034650403000000000000000   10300001F05104100000000008400000000000000     
100   62443100300743690000000000017250000000017250002000000010410404031459480064851973870403000745094251   1030000200030000   541188001307000008000000325KBZ BANK               CITY MART - A MMR11004031459480064850403000000000000000   10300001 00104100000000004313000000000000     
100   62911028202225440000000000000600000000000600002000000010410404031502420057384052100403000745094400   1030000200030000   541188001064000008000000314KBZ BANK               MARKETPLACE - MMR11004031502420057380403000000000000000   10300001 00104100000000000036000000000000     
100   95030371405797020000000000007300000000007300002000000010410404031034570089604052100403000745081824   1030000200030000   541188001189000008000000383KBZ BANK               OCEAN SUPER C MMR11004031034570089600403000000000000000   10300001 00104100000000000438000000000000     
100   62911028202068510000000000024966000000024966002000000010410404031351370048134052100403000745090827   1030000200030000   541188001420000008000000401KBZ BANK               OCEAN SUPERCE MMR11004031351370048130403000000000000000   10300001 00104100000000001498000000000000     
100   62911028202235910000000000005500000000005500002000000010410404031525230047994052100403000745095558   1030000200030000   541188001033000008000000298KBZ BANK               CITY MART - M MMR11004031525230047990403000000000000000   10300001 00104100000000000330000000000000     
100   95050320360851930000000000002940000000002940002000000010410404031330470047419670560403000006930879   1020000200030000   333400010001204104000000281Myanmar Soft-Gate Tech Yangon        MMR11004031330470047410403000000000000000   10300001F05104100000000000617000000000000     
100   62443100371022130000000000037047000000037047002000000010410404031036472013330867620403209317201333   1040001600030000   598320000658000000010000527Shwe Taung Energy (YGN Yangon        MMR11004031036472013330403000000000000000   10300001F00104100000000004446000000000000     
100   95050311559234320000000000009800000000009800002000000010410404030305153515698811520403000006928024   1020000200030000   333400010001204104000000281Myanmar Soft-Gate Tech Yangon        MMR11004030305153515690403000000000000000   10300001F05104100000000002058000000000000     
100   95030301100123250000000000120000000000120000002000000010410404030610044004904560600403000006928974   1030000200030000   333800010001203104000003327KBZPay                 Yangon        MMR11004030610044004900403000000000000000   10300001F05104100000000025200000000000000     
100   95050314542175100000000000131000000000131000002000000010410404030133260326182286680403000006927672   1030000200030000   333800010001203104000003327KBZPay                 Yangon        MMR11004030133260326180403000000000000000   10300001F05104100000000027510000000000000     
100   95030301100351360000000000050000000000050000002000000010410404030546591659204052100403000006928865   1030000200030000   333800010001203104000003327KBZPay                 Yangon        MMR11004030546591659200403000000000000000   10300001F05104100000000010500000000000000     
100   95050313145843230000000000006000000000006000002000000010410404030851562156593881650403000006929720   1030000200030000   333800010001203104000003327KBZPay                 Yangon        MMR11004030851562156590403000000000000000   10300001F05104100000000001260000000000000     
100   62911028202030150000000000148000000000148000002000000010410404030251272127474052100403000006927980   1030000200030000   333800010001203104000003327KBZPay                 Yangon        MMR11004030251272127470403000000000000000   10300001F05104100000000031080000000000000     
100   95030313499565480000000000003000000000003000002000000010410404031212044204304052100403000006930536   1030000200030000   333800010001203104000003327KBZPay                 Yangon        MMR11004031212044204300403000000000000000   10300001F05104100000000000630000000000000     
100   95050316818236190000000000002940000000002940002000000010410404030307303730193683870403000006928035   1020000200030000   333400010001204104000000281Myanmar Soft-Gate Tech Yangon        MMR11004030307303730190403000000000000000   10300001F05104100000000000617000000000000     
100   95050312498129060000000000000980000000000980002000000010410404031243441344353571200403000006930671   1020000200030000   333400010001204104000000281Myanmar Soft-Gate Tech Yangon        MMR11004031243441344350403000000000000000   10300001F05104100000000000206000000000000     
100   95050325305150830000000000000980000000000980002000000010410404031006333633519044940403000006930047   1020000200030000   333400010001204104000000281Myanmar Soft-Gate Tech Yangon        MMR11004031006333633510403000000000000000   10300001F05104100000000000206000000000000     
100   62911028202235910000000000029750000000029750002000000010410404031518170310704052100403000745095186   1030000200030000   541188001025000008000000298KBZ BANK               CITY MART - M MMR11004031518170310700403000000000000000   10300001 00104100000000001785000000000000     
100   95050316818236190000000000002940000000002940002000000010410404031134210421470776810403000006930409   1020000200030000   333400010001204104000000281Myanmar Soft-Gate Tech Yangon        MMR11004031134210421470403000000000000000   10300001F05104100000000000617000000000000     
100   95050316421999920000000000000980000000000980002000000010410404030435460546982846700403000006928447   1020000200030000   333400010001204104000000281Myanmar Soft-Gate Tech Yangon        MMR11004030435460546980403000000000000000   10300001F05104100000000000206000000000000     
100   95050322569804950000000000100000000000100000002000000010410404030536530653120258150403000006928785   1030000200030000   3338000100012031040000040022C2P (Myanmar) Co. Ltd Yangon        MMR11004030536530653120403000000000000000   10300001F05104100000000021000000000000000     
100   95030314863516850000000000016000000000016000002000000010410404030737410741295086300403000006929393   1030000200030000   333800010001203104000003327KBZPay                 Yangon        MMR11004030737410741290403000000000000000   10300001F05104100000000003360000000000000     
100   62911028202446700000000000037000000000037000002000000010410404030353422342714052100403000006928229   1030000200030000   333800010001203104000003327KBZPay                 Yangon        MMR11004030353422342710403000000000000000   10300001F05104100000000007770000000000000     
100   95050320360851930000000000000980000000000980002000000010410404031333360336721237940403000006930893   1020000200030000   333400010001204104000000281Myanmar Soft-Gate Tech Yangon        MMR11004031333360336720403000000000000000   10300001F05104100000000000206000000000000     
100   62443100363668680000000000032050000000032050002000000010410404030721051896532725950403209314189653   1040001600030000   581420000803000000010000579Jeff's Kitchen (Ahlone Yangon        MMR11004030721051896530403000000000000000   10300001F00104100000000003846000000000000     
100   62443100382109160000000000014628000000014628002000000010410404031048282022372684580403209317202237   1040001600030000   541120000563000000010000465Ocean Shwe Gone Daing  Yangon        MMR11004031048282022370403000000000000000   10300001F00104100000000003657000000000000     
100   95050314570621780000000000003920000000003920002000000010410404031259222922823486100403000006930717   1020000200030000   333400010001204104000000281Myanmar Soft-Gate Tech Yangon        MMR11004031259222922820403000000000000000   10300001F05104100000000000823000000000000     
100   62443100314843770000000000020000000000020000002000000010410404031404133413827847880403000006931041   1030000200030000   333800010001203104000003327KBZPay                 Yangon        MMR11004031404133413820403000000000000000   10300001F05104100000000004200000000000000     
100   95050312498129060000000000000980000000000980002000000010410404030720305030146030920403000006929322   1020000200030000   333400010001204104000000281Myanmar Soft-Gate Tech Yangon        MMR11004030720305030140403000000000000000   10300001F05104100000000000206000000000000     
100   62911028202130710000000000020000000000020000002000000010410404031119382046794052100403209318204679   1040001600030000   598320000659000000010000528Shwe Taung Energy (YGN Yangon        MMR11004031119382046790403000000000000000   10300001F00104100000000000600000000000000     
100   95030398701797940000000000017850000000017850002000000010410404030915271957125672810403209316195712   1040001600030000   541120000557000000010000465Ocean Shwe Gone Daing  Yangon        MMR11004030915271957120403000000000000000   10300001F00104100000000001071000000000000     
100   95050314649264560000000000040000000000040000002000000010410404030459352935497463770403000006928609   1030000200030000   333800010001203104000003327KBZPay                 Yangon        MMR11004030459352935490403000000000000000   10300001F05104100000000008400000000000000     
100   95050316377977350000000000002000000000002000002000000010410404030955422542627988130403000006929994   1030000200030000   3338000100012031040000040022C2P (Myanmar) Co. Ltd Yangon        MMR11004030955422542620403000000000000000   10300001F05104100000000000420000000000000     
100   62911028202827460000000000050000000000050000002000000010410404031113354335364052100403000006930314   1030000200030000   333800010001203104000003327KBZPay                 Yangon        MMR11004031113354335360403000000000000000   10300001F05104100000000010500000000000000     
100   95030301100119390000000000300000000000300000002000000010410404030421105110484052100403000006928364   1030000200030000   333800010001203104000003327KBZPay                 Yangon        MMR11004030421105110480403000000000000000   10300001F05104100000000063000000000000000     
100   95030301100316300000000000200000000000200000002000000010410404030742361236795115800403000006929419   1030000200030000   333800010001203104000003327KBZPay                 Yangon        MMR11004030742361236790403000000000000000   10300001F05104100000000042000000000000000     
100   95030371405797020000000000016396000000016396002000000010410404030353381780623742000403209310178062   1040001600030000   541120000557000000010000465Ocean Shwe Gone Daing  Yangon        MMR11004030353381780620403000000000000000   10300001F00104100000000000984000000000000     
100   95050315099113150000000000000980000000000980002000000010410404031502443244129500360403000006931310   1020000200030000   333400010001204104000000281Myanmar Soft-Gate Tech Yangon        MMR11004031502443244120403000000000000000   10300001F05104100000000000206000000000000     
100   95050315424817550000000000001960000000001960002000000010410404031118434843367727130403000006930344   1020000200030000   333400010001204104000000281Myanmar Soft-Gate Tech Yangon        MMR11004031118434843360403000000000000000   10300001F05104100000000000412000000000000     
100   95050313702988830000000000000985000000000985002000000010410404030701153115614293340403000006929234   1020000200030000   333400010001204104000000281Myanmar Soft-Gate Tech Yangon        MMR11004030701153115610403000000000000000   10300001F05104100000000000207000000000000     
100   95050315330275830000000000000980000000000980002000000010410404030516334633966066570403000006928681   1020000200030000   333400010001204104000000281Myanmar Soft-Gate Tech Yangon        MMR11004030516334633960403000000000000000   10300001F05104100000000000206000000000000     
100   95050311959900780000000000000980000000000980002000000010410404030217154715661861200403000006927824   1020000200030000   333400010001204104000000281Myanmar Soft-Gate Tech Yangon        MMR11004030217154715660403000000000000000   10300001F05104100000000000206000000000000     
100   62911028202821910000000000053300000000053300002000000010410404031805230270114052100403000745104582   1030000200030000   541188001004000008000000008KBZ BANK               MARKETPLACE - MMR11004031805230270110403000000000000000   10300001 00104100000000003198000000000000     
100   62911028202685470000000000036000000000036000002000000010410404031132422056654052100403209318205665   1040001600030000   806220000001000000010000001Victoria Hospital      Yangon        MMR11004031132422056650403000000000000000   10300001F00104100000000002160000000000000     
100   95030301100215990000000000200000000000200000002000000010410404030512204220474052100403000006928667   1030000200030000   333800010001203104000003327KBZPay                 Yangon        MMR11004030512204220470403000000000000000   10300001F05104100000000042000000000000000     
100   95050322715181550000000000777700000000777700002000000010410404030839378677930236290403322091537092   1030000900030000   541119000831190110000000177Pro1 Global (Insein)   YANGON        MMR11004030839378677930403000000000000000   10300001F00104100000000194425000000000000     
100   62911028202318750000000000046000000000046000002000000010410404020413400010363871200402209210001036   1030000500030000   598320002101000015172200021MAX ENERGY             PTN           MMR11004020413400010360402000000000000000   10300001 00104100000000001380000000000000     
100   95050316818236190000000000001960000000001960002000000010410404031309133913111833620403000006930759   1020000200030000   333400010001204104000000281Myanmar Soft-Gate Tech Yangon        MMR11004031309133913110403000000000000000   10300001F05104100000000000412000000000000     
100   95030313499565480000000000008990000000008990002000000010410404020546430000194052100402209212000019   1030000500030000   569120091401000015691200914GIORDANO (CPG)         PTN           MMR11004020546430000190402000000000000000   10300001 00104100000000000539000000000000     
100   95030333409030400000000000022000000000022000002000000010410404020805490001844052100402209214000184   1030000500030000   531120155707000045311201557GAMONE PWINT           PTN           MMR11004020805490001840402000000000000000   10300001 00104100000000001320000000000000     
100   62443100371022130000000000073000000000073000002000000010410404030245591750868471130403209309175086   1040001600030000   598320000658000000010000527Shwe Taung Energy (YGN Yangon        MMR11004030245591750860403000000000000000   10300001F00104100000000008760000000000000     
100   95030301100351360000000000300000000000300000002000000010410404030546001600164416200403000006928856   1030000200030000   333800010001203104000003327KBZPay                 Yangon        MMR11004030546001600160403000000000000000   10300001F05104100000000063000000000000000     
100   95030398701797940000000000156500000000156500002000000010410404030902361949945595710403209316194994   1040001600030000   541120000575000000010000465Ocean Shwe Gone Daing  Yangon        MMR11004030902361949940403000000000000000   10300001F00104100000000009390000000000000     
100   95030301100215990000000000100000000000100000002000000010410404031332410241987216400403000006930889   1030000200030000   333800010001203104000003327KBZPay                 Yangon        MMR11004031332410241980403000000000000000   10300001F05104100000000021000000000000000     
100   95030367537085740000000000001960000000001960002000000010410404030616384638464052100403000006929008   1020000200030000   333400010001204104000000281Myanmar Soft-Gate Tech Yangon        MMR11004030616384638460403000000000000000   10300001F05104100000000000412000000000000     
100   95050312139901420000000000000980000000000980002000000010410404030733130313903782760403000006929376   1020000200030000   333400010001204104000000281Myanmar Soft-Gate Tech Yangon        MMR11004030733130313900403000000000000000   10300001F05104100000000000206000000000000     
100   62443100330105920000000000003000000000003000002000000010410404030545191519027208480403000006928847   1030000200030000   333800010001203104000003327KBZPay                 Yangon        MMR11004030545191519020403000000000000000   10300001F05104100000000000630000000000000     
100   62911028202138320000000000009800000000009800002000000010410404030420425042064052100403000006928361   1020000200030000   333400010001204104000000281Myanmar Soft-Gate Tech Yangon        MMR11004030420425042060403000000000000000   10300001F05104100000000002058000000000000     
100   95050312498129060000000000001960000000001960002000000010410404030254072407030464000403000006927991   1020000200030000   333400010001204104000000281Myanmar Soft-Gate Tech Yangon        MMR11004030254072407030403000000000000000   10300001F05104100000000000412000000000000     
100   62911028202803930000000000021193000000021193002000000010410404031256570310484661900403000745088360   1030000200030000   541188001025000008000000298KBZ BANK               CITY MART - M MMR11004031256570310480403000000000000000   10300001 00104100000000001272000000000000     
100   95030318100002710000000000015000000000015000002000000010410404030934370437634052100403000006929909   1030000200030000   333800010001203104000003327KBZPay                 Yangon        MMR11004030934370437630403000000000000000   10300001F05104100000000003150000000000000     
100   62443100314843770000000000068565000000068565002000000010410404031200398737768358460403102301839092   1030000900030000   723019001049190110000000852Beauty Diary(SYS) -1   YANGON        MMR11004031200398737760403000000000000000   10300001F00104100000000016456000000000000     
100   62911028202133520000000000009449000000009449002000000010410404031209588740014052100403266391858092   1030000900030000   541119001195190110000000942City Mart HDC C 10     YANGONUT      MMR11004031209588740010403000000000000000   10300001F00104100000000000567000000000000     
100   62443100371022130000000000097300000000097300002000000010410404031406138759862890430403565362013092   1030000900030000   581219001121190110000000902Yoon Kitchen           YANGONONE     MMR11004031406138759860403000000000000000   10300001F00104100000000041353000000000000     
100   95030301100118480000000000007300000000007300002000000010410404031029188709574052100403875591618092   1030000900030000   541119001206190110000000948City Mart YK C 4       YANGONAUNG    MMR11004031029188709570403000000000000000   10300001F00104100000000000438000000000000     
100   62911028202029420000000000190100000000190100002000000010410404020751150014544052100402209214001454   1030000500030000   598320001004000015172200010MAX ENERGY             PTN           MMR11004020751150014540402000000000000000   10300001 00104100000000005703000000000000     
100   62911028202163630000000000046900000000046900002000000010410404031107112036844052100403209318203684   1040001600030000   591220000276000000010000264Shwe Ohh Pharmacy (YGH Yangon        MMR11004031107112036840403000000000000000   10300001F00104100000000002814000000000000     
100   95050313702988830000000000002940000000002940002000000010410404030145151515934279550403000006927714   1020000200030000   333400010001204104000000281Myanmar Soft-Gate Tech Yangon        MMR11004030145151515930403000000000000000   10300001F05104100000000000617000000000000     
100   95050316997303010000000000210000000000210000002000000010410404031517294729341152850403000006931372   1030000200030000   333800010001203104000003327KBZPay                 Yangon        MMR11004031517294729340403000000000000000   10300001F05104100000000044100000000000000     
100   95050312298324450000000000004900000000004900002000000010410404031319404940832975520403000006930834   1020000200030000   333400010001204104000000281Myanmar Soft-Gate Tech Yangon        MMR11004031319404940830403000000000000000   10300001F05104100000000001029000000000000     
100   62911028202761360000000000269762000000269762002000000010410404020636350000604052100402209213000060   1030000500030000   569120102801019505691201028MK FASHION SHOP        PTN           MMR11004020636350000600402000000000000000   10300001 00104100000000016186000000000000     
100   62911028202112730000000000060000000000060000002000000010410404031106476714714052100403519351725092   1030000300030000   888810125940104519000021285Shwe Taung Energy CoLt               MMR11004031106476714710403000000000000000   10300001 00104100000000001800000000000000     
100   95050321057500320000000000000980000000000980002000000010410404030610324032296371310403000006928981   1020000200030000   333400010001204104000000281Myanmar Soft-Gate Tech Yangon        MMR11004030610324032290403000000000000000   10300001F05104100000000000206000000000000     
100   95050312937155340000000000041150000000041150002000000010410404030851191943893966740403209315194389   1040001600030000   591220000291000000010000279Shwe Ohh Pharmacy (Sou Yangon        MMR11004030851191943890403000000000000000   10300001F00104100000000009876000000000000     
100   95050311959900780000000000000980000000000980002000000010410404031158072807911748520403000006930482   1020000200030000   333400010001204104000000281Myanmar Soft-Gate Tech Yangon        MMR11004031158072807910403000000000000000   10300001F05104100000000000206000000000000     
100   95050319938772870000000000000980000000000980002000000010410404031402553255306195400403000006931034   1020000200030000   333400010001204104000000281Myanmar Soft-Gate Tech Yangon        MMR11004031402553255300403000000000000000   10300001F05104100000000000206000000000000     
100   95050312498129060000000000001960000000001960002000000010410404031235390539028613750403000006930631   1020000200030000   333400010001204104000000281Myanmar Soft-Gate Tech Yangon        MMR11004031235390539020403000000000000000   10300001F05104100000000000412000000000000     
100   62911028202065050000000000089000000000089000002000000010410404030356331781864052100403209310178186   1040001600030000   569120000924000000010000671Generation Concept Sto Ygn           MMR11004030356331781860403000000000000000   10300001F00104100000000005340000000000000     
100   62911028202448030000000000030000000000030000002000000010410404030420091793694052100403209311179369   1040001600030000   598320000658000000010000527Shwe Taung Energy (YGN Yangon        MMR11004030420091793690403000000000000000   10300001F00104100000000000900000000000000     
100   95050314557307430000000000002940000000002940002000000010410404031109583958234507260403000006930303   1020000200030000   333400010001204104000000281Myanmar Soft-Gate Tech Yangon        MMR11004031109583958230403000000000000000   10300001F05104100000000000617000000000000     
100   95030333100021460000000000002900000000002900002000000010410404030409096639144052100403249451009092   1030000500030000   555610112256104519000010487Ocean Super Center St  ohn           MMR11004030409096639140403000000000000000   10300001 00104100000000000174000000000000     
100   95050314996291580000000000001960000000001960002000000010410404031237530753656876160403000006930643   1020000200030000   333400010001204104000000281Myanmar Soft-Gate Tech Yangon        MMR11004031237530753650403000000000000000   10300001F05104100000000000412000000000000     
100   95050316717221100000000000000980000000000980002000000010410404030912144214063456170403000006929810   1020000200030000   333400010001204104000000281Myanmar Soft-Gate Tech Yangon        MMR11004030912144214060403000000000000000   10300001F05104100000000000206000000000000     
100   95030318100002710000000000002940000000002940002000000010410404031359222922434052100403000006931019   1020000200030000   333400010001204104000000281Myanmar Soft-Gate Tech Yangon        MMR11004031359222922430403000000000000000   10300001F05104100000000000617000000000000     
100   62443100317145340000000000326797000000326797002000000010410404031926060270215223680403000745107583   1030000200030000   541188001004000008000000008KBZ BANK               MARKETPLACE - MMR11004031926060270210403000000000000000   10300001 00104100000000081700000000000000     
100   62911028202684060000000000038919000000038919002000000010410404030312426631144052100403290420941092   1030000500030000   555610104046104519000003821City Mart North Point  enter         MMR11004030312426631140403000000000000000   10300001 00104100000000002335000000000000     
100   62911028202825140000000000047900000000047900002000000010410404030439400002764052100403000745083272   1030000200030000   564188001659000008000005171KBZ BANK               SB BABY-2     MMR11004030439400002760403000000000000000   10300001 00104100000000002874000000000000     
100   62443101037081820000000000044200000000044200002000000010410404031045410003287477560403000745101709   1030000200030000   569988002341000008000006217KBZ BANK               BESTO FASHION MMR11004031045410003280403000000000000000   10300001 00104100000000010608000000000000     
100   62911028202105560000000000157000000000157000002000000010410404030547080004714052100403000745086604   1030000200030000   597788000930000008000000162KBZ BANK               L'OCCITANE( J MMR11004030547080004710403000000000000000   10300001 00104100000000009420000000000000     
100   62911028202139640000000000039800000000039800002000000010410404030659096667914857200403042271304092   1030000500030000   555610104049104519000003821City Mart North Point  enter         MMR11004030659096667910403000000000000000   10300001 00104100000000002388000000000000     
100   95050310676042860000000000015000000000015000002000000010410404030423555355616236760403000006928379   1030000200030000   333800010001203104000003327KBZPay                 Yangon        MMR11004030423555355610403000000000000000   10300001F05104100000000003150000000000000     
100   62911028202421790000000000146750000000146750002000000010410404030439066643224048300403756121115092   1030000500030000   555610104046104519000003821City Mart North Point  enter         MMR11004030439066643220403000000000000000   10300001 00104100000000008805000000000000     
100   62443100379184770000000000015000000000015000002000000010410404030925335533661633490403000006929881   1030000200030000   333800010001203104000003327KBZPay                 Yangon        MMR11004030925335533660403000000000000000   10300001F05104100000000003150000000000000     
100   95050318214455130000000000002940000000002940002000000010410404031424345434832805330403000006931154   1020000200030000   333400010001204104000000281Myanmar Soft-Gate Tech Yangon        MMR11004031424345434830403000000000000000   10300001F05104100000000000617000000000000     
100   95050319524870520000000000000980000000000980002000000010410404030625365536019591180403000006929055   1020000200030000   333400010001204104000000281Myanmar Soft-Gate Tech Yangon        MMR11004030625365536010403000000000000000   10300001F05104100000000000206000000000000     
100   95050311382087030000000000002940000000002940002000000010410404031125405540057216550403000006930381   1020000200030000   333400010001204104000000281Myanmar Soft-Gate Tech Yangon        MMR11004031125405540050403000000000000000   10300001F05104100000000000617000000000000     
100   95030323744342370000000000008000000000008000002000000010410404030856536704664052100403145421621092   1030000300030000   444410118802104519000016003SP Bakery Yangon SR 3                MMR11004030856536704660403000000000000000   10300001 00104100000000000816000000000000     
