100   95050312498129060000000000000980000000000980002000000010410403310027115711495245540331000006905896   1020000200030000   333400010001204104000000281Myanmar Soft-Gate Tech Yangon        MMR11003310027115711490331000000000000000   10300001F05104100000000000206000000000000     
100   95050311959900780000000000002940000000002940002000000010410403311322195219243955310331000006912551   1020000200030000   333400010001204104000000281Myanmar Soft-Gate Tech Yangon        MMR11003311322195219240331000000000000000   10300001F05104100000000000617000000000000     
100   62911028202503210000000000006200000000006200002000000010410403310326016259394052100331484560919089   1030000500030000   555610112532104519000010487Ocean Super Center St  ohn           MMR11003310326016259390331000000000000000   10300001 00104100000000000372000000000000     
100   62911028202154800000000000012000000000012000002000000010410403310851496307844052100331629521516089   1030000300030000   444410125270104519000021124SP Bakery North Dagon  apital        MMR11003310851496307840331000000000000000   10300001 00104100000000001224000000000000     
100   95030301100338180000000000300000000000300000002000000010410403310507213721904052100331000006908250   1030000200030000   333800010001203104000003327KBZPay                 Yangon        MMR11003310507213721900331000000000000000   10300001F05104100000000063000000000000000     
100   62911028202684060000000000004300000000004300002000000010410403310542016276974052100331552131248089   1030000500030000   555610104032104519000003821City Mart North Point  enter         MMR11003310542016276970331000000000000000   10300001 00104100000000000258000000000000     
100   62911028202481760000000000041050000000041050002000000010410403300353090000834052100330208910000083   1030000500030000   806220172403013008062201724GRAND HANTHA HOSPITAL  PTN           MMR11003300353090000830330000000000000000   10300001 00104100000000002463000000000000     
100   95050328156626340000000000249000000000249000002000000010410403301057410001392316610330000337696912   1030000300030000   573200000990000000000000704CB BANK                UNIQUE MOBILE MMR11003301057410001390330000000000000000   10300001F00104100000000059760000000000000     
100   62911028202472440000000000040000000000040000002000000010410403300639570007604052100330208913000760   1030000500030000   598320001401000015172200014MAX ENERGY             PTN           MMR11003300639570007600330000000000000000   10300001 00104100000000001200000000000000     
100   62443101006037900000000000041700000000041700002000000010410403300804550000311584610330208914000031   1030000500030000   581220142001000015812201420GOLDEN DUCK (NAN THI D PTN           MMR11003300804550000310330000000000000000   10300001 00104100000000017723000000000000     
100   62911028202421200000000000120000000000120000002000000010410403300106330002814052100330208907000281   1030000500030000   598320001702000015172200017MAX ENERGY             PTN           MMR11003300106330002810330000000000000000   10300001 00104100000000003600000000000000     
100   62443100372702000000000000012000000000012000002000000010410403301311350003153763260330208919000315   1030000500030000   581320195701000085813201957HARRYS BAR JUNCTION SQ PTN           MMR11003301311350003150330000000000000000   10300001 00104100000000005100000000000000     
100   95050320531117320000000000070620000000070620002000000010410403301124570006356848590330208917000635   1030000500030000   598320002702000015172200027MAX ENERGY             PTN           MMR11003301124570006350330000000000000000   10300001 00104100000000008474000000000000     
100   62911028202318750000000000078000000000078000002000000010410403300630260006164052100330208913000616   1030000500030000   598320002103000015172200021MAX ENERGY             PTN           MMR11003300630260006160330000000000000000   10300001 00104100000000002340000000000000     
100   62911028202045260000000000043050000000043050002000000010410403300835130010214052100330208915001021   1030000500030000   591220012301014405912200123SHWE OHH PHARMACY      PTN           MMR11003300835130010210330000000000000000   10300001 00104100000000002583000000000000     
100   95030308100042590000000000009000000000009000002000000010410403300857510000274052100330000337680889   1030000300030000   581400000753000000000000518CB BANK                KFC (HLD)     MMR11003300857510000270330000000000000000   10300001F00104100000000000270000000000000     
100   95050321685338790000000000069800000000069800002000000010410403291328020013582536820329208813001358   1030000600030000   581200002191315799420001536CANTON PARADISE TC     YANGON        MMR11003291328020013580329000000000000000   10300001 00104100000000029665000000000000     
100   62911028202616250000000000782800000000782800002000000010410403310923460001314052100331000744968875   1030000200030000   594488000553000008000003755KBZ BANK               MONTBLANC BOU MMR11003310923460001310331000000000000000   10300001 00104100000000046968000000000000     
100   62911028202331290000000000056200000000056200002000000010410403311030280009364052100331209017000936   1040001600030000   591220000295000000010000283Shwe Ohh Pharmacy (39t Yangon        MMR11003311030280009360331000000000000000   10300001F00104100000000003372000000000000     
100   62911028202248050000000000035000000000035000002000000010410403311019070000604052100331209017000060   1040001600030000   598320000660000000010000529Shwe Taung Energy (NPT Naypyitaw     MMR11003311019070000600331000000000000000   10300001F00104100000000001050000000000000     
100   62911028202116610000000000008850000000008850002000000010410403311254510026064052100331000744956703   1030000200030000   541188001058000008000000314KBZ BANK               MARKETPLACE - MMR11003311254510026060331000000000000000   10300001 00104100000000000531000000000000     
100   62911028202235910000000000045200000000045200002000000010410403311321140046924052100331000744958935   1030000200030000   541188001006000008000000008KBZ BANK               MARKETPLACE - MMR11003311321140046920331000000000000000   10300001 00104100000000002712000000000000     
100   62911028202151590000000000028132000000028132002000000010410403311830390063644052100331000744976930   1030000200030000   541188001307000008000000325KBZ BANK               CITY MART - A MMR11003311830390063640331000000000000000   10300001 00104100000000001688000000000000     
100   95050311587250810000000000019050000000019050002000000010410403311058300031466288570331209017003146   1040001600030000   541120000555000000010000465Ocean Shwe Gone Daing  Yangon        MMR11003311058300031460331000000000000000   10300001F00104100000000004763000000000000     
100   95030309199843360000000000264900000000264900002000000010410403300934190001254052100330000337685621   1030000300030000   573200000990000000000000704CB BANK                UNIQUE MOBILE MMR11003300934190001250330000000000000000   10300001F00104100000000015894000000000000     
100   95030301100119390000000000034600000000034600002000000010410403300305010002154052100330208909000215   1030000500030000   541120020902022205411200209ORANGE (HLAING)        PTN           MMR11003300305010002150330000000000000000   10300001 00104100000000002076000000000000     
100   95030372969867840000000000134500000000134500002000000010410403301059580000654052100330208917000065   1030000500030000   598320042902000055983200429MAX ENERGY             PTN           MMR11003301059580000650330000000000000000   10300001 00104100000000004035000000000000     
100   95050311131833760000000000038250000000038250002000000010410403300531110001004216880330208912000100   1030000500030000   531120155803000045311201558GAMONE PWINT           PTN           MMR11003300531110001000330000000000000000   10300001 00104100000000009180000000000000     
100   95050328570548980000000000020000000000020000002000000010410403300306000007025572710330208909000702   1030000500030000   598320001401000015172200014MAX ENERGY             PTN           MMR11003300306000007020330000000000000000   10300001 00104100000000002400000000000000     
100   95050329632900220000000000040000000000040000002000000010410403300452010008389223770330208911000838   1030000500030000   598320001003000015172200010MAX ENERGY             PTN           MMR11003300452010008380330000000000000000   10300001 00104100000000004800000000000000     
100   95050313702988830000000000030000000000030000002000000010410403300926030000899868900330208915000089   1030000500030000   531120155718000045311201557GAMONE PWINT           PTN           MMR11003300926030000890330000000000000000   10300001 00104100000000007200000000000000     
100   95050311131833760000000000004860000000004860002000000010410403300606140001414713670330208912000141   1030000500030000   531120155805000045311201558GAMONE PWINT           PTN           MMR11003300606140001410330000000000000000   10300001 00104100000000001166000000000000     
100   95030325100019320000000000059750000000059750002000000010410403311648440117814052100331000744971812   1030000200030000   541188001349000008000000395KBZ BANK               OCEAN SUPERMA MMR11003311648440117810331000000000000000   10300001 00104100000000003585000000000000     
100   95030327835334700000000000008533000000008533002000000010410403311838300083044052100331000744977295   1030000200030000   541188001245000008000000323KBZ BANK               CITY MART - I MMR11003311838300083040331000000000000000   10300001 00104100000000000512000000000000     
100   62911028202065050000000000029105000000029105002000000010410403311704060026464052100331000744972599   1030000200030000   541188001058000008000000314KBZ BANK               MARKETPLACE - MMR11003311704060026460331000000000000000   10300001 00104100000000001746000000000000     
100   95030313100050100000000000050000000000050000002000000010410403310843270022414052100331000744966797   1030000200030000   598388001826000008000005292KBZ BANK               BOC(TA DA OO) MMR11003310843270022410331000000000000000   10300001 00104100000000001500000000000000     
100   62911028202676220000000000077900000000077900002000000010410403311028200019144052100331000744972316   1030000200030000   591288000838000008000004646KBZ BANK               PINLON PHARMA MMR11003311028200019140331000000000000000   10300001 00104100000000004674000000000000     
100   62911028202441420000000000008500000000008500002000000010410403311519280095154052100331000744967168   1030000200030000   541188001081000008000000294KBZ BANK               CITY MART - J MMR11003311519280095150331000000000000000   10300001 00104100000000000510000000000000     
100   95050317003064220000000000001960000000001960002000000010410403310631370137441742810331000006908989   1020000200030000   333400010001204104000000281Myanmar Soft-Gate Tech Yangon        MMR11003310631370137440331000000000000000   10300001F05104100000000000412000000000000     
100   62911028202154640000000000100000000000100000002000000010410403311241580024474052100331000744978727   1030000200030000   591288000018000008000002044KBZ BANK               PINLON PHARMA MMR11003311241580024470331000000000000000   10300001 00104100000000006000000000000000     
100   95050321685338790000000000015500000000015500002000000010410403300419440000246223540330000337638988   1030000300030000   531100000819000000000000558CB BANK                MGOU          MMR11003300419440000240330000000000000000   10300001F00104100000000003720000000000000     
100   62911028202708080000000000037200000000037200002000000010410403300718490000594052100330208913000059   1030000500030000   581220024201000015812200242SHWE LAR HOT POT       PTN           MMR11003300718490000590330000000000000000   10300001 00104100000000003794000000000000     
100   62911028202442250000000000076000000000076000002000000010410403300642400002924052100330208913000292   1030000500030000   598320001203000015172200012MAX ENERGY             PTN           MMR11003300642400002920330000000000000000   10300001 00104100000000002280000000000000     
100   62911028202196800000000000008150000000008150002000000010410403300826120000374052100330208914000037   1030000500030000   591220010901014405912200109SHWE OHH PHARMACY      PTN           MMR11003300826120000370330000000000000000   10300001 00104100000000000489000000000000     
100   95050315955808830000000000027000000000027000002000000010410403300110100008271480010330208907000827   1030000500030000   598320001101000015172200011MAX ENERGY             PTN           MMR11003300110100008270330000000000000000   10300001 00104100000000003240000000000000     
100   95030301100215990000000000680000000000680000002000000010410403300422340000074052100330208910000007   1030000500030000   594420112101000015944201121More & More Gems (Junc PTN           MMR11003300422340000070330000000000000000   10300001 00104100000000040800000000000000     
100   62911028202485720000000000015000000000015000002000000010410403301051530011974052100330208917001197   1030000500030000   598320001202000015172200012MAX ENERGY             PTN           MMR11003301051530011970330000000000000000   10300001 00104100000000000450000000000000     
100   62911028202443650000000000026000000000026000002000000010410403301244110002174052100330208919000217   1030000500030000   541120020701022205411200207ORANGE (YDG)           PTN           MMR11003301244110002170330000000000000000   10300001 00104100000000001560000000000000     
100   95050324104751500000000000114800000000114800002000000010410403311138360066594295700331209018006659   1040001600030000   591220000285000000010000273Shwe Ohh Pharmacy (47t Yangon        MMR11003311138360066590331000000000000000   10300001F00104100000000027552000000000000     
100   95030301100193120000000000300000000000300000002000000010410403310238510851444052100331000006906550   1030000200030000   333800010001203104000003327KBZPay                 Yangon        MMR11003310238510851440331000000000000000   10300001F05104100000000063000000000000000     
100   95050315259054570000000000000980000000000980002000000010410403310244021402334067990331000006906593   1020000200030000   333400010001204104000000281Myanmar Soft-Gate Tech Yangon        MMR11003310244021402330331000000000000000   10300001F05104100000000000206000000000000     
100   95030370087325670000000000300000000000300000002000000010410403311242311231694052100331000006912282   1030000200030000   333800010001203104000003327KBZPay                 Yangon        MMR11003311242311231690331000000000000000   10300001F05104100000000063000000000000000     
100   62443100316099160000000000200000000000200000002000000010410403310849381938086494410331000006910316   1030000200030000   333800010001203104000003327KBZPay                 Yangon        MMR11003310849381938080331000000000000000   10300001F05104100000000042000000000000000     
100   62911028202218270000000000014850000000014850002000000010410403311627580171194052100331000744970610   1030000200030000   541188001080000008000000294KBZ BANK               CITY MART - J MMR11003311627580171190331000000000000000   10300001 00104100000000000891000000000000     
100   62911028202161240000000000029497000000029497002000000010410403310953330311114052100331000744943103   1030000200030000   541188001024000008000000298KBZ BANK               CITY MART - M MMR11003310953330311110331000000000000000   10300001 00104100000000001770000000000000     
100   95030301100193120000000000100000000000100000002000000010410403310240021002044052100331000006906563   1030000200030000   333800010001203104000003327KBZPay                 Yangon        MMR11003310240021002040331000000000000000   10300001F05104100000000021000000000000000     
100   62911028202295310000000000010000000000010000002000000010410403301058480006244052100330208917000624   1030000500030000   569120104001008205691201040ESCORT ( CITY MALL-ST. PTN           MMR11003301058480006240330000000000000000   10300001 00104100000000000600000000000000     
100   95050311131833760000000000044160000000044160002000000010410403300539300001010983220330208912000101   1030000500030000   531120155803000045311201558GAMONE PWINT           PTN           MMR11003300539300001010330000000000000000   10300001 00104100000000010598000000000000     
100   95030308100042590000000000009000000000009000002000000010410403300858580000284052100330000337681034   1030000300030000   581400000753000000000000518CB BANK                KFC (HLD)     MMR11003300858580000280330000000000000000   10300001F00104100000000000270000000000000     
100   95050311131833760000000000010560000000010560002000000010410403300556200001988018640330208912000198   1030000500030000   531120155804000045311201558GAMONE PWINT           PTN           MMR11003300556200001980330000000000000000   10300001 00104100000000002534000000000000     
100   95030331635936620000000000053000000000053000002000000010410403301038270010164052100330208917001016   1030000500030000   598320001403000015172200014MAX ENERGY             PTN           MMR11003301038270010160330000000000000000   10300001 00104100000000001590000000000000     
100   62911028202284260000000000019560000000019560002000000010410403300534000013194052100330208912001319   1030000500030000   806220172409013008062201724GRAND HANTHA HOSPITAL  PTN           MMR11003300534000013190330000000000000000   10300001 00104100000000001174000000000000     
100   62443100390038980000000000130000000000130000002000000010410403300735240166160223070330208907016616   1030000600030000   554100001212315799420000664DENKO TA TAR OO        TA TAR OO     MMR11003300735240166160330000000000000000   10300001 00104100000000015600000000000000     
100   62443100303702210000000000501000000000501000002000000010410403300501080426388068080330208905042638   1030000600030000   554100001756315799420001137DENKO NORTH DAGON 2    YANGON        MMR11003300501080426380330000000000000000   10300001 00104100000000060120000000000000     
100   62443100301716860000000000001960000000001960002000000010410403311254272427162132640331000006912392   1020000200030000   333400010001204104000000281Myanmar Soft-Gate Tech Yangon        MMR11003311254272427160331000000000000000   10300001F05104100000000000412000000000000     
100   95050325455962190000000000001960000000001960002000000010410403311541041104132368980331000006913307   1020000200030000   333400010001204104000000281Myanmar Soft-Gate Tech Yangon        MMR11003311541041104130331000000000000000   10300001F05104100000000000412000000000000     
100   95050317343045830000000000000980000000000980002000000010410403310844031403881196580331000006910244   1020000200030000   333400010001204104000000281Myanmar Soft-Gate Tech Yangon        MMR11003310844031403880331000000000000000   10300001F05104100000000000206000000000000     
100   95050312498129060000000000001960000000001960002000000010410403311341221122134191670331000006912671   1020000200030000   333400010001204104000000281Myanmar Soft-Gate Tech Yangon        MMR11003311341221122130331000000000000000   10300001F05104100000000000412000000000000     
100   95050326948926900000000000100000000000100000002000000010410403310552542254709019730331000006908695   1030000200030000   333800010001203104000003327KBZPay                 Yangon        MMR11003310552542254700331000000000000000   10300001F05104100000000021000000000000000     
100   95050314160856250000000000001960000000001960002000000010410403310439590959256145950331000006907947   1020000200030000   333400010001204104000000281Myanmar Soft-Gate Tech Yangon        MMR11003310439590959250331000000000000000   10300001F05104100000000000412000000000000     
100   95050316377977350000000000003000000000003000002000000010410403310949201920407636320331000006910998   1030000200030000   3338000100012031040000040022C2P (Myanmar) Co. Ltd Yangon        MMR11003310949201920400331000000000000000   10300001F05104100000000000630000000000000     
100   95030301100193120000000000300000000000300000002000000010410403310237530753134052100331000006906543   1030000200030000   333800010001203104000003327KBZPay                 Yangon        MMR11003310237530753130331000000000000000   10300001F05104100000000063000000000000000     
100   95050318052625040000000000051000000000051000002000000010410403300908330309251620260330208909030925   1030000600030000   554100001006315799420000502DENKO DAGON HARBOUR    YANGON        MMR11003300908330309250330000000000000000   10300001 00104100000000006120000000000000     
100   95050324411430900000000000033000000000033000002000000010410403300343100755753209510330208903075575   1030000600030000   554100000946315799420000471DENKO BAHAN            YANGON        MMR11003300343100755750330000000000000000   10300001 00104100000000003960000000000000     
100   95050314248160600000000000005600000000005600002000000010410403301115360017943203230330000337699366   1030000300030000   531100000960000000000000684CB BANK                CAPITAL SUPER MMR11003301115360017940330000000000000000   10300001F00104100000000001344000000000000     
100   62911028202314040000000000024000000000024000002000000010410403300143320251044052100330208901025104   1030000600030000   554100001113315799420000571DENKO THAN HLYIN -1    THAN HLYIN    MMR11003300143320251040330000000000000000   10300001 00104100000000000720000000000000     
100   62911028202221220000000000010000000000010000002000000010410403292239220755294052100330208922075529   1030000600030000   554100000946315799420000471DENKO BAHAN            YANGON        MMR11003292239220755290330000000000000000   10300001 00104100000000000300000000000000     
100   95030301100344690000000000050000000000050000002000000010410403300339510054324052100330208903005432   1030000600030000   554100002085315799420000471DENKO BAHAN            YANGON        MMR11003300339510054320330000000000000000   10300001 00104100000000001500000000000000     
100   62443101035610030000000000030000000000030000002000000010410403300933219324064996540330208916932406   1040001600030000   598320000856000000010000609Terminal Petrol Statio Yangon        MMR11003300933219324060330000000000000000   10300001F00104100000000003600000000000000     
100   62911028202528140000000000043200000000043200002000000010410403310840016302514052100331921101520089   1030000300030000   555510124696104519000020166Makro Myanmar                        MMR11003310840016302510331000000000000000   10300001 00104100000000002592000000000000     
100   95030370087325670000000000300000000000300000002000000010410403311250182018754052100331000006912355   1030000200030000   333800010001203104000003327KBZPay                 Yangon        MMR11003311250182018750331000000000000000   10300001F05104100000000063000000000000000     
100   95030301100193120000000000300000000000300000002000000010410403310237040704824052100331000006906536   1030000200030000   333800010001203104000003327KBZPay                 Yangon        MMR11003310237040704820331000000000000000   10300001F05104100000000063000000000000000     
100   95050318267399100000000000000980000000000980002000000010410403310641431143419409560331000006909100   1020000200030000   333400010001204104000000281Myanmar Soft-Gate Tech Yangon        MMR11003310641431143410331000000000000000   10300001F05104100000000000206000000000000     
100   95050319938772870000000000000980000000000980002000000010410403311241451145228827670331000006912281   1020000200030000   333400010001204104000000281Myanmar Soft-Gate Tech Yangon        MMR11003311241451145220331000000000000000   10300001F05104100000000000206000000000000     
100   95050316818236190000000000000980000000000980002000000010410403310056232623856217260331000006905997   1020000200030000   333400010001204104000000281Myanmar Soft-Gate Tech Yangon        MMR11003310056232623850331000000000000000   10300001F05104100000000000206000000000000     
100   62911028202905250000000000300000000000300000002000000010410403310349101910454052100331000006907286   1030000200030000   333800010001203104000003327KBZPay                 Yangon        MMR11003310349101910450331000000000000000   10300001F05104100000000063000000000000000     
100   95050313145843230000000000050000000000050000002000000010410403311054022402596373660331000006911524   1030000200030000   333800010001203104000003327KBZPay                 Yangon        MMR11003311054022402590331000000000000000   10300001F05104100000000010500000000000000     
100   95050317741619680000000000055000000000055000002000000010410403311334530453180650350331000006912622   1030000200030000   333800010001203104000003327KBZPay                 Yangon        MMR11003311334530453180331000000000000000   10300001F05104100000000011550000000000000     
100   62911028202045260000000000053700000000053700002000000010410403310833006301894052100331846041558089   1030000500030000   555610112653104519000010848City Express MCS 50                  MMR11003310833006301890331000000000000000   10300001 00104100000000003222000000000000     
100   62443101035610030000000000085000000000085000002000000010410403300938399326822202150330208916932682   1040001600030000   598320000856000000010000609Terminal Petrol Statio Yangon        MMR11003300938399326820330000000000000000   10300001F00104100000000010200000000000000     
100   62911028202233510000000000018342000000018342002000000010410403311025476317884052100331976551636089   1030000500030000   555610112233104519000010487Ocean Super Center St  ohn           MMR11003311025476317880331000000000000000   10300001 00104100000000001101000000000000     
100   62911028202105070000000000047800000000047800002000000010410403311003256313834052100331444311644089   1030000500030000   555610112233104519000010487Ocean Super Center St  ohn           MMR11003311003256313830331000000000000000   10300001 00104100000000002868000000000000     
100   62443100333488440000000000043700000000043700002000000010410403311048486321533664370331522171709089   1030000500030000   555610121914104519000018359City Express MCS 114                 MMR11003311048486321530331000000000000000   10300001 00104100000000010925000000000000     
100   62443100361813580000000000390000000000390000002000000010410403310716278010514111710331797461327089   1030000900030000   573219001178190110000000934UNIQUE Pansodan        YANGONADA     MMR11003310716278010510331000000000000000   10300001F00104100000000093600000000000000     
100   62911028202133940000000000016900000000016900002000000010410403311251236342924052100331403241931089   1030000500030000   555610112981104519000011143Market Place by City M rt Sule       MMR11003311251236342920331000000000000000   10300001 00104100000000001014000000000000     
100   95030337100000390000000000043500000000043500002000000010410403310604057990554052100331538341205089   1030000900030000   541119001265190110000000958City Mart PLST C 8     YANGONMYOTHIT MMR11003310604057990550331000000000000000   10300001F00104100000000002610000000000000     
100   95050312498129060000000000000980000000000980002000000010410403310045201520277869740331000006905952   1020000200030000   333400010001204104000000281Myanmar Soft-Gate Tech Yangon        MMR11003310045201520270331000000000000000   10300001F05104100000000000206000000000000     
100   95050315743141220000000000000980000000000980002000000010410403310834220422026919890331000006910177   1020000200030000   333400010001204104000000281Myanmar Soft-Gate Tech Yangon        MMR11003310834220422020331000000000000000   10300001F05104100000000000206000000000000     
100   62911028202581590000000000002940000000002940002000000010410403310138370837984052100331000006906150   1020000200030000   333400010001204104000000281Myanmar Soft-Gate Tech Yangon        MMR11003310138370837980331000000000000000   10300001F05104100000000000617000000000000     
100   95030370087325670000000000300000000000300000002000000010410403301741161116104052100331000006905556   1030000200030000   333800010001203104000003327KBZPay                 Yangon        MMR11003301741161116100331000000000000000   10300001F05104100000000063000000000000000     
100   95050318057347910000000000000980000000000980002000000010410403310850022002118146890331000006910325   1020000200030000   333400010001204104000000281Myanmar Soft-Gate Tech Yangon        MMR11003310850022002110331000000000000000   10300001F05104100000000000206000000000000     
100   95050318180584510000000000010000000000010000002000000010410403310250052005323897790331000006906642   1030000200030000   333800010001203104000003327KBZPay                 Yangon        MMR11003310250052005320331000000000000000   10300001F05104100000000002100000000000000     
100   95050313400081980000000000257000000000257000002000000010410403311534550455462283890331000006913275   1030000200030000   333800010001203104000003327KBZPay                 Yangon        MMR11003311534550455460331000000000000000   10300001F05104100000000053970000000000000     
100   95030301100128610000000000100000000000100000002000000010410403311153042304574052100331000006911966   1030000200030000   333800010001203104000003327KBZPay                 Yangon        MMR11003311153042304570331000000000000000   10300001F05104100000000021000000000000000     
100   62911028202260160000000000020000000000020000002000000010410403310326207952874052100331428560920089   1030000900030000   554119000997190110000000803Puma Power SOKL        YANGONOKKALAP MMR11003310326207952870331000000000000000   10300001F00104100000000000600000000000000     
100   62911028202401160000000000041150000000041150002000000010410403310853078037534052100331463231507089   1030000900030000   541119001191190110000000942City Mart HDC C 6      YANGONUT      MMR11003310853078037530331000000000000000   10300001F00104100000000002469000000000000     
100   95050313970192050000000000005900000000005900002000000010410403311250326342957090090331406241938089   1030000500030000   555610112651104519000010846City Express MCS 34                  MMR11003311250326342950331000000000000000   10300001 00104100000000001475000000000000     
100   95030301100029120000000000073500000000073500002000000010410403310302077947754052100331137320907089   1030000900030000   591219001378190110000000983Shwe Ohh Pharmacy St 5 YANGONAUNG    MMR11003310302077947750331000000000000000   10300001F00104100000000004410000000000000     
100   62911028202687370000000000011140000000011140002000000010410403310814148027464052100331845441414089   1030000900030000   541119001077190110000000872Sein Gay Har Hledan    YANGONUT      MMR11003310814148027460331000000000000000   10300001F00104100000000000668000000000000     
100   62911028202821420000000000065050000000065050002000000010410403310948338054014052100331490181633089   1030000900030000   723019001041190110000000846Beauty Diary IS        YANGONUT      MMR11003310948338054010331000000000000000   10300001F00104100000000003903000000000000     
100   95050310599777990000000000026900000000026900002000000010410403311117088082596628950331463471708089   1030000900030000   541119000116190110000000078Sein Gay Har Kan Thar  YANGONOKKALAP MMR11003311117088082590331000000000000000   10300001F00104100000000006725000000000000     
100   62911028202448030000000000039003000000039003002000000010410403310433527967774052100331239031152089   1030000900030000   541119001242190110000000955City Mart JS C 1       YANGONUT      MMR11003310433527967770331000000000000000   10300001F00104100000000002340000000000000     
100   95050310397364970000000000001960000000001960002000000010410403310350212021949245080331000006907330   1020000200030000   333400010001204104000000281Myanmar Soft-Gate Tech Yangon        MMR11003310350212021940331000000000000000   10300001F05104100000000000412000000000000     
100   95050318180584510000000000015000000000015000002000000010410403311058522852921331120331000006911559   1030000200030000   333800010001203104000003327KBZPay                 Yangon        MMR11003311058522852920331000000000000000   10300001F05104100000000003150000000000000     
100   95050319938772870000000000000980000000000980002000000010410403311300183018098742570331000006912440   1020000200030000   333400010001204104000000281Myanmar Soft-Gate Tech Yangon        MMR11003311300183018090331000000000000000   10300001F05104100000000000206000000000000     
100   95050317071956460000000000001960000000001960002000000010410403310942191219666068930331000006910913   1020000200030000   333400010001204104000000281Myanmar Soft-Gate Tech Yangon        MMR11003310942191219660331000000000000000   10300001F05104100000000000412000000000000     
100   95050310427855490000000000001960000000001960002000000010410403311350072007272539180331000006912720   1020000200030000   333400010001204104000000281Myanmar Soft-Gate Tech Yangon        MMR11003311350072007270331000000000000000   10300001F05104100000000000412000000000000     
100   95030370087325670000000000300000000000300000002000000010410403310657192719224052100331000006909255   1030000200030000   333800010001203104000003327KBZPay                 Yangon        MMR11003310657192719220331000000000000000   10300001F05104100000000063000000000000000     
100   95030301100125230000000000010000000000010000002000000010410403310950552055214052100331000006911009   1030000500030000   333800010001201104000003863AYA Pay                Yangon        MMR11003310950552055210331000000000000000   10300001F05104100000000002100000000000000     
100   95050316785465380000000000000980000000000980002000000010410403310757542754366749700331000006909823   1020000200030000   333400010001204104000000281Myanmar Soft-Gate Tech Yangon        MMR11003310757542754360331000000000000000   10300001F05104100000000000206000000000000     
100   62911028202687370000000000014400000000014400002000000010410403310740558017974052100331265101455089   1030000900030000   541119001075190110000000872Sein Gay Har Hledan    YANGONUT      MMR11003310740558017970331000000000000000   10300001F00104100000000000864000000000000     
100   62911028202821420000000000007000000000007000002000000010410403310949358054224052100331503191635089   1030000900030000   723019001041190110000000846Beauty Diary IS        YANGONUT      MMR11003310949358054220331000000000000000   10300001F00104100000000000420000000000000     
100   62911028202243670000000000019514000000019514002000000010410403310558417989304052100331465281241089   1030000900030000   541119001265190110000000958City Mart PLST C 8     YANGONMYOTHIT MMR11003310558417989300331000000000000000   10300001F00104100000000001171000000000000     
100   62911028202150010000000000016850000000016850002000000010410403310114007934194052100331576440700089   1030000900030000   541119000112190110000000077Sein Gay Har Chinatown YANGON        MMR11003310114007934190331000000000000000   10300001F00104100000000001011000000000000     
100   95050321455580800000000000017300000000017300002000000010410403310934498050151026380331238041649089   1030000900030000   541119001355190110000000977Ocean PZD C9           YANGONAUNG    MMR11003310934498050150331000000000000000   10300001F00104100000000004325000000000000     
100   95030301100121270000000000334000000000334000002000000010410403310427507966454052100331164571050089   1030000900030000   573219001178190110000000934UNIQUE Pansodan        YANGONADA     MMR11003310427507966450331000000000000000   10300001F00104100000000020040000000000000     
100   62911028202154800000000000052000000000052000002000000010410403310420297964864052100331079501029089   1030000900030000   554119000348190110000000215New Day Energy MYG     YANGONONE     MMR11003310420297964860331000000000000000   10300001F00104100000000001560000000000000     
100   95030339867270590000000000003900000000003900002000000010410403311212236336464052100331502401809089   1030000300030000   555610103773104519000003649G and G Convenience St re 279        MMR11003311212236336460331000000000000000   10300001 00104100000000000234000000000000     
100   95050311121153200000000000000980000000000980002000000010410403311335060506182302830331000006912626   1020000200030000   333400010001204104000000281Myanmar Soft-Gate Tech Yangon        MMR11003311335060506180331000000000000000   10300001F05104100000000000206000000000000     
100   62911028202232370000000000005000000000005000002000000010410403301656582658174052100331000006905473   1030000200030000   333800010001203104000003327KBZPay                 Yangon        MMR11003301656582658170331000000000000000   10300001F05104100000000001050000000000000     
100   95050316997303010000000000000980000000000980002000000010410403311059382938552983600331000006911565   1020000200030000   333400010001204104000000281Myanmar Soft-Gate Tech Yangon        MMR11003311059382938550331000000000000000   10300001F05104100000000000206000000000000     
100   95050313113158460000000000005880000000005880002000000010410403311458492849057666820331000006913080   1020000200030000   333400010001204104000000281Myanmar Soft-Gate Tech Yangon        MMR11003311458492849050331000000000000000   10300001F05104100000000001235000000000000     
100   95050313923133060000000000055000000000055000002000000010410403311412164216877581720331000006912846   1030000200030000   333800010001203104000003327KBZPay                 Yangon        MMR11003311412164216870331000000000000000   10300001F05104100000000011550000000000000     
100   95050324154190880000000000004900000000004900002000000010410403310137160716588039940331000006906144   1020000200030000   333400010001204104000000281Myanmar Soft-Gate Tech Yangon        MMR11003310137160716580331000000000000000   10300001F05104100000000001029000000000000     
100   95050316736513170000000000000980000000000980002000000010410403310637170717251147130331000006909058   1020000200030000   333400010001204104000000281Myanmar Soft-Gate Tech Yangon        MMR11003310637170717250331000000000000000   10300001F05104100000000000206000000000000     
100   62911028202350170000000000200000000000200000002000000010410403310248021802294052100331000006906626   1030000200030000   333800010001203104000003327KBZPay                 Yangon        MMR11003310248021802290331000000000000000   10300001F05104100000000042000000000000000     
100   62911028202169750000000000020450000000020450002000000010410403310710458008744052100331684401345089   1030000900030000   541119000131190110000000083SeinGayHarParami Cente YANGON        MMR11003310710458008740331000000000000000   10300001F00104100000000001227000000000000     
100   62911028202150190000000000100000000000100000002000000010410403310348119802924052100331209010980292   1040001600030000   504720000629000000010000500D-Royal Dental         ygn           MMR11003310348119802920331000000000000000   10300001F00104100000000006000000000000000     
100   62911028202421040000000000062000000000062000002000000010410403310922349966944052100331209016996694   1040001600030000   598320000854000000010000608Terminal Petrol Statio Yangon        MMR11003310922349966940331000000000000000   10300001F00104100000000001860000000000000     
100   95030341448197210000000000083000000000083000002000000010410403311242300124714052100331209019012471   1040001600030000   598320000854000000010000608Terminal Petrol Statio Yangon        MMR11003311242300124710331000000000000000   10300001F00104100000000002490000000000000     
100   62911028202196800000000000200000000000200000002000000010410403300458060000054052100330208911000005   1030000500030000   806220009106024108062200091ARYU INTL HOSPITAL     PTN           MMR11003300458060000050330000000000000000   10300001 00104100000000012000000000000000     
100   62911028202019440000000000040500000000040500002000000010410403300432500006074052100330208911000607   1030000500030000   806220195401000018062201954PIN LON HOSPITAL       PTN           MMR11003300432500006070330000000000000000   10300001 00104100000000002430000000000000     
100   62911028202147720000000000053000000000053000002000000010410403301051390005464052100330208917000546   1030000500030000   598320001601000015172200016MAX ENERGY             PTN           MMR11003301051390005460330000000000000000   10300001 00104100000000001590000000000000     
100   95050321685338790000000000045780000000045780002000000010410403310755178021648402190331477251417089   1030000900030000   581219001550190110000001124Pizzamaru Terminal M   YANGONADON    MMR11003310755178021640331000000000000000   10300001F00104100000000019457000000000000     
100   95050314996291580000000000002940000000002940002000000010410403310333550355344202520331000006907146   1020000200030000   333400010001204104000000281Myanmar Soft-Gate Tech Yangon        MMR11003310333550355340331000000000000000   10300001F05104100000000000617000000000000     
100   95050311121153200000000000000980000000000980002000000010410403311233220322847260280331000006912219   1020000200030000   333400010001204104000000281Myanmar Soft-Gate Tech Yangon        MMR11003311233220322840331000000000000000   10300001F05104100000000000206000000000000     
100   95050317338786370000000000003000000000003000002000000010410403311539130913744021470331000006913293   1030000200030000   3334000100012031040000040102C2P (Myanmar) Co. Ltd Yangon        MMR11003311539130913740331000000000000000   10300001F05104100000000000630000000000000     
100   95050312498129060000000000000980000000000980002000000010410403311446081608502624270331000006913010   1020000200030000   333400010001204104000000281Myanmar Soft-Gate Tech Yangon        MMR11003311446081608500331000000000000000   10300001F05104100000000000206000000000000     
100   95030370087325670000000000300000000000300000002000000010410403301742031203264052100331000006905557   1030000200030000   333800010001203104000003327KBZPay                 Yangon        MMR11003301742031203260331000000000000000   10300001F05104100000000063000000000000000     
100   95050314308945310000000000015000000000015000002000000010410403311456332633732709370331000006913066   1030000200030000   333800010001203104000003327KBZPay                 Yangon        MMR11003311456332633730331000000000000000   10300001F05104100000000003150000000000000     
100   95030301100338180000000000300000000000300000002000000010410403310508593859964052100331000006908262   1030000200030000   333800010001203104000003327KBZPay                 Yangon        MMR11003310508593859960331000000000000000   10300001F05104100000000063000000000000000     
100   95050323133124350000000000010000000000010000002000000010410403310135100510409777520331000006906134   1030000200030000   333800010001203104000003327KBZPay                 Yangon        MMR11003310135100510400331000000000000000   10300001F05104100000000002100000000000000     
100   62911028202466670000000000169500000000169500002000000010410403310521209848394052100331209012984839   1040001600030000   591220000276000000010000264Shwe Ohh Pharmacy (YGH Yangon        MMR11003310521209848390331000000000000000   10300001F00104100000000010170000000000000     
100   62911028202245730000000000102100000000102100002000000010410403310521259848444052100331209012984844   1040001600030000   591220000273000000010000261Shwe Ohh Pharmacy (WZY Yangon        MMR11003310521259848440331000000000000000   10300001F00104100000000006126000000000000     
100   62911028202789750000000000010850000000010850002000000010410403311005259990144052100331209017999014   1040001600030000   591220000271000000010000259Shwe Ohh Pharmacy (Gwa Yangon        MMR11003311005259990140331000000000000000   10300001F00104100000000000651000000000000     
100   95030371405797020000000000007900000000007900002000000010410403310950048054384052100331512201604089   1030000900030000   541119001265190110000000958City Mart PLST C 8     YANGONMYOTHIT MMR11003310950048054380331000000000000000   10300001F00104100000000000474000000000000     
100   62443100309698080000000000072937000000072937002000000010410403311126478085433238890331656561747089   1030000900030000   541119001217190110000000945City Mart TM C 2       YANGONONE     MMR11003311126478085430331000000000000000   10300001F00104100000000018235000000000000     
100   62911028202485720000000000015000000000015000002000000010410403310158469757294052100331209008975729   1040001600030000   598320000658000000010000527Shwe Taung Energy (YGN Yangon        MMR11003310158469757290331000000000000000   10300001F00104100000000000450000000000000     
100   95030305700676370000000000050000000000050000002000000010410403310522349849074052100331209012984907   1040001600030000   598320000316000000010000304PT Power Petrol Statio Yangon        MMR11003310522349849070331000000000000000   10300001F00104100000000001500000000000000     
100   62911028202207040000000000028400000000028400002000000010410403310401087960234052100331833311008089   1030000900030000   591219000504190110000000351Shwe Ohh Pharmacy - (Y YANGONAW      MMR11003310401087960230331000000000000000   10300001F00104100000000001704000000000000     
100   62911028202077010000000000000980000000000980002000000010410403311452012201644052100331000006913047   1020000200030000   333400010001204104000000281Myanmar Soft-Gate Tech Yangon        MMR11003311452012201640331000000000000000   10300001F05104100000000000206000000000000     
100   95030301100119390000000000100000000000100000002000000010410403301705203520454052100331000006905486   1030000200030000   333800010001203104000003327KBZPay                 Yangon        MMR11003301705203520450331000000000000000   10300001F05104100000000021000000000000000     
100   62443100313529540000000000009800000000009800002000000010410403311407243724275844140331000006912821   1020000200030000   333400010001204104000000281Myanmar Soft-Gate Tech Yangon        MMR11003311407243724270331000000000000000   10300001F05104100000000002058000000000000     
100   95030353305053700000000000035700000000035700002000000010410403311528105810604052100331000006913224   1030000900030000   333300010001202104000003814Dinger                 Yangon        MMR11003311528105810600331000000000000000   10300001F05104100000000010000000000000000     
100   95050311959900780000000000001960000000001960002000000010410403310111044104286557650331000006906049   1020000200030000   333400010001204104000000281Myanmar Soft-Gate Tech Yangon        MMR11003310111044104280331000000000000000   10300001F05104100000000000412000000000000     
100   62443100372718280000000000070900000000070900002000000010410403310109226250239862620331399370703089   1030000300030000   555510124687104519000020166Makro Myanmar                        MMR11003310109226250230331000000000000000   10300001 00104100000000017016000000000000     
100   62443100359661970000000000100000000000100000002000000010410403310507346271696055140331901351139089   1030000300030000   555510117402104519000014802Mary Massage Machinery Sale          MMR11003310507346271690331000000000000000   10300001 00104100000000024000000000000000     
100   95030301100121840000000000100000000000100000002000000010410403310507513751714052100331000006908252   1030000200030000   333800010001203104000003327KBZPay                 Yangon        MMR11003310507513751710331000000000000000   10300001F05104100000000021000000000000000     
100   62911028202133520000000000005100000000005100002000000010410403311217138099194052100331548471813089   1030000900030000   541119001191190110000000942City Mart HDC C 6      YANGONUT      MMR11003311217138099190331000000000000000   10300001F00104100000000000306000000000000     
100   95050317834964620000000000017065000000017065002000000010410403311217398099327770860331560471839089   1030000900030000   541119001353190110000000977Ocean PZD C 7          YANGONAUNG    MMR11003311217398099320331000000000000000   10300001F00104100000000004267000000000000     
100   95050320624349010000000000030000000000030000002000000010410403311311258111195692890331234411925089   1030000900030000   554119000346190110000000213New Day Energy SOK     YANGONOKKALAP MMR11003311311258111190331000000000000000   10300001F00104100000000003600000000000000     
100   62911028202440680000000000029900000000029900002000000010410403310410096263984052100331044371052089   1030000300030000   555510114637104519000012589Win Mobile                           MMR11003310410096263980331000000000000000   10300001 00104100000000001794000000000000     
100   62911028202296710000000000087100000000087100002000000010410403310840246302414052100331910091541089   1030000300030000   555510124687104519000020166Makro Myanmar                        MMR11003310840246302410331000000000000000   10300001 00104100000000005226000000000000     
100   62911028202421380000000000088000000000088000002000000010410403300405410002954052100330208910000295   1030000500030000   598320001702000015172200017MAX ENERGY             PTN           MMR11003300405410002950330000000000000000   10300001 00104100000000002640000000000000     
100   95030301100215990000000000016000000000016000002000000010410403300716090005744052100330208913000574   1030000500030000   569120104001008205691201040ESCORT ( CITY MALL-ST. PTN           MMR11003300716090005740330000000000000000   10300001 00104100000000000960000000000000     
100   62911028202676220000000000036200000000036200002000000010410403310822430024384052100331000744965512   1030000200030000   591288000018000008000002044KBZ BANK               PINLON PHARMA MMR11003310822430024380331000000000000000   10300001 00104100000000002172000000000000     
100   95030301100215990000000000300000000000300000002000000010410403310714224422774052100331000006909415   1030000200030000   333800010001203104000003327KBZPay                 Yangon        MMR11003310714224422770331000000000000000   10300001F05104100000000063000000000000000     
100   95050311382087030000000000000980000000000980002000000010410403310417294729140472080331000006907698   1020000200030000   333400010001204104000000281Myanmar Soft-Gate Tech Yangon        MMR11003310417294729140331000000000000000   10300001F05104100000000000206000000000000     
100   62911028202908630000000000100000000000100000002000000010410403310122315231614052100331000006906080   1030000200030000   333800010001203104000003327KBZPay                 Yangon        MMR11003310122315231610331000000000000000   10300001F05104100000000021000000000000000     
100   95050317743858310000000000033800000000033800002000000010410403310910126306362508680331426411512089   1030000500030000   555610110570104519000009164City Mart China Town P int Cen       MMR11003310910126306360331000000000000000   10300001 00104100000000008450000000000000     
100   95050313113158460000000000009800000000009800002000000010410403311413184318745929240331000006912852   1020000200030000   333400010001204104000000281Myanmar Soft-Gate Tech Yangon        MMR11003311413184318740331000000000000000   10300001F05104100000000002058000000000000     
100   95050315150726490000000000000980000000000980002000000010410403311606423642547326430331000006913438   1020000200030000   333400010001204104000000281Myanmar Soft-Gate Tech Yangon        MMR11003311606423642540331000000000000000   10300001F05104100000000000206000000000000     
100   95030301100121840000000000300000000000300000002000000010410403310506433643664052100331000006908243   1030000200030000   333800010001203104000003327KBZPay                 Yangon        MMR11003310506433643660331000000000000000   10300001F05104100000000063000000000000000     
100   95050319928585020000000000000980000000000980002000000010410403310016114611418550510331000006905877   1020000200030000   333400010001204104000000281Myanmar Soft-Gate Tech Yangon        MMR11003310016114611410331000000000000000   10300001F05104100000000000206000000000000     
100   62911028202534810000000000028000000000028000002000000010410403300314520054274052100330208903005427   1030000600030000   554100002085315799420000471DENKO BAHAN            YANGON        MMR11003300314520054270330000000000000000   10300001 00104100000000000840000000000000     
100   62911028202127430000000000027000000000027000002000000010410403301152230005114052100330208918000511   1030000500030000   598320041902000055983200419MAX ENERGY             PTN           MMR11003301152230005110330000000000000000   10300001 00104100000000000810000000000000     
100   62911028202449440000000000033000000000033000002000000010410403301203010012244052100330208918001224   1030000500030000   598320001201000015172200012MAX ENERGY             PTN           MMR11003301203010012240330000000000000000   10300001 00104100000000000990000000000000     
100   95030325264619140000000000019718000000019718002000000010410403310449349830824052100331209011983082   1040001600030000   541120000563000000010000465Ocean Shwe Gone Daing  Yangon        MMR11003310449349830820331000000000000000   10300001F00104100000000001183000000000000     
100   62911028202116530000000000043600000000043600002000000010410403310535027983164052100331100051202089   1030000900030000   541119000121190110000000080Sein Gay Har BAK       YANGONADA     MMR11003310535027983160331000000000000000   10300001F00104100000000002616000000000000     
100   95030301100183220000000000031300000000031300002000000010410403311051558073914052100331841211755089   1030000900030000   541119001471190110000001069K Mart Super Market-1  MONLAMYAING   MMR11003311051558073910331000000000000000   10300001F00104100000000001878000000000000     
100   95050318631979070000000000008800000000008800002000000010410403311047398072391501310331742171739089   1030000900030000   541119001464190110000000077Sein Gay Har Chinatown YANGON        MMR11003311047398072390331000000000000000   10300001F00104100000000002200000000000000     
100   62911028202482750000000000005250000000005250002000000010410403310955556312554052100331270231639089   1030000300030000   444410116806104519000014353BreadTalk JunctionCity               MMR11003310955556312550331000000000000000   10300001 00104100000000000536000000000000     
100   95050312139901420000000000000980000000000980002000000010410403310328285828424529120331000006907082   1020000200030000   333400010001204104000000281Myanmar Soft-Gate Tech Yangon        MMR11003310328285828420331000000000000000   10300001F05104100000000000206000000000000     
100   62911028202448030000000000050000000000050000002000000010410403310502416270814052100331797301127089   1030000300030000   888810125458104519000021285Shwe Taung Energy CoLt               MMR11003310502416270810331000000000000000   10300001 00104100000000001500000000000000     
100   62911028202907490000000000030000000000030000002000000010410403310639356285484052100331674101301089   1030000500030000   555610103467104519000003420City Mart Yankin Cente 6             MMR11003310639356285480331000000000000000   10300001 00104100000000001800000000000000     
100   95050326155679180000000000008820000000008820002000000010410403310715064506072544330331000006909418   1020000200030000   333400010001204104000000281Myanmar Soft-Gate Tech Yangon        MMR11003310715064506070331000000000000000   10300001F05104100000000001852000000000000     
100   95050316736513170000000000001960000000001960002000000010410403310416454645338819600331000006907683   1020000200030000   333400010001204104000000281Myanmar Soft-Gate Tech Yangon        MMR11003310416454645330331000000000000000   10300001F05104100000000000412000000000000     
100   95030321548759060000000000002450000000002450002000000010410403310343186261534052100331754161013089   1030000500030000   555610112654104519000010849City Express MCS 51                  MMR11003310343186261530331000000000000000   10300001 00104100000000000147000000000000     
100   95030301100121840000000000300000000000300000002000000010410403310504193419694052100331000006908220   1030000200030000   333800010001203104000003327KBZPay                 Yangon        MMR11003310504193419690331000000000000000   10300001F05104100000000063000000000000000     
100   95030301100121840000000000300000000000300000002000000010410403310505363536464052100331000006908230   1030000200030000   333800010001203104000003327KBZPay                 Yangon        MMR11003310505363536460331000000000000000   10300001F05104100000000063000000000000000     
100   62911028202907490000000000015850000000015850002000000010410403310620316284774052100331576031344089   1030000500030000   555610103466104519000003420City Mart Yankin Cente 5             MMR11003310620316284770331000000000000000   10300001 00104100000000000951000000000000     
100   62911028202464020000000000005150000000005150002000000010410403310447106269554052100331665201154089   1030000500030000   555610110576104519000009164City Mart China Town P int Cen       MMR11003310447106269550331000000000000000   10300001 00104100000000000309000000000000     
100   62911028202217510000000000021660000000021660002000000010410403311125576328524052100331439531749089   1030000500030000   555610112256104519000010487Ocean Super Center St  ohn           MMR11003311125576328520331000000000000000   10300001 00104100000000001300000000000000     
100   62911028202463780000000000028000000000028000002000000010410403311018446316324052100331762461651089   1030000500030000   555610110576104519000009164City Mart China Town P int Cen       MMR11003311018446316320331000000000000000   10300001 00104100000000001680000000000000     
100   95050312498129060000000000002940000000002940002000000010410403311330340034275607800331000006912584   1020000200030000   333400010001204104000000281Myanmar Soft-Gate Tech Yangon        MMR11003311330340034270331000000000000000   10300001F05104100000000000617000000000000     
100   95050318214455130000000000002940000000002940002000000010410403310109283928764905160331000006906044   1020000200030000   333400010001204104000000281Myanmar Soft-Gate Tech Yangon        MMR11003310109283928760331000000000000000   10300001F05104100000000000617000000000000     
100   95050319938772870000000000000980000000000980002000000010410403311239380938707175180331000006912261   1020000200030000   333400010001204104000000281Myanmar Soft-Gate Tech Yangon        MMR11003311239380938700331000000000000000   10300001F05104100000000000206000000000000     
100   95030367537085740000000000009800000000009800002000000010410403310836370637534052100331000006910194   1020000200030000   333400010001204104000000281Myanmar Soft-Gate Tech Yangon        MMR11003310836370637530331000000000000000   10300001F05104100000000002058000000000000     
100   95050325305150830000000000000980000000000980002000000010410403310424315431008138830331000006907787   1020000200030000   333400010001204104000000281Myanmar Soft-Gate Tech Yangon        MMR11003310424315431000331000000000000000   10300001F05104100000000000206000000000000     
100   95030326100018400000000000049500000000049500002000000010410403310900256306024052100331379381532089   1030000500030000   555610103976104519000003818Ocean Oattara Thiri Na PyiTaw        MMR11003310900256306020331000000000000000   10300001 00104100000000002970000000000000     
100   95030301100351360000000000020000000000020000002000000010410403310803533353904052100331000006909879   1030000500030000   333800010001201104000003863AYA Pay                Yangon        MMR11003310803533353900331000000000000000   10300001F05104100000000004200000000000000     
100   95050319938772870000000000000980000000000980002000000010410403311417114711329234210331000006912864   1020000200030000   333400010001204104000000281Myanmar Soft-Gate Tech Yangon        MMR11003311417114711320331000000000000000   10300001F05104100000000000206000000000000     
100   95030301100344690000000000070000000000070000002000000010410403311521265126284052100331000006913196   1030000200030000   333800010001203104000003327KBZPay                 Yangon        MMR11003311521265126280331000000000000000   10300001F05104100000000014700000000000000     
100   62911028202169750000000000047500000000047500002000000010410403310632246284314052100331508001351089   1030000500030000   555610118967104519000016137City Mart South Okkala WZYD BR       MMR11003310632246284310331000000000000000   10300001 00104100000000002850000000000000     
100   95050318617855880000000000002940000000002940002000000010410403311417424742520971790331000006912868   1020000200030000   333400010001204104000000281Myanmar Soft-Gate Tech Yangon        MMR11003311417424742520331000000000000000   10300001F05104100000000000617000000000000     
100   95030380891034700000000000200000000000200000002000000010410403310504503450054052100331000006908223   1030000200030000   333800010001203104000003327KBZPay                 Yangon        MMR11003310504503450050331000000000000000   10300001F05104100000000042000000000000000     
100   62443100361813580000000000100000000000100000002000000010410403310847071707509884480331000006910287   1030000200030000   333800010001203104000003327KBZPay                 Yangon        MMR11003310847071707500331000000000000000   10300001F05104100000000021000000000000000     
100   95050319753756490000000000010000000000010000002000000010410403311404313431547496630331000006912805   1030000200030000   333800010001203104000003327KBZPay                 Yangon        MMR11003311404313431540331000000000000000   10300001F05104100000000002100000000000000     
100   95050316067768680000000000000980000000000980002000000010410403311529375937498978920331000006913236   1020000200030000   333400010001204104000000281Myanmar Soft-Gate Tech Yangon        MMR11003311529375937490331000000000000000   10300001F05104100000000000206000000000000     
100   95050315396509660000000000010000000000010000002000000010410403310248121812698855250331000006906629   1030000200030000   333800010001203104000003327KBZPay                 Yangon        MMR11003310248121812690331000000000000000   10300001F05104100000000002100000000000000     
100   95030301100124570000000000050000000000050000002000000010410403310336000600504052100331000006907160   1030000200030000   333800010001203104000003327KBZPay                 Yangon        MMR11003310336000600500331000000000000000   10300001F05104100000000010500000000000000     
100   95030301100119390000000000300000000000300000002000000010410403301703143314424052100331000006905482   1030000200030000   333800010001203104000003327KBZPay                 Yangon        MMR11003301703143314420331000000000000000   10300001F05104100000000063000000000000000     
100   95050317903887690000000000000980000000000980002000000010410403302338400840778635610331000006905826   1020000200030000   333400010001204104000000281Myanmar Soft-Gate Tech Yangon        MMR11003302338400840770331000000000000000   10300001F05104100000000000206000000000000     
100   95050310397364970000000000002940000000002940002000000010410403311436480648464276760331000006912974   1020000200030000   333400010001204104000000281Myanmar Soft-Gate Tech Yangon        MMR11003311436480648460331000000000000000   10300001F05104100000000000617000000000000     
100   95050312968654190000000000021251000000021251002000000010410403310528586275723892080331389041227089   1030000500030000   555610103976104519000003818Ocean Oattara Thiri Na PyiTaw        MMR11003310528586275720331000000000000000   10300001 00104100000000005313000000000000     
100   95030301100123250000000000300000000000300000002000000010410403311207363736874052100331000006912052   1030000200030000   333800010001203104000003327KBZPay                 Yangon        MMR11003311207363736870331000000000000000   10300001F05104100000000063000000000000000     
100   95050313062063490000000000000980000000000980002000000010410403310815314531228657480331000006909999   1020000200030000   333400010001204104000000281Myanmar Soft-Gate Tech Yangon        MMR11003310815314531220331000000000000000   10300001F05104100000000000206000000000000     
100   95050312588902230000000000010000000000010000002000000010410403311117484748504976470331000006911694   1030000200030000   333800010001203104000003327KBZPay                 Yangon        MMR11003311117484748500331000000000000000   10300001F05104100000000002100000000000000     
100   95050319938772870000000000000980000000000980002000000010410403310022445244650203000331000006905886   1020000200030000   333400010001204104000000281Myanmar Soft-Gate Tech Yangon        MMR11003310022445244650331000000000000000   10300001F05104100000000000206000000000000     
100   95050313168701670000000000015000000000015000002000000010410403311009533953987210840331000006911156   1030000200030000   333800010001203104000003327KBZPay                 Yangon        MMR11003311009533953980331000000000000000   10300001F05104100000000003150000000000000     
100   95030301100118480000000000035000000000035000002000000010410403311215304530714052100331000006912105   1030000200030000   333800010001203104000003327KBZPay                 Yangon        MMR11003311215304530710331000000000000000   10300001F05104100000000007350000000000000     
100   62911028202908480000000000020000000000020000002000000010410403310615314531594052100331000006908866   1030000200030000   333800010001203104000003327KBZPay                 Yangon        MMR11003310615314531590331000000000000000   10300001F05104100000000004200000000000000     
100   95050319938772870000000000001960000000001960002000000010410403311237260726268912760331000006912248   1020000200030000   333400010001204104000000281Myanmar Soft-Gate Tech Yangon        MMR11003311237260726260331000000000000000   10300001F05104100000000000412000000000000     
100   95030370087325670000000000300000000000300000002000000010410403301743101310514052100331000006905559   1030000200030000   333800010001203104000003327KBZPay                 Yangon        MMR11003301743101310510331000000000000000   10300001F05104100000000063000000000000000     
100   95030353305053700000000000030240000000030240002000000010410403311254512451734052100331000006912394   1030000900030000   333800010001202104000003301uab bank               Yangon        MMR11003311254512451730331000000000000000   10300001F05104100000000006350000000000000     
100   95050319709462380000000000010000000000010000002000000010410403311243431343705437600331000006912296   1030000200030000   3338000100012031040000040022C2P (Myanmar) Co. Ltd Yangon        MMR11003311243431343700331000000000000000   10300001F05104100000000002100000000000000     
