100   95050328035424750000000000080000000000080000002000000010410404031130500000063741390403209318000006   1030000500030000   569120100801008405691201008M.Y FASHION            PTN           MMR11004031130500000060403000000000000000   10300001 00104100000000019200000000000000     
100   95050312520116690000000000007200000000007200002000000010410404030616080005282981240403209312000528   1030000500030000   531120156001000045311201560GAMONE PWINT           PTN           MMR11004030616080005280403000000000000000   10300001 00104100000000001728000000000000     
100   95030301100338180000000000018000000000018000002000000010410404030522320001204052100403209311000120   1030000500030000   531120155807000045311201558GAMONE PWINT           PTN           MMR11004030522320001200403000000000000000   10300001 00104100000000001080000000000000     
100   62443101006037900000000000021110000000021110002000000010410404031213490001920010940403000338361725   1030000300030000   806200000193000000000000097CB BANK                AUNG YADANA H MMR11004031213490001920403000000000000000   10300001F00104100000000005066000000000000     
100   62911028202162640000000000030000000000030000002000000010410404030228300003614052100403209308000361   1030000500030000   598320115101005405983201151PT POWER (HLEGU)       PTN           MMR11004030228300003610403000000000000000   10300001 00104100000000000900000000000000     
100   95050311587250810000000000010850000000010850002000000010410404030946180004222690300403000338342297   1030000300030000   531100000544000000000000376CB BANK                CAPITAL HYPER MMR11004030946180004220403000000000000000   10300001F00104100000000002604000000000000     
100   95050315144611650000000000008400000000008400002000000010410404030825110001500321390403209314000150   1030000500030000   531120155609000045311201556GAMONE PWINT           PTN           MMR11004030825110001500403000000000000000   10300001 00104100000000002016000000000000     
100   95030301100215990000000000004000000000004000002000000010410404031021080002114052100403209316000211   1030000500030000   531120155711000045311201557GAMONE PWINT           PTN           MMR11004031021080002110403000000000000000   10300001 00104100000000000240000000000000     
100   62911028202350660000000000012300000000012300002000000010410404031114450002424052100403209317000242   1030000500030000   531120155710000045311201557GAMONE PWINT           PTN           MMR11004031114450002420403000000000000000   10300001 00104100000000000738000000000000     
100   62911028202417260000000000041500000000041500002000000010410404030204020003074052100403209308000307   1030000500030000   806220172406013008062201724GRAND HANTHA HOSPITAL  PTN           MMR11004030204020003070403000000000000000   10300001 00104100000000002490000000000000     
100   62911028202116120000000000013966000000013966002000000010410404031222270002544052100403209318000254   1030000500030000   531120155710000045311201557GAMONE PWINT           PTN           MMR11004031222270002540403000000000000000   10300001 00104100000000000838000000000000     
100   62911028202656830000000000016000000000016000002000000010410404030407160000424052100403209310000042   1030000500030000   569120038601016505691200386ORANGE KIDZ            PTN           MMR11004030407160000420403000000000000000   10300001 00104100000000000960000000000000     
100   62911028202169750000000000067000000000067000002000000010410404030442280000134052100403209311000013   1030000500030000   481220022101000024812200221ANYCALL MOBILE         PTN           MMR11004030442280000130403000000000000000   10300001 00104100000000004020000000000000     
100   62911028202099050000000000033100000000033100002000000010410404030438510002264052100403209311000226   1030000500030000   531120155707000045311201557GAMONE PWINT           PTN           MMR11004030438510002260403000000000000000   10300001 00104100000000001986000000000000     
100   95050312520116690000000000022500000000022500002000000010410404030628200004071669140403209312000407   1030000500030000   531120156004000045311201560GAMONE PWINT           PTN           MMR11004030628200004070403000000000000000   10300001 00104100000000005400000000000000     
100   62911028202169750000000000040000000000040000002000000010410404030723290011624052100403209313001162   1030000500030000   598320002104000015172200021MAX ENERGY             PTN           MMR11004030723290011620403000000000000000   10300001 00104100000000001200000000000000     
100   95050315144611650000000000007830000000007830002000000010410404030838160000795193740403209315000079   1030000500030000   531120155608000045311201556GAMONE PWINT           PTN           MMR11004030838160000790403000000000000000   10300001 00104100000000001879000000000000     
100   62911028202010500000000000016550000000016550002000000010410404030737490003544052100403209314000354   1030000500030000   531120155714000045311201557GAMONE PWINT           PTN           MMR11004030737490003540403000000000000000   10300001 00104100000000000993000000000000     
100   95050328074436620000000000040000000000040000002000000010410404030822290010820406490403209314001082   1030000500030000   598320001603000015172200016MAX ENERGY             PTN           MMR11004030822290010820403000000000000000   10300001 00104100000000004800000000000000     
100   95050312520116690000000000004410000000004410002000000010410404030724590002052130280403209313000205   1030000500030000   531120156006000045311201560GAMONE PWINT           PTN           MMR11004030724590002050403000000000000000   10300001 00104100000000001058000000000000     
100   62911028202010500000000000010000000000010000002000000010410404030541380002384052100403209312000238   1030000500030000   569120069001008205691200690ESCORT                 PTN           MMR11004030541380002380403000000000000000   10300001 00104100000000000600000000000000     
100   95050315429354870000000000021000000000021000002000000010410404030921090001729981010403209315000172   1030000500030000   569120066901008205691200669ESCORT                 PTN           MMR11004030921090001720403000000000000000   10300001 00104100000000005040000000000000     
100   62911028202169750000000000052150000000052150002000000010410404030507070006134052100403209311000613   1030000500030000   503920036611000015039200366PRO-1 HOME CENTER      PTN           MMR11004030507070006130403000000000000000   10300001 00104100000000003129000000000000     
100   62911028202527490000000000037000000000037000002000000010410404030351570011054052100403209310001105   1030000500030000   598320002103000015172200021MAX ENERGY             PTN           MMR11004030351570011050403000000000000000   10300001 00104100000000001110000000000000     
100   62911028202099050000000000012900000000012900002000000010410404030444060000334052100403209311000033   1030000500030000   531120155703000045311201557GAMONE PWINT           PTN           MMR11004030444060000330403000000000000000   10300001 00104100000000000774000000000000     
100   95030301100117720000000000023600000000023600002000000010410404020449470000754087800402209211000075   1030000500030000   569120051501000015691200515AMERICAN BRANDED COLLE PTN           MMR11004020449470000750402000000000000000   10300001 00104100000000001416000000000000     
100   62911028202313470000000000011700000000011700002000000010410404030545330018464052100403209312001846   1030000500030000   591220020501005105912200205MINGALAR PHARMACY      PTN           MMR11004030545330018460403000000000000000   10300001 00104100000000000702000000000000     
100   62443101006037900000000000010000000000010000002000000010410404031054500014407897330403209317001440   1030000500030000   598320001302000015172200013MAX ENERGY             PTN           MMR11004031054500014400403000000000000000   10300001 00104100000000001200000000000000     
100   62911028202449440000000000056000000000056000002000000010410404030438590027954052100403209311002795   1030000500030000   598320001902000015172200019MAX ENERGY             PTN           MMR11004030438590027950403000000000000000   10300001 00104100000000001680000000000000     
100   95030339867270590000000000020000000000020000002000000010410404030722140016004052100403209313001600   1030000500030000   598320001004000015172200010MAX ENERGY             PTN           MMR11004030722140016000403000000000000000   10300001 00104100000000000600000000000000     
100   62911028202481270000000000045000000000045000002000000010410404030536500015244370310403209312001524   1030000500030000   598320001402000015172200014MAX ENERGY             PTN           MMR11004030536500015240403000000000000000   10300001 00104100000000001350000000000000     
100   62911028202029420000000000020000000000020000002000000010410404031033330016484052100403209317001648   1030000500030000   598320001004000015172200010MAX ENERGY             PTN           MMR11004031033330016480403000000000000000   10300001 00104100000000000600000000000000     
100   62443101037081820000000000053000000000053000002000000010410404030258250017032116490403209309001703   1030000500030000   598320001202000015172200012MAX ENERGY             PTN           MMR11004030258250017030403000000000000000   10300001 00104100000000006360000000000000     
100   62911028202443730000000000020000000000020000002000000010410404030852190029044052100403209315002904   1030000500030000   598320001902000015172200019MAX ENERGY             PTN           MMR11004030852190029040403000000000000000   10300001 00104100000000000600000000000000     
100   62911028202676220000000000036600000000036600002000000010410404030957380025434052100403000745098856   1030000200030000   591288000018000008000002044KBZ BANK               PINLON PHARMA MMR11004030957380025430403000000000000000   10300001 00104100000000002196000000000000     
100   62443100311760720000000000119600000000119600002000000010410404031613500045826080360403000745097990   1030000200030000   596588000900000008000000712KBZ BANK               AK CONCEPT SH MMR11004031613500045820403000000000000000   10300001 00104100000000028704000000000000     
100   62911028202287980000000000040000000000040000002000000010410404030200360014304052100403209308001430   1030000500030000   598320001301000015172200013MAX ENERGY             PTN           MMR11004030200360014300403000000000000000   10300001 00104100000000001200000000000000     
100   62443101003317490000000000038610000000038610002000000010410404031429282186114457820403209321218611   1040001600030000   581420000804000000010000580Jeff's Kitchen (Kan Ye Yangon        MMR11004031429282186110403000000000000000   10300001F00104100000000004633000000000000     
100   95050319374415880000000000050500000000050500002000000010410404041614110020366833710404000745151569   1030000200030000   541188001354000008000000395KBZ BANK               OCEAN SUPERMA MMR11004041614110020360404000000000000000   10300001 00104100000000012625000000000000     
100   95030312100077850000000000174078000000174078002000000010410404041034410024784052100404209417002478   1020000200030000   806200105001300018062000010MWD BANK               YGN           MMR11004041034410024780404000000000000000   10300001 00104100000000010445000000000000     
100   95030301100136200000000000300000000000300000002000000010410404040830420042124052100404000006936297   1030000200030000   333800010001203104000003327KBZPay                 Yangon        MMR11004040830420042120404000000000000000   10300001F05104100000000063000000000000000     
100   95030333478847140000000000012300000000012300002000000010410404041515350022514052100404000745148492   1030000200030000   541188001462000008000000391KBZ BANK               OCEAN SUPER C MMR11004041515350022510404000000000000000   10300001 00104100000000000738000000000000     
100   62443100318296470000000000027450000000027450002000000010410404040943070040726335450404000745123690   1030000200030000   541188001022000008000000298KBZ BANK               CITY MART - M MMR11004040943070040720404000000000000000   10300001 00104100000000006863000000000000     
100   62911028202161240000000000030319000000030319002000000010410404041002560040744052100404000745124593   1030000200030000   541188001022000008000000298KBZ BANK               CITY MART - M MMR11004041002560040740404000000000000000   10300001 00104100000000001819000000000000     
100   95030337100000390000000000020500000000020500002000000010410404040327350024334052100404000745124353   1030000200030000   591288001741000008000004646KBZ BANK               PINLON PHARMA MMR11004040327350024330404000000000000000   10300001 00104100000000001230000000000000     
100   62911028202668140000000000012200000000012200002000000010410404041718330014354052100404000745155468   1030000200030000   581288000950000008000004879KBZ BANK               PIZZA HUT RES MMR11004041718330014350404000000000000000   10300001 00104100000000001244000000000000     
100   62443100323117100000000000060000000000060000002000000010410404040535390539800829660404000006934545   1030000200030000   333800010001203104000003327KBZPay                 Yangon        MMR11004040535390539800404000000000000000   10300001F05104100000000012600000000000000     
100   95050318621775380000000000010000000000010000002000000010410404041344011401644316470404000006938494   1030000200030000   3338000100012031040000040022C2P (Myanmar) Co. Ltd Yangon        MMR11004041344011401640404000000000000000   10300001F05104100000000002100000000000000     
100   95050310305109410000000000000980000000000980002000000010410404040638180818796169090404000006935175   1020000200030000   333400010001204104000000281Myanmar Soft-Gate Tech Yangon        MMR11004040638180818790404000000000000000   10300001F05104100000000000206000000000000     
100   95050315005801680000000000002940000000002940002000000010410404041451512151337542060404000006938914   1020000200030000   333400010001204104000000281Myanmar Soft-Gate Tech Yangon        MMR11004041451512151330404000000000000000   10300001F05104100000000000617000000000000     
100   95050320684106730000000000005000000000005000002000000010410404040045231523390145480404000006931996   1030000200030000   3338000100012031040000040022C2P (Myanmar) Co. Ltd Yangon        MMR11004040045231523390404000000000000000   10300001F05104100000000001050000000000000     
100   95050317343045830000000000002940000000002940002000000010410404041036110611041620970404000006937399   1020000200030000   333400010001204104000000281Myanmar Soft-Gate Tech Yangon        MMR11004041036110611040404000000000000000   10300001F05104100000000000617000000000000     
100   95050310121313850000000000035280000000035280002000000010410404041041241124877975620404000006937417   1030000900030000   333800010001202104000003301uab bank               Yangon        MMR11004041041241124870404000000000000000   10300001F05104100000000007409000000000000     
100   95050323133124350000000000002940000000002940002000000010410404040542011201754645200404000006934613   1020000200030000   333400010001204104000000281Myanmar Soft-Gate Tech Yangon        MMR11004040542011201750404000000000000000   10300001F05104100000000000617000000000000     
100   95050323067379780000000000300000000000300000002000000010410404040952102210972982510404000006937056   1030000200030000   333800010001203104000003327KBZPay                 Yangon        MMR11004040952102210970404000000000000000   10300001F05104100000000063000000000000000     
100   95030363083688740000000000050000000000050000002000000010410404040551062106024052100404000006934739   1030000200030000   333800010001203104000003327KBZPay                 Yangon        MMR11004040551062106020404000000000000000   10300001F05104100000000010500000000000000     
100   95030367537085740000000000000980000000000980002000000010410404040647191719044052100404000006935254   1020000200030000   333400010001204104000000281Myanmar Soft-Gate Tech Yangon        MMR11004040647191719040404000000000000000   10300001F05104100000000000206000000000000     
100   95030317922148660000000000180000000000180000002000000010410404040354142417244052100404024149593711   1040001400030000   806210000098028062100000766Yoma OUE Pun Hlaing Ho pital  Yoma O MMR11004040354142417240404000000000000000   10300001 00104100000000010800000000000000     
100   95050316949180000000000000005880000000005880002000000010410404041431350135695889570404000006938800   1020000200030000   333400010001204104000000281Myanmar Soft-Gate Tech Yangon        MMR11004041431350135690404000000000000000   10300001F05104100000000001235000000000000     
100   95050317100052460000000000002940000000002940002000000010410404040933450345025686090404000006936907   1020000200030000   333400010001204104000000281Myanmar Soft-Gate Tech Yangon        MMR11004040933450345020404000000000000000   10300001F05104100000000000617000000000000     
100   95050316586367540000000000002940000000002940002000000010410404040341461146526230830404000006933310   1020000200030000   333400010001204104000000281Myanmar Soft-Gate Tech Yangon        MMR11004040341461146520404000000000000000   10300001F05104100000000000617000000000000     
100   95050316421999920000000000002940000000002940002000000010410404041039540954711280580404000006937414   1020000200030000   333400010001204104000000281Myanmar Soft-Gate Tech Yangon        MMR11004041039540954710404000000000000000   10300001F05104100000000000617000000000000     
100   95050323067379780000000000300000000000300000002000000010410404040950232023524549900404000006937041   1030000200030000   333800010001203104000003327KBZPay                 Yangon        MMR11004040950232023520404000000000000000   10300001F05104100000000063000000000000000     
100   95050315889680120000000000011010000000011010002000000010410404041146061606869578660404000006937822   1030000200030000   333800010001203104000003327KBZPay                 Yangon        MMR11004041146061606860404000000000000000   10300001F05104100000000002312000000000000     
100   62911028202383670000000000038700000000038700002000000010410404041431060081184052100404000745145596   1030000200030000   541188001361000008000000395KBZ BANK               OCEAN SUPERMA MMR11004041431060081180404000000000000000   10300001 00104100000000002322000000000000     
100   95030349489765520000000000026000000000026000002000000010410404040935170517784052100404000006936924   1030000200030000   333800010001203104000003327KBZPay                 Yangon        MMR11004040935170517780404000000000000000   10300001F05104100000000005460000000000000     
100   95030353305053700000000000201600000000201600002000000010410404041339140914724052100404000006938463   1030000900030000   333800010001202104000003301uab bank               Yangon        MMR11004041339140914720404000000000000000   10300001F05104100000000042336000000000000     
100   95030301100425040000000000028600000000028600002000000010410404041547071707474052100404000006939197   1030000200030000   3333000100012031040000040282C2P (Myanmar) Co. Ltd Yangon        MMR11004041547071707470404000000000000000   10300001F05104100000000010000000000000000     
100   62911028202124460000000000014508000000014508002000000010410404041307300105504052100404000745139297   1030000200030000   541188001303000008000000325KBZ BANK               CITY MART - A MMR11004041307300105500404000000000000000   10300001 00104100000000000870000000000000     
100   62911028202531350000000000003900000000003900002000000010410404041017520196394052100404000745125435   1030000200030000   541188001003000008000000008KBZ BANK               MARKETPLACE - MMR11004041017520196390404000000000000000   10300001 00104100000000000234000000000000     
100   62443100395535610000000000300000000000300000002000000010410404040843431343492345470404000006936418   1030000200030000   333800010001203104000003327KBZPay                 Yangon        MMR11004040843431343490404000000000000000   10300001F05104100000000063000000000000000     
100   62911028202169750000000000027000000000027000002000000010410404040412302421944052100404209411242194   1040001600030000   598320000838000000010000600Regency Petrol Station Ygn           MMR11004040412302421940404000000000000000   10300001F00104100000000000810000000000000     
100   95030301100183220000000000042800000000042800002000000010410403310509560023294052100331209005002329   1030000600030000   554100001229315799420000683DENKO PAUNG            PAUNG         MMR11003310509560023290331000000000000000   10300001 00104100000000001284000000000000     
100   62911028202472440000000000044011000000044011002000000010410404030757420016944052100403209314001694   1030000500030000   598320001403000015172200014MAX ENERGY             PTN           MMR11004030757420016940403000000000000000   10300001 00104100000000001320000000000000     
100   62911028202318750000000000073435000000073435002000000010410403310605070140674052100331209006014067   1030000600030000   809900000541315799420000147GRAND HANTHA HOSPITAL  YANGON        MMR11003310605070140670331000000000000000   10300001 00104100000000004406000000000000     
100   95030301100126550000000000030000000000030000002000000010410403301108480583254052100330208911058325   1030000600030000   554100000952315799420000474DENKO N.DAGON - 1      YANGON        MMR11003301108480583250330000000000000000   10300001 00104100000000000900000000000000     
100   62911028202721270000000000002800000000002800002000000010410403311229250037304052100331209012003730   1030000600030000   549900002089315799420001439EASY MART 021          YANGON        MMR11003311229250037300331000000000000000   10300001 00104100000000000286000000000000     
100   95030305700676370000000000060000000000060000002000000010410403311151210051574052100331209011005157   1030000600030000   554100002141315799420001490DENKO MEIKHTILA 3      MANDALAY      MMR11003311151210051570331000000000000000   10300001 00104100000000001800000000000000     
100   95030301100127050000000000085000000000085000002000000010410403310102170091984052100331209001009198   1030000600030000   554100002324315799420000481DENKO NORTH OKKALAPA   YANGON        MMR11003310102170091980331000000000000000   10300001 00104100000000002550000000000000     
100   95050320531117320000000000436000000000436000002000000010410403310652080357111317320331209006035711   1030000600030000   554100001009315799420000504DENKO SOUTH DAGON      YANGON        MMR11003310652080357110331000000000000000   10300001 00104100000000052320000000000000     
100   62911028202204070000000000030000000000030000002000000010410403310626260427394052100331209006042739   1030000600030000   554100001001315799420000498DENKO SHWE PYI THAR    YANGON        MMR11003310626260427390331000000000000000   10300001 00104100000000000900000000000000     
100   62443100313002190000000000050000000000050000002000000010410403311100360427900019020331209011042790   1030000600030000   554100001001315799420000498DENKO SHWE PYI THAR    YANGON        MMR11003311100360427900331000000000000000   10300001 00104100000000006000000000000000     
100   62911028202151910000000000027050000000027050002000000010410403301110200013664052100330208911001366   1030000600030000   581200002191315799420001536CANTON PARADISE TC     YANGON        MMR11003301110200013660330000000000000000   10300001 00104100000000002759000000000000     
100   62443101076362230000000003534000000003534000002000000010410403300942470000785592210330208909000078   1030000600030000   701100000973315799420000494LOTTE HOTELS & RESORTS YANGON        MMR11003300942470000780330000000000000000   10300001 00104100000001501950000000000000     
100   62911028202471860000000000080000000000080000002000000010410403300949120071854052100330208909007185   1030000600030000   554100001213315799420000665DENKO KWYAL TUT SONE   MANDALAY      MMR11003300949120071850330000000000000000   10300001 00104100000000002400000000000000     
100   62911028202610960000000000080000000000080000002000000010410404010007170058844052100401209100005884   1030000600030000   554100002085315799420000471DENKO BAHAN            YANGON        MMR11004010007170058840401000000000000000   10300001 00104100000000002400000000000000     
100   62911028202491330000000000070000000000070000002000000010410404010824290060474052100401209108006047   1030000600030000   554100002085315799420000471DENKO BAHAN            YANGON        MMR11004010824290060470401000000000000000   10300001 00104100000000002100000000000000     
100   62443100323891610000000000057500000000057500002000000010410404010741400038033928290401209107003803   1030000600030000   554100000746315799420000324DENKO SHANKALAY KYUN   MANDALAY      MMR11004010741400038030401000000000000000   10300001 00104100000000006900000000000000     
100   95050312539675540000000000003000000000003000002000000010410404010235500055479440060401209102005547   1030000600030000   554100002139315799420001488DENKO MDY-12           MANDALAY      MMR11004010235500055470401000000000000000   10300001 00104100000000000360000000000000     
100   62911028202471860000000000060000000000060000002000000010410404010601360072404052100401209106007240   1030000600030000   554100001213315799420000665DENKO KWYAL TUT SONE   MANDALAY      MMR11004010601360072400401000000000000000   10300001 00104100000000001800000000000000     
100   95030319588829360000000000050000000000050000002000000010410404010733230141695060010401209107014169   1030000600030000   554100002319315799420000477DENKO INSEIN           YANGON        MMR11004010733230141690401000000000000000   10300001 00104100000000001500000000000000     
100   62911028202221220000000000010000000000010000002000000010410404010147220760704052100401209101076070   1030000600030000   554100000946315799420000471DENKO BAHAN            YANGON        MMR11004010147220760700401000000000000000   10300001 00104100000000000300000000000000     
100   95050312520116690000000000007056000000007056002000000010410404030719190005761073470403209313000576   1030000500030000   531120156008000045311201560GAMONE PWINT           PTN           MMR11004030719190005760403000000000000000   10300001 00104100000000001694000000000000     
100   95030331635936620000000000043132000000043132002000000010410404030606260008154052100403209312000815   1030000500030000   598320041901000055983200419MAX ENERGY             PTN           MMR11004030606260008150403000000000000000   10300001 00104100000000001294000000000000     
100   95030318100004530000000000010000000000010000002000000010410403310623020056924052100331209006005692   1030000600030000   554100001209315799420000661DENKO  MOTAMA          MOTAMA.       MMR11003310623020056920331000000000000000   10300001 00104100000000000300000000000000     
100   95050321688266460000000000130000000000130000002000000010410404041341251125642578890404000006938481   1030000500030000   333800010001201104000003863AYA Pay                Yangon        MMR11004041341251125640404000000000000000   10300001F05104100000000027300000000000000     
100   95050319938772870000000000030000000000030000002000000010410404040750262026634253240404000006935890   1030000200030000   333800010001203104000003327KBZPay                 Yangon        MMR11004040750262026630404000000000000000   10300001F05104100000000006300000000000000     
100   95050314842866260000000000028150000000028150002000000010410404030442190005491449510403209311000549   1030000500030000   531120156008000045311201560GAMONE PWINT           PTN           MMR11004030442190005490403000000000000000   10300001 00104100000000006756000000000000     
100   95030333247185050000000000016700000000016700002000000010410404031016520000374052100403209316000037   1030000500030000   566120038401016505661200384RIPPLE FLIPFLOPS       PTN           MMR11004031016520000370403000000000000000   10300001 00104100000000001002000000000000     
100   62911028202393160000000000030000000000030000002000000010410403311418160083564052100331209014008356   1030000600030000   554100001218315799420000670DENKO MAWLAMYAING      MON STATE.    MMR11003311418160083560331000000000000000   10300001 00104100000000000900000000000000     
100   62911028202245730000000000037610000000037610002000000010410404020423500002254052100402209210000225   1030000500030000   806220172402013008062201724GRAND HANTHA HOSPITAL  PTN           MMR11004020423500002250402000000000000000   10300001 00104100000000002257000000000000     
100   95050313374257020000000000095760000000095760002000000010410404040959382938619677550404000006937110   1030000900030000   333800010001202104000003301uab bank               Yangon        MMR11004040959382938610404000000000000000   10300001F05104100000000020110000000000000     
100   62911028202531350000000000085609000000085609002000000010410404041016320196384052100404000745125340   1030000200030000   541188001003000008000000008KBZ BANK               MARKETPLACE - MMR11004041016320196380404000000000000000   10300001 00104100000000005137000000000000     
100   95030301100183220000000000030000000000030000002000000010410404031038520008504052100403209317000850   1030000500030000   598320041901000055983200419MAX ENERGY             PTN           MMR11004031038520008500403000000000000000   10300001 00104100000000000900000000000000     
100   95050327416134790000000000022000000000022000002000000010410404040501383138808609080404000006934127   1030000200030000   3333000100012031040000040282C2P (Myanmar) Co. Ltd Yangon        MMR11004040501383138800404000000000000000   10300001F05104100000000010000000000000000     
100   62911028202130710000000000129500000000129500002000000010410404030956590000814052100403209316000081   1030000500030000   569120105501000015691201055MIX (YUZANA PLAZA)     PTN           MMR11004030956590000810403000000000000000   10300001 00104100000000007770000000000000     
100   95030318100004530000000000030000000000030000002000000010410403311016110083454052100331209010008345   1030000600030000   554100001218315799420000670DENKO MAWLAMYAING      MON STATE.    MMR11003311016110083450331000000000000000   10300001 00104100000000000900000000000000     
100   95050322426452690000000000060000000000060000002000000010410404010910060099528871960401209109009952   1030000600030000   554100001217315799420000669DENKO PHAYAR GYI       BAGO          MMR11004010910060099520401000000000000000   10300001 00104100000000007200000000000000     
100   95030301100346830000000000050000000000050000002000000010410404041134070407204052100404000006937755   1030000200030000   333800010001203104000003327KBZPay                 Yangon        MMR11004041134070407200404000000000000000   10300001F05104100000000010500000000000000     
100   62911028202401160000000000047787000000047787002000000010410403310944470185854052100331209009018585   1030000600030000   809900000537315799420000147GRAND HANTHA HOSPITAL  YANGON        MMR11003310944470185850331000000000000000   10300001 00104100000000002867000000000000     
100   62443100301716860000000000000980000000000980002000000010410404040727475747318628810404000006935672   1020000200030000   333400010001204104000000281Myanmar Soft-Gate Tech Yangon        MMR11004040727475747310404000000000000000   10300001F05104100000000000206000000000000     
100   95030301100126220000000000015400000000015400002000000010410404041724570204774052100404000745155962   1030000200030000   541188001007000008000000008KBZ BANK               MARKETPLACE - MMR11004041724570204770404000000000000000   10300001 00104100000000000924000000000000     
100   95030363502824520000000000000800000000000800002000000010410404041249331933154052100404000006938173   1030000200030000   333800010001203104000003327KBZPay                 Yangon        MMR11004041249331933150404000000000000000   10300001F05104100000000000168000000000000     
100   95050318242219520000000000003700000000003700002000000010410404031137410002010691710403000338357101   1030000300030000   541100000076000000000000016CB BANK                CAPITAL EXPRE MMR11004031137410002010403000000000000000   10300001F00104100000000000925000000000000     
100   62911028202350660000000000017550000000017550002000000010410404031134510001946518400403209318000194   1030000500030000   531120155718000045311201557GAMONE PWINT           PTN           MMR11004031134510001940403000000000000000   10300001 00104100000000001053000000000000     
100   62443100378093870000000000022000000000022000002000000010410404030716290000179506080403209313000017   1030000500030000   569120166601000015691201666DAZE                   PTN           MMR11004030716290000170403000000000000000   10300001 00104100000000005280000000000000     
100   62911028202099050000000000003600000000003600002000000010410404030449150000344052100403209311000034   1030000500030000   531120155703000045311201557GAMONE PWINT           PTN           MMR11004030449150000340403000000000000000   10300001 00104100000000000216000000000000     
100   62911028202099050000000000013050000000013050002000000010410404030507350001374194710403209311000137   1030000500030000   531120155713000045311201557GAMONE PWINT           PTN           MMR11004030507350001370403000000000000000   10300001 00104100000000000783000000000000     
100   95030380891034700000000000049950000000049950002000000010410404030433090002194052100403209311000219   1030000500030000   541120024601022205411200246ORANGE (THANLYIN)      PTN           MMR11004030433090002190403000000000000000   10300001 00104100000000002997000000000000     
100   95050325925517520000000000019000000000019000002000000010410404030845330009767271710403209315000976   1030000500030000   598320001602000015172200016MAX ENERGY             PTN           MMR11004030845330009760403000000000000000   10300001 00104100000000002280000000000000     
100   95050315144611650000000000015000000000015000002000000010410404030811420001485363930403209314000148   1030000500030000   531120155609000045311201556GAMONE PWINT           PTN           MMR11004030811420001480403000000000000000   10300001 00104100000000003600000000000000     
100   95030301100338180000000000017820000000017820002000000010410404030529050002414052100403209311000241   1030000500030000   531120155806000045311201558GAMONE PWINT           PTN           MMR11004030529050002410403000000000000000   10300001 00104100000000001069000000000000     
100   62911028202194090000000000018000000000018000002000000010410404030349180008534052100403209310000853   1030000500030000   598320001204000015172200012MAX ENERGY             PTN           MMR11004030349180008530403000000000000000   10300001 00104100000000000540000000000000     
100   62911028202809480000000000022500000000022500002000000010410404030752530000184052100403209314000018   1030000500030000   566120038101016505661200381RIPPLE FLIPFLOPS       PTN           MMR11004030752530000180403000000000000000   10300001 00104100000000001350000000000000     
100   95030398701797940000000000010000000000010000002000000010410404030504180002154052100403000338305424   1030000300030000   531100000899000000000000636CB BANK                MGOU (MYANMAR MMR11004030504180002150403000000000000000   10300001F00104100000000000600000000000000     
100   95030313499565480000000000004850000000004850002000000010410404030151030002104052100403209308000210   1030000500030000   541120024601022205411200246ORANGE (THANLYIN)      PTN           MMR11004030151030002100403000000000000000   10300001 00104100000000000291000000000000     
100   62911028202674810000000000112450000000112450002000000010410404030936180006354052100403209316000635   1030000500030000   503920036606000015039200366PRO-1 HOME CENTER      PTN           MMR11004030936180006350403000000000000000   10300001 00104100000000006747000000000000     
100   62911028202595380000000000071000000000071000002000000010410404030745050009214052100403209314000921   1030000500030000   598320041902000055983200419MAX ENERGY             PTN           MMR11004030745050009210403000000000000000   10300001 00104100000000002130000000000000     
100   95050316601084530000000000000980000000000980002000000010410404040315144514720321180404000006932990   1020000200030000   333400010001204104000000281Myanmar Soft-Gate Tech Yangon        MMR11004040315144514720404000000000000000   10300001F05104100000000000206000000000000     
100   95050317003064220000000000000980000000000980002000000010410404041208243824524692510404000006937934   1020000200030000   333400010001204104000000281Myanmar Soft-Gate Tech Yangon        MMR11004041208243824520404000000000000000   10300001F05104100000000000206000000000000     
100   95050310397364970000000000002940000000002940002000000010410404041356592659087706540404000006938570   1020000200030000   333400010001204104000000281Myanmar Soft-Gate Tech Yangon        MMR11004041356592659080404000000000000000   10300001F05104100000000000617000000000000     
100   95050318057347910000000000000980000000000980002000000010410404041123555355145592920404000006937710   1020000200030000   333400010001204104000000281Myanmar Soft-Gate Tech Yangon        MMR11004041123555355140404000000000000000   10300001F05104100000000000206000000000000     
100   95050317343045830000000000000980000000000980002000000010410404040523165316192446490404000006934411   1020000200030000   333400010001204104000000281Myanmar Soft-Gate Tech Yangon        MMR11004040523165316190404000000000000000   10300001F05104100000000000206000000000000     
100   62911028202112400000000000017000000000017000002000000010410404040617162489574052100404209413248957   1040001600030000   598320000658000000010000527Shwe Taung Energy (YGN Yangon        MMR11004040617162489570404000000000000000   10300001F00104100000000000510000000000000     
100   95050319753756490000000000030000000000030000002000000010410404041357112711776054050404000006938574   1030000200030000   333800010001203104000003327KBZPay                 Yangon        MMR11004041357112711770404000000000000000   10300001F05104100000000006300000000000000     
100   95050316215826630000000000050000000000050000002000000010410404041102353235358046930404000006937583   1030000200030000   333800010001203104000003327KBZPay                 Yangon        MMR11004041102353235350404000000000000000   10300001F05104100000000010500000000000000     
100   95050311382087030000000000001960000000001960002000000010410404041029525952213103260404000006937352   1020000200030000   333400010001204104000000281Myanmar Soft-Gate Tech Yangon        MMR11004041029525952210404000000000000000   10300001F05104100000000000412000000000000     
100   95030301100117720000000000300000000000300000002000000010410404041628125812744052100404000006939366   1030000200030000   333800010001203104000003327KBZPay                 Yangon        MMR11004041628125812740404000000000000000   10300001F05104100000000063000000000000000     
100   95050319753756490000000000020000000000020000002000000010410404032357572757602648930404000006931919   1030000200030000   333800010001203104000003327KBZPay                 Yangon        MMR11004032357572757600404000000000000000   10300001F05104100000000004200000000000000     
100   95050310616516480000000000002940000000002940002000000010410404040908423842893984160404000006936641   1020000200030000   333400010001204104000000281Myanmar Soft-Gate Tech Yangon        MMR11004040908423842890404000000000000000   10300001F05104100000000000617000000000000     
100   95050315557781210000000000041000000000041000002000000010410404041408103810819359020404000006938655   1030000200030000   333800010001203104000003327KBZPay                 Yangon        MMR11004041408103810810404000000000000000   10300001F05104100000000008610000000000000     
100   95050315681162360000000000100000000000100000002000000010410404040204253425686634670404000006932300   1030000200030000   333800010001203104000003327KBZPay                 Yangon        MMR11004040204253425680404000000000000000   10300001F05104100000000021000000000000000     
100   95050312911050270000000000005000000000005000002000000010410404040311204120581633280404000006932922   1030000200030000   3338000100012031040000040022C2P (Myanmar) Co. Ltd Yangon        MMR11004040311204120580404000000000000000   10300001F05104100000000001050000000000000     
100   95050317465574180000000000006000000000006000002000000010410404041311524152202408700404000006938301   1030000200030000   333800010001203104000003327KBZPay                 Yangon        MMR11004041311524152200404000000000000000   10300001F05104100000000001260000000000000     
100   62443100373945130000000000021440000000021440002000000010410404040520076784633794240404267591116093   1030000500030000   555610123194104519000019444Neighbourhood Shwe Moe Kaung         MMR11004040520076784630404000000000000000   10300001 00104100000000005360000000000000     
100   62443100317500820000000000047500000000047500002000000010410404040239432384838932270404209409238483   1040001600030000   591220000288000000010000276Shwe Ohh Pharmacy (Nor Yangon        MMR11004040239432384830404000000000000000   10300001F00104100000000011400000000000000     
100   62911028202154800000000000339900000000339900002000000010410404041142292680514052100404209418268051   1040001600030000   573220000396000000010000372Snoopy Mobile (North D Yangon        MMR11004041142292680510404000000000000000   10300001F00104100000000020394000000000000     
100   95050312618592720000000000040000000000040000002000000010410404040301153115386555080404000006932803   1030000200030000   333800010001203104000003327KBZPay                 Yangon        MMR11004040301153115380404000000000000000   10300001F05104100000000008400000000000000     
100   95050326948926900000000000010000000000010000002000000010410404040300353035724817500404000006932797   1030000200030000   333800010001203104000003327KBZPay                 Yangon        MMR11004040300353035720404000000000000000   10300001F05104100000000002100000000000000     
100   62911028202112400000000000110700000000110700002000000010410404040601152481074052100404209413248107   1040001600030000   591220000267000000010000255Shwe Ohh Pharmacy (Bah Yangon        MMR11004040601152481070404000000000000000   10300001F00104100000000006642000000000000     
100   62911028202304220000000001237500000001237500002000000010410404040947322589054052100404209416258905   1040001600030000   829920000997000000010000727Institute of Internati Ygn           MMR11004040947322589050404000000000000000   10300001F00104100000000074250000000000000     
100   95050314996291580000000000002940000000002940002000000010410404040658442844700481420404000006935369   1020000200030000   333400010001204104000000281Myanmar Soft-Gate Tech Yangon        MMR11004040658442844700404000000000000000   10300001F05104100000000000617000000000000     
100   95050314557307430000000000001960000000001960002000000010410404040114304430043620640404000006932070   1020000200030000   333400010001204104000000281Myanmar Soft-Gate Tech Yangon        MMR11004040114304430040404000000000000000   10300001F05104100000000000412000000000000     
100   95050315158357300000000000000980000000000980002000000010410404040324545454963952750404000006933110   1020000200030000   333400010001204104000000281Myanmar Soft-Gate Tech Yangon        MMR11004040324545454960404000000000000000   10300001F05104100000000000206000000000000     
100   62443100379321630000000000090000000000090000002000000010410404041120192660896990110404209418266089   1040001600030000   598320000658000000010000527Shwe Taung Energy (YGN Yangon        MMR11004041120192660890404000000000000000   10300001F00104100000000010800000000000000     
100   95050314557307430000000000002940000000002940002000000010410404040910594059832331680404000006936672   1020000200030000   333400010001204104000000281Myanmar Soft-Gate Tech Yangon        MMR11004040910594059830404000000000000000   10300001F05104100000000000617000000000000     
100   62911028202304220000000001186750000001186750002000000010410404040948162589574052100404209416258957   1040001600030000   829920000997000000010000727Institute of Internati Ygn           MMR11004040948162589570404000000000000000   10300001F00104100000000071205000000000000     
100   95030317922148660000000000180000000000180000002000000010410404040349423916444052100404194261198731   1040001400030000   806210000098028062100000766Yoma OUE Pun Hlaing Ho pital  Yoma O MMR11004040349423916440404000000000000000   10300001 00104100000000010800000000000000     
100   95050323667276610000000000019600000000019600002000000010410404040615194519181346180404000006934971   1020000200030000   333400010001204104000000281Myanmar Soft-Gate Tech Yangon        MMR11004040615194519180404000000000000000   10300001F05104100000000004116000000000000     
100   95050316949180000000000000000980000000000980002000000010410404041512374237249279640404000006939026   1020000200030000   333400010001204104000000281Myanmar Soft-Gate Tech Yangon        MMR11004041512374237240404000000000000000   10300001F05104100000000000206000000000000     
100   95050314570621780000000000000980000000000980002000000010410404040921055105008140090404000006936792   1020000200030000   333400010001204104000000281Myanmar Soft-Gate Tech Yangon        MMR11004040921055105000404000000000000000   10300001F05104100000000000206000000000000     
100   95050319524870520000000000001960000000001960002000000010410404040821055105412394910404000006936211   1020000200030000   333400010001204104000000281Myanmar Soft-Gate Tech Yangon        MMR11004040821055105410404000000000000000   10300001F05104100000000000412000000000000     
100   95030301100125230000000000300000000000300000002000000010410404040324595459084052100404000006933113   1030000500030000   333800010001201104000003863AYA Pay                Yangon        MMR11004040324595459080404000000000000000   10300001F05104100000000063000000000000000     
100   95050315345734110000000000003920000000003920002000000010410404040802243224743707010404000006936027   1020000200030000   333400010001204104000000281Myanmar Soft-Gate Tech Yangon        MMR11004040802243224740404000000000000000   10300001F05104100000000000823000000000000     
100   95050315557781210000000000005000000000005000002000000010410404041326435643786309340404000006938392   1030000200030000   3338000100012031040000040022C2P (Myanmar) Co. Ltd Yangon        MMR11004041326435643780404000000000000000   10300001F05104100000000001050000000000000     
100   95050319709462380000000000011000000000011000002000000010410404041027575757240940200404000006937340   1030000200030000   3338000100012031040000040022C2P (Myanmar) Co. Ltd Yangon        MMR11004041027575757240404000000000000000   10300001F05104100000000002310000000000000     
100   62911028202684060000000000048000000000048000002000000010410404040409166774144052100404997371025093   1030000300030000   888810125940104519000021285Shwe Taung Energy CoLt               MMR11004040409166774140404000000000000000   10300001 00104100000000001440000000000000     
100   95050324848416180000000000020000000000020000002000000010410404041144352682264451010404209418268226   1040001600030000   598320000660000000010000529Shwe Taung Energy (NPT Naypyitaw     MMR11004041144352682260404000000000000000   10300001F00104100000000002400000000000000     
100   95050312171561790000000000040000000000040000002000000010410404040302403240525413180404000006932812   1030000200030000   333800010001203104000003327KBZPay                 Yangon        MMR11004040302403240520404000000000000000   10300001F05104100000000008400000000000000     
100   95050310332595380000000000002940000000002940002000000010410404041008163816609833950404000006937193   1020000200030000   333400010001204104000000281Myanmar Soft-Gate Tech Yangon        MMR11004041008163816600404000000000000000   10300001F05104100000000000617000000000000     
100   62911028202708080000000000300000000000300000002000000010410404040705243524144052100404000006935431   1030000200030000   333800010001203104000003327KBZPay                 Yangon        MMR11004040705243524140404000000000000000   10300001F05104100000000063000000000000000     
100   95030301100117720000000000300000000000300000002000000010410404041626295629024052100404000006939351   1030000200030000   333800010001203104000003327KBZPay                 Yangon        MMR11004041626295629020404000000000000000   10300001F05104100000000063000000000000000     
100   62911028202909880000000000145650000000145650002000000010410404040415326775004052100404111441011093   1030000300030000   555510124694104519000020166Makro Myanmar                        MMR11004040415326775000404000000000000000   10300001 00104100000000008739000000000000     
100   62911028202473430000000000360000000000360000002000000010410404040534112464764052100404209412246476   1040001600030000   591220000296000000010000284Shwe Ohh Pharmacy (Lan Yangon        MMR11004040534112464760404000000000000000   10300001F00104100000000021600000000000000     
100   62911028202417000000000000026500000000026500002000000010410404041054542638204052100404209417263820   1040001600030000   591220000265000000010000253Shwe Ohh Pharmacy (Yay Yangon        MMR11004041054542638200404000000000000000   10300001F00104100000000001590000000000000     
100   95050315158357300000000000000980000000000980002000000010410404040400403040818745720404000006933521   1020000200030000   333400010001204104000000281Myanmar Soft-Gate Tech Yangon        MMR11004040400403040810404000000000000000   10300001F05104100000000000206000000000000     
100   62911028202091860000000000002940000000002940002000000010410404041514384438514052100404000006939052   1020000200030000   333400010001204104000000281Myanmar Soft-Gate Tech Yangon        MMR11004041514384438510404000000000000000   10300001F05104100000000000617000000000000     
100   62443100391804560000000000300000000000300000002000000010410404040223245324326648460404000006932427   1030000500030000   333800010001201104000003863AYA Pay                Yangon        MMR11004040223245324320404000000000000000   10300001F05104100000000063000000000000000     
100   95050314570621780000000000000980000000000980002000000010410404040914564456944069260404000006936716   1020000200030000   333400010001204104000000281Myanmar Soft-Gate Tech Yangon        MMR11004040914564456940404000000000000000   10300001F05104100000000000206000000000000     
100   95050319996628650000000000000980000000000980002000000010410404041329405940230926410404000006938409   1020000200030000   333400010001204104000000281Myanmar Soft-Gate Tech Yangon        MMR11004041329405940230404000000000000000   10300001F05104100000000000206000000000000     
100   62911028202610540000000000040000000000040000002000000010410404040537476786374052100404462111246093   1030000500030000   555610110576104519000009164City Mart China Town P int Cen       MMR11004040537476786370404000000000000000   10300001 00104100000000002400000000000000     
100   62911028202104650000000000095000000000095000002000000010410404040736482526594052100404209414252659   1040001600030000   598320000911000000010000662MMTM - Tamwe           Ygn           MMR11004040736482526590404000000000000000   10300001F00104100000000002850000000000000     
100   95050312947607030000000000021000000000021000002000000010410404040415114511095986980404000006933668   1030000200030000   333800010001203104000003327KBZPay                 Yangon        MMR11004040415114511090404000000000000000   10300001F05104100000000004410000000000000     
100   62911028202163630000000000029000000000029000002000000010410404040538416786094052100404434101218093   1030000500030000   888810109465104519000008484Max Energy CoLtd 1                   MMR11004040538416786090404000000000000000   10300001 00104100000000000870000000000000     
100   62911028202761360000000000074550000000074550002000000010410404040626576792764052100404329561254093   1030000500030000   555610108768104519000003818City Mart Oattara Thir NPT           MMR11004040626576792760404000000000000000   10300001 00104100000000004473000000000000     
100   62443100326436660000000000122550000000122550002000000010410404041121536835984365920404979501718093   1030000300030000   555510124686104519000020166Makro Myanmar                        MMR11004041121536835980404000000000000000   10300001 00104100000000029412000000000000     
100   62911028202359000000000000047100000000047100002000000010410404041207406844214052100404078401847093   1030000500030000   555610108840104519000003432City Mart Junction Zaw na 1          MMR11004041207406844210404000000000000000   10300001 00104100000000002826000000000000     
100   62911028202821910000000000033300000000033300002000000010410404040804286806644052100404197341454093   1030000500030000   555610115763104519000013506MarketplaceMyanmarPlaz Branch        MMR11004040804286806640404000000000000000   10300001 00104100000000001998000000000000     
100   62911028202045260000000000026000000000026000002000000010410404040829416811044052100404755031538093   1030000500030000   555610112646104519000010841City Express MCS 07                  MMR11004040829416811040404000000000000000   10300001 00104100000000001560000000000000     
100   95050328074436620000000000063450000000063450002000000010410404040221358803073173300404226510835093   1030000900030000   591219000694190110000000525Shwe Ohh Pharmacy ST-2 YANGONAW      MMR11004040221358803070404000000000000000   10300001F00104100000000015228000000000000     
100   62911028202465920000000000006200000000006200002000000010410404040750306804704052100404968211420093   1030000500030000   555610110574104519000009164City Mart China Town P int Cen       MMR11004040750306804700404000000000000000   10300001 00104100000000000372000000000000     
100   62443100306028540000000000007200000000007200002000000010410404040605366789603715080404888351240093   1030000500030000   555610110574104519000009164City Mart China Town P int Cen       MMR11004040605366789600404000000000000000   10300001 00104100000000001800000000000000     
100   62911028202212490000000000011100000000011100002000000010410404040407498821064052100404226371049093   1030000900030000   581219000715190110000000546Akkhaya Tea House(Dago YANGON        MMR11004040407498821060404000000000000000   10300001F00104100000000001132000000000000     
100   62911028202290100000000000027950000000027950002000000010410404040618246791244052100404116471200093   1030000300030000   444410125393104519000021220Myanmar Bakery CoLtd                 MMR11004040618246791240404000000000000000   10300001 00104100000000002851000000000000     
100   62911028202359000000000000104000000000104000002000000010410404040815536808294052100404394441451093   1030000300030000   555510124696104519000020166Makro Myanmar                        MMR11004040815536808290404000000000000000   10300001 00104100000000006240000000000000     
100   95050313970192050000000000005050000000005050002000000010410404041237276849609103730404796231903093   1030000500030000   555610112651104519000010846City Express MCS 34                  MMR11004041237276849600404000000000000000   10300001 00104100000000001263000000000000     
100   62911028202761360000000000005300000000005300002000000010410404040630586793354052100404412001331093   1030000500030000   555610108767104519000003818City Mart Oattara Thir NPT           MMR11004040630586793350404000000000000000   10300001 00104100000000000318000000000000     
100   62911028202440680000000000020300000000020300002000000010410404041428026855904052100404616572036093   1030000500030000   555610120970104519000017733City Express MCS 14                  MMR11004041428026855900404000000000000000   10300001 00104100000000001218000000000000     
100   95050314749068520000000000010650000000010650002000000010410404041040266828704670650404073081700093   1030000500030000   555610108767104519000003818City Mart Oattara Thir NPT           MMR11004041040266828700404000000000000000   10300001 00104100000000002663000000000000     
100   95050310599777990000000000019800000000019800002000000010410404040752208870621714140404320221420093   1030000900030000   541119000116190110000000078Sein Gay Har Kan Thar  YANGONOKKALAP MMR11004040752208870620404000000000000000   10300001F00104100000000004950000000000000     
100   95030301100425790000000000030000000000030000002000000010410404040338402408474052100404209410240847   1040001600030000   598320000830000000010000596Regency Petrol Station Ygn           MMR11004040338402408470404000000000000000   10300001F00104100000000000900000000000000     
100   95030301100136200000000000050000000000050000002000000010410404040637500750064052100404000006935167   1030000200030000   333800010001203104000003327KBZPay                 Yangon        MMR11004040637500750060404000000000000000   10300001F05104100000000010500000000000000     
100   95050310332595380000000000004900000000004900002000000010410404041539570957420932130404000006939178   1020000200030000   333400010001204104000000281Myanmar Soft-Gate Tech Yangon        MMR11004041539570957420404000000000000000   10300001F05104100000000001029000000000000     
100   95050315330275830000000000000980000000000980002000000010410404041351392139505968960404000006938547   1020000200030000   333400010001204104000000281Myanmar Soft-Gate Tech Yangon        MMR11004041351392139500404000000000000000   10300001F05104100000000000206000000000000     
100   62443101071845130000000000062700000000062700002000000010410404040252342234482824630404000006932706   1030000200030000   3333000100012031040000040282C2P (Myanmar) Co. Ltd Yangon        MMR11004040252342234480404000000000000000   10300001F05104100000000010000000000000000     
100   95030301100159060000000000300000000000300000002000000010410404040148221822044052100404000006932205   1030000200030000   333800010001203104000003327KBZPay                 Yangon        MMR11004040148221822040404000000000000000   10300001F05104100000000063000000000000000     
100   95050316818236190000000000000980000000000980002000000010410404041246551655715713670404000006938152   1020000200030000   333400010001204104000000281Myanmar Soft-Gate Tech Yangon        MMR11004041246551655710404000000000000000   10300001F05104100000000000206000000000000     
100   62911028202124950000000000083400000000083400002000000010410404041721340076434052100404000745155698   1030000200030000   541188001060000008000000314KBZ BANK               MARKETPLACE - MMR11004041721340076430404000000000000000   10300001 00104100000000005004000000000000     
100   95050324247403260000000000006750000000006750002000000010410404040729526801260366390404506571343093   1030000300030000   444410125394104519000021221Myanmar Bakery CoLtd                 MMR11004040729526801260404000000000000000   10300001 00104100000000002869000000000000     
100   62911028202217510000000000024312000000024312002000000010410404041135046839304052100404407101842093   1030000500030000   555610112231104519000010487Ocean Super Center St  ohn           MMR11004041135046839300404000000000000000   10300001 00104100000000001459000000000000     
100   95030397783014330000000000000585000000000585002000000010410404040840346811654052100404839081508093   1030000500030000   555610112237104519000010487Ocean Super Center St  ohn           MMR11004040840346811650404000000000000000   10300001 00104100000000000035000000000000     
100   95050316573091630000000000019900000000019900002000000010410404041101386833283089470404651341714093   1030000300030000   555510124696104519000020166Makro Myanmar                        MMR11004041101386833280404000000000000000   10300001 00104100000000004776000000000000     
100   62911028202910850000000000007100000000007100002000000010410404041212526844444052100404124421825093   1030000500030000   555610112654104519000010849City Express MCS 51                  MMR11004041212526844440404000000000000000   10300001 00104100000000000426000000000000     
100   95030301100128040000000000002500000000002500002000000010410404040650326795984052100404806181322093   1030000500030000   555610120986104519000017749City Express MCS 68                  MMR11004040650326795980404000000000000000   10300001 00104100000000000150000000000000     
100   62911028202520610000000000006400000000006400002000000010410404041108386834074052100404737381742093   1030000300030000   555610125778104519000021591One Stop Kitchen Super arket         MMR11004041108386834070404000000000000000   10300001 00104100000000000384000000000000     
100   62911028202291270000000000009300000000009300002000000010410404040443128828504052100404694131112093   1030000900030000   541119000149190110000000083SeinGayHarParami Cente YANGON        MMR11004040443128828500404000000000000000   10300001F00104100000000000558000000000000     
100   95050323067379780000000000300000000000300000002000000010410404041134300430283138910404000006937761   1030000200030000   333800010001203104000003327KBZPay                 Yangon        MMR11004041134300430280404000000000000000   10300001F05104100000000063000000000000000     
100   95050320360851930000000000000980000000000980002000000010410404041338310831929273920404000006938457   1020000200030000   333400010001204104000000281Myanmar Soft-Gate Tech Yangon        MMR11004041338310831920404000000000000000   10300001F05104100000000000206000000000000     
100   95050324411430900000000000015400000000015400002000000010410404041830070110147912380404000745161980   1030000200030000   541188001047000008000000010KBZ BANK               MARKETPLACE - MMR11004041830070110140404000000000000000   10300001 00104100000000003850000000000000     
100   95050317003064220000000000001960000000001960002000000010410404031736320632898188270404000006931693   1020000200030000   333400010001204104000000281Myanmar Soft-Gate Tech Yangon        MMR11004031736320632890404000000000000000   10300001F05104100000000000412000000000000     
100   62443100346413950000000000028600000000028600002000000010410404040242291229848421690404000006932586   1030000200030000   3333000100012031040000040282C2P (Myanmar) Co. Ltd Yangon        MMR11004040242291229840404000000000000000   10300001F05104100000000010000000000000000     
100   62443100391804560000000000004900000000004900002000000010410404040344531453622931590404000006933356   1020000200030000   333400010001204104000000281Myanmar Soft-Gate Tech Yangon        MMR11004040344531453620404000000000000000   10300001F05104100000000001029000000000000     
100   95050313588016410000000000300000000000300000002000000010410404040645561556575268680404000006935246   1030000200030000   333800010001203104000003327KBZPay                 Yangon        MMR11004040645561556570404000000000000000   10300001F05104100000000063000000000000000     
100   95030339867270590000000000175250000000175250002000000010410404040349292412674052100404209410241267   1040001600030000   591220000273000000010000261Shwe Ohh Pharmacy (WZY Yangon        MMR11004040349292412670404000000000000000   10300001F00104100000000010515000000000000     
100   62911028202076850000000000003800000000003800002000000010410404041016058905544052100404600461605093   1030000900030000   541119001263190110000000958City Mart PLST C 6     YANGONMYOTHIT MMR11004041016058905540404000000000000000   10300001F00104100000000000228000000000000     
100   95050318964967630000000000010400000000010400002000000010410404041013398904875387070404556431639093   1030000900030000   541119001263190110000000958City Mart PLST C 6     YANGONMYOTHIT MMR11004041013398904870404000000000000000   10300001F00104100000000002600000000000000     
100   62911028202661370000000000059000000000059000002000000010410404040731538865844052100404019011453093   1030000900030000   569119001496190110000001090Next Generation GCS JC YANGONN       MMR11004040731538865840404000000000000000   10300001F00104100000000003540000000000000     
100   95050319978637470000000000030255000000030255002000000010410404040839018881390182400404032091501093   1030000900030000   541119001311190110000000968Ocean Mingalar MDY     MANDALAYHARSI MMR11004040839018881390404000000000000000   10300001F00104100000000007564000000000000     
100   95030301100121270000000000108200000000108200002000000010410404040749558869954052100404284191455093   1030000900030000   541119001261190110000000958City Mart PLST C 4     YANGONMYOTHIT MMR11004040749558869950404000000000000000   10300001F00104100000000006492000000000000     
100   95030379578686440000000000069950000000069950002000000010410404040910588889504052100404562401558093   1030000900030000   591219000608190110000000448Shwe Ohh Pharmacy St-2 YANGON        MMR11004040910588889500404000000000000000   10300001F00104100000000004197000000000000     
100   95050310616516480000000000045300000000045300002000000010410404041011278904193904780404505411627093   1030000900030000   541119001263190110000000958City Mart PLST C 6     YANGONMYOTHIT MMR11004041011278904190404000000000000000   10300001F00104100000000011325000000000000     
100   95030301100124400000000000005200000000005200002000000010410404041108138920704052100404660381713093   1030000900030000   541119001272190110000000960City Mart PLST Season  YANGONMYOTHIT MMR11004041108138920700404000000000000000   10300001F00104100000000000312000000000000     
100   95030301100120930000000000050000000000050000002000000010410404040753242324684052100404000006935911   1030000200030000   333800010001203104000003327KBZPay                 Yangon        MMR11004040753242324680404000000000000000   10300001F05104100000000010500000000000000     
100   95050319220344710000000000001960000000001960002000000010410404040831080108462636410404000006936298   1020000200030000   333400010001204104000000281Myanmar Soft-Gate Tech Yangon        MMR11004040831080108460404000000000000000   10300001F05104100000000000412000000000000     
100   62911028202482830000000000032050000000032050002000000010410404041111450217184052100404000745129601   1030000200030000   541188001059000008000000314KBZ BANK               MARKETPLACE - MMR11004041111450217180404000000000000000   10300001 00104100000000001923000000000000     
100   95030367537085740000000000001960000000001960002000000010410404040653122312224052100404000006935313   1020000200030000   333400010001204104000000281Myanmar Soft-Gate Tech Yangon        MMR11004040653122312220404000000000000000   10300001F05104100000000000412000000000000     
100   95050324247403260000000000078006000000078006002000000010410404041420540157735990820404000745144890   1030000200030000   541188001126000008000000296KBZ BANK               CITY MART - J MMR11004041420540157730404000000000000000   10300001 00104100000000019502000000000000     
100   95050313113158460000000000000980000000000980002000000010410404040743541354192600760404000006935819   1020000200030000   333400010001204104000000281Myanmar Soft-Gate Tech Yangon        MMR11004040743541354190404000000000000000   10300001F05104100000000000206000000000000     
100   62443100346413950000000000028600000000028600002000000010410404040239410941140584750404000006932550   1030000200030000   3333000100012031040000040282C2P (Myanmar) Co. Ltd Yangon        MMR11004040239410941140404000000000000000   10300001F05104100000000010000000000000000     
100   95050320335873810000000000000980000000000980002000000010410404041351252125197621440404000006938540   1020000200030000   333400010001204104000000281Myanmar Soft-Gate Tech Yangon        MMR11004041351252125190404000000000000000   10300001F05104100000000000206000000000000     
100   95030301100121270000000000008600000000008600002000000010410404040801108872734052100404469311410093   1030000900030000   541119001272190110000000960City Mart PLST Season  YANGONMYOTHIT MMR11004040801108872730404000000000000000   10300001F00104100000000000516000000000000     
100   95030306100081790000000000026142000000026142002000000010410404040809548874514052100404577391454093   1030000900030000   541119000112190110000000077Sein Gay Har Chinatown YANGON        MMR11004040809548874510404000000000000000   10300001F00104100000000001569000000000000     
100   95050311048637960000000000008000000000008000002000000010410404041106338920286479530404629361733093   1030000900030000   541119000113190110000000077Sein Gay Har Chinatown YANGON        MMR11004041106338920280404000000000000000   10300001F00104100000000002000000000000000     
100   62911028202243670000000000049500000000049500002000000010410404040659098859244052100404593291309093   1030000900030000   591219000891190110000000700Linn Myanmar Healthcar YANGONOKKALAP MMR11004040659098859240404000000000000000   10300001F00104100000000002970000000000000     
100   95050312728902740000000000011272000000011272002000000010410404041119098923500975850404857491709093   1030000900030000   541119001186190110000000942City Mart HDC C 1      YANGONUT      MMR11004041119098923500404000000000000000   10300001F00104100000000002818000000000000     
100   62911028202443570000000000023250000000023250002000000010410404041047578914204052100404188171757093   1030000900030000   591219000795190110000000627Shwe Ohh Pharmacy ST-3 YANGONINDAING MMR11004041047578914200404000000000000000   10300001F00104100000000001395000000000000     
100   95050318601641810000000000001200000000001200002000000010410404041057278917810124890404463271727093   1030000900030000   541119001508190110000001102Ocean MGDTM-C 1        YANGONADON    MMR11004041057278917810404000000000000000   10300001F00104100000000000300000000000000     
100   62911028202909050000000000019250000000019250002000000010410404041322598951164052100404628521959093   1030000900030000   541119001196190110000000942City Mart HDC C 11     YANGONUT      MMR11004041322598951160404000000000000000   10300001F00104100000000001155000000000000     
100   95050316818236190000000000000980000000000980002000000010410404041551272127691017220404000006939209   1020000200030000   333400010001204104000000281Myanmar Soft-Gate Tech Yangon        MMR11004041551272127690404000000000000000   10300001F05104100000000000206000000000000     
100   95050315158357300000000000000980000000000980002000000010410404040348461846768059240404000006933404   1020000200030000   333400010001204104000000281Myanmar Soft-Gate Tech Yangon        MMR11004040348461846760404000000000000000   10300001F05104100000000000206000000000000     
100   95050319374415880000000000021250000000021250002000000010410404041550460053949792570404000745150387   1030000200030000   541188001366000008000000395KBZ BANK               OCEAN SUPERMA MMR11004041550460053940404000000000000000   10300001 00104100000000005313000000000000     
100   95030313499565480000000000003000000000003000002000000010410404040844561456794052100404000006936427   1030000200030000   333800010001203104000003327KBZPay                 Yangon        MMR11004040844561456790404000000000000000   10300001F05104100000000000630000000000000     
100   95050318458849030000000000029050000000029050002000000010410404041404150217357827280404000745143694   1030000200030000   541188001059000008000000314KBZ BANK               MARKETPLACE - MMR11004041404150217350404000000000000000   10300001 00104100000000007263000000000000     
100   95050316818236190000000000002940000000002940002000000010410404041243281328967366150404000006938136   1020000200030000   333400010001204104000000281Myanmar Soft-Gate Tech Yangon        MMR11004041243281328960404000000000000000   10300001F05104100000000000617000000000000     
100   95030363083688740000000000050000000000050000002000000010410404040740081008304052100404000006935785   1030000200030000   333800010001203104000003327KBZPay                 Yangon        MMR11004040740081008300404000000000000000   10300001F05104100000000010500000000000000     
100   95050315099113150000000000002940000000002940002000000010410404040441031103432539660404000006933929   1020000200030000   333400010001204104000000281Myanmar Soft-Gate Tech Yangon        MMR11004040441031103430404000000000000000   10300001F05104100000000000617000000000000     
100   62911028202133520000000000007824000000007824002000000010410404041212518937644052100404816421851093   1030000900030000   541119001199190110000000942City Mart HDC C 14     YANGONUT      MMR11004041212518937640404000000000000000   10300001F00104100000000000469000000000000     
100   95030301100124400000000000007200000000007200002000000010410404041128048925964052100404027581704093   1030000900030000   541119001262190110000000958City Mart PLST C 5     YANGONMYOTHIT MMR11004041128048925960404000000000000000   10300001F00104100000000000432000000000000     
100   95050318601641810000000000027650000000027650002000000010410404041130408926473053820404060001840093   1030000900030000   541119001508190110000001102Ocean MGDTM-C 1        YANGONADON    MMR11004041130408926470404000000000000000   10300001F00104100000000006913000000000000     
100   95030301100315070000000000017300000000017300002000000010410404041146308930874052100404363161830093   1030000900030000   573219001183190110000000939UNIQUE Thingangyun     YANGONNGKUUN  MMR11004041146308930870404000000000000000   10300001F00104100000000001038000000000000     
100   62911028202076850000000000009800000000009800002000000010410404040353142314234052100404000006933442   1020000200030000   333400010001204104000000281Myanmar Soft-Gate Tech Yangon        MMR11004040353142314230404000000000000000   10300001F05104100000000002058000000000000     
100   95050324411430900000000000012000000000012000002000000010410404041841440288227997480404000745162897   1030000200030000   541188001039000008000000010KBZ BANK               MARKETPLACE - MMR11004041841440288220404000000000000000   10300001 00104100000000003000000000000000     
100   95050315330275830000000000000980000000000980002000000010410404040637350735452779030404000006935171   1020000200030000   333400010001204104000000281Myanmar Soft-Gate Tech Yangon        MMR11004040637350735450404000000000000000   10300001F05104100000000000206000000000000     
100   95050311419479170000000000002940000000002940002000000010410404031846411641373230810404000006931778   1020000200030000   333400010001204104000000281Myanmar Soft-Gate Tech Yangon        MMR11004031846411641370404000000000000000   10300001F05104100000000000617000000000000     
100   95050311273457710000000000200000000000200000002000000010410404041448111811909194540404000006938893   1030000200030000   333800010001203104000003327KBZPay                 Yangon        MMR11004041448111811900404000000000000000   10300001F05104100000000042000000000000000     
100   95050323067379780000000000200000000000200000002000000010410404041137380738129408460404000006937776   1030000200030000   333800010001203104000003327KBZPay                 Yangon        MMR11004041137380738120404000000000000000   10300001F05104100000000042000000000000000     
100   95050319111666800000000000000980000000000980002000000010410404041238150815736770480404000006938105   1020000200030000   333400010001204104000000281Myanmar Soft-Gate Tech Yangon        MMR11004041238150815730404000000000000000   10300001F05104100000000000206000000000000     
100   95050323722449090000000000009800000000009800002000000010410404041239030903745118000404000006938113   1020000200030000   333400010001204104000000281Myanmar Soft-Gate Tech Yangon        MMR11004041239030903740404000000000000000   10300001F05104100000000002058000000000000     
100   95030301100159060000000000080000000000080000002000000010410404040149381938544052100404000006932213   1030000200030000   333800010001203104000003327KBZPay                 Yangon        MMR11004040149381938540404000000000000000   10300001F05104100000000016800000000000000     
100   95050318646071770000000000001960000000001960002000000010410404041434540454004237090404000006938825   1020000200030000   333400010001204104000000281Myanmar Soft-Gate Tech Yangon        MMR11004041434540454000404000000000000000   10300001F05104100000000000412000000000000     
100   95050310305109410000000000000980000000000980002000000010410404040636250625183034320404000006935157   1020000200030000   333400010001204104000000281Myanmar Soft-Gate Tech Yangon        MMR11004040636250625180404000000000000000   10300001F05104100000000000206000000000000     
100   95050325305150830000000000002940000000002940002000000010410404040343361336604498980404000006933343   1020000200030000   333400010001204104000000281Myanmar Soft-Gate Tech Yangon        MMR11004040343361336600404000000000000000   10300001F05104100000000000617000000000000     
100   95050317343045830000000000001960000000001960002000000010410404041040271027963018160404000006937433   1020000200030000   333400010001204104000000281Myanmar Soft-Gate Tech Yangon        MMR11004041040271027960404000000000000000   10300001F05104100000000000412000000000000     
100   95050312224678430000000000001960000000001960002000000010410404040851312131170863180404000006936489   1020000200030000   333400010001204104000000281Myanmar Soft-Gate Tech Yangon        MMR11004040851312131170404000000000000000   10300001F05104100000000000412000000000000     
100   95050310322713510000000000035000000000035000002000000010410404041347171717732663990404000006938513   1030000500030000   333800010001201104000003863AYA Pay                Yangon        MMR11004041347171717730404000000000000000   10300001F05104100000000007350000000000000     
100   95030301100425790000000000032000000000032000002000000010410404040335102407184052100404209410240718   1040001600030000   598320000830000000010000596Regency Petrol Station Ygn           MMR11004040335102407180404000000000000000   10300001F00104100000000000960000000000000     
100   95050310121313850000000000050400000000050400002000000010410404041002083208826457670404000006937117   1030000900030000   333800010001202104000003301uab bank               Yangon        MMR11004041002083208820404000000000000000   10300001F05104100000000010584000000000000     
100   95050315396509660000000000037000000000037000002000000010410404040300303030754732400404000006932796   1030000200030000   333800010001203104000003327KBZPay                 Yangon        MMR11004040300303030750404000000000000000   10300001F05104100000000007770000000000000     
100   95050316601084530000000000004900000000004900002000000010410404040313264326109640410404000006932957   1020000200030000   333400010001204104000000281Myanmar Soft-Gate Tech Yangon        MMR11004040313264326100404000000000000000   10300001F05104100000000001029000000000000     
100   95050313715913510000000000027050000000027050002000000010410404040945342587820819450404209416258782   1040001600030000   591220000295000000010000283Shwe Ohh Pharmacy (39t Yangon        MMR11004040945342587820404000000000000000   10300001F00104100000000006492000000000000     
100   95050317743858310000000000010000000000010000002000000010410404040803063306742139620404000006936032   1030000200030000   3338000100012031040000040022C2P (Myanmar) Co. Ltd Yangon        MMR11004040803063306740404000000000000000   10300001F05104100000000002100000000000000     
100   95050319938772870000000000000980000000000980002000000010410404041319534953569614310404000006938347   1020000200030000   333400010001204104000000281Myanmar Soft-Gate Tech Yangon        MMR11004041319534953560404000000000000000   10300001F05104100000000000206000000000000     
100   95030301100117720000000000300000000000300000002000000010410404041629435943084052100404000006939370   1030000200030000   333800010001203104000003327KBZPay                 Yangon        MMR11004041629435943080404000000000000000   10300001F05104100000000063000000000000000     
100   62443100394939820000000000200000000000200000002000000010410404040613064306101516360404000006934942   1030000200030000   333800010001203104000003327KBZPay                 Yangon        MMR11004040613064306100404000000000000000   10300001F05104100000000042000000000000000     
