100   95050310213446310000000000004900000000004900002000000010410404061332090209655194720406000006962588   1020000200030000   333400010001204104000000281Myanmar Soft-Gate Tech Yangon        MMR11004061332090209650406000000000000000   10300001F05104100000000001029000000000000     
100   95030367537085740000000000001960000000001960002000000010410404061055332533914052100406000006961819   1020000200030000   333400010001204104000000281Myanmar Soft-Gate Tech Yangon        MMR11004061055332533910406000000000000000   10300001F05104100000000000412000000000000     
100   95050320335873810000000000015300000000015300002000000010410404061102519351739974580406537321751095   1030000900030000   569119000573190110000000413CNC Mens Wear(SanYeikN YANGONUT      MMR11004061102519351730406000000000000000   10300001F00104100000000003672000000000000     
100   95050319928585020000000000001960000000001960002000000010410404060830130013309689360406000006960693   1020000200030000   333400010001204104000000281Myanmar Soft-Gate Tech Yangon        MMR11004060830130013300406000000000000000   10300001F05104100000000000412000000000000     
100   95030305700676370000000000066350000000066350002000000010410404061119450043884052100406000745268419   1030000200030000   541188001505000008000000403KBZ BANK               OCEAN SUPERCE MMR11004061119450043880406000000000000000   10300001 00104100000000003981000000000000     
100   62911028202808150000000000005360000000005360002000000010410404060413300024034052100406209610002403   1020000200030000   541100015007300235411000001MWD BANK               YGN           MMR11004060413300024030406000000000000000   10300001 00104100000000000322000000000000     
100   62911028202019440000000000012530000000012530002000000010410404060448070026344052100406000745268249   1030000200030000   591288000018000008000002044KBZ BANK               PINLON PHARMA MMR11004060448070026340406000000000000000   10300001 00104100000000000752000000000000     
100   62911028202726970000000000013150000000013150002000000010410404061609050029574052100406000745290169   1030000200030000   541188001483000008000000399KBZ BANK               OCEAN SUPERCE MMR11004061609050029570406000000000000000   10300001 00104100000000000789000000000000     
100   62911028202400660000000000098000000000098000002000000010410404060849363847514052100406209615384751   1040001600030000   569120000926000000010000673Generation Concept Sto Ygn           MMR11004060849363847510406000000000000000   10300001F00104100000000005880000000000000     
100   62911028202777790000000000009000000000009000002000000010410404060313034303784052100406000006957756   1030000200030000   333800010001203104000003327KBZPay                 Yangon        MMR11004060313034303780406000000000000000   10300001F05104100000000001890000000000000     
100   95050311382087030000000000003920000000003920002000000010410404060826075607163079420406000006960654   1020000200030000   333400010001204104000000281Myanmar Soft-Gate Tech Yangon        MMR11004060826075607160406000000000000000   10300001F05104100000000000823000000000000     
100   95030304441505280000000006837376000006837376002000000010410404060421015101504052100406000006958378   1010000100030000   333500010001212104000003087Internal Revenue Depar Yangon        MMR11004060421015101500406000000000000000   10300001F05104100000000060000000000000000     
100   62443100313002190000000000035000000000035000002000000010410404061129365936523123150406000006961973   1030000900030000   333400010001202104000002022ACS                    Yangon        MMR11004061129365936520406000000000000000   10300001F05104100000000007350000000000000     
100   62911028202262220000000000015590000000015590002000000010410404060331007006614052100406257011023095   1030000500030000   555610118964104519000016137City Mart South Okkala WZYD BR       MMR11004060331007006610406000000000000000   10300001 00104100000000000935000000000000     
100   62911028202655010000000000026500000000026500002000000010410404060826107046104052100406376001529095   1030000500030000   555610112256104519000010487Ocean Super Center St  ohn           MMR11004060826107046100406000000000000000   10300001 00104100000000001590000000000000     
100   62911028202471600000000000050336000000050336002000000010410404061001277062654052100406649501626095   1030000500030000   555610110572104519000009164City Mart China Town P int Cen       MMR11004061001277062650406000000000000000   10300001 00104100000000003020000000000000     
100   62911028202761360000000000026400000000026400002000000010410404060529520008814052100406000745272278   1030000200030000   569988000799000008000004571KBZ BANK               NPT-THE ONE   MMR11004060529520008810406000000000000000   10300001 00104100000000001584000000000000     
100   62911028202761360000000000120980000000120980002000000010410404060539040008824052100406000745273099   1030000200030000   569988000799000008000004571KBZ BANK               NPT-THE ONE   MMR11004060539040008820406000000000000000   10300001 00104100000000007259000000000000     
100   95050315122972560000000000000980000000000980002000000010410404060952392239592392940406000006961406   1020000200030000   333400010001204104000000281Myanmar Soft-Gate Tech Yangon        MMR11004060952392239590406000000000000000   10300001F05104100000000000206000000000000     
100   95050319470122050000000000054850000000054850002000000010410404051124160005831318600405000338713618   1030000300030000   531100000752000000000000408CB BANK                CAPITAL HYPER MMR11004051124160005830405000000000000000   10300001F00104100000000013164000000000000     
100   95050313062063490000000000002940000000002940002000000010410404060656122612100405780406000006959828   1020000200030000   333400010001204104000000281Myanmar Soft-Gate Tech Yangon        MMR11004060656122612100406000000000000000   10300001F05104100000000000617000000000000     
100   62911028202283680000000000500000000000500000002000000010410404060703480009094052100406000745279487   1030000200030000   806288000932000008000001738KBZ BANK               SHWE GONE DIN MMR11004060703480009090406000000000000000   10300001 00104100000000030000000000000000     
100   62911028202019440000000000018500000000018500002000000010410404060431240027894052100406000745266746   1030000200030000   591288000837000008000004646KBZ BANK               PINLON PHARMA MMR11004060431240027890406000000000000000   10300001 00104100000000001110000000000000     
100   95050323233042810000000000000980000000000980002000000010410404060530180018046321150406000006958995   1020000200030000   333400010001204104000000281Myanmar Soft-Gate Tech Yangon        MMR11004060530180018040406000000000000000   10300001F05104100000000000206000000000000     
100   95050315344668630000000000007050000000007050002000000010410404060653077032907100810406575221300095   1030000300030000   444410116806104519000014353BreadTalk JunctionCity               MMR11004060653077032900406000000000000000   10300001 00104100000000002997000000000000     
100   62911028202400660000000000010849000000010849002000000010410404061033127064804052100406968031758095   1030000500030000   555610112240104519000010487Ocean Super Center St  ohn           MMR11004061033127064800406000000000000000   10300001 00104100000000000651000000000000     
100   95030301100124990000000000028550000000028550002000000010410404060348579238444052100406001181057095   1030000900030000   541119001156190110000000930OCEAN HTY C 6          YANGONTHARYA  MMR11004060348579238440406000000000000000   10300001F00104100000000001713000000000000     
100   95030320529939180000000000100000000000100000002000000010410404060034129212794052100406832040712095   1030000900030000   554119001103190110000000215New Day Energy MYG     YANGONONE     MMR11004060034129212790406000000000000000   10300001F00104100000000003000000000000000     
100   62911028202151340000000000010150000000010150002000000010410404060948317057264052100406918161620095   1030000300030000   444410125393104519000021220Myanmar Bakery CoLtd                 MMR11004060948317057260406000000000000000   10300001 00104100000000001035000000000000     
100   62911028202260320000000000206300000000206300002000000010410404060115369215844052100406886450736095   1030000900030000   806219000943190110000000750Kan Tharyar Hospital 1 YANGON        MMR11004060115369215840406000000000000000   10300001F00104100000000012378000000000000     
100   95050313977497770000000000020650000000020650002000000010410404060944507058172648220406050231625095   1030000500030000   555610120946104519000017714City Mart Yuzana Dagon Seikkan       MMR11004060944507058170406000000000000000   10300001 00104100000000005163000000000000     
100   95030301100124990000000000010050000000010050002000000010410404060349399238594052100406014191039095   1030000900030000   541119001156190110000000930OCEAN HTY C 6          YANGONTHARYA  MMR11004060349399238590406000000000000000   10300001F00104100000000000603000000000000     
100   95030301100131580000000000010000000000010000002000000010410404060533400340014052100406000006959026   1030000500030000   333800010001201104000003863AYA Pay                Yangon        MMR11004060533400340010406000000000000000   10300001F05104100000000002100000000000000     
100   95050318057347910000000000000980000000000980002000000010410404060740141014629725010406000006960223   1020000200030000   333400010001204104000000281Myanmar Soft-Gate Tech Yangon        MMR11004060740141014620406000000000000000   10300001F05104100000000000206000000000000     
100   95050312820609340000000000300000000000300000002000000010410404060046331633793163140406000006956931   1030000200030000   333800010001203104000003327KBZPay                 Yangon        MMR11004060046331633790406000000000000000   10300001F05104100000000063000000000000000     
100   95050318945898660000000000100000000000100000002000000010410404060400023002947880470406000006958186   1030000200030000   3338000100012031040000040022C2P (Myanmar) Co. Ltd Yangon        MMR11004060400023002940406000000000000000   10300001F05104100000000021000000000000000     
100   95050316067768680000000000000980000000000980002000000010410404060252062206532531810406000006957561   1020000200030000   333400010001204104000000281Myanmar Soft-Gate Tech Yangon        MMR11004060252062206530406000000000000000   10300001F05104100000000000206000000000000     
100   62911028202809140000000000029000000000029000002000000010410404060348531853364052100406000006958051   1030000500030000   333800010001201104000003863AYA Pay                Yangon        MMR11004060348531853360406000000000000000   10300001F05104100000000006090000000000000     
100   95050311419479170000000000001960000000001960002000000010410404051848001800444659220406000006956645   1020000200030000   333400010001204104000000281Myanmar Soft-Gate Tech Yangon        MMR11004051848001800440406000000000000000   10300001F05104100000000000412000000000000     
100   95050318057347910000000000002940000000002940002000000010410404060353222322521866210406000006958114   1020000200030000   333400010001204104000000281Myanmar Soft-Gate Tech Yangon        MMR11004060353222322520406000000000000000   10300001F05104100000000000617000000000000     
100   95050325273694860000000000012000000000012000002000000010410404060740087039301377490406435081425095   1030000500030000   555610110595104519000009166City Mart 47 Branch                  MMR11004060740087039300406000000000000000   10300001 00104100000000003000000000000000     
100   62911028202206880000000000007780000000007780002000000010410404060913477052094052100406190421516095   1030000500030000   555610112244104519000010487Ocean Super Center St  ohn           MMR11004060913477052090406000000000000000   10300001 00104100000000000467000000000000     
100   62911028202162640000000000035000000000035000002000000010410404061057407072204052100406926431741095   1030000300030000   555510125344104519000010634Asia Royal Co Ltd                    MMR11004061057407072200406000000000000000   10300001 00104100000000002100000000000000     
100   62911028202158290000000000011900000000011900002000000010410404060256209227944052100406379260920095   1030000900030000   591219000970190110000000777Shwe Ohh Pharmacy St ( YANGONAW      MMR11004060256209227940406000000000000000   10300001F00104100000000000714000000000000     
100   62911028202593140000000000061500000000061500002000000010410404060950387057864052100406006201638095   1030000500030000   555610114574104519000012532City Mart Ahlone Branc               MMR11004060950387057860406000000000000000   10300001 00104100000000003690000000000000     
100   62443100328070970000000000019050000000019050002000000010410404060953177058294300700406063231653095   1030000500030000   555610112249104519000010487Ocean Super Center St  ohn           MMR11004060953177058290406000000000000000   10300001 00104100000000004763000000000000     
100   62911028202133940000000000023100000000023100002000000010410404061118197072644052100406978461704095   1030000500030000   555610112982104519000011143Market Place by City M rt Sule       MMR11004061118197072640406000000000000000   10300001 00104100000000001386000000000000     
100   62911028202291190000000000011200000000011200002000000010410404060645467032654052100406545201317095   1030000500030000   555610112532104519000010487Ocean Super Center St  ohn           MMR11004060645467032650406000000000000000   10300001 00104100000000000672000000000000     
100   62443100379184770000000000050000000000050000002000000010410404061258072807528952720406000006962409   1030000200030000   333800010001203104000003327KBZPay                 Yangon        MMR11004061258072807520406000000000000000   10300001F05104100000000010500000000000000     
100   95050312498129060000000000004900000000004900002000000010410404061256102610272002390406000006962402   1020000200030000   333400010001204104000000281Myanmar Soft-Gate Tech Yangon        MMR11004061256102610270406000000000000000   10300001F05104100000000001029000000000000     
100   95050319111666800000000000000980000000000980002000000010410404061233520352752853350406000006962298   1020000200030000   333400010001204104000000281Myanmar Soft-Gate Tech Yangon        MMR11004061233520352750406000000000000000   10300001F05104100000000000206000000000000     
100   62911028202161240000000000004200000000004200002000000010410404060928280316894052100406000745259604   1030000200030000   541188001024000008000000298KBZ BANK               CITY MART - M MMR11004060928280316890406000000000000000   10300001 00104100000000000252000000000000     
100   95050315166583130000000000030000000000030000002000000010410404060847191719835873810406000006960849   1030000200030000   333800010001203104000003327KBZPay                 Yangon        MMR11004060847191719830406000000000000000   10300001F05104100000000006300000000000000     
100   95050311419479170000000000000980000000000980002000000010410404060255122512347574360406000006957596   1020000200030000   333400010001204104000000281Myanmar Soft-Gate Tech Yangon        MMR11004060255122512340406000000000000000   10300001F05104100000000000206000000000000     
100   95030301100131580000000000045000000000045000002000000010410404060531440144564052100406000006958992   1030000200030000   333800010001203104000003327KBZPay                 Yangon        MMR11004060531440144560406000000000000000   10300001F05104100000000009450000000000000     
100   95030389156816320000000000080000000000080000002000000010410404060435250525074052100406000006958514   1030000200030000   333800010001203104000003327KBZPay                 Yangon        MMR11004060435250525070406000000000000000   10300001F05104100000000016800000000000000     
100   62443100333488440000000000026400000000026400002000000010410404060733537038504767560406328031401095   1030000300030000   444410106710104519000005921YKKO Bahan 2                         MMR11004060733537038500406000000000000000   10300001 00104100000000011220000000000000     
100   62911028202686950000000000049400000000049400002000000010410404060615397027754052100406868441247095   1030000300030000   555510124692104519000020166Makro Myanmar                        MMR11004060615397027750406000000000000000   10300001 00104100000000002964000000000000     
100   62443100328070970000000000023900000000023900002000000010410404061010327062473534840406625491610095   1030000500030000   555610112235104519000010487Ocean Super Center St  ohn           MMR11004061010327062470406000000000000000   10300001 00104100000000005975000000000000     
100   95050310743661680000000000281680000000281680002000000010410404060925067053869513450406417521548095   1030000300030000   555510106960104519000006168KMD Company Limited 1                MMR11004060925067053860406000000000000000   10300001 00104100000000067603000000000000     
100   95050324622440820000000000016100000000016100002000000010410404060902487051007696490406050331540095   1030000500030000   555610110595104519000009166City Mart 47 Branch                  MMR11004060902487051000406000000000000000   10300001 00104100000000004025000000000000     
100   95050315955808830000000000024810000000024810002000000010410404060935417055441421220406648031619095   1030000300030000   555510125150104519000021022One Stop Mart Shopping Mall 0002     MMR11004060935417055440406000000000000000   10300001 00104100000000005954000000000000     
100   95050324247403260000000000008100000000008100002000000010410404060302459229152582630406448320945095   1030000900030000   591219000892190110000000701Shwe Ohh Pharmacy ST-3 YANGONONE     MMR11004060302459229150406000000000000000   10300001F00104100000000001944000000000000     
100   62911028202661370000000000149450000000149450002000000010410404060749547040624052100406611181401095   1030000300030000   555510124696104519000020166Makro Myanmar                        MMR11004060749547040620406000000000000000   10300001 00104100000000008967000000000000     
100   95050322312885760000000000015000000000015000002000000010410404061040161016721541970406000006961713   1030000200030000   333800010001203104000003327KBZPay                 Yangon        MMR11004061040161016720406000000000000000   10300001F05104100000000003150000000000000     
100   95050311382087030000000000003920000000003920002000000010410404061443101310168173070406000006962922   1020000200030000   333400010001204104000000281Myanmar Soft-Gate Tech Yangon        MMR11004061443101310160406000000000000000   10300001F05104100000000000823000000000000     
100   95050315158357300000000000000980000000000980002000000010410404060055122512967780200406000006956957   1020000200030000   333400010001204104000000281Myanmar Soft-Gate Tech Yangon        MMR11004060055122512960406000000000000000   10300001F05104100000000000206000000000000     
100   95050322654733420000000000015000000000015000002000000010410404060542041204457548160406000006959130   1030000200030000   3338000100012031040000040022C2P (Myanmar) Co. Ltd Yangon        MMR11004060542041204450406000000000000000   10300001F05104100000000003150000000000000     
100   95050312695033440000000000002940000000002940002000000010410404060433240324104383440406000006958497   1020000200030000   333400010001204104000000281Myanmar Soft-Gate Tech Yangon        MMR11004060433240324100406000000000000000   10300001F05104100000000000617000000000000     
100   95050317518971470000000000002000000000002000002000000010410404061435300530891648240406000006962890   1030000200030000   3338000100012031040000040022C2P (Myanmar) Co. Ltd Yangon        MMR11004061435300530890406000000000000000   10300001F05104100000000000420000000000000     
100   95050319485395370000000000300000000000300000002000000010410404060748261826627391750406000006960297   1030000200030000   333800010001203104000003327KBZPay                 Yangon        MMR11004060748261826620406000000000000000   10300001F05104100000000063000000000000000     
100   95050312498129060000000000001960000000001960002000000010410404061348271827212145010406000006962665   1020000200030000   333400010001204104000000281Myanmar Soft-Gate Tech Yangon        MMR11004061348271827210406000000000000000   10300001F05104100000000000412000000000000     
100   95030306100084010000000000007200000000007200002000000010410404060950257057604052100406963181637095   1030000300030000   555610125467104519000021294One Stop Kitchen Super arket 0005    MMR11004060950257057600406000000000000000   10300001 00104100000000000432000000000000     
100   62911028202154800000000000036500000000036500002000000010410404060929397055464052100406651031628095   1030000300030000   444410125270104519000021124SP Bakery North Dagon  apital        MMR11004060929397055460406000000000000000   10300001 00104100000000003723000000000000     
100   62911028202291190000000000018000000000018000002000000010410404060620047028794052100406009521222095   1030000500030000   555610112252104519000010487Ocean Super Center St  ohn           MMR11004060620047028790406000000000000000   10300001 00104100000000001080000000000000     
100   95030301100124990000000000064834000000064834002000000010410404060348179238314052100406990181017095   1030000900030000   541119001156190110000000930OCEAN HTY C 6          YANGONTHARYA  MMR11004060348179238310406000000000000000   10300001F00104100000000003890000000000000     
100   62911028202074950000000000008345000000008345002000000010410404060509137018234052100406614381139095   1030000500030000   555610114572104519000012532City Mart Ahlone Branc               MMR11004060509137018230406000000000000000   10300001 00104100000000000501000000000000     
100   95050325273694860000000000001400000000001400002000000010410404060742427039509639910406467101414095   1030000500030000   555610110596104519000009166City Mart 47 Branch                  MMR11004060742427039500406000000000000000   10300001 00104100000000000350000000000000     
100   62911028202291190000000000017233000000017233002000000010410404060634367031274052100406366091341095   1030000500030000   555610112235104519000010487Ocean Super Center St  ohn           MMR11004060634367031270406000000000000000   10300001 00104100000000001034000000000000     
100   62911028202520380000000001000000000001000000002000000010410404060527239260164052100406333571123095   1030000900030000   573219001178190110000000934UNIQUE Pansodan        YANGONADA     MMR11004060527239260160406000000000000000   10300001F00104100000000060000000000000000     
100   62911028202076850000000000000980000000000980002000000010410404060955232523624052100406000006961423   1020000200030000   333400010001204104000000281Myanmar Soft-Gate Tech Yangon        MMR11004060955232523620406000000000000000   10300001F05104100000000000206000000000000     
100   95050310213446310000000000009800000000009800002000000010410404060953302330269002870406000006961417   1020000200030000   333400010001204104000000281Myanmar Soft-Gate Tech Yangon        MMR11004060953302330260406000000000000000   10300001F05104100000000002058000000000000     
100   95050314775367220000000000018000000000018000002000000010410404060851412141741171650406000006960907   1030000200030000   333800010001203104000003327KBZPay                 Yangon        MMR11004060851412141740406000000000000000   10300001F05104100000000003780000000000000     
100   95050312160676580000000000101000000000101000002000000010410404060534390439196576440406000006959041   1030000200030000   333800010001203104000003327KBZPay                 Yangon        MMR11004060534390439190406000000000000000   10300001F05104100000000021210000000000000     
100   62443100330108240000000000004900000000004900002000000010410404061443181318750797280406000006962920   1020000200030000   333400010001204104000000281Myanmar Soft-Gate Tech Yangon        MMR11004061443181318750406000000000000000   10300001F05104100000000001029000000000000     
100   62911028202616250000000000160650000000160650002000000010410404061509540218454052100406000745286695   1030000200030000   541188001059000008000000314KBZ BANK               MARKETPLACE - MMR11004061509540218450406000000000000000   10300001 00104100000000009639000000000000     
100   95050318734435310000000000051000000000051000002000000010410404060434120412808113900406000006958499   1030000200030000   333800010001203104000003327KBZPay                 Yangon        MMR11004060434120412800406000000000000000   10300001F05104100000000010710000000000000     
100   95050322312885760000000000016000000000016000002000000010410404061547331733323421480406000006963176   1030000200030000   333800010001203104000003327KBZPay                 Yangon        MMR11004061547331733320406000000000000000   10300001F05104100000000003360000000000000     
100   62911028202527490000000000054000000000054000002000000010410404060531549261164052100406392011254095   1030000900030000   541119001262190110000000958City Mart PLST C 5     YANGONMYOTHIT MMR11004060531549261160406000000000000000   10300001F00104100000000003240000000000000     
100   62911028202359000000000000054300000000054300002000000010410404060745139294824052100406535151413095   1030000900030000   541119000882190110000000084Pro (1) Global (Pazund YANGONARTAUNG MMR11004060745139294820406000000000000000   10300001F00104100000000003258000000000000     
100   62911028202162640000000000038019000000038019002000000010410404060508449256264052100406100381144095   1030000900030000   541119001284190110000000963City Mart SPL C 9      YANGONMYOTHIT MMR11004060508449256260406000000000000000   10300001F00104100000000002281000000000000     
100   62911028202419320000000000014950000000014950002000000010410404060731129291064052100406289011412095   1030000900030000   591219000601190110000000441Shwe Ohh Pharmacy St-3 YANGON        MMR11004060731129291060406000000000000000   10300001F00104100000000000897000000000000     
100   62911028202503210000000000025120000000025120002000000010410404060852019311074052100406581221501095   1030000900030000   541119000147190110000000083SeinGayHarParami Cente YANGON        MMR11004060852019311070406000000000000000   10300001F00104100000000001507000000000000     
100   62443100318296470000000000025950000000025950002000000010410404060701489283781632780406838311348095   1030000900030000   581219001545190110000001119Paradise Hot Pot       YANGONUT      MMR11004060701489283780406000000000000000   10300001F00104100000000011029000000000000     
100   62911028202133520000000000024200000000024200002000000010410404060631399276054052100406343011339095   1030000900030000   541119001247190110000000955City Mart JS C 6       YANGONUT      MMR11004060631399276050406000000000000000   10300001F00104100000000001452000000000000     
100   62911028202318750000000000004100000000004100002000000010410404060958059330514052100406980281605095   1030000900030000   541119001272190110000000960City Mart PLST Season  YANGONMYOTHIT MMR11004060958059330510406000000000000000   10300001F00104100000000000246000000000000     
100   95050317461467820000000000050310000000050310002000000010410404061047361736589804390406000006961761   1030000200030000   333800010001203104000003327KBZPay                 Yangon        MMR11004061047361736580406000000000000000   10300001F05104100000000010565000000000000     
100   95030301100354740000000000030000000000030000002000000010410404060547531753594052100406000006959213   1030000200030000   333800010001203104000003327KBZPay                 Yangon        MMR11004060547531753590406000000000000000   10300001F05104100000000006300000000000000     
100   95050319524870520000000000004900000000004900002000000010410404060635160516506285500406000006959648   1020000200030000   333400010001204104000000281Myanmar Soft-Gate Tech Yangon        MMR11004060635160516500406000000000000000   10300001F05104100000000001029000000000000     
100   62911028202003590000000000002940000000002940002000000010410404061238140814926891100406000006962317   1020000200030000   333400010001204104000000281Myanmar Soft-Gate Tech Yangon        MMR11004061238140814920406000000000000000   10300001F05104100000000000617000000000000     
100   95050316785465380000000000001960000000001960002000000010410404061256382638218527220406000006962403   1020000200030000   333400010001204104000000281Myanmar Soft-Gate Tech Yangon        MMR11004061256382638210406000000000000000   10300001F05104100000000000412000000000000     
100   95030301100119390000000000030000000000030000002000000010410404060957552755044052100406000006961432   1030000200030000   333800010001203104000003327KBZPay                 Yangon        MMR11004060957552755040406000000000000000   10300001F05104100000000006300000000000000     
100   95050311959900780000000000000980000000000980002000000010410404061040481048853109360406000006961715   1020000200030000   333400010001204104000000281Myanmar Soft-Gate Tech Yangon        MMR11004061040481048850406000000000000000   10300001F05104100000000000206000000000000     
100   95050310305100650000000000055000000000055000002000000010410404060433440344666461410406000006958500   1030000200030000   3338000100012031040000040022C2P (Myanmar) Co. Ltd Yangon        MMR11004060433440344660406000000000000000   10300001F05104100000000011550000000000000     
100   95050311077567400000000000024000000000024000002000000010410404060942499326084130510406659121649095   1030000900030000   541119000152190110000000083SeinGayHarParami Cente YANGON        MMR11004060942499326080406000000000000000   10300001F00104100000000006000000000000000     
100   62911028202359000000000000030500000000030500002000000010410404060752029296584052100406639221402095   1030000900030000   541119000882190110000000084Pro (1) Global (Pazund YANGONARTAUNG MMR11004060752029296580406000000000000000   10300001F00104100000000001830000000000000     
100   95050320205194540000000000090250000000090250002000000010410404061011129334111882350406222411612095   1030000900030000   591219000969190110000000776Shwe Ohh Pharmacy St ( YANGONADA     MMR11004061011129334110406000000000000000   10300001F00104100000000021660000000000000     
100   62911028202668140000000000107000000000107000002000000010410404061044539345944052100406104141753095   1030000900030000   554119000348190110000000215New Day Energy MYG     YANGONONE     MMR11004061044539345940406000000000000000   10300001F00104100000000003210000000000000     
100   62911028202684060000000000012500000000012500002000000010410404060921109319754052100406204511510095   1030000900030000   541119001156190110000000930OCEAN HTY C 6          YANGONTHARYA  MMR11004060921109319750406000000000000000   10300001F00104100000000000750000000000000     
100   62911028202616250000000000117000000000117000002000000010410404060900589313394052100406746301558095   1030000900030000   554119000345190110000000212New Day Energy PZD     YANGONAUNG    MMR11004060900589313390406000000000000000   10300001F00104100000000003510000000000000     
100   95050311182936420000000000023500000000023500002000000010410404061101049351251627060406501311704095   1030000900030000   541119000131190110000000083SeinGayHarParami Cente YANGON        MMR11004061101049351250406000000000000000   10300001F00104100000000005875000000000000     
100   95050311048637960000000000010550000000010550002000000010410404061103369351966343020406554331736095   1030000900030000   541119000112190110000000077Sein Gay Har Chinatown YANGON        MMR11004061103369351960406000000000000000   10300001F00104100000000002638000000000000     
100   95050324247403260000000000070800000000070800002000000010410404061013430099410298820406000745262519   1030000200030000   541188001132000008000000296KBZ BANK               CITY MART - J MMR11004061013430099410406000000000000000   10300001 00104100000000017700000000000000     
100   95050312210363590000000000002000000000002000002000000010410404060734440444406420040406000006960171   1030000200030000   333800010001203104000003327KBZPay                 Yangon        MMR11004060734440444400406000000000000000   10300001F05104100000000000420000000000000     
100   95050325139996190000000000003300000000003300002000000010410404060233390339550538940406000006957415   1030000200030000   333300010001203104000003632Myanmar Tradenet Test  Yangon        MMR11004060233390339550406000000000000000   10300001F05104100000000010000000000000000     
100   95050325630928770000000000000980000000000980002000000010410404060338150815391149780406000006957957   1020000200030000   333400010001204104000000281Myanmar Soft-Gate Tech Yangon        MMR11004060338150815390406000000000000000   10300001F05104100000000000206000000000000     
100   62911028202908550000000000060800000000060800002000000010410404060443031303964052100406000006958576   1030000200030000   333800010001203104000003327KBZPay                 Yangon        MMR11004060443031303960406000000000000000   10300001F05104100000000012768000000000000     
100   95050312160676580000000000001960000000001960002000000010410404060253142314870879320406000006957583   1020000200030000   333400010001204104000000281Myanmar Soft-Gate Tech Yangon        MMR11004060253142314870406000000000000000   10300001F05104100000000000412000000000000     
100   95050312498129060000000000004900000000004900002000000010410404061332130213181719550406000006962587   1020000200030000   333400010001204104000000281Myanmar Soft-Gate Tech Yangon        MMR11004061332130213180406000000000000000   10300001F05104100000000001029000000000000     
100   62911028202151340000000000003350000000003350002000000010410404061653180179914052100406000745292875   1030000200030000   541188001075000008000000294KBZ BANK               CITY MART - J MMR11004061653180179910406000000000000000   10300001 00104100000000000201000000000000     
100   95050318257792630000000000011100000000011100002000000010410404060953409329059343250406870231640095   1030000900030000   541119001247190110000000955City Mart JS C 6       YANGONUT      MMR11004060953409329050406000000000000000   10300001F00104100000000002775000000000000     
100   62911028202140610000000000115700000000115700002000000010410404060753207040974052100406668211433095   1030000300030000   555510124696104519000020166Makro Myanmar                        MMR11004060753207040970406000000000000000   10300001 00104100000000006942000000000000     
100   95050315413187270000000000028650000000028650002000000010410404061750190218704605440406000745297138   1030000200030000   541188001059000008000000314KBZ BANK               MARKETPLACE - MMR11004061750190218700406000000000000000   10300001 00104100000000007163000000000000     
100   62443100337100010000000000035050000000035050002000000010410404061117410218149170700406000745268207   1030000200030000   541188001059000008000000314KBZ BANK               MARKETPLACE - MMR11004061117410218140406000000000000000   10300001 00104100000000008763000000000000     
100   95050312641885210000000000010500000000010500002000000010410404060506333633895014770406000006958770   1030000200030000   333800010001203104000003327KBZPay                 Yangon        MMR11004060506333633890406000000000000000   10300001F05104100000000002205000000000000     
100   62911028202485720000000000020000000000020000002000000010410404050346550012574052100405209510001257   1030000500030000   598320001603000015172200016MAX ENERGY             PTN           MMR11004050346550012570405000000000000000   10300001 00104100000000000600000000000000     
100   62443100395964530000000000030000000000030000002000000010410404050630130026426248470405209513002642   1030000500030000   598320003701000015172200037MAX ENERGY             PTN           MMR11004050630130026420405000000000000000   10300001 00104100000000003600000000000000     
100   62911028202193830000000000021475000000021475002000000010410404061048159347104052100406194181715095   1030000900030000   541119000126190110000000082Sein Gay Har Super Cen YANGON        MMR11004061048159347100406000000000000000   10300001F00104100000000001289000000000000     
100   95050314308945310000000000100000000000100000002000000010410404060944211421619683640406000006961343   1030000200030000   333800010001203104000003327KBZPay                 Yangon        MMR11004060944211421610406000000000000000   10300001F05104100000000021000000000000000     
100   95030380891034700000000000100000000000100000002000000010410404060259202920144052100406000006957635   1030000200030000   333800010001203104000003327KBZPay                 Yangon        MMR11004060259202920140406000000000000000   10300001F05104100000000021000000000000000     
100   62911028202419320000000000124150000000124150002000000010410404060729573807374052100406209614380737   1040001600030000   591220000258000000010000246Shwe Ohh Pharmacy (Sin Yangon        MMR11004060729573807370406000000000000000   10300001F00104100000000007449000000000000     
100   95050312498129060000000000000980000000000980002000000010410404060215294529540028360406000006957318   1020000200030000   333400010001204104000000281Myanmar Soft-Gate Tech Yangon        MMR11004060215294529540406000000000000000   10300001F05104100000000000206000000000000     
100   95050315955808830000000000028000000000028000002000000010410404060046406996349517780406099280712095   1030000500030000   888810109467104519000008486Max Energy CoLtd 3                   MMR11004060046406996340406000000000000000   10300001 00104100000000003360000000000000     
100   95030301100121270000000000036300000000036300002000000010410404061114543946924052100406209618394692   1040001600030000   591220000288000000010000276Shwe Ohh Pharmacy (Nor Yangon        MMR11004061114543946920406000000000000000   10300001F00104100000000002178000000000000     
100   62911028202685470000000000025000000000025000002000000010410404061106493939734052100406209618393973   1040001600030000   806220000001000000010000001Victoria Hospital      Yangon        MMR11004061106493939730406000000000000000   10300001F00104100000000001500000000000000     
100   95050319161596230000000000000980000000000980002000000010410404060713324332636845520406000006960000   1020000200030000   333400010001204104000000281Myanmar Soft-Gate Tech Yangon        MMR11004060713324332630406000000000000000   10300001F05104100000000000206000000000000     
100   95050311077567400000000000015100000000015100002000000010410404061036499343056499420406882061749095   1030000900030000   541119000137190110000000083SeinGayHarParami Cente YANGON        MMR11004061036499343050406000000000000000   10300001F00104100000000003775000000000000     
100   95050311077567400000000000025000000000025000002000000010410404061019449336688917770406416491644095   1030000900030000   541119000156190110000000083SeinGayHarParami Cente YANGON        MMR11004061019449336680406000000000000000   10300001F00104100000000006250000000000000     
100   95030301100126550000000000037000000000037000002000000010410404051124240473414052100405209511047341   1030000600030000   554100000969315799420000481DENKO NORTH OKKALAPA   YANGON        MMR11004051124240473410405000000000000000   10300001 00104100000000001110000000000000     
100   62911028202366010000000000066154000000066154002000000010410404060701187035904052100406970441319095   1030000500030000   555610108768104519000003818City Mart Oattara Thir NPT           MMR11004060701187035900406000000000000000   10300001 00104100000000003969000000000000     
100   95030301100425790000000000050000000000050000002000000010410404040142240358724052100404209401035872   1030000600030000   554100001106315799420000564DENKO PHYUU            PHYUU         MMR11004040142240358720404000000000000000   10300001 00104100000000001500000000000000     
100   62911028202610960000000000040000000000040000002000000010410404040838580359204052100404209408035920   1030000600030000   554100001106315799420000564DENKO PHYUU            PHYUU         MMR11004040838580359200404000000000000000   10300001 00104100000000001200000000000000     
100   62911028202169750000000000044000000000044000002000000010410404050539170000594052100405209512000059   1030000500030000   598320005602000015172200056MAX ENERGY             PTN           MMR11004050539170000590405000000000000000   10300001 00104100000000001320000000000000     
100   62443100372718280000000000050220000000050220002000000010410404050131020001085683730405209508000108   1030000500030000   806220172409013008062201724GRAND HANTHA HOSPITAL  PTN           MMR11004050131020001080405000000000000000   10300001 00104100000000012053000000000000     
100   95050315166583130000000000020000000000020000002000000010410404061620395039000371770406000006963291   1030000200030000   333800010001203104000003327KBZPay                 Yangon        MMR11004061620395039000406000000000000000   10300001F05104100000000004200000000000000     
100   95050321455580800000000000252000000000252000002000000010410404061128555855771555760406000006961966   1030000900030000   333800010001202104000003301uab bank               Yangon        MMR11004061128555855770406000000000000000   10300001F05104100000000052920000000000000     
100   95050320335873810000000000021000000000021000002000000010410404061011154115558662480406000006961518   1030000200030000   333800010001203104000003327KBZPay                 Yangon        MMR11004061011154115550406000000000000000   10300001F05104100000000004410000000000000     
100   95050310322713510000000000010000000000010000002000000010410404060525415541404668670406000006958927   1030000500030000   333800010001201104000003863AYA Pay                Yangon        MMR11004060525415541400406000000000000000   10300001F05104100000000002100000000000000     
100   95030367537085740000000000001960000000001960002000000010410404061418094809677490100406000006962813   1020000200030000   333400010001204104000000281Myanmar Soft-Gate Tech Yangon        MMR11004061418094809670406000000000000000   10300001F05104100000000000412000000000000     
100   62911028202660870000000000040000000000040000002000000010410404060514244424314052100406000006958845   1030000200030000   333800010001203104000003327KBZPay                 Yangon        MMR11004060514244424310406000000000000000   10300001F05104100000000008400000000000000     
100   62911028202269410000000000006250000000006250002000000010410403280305547009854052100406648311030095   1030000300030000   555510125170104519000021039G N G Convenience Stor G0395F        MMR11003280305547009850406000000000000000   10300001 00104100000000000375000000000000     
100   95050316769671810000000000000980000000000980002000000010410404061422135213898244340406000006962827   1020000200030000   333400010001204104000000281Myanmar Soft-Gate Tech Yangon        MMR11004061422135213890406000000000000000   10300001F05104100000000000206000000000000     
100   62911028202533900000000000020000000000020000002000000010410404050825230014484052100405209514001448   1030000500030000   598320002101000015172200021MAX ENERGY             PTN           MMR11004050825230014480405000000000000000   10300001 00104100000000000600000000000000     
100   62911028202503210000000000038000000000038000002000000010410404050551260016144052100405209512001614   1030000500030000   598320001401000015172200014MAX ENERGY             PTN           MMR11004050551260016140405000000000000000   10300001 00104100000000001140000000000000     
100   62911028202130710000000000190000000000190000002000000010410404050943550001154052100405209516000115   1030000500030000   569120105501000015691201055MIX (YUZANA PLAZA)     PTN           MMR11004050943550001150405000000000000000   10300001 00104100000000011400000000000000     
100   62911028202313470000000000060000000000060000002000000010410404050435310011744052100405209511001174   1030000500030000   598320001601000015172200016MAX ENERGY             PTN           MMR11004050435310011740405000000000000000   10300001 00104100000000001800000000000000     
100   95030310098554020000000000056000000000056000002000000010410404050820490012834052100405209514001283   1030000500030000   598320001603000015172200016MAX ENERGY             PTN           MMR11004050820490012830405000000000000000   10300001 00104100000000001680000000000000     
100   95050328351497860000000000174000000000174000002000000010410404051351390011239191190405209520001123   1030001300030000   555500000025700000000000019SHWEBANK BANK          959           MMR11004051351390011230405000000000000000   10300001 00104100000000041760000000000000     
100   62911028202231380000000000035000000000035000002000000010410404050747040020514052100405209514002051   1030000500030000   598320001202000015172200012MAX ENERGY             PTN           MMR11004050747040020510405000000000000000   10300001 00104100000000001050000000000000     
100   95030306100081790000000000012000000000012000002000000010410404050920090005904052100405209515000590   1030000500030000   806220022601000018062200226DR.Z                   PTN           MMR11004050920090005900405000000000000000   10300001 00104100000000000720000000000000     
100   95050311068653690000000000015000000000015000002000000010410404061525035503576896650406000006963070   1030000200030000   333800010001203104000003327KBZPay                 Yangon        MMR11004061525035503570406000000000000000   10300001F05104100000000003150000000000000     
100   95050311740551900000000000110000000000110000002000000010410404060927275727289428350406000006961177   1030000200030000   333800010001203104000003327KBZPay                 Yangon        MMR11004060927275727280406000000000000000   10300001F05104100000000023100000000000000     
100   62911028202674810000000000009700000000009700002000000010410404060354117008824052100406523221045095   1030000500030000   555610110595104519000009166City Mart 47 Branch                  MMR11004060354117008820406000000000000000   10300001 00104100000000000582000000000000     
100   95050320335873810000000000000980000000000980002000000010410404060905053505241001450406000006961009   1020000200030000   333400010001204104000000281Myanmar Soft-Gate Tech Yangon        MMR11004060905053505240406000000000000000   10300001F05104100000000000206000000000000     
100   95050312224678430000000000001960000000001960002000000010410404060313414341500589760406000006957752   1020000200030000   333400010001204104000000281Myanmar Soft-Gate Tech Yangon        MMR11004060313414341500406000000000000000   10300001F05104100000000000412000000000000     
100   95050313836159580000000000010000000000010000002000000010410404060811214121331767320406000006960527   1030000200030000   333800010001203104000003327KBZPay                 Yangon        MMR11004060811214121330406000000000000000   10300001F05104100000000002100000000000000     
100   95050315345734110000000000001960000000001960002000000010410404060424435443102085840406000006958409   1020000200030000   333400010001204104000000281Myanmar Soft-Gate Tech Yangon        MMR11004060424435443100406000000000000000   10300001F05104100000000000412000000000000     
100   95050310178107440000000000005000000000005000002000000010410404060727525752984597360406000006960111   1030000200030000   3338000100012031040000040022C2P (Myanmar) Co. Ltd Yangon        MMR11004060727525752980406000000000000000   10300001F05104100000000001050000000000000     
100   62911028202417590000000000084320000000084320002000000010410404050948340000924052100405209516000092   1030000500030000   569120102801019505691201028MK FASHION SHOP        PTN           MMR11004050948340000920405000000000000000   10300001 00104100000000005059000000000000     
100   62911028202680670000000000033000000000033000002000000010410404051042090018534052100405209517001853   1030000500030000   598320001303000015172200013MAX ENERGY             PTN           MMR11004051042090018530405000000000000000   10300001 00104100000000000990000000000000     
100   62443100306416880000000000025650000000025650002000000010410404051357490001062581250405209520000106   1030000500030000   581320195601000085813201956HARRYS BAR MYANMAR PLA PTN           MMR11004051357490001060405000000000000000   10300001 00104100000000010902000000000000     
100   95050323576695670000000000003430000000003430002000000010410404051142290006894538470405209518000689   1030000500030000   531120155802000045311201558GAMONE PWINT           PTN           MMR11004051142290006890405000000000000000   10300001 00104100000000000823000000000000     
100   62911028202709150000000000050000000000050000002000000010410404051028490012964052100405209516001296   1030000500030000   598320001603000015172200016MAX ENERGY             PTN           MMR11004051028490012960405000000000000000   10300001 00104100000000001500000000000000     
100   62911028202616250000000000064000000000064000002000000010410404050807580001844052100405209514000184   1030000500030000   531120155807000045311201558GAMONE PWINT           PTN           MMR11004050807580001840405000000000000000   10300001 00104100000000003840000000000000     
100   62911028202193830000000000031000000000031000002000000010410404051036240010684052100405209517001068   1030000500030000   591220012301014405912200123SHWE OHH PHARMACY      PTN           MMR11004051036240010680405000000000000000   10300001 00104100000000001860000000000000     
100   95050329581164220000000000095000000000095000002000000010410404051543090007946311700405209522000794   1030001300030000   555500000047700000000000035SHWEBANK BANK          959           MMR11004051543090007940405000000000000000   10300001 00104100000000022800000000000000     
100   95050316736513170000000000006000000000006000002000000010410404060425315531408610680406000006958417   1030000200030000   333800010001203104000003327KBZPay                 Yangon        MMR11004060425315531400406000000000000000   10300001F05104100000000001260000000000000     
100   95050313062063490000000000004900000000004900002000000010410404060808053805672448090406000006960500   1020000200030000   333400010001204104000000281Myanmar Soft-Gate Tech Yangon        MMR11004060808053805670406000000000000000   10300001F05104100000000001029000000000000     
100   95030353305053700000000000050000000000050000002000000010410404060208393839724052100406000006957283   1030000200030000   333800010001203104000003327KBZPay                 Yangon        MMR11004060208393839720406000000000000000   10300001F05104100000000010500000000000000     
100   95050312139901420000000000000980000000000980002000000010410404061308463846141576930406000006962463   1020000200030000   333400010001204104000000281Myanmar Soft-Gate Tech Yangon        MMR11004061308463846140406000000000000000   10300001F05104100000000000206000000000000     
100   95050317946466420000000000300000000000300000002000000010410404060417544754352511330406000006958326   1030000200030000   333800010001203104000003327KBZPay                 Yangon        MMR11004060417544754350406000000000000000   10300001F05104100000000063000000000000000     
100   95050313168701670000000000000980000000000980002000000010410404061329515951082570510406000006962571   1020000200030000   333400010001204104000000281Myanmar Soft-Gate Tech Yangon        MMR11004061329515951080406000000000000000   10300001F05104100000000000206000000000000     
100   62911028202446700000000000300000000000300000002000000010410404060629025902354052100406000006959587   1030000500030000   333800010001201104000003863AYA Pay                Yangon        MMR11004060629025902350406000000000000000   10300001F05104100000000063000000000000000     
100   95050315919368400000000000010000000000010000002000000010410404060905433543682653940406000006961017   1030000200030000   333800010001203104000003327KBZPay                 Yangon        MMR11004060905433543680406000000000000000   10300001F05104100000000002100000000000000     
100   62911028202206880000000000020000000000020000002000000010410404050549320011174052100405209512001117   1030000500030000   598320001203000015172200012MAX ENERGY             PTN           MMR11004050549320011170405000000000000000   10300001 00104100000000000600000000000000     
100   62911028202514440000000000030000000000030000002000000010410404051138380016784052100405209518001678   1030000500030000   598320001401000015172200014MAX ENERGY             PTN           MMR11004051138380016780405000000000000000   10300001 00104100000000000900000000000000     
100   95050310743661680000000000028800000000028800002000000010410404050551130000660022650405209512000066   1030000500030000   569120087001006305691200870DYNAMIC PINLON (1)     PTN           MMR11004050551130000660405000000000000000   10300001 00104100000000006912000000000000     
100   62911028202235830000000000043000000000043000002000000010410404050635290011284052100405209513001128   1030000500030000   598320001203000015172200012MAX ENERGY             PTN           MMR11004050635290011280405000000000000000   10300001 00104100000000001290000000000000     
100   95030301100118480000000000010000000000010000002000000010410404051120220012284052100405209517001228   1030000500030000   598320001601000015172200016MAX ENERGY             PTN           MMR11004051120220012280405000000000000000   10300001 00104100000000000300000000000000     
100   62911028202789750000000000047500000000047500002000000010410404051316520001284052100405209519000128   1030000500030000   806220046402006308062200464ASIA ROYAL HOSPITAL    PTN           MMR11004051316520001280405000000000000000   10300001 00104100000000002850000000000000     
100   95050318052625040000000000060000000000060000002000000010410404050809440003458142450405000338684833   1030000300030000   598300000479000000000000211CB BANK                YANGON PETROL MMR11004050809440003450405000000000000000   10300001F00104100000000007200000000000000     
100   62911028202731170000000000088000000000088000002000000010410404050258280003894052100405209509000389   1030000500030000   598320101301005405983201013PT POWER (NPT)         PTN           MMR11004050258280003890405000000000000000   10300001 00104100000000002640000000000000     
100   95050316184853420000000000215000000000215000002000000010410404060323545354673384150406000006957847   1030000200030000   333800010001203104000003327KBZPay                 Yangon        MMR11004060323545354670406000000000000000   10300001F05104100000000045150000000000000     
100   95050311736839760000000000000980000000000980002000000010410404060728245824504512270406000006960114   1020000200030000   333400010001204104000000281Myanmar Soft-Gate Tech Yangon        MMR11004060728245824500406000000000000000   10300001F05104100000000000206000000000000     
100   62911028202417590000000000041932000000041932002000000010410404060549187024404052100406428211235095   1030000500030000   555610103978104519000003818Ocean Oattara Thiri Na PyiTaw        MMR11004060549187024400406000000000000000   10300001 00104100000000002516000000000000     
100   95050313702988830000000000001960000000001960002000000010410404061008313831897520580406000006961473   1020000200030000   333400010001204104000000281Myanmar Soft-Gate Tech Yangon        MMR11004061008313831890406000000000000000   10300001F05104100000000000412000000000000     
100   95050324104751500000000000130100000000130100002000000010410404061119593951049562890406209618395104   1040001600030000   591220000285000000010000273Shwe Ohh Pharmacy (47t Yangon        MMR11004061119593951040406000000000000000   10300001F00104100000000031224000000000000     
100   95050319928585020000000000000980000000000980002000000010410404060813494349131682220406000006960546   1020000200030000   333400010001204104000000281Myanmar Soft-Gate Tech Yangon        MMR11004060813494349130406000000000000000   10300001F05104100000000000206000000000000     
100   95030352597917530000000000150000000000150000002000000010410404060314134413154052100406000006957764   1030000200030000   333800010001203104000003327KBZPay                 Yangon        MMR11004060314134413150406000000000000000   10300001F05104100000000031500000000000000     
100   95050314160856250000000000001960000000001960002000000010410404060514154415210391990406000006958843   1020000200030000   333400010001204104000000281Myanmar Soft-Gate Tech Yangon        MMR11004060514154415210406000000000000000   10300001F05104100000000000412000000000000     
100   95030301100170760000000000006000000000006000002000000010410404050742080001974052100405209514000197   1030000500030000   569120069101008205691200691ESCORT                 PTN           MMR11004050742080001970405000000000000000   10300001 00104100000000000360000000000000     
100   62911028202029420000000000030000000000030000002000000010410404051136210019744052100405209518001974   1030000500030000   598320001004000015172200010MAX ENERGY             PTN           MMR11004051136210019740405000000000000000   10300001 00104100000000000900000000000000     
100   62911028202907560000000000030000000000030000002000000010410404050418500020014052100405209510002001   1030000500030000   598320001201000015172200012MAX ENERGY             PTN           MMR11004050418500020010405000000000000000   10300001 00104100000000000900000000000000     
100   62911028202448030000000000030000000000030000002000000010410404050329240033994052100405209509003399   1030000500030000   598320001902000015172200019MAX ENERGY             PTN           MMR11004050329240033990405000000000000000   10300001 00104100000000000900000000000000     
100   62911028202222620000000000020000000000020000002000000010410404042354370070424052100405209523007042   1030000600030000   554100002085315799420000471DENKO BAHAN            YANGON        MMR11004042354370070420405000000000000000   10300001 00104100000000000600000000000000     
100   62443101061229100000000000027374000000027374002000000010410404050326410117454939730405209503011745   1030000600030000   581200000524315799420000141FUJI COFFEE HOUSE      YANGON        MMR11004050326410117450405000000000000000   10300001 00104100000000011634000000000000     
100   95050318041680090000000000004825000000004825002000000010410404050243270031177443170405000338632716   1030000300030000   591200000183000000000000090CB BANK                MEDICARE STOR MMR11004050243270031170405000000000000000   10300001F00104100000000001158000000000000     
100   95050320360851930000000000002940000000002940002000000010410404061517154715357322110406000006963037   1020000200030000   333400010001204104000000281Myanmar Soft-Gate Tech Yangon        MMR11004061517154715350406000000000000000   10300001F05104100000000000617000000000000     
100   95030301100122420000000000100000000000100000002000000010410404061029315931644052100406000006961638   1030000200030000   333800010001203104000003327KBZPay                 Yangon        MMR11004061029315931640406000000000000000   10300001F05104100000000021000000000000000     
100   95050319938772870000000000000980000000000980002000000010410404061327375737386045640406000006962563   1020000200030000   333400010001204104000000281Myanmar Soft-Gate Tech Yangon        MMR11004061327375737380406000000000000000   10300001F05104100000000000206000000000000     
100   95050312568198510000000000100000000000100000002000000010410404060904113411412739030406000006961003   1030000200030000   3338000100012031040000040022C2P (Myanmar) Co. Ltd Yangon        MMR11004060904113411410406000000000000000   10300001F05104100000000021000000000000000     
100   62911028202099050000000000180850000000180850002000000010410404060531023741984052100406209612374198   1040001600030000   591220000266000000010000254Shwe Ohh Pharmacy (Sin Yangon        MMR11004060531023741980406000000000000000   10300001F00104100000000010851000000000000     
100   95050320335873810000000000010000000000010000002000000010410404060615064506284888310406000006959474   1030000200030000   333800010001203104000003327KBZPay                 Yangon        MMR11004060615064506280406000000000000000   10300001F05104100000000002100000000000000     
100   62443101045531990000000000050000000000050000002000000010410404060318174817709823890406000006957793   1030000200030000   333800010001203104000003327KBZPay                 Yangon        MMR11004060318174817700406000000000000000   10300001F05104100000000010500000000000000     
100   62911028202581590000000000000980000000000980002000000010410404060516094609844052100406000006958858   1020000200030000   333400010001204104000000281Myanmar Soft-Gate Tech Yangon        MMR11004060516094609840406000000000000000   10300001F05104100000000000206000000000000     
100   62443100395250310000000000060000000000060000002000000010410404061128465846574860730406000006961968   1030000200030000   333800010001203104000003327KBZPay                 Yangon        MMR11004061128465846570406000000000000000   10300001F05104100000000012600000000000000     
100   95030301100120930000000000050000000000050000002000000010410404060305463546574052100406000006957676   1030000200030000   333800010001203104000003327KBZPay                 Yangon        MMR11004060305463546570406000000000000000   10300001F05104100000000010500000000000000     
100   62911028202150190000000000068000000000068000002000000010410404060433103711534052100406209611371153   1040001600030000   598320000658000000010000527Shwe Taung Energy (YGN Yangon        MMR11004060433103711530406000000000000000   10300001F00104100000000002040000000000000     
100   95050319928585020000000000002940000000002940002000000010410404060808533853191852420406000006960502   1020000200030000   333400010001204104000000281Myanmar Soft-Gate Tech Yangon        MMR11004060808533853190406000000000000000   10300001F05104100000000000617000000000000     
100   95050319928585020000000000000980000000000980002000000010410404060816204620690029740406000006960572   1020000200030000   333400010001204104000000281Myanmar Soft-Gate Tech Yangon        MMR11004060816204620690406000000000000000   10300001F05104100000000000206000000000000     
100   62443100355445150000000000088500000000088500002000000010410404060219187000305581490406455470802095   1030000300030000   555510124697104519000020166Makro Myanmar                        MMR11004060219187000300406000000000000000   10300001 00104100000000021240000000000000     
100   95050310427855490000000000002940000000002940002000000010410404061403333333518669890406000006962740   1020000200030000   333400010001204104000000281Myanmar Soft-Gate Tech Yangon        MMR11004061403333333510406000000000000000   10300001F05104100000000000617000000000000     
100   62911028202448030000000000050000000000050000002000000010410404060953123881804052100406209616388180   1040001600030000   598320000658000000010000527Shwe Taung Energy (YGN Yangon        MMR11004060953123881800406000000000000000   10300001F00104100000000001500000000000000     
100   95050312224678430000000000000980000000000980002000000010410404060310304030875206830406000006957729   1020000200030000   333400010001204104000000281Myanmar Soft-Gate Tech Yangon        MMR11004060310304030870406000000000000000   10300001F05104100000000000206000000000000     
100   95050319928585020000000000002940000000002940002000000010410404060825345534491426930406000006960647   1020000200030000   333400010001204104000000281Myanmar Soft-Gate Tech Yangon        MMR11004060825345534490406000000000000000   10300001F05104100000000000617000000000000     
100   95050312498129060000000000005880000000005880002000000010410404061518024802667747570406000006963038   1020000200030000   333400010001204104000000281Myanmar Soft-Gate Tech Yangon        MMR11004061518024802660406000000000000000   10300001F05104100000000001235000000000000     
100   95050312675873230000000000003920000000003920002000000010410404061609393939203846940406000006963254   1020000200030000   333400010001204104000000281Myanmar Soft-Gate Tech Yangon        MMR11004061609393939200406000000000000000   10300001F05104100000000000823000000000000     
100   95050312498129060000000000000980000000000980002000000010410404061110224022602952950406000006961888   1020000200030000   333400010001204104000000281Myanmar Soft-Gate Tech Yangon        MMR11004061110224022600406000000000000000   10300001F05104100000000000206000000000000     
100   62911028202074950000000000007750000000007750002000000010410404060436523713344052100406209611371334   1040001600030000   591220000287000000010000275Shwe Ohh Pharmacy (Wit Yangon        MMR11004060436523713340406000000000000000   10300001F00104100000000000465000000000000     
100   95050312498129060000000000007840000000007840002000000010410404060907243724329348970406000006961036   1020000200030000   333400010001204104000000281Myanmar Soft-Gate Tech Yangon        MMR11004060907243724320406000000000000000   10300001F05104100000000001646000000000000     
100   95050310178107440000000000005000000000005000002000000010410404060716474647108412910406000006960022   1030000200030000   3338000100012031040000040022C2P (Myanmar) Co. Ltd Yangon        MMR11004060716474647100406000000000000000   10300001F05104100000000001050000000000000     
