100   95030308100042590000000000079100000000079100002000000010410404060943140007884052100406209616000788   1030000500030000   598320001701000015172200017MAX ENERGY             PTN           MMR11004060943140007880406000000000000000   10300001 00104100000000002373000000000000     
100   62443100302523870000000000040000000000040000002000000010410404052346290473692751450406209623047369   1030000600030000   554100000969315799420000481DENKO NORTH OKKALAPA   YANGON        MMR11004052346290473690406000000000000000   10300001 00104100000000004800000000000000     
100   95050321232876860000000000075100000000075100002000000010410404060734060340929810100406209607034092   1030000600030000   554100001865315799420001235DENKO NAY PYI TAW 2    NAYPYITAW     MMR11004060734060340920406000000000000000   10300001 00104100000000009012000000000000     
100   95030301100121270000000000020000000000020000002000000010410404061013483896084052100406209617389608   1040001600030000   598320000917000000010000665MMTM - Thingangyun     Ygn           MMR11004061013483896080406000000000000000   10300001F00104100000000000600000000000000     
100   62443100371022130000000000107910000000107910002000000010410404061425594103744769220406209621410374   1040001600030000   581420000616000000010000489Mai Thai               Ygn           MMR11004061425594103740406000000000000000   10300001F00104100000000012949000000000000     
100   95050324250133010000000000020000000000020000002000000010410404061041030019918151900406209617001991   1030000500030000   598320001101000015172200011MAX ENERGY             PTN           MMR11004061041030019910406000000000000000   10300001 00104100000000002400000000000000     
100   95050313400081980000000000026000000000026000002000000010410404071311334133104320530407000006969625   1030000200030000   333800010001203104000003327KBZPay                 Yangon        MMR11004071311334133100407000000000000000   10300001F05104100000000005460000000000000     
100   95050315743141220000000000020000000000020000002000000010410404060714510009618498010406209613000961   1030000500030000   591220014201014405912200142SHWE OHH PHARMACY      PTN           MMR11004060714510009610406000000000000000   10300001 00104100000000004800000000000000     
100   95030301100129110000000000300000000000300000002000000010410404071149411941134679600407000006969187   1030000200030000   333800010001203104000003327KBZPay                 Yangon        MMR11004071149411941130407000000000000000   10300001F05104100000000063000000000000000     
100   95050312498129060000000000000980000000000980002000000010410404071140351035559016980407000006969151   1020000200030000   333400010001204104000000281Myanmar Soft-Gate Tech Yangon        MMR11004071140351035550407000000000000000   10300001F05104100000000000206000000000000     
100   95050319220344710000000000030000000000030000002000000010410404070857542754636066190407000006967958   1030000200030000   333800010001203104000003327KBZPay                 Yangon        MMR11004070857542754630407000000000000000   10300001F05104100000000006300000000000000     
100   62911028202195080000000000072530000000072530002000000010410404070626514427374661210407209713442737   1040001600030000   541120000569000000010000465Ocean Shwe Gone Daing  Yangon        MMR11004070626514427370407000000000000000   10300001F00104100000000004352000000000000     
100   95050328074436620000000000004900000000004900002000000010410404070738450845742258460407000006967157   1020000200030000   333400010001204104000000281Myanmar Soft-Gate Tech Yangon        MMR11004070738450845740407000000000000000   10300001F05104100000000001029000000000000     
100   95050312675525330000000000008000000000008000002000000010410404071448491849866313400407000006970083   1030000200030000   333800010001203104000003327KBZPay                 Yangon        MMR11004071448491849860407000000000000000   10300001F05104100000000001680000000000000     
100   95050314775367220000000000016400000000016400002000000010410404070941501150239577000407000006968335   1030000200030000   333800010001203104000003327KBZPay                 Yangon        MMR11004070941501150230407000000000000000   10300001F05104100000000003444000000000000     
100   95050312360118350000000000002500000000002500002000000010410404070124025402404978420407000006963945   1030000900030000   333400010001202104000002022ACS                    Yangon        MMR11004070124025402400407000000000000000   10300001F05104100000000000525000000000000     
100   95050322715181550000000000065000000000065000002000000010410404060533070073884583570406209605007388   1030000600030000   554100002085315799420000471DENKO BAHAN            YANGON        MMR11004060533070073880406000000000000000   10300001 00104100000000007800000000000000     
100   95050312946679160000000000053000000000053000002000000010410404070518164816998215210407000006965931   1030000200030000   333800010001203104000003327KBZPay                 Yangon        MMR11004070518164816990407000000000000000   10300001F05104100000000011130000000000000     
100   62911028202471860000000000095900000000095900002000000010410404060705520000904052100406209613000090   1030000500030000   591220014301014405912200143SHWE OHH PHARMACY      PTN           MMR11004060705520000900406000000000000000   10300001 00104100000000005754000000000000     
100   62911028202151340000000000028500000000028500002000000010410404071532460165654679600407000745348252   1030000200030000   541188001082000008000000294KBZ BANK               CITY MART - J MMR11004071532460165650407000000000000000   10300001 00104100000000001710000000000000     
100   62911028202684060000000000023300000000023300002000000010410404060849420000464052100406209615000046   1030000500030000   806220067201014208062200672FAME  (CLINIC)         PTN           MMR11004060849420000460406000000000000000   10300001 00104100000000001398000000000000     
100   95050313702988830000000000002940000000002940002000000010410404071450112011698050980407000006970078   1020000200030000   333400010001204104000000281Myanmar Soft-Gate Tech Yangon        MMR11004071450112011690407000000000000000   10300001F05104100000000000617000000000000     
100   62911028202473840000000000071300000000071300002000000010410404070625014426284650210407209713442628   1040001600030000   591220000278000000010000266Shwe Ohh Pharmacy (Bah Yangon        MMR11004070625014426280407000000000000000   10300001F00104100000000004278000000000000     
100   95050312498129060000000000000980000000000980002000000010410404070916294629478399440407000006968129   1020000200030000   333400010001204104000000281Myanmar Soft-Gate Tech Yangon        MMR11004070916294629470407000000000000000   10300001F05104100000000000206000000000000     
100   95050315298771650000000000050000000000050000002000000010410404071004193419736357130407000006968516   1030000200030000   333800010001203104000003327KBZPay                 Yangon        MMR11004071004193419730407000000000000000   10300001F05104100000000010500000000000000     
100   95050313702988830000000000001960000000001960002000000010410404071500173017511355950407000006970110   1020000200030000   333400010001204104000000281Myanmar Soft-Gate Tech Yangon        MMR11004071500173017510407000000000000000   10300001F05104100000000000412000000000000     
100   62911028202260400000000000043500000000043500002000000010410404070917534511354679600407209716451135   1040001600030000   591220000626000000010000497AAA Pharmacy           Ygn           MMR11004070917534511350407000000000000000   10300001F00104100000000002610000000000000     
100   95030301100125070000000000300000000000300000002000000010410404070819394939254679600407000006967585   1030000200030000   333800010001203104000003327KBZPay                 Yangon        MMR11004070819394939250407000000000000000   10300001F05104100000000063000000000000000     
100   95050312792817170000000000001960000000001960002000000010410404071454152415626398500407000006970098   1020000200030000   333400010001204104000000281Myanmar Soft-Gate Tech Yangon        MMR11004071454152415620407000000000000000   10300001F05104100000000000412000000000000     
100   95050322295410690000000000050000000000050000002000000010410404070440224364929357110407209711436492   1040001600030000   598320000854000000010000608Terminal Petrol Statio Yangon        MMR11004070440224364920407000000000000000   10300001F00104100000000006000000000000000     
100   95030390626214130000000000033943000000033943002000000010410404070421005100023907300407000006965435   1030000200030000   3333000100012031040000040282C2P (Myanmar) Co. Ltd Yangon        MMR11004070421005100020407000000000000000   10300001F05104100000000010000000000000000     
100   95050313970192050000000000002700000000002700002000000010410404070917057177449406810407242061626096   1030000500030000   555610112651104519000010846City Express MCS 34                  MMR11004070917057177440407000000000000000   10300001 00104100000000000675000000000000     
100   62443100315853220000000000092500000000092500002000000010410404070451129479355116080407972211112096   1030000900030000   541119001320190110000000969OceanMingalarMDYCity C MANDALAYHARSI MMR11004070451129479350407000000000000000   10300001F00104100000000023125000000000000     
100   95050322155898660000000000042650000000042650002000000010410404071332099623981611240407522022009096   1030000900030000   541119001217190110000000945City Mart TM C 2       YANGONONE     MMR11004071332099623980407000000000000000   10300001F00104100000000010663000000000000     
100   95050312554086980000000000018050000000018050002000000010410404050750410026115482600405209507002611   1030000600030000   5499000022283157994200015671 STOP S M BOGYOKE RD  YANGON        MMR11004050750410026110405000000000000000   10300001 00104100000000007672000000000000     
100   95050318242219520000000000006000000000006000002000000010410404051144030014236190950405209511001423   1030000600030000   5499000023543157994200016371 STOP S M KAMARKYI    YANGON        MMR11004051144030014230405000000000000000   10300001 00104100000000002550000000000000     
100   62443100395964530000000000040000000000040000002000000010410404050226380359727662810405209502035972   1030000600030000   554100001106315799420000564DENKO PHYUU            PHYUU         MMR11004050226380359720405000000000000000   10300001 00104100000000004800000000000000     
100   95030301100127050000000000085000000000085000002000000010410404051025440590274052100405209510059027   1030000600030000   554100000952315799420000474DENKO N.DAGON - 1      YANGON        MMR11004051025440590270405000000000000000   10300001 00104100000000002550000000000000     
100   95050328919375610000000000090600000000090600002000000010410404070444001400976853660407000006965624   1030000200030000   333800010001203104000003327KBZPay                 Yangon        MMR11004070444001400970407000000000000000   10300001F05104100000000019026000000000000     
100   62443100390038980000000000141650000000141650002000000010410404071053417189870499270407952231751096   1030000300030000   555510124685104519000020166Makro Myanmar                        MMR11004071053417189870407000000000000000   10300001 00104100000000033996000000000000     
100   62911028202615340000000000000900000000000900002000000010410404071048017188734679600407797171743096   1030000500030000   555610112983104519000011143Market Place by City M rt Sule       MMR11004071048017188730407000000000000000   10300001 00104100000000000054000000000000     
100   62911028202615340000000000004148000000004148002000000010410404071227187204874679600407175581801096   1030000500030000   555610112981104519000011143Market Place by City M rt Sule       MMR11004071227187204870407000000000000000   10300001 00104100000000000249000000000000     
100   62443100399918110000000000015650000000015650002000000010410404070241249450124909470407242110924096   1030000900030000   591219000603190110000000443Shwe Ohh Pharmacy St-8 YANGON        MMR11004070241249450120407000000000000000   10300001F00104100000000003756000000000000     
100   95050314703432410000000000001000000000001000002000000010410404070120475047288028080407000006963927   1030000200030000   3338000100012031040000040022C2P (Myanmar) Co. Ltd Yangon        MMR11004070120475047280407000000000000000   10300001F05104100000000000210000000000000     
100   95050324154190880000000000150000000000150000002000000010410404071042337187664946140407646121725096   1030000300030000   555510124685104519000020166Makro Myanmar                        MMR11004071042337187660407000000000000000   10300001 00104100000000036000000000000000     
100   62911028202615340000000000002800000000002800002000000010410404071206437201834679600407760341837096   1030000500030000   555610112991104519000011143Market Place by City M rt Sule       MMR11004071206437201830407000000000000000   10300001 00104100000000000168000000000000     
100   95050314749068520000000000030200000000030200002000000010410404071214157203067880780407920431828096   1030000500030000   555610103969104519000003818Ocean Oattara Thiri Na PyiTaw        MMR11004071214157203060407000000000000000   10300001 00104100000000007550000000000000     
100   95050322990383760000000000004449000000004449002000000010410404070800077163879420590407432311445096   1030000500030000   555610110574104519000009164City Mart China Town P int Cen       MMR11004070800077163870407000000000000000   10300001 00104100000000001113000000000000     
100   62443100333488440000000000110200000000110200002000000010410404070816207165678448880407638451452096   1030000300030000   555510124695104519000020166Makro Myanmar                        MMR11004070816207165670407000000000000000   10300001 00104100000000026448000000000000     
100   62911028202615340000000000002550000000002550002000000010410404071120397194494679600407670501754096   1030000500030000   555610112984104519000011143Market Place by City M rt Sule       MMR11004071120397194490407000000000000000   10300001 00104100000000000153000000000000     
100   95030333100021460000000000008100000000008100002000000010410404071236000174574536510407000745334807   1030000200030000   541188001080000008000000294KBZ BANK               CITY MART - J MMR11004071236000174570407000000000000000   10300001 00104100000000000486000000000000     
100   62443101001072630000000000133000000000133000002000000010410404060347070243055596650406209603024305   1030000600030000   554100000725315799420000306DENKO MDY - 78         MANDALAY      MMR11004060347070243050406000000000000000   10300001 00104100000000015960000000000000     
100   62443100390038980000000000135000000000135000002000000010410404060521350055806406250406209605005580   1030000600030000   554100001226315799420000679DENKO MAGWAY - 2       MAGWAY        MMR11004060521350055800406000000000000000   10300001 00104100000000016200000000000000     
100   95050321232876860000000000118000000000118000002000000010410404060224460340594099200406209602034059   1030000600030000   554100001865315799420001235DENKO NAY PYI TAW 2    NAYPYITAW     MMR11004060224460340590406000000000000000   10300001 00104100000000014160000000000000     
100   95030306100081790000000000018550000000018550002000000010410404071322260098894679600407000745338338   1030000200030000   541188001081000008000000294KBZ BANK               CITY MART - J MMR11004071322260098890407000000000000000   10300001 00104100000000001113000000000000     
100   62911028202660950000000000010000000000010000002000000010410404071246541654394679600407000006969490   1030000200030000   333800010001203104000003327KBZPay                 Yangon        MMR11004071246541654390407000000000000000   10300001F05104100000000002100000000000000     
100   62443100333488440000000000150000000000150000002000000010410404070820327166188533980407693481456096   1030000300030000   555510124365104519000020166Makro Myanmar                        MMR11004070820327166180407000000000000000   10300001 00104100000000036000000000000000     
100   95050313830289390000000000007500000000007500002000000010410404070926567175613428200407958551507096   1030000300030000   555510124298104519000020435MGOU Pyay                            MMR11004070926567175610407000000000000000   10300001 00104100000000001800000000000000     
100   62911028202615340000000000088973000000088973002000000010410404071155587200804679600407595281843096   1030000500030000   555610112983104519000011143Market Place by City M rt Sule       MMR11004071155587200800407000000000000000   10300001 00104100000000005338000000000000     
100   95050312968654190000000000042454000000042454002000000010410404070540587142588429130407550131245096   1030000500030000   555610103981104519000003818Ocean Oattara Thiri Na PyiTaw        MMR11004070540587142580407000000000000000   10300001 00104100000000010614000000000000     
100   95050323233042810000000000000980000000000980002000000010410404061719424942288315690407000006963412   1020000200030000   333400010001204104000000281Myanmar Soft-Gate Tech Yangon        MMR11004061719424942280407000000000000000   10300001F05104100000000000206000000000000     
100   95030325264619140000000000039500000000039500002000000010410404070327207124323587900407397550926096   1030000300030000   555510124695104519000020166Makro Myanmar                        MMR11004070327207124320407000000000000000   10300001 00104100000000002370000000000000     
100   62911028202221220000000000020600000000020600002000000010410404070122097116082833310407485490740096   1030000300030000   555510125330104519000021173One Stop Mart Shopping Mall 0003     MMR11004070122097116080407000000000000000   10300001 00104100000000001236000000000000     
100   62911028202076850000000000000980000000000980002000000010410404070428525852383954500407000006965498   1020000200030000   333400010001204104000000281Myanmar Soft-Gate Tech Yangon        MMR11004070428525852380407000000000000000   10300001F05104100000000000206000000000000     
100   95050311736839760000000000000980000000000980002000000010410404070150412041141645870407000006964078   1020000200030000   333400010001204104000000281Myanmar Soft-Gate Tech Yangon        MMR11004070150412041140407000000000000000   10300001F05104100000000000206000000000000     
100   62443100372702000000000000030000000000030000002000000010410404071103450004213974430407000745355446   1030000200030000   569988001630000008000005150KBZ BANK               YDG OFFICE    MMR11004071103450004210407000000000000000   10300001 00104100000000007200000000000000     
100   62911028202761360000000000051600000000051600002000000010410404070858010008984679600407000745347937   1030000200030000   569988000799000008000004571KBZ BANK               NPT-THE ONE   MMR11004070858010008980407000000000000000   10300001 00104100000000003096000000000000     
100   62911028202283680000000000128100000000128100002000000010410404070757220009225204510407000745343565   1030000200030000   806288000932000008000001738KBZ BANK               SHWE GONE DIN MMR11004070757220009220407000000000000000   10300001 00104100000000007686000000000000     
100   95030356977005070000000000004200000000004200002000000010410404071504460000264679600407000745346376   1030000200030000   541188001016000008000000008KBZ BANK               MARKETPLACE - MMR11004071504460000260407000000000000000   10300001 00104100000000000252000000000000     
100   95030306100081790000000000004900000000004900002000000010410404071254080020394508700407000745336252   1030000200030000   541188001085000008000000294KBZ BANK               CITY MART - J MMR11004071254080020390407000000000000000   10300001 00104100000000000294000000000000     
100   95050310644222860000000000008100000000008100002000000010410404071008270003954789740407000745352117   1030000200030000   569988002341000008000006217KBZ BANK               BESTO FASHION MMR11004071008270003950407000000000000000   10300001 00104100000000001944000000000000     
100   62911028202610540000000000002700000000002700002000000010410404071059250090473956710407000745326171   1030000200030000   541188001088000008000000294KBZ BANK               CITY MART - J MMR11004071059250090470407000000000000000   10300001 00104100000000000162000000000000     
100   62911028202668140000000000150000000000150000002000000010410404070200397118003074810407655290855096   1030000300030000   555510124690104519000020166Makro Myanmar                        MMR11004070200397118000407000000000000000   10300001 00104100000000009000000000000000     
100   95050320624349010000000000030000000000030000002000000010410404070207109445474624230407005370810096   1030000900030000   554119000346190110000000213New Day Energy SOK     YANGONOKKALAP MMR11004070207109445470407000000000000000   10300001F00104100000000003600000000000000     
100   95030301100125070000000000200000000000200000002000000010410404070821585158425353110407000006967601   1030000200030000   333800010001203104000003327KBZPay                 Yangon        MMR11004070821585158420407000000000000000   10300001F05104100000000042000000000000000     
100   62911028202678610000000000011600000000011600002000000010410404070438557132424013910407309061126096   1030000300030000   444410119860104519000016878Urban Kitchen                        MMR11004070438557132420407000000000000000   10300001 00104100000000001183000000000000     
100   95050310750557450000000000009050000000009050002000000010410404070528567139682826560407195571101096   1030000500030000   555610103464104519000003420City Mart Yankin Cente 3             MMR11004070528567139680407000000000000000   10300001 00104100000000002263000000000000     
100   62911028202126020000000000006300000000006300002000000010410404070806247164444679600407493361400096   1030000500030000   555610118972104519000016137City Mart South Okkala WZYD BR       MMR11004070806247164440407000000000000000   10300001 00104100000000000378000000000000     
100   95050314749068520000000000003000000000003000002000000010410404071010457182578336210407920401646096   1030000300030000   555510125519104519000021334MGOU NPT                             MMR11004071010457182570407000000000000000   10300001 00104100000000000720000000000000     
100   62911028202684060000000000014283000000014283002000000010410404070920077175724679600407980561507096   1030000500030000   555610104031104519000003821City Mart North Point  enter         MMR11004070920077175720407000000000000000   10300001 00104100000000000857000000000000     
100   62911028202610540000000000006500000000006500002000000010410404071111190098804028210407000745327181   1030000200030000   541188001081000008000000294KBZ BANK               CITY MART - J MMR11004071111190098800407000000000000000   10300001 00104100000000000390000000000000     
100   62911028202161240000000000011359000000011359002000000010410404070931370318053429900407000745319981   1030000200030000   541188001024000008000000298KBZ BANK               CITY MART - M MMR11004070931370318050407000000000000000   10300001 00104100000000000682000000000000     
100   95050312675525330000000000030000000000030000002000000010410404071434510451957965880407000006970017   1030000200030000   333800010001203104000003327KBZPay                 Yangon        MMR11004071434510451950407000000000000000   10300001F05104100000000006300000000000000     
100   95030317922148660000000000033177000000033177002000000010410404071232400052074508700407000745334550   1030000200030000   541188001006000008000000008KBZ BANK               MARKETPLACE - MMR11004071232400052070407000000000000000   10300001 00104100000000001991000000000000     
100   62911028202023630000000000019650000000019650002000000010410404071648250054344679600407000745352757   1030000200030000   541188001366000008000000395KBZ BANK               OCEAN SUPERMA MMR11004071648250054340407000000000000000   10300001 00104100000000001179000000000000     
100   62911028202676220000000000014400000000014400002000000010410404070921050026884679600407000745349373   1030000200030000   591288000018000008000002044KBZ BANK               PINLON PHARMA MMR11004070921050026880407000000000000000   10300001 00104100000000000864000000000000     
100   95030306100081790000000000014300000000014300002000000010410404071320410098884679600407000745338216   1030000200030000   541188001081000008000000294KBZ BANK               CITY MART - J MMR11004071320410098880407000000000000000   10300001 00104100000000000858000000000000     
100   95030322236782320000000000021050000000021050002000000010410404071812330077084679600407000745357736   1030000200030000   541188001259000008000000310KBZ BANK               CITY MART- FM MMR11004071812330077080407000000000000000   10300001 00104100000000001263000000000000     
100   62443100306028540000000000002550000000002550002000000010410404071249067207329192890407539171951096   1030000500030000   555610110570104519000009164City Mart China Town P int Cen       MMR11004071249067207320407000000000000000   10300001 00104100000000000638000000000000     
100   95030385550669610000000000214300000000214300002000000010410404070300279453793440510407453300927096   1030000900030000   541119000375190110000000178Pro (1) Global (East D YANGONMYOTHIT MMR11004070300279453790407000000000000000   10300001F00104100000000012858000000000000     
100   62911028202126020000000000024350000000024350002000000010410404070801237164105256710407454331434096   1030000500030000   555610118967104519000016137City Mart South Okkala WZYD BR       MMR11004070801237164100407000000000000000   10300001 00104100000000001461000000000000     
100   95050313970192050000000000004500000000004500002000000010410404071032587185833123470407401001743096   1030000500030000   555610112651104519000010846City Express MCS 34                  MMR11004071032587185830407000000000000000   10300001 00104100000000001125000000000000     
100   62911028202317430000000000073100000000073100002000000010410404070329177124493599800407412570925096   1030000300030000   555510124690104519000020166Makro Myanmar                        MMR11004070329177124490407000000000000000   10300001 00104100000000004386000000000000     
100   62911028202443730000000000066443000000066443002000000010410404070431077131673983610407221011123096   1030000500030000   555610112242104519000010487Ocean Super Center St  ohn           MMR11004070431077131670407000000000000000   10300001 00104100000000003987000000000000     
100   95050314749068520000000000030750000000030750002000000010410404071009207182293137260407880391608096   1030000300030000   555510125519104519000021334MGOU NPT                             MMR11004071009207182290407000000000000000   10300001 00104100000000007380000000000000     
100   95050327409540490000000000067719000000067719002000000010410404070942517178697584130407398141657096   1030000500030000   555610120944104519000017714City Mart Yuzana Dagon Seikkan       MMR11004070942517178690407000000000000000   10300001 00104100000000016930000000000000     
100   62911028202318750000000000031150000000031150002000000010410404071753010149344679600407000745356586   1030000200030000   541188001020000008000000298KBZ BANK               CITY MART - M MMR11004071753010149340407000000000000000   10300001 00104100000000001869000000000000     
100   95050315615561720000000000000980000000000980002000000010410404070032220222933918250407000006963756   1020000200030000   333400010001204104000000281Myanmar Soft-Gate Tech Yangon        MMR11004070032220222930407000000000000000   10300001F05104100000000000206000000000000     
100   62911028202116610000000000025300000000025300002000000010410404071234270171824508700407000745334706   1030000200030000   541188001055000008000000314KBZ BANK               MARKETPLACE - MMR11004071234270171820407000000000000000   10300001 00104100000000001518000000000000     
100   62911028202023630000000000145050000000145050002000000010410404071641560072644679600407000745352314   1030000200030000   541188001347000008000000395KBZ BANK               OCEAN SUPERMA MMR11004071641560072640407000000000000000   10300001 00104100000000008703000000000000     
100   62911028202151340000000000010100000000010100002000000010410404071629440099044679600407000745351552   1030000200030000   541188001081000008000000294KBZ BANK               CITY MART - J MMR11004071629440099040407000000000000000   10300001 00104100000000000606000000000000     
100   62443100372718280000000000093400000000093400002000000010410404071458160165623647830407000745345953   1030000200030000   541188001082000008000000294KBZ BANK               CITY MART - J MMR11004071458160165620407000000000000000   10300001 00104100000000023350000000000000     
100   62911028202473840000000000032900000000032900002000000010410404071600580165714679600407000745349950   1030000200030000   541188001082000008000000294KBZ BANK               CITY MART - J MMR11004071600580165710407000000000000000   10300001 00104100000000001974000000000000     
100   62911028202676220000000000050400000000050400002000000010410404070903530020764679600407000745348306   1030000200030000   591288000838000008000004646KBZ BANK               PINLON PHARMA MMR11004070903530020760407000000000000000   10300001 00104100000000003024000000000000     
100   95050322990383760000000000005000000000005000002000000010410404070749197162289584820407214211419096   1030000500030000   555610117864104519000009164City Mart China Town P int Cen       MMR11004070749197162280407000000000000000   10300001 00104100000000001250000000000000     
100   62911028202610540000000000034326000000034326002000000010410404070724367158165031300407677551359096   1030000500030000   555610112237104519000010487Ocean Super Center St  ohn           MMR11004070724367158160407000000000000000   10300001 00104100000000002060000000000000     
100   62911028202910850000000000009400000000009400002000000010410404071142217198754679600407282151843096   1030000500030000   555610112649104519000010844City Express MCS 20                  MMR11004071142217198750407000000000000000   10300001 00104100000000000564000000000000     
100   95030308100042590000000000064000000000064000002000000010410404070941259559834679600407187111625096   1030000900030000   541119000302190110000000184Super One Shopping Mal YANGONTHARYA  MMR11004070941259559830407000000000000000   10300001F00104100000000003840000000000000     
100   95050312358501180000000000013100000000013100002000000010410404070900129547075009380407330301512096   1030000900030000   541119001229190110000000946City Mart TM Season C  YANGONONE     MMR11004070900129547070407000000000000000   10300001F00104100000000003275000000000000     
100   62911028202290100000000000040000000000040000002000000010410404071012029569584679600407798421602096   1030000900030000   554119000345190110000000212New Day Energy PZD     YANGONAUNG    MMR11004071012029569580407000000000000000   10300001F00104100000000001200000000000000     
100   95050328275983620000000000014000000000014000002000000010410404071221209610182497860407636511820096   1030000900030000   541119001330190110000000971Ocean Junction NPT C 8 NAYPYITAW     MMR11004071221209610180407000000000000000   10300001F00104100000000003500000000000000     
100   62911028202291190000000000021250000000021250002000000010410404070512199485364231410407365421119096   1030000900030000   591219000607190110000000447Shwe Ohh Pharmacy St-3 YANGONINDAING MMR11004070512199485360407000000000000000   10300001F00104100000000001275000000000000     
100   95050322715181550000000000013028000000013028002000000010410404071325410122608138180407000745338576   1030000200030000   541188001244000008000000323KBZ BANK               CITY MART - I MMR11004071325410122600407000000000000000   10300001 00104100000000003257000000000000     
100   95050315474529910000000000022000000000022000002000000010410404070134010401114127450407000006963984   1030000200030000   3333000100012031040000040282C2P (Myanmar) Co. Ltd Yangon        MMR11004070134010401110407000000000000000   10300001F05104100000000010000000000000000     
100   95050315110306410000000000001960000000001960002000000010410404062334030403830514390407000006963667   1020000200030000   333400010001204104000000281Myanmar Soft-Gate Tech Yangon        MMR11004062334030403830407000000000000000   10300001F05104100000000000412000000000000     
100   62911028202481270000000000047450000000047450002000000010410404071322550318414679600407000745338369   1030000200030000   541188001024000008000000298KBZ BANK               CITY MART - M MMR11004071322550318410407000000000000000   10300001 00104100000000002847000000000000     
100   95050316601084530000000000000980000000000980002000000010410404070433160316079697500407000006965531   1020000200030000   333400010001204104000000281Myanmar Soft-Gate Tech Yangon        MMR11004070433160316070407000000000000000   10300001F05104100000000000206000000000000     
100   95050310672555840000000000038000000000038000002000000010410404070235500550368667520407000006964368   1030000200030000   333800010001203104000003327KBZPay                 Yangon        MMR11004070235500550360407000000000000000   10300001F05104100000000007980000000000000     
100   95050319753756490000000000040000000000040000002000000010410404070932280228248726040407000006968259   1030000200030000   333800010001203104000003327KBZPay                 Yangon        MMR11004070932280228240407000000000000000   10300001F05104100000000008400000000000000     
100   95050315122972560000000000000980000000000980002000000010410404071533540354304746010407000006970253   1020000200030000   333400010001204104000000281Myanmar Soft-Gate Tech Yangon        MMR11004071533540354300407000000000000000   10300001F05104100000000000206000000000000     
100   62443100333488440000000000024150000000024150002000000010410404070918009552605179570407704481500096   1030000900030000   541119000158190110000000084Pro (1) Global (Pazund YANGONARTAUNG MMR11004070918009552600407000000000000000   10300001F00104100000000006038000000000000     
100   62911028202294730000000000021150000000021150002000000010410404071126099594694679600407545561709096   1030000900030000   541119001068190110000000082Sein Gay Har Super Cen YANGON        MMR11004071126099594690407000000000000000   10300001F00104100000000001269000000000000     
100   62911028202196800000000000025828000000025828002000000010410404070640059509334679600407909101305096   1030000900030000   581219000981190110000000788Jo Jo Hot Pot (KTY)    YANGONARTAUNG MMR11004070640059509330407000000000000000   10300001F00104100000000002634000000000000     
100   62911028202133520000000000010296000000010296002000000010410404071212119607954679600407483421811096   1030000900030000   541119001191190110000000942City Mart HDC C 6      YANGONUT      MMR11004071212119607950407000000000000000   10300001F00104100000000000618000000000000     
100   62911028202761360000000000096000000000096000002000000010410404070842449541754679600407974121544096   1030000900030000   569119001506190110000001100Next Generation GCS NP NAYPYITAW     MMR11004070842449541750407000000000000000   10300001F00104100000000005760000000000000     
100   62911028202499270000000000006400000000006400002000000010410404071055149584834679600407842251714096   1030000900030000   541119001213190110000000949City Mart YK Season C  YANGONAUNG    MMR11004071055149584830407000000000000000   10300001F00104100000000000384000000000000     
100   62443101007477200000000000025330000000025330002000000010410404071431179632154660910407957012117096   1030000900030000   581219001122190110000000903Malibu Bar             YANGONONE     MMR11004071431179632150407000000000000000   10300001F00104100000000010766000000000000     
100   62443101007477200000000000010450000000010450002000000010410404071431599632233008430407959012159096   1030000900030000   581219001122190110000000903Malibu Bar             YANGONONE     MMR11004071431599632230407000000000000000   10300001F00104100000000004442000000000000     
100   95050316818236190000000000001960000000001960002000000010410404071143541354650669460407000006969161   1020000200030000   333400010001204104000000281Myanmar Soft-Gate Tech Yangon        MMR11004071143541354650407000000000000000   10300001F05104100000000000412000000000000     
100   95030367537085740000000000000980000000000980002000000010410404070410264026223843910407000006965335   1020000200030000   333400010001204104000000281Myanmar Soft-Gate Tech Yangon        MMR11004070410264026220407000000000000000   10300001F05104100000000000206000000000000     
100   62443100330105920000000000050000000000050000002000000010410404070709433943881017670407000006966920   1030000200030000   333800010001203104000003327KBZPay                 Yangon        MMR11004070709433943880407000000000000000   10300001F05104100000000010500000000000000     
100   62911028202728380000000000004500000000004500002000000010410404070833274488584679600407209715448858   1040001600030000   591220000273000000010000261Shwe Ohh Pharmacy (WZY Yangon        MMR11004070833274488580407000000000000000   10300001F00104100000000000270000000000000     
100   62911028202466750000000000047800000000047800002000000010410404071104034588724679600407209718458872   1040001600030000   591220000267000000010000255Shwe Ohh Pharmacy (Bah Yangon        MMR11004071104034588720407000000000000000   10300001F00104100000000002868000000000000     
100   62911028202524260000000000017000000000017000002000000010410404071314094707614679600407209720470761   1040001600030000   541120000569000000010000465Ocean Shwe Gone Daing  Yangon        MMR11004071314094707610407000000000000000   10300001F00104100000000001020000000000000     
100   95050312695033440000000000000980000000000980002000000010410404070025075507977393420407000006963745   1020000200030000   333400010001204104000000281Myanmar Soft-Gate Tech Yangon        MMR11004070025075507970407000000000000000   10300001F05104100000000000206000000000000     
100   95050316736513170000000000020000000000020000002000000010410404070520245024435415100407000006965958   1030000200030000   333800010001203104000003327KBZPay                 Yangon        MMR11004070520245024430407000000000000000   10300001F05104100000000004200000000000000     
100   62443100399918110000000000028095000000028095002000000010410404070503099482630888850407186331109096   1030000900030000   541119001231190110000000951Marketplace KTY C 1    YANGONARTAUNG MMR11004070503099482630407000000000000000   10300001F00104100000000007024000000000000     
100   62911028202789750000000000013750000000013750002000000010410404071157509603974679600407208271850096   1030000900030000   591219000500190110000000347Shwe Ohh Pharmacy -  ( YANGONUNG     MMR11004071157509603970407000000000000000   10300001F00104100000000000825000000000000     
100   62911028202150190000000000021500000000021500002000000010410404071104169587544679600407028341716096   1030000900030000   591219000502190110000000349Shwe Ohh Pharmacy - (U YANGON        MMR11004071104169587540407000000000000000   10300001F00104100000000001290000000000000     
100   62911028202789750000000000039650000000039650002000000010410404071138479598374679600407801081847096   1030000900030000   591219000688190110000000519Shwe Ohh Pharmacy ST-7 YANGONUNG     MMR11004071138479598370407000000000000000   10300001F00104100000000002379000000000000     
100   62911028202178090000000000011700000000011700002000000010410404070524269488764304210407575541126096   1030000900030000   573219001178190110000000934UNIQUE Pansodan        YANGONADA     MMR11004070524269488760407000000000000000   10300001F00104100000000000702000000000000     
100   95050312358501180000000000106269000000106269002000000010410404070848419543411364030407085181541096   1030000900030000   541119001223190110000000945City Mart TM C 8       YANGONONE     MMR11004070848419543410407000000000000000   10300001F00104100000000026568000000000000     
100   95050323543939140000000000030900000000030900002000000010410404071307119619762582950407275371911096   1030000900030000   541119001312190110000000968Ocean Mingalar MDY C 2 MANDALAYHARSI MMR11004071307119619760407000000000000000   10300001F00104100000000007725000000000000     
100   62911028202088990000000000066900000000066900002000000010410404070536429492144377800407791061242096   1030000900030000   541119001244190110000000955City Mart JS C 3       YANGONUT      MMR11004070536429492140407000000000000000   10300001F00104100000000004014000000000000     
100   95050319525934530000000000038000000000038000002000000010410404070238280828610086570407000006964395   1030000200030000   333800010001203104000003327KBZPay                 Yangon        MMR11004070238280828610407000000000000000   10300001F05104100000000007980000000000000     
100   95050317823045920000000000080640000000080640002000000010410404070516024602656732920407000006965918   1030000900030000   333800010001202104000003301uab bank               Yangon        MMR11004070516024602650407000000000000000   10300001F05104100000000016934000000000000     
100   62443100395535610000000000055000000000055000002000000010410404070822345234621924040407000006967615   1030000200030000   333800010001203104000003327KBZPay                 Yangon        MMR11004070822345234620407000000000000000   10300001F05104100000000011550000000000000     
100   95050316377977350000000000002000000000002000002000000010410404071252132213030930470407000006969509   1030000200030000   3338000100012031040000040022C2P (Myanmar) Co. Ltd Yangon        MMR11004071252132213030407000000000000000   10300001F05104100000000000420000000000000     
100   95050316786253730000000000028000000000028000002000000010410404071051322132507109210407000006968828   1030000200030000   333800010001203104000003327KBZPay                 Yangon        MMR11004071051322132500407000000000000000   10300001F05104100000000005880000000000000     
100   95050312498129060000000000009500000000009500002000000010410404070003043304000939900407000006963696   1030000200030000   3333000100012031040000040282C2P (Myanmar) Co. Ltd Yangon        MMR11004070003043304000407000000000000000   10300001F05104100000000010000000000000000     
100   95050312695033440000000000000980000000000980002000000010410404071100503050005541810407000006968891   1020000200030000   333400010001204104000000281Myanmar Soft-Gate Tech Yangon        MMR11004071100503050000407000000000000000   10300001F05104100000000000206000000000000     
100   95050312792817170000000000000980000000000980002000000010410404071508083808081441040407000006970159   1020000200030000   333400010001204104000000281Myanmar Soft-Gate Tech Yangon        MMR11004071508083808080407000000000000000   10300001F05104100000000000206000000000000     
100   95030301100344930000000000009700000000009700002000000010410404071154599603074679600407144241859096   1030000900030000   541119001260190110000000958City Mart PLST C 3     YANGONMYOTHIT MMR11004071154599603070407000000000000000   10300001F00104100000000000582000000000000     
100   62911028202492080000000000014232000000014232002000000010410404070427129473173960800407593571012096   1030000900030000   541119001236190110000000951Marketplace KTY C 6    YANGONARTAUNG MMR11004070427129473170407000000000000000   10300001F00104100000000000854000000000000     
100   95050325784857510000000000002750000000002750002000000010410404070854109545092676120407189241510096   1030000900030000   541119001207190110000000948City Mart YK C 5       YANGONAUNG    MMR11004070854109545090407000000000000000   10300001F00104100000000000688000000000000     
100   95050322155898660000000000013600000000013600002000000010410404070834059539360768350407827041505096   1030000900030000   541119000141190110000000083SeinGayHarParami Cente YANGON        MMR11004070834059539360407000000000000000   10300001F00104100000000003400000000000000     
100   95050319938772870000000000000980000000000980002000000010410404071426225622432923340407000006969983   1020000200030000   333400010001204104000000281Myanmar Soft-Gate Tech Yangon        MMR11004071426225622430407000000000000000   10300001F05104100000000000206000000000000     
100   95050312498129060000000000000980000000000980002000000010410404071519564956059788560407000006970205   1020000200030000   333400010001204104000000281Myanmar Soft-Gate Tech Yangon        MMR11004071519564956050407000000000000000   10300001F05104100000000000206000000000000     
100   95050316997303010000000000000980000000000980002000000010410404071340341034303348820407000006969748   1020000200030000   333400010001204104000000281Myanmar Soft-Gate Tech Yangon        MMR11004071340341034300407000000000000000   10300001F05104100000000000206000000000000     
100   62911028202000450000000000001960000000001960002000000010410404070801473147535232010407000006967400   1020000200030000   333400010001204104000000281Myanmar Soft-Gate Tech Yangon        MMR11004070801473147530407000000000000000   10300001F05104100000000000412000000000000     
100   95050317071956460000000000000980000000000980002000000010410404070301103110935263620407000006964607   1020000200030000   333400010001204104000000281Myanmar Soft-Gate Tech Yangon        MMR11004070301103110930407000000000000000   10300001F05104100000000000206000000000000     
100   95050312498129060000000000000980000000000980002000000010410404071426085608484575820407000006969982   1020000200030000   333400010001204104000000281Myanmar Soft-Gate Tech Yangon        MMR11004071426085608480407000000000000000   10300001F05104100000000000206000000000000     
100   95050312240830690000000000004900000000004900002000000010410404070338580858566087800407000006964997   1020000200030000   333400010001204104000000281Myanmar Soft-Gate Tech Yangon        MMR11004070338580858560407000000000000000   10300001F05104100000000001029000000000000     
100   95050323233042810000000000000980000000000980002000000010410404070937490749883853680407000006968305   1020000200030000   333400010001204104000000281Myanmar Soft-Gate Tech Yangon        MMR11004070937490749880407000000000000000   10300001F05104100000000000206000000000000     
100   95030301100122420000000000250000000000250000002000000010410404070446371637604061000407000006965659   1030000200030000   333800010001203104000003327KBZPay                 Yangon        MMR11004070446371637600407000000000000000   10300001F05104100000000052500000000000000     
100   95050314557307430000000000002940000000002940002000000010410404071303043304559277980407000006969572   1020000200030000   333400010001204104000000281Myanmar Soft-Gate Tech Yangon        MMR11004071303043304550407000000000000000   10300001F05104100000000000617000000000000     
100   95050320360851930000000000002940000000002940002000000010410404070437280728585796850407000006965572   1020000200030000   333400010001204104000000281Myanmar Soft-Gate Tech Yangon        MMR11004070437280728580407000000000000000   10300001F05104100000000000617000000000000     
100   62911028202446700000000000112000000000112000002000000010410404070654542454114679600407000006966795   1030000500030000   333800010001201104000003863AYA Pay                Yangon        MMR11004070654542454110407000000000000000   10300001F05104100000000023520000000000000     
100   95050329613303740000000000030000000000030000002000000010410404070105453545683276490407000006963852   1030000200030000   333800010001203104000003327KBZPay                 Yangon        MMR11004070105453545680407000000000000000   10300001F05104100000000006300000000000000     
100   95050316717221100000000000000980000000000980002000000010410404070519264926205250620407000006965951   1020000200030000   333400010001204104000000281Myanmar Soft-Gate Tech Yangon        MMR11004070519264926200407000000000000000   10300001F05104100000000000206000000000000     
100   62911028202777790000000000015000000000015000002000000010410404070621115111024628400407000006966489   1030000200030000   333800010001203104000003327KBZPay                 Yangon        MMR11004070621115111020407000000000000000   10300001F05104100000000003150000000000000     
100   95030301954234130000000000040000000000040000002000000010410404070745391539344679600407000006967220   1030000200030000   333800010001203104000003327KBZPay                 Yangon        MMR11004070745391539340407000000000000000   10300001F05104100000000008400000000000000     
100   95050322715181550000000000012620000000012620002000000010410404061104320002374775630406209617000237   1030000500030000   531120155717000045311201557GAMONE PWINT           PTN           MMR11004061104320002370406000000000000000   10300001 00104100000000003029000000000000     
100   95030301100319860000000000070000000000070000002000000010410404051329260000904052100405209519000090   1030000500030000   481220082001012204812200820TAGON-2 MOBILE SHOP    PTN           MMR11004051329260000900405000000000000000   10300001 00104100000000004200000000000000     
100   62911028202151340000000000070000000000070000002000000010410404060820110002274052100406209614000227   1030000500030000   581220159201000015812201592GOLDEN DUCK (SAYAR SAN PTN           MMR11004060820110002270406000000000000000   10300001 00104100000000007140000000000000     
100   95050314767696390000000000007400000000007400002000000010410404060938460002784726190406209616000278   1030000500030000   531120155711000045311201557GAMONE PWINT           PTN           MMR11004060938460002780406000000000000000   10300001 00104100000000001776000000000000     
100   62911028202471860000000000010400000000010400002000000010410404060709030000914052100406209613000091   1030000500030000   591220014301014405912200143SHWE OHH PHARMACY      PTN           MMR11004060709030000910406000000000000000   10300001 00104100000000000624000000000000     
100   62911028202065470000000000005490000000005490002000000010410404061022490001754052100406209616000175   1030000500030000   531120155706000045311201557GAMONE PWINT           PTN           MMR11004061022490001750406000000000000000   10300001 00104100000000000329000000000000     
100   95050325113239290000000000014819000000014819002000000010410404060939140000472988610406209616000047   1030000500030000   581320000701000055813200007GOURMET STUDIO         PTN           MMR11004060939140000470406000000000000000   10300001 00104100000000006298000000000000     
100   62911028202821910000000000068000000000068000002000000010410404060352100002394052100406209610000239   1030000500030000   598320005201000015172200052MAX ENERGY             PTN           MMR11004060352100002390406000000000000000   10300001 00104100000000002040000000000000     
100   95050324773225760000000000050000000000050000002000000010410404070642241224721783540407000006966658   1030000200030000   333800010001203104000003327KBZPay                 Yangon        MMR11004070642241224720407000000000000000   10300001F05104100000000010500000000000000     
100   95050311077567400000000000003000000000003000002000000010410404071156372637496222590407000006969218   1030000900030000   333400010001202104000002022ACS                    Yangon        MMR11004071156372637490407000000000000000   10300001F05104100000000000630000000000000     
100   95030301100117720000000000200000000000200000002000000010410404070056382638842681100407000006963820   1030000200030000   333800010001203104000003327KBZPay                 Yangon        MMR11004070056382638840407000000000000000   10300001F05104100000000042000000000000000     
100   95050318646071770000000000001960000000001960002000000010410404070805053505205690150407000006967433   1020000200030000   333400010001204104000000281Myanmar Soft-Gate Tech Yangon        MMR11004070805053505200407000000000000000   10300001F05104100000000000412000000000000     
100   95050316377977350000000000005000000000005000002000000010410404071304323432004235430407000006969584   1040001600030000   333800010001220104000004507A +                    Yangon        MMR11004071304323432000407000000000000000   10300001F05104100000000001050000000000000     
100   95030313499565480000000000002000000000002000002000000010410404070814504450594679600407000006967533   1030000200030000   333800010001203104000003327KBZPay                 Yangon        MMR11004070814504450590407000000000000000   10300001F05104100000000000420000000000000     
100   62443100379116470000000000002940000000002940002000000010410404070900563056504413700407000006967987   1020000200030000   333400010001204104000000281Myanmar Soft-Gate Tech Yangon        MMR11004070900563056500407000000000000000   10300001F05104100000000000617000000000000     
100   95050319485395370000000000201000000000201000002000000010410404070659102910794663020407000006966839   1030000200030000   333800010001203104000003327KBZPay                 Yangon        MMR11004070659102910790407000000000000000   10300001F05104100000000042210000000000000     
100   62911028202400660000000000011500000000011500002000000010410404060836280002184052100406209615000218   1030000500030000   569120044601000015691200446AMERICAN BRANDED COLLE PTN           MMR11004060836280002180406000000000000000   10300001 00104100000000000690000000000000     
100   62911028202124950000000000079080000000079080002000000010410404061052380004084052100406209617000408   1030000500030000   806220172402013008062201724GRAND HANTHA HOSPITAL  PTN           MMR11004061052380004080406000000000000000   10300001 00104100000000004745000000000000     
100   62911028202471860000000000001950000000001950002000000010410404060711380000924052100406209613000092   1030000500030000   591220014301014405912200143SHWE OHH PHARMACY      PTN           MMR11004060711380000920406000000000000000   10300001 00104100000000000117000000000000     
100   95050314767696390000000000008865000000008865002000000010410404060924220003331165930406209615000333   1030000500030000   531120155707000045311201557GAMONE PWINT           PTN           MMR11004060924220003330406000000000000000   10300001 00104100000000002128000000000000     
100   95050322715181550000000000016023000000016023002000000010410404061120420003446257920406209617000344   1030000500030000   531120155710000045311201557GAMONE PWINT           PTN           MMR11004061120420003440406000000000000000   10300001 00104100000000003846000000000000     
100   95050326945666250000000000041050000000041050002000000010410404060959100004029258160406209616000402   1030000500030000   531120155804000045311201558GAMONE PWINT           PTN           MMR11004060959100004020406000000000000000   10300001 00104100000000009852000000000000     
100   62911028202150190000000000020500000000020500002000000010410404061058510005794052100406209617000579   1030000500030000   573220039601000065732200396REMAX                  PTN           MMR11004061058510005790406000000000000000   10300001 00104100000000001230000000000000     
100   95050329632900220000000000060000000000060000002000000010410404060230580019177148880406209609001917   1030000500030000   598320001303000015172200013MAX ENERGY             PTN           MMR11004060230580019170406000000000000000   10300001 00104100000000007200000000000000     
100   95050323233042810000000000115000000000115000002000000010410404070206543654550794910407000006964148   1030000200030000   333800010001203104000003327KBZPay                 Yangon        MMR11004070206543654550407000000000000000   10300001F05104100000000024150000000000000     
100   95050310750557450000000000007200000000007200002000000010410404070309564324162903580407209710432416   1040001600030000   591220000299000000010000287Shwe Ohh Pharmacy (Yan Yangon        MMR11004070309564324160407000000000000000   10300001F00104100000000001728000000000000     
100   62911028202154800000000000025000000000025000002000000010410404070927344516014679600407209716451601   1040001600030000   598320000830000000010000596Regency Petrol Station Ygn           MMR11004070927344516010407000000000000000   10300001F00104100000000000750000000000000     
100   95030301100157400000000000000980000000000980002000000010410404071025195519424679600407000006968655   1020000200030000   333400010001204104000000281Myanmar Soft-Gate Tech Yangon        MMR11004071025195519420407000000000000000   10300001F05104100000000000206000000000000     
100   95050313123223200000000000000980000000000980002000000010410404070325455545030059750407000006964859   1020000200030000   333400010001204104000000281Myanmar Soft-Gate Tech Yangon        MMR11004070325455545030407000000000000000   10300001F05104100000000000206000000000000     
100   95050312498129060000000000004900000000004900002000000010410404070644041404940045960407000006966680   1020000200030000   333400010001204104000000281Myanmar Soft-Gate Tech Yangon        MMR11004070644041404940407000000000000000   10300001F05104100000000001029000000000000     
100   95050326393773020000000000000980000000000980002000000010410404071353392339806653780407000006969797   1020000200030000   333400010001204104000000281Myanmar Soft-Gate Tech Yangon        MMR11004071353392339800407000000000000000   10300001F05104100000000000206000000000000     
100   95050320360851930000000000000980000000000980002000000010410404070900573057166151280407000006967991   1020000200030000   333400010001204104000000281Myanmar Soft-Gate Tech Yangon        MMR11004070900573057160407000000000000000   10300001F05104100000000000206000000000000     
100   62443100358839880000000000088000000000088000002000000010410404060237000006622702000406209609000662   1030000500030000   598320002702000015172200027MAX ENERGY             PTN           MMR11004060237000006620406000000000000000   10300001 00104100000000010560000000000000     
100   62911028202285900000000000040000000000040000002000000010410404060108270012644052100406209607001264   1030000500030000   598320001601000015172200016MAX ENERGY             PTN           MMR11004060108270012640406000000000000000   10300001 00104100000000001200000000000000     
100   95030301100127050000000000027100000000027100002000000010410404060829530018964052100406209614001896   1030000500030000   591220020501005105912200205MINGALAR PHARMACY      PTN           MMR11004060829530018960406000000000000000   10300001 00104100000000001626000000000000     
100   95050324622440820000000000010550000000010550002000000010410404060948110061080740450406209609006108   1030000600030000   549900002153315799420001502EASY MART- 003         YANGON        MMR11004060948110061080406000000000000000   10300001 00104100000000004484000000000000     
100   62911028202260320000000000025583000000025583002000000010410404060224520034994052100406209602003499   1030000600030000   581200002287315799420000141FUJI COFFEE HOUSE      YANGON        MMR11004060224520034990406000000000000000   10300001 00104100000000002610000000000000     
100   62911028202108460000000000050000000000050000002000000010410404060253310012284052100406209609001228   1030000500030000   598320001204000015172200012MAX ENERGY             PTN           MMR11004060253310012280406000000000000000   10300001 00104100000000001500000000000000     
100   62911028202196800000000000030000000000030000002000000010410404061032190014254052100406209617001425   1030000500030000   598320001603000015172200016MAX ENERGY             PTN           MMR11004061032190014250406000000000000000   10300001 00104100000000000900000000000000     
100   62911028202473840000000000033000000000033000002000000010410404060650540012894052100406209613001289   1030000500030000   598320001204000015172200012MAX ENERGY             PTN           MMR11004060650540012890406000000000000000   10300001 00104100000000000990000000000000     
100   95050311382087030000000000001960000000001960002000000010410404071121125112690414180407000006969018   1020000200030000   333400010001204104000000281Myanmar Soft-Gate Tech Yangon        MMR11004071121125112690407000000000000000   10300001F05104100000000000412000000000000     
100   95050312224678430000000000002940000000002940002000000010410404070445411541045541570407000006965647   1020000200030000   333400010001204104000000281Myanmar Soft-Gate Tech Yangon        MMR11004070445411541040407000000000000000   10300001F05104100000000000617000000000000     
100   95030301100354740000000000050000000000050000002000000010410404070051592159072653110407000006963811   1030000200030000   333800010001203104000003327KBZPay                 Yangon        MMR11004070051592159070407000000000000000   10300001F05104100000000010500000000000000     
100   95030301100316300000000000100000000000100000002000000010410404071115104510524679600407000006968980   1030000200030000   333800010001203104000003327KBZPay                 Yangon        MMR11004071115104510520407000000000000000   10300001F05104100000000021000000000000000     
100   95050311959900780000000000000980000000000980002000000010410404071218364836286228300407000006969337   1020000200030000   333400010001204104000000281Myanmar Soft-Gate Tech Yangon        MMR11004071218364836280407000000000000000   10300001F05104100000000000206000000000000     
100   95050312695033440000000000000980000000000980002000000010410404071055382538382151750407000006968858   1020000200030000   333400010001204104000000281Myanmar Soft-Gate Tech Yangon        MMR11004071055382538380407000000000000000   10300001F05104100000000000206000000000000     
100   95050312695033440000000000000980000000000980002000000010410404071105273527960243980407000006968918   1020000200030000   333400010001204104000000281Myanmar Soft-Gate Tech Yangon        MMR11004071105273527960407000000000000000   10300001F05104100000000000206000000000000     
100   95050319709462380000000000009000000000009000002000000010410404070308413841712478100407000006964685   1030000200030000   3338000100012031040000040022C2P (Myanmar) Co. Ltd Yangon        MMR11004070308413841710407000000000000000   10300001F05104100000000001890000000000000     
100   95050315743141220000000000025950000000025950002000000010410404060711080009600150490406209613000960   1030000500030000   591220014201014405912200142SHWE OHH PHARMACY      PTN           MMR11004060711080009600406000000000000000   10300001 00104100000000006228000000000000     
100   95030341448197210000000000071000000000071000002000000010410404060259010053824052100406209602005382   1030000600030000   554100000841315799420000373DENKO NYAUNG U         NYAUNG U      MMR11004060259010053820406000000000000000   10300001 00104100000000002130000000000000     
100   62911028202514440000000000030000000000030000002000000010410404060301070020544052100406209609002054   1030000500030000   598320001402000015172200014MAX ENERGY             PTN           MMR11004060301070020540406000000000000000   10300001 00104100000000000900000000000000     
100   62911028202448030000000000080000000000080000002000000010410404060406210012504052100406209610001250   1030000500030000   598320001204000015172200012MAX ENERGY             PTN           MMR11004060406210012500406000000000000000   10300001 00104100000000002400000000000000     
100   62911028202318750000000000057000000000057000002000000010410404060718060015814052100406209613001581   1030000500030000   598320002004000015172200020MAX ENERGY             PTN           MMR11004060718060015810406000000000000000   10300001 00104100000000001710000000000000     
100   62911028202537390000000000061000000000061000002000000010410404060550260019344052100406209612001934   1030000500030000   598320001003000015172200010MAX ENERGY             PTN           MMR11004060550260019340406000000000000000   10300001 00104100000000001830000000000000     
100   95030301100127050000000000077100000000077100002000000010410404060828110018954052100406209614001895   1030000500030000   591220020501005105912200205MINGALAR PHARMACY      PTN           MMR11004060828110018950406000000000000000   10300001 00104100000000004626000000000000     
100   95030308100042590000000000108000000000108000002000000010410404060942410007874052100406209616000787   1030000500030000   598320001701000015172200017MAX ENERGY             PTN           MMR11004060942410007870406000000000000000   10300001 00104100000000003240000000000000     
100   62443100325551180000000000004150000000004150002000000010410404070414164351818031220407209711435181   1040001600030000   591220000043000000010000041Mingalar Pharmacy      Yangon        MMR11004070414164351810407000000000000000   10300001F00104100000000000996000000000000     
100   62911028202448030000000000008700000000008700002000000010410404070910304507374679600407209716450737   1040001600030000   591220000287000000010000275Shwe Ohh Pharmacy (Wit Yangon        MMR11004070910304507370407000000000000000   10300001F00104100000000000522000000000000     
100   95030391376131630000000000010000000000010000002000000010410404071322495249894679600407000006969677   1030000200030000   333800010001203104000003327KBZPay                 Yangon        MMR11004071322495249890407000000000000000   10300001F05104100000000002100000000000000     
100   62443100379116470000000000033200000000033200002000000010410404070849111911026321470407000006967884   1030000200030000   333800010001203104000003327KBZPay                 Yangon        MMR11004070849111911020407000000000000000   10300001F05104100000000006972000000000000     
100   95050326393773020000000000002940000000002940002000000010410404071356442644941270850407000006969825   1020000200030000   333400010001204104000000281Myanmar Soft-Gate Tech Yangon        MMR11004071356442644940407000000000000000   10300001F05104100000000000617000000000000     
100   95050316949180000000000000002940000000002940002000000010410404070550552055425294350407000006966226   1020000200030000   333400010001204104000000281Myanmar Soft-Gate Tech Yangon        MMR11004070550552055420407000000000000000   10300001F05104100000000000617000000000000     
100   95050312695033440000000000000980000000000980002000000010410404071159372937096307690407000006969229   1020000200030000   333400010001204104000000281Myanmar Soft-Gate Tech Yangon        MMR11004071159372937090407000000000000000   10300001F05104100000000000206000000000000     
100   95050312947607030000000000032000000000032000002000000010410404070245431543962214000407000006964447   1030000200030000   333800010001203104000003327KBZPay                 Yangon        MMR11004070245431543960407000000000000000   10300001F05104100000000006720000000000000     
