100   62911028202528710000000000030000000000030000002000000010410404100107060017972752810410210007001797   1030000500030000   598320001603000015172200016MAX ENERGY             PTN           MMR11004100107060017970410000000000000000   10300001 00104100000000000900000000000000     
100   95050319902033540000000000014000000000014000002000000010410404100730120001128459320410210014000112   1030000500030000   569120035501016505691200355SOON FASHION SHOP      PTN           MMR11004100730120001120410000000000000000   10300001 00104100000000003360000000000000     
100   95050322222444890000000000023600000000023600002000000010410404100646060006819771410410000339536889   1030000300030000   531100000747000000000000408CB BANK                CAPITAL HYPER MMR11004100646060006810410000000000000000   10300001F00104100000000005664000000000000     
100   95050320531117320000000000063000000000063000002000000010410404101243440013049436740410210019001304   1030000500030000   598320002702000015172200027MAX ENERGY             PTN           MMR11004101243440013040410000000000000000   10300001 00104100000000007560000000000000     
100   62911028202313470000000000060000000000060000002000000010410404101110260019126372900410210017001912   1030000500030000   598320001604000015172200016MAX ENERGY             PTN           MMR11004101110260019120410000000000000000   10300001 00104100000000001800000000000000     
100   62911028202615340000000000006650000000006650002000000010410404101325180004776685900410210019000477   1030000500030000   541120182201000045411201822EASY MART-005          PTN           MMR11004101325180004770410000000000000000   10300001 00104100000000000399000000000000     
100   62911028202422290000000000400000000000400000002000000010410404100502240001073880110410210011000107   1030000500030000   481220068501000404812200685M-9 (KAMAYUT)          PTN           MMR11004100502240001070410000000000000000   10300001 00104100000000024000000000000000     
100   95050310357533060000000000019000000000019000002000000010410404100439190002691012210410210011000269   1030000500030000   569120069101008205691200691ESCORT                 PTN           MMR11004100439190002690410000000000000000   10300001 00104100000000004560000000000000     
100   62443101003317490000000000025000000000025000002000000010410404100031070025867075910410210007002586   1030000500030000   598320001404000015172200014MAX ENERGY             PTN           MMR11004100031070025860410000000000000000   10300001 00104100000000003000000000000000     
100   95050320624349010000000000021105000000021105002000000010410404101123030014745876490410210017001474   1030000500030000   531120156002000045311201560GAMONE PWINT           PTN           MMR11004101123030014740410000000000000000   10300001 00104100000000005065000000000000     
100   62911028202163480000000000115450000000115450002000000010410404100659220002454866500410210013000245   1030000500030000   541120129721000045411201297MAKRO MYANMAR          PTN           MMR11004100659220002450410000000000000000   10300001 00104100000000006927000000000000     
100   62443100379321630000000000042174000000042174002000000010410404101240210000981089230410210019000098   1030000500030000   581220199201000085812201992JO JO TERMINAL M       PTN           MMR11004101240210000980410000000000000000   10300001 00104100000000017924000000000000     
100   62911028202221220000000000010000000000010000002000000010410404092238560027851863800410210005002785   1030000500030000   598320001402000015172200014MAX ENERGY             PTN           MMR11004092238560027850410000000000000000   10300001 00104100000000000300000000000000     
100   95050322715181550000000000062000000000062000002000000010410404101302170045732826810410000339585819   1030000300030000   598300001210000000000000817CB BANK                SHWE TAUNG EN MMR11004101302170045730410000000000000000   10300001F00104100000000007440000000000000     
100   95030301100122420000000000057000000000057000002000000010410404100840280028465462910410000339551502   1030000300030000   806200000196000000000000097CB BANK                AUNG YADANA H MMR11004100840280028460410000000000000000   10300001F00104100000000003420000000000000     
100   62911028202231380000000000080000000000080000002000000010410404100752420029175186410410210014002917   1030000500030000   598320001402000015172200014MAX ENERGY             PTN           MMR11004100752420029170410000000000000000   10300001 00104100000000002400000000000000     
100   62443100300743690000000000071230000000071230002000000010410404100937446620376011030410210016662037   1040001600030000   541120000559000000010000465Ocean Shwe Gone Daing  Yangon        MMR11004100937446620370410000000000000000   10300001F00104100000000017808000000000000     
100   62911028202162640000000000030000000000030000002000000010410404100221266373883880110410210009637388   1040001600030000   598320000314000000010000302PT Power Petrol Statio Yangon        MMR11004100221266373880410000000000000000   10300001F00104100000000000900000000000000     
100   95050324444444460000000000069950000000069950002000000010410404100653406528853161480410210013652885   1040001600030000   581420000076000000010000074Hot Pot City Ahlone    Yangon        MMR11004100653406528850410000000000000000   10300001F00104100000000008394000000000000     
100   95030302100062270000000000244850000000244850002000000010410404101132516711263880110410210018671126   1040001600030000   581420000079000000010000075Spicy Hot Pot Saya San Yangon        MMR11004101132516711260410000000000000000   10300001F00104100000000007346000000000000     
100   62911028202207460000000000002950000000002950002000000010410404110743217693396685900411995131433100   1030000300030000   444410125393104519000021220Myanmar Bakery CoLtd                 MMR11004110743217693390411000000000000000   10300001 00104100000000000301000000000000     
100   62911028202616250000000000071100000000071100002000000010410404111012527719796685900411153471618100   1030000500030000   555610112983104519000011143Market Place by City M rt Sule       MMR11004111012527719790411000000000000000   10300001 00104100000000004266000000000000     
100   62911028202510550000000000027900000000027900002000000010410404110839097702666685900411106091541100   1030000300030000   555610103763104519000003639G and G Convenience St re 224        MMR11004110839097702660411000000000000000   10300001 00104100000000001674000000000000     
100   62443100333488440000000000051700000000051700002000000010410404101345426823869777130410210020682386   1040001600030000   581420000961000000010000708Imperial Garden (Sein  Yangon        MMR11004101345426823860410000000000000000   10300001F00104100000000006204000000000000     
100   95050318617855880000000000000980000000000980002000000010410404110437550755603655910411000006988448   1020000200030000   333400010001204104000000281Myanmar Soft-Gate Tech Yangon        MMR11004110437550755600411000000000000000   10300001F05104100000000000206000000000000     
100   95050319528093960000000000000980000000000980002000000010410404111338190819486083930411000006990463   1020000200030000   333400010001204104000000281Myanmar Soft-Gate Tech Yangon        MMR11004111338190819480411000000000000000   10300001F05104100000000000206000000000000     
100   62443100379321630000000000005800000000005800002000000010410404101137020000968926170410210018000096   1030000500030000   581220199201000085812201992JO JO TERMINAL M       PTN           MMR11004101137020000960410000000000000000   10300001 00104100000000002465000000000000     
100   95050327285327260000000000048085000000048085002000000010410404111128217734569564800411947581747100   1030000300030000   555610125778104519000021591One Stop Kitchen Super arket         MMR11004111128217734560411000000000000000   10300001 00104100000000012022000000000000     
100   62911028202615340000000000039200000000039200002000000010410404111132367735516685900411053021858100   1030000500030000   555610112234104519000010487Ocean Super Center St  ohn           MMR11004111132367735510411000000000000000   10300001 00104100000000002352000000000000     
100   95050317248519320000000000004000000000004000002000000010410404110651442144040728570411000006989062   1030000200030000   3338000100012031040000040022C2P (Myanmar) Co. Ltd Yangon        MMR11004110651442144040411000000000000000   10300001F05104100000000000840000000000000     
100   62911028202142850000000000015150000000015150002000000010410404100437220007113880110410210011000711   1030000500030000   541120020701022205411200207ORANGE (YDG)           PTN           MMR11004100437220007110410000000000000000   10300001 00104100000000000909000000000000     
100   62911028202197550000000000071000000000071000002000000010410404110128000677996685900411099580700100   1030000900030000   554119000344190110000000211New Day Energy SCH     YANGONUNG     MMR11004110128000677990411000000000000000   10300001F00104100000000002130000000000000     
100   62911028202462950000000000022400000000022400002000000010410404110939017712956685900411311091647100   1030000300030000   444410119860104519000016878Urban Kitchen                        MMR11004110939017712950411000000000000000   10300001 00104100000000002285000000000000     
100   62911028202212230000000000004200000000004200002000000010410404111020570086706685900411000745542811   1030000200030000   541188001023000008000000298KBZ BANK               CITY MART - M MMR11004111020570086700411000000000000000   10300001 00104100000000000252000000000000     
100   62911028202248880000000000123400000000123400002000000010410404110353360708756685900411172231036100   1030000900030000   591219000503190110000000350Shwe Ohh Pharmacy (WZD YANGONNGKUUN  MMR11004110353360708750411000000000000000   10300001F00104100000000007404000000000000     
100   95050313168701670000000000001960000000001960002000000010410404102321485148583677780411000006987455   1020000200030000   333400010001204104000000281Myanmar Soft-Gate Tech Yangon        MMR11004102321485148580411000000000000000   10300001F05104100000000000412000000000000     
100   95050312498129060000000000000980000000000980002000000010410404110314054405589052630411000006988023   1020000200030000   333400010001204104000000281Myanmar Soft-Gate Tech Yangon        MMR11004110314054405580411000000000000000   10300001F05104100000000000206000000000000     
100   95030301100121680000000000050000000000050000002000000010410404111526325632466685900411000006990779   1030000200030000   333800010001203104000003327KBZPay                 Yangon        MMR11004111526325632460411000000000000000   10300001F05104100000000010500000000000000     
100   62911028202154720000000000054000000000054000002000000010410404110616437182876685900411210113718287   1040001600030000   598320000658000000010000527Shwe Taung Energy (YGN Yangon        MMR11004110616437182870411000000000000000   10300001F00104100000000001620000000000000     
100   95050312728902740000000000008900000000008900002000000010410404111643270323617352300411000745560366   1030000200030000   541188001024000008000000298KBZ BANK               CITY MART - M MMR11004111643270323610411000000000000000   10300001 00104100000000002225000000000000     
100   95050311121153200000000000001960000000001960002000000010410404110151332133944125120411000006987672   1020000200030000   333400010001204104000000281Myanmar Soft-Gate Tech Yangon        MMR11004110151332133940411000000000000000   10300001F05104100000000000412000000000000     
100   95050317100052460000000000004900000000004900002000000010410404110642541254209671770411000006989011   1020000200030000   333400010001204104000000281Myanmar Soft-Gate Tech Yangon        MMR11004110642541254200411000000000000000   10300001F05104100000000001029000000000000     
100   95050322295410690000000000033474000000033474002000000010410404111641100257187862880411000745560260   1030000200030000   541188001042000008000000010KBZ BANK               MARKETPLACE - MMR11004111641100257180411000000000000000   10300001 00104100000000008369000000000000     
100   62911028202808150000000000029350000000029350002000000010410404100339340001453880110410210010000145   1030000500030000   581220197901000015812201979CANTON PARADISE (SYS)  PTN           MMR11004100339340001450410000000000000000   10300001 00104100000000002994000000000000     
100   95050322155898660000000000040850000000040850002000000010410404101225570010434394200410210018001043   1030000500030000   541120020801022205411200208ORANGE (TAMWE)         PTN           MMR11004101225570010430410000000000000000   10300001 00104100000000010213000000000000     
100   62911028202910770000000000011200000000011200002000000010410404110430117661086685900411223011136100   1030000500030000   555610104032104519000003821City Mart North Point  enter         MMR11004110430117661080411000000000000000   10300001 00104100000000000672000000000000     
100   95050323722449090000000000004409000000004409002000000010410404110531000100530471690411000006988709   1020000200030000   333400010001204104000000281Myanmar Soft-Gate Tech Yangon        MMR11004110531000100530411000000000000000   10300001F05104100000000000926000000000000     
100   62911028202243420000000000029513000000029513002000000010410404110549560741106685900411948191256100   1030000900030000   541119001262190110000000958City Mart PLST C 5     YANGONMYOTHIT MMR11004110549560741100411000000000000000   10300001F00104100000000001771000000000000     
100   95050315005801680000000000002940000000002940002000000010410404110417534753766024820411000006988346   1020000200030000   333400010001204104000000281Myanmar Soft-Gate Tech Yangon        MMR11004110417534753760411000000000000000   10300001F05104100000000000617000000000000     
100   95030301100122750000000000032550000000032550002000000010410404110700110759876685900411905301311100   1030000900030000   541119001111190110000000872Sein Gay Har Hledan    YANGONUT      MMR11004110700110759870411000000000000000   10300001F00104100000000001953000000000000     
100   95050311382087030000000000003920000000003920002000000010410404110432390239576960870411000006988427   1020000200030000   333400010001204104000000281Myanmar Soft-Gate Tech Yangon        MMR11004110432390239570411000000000000000   10300001F05104100000000000823000000000000     
100   62911028202593140000000000043150000000043150002000000010410404111543490206926685900411000745557438   1030000200030000   541188001003000008000000008KBZ BANK               MARKETPLACE - MMR11004111543490206920411000000000000000   10300001 00104100000000002589000000000000     
100   95050326590859670000000000009900000000009900002000000010410404110719170765012210870411170491317100   1030000900030000   581419001553190110000001127Yakun and Titus Tamwe  YANGON        MMR11004110719170765010411000000000000000   10300001F00104100000000001188000000000000     
100   62911028202610540000000000005850000000005850002000000010410404110714020763526685900411090441302100   1030000900030000   541119000112190110000000077Sein Gay Har Chinatown YANGON        MMR11004110714020763520411000000000000000   10300001F00104100000000000351000000000000     
100   95050312940629360000000000002940000000002940002000000010410404110035240524735827050411000006987522   1020000200030000   333400010001204104000000281Myanmar Soft-Gate Tech Yangon        MMR11004110035240524730411000000000000000   10300001F05104100000000000617000000000000     
100   62911028202296630000000000070000000000070000002000000010410404110047390671836685900411023170739100   1030000900030000   554119000348190110000000215New Day Energy MYG     YANGONONE     MMR11004110047390671830411000000000000000   10300001F00104100000000002100000000000000     
100   95050316421999920000000000002940000000002940002000000010410404110837150715933742600411000006989473   1020000200030000   333400010001204104000000281Myanmar Soft-Gate Tech Yangon        MMR11004110837150715930411000000000000000   10300001F05104100000000000617000000000000     
100   95050316717221100000000000020400000000020400002000000010410404110418040715218358070411528481004100   1030000900030000   541119000117190110000000078Sein Gay Har Kan Thar  YANGONOKKALAP MMR11004110418040715210411000000000000000   10300001F00104100000000005100000000000000     
100   62911028202150190000000000008050000000008050002000000010410404110512357668416685900411056441138100   1030000500030000   555610110572104519000009164City Mart China Town P int Cen       MMR11004110512357668410411000000000000000   10300001 00104100000000000483000000000000     
100   62911028202807400000000000150000000000150000002000000010410404111113217731506685900411575431736100   1030000300030000   555510124358104519000020166Makro Myanmar                        MMR11004111113217731500411000000000000000   10300001 00104100000000009000000000000000     
100   95050318769713630000000000016200000000016200002000000010410404111219497744357401740411102491854100   1030000500030000   555610112982104519000011143Market Place by City M rt Sule       MMR11004111219497744350411000000000000000   10300001 00104100000000004050000000000000     
100   95030393174848800000000000004800000000004800002000000010410404110442227663056685900411452121143100   1030000500030000   555610110569104519000009163City Mart Ayeyarwon Br nch           MMR11004110442227663050411000000000000000   10300001 00104100000000000288000000000000     
100   95050324444444460000000000020000000000020000002000000010410404090601380002078651370409209912000207   1030000500030000   581220114301008505812201143GOLDEN DUCK (KAN TAW M PTN           MMR11004090601380002070409000000000000000   10300001 00104100000000008500000000000000     
100   95050322220807920000000000059750000000059750002000000010410404100603200000517962530410210012000051   1030000500030000   569120096501000015691200965VKK FASHION            PTN           MMR11004100603200000510410000000000000000   10300001 00104100000000014340000000000000     
100   95050318631979070000000000038650000000038650002000000010410404100609440001292919980410000339532252   1030000300030000   531100000539000000000000376CB BANK                CAPITAL HYPER MMR11004100609440001290410000000000000000   10300001F00104100000000009276000000000000     
100   62443100302386910000000000052110000000052110002000000010410404101021510001656606700410210016000165   1030000500030000   531120155705000045311201557GAMONE PWINT           PTN           MMR11004101021510001650410000000000000000   10300001 00104100000000012506000000000000     
100   62911028202204490000000000013500000000013500002000000010410404110357150709576685900411216271015100   1030000900030000   581219000715190110000000546Akkhaya Tea House(Dago YANGON        MMR11004110357150709570411000000000000000   10300001F00104100000000001377000000000000     
100   62911028202610540000000000053200000000053200002000000010410404110701330760186685900411917311333100   1030000900030000   541119000113190110000000077Sein Gay Har Chinatown YANGON        MMR11004110701330760180411000000000000000   10300001F00104100000000003192000000000000     
100   95050311419479170000000000000980000000000980002000000010410404110237130713336549190411000006987827   1020000200030000   333400010001204104000000281Myanmar Soft-Gate Tech Yangon        MMR11004110237130713330411000000000000000   10300001F05104100000000000206000000000000     
100   62911028202222620000000000018000000000018000002000000010410404110816130781046685900411019461413100   1030000900030000   541119000113190110000000077Sein Gay Har Chinatown YANGON        MMR11004110816130781040411000000000000000   10300001F00104100000000001080000000000000     
100   95050314557307430000000000007840000000007840002000000010410404111235390539134011680411000006990248   1020000200030000   333400010001204104000000281Myanmar Soft-Gate Tech Yangon        MMR11004111235390539130411000000000000000   10300001F05104100000000001646000000000000     
100   95050312675873230000000000004900000000004900002000000010410404111438170817037736410411000006990633   1020000200030000   333400010001204104000000281Myanmar Soft-Gate Tech Yangon        MMR11004111438170817030411000000000000000   10300001F05104100000000001029000000000000     
100   95050310299956570000000000011950000000011950002000000010410404110337330704427982040411941071033100   1030000900030000   541119001358190110000000977Ocean PZD C 12         YANGONAUNG    MMR11004110337330704420411000000000000000   10300001F00104100000000002988000000000000     
100   95030358967724300000000000008650000000008650002000000010410404110411500713426685900411422411050100   1030000900030000   541119001275190110000000962Myanmar Fresh Mart     YANGONNGKUUN  MMR11004110411500713420411000000000000000   10300001F00104100000000000519000000000000     
100   62911028202197630000000000012550000000012550002000000010410404100455420003454124410410210011000345   1030000500030000   541120024704022205411200247ORANGE (SHWE PYI THAR) PTN           MMR11004100455420003450410000000000000000   10300001 00104100000000000753000000000000     
100   95030306100081790000000000024000000000024000002000000010410404100424060006133880110410210010000613   1030000500030000   806220022601000018062200226DR.Z                   PTN           MMR11004100424060006130410000000000000000   10300001 00104100000000001440000000000000     
100   62911028202676220000000000033500000000033500002000000010410404100712170010574944000410210013001057   1030000500030000   806220195401000018062201954PIN LON HOSPITAL       PTN           MMR11004100712170010570410000000000000000   10300001 00104100000000002010000000000000     
100   95030301100155910000000000126000000000126000002000000010410404100841450003065480710410210015000306   1030000500030000   569120091201000015691200912GIORDANO               PTN           MMR11004100841450003060410000000000000000   10300001 00104100000000007560000000000000     
100   95050328074436620000000000043000000000043000002000000010410404100618290003344899060410000339533377   1030000300030000   598300001213000000000000820CB BANK                SHWE TAUNG EN MMR11004100618290003340410000000000000000   10300001F00104100000000005160000000000000     
100   62911028202615340000000000001500000000001500002000000010410404100758510004623880110410210014000462   1030000500030000   541120182201000045411201822EASY MART-005          PTN           MMR11004100758510004620410000000000000000   10300001 00104100000000000090000000000000     
100   95050322715181550000000000033606000000033606002000000010410404101223120015031004130410210018001503   1030000500030000   531120156002000045311201560GAMONE PWINT           PTN           MMR11004101223120015030410000000000000000   10300001 00104100000000008066000000000000     
100   62443100333488440000000000024833000000024833002000000010410404100218010002429238970410210008000242   1030000500030000   581220041201003105812200412SHAN YOE YAR RESTAURAN PTN           MMR11004100218010002420410000000000000000   10300001 00104100000000010554000000000000     
100   62911028202154720000000000037190000000037190002000000010410404110648220756646685900411731181322100   1030000900030000   541119000126190110000000082Sein Gay Har Super Cen YANGON        MMR11004110648220756640411000000000000000   10300001F00104100000000002231000000000000     
100   95030301100124990000000000007600000000007600002000000010410404111046540829466685900411928161754100   1030000900030000   541119001162190110000000930OCEAN HTY C 12         YANGONTHARYA  MMR11004111046540829460411000000000000000   10300001F00104100000000000456000000000000     
100   95050316717221100000000000006750000000006750002000000010410404110427470718147301260411698571047100   1030000900030000   541119000115190110000000078Sein Gay Har Kan Thar  YANGONOKKALAP MMR11004110427470718140411000000000000000   10300001F00104100000000001688000000000000     
100   95030301100124990000000000054000000000054000002000000010410404111017530818346685900411197471653100   1030000900030000   569119001501190110000001095Next Generation GCS HT YANGONTHARYA  MMR11004111017530818340411000000000000000   10300001F00104100000000003240000000000000     
100   62911028202198620000000000066000000000066000002000000010410404110929120803066685900411267591512100   1030000900030000   554119000345190110000000212New Day Energy PZD     YANGONAUNG    MMR11004110929120803060411000000000000000   10300001F00104100000000001980000000000000     
100   62911028202417260000000000068150000000068150002000000010410404111246100298106685900411000745549256   1030000200030000   541188001041000008000000010KBZ BANK               MARKETPLACE - MMR11004111246100298100411000000000000000   10300001 00104100000000004089000000000000     
100   62911028202133520000000000013700000000013700002000000010410404111210260858776685900411746401826100   1030000900030000   541119001191190110000000942City Mart HDC C 6      YANGONUT      MMR11004111210260858770411000000000000000   10300001F00104100000000000822000000000000     
100   95050312498129060000000000004900000000004900002000000010410404110348251825056584840411000006988193   1020000200030000   333400010001204104000000281Myanmar Soft-Gate Tech Yangon        MMR11004110348251825050411000000000000000   10300001F05104100000000001029000000000000     
100   62911028202331290000000000030500000000030500002000000010410404100841120005673880110410210015000567   1030000500030000   531120155804000045311201558GAMONE PWINT           PTN           MMR11004100841120005670410000000000000000   10300001 00104100000000001830000000000000     
100   62911028202448030000000000026950000000026950002000000010410404101329520008537209500410210019000853   1030000500030000   581220146401013205812201464THAI 47 (HELPIN BRANCH PTN           MMR11004101329520008530410000000000000000   10300001 00104100000000002749000000000000     
100   95050319216089110000000000010000000000010000002000000010410404100504370003127537050410000339523844   1030000300030000   581200000787000000000000536CB BANK                FOOD STREAT   MMR11004100504370003120410000000000000000   10300001F00104100000000004250000000000000     
100   62443100313529540000000000011080000000011080002000000010410404100357210003883296020410210010000388   1030000500030000   531120155905000045311201559GAMONE PWINT           PTN           MMR11004100357210003880410000000000000000   10300001 00104100000000002659000000000000     
100   62911028202523350000000000052700000000052700002000000010410404100838510020183880110410210015002018   1030000500030000   598320002102000015172200021MAX ENERGY             PTN           MMR11004100838510020180410000000000000000   10300001 00104100000000001581000000000000     
100   62911028202418410000000000026150000000026150002000000010410404100433070004483880110410210011000448   1030000500030000   531120155710000045311201557GAMONE PWINT           PTN           MMR11004100433070004480410000000000000000   10300001 00104100000000001569000000000000     
100   95030301100119390000000000014700000000014700002000000010410404101147190001113880110410210018000111   1030000500030000   581220204101000085812202041MIN LAN                PTN           MMR11004101147190001110410000000000000000   10300001 00104100000000001499000000000000     
100   62911028202142100000000000023800000000023800002000000010410404100921470006585721010410210015000658   1030000500030000   531120156005000045311201560GAMONE PWINT           PTN           MMR11004100921470006580410000000000000000   10300001 00104100000000001428000000000000     
100   95050326590859670000000000038900000000038900002000000010410404110843517260002345410411210115726000   1040001600030000   541120000584000000010000465Ocean Shwe Gone Daing  Yangon        MMR11004110843517260000411000000000000000   10300001F00104100000000009725000000000000     
100   62911028202318750000000000004700000000004700002000000010410404110424067659906685900411090541038100   1030000500030000   555610112532104519000010487Ocean Super Center St  ohn           MMR11004110424067659900411000000000000000   10300001 00104100000000000282000000000000     
100   95050319502933380000000000000980000000000980002000000010410404111506573657217651320411000006990711   1020000200030000   333400010001204104000000281Myanmar Soft-Gate Tech Yangon        MMR11004111506573657210411000000000000000   10300001F05104100000000000206000000000000     
100   95050312139901420000000000001000000000001000002000000010410404110907423742988884030411000006989585   1030000200030000   3334000100012031040000040102C2P (Myanmar) Co. Ltd Yangon        MMR11004110907423742980411000000000000000   10300001F05104100000000000210000000000000     
100   95050314064416890000000000002940000000002940002000000010410404110255242524487059760411000006987927   1020000200030000   333400010001204104000000281Myanmar Soft-Gate Tech Yangon        MMR11004110255242524480411000000000000000   10300001F05104100000000000617000000000000     
100   95050312498129060000000000000980000000000980002000000010410404110927035703115068490411000006989649   1020000200030000   333400010001204104000000281Myanmar Soft-Gate Tech Yangon        MMR11004110927035703110411000000000000000   10300001F05104100000000000206000000000000     
100   62911028202136750000000000150000000000150000002000000010410404110254147648576685900411859250934100   1030000300030000   555510124694104519000020166Makro Myanmar                        MMR11004110254147648570411000000000000000   10300001 00104100000000009000000000000000     
100   62911028202910770000000000070000000000070000002000000010410404110430027661016685900411215011102100   1030000500030000   555610104032104519000003821City Mart North Point  enter         MMR11004110430027661010411000000000000000   10300001 00104100000000004200000000000000     
100   95050321057500320000000000004900000000004900002000000010410404111022275227638834590411000006989846   1020000200030000   333400010001204104000000281Myanmar Soft-Gate Tech Yangon        MMR11004111022275227630411000000000000000   10300001F05104100000000001029000000000000     
100   62911028202446700000000000010000000000010000002000000010410404110925345534176685900411000006989645   1030000500030000   333800010001201104000003863AYA Pay                Yangon        MMR11004110925345534170411000000000000000   10300001F05104100000000002100000000000000     
100   62911028202531350000000000030000000000030000002000000010410404110638537195876685900411210113719587   1040001600030000   598320000838000000010000600Regency Petrol Station Ygn           MMR11004110638537195870411000000000000000   10300001F00104100000000000900000000000000     
100   95050318964967630000000000001960000000001960002000000010410404110354102410688918090411000006988214   1020000200030000   333400010001204104000000281Myanmar Soft-Gate Tech Yangon        MMR11004110354102410680411000000000000000   10300001F05104100000000000412000000000000     
100   95030301100332300000000000042000000000042000002000000010410404110359442944876685900411000006988245   1030000200030000   333800010001203104000003327KBZPay                 Yangon        MMR11004110359442944870411000000000000000   10300001F05104100000000008820000000000000     
100   62911028202449440000000000016000000000016000002000000010410404110326497087746685900411210110708774   1040001600030000   598320000316000000010000304PT Power Petrol Statio Yangon        MMR11004110326497087740411000000000000000   10300001F00104100000000000480000000000000     
100   62911028202472440000000000026000000000026000002000000010410404110732207224386685900411210114722438   1040001600030000   598320000658000000010000527Shwe Taung Energy (YGN Yangon        MMR11004110732207224380411000000000000000   10300001F00104100000000000780000000000000     
100   62911028202136750000000000036000000000036000002000000010410404111042387337856685900411210117733785   1040001600030000   591220000276000000010000264Shwe Ohh Pharmacy (YGH Yangon        MMR11004111042387337850411000000000000000   10300001F00104100000000002160000000000000     
100   62911028202728380000000000017000000000017000002000000010410404110330497652286685900411259011001100   1030000500030000   555610118969104519000016137City Mart South Okkala WZYD BR       MMR11004110330497652280411000000000000000   10300001 00104100000000001020000000000000     
100   95050312210363590000000000025000000000025000002000000010410404110711024102586998120411000006989170   1030000200030000   333800010001203104000003327KBZPay                 Yangon        MMR11004110711024102580411000000000000000   10300001F05104100000000005250000000000000     
100   95050326426352250000000000050000000000050000002000000010410404110805323532884593570411000006989369   1030000200030000   333800010001203104000003327KBZPay                 Yangon        MMR11004110805323532880411000000000000000   10300001F05104100000000010500000000000000     
100   62443100330108240000000000001960000000001960002000000010410404110855352535850607820411000006989532   1020000200030000   333400010001204104000000281Myanmar Soft-Gate Tech Yangon        MMR11004110855352535850411000000000000000   10300001F05104100000000000412000000000000     
100   95050320360851930000000000002940000000002940002000000010410404110351562156435017450411000006988208   1020000200030000   333400010001204104000000281Myanmar Soft-Gate Tech Yangon        MMR11004110351562156430411000000000000000   10300001F05104100000000000617000000000000     
100   62443100355903280000000000003000000000003000002000000010410404110403493349104556320411000006988277   1030000200030000   3334000100012031040000040102C2P (Myanmar) Co. Ltd Yangon        MMR11004110403493349100411000000000000000   10300001F05104100000000000630000000000000     
100   95050317338786370000000000003000000000003000002000000010410404111507513751659303800411000006990721   1030000200030000   3334000100012031040000040102C2P (Myanmar) Co. Ltd Yangon        MMR11004111507513751650411000000000000000   10300001F05104100000000000630000000000000     
100   95050314950595330000000000007000000000007000002000000010410404110656262626212721440411000006989080   1030000200030000   3338000100012031040000040022C2P (Myanmar) Co. Ltd Yangon        MMR11004110656262626210411000000000000000   10300001F05104100000000001470000000000000     
100   95050312498129060000000000000980000000000980002000000010410404110928165816896635870411000006989659   1020000200030000   333400010001204104000000281Myanmar Soft-Gate Tech Yangon        MMR11004110928165816890411000000000000000   10300001F05104100000000000206000000000000     
100   62911028202158290000000000013550000000013550002000000010410404110334357652746685900411310051000100   1030000500030000   555610114572104519000012532City Mart Ahlone Branc               MMR11004110334357652740411000000000000000   10300001 00104100000000000813000000000000     
100   95050319928585020000000000002940000000002940002000000010410404110845341534493997890411000006989499   1020000200030000   333400010001204104000000281Myanmar Soft-Gate Tech Yangon        MMR11004110845341534490411000000000000000   10300001F05104100000000000617000000000000     
100   95050319156011610000000000000980000000000980002000000010410404111259522952376004540411000006990321   1020000200030000   333400010001204104000000281Myanmar Soft-Gate Tech Yangon        MMR11004111259522952370411000000000000000   10300001F05104100000000000206000000000000     
100   95050322295410690000000000027000000000027000002000000010410404110830457253388870240411210115725338   1040001600030000   569120000925000000010000672Generation Concept Sto Ygn           MMR11004110830457253380411000000000000000   10300001F00104100000000006480000000000000     
100   62443100343312450000000000047650000000047650002000000010410404110243127647331676830411724130910100   1030000500030000   555610123193104519000019444Neighbourhood Shwe Moe Kaung         MMR11004110243127647330411000000000000000   10300001 00104100000000011913000000000000     
100   62443100358839880000000000032000000000032000002000000010410404110427167660485478580411158581000100   1030000300030000   444410118915104519000016097SP Bakery Yangon SR 1                MMR11004110427167660480411000000000000000   10300001 00104100000000013600000000000000     
100   62911028202142100000000000090000000000090000002000000010410404111338490849676685900411000006990464   1030000200030000   333800010001203104000003327KBZPay                 Yangon        MMR11004111338490849670411000000000000000   10300001F05104100000000018900000000000000     
100   95050312498129060000000000001960000000001960002000000010410404110311034103913924990411000006988001   1020000200030000   333400010001204104000000281Myanmar Soft-Gate Tech Yangon        MMR11004110311034103910411000000000000000   10300001F05104100000000000412000000000000     
100   95050316043499650000000000050000000000050000002000000010410404111029505950545870010411000006989864   1030000200030000   333800010001203104000003327KBZPay                 Yangon        MMR11004111029505950540411000000000000000   10300001F05104100000000010500000000000000     
100   95050311382087030000000000004900000000004900002000000010410404111529575957175998830411000006990790   1020000200030000   333400010001204104000000281Myanmar Soft-Gate Tech Yangon        MMR11004111529575957170411000000000000000   10300001F05104100000000001029000000000000     
100   62911028202660950000000000020000000000020000002000000010410404110716154615906685900411000006989194   1030000200030000   333800010001203104000003327KBZPay                 Yangon        MMR11004110716154615900411000000000000000   10300001F05104100000000004200000000000000     
100   95050310305109410000000000000980000000000980002000000010410404110618594859655139800411000006988914   1020000200030000   333400010001204104000000281Myanmar Soft-Gate Tech Yangon        MMR11004110618594859650411000000000000000   10300001F05104100000000000206000000000000     
100   95030301100120280000000000300000000000300000002000000010410404110314394439006685900411000006988029   1030000200030000   333800010001203104000003327KBZPay                 Yangon        MMR11004110314394439000411000000000000000   10300001F05104100000000063000000000000000     
100   95050313702988830000000000002940000000002940002000000010410404111152412241258082510411000006990109   1020000200030000   333400010001204104000000281Myanmar Soft-Gate Tech Yangon        MMR11004111152412241250411000000000000000   10300001F05104100000000000617000000000000     
100   95050311926829590000000000000980000000000980002000000010410404110854202420818955340411000006989524   1020000200030000   333400010001204104000000281Myanmar Soft-Gate Tech Yangon        MMR11004110854202420810411000000000000000   10300001F05104100000000000206000000000000     
100   95050312498129060000000000000980000000000980002000000010410404111410344034532693860411000006990559   1020000200030000   333400010001204104000000281Myanmar Soft-Gate Tech Yangon        MMR11004111410344034530411000000000000000   10300001F05104100000000000206000000000000     
100   95050311077567400000000000002940000000002940002000000010410404111400543054031041380411000006990532   1020000200030000   333400010001204104000000281Myanmar Soft-Gate Tech Yangon        MMR11004111400543054030411000000000000000   10300001F05104100000000000617000000000000     
100   95050312781844250000000000005000000000005000002000000010410404111121125112484607350411000006990016   1030000200030000   333800010001203104000003327KBZPay                 Yangon        MMR11004111121125112480411000000000000000   10300001F05104100000000001050000000000000     
100   95050318601641810000000000000980000000000980002000000010410404110645501550039161180411000006989029   1020000200030000   333400010001204104000000281Myanmar Soft-Gate Tech Yangon        MMR11004110645501550030411000000000000000   10300001F05104100000000000206000000000000     
100   95050315615561720000000000001960000000001960002000000010410404110244111411549683960411000006987864   1020000200030000   333400010001204104000000281Myanmar Soft-Gate Tech Yangon        MMR11004110244111411540411000000000000000   10300001F05104100000000000412000000000000     
100   95050319156011610000000000000980000000000980002000000010410404111305533553964352060411000006990349   1020000200030000   333400010001204104000000281Myanmar Soft-Gate Tech Yangon        MMR11004111305533553960411000000000000000   10300001F05104100000000000206000000000000     
100   62911028202318750000000000050000000000050000002000000010410404110407307106536685900411210111710653   1040001600030000   598320000658000000010000527Shwe Taung Energy (YGN Yangon        MMR11004110407307106530411000000000000000   10300001F00104100000000001500000000000000     
100   95050324154190880000000000065675000000065675002000000010410404110511297140689961110411210112714068   1040001600030000   541120000553000000010000465Ocean Shwe Gone Daing  Yangon        MMR11004110511297140680411000000000000000   10300001F00104100000000016419000000000000     
100   62911028202318750000000000099200000000099200002000000010410404110806187240566685900411210115724056   1040001600030000   591220000262000000010000250Shwe Ohh Pharmacy (SC- Yangon        MMR11004110806187240560411000000000000000   10300001F00104100000000005952000000000000     
100   95050322990383760000000000059950000000059950002000000010410404111045067339815373220411210117733981   1040001600030000   591220000276000000010000264Shwe Ohh Pharmacy (YGH Yangon        MMR11004111045067339810411000000000000000   10300001F00104100000000014388000000000000     
100   95050315743141220000000000000980000000000980002000000010410404110310544054582187410411000006988000   1020000200030000   333400010001204104000000281Myanmar Soft-Gate Tech Yangon        MMR11004110310544054580411000000000000000   10300001F05104100000000000206000000000000     
100   95050319144542320000000000300000000000300000002000000010410404111017344734243962230411000006989823   1030000200030000   333800010001203104000003327KBZPay                 Yangon        MMR11004111017344734240411000000000000000   10300001F05104100000000063000000000000000     
100   62443100330105920000000000033800000000033800002000000010410404110226247646271756210411573560843100   1030000300030000   555510124690104519000020166Makro Myanmar                        MMR11004110226247646270411000000000000000   10300001 00104100000000008112000000000000     
100   62443100333488440000000000039500000000039500002000000010410404110430257660877216160411203001124100   1030000300030000   555510124365104519000020166Makro Myanmar                        MMR11004110430257660870411000000000000000   10300001 00104100000000009480000000000000     
100   95050315743141220000000000000980000000000980002000000010410404111547381738071381760411000006990827   1020000200030000   333400010001204104000000281Myanmar Soft-Gate Tech Yangon        MMR11004111547381738070411000000000000000   10300001F05104100000000000206000000000000     
100   95050312498129060000000000000980000000000980002000000010410404110847391739372260310411000006989508   1020000200030000   333400010001204104000000281Myanmar Soft-Gate Tech Yangon        MMR11004110847391739370411000000000000000   10300001F05104100000000000206000000000000     
100   95050319928585020000000000001960000000001960002000000010410404110843381338847302850411000006989493   1020000200030000   333400010001204104000000281Myanmar Soft-Gate Tech Yangon        MMR11004110843381338840411000000000000000   10300001F05104100000000000412000000000000     
100   95050325455962190000000000000980000000000980002000000010410404110211244124039678240411000006987740   1020000200030000   333400010001204104000000281Myanmar Soft-Gate Tech Yangon        MMR11004110211244124030411000000000000000   10300001F05104100000000000206000000000000     
100   95050317248519320000000000020000000000020000002000000010410404110027355735154429850411000006987511   1030000200030000   3338000100012031040000040022C2P (Myanmar) Co. Ltd Yangon        MMR11004110027355735150411000000000000000   10300001F05104100000000004200000000000000     
100   95050317465574180000000000010000000000010000002000000010410404110714104410505260540411000006989183   1030000200030000   333800010001203104000003327KBZPay                 Yangon        MMR11004110714104410500411000000000000000   10300001F05104100000000002100000000000000     
100   95050310305109410000000000000980000000000980002000000010410404110616344634355224890411000006988907   1020000200030000   333400010001204104000000281Myanmar Soft-Gate Tech Yangon        MMR11004110616344634350411000000000000000   10300001F05104100000000000206000000000000     
100   95050319938772870000000000000980000000000980002000000010410404111448171817689388900411000006990652   1020000200030000   333400010001204104000000281Myanmar Soft-Gate Tech Yangon        MMR11004111448171817680411000000000000000   10300001F05104100000000000206000000000000     
100   95030301100102610000000000020000000000020000002000000010410404110311274127726685900411000006988002   1030000200030000   333800010001203104000003327KBZPay                 Yangon        MMR11004110311274127720411000000000000000   10300001F05104100000000004200000000000000     
100   95050312498129060000000000002940000000002940002000000010410404111302263226457657030411000006990331   1020000200030000   333400010001204104000000281Myanmar Soft-Gate Tech Yangon        MMR11004111302263226450411000000000000000   10300001F05104100000000000617000000000000     
100   62911028202446700000000000020000000000020000002000000010410404110420285028066685900411000006988359   1030000500030000   333800010001201104000003863AYA Pay                Yangon        MMR11004110420285028060411000000000000000   10300001F05104100000000004200000000000000     
100   62911028202531350000000000030000000000030000002000000010410404110631017191086685900411210113719108   1040001600030000   598320000838000000010000600Regency Petrol Station Ygn           MMR11004110631017191080411000000000000000   10300001F00104100000000000900000000000000     
100   62911028202531350000000000100046000000100046002000000010410404110651137202966685900411210113720296   1040001600030000   598320000911000000010000662MMTM - Tamwe           Ygn           MMR11004110651137202960411000000000000000   10300001F00104100000000003001000000000000     
100   95050318041680090000000000014600000000014600002000000010410404111200157410672529380411210119741067   1040001600030000   591220000284000000010000272Shwe Ohh Pharmacy (San Yangon        MMR11004111200157410670411000000000000000   10300001F00104100000000003504000000000000     
100   62911028202142100000000000002500000000002500002000000010410404110647411741076685900411000006989039   1030000900030000   333400010001202104000002022ACS                    Yangon        MMR11004110647411741070411000000000000000   10300001F05104100000000000525000000000000     
100   95050310213446310000000000004900000000004900002000000010410404111247451745469394610411000006990285   1020000200030000   333400010001204104000000281Myanmar Soft-Gate Tech Yangon        MMR11004111247451745460411000000000000000   10300001F05104100000000001029000000000000     
100   95050317100052460000000000000600000000000600002000000010410404111039540954947110800411000006989906   1030000200030000   333800010001203104000003327KBZPay                 Yangon        MMR11004111039540954940411000000000000000   10300001F05104100000000000126000000000000     
100   95050319161596230000000000000980000000000980002000000010410404110603153315058274570411000006988847   1020000200030000   333400010001204104000000281Myanmar Soft-Gate Tech Yangon        MMR11004110603153315050411000000000000000   10300001F05104100000000000206000000000000     
100   62911028202130710000000000203670000000203670002000000010410404051021440000104052100405209516000010   1030000500030000   566120207301021305661202073SARAMANDA SHOES        PTN           MMR11004051021440000100405000000000000000   10300001 00104100000000012220000000000000     
100   95050322295410690000000000033250000000033250002000000010410404110309250024479222820411210109002447   1020000200030000   541100015007300235411000001MWD BANK               YGN           MMR11004110309250024470411000000000000000   10300001 00104100000000008313000000000000     
100   95050312210363590000000000001000000000001000002000000010410404111130230023861217290411000006990045   1030000200030000   333800010001203104000003327KBZPay                 Yangon        MMR11004111130230023860411000000000000000   10300001F05104100000000000210000000000000     
100   62911028202161240000000000001996000000001996002000000010410404111157440011426685900411000745565735   1030000200030000   541188000067000008000000298KBZ BANK               CITY MART - M MMR11004111157440011420411000000000000000   10300001 00104100000000000120000000000000     
100   62911028202400660000000000068400000000068400002000000010410404110943160002226685900411000745558820   1030000200030000   566188000991000008000001320KBZ BANK               D & C DESIGN  MMR11004110943160002220411000000000000000   10300001 00104100000000004104000000000000     
100   95050329213164970000000000046400000000046400002000000010410404111032020021859513770411000745543261   1030000200030000   541188001480000008000000399KBZ BANK               OCEAN SUPERCE MMR11004111032020021850411000000000000000   10300001 00104100000000011600000000000000     
100   62911028202115470000000000041850000000041850002000000010410404111632170003996685900411000745559758   1030000200030000   541188001005000008000000008KBZ BANK               MARKETPLACE - MMR11004111632170003990411000000000000000   10300001 00104100000000002511000000000000     
100   62443100384660050000000000336500000000336500002000000010410404110439490010502003430411000745544972   1030000200030000   599988000623000008000004242KBZ BANK               SWEETY HOME M MMR11004110439490010500411000000000000000   10300001 00104100000000080760000000000000     
100   95050322478649490000000000002940000000002940002000000010410404111025215521859174980411000006989852   1020000200030000   333400010001204104000000281Myanmar Soft-Gate Tech Yangon        MMR11004111025215521850411000000000000000   10300001F05104100000000000617000000000000     
100   95050317578818060000000000002600000000002600002000000010410404110656477206267763990411210113720626   1040001600030000   591220000299000000010000287Shwe Ohh Pharmacy (Yan Yangon        MMR11004110656477206260411000000000000000   10300001F00104100000000000624000000000000     
100   95050324767581840000000000011028000000011028002000000010410404110813107698860863110411637451427100   1030000500030000   555610112240104519000010487Ocean Super Center St  ohn           MMR11004110813107698860411000000000000000   10300001 00104100000000002757000000000000     
100   62911028202612030000000000007250000000007250002000000010410404110857197707906685900411721401555100   1030000500030000   555610110597104519000009166City Mart 47 Branch                  MMR11004110857197707900411000000000000000   10300001 00104100000000000435000000000000     
100   95030310098554020000000000015000000000015000002000000010410404110911377708406685900411785431554100   1030000500030000   555610112255104519000010487Ocean Super Center St  ohn           MMR11004110911377708400411000000000000000   10300001 00104100000000000900000000000000     
100   62911028202158290000000000004600000000004600002000000010410404111026257728246685900411176271742100   1030000500030000   555610112646104519000010841City Express MCS 07                  MMR11004111026257728240411000000000000000   10300001 00104100000000000276000000000000     
100   62443100383487320000000000155691000000155691002000000010410404110441547663457641650411494141149100   1030000500030000   555610112256104519000010487Ocean Super Center St  ohn           MMR11004110441547663450411000000000000000   10300001 00104100000000038923000000000000     
100   95050311048637960000000000015764000000015764002000000010410404110829127700971033310411895591411100   1030000500030000   555610112256104519000010487Ocean Super Center St  ohn           MMR11004110829127700970411000000000000000   10300001 00104100000000003941000000000000     
100   62911028202509170000000000006400000000006400002000000010410404111155330015616685900411000745547019   1030000200030000   541188001014000008000000008KBZ BANK               MARKETPLACE - MMR11004111155330015610411000000000000000   10300001 00104100000000000384000000000000     
100   95050322295410690000000000019800000000019800002000000010410404111559330000461678420411000745558174   1030000200030000   581288000945000008000004870KBZ BANK               PIZZA HUT RES MMR11004111559330000460411000000000000000   10300001 00104100000000008415000000000000     
100   95050316638224720000000000049185000000049185002000000010410404111236380000486962470411000745548842   1030000200030000   541188001435000008000000401KBZ BANK               OCEAN SUPERCE MMR11004111236380000480411000000000000000   10300001 00104100000000012297000000000000     
100   95050320093758110000000000018800000000018800002000000010410404111105280018935308400411000745544779   1030000200030000   541188001360000008000000395KBZ BANK               OCEAN SUPERMA MMR11004111105280018930411000000000000000   10300001 00104100000000004700000000000000     
100   95050321188471220000000000024200000000024200002000000010410404111059350021443911200411000745544483   1030000200030000   541188001485000008000000399KBZ BANK               OCEAN SUPERCE MMR11004111059350021440411000000000000000   10300001 00104100000000006050000000000000     
100   62911028202296630000000000332750000000332750002000000010410404110240590027406685900411000745540342   1030000200030000   581288000098000008000003562KBZ BANK               CANTON PARADI MMR11004110240590027400411000000000000000   10300001 00104100000000033941000000000000     
100   62443100372718280000000000014300000000014300002000000010410404110920120009578627150411000745540614   1030000200030000   541188001079000008000000294KBZ BANK               CITY MART - J MMR11004110920120009570411000000000000000   10300001 00104100000000003575000000000000     
100   95050320088670570000000000098913000000098913002000000010410404111231400021466707180411000745548611   1030000200030000   541188001485000008000000399KBZ BANK               OCEAN SUPERCE MMR11004111231400021460411000000000000000   10300001 00104100000000024729000000000000     
100   95030310098554020000000000026950000000026950002000000010410404110705587687276685900411256351357100   1030000300030000   444410125393104519000021220Myanmar Bakery CoLtd                 MMR11004110705587687270411000000000000000   10300001 00104100000000002749000000000000     
100   95030310098554020000000000003500000000003500002000000010410404110943467713816685900411407141621100   1030000300030000   444410120049104519000017043YKKO St John                         MMR11004110943467713810411000000000000000   10300001 00104100000000000357000000000000     
100   62443101023815100000000000020600000000020600002000000010410404111123247733909649900411861551713100   1030000500030000   555610114573104519000012532City Mart Ahlone Branc               MMR11004111123247733900411000000000000000   10300001 00104100000000005150000000000000     
100   62911028202533820000000000040000000000040000002000000010410404111016139922366685900411461380847410   1040001400030000   806210000098028062100000766Yoma OUE Pun Hlaing Ho pital  Yoma O MMR11004111016139922360411000000000000000   10300001 00104100000000002400000000000000     
100   62443100340422630000000000030100000000030100002000000010410404111343157753032778960411127182005100   1030000300030000   444410118915104519000016097SP Bakery Yangon SR 1                MMR11004111343157753030411000000000000000   10300001 00104100000000012793000000000000     
100   62443100340422630000000000096750000000096750002000000010410404110513137668243010790411036431148100   1030000300030000   555510124693104519000020166Makro Myanmar                        MMR11004110513137668240411000000000000000   10300001 00104100000000023220000000000000     
100   95050313977497770000000000027350000000027350002000000010410404110422517114218528270411210111711421   1040001600030000   541120000575000000010000465Ocean Shwe Gone Daing  Yangon        MMR11004110422517114210411000000000000000   10300001F00104100000000006838000000000000     
100   95050317915469510000000000086250000000086250002000000010410404111126457734341302390411921571728100   1030000300030000   555510124358104519000020166Makro Myanmar                        MMR11004111126457734340411000000000000000   10300001 00104100000000020700000000000000     
100   95050312210363590000000000001000000000001000002000000010410404111131360136456259830411000006990052   1030000200030000   333800010001203104000003327KBZPay                 Yangon        MMR11004111131360136450411000000000000000   10300001F05104100000000000210000000000000     
100   95050314020354280000000000005000000000005000002000000010410404111134190151875890280411000745546095   1030000200030000   541188001304000008000000325KBZ BANK               CITY MART - A MMR11004111134190151870411000000000000000   10300001 00104100000000001250000000000000     
100   62911028202509170000000000003300000000003300002000000010410404111157560093886685900411000745547157   1030000200030000   541188001013000008000000008KBZ BANK               MARKETPLACE - MMR11004111157560093880411000000000000000   10300001 00104100000000000198000000000000     
100   62911028202207460000000000040166000000040166002000000010410404111139420128396685900411000745546335   1030000200030000   541188001056000008000000314KBZ BANK               MARKETPLACE - MMR11004111139420128390411000000000000000   10300001 00104100000000002410000000000000     
100   62443100306028540000000000027700000000027700002000000010410404111049300135339499980411000745544059   1030000200030000   541188001073000008000000294KBZ BANK               CITY MART - J MMR11004111049300135330411000000000000000   10300001 00104100000000006925000000000000     
100   95050317338786370000000000003000000000003000002000000010410404110531480148063436270411000006988711   1030000200030000   3334000100012031040000040102C2P (Myanmar) Co. Ltd Yangon        MMR11004110531480148060411000000000000000   10300001F05104100000000000630000000000000     
100   62911028202531350000000000145072000000145072002000000010410404111113290206506685900411000745545139   1030000200030000   541188001003000008000000008KBZ BANK               MARKETPLACE - MMR11004111113290206500411000000000000000   10300001 00104100000000008704000000000000     
100   95050318919136220000000000086700000000086700002000000010410404111135490039984322890411000745546153   1030000200030000   541188001424000008000000401KBZ BANK               OCEAN SUPERCE MMR11004111135490039980411000000000000000   10300001 00104100000000021675000000000000     
100   62911028202615340000000000004200000000004200002000000010410404111145087738596685900411422181838100   1030000500030000   555610112249104519000010487Ocean Super Center St  ohn           MMR11004111145087738590411000000000000000   10300001 00104100000000000252000000000000     
100   62911028202616250000000000165253000000165253002000000010410404111016407719666685900411137461649100   1030000500030000   555610112988104519000011143Market Place by City M rt Sule       MMR11004111016407719660411000000000000000   10300001 00104100000000009915000000000000     
100   62443100378093870000000000067800000000067800002000000010410404111109367731121557670411530411739100   1030000300030000   555510124693104519000020166Makro Myanmar                        MMR11004111109367731120411000000000000000   10300001 00104100000000016272000000000000     
100   62443100371022130000000000148450000000148450002000000010410404110510577667910046210411002411128100   1030000300030000   555510124693104519000020166Makro Myanmar                        MMR11004110510577667910411000000000000000   10300001 00104100000000035628000000000000     
100   62911028202870750000000000017400000000017400002000000010410404110724467690566685900411640551332100   1030000500030000   555610103969104519000003818Ocean Oattara Thiri Na PyiTaw        MMR11004110724467690560411000000000000000   10300001 00104100000000001044000000000000     
100   62911028202451150000000000055938000000055938002000000010410404111037187723976685900411651071738100   1030000500030000   555610122580104519000018896City Mart Hlaing Thar  ar            MMR11004111037187723970411000000000000000   10300001 00104100000000003356000000000000     
100   62911028202451150000000000008126000000008126002000000010410404111036477725426685900411821141741100   1030000500030000   555610122584104519000018896City Mart Hlaing Thar  ar            MMR11004111036477725420411000000000000000   10300001 00104100000000000488000000000000     
100   62911028202158290000000000010100000000010100002000000010410404111024347727716685900411108251735100   1030000500030000   555610112646104519000010841City Express MCS 07                  MMR11004111024347727710411000000000000000   10300001 00104100000000000606000000000000     
100   62911028202417260000000000021000000000021000002000000010410404111242560145066685900411000745549104   1030000200030000   541188001049000008000000010KBZ BANK               MARKETPLACE - MMR11004111242560145060411000000000000000   10300001 00104100000000001260000000000000     
100   62911028202119920000000000019300000000019300002000000010410404111422290183156685900411000745553513   1030000200030000   541188001075000008000000294KBZ BANK               CITY MART - J MMR11004111422290183150411000000000000000   10300001 00104100000000001158000000000000     
100   62911028202531350000000000004250000000004250002000000010410404111114270206516685900411000745545185   1030000200030000   541188001003000008000000008KBZ BANK               MARKETPLACE - MMR11004111114270206510411000000000000000   10300001 00104100000000000255000000000000     
100   95050327531396450000000000130350000000130350002000000010410404111025510037247435800411000745543019   1030000200030000   541188001428000008000000401KBZ BANK               OCEAN SUPERCE MMR11004111025510037240411000000000000000   10300001 00104100000000032588000000000000     
100   62443100363668680000000000020650000000020650002000000010410404111338560055388735710411000745551605   1030000200030000   541188001006000008000000008KBZ BANK               MARKETPLACE - MMR11004111338560055380411000000000000000   10300001 00104100000000005163000000000000     
100   95050324247403260000000000022150000000022150002000000010410404111446250079005905660411000745554622   1030000200030000   541188001128000008000000296KBZ BANK               CITY MART - J MMR11004111446250079000411000000000000000   10300001 00104100000000005538000000000000     
100   62911028202448030000000000076459000000076459002000000010410404111313220187196685900411000745550464   1030000200030000   541188001001000008000000008KBZ BANK               MARKETPLACE - MMR11004111313220187190411000000000000000   10300001 00104100000000004588000000000000     
100   62911028202119920000000000003500000000003500002000000010410404111426500091886685900411000745553708   1030000200030000   541188001088000008000000294KBZ BANK               CITY MART - J MMR11004111426500091880411000000000000000   10300001 00104100000000000210000000000000     
100   62443101023815100000000000023800000000023800002000000010410404111108317730426685320411447381731100   1030000500030000   555610114574104519000012532City Mart Ahlone Branc               MMR11004111108317730420411000000000000000   10300001 00104100000000005950000000000000     
100   95030393174848800000000000120350000000120350002000000010410404110432367661796685900411312061117100   1030000500030000   555610110564104519000009163City Mart Ayeyarwon Br nch           MMR11004110432367661790411000000000000000   10300001 00104100000000007221000000000000     
100   62911028202212230000000000007350000000007350002000000010410404110526327671906685900411444051233100   1030000500030000   555610110576104519000009164City Mart China Town P int Cen       MMR11004110526327671900411000000000000000   10300001 00104100000000000441000000000000     
100   62443100306028540000000000003600000000003600002000000010410404110434267661838613360411317061141100   1030000500030000   555610117864104519000009164City Mart China Town P int Cen       MMR11004110434267661830411000000000000000   10300001 00104100000000000900000000000000     
100   62911028202207460000000000003550000000003550002000000010410404110705467687866685900411323381349100   1030000500030000   555610112233104519000010487Ocean Super Center St  ohn           MMR11004110705467687860411000000000000000   10300001 00104100000000000213000000000000     
100   62911028202484080000000000150000000000150000002000000010410404110608597677796685900411177391250100   1030000300030000   555510124692104519000020166Makro Myanmar                        MMR11004110608597677790411000000000000000   10300001 00104100000000009000000000000000     
100   62443100363668680000000000012600000000012600002000000010410404110756287696103026170411324281440100   1030000300030000   444410118915104519000016097SP Bakery Yangon SR 1                MMR11004110756287696100411000000000000000   10300001 00104100000000005355000000000000     
100   95050318458849030000000000065152000000065152002000000010410404111102237729371727870411332331738100   1030000500030000   555610122988104519000019269City Mart Supermarket  hanlyin       MMR11004111102237729370411000000000000000   10300001 00104100000000016288000000000000     
