100   62911028202366010000000000044740000000044740002000000010410404130930457946766685900413374021609102   1030000500030000   555610103957104519000003818Ocean Oattara Thiri Na PyiTaw        MMR11004130930457946760413000000000000000   10300001 00104100000000002684000000000000     
100   95050312911050270000000000000980000000000980002000000010410404131024205420724672940413000006996956   1020000200030000   333400010001204104000000281Myanmar Soft-Gate Tech Yangon        MMR11004131024205420720413000000000000000   10300001F05104100000000000206000000000000     
100   95050311382087030000000000007840000000007840002000000010410404130213074307911488720413000006995581   1020000200030000   333400010001204104000000281Myanmar Soft-Gate Tech Yangon        MMR11004130213074307910413000000000000000   10300001F05104100000000001646000000000000     
100   95050314302558730000000000005880000000005880002000000010410404130313084308793396500413000006995745   1020000200030000   333400010001204104000000281Myanmar Soft-Gate Tech Yangon        MMR11004130313084308790413000000000000000   10300001F05104100000000001235000000000000     
100   62911028202204490000000000024800000000024800002000000010410404130008171229336685900413949380617102   1030000900030000   581219000715190110000000546Akkhaya Tea House(Dago YANGON        MMR11004130008171229330413000000000000000   10300001F00104100000000002530000000000000     
100   95050313732480420000000000000980000000000980002000000010410404131142211221604758040413000006997149   1020000200030000   333400010001204104000000281Myanmar Soft-Gate Tech Yangon        MMR11004131142211221600413000000000000000   10300001F05104100000000000206000000000000     
100   95050311382087030000000000000980000000000980002000000010410404130849411941286665810413000006996726   1020000200030000   333400010001204104000000281Myanmar Soft-Gate Tech Yangon        MMR11004130849411941280413000000000000000   10300001F05104100000000000206000000000000     
100   62911028202909210000000000300000000000300000002000000010410404130540061006266685900413000006996208   1030000200030000   333800010001203104000003327KBZPay                 Yangon        MMR11004130540061006260413000000000000000   10300001F05104100000000063000000000000000     
100   95050313168701670000000000001960000000001960002000000010410404130648241824715609010413000006996424   1020000200030000   333400010001204104000000281Myanmar Soft-Gate Tech Yangon        MMR11004130648241824710413000000000000000   10300001F05104100000000000412000000000000     
100   95050312498129060000000000001960000000001960002000000010410404131247371737819879970413000006997305   1020000200030000   333400010001204104000000281Myanmar Soft-Gate Tech Yangon        MMR11004131247371737810413000000000000000   10300001F05104100000000000412000000000000     
100   95050316785465380000000000001960000000001960002000000010410404130518304830984467100413000006996163   1020000200030000   333400010001204104000000281Myanmar Soft-Gate Tech Yangon        MMR11004130518304830980413000000000000000   10300001F05104100000000000412000000000000     
100   95050327192897240000000000000980000000000980002000000010410404130616244624319084170413000006996354   1020000200030000   333400010001204104000000281Myanmar Soft-Gate Tech Yangon        MMR11004130616244624310413000000000000000   10300001F05104100000000000206000000000000     
100   62911028202910770000000000048400000000048400002000000010410404130418557922586685900413319521053102   1030000500030000   555610104032104519000003821City Mart North Point  enter         MMR11004130418557922580413000000000000000   10300001 00104100000000002904000000000000     
100   62911028202423360000000000003100000000003100002000000010410404131002257949916685900413628401645102   1030000500030000   555610104031104519000003821City Mart North Point  enter         MMR11004131002257949910413000000000000000   10300001 00104100000000000186000000000000     
100   95050319528093960000000000000980000000000980002000000010410404121637250725237382240413000006995032   1020000200030000   333400010001204104000000281Myanmar Soft-Gate Tech Yangon        MMR11004121637250725230413000000000000000   10300001F05104100000000000206000000000000     
100   95050311382087030000000000000980000000000980002000000010410404130349481948627758280413000006995873   1020000200030000   333400010001204104000000281Myanmar Soft-Gate Tech Yangon        MMR11004130349481948620413000000000000000   10300001F05104100000000000206000000000000     
100   95030353305053700000000000044100000000044100002000000010410404130512367926606685900413640421144102   1030000300030000   555510124364104519000020166Makro Myanmar                        MMR11004130512367926600413000000000000000   10300001 00104100000000002646000000000000     
100   62911028202423360000000000007200000000007200002000000010410404131000187949036685900413554301647102   1030000500030000   555610104048104519000003821City Mart North Point  enter         MMR11004131000187949030413000000000000000   10300001 00104100000000000432000000000000     
100   95050317175714970000000000017000000000017000002000000010410404130625088605187346580413210313860518   1040001600030000   591220000274000000010000262Shwe Ohh Pharmacy (Shw Yangon        MMR11004130625088605180413000000000000000   10300001F00104100000000004080000000000000     
100   62911028202788270000000000040000000000040000002000000010410404130300241250456685900413254300924102   1030000900030000   554119000346190110000000213New Day Energy SOK     YANGONOKKALAP MMR11004130300241250450413000000000000000   10300001F00104100000000001200000000000000     
100   95030329830382620000000000300000000000300000002000000010410404130159592959896685900413000006995538   1030000200030000   333800010001203104000003327KBZPay                 Yangon        MMR11004130159592959890413000000000000000   10300001F05104100000000063000000000000000     
100   95050312792817170000000000000980000000000980002000000010410404130802383238813360850413000006996619   1020000200030000   333400010001204104000000281Myanmar Soft-Gate Tech Yangon        MMR11004130802383238810413000000000000000   10300001F05104100000000000206000000000000     
100   95050311077567400000000000003920000000003920002000000010410404130747421742453445940413000006996583   1020000200030000   333400010001204104000000281Myanmar Soft-Gate Tech Yangon        MMR11004130747421742450413000000000000000   10300001F05104100000000000823000000000000     
100   62911028202668140000000000149900000000149900002000000010410404130724147936616685900413473541335102   1030000300030000   555510124694104519000020166Makro Myanmar                        MMR11004130724147936610413000000000000000   10300001 00104100000000008994000000000000     
100   62911028202045260000000000006550000000006550002000000010410404131001517949606685900413599371636102   1030000500030000   555610121907104519000018352City Express MCS 95                  MMR11004131001517949600413000000000000000   10300001 00104100000000000393000000000000     
100   62911028202473840000000000066750000000066750002000000010410404130235408471646685900413210309847164   1040001600030000   591220000296000000010000284Shwe Ohh Pharmacy (Lan Yangon        MMR11004130235408471640413000000000000000   10300001F00104100000000004005000000000000     
100   95050322312885760000000000015000000000015000002000000010410404121847371737896070140413000006995187   1030000200030000   333800010001203104000003327KBZPay                 Yangon        MMR11004121847371737890413000000000000000   10300001F05104100000000003150000000000000     
100   95050311382087030000000000002940000000002940002000000010410404131256222622811532450413000006997320   1020000200030000   333400010001204104000000281Myanmar Soft-Gate Tech Yangon        MMR11004131256222622810413000000000000000   10300001F05104100000000000617000000000000     
100   95050316949180000000000000002940000000002940002000000010410404131448321832695092710413000006997624   1020000200030000   333400010001204104000000281Myanmar Soft-Gate Tech Yangon        MMR11004131448321832690413000000000000000   10300001F05104100000000000617000000000000     
100   95050316321163940000000000000980000000000980002000000010410404131348461846166830290413000006997465   1020000200030000   333400010001204104000000281Myanmar Soft-Gate Tech Yangon        MMR11004131348461846160413000000000000000   10300001F05104100000000000206000000000000     
100   62911028202777790000000000005000000000005000002000000010410404130851182118356685900413000006996730   1030000200030000   333800010001203104000003327KBZPay                 Yangon        MMR11004130851182118350413000000000000000   10300001F05104100000000001050000000000000     
100   95050315005801680000000000002940000000002940002000000010410404131524575457145007610413000006997729   1020000200030000   333400010001204104000000281Myanmar Soft-Gate Tech Yangon        MMR11004131524575457140413000000000000000   10300001F05104100000000000617000000000000     
100   62911028202788270000000000133200000000133200002000000010410404130328298497516685900413210310849751   1040001600030000   591220000273000000010000261Shwe Ohh Pharmacy (WZY Yangon        MMR11004130328298497510413000000000000000   10300001F00104100000000007992000000000000     
100   62911028202448030000000000035000000000035000002000000010410404131048368771296685900413210317877129   1040001600030000   598320000658000000010000527Shwe Taung Energy (YGN Yangon        MMR11004131048368771290413000000000000000   10300001F00104100000000001050000000000000     
100   95050315158357300000000000000980000000000980002000000010410404131434370437406745200413000006997579   1020000200030000   333400010001204104000000281Myanmar Soft-Gate Tech Yangon        MMR11004131434370437400413000000000000000   10300001F05104100000000000206000000000000     
100   95050323233042810000000000000980000000000980002000000010410404130555592559473701230413000006996285   1020000200030000   333400010001204104000000281Myanmar Soft-Gate Tech Yangon        MMR11004130555592559470413000000000000000   10300001F05104100000000000206000000000000     
100   95050310427855490000000000002940000000002940002000000010410404130023005300271999310413000006995343   1020000200030000   333400010001204104000000281Myanmar Soft-Gate Tech Yangon        MMR11004130023005300270413000000000000000   10300001F05104100000000000617000000000000     
100   62911028202910770000000000005000000000005000002000000010410404131117584758266685900413000006997077   1030000200030000   333800010001203104000003327KBZPay                 Yangon        MMR11004131117584758260413000000000000000   10300001F05104100000000001050000000000000     
100   95050319528093960000000000001960000000001960002000000010410404131318004800043525330413000006997381   1020000200030000   333400010001204104000000281Myanmar Soft-Gate Tech Yangon        MMR11004131318004800040413000000000000000   10300001F05104100000000000412000000000000     
100   95030321128605110000000000150000000000150000002000000010410404130337477919336685900413067081014102   1030000300030000   555510124364104519000020166Makro Myanmar                        MMR11004130337477919330413000000000000000   10300001 00104100000000009000000000000000     
100   95050324622440820000000000060700000000060700002000000010410404130842177943129970780413086121532102   1030000300030000   555510124365104519000020166Makro Myanmar                        MMR11004130842177943120413000000000000000   10300001 00104100000000014568000000000000     
100   95030353305053700000000000030000000000030000002000000010410404131542221222586685900413000006997765   1030000200030000   3338000100012031040000040022C2P (Myanmar) Co. Ltd Yangon        MMR11004131542221222580413000000000000000   10300001F05104100000000006300000000000000     
100   95050317100052460000000000010060000000010060002000000010410404131411134113768482780413000006997523   1030000200030000   333800010001203104000003327KBZPay                 Yangon        MMR11004131411134113760413000000000000000   10300001F05104100000000002113000000000000     
100   95050312498129060000000000000980000000000980002000000010410404131434430443488397680413000006997584   1020000200030000   333400010001204104000000281Myanmar Soft-Gate Tech Yangon        MMR11004131434430443480413000000000000000   10300001F05104100000000000206000000000000     
100   95050315345734110000000000002940000000002940002000000010410404130256462646426786570413000006995709   1020000200030000   333400010001204104000000281Myanmar Soft-Gate Tech Yangon        MMR11004130256462646420413000000000000000   10300001F05104100000000000617000000000000     
100   95050315158357300000000000002940000000002940002000000010410404130244141414541829110413000006995671   1020000200030000   333400010001204104000000281Myanmar Soft-Gate Tech Yangon        MMR11004130244141414540413000000000000000   10300001F05104100000000000617000000000000     
100   95050310081566510000000000001000000000001000002000000010410404121929065906631112690413000006995211   1030000200030000   333800010001203104000003327KBZPay                 Yangon        MMR11004121929065906630413000000000000000   10300001F05104100000000000210000000000000     
100   62911028202823400000000000050000000000050000002000000010410404131520135013176685900413000006997715   1030000200030000   333800010001203104000003327KBZPay                 Yangon        MMR11004131520135013170413000000000000000   10300001F05104100000000010500000000000000     
100   62911028202114550000000000000500000000000500002000000010410404131008583858786685900413000006996919   1030000200030000   333800010001203104000003327KBZPay                 Yangon        MMR11004131008583858780413000000000000000   10300001F05104100000000000105000000000000     
100   62911028202423360000000000005000000000005000002000000010410404130939207947566685900413439101652102   1030000500030000   555610104043104519000003821City Mart North Point  enter         MMR11004130939207947560413000000000000000   10300001 00104100000000000300000000000000     
100   95050312498129060000000000003920000000003920002000000010410404131342331233660135260413000006997451   1020000200030000   333400010001204104000000281Myanmar Soft-Gate Tech Yangon        MMR11004131342331233660413000000000000000   10300001F05104100000000000823000000000000     
100   95050319938772870000000000002940000000002940002000000010410404131338460846081872840413000006997441   1020000200030000   333400010001204104000000281Myanmar Soft-Gate Tech Yangon        MMR11004131338460846080413000000000000000   10300001F05104100000000000617000000000000     
100   95050310794962000000000000005000000000005000002000000010410404130359032903706361080413000006995912   1030000200030000   3338000100012031040000040022C2P (Myanmar) Co. Ltd Yangon        MMR11004130359032903700413000000000000000   10300001F05104100000000001050000000000000     
100   95050316272163320000000000000980000000000980002000000010410404131319134913725177810413000006997388   1020000200030000   333400010001204104000000281Myanmar Soft-Gate Tech Yangon        MMR11004131319134913720413000000000000000   10300001F05104100000000000206000000000000     
100   95050316421999920000000000002940000000002940002000000010410404131319144914110220350413000006997380   1020000200030000   333400010001204104000000281Myanmar Soft-Gate Tech Yangon        MMR11004131319144914110413000000000000000   10300001F05104100000000000617000000000000     
100   62911028202112400000000000018000000000018000002000000010410404130604208591546685900413210313859154   1040001600030000   598320000658000000010000527Shwe Taung Energy (YGN Yangon        MMR11004130604208591540413000000000000000   10300001F00104100000000000540000000000000     
100   62443100313002190000000000050000000000050000002000000010410404130257012701048439050413000006995708   1030000200030000   333800010001203104000003327KBZPay                 Yangon        MMR11004130257012701040413000000000000000   10300001F05104100000000010500000000000000     
100   95050314120103040000000000004900000000004900002000000010410404130204373437229836240413000006995557   1020000200030000   333400010001204104000000281Myanmar Soft-Gate Tech Yangon        MMR11004130204373437220413000000000000000   10300001F05104100000000001029000000000000     
100   95050317100052460000000000001400000000001400002000000010410404130817044704458318300413000006996653   1030000200030000   333800010001203104000003327KBZPay                 Yangon        MMR11004130817044704450413000000000000000   10300001F05104100000000000294000000000000     
100   95030301100128040000000000007550000000007550002000000010410404130939247947626685900413444111632102   1030000500030000   555610120986104519000017749City Express MCS 68                  MMR11004130939247947620413000000000000000   10300001 00104100000000000453000000000000     
100   62911028202169750000000000015000000000015000002000000010410404130038568423576685900413210307842357   1040001600030000   598320000838000000010000600Regency Petrol Station Ygn           MMR11004130038568423570413000000000000000   10300001F00104100000000000450000000000000     
100   62911028202169750000000000052000000000052000002000000010410404130039368423816685900413210307842381   1040001600030000   598320000838000000010000600Regency Petrol Station Ygn           MMR11004130039368423810413000000000000000   10300001F00104100000000001560000000000000     
100   95050316818236190000000000000980000000000980002000000010410404131158242824858063010413000006997187   1020000200030000   333400010001204104000000281Myanmar Soft-Gate Tech Yangon        MMR11004131158242824850413000000000000000   10300001F05104100000000000206000000000000     
100   95050315110306410000000000003000000000003000002000000010410404131345521552571787740413000006997456   1030000200030000   333800010001203104000003327KBZPay                 Yangon        MMR11004131345521552570413000000000000000   10300001F05104100000000000630000000000000     
100   95050322312885760000000000007500000000007500002000000010410404130848161816745013330413000006996724   1030000200030000   333800010001203104000003327KBZPay                 Yangon        MMR11004130848161816740413000000000000000   10300001F05104100000000001575000000000000     
100   62911028202668140000000000047700000000047700002000000010410404130434347923516685900413397041145102   1030000500030000   555610104046104519000003821City Mart North Point  enter         MMR11004130434347923510413000000000000000   10300001 00104100000000002862000000000000     
100   62911028202788270000000000004800000000004800002000000010410404130332508499506685900413210310849950   1040001600030000   591220000273000000010000261Shwe Ohh Pharmacy (WZY Yangon        MMR11004130332508499500413000000000000000   10300001F00104100000000000288000000000000     
100   62443100369813440000000000030000000000030000002000000010410404130059281234760602110413984290728102   1030000900030000   554119000348190110000000215New Day Energy MYG     YANGONONE     MMR11004130059281234760413000000000000000   10300001F00104100000000003600000000000000     
100   95030353305053700000000000030000000000030000002000000010410404131557252725886685900413000006997805   1030000200030000   333800010001203104000003327KBZPay                 Yangon        MMR11004131557252725880413000000000000000   10300001F05104100000000006300000000000000     
100   95050319938772870000000000000980000000000980002000000010410404131205113511659715490413000006997205   1020000200030000   333400010001204104000000281Myanmar Soft-Gate Tech Yangon        MMR11004131205113511650413000000000000000   10300001F05104100000000000206000000000000     
100   95030371405797020000000000002200000000002200002000000010410404121714104410836685900413000006995085   1030000200030000   333800010001203104000003327KBZPay                 Yangon        MMR11004121714104410830413000000000000000   10300001F05104100000000000462000000000000     
100   62911028202116610000000000064000000000064000002000000010410404110357230006056685900411210110000605   1030000500030000   531120155804000045311201558GAMONE PWINT           PTN           MMR11004110357230006050411000000000000000   10300001 00104100000000003840000000000000     
100   95030308100042590000000000083000000000083000002000000010410404120837030012386685900412210215001238   1030000500030000   598320001702000015172200017MAX ENERGY             PTN           MMR11004120837030012380412000000000000000   10300001 00104100000000002490000000000000     
100   62443100318296470000000000049000000000049000002000000010410404120047110016724091060412210207001672   1030000500030000   598320001204000015172200012MAX ENERGY             PTN           MMR11004120047110016720412000000000000000   10300001 00104100000000005880000000000000     
100   62443100372702000000000000046000000000046000002000000010410404120656560025190594030412210213002519   1030000500030000   598320001201000015172200012MAX ENERGY             PTN           MMR11004120656560025190412000000000000000   10300001 00104100000000005520000000000000     
100   95050317175714970000000000091200000000091200002000000010410404120528470001913267670412210211000191   1030000500030000   591220012101014405912200121SHWE OHH PHARMACY      PTN           MMR11004120528470001910412000000000000000   10300001 00104100000000021888000000000000     
100   62911028202615340000000000009350000000009350002000000010410404121323390005646685900412210219000564   1030000500030000   541120182201000045411201822EASY MART-005          PTN           MMR11004121323390005640412000000000000000   10300001 00104100000000000561000000000000     
100   62911028202029420000000000010000000000010000002000000010410404120003280023466685900412210206002346   1030000500030000   598320001302000015172200013MAX ENERGY             PTN           MMR11004120003280023460412000000000000000   10300001 00104100000000000300000000000000     
100   95030378062733680000000000039000000000039000002000000010410404120804070007396685900412210214000739   1030000500030000   598320101301005405983201013PT POWER (NPT)         PTN           MMR11004120804070007390412000000000000000   10300001 00104100000000001170000000000000     
100   62911028202151340000000000015000000000015000002000000010410404120634580026676685900412210213002667   1030000500030000   598320001202000015172200012MAX ENERGY             PTN           MMR11004120634580026670412000000000000000   10300001 00104100000000000450000000000000     
100   95050316901496590000000000008350000000008350002000000010410404120238010001149863820412210209000114   1030000500030000   541120045801009205411200458126 STORE              PTN           MMR11004120238010001140412000000000000000   10300001 00104100000000002088000000000000     
100   62911028202823240000000000021850000000021850002000000010410404120713330012416685900412210213001241   1030000500030000   541120020902022205411200209ORANGE (HLAING)        PTN           MMR11004120713330012410412000000000000000   10300001 00104100000000001311000000000000     
100   62911028202680670000000000021000000000021000002000000010410404120714280025386685900412210213002538   1030000500030000   598320001303000015172200013MAX ENERGY             PTN           MMR11004120714280025380412000000000000000   10300001 00104100000000000630000000000000     
100   95050317175714970000000000024750000000024750002000000010410404120543000001928480410412210212000192   1030000500030000   591220012101014405912200121SHWE OHH PHARMACY      PTN           MMR11004120543000001920412000000000000000   10300001 00104100000000005940000000000000     
100   62911028202421380000000000055000000000055000002000000010410404120634330013176685900412210213001317   1030000500030000   598320001701000015172200017MAX ENERGY             PTN           MMR11004120634330013170412000000000000000   10300001 00104100000000001650000000000000     
100   62911028202594880000000000023600000000023600002000000010410404120351090001036685900412210210000103   1030000500030000   591220011701014405912200117SHWE OHH PHARMACY      PTN           MMR11004120351090001030412000000000000000   10300001 00104100000000001416000000000000     
100   95050316530487400000000000017350000000017350002000000010410404121244100002387538640412000339907580   1030000300030000   531100000539000000000000376CB BANK                CAPITAL HYPER MMR11004121244100002380412000000000000000   10300001F00104100000000004164000000000000     
100   62911028202132460000000000067950000000067950002000000010410404121345440003036685900412210220000303   1030000500030000   581220024201000015812200242SHWE LAR HOT POT       PTN           MMR11004121345440003030412000000000000000   10300001 00104100000000006931000000000000     
100   95050324826664210000000000028000000000028000002000000010410404120029070029055573350412210206002905   1030000500030000   598320001404000015172200014MAX ENERGY             PTN           MMR11004120029070029050412000000000000000   10300001 00104100000000003360000000000000     
100   95030301100419020000000000065800000000065800002000000010410404121028320000256685900412210216000025   1030000500030000   531120201401000085311202014HLC THE ONE            PTN           MMR11004121028320000250412000000000000000   10300001 00104100000000003948000000000000     
100   95030301100122420000000000071100000000071100002000000010410404120513000000956685900412210211000095   1030000500030000   564120055801016505641200558BABY & ME              PTN           MMR11004120513000000950412000000000000000   10300001 00104100000000004266000000000000     
100   95050329734064360000000000030000000000030000002000000010410404120719050032531735940412210213003253   1030000500030000   598320001403000015172200014MAX ENERGY             PTN           MMR11004120719050032530412000000000000000   10300001 00104100000000003600000000000000     
100   62443100371022130000000000038000000000038000002000000010410404121028400000017574290412000339890230   1030000300030000   598300001209000000000000817CB BANK                SHWE TAUNG EN MMR11004121028400000010412000000000000000   10300001F00104100000000004560000000000000     
100   95050325784857510000000000001450000000001450002000000010410404121022270005261049460412000339889401   1030000300030000   541100000605000000000000411CB BANK                ONE STOP MART MMR11004121022270005260412000000000000000   10300001F00104100000000000363000000000000     
100   62911028202487540000000000007100000000007100002000000010410404121156540012046685900412210218001204   1030000500030000   541120020801022205411200208ORANGE (TAMWE)         PTN           MMR11004121156540012040412000000000000000   10300001 00104100000000000426000000000000     
100   62911028202264530000000000038000000000038000002000000010410404120814010011046685900412210214001104   1030000500030000   531120156004000045311201560GAMONE PWINT           PTN           MMR11004120814010011040412000000000000000   10300001 00104100000000002280000000000000     
100   62443100373945130000000000021282000000021282002000000010410404121006080000684694810412000339887281   1030000300030000   541100001219000000000000826CB BANK                PROMART       MMR11004121006080000680412000000000000000   10300001F00104100000000005321000000000000     
100   95050318463049920000000000009000000000009000002000000010410404121051470005722545540412000339893287   1030000300030000   531100000598000000000000408CB BANK                CAPITAL HYPER MMR11004121051470005720412000000000000000   10300001F00104100000000002160000000000000     
100   95050315955808830000000000024000000000024000002000000010410404120233390006274480890412210209000627   1030000500030000   598320004401000015172200044MAX ENERGY             PTN           MMR11004120233390006270412000000000000000   10300001 00104100000000002880000000000000     
100   62911028202541660000000000020000000000020000002000000010410404120702360025956685900412210213002595   1030000500030000   598320001004000015172200010MAX ENERGY             PTN           MMR11004120702360025950412000000000000000   10300001 00104100000000000600000000000000     
100   95050325388974590000000000010500000000010500002000000010410404121134250005274744250412000339898946   1030000300030000   541100000605000000000000411CB BANK                ONE STOP MART MMR11004121134250005270412000000000000000   10300001F00104100000000002625000000000000     
100   62443100361813580000000000020000000000020000002000000010410404130221535153043141210413000006995608   1030000200030000   333800010001203104000003327KBZPay                 Yangon        MMR11004130221535153040413000000000000000   10300001F05104100000000004200000000000000     
100   95050318052625040000000000059000000000059000002000000010410404130103507913638268850413667210818102   1030000500030000   888810109465104519000008484Max Energy CoLtd 1                   MMR11004130103507913630413000000000000000   10300001 00104100000000007080000000000000     
100   95050320531117320000000000019800000000019800002000000010410404121028120001947659390412000339890164   1030000300030000   581400000720000000000000502CB BANK                KFC HTAUK KYA MMR11004121028120001940412000000000000000   10300001F00104100000000002376000000000000     
100   62911028202110420000000000007750000000007750002000000010410404120428400001046685900412210210000104   1030000500030000   591220011701014405912200117SHWE OHH PHARMACY      PTN           MMR11004120428400001040412000000000000000   10300001 00104100000000000465000000000000     
100   62911028202264530000000000015900000000015900002000000010410404130900197944346685900413183301514102   1030000500030000   555610118968104519000016137City Mart South Okkala WZYD BR       MMR11004130900197944340413000000000000000   10300001 00104100000000000954000000000000     
100   62443100361813580000000000030000000000030000002000000010410404130217404740108183760413000006995591   1030000200030000   333800010001203104000003327KBZPay                 Yangon        MMR11004130217404740100413000000000000000   10300001F05104100000000006300000000000000     
100   62911028202197550000000000026750000000026750002000000010410404120353330008336685900412210210000833   1030000500030000   531120155714000045311201557GAMONE PWINT           PTN           MMR11004120353330008330412000000000000000   10300001 00104100000000001605000000000000     
100   95050311382087030000000000002940000000002940002000000010410404130300313031373481600413000006995716   1020000200030000   333400010001204104000000281Myanmar Soft-Gate Tech Yangon        MMR11004130300313031370413000000000000000   10300001F05104100000000000617000000000000     
100   62911028202264530000000000043641000000043641002000000010410404130857187944226685900413172281517102   1030000500030000   555610118958104519000016137City Mart South Okkala WZYD BR       MMR11004130857187944220413000000000000000   10300001 00104100000000002619000000000000     
100   95050317376014640000000000000980000000000980002000000010410404130146031603808779430413000006995501   1020000200030000   333400010001204104000000281Myanmar Soft-Gate Tech Yangon        MMR11004130146031603800413000000000000000   10300001F05104100000000000206000000000000     
100   62911028202668140000000000045068000000045068002000000010410404130758157939316685900413721281436102   1030000300030000   555510125147104519000021022One Stop Mart Shopping Mall 0002     MMR11004130758157939310413000000000000000   10300001 00104100000000002704000000000000     
100   95050311569615630000000000013700000000013700002000000010410404131412530043021793460413000745634614   1030000200030000   541188001426000008000000401KBZ BANK               OCEAN SUPERCE MMR11004131412530043020413000000000000000   10300001 00104100000000003425000000000000     
100   62443100333488440000000000070000000000070000002000000010410404120623460001002672000412000339859646   1030000300030000   701100001001000000000000708CB BANK                INYA LAKE (RE MMR11004120623460001000412000000000000000   10300001F00104100000000029750000000000000     
100   62911028202154720000000000010800000000010800002000000010410404131145200055946685900413000745631361   1030000200030000   541188001033000008000000298KBZ BANK               CITY MART - M MMR11004131145200055940413000000000000000   10300001 00104100000000000648000000000000     
100   62911028202154800000000000240000000000240000002000000010410404130519480001126685900413210311000112   1030000400030000   701120200391000003120200039MYANMAR TREASURE (BAGA MANDALAY      MMR11004130519480001120413000000000000000   10300001 00104100000000024480000000000000     
100   62443100363668680000000000051145000000051145002000000010410404131655530075136325430413000745638395   1030000200030000   541188001002000008000000008KBZ BANK               MARKETPLACE - MMR11004131655530075130413000000000000000   10300001 00104100000000012787000000000000     
100   62911028202154720000000000025900000000025900002000000010410404131137100005526685900413000745631142   1030000200030000   541188001021000008000000298KBZ BANK               CITY MART - M MMR11004131137100005520413000000000000000   10300001 00104100000000001554000000000000     
100   95050311569615630000000000115900000000115900002000000010410404131407360043016750910413000745634489   1030000200030000   541188001426000008000000401KBZ BANK               OCEAN SUPERCE MMR11004131407360043010413000000000000000   10300001 00104100000000028975000000000000     
100   95050312878706670000000000003000000000003000002000000010410404131436420642233440230413000006997591   1030000200030000   3334000100012031040000040102C2P (Myanmar) Co. Ltd Yangon        MMR11004131436420642230413000000000000000   10300001F05104100000000000630000000000000     
100   95050311547837790000000000075450000000075450002000000010410404130951160032880091530413000745628555   1030000200030000   541188001444000008000000401KBZ BANK               OCEAN SUPERCE MMR11004130951160032880413000000000000000   10300001 00104100000000018863000000000000     
100   95050311547837790000000000019300000000019300002000000010410404131003460050851658920413000745628814   1030000200030000   541188001432000008000000401KBZ BANK               OCEAN SUPERCE MMR11004131003460050850413000000000000000   10300001 00104100000000004825000000000000     
100   95050317176867660000000000001960000000001960002000000010410404130135370537582169490413000006995465   1020000200030000   333400010001204104000000281Myanmar Soft-Gate Tech Yangon        MMR11004130135370537580413000000000000000   10300001F05104100000000000412000000000000     
100   62911028202019440000000000018500000000018500002000000010410404130353040030356685900413000745629258   1030000200030000   591288000837000008000004646KBZ BANK               PINLON PHARMA MMR11004130353040030350413000000000000000   10300001 00104100000000001110000000000000     
100   62911028202019440000000000015610000000015610002000000010410404130357020028846685900413000745629355   1030000200030000   591288000018000008000002044KBZ BANK               PINLON PHARMA MMR11004130357020028840413000000000000000   10300001 00104100000000000937000000000000     
100   95050314650717570000000000015778000000015778002000000010410404131020320040492800820413000745629207   1030000200030000   541188001424000008000000401KBZ BANK               OCEAN SUPERCE MMR11004131020320040490413000000000000000   10300001 00104100000000003945000000000000     
100   62443100379116470000000000000980000000000980002000000010410404130320465046295048980413000006995771   1020000200030000   333400010001204104000000281Myanmar Soft-Gate Tech Yangon        MMR11004130320465046290413000000000000000   10300001F05104100000000000206000000000000     
