100   95050315017843630000000000009800000000009800002000000010410404081209373937320971830408000006976602   1020000200030000   333400010001204104000000281Myanmar Soft-Gate Tech Yangon        MMR11004081209373937320408000000000000000   10300001F05104100000000002058000000000000     
100   95050314567080940000000000000980000000000980002000000010410404080707513751020093290408000006974274   1020000200030000   333400010001204104000000281Myanmar Soft-Gate Tech Yangon        MMR11004080707513751020408000000000000000   10300001F05104100000000000206000000000000     
100   95030388278510000000000000100000000000100000002000000010410404080716214621502113100408000006974355   1030000200030000   333800010001203104000003327KBZPay                 Yangon        MMR11004080716214621500408000000000000000   10300001F05104100000000021000000000000000     
100   95050310305440490000000000045000000000045000002000000010410404080352032203233675410408000006972344   1030000200030000   333800010001203104000003327KBZPay                 Yangon        MMR11004080352032203230408000000000000000   10300001F05104100000000009450000000000000     
100   95030301100157400000000000001960000000001960002000000010410404081312474247917098410408000006976908   1020000200030000   333400010001204104000000281Myanmar Soft-Gate Tech Yangon        MMR11004081312474247910408000000000000000   10300001F05104100000000000412000000000000     
100   95050312862810800000000000050000000000050000002000000010410404081055482548561688260408000006976166   1030000200030000   333800010001203104000003327KBZPay                 Yangon        MMR11004081055482548560408000000000000000   10300001F05104100000000010500000000000000     
100   95050315330275830000000000000980000000000980002000000010410404081215324532905675120408000006976631   1020000200030000   333400010001204104000000281Myanmar Soft-Gate Tech Yangon        MMR11004081215324532900408000000000000000   10300001F05104100000000000206000000000000     
100   95050314307746340000000000000980000000000980002000000010410404081032530253811773360408000006976067   1020000200030000   333400010001204104000000281Myanmar Soft-Gate Tech Yangon        MMR11004081032530253810408000000000000000   10300001F05104100000000000206000000000000     
100   95030301100316300000000000019500000000019500002000000010410404080835587302402113100408888101501097   1030000500030000   555610112991104519000011143Market Place by City M rt Sule       MMR11004080835587302400408000000000000000   10300001 00104100000000001170000000000000     
100   95050325637546660000000000100600000000100600002000000010410404081038117324570205970408579111718097   1030000500030000   555610103976104519000003818Ocean Oattara Thiri Na PyiTaw        MMR11004081038117324570408000000000000000   10300001 00104100000000025150000000000000     
100   62911028202492080000000000110900000000110900002000000010410404081019387320626060110408091491659097   1030000300030000   555510124694104519000020166Makro Myanmar                        MMR11004081019387320620408000000000000000   10300001 00104100000000006654000000000000     
100   62911028202524910000000000150000000000150000002000000010410404080950557315945903310408518231651097   1030000300030000   555510124358104519000020166Makro Myanmar                        MMR11004080950557315940408000000000000000   10300001 00104100000000009000000000000000     
100   62911028202423360000000000009350000000009350002000000010410404081230337345226869710408163041955097   1030000500030000   555610108773104519000003821City Mart North Point  enter         MMR11004081230337345220408000000000000000   10300001 00104100000000000561000000000000     
100   62911028202446130000000000045350000000045350002000000010410404080954317316145910210408546251600097   1030000500030000   555610112242104519000010487Ocean Super Center St  ohn           MMR11004080954317316140408000000000000000   10300001 00104100000000002721000000000000     
100   62911028202473840000000000064741000000064741002000000010410404081147367337186586010408149171838097   1030000500030000   555610112242104519000010487Ocean Super Center St  ohn           MMR11004081147367337180408000000000000000   10300001 00104100000000003885000000000000     
100   62911028202296480000000000020000000000020000002000000010410404080719079762902113100408201491307097   1030000900030000   554119000345190110000000212New Day Energy PZD     YANGONAUNG    MMR11004080719079762900408000000000000000   10300001F00104100000000000600000000000000     
100   95050312005798410000000000000980000000000980002000000010410404081239120912030923530408000006976747   1020000200030000   333400010001204104000000281Myanmar Soft-Gate Tech Yangon        MMR11004081239120912030408000000000000000   10300001F05104100000000000206000000000000     
100   95050314020354280000000000001960000000001960002000000010410404081440361036846672290408000006977385   1020000200030000   333400010001204104000000281Myanmar Soft-Gate Tech Yangon        MMR11004081440361036840408000000000000000   10300001F05104100000000000412000000000000     
100   95050318141561190000000000060000000000060000002000000010410404080339480948591767640408000006972173   1030000200030000   333800010001203104000003327KBZPay                 Yangon        MMR11004080339480948590408000000000000000   10300001F05104100000000012600000000000000     
100   95050313702988830000000000001959000000001959002000000010410404081445071507998409880408000006977411   1020000200030000   333400010001204104000000281Myanmar Soft-Gate Tech Yangon        MMR11004081445071507990408000000000000000   10300001F05104100000000000411000000000000     
100   95050327531396450000000000002940000000002940002000000010410404080553352335769050270408000006973574   1020000200030000   333400010001204104000000281Myanmar Soft-Gate Tech Yangon        MMR11004080553352335760408000000000000000   10300001F05104100000000000617000000000000     
100   95050318131043910000000000000980000000000980002000000010410404081535080508471799940408000006977679   1020000200030000   333400010001204104000000281Myanmar Soft-Gate Tech Yangon        MMR11004081535080508470408000000000000000   10300001F05104100000000000206000000000000     
100   95050324411430900000000000099790000000099790002000000010410404081041031103365248520408000006976124   1010000100030000   333500010001212104000002543Internal Revenue Depar Yangon        MMR11004081041031103360408000000000000000   10300001F05104100000000060000000000000000     
100   95050312005798410000000000010000000000010000002000000010410404081047091709794908130408000006976160   1030000900030000   333400010001202104000002022ACS                    Yangon        MMR11004081047091709790408000000000000000   10300001F05104100000000002100000000000000     
100   62443100307612960000000000045000000000045000002000000010410404080814589780503968460408303441458097   1030000900030000   573219001180190110000000936UNIQUE UChit Maung     YANGON        MMR11004080814589780500408000000000000000   10300001F00104100000000010800000000000000     
100   62443100328876850000000000016500000000016500002000000010410404081237217345620072570408208081923097   1030000300030000   555510125330104519000021173One Stop Mart Shopping Mall 0003     MMR11004081237217345620408000000000000000   10300001 00104100000000003960000000000000     
100   62911028202108460000000000020000000000020000002000000010410404080238299688932113100408717080929097   1030000900030000   591219000795190110000000627Shwe Ohh Pharmacy ST-3 YANGONINDAING MMR11004080238299688930408000000000000000   10300001F00104100000000001200000000000000     
100   95030385550669610000000000069200000000069200002000000010410404080316459695882113100408091460945097   1030000900030000   541119000376190110000000178Pro (1) Global (East D YANGONMYOTHIT MMR11004080316459695880408000000000000000   10300001F00104100000000004152000000000000     
100   62911028202147720000000000240000000000240000002000000010410404080904399797335625600408352341539097   1030000900030000   509419001487190110000001083Treasure Sea           YANGONN       MMR11004080904399797330408000000000000000   10300001F00104100000000024000000000000000     
100   62911028202907490000000000081200000000081200002000000010410404080102079677712113100408268320707097   1030000900030000   729819000945190110000000752SML Clinic             YANGON        MMR11004080102079677710408000000000000000   10300001F00104100000000004872000000000000     
100   95050325784857510000000000004000000000004000002000000010410404080651279754942632390408702211327097   1030000900030000   541119001215190110000000950City Mart YK City Care YANGONAUNG    MMR11004080651279754940408000000000000000   10300001F00104100000000001000000000000000     
100   62443100318296470000000000025950000000025950002000000010410404080717559762514880550408177471355097   1030000900030000   581219001545190110000001119Paradise Hot Pot       YANGONUT      MMR11004080717559762510408000000000000000   10300001F00104100000000011029000000000000     
100   95050325139996190000000000018394310000018394312000000010410404080255492549472327660408000006971650   1030000200030000   333300010001203104000003632Myanmar Tradenet Test  Yangon        MMR11004080255492549470408000000000000000   10300001F05104100000000010000000000000000     
100   95050310794962000000000000005000000000005000002000000010410404080159112911298816850408000006971229   1030000200030000   3338000100012031040000040022C2P (Myanmar) Co. Ltd Yangon        MMR11004080159112911290408000000000000000   10300001F05104100000000001050000000000000     
100   95050328137327770000000000050000000000050000002000000010410404080112034203380724620408000006971015   1030000200030000   333800010001203104000003327KBZPay                 Yangon        MMR11004080112034203380408000000000000000   10300001F05104100000000010500000000000000     
100   95030301100125230000000000012000000000012000002000000010410404080949271927585878310408000006975741   1030000500030000   333800010001201104000003863AYA Pay                Yangon        MMR11004080949271927580408000000000000000   10300001F05104100000000002520000000000000     
100   62911028202660950000000000051000000000051000002000000010410404080309183918432113100408000006971815   1030000200030000   333800010001203104000003327KBZPay                 Yangon        MMR11004080309183918430408000000000000000   10300001F05104100000000010710000000000000     
100   95050314703432410000000000053000000000053000002000000010410404080106563656307419650408000006971000   1030000200030000   3338000100012031040000040022C2P (Myanmar) Co. Ltd Yangon        MMR11004080106563656300408000000000000000   10300001F05104100000000011130000000000000     
100   95050319286546940000000000034800000000034800002000000010410404080216034963333944490408209809496333   1040001600030000   591220000258000000010000246Shwe Ohh Pharmacy (Sin Yangon        MMR11004080216034963330408000000000000000   10300001F00104100000000008352000000000000     
100   95050316736513170000000000005000000000005000002000000010410404081536130613870147450408000006977683   1030000200030000   333800010001203104000003327KBZPay                 Yangon        MMR11004081536130613870408000000000000000   10300001F05104100000000001050000000000000     
100   95030385550669610000000000033000000000033000002000000010410404080324509697832113100408205540950097   1030000900030000   541119000375190110000000178Pro (1) Global (East D YANGONMYOTHIT MMR11004080324509697830408000000000000000   10300001F00104100000000001980000000000000     
100   95030339867270590000000000003400000000003400002000000010410404081212417341936747200408740441830097   1030000300030000   555610103773104519000003649G and G Convenience St re 279        MMR11004081212417341930408000000000000000   10300001 00104100000000000204000000000000     
100   95050312878706670000000000015000000000015000002000000010410404080405569708420441750408830351056097   1030000900030000   541119000122190110000000080Sein Gay Har BAK       YANGONADA     MMR11004080405569708420408000000000000000   10300001F00104100000000003750000000000000     
100   95030325332426120000000000011000000000011000002000000010410404080644009752812113100408587141300097   1030000900030000   541119001081190110000000872Sein Gay Har Hledan    YANGONUT      MMR11004080644009752810408000000000000000   10300001F00104100000000000660000000000000     
100   95050324104751500000000000033300000000033300002000000010410404081047167326603340740408835221700097   1030000500030000   555610110599104519000009166City Mart 47 Branch                  MMR11004081047167326600408000000000000000   10300001 00104100000000008325000000000000     
100   62911028202423360000000000006450000000006450002000000010410404081201477339906678600408476331804097   1030000500030000   555610104035104519000003821City Mart North Point  enter         MMR11004081201477339900408000000000000000   10300001 00104100000000000387000000000000     
100   95050324947866880000000000027100000000027100002000000010410404080350129703818632860408562201012097   1030000900030000   541119001077190110000000872Sein Gay Har Hledan    YANGONUT      MMR11004080350129703810408000000000000000   10300001F00104100000000006775000000000000     
100   95050312878706670000000000016700000000016700002000000010410404080424599713654597680408131541059097   1030000900030000   541119000124190110000000080Sein Gay Har BAK       YANGONADA     MMR11004080424599713650408000000000000000   10300001F00104100000000004175000000000000     
100   95050312498129060000000000002940000000002940002000000010410404081342251225065275100408000006977081   1020000200030000   333400010001204104000000281Myanmar Soft-Gate Tech Yangon        MMR11004081342251225060408000000000000000   10300001F05104100000000000617000000000000     
100   95050310427855490000000000003920000000003920002000000010410404080359322932074002010408000006972428   1020000200030000   333400010001204104000000281Myanmar Soft-Gate Tech Yangon        MMR11004080359322932070408000000000000000   10300001F05104100000000000823000000000000     
100   95050310616516480000000000001000000000001000002000000010410404080452532253520156520408000006973009   1030000200030000   333800010001203104000003327KBZPay                 Yangon        MMR11004080452532253520408000000000000000   10300001F05104100000000000210000000000000     
100   95050318048516790000000000040000000000040000002000000010410404081356392639447012680408000006977158   1030000200030000   333800010001203104000003327KBZPay                 Yangon        MMR11004081356392639440408000000000000000   10300001F05104100000000008400000000000000     
100   95030367537085740000000000009800000000009800002000000010410404080755582558232113100408000006974767   1020000200030000   333400010001204104000000281Myanmar Soft-Gate Tech Yangon        MMR11004080755582558230408000000000000000   10300001F05104100000000002058000000000000     
100   95030301100121840000000000250000000000250000002000000010410404081201403140406671610408000006976554   1030000200030000   333800010001203104000003327KBZPay                 Yangon        MMR11004081201403140400408000000000000000   10300001F05104100000000052500000000000000     
100   95050310291835770000000000001000000000001000002000000010410404080507163716806050030408000006973146   1030000200030000   333800010001203104000003327KBZPay                 Yangon        MMR11004080507163716800408000000000000000   10300001F05104100000000000210000000000000     
100   95050311736839760000000000000980000000000980002000000010410404081306353635009892160408000006976869   1020000200030000   333400010001204104000000281Myanmar Soft-Gate Tech Yangon        MMR11004081306353635000408000000000000000   10300001F05104100000000000206000000000000     
100   95030325332426120000000000010000000000010000002000000010410404080511219726552113100408929411121097   1030000900030000   541119001079190110000000872Sein Gay Har Hledan    YANGONUT      MMR11004080511219726550408000000000000000   10300001F00104100000000000600000000000000     
100   62911028202610960000000000034100000000034100002000000010410404080644399752952113100408594141339097   1030000900030000   554119000348190110000000215New Day Energy MYG     YANGONONE     MMR11004080644399752950408000000000000000   10300001F00104100000000001023000000000000     
100   95050312962334280000000000016400000000016400002000000010410404080911599800616309830408574411559097   1030000900030000   541119000121190110000000080Sein Gay Har BAK       YANGONADA     MMR11004080911599800610408000000000000000   10300001F00104100000000004100000000000000     
100   62911028202520950000000000140400000000140400002000000010410404081157217339066649800408383281816097   1030000500030000   555610110557104519000009163City Mart Ayeyarwon Br nch           MMR11004081157217339060408000000000000000   10300001 00104100000000008424000000000000     
100   95050324947866880000000000009000000000009000002000000010410404080407539709018874360408868371053097   1030000900030000   541119001081190110000000872Sein Gay Har Hledan    YANGONUT      MMR11004080407539709010408000000000000000   10300001F00104100000000002250000000000000     
100   95050310456843760000000000006450000000006450002000000010410404081324349895798580070408008541934097   1030000900030000   541119000120190110000000080Sein Gay Har BAK       YANGONADA     MMR11004081324349895790408000000000000000   10300001F00104100000000001613000000000000     
100   62443100355445150000000000076150000000076150002000000010410404080235109688405207140408687050910097   1030000900030000   541119000158190110000000084Pro (1) Global (Pazund YANGONARTAUNG MMR11004080235109688400408000000000000000   10300001F00104100000000019038000000000000     
100   95050316377977350000000000010000000000010000002000000010410404081351472147288665170408000006977136   1030000200030000   3338000100012031040000040022C2P (Myanmar) Co. Ltd Yangon        MMR11004081351472147280408000000000000000   10300001F05104100000000002100000000000000     
100   95050324411430900000000000136597000000136597002000000010410404081006353635843616680408000006975831   1010000100030000   333500010001212104000002535Internal Revenue Depar Yangon        MMR11004081006353635840408000000000000000   10300001F05104100000000060000000000000000     
100   95050319928585020000000000000980000000000980002000000010410404081313064306055190010408000006976903   1020000200030000   333400010001204104000000281Myanmar Soft-Gate Tech Yangon        MMR11004081313064306050408000000000000000   10300001F05104100000000000206000000000000     
100   95050313732480420000000000000980000000000980002000000010410404080018354835818391370408000006970897   1020000200030000   333400010001204104000000281Myanmar Soft-Gate Tech Yangon        MMR11004080018354835810408000000000000000   10300001F05104100000000000206000000000000     
100   95050310409767690000000000010000000000010000002000000010410404071632440244901951620408000006970422   1030000200030000   333800010001203104000003327KBZPay                 Yangon        MMR11004071632440244900408000000000000000   10300001F05104100000000002100000000000000     
100   95050317084233280000000000015000000000015000002000000010410404081046281628431943540408000006976158   1030000200030000   333800010001203104000003327KBZPay                 Yangon        MMR11004081046281628430408000000000000000   10300001F05104100000000003150000000000000     
100   95050315099113150000000000000980000000000980002000000010410404080946301630297234430408000006975704   1020000200030000   333400010001204104000000281Myanmar Soft-Gate Tech Yangon        MMR11004080946301630290408000000000000000   10300001F05104100000000000206000000000000     
100   62911028202000450000000000004900000000004900002000000010410404081405063506227412210408000006977218   1020000200030000   333400010001204104000000281Myanmar Soft-Gate Tech Yangon        MMR11004081405063506220408000000000000000   10300001F05104100000000001029000000000000     
100   95050316785465380000000000000980000000000980002000000010410404081405343534824934720408000006977220   1020000200030000   333400010001204104000000281Myanmar Soft-Gate Tech Yangon        MMR11004081405343534820408000000000000000   10300001F05104100000000000206000000000000     
100   95050325273694860000000000004800000000004800002000000010410404080923059804407514940408803531505097   1030000900030000   541119001358190110000000977Ocean PZD C 12         YANGONAUNG    MMR11004080923059804400408000000000000000   10300001F00104100000000001200000000000000     
100   95050318257792630000000000050800000000050800002000000010410404080742049769712341450408613121404097   1030000900030000   541119001247190110000000955City Mart JS C 6       YANGONUT      MMR11004080742049769710408000000000000000   10300001F00104100000000012700000000000000     
100   95050317465574180000000000300000000000300000002000000010410404080343331333784732220408000006972236   1030000200030000   333800010001203104000003327KBZPay                 Yangon        MMR11004080343331333780408000000000000000   10300001F05104100000000063000000000000000     
100   95050319216824370000000000300000000000300000002000000010410404080310514051152398970408000006971794   1030000200030000   333800010001203104000003327KBZPay                 Yangon        MMR11004080310514051150408000000000000000   10300001F05104100000000063000000000000000     
100   95030301100122420000000000076025000000076025002000000010410404080939489810765836410408179091648097   1030000900030000   541119001111190110000000872Sein Gay Har Hledan    YANGONUT      MMR11004080939489810760408000000000000000   10300001F00104100000000004562000000000000     
100   95050314567080940000000000013100000000013100002000000010410404080952059815041560560408426221605097   1030000900030000   541119000122190110000000080Sein Gay Har BAK       YANGONADA     MMR11004080952059815040408000000000000000   10300001F00104100000000003275000000000000     
100   95050318712627500000000000017750000000017750002000000010410404081027289829035744070408272571628097   1030000900030000   541119001266190110000000958City Mart PLST C9      YANGONMYOTHIT MMR11004081027289829030408000000000000000   10300001F00104100000000004438000000000000     
100   62911028202143010000000000088550000000088550002000000010410404081048279839196248410408927181727097   1030000900030000   541119000112190110000000077Sein Gay Har Chinatown YANGON        MMR11004081048279839190408000000000000000   10300001F00104100000000005313000000000000     
100   95050327531396450000000000002940000000002940002000000010410404080557262726537567980408000006973609   1020000200030000   333400010001204104000000281Myanmar Soft-Gate Tech Yangon        MMR11004080557262726530408000000000000000   10300001F05104100000000000617000000000000     
100   95050312613888920000000000055000000000055000002000000010410404080540481048270277280408000006973469   1030000200030000   333800010001203104000003327KBZPay                 Yangon        MMR11004080540481048270408000000000000000   10300001F05104100000000011550000000000000     
100   95050322954091830000000000300000000000300000002000000010410404080339550955030115160408000006972185   1030000200030000   333800010001203104000003327KBZPay                 Yangon        MMR11004080339550955030408000000000000000   10300001F05104100000000063000000000000000     
100   95050312781844250000000000010000000000010000002000000010410404080958542854051631870408000006975801   1030000200030000   333800010001203104000003327KBZPay                 Yangon        MMR11004080958542854050408000000000000000   10300001F05104100000000002100000000000000     
100   62443100313529540000000000001960000000001960002000000010410404080915224522839785000408000006975483   1020000200030000   333400010001204104000000281Myanmar Soft-Gate Tech Yangon        MMR11004080915224522830408000000000000000   10300001F05104100000000000412000000000000     
100   95050311780044340000000000004900000000004900002000000010410404080741311131105986800408000006974621   1020000200030000   333400010001204104000000281Myanmar Soft-Gate Tech Yangon        MMR11004080741311131100408000000000000000   10300001F05104100000000001029000000000000     
100   95050317465574180000000000050000000000050000002000000010410404080344561456068122290408000006972255   1030000200030000   333800010001203104000003327KBZPay                 Yangon        MMR11004080344561456060408000000000000000   10300001F05104100000000010500000000000000     
100   62443100389971990000000000250000000000250000002000000010410404081557252725302310520408000006977761   1030000200030000   333800010001203104000003327KBZPay                 Yangon        MMR11004081557252725300408000000000000000   10300001F05104100000000052500000000000000     
100   62443100306416880000000000014454000000014454002000000010410404081206409871289234260408781361840097   1030000900030000   581219000981190110000000788Jo Jo Hot Pot (KTY)    YANGONARTAUNG MMR11004081206409871280408000000000000000   10300001F00104100000000006143000000000000     
100   95050311768760720000000000100000000000100000002000000010410404080301253125334065240408000006971726   1030000200030000   333800010001203104000003327KBZPay                 Yangon        MMR11004080301253125330408000000000000000   10300001F05104100000000021000000000000000     
100   95050316573091630000000000004900000000004900002000000010410404080302063206222412760408000006971742   1020000200030000   333400010001204104000000281Myanmar Soft-Gate Tech Yangon        MMR11004080302063206220408000000000000000   10300001F05104100000000001029000000000000     
100   95030301100122750000000000042900000000042900002000000010410404081227519879146844810408216571851097   1030000900030000   541119001083190110000000872Sein Gay Har Hledan    YANGONUT      MMR11004081227519879140408000000000000000   10300001F00104100000000002574000000000000     
100   62911028202467900000000000010500000000010500002000000010410404081143290099412113100408000745389486   1030000200030000   541188001081000008000000294KBZ BANK               CITY MART - J MMR11004081143290099410408000000000000000   10300001 00104100000000000630000000000000     
100   95050314996291580000000000002940000000002940002000000010410404080507133713024312460408000006973153   1020000200030000   333400010001204104000000281Myanmar Soft-Gate Tech Yangon        MMR11004080507133713020408000000000000000   10300001F05104100000000000617000000000000     
100   62911028202133520000000000006204000000006204002000000010410404081221189876456805510408054511818097   1030000900030000   541119001189190110000000942City Mart HDC C 4      YANGONUT      MMR11004081221189876450408000000000000000   10300001F00104100000000000372000000000000     
100   62911028202107390000000000075000000000075000002000000010410404081338369899227269300408131082036097   1030000900030000   554119000346190110000000213New Day Energy SOK     YANGONOKKALAP MMR11004081338369899220408000000000000000   10300001F00104100000000002250000000000000     
100   95050323667276610000000000009800000000009800002000000010410404081604003400860658030408000006977783   1020000200030000   333400010001204104000000281Myanmar Soft-Gate Tech Yangon        MMR11004081604003400860408000000000000000   10300001F05104100000000002058000000000000     
100   62443100391804560000000000300000000000300000002000000010410404080303363336443724860408000006971748   1030000200030000   333800010001203104000003327KBZPay                 Yangon        MMR11004080303363336440408000000000000000   10300001F05104100000000063000000000000000     
100   95030301100157400000000000000980000000000980002000000010410404081302483248177038410408000006976862   1020000200030000   333400010001204104000000281Myanmar Soft-Gate Tech Yangon        MMR11004081302483248170408000000000000000   10300001F05104100000000000206000000000000     
100   95050319938772870000000000010000000000010000002000000010410404080013114311453774300408000006970890   1030000200030000   333800010001203104000003327KBZPay                 Yangon        MMR11004080013114311450408000000000000000   10300001F05104100000000002100000000000000     
100   62911028202913580000000000001400000000001400002000000010410404081600260150375762800408000745412721   1030000200030000   541188001304000008000000325KBZ BANK               CITY MART - A MMR11004081600260150370408000000000000000   10300001 00104100000000000084000000000000     
100   95050315144611650000000000030000000000030000002000000010410404080450582058106766460408000006972990   1030000200030000   333800010001203104000003327KBZPay                 Yangon        MMR11004080450582058100408000000000000000   10300001F05104100000000006300000000000000     
100   95050319753756490000000000015000000000015000002000000010410404071944291429863604110408000006970739   1030000200030000   333800010001203104000003327KBZPay                 Yangon        MMR11004071944291429860408000000000000000   10300001F05104100000000003150000000000000     
100   95050312498129060000000000001960000000001960002000000010410404081244321432511374460408000006976775   1020000200030000   333400010001204104000000281Myanmar Soft-Gate Tech Yangon        MMR11004081244321432510408000000000000000   10300001F05104100000000000412000000000000     
100   62911028202147720000000000015000000000015000002000000010410404081608090072965809010408000745413141   1030000200030000   541188001071000008000000314KBZ BANK               MARKETPLACE - MMR11004081608090072960408000000000000000   10300001 00104100000000000900000000000000     
100   95050319524870520000000000004900000000004900002000000010410404081059172917065078320408000006976247   1020000200030000   333400010001204104000000281Myanmar Soft-Gate Tech Yangon        MMR11004081059172917060408000000000000000   10300001F05104100000000001029000000000000     
100   95050319925596540000000000018620000000018620002000000010410404080153202320125511880408000006971205   1020000200030000   333400010001204104000000281Myanmar Soft-Gate Tech Yangon        MMR11004080153202320120408000000000000000   10300001F05104100000000003910000000000000     
100   95050322420590810000000000007500000000007500002000000010410404081008529821339644700408812381652097   1030000900030000   541119001113190110000000872Sein Gay Har Hledan    YANGONUT      MMR11004081008529821330408000000000000000   10300001F00104100000000001875000000000000     
100   95030385289348810000000000015100000000015100002000000010410404080806455141132113100408209815514113   1040001600030000   541120000555000000010000465Ocean Shwe Gone Daing  Yangon        MMR11004080806455141130408000000000000000   10300001F00104100000000000906000000000000     
100   95050312482469810000000000011200000000011200002000000010410404080926429805806663980408878561542097   1030000900030000   541119000121190110000000080Sein Gay Har BAK       YANGONADA     MMR11004080926429805800408000000000000000   10300001F00104100000000002800000000000000     
100   95050314567080940000000000009000000000009000002000000010410404080935189809000426720408072051618097   1030000900030000   541119000122190110000000080Sein Gay Har BAK       YANGONADA     MMR11004080935189809000408000000000000000   10300001F00104100000000002250000000000000     
100   62443100315110470000000000005000000000005000002000000010410404080658122812857760040408000006974171   1030000900030000   333400010001202104000002022ACS                    Yangon        MMR11004080658122812850408000000000000000   10300001F05104100000000001050000000000000     
100   95050324411430900000000000102000000000102000002000000010410404081048041804869865580408000006976168   1010000100030000   333500010001212104000002535Internal Revenue Depar Yangon        MMR11004081048041804860408000000000000000   10300001F05104100000000060000000000000000     
100   95030301100157400000000000000980000000000980002000000010410404081307033703317063910408000006976871   1020000200030000   333400010001204104000000281Myanmar Soft-Gate Tech Yangon        MMR11004081307033703310408000000000000000   10300001F05104100000000000206000000000000     
100   95050310213446310000000000004900000000004900002000000010410404081106213621815588900408000006976296   1020000200030000   333400010001204104000000281Myanmar Soft-Gate Tech Yangon        MMR11004081106213621810408000000000000000   10300001F05104100000000001029000000000000     
100   95030367537085740000000000007840000000007840002000000010410404080412474247872113100408000006972599   1020000200030000   333400010001204104000000281Myanmar Soft-Gate Tech Yangon        MMR11004080412474247870408000000000000000   10300001F05104100000000001646000000000000     
100   95050319161596230000000000000980000000000980002000000010410404080551422142010702760408000006973551   1020000200030000   333400010001204104000000281Myanmar Soft-Gate Tech Yangon        MMR11004080551422142010408000000000000000   10300001F05104100000000000206000000000000     
100   62443100392426520000000000010000000000010000002000000010410404080357492749375654490408000006972402   1030000200030000   333800010001203104000003327KBZPay                 Yangon        MMR11004080357492749370408000000000000000   10300001F05104100000000002100000000000000     
100   95050314120103040000000000002940000000002940002000000010410404080907273727833756940408000006975410   1020000200030000   333400010001204104000000281Myanmar Soft-Gate Tech Yangon        MMR11004080907273727830408000000000000000   10300001F05104100000000000617000000000000     
100   62911028202666400000000000050000000000050000002000000010410404080310444044192113100408000006971843   1030000200030000   333800010001203104000003327KBZPay                 Yangon        MMR11004080310444044190408000000000000000   10300001F05104100000000010500000000000000     
100   95050322420590810000000000011700000000011700002000000010410404080945309812681135060408289151630097   1030000900030000   541119001074190110000000872Sein Gay Har Hledan    YANGONUT      MMR11004080945309812680408000000000000000   10300001F00104100000000002925000000000000     
100   62911028202128750000000000013900000000013900002000000010410404080955049816105928110408495251604097   1030000900030000   541119001195190110000000942City Mart HDC C 10     YANGONUT      MMR11004080955049816100408000000000000000   10300001F00104100000000000834000000000000     
100   95050320953132470000000000015000000000015000002000000010410404081047149838588298190408887171714097   1030000900030000   541119000122190110000000080Sein Gay Har BAK       YANGONADA     MMR11004081047149838580408000000000000000   10300001F00104100000000003750000000000000     
100   95050327416134790000000000004900000000004900002000000010410404081358232823361629750408000006977174   1020000200030000   333400010001204104000000281Myanmar Soft-Gate Tech Yangon        MMR11004081358232823360408000000000000000   10300001F05104100000000001029000000000000     
100   62443100379116470000000000003900000000003900002000000010410404081034039831936815900408458041703097   1030000900030000   581219000371190110000000243Jo Jo Hot Pot (Junctio YANGONN       MMR11004081034039831930408000000000000000   10300001F00104100000000001658000000000000     
100   62911028202296630000000000036330000000036330002000000010410404081156299867576656610408582261829097   1030000900030000   591219000687190110000000518Shwe Ohh Pharmacy ST-6 YANGON        MMR11004081156299867570408000000000000000   10300001F00104100000000002180000000000000     
100   95050314567080940000000000000980000000000980002000000010410404080547041704968454600408000006973522   1020000200030000   333400010001204104000000281Myanmar Soft-Gate Tech Yangon        MMR11004080547041704960408000000000000000   10300001F05104100000000000206000000000000     
100   95050315017843630000000000009800000000009800002000000010410404081207433743887581770408000006976589   1020000200030000   333400010001204104000000281Myanmar Soft-Gate Tech Yangon        MMR11004081207433743880408000000000000000   10300001F05104100000000002058000000000000     
100   95050311382087030000000000001960000000001960002000000010410404081012144214043119910408000006975913   1020000200030000   333400010001204104000000281Myanmar Soft-Gate Tech Yangon        MMR11004081012144214040408000000000000000   10300001F05104100000000000412000000000000     
100   95050311959900780000000000000980000000000980002000000010410404081314324432393537520408000006976917   1020000200030000   333400010001204104000000281Myanmar Soft-Gate Tech Yangon        MMR11004081314324432390408000000000000000   10300001F05104100000000000206000000000000     
100   95050315743141220000000000001960000000001960002000000010410404081117374737283681130408000006976354   1020000200030000   333400010001204104000000281Myanmar Soft-Gate Tech Yangon        MMR11004081117374737280408000000000000000   10300001F05104100000000000412000000000000     
100   62443100340648380000000000052000000000052000002000000010410404081534220422780062360408000006977674   1030000200030000   333800010001203104000003327KBZPay                 Yangon        MMR11004081534220422780408000000000000000   10300001F05104100000000010920000000000000     
100   95050319204938440000000000015000000000015000002000000010410404081040561056906901000408000006976116   1030000200030000   333800010001203104000003327KBZPay                 Yangon        MMR11004081040561056900408000000000000000   10300001F05104100000000003150000000000000     
100   95030304441505280000000000010000000000010000002000000010410404080547461746962113100408000006973501   1030000300030000   333300010001206104000002147DICA Company Limited   Yangon        MMR11004080547461746960408000000000000000   10300001F05104100000000010000000000000000     
100   95050316812885810000000000014700000000014700002000000010410404081347471747023622610408000006977099   1020000200030000   333400010001204104000000281Myanmar Soft-Gate Tech Yangon        MMR11004081347471747020408000000000000000   10300001F05104100000000003087000000000000     
100   95050318901726910000000000015000000000015000002000000010410404080556272627594092820408000006973602   1030000200030000   333800010001203104000003327KBZPay                 Yangon        MMR11004080556272627590408000000000000000   10300001F05104100000000003150000000000000     
100   62911028202471600000000000124300000000124300002000000010410404081034255230986146600408209817523098   1040001600030000   591220000276000000010000264Shwe Ohh Pharmacy (YGH Yangon        MMR11004081034255230980408000000000000000   10300001F00104100000000007458000000000000     
100   95050322420590810000000000012000000000012000002000000010410404081023319827231843440408160531631097   1030000900030000   541119001081190110000000872Sein Gay Har Hledan    YANGONUT      MMR11004081023319827230408000000000000000   10300001F00104100000000003000000000000000     
100   95050328074436620000000000038000000000038000002000000010410404070124120022201503290407209707002220   1030000500030000   598320001201000015172200012MAX ENERGY             PTN           MMR11004070124120022200407000000000000000   10300001 00104100000000004560000000000000     
100   95030317922148660000000000050000000000050000002000000010410404070621590021484508700407209712002148   1030000500030000   598320001303000015172200013MAX ENERGY             PTN           MMR11004070621590021480407000000000000000   10300001 00104100000000001500000000000000     
100   95030333100021460000000000026500000000026500002000000010410404070941580000964679600407209716000096   1030000500030000   591220012501014405912200125SHWE OHH PHARMACY      PTN           MMR11004070941580000960407000000000000000   10300001 00104100000000001590000000000000     
100   95030310098554020000000000046000000000046000002000000010410404070821400008544679600407209714000854   1030000500030000   531120155802000045311201558GAMONE PWINT           PTN           MMR11004070821400008540407000000000000000   10300001 00104100000000002760000000000000     
100   95050319701366650000000000015000000000015000002000000010410404071033030014406428430407209717001440   1030000500030000   569120104001008205691201040ESCORT ( CITY MALL-ST. PTN           MMR11004071033030014400407000000000000000   10300001 00104100000000003600000000000000     
100   62911028202481270000000000055000000000055000002000000010410404070402040019483802300407209710001948   1030000500030000   598320001401000015172200014MAX ENERGY             PTN           MMR11004070402040019480407000000000000000   10300001 00104100000000001650000000000000     
100   62443100317500820000000000120000000000120000002000000010410404080502033203005284170408000006973118   1030000200030000   333800010001203104000003327KBZPay                 Yangon        MMR11004080502033203000408000000000000000   10300001F05104100000000025200000000000000     
100   95050318901726910000000000020000000000020000002000000010410404080712334233053057870408000006974327   1030000200030000   333800010001203104000003327KBZPay                 Yangon        MMR11004080712334233050408000000000000000   10300001F05104100000000004200000000000000     
100   95050324411430900000000000127882000000127882002000000010410404081044331433788553490408000006976148   1010000100030000   333500010001212104000002543Internal Revenue Depar Yangon        MMR11004081044331433780408000000000000000   10300001F05104100000000060000000000000000     
100   95050316785465380000000000000980000000000980002000000010410404080753072307124164120408000006974744   1020000200030000   333400010001204104000000281Myanmar Soft-Gate Tech Yangon        MMR11004080753072307120408000000000000000   10300001F05104100000000000206000000000000     
100   95050316438375580000000000001960000000001960002000000010410404081008083808069787360408000006975872   1020000200030000   333400010001204104000000281Myanmar Soft-Gate Tech Yangon        MMR11004081008083808060408000000000000000   10300001F05104100000000000412000000000000     
100   95050324411430900000000000029500000000029500002000000010410404081017194719966595080408000006975949   1010000100030000   333500010001212104000002840Internal Revenue Depar Yangon        MMR11004081017194719960408000000000000000   10300001F05104100000000060000000000000000     
100   95050315345734110000000000002940000000002940002000000010410404080928555855465813010408000006975595   1020000200030000   333400010001204104000000281Myanmar Soft-Gate Tech Yangon        MMR11004080928555855460408000000000000000   10300001F05104100000000000617000000000000     
100   95050318463049920000000000003000000000003000002000000010410404080406217263606930940408091111116097   1030000300030000   444410118804104519000016005SP Bakery Yangon SR 5                MMR11004080406217263600408000000000000000   10300001 00104100000000001275000000000000     
100   62911028202527800000000000046005000000046005002000000010410404070100220013592712010407209707001359   1030000500030000   598320001602000015172200016MAX ENERGY             PTN           MMR11004070100220013590407000000000000000   10300001 00104100000000001380000000000000     
100   62911028202687370000000000019200000000019200002000000010410404070552530003884467110407209712000388   1030000500030000   591220132901008605912201329THEIK DI WIN SHOP      PTN           MMR11004070552530003880407000000000000000   10300001 00104100000000001152000000000000     
100   62911028202788270000000000126500000000126500002000000010410404070836080018304679600407209708001830   1030000600030000   509400000547315799420000149SHWE SAN EAIN T.C      YANGON        MMR11004070836080018300407000000000000000   10300001 00104100000000012650000000000000     
100   62443100399918110000000000025000000000025000002000000010410404070547300000065039060407000339013044   1030000300030000   531100000904000000000000641CB BANK                MGOU (KTY)    MMR11004070547300000060407000000000000000   10300001F00104100000000006000000000000000     
100   62911028202132460000000000016650000000016650002000000010410404071238290004044679600407209719000404   1030000500030000   531120155805000045311201558GAMONE PWINT           PTN           MMR11004071238290004040407000000000000000   10300001 00104100000000000999000000000000     
100   62911028202331290000000000019400000000019400002000000010410404071041350009784679600407209717000978   1030000500030000   591220014201014405912200142SHWE OHH PHARMACY      PTN           MMR11004071041350009780407000000000000000   10300001 00104100000000001164000000000000     
100   62911028202449100000000000067155000000067155002000000010410404071109260014684679600407209717001468   1030000500030000   598320001204000015172200012MAX ENERGY             PTN           MMR11004071109260014680407000000000000000   10300001 00104100000000002015000000000000     
100   62911028202595380000000000040000000000040000002000000010410404070521300014114278800407209711001411   1030000500030000   598320041902000055983200419MAX ENERGY             PTN           MMR11004070521300014110407000000000000000   10300001 00104100000000001200000000000000     
100   62911028202531350000000000023500000000023500002000000010410404081136360000544179800408000745388855   1030000200030000   541188001008000008000000008KBZ BANK               MARKETPLACE - MMR11004081136360000540408000000000000000   10300001 00104100000000001410000000000000     
100   62911028202531350000000000004900000000004900002000000010410404081137490000554187010408000745388958   1030000200030000   541188001008000008000000008KBZ BANK               MARKETPLACE - MMR11004081137490000550408000000000000000   10300001 00104100000000000294000000000000     
100   62911028202531350000000000001150000000001150002000000010410404081138550000564193700408000745389044   1030000200030000   541188001008000008000000008KBZ BANK               MARKETPLACE - MMR11004081138550000560408000000000000000   10300001 00104100000000000069000000000000     
100   62443101037081820000000000030470000000030470002000000010410404080503470007923631690408000745388641   1030000200030000   581288000549000008000004331KBZ BANK               RANGOON TEA H MMR11004080503470007920408000000000000000   10300001 00104100000000012950000000000000     
100   62911028202151340000000000002200000000002200002000000010410404081414260007962113100408000745404227   1030000200030000   541188001079000008000000294KBZ BANK               CITY MART - J MMR11004081414260007960408000000000000000   10300001 00104100000000000132000000000000     
100   95050327936713000000000000041450000000041450002000000010410404060440430000214128150406000338831138   1030000300030000   541100000449000000000000319CB BANK                ONESTOP KITCH MMR11004060440430000210406000000000000000   10300001F00104100000000010363000000000000     
100   95030380157605420000000000057050000000057050002000000010410404081546450021215680810408000745411718   1030000200030000   541188001485000008000000399KBZ BANK               OCEAN SUPERCE MMR11004081546450021210408000000000000000   10300001 00104100000000003423000000000000     
100   95030322371504830000000000008550000000008550002000000010410404081043560021492113100408000745384286   1030000200030000   541188001480000008000000399KBZ BANK               OCEAN SUPERCE MMR11004081043560021490408000000000000000   10300001 00104100000000000513000000000000     
100   62911028202204980000000000003800000000003800002000000010410404080743567293242113100408686141415097   1030000500030000   555610110576104519000009164City Mart China Town P int Cen       MMR11004080743567293240408000000000000000   10300001 00104100000000000228000000000000     
100   62911028202721270000000000005000000000005000002000000010410404071720525052178586610408000006970546   1030000200030000   333800010001203104000003327KBZPay                 Yangon        MMR11004071720525052170408000000000000000   10300001F05104100000000001050000000000000     
100   95050324411430900000000000145415000000145415002000000010410404081024585458894467640408000006976004   1010000100030000   333500010001212104000002543Internal Revenue Depar Yangon        MMR11004081024585458890408000000000000000   10300001F05104100000000060000000000000000     
100   62911028202441420000000000065400000000065400002000000010410404081017015216096042210408209817521609   1040001600030000   591220000297000000010000285Shwe Ohh Pharmacy (Nor Yangon        MMR11004081017015216090408000000000000000   10300001F00104100000000003924000000000000     
100   95050321976590420000000000028410000000028410002000000010410404081059415253170035770408209817525317   1040001600030000   541120000569000000010000465Ocean Shwe Gone Daing  Yangon        MMR11004081059415253170408000000000000000   10300001F00104100000000007103000000000000     
100   95050324247403260000000000011350000000011350002000000010410404080659127285912802590408745291324097   1030000300030000   444410125394104519000021221Myanmar Bakery CoLtd                 MMR11004080659127285910408000000000000000   10300001 00104100000000004824000000000000     
100   62911028202417590000000000030000000000030000002000000010410404080636055095872113100408209813509587   1040001600030000   598320000658000000010000527Shwe Taung Energy (YGN Yangon        MMR11004080636055095870408000000000000000   10300001F00104100000000000900000000000000     
100   95050313836159580000000000001000000000001000002000000010410404081422335233103282230408000006977293   1030000200030000   3334000100012031040000040102C2P (Myanmar) Co. Ltd Yangon        MMR11004081422335233100408000000000000000   10300001F05104100000000000210000000000000     
100   62911028202595380000000000020000000000020000002000000010410404070524250014124296310407209711001412   1030000500030000   598320041902000055983200419MAX ENERGY             PTN           MMR11004070524250014120407000000000000000   10300001 00104100000000000600000000000000     
100   95050329252108030000000000035000000000035000002000000010410404071312230012112668050407209719001211   1030000500030000   598320041901000055983200419MAX ENERGY             PTN           MMR11004071312230012110407000000000000000   10300001 00104100000000004200000000000000     
100   62911028202162640000000000055000000000055000002000000010410404070952480000894679600407209716000089   1030000500030000   5712201074010080057122010741-2-1 PUBLIC CO. LTD   PTN           MMR11004070952480000890407000000000000000   10300001 00104100000000003300000000000000     
100   62443100358839880000000000094900000000094900002000000010410404071357080000619618370407209720000061   1030000500030000   541120045801009205411200458126 STORE              PTN           MMR11004071357080000610407000000000000000   10300001 00104100000000023725000000000000     
100   62911028202107540000000000116100000000116100002000000010410404071037390000074679600407209717000007   1030000500030000   541120168401000045411201684MYANMAR BIG SHOP       PTN           MMR11004071037390000070407000000000000000   10300001 00104100000000006966000000000000     
100   62911028202169750000000000055000000000055000002000000010410404070323340002533571200407209709000253   1030000500030000   598320005201000015172200052MAX ENERGY             PTN           MMR11004070323340002530407000000000000000   10300001 00104100000000001650000000000000     
100   95030301100126550000000000067500000000067500002000000010410404071054000005144679600407209717000514   1030000500030000   531120156003000045311201560GAMONE PWINT           PTN           MMR11004071054000005140407000000000000000   10300001 00104100000000004050000000000000     
100   62911028202171550000000000050000000000050000002000000010410404070544100003854414800407209712000385   1030000500030000   591220132901008605912201329THEIK DI WIN SHOP      PTN           MMR11004070544100003850407000000000000000   10300001 00104100000000003000000000000000     
100   62911028202473840000000000106900000000106900002000000010410404081114090020562113100408000745386830   1030000200030000   541188001085000008000000294KBZ BANK               CITY MART - J MMR11004081114090020560408000000000000000   10300001 00104100000000006414000000000000     
100   62911028202684060000000000010050000000010050002000000010410404081158540021132113100408000745390835   1030000200030000   541188001287000008000000472KBZ BANK               NEIGHBOURHOOD MMR11004081158540021130408000000000000000   10300001 00104100000000000603000000000000     
100   95030333100021460000000000003840000000003840002000000010410404060939470006564052100406000338873623   1030000300030000   591200000191000000000000096CB BANK                MEDICARE STOR MMR11004060939470006560406000000000000000   10300001F00104100000000000230000000000000     
100   95050318463049920000000000006530000000006530002000000010410404060928430001977775870406000338872101   1030000300030000   531100000598000000000000408CB BANK                CAPITAL HYPER MMR11004060928430001970406000000000000000   10300001F00104100000000001567000000000000     
100   95050311736839760000000000008200000000008200002000000010410404061026190001543875220406209616000154   1030000500030000   541120024802022205411200248ORANGE (THARKAYTA)     PTN           MMR11004061026190001540406000000000000000   10300001 00104100000000002050000000000000     
100   95050318741700180000000000010277000000010277002000000010410404060954070003346038290406000338875558   1030000300030000   541100000444000000000000319CB BANK                ONESTOP KITCH MMR11004060954070003340406000000000000000   10300001F00104100000000002570000000000000     
100   95050311182936420000000000016000000000016000002000000010410404061003040003135953190406000338876784   1030000300030000   531100000823000000000000562CB BANK                MGOU          MMR11004061003040003130406000000000000000   10300001F00104100000000003840000000000000     
100   95050311077567400000000000030050000000030050002000000010410404061125440012071640860406000338887949   1030000300030000   504700000295000000000000176CB BANK                MEDICARE STOR MMR11004061125440012070406000000000000000   10300001F00104100000000007212000000000000     
100   95050311382087030000000000003920000000003920002000000010410404080722435243558185520408000006974428   1020000200030000   333400010001204104000000281Myanmar Soft-Gate Tech Yangon        MMR11004080722435243550408000000000000000   10300001F05104100000000000823000000000000     
100   95050317621139300000000000028414000000028414002000000010410404080442037264177101130408155141159097   1030000500030000   555610103981104519000003818Ocean Oattara Thiri Na PyiTaw        MMR11004080442037264170408000000000000000   10300001 00104100000000007104000000000000     
100   62911028202154800000000000050100000000050100002000000010410404080532257273122113100408231151202097   1030000500030000   555610108767104519000003818City Mart Oattara Thir NPT           MMR11004080532257273120408000000000000000   10300001 00104100000000003006000000000000     
100   95050324104751500000000000020700000000020700002000000010410404081040025235665163420408209817523566   1040001600030000   591220000285000000010000273Shwe Ohh Pharmacy (47t Yangon        MMR11004081040025235660408000000000000000   10300001F00104100000000004968000000000000     
100   95030301100129110000000000184000000000184000002000000010410404080639367282842113100408370111335097   1030000300030000   555510111120104519000009586Hugo Boss Junction Cit               MMR11004080639367282840408000000000000000   10300001 00104100000000011040000000000000     
100   95050313547265370000000000070000000000070000002000000010410404080922395239478933990408000006975541   1030000200030000   333800010001203104000003327KBZPay                 Yangon        MMR11004080922395239470408000000000000000   10300001F05104100000000014700000000000000     
100   95050317003064220000000000001960000000001960002000000010410404080121045104515767170408000006971061   1020000200030000   333400010001204104000000281Myanmar Soft-Gate Tech Yangon        MMR11004080121045104510408000000000000000   10300001F05104100000000000412000000000000     
100   95050317003064220000000000000980000000000980002000000010410404080125025502714114680408000006971087   1020000200030000   333400010001204104000000281Myanmar Soft-Gate Tech Yangon        MMR11004080125025502710408000000000000000   10300001F05104100000000000206000000000000     
100   62911028202448030000000000014050000000014050002000000010410404070901520005564679600407209715000556   1030000500030000   541120020701022205411200207ORANGE (YDG)           PTN           MMR11004070901520005560407000000000000000   10300001 00104100000000000843000000000000     
100   62911028202788270000000000092650000000092650002000000010410404070958530001284679600407209716000128   1030000500030000   541120045701005405411200457126 STORE              PTN           MMR11004070958530001280407000000000000000   10300001 00104100000000005559000000000000     
100   62911028202761360000000000534100000000534100002000000010410404070922100002104679600407209715000210   1030000500030000   569120159601019505691201596MK FASHION SHOP        PTN           MMR11004070922100002100407000000000000000   10300001 00104100000000032046000000000000     
100   95030306100081790000000000003000000000003000002000000010410404070610490001674565110407000339016759   1030000300030000   701100000830000000000000566CB BANK                MGOU          MMR11004070610490001670407000000000000000   10300001F00104100000000000306000000000000     
100   62911028202665170000000000010000000000010000002000000010410404070406330013843829100407209710001384   1030000500030000   598320001203000015172200012MAX ENERGY             PTN           MMR11004070406330013840407000000000000000   10300001 00104100000000000300000000000000     
100   62911028202400660000000000057550000000057550002000000010410404071022100007954679600407209716000795   1030000500030000   541120020902022205411200209ORANGE (HLAING)        PTN           MMR11004071022100007950407000000000000000   10300001 00104100000000003453000000000000     
100   62911028202503210000000000035000000000035000002000000010410404070922540023114679600407209715002311   1030000500030000   598320001201000015172200012MAX ENERGY             PTN           MMR11004070922540023110407000000000000000   10300001 00104100000000001050000000000000     
100   62911028202503210000000000020000000000020000002000000010410404070732240040964679600407209714004096   1030000500030000   598320001902000015172200019MAX ENERGY             PTN           MMR11004070732240040960407000000000000000   10300001 00104100000000000600000000000000     
100   62911028202185670000000000009550000000009550002000000010410404060404300007194052100406209610000719   1030000500030000   541120020801022205411200208ORANGE (TAMWE)         PTN           MMR11004060404300007190406000000000000000   10300001 00104100000000000573000000000000     
100   95050311048637960000000000013450000000013450002000000010410404061010220036532052550406000338877811   1030000300030000   541100000443000000000000319CB BANK                ONESTOP KITCH MMR11004061010220036530406000000000000000   10300001F00104100000000003363000000000000     
100   95050312539675540000000000003000000000003000002000000010410404060559000078781923720406209605007878   1030000600030000   554100000721315799420000303DENKO SHWE KYIN MDY    MANDALAY      MMR11004060559000078780406000000000000000   10300001 00104100000000000360000000000000     
100   62911028202204800000000000014900000000014900002000000010410404081455340099622113100408000745407879   1030000200030000   541188001081000008000000294KBZ BANK               CITY MART - J MMR11004081455340099620408000000000000000   10300001 00104100000000000894000000000000     
100   62911028202021240000000000025100000000025100002000000010410404081100490142152113100408000745385498   1030000200030000   541188001061000008000000314KBZ BANK               MARKETPLACE - MMR11004081100490142150408000000000000000   10300001 00104100000000001506000000000000     
100   62911028202116610000000000039767000000039767002000000010410404081505260057272113100408000745408619   1030000200030000   541188001062000008000000314KBZ BANK               MARKETPLACE - MMR11004081505260057270408000000000000000   10300001 00104100000000002386000000000000     
100   95050324411430900000000000406231000000406231002000000010410404081031170117933425840408000006976051   1010000100030000   333500010001212104000002543Internal Revenue Depar Yangon        MMR11004081031170117930408000000000000000   10300001F05104100000000060000000000000000     
100   62911028202124200000000000077843000000077843002000000010410404081447170078062113100408000745407160   1030000200030000   541188001060000008000000314KBZ BANK               MARKETPLACE - MMR11004081447170078060408000000000000000   10300001 00104100000000004671000000000000     
100   62911028202448030000000000045000000000045000002000000010410404080906185170865617910408209816517086   1040001600030000   598320000658000000010000527Shwe Taung Energy (YGN Yangon        MMR11004080906185170860408000000000000000   10300001F00104100000000001350000000000000     
100   95050329252108030000000000008500000000008500002000000010410404080648397285206022460408664241351097   1030000500030000   555610118972104519000016137City Mart South Okkala WZYD BR       MMR11004080648397285200408000000000000000   10300001 00104100000000002125000000000000     
100   62911028202789750000000000026750000000026750002000000010410404081143255305916560700408209818530591   1040001600030000   591220000271000000010000259Shwe Ohh Pharmacy (Gwa Yangon        MMR11004081143255305910408000000000000000   10300001F00104100000000001605000000000000     
100   95050313702988830000000000004900000000004900002000000010410404080729065906552256350408000006974494   1020000200030000   333400010001204104000000281Myanmar Soft-Gate Tech Yangon        MMR11004080729065906550408000000000000000   10300001F05104100000000001029000000000000     
100   62443100379321630000000000040500000000040500002000000010410404080650577284806192650408621221307097   1030000500030000   555610112532104519000010487Ocean Super Center St  ohn           MMR11004080650577284800408000000000000000   10300001 00104100000000010125000000000000     
100   62443100328876850000000000030000000000030000002000000010410404081028215226205318610408209817522620   1040001600030000   598320000659000000010000528Shwe Taung Energy (YGN Yangon        MMR11004081028215226200408000000000000000   10300001F00104100000000003600000000000000     
100   95050316638224720000000000002940000000002940002000000010410404080724445444329923100408000006974447   1020000200030000   333400010001204104000000281Myanmar Soft-Gate Tech Yangon        MMR11004080724445444320408000000000000000   10300001F05104100000000000617000000000000     
100   95050324411430900000000000205700000000205700002000000010410404081021015101654821840408000006975973   1010000100030000   333500010001212104000002840Internal Revenue Depar Yangon        MMR11004081021015101650408000000000000000   10300001F05104100000000060000000000000000     
100   62911028202154800000000000040000000000040000002000000010410404070420510047323904610407209704004732   1030000600030000   554100002322315799420000497DENKO KONE TA LA PAUNG YANGON        MMR11004070420510047320407000000000000000   10300001 00104100000000001200000000000000     
100   62911028202197630000000000011000000000011000002000000010410404070358040076493768000407209703007649   1030000600030000   554100002085315799420000471DENKO BAHAN            YANGON        MMR11004070358040076490407000000000000000   10300001 00104100000000000330000000000000     
100   62911028202393160000000000030000000000030000002000000010410404070946400085864679600407209709008586   1030000600030000   554100001218315799420000670DENKO MAWLAMYAING      MON STATE.    MMR11004070946400085860407000000000000000   10300001 00104100000000000900000000000000     
100   95030301100425380000000000040000000000040000002000000010410404071145250085874679600407000339066041   1030000300030000   598300000342000000000000222CB BANK                YANGON PETROL MMR11004071145250085870407000000000000000   10300001F00104100000000001200000000000000     
100   62443100393841160000000000070000000000070000002000000010410404070321400084627350450407209703008462   1030000600030000   554100001237315799420000691DENKO AUNG PAN         KALAW.        MMR11004070321400084620407000000000000000   10300001 00104100000000008400000000000000     
100   95030301100344930000000000021000000000021000002000000010410404071138180025024679600407209718002502   1030000500030000   581220024401000015812200244SHWE LAR HOT POT       PTN           MMR11004071138180025020407000000000000000   10300001 00104100000000002142000000000000     
100   62911028202421380000000000087000000000087000002000000010410404071006460040454679600407209716004045   1030000500030000   598320001901000015172200019MAX ENERGY             PTN           MMR11004071006460040450407000000000000000   10300001 00104100000000002610000000000000     
100   62911028202099050000000000035000000000035000002000000010410404070708240040884920210407209713004088   1030000500030000   598320001902000015172200019MAX ENERGY             PTN           MMR11004070708240040880407000000000000000   10300001 00104100000000001050000000000000     
100   95050318734435310000000000011900000000011900002000000010410404081651020120881346670408000745416124   1030000200030000   541188001349000008000000395KBZ BANK               OCEAN SUPERMA MMR11004081651020120880408000000000000000   10300001 00104100000000002975000000000000     
100   95030333816931040000000000099300000000099300002000000010410404081653500120896083210408000745416285   1030000200030000   541188001349000008000000395KBZ BANK               OCEAN SUPERMA MMR11004081653500120890408000000000000000   10300001 00104100000000005958000000000000     
100   95030353248676040000000000039100000000039100002000000010410404081731110175536307500408000745419003   1030000200030000   541188001080000008000000294KBZ BANK               CITY MART - J MMR11004081731110175530408000000000000000   10300001 00104100000000002346000000000000     
100   62911028202147720000000000061550000000061550002000000010410404081602140121025773710408000745412824   1030000200030000   541188001065000008000000314KBZ BANK               MARKETPLACE - MMR11004081602140121020408000000000000000   10300001 00104100000000003693000000000000     
100   95050310283518110000000000023000000000023000002000000010410404081033220045905739590408000745383467   1030000200030000   541188001440000008000000401KBZ BANK               OCEAN SUPERCE MMR11004081033220045900408000000000000000   10300001 00104100000000005750000000000000     
100   62911028202537390000000000002600000000002600002000000010410404081608090053815809100408000745413143   1030000200030000   541188001322000008000000306KBZ BANK               CITY MART - S MMR11004081608090053810408000000000000000   10300001 00104100000000000156000000000000     
100   95050315330275830000000000000980000000000980002000000010410404080831100110128577470408000006975106   1020000200030000   333400010001204104000000281Myanmar Soft-Gate Tech Yangon        MMR11004080831100110120408000000000000000   10300001F05104100000000000206000000000000     
100   62911028202537390000000000037050000000037050002000000010410404081558030061335749000408000745412561   1030000200030000   541188001315000008000000306KBZ BANK               CITY MART - S MMR11004081558030061330408000000000000000   10300001 00104100000000002223000000000000     
100   62443100358839880000000000052370000000052370002000000010410404080438345026291973490408209811502629   1040001600030000   581420000238000000010000226My Hill Coffeehouse    Yangon        MMR11004080438345026290408000000000000000   10300001F00104100000000006284000000000000     
100   95030367537085740000000000000980000000000980002000000010410404080622445244202113100408000006973885   1020000200030000   333400010001204104000000281Myanmar Soft-Gate Tech Yangon        MMR11004080622445244200408000000000000000   10300001F05104100000000000206000000000000     
100   95050314160856250000000000001960000000001960002000000010410404081226235623792696770408000006976682   1020000200030000   333400010001204104000000281Myanmar Soft-Gate Tech Yangon        MMR11004081226235623790408000000000000000   10300001F05104100000000000412000000000000     
100   95050324411430900000000000208688000000208688002000000010410404081028195819484893100408000006976027   1010000100030000   333500010001212104000002543Internal Revenue Depar Yangon        MMR11004081028195819480408000000000000000   10300001F05104100000000060000000000000000     
100   62443100317500820000000000010000000000010000002000000010410404080921005100751558240408000006975523   1030000200030000   333800010001203104000003327KBZPay                 Yangon        MMR11004080921005100750408000000000000000   10300001F05104100000000002100000000000000     
100   95050320205194540000000000062250000000062250002000000010410404080931045185770564650408209816518577   1040001600030000   591220000295000000010000283Shwe Ohh Pharmacy (39t Yangon        MMR11004080931045185770408000000000000000   10300001F00104100000000014940000000000000     
100   95050325388974590000000000043200000000043200002000000010410404081219335340450001250408209819534045   1040001600030000   591220000303000000010000291Shwe Ohh Pharmacy (Kyu Yangon        MMR11004081219335340450408000000000000000   10300001F00104100000000010368000000000000     
100   95050312613888920000000000001000000000001000002000000010410404081023535353427517310408000006975992   1030000200030000   333800010001203104000003327KBZPay                 Yangon        MMR11004081023535353420408000000000000000   10300001F05104100000000000210000000000000     
100   95050322426452690000000000050000000000050000002000000010410404070507180101334534200407209705010133   1030000600030000   554100001217315799420000669DENKO PHAYAR GYI       BAGO          MMR11004070507180101330407000000000000000   10300001 00104100000000006000000000000000     
100   95050320093758110000000000020000000000020000002000000010410404071049410058273804240407209710005827   1030000600030000   554100002139315799420001488DENKO MDY-12           MANDALAY      MMR11004071049410058270407000000000000000   10300001 00104100000000002400000000000000     
100   62911028202161240000000000000800000000000800002000000010410404071727260189084679600407000745355091   1030000200030000   541188001032000008000000298KBZ BANK               CITY MART - M MMR11004071727260189080407000000000000000   10300001 00104100000000000048000000000000     
100   95050314635839930000000000157400000000157400002000000010410404071043464570374861050407209717457037   1040001600030000   581420000076000000010000074Hot Pot City Ahlone    Yangon        MMR11004071043464570370407000000000000000   10300001F00104100000000018888000000000000     
100   62911028202610960000000000084000000000084000002000000010410404070709140776814914910407209707077681   1030000600030000   554100000946315799420000471DENKO BAHAN            YANGON        MMR11004070709140776810407000000000000000   10300001 00104100000000002520000000000000     
100   95050324411430900000000000025000000000025000002000000010410404070451510775604775700407209704077560   1030000600030000   554100000946315799420000471DENKO BAHAN            YANGON        MMR11004070451510775600407000000000000000   10300001 00104100000000003000000000000000     
100   95050324133333980000000000034000000000034000002000000010410404071202390439746058110407209712043974   1030000600030000   554100001756315799420001137DENKO NORTH DAGON 2    YANGON        MMR11004071202390439740407000000000000000   10300001 00104100000000004080000000000000     
100   62911028202221220000000000010000000000010000002000000010410404062246170774801897610407209722077480   1030000600030000   554100000946315799420000471DENKO BAHAN            YANGON        MMR11004062246170774800407000000000000000   10300001 00104100000000000300000000000000     
100   95050310281229490000000000100700000000100700002000000010410404081540351035843452420408000006977704   1030000200030000   333800010001203104000003327KBZPay                 Yangon        MMR11004081540351035840408000000000000000   10300001F05104100000000021147000000000000     
100   95050327996244850000000000300000000000300000002000000010410404080746071607747384000408000006974672   1030000200030000   333800010001203104000003327KBZPay                 Yangon        MMR11004080746071607740408000000000000000   10300001F05104100000000063000000000000000     
100   62911028202538950000000000050000000000050000002000000010410404081349181918577317500408000006977094   1030000200030000   333800010001203104000003327KBZPay                 Yangon        MMR11004081349181918570408000000000000000   10300001F05104100000000010500000000000000     
100   95050327531396450000000000002940000000002940002000000010410404080555232523590787850408000006973590   1020000200030000   333400010001204104000000281Myanmar Soft-Gate Tech Yangon        MMR11004080555232523590408000000000000000   10300001F05104100000000000617000000000000     
100   95050328303533000000000000010000000000010000002000000010410404080701183118781150100408000006974191   1030000200030000   3334000100012031040000040102C2P (Myanmar) Co. Ltd Yangon        MMR11004080701183118780408000000000000000   10300001F05104100000000002100000000000000     
100   62911028202057620000000000100000000000100000002000000010410404080702523252562113100408000006974219   1030000200030000   333800010001203104000003327KBZPay                 Yangon        MMR11004080702523252560408000000000000000   10300001F05104100000000021000000000000000     
100   95050327996244850000000000300000000000300000002000000010410404080710474047688100430408000006974304   1030000200030000   333800010001203104000003327KBZPay                 Yangon        MMR11004080710474047680408000000000000000   10300001F05104100000000063000000000000000     
100   95050310608512070000000000002940000000002940002000000010410404080817414741927443630408000006974963   1020000200030000   333400010001204104000000281Myanmar Soft-Gate Tech Yangon        MMR11004080817414741920408000000000000000   10300001F05104100000000000617000000000000     
100   95050329252108030000000000028150000000028150002000000010410404080643337283410823510408454151301097   1030000500030000   555610118960104519000016137City Mart South Okkala WZYD BR       MMR11004080643337283410408000000000000000   10300001 00104100000000007038000000000000     
100   95030321548759060000000000006950000000006950002000000010410404080754227294932113100408917241435097   1030000500030000   555610110601104519000009166City Mart 47 Branch                  MMR11004080754227294930408000000000000000   10300001 00104100000000000417000000000000     
100   62911028202154800000000000055000000000055000002000000010410404080556115073792113100408209812507379   1040001600030000   598320000326000000010000314PT Power Petrol Statio Nay Pyi Taw   MMR11004080556115073790408000000000000000   10300001F00104100000000001650000000000000     
100   95050316717221100000000000000980000000000980002000000010410404080825565556504251340408000006975052   1020000200030000   333400010001204104000000281Myanmar Soft-Gate Tech Yangon        MMR11004080825565556500408000000000000000   10300001F05104100000000000206000000000000     
100   95050321798808970000000000035000000000035000002000000010410404080928525852046238520408000006975592   1030000200030000   333800010001203104000003327KBZPay                 Yangon        MMR11004080928525852040408000000000000000   10300001F05104100000000007350000000000000     
100   62443100364681690000000000055150000000055150002000000010410404080518597269280837290408759491112097   1030000300030000   555510124365104519000020166Makro Myanmar                        MMR11004080518597269280408000000000000000   10300001 00104100000000013236000000000000     
100   95050313168701670000000000000980000000000980002000000010410404081520475047626757390408000006977610   1020000200030000   333400010001204104000000281Myanmar Soft-Gate Tech Yangon        MMR11004081520475047620408000000000000000   10300001F05104100000000000206000000000000     
100   62443100373945130000000000050000000000050000002000000010410404080740575129037639290408209814512903   1040001600030000   598320000314000000010000302PT Power Petrol Statio Yangon        MMR11004080740575129030408000000000000000   10300001F00104100000000006000000000000000     
100   95030346179196360000000000050000000000050000002000000010410404070445284367264053000407209711436726   1040001600030000   598320000856000000010000609Terminal Petrol Statio Yangon        MMR11004070445284367260407000000000000000   10300001F00104100000000001500000000000000     
100   95050322420590810000000000263750000000263750002000000010410404081111189849027411580408517411718097   1030000900030000   481219000916190110000000725Snoopy Mobile ( 7 )Hle YANGONUT      MMR11004081111189849020408000000000000000   10300001F00104100000000063300000000000000     
100   62911028202295310000000000010000000000010000002000000010410404080612107278632113100408889481207097   1030000500030000   555610112532104519000010487Ocean Super Center St  ohn           MMR11004080612107278630408000000000000000   10300001 00104100000000000600000000000000     
100   95050325273694860000000000020163000000020163002000000010410404080924029804742266580408823541502097   1030000900030000   541119001358190110000000977Ocean PZD C 12         YANGONAUNG    MMR11004080924029804740408000000000000000   10300001F00104100000000005041000000000000     
100   95030301100129110000000000039004000000039004002000000010410404080926287311005749810408886581517097   1030000500030000   555610112248104519000010487Ocean Super Center St  ohn           MMR11004080926287311000408000000000000000   10300001 00104100000000002340000000000000     
100   62911028202423360000000000002000000000002000002000000010410404081207317341226723310408649401831097   1030000500030000   555610104043104519000003821City Mart North Point  enter         MMR11004081207317341220408000000000000000   10300001 00104100000000000120000000000000     
100   95030306100081790000000000035000000000035000002000000010410404070450060006004090410407209711000600   1030000500030000   806220022601000018062200226DR.Z                   PTN           MMR11004070450060006000407000000000000000   10300001 00104100000000002100000000000000     
100   62911028202789750000000000036975000000036975002000000010410404081050427330886393000408382451728097   1030000300030000   555510125344104519000010634Asia Royal Co Ltd                    MMR11004081050427330880408000000000000000   10300001 00104100000000002219000000000000     
100   95050312498129060000000000002940000000002940002000000010410404080118434843160809710408000006971052   1020000200030000   333400010001204104000000281Myanmar Soft-Gate Tech Yangon        MMR11004080118434843160408000000000000000   10300001F05104100000000000617000000000000     
100   95050324411430900000000000370644000000370644002000000010410404081012394239066169530408000006975906   1010000100030000   333500010001212104000002535Internal Revenue Depar Yangon        MMR11004081012394239060408000000000000000   10300001F05104100000000060000000000000000     
100   62911028202109860000000000026400000000026400002000000010410404081951440193287150800408000745426332   1030000200030000   541188001030000008000000298KBZ BANK               CITY MART - M MMR11004081951440193280408000000000000000   10300001 00104100000000001584000000000000     
100   95050314307746340000000000000980000000000980002000000010410404080534290429078199310408000006973406   1020000200030000   333400010001204104000000281Myanmar Soft-Gate Tech Yangon        MMR11004080534290429070408000000000000000   10300001F05104100000000000206000000000000     
100   95050311959900780000000000000980000000000980002000000010410404080937580758684256080408000006975647   1020000200030000   333400010001204104000000281Myanmar Soft-Gate Tech Yangon        MMR11004080937580758680408000000000000000   10300001F05104100000000000206000000000000     
100   62911028202057620000000000040000000000040000002000000010410404080441371137142113100408000006972889   1030000200030000   333800010001203104000003327KBZPay                 Yangon        MMR11004080441371137140408000000000000000   10300001F05104100000000008400000000000000     
100   95050327531396450000000000002940000000002940002000000010410404080559082908597142500408000006973632   1020000200030000   333400010001204104000000281Myanmar Soft-Gate Tech Yangon        MMR11004080559082908590408000000000000000   10300001F05104100000000000617000000000000     
100   95030301100157400000000000000980000000000980002000000010410404081304333433457049000408000006976865   1020000200030000   333400010001204104000000281Myanmar Soft-Gate Tech Yangon        MMR11004081304333433450408000000000000000   10300001F05104100000000000206000000000000     
100   95050316717221100000000000000980000000000980002000000010410404080824395439848294590408000006975036   1020000200030000   333400010001204104000000281Myanmar Soft-Gate Tech Yangon        MMR11004080824395439840408000000000000000   10300001F05104100000000000206000000000000     
100   62911028202074950000000000045289000000045289002000000010410404080259377253102113100408872490910097   1030000500030000   555610112236104519000010487Ocean Super Center St  ohn           MMR11004080259377253100408000000000000000   10300001 00104100000000002717000000000000     
100   62443100379321630000000000109800000000109800002000000010410404080702357286624455070408840341308097   1030000500030000   555610112232104519000010487Ocean Super Center St  ohn           MMR11004080702357286620408000000000000000   10300001 00104100000000027450000000000000     
100   95050313067820340000000000079000000000079000002000000010410404080821585158231344300408000006975007   1030000200030000   333800010001203104000003327KBZPay                 Yangon        MMR11004080821585158230408000000000000000   10300001F05104100000000016590000000000000     
100   62911028202466750000000000085200000000085200002000000010410404080841245158362113100408209815515836   1040001600030000   591220000278000000010000266Shwe Ohh Pharmacy (Bah Yangon        MMR11004080841245158360408000000000000000   10300001F00104100000000005112000000000000     
100   62911028202192350000000000110800000000110800002000000010410404080917567309345692900408691481547097   1030000300030000   555510124685104519000020166Makro Myanmar                        MMR11004080917567309340408000000000000000   10300001 00104100000000006648000000000000     
100   62911028202616250000000000124150000000124150002000000010410404080833337301912113100408825061556097   1030000500030000   555610112234104519000010487Ocean Super Center St  ohn           MMR11004080833337301910408000000000000000   10300001 00104100000000007449000000000000     
100   62911028202400660000000000043050000000043050002000000010410404080853517304965547510408195241534097   1030000300030000   555510122465104519000018792S Hair N Beauty Studio               MMR11004080853517304960408000000000000000   10300001 00104100000000002583000000000000     
100   62443100313529540000000000005380000000005380002000000010410404071051100003028846780407209717000302   1030000500030000   531120155905000045311201559GAMONE PWINT           PTN           MMR11004071051100003020407000000000000000   10300001 00104100000000001291000000000000     
100   95050324411430900000000000089360000000089360002000000010410404081035420542571858450408000006976079   1010000100030000   333500010001212104000002543Internal Revenue Depar Yangon        MMR11004081035420542570408000000000000000   10300001F05104100000000060000000000000000     
100   95030308100042590000000000160500000000160500002000000010410404071221540007334679600407209718000733   1030000500030000   598320001702000015172200017MAX ENERGY             PTN           MMR11004071221540007330407000000000000000   10300001 00104100000000004815000000000000     
100   95050316573091630000000000011350000000011350002000000010410404080959337316895532540408638291640097   1030000300030000   555510124689104519000020166Makro Myanmar                        MMR11004080959337316890408000000000000000   10300001 00104100000000002724000000000000     
100   62443100363668680000000000054000000000054000002000000010410404071154580021111265140407209718002111   1030000500030000   598320001301000015172200013MAX ENERGY             PTN           MMR11004071154580021110407000000000000000   10300001 00104100000000006480000000000000     
100   62911028202295310000000000019700000000019700002000000010410404080605527276692113100408665361232097   1030000500030000   555610112234104519000010487Ocean Super Center St  ohn           MMR11004080605527276690408000000000000000   10300001 00104100000000001182000000000000     
100   95050324154190880000000000035000000000035000002000000010410404070634480016982464310407209713001698   1030000500030000   598320002104000015172200021MAX ENERGY             PTN           MMR11004070634480016980407000000000000000   10300001 00104100000000004200000000000000     
100   95050312360118350000000000013640000000013640002000000010410404070607210022463046190407000339016215   1030000300030000   591200000169000000000000084CB BANK                MEDICARE STOR MMR11004070607210022460407000000000000000   10300001F00104100000000003274000000000000     
