100   95050313817486860000000000013150000000013150002000000010410404161225250040918658190416000745701497   1030000200030000   541188001424000008000000401KBZ BANK               OCEAN SUPERCE MMR11004161225250040910416000000000000000   10300001 00104100000000003288000000000000     
100   95050311806372620000000000037400000000037400002000000010410404161634220047407533230416000745707378   1030000200030000   541188001440000008000000401KBZ BANK               OCEAN SUPERCE MMR11004161634220047400416000000000000000   10300001 00104100000000009350000000000000     
100   62911028202446540000000000014050000000014050002000000010410404161032590007146685900416000745698723   1030000200030000   541188001021000008000000298KBZ BANK               CITY MART - M MMR11004161032590007140416000000000000000   10300001 00104100000000000843000000000000     
100   62911028202151910000000000063750000000063750002000000010410404160251210028486685900416000745697099   1030000200030000   581288000098000008000003562KBZ BANK               CANTON PARADI MMR11004160251210028480416000000000000000   10300001 00104100000000006503000000000000     
100   62443100318296470000000000025200000000025200002000000010410404160649490028600645200416000745702759   1030000200030000   581288000098000008000003562KBZ BANK               CANTON PARADI MMR11004160649490028600416000000000000000   10300001 00104100000000010710000000000000     
100   62911028202169750000000000191831000000191831002000000010410404161042090006476685900416000745698940   1030000200030000   541188001040000008000000010KBZ BANK               MARKETPLACE - MMR11004161042090006470416000000000000000   10300001 00104100000000011510000000000000     
100   95050313640946520000000000026500000000026500002000000010410404160915270821701788050416210616082170   1040001600030000   541120000557000000010000465Ocean Shwe Gone Daing  Yangon        MMR11004160915270821700416000000000000000   10300001F00104100000000006625000000000000     
100   95050314950595330000000000003000000000003000002000000010410404161311374137566086880416000007005795   1030000200030000   3338000100012031040000040022C2P (Myanmar) Co. Ltd Yangon        MMR11004161311374137560416000000000000000   10300001F05104100000000000630000000000000     
100   62911028202249380000000000000980000000000980002000000010410404161123325332926685900416000007005461   1020000200030000   333400010001204104000000281Myanmar Soft-Gate Tech Yangon        MMR11004161123325332920416000000000000000   10300001F05104100000000000206000000000000     
100   95050316818236190000000000004900000000004900002000000010410404161439200920893816870416000007006082   1020000200030000   333400010001204104000000281Myanmar Soft-Gate Tech Yangon        MMR11004161439200920890416000000000000000   10300001F05104100000000001029000000000000     
100   95030301100126220000000000026150000000026150002000000010410404160302588142806685900416835360918105   1030000500030000   555610118966104519000016137City Mart South Okkala WZYD BR       MMR11004160302588142800416000000000000000   10300001 00104100000000001569000000000000     
100   95050316043499650000000000005000000000005000002000000010410404160834160416355893520416000007005053   1030000200030000   333800010001203104000003327KBZPay                 Yangon        MMR11004160834160416350416000000000000000   10300001F05104100000000001050000000000000     
100   95050316785465380000000000000980000000000980002000000010410404160741151115393135830416000007004921   1020000200030000   333400010001204104000000281Myanmar Soft-Gate Tech Yangon        MMR11004160741151115390416000000000000000   10300001F05104100000000000206000000000000     
100   62443100313529540000000000005000000000005000002000000010410404161444551455903481150416000007006101   1030000200030000   333800010001203104000003327KBZPay                 Yangon        MMR11004161444551455900416000000000000000   10300001F05104100000000001050000000000000     
100   95050319709462380000000000001960000000001960002000000010410404160708363836310925800416000007004853   1020000200030000   333400010001204104000000281Myanmar Soft-Gate Tech Yangon        MMR11004160708363836310416000000000000000   10300001F05104100000000000412000000000000     
100   95050312675525330000000000010000000000010000002000000010410404161301313131985661420416000007005760   1030000200030000   333800010001203104000003327KBZPay                 Yangon        MMR11004161301313131980416000000000000000   10300001F05104100000000002100000000000000     
100   95050315564078030000000000020000000000020000002000000010410404160856572657095263260416000007005112   1030000200030000   3338000100012031040000040022C2P (Myanmar) Co. Ltd Yangon        MMR11004160856572657090416000000000000000   10300001F05104100000000004200000000000000     
100   95050312498129060000000000006860000000006860002000000010410404161122405240254456220416000007005459   1020000200030000   333400010001204104000000281Myanmar Soft-Gate Tech Yangon        MMR11004161122405240250416000000000000000   10300001F05104100000000001441000000000000     
100   95050316818236190000000000002940000000002940002000000010410404161443301330897671620416000007006093   1020000200030000   333400010001204104000000281Myanmar Soft-Gate Tech Yangon        MMR11004161443301330890416000000000000000   10300001F05104100000000000617000000000000     
100   95050315158357300000000000001960000000001960002000000010410404160249591959554343310416000007004010   1020000200030000   333400010001204104000000281Myanmar Soft-Gate Tech Yangon        MMR11004160249591959550416000000000000000   10300001F05104100000000000412000000000000     
100   62443100330108240000000000004900000000004900002000000010410404160906003600316887230416000007005144   1020000200030000   333400010001204104000000281Myanmar Soft-Gate Tech Yangon        MMR11004160906003600310416000000000000000   10300001F05104100000000001029000000000000     
100   62443100361813580000000000050000000000050000002000000010410404161509313931903978220416000007006173   1030000200030000   333800010001203104000003327KBZPay                 Yangon        MMR11004161509313931900416000000000000000   10300001F05104100000000010500000000000000     
100   95050320360851930000000000000980000000000980002000000010410404161214284428414384950416000007005624   1020000200030000   333400010001204104000000281Myanmar Soft-Gate Tech Yangon        MMR11004161214284428410416000000000000000   10300001F05104100000000000206000000000000     
100   95050319096688200000000000010000000000010000002000000010410404160304473447220442680416000007004065   1030000200030000   333800010001203104000003327KBZPay                 Yangon        MMR11004160304473447220416000000000000000   10300001F05104100000000002100000000000000     
100   95050318617855880000000000000980000000000980002000000010410404161523475347968729470416000007006211   1020000200030000   333400010001204104000000281Myanmar Soft-Gate Tech Yangon        MMR11004161523475347960416000000000000000   10300001F05104100000000000206000000000000     
100   95050327416134790000000000000980000000000980002000000010410404161343521352036678340416000007005889   1020000200030000   333400010001204104000000281Myanmar Soft-Gate Tech Yangon        MMR11004161343521352030416000000000000000   10300001F05104100000000000206000000000000     
100   95050316601084530000000000000980000000000980002000000010410404160107373737057321700416000007003750   1020000200030000   333400010001204104000000281Myanmar Soft-Gate Tech Yangon        MMR11004160107373737050416000000000000000   10300001F05104100000000000206000000000000     
100   95050314735271470000000000000980000000000980002000000010410404161110464046870555590416000007005421   1020000200030000   333400010001204104000000281Myanmar Soft-Gate Tech Yangon        MMR11004161110464046870416000000000000000   10300001F05104100000000000206000000000000     
100   95050314950595330000000000001000000000001000002000000010410404161317564756609562050416000007005815   1030000200030000   3338000100012031040000040022C2P (Myanmar) Co. Ltd Yangon        MMR11004161317564756600416000000000000000   10300001F05104100000000000210000000000000     
100   95050310685238570000000000001000000000001000002000000010410404161622495249807735750416000007006335   1030000200030000   3334000100012031040000040102C2P (Myanmar) Co. Ltd Yangon        MMR11004161622495249800416000000000000000   10300001F05104100000000000210000000000000     
100   95050327416134790000000000004900000000004900002000000010410404161322565256121430020416000007005830   1020000200030000   333400010001204104000000281Myanmar Soft-Gate Tech Yangon        MMR11004161322565256120416000000000000000   10300001F05104100000000001029000000000000     
100   95050316231020800000000000008500000000008500002000000010410404160751138166339660660416791211431105   1030000500030000   555610120970104519000017733City Express MCS 14                  MMR11004160751138166330416000000000000000   10300001 00104100000000002125000000000000     
100   95050315110306410000000000002000000000002000002000000010410404160936190619445831300416000007005201   1030000200030000   333800010001203104000003327KBZPay                 Yangon        MMR11004160936190619440416000000000000000   10300001F05104100000000000420000000000000     
100   62911028202417590000000000020000000000020000002000000010410404161107250903246685900416210618090324   1040001600030000   598320000854000000010000608Terminal Petrol Statio Yangon        MMR11004161107250903240416000000000000000   10300001F00104100000000000600000000000000     
100   95050313968650950000000000000980000000000980002000000010410404160651512151840148550416000007004799   1020000200030000   333400010001204104000000281Myanmar Soft-Gate Tech Yangon        MMR11004160651512151840416000000000000000   10300001F05104100000000000206000000000000     
100   62911028202204560000000000038950000000038950002000000010410404161325131785946685900416394551913105   1030000900030000   581219001545190110000001119Paradise Hot Pot       YANGONUT      MMR11004161325131785940416000000000000000   10300001F00104100000000003973000000000000     
100   95050319938772870000000000000980000000000980002000000010410404161201423142972114940416000007005599   1020000200030000   333400010001204104000000281Myanmar Soft-Gate Tech Yangon        MMR11004161201423142970416000000000000000   10300001F05104100000000000206000000000000     
100   95050317100052460000000000000700000000000700002000000010410404160650152015424900230416000007004796   1030000200030000   333800010001203104000003327KBZPay                 Yangon        MMR11004160650152015420416000000000000000   10300001F05104100000000000147000000000000     
100   95050319870763910000000000000980000000000980002000000010410404160207463746248315250416000007003898   1020000200030000   333400010001204104000000281Myanmar Soft-Gate Tech Yangon        MMR11004160207463746240416000000000000000   10300001F05104100000000000206000000000000     
100   95050312498129060000000000003920000000003920002000000010410404160454452445509716040416000007004443   1020000200030000   333400010001204104000000281Myanmar Soft-Gate Tech Yangon        MMR11004160454452445500416000000000000000   10300001F05104100000000000823000000000000     
100   62911028202910770000000000047500000000047500002000000010410404160335458145066685900416998061035105   1030000500030000   555610104032104519000003821City Mart North Point  enter         MMR11004160335458145060416000000000000000   10300001 00104100000000002850000000000000     
100   95050325630928770000000000002940000000002940002000000010410404160924115411897461960416000007005176   1020000200030000   333400010001204104000000281Myanmar Soft-Gate Tech Yangon        MMR11004160924115411890416000000000000000   10300001F05104100000000000617000000000000     
100   62443100340648380000000000030000000000030000002000000010410404160049211921724697500416000007003728   1030000200030000   333800010001203104000003327KBZPay                 Yangon        MMR11004160049211921720416000000000000000   10300001F05104100000000006300000000000000     
100   95050313968650950000000000000980000000000980002000000010410404160551082108973409440416000007004603   1020000200030000   333400010001204104000000281Myanmar Soft-Gate Tech Yangon        MMR11004160551082108970416000000000000000   10300001F05104100000000000206000000000000     
100   95050320360851930000000000000980000000000980002000000010410404161212374237004810410416000007005617   1020000200030000   333400010001204104000000281Myanmar Soft-Gate Tech Yangon        MMR11004161212374237000416000000000000000   10300001F05104100000000000206000000000000     
100   95050312675525330000000000020000000000020000002000000010410404161210584058051335280416000007005615   1030000200030000   333800010001203104000003327KBZPay                 Yangon        MMR11004161210584058050416000000000000000   10300001F05104100000000004200000000000000     
100   95050319528093960000000000000980000000000980002000000010410404161418214821640932940416000007006016   1020000200030000   333400010001204104000000281Myanmar Soft-Gate Tech Yangon        MMR11004161418214821640416000000000000000   10300001F05104100000000000206000000000000     
100   62911028202077010000000000000980000000000980002000000010410404160455582558676685900416000007004447   1020000200030000   333400010001204104000000281Myanmar Soft-Gate Tech Yangon        MMR11004160455582558670416000000000000000   10300001F05104100000000000206000000000000     
100   95050316736513170000000000000980000000000980002000000010410404160802423242055760030416000007004975   1020000200030000   333400010001204104000000281Myanmar Soft-Gate Tech Yangon        MMR11004160802423242050416000000000000000   10300001F05104100000000000206000000000000     
100   95050312224678430000000000001960000000001960002000000010410404160202453245545691090416000007003890   1020000200030000   333400010001204104000000281Myanmar Soft-Gate Tech Yangon        MMR11004160202453245540416000000000000000   10300001F05104100000000000412000000000000     
100   95050319996628650000000000000980000000000980002000000010410404161425195519024690910416000007006036   1020000200030000   333400010001204104000000281Myanmar Soft-Gate Tech Yangon        MMR11004161425195519020416000000000000000   10300001F05104100000000000206000000000000     
100   62911028202204490000000000015400000000015400002000000010410404160417291726796685900416615471029105   1030000900030000   581219000715190110000000546Akkhaya Tea House(Dago YANGON        MMR11004160417291726790416000000000000000   10300001F00104100000000001571000000000000     
100   95050312498129060000000000000980000000000980002000000010410404161141251125904739100416000007005539   1020000200030000   333400010001204104000000281Myanmar Soft-Gate Tech Yangon        MMR11004161141251125900416000000000000000   10300001F05104100000000000206000000000000     
100   95050317338786370000000000003000000000003000002000000010410404161215454545007860120416000007005629   1030000200030000   3334000100012031040000040102C2P (Myanmar) Co. Ltd Yangon        MMR11004161215454545000416000000000000000   10300001F05104100000000000630000000000000     
100   95050319331315630000000000001960000000001960002000000010410404160801453145479235200416000007004973   1020000200030000   333400010001204104000000281Myanmar Soft-Gate Tech Yangon        MMR11004160801453145470416000000000000000   10300001F05104100000000000412000000000000     
100   95050311931431670000000000004900000000004900002000000010410404161026085608107434660416000007005311   1020000200030000   333400010001204104000000281Myanmar Soft-Gate Tech Yangon        MMR11004161026085608100416000000000000000   10300001F05104100000000001029000000000000     
100   95050310213446310000000000004900000000004900002000000010410404160426215621012712730416000007004360   1020000200030000   333400010001204104000000281Myanmar Soft-Gate Tech Yangon        MMR11004160426215621010416000000000000000   10300001F05104100000000001029000000000000     
100   95050319978637470000000000010000000000010000002000000010410404160236080608757038820416000007003966   1030000200030000   3338000100012031040000040022C2P (Myanmar) Co. Ltd Yangon        MMR11004160236080608750416000000000000000   10300001F05104100000000002100000000000000     
100   95030301100102610000000000020000000000020000002000000010410404161345191519266685900416000007005892   1030000200030000   333800010001203104000003327KBZPay                 Yangon        MMR11004161345191519260416000000000000000   10300001F05104100000000004200000000000000     
100   95050314996291580000000000001960000000001960002000000010410404161248401840372611710416000007005717   1020000200030000   333400010001204104000000281Myanmar Soft-Gate Tech Yangon        MMR11004161248401840370416000000000000000   10300001F05104100000000000412000000000000     
100   62443101076362230000000000078385000000078385002000000010410404161115221773687931430416172451722105   1030000900030000   701119000076190110000000024Lotte Hotel            YANGON        MMR11004161115221773680416000000000000000   10300001F00104100000000033314000000000000     
100   62443100392426520000000000010000000000010000002000000010410404160522015201942696750416000007004524   1030000200030000   333800010001203104000003327KBZPay                 Yangon        MMR11004160522015201940416000000000000000   10300001F05104100000000002100000000000000     
100   95050314570621780000000000000980000000000980002000000010410404160222025202640939490416000007003933   1020000200030000   333400010001204104000000281Myanmar Soft-Gate Tech Yangon        MMR11004160222025202640416000000000000000   10300001F05104100000000000206000000000000     
100   95030353305053700000000000062150000000062150002000000010410404160432098149396685900416344021103105   1030000300030000   555510124696104519000020166Makro Myanmar                        MMR11004160432098149390416000000000000000   10300001 00104100000000003729000000000000     
100   95050310213446310000000000004900000000004900002000000010410404160836550655561141840416000007005066   1020000200030000   333400010001204104000000281Myanmar Soft-Gate Tech Yangon        MMR11004160836550655560416000000000000000   10300001F05104100000000001029000000000000     
100   62911028202803930000000000050000000000050000002000000010410404161244201420746685900416000007005705   1030000200030000   333800010001203104000003327KBZPay                 Yangon        MMR11004161244201420740416000000000000000   10300001F05104100000000010500000000000000     
100   95050312160676580000000000005000000000005000002000000010410404160353122312160585300416000007004228   1030000200030000   333800010001203104000003327KBZPay                 Yangon        MMR11004160353122312160416000000000000000   10300001F05104100000000001050000000000000     
100   95050318214455130000000000002940000000002940002000000010410404160251172117874768770416000007004021   1020000200030000   333400010001204104000000281Myanmar Soft-Gate Tech Yangon        MMR11004160251172117870416000000000000000   10300001F05104100000000000617000000000000     
100   95050311959900780000000000000980000000000980002000000010410404161309153915096512340416000007005790   1020000200030000   333400010001204104000000281Myanmar Soft-Gate Tech Yangon        MMR11004161309153915090416000000000000000   10300001F05104100000000000206000000000000     
100   95050320360851930000000000000980000000000980002000000010410404161209203920961689480416000007005609   1020000200030000   333400010001204104000000281Myanmar Soft-Gate Tech Yangon        MMR11004161209203920960416000000000000000   10300001F05104100000000000206000000000000     
100   95050311419479170000000000001960000000001960002000000010410404161500593059738232820416000007006151   1020000200030000   333400010001204104000000281Myanmar Soft-Gate Tech Yangon        MMR11004161500593059730416000000000000000   10300001F05104100000000000412000000000000     
100   62911028202660950000000000010000000000010000002000000010410404160756112611946685900416000007004957   1030000200030000   333800010001203104000003327KBZPay                 Yangon        MMR11004160756112611940416000000000000000   10300001F05104100000000002100000000000000     
100   95050312498129060000000000001960000000001960002000000010410404160228465846451364950416000007003948   1020000200030000   333400010001204104000000281Myanmar Soft-Gate Tech Yangon        MMR11004160228465846450416000000000000000   10300001F05104100000000000412000000000000     
100   95050310213446310000000000009800000000009800002000000010410404160828575857466390160416000007005038   1020000200030000   333400010001204104000000281Myanmar Soft-Gate Tech Yangon        MMR11004160828575857460416000000000000000   10300001F05104100000000002058000000000000     
100   62911028202169750000000000020500000000020500002000000010410404160510260682706685900416210612068270   1040001600030000   541120000571000000010000465Ocean Shwe Gone Daing  Yangon        MMR11004160510260682700416000000000000000   10300001F00104100000000001230000000000000     
100   95050316997303010000000000000980000000000980002000000010410404160454102410284467710416000007004442   1020000200030000   333400010001204104000000281Myanmar Soft-Gate Tech Yangon        MMR11004160454102410280416000000000000000   10300001F05104100000000000206000000000000     
100   95050312498129060000000000000980000000000980002000000010410404160800043004336610990416000007004971   1020000200030000   333400010001204104000000281Myanmar Soft-Gate Tech Yangon        MMR11004160800043004330416000000000000000   10300001F05104100000000000206000000000000     
100   62911028202440680000000000011900000000011900002000000010410404160831360798386685900416210615079838   1040001600030000   591220000287000000010000275Shwe Ohh Pharmacy (Wit Yangon        MMR11004160831360798380416000000000000000   10300001F00104100000000000714000000000000     
100   62911028202068440000000000001000000000001000002000000010410404160344211421326685900416000007004198   1030000200030000   3334000100012031040000040102C2P (Myanmar) Co. Ltd Yangon        MMR11004160344211421320416000000000000000   10300001F05104100000000000210000000000000     
100   95050315298771650000000000002940000000002940002000000010410404160348551855724060430416000007004210   1020000200030000   333400010001204104000000281Myanmar Soft-Gate Tech Yangon        MMR11004160348551855720416000000000000000   10300001F05104100000000000617000000000000     
100   95050310213446310000000000009800000000009800002000000010410404160827305730732284820416000007005035   1020000200030000   333400010001204104000000281Myanmar Soft-Gate Tech Yangon        MMR11004160827305730730416000000000000000   10300001F05104100000000002058000000000000     
100   95050312224678430000000000000980000000000980002000000010410404160248581858673989160416000007004004   1020000200030000   333400010001204104000000281Myanmar Soft-Gate Tech Yangon        MMR11004160248581858670416000000000000000   10300001F05104100000000000206000000000000     
100   95050313732480420000000000000980000000000980002000000010410404161323155315096181270416000007005831   1020000200030000   333400010001204104000000281Myanmar Soft-Gate Tech Yangon        MMR11004161323155315090416000000000000000   10300001F05104100000000000206000000000000     
100   95050316736513170000000000000980000000000980002000000010410404161020495049946583650416000007005298   1020000200030000   333400010001204104000000281Myanmar Soft-Gate Tech Yangon        MMR11004161020495049940416000000000000000   10300001F05104100000000000206000000000000     
100   95050320531117320000000000023625000000023625002000000010410404160838148170158738430416102081506105   1030000300030000   444410108783104519000007876The Pizza CompanyResta rant II       MMR11004160838148170150416000000000000000   10300001 00104100000000010041000000000000     
100   95050312498129060000000000004900000000004900002000000010410404161241581158441760750416000007005698   1020000200030000   333400010001204104000000281Myanmar Soft-Gate Tech Yangon        MMR11004161241581158440416000000000000000   10300001F05104100000000001029000000000000     
100   95050312498129060000000000007840000000007840002000000010410404161052312231713605300416000007005380   1020000200030000   333400010001204104000000281Myanmar Soft-Gate Tech Yangon        MMR11004161052312231710416000000000000000   10300001F05104100000000001646000000000000     
100   95050314160856250000000000002940000000002940002000000010410404160707043704796670760416000007004851   1020000200030000   333400010001204104000000281Myanmar Soft-Gate Tech Yangon        MMR11004160707043704790416000000000000000   10300001F05104100000000000617000000000000     
100   95050326228858240000000000064000000000064000002000000010410404160305068142700017170416825350924105   1030000300030000   888810125459104519000021286Shwe Taung Energy CoLt               MMR11004160305068142700416000000000000000   10300001 00104100000000007680000000000000     
100   62443100379116470000000000020200000000020200002000000010410404161034530453490909780416000007005319   1030000200030000   333800010001203104000003327KBZPay                 Yangon        MMR11004161034530453490416000000000000000   10300001F05104100000000004242000000000000     
100   62911028202169750000000000027240000000027240002000000010410404160501390677516685900416210612067751   1040001600030000   541120000553000000010000465Ocean Shwe Gone Daing  Yangon        MMR11004160501390677510416000000000000000   10300001F00104100000000001634000000000000     
100   95050314791376690000000000003920000000003920002000000010410404160543151315142252510416000007004580   1020000200030000   333400010001204104000000281Myanmar Soft-Gate Tech Yangon        MMR11004160543151315140416000000000000000   10300001F05104100000000000823000000000000     
100   95050319220344710000000000003000000000003000002000000010410404160458332833679218960416000007004456   1030000900030000   333400010001202104000002022ACS                    Yangon        MMR11004160458332833670416000000000000000   10300001F05104100000000000630000000000000     
100   62911028202423360000000000005000000000005000002000000010410404161010588178596685900416825441615105   1030000500030000   555610104043104519000003821City Mart North Point  enter         MMR11004161010588178590416000000000000000   10300001 00104100000000000300000000000000     
100   62443100390038980000000000057640000000057640002000000010410404161308038190093037170416866381942105   1030000300030000   444410118784104519000015986Yankin Heights Restaur nt            MMR11004161308038190090416000000000000000   10300001 00104100000000024497000000000000     
100   95050311419479170000000000001960000000001960002000000010410404161538160816762984500416000007006241   1020000200030000   333400010001204104000000281Myanmar Soft-Gate Tech Yangon        MMR11004161538160816760416000000000000000   10300001F05104100000000000412000000000000     
100   62911028202442250000000000021000000000021000002000000010410404150717030019226685900415210513001922   1030000500030000   598320001204000015172200012MAX ENERGY             PTN           MMR11004150717030019220415000000000000000   10300001 00104100000000000630000000000000     
100   95030307100064460000000000047000000000047000002000000010410404150236060023216685900415210509002321   1030000500030000   598320002001000015172200020MAX ENERGY             PTN           MMR11004150236060023210415000000000000000   10300001 00104100000000001410000000000000     
100   95050322149411750000000000010000000000010000002000000010410404150708450032791340400415210513003279   1030000500030000   598320001401000015172200014MAX ENERGY             PTN           MMR11004150708450032790415000000000000000   10300001 00104100000000001200000000000000     
100   62911028202147720000000000051000000000051000002000000010410404150956380019656685900415210516001965   1030000500030000   598320001601000015172200016MAX ENERGY             PTN           MMR11004150956380019650415000000000000000   10300001 00104100000000001530000000000000     
100   62911028202527490000000000046622000000046622002000000010410404150603260026926685900415210512002692   1030000500030000   598320001001000015172200010MAX ENERGY             PTN           MMR11004150603260026920415000000000000000   10300001 00104100000000001399000000000000     
100   62911028202225850000000000021000000000021000002000000010410404150138030019886685900415210508001988   1030000500030000   598320001203000015172200012MAX ENERGY             PTN           MMR11004150138030019880415000000000000000   10300001 00104100000000000630000000000000     
100   62443100355445150000000000035000000000035000002000000010410404150244580023670780370415210509002367   1030000500030000   598320002004000015172200020MAX ENERGY             PTN           MMR11004150244580023670415000000000000000   10300001 00104100000000004200000000000000     
100   62911028202527800000000000022000000000022000002000000010410404150427520022436685900415210510002243   1030000500030000   598320068301000055983200683MAX ENERGY             PTN           MMR11004150427520022430415000000000000000   10300001 00104100000000000660000000000000     
100   62911028202112730000000000002000000000002000002000000010410404151414190052326685900415000745680292   1030000200030000   541188001028000008000000298KBZ BANK               CITY MART - M MMR11004151414190052320415000000000000000   10300001 00104100000000000120000000000000     
100   95050314248677090000000000090940000000090940002000000010410404151003270037807609940415000340351629   1030000300030000   806200000192000000000000097CB BANK                AUNG YADANA H MMR11004151003270037800415000000000000000   10300001F00104100000000021826000000000000     
100   62443100309698080000000000020000000000020000002000000010410404150546550003088375820415210512000308   1030000500030000   598320005402000015172200054MAX ENERGY             PTN           MMR11004150546550003080415000000000000000   10300001 00104100000000002400000000000000     
100   62911028202593140000000000040000000000040000002000000010410404160908250818256685900416210616081825   1040001600030000   598320000658000000010000527Shwe Taung Energy (YGN Yangon        MMR11004160908250818250416000000000000000   10300001F00104100000000001200000000000000     
100   95050312224678430000000000015000000000015000002000000010410404160315484548816116550416000007004096   1030000200030000   3338000100012031040000040022C2P (Myanmar) Co. Ltd Yangon        MMR11004160315484548810416000000000000000   10300001F05104100000000003150000000000000     
100   95030301100354740000000000010000000000010000002000000010410404161038080808606685900416000007005331   1030000200030000   333800010001203104000003327KBZPay                 Yangon        MMR11004161038080808600416000000000000000   10300001F05104100000000002100000000000000     
100   95050319996628650000000000000980000000000980002000000010410404161413414341555187550416000007005998   1020000200030000   333400010001204104000000281Myanmar Soft-Gate Tech Yangon        MMR11004161413414341550416000000000000000   10300001F05104100000000000206000000000000     
100   95050313072967520000000000005000000000005000002000000010410404161104493449967505930416000007005410   1030000200030000   3338000100012031040000040022C2P (Myanmar) Co. Ltd Yangon        MMR11004161104493449960416000000000000000   10300001F05104100000000001050000000000000     
100   95050311382087030000000000004900000000004900002000000010410404160931370137984412250416000007005197   1020000200030000   333400010001204104000000281Myanmar Soft-Gate Tech Yangon        MMR11004160931370137980416000000000000000   10300001F05104100000000001029000000000000     
100   62443100373945130000000000021400000000021400002000000010410404160803090783386185490416210615078338   1040001600030000   541120000553000000010000465Ocean Shwe Gone Daing  Yangon        MMR11004160803090783380416000000000000000   10300001F00104100000000005350000000000000     
100   95050312568198510000000000001000000000001000002000000010410404160610314031808161120416000007004661   1030000200030000   3338000100012031040000040022C2P (Myanmar) Co. Ltd Yangon        MMR11004160610314031800416000000000000000   10300001F05104100000000000210000000000000     
100   95050315398070120000000000020000000000020000002000000010410404160926435643557887420416000007005182   1030000200030000   333800010001203104000003327KBZPay                 Yangon        MMR11004160926435643550416000000000000000   10300001F05104100000000004200000000000000     
100   95050319331315630000000000001960000000001960002000000010410404160805123512302710370416000007004981   1020000200030000   333400010001204104000000281Myanmar Soft-Gate Tech Yangon        MMR11004160805123512300416000000000000000   10300001F05104100000000000412000000000000     
100   95050313702988830000000000002940000000002940002000000010410404160817594759495334530416000007005014   1020000200030000   333400010001204104000000281Myanmar Soft-Gate Tech Yangon        MMR11004160817594759490416000000000000000   10300001F05104100000000000617000000000000     
100   95050314996291580000000000001960000000001960002000000010410404161251082108042186250416000007005723   1020000200030000   333400010001204104000000281Myanmar Soft-Gate Tech Yangon        MMR11004161251082108040416000000000000000   10300001F05104100000000000412000000000000     
100   62911028202514440000000000030000000000030000002000000010410404150014020031456685900415210506003145   1030000500030000   598320001404000015172200014MAX ENERGY             PTN           MMR11004150014020031450415000000000000000   10300001 00104100000000000900000000000000     
100   62443100300743690000000000066880000000066880002000000010410404160645540740343906510416210613074034   1040001600030000   581420000804000000010000580Jeff's Kitchen (Kan Ye Yangon        MMR11004160645540740340416000000000000000   10300001F00104100000000008026000000000000     
100   95050311077567400000000000002940000000002940002000000010410404161532000200907239110416000007006224   1020000200030000   333400010001204104000000281Myanmar Soft-Gate Tech Yangon        MMR11004161532000200900416000000000000000   10300001F05104100000000000617000000000000     
100   95050311547837790000000000032150000000032150002000000010410404160249360006637818470416000745697054   1030000200030000   541188002224000008000005919KBZ BANK               K-MART SUPERM MMR11004160249360006630416000000000000000   10300001 00104100000000008038000000000000     
100   62911028202116120000000000061200000000061200002000000010410404161359490032136685900416000745703702   1030000200030000   541188001521000008000000403KBZ BANK               OCEAN SUPERCE MMR11004161359490032130416000000000000000   10300001 00104100000000003672000000000000     
100   62911028202465680000000000016500000000016500002000000010410404161449280052826685900416000745704843   1030000200030000   541188001022000008000000298KBZ BANK               CITY MART - M MMR11004161449280052820416000000000000000   10300001 00104100000000000990000000000000     
100   62911028202116120000000000010300000000010300002000000010410404161401400069296685900416000745703744   1030000200030000   541188001501000008000000403KBZ BANK               OCEAN SUPERCE MMR11004161401400069290416000000000000000   10300001 00104100000000000618000000000000     
100   62911028202400660000000000067700000000067700002000000010410404161039030058066685900416000745698859   1030000200030000   541188001006000008000000008KBZ BANK               MARKETPLACE - MMR11004161039030058060416000000000000000   10300001 00104100000000004062000000000000     
100   95030302100067550000000000009000000000009000002000000010410404160510258152886685900416645411155105   1030000500030000   555610103981104519000003818Ocean Oattara Thiri Na PyiTaw        MMR11004160510258152880416000000000000000   10300001 00104100000000000540000000000000     
100   95050319161596230000000000002940000000002940002000000010410404161525185518122487430416000007006214   1020000200030000   333400010001204104000000281Myanmar Soft-Gate Tech Yangon        MMR11004161525185518120416000000000000000   10300001F05104100000000000617000000000000     
