100   62443100390038980000000000037000000000037000002000000010410404130718290022927261490413210313002292   1030000500030000   598320002701000015172200027MAX ENERGY             PTN           MMR11004130718290022920413000000000000000   10300001 00104100000000004440000000000000     
100   62911028202615340000000000002650000000002650002000000010410404130102540005696685900413210307000569   1030000500030000   541120182201000045411201822EASY MART-005          PTN           MMR11004130102540005690413000000000000000   10300001 00104100000000000159000000000000     
100   95050324154190880000000000025000000000025000002000000010410404130106190025320517010413210307002532   1030000500030000   598320001301000015172200013MAX ENERGY             PTN           MMR11004130106190025320413000000000000000   10300001 00104100000000003000000000000000     
100   62911028202221220000000000010000000000010000002000000010410404130043440026296685900413210307002629   1030000500030000   598320001303000015172200013MAX ENERGY             PTN           MMR11004130043440026290413000000000000000   10300001 00104100000000000300000000000000     
100   62443101037081820000000000057000000000057000002000000010410404130720250030652304040413210313003065   1030000500030000   598320001401000015172200014MAX ENERGY             PTN           MMR11004130720250030650413000000000000000   10300001 00104100000000006840000000000000     
100   62443100346413950000000000021000000000021000002000000010410404130011490024114247460413210306002411   1030000500030000   598320001001000015172200010MAX ENERGY             PTN           MMR11004130011490024110413000000000000000   10300001 00104100000000002520000000000000     
100   95030301100129110000000000019000000000019000002000000010410404122344400033826685900413210306003382   1030000500030000   598320001402000015172200014MAX ENERGY             PTN           MMR11004122344400033820413000000000000000   10300001 00104100000000000570000000000000     
100   62911028202440680000000000042470000000042470002000000010410404131126180028096685900413210317002809   1030000500030000   598320001202000015172200012MAX ENERGY             PTN           MMR11004131126180028090413000000000000000   10300001 00104100000000001274000000000000     
100   95050323670692380000000000010000000000010000002000000010410404151523165316705973970415000007003191   1030000200030000   333800010001203104000003327KBZPay                 Yangon        MMR11004151523165316700415000000000000000   10300001F05104100000000002100000000000000     
100   95050323133124350000000000050000000000050000002000000010410404151355302530631719150415000007002946   1030000200030000   333800010001203104000003327KBZPay                 Yangon        MMR11004151355302530630415000000000000000   10300001F05104100000000010500000000000000     
100   95050311959900780000000000002940000000002940002000000010410404151258142814755902650415000007002798   1020000200030000   333400010001204104000000281Myanmar Soft-Gate Tech Yangon        MMR11004151258142814750415000000000000000   10300001F05104100000000000617000000000000     
100   95050316901496590000000000014600000000014600002000000010410404130414010001322559320413210310000132   1030000500030000   541120045801009205411200458126 STORE              PTN           MMR11004130414010001320413000000000000000   10300001 00104100000000003650000000000000     
100   95050318131043910000000000009800000000009800002000000010410404150930500050305617080415000007002265   1020000200030000   333400010001204104000000281Myanmar Soft-Gate Tech Yangon        MMR11004150930500050300415000000000000000   10300001F05104100000000002058000000000000     
100   62911028202465680000000000016400000000016400002000000010410404150547340012196685900415000745677614   1030000200030000   541188000067000008000000298KBZ BANK               CITY MART - M MMR11004150547340012190415000000000000000   10300001 00104100000000000984000000000000     
100   62911028202112730000000000006700000000006700002000000010410404151521280057576685900415000745681787   1030000200030000   541188001033000008000000298KBZ BANK               CITY MART - M MMR11004151521280057570415000000000000000   10300001 00104100000000000402000000000000     
100   95050319996628650000000000000980000000000980002000000010410404150603473347994390070415000007001748   1020000200030000   333400010001204104000000281Myanmar Soft-Gate Tech Yangon        MMR11004150603473347990415000000000000000   10300001F05104100000000000206000000000000     
100   95050314950595330000000000004000000000004000002000000010410404151516104610895548460415000007003173   1030000200030000   3338000100012031040000040022C2P (Myanmar) Co. Ltd Yangon        MMR11004151516104610890415000000000000000   10300001F05104100000000000840000000000000     
100   95050328074436620000000000004900000000004900002000000010410404150424255425086893520415000007001475   1020000200030000   333400010001204104000000281Myanmar Soft-Gate Tech Yangon        MMR11004150424255425080415000000000000000   10300001F05104100000000001029000000000000     
100   62911028202520530000000000010000000000010000002000000010410404150844581458436685900415000007002163   1030000500030000   333800010001201104000003863AYA Pay                Yangon        MMR11004150844581458430415000000000000000   10300001F05104100000000002100000000000000     
100   62443100330105920000000000005000000000005000002000000010410404151350232023782570070415000007002935   1030000200030000   333800010001203104000003327KBZPay                 Yangon        MMR11004151350232023780415000000000000000   10300001F05104100000000001050000000000000     
100   95050315955808830000000000130000000000130000002000000010410404151358382838225194310415000007002953   1030000200030000   333800010001203104000003327KBZPay                 Yangon        MMR11004151358382838220415000000000000000   10300001F05104100000000027300000000000000     
100   95050319161596230000000000002940000000002940002000000010410404151225435543719449090415000007002691   1020000200030000   333400010001204104000000281Myanmar Soft-Gate Tech Yangon        MMR11004151225435543710415000000000000000   10300001F05104100000000000617000000000000     
100   95050318608138520000000000004000000000004000002000000010410404151025455545042567400415000007002380   1030000200030000   333800010001203104000003327KBZPay                 Yangon        MMR11004151025455545040415000000000000000   10300001F05104100000000000840000000000000     
100   95050312675873230000000000002940000000002940002000000010410404150229575957037049930415000007001133   1020000200030000   333400010001204104000000281Myanmar Soft-Gate Tech Yangon        MMR11004150229575957030415000000000000000   10300001F05104100000000000617000000000000     
100   62443100337100010000000000022300000000022300002000000010410404150459381594722191360415100291138104   1030000900030000   541119001151190110000000930OCEAN HTY C 1          YANGONTHARYA  MMR11004150459381594720415000000000000000   10300001F00104100000000005575000000000000     
100   95050312498129060000000000000980000000000980002000000010410404150342031203997305210415000007001352   1020000200030000   333400010001204104000000281Myanmar Soft-Gate Tech Yangon        MMR11004150342031203990415000000000000000   10300001F05104100000000000206000000000000     
100   95050314557307430000000000001960000000001960002000000010410404150739580958409602820415000007001992   1020000200030000   333400010001204104000000281Myanmar Soft-Gate Tech Yangon        MMR11004150739580958400415000000000000000   10300001F05104100000000000412000000000000     
100   95050312498129060000000000015680000000015680002000000010410404151349151915362144610415000007002931   1020000200030000   333400010001204104000000281Myanmar Soft-Gate Tech Yangon        MMR11004151349151915360415000000000000000   10300001F05104100000000003293000000000000     
100   95050314567080940000000000000980000000000980002000000010410404150346511651405411230415000007001369   1020000200030000   333400010001204104000000281Myanmar Soft-Gate Tech Yangon        MMR11004150346511651400415000000000000000   10300001F05104100000000000206000000000000     
100   95050314064416890000000000001960000000001960002000000010410404150500143014533928940415000007001569   1020000200030000   333400010001204104000000281Myanmar Soft-Gate Tech Yangon        MMR11004150500143014530415000000000000000   10300001F05104100000000000412000000000000     
100   95050316785465380000000000000980000000000980002000000010410404151018594859620914910415000007002361   1020000200030000   333400010001204104000000281Myanmar Soft-Gate Tech Yangon        MMR11004151018594859620415000000000000000   10300001F05104100000000000206000000000000     
100   62911028202807400000000000060383000000060383002000000010410404151045400087686685900415000745675479   1030000200030000   541188001245000008000000323KBZ BANK               CITY MART - I MMR11004151045400087680415000000000000000   10300001 00104100000000003623000000000000     
100   62443100363668680000000000019322000000019322002000000010410404151137470209623843840415000745676738   1030000200030000   541188001003000008000000008KBZ BANK               MARKETPLACE - MMR11004151137470209620415000000000000000   10300001 00104100000000004831000000000000     
100   95050322990383760000000000001000000000001000002000000010410404150336190619354000250415000007001324   1030000200030000   3334000100012031040000040102C2P (Myanmar) Co. Ltd Yangon        MMR11004150336190619350415000000000000000   10300001F05104100000000000210000000000000     
100   95050322990383760000000000001000000000001000002000000010410404150340021002578957700415000007001341   1030000200030000   3334000100012031040000040102C2P (Myanmar) Co. Ltd Yangon        MMR11004150340021002570415000000000000000   10300001F05104100000000000210000000000000     
100   95050315701710960000000000001960000000001960002000000010410404150257082708185822920415000007001215   1020000200030000   333400010001204104000000281Myanmar Soft-Gate Tech Yangon        MMR11004150257082708180415000000000000000   10300001F05104100000000000412000000000000     
100   95050312498129060000000000000980000000000980002000000010410404150901353135599007140415000007002202   1020000200030000   333400010001204104000000281Myanmar Soft-Gate Tech Yangon        MMR11004150901353135590415000000000000000   10300001F05104100000000000206000000000000     
100   95050327531396450000000000004900000000004900002000000010410404151120155015121576480415000007002523   1020000200030000   333400010001204104000000281Myanmar Soft-Gate Tech Yangon        MMR11004151120155015120415000000000000000   10300001F05104100000000001029000000000000     
100   62911028202105640000000000274100000000274100002000000010410404150704571608876685900415570341357104   1030000900030000   581219000368190110000000241Beauty In The Pot (PHS YANGON        MMR11004150704571608870415000000000000000   10300001F00104100000000027958000000000000     
100   95050315158357300000000000002940000000002940002000000010410404151212114211472924260415000007002651   1020000200030000   333400010001204104000000281Myanmar Soft-Gate Tech Yangon        MMR11004151212114211470415000000000000000   10300001F05104100000000000617000000000000     
100   95050317942168830000000000030000000000030000002000000010410404151000153015972227020415000007002337   1030000200030000   333800010001203104000003327KBZPay                 Yangon        MMR11004151000153015970415000000000000000   10300001F05104100000000006300000000000000     
100   95050316067768680000000000002940000000002940002000000010410404151340061006565619770415000007002909   1020000200030000   333400010001204104000000281Myanmar Soft-Gate Tech Yangon        MMR11004151340061006560415000000000000000   10300001F05104100000000000617000000000000     
100   62911028202212490000000000011400000000011400002000000010410404150326531583966685900415737560953104   1030000900030000   581219000715190110000000546Akkhaya Tea House(Dago YANGON        MMR11004150326531583960415000000000000000   10300001F00104100000000001163000000000000     
100   95050316997303010000000000002940000000002940002000000010410404151352072207949094900415000007002938   1020000200030000   333400010001204104000000281Myanmar Soft-Gate Tech Yangon        MMR11004151352072207940415000000000000000   10300001F05104100000000000617000000000000     
100   95050313968650950000000000019600000000019600002000000010410404151252182218219377780415000007002787   1020000200030000   333400010001204104000000281Myanmar Soft-Gate Tech Yangon        MMR11004151252182218210415000000000000000   10300001F05104100000000004116000000000000     
100   95050328074436620000000000004900000000004900002000000010410404150419064906736978620415000007001434   1020000200030000   333400010001204104000000281Myanmar Soft-Gate Tech Yangon        MMR11004150419064906730415000000000000000   10300001F05104100000000001029000000000000     
100   95050318951177660000000000030000000000030000002000000010410404151043211321904134790415000007002428   1030000200030000   333800010001203104000003327KBZPay                 Yangon        MMR11004151043211321900415000000000000000   10300001F05104100000000006300000000000000     
100   95050312549035820000000000030000000000030000002000000010410404151250582058548952320415000007002782   1030000200030000   333800010001203104000003327KBZPay                 Yangon        MMR11004151250582058540415000000000000000   10300001F05104100000000006300000000000000     
100   95050314567080940000000000000980000000000980002000000010410404150420245024185241040415000007001459   1020000200030000   333400010001204104000000281Myanmar Soft-Gate Tech Yangon        MMR11004150420245024180415000000000000000   10300001F05104100000000000206000000000000     
100   95050314064416890000000000001960000000001960002000000010410404151626105610085122960415000007003331   1020000200030000   333400010001204104000000281Myanmar Soft-Gate Tech Yangon        MMR11004151626105610080415000000000000000   10300001F05104100000000000412000000000000     
100   95050316421999920000000000000980000000000980002000000010410404141644251425429553380415000007000597   1020000200030000   333400010001204104000000281Myanmar Soft-Gate Tech Yangon        MMR11004141644251425420415000000000000000   10300001F05104100000000000206000000000000     
100   62911028202027440000000000042000000000042000002000000010410404151009081629796685900415239391608104   1030000900030000   554119000348190110000000215New Day Energy MYG     YANGONONE     MMR11004151009081629790415000000000000000   10300001F00104100000000001260000000000000     
100   95050319528093960000000000001960000000001960002000000010410404150747001700696212750415000007002011   1020000200030000   333400010001204104000000281Myanmar Soft-Gate Tech Yangon        MMR11004150747001700690415000000000000000   10300001F05104100000000000412000000000000     
100   95050319111666800000000000002940000000002940002000000010410404150417094709538631110415000007001444   1020000200030000   333400010001204104000000281Myanmar Soft-Gate Tech Yangon        MMR11004150417094709530415000000000000000   10300001F05104100000000000617000000000000     
100   62911028202502480000000000016548000000016548002000000010410404150959190192926685900415000745674375   1030000200030000   541188001037000008000000010KBZ BANK               MARKETPLACE - MMR11004150959190192920415000000000000000   10300001 00104100000000000993000000000000     
100   95050327531396450000000000009800000000009800002000000010410404150209393939735482540415000007001071   1020000200030000   333400010001204104000000281Myanmar Soft-Gate Tech Yangon        MMR11004150209393939730415000000000000000   10300001F05104100000000002058000000000000     
100   95050317518971470000000000015000000000015000002000000010410404150755172517401255300415000007002023   1030000200030000   3338000100012031040000040022C2P (Myanmar) Co. Ltd Yangon        MMR11004150755172517400415000000000000000   10300001F05104100000000003150000000000000     
100   95050314160856250000000000000980000000000980002000000010410404150631440144672652500415000007001830   1020000200030000   333400010001204104000000281Myanmar Soft-Gate Tech Yangon        MMR11004150631440144670415000000000000000   10300001F05104100000000000206000000000000     
100   95030301100119390000000000030000000000030000002000000010410404150738310831996685900415000007001989   1030000200030000   333800010001203104000003327KBZPay                 Yangon        MMR11004150738310831990415000000000000000   10300001F05104100000000006300000000000000     
100   95050315122972560000000000001960000000001960002000000010410404150153022302628872610415000007001030   1020000200030000   333400010001204104000000281Myanmar Soft-Gate Tech Yangon        MMR11004150153022302620415000000000000000   10300001F05104100000000000412000000000000     
100   95050315144611650000000000001960000000001960002000000010410404150356372637892106260415000007001398   1020000200030000   333400010001204104000000281Myanmar Soft-Gate Tech Yangon        MMR11004150356372637890415000000000000000   10300001F05104100000000000412000000000000     
100   95050319938772870000000000001960000000001960002000000010410404150441301130830623970415000007001524   1020000200030000   333400010001204104000000281Myanmar Soft-Gate Tech Yangon        MMR11004150441301130830415000000000000000   10300001F05104100000000000412000000000000     
100   95050312675873230000000000000980000000000980002000000010410404150351192119747063710415000007001379   1020000200030000   333400010001204104000000281Myanmar Soft-Gate Tech Yangon        MMR11004150351192119740415000000000000000   10300001F05104100000000000206000000000000     
100   95050318131043910000000000000980000000000980002000000010410404151359432943249023590415000007002961   1020000200030000   333400010001204104000000281Myanmar Soft-Gate Tech Yangon        MMR11004151359432943240415000000000000000   10300001F05104100000000000206000000000000     
100   95050312675873230000000000003000000000003000002000000010410404150518244824294815560415000007001624   1030000200030000   333800010001203104000003327KBZPay                 Yangon        MMR11004150518244824290415000000000000000   10300001F05104100000000000630000000000000     
100   95050319528093960000000000001960000000001960002000000010410404150642561256764730460415000007001850   1020000200030000   333400010001204104000000281Myanmar Soft-Gate Tech Yangon        MMR11004150642561256760415000000000000000   10300001F05104100000000000412000000000000     
100   62911028202677390000000000030000000000030000002000000010410404150841391619796685900415927111539104   1030000900030000   554119000345190110000000212New Day Energy PZD     YANGONAUNG    MMR11004150841391619790415000000000000000   10300001F00104100000000000900000000000000     
100   95050315144611650000000000002940000000002940002000000010410404151356452645558669440415000007002950   1020000200030000   333400010001204104000000281Myanmar Soft-Gate Tech Yangon        MMR11004151356452645550415000000000000000   10300001F05104100000000000617000000000000     
100   95050312498129060000000000000980000000000980002000000010410404150916044604197269560415000007002223   1020000200030000   333400010001204104000000281Myanmar Soft-Gate Tech Yangon        MMR11004150916044604190415000000000000000   10300001F05104100000000000206000000000000     
100   95030301100344690000000000050000000000050000002000000010410404151322045204116685900415000007002863   1030000200030000   333800010001203104000003327KBZPay                 Yangon        MMR11004151322045204110415000000000000000   10300001F05104100000000010500000000000000     
100   62911028202112730000000000272315000000272315002000000010410404151508480323426685900415000745681511   1030000200030000   541188001025000008000000298KBZ BANK               CITY MART - M MMR11004151508480323420415000000000000000   10300001 00104100000000016339000000000000     
100   95050310902464360000000000005880000000005880002000000010410404150202233223060525090415000007001052   1020000200030000   333400010001204104000000281Myanmar Soft-Gate Tech Yangon        MMR11004150202233223060415000000000000000   10300001F05104100000000001235000000000000     
100   95050312498129060000000000002940000000002940002000000010410404151317314731896470740415000007002850   1020000200030000   333400010001204104000000281Myanmar Soft-Gate Tech Yangon        MMR11004151317314731890415000000000000000   10300001F05104100000000000617000000000000     
100   95050311121153200000000000002940000000002940002000000010410404150033000300926078210415000007000879   1020000200030000   333400010001204104000000281Myanmar Soft-Gate Tech Yangon        MMR11004150033000300920415000000000000000   10300001F05104100000000000617000000000000     
100   62911028202023630000000000002950000000002950002000000010410404150623498081546685900415142581207104   1030000500030000   555610108767104519000003818City Mart Oattara Thir NPT           MMR11004150623498081540415000000000000000   10300001 00104100000000000177000000000000     
100   95050321057500320000000000012850000000012850002000000010410404150317079921187390310415210510992118   1040001600030000   591220000271000000010000259Shwe Ohh Pharmacy (Gwa Yangon        MMR11004150317079921180415000000000000000   10300001F00104100000000003084000000000000     
100   62911028202023630000000000016000000000016000002000000010410404150654418084496685900415375291347104   1030000500030000   555610103956104519000003818Ocean Oattara Thiri Na PyiTaw        MMR11004150654418084490415000000000000000   10300001 00104100000000000960000000000000     
100   62911028202112730000000000090000000000090000002000000010410404150442509966266685900415210511996626   1040001600030000   598320000658000000010000527Shwe Taung Energy (YGN Yangon        MMR11004150442509966260415000000000000000   10300001F00104100000000002700000000000000     
100   62911028202023630000000000066100000000066100002000000010410404150647008084046685900415337241326104   1030000500030000   555610103981104519000003818Ocean Oattara Thiri Na PyiTaw        MMR11004150647008084040415000000000000000   10300001 00104100000000003966000000000000     
100   62911028202023630000000000072000000000072000002000000010410404150223199896316685900415210509989631   1040001600030000   598320000660000000010000529Shwe Taung Energy (NPT Naypyitaw     MMR11004150223199896310415000000000000000   10300001F00104100000000002160000000000000     
100   95050319928585020000000000000980000000000980002000000010410404141727195719481205860415000007000657   1020000200030000   333400010001204104000000281Myanmar Soft-Gate Tech Yangon        MMR11004141727195719480415000000000000000   10300001F05104100000000000206000000000000     
100   95050313411345710000000000005000000000005000002000000010410404150127265726847220120415000007000968   1030000200030000   333800010001203104000003327KBZPay                 Yangon        MMR11004150127265726840415000000000000000   10300001F05104100000000001050000000000000     
100   62911028202235180000000000042717000000042717002000000010410404151016348101096685900415866471632104   1030000500030000   555610104041104519000003821City Mart North Point  enter         MMR11004151016348101090415000000000000000   10300001 00104100000000002563000000000000     
100   62911028202910770000000000070000000000070000002000000010410404150918418096016685900415412481556104   1030000500030000   555610104041104519000003821City Mart North Point  enter         MMR11004150918418096010415000000000000000   10300001 00104100000000004200000000000000     
100   62911028202441670000000000034000000000034000002000000010410404140710470018776685900414210413001877   1030000500030000   598320001204000015172200012MAX ENERGY             PTN           MMR11004140710470018770414000000000000000   10300001 00104100000000001020000000000000     
100   62911028202910770000000000006000000000006000002000000010410404150919078096066685900415422491531104   1030000500030000   555610104041104519000003821City Mart North Point  enter         MMR11004150919078096060415000000000000000   10300001 00104100000000000360000000000000     
100   95030305700676370000000000020000000000020000002000000010410404150449379970166685900415210511997016   1040001600030000   598320000316000000010000304PT Power Petrol Statio Yangon        MMR11004150449379970160415000000000000000   10300001F00104100000000000600000000000000     
100   62443100300743690000000000059800000000059800002000000010410404151042588103449092240415161131717104   1030000300030000   555510124365104519000020166Makro Myanmar                        MMR11004151042588103440415000000000000000   10300001 00104100000000014352000000000000     
100   95050324154190880000000000058070000000058070002000000010410404150519209988283503460415210512998828   1040001600030000   541120000571000000010000465Ocean Shwe Gone Daing  Yangon        MMR11004150519209988280415000000000000000   10300001F00104100000000014518000000000000     
100   62911028202615340000000000002800000000002800002000000010410404132356110005796685900414210406000579   1030000500030000   541120182201000045411201822EASY MART-005          PTN           MMR11004132356110005790414000000000000000   10300001 00104100000000000168000000000000     
100   62443100340648380000000000002000000000002000002000000010410404150524395439971680780415000007001637   1030000200030000   333800010001203104000003327KBZPay                 Yangon        MMR11004150524395439970415000000000000000   10300001F05104100000000000420000000000000     
100   62911028202349450000000000022000000000022000002000000010410404121031250002276685900412210217000227   1030000500030000   598320005101000015172200051MAX ENERGY             PTN           MMR11004121031250002270412000000000000000   10300001 00104100000000000660000000000000     
100   95050324826664210000000000044000000000044000002000000010410404140317460001070170910414210409000107   1030000500030000   598320005601000015172200056MAX ENERGY             PTN           MMR11004140317460001070414000000000000000   10300001 00104100000000005280000000000000     
100   62911028202045260000000000023000000000023000002000000010410404140910590019616685900414210415001961   1030000500030000   598320001203000015172200012MAX ENERGY             PTN           MMR11004140910590019610414000000000000000   10300001 00104100000000000690000000000000     
100   62911028202135350000000000063350000000063350002000000010410404141049000002976685900414210417000297   1030000500030000   581220120601000055812201206THE SUSHI BAR          PTN           MMR11004141049000002970414000000000000000   10300001 00104100000000006462000000000000     
100   62911028202169750000000000028000000000028000002000000010410404140914350016996685900414210415001699   1030000500030000   598320002702000015172200027MAX ENERGY             PTN           MMR11004140914350016990414000000000000000   10300001 00104100000000000840000000000000     
100   62443100318296470000000000025757000000025757002000000010410404140539300017006198970414210412001700   1030000500030000   581220063701000015812200637CHINESE 47             PTN           MMR11004140539300017000414000000000000000   10300001 00104100000000010947000000000000     
100   95050322921717110000000000020000000000020000002000000010410404140230490023415894230414210409002341   1030000500030000   598320002701000015172200027MAX ENERGY             PTN           MMR11004140230490023410414000000000000000   10300001 00104100000000002400000000000000     
100   62911028202668140000000000044000000000044000002000000010410404140858370022886685900414210415002288   1030000500030000   598320002001000015172200020MAX ENERGY             PTN           MMR11004140858370022880414000000000000000   10300001 00104100000000001320000000000000     
100   62911028202133940000000000060273000000060273002000000010410404140641400031726685900414210413003172   1030000500030000   598320001401000015172200014MAX ENERGY             PTN           MMR11004140641400031720414000000000000000   10300001 00104100000000001808000000000000     
100   62443100311760720000000000026000000000026000002000000010410404140938080004258908260414210416000425   1030000500030000   541120131701000055411201317MILLION MART Y-MDM     PTN           MMR11004140938080004250414000000000000000   10300001 00104100000000006500000000000000     
100   62911028202731170000000000042000000000042000002000000010410404140319590007796685900414210409000779   1030000500030000   598320101301005405983201013PT POWER (NPT)         PTN           MMR11004140319590007790414000000000000000   10300001 00104100000000001260000000000000     
100   62911028202461620000000000030000000000030000002000000010410404130212210027366685900413210308002736   1030000500030000   598320001202000015172200012MAX ENERGY             PTN           MMR11004130212210027360413000000000000000   10300001 00104100000000000900000000000000     
100   62911028202539860000000000074580000000074580002000000010410404131313070010076685900413210319001007   1030000500030000   581220146401013205812201464THAI 47 (HELPIN BRANCH PTN           MMR11004131313070010070413000000000000000   10300001 00104100000000007607000000000000     
100   95030301100129110000000000018000000000018000002000000010410404130359420001246685900413210310000124   1030000500030000   598320005301000015172200053MAX ENERGY             PTN           MMR11004130359420001240413000000000000000   10300001 00104100000000000540000000000000     
