100   95050322312885760000000000010000000000010000002000000010410404100540001000024572460410000006984740   1030000200030000   333800010001203104000003327KBZPay                 Yangon        MMR11004100540001000020410000000000000000   10300001F05104100000000002100000000000000     
100   62911028202660950000000000020000000000020000002000000010410404100836350635433880110410000006985522   1030000200030000   333800010001203104000003327KBZPay                 Yangon        MMR11004100836350635430410000000000000000   10300001F05104100000000004200000000000000     
100   95050318267399100000000000001960000000001960002000000010410404100648091809098118930410000006985070   1020000200030000   333400010001204104000000281Myanmar Soft-Gate Tech Yangon        MMR11004100648091809090410000000000000000   10300001F05104100000000000412000000000000     
100   95050314542175100000000000030000000000030000002000000010410404100925535553472870540410000006985698   1030000200030000   333800010001203104000003327KBZPay                 Yangon        MMR11004100925535553470410000000000000000   10300001F05104100000000006300000000000000     
100   95050322312885760000000000015000000000015000002000000010410404101319564956396812550410000006986537   1030000200030000   333800010001203104000003327KBZPay                 Yangon        MMR11004101319564956390410000000000000000   10300001F05104100000000003150000000000000     
100   95050311736839760000000000000980000000000980002000000010410404101238480848932741710410000006986379   1020000200030000   333400010001204104000000281Myanmar Soft-Gate Tech Yangon        MMR11004101238480848930410000000000000000   10300001F05104100000000000206000000000000     
100   95050312498129060000000000001960000000001960002000000010410404100153412341562799230410000006983705   1020000200030000   333400010001204104000000281Myanmar Soft-Gate Tech Yangon        MMR11004100153412341560410000000000000000   10300001F05104100000000000412000000000000     
100   62911028202076850000000000001960000000001960002000000010410404101558352835458092000410000006987105   1020000200030000   333400010001204104000000281Myanmar Soft-Gate Tech Yangon        MMR11004101558352835450410000000000000000   10300001F05104100000000000412000000000000     
100   95050317100052460000000000000800000000000800002000000010410404101458112811777152930410000006986913   1030000200030000   333800010001203104000003327KBZPay                 Yangon        MMR11004101458112811770410000000000000000   10300001F05104100000000000168000000000000     
100   95050314401921990000000000000980000000000980002000000010410404101357342734059862230410000006986654   1020000200030000   333400010001204104000000281Myanmar Soft-Gate Tech Yangon        MMR11004101357342734050410000000000000000   10300001F05104100000000000206000000000000     
100   62911028202245730000000000060770000000060770002000000010410404081257450003767016500408209819000376   1030000500030000   581220045301000015812200453TASTE II               PTN           MMR11004081257450003760408000000000000000   10300001 00104100000000006199000000000000     
100   95050329252108030000000000079655000000079655002000000010410404080240040016711902180408209809001671   1030000500030000   598320002102000015172200021MAX ENERGY             PTN           MMR11004080240040016710408000000000000000   10300001 00104100000000009559000000000000     
100   95050312360118350000000000020000000000020000002000000010410404100341361136443125830410000006984168   1030000200030000   333800010001203104000003327KBZPay                 Yangon        MMR11004100341361136440410000000000000000   10300001F05104100000000004200000000000000     
100   62911028202449440000000000050000000000050000002000000010410404091046290010793880110409209917001079   1030000500030000   598320001701000015172200017MAX ENERGY             PTN           MMR11004091046290010790409000000000000000   10300001 00104100000000001500000000000000     
100   95050329068434320000000000112200000000112200002000000010410404090539590005217970600409209912000521   1030000500030000   569120058001019505691200580MK FASHION SHOP        PTN           MMR11004090539590005210409000000000000000   10300001 00104100000000026928000000000000     
100   95030343892826500000000000031600000000031600002000000010410404090726310009883880110409209913000988   1030000500030000   569120037701016505691200377SOON FASHION SHOP      PTN           MMR11004090726310009880409000000000000000   10300001 00104100000000001896000000000000     
100   95050321798808970000000000015000000000015000002000000010410404101108033803707202380410000006986046   1030000200030000   333800010001203104000003327KBZPay                 Yangon        MMR11004101108033803700410000000000000000   10300001F05104100000000003150000000000000     
100   95050316997303010000000000100000000000100000002000000010410404101608043804887238030410000006987126   1030000200030000   333800010001203104000003327KBZPay                 Yangon        MMR11004101608043804880410000000000000000   10300001F05104100000000021000000000000000     
100   95050312498129060000000000000980000000000980002000000010410404100119264926445593620410000006983598   1020000200030000   333400010001204104000000281Myanmar Soft-Gate Tech Yangon        MMR11004100119264926440410000000000000000   10300001F05104100000000000206000000000000     
100   62443100379321630000000000050662000000050662002000000010410404101258060565574479290410060281906099   1030000900030000   541119001515190110000001102Ocean MGDTM C-8        YANGONADON    MMR11004101258060565570410000000000000000   10300001F00104100000000012666000000000000     
100   95050318741700180000000000004900000000004900002000000010410404101439280928541599810410000006986841   1020000200030000   333400010001204104000000281Myanmar Soft-Gate Tech Yangon        MMR11004101439280928540410000000000000000   10300001F05104100000000001029000000000000     
100   62443100361813580000000000040000000000040000002000000010410404091649351935837331200410000006983112   1030000200030000   333800010001203104000003327KBZPay                 Yangon        MMR11004091649351935830410000000000000000   10300001F05104100000000008400000000000000     
100   95050319379439060000000000005000000000005000002000000010410404100348101810346515890410000006984204   1030000200030000   333800010001203104000003327KBZPay                 Yangon        MMR11004100348101810340410000000000000000   10300001F05104100000000001050000000000000     
100   95030301100351360000000000020000000000020000002000000010410404100512044204774212610410000006984633   1030000500030000   333800010001201104000003863AYA Pay                Yangon        MMR11004100512044204770410000000000000000   10300001F05104100000000004200000000000000     
100   95050315330275830000000000000980000000000980002000000010410404101320075007041770000410000006986538   1020000200030000   333400010001204104000000281Myanmar Soft-Gate Tech Yangon        MMR11004101320075007040410000000000000000   10300001F05104100000000000206000000000000     
100   95050326159929830000000000013410000000013410002000000010410404080608260004567653080408209812000456   1030000500030000   531120155804000045311201558GAMONE PWINT           PTN           MMR11004080608260004560408000000000000000   10300001 00104100000000003218000000000000     
100   95050327192897240000000000027000000000027000002000000010410404090430410002687729100409000339352935   1030000300030000   573200000991000000000000705CB BANK                UNIQUE MOBILE MMR11004090430410002680409000000000000000   10300001F00104100000000006480000000000000     
100   62443100333488440000000000064800000000064800002000000010410404090810340001681566510409209914000168   1030000500030000   541120129716000045411201297MAKRO MYANMAR          PTN           MMR11004090810340001680409000000000000000   10300001 00104100000000016200000000000000     
100   95050318242219520000000000026700000000026700002000000010410404090609120007222126540409000339365873   1030000300030000   531100000752000000000000408CB BANK                CAPITAL HYPER MMR11004090609120007220409000000000000000   10300001F00104100000000006408000000000000     
100   62911028202136750000000000030000000000030000002000000010410404090936020009303880110409209916000930   1030000500030000   598320001702000015172200017MAX ENERGY             PTN           MMR11004090936020009300409000000000000000   10300001 00104100000000000900000000000000     
100   95050321455580800000000000029500000000029500002000000010410404090815240000419488550409000339382587   1030000300030000   531100000544000000000000376CB BANK                CAPITAL HYPER MMR11004090815240000410409000000000000000   10300001F00104100000000007080000000000000     
100   95050327192897240000000000012000000000012000002000000010410404090541130001546318120409209912000154   1030000500030000   569120105501000015691201055MIX (YUZANA PLAZA)     PTN           MMR11004090541130001540409000000000000000   10300001 00104100000000002880000000000000     
100   95050318601641810000000000000980000000000980002000000010410404100059012901443856040410000006983554   1020000200030000   333400010001204104000000281Myanmar Soft-Gate Tech Yangon        MMR11004100059012901440410000000000000000   10300001F05104100000000000206000000000000     
100   95050324154190880000000000002940000000002940002000000010410404100700533053454813960410000006985130   1020000200030000   333400010001204104000000281Myanmar Soft-Gate Tech Yangon        MMR11004100700533053450410000000000000000   10300001F05104100000000000617000000000000     
100   95050318617855880000000000000980000000000980002000000010410404100703383338345324540410000006985144   1020000200030000   333400010001204104000000281Myanmar Soft-Gate Tech Yangon        MMR11004100703383338340410000000000000000   10300001F05104100000000000206000000000000     
100   95050319938772870000000000000980000000000980002000000010410404101435520552496642360410000006986831   1020000200030000   333400010001204104000000281Myanmar Soft-Gate Tech Yangon        MMR11004101435520552490410000000000000000   10300001F05104100000000000206000000000000     
100   62911028202350170000000000070000000000070000002000000010410404101143111311646559400410000006986177   1030000200030000   333800010001203104000003327KBZPay                 Yangon        MMR11004101143111311640410000000000000000   10300001F05104100000000014700000000000000     
100   95050315445638160000000000100000000000100000002000000010410404100349021902138253470410000006984208   1030000200030000   333800010001203104000003327KBZPay                 Yangon        MMR11004100349021902130410000000000000000   10300001F05104100000000021000000000000000     
100   95050314557307430000000000002940000000002940002000000010410404100800563056169140090410000006985383   1020000200030000   333400010001204104000000281Myanmar Soft-Gate Tech Yangon        MMR11004100800563056160410000000000000000   10300001F05104100000000000617000000000000     
100   95050314308945310000000000005000000000005000002000000010410404101416564656384904770410000006986746   1030000900030000   333400010001202104000002022ACS                    Yangon        MMR11004101416564656380410000000000000000   10300001F05104100000000001050000000000000     
100   62911028202072060000000000003900000000003900002000000010410404090915260001463880110409209915000146   1030000500030000   591220010801014405912200108SHWE OHH PHARMACY      PTN           MMR11004090915260001460409000000000000000   10300001 00104100000000000234000000000000     
100   62443101037081820000000000060000000000060000002000000010410404090427320002487644000409209910000248   1030000500030000   598320005701000015172200057MAX ENERGY             PTN           MMR11004090427320002480409000000000000000   10300001 00104100000000007200000000000000     
100   62443100399918110000000000076700000000076700002000000010410404090537110002890048570409209912000289   1030000500030000   541120129723000045411201297MAKRO MYANMAR          PTN           MMR11004090537110002890409000000000000000   10300001 00104100000000019175000000000000     
100   62911028202615340000000000029600000000029600002000000010410404091234060004486874710409209919000448   1030000500030000   541120182201000045411201822EASY MART-005          PTN           MMR11004091234060004480409000000000000000   10300001 00104100000000001776000000000000     
100   62443100379116470000000000013450000000013450002000000010410404090736150001927580770409209914000192   1030000500030000   541120129712000045411201297MAKRO MYANMAR          PTN           MMR11004090736150001920409000000000000000   10300001 00104100000000003363000000000000     
100   62911028202808150000000000008550000000008550002000000010410404091155270004883880110409209918000488   1030000500030000   531120155805000045311201558GAMONE PWINT           PTN           MMR11004091155270004880409000000000000000   10300001 00104100000000000513000000000000     
100   62911028202593140000000000699000000000699000002000000010410404090649050001013880110409209913000101   1030000500030000   481220068501000404812200685M-9 (KAMAYUT)          PTN           MMR11004090649050001010409000000000000000   10300001 00104100000000041940000000000000     
100   95050321237170130000000000099200000000099200002000000010410404091226190001154841540409000339415878   1030000300030000   531100000539000000000000376CB BANK                CAPITAL HYPER MMR11004091226190001150409000000000000000   10300001F00104100000000023808000000000000     
100   95050313396828960000000000028460000000028460002000000010410404101214520552263082100410412441852099   1030000900030000   541119001295190110000000968Ocean Mingalar MDY C 3 MANDALAYHARSI MMR11004101214520552260410000000000000000   10300001F00104100000000007115000000000000     
100   95050319379439060000000000005000000000005000002000000010410404092349401940619153880410000006983443   1030000200030000   333800010001203104000003327KBZPay                 Yangon        MMR11004092349401940610410000000000000000   10300001F05104100000000001050000000000000     
100   95050312792817170000000000001960000000001960002000000010410404100611204120461352590410000006984879   1020000200030000   333400010001204104000000281Myanmar Soft-Gate Tech Yangon        MMR11004100611204120460410000000000000000   10300001F05104100000000000412000000000000     
100   95050314307746340000000000002940000000002940002000000010410404101418364836303252290410000006986757   1020000200030000   333400010001204104000000281Myanmar Soft-Gate Tech Yangon        MMR11004101418364836300410000000000000000   10300001F05104100000000000617000000000000     
100   95050311959900780000000000000980000000000980002000000010410404101546571657845585540410000006987065   1020000200030000   333400010001204104000000281Myanmar Soft-Gate Tech Yangon        MMR11004101546571657840410000000000000000   10300001F05104100000000000206000000000000     
100   95050314567080940000000000000980000000000980002000000010410404101415424542193167200410000006986741   1020000200030000   333400010001204104000000281Myanmar Soft-Gate Tech Yangon        MMR11004101415424542190410000000000000000   10300001F05104100000000000206000000000000     
100   95050312675525330000000000010000000000010000002000000010410404101322345234830117520410000006986542   1030000200030000   333800010001203104000003327KBZPay                 Yangon        MMR11004101322345234830410000000000000000   10300001F05104100000000002100000000000000     
100   95030302388346590000000000051950000000051950002000000010410404100609506500954559200410210013650095   1040001600030000   591220000271000000010000259Shwe Ohh Pharmacy (Gwa Yangon        MMR11004100609506500950410000000000000000   10300001F00104100000000003117000000000000     
100   95050326511614440000000000010000000000010000002000000010410404090816290002757836070409000339382719   1030000300030000   531100000831000000000000567CB BANK                MGOU          MMR11004090816290002750409000000000000000   10300001F00104100000000002400000000000000     
100   62443100311760720000000000012000000000012000002000000010410404090612440003860133670409209912000386   1030000500030000   569120069001008205691200690ESCORT                 PTN           MMR11004090612440003860409000000000000000   10300001 00104100000000002880000000000000     
100   95050318242219520000000000022500000000022500002000000010410404090610470007245516600409000339366105   1030000300030000   531100000752000000000000408CB BANK                CAPITAL HYPER MMR11004090610470007240409000000000000000   10300001F00104100000000005400000000000000     
100   62911028202136750000000000030000000000030000002000000010410404091004420010705978400409209916001070   1030000500030000   598320001701000015172200017MAX ENERGY             PTN           MMR11004091004420010700409000000000000000   10300001 00104100000000000900000000000000     
100   95030346645639490000000000023520000000023520002000000010410404090612280006633880110409209912000663   1030000500030000   531120155714000045311201557GAMONE PWINT           PTN           MMR11004090612280006630409000000000000000   10300001 00104100000000001411000000000000     
100   62911028202422290000000000469000000000469000002000000010410404090711360000494939710409209913000049   1030000500030000   481220056901000014812200569GANDAWIN MOBILE        PTN           MMR11004090711360000490409000000000000000   10300001 00104100000000028140000000000000     
100   62911028202404050000000000106700000000106700002000000010410404091205540003443880110409209918000344   1030000500030000   541120129724000045411201297MAKRO MYANMAR          PTN           MMR11004091205540003440409000000000000000   10300001 00104100000000006402000000000000     
100   62443100311760720000000000929500000000929500002000000010410404090524200000701530860409209911000070   1030000500030000   594420049801000015944200498MORE & MORE GEMS       PTN           MMR11004090524200000700409000000000000000   10300001 00104100000000223080000000000000     
100   62911028202133520000000000014947000000014947002000000010410404101210420550703880110410325401842099   1030000900030000   541119001189190110000000942City Mart HDC C 4      YANGONUT      MMR11004101210420550700410000000000000000   10300001F00104100000000000897000000000000     
100   95050319111666800000000000000980000000000980002000000010410404100320075007941813730410000006984051   1020000200030000   333400010001204104000000281Myanmar Soft-Gate Tech Yangon        MMR11004100320075007940410000000000000000   10300001F05104100000000000206000000000000     
100   95050322312885760000000000011000000000011000002000000010410404101622415241198550130410000006987171   1030000200030000   333800010001203104000003327KBZPay                 Yangon        MMR11004101622415241190410000000000000000   10300001F05104100000000002310000000000000     
100   95030301100125070000000000141335000000141335002000000010410404100840536588855465410410210015658885   1040001600030000   541120000558000000010000465Ocean Shwe Gone Daing  Yangon        MMR11004100840536588850410000000000000000   10300001F00104100000000008480000000000000     
100   95030364439875210000000000020100000000020100002000000010410404101045450519496232310410406151745099   1030000900030000   541119001193190110000000942City Mart HDC C 8      YANGONUT      MMR11004101045450519490410000000000000000   10300001F00104100000000001206000000000000     
100   95050310816569570000000000100000000000100000002000000010410404101547061706813933060410000006987062   1030000200030000   333800010001203104000003327KBZPay                 Yangon        MMR11004101547061706810410000000000000000   10300001F05104100000000021000000000000000     
100   95050312675525330000000000010000000000010000002000000010410404101328025802450202620410000006986567   1030000200030000   333800010001203104000003327KBZPay                 Yangon        MMR11004101328025802450410000000000000000   10300001F05104100000000002100000000000000     
100   62911028202595380000000000289000000000289000002000000010410404101151376727316609810410210018672731   1040001600030000   573220000396000000010000372Snoopy Mobile (North D Yangon        MMR11004101151376727310410000000000000000   10300001F00104100000000017340000000000000     
100   95050318180109730000000000170000000000170000002000000010410404090715040002600715550409209913000260   1030000500030000   481220043601000014812200436WIN MOBILE WORLD       PTN           MMR11004090715040002600409000000000000000   10300001 00104100000000040800000000000000     
100   95030373033018450000000000079800000000079800002000000010410404090832390002793880110409209915000279   1030000500030000   541120129725000045411201297MAKRO MYANMAR          PTN           MMR11004090832390002790409000000000000000   10300001 00104100000000004788000000000000     
100   95050322420590810000000000091000000000091000002000000010410404090459110000694240150409209911000069   1030000500030000   804320179901000058043201799ZEEKWEK EYEWEAR        PTN           MMR11004090459110000690409000000000000000   10300001 00104100000000021840000000000000     
100   95050310357533060000000000017550000000017550002000000010410404090906000006031736710409209915000603   1030000500030000   531120156005000045311201560GAMONE PWINT           PTN           MMR11004090906000006030409000000000000000   10300001 00104100000000004212000000000000     
100   62911028202510550000000000029500000000029500002000000010410404091218390002706782010409209918000270   1030000500030000   531120155702000045311201557GAMONE PWINT           PTN           MMR11004091218390002700409000000000000000   10300001 00104100000000001770000000000000     
100   62911028202162640000000000027300000000027300002000000010410404090943080010065848910409209916001006   1030000500030000   541120020902022205411200209ORANGE (HLAING)        PTN           MMR11004090943080010060409000000000000000   10300001 00104100000000001638000000000000     
100   95030308100042590000000000020000000000020000002000000010410404090521180009913880110409209911000991   1030000500030000   598320001701000015172200017MAX ENERGY             PTN           MMR11004090521180009910409000000000000000   10300001 00104100000000000600000000000000     
100   62911028202400660000000000232000000000232000002000000010410404091023520000503880110409209916000050   1030000500030000   56912020810100008569120208199 -3                  PTN           MMR11004091023520000500409000000000000000   10300001 00104100000000013920000000000000     
100   95050318597867880000000000021000000000021000002000000010410404100448291829099444820410000006984499   1030000200030000   333800010001203104000003327KBZPay                 Yangon        MMR11004100448291829090410000000000000000   10300001F05104100000000004410000000000000     
100   95050316653112190000000000013000000000013000002000000010410404100449511951831097300410000006984520   1030000200030000   333800010001203104000003327KBZPay                 Yangon        MMR11004100449511951830410000000000000000   10300001F05104100000000002730000000000000     
100   95050313836159580000000000001000000000001000002000000010410404101427055705658294840410000006986785   1030000200030000   3334000100012031040000040102C2P (Myanmar) Co. Ltd Yangon        MMR11004101427055705650410000000000000000   10300001F05104100000000000210000000000000     
100   62911028202595380000000000072600000000072600002000000010410404100338046408643880110410210010640864   1040001600030000   591220000288000000010000276Shwe Ohh Pharmacy (Nor Yangon        MMR11004100338046408640410000000000000000   10300001F00104100000000004356000000000000     
100   95030301100125070000000000036450000000036450002000000010410404100610346501313880110410210013650131   1040001600030000   541120000584000000010000465Ocean Shwe Gone Daing  Yangon        MMR11004100610346501310410000000000000000   10300001F00104100000000002187000000000000     
100   62443100379116470000000000021000000000021000002000000010410404100801156566204097540410210015656620   1040001600030000   569120000972000000010000719Generation Concept Sto Ygn           MMR11004100801156566200410000000000000000   10300001F00104100000000005040000000000000     
100   95050315743141220000000000000980000000000980002000000010410404101337480748503507580410000006986591   1020000200030000   333400010001204104000000281Myanmar Soft-Gate Tech Yangon        MMR11004101337480748500410000000000000000   10300001F05104100000000000206000000000000     
100   95050320360851930000000000001960000000001960002000000010410404100514464446916480240410000006984643   1020000200030000   333400010001204104000000281Myanmar Soft-Gate Tech Yangon        MMR11004100514464446910410000000000000000   10300001F05104100000000000412000000000000     
100   95030308100042590000000000028000000000028000002000000010410404091306020009773880110409209919000977   1030000500030000   598320001702000015172200017MAX ENERGY             PTN           MMR11004091306020009770409000000000000000   10300001 00104100000000000840000000000000     
100   62911028202136750000000000027000000000027000002000000010410404090935300009295803110409209916000929   1030000500030000   598320001702000015172200017MAX ENERGY             PTN           MMR11004090935300009290409000000000000000   10300001 00104100000000000810000000000000     
100   95050312499482960000000000044500000000044500002000000010410404090833490001215382060409209915000121   1030000500030000   573220040201000015732200402REMAX                  PTN           MMR11004090833490001210409000000000000000   10300001 00104100000000010680000000000000     
100   95050320335873810000000000011457000000011457002000000010410404090435490001771119170409000339353597   1030000300030000   591200000214000000000000111CB BANK                MEDICARE STOR MMR11004090435490001770409000000000000000   10300001F00104100000000002750000000000000     
100   62911028202366010000000000025000000000025000002000000010410404090508110002144199210409209911000214   1030000500030000   569120102701008205691201027ESCORT                 PTN           MMR11004090508110002140409000000000000000   10300001 00104100000000001500000000000000     
100   95030346645639490000000000020101000000020101002000000010410404090606040004154546510409209912000415   1030000500030000   531120155710000045311201557GAMONE PWINT           PTN           MMR11004090606040004150409000000000000000   10300001 00104100000000001206000000000000     
100   62911028202312890000000000041501000000041501002000000010410404090538380016374381910409209912001637   1030000500030000   598320001601000015172200016MAX ENERGY             PTN           MMR11004090538380016370409000000000000000   10300001 00104100000000001245000000000000     
100   62911028202484810000000000050000000000050000002000000010410404090936330016705809410409209916001670   1030000500030000   598320001601000015172200016MAX ENERGY             PTN           MMR11004090936330016700409000000000000000   10300001 00104100000000001500000000000000     
100   95030301100128040000000000007950000000007950002000000010410404100712336539483880110410210014653948   1040001600030000   591220000301000000010000289Shwe Ohh Pharmacy (Yay Yangon        MMR11004100712336539480410000000000000000   10300001F00104100000000000477000000000000     
100   95050317343045830000000000078215000000078215002000000010410404101146236722862316230410210018672286   1040001600030000   541120000573000000010000465Ocean Shwe Gone Daing  Yangon        MMR11004101146236722860410000000000000000   10300001F00104100000000019554000000000000     
100   95050326511614440000000000021713000000021713002000000010410404101219100553766387070410494491810099   1030000900030000   581219000721190110000000552Chilli Pot Mala Xiang  YANGONOKKALAP MMR11004101219100553760410000000000000000   10300001F00104100000000009228000000000000     
100   95050312210363590000000000003000000000003000002000000010410404100404483448407281760410000006984285   1030000200030000   333800010001203104000003327KBZPay                 Yangon        MMR11004100404483448400410000000000000000   10300001F05104100000000000630000000000000     
100   95050316818236190000000000002940000000002940002000000010410404101125465546677614070410000006986112   1020000200030000   333400010001204104000000281Myanmar Soft-Gate Tech Yangon        MMR11004101125465546670410000000000000000   10300001F05104100000000000617000000000000     
100   95050315158357300000000000000980000000000980002000000010410404101247191719131174330410000006986420   1020000200030000   333400010001204104000000281Myanmar Soft-Gate Tech Yangon        MMR11004101247191719130410000000000000000   10300001F05104100000000000206000000000000     
100   95050318617855880000000000002940000000002940002000000010410404100706443644387062120410000006985156   1020000200030000   333400010001204104000000281Myanmar Soft-Gate Tech Yangon        MMR11004100706443644380410000000000000000   10300001F05104100000000000617000000000000     
100   95050318242219520000000000000980000000000980002000000010410404101400373037114819680410000006986671   1020000200030000   333400010001204104000000281Myanmar Soft-Gate Tech Yangon        MMR11004101400373037110410000000000000000   10300001F05104100000000000206000000000000     
100   62911028202169750000000000018150000000018150002000000010410404090258050014983418600409209909001498   1030000500030000   503920036610000015039200366PRO-1 HOME CENTER      PTN           MMR11004090258050014980409000000000000000   10300001 00104100000000001089000000000000     
100   62911028202523350000000000076128000000076128002000000010410404091324370020083880110409209919002008   1030000500030000   598320002103000015172200021MAX ENERGY             PTN           MMR11004091324370020080409000000000000000   10300001 00104100000000002284000000000000     
100   95050314842866260000000000104461000000104461002000000010410404091015380013344245870409209916001334   1030000500030000   531120156002000045311201560GAMONE PWINT           PTN           MMR11004091015380013340409000000000000000   10300001 00104100000000025071000000000000     
100   62911028202523350000000000041000000000041000002000000010410404090106560018362751700409209907001836   1030000500030000   598320002103000015172200021MAX ENERGY             PTN           MMR11004090106560018360409000000000000000   10300001 00104100000000001230000000000000     
100   62911028202108460000000000042000000000042000002000000010410404091121240025326438510409209917002532   1030000500030000   598320001102000015172200011MAX ENERGY             PTN           MMR11004091121240025320409000000000000000   10300001 00104100000000001260000000000000     
100   95030331635936620000000000010000000000010000002000000010410404090858070016365578810409209915001636   1030000500030000   598320041902000055983200419MAX ENERGY             PTN           MMR11004090858070016360409000000000000000   10300001 00104100000000000300000000000000     
100   62911028202514440000000000050000000000050000002000000010410404091018590024126064210409209916002412   1030000500030000   598320001401000015172200014MAX ENERGY             PTN           MMR11004091018590024120409000000000000000   10300001 00104100000000001500000000000000     
100   62911028202615340000000000030250000000030250002000000010410404101001370017885949810410210016001788   1030000400030000   581231020266000003102020066365 THE TERRACE        YANGON        MMR11004101001370017880410000000000000000   10300001 00104100000000003086000000000000     
100   95050312020729360000000000023000000000023000002000000010410404100717066542138799700410210014654213   1040001600030000   541120000573000000010000465Ocean Shwe Gone Daing  Yangon        MMR11004100717066542130410000000000000000   10300001F00104100000000005750000000000000     
100   95050311382087030000000000002940000000002940002000000010410404101037180718907287470410000006985945   1020000200030000   333400010001204104000000281Myanmar Soft-Gate Tech Yangon        MMR11004101037180718900410000000000000000   10300001F05104100000000000617000000000000     
100   95050318646071770000000000003920000000003920002000000010410404100049181918112118460410000006983530   1020000200030000   333400010001204104000000281Myanmar Soft-Gate Tech Yangon        MMR11004100049181918110410000000000000000   10300001F05104100000000000823000000000000     
100   95050314557307430000000000004900000000004900002000000010410404100813184318057572700410000006985433   1020000200030000   333400010001204104000000281Myanmar Soft-Gate Tech Yangon        MMR11004100813184318050410000000000000000   10300001F05104100000000001029000000000000     
100   95050314307746340000000000000980000000000980002000000010410404101420225022076557260410000006986762   1020000200030000   333400010001204104000000281Myanmar Soft-Gate Tech Yangon        MMR11004101420225022070410000000000000000   10300001F05104100000000000206000000000000     
100   95050320205194540000000000147600000000147600002000000010410404100259336390759834650410210009639075   1040001600030000   591220000288000000010000276Shwe Ohh Pharmacy (Nor Yangon        MMR11004100259336390750410000000000000000   10300001F00104100000000035424000000000000     
100   95050312020729360000000000012000000000012000002000000010410404100734076551843416770410210014655184   1040001600030000   541120000581000000010000465Ocean Shwe Gone Daing  Yangon        MMR11004100734076551840410000000000000000   10300001F00104100000000003000000000000000     
100   95050315743141220000000000001960000000001960002000000010410404101339500950038124650410000006986602   1020000200030000   333400010001204104000000281Myanmar Soft-Gate Tech Yangon        MMR11004101339500950030410000000000000000   10300001F05104100000000000412000000000000     
100   95050314114509310000000000091700000000091700002000000010410404101432330005862445050410000745508397   1030000200030000   541188001487000008000000399KBZ BANK               OCEAN SUPERCE MMR11004101432330005860410000000000000000   10300001 00104100000000022925000000000000     
100   62911028202668140000000000086031000000086031002000000010410404101657550002193880110410000745515886   1030000200030000   541188001008000008000000008KBZ BANK               MARKETPLACE - MMR11004101657550002190410000000000000000   10300001 00104100000000005162000000000000     
100   62911028202890630000000000132750000000132750002000000010410404101420010004653880110410000745507781   1030000200030000   541188001356000008000000395KBZ BANK               OCEAN SUPERMA MMR11004101420010004650410000000000000000   10300001 00104100000000007965000000000000     
100   62443100379321630000000000106100000000106100002000000010410404101007560002948508760410000745495280   1030000200030000   541188001422000008000000401KBZ BANK               OCEAN SUPERCE MMR11004101007560002940410000000000000000   10300001 00104100000000026525000000000000     
100   62443100345308040000000000018500000000018500002000000010410404101248580015049856510410000745503329   1030000200030000   581288000950000008000004879KBZ BANK               PIZZA HUT RES MMR11004101248580015040410000000000000000   10300001 00104100000000007863000000000000     
100   95050310357533060000000000022800000000022800002000000010410404100656500007366466450410000745505254   1030000200030000   569988000788000008000004559KBZ BANK               HLS-IPANEMA   MMR11004100656500007360410000000000000000   10300001 00104100000000005472000000000000     
100   62911028202383670000000000060200000000060200002000000010410404101126460020313880110410000745499050   1030000200030000   541188001348000008000000395KBZ BANK               OCEAN SUPERMA MMR11004101126460020310410000000000000000   10300001 00104100000000003612000000000000     
100   62911028202318750000000000016700000000016700002000000010410404101640220014533880110410000745514917   1030000200030000   581288000855000008000004704KBZ BANK               PIZZA HUT RES MMR11004101640220014530410000000000000000   10300001 00104100000000001703000000000000     
100   95050311959900780000000000001960000000001960002000000010410404100639520952008374220410000006985029   1020000200030000   333400010001204104000000281Myanmar Soft-Gate Tech Yangon        MMR11004100639520952000410000000000000000   10300001F05104100000000000412000000000000     
100   95050316321163940000000000000980000000000980002000000010410404101352542254021514710410000006986638   1020000200030000   333400010001204104000000281Myanmar Soft-Gate Tech Yangon        MMR11004101352542254020410000000000000000   10300001F05104100000000000206000000000000     
100   95050313400081980000000000004000000000004000002000000010410404100311514151435033600410000006984015   1030000200030000   333800010001203104000003327KBZPay                 Yangon        MMR11004100311514151430410000000000000000   10300001F05104100000000000840000000000000     
100   95030301100120280000000000050000000000050000002000000010410404100814104410453880110410000006985435   1030000200030000   333800010001203104000003327KBZPay                 Yangon        MMR11004100814104410450410000000000000000   10300001F05104100000000010500000000000000     
100   95050320360851930000000000020000000000020000002000000010410404101419464946138209740410000006986761   1030000200030000   333800010001203104000003327KBZPay                 Yangon        MMR11004101419464946130410000000000000000   10300001F05104100000000004200000000000000     
100   95050313396828960000000000002940000000002940002000000010410404100839090909717317410410000006985531   1020000200030000   333400010001204104000000281Myanmar Soft-Gate Tech Yangon        MMR11004100839090909710410000000000000000   10300001F05104100000000000617000000000000     
100   95050318741700180000000000000980000000000980002000000010410404101442011201079947320410000006986859   1020000200030000   333400010001204104000000281Myanmar Soft-Gate Tech Yangon        MMR11004101442011201070410000000000000000   10300001F05104100000000000206000000000000     
100   95050325305150830000000000000980000000000980002000000010410404101453342334188805410410000006986887   1020000200030000   333400010001204104000000281Myanmar Soft-Gate Tech Yangon        MMR11004101453342334180410000000000000000   10300001F05104100000000000206000000000000     
100   95050310251874990000000000031100000000031100002000000010410404101757590004455961580410000745519219   1030000200030000   541188001433000008000000401KBZ BANK               OCEAN SUPERCE MMR11004101757590004450410000000000000000   10300001 00104100000000007775000000000000     
100   62911028202403710000000000001700000000001700002000000010410404101448550016045333900410000745509204   1030000200030000   541188001029000008000000298KBZ BANK               CITY MART - M MMR11004101448550016040410000000000000000   10300001 00104100000000000102000000000000     
100   62911028202615340000000000000300000000000300002000000010410404101637530002935987410410000745514763   1030000200030000   541188001021000008000000298KBZ BANK               CITY MART - M MMR11004101637530002930410000000000000000   10300001 00104100000000000018000000000000     
100   62911028202328650000000000010850000000010850002000000010410404101340210009244922410410000745505891   1030000200030000   541188001079000008000000294KBZ BANK               CITY MART - J MMR11004101340210009240410000000000000000   10300001 00104100000000000651000000000000     
100   62911028202170490000000000025300000000025300002000000010410404100515110017843880110410210011001784   1030000400030000   581231020266000003102020066365 THE TERRACE        YANGON        MMR11004100515110017840410000000000000000   10300001 00104100000000002581000000000000     
100   62911028202124790000000000025500000000025500002000000010410404101358440033813880110410000745506789   1030000200030000   541188001436000008000000401KBZ BANK               OCEAN SUPERCE MMR11004101358440033810410000000000000000   10300001 00104100000000001530000000000000     
100   62911028202418410000000000006200000000006200002000000010410404101138450144483880110410000745499658   1030000200030000   541188001049000008000000010KBZ BANK               MARKETPLACE - MMR11004101138450144480410000000000000000   10300001 00104100000000000372000000000000     
100   95050319870763910000000000000980000000000980002000000010410404100133420342469494260410000006983643   1020000200030000   333400010001204104000000281Myanmar Soft-Gate Tech Yangon        MMR11004100133420342460410000000000000000   10300001F05104100000000000206000000000000     
100   95050312498129060000000000001960000000001960002000000010410404100648491849373076380410000006985078   1020000200030000   333400010001204104000000281Myanmar Soft-Gate Tech Yangon        MMR11004100648491849370410000000000000000   10300001F05104100000000000412000000000000     
100   95050312911050270000000000025000000000025000002000000010410404101107573757172244930410000006986045   1030000200030000   3338000100012031040000040022C2P (Myanmar) Co. Ltd Yangon        MMR11004101107573757170410000000000000000   10300001F05104100000000005250000000000000     
100   95050319870763910000000000000980000000000980002000000010410404100724135413117147220410000006985229   1020000200030000   333400010001204104000000281Myanmar Soft-Gate Tech Yangon        MMR11004100724135413110410000000000000000   10300001F05104100000000000206000000000000     
100   62911028202313470000000000059210000000059210002000000010410404101214160552036763410410398441816099   1030000900030000   541119001359190110000000977Ocean PZD C 13         YANGONAUNG    MMR11004101214160552030410000000000000000   10300001F00104100000000003553000000000000     
100   95050314064416890000000000000980000000000980002000000010410404100040341034835423420410000006983509   1020000200030000   333400010001204104000000281Myanmar Soft-Gate Tech Yangon        MMR11004100040341034830410000000000000000   10300001F05104100000000000206000000000000     
100   95050312618592720000000000030000000000030000002000000010410404101537580758333847970410000006987047   1030000200030000   333800010001203104000003327KBZPay                 Yangon        MMR11004101537580758330410000000000000000   10300001F05104100000000006300000000000000     
100   95050314567755980000000000001800000000001800002000000010410404100853402340086345700410000006985591   1030000200030000   333800010001203104000003327KBZPay                 Yangon        MMR11004100853402340080410000000000000000   10300001F05104100000000000378000000000000     
100   62443100382109160000000000100000000000100000002000000010410404101306193619034989870410000006986488   1030000200030000   333800010001203104000003327KBZPay                 Yangon        MMR11004101306193619030410000000000000000   10300001F05104100000000021000000000000000     
100   95050319888386410000000000041000000000041000002000000010410404081125470000088723670408209817000008   1030000500030000   569120171701008205691201717ESCORT                 PTN           MMR11004081125470000080408000000000000000   10300001 00104100000000009840000000000000     
100   95050310644222860000000000015800000000015800002000000010410404081023120000500992480408209816000050   1030000500030000   569120037601016505691200376SOON FASHION SHOP      PTN           MMR11004081023120000500408000000000000000   10300001 00104100000000003792000000000000     
100   62911028202243590000000000035000000000035000002000000010410404080100350012302113100408209807001230   1030000500030000   598320041901000055983200419MAX ENERGY             PTN           MMR11004080100350012300408000000000000000   10300001 00104100000000001050000000000000     
100   62911028202151340000000000031000000000031000002000000010410404080821400015862113100408209814001586   1030000500030000   598320001204000015172200012MAX ENERGY             PTN           MMR11004080821400015860408000000000000000   10300001 00104100000000000930000000000000     
100   95050322921717110000000000020000000000020000002000000010410404080129570016225852270408209807001622   1030000500030000   598320001604000015172200016MAX ENERGY             PTN           MMR11004080129570016220408000000000000000   10300001 00104100000000002400000000000000     
100   95050315955808830000000000017000000000017000002000000010410404080044510000988476460408209807000098   1030000500030000   598320001104000015172200011MAX ENERGY             PTN           MMR11004080044510000980408000000000000000   10300001 00104100000000002040000000000000     
100   62443100333488440000000000126000000000126000002000000010410404080825020003243825880408209814000324   1030000500030000   503920036602000015039200366PRO-1 HOME CENTER      PTN           MMR11004080825020003240408000000000000000   10300001 00104100000000030240000000000000     
100   62911028202537390000000000002600000000002600002000000010410404101658590054206114310410000745515949   1030000200030000   541188001322000008000000306KBZ BANK               CITY MART - S MMR11004101658590054200410000000000000000   10300001 00104100000000000156000000000000     
100   62911028202328650000000000011000000000011000002000000010410404101357280134895025200410000745506741   1030000200030000   541188001073000008000000294KBZ BANK               CITY MART - J MMR11004101357280134890410000000000000000   10300001 00104100000000000660000000000000     
100   95030301100119390000000000025100000000025100002000000010410404101848070047613880110410000745521732   1030000200030000   541188001022000008000000298KBZ BANK               CITY MART - M MMR11004101848070047610410000000000000000   10300001 00104100000000001506000000000000     
100   62911028202124790000000000125500000000125500002000000010410404101413080046355119110410000745507478   1030000200030000   541188001440000008000000401KBZ BANK               OCEAN SUPERCE MMR11004101413080046350410000000000000000   10300001 00104100000000007530000000000000     
100   62911028202676220000000000032200000000032200002000000010410404100957080027963880110410000745514254   1030000200030000   591288000018000008000002044KBZ BANK               PINLON PHARMA MMR11004100957080027960410000000000000000   10300001 00104100000000001932000000000000     
100   95050317257997830000000000100000000000100000002000000010410404101000340027986351420410000745514402   1030000200030000   591288000018000008000002044KBZ BANK               PINLON PHARMA MMR11004101000340027980410000000000000000   10300001 00104100000000024000000000000000     
100   95050317728825080000000000158304000000158304002000000010410404101338090064115409640410000745505792   1030000200030000   569188000267000008000002252KBZ BANK               AMERICAN COLL MMR11004101338090064110410000000000000000   10300001 00104100000000037993000000000000     
100   95050311831926380000000000037900000000037900002000000010410404101307000054625069250410000745504227   1030000200030000   541188001006000008000000008KBZ BANK               MARKETPLACE - MMR11004101307000054620410000000000000000   10300001 00104100000000009475000000000000     
100   95050314401921990000000000015000000000015000002000000010410404100826175617542615250410000006985494   1030000200030000   3338000100012031040000040022C2P (Myanmar) Co. Ltd Yangon        MMR11004100826175617540410000000000000000   10300001F05104100000000003150000000000000     
100   62443100330108240000000000002940000000002940002000000010410404100626215621203331670410000006984964   1020000200030000   333400010001204104000000281Myanmar Soft-Gate Tech Yangon        MMR11004100626215621200410000000000000000   10300001F05104100000000000617000000000000     
100   95050314567080940000000000000980000000000980002000000010410404100117294729557246100410000006983592   1020000200030000   333400010001204104000000281Myanmar Soft-Gate Tech Yangon        MMR11004100117294729550410000000000000000   10300001F05104100000000000206000000000000     
100   62443100371022130000000000055000000000055000002000000010410404100820536577479225180410210015657747   1040001600030000   598320000658000000010000527Shwe Taung Energy (YGN Yangon        MMR11004100820536577470410000000000000000   10300001F00104100000000006600000000000000     
100   95050310794962000000000000030000000000030000002000000010410404100306487514464792100410988370907099   1030000500030000   555610103965104519000003818Ocean Oattara Thiri Na PyiTaw        MMR11004100306487514460410000000000000000   10300001 00104100000000007500000000000000     
100   62911028202492080000000000035000000000035000002000000010410404100451237530254099700410725231113099   1030000500030000   555610112248104519000010487Ocean Super Center St  ohn           MMR11004100451237530250410000000000000000   10300001 00104100000000002100000000000000     
100   62911028202170490000000000032650000000032650002000000010410404100702437553023880110410427321352099   1030000500030000   555610112235104519000010487Ocean Super Center St  ohn           MMR11004100702437553020410000000000000000   10300001 00104100000000001959000000000000     
100   95030325264619140000000000019192000000019192002000000010410404101008257586963880110410598471603099   1030000500030000   555610118962104519000016137City Mart South Okkala WZYD BR       MMR11004101008257586960410000000000000000   10300001 00104100000000001152000000000000     
100   95050329252108030000000000009500000000009500002000000010410404081321310011726842480408209819001172   1030000500030000   598320041903000055983200419MAX ENERGY             PTN           MMR11004081321310011720408000000000000000   10300001 00104100000000001140000000000000     
100   62911028202615340000000000007800000000007800002000000010410404081109460004226368600408209817000422   1030000500030000   541120182201000045411201822EASY MART-005          PTN           MMR11004081109460004220408000000000000000   10300001 00104100000000000468000000000000     
100   95050320531117320000000000063046000000063046002000000010410404080158090007638901950408209808000763   1030000500030000   598320001502000015172200015MAX ENERGY             PTN           MMR11004080158090007630408000000000000000   10300001 00104100000000007566000000000000     
100   62443100379321630000000000047005000000047005002000000010410404080925370001426167160408209815000142   1030000500030000   598320088701005405983200887PT POWER TRADING CO. L PTN           MMR11004080925370001420408000000000000000   10300001 00104100000000005641000000000000     
100   62911028202703370000000000050000000000050000002000000010410404080726550008912113100408209813000891   1030000500030000   598320001701000015172200017MAX ENERGY             PTN           MMR11004080726550008910408000000000000000   10300001 00104100000000001500000000000000     
100   62911028202703370000000000015000000000015000002000000010410404080729200008922113100408209813000892   1030000500030000   598320001701000015172200017MAX ENERGY             PTN           MMR11004080729200008920408000000000000000   10300001 00104100000000000450000000000000     
100   62911028202463030000000000083600000000083600002000000010410404080620180001882113100408209812000188   1030000500030000   581220120601000055812201206THE SUSHI BAR          PTN           MMR11004080620180001880408000000000000000   10300001 00104100000000008527000000000000     
100   62911028202481760000000000024000000000024000002000000010410404080355270002462113100408209810000246   1030000500030000   806220172403013008062201724GRAND HANTHA HOSPITAL  PTN           MMR11004080355270002460408000000000000000   10300001 00104100000000001440000000000000     
100   62443100318296470000000000014400000000014400002000000010410404101128200085654146980410000745499131   1030000200030000   541188001023000008000000298KBZ BANK               CITY MART - M MMR11004101128200085650410000000000000000   10300001 00104100000000003600000000000000     
100   62443100355445150000000000012220000000012220002000000010410404101701260174671734340410000745516100   1030000200030000   541188001055000008000000314KBZ BANK               MARKETPLACE - MMR11004101701260174670410000000000000000   10300001 00104100000000003055000000000000     
100   62911028202242760000000000034850000000034850002000000010410404101256150052704657810410000745503692   1030000200030000   541188001321000008000000306KBZ BANK               CITY MART - S MMR11004101256150052700410000000000000000   10300001 00104100000000002091000000000000     
100   95050318057347910000000000000980000000000980002000000010410404101530460046095500450410000006987031   1020000200030000   333400010001204104000000281Myanmar Soft-Gate Tech Yangon        MMR11004101530460046090410000000000000000   10300001F05104100000000000206000000000000     
100   62911028202242760000000000054000000000054000002000000010410404101251060073404626810410000745503437   1030000200030000   541188001317000008000000306KBZ BANK               CITY MART - S MMR11004101251060073400410000000000000000   10300001 00104100000000003240000000000000     
100   62911028202026450000000000014500000000014500002000000010410404101151180031204268110410000745500299   1030000200030000   541188001459000008000000391KBZ BANK               OCEAN SUPER C MMR11004101151180031200410000000000000000   10300001 00104100000000000870000000000000     
100   95050312728902740000000000009750000000009750002000000010410404101555030047304523020410000745512701   1030000200030000   541188001022000008000000298KBZ BANK               CITY MART - M MMR11004101555030047300410000000000000000   10300001 00104100000000002438000000000000     
100   95030306100081790000000000012250000000012250002000000010410404101143040176573880110410000745499888   1030000200030000   541188001080000008000000294KBZ BANK               CITY MART - J MMR11004101143040176570410000000000000000   10300001 00104100000000000735000000000000     
100   62443100369813440000000000017000000000017000002000000010410404101116327598262571520410943461732099   1030000500030000   555610118972104519000016137City Mart South Okkala WZYD BR       MMR11004101116327598260410000000000000000   10300001 00104100000000004250000000000000     
100   62911028202225850000000000007900000000007900002000000010410404100415147524053879010410012461026099   1030000500030000   555610112532104519000010487Ocean Super Center St  ohn           MMR11004100415147524050410000000000000000   10300001 00104100000000000474000000000000     
100   95050317728825080000000000002500000000002500002000000010410404100732507558833501860410151071420099   1030000500030000   555610103472104519000003420City Mart Yankin Cente 11            MMR11004100732507558830410000000000000000   10300001 00104100000000000625000000000000     
100   95050317728825080000000000047150000000047150002000000010410404100731107558431764290410100041437099   1030000500030000   555610103469104519000003420City Mart Yankin Cente 8             MMR11004100731107558430410000000000000000   10300001 00104100000000011788000000000000     
100   95050324247403260000000000019850000000019850002000000010410404100949247582229401090410030201638099   1030000300030000   444410125394104519000021221Myanmar Bakery CoLtd                 MMR11004100949247582220410000000000000000   10300001 00104100000000008437000000000000     
100   62911028202327330000000000020990000000020990002000000010410404101011237585896011400410469411649099   1030000500030000   555610112983104519000011143Market Place by City M rt Sule       MMR11004101011237585890410000000000000000   10300001 00104100000000001259000000000000     
100   62443100381661260000000000030150000000030150002000000010410404101102037595797117280410646321747099   1030000500030000   555610103482104519000003432City Mart Junction Zaw na 9          MMR11004101102037595790410000000000000000   10300001 00104100000000007538000000000000     
100   62443100369813440000000000074134000000074134002000000010410404101200377607519606940410017351801099   1030000500030000   555610118961104519000016137City Mart South Okkala WZYD BR       MMR11004101200377607510410000000000000000   10300001 00104100000000018534000000000000     
100   95030301100316300000000000031230000000031230002000000010410404081055590006326285910408209817000632   1030000500030000   531120155604000045311201556GAMONE PWINT           PTN           MMR11004081055590006320408000000000000000   10300001 00104100000000001874000000000000     
100   62911028202684060000000000015900000000015900002000000010410404080516400001142113100408209811000114   1030000500030000   591220014401014405912200144SHWE OHH PHARMACY      PTN           MMR11004080516400001140408000000000000000   10300001 00104100000000000954000000000000     
100   62911028202196800000000000102100000000102100002000000010410404081536400002497970000408209822000249   1030000500030000   806220009102024108062200091ARYU INTL HOSPITAL     PTN           MMR11004081536400002490408000000000000000   10300001 00104100000000006126000000000000     
100   95050325925517520000000000050000000000050000002000000010410404080935570016747731240408209816001674   1030000500030000   598320001604000015172200016MAX ENERGY             PTN           MMR11004080935570016740408000000000000000   10300001 00104100000000006000000000000000     
100   62911028202442250000000000092000000000092000002000000010410404081003200016055970000408209816001605   1030000500030000   598320001204000015172200012MAX ENERGY             PTN           MMR11004081003200016050408000000000000000   10300001 00104100000000002760000000000000     
100   62443101006037900000000000020000000000020000002000000010410404080327540022922654260408209809002292   1030000500030000   598320001303000015172200013MAX ENERGY             PTN           MMR11004080327540022920408000000000000000   10300001 00104100000000002400000000000000     
100   62911028202185590000000000048000000000048000002000000010410404080629120017662113100408209812001766   1030000500030000   598320002001000015172200020MAX ENERGY             PTN           MMR11004080629120017660408000000000000000   10300001 00104100000000001440000000000000     
100   95030301100124570000000000061000000000061000002000000010410404072359480018082113100408209806001808   1030000500030000   598320002101000015172200021MAX ENERGY             PTN           MMR11004072359480018080408000000000000000   10300001 00104100000000001830000000000000     
100   62443100337100010000000000018972000000018972002000000010410404101717390143892415120410000745516978   1030000200030000   541188001061000008000000314KBZ BANK               MARKETPLACE - MMR11004101717390143890410000000000000000   10300001 00104100000000004743000000000000     
100   95030301100120850000000000026644000000026644002000000010410404101805290128166513100410000745519621   1030000200030000   541188001056000008000000314KBZ BANK               MARKETPLACE - MMR11004101805290128160410000000000000000   10300001 00104100000000001599000000000000     
100   62911028202233510000000000015950000000015950002000000010410404101732200151083880110410000745517833   1030000200030000   541188001020000008000000298KBZ BANK               CITY MART - M MMR11004101732200151080410000000000000000   10300001 00104100000000000957000000000000     
100   62911028202537390000000000017200000000017200002000000010410404101653540058473880110410000745515668   1030000200030000   541188001316000008000000306KBZ BANK               CITY MART - S MMR11004101653540058470410000000000000000   10300001 00104100000000001032000000000000     
100   95050324247403260000000000056000000000056000002000000010410404101638540160934613830410000745514812   1030000200030000   541188001126000008000000296KBZ BANK               CITY MART - J MMR11004101638540160930410000000000000000   10300001 00104100000000014000000000000000     
100   95050310456843760000000000012476000000012476002000000010410404101525070176768083280410000745511105   1030000200030000   541188001080000008000000294KBZ BANK               CITY MART - J MMR11004101525070176760410000000000000000   10300001 00104100000000003119000000000000     
100   95030301100124400000000000003800000000003800002000000010410404100314550366593527310410629440955099   1030000900030000   541119001273190110000000960City Mart PLST Season  YANGONMYOTHIT MMR11004100314550366590410000000000000000   10300001F00104100000000000228000000000000     
100   62911028202910770000000000020000000000020000002000000010410404091631500150143880110410000006983063   1030000200030000   333800010001203104000003327KBZPay                 Yangon        MMR11004091631500150140410000000000000000   10300001F05104100000000004200000000000000     
100   95030301100126220000000000051410000000051410002000000010410404101121337599486437900410083521754099   1030000500030000   555610114570104519000012532City Mart Ahlone Branc               MMR11004101121337599480410000000000000000   10300001 00104100000000003085000000000000     
100   62911028202803930000000000015480000000015480002000000010410404101132036710636492410410210018671063   1040001600030000   541120000558000000010000465Ocean Shwe Gone Daing  Yangon        MMR11004101132036710630410000000000000000   10300001F00104100000000000929000000000000     
100   62911028202593140000000000040000000000040000002000000010410404101101426684683880110410210018668468   1040001600030000   598320000658000000010000527Shwe Taung Energy (YGN Yangon        MMR11004101101426684680410000000000000000   10300001F00104100000000001200000000000000     
100   95030301100124400000000000019000000000019000002000000010410404100313167515143502410410068430940099   1030000300030000   444410123548104519000019766YKKO NPST                            MMR11004100313167515140410000000000000000   10300001 00104100000000001938000000000000     
100   62911028202290100000000000042750000000042750002000000010410404100559447542133880110410139301234099   1030000300030000   444410125393104519000021220Myanmar Bakery CoLtd                 MMR11004100559447542130410000000000000000   10300001 00104100000000004361000000000000     
100   62911028202661370000000000098400000000098400002000000010410404100909237574835642600410117401521099   1030000300030000   555510124691104519000020166Makro Myanmar                        MMR11004100909237574830410000000000000000   10300001 00104100000000005904000000000000     
100   62911028202285170000000000054200000000054200002000000010410404100320017516443880110410205530938099   1030000500030000   555610104021104519000003821City Mart North Point  enter         MMR11004100320017516440410000000000000000   10300001 00104100000000003252000000000000     
100   62911028202593140000000000013650000000013650002000000010410404100636027548384718210410889061318099   1030000500030000   555610114570104519000012532City Mart Ahlone Branc               MMR11004100636027548380410000000000000000   10300001 00104100000000000819000000000000     
100   62911028202655010000000000038000000000038000002000000010410404081237390016386895910408209819001638   1030000500030000   598320001603000015172200016MAX ENERGY             PTN           MMR11004081237390016380408000000000000000   10300001 00104100000000001140000000000000     
100   62911028202820010000000000030000000000030000002000000010410404080414510021232113100408209810002123   1030000500030000   598320001001000015172200010MAX ENERGY             PTN           MMR11004080414510021230408000000000000000   10300001 00104100000000000900000000000000     
100   95030301100129110000000000054000000000054000002000000010410404081209340026066727410408209818002606   1030000500030000   598320001403000015172200014MAX ENERGY             PTN           MMR11004081209340026060408000000000000000   10300001 00104100000000001620000000000000     
100   62911028202404050000000000036000000000036000002000000010410404080834240025002113100408209815002500   1030000500030000   598320001402000015172200014MAX ENERGY             PTN           MMR11004080834240025000408000000000000000   10300001 00104100000000001080000000000000     
100   95050319870763910000000000000980000000000980002000000010410404100132280228701146750410000006983636   1020000200030000   333400010001204104000000281Myanmar Soft-Gate Tech Yangon        MMR11004100132280228700410000000000000000   10300001F05104100000000000206000000000000     
100   95050319156011610000000000002940000000002940002000000010410404100834340434744012450410000006985513   1020000200030000   333400010001204104000000281Myanmar Soft-Gate Tech Yangon        MMR11004100834340434740410000000000000000   10300001F05104100000000000617000000000000     
100   95050327185992630000000000103750000000103750002000000010410404091123560001774416060409209917000177   1030000500030000   541120129720000045411201297MAKRO MYANMAR          PTN           MMR11004091123560001770409000000000000000   10300001 00104100000000025938000000000000     
100   95050325593833300000000000022000000000022000002000000010410404091044340000580600510409209917000058   1030000500030000   597720092401005405977200924YVES ROCHER (MYANMAR P PTN           MMR11004091044340000580409000000000000000   10300001 00104100000000005280000000000000     
100   62911028202133940000000000051250000000051250002000000010410404101932160138077034000410000745523174   1030000200030000   541188001306000008000000325KBZ BANK               CITY MART - A MMR11004101932160138070410000000000000000   10300001 00104100000000003075000000000000     
100   95050314557307430000000000003920000000003920002000000010410404100231040104316019100410000006983835   1020000200030000   333400010001204104000000281Myanmar Soft-Gate Tech Yangon        MMR11004100231040104310410000000000000000   10300001F05104100000000000823000000000000     
100   95050321287849350000000000199000000000199000002000000010410404100322020368815118700410741520902099   1030000900030000   481219000914190110000000723Snoopy Mobile ( 5 )Thi YANGONNGKUUN  MMR11004100322020368810410000000000000000   10300001F00104100000000047760000000000000     
100   62911028202668140000000000111480000000111480002000000010410404100900560480415603410410971301556099   1030000900030000   723019001049190110000000852Beauty Diary(SYS) -1   YANGON        MMR11004100900560480410410000000000000000   10300001F00104100000000006689000000000000     
100   95030364439875210000000000003000000000003000002000000010410404101039210517206194000410259091721099   1030000900030000   541119001191190110000000942City Mart HDC C 6      YANGONUT      MMR11004101039210517200410000000000000000   10300001F00104100000000000180000000000000     
100   62911028202595380000000000030007000000030007002000000010410404101010590505683880110410492401659099   1030000900030000   541119001282190110000000963City Mart SPL C 7      YANGONMYOTHIT MMR11004101010590505680410000000000000000   10300001F00104100000000001800000000000000     
100   62911028202231380000000000031500000000031500002000000010410404101104260526926344500410883341726099   1030000900030000   541119001243190110000000955City Mart JS C 2       YANGONUT      MMR11004101104260526920410000000000000000   10300001F00104100000000001890000000000000     
100   62911028202182860000000000008000000000008000002000000010410404101048250520613880110410482181725099   1030000900030000   541119001068190110000000082Sein Gay Har Super Cen YANGON        MMR11004101048250520610410000000000000000   10300001F00104100000000000480000000000000     
100   95050317728825080000000000007200000000007200002000000010410404100740407559756806830410256121426099   1030000500030000   555610103463104519000003420City Mart Yankin Cente 2             MMR11004100740407559750410000000000000000   10300001 00104100000000001800000000000000     
100   62911028202631420000000000056650000000056650002000000010410404101026327588716101100410809561646099   1030000500030000   555610110570104519000009164City Mart China Town P int Cen       MMR11004101026327588710410000000000000000   10300001 00104100000000003399000000000000     
100   62911028202616250000000000074200000000074200002000000010410404100759557562725219900410636291454099   1030000500030000   555610115762104519000013506MarketplaceMyanmarPlaz Branch        MMR11004100759557562720410000000000000000   10300001 00104100000000004452000000000000     
100   95050324622440820000000000018650000000018650002000000010410404100649017550761423900410167201336099   1030000500030000   555610110595104519000009166City Mart 47 Branch                  MMR11004100649017550760410000000000000000   10300001 00104100000000004663000000000000     
100   62911028202115470000000000011200000000011200002000000010410404100903597574133880110410046361533099   1030000500030000   555610112231104519000010487Ocean Super Center St  ohn           MMR11004100903597574130410000000000000000   10300001 00104100000000000672000000000000     
100   62911028202423360000000000003950000000003950002000000010410404101157597606636662200410918301817099   1030000500030000   555610104031104519000003821City Mart North Point  enter         MMR11004101157597606630410000000000000000   10300001 00104100000000000237000000000000     
100   62911028202423360000000000002000000000002000002000000010410404101142367605203880110410751231814099   1030000500030000   555610104043104519000003821City Mart North Point  enter         MMR11004101142367605200410000000000000000   10300001 00104100000000000120000000000000     
100   62443100313112320000000000110000000000110000002000000010410404090151490010837934950409209908001083   1030000500030000   598320002702000015172200027MAX ENERGY             PTN           MMR11004090151490010830409000000000000000   10300001 00104100000000013200000000000000     
100   95050312160676580000000000010000000000010000002000000010410404100233540354774877190410000006983851   1030000200030000   333800010001203104000003327KBZPay                 Yangon        MMR11004100233540354770410000000000000000   10300001F05104100000000002100000000000000     
100   95050325925517520000000000093600000000093600002000000010410404090500460002304325250409209911000230   1030000500030000   541120129726000045411201297MAKRO MYANMAR          PTN           MMR11004090500460002300409000000000000000   10300001 00104100000000023400000000000000     
100   62911028202130710000000000014700000000014700002000000010410404101830390222173880110410000745520909   1030000200030000   541188001059000008000000314KBZ BANK               MARKETPLACE - MMR11004101830390222170410000000000000000   10300001 00104100000000000882000000000000     
100   95050312940629360000000000032150000000032150002000000010410404100859460479997657800410945291546099   1030000900030000   541119000116190110000000078Sein Gay Har Kan Thar  YANGONOKKALAP MMR11004100859460479990410000000000000000   10300001F00104100000000008038000000000000     
100   62443100363668680000000000235540000000235540002000000010410404091349300007091607880409209920000709   1030000500030000   581220106701000015812201067THAI 47                PTN           MMR11004091349300007090409000000000000000   10300001 00104100000000100105000000000000     
100   95050325273694860000000000034000000000034000002000000010410404090727490002764190710409209913000276   1030000500030000   569120084301008205691200843ESCORT (A-12 YUZANA PL PTN           MMR11004090727490002760409000000000000000   10300001 00104100000000008160000000000000     
100   62911028202088990000000000016400000000016400002000000010410404080356010024382113100408209810002438   1030000500030000   598320001402000015172200014MAX ENERGY             PTN           MMR11004080356010024380408000000000000000   10300001 00104100000000000492000000000000     
100   95050310357533060000000000012800000000012800002000000010410404100451110398680756920410399211111099   1030000900030000   723019001040190110000000845Beauty Diary HDC       YANGONUT      MMR11004100451110398680410000000000000000   10300001F00104100000000003072000000000000     
100   62911028202243590000000000017650000000017650002000000010410404100632120431844711100410222021312099   1030000900030000   541119001267190110000000958City Mart PLST C 10    YANGONMYOTHIT MMR11004100632120431840410000000000000000   10300001F00104100000000001059000000000000     
100   62911028202318750000000000014650000000014650002000000010410404101023150510513880110410806531615099   1030000900030000   541119001265190110000000958City Mart PLST C 8     YANGONMYOTHIT MMR11004101023150510510410000000000000000   10300001F00104100000000000879000000000000     
100   62911028202231380000000000004800000000004800002000000010410404101111200529713880110410068411720099   1030000900030000   541119001255190110000000956City Mart JS Season C  YANGONUT      MMR11004101111200529710410000000000000000   10300001F00104100000000000288000000000000     
100   95050310543219930000000000094200000000094200002000000010410404100424430389490416530410873541043099   1030000900030000   723019001041190110000000846Beauty Diary IS        YANGONUT      MMR11004100424430389490410000000000000000   10300001F00104100000000022608000000000000     
100   62911028202171550000000000011350000000011350002000000010410404100422450388823934310410835521045099   1030000900030000   541119001161190110000000930OCEAN HTY C 11         YANGONTHARYA  MMR11004100422450388820410000000000000000   10300001F00104100000000000681000000000000     
100   62911028202400660000000000076636000000076636002000000010410404100403270382353818500410472331027099   1030000900030000   541119001511190110000001102Ocean MGDTM C-4        YANGONADON    MMR11004100403270382350410000000000000000   10300001F00104100000000004598000000000000     
100   62443100379116470000000000003800000000003800002000000010410404100658210439802019570410645281321099   1030000900030000   541119001510190110000001102Ocean MGDTM-C 3        YANGONADON    MMR11004100658210439800410000000000000000   10300001F00104100000000000950000000000000     
100   95030385550669610000000000637600000000637600002000000010410404100506420403654198110410667361142099   1030000900030000   541119000817190110000000178Pro (1) Global (East D YANGONMYOTHIT MMR11004100506420403650410000000000000000   10300001F00104100000000038256000000000000     
100   62443100345308040000000000066338000000066338002000000010410404100334500003583551310410000745495159   1030000200030000   594488000559000008000003768KBZ BANK               CHERRY OO (AN MMR11004100334500003580410000000000000000   10300001 00104100000000015921000000000000     
100   95050310833306920000000000021250000000021250002000000010410404100617027545268204030410517481257099   1030000300030000   555510124691104519000020166Makro Myanmar                        MMR11004100617027545260410000000000000000   10300001 00104100000000005100000000000000     
100   95050315690875920000000000094900000000094900002000000010410404100619317545663246570410567511233099   1030000300030000   555510124691104519000020166Makro Myanmar                        MMR11004100619317545660410000000000000000   10300001 00104100000000022776000000000000     
100   95050319286546940000000000028900000000028900002000000010410404080930380004079504480408209816000407   1030000500030000   591220132901008605912201329THEIK DI WIN SHOP      PTN           MMR11004080930380004070408000000000000000   10300001 00104100000000006936000000000000     
100   95030301100120850000000000008800000000008800002000000010410404101045117594206265900410458241714099   1030000300030000   444410123122104519000019376YKKO JCSM                            MMR11004101045117594200410000000000000000   10300001 00104100000000000898000000000000     
100   62911028202676220000000000050400000000050400002000000010410404100952590021535898200410000745514070   1030000200030000   591288000838000008000004646KBZ BANK               PINLON PHARMA MMR11004100952590021530410000000000000000   10300001 00104100000000003024000000000000     
100   95030320529939180000000000462400000000462400002000000010410404101210237608986737310410205421849099   1030000500030000   555610118960104519000016137City Mart South Okkala WZYD BR       MMR11004101210237608980410000000000000000   10300001 00104100000000027744000000000000     
100   95050317728825080000000000003000000000003000002000000010410404100804317564014182640410798381407099   1030000500030000   555610103463104519000003420City Mart Yankin Cente 2             MMR11004100804317564010410000000000000000   10300001 00104100000000000750000000000000     
100   95050322775747230000000001000000000001000000002000000010410404091025280000910940900409209916000091   1030000500030000   481220018401000024812200184SUPER MOBILE           PTN           MMR11004091025280000910409000000000000000   10300001 00104100000000240000000000000000     
100   95050314160856250000000000002940000000002940002000000010410404100742091209441849380410000006985304   1020000200030000   333400010001204104000000281Myanmar Soft-Gate Tech Yangon        MMR11004100742091209440410000000000000000   10300001F05104100000000000617000000000000     
100   95030301100124400000000000004746000000004746002000000010410404100307040364423480210410521370904099   1030000900030000   541119001264190110000000958City Mart PLST C 7     YANGONMYOTHIT MMR11004100307040364420410000000000000000   10300001F00104100000000000285000000000000     
100   62911028202520380000000000010600000000010600002000000010410404100627540430773880110410167571254099   1030000900030000   541119001233190110000000951Marketplace KTY C 3    YANGONARTAUNG MMR11004100627540430770410000000000000000   10300001F00104100000000000636000000000000     
100   95050316321163940000000000000980000000000980002000000010410404101627315731336897650410000006987184   1020000200030000   333400010001204104000000281Myanmar Soft-Gate Tech Yangon        MMR11004101627315731330410000000000000000   10300001F05104100000000000206000000000000     
100   95050322220807920000000000043800000000043800002000000010410404090534220002884920920409209912000288   1030000500030000   541120129723000045411201297MAKRO MYANMAR          PTN           MMR11004090534220002880409000000000000000   10300001 00104100000000010950000000000000     
100   95050314248160600000000000017850000000017850002000000010410404090524530000496573410409000339360002   1030000300030000   541100000956000000000000683CB BANK                ONE STOP KITC MMR11004090524530000490409000000000000000   10300001F00104100000000004463000000000000     
100   95050315158357300000000000001960000000001960002000000010410404100315044504821728630410000006984024   1020000200030000   333400010001204104000000281Myanmar Soft-Gate Tech Yangon        MMR11004100315044504820410000000000000000   10300001F05104100000000000412000000000000     
100   62911028202520380000000000005400000000005400002000000010410404100912570484493880110410205421557099   1030000900030000   591219000607190110000000447Shwe Ohh Pharmacy St-3 YANGONINDAING MMR11004100912570484490410000000000000000   10300001F00104100000000000324000000000000     
100   95030315100007120000000000500000000000500000002000000010410404100844240474525504300410616141524099   1030000900030000   573219001179190110000000935UNIQUE Seikkanthar     YANGONADA     MMR11004100844240474520410000000000000000   10300001F00104100000000030000000000000000     
100   62911028202499270000000000009050000000009050002000000010410404101110240529383880110410045401724099   1030000900030000   541119001207190110000000948City Mart YK C 5       YANGONAUNG    MMR11004101110240529380410000000000000000   10300001F00104100000000000543000000000000     
100   62443100300743690000000000009844000000009844002000000010410404100742000453635239450410416121400099   1030000900030000   581219000981190110000000788Jo Jo Hot Pot (KTY)    YANGONARTAUNG MMR11004100742000453630410000000000000000   10300001F00104100000000004184000000000000     
100   62911028202107390000000000029000000000029000002000000010410404101103450526593880110410862331745099   1030000900030000   554119001101190110000000213New Day Energy SOK     YANGONOKKALAP MMR11004101103450526590410000000000000000   10300001F00104100000000000870000000000000     
100   62911028202314530000000000040000000000040000002000000010410404101034070515146162600410124041707099   1030000900030000   554119001103190110000000215New Day Energy MYG     YANGONONE     MMR11004101034070515140410000000000000000   10300001F00104100000000001200000000000000     
100   62911028202314530000000000047000000000047000002000000010410404101033290514933880110410113031729099   1030000900030000   554119001103190110000000215New Day Energy MYG     YANGONONE     MMR11004101033290514930410000000000000000   10300001F00104100000000001410000000000000     
100   95030301100120850000000000025000000000025000002000000010410404101005410503553880110410358351641099   1030000900030000   723019001054190110000000857Beauty Diary JC        YANGONN       MMR11004101005410503550410000000000000000   10300001F00104100000000001500000000000000     
100   95050320531117320000000000226700000000226700002000000010410404100753110457063586960410605231411099   1030000900030000   541119001468190110000001066Million Mart Y NUV     YANGON        MMR11004100753110457060410000000000000000   10300001F00104100000000056675000000000000     
100   95050311959900780000000000001960000000001960002000000010410404100825575557014267730410000006985493   1020000200030000   333400010001204104000000281Myanmar Soft-Gate Tech Yangon        MMR11004100825575557010410000000000000000   10300001F05104100000000000412000000000000     
100   62911028202151340000000000005300000000005300002000000010410404080354430001142113100408209810000114   1030000500030000   591220014301014405912200143SHWE OHH PHARMACY      PTN           MMR11004080354430001140408000000000000000   10300001 00104100000000000318000000000000     
100   95050312520116690000000000008250000000008250002000000010410404090650300002052296730409209913000205   1030000500030000   541120129718000045411201297MAKRO MYANMAR          PTN           MMR11004090650300002050409000000000000000   10300001 00104100000000002063000000000000     
100   95050310750557450000000000099500000000099500002000000010410404090316130001736622850409209909000173   1030000500030000   541120129714000045411201297MAKRO MYANMAR          PTN           MMR11004090316130001730409000000000000000   10300001 00104100000000024875000000000000     
100   62911028202541740000000000088350000000088350002000000010410404101303557615556685900410023341906099   1030000500030000   555610108773104519000003821City Mart North Point  enter         MMR11004101303557615550410000000000000000   10300001 00104100000000005301000000000000     
100   62911028202283680000000000023762000000023762002000000010410404081050170021966251700408209817002196   1030000500030000   598320001401000015172200014MAX ENERGY             PTN           MMR11004081050170021960408000000000000000   10300001 00104100000000000713000000000000     
100   95050315005801680000000000004900000000004900002000000010410404100420525052655373980410000006984374   1020000200030000   333400010001204104000000281Myanmar Soft-Gate Tech Yangon        MMR11004100420525052650410000000000000000   10300001F05104100000000001029000000000000     
100   95050316818236190000000000001960000000001960002000000010410404101129225922750919040410000006986130   1020000200030000   333400010001204104000000281Myanmar Soft-Gate Tech Yangon        MMR11004101129225922750410000000000000000   10300001F05104100000000000412000000000000     
100   95030301100081330000000000051000000000051000002000000010410404100621196508173880110410210013650817   1040001600030000   598320000816000000010000589Regency Petrol Station Mdy           MMR11004100621196508170410000000000000000   10300001F00104100000000001530000000000000     
100   95050317248519320000000000003500000000003500002000000010410404101251202120849521840410000006986437   1030000200030000   3338000100012031040000040022C2P (Myanmar) Co. Ltd Yangon        MMR11004101251202120840410000000000000000   10300001F05104100000000000735000000000000     
100   95030346179196360000000000026000000000026000002000000010410404100858446598313880110410210015659831   1040001600030000   598320000856000000010000609Terminal Petrol Statio Yangon        MMR11004100858446598310410000000000000000   10300001F00104100000000000780000000000000     
100   62443100379116470000000000001960000000001960002000000010410404101609513951368975610410000006987138   1020000200030000   333400010001204104000000281Myanmar Soft-Gate Tech Yangon        MMR11004101609513951360410000000000000000   10300001F05104100000000000412000000000000     
100   95050313243172680000000000023916000000023916002000000010410404101145530542244053810410839151853099   1030000900030000   541119001265190110000000958City Mart PLST C 8     YANGONMYOTHIT MMR11004101145530542240410000000000000000   10300001F00104100000000005979000000000000     
100   62911028202473840000000000051600000000051600002000000010410404100416416430003880110410210011643000   1040001600030000   591220000278000000010000266Shwe Ohh Pharmacy (Bah Yangon        MMR11004100416416430000410000000000000000   10300001F00104100000000003096000000000000     
100   95030301100128040000000000034550000000034550002000000010410404100652010438013880110410548221301099   1030000900030000   541119001208190110000000948City Mart YK C 6       YANGONAUNG    MMR11004100652010438010410000000000000000   10300001F00104100000000002073000000000000     
100   62911028202243590000000000006400000000006400002000000010410404100638460433704750500410309081346099   1030000900030000   541119001273190110000000960City Mart PLST Season  YANGONMYOTHIT MMR11004100638460433700410000000000000000   10300001F00104100000000000384000000000000     
100   95050322654733420000000000043695000000043695002000000010410404100717480446213842250410009471348099   1030000900030000   541119001518190110000001102Ocean MGDTM C-11       YANGONADON    MMR11004100717480446210410000000000000000   10300001F00104100000000010924000000000000     
100   95050322654733420000000000399900000000399900002000000010410404100852440477556430800410800221544099   1030000900030000   573219001182190110000000938UNIQUE North Okkalapa  YANGONOKKALAP MMR11004100852440477550410000000000000000   10300001F00104100000000095976000000000000     
100   95030360160133170000000000015400000000015400002000000010410404100843310474125499000410590131531099   1030000900030000   541119000146190110000000083SeinGayHarParami Cente YANGON        MMR11004100843310474120410000000000000000   10300001F00104100000000000924000000000000     
100   62911028202674810000000000016250000000016250002000000010410404100511180405174225700410752411118099   1030000900030000   541119001349190110000000977Ocean PZD C 3          YANGONAUNG    MMR11004100511180405170410000000000000000   10300001F00104100000000000975000000000000     
100   95050310357533060000000000039500000000039500002000000010410404100635020432590026700410252051302099   1030000900030000   541119001074190110000000872Sein Gay Har Hledan    YANGONUT      MMR11004100635020432590410000000000000000   10300001F00104100000000009875000000000000     
100   62911028202366010000000000187750000000187750002000000010410404100950480498133880110410025201648099   1030000900030000   541119001328190110000000971Ocean Junction NPT C6  NAYPYITAW     MMR11004100950480498130410000000000000000   10300001F00104100000000011265000000000000     
