100   62911028202610960000000000011458000000011458002000000010410404091722170001533880110409000745469491   1030000200030000   541188001008000008000000008KBZ BANK               MARKETPLACE - MMR11004091722170001530409000000000000000   10300001 00104100000000000687000000000000     
100   95030393921562700000000000073000000000073000002000000010410404090517140003014243600409000745451418   1030000200030000   564188001659000008000005171KBZ BANK               SB BABY-2     MMR11004090517140003010409000000000000000   10300001 00104100000000004380000000000000     
100   95050327192897240000000000006300000000006300002000000010410404091125160000392928050409000745450281   1030000200030000   541188001288000008000001475KBZ BANK               CITY CARE STA MMR11004091125160000390409000000000000000   10300001 00104100000000001575000000000000     
100   62911028202676220000000000052500000000052500002000000010410404090439220026624016400409000745449394   1030000200030000   591288000181000008000002044KBZ BANK               PINLON PHARMA MMR11004090439220026620409000000000000000   10300001 00104100000000003150000000000000     
100   95050317294843330000000000003500000000003500002000000010410404091110570014692771650409000745449503   1030000200030000   541188001477000008000000391KBZ BANK               OCEAN SUPER C MMR11004091110570014690409000000000000000   10300001 00104100000000000875000000000000     
100   95030318100004530000000000045561000000045561002000000010410404090949080033583535010409000745445388   1030000200030000   541188001436000008000000401KBZ BANK               OCEAN SUPERCE MMR11004090949080033580409000000000000000   10300001 00104100000000002734000000000000     
100   95050327192897240000000000009350000000009350002000000010410404090358460044288785910409508281046098   1030000900030000   591219000969190110000000776Shwe Ohh Pharmacy St ( YANGONADA     MMR11004090358460044280409000000000000000   10300001F00104100000000002244000000000000     
100   62443100315853220000000000089400000000089400002000000010410404091201330013499963470409000745452218   1030000200030000   541188001484000008000000399KBZ BANK               OCEAN SUPERCE MMR11004091201330013490409000000000000000   10300001 00104100000000022350000000000000     
100   95050317041521450000000000085698000000085698002000000010410404090519475764389367800409209912576438   1040001600030000   541120000555000000010000465Ocean Shwe Gone Daing  Yangon        MMR11004090519475764380409000000000000000   10300001F00104100000000021425000000000000     
100   62911028202524260000000000006150000000006150002000000010410404091125186007013880110409209918600701   1040001600030000   591220000261000000010000249Shwe Ohh Pharmacy (Thi Yangon        MMR11004091125186007010409000000000000000   10300001F00104100000000000369000000000000     
100   95050316321163940000000000000980000000000980002000000010410404090715204520942368030409000006980563   1020000200030000   333400010001204104000000281Myanmar Soft-Gate Tech Yangon        MMR11004090715204520940409000000000000000   10300001F05104100000000000206000000000000     
100   95050319470122050000000000004900000000004900002000000010410404090207123712404715070409000006978675   1020000200030000   333400010001204104000000281Myanmar Soft-Gate Tech Yangon        MMR11004090207123712400409000000000000000   10300001F05104100000000001029000000000000     
100   62911028202151340000000000013800000000013800002000000010410404090356375716203759810409209910571620   1040001600030000   591220000296000000010000284Shwe Ohh Pharmacy (Lan Yangon        MMR11004090356375716200409000000000000000   10300001F00104100000000000828000000000000     
100   62911028202473840000000000081300000000081300002000000010410404091052275976136254900409209917597613   1040001600030000   591220000278000000010000266Shwe Ohh Pharmacy (Bah Yangon        MMR11004091052275976130409000000000000000   10300001F00104100000000004878000000000000     
100   95050318877641040000000000031300000000031300002000000010410404091031505956813905480409209917595681   1040001600030000   591220000284000000010000272Shwe Ohh Pharmacy (San Yangon        MMR11004091031505956810409000000000000000   10300001F00104100000000007512000000000000     
100   95030393921562700000000000042800000000042800002000000010410404091300276093377022810409209920609337   1040001600030000   541120000573000000010000465Ocean Shwe Gone Daing  Yangon        MMR11004091300276093370409000000000000000   10300001F00104100000000002568000000000000     
100   95050324133333980000000000022900000000022900002000000010410404090154500018566282470409128240850098   1030000900030000   541119001262190110000000958City Mart PLST C 5     YANGONMYOTHIT MMR11004090154500018560409000000000000000   10300001F00104100000000005725000000000000     
100   62911028202761360000000000064500000000064500002000000010410404090705150027394891600409209913002739   1020000200030000   541100255002300115411000025MWD BANK               YGN           MMR11004090705150027390409000000000000000   10300001 00104100000000003870000000000000     
100   62911028202761360000000000010430000000010430002000000010410404090746560029153880110409209914002915   1020000200030000   541100255001300115411000025MWD BANK               YGN           MMR11004090746560029150409000000000000000   10300001 00104100000000000626000000000000     
100   95050313817486860000000000044850000000044850002000000010410404091136380039692672770409000745450831   1030000200030000   541188001424000008000000401KBZ BANK               OCEAN SUPERCE MMR11004091136380039690409000000000000000   10300001 00104100000000011213000000000000     
100   62911028202313470000000000122018000000122018002000000010410404091708590071286174210409000745468499   1030000200030000   541188001002000008000000008KBZ BANK               MARKETPLACE - MMR11004091708590071280409000000000000000   10300001 00104100000000007321000000000000     
100   62911028202019440000000000027500000000027500002000000010410404090231490026563251100409000745443284   1030000200030000   591288000181000008000002044KBZ BANK               PINLON PHARMA MMR11004090231490026560409000000000000000   10300001 00104100000000001650000000000000     
100   62911028202756820000000000059008000000059008002000000010410404091656280014453880110409000745467841   1030000200030000   541188001488000008000000399KBZ BANK               OCEAN SUPERCE MMR11004091656280014450409000000000000000   10300001 00104100000000003540000000000000     
100   95050310607449490000000000080000000000080000002000000010410404091032130022400948970409000745447441   1030000200030000   541188001481000008000000399KBZ BANK               OCEAN SUPERCE MMR11004091032130022400409000000000000000   10300001 00104100000000020000000000000000     
100   95050322312885760000000000025000000000025000002000000010410404090924365436054155060409000006981247   1030000200030000   333800010001203104000003327KBZPay                 Yangon        MMR11004090924365436050409000000000000000   10300001F05104100000000005250000000000000     
100   95050316901496590000000000020800000000020800002000000010410404091251466086251621670409209919608625   1040001600030000   541120000561000000010000465Ocean Shwe Gone Daing  Yangon        MMR11004091251466086250409000000000000000   10300001F00104100000000005200000000000000     
100   95050310427855490000000000004900000000004900002000000010410404090227305730622807310409000006978790   1020000200030000   333400010001204104000000281Myanmar Soft-Gate Tech Yangon        MMR11004090227305730620409000000000000000   10300001F05104100000000001029000000000000     
100   95030337100000390000000000010500000000010500002000000010410404090938155915483880110409209916591548   1040001600030000   591220000288000000010000276Shwe Ohh Pharmacy (Nor Yangon        MMR11004090938155915480409000000000000000   10300001F00104100000000000630000000000000     
100   95050320335873810000000000000980000000000980002000000010410404091507163716593430560409000006982800   1020000200030000   333400010001204104000000281Myanmar Soft-Gate Tech Yangon        MMR11004091507163716590409000000000000000   10300001F05104100000000000206000000000000     
100   95050312287957830000000000050000000000050000002000000010410404091024217460717550830409206541656098   1030000300030000   555510124685104519000020166Makro Myanmar                        MMR11004091024217460710409000000000000000   10300001 00104100000000012000000000000000     
100   62443100378297160000000000004900000000004900002000000010410404090212064206489757630409000006978713   1020000200030000   333400010001204104000000281Myanmar Soft-Gate Tech Yangon        MMR11004090212064206480409000000000000000   10300001F05104100000000001029000000000000     
100   62911028202169750000000000043455000000043455002000000010410404090645405818293880110409209913581829   1040001600030000   541120000557000000010000465Ocean Shwe Gone Daing  Yangon        MMR11004090645405818290409000000000000000   10300001F00104100000000002607000000000000     
100   62911028202761360000000000031200000000031200002000000010410404090733490026835063000409209914002683   1020000200030000   541100255003300115411000025MWD BANK               YGN           MMR11004090733490026830409000000000000000   10300001 00104100000000001872000000000000     
100   62443100379321630000000000023000000000023000002000000010410404090303440030411495200409667330944098   1030000900030000   581219000447190110000000301Shwepalin (Highway-4)  MONIKTO       MMR11004090303440030410409000000000000000   10300001F00104100000000009775000000000000     
100   95050317294843330000000000151230000000151230002000000010410404091027520022015395850409000745447205   1030000200030000   541188001452000008000000391KBZ BANK               OCEAN SUPER C MMR11004091027520022010409000000000000000   10300001 00104100000000037808000000000000     
100   62443100315853220000000000046057000000046057002000000010410404091157130029779878380409000745451990   1030000200030000   541188001483000008000000399KBZ BANK               OCEAN SUPERCE MMR11004091157130029770409000000000000000   10300001 00104100000000011515000000000000     
100   62911028202676220000000000043500000000043500002000000010410404090337570026593648000409000745446203   1030000200030000   591288000181000008000002044KBZ BANK               PINLON PHARMA MMR11004090337570026590409000000000000000   10300001 00104100000000002610000000000000     
100   95030385550669610000000000079350000000079350002000000010410404090338560038823671410409160081056098   1030000900030000   541119000376190110000000178Pro (1) Global (East D YANGONMYOTHIT MMR11004090338560038820409000000000000000   10300001F00104100000000004761000000000000     
100   62443100379321630000000000020300000000020300002000000010410404091337070034016013390409000745457459   1030000200030000   541188001447000008000000401KBZ BANK               OCEAN SUPERCE MMR11004091337070034010409000000000000000   10300001 00104100000000005075000000000000     
100   95050325593833300000000000017434000000017434002000000010410404090925530149782077090409753551553098   1030000900030000   581219000006190110000000004Jo Jo Hot Pot Junction YANGONUT      MMR11004090925530149780409000000000000000   10300001F00104100000000007410000000000000     
100   62443100389971990000000000020000000000020000002000000010410404091609203920982288650409000006983014   1030000200030000   333800010001203104000003327KBZPay                 Yangon        MMR11004091609203920980409000000000000000   10300001F05104100000000004200000000000000     
100   95030337100000390000000000019800000000019800002000000010410404090936285914193880110409209916591419   1040001600030000   591220000288000000010000276Shwe Ohh Pharmacy (Nor Yangon        MMR11004090936285914190409000000000000000   10300001F00104100000000001188000000000000     
100   95050319938772870000000000001960000000001960002000000010410404091325155515321948260409000006982349   1020000200030000   333400010001204104000000281Myanmar Soft-Gate Tech Yangon        MMR11004091325155515320409000000000000000   10300001F05104100000000000412000000000000     
100   95050310332595380000000000009800000000009800002000000010410404091423085308148388010409000006982642   1020000200030000   333400010001204104000000281Myanmar Soft-Gate Tech Yangon        MMR11004091423085308140409000000000000000   10300001F05104100000000002058000000000000     
100   95050317578818060000000000030807000000030807002000000010410404090552245784994750730409209912578499   1040001600030000   541120000563000000010000465Ocean Shwe Gone Daing  Yangon        MMR11004090552245784990409000000000000000   10300001F00104100000000007702000000000000     
100   62911028202112400000000000087000000000087000002000000010410404090932325911815775310409209916591181   1040001600030000   591220000276000000010000264Shwe Ohh Pharmacy (YGH Yangon        MMR11004090932325911810409000000000000000   10300001F00104100000000005220000000000000     
100   95030301100122420000000000100000000000100000002000000010410404090923425342065722410409000006981241   1030000200030000   333800010001203104000003327KBZPay                 Yangon        MMR11004090923425342060409000000000000000   10300001F05104100000000021000000000000000     
100   62911028202204980000000000083550000000083550002000000010410404091225066062753880110409209919606275   1040001600030000   591220000276000000010000264Shwe Ohh Pharmacy (YGH Yangon        MMR11004091225066062750409000000000000000   10300001F00104100000000005013000000000000     
100   95050325784857510000000000003700000000003700002000000010410404090751250118786523970409492211425098   1030000900030000   541119001208190110000000948City Mart YK C 6       YANGONAUNG    MMR11004090751250118780409000000000000000   10300001F00104100000000000925000000000000     
100   95050315564078030000000000000980000000000980002000000010410404090231180118594544890409000006978801   1020000200030000   333400010001204104000000281Myanmar Soft-Gate Tech Yangon        MMR11004090231180118590409000000000000000   10300001F05104100000000000206000000000000     
100   95050315833864180000000000007850000000007850002000000010410404090657090101994034310409353271309098   1030000900030000   541119000136190110000000083SeinGayHarParami Cente YANGON        MMR11004090657090101990409000000000000000   10300001F00104100000000001963000000000000     
100   95050312499482960000000000009200000000009200002000000010410404090800480121459914030409680301448098   1030000900030000   541119001249190110000000955City Mart JS C 8       YANGONUT      MMR11004090800480121450409000000000000000   10300001F00104100000000002300000000000000     
100   62911028202053740000000000042300000000042300002000000010410404090534460074454366310409475041246098   1030000900030000   541119000282190110000000177Pro1 Global (Insein)   YANGON        MMR11004090534460074450409000000000000000   10300001F00104100000000002538000000000000     
100   62911028202802520000000000022000000000022000002000000010410404090628380092933880110409727581238098   1030000900030000   541119001215190110000000950City Mart YK City Care YANGONAUNG    MMR11004090628380092930409000000000000000   10300001F00104100000000001320000000000000     
100   95050311230075240000000000030000000000030000002000000010410404090931460146753814670409000006981272   1030000200030000   333800010001203104000003327KBZPay                 Yangon        MMR11004090931460146750409000000000000000   10300001F05104100000000006300000000000000     
100   95050314126593570000000000032000000000032000002000000010410404090925340149633729580409746551534098   1030000900030000   723019001041190110000000846Beauty Diary IS        YANGONUT      MMR11004090925340149630409000000000000000   10300001F00104100000000007680000000000000     
100   62443100379184770000000000010000000000010000002000000010410404091318144814960295790409000006982307   1030000200030000   333800010001203104000003327KBZPay                 Yangon        MMR11004091318144814960409000000000000000   10300001F05104100000000002100000000000000     
100   95030327835334700000000000019000000000019000002000000010410404090311465693853490900409209910569385   1040001600030000   569120000932000000010000679Generation Concept Sto Ygn           MMR11004090311465693850409000000000000000   10300001F00104100000000001140000000000000     
100   62911028202169750000000000021000000000021000002000000010410404090814335868105307500409209915586810   1040001600030000   598320000838000000010000600Regency Petrol Station Ygn           MMR11004090814335868100409000000000000000   10300001F00104100000000000630000000000000     
100   95050315005801680000000000004900000000004900002000000010410404091403593359641692980409000006982551   1020000200030000   333400010001204104000000281Myanmar Soft-Gate Tech Yangon        MMR11004091403593359640409000000000000000   10300001F05104100000000001029000000000000     
100   95050323233042810000000000000980000000000980002000000010410404081703593359705615490409000006977944   1020000200030000   333400010001204104000000281Myanmar Soft-Gate Tech Yangon        MMR11004081703593359700409000000000000000   10300001F05104100000000000206000000000000     
100   95050312498129060000000000000980000000000980002000000010410404091321465146653600750409000006982334   1020000200030000   333400010001204104000000281Myanmar Soft-Gate Tech Yangon        MMR11004091321465146650409000000000000000   10300001F05104100000000000206000000000000     
100   95030301100128610000000000066700000000066700002000000010410404090429197410683880110409007591026098   1030000500030000   555610112255104519000010487Ocean Super Center St  ohn           MMR11004090429197410680409000000000000000   10300001 00104100000000004002000000000000     
100   95050310213446310000000000019600000000019600002000000010410404090906413641713389190409000006981158   1020000200030000   333400010001204104000000281Myanmar Soft-Gate Tech Yangon        MMR11004090906413641710409000000000000000   10300001F05104100000000004116000000000000     
100   95050329068434320000000000088900000000088900002000000010410404090504520065187630220409895341152098   1030000900030000   723019001054190110000000857Beauty Diary JC        YANGONN       MMR11004090504520065180409000000000000000   10300001F00104100000000021336000000000000     
100   95050324947866880000000000008250000000008250002000000010410404091333510096968991760409000745457251   1030000200030000   541188001246000008000000323KBZ BANK               CITY MART - I MMR11004091333510096960409000000000000000   10300001 00104100000000002063000000000000     
100   62911028202496380000000000042500000000042500002000000010410404090548260079333880110409794181226098   1030000900030000   541119000141190110000000083SeinGayHarParami Cente YANGON        MMR11004090548260079330409000000000000000   10300001F00104100000000002550000000000000     
100   95050322420590810000000000018400000000018400002000000010410404090538120075983013160409581081212098   1030000900030000   541119001510190110000001102Ocean MGDTM-C 3        YANGONADON    MMR11004090538120075980409000000000000000   10300001F00104100000000004600000000000000     
100   95050312845568060000000000022500000000022500002000000010410404090742170115682538220409277121417098   1030000900030000   541119001207190110000000948City Mart YK C 5       YANGONAUNG    MMR11004090742170115680409000000000000000   10300001F00104100000000005625000000000000     
100   62443100302386910000000000031400000000031400002000000010410404091458020142975296960409000745461656   1030000200030000   541188001061000008000000314KBZ BANK               MARKETPLACE - MMR11004091458020142970409000000000000000   10300001 00104100000000007850000000000000     
100   95050315440420430000000000029900000000029900002000000010410404090719060108825758100409827491306098   1030000900030000   541119001264190110000000958City Mart PLST C 7     YANGONMYOTHIT MMR11004090719060108820409000000000000000   10300001F00104100000000007475000000000000     
100   95050321057500320000000000016750000000016750002000000010410404090702460103882623320409484321346098   1030000900030000   541119001248190110000000955City Mart JS C 7       YANGONUT      MMR11004090702460103880409000000000000000   10300001F00104100000000004188000000000000     
100   95050329068434320000000000086700000000086700002000000010410404091329330078725686790409000745457023   1030000200030000   541188001060000008000000314KBZ BANK               MARKETPLACE - MMR11004091329330078720409000000000000000   10300001 00104100000000021675000000000000     
100   95050325593833300000000000169000000000169000002000000010410404091139240203011111090409299091824098   1030000900030000   573219001009190110000000814LG Myanmar Plaza LG MP YANGON        MMR11004091139240203010409000000000000000   10300001F00104100000000040560000000000000     
100   95030321128605110000000000278776000000278776002000000010410404091310380232737101610409926401938098   1030000900030000   701119000064190110000000024Lotte Hotel            YANGON        MMR11004091310380232730409000000000000000   10300001F00104100000000028435000000000000     
100   95050319161596230000000000000980000000000980002000000010410404091038250825638948030409000006981626   1020000200030000   333400010001204104000000281Myanmar Soft-Gate Tech Yangon        MMR11004091038250825630409000000000000000   10300001F05104100000000000206000000000000     
100   95050313540228790000000000050000000000050000002000000010410404090351132113993658270409000006979362   1030000200030000   333800010001203104000003327KBZPay                 Yangon        MMR11004090351132113990409000000000000000   10300001F05104100000000010500000000000000     
100   95050317376014640000000000000980000000000980002000000010410404090610404040803779020409000006980207   1020000200030000   333400010001204104000000281Myanmar Soft-Gate Tech Yangon        MMR11004090610404040800409000000000000000   10300001F05104100000000000206000000000000     
100   62911028202417000000000000016550000000016550002000000010410404091056290184473880110409136261729098   1030000900030000   541119001208190110000000948City Mart YK C 6       YANGONAUNG    MMR11004091056290184470409000000000000000   10300001F00104100000000000993000000000000     
100   95050312498129060000000000004900000000004900002000000010410404091045541554522253000409000006981661   1020000200030000   333400010001204104000000281Myanmar Soft-Gate Tech Yangon        MMR11004091045541554520409000000000000000   10300001F05104100000000001029000000000000     
100   95050314567755980000000000005500000000005500002000000010410404090449561956294495440409000006979749   1030000200030000   333800010001203104000003327KBZPay                 Yangon        MMR11004090449561956290409000000000000000   10300001F05104100000000001155000000000000     
100   95050314791376690000000000006860000000006860002000000010410404090757062706419828930409000006980793   1020000200030000   333400010001204104000000281Myanmar Soft-Gate Tech Yangon        MMR11004090757062706410409000000000000000   10300001F05104100000000001441000000000000     
100   95050314791376690000000000002940000000002940002000000010410404090754482448664871480409000006980775   1020000200030000   333400010001204104000000281Myanmar Soft-Gate Tech Yangon        MMR11004090754482448660409000000000000000   10300001F05104100000000000617000000000000     
100   95050316818236190000000000000980000000000980002000000010410404091137360736019458610409000006981882   1020000200030000   333400010001204104000000281Myanmar Soft-Gate Tech Yangon        MMR11004091137360736010409000000000000000   10300001F05104100000000000206000000000000     
100   95050311419479170000000000001960000000001960002000000010410404090949171917700515420409000006981360   1020000200030000   333400010001204104000000281Myanmar Soft-Gate Tech Yangon        MMR11004090949171917700409000000000000000   10300001F05104100000000000412000000000000     
100   95050316785465380000000000001960000000001960002000000010410404090753332333004786390409000006980771   1020000200030000   333400010001204104000000281Myanmar Soft-Gate Tech Yangon        MMR11004090753332333000409000000000000000   10300001F05104100000000000412000000000000     
100   95030353305053700000000000050400000000050400002000000010410404090434150415713880110409000006979637   1030000900030000   333800010001202104000003301uab bank               Yangon        MMR11004090434150415710409000000000000000   10300001F05104100000000010584000000000000     
100   95050311458479980000000000005000000000005000002000000010410404091238580858089884090409000006982161   1030000200030000   3338000100012031040000040022C2P (Myanmar) Co. Ltd Yangon        MMR11004091238580858080409000000000000000   10300001F05104100000000001050000000000000     
100   62911028202125030000000000041982000000041982002000000010410404090928450175703412800409000745444439   1030000200030000   541188001080000008000000294KBZ BANK               CITY MART - J MMR11004090928450175700409000000000000000   10300001 00104100000000002519000000000000     
100   95050318621775380000000000005000000000005000002000000010410404090748421842576438870409000006980743   1030000200030000   3338000100012031040000040022C2P (Myanmar) Co. Ltd Yangon        MMR11004090748421842570409000000000000000   10300001F05104100000000001050000000000000     
100   95050318131043910000000000004900000000004900002000000010410404090450002000222842960409000006979753   1020000200030000   333400010001204104000000281Myanmar Soft-Gate Tech Yangon        MMR11004090450002000220409000000000000000   10300001F05104100000000001029000000000000     
100   95050312695033440000000000000980000000000980002000000010410404091342471247343260370409000006982443   1020000200030000   333400010001204104000000281Myanmar Soft-Gate Tech Yangon        MMR11004091342471247340409000000000000000   10300001F05104100000000000206000000000000     
100   95050312498129060000000000009800000000009800002000000010410404091002423242783480000409000006981440   1020000200030000   333400010001204104000000281Myanmar Soft-Gate Tech Yangon        MMR11004091002423242780409000000000000000   10300001F05104100000000002058000000000000     
100   95050312675525330000000000001000000000001000002000000010410404091154582458555096830409000006981965   1030000200030000   333800010001203104000003327KBZPay                 Yangon        MMR11004091154582458550409000000000000000   10300001F05104100000000000210000000000000     
100   95050312360118350000000000015000000000015000002000000010410404090313554355281665400409000006979085   1030000200030000   333800010001203104000003327KBZPay                 Yangon        MMR11004090313554355280409000000000000000   10300001F05104100000000003150000000000000     
100   95050319211130030000000000009600000000009600002000000010410404091210090214946834410409021401809098   1030000900030000   541119001277190110000000963City Mart SPL C 2      YANGONMYOTHIT MMR11004091210090214940409000000000000000   10300001F00104100000000002400000000000000     
100   95050312498129060000000000000980000000000980002000000010410404091339380938119955400409000006982420   1020000200030000   333400010001204104000000281Myanmar Soft-Gate Tech Yangon        MMR11004091339380938110409000000000000000   10300001F05104100000000000206000000000000     
100   95050310314438940000000000023000000000023000002000000010410404090553402340183098250409000006980118   1030000200030000   333800010001203104000003327KBZPay                 Yangon        MMR11004090553402340180409000000000000000   10300001F05104100000000004830000000000000     
100   62911028202473840000000000036831000000036831002000000010410404091131440175883880110409000745450608   1030000200030000   541188001080000008000000294KBZ BANK               CITY MART - J MMR11004091131440175880409000000000000000   10300001 00104100000000002210000000000000     
100   62911028202045260000000000008400000000008400002000000010410404091302260175934694810409000745455546   1030000200030000   541188001080000008000000294KBZ BANK               CITY MART - J MMR11004091302260175930409000000000000000   10300001 00104100000000000504000000000000     
100   95030301100103860000000000003476000000003476002000000010410404091351170189553880110409000745458206   1030000200030000   541188001054000008000000314KBZ BANK               MARKETPLACE - MMR11004091351170189550409000000000000000   10300001 00104100000000000209000000000000     
100   95050311382087030000000000001960000000001960002000000010410404091336580658725338330409000006982401   1020000200030000   333400010001204104000000281Myanmar Soft-Gate Tech Yangon        MMR11004091336580658720409000000000000000   10300001F05104100000000000412000000000000     
100   62911028202496380000000000084900000000084900002000000010410404091241050225393880110409617111905098   1030000900030000   541119001219190110000000945City Mart TM C 4       YANGONONE     MMR11004091241050225390409000000000000000   10300001F00104100000000005094000000000000     
100   95050316638224720000000000002940000000002940002000000010410404090446081608435906430409000006979722   1020000200030000   333400010001204104000000281Myanmar Soft-Gate Tech Yangon        MMR11004090446081608430409000000000000000   10300001F05104100000000000617000000000000     
100   95050312675525330000000000010000000000010000002000000010410404091242531253558231610409000006982181   1030000200030000   333800010001203104000003327KBZPay                 Yangon        MMR11004091242531253550409000000000000000   10300001F05104100000000002100000000000000     
100   95050322312885760000000000020000000000020000002000000010410404090758412841108176450409000006980798   1030000200030000   333800010001203104000003327KBZPay                 Yangon        MMR11004090758412841100409000000000000000   10300001F05104100000000004200000000000000     
100   62911028202133520000000000006400000000006400002000000010410404091218580217913880110409189481858098   1030000900030000   541119001186190110000000942City Mart HDC C 1      YANGONUT      MMR11004091218580217910409000000000000000   10300001F00104100000000000384000000000000     
100   62911028202011260000000000170000000000170000002000000010410404091048271827526230910409000006981668   1030000200030000   333800010001203104000003327KBZPay                 Yangon        MMR11004091048271827520409000000000000000   10300001F05104100000000035700000000000000     
100   95050319156011610000000000004900000000004900002000000010410404090143581358804303390409000006978557   1020000200030000   333400010001204104000000281Myanmar Soft-Gate Tech Yangon        MMR11004090143581358800409000000000000000   10300001F05104100000000001029000000000000     
100   95050323233042810000000000000980000000000980002000000010410404091400263026033345460409000006982531   1020000200030000   333400010001204104000000281Myanmar Soft-Gate Tech Yangon        MMR11004091400263026030409000000000000000   10300001F05104100000000000206000000000000     
100   95050316321163940000000000002940000000002940002000000010410404090854282428499999130409000006981084   1020000200030000   333400010001204104000000281Myanmar Soft-Gate Tech Yangon        MMR11004090854282428490409000000000000000   10300001F05104100000000000617000000000000     
100   95050327996244850000000000100000000000100000002000000010410404090555322532476488310409000006980127   1030000200030000   3338000100012031040000040022C2P (Myanmar) Co. Ltd Yangon        MMR11004090555322532470409000000000000000   10300001F05104100000000021000000000000000     
100   95050320360851930000000000000980000000000980002000000010410404091411314131194997940409000006982589   1020000200030000   333400010001204104000000281Myanmar Soft-Gate Tech Yangon        MMR11004091411314131190409000000000000000   10300001F05104100000000000206000000000000     
100   95050310213446310000000000004900000000004900002000000010410404090911334133505126770409000006981184   1020000200030000   333400010001204104000000281Myanmar Soft-Gate Tech Yangon        MMR11004090911334133500409000000000000000   10300001F05104100000000001029000000000000     
100   62911028202720510000000000006100000000006100002000000010410404091329300175974857410409000745457019   1030000200030000   541188001080000008000000294KBZ BANK               CITY MART - J MMR11004091329300175970409000000000000000   10300001 00104100000000000366000000000000     
100   95050319468370810000000000000980000000000980002000000010410404091311014101676905720409000006982278   1020000200030000   333400010001204104000000281Myanmar Soft-Gate Tech Yangon        MMR11004091311014101670409000000000000000   10300001F05104100000000000206000000000000     
100   95050311931431670000000000004900000000004900002000000010410404090814534453434531100409000006980868   1020000200030000   333400010001204104000000281Myanmar Soft-Gate Tech Yangon        MMR11004090814534453430409000000000000000   10300001F05104100000000001029000000000000     
100   95050314570621780000000000000980000000000980002000000010410404091035360536637210450409000006981605   1020000200030000   333400010001204104000000281Myanmar Soft-Gate Tech Yangon        MMR11004091035360536630409000000000000000   10300001F05104100000000000206000000000000     
100   95050316321163940000000000000980000000000980002000000010410404090857232723328346640409000006981100   1020000200030000   333400010001204104000000281Myanmar Soft-Gate Tech Yangon        MMR11004090857232723320409000000000000000   10300001F05104100000000000206000000000000     
100   95050324247403260000000000101241000000101241002000000010410404091106060175359466680409000745449212   1030000200030000   541188001124000008000000296KBZ BANK               CITY MART - J MMR11004091106060175350409000000000000000   10300001 00104100000000025311000000000000     
100   95050319211130030000000000018900000000018900002000000010410404091205170213081791870409911351817098   1030000900030000   541119001290190110000000965City Mart SPL City Car YANGONMYOTHIT MMR11004091205170213080409000000000000000   10300001F00104100000000004725000000000000     
100   95050310213446310000000000009800000000009800002000000010410404091154362436486749320409000006981964   1020000200030000   333400010001204104000000281Myanmar Soft-Gate Tech Yangon        MMR11004091154362436480409000000000000000   10300001F05104100000000002058000000000000     
100   95030352597917530000000000020000000000020000002000000010410404090454372437193880110409000006979774   1030000200030000   333800010001203104000003327KBZPay                 Yangon        MMR11004090454372437190409000000000000000   10300001F05104100000000004200000000000000     
100   95050312781844250000000000005000000000005000002000000010410404091411374137026735530409000006982591   1030000200030000   3334000100012031040000040102C2P (Myanmar) Co. Ltd Yangon        MMR11004091411374137020409000000000000000   10300001F05104100000000001050000000000000     
100   62911028202318180000000000082820000000082820002000000010410404091003310162703880110409640331631098   1030000900030000   541119001075190110000000872Sein Gay Har Hledan    YANGONUT      MMR11004091003310162700409000000000000000   10300001F00104100000000004969000000000000     
100   62911028202133940000000000019360000000019360002000000010410404091250430227803880110409719201943098   1030000900030000   581319001483190110000001079I Four-1               YANGON        MMR11004091250430227800409000000000000000   10300001F00104100000000001975000000000000     
100   95030301100168540000000000040000000000040000002000000010410404091137100710456523300409000006981881   1030000200030000   333800010001203104000003327KBZPay                 Yangon        MMR11004091137100710450409000000000000000   10300001F05104100000000008400000000000000     
100   95050316785465380000000000001960000000001960002000000010410404090736230623957495680409000006980681   1020000200030000   333400010001204104000000281Myanmar Soft-Gate Tech Yangon        MMR11004090736230623950409000000000000000   10300001F05104100000000000412000000000000     
100   95050317903887690000000000001512000000001512002000000010410404090443321332824083750409000006979701   1030000900030000   333800010001202104000003301uab bank               Yangon        MMR11004090443321332820409000000000000000   10300001F05104100000000000317000000000000     
100   95050318646071770000000000000980000000000980002000000010410404090955512551061742420409000006981383   1020000200030000   333400010001204104000000281Myanmar Soft-Gate Tech Yangon        MMR11004090955512551060409000000000000000   10300001F05104100000000000206000000000000     
100   62911028202496380000000000043700000000043700002000000010410404091150480207636622610409583201848098   1030000900030000   541119000141190110000000083SeinGayHarParami Cente YANGON        MMR11004091150480207630409000000000000000   10300001F00104100000000002622000000000000     
100   95050320953132470000000000011600000000011600002000000010410404091256530229361863170409786261953098   1030000900030000   541119001207190110000000948City Mart YK C 5       YANGONAUNG    MMR11004091256530229360409000000000000000   10300001F00104100000000002900000000000000     
100   95050312675525330000000000010000000000010000002000000010410404091246311631388316710409000006982198   1030000200030000   333800010001203104000003327KBZPay                 Yangon        MMR11004091246311631380409000000000000000   10300001F05104100000000002100000000000000     
100   95050313411345710000000000032500000000032500002000000010410404090359372937840438400409000006979413   1030000200030000   3338000100012031040000040022C2P (Myanmar) Co. Ltd Yangon        MMR11004090359372937840409000000000000000   10300001F05104100000000006825000000000000     
100   62911028202031710000000000077350000000077350002000000010410404091656090188636097100409000745467816   1030000200030000   541188001037000008000000010KBZ BANK               MARKETPLACE - MMR11004091656090188630409000000000000000   10300001 00104100000000004641000000000000     
100   62443101006037900000000000020000000000020000002000000010410404091106230188611281290409394361723098   1030000900030000   554119000348190110000000215New Day Energy MYG     YANGONONE     MMR11004091106230188610409000000000000000   10300001F00104100000000002400000000000000     
100   95050316421999920000000000009750000000009750002000000010410404080931200000354039770408000339223862   1030000300030000   541100000961000000000000683CB BANK                ONE STOP KITC MMR11004080931200000350408000000000000000   10300001F00104100000000002438000000000000     
100   62443100395250310000000000005750000000005750002000000010410404080940430000373476420408000339225181   1030000300030000   541100000961000000000000683CB BANK                ONE STOP KITC MMR11004080940430000370408000000000000000   10300001F00104100000000001438000000000000     
100   62443100371022130000000000044000000000044000002000000010410404081155160006561845810408000339244238   1030000300030000   598300001209000000000000817CB BANK                SHWE TAUNG EN MMR11004081155160006560408000000000000000   10300001F00104100000000005280000000000000     
100   95050312554086980000000000005950000000005950002000000010410404080804410001757372360408000339211043   1030000300030000   541100000449000000000000319CB BANK                ONESTOP KITCH MMR11004080804410001750408000000000000000   10300001F00104100000000001488000000000000     
100   95050318818534160000000000022400000000022400002000000010410404081205350011035844190408000339245628   1030000300030000   591200000340000000000000220CB BANK                MEDICARE STOR MMR11004081205350011030408000000000000000   10300001F00104100000000005376000000000000     
100   62911028202527070000000000029000000000029000002000000010410404080155250122252113100408209801012225   1030000600030000   554100001754315799420001135DENKO KYITE HTO        MON STATE.    MMR11004080155250122250408000000000000000   10300001 00104100000000000870000000000000     
100   95030305700676370000000000045000000000045000002000000010410404080623570172322113100408209806017232   1030000600030000   554100001212315799420000664DENKO TA TAR OO        TA TAR OO     MMR11004080623570172320408000000000000000   10300001 00104100000000001350000000000000     
100   62911028202318750000000000007200000000007200002000000010410404080926280038165738310408209809003816   1030000600030000   549900002089315799420001439EASY MART 021          YANGON        MMR11004080926280038160408000000000000000   10300001 00104100000000000734000000000000     
100   62911028202284260000000000029284000000029284002000000010410404091136580202013880110409235061858098   1030000900030000   541119001244190110000000955City Mart JS C 3       YANGONUT      MMR11004091136580202010409000000000000000   10300001F00104100000000001757000000000000     
100   62911028202496380000000000018100000000018100002000000010410404091243520226156941010409655131952098   1030000900030000   541119001219190110000000945City Mart TM C 4       YANGONONE     MMR11004091243520226150409000000000000000   10300001F00104100000000001086000000000000     
100   95050319156011610000000000000980000000000980002000000010410404090148401840434388480409000006978576   1020000200030000   333400010001204104000000281Myanmar Soft-Gate Tech Yangon        MMR11004090148401840430409000000000000000   10300001F05104100000000000206000000000000     
100   95050323233042810000000000000980000000000980002000000010410404091534240424283941140409000006982895   1020000200030000   333400010001204104000000281Myanmar Soft-Gate Tech Yangon        MMR11004091534240424280409000000000000000   10300001F05104100000000000206000000000000     
100   95050323133124350000000000002940000000002940002000000010410404090311394139391580310409000006979071   1020000200030000   333400010001204104000000281Myanmar Soft-Gate Tech Yangon        MMR11004090311394139390409000000000000000   10300001F05104100000000000617000000000000     
100   95050327192897240000000000055627000000055627002000000010410404091257230220716828700409000745455288   1030000200030000   541188001059000008000000314KBZ BANK               MARKETPLACE - MMR11004091257230220710409000000000000000   10300001 00104100000000013907000000000000     
100   95050319502933380000000000000980000000000980002000000010410404091234330433756579120409000006982129   1020000200030000   333400010001204104000000281Myanmar Soft-Gate Tech Yangon        MMR11004091234330433750409000000000000000   10300001F05104100000000000206000000000000     
100   95050327996244850000000000100000000000100000002000000010410404090639270927461871250409000006980370   1030000200030000   333800010001203104000003327KBZPay                 Yangon        MMR11004090639270927460409000000000000000   10300001F05104100000000021000000000000000     
100   95030301100121270000000000015000000000015000002000000010410404072247440150321905910408209822015032   1030000600030000   554100001011315799420000505DENKO HTAN TA PIN      YANGON        MMR11004072247440150320408000000000000000   10300001 00104100000000000450000000000000     
100   95030313100013730000000000026571000000026571002000000010410404081100010037946300300408000339236465   1030000300030000   541100000443000000000000319CB BANK                ONESTOP KITCH MMR11004081100010037940408000000000000000   10300001F00104100000000001594000000000000     
100   62443100313002190000000000020000000000020000002000000010410404080405180439267051690408209804043926   1030000600030000   554100001001315799420000498DENKO SHWE PYI THAR    YANGON        MMR11004080405180439260408000000000000000   10300001 00104100000000002400000000000000     
100   62911028202136750000000000045000000000045000002000000010410404080653060304632113100408209806030463   1030000600030000   554100001016315799420000510DENKO AUNG SAN         YANGON        MMR11004080653060304630408000000000000000   10300001 00104100000000001350000000000000     
100   95050322220807920000000000025075000000025075002000000010410404080535195059661589370408209812505966   1040001600030000   541120000559000000010000465Ocean Shwe Gone Daing  Yangon        MMR11004080535195059660408000000000000000   10300001F00104100000000006269000000000000     
100   95050322158563070000000000037653000000037653002000000010410404070856320035437718660407209708003543   1030000600030000   581200002287315799420000141FUJI COFFEE HOUSE      YANGON        MMR11004070856320035430407000000000000000   10300001 00104100000000016003000000000000     
100   95030305700676370000000000060000000000060000002000000010410404070855420029524679600407209708002952   1030000600030000   554100001228315799420000682DENKO MEIKHTILAR       MEIKHTILAR.   MMR11004070855420029520407000000000000000   10300001 00104100000000001800000000000000     
100   95050311959900780000000000001960000000001960002000000010410404091201173117558486890409000006981983   1020000200030000   333400010001204104000000281Myanmar Soft-Gate Tech Yangon        MMR11004091201173117550409000000000000000   10300001F05104100000000000412000000000000     
100   95030301100119050000000000030000000000030000002000000010410404090453202320233880110409000006979772   1030000200030000   333800010001203104000003327KBZPay                 Yangon        MMR11004090453202320230409000000000000000   10300001F05104100000000006300000000000000     
100   95050310676042860000000000010000000000010000002000000010410404090609023902910388960409000006980196   1030000200030000   333800010001203104000003327KBZPay                 Yangon        MMR11004090609023902910409000000000000000   10300001F05104100000000002100000000000000     
100   95050317376014640000000000000980000000000980002000000010410404090618594859303438640409000006980262   1020000200030000   333400010001204104000000281Myanmar Soft-Gate Tech Yangon        MMR11004090618594859300409000000000000000   10300001F05104100000000000206000000000000     
100   95050324104751500000000000052030000000052030002000000010410404090616245800245091120409209913580024   1040001600030000   581420000803000000010000579Jeff's Kitchen (Ahlone Yangon        MMR11004090616245800240409000000000000000   10300001F00104100000000006244000000000000     
100   62443100330105920000000000042900000000042900002000000010410404090248177390868360430409024200915098   1030000300030000   555510124691104519000020166Makro Myanmar                        MMR11004090248177390860409000000000000000   10300001 00104100000000010296000000000000     
100   95050310608512070000000000004900000000004900002000000010410404091623285328814026230409000006983050   1020000200030000   333400010001204104000000281Myanmar Soft-Gate Tech Yangon        MMR11004091623285328810409000000000000000   10300001F05104100000000001029000000000000     
100   95050312498129060000000000009800000000009800002000000010410404091420085008060040500409000006982628   1020000200030000   333400010001204104000000281Myanmar Soft-Gate Tech Yangon        MMR11004091420085008060409000000000000000   10300001F05104100000000002058000000000000     
100   62911028202400660000000000060000000000060000002000000010410404090527175769314303810409209912576931   1040001600030000   598320000854000000010000608Terminal Petrol Statio Yangon        MMR11004090527175769310409000000000000000   10300001F00104100000000001800000000000000     
100   95030301100319860000000000030000000000030000002000000010410404080117290259222113100408209801025922   1030000600030000   554100001113315799420000571DENKO THAN HLYIN -1    THAN HLYIN    MMR11004080117290259220408000000000000000   10300001 00104100000000000900000000000000     
100   95050310599777990000000000103500000000103500002000000010410404080529470029449440100408209805002944   1030000600030000   509400000546315799420000148SHWE SAN EAIN J.C      YANGON        MMR11004080529470029440408000000000000000   10300001 00104100000000041400000000000000     
100   62443100338139870000000000300000000000300000002000000010410404091342140003802708420409000745457740   1030000200030000   541188001067000008000000314KBZ BANK               MARKETPLACE - MMR11004091342140003800409000000000000000   10300001 00104100000000075000000000000000     
100   95030302100062270000000000008550000000008550002000000010410404091813140001256559700409000745472375   1030000200030000   541188001027000008000000298KBZ BANK               CITY MART - M MMR11004091813140001250409000000000000000   10300001 00104100000000000513000000000000     
100   62911028202221220000000000005100000000005100002000000010410404090028580006602514310409000745440835   1030000200030000   541188000966000008000004949KBZ BANK               EASY-7        MMR11004090028580006600409000000000000000   10300001 00104100000000000306000000000000     
100   62911028202169750000000000222568000000222568002000000010410404091215400002624414210409000745453032   1030000200030000   541188001040000008000000010KBZ BANK               MARKETPLACE - MMR11004091215400002620409000000000000000   10300001 00104100000000013354000000000000     
100   62911028202318750000000000106000000000106000002000000010410404090514410004553880110409000745451262   1030000200030000   569988001630000008000005150KBZ BANK               YDG OFFICE    MMR11004090514410004550409000000000000000   10300001 00104100000000006360000000000000     
100   62911028202151340000000000012600000000012600002000000010410404091633490008793880110409000745466675   1030000200030000   541188001079000008000000294KBZ BANK               CITY MART - J MMR11004091633490008790409000000000000000   10300001 00104100000000000756000000000000     
100   62443100306416880000000000021000000000021000002000000010410404090737425848029233260409209914584802   1040001600030000   598320000830000000010000596Regency Petrol Station Ygn           MMR11004090737425848020409000000000000000   10300001F00104100000000002520000000000000     
100   62911028202761360000000000080000000000080000002000000010410404090817015869603880110409209915586960   1040001600030000   598320000660000000010000529Shwe Taung Energy (NPT Naypyitaw     MMR11004090817015869600409000000000000000   10300001F00104100000000002400000000000000     
100   95050325388974590000000000034150000000034150002000000010410404091136167469712763580409318111810098   1030000500030000   555610110601104519000009166City Mart 47 Branch                  MMR11004091136167469710409000000000000000   10300001 00104100000000008538000000000000     
100   95050319161596230000000000000980000000000980002000000010410404091007083708259118230409000006981458   1020000200030000   333400010001204104000000281Myanmar Soft-Gate Tech Yangon        MMR11004091007083708250409000000000000000   10300001F05104100000000000206000000000000     
100   95050312695033440000000000000980000000000980002000000010410404091316164616568558200409000006982299   1020000200030000   333400010001204104000000281Myanmar Soft-Gate Tech Yangon        MMR11004091316164616560409000000000000000   10300001F05104100000000000206000000000000     
100   62911028202027440000000000046960000000046960002000000010410404090441115741023880110409209911574102   1040001600030000   541120000553000000010000465Ocean Shwe Gone Daing  Yangon        MMR11004090441115741020409000000000000000   10300001F00104100000000002818000000000000     
100   95030301954234130000000000100000000000100000002000000010410404091108583858563880110409000006981766   1030000200030000   333800010001203104000003327KBZPay                 Yangon        MMR11004091108583858560409000000000000000   10300001F05104100000000021000000000000000     
100   95030301100129110000000000100674000000100674002000000010410404091101547465106347910409549371756098   1030000500030000   555610112244104519000010487Ocean Super Center St  ohn           MMR11004091101547465100409000000000000000   10300001 00104100000000006040000000000000     
100   62443100302523870000000000035000000000035000002000000010410404080041170100470128940408209800010047   1030000600030000   554100002324315799420000481DENKO NORTH OKKALAPA   YANGON        MMR11004080041170100470408000000000000000   10300001 00104100000000004200000000000000     
100   62911028202222620000000000080350000000080350002000000010410404090727335842045025410409209914584204   1040001600030000   591220001007000000010000737Shwe Ohh Pharmacy (Tan Ygn           MMR11004090727335842040409000000000000000   10300001F00104100000000004821000000000000     
100   62911028202663500000000000034200000000034200002000000010410404091157487472306662110409689301818098   1030000500030000   555610104020104519000003821City Mart North Point  enter         MMR11004091157487472300409000000000000000   10300001 00104100000000002052000000000000     
100   95050315158357300000000000000980000000000980002000000010410404090649391939450899530409000006980420   1020000200030000   333400010001204104000000281Myanmar Soft-Gate Tech Yangon        MMR11004090649391939450409000000000000000   10300001F05104100000000000206000000000000     
100   95030301100119050000000000050000000000050000002000000010410404090240181018703302000409000006978860   1030000200030000   333800010001203104000003327KBZPay                 Yangon        MMR11004090240181018700409000000000000000   10300001F05104100000000010500000000000000     
100   95050326590859670000000000106000000000106000002000000010410404091028455845495557970409000006981549   1030000200030000   333800010001203104000003327KBZPay                 Yangon        MMR11004091028455845490409000000000000000   10300001F05104100000000022260000000000000     
100   95050312498129060000000000000980000000000980002000000010410404091105353535857891220409000006981745   1020000200030000   333400010001204104000000281Myanmar Soft-Gate Tech Yangon        MMR11004091105353535850409000000000000000   10300001F05104100000000000206000000000000     
100   62911028202520380000000000056030000000056030002000000010410404090449065745353880110409209911574535   1040001600030000   541120000562000000010000465Ocean Shwe Gone Daing  Yangon        MMR11004090449065745350409000000000000000   10300001F00104100000000003362000000000000     
100   95050327996244850000000000200000000000200000002000000010410404090559132913553693920409000006980148   1030000200030000   3338000100012031040000040022C2P (Myanmar) Co. Ltd Yangon        MMR11004090559132913550409000000000000000   10300001F05104100000000042000000000000000     
100   95030360160133170000000000030150000000030150002000000010410404090743400116115139710409307131440098   1030000900030000   541119001223190110000000945City Mart TM C 8       YANGONONE     MMR11004090743400116110409000000000000000   10300001F00104100000000001809000000000000     
100   95050318631979070000000000006650000000006650002000000010410404081335080011791970130408000339256931   1030000300030000   541100000135000000000000062CB BANK                CAPITAL EXPRE MMR11004081335080011790408000000000000000   10300001F00104100000000001663000000000000     
100   95050316067768680000000000001960000000001960002000000010410404091519144914270636170409000006982843   1020000200030000   333400010001204104000000281Myanmar Soft-Gate Tech Yangon        MMR11004091519144914270409000000000000000   10300001F05104100000000000412000000000000     
100   62911028202687780000000000046000000000046000002000000010410404080720070079982113100408209807007998   1030000600030000   554100002085315799420000471DENKO BAHAN            YANGON        MMR11004080720070079980408000000000000000   10300001 00104100000000001380000000000000     
100   62911028202496380000000000078500000000078500002000000010410404090605000084863880110409158351200098   1030000900030000   541119000132190110000000083SeinGayHarParami Cente YANGONOKKALAP MMR11004090605000084860409000000000000000   10300001F00104100000000004710000000000000     
100   95050323670692380000000000299900000000299900002000000010410404090349449436491920690409194465563401   1040001400030000   481210000125024812100000900S-Power Mobile S-Power Mobile No.Sa( MMR11004090349449436490409000000000000000   10300001 00104100000000071976000000000000     
100   95050319996628650000000000000980000000000980002000000010410404090331440144192261080409000006979230   1020000200030000   333400010001204104000000281Myanmar Soft-Gate Tech Yangon        MMR11004090331440144190409000000000000000   10300001F05104100000000000206000000000000     
100   95050325593833300000000000024100000000024100002000000010410404091001210162006955160409592311621098   1030000900030000   541119001249190110000000955City Mart JS C 8       YANGONUT      MMR11004091001210162000409000000000000000   10300001F00104100000000006025000000000000     
100   95050316067768680000000000002940000000002940002000000010410404091408193819666650430409000006982572   1020000200030000   333400010001204104000000281Myanmar Soft-Gate Tech Yangon        MMR11004091408193819660409000000000000000   10300001F05104100000000000617000000000000     
100   95050328246950960000000000038000000000038000002000000010410404090842345884198687030409209915588419   1040001600030000   541120000562000000010000465Ocean Shwe Gone Daing  Yangon        MMR11004090842345884190409000000000000000   10300001F00104100000000009500000000000000     
100   62911028202029420000000000157000000000157000002000000010410404091102137464576316110409421321738098   1030000500030000   555610103479104519000003432City Mart Junction Zaw na 6          MMR11004091102137464570409000000000000000   10300001 00104100000000009420000000000000     
100   95050314020354280000000000019500000000019500002000000010410404091250460137065176210409000745454961   1030000200030000   541188001306000008000000325KBZ BANK               CITY MART - A MMR11004091250460137060409000000000000000   10300001 00104100000000004875000000000000     
100   95030301100354740000000000020000000000020000002000000010410404091115184518433880110409000006981786   1030000200030000   333800010001203104000003327KBZPay                 Yangon        MMR11004091115184518430409000000000000000   10300001F05104100000000004200000000000000     
100   62911028202221220000000000005000000000005000002000000010410404072224070078491764300408209822007849   1030000600030000   554100002085315799420000471DENKO BAHAN            YANGON        MMR11004072224070078490408000000000000000   10300001 00104100000000000150000000000000     
100   95050317248519320000000000003000000000003000002000000010410404090109323932359601220409000006978442   1030000200030000   3338000100012031040000040022C2P (Myanmar) Co. Ltd Yangon        MMR11004090109323932350409000000000000000   10300001F05104100000000000630000000000000     
100   95050312498129060000000000009500000000009500002000000010410404091032070207198862940409000006981571   1030000200030000   3333000100012031040000040282C2P (Myanmar) Co. Ltd Yangon        MMR11004091032070207190409000000000000000   10300001F05104100000000010000000000000000     
100   95050316067768680000000000001960000000001960002000000010410404091520405040778983680409000006982846   1020000200030000   333400010001204104000000281Myanmar Soft-Gate Tech Yangon        MMR11004091520405040770409000000000000000   10300001F05104100000000000412000000000000     
100   95050318601641810000000000000980000000000980002000000010410404091326555655672033360409000006982354   1020000200030000   333400010001204104000000281Myanmar Soft-Gate Tech Yangon        MMR11004091326555655670409000000000000000   10300001F05104100000000000206000000000000     
100   95050320335873810000000000000980000000000980002000000010410404091509323932121778070409000006982806   1020000200030000   333400010001204104000000281Myanmar Soft-Gate Tech Yangon        MMR11004091509323932120409000000000000000   10300001F05104100000000000206000000000000     
100   95050314931885730000000000000980000000000980002000000010410404090444061406402431260409000006979709   1020000200030000   333400010001204104000000281Myanmar Soft-Gate Tech Yangon        MMR11004090444061406400409000000000000000   10300001F05104100000000000206000000000000     
100   95050315701710960000000000001960000000001960002000000010410404082352162216352140320409000006978286   1020000200030000   333400010001204104000000281Myanmar Soft-Gate Tech Yangon        MMR11004082352162216350409000000000000000   10300001F05104100000000000412000000000000     
100   95050321057500320000000000031050000000031050002000000010410404090639410096410218760409960091341098   1030000900030000   541119001256190110000000957City Mart JS City Care YANGONUT      MMR11004090639410096410409000000000000000   10300001F00104100000000007763000000000000     
100   95050312498129060000000000000980000000000980002000000010410404091313094309605253240409000006982284   1020000200030000   333400010001204104000000281Myanmar Soft-Gate Tech Yangon        MMR11004091313094309600409000000000000000   10300001F05104100000000000206000000000000     
100   95050315158357300000000000002940000000002940002000000010410404091328335833036990820409000006982360   1020000200030000   333400010001204104000000281Myanmar Soft-Gate Tech Yangon        MMR11004091328335833030409000000000000000   10300001F05104100000000000617000000000000     
100   95050318741700180000000000002350000000002350002000000010410404091316347481438643300409036501939098   1030000300030000   555510125555104519000021376One Stop Mart Shopping Mall021       MMR11004091316347481430409000000000000000   10300001 00104100000000000564000000000000     
100   95050312867570630000000000005400000000005400002000000010410404090418330050742601460409952481033098   1030000900030000   541119001237190110000000952Marketplace KTY Season YANGONARTAUNG MMR11004090418330050740409000000000000000   10300001F00104100000000001350000000000000     
100   95030356977005070000000000011000000000011000002000000010410404090702510103914894810409486321351098   1030000900030000   541119000882190110000000084Pro (1) Global (Pazund YANGONARTAUNG MMR11004090702510103910409000000000000000   10300001F00104100000000000660000000000000     
100   95050319938772870000000000000980000000000980002000000010410404091056472647655728160409000006981711   1020000200030000   333400010001204104000000281Myanmar Soft-Gate Tech Yangon        MMR11004091056472647650409000000000000000   10300001F05104100000000000206000000000000     
100   62911028202610960000000000385660000000385660002000000010410404091413016152267458200409209921615226   1040001600030000   581420000803000000010000579Jeff's Kitchen (Ahlone Yangon        MMR11004091413016152260409000000000000000   10300001F00104100000000011570000000000000     
100   95030337100000390000000000033000000000033000002000000010410404090925495908133880110409209916590813   1040001600030000   591220000302000000010000290Shwe Ohh Pharmacy (Nor Yangon        MMR11004090925495908130409000000000000000   10300001F00104100000000001980000000000000     
100   62911028202366010000000000075000000000075000002000000010410404090551005784194446100409209912578419   1040001600030000   598320000326000000010000314PT Power Petrol Statio Nay Pyi Taw   MMR11004090551005784190409000000000000000   10300001F00104100000000002250000000000000     
100   95050312554086980000000000013450000000013450002000000010410404080743120031241029360408000339207836   1030000300030000   591200000314000000000000195CB BANK                MEDICARE STOR MMR11004080743120031240408000000000000000   10300001F00104100000000003228000000000000     
100   95050311736839760000000000000980000000000980002000000010410404090709253925174360900409000006980530   1020000200030000   333400010001204104000000281Myanmar Soft-Gate Tech Yangon        MMR11004090709253925170409000000000000000   10300001F05104100000000000206000000000000     
100   95050314950595330000000000005000000000005000002000000010410404091341381138878302910409000006982432   1030000200030000   3338000100012031040000040022C2P (Myanmar) Co. Ltd Yangon        MMR11004091341381138870409000000000000000   10300001F05104100000000001050000000000000     
100   62443100382109160000000000054935000000054935002000000010410404091200576040130139380409209919604013   1040001600030000   541120000567000000010000465Ocean Shwe Gone Daing  Yangon        MMR11004091200576040130409000000000000000   10300001F00104100000000013734000000000000     
100   62443100309698080000000000026900000000026900002000000010410404090915340145905637350409464451534098   1030000900030000   541119001262190110000000958City Mart PLST C 5     YANGONMYOTHIT MMR11004090915340145900409000000000000000   10300001F00104100000000006725000000000000     
