100   62443100371022130000000000008400000000008400002000000010410404141446350005402723800414000745657891   1030000200030000   541188001004000008000000008KBZ BANK               MARKETPLACE - MMR11004141446350005400414000000000000000   10300001 00104100000000002100000000000000     
100   62911028202527490000000000049000000000049000002000000010410404141059260027606685900414000745661649   1030000200030000   591288000181000008000002044KBZ BANK               PINLON PHARMA MMR11004141059260027600414000000000000000   10300001 00104100000000002940000000000000     
100   95030322236782320000000000027555000000027555002000000010410404141213240101906685900414000745654530   1030000200030000   541188001257000008000000310KBZ BANK               CITY MART- FM MMR11004141213240101900414000000000000000   10300001 00104100000000001653000000000000     
100   95050312498129060000000000002940000000002940002000000010410404141231190119251290950414000006999976   1020000200030000   333400010001204104000000281Myanmar Soft-Gate Tech Yangon        MMR11004141231190119250414000000000000000   10300001F05104100000000000617000000000000     
100   95050314749068520000000000002940000000002940002000000010410404141431480148814255530414000007000324   1020000200030000   333400010001204104000000281Myanmar Soft-Gate Tech Yangon        MMR11004141431480148810414000000000000000   10300001F05104100000000000617000000000000     
100   62911028202676220000000000062400000000062400002000000010410404140950210022346685900414000745660006   1030000200030000   591288000838000008000004646KBZ BANK               PINLON PHARMA MMR11004140950210022340414000000000000000   10300001 00104100000000003744000000000000     
100   62911028202318750000000000008300000000008300002000000010410404141145090322256685900414000745653899   1030000200030000   541188001025000008000000298KBZ BANK               CITY MART - M MMR11004141145090322250414000000000000000   10300001 00104100000000000498000000000000     
100   62911028202318750000000000011600000000011600002000000010410404141151200056626685900414000745654040   1030000200030000   541188001033000008000000298KBZ BANK               CITY MART - M MMR11004141151200056620414000000000000000   10300001 00104100000000000696000000000000     
100   95050312498129060000000000000980000000000980002000000010410404141338530853934340630414000007000172   1020000200030000   333400010001204104000000281Myanmar Soft-Gate Tech Yangon        MMR11004141338530853930414000000000000000   10300001F05104100000000000206000000000000     
100   62443100395964530000000000016500000000016500002000000010410404141506350001439333740414000745658293   1030000200030000   541188001330000008000000327KBZ BANK               CITY MART - S MMR11004141506350001430414000000000000000   10300001 00104100000000004125000000000000     
100   95050312160676580000000000000980000000000980002000000010410404141434560456062517960414000007000332   1020000200030000   333400010001204104000000281Myanmar Soft-Gate Tech Yangon        MMR11004141434560456060414000000000000000   10300001F05104100000000000206000000000000     
100   62443100395964530000000000060150000000060150002000000010410404141512130001449248640414000745658408   1030000200030000   541188001330000008000000327KBZ BANK               CITY MART - S MMR11004141512130001440414000000000000000   10300001 00104100000000015038000000000000     
100   62443100371022130000000000006000000000006000002000000010410404141452170193530986220414000745657995   1030000200030000   541188001017000008000000008KBZ BANK               MARKETPLACE - MMR11004141452170193530414000000000000000   10300001 00104100000000001500000000000000     
100   62911028202169750000000000058397000000058397002000000010410404141112310259086685900414000745653210   1030000200030000   541188001042000008000000010KBZ BANK               MARKETPLACE - MMR11004141112310259080414000000000000000   10300001 00104100000000003504000000000000     
100   95050310427855490000000000001960000000001960002000000010410404141035580558781886630414000006999659   1020000200030000   333400010001204104000000281Myanmar Soft-Gate Tech Yangon        MMR11004141035580558780414000000000000000   10300001F05104100000000000412000000000000     
100   95050311547837790000000000069000000000069000002000000010410404141109180003692078680414000745653118   1030000200030000   541188001422000008000000401KBZ BANK               OCEAN SUPERCE MMR11004141109180003690414000000000000000   10300001 00104100000000017250000000000000     
100   95050319528093960000000000000980000000000980002000000010410404141532420242442858340414000007000501   1020000200030000   333400010001204104000000281Myanmar Soft-Gate Tech Yangon        MMR11004141532420242440414000000000000000   10300001F05104100000000000206000000000000     
100   95050316602045260000000000120000000000120000002000000010410404141440191019824170440414000007000338   1030000200030000   333800010001203104000003327KBZPay                 Yangon        MMR11004141440191019820414000000000000000   10300001F05104100000000025200000000000000     
100   95050323233042810000000000000980000000000980002000000010410404140740271027987425970414000006999249   1020000200030000   333400010001204104000000281Myanmar Soft-Gate Tech Yangon        MMR11004140740271027980414000000000000000   10300001F05104100000000000206000000000000     
100   62443100372718280000000000010200000000010200002000000010410404140910540023470390550414000745659052   1030000200030000   541188001627000008000000008KBZ BANK               MARKETPLACE - MMR11004140910540023470414000000000000000   10300001 00104100000000002550000000000000     
100   95050319928585020000000000001960000000001960002000000010410404140534020402344546480414000006998923   1020000200030000   333400010001204104000000281Myanmar Soft-Gate Tech Yangon        MMR11004140534020402340414000000000000000   10300001F05104100000000000412000000000000     
100   95050310332595380000000000009800000000009800002000000010410404140141381138562419070414000006998207   1020000200030000   333400010001204104000000281Myanmar Soft-Gate Tech Yangon        MMR11004140141381138560414000000000000000   10300001F05104100000000002058000000000000     
100   62443100379116470000000000027802000000027802002000000010410404141144520050726964830414000745653892   1030000200030000   541188001022000008000000298KBZ BANK               CITY MART - M MMR11004141144520050720414000000000000000   10300001 00104100000000006951000000000000     
100   95050315017843630000000000001960000000001960002000000010410404141343021302491035660414000007000185   1020000200030000   333400010001204104000000281Myanmar Soft-Gate Tech Yangon        MMR11004141343021302490414000000000000000   10300001F05104100000000000412000000000000     
100   62443100359121590000000000002940000000002940002000000010410404141130070007892056820414000006999794   1020000200030000   333400010001204104000000281Myanmar Soft-Gate Tech Yangon        MMR11004141130070007890414000000000000000   10300001F05104100000000000617000000000000     
100   62911028202527490000000000100000000000100000002000000010410404141115490029026685900414000745661892   1030000200030000   591288000018000008000002044KBZ BANK               PINLON PHARMA MMR11004141115490029020414000000000000000   10300001 00104100000000006000000000000000     
100   95050314302558730000000000002940000000002940002000000010410404141130530053440319240414000006999798   1020000200030000   333400010001204104000000281Myanmar Soft-Gate Tech Yangon        MMR11004141130530053440414000000000000000   10300001F05104100000000000617000000000000     
100   95050313168701670000000000004900000000004900002000000010410404140631360136534886860414000006999079   1020000200030000   333400010001204104000000281Myanmar Soft-Gate Tech Yangon        MMR11004140631360136530414000000000000000   10300001F05104100000000001029000000000000     
100   62911028202825140000000000015300000000015300002000000010410404140418401430046685900414554481040103   1030000900030000   591219000695190110000000526Shwe Ohh Pharmacy ST-2 YANGONNGKUUN  MMR11004140418401430040414000000000000000   10300001F00104100000000000918000000000000     
100   95050315017843630000000000001960000000001960002000000010410404141341001100389383180414000007000177   1020000200030000   333400010001204104000000281Myanmar Soft-Gate Tech Yangon        MMR11004141341001100380414000000000000000   10300001F05104100000000000412000000000000     
100   95050322104201170000000000036000000000036000002000000010410404140900163016005348000414000006999439   1030000200030000   333800010001203104000003327KBZPay                 Yangon        MMR11004140900163016000414000000000000000   10300001F05104100000000007560000000000000     
100   95050316997303010000000000000980000000000980002000000010410404141404143414089298090414000007000246   1020000200030000   333400010001204104000000281Myanmar Soft-Gate Tech Yangon        MMR11004141404143414080414000000000000000   10300001F05104100000000000206000000000000     
100   95050312498129060000000000002940000000002940002000000010410404141256182618066333500414000007000051   1020000200030000   333400010001204104000000281Myanmar Soft-Gate Tech Yangon        MMR11004141256182618060414000000000000000   10300001F05104100000000000617000000000000     
100   95050319870763910000000000000980000000000980002000000010410404141545571557084510830414000007000523   1020000200030000   333400010001204104000000281Myanmar Soft-Gate Tech Yangon        MMR11004141545571557080414000000000000000   10300001F05104100000000000206000000000000     
100   62911028202150190000000000066750000000066750002000000010410404140808481459156685900414294381448103   1030000900030000   581219001545190110000001119Paradise Hot Pot       YANGONUT      MMR11004140808481459150414000000000000000   10300001F00104100000000006809000000000000     
100   95050311419479170000000000001960000000001960002000000010410404140211044104275638940414000006998275   1020000200030000   333400010001204104000000281Myanmar Soft-Gate Tech Yangon        MMR11004140211044104270414000000000000000   10300001F05104100000000000412000000000000     
100   95050312360118350000000000005000000000005000002000000010410404141314184418164936310414000007000110   1030000200030000   333800010001203104000003327KBZPay                 Yangon        MMR11004141314184418160414000000000000000   10300001F05104100000000001050000000000000     
100   95050325305150830000000000000980000000000980002000000010410404141226175617209723570414000006999961   1020000200030000   333400010001204104000000281Myanmar Soft-Gate Tech Yangon        MMR11004141226175617200414000000000000000   10300001F05104100000000000206000000000000     
100   95030367537085740000000000000980000000000980002000000010410404140251512151996685900414000006998403   1020000200030000   333400010001204104000000281Myanmar Soft-Gate Tech Yangon        MMR11004140251512151990414000000000000000   10300001F05104100000000000206000000000000     
100   62443101095422050000000000029400000000029400002000000010410404140300213021510256010414000006998430   1020000200030000   333400010001204104000000281Myanmar Soft-Gate Tech Yangon        MMR11004140300213021510414000000000000000   10300001F05104100000000006174000000000000     
100   95050319870763910000000000000980000000000980002000000010410404141111064106337099370414000006999742   1020000200030000   333400010001204104000000281Myanmar Soft-Gate Tech Yangon        MMR11004141111064106330414000000000000000   10300001F05104100000000000206000000000000     
100   62443100363992240000000000100000000000100000002000000010410404140417234723888773720414000006998684   1030000200030000   333800010001203104000003327KBZPay                 Yangon        MMR11004140417234723880414000000000000000   10300001F05104100000000021000000000000000     
100   95050318617855880000000000000980000000000980002000000010410404140558282828782808900414000006998993   1020000200030000   333400010001204104000000281Myanmar Soft-Gate Tech Yangon        MMR11004140558282828780414000000000000000   10300001F05104100000000000206000000000000     
100   95050318712627500000000000004900000000004900002000000010410404141524005400134595920414000007000485   1020000200030000   333400010001204104000000281Myanmar Soft-Gate Tech Yangon        MMR11004141524005400130414000000000000000   10300001F05104100000000001029000000000000     
100   95030301100121270000000000005300000000005300002000000010410404140711321451766685900414109411332103   1030000900030000   541119001272190110000000960City Mart PLST Season  YANGONMYOTHIT MMR11004140711321451760414000000000000000   10300001F00104100000000000318000000000000     
100   95050311382087030000000000000980000000000980002000000010410404141301543154877985990414000007000076   1020000200030000   333400010001204104000000281Myanmar Soft-Gate Tech Yangon        MMR11004141301543154870414000000000000000   10300001F05104100000000000206000000000000     
100   95050317728825080000000000002000000000002000002000000010410404140014354435162759450414000006998096   1030000200030000   3334000100012031040000040102C2P (Myanmar) Co. Ltd Yangon        MMR11004140014354435160414000000000000000   10300001F05104100000000000420000000000000     
100   62911028202668140000000000049360000000049360002000000010410404140947598022516685900414950181622103   1030000500030000   555610118962104519000016137City Mart South Okkala WZYD BR       MMR11004140947598022510414000000000000000   10300001 00104100000000002962000000000000     
100   95050319938772870000000000000980000000000980002000000010410404141448331833960865470414000007000382   1020000200030000   333400010001204104000000281Myanmar Soft-Gate Tech Yangon        MMR11004141448331833960414000000000000000   10300001F05104100000000000206000000000000     
100   95050315701710960000000000000980000000000980002000000010410404141407053705380950570414000007000257   1020000200030000   333400010001204104000000281Myanmar Soft-Gate Tech Yangon        MMR11004141407053705380414000000000000000   10300001F05104100000000000206000000000000     
100   62911028202264530000000000034000000000034000002000000010410404140259477990616685900414335300956103   1030000500030000   555610118961104519000016137City Mart South Okkala WZYD BR       MMR11004140259477990610414000000000000000   10300001 00104100000000002040000000000000     
100   95030301100121270000000000042950000000042950002000000010410404140743421455996685900414224131442103   1030000900030000   541119001260190110000000958City Mart PLST C 3     YANGONMYOTHIT MMR11004140743421455990414000000000000000   10300001F00104100000000002577000000000000     
100   95050312298324450000000000001960000000001960002000000010410404140824055405472638710414000006999368   1020000200030000   333400010001204104000000281Myanmar Soft-Gate Tech Yangon        MMR11004140824055405470414000000000000000   10300001F05104100000000000412000000000000     
100   62911028202684060000000000013800000000013800002000000010410404140317167991736685900414414480944103   1030000500030000   555610104023104519000003821City Mart North Point  enter         MMR11004140317167991730414000000000000000   10300001 00104100000000000828000000000000     
100   62443100323428970000000000150000000000150000002000000010410404140759568013720730930414217291450103   1030000300030000   555510124692104519000020166Makro Myanmar                        MMR11004140759568013720414000000000000000   10300001 00104100000000036000000000000000     
100   95030373033018450000000000020776000000020776002000000010410404141036568026706685900414366071731103   1030000500030000   555610118961104519000016137City Mart South Okkala WZYD BR       MMR11004141036568026700414000000000000000   10300001 00104100000000001247000000000000     
100   62443100389971990000000000016000000000016000002000000010410404140923035303358652970414000006999494   1030000200030000   333800010001203104000003327KBZPay                 Yangon        MMR11004140923035303350414000000000000000   10300001F05104100000000003360000000000000     
100   62443100369813440000000000016700000000016700002000000010410404140739528012299078450414088121405103   1030000500030000   555610104020104519000003821City Mart North Point  enter         MMR11004140739528012290414000000000000000   10300001 00104100000000004175000000000000     
100   95050319528093960000000000000980000000000980002000000010410404140329315931076780850414000006998504   1020000200030000   333400010001204104000000281Myanmar Soft-Gate Tech Yangon        MMR11004140329315931070414000000000000000   10300001F05104100000000000206000000000000     
100   62443100323117100000000000015000000000015000002000000010410404140524125412371837190414000006998892   1030000200030000   333800010001203104000003327KBZPay                 Yangon        MMR11004140524125412370414000000000000000   10300001F05104100000000003150000000000000     
100   62911028202595200000000000059000000000059000002000000010410404140230557989096685900414256000958103   1030000300030000   555510124362104519000020166Makro Myanmar                        MMR11004140230557989090414000000000000000   10300001 00104100000000003540000000000000     
100   95030380891034700000000000060000000000060000002000000010410404140348551855626685900414000006998579   1030000200030000   333800010001203104000003327KBZPay                 Yangon        MMR11004140348551855620414000000000000000   10300001F05104100000000012600000000000000     
100   95050314292165140000000000028000000000028000002000000010410404140248551855680851690414000006998386   1030000200030000   3338000100012031040000040022C2P (Myanmar) Co. Ltd Yangon        MMR11004140248551855680414000000000000000   10300001F05104100000000005880000000000000     
100   62911028202077010000000000000980000000000980002000000010410404141101103110166685900414000006999722   1020000200030000   333400010001204104000000281Myanmar Soft-Gate Tech Yangon        MMR11004141101103110160414000000000000000   10300001F05104100000000000206000000000000     
100   95050310397364970000000000005880000000005880002000000010410404140601143114817851450414000006999001   1020000200030000   333400010001204104000000281Myanmar Soft-Gate Tech Yangon        MMR11004140601143114810414000000000000000   10300001F05104100000000001235000000000000     
100   62911028202078000000000000050000000000050000002000000010410404141513504350566685900414000007000446   1030000200030000   333800010001203104000003327KBZPay                 Yangon        MMR11004141513504350560414000000000000000   10300001F05104100000000010500000000000000     
100   95050317775833170000000000030200000000030200002000000010410404140725445544249163550414000006999224   1030000200030000   333800010001203104000003327KBZPay                 Yangon        MMR11004140725445544240414000000000000000   10300001F05104100000000006342000000000000     
100   95050311382087030000000000002940000000002940002000000010410404141325505550412688150414000007000144   1020000200030000   333400010001204104000000281Myanmar Soft-Gate Tech Yangon        MMR11004141325505550410414000000000000000   10300001F05104100000000000617000000000000     
100   95050313640946520000000000024900000000024900002000000010410404140932549435750645840414210416943575   1040001600030000   541120000557000000010000465Ocean Shwe Gone Daing  Yangon        MMR11004140932549435750414000000000000000   10300001F00104100000000006225000000000000     
100   95050315099113150000000000000980000000000980002000000010410404141502243224156248410414000007000409   1020000200030000   333400010001204104000000281Myanmar Soft-Gate Tech Yangon        MMR11004141502243224150414000000000000000   10300001F05104100000000000206000000000000     
100   62443100389971990000000000015000000000015000002000000010410404141510544054977900890414000007000440   1030000200030000   333800010001203104000003327KBZPay                 Yangon        MMR11004141510544054970414000000000000000   10300001F05104100000000003150000000000000     
100   95050310213446310000000000009800000000009800002000000010410404140924265426916915390414000006999499   1020000200030000   333400010001204104000000281Myanmar Soft-Gate Tech Yangon        MMR11004140924265426910414000000000000000   10300001F05104100000000002058000000000000     
100   62443100359121590000000000004900000000004900002000000010410404141128445844860404340414000006999785   1020000200030000   333400010001204104000000281Myanmar Soft-Gate Tech Yangon        MMR11004141128445844860414000000000000000   10300001F05104100000000001029000000000000     
100   95050312498129060000000000000980000000000980002000000010410404140451352135395057060414000006998778   1020000200030000   333400010001204104000000281Myanmar Soft-Gate Tech Yangon        MMR11004140451352135390414000000000000000   10300001F05104100000000000206000000000000     
100   95050316530487400000000000010000000000010000002000000010410404141303473347723368920414000007000086   1030000200030000   333800010001203104000003327KBZPay                 Yangon        MMR11004141303473347720414000000000000000   10300001F05104100000000002100000000000000     
100   95050310427855490000000000001960000000001960002000000010410404141057502750255106500414000006999708   1020000200030000   333400010001204104000000281Myanmar Soft-Gate Tech Yangon        MMR11004141057502750250414000000000000000   10300001F05104100000000000412000000000000     
100   62443101095422050000000000009800000000009800002000000010410404140257522752548603520414000006998416   1020000200030000   333400010001204104000000281Myanmar Soft-Gate Tech Yangon        MMR11004140257522752540414000000000000000   10300001F05104100000000002058000000000000     
100   95050311382087030000000000005000000000005000002000000010410404141306273627205021400414000007000092   1030000200030000   333800010001203104000003327KBZPay                 Yangon        MMR11004141306273627200414000000000000000   10300001F05104100000000001050000000000000     
100   62443100323117100000000000300000000000300000002000000010410404140017554755724411940414000006998101   1030000200030000   333800010001203104000003327KBZPay                 Yangon        MMR11004140017554755720414000000000000000   10300001F05104100000000063000000000000000     
100   95050325305150830000000000000980000000000980002000000010410404141222225222104681010414000006999946   1020000200030000   333400010001204104000000281Myanmar Soft-Gate Tech Yangon        MMR11004141222225222100414000000000000000   10300001F05104100000000000206000000000000     
100   95050313968650950000000000000980000000000980002000000010410404140414074407560511300414000006998670   1020000200030000   333400010001204104000000281Myanmar Soft-Gate Tech Yangon        MMR11004140414074407560414000000000000000   10300001F05104100000000000206000000000000     
100   62443100323117100000000000100000000000100000002000000010410404140025565556799369390414000006998108   1030000200030000   333800010001203104000003327KBZPay                 Yangon        MMR11004140025565556790414000000000000000   10300001F05104100000000021000000000000000     
100   95050316067768680000000000000980000000000980002000000010410404140524315431553489670414000006998896   1020000200030000   333400010001204104000000281Myanmar Soft-Gate Tech Yangon        MMR11004140524315431550414000000000000000   10300001F05104100000000000206000000000000     
100   62911028202204070000000000033440000000033440002000000010410404140407541428776685900414514371054103   1030000900030000   581219001121190110000000902Yoon Kitchen           YANGONONE     MMR11004140407541428770414000000000000000   10300001F00104100000000003411000000000000     
100   62911028202581830000000000006500000000006500002000000010410404141102513251786685900414000006999726   1030000200030000   333800010001203104000003327KBZPay                 Yangon        MMR11004141102513251780414000000000000000   10300001F05104100000000001365000000000000     
100   95050310457113440000000000024500000000024500002000000010410404141445061506239212990414000007000363   1030000200030000   333800010001203104000003327KBZPay                 Yangon        MMR11004141445061506230414000000000000000   10300001F05104100000000005145000000000000     
100   95050319528093960000000000004900000000004900002000000010410404141428475847492603050414000007000312   1020000200030000   333400010001204104000000281Myanmar Soft-Gate Tech Yangon        MMR11004141428475847490414000000000000000   10300001F05104100000000001029000000000000     
100   62443100316099160000000000073000000000073000002000000010410404130440230000740821750413000340007779   1030000300030000   598300001209000000000000817CB BANK                SHWE TAUNG EN MMR11004130440230000740413000000000000000   10300001F00104100000000008760000000000000     
100   95050315430281830000000000008750000000008750002000000010410404131315180042408142390413000340065653   1030000300030000   541100000443000000000000319CB BANK                ONESTOP KITCH MMR11004131315180042400413000000000000000   10300001F00104100000000002188000000000000     
100   95030302100061930000000000070950000000070950002000000010410404131154500000576685900413000340056776   1030000300030000   531100000750000000000000408CB BANK                CAPITAL HYPER MMR11004131154500000570413000000000000000   10300001F00104100000000004257000000000000     
100   95050311959900780000000000000980000000000980002000000010410404140857012701385433090414000006999430   1020000200030000   333400010001204104000000281Myanmar Soft-Gate Tech Yangon        MMR11004140857012701380414000000000000000   10300001F05104100000000000206000000000000     
100   95050319204938440000000000005000000000005000002000000010410404140405383538833816270414000006998638   1030000200030000   333800010001203104000003327KBZPay                 Yangon        MMR11004140405383538830414000000000000000   10300001F05104100000000001050000000000000     
100   95050319928585020000000000000980000000000980002000000010410404140529365936029589030414000006998906   1020000200030000   333400010001204104000000281Myanmar Soft-Gate Tech Yangon        MMR11004140529365936020414000000000000000   10300001F05104100000000000206000000000000     
100   62911028202616170000000000118700000000118700002000000010410404140852561465166685900414464221556103   1030000900030000   581219001545190110000001119Paradise Hot Pot       YANGONUT      MMR11004140852561465160414000000000000000   10300001F00104100000000012107000000000000     
100   62443100340648380000000000001500000000001500002000000010410404141151172117603028540414000006999876   1030000200030000   333800010001203104000003327KBZPay                 Yangon        MMR11004141151172117600414000000000000000   10300001F05104100000000000315000000000000     
100   95030301100081740000000000035000000000035000002000000010410404140524569293816685900414210412929381   1040001600030000   598320000911000000010000662MMTM - Tamwe           Ygn           MMR11004140524569293810414000000000000000   10300001F00104100000000001050000000000000     
100   95030301100121270000000000004650000000004650002000000010410404140740391455666685900414215101439103   1030000900030000   541119001274190110000000961City Mart PLST City Ca YANGONMYOTHIT MMR11004140740391455660414000000000000000   10300001F00104100000000000279000000000000     
100   95050314703432410000000000001000000000001000002000000010410404141108003800758836950414000006999739   1030000200030000   3338000100012031040000040022C2P (Myanmar) Co. Ltd Yangon        MMR11004141108003800750414000000000000000   10300001F05104100000000000210000000000000     
100   95050312595952760000000000004900000000004900002000000010410404141313404340343283820414000007000098   1020000200030000   333400010001204104000000281Myanmar Soft-Gate Tech Yangon        MMR11004141313404340340414000000000000000   10300001F05104100000000001029000000000000     
