100   95050311419479170000000000000980000000000980002000000010410404112358442844916254120412000006991258   1020000200030000   333400010001204104000000281Myanmar Soft-Gate Tech Yangon        MMR11004112358442844910412000000000000000   10300001F05104100000000000206000000000000     
100   62443100389971990000000000020000000000020000002000000010410404121355282528892751380412000006994609   1030000200030000   333800010001203104000003327KBZPay                 Yangon        MMR11004121355282528890412000000000000000   10300001F05104100000000004200000000000000     
100   62911028202532910000000000027000000000027000002000000010410404121045261102326685900412676151726101   1030000900030000   541119001295190110000000968Ocean Mingalar MDY C 3 MANDALAYHARSI MMR11004121045261102320412000000000000000   10300001F00104100000000001620000000000000     
100   95050317100052460000000000001400000000001400002000000010410404121250112011132921570412000006994408   1030000200030000   333800010001203104000003327KBZPay                 Yangon        MMR11004121250112011130412000000000000000   10300001F05104100000000000294000000000000     
100   95050315330275830000000000000980000000000980002000000010410404121156512651860042090412000006994264   1020000200030000   333400010001204104000000281Myanmar Soft-Gate Tech Yangon        MMR11004121156512651860412000000000000000   10300001F05104100000000000206000000000000     
100   95050312498129060000000000000980000000000980002000000010410404120405023502908175680412000006992178   1020000200030000   333400010001204104000000281Myanmar Soft-Gate Tech Yangon        MMR11004120405023502900412000000000000000   10300001F05104100000000000206000000000000     
100   95050314307746340000000000000980000000000980002000000010410404120603143314417799640412000006992876   1020000200030000   333400010001204104000000281Myanmar Soft-Gate Tech Yangon        MMR11004120603143314410412000000000000000   10300001F05104100000000000206000000000000     
100   62443100348240580000000000006800000000006800002000000010410404121047561103244283120412740171756101   1030000900030000   581219000528190110000000376Shwepalin (Hantharwadd YANGONUT      MMR11004121047561103240412000000000000000   10300001F00104100000000002890000000000000     
100   62911028202809060000000000050000000000050000002000000010410404120343041304956685900412000006992045   1030000200030000   333800010001203104000003327KBZPay                 Yangon        MMR11004120343041304950412000000000000000   10300001F05104100000000010500000000000000     
100   95050319528093960000000000000980000000000980002000000010410404120858592859273467810412000006993671   1020000200030000   333400010001204104000000281Myanmar Soft-Gate Tech Yangon        MMR11004120858592859270412000000000000000   10300001F05104100000000000206000000000000     
100   95050318416662540000000000004500000000004500002000000010410404121359312931280857400412000006994614   1030000200030000   333800010001203104000003327KBZPay                 Yangon        MMR11004121359312931280412000000000000000   10300001F05104100000000000945000000000000     
100   95050325455962190000000000002940000000002940002000000010410404120114314431445147870412000006991399   1020000200030000   333400010001204104000000281Myanmar Soft-Gate Tech Yangon        MMR11004120114314431440412000000000000000   10300001F05104100000000000617000000000000     
100   95030301100419020000000000009820000000009820002000000010410404121046331102786685900412707161733101   1030000900030000   541119001195190110000000942City Mart HDC C 10     YANGONUT      MMR11004121046331102780412000000000000000   10300001F00104100000000000589000000000000     
100   95050318945898660000000000050000000000050000002000000010410404120854162416886772770412000006993636   1030000200030000   3338000100012031040000040022C2P (Myanmar) Co. Ltd Yangon        MMR11004120854162416880412000000000000000   10300001F05104100000000010500000000000000     
100   62443100335647210000000000009800000000009800002000000010410404121548541854344077270412000006994922   1020000200030000   333400010001204104000000281Myanmar Soft-Gate Tech Yangon        MMR11004121548541854340412000000000000000   10300001F05104100000000002058000000000000     
100   95050319528093960000000000001960000000001960002000000010410404121453052305117467330412000006994777   1020000200030000   333400010001204104000000281Myanmar Soft-Gate Tech Yangon        MMR11004121453052305110412000000000000000   10300001F05104100000000000412000000000000     
100   95050327936713000000000000010000000000010000002000000010410404121515274527759119820412000006994843   1030000200030000   333800010001203104000003327KBZPay                 Yangon        MMR11004121515274527750412000000000000000   10300001F05104100000000002100000000000000     
100   62911028202283680000000000011000000000011000002000000010410404121049451104046685900412791191745101   1030000900030000   554119000344190110000000211New Day Energy SCH     YANGONUNG     MMR11004121049451104040412000000000000000   10300001F00104100000000000330000000000000     
100   95050317175714970000000000010000000000010000002000000010410404121241401140492581190412000006994380   1030000200030000   333800010001203104000003327KBZPay                 Yangon        MMR11004121241401140490412000000000000000   10300001F05104100000000002100000000000000     
100   95050314570621780000000000002940000000002940002000000010410404120252292229540835530412000006991756   1020000200030000   333400010001204104000000281Myanmar Soft-Gate Tech Yangon        MMR11004120252292229540412000000000000000   10300001F05104100000000000617000000000000     
100   95050312862810800000000000050000000000050000002000000010410404121006323632202531750412000006993924   1030000200030000   333800010001203104000003327KBZPay                 Yangon        MMR11004121006323632200412000000000000000   10300001F05104100000000010500000000000000     
100   95050312498129060000000000002940000000002940002000000010410404120916204620176687680412000006993719   1020000200030000   333400010001204104000000281Myanmar Soft-Gate Tech Yangon        MMR11004120916204620170412000000000000000   10300001F05104100000000000617000000000000     
100   95050325455962190000000000001960000000001960002000000010410404120218564856414892580412000006991593   1020000200030000   333400010001204104000000281Myanmar Soft-Gate Tech Yangon        MMR11004120218564856410412000000000000000   10300001F05104100000000000412000000000000     
100   95030301100122420000000000050000000000050000002000000010410404120454252425606685900412000006992496   1030000200030000   333800010001203104000003327KBZPay                 Yangon        MMR11004120454252425600412000000000000000   10300001F05104100000000010500000000000000     
100   95050312498129060000000000000980000000000980002000000010410404120717024702316778490412000006993282   1020000200030000   333400010001204104000000281Myanmar Soft-Gate Tech Yangon        MMR11004120717024702310412000000000000000   10300001F05104100000000000206000000000000     
100   95050316215826630000000000007000000000007000002000000010410404120921195119598340160412000006993741   1030000200030000   333800010001203104000003327KBZPay                 Yangon        MMR11004120921195119590412000000000000000   10300001F05104100000000001470000000000000     
100   62911028202120810000000000006650000000006650002000000010410404121057001107146685900412008271700101   1030000900030000   541119001462190110000000077Sein Gay Har Chinatown YANGON        MMR11004121057001107140412000000000000000   10300001F00104100000000000399000000000000     
100   95050320953132470000000000015350000000015350002000000010410404121154001125928304510412151241800101   1030000900030000   541119001207190110000000948City Mart YK C 5       YANGONAUNG    MMR11004121154001125920412000000000000000   10300001F00104100000000003838000000000000     
100   95050319156011610000000000000980000000000980002000000010410404121604473447260772300412000006994963   1020000200030000   333400010001204104000000281Myanmar Soft-Gate Tech Yangon        MMR11004121604473447260412000000000000000   10300001F05104100000000000206000000000000     
100   95050312498129060000000000000980000000000980002000000010410404120715384538606863590412000006993277   1020000200030000   333400010001204104000000281Myanmar Soft-Gate Tech Yangon        MMR11004120715384538600412000000000000000   10300001F05104100000000000206000000000000     
100   95050310305109410000000000001960000000001960002000000010410404120257012701767445470412000006991768   1020000200030000   333400010001204104000000281Myanmar Soft-Gate Tech Yangon        MMR11004120257012701760412000000000000000   10300001F05104100000000000412000000000000     
100   95050315330275830000000000000980000000000980002000000010410404121159452945506566920412000006994269   1020000200030000   333400010001204104000000281Myanmar Soft-Gate Tech Yangon        MMR11004121159452945500412000000000000000   10300001F05104100000000000206000000000000     
100   62911028202803930000000000037300000000037300002000000010410404111136580001046685900411210118000104   1030000500030000   591220014501014405912200145SHWE OHH PHARMACY      PTN           MMR11004111136580001040411000000000000000   10300001 00104100000000002238000000000000     
100   62911028202078000000000000070820000000070820002000000010410404110426050007736685900411210110000773   1030000500030000   531120155712000045311201557GAMONE PWINT           PTN           MMR11004110426050007730411000000000000000   10300001 00104100000000004249000000000000     
100   62443100369787460000000000030000000000030000002000000010410404110251440020872017210411210109002087   1030000500030000   598320002701000015172200027MAX ENERGY             PTN           MMR11004110251440020870411000000000000000   10300001 00104100000000003600000000000000     
100   62911028202400660000000000099900000000099900002000000010410404110902070000726685900411210115000072   1030000500030000   531120201506000085311202015HAGL BLAZON            PTN           MMR11004110902070000720411000000000000000   10300001 00104100000000005994000000000000     
100   95050319211130030000000000027150000000027150002000000010410404111013080003166210390411000339728439   1030000300030000   591200000324000000000000204CB BANK                MEDICARE STOR MMR11004111013080003160411000000000000000   10300001F00104100000000006516000000000000     
100   95030310098554020000000000085410000000085410002000000010410404110851400001306685900411210115000130   1030000500030000   531120201602000085311202016STJ BLAZON             PTN           MMR11004110851400001300411000000000000000   10300001 00104100000000005125000000000000     
100   95050310534130230000000000018900000000018900002000000010410404110625040003914629220411210112000391   1030000500030000   531120155803000045311201558GAMONE PWINT           PTN           MMR11004110625040003910411000000000000000   10300001 00104100000000004536000000000000     
100   62911028202615340000000000090537000000090537002000000010410404111723170004846685900411000745562382   1030000200030000   599588000841000008000004656KBZ BANK               MY PET STORE  MMR11004111723170004840411000000000000000   10300001 00104100000000005432000000000000     
100   95050314248160600000000000000980000000000980002000000010410404120214074407603325190412000006991571   1020000200030000   333400010001204104000000281Myanmar Soft-Gate Tech Yangon        MMR11004120214074407600412000000000000000   10300001F05104100000000000206000000000000     
100   95050312878706670000000000003000000000003000002000000010410404121627235723752339690412000006995013   1030000200030000   3334000100012031040000040102C2P (Myanmar) Co. Ltd Yangon        MMR11004121627235723750412000000000000000   10300001F05104100000000000630000000000000     
100   95050312498129060000000000000980000000000980002000000010410404120225455545064565990412000006991626   1020000200030000   333400010001204104000000281Myanmar Soft-Gate Tech Yangon        MMR11004120225455545060412000000000000000   10300001F05104100000000000206000000000000     
100   95050312498129060000000000002940000000002940002000000010410404121228285828141013800412000006994358   1020000200030000   333400010001204104000000281Myanmar Soft-Gate Tech Yangon        MMR11004121228285828140412000000000000000   10300001F05104100000000000617000000000000     
100   62911028202204560000000000016500000000016500002000000010410404121021395139116685900412000006993982   1030000200030000   333800010001203104000003327KBZPay                 Yangon        MMR11004121021395139110412000000000000000   10300001F05104100000000003465000000000000     
100   62443100328070970000000000016234000000016234002000000010410404121129131118319786800412712591713101   1030000900030000   541119001514190110000001102Ocean MGDTM C-7        YANGONADON    MMR11004121129131118310412000000000000000   10300001F00104100000000004059000000000000     
100   62911028202133520000000000008150000000008150002000000010410404121156121126646685900412197261812101   1030000900030000   541119001187190110000000942City Mart HDC C 2      YANGONUT      MMR11004121156121126640412000000000000000   10300001F00104100000000000489000000000000     
100   62443100392426520000000000010000000000010000002000000010410404121444481448649204910412000006994744   1030000200030000   333800010001203104000003327KBZPay                 Yangon        MMR11004121444481448640412000000000000000   10300001F05104100000000002100000000000000     
100   62911028202463030000000000089000000000089000002000000010410404111057570003656685900411210117000365   1030000500030000   569120044601000015691200446AMERICAN BRANDED COLLE PTN           MMR11004111057570003650411000000000000000   10300001 00104100000000005340000000000000     
100   62443100313529540000000000007300000000007300002000000010410404111033430005005784910411000339731148   1030000300030000   581400000684000000000000470CB BANK                KFC MP        MMR11004111033430005000411000000000000000   10300001F00104100000000000876000000000000     
100   62911028202116610000000000100000000000100000002000000010410404110238430019506685900411210109001950   1030000500030000   598320001604000015172200016MAX ENERGY             PTN           MMR11004110238430019500411000000000000000   10300001 00104100000000003000000000000000     
100   95050314248160600000000000002150000000002150002000000010410404110218010021428281050411000339668663   1030000300030000   531100000960000000000000684CB BANK                CAPITAL SUPER MMR11004110218010021420411000000000000000   10300001F00104100000000000516000000000000     
100   95030310098554020000000000058410000000058410002000000010410404110856530001316685900411210115000131   1030000500030000   531120201602000085311202016STJ BLAZON             PTN           MMR11004110856530001310411000000000000000   10300001 00104100000000003505000000000000     
100   62443101006037900000000000050000000000050000002000000010410404110537230001020131310411210112000102   1030000500030000   598320005301000015172200053MAX ENERGY             PTN           MMR11004110537230001020411000000000000000   10300001 00104100000000006000000000000000     
100   95050310534130230000000000013000000000013000002000000010410404110714430005626913030411210113000562   1030000500030000   531120155805000045311201558GAMONE PWINT           PTN           MMR11004110714430005620411000000000000000   10300001 00104100000000003120000000000000     
100   95050315955808830000000000017000000000017000002000000010410404110509470027581698700411210111002758   1030000500030000   598320001102000015172200011MAX ENERGY             PTN           MMR11004110509470027580411000000000000000   10300001 00104100000000002040000000000000     
100   62443100330108240000000000004900000000004900002000000010410404120702103210655806770412000006993203   1020000200030000   333400010001204104000000281Myanmar Soft-Gate Tech Yangon        MMR11004120702103210650412000000000000000   10300001F05104100000000001029000000000000     
100   62443100379116470000000000000980000000000980002000000010410404120808123812413643720412000006993495   1020000200030000   333400010001204104000000281Myanmar Soft-Gate Tech Yangon        MMR11004120808123812410412000000000000000   10300001F05104100000000000206000000000000     
100   95050312224678430000000000000980000000000980002000000010410404120314484448092658210412000006991884   1020000200030000   333400010001204104000000281Myanmar Soft-Gate Tech Yangon        MMR11004120314484448090412000000000000000   10300001F05104100000000000206000000000000     
100   95050314064416890000000000002940000000002940002000000010410404120523565356113509170412000006992665   1020000200030000   333400010001204104000000281Myanmar Soft-Gate Tech Yangon        MMR11004120523565356110412000000000000000   10300001F05104100000000000617000000000000     
100   95050318601641810000000000000980000000000980002000000010410404121326525652216141440412000006994512   1020000200030000   333400010001204104000000281Myanmar Soft-Gate Tech Yangon        MMR11004121326525652210412000000000000000   10300001F05104100000000000206000000000000     
100   95050319161596230000000000000980000000000980002000000010410404120850322032189020930412000006993623   1020000200030000   333400010001204104000000281Myanmar Soft-Gate Tech Yangon        MMR11004120850322032180412000000000000000   10300001F05104100000000000206000000000000     
100   62911028202676220000000000010100000000010100002000000010410404120657592759676685900412000006993161   1030000200030000   333800010001203104000003327KBZPay                 Yangon        MMR11004120657592759670412000000000000000   10300001F05104100000000002121000000000000     
100   95050314307746340000000000000980000000000980002000000010410404120601083108966657740412000006992868   1020000200030000   333400010001204104000000281Myanmar Soft-Gate Tech Yangon        MMR11004120601083108960412000000000000000   10300001F05104100000000000206000000000000     
100   62911028202776540000000000043000000000043000002000000010410404121016518008246685900412210217800824   1040001600030000   598320000816000000010000589Regency Petrol Station Mdy           MMR11004121016518008240412000000000000000   10300001F00104100000000001290000000000000     
100   95050326228858240000000000016410000000016410002000000010410404121102257865717502990412274331702101   1030000300030000   555510114764104519000012710S and P Distribution C Ltd           MMR11004121102257865710412000000000000000   10300001 00104100000000003938000000000000     
100   95050319211130030000000000027300000000027300002000000010410404111010250003152990520411000339728100   1030000300030000   591200000324000000000000204CB BANK                MEDICARE STOR MMR11004111010250003150411000000000000000   10300001F00104100000000006552000000000000     
100   95050324154190880000000000018000000000018000002000000010410404110140350017887685380411210108001788   1030000500030000   598320001601000015172200016MAX ENERGY             PTN           MMR11004110140350017880411000000000000000   10300001 00104100000000002160000000000000     
100   95030310098554020000000000166800000000166800002000000010410404110630320019626685900411210113001962   1030000500030000   591220020501005105912200205MINGALAR PHARMACY      PTN           MMR11004110630320019620411000000000000000   10300001 00104100000000010008000000000000     
100   62911028202197550000000000100000000000100000002000000010410404110856210011726685900411210115001172   1030000500030000   598320001702000015172200017MAX ENERGY             PTN           MMR11004110856210011720411000000000000000   10300001 00104100000000003000000000000000     
100   95050311076838860000000000009000000000009000002000000010410404111307180000142614480411000339750843   1030000300030000   531100000544000000000000376CB BANK                CAPITAL HYPER MMR11004111307180000140411000000000000000   10300001F00104100000000002160000000000000     
100   95050319505790660000000000029240000000029240002000000010410404111113510001340330670411000339736533   1030000300030000   504700000706000000000000490CB BANK                MEDICARE STOR MMR11004111113510001340411000000000000000   10300001F00104100000000007018000000000000     
100   62911028202108460000000000010000000000010000002000000010410404110454390027436685900411210111002743   1030000500030000   598320001101000015172200011MAX ENERGY             PTN           MMR11004110454390027430411000000000000000   10300001 00104100000000000300000000000000     
100   62443100358839880000000000100000000000100000002000000010410404110411570001002634750411210110000100   1030000500030000   541120045801009205411200458126 STORE              PTN           MMR11004110411570001000411000000000000000   10300001 00104100000000025000000000000000     
100   95050310427855490000000000003920000000003920002000000010410404120655562556877289070412000006993160   1020000200030000   333400010001204104000000281Myanmar Soft-Gate Tech Yangon        MMR11004120655562556870412000000000000000   10300001F05104100000000000823000000000000     
100   95050318267399100000000000002940000000002940002000000010410404121304183418762836480412000006994447   1020000200030000   333400010001204104000000281Myanmar Soft-Gate Tech Yangon        MMR11004121304183418760412000000000000000   10300001F05104100000000000617000000000000     
100   95050312224678430000000000001960000000001960002000000010410404120604563456032842190412000006992885   1020000200030000   333400010001204104000000281Myanmar Soft-Gate Tech Yangon        MMR11004120604563456030412000000000000000   10300001F05104100000000000412000000000000     
100   95050325630928770000000000000980000000000980002000000010410404120854482448418425260412000006993644   1020000200030000   333400010001204104000000281Myanmar Soft-Gate Tech Yangon        MMR11004120854482448410412000000000000000   10300001F05104100000000000206000000000000     
100   95050311926829590000000000000980000000000980002000000010410404112314254425759644180412000006991227   1020000200030000   333400010001204104000000281Myanmar Soft-Gate Tech Yangon        MMR11004112314254425750412000000000000000   10300001F05104100000000000206000000000000     
100   95050312224678430000000000002940000000002940002000000010410404121326305630054488960412000006994505   1020000200030000   333400010001204104000000281Myanmar Soft-Gate Tech Yangon        MMR11004121326305630050412000000000000000   10300001F05104100000000000617000000000000     
100   95050319938772870000000000000980000000000980002000000010410404111807453745188076800412000006991066   1020000200030000   333400010001204104000000281Myanmar Soft-Gate Tech Yangon        MMR11004111807453745180412000000000000000   10300001F05104100000000000206000000000000     
100   62443100355903280000000000002940000000002940002000000010410404121216304630003176860412000006994325   1020000200030000   333400010001204104000000281Myanmar Soft-Gate Tech Yangon        MMR11004121216304630000412000000000000000   10300001F05104100000000000617000000000000     
100   62911028202417260000000000050000000000050000002000000010410404110654290030796685900411210113003079   1030000500030000   598320001403000015172200014MAX ENERGY             PTN           MMR11004110654290030790411000000000000000   10300001 00104100000000001500000000000000     
100   62911028202807400000000000030000000000030000002000000010410404110637070027496685900411210113002749   1030000500030000   598320001401000015172200014MAX ENERGY             PTN           MMR11004110637070027490411000000000000000   10300001 00104100000000000900000000000000     
100   62911028202318750000000000107584000000107584002000000010410404111537020087156685900411000745557085   1030000200030000   541188001023000008000000298KBZ BANK               CITY MART - M MMR11004111537020087150411000000000000000   10300001 00104100000000006455000000000000     
100   95050324133333980000000000016900000000016900002000000010410404111019107317342224650411210117731734   1040001600030000   541120000557000000010000465Ocean Shwe Gone Daing  Yangon        MMR11004111019107317340411000000000000000   10300001F00104100000000004225000000000000     
100   62911028202533820000000000050000000000050000002000000010410404110735397225846685900411210114722584   1040001600030000   541120000559000000010000465Ocean Shwe Gone Daing  Yangon        MMR11004110735397225840411000000000000000   10300001F00104100000000003000000000000000     
100   95050311076838860000000000016650000000016650002000000010410404111303590000102699580411000339750482   1030000300030000   531100000544000000000000376CB BANK                CAPITAL HYPER MMR11004111303590000100411000000000000000   10300001F00104100000000003996000000000000     
100   95050314160856250000000000001960000000001960002000000010410404121326595659884403870412000006994506   1020000200030000   333400010001204104000000281Myanmar Soft-Gate Tech Yangon        MMR11004121326595659880412000000000000000   10300001F05104100000000000412000000000000     
100   62911028202019440000000000065560000000065560002000000010410404121145501123516685900412024151850101   1030000900030000   541119001261190110000000958City Mart PLST C 4     YANGONMYOTHIT MMR11004121145501123510412000000000000000   10300001F00104100000000003934000000000000     
100   95050322954091830000000000010000000000010000002000000010410404120012014201437906600412000006991273   1030000200030000   3334000100012031040000040102C2P (Myanmar) Co. Ltd Yangon        MMR11004120012014201430412000000000000000   10300001F05104100000000002100000000000000     
100   95050318741700180000000000002940000000002940002000000010410404120227315731161261020412000006991633   1020000200030000   333400010001204104000000281Myanmar Soft-Gate Tech Yangon        MMR11004120227315731160412000000000000000   10300001F05104100000000000617000000000000     
100   95030301100129110000000000300000000000300000002000000010410404120427375737276685900412000006992312   1030000200030000   333800010001203104000003327KBZPay                 Yangon        MMR11004120427375737270412000000000000000   10300001F05104100000000063000000000000000     
100   95050316785465380000000000000980000000000980002000000010410404111728225822773034250412000006991013   1020000200030000   333400010001204104000000281Myanmar Soft-Gate Tech Yangon        MMR11004111728225822770412000000000000000   10300001F05104100000000000206000000000000     
100   62443100306698200000000000104400000000104400002000000010410404120355447791502962940412575251046101   1030000300030000   555510124358104519000020166Makro Myanmar                        MMR11004120355447791500412000000000000000   10300001 00104100000000025056000000000000     
100   95050322990383760000000000010000000000010000002000000010410404120411397794355842430412908431024101   1030000500030000   555610110576104519000009164City Mart China Town P int Cen       MMR11004120411397794350412000000000000000   10300001 00104100000000002500000000000000     
100   95030325264619140000000000045141000000045141002000000010410404120456597801676685900412850261158101   1030000300030000   555510125330104519000021173One Stop Mart Shopping Mall 0003     MMR11004120456597801670412000000000000000   10300001 00104100000000002709000000000000     
100   95050326750398570000000000035500000000035500002000000010410404120445157800162452360412677181109101   1030000500030000   555610104041104519000003821City Mart North Point  enter         MMR11004120445157800160412000000000000000   10300001 00104100000000008875000000000000     
100   95030314863516850000000000020000000000020000002000000010410404120907263726886685900412000006993701   1030000200030000   333800010001203104000003327KBZPay                 Yangon        MMR11004120907263726880412000000000000000   10300001F05104100000000004200000000000000     
100   95050314557307430000000000001960000000001960002000000010410404120021355135122353480412000006991290   1020000200030000   333400010001204104000000281Myanmar Soft-Gate Tech Yangon        MMR11004120021355135120412000000000000000   10300001F05104100000000000412000000000000     
100   95050314538419220000000000013653000000013653002000000010410404110354150040087265610411000339679953   1030000300030000   541100000443000000000000319CB BANK                ONESTOP KITCH MMR11004110354150040080411000000000000000   10300001F00104100000000003414000000000000     
100   62911028202217510000000000024013000000024013002000000010410404120811527835306685900412759461449101   1030000500030000   555610112235104519000010487Ocean Super Center St  ohn           MMR11004120811527835300412000000000000000   10300001 00104100000000001441000000000000     
100   62911028202668140000000000079000000000079000002000000010410404110259540014846685900411210109001484   1030000500030000   598320041903000055983200419MAX ENERGY             PTN           MMR11004110259540014840411000000000000000   10300001 00104100000000002370000000000000     
100   95050313396828960000000000000980000000000980002000000010410404120844491449334063480412000006993608   1020000200030000   333400010001204104000000281Myanmar Soft-Gate Tech Yangon        MMR11004120844491449330412000000000000000   10300001F05104100000000000206000000000000     
100   62911028202443730000000000027350000000027350002000000010410404121422200324606685900412000745597792   1030000200030000   541188001024000008000000298KBZ BANK               CITY MART - M MMR11004121422200324600412000000000000000   10300001 00104100000000001641000000000000     
100   95050323233042810000000000000980000000000980002000000010410404121439290929137552430412000006994733   1020000200030000   333400010001204104000000281Myanmar Soft-Gate Tech Yangon        MMR11004121439290929130412000000000000000   10300001F05104100000000000206000000000000     
100   95050322990383760000000000001200000000001200002000000010410404120422337795856097720412105521057101   1030000500030000   555610110570104519000009164City Mart China Town P int Cen       MMR11004120422337795850412000000000000000   10300001 00104100000000000300000000000000     
100   95030325264619140000000000013000000000013000002000000010410404120422277795896685900412110531026101   1030000300030000   555510124685104519000020166Makro Myanmar                        MMR11004120422277795890412000000000000000   10300001 00104100000000000780000000000000     
100   62911028202169750000000000006100000000006100002000000010410404120500067802746685900412970321127101   1030000500030000   555610118968104519000016137City Mart South Okkala WZYD BR       MMR11004120500067802740412000000000000000   10300001 00104100000000000366000000000000     
100   62911028202169750000000000080000000000080000002000000010410404120526217834986685900412210212783498   1040001600030000   598320000838000000010000600Regency Petrol Station Ygn           MMR11004120526217834980412000000000000000   10300001F00104100000000002400000000000000     
100   62443100306028540000000000074374000000074374002000000010410404120818567836398765640412901521411101   1030000500030000   555610112237104519000010487Ocean Super Center St  ohn           MMR11004120818567836390412000000000000000   10300001 00104100000000018594000000000000     
100   62911028202415020000000000022750000000022750002000000010410404120356577791946685900412620281032101   1030000500030000   555610110561104519000009163City Mart Ayeyarwon Br nch           MMR11004120356577791940412000000000000000   10300001 00104100000000001365000000000000     
100   62443100398006570000000000041200000000041200002000000010410404120507527803891601400412089391119101   1030000500030000   555610110570104519000009164City Mart China Town P int Cen       MMR11004120507527803890412000000000000000   10300001 00104100000000010300000000000000     
100   62911028202471600000000000009550000000009550002000000010410404120516357805626685900412293491127101   1030000500030000   555610110581104519000009164City Mart China Town P int Cen       MMR11004120516357805620412000000000000000   10300001 00104100000000000573000000000000     
100   62911028202531350000000000015000000000015000002000000010410404110456440001186685900411210111000118   1030000500030000   581220073101000015812200731SHARKYS V              PTN           MMR11004110456440001180411000000000000000   10300001 00104100000000001530000000000000     
100   62911028202163480000000000019600000000019600002000000010410404120708511039026685900412823381351101   1030000900030000   541119001203190110000000948City Mart YK C 1       YANGONAUNG    MMR11004120708511039020412000000000000000   10300001F00104100000000001176000000000000     
100   62911028202532910000000000049550000000049550002000000010410404121021081093396685900412093511608101   1030000900030000   541119001308190110000000968Ocean Mingalar MDY C 1 MANDALAYHARSI MMR11004121021081093390412000000000000000   10300001F00104100000000002973000000000000     
100   62911028202078000000000000100000000000100000002000000010410404120253002300846685900412000006991757   1030000200030000   333800010001203104000003327KBZPay                 Yangon        MMR11004120253002300840412000000000000000   10300001F05104100000000021000000000000000     
100   62443101001072630000000000006000000000006000002000000010410404121009090000573119340412000745586485   1030000200030000   541188001369000008000000395KBZ BANK               OCEAN SUPERMA MMR11004121009090000570412000000000000000   10300001 00104100000000001500000000000000     
100   95050310251874990000000000004300000000004300002000000010410404121842530025963261960412000745610460   1030000200030000   541188001430000008000000401KBZ BANK               OCEAN SUPERCE MMR11004121842530025960412000000000000000   10300001 00104100000000001075000000000000     
100   95050317903887690000000000000980000000000980002000000010410404120030270027203920860412000006991300   1020000200030000   333400010001204104000000281Myanmar Soft-Gate Tech Yangon        MMR11004120030270027200412000000000000000   10300001F05104100000000000206000000000000     
100   95030322236782320000000000100010000000100010002000000010410404121653000031366685900412000745605101   1030000200030000   541188001255000008000000310KBZ BANK               CITY MART- FM MMR11004121653000031360412000000000000000   10300001 00104100000000006001000000000000     
100   62443100313002190000000000026714000000026714002000000010410404120530527809278140030412722081245101   1030000500030000   555610122348104519000018696CityMartSupermarket Sh ePyiTha       MMR11004120530527809270412000000000000000   10300001 00104100000000006679000000000000     
100   95050312498129060000000000002940000000002940002000000010410404120729425942172161420412000006993338   1020000200030000   333400010001204104000000281Myanmar Soft-Gate Tech Yangon        MMR11004120729425942170412000000000000000   10300001F05104100000000000617000000000000     
100   62911028202151340000000000007550000000007550002000000010410404120534467808616685900412635051235101   1030000300030000   444410125393104519000021220Myanmar Bakery CoLtd                 MMR11004120534467808610412000000000000000   10300001 00104100000000000770000000000000     
100   62911028202110420000000000018850000000018850002000000010410404120403337793856685900412849401011101   1030000500030000   555610103468104519000003420City Mart Yankin Cente 7             MMR11004120403337793850412000000000000000   10300001 00104100000000001131000000000000     
100   62911028202471600000000000052900000000052900002000000010410404120507007804386685900412149411123101   1030000500030000   555610110576104519000009164City Mart China Town P int Cen       MMR11004120507007804380412000000000000000   10300001 00104100000000003174000000000000     
100   95050322155898660000000000019100000000019100002000000010410404120807507833681991230412551381406101   1030000300030000   555510124365104519000020166Makro Myanmar                        MMR11004120807507833680412000000000000000   10300001 00104100000000004584000000000000     
100   62443100333488440000000000021000000000021000002000000010410404120548467811340047800412965201251101   1030000300030000   444410106710104519000005921YKKO Bahan 2                         MMR11004120548467811340412000000000000000   10300001 00104100000000008925000000000000     
100   62911028202870750000000000002900000000002900002000000010410404120847297840796685900412430171552101   1030000500030000   555610103956104519000003818Ocean Oattara Thiri Na PyiTaw        MMR11004120847297840790412000000000000000   10300001 00104100000000000174000000000000     
100   62443100315853220000000000065400000000065400002000000010410404121057090013950544590412000745588665   1030000200030000   541188001479000008000000399KBZ BANK               OCEAN SUPERCE MMR11004121057090013950412000000000000000   10300001 00104100000000016350000000000000     
100   62443100315853220000000000021737000000021737002000000010410404121106500022072111980412000745589062   1030000200030000   541188001480000008000000399KBZ BANK               OCEAN SUPERCE MMR11004121106500022070412000000000000000   10300001 00104100000000005435000000000000     
100   62443100315853220000000000166800000000166800002000000010410404121111110022088721910412000745589277   1030000200030000   541188001480000008000000399KBZ BANK               OCEAN SUPERCE MMR11004121111110022080412000000000000000   10300001 00104100000000041700000000000000     
100   62443100315853220000000000077086000000077086002000000010410404121446290022207198260412000745598805   1030000200030000   541188001480000008000000399KBZ BANK               OCEAN SUPERCE MMR11004121446290022200412000000000000000   10300001 00104100000000019272000000000000     
100   95050321188471220000000000041850000000041850002000000010410404121340030024271906130412000745595993   1030000200030000   541188001486000008000000399KBZ BANK               OCEAN SUPERCE MMR11004121340030024270412000000000000000   10300001 00104100000000010463000000000000     
100   62443101001072630000000000149500000000149500002000000010410404121005510023124771830412000745586363   1030000200030000   541188001354000008000000395KBZ BANK               OCEAN SUPERMA MMR11004121005510023120412000000000000000   10300001 00104100000000037375000000000000     
100   62911028202327330000000000003900000000003900002000000010410404121237370074626685900412000745593197   1030000200030000   541188001071000008000000314KBZ BANK               MARKETPLACE - MMR11004121237370074620412000000000000000   10300001 00104100000000000234000000000000     
100   62443100313529540000000000003350000000003350002000000010410404121349140175841821040412000745596391   1030000200030000   541188001055000008000000314KBZ BANK               MARKETPLACE - MMR11004121349140175840412000000000000000   10300001 00104100000000000838000000000000     
100   62911028202463030000000000074303000000074303002000000010410404120853517841886685900412545231549101   1030000500030000   555610103464104519000003420City Mart Yankin Cente 3             MMR11004120853517841880412000000000000000   10300001 00104100000000004458000000000000     
100   62911028202541660000000000022229000000022229002000000010410404121018567857506685900412353501638101   1030000500030000   555610103482104519000003432City Mart Junction Zaw na 9          MMR11004121018567857500412000000000000000   10300001 00104100000000001334000000000000     
100   62443100318296470000000000048000000000048000002000000010410404120226157740349608530412210209774034   1040001600030000   598320000658000000010000527Shwe Taung Energy (YGN Yangon        MMR11004120226157740340412000000000000000   10300001F00104100000000005760000000000000     
100   62911028202403300000000000008100000000008100002000000010410404120200427780546685900412258430804101   1030000300030000   444410125271104519000021125SP Bakery San YeikNyei GMP           MMR11004120200427780540412000000000000000   10300001 00104100000000000826000000000000     
100   62443100313002190000000000019100000000019100002000000010410404120525207808691530090412642051247101   1030000500030000   555610122350104519000018696CityMartSupermarket Sh ePyiTha       MMR11004120525207808690412000000000000000   10300001 00104100000000004775000000000000     
100   62443100333488440000000000016600000000016600002000000010410404120601417813635005250412211321244101   1030000500030000   555610103470104519000003420City Mart Yankin Cente 9             MMR11004120601417813630412000000000000000   10300001 00104100000000004150000000000000     
100   95050320335873810000000000000980000000000980002000000010410404121621455145862424780412000006995005   1020000200030000   333400010001204104000000281Myanmar Soft-Gate Tech Yangon        MMR11004121621455145860412000000000000000   10300001F05104100000000000206000000000000     
100   95050310305109410000000000002940000000002940002000000010410404121623545354480687210412000006995010   1020000200030000   333400010001204104000000281Myanmar Soft-Gate Tech Yangon        MMR11004121623545354480412000000000000000   10300001F05104100000000000617000000000000     
100   62911028202151340000000000047500000000047500002000000010410404121215070168696685900412000745592180   1030000200030000   541188001082000008000000294KBZ BANK               CITY MART - J MMR11004121215070168690412000000000000000   10300001 00104100000000002850000000000000     
100   95030343955682170000000000038550000000038550002000000010410404121610050089636685900412000745602838   1030000200030000   541188001313000008000000306KBZ BANK               CITY MART - S MMR11004121610050089630412000000000000000   10300001 00104100000000002313000000000000     
100   62911028202116120000000000045350000000045350002000000010410404121515500042426685900412000745600187   1030000200030000   541188001512000008000000403KBZ BANK               OCEAN SUPERCE MMR11004121515500042420412000000000000000   10300001 00104100000000002721000000000000     
100   95050313732480420000000000002940000000002940002000000010410404120935120512063638000412000006993800   1020000200030000   333400010001204104000000281Myanmar Soft-Gate Tech Yangon        MMR11004120935120512060412000000000000000   10300001F05104100000000000617000000000000     
100   95030301100354740000000000010000000000010000002000000010410404120336490649886685900412000006992005   1030000200030000   333800010001203104000003327KBZPay                 Yangon        MMR11004120336490649880412000000000000000   10300001F05104100000000002100000000000000     
100   62911028202417260000000000013850000000013850002000000010410404121753120041576685900412000745608293   1030000200030000   541188001031000008000000298KBZ BANK               CITY MART - M MMR11004121753120041570412000000000000000   10300001 00104100000000000831000000000000     
100   62911028202206880000000000002800000000002800002000000010410404121121100074556685900412000745589721   1030000200030000   541188001071000008000000314KBZ BANK               MARKETPLACE - MMR11004121121100074550412000000000000000   10300001 00104100000000000168000000000000     
100   95030301100122420000000000102800000000102800002000000010410404121227150129436685900412000745592722   1030000200030000   541188001056000008000000314KBZ BANK               MARKETPLACE - MMR11004121227150129430412000000000000000   10300001 00104100000000006168000000000000     
100   62911028202471600000000000003000000000003000002000000010410404120521297806356685900412374531119101   1030000500030000   555610110570104519000009164City Mart China Town P int Cen       MMR11004120521297806350412000000000000000   10300001 00104100000000000180000000000000     
100   95030378062733680000000000072113000000072113002000000010410404120749397831046685900412230211430101   1030000500030000   555610103978104519000003818Ocean Oattara Thiri Na PyiTaw        MMR11004120749397831040412000000000000000   10300001 00104100000000004327000000000000     
100   62911028202171550000000000015050000000015050002000000010410404120249417784076685900412675320914101   1030000300030000   444410125271104519000021125SP Bakery San YeikNyei GMP           MMR11004120249417784070412000000000000000   10300001 00104100000000001535000000000000     
100   62911028202045260000000000005500000000005500002000000010410404120411127794346685900412907431020101   1030000500030000   555610112532104519000010487Ocean Super Center St  ohn           MMR11004120411127794340412000000000000000   10300001 00104100000000000330000000000000     
100   95050318458849030000000000026244000000026244002000000010410404120905327844141730230412792361529101   1030000500030000   555610110561104519000009163City Mart Ayeyarwon Br nch           MMR11004120905327844140412000000000000000   10300001 00104100000000006561000000000000     
100   95030302100067550000000000013240000000013240002000000010410404121234387881856685900412132051956101   1030000500030000   555610103978104519000003818Ocean Oattara Thiri Na PyiTaw        MMR11004121234387881850412000000000000000   10300001 00104100000000000794000000000000     
100   62911028202185260000000000047950000000047950002000000010410404121110458058266685900412210218805826   1040001600030000   591220000296000000010000284Shwe Ohh Pharmacy (Lan Yangon        MMR11004121110458058260412000000000000000   10300001F00104100000000002877000000000000     
100   62911028202463780000000000015700000000015700002000000010410404121117457869286685900412671511745101   1030000500030000   555610110572104519000009164City Mart China Town P int Cen       MMR11004121117457869280412000000000000000   10300001 00104100000000000942000000000000     
100   95050311419479170000000000001960000000001960002000000010410404120336130613246424310412000006992001   1020000200030000   333400010001204104000000281Myanmar Soft-Gate Tech Yangon        MMR11004120336130613240412000000000000000   10300001F05104100000000000412000000000000     
100   95050312498129060000000000000980000000000980002000000010410404121030590059229070370412000006994011   1020000200030000   333400010001204104000000281Myanmar Soft-Gate Tech Yangon        MMR11004121030590059220412000000000000000   10300001F05104100000000000206000000000000     
100   95050323722449090000000000009800000000009800002000000010410404121531590159045814850412000006994886   1020000200030000   333400010001204104000000281Myanmar Soft-Gate Tech Yangon        MMR11004121531590159040412000000000000000   10300001F05104100000000002058000000000000     
100   95050314401921990000000000002940000000002940002000000010410404120832580258710418130412000006993573   1020000200030000   333400010001204104000000281Myanmar Soft-Gate Tech Yangon        MMR11004120832580258710412000000000000000   10300001F05104100000000000617000000000000     
100   62911028202130710000000000003300000000003300002000000010410404121734450151666685900412000745607345   1030000200030000   541188001305000008000000325KBZ BANK               CITY MART - A MMR11004121734450151660412000000000000000   10300001 00104100000000000198000000000000     
100   62911028202206880000000000000529000000000529002000000010410404121115070223026685900412000745589439   1030000200030000   541188001059000008000000314KBZ BANK               MARKETPLACE - MMR11004121115070223020412000000000000000   10300001 00104100000000000032000000000000     
100   62911028202169750000000000047350000000047350002000000010410404121102100257666685900412000745588871   1030000200030000   541188001042000008000000010KBZ BANK               MARKETPLACE - MMR11004121102100257660412000000000000000   10300001 00104100000000002841000000000000     
100   62911028202206880000000000001300000000001300002000000010410404121208130191756685900412000745591810   1030000200030000   541188001070000008000000314KBZ BANK               MARKETPLACE - MMR11004121208130191750412000000000000000   10300001 00104100000000000078000000000000     
100   95030306100081790000000000007700000000007700002000000010410404120843377947956685900412210215794795   1040001600030000   591220000276000000010000264Shwe Ohh Pharmacy (YGH Yangon        MMR11004120843377947950412000000000000000   10300001F00104100000000000462000000000000     
100   95030393921562700000000000130085000000130085002000000010410404120603277814826685900412353401209101   1030000500030000   555610103479104519000003432City Mart Junction Zaw na 6          MMR11004120603277814820412000000000000000   10300001 00104100000000007805000000000000     
100   62911028202130710000000000020000000000020000002000000010410404121128068075576685900412210218807557   1040001600030000   598320000659000000010000528Shwe Taung Energy (YGN Yangon        MMR11004121128068075570412000000000000000   10300001F00104100000000000600000000000000     
100   95050327192897240000000000042550000000042550002000000010410404120249050969469183050412953190905101   1030000900030000   541119001220190110000000945City Mart TM C 5       YANGONONE     MMR11004120249050969460412000000000000000   10300001F00104100000000010638000000000000     
100   62911028202132460000000000009600000000009600002000000010410404120846251064236685900412292161525101   1030000900030000   541119001372190110000000978Ocean PZD Season C 2   YANGONAUNG    MMR11004120846251064230412000000000000000   10300001F00104100000000000576000000000000     
100   62911028202684060000000000007186000000007186002000000010410404121259477884466685900412442301954101   1030000500030000   555610104046104519000003821City Mart North Point  enter         MMR11004121259477884460412000000000000000   10300001 00104100000000000431000000000000     
100   62911028202112400000000000065200000000065200002000000010410404120719217905406685900412210214790540   1040001600030000   591220001007000000010000737Shwe Ohh Pharmacy (Tan Ygn           MMR11004120719217905400412000000000000000   10300001F00104100000000003912000000000000     
100   95050326228858240000000000329340000000329340002000000010410404121058407864900893050412176291705101   1030000300030000   555510114764104519000012710S and P Distribution C Ltd           MMR11004121058407864900412000000000000000   10300001 00104100000000079042000000000000     
100   62911028202218270000000000023200000000023200002000000010410404121107140101926685900412000745589084   1030000200030000   541188001081000008000000294KBZ BANK               CITY MART - J MMR11004121107140101920412000000000000000   10300001 00104100000000001392000000000000     
100   95050317088336250000000000097500000000097500002000000010410404120332340234369814380412000006991980   1030000200030000   333800010001203104000003327KBZPay                 Yangon        MMR11004120332340234360412000000000000000   10300001F05104100000000020475000000000000     
100   62911028202318750000000000016300000000016300002000000010410404121707330088496685900412000745605849   1030000200030000   541188001023000008000000298KBZ BANK               CITY MART - M MMR11004121707330088490412000000000000000   10300001 00104100000000000978000000000000     
100   95050312728902740000000000004600000000004600002000000010410404120719331041623388430412968491333101   1030000900030000   541119001200190110000000943City Mart HDC Season C YANGONUT      MMR11004120719331041620412000000000000000   10300001F00104100000000001150000000000000     
100   95050317185868580000000000046080000000046080002000000010410404120307480974149438340412174370948101   1030000900030000   541119001079190110000000872Sein Gay Har Hledan    YANGONUT      MMR11004120307480974140412000000000000000   10300001F00104100000000011520000000000000     
100   62911028202212490000000000008400000000008400002000000010410404120412510990266685900412012421051101   1030000900030000   581219000715190110000000546Akkhaya Tea House(Dago YANGON        MMR11004120412510990260412000000000000000   10300001F00104100000000000857000000000000     
100   62443100313529540000000000036828000000036828002000000010410404120622401027064324480412126521240101   1030000900030000   581219000371190110000000243Jo Jo Hot Pot (Junctio YANGONN       MMR11004120622401027060412000000000000000   10300001F00104100000000015652000000000000     
100   95050318463049920000000000012254000000012254002000000010410404120909071071011645130412732391507101   1030000900030000   581219000372190110000000244Jo Jo HotPot(CapitalHy YANGONA       MMR11004120909071071010412000000000000000   10300001F00104100000000005208000000000000     
100   62911028202212230000000000038830000000038830002000000010410404121057047865176685900412209301725101   1030000500030000   555610110572104519000009164City Mart China Town P int Cen       MMR11004121057047865170412000000000000000   10300001 00104100000000002330000000000000     
100   62911028202204490000000000011850000000011850002000000010410404121107067866576685900412364371712101   1030000500030000   555610112237104519000010487Ocean Super Center St  ohn           MMR11004121107067866570412000000000000000   10300001 00104100000000000711000000000000     
100   62911028202616170000000000027256000000027256002000000010410404121127237870756685900412864581735101   1030000500030000   555610112237104519000010487Ocean Super Center St  ohn           MMR11004121127237870750412000000000000000   10300001 00104100000000001635000000000000     
100   62911028202465350000000000053200000000053200002000000010410404121332477887596685900412820082045101   1030000500030000   555610110570104519000009164City Mart China Town P int Cen       MMR11004121332477887590412000000000000000   10300001 00104100000000003192000000000000     
100   62443100335647210000000000000980000000000980002000000010410404120323185318878587380412000006991926   1020000200030000   333400010001204104000000281Myanmar Soft-Gate Tech Yangon        MMR11004120323185318870412000000000000000   10300001F05104100000000000206000000000000     
100   95050310685238570000000000001000000000001000002000000010410404121125365536768644890412000006994174   1030000200030000   3334000100012031040000040102C2P (Myanmar) Co. Ltd Yangon        MMR11004121125365536760412000000000000000   10300001F05104100000000000210000000000000     
100   62911028202112730000000000076000000000076000002000000010410404120744227917806685900412210214791780   1040001600030000   598320000658000000010000527Shwe Taung Energy (YGN Yangon        MMR11004120744227917800412000000000000000   10300001F00104100000000002280000000000000     
100   95050316785465380000000000001960000000001960002000000010410404121551472147065729750412000006994931   1020000200030000   333400010001204104000000281Myanmar Soft-Gate Tech Yangon        MMR11004121551472147060412000000000000000   10300001F05104100000000000412000000000000     
100   95050313102162270000000000025870000000025870002000000010410404120643371032629622320412461131337101   1030000900030000   541119001284190110000000963City Mart SPL C 9      YANGONMYOTHIT MMR11004120643371032620412000000000000000   10300001F00104100000000006468000000000000     
100   62911028202099050000000000075000000000075000002000000010410404120752581050026685900412442221458101   1030000900030000   569119001506190110000001100Next Generation GCS NP NAYPYITAW     MMR11004120752581050020412000000000000000   10300001F00104100000000004500000000000000     
100   95050312728902740000000000002499000000002499002000000010410404120856301067375120290412503261530101   1030000900030000   541119001189190110000000942City Mart HDC C 4      YANGONUT      MMR11004120856301067370412000000000000000   10300001F00104100000000000625000000000000     
100   62911028202142100000000000003650000000003650002000000010410404120413480990606685900412035431048101   1030000900030000   541119000167190110000000085SeinGayHar (Dagon Cent YANGONUNG     MMR11004120413480990600412000000000000000   10300001F00104100000000000219000000000000     
100   95050322312885760000000000007500000000007500002000000010410404120940051005970162840412000006993828   1030000200030000   333800010001203104000003327KBZPay                 Yangon        MMR11004120940051005970412000000000000000   10300001F05104100000000001575000000000000     
100   62911028202132460000000000029200000000029200002000000010410404120834281060766685900412082041528101   1030000900030000   541119001364190110000000977Ocean PZD C18          YANGONAUNG    MMR11004120834281060760412000000000000000   10300001F00104100000000001752000000000000     
100   62911028202132460000000000073762000000073762002000000010410404120856401067416685900412505261540101   1030000900030000   541119001351190110000000977Ocean PZD C5           YANGONAUNG    MMR11004120856401067410412000000000000000   10300001F00104100000000004426000000000000     
100   62443100348240580000000000021558000000021558002000000010410404121022391093986006910412130521639101   1030000900030000   541119001246190110000000955City Mart JS C 5       YANGONUT      MMR11004121022391093980412000000000000000   10300001F00104100000000005390000000000000     
100   95050312498129060000000000001960000000001960002000000010410404120653362336885721680412000006993152   1020000200030000   333400010001204104000000281Myanmar Soft-Gate Tech Yangon        MMR11004120653362336880412000000000000000   10300001F05104100000000000412000000000000     
100   95050325305150830000000000000980000000000980002000000010410404120353022302616267910412000006992103   1020000200030000   333400010001204104000000281Myanmar Soft-Gate Tech Yangon        MMR11004120353022302610412000000000000000   10300001F05104100000000000206000000000000     
100   62911028202112730000000000227624000000227624002000000010410404121211447878576685900412777421805101   1030000500030000   555610112244104519000010487Ocean Super Center St  ohn           MMR11004121211447878570412000000000000000   10300001 00104100000000013657000000000000     
100   62911028202400660000000000127290000000127290002000000010410404121053577864296685900412102261706101   1030000500030000   555610104046104519000003821City Mart North Point  enter         MMR11004121053577864290412000000000000000   10300001 00104100000000007637000000000000     
100   62443100302386910000000000063500000000063500002000000010410404121117131114273772540412464471713101   1030000900030000   541119001112190110000000872Sein Gay Har Hledan    YANGONUT      MMR11004121117131114270412000000000000000   10300001F00104100000000015875000000000000     
100   95050326228858240000000000499477000000499477002000000010410404121100377865355850500412230311705101   1030000300030000   555510114764104519000012710S and P Distribution C Ltd           MMR11004121100377865350412000000000000000   10300001 00104100000000119874000000000000     
100   62911028202099050000000000050000000000050000002000000010410404120810307930926685900412210215793092   1040001600030000   598320000660000000010000529Shwe Taung Energy (NPT Naypyitaw     MMR11004120810307930920412000000000000000   10300001F00104100000000001500000000000000     
100   95050320624349010000000000030000000000030000002000000010410404121021028012094439520412210217801209   1040001600030000   598320000916000000010000664MMTM - North Dagon     Ygn           MMR11004121021028012090412000000000000000   10300001F00104100000000003600000000000000     
100   62443100378093870000000000038400000000038400002000000010410404121031001096898985280412322011700101   1030000900030000   541119001208190110000000948City Mart YK C 6       YANGONAUNG    MMR11004121031001096890412000000000000000   10300001F00104100000000009600000000000000     
100   62443100302386910000000000035493000000035493002000000010410404121156461126784914440412203261846101   1030000900030000   541119001075190110000000872Sein Gay Har Hledan    YANGONUT      MMR11004121156461126780412000000000000000   10300001F00104100000000008874000000000000     
100   95050314248160600000000000017199000000017199002000000010410404121229411137159276220412809591841101   1030000900030000   541119001263190110000000958City Mart PLST C 6     YANGONMYOTHIT MMR11004121229411137150412000000000000000   10300001F00104100000000004300000000000000     
100   95050312298324450000000000000980000000000980002000000010410404120323015301333544830412000006991925   1020000200030000   333400010001204104000000281Myanmar Soft-Gate Tech Yangon        MMR11004120323015301330412000000000000000   10300001F05104100000000000206000000000000     
100   62911028202527490000000000061000000000061000002000000010410404121025161094876685900412189551616101   1030000900030000   554119000346190110000000213New Day Energy SOK     YANGONOKKALAP MMR11004121025161094870412000000000000000   10300001F00104100000000001830000000000000     
100   95030301100119050000000000050000000000050000002000000010410404120650052005606685900412000006993138   1030000200030000   333800010001203104000003327KBZPay                 Yangon        MMR11004120650052005600412000000000000000   10300001F05104100000000010500000000000000     
100   95050320624349010000000000015173000000015173002000000010410404121154461126279956990412178241846101   1030000900030000   541119001282190110000000963City Mart SPL C 7      YANGONMYOTHIT MMR11004121154461126270412000000000000000   10300001F00104100000000003794000000000000     
100   95050313836159580000000000001000000000001000002000000010410404121244341434301269090412000006994392   1030000200030000   3334000100012031040000040102C2P (Myanmar) Co. Ltd Yangon        MMR11004121244341434300412000000000000000   10300001F05104100000000000210000000000000     
