100   95030306100081790000000000018400000000018400002000000010410404181136180136676685900418000745755957   1030000200030000   541188001073000008000000294KBZ BANK               CITY MART - J MMR11004181136180136670418000000000000000   10300001 00104100000000001104000000000000     
100   95050311959900780000000000000980000000000980002000000010410404181236160616965633140418000007014087   1020000200030000   333400010001204104000000281Myanmar Soft-Gate Tech Yangon        MMR11004181236160616960418000000000000000   10300001F05104100000000000206000000000000     
100   95050317100052460000000000000700000000000700002000000010410404180144301430007183810418000007009817   1030000200030000   333800010001203104000003327KBZPay                 Yangon        MMR11004180144301430000418000000000000000   10300001F05104100000000000147000000000000     
100   95050311419479170000000000001960000000001960002000000010410404180331250125062485660418000007010496   1020000200030000   333400010001204104000000281Myanmar Soft-Gate Tech Yangon        MMR11004180331250125060418000000000000000   10300001F05104100000000000412000000000000     
100   62911028202133520000000000004184000000004184002000000010410404181207112135086685900418408371811107   1030000900030000   541119001187190110000000942City Mart HDC C 2      YANGONUT      MMR11004181207112135080418000000000000000   10300001F00104100000000000251000000000000     
100   95050313702988830000000000002940000000002940002000000010410404180151522152833637330418000007009848   1020000200030000   333400010001204104000000281Myanmar Soft-Gate Tech Yangon        MMR11004180151522152830418000000000000000   10300001F05104100000000000617000000000000     
100   62911028202163630000000000021900000000021900002000000010410404180344591965116685900418210810196511   1040001600030000   591220000288000000010000276Shwe Ohh Pharmacy (Nor Yangon        MMR11004180344591965110418000000000000000   10300001F00104100000000001314000000000000     
100   62911028202169750000000000006035000000006035002000000010410404180430051984606685900418210811198460   1040001600030000   541120000563000000010000465Ocean Shwe Gone Daing  Yangon        MMR11004180430051984600418000000000000000   10300001F00104100000000000362000000000000     
100   95050319528093960000000000002940000000002940002000000010410404181252552255010250210418000007014163   1020000200030000   333400010001204104000000281Myanmar Soft-Gate Tech Yangon        MMR11004181252552255010418000000000000000   10300001F05104100000000000617000000000000     
100   62911028202400660000000000039900000000039900002000000010410404180358358313516685900418178361007107   1030000500030000   555610104024104519000003821City Mart North Point  enter         MMR11004180358358313510418000000000000000   10300001 00104100000000002394000000000000     
100   62911028202193830000000000012950000000012950002000000010410404181149162130756685900418145191816107   1030000900030000   541119000126190110000000082Sein Gay Har Super Cen YANGON        MMR11004181149162130750418000000000000000   10300001F00104100000000000777000000000000     
100   62443100358839880000000000061250000000061250002000000010410404182052240078774321040418000745781523   1030000200030000   541188001002000008000000008KBZ BANK               MARKETPLACE - MMR11004182052240078770418000000000000000   10300001 00104100000000015313000000000000     
100   95050314996291580000000000000980000000000980002000000010410404180515024502634797050418000007011348   1020000200030000   333400010001204104000000281Myanmar Soft-Gate Tech Yangon        MMR11004180515024502630418000000000000000   10300001F05104100000000000206000000000000     
100   62911028202448030000000000023300000000023300002000000010410404181901200330176685900418000745779043   1030000200030000   541188001024000008000000298KBZ BANK               CITY MART - M MMR11004181901200330170418000000000000000   10300001 00104100000000001398000000000000     
100   95050319379439060000000000020000000000020000002000000010410404180824365436794514180418000007012680   1030000200030000   333800010001203104000003327KBZPay                 Yangon        MMR11004180824365436790418000000000000000   10300001F05104100000000004200000000000000     
100   95050319528093960000000000000980000000000980002000000010410404180207323732000730250418000007009906   1020000200030000   333400010001204104000000281Myanmar Soft-Gate Tech Yangon        MMR11004180207323732000418000000000000000   10300001F05104100000000000206000000000000     
100   62911028202668140000000000041264000000041264002000000010410404181009092101746685900418275391609107   1030000900030000   541119001283190110000000963City Mart SPL C 8      YANGONMYOTHIT MMR11004181009092101740418000000000000000   10300001F00104100000000002476000000000000     
100   62443100395250310000000000002054000000002054002000000010410404181011052102293774810418308411605107   1030000900030000   541119001261190110000000958City Mart PLST C 4     YANGONMYOTHIT MMR11004181011052102290418000000000000000   10300001F00104100000000000514000000000000     
100   62911028202441420000000000009600000000009600002000000010410404180832022112756685900418210815211275   1040001600030000   591220000278000000010000266Shwe Ohh Pharmacy (Bah Yangon        MMR11004180832022112750418000000000000000   10300001F00104100000000000576000000000000     
100   62911028202668300000000000039900000000039900002000000010410404180538482024416685900418210812202441   1040001600030000   591220000259000000010000247Shwe Ohh Pharmacy (KKT Yangon        MMR11004180538482024410418000000000000000   10300001F00104100000000002394000000000000     
100   62911028202527490000000000021350000000021350002000000010410404180506092027306685900418142361109107   1030000900030000   541119001261190110000000958City Mart PLST C 4     YANGONMYOTHIT MMR11004180506092027300418000000000000000   10300001F00104100000000001281000000000000     
100   95030301100331230000000000009600000000009600002000000010410404180526082032076685900418415561108107   1030000900030000   541119001075190110000000872Sein Gay Har Hledan    YANGONUT      MMR11004180526082032070418000000000000000   10300001F00104100000000000576000000000000     
100   62911028202318750000000000002600000000002600002000000010410404180820102075736685900418862501410107   1030000900030000   541119001529190110000001107Ocean MGDTM-Season C-2 YANGONADON    MMR11004180820102075730418000000000000000   10300001F00104100000000000156000000000000     
100   62911028202684060000000000038000000000038000002000000010410404180403481972806685900418210811197280   1040001600030000   598320000658000000010000527Shwe Taung Energy (YGN Yangon        MMR11004180403481972800418000000000000000   10300001F00104100000000001140000000000000     
100   95050311068653690000000000030000000000030000002000000010410404180849191919448365380418000007012853   1030000200030000   333800010001203104000003327KBZPay                 Yangon        MMR11004180849191919440418000000000000000   10300001F05104100000000006300000000000000     
100   95030301100128040000000000012000000000012000002000000010410404180241191994806685900418443110919107   1030000900030000   541119001208190110000000948City Mart YK C 6       YANGONAUNG    MMR11004180241191994800418000000000000000   10300001F00104100000000000720000000000000     
100   62443100390038980000000001180000000001180000002000000010410404180856372084260443350418325261537107   1030000900030000   594419000598190110000000438Shwe NanTaw Jewellery  YANGONN       MMR11004180856372084260418000000000000000   10300001F00104100000000283200000000000000     
100   62911028202318750000000000016500000000016500002000000010410404181125502124526685900418744551750107   1030000900030000   541119001175190110000000932OCEAN HTY CITY CARE    YANGONTHARYA  MMR11004181125502124520418000000000000000   10300001F00104100000000000990000000000000     
100   95030301100124400000000000007900000000007900002000000010410404180711472057876685900418838411347107   1030000900030000   541119001273190110000000960City Mart PLST Season  YANGONMYOTHIT MMR11004180711472057870418000000000000000   10300001F00104100000000000474000000000000     
100   62911028202130710000000000020000000000020000002000000010410404180544092028106685900418210812202810   1040001600030000   598320000659000000010000528Shwe Taung Energy (YGN Yangon        MMR11004180544092028100418000000000000000   10300001F00104100000000000600000000000000     
100   62911028202668300000000000004200000000004200002000000010410404180548232030716685900418210812203071   1040001600030000   591220000259000000010000247Shwe Ohh Pharmacy (KKT Yangon        MMR11004180548232030710418000000000000000   10300001F00104100000000000252000000000000     
100   95050316769671810000000000002940000000002940002000000010410404181050592059511150610418000007013586   1020000200030000   333400010001204104000000281Myanmar Soft-Gate Tech Yangon        MMR11004181050592059510418000000000000000   10300001F05104100000000000617000000000000     
100   95050314064416890000000000001960000000001960002000000010410404181051172117539498130418000007013587   1020000200030000   333400010001204104000000281Myanmar Soft-Gate Tech Yangon        MMR11004181051172117530418000000000000000   10300001F05104100000000000412000000000000     
100   62911028202313470000000000082300000000082300002000000010410404180915442134826685900418210816213482   1040001600030000   591220000285000000010000273Shwe Ohh Pharmacy (47t Yangon        MMR11004180915442134820418000000000000000   10300001F00104100000000004938000000000000     
100   95050323543939140000000000044750000000044750002000000010410404181145472129838100940418081151847107   1030000900030000   541119001298190110000000968Ocean Mingalar MDY C 6 MANDALAYHARSI MMR11004181145472129830418000000000000000   10300001F00104100000000011188000000000000     
100   62911028202290100000000000020000000000020000002000000010410404180438542020926685900418799081154107   1030000900030000   554119001102190110000000214New Day Energy MTN     YANGON        MMR11004180438542020920418000000000000000   10300001F00104100000000000600000000000000     
100   95050320205194540000000000014550000000014550002000000010410404181123402228656278260418210818222865   1040001600030000   591220000292000000010000280Shwe Ohh Pharmacy (Cha Yangon        MMR11004181123402228650418000000000000000   10300001F00104100000000003492000000000000     
100   62911028202464020000000000012200000000012200002000000010410404180527022016146685900418210812201614   1040001600030000   591220000296000000010000284Shwe Ohh Pharmacy (Lan Yangon        MMR11004180527022016140418000000000000000   10300001F00104100000000000732000000000000     
100   62911028202031710000000000030000000000030000002000000010410404180817322075126685900418830471432107   1030000900030000   554119000348190110000000215New Day Energy MYG     YANGONONE     MMR11004180817322075120418000000000000000   10300001F00104100000000000900000000000000     
100   95050326393773020000000000000980000000000980002000000010410404180405063506619400330418000007010764   1020000200030000   333400010001204104000000281Myanmar Soft-Gate Tech Yangon        MMR11004180405063506610418000000000000000   10300001F05104100000000000206000000000000     
100   62911028202660950000000000065000000000065000002000000010410404180703223322856685900418000007012120   1030000200030000   333800010001203104000003327KBZPay                 Yangon        MMR11004180703223322850418000000000000000   10300001F05104100000000013650000000000000     
100   95050314401921990000000000100000000000100000002000000010410404180917294729778025000418000007013044   1030000200030000   3338000100012031040000040022C2P (Myanmar) Co. Ltd Yangon        MMR11004180917294729770418000000000000000   10300001F05104100000000021000000000000000     
100   95050311959900780000000000000980000000000980002000000010410404180612374237579529150418000007011749   1020000200030000   333400010001204104000000281Myanmar Soft-Gate Tech Yangon        MMR11004180612374237570418000000000000000   10300001F05104100000000000206000000000000     
100   62911028202910850000000000007150000000007150002000000010410404181015028362146685900418980451605107   1030000500030000   555610110599104519000009166City Mart 47 Branch                  MMR11004181015028362140418000000000000000   10300001 00104100000000000429000000000000     
100   95030301100157400000000000001960000000001960002000000010410404181252502250286685900418000007014161   1020000200030000   333400010001204104000000281Myanmar Soft-Gate Tech Yangon        MMR11004181252502250280418000000000000000   10300001F05104100000000000412000000000000     
100   95050312498129060000000000001960000000001960002000000010410404180310104010186401790418000007010308   1020000200030000   333400010001204104000000281Myanmar Soft-Gate Tech Yangon        MMR11004180310104010180418000000000000000   10300001F05104100000000000412000000000000     
100   95050313732480420000000000001960000000001960002000000010410404180303503350155125320418000007010259   1020000200030000   333400010001204104000000281Myanmar Soft-Gate Tech Yangon        MMR11004180303503350150418000000000000000   10300001F05104100000000000412000000000000     
100   62911028202908140000000000001000000000001000002000000010410404180712384238556685900418000007012171   1030000200030000   3334000100012031040000040102C2P (Myanmar) Co. Ltd Yangon        MMR11004180712384238550418000000000000000   10300001F05104100000000000210000000000000     
100   95050315005801680000000000002940000000002940002000000010410404180624395439537720260418000007011823   1020000200030000   333400010001204104000000281Myanmar Soft-Gate Tech Yangon        MMR11004180624395439530418000000000000000   10300001F05104100000000000617000000000000     
100   62911028202473840000000000043200000000043200002000000010410404181107492213986685900418210818221398   1040001600030000   591220000278000000010000266Shwe Ohh Pharmacy (Bah Yangon        MMR11004181107492213980418000000000000000   10300001F00104100000000002592000000000000     
100   95050311121153200000000000000980000000000980002000000010410404181306003600895292760418000007014233   1020000200030000   333400010001204104000000281Myanmar Soft-Gate Tech Yangon        MMR11004181306003600890418000000000000000   10300001F05104100000000000206000000000000     
100   95030304441505280000000000010000000000010000002000000010410404180719254925146685900418000007012243   1030000300030000   333300010001206104000002147DICA Company Limited   Yangon        MMR11004180719254925140418000000000000000   10300001F05104100000000010000000000000000     
100   95030367537085740000000000001960000000001960002000000010410404180415424542316685900418000007010871   1020000200030000   333400010001204104000000281Myanmar Soft-Gate Tech Yangon        MMR11004180415424542310418000000000000000   10300001F05104100000000000412000000000000     
100   95050316377977350000000000005000000000005000002000000010410404181023015301740469850418000007013426   1030000200030000   3338000100012031040000040022C2P (Myanmar) Co. Ltd Yangon        MMR11004181023015301740418000000000000000   10300001F05104100000000001050000000000000     
100   62911028202482830000000000007650000000007650002000000010410404180517018322876685900418189481151107   1030000500030000   555610110570104519000009164City Mart China Town P int Cen       MMR11004180517018322870418000000000000000   10300001 00104100000000000459000000000000     
100   95050312498129060000000000002940000000002940002000000010410404180157122712758885740418000007009864   1020000200030000   333400010001204104000000281Myanmar Soft-Gate Tech Yangon        MMR11004180157122712750418000000000000000   10300001F05104100000000000617000000000000     
100   95050312498129060000000000000980000000000980002000000010410404180210134013097255080418000007009929   1020000200030000   333400010001204104000000281Myanmar Soft-Gate Tech Yangon        MMR11004180210134013090418000000000000000   10300001F05104100000000000206000000000000     
100   95030301100122420000000000020000000000020000002000000010410404180710134013636685900418000007012164   1030000200030000   333800010001203104000003327KBZPay                 Yangon        MMR11004180710134013630418000000000000000   10300001F05104100000000004200000000000000     
100   95050319928585020000000000001960000000001960002000000010410404181011244124279072650418000007013359   1020000200030000   333400010001204104000000281Myanmar Soft-Gate Tech Yangon        MMR11004181011244124270418000000000000000   10300001F05104100000000000412000000000000     
100   95050313710136610000000000002940000000002940002000000010410404181327275727836945240418000007014313   1020000200030000   333400010001204104000000281Myanmar Soft-Gate Tech Yangon        MMR11004181327275727830418000000000000000   10300001F05104100000000000617000000000000     
100   95050312940629360000000000001000000000001000002000000010410404180322015201028317610418000007010412   1030000200030000   333800010001203104000003327KBZPay                 Yangon        MMR11004180322015201020418000000000000000   10300001F05104100000000000210000000000000     
100   95050312498129060000000000000980000000000980002000000010410404180357582758563130780418000007010700   1020000200030000   333400010001204104000000281Myanmar Soft-Gate Tech Yangon        MMR11004180357582758560418000000000000000   10300001F05104100000000000206000000000000     
100   95050321798808970000000000008000000000008000002000000010410404180357592759228173320418000007010699   1030000200030000   333800010001203104000003327KBZPay                 Yangon        MMR11004180357592759220418000000000000000   10300001F05104100000000001680000000000000     
100   62443100318296470000000000029260000000029260002000000010410404181237342287598938110418210819228759   1040001600030000   581420000616000000010000489Mai Thai               Ygn           MMR11004181237342287590418000000000000000   10300001F00104100000000003511000000000000     
100   95050315430281830000000000200000000000200000002000000010410404180159432943285410570418000007009873   1030000200030000   333800010001203104000003327KBZPay                 Yangon        MMR11004180159432943280418000000000000000   10300001F05104100000000042000000000000000     
100   95050312224678430000000000002940000000002940002000000010410404180110574057188605230418000007009699   1020000200030000   333400010001204104000000281Myanmar Soft-Gate Tech Yangon        MMR11004180110574057180418000000000000000   10300001F05104100000000000617000000000000     
100   95050313702988830000000000002940000000002940002000000010410404180223535353668531550418000007010000   1020000200030000   333400010001204104000000281Myanmar Soft-Gate Tech Yangon        MMR11004180223535353660418000000000000000   10300001F05104100000000000617000000000000     
100   62911028202788270000000000012100000000012100002000000010410404180620228332226685900418230001317107   1030000300030000   444410118915104519000016097SP Bakery Yangon SR 1                MMR11004180620228332220418000000000000000   10300001 00104100000000001234000000000000     
100   95050312498129060000000000000980000000000980002000000010410404180711264126191316170418000007012175   1020000200030000   333400010001204104000000281Myanmar Soft-Gate Tech Yangon        MMR11004180711264126190418000000000000000   10300001F05104100000000000206000000000000     
100   95050320335873810000000000000980000000000980002000000010410404180128455845995201330418000007009754   1020000200030000   333400010001204104000000281Myanmar Soft-Gate Tech Yangon        MMR11004180128455845990418000000000000000   10300001F05104100000000000206000000000000     
100   95050319996628650000000000000980000000000980002000000010410404181158322832189994920418000007013932   1020000200030000   333400010001204104000000281Myanmar Soft-Gate Tech Yangon        MMR11004181158322832180418000000000000000   10300001F05104100000000000206000000000000     
100   95050310427855490000000000001960000000001960002000000010410404171758332833727965790418000007009463   1020000200030000   333400010001204104000000281Myanmar Soft-Gate Tech Yangon        MMR11004171758332833720418000000000000000   10300001F05104100000000000412000000000000     
100   95030310098554020000000000017000000000017000002000000010410404170525210021636685900417210711002163   1030000500030000   598320001602000015172200016MAX ENERGY             PTN           MMR11004170525210021630417000000000000000   10300001 00104100000000000510000000000000     
100   62911028202870750000000000013600000000013600002000000010410404140557110000486685900414210412000048   1020000200030000   599900315001300395999000031MWD BANK               YGN           MMR11004140557110000480414000000000000000   10300001 00104100000000000816000000000000     
100   62443100333488440000000000018000000000018000002000000010410404180929280016148529180418000745748689   1030000200030000   541188001014000008000000008KBZ BANK               MARKETPLACE - MMR11004180929280016140418000000000000000   10300001 00104100000000004500000000000000     
100   62911028202708160000000000024936000000024936002000000010410404181640350004076685900418000745772627   1030000200030000   541188001422000008000000401KBZ BANK               OCEAN SUPERCE MMR11004181640350004070418000000000000000   10300001 00104100000000001496000000000000     
100   62911028202421380000000000018000000000018000002000000010410404181451000011096685900418000745767668   1030000200030000   541188001079000008000000294KBZ BANK               CITY MART - J MMR11004181451000011090418000000000000000   10300001 00104100000000001080000000000000     
100   62911028202154800000000000032600000000032600002000000010410404180922130000356685900418000745770467   1030000200030000   594488000582000008000003836KBZ BANK               CHERRY OO(TAW MMR11004180922130000350418000000000000000   10300001 00104100000000001956000000000000     
100   62911028202400660000000000019500000000019500002000000010410404180434370029876685900418000745753655   1030000200030000   599988000600000008000003439KBZ BANK               SWEETY HOME ( MMR11004180434370029870418000000000000000   10300001 00104100000000001170000000000000     
100   95030306100081790000000000031500000000031500002000000010410404181122090022296685900418000745754821   1030000200030000   541188001085000008000000294KBZ BANK               CITY MART - J MMR11004181122090022290418000000000000000   10300001 00104100000000001890000000000000     
100   95050322654733420000000000100000000000100000002000000010410404180719534953497599510418000007012255   1030000200030000   3338000100012031040000040022C2P (Myanmar) Co. Ltd Yangon        MMR11004180719534953490418000000000000000   10300001F05104100000000021000000000000000     
100   95050318741700180000000000001960000000001960002000000010410404180919034903423067540418000007013055   1020000200030000   333400010001204104000000281Myanmar Soft-Gate Tech Yangon        MMR11004180919034903420418000000000000000   10300001F05104100000000000412000000000000     
100   95050317486512680000000000100000000000100000002000000010410404181316474647378597730418000007014270   1030000200030000   333800010001203104000003327KBZPay                 Yangon        MMR11004181316474647370418000000000000000   10300001F05104100000000021000000000000000     
100   95050314570621780000000000000980000000000980002000000010410404181227345734017115430418000007014047   1020000200030000   333400010001204104000000281Myanmar Soft-Gate Tech Yangon        MMR11004181227345734010418000000000000000   10300001F05104100000000000206000000000000     
100   62443101023815100000000000011100000000011100002000000010410404180557218327443344700418663281227107   1030000500030000   555610114573104519000012532City Mart Ahlone Branc               MMR11004180557218327440418000000000000000   10300001 00104100000000002775000000000000     
100   95030367537085740000000000002940000000002940002000000010410404181204473447136685900418000007013967   1020000200030000   333400010001204104000000281Myanmar Soft-Gate Tech Yangon        MMR11004181204473447130418000000000000000   10300001F05104100000000000617000000000000     
100   95050316717221100000000000000980000000000980002000000010410404181109493949972632910418000007013688   1020000200030000   333400010001204104000000281Myanmar Soft-Gate Tech Yangon        MMR11004181109493949970418000000000000000   10300001F05104100000000000206000000000000     
100   95030367537085740000000000000980000000000980002000000010410404180359492949486685900418000007010719   1020000200030000   333400010001204104000000281Myanmar Soft-Gate Tech Yangon        MMR11004180359492949480418000000000000000   10300001F05104100000000000206000000000000     
100   62443100372718280000000000059000000000059000002000000010410404170425450012089421790417210710001208   1030000500030000   581220146401013205812201464THAI 47 (HELPIN BRANCH PTN           MMR11004170425450012080417000000000000000   10300001 00104100000000025075000000000000     
100   62911028202193830000000000079873000000079873002000000010410404171051140019566685900417210717001956   1030000500030000   598320002702000015172200027MAX ENERGY             PTN           MMR11004171051140019560417000000000000000   10300001 00104100000000002396000000000000     
100   62911028202473840000000000034000000000034000002000000010410404170945370002476685900417210716000247   1030000500030000   809920152601003108099201526LUDU                   PTN           MMR11004170945370002470417000000000000000   10300001 00104100000000002040000000000000     
100   95050319391394380000000000010950000000010950002000000010410404171315000003116689410417000340682833   1030000300030000   531100000602000000000000408CB BANK                CAPITAL HYPER MMR11004171315000003110417000000000000000   10300001F00104100000000002628000000000000     
100   62443100330048680000000000035002000000035002002000000010410404171131340009993740240417210718000999   1030000500030000   598320001103000015172200011MAX ENERGY             PTN           MMR11004171131340009990417000000000000000   10300001 00104100000000004200000000000000     
100   62911028202615340000000000008200000000008200002000000010410404170452310006756685900417210711000675   1030000500030000   541120182201000045411201822EASY MART-005          PTN           MMR11004170452310006750417000000000000000   10300001 00104100000000000492000000000000     
100   62911028202471860000000000108664000000108664002000000010410404171125110012536685900417210717001253   1030000500030000   581220146401013205812201464THAI 47 (HELPIN BRANCH PTN           MMR11004171125110012530417000000000000000   10300001 00104100000000011084000000000000     
100   62443101006037900000000000020000000000020000002000000010410404170720460030887009550417210713003088   1030000500030000   598320001304000015172200013MAX ENERGY             PTN           MMR11004170720460030880417000000000000000   10300001 00104100000000002400000000000000     
100   62911028202217510000000000053530000000053530002000000010410404180424528315646685900418393551054107   1030000500030000   555610112240104519000010487Ocean Super Center St  ohn           MMR11004180424528315640418000000000000000   10300001 00104100000000003212000000000000     
100   95050319528093960000000000000980000000000980002000000010410404181501063106967711110418000007014693   1020000200030000   333400010001204104000000281Myanmar Soft-Gate Tech Yangon        MMR11004181501063106960418000000000000000   10300001F05104100000000000206000000000000     
100   95050316321163940000000000027200000000027200002000000010410404181202243224915122560418000007013953   1030000200030000   333800010001203104000003327KBZPay                 Yangon        MMR11004181202243224910418000000000000000   10300001F05104100000000005712000000000000     
100   95050316785465380000000000000980000000000980002000000010410404181527415741552668560418000007014789   1020000200030000   333400010001204104000000281Myanmar Soft-Gate Tech Yangon        MMR11004181527415741550418000000000000000   10300001F05104100000000000206000000000000     
100   62911028202610960000000000149300000000149300002000000010410404180628248331916685900418191581220107   1030000300030000   555510124364104519000020166Makro Myanmar                        MMR11004180628248331910418000000000000000   10300001 00104100000000008958000000000000     
100   95050311959900780000000000000980000000000980002000000010410404180705433543587670820418000007012143   1020000200030000   333400010001204104000000281Myanmar Soft-Gate Tech Yangon        MMR11004180705433543580418000000000000000   10300001F05104100000000000206000000000000     
100   95030301100315070000000000005000000000005000002000000010410404180501283128386685900418000007011240   1030000300030000   333300010001206104000002741Get All Myanmar Compan Yangon        MMR11004180501283128380418000000000000000   10300001F05104100000000010000000000000000     
100   95050310794962000000000000005000000000005000002000000010410404181356532653475888430418000007014436   1030000200030000   3338000100012031040000040022C2P (Myanmar) Co. Ltd Yangon        MMR11004181356532653470418000000000000000   10300001F05104100000000001050000000000000     
100   62443100306416880000000000013000000000013000002000000010410404170606260026228491850417210712002622   1030000500030000   598320002701000015172200027MAX ENERGY             PTN           MMR11004170606260026220417000000000000000   10300001 00104100000000001560000000000000     
100   62911028202440680000000000017600000000017600002000000010410404170907500019906685900417210715001990   1030000500030000   598320001204000015172200012MAX ENERGY             PTN           MMR11004170907500019900417000000000000000   10300001 00104100000000000528000000000000     
100   95030301100129110000000000025500000000025500002000000010410404170507510001816685900417210711000181   1030000500030000   598320005301000015172200053MAX ENERGY             PTN           MMR11004170507510001810417000000000000000   10300001 00104100000000000765000000000000     
100   95030301100129110000000000045000000000045000002000000010410404170508220001826685900417210711000182   1030000500030000   598320005301000015172200053MAX ENERGY             PTN           MMR11004170508220001820417000000000000000   10300001 00104100000000001350000000000000     
100   62443101003317490000000000044550000000044550002000000010410404171413241713915838400417210721171391   1040001600030000   581420000804000000010000580Jeff's Kitchen (Kan Ye Yangon        MMR11004171413241713910417000000000000000   10300001F00104100000000005346000000000000     
100   62911028202448030000000000005800000000005800002000000010410404181832000059246685900418000745777892   1030000200030000   541188001033000008000000298KBZ BANK               CITY MART - M MMR11004181832000059240418000000000000000   10300001 00104100000000000348000000000000     
100   95050324411430900000000000502000000000502000002000000010410404180830590059343833410418000007012731   1010000100030000   333500010001212104000002535Internal Revenue Depar Yangon        MMR11004180830590059340418000000000000000   10300001F05104100000000060000000000000000     
100   95030359617000430000000000300000000000300000002000000010410404180930580058496685900418000007013136   1030000200030000   333800010001203104000003327KBZPay                 Yangon        MMR11004180930580058490418000000000000000   10300001F05104100000000063000000000000000     
100   95050316818236190000000000004900000000004900002000000010410404180007123712191583580418000007009607   1020000200030000   333400010001204104000000281Myanmar Soft-Gate Tech Yangon        MMR11004180007123712190418000000000000000   10300001F05104100000000001029000000000000     
100   95030367537085740000000000001960000000001960002000000010410404181209243924496685900418000007013981   1020000200030000   333400010001204104000000281Myanmar Soft-Gate Tech Yangon        MMR11004181209243924490418000000000000000   10300001F05104100000000000412000000000000     
100   95050319379439060000000000002000000000002000002000000010410404180825255525060698640418000007012695   1030000200030000   333800010001203104000003327KBZPay                 Yangon        MMR11004180825255525060418000000000000000   10300001F05104100000000000420000000000000     
100   95050315557781210000000000010000000000010000002000000010410404181015044504605427300418000007013381   1030000200030000   333800010001203104000003327KBZPay                 Yangon        MMR11004181015044504600418000000000000000   10300001F05104100000000002100000000000000     
100   95050323233042810000000000000980000000000980002000000010410404180823205320406251760418000007012666   1020000200030000   333400010001204104000000281Myanmar Soft-Gate Tech Yangon        MMR11004180823205320400418000000000000000   10300001F05104100000000000206000000000000     
100   95030301100124400000000000003500000000003500002000000010410404180720018338796685900418049501335107   1030000300030000   444410123548104519000019766YKKO NPST                            MMR11004180720018338790418000000000000000   10300001 00104100000000000357000000000000     
100   62443100358839880000000000064300000000064300002000000010410404181401252349904235950418210821234990   1040001600030000   581420000922000000010000669Friend's Fusion Sports Ygn           MMR11004181401252349900418000000000000000   10300001F00104100000000007716000000000000     
100   95050316421999920000000000003920000000003920002000000010410404181110224022647590360418000007013697   1020000200030000   333400010001204104000000281Myanmar Soft-Gate Tech Yangon        MMR11004181110224022640418000000000000000   10300001F05104100000000000823000000000000     
100   62443101001072630000000000035800000000035800002000000010410404181650070055235512390418000745773038   1030000200030000   541188001366000008000000395KBZ BANK               OCEAN SUPERMA MMR11004181650070055230418000000000000000   10300001 00104100000000008950000000000000     
100   95050311569615630000000000069166000000069166002000000010410404181613420050650299650418000745771400   1030000200030000   541188001420000008000000401KBZ BANK               OCEAN SUPERCE MMR11004181613420050650418000000000000000   10300001 00104100000000017292000000000000     
100   95050314650717570000000000021232000000021232002000000010410404181830240041230080020418000745777837   1030000200030000   541188001424000008000000401KBZ BANK               OCEAN SUPERCE MMR11004181830240041230418000000000000000   10300001 00104100000000005308000000000000     
100   62443100355903280000000000000980000000000980002000000010410404180440081008888854100418000007011076   1020000200030000   333400010001204104000000281Myanmar Soft-Gate Tech Yangon        MMR11004180440081008880418000000000000000   10300001F05104100000000000206000000000000     
100   62911028202592980000000000017300000000017300002000000010410404181213530184626685900418000745758483   1030000200030000   541188001075000008000000294KBZ BANK               CITY MART - J MMR11004181213530184620418000000000000000   10300001 00104100000000001038000000000000     
100   62911028202264530000000000113918000000113918002000000010410404181016490212486685900418000745750909   1030000200030000   541188001007000008000000008KBZ BANK               MARKETPLACE - MMR11004181016490212480418000000000000000   10300001 00104100000000006835000000000000     
100   95030322236782320000000000085175000000085175002000000010410404180901520299046685900418000745747904   1030000200030000   541188001039000008000000010KBZ BANK               MARKETPLACE - MMR11004180901520299040418000000000000000   10300001 00104100000000005111000000000000     
100   95050312498129060000000000001960000000001960002000000010410404181236170617953980660418000007014089   1020000200030000   333400010001204104000000281Myanmar Soft-Gate Tech Yangon        MMR11004181236170617950418000000000000000   10300001F05104100000000000412000000000000     
100   95030301100120850000000000010000000000010000002000000010410404180716564656756685900418000007012226   1030000200030000   333800010001203104000003327KBZPay                 Yangon        MMR11004180716564656750418000000000000000   10300001F05104100000000002100000000000000     
100   95050313396828960000000000001960000000001960002000000010410404180210444044179879330418000007009932   1020000200030000   333400010001204104000000281Myanmar Soft-Gate Tech Yangon        MMR11004180210444044170418000000000000000   10300001F05104100000000000412000000000000     
100   62911028202464020000000000017150000000017150002000000010410404180541498325736685900418474131255107   1030000500030000   555610110570104519000009164City Mart China Town P int Cen       MMR11004180541498325730418000000000000000   10300001 00104100000000001029000000000000     
100   95050314064416890000000000000980000000000980002000000010410404181054592459371235710418000007013603   1020000200030000   333400010001204104000000281Myanmar Soft-Gate Tech Yangon        MMR11004181054592459370418000000000000000   10300001F05104100000000000206000000000000     
100   95050312498129060000000000000980000000000980002000000010410404181353042304530930980418000007014412   1020000200030000   333400010001204104000000281Myanmar Soft-Gate Tech Yangon        MMR11004181353042304530418000000000000000   10300001F05104100000000000206000000000000     
100   95050327416134790000000000002940000000002940002000000010410404181204183418546775050418000007013962   1020000200030000   333400010001204104000000281Myanmar Soft-Gate Tech Yangon        MMR11004181204183418540418000000000000000   10300001F05104100000000000617000000000000     
100   95050316717221100000000000000980000000000980002000000010410404180720335033495861930418000007012265   1020000200030000   333400010001204104000000281Myanmar Soft-Gate Tech Yangon        MMR11004180720335033490418000000000000000   10300001F05104100000000000206000000000000     
100   95050312962334280000000000008800000000008800002000000010410404180921408355128280280418136581529107   1030000500030000   555610110558104519000009163City Mart Ayeyarwon Br nch           MMR11004180921408355120418000000000000000   10300001 00104100000000002200000000000000     
100   62443100333488440000000000103401000000103401002000000010410404180918390077943497070418000745748343   1030000200030000   541188001002000008000000008KBZ BANK               MARKETPLACE - MMR11004180918390077940418000000000000000   10300001 00104100000000025851000000000000     
100   95030300564141540000000000050000000000050000002000000010410404180234460446886685900418000007010070   1030000200030000   333800010001203104000003327KBZPay                 Yangon        MMR11004180234460446880418000000000000000   10300001F05104100000000010500000000000000     
100   62443100361813580000000000050000000000050000002000000010410404172331080108360589990418000007009575   1030000200030000   333800010001203104000003327KBZPay                 Yangon        MMR11004172331080108360418000000000000000   10300001F05104100000000010500000000000000     
100   95050312695033440000000000000980000000000980002000000010410404181047381738374370490418000007013567   1020000200030000   333400010001204104000000281Myanmar Soft-Gate Tech Yangon        MMR11004181047381738370418000000000000000   10300001F05104100000000000206000000000000     
100   95050319502933380000000000000980000000000980002000000010410404181045481548862207430418000007013551   1020000200030000   333400010001204104000000281Myanmar Soft-Gate Tech Yangon        MMR11004181045481548860418000000000000000   10300001F05104100000000000206000000000000     
100   95050315701710960000000000070000000000070000002000000010410404180134510451850740010418000007009769   1030000200030000   333800010001203104000003327KBZPay                 Yangon        MMR11004180134510451850418000000000000000   10300001F05104100000000014700000000000000     
100   95050314996291580000000000000980000000000980002000000010410404181435080508749278500418000007014594   1020000200030000   333400010001204104000000281Myanmar Soft-Gate Tech Yangon        MMR11004181435080508740418000000000000000   10300001F05104100000000000206000000000000     
100   95050313968650950000000000000980000000000980002000000010410404180947071707978647170418000007013215   1020000200030000   333400010001204104000000281Myanmar Soft-Gate Tech Yangon        MMR11004180947071707970418000000000000000   10300001F05104100000000000206000000000000     
100   62911028202464100000000000006400000000006400002000000010410404180836598349006685900418340101509107   1030000500030000   555610110570104519000009164City Mart China Town P int Cen       MMR11004180836598349000418000000000000000   10300001 00104100000000000384000000000000     
100   95050319703729630000000000060000000000060000002000000010410404180229055905862574800418000007010029   1030000200030000   333800010001203104000003327KBZPay                 Yangon        MMR11004180229055905860418000000000000000   10300001F05104100000000012600000000000000     
100   62911028202523350000000000041500000000041500002000000010410404180532178324426685900418343021222107   1030000300030000   888810125459104519000021286Shwe Taung Energy CoLt               MMR11004180532178324420418000000000000000   10300001 00104100000000001245000000000000     
100   62911028202464100000000000018550000000018550002000000010410404180837218348606685900418290071517107   1030000500030000   555610110576104519000009164City Mart China Town P int Cen       MMR11004180837218348600418000000000000000   10300001 00104100000000001113000000000000     
100   95050316438375580000000000270000000000270000002000000010410404180552322232346394370418000007011599   1030000200030000   333800010001203104000003327KBZPay                 Yangon        MMR11004180552322232340418000000000000000   10300001F05104100000000056700000000000000     
100   95030367537085740000000000000980000000000980002000000010410404180701593159866685900418000007012085   1020000200030000   333400010001204104000000281Myanmar Soft-Gate Tech Yangon        MMR11004180701593159860418000000000000000   10300001F05104100000000000206000000000000     
100   95050316818236190000000000000980000000000980002000000010410404180415394539148974840418000007010863   1020000200030000   333400010001204104000000281Myanmar Soft-Gate Tech Yangon        MMR11004180415394539140418000000000000000   10300001F05104100000000000206000000000000     
100   62911028202169750000000000036588000000036588002000000010410404180448448319856685900418859261136107   1030000500030000   555610103477104519000003432City Mart Junction Zaw na 4          MMR11004180448448319850418000000000000000   10300001 00104100000000002195000000000000     
100   95030300564141540000000000030000000000030000002000000010410404180232240224996685900418000007010053   1030000200030000   333800010001203104000003327KBZPay                 Yangon        MMR11004180232240224990418000000000000000   10300001F05104100000000006300000000000000     
100   95050317942168830000000000005000000000005000002000000010410404180936000600610214560418000007013168   1030000200030000   333800010001203104000003327KBZPay                 Yangon        MMR11004180936000600610418000000000000000   10300001F05104100000000001050000000000000     
100   62911028202077010000000000000980000000000980002000000010410404181538530853136685900418000007014832   1020000200030000   333400010001204104000000281Myanmar Soft-Gate Tech Yangon        MMR11004181538530853130418000000000000000   10300001F05104100000000000206000000000000     
100   95030301100128610000000000050000000000050000002000000010410404180138560856376685900418000007009785   1030000200030000   333800010001203104000003327KBZPay                 Yangon        MMR11004180138560856370418000000000000000   10300001F05104100000000010500000000000000     
100   62443100315110470000000000005000000000005000002000000010410404180840581058982436210418000007012814   1030000900030000   333400010001202104000002022ACS                    Yangon        MMR11004180840581058980418000000000000000   10300001F05104100000000001050000000000000     
100   62911028202103410000000000064560000000064560002000000010410404181317040299276685900418000745762497   1030000200030000   541188001039000008000000010KBZ BANK               MARKETPLACE - MMR11004181317040299270418000000000000000   10300001 00104100000000003874000000000000     
100   95030367537085740000000000000980000000000980002000000010410404181235170517676685900418000007014075   1020000200030000   333400010001204104000000281Myanmar Soft-Gate Tech Yangon        MMR11004181235170517670418000000000000000   10300001F05104100000000000206000000000000     
100   95050311559234320000000000010500000000010500002000000010410404180345181518126421950418000007010604   1030000200030000   3333000100012031040000040282C2P (Myanmar) Co. Ltd Yangon        MMR11004180345181518120418000000000000000   10300001F05104100000000010000000000000000     
100   62911028202150190000000000020000000000020000002000000010410404170750490030936685900417210714003093   1030000500030000   598320001304000015172200013MAX ENERGY             PTN           MMR11004170750490030930417000000000000000   10300001 00104100000000000600000000000000     
100   95050328074436620000000000051000000000051000002000000010410404170248200019496586020417210709001949   1030000500030000   598320001204000015172200012MAX ENERGY             PTN           MMR11004170248200019490417000000000000000   10300001 00104100000000006120000000000000     
100   95050317100052460000000000005880000000005880002000000010410404180550282028102032600418000007011586   1020000200030000   333400010001204104000000281Myanmar Soft-Gate Tech Yangon        MMR11004180550282028100418000000000000000   10300001F05104100000000001235000000000000     
100   62911028202674810000000000003900000000003900002000000010410404180342038311616685900418978171043107   1030000500030000   555610110599104519000009166City Mart 47 Branch                  MMR11004180342038311610418000000000000000   10300001 00104100000000000234000000000000     
100   62911028202296630000000000013350000000013350002000000010410404181103002209716685900418210818220971   1040001600030000   591220000261000000010000249Shwe Ohh Pharmacy (Thi Yangon        MMR11004181103002209710418000000000000000   10300001F00104100000000000801000000000000     
100   95050325630928770000000000000980000000000980002000000010410404180507183718630179980418000007011288   1020000200030000   333400010001204104000000281Myanmar Soft-Gate Tech Yangon        MMR11004180507183718630418000000000000000   10300001F05104100000000000206000000000000     
100   95050323233042810000000000000980000000000980002000000010410404180405013501407747840418000007010760   1020000200030000   333400010001204104000000281Myanmar Soft-Gate Tech Yangon        MMR11004180405013501400418000000000000000   10300001F05104100000000000206000000000000     
100   62911028202807400000000000150000000000150000002000000010410404181141138376846685900418813121810107   1030000300030000   555510124689104519000020166Makro Myanmar                        MMR11004181141138376840418000000000000000   10300001 00104100000000009000000000000000     
100   95050315557781210000000000010000000000010000002000000010410404181442591259159363590418000007014627   1040001600030000   333800010001220104000004507A +                    Yangon        MMR11004181442591259150418000000000000000   10300001F05104100000000002100000000000000     
100   95050319161596230000000000000980000000000980002000000010410404181146561656523143490418000007013887   1020000200030000   333400010001204104000000281Myanmar Soft-Gate Tech Yangon        MMR11004181146561656520418000000000000000   10300001F05104100000000000206000000000000     
100   62911028202482830000000000017600000000017600002000000010410404181110580223646685900418000745754089   1030000200030000   541188001059000008000000314KBZ BANK               MARKETPLACE - MMR11004181110580223640418000000000000000   10300001 00104100000000001056000000000000     
100   95050314950595330000000000001000000000001000002000000010410404180635480548440344460418000007011920   1030000200030000   3338000100012031040000040022C2P (Myanmar) Co. Ltd Yangon        MMR11004180635480548440418000000000000000   10300001F05104100000000000210000000000000     
100   95050312911050270000000000017000000000017000002000000010410404180247111711440518680418000007010142   1030000200030000   3338000100012031040000040022C2P (Myanmar) Co. Ltd Yangon        MMR11004180247111711440418000000000000000   10300001F05104100000000003570000000000000     
100   95050316321163940000000000003050000000003050002000000010410404181143031303194795970418000007013862   1030000200030000   333800010001203104000003327KBZPay                 Yangon        MMR11004181143031303190418000000000000000   10300001F05104100000000000641000000000000     
100   95050315099113150000000000002940000000002940002000000010410404180347531753955109860418000007010623   1020000200030000   333400010001204104000000281Myanmar Soft-Gate Tech Yangon        MMR11004180347531753950418000000000000000   10300001F05104100000000000617000000000000     
100   95050312498129060000000000000980000000000980002000000010410404180939300930828562070418000007013188   1020000200030000   333400010001204104000000281Myanmar Soft-Gate Tech Yangon        MMR11004180939300930820418000000000000000   10300001F05104100000000000206000000000000     
100   62911028202303640000000000011650000000011650002000000010410404180110578301086685900418897480719107   1030000500030000   555610120980104519000017743City Express MCS 80                  MMR11004180110578301080418000000000000000   10300001 00104100000000000699000000000000     
100   95030367537085740000000000000980000000000980002000000010410404181349191919086685900418000007014397   1020000200030000   333400010001204104000000281Myanmar Soft-Gate Tech Yangon        MMR11004181349191919080418000000000000000   10300001F05104100000000000206000000000000     
100   95050321057500320000000000004900000000004900002000000010410404180927265726606627800418000007013110   1020000200030000   333400010001204104000000281Myanmar Soft-Gate Tech Yangon        MMR11004180927265726600418000000000000000   10300001F05104100000000001029000000000000     
100   62911028202264530000000000004500000000004500002000000010410404181023320195486685900418000745751241   1030000200030000   541188001017000008000000008KBZ BANK               MARKETPLACE - MMR11004181023320195480418000000000000000   10300001 00104100000000000270000000000000     
100   62911028202318750000000000008400000000008400002000000010410404180817412075176685900418833471441107   1030000900030000   541119001513190110000001102Ocean MGDTM C-6        YANGONADON    MMR11004180817412075170418000000000000000   10300001F00104100000000000504000000000000     
100   62911028202527490000000000045800000000045800002000000010410404181010212102066685900418293401621107   1030000900030000   541119000158190110000000084Pro (1) Global (Pazund YANGONARTAUNG MMR11004181010212102060418000000000000000   10300001F00104100000000002748000000000000     
100   95050327192897240000000000004900000000004900002000000010410404180420555055673251530418000007010925   1020000200030000   333400010001204104000000281Myanmar Soft-Gate Tech Yangon        MMR11004180420555055670418000000000000000   10300001F05104100000000001029000000000000     
100   95050328212196190000000000022752000000022752002000000010410404180549592037664656790418721191259107   1030000900030000   541119001282190110000000963City Mart SPL C 7      YANGONMYOTHIT MMR11004180549592037660418000000000000000   10300001F00104100000000005688000000000000     
100   95050316818236190000000000000980000000000980002000000010410404180535510551602208500418000007011499   1020000200030000   333400010001204104000000281Myanmar Soft-Gate Tech Yangon        MMR11004180535510551600418000000000000000   10300001F05104100000000000206000000000000     
100   95030301100351360000000000039000000000039000002000000010410404181335220522916685900418000007014345   1030000200030000   333800010001203104000003327KBZPay                 Yangon        MMR11004181335220522910418000000000000000   10300001F05104100000000008190000000000000     
100   95030314863516850000000000010000000000010000002000000010410404180735230523716685900418000007012366   1030000200030000   333800010001203104000003327KBZPay                 Yangon        MMR11004180735230523710418000000000000000   10300001F05104100000000002100000000000000     
100   95050319938772870000000000000980000000000980002000000010410404181438440844577626010418000007014611   1020000200030000   333400010001204104000000281Myanmar Soft-Gate Tech Yangon        MMR11004181438440844570418000000000000000   10300001F05104100000000000206000000000000     
100   62911028202460550000000000009125000000009125002000000010410404181302240178576685900418000745761664   1030000200030000   541188001080000008000000294KBZ BANK               CITY MART - J MMR11004181302240178570418000000000000000   10300001 00104100000000000548000000000000     
100   95030301100122420000000000050000000000050000002000000010410404180738070807766685900418000007012397   1030000200030000   333800010001203104000003327KBZPay                 Yangon        MMR11004180738070807760418000000000000000   10300001F05104100000000010500000000000000     
100   95030367537085740000000000000980000000000980002000000010410404181341501150336685900418000007014368   1020000200030000   333400010001204104000000281Myanmar Soft-Gate Tech Yangon        MMR11004181341501150330418000000000000000   10300001F05104100000000000206000000000000     
100   62911028202592980000000000055680000000055680002000000010410404181211440184606685900418000745758376   1030000200030000   541188001075000008000000294KBZ BANK               CITY MART - J MMR11004181211440184600418000000000000000   10300001 00104100000000003341000000000000     
100   95050318400277060000000000040000000000040000002000000010410404181119134913303313680418000007013741   1030000200030000   333800010001203104000003327KBZPay                 Yangon        MMR11004181119134913300418000000000000000   10300001F05104100000000008400000000000000     
