100   95050314248677090000000000025000000000025000002000000010410404160305110037957393010416000340458267   1030000300030000   806200000192000000000000097CB BANK                AUNG YADANA H MMR11004160305110037950416000000000000000   10300001F00104100000000006000000000000000     
100   62443100358839880000000000018350000000018350002000000010410404171510108281052717380417581472126106   1030000300030000   555510125743104519000021556G AND G Convenience St re G034       MMR11004171510108281050417000000000000000   10300001 00104100000000004404000000000000     
100   95050321057500320000000000009000000000009000002000000010410404171146318271223655140417909181828106   1030000500030000   555610120974104519000017737City Express MCS 28                  MMR11004171146318271220417000000000000000   10300001 00104100000000002250000000000000     
100   95050315158357300000000000002940000000002940002000000010410404171125405540555392730417000007008372   1020000200030000   333400010001204104000000281Myanmar Soft-Gate Tech Yangon        MMR11004171125405540550417000000000000000   10300001F05104100000000000617000000000000     
100   95050312675873230000000000009000000000009000002000000010410404170644461446773789680417000007007672   1030000200030000   333800010001203104000003327KBZPay                 Yangon        MMR11004170644461446770417000000000000000   10300001F05104100000000001890000000000000     
100   95050316321163940000000000000980000000000980002000000010410404171614234423989242250417000007009310   1020000200030000   333400010001204104000000281Myanmar Soft-Gate Tech Yangon        MMR11004171614234423980417000000000000000   10300001F05104100000000000206000000000000     
100   62911028202206880000000000005342000000005342002000000010410404170906208256626685900417332361553106   1030000500030000   555610112231104519000010487Ocean Super Center St  ohn           MMR11004170906208256620417000000000000000   10300001 00104100000000000321000000000000     
100   62911028202693960000000000199000000000199000002000000010410404170800468249916685900417682311416106   1030000300030000   555510122857104519000019146Der Celebrity                        MMR11004170800468249910417000000000000000   10300001 00104100000000011940000000000000     
100   62911028202451150000000000007000000000007000002000000010410404171016538264626685900417138471601106   1030000500030000   555610122586104519000018896City Mart Hlaing Thar  ar            MMR11004171016538264620417000000000000000   10300001 00104100000000000420000000000000     
100   95050310685238570000000000001000000000001000002000000010410404161630460046491494140416000007006362   1030000200030000   3334000100012031040000040102C2P (Myanmar) Co. Ltd Yangon        MMR11004161630460046490416000000000000000   10300001F05104100000000000210000000000000     
100   62443100318296470000000000013700000000013700002000000010410404171046200008630769520417000745723222   1030000200030000   541188001021000008000000298KBZ BANK               CITY MART - M MMR11004171046200008630417000000000000000   10300001 00104100000000003425000000000000     
100   95050313411345710000000000005000000000005000002000000010410404170630090009245016690417000007007619   1030000200030000   333800010001203104000003327KBZPay                 Yangon        MMR11004170630090009240417000000000000000   10300001F05104100000000001050000000000000     
100   62443100395964530000000000028410000000028410002000000010410404171427590048411371330417000745729272   1030000200030000   541188001338000008000000327KBZ BANK               CITY MART - S MMR11004171427590048410417000000000000000   10300001 00104100000000007103000000000000     
100   95050316421999920000000000002940000000002940002000000010410404170231090109292614080417000007006882   1020000200030000   333400010001204104000000281Myanmar Soft-Gate Tech Yangon        MMR11004170231090109290417000000000000000   10300001F05104100000000000617000000000000     
100   62911028202676220000000000059400000000059400002000000010410404170958050022966685900417000745732658   1030000200030000   591288000838000008000004646KBZ BANK               PINLON PHARMA MMR11004170958050022960417000000000000000   10300001 00104100000000003564000000000000     
100   95050322823372070000000000073284000000073284002000000010410404171337560008862052100417000745727946   1030000200030000   541188001021000008000000298KBZ BANK               CITY MART - M MMR11004171337560008860417000000000000000   10300001 00104100000000018321000000000000     
100   62443100334378030000000000259560000000259560002000000010410404170311290026209918600417210709002620   1030000400030000   701120200882000003120200088AUREUM PALACE HOTEL (B MANDALAY      MMR11004170311290026200417000000000000000   10300001 00104100000000110313000000000000     
100   62911028202169750000000000017600000000017600002000000010410404160149240003856685900416210608000385   1030000500030000   591220012001014405912200120SHWE OHH PHARMACY      PTN           MMR11004160149240003850416000000000000000   10300001 00104100000000001056000000000000     
100   62911028202221220000000000010000000000010000002000000010410404160244200021236685900416210609002123   1030000500030000   598320001603000015172200016MAX ENERGY             PTN           MMR11004160244200021230416000000000000000   10300001 00104100000000000300000000000000     
100   95050329252108030000000000101100000000101100002000000010410404160731570029673986790416210614002967   1030000500030000   598320001303000015172200013MAX ENERGY             PTN           MMR11004160731570029670416000000000000000   10300001 00104100000000012132000000000000     
100   62911028202421380000000000099000000000099000002000000010410404160538480008236685900416210612000823   1030000500030000   598320001903000015172200019MAX ENERGY             PTN           MMR11004160538480008230416000000000000000   10300001 00104100000000002970000000000000     
100   95050324154190880000000000027000000000027000002000000010410404160318460028089591710416210609002808   1030000500030000   598320001302000015172200013MAX ENERGY             PTN           MMR11004160318460028080416000000000000000   10300001 00104100000000003240000000000000     
100   62911028202116120000000000017000000000017000002000000010410404161407350022896685900416000745703880   1030000200030000   541188001525000008000000403KBZ BANK               OCEAN SUPERCE MMR11004161407350022890416000000000000000   10300001 00104100000000001020000000000000     
100   95050324826664210000000000043000000000043000002000000010410404160108590036243846530416210607003624   1030000500030000   598320001402000015172200014MAX ENERGY             PTN           MMR11004160108590036240416000000000000000   10300001 00104100000000005160000000000000     
100   95050316901496590000000000005700000000005700002000000010410404160540340001589769300416210612000158   1030000500030000   541120045801009205411200458126 STORE              PTN           MMR11004160540340001580416000000000000000   10300001 00104100000000001425000000000000     
100   62911028202383670000000000118354000000118354002000000010410404171419250123206685900417000745729021   1030000200030000   541188001349000008000000395KBZ BANK               OCEAN SUPERMA MMR11004171419250123200417000000000000000   10300001 00104100000000007101000000000000     
100   62443100399918110000000000031150000000031150002000000010410404170343250028786514700417000745722355   1030000200030000   581288000098000008000003562KBZ BANK               CANTON PARADI MMR11004170343250028780417000000000000000   10300001 00104100000000013239000000000000     
100   62911028202400660000000000015700000000015700002000000010410404171608340072626685900417000745732032   1030000200030000   541188001052000008000000010KBZ BANK               MARKETPLACE - MMR11004171608340072620417000000000000000   10300001 00104100000000000942000000000000     
100   62911028202676220000000000058950000000058950002000000010410404170749350029546685900417000745729026   1030000200030000   591288000018000008000002044KBZ BANK               PINLON PHARMA MMR11004170749350029540417000000000000000   10300001 00104100000000003537000000000000     
100   95050310902464360000000000015000000000015000002000000010410404170334420442763819190417000007007063   1030000200030000   3338000100012031040000040022C2P (Myanmar) Co. Ltd Yangon        MMR11004170334420442760417000000000000000   10300001F05104100000000003150000000000000     
100   95050314567755980000000000000980000000000980002000000010410404170336460646687294360417000007007072   1020000200030000   333400010001204104000000281Myanmar Soft-Gate Tech Yangon        MMR11004170336460646680417000000000000000   10300001F05104100000000000206000000000000     
100   62911028202296630000000000030000000000030000002000000010410404170213031849316685900417793430803106   1030000900030000   554119000348190110000000215New Day Energy MYG     YANGONONE     MMR11004170213031849310417000000000000000   10300001F00104100000000000900000000000000     
100   95050314302558730000000000002940000000002940002000000010410404171449221922751937770417000007009029   1020000200030000   333400010001204104000000281Myanmar Soft-Gate Tech Yangon        MMR11004171449221922750417000000000000000   10300001F05104100000000000617000000000000     
100   62443100372718280000000000053350000000053350002000000010410404161239080011778285580416210619001177   1030000500030000   581220146401013205812201464THAI 47 (HELPIN BRANCH PTN           MMR11004161239080011770416000000000000000   10300001 00104100000000022674000000000000     
100   95030361482647470000000000029891000000029891002000000010410404161651540194336685900416000745707865   1030000200030000   541188001037000008000000010KBZ BANK               MARKETPLACE - MMR11004161651540194330416000000000000000   10300001 00104100000000001794000000000000     
100   62911028202108460000000000060000000000060000002000000010410404160440050008556685900416210611000855   1030000500030000   598320001103000015172200011MAX ENERGY             PTN           MMR11004160440050008550416000000000000000   10300001 00104100000000001800000000000000     
100   62911028202610960000000000060000000000060000002000000010410404160537070018316685900416210612001831   1030000500030000   598320002702000015172200027MAX ENERGY             PTN           MMR11004160537070018310416000000000000000   10300001 00104100000000001800000000000000     
100   62911028202264530000000000037620000000037620002000000010410404160642160008266685900416210613000826   1030000500030000   581220045401000015812200454FEEL MYANMAR II RESTAU PTN           MMR11004160642160008260416000000000000000   10300001 00104100000000003837000000000000     
100   95050326689257240000000000014000000000014000002000000010410404161137260001207363300416000340516552   1030000300030000   541100000959000000000000683CB BANK                ONE STOP KITC MMR11004161137260001200416000000000000000   10300001F00104100000000003500000000000000     
100   62911028202446540000000000040000000000040000002000000010410404160036320020736685900416210607002073   1030000500030000   598320001203000015172200012MAX ENERGY             PTN           MMR11004160036320020730416000000000000000   10300001 00104100000000001200000000000000     
100   62911028202487540000000000002100000000002100002000000010410404161207500013816685900416210618001381   1030000500030000   541120020801022205411200208ORANGE (TAMWE)         PTN           MMR11004161207500013810416000000000000000   10300001 00104100000000000126000000000000     
100   95050314567080940000000000000980000000000980002000000010410404170354092409364316000417000007007131   1020000200030000   333400010001204104000000281Myanmar Soft-Gate Tech Yangon        MMR11004170354092409360417000000000000000   10300001F05104100000000000206000000000000     
100   95050311959900780000000000001960000000001960002000000010410404171254112411027215400417000007008620   1020000200030000   333400010001204104000000281Myanmar Soft-Gate Tech Yangon        MMR11004171254112411020417000000000000000   10300001F05104100000000000412000000000000     
100   95050319528093960000000000001960000000001960002000000010410404171339330933862788730417000007008772   1020000200030000   333400010001204104000000281Myanmar Soft-Gate Tech Yangon        MMR11004171339330933860417000000000000000   10300001F05104100000000000412000000000000     
100   95050311121153200000000000001960000000001960002000000010410404170544361436015875310417000007007526   1020000200030000   333400010001204104000000281Myanmar Soft-Gate Tech Yangon        MMR11004170544361436010417000000000000000   10300001F05104100000000000412000000000000     
100   62911028202154800000000000050000000000050000002000000010410404171104331569356685900417210718156935   1040001600030000   598320000660000000010000529Shwe Taung Energy (NPT Naypyitaw     MMR11004171104331569350417000000000000000   10300001F00104100000000001500000000000000     
100   95050325925517520000000000021660000000021660002000000010410404170648321883275442170417036181332106   1030000900030000   581219000351190110000000218Min Lan Restaurant (Th YANGONA       MMR11004170648321883270417000000000000000   10300001F00104100000000009206000000000000     
100   62911028202489110000000000093400000000093400002000000010410404170240178219216685900417763100908106   1030000300030000   555510124694104519000020166Makro Myanmar                        MMR11004170240178219210417000000000000000   10300001 00104100000000005604000000000000     
100   62443100333488440000000000000900000000000900002000000010410404170443308231218428200417901241159106   1030000500030000   555610118973104519000016137City Mart South Okkala WZYD BR       MMR11004170443308231210417000000000000000   10300001 00104100000000000225000000000000     
100   95050314064416890000000000001960000000001960002000000010410404170629395939743364200417000007007617   1020000200030000   333400010001204104000000281Myanmar Soft-Gate Tech Yangon        MMR11004170629395939740417000000000000000   10300001F05104100000000000412000000000000     
100   95050312360118350000000000001000000000001000002000000010410404170337090709296868900417000007007073   1030000200030000   3334000100012031040000040102C2P (Myanmar) Co. Ltd Yangon        MMR11004170337090709290417000000000000000   10300001F05104100000000000210000000000000     
100   95050312695033440000000000000980000000000980002000000010410404170142001200343961810417000007006768   1020000200030000   333400010001204104000000281Myanmar Soft-Gate Tech Yangon        MMR11004170142001200340417000000000000000   10300001F05104100000000000206000000000000     
100   95030301100344930000000000080000000000080000002000000010410404170746131449796685900417210714144979   1040001600030000   541120000573000000010000465Ocean Shwe Gone Daing  Yangon        MMR11004170746131449790417000000000000000   10300001F00104100000000004800000000000000     
100   62443100335647210000000000010000000000010000002000000010410404171447411741684987430417000007009027   1030000200030000   3334000100012031040000040102C2P (Myanmar) Co. Ltd Yangon        MMR11004171447411741680417000000000000000   10300001F05104100000000002100000000000000     
100   62911028202249380000000000000980000000000980002000000010410404170246111611736685900417000007006920   1020000200030000   333400010001204104000000281Myanmar Soft-Gate Tech Yangon        MMR11004170246111611730417000000000000000   10300001F05104100000000000206000000000000     
100   95050314567755980000000000000920000000000920002000000010410404170817464746267896170417000007007911   1030000200030000   333800010001203104000003327KBZPay                 Yangon        MMR11004170817464746260417000000000000000   10300001F05104100000000000193000000000000     
100   95050316124652250000000000009800000000009800002000000010410404171216434643000350180417000007008506   1020000200030000   333400010001204104000000281Myanmar Soft-Gate Tech Yangon        MMR11004171216434643000417000000000000000   10300001F05104100000000002058000000000000     
100   95050319928585020000000000001960000000001960002000000010410404170725335533388662040417000007007799   1020000200030000   333400010001204104000000281Myanmar Soft-Gate Tech Yangon        MMR11004170725335533380417000000000000000   10300001F05104100000000000412000000000000     
100   62911028202199530000000000035550000000035550002000000010410404170727591888196685900417208571359106   1030000900030000   541119001208190110000000948City Mart YK C 6       YANGONAUNG    MMR11004170727591888190417000000000000000   10300001F00104100000000002133000000000000     
100   95050326393773020000000000002940000000002940002000000010410404170403583358034173380417000007007168   1020000200030000   333400010001204104000000281Myanmar Soft-Gate Tech Yangon        MMR11004170403583358030417000000000000000   10300001F05104100000000000617000000000000     
100   95050311382087030000000000001960000000001960002000000010410404171115464546547130300417000007008347   1020000200030000   333400010001204104000000281Myanmar Soft-Gate Tech Yangon        MMR11004171115464546540417000000000000000   10300001F05104100000000000412000000000000     
100   95050316818236190000000000000980000000000980002000000010410404170328555855962968220417000007007033   1020000200030000   333400010001204104000000281Myanmar Soft-Gate Tech Yangon        MMR11004170328555855960417000000000000000   10300001F05104100000000000206000000000000     
100   62911028202461620000000000006550000000006550002000000010410404170345028224756685900417296211034106   1030000500030000   555610110570104519000009164City Mart China Town P int Cen       MMR11004170345028224750417000000000000000   10300001 00104100000000000393000000000000     
100   62443100359121590000000000004900000000004900002000000010410404170444101410575946580417000007007302   1020000200030000   333400010001204104000000281Myanmar Soft-Gate Tech Yangon        MMR11004170444101410570417000000000000000   10300001F05104100000000001029000000000000     
100   62911028202243420000000000013454000000013454002000000010410404170833421896396685900417510031542106   1030000900030000   541119001263190110000000958City Mart PLST C 6     YANGONMYOTHIT MMR11004170833421896390417000000000000000   10300001F00104100000000000807000000000000     
100   95050329213164970000000000002940000000002940002000000010410404170256182618765166970417000007006943   1020000200030000   333400010001204104000000281Myanmar Soft-Gate Tech Yangon        MMR11004170256182618760417000000000000000   10300001F05104100000000000617000000000000     
100   95050325455962190000000000001960000000001960002000000010410404170404453445361549180417000007007169   1020000200030000   333400010001204104000000281Myanmar Soft-Gate Tech Yangon        MMR11004170404453445360417000000000000000   10300001F05104100000000000412000000000000     
100   95050314996291580000000000000980000000000980002000000010410404170702513251775357070417000007007716   1020000200030000   333400010001204104000000281Myanmar Soft-Gate Tech Yangon        MMR11004170702513251770417000000000000000   10300001F05104100000000000206000000000000     
100   95050312298324450000000000000980000000000980002000000010410404170616494649553449290417000007007590   1020000200030000   333400010001204104000000281Myanmar Soft-Gate Tech Yangon        MMR11004170616494649550417000000000000000   10300001F05104100000000000206000000000000     
100   62911028202539860000000000118597000000118597002000000010410404171132520303026685900417000745724447   1030000200030000   541188001041000008000000010KBZ BANK               MARKETPLACE - MMR11004171132520303020417000000000000000   10300001 00104100000000007116000000000000     
100   95050312675525330000000000025000000000025000002000000010410404170733100310545271970417000007007819   1030000200030000   333800010001203104000003327KBZPay                 Yangon        MMR11004170733100310540417000000000000000   10300001F05104100000000005250000000000000     
100   62443100391804560000000000002940000000002940002000000010410404170252252225776160560417000007006928   1020000200030000   333400010001204104000000281Myanmar Soft-Gate Tech Yangon        MMR11004170252252225770417000000000000000   10300001F05104100000000000617000000000000     
100   95050311382087030000000000002940000000002940002000000010410404171217544754687385600417000007008510   1020000200030000   333400010001204104000000281Myanmar Soft-Gate Tech Yangon        MMR11004171217544754680417000000000000000   10300001F05104100000000000617000000000000     
100   62911028202676220000000000005050000000005050002000000010410404171512214221176685900417000007009136   1030000200030000   333800010001203104000003327KBZPay                 Yangon        MMR11004171512214221170417000000000000000   10300001F05104100000000001061000000000000     
100   95050320531117320000000000069250000000069250002000000010410404170446298230494527530417840181123106   1030000500030000   555610122350104519000018696CityMartSupermarket Sh ePyiTha       MMR11004170446298230490417000000000000000   10300001 00104100000000017313000000000000     
100   95050318057347910000000000001960000000001960002000000010410404171340591059273214190417000007008775   1020000200030000   333400010001204104000000281Myanmar Soft-Gate Tech Yangon        MMR11004171340591059270417000000000000000   10300001F05104100000000000412000000000000     
100   95050323233042810000000000001960000000001960002000000010410404170945281528904250820417000007008146   1020000200030000   333400010001204104000000281Myanmar Soft-Gate Tech Yangon        MMR11004170945281528900417000000000000000   10300001F05104100000000000412000000000000     
100   95050311959900780000000000001960000000001960002000000010410404170851142114218321650417000007008002   1020000200030000   333400010001204104000000281Myanmar Soft-Gate Tech Yangon        MMR11004170851142114210417000000000000000   10300001F05104100000000000412000000000000     
100   62911028202684060000000000017900000000017900002000000010410404170424008227886685900417575531049106   1030000500030000   555610104032104519000003821City Mart North Point  enter         MMR11004170424008227880417000000000000000   10300001 00104100000000001074000000000000     
100   95050328275983620000000000004900000000004900002000000010410404171005043504107470690417000007008198   1020000200030000   333400010001204104000000281Myanmar Soft-Gate Tech Yangon        MMR11004171005043504100417000000000000000   10300001F05104100000000001029000000000000     
100   95030301100351360000000000020000000000020000002000000010410404170517044704216685900417000007007429   1030000500030000   333800010001201104000003863AYA Pay                Yangon        MMR11004170517044704210417000000000000000   10300001F05104100000000004200000000000000     
100   62443101006037900000000000020900000000020900002000000010410404170609361395626754260417210713139562   1040001600030000   581420000238000000010000226My Hill Coffeehouse    Yangon        MMR11004170609361395620417000000000000000   10300001F00104100000000002508000000000000     
100   95050319528093960000000000000980000000000980002000000010410404171000283028400775650417000007008187   1020000200030000   333400010001204104000000281Myanmar Soft-Gate Tech Yangon        MMR11004171000283028400417000000000000000   10300001F05104100000000000206000000000000     
100   95050312498129060000000000006860000000006860002000000010410404171253472347625562920417000007008625   1020000200030000   333400010001204104000000281Myanmar Soft-Gate Tech Yangon        MMR11004171253472347620417000000000000000   10300001F05104100000000001441000000000000     
100   95050311382087030000000000000980000000000980002000000010410404171101523152163825340417000007008316   1020000200030000   333400010001204104000000281Myanmar Soft-Gate Tech Yangon        MMR11004171101523152160417000000000000000   10300001F05104100000000000206000000000000     
100   95050312675525330000000000010000000000010000002000000010410404171305153515832257950417000007008675   1030000200030000   333800010001203104000003327KBZPay                 Yangon        MMR11004171305153515830417000000000000000   10300001F05104100000000002100000000000000     
100   62443101037081820000000000040000000000040000002000000010410404171652200212419463560417000745733372   1030000200030000   541188001007000008000000008KBZ BANK               MARKETPLACE - MMR11004171652200212410417000000000000000   10300001 00104100000000010000000000000000     
100   95050314248677090000000000210000000000210000002000000010410404161636350635556245820417000007006380   1030000200030000   333800010001203104000003327KBZPay                 Yangon        MMR11004161636350635550417000000000000000   10300001F05104100000000044100000000000000     
100   95030301100344930000000000010300000000010300002000000010410404170816421465586685900417210715146558   1040001600030000   541120000557000000010000465Ocean Shwe Gone Daing  Yangon        MMR11004170816421465580417000000000000000   10300001F00104100000000000618000000000000     
100   95050324250133010000000000020000000000020000002000000010410404170714011433081967010417210714143308   1040001600030000   598320000911000000010000662MMTM - Tamwe           Ygn           MMR11004170714011433080417000000000000000   10300001F00104100000000002400000000000000     
100   62443100390038980000000000041855000000041855002000000010410404171311421671193910430417210720167119   1040001600030000   581420001058000000010000779Yangon Ambience Restau Ygn           MMR11004171311421671190417000000000000000   10300001F00104100000000005023000000000000     
100   62911028202366010000000000077750000000077750002000000010410404170415351863866685900417287451035106   1030000900030000   541119001327190110000000971Ocean Junction NPT C 5 NAYPYITAW     MMR11004170415351863860417000000000000000   10300001F00104100000000004665000000000000     
100   95050326945666250000000000009800000000009800002000000010410404170856492649728236560417000007008013   1020000200030000   333400010001204104000000281Myanmar Soft-Gate Tech Yangon        MMR11004170856492649720417000000000000000   10300001F05104100000000002058000000000000     
100   62443100384660050000000000090000000000090000002000000010410404170702391427313704580417210714142731   1040001600030000   598320000662000000010000531Shwe Taung Energy (MDY Mandalay      MMR11004170702391427310417000000000000000   10300001F00104100000000010800000000000000     
100   95050324947866880000000000019200000000019200002000000010410404170534231874041974640417700041223106   1030000900030000   541119001196190110000000942City Mart HDC C 11     YANGONUT      MMR11004170534231874040417000000000000000   10300001F00104100000000004800000000000000     
100   95050311959900780000000000001960000000001960002000000010410404170853132313966584070417000007008006   1020000200030000   333400010001204104000000281Myanmar Soft-Gate Tech Yangon        MMR11004170853132313960417000000000000000   10300001F05104100000000000412000000000000     
100   95050319331315630000000000005880000000005880002000000010410404171403303330389313570417000007008864   1020000200030000   333400010001204104000000281Myanmar Soft-Gate Tech Yangon        MMR11004171403303330380417000000000000000   10300001F05104100000000001235000000000000     
100   95050318617855880000000000000980000000000980002000000010410404170304243424049067600417000007006959   1020000200030000   333400010001204104000000281Myanmar Soft-Gate Tech Yangon        MMR11004170304243424040417000000000000000   10300001F05104100000000000206000000000000     
100   62911028202000450000000000004900000000004900002000000010410404170504283428356685900417000007007372   1020000200030000   333400010001204104000000281Myanmar Soft-Gate Tech Yangon        MMR11004170504283428350417000000000000000   10300001F05104100000000001029000000000000     
100   95030308100010080000000000000980000000000980002000000010410404170616124612376685900417000007007587   1020000200030000   333400010001204104000000281Myanmar Soft-Gate Tech Yangon        MMR11004170616124612370417000000000000000   10300001F05104100000000000206000000000000     
100   95050315122972560000000000000980000000000980002000000010410404170457222722381903370417000007007349   1020000200030000   333400010001204104000000281Myanmar Soft-Gate Tech Yangon        MMR11004170457222722380417000000000000000   10300001F05104100000000000206000000000000     
100   95050312695033440000000000000980000000000980002000000010410404171241281128230690560417000007008581   1020000200030000   333400010001204104000000281Myanmar Soft-Gate Tech Yangon        MMR11004171241281128230417000000000000000   10300001F05104100000000000206000000000000     
100   95050312498129060000000000005880000000005880002000000010410404171245001500370605470417000007008589   1020000200030000   333400010001204104000000281Myanmar Soft-Gate Tech Yangon        MMR11004171245001500370417000000000000000   10300001F05104100000000001235000000000000     
100   95050312498129060000000000000980000000000980002000000010410404171247251725765648010417000007008593   1020000200030000   333400010001204104000000281Myanmar Soft-Gate Tech Yangon        MMR11004171247251725760417000000000000000   10300001F05104100000000000206000000000000     
100   95050311926829590000000000000980000000000980002000000010410404170751492149783023810417000007007854   1020000200030000   333400010001204104000000281Myanmar Soft-Gate Tech Yangon        MMR11004170751492149780417000000000000000   10300001F05104100000000000206000000000000     
100   95050316377977350000000000003000000000003000002000000010410404171051582158144421010417000007008298   1030000200030000   3338000100012031040000040022C2P (Myanmar) Co. Ltd Yangon        MMR11004171051582158140417000000000000000   10300001F05104100000000000630000000000000     
100   95050325305150830000000000000980000000000980002000000010410404171250302030917300490417000007008606   1020000200030000   333400010001204104000000281Myanmar Soft-Gate Tech Yangon        MMR11004171250302030910417000000000000000   10300001F05104100000000000206000000000000     
100   62443100330108240000000000000980000000000980002000000010410404170116264626030912150417000007006712   1020000200030000   333400010001204104000000281Myanmar Soft-Gate Tech Yangon        MMR11004170116264626030417000000000000000   10300001F05104100000000000206000000000000     
100   62911028202440680000000000095000000000095000002000000010410404170216478218096685900417629460841106   1030000300030000   444410123324104519000019560Zealax Hotel FO                      MMR11004170216478218090417000000000000000   10300001 00104100000000009690000000000000     
100   95050318901726910000000000010000000000010000002000000010410404171234410441369038080417000007008564   1030000200030000   333800010001203104000003327KBZPay                 Yangon        MMR11004171234410441360417000000000000000   10300001F05104100000000002100000000000000     
100   62443101037081820000000000066440000000066440002000000010410404171314231673140164530417210720167314   1040001600030000   581420001058000000010000779Yangon Ambience Restau Ygn           MMR11004171314231673140417000000000000000   10300001F00104100000000007973000000000000     
100   95030307100064460000000000010100000000010100002000000010410404170934371904696685900417850041637106   1030000900030000   541119001207190110000000948City Mart YK C 5       YANGONAUNG    MMR11004170934371904690417000000000000000   10300001F00104100000000000606000000000000     
100   62911028202000450000000000004900000000004900002000000010410404170508343834716685900417000007007397   1020000200030000   333400010001204104000000281Myanmar Soft-Gate Tech Yangon        MMR11004170508343834710417000000000000000   10300001F05104100000000001029000000000000     
100   95050314160856250000000000000980000000000980002000000010410404170515024502098853700417000007007413   1020000200030000   333400010001204104000000281Myanmar Soft-Gate Tech Yangon        MMR11004170515024502090417000000000000000   10300001F05104100000000000206000000000000     
100   62443100333488440000000000023000000000023000002000000010410404170449338230708002700417858201132106   1030000500030000   555610118958104519000016137City Mart South Okkala WZYD BR       MMR11004170449338230700417000000000000000   10300001 00104100000000005750000000000000     
100   95050318741700180000000000001960000000001960002000000010410404171137510751692002660417000007008409   1020000200030000   333400010001204104000000281Myanmar Soft-Gate Tech Yangon        MMR11004171137510751690417000000000000000   10300001F05104100000000000412000000000000     
100   95050310616516480000000000003920000000003920002000000010410404170153142314447436980417000007006792   1020000200030000   333400010001204104000000281Myanmar Soft-Gate Tech Yangon        MMR11004170153142314440417000000000000000   10300001F05104100000000000823000000000000     
100   95030340548278620000000000050000000000050000002000000010410404161818274827206685900417000007006483   1030000200030000   333800010001203104000003327KBZPay                 Yangon        MMR11004161818274827200417000000000000000   10300001F05104100000000010500000000000000     
100   95050318617855880000000000002940000000002940002000000010410404171424135413718462600417000007008950   1020000200030000   333400010001204104000000281Myanmar Soft-Gate Tech Yangon        MMR11004171424135413710417000000000000000   10300001F05104100000000000617000000000000     
100   95050319938772870000000000002940000000002940002000000010410404171132330233262087760417000007008395   1020000200030000   333400010001204104000000281Myanmar Soft-Gate Tech Yangon        MMR11004171132330233260417000000000000000   10300001F05104100000000000617000000000000     
100   62443100379321630000000000047500000000047500002000000010410404170839418253921626620417071091531106   1030000500030000   555610112532104519000010487Ocean Super Center St  ohn           MMR11004170839418253920417000000000000000   10300001 00104100000000011875000000000000     
100   62443100300743690000000000030210000000030210002000000010410404170549581384987151780417210712138498   1040001600030000   541120000555000000010000465Ocean Shwe Gone Daing  Yangon        MMR11004170549581384980417000000000000000   10300001F00104100000000007553000000000000     
100   95050314567080940000000000000980000000000980002000000010410404170351412141583465000417000007007121   1020000200030000   333400010001204104000000281Myanmar Soft-Gate Tech Yangon        MMR11004170351412141580417000000000000000   10300001F05104100000000000206000000000000     
100   95050312298324450000000000000980000000000980002000000010410404170619104910525101780417000007007595   1020000200030000   333400010001204104000000281Myanmar Soft-Gate Tech Yangon        MMR11004170619104910520417000000000000000   10300001F05104100000000000206000000000000     
100   95050311382087030000000000006860000000006860002000000010410404170542301230645449810417000007007516   1020000200030000   333400010001204104000000281Myanmar Soft-Gate Tech Yangon        MMR11004170542301230640417000000000000000   10300001F05104100000000001441000000000000     
100   95050315474529910000000000000980000000000980002000000010410404171514574457892291920417000007009143   1020000200030000   333400010001204104000000281Myanmar Soft-Gate Tech Yangon        MMR11004171514574457890417000000000000000   10300001F05104100000000000206000000000000     
100   95050312498129060000000000002940000000002940002000000010410404171242291229628952980417000007008583   1020000200030000   333400010001204104000000281Myanmar Soft-Gate Tech Yangon        MMR11004171242291229620417000000000000000   10300001F05104100000000000617000000000000     
100   62443100313529540000000000002940000000002940002000000010410404170338180818250344060417000007007078   1020000200030000   333400010001204104000000281Myanmar Soft-Gate Tech Yangon        MMR11004170338180818250417000000000000000   10300001F05104100000000000617000000000000     
100   95050320531117320000000000039600000000039600002000000010410404170439228229502471450417751091113106   1030000500030000   555610122356104519000018696CityMartSupermarket Sh ePyiTha       MMR11004170439228229500417000000000000000   10300001 00104100000000009900000000000000     
100   95050328074436620000000000004900000000004900002000000010410404170740181018956413880417000007007824   1020000200030000   333400010001204104000000281Myanmar Soft-Gate Tech Yangon        MMR11004170740181018950417000000000000000   10300001F05104100000000001029000000000000     
100   62443100333488440000000000078945000000078945002000000010410404160413380001706613360416000340466014   1030000300030000   701100001001000000000000708CB BANK                INYA LAKE (RE MMR11004160413380001700416000000000000000   10300001F00104100000000033552000000000000     
100   62911028202509170000000000013000000000013000002000000010410404171457020212286685900417000745730044   1030000200030000   541188001007000008000000008KBZ BANK               MARKETPLACE - MMR11004171457020212280417000000000000000   10300001 00104100000000000780000000000000     
100   95050326155679180000000000005880000000005880002000000010410404171354112411388888110417000007008826   1020000200030000   333400010001204104000000281Myanmar Soft-Gate Tech Yangon        MMR11004171354112411380417000000000000000   10300001F05104100000000001235000000000000     
100   95030302100067550000000000134100000000134100002000000010410404170952038261776685900417825211654106   1030000300030000   555510124696104519000020166Makro Myanmar                        MMR11004170952038261770417000000000000000   10300001 00104100000000008046000000000000     
100   62911028202138320000000000018620000000018620002000000010410404170753352335156685900417000007007856   1020000200030000   333400010001204104000000281Myanmar Soft-Gate Tech Yangon        MMR11004170753352335150417000000000000000   10300001F05104100000000003910000000000000     
100   95050314401921990000000000000980000000000980002000000010410404171449051905795412940417000007009034   1020000200030000   333400010001204104000000281Myanmar Soft-Gate Tech Yangon        MMR11004171449051905790417000000000000000   10300001F05104100000000000206000000000000     
100   95050320624349010000000000030000000000030000002000000010410404170904401900524931590417673341540106   1030000900030000   554119001103190110000000215New Day Energy MYG     YANGONONE     MMR11004170904401900520417000000000000000   10300001F00104100000000003600000000000000     
100   62443100391804560000000000000980000000000980002000000010410404170307043704262542760417000007006962   1020000200030000   333400010001204104000000281Myanmar Soft-Gate Tech Yangon        MMR11004170307043704260417000000000000000   10300001F05104100000000000206000000000000     
100   95050317185868580000000000050000000000050000002000000010410404170421225122108145360417000007007225   1030000200030000   333800010001203104000003327KBZPay                 Yangon        MMR11004170421225122100417000000000000000   10300001F05104100000000010500000000000000     
100   62911028202206880000000000004035000000004035002000000010410404170810548251046685900417780421442106   1030000500030000   555610112234104519000010487Ocean Super Center St  ohn           MMR11004170810548251040417000000000000000   10300001 00104100000000000242000000000000     
100   62443100326436660000000000112400000000112400002000000010410404171217438272945733110417035471838106   1030000300030000   555510124366104519000020166Makro Myanmar                        MMR11004171217438272940417000000000000000   10300001 00104100000000026976000000000000     
100   95050323233042810000000000004900000000004900002000000010410404170606353635866839360417000007007564   1020000200030000   333400010001204104000000281Myanmar Soft-Gate Tech Yangon        MMR11004170606353635860417000000000000000   10300001F05104100000000001029000000000000     
100   62911028202284260000000000028800000000028800002000000010410404170711518245296685900417251421302106   1030000300030000   555610103755104519000003631G and G Convenience St re 72         MMR11004170711518245290417000000000000000   10300001 00104100000000001728000000000000     
100   95050316377977350000000000010000000000010000002000000010410404171028215821891116040417000007008247   1030000200030000   3338000100012031040000040022C2P (Myanmar) Co. Ltd Yangon        MMR11004171028215821890417000000000000000   10300001F05104100000000002100000000000000     
100   62911028202451150000000000055400000000055400002000000010410404171015348264896685900417181491642106   1030000500030000   555610122578104519000018896City Mart Hlaing Thar  ar            MMR11004171015348264890417000000000000000   10300001 00104100000000003324000000000000     
