100   95050315158357300000000000000980000000000980002000000010410404190208523852033335540419000007015613   1020000200030000   333400010001204104000000281Myanmar Soft-Gate Tech Yangon        MMR11004190208523852030419000000000000000   10300001F05104100000000000206000000000000     
100   95050316997303010000000000001960000000001960002000000010410404191314174417629794790419000007020038   1020000200030000   333400010001204104000000281Myanmar Soft-Gate Tech Yangon        MMR11004191314174417620419000000000000000   10300001F05104100000000000412000000000000     
100   95050328741376010000000000200000000000200000002000000010410404190127295729967881300419000007015477   1030000200030000   333800010001203104000003327KBZPay                 Yangon        MMR11004190127295729960419000000000000000   10300001F05104100000000042000000000000000     
100   95050323233042810000000000050000000000050000002000000010410404190957252725241837100419000007019242   1030000200030000   333800010001203104000003327KBZPay                 Yangon        MMR11004190957252725240419000000000000000   10300001F05104100000000010500000000000000     
100   95050314567755980000000000001960000000001960002000000010410404191303423342269709690419000007020005   1020000200030000   333400010001204104000000281Myanmar Soft-Gate Tech Yangon        MMR11004191303423342260419000000000000000   10300001F05104100000000000412000000000000     
100   62911028202666400000000000005000000000005000002000000010410404191109533953536685900419000007019571   1030000200030000   333800010001203104000003327KBZPay                 Yangon        MMR11004191109533953530419000000000000000   10300001F05104100000000001050000000000000     
100   95050310427855490000000000002940000000002940002000000010410404191416304630118737980419000007020331   1020000200030000   333400010001204104000000281Myanmar Soft-Gate Tech Yangon        MMR11004191416304630110419000000000000000   10300001F05104100000000000617000000000000     
100   95050311926829590000000000001960000000001960002000000010410404190028565856058051490419000007015329   1020000200030000   333400010001204104000000281Myanmar Soft-Gate Tech Yangon        MMR11004190028565856050419000000000000000   10300001F05104100000000000412000000000000     
100   95030302100015820000000000005000000000005000002000000010410404190529508437746685900419596031222108   1030000500030000   555610112244104519000010487Ocean Super Center St  ohn           MMR11004190529508437740419000000000000000   10300001 00104100000000000300000000000000     
100   95050312641885210000000000034000000000034000002000000010410404190306263626074016310419000007016037   1030000200030000   333800010001203104000003327KBZPay                 Yangon        MMR11004190306263626070419000000000000000   10300001F05104100000000007140000000000000     
100   95050329252108030000000000030000000000030000002000000010410404190805242735717900810419210915273571   1040001600030000   598320000911000000010000662MMTM - Tamwe           Ygn           MMR11004190805242735710419000000000000000   10300001F00104100000000003600000000000000     
100   95050311931431670000000000002940000000002940002000000010410404191506023602072128040419000007020483   1020000200030000   333400010001204104000000281Myanmar Soft-Gate Tech Yangon        MMR11004191506023602070419000000000000000   10300001F05104100000000000617000000000000     
100   95050328074436620000000000004900000000004900002000000010410404190819574957763453930419000007018484   1020000200030000   333400010001204104000000281Myanmar Soft-Gate Tech Yangon        MMR11004190819574957760419000000000000000   10300001F05104100000000001029000000000000     
100   95050310427855490000000000002940000000002940002000000010410404190627335733964164640419000007017580   1020000200030000   333400010001204104000000281Myanmar Soft-Gate Tech Yangon        MMR11004190627335733960419000000000000000   10300001F05104100000000000617000000000000     
100   62911028202150190000000000016150000000016150002000000010410404190639338447876685900419761161314108   1030000500030000   555610112242104519000010487Ocean Super Center St  ohn           MMR11004190639338447870419000000000000000   10300001 00104100000000000969000000000000     
100   95050317728825080000000000018600000000018600002000000010410404190951202787324971880419210916278732   1040001600030000   591220000295000000010000283Shwe Ohh Pharmacy (39t Yangon        MMR11004190951202787320419000000000000000   10300001F00104100000000004464000000000000     
100   62911028202125290000000000040000000000040000002000000010410404180311070030726685900418210809003072   1030000500030000   598320001302000015172200013MAX ENERGY             PTN           MMR11004180311070030720418000000000000000   10300001 00104100000000001200000000000000     
100   62911028202809060000000000020000000000020000002000000010410404190616444644036685900419000007017487   1030000200030000   333800010001203104000003327KBZPay                 Yangon        MMR11004190616444644030419000000000000000   10300001F05104100000000004200000000000000     
100   95050315259054570000000000000980000000000980002000000010410404190508283828336923380419000007016997   1020000200030000   333400010001204104000000281Myanmar Soft-Gate Tech Yangon        MMR11004190508283828330419000000000000000   10300001F05104100000000000206000000000000     
100   95030301100425380000000000030000000000030000002000000010410404180825070100866685900418000340812711   1030000300030000   598300000342000000000000222CB BANK                YANGON PETROL MMR11004180825070100860418000000000000000   10300001F00104100000000000900000000000000     
100   95050310676042860000000000015000000000015000002000000010410404191250132013957972110419000007019957   1030000200030000   333800010001203104000003327KBZPay                 Yangon        MMR11004191250132013950419000000000000000   10300001F05104100000000003150000000000000     
100   62443101096632410000000000044575000000044575002000000010410404181014270001362122320418000340826561   1030000300030000   581200000995000000000000709CB BANK                INYA LAKE (DE MMR11004181014270001360418000000000000000   10300001F00104100000000018945000000000000     
100   62911028202280200000000000300000000000300000002000000010410404180904350001406685900418210815000140   1030000500030000   481220073201005904812200732TECHNOLAND COMPUTER TR PTN           MMR11004180904350001400418000000000000000   10300001 00104100000000018000000000000000     
100   62911028202287150000000000030000000000030000002000000010410404180222010020226685900418210808002022   1030000500030000   598320001204000015172200012MAX ENERGY             PTN           MMR11004180222010020220418000000000000000   10300001 00104100000000000900000000000000     
100   62911028202789750000000000018950000000018950002000000010410404191035192819436685900419210917281943   1040001600030000   591220000267000000010000255Shwe Ohh Pharmacy (Bah Yangon        MMR11004191035192819430419000000000000000   10300001F00104100000000001137000000000000     
100   95050317338786370000000000003000000000003000002000000010410404190613274327677129220419000007017468   1030000200030000   3334000100012031040000040102C2P (Myanmar) Co. Ltd Yangon        MMR11004190613274327670419000000000000000   10300001F05104100000000000630000000000000     
100   95050328074436620000000000002940000000002940002000000010410404190823555355181886540419000007018518   1020000200030000   333400010001204104000000281Myanmar Soft-Gate Tech Yangon        MMR11004190823555355180419000000000000000   10300001F05104100000000000617000000000000     
100   95050311959900780000000000000980000000000980002000000010410404191222535253634922430419000007019860   1020000200030000   333400010001204104000000281Myanmar Soft-Gate Tech Yangon        MMR11004191222535253630419000000000000000   10300001F05104100000000000206000000000000     
100   62911028202684060000000000012700000000012700002000000010410404190355338427036685900419495341028108   1030000500030000   555610122578104519000018896City Mart Hlaing Thar  ar            MMR11004190355338427030419000000000000000   10300001 00104100000000000762000000000000     
100   62911028202154800000000000037000000000037000002000000010410404190747402727466685900419210914272746   1040001600030000   598320000326000000010000314PT Power Petrol Statio Nay Pyi Taw   MMR11004190747402727460419000000000000000   10300001F00104100000000001110000000000000     
100   62911028202287150000000000007900000000007900002000000010410404190747412727476685900419210914272747   1040001600030000   541120000561000000010000465Ocean Shwe Gone Daing  Yangon        MMR11004190747412727470419000000000000000   10300001F00104100000000000474000000000000     
100   95050319528093960000000000000980000000000980002000000010410404190305373537919058860419000007016047   1020000200030000   333400010001204104000000281Myanmar Soft-Gate Tech Yangon        MMR11004190305373537910419000000000000000   10300001F05104100000000000206000000000000     
100   62911028202103410000000000032200000000032200002000000010410404180549300005716685900418210812000571   1030000500030000   591220132901008605912201329THEIK DI WIN SHOP      PTN           MMR11004180549300005710418000000000000000   10300001 00104100000000001932000000000000     
100   62911028202280200000000000300000000000300000002000000010410404180905390001426685900418210815000142   1030000500030000   481220073201005904812200732TECHNOLAND COMPUTER TR PTN           MMR11004180905390001420418000000000000000   10300001 00104100000000018000000000000000     
100   95050326094581320000000000034044000000034044002000000010410404181231070001540590590418210819000154   1030000500030000   581220199201000085812201992JO JO TERMINAL M       PTN           MMR11004181231070001540418000000000000000   10300001 00104100000000014469000000000000     
100   62911028202162640000000000027200000000027200002000000010410404181118140005956685900418210817000595   1030000500030000   591220132901008605912201329THEIK DI WIN SHOP      PTN           MMR11004181118140005950418000000000000000   10300001 00104100000000001632000000000000     
100   62911028202533900000000000020000000000020000002000000010410404180904020025876685900418210815002587   1030000500030000   598320002004000015172200020MAX ENERGY             PTN           MMR11004180904020025870418000000000000000   10300001 00104100000000000600000000000000     
100   95030300515226620000000000013500000000013500002000000010410404180656570003446685900418000340800847   1030000300030000   531100000877000000000000613CB BANK                MGOU          MMR11004180656570003440418000000000000000   10300001F00104100000000000810000000000000     
100   62443100334378030000000000180000000000180000002000000010410404180540200014422287880418210812001442   1030000400030000   701120200622000003120200062AUREUM PALACE HOTEL (P MANDALAY      MMR11004180540200014420418000000000000000   10300001 00104100000000076500000000000000     
100   62911028202421380000000000081428000000081428002000000010410404181209470021616685900418210818002161   1030000500030000   581220063701000015812200637CHINESE 47             PTN           MMR11004181209470021610418000000000000000   10300001 00104100000000008306000000000000     
100   95050311382087030000000000001960000000001960002000000010410404191108053805689369310419000007019566   1020000200030000   333400010001204104000000281Myanmar Soft-Gate Tech Yangon        MMR11004191108053805680419000000000000000   10300001F05104100000000000412000000000000     
100   62911028202091860000000000002940000000002940002000000010410404190120525052986685900419000007015468   1020000200030000   333400010001204104000000281Myanmar Soft-Gate Tech Yangon        MMR11004190120525052980419000000000000000   10300001F05104100000000000617000000000000     
100   95030302100015820000000000028253000000028253002000000010410404190531238437936685900419611051211108   1030000500030000   555610112244104519000010487Ocean Super Center St  ohn           MMR11004190531238437930419000000000000000   10300001 00104100000000001695000000000000     
100   62911028202665250000000000023700000000023700002000000010410404190741358456546685900419739141400108   1030000300030000   444410106710104519000005921YKKO Bahan 2                         MMR11004190741358456540419000000000000000   10300001 00104100000000002417000000000000     
100   95030378062733680000000000043000000000043000002000000010410404191025562811556685900419210917281155   1040001600030000   598320000326000000010000314PT Power Petrol Statio Nay Pyi Taw   MMR11004191025562811550419000000000000000   10300001F00104100000000001290000000000000     
100   95050312224678430000000000004900000000004900002000000010410404190727535753783448220419000007018047   1020000200030000   333400010001204104000000281Myanmar Soft-Gate Tech Yangon        MMR11004190727535753780419000000000000000   10300001F05104100000000001029000000000000     
100   95050324622440820000000000019600000000019600002000000010410404190659378449676242610419958291353108   1030000500030000   555610110596104519000009166City Mart 47 Branch                  MMR11004190659378449670419000000000000000   10300001 00104100000000004900000000000000     
100   95050328082468580000000000110000000000110000002000000010410404190302023202967576570419000007016012   1030000200030000   333800010001203104000003327KBZPay                 Yangon        MMR11004190302023202960419000000000000000   10300001F05104100000000023100000000000000     
100   95030308100042590000000000138000000000138000002000000010410404180426220013986685900418210810001398   1030000500030000   598320001701000015172200017MAX ENERGY             PTN           MMR11004180426220013980418000000000000000   10300001 00104100000000004140000000000000     
100   95030308100042590000000000051000000000051000002000000010410404180953450013986685900418210816001398   1030000500030000   598320001702000015172200017MAX ENERGY             PTN           MMR11004180953450013980418000000000000000   10300001 00104100000000001530000000000000     
100   95050327185992630000000000034000000000034000002000000010410404181013080020547079780418210816002054   1030000500030000   569120104001008205691201040ESCORT ( CITY MALL-ST. PTN           MMR11004181013080020540418000000000000000   10300001 00104100000000008160000000000000     
100   62911028202212490000000000190000000000190000002000000010410404180113250000916685900418210807000091   1030000500030000   806220009103024108062200091ARYU INTL HOSPITAL     PTN           MMR11004180113250000910418000000000000000   10300001 00104100000000011400000000000000     
100   62443100325551180000000000040000000000040000002000000010410404180345340021640067300418210810002164   1030000500030000   598320001601000015172200016MAX ENERGY             PTN           MMR11004180345340021640418000000000000000   10300001 00104100000000004800000000000000     
100   62443101006037900000000000019000000000019000002000000010410404181209080010413129690418210818001041   1030000500030000   581220041801000055812200418SHWE LAR HOT POT       PTN           MMR11004181209080010410418000000000000000   10300001 00104100000000008075000000000000     
100   62911028202162640000000000020000000000020000002000000010410404180556400036386685900418210812003638   1030000500030000   598320001401000015172200014MAX ENERGY             PTN           MMR11004180556400036380418000000000000000   10300001 00104100000000000600000000000000     
100   95050310750557450000000000030000000000030000002000000010410404181159460032055037470418210818003205   1030000500030000   598320001101000015172200011MAX ENERGY             PTN           MMR11004181159460032050418000000000000000   10300001 00104100000000003600000000000000     
100   95050316818236190000000000002940000000002940002000000010410404191112394239582759370419000007019586   1020000200030000   333400010001204104000000281Myanmar Soft-Gate Tech Yangon        MMR11004191112394239580419000000000000000   10300001F05104100000000000617000000000000     
100   95050314248677090000000000100000000000100000002000000010410404191123255325757887010419000007019627   1030000200030000   333800010001203104000003327KBZPay                 Yangon        MMR11004191123255325750419000000000000000   10300001F05104100000000021000000000000000     
100   95050312498129060000000000000980000000000980002000000010410404191056532653177716820419000007019509   1020000200030000   333400010001204104000000281Myanmar Soft-Gate Tech Yangon        MMR11004191056532653170419000000000000000   10300001F05104100000000000206000000000000     
100   62911028202112400000000000057500000000057500002000000010410404190726572718586685900419210914271858   1040001600030000   591220001007000000010000737Shwe Ohh Pharmacy (Tan Ygn           MMR11004190726572718580419000000000000000   10300001F00104100000000003450000000000000     
100   62911028202204560000000000033000000000033000002000000010410404191610124012176685900419000007020751   1030000200030000   333800010001203104000003327KBZPay                 Yangon        MMR11004191610124012170419000000000000000   10300001F05104100000000006930000000000000     
100   62911028202204560000000000015000000000015000002000000010410404191616544654886685900419000007020763   1030000200030000   333800010001203104000003327KBZPay                 Yangon        MMR11004191616544654880419000000000000000   10300001F05104100000000003150000000000000     
100   62911028202142100000000000012900000000012900002000000010410404190659098449776685900419970301322108   1030000300030000   444410123548104519000019766YKKO NPST                            MMR11004190659098449770419000000000000000   10300001 00104100000000001316000000000000     
100   62911028202808150000000000015403000000015403002000000010410404191125098490596685900419808561703108   1030000500030000   555610112981104519000011143Market Place by City M rt Sule       MMR11004191125098490590419000000000000000   10300001 00104100000000000924000000000000     
100   95050320531117320000000000150000000000150000002000000010410404180654590031963394140418210813003196   1030000500030000   598320001004000015172200010MAX ENERGY             PTN           MMR11004180654590031960418000000000000000   10300001 00104100000000018000000000000000     
100   62443100371022130000000000047000000000047000002000000010410404180428440055433095120418000340780687   1030000300030000   598300001210000000000000817CB BANK                SHWE TAUNG EN MMR11004180428440055430418000000000000000   10300001F00104100000000005640000000000000     
100   62911028202163630000000000028000000000028000002000000010410404180412511976726685900418210811197672   1040001600030000   598320000915000000010000664MMTM - North Dagon     Ygn           MMR11004180412511976720418000000000000000   10300001F00104100000000000840000000000000     
100   62911028202559990000000000050000000000050000002000000010410404180111411897776685900418210808189777   1040001600030000   598320000915000000010000664MMTM - North Dagon     Ygn           MMR11004180111411897770418000000000000000   10300001F00104100000000001500000000000000     
100   95050314248677090000000000105000000000105000002000000010410404190135270527042923850419000007015492   1030000200030000   333800010001203104000003327KBZPay                 Yangon        MMR11004190135270527040419000000000000000   10300001F05104100000000022050000000000000     
100   95050319528093960000000000001960000000001960002000000010410404190954302430688447040419000007019229   1020000200030000   333400010001204104000000281Myanmar Soft-Gate Tech Yangon        MMR11004190954302430680419000000000000000   10300001F05104100000000000412000000000000     
100   95050327936713000000000000010000000000010000002000000010410404190650542054037895090419000007017761   1030000200030000   333800010001203104000003327KBZPay                 Yangon        MMR11004190650542054030419000000000000000   10300001F05104100000000002100000000000000     
100   95050316997303010000000000001960000000001960002000000010410404191346561656345262820419000007020188   1020000200030000   333400010001204104000000281Myanmar Soft-Gate Tech Yangon        MMR11004191346561656340419000000000000000   10300001F05104100000000000412000000000000     
100   95050314893649800000000000002940000000002940002000000010410404190852082208658666670419000007018787   1020000200030000   333400010001204104000000281Myanmar Soft-Gate Tech Yangon        MMR11004190852082208650419000000000000000   10300001F05104100000000000617000000000000     
100   62911028202136750000000000013000000000013000002000000010410404190457198433166685900419125271127108   1030000300030000   444410125393104519000021220Myanmar Bakery CoLtd                 MMR11004190457198433160419000000000000000   10300001 00104100000000001326000000000000     
100   62911028202163630000000000011000000000011000002000000010410404180358210011966685900418210810001196   1030000500030000   591220013901014405912200139SHWE OHH PHARMACY      PTN           MMR11004180358210011960418000000000000000   10300001 00104100000000000660000000000000     
100   95050328137327770000000000010000000000010000002000000010410404181306490009783640280418210819000978   1030000500030000   598320068303000055983200683MAX ENERGY             PTN           MMR11004181306490009780418000000000000000   10300001 00104100000000001200000000000000     
100   95030333409030400000000000003400000000003400002000000010410404191229328498756685900419718001910108   1030000300030000   555610103773104519000003649G and G Convenience St re 279        MMR11004191229328498750419000000000000000   10300001 00104100000000000204000000000000     
100   95030317922148660000000000039400000000039400002000000010410404190618138445006685900419408531246108   1030000500030000   555610103470104519000003420City Mart Yankin Cente 9             MMR11004190618138445000419000000000000000   10300001 00104100000000002364000000000000     
100   62911028202154800000000000148695000000148695002000000010410404190947268476046685900419075191645108   1030000500030000   555610103976104519000003818Ocean Oattara Thiri Na PyiTaw        MMR11004190947268476040419000000000000000   10300001 00104100000000008922000000000000     
100   95030340340746190000000000081400000000081400002000000010410404191018588482056685900419779011700108   1030000500030000   555610122578104519000018896City Mart Hlaing Thar  ar            MMR11004191018588482050419000000000000000   10300001 00104100000000004884000000000000     
100   62911028202003590000000000007850000000007850002000000010410404191225332356126685900419708551833108   1030000900030000   541119000141190110000000083SeinGayHarParami Cente YANGON        MMR11004191225332356120419000000000000000   10300001F00104100000000000471000000000000     
100   95050310322713510000000000025000000000025000002000000010410404181848331833681101170419000007015150   1030000200030000   333800010001203104000003327KBZPay                 Yangon        MMR11004181848331833680419000000000000000   10300001F05104100000000005250000000000000     
100   62443101000669310000000000105000000000105000002000000010410404190554162257346972820419558241216108   1030000900030000   701119001563190110000001134Aureum Palace Ngapali  RAKHINE       MMR11004190554162257340419000000000000000   10300001F00104100000000044625000000000000     
100   95050324154190880000000000031000000000031000002000000010410404180244460031734419350418210809003173   1030000500030000   598320001301000015172200013MAX ENERGY             PTN           MMR11004180244460031730418000000000000000   10300001 00104100000000003720000000000000     
100   95050311736839760000000000011900000000011900002000000010410404181335000002580335300418210820000258   1030000500030000   541120024802022205411200248ORANGE (THARKAYTA)     PTN           MMR11004181335000002580418000000000000000   10300001 00104100000000002975000000000000     
100   95050325455962190000000000070000000000070000002000000010410404190303293329968888670419000007016021   1030000500030000   333800010001201104000003863AYA Pay                Yangon        MMR11004190303293329960419000000000000000   10300001F05104100000000014700000000000000     
100   95050318048516790000000000005000000000005000002000000010410404191114184418534496950419000007019589   1030000200030000   3334000100012031040000040102C2P (Myanmar) Co. Ltd Yangon        MMR11004191114184418530419000000000000000   10300001F05104100000000001050000000000000     
100   95050318471308000000000000200000000000200000002000000010410404191326445644224752240419000007020084   1030000200030000   333800010001203104000003327KBZPay                 Yangon        MMR11004191326445644220419000000000000000   10300001F05104100000000042000000000000000     
100   62911028202400660000000000001850000000001850002000000010410404190834348467676685900419095111521108   1030000500030000   555610112249104519000010487Ocean Super Center St  ohn           MMR11004190834348467670419000000000000000   10300001 00104100000000000111000000000000     
100   62911028202509170000000000010450000000010450002000000010410404190751598459296685900419049231413108   1030000500030000   555610104024104519000003821City Mart North Point  enter         MMR11004190751598459290419000000000000000   10300001 00104100000000000627000000000000     
100   62911028202031710000000000004600000000004600002000000010410404190724312280896685900419899541331108   1030000900030000   541119001186190110000000942City Mart HDC C 1      YANGONUT      MMR11004190724312280890419000000000000000   10300001F00104100000000000276000000000000     
100   62443101083052160000000000066700000000066700002000000010410404190525432250228114720419176551143108   1030000900030000   541119000285190110000000177Pro1 Global (Insein)   YANGON        MMR11004190525432250220419000000000000000   10300001F00104100000000016675000000000000     
100   95050326750398570000000000012000000000012000002000000010410404191045118484269383100419044141758108   1030000500030000   555610104045104519000003821City Mart North Point  enter         MMR11004191045118484260419000000000000000   10300001 00104100000000003000000000000000     
100   62911028202615340000000000025950000000025950002000000010410404172352470006936685900418210806000693   1030000500030000   541120182201000045411201822EASY MART-005          PTN           MMR11004172352470006930418000000000000000   10300001 00104100000000001557000000000000     
100   62443100375796910000000000115250000000115250002000000010410404190444022241029901750419724141102108   1030000900030000   541119001351190110000000977Ocean PZD C5           YANGONAUNG    MMR11004190444022241020419000000000000000   10300001F00104100000000028813000000000000     
100   62911028202495390000000000001600000000001600002000000010410404191249578500866685900419972231907108   1030000500030000   555610110599104519000009166City Mart 47 Branch                  MMR11004191249578500860419000000000000000   10300001 00104100000000000096000000000000     
100   95050314931885730000000000000980000000000980002000000010410404182325505550462413270419000007015252   1020000200030000   333400010001204104000000281Myanmar Soft-Gate Tech Yangon        MMR11004182325505550460419000000000000000   10300001F05104100000000000206000000000000     
100   62911028202057620000000000010000000000010000002000000010410404190252042204776685900419000007015919   1030000200030000   333800010001203104000003327KBZPay                 Yangon        MMR11004190252042204770419000000000000000   10300001F05104100000000002100000000000000     
100   62443100330108240000000000000980000000000980002000000010410404190555202520883582750419000007017303   1020000200030000   333400010001204104000000281Myanmar Soft-Gate Tech Yangon        MMR11004190555202520880419000000000000000   10300001F05104100000000000206000000000000     
100   62911028202193670000000000602000000000602000002000000010410404190310334033466685900419000007016073   1010000100030000   333500010001212104000002840Internal Revenue Depar Yangon        MMR11004190310334033460419000000000000000   10300001F05104100000000060000000000000000     
100   62443100395535610000000000075000000000075000002000000010410404190907343734644219800419000007018889   1030000200030000   333800010001203104000003327KBZPay                 Yangon        MMR11004190907343734640419000000000000000   10300001F05104100000000015750000000000000     
100   62911028202027440000000000047000000000047000002000000010410404190043542202226685900419870130754108   1030000900030000   554119001103190110000000215New Day Energy MYG     YANGONONE     MMR11004190043542202220419000000000000000   10300001F00104100000000001410000000000000     
100   95050319379439060000000000001000000000001000002000000010410404191215294529751617470419000007019834   1030000200030000   333800010001203104000003327KBZPay                 Yangon        MMR11004191215294529750419000000000000000   10300001F05104100000000000210000000000000     
100   95050318057347910000000000000980000000000980002000000010410404191122085208346149430419000007019624   1020000200030000   333400010001204104000000281Myanmar Soft-Gate Tech Yangon        MMR11004191122085208340419000000000000000   10300001F05104100000000000206000000000000     
100   62911028202154800000000000018500000000018500002000000010410404191031548482236685900419803011757108   1030000500030000   555610108767104519000003818City Mart Oattara Thir NPT           MMR11004191031548482230419000000000000000   10300001 00104100000000001110000000000000     
100   95050320531117320000000000100000000000100000002000000010410404180546310031880124830418210812003188   1030000500030000   598320001004000015172200010MAX ENERGY             PTN           MMR11004180546310031880418000000000000000   10300001 00104100000000012000000000000000     
100   95050312498129060000000000000980000000000980002000000010410404191151512151308142300419000007019741   1020000200030000   333400010001204104000000281Myanmar Soft-Gate Tech Yangon        MMR11004191151512151300419000000000000000   10300001F05104100000000000206000000000000     
100   62911028202503390000000000045000000000045000002000000010410404190737382723246685900419210914272324   1040001600030000   598320000658000000010000527Shwe Taung Energy (YGN Yangon        MMR11004190737382723240419000000000000000   10300001F00104100000000001350000000000000     
100   95050314950595330000000000007000000000007000002000000010410404190428285828428965690419000007016684   1030000200030000   3338000100012031040000040022C2P (Myanmar) Co. Ltd Yangon        MMR11004190428285828420419000000000000000   10300001F05104100000000001470000000000000     
100   62911028202532910000000000006550000000006550002000000010410404190443062627796685900419210911262779   1040001600030000   541120000584000000010000465Ocean Shwe Gone Daing  Yangon        MMR11004190443062627790419000000000000000   10300001F00104100000000000393000000000000     
100   95050318214455130000000000002940000000002940002000000010410404191230120012996660010419000007019886   1020000200030000   333400010001204104000000281Myanmar Soft-Gate Tech Yangon        MMR11004191230120012990419000000000000000   10300001F05104100000000000617000000000000     
100   95050312498129060000000000000980000000000980002000000010410404191230010001278312500419000007019883   1020000200030000   333400010001204104000000281Myanmar Soft-Gate Tech Yangon        MMR11004191230010001270419000000000000000   10300001F05104100000000000206000000000000     
100   95050310427855490000000000000980000000000980002000000010410404190934310431696369070419000007019093   1020000200030000   333400010001204104000000281Myanmar Soft-Gate Tech Yangon        MMR11004190934310431690419000000000000000   10300001F05104100000000000206000000000000     
100   95050319528093960000000000000980000000000980002000000010410404191331270127733099760419000007020103   1020000200030000   333400010001204104000000281Myanmar Soft-Gate Tech Yangon        MMR11004191331270127730419000000000000000   10300001F05104100000000000206000000000000     
100   95050325305150830000000000000980000000000980002000000010410404190736330633244845410419000007018105   1020000200030000   333400010001204104000000281Myanmar Soft-Gate Tech Yangon        MMR11004190736330633240419000000000000000   10300001F05104100000000000206000000000000     
100   95050315557781210000000000006000000000006000002000000010410404190432570257620447980419000007016726   1030000200030000   333800010001203104000003327KBZPay                 Yangon        MMR11004190432570257620419000000000000000   10300001F05104100000000001260000000000000     
100   95050325095525130000000000060000000000060000002000000010410404190332330233943541390419000007016177   1030000200030000   333800010001203104000003327KBZPay                 Yangon        MMR11004190332330233940419000000000000000   10300001F05104100000000012600000000000000     
100   62443100379116470000000000000980000000000980002000000010410404190751232123554766030419000007018215   1020000200030000   333400010001204104000000281Myanmar Soft-Gate Tech Yangon        MMR11004190751232123550419000000000000000   10300001F05104100000000000206000000000000     
100   95050323722449090000000000004409000000004409002000000010410404191340451045781957850419000007020157   1020000200030000   333400010001204104000000281Myanmar Soft-Gate Tech Yangon        MMR11004191340451045780419000000000000000   10300001F05104100000000000926000000000000     
100   95030367537085740000000000000980000000000980002000000010410404191353132313836685900419000007020229   1020000200030000   333400010001204104000000281Myanmar Soft-Gate Tech Yangon        MMR11004191353132313830419000000000000000   10300001F05104100000000000206000000000000     
100   95050318617855880000000000002940000000002940002000000010410404191248201820793014660419000007019953   1020000200030000   333400010001204104000000281Myanmar Soft-Gate Tech Yangon        MMR11004191248201820790419000000000000000   10300001F05104100000000000617000000000000     
100   95050314570621780000000000000980000000000980002000000010410404190045561556648221680419000007015358   1020000200030000   333400010001204104000000281Myanmar Soft-Gate Tech Yangon        MMR11004190045561556640419000000000000000   10300001F05104100000000000206000000000000     
100   95050312618592720000000000010000000000010000002000000010410404190351302130485874640419000007016406   1030000200030000   333800010001203104000003327KBZPay                 Yangon        MMR11004190351302130480419000000000000000   10300001F05104100000000002100000000000000     
100   95030385550669610000000000062450000000062450002000000010410404190612322262846685900419866421232108   1030000900030000   541119000290190110000000178Pro (1) Global (East D YANGONMYOTHIT MMR11004190612322262840419000000000000000   10300001F00104100000000003747000000000000     
100   62911028202668140000000000071100000000071100002000000010410404191051032334006685900419212211703108   1030000900030000   554119000997190110000000803Puma Power SOKL        YANGONOKKALAP MMR11004191051032334000419000000000000000   10300001F00104100000000002133000000000000     
100   95050329252108030000000000012000000000012000002000000010410404190858562306511085030419493281556108   1030000900030000   554119000346190110000000213New Day Energy SOK     YANGONOKKALAP MMR11004190858562306510419000000000000000   10300001F00104100000000001440000000000000     
100   95050316638224720000000000002940000000002940002000000010410404190739270927603192930419000007018141   1020000200030000   333400010001204104000000281Myanmar Soft-Gate Tech Yangon        MMR11004190739270927600419000000000000000   10300001F05104100000000000617000000000000     
100   95050313396828960000000000000980000000000980002000000010410404191439560956822042950419000007020385   1020000200030000   333400010001204104000000281Myanmar Soft-Gate Tech Yangon        MMR11004191439560956820419000000000000000   10300001F05104100000000000206000000000000     
100   62443100375796910000000000012148000000012148002000000010410404190445132241354944300419745151113108   1030000900030000   541119001351190110000000977Ocean PZD C5           YANGONAUNG    MMR11004190445132241350419000000000000000   10300001F00104100000000003037000000000000     
100   62443101083052160000000001090900000001090900002000000010410404190510552247064214080419026401155108   1030000900030000   541119000283190110000000177Pro1 Global (Insein)   YANGON        MMR11004190510552247060419000000000000000   10300001F00104100000000272725000000000000     
100   95050315344668630000000000014300000000014300002000000010410404190958172320901411620419356281617108   1030000900030000   541119000112190110000000077Sein Gay Har Chinatown YANGON        MMR11004190958172320900419000000000000000   10300001F00104100000000003575000000000000     
100   95050311458479980000000000030000000000030000002000000010410404190849201920879092150419000007018767   1030000200030000   3338000100012031040000040022C2P (Myanmar) Co. Ltd Yangon        MMR11004190849201920870419000000000000000   10300001F05104100000000006300000000000000     
100   95030308100010080000000000000980000000000980002000000010410404190351392139416685900419000007016408   1020000200030000   333400010001204104000000281Myanmar Soft-Gate Tech Yangon        MMR11004190351392139410419000000000000000   10300001F05104100000000000206000000000000     
100   95050319703729630000000000030000000000030000002000000010410404190643031303780604380419000007017682   1030000200030000   333800010001203104000003327KBZPay                 Yangon        MMR11004190643031303780419000000000000000   10300001F05104100000000006300000000000000     
100   95050313211495320000000000204250000000204250002000000010410404190618342264362427060419956481234108   1030000900030000   541119001326190110000000971Ocean Junction NPT C 4 NAYPYITAW     MMR11004190618342264360419000000000000000   10300001F00104100000000051063000000000000     
100   95050323543939140000000000025000000000025000002000000010410404191149532348536489820419208191853108   1030000900030000   541119001308190110000000968Ocean Mingalar MDY C 1 MANDALAYHARSI MMR11004191149532348530419000000000000000   10300001F00104100000000006250000000000000     
100   95050321688266460000000000101000000000101000002000000010410404181843531353262753660419000007015147   1030000200030000   333800010001203104000003327KBZPay                 Yangon        MMR11004181843531353260419000000000000000   10300001F05104100000000021210000000000000     
100   95050320360851930000000000009800000000009800002000000010410404190352532253937697320419000007016427   1020000200030000   333400010001204104000000281Myanmar Soft-Gate Tech Yangon        MMR11004190352532253930419000000000000000   10300001F05104100000000002058000000000000     
100   95050319524870520000000000001960000000001960002000000010410404190253582358174186510419000007015918   1020000200030000   333400010001204104000000281Myanmar Soft-Gate Tech Yangon        MMR11004190253582358170419000000000000000   10300001F05104100000000000412000000000000     
100   95050312878706670000000000003000000000003000002000000010410404191344071407470305370419000007020173   1030000200030000   3334000100012031040000040102C2P (Myanmar) Co. Ltd Yangon        MMR11004191344071407470419000000000000000   10300001F05104100000000000630000000000000     
100   95050316818236190000000000000980000000000980002000000010410404191055492549287475330419000007019499   1020000200030000   333400010001204104000000281Myanmar Soft-Gate Tech Yangon        MMR11004191055492549280419000000000000000   10300001F05104100000000000206000000000000     
100   62911028202193670000000000292320000000292320002000000010410404191350042004956685900419000007020185   1030000900030000   333800010001202104000003301uab bank               Yangon        MMR11004191350042004950419000000000000000   10300001F05104100000000061387000000000000     
100   95030301100157400000000000000980000000000980002000000010410404190743351335886685900419000007018165   1020000200030000   333400010001204104000000281Myanmar Soft-Gate Tech Yangon        MMR11004190743351335880419000000000000000   10300001F05104100000000000206000000000000     
100   62911028202350170000000000300000000000300000002000000010410404190343381338096685900419000007016348   1030000200030000   333800010001203104000003327KBZPay                 Yangon        MMR11004190343381338090419000000000000000   10300001F05104100000000063000000000000000     
100   95050318712627500000000000012950000000012950002000000010410404190924352312756283970419857541535108   1030000900030000   541119001260190110000000958City Mart PLST C 3     YANGONMYOTHIT MMR11004190924352312750419000000000000000   10300001F00104100000000003238000000000000     
100   95050315557781210000000000005000000000005000002000000010410404190354372437967532840419000007016442   1030000200030000   3338000100012031040000040022C2P (Myanmar) Co. Ltd Yangon        MMR11004190354372437960419000000000000000   10300001F05104100000000001050000000000000     
100   95050316818236190000000000001960000000001960002000000010410404191041391139572688060419000007019442   1020000200030000   333400010001204104000000281Myanmar Soft-Gate Tech Yangon        MMR11004191041391139570419000000000000000   10300001F05104100000000000412000000000000     
100   95030301100124400000000000012452000000012452002000000010410404191053502334806685900419269231750108   1030000900030000   541119001264190110000000958City Mart PLST C 7     YANGONMYOTHIT MMR11004191053502334800419000000000000000   10300001F00104100000000000747000000000000     
100   62911028202514440000000000020000000000020000002000000010410404191200502350816685900419360301850108   1030000900030000   541119001191190110000000942City Mart HDC C 6      YANGONUT      MMR11004191200502350810419000000000000000   10300001F00104100000000001200000000000000     
100   95050312498129060000000000000980000000000980002000000010410404191046441644079042710419000007019467   1020000200030000   333400010001204104000000281Myanmar Soft-Gate Tech Yangon        MMR11004191046441644070419000000000000000   10300001F05104100000000000206000000000000     
100   62911028202078000000000000050000000000050000002000000010410404191141571157006685900419000007019695   1030000200030000   333800010001203104000003327KBZPay                 Yangon        MMR11004191141571157000419000000000000000   10300001F05104100000000010500000000000000     
100   95050312498129060000000000000980000000000980002000000010410404191253302330686404730419000007019966   1020000200030000   333400010001204104000000281Myanmar Soft-Gate Tech Yangon        MMR11004191253302330680419000000000000000   10300001F05104100000000000206000000000000     
100   62911028202489110000000000101205000000101205002000000010410404190117012534806685900419210908253480   1040001600030000   598320000658000000010000527Shwe Taung Energy (YGN Yangon        MMR11004190117012534800419000000000000000   10300001F00104100000000003036000000000000     
100   62911028202532910000000000087800000000087800002000000010410404190436262624656685900419210911262465   1040001600030000   541120000561000000010000465Ocean Shwe Gone Daing  Yangon        MMR11004190436262624650419000000000000000   10300001F00104100000000005268000000000000     
100   95050316638224720000000000002940000000002940002000000010410404190740421042614680940419000007018149   1020000200030000   333400010001204104000000281Myanmar Soft-Gate Tech Yangon        MMR11004190740421042610419000000000000000   10300001F05104100000000000617000000000000     
100   95050315557781210000000000012000000000012000002000000010410404191222585258623269950419000007019861   1040001600030000   333800010001220104000004507A +                    Yangon        MMR11004191222585258620419000000000000000   10300001F05104100000000002520000000000000     
100   95050314931885730000000000028000000000028000002000000010410404190425535553563681640419000007016658   1030000200030000   3338000100012031040000040022C2P (Myanmar) Co. Ltd Yangon        MMR11004190425535553560419000000000000000   10300001F05104100000000005880000000000000     
100   95050311559234320000000000004900000000004900002000000010410404190202253225968292990419000007015589   1020000200030000   333400010001204104000000281Myanmar Soft-Gate Tech Yangon        MMR11004190202253225960419000000000000000   10300001F05104100000000001029000000000000     
100   95050319938772870000000000001960000000001960002000000010410404191507063706010475560419000007020492   1020000200030000   333400010001204104000000281Myanmar Soft-Gate Tech Yangon        MMR11004191507063706010419000000000000000   10300001F05104100000000000412000000000000     
100   95050318575030940000000000004900000000004900002000000010410404191602573257645433010419000007020738   1020000200030000   333400010001204104000000281Myanmar Soft-Gate Tech Yangon        MMR11004191602573257640419000000000000000   10300001F05104100000000001029000000000000     
100   95050312498129060000000000000980000000000980002000000010410404190627585758259207190419000007017576   1020000200030000   333400010001204104000000281Myanmar Soft-Gate Tech Yangon        MMR11004190627585758250419000000000000000   10300001F05104100000000000206000000000000     
100   95050312498129060000000000001960000000001960002000000010410404191128535853805809050419000007019646   1020000200030000   333400010001204104000000281Myanmar Soft-Gate Tech Yangon        MMR11004191128535853800419000000000000000   10300001F05104100000000000412000000000000     
100   95050314287403810000000000002940000000002940002000000010410404190301453145772619110419000007016008   1020000200030000   333400010001204104000000281Myanmar Soft-Gate Tech Yangon        MMR11004190301453145770419000000000000000   10300001F05104100000000000617000000000000     
100   95050312695033440000000000000980000000000980002000000010410404191420445044417085490419000007020338   1020000200030000   333400010001204104000000281Myanmar Soft-Gate Tech Yangon        MMR11004191420445044410419000000000000000   10300001F05104100000000000206000000000000     
100   62911028202156540000000000060000000000060000002000000010410404190422368429596685900419750561057108   1030000300030000   555510125344104519000010634Asia Royal Co Ltd                    MMR11004190422368429590419000000000000000   10300001 00104100000000003600000000000000     
100   62911028202225850000000000021950000000021950002000000010410404190500008433726685900419181311102108   1030000500030000   555610110572104519000009164City Mart China Town P int Cen       MMR11004190500008433720419000000000000000   10300001 00104100000000001317000000000000     
100   62911028202290100000000000032050000000032050002000000010410404190610588443356685900419231411238108   1030000300030000   444410125393104519000021220Myanmar Bakery CoLtd                 MMR11004190610588443350419000000000000000   10300001 00104100000000003269000000000000     
100   95030314863516850000000000005500000000005500002000000010410404190503223322756685900419000007016951   1030000200030000   333800010001203104000003327KBZPay                 Yangon        MMR11004190503223322750419000000000000000   10300001F05104100000000001155000000000000     
100   95050325139996190000000000003300000000003300002000000010410404190304383438137321280419000007015942   1030000200030000   333300010001203104000003632Myanmar Tradenet Test  Yangon        MMR11004190304383438130419000000000000000   10300001F05104100000000010000000000000000     
100   95050311382087030000000000002940000000002940002000000010410404190412564256563511450419000007016571   1020000200030000   333400010001204104000000281Myanmar Soft-Gate Tech Yangon        MMR11004190412564256560419000000000000000   10300001F05104100000000000617000000000000     
