100   95050313616076540000000000031500000000031500002000000010410401030811514151147035760103000006378425   1030000200030000   333800010001203104000003327KBZPay                 Yangon        MMR11001030811514151140103000000000000000   10300001F05104100000000006615000000000000     
100   95050315158357300000000000035340000000035340002000000010410401030247464517479951290103510180913002   1030000300030000   555510117370104519000014768Medicare Store 1                     MMR11001030247464517470103000000000000000   10300001 00104100000000008482000000000000     
100   95050319753756490000000000010000000000010000002000000010410401031553512351930439610103000006381746   1030000200030000   333800010001203104000003327KBZPay                 Yangon        MMR11001031553512351930103000000000000000   10300001F05104100000000002100000000000000     
100   62443100347442560000000000150000000000150000002000000010410401030629084559831164110103933031340002   1030000300030000   555510124363104519000020166Makro Myanmar                        MMR11001030629084559830103000000000000000   10300001 00104100000000036000000000000000     
100   95050318601641810000000000000980000000000980002000000010410401030504133413822519940103000006376598   1020000200030000   333400010001204104000000281Myanmar Soft-Gate Tech Yangon        MMR11001030504133413820103000000000000000   10300001F05104100000000000206000000000000     
100   95030318100002710000000000002940000000002940002000000010410401030303073307407731100103000006375448   1020000200030000   333400010001204104000000281Myanmar Soft-Gate Tech Yangon        MMR11001030303073307400103000000000000000   10300001F05104100000000000617000000000000     
100   95050325305150830000000000001960000000001960002000000010410401031310564056330694900103000006380827   1020000200030000   333400010001204104000000281Myanmar Soft-Gate Tech Yangon        MMR11001031310564056330103000000000000000   10300001F05104100000000000412000000000000     
100   95050315396509660000000000005500000000005500002000000010410401030710014001143604320103000006377774   1030000200030000   333800010001203104000003327KBZPay                 Yangon        MMR11001030710014001140103000000000000000   10300001F05104100000000001155000000000000     
100   62911028202023630000000000020000000000020000002000000010410412300719430022047731101230136407002204   1030000600030000   554100001269315799420000723DENKO GYOBINGAUK       GYOBINGAUK    MMR11012300719430022041230000000000000000   10300001 00104100000000000600000000000000     
100   62911028202335820000000000035000000000035000002000000010410412301137240030007731101230136411003000   1030000600030000   554100000744315799420000322DENKO AMARAPURA-PACHI  MANDALAY      MMR11012301137240030001230000000000000000   10300001 00104100000000001050000000000000     
100   62443100369813440000000000015000000000015000002000000010410412292359540000973975421230136423000097   1030000600030000   554100002319315799420000477DENKO INSEIN           YANGON        MMR11012292359540000971230000000000000000   10300001 00104100000000001800000000000000     
100   62911028202023630000000000020000000000020000002000000010410412300926040036707731101230136409003670   1030000600030000   554100001812315799420001187DENKO  SHWE TAUNG      SHWE TAUNG    MMR11012300926040036701230000000000000000   10300001 00104100000000000600000000000000     
100   62911028202397530000000000027000000000027000002000000010410412292253500104937731101230136422010493   1030000600030000   554100001212315799420000664DENKO TA TAR OO        TA TAR OO     MMR11012292253500104931230000000000000000   10300001 00104100000000000810000000000000     
100   95030318100004530000000000020000000000020000002000000010410412300118000051287731101230136401005128   1030000600030000   554100001218315799420000670DENKO MAWLAMYAING      MON STATE.    MMR11012300118000051281230000000000000000   10300001 00104100000000000600000000000000     
100   62911028202110420000000000150500000000150500002000000010410412300128290076597731101230136401007659   1030000600030000   809900000538315799420000147GRAND HANTHA HOSPITAL  YANGON        MMR11012300128290076591230000000000000000   10300001 00104100000000009030000000000000     
100   62911028202204490000000000035000000000035000002000000010410412300117300539547731101230136401053954   1030000600030000   554100000946315799420000471DENKO BAHAN            YANGON        MMR11012300117300539541230000000000000000   10300001 00104100000000001050000000000000     
100   95050318511918960000000000040300000000040300002000000010410401030505433543076420580103000006376608   1030000200030000   333800010001203104000003327KBZPay                 Yangon        MMR11001030505433543070103000000000000000   10300001F05104100000000008463000000000000     
100   62443100335647210000000000006860000000006860002000000010410401031319114911731921900103000006380907   1020000200030000   333400010001204104000000281Myanmar Soft-Gate Tech Yangon        MMR11001031319114911730103000000000000000   10300001F05104100000000001441000000000000     
100   95050322343585250000000000300000000000300000002000000010410401030828095809460936400103000006378572   1030000200030000   333800010001203104000003327KBZPay                 Yangon        MMR11001030828095809460103000000000000000   10300001F05104100000000063000000000000000     
100   95050312139901420000000000075500000000075500002000000010410401031222045204025155560103000006380531   1030000200030000   333800010001203104000003327KBZPay                 Yangon        MMR11001031222045204020103000000000000000   10300001F05104100000000015855000000000000     
100   95050317376014640000000000007580000000007580002000000010410401031050294622824524240103537201758002   1030000300030000   555510125018104519000020916One Stop Kitchen Super arket 0001    MMR11001031050294622820103000000000000000   10300001 00104100000000001819000000000000     
100   95050314365758940000000000001960000000001960002000000010410401030229415941737053570103000006375161   1020000200030000   333400010001204104000000281Myanmar Soft-Gate Tech Yangon        MMR11001030229415941730103000000000000000   10300001F05104100000000000412000000000000     
100   95050317248519320000000000080000000000080000002000000010410401030926225622572234710103000006379132   1030000200030000   3338000100012031040000040022C2P (Myanmar) Co. Ltd Yangon        MMR11001030926225622570103000000000000000   10300001F05104100000000016800000000000000     
100   95050314365758940000000000005880000000005880002000000010410401030222315231705563210103000006375119   1020000200030000   333400010001204104000000281Myanmar Soft-Gate Tech Yangon        MMR11001030222315231700103000000000000000   10300001F05104100000000001235000000000000     
100   62911028202221220000000000010000000000010000002000000010410412292302560539277731101230136423053927   1030000600030000   554100000946315799420000471DENKO BAHAN            YANGON        MMR11012292302560539271230000000000000000   10300001 00104100000000000300000000000000     
100   62911028202110420000000000023500000000023500002000000010410412300153360076627731101230136401007662   1030000600030000   809900000538315799420000147GRAND HANTHA HOSPITAL  YANGON        MMR11012300153360076621230000000000000000   10300001 00104100000000001410000000000000     
100   95030301100127470000000000035000000000035000002000000010410412300514410540067731101230136405054006   1030000600030000   554100000946315799420000471DENKO BAHAN            YANGON        MMR11012300514410540061230000000000000000   10300001 00104100000000001050000000000000     
100   95050312539675540000000000001500000000001500002000000010410412290618080025159124931229136306002515   1030000600030000   554100002139315799420001488DENKO MDY-12           MANDALAY      MMR11012290618080025151229000000000000000   10300001 00104100000000000180000000000000     
100   62911028202809060000000000024486000000024486002000000010410412290252390090367731101229136302009036   1030000600030000   581200000524315799420000141FUJI COFFEE HOUSE      YANGON        MMR11012290252390090361229000000000000000   10300001 00104100000000002498000000000000     
100   95030305700676370000000000080000000000080000002000000010410412290735380272637731101229136307027263   1030000600030000   554100001106315799420000564DENKO PHYUU            PHYUU         MMR11012290735380272631229000000000000000   10300001 00104100000000002400000000000000     
100   62911028202116610000000000040000000000040000002000000010410401020945210080807731100102200216008080   1030000500030000   598320001601000015172200016MAX ENERGY                           MMR11001020945210080800102000000000000000   10300001 00104100000000001200000000000000     
100   62443100363668680000000000033000000000033000002000000010410401021052320057939034340102200217005793   1030000500030000   598320002102000015172200021MAX ENERGY                           MMR11001021052320057930102000000000000000   10300001 00104100000000003960000000000000     
100   62911028202418410000000000034050000000034050002000000010410401030938527163667731100103200316716366   1040001600030000   591220000258000000010000246Shwe Ohh Pharmacy (Sin Yangon        MMR11001030938527163660103000000000000000   10300001F00104100000000002043000000000000     
100   95050314678446070000000000100000000000100000002000000010410401030832364587878397300103681031531002   1030000300030000   555610103657104519000003559Capital Hypermarket Da bon           MMR11001030832364587870103000000000000000   10300001 00104100000000025000000000000000     
100   62911028202520120000000000030000000000030000002000000010410401031013504613447731100103197441640002   1030000300030000   888810125458104519000021285Shwe Taung Energy CoLt               MMR11001031013504613440103000000000000000   10300001 00104100000000000900000000000000     
100   62443100389971990000000000010000000000010000002000000010410401030429465946046349270103000006376264   1030000200030000   333800010001203104000003327KBZPay                 Yangon        MMR11001030429465946040103000000000000000   10300001F05104100000000002100000000000000     
100   62443101025940470000000000100000000000100000002000000010410401030323535353844585780103000006375637   1030000200030000   333800010001203104000003327KBZPay                 Yangon        MMR11001030323535353840103000000000000000   10300001F05104100000000021000000000000000     
100   95050315122972560000000000001960000000001960002000000010410401031126255625877779760103000006380128   1020000200030000   333400010001204104000000281Myanmar Soft-Gate Tech Yangon        MMR11001031126255625870103000000000000000   10300001F05104100000000000412000000000000     
100   95050316573091630000000000004900000000004900002000000010410401030425065506961384430103000006376217   1020000200030000   333400010001204104000000281Myanmar Soft-Gate Tech Yangon        MMR11001030425065506960103000000000000000   10300001F05104100000000001029000000000000     
100   95050329192229210000000001000000000001000000002000000010410401030915074598410156740103204471519002   1030000300030000   555510119008104519000016170Z N T Mobile                         MMR11001030915074598410103000000000000000   10300001 00104100000000240000000000000000     
100   62911028202175770000000000022700000000022700002000000010410401020911100006187731100102200215000618   1030000500030000   569120044601000015691200446AMERICAN BRANDED COLLE               MMR11001020911100006180102000000000000000   10300001 00104100000000001362000000000000     
100   62911028202287720000000000066547000000066547002000000010410401020342470018267731100102200210001826   1030000500030000   541120020901022205411200209ORANGE (HLAING)                      MMR11001020342470018260102000000000000000   10300001 00104100000000003993000000000000     
100   95030301100183220000000000039000000000039000002000000010410401020033260015237731100102200207001523   1030000500030000   598320041903000055983200419MAX ENERGY                           MMR11001020033260015230102000000000000000   10300001 00104100000000001170000000000000     
100   62443100390038980000000000050000000000050000002000000010410412290215590271978877711229136302027197   1030000600030000   554100001106315799420000564DENKO PHYUU            PHYUU         MMR11012290215590271971229000000000000000   10300001 00104100000000006000000000000000     
100   62911028202169750000000000021002000000021002002000000010410401021053100057377731100102200217005737   1030000500030000   598320002101000015172200021MAX ENERGY                           MMR11001021053100057370102000000000000000   10300001 00104100000000000630000000000000     
100   95050318214455130000000000004900000000004900002000000010410401030803573357973148900103000006378347   1020000200030000   333400010001204104000000281Myanmar Soft-Gate Tech Yangon        MMR11001030803573357970103000000000000000   10300001F05104100000000001029000000000000     
100   62911028202213220000000000029462000000029462002000000010410401030252220012527731100103000740713052   1030000200030000   541188001010000008000000008KBZ BANK               MARKETPLACE - MMR11001030252220012520103000000000000000   10300001 00104100000000001768000000000000     
100   95050328246950960000000000007800000000007800002000000010410401031022160002673942350103000740751156   1030000200030000   591288001557000008000005038KBZ BANK               ORCHID (TM)   MMR11001031022160002670103000000000000000   10300001 00104100000000001872000000000000     
100   62911028202067520000000000002940000000002940002000000010410401030217194719487731100103000006375082   1020000200030000   333400010001204104000000281Myanmar Soft-Gate Tech Yangon        MMR11001030217194719480103000000000000000   10300001F05104100000000000617000000000000     
100   62911028202148970000000000010600000000010600002000000010410401030909154597717731100103082441522002   1030000500030000   555610110572104519000009164City Mart China Town P int Cen       MMR11001030909154597710103000000000000000   10300001 00104100000000000636000000000000     
100   95050318057347910000000000000980000000000980002000000010410401030825595559189198820103000006378543   1020000200030000   333400010001204104000000281Myanmar Soft-Gate Tech Yangon        MMR11001030825595559180103000000000000000   10300001F05104100000000000206000000000000     
100   95050310685238570000000000000980000000000980002000000010410401030827275727869283920103000006378559   1020000200030000   333400010001204104000000281Myanmar Soft-Gate Tech Yangon        MMR11001030827275727860103000000000000000   10300001F05104100000000000206000000000000     
100   95050313113158460000000000000980000000000980002000000010410401030427565756132278440103000006376250   1020000200030000   333400010001204104000000281Myanmar Soft-Gate Tech Yangon        MMR11001030427565756130103000000000000000   10300001F05104100000000000206000000000000     
100   62911028202441420000000000061300000000061300002000000010410401030844457137707731100103200315713770   1040001600030000   591220000278000000010000266Shwe Ohh Pharmacy (Bah Yangon        MMR11001030844457137700103000000000000000   10300001F00104100000000003678000000000000     
100   95050315122972560000000000001960000000001960002000000010410401031128165816656127280103000006380142   1020000200030000   333400010001204104000000281Myanmar Soft-Gate Tech Yangon        MMR11001031128165816650103000000000000000   10300001F05104100000000000412000000000000     
100   95050318608138520000000000022750000000022750002000000010410401030928554601437958030103627001618002   1030000500030000   555610110597104519000009166City Mart 47 Branch                  MMR11001030928554601430103000000000000000   10300001 00104100000000005688000000000000     
100   62443101072700490000000000100750000000100750002000000010410401030739210009630645460103000740738590   1030000200030000   541188001179000008000000383KBZ BANK               OCEAN SUPER C MMR11001030739210009630103000000000000000   10300001 00104100000000025188000000000000     
100   95050318134586070000000000053300000000053300002000000010410401030927150032530667320103000740746814   1030000200030000   541188001316000008000000306KBZ BANK               CITY MART - S MMR11001030927150032530103000000000000000   10300001 00104100000000013325000000000000     
100   95050318317382610000000000015069000000015069002000000010410401030348000013255002180103000740716052   1030000200030000   541188001429000008000000401KBZ BANK               OCEAN SUPERCE MMR11001030348000013250103000000000000000   10300001 00104100000000003768000000000000     
100   62911028202068690000000000043200000000043200002000000010410401030957570022935927810103000740749417   1030000200030000   541188001424000008000000401KBZ BANK               OCEAN SUPERCE MMR11001030957570022930103000000000000000   10300001 00104100000000002592000000000000     
100   95050319161596230000000000000980000000000980002000000010410401031131410141631169830103000006380166   1020000200030000   333400010001204104000000281Myanmar Soft-Gate Tech Yangon        MMR11001031131410141630103000000000000000   10300001F05104100000000000206000000000000     
100   62911028202148300000000000032686000000032686002000000010410401031217540210407731100103000740759889   1030000200030000   541188001039000008000000010KBZ BANK               MARKETPLACE - MMR11001031217540210400103000000000000000   10300001 00104100000000001961000000000000     
100   95050313411345710000000000005000000000005000002000000010410401030240081008406443080103000006375216   1030000200030000   333800010001203104000003327KBZPay                 Yangon        MMR11001030240081008400103000000000000000   10300001F05104100000000001050000000000000     
100   95050316818236190000000000001960000000001960002000000010410401031136230623789517340103000006380185   1020000200030000   333400010001204104000000281Myanmar Soft-Gate Tech Yangon        MMR11001031136230623780103000000000000000   10300001F05104100000000000412000000000000     
100   62911028202342910000000000016000000000016000002000000010410401031027594621637731100103357161743002   1030000500030000   555610103955104519000003818Ocean Oattara Thiri Na PyiTaw        MMR11001031027594621630103000000000000000   10300001 00104100000000000960000000000000     
100   62911028202151910000000000040000000000040000002000000010410401031031114619177731100103014081704002   1030000500030000   888810111231104519000009668Max Energy CoLtd 7                   MMR11001031031114619170103000000000000000   10300001 00104100000000001200000000000000     
100   62911028202471370000000000034046000000034046002000000010410401031118434630007731100103572511708002   1030000500030000   555610112234104519000010487Ocean Super Center St  ohn           MMR11001031118434630000103000000000000000   10300001 00104100000000002043000000000000     
100   95050315919368400000000000042000000000042000002000000010410401030625465546160653530103000006377391   1030000400030000   333800010001205104000002931ONE PAY COMPANY LTD    Yangon        MMR11001030625465546160103000000000000000   10300001F05104100000000008820000000000000     
100   95050311931431670000000000009800000000009800002000000010410401030416584658550319530103000006376129   1020000200030000   333400010001204104000000281Myanmar Soft-Gate Tech Yangon        MMR11001030416584658550103000000000000000   10300001F05104100000000002058000000000000     
100   62911028202777790000000000015000000000015000002000000010410401031621345134457731100103000006381850   1030000200030000   333800010001203104000003327KBZPay                 Yangon        MMR11001031621345134450103000000000000000   10300001F05104100000000003150000000000000     
100   95050316438375580000000000000980000000000980002000000010410401031521575157832092090103000006381602   1020000200030000   333400010001204104000000281Myanmar Soft-Gate Tech Yangon        MMR11001031521575157830103000000000000000   10300001F05104100000000000206000000000000     
100   95050316653112190000000000037300000000037300002000000010410401030921585158732490000103000006379096   1030000200030000   333800010001203104000003327KBZPay                 Yangon        MMR11001030921585158730103000000000000000   10300001F05104100000000007833000000000000     
100   95050312695033440000000000002940000000002940002000000010410401030247271727464702970103000006375285   1020000200030000   333400010001204104000000281Myanmar Soft-Gate Tech Yangon        MMR11001030247271727460103000000000000000   10300001F05104100000000000617000000000000     
100   62911028202000450000000000001960000000001960002000000010410401030342201220867731100103000006375791   1020000200030000   333400010001204104000000281Myanmar Soft-Gate Tech Yangon        MMR11001030342201220860103000000000000000   10300001F05104100000000000412000000000000     
100   62911028202355870000000000260000000000260000002000000010410401030744061406165125100103000006378061   1030000200030000   333800010001203104000003327KBZPay                 Yangon        MMR11001030744061406160103000000000000000   10300001F05104100000000054600000000000000     
100   95050316438375580000000000001960000000001960002000000010410401030534340434230101590103000006376919   1020000200030000   333400010001204104000000281Myanmar Soft-Gate Tech Yangon        MMR11001030534340434230103000000000000000   10300001F05104100000000000412000000000000     
100   95050323667276610000000000038220000000038220002000000010410401030338120812006202610103000006375750   1020000200030000   333400010001204104000000281Myanmar Soft-Gate Tech Yangon        MMR11001030338120812000103000000000000000   10300001F05104100000000008026000000000000     
100   95050315150726490000000000000980000000000980002000000010410401031249441944918957320103000006380699   1020000200030000   333400010001204104000000281Myanmar Soft-Gate Tech Yangon        MMR11001031249441944910103000000000000000   10300001F05104100000000000206000000000000     
100   95050323133124350000000000010000000000010000002000000010410401030849011901048894090103000006378777   1030000200030000   333800010001203104000003327KBZPay                 Yangon        MMR11001030849011901040103000000000000000   10300001F05104100000000002100000000000000     
100   95050318694773110000000000000980000000000980002000000010410401031442251225257049540103000006381404   1020000200030000   333400010001204104000000281Myanmar Soft-Gate Tech Yangon        MMR11001031442251225250103000000000000000   10300001F05104100000000000206000000000000     
100   95050313411345710000000000005000000000005000002000000010410401031021145114505594830103000006379627   1030000200030000   333800010001203104000003327KBZPay                 Yangon        MMR11001031021145114500103000000000000000   10300001F05104100000000001050000000000000     
100   95030301100119620000000000088500000000088500002000000010410401030518067037384248800103200312703738   1040001600030000   591220000276000000010000264Shwe Ohh Pharmacy (YGH Yangon        MMR11001030518067037380103000000000000000   10300001F00104100000000005310000000000000     
100   95030302131871490000000000002940000000002940002000000010410401031216124612697731100103000006380488   1020000200030000   333400010001204104000000281Myanmar Soft-Gate Tech Yangon        MMR11001031216124612690103000000000000000   10300001F05104100000000000617000000000000     
100   95050310816569570000000000110000000000110000002000000010410401031028495849600623590103000006379694   1030000200030000   333800010001203104000003327KBZPay                 Yangon        MMR11001031028495849600103000000000000000   10300001F05104100000000023100000000000000     
100   95050316124652250000000000013000000000013000002000000010410401031020524615508899800103484521617002   1030000300030000   555510116506104519000014097MGOU                                 MMR11001031020524615500103000000000000000   10300001 00104100000000003120000000000000     
100   95050316949180000000000000005880000000005880002000000010410401030324365436629117760103000006375641   1020000200030000   333400010001204104000000281Myanmar Soft-Gate Tech Yangon        MMR11001030324365436620103000000000000000   10300001F05104100000000001235000000000000     
100   62911028202417260000000000045500000000045500002000000010410401030951037170377731100103200316717037   1040001600030000   591220000258000000010000246Shwe Ohh Pharmacy (Sin Yangon        MMR11001030951037170370103000000000000000   10300001F00104100000000002730000000000000     
100   62911028202130710000000000007550000000007550002000000010410401031032384617727731100103826021721002   1030000500030000   555610103466104519000003420City Mart Yankin Cente 5             MMR11001031032384617720103000000000000000   10300001 00104100000000000453000000000000     
100   95050318646071770000000000053000000000053000002000000010410401030341381138503067840103000006375781   1030000200030000   333800010001203104000003327KBZPay                 Yangon        MMR11001030341381138500103000000000000000   10300001F05104100000000011130000000000000     
100   62443100330108240000000000020000000000020000002000000010410401030540121012948114430103000006376983   1030000200030000   333800010001203104000003327KBZPay                 Yangon        MMR11001030540121012940103000000000000000   10300001F05104100000000004200000000000000     
100   95050315474529910000000000000980000000000980002000000010410401031146021602099262050103000006380250   1020000200030000   333400010001204104000000281Myanmar Soft-Gate Tech Yangon        MMR11001031146021602090103000000000000000   10300001F05104100000000000206000000000000     
100   62911028202492160000000000010350000000010350002000000010410401030516170116087731100103000740725544   1030000200030000   541188001055000008000000314KBZ BANK               MARKETPLACE - MMR11001030516170116080103000000000000000   10300001 00104100000000000621000000000000     
100   95050316818236190000000000000980000000000980002000000010410401031143141314465957080103000006380237   1020000200030000   333400010001204104000000281Myanmar Soft-Gate Tech Yangon        MMR11001031143141314460103000000000000000   10300001F05104100000000000206000000000000     
100   95050319156011610000000000002940000000002940002000000010410401030554032403055745520103000006377093   1020000200030000   333400010001204104000000281Myanmar Soft-Gate Tech Yangon        MMR11001030554032403050103000000000000000   10300001F05104100000000000617000000000000     
100   62911028202355870000000000200000000000200000002000000010410401030747151715095143910103000006378138   1030000200030000   333800010001203104000003327KBZPay                 Yangon        MMR11001030747151715090103000000000000000   10300001F05104100000000042000000000000000     
100   95030301100120850000000000010000000000010000002000000010410401030241421142377731100103000006375228   1030000200030000   333800010001203104000003327KBZPay                 Yangon        MMR11001030241421142370103000000000000000   10300001F05104100000000002100000000000000     
100   95050312695033440000000000000980000000000980002000000010410401031327135713070269420103000006380963   1020000200030000   333400010001204104000000281Myanmar Soft-Gate Tech Yangon        MMR11001031327135713070103000000000000000   10300001F05104100000000000206000000000000     
100   95050314365758940000000000001960000000001960002000000010410401030227465746707761950103000006375150   1020000200030000   333400010001204104000000281Myanmar Soft-Gate Tech Yangon        MMR11001030227465746700103000000000000000   10300001F05104100000000000412000000000000     
100   62443100389971990000000000020000000000020000002000000010410401030921245124890326940103000006379089   1030000200030000   333800010001203104000003327KBZPay                 Yangon        MMR11001030921245124890103000000000000000   10300001F05104100000000004200000000000000     
100   62911028202212490000000000006400000000006400002000000010410401031001197801087731100103263311619002   1030000900030000   581219000715190110000000546Akkhaya Tea House(Dago YANGON        MMR11001031001197801080103000000000000000   10300001F00104100000000000653000000000000     
100   95050319286546940000000000042700000000042700002000000010410401030236087680266659120103265060908002   1030000900030000   591219000601190110000000441Shwe Ohh Pharmacy St-3 YANGON        MMR11001030236087680260103000000000000000   10300001F00104100000000010248000000000000     
100   62443100312243020000000000012900000000012900002000000010410401031009597804184112540103456391659002   1030000900030000   541119000120190110000000080Sein Gay Har BAK       YANGONADA     MMR11001031009597804180103000000000000000   10300001F00104100000000003225000000000000     
100   62911028202148300000000000038745000000038745002000000010410401031314237850497731100103138441923002   1030000900030000   581219000230190110000000129MinLan Restaurant(Maya YANGONONE     MMR11001031314237850490103000000000000000   10300001F00104100000000003952000000000000     
100   62911028202223530000000000008000000000008000002000000010410401030900217781155591900103046301521002   1030000900030000   541119000179190110000000086SeinGayHar (Hlaing Tha YANGONTHARYA  MMR11001030900217781150103000000000000000   10300001F00104100000000000480000000000000     
100   95050317176867660000000000000980000000000980002000000010410401030741001100422383040103000006378071   1020000200030000   333400010001204104000000281Myanmar Soft-Gate Tech Yangon        MMR11001030741001100420103000000000000000   10300001F05104100000000000206000000000000     
100   95050317072727910000000000001960000000001960002000000010410401030434270427707831570103000006376286   1020000200030000   333400010001204104000000281Myanmar Soft-Gate Tech Yangon        MMR11001030434270427700103000000000000000   10300001F05104100000000000412000000000000     
100   95050314365758940000000000002940000000002940002000000010410401030336070607368025290103000006375735   1020000200030000   333400010001204104000000281Myanmar Soft-Gate Tech Yangon        MMR11001030336070607360103000000000000000   10300001F05104100000000000617000000000000     
100   95030321939721770000000000000980000000000980002000000010410401030347351735717731100103000006375827   1020000200030000   333400010001204104000000281Myanmar Soft-Gate Tech Yangon        MMR11001030347351735710103000000000000000   10300001F05104100000000000206000000000000     
100   95050318694773110000000000002940000000002940002000000010410401031433150315668702030103000006381356   1020000200030000   333400010001204104000000281Myanmar Soft-Gate Tech Yangon        MMR11001031433150315660103000000000000000   10300001F05104100000000000617000000000000     
100   95050314365758940000000000002940000000002940002000000010410401031236560656563829670103000006380626   1020000200030000   333400010001204104000000281Myanmar Soft-Gate Tech Yangon        MMR11001031236560656560103000000000000000   10300001F05104100000000000617000000000000     
100   95050316785465380000000000000980000000000980002000000010410401030848021802154993440103000006378768   1020000200030000   333400010001204104000000281Myanmar Soft-Gate Tech Yangon        MMR11001030848021802150103000000000000000   10300001F05104100000000000206000000000000     
100   62911028202503210000000000039800000000039800002000000010410401030626330107987731100103000740731864   1030000200030000   541188001037000008000000010KBZ BANK               MARKETPLACE - MMR11001030626330107980103000000000000000   10300001 00104100000000002388000000000000     
100   95030337113021520000000000010450000000010450002000000010410401030601457727557731100103758311245002   1030000900030000   541119001250190110000000955City Mart JS C 9       YANGONUT      MMR11001030601457727550103000000000000000   10300001F00104100000000000627000000000000     
100   62911028202151910000000000046000000000046000002000000010410401030735117755087731100103445051411002   1030000900030000   581219000856190110000000669The Marina Indian Rest YANGON        MMR11001030735117755080103000000000000000   10300001F00104100000000004692000000000000     
100   62911028202204490000000000019900000000019900002000000010410401030354537695467731100103941241053002   1030000900030000   581219000715190110000000546Akkhaya Tea House(Dago YANGON        MMR11001030354537695460103000000000000000   10300001F00104100000000002030000000000000     
100   62911028202133520000000000005382000000005382002000000010410401031140357835597731100103497101835002   1030000900030000   541119001196190110000000942City Mart HDC C 11     YANGONUT      MMR11001031140357835590103000000000000000   10300001F00104100000000000323000000000000     
100   95050321204334990000000000025300000000025300002000000010410401030526557718681073300103234561155002   1030000900030000   541119001249190110000000955City Mart JS C 8       YANGONUT      MMR11001030526557718680103000000000000000   10300001F00104100000000006325000000000000     
100   62911028202296480000000000015000000000015000002000000010410401030506287713797731100103961361128002   1030000900030000   554119000345190110000000212New Day Energy PZD     YANGONAUNG    MMR11001030506287713790103000000000000000   10300001F00104100000000000450000000000000     
100   95030351675575850000000000186300000000186300002000000010410401030541287722697731100103475111228002   1030000900030000   541119000282190110000000177Pro1 Global (Insein)   YANGON        MMR11001030541287722690103000000000000000   10300001F00104100000000011178000000000000     
100   95050318964967630000000000032650000000032650002000000010410401030824537770447546330103416541453002   1030000900030000   541119001262190110000000958City Mart PLST C 5     YANGONMYOTHIT MMR11001030824537770440103000000000000000   10300001F00104100000000008163000000000000     
100   95050311048637960000000000007338000000007338002000000010410401031018540054723857250103000740750895   1030000200030000   541188001081000008000000294KBZ BANK               CITY MART - J MMR11001031018540054720103000000000000000   10300001 00104100000000001835000000000000     
100   95050319161596230000000000000980000000000980002000000010410401030147421742740902090103000006374939   1020000200030000   333400010001204104000000281Myanmar Soft-Gate Tech Yangon        MMR11001030147421742740103000000000000000   10300001F05104100000000000206000000000000     
100   95050317942168830000000000001960000000001960002000000010410401030346491649477259420103000006375839   1020000200030000   333400010001204104000000281Myanmar Soft-Gate Tech Yangon        MMR11001030346491649470103000000000000000   10300001F05104100000000000412000000000000     
100   95050310794962000000000000005000000000005000002000000010410401030553432343247312910103000006377089   1030000200030000   3338000100012031040000040022C2P (Myanmar) Co. Ltd Yangon        MMR11001030553432343240103000000000000000   10300001F05104100000000001050000000000000     
100   95050321455580800000000000148000000000148000002000000010410401030732340234225517810103000006377978   1030000200030000   333800010001203104000003327KBZPay                 Yangon        MMR11001030732340234220103000000000000000   10300001F05104100000000031080000000000000     
100   95030304441505280000000002800250000002800250002000000010410401030755002500525190500103000006378239   1010000100030000   333500010001212104000003087Internal Revenue Depar Yangon        MMR11001030755002500520103000000000000000   10300001F05104100000000060000000000000000     
100   95050319161596230000000000000980000000000980002000000010410401030835270527801361880103000006378629   1020000200030000   333400010001204104000000281Myanmar Soft-Gate Tech Yangon        MMR11001030835270527800103000000000000000   10300001F05104100000000000206000000000000     
100   95050312926040930000000000002940000000002940002000000010410401031148521852680999630103000006380279   1020000200030000   333400010001204104000000281Myanmar Soft-Gate Tech Yangon        MMR11001031148521852680103000000000000000   10300001F05104100000000000617000000000000     
100   95050310616516480000000000011650000000011650002000000010410401030831277772426744820103538011527002   1030000900030000   541119001260190110000000958City Mart PLST C 3     YANGONMYOTHIT MMR11001030831277772420103000000000000000   10300001F00104100000000002913000000000000     
100   95050326689257240000000000089450000000089450002000000010410401030856257779931057150103971261525002   1030000900030000   541119001266190110000000958City Mart PLST C9      YANGONMYOTHIT MMR11001030856257779930103000000000000000   10300001F00104100000000022363000000000000     
100   62911028202223530000000000030000000000030000002000000010410401031003017801717731100103303331601002   1030000900030000   541119000302190110000000184Super One Shopping Mal YANGONTHARYA  MMR11001031003017801710103000000000000000   10300001F00104100000000001800000000000000     
100   95050324104751500000000000151850000000151850002000000010410401031039107203172701560103200317720317   1040001600030000   591220000285000000010000273Shwe Ohh Pharmacy (47t Yangon        MMR11001031039107203170103000000000000000   10300001F00104100000000036444000000000000     
100   62443100330105920000000000021600000000021600002000000010410401031216507843843843470103956461850002   1030000900030000   581219001144190110000000923Classic Garden         YANGON        MMR11001031216507843840103000000000000000   10300001F00104100000000009180000000000000     
100   62911028202417260000000000111500000000111500002000000010410401030951557170907731100103200316717090   1040001600030000   591220000258000000010000246Shwe Ohh Pharmacy (Sin Yangon        MMR11001030951557170900103000000000000000   10300001F00104100000000006690000000000000     
100   62443100395250310000000000000980000000000980002000000010410401031312384238045652350103000006380842   1020000200030000   333400010001204104000000281Myanmar Soft-Gate Tech Yangon        MMR11001031312384238040103000000000000000   10300001F05104100000000000206000000000000     
100   95030351675575850000000000790000000000790000002000000010410401030529227719337731100103277591122002   1030000900030000   541119000287190110000000177Pro1 Global (Insein)   YANGON        MMR11001030529227719330103000000000000000   10300001F00104100000000047400000000000000     
100   62911028202000450000000000002940000000002940002000000010410401030344171417147731100103000006375816   1020000200030000   333400010001204104000000281Myanmar Soft-Gate Tech Yangon        MMR11001030344171417140103000000000000000   10300001F05104100000000000617000000000000     
100   95050324154190880000000000002940000000002940002000000010410401030544191419984639270103000006377006   1020000200030000   333400010001204104000000281Myanmar Soft-Gate Tech Yangon        MMR11001030544191419980103000000000000000   10300001F05104100000000000617000000000000     
100   95050314365758940000000000000980000000000980002000000010410401030345361536353614070103000006375824   1020000200030000   333400010001204104000000281Myanmar Soft-Gate Tech Yangon        MMR11001030345361536350103000000000000000   10300001F05104100000000000206000000000000     
100   95050312940629360000000000014000000000014000002000000010410401030550032003971674680103000006377052   1030000200030000   333800010001203104000003327KBZPay                 Yangon        MMR11001030550032003970103000000000000000   10300001F05104100000000002940000000000000     
100   95050327416134790000000000015500000000015500002000000010410401030455342534848718180103000006376477   1030000200030000   3333000100012031040000040282C2P (Myanmar) Co. Ltd Yangon        MMR11001030455342534840103000000000000000   10300001F05104100000000010000000000000000     
100   62911028202161240000000000018717000000018717002000000010410401030527410097454306200103000740726550   1030000200030000   541188001020000008000000298KBZ BANK               CITY MART - M MMR11001030527410097450103000000000000000   10300001 00104100000000001123000000000000     
100   62911028202355870000000000300000000000300000002000000010410401030734510451347731100103000006378009   1030000200030000   333800010001203104000003327KBZPay                 Yangon        MMR11001030734510451340103000000000000000   10300001F05104100000000063000000000000000     
100   95050316049877640000000000000980000000000980002000000010410401030557232723678795200103000006377119   1020000200030000   333400010001204104000000281Myanmar Soft-Gate Tech Yangon        MMR11001030557232723670103000000000000000   10300001F05104100000000000206000000000000     
100   95050313123223200000000000007950000000007950002000000010410401030922437155684142480103200316715568   1040001600030000   591220000295000000010000283Shwe Ohh Pharmacy (39t Yangon        MMR11001030922437155680103000000000000000   10300001F00104100000000001908000000000000     
100   95050311559234320000000000018620000000018620002000000010410401031108303830661985130103000006380012   1020000200030000   333400010001204104000000281Myanmar Soft-Gate Tech Yangon        MMR11001031108303830660103000000000000000   10300001F05104100000000003910000000000000     
100   95050313702988830000000000002940000000002940002000000010410401030015214521826642580103000006374706   1020000200030000   333400010001204104000000281Myanmar Soft-Gate Tech Yangon        MMR11001030015214521820103000000000000000   10300001F05104100000000000617000000000000     
100   62911028202170490000000000025054000000025054002000000010410401030759080155647731100103000740740218   1030000200030000   541188001040000008000000010KBZ BANK               MARKETPLACE - MMR11001030759080155640103000000000000000   10300001 00104100000000001503000000000000     
100   62911028202447120000000000068350000000068350002000000010410401030710234568607731100103098421331002   1030000500030000   555610114572104519000012532City Mart Ahlone Branc               MMR11001030710234568600103000000000000000   10300001 00104100000000004101000000000000     
100   62911028202500810000000000029400000000029400002000000010410401020534050004787731100102200212000478   1030000500030000   804320041601000018043200416ZEEKWEK EYEWEAR                      MMR11001020534050004780102000000000000000   10300001 00104100000000001764000000000000     
100   62911028202404130000000000002850000000002850002000000010410401030840517775405475010103718101551002   1030000900030000   541119001196190110000000942City Mart HDC C 11     YANGONUT      MMR11001030840517775400103000000000000000   10300001F00104100000000000171000000000000     
100   95050315474529910000000000000980000000000980002000000010410401031315324532278616930103000006380854   1020000200030000   333400010001204104000000281Myanmar Soft-Gate Tech Yangon        MMR11001031315324532270103000000000000000   10300001F05104100000000000206000000000000     
100   95050322252092650000000000063800000000063800002000000010410401031039410061804354040103000740752436   1030000200030000   541188001361000008000000395KBZ BANK               OCEAN SUPERMA MMR11001031039410061800103000000000000000   10300001 00104100000000015950000000000000     
100   62911028202503210000000000004000000000004000002000000010410401030632140079997731100103000740732359   1030000200030000   541188001047000008000000010KBZ BANK               MARKETPLACE - MMR11001030632140079990103000000000000000   10300001 00104100000000000240000000000000     
100   95050312695033440000000000000980000000000980002000000010410401030248541854140944580103000006375301   1020000200030000   333400010001204104000000281Myanmar Soft-Gate Tech Yangon        MMR11001030248541854140103000000000000000   10300001F05104100000000000206000000000000     
100   95050326393773020000000000002940000000002940002000000010410401030648541854956703450103000006377588   1020000200030000   333400010001204104000000281Myanmar Soft-Gate Tech Yangon        MMR11001030648541854950103000000000000000   10300001F05104100000000000617000000000000     
100   62911028202355870000000000240000000000240000002000000010410401030745111511267731100103000006378124   1030000200030000   333800010001203104000003327KBZPay                 Yangon        MMR11001030745111511260103000000000000000   10300001F05104100000000050400000000000000     
100   62911028202067520000000000001960000000001960002000000010410401030354182418537731100103000006375916   1020000200030000   333400010001204104000000281Myanmar Soft-Gate Tech Yangon        MMR11001030354182418530103000000000000000   10300001F05104100000000000412000000000000     
100   95050314557307430000000000002940000000002940002000000010410401031055352535383552520103000006379907   1020000200030000   333400010001204104000000281Myanmar Soft-Gate Tech Yangon        MMR11001031055352535380103000000000000000   10300001F05104100000000000617000000000000     
100   95050317942168830000000000000980000000000980002000000010410401030408163816081740950103000006376041   1020000200030000   333400010001204104000000281Myanmar Soft-Gate Tech Yangon        MMR11001030408163816080103000000000000000   10300001F05104100000000000206000000000000     
100   95050320093758110000000000024550000000024550002000000010410401031041170092476091620103000740752578   1030000200030000   541188001349000008000000395KBZ BANK               OCEAN SUPERMA MMR11001031041170092470103000000000000000   10300001 00104100000000006138000000000000     
100   95050316272022660000000000001960000000001960002000000010410401031209093909283417980103000006380438   1020000200030000   333400010001204104000000281Myanmar Soft-Gate Tech Yangon        MMR11001031209093909280103000000000000000   10300001F05104100000000000412000000000000     
100   95050318597867880000000000055350000000055350002000000010410401030920045004711979420103000006379079   1030000200030000   333800010001203104000003327KBZPay                 Yangon        MMR11001030920045004710103000000000000000   10300001F05104100000000011624000000000000     
100   95050313441999020000000000000980000000000980002000000010410401031124585458678921670103000006380121   1020000200030000   333400010001204104000000281Myanmar Soft-Gate Tech Yangon        MMR11001031124585458670103000000000000000   10300001F05104100000000000206000000000000     
100   62911028202469800000000000125000000000125000002000000010410401030459214539457731100103296301117002   1030000300030000   555510121358104519000018014Jericho Cosmetic                     MMR11001030459214539450103000000000000000   10300001 00104100000000007500000000000000     
100   95050318052625040000000000009000000000009000002000000010410412300246310040630060991230136402004063   1030000600030000   549900002153315799420001502EASY MART- 003         YANGON        MMR11012300246310040631230000000000000000   10300001 00104100000000003825000000000000     
100   95050315158357300000000000002700000000002700002000000010410401030353004526930179320103666231046002   1030000300030000   555510124468104519000020553MEDiCARE Store 35                    MMR11001030353004526930103000000000000000   10300001 00104100000000000648000000000000     
100   95050319604564870000000000017000000000017000002000000010410401030900123012269064280103000006378898   1030000200030000   333800010001203104000003327KBZPay                 Yangon        MMR11001030900123012260103000000000000000   10300001F05104100000000003570000000000000     
100   95030393174848800000000000034500000000034500002000000010410401030615584555767731100103383461216002   1030000500030000   555610110560104519000009163City Mart Ayeyarwon Br nch           MMR11001030615584555760103000000000000000   10300001 00104100000000002070000000000000     
100   95050312695033440000000000000980000000000980002000000010410401031353392339650354510103000006381132   1020000200030000   333400010001204104000000281Myanmar Soft-Gate Tech Yangon        MMR11001031353392339650103000000000000000   10300001F05104100000000000206000000000000     
100   95050314893649800000000000004900000000004900002000000010410401031001193119911864380103000006379465   1020000200030000   333400010001204104000000281Myanmar Soft-Gate Tech Yangon        MMR11001031001193119910103000000000000000   10300001F05104100000000001029000000000000     
100   62911028202533900000000000002600000000002600002000000010410401030632124563807731100103451211301002   1030000500030000   555510105263104519000004811Pro 1 Home Center                    MMR11001030632124563800103000000000000000   10300001 00104100000000000156000000000000     
100   95050314365758940000000000009800000000009800002000000010410401030654582458167384220103000006377648   1020000200030000   333400010001204104000000281Myanmar Soft-Gate Tech Yangon        MMR11001030654582458160103000000000000000   10300001F05104100000000002058000000000000     
100   95050325305150830000000000001960000000001960002000000010410401031302183218440609800103000006380777   1020000200030000   333400010001204104000000281Myanmar Soft-Gate Tech Yangon        MMR11001031302183218440103000000000000000   10300001F05104100000000000412000000000000     
100   95050314996291580000000000000980000000000980002000000010410401031314544454883999870103000006380858   1020000200030000   333400010001204104000000281Myanmar Soft-Gate Tech Yangon        MMR11001031314544454880103000000000000000   10300001F05104100000000000206000000000000     
100   95050314365758940000000000000980000000000980002000000010410401030609163916024348320103000006377231   1020000200030000   333400010001204104000000281Myanmar Soft-Gate Tech Yangon        MMR11001030609163916020103000000000000000   10300001F05104100000000000206000000000000     
100   95050315122972560000000000002940000000002940002000000010410401031339180918122007000103000006381024   1020000200030000   333400010001204104000000281Myanmar Soft-Gate Tech Yangon        MMR11001031339180918120103000000000000000   10300001F05104100000000000617000000000000     
100   95050323067379780000000000300000000000300000002000000010410401031201383138117694660103000006380385   1030000200030000   333800010001203104000003327KBZPay                 Yangon        MMR11001031201383138110103000000000000000   10300001F05104100000000063000000000000000     
100   62911028202533900000000000020000000000020000002000000010410401030440074536977731100103961181117002   1030000500030000   888810111266104519000009676Max Energy CoLtd 15                  MMR11001030440074536970103000000000000000   10300001 00104100000000000600000000000000     
100   95050313145843230000000000205000000000205000002000000010410401030252402240362668270103000006375337   1030000200030000   333800010001203104000003327KBZPay                 Yangon        MMR11001030252402240360103000000000000000   10300001F05104100000000043050000000000000     
100   62443100379321630000000000012000000000012000002000000010410401030518254543360137240103777491142002   1030000500030000   555610112532104519000010487Ocean Super Center St  ohn           MMR11001030518254543360103000000000000000   10300001 00104100000000003000000000000000     
100   62911028202446130000000000004500000000004500002000000010410401030711144569157731100103165451304002   1030000500030000   555610114575104519000012532City Mart Ahlone Branc               MMR11001030711144569150103000000000000000   10300001 00104100000000000270000000000000     
100   95030378062733680000000000127513000000127513002000000010410401030628404558987731100103811001315002   1030000500030000   555610103981104519000003818Ocean Oattara Thiri Na PyiTaw        MMR11001030628404558980103000000000000000   10300001 00104100000000007651000000000000     
100   62911028202078000000000000160000000000160000002000000010410401030851582158027731100103000006378810   1030000200030000   333800010001203104000003327KBZPay                 Yangon        MMR11001030851582158020103000000000000000   10300001F05104100000000033600000000000000     
100   95030359171149270000000000002940000000002940002000000010410401030705143514067731100103000006377733   1020000200030000   333400010001204104000000281Myanmar Soft-Gate Tech Yangon        MMR11001030705143514060103000000000000000   10300001F05104100000000000617000000000000     
100   95050313680467160000000000000980000000000980002000000010410401030213184318192161720103000006375053   1020000200030000   333400010001204104000000281Myanmar Soft-Gate Tech Yangon        MMR11001030213184318190103000000000000000   10300001F05104100000000000206000000000000     
100   95050323067379780000000000300000000000300000002000000010410401031204233423904900270103000006380406   1030000200030000   333800010001203104000003327KBZPay                 Yangon        MMR11001031204233423900103000000000000000   10300001F05104100000000063000000000000000     
100   95050312498129060000000000004900000000004900002000000010410401030758262826088361640103000006378286   1020000200030000   333400010001204104000000281Myanmar Soft-Gate Tech Yangon        MMR11001030758262826080103000000000000000   10300001F05104100000000001029000000000000     
100   62911028202212490000000000008050000000008050002000000010410401030228234515447731100103248580806002   1030000300030000   444410119014104519000016176Jeffs Kitchen Restaura t             MMR11001030228234515440103000000000000000   10300001 00104100000000000821000000000000     
100   95050313411345710000000000005000000000005000002000000010410401031015334533817077130103000006379589   1030000200030000   333800010001203104000003327KBZPay                 Yangon        MMR11001031015334533810103000000000000000   10300001F05104100000000001050000000000000     
100   62443100379321630000000000034000000000034000002000000010410401030742264575470730550103005121437002   1030000300030000   888810125458104519000021285Shwe Taung Energy CoLt               MMR11001030742264575470103000000000000000   10300001 00104100000000004080000000000000     
100   62911028202000450000000000004900000000004900002000000010410401030305533553257731100103000006375470   1020000200030000   333400010001204104000000281Myanmar Soft-Gate Tech Yangon        MMR11001030305533553250103000000000000000   10300001F05104100000000001029000000000000     
100   95050316818236190000000000000980000000000980002000000010410401030458422842042349740103000006376523   1020000200030000   333400010001204104000000281Myanmar Soft-Gate Tech Yangon        MMR11001030458422842040103000000000000000   10300001F05104100000000000206000000000000     
100   95050312695033440000000000009800000000009800002000000010410401030903473347988177660103000006378941   1020000200030000   333400010001204104000000281Myanmar Soft-Gate Tech Yangon        MMR11001030903473347980103000000000000000   10300001F05104100000000002058000000000000     
100   95050315424817550000000000001960000000001960002000000010410401031506543654397134640103000006381536   1020000200030000   333400010001204104000000281Myanmar Soft-Gate Tech Yangon        MMR11001031506543654390103000000000000000   10300001F05104100000000000412000000000000     
100   62911028202533900000000000005000000000005000002000000010410401030555374550914484700103753271204002   1030000500030000   555510105265104519000004811Pro 1 Home Center                    MMR11001030555374550910103000000000000000   10300001 00104100000000000300000000000000     
100   95030393174848800000000000010300000000010300002000000010410401030539234547877731100103366121234002   1030000500030000   555610110566104519000009163City Mart Ayeyarwon Br nch           MMR11001030539234547870103000000000000000   10300001 00104100000000000618000000000000     
100   95050316997303010000000000000980000000000980002000000010410401031251402140002262290103000006380718   1020000200030000   333400010001204104000000281Myanmar Soft-Gate Tech Yangon        MMR11001031251402140000103000000000000000   10300001F05104100000000000206000000000000     
100   95050318601641810000000000000980000000000980002000000010410401030507233723709810640103000006376629   1020000200030000   333400010001204104000000281Myanmar Soft-Gate Tech Yangon        MMR11001030507233723700103000000000000000   10300001F05104100000000000206000000000000     
100   95050312498129060000000000000980000000000980002000000010410401031501463146308787130103000006381512   1020000200030000   333400010001204104000000281Myanmar Soft-Gate Tech Yangon        MMR11001031501463146300103000000000000000   10300001F05104100000000000206000000000000     
100   95050312498129060000000000000980000000000980002000000010410401030914204420518759550103000006379041   1020000200030000   333400010001204104000000281Myanmar Soft-Gate Tech Yangon        MMR11001030914204420510103000000000000000   10300001F05104100000000000206000000000000     
100   95050326393773020000000000002940000000002940002000000010410401030650212021744795670103000006377608   1020000200030000   333400010001204104000000281Myanmar Soft-Gate Tech Yangon        MMR11001030650212021740103000000000000000   10300001F05104100000000000617000000000000     
100   95050312926040930000000000001960000000001960002000000010410401031250552055747304830103000006380716   1020000200030000   333400010001204104000000281Myanmar Soft-Gate Tech Yangon        MMR11001031250552055740103000000000000000   10300001F05104100000000000412000000000000     
100   95050323067379780000000000300000000000300000002000000010410401031203053305646042180103000006380398   1030000200030000   333800010001203104000003327KBZPay                 Yangon        MMR11001031203053305640103000000000000000   10300001F05104100000000063000000000000000     
100   62911028202446540000000000034000000000034000002000000010410401030009184509407731100103596360744002   1030000500030000   888810121685104519000009666Max Energy CoLtd 5                   MMR11001030009184509400103000000000000000   10300001 00104100000000001020000000000000     
100   95050313123223200000000000005000000000005000002000000010410401030512294229438583640103000006376697   1030000200030000   333800010001203104000003327KBZPay                 Yangon        MMR11001030512294229430103000000000000000   10300001F05104100000000001050000000000000     
100   95050317376014640000000000000980000000000980002000000010410401031309053905152347390103000006380820   1020000200030000   333400010001204104000000281Myanmar Soft-Gate Tech Yangon        MMR11001031309053905150103000000000000000   10300001F05104100000000000206000000000000     
100   95050310676042860000000000030000000000030000002000000010410401030952132213012410620103000006379373   1030000200030000   333800010001203104000003327KBZPay                 Yangon        MMR11001030952132213010103000000000000000   10300001F05104100000000006300000000000000     
