100   62911028202088990000000000050000000000050000002000000010410404150336330046306685900415210503004630   1030000600030000   554100001211315799420000663DENKO  TETKONE         TETKONE       MMR11004150336330046300415000000000000000   10300001 00104100000000001500000000000000     
100   95030374458345210000000000045400000000045400002000000010410404151200060006476685900415210512000647   1030000600030000   5499000022243157994200015671 STOP S M BOGYOKE RD  YANGON        MMR11004151200060006470415000000000000000   10300001 00104100000000004631000000000000     
100   62911028202193830000000000037700000000037700002000000010410404080540050105632113100408209805010563   1030000600030000   554100002320315799420000564DENKO PHYUU            PHYUU         MMR11004080540050105630408000000000000000   10300001 00104100000000001131000000000000     
100   62911028202099050000000000024000000000024000002000000010410404080235570105122113100408209802010512   1030000600030000   554100002320315799420000564DENKO PHYUU            PHYUU         MMR11004080235570105120408000000000000000   10300001 00104100000000000720000000000000     
100   62911028202393160000000000020000000000020000002000000010410404150800400089716685900415210508008971   1030000600030000   554100001218315799420000670DENKO MAWLAMYAING      MON STATE.    MMR11004150800400089710415000000000000000   10300001 00104100000000000600000000000000     
100   62911028202366010000000000054000000000054000002000000010410404150613340096256685900415210506009625   1030000600030000   554100002328315799420001235DENKO NAY PYI TAW 2    NAYPYITAW     MMR11004150613340096250415000000000000000   10300001 00104100000000001620000000000000     
100   62443100390038980000000000065000000000065000002000000010410404151027420116820829820415210510011682   1030000600030000   554100001214315799420000666DENKO MAGWAY - 1       MAGWAY.       MMR11004151027420116820415000000000000000   10300001 00104100000000007800000000000000     
100   95050321232876860000000000091000000000091000002000000010410404150223330346405397440415210502034640   1030000600030000   554100001865315799420001235DENKO NAY PYI TAW 2    NAYPYITAW     MMR11004150223330346400415000000000000000   10300001 00104100000000010920000000000000     
100   62911028202204490000000000038000000000038000002000000010410404150447390794096685900415210504079409   1030000600030000   554100000946315799420000471DENKO BAHAN            YANGON        MMR11004150447390794090415000000000000000   10300001 00104100000000001140000000000000     
100   62443100323428970000000000046084000000046084002000000010410404150105230087805567630415210501008780   1030000600030000   581200000526315799420000143SIGNATURE FINEDINING 1 YANGON        MMR11004150105230087800415000000000000000   10300001 00104100000000019586000000000000     
100   95050321232876860000000000093000000000093000002000000010410404110938000094071167850411210109009407   1030000600030000   554100002328315799420001235DENKO NAY PYI TAW 2    NAYPYITAW     MMR11004110938000094070411000000000000000   10300001 00104100000000011160000000000000     
100   62443100302523870000000000022000000000022000002000000010410404110620510112276792280411210106011227   1030000600030000   554100002320315799420000564DENKO PHYUU            PHYUU         MMR11004110620510112270411000000000000000   10300001 00104100000000002640000000000000     
100   95050315401626960000000000020000000000020000002000000010410404110350220114928322420411210103011492   1030000600030000   554100001214315799420000666DENKO MAGWAY - 1       MAGWAY.       MMR11004110350220114920411000000000000000   10300001 00104100000000002400000000000000     
100   62911028202610960000000000068000000000068000002000000010410404111056340786876685900411210110078687   1030000600030000   554100000946315799420000471DENKO BAHAN            YANGON        MMR11004111056340786870411000000000000000   10300001 00104100000000002040000000000000     
100   62911028202280200000000000025920000000025920002000000010410404110144470785166685900411210101078516   1030000600030000   554100000946315799420000471DENKO BAHAN            YANGON        MMR11004110144470785160411000000000000000   10300001 00104100000000000778000000000000     
100   62911028202752520000000000060000000000060000002000000010410404111207030371096685900411210112037109   1030000600030000   554100001106315799420000564DENKO PHYUU            PHYUU         MMR11004111207030371090411000000000000000   10300001 00104100000000001800000000000000     
100   95050327243132200000000000007700000000007700002000000010410404201243120177539602730420000745856426   1030000200030000   541188001055000008000000314KBZ BANK               MARKETPLACE - MMR11004201243120177530420000000000000000   10300001 00104100000000001925000000000000     
100   95050319902033540000000000027800000000027800002000000010410404201553140108415849420420000745867499   1030000200030000   541188001127000008000000296KBZ BANK               CITY MART - J MMR11004201553140108410420000000000000000   10300001 00104100000000006950000000000000     
100   95030327835334700000000000009250000000009250002000000010410404201713360099295510700420000745870956   1030000200030000   541188001246000008000000323KBZ BANK               CITY MART - I MMR11004201713360099290420000000000000000   10300001 00104100000000000555000000000000     
100   95030306100081790000000000007650000000007650002000000010410404201459500137885399310420000745864871   1030000200030000   541188001073000008000000294KBZ BANK               CITY MART - J MMR11004201459500137880420000000000000000   10300001 00104100000000000459000000000000     
100   62911028202615340000000000047850000000047850002000000010410404200955220131326685900420000745844412   1030000200030000   541188001056000008000000314KBZ BANK               MARKETPLACE - MMR11004200955220131320420000000000000000   10300001 00104100000000002871000000000000     
100   62911028202204800000000000008000000000008000002000000010410404200922530179776685900420000745843087   1030000200030000   541188001080000008000000294KBZ BANK               CITY MART - J MMR11004200922530179770420000000000000000   10300001 00104100000000000480000000000000     
100   62911028202615340000000000001700000000001700002000000010410404201000080131336685900420000745844664   1030000200030000   541188001056000008000000314KBZ BANK               MARKETPLACE - MMR11004201000080131330420000000000000000   10300001 00104100000000000102000000000000     
100   95050322083768590000000000012150000000012150002000000010410404121116140019027162600412210211001902   1030000600030000   549900002155315799420001504EASY MART- 025         YANGON        MMR11004121116140019020412000000000000000   10300001 00104100000000005164000000000000     
100   95050326511614440000000000030000000000030000002000000010410404130815400033530055880413210308003353   1030000600030000   554100001262315799420000716DENKO DA NU PHYU       DA NU PHYU    MMR11004130815400033530413000000000000000   10300001 00104100000000003600000000000000     
100   62443100302523870000000000022000000000022000002000000010410404130356310056714368210413210303005671   1030000600030000   554100002141315799420001490DENKO MEIKHTILA 3      MANDALAY      MMR11004130356310056710413000000000000000   10300001 00104100000000002640000000000000     
100   62911028202154800000000000045000000000045000002000000010410404130732270057406685900413210307005740   1030000600030000   554100000841315799420000373DENKO NYAUNG U         NYAUNG U      MMR11004130732270057400413000000000000000   10300001 00104100000000001350000000000000     
100   62911028202023630000000000072000000000072000002000000010410404131102030113276685900413210311011327   1030000600030000   554100002329315799420000304DENKO MDY - 62         MANDALAY      MMR11004131102030113270413000000000000000   10300001 00104100000000002160000000000000     
100   62911028202010500000000000057000000000057000002000000010410404130414060056756685900413210304005675   1030000600030000   554100002141315799420001490DENKO MEIKHTILA 3      MANDALAY      MMR11004130414060056750413000000000000000   10300001 00104100000000001710000000000000     
100   95050322149411750000000000020000000000020000002000000010410404122355200094074332560413210323009407   1030000600030000   554100002085315799420000471DENKO BAHAN            YANGON        MMR11004122355200094070413000000000000000   10300001 00104100000000002400000000000000     
100   95050328768121690000000000050000000000050000002000000010410404130146450034053821980413210301003405   1030000600030000   554100001850315799420001222DENKO THANDWE          THANDWE       MMR11004130146450034050413000000000000000   10300001 00104100000000006000000000000000     
100   62911028202677390000000000050000000000050000002000000010410404130814570209456685900413210308020945   1030000600030000   554100001118315799420000576DENKO THAN HLYIN - 2   THAN HLYIN    MMR11004130814570209450413000000000000000   10300001 00104100000000001500000000000000     
100   62911028202238150000000000183587000000183587002000000010410404090607120061613880110409209906006161   1030000600030000   581200001904315799420001274SIGNATURE FINEDINING 2 BAHAN         MMR11004090607120061610409000000000000000   10300001 00104100000000018726000000000000     
100   62443100323891610000000000042000000000042000002000000010410404181225260041338767920418210812004133   1030000600030000   554100000746315799420000324DENKO SHANKALAY KYUN   MANDALAY      MMR11004181225260041330418000000000000000   10300001 00104100000000005040000000000000     
100   95050315296997180000000000030000000000030000002000000010410404140946230041945603290414210409004194   1030000600030000   554100001258315799420000712DENKO PA LATE          PA LATE       MMR11004140946230041940414000000000000000   10300001 00104100000000003600000000000000     
100   95030319588829360000000000030000000000030000002000000010410404100433520720423983100410210004072042   1030000600030000   554100000955315799420000477DENKO INSEIN           YANGON        MMR11004100433520720420410000000000000000   10300001 00104100000000000900000000000000     
100   62911028202312890000000000035100000000035100002000000010410404190840070014896685900419210915001489   1030000500030000   598320001702000015172200017MAX ENERGY             PTN           MMR11004190840070014890419000000000000000   10300001 00104100000000001053000000000000     
100   62911028202471860000000000065000000000065000002000000010410404110948290786676685900411210109078667   1030000600030000   554100000946315799420000471DENKO BAHAN            YANGON        MMR11004110948290786670411000000000000000   10300001 00104100000000001950000000000000     
100   62443100390038980000000000222650000000222650002000000010410404121307240031947879030412210213003194   1030000600030000   581200002103315799420001453BEAUTY INTHE POT 9MILE YANGON        MMR11004121307240031940412000000000000000   10300001 00104100000000094627000000000000     
100   62911028202092020000000000022600000000022600002000000010410404121244210015906685900412210212001590   1030000600030000   5499000023543157994200016371 STOP S M KAMARKYI    YANGON        MMR11004121244210015900412000000000000000   10300001 00104100000000002305000000000000     
100   62911028202204490000000000055000000000055000002000000010410404120643140788516685900412210206078851   1030000600030000   554100000946315799420000471DENKO BAHAN            YANGON        MMR11004120643140788510412000000000000000   10300001 00104100000000001650000000000000     
100   62911028202366010000000000063000000000063000002000000010410404120141230094346685900412210201009434   1030000600030000   554100002328315799420001235DENKO NAY PYI TAW 2    NAYPYITAW     MMR11004120141230094340412000000000000000   10300001 00104100000000001890000000000000     
100   62911028202366010000000000034000000000034000002000000010410404120142040094356685900412210201009435   1030000600030000   554100002328315799420001235DENKO NAY PYI TAW 2    NAYPYITAW     MMR11004120142040094350412000000000000000   10300001 00104100000000001020000000000000     
100   62443100302523870000000000030000000000030000002000000010410404120140460055720360610412210201005572   1030000600030000   554100002141315799420001490DENKO MEIKHTILA 3      MANDALAY      MMR11004120140460055720412000000000000000   10300001 00104100000000003600000000000000     
100   95030301100121270000000000056000000000056000002000000010410404121215190600626685900412210212060062   1030000600030000   554100000952315799420000474DENKO N.DAGON - 1      YANGON        MMR11004121215190600620412000000000000000   10300001 00104100000000001680000000000000     
100   95050314538419220000000000018088000000018088002000000010410404141318000033199893760414210413003319   1030000600030000   5499000022273157994200015671 STOP S M BOGYOKE RD  YANGON        MMR11004141318000033190414000000000000000   10300001 00104100000000007688000000000000     
100   62911028202466670000000000035500000000035500002000000010410404181058570011596685900418210810001159   1030000600030000   554100001014315799420000508DENKO LAT PAN HLA      MANDALAY      MMR11004181058570011590418000000000000000   10300001 00104100000000001065000000000000     
100   62911028202466670000000000020000000000020000002000000010410404180548110014786685900418210805001478   1030000600030000   554100001264315799420000718DENKO INDAW            INDAW.        MMR11004180548110014780418000000000000000   10300001 00104100000000000600000000000000     
100   62443100393841160000000000028000000000028000002000000010410404170925530047384846490417210709004738   1030000600030000   554100001232315799420000686DENKO TAUNG LAY LONE   TAUNGGYI      MMR11004170925530047380417000000000000000   10300001 00104100000000003360000000000000     
100   95030301100103860000000000010250000000010250002000000010410404170330280012586685900417210703001258   1030000600030000   5499000022293157994200015671 STOP S M BOGYOKE RD  YANGON        MMR11004170330280012580417000000000000000   10300001 00104100000000001046000000000000     
100   95030327835334700000000000038000000000038000002000000010410404170256010023636685900417210702002363   1030000600030000   554100001221315799420000673DENKO HINTHADA         HINTHADA      MMR11004170256010023630417000000000000000   10300001 00104100000000001140000000000000     
100   62443100306416880000000000025000000000025000002000000010410404170210480122234812780417210702012223   1030000600030000   554100002320315799420000564DENKO PHYUU            PHYUU         MMR11004170210480122230417000000000000000   10300001 00104100000000003000000000000000     
100   95050328768121690000000000050000000000050000002000000010410404170400340082190840840417210704008219   1030000600030000   554100001213315799420000665DENKO KWYAL TUT SONE   MANDALAY      MMR11004170400340082190417000000000000000   10300001 00104100000000006000000000000000     
100   62911028202221220000000000010000000000010000002000000010410404170015520795496685900417210700079549   1030000600030000   554100000946315799420000471DENKO BAHAN            YANGON        MMR11004170015520795490417000000000000000   10300001 00104100000000000300000000000000     
100   62911028202290100000000000010550000000010550002000000010410404141151130011366685900414210411001136   1030000600030000   5499000022293157994200015671 STOP S M BOGYOKE RD  YANGON        MMR11004141151130011360414000000000000000   10300001 00104100000000001076000000000000     
100   95050328768121690000000000085000000000085000002000000010410404140754470116095688380414210407011609   1030000600030000   554100001214315799420000666DENKO MAGWAY - 1       MAGWAY.       MMR11004140754470116090414000000000000000   10300001 00104100000000010200000000000000     
100   62911028202204490000000000069000000000069000002000000010410404140647230793056685900414210406079305   1030000600030000   554100000946315799420000471DENKO BAHAN            YANGON        MMR11004140647230793050414000000000000000   10300001 00104100000000002070000000000000     
100   95030305700676370000000000068000000000068000002000000010410404140608000127896685900414210406012789   1030000600030000   554100001754315799420001135DENKO KYITE HTO        MON STATE.    MMR11004140608000127890414000000000000000   10300001 00104100000000002040000000000000     
100   62911028202010500000000000030000000000030000002000000010410404141056210725916685900414210410072591   1030000600030000   554100000955315799420000477DENKO INSEIN           YANGON        MMR11004141056210725910414000000000000000   10300001 00104100000000000900000000000000     
100   95050315401626960000000000020000000000020000002000000010410404140953310116150560740414210409011615   1030000600030000   554100001214315799420000666DENKO MAGWAY - 1       MAGWAY.       MMR11004140953310116150414000000000000000   10300001 00104100000000002400000000000000     
100   62911028202393160000000000020000000000020000002000000010410404140852030089326685900414210408008932   1030000600030000   554100001218315799420000670DENKO MAWLAMYAING      MON STATE.    MMR11004140852030089320414000000000000000   10300001 00104100000000000600000000000000     
100   62911028202471860000000000030000000000030000002000000010410404140748550793176685900414210407079317   1030000600030000   554100000946315799420000471DENKO BAHAN            YANGON        MMR11004140748550793170414000000000000000   10300001 00104100000000000900000000000000     
100   62911028202471860000000000020000000000020000002000000010410404171013330796306685900417210710079630   1030000600030000   554100000946315799420000471DENKO BAHAN            YANGON        MMR11004171013330796300417000000000000000   10300001 00104100000000000600000000000000     
100   62443100302523870000000000030000000000030000002000000010410404170405090380697719820417210704038069   1030000600030000   554100001106315799420000564DENKO PHYUU            PHYUU         MMR11004170405090380690417000000000000000   10300001 00104100000000003600000000000000     
100   62911028202303640000000000020200000000020200002000000010410404171040180211446685900417210710021144   1030000600030000   554100001118315799420000576DENKO THAN HLYIN - 2   THAN HLYIN    MMR11004171040180211440417000000000000000   10300001 00104100000000000606000000000000     
100   95030301100419020000000000040060000000040060002000000010410404181212570053386685900418210812005338   1030000600030000   806200002188315799420001535ASIA ROYAL HOSPITAL    YANGON        MMR11004181212570053380418000000000000000   10300001 00104100000000002404000000000000     
100   62443100315853220000000000056000000000056000002000000010410404180729560042387769710418210807004238   1030000600030000   554100001216315799420000668DENKO OHN TAW          SAGAING       MMR11004180729560042380418000000000000000   10300001 00104100000000006720000000000000     
100   62443100302523870000000000033000000000033000002000000010410404160012090068132073290416210600006813   1030000600030000   554100001215315799420000667DENKO KYAUKPADAUNG     KYAUKPADAUNG  MMR11004160012090068130416000000000000000   10300001 00104100000000003960000000000000     
100   95050322158563070000000000055000000000055000002000000010410404160500510046675461000416210605004667   1030000600030000   554100001232315799420000686DENKO TAUNG LAY LONE   TAUNGGYI      MMR11004160500510046670416000000000000000   10300001 00104100000000006600000000000000     
100   62911028202703370000000000050000000000050000002000000010410404160132080092256685900416210601009225   1030000600030000   554100001237315799420000691DENKO AUNG PAN         KALAW.        MMR11004160132080092250416000000000000000   10300001 00104100000000001500000000000000     
100   62911028202761360000000000100000000000100000002000000010410404140825350090916685900414210408009091   1030000600030000   554100001237315799420000691DENKO AUNG PAN         KALAW.        MMR11004140825350090910414000000000000000   10300001 00104100000000003000000000000000     
100   62443100358839880000000000082000000000082000002000000010410404140314380096193560980414210403009619   1030000600030000   554100002085315799420000471DENKO BAHAN            YANGON        MMR11004140314380096190414000000000000000   10300001 00104100000000009840000000000000     
100   95030301100120850000000000030000000000030000002000000010410404200247501750566685900420000007021719   1030000200030000   333800010001203104000003327KBZPay                 Yangon        MMR11004200247501750560420000000000000000   10300001F05104100000000006300000000000000     
100   95050317728825080000000000004900000000004900002000000010410404200542101210337441670420000007023286   1020000200030000   333400010001204104000000281Myanmar Soft-Gate Tech Yangon        MMR11004200542101210330420000000000000000   10300001F05104100000000001029000000000000     
100   62443100355903280000000000102000000000102000002000000010410404200442111211078361620420000007022660   1030000200030000   333800010001203104000003327KBZPay                 Yangon        MMR11004200442111211070420000000000000000   10300001F05104100000000021420000000000000     
100   95030385550669610000000000156500000000156500002000000010410404200311592435166685900420536410959109   1030000900030000   541119000816190110000000178Pro (1) Global (East D YANGONMYOTHIT MMR11004200311592435160420000000000000000   10300001F00104100000000009390000000000000     
100   95050312867570630000000000002400000000002400002000000010410404200433132450414957770420342031113109   1030000900030000   541119001255190110000000956City Mart JS Season C  YANGONUT      MMR11004200433132450410420000000000000000   10300001F00104100000000000600000000000000     
100   95030384418409420000000000010000000000010000002000000010410404200346251625543699500420000007022228   1030000200030000   333800010001203104000003327KBZPay                 Yangon        MMR11004200346251625540420000000000000000   10300001F05104100000000002100000000000000     
100   95030301100319860000000000010000000000010000002000000010410404160706020067256685900416210607006725   1030000600030000   554100002318315799420000510DENKO AUNG SAN         YANGON        MMR11004160706020067250416000000000000000   10300001 00104100000000000300000000000000     
100   95050324411430900000000000042000000000042000002000000010410404180412270797018719560418210804079701   1030000600030000   554100000946315799420000471DENKO BAHAN            YANGON        MMR11004180412270797010418000000000000000   10300001 00104100000000005040000000000000     
100   62911028202221220000000000009800000000009800002000000010410404180015320062906685900418210800006290   1030000600030000   549900002153315799420001502EASY MART- 003         YANGON        MMR11004180015320062900418000000000000000   10300001 00104100000000001000000000000000     
100   95050324133333980000000000023000000000023000002000000010410404181245550798157285630418210812079815   1030000600030000   554100000946315799420000471DENKO BAHAN            YANGON        MMR11004181245550798150418000000000000000   10300001 00104100000000002760000000000000     
100   62911028202116120000000000060000000000060000002000000010410404180930450383866685900418210809038386   1030000600030000   554100001106315799420000564DENKO PHYUU            PHYUU         MMR11004180930450383860418000000000000000   10300001 00104100000000001800000000000000     
100   62443100311760720000000000050000000000050000002000000010410404181035380797778902450418210810079777   1030000600030000   554100000946315799420000471DENKO BAHAN            YANGON        MMR11004181035380797770418000000000000000   10300001 00104100000000006000000000000000     
100   95030301100126550000000000030000000000030000002000000010410404181157500484326685900418210811048432   1030000600030000   554100000969315799420000481DENKO NORTH OKKALAPA   YANGON        MMR11004181157500484320418000000000000000   10300001 00104100000000000900000000000000     
100   62443100372718280000000000043000000000043000002000000010410404180846580191720102960418210808019172   1030000600030000   809900000537315799420000147GRAND HANTHA HOSPITAL  YANGON        MMR11004180846580191720418000000000000000   10300001 00104100000000010320000000000000     
100   95050315557781210000000000008500000000008500002000000010410404200239480948569830440420000007021674   1040001600030000   333800010001220104000004507A +                    Yangon        MMR11004200239480948560420000000000000000   10300001F05104100000000001785000000000000     
100   95050325925517520000000001237500000001237500002000000010410404200519192460162761390420886491119109   1030000900030000   829919001123190110000000904IIP School             YANGONUT      MMR11004200519192460160420000000000000000   10300001F00104100000000297000000000000000     
100   95050310520330790000000000300000000000300000002000000010410404200853152510567600790420798231515109   1030000900030000   573219001178190110000000934UNIQUE Pansodan        YANGONADA     MMR11004200853152510560420000000000000000   10300001F00104100000000072000000000000000     
100   62443100379321630000000000051950000000051950002000000010410404200316162435829141270420566460916109   1030000900030000   541119000161190110000000084Pro (1) Global (Pazund YANGONARTAUNG MMR11004200316162435820420000000000000000   10300001F00104100000000012988000000000000     
100   95050312878706670000000000005000000000005000002000000010410404201350472047956140360420000007026267   1030000200030000   3334000100012031040000040102C2P (Myanmar) Co. Ltd Yangon        MMR11004201350472047950420000000000000000   10300001F05104100000000001050000000000000     
100   95030301100126890000000000106000000000106000002000000010410404200602422470304422300420487321242109   1030000900030000   541119000120190110000000080Sein Gay Har BAK       YANGONADA     MMR11004200602422470300420000000000000000   10300001F00104100000000006360000000000000     
100   95030301100126890000000000095000000000095000002000000010410404200806312499485277800420165361431109   1030000900030000   541119000123190110000000080Sein Gay Har BAK       YANGON        MMR11004200806312499480420000000000000000   10300001F00104100000000005700000000000000     
100   95050319938772870000000000001960000000001960002000000010410404201251422142830587240420000007026020   1020000200030000   333400010001204104000000281Myanmar Soft-Gate Tech Yangon        MMR11004201251422142830420000000000000000   10300001F05104100000000000412000000000000     
100   95030301100344690000000000020000000000020000002000000010410404181057290797856685900418210810079785   1030000600030000   554100000946315799420000471DENKO BAHAN            YANGON        MMR11004181057290797850418000000000000000   10300001 00104100000000000600000000000000     
100   62911028202393160000000000020000000000020000002000000010410404180531500090946685900418210805009094   1030000600030000   554100001218315799420000670DENKO MAWLAMYAING      MON STATE.    MMR11004180531500090940418000000000000000   10300001 00104100000000000600000000000000     
100   62911028202107390000000000018650000000018650002000000010410404201035358587995510700420830151744109   1030000500030000   555610103479104519000003432City Mart Junction Zaw na 6          MMR11004201035358587990420000000000000000   10300001 00104100000000001119000000000000     
100   62911028202286990000000000339000000000339000002000000010410404200951268580455510700420926211615109   1030000300030000   555510125244104519000021098Gadget Store by Win Mo ile Wor       MMR11004200951268580450420000000000000000   10300001 00104100000000020340000000000000     
100   62443100315853220000000000083427000000083427002000000010410404191042210023295078830419000745799975   1030000200030000   541188001481000008000000399KBZ BANK               OCEAN SUPERCE MMR11004191042210023290419000000000000000   10300001 00104100000000020857000000000000     
100   62911028202910850000000000000900000000000900002000000010410404201117248593165510700420454481709109   1030000500030000   555610110601104519000009166City Mart 47 Branch                  MMR11004201117248593160420000000000000000   10300001 00104100000000000054000000000000     
100   62911028202287150000000000020200000000020200002000000010410404201015388583905510700420340461610109   1030000500030000   555610112237104519000010487Ocean Super Center St  ohn           MMR11004201015388583900420000000000000000   10300001 00104100000000001212000000000000     
100   62911028202151340000000000007600000000007600002000000010410404200706118561704422300420763361322109   1030000300030000   444410125393104519000021220Myanmar Bakery CoLtd                 MMR11004200706118561700420000000000000000   10300001 00104100000000000775000000000000     
100   95050317378464240000000000040000000000040000002000000010410404200348231823696799950420000007022242   1030000200030000   333800010001203104000003327KBZPay                 Yangon        MMR11004200348231823690420000000000000000   10300001F05104100000000008400000000000000     
100   95050313123223200000000000004900000000004900002000000010410404201145151515785558480420000007025776   1020000200030000   333400010001204104000000281Myanmar Soft-Gate Tech Yangon        MMR11004201145151515780420000000000000000   10300001F05104100000000001029000000000000     
100   95050314570621780000000000002940000000002940002000000010410404200539060906274960090420000007023232   1020000200030000   333400010001204104000000281Myanmar Soft-Gate Tech Yangon        MMR11004200539060906270420000000000000000   10300001F05104100000000000617000000000000     
100   95050319331315630000000000007840000000007840002000000010410404200042001200206915300420000007021189   1020000200030000   333400010001204104000000281Myanmar Soft-Gate Tech Yangon        MMR11004200042001200200420000000000000000   10300001F05104100000000001646000000000000     
100   95050319996628650000000000000980000000000980002000000010410404200239590959988177960420000007021665   1020000200030000   333400010001204104000000281Myanmar Soft-Gate Tech Yangon        MMR11004200239590959980420000000000000000   10300001F05104100000000000206000000000000     
100   95050318646071770000000000001960000000001960002000000010410404200637330733951850890420000007023758   1020000200030000   333400010001204104000000281Myanmar Soft-Gate Tech Yangon        MMR11004200637330733950420000000000000000   10300001F05104100000000000412000000000000     
100   62911028202031710000000000060000000000060000002000000010410404200252112431466685900420346220911109   1030000900030000   554119000997190110000000803Puma Power SOKL        YANGONOKKALAP MMR11004200252112431460420000000000000000   10300001F00104100000000001800000000000000     
100   95050311419479170000000000001960000000001960002000000010410404201550282028291778590420000007026715   1020000200030000   333400010001204104000000281Myanmar Soft-Gate Tech Yangon        MMR11004201550282028290420000000000000000   10300001F05104100000000000412000000000000     
100   62911028202756820000000000057408000000057408002000000010410404191623550024696685900419000745820119   1030000200030000   541188001486000008000000399KBZ BANK               OCEAN SUPERCE MMR11004191623550024690419000000000000000   10300001 00104100000000003444000000000000     
100   62911028202661370000000000046000000000046000002000000010410404200822358570635385400420786571414109   1030000500030000   555610104031104519000003821City Mart North Point  enter         MMR11004200822358570630420000000000000000   10300001 00104100000000002760000000000000     
100   95030361482647470000000000005400000000005400002000000010410404191307510118546685900419000745809877   1030000200030000   541188001047000008000000010KBZ BANK               MARKETPLACE - MMR11004191307510118540419000000000000000   10300001 00104100000000000324000000000000     
100   62911028202616250000000000053100000000053100002000000010410404200827168570655387800420791571440109   1030000500030000   555610115763104519000013506MarketplaceMyanmarPlaz Branch        MMR11004200827168570650420000000000000000   10300001 00104100000000003186000000000000     
100   62443101023815100000000000027450000000027450002000000010410404201139388596907210970420876101812109   1030000500030000   555610114573104519000012532City Mart Ahlone Branc               MMR11004201139388596900420000000000000000   10300001 00104100000000006863000000000000     
100   95030302100067550000000000070000000000070000002000000010410404190453050053426685900419210904005342   1030000600030000   806200002188315799420001535ASIA ROYAL HOSPITAL    YANGON        MMR11004190453050053420419000000000000000   10300001 00104100000000004200000000000000     
100   62911028202464020000000000010950000000010950002000000010410404201212258601575510700420457431819109   1030000500030000   555610110576104519000009164City Mart China Town P int Cen       MMR11004201212258601570420000000000000000   10300001 00104100000000000657000000000000     
100   62911028202156540000000000081700000000081700002000000010410404180837390146196685900418210808014619   1030000600030000   809900000541315799420000147GRAND HANTHA HOSPITAL  YANGON        MMR11004180837390146190418000000000000000   10300001 00104100000000004902000000000000     
100   62911028202199530000000000016800000000016800002000000010410404200446022453104075100420489161102109   1030000900030000   541119001208190110000000948City Mart YK C 6       YANGONAUNG    MMR11004200446022453100420000000000000000   10300001F00104100000000001008000000000000     
100   95050316321163940000000000000980000000000980002000000010410404201440291029608388530420000007026455   1020000200030000   333400010001204104000000281Myanmar Soft-Gate Tech Yangon        MMR11004201440291029600420000000000000000   10300001F05104100000000000206000000000000     
100   95030367537085740000000000000980000000000980002000000010410404201239090909445510700420000007025965   1020000200030000   333400010001204104000000281Myanmar Soft-Gate Tech Yangon        MMR11004201239090909440420000000000000000   10300001F05104100000000000206000000000000     
100   95050318617855880000000000004900000000004900002000000010410404200242021202456185090420000007021688   1020000200030000   333400010001204104000000281Myanmar Soft-Gate Tech Yangon        MMR11004200242021202450420000000000000000   10300001F05104100000000001029000000000000     
100   95050318601641810000000000002940000000002940002000000010410404201551012101200126100420000007026720   1020000200030000   333400010001204104000000281Myanmar Soft-Gate Tech Yangon        MMR11004201551012101200420000000000000000   10300001F05104100000000000617000000000000     
100   62911028202446700000000000300000000000300000002000000010410404200443251325124041500420000007022683   1030000500030000   333800010001201104000003863AYA Pay                Yangon        MMR11004200443251325120420000000000000000   10300001F05104100000000063000000000000000     
100   95050310427855490000000000001960000000001960002000000010410404201349571957847792850420000007026261   1020000200030000   333400010001204104000000281Myanmar Soft-Gate Tech Yangon        MMR11004201349571957840420000000000000000   10300001F05104100000000000412000000000000     
100   95050312298324450000000000000980000000000980002000000010410404201450332033021693490420000007026508   1020000200030000   333400010001204104000000281Myanmar Soft-Gate Tech Yangon        MMR11004201450332033020420000000000000000   10300001F05104100000000000206000000000000     
100   62443100395535610000000000021420000000021420002000000010410404190937400031685943590419000340988244   1030000300030000   591200000314000000000000195CB BANK                MEDICARE STOR MMR11004190937400031680419000000000000000   10300001F00104100000000005141000000000000     
100   95050329632900220000000000020000000000020000002000000010410404190250320033909229050419210909003390   1030000500030000   598320001301000015172200013MAX ENERGY             PTN           MMR11004190250320033900419000000000000000   10300001 00104100000000002400000000000000     
100   62911028202595380000000000050000000000050000002000000010410404190622270022996685900419210912002299   1030000500030000   598320041902000055983200419MAX ENERGY             PTN           MMR11004190622270022990419000000000000000   10300001 00104100000000001500000000000000     
100   62911028202661370000000000156050000000156050002000000010410404200703598561574895910420748351341109   1030000500030000   555610118963104519000016137City Mart South Okkala WZYD BR       MMR11004200703598561570420000000000000000   10300001 00104100000000009363000000000000     
100   95030333409030400000000000002250000000002250002000000010410404201209548601265510700420420401847109   1030000300030000   555610103773104519000003649G and G Convenience St re 279        MMR11004201209548601260420000000000000000   10300001 00104100000000000135000000000000     
100   62911028202231380000000000003500000000003500002000000010410404191337180092636685900419000745811539   1030000200030000   541188001088000008000000294KBZ BANK               CITY MART - J MMR11004191337180092630419000000000000000   10300001 00104100000000000210000000000000     
100   62443100375796910000000000016000000000016000002000000010410404190426370005056986610419000340947586   1030000300030000   531100000863000000000000599CB BANK                MGOU ( OCEAN  MMR11004190426370005050419000000000000000   10300001F00104100000000003840000000000000     
100   95030302388346590000000000042000000000042000002000000010410404190115510034776685900419210907003477   1030000500030000   598320001404000015172200014MAX ENERGY             PTN           MMR11004190115510034770419000000000000000   10300001 00104100000000001260000000000000     
100   62911028202019440000000000045550000000045550002000000010410404200429102449536685900420287591010109   1030000900030000   541119001260190110000000958City Mart PLST C 3     YANGONMYOTHIT MMR11004200429102449530420000000000000000   10300001F00104100000000002733000000000000     
100   62911028202690080000000000028500000000028500002000000010410404200547452466744445400420278171245109   1030000900030000   541119001074190110000000872Sein Gay Har Hledan    YANGONUT      MMR11004200547452466740420000000000000000   10300001F00104100000000001710000000000000     
100   95050312940629360000000000000980000000000980002000000010410404200542581258780491380420000007023294   1020000200030000   333400010001204104000000281Myanmar Soft-Gate Tech Yangon        MMR11004200542581258780420000000000000000   10300001F05104100000000000206000000000000     
100   95050312695033440000000000002940000000002940002000000010410404200843001300355522830420000007024764   1020000200030000   333400010001204104000000281Myanmar Soft-Gate Tech Yangon        MMR11004200843001300350420000000000000000   10300001F05104100000000000617000000000000     
100   95030301100126890000000000009500000000009500002000000010410404200548042466804422300420280181204109   1030000900030000   541119000122190110000000080Sein Gay Har BAK       YANGONADA     MMR11004200548042466800420000000000000000   10300001F00104100000000000570000000000000     
100   95050319161596230000000000004900000000004900002000000010410404200644051405266808340420000007023826   1020000200030000   333400010001204104000000281Myanmar Soft-Gate Tech Yangon        MMR11004200644051405260420000000000000000   10300001F05104100000000001029000000000000     
100   95050325113239290000000001654500000001654500002000000010410404200905302513292799740420949351530109   1030000900030000   594419001432190110000001036Zwe Htet Gems & Jewell YANGON        MMR11004200905302513290420000000000000000   10300001F00104100000000397080000000000000     
100   95050318646071770000000000000980000000000980002000000010410404200634530453133418280420000007023744   1020000200030000   333400010001204104000000281Myanmar Soft-Gate Tech Yangon        MMR11004200634530453130420000000000000000   10300001F05104100000000000206000000000000     
100   62911028202790980000000005000000000005000000002000000010410404190455160000526685900419000745803254   1030000200030000   481288001529000008000004974KBZ BANK               YOUNIQUE INFO MMR11004190455160000520419000000000000000   10300001 00104100000000300000000000000000     
100   62911028202197550000000000209350000000209350002000000010410404191018030006196685900419210916000619   1030000500030000   591220132901008605912201329THEIK DI WIN SHOP      PTN           MMR11004191018030006190419000000000000000   10300001 00104100000000012561000000000000     
100   95030371724152130000000000066700000000066700002000000010410404191927460033116685900419000745827940   1030000200030000   541188001454000008000000391KBZ BANK               OCEAN SUPER C MMR11004191927460033110419000000000000000   10300001 00104100000000004002000000000000     
100   62911028202231380000000000009570000000009570002000000010410404190652350002196685900419210913000219   1030000500030000   581220199401000085812201994LITTLE BOSS MAWTIN     PTN           MMR11004190652350002190419000000000000000   10300001 00104100000000000976000000000000     
100   95030302100067550000000000040000000000040000002000000010410404182336270003396685900419210906000339   1030000500030000   806220046401006308062200464ASIA ROYAL HOSPITAL    PTN           MMR11004182336270003390419000000000000000   10300001 00104100000000002400000000000000     
100   95030308100042590000000000030000000000030000002000000010410404191040420015046685900419210917001504   1030000500030000   598320001702000015172200017MAX ENERGY             PTN           MMR11004191040420015040419000000000000000   10300001 00104100000000000900000000000000     
100   62443100313112320000000000070000000000070000002000000010410404191412090014697000400419000341020868   1030000300030000   598300000479000000000000211CB BANK                YANGON PETROL MMR11004191412090014690419000000000000000   10300001F00104100000000008400000000000000     
100   62911028202473430000000000091100000000091100002000000010410404190322150002596685900419210909000259   1030000500030000   809920152601003108099201526LUDU                   PTN           MMR11004190322150002590419000000000000000   10300001 00104100000000005466000000000000     
100   95050316818236190000000000002940000000002940002000000010410404200311194119942163700420000007021921   1020000200030000   333400010001204104000000281Myanmar Soft-Gate Tech Yangon        MMR11004200311194119940420000000000000000   10300001F05104100000000000617000000000000     
100   95050319161596230000000000000980000000000980002000000010410404200725215521364416580420000007024200   1020000200030000   333400010001204104000000281Myanmar Soft-Gate Tech Yangon        MMR11004200725215521360420000000000000000   10300001F05104100000000000206000000000000     
100   95050314307746340000000000000980000000000980002000000010410404201419314931491182920420000007026371   1020000200030000   333400010001204104000000281Myanmar Soft-Gate Tech Yangon        MMR11004201419314931490420000000000000000   10300001F05104100000000000206000000000000     
100   95050314893649800000000000002940000000002940002000000010410404200456362636140560320420000007022823   1020000200030000   333400010001204104000000281Myanmar Soft-Gate Tech Yangon        MMR11004200456362636140420000000000000000   10300001F05104100000000000617000000000000     
100   62911028202045260000000000044800000000044800002000000010410404200542453304484396610420211012330448   1040001600030000   591220001007000000010000737Shwe Ohh Pharmacy (Tan Ygn           MMR11004200542453304480420000000000000000   10300001F00104100000000002688000000000000     
100   95050329192229210000000001000000000001000000002000000010410404200213318531072709930420343470836109   1030000300030000   555510119008104519000016170Z N T Mobile                         MMR11004200213318531070420000000000000000   10300001 00104100000000240000000000000000     
100   95050317376014640000000000006750000000006750002000000010410404201202212554717537560420652321821109   1030000900030000   541119001359190110000000977Ocean PZD C 13         YANGONAUNG    MMR11004201202212554710420000000000000000   10300001F00104100000000001688000000000000     
100   95050312695033440000000000002940000000002940002000000010410404201259072907682324820420000007026053   1020000200030000   333400010001204104000000281Myanmar Soft-Gate Tech Yangon        MMR11004201259072907680420000000000000000   10300001F05104100000000000617000000000000     
100   95030389641831340000000000040010000000040010002000000010410404190807350032946685900419210914003294   1030000500030000   598320001003000015172200010MAX ENERGY             PTN           MMR11004190807350032940419000000000000000   10300001 00104100000000001200000000000000     
100   62911028202204800000000000037600000000037600002000000010410404190311270001286685900419210909000128   1030000500030000   591220012501014405912200125SHWE OHH PHARMACY      PTN           MMR11004190311270001280419000000000000000   10300001 00104100000000002256000000000000     
100   95050318463049920000000000007500000000007500002000000010410404190710260002331114960419210913000233   1030000500030000   573220039001000015732200390REMAX                  PTN           MMR11004190710260002330419000000000000000   10300001 00104100000000001800000000000000     
100   95030302100067550000000000020000000000020000002000000010410404182337560003416685900419210906000341   1030000500030000   806220046401006308062200464ASIA ROYAL HOSPITAL    PTN           MMR11004182337560003410419000000000000000   10300001 00104100000000001200000000000000     
100   62443100306416880000000000013473000000013473002000000010410404191218540023409964980419210918002340   1030000500030000   598320001601000015172200016MAX ENERGY             PTN           MMR11004191218540023400419000000000000000   10300001 00104100000000001617000000000000     
100   62443101006037900000000000060000000000060000002000000010410404190217330034328037710419210908003432   1030000500030000   598320001304000015172200013MAX ENERGY             PTN           MMR11004190217330034320419000000000000000   10300001 00104100000000007200000000000000     
100   62443100315853220000000000062300000000062300002000000010410404191041430023281773870419000745799943   1030000200030000   541188001481000008000000399KBZ BANK               OCEAN SUPERCE MMR11004191041430023280419000000000000000   10300001 00104100000000015575000000000000     
100   95050315144447320000000000006359000000006359002000000010410404191115260034634859200419000745802477   1030000200030000   541188001436000008000000401KBZ BANK               OCEAN SUPERCE MMR11004191115260034630419000000000000000   10300001 00104100000000001590000000000000     
100   95050314557307430000000000000980000000000980002000000010410404201309323932620757430420000007026109   1020000200030000   333400010001204104000000281Myanmar Soft-Gate Tech Yangon        MMR11004201309323932620420000000000000000   10300001F05104100000000000206000000000000     
100   95050311121153200000000000000980000000000980002000000010410404201106203620342423710420000007025635   1020000200030000   333400010001204104000000281Myanmar Soft-Gate Tech Yangon        MMR11004201106203620340420000000000000000   10300001F05104100000000000206000000000000     
100   62443101000669310000000000050000000000050000002000000010410404201123015301008778350420000007025694   1030000300030000   333300010001206104000002147DICA Company Limited   Yangon        MMR11004201123015301000420000000000000000   10300001F05104100000000010000000000000000     
100   95050319528093960000000000000980000000000980002000000010410404200124245424029248560420000007021285   1020000200030000   333400010001204104000000281Myanmar Soft-Gate Tech Yangon        MMR11004200124245424020420000000000000000   10300001F05104100000000000206000000000000     
100   95050328876009750000000000030000000000030000002000000010410404200320045004663041900420000007021997   1030000200030000   333800010001203104000003327KBZPay                 Yangon        MMR11004200320045004660420000000000000000   10300001F05104100000000006300000000000000     
100   95050311382087030000000000002940000000002940002000000010410404201029565956606955680420000007025471   1020000200030000   333400010001204104000000281Myanmar Soft-Gate Tech Yangon        MMR11004201029565956600420000000000000000   10300001F05104100000000000617000000000000     
100   95050321237170130000000000017600000000017600002000000010410404200349088538684884090420170241009109   1030000500030000   555610103464104519000003420City Mart Yankin Cente 3             MMR11004200349088538680420000000000000000   10300001 00104100000000004400000000000000     
100   95050310178107440000000000005000000000005000002000000010410404200301543154063986370420000007021832   1030000200030000   3338000100012031040000040022C2P (Myanmar) Co. Ltd Yangon        MMR11004200301543154060420000000000000000   10300001F05104100000000001050000000000000     
100   95030308100042590000000000030000000000030000002000000010410404191047070015076685900419210917001507   1030000500030000   598320001702000015172200017MAX ENERGY             PTN           MMR11004191047070015070419000000000000000   10300001 00104100000000000900000000000000     
100   62911028202756820000000000023500000000023500002000000010410404191625170024706685900419000745820179   1030000200030000   541188001486000008000000399KBZ BANK               OCEAN SUPERCE MMR11004191625170024700419000000000000000   10300001 00104100000000001410000000000000     
100   95050318463049920000000000017000000000017000002000000010410404190555210006295235240419000340959423   1030000300030000   531100000598000000000000408CB BANK                CAPITAL HYPER MMR11004190555210006290419000000000000000   10300001F00104100000000004080000000000000     
100   62911028202161240000000000004720000000004720002000000010410404191832410055526685900419000745826039   1030000200030000   541188001022000008000000298KBZ BANK               CITY MART - M MMR11004191832410055520419000000000000000   10300001 00104100000000000283000000000000     
100   62911028202610540000000000001450000000001450002000000010410404191001370102986685900419000745797647   1030000200030000   541188001081000008000000294KBZ BANK               CITY MART - J MMR11004191001370102980419000000000000000   10300001 00104100000000000087000000000000     
100   62911028202235910000000000016220000000016220002000000010410404190822500330376685900419000745794086   1030000200030000   541188001024000008000000298KBZ BANK               CITY MART - M MMR11004190822500330370419000000000000000   10300001 00104100000000000973000000000000     
100   95030394609966640000000000000800000000000800002000000010410404191417300059736685900419000745814006   1030000200030000   541188001033000008000000298KBZ BANK               CITY MART - M MMR11004191417300059730419000000000000000   10300001 00104100000000000048000000000000     
100   95030356977005070000000000015000000000015000002000000010410404191921150052666685900419000745827778   1030000200030000   541188001028000008000000298KBZ BANK               CITY MART - M MMR11004191921150052660419000000000000000   10300001 00104100000000000900000000000000     
100   62911028202423360000000000004050000000004050002000000010410404091224160019326805100409209912001932   1030000600030000   5499000022453157994200015701 STOP S M INSEIN      YANGON        MMR11004091224160019320409000000000000000   10300001 00104100000000000413000000000000     
100   62911028202703370000000000045000000000045000002000000010410404090948220045003880110409209909004500   1030000600030000   554100001211315799420000663DENKO  TETKONE         TETKONE       MMR11004090948220045000409000000000000000   10300001 00104100000000001350000000000000     
100   62443100306416880000000000020200000000020200002000000010410404090956310029690089940409209909002969   1030000600030000   554100001228315799420000682DENKO MEIKHTILAR       MEIKHTILAR.   MMR11004090956310029690409000000000000000   10300001 00104100000000002424000000000000     
100   62911028202803930000000000032450000000032450002000000010410404090857560038003880110409209908003800   1030000600030000   581200001876315799420001246BLACK CANYON JC        PABEDAN       MMR11004090857560038000409000000000000000   10300001 00104100000000003310000000000000     
100   95030341448197210000000000027000000000027000002000000010410404090953130033635899110409209909003363   1030000600030000   554100000845315799420000377DENKO NYAUNG U 2       NYAUNG U      MMR11004090953130033630409000000000000000   10300001 00104100000000000810000000000000     
100   95030318100004530000000000025000000000025000002000000010410404090207070086603102610409209902008660   1030000600030000   554100001218315799420000670DENKO MAWLAMYAING      MON STATE.    MMR11004090207070086600409000000000000000   10300001 00104100000000000750000000000000     
100   62443100306416880000000000039750000000039750002000000010410404090515240365946062830409209905036594   1030000600030000   554100001106315799420000564DENKO PHYUU            PHYUU         MMR11004090515240365940409000000000000000   10300001 00104100000000004770000000000000     
100   62911028202221220000000000010000000000010000002000000010410404082303220780431999710409209923078043   1030000600030000   554100000946315799420000471DENKO BAHAN            YANGON        MMR11004082303220780430409000000000000000   10300001 00104100000000000300000000000000     
100   95050318046885190000000000035000000000035000002000000010410404200257222722505298470420000007021797   1030000200030000   333800010001203104000003327KBZPay                 Yangon        MMR11004200257222722500420000000000000000   10300001F05104100000000007350000000000000     
100   95030310098554020000000000056000000000056000002000000010410404200919363409015510700420211016340901   1040001600030000   598320000659000000010000528Shwe Taung Energy (YGN Yangon        MMR11004200919363409010420000000000000000   10300001F00104100000000001680000000000000     
100   95050316818236190000000000002940000000002940002000000010410404200810104010408402310420000007024528   1020000200030000   333400010001204104000000281Myanmar Soft-Gate Tech Yangon        MMR11004200810104010400420000000000000000   10300001F05104100000000000617000000000000     
100   95050314570621780000000000000980000000000980002000000010410404200311294129397121150420000007021918   1020000200030000   333400010001204104000000281Myanmar Soft-Gate Tech Yangon        MMR11004200311294129390420000000000000000   10300001F05104100000000000206000000000000     
100   95050316818236190000000000000980000000000980002000000010410404200308193819168773630420000007021865   1020000200030000   333400010001204104000000281Myanmar Soft-Gate Tech Yangon        MMR11004200308193819160420000000000000000   10300001F05104100000000000206000000000000     
100   95050313145843230000000000095000000000095000002000000010410404201006343634198012490420000007025355   1030000200030000   333800010001203104000003327KBZPay                 Yangon        MMR11004201006343634190420000000000000000   10300001F05104100000000019950000000000000     
100   62443100379321630000000000075900000000075900002000000010410404200237548532136440380420513070947109   1030000300030000   555510124364104519000020166Makro Myanmar                        MMR11004200237548532130420000000000000000   10300001 00104100000000018216000000000000     
100   95050319528093960000000000000980000000000980002000000010410404200802263226475012250420000007024479   1020000200030000   333400010001204104000000281Myanmar Soft-Gate Tech Yangon        MMR11004200802263226470420000000000000000   10300001F05104100000000000206000000000000     
100   62911028202207460000000000038741000000038741002000000010410404191301310224296685900419000745809517   1030000200030000   541188001059000008000000314KBZ BANK               MARKETPLACE - MMR11004191301310224290419000000000000000   10300001 00104100000000002325000000000000     
100   62911028202366010000000000020000000000020000002000000010410404190627550349666685900419210906034966   1030000600030000   554100001865315799420001235DENKO NAY PYI TAW 2    NAYPYITAW     MMR11004190627550349660419000000000000000   10300001 00104100000000000600000000000000     
100   62443100369813440000000000020000000000020000002000000010410404190343390033487186740419210910003348   1030000500030000   598320001302000015172200013MAX ENERGY             PTN           MMR11004190343390033480419000000000000000   10300001 00104100000000002400000000000000     
100   95030356977005070000000000003500000000003500002000000010410404191908460198086685900419000745827408   1030000200030000   541188001030000008000000298KBZ BANK               CITY MART - M MMR11004191908460198080419000000000000000   10300001 00104100000000000210000000000000     
100   95030356977005070000000000006500000000006500002000000010410404191910340198096685900419000745827491   1030000200030000   541188001030000008000000298KBZ BANK               CITY MART - M MMR11004191910340198090419000000000000000   10300001 00104100000000000390000000000000     
100   95050317492158990000000000029000000000029000002000000010410404190943430043484441790419000745796760   1030000200030000   541188001426000008000000401KBZ BANK               OCEAN SUPERCE MMR11004190943430043480419000000000000000   10300001 00104100000000007250000000000000     
100   62911028202441420000000000006997000000006997002000000010410404191515350103236685900419000745817186   1030000200030000   541188001081000008000000294KBZ BANK               CITY MART - J MMR11004191515350103230419000000000000000   10300001 00104100000000000420000000000000     
100   95030361482647470000000000043969000000043969002000000010410404191303540304816685900419000745809661   1030000200030000   541188001041000008000000010KBZ BANK               MARKETPLACE - MMR11004191303540304810419000000000000000   10300001 00104100000000002638000000000000     
100   62911028202423360000000000030000000000030000002000000010410404090249580718863359710409209902071886   1030000600030000   554100000955315799420000477DENKO INSEIN           YANGON        MMR11004090249580718860409000000000000000   10300001 00104100000000000900000000000000     
100   62911028202204070000000000060000000000060000002000000010410404090356130781163757200409209903078116   1030000600030000   554100000946315799420000471DENKO BAHAN            YANGON        MMR11004090356130781160409000000000000000   10300001 00104100000000001800000000000000     
100   95050320093758110000000000040000000000040000002000000010410404101055120059545805180410210010005954   1030000600030000   554100002139315799420001488DENKO MDY-12           MANDALAY      MMR11004101055120059540410000000000000000   10300001 00104100000000004800000000000000     
100   95050322715181550000000000040000000000040000002000000010410404100342150155154863410410210003015515   1030000600030000   554100002319315799420000477DENKO INSEIN           YANGON        MMR11004100342150155150410000000000000000   10300001 00104100000000004800000000000000     
100   95050315296997180000000000030000000000030000002000000010410404101134580183195536100410210011018319   1030000600030000   554100000747315799420000325DENKO MDY 26           YANGON        MMR11004101134580183190410000000000000000   10300001 00104100000000003600000000000000     
100   62443100311760720000000000029000000000029000002000000010410404100200210084841231840410210002008484   1030000600030000   554100002085315799420000471DENKO BAHAN            YANGON        MMR11004100200210084840410000000000000000   10300001 00104100000000003480000000000000     
100   95050312781844250000000000030000000000030000002000000010410404100721420247722189770410210007024772   1030000600030000   554100000725315799420000306DENKO MDY - 78         MANDALAY      MMR11004100721420247720410000000000000000   10300001 00104100000000003600000000000000     
100   62911028202610960000000000075000000000075000002000000010410404101010300040806002410410210010004080   1030000600030000   554100001225315799420000678DENKO THEINZEIK        THEINZEIK     MMR11004101010300040800410000000000000000   10300001 00104100000000002250000000000000     
100   95050314703432410000000000002940000000002940002000000010410404201203103310815799980420000007025827   1020000200030000   333400010001204104000000281Myanmar Soft-Gate Tech Yangon        MMR11004201203103310810420000000000000000   10300001F05104100000000000617000000000000     
100   95050311121153200000000000000980000000000980002000000010410404201104203420025728670420000007025628   1020000200030000   333400010001204104000000281Myanmar Soft-Gate Tech Yangon        MMR11004201104203420020420000000000000000   10300001F05104100000000000206000000000000     
100   95050312498129060000000000000980000000000980002000000010410404201306533653540672340420000007026091   1020000200030000   333400010001204104000000281Myanmar Soft-Gate Tech Yangon        MMR11004201306533653540420000000000000000   10300001F05104100000000000206000000000000     
100   95050315615561720000000000000980000000000980002000000010410404201023095309501913130420000007025445   1020000200030000   333400010001204104000000281Myanmar Soft-Gate Tech Yangon        MMR11004201023095309500420000000000000000   10300001F05104100000000000206000000000000     
100   95050324702000270000000001000000000001000000002000000010410404200219408531367326990420389530852109   1030000300030000   555510119008104519000016170Z N T Mobile                         MMR11004200219408531360420000000000000000   10300001 00104100000000240000000000000000     
100   95050324702000270000000001000000000001000000002000000010410404200220168531419064570420398540831109   1030000300030000   555510119008104519000016170Z N T Mobile                         MMR11004200220168531410420000000000000000   10300001 00104100000000240000000000000000     
100   95050319532433550000000000025000000000025000002000000010410404201256232623492239720420000007026042   1030000200030000   333800010001203104000003327KBZPay                 Yangon        MMR11004201256232623490420000000000000000   10300001F05104100000000005250000000000000     
100   95050310794962000000000000000980000000000980002000000010410404201202353235037452460420000007025824   1020000200030000   333400010001204104000000281Myanmar Soft-Gate Tech Yangon        MMR11004201202353235030420000000000000000   10300001F05104100000000000206000000000000     
100   95050311876202380000000000030000000000030000002000000010410404131039080295631282880413210310029563   1030000600030000   554100001155315799420000607DENKO NPT 1            NAYPYITAW.    MMR11004131039080295630413000000000000000   10300001 00104100000000003600000000000000     
100   62911028202023630000000000080000000000080000002000000010410404091002470173795956210409209910017379   1030000600030000   554100001212315799420000664DENKO TA TAR OO        TA TAR OO     MMR11004091002470173790409000000000000000   10300001 00104100000000002400000000000000     
100   95050315005801680000000000002940000000002940002000000010410404200223435343548979480420000007021580   1020000200030000   333400010001204104000000281Myanmar Soft-Gate Tech Yangon        MMR11004200223435343540420000000000000000   10300001F05104100000000000617000000000000     
100   95030306100081790000000000019600000000019600002000000010410404201500560137895405910420000745864918   1030000200030000   541188001073000008000000294KBZ BANK               CITY MART - J MMR11004201500560137890420000000000000000   10300001 00104100000000001176000000000000     
100   95050313497815710000000000010000000000010000002000000010410404201426345634999530430420000007026393   1030000200030000   333800010001203104000003327KBZPay                 Yangon        MMR11004201426345634990420000000000000000   10300001F05104100000000002100000000000000     
100   95030380891034700000000000002000000000002000002000000010410404200720455045504422300420000007024152   1030000200030000   3338000100012031040000040022C2P (Myanmar) Co. Ltd Yangon        MMR11004200720455045500420000000000000000   10300001F05104100000000000420000000000000     
100   62911028202091860000000000000979000000000979002000000010410404200721075107344987710420000007024157   1020000200030000   333400010001204104000000281Myanmar Soft-Gate Tech Yangon        MMR11004200721075107340420000000000000000   10300001F05104100000000000205000000000000     
100   95050323233042810000000000000980000000000980002000000010410404201312324232069104950420000007026124   1020000200030000   333400010001204104000000281Myanmar Soft-Gate Tech Yangon        MMR11004201312324232060420000000000000000   10300001F05104100000000000206000000000000     
100   62911028202154800000000000054000000000054000002000000010410404100635580113943880110410210006011394   1030000600030000   554100001214315799420000666DENKO MAGWAY - 1       MAGWAY.       MMR11004100635580113940410000000000000000   10300001 00104100000000001620000000000000     
100   62911028202335820000000000031000000000031000002000000010410404101114090048806384710410210011004880   1030000600030000   554100000744315799420000322DENKO AMARAPURA-PACHI  MANDALAY      MMR11004101114090048800410000000000000000   10300001 00104100000000000930000000000000     
100   62443100302523870000000000039976000000039976002000000010410404100743140103226891930410210007010322   1030000600030000   554100002324315799420000481DENKO NORTH OKKALAPA   YANGON        MMR11004100743140103220410000000000000000   10300001 00104100000000004797000000000000     
100   62911028202204070000000000032000000000032000002000000010410404101108160087063880110410210011008706   1030000600030000   554100002085315799420000471DENKO BAHAN            YANGON        MMR11004101108160087060410000000000000000   10300001 00104100000000000960000000000000     
100   62911028202188560000000000020000000000020000002000000010410404100536360441903880110410210005044190   1030000600030000   554100001001315799420000498DENKO SHWE PYI THAR    YANGON        MMR11004100536360441900410000000000000000   10300001 00104100000000000600000000000000     
100   62911028202610960000000000053000000000053000002000000010410404092349580782652279800410210023078265   1030000600030000   554100000946315799420000471DENKO BAHAN            YANGON        MMR11004092349580782650410000000000000000   10300001 00104100000000001590000000000000     
100   95030305100040620000000000047000000000047000002000000010410404100223250783113199910410210002078311   1030000600030000   554100000946315799420000471DENKO BAHAN            YANGON        MMR11004100223250783110410000000000000000   10300001 00104100000000001410000000000000     
100   95030305100040620000000000078800000000078800002000000010410404100224140783123880110410210002078312   1030000600030000   554100000946315799420000471DENKO BAHAN            YANGON        MMR11004100224140783120410000000000000000   10300001 00104100000000002364000000000000     
100   95050314570621780000000000000980000000000980002000000010410404201305543554237367370420000007026085   1020000200030000   333400010001204104000000281Myanmar Soft-Gate Tech Yangon        MMR11004201305543554230420000000000000000   10300001F05104100000000000206000000000000     
100   62911028202169750000000000247500000000247500002000000010410404200420413997123911300420050419161225   1040001400030000   591210000148025912100001206Thuwunnadipa Thuwunnad pa No-91  Gro MMR11004200420413997120420000000000000000   10300001 00104100000000014850000000000000     
100   95050313702988830000000000002940000000002940002000000010410404201118124812142508800420000007025679   1020000200030000   333400010001204104000000281Myanmar Soft-Gate Tech Yangon        MMR11004201118124812140420000000000000000   10300001F05104100000000000617000000000000     
100   62443101096632410000000000051000000000051000002000000010410404201444292577086736040420027142129109   1030000900030000   554119000997190110000000803Puma Power SOKL        YANGONOKKALAP MMR11004201444292577080420000000000000000   10300001F00104100000000006120000000000000     
100   95030302388346590000000000020000000000020000002000000010410404200422415241826685900420000007022532   1030000200030000   3338000100012031040000040022C2P (Myanmar) Co. Ltd Yangon        MMR11004200422415241820420000000000000000   10300001F05104100000000004200000000000000     
100   62443100379321630000000000014100000000014100002000000010410404200348088538426657330420146211039109   1030000500030000   555610112532104519000010487Ocean Super Center St  ohn           MMR11004200348088538420420000000000000000   10300001 00104100000000003525000000000000     
100   62911028202676220000000000005050000000005050002000000010410404201120135013735510700420000007025689   1030000200030000   333800010001203104000003327KBZPay                 Yangon        MMR11004201120135013730420000000000000000   10300001F05104100000000001061000000000000     
100   95050312498129060000000000002940000000002940002000000010410404201228035803224232590420000007025919   1020000200030000   333400010001204104000000281Myanmar Soft-Gate Tech Yangon        MMR11004201228035803220420000000000000000   10300001F05104100000000000617000000000000     
100   95050314703432410000000000002940000000002940002000000010410404201207193719395885080420000007025844   1020000200030000   333400010001204104000000281Myanmar Soft-Gate Tech Yangon        MMR11004201207193719390420000000000000000   10300001F05104100000000000617000000000000     
100   62911028202243670000000000056300000000056300002000000010410404200243443221096685900420211009322109   1040001600030000   591220000288000000010000276Shwe Ohh Pharmacy (Nor Yangon        MMR11004200243443221090420000000000000000   10300001F00104100000000003378000000000000     
100   95050316377032610000000000056350000000056350002000000010410404200323362437173821550420630530936109   1030000900030000   541119000613190110000000452Pro(1) Global-Hlaing T YANGONTHARYA  MMR11004200323362437170420000000000000000   10300001F00104100000000014088000000000000     
100   95050322426452690000000000060000000000060000002000000010410404180509220105052889280418210805010505   1030000600030000   554100001217315799420000669DENKO PHAYAR GYI       BAGO          MMR11004180509220105050418000000000000000   10300001 00104100000000007200000000000000     
100   95050326593223450000000000081342000000081342002000000010410404090836040144200339510409209908014420   1030000600030000   809900000541315799420000147GRAND HANTHA HOSPITAL  YANGON        MMR11004090836040144200409000000000000000   10300001 00104100000000019522000000000000     
100   95030301100119050000000000050000000000050000002000000010410404200438500850426685900420000007022646   1030000200030000   333800010001203104000003327KBZPay                 Yangon        MMR11004200438500850420420000000000000000   10300001F05104100000000010500000000000000     
100   95050310178107440000000000005000000000005000002000000010410404200303503350532333890420000007021846   1030000200030000   3338000100012031040000040022C2P (Myanmar) Co. Ltd Yangon        MMR11004200303503350530420000000000000000   10300001F05104100000000001050000000000000     
100   62911028202154800000000000016000000000016000002000000010410404131016530057176685900413210310005717   1030000600030000   554100002141315799420001490DENKO MEIKHTILA 3      MANDALAY      MMR11004131016530057170413000000000000000   10300001 00104100000000000480000000000000     
100   62443100309698080000000000070000000000070000002000000010410404100148490596914451710410210001059691   1030000600030000   554100000952315799420000474DENKO N.DAGON - 1      YANGON        MMR11004100148490596910410000000000000000   10300001 00104100000000008400000000000000     
100   95050314950595330000000000001000000000001000002000000010410404200630190019748801210420000007023697   1030000200030000   3338000100012031040000040022C2P (Myanmar) Co. Ltd Yangon        MMR11004200630190019740420000000000000000   10300001F05104100000000000210000000000000     
100   62911028202233510000000000016400000000016400002000000010410404201658450056625510700420000745870306   1030000200030000   541188001084000008000000294KBZ BANK               CITY MART - J MMR11004201658450056620420000000000000000   10300001 00104100000000000984000000000000     
100   62911028202109860000000000015200000000015200002000000010410404201412190010455114110420000745862037   1030000200030000   541188001021000008000000298KBZ BANK               CITY MART - M MMR11004201412190010450420000000000000000   10300001 00104100000000000912000000000000     
100   62911028202151340000000000014250000000014250002000000010410404201509280012365457010420000745865374   1030000200030000   541188001079000008000000294KBZ BANK               CITY MART - J MMR11004201509280012360420000000000000000   10300001 00104100000000000855000000000000     
100   62911028202726970000000000022720000000022720002000000010410404201329200014674422300420000745859315   1030000200030000   541188001488000008000000399KBZ BANK               OCEAN SUPERCE MMR11004201329200014670420000000000000000   10300001 00104100000000001363000000000000     
100   62911028202509170000000000022950000000022950002000000010410404201618100060485510700420000745868547   1030000200030000   541188001006000008000000008KBZ BANK               MARKETPLACE - MMR11004201618100060480420000000000000000   10300001 00104100000000001377000000000000     
100   62911028202726970000000000024350000000024350002000000010410404201330540014684865610420000745859417   1030000200030000   541188001488000008000000399KBZ BANK               OCEAN SUPERCE MMR11004201330540014680420000000000000000   10300001 00104100000000001461000000000000     
100   62443100392426520000000000010000000000010000002000000010410404201558192819315083560420000007026737   1030000200030000   333800010001203104000003327KBZPay                 Yangon        MMR11004201558192819310420000000000000000   10300001F05104100000000002100000000000000     
100   62911028202099050000000000119850000000119850002000000010410404200715133351684422300420211014335168   1040001600030000   591220000266000000010000254Shwe Ohh Pharmacy (Sin Yangon        MMR11004200715133351680420000000000000000   10300001F00104100000000007191000000000000     
100   62443100333488440000000000090900000000090900002000000010410404200909353403941147260420211016340394   1040001600030000   541120000573000000010000465Ocean Shwe Gone Daing  Yangon        MMR11004200909353403940420000000000000000   10300001F00104100000000022725000000000000     
100   95050314703432410000000000001000000000001000002000000010410404201112014201064161290420000007025652   1030000200030000   3334000100012031040000040102C2P (Myanmar) Co. Ltd Yangon        MMR11004201112014201060420000000000000000   10300001F05104100000000000210000000000000     
100   95030301100128950000000000056900000000056900002000000010410404200628468556834422300420135581236109   1030000300030000   555510124362104519000020166Makro Myanmar                        MMR11004200628468556830420000000000000000   10300001 00104100000000003414000000000000     
100   95050311419479170000000000001960000000001960002000000010410404200517474747847230140420000007023065   1020000200030000   333400010001204104000000281Myanmar Soft-Gate Tech Yangon        MMR11004200517474747840420000000000000000   10300001F05104100000000000412000000000000     
100   62911028202473840000000000011600000000011600002000000010410404201057283476525510700420211017347652   1040001600030000   591220000278000000010000266Shwe Ohh Pharmacy (Bah Yangon        MMR11004201057283476520420000000000000000   10300001F00104100000000000696000000000000     
100   62911028202077190000000000000980000000000980002000000010410404201009003900355510700420000007025361   1020000200030000   333400010001204104000000281Myanmar Soft-Gate Tech Yangon        MMR11004201009003900350420000000000000000   10300001F05104100000000000206000000000000     
100   62911028202761360000000000057000000000057000002000000010410404120230240094506685900412210202009450   1030000600030000   554100002328315799420001235DENKO NAY PYI TAW 2    NAYPYITAW     MMR11004120230240094500412000000000000000   10300001 00104100000000001710000000000000     
100   62911028202631420000000000035400000000035400002000000010410404190930580003256685900419210916000325   1030000500030000   569120159701009305691201597MK FASHION SHOP        PTN           MMR11004190930580003250419000000000000000   10300001 00104100000000002124000000000000     
100   95050315955808830000000000033000000000033000002000000010410404140940360034573950810414210409003457   1030000600030000   554100001220315799420000672DENKO HPA AN - 1       HPA-AN        MMR11004140940360034570414000000000000000   10300001 00104100000000003960000000000000     
100   62911028202142100000000000010000000000010000002000000010410404201258162816905510700420000007026049   1030000200030000   333800010001203104000003327KBZPay                 Yangon        MMR11004201258162816900420000000000000000   10300001F05104100000000002100000000000000     
100   95030308100042590000000000052000000000052000002000000010410404110819390034366685900411210108003436   1030000600030000   554100001269315799420000723DENKO GYOBINGAUK       GYOBINGAUK    MMR11004110819390034360411000000000000000   10300001 00104100000000001560000000000000     
100   62911028202130710000000000016200000000016200002000000010410404201601260145905510700420000745867838   1030000200030000   541188001061000008000000314KBZ BANK               MARKETPLACE - MMR11004201601260145900420000000000000000   10300001 00104100000000000972000000000000     
100   95050315296997180000000000020000000000020000002000000010410404120244480024504736180412210202002450   1030000600030000   554100001265315799420000719DENKO WAN TWIN         WAN TWIN.     MMR11004120244480024500412000000000000000   10300001 00104100000000002400000000000000     
100   95050315158357300000000000002940000000002940002000000010410404201234150415612580110420000007025942   1020000200030000   333400010001204104000000281Myanmar Soft-Gate Tech Yangon        MMR11004201234150415610420000000000000000   10300001F05104100000000000617000000000000     
100   62911028202088990000000000050000000000050000002000000010410404200345310023526685900420000745845537   1030000200030000   598388001833000008000005310KBZ BANK               BOC (138 MILE MMR11004200345310023520420000000000000000   10300001 00104100000000001500000000000000     
100   62443100359661970000000000369000000000369000002000000010410404200301330000480596310420000745843433   1030000200030000   504688002437000008000006497KBZ BANK               MARY TERMINAL MMR11004200301330000480420000000000000000   10300001 00104100000000088560000000000000     
100   95050311823681970000000000013320000000013320002000000010410404201604230022529239490420000745867945   1030000200030000   541188001480000008000000399KBZ BANK               OCEAN SUPERCE MMR11004201604230022520420000000000000000   10300001 00104100000000003330000000000000     
100   95050316818236190000000000002940000000002940002000000010410404200430280028040206130420000007022588   1020000200030000   333400010001204104000000281Myanmar Soft-Gate Tech Yangon        MMR11004200430280028040420000000000000000   10300001F05104100000000000617000000000000     
100   95030394609966640000000000012500000000012500002000000010410404201516220055975498410420000745865763   1030000200030000   541188001022000008000000298KBZ BANK               CITY MART - M MMR11004201516220055970420000000000000000   10300001 00104100000000000750000000000000     
100   95050312539675540000000000034250000000034250002000000010410404201937060022809019850420000745876381   1030000200030000   541188001348000008000000395KBZ BANK               OCEAN SUPERMA MMR11004201937060022800420000000000000000   10300001 00104100000000008563000000000000     
100   62911028202151340000000000010400000000010400002000000010410404201449560185715339810420000745864332   1030000200030000   541188001075000008000000294KBZ BANK               CITY MART - J MMR11004201449560185710420000000000000000   10300001 00104100000000000624000000000000     
100   62911028202441420000000000032900000000032900002000000010410404201513020185785478410420000745865599   1030000200030000   541188001075000008000000294KBZ BANK               CITY MART - J MMR11004201513020185780420000000000000000   10300001 00104100000000001974000000000000     
100   95050320360851930000000000000980000000000980002000000010410404200416584658123327150420000007022486   1020000200030000   333400010001204104000000281Myanmar Soft-Gate Tech Yangon        MMR11004200416584658120420000000000000000   10300001F05104100000000000206000000000000     
100   95030385641361850000000000008600000000008600002000000010410404201158132553895510700420591281813109   1030000900030000   541119001219190110000000945City Mart TM C 4       YANGONONE     MMR11004201158132553890420000000000000000   10300001F00104100000000000516000000000000     
100   62911028202809060000000000050000000000050000002000000010410404200201463146436685900420000007021452   1030000200030000   333800010001203104000003327KBZPay                 Yangon        MMR11004200201463146430420000000000000000   10300001F05104100000000010500000000000000     
100   62911028202197630000000000007950000000007950002000000010410404200619553325504422300420211013332550   1040001600030000   591220000277000000010000265Shwe Ohh Pharmacy (Thu Yangon        MMR11004200619553325500420000000000000000   10300001F00104100000000000477000000000000     
100   95050310794962000000000000001960000000001960002000000010410404201159292929774147500420000007025812   1020000200030000   333400010001204104000000281Myanmar Soft-Gate Tech Yangon        MMR11004201159292929770420000000000000000   10300001F05104100000000000412000000000000     
100   95030346179196360000000000020000000000020000002000000010410404201035073457845510700420211017345784   1040001600030000   598320000856000000010000609Terminal Petrol Statio Yangon        MMR11004201035073457840420000000000000000   10300001F00104100000000000600000000000000     
100   95050312498129060000000000001960000000001960002000000010410404200205313531460645750420000007021481   1020000200030000   333400010001204104000000281Myanmar Soft-Gate Tech Yangon        MMR11004200205313531460420000000000000000   10300001F05104100000000000412000000000000     
100   95050313702988830000000000001960000000001960002000000010410404201121155115340430840420000007025690   1020000200030000   333400010001204104000000281Myanmar Soft-Gate Tech Yangon        MMR11004201121155115340420000000000000000   10300001F05104100000000000412000000000000     
100   62911028202204490000000000111250000000111250002000000010410404181420400003696685900418210814000369   1030000600030000   581200002403315799420001675PARADISE HOTPOT TC     YANGON        MMR11004181420400003690418000000000000000   10300001 00104100000000011348000000000000     
100   62911028202442250000000000065009000000065009002000000010410404190044590029856685900419210907002985   1030000500030000   598320001201000015172200012MAX ENERGY             PTN           MMR11004190044590029850419000000000000000   10300001 00104100000000001950000000000000     
100   95050310251874990000000000006000000000006000002000000010410404191308090018630519290419000745809898   1030000200030000   541188001438000008000000401KBZ BANK               OCEAN SUPERCE MMR11004191308090018630419000000000000000   10300001 00104100000000001500000000000000     
100   95030301100121270000000000025000000000025000002000000010410404171049150129566685900417210710012956   1030000600030000   554100002323315799420000474DENKO N.DAGON - 1      YANGON        MMR11004171049150129560417000000000000000   10300001 00104100000000000750000000000000     
100   95050321232876860000000000072000000000072000002000000010410404160604060096982912800416210606009698   1030000600030000   554100002328315799420001235DENKO NAY PYI TAW 2    NAYPYITAW     MMR11004160604060096980416000000000000000   10300001 00104100000000008640000000000000     
100   62443100393841160000000000045000000000045000002000000010410404170345230093633039540417210703009363   1030000600030000   554100001237315799420000691DENKO AUNG PAN         KALAW.        MMR11004170345230093630417000000000000000   10300001 00104100000000005400000000000000     
100   95030301100127050000000000048200000000048200002000000010410404200610513320704565200420211013332070   1040001600030000   591220000043000000010000041Mingalar Pharmacy      Yangon        MMR11004200610513320700420000000000000000   10300001F00104100000000002892000000000000     
100   95030305700676370000000000050000000000050000002000000010410404190448080047976685900419210904004797   1030000600030000   554100001232315799420000686DENKO TAUNG LAY LONE   TAUNGGYI      MMR11004190448080047970419000000000000000   10300001 00104100000000001500000000000000     
100   62911028202318750000000000036500000000036500002000000010410404201715120155265510700420000745871023   1030000200030000   541188001020000008000000298KBZ BANK               CITY MART - M MMR11004201715120155260420000000000000000   10300001 00104100000000002190000000000000     
100   95050318471308000000000000101000000000101000002000000010410404200831090109913700150420000007024674   1030000200030000   333800010001203104000003327KBZPay                 Yangon        MMR11004200831090109910420000000000000000   10300001F05104100000000021210000000000000     
100   95050316818236190000000000000980000000000980002000000010410404200832580258937090210420000007024692   1020000200030000   333400010001204104000000281Myanmar Soft-Gate Tech Yangon        MMR11004200832580258930420000000000000000   10300001F05104100000000000206000000000000     
100   95050315158357300000000000000980000000000980002000000010410404200235270527398007760420000007021645   1020000200030000   333400010001204104000000281Myanmar Soft-Gate Tech Yangon        MMR11004200235270527390420000000000000000   10300001F05104100000000000206000000000000     
100   95050312240830690000000000002940000000002940002000000010410404201532560256060041010420000007026658   1020000200030000   333400010001204104000000281Myanmar Soft-Gate Tech Yangon        MMR11004201532560256060420000000000000000   10300001F05104100000000000617000000000000     
100   95030306100081790000000000042250000000042250002000000010410404201200110137784321300420000745853350   1030000200030000   541188001073000008000000294KBZ BANK               CITY MART - J MMR11004201200110137780420000000000000000   10300001 00104100000000002535000000000000     
100   62443100379116470000000000007058000000007058002000000010410404201919130329035970170420000745876003   1030000200030000   541188001025000008000000298KBZ BANK               CITY MART - M MMR11004201919130329030420000000000000000   10300001 00104100000000001765000000000000     
100   95050320335873810000000000003000000000003000002000000010410404200335560556616020300420000007022127   1030000200030000   333800010001203104000003327KBZPay                 Yangon        MMR11004200335560556610420000000000000000   10300001F05104100000000000630000000000000     
100   95050319528093960000000000001960000000001960002000000010410404200717554755371304660420000007024135   1020000200030000   333400010001204104000000281Myanmar Soft-Gate Tech Yangon        MMR11004200717554755370420000000000000000   10300001F05104100000000000412000000000000     
100   95050321232876860000000000057000000000057000002000000010410404130235580095240176630413210302009524   1030000600030000   554100002328315799420001235DENKO NAY PYI TAW 2    NAYPYITAW     MMR11004130235580095240413000000000000000   10300001 00104100000000006840000000000000     
100   95050315296997180000000000030000000000030000002000000010410404130405000057192644420413210304005719   1030000600030000   554100000841315799420000373DENKO NYAUNG U         NYAUNG U      MMR11004130405000057190413000000000000000   10300001 00104100000000003600000000000000     
100   95050328074436620000000000051000000000051000002000000010410404130138060251287212040413210301025128   1030000600030000   554100000725315799420000306DENKO MDY - 78         MANDALAY      MMR11004130138060251280413000000000000000   10300001 00104100000000006120000000000000     
100   62911028202099050000000000029000000000029000002000000010410404130616240374826685900413210306037482   1030000600030000   554100001106315799420000564DENKO PHYUU            PHYUU         MMR11004130616240374820413000000000000000   10300001 00104100000000000870000000000000     
100   62911028202248050000000000020000000000020000002000000010410404130358150295286685900413210303029528   1030000600030000   554100001155315799420000607DENKO NPT 1            NAYPYITAW.    MMR11004130358150295280413000000000000000   10300001 00104100000000000600000000000000     
100   62911028202686950000000000022000000000022000002000000010410404122346160094036685900413210323009403   1030000600030000   554100002085315799420000471DENKO BAHAN            YANGON        MMR11004122346160094030413000000000000000   10300001 00104100000000000660000000000000     
100   95050328768121690000000000020000000000020000002000000010410404130354520017032715730413210303001703   1030000600030000   554100002106315799420001456DENKO TAUNGGOK         RAKHINE       MMR11004130354520017030413000000000000000   10300001 00104100000000002400000000000000     
100   95050313732480420000000000002940000000002940002000000010410404201055422542995133000420000007025600   1020000200030000   333400010001204104000000281Myanmar Soft-Gate Tech Yangon        MMR11004201055422542990420000000000000000   10300001F05104100000000000617000000000000     
100   62911028202313470000000000050000000000050000002000000010410404190005550023386685900419210906002338   1030000500030000   598320001603000015172200016MAX ENERGY             PTN           MMR11004190005550023380419000000000000000   10300001 00104100000000001500000000000000     
100   62911028202193830000000000030000000000030000002000000010410404170707350123516685900417210707012351   1030000600030000   554100002320315799420000564DENKO PHYUU            PHYUU         MMR11004170707350123510417000000000000000   10300001 00104100000000000900000000000000     
100   95050326228858240000000000055000000000055000002000000010410404140708530296384716670414210407029638   1030000600030000   554100001155315799420000607DENKO NPT 1            NAYPYITAW.    MMR11004140708530296380414000000000000000   10300001 00104100000000006600000000000000     
100   95050320093758110000000000020000000000020000002000000010410404181036310062083859910418210810006208   1030000600030000   554100002139315799420001488DENKO MDY-12           MANDALAY      MMR11004181036310062080418000000000000000   10300001 00104100000000002400000000000000     
100   62911028202471860000000000053070000000053070002000000010410404160615120100676685900416210606010067   1030000600030000   554100002085315799420000471DENKO BAHAN            YANGON        MMR11004160615120100670416000000000000000   10300001 00104100000000001592000000000000     
100   95030318100004530000000000025000000000025000002000000010410404160254250090066685900416210602009006   1030000600030000   554100001218315799420000670DENKO MAWLAMYAING      MON STATE.    MMR11004160254250090060416000000000000000   10300001 00104100000000000750000000000000     
100   62911028202023630000000000070000000000070000002000000010410404161100270058776685900416210611005877   1030000600030000   554100002141315799420001490DENKO MEIKHTILA 3      MANDALAY      MMR11004161100270058770416000000000000000   10300001 00104100000000002100000000000000     
