100   95030301100124400000000000031000000000031000002000000010410404201140280692105510700420211011069210   1030000600030000   554100000957315799420000480DENKO N.DAGON - 3      YANGON        MMR11004201140280692100420000000000000000   10300001 00104100000000000930000000000000     
100   95030385550669610000000000074100000000074100002000000010410404200452570690744097000420211004069074   1030000600030000   554100000957315799420000480DENKO N.DAGON - 3      YANGON        MMR11004200452570690740420000000000000000   10300001 00104100000000002223000000000000     
100   62911028202509170000000000075000000000075000002000000010410404201055270802735510700420211010080273   1030000600030000   554100000946315799420000471DENKO BAHAN            YANGON        MMR11004201055270802730420000000000000000   10300001 00104100000000002250000000000000     
100   95030320529939180000000000100000000000100000002000000010410404200916393407795510700420211016340779   1040001600030000   598320000918000000010000665MMTM - Thingangyun     Ygn           MMR11004200916393407790420000000000000000   10300001F00104100000000003000000000000000     
100   95050320624349010000000000030000000000030000002000000010410404200020123158256745110420211007315825   1040001600030000   598320000916000000010000664MMTM - North Dagon     Ygn           MMR11004200020123158250420000000000000000   10300001F00104100000000003600000000000000     
100   95050319753756490000000000030000000000030000002000000010410404211505193519715201950421000007032461   1030000200030000   333800010001203104000003327KBZPay                 Yangon        MMR11004211505193519710421000000000000000   10300001F05104100000000006300000000000000     
100   62911028202154720000000000058024000000058024002000000010410404211026194092036098010421211117409203   1040001600030000   598320000658000000010000527Shwe Taung Energy (YGN Yangon        MMR11004211026194092030421000000000000000   10300001F00104100000000001741000000000000     
100   95050316818236190000000000000980000000000980002000000010410404211118424842513038880421000007031650   1020000200030000   333400010001204104000000281Myanmar Soft-Gate Tech Yangon        MMR11004211118424842510421000000000000000   10300001F05104100000000000206000000000000     
100   95050316067768680000000000002940000000002940002000000010410404210227135713159055510421000007027583   1020000200030000   333400010001204104000000281Myanmar Soft-Gate Tech Yangon        MMR11004210227135713150421000000000000000   10300001F05104100000000000617000000000000     
100   95050320559934420000000000097200000000097200002000000010410404210914284046802437490421211116404680   1040001600030000   541120000575000000010000465Ocean Shwe Gone Daing  Yangon        MMR11004210914284046800421000000000000000   10300001F00104100000000024300000000000000     
100   62911028202656830000000000005500000000005500002000000010410404210328258642793593410421987580935110   1030000300030000   555510120538104519000017437Art and T8                           MMR11004210328258642790421000000000000000   10300001 00104100000000000330000000000000     
100   62911028202473840000000000016200000000016200002000000010410404210945242714045871210421517151624110   1030000900030000   591219000694190110000000525Shwe Ohh Pharmacy ST-2 YANGONAW      MMR11004210945242714040421000000000000000   10300001F00104100000000000972000000000000     
100   62911028202503210000000000026750000000026750002000000010410404210837394029465446000421211115402946   1040001600030000   591220000277000000010000265Shwe Ohh Pharmacy (Thu Yangon        MMR11004210837394029460421000000000000000   10300001F00104100000000001605000000000000     
100   95050319161596230000000000000980000000000980002000000010410404210112264226819870810421000007027235   1020000200030000   333400010001204104000000281Myanmar Soft-Gate Tech Yangon        MMR11004210112264226810421000000000000000   10300001F05104100000000000206000000000000     
100   62911028202805750000000000100000000000100000002000000010410404211214474447676750100421000007031856   1030000200030000   333800010001203104000003327KBZPay                 Yangon        MMR11004211214474447670421000000000000000   10300001F05104100000000021000000000000000     
100   95050320450054970000000000170000000000170000002000000010410404210519424942032791670421000007029065   1030000200030000   333800010001203104000003327KBZPay                 Yangon        MMR11004210519424942030421000000000000000   10300001F05104100000000035700000000000000     
100   95050313145843230000000000000980000000000980002000000010410404210926255625787315560421000007031043   1020000200030000   333400010001204104000000281Myanmar Soft-Gate Tech Yangon        MMR11004210926255625780421000000000000000   10300001F05104100000000000206000000000000     
100   95030337100000390000000000013200000000013200002000000010410404210416423900273880300421211111390027   1040001600030000   591220000288000000010000276Shwe Ohh Pharmacy (Nor Yangon        MMR11004210416423900270421000000000000000   10300001F00104100000000000792000000000000     
100   95050318964967630000000000001960000000001960002000000010410404210515434543626096640421000007029034   1020000200030000   333400010001204104000000281Myanmar Soft-Gate Tech Yangon        MMR11004210515434543620421000000000000000   10300001F05104100000000000412000000000000     
100   62443100333488440000000000017700000000017700002000000010410404210514088654909486700421241471143110   1030000300030000   444410123553104519000019771YKKO WZYD                            MMR11004210514088654900421000000000000000   10300001 00104100000000007523000000000000     
100   62911028202417590000000000009900000000009900002000000010410404210448258651404071010421866181111110   1030000500030000   555610103462104519000003420City Mart Yankin Cente 1             MMR11004210448258651400421000000000000000   10300001 00104100000000000594000000000000     
100   95030301100121270000000000003000000000003000002000000010410404210940204060225822110421211116406022   1040001600030000   581420000098000000010000094Cha Tra Mue (Pinlon)   Yangon        MMR11004210940204060220421000000000000000   10300001F00104100000000000090000000000000     
100   95030367537085740000000000001960000000001960002000000010410404211411534153707452710421000007032291   1020000200030000   333400010001204104000000281Myanmar Soft-Gate Tech Yangon        MMR11004211411534153700421000000000000000   10300001F05104100000000000412000000000000     
100   95050311736839760000000000001960000000001960002000000010410404210125285528419955910421000007027275   1020000200030000   333400010001204104000000281Myanmar Soft-Gate Tech Yangon        MMR11004210125285528410421000000000000000   10300001F05104100000000000412000000000000     
100   95050316067768680000000000001960000000001960002000000010410404210102343234616480750421000007027208   1020000200030000   333400010001204104000000281Myanmar Soft-Gate Tech Yangon        MMR11004210102343234610421000000000000000   10300001F05104100000000000412000000000000     
100   95030314863516850000000000005000000000005000002000000010410404210827215721755385410421000007030550   1030000200030000   333800010001203104000003327KBZPay                 Yangon        MMR11004210827215721750421000000000000000   10300001F05104100000000001050000000000000     
100   62911028202150010000000000019000000000019000002000000010410404210447413914054066500421211111391405   1040001600030000   569120000924000000010000671Generation Concept Sto Ygn           MMR11004210447413914050421000000000000000   10300001F00104100000000001140000000000000     
100   95050312498129060000000000002940000000002940002000000010410404210110304030201523300421000007027234   1020000200030000   333400010001204104000000281Myanmar Soft-Gate Tech Yangon        MMR11004210110304030200421000000000000000   10300001F05104100000000000617000000000000     
100   62443100364681690000000000020000000000020000002000000010410404210237373862622105190421211109386262   1040001600030000   598320000832000000010000597Regency Petrol Station Ygn           MMR11004210237373862620421000000000000000   10300001F00104100000000002400000000000000     
100   95050314307746340000000000000980000000000980002000000010410404210310114011261218570421000007027877   1020000200030000   333400010001204104000000281Myanmar Soft-Gate Tech Yangon        MMR11004210310114011260421000000000000000   10300001F05104100000000000206000000000000     
100   62911028202446540000000000019000000000019000002000000010410404210941324061025829310421211116406102   1040001600030000   569120000926000000010000673Generation Concept Sto Ygn           MMR11004210941324061020421000000000000000   10300001F00104100000000001140000000000000     
100   95050316818236190000000000002940000000002940002000000010410404210219524952850381390421000007027541   1020000200030000   333400010001204104000000281Myanmar Soft-Gate Tech Yangon        MMR11004210219524952850421000000000000000   10300001F05104100000000000617000000000000     
100   95030374458345210000000000042100000000042100002000000010410404111254560005816685900411210119000581   1030000500030000   581220065001000015812200650GOLDEN DUCK (8 MILES)  PTN           MMR11004111254560005810411000000000000000   10300001 00104100000000004294000000000000     
100   95050314650717570000000000046300000000046300002000000010410404210924070038705580350421000745891587   1030000200030000   541188001428000008000000401KBZ BANK               OCEAN SUPERCE MMR11004210924070038700421000000000000000   10300001 00104100000000011575000000000000     
100   95030301100126970000000000037550000000037550002000000010410404211134330017166507510421000745922698   1030000200030000   541188000960000008000004886KBZ BANK               EASY-1        MMR11004211134330017160421000000000000000   10300001 00104100000000002253000000000000     
100   62911028202473840000000000014000000000014000002000000010410404211630510023275945500421000745918639   1030000200030000   541188001085000008000000294KBZ BANK               CITY MART - J MMR11004211630510023270421000000000000000   10300001 00104100000000000840000000000000     
100   95050315099113150000000000000980000000000980002000000010410404210430240024303181500421000007028600   1020000200030000   333400010001204104000000281Myanmar Soft-Gate Tech Yangon        MMR11004210430240024300421000000000000000   10300001F05104100000000000206000000000000     
100   62911028202218270000000000009000000000009000002000000010410404211657460012996107200421000745919752   1030000200030000   541188001079000008000000294KBZ BANK               CITY MART - J MMR11004211657460012990421000000000000000   10300001 00104100000000000540000000000000     
100   95030333478847140000000000020200000000020200002000000010410404211601530032505771610421000745917371   1030000200030000   541188001459000008000000391KBZ BANK               OCEAN SUPER C MMR11004211601530032500421000000000000000   10300001 00104100000000001212000000000000     
100   95050311382087030000000000005880000000005880002000000010410404210925315531670870110421000007031023   1020000200030000   333400010001204104000000281Myanmar Soft-Gate Tech Yangon        MMR11004210925315531670421000000000000000   10300001F05104100000000001235000000000000     
100   95050318712627500000000000000980000000000980002000000010410404210617324732430153680421000007029576   1020000200030000   333400010001204104000000281Myanmar Soft-Gate Tech Yangon        MMR11004210617324732430421000000000000000   10300001F05104100000000000206000000000000     
100   95050327883696130000000000010000000000010000002000000010410404210719534953179423470421000007030012   1030000200030000   333800010001203104000003327KBZPay                 Yangon        MMR11004210719534953170421000000000000000   10300001F05104100000000002100000000000000     
100   95050319379439060000000000001000000000001000002000000010410404210426375637337543270421000007028574   1030000200030000   333800010001203104000003327KBZPay                 Yangon        MMR11004210426375637330421000000000000000   10300001F05104100000000000210000000000000     
100   95030317922148660000000000041100000000041100002000000010410404210010593799725510700421211107379972   1040001600030000   598320000854000000010000608Terminal Petrol Statio Yangon        MMR11004210010593799720421000000000000000   10300001F00104100000000001233000000000000     
100   62911028202788270000000000002400000000002400002000000010410404210252563868963377700421211109386896   1040001600030000   591220000273000000010000261Shwe Ohh Pharmacy (WZY Yangon        MMR11004210252563868960421000000000000000   10300001F00104100000000000144000000000000     
100   62911028202594880000000000017100000000017100002000000010410404210847594034445508000421211115403444   1040001600030000   591220000270000000010000258Shwe Ohh Pharmacy (U C Yangon        MMR11004210847594034440421000000000000000   10300001F00104100000000001026000000000000     
100   62911028202077190000000000001960000000001960002000000010410404211220115011316782410421000007031879   1020000200030000   333400010001204104000000281Myanmar Soft-Gate Tech Yangon        MMR11004211220115011310421000000000000000   10300001F05104100000000000412000000000000     
100   62911028202196800000000000016450000000016450002000000010410404211802280009746495110421000745922579   1030000200030000   541188001004000008000000008KBZ BANK               MARKETPLACE - MMR11004211802280009740421000000000000000   10300001 00104100000000000987000000000000     
100   62911028202150010000000000048000000000048000002000000010410404210429050000943954800421000745897211   1030000200030000   569988000866000008000004742KBZ BANK               BENCH MYANMAR MMR11004210429050000940421000000000000000   10300001 00104100000000002880000000000000     
100   62911028202473840000000000013200000000013200002000000010410404211636430186345758200421000745918869   1030000200030000   541188001075000008000000294KBZ BANK               CITY MART - J MMR11004211636430186340421000000000000000   10300001 00104100000000000792000000000000     
100   62911028202147720000000000045450000000045450002000000010410404211021300153883729210421000745894450   1030000200030000   541188001305000008000000325KBZ BANK               CITY MART - A MMR11004211021300153880421000000000000000   10300001 00104100000000002727000000000000     
100   62911028202170490000000000034500000000034500002000000010410404211410570225395106010421000745911457   1030000200030000   541188001059000008000000314KBZ BANK               MARKETPLACE - MMR11004211410570225390421000000000000000   10300001 00104100000000002070000000000000     
100   95050329185828460000000000161280000000161280002000000010410404210230390039437403020421000007027606   1030000900030000   333800010001202104000003301uab bank               Yangon        MMR11004210230390039430421000000000000000   10300001F05104100000000033869000000000000     
100   95030394609966640000000000007100000000007100002000000010410404211503510057105423210421000745914519   1030000200030000   541188001022000008000000298KBZ BANK               CITY MART - M MMR11004211503510057100421000000000000000   10300001 00104100000000000426000000000000     
100   95030394609966640000000000005700000000005700002000000010410404211507090061605443300421000745914690   1030000200030000   541188001033000008000000298KBZ BANK               CITY MART - M MMR11004211507090061600421000000000000000   10300001 00104100000000000342000000000000     
100   95050316785465380000000000000980000000000980002000000010410404211526125612350244490421000007032540   1020000200030000   333400010001204104000000281Myanmar Soft-Gate Tech Yangon        MMR11004211526125612350421000000000000000   10300001F05104100000000000206000000000000     
100   95050316321163940000000000002940000000002940002000000010410404211217164716260414690421000007031867   1020000200030000   333400010001204104000000281Myanmar Soft-Gate Tech Yangon        MMR11004211217164716260421000000000000000   10300001F05104100000000000617000000000000     
100   62911028202318750000000000013000000000013000002000000010410404210428368655094256710421266491107110   1030000300030000   444410118804104519000016005SP Bakery Yangon SR 5                MMR11004210428368655090421000000000000000   10300001 00104100000000001326000000000000     
100   62911028202523430000000000027950000000027950002000000010410404210323523879973563310421211110387997   1040001600030000   591220000274000000010000262Shwe Ohh Pharmacy (Shw Yangon        MMR11004210323523879970421000000000000000   10300001F00104100000000001677000000000000     
100   62443100390038980000000000070000000000070000002000000010410404210559513955796933810421211112395579   1040001600030000   598320000838000000010000600Regency Petrol Station Ygn           MMR11004210559513955790421000000000000000   10300001F00104100000000008400000000000000     
100   95050311131833760000000000100000000000100000002000000010410404210400523052385124930421000007028375   1030000200030000   333800010001203104000003327KBZPay                 Yangon        MMR11004210400523052380421000000000000000   10300001F05104100000000021000000000000000     
100   95050316949180000000000000002940000000002940002000000010410404210403473347474869630421000007028411   1020000200030000   333400010001204104000000281Myanmar Soft-Gate Tech Yangon        MMR11004210403473347470421000000000000000   10300001F05104100000000000617000000000000     
100   95050312911050270000000000000980000000000980002000000010410404210300423042156090920421000007027822   1020000200030000   333400010001204104000000281Myanmar Soft-Gate Tech Yangon        MMR11004210300423042150421000000000000000   10300001F05104100000000000206000000000000     
100   95050318646071770000000000000980000000000980002000000010410404211545191519410485990421000007032601   1020000200030000   333400010001204104000000281Myanmar Soft-Gate Tech Yangon        MMR11004211545191519410421000000000000000   10300001F05104100000000000206000000000000     
100   95050312695033440000000000002940000000002940002000000010410404211332020202571811880421000007032164   1020000200030000   333400010001204104000000281Myanmar Soft-Gate Tech Yangon        MMR11004211332020202570421000000000000000   10300001F05104100000000000617000000000000     
100   95050318057347910000000000000980000000000980002000000010410404210545481548177905520421000007029322   1020000200030000   333400010001204104000000281Myanmar Soft-Gate Tech Yangon        MMR11004210545481548170421000000000000000   10300001F05104100000000000206000000000000     
100   62911028202204800000000000011000000000011000002000000010410404210917380186023346110421000745891343   1030000200030000   541188001075000008000000294KBZ BANK               CITY MART - J MMR11004210917380186020421000000000000000   10300001 00104100000000000660000000000000     
100   95050316812885810000000000001960000000001960002000000010410404210135330533198303430421000007027316   1020000200030000   333400010001204104000000281Myanmar Soft-Gate Tech Yangon        MMR11004210135330533190421000000000000000   10300001F05104100000000000412000000000000     
100   95050318471308000000000000050000000000050000002000000010410404210136340634606650940421000007027324   1030000200030000   333800010001203104000003327KBZPay                 Yangon        MMR11004210136340634600421000000000000000   10300001F05104100000000010500000000000000     
100   95050313453886860000000000021600000000021600002000000010410404211540450072570699910421000745916372   1030000200030000   541188001336000008000000327KBZ BANK               CITY MART - S MMR11004211540450072570421000000000000000   10300001 00104100000000005400000000000000     
100   62911028202615340000000000003900000000003900002000000010410404210903030095665510700421000745890850   1030000200030000   541188001023000008000000298KBZ BANK               CITY MART - M MMR11004210903030095660421000000000000000   10300001 00104100000000000234000000000000     
100   95050316601084530000000000000980000000000980002000000010410404210507103710591309380421000007028962   1020000200030000   333400010001204104000000281Myanmar Soft-Gate Tech Yangon        MMR11004210507103710590421000000000000000   10300001F05104100000000000206000000000000     
100   62911028202077190000000000001960000000001960002000000010410404210728565856075034900421000007030080   1020000200030000   333400010001204104000000281Myanmar Soft-Gate Tech Yangon        MMR11004210728565856070421000000000000000   10300001F05104100000000000412000000000000     
100   95050313836159580000000000005000000000005000002000000010410404211120565056714691370421000007031660   1030000200030000   3334000100012031040000040102C2P (Myanmar) Co. Ltd Yangon        MMR11004211120565056710421000000000000000   10300001F05104100000000001050000000000000     
100   95050316067768680000000000001960000000001960002000000010410404210104393439698218330421000007027216   1020000200030000   333400010001204104000000281Myanmar Soft-Gate Tech Yangon        MMR11004210104393439690421000000000000000   10300001F05104100000000000412000000000000     
100   95050318712627500000000000000980000000000980002000000010410404210704233423434394710421000007029909   1020000200030000   333400010001204104000000281Myanmar Soft-Gate Tech Yangon        MMR11004210704233423430421000000000000000   10300001F05104100000000000206000000000000     
100   95050314791376690000000000002940000000002940002000000010410404210708403840499593670421000007029932   1020000200030000   333400010001204104000000281Myanmar Soft-Gate Tech Yangon        MMR11004210708403840490421000000000000000   10300001F05104100000000000617000000000000     
100   95050312224678430000000000002940000000002940002000000010410404211116214621931301310421000007031646   1020000200030000   333400010001204104000000281Myanmar Soft-Gate Tech Yangon        MMR11004211116214621930421000000000000000   10300001F05104100000000000617000000000000     
100   95050316067768680000000000001960000000001960002000000010410404210107163716956565850421000007027224   1020000200030000   333400010001204104000000281Myanmar Soft-Gate Tech Yangon        MMR11004210107163716950421000000000000000   10300001F05104100000000000412000000000000     
100   95030306100081790000000000053150000000053150002000000010410404211554350186315727900421000745917080   1030000200030000   541188001075000008000000294KBZ BANK               CITY MART - J MMR11004211554350186310421000000000000000   10300001 00104100000000003189000000000000     
100   95050311382087030000000000005000000000005000002000000010410404211234200420338847300421000007031930   1030000200030000   333800010001203104000003327KBZPay                 Yangon        MMR11004211234200420330421000000000000000   10300001F05104100000000001050000000000000     
100   95050310332595380000000000014700000000014700002000000010410404211341341134433549460421000007032205   1020000200030000   333400010001204104000000281Myanmar Soft-Gate Tech Yangon        MMR11004211341341134430421000000000000000   10300001F05104100000000003087000000000000     
100   62911028202341350000000000035100000000035100002000000010410404210947330066023525500421000745892618   1030000200030000   541188001286000008000000472KBZ BANK               NEIGHBOURHOOD MMR11004210947330066020421000000000000000   10300001 00104100000000002106000000000000     
100   95050310902464360000000000019600000000019600002000000010410404210634470447185451520421000007029692   1020000200030000   333400010001204104000000281Myanmar Soft-Gate Tech Yangon        MMR11004210634470447180421000000000000000   10300001F05104100000000004116000000000000     
100   95050311077567400000000000003000000000003000002000000010410404211237110711952152270421000007031950   1030000900030000   333400010001202104000002022ACS                    Yangon        MMR11004211237110711950421000000000000000   10300001F05104100000000000630000000000000     
100   95050312224678430000000000002940000000002940002000000010410404210640351035880579160421000007029738   1020000200030000   333400010001204104000000281Myanmar Soft-Gate Tech Yangon        MMR11004210640351035880421000000000000000   10300001F05104100000000000617000000000000     
100   95050314401921990000000000002940000000002940002000000010410404210346431643398509280421000007028233   1020000200030000   333400010001204104000000281Myanmar Soft-Gate Tech Yangon        MMR11004210346431643390421000000000000000   10300001F05104100000000000617000000000000     
100   62911028202169750000000000028000000000028000002000000010410404210437493909514007010421211111390951   1040001600030000   598320000838000000010000600Regency Petrol Station Ygn           MMR11004210437493909510421000000000000000   10300001F00104100000000000840000000000000     
100   95050319528093960000000000001960000000001960002000000010410404210311194119332956150421000007027899   1020000200030000   333400010001204104000000281Myanmar Soft-Gate Tech Yangon        MMR11004210311194119330421000000000000000   10300001F05104100000000000412000000000000     
100   62911028202318750000000000053700000000053700002000000010410404211100274119506302810421211118411950   1040001600030000   591220000262000000010000250Shwe Ohh Pharmacy (SC- Yangon        MMR11004211100274119500421000000000000000   10300001F00104100000000003222000000000000     
100   95030398701797940000000000056300000000056300002000000010410404211032114096846133210421211117409684   1040001600030000   541120000559000000010000465Ocean Shwe Gone Daing  Yangon        MMR11004211032114096840421000000000000000   10300001F00104100000000003378000000000000     
100   95030305700676370000000000040000000000040000002000000010410404211032474097366136810421211117409736   1040001600030000   598320000658000000010000527Shwe Taung Energy (YGN Yangon        MMR11004211032474097360421000000000000000   10300001F00104100000000001200000000000000     
100   95050311712422700000000000061000000000061000002000000010410404210118114811561608400421000007027258   1030000200030000   333800010001203104000003327KBZPay                 Yangon        MMR11004210118114811560421000000000000000   10300001F05104100000000012810000000000000     
100   62911028202790980000000005000000000005000000002000000010410404210338518644123667710421118101058110   1030000300030000   555510112975104519000011137Kaung Htet Computer N  obile         MMR11004210338518644120421000000000000000   10300001 00104100000000300000000000000000     
100   62911028202421460000000000012000000000012000002000000010410404211025032724196109100421076551603110   1030000900030000   541119000154190110000000083SeinGayHarParami Cente YANGON        MMR11004211025032724190421000000000000000   10300001F00104100000000000720000000000000     
100   62911028202615340000000000003150000000003150002000000010410404210844170056745510700421000745890344   1030000200030000   541188001022000008000000298KBZ BANK               CITY MART - M MMR11004210844170056740421000000000000000   10300001 00104100000000000189000000000000     
100   62911028202803930000000000007600000000007600002000000010410404211923500061906983210421000745925675   1030000200030000   541188001033000008000000298KBZ BANK               CITY MART - M MMR11004211923500061900421000000000000000   10300001 00104100000000000456000000000000     
100   62911028202615340000000000001600000000001600002000000010410404210846500061323161300421000745890402   1030000200030000   541188001033000008000000298KBZ BANK               CITY MART - M MMR11004210846500061320421000000000000000   10300001 00104100000000000096000000000000     
100   95050310427855490000000000001960000000001960002000000010410404211139270927033123980421000007031724   1020000200030000   333400010001204104000000281Myanmar Soft-Gate Tech Yangon        MMR11004211139270927030421000000000000000   10300001F05104100000000000412000000000000     
100   95050314931885730000000000000980000000000980002000000010410404211031460146369563720421000007031500   1020000200030000   333400010001204104000000281Myanmar Soft-Gate Tech Yangon        MMR11004211031460146360421000000000000000   10300001F05104100000000000206000000000000     
100   62911028202803930000000000016350000000016350002000000010410404211936170057507058400421000745925975   1030000200030000   541188001022000008000000298KBZ BANK               CITY MART - M MMR11004211936170057500421000000000000000   10300001 00104100000000000981000000000000     
100   95050310902464360000000000000980000000000980002000000010410404210631470147197104000421000007029667   1020000200030000   333400010001204104000000281Myanmar Soft-Gate Tech Yangon        MMR11004210631470147190421000000000000000   10300001F05104100000000000206000000000000     
100   95030301100122420000000000100000000000100000002000000010410404210444341434274048610421000007028725   1030000200030000   333800010001203104000003327KBZPay                 Yangon        MMR11004210444341434270421000000000000000   10300001F05104100000000021000000000000000     
100   62911028202125780000000000016000000000016000002000000010410404190759430079556685900419210907007955   1030000600030000   554100001206315799420000658DENKO PATHEIN          PATHEIN.      MMR11004190759430079550419000000000000000   10300001 00104100000000000480000000000000     
100   95050315296997180000000000034000000000034000002000000010410404191447430189750390460419210914018975   1030000600030000   554100000747315799420000325DENKO MDY 26           YANGON        MMR11004191447430189750419000000000000000   10300001 00104100000000004080000000000000     
100   62443100323891610000000000003000000000003000002000000010410404190638470042762256870419210906004276   1030000600030000   554100001258315799420000712DENKO PA LATE          PA LATE       MMR11004190638470042760419000000000000000   10300001 00104100000000000360000000000000     
100   95050321232876860000000000117000000000117000002000000010410404190944060350109418750419210909035010   1030000600030000   554100001865315799420001235DENKO NAY PYI TAW 2    NAYPYITAW     MMR11004190944060350100419000000000000000   10300001 00104100000000014040000000000000     
100   95030301100126550000000000028000000000028000002000000010410404191223530609406685900419210912060940   1030000600030000   554100000952315799420000474DENKO N.DAGON - 1      YANGON        MMR11004191223530609400419000000000000000   10300001 00104100000000000840000000000000     
100   62911028202303640000000000090355000000090355002000000010410404190557130146436685900419210905014643   1030000600030000   809900000541315799420000147GRAND HANTHA HOSPITAL  YANGON        MMR11004190557130146430419000000000000000   10300001 00104100000000005421000000000000     
100   62911028202027440000000000028000000000028000002000000010410404191310430801186685900419210913080118   1030000600030000   554100000946315799420000471DENKO BAHAN            YANGON        MMR11004191310430801180419000000000000000   10300001 00104100000000000840000000000000     
100   62911028202595200000000000114500000000114500002000000010410404210624118664004669600421268571254110   1030000300030000   555510124685104519000020166Makro Myanmar                        MMR11004210624118664000421000000000000000   10300001 00104100000000006870000000000000     
100   95050314996291580000000000004900000000004900002000000010410404210432090209944493600421000007028620   1020000200030000   333400010001204104000000281Myanmar Soft-Gate Tech Yangon        MMR11004210432090209940421000000000000000   10300001F05104100000000001029000000000000     
100   62443100322986690000000000014700000000014700002000000010410404211238000800856769330421000007031954   1020000200030000   333400010001204104000000281Myanmar Soft-Gate Tech Yangon        MMR11004211238000800850421000000000000000   10300001F05104100000000003087000000000000     
100   95050316601084530000000000000980000000000980002000000010410404210443121312796472680421000007028722   1020000200030000   333400010001204104000000281Myanmar Soft-Gate Tech Yangon        MMR11004210443121312790421000000000000000   10300001F05104100000000000206000000000000     
100   95050310652791070000000000150000000000150000002000000010410404211240561056115116850421000007031963   1030000200030000   333800010001203104000003327KBZPay                 Yangon        MMR11004211240561056110421000000000000000   10300001F05104100000000031500000000000000     
100   95050318608138520000000000003500000000003500002000000010410404211542351235188592010421000007032589   1030000200030000   333800010001203104000003327KBZPay                 Yangon        MMR11004211542351235180421000000000000000   10300001F05104100000000000735000000000000     
100   95030314863516850000000000007000000000007000002000000010410404210834280428835429000421000007030601   1030000200030000   333800010001203104000003327KBZPay                 Yangon        MMR11004210834280428830421000000000000000   10300001F05104100000000001470000000000000     
100   95050322957045260000000000000980000000000980002000000010410404211144381438781471500421000007031747   1030000200030000   3334000100012031040000040102C2P (Myanmar) Co. Ltd Yangon        MMR11004211144381438780421000000000000000   10300001F05104100000000000206000000000000     
100   62911028202161240000000000009816000000009816002000000010410404211114010056864044400421000745898451   1030000200030000   541188001022000008000000298KBZ BANK               CITY MART - M MMR11004211114010056860421000000000000000   10300001 00104100000000000589000000000000     
100   62911028202463940000000000010000000000010000002000000010410404210703238668574918310421808391324110   1030000500030000   555610110572104519000009164City Mart China Town P int Cen       MMR11004210703238668570421000000000000000   10300001 00104100000000000600000000000000     
100   62911028202074950000000000002500000000002500002000000010410404210746028672965136800421299151448110   1030000500030000   555610118972104519000016137City Mart South Okkala WZYD BR       MMR11004210746028672960421000000000000000   10300001 00104100000000000150000000000000     
100   95050320559934420000000000050370000000050370002000000010410404210551278659256338140421734211215110   1030000300030000   444410114126104519000009744Traditional Shan Food                MMR11004210551278659250421000000000000000   10300001 00104100000000021408000000000000     
100   95050320559934420000000000012300000000012300002000000010410404210612478662476763620421099451222110   1030000500030000   555610112988104519000011143Market Place by City M rt Sule       MMR11004210612478662470421000000000000000   10300001 00104100000000003075000000000000     
100   95050318463049920000000000003000000000003000002000000010410404210521278662073288460421054421217110   1030000300030000   444410118804104519000016005SP Bakery Yangon SR 5                MMR11004210521278662070421000000000000000   10300001 00104100000000001275000000000000     
100   62911028202463940000000000002000000000002000002000000010410404210711168669054941300421859431312110   1030000500030000   555610117864104519000009164City Mart China Town P int Cen       MMR11004210711168669050421000000000000000   10300001 00104100000000000120000000000000     
100   62911028202074950000000000010800000000010800002000000010410404210640288665584753400421482111354110   1030000500030000   555610114575104519000012532City Mart Ahlone Branc               MMR11004210640288665580421000000000000000   10300001 00104100000000000648000000000000     
100   62911028202074950000000000003550000000003550002000000010410404210642278666004777700421524151357110   1030000500030000   555610114572104519000012532City Mart Ahlone Branc               MMR11004210642278666000421000000000000000   10300001 00104100000000000213000000000000     
100   62911028202170490000000000003650000000003650002000000010410404211412420193565116410421000745911546   1030000200030000   541188001070000008000000314KBZ BANK               MARKETPLACE - MMR11004211412420193560421000000000000000   10300001 00104100000000000219000000000000     
100   62911028202357510000000000034750000000034750002000000010410404211758360178506471910421000745922378   1030000200030000   541188001055000008000000314KBZ BANK               MARKETPLACE - MMR11004211758360178500421000000000000000   10300001 00104100000000002085000000000000     
100   95050316812885810000000000001960000000001960002000000010410404210132310231973345970421000007027296   1020000200030000   333400010001204104000000281Myanmar Soft-Gate Tech Yangon        MMR11004210132310231970421000000000000000   10300001F05104100000000000412000000000000     
100   62911028202161240000000000001400000000001400002000000010410404211116510061434061700421000745898609   1030000200030000   541188001033000008000000298KBZ BANK               CITY MART - M MMR11004211116510061430421000000000000000   10300001 00104100000000000084000000000000     
100   62443100313112320000000000287500000000287500002000000010410404210439292642221515220421747091129110   1030000900030000   541119000162190110000000084Pro (1) Global (Pazund YANGONARTAUNG MMR11004210439292642220421000000000000000   10300001F00104100000000071875000000000000     
100   95050312498129060000000000005880000000005880002000000010410404210250402040280537800421000007027738   1020000200030000   333400010001204104000000281Myanmar Soft-Gate Tech Yangon        MMR11004210250402040280421000000000000000   10300001F05104100000000001235000000000000     
100   62911028202091860000000000002940000000002940002000000010410404211250542054586966800421000007032000   1020000200030000   333400010001204104000000281Myanmar Soft-Gate Tech Yangon        MMR11004211250542054580421000000000000000   10300001F05104100000000000617000000000000     
100   95050312005798410000000000004600000000004600002000000010410404210854472701917735330421881241547110   1030000900030000   541119001266190110000000958City Mart PLST C9      YANGONMYOTHIT MMR11004210854472701910421000000000000000   10300001F00104100000000001150000000000000     
100   62911028202594880000000000012300000000012300002000000010410404210754068673975187900421427241417110   1030000500030000   555610103462104519000003420City Mart Yankin Cente 1             MMR11004210754068673970421000000000000000   10300001 00104100000000000738000000000000     
100   62911028202154720000000000010500000000010500002000000010410404210754478674185199300421460261413110   1030000300030000   444410116806104519000014353BreadTalk JunctionCity               MMR11004210754478674180421000000000000000   10300001 00104100000000001071000000000000     
100   95050326590859670000000000008000000000008000002000000010410404210616118662711806170421132471222110   1030000500030000   555610110595104519000009166City Mart 47 Branch                  MMR11004210616118662710421000000000000000   10300001 00104100000000002000000000000000     
100   95050319532433550000000000020000000000020000002000000010410404211430100010916854430421000007032358   1030000200030000   333800010001203104000003327KBZPay                 Yangon        MMR11004211430100010910421000000000000000   10300001F05104100000000004200000000000000     
100   95050326094581320000000000014500000000014500002000000010410404201025440012743650710420211016001274   1030000500030000   531120156007000045311201560GAMONE PWINT           PTN           MMR11004201025440012740420000000000000000   10300001 00104100000000003480000000000000     
100   62911028202318750000000000005850000000005850002000000010410404201101240039495510700420211011003949   1030000600030000   549900002089315799420001439EASY MART 021          YANGON        MMR11004201101240039490420000000000000000   10300001 00104100000000000597000000000000     
100   62911028202045260000000000009100000000009100002000000010410404211603030186325778710421000745917415   1030000200030000   541188001075000008000000294KBZ BANK               CITY MART - J MMR11004211603030186320421000000000000000   10300001 00104100000000000546000000000000     
100   62911028202318750000000000003400000000003400002000000010410404211007238690495991900421417381619110   1030000500030000   555610118972104519000016137City Mart South Okkala WZYD BR       MMR11004211007238690490421000000000000000   10300001 00104100000000000204000000000000     
100   95050318471308000000000000065000000000065000002000000010410404210253212321790622890421000007027762   1030000200030000   333800010001203104000003327KBZPay                 Yangon        MMR11004210253212321790421000000000000000   10300001F05104100000000013650000000000000     
100   95030385550669610000000000016800000000016800002000000010410404210258192622233428710421787280919110   1030000900030000   541119000376190110000000178Pro (1) Global (East D YANGONMYOTHIT MMR11004210258192622230421000000000000000   10300001F00104100000000001008000000000000     
100   62911028202116120000000000038300000000038300002000000010410404210444062643574063410421829141106110   1030000900030000   591219000601190110000000441Shwe Ohh Pharmacy St-3 YANGON        MMR11004210444062643570421000000000000000   10300001F00104100000000002298000000000000     
100   95030301100425040000000000027800000000027800002000000010410404210521462652574289610421293511146110   1030000900030000   723019001054190110000000857Beauty Diary JC        YANGONN       MMR11004210521462652570421000000000000000   10300001F00104100000000001668000000000000     
100   95050325784857510000000000004000000000004000002000000010410404210809332691128281560421321391433110   1030000900030000   541119001215190110000000950City Mart YK City Care YANGONAUNG    MMR11004210809332691120421000000000000000   10300001F00104100000000001000000000000000     
100   62911028202446540000000000060300000000060300002000000010410404210148222614015510700421422180822110   1030000900030000   591219000970190110000000777Shwe Ohh Pharmacy St ( YANGONAW      MMR11004210148222614010421000000000000000   10300001F00104100000000003618000000000000     
100   95030301100121270000000000043350000000043350002000000010410404210934482711145807510421359041648110   1030000900030000   541119001263190110000000958City Mart PLST C 6     YANGONMYOTHIT MMR11004210934482711140421000000000000000   10300001F00104100000000002601000000000000     
100   95050312695033440000000000000980000000000980002000000010410404210152332233387246620421000007027371   1020000200030000   333400010001204104000000281Myanmar Soft-Gate Tech Yangon        MMR11004210152332233380421000000000000000   10300001F05104100000000000206000000000000     
100   62911028202684060000000000032022000000032022002000000010410404210937298686735812400421947081617110   1030000500030000   555610104032104519000003821City Mart North Point  enter         MMR11004210937298686730421000000000000000   10300001 00104100000000001921000000000000     
100   62911028202423360000000000001600000000001600002000000010410404211104488699396351210421486381713110   1030000500030000   555610104035104519000003821City Mart North Point  enter         MMR11004211104488699390421000000000000000   10300001 00104100000000000096000000000000     
100   95030346130941600000000000025200000000025200002000000010410404211152208706736652000421348281820110   1030000500030000   555610118960104519000016137City Mart South Okkala WZYD BR       MMR11004211152208706730421000000000000000   10300001 00104100000000001512000000000000     
100   62911028202423360000000000005000000000005000002000000010410404211054238698716324300421404331741110   1030000500030000   555610104043104519000003821City Mart North Point  enter         MMR11004211054238698710421000000000000000   10300001 00104100000000000300000000000000     
100   95050319528093960000000000000980000000000980002000000010410404210313364336541303660421000007027924   1020000200030000   333400010001204104000000281Myanmar Soft-Gate Tech Yangon        MMR11004210313364336540421000000000000000   10300001F05104100000000000206000000000000     
100   95050321232876860000000000020000000000020000002000000010410404200308340101603731080420211003010160   1030000600030000   554100002328315799420001235DENKO NAY PYI TAW 2    NAYPYITAW     MMR11004200308340101600420000000000000000   10300001 00104100000000002400000000000000     
100   62911028202318750000000000003000000000003000002000000010410404211009298690965758200421480411639110   1030000500030000   555610118965104519000016137City Mart South Okkala WZYD BR       MMR11004211009298690960421000000000000000   10300001 00104100000000000180000000000000     
100   62911028202225440000000000002800000000002800002000000010410404211009408690986013200421483411652110   1030000500030000   555610117864104519000009164City Mart China Town P int Cen       MMR11004211009408690980421000000000000000   10300001 00104100000000000168000000000000     
100   95030318100004530000000000035600000000035600002000000010410404210850342700905542210421825201534110   1030000900030000   599919000569190110000000251Pro (1) Global (MawlaM MONLAMYAING   MMR11004210850342700900421000000000000000   10300001F00104100000000002136000000000000     
100   95050316818236190000000000000980000000000980002000000010410404210150302030747161520421000007027362   1020000200030000   333400010001204104000000281Myanmar Soft-Gate Tech Yangon        MMR11004210150302030740421000000000000000   10300001F05104100000000000206000000000000     
100   62911028202112730000000000057700000000057700002000000010410404210209382615523136600421477390838110   1030000900030000   541119001263190110000000958City Mart PLST C 6     YANGONMYOTHIT MMR11004210209382615520421000000000000000   10300001F00104100000000003462000000000000     
100   62911028202074950000000000002500000000002500002000000010410404210837232697875463100421680071523110   1030000900030000   541119001289190110000000964City Mart SPL Season C YANGONMYOTHIT MMR11004210837232697870421000000000000000   10300001F00104100000000000150000000000000     
100   95050316110433120000000000013450000000013450002000000010410404210923552708520620530421219531555110   1030000900030000   541119001216190110000000945City Mart TM C 1       YANGONONE     MMR11004210923552708520421000000000000000   10300001F00104100000000003363000000000000     
100   95050317100052460000000000000980000000000980002000000010410404210155462546902204070421000007027389   1020000200030000   333400010001204104000000281Myanmar Soft-Gate Tech Yangon        MMR11004210155462546900421000000000000000   10300001F05104100000000000206000000000000     
100   95050314064416890000000000000980000000000980002000000010410404211555202520528833510421000007032625   1020000200030000   333400010001204104000000281Myanmar Soft-Gate Tech Yangon        MMR11004211555202520520421000000000000000   10300001F05104100000000000206000000000000     
100   62911028202169750000000000060000000000060000002000000010410404210711272678364947410421683411327110   1030000900030000   541119000132190110000000083SeinGayHarParami Cente YANGONOKKALAP MMR11004210711272678360421000000000000000   10300001F00104100000000003600000000000000     
100   62911028202907490000000000021800000000021800002000000010410404211039118695086184910421945101729110   1030000500030000   555610103466104519000003420City Mart Yankin Cente 5             MMR11004211039118695080421000000000000000   10300001 00104100000000001308000000000000     
100   95050317919176400000000000024350000000024350002000000010410404211053508697527655950421265261715110   1030000500030000   555610120946104519000017714City Mart Yuzana Dagon Seikkan       MMR11004211053508697520421000000000000000   10300001 00104100000000006088000000000000     
100   62911028202196800000000000001700000000001700002000000010410404210938258686915818610421964091627110   1030000500030000   555610112532104519000010487Ocean Super Center St  ohn           MMR11004210938258686910421000000000000000   10300001 00104100000000000102000000000000     
100   95030359617000430000000000142000000000142000002000000010410404211350120032494981510421000745910069   1030000200030000   541188001459000008000000391KBZ BANK               OCEAN SUPER C MMR11004211350120032490421000000000000000   10300001 00104100000000008520000000000000     
100   62911028202446540000000000021491000000021491002000000010410404211020258692146064400421614501624110   1030000500030000   555610112245104519000010487Ocean Super Center St  ohn           MMR11004211020258692140421000000000000000   10300001 00104100000000001290000000000000     
100   62911028202196800000000000008730000000008730002000000010410404210933158686185787710421881041618110   1030000500030000   555610112237104519000010487Ocean Super Center St  ohn           MMR11004210933158686180421000000000000000   10300001 00104100000000000524000000000000     
100   95050314749068520000000000025800000000025800002000000010410404211000378689450535430421292301624110   1030000500030000   555610103981104519000003818Ocean Oattara Thiri Na PyiTaw        MMR11004211000378689450421000000000000000   10300001 00104100000000006450000000000000     
100   95050324154190880000000000028000000000028000002000000010410404200954100036419920260420211016003641   1030000500030000   598320001301000015172200013MAX ENERGY             PTN           MMR11004200954100036410420000000000000000   10300001 00104100000000003360000000000000     
100   62911028202791220000000000036200000000036200002000000010410404201253500002485510700420211012000248   1030000600030000   581200002366315799420001645MR COW FOOD & BBQ 2    YANGON        MMR11004201253500002480420000000000000000   10300001 00104100000000003692000000000000     
100   95050325925517520000000000047700000000047700002000000010410404200646020013836893440420211013001383   1030000500030000   581220146401013205812201464THAI 47 (HELPIN BRANCH PTN           MMR11004200646020013830420000000000000000   10300001 00104100000000020273000000000000     
100   62911028202074950000000000029003000000029003002000000010410404200947360034535510700420211016003453   1030000500030000   598320001202000015172200012MAX ENERGY             PTN           MMR11004200947360034530420000000000000000   10300001 00104100000000000870000000000000     
100   62911028202291190000000000060100000000060100002000000010410404200705310002114904700420211013000211   1030000500030000   591220013001014405912200130SHWE OHH PHARMACY      PTN           MMR11004200705310002110420000000000000000   10300001 00104100000000003606000000000000     
100   62443100393841160000000000018500000000018500002000000010410404200348130057789424110420211003005778   1030000600030000   554100001226315799420000679DENKO MAGWAY - 2       MAGWAY        MMR11004200348130057780420000000000000000   10300001 00104100000000002220000000000000     
100   62443100379321630000000000037508000000037508002000000010410404200904050002731062170420211015000273   1030000500030000   598320088701005405983200887PT POWER TRADING CO. L PTN           MMR11004200904050002730420000000000000000   10300001 00104100000000004501000000000000     
100   62443100313529540000000000030000000000030000002000000010410404200934420006847587000420000341148067   1030000300030000   591200000169000000000000084CB BANK                MEDICARE STOR MMR11004200934420006840420000000000000000   10300001F00104100000000007200000000000000     
100   62911028202687370000000000008800000000008800002000000010410404200822590010245369410420211014001024   1030000500030000   531120155712000045311201557GAMONE PWINT           PTN           MMR11004200822590010240420000000000000000   10300001 00104100000000000528000000000000     
100   95030359617000430000000000070000000000070000002000000010410404191127540024796685900419210911002479   1030000600030000   554100002114315799420001464DENKO PATHEIN-2        AYEYARWADDY   MMR11004191127540024790419000000000000000   10300001 00104100000000002100000000000000     
100   95030305700676370000000000077000000000077000002000000010410404201153250024035510700420000745873837   1030000200030000   598388001833000008000005310KBZ BANK               BOC (138 MILE MMR11004201153250024030420000000000000000   10300001 00104100000000002310000000000000     
100   62443100313529540000000000026300000000026300002000000010410404200932280006837501910420000341147796   1030000300030000   591200000169000000000000084CB BANK                MEDICARE STOR MMR11004200932280006830420000000000000000   10300001F00104100000000006312000000000000     
100   62911028202169750000000000056803000000056803002000000010410404210404453895393808610421211111389539   1040001600030000   541120000563000000010000465Ocean Shwe Gone Daing  Yangon        MMR11004210404453895390421000000000000000   10300001F00104100000000003408000000000000     
100   95030322371504830000000000150000000000150000002000000010410404211010258690826006610421462401646110   1030000300030000   555510124694104519000020166Makro Myanmar                        MMR11004211010258690820421000000000000000   10300001 00104100000000009000000000000000     
100   95050320559934420000000000032000000000032000002000000010410404210602568660691976360421900321240110   1030000500030000   555610112989104519000011143Market Place by City M rt Sule       MMR11004210602568660690421000000000000000   10300001 00104100000000008000000000000000     
100   62443100313112320000000000034350000000034350002000000010410404210714342679004380920421724441334110   1030000900030000   541119000285190110000000177Pro1 Global (Insein)   YANGON        MMR11004210714342679000421000000000000000   10300001F00104100000000008588000000000000     
100   95050319532433550000000000015100000000015100002000000010410404210237080708217488110421000007027637   1030000200030000   333800010001203104000003327KBZPay                 Yangon        MMR11004210237080708210421000000000000000   10300001F05104100000000003171000000000000     
100   62911028202019440000000000017650000000017650002000000010410404200437490000354018500420211011000035   1030000500030000   581220024401000015812200244SHWE LAR HOT POT       PTN           MMR11004200437490000350420000000000000000   10300001 00104100000000001800000000000000     
100   95050326094581320000000000008500000000008500002000000010410404200948330012799835160420211016001279   1030000500030000   531120156001000045311201560GAMONE PWINT           PTN           MMR11004200948330012790420000000000000000   10300001 00104100000000002040000000000000     
100   95030316535481960000000002614500000002614500002000000010410404200837090000355454700420211015000035   1030000500030000   481220147601002404812201476MOBILE KING            PTN           MMR11004200837090000350420000000000000000   10300001 00104100000000156870000000000000     
100   62443100313112320000000000367300000000367300002000000010410404200703450002330879180420211013000233   1030000500030000   503920036603000015039200366PRO-1 HOME CENTER      PTN           MMR11004200703450002330420000000000000000   10300001 00104100000000088152000000000000     
100   62911028202110420000000000066501000000066501002000000010410404200732240031655065910420211014003165   1030000500030000   598320001201000015172200012MAX ENERGY             PTN           MMR11004200732240031650420000000000000000   10300001 00104100000000001995000000000000     
100   95050326094581320000000000032100000000032100002000000010410404201010370012828523060420211016001282   1030000500030000   531120156001000045311201560GAMONE PWINT           PTN           MMR11004201010370012820420000000000000000   10300001 00104100000000007704000000000000     
100   62911028202174450000000000039000000000039000002000000010410404200647360024894422300420211013002489   1030000500030000   598320001604000015172200016MAX ENERGY             PTN           MMR11004200647360024890420000000000000000   10300001 00104100000000001170000000000000     
100   62443100379321630000000000318500000000318500002000000010410404200727130055802849190420211007005580   1030000600030000   554100002322315799420000497DENKO KONE TA LA PAUNG YANGON        MMR11004200727130055800420000000000000000   10300001 00104100000000038220000000000000     
100   62911028202788270000000000040000000000040000002000000010410404210300302622603441800421803300930110   1030000900030000   554119000346190110000000213New Day Energy SOK     YANGONOKKALAP MMR11004210300302622600421000000000000000   10300001F00104100000000001200000000000000     
100   95050318712627500000000000001960000000001960002000000010410404210254362436623927860421000007027766   1020000200030000   333400010001204104000000281Myanmar Soft-Gate Tech Yangon        MMR11004210254362436620421000000000000000   10300001F05104100000000000412000000000000     
100   95030367537085740000000000010780000000010780002000000010410404210354322432673748510421000007028315   1020000200030000   333400010001204104000000281Myanmar Soft-Gate Tech Yangon        MMR11004210354322432670421000000000000000   10300001F05104100000000002264000000000000     
100   62911028202520380000000000053000000000053000002000000010410404200238080110056685900420211002011005   1030000600030000   554100002085315799420000471DENKO BAHAN            YANGON        MMR11004200238080110050420000000000000000   10300001 00104100000000001590000000000000     
100   95050316573091630000000000006860000000006860002000000010410404210237060706079140600421000007027642   1020000200030000   333400010001204104000000281Myanmar Soft-Gate Tech Yangon        MMR11004210237060706070421000000000000000   10300001F05104100000000001441000000000000     
100   62911028202078000000000000060000000000060000002000000010410404211516074607687838110421000007032503   1030000200030000   333800010001203104000003327KBZPay                 Yangon        MMR11004211516074607680421000000000000000   10300001F05104100000000012600000000000000     
100   95050314160856250000000000001960000000001960002000000010410404210216554655716991330421000007027523   1020000200030000   333400010001204104000000281Myanmar Soft-Gate Tech Yangon        MMR11004210216554655710421000000000000000   10300001F05104100000000000412000000000000     
100   95050312160676580000000000003000000000003000002000000010410404210214024402555253750421000007027503   1030000200030000   333800010001203104000003327KBZPay                 Yangon        MMR11004210214024402550421000000000000000   10300001F05104100000000000630000000000000     
100   62443100355445150000000000112200000000112200002000000010410404200153030006577255690420000341090748   1030000300030000   541100000203000000000000102CB BANK                MAKRO MYANMAR MMR11004200153030006570420000000000000000   10300001F00104100000000028050000000000000     
100   95030308100042590000000000012000000000012000002000000010410404200819190015715347500420211014001571   1030000500030000   598320001702000015172200017MAX ENERGY             PTN           MMR11004200819190015710420000000000000000   10300001 00104100000000000360000000000000     
100   62443100323891610000000000005500000000005500002000000010410404200531290041724037860420211005004172   1030000600030000   554100000746315799420000324DENKO SHANKALAY KYUN   MANDALAY      MMR11004200531290041720420000000000000000   10300001 00104100000000000660000000000000     
100   95050324826664210000000000523806000000523806002000000010410404200545590000417938480420211012000041   1030000500030000   806220112202024208062201122SAKURA HOSPITAL        PTN           MMR11004200545590000410420000000000000000   10300001 00104100000000125714000000000000     
100   62911028202162640000000000008200000000008200002000000010410404200434580017066685900420211011001706   1030000500030000   541120020902022205411200209ORANGE (HLAING)        PTN           MMR11004200434580017060420000000000000000   10300001 00104100000000000492000000000000     
100   95050325925517520000000000048862000000048862002000000010410404201400220080041196700420000745861383   1030000200030000   541188001002000008000000008KBZ BANK               MARKETPLACE - MMR11004201400220080040420000000000000000   10300001 00104100000000012216000000000000     
100   95050320531117320000000000462000000000462000002000000010410404200828250379324842060420211008037932   1030000600030000   554100001009315799420000504DENKO SOUTH DAGON      YANGON        MMR11004200828250379320420000000000000000   10300001 00104100000000055440000000000000     
100   95030305700676370000000000018000000000018000002000000010410404200702200185344422300420211007018534   1030000600030000   554100001212315799420000664DENKO TA TAR OO        TA TAR OO     MMR11004200702200185340420000000000000000   10300001 00104100000000000540000000000000     
100   62443100391804560000000000150000000000150000002000000010410404210358122812728344800421000007028342   1030000500030000   333800010001201104000003863AYA Pay                Yangon        MMR11004210358122812720421000000000000000   10300001F05104100000000031500000000000000     
100   95050315150726490000000000008200000000008200002000000010410404210907272704985742470421046371527110   1030000900030000   541119000116190110000000078Sein Gay Har Kan Thar  YANGONOKKALAP MMR11004210907272704980421000000000000000   10300001F00104100000000002050000000000000     
100   95050311931431670000000000002940000000002940002000000010410404210336270627222069530421000007028133   1020000200030000   333400010001204104000000281Myanmar Soft-Gate Tech Yangon        MMR11004210336270627220421000000000000000   10300001F05104100000000000617000000000000     
100   95050316818236190000000000000980000000000980002000000010410404210203133313931948780421000007027427   1020000200030000   333400010001204104000000281Myanmar Soft-Gate Tech Yangon        MMR11004210203133313930421000000000000000   10300001F05104100000000000206000000000000     
100   62911028202166600000000000043000000000043000002000000010410404200233390035676685900420211009003567   1030000500030000   598320001301000015172200013MAX ENERGY             PTN           MMR11004200233390035670420000000000000000   10300001 00104100000000001290000000000000     
100   95050322990383760000000000008400000000008400002000000010410404200221410000144022030420211008000014   1030000500030000   591220020501005105912200205MINGALAR PHARMACY      PTN           MMR11004200221410000140420000000000000000   10300001 00104100000000002016000000000000     
100   62443100333488440000000000016600000000016600002000000010410404210401303893983472440421211111389398   1040001600030000   541120000561000000010000465Ocean Shwe Gone Daing  Yangon        MMR11004210401303893980421000000000000000   10300001F00104100000000004150000000000000     
100   95050325630928770000000000000980000000000980002000000010410404211008103810125577990421000007031358   1020000200030000   333400010001204104000000281Myanmar Soft-Gate Tech Yangon        MMR11004211008103810120421000000000000000   10300001F05104100000000000206000000000000     
