100   95030340340746190000000000015500000000015500002000000010410404240923143342615620400424538531514113   1030000900030000   541119000175190110000000086SeinGayHar (Hlaing Tha YANGONTHARYA  MMR11004240923143342610424000000000000000   10300001F00104100000000000930000000000000     
100   95050329734064360000000000020000000000020000002000000010410404230322350004261520940423211309000426   1030000500030000   598320001902000015172200019MAX ENERGY             PTN           MMR11004230322350004260423000000000000000   10300001 00104100000000002400000000000000     
100   95050313640946520000000000042750000000042750002000000010410404241048136152187244190424211417615218   1040001600030000   541120000567000000010000465Ocean Shwe Gone Daing  Yangon        MMR11004241048136152180424000000000000000   10300001F00104100000000010688000000000000     
100   62443100335647210000000000004900000000004900002000000010410404240744081408475583920424000007044512   1020000200030000   333400010001204104000000281Myanmar Soft-Gate Tech Yangon        MMR11004240744081408470424000000000000000   10300001F05104100000000001029000000000000     
100   95050319928585020000000000001960000000001960002000000010410404240514574457755959960424000007043917   1020000200030000   333400010001204104000000281Myanmar Soft-Gate Tech Yangon        MMR11004240514574457750424000000000000000   10300001F05104100000000000412000000000000     
100   95050312498129060000000000000980000000000980002000000010410404240646461646019860600424000007044329   1020000200030000   333400010001204104000000281Myanmar Soft-Gate Tech Yangon        MMR11004240646461646010424000000000000000   10300001F05104100000000000206000000000000     
100   95050311131833760000000000047000000000047000002000000010410404231033060000780129690423211317000078   1030000500030000   573220038801000015732200388REMAX                  PTN           MMR11004231033060000780423000000000000000   10300001 00104100000000011280000000000000     
100   62443100383487320000000000038183000000038183002000000010410404241516180063984265830424000746042183   1030000200030000   541188001006000008000000008KBZ BANK               MARKETPLACE - MMR11004241516180063980424000000000000000   10300001 00104100000000009546000000000000     
100   62911028202068440000000000001000000000001000002000000010410404240026225622965620400424000007042957   1030000200030000   3334000100012031040000040102C2P (Myanmar) Co. Ltd Yangon        MMR11004240026225622960424000000000000000   10300001F05104100000000000210000000000000     
100   95050314570621780000000000000980000000000980002000000010410404241318594859152920420424000007045537   1020000200030000   333400010001204104000000281Myanmar Soft-Gate Tech Yangon        MMR11004241318594859150424000000000000000   10300001F05104100000000000206000000000000     
100   62911028202460220000000000500000000000500000002000000010410404240531303293345620400424050011230113   1030000900030000   573219001179190110000000935UNIQUE Seikkanthar     YANGONADA     MMR11004240531303293340424000000000000000   10300001F00104100000000030000000000000000     
100   95050317416187280000000000091186000000091186002000000010410404240930183344039514200424639001618113   1030000900030000   541119001326190110000000971Ocean Junction NPT C 4 NAYPYITAW     MMR11004240930183344030424000000000000000   10300001F00104100000000022797000000000000     
100   62911028202471600000000000011000000000011000002000000010410404241209513388475620400424805391851113   1030000900030000   581219000931190110000000740Shwe Palin City Mall   YANGONAW      MMR11004241209513388470424000000000000000   10300001F00104100000000001122000000000000     
100   95030367537085740000000000001960000000001960002000000010410404240713384338625620400424000007044422   1020000200030000   333400010001204104000000281Myanmar Soft-Gate Tech Yangon        MMR11004240713384338620424000000000000000   10300001F05104100000000000412000000000000     
100   95050326393773020000000000002940000000002940002000000010410404240813484348216981120424000007044601   1020000200030000   333400010001204104000000281Myanmar Soft-Gate Tech Yangon        MMR11004240813484348210424000000000000000   10300001F05104100000000000617000000000000     
100   95050314570621780000000000002940000000002940002000000010410404241324545454096395590424000007045560   1020000200030000   333400010001204104000000281Myanmar Soft-Gate Tech Yangon        MMR11004241324545454090424000000000000000   10300001F05104100000000000617000000000000     
100   95050313062063490000000000004900000000004900002000000010410404241417074707703345920424000007045749   1020000200030000   333400010001204104000000281Myanmar Soft-Gate Tech Yangon        MMR11004241417074707700424000000000000000   10300001F05104100000000001029000000000000     
100   62911028202731170000000000050000000000050000002000000010410404230759020000155620400423211314000015   1030000500030000   598320101401005405983201014PT POWER V             PTN           MMR11004230759020000150423000000000000000   10300001 00104100000000001500000000000000     
100   62911028202487540000000000006200000000006200002000000010410404230346380000635620400423211310000063   1030000500030000   541120020801022205411200208ORANGE (TAMWE)         PTN           MMR11004230346380000630423000000000000000   10300001 00104100000000000372000000000000     
100   62911028202790980000000000132000000000132000002000000010410404230555130000155620400423211312000015   1030000500030000   569920057001000025699200570ERKE SPORT GOODS SHOP  PTN           MMR11004230555130000150423000000000000000   10300001 00104100000000007920000000000000     
100   62443100311760720000000000050440000000050440002000000010410404230819020000680846110423211314000068   1030000500030000   541120131601000055411201316MILLION MART Y-AZY     PTN           MMR11004230819020000680423000000000000000   10300001 00104100000000012610000000000000     
100   95030301100324550000000000050000000000050000002000000010410404230555010000815620400423211312000081   1030000500030000   598320068301000055983200683MAX ENERGY             PTN           MMR11004230555010000810423000000000000000   10300001 00104100000000001500000000000000     
100   95030302388346590000000000058000000000058000002000000010410404230707140001975620400423211313000197   1030000500030000   598320001402000015172200014MAX ENERGY             PTN           MMR11004230707140001970423000000000000000   10300001 00104100000000001740000000000000     
100   62911028202166600000000000024000000000024000002000000010410404230640040003505620400423211313000350   1030000500030000   598320001202000015172200012MAX ENERGY             PTN           MMR11004230640040003500423000000000000000   10300001 00104100000000000720000000000000     
100   95050317903887690000000000003000000000003000002000000010410404241006213621202421280424000007044971   1030000200030000   3334000100012031040000040102C2P (Myanmar) Co. Ltd Yangon        MMR11004241006213621200424000000000000000   10300001F05104100000000000630000000000000     
100   95050328876009750000000000030000000000030000002000000010410404240416064606407357160424000007043633   1030000200030000   333800010001203104000003327KBZPay                 Yangon        MMR11004240416064606400424000000000000000   10300001F05104100000000006300000000000000     
100   95050314430707800000000000006200000000006200002000000010410404240417085919712314610424211411591971   1040001600030000   541120000559000000010000465Ocean Shwe Gone Daing  Yangon        MMR11004240417085919710424000000000000000   10300001F00104100000000001550000000000000     
100   95050314893649800000000000000980000000000980002000000010410404241129335933031499010424000007045216   1020000200030000   333400010001204104000000281Myanmar Soft-Gate Tech Yangon        MMR11004241129335933030424000000000000000   10300001F05104100000000000206000000000000     
100   95050312498129060000000000000980000000000980002000000010410404240129465946973895790424000007043059   1020000200030000   333400010001204104000000281Myanmar Soft-Gate Tech Yangon        MMR11004240129465946970424000000000000000   10300001F05104100000000000206000000000000     
100   62911028202154800000000000051000000000051000002000000010410404240428265925685620400424211411592568   1040001600030000   598320000326000000010000314PT Power Petrol Statio Nay Pyi Taw   MMR11004240428265925680424000000000000000   10300001F00104100000000001530000000000000     
100   62911028202118690000000000022204000000022204002000000010410404240540278991515620400424186111243113   1030000500030000   555610112231104519000010487Ocean Super Center St  ohn           MMR11004240540278991510424000000000000000   10300001 00104100000000001332000000000000     
100   95050321057500320000000000009657000000009657002000000010410404240646329002853165570424536261325113   1030000500030000   555610112238104519000010487Ocean Super Center St  ohn           MMR11004240646329002850424000000000000000   10300001 00104100000000002415000000000000     
100   62911028202790980000000000061980000000061980002000000010410404230538520000335620400423211312000033   1030000500030000   569120091201000015691200912GIORDANO               PTN           MMR11004230538520000330423000000000000000   10300001 00104100000000003719000000000000     
100   62911028202449440000000000090000000000090000002000000010410404231024590000945620400423211316000094   1030000500030000   598320001701000015172200017MAX ENERGY             PTN           MMR11004231024590000940423000000000000000   10300001 00104100000000002700000000000000     
100   62911028202150190000000000050000000000050000002000000010410404230621280001805620400423211312000180   1030000500030000   598320001303000015172200013MAX ENERGY             PTN           MMR11004230621280001800423000000000000000   10300001 00104100000000001500000000000000     
100   62911028202074950000000000032500000000032500002000000010410404230437210003225620400423211311000322   1030000500030000   598320001202000015172200012MAX ENERGY             PTN           MMR11004230437210003220423000000000000000   10300001 00104100000000000975000000000000     
100   62911028202820010000000000030000000000030000002000000010410404230320500003395620400423211309000339   1030000500030000   598320001003000015172200010MAX ENERGY             PTN           MMR11004230320500003390423000000000000000   10300001 00104100000000000900000000000000     
100   62911028202318750000000000035000000000035000002000000010410404231049450003505620400423211317000350   1030000500030000   598320001404000015172200014MAX ENERGY             PTN           MMR11004231049450003500423000000000000000   10300001 00104100000000001050000000000000     
100   95050311131833760000000000012714000000012714002000000010410404231107070001484356920423211317000148   1030000500030000   531120155802000045311201558GAMONE PWINT           PTN           MMR11004231107070001480423000000000000000   10300001 00104100000000003051000000000000     
100   62443100303702210000000000480000000000480000002000000010410404230948400002263775040423211316000226   1030000500030000   598320041903000055983200419MAX ENERGY             PTN           MMR11004230948400002260423000000000000000   10300001 00104100000000057600000000000000     
100   95030356977005070000000000002000000000002000002000000010410404241130319044875620400424729021846113   1030000500030000   555610112991104519000011143Market Place by City M rt Sule       MMR11004241130319044870424000000000000000   10300001 00104100000000000120000000000000     
100   62911028202502300000000000002400000000002400002000000010410404241316519057895620400424360481903113   1030000300030000   555610103750104519000003626G and G Convenience St re 67         MMR11004241316519057890424000000000000000   10300001 00104100000000000144000000000000     
100   62911028202225850000000000025750000000025750002000000010410404240456508985135620400424514261130113   1030000500030000   555610112231104519000010487Ocean Super Center St  ohn           MMR11004240456508985130424000000000000000   10300001 00104100000000001545000000000000     
100   62443100371022130000000000150000000000150000002000000010410404240855119020045116800424640251500113   1030000300030000   555510124696104519000020166Makro Myanmar                        MMR11004240855119020040424000000000000000   10300001 00104100000000036000000000000000     
100   62911028202443730000000000133475000000133475002000000010410404240340518974805620400424442111018113   1030000500030000   555610112233104519000010487Ocean Super Center St  ohn           MMR11004240340518974800424000000000000000   10300001 00104100000000008009000000000000     
100   62911028202158290000000000014100000000014100002000000010410404240556088994855620400424578311237113   1030000500030000   555610114573104519000012532City Mart Ahlone Branc               MMR11004240556088994850424000000000000000   10300001 00104100000000000846000000000000     
100   62911028202423360000000000006850000000006850002000000010410404241149039047585620400424068201805113   1030000500030000   555610104041104519000003821City Mart North Point  enter         MMR11004241149039047580424000000000000000   10300001 00104100000000000411000000000000     
100   95030301100124400000000000017100000000017100002000000010410404240321388972495620400424206510935113   1030000300030000   444410123546104519000019764YKKO NOP                             MMR11004240321388972490424000000000000000   10300001 00104100000000001744000000000000     
100   62911028202502480000000000023000000000023000002000000010410404230843590005095620400423211315000509   1030000500030000   598320001903000015172200019MAX ENERGY             PTN           MMR11004230843590005090423000000000000000   10300001 00104100000000000690000000000000     
100   62911028202489110000000000104400000000104400002000000010410404230308040000055620400423211309000005   1030000500030000   594420173401000015944201734VJM (TGMP)             PTN           MMR11004230308040000050423000000000000000   10300001 00104100000000006264000000000000     
100   62911028202593140000000000011750000000011750002000000010410404231817320014415620400423000746010673   1030000200030000   541188001011000008000000008KBZ BANK               MARKETPLACE - MMR11004231817320014410423000000000000000   10300001 00104100000000000705000000000000     
100   95050316601084530000000000008500000000008500002000000010410404231145480000769654760423211318000076   1030000500030000   531120155801000045311201558GAMONE PWINT           PTN           MMR11004231145480000760423000000000000000   10300001 00104100000000002040000000000000     
100   62911028202530280000000000027300000000027300002000000010410404231207390000335620400423211318000033   1030000500030000   581220024201000015812200242SHWE LAR HOT POT       PTN           MMR11004231207390000330423000000000000000   10300001 00104100000000002785000000000000     
100   95050316601084530000000000017700000000017700002000000010410404231158530001558087370423211318000155   1030000500030000   531120155802000045311201558GAMONE PWINT           PTN           MMR11004231158530001550423000000000000000   10300001 00104100000000004248000000000000     
100   62443100303702210000000000480000000000480000002000000010410404230942530002243604840423211316000224   1030000500030000   598320041903000055983200419MAX ENERGY             PTN           MMR11004230942530002240423000000000000000   10300001 00104100000000057600000000000000     
100   62911028202151910000000000035000000000035000002000000010410404231055560003525620400423211317000352   1030000500030000   598320001404000015172200014MAX ENERGY             PTN           MMR11004231055560003520423000000000000000   10300001 00104100000000001050000000000000     
100   62911028202318750000000000003800000000003800002000000010410404240725229006805620400424025551324113   1030000300030000   444410125393104519000021220Myanmar Bakery CoLtd                 MMR11004240725229006800424000000000000000   10300001 00104100000000000388000000000000     
100   95050317903887690000000000002000000000002000002000000010410404231811584158663385210424000007042779   1030000200030000   3334000100012031040000040102C2P (Myanmar) Co. Ltd Yangon        MMR11004231811584158660424000000000000000   10300001F05104100000000000420000000000000     
100   62443100390038980000000000108255000000108255002000000010410404240314008971644052190424124430943113   1030000300030000   444410124354104519000020484The Pizza Company Rest urant         MMR11004240314008971640424000000000000000   10300001 00104100000000046009000000000000     
100   95030302100067550000000000008717000000008717002000000010410404240437538982415620400424232091105113   1030000500030000   555610112231104519000010487Ocean Super Center St  ohn           MMR11004240437538982410424000000000000000   10300001 00104100000000000523000000000000     
100   62911028202807400000000000040500000000040500002000000010410404240532288990465620400424076031236113   1030000500030000   555610104023104519000003821City Mart North Point  enter         MMR11004240532288990460424000000000000000   10300001 00104100000000002430000000000000     
100   62911028202112400000000000014800000000014800002000000010410404240920329023815620400424093501552113   1030000500030000   555610112255104519000010487Ocean Super Center St  ohn           MMR11004240920329023810424000000000000000   10300001 00104100000000000888000000000000     
100   62443100313112320000000000078000000000078000002000000010410404241052379039014620020424987291701113   1030000300030000   555510105630104519000005084Lady Mind Wine                       MMR11004241052379039010424000000000000000   10300001 00104100000000018720000000000000     
100   62911028202260160000000000048750000000048750002000000010410404241048449037445620400424784191738113   1030000500030000   555610103474104519000003432City Mart Junction Zaw na 1          MMR11004241048449037440424000000000000000   10300001 00104100000000002925000000000000     
100   95030310098554020000000000037000000000037000002000000010410404230607590000835620400423211312000083   1030000500030000   598320068301000055983200683MAX ENERGY             PTN           MMR11004230607590000830423000000000000000   10300001 00104100000000001110000000000000     
100   62911028202523350000000000037000000000037000002000000010410404230910360004095620400423211315000409   1030000500030000   598320001004000015172200010MAX ENERGY             PTN           MMR11004230910360004090423000000000000000   10300001 00104100000000001110000000000000     
100   62911028202481760000000000034890000000034890002000000010410404230442290000155620400423211311000015   1030000500030000   806220172403013008062201724GRAND HANTHA HOSPITAL  PTN           MMR11004230442290000150423000000000000000   10300001 00104100000000002093000000000000     
100   95030308100042590000000000105000000000105000002000000010410404230937200000895620400423211316000089   1030000500030000   598320001701000015172200017MAX ENERGY             PTN           MMR11004230937200000890423000000000000000   10300001 00104100000000003150000000000000     
100   95050313640946520000000000018400000000018400002000000010410404230911440001614661650423000341611729   1030000300030000   531100000747000000000000408CB BANK                CAPITAL HYPER MMR11004230911440001610423000000000000000   10300001F00104100000000004416000000000000     
100   62911028202527490000000000039871000000039871002000000010410404231145440002705620400423211318000270   1030000500030000   598320041902000055983200419MAX ENERGY             PTN           MMR11004231145440002700423000000000000000   10300001 00104100000000001196000000000000     
100   95050320047636150000000000015400000000015400002000000010410404231059050031792534240423000746008548   1030000200030000   591288000018000008000002044KBZ BANK               PINLON PHARMA MMR11004231059050031790423000000000000000   10300001 00104100000000003696000000000000     
100   62911028202280200000000000124800000000124800002000000010410404231540080049465620400423000746003630   1030000200030000   596588000900000008000000712KBZ BANK               AK CONCEPT SH MMR11004231540080049460423000000000000000   10300001 00104100000000007488000000000000     
100   95030343892826500000000000022700000000022700002000000010410404240351168976195620400424591221029113   1030000500030000   555610108765104519000003432City Mart Junction Zaw na 1          MMR11004240351168976190424000000000000000   10300001 00104100000000001362000000000000     
100   62911028202788270000000000017400000000017400002000000010410404241140599046865620400424981141827113   1030000300030000   444410118915104519000016097SP Bakery Yangon SR 1                MMR11004241140599046860424000000000000000   10300001 00104100000000001775000000000000     
100   62443100328070970000000000014750000000014750002000000010410404241109509040896676060424212391733113   1030000300030000   555510124691104519000020166Makro Myanmar                        MMR11004241109509040890424000000000000000   10300001 00104100000000003540000000000000     
100   62911028202423360000000000005000000000005000002000000010410404241140269046205620400424898101825113   1030000500030000   555610104043104519000003821City Mart North Point  enter         MMR11004241140269046200424000000000000000   10300001 00104100000000000300000000000000     
100   95050321057500320000000000044500000000044500002000000010410404240638349000684818060424287101316113   1030000500030000   555610112245104519000010487Ocean Super Center St  ohn           MMR11004240638349000680424000000000000000   10300001 00104100000000011125000000000000     
100   62911028202685470000000000157000000000157000002000000010410404241308576269055620400424211420626905   1040001600030000   806220000002000000010000001Victoria Hospital      Yangon        MMR11004241308576269050424000000000000000   10300001F00104100000000009420000000000000     
100   62911028202217360000000000037500000000037500002000000010410404240511418987875620400424809451146113   1030000500030000   555610114573104519000012532City Mart Ahlone Branc               MMR11004240511418987870424000000000000000   10300001 00104100000000002250000000000000     
100   62911028202400660000000000004600000000004600002000000010410404240642379001115620400424335131359113   1030000500030000   555610122358104519000018696CityMartSupermarket Sh ePyiTha       MMR11004240642379001110424000000000000000   10300001 00104100000000000276000000000000     
100   95050318805978240000000000035000000000035000002000000010410404231051315465655512620423211317546565   1040001600030000   581420000076000000010000074Hot Pot City Ahlone    Yangon        MMR11004231051315465650423000000000000000   10300001F00104100000000004200000000000000     
100   62911028202417590000000000030000000000030000002000000010410404231030145448175620400423211317544817   1040001600030000   598320000854000000010000608Terminal Petrol Statio Yangon        MMR11004231030145448170423000000000000000   10300001F00104100000000000900000000000000     
100   62443100318296470000000000019360000000019360002000000010410404231232125558497917180423211319555849   1040001600030000   581420000616000000010000489Mai Thai               Ygn           MMR11004231232125558490423000000000000000   10300001F00104100000000002323000000000000     
100   62443100315853220000000000069250000000069250002000000010410404241135300017551342900424000746033138   1030000200030000   541188001496000008000000399KBZ BANK               OCEAN SUPERCE MMR11004241135300017550424000000000000000   10300001 00104100000000017313000000000000     
100   95050315557781210000000000010000000000010000002000000010410404241130090009672349970424000007045221   1030000200030000   3338000100012031040000040022C2P (Myanmar) Co. Ltd Yangon        MMR11004241130090009670424000000000000000   10300001F05104100000000002100000000000000     
100   62911028202260320000000000131600000000131600002000000010410404240951260019325620400424000746044986   1030000200030000   581288001738000008000005244KBZ BANK               SEAFOOD CITY  MMR11004240951260019320424000000000000000   10300001 00104100000000013423000000000000     
100   62443100315853220000000000074880000000074880002000000010410404241114040014346215250424000746032268   1030000200030000   541188001484000008000000399KBZ BANK               OCEAN SUPERCE MMR11004241114040014340424000000000000000   10300001 00104100000000018720000000000000     
100   95050312568198510000000000001000000000001000002000000010410404241330150015025970080424000007045588   1030000200030000   3338000100012031040000040022C2P (Myanmar) Co. Ltd Yangon        MMR11004241330150015020424000000000000000   10300001F05104100000000000210000000000000     
100   95050321057500320000000000005450000000005450002000000010410404240616028997668463410424921501241113   1030000500030000   555610112249104519000010487Ocean Super Center St  ohn           MMR11004240616028997660424000000000000000   10300001 00104100000000001363000000000000     
100   62911028202528710000000000010150000000010150002000000010410404240706539004175620400424694361349113   1030000300030000   444410116806104519000014353BreadTalk JunctionCity               MMR11004240706539004170424000000000000000   10300001 00104100000000001035000000000000     
100   95050310283577350000000000036000000000036000002000000010410404240846119020264691290424668261516113   1030000300030000   555510111681104519000010027VNC Fashion                          MMR11004240846119020260424000000000000000   10300001 00104100000000008640000000000000     
100   62911028202400660000000000011250000000011250002000000010410404240630509000715620400424289101317113   1030000500030000   555610122348104519000018696CityMartSupermarket Sh ePyiTha       MMR11004240630509000710424000000000000000   10300001 00104100000000000675000000000000     
100   95030343892826500000000000033300000000033300002000000010410404240406248977825620400424741371002113   1030000500030000   555610108840104519000003432City Mart Junction Zaw na 1          MMR11004240406248977820424000000000000000   10300001 00104100000000001998000000000000     
100   95050313970192050000000000003900000000003900002000000010410404241220349052362278660424686541840113   1030000500030000   555610112651104519000010846City Express MCS 34                  MMR11004241220349052360424000000000000000   10300001 00104100000000000975000000000000     
100   95030311150602280000000000003500000000003500002000000010410404230837070010425620400423000341607275   1030000300030000   541100000091000000000000028CB BANK                ONE STOP KITC MMR11004230837070010420423000000000000000   10300001F00104100000000000210000000000000     
100   95050319928585020000000000000980000000000980002000000010410404240113454345315548270424000007043031   1020000200030000   333400010001204104000000281Myanmar Soft-Gate Tech Yangon        MMR11004240113454345310424000000000000000   10300001F05104100000000000206000000000000     
100   95030305700676370000000000186400000000186400002000000010410404241233470018925620400424000746051969   1030000200030000   581288001737000008000005244KBZ BANK               SEAFOOD CITY  MMR11004241233470018920424000000000000000   10300001 00104100000000019013000000000000     
100   62911028202248050000000000009800000000009800002000000010410404240323480030845620400424211409003084   1020000200030000   541100255001300115411000025MWD BANK               YGN           MMR11004240323480030840424000000000000000   10300001 00104100000000000588000000000000     
100   62443100315853220000000000216600000000216600002000000010410404241122540025429605310424000746032635   1030000200030000   541188001486000008000000399KBZ BANK               OCEAN SUPERCE MMR11004241122540025420424000000000000000   10300001 00104100000000054150000000000000     
100   62443100315853220000000000169800000000169800002000000010410404241110480014872910280424000746032135   1030000200030000   541188001479000008000000399KBZ BANK               OCEAN SUPERCE MMR11004241110480014870424000000000000000   10300001 00104100000000042450000000000000     
100   62443100361813580000000000020000000000020000002000000010410404240730270027903931440424000007044465   1030000200030000   333800010001203104000003327KBZPay                 Yangon        MMR11004240730270027900424000000000000000   10300001F05104100000000004200000000000000     
100   95050318741700180000000000000980000000000980002000000010410404240841381138931216130424000007044717   1020000200030000   333400010001204104000000281Myanmar Soft-Gate Tech Yangon        MMR11004240841381138930424000000000000000   10300001F05104100000000000206000000000000     
100   95050319532433550000000000050000000000050000002000000010410404241054362436683769020424000007045084   1030000200030000   333800010001203104000003327KBZPay                 Yangon        MMR11004241054362436680424000000000000000   10300001F05104100000000010500000000000000     
100   95050318233257470000000000060000000000060000002000000010410404240835300530947740960424000007044694   1030000200030000   333800010001203104000003327KBZPay                 Yangon        MMR11004240835300530940424000000000000000   10300001F05104100000000012600000000000000     
100   62911028202204560000000000005300000000005300002000000010410404241113080098385620400424000746032227   1030000200030000   541188001023000008000000298KBZ BANK               CITY MART - M MMR11004241113080098380424000000000000000   10300001 00104100000000000318000000000000     
100   95030301100126550000000000034250000000034250002000000010410404241333500309375620400424000746038019   1030000200030000   541188001041000008000000010KBZ BANK               MARKETPLACE - MMR11004241333500309370424000000000000000   10300001 00104100000000002055000000000000     
100   95050323133124350000000000070000000000070000002000000010410404240741431143817236410424000007044505   1030000200030000   333800010001203104000003327KBZPay                 Yangon        MMR11004240741431143810424000000000000000   10300001F05104100000000014700000000000000     
100   95050317084233280000000000000980000000000980002000000010410404240353562356960491930424000007043542   1020000200030000   333400010001204104000000281Myanmar Soft-Gate Tech Yangon        MMR11004240353562356960424000000000000000   10300001F05104100000000000206000000000000     
100   62911028202318750000000000007350000000007350002000000010410404241229460043445620400424000746035354   1030000200030000   541188001031000008000000298KBZ BANK               CITY MART - M MMR11004241229460043440424000000000000000   10300001 00104100000000000441000000000000     
100   62911028202662690000000000039950000000039950002000000010410404241836140333145620400424000746051003   1030000200030000   541188001025000008000000298KBZ BANK               CITY MART - M MMR11004241836140333140424000000000000000   10300001 00104100000000002397000000000000     
100   62911028202684060000000000015022000000015022002000000010410404241808050100045620400424000746049909   1030000200030000   541188001246000008000000323KBZ BANK               CITY MART - I MMR11004241808050100040424000000000000000   10300001 00104100000000000901000000000000     
100   95050311419479170000000000001960000000001960002000000010410404240357482748082229510424000007043555   1020000200030000   333400010001204104000000281Myanmar Soft-Gate Tech Yangon        MMR11004240357482748080424000000000000000   10300001F05104100000000000412000000000000     
100   95050313710136610000000000004900000000004900002000000010410404241457362736881147180424000007045884   1020000200030000   333400010001204104000000281Myanmar Soft-Gate Tech Yangon        MMR11004241457362736880424000000000000000   10300001F05104100000000001029000000000000     
100   95030301100126550000000000008000000000008000002000000010410404241334590309395620400424000746038062   1030000200030000   541188001041000008000000010KBZ BANK               MARKETPLACE - MMR11004241334590309390424000000000000000   10300001 00104100000000000480000000000000     
100   95050314791376690000000000005880000000005880002000000010410404240142011201183980880424000007043080   1020000200030000   333400010001204104000000281Myanmar Soft-Gate Tech Yangon        MMR11004240142011201180424000000000000000   10300001F05104100000000001235000000000000     
100   95050319374415880000000000000980000000000980002000000010410404241437150715367246550424000007045800   1020000200030000   333400010001204104000000281Myanmar Soft-Gate Tech Yangon        MMR11004241437150715360424000000000000000   10300001F05104100000000000206000000000000     
100   95050323233042810000000000000980000000000980002000000010410404241338000800849445250424000007045618   1020000200030000   333400010001204104000000281Myanmar Soft-Gate Tech Yangon        MMR11004241338000800840424000000000000000   10300001F05104100000000000206000000000000     
100   62911028202163480000000000059250000000059250002000000010410404241318450068635620400424000746037372   1030000200030000   541188001307000008000000325KBZ BANK               CITY MART - A MMR11004241318450068630424000000000000000   10300001 00104100000000003555000000000000     
100   62911028202790980000000000048350000000048350002000000010410404242033490060055620400424000746053814   1030000200030000   541188001022000008000000298KBZ BANK               CITY MART - M MMR11004242033490060050424000000000000000   10300001 00104100000000002901000000000000     
100   95030306100081790000000000003900000000003900002000000010410404241116250187595620400424000746032379   1030000200030000   541188001075000008000000294KBZ BANK               CITY MART - J MMR11004241116250187590424000000000000000   10300001 00104100000000000234000000000000     
100   95050315557781210000000000010000000000010000002000000010410404240658132813071513090424000007044365   1030000200030000   3338000100012031040000040022C2P (Myanmar) Co. Ltd Yangon        MMR11004240658132813070424000000000000000   10300001F05104100000000002100000000000000     
100   95050323133124350000000000012000000000012000002000000010410404241456122612777672010424000007045879   1030000200030000   333800010001203104000003327KBZPay                 Yangon        MMR11004241456122612770424000000000000000   10300001F05104100000000002520000000000000     
100   95050318646071770000000000000980000000000980002000000010410404240932220222236039070424000007044871   1020000200030000   333400010001204104000000281Myanmar Soft-Gate Tech Yangon        MMR11004240932220222230424000000000000000   10300001F05104100000000000206000000000000     
100   95030339867270590000000000155161000000155161002000000010410404241626200334945620400424000746045206   1030000200030000   541188001024000008000000298KBZ BANK               CITY MART - M MMR11004241626200334940424000000000000000   10300001 00104100000000009310000000000000     
100   62443100383487320000000000021250000000021250002000000010410404241511440269360790660424000746042004   1030000200030000   541188001012000008000000008KBZ BANK               MARKETPLACE - MMR11004241511440269360424000000000000000   10300001 00104100000000005313000000000000     
100   95030333247185050000000000026790000000026790002000000010410404241744410305435620400424000746048855   1030000200030000   541188001039000008000000010KBZ BANK               MARKETPLACE - MMR11004241744410305430424000000000000000   10300001 00104100000000001607000000000000     
100   95050312911050270000000000000980000000000980002000000010410404241300203020627455750424000007045488   1020000200030000   333400010001204104000000281Myanmar Soft-Gate Tech Yangon        MMR11004241300203020620424000000000000000   10300001F05104100000000000206000000000000     
100   95050321044701600000000000504000000000504000002000000010410404241231100110389654450424000007045400   1030000900030000   333800010001202104000003301uab bank               Yangon        MMR11004241231100110380424000000000000000   10300001F05104100000000105840000000000000     
100   95050325305150830000000000000980000000000980002000000010410404240733040304312278950424000007044480   1020000200030000   333400010001204104000000281Myanmar Soft-Gate Tech Yangon        MMR11004240733040304310424000000000000000   10300001F05104100000000000206000000000000     
100   62911028202318750000000000007200000000007200002000000010410404241232060157155620400424000746035463   1030000200030000   541188001020000008000000298KBZ BANK               CITY MART - M MMR11004241232060157150424000000000000000   10300001 00104100000000000432000000000000     
100   95050315122972560000000000000980000000000980002000000010410404240452112211756300350424000007043821   1020000200030000   333400010001204104000000281Myanmar Soft-Gate Tech Yangon        MMR11004240452112211750424000000000000000   10300001F05104100000000000206000000000000     
100   62911028202248050000000000054550000000054550002000000010410404240404073274255620400424650341007113   1030000900030000   541119001330190110000000971Ocean Junction NPT C 8 NAYPYITAW     MMR11004240404073274250424000000000000000   10300001F00104100000000003273000000000000     
100   95030353248676040000000000004441000000004441002000000010410404241718300173385620400424000746047615   1030000200030000   541188001082000008000000294KBZ BANK               CITY MART - J MMR11004241718300173380424000000000000000   10300001 00104100000000000267000000000000     
100   62911028202161240000000000003400000000003400002000000010410404241849220335115620400424000746051465   1030000200030000   541188001024000008000000298KBZ BANK               CITY MART - M MMR11004241849220335110424000000000000000   10300001 00104100000000000204000000000000     
100   95050312728902740000000000021650000000021650002000000010410404241709170332937172870424000746047184   1030000200030000   541188001025000008000000298KBZ BANK               CITY MART - M MMR11004241709170332930424000000000000000   10300001 00104100000000005413000000000000     
100   95050313052602140000000000200000000000200000002000000010410404241241241124523555130424000007045432   1030000200030000   333800010001203104000003327KBZPay                 Yangon        MMR11004241241241124520424000000000000000   10300001F05104100000000042000000000000000     
100   95030333409030400000000000003900000000003900002000000010410404241641020064065620400424000746045902   1030000200030000   541188001033000008000000298KBZ BANK               CITY MART - M MMR11004241641020064060424000000000000000   10300001 00104100000000000234000000000000     
100   95030367537085740000000000001960000000001960002000000010410404240233320332315620400424000007043225   1020000200030000   333400010001204104000000281Myanmar Soft-Gate Tech Yangon        MMR11004240233320332310424000000000000000   10300001F05104100000000000412000000000000     
100   95050319928585020000000000000980000000000980002000000010410404240333140314112484800424000007043463   1020000200030000   333400010001204104000000281Myanmar Soft-Gate Tech Yangon        MMR11004240333140314110424000000000000000   10300001F05104100000000000206000000000000     
100   95050316785465380000000000001960000000001960002000000010410404241338350835426821090424000007045619   1020000200030000   333400010001204104000000281Myanmar Soft-Gate Tech Yangon        MMR11004241338350835420424000000000000000   10300001F05104100000000000412000000000000     
100   62911028202533900000000000021600000000021600002000000010410404240824223329965620400424659541422113   1030000900030000   541119001196190110000000942City Mart HDC C 11     YANGONUT      MMR11004240824223329960424000000000000000   10300001F00104100000000001296000000000000     
100   62443100300743690000000000022285000000022285002000000010410404241228323392923129670424109581832113   1030000900030000   541119001236190110000000951Marketplace KTY C 6    YANGONARTAUNG MMR11004241228323392920424000000000000000   10300001F00104100000000005572000000000000     
100   95050319528093960000000000000980000000000980002000000010410404240710384038935413730424000007044409   1020000200030000   333400010001204104000000281Myanmar Soft-Gate Tech Yangon        MMR11004240710384038930424000000000000000   10300001F05104100000000000206000000000000     
100   95030301100319290000000000009150000000009150002000000010410404240541473295715620400424226111247113   1030000900030000   541119001349190110000000977Ocean PZD C 3          YANGONAUNG    MMR11004240541473295710424000000000000000   10300001F00104100000000000549000000000000     
100   95050312210363590000000000001000000000001000002000000010410404241408223822269870710424000007045725   1030000200030000   333800010001203104000003327KBZPay                 Yangon        MMR11004241408223822260424000000000000000   10300001F05104100000000000210000000000000     
100   95050314703432410000000000003000000000003000002000000010410404240726365636892193860424000007044460   1030000200030000   3338000100012031040000040022C2P (Myanmar) Co. Ltd Yangon        MMR11004240726365636890424000000000000000   10300001F05104100000000000630000000000000     
100   95050323133124350000000000003000000000003000002000000010410404241107013701153200930424000007045135   1030000200030000   333800010001203104000003327KBZPay                 Yangon        MMR11004241107013701150424000000000000000   10300001F05104100000000000630000000000000     
100   95050312695033440000000000001960000000001960002000000010410404241312034203020505420424000007045522   1020000200030000   333400010001204104000000281Myanmar Soft-Gate Tech Yangon        MMR11004241312034203020424000000000000000   10300001F05104100000000000412000000000000     
100   95050315615561720000000000000980000000000980002000000010410404240714364436705498830424000007044424   1020000200030000   333400010001204104000000281Myanmar Soft-Gate Tech Yangon        MMR11004240714364436700424000000000000000   10300001F05104100000000000206000000000000     
100   95050329252108030000000000105850000000105850002000000010410404241500463417637317860424371302146113   1030000900030000   581319001478190110000001075The Lord Yankin        YANGON        MMR11004241500463417630424000000000000000   10300001F00104100000000044987000000000000     
100   62911028202331290000000000096700000000096700002000000010410404240322165892855620400424211410589285   1040001600030000   591220000295000000010000283Shwe Ohh Pharmacy (39t Yangon        MMR11004240322165892850424000000000000000   10300001F00104100000000005802000000000000     
100   95050313699604770000000000011700000000011700002000000010410404241121233376067598380424959511723113   1030000900030000   541119001265190110000000958City Mart PLST C 8     YANGONMYOTHIT MMR11004241121233376060424000000000000000   10300001F00104100000000002925000000000000     
100   62911028202807400000000000037310000000037310002000000010410404240618373303385620400424791481237113   1030000900030000   723019001049190110000000852Beauty Diary(SYS) -1   YANGON        MMR11004240618373303380424000000000000000   10300001F00104100000000002239000000000000     
100   95050312498129060000000000001960000000001960002000000010410404241125005500491073550424000007045202   1020000200030000   333400010001204104000000281Myanmar Soft-Gate Tech Yangon        MMR11004241125005500490424000000000000000   10300001F05104100000000000412000000000000     
100   95050313062063490000000000004900000000004900002000000010410404241418224822890721720424000007045752   1020000200030000   333400010001204104000000281Myanmar Soft-Gate Tech Yangon        MMR11004241418224822890424000000000000000   10300001F05104100000000001029000000000000     
100   62443100300743690000000000008294000000008294002000000010410404241205013387285682510424728351801113   1030000900030000   581219000981190110000000788Jo Jo Hot Pot (KTY)    YANGONARTAUNG MMR11004241205013387280424000000000000000   10300001F00104100000000003525000000000000     
100   62911028202091860000000000002940000000002940002000000010410404241221315131285620400424000007045377   1020000200030000   333400010001204104000000281Myanmar Soft-Gate Tech Yangon        MMR11004241221315131280424000000000000000   10300001F05104100000000000617000000000000     
100   95030340340746190000000000240500000000240500002000000010410404240907593339385620400424313371559113   1030000900030000   541119000178190110000000086SeinGayHar (Hlaing Tha YANGONTHARYA  MMR11004240907593339380424000000000000000   10300001F00104100000000014430000000000000     
100   95050311959900780000000000001960000000001960002000000010410404240624245424691427990424000007044232   1020000200030000   333400010001204104000000281Myanmar Soft-Gate Tech Yangon        MMR11004240624245424690424000000000000000   10300001F05104100000000000412000000000000     
100   95030301100124400000000000009400000000009400002000000010410404241125453377305620400424050551745113   1030000900030000   541119001274190110000000961City Mart PLST City Ca YANGONMYOTHIT MMR11004241125453377300424000000000000000   10300001F00104100000000000564000000000000     
100   95050314401921990000000000000980000000000980002000000010410404240305403540830505720424000007043360   1020000200030000   333400010001204104000000281Myanmar Soft-Gate Tech Yangon        MMR11004240305403540830424000000000000000   10300001F05104100000000000206000000000000     
100   62911028202527490000000000041000000000041000002000000010410404230758130002025620400423211314000202   1030000500030000   598320041901000055983200419MAX ENERGY             PTN           MMR11004230758130002020423000000000000000   10300001 00104100000000001230000000000000     
100   95050311587250810000000000018600000000018600002000000010410404230941500006084746750423000341615640   1030000300030000   531100000610000000000000408CB BANK                CAPITAL HYPER MMR11004230941500006080423000000000000000   10300001F00104100000000004464000000000000     
100   95030307100064460000000000043000000000043000002000000010410404230209110002835620400423211308000283   1030000500030000   598320002001000015172200020MAX ENERGY             PTN           MMR11004230209110002830423000000000000000   10300001 00104100000000001290000000000000     
100   62443100384660050000000000030800000000030800002000000010410404231009250011961697070423000341619223   1030000300030000   531100000974000000000000688CB BANK                CAPITAL SUPER MMR11004231009250011960423000000000000000   10300001F00104100000000007392000000000000     
100   62911028202162640000000000045650000000045650002000000010410404220613570000224595510422211212000022   1030000500030000   581220065001000015812200650GOLDEN DUCK (8 MILES)  PTN           MMR11004220613570000220422000000000000000   10300001 00104100000000004656000000000000     
100   62911028202790980000000000040000000000040000002000000010410404230558430000395620400423211312000039   1030000500030000   569120091201000015691200912GIORDANO               PTN           MMR11004230558430000390423000000000000000   10300001 00104100000000002400000000000000     
100   95050327306623390000000000419000000000419000002000000010410404240851573336061641590424087211557113   1030000900030000   573219001178190110000000934UNIQUE Pansodan        YANGONADA     MMR11004240851573336060424000000000000000   10300001F00104100000000100560000000000000     
100   95050314703432410000000000005000000000005000002000000010410404241242331233507030250424000007045435   1030000200030000   3338000100012031040000040022C2P (Myanmar) Co. Ltd Yangon        MMR11004241242331233500424000000000000000   10300001F05104100000000001050000000000000     
100   95030301100126970000000000092250000000092250002000000010410404240636196001925620400424211413600192   1040001600030000   591220000287000000010000275Shwe Ohh Pharmacy (Wit Yangon        MMR11004240636196001920424000000000000000   10300001F00104100000000005535000000000000     
100   95030301100124400000000000002700000000002700002000000010410404241055343368245620400424409251734113   1030000900030000   541119001273190110000000960City Mart PLST Season  YANGONMYOTHIT MMR11004241055343368240424000000000000000   10300001F00104100000000000162000000000000     
100   95050317376014640000000000014050000000014050002000000010410404241205443387476533480424736351844113   1030000900030000   541119001355190110000000977Ocean PZD C9           YANGONAUNG    MMR11004241205443387470424000000000000000   10300001F00104100000000003513000000000000     
100   95030385550669610000000000094700000000094700002000000010410404240559513299445620400424499291251113   1030000900030000   541119000816190110000000178Pro (1) Global (East D YANGONMYOTHIT MMR11004240559513299440424000000000000000   10300001F00104100000000005682000000000000     
100   95050311382087030000000000001960000000001960002000000010410404241106413641603626440424000007045129   1020000200030000   333400010001204104000000281Myanmar Soft-Gate Tech Yangon        MMR11004241106413641600424000000000000000   10300001F05104100000000000412000000000000     
100   95050320205194540000000000012300000000012300002000000010410404241126323377484974170424064561732113   1030000900030000   541119001263190110000000958City Mart PLST C 6     YANGONMYOTHIT MMR11004241126323377480424000000000000000   10300001F00104100000000003075000000000000     
100   95050312498129060000000000000980000000000980002000000010410404240414194419109009640424000007043626   1020000200030000   333400010001204104000000281Myanmar Soft-Gate Tech Yangon        MMR11004240414194419100424000000000000000   10300001F05104100000000000206000000000000     
100   95050326426352250000000000015000000000015000002000000010410404240820465046850286090424000007044629   1030000200030000   333800010001203104000003327KBZPay                 Yangon        MMR11004240820465046850424000000000000000   10300001F05104100000000003150000000000000     
100   62911028202870750000000000014100000000014100002000000010410404241058473369185620400424478281747113   1030000900030000   541119001311190110000000968Ocean Mingalar MDY     MANDALAYHARSI MMR11004241058473369180424000000000000000   10300001F00104100000000000846000000000000     
100   95050320360851930000000000024500000000024500002000000010410404241119284928634902820424000007045178   1020000200030000   333400010001204104000000281Myanmar Soft-Gate Tech Yangon        MMR11004241119284928630424000000000000000   10300001F05104100000000005145000000000000     
100   95050310427855490000000000001960000000001960002000000010410404240821245124048633600424000007044632   1020000200030000   333400010001204104000000281Myanmar Soft-Gate Tech Yangon        MMR11004240821245124040424000000000000000   10300001F05104100000000000412000000000000     
100   62911028202528710000000000030000000000030000002000000010410404230216140001995620400423211308000199   1030000500030000   598320001604000015172200016MAX ENERGY             PTN           MMR11004230216140001990423000000000000000   10300001 00104100000000000900000000000000     
100   95050314893649800000000000002940000000002940002000000010410404241133260326845399630424000007045231   1020000200030000   333400010001204104000000281Myanmar Soft-Gate Tech Yangon        MMR11004241133260326840424000000000000000   10300001F05104100000000000617000000000000     
100   95050315158357300000000000002940000000002940002000000010410404240340521052100832320424000007043489   1020000200030000   333400010001204104000000281Myanmar Soft-Gate Tech Yangon        MMR11004240340521052100424000000000000000   10300001F05104100000000000617000000000000     
100   95050311736839760000000000023250000000023250002000000010410404230445330000186193390423211311000018   1030000500030000   541120024801022205411200248ORANGE (THARKAYTA)     PTN           MMR11004230445330000180423000000000000000   10300001 00104100000000005813000000000000     
100   62911028202163630000000000085700000000085700002000000010410404240357063273055620400424562271006113   1030000900030000   591219000796190110000000628Shwe Ohh Pharmacy ST-3 YANGONMYOTHIT MMR11004240357063273050424000000000000000   10300001F00104100000000005142000000000000     
100   95050310080023760000000000030900000000030900002000000010410404240514443289897612450424799441144113   1030000900030000   541119001261190110000000958City Mart PLST C 4     YANGONMYOTHIT MMR11004240514443289890424000000000000000   10300001F00104100000000007725000000000000     
100   62443100355445150000000000026724000000026724002000000010410404240936143345632563900424755061614113   1030000900030000   541119001355190110000000977Ocean PZD C9           YANGONAUNG    MMR11004240936143345630424000000000000000   10300001F00104100000000006681000000000000     
100   95030301100124400000000000026400000000026400002000000010410404241124103376955620400424025541710113   1030000900030000   541119001263190110000000958City Mart PLST C 6     YANGONMYOTHIT MMR11004241124103376950424000000000000000   10300001F00104100000000001584000000000000     
100   62443100330108240000000000000980000000000980002000000010410404240426195619887867740424000007043681   1020000200030000   333400010001204104000000281Myanmar Soft-Gate Tech Yangon        MMR11004240426195619880424000000000000000   10300001F05104100000000000206000000000000     
100   95030310098554020000000000030000000000030000002000000010410404240611505987015620400424211413598701   1040001600030000   598320000830000000010000596Regency Petrol Station Ygn           MMR11004240611505987010424000000000000000   10300001F00104100000000000900000000000000     
100   95050316421999920000000000000980000000000980002000000010410404240408583858078924550424000007043594   1020000200030000   333400010001204104000000281Myanmar Soft-Gate Tech Yangon        MMR11004240408583858070424000000000000000   10300001F05104100000000000206000000000000     
100   95030301100315070000000000004000000000004000002000000010410404240307233723335620400424000007043364   1030000300030000   333300010001206104000002741Get All Myanmar Compan Yangon        MMR11004240307233723330424000000000000000   10300001F05104100000000010000000000000000     
100   95050327531396450000000000100000000000100000002000000010410404240816334633025328630424000007044613   1030000200030000   333800010001203104000003327KBZPay                 Yangon        MMR11004240816334633020424000000000000000   10300001F05104100000000021000000000000000     
