100   95050310332595380000000000004900000000004900002000000010410404231315444544250165340423000007042053   1020000200030000   333400010001204104000000281Myanmar Soft-Gate Tech Yangon        MMR11004231315444544250423000000000000000   10300001F05104100000000001029000000000000     
100   62911028202788270000000000028000000000028000002000000010410404211320090000017152610421211119000001   1030000500030000   592120128901013205921201289F3 LIQUOR & SNACK      PTN           MMR11004211320090000010421000000000000000   10300001 00104100000000001680000000000000     
100   95030366960186690000000000061742000000061742002000000010410404210256430000093412100421211109000009   1030000500030000   806220172402013008062201724GRAND HANTHA HOSPITAL  PTN           MMR11004210256430000090421000000000000000   10300001 00104100000000003705000000000000     
100   62911028202291190000000000009000000000009000002000000010410404220734550000965069700422000745959802   1030000200030000   569988002289000008000006050KBZ BANK               PAPILLON - JU MMR11004220734550000960422000000000000000   10300001 00104100000000000540000000000000     
100   95030302100067550000000000030000000000030000002000000010410404220446130000664069100422211211000066   1030000500030000   598320001204000015172200012MAX ENERGY             PTN           MMR11004220446130000660422000000000000000   10300001 00104100000000000900000000000000     
100   95050320531117320000000000060050000000060050002000000010410404221249230001172336250422211219000117   1030000500030000   598320002701000015172200027MAX ENERGY             PTN           MMR11004221249230001170422000000000000000   10300001 00104100000000007206000000000000     
100   95050324154190880000000000020000000000020000002000000010410404220951360002929407320422211216000292   1030000500030000   598320001304000015172200013MAX ENERGY             PTN           MMR11004220951360002920422000000000000000   10300001 00104100000000002400000000000000     
100   62443101076362230000000000299000000000299000002000000010410404221227370018938435610422000745973569   1030000200030000   581288001738000008000005244KBZ BANK               SEAFOOD CITY  MMR11004221227370018930422000000000000000   10300001 00104100000000127075000000000000     
100   95030301100126550000000000057200000000057200002000000010410404231110123160135620400423627401712112   1030000900030000   571219001537190110000001113Pro 1 Plus Store-2     YANGONADON    MMR11004231110123160130423000000000000000   10300001F00104100000000003432000000000000     
100   95030301100354740000000000005000000000005000002000000010410404231113204320835620400423000007041645   1030000200030000   333800010001203104000003327KBZPay                 Yangon        MMR11004231113204320830423000000000000000   10300001F05104100000000001050000000000000     
100   95030301100128040000000000009300000000009300002000000010410404230405583061735620400423583351058112   1030000900030000   541119001207190110000000948City Mart YK C 5       YANGONAUNG    MMR11004230405583061730423000000000000000   10300001F00104100000000000558000000000000     
100   95050314557307430000000000000980000000000980002000000010410404230412404240226903870423000007039890   1020000200030000   333400010001204104000000281Myanmar Soft-Gate Tech Yangon        MMR11004230412404240220423000000000000000   10300001F05104100000000000206000000000000     
100   95050313168701670000000000002940000000002940002000000010410404231421095109684952600423000007042277   1020000200030000   333400010001204104000000281Myanmar Soft-Gate Tech Yangon        MMR11004231421095109680423000000000000000   10300001F05104100000000000617000000000000     
100   62911028202677880000000000036500000000036500002000000010410404230758373109925620400423858281437112   1030000900030000   573219001177190110000000933UNIQUE Kabaraye        YANGON        MMR11004230758373109920423000000000000000   10300001F00104100000000002190000000000000     
100   95050316818236190000000000002940000000002940002000000010410404230211184118889613170423000007039342   1020000200030000   333400010001204104000000281Myanmar Soft-Gate Tech Yangon        MMR11004230211184118880423000000000000000   10300001F05104100000000000617000000000000     
100   62443100383487320000000000089000000000089000002000000010410404230402503060987244260423533321050112   1030000900030000   569919001057190110000000860MDS JC                 YANGONN       MMR11004230402503060980423000000000000000   10300001F00104100000000021360000000000000     
100   62443100315853220000000000212400000000212400002000000010410404221011570017477471970422000745942879   1030000200030000   541188001496000008000000399KBZ BANK               OCEAN SUPERCE MMR11004221011570017470422000000000000000   10300001 00104100000000053100000000000000     
100   62911028202731170000000000045000000000045000002000000010410404221140510000635620400422211218000063   1030000500030000   598320101301005405983201013PT POWER (NPT)         PTN           MMR11004221140510000630422000000000000000   10300001 00104100000000001350000000000000     
100   95050310283518110000000000010107000000010107002000000010410404221240430034933060750422000745953908   1030000200030000   541188001436000008000000401KBZ BANK               OCEAN SUPERCE MMR11004221240430034930422000000000000000   10300001 00104100000000002527000000000000     
100   62911028202449440000000000061000000000061000002000000010410404220459000000144145810422211211000014   1030000500030000   598320004401000015172200044MAX ENERGY             PTN           MMR11004220459000000140422000000000000000   10300001 00104100000000001830000000000000     
100   95050310251874990000000000007100000000007100002000000010410404221126220041642294880422000745948383   1030000200030000   541188001424000008000000401KBZ BANK               OCEAN SUPERCE MMR11004221126220041640422000000000000000   10300001 00104100000000001775000000000000     
100   62911028202260160000000000086000000000086000002000000010410404221027230002455620400422211216000245   1030000500030000   598320001104000015172200011MAX ENERGY             PTN           MMR11004221027230002450422000000000000000   10300001 00104100000000002580000000000000     
100   62911028202907560000000000042800000000042800002000000010410404220312160000133505410422211209000013   1030000500030000   531120201602000085311202016STJ BLAZON             PTN           MMR11004220312160000130422000000000000000   10300001 00104100000000002568000000000000     
100   62443100372702000000000000035000000000035000002000000010410404220946340000990974710422211216000099   1030000500030000   598320001203000015172200012MAX ENERGY             PTN           MMR11004220946340000990422000000000000000   10300001 00104100000000004200000000000000     
100   95050316638224720000000000002940000000002940002000000010410404230901363136365002040423000007041086   1020000200030000   333400010001204104000000281Myanmar Soft-Gate Tech Yangon        MMR11004230901363136360423000000000000000   10300001F05104100000000000617000000000000     
100   95050319604564870000000000000980000000000980002000000010410404231201513151966434890423000007041823   1020000200030000   333400010001204104000000281Myanmar Soft-Gate Tech Yangon        MMR11004231201513151960423000000000000000   10300001F05104100000000000206000000000000     
100   95030301100354740000000000030000000000030000002000000010410404231111024102385620400423000007041629   1030000200030000   333800010001203104000003327KBZPay                 Yangon        MMR11004231111024102380423000000000000000   10300001F05104100000000006300000000000000     
100   95050319928585020000000000000980000000000980002000000010410404231118404840359059080423000007041656   1020000200030000   333400010001204104000000281Myanmar Soft-Gate Tech Yangon        MMR11004231118404840350423000000000000000   10300001F05104100000000000206000000000000     
100   95050320624349010000000000030000000000030000002000000010410404222318565110795556120423211306511079   1040001600030000   598320000916000000010000664MMTM - North Dagon     Ygn           MMR11004222318565110790423000000000000000   10300001F00104100000000003600000000000000     
100   62911028202166940000000000002500000000002500002000000010410404230701183118805620400423000007040582   1030000900030000   333400010001202104000002022ACS                    Yangon        MMR11004230701183118800423000000000000000   10300001F05104100000000000525000000000000     
100   95050313702988830000000000002940000000002940002000000010410404231005353535608392100423000007041374   1020000200030000   333400010001204104000000281Myanmar Soft-Gate Tech Yangon        MMR11004231005353535600423000000000000000   10300001F05104100000000000617000000000000     
100   95050317338786370000000000003000000000003000002000000010410404231608033803465037690423000007042583   1030000200030000   3334000100012031040000040102C2P (Myanmar) Co. Ltd Yangon        MMR11004231608033803460423000000000000000   10300001F05104100000000000630000000000000     
100   95050319207947610000000000028800000000028800002000000010410404221138250000063648350422211218000006   1030000500030000   541120182901000045411201829EASY MART-012          PTN           MMR11004221138250000060422000000000000000   10300001 00104100000000007200000000000000     
100   62911028202206880000000000020000000000020000002000000010410404220028380000092523610422211206000009   1030000500030000   598320001204000015172200012MAX ENERGY             PTN           MMR11004220028380000090422000000000000000   10300001 00104100000000000600000000000000     
100   62911028202313470000000000048300000000048300002000000010410404220411020014303846410422000745944765   1030000200030000   599988000602000008000003445KBZ BANK               SWEETY HOME ( MMR11004220411020014300422000000000000000   10300001 00104100000000002898000000000000     
100   62911028202611200000000000011739000000011739002000000010410404221226550062574481700422000745952901   1030000200030000   541188001062000008000000314KBZ BANK               MARKETPLACE - MMR11004221226550062570422000000000000000   10300001 00104100000000000704000000000000     
100   95050328212196190000000000015200000000015200002000000010410404220840080007087087860422211215000708   1030000500030000   531120155805000045311201558GAMONE PWINT           PTN           MMR11004220840080007080422000000000000000   10300001 00104100000000003648000000000000     
100   62911028202313470000000000014000000000014000002000000010410404220638090000234740710422211213000023   1030000500030000   573220039601000065732200396REMAX                  PTN           MMR11004220638090000230422000000000000000   10300001 00104100000000000840000000000000     
100   62911028202193670000000000032000000000032000002000000010410404220727250001625036310422211213000162   1030000500030000   598320001602000015172200016MAX ENERGY             PTN           MMR11004220727250001620422000000000000000   10300001 00104100000000000960000000000000     
100   62911028202527800000000000022178000000022178002000000010410404221026440001595620400422211216000159   1030000500030000   598320001604000015172200016MAX ENERGY             PTN           MMR11004221026440001590422000000000000000   10300001 00104100000000000665000000000000     
100   95050319870763910000000000000980000000000980002000000010410404231011264126713434650423000007041400   1020000200030000   333400010001204104000000281Myanmar Soft-Gate Tech Yangon        MMR11004231011264126710423000000000000000   10300001F05104100000000000206000000000000     
100   62443100330108240000000000000980000000000980002000000010410404230911354135036314140423000007041129   1020000200030000   333400010001204104000000281Myanmar Soft-Gate Tech Yangon        MMR11004230911354135030423000000000000000   10300001F05104100000000000206000000000000     
100   62443100357925510000000000003050000000003050002000000010410404230519053078289668550423709491105112   1030000900030000   541119000881190110000000084Pro (1) Global (Pazund YANGONARTAUNG MMR11004230519053078280423000000000000000   10300001F00104100000000000763000000000000     
100   95050311382087030000000000000980000000000980002000000010410404231410474047609910050423000007042232   1020000200030000   333400010001204104000000281Myanmar Soft-Gate Tech Yangon        MMR11004231410474047600423000000000000000   10300001F05104100000000000206000000000000     
100   95030367537085740000000000000980000000000980002000000010410404231302583258925620400423000007042018   1020000200030000   333400010001204104000000281Myanmar Soft-Gate Tech Yangon        MMR11004231302583258920423000000000000000   10300001F05104100000000000206000000000000     
100   95030307100064460000000000009927000000009927002000000010410404231202183173415620400423535321818112   1030000900030000   541119001203190110000000948City Mart YK C 1       YANGONAUNG    MMR11004231202183173410423000000000000000   10300001F00104100000000000596000000000000     
100   95050312173216740000000000050750000000050750002000000010410404231158523172578172470423475281852112   1030000900030000   541119001262190110000000958City Mart PLST C 5     YANGONMYOTHIT MMR11004231158523172570423000000000000000   10300001F00104100000000012688000000000000     
100   95050317903887690000000000005000000000005000002000000010410404230209473947787960680423000007039336   1030000200030000   3334000100012031040000040102C2P (Myanmar) Co. Ltd Yangon        MMR11004230209473947780423000000000000000   10300001F05104100000000001050000000000000     
100   95030307100064460000000000045000000000045000002000000010410404221203050002565620400422211218000256   1030000500030000   598320002001000015172200020MAX ENERGY             PTN           MMR11004221203050002560422000000000000000   10300001 00104100000000001350000000000000     
100   95050327185992630000000000012650000000012650002000000010410404221708470056804875350422000745969468   1030000200030000   541188001084000008000000294KBZ BANK               CITY MART - J MMR11004221708470056800422000000000000000   10300001 00104100000000003163000000000000     
100   62911028202099050000000000053000000000053000002000000010410404221003100000325620400422211216000032   1030000500030000   598320001904000015172200019MAX ENERGY             PTN           MMR11004221003100000320422000000000000000   10300001 00104100000000001590000000000000     
100   62911028202708080000000000025000000000025000002000000010410404220854200001995557810422211215000199   1030000500030000   598320002004000015172200020MAX ENERGY             PTN           MMR11004220854200001990422000000000000000   10300001 00104100000000000750000000000000     
100   62911028202442250000000000018000000000018000002000000010410404220617260002244616410422211212000224   1030000500030000   598320001903000015172200019MAX ENERGY             PTN           MMR11004220617260002240422000000000000000   10300001 00104100000000000540000000000000     
100   62443100315853220000000000122468000000122468002000000010410404221006030014820096170422000745942499   1030000200030000   541188001488000008000000399KBZ BANK               OCEAN SUPERCE MMR11004221006030014820422000000000000000   10300001 00104100000000030617000000000000     
100   95050322921717110000000000020000000000020000002000000010410404220127080001119344090422211207000111   1030000500030000   598320001602000015172200016MAX ENERGY             PTN           MMR11004220127080001110422000000000000000   10300001 00104100000000002400000000000000     
100   95030301100129110000000000030000000000030000002000000010410404221010110003085620400422211216000308   1030000500030000   598320001401000015172200014MAX ENERGY             PTN           MMR11004221010110003080422000000000000000   10300001 00104100000000000900000000000000     
100   95050314950595330000000000001000000000001000002000000010410404231312144214421817820423000007042043   1030000200030000   3338000100012031040000040022C2P (Myanmar) Co. Ltd Yangon        MMR11004231312144214420423000000000000000   10300001F05104100000000000210000000000000     
100   95030380157605420000000000300000000000300000002000000010410404231418044804385620400423000007042268   1030000200030000   333800010001203104000003327KBZPay                 Yangon        MMR11004231418044804380423000000000000000   10300001F05104100000000063000000000000000     
100   95030301100128040000000000380000000000380000002000000010410404230757113109565620400423831271411112   1030000900030000   509419001487190110000001083Treasure Sea           YANGONN       MMR11004230757113109560423000000000000000   10300001F00104100000000038000000000000000     
100   95030302100061930000000000047000000000047000002000000010410404230757283109615620400423834271428112   1030000900030000   541119000126190110000000082Sein Gay Har Super Cen YANGON        MMR11004230757283109610423000000000000000   10300001F00104100000000002820000000000000     
100   62911028202803930000000000006450000000006450002000000010410404230831243116595620400423367011524112   1030000900030000   541119001257190110000000957City Mart JS City Care YANGONUT      MMR11004230831243116590423000000000000000   10300001F00104100000000000387000000000000     
100   95050317903887690000000000002940000000002940002000000010410404231603093309470080240423000007042572   1020000200030000   333400010001204104000000281Myanmar Soft-Gate Tech Yangon        MMR11004231603093309470423000000000000000   10300001F05104100000000000617000000000000     
100   95050310427855490000000000003920000000003920002000000010410404230918054805498051720423000007041170   1020000200030000   333400010001204104000000281Myanmar Soft-Gate Tech Yangon        MMR11004230918054805490423000000000000000   10300001F05104100000000000823000000000000     
100   62911028202202580000000000019400000000019400002000000010410404230320275200955620400423211310520095   1040001600030000   591220000276000000010000264Shwe Ohh Pharmacy (YGH Yangon        MMR11004230320275200950423000000000000000   10300001F00104100000000001164000000000000     
100   62911028202520380000000000069000000000069000002000000010410404220427130000613955110422211210000061   1030000500030000   598320001204000015172200012MAX ENERGY             PTN           MMR11004220427130000610422000000000000000   10300001 00104100000000002070000000000000     
100   62911028202523350000000000036000000000036000002000000010410404221125330002955620400422211217000295   1030000500030000   598320001004000015172200010MAX ENERGY             PTN           MMR11004221125330002950422000000000000000   10300001 00104100000000001080000000000000     
100   62911028202907560000000000030000000000030000002000000010410404220346510000543712910422211210000054   1030000500030000   598320001204000015172200012MAX ENERGY             PTN           MMR11004220346510000540422000000000000000   10300001 00104100000000000900000000000000     
100   62443101076362230000000000042800000000042800002000000010410404221226120018910088090422000745973529   1030000200030000   581288001738000008000005244KBZ BANK               SEAFOOD CITY  MMR11004221226120018910422000000000000000   10300001 00104100000000018190000000000000     
100   62443100306416880000000000015300000000015300002000000010410404221750160133408520700422000745971175   1030000200030000   541188001056000008000000314KBZ BANK               MARKETPLACE - MMR11004221750160133400422000000000000000   10300001 00104100000000003825000000000000     
100   62911028202130970000000000003600000000003600002000000010410404221526020155615556510422000745964809   1030000200030000   541188001304000008000000325KBZ BANK               CITY MART - A MMR11004221526020155610422000000000000000   10300001 00104100000000000216000000000000     
100   62911028202074950000000000007800000000007800002000000010410404221621080268045620400422000745967312   1030000200030000   541188001012000008000000008KBZ BANK               MARKETPLACE - MMR11004221621080268040422000000000000000   10300001 00104100000000000468000000000000     
100   95050327185992630000000000033900000000033900002000000010410404221715180186894534970422000745969770   1030000200030000   541188001075000008000000294KBZ BANK               CITY MART - J MMR11004221715180186890422000000000000000   10300001 00104100000000008475000000000000     
100   95030319588829360000000000007600000000007600002000000010410404230542183083465620400423051121218112   1030000900030000   541119001229190110000000946City Mart TM Season C  YANGONONE     MMR11004230542183083460423000000000000000   10300001F00104100000000000456000000000000     
100   62443100392426520000000000010000000000010000002000000010410404230905073507139959490423000007041096   1030000200030000   333800010001203104000003327KBZPay                 Yangon        MMR11004230905073507130423000000000000000   10300001F05104100000000002100000000000000     
100   95050312498129060000000000001960000000001960002000000010410404230913364336189704200423000007041149   1020000200030000   333400010001204104000000281Myanmar Soft-Gate Tech Yangon        MMR11004230913364336180423000000000000000   10300001F05104100000000000412000000000000     
100   62443100383487320000000000040000000000040000002000000010410404230345165213432116610423211310521343   1040001600030000   569920000593000000010000468BOSSINI (Junction City Yangon        MMR11004230345165213430423000000000000000   10300001F00104100000000009600000000000000     
100   95030398701797940000000000008150000000008150002000000010410404231226035552815620400423211319555281   1040001600030000   541120000561000000010000465Ocean Shwe Gone Daing  Yangon        MMR11004231226035552810423000000000000000   10300001F00104100000000000489000000000000     
100   95030301100341540000000000050000000000050000002000000010410404230529005900215620400423000007040219   1030000200030000   333800010001203104000003327KBZPay                 Yangon        MMR11004230529005900210423000000000000000   10300001F05104100000000010500000000000000     
100   62911028202207460000000000003800000000003800002000000010410404230654508881855620400423407251317112   1030000500030000   555610112234104519000010487Ocean Super Center St  ohn           MMR11004230654508881850423000000000000000   10300001 00104100000000000228000000000000     
100   62911028202136750000000000122000000000122000002000000010410404230907528901315620400423807391524112   1030000500030000   555610112236104519000010487Ocean Super Center St  ohn           MMR11004230907528901310423000000000000000   10300001 00104100000000007320000000000000     
100   95030305100040620000000000114800000000114800002000000010410404220928180267713410100422000745940682   1030000200030000   541188001012000008000000008KBZ BANK               MARKETPLACE - MMR11004220928180267710422000000000000000   10300001 00104100000000006888000000000000     
100   62911028202313470000000000017450000000017450002000000010410404221406060178775076710422000745959899   1030000200030000   541188001055000008000000314KBZ BANK               MARKETPLACE - MMR11004221406060178770422000000000000000   10300001 00104100000000001047000000000000     
100   62911028202161240000000000006033000000006033002000000010410404221757550097035620400422000745971507   1030000200030000   541188001023000008000000298KBZ BANK               CITY MART - M MMR11004221757550097030422000000000000000   10300001 00104100000000000362000000000000     
100   95030305100040620000000000141200000000141200002000000010410404220937230083043464600422000745941072   1030000200030000   541188001002000008000000008KBZ BANK               MARKETPLACE - MMR11004220937230083040422000000000000000   10300001 00104100000000008472000000000000     
100   62911028202611200000000000007447000000007447002000000010410404221215360132934413900422000745952075   1030000200030000   541188001056000008000000314KBZ BANK               MARKETPLACE - MMR11004221215360132930422000000000000000   10300001 00104100000000000447000000000000     
100   62443100306698200000000000073387000000073387002000000010410404221201560083187848010422000745951121   1030000200030000   541188001002000008000000008KBZ BANK               MARKETPLACE - MMR11004221201560083180422000000000000000   10300001 00104100000000018347000000000000     
100   95050316524518200000000000022300000000022300002000000010410404230858153122406654530423807281515112   1030000900030000   594519000444190110000000299BKB Baby&ToysCenter(Ta YANGON        MMR11004230858153122400423000000000000000   10300001F00104100000000005352000000000000     
100   95030381424182120000000000094150000000094150002000000010410404231037013148595620400423775071701112   1030000900030000   541119000162190110000000084Pro (1) Global (Pazund YANGONARTAUNG MMR11004231037013148590423000000000000000   10300001F00104100000000005649000000000000     
100   95050329213164970000000000002940000000002940002000000010410404230323205320481435840423000007039646   1020000200030000   333400010001204104000000281Myanmar Soft-Gate Tech Yangon        MMR11004230323205320480423000000000000000   10300001F05104100000000000617000000000000     
100   62911028202366010000000000005700000000005700002000000010410404231031548914625620400423411011754112   1030000500030000   555610103965104519000003818Ocean Oattara Thiri Na PyiTaw        MMR11004231031548914620423000000000000000   10300001 00104100000000000342000000000000     
100   95050310608512070000000000004900000000004900002000000010410404230324425442079868460423000007039657   1020000200030000   333400010001204104000000281Myanmar Soft-Gate Tech Yangon        MMR11004230324425442070423000000000000000   10300001F05104100000000001029000000000000     
100   95050316717221100000000000000980000000000980002000000010410404230227295729498045780423000007039407   1020000200030000   333400010001204104000000281Myanmar Soft-Gate Tech Yangon        MMR11004230227295729490423000000000000000   10300001F05104100000000000206000000000000     
100   95050323233042810000000000000980000000000980002000000010410404231425455545416605080423000007042294   1020000200030000   333400010001204104000000281Myanmar Soft-Gate Tech Yangon        MMR11004231425455545410423000000000000000   10300001F05104100000000000206000000000000     
100   95050318601641810000000000000980000000000980002000000010410404230529465946522633130423000007040225   1020000200030000   333400010001204104000000281Myanmar Soft-Gate Tech Yangon        MMR11004230529465946520423000000000000000   10300001F05104100000000000206000000000000     
100   95050323349421940000000000100000000000100000002000000010410404230329465946684911000423000007039681   1030000500030000   333800010001201104000003863AYA Pay                Yangon        MMR11004230329465946680423000000000000000   10300001F05104100000000021000000000000000     
100   95030380157605420000000000300000000000300000002000000010410404231426555655545620400423000007042301   1030000200030000   333800010001203104000003327KBZPay                 Yangon        MMR11004231426555655540423000000000000000   10300001F05104100000000063000000000000000     
100   62911028202291190000000000033150000000033150002000000010410404220651520000474811400422000745956923   1030000200030000   596588002421000008000006474KBZ BANK               AMERICAN COLL MMR11004220651520000470422000000000000000   10300001 00104100000000001989000000000000     
100   62443100318296470000000000018100000000018100002000000010410404221618350012302712280422000745967209   1030000200030000   541188001021000008000000298KBZ BANK               CITY MART - M MMR11004221618350012300422000000000000000   10300001 00104100000000004525000000000000     
100   95050327416134790000000000000980000000000980002000000010410404231338310831665292980423000007042117   1020000200030000   333400010001204104000000281Myanmar Soft-Gate Tech Yangon        MMR11004231338310831660423000000000000000   10300001F05104100000000000206000000000000     
100   62443100399918110000000000025250000000025250002000000010410404231024000268213854190423000745990622   1030000200030000   541188001012000008000000008KBZ BANK               MARKETPLACE - MMR11004231024000268210423000000000000000   10300001 00104100000000006313000000000000     
100   95050325305150830000000000000980000000000980002000000010410404231253552355126775270423000007041989   1020000200030000   333400010001204104000000281Myanmar Soft-Gate Tech Yangon        MMR11004231253552355120423000000000000000   10300001F05104100000000000206000000000000     
100   62911028202142850000000000034000000000034000002000000010410404220213160000033151410422211208000003   1030000500030000   541120020701022205411200207ORANGE (YDG)           PTN           MMR11004220213160000030422000000000000000   10300001 00104100000000002040000000000000     
100   95050328212196190000000000027000000000027000002000000010410404220843190000178485050422211215000017   1030000500030000   531120155807000045311201558GAMONE PWINT           PTN           MMR11004220843190000170422000000000000000   10300001 00104100000000006480000000000000     
100   95030346130941600000000000020240000000020240002000000010410404220950420046695620400422000341452537   1030000300030000   806200000197000000000000097CB BANK                AUNG YADANA H MMR11004220950420046690422000000000000000   10300001F00104100000000001214000000000000     
100   95050324622440820000000000020200000000020200002000000010410404231049148918048817580423839211726112   1030000500030000   555610110596104519000009166City Mart 47 Branch                  MMR11004231049148918040423000000000000000   10300001 00104100000000005050000000000000     
100   62911028202169750000000000041144000000041144002000000010410404230448165247075620400423211311524707   1040001600030000   541120000559000000010000465Ocean Shwe Gone Daing  Yangon        MMR11004230448165247070423000000000000000   10300001F00104100000000002469000000000000     
100   95050316785465380000000000001960000000001960002000000010410404230728205820835732260423000007040689   1020000200030000   333400010001204104000000281Myanmar Soft-Gate Tech Yangon        MMR11004230728205820830423000000000000000   10300001F05104100000000000412000000000000     
100   62443100306028540000000000007600000000007600002000000010410404230715208884638952130423729451319112   1030000500030000   555610112244104519000010487Ocean Super Center St  ohn           MMR11004230715208884630423000000000000000   10300001 00104100000000001900000000000000     
100   62911028202197630000000000006150000000006150002000000010410404230423355233325620400423211311523332   1040001600030000   591220000277000000010000265Shwe Ohh Pharmacy (Thu Yangon        MMR11004230423355233320423000000000000000   10300001F00104100000000000369000000000000     
100   95050321976590420000000000010000000000010000002000000010410404231135265505875839210423211318550587   1040001600030000   541120000559000000010000465Ocean Shwe Gone Daing  Yangon        MMR11004231135265505870423000000000000000   10300001F00104100000000002500000000000000     
100   62911028202686950000000000150000000000150000002000000010410404230209278848265620400423604390826112   1030000300030000   555510124362104519000020166Makro Myanmar                        MMR11004230209278848260423000000000000000   10300001 00104100000000009000000000000000     
100   95050310427855490000000000002940000000002940002000000010410404230727445744730774800423000007040686   1020000200030000   333400010001204104000000281Myanmar Soft-Gate Tech Yangon        MMR11004230727445744730423000000000000000   10300001F05104100000000000617000000000000     
100   62911028202449440000000000076000000000076000002000000010410404220003180000482371600422211206000048   1030000500030000   598320002701000015172200027MAX ENERGY             PTN           MMR11004220003180000480422000000000000000   10300001 00104100000000002280000000000000     
100   95050311382087030000000000002940000000002940002000000010410404230630290029779207410423000007040459   1020000200030000   333400010001204104000000281Myanmar Soft-Gate Tech Yangon        MMR11004230630290029770423000000000000000   10300001F05104100000000000617000000000000     
100   95050312867570630000000000003000000000003000002000000010410404230328053054208215970423107580905112   1030000900030000   541119001237190110000000952Marketplace KTY Season YANGONARTAUNG MMR11004230328053054200423000000000000000   10300001F00104100000000000750000000000000     
100   95050322312197120000000000150000000000150000002000000010410404230708223822361030090423000007040615   1030000200030000   333800010001203104000003327KBZPay                 Yangon        MMR11004230708223822360423000000000000000   10300001F05104100000000031500000000000000     
100   95050311906097980000000000046680000000046680002000000010410404231209100023606023200423000745994789   1030000200030000   541188001481000008000000399KBZ BANK               OCEAN SUPERCE MMR11004231209100023600423000000000000000   10300001 00104100000000011670000000000000     
100   95050319870763910000000000000980000000000980002000000010410404230727195719882427280423000007040684   1020000200030000   333400010001204104000000281Myanmar Soft-Gate Tech Yangon        MMR11004230727195719880423000000000000000   10300001F05104100000000000206000000000000     
100   62911028202264530000000000032000000000032000002000000010410404231010493139345620400423086401649112   1030000900030000   592119000589190110000000429Htun Htun Oo Liquor (Y YANGON        MMR11004231010493139340423000000000000000   10300001F00104100000000001920000000000000     
100   95030359363082940000000000010000000000010000002000000010410404230412054205415620400423000007039885   1030000200030000   333800010001203104000003327KBZPay                 Yangon        MMR11004230412054205410423000000000000000   10300001F05104100000000002100000000000000     
100   95050323349421940000000000100000000000100000002000000010410404230327065706684825910423000007039672   1030000500030000   333800010001201104000003863AYA Pay                Yangon        MMR11004230327065706680423000000000000000   10300001F05104100000000021000000000000000     
100   95050324104751500000000000031200000000031200002000000010410404231036128915883519750423578081715112   1030000500030000   555610110597104519000009166City Mart 47 Branch                  MMR11004231036128915880423000000000000000   10300001 00104100000000007800000000000000     
100   62443100379116470000000000000980000000000980002000000010410404230723075307040689700423000007040666   1020000200030000   333400010001204104000000281Myanmar Soft-Gate Tech Yangon        MMR11004230723075307040423000000000000000   10300001F05104100000000000206000000000000     
100   95050313968650950000000000000980000000000980002000000010410404231225215521064612210423000007041899   1020000200030000   333400010001204104000000281Myanmar Soft-Gate Tech Yangon        MMR11004231225215521060423000000000000000   10300001F05104100000000000206000000000000     
100   95050316818236190000000000001960000000001960002000000010410404231429245924656690180423000007042313   1020000200030000   333400010001204104000000281Myanmar Soft-Gate Tech Yangon        MMR11004231429245924650423000000000000000   10300001F05104100000000000412000000000000     
100   95030393174848800000000000023650000000023650002000000010410404230543008871835620400423232131200112   1030000500030000   555610110563104519000009163City Mart Ayeyarwon Br nch           MMR11004230543008871830423000000000000000   10300001 00104100000000001419000000000000     
100   95050318242219520000000000000980000000000980002000000010410404231423575357263300120423000007042286   1020000200030000   333400010001204104000000281Myanmar Soft-Gate Tech Yangon        MMR11004231423575357260423000000000000000   10300001F05104100000000000206000000000000     
100   95030301100126220000000000044600000000044600002000000010410404230913285395975620400423211316539597   1040001600030000   541120000553000000010000465Ocean Shwe Gone Daing  Yangon        MMR11004230913285395970423000000000000000   10300001F00104100000000002676000000000000     
100   62443100399918110000000000070520000000070520002000000010410404231030380007223939290423000745990854   1030000200030000   541188001008000008000000008KBZ BANK               MARKETPLACE - MMR11004231030380007220423000000000000000   10300001 00104100000000017630000000000000     
100   95050315745833530000000000027700000000027700002000000010410404231454070023669278720423000746001566   1030000200030000   541188001481000008000000399KBZ BANK               OCEAN SUPERCE MMR11004231454070023660423000000000000000   10300001 00104100000000006925000000000000     
100   95050314308945310000000000020000000000020000002000000010410404230339420942127159160423000007039735   1030000200030000   333800010001203104000003327KBZPay                 Yangon        MMR11004230339420942120423000000000000000   10300001F05104100000000004200000000000000     
100   95030371724152130000000000030500000000030500002000000010410404231850080033495620400423000746011937   1030000200030000   541188001454000008000000391KBZ BANK               OCEAN SUPER C MMR11004231850080033490423000000000000000   10300001 00104100000000001830000000000000     
100   95050315701710960000000000052000000000052000002000000010410404230632450245000859900423000007040468   1030000200030000   333800010001203104000003327KBZPay                 Yangon        MMR11004230632450245000423000000000000000   10300001F05104100000000010920000000000000     
100   62911028202091860000000000003000000000003000002000000010410404231349391939895620400423000007042155   1030000200030000   3334000100012031040000040102C2P (Myanmar) Co. Ltd Yangon        MMR11004231349391939890423000000000000000   10300001F05104100000000000630000000000000     
100   95050323749862420000000000022115000000022115002000000010410404230942370133541776230423000745989281   1030000200030000   541188001056000008000000314KBZ BANK               MARKETPLACE - MMR11004230942370133540423000000000000000   10300001 00104100000000005529000000000000     
100   95050325455962190000000000014700000000014700002000000010410404231436070607341647630423000007042335   1020000200030000   333400010001204104000000281Myanmar Soft-Gate Tech Yangon        MMR11004231436070607340423000000000000000   10300001F05104100000000003087000000000000     
100   95050323349421940000000000300000000000300000002000000010410404230324225422569783360423000007039659   1030000200030000   333800010001203104000003327KBZPay                 Yangon        MMR11004230324225422560423000000000000000   10300001F05104100000000063000000000000000     
100   95050323349421940000000000100000000000100000002000000010410404230328445844713173420423000007039678   1030000500030000   333800010001201104000003863AYA Pay                Yangon        MMR11004230328445844710423000000000000000   10300001F05104100000000021000000000000000     
100   95030319588829360000000000261820000000261820002000000010410404230516185262925620400423211312526292   1040001600030000   591220000277000000010000265Shwe Ohh Pharmacy (Thu Yangon        MMR11004230516185262920423000000000000000   10300001F00104100000000015709000000000000     
100   62911028202790980000000000050000000000050000002000000010410404230516215262935620400423211312526293   1040001600030000   569120000924000000010000671Generation Concept Sto Ygn           MMR11004230516215262930423000000000000000   10300001F00104100000000003000000000000000     
100   62911028202099050000000000206400000000206400002000000010410404230711285331645620400423211314533164   1040001600030000   591220000266000000010000254Shwe Ohh Pharmacy (Sin Yangon        MMR11004230711285331640423000000000000000   10300001F00104100000000012384000000000000     
100   95030393174848800000000000003600000000003600002000000010410404230543438871945620400423247131257112   1030000500030000   555610110563104519000009163City Mart Ayeyarwon Br nch           MMR11004230543438871940423000000000000000   10300001 00104100000000000216000000000000     
100   95030374458345210000000000021500000000021500002000000010410404231001288909265620400423762321614112   1030000500030000   555610104050104519000003821City Mart North Point  enter         MMR11004231001288909260423000000000000000   10300001 00104100000000001290000000000000     
100   95050323349421940000000000300000000000300000002000000010410404230322505250316478390423000007039641   1030000200030000   333800010001203104000003327KBZPay                 Yangon        MMR11004230322505250310423000000000000000   10300001F05104100000000063000000000000000     
100   95050323670692380000000000010000000000010000002000000010410404221739070907642251150423000007038816   1030000200030000   333800010001203104000003327KBZPay                 Yangon        MMR11004221739070907640423000000000000000   10300001F05104100000000002100000000000000     
100   62911028202245730000000000050500000000050500002000000010410404230101063038845620400423373310706112   1030000900030000   729819000945190110000000752SML Clinic             YANGON        MMR11004230101063038840423000000000000000   10300001F00104100000000003030000000000000     
100   95050310794962000000000000005000000000005000002000000010410404230641461146092597480423000007040516   1030000200030000   3338000100012031040000040022C2P (Myanmar) Co. Ltd Yangon        MMR11004230641461146090423000000000000000   10300001F05104100000000001050000000000000     
100   62443100353553260000000000030000000000030000002000000010410404230443551355277074070423000007040033   1030000200030000   333800010001203104000003327KBZPay                 Yangon        MMR11004230443551355270423000000000000000   10300001F05104100000000006300000000000000     
100   95030301100119390000000000206000000000206000002000000010410404231544501450355620400423000007042520   1030000200030000   333800010001203104000003327KBZPay                 Yangon        MMR11004231544501450350423000000000000000   10300001F05104100000000043260000000000000     
100   95050319709462380000000000010000000000010000002000000010410404230348481848252201710423000007039774   1030000200030000   3338000100012031040000040022C2P (Myanmar) Co. Ltd Yangon        MMR11004230348481848250423000000000000000   10300001F05104100000000002100000000000000     
100   95050312498129060000000000003920000000003920002000000010410404231358002800026945470423000007042186   1020000200030000   333400010001204104000000281Myanmar Soft-Gate Tech Yangon        MMR11004231358002800020423000000000000000   10300001F05104100000000000823000000000000     
100   95050315701710960000000000001960000000001960002000000010410404231356182618618597950423000007042176   1020000200030000   333400010001204104000000281Myanmar Soft-Gate Tech Yangon        MMR11004231356182618610423000000000000000   10300001F05104100000000000412000000000000     
100   62911028202685470000000000060000000000060000002000000010410404230557145287965620400423211312528796   1040001600030000   806220000003000000010000001Victoria Hospital      Yangon        MMR11004230557145287960423000000000000000   10300001F00104100000000003600000000000000     
100   95050324104751500000000000218250000000218250002000000010410404231052505466928902680423211317546692   1040001600030000   591220000285000000010000273Shwe Ohh Pharmacy (47t Yangon        MMR11004231052505466920423000000000000000   10300001F00104100000000052380000000000000     
100   95050319532433550000000000055000000000055000002000000010410404231128465846444101630423000007041702   1030000200030000   333800010001203104000003327KBZPay                 Yangon        MMR11004231128465846440423000000000000000   10300001F05104100000000011550000000000000     
100   62911028202110420000000000074350000000074350002000000010410404230411258859295620400423850421013112   1030000500030000   555610103464104519000003420City Mart Yankin Cente 3             MMR11004230411258859290423000000000000000   10300001 00104100000000004461000000000000     
100   95030374458345210000000000075414000000075414002000000010410404230950408907725620400423582211635112   1030000500030000   555610104020104519000003821City Mart North Point  enter         MMR11004230950408907720423000000000000000   10300001 00104100000000004525000000000000     
100   62911028202464100000000000000950000000000950002000000010410404231318398938475620400423372511913112   1030000500030000   555610120983104519000017746City Express MCS 109                 MMR11004231318398938470423000000000000000   10300001 00104100000000000057000000000000     
100   62443100315853220000000000024200000000024200002000000010410404221015360017489294650422000745943077   1030000200030000   541188001496000008000000399KBZ BANK               OCEAN SUPERCE MMR11004221015360017480422000000000000000   10300001 00104100000000006050000000000000     
100   95050317919176400000000000005250000000005250002000000010410404231221488932909569660423676521847112   1030000500030000   555610120944104519000017714City Mart Yuzana Dagon Seikkan       MMR11004231221488932900423000000000000000   10300001 00104100000000001313000000000000     
100   95050311780044340000000000000980000000000980002000000010410404230530490049577590580423000007040228   1020000200030000   333400010001204104000000281Myanmar Soft-Gate Tech Yangon        MMR11004230530490049570423000000000000000   10300001F05104100000000000206000000000000     
100   95050320092651450000000000047950000000047950002000000010410404231604530056961356680423000746004746   1030000200030000   541188001084000008000000294KBZ BANK               CITY MART - J MMR11004231604530056960423000000000000000   10300001 00104100000000011988000000000000     
100   95050310281229490000000000047000000000047000002000000010410404231148201820151392340423000007041773   1030000200030000   333800010001203104000003327KBZPay                 Yangon        MMR11004231148201820150423000000000000000   10300001F05104100000000009870000000000000     
100   95030371724152130000000000031000000000031000002000000010410404231902420037215620400423000746012350   1030000200030000   541188001463000008000000391KBZ BANK               OCEAN SUPER C MMR11004231902420037210423000000000000000   10300001 00104100000000001860000000000000     
100   95050315557781210000000000020000000000020000002000000010410404231133370337447491700423000007041722   1040001600030000   333800010001220104000004507A +                    Yangon        MMR11004231133370337440423000000000000000   10300001F05104100000000004200000000000000     
100   95050315158357300000000000002940000000002940002000000010410404230854452445556569430423000007041056   1020000200030000   333400010001204104000000281Myanmar Soft-Gate Tech Yangon        MMR11004230854452445550423000000000000000   10300001F05104100000000000617000000000000     
100   95050311419479170000000000001960000000001960002000000010410404230158132813236223100423000007039310   1020000200030000   333400010001204104000000281Myanmar Soft-Gate Tech Yangon        MMR11004230158132813230423000000000000000   10300001F05104100000000000412000000000000     
100   95050320335873810000000000000980000000000980002000000010410404230756372637762668780423000007040816   1020000200030000   333400010001204104000000281Myanmar Soft-Gate Tech Yangon        MMR11004230756372637760423000000000000000   10300001F05104100000000000206000000000000     
100   62443100371022130000000000045000000000045000002000000010410404220410480013864507380422000341407430   1030000300030000   598300001209000000000000817CB BANK                SHWE TAUNG EN MMR11004220410480013860422000000000000000   10300001F00104100000000005400000000000000     
100   95050313970192050000000000006800000000006800002000000010410404231324248939005207880423446571939112   1030000500030000   555610112651104519000010846City Express MCS 34                  MMR11004231324248939000423000000000000000   10300001 00104100000000001700000000000000     
100   95030367537085740000000000000980000000000980002000000010410404231424025402735620400423000007042291   1020000200030000   333400010001204104000000281Myanmar Soft-Gate Tech Yangon        MMR11004231424025402730423000000000000000   10300001F05104100000000000206000000000000     
100   95050319996628650000000000002940000000002940002000000010410404231208013801954442020423000007041840   1020000200030000   333400010001204104000000281Myanmar Soft-Gate Tech Yangon        MMR11004231208013801950423000000000000000   10300001F05104100000000000617000000000000     
100   62911028202910850000000000005000000000005000002000000010410404231124248923805620400423567551701112   1030000500030000   555610112649104519000010844City Express MCS 20                  MMR11004231124248923800423000000000000000   10300001 00104100000000000300000000000000     
100   62443101015591650000000000240500000000240500002000000010410404231218118932236094500423595481852112   1030000300030000   555510120534104519000017433Art and T8                           MMR11004231218118932230423000000000000000   10300001 00104100000000057720000000000000     
100   62911028202318750000000000006550000000006550002000000010410404230834198895715620400423138041500112   1030000300030000   444410116809104519000014355BreadTalk CrystalTower               MMR11004230834198895710423000000000000000   10300001 00104100000000000668000000000000     
100   62443101023815100000000000012786000000012786002000000010410404231302188936908512850423183321924112   1030000500030000   555610114570104519000012532City Mart Ahlone Branc               MMR11004231302188936900423000000000000000   10300001 00104100000000003197000000000000     
100   62443101034067530000000000027150000000027150002000000010410404231541190023824576560423000746003700   1030000200030000   541188001348000008000000395KBZ BANK               OCEAN SUPERMA MMR11004231541190023820423000000000000000   10300001 00104100000000006788000000000000     
100   95050315345734110000000000001960000000001960002000000010410404230333170317096563480423000007039703   1020000200030000   333400010001204104000000281Myanmar Soft-Gate Tech Yangon        MMR11004230333170317090423000000000000000   10300001F05104100000000000412000000000000     
100   95030367537085740000000000000980000000000980002000000010410404230650102010915620400423000007040550   1020000200030000   333400010001204104000000281Myanmar Soft-Gate Tech Yangon        MMR11004230650102010910423000000000000000   10300001F05104100000000000206000000000000     
100   62911028202091860000000000000980000000000980002000000010410404230351332133295620400423000007039785   1020000200030000   333400010001204104000000281Myanmar Soft-Gate Tech Yangon        MMR11004230351332133290423000000000000000   10300001F05104100000000000206000000000000     
100   95030301100183480000000000200000000000200000002000000010410404230953242324875620400423000007041325   1030000500030000   333800010001201104000003863AYA Pay                Yangon        MMR11004230953242324870423000000000000000   10300001F05104100000000042000000000000000     
100   95030301100129110000000000300000000000300000002000000010410404230245131513215620400423000007039478   1030000200030000   333800010001203104000003327KBZPay                 Yangon        MMR11004230245131513210423000000000000000   10300001F05104100000000063000000000000000     
100   95050322220807920000000000015200000000015200002000000010410404231029160063005591770423000745990806   1030000200030000   541188001006000008000000008KBZ BANK               MARKETPLACE - MMR11004231029160063000423000000000000000   10300001 00104100000000003800000000000000     
100   95050323349421940000000000200000000000200000002000000010410404230331070107673258520423000007039691   1030000500030000   333800010001201104000003863AYA Pay                Yangon        MMR11004230331070107670423000000000000000   10300001F05104100000000042000000000000000     
100   95050320335873810000000000040000000000040000002000000010410404230243361336271095460423000007039472   1030000200030000   333800010001203104000003327KBZPay                 Yangon        MMR11004230243361336270423000000000000000   10300001F05104100000000008400000000000000     
100   95050316785465380000000000001960000000001960002000000010410404231244091409923470310423000007041961   1020000200030000   333400010001204104000000281Myanmar Soft-Gate Tech Yangon        MMR11004231244091409920423000000000000000   10300001F05104100000000000412000000000000     
100   95050319928585020000000000000980000000000980002000000010410404231200303030343129920423000007041822   1020000200030000   333400010001204104000000281Myanmar Soft-Gate Tech Yangon        MMR11004231200303030340423000000000000000   10300001F05104100000000000206000000000000     
100   62911028202138320000000000014700000000014700002000000010410404230540161016995620400423000007040257   1020000200030000   333400010001204104000000281Myanmar Soft-Gate Tech Yangon        MMR11004230540161016990423000000000000000   10300001F05104100000000003087000000000000     
100   95030367537085740000000000000980000000000980002000000010410404230438530853445620400423000007040007   1020000200030000   333400010001204104000000281Myanmar Soft-Gate Tech Yangon        MMR11004230438530853440423000000000000000   10300001F05104100000000000206000000000000     
100   62911028202169750000000000234578000000234578002000000010410404231022020308125620400423000745990550   1030000200030000   541188001041000008000000010KBZ BANK               MARKETPLACE - MMR11004231022020308120423000000000000000   10300001 00104100000000014075000000000000     
100   95050314703432410000000000005000000000005000002000000010410404230745261526247711330423000007040773   1030000200030000   3338000100012031040000040022C2P (Myanmar) Co. Ltd Yangon        MMR11004230745261526240423000000000000000   10300001F05104100000000001050000000000000     
100   95050325305150830000000000000980000000000980002000000010410404231246211621878427760423000007041968   1020000200030000   333400010001204104000000281Myanmar Soft-Gate Tech Yangon        MMR11004231246211621870423000000000000000   10300001F05104100000000000206000000000000     
100   62443100335647210000000000009000000000009000002000000010410404231130330033415754110423000007041708   1030000900030000   333300010001202104000003814Dinger                 Yangon        MMR11004231130330033410423000000000000000   10300001F05104100000000010000000000000000     
100   62911028202074950000000000007500000000007500002000000010410404231201550199975620400423000745994515   1030000200030000   541188001017000008000000008KBZ BANK               MARKETPLACE - MMR11004231201550199970423000000000000000   10300001 00104100000000000450000000000000     
100   95050317100052460000000000000980000000000980002000000010410404230857452745694916940423000007041067   1020000200030000   333400010001204104000000281Myanmar Soft-Gate Tech Yangon        MMR11004230857452745690423000000000000000   10300001F05104100000000000206000000000000     
100   62911028202803930000000000030000000000030000002000000010410404230956072607875620400423000007041338   1030000200030000   333800010001203104000003327KBZPay                 Yangon        MMR11004230956072607870423000000000000000   10300001F05104100000000006300000000000000     
100   95050320047636150000000000017500000000017500002000000010410404231049190029260895550423000746008074   1030000200030000   591288001741000008000004646KBZ BANK               PINLON PHARMA MMR11004231049190029260423000000000000000   10300001 00104100000000004200000000000000     
100   95030380157605420000000000300000000000300000002000000010410404231501383138835620400423000007042394   1030000200030000   333800010001203104000003327KBZPay                 Yangon        MMR11004231501383138830423000000000000000   10300001F05104100000000063000000000000000     
100   95050319532433550000000000030000000000030000002000000010410404231405073507631562530423000007042212   1030000200030000   333800010001203104000003327KBZPay                 Yangon        MMR11004231405073507630423000000000000000   10300001F05104100000000006300000000000000     
100   95050316736513170000000000002000000000002000002000000010410404230907373737392924070423000007041110   1030000200030000   333800010001203104000003327KBZPay                 Yangon        MMR11004230907373737390423000000000000000   10300001F05104100000000000420000000000000     
100   95050319111666800000000000000980000000000980002000000010410404222310034003107208600423000007039015   1020000200030000   333400010001204104000000281Myanmar Soft-Gate Tech Yangon        MMR11004222310034003100423000000000000000   10300001F05104100000000000206000000000000     
100   95030319588829360000000000077250000000077250002000000010410404230539143082845620400423007091214112   1030000900030000   541119001222190110000000945City Mart TM C 7       YANGONONE     MMR11004230539143082840423000000000000000   10300001F00104100000000004635000000000000     
100   62911028202803930000000000025200000000025200002000000010410404230835213117345620400423421051521112   1030000900030000   541119001247190110000000955City Mart JS C 6       YANGONUT      MMR11004230835213117340423000000000000000   10300001F00104100000000001512000000000000     
100   95030391376131630000000000010000000000010000002000000010410404231216064606775620400423000007041865   1030000200030000   333800010001203104000003327KBZPay                 Yangon        MMR11004231216064606770423000000000000000   10300001F05104100000000002100000000000000     
100   95030380157605420000000000300000000000300000002000000010410404231416134613465620400423000007042252   1030000200030000   333800010001203104000003327KBZPay                 Yangon        MMR11004231416134613460423000000000000000   10300001F05104100000000063000000000000000     
100   95030301100102610000000000020000000000020000002000000010410404230500593059165620400423000007040102   1030000200030000   333800010001203104000003327KBZPay                 Yangon        MMR11004230500593059160423000000000000000   10300001F05104100000000004200000000000000     
100   62443100307500000000000000102450000000102450002000000010410404230532563081417675680423914021256112   1030000900030000   541119001325190110000000971Ocean Junction NPT C 3 NAYPYITAW     MMR11004230532563081410423000000000000000   10300001F00104100000000025613000000000000     
100   95030301100120440000000000053200000000053200002000000010410404230903223123455620400423887331522112   1030000900030000   541119001208190110000000948City Mart YK C 6       YANGONAUNG    MMR11004230903223123450423000000000000000   10300001F00104100000000003192000000000000     
100   62911028202464100000000000001200000000001200002000000010410404231322008938795620400423412541954112   1030000500030000   555610120983104519000017746City Express MCS 109                 MMR11004231322008938790423000000000000000   10300001 00104100000000000072000000000000     
100   62443100323428970000000000087287000000087287002000000010410404230513478868661321030423881501101112   1030000500030000   555610118960104519000016137City Mart South Okkala WZYD BR       MMR11004230513478868660423000000000000000   10300001 00104100000000021822000000000000     
