100   62911028202169750000000000012600000000012600002000000010410404220946338794145620400422273171624111   1030000500030000   555610118958104519000016137City Mart South Okkala WZYD BR       MMR11004220946338794140422000000000000000   10300001 00104100000000000756000000000000     
100   62911028202492080000000000014500000000014500002000000010410404220546458763684420910422604161228111   1030000300030000   555510120538104519000017437Art and T8                           MMR11004220546458763680422000000000000000   10300001 00104100000000000870000000000000     
100   95030367537085740000000000000980000000000980002000000010410404220624035403194645910422000007035435   1020000200030000   333400010001204104000000281Myanmar Soft-Gate Tech Yangon        MMR11004220624035403190422000000000000000   10300001F05104100000000000206000000000000     
100   62911028202291190000000000032716000000032716002000000010410404220716108775564969310422031471352111   1030000500030000   555610112235104519000010487Ocean Super Center St  ohn           MMR11004220716108775560422000000000000000   10300001 00104100000000001963000000000000     
100   95050316949180000000000000008000000000008000002000000010410404220326345634125394000422000007033983   1030000200030000   333800010001203104000003327KBZPay                 Yangon        MMR11004220326345634120422000000000000000   10300001F05104100000000001680000000000000     
100   62911028202509170000000000030000000000030000002000000010410404211233230024286872300421211119002428   1030000500030000   598320002702000015172200027MAX ENERGY             PTN           MMR11004211233230024280421000000000000000   10300001 00104100000000000900000000000000     
100   62911028202248050000000000030000000000030000002000000010410404201041310305355510700420211010030535   1030000600030000   554100001155315799420000607DENKO NPT 1            NAYPYITAW.    MMR11004201041310305350420000000000000000   10300001 00104100000000000900000000000000     
100   95050311876202380000000000040000000000040000002000000010410404201043390351160005350420211010035116   1030000600030000   554100001865315799420001235DENKO NAY PYI TAW 2    NAYPYITAW     MMR11004201043390351160420000000000000000   10300001 00104100000000004800000000000000     
100   95050320360851930000000000000980000000000980002000000010410404220533550355567933100422000007035066   1020000200030000   333400010001204104000000281Myanmar Soft-Gate Tech Yangon        MMR11004220533550355560422000000000000000   10300001F05104100000000000206000000000000     
100   95050318267399100000000000001960000000001960002000000010410404220737270727268619590422000007035995   1020000200030000   333400010001204104000000281Myanmar Soft-Gate Tech Yangon        MMR11004220737270727260422000000000000000   10300001F05104100000000000412000000000000     
100   95050311419479170000000000000980000000000980002000000010410404220848361836285265180422000007036612   1020000200030000   333400010001204104000000281Myanmar Soft-Gate Tech Yangon        MMR11004220848361836280422000000000000000   10300001F05104100000000000206000000000000     
100   95030302100067550000000000056050000000056050002000000010410404220425562856103954510422464551056111   1030000900030000   591219000694190110000000525Shwe Ohh Pharmacy ST-2 YANGONAW      MMR11004220425562856100422000000000000000   10300001F00104100000000003363000000000000     
100   95050315099113150000000000004900000000004900002000000010410404221438310831908861090422000007038378   1020000200030000   333400010001204104000000281Myanmar Soft-Gate Tech Yangon        MMR11004221438310831900422000000000000000   10300001F05104100000000001029000000000000     
100   95050327192897240000000000000980000000000980002000000010410404220540511051312550170422000007035117   1020000200030000   333400010001204104000000281Myanmar Soft-Gate Tech Yangon        MMR11004220540511051310422000000000000000   10300001F05104100000000000206000000000000     
100   95050316785465380000000000000980000000000980002000000010410404220253042304241422050422000007033687   1020000200030000   333400010001204104000000281Myanmar Soft-Gate Tech Yangon        MMR11004220253042304240422000000000000000   10300001F05104100000000000206000000000000     
100   95050311121153200000000000001960000000001960002000000010410404220145131513166039120422000007033316   1020000200030000   333400010001204104000000281Myanmar Soft-Gate Tech Yangon        MMR11004220145131513160422000000000000000   10300001F05104100000000000412000000000000     
100   62911028202684060000000000076400000000076400002000000010410404220546592875644440800422538161259111   1030000900030000   591219000899190110000000708Shwe Ohh Pharmacy St 3 YANGONONE     MMR11004220546592875640422000000000000000   10300001F00104100000000004584000000000000     
100   95050315615561720000000000000980000000000980002000000010410404220935260526799322230422000007036954   1020000200030000   333400010001204104000000281Myanmar Soft-Gate Tech Yangon        MMR11004220935260526790422000000000000000   10300001F05104100000000000206000000000000     
100   95050311926829590000000000000980000000000980002000000010410404211749431943273790960422000007032838   1020000200030000   333400010001204104000000281Myanmar Soft-Gate Tech Yangon        MMR11004211749431943270422000000000000000   10300001F05104100000000000206000000000000     
100   95050310397364970000000000000980000000000980002000000010410404221551032103192166050422000007038613   1020000200030000   333400010001204104000000281Myanmar Soft-Gate Tech Yangon        MMR11004221551032103190422000000000000000   10300001F05104100000000000206000000000000     
100   95050319161596230000000000000980000000000980002000000010410404220357142714232940000422000007034284   1020000200030000   333400010001204104000000281Myanmar Soft-Gate Tech Yangon        MMR11004220357142714230422000000000000000   10300001F05104100000000000206000000000000     
100   95050318646071770000000000000980000000000980002000000010410404220733110311857307490422000007035961   1020000200030000   333400010001204104000000281Myanmar Soft-Gate Tech Yangon        MMR11004220733110311850422000000000000000   10300001F05104100000000000206000000000000     
100   95050325305150830000000000000980000000000980002000000010410404211758012801482138480422000007032845   1020000200030000   333400010001204104000000281Myanmar Soft-Gate Tech Yangon        MMR11004211758012801480422000000000000000   10300001F05104100000000000206000000000000     
100   95050315158357300000000000000980000000000980002000000010410404220335070507781748650422000007034062   1020000200030000   333400010001204104000000281Myanmar Soft-Gate Tech Yangon        MMR11004220335070507780422000000000000000   10300001F05104100000000000206000000000000     
100   95050318741700180000000000002940000000002940002000000010410404221539550955693818540422000007038576   1020000200030000   333400010001204104000000281Myanmar Soft-Gate Tech Yangon        MMR11004221539550955690422000000000000000   10300001F05104100000000000617000000000000     
100   95050312498129060000000000000980000000000980002000000010410404221347591759105471020422000007038184   1020000200030000   333400010001204104000000281Myanmar Soft-Gate Tech Yangon        MMR11004221347591759100422000000000000000   10300001F05104100000000000206000000000000     
100   95050318694773110000000000050000000000050000002000000010410404220846051605240137530422000007036585   1030000200030000   3338000100012031040000040022C2P (Myanmar) Co. Ltd Yangon        MMR11004220846051605240422000000000000000   10300001F05104100000000010500000000000000     
100   95050316812885810000000000000980000000000980002000000010410404220034560456043620770422000007033076   1020000200030000   333400010001204104000000281Myanmar Soft-Gate Tech Yangon        MMR11004220034560456040422000000000000000   10300001F05104100000000000206000000000000     
100   62911028202446700000000000005000000000005000002000000010410404220836270627285440300422000007036516   1030000200030000   333800010001203104000003327KBZPay                 Yangon        MMR11004220836270627280422000000000000000   10300001F05104100000000001050000000000000     
100   95050319928585020000000000001960000000001960002000000010410404220258032803989854670422000007033717   1020000200030000   333400010001204104000000281Myanmar Soft-Gate Tech Yangon        MMR11004220258032803980422000000000000000   10300001F05104100000000000412000000000000     
100   95050311382087030000000000005000000000005000002000000010410404221243261326648946180422000007037942   1030000200030000   3338000100012031040000040022C2P (Myanmar) Co. Ltd Yangon        MMR11004221243261326640422000000000000000   10300001F05104100000000001050000000000000     
100   95050314557307430000000000001960000000001960002000000010410404220156232623387776700422000007033373   1020000200030000   333400010001204104000000281Myanmar Soft-Gate Tech Yangon        MMR11004220156232623380422000000000000000   10300001F05104100000000000412000000000000     
100   95050318242219520000000000000980000000000980002000000010410404221405283528138775990422000007038241   1020000200030000   333400010001204104000000281Myanmar Soft-Gate Tech Yangon        MMR11004221405283528130422000000000000000   10300001F05104100000000000206000000000000     
100   95050312498129060000000000002940000000002940002000000010410404221118534853540173190422000007037594   1020000200030000   333400010001204104000000281Myanmar Soft-Gate Tech Yangon        MMR11004221118534853540422000000000000000   10300001F05104100000000000617000000000000     
100   95050312498129060000000000000980000000000980002000000010410404221317444744777038410422000007038058   1020000200030000   333400010001204104000000281Myanmar Soft-Gate Tech Yangon        MMR11004221317444744770422000000000000000   10300001F05104100000000000206000000000000     
100   62443100379321630000000000129678000000129678002000000010410404221211182968755045540422818411818111   1030000900030000   581219000371190110000000243Jo Jo Hot Pot (Junctio YANGONN       MMR11004221211182968750422000000000000000   10300001F00104100000000055113000000000000     
100   95050316818236190000000000001960000000001960002000000010410404220816564656504839690422000007036364   1020000200030000   333400010001204104000000281Myanmar Soft-Gate Tech Yangon        MMR11004220816564656500422000000000000000   10300001F05104100000000000412000000000000     
100   95050311419479170000000000001960000000001960002000000010410404220508043804597337430422000007034859   1020000200030000   333400010001204104000000281Myanmar Soft-Gate Tech Yangon        MMR11004220508043804590422000000000000000   10300001F05104100000000000412000000000000     
100   95050328275983620000000000009000000000009000002000000010410404221600313031153903640422000007038642   1030000900030000   333300010001202104000003814Dinger                 Yangon        MMR11004221600313031150422000000000000000   10300001F05104100000000010000000000000000     
100   95050316818236190000000000002940000000002940002000000010410404220713114311074889140422000007035805   1020000200030000   333400010001204104000000281Myanmar Soft-Gate Tech Yangon        MMR11004220713114311070422000000000000000   10300001F05104100000000000617000000000000     
100   62911028202291270000000000014450000000014450002000000010410404220837312916965464000422787071531111   1030000900030000   541119000141190110000000083SeinGayHarParami Cente YANGON        MMR11004220837312916960422000000000000000   10300001F00104100000000000867000000000000     
100   95050313710136610000000000009500000000009500002000000010410404220914352925813953080422242441535111   1030000900030000   541119001462190110000000077Sein Gay Har Chinatown YANGON        MMR11004220914352925810422000000000000000   10300001F00104100000000002375000000000000     
100   95050323133124350000000000047500000000047500002000000010410404220513394339480727490422000007034906   1030000200030000   333800010001203104000003327KBZPay                 Yangon        MMR11004220513394339480422000000000000000   10300001F05104100000000009975000000000000     
100   95050311739830950000000000036850000000036850002000000010410404221026074740816357640422211217474081   1040001600030000   591220000277000000010000265Shwe Ohh Pharmacy (Thu Yangon        MMR11004221026074740810422000000000000000   10300001F00104100000000008844000000000000     
100   62443100363668680000000000066150000000066150002000000010410404221139524805898690890422211218480589   1040001600030000   591220000282000000010000270Shwe Ohh Pharmacy (Shw Yangon        MMR11004221139524805890422000000000000000   10300001F00104100000000015876000000000000     
100   95050315158357300000000000002940000000002940002000000010410404221108103810411315090422000007037534   1020000200030000   333400010001204104000000281Myanmar Soft-Gate Tech Yangon        MMR11004221108103810410422000000000000000   10300001F05104100000000000617000000000000     
100   62911028202264530000000000016850000000016850002000000010410404220428034550743948410422211211455074   1040001600030000   591220000292000000010000280Shwe Ohh Pharmacy (Cha Yangon        MMR11004220428034550740422000000000000000   10300001F00104100000000001011000000000000     
100   62911028202045180000000000010100000000010100002000000010410404221127035703415620400422000007037625   1030000200030000   333800010001203104000003327KBZPay                 Yangon        MMR11004221127035703410422000000000000000   10300001F05104100000000002121000000000000     
100   95050312498129060000000000001960000000001960002000000010410404221410224022450513570422000007038268   1020000200030000   333400010001204104000000281Myanmar Soft-Gate Tech Yangon        MMR11004221410224022450422000000000000000   10300001F05104100000000000412000000000000     
100   95050316638224720000000000002940000000002940002000000010410404221006293629390889610422000007037196   1020000200030000   333400010001204104000000281Myanmar Soft-Gate Tech Yangon        MMR11004221006293629390422000000000000000   10300001F05104100000000000617000000000000     
100   62911028202112400000000000020000000000020000002000000010410404220632344619894695500422211213461989   1040001600030000   598320000658000000010000527Shwe Taung Energy (YGN Yangon        MMR11004220632344619890422000000000000000   10300001F00104100000000000600000000000000     
100   95050319204938440000000000005000000000005000002000000010410404220326065606510351460422000007033972   1030000200030000   333800010001203104000003327KBZPay                 Yangon        MMR11004220326065606510422000000000000000   10300001F05104100000000001050000000000000     
100   95050314570621780000000000000980000000000980002000000010410404220809293929302931930422000007036298   1020000200030000   333400010001204104000000281Myanmar Soft-Gate Tech Yangon        MMR11004220809293929300422000000000000000   10300001F05104100000000000206000000000000     
100   62443100313112320000000000088000000000088000002000000010410404221216244840925130640422211219484092   1040001600030000   598320000658000000010000527Shwe Taung Energy (YGN Yangon        MMR11004221216244840920422000000000000000   10300001F00104100000000010560000000000000     
100   62443100350052510000000000003300000000003300002000000010410404220404583458309720130422000007034340   1030000200030000   333300010001203104000003632Myanmar Tradenet Test  Yangon        MMR11004220404583458300422000000000000000   10300001F05104100000000010000000000000000     
100   62911028202677390000000000050000000000050000002000000010410404220954544717715620400422211216471771   1040001600030000   598320000310000000010000298PT Power Petrol Statio Yangon        MMR11004220954544717710422000000000000000   10300001F00104100000000001500000000000000     
100   95050312498129060000000000000980000000000980002000000010410404221320135013275385930422000007038070   1020000200030000   333400010001204104000000281Myanmar Soft-Gate Tech Yangon        MMR11004221320135013270422000000000000000   10300001F05104100000000000206000000000000     
100   95030302100015820000000000007400000000007400002000000010410404220716422896564979210422670461342111   1030000900030000   541119000285190110000000177Pro1 Global (Insein)   YANGON        MMR11004220716422896560422000000000000000   10300001F00104100000000000444000000000000     
100   95050311780044340000000000004900000000004900002000000010410404221307553755562421340422000007038016   1020000200030000   333400010001204104000000281Myanmar Soft-Gate Tech Yangon        MMR11004221307553755560422000000000000000   10300001F05104100000000001029000000000000     
100   95050318057347910000000000000980000000000980002000000010410404220817574757788314850422000007036374   1020000200030000   333400010001204104000000281Myanmar Soft-Gate Tech Yangon        MMR11004220817574757780422000000000000000   10300001F05104100000000000206000000000000     
100   95050313702988830000000000002940000000002940002000000010410404220528425842122890550422000007035033   1020000200030000   333400010001204104000000281Myanmar Soft-Gate Tech Yangon        MMR11004220528425842120422000000000000000   10300001F05104100000000000617000000000000     
100   62911028202809060000000000083500000000083500002000000010410404220245394507463334000422211209450746   1040001600030000   591220000271000000010000259Shwe Ohh Pharmacy (Gwa Yangon        MMR11004220245394507460422000000000000000   10300001F00104100000000005010000000000000     
100   95050314557307430000000000002940000000002940002000000010410404220229045904197521410422000007033535   1020000200030000   333400010001204104000000281Myanmar Soft-Gate Tech Yangon        MMR11004220229045904190422000000000000000   10300001F05104100000000000617000000000000     
100   95030301100128040000000000017100000000017100002000000010410404220916142926235696210422267461514111   1030000900030000   541119001206190110000000948City Mart YK C 4       YANGONAUNG    MMR11004220916142926230422000000000000000   10300001F00104100000000001026000000000000     
100   95050319161596230000000000000980000000000980002000000010410404220505003500652379980422000007034834   1020000200030000   333400010001204104000000281Myanmar Soft-Gate Tech Yangon        MMR11004220505003500650422000000000000000   10300001F05104100000000000206000000000000     
100   95050317376014640000000000001960000000001960002000000010410404220115004500592053380422000007033184   1020000200030000   333400010001204104000000281Myanmar Soft-Gate Tech Yangon        MMR11004220115004500590422000000000000000   10300001F05104100000000000412000000000000     
100   95050319928585020000000000001960000000001960002000000010410404220314304430288542570422000007033865   1020000200030000   333400010001204104000000281Myanmar Soft-Gate Tech Yangon        MMR11004220314304430280422000000000000000   10300001F05104100000000000412000000000000     
100   95050315344668630000000000016800000000016800002000000010410404220923282928110648110422361531528111   1030000900030000   541119000115190110000000078Sein Gay Har Kan Thar  YANGONOKKALAP MMR11004220923282928110422000000000000000   10300001F00104100000000004200000000000000     
100   95050314557307430000000000002940000000002940002000000010410404220311244124629684470422000007033848   1020000200030000   333400010001204104000000281Myanmar Soft-Gate Tech Yangon        MMR11004220311244124620422000000000000000   10300001F05104100000000000617000000000000     
100   62911028202150190000000000043000000000043000002000000010410404220749014655815154210422211214465581   1040001600030000   599920000237000000010000225Tyre 78                Yangon        MMR11004220749014655810422000000000000000   10300001F00104100000000002580000000000000     
100   95050313710136610000000000030500000000030500002000000010410404220934062930757669740422509041606111   1030000900030000   541119000113190110000000077Sein Gay Har Chinatown YANGON        MMR11004220934062930750422000000000000000   10300001F00104100000000007625000000000000     
100   95050311736839760000000000000980000000000980002000000010410404221400103010760428480422000007038222   1020000200030000   333400010001204104000000281Myanmar Soft-Gate Tech Yangon        MMR11004221400103010760422000000000000000   10300001F05104100000000000206000000000000     
100   62911028202169750000000000021000000000021000002000000010410404221016094733005620400422211217473300   1040001600030000   598320000838000000010000600Regency Petrol Station Ygn           MMR11004221016094733000422000000000000000   10300001F00104100000000000630000000000000     
100   95050319156544340000000000045000000000045000002000000010410404221019594959593052670422000007037274   1030000200030000   333800010001203104000003327KBZPay                 Yangon        MMR11004221019594959590422000000000000000   10300001F05104100000000009450000000000000     
100   95050313957225860000000000300000000000300000002000000010410404221229175917037293700422000007037872   1030000200030000   333800010001203104000003327KBZPay                 Yangon        MMR11004221229175917030422000000000000000   10300001F05104100000000063000000000000000     
100   62911028202695600000000000003750000000003750002000000010410404221124212959345620400422244541721111   1030000900030000   541119001195190110000000942City Mart HDC C 10     YANGONUT      MMR11004221124212959340422000000000000000   10300001F00104100000000000225000000000000     
100   95050319928585020000000000002940000000002940002000000010410404220301443144733244730422000007033746   1020000200030000   333400010001204104000000281Myanmar Soft-Gate Tech Yangon        MMR11004220301443144730422000000000000000   10300001F05104100000000000617000000000000     
100   95050312224678430000000000004900000000004900002000000010410404220420075007713535670422000007034461   1020000200030000   333400010001204104000000281Myanmar Soft-Gate Tech Yangon        MMR11004220420075007710422000000000000000   10300001F05104100000000001029000000000000     
100   62911028202446700000000000300000000000300000002000000010410404220405543554283816910422000007034350   1030000500030000   333800010001201104000003863AYA Pay                Yangon        MMR11004220405543554280422000000000000000   10300001F05104100000000063000000000000000     
100   95050316215826630000000000030000000000030000002000000010410404220617234723696286340422000007035375   1030000200030000   333800010001203104000003327KBZPay                 Yangon        MMR11004220617234723690422000000000000000   10300001F05104100000000006300000000000000     
100   62911028202196800000000000040000000000040000002000000010410404221030104744065620400422211217474406   1040001600030000   598320000838000000010000600Regency Petrol Station Ygn           MMR11004221030104744060422000000000000000   10300001F00104100000000001200000000000000     
100   95050311382087030000000000000980000000000980002000000010410404221020515051091400190422000007037283   1020000200030000   333400010001204104000000281Myanmar Soft-Gate Tech Yangon        MMR11004221020515051090422000000000000000   10300001F05104100000000000206000000000000     
100   95030301100128610000000000171500000000171500002000000010410404210414120002673876900421211110000267   1030000500030000   481220074501000014812200745TECHNOLAND (36TH ST)   PTN           MMR11004210414120002670421000000000000000   10300001 00104100000000010290000000000000     
100   95050328074436620000000000023100000000023100002000000010410404211043110025199223340421211117002519   1030000500030000   598320001204000015172200012MAX ENERGY             PTN           MMR11004211043110025190421000000000000000   10300001 00104100000000002772000000000000     
100   95050315110306410000000000001000000000001000002000000010410404212346041604277181020422000007032998   1030000200030000   333800010001203104000003327KBZPay                 Yangon        MMR11004212346041604270422000000000000000   10300001F05104100000000000210000000000000     
100   95030367537085740000000000001960000000001960002000000010410404220757542754155208910422000007036197   1020000200030000   333400010001204104000000281Myanmar Soft-Gate Tech Yangon        MMR11004220757542754150422000000000000000   10300001F05104100000000000412000000000000     
100   95030325264619140000000000018350000000018350002000000010410404220326178748343583700422032560956111   1030000300030000   555510125330104519000021173One Stop Mart Shopping Mall 0003     MMR11004220326178748340422000000000000000   10300001 00104100000000001101000000000000     
100   95050328212196190000000000082500000000082500002000000010410404220537388762279585590422443071231111   1030000300030000   555510124693104519000020166Makro Myanmar                        MMR11004220537388762270422000000000000000   10300001 00104100000000019800000000000000     
100   95050319111666800000000000000980000000000980002000000010410404221325125512827123510422000007038088   1020000200030000   333400010001204104000000281Myanmar Soft-Gate Tech Yangon        MMR11004221325125512820422000000000000000   10300001F05104100000000000206000000000000     
100   62911028202291190000000000020950000000020950002000000010410404220656188773544871110422795311330111   1030000500030000   555610112249104519000010487Ocean Super Center St  ohn           MMR11004220656188773540422000000000000000   10300001 00104100000000001257000000000000     
100   62911028202471600000000000006100000000006100002000000010410404220526248761054308310422309571143111   1030000500030000   555610110570104519000009164City Mart China Town P int Cen       MMR11004220526248761050422000000000000000   10300001 00104100000000000366000000000000     
100   62911028202261230000000000077800000000077800002000000010410404220633348769864703210422347031332111   1030000300030000   555510124364104519000020166Makro Myanmar                        MMR11004220633348769860422000000000000000   10300001 00104100000000004668000000000000     
100   62911028202449440000000000055000000000055000002000000010410404210356100000233769000421211110000023   1030000500030000   598320001201000015172200012MAX ENERGY             PTN           MMR11004210356100000230421000000000000000   10300001 00104100000000001650000000000000     
100   95030308100042590000000000001200000000001200002000000010410404220327568748453591700422042580916111   1030000500030000   555610104036104519000003821City Mart North Point  enter         MMR11004220327568748450422000000000000000   10300001 00104100000000000072000000000000     
100   62911028202284260000000000007000000000007000002000000010410404221145338810435620400422294201820111   1030000300030000   555610103755104519000003631G and G Convenience St re 72         MMR11004221145338810430422000000000000000   10300001 00104100000000000420000000000000     
100   62911028202170490000000000020000000000020000002000000010410404210139120042485510700421211108004248   1030000500030000   598320001403000015172200014MAX ENERGY             PTN           MMR11004210139120042480421000000000000000   10300001 00104100000000000600000000000000     
100   95030301100128610000000000022000000000022000002000000010410404210413430002663874000421211110000266   1030000500030000   481220074501000014812200745TECHNOLAND (36TH ST)   PTN           MMR11004210413430002660421000000000000000   10300001 00104100000000001320000000000000     
100   95050329720609600000000000410722000000410722002000000010410404210708590000096288700421211113000009   1030000500030000   421420098901022504214200989DHL (LANMADAW)         PTN           MMR11004210708590000090421000000000000000   10300001 00104100000000098573000000000000     
100   62911028202615340000000000001750000000001750002000000010410404210840580007875477700421211115000787   1030000500030000   541120182201000045411201822EASY MART-005          PTN           MMR11004210840580007870421000000000000000   10300001 00104100000000000105000000000000     
100   95030306100081790000000000029000000000029000002000000010410404210511470000024222400421211111000002   1030000500030000   806220022601000018062200226DR.Z                   PTN           MMR11004210511470000020421000000000000000   10300001 00104100000000001740000000000000     
100   62911028202341350000000000010500000000010500002000000010410404210334220000103637900421211110000010   1030000500030000   541120020601022205411200206ORANGE (NOKL)          PTN           MMR11004210334220000100421000000000000000   10300001 00104100000000000630000000000000     
100   62443100363668680000000000019500000000019500002000000010410404211217150000158762200421211118000015   1030000500030000   581220041801000055812200418SHWE LAR HOT POT       PTN           MMR11004211217150000150421000000000000000   10300001 00104100000000008288000000000000     
100   62911028202318750000000000037000000000037000002000000010410404210929440034555770100421211115003455   1030000500030000   598320001001000015172200010MAX ENERGY             PTN           MMR11004210929440034550421000000000000000   10300001 00104100000000001110000000000000     
100   62911028202907560000000000035200000000035200002000000010410404220249038745703380500422762230903111   1030000500030000   555610112240104519000010487Ocean Super Center St  ohn           MMR11004220249038745700422000000000000000   10300001 00104100000000002112000000000000     
100   95030310098554020000000000020600000000020600002000000010410404220645388771554782510422555161344111   1030000300030000   444410120049104519000017043YKKO St John                         MMR11004220645388771550422000000000000000   10300001 00104100000000002101000000000000     
100   62911028202471600000000000022800000000022800002000000010410404220506428759064198700422109391126111   1030000500030000   555610110572104519000009164City Mart China Town P int Cen       MMR11004220506428759060422000000000000000   10300001 00104100000000001368000000000000     
100   62911028202523350000000000047294000000047294002000000010410404220509248759934243600422202461155111   1030000500030000   888810109465104519000008484Max Energy CoLtd 1                   MMR11004220509248759930422000000000000000   10300001 00104100000000001419000000000000     
100   62443100300743690000000000033300000000033300002000000010410404221149498810499917900422302201848111   1030000500030000   555610110597104519000009166City Mart 47 Branch                  MMR11004221149498810490422000000000000000   10300001 00104100000000008325000000000000     
100   95050313970192050000000000007300000000007300002000000010410404221252008817564073830422135241940111   1030000500030000   555610112651104519000010846City Express MCS 34                  MMR11004221252008817560422000000000000000   10300001 00104100000000001825000000000000     
100   95030367537085740000000000000980000000000980002000000010410404221208333833705620400422000007037807   1020000200030000   333400010001204104000000281Myanmar Soft-Gate Tech Yangon        MMR11004221208333833700422000000000000000   10300001F05104100000000000206000000000000     
100   95050327192897240000000000000980000000000980002000000010410404220538440844114202650422000007035100   1020000200030000   333400010001204104000000281Myanmar Soft-Gate Tech Yangon        MMR11004220538440844110422000000000000000   10300001F05104100000000000206000000000000     
100   95050313843656520000000000016050000000016050002000000010410404211209260000857109720421211118000085   1030000500030000   581220024401000015812200244SHWE LAR HOT POT       PTN           MMR11004211209260000850421000000000000000   10300001 00104100000000006822000000000000     
100   62911028202197550000000000050000000000050000002000000010410404210752260002165186310421211114000216   1030000500030000   598320001901000015172200019MAX ENERGY             PTN           MMR11004210752260002160421000000000000000   10300001 00104100000000001500000000000000     
100   95030301100425040000000000008700000000008700002000000010410404210530500019894324610421211105001989   1030000600030000   597700001923315799420001293NATURE REPUBLIC JTC    PABEDAN       MMR11004210530500019890421000000000000000   10300001 00104100000000000522000000000000     
100   95030308100042590000000000102100000000102100002000000010410404210603400021094522110421000341257111   1030000300030000   581400000692000000000000478CB BANK                KFC PARAMI SG MMR11004210603400021090421000000000000000   10300001F00104100000000003063000000000000     
100   95050326228858240000000000115500000000115500002000000010410404210751380000024891500421211114000002   1030000500030000   581220120601000055812201206THE SUSHI BAR          PTN           MMR11004210751380000020421000000000000000   10300001 00104100000000049088000000000000     
100   62911028202197550000000000040900000000040900002000000010410404210439160000104027500421211111000010   1030000500030000   591220132901008605912201329THEIK DI WIN SHOP      PTN           MMR11004210439160000100421000000000000000   10300001 00104100000000002454000000000000     
100   62911028202285170000000000025000000000025000002000000010410404210712010000514943810421211113000051   1030000500030000   569120116101000015691201161AMERICAN COLLECTION (H PTN           MMR11004210712010000510421000000000000000   10300001 00104100000000001500000000000000     
100   62443100371022130000000000039000000000039000002000000010410404211058010001362613400421211117000136   1030000500030000   598320001202000015172200012MAX ENERGY             PTN           MMR11004211058010001360421000000000000000   10300001 00104100000000004680000000000000     
100   95050316601084530000000000001960000000001960002000000010410404220425195519326500260422000007034508   1020000200030000   333400010001204104000000281Myanmar Soft-Gate Tech Yangon        MMR11004220425195519320422000000000000000   10300001F05104100000000000412000000000000     
100   95050310332595380000000000004900000000004900002000000010410404220123055305627095930422000007033217   1020000200030000   333400010001204104000000281Myanmar Soft-Gate Tech Yangon        MMR11004220123055305620422000000000000000   10300001F05104100000000001029000000000000     
100   95030310098554020000000000043600000000043600002000000010410404220821298782925353100422953511450111   1030000300030000   444410125393104519000021220Myanmar Bakery CoLtd                 MMR11004220821298782920422000000000000000   10300001 00104100000000004447000000000000     
100   62911028202525660000000000017400000000017400002000000010410404220906518788855622700422664361546111   1030000500030000   555610118968104519000016137City Mart South Okkala WZYD BR       MMR11004220906518788850422000000000000000   10300001 00104100000000001044000000000000     
100   62911028202212230000000000004400000000004400002000000010410404220529418761724340400422384031203111   1030000500030000   555610110572104519000009164City Mart China Town P int Cen       MMR11004220529418761720422000000000000000   10300001 00104100000000000264000000000000     
100   62443101023815100000000000028000000000028000002000000010410404221215458813516783120422648461804111   1030000500030000   555610114570104519000012532City Mart Ahlone Branc               MMR11004221215458813510422000000000000000   10300001 00104100000000007000000000000000     
100   62911028202910850000000000000950000000000950002000000010410404221230018817135620400422103191959111   1030000500030000   555610119280104519000016348City Express MCS 45                  MMR11004221230018817130422000000000000000   10300001 00104100000000000057000000000000     
100   62911028202290100000000000149350000000149350002000000010410404220720588775994989700422083511316111   1030000300030000   555510124692104519000020166Makro Myanmar                        MMR11004220720588775990422000000000000000   10300001 00104100000000008961000000000000     
100   95050329252108030000000000017250000000017250002000000010410404211515330006986939530421000341325197   1030000300030000   541100001027000000000000724CB BANK                ONE STOP MART MMR11004211515330006980421000000000000000   10300001F00104100000000004313000000000000     
100   62911028202169750000000000065000000000065000002000000010410404210611370000374581400421211112000037   1030000500030000   503920036610000015039200366PRO-1 HOME CENTER      PTN           MMR11004210611370000370421000000000000000   10300001 00104100000000003900000000000000     
100   95050326094581320000000000026010000000026010002000000010410404211110400000327996330421211117000032   1030000500030000   541120020601022205411200206ORANGE (NOKL)          PTN           MMR11004211110400000320421000000000000000   10300001 00104100000000006503000000000000     
100   62911028202172130000000000030000000000030000002000000010410404210606190000024549610421211112000002   1030000500030000   598320001604000015172200016MAX ENERGY             PTN           MMR11004210606190000020421000000000000000   10300001 00104100000000000900000000000000     
100   62911028202154800000000000050000000000050000002000000010410404211021560000115758200421211116000011   1030000500030000   598320101301005405983201013PT POWER (NPT)         PTN           MMR11004211021560000110421000000000000000   10300001 00104100000000001500000000000000     
100   95050320205194540000000000105350000000105350002000000010410404211014560000339478630421211116000033   1030000500030000   591220014201014405912200142SHWE OHH PHARMACY      PTN           MMR11004211014560000330421000000000000000   10300001 00104100000000025284000000000000     
100   95030325264619140000000000030000000000030000002000000010410404210317390025453537610421211109002545   1030000500030000   598320001602000015172200016MAX ENERGY             PTN           MMR11004210317390025450421000000000000000   10300001 00104100000000000900000000000000     
100   62443100333488440000000000080000000000080000002000000010410404210319530006822700860421211103000682   1030000600030000   554100000523315799420000140DENKO BAHAN MINIMART   YANGON        MMR11004210319530006820421000000000000000   10300001 00104100000000009600000000000000     
100   62911028202803930000000000015100000000015100002000000010410404211239380005516910400421211119000551   1030000500030000   581220021001000015812200210SHWE LAR HOT POT       PTN           MMR11004211239380005510421000000000000000   10300001 00104100000000001540000000000000     
100   62443100333488440000000000100100000000100100002000000010410404210326210113198339080421211103011319   1030000600030000   554100002085315799420000471DENKO BAHAN            YANGON        MMR11004210326210113190421000000000000000   10300001 00104100000000012012000000000000     
100   62911028202133940000000000036200000000036200002000000010410404221233558815615620400422932041916111   1030000500030000   555610112988104519000011143Market Place by City M rt Sule       MMR11004221233558815610422000000000000000   10300001 00104100000000002172000000000000     
100   95030302100067550000000000070489000000070489002000000010410404220404508752013821410422377361034111   1030000500030000   555610114573104519000012532City Mart Ahlone Branc               MMR11004220404508752010422000000000000000   10300001 00104100000000004229000000000000     
100   95030308100042590000000000008000000000008000002000000010410404220326168748303583010422028560947111   1030000500030000   555610108844104519000003821City Mart North Point  enter         MMR11004220326168748300422000000000000000   10300001 00104100000000000480000000000000     
100   62911028202463780000000000020400000000020400002000000010410404220827378783935403510422077001515111   1030000500030000   555610110576104519000009164City Mart China Town P int Cen       MMR11004220827378783930422000000000000000   10300001 00104100000000001224000000000000     
100   95030302100067550000000000002600000000002600002000000010410404220428552856663972310422497581055111   1030000900030000   591219000694190110000000525Shwe Ohh Pharmacy ST-2 YANGONAW      MMR11004220428552856660422000000000000000   10300001F00104100000000000156000000000000     
100   62443100330048680000000000023000000000023000002000000010410404210556470037698501200421211112003769   1030000500030000   598320001302000015172200013MAX ENERGY             PTN           MMR11004210556470037690421000000000000000   10300001 00104100000000002760000000000000     
100   95050329632900220000000000050000000000050000002000000010410404210229140037262360480421211108003726   1030000500030000   598320001302000015172200013MAX ENERGY             PTN           MMR11004210229140037260421000000000000000   10300001 00104100000000006000000000000000     
100   62911028202328650000000000025000000000025000002000000010410404210950540043345897110421211116004334   1030000500030000   598320001402000015172200014MAX ENERGY             PTN           MMR11004210950540043340421000000000000000   10300001 00104100000000000750000000000000     
100   95030301100126550000000000032000000000032000002000000010410404211048300805196230610421211110080519   1030000600030000   554100000946315799420000471DENKO BAHAN            YANGON        MMR11004211048300805190421000000000000000   10300001 00104100000000000960000000000000     
100   62911028202398290000000000020000000000020000002000000010410404210244140058053324600421211102005805   1030000600030000   554100001226315799420000679DENKO MAGWAY - 2       MAGWAY        MMR11004210244140058050421000000000000000   10300001 00104100000000000600000000000000     
100   95030305100040620000000000053000000000053000002000000010410404211209080114816713910421211112011481   1030000600030000   554100002085315799420000471DENKO BAHAN            YANGON        MMR11004211209080114810421000000000000000   10300001 00104100000000001590000000000000     
100   62911028202610960000000000683400000000683400002000000010410404200720380015194983410420211007001519   1030000600030000   581200002191315799420001536CANTON PARADISE TC     YANGON        MMR11004200720380015190420000000000000000   10300001 00104100000000069707000000000000     
100   62911028202027440000000000042990000000042990002000000010410404200055570129086685900420211000012908   1030000600030000   554100002320315799420000564DENKO PHYUU            PHYUU         MMR11004200055570129080420000000000000000   10300001 00104100000000001290000000000000     
100   95030310098554020000000000112421000000112421002000000010410404220416450019873880610422211210001987   1020000200030000   806200105003300018062000010MWD BANK               YGN           MMR11004220416450019870422000000000000000   10300001 00104100000000006745000000000000     
100   62911028202280200000000000029511000000029511002000000010410404200744160610485125310420211007061048   1030000600030000   554100000952315799420000474DENKO N.DAGON - 1      YANGON        MMR11004200744160610480420000000000000000   10300001 00104100000000000885000000000000     
100   62911028202386150000000000070000000000070000002000000010410404220121265126042830100422000007033207   1030000200030000   333800010001203104000003327KBZPay                 Yangon        MMR11004220121265126040422000000000000000   10300001F05104100000000014700000000000000     
100   95030385550669610000000000202100000000202100002000000010410404220321512843523570010422869510951111   1030000900030000   541119000816190110000000178Pro (1) Global (East D YANGONMYOTHIT MMR11004220321512843520422000000000000000   10300001F00104100000000012126000000000000     
100   95050319331315630000000000004900000000004900002000000010410404220739080908820357170422000007036014   1020000200030000   333400010001204104000000281Myanmar Soft-Gate Tech Yangon        MMR11004220739080908820422000000000000000   10300001F05104100000000001029000000000000     
100   95050313240335680000000000022300000000022300002000000010410404220847124683615180080422211215468361   1040001600030000   591220000258000000010000246Shwe Ohh Pharmacy (Sin Yangon        MMR11004220847124683610422000000000000000   10300001F00104100000000005352000000000000     
100   95030302100067550000000000008150000000008150002000000010410404220406568752333835300422409381052111   1030000500030000   555610114573104519000012532City Mart Ahlone Branc               MMR11004220406568752330422000000000000000   10300001 00104100000000000489000000000000     
100   95050317834964620000000000014815000000014815002000000010410404221127372960150258290422296571737111   1030000900030000   541119001349190110000000977Ocean PZD C 3          YANGONAUNG    MMR11004221127372960150422000000000000000   10300001F00104100000000003704000000000000     
100   62911028202303640000000000124000000000124000002000000010410404210840084030795460910421211115403079   1040001600030000   581420000076000000010000074Hot Pot City Ahlone    Yangon        MMR11004210840084030790421000000000000000   10300001F00104100000000003720000000000000     
