100   95050312498129060000000000002940000000002940002000000010410404251251112111305468580425000007051757   1020000200030000   333400010001204104000000281Myanmar Soft-Gate Tech Yangon        MMR11004251251112111300425000000000000000   10300001F05104100000000000617000000000000     
100   95050319996628650000000000015680000000015680002000000010410404250253092309902354660425000007046945   1020000200030000   333400010001204104000000281Myanmar Soft-Gate Tech Yangon        MMR11004250253092309900425000000000000000   10300001F05104100000000003293000000000000     
100   62911028202616250000000000241950000000241950002000000010410404250723593530924135000425053531359114   1030000900030000   541119000130190110000000082Sein Gay Har Super Cen YANGON        MMR11004250723593530920425000000000000000   10300001F00104100000000014517000000000000     
100   62911028202489110000000000254150000000254150002000000010410404250823190269723020510425000746066265   1030000200030000   541188001012000008000000008KBZ BANK               MARKETPLACE - MMR11004250823190269720425000000000000000   10300001 00104100000000015249000000000000     
100   95050319220344710000000000003000000000003000002000000010410404251004353435587726060425000007051021   1030000900030000   333400010001202104000002022ACS                    Yangon        MMR11004251004353435580425000000000000000   10300001F05104100000000000630000000000000     
100   62443100388390940000000000410000000000410000002000000010410404250638163520268719610425504081316114   1030000900030000   59441900111719011000000089829 Jewellery U Chit Ma YANGON        MMR11004250638163520260425000000000000000   10300001F00104100000000098400000000000000     
100   62911028202328650000000000016800000000016800002000000010410404251717110333844135000425000746095259   1030000200030000   541188001025000008000000298KBZ BANK               CITY MART - M MMR11004251717110333840425000000000000000   10300001 00104100000000001008000000000000     
100   95050326493030660000000000300000000000300000002000000010410404250733400340546238070425000007049799   1030000200030000   333800010001203104000003327KBZPay                 Yangon        MMR11004250733400340540425000000000000000   10300001F05104100000000063000000000000000     
100   95050326155679180000000000008820000000008820002000000010410404251135550555997241820425000007051481   1020000200030000   333400010001204104000000281Myanmar Soft-Gate Tech Yangon        MMR11004251135550555990425000000000000000   10300001F05104100000000001852000000000000     
100   95050317376014640000000000000980000000000980002000000010410404251050472047919511830425000007051252   1020000200030000   333400010001204104000000281Myanmar Soft-Gate Tech Yangon        MMR11004251050472047910425000000000000000   10300001F05104100000000000206000000000000     
100   95030367537085740000000000002940000000002940002000000010410404250252172217243374110425000007046944   1020000200030000   333400010001204104000000281Myanmar Soft-Gate Tech Yangon        MMR11004250252172217240425000000000000000   10300001F05104100000000000617000000000000     
100   95030380157605420000000000300000000000300000002000000010410404251343331333127281810425000007051926   1030000200030000   333800010001203104000003327KBZPay                 Yangon        MMR11004251343331333120425000000000000000   10300001F05104100000000063000000000000000     
100   95050315158357300000000000000980000000000980002000000010410404250445191519634324530425000007048291   1020000200030000   333400010001204104000000281Myanmar Soft-Gate Tech Yangon        MMR11004250445191519630425000000000000000   10300001F05104100000000000206000000000000     
100   95050325305150830000000000001960000000001960002000000010410404250148151815609656820425000007046626   1020000200030000   333400010001204104000000281Myanmar Soft-Gate Tech Yangon        MMR11004250148151815600425000000000000000   10300001F05104100000000000412000000000000     
100   62911028202502480000000000037277000000037277002000000010410404251049040200863894600425000746071878   1030000200030000   541188001037000008000000010KBZ BANK               MARKETPLACE - MMR11004251049040200860425000000000000000   10300001 00104100000000002237000000000000     
100   95050312498129060000000000000980000000000980002000000010410404251335210521055114430425000007051895   1020000200030000   333400010001204104000000281Myanmar Soft-Gate Tech Yangon        MMR11004251335210521050425000000000000000   10300001F05104100000000000206000000000000     
100   95050312695033440000000000000980000000000980002000000010410404250644081408805669940425000007049405   1020000200030000   333400010001204104000000281Myanmar Soft-Gate Tech Yangon        MMR11004250644081408800425000000000000000   10300001F05104100000000000206000000000000     
100   95050315345734110000000000004900000000004900002000000010410404250300443044401503740425000007047024   1020000200030000   333400010001204104000000281Myanmar Soft-Gate Tech Yangon        MMR11004250300443044400425000000000000000   10300001F05104100000000001029000000000000     
100   62443100359121590000000000002940000000002940002000000010410404250200493049289728130425000007046669   1020000200030000   333400010001204104000000281Myanmar Soft-Gate Tech Yangon        MMR11004250200493049280425000000000000000   10300001F05104100000000000617000000000000     
100   95050322104201170000000000080000000000080000002000000010410404250836480648728400910425000007050379   1030000200030000   333800010001203104000003327KBZPay                 Yangon        MMR11004250836480648720425000000000000000   10300001F05104100000000016800000000000000     
100   95050312224678430000000000001960000000001960002000000010410404250647161716771769320425000007049437   1020000200030000   333400010001204104000000281Myanmar Soft-Gate Tech Yangon        MMR11004250647161716770425000000000000000   10300001F05104100000000000412000000000000     
100   95050316717221100000000000000980000000000980002000000010410404251047151715559086370425000007051245   1020000200030000   333400010001204104000000281Myanmar Soft-Gate Tech Yangon        MMR11004251047151715550425000000000000000   10300001F05104100000000000206000000000000     
100   95050318048516790000000000005000000000005000002000000010410404251037030703740278960425000007051209   1030000200030000   3334000100012031040000040102C2P (Myanmar) Co. Ltd Yangon        MMR11004251037030703740425000000000000000   10300001F05104100000000001050000000000000     
100   62911028202077010000000000000980000000000980002000000010410404251303293329414135000425000007051803   1020000200030000   333400010001204104000000281Myanmar Soft-Gate Tech Yangon        MMR11004251303293329410425000000000000000   10300001F05104100000000000206000000000000     
100   95050323670692380000000000010000000000010000002000000010410404250440411041168721980425000007048237   1030000200030000   333800010001203104000003327KBZPay                 Yangon        MMR11004250440411041160425000000000000000   10300001F05104100000000002100000000000000     
100   62911028202318750000000000006600000000006600002000000010410404250824093546314135000425869541409114   1030000900030000   541119001273190110000000960City Mart PLST Season  YANGONMYOTHIT MMR11004250824093546310425000000000000000   10300001F00104100000000000396000000000000     
100   95030367537085740000000000000980000000000980002000000010410404251055372537294135000425000007051291   1020000200030000   333400010001204104000000281Myanmar Soft-Gate Tech Yangon        MMR11004251055372537290425000000000000000   10300001F05104100000000000206000000000000     
100   95050314570621780000000000005880000000005880002000000010410404250332250225989632900425000007047464   1020000200030000   333400010001204104000000281Myanmar Soft-Gate Tech Yangon        MMR11004250332250225980425000000000000000   10300001F05104100000000001235000000000000     
100   95050317685093130000000000100000000000100000002000000010410404250250582058870724090425000007046934   1030000200030000   333800010001203104000003327KBZPay                 Yangon        MMR11004250250582058870425000000000000000   10300001F05104100000000021000000000000000     
100   95050315158357300000000000004900000000004900002000000010410404251200273027625043120425000007051574   1020000200030000   333400010001204104000000281Myanmar Soft-Gate Tech Yangon        MMR11004251200273027620425000000000000000   10300001F05104100000000001029000000000000     
100   62911028202527490000000000049900000000049900002000000010410404250544533508014135000425874141253114   1030000900030000   541119001279190110000000963City Mart SPL C 4      YANGONMYOTHIT MMR11004250544533508010425000000000000000   10300001F00104100000000002994000000000000     
100   62911028202318750000000000020450000000020450002000000010410404250828533547334135000425921581453114   1030000900030000   541119001261190110000000958City Mart PLST C 4     YANGONMYOTHIT MMR11004250828533547330425000000000000000   10300001F00104100000000001227000000000000     
100   62911028202662510000000000015000000000015000002000000010410404251507280201494135000425000746089442   1030000200030000   541188001017000008000000008KBZ BANK               MARKETPLACE - MMR11004251507280201490425000000000000000   10300001 00104100000000000900000000000000     
100   95030301100126220000000000100000000000100000002000000010410404250832150215414135000425000007050330   1030000200030000   333800010001203104000003327KBZPay                 Yangon        MMR11004250832150215410425000000000000000   10300001F05104100000000021000000000000000     
100   95050314893649800000000000002940000000002940002000000010410404250448231823846948740425000007048334   1020000200030000   333400010001204104000000281Myanmar Soft-Gate Tech Yangon        MMR11004250448231823840425000000000000000   10300001F05104100000000000617000000000000     
100   95050315345734110000000000002940000000002940002000000010410404250301393139644978910425000007047040   1020000200030000   333400010001204104000000281Myanmar Soft-Gate Tech Yangon        MMR11004250301393139640425000000000000000   10300001F05104100000000000617000000000000     
100   95050316997303010000000000000980000000000980002000000010410404251341241124629440520425000007051913   1020000200030000   333400010001204104000000281Myanmar Soft-Gate Tech Yangon        MMR11004251341241124620425000000000000000   10300001F05104100000000000206000000000000     
100   62443100359121590000000000002940000000002940002000000010410404251335490549238589600425000007051896   1020000200030000   333400010001204104000000281Myanmar Soft-Gate Tech Yangon        MMR11004251335490549230425000000000000000   10300001F05104100000000000617000000000000     
100   95050323233042810000000000000980000000000980002000000010410404241636120612450793030425000007046110   1020000200030000   333400010001204104000000281Myanmar Soft-Gate Tech Yangon        MMR11004241636120612450425000000000000000   10300001F05104100000000000206000000000000     
100   95030301100122420000000000050000000000050000002000000010410404250549521952804135000425000007048917   1030000200030000   333800010001203104000003327KBZPay                 Yangon        MMR11004250549521952800425000000000000000   10300001F05104100000000010500000000000000     
100   95050312498129060000000000000980000000000980002000000010410404250105153515031075910425000007046471   1020000200030000   333400010001204104000000281Myanmar Soft-Gate Tech Yangon        MMR11004250105153515030425000000000000000   10300001F05104100000000000206000000000000     
100   95050312549035820000000000005000000000005000002000000010410404251211434143984617660425000007051614   1030000200030000   333800010001203104000003327KBZPay                 Yangon        MMR11004251211434143980425000000000000000   10300001F05104100000000001050000000000000     
100   95050315259054570000000000000980000000000980002000000010410404250324015401366041440425000007047354   1020000200030000   333400010001204104000000281Myanmar Soft-Gate Tech Yangon        MMR11004250324015401360425000000000000000   10300001F05104100000000000206000000000000     
100   95050316785465380000000000000980000000000980002000000010410404250727025702817088990425000007049745   1020000200030000   333400010001204104000000281Myanmar Soft-Gate Tech Yangon        MMR11004250727025702810425000000000000000   10300001F05104100000000000206000000000000     
100   95050325305150830000000000000980000000000980002000000010410404251420365036704971810425000007052058   1020000200030000   333400010001204104000000281Myanmar Soft-Gate Tech Yangon        MMR11004251420365036700425000000000000000   10300001F05104100000000000206000000000000     
100   95030384418409420000000000001000000000001000002000000010410404250428115811963949610425000007048087   1030000200030000   333800010001203104000003327KBZPay                 Yangon        MMR11004250428115811960425000000000000000   10300001F05104100000000000210000000000000     
100   62911028202366010000000000013900000000013900002000000010410404250444029100124100700425950231102114   1030000500030000   555610108767104519000003818City Mart Oattara Thir NPT           MMR11004250444029100120425000000000000000   10300001 00104100000000000834000000000000     
100   95030333409030400000000000014882000000014882002000000010410404250600059108444135000425848331215114   1030000500030000   555610118960104519000016137City Mart South Okkala WZYD BR       MMR11004250600059108440425000000000000000   10300001 00104100000000000893000000000000     
100   95050312539675540000000000004500000000004500002000000010410404210853290083402692780421211108008340   1030000600030000   554100000721315799420000303DENKO SHWE KYIN MDY    MANDALAY      MMR11004210853290083400421000000000000000   10300001 00104100000000000540000000000000     
100   62911028202027440000000000030000000000030000002000000010410404210219390387965510700421211102038796   1030000600030000   554100001106315799420000564DENKO PHYUU            PHYUU         MMR11004210219390387960421000000000000000   10300001 00104100000000000900000000000000     
100   62911028202341350000000000026000000000026000002000000010410404211139350112026536600421211111011202   1030000600030000   554100002324315799420000481DENKO NORTH OKKALAPA   YANGON        MMR11004211139350112020421000000000000000   10300001 00104100000000000780000000000000     
100   62911028202752520000000000135000000000135000002000000010410404210516420388374239300421211105038837   1030000600030000   554100001106315799420000564DENKO PHYUU            PHYUU         MMR11004210516420388370421000000000000000   10300001 00104100000000004050000000000000     
100   95050321232876860000000000100000000000100000002000000010410404220445490352156741760422211204035215   1030000600030000   554100001865315799420001235DENKO NAY PYI TAW 2    NAYPYITAW     MMR11004220445490352150422000000000000000   10300001 00104100000000012000000000000000     
100   62911028202335820000000000020000000000020000002000000010410404220950390050675620400422211209005067   1030000600030000   554100000744315799420000322DENKO AMARAPURA-PACHI  MANDALAY      MMR11004220950390050670422000000000000000   10300001 00104100000000000600000000000000     
100   62911028202423360000000000030000000000030000002000000010410404220106000170682735610422211201017068   1030000600030000   554100002319315799420000477DENKO INSEIN           YANGON        MMR11004220106000170680422000000000000000   10300001 00104100000000000900000000000000     
100   62911028202471860000000000024000000000024000002000000010410404221027240264975620400422211210026497   1030000600030000   554100001113315799420000571DENKO THAN HLYIN -1    THAN HLYIN    MMR11004221027240264970422000000000000000   10300001 00104100000000000720000000000000     
100   62911028202077010000000000001960000000001960002000000010410404250313454345143502910425000007047204   1020000200030000   333400010001204104000000281Myanmar Soft-Gate Tech Yangon        MMR11004250313454345140425000000000000000   10300001F05104100000000000412000000000000     
100   95050312498129060000000000005880000000005880002000000010410404242318104810943842700425000007046345   1020000200030000   333400010001204104000000281Myanmar Soft-Gate Tech Yangon        MMR11004242318104810940425000000000000000   10300001F05104100000000001235000000000000     
100   95030302388346590000000000050400000000050400002000000010410404250436536590634001410425211511659063   1040001600030000   591220000298000000010000286Shwe Ohh Pharmacy (Shw Yangon        MMR11004250436536590630425000000000000000   10300001F00104100000000003024000000000000     
100   95050311959900780000000000000980000000000980002000000010410404251407023702153341190425000007052021   1020000200030000   333400010001204104000000281Myanmar Soft-Gate Tech Yangon        MMR11004251407023702150425000000000000000   10300001F05104100000000000206000000000000     
100   95050319604564870000000000007550000000007550002000000010410404250620145014639499300425000007049169   1030000200030000   333800010001203104000003327KBZPay                 Yangon        MMR11004250620145014630425000000000000000   10300001F05104100000000001586000000000000     
100   62443100313112320000000000082000000000082000002000000010410404251144136849117667280425211518684911   1040001600030000   598320000660000000010000529Shwe Taung Energy (NPT Naypyitaw     MMR11004251144136849110425000000000000000   10300001F00104100000000009840000000000000     
100   62443100361813580000000000030000000000030000002000000010410404250621285128972548970425000007049177   1030000200030000   333800010001203104000003327KBZPay                 Yangon        MMR11004250621285128970425000000000000000   10300001F05104100000000006300000000000000     
100   62443100379321630000000000057000000000057000002000000010410404250716366679657160300425211514667965   1040001600030000   598320000658000000010000527Shwe Taung Energy (YGN Yangon        MMR11004250716366679650425000000000000000   10300001F00104100000000006840000000000000     
100   62911028202393160000000000030000000000030000002000000010410404221104110093105620400422211211009310   1030000600030000   554100001218315799420000670DENKO MAWLAMYAING      MON STATE.    MMR11004221104110093100422000000000000000   10300001 00104100000000000900000000000000     
100   95050322715181550000000000030000000000030000002000000010410404220829100117186407090422211208011718   1030000600030000   554100002085315799420000471DENKO BAHAN            YANGON        MMR11004220829100117180422000000000000000   10300001 00104100000000003600000000000000     
100   62443100311760720000000000025000000000025000002000000010410404221038440807606527830422211210080760   1030000600030000   554100000946315799420000471DENKO BAHAN            YANGON        MMR11004221038440807600422000000000000000   10300001 00104100000000003000000000000000     
100   95030389156816320000000000025000000000025000002000000010410404250303323332673441700425000007047070   1030000200030000   333800010001203104000003327KBZPay                 Yangon        MMR11004250303323332670425000000000000000   10300001F05104100000000005250000000000000     
100   95050325273694860000000000022150000000022150002000000010410404251000023572842052200425334301602114   1030000900030000   541119001359190110000000977Ocean PZD C 13         YANGONAUNG    MMR11004251000023572840425000000000000000   10300001F00104100000000005538000000000000     
100   95050326154591400000000000019600000000019600002000000010410404240613370000615158440424211412000061   1030000500030000   581220195901000085812201959AKKHAYA TEA HOUSE      PTN           MMR11004240613370000610424000000000000000   10300001 00104100000000008330000000000000     
100   95050323133124350000000000006860000000006860002000000010410404251059262926964263470425000007051306   1020000200030000   333400010001204104000000281Myanmar Soft-Gate Tech Yangon        MMR11004251059262926960425000000000000000   10300001F05104100000000001441000000000000     
100   62911028202595380000000000031600000000031600002000000010410404250940553567584135000425044101655114   1030000900030000   541119001263190110000000958City Mart PLST C 6     YANGONMYOTHIT MMR11004250940553567580425000000000000000   10300001F00104100000000001896000000000000     
100   95050325273694860000000000003150000000003150002000000010410404250944563568684344100425108141656114   1030000900030000   541119001359190110000000977Ocean PZD C 13         YANGONAUNG    MMR11004250944563568680425000000000000000   10300001F00104100000000000788000000000000     
100   95050323233042810000000000000980000000000980002000000010410404251407043704592915690425000007052020   1020000200030000   333400010001204104000000281Myanmar Soft-Gate Tech Yangon        MMR11004251407043704590425000000000000000   10300001F05104100000000000206000000000000     
100   95050311382087030000000000001960000000001960002000000010410404251616214621406248230425000007052362   1020000200030000   333400010001204104000000281Myanmar Soft-Gate Tech Yangon        MMR11004251616214621400425000000000000000   10300001F05104100000000000412000000000000     
100   95030319588829360000000000135400000000135400002000000010410404250312459090683534810425049480944114   1030000500030000   555610104032104519000003821City Mart North Point  enter         MMR11004250312459090680425000000000000000   10300001 00104100000000008124000000000000     
100   95050315743141220000000000000980000000000980002000000010410404251219404940508092780425000007051643   1020000200030000   333400010001204104000000281Myanmar Soft-Gate Tech Yangon        MMR11004251219404940500425000000000000000   10300001F05104100000000000206000000000000     
100   62911028202499270000000000009700000000009700002000000010410404251038486790564135000425211517679056   1040001600030000   591220000301000000010000289Shwe Ohh Pharmacy (Yay Yangon        MMR11004251038486790560425000000000000000   10300001F00104100000000000582000000000000     
100   95050314557307430000000000001960000000001960002000000010410404251429265926041496640425000007052092   1020000200030000   333400010001204104000000281Myanmar Soft-Gate Tech Yangon        MMR11004251429265926040425000000000000000   10300001F05104100000000000412000000000000     
100   62911028202112400000000000025000000000025000002000000010410404250856476726394135000425211515672639   1040001600030000   598320000658000000010000527Shwe Taung Energy (YGN Yangon        MMR11004250856476726390425000000000000000   10300001F00104100000000000750000000000000     
100   62443100346971400000000000068355000000068355002000000010410404241440056334328097520424211421633432   1040001600030000   581420000257000000010000245The Lord (Thingangyun) Yangon        MMR11004241440056334320424000000000000000   10300001F00104100000000008203000000000000     
100   95030307100064460000000000125500000000125500002000000010410404251310063622207100400425334401906114   1030000900030000   541119001361190110000000977Ocean PZD C 15         YANGONAUNG    MMR11004251310063622200425000000000000000   10300001F00104100000000007530000000000000     
100   95050313702988830000000000002940000000002940002000000010410404250221145114527812310425000007046782   1020000200030000   333400010001204104000000281Myanmar Soft-Gate Tech Yangon        MMR11004250221145114520425000000000000000   10300001F05104100000000000617000000000000     
100   95050319122743920000000000014600000000014600002000000010410404240632250001614732960424211413000161   1030000500030000   531120155712000045311201557GAMONE PWINT           PTN           MMR11004240632250001610424000000000000000   10300001 00104100000000003504000000000000     
100   62911028202907560000000000025500000000025500002000000010410404251621380083374135000425000746092938   1030000200030000   541188001060000008000000314KBZ BANK               MARKETPLACE - MMR11004251621380083370425000000000000000   10300001 00104100000000001530000000000000     
100   95050315017843630000000000001000000000001000002000000010410404250652092209490492850425000007049484   1030000200030000   3338000100012031040000040022C2P (Myanmar) Co. Ltd Yangon        MMR11004250652092209490425000000000000000   10300001F05104100000000000210000000000000     
100   95050314120103040000000000004900000000004900002000000010410404250924275427562637270425000007050767   1020000200030000   333400010001204104000000281Myanmar Soft-Gate Tech Yangon        MMR11004250924275427560425000000000000000   10300001F05104100000000001029000000000000     
100   62911028202595380000000000032000000000032000002000000010410404240540140002985620400424211412000298   1030000500030000   598320001303000015172200013MAX ENERGY             PTN           MMR11004240540140002980424000000000000000   10300001 00104100000000000960000000000000     
100   62911028202031710000000000019830000000019830002000000010410404251058536807934135000425211517680793   1040001600030000   541120000132000000010000126Asia Light Supermarket Yangon        MMR11004251058536807930425000000000000000   10300001F00104100000000001190000000000000     
100   95050319667137090000000000014500000000014500002000000010410404251038213584019427990425997081721114   1030000900030000   541119001282190110000000963City Mart SPL C 7      YANGONMYOTHIT MMR11004251038213584010425000000000000000   10300001F00104100000000003625000000000000     
100   95050319331315630000000000020580000000020580002000000010410404250306033603960935610425000007047114   1020000200030000   333400010001204104000000281Myanmar Soft-Gate Tech Yangon        MMR11004250306033603960425000000000000000   10300001F05104100000000004322000000000000     
100   95050317903887690000000000002940000000002940002000000010410404241713324332940367530425000007046165   1020000200030000   333400010001204104000000281Myanmar Soft-Gate Tech Yangon        MMR11004241713324332940425000000000000000   10300001F05104100000000000617000000000000     
100   95050317072727910000000000000980000000000980002000000010410404251421005100568446930425000007052065   1020000200030000   333400010001204104000000281Myanmar Soft-Gate Tech Yangon        MMR11004251421005100560425000000000000000   10300001F05104100000000000206000000000000     
100   62911028202366010000000000062195000000062195002000000010410404250616069109944135000425021451246114   1030000500030000   555610103978104519000003818Ocean Oattara Thiri Na PyiTaw        MMR11004250616069109940425000000000000000   10300001 00104100000000003732000000000000     
100   62911028202789750000000000028450000000028450002000000010410404250132146509552893510425211508650955   1040001600030000   591220000271000000010000259Shwe Ohh Pharmacy (Gwa Yangon        MMR11004250132146509550425000000000000000   10300001F00104100000000001707000000000000     
100   62911028202243910000000000087003000000087003002000000010410404250426399097223948810425653571043114   1030000500030000   555610118960104519000016137City Mart South Okkala WZYD BR       MMR11004250426399097220425000000000000000   10300001 00104100000000005220000000000000     
100   95050312728902740000000000008500000000008500002000000010410404250846131613689375950425000007050464   1030000200030000   333800010001203104000003327KBZPay                 Yangon        MMR11004250846131613680425000000000000000   10300001F05104100000000001785000000000000     
100   62443100379321630000000000100000000000100000002000000010410404250717076679870989660425211514667987   1040001600030000   598320000658000000010000527Shwe Taung Energy (YGN Yangon        MMR11004250717076679870425000000000000000   10300001F00104100000000012000000000000000     
100   95050320624349010000000000030000000000030000002000000010410404250231493466414833920425810010949114   1030000900030000   554119001101190110000000213New Day Energy SOK     YANGONOKKALAP MMR11004250231493466410425000000000000000   10300001F00104100000000003600000000000000     
100   62911028202162640000000000025000000000025000002000000010410404220122540254942837100422211201025494   1030000600030000   554100001116315799420000574DENKO HLAE KUU         HLAE KUU      MMR11004220122540254940422000000000000000   10300001 00104100000000000750000000000000     
100   95050326094581320000000000041005000000041005002000000010410404240947280002689939700424211416000268   1030000500030000   531120156008000045311201560GAMONE PWINT           PTN           MMR11004240947280002680424000000000000000   10300001 00104100000000009841000000000000     
100   95050325305150830000000000000980000000000980002000000010410404251411324132796390900425000007052029   1020000200030000   333400010001204104000000281Myanmar Soft-Gate Tech Yangon        MMR11004251411324132790425000000000000000   10300001F05104100000000000206000000000000     
100   95050312498129060000000000001960000000001960002000000010410404250005293529864693660425000007046388   1020000200030000   333400010001204104000000281Myanmar Soft-Gate Tech Yangon        MMR11004250005293529860425000000000000000   10300001F05104100000000000412000000000000     
100   95050320093758110000000000030000000000030000002000000010410404221052360063228010130422211210006322   1030000600030000   554100002139315799420001488DENKO MDY-12           MANDALAY      MMR11004221052360063220422000000000000000   10300001 00104100000000003600000000000000     
100   95030307100064460000000000003000000000003000002000000010410404251311283622407108000425344411928114   1030000900030000   541119001361190110000000977Ocean PZD C 15         YANGONAUNG    MMR11004251311283622400425000000000000000   10300001F00104100000000000180000000000000     
100   95050318156904210000000000100000000000100000002000000010410404250513064306245318120425000007048568   1030000200030000   333800010001203104000003327KBZPay                 Yangon        MMR11004250513064306240425000000000000000   10300001F05104100000000021000000000000000     
100   95050313732480420000000000001960000000001960002000000010410404250725325532397939960425000007049733   1020000200030000   333400010001204104000000281Myanmar Soft-Gate Tech Yangon        MMR11004250725325532390425000000000000000   10300001F05104100000000000412000000000000     
100   95050311419479170000000000001960000000001960002000000010410404251128485848495185700425000007051445   1020000200030000   333400010001204104000000281Myanmar Soft-Gate Tech Yangon        MMR11004251128485848490425000000000000000   10300001F05104100000000000412000000000000     
100   95030319588829360000000000007600000000007600002000000010410404250308439089953484510425980400920114   1030000500030000   555610104043104519000003821City Mart North Point  enter         MMR11004250308439089950425000000000000000   10300001 00104100000000000456000000000000     
100   62911028202136750000000000011836000000011836002000000010410404250538209105124135000425459081230114   1030000500030000   555610122353104519000018696CityMartSupermarket Sh ePyiTha       MMR11004250538209105120425000000000000000   10300001 00104100000000000710000000000000     
100   95030333409030400000000000024585000000024585002000000010410404250559129108284135000425827321204114   1030000500030000   555610118960104519000016137City Mart South Okkala WZYD BR       MMR11004250559129108280425000000000000000   10300001 00104100000000001475000000000000     
100   95050317343045830000000000001960000000001960002000000010410404250420495049087745690425000007048024   1020000200030000   333400010001204104000000281Myanmar Soft-Gate Tech Yangon        MMR11004250420495049080425000000000000000   10300001F05104100000000000412000000000000     
100   95050320335873810000000000000980000000000980002000000010410404250905563556936502680425000007050618   1020000200030000   333400010001204104000000281Myanmar Soft-Gate Tech Yangon        MMR11004250905563556930425000000000000000   10300001F05104100000000000206000000000000     
100   95050319161596230000000000000980000000000980002000000010410404250246501650659873080425000007046908   1020000200030000   333400010001204104000000281Myanmar Soft-Gate Tech Yangon        MMR11004250246501650650425000000000000000   10300001F05104100000000000206000000000000     
100   62911028202448030000000000044250000000044250002000000010410404231329420000385620400423211319000038   1030000500030000   581220114301008505812201143GOLDEN DUCK (KAN TAW M PTN           MMR11004231329420000380423000000000000000   10300001 00104100000000004514000000000000     
100   62911028202616170000000000020300000000020300002000000010410404251752550001424135000425000746096938   1030000200030000   541188001288000008000001475KBZ BANK               CITY CARE STA MMR11004251752550001420425000000000000000   10300001 00104100000000001218000000000000     
100   62911028202154070000000004856250000004856250002000000010410404240745260000145620400424211414000014   1030000500030000   701120124803000057011201248NOVOTEL YANGON MAX     PTN           MMR11004240745260000140424000000000000000   10300001 00104100000000495338000000000000     
100   62911028202677390000000000050000000000050000002000000010410404240929090000935620400424211415000093   1030000500030000   598320003001000015172200030MAX ENERGY             PTN           MMR11004240929090000930424000000000000000   10300001 00104100000000001500000000000000     
100   62443100318296470000000000032002000000032002002000000010410404240706200006317066220424211413000631   1030000500030000   598320001301000015172200013MAX ENERGY             PTN           MMR11004240706200006310424000000000000000   10300001 00104100000000003840000000000000     
100   62911028202668140000000000069000000000069000002000000010410404241029580006315620400424211416000631   1030000500030000   598320001401000015172200014MAX ENERGY             PTN           MMR11004241029580006310424000000000000000   10300001 00104100000000002070000000000000     
100   95030308100042590000000000022850000000022850002000000010410404251145533602744135000425151151853114   1030000900030000   541119000302190110000000184Super One Shopping Mal YANGONTHARYA  MMR11004251145533602740425000000000000000   10300001F00104100000000001371000000000000     
100   95050329213164970000000000000980000000000980002000000010410404251308133813161993410425000007051808   1020000200030000   333400010001204104000000281Myanmar Soft-Gate Tech Yangon        MMR11004251308133813160425000000000000000   10300001F05104100000000000206000000000000     
100   95050317003064220000000000001960000000001960002000000010410404250211284128903628760425000007046719   1020000200030000   333400010001204104000000281Myanmar Soft-Gate Tech Yangon        MMR11004250211284128900425000000000000000   10300001F05104100000000000412000000000000     
100   95050312940629360000000000000980000000000980002000000010410404251610164016702773110425000007052353   1020000200030000   333400010001204104000000281Myanmar Soft-Gate Tech Yangon        MMR11004251610164016700425000000000000000   10300001F05104100000000000206000000000000     
100   95050311926829590000000000000980000000000980002000000010410404251617084708855822770425000007052369   1020000200030000   333400010001204104000000281Myanmar Soft-Gate Tech Yangon        MMR11004251617084708850425000000000000000   10300001F05104100000000000206000000000000     
100   95050314996291580000000000005880000000005880002000000010410404250719254925537514500425000007049682   1020000200030000   333400010001204104000000281Myanmar Soft-Gate Tech Yangon        MMR11004250719254925530425000000000000000   10300001F05104100000000001235000000000000     
100   95050312498129060000000000000980000000000980002000000010410404251326015601182064770425000007051870   1020000200030000   333400010001204104000000281Myanmar Soft-Gate Tech Yangon        MMR11004251326015601180425000000000000000   10300001F05104100000000000206000000000000     
100   95050312240830690000000000002940000000002940002000000010410404250727435743653188360425000007049755   1020000200030000   333400010001204104000000281Myanmar Soft-Gate Tech Yangon        MMR11004250727435743650425000000000000000   10300001F05104100000000000617000000000000     
100   95050321690472590000000000072400000000072400002000000010410404241030350007073272250424000341784523   1030000300030000   531100000568000000000000376CB BANK                CAPITAL HYPER MMR11004241030350007070424000000000000000   10300001F00104100000000017376000000000000     
100   62911028202142850000000000012500000000012500002000000010410404240228260000785620400424211408000078   1030000500030000   541120020701022205411200207ORANGE (YDG)           PTN           MMR11004240228260000780424000000000000000   10300001 00104100000000000750000000000000     
100   62443100375796910000000000096000000000096000002000000010410404240403470004363882000424211410000436   1030000500030000   598320001201000015172200012MAX ENERGY             PTN           MMR11004240403470004360424000000000000000   10300001 00104100000000011520000000000000     
100   62911028202260160000000000078350000000078350002000000010410404240715220000385620400424211413000038   1030000500030000   591220013101014405912200131SHWE OHH PHARMACY      PTN           MMR11004240715220000380424000000000000000   10300001 00104100000000004701000000000000     
100   95030301100122420000000000030600000000030600002000000010410404240331020004365620400424000341732239   1030000300030000   581200001146000000000000804CB BANK                LUMBINI TEA R MMR11004240331020004360424000000000000000   10300001F00104100000000003121000000000000     
100   95050314430707800000000000018500000000018500002000000010410404240422330000110662130424211410000011   1030000500030000   566120038501016505661200385RIPPLE FLIPFLOPS       PTN           MMR11004240422330000110424000000000000000   10300001 00104100000000004440000000000000     
100   62443100371309900000000000229500000000229500002000000010410404241013020002309371620424211416000230   1030000500030000   569120057301000015691200573CONQUEROR              PTN           MMR11004241013020002300424000000000000000   10300001 00104100000000055080000000000000     
100   62911028202788270000000000031950000000031950002000000010410404241149300000385620400424211418000038   1030000500030000   541120045701005405411200457126 STORE              PTN           MMR11004241149300000380424000000000000000   10300001 00104100000000001917000000000000     
100   62911028202416760000000000090000000000090000002000000010410404250300046549753420510425211510654975   1040001600030000   598320000854000000010000608Terminal Petrol Statio Yangon        MMR11004250300046549750425000000000000000   10300001F00104100000000002700000000000000     
100   95030359617000430000000000300000000000300000002000000010410404250713354335574135000425000007049647   1030000200030000   333800010001203104000003327KBZPay                 Yangon        MMR11004250713354335570425000000000000000   10300001F05104100000000063000000000000000     
100   95050314401921990000000000000980000000000980002000000010410404250326365636226892360425000007047369   1020000200030000   333400010001204104000000281Myanmar Soft-Gate Tech Yangon        MMR11004250326365636220425000000000000000   10300001F05104100000000000206000000000000     
100   62911028202235910000000000038000000000038000002000000010410404250925136740864135000425211516674086   1040001600030000   569120000931000000010000678Generation Concept Sto Ygn           MMR11004250925136740860425000000000000000   10300001F00104100000000002280000000000000     
100   95050314287403810000000000002940000000002940002000000010410404251421515151068021470425000007052068   1020000200030000   333400010001204104000000281Myanmar Soft-Gate Tech Yangon        MMR11004251421515151060425000000000000000   10300001F05104100000000000617000000000000     
100   95050314893649800000000000002940000000002940002000000010410404250824495449052827090425000007050276   1020000200030000   333400010001204104000000281Myanmar Soft-Gate Tech Yangon        MMR11004250824495449050425000000000000000   10300001F05104100000000000617000000000000     
100   95050325273694860000000000060750000000060750002000000010410404250943353568339095350425089131635114   1030000900030000   541119001359190110000000977Ocean PZD C 13         YANGONAUNG    MMR11004250943353568330425000000000000000   10300001F00104100000000015188000000000000     
100   95050319789172490000000000005700000000005700002000000010410404251056369146656958940425262381706114   1030000500030000   555610110566104519000009163City Mart Ayeyarwon Br nch           MMR11004251056369146650425000000000000000   10300001 00104100000000001425000000000000     
100   62911028202065470000000000011500000000011500002000000010410404240955250000685620400424211416000068   1030000500030000   531120155716000045311201557GAMONE PWINT           PTN           MMR11004240955250000680424000000000000000   10300001 00104100000000000690000000000000     
100   95050329734064360000000000020000000000020000002000000010410404240346510002248839450424211410000224   1030000500030000   598320001203000015172200012MAX ENERGY             PTN           MMR11004240346510002240424000000000000000   10300001 00104100000000002400000000000000     
100   95030315150842990000000000025980000000025980002000000010410404241236100001235620400424211419000123   1030000500030000   806220172409013008062201724GRAND HANTHA HOSPITAL  PTN           MMR11004241236100001230424000000000000000   10300001 00104100000000001559000000000000     
100   62443100330048680000000000021000000000021000002000000010410404240238540002512328400424211409000251   1030000500030000   598320001102000015172200011MAX ENERGY             PTN           MMR11004240238540002510424000000000000000   10300001 00104100000000002520000000000000     
100   62911028202485720000000000020000000000020000002000000010410404241148220003465620400424211418000346   1030000500030000   598320002701000015172200027MAX ENERGY             PTN           MMR11004241148220003460424000000000000000   10300001 00104100000000000600000000000000     
100   95050314774151170000000000079512000000079512002000000010410404240405000000995534480424000341736310   1030000300030000   531100000544000000000000376CB BANK                CAPITAL HYPER MMR11004240405000000990424000000000000000   10300001F00104100000000019083000000000000     
100   95030353248676040000000000019500000000019500002000000010410404240454110001025620400424211411000102   1030000500030000   531120156005000045311201560GAMONE PWINT           PTN           MMR11004240454110001020424000000000000000   10300001 00104100000000001170000000000000     
100   95030301100344930000000000009050000000009050002000000010410404241224450041455620400424000341798960   1030000300030000   541100000454000000000000323CB BANK                ONESTOP KITCH MMR11004241224450041450424000000000000000   10300001F00104100000000000543000000000000     
100   62911028202465350000000000002400000000002400002000000010410404251048209143414135000425882171757114   1030000500030000   555610120983104519000017746City Express MCS 109                 MMR11004251048209143410425000000000000000   10300001 00104100000000000144000000000000     
100   62911028202520380000000000076650000000076650002000000010410404251136529150934135000425790071823114   1030000500030000   555610112245104519000010487Ocean Super Center St  ohn           MMR11004251136529150930425000000000000000   10300001 00104100000000004599000000000000     
100   95030322236782320000000000449179000000449179002000000010410404250652599114984854900425563281344114   1030000300030000   555510125356104519000015328Myittar Oo Eye Hospita               MMR11004250652599114980425000000000000000   10300001 00104100000000026951000000000000     
100   62911028202207380000000000004000000000004000002000000010410404250644349113694135000425433171342114   1030000500030000   555610110576104519000009164City Mart China Town P int Cen       MMR11004250644349113690425000000000000000   10300001 00104100000000000240000000000000     
100   95050326511614440000000000032450000000032450002000000010410404251046589143206036710425852161749114   1030000500030000   555610110557104519000009163City Mart Ayeyarwon Br nch           MMR11004251046589143200425000000000000000   10300001 00104100000000008113000000000000     
100   62911028202495390000000000008200000000008200002000000010410404251250389160094135000425889231909114   1030000500030000   555610110599104519000009166City Mart 47 Branch                  MMR11004251250389160090425000000000000000   10300001 00104100000000000492000000000000     
100   62443100313529540000000000023000000000023000002000000010410404251107319147350859610425356421752114   1030000300030000   555510120545104519000017444Art and T8                           MMR11004251107319147350425000000000000000   10300001 00104100000000005520000000000000     
100   62911028202207380000000000005200000000005200002000000010410404250703259116104135000425677381330114   1030000500030000   555610110570104519000009164City Mart China Town P int Cen       MMR11004250703259116100425000000000000000   10300001 00104100000000000312000000000000     
100   62443101006037900000000000019500000000019500002000000010410404241217130041159583190424000341798071   1030000300030000   806200000192000000000000097CB BANK                AUNG YADANA H MMR11004241217130041150424000000000000000   10300001F00104100000000004680000000000000     
100   95030346179196360000000000022000000000022000002000000010410404241021276130685620400424211417613068   1040001600030000   598320000856000000010000609Terminal Petrol Statio Yangon        MMR11004241021276130680424000000000000000   10300001F00104100000000000660000000000000     
100   95030360829747230000000001041500000001041500002000000010410404250432180014783974010425000746072757   1030000200030000   599988000602000008000003445KBZ BANK               SWEETY HOME ( MMR11004250432180014780425000000000000000   10300001 00104100000000062490000000000000     
100   62911028202045260000000000013200000000013200002000000010410404251730470140094135000425000746095820   1030000200030000   541188001073000008000000294KBZ BANK               CITY MART - J MMR11004251730470140090425000000000000000   10300001 00104100000000000792000000000000     
100   95030380157605420000000000047050000000047050002000000010410404251253380006224135000425000746080069   1030000200030000   541188001487000008000000399KBZ BANK               OCEAN SUPERCE MMR11004251253380006220425000000000000000   10300001 00104100000000002823000000000000     
100   62911028202531350000000000060541000000060541002000000010410404251055070012193931010425000746072287   1030000200030000   541188001005000008000000008KBZ BANK               MARKETPLACE - MMR11004251055070012190425000000000000000   10300001 00104100000000003633000000000000     
100   62443100379116470000000000003635000000003635002000000010410404251724470157800362840425000746095587   1030000200030000   541188001020000008000000298KBZ BANK               CITY MART - M MMR11004251724470157800425000000000000000   10300001 00104100000000000909000000000000     
100   62911028202142100000000000000980000000000980002000000010410404251131520152234135000425000007051457   1020000200030000   333400010001204104000000281Myanmar Soft-Gate Tech Yangon        MMR11004251131520152230425000000000000000   10300001F05104100000000000206000000000000     
100   95030333478847140000000000140500000000140500002000000010410404250814289123584135000425522451446114   1030000300030000   555510124685104519000020166Makro Myanmar                        MMR11004250814289123580425000000000000000   10300001 00104100000000008430000000000000     
100   62911028202045260000000000010400000000010400002000000010410404251010469140994135000425598001730114   1030000500030000   555610120972104519000017735City Express MCS 24                  MMR11004251010469140990425000000000000000   10300001 00104100000000000624000000000000     
100   62911028202790980000000005000000000005000000002000000010410404251519069168747870500425944512119114   1030000300030000   555510112975104519000011137Kaung Htet Computer N  obile         MMR11004251519069168740425000000000000000   10300001 00104100000000300000000000000000     
100   95050311736839760000000000000980000000000980002000000010410404250226035603268237770425000007046797   1020000200030000   333400010001204104000000281Myanmar Soft-Gate Tech Yangon        MMR11004250226035603260425000000000000000   10300001F05104100000000000206000000000000     
100   62911028202027440000000000002450000000002450002000000010410404250614366648354135000425211513664835   1040001600030000   541120000575000000010000465Ocean Shwe Gone Daing  Yangon        MMR11004250614366648350425000000000000000   10300001F00104100000000000147000000000000     
100   62911028202807400000000000093550000000093550002000000010410404250727299118084135000425888571345114   1030000300030000   555510124686104519000020166Makro Myanmar                        MMR11004250727299118080425000000000000000   10300001 00104100000000005613000000000000     
100   62911028202151910000000000028963000000028963002000000010410404250755449121184135000425257251422114   1030000500030000   555610112237104519000010487Ocean Super Center St  ohn           MMR11004250755449121180425000000000000000   10300001 00104100000000001738000000000000     
100   62911028202616250000000000078250000000078250002000000010410404250913529130654135000425383431559114   1030000500030000   555610115765104519000013506MarketplaceMyanmarPlaz Branch        MMR11004250913529130650425000000000000000   10300001 00104100000000004695000000000000     
100   62911028202662930000000000008000000000008000002000000010410404251457200017494135000425000746088804   1030000200030000   541188001014000008000000008KBZ BANK               MARKETPLACE - MMR11004251457200017490425000000000000000   10300001 00104100000000000480000000000000     
100   95030318100004530000000000051900000000051900002000000010410404251141140048484135000425000746075360   1030000200030000   541188001440000008000000401KBZ BANK               OCEAN SUPERCE MMR11004251141140048480425000000000000000   10300001 00104100000000003114000000000000     
100   62911028202662510000000000014600000000014600002000000010410404250857130009044135000425000746090465   1030000200030000   541188001628000008000000008KBZ BANK               MARKETPLACE - MMR11004250857130009040425000000000000000   10300001 00104100000000000876000000000000     
100   95050315144447320000000000013650000000013650002000000010410404251605090041962573140425000746092201   1030000200030000   541188001424000008000000401KBZ BANK               OCEAN SUPERCE MMR11004251605090041960425000000000000000   10300001 00104100000000003413000000000000     
100   62911028202068440000000000001000000000001000002000000010410404251031290129774135000425000007051183   1030000200030000   3334000100012031040000040102C2P (Myanmar) Co. Ltd Yangon        MMR11004251031290129770425000000000000000   10300001F05104100000000000210000000000000     
100   62911028202531350000000000011700000000011700002000000010410404251050180012183902110425000746071986   1030000200030000   541188001005000008000000008KBZ BANK               MARKETPLACE - MMR11004251050180012180425000000000000000   10300001 00104100000000000702000000000000     
100   95030337100000390000000000020500000000020500002000000010410404250309070033573475000425000746068239   1030000200030000   591288000837000008000004646KBZ BANK               PINLON PHARMA MMR11004250309070033570425000000000000000   10300001 00104100000000001230000000000000     
100   95050312695033440000000000000980000000000980002000000010410404250642491249019145110425000007049389   1020000200030000   333400010001204104000000281Myanmar Soft-Gate Tech Yangon        MMR11004250642491249010425000000000000000   10300001F05104100000000000206000000000000     
100   95050316896526710000000000005000000000005000002000000010410404250355402540603363340425000007047735   1030000200030000   333800010001203104000003327KBZPay                 Yangon        MMR11004250355402540600425000000000000000   10300001F05104100000000001050000000000000     
100   62911028202027440000000000043100000000043100002000000010410404250613486647964135000425211513664796   1040001600030000   541120000575000000010000465Ocean Shwe Gone Daing  Yangon        MMR11004250613486647960425000000000000000   10300001F00104100000000002586000000000000     
100   95050325273694860000000000024700000000024700002000000010410404251030293581633754120425847001729114   1030000900030000   541119001358190110000000977Ocean PZD C 12         YANGONAUNG    MMR11004251030293581630425000000000000000   10300001F00104100000000006175000000000000     
100   62443100395964530000000000013750000000013750002000000010410404250827423547078075840425905571442114   1030000900030000   541119001299190110000000968Ocean Mingalar MDY C 7 MANDALAYHARSI MMR11004250827423547070425000000000000000   10300001F00104100000000003438000000000000     
100   95030380157605420000000000300000000000300000002000000010410404251340261026407263200425000007051908   1030000200030000   333800010001203104000003327KBZPay                 Yangon        MMR11004251340261026400425000000000000000   10300001F05104100000000063000000000000000     
100   95050318646071770000000000002940000000002940002000000010410404250645401540628294150425000007049421   1020000200030000   333400010001204104000000281Myanmar Soft-Gate Tech Yangon        MMR11004250645401540620425000000000000000   10300001F05104100000000000617000000000000     
100   95050318621775380000000000005000000000005000002000000010410404250253012301962780160425000007046948   1030000200030000   3338000100012031040000040022C2P (Myanmar) Co. Ltd Yangon        MMR11004250253012301960425000000000000000   10300001F05104100000000001050000000000000     
100   95050326493030660000000000100000000000100000002000000010410404250800023002925883880425000007050057   1030000200030000   333800010001203104000003327KBZPay                 Yangon        MMR11004250800023002920425000000000000000   10300001F05104100000000021000000000000000     
100   95050312595952760000000000003000000000003000002000000010410404251603233323815397310425000007052339   1030000200030000   3334000100012031040000040102C2P (Myanmar) Co. Ltd Yangon        MMR11004251603233323810425000000000000000   10300001F05104100000000000630000000000000     
100   95050319928585020000000000000980000000000980002000000010410404250754432443489430320425000007050018   1020000200030000   333400010001204104000000281Myanmar Soft-Gate Tech Yangon        MMR11004250754432443480425000000000000000   10300001F05104100000000000206000000000000     
100   95050314557307430000000000002940000000002940002000000010410404251352092209139866020425000007051960   1020000200030000   333400010001204104000000281Myanmar Soft-Gate Tech Yangon        MMR11004251352092209130425000000000000000   10300001F05104100000000000617000000000000     
100   95050315345734110000000000004900000000004900002000000010410404250259132913590227270425000007046992   1020000200030000   333400010001204104000000281Myanmar Soft-Gate Tech Yangon        MMR11004250259132913590425000000000000000   10300001F05104100000000001029000000000000     
100   95030301100126220000000000023500000000023500002000000010410404251702450335614135000425000746094694   1030000200030000   541188001024000008000000298KBZ BANK               CITY MART - M MMR11004251702450335610425000000000000000   10300001 00104100000000001410000000000000     
100   95030380157605420000000000300000000000300000002000000010410404251341571157847272310425000007051917   1030000200030000   333800010001203104000003327KBZPay                 Yangon        MMR11004251341571157840425000000000000000   10300001F05104100000000063000000000000000     
100   95030308100010080000000000000980000000000980002000000010410404250544001400094135000425000007048862   1020000200030000   333400010001204104000000281Myanmar Soft-Gate Tech Yangon        MMR11004250544001400090425000000000000000   10300001F05104100000000000206000000000000     
100   95050315564078030000000000010000000000010000002000000010410404251332180218635539890425000007051889   1030000200030000   3338000100012031040000040022C2P (Myanmar) Co. Ltd Yangon        MMR11004251332180218630425000000000000000   10300001F05104100000000002100000000000000     
100   95050314302558730000000000002940000000002940002000000010410404251535520552491922100425000007052270   1020000200030000   333400010001204104000000281Myanmar Soft-Gate Tech Yangon        MMR11004251535520552490425000000000000000   10300001F05104100000000000617000000000000     
100   62443100337100010000000000010000000000010000002000000010410404250156482648463557490425000007046655   1030000200030000   3338000100012031040000040022C2P (Myanmar) Co. Ltd Yangon        MMR11004250156482648460425000000000000000   10300001F05104100000000002100000000000000     
100   95050310676042860000000000002940000000002940002000000010410404250356542654833065410425000007047751   1020000200030000   333400010001204104000000281Myanmar Soft-Gate Tech Yangon        MMR11004250356542654830425000000000000000   10300001F05104100000000000617000000000000     
100   95050312224678430000000000002940000000002940002000000010410404250352102210996923600425000007047702   1020000200030000   333400010001204104000000281Myanmar Soft-Gate Tech Yangon        MMR11004250352102210990425000000000000000   10300001F05104100000000000617000000000000     
