100   95050323670692380000000000005000000000005000002000000010410404260123495349820775960426000007052887   1030000200030000   333800010001203104000003327KBZPay                 Yangon        MMR11004260123495349820426000000000000000   10300001F05104100000000001050000000000000     
100   62911028202684060000000000058000000000058000002000000010410404260336327228003639310426211610722800   1040001600030000   598320000658000000010000527Shwe Taung Energy (YGN Yangon        MMR11004260336327228000426000000000000000   10300001F00104100000000001740000000000000     
100   95050312498129060000000000000980000000000980002000000010410404260217394739532021940426000007053148   1020000200030000   333400010001204104000000281Myanmar Soft-Gate Tech Yangon        MMR11004260217394739530426000000000000000   10300001F05104100000000000206000000000000     
100   62911028202116120000000000023130000000023130002000000010410404261136347497124369000426211618749712   1040001600030000   591220000258000000010000246Shwe Ohh Pharmacy (Sin Yangon        MMR11004261136347497120426000000000000000   10300001F00104100000000001388000000000000     
100   62911028202661370000000000054800000000054800002000000010410404260617183751484623000426141471218115   1030000900030000   541119000161190110000000084Pro (1) Global (Pazund YANGONARTAUNG MMR11004260617183751480426000000000000000   10300001F00104100000000003288000000000000     
100   95050310599777990000000000064200000000064200002000000010410404261130433830866579860426633001843115   1030000900030000   541119000116190110000000078Sein Gay Har Kan Thar  YANGONOKKALAP MMR11004261130433830860426000000000000000   10300001F00104100000000016050000000000000     
100   62443101057131720000000000010000000000010000002000000010410404261010244024145728900426000007056799   1030000300030000   333300010001206104000002147DICA Company Limited   Yangon        MMR11004261010244024140426000000000000000   10300001F05104100000000010000000000000000     
100   95050310427855490000000000000980000000000980002000000010410404260417214721395922580426000007054082   1020000200030000   333400010001204104000000281Myanmar Soft-Gate Tech Yangon        MMR11004260417214721390426000000000000000   10300001F05104100000000000206000000000000     
100   62443100399918110000000000032700000000032700002000000010410404260530353740126879790426545001235115   1030000900030000   591219000601190110000000441Shwe Ohh Pharmacy St-3 YANGON        MMR11004260530353740120426000000000000000   10300001F00104100000000007848000000000000     
100   95050325139996190000000000003300000000003300002000000010410404260328235823285873140426000007053717   1030000200030000   333300010001203104000003632Myanmar Tradenet Test  Yangon        MMR11004260328235823280426000000000000000   10300001F05104100000000010000000000000000     
100   62911028202311150000000000034900000000034900002000000010410404261004283805294369000426979341628115   1030000900030000   541119001189190110000000942City Mart HDC C 4      YANGONUT      MMR11004261004283805290426000000000000000   10300001F00104100000000002094000000000000     
100   95030308100042590000000000007200000000007200002000000010410404260928203795624369000426447581520115   1030000900030000   541119000121190110000000080Sein Gay Har BAK       YANGONADA     MMR11004260928203795620426000000000000000   10300001F00104100000000000432000000000000     
100   62443100360763680000000000004900000000004900002000000010410404260724165416493615280426000007055486   1020000200030000   333400010001204104000000281Myanmar Soft-Gate Tech Yangon        MMR11004260724165416490426000000000000000   10300001F05104100000000001029000000000000     
100   62911028202693960000000000019450000000019450002000000010410404261121067483014369000426211618748301   1040001600030000   591220000275000000010000263Shwe Ohh Pharmacy (Hla Yangon        MMR11004261121067483010426000000000000000   10300001F00104100000000001167000000000000     
100   95030374458345210000000000080700000000080700002000000010410404261144347504294369000426211618750429   1040001600030000   591220000295000000010000283Shwe Ohh Pharmacy (39t Yangon        MMR11004261144347504290426000000000000000   10300001F00104100000000004842000000000000     
100   95050313102162270000000000034900000000034900002000000010410404260837573783681586760426869071557115   1030000900030000   541119001357190110000000977Ocean PZD C 11         YANGONAUNG    MMR11004260837573783680426000000000000000   10300001F00104100000000008725000000000000     
100   62443100333488440000000000018000000000018000002000000010410404220158120389006124220422211201038900   1030000600030000   554100001106315799420000564DENKO PHYUU            PHYUU         MMR11004220158120389000422000000000000000   10300001 00104100000000002160000000000000     
100   62911028202448030000000000036654000000036654002000000010410404260951580011633551910426000746115830   1030000200030000   541188001040000008000000010KBZ BANK               MARKETPLACE - MMR11004260951580011630426000000000000000   10300001 00104100000000002199000000000000     
100   95030305100040620000000000078000000000078000002000000010410404230006500118665620400423211300011866   1030000600030000   554100002085315799420000471DENKO BAHAN            YANGON        MMR11004230006500118660423000000000000000   10300001 00104100000000002340000000000000     
100   62911028202245730000000000021252000000021252002000000010410404230148290089495620400423211301008949   1030000600030000   581200000526315799420000143SIGNATURE FINEDINING 1 YANGON        MMR11004230148290089490423000000000000000   10300001 00104100000000002168000000000000     
100   95050324411430900000000000017000000000017000002000000010410404230223230808113003230423211302080811   1030000600030000   554100000946315799420000471DENKO BAHAN            YANGON        MMR11004230223230808110423000000000000000   10300001 00104100000000002040000000000000     
100   62911028202136750000000000030000000000030000002000000010410404230302550454705620400423211303045470   1030000600030000   554100001001315799420000498DENKO SHWE PYI THAR    YANGON        MMR11004230302550454700423000000000000000   10300001 00104100000000000900000000000000     
100   95030301100121270000000000042000000000042000002000000010410404231021520465535620400423211310046553   1030000600030000   554100001756315799420001137DENKO NORTH DAGON 2    YANGON        MMR11004231021520465530423000000000000000   10300001 00104100000000001260000000000000     
100   95050324622440820000000000023500000000023500002000000010410404230258140064473343610423211302006447   1030000600030000   549900002153315799420001502EASY MART- 003         YANGON        MMR11004230258140064470423000000000000000   10300001 00104100000000009988000000000000     
100   95050320205194540000000000009300000000009300002000000010410404261028563812609629540426446581656115   1030000900030000   541119001266190110000000958City Mart PLST C9      YANGONMYOTHIT MMR11004261028563812600426000000000000000   10300001F00104100000000002325000000000000     
100   95030305700676370000000000050000000000050000002000000010410404260304227215323446310426211610721532   1040001600030000   598320000316000000010000304PT Power Petrol Statio Yangon        MMR11004260304227215320426000000000000000   10300001F00104100000000001500000000000000     
100   95030353248676040000000000027750000000027750002000000010410404261145263834454369000426873151826115   1030000900030000   541119001080190110000000872Sein Gay Har Hledan    YANGONUT      MMR11004261145263834450426000000000000000   10300001F00104100000000001665000000000000     
100   95050313702988830000000000002940000000002940002000000010410404260110534053482266320426000007052854   1020000200030000   333400010001204104000000281Myanmar Soft-Gate Tech Yangon        MMR11004260110534053480426000000000000000   10300001F05104100000000000617000000000000     
100   62911028202466670000000000045600000000045600002000000010410404260727087340754369000426211614734075   1040001600030000   591220000276000000010000264Shwe Ohh Pharmacy (YGH Yangon        MMR11004260727087340750426000000000000000   10300001F00104100000000002736000000000000     
100   62911028202400660000000001187750000001187750002000000010410404260537333742054384510426639071233115   1030000900030000   829919001123190110000000904IIP School             YANGONUT      MMR11004260537333742050426000000000000000   10300001F00104100000000071265000000000000     
100   95050314893649800000000000100000000000100000002000000010410404260512384238094471890426000007054447   1030000200030000   333800010001203104000003327KBZPay                 Yangon        MMR11004260512384238090426000000000000000   10300001F05104100000000021000000000000000     
100   95030367537085740000000000002940000000002940002000000010410404260215524552383156200426000007053137   1020000200030000   333400010001204104000000281Myanmar Soft-Gate Tech Yangon        MMR11004260215524552380426000000000000000   10300001F05104100000000000617000000000000     
100   95050320531117320000000000449000000000449000002000000010410404230717290382837299640423211307038283   1030000600030000   554100001009315799420000504DENKO SOUTH DAGON      YANGON        MMR11004230717290382830423000000000000000   10300001 00104100000000053880000000000000     
100   62911028202680670000000000035000000000035000002000000010410404230023060736815620400423211300073681   1030000600030000   554100000955315799420000477DENKO INSEIN           YANGON        MMR11004230023060736810423000000000000000   10300001 00104100000000001050000000000000     
100   62911028202204070000000000052000000000052000002000000010410404230817360455295620400423211308045529   1030000600030000   554100001001315799420000498DENKO SHWE PYI THAR    YANGON        MMR11004230817360455290423000000000000000   10300001 00104100000000001560000000000000     
100   62911028202616250000000000215470000000215470002000000010410404250800360000424135000425211514000042   1030000500030000   531120201507000085311202015HAGL BLAZON            PTN           MMR11004250800360000420425000000000000000   10300001 00104100000000012928000000000000     
100   62911028202112400000000000024450000000024450002000000010410404250936110000314135000425211516000031   1030000500030000   591220211101014405912202111SHWE OHH PHARMACY      PTN           MMR11004250936110000310425000000000000000   10300001 00104100000000001467000000000000     
100   95050316901496590000000000011800000000011800002000000010410404251004080000387300600425211516000038   1030000500030000   541120045801009205411200458126 STORE              PTN           MMR11004251004080000380425000000000000000   10300001 00104100000000002950000000000000     
100   95030346645639490000000000013132000000013132002000000010410404250322040002103564610425211509000210   1030000500030000   531120155714000045311201557GAMONE PWINT           PTN           MMR11004250322040002100425000000000000000   10300001 00104100000000000788000000000000     
100   95030310098554020000000000060000000000060000002000000010410404250211230000863140510425211508000086   1030000500030000   598320003701000015172200037MAX ENERGY             PTN           MMR11004250211230000860425000000000000000   10300001 00104100000000001800000000000000     
100   62443100343312450000000000101500000000101500002000000010410404260620563752557944690426207501256115   1030000900030000   569119001394190110000000998Classic Export Clothes YANGON        MMR11004260620563752550426000000000000000   10300001F00104100000000024360000000000000     
100   95030308100042590000000000008000000000008000002000000010410404260940343798544369000426592101634115   1030000900030000   541119000122190110000000080Sein Gay Har BAK       YANGONADA     MMR11004260940343798540426000000000000000   10300001F00104100000000000480000000000000     
100   62911028202369990000000000100000000000100000002000000010410404260608163816754369000426000007054898   1030000200030000   333800010001203104000003327KBZPay                 Yangon        MMR11004260608163816750426000000000000000   10300001F05104100000000021000000000000000     
100   62911028202350170000000000050000000000050000002000000010410404260614044404514585200426000007054963   1030000200030000   333800010001203104000003327KBZPay                 Yangon        MMR11004260614044404510426000000000000000   10300001F05104100000000010500000000000000     
100   95030353248676040000000000022500000000022500002000000010410404261224363843374369000426463541836115   1030000900030000   541119001074190110000000872Sein Gay Har Hledan    YANGONUT      MMR11004261224363843370426000000000000000   10300001F00104100000000001350000000000000     
100   95050312210363590000000000010000000000010000002000000010410404261217544754468303650426000007057305   1030000200030000   333800010001203104000003327KBZPay                 Yangon        MMR11004261217544754460426000000000000000   10300001F05104100000000002100000000000000     
100   62911028202789750000000000014000000000014000002000000010410404260258297212623411000426211609721262   1040001600030000   591220000271000000010000259Shwe Ohh Pharmacy (Gwa Yangon        MMR11004260258297212620426000000000000000   10300001F00104100000000000840000000000000     
100   95030394609966640000000000000900000000000900002000000010410404261102247467194369000426211618746719   1040001600030000   591220000303000000010000291Shwe Ohh Pharmacy (Kyu Yangon        MMR11004261102247467190426000000000000000   10300001F00104100000000000054000000000000     
100   95050324250133010000000000020000000000020000002000000010410404250139360004952423600425211508000495   1030000500030000   598320001101000015172200011MAX ENERGY             PTN           MMR11004250139360004950425000000000000000   10300001 00104100000000002400000000000000     
100   95050312962334280000000000011800000000011800002000000010410404250920490001698382230425211515000169   1030000500030000   531120155804000045311201558GAMONE PWINT           PTN           MMR11004250920490001690425000000000000000   10300001 00104100000000002832000000000000     
100   62911028202484080000000000144800000000144800002000000010410404250834390003484135000425211515000348   1030000500030000   503920036604000015039200366PRO-1 HOME CENTER      PTN           MMR11004250834390003480425000000000000000   10300001 00104100000000008688000000000000     
100   62911028202448030000000000140000000000140000002000000010410404250144480005162981010425211508000516   1030000500030000   598320001201000015172200012MAX ENERGY             PTN           MMR11004250144480005160425000000000000000   10300001 00104100000000004200000000000000     
100   95050324154190880000000000044000000000044000002000000010410404251043170004582561540425211517000458   1030000500030000   598320001604000015172200016MAX ENERGY             PTN           MMR11004251043170004580425000000000000000   10300001 00104100000000005280000000000000     
100   62911028202204490000000000045000000000045000002000000010410404241204340124235620400424211412012423   1030000600030000   554100002085315799420000471DENKO BAHAN            YANGON        MMR11004241204340124230424000000000000000   10300001 00104100000000001350000000000000     
100   95050324133333980000000000030000000000030000002000000010410404241114300467011002230424211411046701   1030000600030000   554100001756315799420001137DENKO NORTH DAGON 2    YANGON        MMR11004241114300467010424000000000000000   10300001 00104100000000003600000000000000     
100   95050321232876860000000000081000000000081000002000000010410404240705340353834903150424211407035383   1030000600030000   554100001865315799420001235DENKO NAY PYI TAW 2    NAYPYITAW     MMR11004240705340353830424000000000000000   10300001 00104100000000009720000000000000     
100   95030301100344690000000000020000000000020000002000000010410404240750020489895620400424211407048989   1030000600030000   554100000969315799420000481DENKO NORTH OKKALAPA   YANGON        MMR11004240750020489890424000000000000000   10300001 00104100000000000600000000000000     
100   62443101063232860000000000056000000000056000002000000010410404241029560123909797080424211410012390   1030000600030000   554100002085315799420000471DENKO BAHAN            YANGON        MMR11004241029560123900424000000000000000   10300001 00104100000000006720000000000000     
100   62911028202185590000000000046816000000046816002000000010410404241208440216835620400424211412021683   1030000600030000   554100001118315799420000576DENKO THAN HLYIN - 2   THAN HLYIN    MMR11004241208440216830424000000000000000   10300001 00104100000000001405000000000000     
100   95050321232876860000000000104000000000104000002000000010410404250513330105201842950425211505010520   1030000600030000   554100002328315799420001235DENKO NAY PYI TAW 2    NAYPYITAW     MMR11004250513330105200425000000000000000   10300001 00104100000000012480000000000000     
100   62443100318296470000000000043000000000043000002000000010410404250644560006485244480425211513000648   1030000500030000   598320001302000015172200013MAX ENERGY             PTN           MMR11004250644560006480425000000000000000   10300001 00104100000000005160000000000000     
100   95030341448197210000000000048000000000048000002000000010410404250047140061832622600425211500006183   1030000600030000   554100000841315799420000373DENKO NYAUNG U         NYAUNG U      MMR11004250047140061830425000000000000000   10300001 00104100000000001440000000000000     
100   62911028202442250000000000019000000000019000002000000010410404250124110008772857310425211507000877   1030000500030000   598320001903000015172200019MAX ENERGY             PTN           MMR11004250124110008770425000000000000000   10300001 00104100000000000570000000000000     
100   95030341448197210000000000016000000000016000002000000010410404250259290061863415900425211502006186   1030000600030000   554100002141315799420001490DENKO MEIKHTILA 3      MANDALAY      MMR11004250259290061860425000000000000000   10300001 00104100000000000480000000000000     
100   62911028202324770000000000056000000000056000002000000010410404250902010067914135000425211509006791   1030000600030000   554100001812315799420001187DENKO  SHWE TAUNG      SHWE TAUNG    MMR11004250902010067910425000000000000000   10300001 00104100000000001680000000000000     
100   62911028202318750000000000027000000000027000002000000010410404250421230007423920510425211510000742   1030000500030000   598320001401000015172200014MAX ENERGY             PTN           MMR11004250421230007420425000000000000000   10300001 00104100000000000810000000000000     
100   95030385550669610000000000028875000000028875002000000010410404250903200032844135000425211509003284   1030000600030000   554100002404315799420000480DENKO N.DAGON - 3      YANGON        MMR11004250903200032840425000000000000000   10300001 00104100000000000866000000000000     
100   62443100371022130000000000040000000000040000002000000010410404251146300812811142490425211511081281   1030000600030000   554100000946315799420000471DENKO BAHAN            YANGON        MMR11004251146300812810425000000000000000   10300001 00104100000000004800000000000000     
100   62911028202778600000000000050000000000050000002000000010410404250247330312313344910425211502031231   1030000600030000   554100001016315799420000510DENKO AUNG SAN         YANGON        MMR11004250247330312310425000000000000000   10300001 00104100000000001500000000000000     
100   62911028202778600000000000260000000000260000002000000010410404250304050312333443510425211503031233   1030000600030000   554100001016315799420000510DENKO AUNG SAN         YANGON        MMR11004250304050312330425000000000000000   10300001 00104100000000007800000000000000     
100   95050328212196190000000000061349000000061349002000000010410404261401090064097005340426000746133279   1030000200030000   541188001315000008000000306KBZ BANK               CITY MART - S MMR11004261401090064090426000000000000000   10300001 00104100000000015338000000000000     
100   62911028202472440000000000012000000000012000002000000010410404261449050065104369000426000746136264   1030000200030000   541188001033000008000000298KBZ BANK               CITY MART - M MMR11004261449050065100426000000000000000   10300001 00104100000000000720000000000000     
100   62911028202233510000000000008250000000008250002000000010410404261632540104184369000426000746141088   1030000200030000   541188001081000008000000294KBZ BANK               CITY MART - J MMR11004261632540104180426000000000000000   10300001 00104100000000000495000000000000     
100   62443100323428970000000000053700000000053700002000000010410404261002420157612397980426000746116374   1030000200030000   541188001304000008000000325KBZ BANK               CITY MART - A MMR11004261002420157610426000000000000000   10300001 00104100000000013425000000000000     
100   95050312106296360000000000010000000000010000002000000010410404260645021502926171450426000007055197   1030000200030000   333800010001203104000003327KBZPay                 Yangon        MMR11004260645021502920426000000000000000   10300001F05104100000000002100000000000000     
100   95050314401921990000000000002940000000002940002000000010410404260748431843260991080426000007055702   1020000200030000   333400010001204104000000281Myanmar Soft-Gate Tech Yangon        MMR11004260748431843260426000000000000000   10300001F05104100000000000617000000000000     
100   95050316717221100000000000001960000000001960002000000010410404260558382838811774050426000007054825   1020000200030000   333400010001204104000000281Myanmar Soft-Gate Tech Yangon        MMR11004260558382838810426000000000000000   10300001F05104100000000000412000000000000     
100   95050320335873810000000000000980000000000980002000000010410404260335070507068851510426000007053793   1020000200030000   333400010001204104000000281Myanmar Soft-Gate Tech Yangon        MMR11004260335070507060426000000000000000   10300001F05104100000000000206000000000000     
100   95050316818236190000000000002940000000002940002000000010410404260338210821372156480426000007053828   1020000200030000   333400010001204104000000281Myanmar Soft-Gate Tech Yangon        MMR11004260338210821370426000000000000000   10300001F05104100000000000617000000000000     
100   95030304441505280000000000050000000000050000002000000010410404260751512151784369000426000007055733   1030000300030000   333300010001206104000002147DICA Company Limited   Yangon        MMR11004260751512151780426000000000000000   10300001F05104100000000010000000000000000     
100   62911028202446540000000000041450000000041450002000000010410404262030110219084369000426000746149438   1030000200030000   541188001003000008000000008KBZ BANK               MARKETPLACE - MMR11004262030110219080426000000000000000   10300001 00104100000000002487000000000000     
100   95050315005801680000000000002940000000002940002000000010410404260332380238144135560426000007053766   1020000200030000   333400010001204104000000281Myanmar Soft-Gate Tech Yangon        MMR11004260332380238140426000000000000000   10300001F05104100000000000617000000000000     
100   95030353305053700000000000032000000000032000002000000010410404260832170217814369000426000007056065   1030000200030000   333800010001203104000003327KBZPay                 Yangon        MMR11004260832170217810426000000000000000   10300001F05104100000000006720000000000000     
100   95050312498129060000000000000980000000000980002000000010410404261534370437062799970426000007057981   1020000200030000   333400010001204104000000281Myanmar Soft-Gate Tech Yangon        MMR11004261534370437060426000000000000000   10300001F05104100000000000206000000000000     
100   95050311419479170000000000000980000000000980002000000010410404261538070807991147480426000007057992   1020000200030000   333400010001204104000000281Myanmar Soft-Gate Tech Yangon        MMR11004261538070807990426000000000000000   10300001F05104100000000000206000000000000     
100   95050314448977280000000000045270000000045270002000000010410404260735080508748742920426000007055581   1030000200030000   333800010001203104000003327KBZPay                 Yangon        MMR11004260735080508740426000000000000000   10300001F05104100000000009507000000000000     
100   95050314893649800000000000000980000000000980002000000010410404261254342434398729130426000007057424   1020000200030000   333400010001204104000000281Myanmar Soft-Gate Tech Yangon        MMR11004261254342434390426000000000000000   10300001F05104100000000000206000000000000     
100   95050312498129060000000000005880000000005880002000000010410404261300553055757076650426000007057443   1020000200030000   333400010001204104000000281Myanmar Soft-Gate Tech Yangon        MMR11004261300553055750426000000000000000   10300001F05104100000000001235000000000000     
100   95050319331315630000000000002940000000002940002000000010410404260043051305541071180426000007052784   1020000200030000   333400010001204104000000281Myanmar Soft-Gate Tech Yangon        MMR11004260043051305540426000000000000000   10300001F05104100000000000617000000000000     
100   62443101045531990000000000020000000000020000002000000010410404261440461046297246840426000007057783   1030000200030000   3338000100012031040000040022C2P (Myanmar) Co. Ltd Yangon        MMR11004261440461046290426000000000000000   10300001F05104100000000004200000000000000     
100   95050316818236190000000000002940000000002940002000000010410404261453232323929409910426000007057837   1020000200030000   333400010001204104000000281Myanmar Soft-Gate Tech Yangon        MMR11004261453232323920426000000000000000   10300001F05104100000000000617000000000000     
100   95050311736839760000000000000980000000000980002000000010410404260953242324020771450426000007056692   1020000200030000   333400010001204104000000281Myanmar Soft-Gate Tech Yangon        MMR11004260953242324020426000000000000000   10300001F05104100000000000206000000000000     
100   95050313400081980000000000005000000000005000002000000010410404261206453645329956130426000007057265   1030000200030000   333800010001203104000003327KBZPay                 Yangon        MMR11004261206453645320426000000000000000   10300001F05104100000000001050000000000000     
100   62443100347442560000000000009500000000009500002000000010410404261406060195727090440426000746133546   1030000200030000   541188001070000008000000314KBZ BANK               MARKETPLACE - MMR11004261406060195720426000000000000000   10300001 00104100000000002375000000000000     
100   95050314565805350000000000100000000000100000002000000010410404260545131513116951100426000007054736   1030000200030000   333800010001203104000003327KBZPay                 Yangon        MMR11004260545131513110426000000000000000   10300001F05104100000000021000000000000000     
100   95050311736839760000000000000980000000000980002000000010410404260245131513836809200426000007053319   1020000200030000   333400010001204104000000281Myanmar Soft-Gate Tech Yangon        MMR11004260245131513830426000000000000000   10300001F05104100000000000206000000000000     
100   95030301100126220000000000050000000000050000002000000010410404261444191419514369000426000007057802   1030000200030000   333800010001203104000003327KBZPay                 Yangon        MMR11004261444191419510426000000000000000   10300001F05104100000000010500000000000000     
100   95030367537085740000000000000980000000000980002000000010410404261358552855994369000426000007057641   1020000200030000   333400010001204104000000281Myanmar Soft-Gate Tech Yangon        MMR11004261358552855990426000000000000000   10300001F05104100000000000206000000000000     
100   95050312498129060000000000001960000000001960002000000010410404260853252325671671850426000007056227   1020000200030000   333400010001204104000000281Myanmar Soft-Gate Tech Yangon        MMR11004260853252325670426000000000000000   10300001F05104100000000000412000000000000     
100   95050312498129060000000000006860000000006860002000000010410404261503113311002714870426000007057865   1020000200030000   333400010001204104000000281Myanmar Soft-Gate Tech Yangon        MMR11004261503113311000426000000000000000   10300001F05104100000000001441000000000000     
100   95050319870763910000000000000980000000000980002000000010410404260202193219319285170426000007053057   1020000200030000   333400010001204104000000281Myanmar Soft-Gate Tech Yangon        MMR11004260202193219310426000000000000000   10300001F05104100000000000206000000000000     
100   62911028202472440000000000033175000000033175002000000010410404261443590334404369000426000746135960   1030000200030000   541188001025000008000000298KBZ BANK               CITY MART - M MMR11004261443590334400426000000000000000   10300001 00104100000000001991000000000000     
100   95050316067768680000000000000980000000000980002000000010410404261406063606207161750426000007057659   1020000200030000   333400010001204104000000281Myanmar Soft-Gate Tech Yangon        MMR11004261406063606200426000000000000000   10300001F05104100000000000206000000000000     
100   95050315701710960000000000002940000000002940002000000010410404261103363336586069280426000007057017   1020000200030000   333400010001204104000000281Myanmar Soft-Gate Tech Yangon        MMR11004261103363336580426000000000000000   10300001F05104100000000000617000000000000     
100   95050318741700180000000000004900000000004900002000000010410404260948271827650175770426000007056653   1020000200030000   333400010001204104000000281Myanmar Soft-Gate Tech Yangon        MMR11004260948271827650426000000000000000   10300001F05104100000000001029000000000000     
100   62911028202000450000000000001960000000001960002000000010410404260459532953764140100426000007054361   1020000200030000   333400010001204104000000281Myanmar Soft-Gate Tech Yangon        MMR11004260459532953760426000000000000000   10300001F05104100000000000412000000000000     
100   95050316067768680000000000000980000000000980002000000010410404261404093409248814230426000007057655   1020000200030000   333400010001204104000000281Myanmar Soft-Gate Tech Yangon        MMR11004261404093409240426000000000000000   10300001F05104100000000000206000000000000     
100   62911028202091860000000000002940000000002940002000000010410404260904093409994369000426000007056306   1020000200030000   333400010001204104000000281Myanmar Soft-Gate Tech Yangon        MMR11004260904093409990426000000000000000   10300001F05104100000000000617000000000000     
100   95050316818236190000000000001960000000001960002000000010410404260232270227830539650426000007053230   1020000200030000   333400010001204104000000281Myanmar Soft-Gate Tech Yangon        MMR11004260232270227830426000000000000000   10300001F05104100000000000412000000000000     
100   95050310409767690000000000007000000000007000002000000010410404260342001200048681320426000007053862   1030000200030000   333800010001203104000003327KBZPay                 Yangon        MMR11004260342001200040426000000000000000   10300001F05104100000000001470000000000000     
100   95050316997303010000000000002940000000002940002000000010410404261506093609701062390426000007057879   1020000200030000   333400010001204104000000281Myanmar Soft-Gate Tech Yangon        MMR11004261506093609700426000000000000000   10300001F05104100000000000617000000000000     
100   95050313710136610000000000002940000000002940002000000010410404260103443344956521350426000007052823   1020000200030000   333400010001204104000000281Myanmar Soft-Gate Tech Yangon        MMR11004260103443344950426000000000000000   10300001F05104100000000000617000000000000     
100   62911028202616250000000000053744000000053744002000000010410404261446530181244369000426000746136131   1030000200030000   541188001055000008000000314KBZ BANK               MARKETPLACE - MMR11004261446530181240426000000000000000   10300001 00104100000000003225000000000000     
100   95050315122972560000000000001960000000001960002000000010410404260502513251242769960426000007054381   1020000200030000   333400010001204104000000281Myanmar Soft-Gate Tech Yangon        MMR11004260502513251240426000000000000000   10300001F05104100000000000412000000000000     
100   95030301100354740000000000030000000000030000002000000010410404261139540954374369000426000007057160   1030000200030000   333800010001203104000003327KBZPay                 Yangon        MMR11004261139540954370426000000000000000   10300001F05104100000000006300000000000000     
100   95050311077567400000000000000980000000000980002000000010410404260900243024740104470426000007056285   1020000200030000   333400010001204104000000281Myanmar Soft-Gate Tech Yangon        MMR11004260900243024740426000000000000000   10300001F05104100000000000206000000000000     
100   95030367537085740000000000001960000000001960002000000010410404260337580758753648510426000007053824   1020000200030000   333400010001204104000000281Myanmar Soft-Gate Tech Yangon        MMR11004260337580758750426000000000000000   10300001F05104100000000000412000000000000     
100   95050318741700180000000000002940000000002940002000000010410404260236450645853844610426000007053256   1020000200030000   333400010001204104000000281Myanmar Soft-Gate Tech Yangon        MMR11004260236450645850426000000000000000   10300001F05104100000000000617000000000000     
100   62911028202905250000000000001400000000001400002000000010410404261341441144084369000426000007057584   1030000200030000   333800010001203104000003327KBZPay                 Yangon        MMR11004261341441144080426000000000000000   10300001F05104100000000000294000000000000     
100   95050317003064220000000000004900000000004900002000000010410404261157542754100296520426000007057238   1020000200030000   333400010001204104000000281Myanmar Soft-Gate Tech Yangon        MMR11004261157542754100426000000000000000   10300001F05104100000000001029000000000000     
100   95050319938772870000000000003920000000003920002000000010410404261450442044140551810426000007057830   1020000200030000   333400010001204104000000281Myanmar Soft-Gate Tech Yangon        MMR11004261450442044140426000000000000000   10300001F05104100000000000823000000000000     
100   62911028202019440000000000026050000000026050002000000010410404260033123682012558410426258030712115   1030000900030000   541119001261190110000000958City Mart PLST C 4     YANGONMYOTHIT MMR11004260033123682010426000000000000000   10300001F00104100000000001563000000000000     
100   62911028202142100000000000000980000000000980002000000010410404260204513451363089810426000007053071   1020000200030000   333400010001204104000000281Myanmar Soft-Gate Tech Yangon        MMR11004260204513451360426000000000000000   10300001F05104100000000000206000000000000     
100   95050319870763910000000000000980000000000980002000000010410404260203513351944037280426000007053064   1020000200030000   333400010001204104000000281Myanmar Soft-Gate Tech Yangon        MMR11004260203513351940426000000000000000   10300001F05104100000000000206000000000000     
100   95050318131043910000000000000980000000000980002000000010410404260932530253733395640426000007056539   1020000200030000   333400010001204104000000281Myanmar Soft-Gate Tech Yangon        MMR11004260932530253730426000000000000000   10300001F05104100000000000206000000000000     
100   62911028202446700000000000161000000000161000002000000010410404261134000400664369000426000007057118   1030000200030000   333800010001203104000003327KBZPay                 Yangon        MMR11004261134000400660426000000000000000   10300001F05104100000000033810000000000000     
100   62911028202000450000000000004900000000004900002000000010410404260552142214814369000426000007054786   1020000200030000   333400010001204104000000281Myanmar Soft-Gate Tech Yangon        MMR11004260552142214810426000000000000000   10300001F05104100000000001029000000000000     
100   95050312498129060000000000001960000000001960002000000010410404261303223322832034100426000007057452   1020000200030000   333400010001204104000000281Myanmar Soft-Gate Tech Yangon        MMR11004261303223322830426000000000000000   10300001F05104100000000000412000000000000     
100   95050312360118350000000000003000000000003000002000000010410404260137060706394533920426000007052939   1030000200030000   3334000100012031040000040102C2P (Myanmar) Co. Ltd Yangon        MMR11004260137060706390426000000000000000   10300001F05104100000000000630000000000000     
100   62443100392426520000000000010000000000010000002000000010410404260446501650407024780426000007054267   1030000200030000   333800010001203104000003327KBZPay                 Yangon        MMR11004260446501650400426000000000000000   10300001F05104100000000002100000000000000     
100   95050325139996190000000000003300000000003300002000000010410404260319214921741170980426000007053614   1030000200030000   333300010001203104000003632Myanmar Tradenet Test  Yangon        MMR11004260319214921740426000000000000000   10300001F05104100000000010000000000000000     
100   95050318741700180000000000000980000000000980002000000010410404261117174717111707500426000007057055   1020000200030000   333400010001204104000000281Myanmar Soft-Gate Tech Yangon        MMR11004261117174717110426000000000000000   10300001F05104100000000000206000000000000     
100   95050324773225760000000000015000000000015000002000000010410404261627535753104452450426000007058096   1030000200030000   333800010001203104000003327KBZPay                 Yangon        MMR11004261627535753100426000000000000000   10300001F05104100000000003150000000000000     
100   95050319928585020000000000001960000000001960002000000010410404261212524252044998690426000007057278   1020000200030000   333400010001204104000000281Myanmar Soft-Gate Tech Yangon        MMR11004261212524252040426000000000000000   10300001F05104100000000000412000000000000     
100   95050318741700180000000000004900000000004900002000000010410404261211454145983261110426000007057276   1020000200030000   333400010001204104000000281Myanmar Soft-Gate Tech Yangon        MMR11004261211454145980426000000000000000   10300001F05104100000000001029000000000000     
100   95050310332595380000000000004900000000004900002000000010410404261126495649778487630426000007057090   1020000200030000   333400010001204104000000281Myanmar Soft-Gate Tech Yangon        MMR11004261126495649770426000000000000000   10300001F05104100000000001029000000000000     
100   95050316110433120000000000016000000000016000002000000010410404260908093791106955900426227381509115   1030000900030000   541119001218190110000000945City Mart TM C 3       YANGONONE     MMR11004260908093791100426000000000000000   10300001F00104100000000004000000000000000     
100   62911028202446700000000000300000000000300000002000000010410404260920055005774369000426000007056434   1030000500030000   333800010001201104000003863AYA Pay                Yangon        MMR11004260920055005770426000000000000000   10300001F05104100000000063000000000000000     
100   62911028202184760000000000030000000000030000002000000010410404260611587305734572000426211613730573   1040001600030000   598320000911000000010000662MMTM - Tamwe           Ygn           MMR11004260611587305730426000000000000000   10300001F00104100000000000900000000000000     
100   62443100347442560000000000027000000000027000002000000010410404260755343774240735790426393251434115   1030000900030000   569119001496190110000001090Next Generation GCS JC YANGONN       MMR11004260755343774240426000000000000000   10300001F00104100000000006480000000000000     
100   62443100357925510000000000072350000000072350002000000010410404261003183804922253730426955331618115   1030000900030000   541119001206190110000000948City Mart YK C 4       YANGONAUNG    MMR11004261003183804920426000000000000000   10300001F00104100000000018088000000000000     
100   62911028202142100000000000002500000000002500002000000010410404261214084408104369000426000007057281   1030000900030000   333400010001202104000002022ACS                    Yangon        MMR11004261214084408100426000000000000000   10300001F05104100000000000525000000000000     
100   95050325139996190000000000003300000000003300002000000010410404260326245624710915690426000007053693   1030000200030000   333300010001203104000003632Myanmar Tradenet Test  Yangon        MMR11004260326245624710426000000000000000   10300001F05104100000000010000000000000000     
100   95050325139996190000000000003300000000003300002000000010410404260322035203187355430426000007053640   1030000200030000   333300010001203104000003632Myanmar Tradenet Test  Yangon        MMR11004260322035203180426000000000000000   10300001F05104100000000010000000000000000     
100   95050316818236190000000000002940000000002940002000000010410404260229445944110624740426000007053217   1020000200030000   333400010001204104000000281Myanmar Soft-Gate Tech Yangon        MMR11004260229445944110426000000000000000   10300001F05104100000000000617000000000000     
100   95050311419479170000000000000980000000000980002000000010410404260216254625927514640426000007053133   1020000200030000   333400010001204104000000281Myanmar Soft-Gate Tech Yangon        MMR11004260216254625920426000000000000000   10300001F05104100000000000206000000000000     
100   95050313836159580000000000040000000000040000002000000010410404261009523952487381380426000007056787   1030000200030000   333800010001203104000003327KBZPay                 Yangon        MMR11004261009523952480426000000000000000   10300001F05104100000000008400000000000000     
100   95050312106296360000000000010100000000010100002000000010410404261026285628619544450426000007056867   1030000200030000   333800010001203104000003327KBZPay                 Yangon        MMR11004261026285628610426000000000000000   10300001F05104100000000002121000000000000     
100   95050320335873810000000000020000000000020000002000000010410404260522375237063620920426000007054554   1030000200030000   333800010001203104000003327KBZPay                 Yangon        MMR11004260522375237060426000000000000000   10300001F05104100000000004200000000000000     
100   95050329252108030000000000020000000000020000002000000010410404260938157404351828260426211616740435   1040001600030000   598320000911000000010000662MMTM - Tamwe           Ygn           MMR11004260938157404350426000000000000000   10300001F00104100000000002400000000000000     
100   62911028202400660000000000200000000000200000002000000010410404260528253739684329700426528581125115   1030000900030000   829919001123190110000000904IIP School             YANGONUT      MMR11004260528253739680426000000000000000   10300001F00104100000000012000000000000000     
100   95050325139996190000000000003300000000003300002000000010410404260324355435700575300426000007053663   1030000200030000   333300010001203104000003632Myanmar Tradenet Test  Yangon        MMR11004260324355435700426000000000000000   10300001F05104100000000010000000000000000     
100   95050311382087030000000000002940000000002940002000000010410404260325035503247185240426000007053650   1020000200030000   333400010001204104000000281Myanmar Soft-Gate Tech Yangon        MMR11004260325035503240426000000000000000   10300001F05104100000000000617000000000000     
100   95050319111666800000000000000980000000000980002000000010410404261319164916850381620426000007057497   1020000200030000   333400010001204104000000281Myanmar Soft-Gate Tech Yangon        MMR11004261319164916850426000000000000000   10300001F05104100000000000206000000000000     
100   62443100347442560000000000036000000000036000002000000010410404260802229229883494530426537441449115   1030000300030000   555510111681104519000010027VNC Fashion                          MMR11004260802229229880426000000000000000   10300001 00104100000000008640000000000000     
100   62911028202261800000000000077579000000077579002000000010410404260426259202503670700426583011104115   1030000500030000   555610118958104519000016137City Mart South Okkala WZYD BR       MMR11004260426259202500426000000000000000   10300001 00104100000000004655000000000000     
100   62911028202691640000000000131710000000131710002000000010410404260824239230964369000426669541449115   1030000500030000   555610112240104519000010487Ocean Super Center St  ohn           MMR11004260824239230960426000000000000000   10300001 00104100000000007903000000000000     
100   62911028202495390000000000004349000000004349002000000010410404261121069254294369000426460521718115   1030000500030000   555610110576104519000009164City Mart China Town P int Cen       MMR11004261121069254290426000000000000000   10300001 00104100000000000261000000000000     
100   95030301100095370000000000047100000000047100002000000010410404260800389228324369000426373311404115   1030000500030000   555610114570104519000012532City Mart Ahlone Branc               MMR11004260800389228320426000000000000000   10300001 00104100000000002826000000000000     
100   62911028202790980000000005000000000005000000002000000010410404260324179196453583600426980560949115   1030000300030000   555510112975104519000011137Kaung Htet Computer N  obile         MMR11004260324179196450426000000000000000   10300001 00104100000000300000000000000000     
100   62911028202072060000000000005600000000005600002000000010410404260946069240754369000426848161612115   1030000300030000   444410123123104519000019377YKKO Sanchaung                       MMR11004260946069240750426000000000000000   10300001 00104100000000000571000000000000     
100   62911028202463780000000000031800000000031800002000000010410404260906469235964369000426267371520115   1030000500030000   555610110576104519000009164City Mart China Town P int Cen       MMR11004260906469235960426000000000000000   10300001 00104100000000001908000000000000     
100   95050312539675540000000000003000000000003000002000000010410404241016040063736747410424211410006373   1030000600030000   554100002139315799420001488DENKO MDY-12           MANDALAY      MMR11004241016040063730424000000000000000   10300001 00104100000000000360000000000000     
100   95050313763920110000000000020000000000020000002000000010410404260449371937910499950426000007054279   1030000200030000   333800010001203104000003327KBZPay                 Yangon        MMR11004260449371937910426000000000000000   10300001F05104100000000004200000000000000     
100   62443100333488440000000000015000000000015000002000000010410404240452490061584647860424211404006158   1030000600030000   554100002141315799420001490DENKO MEIKHTILA 3      MANDALAY      MMR11004240452490061580424000000000000000   10300001 00104100000000001800000000000000     
100   62443100379321630000000000060000000000060000002000000010410404250937330004138815180425211516000413   1030000500030000   598320001204000015172200012MAX ENERGY             PTN           MMR11004250937330004130425000000000000000   10300001 00104100000000007200000000000000     
100   62911028202194090000000000075300000000075300002000000010410404260421559201613670700426468521047115   1030000300030000   555510124689104519000020166Makro Myanmar                        MMR11004260421559201610426000000000000000   10300001 00104100000000004518000000000000     
100   62911028202195080000000000025950000000025950002000000010410404250812280030264135000425211508003026   1030000600030000   5499000022283157994200015671 STOP S M BOGYOKE RD  YANGON        MMR11004250812280030260425000000000000000   10300001 00104100000000002647000000000000     
100   62911028202665580000000000088600000000088600002000000010410404250956250001614135000425211516000161   1030000500030000   806220172402013008062201724GRAND HANTHA HOSPITAL  PTN           MMR11004250956250001610425000000000000000   10300001 00104100000000005316000000000000     
100   62911028202809060000000000019635000000019635002000000010410404240139110123245620400424211401012324   1030000600030000   581200000524315799420000141FUJI COFFEE HOUSE      YANGON        MMR11004240139110123240424000000000000000   10300001 00104100000000002003000000000000     
100   62443100323428970000000000023000000000023000002000000010410404240951060123703414830424211409012370   1030000600030000   554100002085315799420000471DENKO BAHAN            YANGON        MMR11004240951060123700424000000000000000   10300001 00104100000000002760000000000000     
100   95050314307746340000000000000980000000000980002000000010410404260746271627569253500426000007055683   1020000200030000   333400010001204104000000281Myanmar Soft-Gate Tech Yangon        MMR11004260746271627560426000000000000000   10300001F05104100000000000206000000000000     
100   95050322426452690000000000060000000000060000002000000010410404231141290107460796670423211311010746   1030000600030000   554100001217315799420000669DENKO PHAYAR GYI       BAGO          MMR11004231141290107460423000000000000000   10300001 00104100000000007200000000000000     
100   95050315701710960000000000000980000000000980002000000010410404261233210321259069520426000007057359   1020000200030000   333400010001204104000000281Myanmar Soft-Gate Tech Yangon        MMR11004261233210321250426000000000000000   10300001F05104100000000000206000000000000     
100   95050314931885730000000000000980000000000980002000000010410404260036130613666745050426000007052767   1020000200030000   333400010001204104000000281Myanmar Soft-Gate Tech Yangon        MMR11004260036130613660426000000000000000   10300001F05104100000000000206000000000000     
100   95050312498129060000000000002940000000002940002000000010410404261320065006142119200426000007057503   1020000200030000   333400010001204104000000281Myanmar Soft-Gate Tech Yangon        MMR11004261320065006140426000000000000000   10300001F05104100000000000617000000000000     
100   95050313732480420000000000002940000000002940002000000010410404260003463346605894080426000007052695   1020000200030000   333400010001204104000000281Myanmar Soft-Gate Tech Yangon        MMR11004260003463346600426000000000000000   10300001F05104100000000000617000000000000     
100   95050319391394380000000000013350000000013350002000000010410404261005173805565643800426992351617115   1030000900030000   541119000124190110000000080Sein Gay Har BAK       YANGONADA     MMR11004261005173805560426000000000000000   10300001F00104100000000003338000000000000     
100   62911028202495390000000000011300000000011300002000000010410404261211029261274369000426293401849115   1030000500030000   555610110572104519000009164City Mart China Town P int Cen       MMR11004261211029261270426000000000000000   10300001 00104100000000000678000000000000     
100   95050314950595330000000000001000000000001000002000000010410404261105063506664501900426000007057023   1030000200030000   3338000100012031040000040022C2P (Myanmar) Co. Ltd Yangon        MMR11004261105063506660426000000000000000   10300001F05104100000000000210000000000000     
100   95050316949180000000000000000980000000000980002000000010410404260819114911005147020426000007055964   1020000200030000   333400010001204104000000281Myanmar Soft-Gate Tech Yangon        MMR11004260819114911000426000000000000000   10300001F05104100000000000206000000000000     
100   62443100306416880000000000021500000000021500002000000010410404261115213826880055020426372451721115   1030000900030000   723019001054190110000000857Beauty Diary JC        YANGONN       MMR11004261115213826880426000000000000000   10300001F00104100000000005160000000000000     
100   62443100369813440000000000030000000000030000002000000010410404230101570807959017490423211301080795   1030000600030000   554100000946315799420000471DENKO BAHAN            YANGON        MMR11004230101570807950423000000000000000   10300001 00104100000000003600000000000000     
100   62911028202284260000000000019903000000019903002000000010410404250519160002004135000425211511000200   1030000500030000   806220172406013008062201724GRAND HANTHA HOSPITAL  PTN           MMR11004250519160002000425000000000000000   10300001 00104100000000001194000000000000     
100   95050312962334280000000000007400000000007400002000000010410404250940010006188102060425211516000618   1030000500030000   531120155803000045311201558GAMONE PWINT           PTN           MMR11004250940010006180425000000000000000   10300001 00104100000000001776000000000000     
100   62911028202778600000000000280086000000280086002000000010410404250302060312323432300425211503031232   1030000600030000   554100001016315799420000510DENKO AUNG SAN         YANGON        MMR11004250302060312320425000000000000000   10300001 00104100000000008403000000000000     
100   95050319938772870000000000002940000000002940002000000010410404261415174517998899330426000007057703   1020000200030000   333400010001204104000000281Myanmar Soft-Gate Tech Yangon        MMR11004261415174517990426000000000000000   10300001F05104100000000000617000000000000     
100   62911028202369990000000000200000000000200000002000000010410404260613294329674369000426000007054953   1030000200030000   333800010001203104000003327KBZPay                 Yangon        MMR11004260613294329670426000000000000000   10300001F05104100000000042000000000000000     
100   95050318131043910000000000001960000000001960002000000010410404260907533753221998450426000007056336   1020000200030000   333400010001204104000000281Myanmar Soft-Gate Tech Yangon        MMR11004260907533753220426000000000000000   10300001F05104100000000000412000000000000     
100   95050314401921990000000000002940000000002940002000000010410404260342211221250333800426000007053865   1020000200030000   333400010001204104000000281Myanmar Soft-Gate Tech Yangon        MMR11004260342211221250426000000000000000   10300001F05104100000000000617000000000000     
100   95050313062063490000000000002940000000002940002000000010410404260542171217319432680426000007054724   1020000200030000   333400010001204104000000281Myanmar Soft-Gate Tech Yangon        MMR11004260542171217310426000000000000000   10300001F05104100000000000617000000000000     
100   62911028202076850000000000000980000000000980002000000010410404261226485648294369000426000007057336   1020000200030000   333400010001204104000000281Myanmar Soft-Gate Tech Yangon        MMR11004261226485648290426000000000000000   10300001F05104100000000000206000000000000     
100   62911028202318750000000000062200000000062200002000000010410404260955563802974369000426843251656115   1030000900030000   591219000688190110000000519Shwe Ohh Pharmacy ST-7 YANGONUNG     MMR11004260955563802970426000000000000000   10300001F00104100000000003732000000000000     
100   95050320531117320000000000410000000000410000002000000010410404230723040382882342190423211307038288   1030000600030000   554100001009315799420000504DENKO SOUTH DAGON      YANGON        MMR11004230723040382880423000000000000000   10300001 00104100000000049200000000000000     
100   95050313836159580000000000003000000000003000002000000010410404261003043304390601250426000007056747   1030000200030000   3334000100012031040000040102C2P (Myanmar) Co. Ltd Yangon        MMR11004261003043304390426000000000000000   10300001F05104100000000000630000000000000     
100   95030301100126550000000000042000000000042000002000000010410404240426310456195620400424211404045619   1030000600030000   554100001001315799420000498DENKO SHWE PYI THAR    YANGON        MMR11004240426310456190424000000000000000   10300001 00104100000000001260000000000000     
100   95050319928585020000000000001960000000001960002000000010410404261354552455745424170426000007057624   1020000200030000   333400010001204104000000281Myanmar Soft-Gate Tech Yangon        MMR11004261354552455740426000000000000000   10300001F05104100000000000412000000000000     
100   95050318057347910000000000001960000000001960002000000010410404261457442744297757420426000007057847   1020000200030000   333400010001204104000000281Myanmar Soft-Gate Tech Yangon        MMR11004261457442744290426000000000000000   10300001F05104100000000000412000000000000     
100   95050312498129060000000000000980000000000980002000000010410404260232250225102277230426000007053236   1020000200030000   333400010001204104000000281Myanmar Soft-Gate Tech Yangon        MMR11004260232250225100426000000000000000   10300001F05104100000000000206000000000000     
100   62911028202023630000000000056000000000056000002000000010410404230603190258605620400423211306025860   1030000600030000   554100000725315799420000306DENKO MDY - 78         MANDALAY      MMR11004230603190258600423000000000000000   10300001 00104100000000001680000000000000     
