100   62911028202169750000000000057551000000057551002000000010410404270829199337164369000427648031540116   1030000500030000   555610103477104519000003432City Mart Junction Zaw na 4          MMR11004270829199337160427000000000000000   10300001 00104100000000003453000000000000     
100   95050320531117320000000000009400000000009400002000000010410404270756309332827068570427185261421116   1030000300030000   555510124691104519000020166Makro Myanmar                        MMR11004270756309332820427000000000000000   10300001 00104100000000002256000000000000     
100   62443101023815100000000000023815000000023815002000000010410404271005379348766423460427991391620116   1030000500030000   555610114571104519000012532City Mart Ahlone Branc               MMR11004271005379348760427000000000000000   10300001 00104100000000005954000000000000     
100   62911028202207380000000000009050000000009050002000000010410404270151379296394369000427335240811116   1030000500030000   555610120171104519000017155City Care Standalone S oreCity       MMR11004270151379296390427000000000000000   10300001 00104100000000000543000000000000     
100   62911028202162640000000000027509000000027509002000000010410404271029079351674369000427318001756116   1030000500030000   555610121986104519000018427Neighbourhood Store Hi hway Ze       MMR11004271029079351670427000000000000000   10300001 00104100000000001651000000000000     
100   62911028202151340000000000011200000000011200002000000010410404270912219341554369000427123421521116   1030000300030000   444410125393104519000021220Myanmar Bakery CoLtd                 MMR11004270912219341550427000000000000000   10300001 00104100000000001142000000000000     
100   95030301100124400000000000007600000000007600002000000010410404270211039297824369000427470570849116   1030000300030000   444410125270104519000021124SP Bakery North Dagon  apital        MMR11004270211039297820427000000000000000   10300001 00104100000000000775000000000000     
100   62911028202403300000000000009700000000009700002000000010410404270510599312754369000427905441132116   1030000300030000   444410125271104519000021125SP Bakery San YeikNyei GMP           MMR11004270510599312750427000000000000000   10300001 00104100000000000989000000000000     
100   62911028202910850000000000001350000000001350002000000010410404270431399308634369000427513061133116   1030000500030000   555610112649104519000010844City Express MCS 20                  MMR11004270431399308630427000000000000000   10300001 00104100000000000081000000000000     
100   62911028202684060000000000008800000000008800002000000010410404270712099328384369000427685451317116   1030000500030000   555610122580104519000018896City Mart Hlaing Thar  ar            MMR11004270712099328380427000000000000000   10300001 00104100000000000528000000000000     
100   95030373033018450000000000009063000000009063002000000010410404271111189357674369000427022421747116   1030000500030000   555610118964104519000016137City Mart South Okkala WZYD BR       MMR11004271111189357670427000000000000000   10300001 00104100000000000544000000000000     
100   95030301504712580000000000017550000000017550002000000010410404271232239369714369000427439101949116   1030000500030000   555610118966104519000016137City Mart South Okkala WZYD BR       MMR11004271232239369710427000000000000000   10300001 00104100000000001053000000000000     
100   62911028202423360000000000005000000000005000002000000010410404271321239373814369000427850561922116   1030000500030000   555610104043104519000003821City Mart North Point  enter         MMR11004271321239373810427000000000000000   10300001 00104100000000000300000000000000     
100   62443100358839880000000000044000000000044000002000000010410404270950119346561636200427708221649116   1030000300030000   444410118915104519000016097SP Bakery Yangon SR 1                MMR11004270950119346560427000000000000000   10300001 00104100000000018700000000000000     
100   95030373033018450000000000003500000000003500002000000010410404271117319358484369000427109481729116   1030000500030000   555610118972104519000016137City Mart South Okkala WZYD BR       MMR11004271117319358480427000000000000000   10300001 00104100000000000210000000000000     
100   95050317919176400000000000006724000000006724002000000010410404271340499374955968040427979112014116   1030000500030000   555610120947104519000017714City Mart Yuzana Dagon Seikkan       MMR11004271340499374950427000000000000000   10300001 00104100000000001681000000000000     
100   62911028202221220000000000008800000000008800002000000010410404270807220001524369000427000746160619   1030000200030000   541188001288000008000001475KBZ BANK               CITY CARE STA MMR11004270807220001520427000000000000000   10300001 00104100000000000528000000000000     
100   62911028202169750000000000021916000000021916002000000010410404271544400013754369000427000746184931   1030000200030000   541188001004000008000000008KBZ BANK               MARKETPLACE - MMR11004271544400013750427000000000000000   10300001 00104100000000001315000000000000     
100   95050316355723530000000000000980000000000980002000000010410404271030370037246848940427000007062858   1020000200030000   333400010001204104000000281Myanmar Soft-Gate Tech Yangon        MMR11004271030370037240427000000000000000   10300001F05104100000000000206000000000000     
100   95050320684106730000000000005000000000005000002000000010410404270330170017041353330427000007059412   1030000200030000   3338000100012031040000040022C2P (Myanmar) Co. Ltd Yangon        MMR11004270330170017040427000000000000000   10300001F05104100000000001050000000000000     
100   95050310719071210000000000010200000000010200002000000010410404271652160039388671620427000746187672   1030000200030000   541188001428000008000000401KBZ BANK               OCEAN SUPERCE MMR11004271652160039380427000000000000000   10300001 00104100000000002550000000000000     
100   62911028202221220000000000003950000000003950002000000010410404270056090006854369000427000746159996   1030000200030000   541188000966000008000004949KBZ BANK               EASY-7        MMR11004270056090006850427000000000000000   10300001 00104100000000000237000000000000     
100   95050310719071210000000000003400000000003400002000000010410404271656130036000494290427000746187875   1030000200030000   541188001447000008000000401KBZ BANK               OCEAN SUPERCE MMR11004271656130036000427000000000000000   10300001 00104100000000000850000000000000     
100   62911028202231380000000000010300000000010300002000000010410404271407230016224369000427000746180148   1030000200030000   541188001079000008000000294KBZ BANK               CITY MART - J MMR11004271407230016220427000000000000000   10300001 00104100000000000618000000000000     
100   95050312962334280000000000006243000000006243002000000010410404251012170002654250900425211516000265   1030000500030000   531120155802000045311201558GAMONE PWINT           PTN           MMR11004251012170002650425000000000000000   10300001 00104100000000001498000000000000     
100   62443100347442560000000000023310000000023310002000000010410404260831410000509934270426211615000050   1030000500030000   569120089901000035691200899NICHII                 PTN           MMR11004260831410000500426000000000000000   10300001 00104100000000005594000000000000     
100   62911028202778600000000000240000000000240000002000000010410404260249410049283357710426211602004928   1030000600030000   554100001211315799420000663DENKO  TETKONE         TETKONE       MMR11004260249410049280426000000000000000   10300001 00104100000000007200000000000000     
100   95050324622440820000000000036080000000036080002000000010410404260954520000752509030426211616000075   1030000500030000   581220199401000085812201994LITTLE BOSS MAWTIN     PTN           MMR11004260954520000750426000000000000000   10300001 00104100000000015334000000000000     
100   62911028202421040000000000011450000000011450002000000010410404270935429346674369000427729231646116   1030000500030000   555610122582104519000018896City Mart Hlaing Thar  ar            MMR11004270935429346670427000000000000000   10300001 00104100000000000687000000000000     
100   62911028202170490000000000011716000000011716002000000010410404271034449352354369000427400061723116   1030000500030000   555610112235104519000010487Ocean Super Center St  ohn           MMR11004271034449352350427000000000000000   10300001 00104100000000000703000000000000     
100   95050319122743920000000000016200000000016200002000000010410404271101439358564946880427121491712116   1030000300030000   444410125270104519000021124SP Bakery North Dagon  apital        MMR11004271101439358560427000000000000000   10300001 00104100000000006885000000000000     
100   62911028202910850000000000003550000000003550002000000010410404271218039367434369000427163541801116   1030000500030000   555610112649104519000010844City Express MCS 20                  MMR11004271218039367430427000000000000000   10300001 00104100000000000213000000000000     
100   62911028202166940000000000046650000000046650002000000010410404270911150111634369000427000746161909   1030000200030000   541188001127000008000000296KBZ BANK               CITY MART - J MMR11004270911150111630427000000000000000   10300001 00104100000000002799000000000000     
100   62911028202231380000000000004900000000004900002000000010410404271404200174544369000427000746179967   1030000200030000   541188001082000008000000294KBZ BANK               CITY MART - J MMR11004271404200174540427000000000000000   10300001 00104100000000000294000000000000     
100   95050312695033440000000000001960000000001960002000000010410404271134370437520500010427000007063144   1020000200030000   333400010001204104000000281Myanmar Soft-Gate Tech Yangon        MMR11004271134370437520427000000000000000   10300001F05104100000000000412000000000000     
100   95050317743858310000000000050000000000050000002000000010410404270946591659548161040427000007062631   1030000200030000   3338000100012031040000040022C2P (Myanmar) Co. Ltd Yangon        MMR11004270946591659540427000000000000000   10300001F05104100000000010500000000000000     
100   62911028202696360000000000009630000000009630002000000010410404271632360238354369000427000746186896   1030000200030000   541188001038000008000000010KBZ BANK               MARKETPLACE - MMR11004271632360238350427000000000000000   10300001 00104100000000000578000000000000     
100   95050316785465380000000000001960000000001960002000000010410404270842291229097139880427000007062139   1020000200030000   333400010001204104000000281Myanmar Soft-Gate Tech Yangon        MMR11004270842291229090427000000000000000   10300001F05104100000000000412000000000000     
100   95050315439834520000000000008000000000008000002000000010410404270247301730363977530427000007059025   1030000200030000   333800010001203104000003327KBZPay                 Yangon        MMR11004270247301730360427000000000000000   10300001F05104100000000001680000000000000     
100   95050312498129060000000000000980000000000980002000000010410404270258582858021984660427000007059094   1020000200030000   333400010001204104000000281Myanmar Soft-Gate Tech Yangon        MMR11004270258582858020427000000000000000   10300001F05104100000000000206000000000000     
100   62911028202595200000000000111100000000111100002000000010410404260302250000093446810426211609000009   1030000500030000   541120129719000045411201297MAKRO MYANMAR          PTN           MMR11004260302250000090426000000000000000   10300001 00104100000000006666000000000000     
100   62911028202195080000000000096540000000096540002000000010410404271207138178834369000427211719817883   1040001600030000   541120000575000000010000465Ocean Shwe Gone Daing  Yangon        MMR11004271207138178830427000000000000000   10300001F00104100000000005792000000000000     
100   62443100343312450000000000017604000000017604002000000010410404271013419349481976590427084441619116   1030000500030000   555610123194104519000019444Neighbourhood Shwe Moe Kaung         MMR11004271013419349480427000000000000000   10300001 00104100000000004401000000000000     
100   62443100364681690000000000015142000000015142002000000010410404271209099365427195040427935381853116   1030000500030000   555610110570104519000009164City Mart China Town P int Cen       MMR11004271209099365420427000000000000000   10300001 00104100000000003786000000000000     
100   95030359673103830000000000001500000000001500002000000010410404260637170003804369000426211613000380   1030000500030000   531120156008000045311201560GAMONE PWINT           PTN           MMR11004260637170003800426000000000000000   10300001 00104100000000000090000000000000     
100   62911028202423360000000000001600000000001600002000000010410404271329399374154369000427882002022116   1030000500030000   555610104032104519000003821City Mart North Point  enter         MMR11004271329399374150427000000000000000   10300001 00104100000000000096000000000000     
100   95050317176867660000000000001960000000001960002000000010410404270708293829272572260427000007061369   1020000200030000   333400010001204104000000281Myanmar Soft-Gate Tech Yangon        MMR11004270708293829270427000000000000000   10300001F05104100000000000412000000000000     
100   95050321379436960000000000293000000000293000002000000010410404261201140000095253970426211618000009   1030000500030000   481220050001020104812200500TELE MOBILE            PTN           MMR11004261201140000090426000000000000000   10300001 00104100000000070320000000000000     
100   95050310902464360000000000002940000000002940002000000010410404271543571357254060270427000007063940   1020000200030000   333400010001204104000000281Myanmar Soft-Gate Tech Yangon        MMR11004271543571357250427000000000000000   10300001F05104100000000000617000000000000     
100   95030315150842990000000000015950000000015950002000000010410404271228580083804369000427000746173743   1030000200030000   541188001060000008000000314KBZ BANK               MARKETPLACE - MMR11004271228580083800427000000000000000   10300001 00104100000000000957000000000000     
100   62911028202169750000000000013100000000013100002000000010410404271540230271034369000427000746184710   1030000200030000   541188001012000008000000008KBZ BANK               MARKETPLACE - MMR11004271540230271030427000000000000000   10300001 00104100000000000786000000000000     
100   95050312498129060000000000003920000000003920002000000010410404270300123012865289630427000007059104   1020000200030000   333400010001204104000000281Myanmar Soft-Gate Tech Yangon        MMR11004270300123012860427000000000000000   10300001F05104100000000000823000000000000     
100   95030315150842990000000000021750000000021750002000000010410404271232370083814369000427000746174030   1030000200030000   541188001060000008000000314KBZ BANK               MARKETPLACE - MMR11004271232370083810427000000000000000   10300001 00104100000000001305000000000000     
100   95050310305109410000000000001960000000001960002000000010410404270454212421505685170427000007060207   1020000200030000   333400010001204104000000281Myanmar Soft-Gate Tech Yangon        MMR11004270454212421500427000000000000000   10300001F05104100000000000412000000000000     
100   95050314302558730000000000002940000000002940002000000010410404271001583158943033390427000007062714   1020000200030000   333400010001204104000000281Myanmar Soft-Gate Tech Yangon        MMR11004271001583158940427000000000000000   10300001F05104100000000000617000000000000     
100   62911028202166940000000000074550000000074550002000000010410404271752570084804369000427000746190342   1030000200030000   541188001128000008000000296KBZ BANK               CITY MART - J MMR11004271752570084800427000000000000000   10300001 00104100000000004473000000000000     
100   95030310098554020000000000318860000000318860002000000010410404260536290000334371400426211612000033   1030000500030000   806220009105024108062200091ARYU INTL HOSPITAL     PTN           MMR11004260536290000330426000000000000000   10300001 00104100000000019132000000000000     
100   95030310098554020000000000400000000000400000002000000010410404260539430000364390700426211612000036   1030000500030000   806220009105024108062200091ARYU INTL HOSPITAL     PTN           MMR11004260539430000360426000000000000000   10300001 00104100000000024000000000000000     
100   62911028202196800000000000031500000000031500002000000010410404260934240000464369000426211616000046   1030000500030000   569120044601000015691200446AMERICAN BRANDED COLLE PTN           MMR11004260934240000460426000000000000000   10300001 00104100000000001890000000000000     
100   62443100316099160000000000135975000000135975002000000010410404260842200000463324340426211615000046   1030000500030000   421420098901022504214200989DHL (LANMADAW)         PTN           MMR11004260842200000460426000000000000000   10300001 00104100000000032634000000000000     
100   95050320205194540000000000018600000000018600002000000010410404261011460000476239480426211616000047   1030000500030000   591220013801014405912200138SHWE OHH PHARMACY      PTN           MMR11004261011460000470426000000000000000   10300001 00104100000000004464000000000000     
100   62911028202473430000000000077200000000077200002000000010410404260248470000513365010426211609000051   1030000500030000   809920152601003108099201526LUDU                   PTN           MMR11004260248470000510426000000000000000   10300001 00104100000000004632000000000000     
100   62443101006037900000000000011880000000011880002000000010410404260137370000080279320426211608000008   1030000500030000   581220045401000015812200454FEEL MYANMAR II RESTAU PTN           MMR11004260137370000080426000000000000000   10300001 00104100000000005049000000000000     
100   95030317922148660000000000140000000000140000002000000010410404261013240000414369000426211616000041   1030000500030000   729820064401000017298200644HAIR REPUBLIC SALON    PTN           MMR11004261013240000410426000000000000000   10300001 00104100000000008400000000000000     
100   95030380157605420000000000300000000000300000002000000010410404271347101710854369000427000007063608   1030000200030000   333800010001203104000003327KBZPay                 Yangon        MMR11004271347101710850427000000000000000   10300001F05104100000000063000000000000000     
100   95050316355723530000000000001960000000001960002000000010410404270437030703198819950427000007060049   1020000200030000   333400010001204104000000281Myanmar Soft-Gate Tech Yangon        MMR11004270437030703190427000000000000000   10300001F05104100000000000412000000000000     
100   95050314931885730000000000000980000000000980002000000010410404271249031903146939750427000007063409   1020000200030000   333400010001204104000000281Myanmar Soft-Gate Tech Yangon        MMR11004271249031903140427000000000000000   10300001F05104100000000000206000000000000     
100   95050317100052460000000000002100000000002100002000000010410404270155382538765119440427000007058765   1030000200030000   333800010001203104000003327KBZPay                 Yangon        MMR11004270155382538760427000000000000000   10300001F05104100000000000441000000000000     
100   95030315150842990000000000095300000000095300002000000010410404270441473942854369000427423111147116   1030000900030000   723019001053190110000000856The Body Shop JC       YANGONN       MMR11004270441473942850427000000000000000   10300001F00104100000000005718000000000000     
100   95050312675873230000000000001000000000001000002000000010410404271507003700140670200427000007063855   1030000200030000   333800010001203104000003327KBZPay                 Yangon        MMR11004271507003700140427000000000000000   10300001F05104100000000000210000000000000     
100   95050312695033440000000000000980000000000980002000000010410404270035010501163225450427000007058514   1020000200030000   333400010001204104000000281Myanmar Soft-Gate Tech Yangon        MMR11004270035010501160427000000000000000   10300001F05104100000000000206000000000000     
100   95050315099113150000000000000980000000000980002000000010410404271549451945752407780427000007063959   1020000200030000   333400010001204104000000281Myanmar Soft-Gate Tech Yangon        MMR11004271549451945750427000000000000000   10300001F05104100000000000206000000000000     
100   95050322715181550000000000009180000000009180002000000010410404261219510003083941880426211618000308   1030000500030000   531120156001000045311201560GAMONE PWINT           PTN           MMR11004261219510003080426000000000000000   10300001 00104100000000002203000000000000     
100   95030308100042590000000000082000000000082000002000000010410404261047490002684369000426211617000268   1030000500030000   598320001702000015172200017MAX ENERGY             PTN           MMR11004261047490002680426000000000000000   10300001 00104100000000002460000000000000     
100   62911028202212490000000000047000000000047000002000000010410404260630090004864693300426211613000486   1030000500030000   598320001203000015172200012MAX ENERGY             PTN           MMR11004260630090004860426000000000000000   10300001 00104100000000001410000000000000     
100   62443100347442560000000000038991000000038991002000000010410404260939500006436785710426211616000643   1030000500030000   598320002001000015172200020MAX ENERGY             PTN           MMR11004260939500006430426000000000000000   10300001 00104100000000004679000000000000     
100   95050313843656520000000000028350000000028350002000000010410404261141050004344927380426000342125775   1030000300030000   591200000330000000000000210CB BANK                MEDICARE STOR MMR11004261141050004340426000000000000000   10300001F00104100000000006804000000000000     
100   62911028202593140000000000010000000000010000002000000010410404261128490009404369000426211617000940   1030000500030000   598320001301000015172200013MAX ENERGY             PTN           MMR11004261128490009400426000000000000000   10300001 00104100000000000300000000000000     
100   62911028202616250000000000277560000000277560002000000010410404260751530002194369000426211614000219   1030000500030000   569120058001019505691200580MK FASHION SHOP        PTN           MMR11004260751530002190426000000000000000   10300001 00104100000000016654000000000000     
100   62911028202445710000000000058000000000058000002000000010410404261132250012314369000426211618001231   1030000500030000   598320001902000015172200019MAX ENERGY             PTN           MMR11004261132250012310426000000000000000   10300001 00104100000000001740000000000000     
100   95030314863516850000000000004500000000004500002000000010410404270801483148424369000427000007061833   1030000200030000   333800010001203104000003327KBZPay                 Yangon        MMR11004270801483148420427000000000000000   10300001F05104100000000000945000000000000     
100   95030337100000390000000000032950000000032950002000000010410404270231383915364369000427088010938116   1030000900030000   591219000796190110000000628Shwe Ohh Pharmacy ST-3 YANGONMYOTHIT MMR11004270231383915360427000000000000000   10300001F00104100000000001977000000000000     
100   62443100398177500000000000085400000000085400002000000010410404270442053942895259690427425121105116   1030000900030000   541119000284190110000000177Pro1 Global (Insein)   YANGON        MMR11004270442053942890427000000000000000   10300001F00104100000000021350000000000000     
100   95050311121153200000000000001960000000001960002000000010410404271032580258456934040427000007062869   1020000200030000   333400010001204104000000281Myanmar Soft-Gate Tech Yangon        MMR11004271032580258450427000000000000000   10300001F05104100000000000412000000000000     
100   95050315099113150000000000000980000000000980002000000010410404270335070507544743400427000007059453   1020000200030000   333400010001204104000000281Myanmar Soft-Gate Tech Yangon        MMR11004270335070507540427000000000000000   10300001F05104100000000000206000000000000     
100   95050325305150830000000000000980000000000980002000000010410404271447231723927705620427000007063803   1020000200030000   333400010001204104000000281Myanmar Soft-Gate Tech Yangon        MMR11004271447231723920427000000000000000   10300001F05104100000000000206000000000000     
100   95030308100010080000000000000980000000000980002000000010410404270432310231444369000427000007060019   1020000200030000   333400010001204104000000281Myanmar Soft-Gate Tech Yangon        MMR11004270432310231440427000000000000000   10300001F05104100000000000206000000000000     
100   95050317343045830000000000000980000000000980002000000010410404271335030503597620520427000007063564   1020000200030000   333400010001204104000000281Myanmar Soft-Gate Tech Yangon        MMR11004271335030503590427000000000000000   10300001F05104100000000000206000000000000     
100   62911028202421380000000000075002000000075002002000000010410404260418280002283670700426211610000228   1030000500030000   598320001701000015172200017MAX ENERGY             PTN           MMR11004260418280002280426000000000000000   10300001 00104100000000002250000000000000     
100   62911028202136750000000000053000000000053000002000000010410404260556290005774491210426211612000577   1030000500030000   598320001402000015172200014MAX ENERGY             PTN           MMR11004260556290005770426000000000000000   10300001 00104100000000001590000000000000     
100   62911028202231380000000000043000000000043000002000000010410404260743080007174369000426211614000717   1030000500030000   598320001202000015172200012MAX ENERGY             PTN           MMR11004260743080007170426000000000000000   10300001 00104100000000001290000000000000     
100   62911028202235910000000000026862000000026862002000000010410404260146220004852990600426211608000485   1030000500030000   581220063701000015812200637CHINESE 47             PTN           MMR11004260146220004850426000000000000000   10300001 00104100000000002740000000000000     
100   62911028202142850000000000007650000000007650002000000010410404260324000001493576310426211609000149   1030000500030000   541120020701022205411200207ORANGE (YDG)           PTN           MMR11004260324000001490426000000000000000   10300001 00104100000000000459000000000000     
100   95050312539675540000000000003000000000003000002000000010410404250453320084169147480425211504008416   1030000600030000   554100000721315799420000303DENKO SHWE KYIN MDY    MANDALAY      MMR11004250453320084160425000000000000000   10300001 00104100000000000360000000000000     
100   95030310098554020000000000038000000000038000002000000010410404250624120134504644900425211506013450   1030000600030000   554100002320315799420000564DENKO PHYUU            PHYUU         MMR11004250624120134500425000000000000000   10300001 00104100000000001140000000000000     
100   62911028202421040000000000050000000000050000002000000010410404251449260073267675600425211514007326   1030000600030000   554100002318315799420000510DENKO AUNG SAN         YANGON        MMR11004251449260073260425000000000000000   10300001 00104100000000001500000000000000     
100   95050327416134790000000000004900000000004900002000000010410404270449171917083947590427000007060169   1020000200030000   333400010001204104000000281Myanmar Soft-Gate Tech Yangon        MMR11004270449171917080427000000000000000   10300001F05104100000000001029000000000000     
100   95050314557307430000000000004900000000004900002000000010410404271056292629018507140427000007062975   1020000200030000   333400010001204104000000281Myanmar Soft-Gate Tech Yangon        MMR11004271056292629010427000000000000000   10300001F05104100000000001029000000000000     
100   95050312498129060000000000000980000000000980002000000010410404271531330133832322680427000007063907   1020000200030000   333400010001204104000000281Myanmar Soft-Gate Tech Yangon        MMR11004271531330133830427000000000000000   10300001F05104100000000000206000000000000     
100   62443100361813580000000000050000000000050000002000000010410404270047451745545048130427000007058536   1030000200030000   333800010001203104000003327KBZPay                 Yangon        MMR11004270047451745540427000000000000000   10300001F05104100000000010500000000000000     
100   95050316818236190000000000001960000000001960002000000010410404270259112911546942110427000007059092   1020000200030000   333400010001204104000000281Myanmar Soft-Gate Tech Yangon        MMR11004270259112911540427000000000000000   10300001F05104100000000000412000000000000     
100   62443100398177500000000000468800000000468800002000000010410404270422513938614664010427189521051116   1030000900030000   541119000831190110000000177Pro1 Global (Insein)   YANGON        MMR11004270422513938610427000000000000000   10300001F00104100000000117200000000000000     
100   62911028202446700000000000300000000000300000002000000010410404271332330233164369000427000007063554   1030000500030000   333800010001201104000003863AYA Pay                Yangon        MMR11004271332330233160427000000000000000   10300001F05104100000000063000000000000000     
100   95050317003064220000000000000980000000000980002000000010410404270938260826680870330427000007062569   1020000200030000   333400010001204104000000281Myanmar Soft-Gate Tech Yangon        MMR11004270938260826680427000000000000000   10300001F05104100000000000206000000000000     
100   95030301100126550000000000035000000000035000002000000010410404251052520139214135000425211510013921   1030000600030000   554100002323315799420000474DENKO N.DAGON - 1      YANGON        MMR11004251052520139210425000000000000000   10300001 00104100000000001050000000000000     
100   62911028202248050000000000041000000000041000002000000010410404251058180310904135000425211510031090   1030000600030000   554100001155315799420000607DENKO NPT 1            NAYPYITAW.    MMR11004251058180310900425000000000000000   10300001 00104100000000001230000000000000     
100   62443100300855550000000000020000000000020000002000000010410404260948300043415218320426000342111344   1030000300030000   598300000335000000000000215CB BANK                YANGON PETROL MMR11004260948300043410426000000000000000   10300001F00104100000000002400000000000000     
100   95050312482469810000000000010900000000010900002000000010410404260332150047762483070426000342061949   1030000300030000   541100000443000000000000319CB BANK                ONESTOP KITCH MMR11004260332150047760426000000000000000   10300001F00104100000000002725000000000000     
100   62443100393841160000000000041000000000041000002000000010410404252323250059130148900426211623005913   1030000600030000   554100001226315799420000679DENKO MAGWAY - 2       MAGWAY        MMR11004252323250059130426000000000000000   10300001 00104100000000004920000000000000     
100   62911028202393160000000000030000000000030000002000000010410404261237410094194369000426211612009419   1030000600030000   554100001218315799420000670DENKO MAWLAMYAING      MON STATE.    MMR11004261237410094190426000000000000000   10300001 00104100000000000900000000000000     
100   62911028202761360000000000080000000000080000002000000010410404260642510128564756710426211606012856   1030000600030000   554100002085315799420000471DENKO BAHAN            YANGON        MMR11004260642510128560426000000000000000   10300001 00104100000000002400000000000000     
100   95030301100121350000000000054000000000054000002000000010410404260122540139652836400426211601013965   1030000600030000   554100002323315799420000474DENKO N.DAGON - 1      YANGON        MMR11004260122540139650426000000000000000   10300001 00104100000000001620000000000000     
100   95050310902464360000000000009800000000009800002000000010410404270339290929354828490427000007059491   1020000200030000   333400010001204104000000281Myanmar Soft-Gate Tech Yangon        MMR11004270339290929350427000000000000000   10300001F05104100000000002058000000000000     
100   95050314327553180000000000090000000000090000002000000010410404270352242224926146310427000007059639   1030000200030000   333800010001203104000003327KBZPay                 Yangon        MMR11004270352242224920427000000000000000   10300001F05104100000000018900000000000000     
100   95050314775367220000000000042100000000042100002000000010410404271100313031306429170427000007062997   1030000200030000   333800010001203104000003327KBZPay                 Yangon        MMR11004271100313031300427000000000000000   10300001F05104100000000008841000000000000     
100   95050314401921990000000000009800000000009800002000000010410404270705143514740834680427000007061349   1020000200030000   333400010001204104000000281Myanmar Soft-Gate Tech Yangon        MMR11004270705143514740427000000000000000   10300001F05104100000000002058000000000000     
100   95050318057347910000000000000980000000000980002000000010410404270308403840681012950427000007059189   1020000200030000   333400010001204104000000281Myanmar Soft-Gate Tech Yangon        MMR11004270308403840680427000000000000000   10300001F05104100000000000206000000000000     
100   95030337100000390000000000032400000000032400002000000010410404270234023915794369000427110040902116   1030000900030000   591219000796190110000000628Shwe Ohh Pharmacy ST-3 YANGONMYOTHIT MMR11004270234023915790427000000000000000   10300001F00104100000000001944000000000000     
100   95050315564078030000000000020000000000020000002000000010410404271231380138963549680427000007063337   1030000200030000   3338000100012031040000040022C2P (Myanmar) Co. Ltd Yangon        MMR11004271231380138960427000000000000000   10300001F05104100000000004200000000000000     
100   62911028202170490000000000042000000000042000002000000010410404271302510311594369000427000746176180   1030000200030000   541188001041000008000000010KBZ BANK               MARKETPLACE - MMR11004271302510311590427000000000000000   10300001 00104100000000002520000000000000     
100   62911028202023630000000000040000000000040000002000000010410404260640330145754742210426211606014575   1030000600030000   554100000741315799420000320DENKO THEIK PAN        MANDALAY      MMR11004260640330145750426000000000000000   10300001 00104100000000001200000000000000     
100   95050318052625040000000000030000000000030000002000000010410404261109300258886664960426211611025888   1030000600030000   554100001116315799420000574DENKO HLAE KUU         HLAE KUU      MMR11004261109300258880426000000000000000   10300001 00104100000000003600000000000000     
100   95030301100126550000000000027001000000027001002000000010410404261034440814544369000426211610081454   1030000600030000   554100000946315799420000471DENKO BAHAN            YANGON        MMR11004261034440814540426000000000000000   10300001 00104100000000000810000000000000     
100   62911028202204490000000000056000000000056000002000000010410404260432430813823670700426211604081382   1030000600030000   554100000946315799420000471DENKO BAHAN            YANGON        MMR11004260432430813820426000000000000000   10300001 00104100000000001680000000000000     
100   62911028202464020000000000010000000000010000002000000010410404261029190129494369000426211610012949   1030000600030000   554100002085315799420000471DENKO BAHAN            YANGON        MMR11004261029190129490426000000000000000   10300001 00104100000000000300000000000000     
100   95050324247403260000000000050000000000050000002000000010410404260241130458251596460426211602045825   1030000600030000   554100001001315799420000498DENKO SHWE PYI THAR    YANGON        MMR11004260241130458250426000000000000000   10300001 00104100000000006000000000000000     
100   95050315557781210000000000030000000000030000002000000010410404270446091609365770260427000007060136   1030000200030000   333800010001203104000003327KBZPay                 Yangon        MMR11004270446091609360427000000000000000   10300001F05104100000000006300000000000000     
100   95030318100004530000000000032000000000032000002000000010410404260344540093993670700426211603009399   1030000600030000   554100001218315799420000670DENKO MAWLAMYAING      MON STATE.    MMR11004260344540093990426000000000000000   10300001 00104100000000000960000000000000     
100   95050316377977350000000000010000000000010000002000000010410404271349541954969273010427000007063622   1040001600030000   333800010001220104000004507A +                    Yangon        MMR11004271349541954960427000000000000000   10300001F05104100000000002100000000000000     
100   95050315099113150000000000009800000000009800002000000010410404271556362636725712750427000007063975   1020000200030000   333400010001204104000000281Myanmar Soft-Gate Tech Yangon        MMR11004271556362636720427000000000000000   10300001F05104100000000002058000000000000     
100   62911028202827380000000000010000000000010000002000000010410404271351582158914369000427000007063629   1030000500030000   333800010001201104000003863AYA Pay                Yangon        MMR11004271351582158910427000000000000000   10300001F05104100000000002100000000000000     
100   95050314307746340000000000000980000000000980002000000010410404270906003600955572490427000007062325   1020000200030000   333400010001204104000000281Myanmar Soft-Gate Tech Yangon        MMR11004270906003600950427000000000000000   10300001F05104100000000000206000000000000     
100   62911028202231380000000000007000000000007000002000000010410404271411150094674369000427000746180359   1030000200030000   541188001088000008000000294KBZ BANK               CITY MART - J MMR11004271411150094670427000000000000000   10300001 00104100000000000420000000000000     
100   95050322954091830000000000005000000000005000002000000010410404270549301930526181960427000007060682   1030000200030000   3334000100012031040000040102C2P (Myanmar) Co. Ltd Yangon        MMR11004270549301930520427000000000000000   10300001F05104100000000001050000000000000     
100   95050316377977350000000000005000000000005000002000000010410404271353082308504315560427000007063642   1030000200030000   3338000100012031040000040022C2P (Myanmar) Co. Ltd Yangon        MMR11004271353082308500427000000000000000   10300001F05104100000000001050000000000000     
100   95050313702988830000000000002940000000002940002000000010410404271005443544136338360427000007062731   1020000200030000   333400010001204104000000281Myanmar Soft-Gate Tech Yangon        MMR11004271005443544130427000000000000000   10300001F05104100000000000617000000000000     
100   95050314064416890000000000001960000000001960002000000010410404271551262126867365230427000007063965   1020000200030000   333400010001204104000000281Myanmar Soft-Gate Tech Yangon        MMR11004271551262126860427000000000000000   10300001F05104100000000000412000000000000     
100   62911028202045260000000000013000000000013000002000000010410404270755369332674369000427170251412116   1030000500030000   555610120972104519000017735City Express MCS 24                  MMR11004270755369332670427000000000000000   10300001 00104100000000000780000000000000     
100   95050312498129060000000000000980000000000980002000000010410404270908413841530529950427000007062348   1020000200030000   333400010001204104000000281Myanmar Soft-Gate Tech Yangon        MMR11004270908413841530427000000000000000   10300001F05104100000000000206000000000000     
100   95050325630928770000000000000980000000000980002000000010410404271218114811100585100427000007063282   1020000200030000   333400010001204104000000281Myanmar Soft-Gate Tech Yangon        MMR11004271218114811100427000000000000000   10300001F05104100000000000206000000000000     
100   95050320531117320000000000032445000000032445002000000010410404270803469333778721060427289331428116   1030000300030000   444410124354104519000020484The Pizza Company Rest urant         MMR11004270803469333770427000000000000000   10300001 00104100000000013789000000000000     
100   62443100363668680000000000041150000000041150002000000010410404271105198120869819240427211718812086   1040001600030000   591220000282000000010000270Shwe Ohh Pharmacy (Shw Yangon        MMR11004271105198120860427000000000000000   10300001F00104100000000009876000000000000     
100   62443100333488440000000000032200000000032200002000000010410404260236100062018802060426211602006201   1030000600030000   554100000841315799420000373DENKO NYAUNG U         NYAUNG U      MMR11004260236100062010426000000000000000   10300001 00104100000000003864000000000000     
100   62911028202287310000000000094800000000094800002000000010410404270457177912204369000427211711791220   1040001600030000   591220000282000000010000270Shwe Ohh Pharmacy (Shw Yangon        MMR11004270457177912200427000000000000000   10300001F00104100000000005688000000000000     
100   95030319588829360000000000023150000000023150002000000010410404270337403927744369000427625071040116   1030000900030000   541119001222190110000000945City Mart TM C 7       YANGONONE     MMR11004270337403927740427000000000000000   10300001F00104100000000001389000000000000     
100   95050311736839760000000000000980000000000980002000000010410404270148471847753466950427000007058736   1020000200030000   333400010001204104000000281Myanmar Soft-Gate Tech Yangon        MMR11004270148471847750427000000000000000   10300001F05104100000000000206000000000000     
100   95050315259054570000000000000980000000000980002000000010410404270650592059275465530427000007061219   1020000200030000   333400010001204104000000281Myanmar Soft-Gate Tech Yangon        MMR11004270650592059270427000000000000000   10300001F05104100000000000206000000000000     
100   95050312695033440000000000000980000000000980002000000010410404271350002000031010590427000007063616   1020000200030000   333400010001204104000000281Myanmar Soft-Gate Tech Yangon        MMR11004271350002000030427000000000000000   10300001F05104100000000000206000000000000     
100   95050312695033440000000000000980000000000980002000000010410404270032230223248182900427000007058507   1020000200030000   333400010001204104000000281Myanmar Soft-Gate Tech Yangon        MMR11004270032230223240427000000000000000   10300001F05104100000000000206000000000000     
100   95030367537085740000000000004900000000004900002000000010410404270341261126634369000427000007059517   1020000200030000   333400010001204104000000281Myanmar Soft-Gate Tech Yangon        MMR11004270341261126630427000000000000000   10300001F05104100000000001029000000000000     
100   95050310409767690000000000005000000000005000002000000010410404270255322532051899560427000007059071   1030000200030000   333800010001203104000003327KBZPay                 Yangon        MMR11004270255322532050427000000000000000   10300001F05104100000000001050000000000000     
100   95050319331315630000000000004900000000004900002000000010410404271306093609948592240427000007063465   1020000200030000   333400010001204104000000281Myanmar Soft-Gate Tech Yangon        MMR11004271306093609940427000000000000000   10300001F05104100000000001029000000000000     
100   95050311382087030000000000004000000000004000002000000010410404270909203920498877460427000007062351   1030000200030000   333800010001203104000003327KBZPay                 Yangon        MMR11004270909203920490427000000000000000   10300001F05104100000000000840000000000000     
100   95050310652791070000000000050000000000050000002000000010410404270309093909779360460427000007059193   1030000200030000   333800010001203104000003327KBZPay                 Yangon        MMR11004270309093909770427000000000000000   10300001F05104100000000010500000000000000     
100   95050327883696130000000000005000000000005000002000000010410404270649321932250508080427000007061205   1030000200030000   333800010001203104000003327KBZPay                 Yangon        MMR11004270649321932250427000000000000000   10300001F05104100000000001050000000000000     
100   95050315053846650000000000050000000000050000002000000010410404270400273027077543500427000007059728   1030000200030000   333800010001203104000003327KBZPay                 Yangon        MMR11004270400273027070427000000000000000   10300001F05104100000000010500000000000000     
100   95050315372485810000000000100000000000100000002000000010410404270343321332071523530427000007059552   1030000200030000   333800010001203104000003327KBZPay                 Yangon        MMR11004270343321332070427000000000000000   10300001F05104100000000021000000000000000     
100   95050311419479170000000000000980000000000980002000000010410404270310094009044403010427000007059211   1020000200030000   333400010001204104000000281Myanmar Soft-Gate Tech Yangon        MMR11004270310094009040427000000000000000   10300001F05104100000000000206000000000000     
100   62911028202593140000000000030000000000030000002000000010410404261128160009394369000426211617000939   1030000500030000   598320001301000015172200013MAX ENERGY             PTN           MMR11004261128160009390426000000000000000   10300001 00104100000000000900000000000000     
100   95030346179196360000000000054000000000054000002000000010410404260737297345194369000426211614734519   1040001600030000   598320000856000000010000609Terminal Petrol Statio Yangon        MMR11004260737297345190426000000000000000   10300001F00104100000000001620000000000000     
100   95030301100102610000000000010000000000010000002000000010410404271503503350044369000427000007063852   1030000200030000   333800010001203104000003327KBZPay                 Yangon        MMR11004271503503350040427000000000000000   10300001F05104100000000002100000000000000     
100   95030394609966640000000000015000000000015000002000000010410404270927398051204369000427211716805120   1040001600030000   598320000658000000010000527Shwe Taung Energy (YGN Yangon        MMR11004270927398051200427000000000000000   10300001F00104100000000000450000000000000     
100   95030319588829360000000000197200000000197200002000000010410404270318017870604369000427211710787060   1040001600030000   591220000277000000010000265Shwe Ohh Pharmacy (Thu Yangon        MMR11004270318017870600427000000000000000   10300001F00104100000000011832000000000000     
100   62911028202031710000000000025000000000025000002000000010410404270258263919724369000427282280926116   1030000900030000   554119001101190110000000213New Day Energy SOK     YANGONOKKALAP MMR11004270258263919720427000000000000000   10300001F00104100000000000750000000000000     
100   95050326750398570000000000033350000000033350002000000010410404270540303956174444380427143101230116   1030000900030000   591219000892190110000000701Shwe Ohh Pharmacy ST-3 YANGONONE     MMR11004270540303956170427000000000000000   10300001F00104100000000008004000000000000     
100   62911028202095410000000000008550000000008550002000000010410404271021324024054369000427953511632116   1030000900030000   541119000112190110000000077Sein Gay Har Chinatown YANGON        MMR11004271021324024050427000000000000000   10300001F00104100000000000513000000000000     
100   62911028202499270000000000048650000000048650002000000010410404271058564035224369000427676281756116   1030000900030000   541119001208190110000000948City Mart YK C 6       YANGONAUNG    MMR11004271058564035220427000000000000000   10300001F00104100000000002919000000000000     
100   95050325305150830000000000000980000000000980002000000010410404271324425442521982300427000007063527   1020000200030000   333400010001204104000000281Myanmar Soft-Gate Tech Yangon        MMR11004271324425442520427000000000000000   10300001F05104100000000000206000000000000     
100   95050325997730520000000000027000000000027000002000000010410404270532207933091394700427211712793309   1040001600030000   598320000321000000010000309PT Power Petrol Statio Yangon        MMR11004270532207933090427000000000000000   10300001F00104100000000003240000000000000     
100   95050319220344710000000000000980000000000980002000000010410404271013234323953118490427000007062761   1020000200030000   333400010001204104000000281Myanmar Soft-Gate Tech Yangon        MMR11004271013234323950427000000000000000   10300001F05104100000000000206000000000000     
100   95050325305150830000000000000980000000000980002000000010410404271314564456098677330427000007063496   1020000200030000   333400010001204104000000281Myanmar Soft-Gate Tech Yangon        MMR11004271314564456090427000000000000000   10300001F05104100000000000206000000000000     
100   95050312498129060000000000002940000000002940002000000010410404271211334133665542560427000007063266   1020000200030000   333400010001204104000000281Myanmar Soft-Gate Tech Yangon        MMR11004271211334133660427000000000000000   10300001F05104100000000000617000000000000     
100   95050316997303010000000000002940000000002940002000000010410404271216534653905627650427000007063276   1020000200030000   333400010001204104000000281Myanmar Soft-Gate Tech Yangon        MMR11004271216534653900427000000000000000   10300001F05104100000000000617000000000000     
100   95050320205194540000000000012700000000012700002000000010410404271038354028655031980427246081735116   1030000900030000   541119001264190110000000958City Mart PLST C 7     YANGONMYOTHIT MMR11004271038354028650427000000000000000   10300001F00104100000000003175000000000000     
100   95050316421999920000000000002940000000002940002000000010410404270318464846307537780427000007059295   1020000200030000   333400010001204104000000281Myanmar Soft-Gate Tech Yangon        MMR11004270318464846300427000000000000000   10300001F05104100000000000617000000000000     
100   95050319938772870000000000000980000000000980002000000010410404271426415641772748170427000007063750   1020000200030000   333400010001204104000000281Myanmar Soft-Gate Tech Yangon        MMR11004271426415641770427000000000000000   10300001F05104100000000000206000000000000     
100   95050311131833760000000000030000000000030000002000000010410404271216354635297280140427000007063273   1030000200030000   333800010001203104000003327KBZPay                 Yangon        MMR11004271216354635290427000000000000000   10300001F05104100000000006300000000000000     
100   95030393174848800000000001237500000001237500002000000010410404270508173948774369000427737381117116   1030000900030000   829919001123190110000000904IIP School             YANGONUT      MMR11004270508173948770427000000000000000   10300001F00104100000000074250000000000000     
100   95050319709462380000000000000980000000000980002000000010410404270419044904129621470427000007059889   1020000200030000   333400010001204104000000281Myanmar Soft-Gate Tech Yangon        MMR11004270419044904120427000000000000000   10300001F05104100000000000206000000000000     
100   62443100314843770000000000100000000000100000002000000010410404270827095709702437720427000007062027   1030000200030000   333800010001203104000003327KBZPay                 Yangon        MMR11004270827095709700427000000000000000   10300001F05104100000000021000000000000000     
100   95030315150842990000000000017000000000017000002000000010410404270743458000294369000427211714800029   1040001600030000   569120000926000000010000673Generation Concept Sto Ygn           MMR11004270743458000290427000000000000000   10300001F00104100000000001020000000000000     
100   95050317176867660000000000001960000000001960002000000010410404270711404140850579390427000007061401   1020000200030000   333400010001204104000000281Myanmar Soft-Gate Tech Yangon        MMR11004270711404140850427000000000000000   10300001F05104100000000000412000000000000     
100   95050322155898660000000000005900000000005900002000000010410404271131218144848762430427211718814484   1040001600030000   541120000557000000010000465Ocean Shwe Gone Daing  Yangon        MMR11004271131218144840427000000000000000   10300001F00104100000000001475000000000000     
100   95050319938772870000000000000980000000000980002000000010410404271424305430874400650427000007063735   1020000200030000   333400010001204104000000281Myanmar Soft-Gate Tech Yangon        MMR11004271424305430870427000000000000000   10300001F05104100000000000206000000000000     
100   95050310652791070000000000010000000000010000002000000010410404270825235523619132750427000007062016   1030000200030000   333800010001203104000003327KBZPay                 Yangon        MMR11004270825235523610427000000000000000   10300001F05104100000000002100000000000000     
100   95050323233042810000000000001960000000001960002000000010410404261728595859316190030427000007058176   1020000200030000   333400010001204104000000281Myanmar Soft-Gate Tech Yangon        MMR11004261728595859310427000000000000000   10300001F05104100000000000412000000000000     
100   62911028202789750000000000004650000000004650002000000010410404271125078138884369000427211718813888   1040001600030000   591220000271000000010000259Shwe Ohh Pharmacy (Gwa Yangon        MMR11004271125078138880427000000000000000   10300001F00104100000000000279000000000000     
100   95050311419479170000000000001960000000001960002000000010410404270415124512785004400427000007059855   1020000200030000   333400010001204104000000281Myanmar Soft-Gate Tech Yangon        MMR11004270415124512780427000000000000000   10300001F05104100000000000412000000000000     
100   95050319263501880000000000050000000000050000002000000010410404271521415141003975170427000007063884   1030000200030000   333800010001203104000003327KBZPay                 Yangon        MMR11004271521415141000427000000000000000   10300001F05104100000000010500000000000000     
100   95050328570548980000000000052140000000052140002000000010410404271555264085447450330427390252226116   1030000900030000   581319001483190110000001079I Four-1               YANGON        MMR11004271555264085440427000000000000000   10300001F00104100000000022160000000000000     
100   95050316949180000000000000002940000000002940002000000010410404271518544854909017720427000007063878   1020000200030000   333400010001204104000000281Myanmar Soft-Gate Tech Yangon        MMR11004271518544854900427000000000000000   10300001F05104100000000000617000000000000     
100   95050319925596540000000000009800000000009800002000000010410404271016444644350324100427000007062772   1020000200030000   333400010001204104000000281Myanmar Soft-Gate Tech Yangon        MMR11004271016444644350427000000000000000   10300001F05104100000000002058000000000000     
100   95050317834964620000000000007054000000007054002000000010410404271118554040808251850427040481755116   1030000900030000   541119001349190110000000977Ocean PZD C 3          YANGONAUNG    MMR11004271118554040800427000000000000000   10300001F00104100000000001764000000000000     
100   62443100326436660000000000056200000000056200002000000010410404271304244064850329810427531341924116   1030000900030000   541119001207190110000000948City Mart YK C 5       YANGONAUNG    MMR11004271304244064850427000000000000000   10300001F00104100000000014050000000000000     
100   95050314020354280000000000002940000000002940002000000010410404271328445844232067400427000007063542   1020000200030000   333400010001204104000000281Myanmar Soft-Gate Tech Yangon        MMR11004271328445844230427000000000000000   10300001F05104100000000000617000000000000     
100   62911028202169750000000000031000000000031000002000000010410404270118547816824369000427211708781682   1040001600030000   598320000911000000010000662MMTM - Tamwe           Ygn           MMR11004270118547816820427000000000000000   10300001F00104100000000000930000000000000     
100   95050325997730520000000000030000000000030000002000000010410404270529357931366437250427211712793136   1040001600030000   598320000321000000010000309PT Power Petrol Statio Yangon        MMR11004270529357931360427000000000000000   10300001F00104100000000003600000000000000     
100   62443100398129000000000001442800000001442800002000000010410404270549119316877834440427355181249116   1030000300030000   555510107297104519000006507Bumrungrad Clinc Yango               MMR11004270549119316870427000000000000000   10300001 00104100000000346272000000000000     
100   95030373033018450000000000005000000000005000002000000010410404271116159358264369000427086461743116   1030000500030000   555610118972104519000016137City Mart South Okkala WZYD BR       MMR11004271116159358260427000000000000000   10300001 00104100000000000300000000000000     
100   62443100371022130000000000048000000000048000002000000010410404260652120004897165040426211613000489   1030000500030000   598320001203000015172200012MAX ENERGY             PTN           MMR11004260652120004890426000000000000000   10300001 00104100000000005760000000000000     
