100   95030367537085740000000000000980000000000980002000000010410404280349451945244369000428000007065560   1020000200030000   333400010001204104000000281Myanmar Soft-Gate Tech Yangon        MMR11004280349451945240428000000000000000   10300001F05104100000000000206000000000000     
100   95050316997303010000000000000980000000000980002000000010410404281421485148026505200428000007070050   1020000200030000   333400010001204104000000281Myanmar Soft-Gate Tech Yangon        MMR11004281421485148020428000000000000000   10300001F05104100000000000206000000000000     
100   95050310427855490000000000000980000000000980002000000010410404281142311231752882710428000007069289   1020000200030000   333400010001204104000000281Myanmar Soft-Gate Tech Yangon        MMR11004281142311231750428000000000000000   10300001F05104100000000000206000000000000     
100   95050319524870520000000000002940000000002940002000000010410404280409103910937911460428000007065787   1020000200030000   333400010001204104000000281Myanmar Soft-Gate Tech Yangon        MMR11004280409103910930428000000000000000   10300001F05104100000000000617000000000000     
100   62443100340288250000000000012915000000012915002000000010410404280533254173179174120428790031225117   1030000900030000   581219000698190110000000529Pizzamaru Myanmar (San YANGONUNG     MMR11004280533254173170428000000000000000   10300001F00104100000000005489000000000000     
100   95030301100124400000000000005200000000005200002000000010410404280806544211054369000428810361454117   1030000900030000   541119001273190110000000960City Mart PLST Season  YANGONMYOTHIT MMR11004280806544211050428000000000000000   10300001F00104100000000000312000000000000     
100   95050315110306410000000000003000000000003000002000000010410404281509563956066164810428000007070269   1030000200030000   333800010001203104000003327KBZPay                 Yangon        MMR11004281509563956060428000000000000000   10300001F05104100000000000630000000000000     
100   95050312498129060000000000000980000000000980002000000010410404281209563956526528060428000007069418   1020000200030000   333400010001204104000000281Myanmar Soft-Gate Tech Yangon        MMR11004281209563956520428000000000000000   10300001F05104100000000000206000000000000     
100   62443101006526980000000000043200000000043200002000000010410404280258594137646294630428995280959117   1030000900030000   541119001068190110000000082Sein Gay Har Super Cen YANGON        MMR11004280258594137640428000000000000000   10300001F00104100000000010800000000000000     
100   95050311736839760000000000000980000000000980002000000010410404280837560756145144650428000007068084   1020000200030000   333400010001204104000000281Myanmar Soft-Gate Tech Yangon        MMR11004280837560756140428000000000000000   10300001F05104100000000000206000000000000     
100   95030301100216560000000000002940000000002940002000000010410404281041481148604369000428000007068998   1020000200030000   333400010001204104000000281Myanmar Soft-Gate Tech Yangon        MMR11004281041481148600428000000000000000   10300001F05104100000000000617000000000000     
100   95050317003064220000000000000980000000000980002000000010410404280157412741394812350428000007064669   1020000200030000   333400010001204104000000281Myanmar Soft-Gate Tech Yangon        MMR11004280157412741390428000000000000000   10300001F05104100000000000206000000000000     
100   95050312498129060000000000001960000000001960002000000010410404281407043704089810170428000007069980   1020000200030000   333400010001204104000000281Myanmar Soft-Gate Tech Yangon        MMR11004281407043704080428000000000000000   10300001F05104100000000000412000000000000     
100   95050315150726490000000000000980000000000980002000000010410404280110294029446138230428000007064523   1020000200030000   333400010001204104000000281Myanmar Soft-Gate Tech Yangon        MMR11004280110294029440428000000000000000   10300001F05104100000000000206000000000000     
100   95050314893649800000000000003920000000003920002000000010410404281201263126692627420428000007069388   1020000200030000   333400010001204104000000281Myanmar Soft-Gate Tech Yangon        MMR11004281201263126690428000000000000000   10300001F05104100000000000823000000000000     
100   95050327192897240000000000000980000000000980002000000010410404280911184118927549210428000007068380   1020000200030000   333400010001204104000000281Myanmar Soft-Gate Tech Yangon        MMR11004280911184118920428000000000000000   10300001F05104100000000000206000000000000     
100   95050314570621780000000000001960000000001960002000000010410404280259102910953330050428000007065003   1020000200030000   333400010001204104000000281Myanmar Soft-Gate Tech Yangon        MMR11004280259102910950428000000000000000   10300001F05104100000000000412000000000000     
100   95050311959900780000000000000980000000000980002000000010410404281504393439021207360428000007070250   1020000200030000   333400010001204104000000281Myanmar Soft-Gate Tech Yangon        MMR11004281504393439020428000000000000000   10300001F05104100000000000206000000000000     
100   95050319220344710000000000000980000000000980002000000010410404281410004000868157680428000007069992   1020000200030000   333400010001204104000000281Myanmar Soft-Gate Tech Yangon        MMR11004281410004000860428000000000000000   10300001F05104100000000000206000000000000     
100   62911028202693960000000000076400000000076400002000000010410404280746584205684369000428501161458117   1030000900030000   541119001248190110000000955City Mart JS C 7       YANGONUT      MMR11004280746584205680428000000000000000   10300001F00104100000000004584000000000000     
100   62911028202284260000000000010050000000010050002000000010410404281008244244084369000428724381624117   1030000900030000   541119001245190110000000955City Mart JS C 4       YANGONUT      MMR11004281008244244080428000000000000000   10300001F00104100000000000603000000000000     
100   95050316818236190000000000001960000000001960002000000010410404281245211521400003220428000007069589   1020000200030000   333400010001204104000000281Myanmar Soft-Gate Tech Yangon        MMR11004281245211521400428000000000000000   10300001F05104100000000000412000000000000     
100   95050317376014640000000000001960000000001960002000000010410404280151042104796308430428000007064645   1020000200030000   333400010001204104000000281Myanmar Soft-Gate Tech Yangon        MMR11004280151042104790428000000000000000   10300001F05104100000000000412000000000000     
100   95050328137327770000000000020000000000020000002000000010410404280208553855963159860428000007064694   1030000200030000   333800010001203104000003327KBZPay                 Yangon        MMR11004280208553855960428000000000000000   10300001F05104100000000004200000000000000     
100   62911028202293090000000000040000000000040000002000000010410404280311544140514369000428153410954117   1030000900030000   554119001101190110000000213New Day Energy SOK     YANGONOKKALAP MMR11004280311544140510428000000000000000   10300001F00104100000000001200000000000000     
100   62911028202126850000000000073900000000073900002000000010410404280753384207524369000428611231438117   1030000900030000   541119000158190110000000084Pro (1) Global (Pazund YANGONARTAUNG MMR11004280753384207520428000000000000000   10300001F00104100000000004434000000000000     
100   95050313396828960000000000001960000000001960002000000010410404281336190619488095450428000007069819   1020000200030000   333400010001204104000000281Myanmar Soft-Gate Tech Yangon        MMR11004281336190619480428000000000000000   10300001F05104100000000000412000000000000     
100   95030301100216560000000000000980000000000980002000000010410404281043311331964369000428000007069010   1020000200030000   333400010001204104000000281Myanmar Soft-Gate Tech Yangon        MMR11004281043311331960428000000000000000   10300001F05104100000000000206000000000000     
100   95050319938772870000000000000980000000000980002000000010410404280043341334312492880428000007064467   1020000200030000   333400010001204104000000281Myanmar Soft-Gate Tech Yangon        MMR11004280043341334310428000000000000000   10300001F05104100000000000206000000000000     
100   95050311382087030000000000001960000000001960002000000010410404281251292129431655700428000007069616   1020000200030000   333400010001204104000000281Myanmar Soft-Gate Tech Yangon        MMR11004281251292129430428000000000000000   10300001F05104100000000000412000000000000     
100   95050317003064220000000000000980000000000980002000000010410404280154032403991507370428000007064655   1020000200030000   333400010001204104000000281Myanmar Soft-Gate Tech Yangon        MMR11004280154032403990428000000000000000   10300001F05104100000000000206000000000000     
100   95050327022536610000000000038500000000038500002000000010410404281502263226638242780428000007070234   1030000200030000   3333000100012031040000040282C2P (Myanmar) Co. Ltd Yangon        MMR11004281502263226630428000000000000000   10300001F05104100000000010000000000000000     
100   95030316535481960000000000191150000000191150002000000010410404280549494177154369000428996191249117   1030000900030000   591219000507190110000000354Shwe Ohh Pharmacy - (S YANGON        MMR11004280549494177150428000000000000000   10300001F00104100000000011469000000000000     
100   95050316321163940000000000000980000000000980002000000010410404281058292829122372120428000007069068   1020000200030000   333400010001204104000000281Myanmar Soft-Gate Tech Yangon        MMR11004281058292829120428000000000000000   10300001F05104100000000000206000000000000     
100   95050316818236190000000000002940000000002940002000000010410404281209033903821570600428000007069413   1020000200030000   333400010001204104000000281Myanmar Soft-Gate Tech Yangon        MMR11004281209033903820428000000000000000   10300001F05104100000000000617000000000000     
100   62911028202687370000000000019551000000019551002000000010410404270928520001134369000427211715000113   1030000500030000   531120155716000045311201557GAMONE PWINT           PTN           MMR11004270928520001130427000000000000000   10300001 00104100000000001173000000000000     
100   62911028202520380000000000050000000000050000002000000010410404270522340003924369000427211711000392   1030000500030000   598320001603000015172200016MAX ENERGY             PTN           MMR11004270522340003920427000000000000000   10300001 00104100000000001500000000000000     
100   95030320529939180000000000022400000000022400002000000010410404271156260002984369000427000342293003   1030000300030000   541100000217000000000000113CB BANK                ONESTOP KITCH MMR11004271156260002980427000000000000000   10300001F00104100000000001344000000000000     
100   95030306100078820000000000479900000000479900002000000010410404270839590000224369000427211715000022   1030000500030000   481220073501000014812200735MI (HLEDAN)            PTN           MMR11004270839590000220427000000000000000   10300001 00104100000000028794000000000000     
100   62911028202449440000000000100000000000100000002000000010410404271119310002854369000427211717000285   1030000500030000   598320001701000015172200017MAX ENERGY             PTN           MMR11004271119310002850427000000000000000   10300001 00104100000000003000000000000000     
100   62911028202150190000000000004000000000004000002000000010410404270312170000444369000427211709000044   1030000500030000   591220014001014405912200140SHWE OHH PHARMACY      PTN           MMR11004270312170000440427000000000000000   10300001 00104100000000000240000000000000     
100   62911028202313470000000000021150000000021150002000000010410404270432100000564369000427211711000056   1030000500030000   591220013201014405912200132SHWE OHH PHARMACY      PTN           MMR11004270432100000560427000000000000000   10300001 00104100000000001269000000000000     
100   95030394609966640000000000020000000000020000002000000010410404270538020001444369000427000342245465   1030000300030000   598300001209000000000000817CB BANK                SHWE TAUNG EN MMR11004270538020001440427000000000000000   10300001F00104100000000000600000000000000     
100   95030301100121270000000000007400000000007400002000000010410404280522154170434369000428650521115117   1030000900030000   723019001053190110000000856The Body Shop JC       YANGONN       MMR11004280522154170430428000000000000000   10300001F00104100000000000444000000000000     
100   62911028202422290000000000500000000000500000002000000010410404280659014193584369000428859291301117   1030000900030000   481219000911190110000000720Snoopy Mobile ( 2 )Par YANGON        MMR11004280659014193580428000000000000000   10300001F00104100000000030000000000000000     
100   95050312160676580000000000000980000000000980002000000010410404280838370837890187200428000007068095   1020000200030000   333400010001204104000000281Myanmar Soft-Gate Tech Yangon        MMR11004280838370837890428000000000000000   10300001F05104100000000000206000000000000     
100   95050311438762210000000000002940000000002940002000000010410404280346181618629053370428000007065526   1020000200030000   333400010001204104000000281Myanmar Soft-Gate Tech Yangon        MMR11004280346181618620428000000000000000   10300001F05104100000000000617000000000000     
100   62911028202349600000000000003500000000003500002000000010410404281147371737974369000428000007069317   1030000200030000   3338000100012031040000040022C2P (Myanmar) Co. Ltd Yangon        MMR11004281147371737970428000000000000000   10300001F05104100000000000735000000000000     
100   95030367537085740000000000009800000000009800002000000010410404280759592959384369000428000007067785   1020000200030000   333400010001204104000000281Myanmar Soft-Gate Tech Yangon        MMR11004280759592959380428000000000000000   10300001F05104100000000002058000000000000     
100   62911028202801200000000000002500000000002500002000000010410404280517054168924369000428568471105117   1030000900030000   541119001215190110000000950City Mart YK City Care YANGONAUNG    MMR11004280517054168920428000000000000000   10300001F00104100000000000150000000000000     
100   62911028202100930000000000009600000000009600002000000010410404280538034174394369000428851081203117   1030000900030000   541119000115190110000000078Sein Gay Har Kan Thar  YANGONOKKALAP MMR11004280538034174390428000000000000000   10300001F00104100000000000576000000000000     
100   95050312173216740000000000011000000000011000002000000010410404271107210001828166760427000342286757   1030000300030000   531100000544000000000000376CB BANK                CAPITAL HYPER MMR11004271107210001820427000000000000000   10300001F00104100000000002640000000000000     
100   62911028202231380000000000006380000000006380002000000010410404270715360000854369000427211713000085   1030000500030000   581220199401000085812201994LITTLE BOSS MAWTIN     PTN           MMR11004270715360000850427000000000000000   10300001 00104100000000000651000000000000     
100   95030346645639490000000000004410000000004410002000000010410404270441050001064369000427211711000106   1030000500030000   531120155716000045311201557GAMONE PWINT           PTN           MMR11004270441050001060427000000000000000   10300001 00104100000000000265000000000000     
100   95030308100042590000000000153500000000153500002000000010410404270824400003424369000427211714000342   1030000500030000   598320001702000015172200017MAX ENERGY             PTN           MMR11004270824400003420427000000000000000   10300001 00104100000000004605000000000000     
100   62443100355445150000000000020400000000020400002000000010410404270254480005703637140427211709000570   1030000500030000   503920036611000015039200366PRO-1 HOME CENTER      PTN           MMR11004270254480005700427000000000000000   10300001 00104100000000004896000000000000     
100   95030310098554020000000000500000000000500000002000000010410404271027240001074369000427211716000107   1030000500030000   806220009101024108062200091ARYU INTL HOSPITAL     PTN           MMR11004271027240001070427000000000000000   10300001 00104100000000030000000000000000     
100   62911028202162640000000000030000000000030000002000000010410404271020070000974369000427211716000097   1030000500030000   598320115101005405983201151PT POWER (HLEGU)       PTN           MMR11004271020070000970427000000000000000   10300001 00104100000000000900000000000000     
100   95030346645639490000000000006615000000006615002000000010410404270505290001394369000427211711000139   1030000500030000   531120155710000045311201557GAMONE PWINT           PTN           MMR11004270505290001390427000000000000000   10300001 00104100000000000397000000000000     
100   95050319331315630000000000002940000000002940002000000010410404280555592559876110650428000007066730   1020000200030000   333400010001204104000000281Myanmar Soft-Gate Tech Yangon        MMR11004280555592559870428000000000000000   10300001F05104100000000000617000000000000     
100   95050313710136610000000000007700000000007700002000000010410404280958524241141534950428553281652117   1030000900030000   541119000113190110000000077Sein Gay Har Chinatown YANGON        MMR11004280958524241140428000000000000000   10300001F00104100000000001925000000000000     
100   95050312781844250000000000005000000000005000002000000010410404281046211621683428940428000007069025   1030000200030000   3334000100012031040000040102C2P (Myanmar) Co. Ltd Yangon        MMR11004281046211621680428000000000000000   10300001F05104100000000001050000000000000     
100   95050310652791070000000000050000000000050000002000000010410404280852092209176698250428000007068227   1030000200030000   333800010001203104000003327KBZPay                 Yangon        MMR11004280852092209170428000000000000000   10300001F05104100000000010500000000000000     
100   95050316818236190000000000000980000000000980002000000010410404281251152115023308190428000007069614   1020000200030000   333400010001204104000000281Myanmar Soft-Gate Tech Yangon        MMR11004281251152115020428000000000000000   10300001F05104100000000000206000000000000     
100   95050310409767690000000000035000000000035000002000000010410404280957012701443102340428000007068704   1030000200030000   333800010001203104000003327KBZPay                 Yangon        MMR11004280957012701440428000000000000000   10300001F05104100000000007350000000000000     
100   95050314160856250000000000001960000000001960002000000010410404280306213621172989670428000007065085   1020000200030000   333400010001204104000000281Myanmar Soft-Gate Tech Yangon        MMR11004280306213621170428000000000000000   10300001F05104100000000000412000000000000     
100   62911028202417000000000000003800000000003800002000000010410404280531104172564369000428764011210117   1030000900030000   541119001208190110000000948City Mart YK C 6       YANGONAUNG    MMR11004280531104172560428000000000000000   10300001F00104100000000000228000000000000     
100   95030301100183220000000000039500000000039500002000000010410404270017310004864369000427211706000486   1030000500030000   598320041901000055983200419MAX ENERGY             PTN           MMR11004270017310004860427000000000000000   10300001 00104100000000001185000000000000     
100   62443100371022130000000000158700000000158700002000000010410404270829260000670359750427211714000067   1030000500030000   581220123001000045812201230YOON KITCHEN           PTN           MMR11004270829260000670427000000000000000   10300001 00104100000000067448000000000000     
100   62443100306028540000000000040000000000040000002000000010410404270346430006093005810427211710000609   1030000500030000   598320001204000015172200012MAX ENERGY             PTN           MMR11004270346430006090427000000000000000   10300001 00104100000000004800000000000000     
100   62911028202163630000000000017000000000017000002000000010410404271007100009144369000427211716000914   1030000500030000   598320001003000015172200010MAX ENERGY             PTN           MMR11004271007100009140427000000000000000   10300001 00104100000000000510000000000000     
100   62443100330048680000000000028000000000028000002000000010410404270247580007752325040427211709000775   1030000500030000   598320001101000015172200011MAX ENERGY             PTN           MMR11004270247580007750427000000000000000   10300001 00104100000000003360000000000000     
100   95050320531117320000000000107800000000107800002000000010410404270902020008947224980427211715000894   1030000500030000   503920036610000015039200366PRO-1 HOME CENTER      PTN           MMR11004270902020008940427000000000000000   10300001 00104100000000025872000000000000     
100   62911028202472440000000000038000000000038000002000000010410404270653270008444369000427211713000844   1030000500030000   598320001403000015172200014MAX ENERGY             PTN           MMR11004270653270008440427000000000000000   10300001 00104100000000001140000000000000     
100   62911028202312890000000000029004000000029004002000000010410404270935200006904369000427211716000690   1030000500030000   598320001601000015172200016MAX ENERGY             PTN           MMR11004270935200006900427000000000000000   10300001 00104100000000000870000000000000     
100   95050311931431670000000000002940000000002940002000000010410404281042451245574996320428000007069004   1020000200030000   333400010001204104000000281Myanmar Soft-Gate Tech Yangon        MMR11004281042451245570428000000000000000   10300001F05104100000000000617000000000000     
100   95050313168701670000000000001960000000001960002000000010410404281257592759357925250428000007069645   1020000200030000   333400010001204104000000281Myanmar Soft-Gate Tech Yangon        MMR11004281257592759350428000000000000000   10300001F05104100000000000412000000000000     
100   62443101006526980000000000068050000000068050002000000010410404280313434140861422280428169430943117   1030000900030000   541119000128190110000000082Sein Gay Har Super Cen YANGON        MMR11004280313434140860428000000000000000   10300001F00104100000000017013000000000000     
100   95050311419479170000000000000980000000000980002000000010410404281443421342729895260428000007070168   1020000200030000   333400010001204104000000281Myanmar Soft-Gate Tech Yangon        MMR11004281443421342720428000000000000000   10300001F05104100000000000206000000000000     
100   95050314557307430000000000004900000000004900002000000010410404281211564156834875580428000007069426   1020000200030000   333400010001204104000000281Myanmar Soft-Gate Tech Yangon        MMR11004281211564156830428000000000000000   10300001F05104100000000001029000000000000     
100   62911028202281370000000000013800000000013800002000000010410404280820114214304369000428994501411117   1030000900030000   541119001217190110000000945City Mart TM C 2       YANGONONE     MMR11004280820114214300428000000000000000   10300001F00104100000000000828000000000000     
100   95050318180584510000000000025000000000025000002000000010410404281257362736709577740428000007069644   1030000200030000   333800010001203104000003327KBZPay                 Yangon        MMR11004281257362736700428000000000000000   10300001F05104100000000005250000000000000     
100   95050328741376010000000000050000000000050000002000000010410404280720425042598875100428000007067451   1030000200030000   333800010001203104000003327KBZPay                 Yangon        MMR11004280720425042590428000000000000000   10300001F05104100000000010500000000000000     
100   95050319122743920000000000031800000000031800002000000010410404271122430031307109940427000342288803   1030000300030000   531100000797000000000000540CB BANK                CAPITAL SUPER MMR11004271122430031300427000000000000000   10300001F00104100000000007632000000000000     
100   95050320531117320000000000067304000000067304002000000010410404271040050007236769550427211717000723   1030000500030000   598320002702000015172200027MAX ENERGY             PTN           MMR11004271040050007230427000000000000000   10300001 00104100000000008076000000000000     
100   95030301100121270000000000009900000000009900002000000010410404270308100040034369000427000342225105   1030000300030000   541100000449000000000000319CB BANK                ONESTOP KITCH MMR11004270308100040030427000000000000000   10300001F00104100000000000594000000000000     
100   95050312360118350000000000008260000000008260002000000010410404270244480007578934980427000342222278   1030000300030000   591200000169000000000000084CB BANK                MEDICARE STOR MMR11004270244480007570427000000000000000   10300001F00104100000000001982000000000000     
100   62911028202595380000000000070000000000070000002000000010410404270742500005954369000427211714000595   1030000500030000   598320041903000055983200419MAX ENERGY             PTN           MMR11004270742500005950427000000000000000   10300001 00104100000000002100000000000000     
100   62443100369813440000000000020000000000020000002000000010410404270103510008488353090427211707000848   1030000500030000   598320001302000015172200013MAX ENERGY             PTN           MMR11004270103510008480427000000000000000   10300001 00104100000000002400000000000000     
100   95030333409030400000000000050000000000050000002000000010410404270142010008324369000427211708000832   1030000500030000   598320001003000015172200010MAX ENERGY             PTN           MMR11004270142010008320427000000000000000   10300001 00104100000000001500000000000000     
100   95050329252108030000000000028337000000028337002000000010410404271318330006293634790427211719000629   1030000500030000   598320041903000055983200419MAX ENERGY             PTN           MMR11004271318330006290427000000000000000   10300001 00104100000000003400000000000000     
100   95050321232876860000000000050000000000050000002000000010410404270234000106566431530427211702010656   1030000600030000   554100002328315799420001235DENKO NAY PYI TAW 2    NAYPYITAW     MMR11004270234000106560427000000000000000   10300001 00104100000000006000000000000000     
100   95050315430281830000000000020000000000020000002000000010410404281428485848544852710428000007070093   1030000200030000   333800010001203104000003327KBZPay                 Yangon        MMR11004281428485848540428000000000000000   10300001F05104100000000004200000000000000     
100   95030394609966640000000000039000000000039000002000000010410404280651168652464369000428211813865246   1040001600030000   598320000658000000010000527Shwe Taung Energy (YGN Yangon        MMR11004280651168652460428000000000000000   10300001F00104100000000001170000000000000     
100   95050313640946520000000000023186000000023186002000000010410404281137178825194365000428211818882519   1040001600030000   541120000555000000010000465Ocean Shwe Gone Daing  Yangon        MMR11004281137178825190428000000000000000   10300001F00104100000000005797000000000000     
100   95050327531396450000000000090000000000090000002000000010410404280327105710118712990428000007065335   1030000200030000   333800010001203104000003327KBZPay                 Yangon        MMR11004280327105710110428000000000000000   10300001F05104100000000018900000000000000     
100   62911028202443730000000000033803000000033803002000000010410404280326039408354369000428744590939117   1030000500030000   555610112244104519000010487Ocean Super Center St  ohn           MMR11004280326039408350428000000000000000   10300001 00104100000000002028000000000000     
100   95050311736839760000000000001960000000001960002000000010410404281115444544205421810428000007069151   1020000200030000   333400010001204104000000281Myanmar Soft-Gate Tech Yangon        MMR11004281115444544200428000000000000000   10300001F05104100000000000412000000000000     
100   95050315396509660000000000021000000000021000002000000010410404281024165416595166520428000007068910   1030000200030000   333800010001203104000003327KBZPay                 Yangon        MMR11004281024165416590428000000000000000   10300001F05104100000000004410000000000000     
100   95050313240335680000000000063200000000063200002000000010410404281017594247161861550428919471659117   1030000900030000   591219000601190110000000441Shwe Ohh Pharmacy St-3 YANGON        MMR11004281017594247160428000000000000000   10300001F00104100000000015168000000000000     
100   62911028202269410000000000030000000000030000002000000010410404270127240816034369000427211701081603   1030000600030000   554100000946315799420000471DENKO BAHAN            YANGON        MMR11004270127240816030427000000000000000   10300001 00104100000000000900000000000000     
100   62911028202778600000000000180000000000180000002000000010410404270550050096704369000427211705009670   1030000600030000   554100000757315799420000328DENKO  HTONE BO        MANDALAY      MMR11004270550050096700427000000000000000   10300001 00104100000000005400000000000000     
100   62911028202221220000000000009100000000009100002000000010410404262348250065464369000427211723006546   1030000600030000   549900002153315799420001502EASY MART- 003         YANGON        MMR11004262348250065460427000000000000000   10300001 00104100000000000928000000000000     
100   95050321232876860000000000085000000000085000002000000010410404270308350355945970400427211703035594   1030000600030000   554100001865315799420001235DENKO NAY PYI TAW 2    NAYPYITAW     MMR11004270308350355940427000000000000000   10300001 00104100000000010200000000000000     
100   62443100395964530000000000030000000000030000002000000010410404260331210135157440530426211603013515   1030000600030000   554100002320315799420000564DENKO PHYUU            PHYUU         MMR11004260331210135150426000000000000000   10300001 00104100000000003600000000000000     
100   95050311077567400000000000005000000000005000002000000010410404271640391039155797840428000007064052   1030000900030000   333400010001202104000002022ACS                    Yangon        MMR11004271640391039150428000000000000000   10300001F05104100000000001050000000000000     
100   95050311382087030000000000001960000000001960002000000010410404281248551855358350730428000007069598   1020000200030000   333400010001204104000000281Myanmar Soft-Gate Tech Yangon        MMR11004281248551855350428000000000000000   10300001F05104100000000000412000000000000     
100   95050328855407440000000000007600000000007600002000000010410404280803464210043796900428750331446117   1030000900030000   541119001111190110000000872Sein Gay Har Hledan    YANGONUT      MMR11004280803464210040428000000000000000   10300001F00104100000000001900000000000000     
100   95050319111666800000000000000980000000000980002000000010410404281314544454619747930428000007069724   1020000200030000   333400010001204104000000281Myanmar Soft-Gate Tech Yangon        MMR11004281314544454610428000000000000000   10300001F05104100000000000206000000000000     
100   95030301100122420000000000210000000000210000002000000010410404280416424642644369000428000007065866   1030000200030000   333800010001203104000003327KBZPay                 Yangon        MMR11004280416424642640428000000000000000   10300001F05104100000000044100000000000000     
100   95030394609966640000000000002900000000002900002000000010410404280551018619864369000428211812861986   1040001600030000   591220000298000000010000286Shwe Ohh Pharmacy (Shw Yangon        MMR11004280551018619860428000000000000000   10300001F00104100000000000174000000000000     
100   95030302100067550000000000008646000000008646002000000010410404280303539405944369000428504330928117   1030000500030000   555610112238104519000010487Ocean Super Center St  ohn           MMR11004280303539405940428000000000000000   10300001 00104100000000000519000000000000     
100   95050311419479170000000000000980000000000980002000000010410404280317034703838627890428000007065205   1020000200030000   333400010001204104000000281Myanmar Soft-Gate Tech Yangon        MMR11004280317034703830428000000000000000   10300001F05104100000000000206000000000000     
100   62911028202593140000000000007600000000007600002000000010410404280347279409984369000428906171031117   1030000500030000   555610114574104519000012532City Mart Ahlone Branc               MMR11004280347279409980428000000000000000   10300001 00104100000000000456000000000000     
100   62443100314002660000000000052686000000052686002000000010410404281156114276457584870428812261811117   1030000900030000   541119001516190110000001102Ocean MGDTM C-9        YANGONADON    MMR11004281156114276450428000000000000000   10300001F00104100000000013172000000000000     
100   95050317084233280000000000004900000000004900002000000010410404280919164916178946410428000007068435   1020000200030000   333400010001204104000000281Myanmar Soft-Gate Tech Yangon        MMR11004280919164916170428000000000000000   10300001F05104100000000001029000000000000     
100   62911028202492080000000000005200000000005200002000000010410404281031574251894369000428236011757117   1030000900030000   541119001236190110000000951Marketplace KTY C 6    YANGONARTAUNG MMR11004281031574251890428000000000000000   10300001F00104100000000000312000000000000     
100   95050322823372070000000000020000000000020000002000000010410404281034094252671606260428287041709117   1030000900030000   554119001103190110000000215New Day Energy MYG     YANGONONE     MMR11004281034094252670428000000000000000   10300001F00104100000000002400000000000000     
100   95050312173216740000000000005500000000005500002000000010410404271018530004865366650427000342280719   1030000300030000   531100000831000000000000567CB BANK                MGOU          MMR11004271018530004860427000000000000000   10300001F00104100000000001320000000000000     
100   62911028202170490000000000045000000000045000002000000010410404270732210008614369000427211714000861   1030000500030000   598320001403000015172200014MAX ENERGY             PTN           MMR11004270732210008610427000000000000000   10300001 00104100000000001350000000000000     
100   95050317338786370000000000003000000000003000002000000010410404280346221622667400890428000007065530   1030000200030000   3334000100012031040000040102C2P (Myanmar) Co. Ltd Yangon        MMR11004280346221622660428000000000000000   10300001F05104100000000000630000000000000     
100   95050312240830690000000000000980000000000980002000000010410404281503253325242859840428000007070240   1020000200030000   333400010001204104000000281Myanmar Soft-Gate Tech Yangon        MMR11004281503253325240428000000000000000   10300001F05104100000000000206000000000000     
100   62911028202687370000000000011466000000011466002000000010410404270953490002844369000427211716000284   1030000500030000   531120155714000045311201557GAMONE PWINT           PTN           MMR11004270953490002840427000000000000000   10300001 00104100000000000688000000000000     
100   95030367537085740000000000004900000000004900002000000010410404281032020202554369000428000007068955   1020000200030000   333400010001204104000000281Myanmar Soft-Gate Tech Yangon        MMR11004281032020202550428000000000000000   10300001F05104100000000001029000000000000     
100   95050314995854750000000000010000000000010000002000000010410404281024564249638556580428078541656117   1030000900030000   541119000117190110000000078Sein Gay Har Kan Thar  YANGONOKKALAP MMR11004281024564249630428000000000000000   10300001F00104100000000002500000000000000     
100   95030352597917530000000000050000000000050000002000000010410404281415574557494369000428000007070024   1030000200030000   333800010001203104000003327KBZPay                 Yangon        MMR11004281415574557490428000000000000000   10300001F05104100000000010500000000000000     
100   62911028202417000000000000011800000000011800002000000010410404280512488596564369000428211812859656   1040001600030000   591220000043000000010000041Mingalar Pharmacy      Yangon        MMR11004280512488596560428000000000000000   10300001F00104100000000000708000000000000     
100   95050312139901420000000000001960000000001960002000000010410404281313184318344790480428000007069714   1020000200030000   333400010001204104000000281Myanmar Soft-Gate Tech Yangon        MMR11004281313184318340428000000000000000   10300001F05104100000000000412000000000000     
100   95050323233042810000000000002940000000002940002000000010410404281227245724976613150428000007069493   1020000200030000   333400010001204104000000281Myanmar Soft-Gate Tech Yangon        MMR11004281227245724970428000000000000000   10300001F05104100000000000617000000000000     
100   62911028202790980000000000090000000000090000002000000010410404280338448553054369000428211810855305   1040001600030000   598320000322000000010000310PT Power Petrol Statio Yangon        MMR11004280338448553050428000000000000000   10300001F00104100000000002700000000000000     
100   95030310098554020000000000270000000000270000002000000010410404280427179413934369000428281581054117   1030000300030000   555510117355104519000014762ARYU Hospital                        MMR11004280427179413930428000000000000000   10300001 00104100000000016200000000000000     
100   62911028202533820000000000100000000000100000002000000010410404280545148616284369000428211812861628   1040001600030000   591220000263000000010000251Shwe Ohh Pharmacy (KM- Yangon        MMR11004280545148616280428000000000000000   10300001F00104100000000006000000000000000     
100   95030303100034700000000000007550000000007550002000000010410404280537589421524369000428047101241117   1030000500030000   555610110561104519000009163City Mart Ayeyarwon Br nch           MMR11004280537589421520428000000000000000   10300001 00104100000000000453000000000000     
100   95030301100121270000000000006600000000006600002000000010410404281243160182324369000428000746220363   1030000200030000   541188001055000008000000314KBZ BANK               MARKETPLACE - MMR11004281243160182320428000000000000000   10300001 00104100000000000396000000000000     
100   95030309499491760000000000006000000000006000002000000010410404280832150215934369000428000007068020   1030000200030000   333800010001203104000003327KBZPay                 Yangon        MMR11004280832150215930428000000000000000   10300001F05104100000000001260000000000000     
100   95050318180584510000000000005000000000005000002000000010410404281050282028248982060428000007069042   1030000200030000   333800010001203104000003327KBZPay                 Yangon        MMR11004281050282028240428000000000000000   10300001F05104100000000001050000000000000     
100   95050321057500320000000000004900000000004900002000000010410404280545571557634713460428000007066651   1020000200030000   333400010001204104000000281Myanmar Soft-Gate Tech Yangon        MMR11004280545571557630428000000000000000   10300001F05104100000000001029000000000000     
100   95050310427855490000000000001960000000001960002000000010410404280510084008357351440428000007066338   1020000200030000   333400010001204104000000281Myanmar Soft-Gate Tech Yangon        MMR11004280510084008350428000000000000000   10300001F05104100000000000412000000000000     
100   62911028202091860000000000002940000000002940002000000010410404281347061706814369000428000007069878   1020000200030000   333400010001204104000000281Myanmar Soft-Gate Tech Yangon        MMR11004281347061706810428000000000000000   10300001F05104100000000000617000000000000     
100   95050316818236190000000000002940000000002940002000000010410404281257342734154620280428000007069640   1020000200030000   333400010001204104000000281Myanmar Soft-Gate Tech Yangon        MMR11004281257342734150428000000000000000   10300001F05104100000000000617000000000000     
100   62911028202557750000000000106800000000106800002000000010410404281008598749304369000428211817874930   1040001600030000   591220000286000000010000274Shwe Ohh Pharmacy (Nor Yangon        MMR11004281008598749300428000000000000000   10300001F00104100000000006408000000000000     
100   95030394609966640000000000027400000000027400002000000010410404280635269428234369000428811061357117   1030000500030000   555610114572104519000012532City Mart Ahlone Branc               MMR11004280635269428230428000000000000000   10300001 00104100000000001644000000000000     
100   95050314995854750000000000010000000000010000002000000010410404281030594251634911230428218001759117   1030000900030000   541119000117190110000000078Sein Gay Har Kan Thar  YANGONOKKALAP MMR11004281030594251630428000000000000000   10300001F00104100000000002500000000000000     
100   62911028202107210000000000033300000000033300002000000010410404281138264272004369000428507081826117   1030000900030000   581219001545190110000001119Paradise Hot Pot       YANGONUT      MMR11004281138264272000428000000000000000   10300001F00104100000000003397000000000000     
100   62911028202523430000000000027950000000027950002000000010410404280412278567154369000428211811856715   1040001600030000   591220000274000000010000262Shwe Ohh Pharmacy (Shw Yangon        MMR11004280412278567150428000000000000000   10300001F00104100000000001677000000000000     
100   95050317084233280000000000002940000000002940002000000010410404281115144514313684230428000007069147   1020000200030000   333400010001204104000000281Myanmar Soft-Gate Tech Yangon        MMR11004281115144514310428000000000000000   10300001F05104100000000000617000000000000     
100   95030367537085740000000000000980000000000980002000000010410404281414274427284369000428000007070014   1020000200030000   333400010001204104000000281Myanmar Soft-Gate Tech Yangon        MMR11004281414274427280428000000000000000   10300001F05104100000000000206000000000000     
100   95050323722449090000000000004409000000004409002000000010410404281024105410150209070428000007068903   1020000200030000   333400010001204104000000281Myanmar Soft-Gate Tech Yangon        MMR11004281024105410150428000000000000000   10300001F05104100000000000926000000000000     
100   95050329252108030000000000010000000000010000002000000010410404261357590141093771680426211613014109   1030000600030000   554100002323315799420000474DENKO N.DAGON - 1      YANGON        MMR11004261357590141090426000000000000000   10300001 00104100000000001200000000000000     
100   62911028202366010000000000090100000000090100002000000010410404280729234201044369000428247591323117   1030000900030000   541119001329190110000000971Ocean Junction NPT C 7 NAYPYITAW     MMR11004280729234201040428000000000000000   10300001F00104100000000005406000000000000     
100   95030346645639490000000000002597000000002597002000000010410404270443110001074369000427211711000107   1030000500030000   531120155716000045311201557GAMONE PWINT           PTN           MMR11004270443110001070427000000000000000   10300001 00104100000000000156000000000000     
100   95050318843447930000000000014500000000014500002000000010410404281010410001606720110428000746210077   1030000200030000   541188001288000008000001475KBZ BANK               CITY CARE STA MMR11004281010410001600428000000000000000   10300001 00104100000000003625000000000000     
100   62443101053241940000000000010300000000010300002000000010410404281411000010029811160428000746226316   1030000200030000   541188001311000008000000325KBZ BANK               CITY MART - A MMR11004281411000010020428000000000000000   10300001 00104100000000002575000000000000     
100   95050312498129060000000000000980000000000980002000000010410404280830050005484038400428000007068005   1020000200030000   333400010001204104000000281Myanmar Soft-Gate Tech Yangon        MMR11004280830050005480428000000000000000   10300001F05104100000000000206000000000000     
100   62911028202509170000000000009200000000009200002000000010410404281836390009124369000428000746239264   1030000200030000   541188001008000008000000008KBZ BANK               MARKETPLACE - MMR11004281836390009120428000000000000000   10300001 00104100000000000552000000000000     
100   62911028202473840000000000503000000000503000002000000010410404280356440020074369000428211810002007   1020000200030000   806200105003300018062000010MWD BANK               YGN           MMR11004280356440020070428000000000000000   10300001 00104100000000030180000000000000     
100   62911028202170310000000000330646000000330646002000000010410404280736365311374369000428063619521739   1040001400030000   806210000095028062100000766Yoma OUE Pun Hlaing Ho pital  Yoma O MMR11004280736365311370428000000000000000   10300001 00104100000000019839000000000000     
100   62911028202909050000000000014000000000014000002000000010410404281039038773314369000428211817877331   1040001600030000   569120000927000000010000674Generation Concept Sto Ygn           MMR11004281039038773310428000000000000000   10300001F00104100000000000840000000000000     
100   62911028202088990000000000006350000000006350002000000010410404281102288793134369000428211818879313   1040001600030000   591220000303000000010000291Shwe Ohh Pharmacy (Kyu Yangon        MMR11004281102288793130428000000000000000   10300001F00104100000000000381000000000000     
100   95030303100034700000000000024050000000024050002000000010410404280539049421764369000428075121218117   1030000500030000   555610110561104519000009163City Mart Ayeyarwon Br nch           MMR11004280539049421760428000000000000000   10300001 00104100000000001443000000000000     
100   95030302100067550000000000105350000000105350002000000010410404280919599447294369000428013491544117   1030000300030000   555510124688104519000020166Makro Myanmar                        MMR11004280919599447290428000000000000000   10300001 00104100000000006321000000000000     
100   62911028202133940000000000010400000000010400002000000010410404281137509466874369000428388071828117   1030000500030000   555610112982104519000011143Market Place by City M rt Sule       MMR11004281137509466870428000000000000000   10300001 00104100000000000624000000000000     
100   62443100398006570000000000038100000000038100002000000010410404281140309468089152250428528141840117   1030000500030000   555610112242104519000010487Ocean Super Center St  ohn           MMR11004281140309468080428000000000000000   10300001 00104100000000009525000000000000     
100   62911028202520610000000000004600000000004600002000000010410404280907599446054369000428874381523117   1030000300030000   555610125778104519000021591One Stop Kitchen Super arket         MMR11004280907599446050428000000000000000   10300001 00104100000000000276000000000000     
100   62443100318296470000000000021350000000021350002000000010410404280544220030517933330428000746218505   1030000200030000   581288000098000008000003562KBZ BANK               CANTON PARADI MMR11004280544220030510428000000000000000   10300001 00104100000000009074000000000000     
100   62911028202788270000000000030000000000030000002000000010410404280411050014584369000428000746211913   1030000200030000   806288000621000008000003871KBZ BANK               PUN HLAING CL MMR11004280411050014580428000000000000000   10300001 00104100000000001800000000000000     
100   95030327835334700000000000016700000000016700002000000010410404281751350100494369000428000746237379   1030000200030000   541188001246000008000000323KBZ BANK               CITY MART - I MMR11004281751350100490428000000000000000   10300001 00104100000000001002000000000000     
100   95050312695033440000000000000980000000000980002000000010410404280031420142584145360428000007064430   1020000200030000   333400010001204104000000281Myanmar Soft-Gate Tech Yangon        MMR11004280031420142580428000000000000000   10300001F05104100000000000206000000000000     
100   62443100337100010000000000015950000000015950002000000010410404281506200182401158920428000746229786   1030000200030000   541188001055000008000000314KBZ BANK               MARKETPLACE - MMR11004281506200182400428000000000000000   10300001 00104100000000003988000000000000     
100   62911028202440680000000000027200000000027200002000000010410404281537110105054369000428000746231385   1030000200030000   541188001081000008000000294KBZ BANK               CITY MART - J MMR11004281537110105050428000000000000000   10300001 00104100000000001632000000000000     
100   62911028202318750000000000006700000000006700002000000010410404281821440203624369000428000746238687   1030000200030000   541188001017000008000000008KBZ BANK               MARKETPLACE - MMR11004281821440203620428000000000000000   10300001 00104100000000000402000000000000     
100   95030308100042590000000000009200000000009200002000000010410404281205160189984369000428000746217904   1030000200030000   541188001075000008000000294KBZ BANK               CITY MART - J MMR11004281205160189980428000000000000000   10300001 00104100000000000552000000000000     
100   95050312781844250000000000121000000000121000002000000010410404281114024402615336710428000007069145   1030000200030000   333800010001203104000003327KBZPay                 Yangon        MMR11004281114024402610428000000000000000   10300001F05104100000000025410000000000000     
100   95050311382087030000000000001960000000001960002000000010410404281016264626836819000428000007068838   1020000200030000   333400010001204104000000281Myanmar Soft-Gate Tech Yangon        MMR11004281016264626830428000000000000000   10300001F05104100000000000412000000000000     
100   95030337100000390000000000099150000000099150002000000010410404270328450008744369000427000342227848   1030000300030000   541100000961000000000000683CB BANK                ONE STOP KITC MMR11004270328450008740427000000000000000   10300001F00104100000000005949000000000000     
100   62911028202464020000000000009650000000009650002000000010410404281007339453774369000428776381644117   1030000500030000   555610110575104519000009164City Mart China Town P int Cen       MMR11004281007339453770428000000000000000   10300001 00104100000000000579000000000000     
100   62911028202661370000000000043500000000043500002000000010410404280810229439164369000428069421436117   1030000500030000   555610112252104519000010487Ocean Super Center St  ohn           MMR11004280810229439160428000000000000000   10300001 00104100000000002610000000000000     
100   62911028202057620000000000136600000000136600002000000010410404281139319467864369000428504131813117   1030000500030000   555610112234104519000010487Ocean Super Center St  ohn           MMR11004281139319467860428000000000000000   10300001 00104100000000008196000000000000     
100   95030327835334700000000000019700000000019700002000000010410404281805340080084369000428000746237957   1030000200030000   541188001253000008000000323KBZ BANK               CITY MART - I MMR11004281805340080080428000000000000000   10300001 00104100000000001182000000000000     
100   95050319391394380000000000007550000000007550002000000010410404281007219453896577500428792391634117   1030000500030000   555610110597104519000009166City Mart 47 Branch                  MMR11004281007219453890428000000000000000   10300001 00104100000000001888000000000000     
100   62911028202116610000000000024656000000024656002000000010410404281639430182524369000428000746234160   1030000200030000   541188001055000008000000314KBZ BANK               MARKETPLACE - MMR11004281639430182520428000000000000000   10300001 00104100000000001479000000000000     
100   62911028202221220000000000029550000000029550002000000010410404281151100088194369000428000746216949   1030000200030000   541188001002000008000000008KBZ BANK               MARKETPLACE - MMR11004281151100088190428000000000000000   10300001 00104100000000001773000000000000     
100   62911028202116950000000000002000000000002000002000000010410404281255490079354369000428000746221279   1030000200030000   541188001071000008000000314KBZ BANK               MARKETPLACE - MMR11004281255490079350428000000000000000   10300001 00104100000000000120000000000000     
100   62443101053241940000000000100700000000100700002000000010410404281406360157795910520428000746225991   1030000200030000   541188001305000008000000325KBZ BANK               CITY MART - A MMR11004281406360157790428000000000000000   10300001 00104100000000025175000000000000     
100   95030317922148660000000000075218000000075218002000000010410404281423000201704369000428000746227199   1030000200030000   541188001001000008000000008KBZ BANK               MARKETPLACE - MMR11004281423000201700428000000000000000   10300001 00104100000000004513000000000000     
100   95030315150842990000000000081981000000081981002000000010410404281829320308554369000428000746238994   1030000200030000   541188001039000008000000010KBZ BANK               MARKETPLACE - MMR11004281829320308550428000000000000000   10300001 00104100000000004919000000000000     
100   95030315150842990000000000017650000000017650002000000010410404281830540308564369000428000746239055   1030000200030000   541188001039000008000000010KBZ BANK               MARKETPLACE - MMR11004281830540308560428000000000000000   10300001 00104100000000001059000000000000     
100   62911028202232370000000000005000000000005000002000000010410404281430590059084369000428000007070108   1030000200030000   333800010001203104000003327KBZPay                 Yangon        MMR11004281430590059080428000000000000000   10300001F05104100000000001050000000000000     
100   62911028202175770000000000006400000000006400002000000010410404281631170203514369000428000746233850   1030000200030000   541188001017000008000000008KBZ BANK               MARKETPLACE - MMR11004281631170203510428000000000000000   10300001 00104100000000000384000000000000     
100   62911028202116950000000000004200000000004200002000000010410404281250150066184369000428000746220875   1030000200030000   541188001062000008000000314KBZ BANK               MARKETPLACE - MMR11004281250150066180428000000000000000   10300001 00104100000000000252000000000000     
100   95050314950595330000000000001000000000001000002000000010410404281534040404454512330428000007070352   1030000200030000   3338000100012031040000040022C2P (Myanmar) Co. Ltd Yangon        MMR11004281534040404450428000000000000000   10300001F05104100000000000210000000000000     
100   95050312240830690000000000002940000000002940002000000010410404280147481748907960910428000007064633   1020000200030000   333400010001204104000000281Myanmar Soft-Gate Tech Yangon        MMR11004280147481748900428000000000000000   10300001F05104100000000000617000000000000     
100   95050312498129060000000000000980000000000980002000000010410404280058012801868046000428000007064493   1020000200030000   333400010001204104000000281Myanmar Soft-Gate Tech Yangon        MMR11004280058012801860428000000000000000   10300001F05104100000000000206000000000000     
100   95050327409540490000000000016350000000016350002000000010410404280630204186780521870428521001320117   1030000900030000   541119000124190110000000080Sein Gay Har BAK       YANGONADA     MMR11004280630204186780428000000000000000   10300001F00104100000000004088000000000000     
100   95050327416134790000000000002940000000002940002000000010410404281353092309459725070428000007069900   1020000200030000   333400010001204104000000281Myanmar Soft-Gate Tech Yangon        MMR11004281353092309450428000000000000000   10300001F05104100000000000617000000000000     
100   95050323722449090000000000004900000000004900002000000010410404280350542054239223560428000007065571   1020000200030000   333400010001204104000000281Myanmar Soft-Gate Tech Yangon        MMR11004280350542054230428000000000000000   10300001F05104100000000001029000000000000     
100   95050319928585020000000000004900000000004900002000000010410404280459342934845103290428000007066244   1020000200030000   333400010001204104000000281Myanmar Soft-Gate Tech Yangon        MMR11004280459342934840428000000000000000   10300001F05104100000000001029000000000000     
100   95050319524870520000000000002940000000002940002000000010410404280305143514101337180428000007065065   1020000200030000   333400010001204104000000281Myanmar Soft-Gate Tech Yangon        MMR11004280305143514100428000000000000000   10300001F05104100000000000617000000000000     
100   95050328855407440000000000023900000000023900002000000010410404280746224205568328870428492161422117   1030000900030000   541119001074190110000000872Sein Gay Har Hledan    YANGONUT      MMR11004280746224205560428000000000000000   10300001F00104100000000005975000000000000     
100   95030301100124400000000000016000000000016000002000000010410404280809514211734369000428850391451117   1030000900030000   541119001260190110000000958City Mart PLST C 3     YANGONMYOTHIT MMR11004280809514211730428000000000000000   10300001F00104100000000000960000000000000     
100   95050318180584510000000000010000000000010000002000000010410404281052182218512287030428000007069049   1030000200030000   333800010001203104000003327KBZPay                 Yangon        MMR11004281052182218510428000000000000000   10300001F05104100000000002100000000000000     
100   95050316321163940000000000000980000000000980002000000010410404281045211521965081420428000007069020   1020000200030000   333400010001204104000000281Myanmar Soft-Gate Tech Yangon        MMR11004281045211521960428000000000000000   10300001F05104100000000000206000000000000     
100   95050318805978240000000000100700000000100700002000000010410404280259382938817947120428000007065006   1030000200030000   333800010001203104000003327KBZPay                 Yangon        MMR11004280259382938810428000000000000000   10300001F05104100000000021147000000000000     
100   95050319532433550000000000010061000000010061002000000010410404280257372737884982530428000007064969   1030000200030000   333800010001203104000003327KBZPay                 Yangon        MMR11004280257372737880428000000000000000   10300001F05104100000000002113000000000000     
