100   95050313836159580000000000001000000000001000002000000010410405011616594659896412880501000007086582   1030000200030000   3334000100012031040000040102C2P (Myanmar) Co. Ltd Yangon        MMR11005011616594659890501000000000000000   10300001F05104100000000000210000000000000     
100   95030367537085740000000000001960000000001960002000000010410405010113594359294369000501000007082721   1020000200030000   333400010001204104000000281Myanmar Soft-Gate Tech Yangon        MMR11005010113594359290501000000000000000   10300001F05104100000000000412000000000000     
100   95050310711432300000000000250000000000250000002000000010410405010203313331203332410501000007082859   1030000200030000   333800010001203104000003327KBZPay                 Yangon        MMR11005010203313331200501000000000000000   10300001F05104100000000052500000000000000     
100   62911028202533900000000000021900000000021900002000000010410405011011500810204369000501212117081020   1040001600030000   591220000284000000010000272Shwe Ohh Pharmacy (San Yangon        MMR11005011011500810200501000000000000000   10300001F00104100000000001314000000000000     
100   95050317084233280000000000004900000000004900002000000010410405010555542554526027920501000007084111   1020000200030000   333400010001204104000000281Myanmar Soft-Gate Tech Yangon        MMR11005010555542554520501000000000000000   10300001F05104100000000001029000000000000     
100   95030301100124400000000000007200000000007200002000000010410405010406294827894369000501219361029120   1030000900030000   541119001273190110000000960City Mart PLST Season  YANGONMYOTHIT MMR11005010406294827890501000000000000000   10300001F00104100000000000432000000000000     
100   95050316997303010000000000300000000000300000002000000010410405010539330933400999150501000007084006   1030000200030000   333800010001203104000003327KBZPay                 Yangon        MMR11005010539330933400501000000000000000   10300001F05104100000000063000000000000000     
100   62911028202138320000000000009800000000009800002000000010410405011558092809164369000501000007086541   1020000200030000   333400010001204104000000281Myanmar Soft-Gate Tech Yangon        MMR11005011558092809160501000000000000000   10300001F05104100000000002058000000000000     
100   95030308100042590000000000093055000000093055002000000010410404300455580004814369000430212011000481   1030000500030000   598320001702000015172200017MAX ENERGY             PTN           MMR11004300455580004810430000000000000000   10300001 00104100000000002792000000000000     
100   95050324622440820000000000039550000000039550002000000010410404300420510010863985600430212010001086   1030000500030000   503920036610000015039200366PRO-1 HOME CENTER      PTN           MMR11004300420510010860430000000000000000   10300001 00104100000000009492000000000000     
100   62443100355445150000000000018800000000018800002000000010410405011203579833850143340501435381826120   1030000500030000   555610110599104519000009166City Mart 47 Branch                  MMR11005011203579833850501000000000000000   10300001 00104100000000004700000000000000     
100   62911028202484810000000000050000000000050000002000000010410404300950070010524369000430212016001052   1030000500030000   598320001602000015172200016MAX ENERGY             PTN           MMR11004300950070010520430000000000000000   10300001 00104100000000001500000000000000     
100   62911028202442250000000000024000000000024000002000000010410404300921460012294369000430212015001229   1030000500030000   598320001202000015172200012MAX ENERGY             PTN           MMR11004300921460012290430000000000000000   10300001 00104100000000000720000000000000     
100   62911028202260320000000000069000000000069000002000000010410404300419360000554369000430212010000055   1030000500030000   554120103901000015541201039M.A.D CAR SERVICE      PTN           MMR11004300419360000550430000000000000000   10300001 00104100000000002070000000000000     
100   62911028202169750000000000014000000000014000002000000010410404300632310000704369000430212013000070   1030000500030000   598320002101000015172200021MAX ENERGY             PTN           MMR11004300632310000700430000000000000000   10300001 00104100000000000420000000000000     
100   62443100371309900000000000257673000000257673002000000010410405011416419846254930590501023462014120   1030000300030000   555510125331104519000021173One Stop Mart Shopping Mall 0003     MMR11005011416419846250501000000000000000   10300001 00104100000000061842000000000000     
100   95050318180584510000000000085000000000085000002000000010410405010708553855223659010501000007084440   1030000200030000   333800010001203104000003327KBZPay                 Yangon        MMR11005010708553855220501000000000000000   10300001F05104100000000017850000000000000     
100   95050312498129060000000000002940000000002940002000000010410405011306013601823618500501000007085874   1020000200030000   333400010001204104000000281Myanmar Soft-Gate Tech Yangon        MMR11005011306013601820501000000000000000   10300001F05104100000000000617000000000000     
100   95050327531396450000000000002940000000002940002000000010410405010242491249883502600501000007083053   1020000200030000   333400010001204104000000281Myanmar Soft-Gate Tech Yangon        MMR11005010242491249880501000000000000000   10300001F05104100000000000617000000000000     
100   95050316785465380000000000001960000000001960002000000010410405010317054705516346440501000007083228   1020000200030000   333400010001204104000000281Myanmar Soft-Gate Tech Yangon        MMR11005010317054705510501000000000000000   10300001F05104100000000000412000000000000     
100   62911028202581830000000000300000000000300000002000000010410405010555562556994369000501000007084110   1030000200030000   333800010001203104000003327KBZPay                 Yangon        MMR11005010555562556990501000000000000000   10300001F05104100000000063000000000000000     
100   95030301100121680000000000010000000000010000002000000010410405011447071707854369000501000007086305   1030000200030000   333800010001203104000003327KBZPay                 Yangon        MMR11005011447071707850501000000000000000   10300001F05104100000000002100000000000000     
100   95050312139901420000000000000980000000000980002000000010410405011107143714391164490501000007085412   1020000200030000   333400010001204104000000281Myanmar Soft-Gate Tech Yangon        MMR11005011107143714390501000000000000000   10300001F05104100000000000206000000000000     
100   62911028202030150000000000049500000000049500002000000010410405010406053605404369000501000007083496   1030000200030000   333800010001203104000003327KBZPay                 Yangon        MMR11005010406053605400501000000000000000   10300001F05104100000000010395000000000000     
100   95030308100042590000000000073500000000073500002000000010410404300500050004824369000430212011000482   1030000500030000   598320001702000015172200017MAX ENERGY             PTN           MMR11004300500050004820430000000000000000   10300001 00104100000000002205000000000000     
100   95050312937155340000000000012950000000012950002000000010410404301123380001957106590430212017000195   1030000500030000   591220013501014405912200135SHWE OHH PHARMACY      PTN           MMR11004301123380001950430000000000000000   10300001 00104100000000003108000000000000     
100   95050312937155340000000000058700000000058700002000000010410404301124140001968844170430212017000196   1030000500030000   591220013501014405912200135SHWE OHH PHARMACY      PTN           MMR11004301124140001960430000000000000000   10300001 00104100000000014088000000000000     
100   62911028202296630000000000013300000000013300002000000010410405011348549844834369000501779212025120   1030000300030000   444410106710104519000005921YKKO Bahan 2                         MMR11005011348549844830501000000000000000   10300001 00104100000000001357000000000000     
100   62911028202495390000000000008600000000008600002000000010410405011309529841784369000501425441951120   1030000500030000   555610110599104519000009166City Mart 47 Branch                  MMR11005011309529841780501000000000000000   10300001 00104100000000000516000000000000     
100   62911028202261230000000000027500000000027500002000000010410404290609290002554369000429211912000255   1030000500030000   531120156005000045311201560GAMONE PWINT           PTN           MMR11004290609290002550429000000000000000   10300001 00104100000000001650000000000000     
100   62911028202910850000000000002300000000002300002000000010410405011326339842814369000501539561902120   1030000500030000   555610112649104519000010844City Express MCS 20                  MMR11005011326339842810501000000000000000   10300001 00104100000000000138000000000000     
100   95050312224678430000000000002940000000002940002000000010410405010744291429152687290501000007084595   1020000200030000   333400010001204104000000281Myanmar Soft-Gate Tech Yangon        MMR11005010744291429150501000000000000000   10300001F05104100000000000617000000000000     
100   95050315345734110000000000017700000000017700002000000010410405010555524849881070460501668251252120   1030000900030000   541119001242190110000000955City Mart JS C 1       YANGONUT      MMR11005010555524849880501000000000000000   10300001F00104100000000004425000000000000     
100   95030359363082940000000000020000000000020000002000000010410405010335060506154369000501000007083328   1030000200030000   333800010001203104000003327KBZPay                 Yangon        MMR11005010335060506150501000000000000000   10300001F05104100000000004200000000000000     
100   95050312139901420000000000001000000000001000002000000010410405010946071607222042180501000007085099   1030000200030000   333800010001203104000003327KBZPay                 Yangon        MMR11005010946071607220501000000000000000   10300001F05104100000000000210000000000000     
100   95050318575030940000000000004900000000004900002000000010410405010341081108294595070501000007083351   1020000200030000   333400010001204104000000281Myanmar Soft-Gate Tech Yangon        MMR11005010341081108290501000000000000000   10300001F05104100000000001029000000000000     
100   95050315743141220000000000000980000000000980002000000010410405011239150915151710720501000007085755   1020000200030000   333400010001204104000000281Myanmar Soft-Gate Tech Yangon        MMR11005011239150915150501000000000000000   10300001F05104100000000000206000000000000     
100   95030367537085740000000000001960000000001960002000000010410405010839460946174369000501000007084844   1020000200030000   333400010001204104000000281Myanmar Soft-Gate Tech Yangon        MMR11005010839460946170501000000000000000   10300001F05104100000000000412000000000000     
100   95030301100344690000000000020000000000020000002000000010410405011500153015934369000501000007086355   1030000200030000   333800010001203104000003327KBZPay                 Yangon        MMR11005011500153015930501000000000000000   10300001F05104100000000004200000000000000     
100   95050312792817170000000000001960000000001960002000000010410404302250592059269085670501000007082530   1020000200030000   333400010001204104000000281Myanmar Soft-Gate Tech Yangon        MMR11004302250592059260501000000000000000   10300001F05104100000000000412000000000000     
100   62443100346413950000000000048566000000048566002000000010410404291321240012619653770429211919001261   1030000500030000   598320001003000015172200010MAX ENERGY             PTN           MMR11004291321240012610429000000000000000   10300001 00104100000000005828000000000000     
100   62443100360763680000000000109700000000109700002000000010410405010846460032844240900501000746367411   1030000200030000   599988000600000008000003439KBZ BANK               SWEETY HOME ( MMR11005010846460032840501000000000000000   10300001 00104100000000026328000000000000     
100   95050314557307430000000000002940000000002940002000000010410405011139060906509086520501000007085524   1020000200030000   333400010001204104000000281Myanmar Soft-Gate Tech Yangon        MMR11005011139060906500501000000000000000   10300001F05104100000000000617000000000000     
100   95050315066440750000000000022161000000022161002000000010410405011013254907924290340501133431625120   1030000900030000   541119001261190110000000958City Mart PLST C 4     YANGONMYOTHIT MMR11005011013254907920501000000000000000   10300001F00104100000000005541000000000000     
100   62911028202142850000000000031736000000031736002000000010410405010958554904674369000501877281655120   1030000900030000   541119001189190110000000942City Mart HDC C 4      YANGONUT      MMR11005010958554904670501000000000000000   10300001F00104100000000001904000000000000     
100   95050312781844250000000000150000000000150000002000000010410405010108023802681333830501000007082697   1030000200030000   333800010001203104000003327KBZPay                 Yangon        MMR11005010108023802680501000000000000000   10300001F05104100000000031500000000000000     
100   95050314735271470000000000010600000000010600002000000010410405010621554855610183850501061511255120   1030000900030000   541119001280190110000000963City Mart SPL C 5      YANGONMYOTHIT MMR11005010621554855610501000000000000000   10300001F00104100000000002650000000000000     
100   62911028202595380000000000066817000000066817002000000010410405010817054879874369000501915471405120   1030000900030000   541119001264190110000000958City Mart PLST C 7     YANGONMYOTHIT MMR11005010817054879870501000000000000000   10300001F00104100000000004009000000000000     
100   62443100330108240000000000002940000000002940002000000010410405010647471747727219260501000007084352   1020000200030000   333400010001204104000000281Myanmar Soft-Gate Tech Yangon        MMR11005010647471747720501000000000000000   10300001F05104100000000000617000000000000     
100   95050313400081980000000000035000000000035000002000000010410405010347491749717985130501000007083383   1030000200030000   333800010001203104000003327KBZPay                 Yangon        MMR11005010347491749710501000000000000000   10300001F05104100000000007350000000000000     
100   95030301100119390000000000020000000000020000002000000010410405010207593759844369000501000007082878   1030000200030000   333800010001203104000003327KBZPay                 Yangon        MMR11005010207593759840501000000000000000   10300001F05104100000000004200000000000000     
100   62443100306698200000000000138850000000138850002000000010410405010820430743640864620501212115074364   1040001600030000   591220000278000000010000266Shwe Ohh Pharmacy (Bah Yangon        MMR11005010820430743640501000000000000000   10300001F00104100000000033324000000000000     
100   62443100395250310000000000000980000000000980002000000010410405010243211321666807570501000007083058   1020000200030000   333400010001204104000000281Myanmar Soft-Gate Tech Yangon        MMR11005010243211321660501000000000000000   10300001F05104100000000000206000000000000     
100   95050310711432300000000000300000000000300000002000000010410405010159042904429942350501000007082844   1030000200030000   333800010001203104000003327KBZPay                 Yangon        MMR11005010159042904420501000000000000000   10300001F05104100000000063000000000000000     
100   95050316321163940000000000002940000000002940002000000010410405011312454245640313530501000007085905   1020000200030000   333400010001204104000000281Myanmar Soft-Gate Tech Yangon        MMR11005011312454245640501000000000000000   10300001F05104100000000000617000000000000     
100   95050311438762210000000000004900000000004900002000000010410405011017114711077595300501000007085235   1020000200030000   333400010001204104000000281Myanmar Soft-Gate Tech Yangon        MMR11005011017114711070501000000000000000   10300001F05104100000000001029000000000000     
100   95050312139901420000000000030200000000030200002000000010410405010944071407968737210501000007085088   1030000200030000   333800010001203104000003327KBZPay                 Yangon        MMR11005010944071407960501000000000000000   10300001F05104100000000006342000000000000     
100   95050316997303010000000000110000000000110000002000000010410405010541031103839346670501000007084017   1030000200030000   333800010001203104000003327KBZPay                 Yangon        MMR11005010541031103830501000000000000000   10300001F05104100000000023100000000000000     
100   95050317338786370000000000003000000000003000002000000010410405010741241124827729840501000007084584   1030000200030000   3334000100012031040000040102C2P (Myanmar) Co. Ltd Yangon        MMR11005010741241124820501000000000000000   10300001F05104100000000000630000000000000     
100   95050314117051850000000000020000000000020000002000000010410404302333030303430823250501000007082546   1030000200030000   3338000100012031040000040022C2P (Myanmar) Co. Ltd Yangon        MMR11004302333030303430501000000000000000   10300001F05104100000000004200000000000000     
100   95050311559234320000000000017640000000017640002000000010410405010553522352793063330501000007084098   1020000200030000   333400010001204104000000281Myanmar Soft-Gate Tech Yangon        MMR11005010553522352790501000000000000000   10300001F05104100000000003704000000000000     
100   62911028202286990000000000030000000000030000002000000010410404290931380013704369000429211916001370   1030000500030000   598320001301000015172200013MAX ENERGY             PTN           MMR11004290931380013700429000000000000000   10300001 00104100000000000900000000000000     
100   62443100374797770000000000150000000000150000002000000010410405010949110793367084720501212116079336   1040001600030000   806220000092000000010000088Dr Z Aesthetics & Dent Yangon        MMR11005010949110793360501000000000000000   10300001F00104100000000036000000000000000     
100   62911028202136750000000000005000000000005000002000000010410405010639490687354369000501212113068735   1040001600030000   591220000296000000010000284Shwe Ohh Pharmacy (Lan Yangon        MMR11005010639490687350501000000000000000   10300001F00104100000000000300000000000000     
100   62911028202764900000000000005000000000005000002000000010410405011142201220714369000501000007085532   1030000200030000   333800010001203104000003327KBZPay                 Yangon        MMR11005011142201220710501000000000000000   10300001F05104100000000001050000000000000     
100   95050312498129060000000000000980000000000980002000000010410405011359462946004590210501000007086136   1020000200030000   333400010001204104000000281Myanmar Soft-Gate Tech Yangon        MMR11005011359462946000501000000000000000   10300001F05104100000000000206000000000000     
100   62911028202581830000000000300000000000300000002000000010410405011301033103504369000501000007085845   1030000200030000   333800010001203104000003327KBZPay                 Yangon        MMR11005011301033103500501000000000000000   10300001F05104100000000063000000000000000     
100   95050316785465380000000000001960000000001960002000000010410405010914534453806318860501000007084957   1020000200030000   333400010001204104000000281Myanmar Soft-Gate Tech Yangon        MMR11005010914534453800501000000000000000   10300001F05104100000000000412000000000000     
100   95050315701710960000000000004900000000004900002000000010410405010543481348521240660501000007084035   1020000200030000   333400010001204104000000281Myanmar Soft-Gate Tech Yangon        MMR11005010543481348520501000000000000000   10300001F05104100000000001029000000000000     
100   62443100395250310000000000000980000000000980002000000010410405010201453145754899800501000007082849   1020000200030000   333400010001204104000000281Myanmar Soft-Gate Tech Yangon        MMR11005010201453145750501000000000000000   10300001F05104100000000000206000000000000     
100   95050313836159580000000000001000000000001000002000000010410405011555182518449717850501000007086533   1030000200030000   3334000100012031040000040102C2P (Myanmar) Co. Ltd Yangon        MMR11005011555182518440501000000000000000   10300001F05104100000000000210000000000000     
100   62911028202679290000000000300000000000300000002000000010410405010800213021414369000501000007084657   1030000200030000   333800010001203104000003327KBZPay                 Yangon        MMR11005010800213021410501000000000000000   10300001F05104100000000063000000000000000     
100   95030308100042590000000000008500000000008500002000000010410404300939330002184369000430212016000218   1030000500030000   531120155808000045311201558GAMONE PWINT           PTN           MMR11004300939330002180430000000000000000   10300001 00104100000000000510000000000000     
100   95050319902033540000000000013200000000013200002000000010410404301145020005005198810430212018000500   1030000500030000   531120156001000045311201560GAMONE PWINT           PTN           MMR11004301145020005000430000000000000000   10300001 00104100000000003168000000000000     
100   62911028202280200000000000200000000000200000002000000010410404300646490002484369000430212013000248   1030000500030000   481220073201005904812200732TECHNOLAND COMPUTER TR PTN           MMR11004300646490002480430000000000000000   10300001 00104100000000012000000000000000     
100   62911028202421380000000000080000000000080000002000000010410404300425540004724369000430212010000472   1030000500030000   598320001702000015172200017MAX ENERGY             PTN           MMR11004300425540004720430000000000000000   10300001 00104100000000002400000000000000     
100   62911028202296630000000000037869000000037869002000000010410404301216120008524369000430212018000852   1030000500030000   598320001604000015172200016MAX ENERGY             PTN           MMR11004301216120008520430000000000000000   10300001 00104100000000001136000000000000     
100   62911028202803930000000000031650000000031650002000000010410404301126320000864369000430212017000086   1030000500030000   591220014501014405912200145SHWE OHH PHARMACY      PTN           MMR11004301126320000860430000000000000000   10300001 00104100000000001899000000000000     
100   62911028202245730000000000016700000000016700002000000010410404301247140003874369000430212019000387   1030000500030000   581220041801000055812200418SHWE LAR HOT POT       PTN           MMR11004301247140003870430000000000000000   10300001 00104100000000001703000000000000     
100   62911028202280200000000000214000000000214000002000000010410404300645570002454369000430212013000245   1030000500030000   481220073201005904812200732TECHNOLAND COMPUTER TR PTN           MMR11004300645570002450430000000000000000   10300001 00104100000000012840000000000000     
100   95050319331315630000000000009800000000009800002000000010410405010047541754416546570501000007082656   1020000200030000   333400010001204104000000281Myanmar Soft-Gate Tech Yangon        MMR11005010047541754410501000000000000000   10300001F05104100000000002058000000000000     
100   95050316421999920000000000004900000000004900002000000010410405010446311631737098510501000007083762   1020000200030000   333400010001204104000000281Myanmar Soft-Gate Tech Yangon        MMR11005010446311631730501000000000000000   10300001F05104100000000001029000000000000     
100   95030301100102610000000000020000000000020000002000000010410405010907223722374369000501000007084909   1030000200030000   333800010001203104000003327KBZPay                 Yangon        MMR11005010907223722370501000000000000000   10300001F05104100000000004200000000000000     
100   95050314401921990000000000001960000000001960002000000010410405011553082308808065370501000007086529   1020000200030000   333400010001204104000000281Myanmar Soft-Gate Tech Yangon        MMR11005011553082308800501000000000000000   10300001F05104100000000000412000000000000     
100   62911028202116120000000000186511000000186511002000000010410405011725590241154369000501000746373625   1030000200030000   541188001038000008000000010KBZ BANK               MARKETPLACE - MMR11005011725590241150501000000000000000   10300001 00104100000000011191000000000000     
100   62911028202077010000000000000980000000000980002000000010410405011337290729124369000501000007086027   1020000200030000   333400010001204104000000281Myanmar Soft-Gate Tech Yangon        MMR11005011337290729120501000000000000000   10300001F05104100000000000206000000000000     
100   95050312498129060000000000000980000000000980002000000010410405010238420842781765030501000007083034   1020000200030000   333400010001204104000000281Myanmar Soft-Gate Tech Yangon        MMR11005010238420842780501000000000000000   10300001F05104100000000000206000000000000     
100   95050310332595380000000000002940000000002940002000000010410405010242261226703417510501000007083052   1020000200030000   333400010001204104000000281Myanmar Soft-Gate Tech Yangon        MMR11005010242261226700501000000000000000   10300001F05104100000000000617000000000000     
100   95050324154190880000000000045000000000045000002000000010410404301031070000902610270430212017000090   1030000500030000   569120044901000015691200449NIKE (NTW)             PTN           MMR11004301031070000900430000000000000000   10300001 00104100000000010800000000000000     
100   95030353248676040000000000009200000000009200002000000010410404301038460003834369000430212017000383   1030000500030000   531120155712000045311201557GAMONE PWINT           PTN           MMR11004301038460003830430000000000000000   10300001 00104100000000000552000000000000     
100   95030308100042590000000000020000000000020000002000000010410404301028060012974369000430000342791917   1030000300030000   581400000745000000000000515CB BANK                KFC (JS)      MMR11004301028060012970430000000000000000   10300001F00104100000000000600000000000000     
100   95030308100042590000000000058400000000058400002000000010410404300858310005924369000430212015000592   1030000500030000   531120155802000045311201558GAMONE PWINT           PTN           MMR11004300858310005920430000000000000000   10300001 00104100000000003504000000000000     
100   95050329252108030000000000093000000000093000002000000010410404300651530012078553230430212013001207   1030000500030000   598320001202000015172200012MAX ENERGY             PTN           MMR11004300651530012070430000000000000000   10300001 00104100000000011160000000000000     
100   62911028202212490000000000006100000000006100002000000010410404301031430002304369000430212017000230   1030000500030000   581220195901000085812201959AKKHAYA TEA HOUSE      PTN           MMR11004301031430002300430000000000000000   10300001 00104100000000000622000000000000     
100   62443100313112320000000000083590000000083590002000000010410404301058530004786340720430212017000478   1030000500030000   598320088701005405983200887PT POWER TRADING CO. L PTN           MMR11004301058530004780430000000000000000   10300001 00104100000000010031000000000000     
100   95030398701797940000000000008550000000008550002000000010410404300838160004174369000430212015000417   1030000500030000   531120155714000045311201557GAMONE PWINT           PTN           MMR11004300838160004170430000000000000000   10300001 00104100000000000513000000000000     
100   95050317518971470000000000003000000000003000002000000010410405010446181618912141060501000007083761   1030000200030000   3338000100012031040000040022C2P (Myanmar) Co. Ltd Yangon        MMR11005010446181618910501000000000000000   10300001F05104100000000000630000000000000     
100   62911028202520380000000000051214000000051214002000000010410405011304100955814369000501212120095581   1040001600030000   541120000561000000010000465Ocean Shwe Gone Daing  Yangon        MMR11005011304100955810501000000000000000   10300001F00104100000000003073000000000000     
100   95050314557307430000000000001960000000001960002000000010410405011259572957342051100501000007085842   1020000200030000   333400010001204104000000281Myanmar Soft-Gate Tech Yangon        MMR11005011259572957340501000000000000000   10300001F05104100000000000412000000000000     
100   95050312498129060000000000004900000000004900002000000010410405010747151715241119900501000007084609   1020000200030000   333400010001204104000000281Myanmar Soft-Gate Tech Yangon        MMR11005010747151715240501000000000000000   10300001F05104100000000001029000000000000     
100   95030301100125230000000000040000000000040000002000000010410405010352342234264369000501000007083423   1030000200030000   333800010001203104000003327KBZPay                 Yangon        MMR11005010352342234260501000000000000000   10300001F05104100000000008400000000000000     
100   62911028202679290000000000003622000000003622002000000010410405010806273627774369000501000007084691   1030000200030000   333800010001203104000003327KBZPay                 Yangon        MMR11005010806273627770501000000000000000   10300001F05104100000000000761000000000000     
100   95030321548759060000000000100000000000100000002000000010410405010440251025564369000501000007083735   1030000200030000   333800010001203104000003327KBZPay                 Yangon        MMR11005010440251025560501000000000000000   10300001F05104100000000021000000000000000     
100   95050319701366650000000000020000000000020000002000000010410405010801563156760694420501000007084665   1030000200030000   333800010001203104000003327KBZPay                 Yangon        MMR11005010801563156760501000000000000000   10300001F05104100000000004200000000000000     
100   62911028202523350000000000045000000000045000002000000010410404300833580000884369000430212015000088   1030000500030000   598320002101000015172200021MAX ENERGY             PTN           MMR11004300833580000880430000000000000000   10300001 00104100000000001350000000000000     
100   62443100355445150000000000021400000000021400002000000010410404300049210002016014130430212007000201   1030000500030000   581220195901000085812201959AKKHAYA TEA HOUSE      PTN           MMR11004300049210002010430000000000000000   10300001 00104100000000009095000000000000     
100   95050317041521450000000000035278000000035278002000000010410404300604000224896390160430000342757147   1030000300030000   531100000794000000000000540CB BANK                CAPITAL SUPER MMR11004300604000224890430000000000000000   10300001F00104100000000008467000000000000     
100   95030301100120440000000000040250000000040250002000000010410404301638120159714369000430000746329680   1030000200030000   541188001304000008000000325KBZ BANK               CITY MART - A MMR11004301638120159710430000000000000000   10300001 00104100000000002415000000000000     
100   62911028202400660000000000080000000000080000002000000010410404301108410156624369000430212018015662   1040001600030000   598320000854000000010000608Terminal Petrol Statio Yangon        MMR11004301108410156620430000000000000000   10300001F00104100000000002400000000000000     
100   62911028202169750000000000289539000000289539002000000010410404300601219966904369000430212013996690   1040001600030000   541120000561000000010000465Ocean Shwe Gone Daing  Yangon        MMR11004300601219966900430000000000000000   10300001F00104100000000017372000000000000     
100   62443100303702210000000000490000000000490000002000000010410404291148100008985242540429211918000898   1030000500030000   598320041903000055983200419MAX ENERGY             PTN           MMR11004291148100008980429000000000000000   10300001 00104100000000058800000000000000     
100   62911028202215530000000000033336000000033336002000000010410405010930129806254369000501990011650120   1030000500030000   555610112988104519000011143Market Place by City M rt Sule       MMR11005010930129806250501000000000000000   10300001 00104100000000002000000000000000     
100   62911028202581830000000000300000000000300000002000000010410405010554432443794369000501000007084104   1030000200030000   333800010001203104000003327KBZPay                 Yangon        MMR11005010554432443790501000000000000000   10300001F05104100000000063000000000000000     
100   95050313923133060000000000055000000000055000002000000010410404301745131513999426060501000007082350   1030000200030000   333800010001203104000003327KBZPay                 Yangon        MMR11004301745131513990501000000000000000   10300001F05104100000000011550000000000000     
100   95050312224678430000000000001960000000001960002000000010410405010242351235495155080501000007083051   1020000200030000   333400010001204104000000281Myanmar Soft-Gate Tech Yangon        MMR11005010242351235490501000000000000000   10300001F05104100000000000412000000000000     
100   95050316785465380000000000001960000000001960002000000010410404301748091809357773570501000007082355   1020000200030000   333400010001204104000000281Myanmar Soft-Gate Tech Yangon        MMR11004301748091809350501000000000000000   10300001F05104100000000000412000000000000     
100   95050310291835770000000000300000000000300000002000000010410405010517364736882736740501000007083908   1030000200030000   333800010001203104000003327KBZPay                 Yangon        MMR11005010517364736880501000000000000000   10300001F05104100000000063000000000000000     
100   62911028202685210000000000008650000000008650002000000010410405010934350784514369000501212116078451   1040001600030000   591220000277000000010000265Shwe Ohh Pharmacy (Thu Yangon        MMR11005010934350784510501000000000000000   10300001F00104100000000000519000000000000     
100   95050311926829590000000000000980000000000980002000000010410405011041341134030994300501000007085331   1020000200030000   333400010001204104000000281Myanmar Soft-Gate Tech Yangon        MMR11005011041341134030501000000000000000   10300001F05104100000000000206000000000000     
100   62443100363992240000000000050000000000050000002000000010410404301951162116902390640501000007082457   1030000200030000   333800010001203104000003327KBZPay                 Yangon        MMR11004301951162116900501000000000000000   10300001F05104100000000010500000000000000     
100   95050319161596230000000000000980000000000980002000000010410405011320575057834675300501000007085944   1020000200030000   333400010001204104000000281Myanmar Soft-Gate Tech Yangon        MMR11005011320575057830501000000000000000   10300001F05104100000000000206000000000000     
100   95050328384000040000000000012600000000012600002000000010410405010357479755720148190501965271020120   1030000500030000   555610118972104519000016137City Mart South Okkala WZYD BR       MMR11005010357479755720501000000000000000   10300001 00104100000000003150000000000000     
100   62911028202484080000000000020150000000020150002000000010410405011347064958174369000501857172006120   1030000900030000   541119000112190110000000077Sein Gay Har Chinatown YANGON        MMR11005011347064958170501000000000000000   10300001F00104100000000001209000000000000     
100   62443100379321630000000000038196000000038196002000000010410404290933460009535547280429211916000953   1030000500030000   598320001204000015172200012MAX ENERGY             PTN           MMR11004290933460009530429000000000000000   10300001 00104100000000004584000000000000     
100   95050328212196190000000000148272000000148272002000000010410405010707314864868616460501728371331120   1030000900030000   541119001281190110000000963City Mart SPL C6       YANGONMYOTHIT MMR11005010707314864860501000000000000000   10300001F00104100000000037068000000000000     
100   62911028202280200000000000058900000000058900002000000010410405010754114875024369000501538241411120   1030000900030000   541119001195190110000000942City Mart HDC C 10     YANGONUT      MMR11005010754114875020501000000000000000   10300001F00104100000000003534000000000000     
100   62911028202261230000000000082140000000082140002000000010410404290551440004024369000429211912000402   1030000500030000   531120156001000045311201560GAMONE PWINT           PTN           MMR11004290551440004020429000000000000000   10300001 00104100000000004928000000000000     
100   95030398701797940000000000016920000000016920002000000010410404301045480001114369000430212017000111   1030000500030000   531120155708000045311201557GAMONE PWINT           PTN           MMR11004301045480001110430000000000000000   10300001 00104100000000001015000000000000     
100   62911028202581830000000000300000000000300000002000000010410405010553282328884369000501000007084093   1030000200030000   333800010001203104000003327KBZPay                 Yangon        MMR11005010553282328880501000000000000000   10300001F05104100000000063000000000000000     
100   95050319331315630000000000001960000000001960002000000010410405010805243524430779520501000007084692   1020000200030000   333400010001204104000000281Myanmar Soft-Gate Tech Yangon        MMR11005010805243524430501000000000000000   10300001F05104100000000000412000000000000     
100   95050326426352250000000000050000000000050000002000000010410404302208123812994043120501000007082521   1030000200030000   333800010001203104000003327KBZPay                 Yangon        MMR11004302208123812990501000000000000000   10300001F05104100000000010500000000000000     
100   95030301100124400000000000006200000000006200002000000010410405010358554826324369000501118281055120   1030000900030000   541119001260190110000000958City Mart PLST C 3     YANGONMYOTHIT MMR11005010358554826320501000000000000000   10300001F00104100000000000372000000000000     
100   62911028202291270000000000008000000000008000002000000010410405010343004823264369000501922131000120   1030000900030000   541119001222190110000000945City Mart TM C 7       YANGONONE     MMR11005010343004823260501000000000000000   10300001F00104100000000000480000000000000     
100   95050319111666800000000000000980000000000980002000000010410405010245591559028545150501000007083072   1020000200030000   333400010001204104000000281Myanmar Soft-Gate Tech Yangon        MMR11005010245591559020501000000000000000   10300001F05104100000000000206000000000000     
100   62911028202679290000000000300000000000300000002000000010410405010802383238874369000501000007084673   1030000200030000   333800010001203104000003327KBZPay                 Yangon        MMR11005010802383238870501000000000000000   10300001F05104100000000063000000000000000     
100   95050314749068520000000000002940000000002940002000000010410405010253282328965750760501000007083109   1020000200030000   333400010001204104000000281Myanmar Soft-Gate Tech Yangon        MMR11005010253282328960501000000000000000   10300001F05104100000000000617000000000000     
100   95050314538419220000000000017814000000017814002000000010410404300430270045994070700430000342744942   1030000300030000   541100000444000000000000319CB BANK                ONESTOP KITCH MMR11004300430270045990430000000000000000   10300001F00104100000000004454000000000000     
100   95050328074436620000000000009800000000009800002000000010410405011320435043013533400501000007085943   1020000200030000   333400010001204104000000281Myanmar Soft-Gate Tech Yangon        MMR11005011320435043010501000000000000000   10300001F05104100000000002058000000000000     
100   62443100306698200000000000149300000000149300002000000010410405010359389755978495710501992291009120   1030000300030000   555510124696104519000020166Makro Myanmar                        MMR11005010359389755970501000000000000000   10300001 00104100000000035832000000000000     
100   62911028202317430000000000130200000000130200002000000010410405010546139772094369000501779151247120   1030000300030000   555510124686104519000020166Makro Myanmar                        MMR11005010546139772090501000000000000000   10300001 00104100000000007812000000000000     
100   95050320788558180000000000022000000000022000002000000010410405010920394895298056440501129501539120   1030000900030000   541119000285190110000000177Pro1 Global (Insein)   YANGON        MMR11005010920394895290501000000000000000   10300001F00104100000000005500000000000000     
100   62911028202225850000000000040700000000040700002000000010410405010320469750784369000501477500929120   1030000500030000   555610112244104519000010487Ocean Super Center St  ohn           MMR11005010320469750780501000000000000000   10300001 00104100000000002442000000000000     
100   62911028202674810000000000024350000000024350002000000010410405010923284895934369000501182531528120   1030000900030000   541119000161190110000000084Pro (1) Global (Pazund YANGONARTAUNG MMR11005010923284895930501000000000000000   10300001F00104100000000001461000000000000     
100   95050312240830690000000000002940000000002940002000000010410405011429315931541540530501000007086240   1020000200030000   333400010001204104000000281Myanmar Soft-Gate Tech Yangon        MMR11005011429315931540501000000000000000   10300001F05104100000000000617000000000000     
100   95050316997303010000000000002940000000002940002000000010410405010621335133506878880501000007084237   1020000200030000   333400010001204104000000281Myanmar Soft-Gate Tech Yangon        MMR11005010621335133500501000000000000000   10300001F05104100000000000617000000000000     
100   62911028202523350000000000130000000000130000002000000010410404291120080000254369000429211917000025   1030000500030000   598320002101000015172200021MAX ENERGY             PTN           MMR11004291120080000250429000000000000000   10300001 00104100000000003900000000000000     
100   62443100390038980000000000040554000000040554002000000010410404291403200001164781410429211920000116   1030000500030000   581220024101000015812200241SHWE LAR HOT POT       PTN           MMR11004291403200001160429000000000000000   10300001 00104100000000017236000000000000     
100   62443100318296470000000000115500000000115500002000000010410404290640320000360263230429211913000036   1030000500030000   569120044901000015691200449NIKE (NTW)             PTN           MMR11004290640320000360429000000000000000   10300001 00104100000000027720000000000000     
100   95030394609966640000000000009050000000009050002000000010410404290311280000624369000429211909000062   1030000500030000   591220014501014405912200145SHWE OHH PHARMACY      PTN           MMR11004290311280000620429000000000000000   10300001 00104100000000000543000000000000     
100   95030317758605600000000000028200000000028200002000000010410404290654340001354369000429211913000135   1030000500030000   569120060701000015691200607MIX (JUNCTION CITY)    PTN           MMR11004290654340001350429000000000000000   10300001 00104100000000001692000000000000     
100   95030301100129110000000000008500000000008500002000000010410404290810050002314369000429211914000231   1030000500030000   531120155801000045311201558GAMONE PWINT           PTN           MMR11004290810050002310429000000000000000   10300001 00104100000000000510000000000000     
100   62911028202286990000000000010000000000010000002000000010410404290932020013714369000429211916001371   1030000500030000   598320001301000015172200013MAX ENERGY             PTN           MMR11004290932020013710429000000000000000   10300001 00104100000000000300000000000000     
100   95050325925517520000000000036000000000036000002000000010410404290736390010761539670429211914001076   1030000500030000   598320002001000015172200020MAX ENERGY             PTN           MMR11004290736390010760429000000000000000   10300001 00104100000000004320000000000000     
100   95050328074436620000000000009800000000009800002000000010410405011322175217206327790501000007085954   1020000200030000   333400010001204104000000281Myanmar Soft-Gate Tech Yangon        MMR11005011322175217200501000000000000000   10300001F05104100000000002058000000000000     
100   95050311419479170000000000000980000000000980002000000010410404301720535053014468600501000007082296   1020000200030000   333400010001204104000000281Myanmar Soft-Gate Tech Yangon        MMR11004301720535053010501000000000000000   10300001F05104100000000000206000000000000     
100   62911028202451150000000000112560000000112560002000000010410405010456239764414369000501900271140120   1030000500030000   555610122584104519000018896City Mart Hlaing Thar  ar            MMR11005010456239764410501000000000000000   10300001 00104100000000006754000000000000     
100   95050313243172680000000000012650000000012650002000000010410405011020004909490559890501262501600120   1030000900030000   541119001260190110000000958City Mart PLST C 3     YANGONMYOTHIT MMR11005011020004909490501000000000000000   10300001F00104100000000003163000000000000     
100   62443100353553260000000000250000000000250000002000000010410405010726325632130354040501000007084531   1030000200030000   333800010001203104000003327KBZPay                 Yangon        MMR11005010726325632130501000000000000000   10300001F05104100000000052500000000000000     
100   95030301100338180000000000048500000000048500002000000010410405010548384848024369000501534181238120   1030000900030000   541119001364190110000000977Ocean PZD C18          YANGONAUNG    MMR11005010548384848020501000000000000000   10300001F00104100000000002910000000000000     
100   95030301100121270000000000069950000000069950002000000010410405011013454908014369000501141431645120   1030000900030000   541119001263190110000000958City Mart PLST C 6     YANGONMYOTHIT MMR11005011013454908010501000000000000000   10300001F00104100000000004197000000000000     
100   62911028202690080000000000043200000000043200002000000010410405010954234903614369000501790241623120   1030000900030000   541119001462190110000000077Sein Gay Har Chinatown YANGON        MMR11005010954234903610501000000000000000   10300001F00104100000000002592000000000000     
100   95030301100129110000000000012900000000012900002000000010410404290753440006964369000429211914000696   1030000500030000   531120155803000045311201558GAMONE PWINT           PTN           MMR11004290753440006960429000000000000000   10300001 00104100000000000774000000000000     
100   62911028202108460000000000048006000000048006002000000010410404290230300008814369000429211909000881   1030000500030000   598320001204000015172200012MAX ENERGY             PTN           MMR11004290230300008810429000000000000000   10300001 00104100000000001440000000000000     
100   62443100369813440000000000013000000000013000002000000010410404291125030006630540380429211917000663   1030000500030000   531120156002000045311201560GAMONE PWINT           PTN           MMR11004291125030006630429000000000000000   10300001 00104100000000003120000000000000     
100   62911028202527490000000000047500000000047500002000000010410404290717180006924369000429211913000692   1030000500030000   598320041902000055983200419MAX ENERGY             PTN           MMR11004290717180006920429000000000000000   10300001 00104100000000001425000000000000     
100   62911028202074950000000000025505000000025505002000000010410404290805260011094369000429211914001109   1030000500030000   598320001202000015172200012MAX ENERGY             PTN           MMR11004290805260011090429000000000000000   10300001 00104100000000000765000000000000     
100   62911028202261230000000000047400000000047400002000000010410404290629550005434369000429211912000543   1030000500030000   531120156008000045311201560GAMONE PWINT           PTN           MMR11004290629550005430429000000000000000   10300001 00104100000000002844000000000000     
100   95030325264619140000000000020000000000020000002000000010410404290434560023214369000429211911002321   1030000500030000   598320002101000015172200021MAX ENERGY             PTN           MMR11004290434560023210429000000000000000   10300001 00104100000000000600000000000000     
100   95050328074436620000000000020000000000020000002000000010410404290101160008651377550429211907000865   1030000500030000   598320001204000015172200012MAX ENERGY             PTN           MMR11004290101160008650429000000000000000   10300001 00104100000000002400000000000000     
100   62443100302386910000000000045374000000045374002000000010410405011250164948338320660501238201916120   1030000900030000   581219000981190110000000788Jo Jo Hot Pot (KTY)    YANGONARTAUNG MMR11005011250164948330501000000000000000   10300001F00104100000000019284000000000000     
100   95030301100120850000000000040000000000040000002000000010410405010427505750294369000501000007083643   1030000200030000   333800010001203104000003327KBZPay                 Yangon        MMR11005010427505750290501000000000000000   10300001F05104100000000008400000000000000     
100   95050315166583130000000000030000000000030000002000000010410405011024015401688907400501000007085270   1030000200030000   333800010001203104000003327KBZPay                 Yangon        MMR11005011024015401680501000000000000000   10300001F05104100000000006300000000000000     
100   62911028202198620000000000095000000000095000002000000010410405011044104916964369000501877141710120   1030000900030000   554119000345190110000000212New Day Energy PZD     YANGONAUNG    MMR11005011044104916960501000000000000000   10300001F00104100000000002850000000000000     
100   95050323133124350000000000002940000000002940002000000010410405011029445944062297460501000007085290   1020000200030000   333400010001204104000000281Myanmar Soft-Gate Tech Yangon        MMR11005011029445944060501000000000000000   10300001F05104100000000000617000000000000     
100   95050315615561720000000000000980000000000980002000000010410405010421465146616758130501000007083607   1020000200030000   333400010001204104000000281Myanmar Soft-Gate Tech Yangon        MMR11005010421465146610501000000000000000   10300001F05104100000000000206000000000000     
100   62911028202668140000000000074500000000074500002000000010410405011110414924644369000501467401741120   1030000900030000   569119001394190110000000998Classic Export Clothes YANGON        MMR11005011110414924640501000000000000000   10300001F00104100000000004470000000000000     
100   95050316321163940000000000000980000000000980002000000010410405010722285228647049070501000007084517   1020000200030000   333400010001204104000000281Myanmar Soft-Gate Tech Yangon        MMR11005010722285228640501000000000000000   10300001F05104100000000000206000000000000     
100   95030310098554020000000000300000000000300000002000000010410404291032480003864369000429211917000386   1030000500030000   806220009106024108062200091ARYU INTL HOSPITAL     PTN           MMR11004291032480003860429000000000000000   10300001 00104100000000018000000000000000     
100   62911028202147720000000000043000000000043000002000000010410404291027380006514369000429211916000651   1030000500030000   598320001603000015172200016MAX ENERGY             PTN           MMR11004291027380006510429000000000000000   10300001 00104100000000001290000000000000     
100   62443100303702210000000000490000000000490000002000000010410404291154290008996895030429211918000899   1030000500030000   598320041903000055983200419MAX ENERGY             PTN           MMR11004291154290008990429000000000000000   10300001 00104100000000058800000000000000     
100   95050328384000040000000000090000000000090000002000000010410404280848550001297123730428211815000129   1030000500030000   581220114301008505812201143GOLDEN DUCK (KAN TAW M PTN           MMR11004280848550001290428000000000000000   10300001 00104100000000038250000000000000     
100   95030322236782320000000000129950000000129950002000000010410405010404240001414369000501000746355544   1030000200030000   599988002319000008000006172KBZ BANK               PRO 1 (MYANMA MMR11005010404240001410501000000000000000   10300001 00104100000000007797000000000000     
100   62911028202870750000000000028000000000028000002000000010410405011127270000594369000501212117000059   1020000200030000   599900315001300395999000031MWD BANK               YGN           MMR11005011127270000590501000000000000000   10300001 00104100000000001680000000000000     
100   95030322371504830000000000011700000000011700002000000010410405011012130007064369000501000746354706   1030000200030000   541188001487000008000000399KBZ BANK               OCEAN SUPERCE MMR11005011012130007060501000000000000000   10300001 00104100000000000702000000000000     
100   95050313453886860000000000017200000000017200002000000010410405011659500001595602430501000746372301   1030000200030000   541188001337000008000000327KBZ BANK               CITY MART - S MMR11005011659500001590501000000000000000   10300001 00104100000000004300000000000000     
100   62911028202451150000000000014000000000014000002000000010410405010450519766094369000501088371118120   1030000500030000   555610122589104519000018896City Mart Hlaing Thar  ar            MMR11005010450519766090501000000000000000   10300001 00104100000000000840000000000000     
100   95030301100118480000000000014250000000014250002000000010410405011030404912834369000501535001740120   1030000900030000   541119001207190110000000948City Mart YK C 5       YANGONAUNG    MMR11005011030404912830501000000000000000   10300001F00104100000000000855000000000000     
100   95050310608512070000000000004900000000004900002000000010410405010321545154687658540501000007083257   1020000200030000   333400010001204104000000281Myanmar Soft-Gate Tech Yangon        MMR11005010321545154680501000000000000000   10300001F05104100000000001029000000000000     
100   95050328384000040000000000002000000000002000002000000010410405010400319756230233290501021301026120   1030000500030000   555610118972104519000016137City Mart South Okkala WZYD BR       MMR11005010400319756230501000000000000000   10300001 00104100000000000500000000000000     
100   95030327835334700000000000035850000000035850002000000010410405010702234863584369000501634321323120   1030000900030000   541119000167190110000000085SeinGayHar (Dagon Cent YANGONUNG     MMR11005010702234863580501000000000000000   10300001F00104100000000002151000000000000     
100   95050326094581320000000000048316000000048316002000000010410405011142174932867434040501102121817120   1030000900030000   541119001508190110000001102Ocean MGDTM-C 1        YANGONADON    MMR11005011142174932860501000000000000000   10300001F00104100000000012079000000000000     
100   95050316997303010000000000000980000000000980002000000010410405010619524952508531360501000007084227   1020000200030000   333400010001204104000000281Myanmar Soft-Gate Tech Yangon        MMR11005010619524952500501000000000000000   10300001F05104100000000000206000000000000     
100   95050318180584510000000000007000000000007000002000000010410405011226055605600058240501000007085700   1030000200030000   333800010001203104000003327KBZPay                 Yangon        MMR11005011226055605600501000000000000000   10300001F05104100000000001470000000000000     
100   95050318041680090000000000004600000000004600002000000010410405011642490101434205240501000746371413   1030000200030000   541188001189000008000000383KBZ BANK               OCEAN SUPER C MMR11005011642490101430501000000000000000   10300001 00104100000000001150000000000000     
100   95050314931885730000000000000980000000000980002000000010410405011232050205915015690501000007085720   1020000200030000   333400010001204104000000281Myanmar Soft-Gate Tech Yangon        MMR11005011232050205910501000000000000000   10300001F05104100000000000206000000000000     
100   95030305700676370000000000050000000000050000002000000010410405010528580027384369000501000746358850   1030000200030000   598388001833000008000005310KBZ BANK               BOC (138 MILE MMR11005010528580027380501000000000000000   10300001 00104100000000001500000000000000     
100   62911028202417260000000000007200000000007200002000000010410405011225590041224369000501000746360135   1030000200030000   541188001263000008000000310KBZ BANK               CITY MART- FM MMR11005011225590041220501000000000000000   10300001 00104100000000000432000000000000     
100   95030394609966640000000000019500000000019500002000000010410405011238290160424369000501000746360737   1030000200030000   541188001020000008000000298KBZ BANK               CITY MART - M MMR11005011238290160420501000000000000000   10300001 00104100000000001170000000000000     
100   62911028202448030000000000074050000000074050002000000010410405011308190031414369000501000746378878   1030000200030000   581288000098000008000003562KBZ BANK               CANTON PARADI MMR11005011308190031410501000000000000000   10300001 00104100000000007553000000000000     
100   95050314557307430000000000003920000000003920002000000010410405010434460446552396350501000007083689   1020000200030000   333400010001204104000000281Myanmar Soft-Gate Tech Yangon        MMR11005010434460446550501000000000000000   10300001F05104100000000000823000000000000     
100   95030311150602280000000000008060000000008060002000000010410405011234370150094369000501000746360542   1030000200030000   541188001061000008000000314KBZ BANK               MARKETPLACE - MMR11005011234370150090501000000000000000   10300001 00104100000000000484000000000000     
100   95050319789172490000000000015900000000015900002000000010410405010241269747108460060501088120922120   1030000500030000   555610122984104519000019269City Mart Supermarket  hanlyin       MMR11005010241269747100501000000000000000   10300001 00104100000000003975000000000000     
100   62911028202225850000000000003200000000003200002000000010410405010319129750544369000501451480943120   1030000500030000   555610112244104519000010487Ocean Super Center St  ohn           MMR11005010319129750540501000000000000000   10300001 00104100000000000192000000000000     
100   62911028202228250000000000005900000000005900002000000010410405010448099763024369000501741181134120   1030000500030000   555610112988104519000011143Market Place by City M rt Sule       MMR11005010448099763020501000000000000000   10300001 00104100000000000354000000000000     
100   62911028202286990000000000040750000000040750002000000010410405011039154915474369000501753091715120   1030000900030000   541119001248190110000000955City Mart JS C 7       YANGONUT      MMR11005011039154915470501000000000000000   10300001F00104100000000002445000000000000     
100   95050317343045830000000000001960000000001960002000000010410405011320395039731880920501000007085941   1020000200030000   333400010001204104000000281Myanmar Soft-Gate Tech Yangon        MMR11005011320395039730501000000000000000   10300001F05104100000000000412000000000000     
100   95030322236782320000000000108000000000108000002000000010410405010835079797784369000501968051547120   1030000300030000   555510124156104519000020320360 International Co L d ERKE        MMR11005010835079797780501000000000000000   10300001 00104100000000006480000000000000     
100   62911028202684060000000000050208000000050208002000000010410405010547009772544369000501836171247120   1030000500030000   555610104032104519000003821City Mart North Point  enter         MMR11005010547009772540501000000000000000   10300001 00104100000000003012000000000000     
100   62911028202506770000000000002200000000002200002000000010410405011003299812304369000501748371614120   1030000500030000   555610114575104519000012532City Mart Ahlone Branc               MMR11005011003299812300501000000000000000   10300001 00104100000000000132000000000000     
100   95030371724152130000000000240950000000240950002000000010410405011356020025094369000501000746364179   1030000200030000   541188001452000008000000391KBZ BANK               OCEAN SUPER C MMR11005011356020025090501000000000000000   10300001 00104100000000014457000000000000     
100   62911028202417260000000000025200000000025200002000000010410405011221220081344369000501000746359919   1030000200030000   541188001259000008000000310KBZ BANK               CITY MART- FM MMR11005011221220081340501000000000000000   10300001 00104100000000001512000000000000     
100   62443101037081820000000000037400000000037400002000000010410405011822570068220653910501000746376250   1030000200030000   541188001006000008000000008KBZ BANK               MARKETPLACE - MMR11005011822570068220501000000000000000   10300001 00104100000000009350000000000000     
100   95030333478847140000000000009100000000009100002000000010410405011321080034234369000501000746362640   1030000200030000   541188001459000008000000391KBZ BANK               OCEAN SUPER C MMR11005011321080034230501000000000000000   10300001 00104100000000000546000000000000     
100   95050328035424750000000000154200000000154200002000000010410405011201200052904219030501000746359042   1030000200030000   541188001333000008000000327KBZ BANK               CITY MART - S MMR11005011201200052900501000000000000000   10300001 00104100000000038550000000000000     
100   62911028202130710000000000008300000000008300002000000010410405011824550160054369000501000746376335   1030000200030000   541188001305000008000000325KBZ BANK               CITY MART - A MMR11005011824550160050501000000000000000   10300001 00104100000000000498000000000000     
100   62911028202142100000000000000980000000000980002000000010410405010534210421684369000501000007083986   1020000200030000   333400010001204104000000281Myanmar Soft-Gate Tech Yangon        MMR11005010534210421680501000000000000000   10300001F05104100000000000206000000000000     
100   95050312498129060000000000001960000000001960002000000010410405010731350135142602200501000007084554   1020000200030000   333400010001204104000000281Myanmar Soft-Gate Tech Yangon        MMR11005010731350135140501000000000000000   10300001F05104100000000000412000000000000     
100   62911028202506770000000000016100000000016100002000000010410405011002229811484369000501641321610120   1030000500030000   555610114572104519000012532City Mart Ahlone Branc               MMR11005011002229811480501000000000000000   10300001 00104100000000000966000000000000     
100   95050328074436620000000000036600000000036600002000000010410405011054279820957604230501818231756120   1030000500030000   555610104049104519000003821City Mart North Point  enter         MMR11005011054279820950501000000000000000   10300001 00104100000000009150000000000000     
100   62911028202674810000000000100000000000100000002000000010410405011019469814824369000501047511620120   1030000300030000   555510124358104519000020166Makro Myanmar                        MMR11005011019469814820501000000000000000   10300001 00104100000000006000000000000000     
100   62911028202668140000000000150000000000150000002000000010410405010642529781854369000501007141357120   1030000300030000   555510124691104519000020166Makro Myanmar                        MMR11005010642529781850501000000000000000   10300001 00104100000000009000000000000000     
100   62443100360763680000000000102700000000102700002000000010410405010524039768937524000501397541141120   1030000300030000   555510124689104519000020166Makro Myanmar                        MMR11005010524039768930501000000000000000   10300001 00104100000000024648000000000000     
100   95050322990383760000000000003700000000003700002000000010410405010900589801564921660501427311540120   1030000500030000   555610110576104519000009164City Mart China Town P int Cen       MMR11005010900589801560501000000000000000   10300001 00104100000000000925000000000000     
100   62911028202169750000000000017394000000017394002000000010410405010847169799904369000501240191556120   1030000500030000   555610103479104519000003432City Mart Junction Zaw na 6          MMR11005010847169799900501000000000000000   10300001 00104100000000001044000000000000     
100   62911028202423360000000000011500000000011500002000000010410405011157159832414369000501240281805120   1030000500030000   555610104045104519000003821City Mart North Point  enter         MMR11005011157159832410501000000000000000   10300001 00104100000000000690000000000000     
100   62443100383487320000000000028633000000028633002000000010410405011317450218498871740501000746362491   1030000200030000   541188001007000008000000008KBZ BANK               MARKETPLACE - MMR11005011317450218490501000000000000000   10300001 00104100000000007159000000000000     
100   95030301100125070000000000011240000000011240002000000010410405011654170168424369000501000746371984   1030000200030000   541188001126000008000000296KBZ BANK               CITY MART - J MMR11005011654170168420501000000000000000   10300001 00104100000000000674000000000000     
100   62443100326436660000000000050000000000050000002000000010410405010812120027564084490501000746365928   1030000200030000   598388001833000008000005310KBZ BANK               BOC (138 MILE MMR11005010812120027560501000000000000000   10300001 00104100000000006000000000000000     
100   95030371724152130000000000052750000000052750002000000010410405011359040024994369000501000746364286   1030000200030000   541188001474000008000000391KBZ BANK               OCEAN SUPER C MMR11005011359040024990501000000000000000   10300001 00104100000000003165000000000000     
100   62911028202616170000000000110989000000110989002000000010410405011954530223264369000501000746379303   1030000200030000   541188001003000008000000008KBZ BANK               MARKETPLACE - MMR11005011954530223260501000000000000000   10300001 00104100000000006659000000000000     
100   62911028202685470000000000020000000000020000002000000010410405011257160950154369000501212119095015   1040001600030000   806220000003000000010000001Victoria Hospital      Yangon        MMR11005011257160950150501000000000000000   10300001F00104100000000001200000000000000     
100   95050310520330790000000000050000000000050000002000000010410405011549171917069802950501000007086521   1030000200030000   333800010001203104000003327KBZPay                 Yangon        MMR11005011549171917060501000000000000000   10300001F05104100000000010500000000000000     
100   95050311131833760000000000030000000000030000002000000010410405010712304230916963980501000007084465   1030000200030000   333800010001203104000003327KBZPay                 Yangon        MMR11005010712304230910501000000000000000   10300001F05104100000000006300000000000000     
100   95050314996291580000000000000980000000000980002000000010410405010527525752210828960501000007083955   1020000200030000   333400010001204104000000281Myanmar Soft-Gate Tech Yangon        MMR11005010527525752210501000000000000000   10300001F05104100000000000206000000000000     
100   95050324154190880000000000030000000000030000002000000010410404301251520015332305540430212019001533   1030000500030000   598320001304000015172200013MAX ENERGY             PTN           MMR11004301251520015330430000000000000000   10300001 00104100000000003600000000000000     
100   95050311077567400000000000013500000000013500002000000010410405011240151015073363210501000007085756   1030000900030000   333400010001202104000002022ACS                    Yangon        MMR11005011240151015070501000000000000000   10300001F05104100000000002835000000000000     
100   95050312498129060000000000006860000000006860002000000010410405010148061806731759310501000007082810   1020000200030000   333400010001204104000000281Myanmar Soft-Gate Tech Yangon        MMR11005010148061806730501000000000000000   10300001F05104100000000001441000000000000     
100   95050317343045830000000000000980000000000980002000000010410405010618084808816793780501000007084216   1020000200030000   333400010001204104000000281Myanmar Soft-Gate Tech Yangon        MMR11005010618084808810501000000000000000   10300001F05104100000000000206000000000000     
100   62911028202366010000000000131665000000131665002000000010410405010955490029814369000501212116002981   1020000200030000   541100255002300115411000025MWD BANK               YGN           MMR11005010955490029810501000000000000000   10300001 00104100000000007900000000000000     
100   62911028202460220000000000001700000000001700002000000010410405011340059844524369000501739172037120   1030000500030000   555610120971104519000017734City Express MCS 19                  MMR11005011340059844520501000000000000000   10300001 00104100000000000102000000000000     
100   62911028202520610000000000016500000000016500002000000010410404300558530001874369000430212012000187   1030000500030000   581220159201000015812201592GOLDEN DUCK (SAYAR SAN PTN           MMR11004300558530001870430000000000000000   10300001 00104100000000001683000000000000     
