100   95030301100121270000000000011450000000011450002000000010410404290937580000484369000429000342616004   1030000300030000   541100000449000000000000319CB BANK                ONESTOP KITCH MMR11004290937580000480429000000000000000   10300001F00104100000000000687000000000000     
100   62911028202473840000000000466805000000466805002000000010410404290552480020154369000429211912002015   1020000200030000   806200105003300018062000010MWD BANK               YGN           MMR11004290552480020150429000000000000000   10300001 00104100000000028008000000000000     
100   95030301100122750000000000041150000000041150002000000010410404290842070005444369000429000342608282   1030000300030000   541100000447000000000000319CB BANK                ONESTOP KITCH MMR11004290842070005440429000000000000000   10300001F00104100000000002469000000000000     
100   95050321685338790000000000154450000000154450002000000010410404290713189305027383740429211914930502   1040001600030000   581420001058000000010000779Yangon Ambience Restau Ygn           MMR11004290713189305020429000000000000000   10300001F00104100000000018534000000000000     
100   95050320624349010000000000030000000000030000002000000010410404290714179305484589350429211914930548   1040001600030000   598320000916000000010000664MMTM - North Dagon     Ygn           MMR11004290714179305480429000000000000000   10300001F00104100000000003600000000000000     
100   95030328100017490000000000030000000000030000002000000010410404291009509394494369000429211917939449   1040001600030000   598320000326000000010000314PT Power Petrol Statio Nay Pyi Taw   MMR11004291009509394490429000000000000000   10300001F00104100000000000900000000000000     
100   95050317072727910000000000002940000000002940002000000010410404300158082808622453870430000007078204   1020000200030000   333400010001204104000000281Myanmar Soft-Gate Tech Yangon        MMR11004300158082808620430000000000000000   10300001F05104100000000000617000000000000     
100   95050325305150830000000000000980000000000980002000000010410404300505043504149099460430000007079194   1020000200030000   333400010001204104000000281Myanmar Soft-Gate Tech Yangon        MMR11004300505043504140430000000000000000   10300001F05104100000000000206000000000000     
100   62443100361813580000000000050000000000050000002000000010410404291647341734631136050430000007077593   1030000200030000   333800010001203104000003327KBZPay                 Yangon        MMR11004291647341734630430000000000000000   10300001F05104100000000010500000000000000     
100   62911028202010500000000000039696000000039696002000000010410404301008044705184369000430271381604119   1030000900030000   541119001196190110000000942City Mart HDC C 11     YANGONUT      MMR11004301008044705180430000000000000000   10300001F00104100000000002382000000000000     
100   62911028202499270000000000017800000000017800002000000010410404300838194685474369000430833081519119   1030000900030000   541119000113190110000000077Sein Gay Har Chinatown YANGON        MMR11004300838194685470430000000000000000   10300001F00104100000000001068000000000000     
100   95050314557307430000000000000980000000000980002000000010410404292351182118302624060430000007077901   1020000200030000   333400010001204104000000281Myanmar Soft-Gate Tech Yangon        MMR11004292351182118300430000000000000000   10300001F05104100000000000206000000000000     
100   95030329830382620000000000300000000000300000002000000010410404300338400840354369000430000007078709   1030000200030000   333800010001203104000003327KBZPay                 Yangon        MMR11004300338400840350430000000000000000   10300001F05104100000000063000000000000000     
100   95050312498129060000000000001960000000001960002000000010410404300006253625317581510430000007077920   1020000200030000   333400010001204104000000281Myanmar Soft-Gate Tech Yangon        MMR11004300006253625310430000000000000000   10300001F05104100000000000412000000000000     
100   62911028202077190000000000001960000000001960002000000010410404301010154015004369000430000007080689   1020000200030000   333400010001204104000000281Myanmar Soft-Gate Tech Yangon        MMR11004301010154015000430000000000000000   10300001F05104100000000000412000000000000     
100   62911028202499270000000000012500000000012500002000000010410404300916034693744369000430437461503119   1030000900030000   541119000113190110000000077Sein Gay Har Chinatown YANGON        MMR11004300916034693740430000000000000000   10300001F00104100000000000750000000000000     
100   62911028202221220000000000009200000000009200002000000010410404300350469631574369000430320221006119   1030000300030000   555510125559104519000021380OneStopMartShoppingMal 0129          MMR11004300350469631570430000000000000000   10300001 00104100000000000552000000000000     
100   62443100399918110000000000043600000000043600002000000010410404300514219643184312200430598451157119   1030000500030000   555610112237104519000010487Ocean Super Center St  ohn           MMR11004300514219643180430000000000000000   10300001 00104100000000010900000000000000     
100   62911028202057620000000000010000000000010000002000000010410404301318364836024369000430000007081472   1030000200030000   333800010001203104000003327KBZPay                 Yangon        MMR11004301318364836020430000000000000000   10300001F05104100000000002100000000000000     
100   95030367537085740000000000000980000000000980002000000010410404301325035503704369000430000007081500   1020000200030000   333400010001204104000000281Myanmar Soft-Gate Tech Yangon        MMR11004301325035503700430000000000000000   10300001F05104100000000000206000000000000     
100   95050311959900780000000000000980000000000980002000000010410404301127205720117191680430000007081038   1020000200030000   333400010001204104000000281Myanmar Soft-Gate Tech Yangon        MMR11004301127205720110430000000000000000   10300001F05104100000000000206000000000000     
100   95050319216089110000000000004900000000004900002000000010410404300429309636655723180430860591023119   1030000300030000   444410116806104519000014353BreadTalk JunctionCity               MMR11004300429309636650430000000000000000   10300001 00104100000000002083000000000000     
100   95030301100124400000000000013500000000013500002000000010410404301159434737714369000430759291843119   1030000900030000   541119001274190110000000961City Mart PLST City Ca YANGONMYOTHIT MMR11004301159434737710430000000000000000   10300001F00104100000000000810000000000000     
100   95050323233042810000000000000980000000000980002000000010410404300317454745144872220430000007078586   1020000200030000   333400010001204104000000281Myanmar Soft-Gate Tech Yangon        MMR11004300317454745140430000000000000000   10300001F05104100000000000206000000000000     
100   95050310178107440000000000020000000000020000002000000010410404300325435543568007000430000007078626   1030000200030000   3338000100012031040000040022C2P (Myanmar) Co. Ltd Yangon        MMR11004300325435543560430000000000000000   10300001F05104100000000004200000000000000     
100   95050313702988830000000000002940000000002940002000000010410404300927225722537482630430000007080488   1020000200030000   333400010001204104000000281Myanmar Soft-Gate Tech Yangon        MMR11004300927225722530430000000000000000   10300001F05104100000000000617000000000000     
100   95050315681162360000000000100000000000100000002000000010410404300528255825995539200430000007079324   1030000200030000   333800010001203104000003327KBZPay                 Yangon        MMR11004300528255825990430000000000000000   10300001F05104100000000021000000000000000     
100   62443100379321630000000000011600000000011600002000000010410404300716169661753170290430866481355119   1030000500030000   555610104043104519000003821City Mart North Point  enter         MMR11004300716169661750430000000000000000   10300001 00104100000000002900000000000000     
100   95030340340746190000000000007850000000007850002000000010410404300846514687474369000430985161551119   1030000900030000   541119000175190110000000086SeinGayHar (Hlaing Tha YANGONTHARYA  MMR11004300846514687470430000000000000000   10300001F00104100000000000471000000000000     
100   95050315557781210000000000040000000000040000002000000010410404300121575157339404190430000007078080   1030000200030000   333800010001203104000003327KBZPay                 Yangon        MMR11004300121575157330430000000000000000   10300001F05104100000000008400000000000000     
100   95030343892826500000000000013800000000013800002000000010410404300944264699924369000430885141626119   1030000900030000   541119001246190110000000955City Mart JS C 5       YANGONUT      MMR11004300944264699920430000000000000000   10300001F00104100000000000828000000000000     
100   95030307100064460000000000081750000000081750002000000010410404301239504747894369000430497091950119   1030000900030000   541119001361190110000000977Ocean PZD C 15         YANGONAUNG    MMR11004301239504747890430000000000000000   10300001F00104100000000004905000000000000     
100   95030301100121270000000000013950000000013950002000000010410404300343309630874369000430256161004119   1030000300030000   555610125781104519000021591One Stop Kitchen Super arket         MMR11004300343309630870430000000000000000   10300001 00104100000000000837000000000000     
100   95050315919368400000000000002940000000002940002000000010410404300322335233532964450430000007078613   1020000200030000   333400010001204104000000281Myanmar Soft-Gate Tech Yangon        MMR11004300322335233530430000000000000000   10300001F05104100000000000617000000000000     
100   95050318057347910000000000001960000000001960002000000010410404300829055905046900740430000007080224   1020000200030000   333400010001204104000000281Myanmar Soft-Gate Tech Yangon        MMR11004300829055905040430000000000000000   10300001F05104100000000000412000000000000     
100   95050328425894870000000000035050000000035050002000000010410404301150294735273546330430576201829119   1030000900030000   541119001296190110000000968Ocean Mingalar MDY C 4 MANDALAYHARSI MMR11004301150294735270430000000000000000   10300001F00104100000000008763000000000000     
100   95050327531396450000000000038000000000038000002000000010410404300626345634959524940430000007079631   1030000200030000   333800010001203104000003327KBZPay                 Yangon        MMR11004300626345634950430000000000000000   10300001F05104100000000007980000000000000     
100   95050312173216740000000000038050000000038050002000000010410404301100394720841298170430498301739119   1030000900030000   541119001281190110000000963City Mart SPL C6       YANGONMYOTHIT MMR11004301100394720840430000000000000000   10300001F00104100000000009513000000000000     
100   62911028202290100000000000100000000000100000002000000010410404300818344680424369000430446481434119   1030000900030000   888819001002190110000000808Puma Power(Mudon)      MONON         MMR11004300818344680420430000000000000000   10300001F00104100000000003000000000000000     
100   95030353051876670000000000017950000000017950002000000010410404301126184728514369000430085561718119   1030000900030000   541119001363190110000000977Ocean PZD C17          YANGONAUNG    MMR11004301126184728510430000000000000000   10300001F00104100000000001077000000000000     
100   95030343892826500000000000007600000000007600002000000010410404300943334699734369000430870131633119   1030000900030000   541119001246190110000000955City Mart JS C 5       YANGONUT      MMR11004300943334699730430000000000000000   10300001F00104100000000000456000000000000     
100   95050322823372070000000000112250000000112250002000000010410404301028114710024177660430634581611119   1030000900030000   541119001247190110000000955City Mart JS C 6       YANGONUT      MMR11004301028114710020430000000000000000   10300001F00104100000000028063000000000000     
100   62911028202446700000000000100000000000100000002000000010410404300526025602034369000430000007079306   1030000500030000   333800010001201104000003863AYA Pay                Yangon        MMR11004300526025602030430000000000000000   10300001F05104100000000021000000000000000     
100   62443100311760720000000000077700000000077700002000000010410404300451474629137205480430501211147119   1030000900030000   541119001246190110000000955City Mart JS C 5       YANGONUT      MMR11004300451474629130430000000000000000   10300001F00104100000000019425000000000000     
100   62443100344229520000000000094450000000094450002000000010410404300340114614073645220430348101011119   1030000900030000   541119001267190110000000958City Mart PLST C 10    YANGONMYOTHIT MMR11004300340114614070430000000000000000   10300001F00104100000000023613000000000000     
100   95030343892826500000000000030392000000030392002000000010410404300853454689294369000430123231545119   1030000900030000   581219000006190110000000004Jo Jo Hot Pot Junction YANGONUT      MMR11004300853454689290430000000000000000   10300001F00104100000000003100000000000000     
100   95050311382087030000000000002940000000002940002000000010410404300752312231172283680430000007080028   1020000200030000   333400010001204104000000281Myanmar Soft-Gate Tech Yangon        MMR11004300752312231170430000000000000000   10300001F05104100000000000617000000000000     
100   95050325305150830000000000000980000000000980002000000010410404300458512851400510440430000007079160   1020000200030000   333400010001204104000000281Myanmar Soft-Gate Tech Yangon        MMR11004300458512851400430000000000000000   10300001F05104100000000000206000000000000     
100   62911028202057620000000000096834000000096834002000000010410404301133394730334369000430224031839119   1030000900030000   541119001347190110000000977Ocean PZD C 1          YANGONAUNG    MMR11004301133394730330430000000000000000   10300001F00104100000000005810000000000000     
100   62443101076362230000000000052558000000052558002000000010410404301357214761575355220430391272021119   1030000900030000   701119000064190110000000024Lotte Hotel            YANGON        MMR11004301357214761570430000000000000000   10300001F00104100000000022337000000000000     
100   95050316818236190000000000004900000000004900002000000010410404300826425642491943290430000007080213   1020000200030000   333400010001204104000000281Myanmar Soft-Gate Tech Yangon        MMR11004300826425642490430000000000000000   10300001F05104100000000001029000000000000     
100   95050316421999920000000000001960000000001960002000000010410404301621375137234383510430000007082175   1020000200030000   333400010001204104000000281Myanmar Soft-Gate Tech Yangon        MMR11004301621375137230430000000000000000   10300001F05104100000000000412000000000000     
100   62911028202127920000000000047000000000047000002000000010410404300507189933174369000430212012993317   1040001600030000   598320000658000000010000527Shwe Taung Energy (YGN Yangon        MMR11004300507189933170430000000000000000   10300001F00104100000000001410000000000000     
100   95030301100121270000000000105800000000105800002000000010410404300426089909784369000430212011990978   1040001600030000   591220000269000000010000257Shwe Ohh Pharmacy (Tam Yangon        MMR11004300426089909780430000000000000000   10300001F00104100000000006348000000000000     
100   95030326160984770000000000010000000000010000002000000010410404300602589967824369000430212013996782   1040001600030000   598320000911000000010000662MMTM - Tamwe           Ygn           MMR11004300602589967820430000000000000000   10300001F00104100000000000300000000000000     
100   95050319789172490000000000009700000000009700002000000010410404300654309658456475260430467271329119   1030000500030000   555610122988104519000019269City Mart Supermarket  hanlyin       MMR11004300654309658450430000000000000000   10300001 00104100000000002425000000000000     
100   95050314064416890000000000000980000000000980002000000010410404301021275127072950660430000007080749   1020000200030000   333400010001204104000000281Myanmar Soft-Gate Tech Yangon        MMR11004301021275127070430000000000000000   10300001F05104100000000000206000000000000     
100   95050311736839760000000000000980000000000980002000000010410404300621555155124482390430000007079618   1020000200030000   333400010001204104000000281Myanmar Soft-Gate Tech Yangon        MMR11004300621555155120430000000000000000   10300001F05104100000000000206000000000000     
100   95030305700676370000000000070000000000070000002000000010410404300945220089134369000430212016008913   1040001600030000   598320000316000000010000304PT Power Petrol Statio Yangon        MMR11004300945220089130430000000000000000   10300001F00104100000000002100000000000000     
100   95050315743141220000000000000980000000000980002000000010410404301413214321845440310430000007081712   1020000200030000   333400010001204104000000281Myanmar Soft-Gate Tech Yangon        MMR11004301413214321840430000000000000000   10300001F05104100000000000206000000000000     
100   95050311736839760000000000000980000000000980002000000010410404300623305330169439840430000007079626   1020000200030000   333400010001204104000000281Myanmar Soft-Gate Tech Yangon        MMR11004300623305330160430000000000000000   10300001F05104100000000000206000000000000     
100   95050318057347910000000000000980000000000980002000000010410404300823495349123595780430000007080202   1020000200030000   333400010001204104000000281Myanmar Soft-Gate Tech Yangon        MMR11004300823495349120430000000000000000   10300001F05104100000000000206000000000000     
100   95050318267399100000000000000980000000000980002000000010410404301059432943323376140430000007080916   1020000200030000   333400010001204104000000281Myanmar Soft-Gate Tech Yangon        MMR11004301059432943320430000000000000000   10300001F05104100000000000206000000000000     
100   95050316818236190000000000002940000000002940002000000010410404300413144314234957320430000007078907   1020000200030000   333400010001204104000000281Myanmar Soft-Gate Tech Yangon        MMR11004300413144314230430000000000000000   10300001F05104100000000000617000000000000     
100   62911028202341350000000000064544000000064544002000000010410404301142009704074369000430109141823119   1030000500030000   555610118969104519000016137City Mart South Okkala WZYD BR       MMR11004301142009704070430000000000000000   10300001 00104100000000003873000000000000     
100   62911028202506690000000000007500000000007500002000000010410404300756599667754369000430584281437119   1030000500030000   555610104050104519000003821City Mart North Point  enter         MMR11004300756599667750430000000000000000   10300001 00104100000000000450000000000000     
100   62443100379321630000000000037300000000037300002000000010410404300713139660918127740430765431342119   1030000500030000   555610104050104519000003821City Mart North Point  enter         MMR11004300713139660910430000000000000000   10300001 00104100000000009325000000000000     
100   62911028202423360000000000004500000000004500002000000010410404301204519707434369000430523361824119   1030000500030000   555610104035104519000003821City Mart North Point  enter         MMR11004301204519707430430000000000000000   10300001 00104100000000000270000000000000     
100   95050324154190880000000000009100000000009100002000000010410404301145559705545283910430287241805119   1030000500030000   555610112244104519000010487Ocean Super Center St  ohn           MMR11004301145559705540430000000000000000   10300001 00104100000000002275000000000000     
100   62911028202161240000000000029098000000029098002000000010410404291920470103214369000429000746295273   1030000200030000   541188001023000008000000298KBZ BANK               CITY MART - M MMR11004291920470103210429000000000000000   10300001 00104100000000001746000000000000     
100   95050319207947610000000000065500000000065500002000000010410404300538419952227276780430212012995222   1040001600030000   541120000573000000010000465Ocean Shwe Gone Daing  Yangon        MMR11004300538419952220430000000000000000   10300001F00104100000000016375000000000000     
100   62443100360763680000000000073017000000073017002000000010410404301011399688634518040430179441642119   1030000500030000   555610112235104519000010487Ocean Super Center St  ohn           MMR11004301011399688630430000000000000000   10300001 00104100000000018255000000000000     
100   62911028202908630000000000085000000000085000002000000010410404300239440944094369000430000007078385   1030000200030000   333800010001203104000003327KBZPay                 Yangon        MMR11004300239440944090430000000000000000   10300001F05104100000000017850000000000000     
100   95050318057347910000000000005000000000005000002000000010410404300613174317406049780430000007079572   1030000200030000   3338000100012031040000040022C2P (Myanmar) Co. Ltd Yangon        MMR11004300613174317400430000000000000000   10300001F05104100000000001050000000000000     
100   62911028202091860000000000002940000000002940002000000010410404301010014001804369000430000007080691   1020000200030000   333400010001204104000000281Myanmar Soft-Gate Tech Yangon        MMR11004301010014001800430000000000000000   10300001F05104100000000000617000000000000     
100   62911028202193830000000000014500000000014500002000000010410404301013444706564369000430378431644119   1030000900030000   541119000126190110000000082Sein Gay Har Super Cen YANGON        MMR11004301013444706560430000000000000000   10300001F00104100000000000870000000000000     
100   62911028202803930000000000029800000000029800002000000010410404300703050004404369000430212014000440   1040001600030000   591220000298000000010000286Shwe Ohh Pharmacy (Shw Yangon        MMR11004300703050004400430000000000000000   10300001F00104100000000001788000000000000     
100   95050320531117320000000000037700000000037700002000000010410404301844460013560567960430000746335742   1030000200030000   541188001040000008000000010KBZ BANK               MARKETPLACE - MMR11004301844460013560430000000000000000   10300001 00104100000000009425000000000000     
100   62443100300743690000000000018760000000018760002000000010410404300922460006214092560430000746327645   1030000200030000   569988000801000008000004608KBZ BANK               SGP-IPANEMA   MMR11004300922460006210430000000000000000   10300001 00104100000000004502000000000000     
100   95050319789172490000000000051500000000051500002000000010410404301052320003785638090430000746314091   1030000200030000   701188000123000008000004286KBZ BANK               SUPER HOTEL T MMR11004301052320003780430000000000000000   10300001 00104100000000021888000000000000     
100   62911028202423360000000000006200000000006200002000000010410404301157199706024369000430351271818119   1030000500030000   555610104043104519000003821City Mart North Point  enter         MMR11004301157199706020430000000000000000   10300001 00104100000000000372000000000000     
100   62911028202416760000000000086000000000086000002000000010410404300333569882164369000430212010988216   1040001600030000   598320001170000000010000527Shwe Taung Energy (YGN Yangon        MMR11004300333569882160430000000000000000   10300001F00104100000000002580000000000000     
100   62911028202661370000000000195800000000195800002000000010410404300909019678364369000430911391511119   1030000500030000   555610104023104519000003821City Mart North Point  enter         MMR11004300909019678360430000000000000000   10300001 00104100000000011748000000000000     
100   62911028202662930000000000030000000000030000002000000010410404300237439855494369000430212009985549   1040001600030000   598320000911000000010000662MMTM - Tamwe           Ygn           MMR11004300237439855490430000000000000000   10300001F00104100000000000900000000000000     
100   95050326198165350000000000043000000000043000002000000010410404300432269913085808280430212011991308   1040001600030000   598320000316000000010000304PT Power Petrol Statio Yangon        MMR11004300432269913080430000000000000000   10300001F00104100000000005160000000000000     
100   95050325388974590000000000005900000000005900002000000010410404301207599707592220440430545371836119   1030000500030000   555610110599104519000009166City Mart 47 Branch                  MMR11004301207599707590430000000000000000   10300001 00104100000000001475000000000000     
100   95030312100077850000000000037000000000037000002000000010410404300513179936604369000430212012993660   1040001600030000   569120000924000000010000671Generation Concept Sto Ygn           MMR11004300513179936600430000000000000000   10300001F00104100000000002220000000000000     
100   95050310902464360000000000014000000000014000002000000010410404300513569936944227100430212012993694   1040001600030000   569120000924000000010000671Generation Concept Sto Ygn           MMR11004300513569936940430000000000000000   10300001F00104100000000003360000000000000     
100   62911028202679290000000000032800000000032800002000000010410404301008480006224369000430000746329713   1030000200030000   569988000801000008000004608KBZ BANK               SGP-IPANEMA   MMR11004301008480006220430000000000000000   10300001 00104100000000001968000000000000     
100   95050311382087030000000000001960000000001960002000000010410404301430580058468745280430000007081780   1020000200030000   333400010001204104000000281Myanmar Soft-Gate Tech Yangon        MMR11004301430580058460430000000000000000   10300001F05104100000000000412000000000000     
100   95050319220344710000000000003000000000003000002000000010410404300230420042099744570430000007078353   1030000900030000   333400010001202104000002022ACS                    Yangon        MMR11004300230420042090430000000000000000   10300001F05104100000000000630000000000000     
100   62911028202721270000000000002600000000002600002000000010410404301518490191534369000430000746326228   1030000200030000   541188001075000008000000294KBZ BANK               CITY MART - J MMR11004301518490191530430000000000000000   10300001 00104100000000000156000000000000     
100   62911028202466670000000000111200000000111200002000000010410404301007120103764369000430212017010376   1040001600030000   591220000276000000010000264Shwe Ohh Pharmacy (YGH Yangon        MMR11004301007120103760430000000000000000   10300001F00104100000000006672000000000000     
100   62443100379116470000000000024600000000024600002000000010410404301954320160338575090430000746337811   1030000200030000   541188001020000008000000298KBZ BANK               CITY MART - M MMR11004301954320160330430000000000000000   10300001 00104100000000006150000000000000     
100   95030333478847140000000000045613000000045613002000000010410404301614370034104369000430000746328647   1030000200030000   541188001459000008000000391KBZ BANK               OCEAN SUPER C MMR11004301614370034100430000000000000000   10300001 00104100000000002737000000000000     
100   62911028202003590000000000015200000000015200002000000010410404300230500050964369000430000007078354   1030000300030000   333300010001206104000001685MM Bus Ticket          Yangon        MMR11004300230500050960430000000000000000   10300001F05104100000000010000000000000000     
100   95030314100003900000000000011150000000011150002000000010410404301918270038344369000430000746336902   1030000200030000   541188001463000008000000391KBZ BANK               OCEAN SUPER C MMR11004301918270038340430000000000000000   10300001 00104100000000000669000000000000     
100   95050310902464360000000000058150000000058150002000000010410404300942280087505489750430212016008750   1040001600030000   591220000266000000010000254Shwe Ohh Pharmacy (Sin Yangon        MMR11004300942280087500430000000000000000   10300001F00104100000000013956000000000000     
100   62911028202112730000000000054600000000054600002000000010410404301556370197594369000430000746327817   1030000200030000   541188001070000008000000314KBZ BANK               MARKETPLACE - MMR11004301556370197590430000000000000000   10300001 00104100000000003276000000000000     
100   62911028202112730000000000113500000000113500002000000010410404301547330085404369000430000746327449   1030000200030000   541188001060000008000000314KBZ BANK               MARKETPLACE - MMR11004301547330085400430000000000000000   10300001 00104100000000006810000000000000     
100   62911028202484080000000000045600000000045600002000000010410404301207120064254369000430000746317344   1030000200030000   541188001022000008000000298KBZ BANK               CITY MART - M MMR11004301207120064250430000000000000000   10300001 00104100000000002736000000000000     
100   62911028202154720000000000060000000000060000002000000010410404300951100092534369000430212016009253   1040001600030000   598320000658000000010000527Shwe Taung Energy (YGN Yangon        MMR11004300951100092530430000000000000000   10300001F00104100000000001800000000000000     
100   62911028202112730000000000088500000000088500002000000010410404301623210085434369000430000746329042   1030000200030000   541188001060000008000000314KBZ BANK               MARKETPLACE - MMR11004301623210085430430000000000000000   10300001 00104100000000005310000000000000     
100   95030343892826500000000000019450000000019450002000000010410404301044090135494369000430212017013549   1040001600030000   591220000284000000010000272Shwe Ohh Pharmacy (San Yangon        MMR11004301044090135490430000000000000000   10300001F00104100000000001167000000000000     
100   62911028202905250000000000100000000000100000002000000010410404300530160016164369000430000007079329   1030000200030000   333800010001203104000003327KBZPay                 Yangon        MMR11004300530160016160430000000000000000   10300001F05104100000000021000000000000000     
100   62911028202136750000000000091965000000091965002000000010410404301601150067444369000430000746328029   1030000200030000   541188001006000008000000008KBZ BANK               MARKETPLACE - MMR11004301601150067440430000000000000000   10300001 00104100000000005518000000000000     
100   95050324622440820000000000025200000000025200002000000010410404301512470144550290800430000746325995   1030000200030000   541188001306000008000000325KBZ BANK               CITY MART - A MMR11004301512470144550430000000000000000   10300001 00104100000000006300000000000000     
100   95030301100351360000000000039000000000039000002000000010410404300631010101384369000430000007079665   1030000200030000   333800010001203104000003327KBZPay                 Yangon        MMR11004300631010101380430000000000000000   10300001F05104100000000008190000000000000     
100   62911028202136750000000000012400000000012400002000000010410404301608450204494369000430000746328339   1030000200030000   541188001017000008000000008KBZ BANK               MARKETPLACE - MMR11004301608450204490430000000000000000   10300001 00104100000000000744000000000000     
100   95030306100081790000000000012700000000012700002000000010410404301326210191434369000430000746320897   1030000200030000   541188001075000008000000294KBZ BANK               CITY MART - J MMR11004301326210191430430000000000000000   10300001 00104100000000000762000000000000     
100   62911028202499270000000000016400000000016400002000000010410404301024460119104369000430212017011910   1040001600030000   591220000301000000010000289Shwe Ohh Pharmacy (Yay Yangon        MMR11004301024460119100430000000000000000   10300001F00104100000000000984000000000000     
100   95030329830382620000000000300000000000300000002000000010410404300336570657084369000430000007078701   1030000200030000   333800010001203104000003327KBZPay                 Yangon        MMR11004300336570657080430000000000000000   10300001F05104100000000063000000000000000     
100   95050315557781210000000000006000000000006000002000000010410404301336570657811965150430000007081555   1040001600030000   333800010001220104000004507A +                    Yangon        MMR11004301336570657810430000000000000000   10300001F05104100000000001260000000000000     
100   95050315557781210000000000010000000000010000002000000010410404300949331933343837270430000007080581   1030000200030000   3338000100012031040000040022C2P (Myanmar) Co. Ltd Yangon        MMR11004300949331933340430000000000000000   10300001F05104100000000002100000000000000     
100   95050316717221100000000000000980000000000980002000000010410404300757112711617241130430000007080055   1020000200030000   333400010001204104000000281Myanmar Soft-Gate Tech Yangon        MMR11004300757112711610430000000000000000   10300001F05104100000000000206000000000000     
100   95050314950595330000000000010000000000010000002000000010410404301015184518362865560430000007080721   1030000200030000   3338000100012031040000040022C2P (Myanmar) Co. Ltd Yangon        MMR11004301015184518360430000000000000000   10300001F05104100000000002100000000000000     
100   62443100340422630000000000836650000000836650002000000010410404300443214627207120380430351131121119   1030000900030000   541119000612190110000000452Pro(1) Global-Hlaing T YANGONTHARYA  MMR11004300443214627200430000000000000000   10300001F00104100000000209163000000000000     
100   95050312139901420000000000001960000000001960002000000010410404301256272627430653060430000007081376   1020000200030000   333400010001204104000000281Myanmar Soft-Gate Tech Yangon        MMR11004301256272627430430000000000000000   10300001F05104100000000000412000000000000     
100   62443101096632410000000000048011000000048011002000000010410404301329170282668660180430212020028266   1040001600030000   598320000310000000010000298PT Power Petrol Statio Yangon        MMR11004301329170282660430000000000000000   10300001F00104100000000005761000000000000     
100   62443100361813580000000000053000000000053000002000000010410404301339060906390312670430000007081563   1030000200030000   333800010001203104000003327KBZPay                 Yangon        MMR11004301339060906390430000000000000000   10300001F05104100000000011130000000000000     
100   95050314287403810000000000004900000000004900002000000010410404301440361036967092800430000007081813   1020000200030000   333400010001204104000000281Myanmar Soft-Gate Tech Yangon        MMR11004301440361036960430000000000000000   10300001F05104100000000001029000000000000     
100   95050322318997110000000000050000000000050000002000000010410404300257152715621567250430000007078486   1030000200030000   333800010001203104000003327KBZPay                 Yangon        MMR11004300257152715620430000000000000000   10300001F05104100000000010500000000000000     
100   95050319161596230000000000000980000000000980002000000010410404301204073407482135340430000007081183   1020000200030000   333400010001204104000000281Myanmar Soft-Gate Tech Yangon        MMR11004301204073407480430000000000000000   10300001F05104100000000000206000000000000     
100   95050319753756490000000000020000000000020000002000000010410404300813474347290631190430000007080141   1030000200030000   333800010001203104000003327KBZPay                 Yangon        MMR11004300813474347290430000000000000000   10300001F05104100000000004200000000000000     
100   62911028202491090000000000010000000000010000002000000010410404301215264526884369000430000007081229   1030000900030000   333400010001202104000002022ACS                    Yangon        MMR11004301215264526880430000000000000000   10300001F05104100000000002100000000000000     
100   62911028202495390000000000004900000000004900002000000010410404300638224654974369000430521081322119   1030000900030000   541119001372190110000000978Ocean PZD Season C 2   YANGONAUNG    MMR11004300638224654970430000000000000000   10300001F00104100000000000294000000000000     
100   95030312100077850000000000014400000000014400002000000010410404300535084639664369000430338051208119   1030000900030000   723019001054190110000000857Beauty Diary JC        YANGONN       MMR11004300535084639660430000000000000000   10300001F00104100000000000864000000000000     
100   95050314120103040000000000000980000000000980002000000010410404300334090409858517570430000007078687   1020000200030000   333400010001204104000000281Myanmar Soft-Gate Tech Yangon        MMR11004300334090409850430000000000000000   10300001F05104100000000000206000000000000     
100   62911028202803930000000000050000000000050000002000000010410404300247241724974369000430000007078425   1030000200030000   333800010001203104000003327KBZPay                 Yangon        MMR11004300247241724970430000000000000000   10300001F05104100000000010500000000000000     
100   95050312498129060000000000000980000000000980002000000010410404301240471047243958020430000007081334   1020000200030000   333400010001204104000000281Myanmar Soft-Gate Tech Yangon        MMR11004301240471047240430000000000000000   10300001F05104100000000000206000000000000     
100   95050323233042810000000000000980000000000980002000000010410404291655472547832873640430000007077612   1020000200030000   333400010001204104000000281Myanmar Soft-Gate Tech Yangon        MMR11004291655472547830430000000000000000   10300001F05104100000000000206000000000000     
100   95050325455962190000000000000980000000000980002000000010410404300155532553712368770430000007078193   1020000200030000   333400010001204104000000281Myanmar Soft-Gate Tech Yangon        MMR11004300155532553710430000000000000000   10300001F05104100000000000206000000000000     
100   95030301100119050000000000250000000000250000002000000010410404300410114011294369000430000007078892   1030000200030000   333800010001203104000003327KBZPay                 Yangon        MMR11004300410114011290430000000000000000   10300001F05104100000000052500000000000000     
100   95050317100052460000000000001000000000001000002000000010410404300438120812409113250430000007079058   1030000200030000   333800010001203104000003327KBZPay                 Yangon        MMR11004300438120812400430000000000000000   10300001F05104100000000000210000000000000     
100   95030329830382620000000000100000000000100000002000000010410404300341541154554369000430000007078735   1030000200030000   333800010001203104000003327KBZPay                 Yangon        MMR11004300341541154550430000000000000000   10300001F05104100000000021000000000000000     
100   62911028202077190000000000000980000000000980002000000010410404301003373337494369000430000007080655   1020000200030000   333400010001204104000000281Myanmar Soft-Gate Tech Yangon        MMR11004301003373337490430000000000000000   10300001F05104100000000000206000000000000     
100   95050315424817550000000000001960000000001960002000000010410404301505483548497603380430000007081909   1020000200030000   333400010001204104000000281Myanmar Soft-Gate Tech Yangon        MMR11004301505483548490430000000000000000   10300001F05104100000000000412000000000000     
100   95050315122972560000000000000980000000000980002000000010410404301412514251893702730430000007081710   1020000200030000   333400010001204104000000281Myanmar Soft-Gate Tech Yangon        MMR11004301412514251890430000000000000000   10300001F05104100000000000206000000000000     
100   95050312280776950000000000030000000000030000002000000010410404300615104510476134880430000007079581   1030000200030000   3338000100012031040000040022C2P (Myanmar) Co. Ltd Yangon        MMR11004300615104510470430000000000000000   10300001F05104100000000006300000000000000     
100   62911028202077010000000000002940000000002940002000000010410404291640511051314369000430000007077577   1020000200030000   333400010001204104000000281Myanmar Soft-Gate Tech Yangon        MMR11004291640511051310430000000000000000   10300001F05104100000000000617000000000000     
100   95050318601641810000000000000980000000000980002000000010410404300652412241530205710430000007079776   1020000200030000   333400010001204104000000281Myanmar Soft-Gate Tech Yangon        MMR11004300652412241530430000000000000000   10300001F05104100000000000206000000000000     
100   95050324154190880000000000002940000000002940002000000010410404300414364436378262280430000007078911   1020000200030000   333400010001204104000000281Myanmar Soft-Gate Tech Yangon        MMR11004300414364436370430000000000000000   10300001F05104100000000000617000000000000     
100   95030329830382620000000000300000000000300000002000000010410404300340081008884369000430000007078723   1030000200030000   333800010001203104000003327KBZPay                 Yangon        MMR11004300340081008880430000000000000000   10300001F05104100000000063000000000000000     
100   95050316818236190000000000000980000000000980002000000010410404300850092009152113490430000007080316   1020000200030000   333400010001204104000000281Myanmar Soft-Gate Tech Yangon        MMR11004300850092009150430000000000000000   10300001F05104100000000000206000000000000     
100   95050315701710960000000000000980000000000980002000000010410404301359322932510397770430000007081660   1020000200030000   333400010001204104000000281Myanmar Soft-Gate Tech Yangon        MMR11004301359322932510430000000000000000   10300001F05104100000000000206000000000000     
100   95050313072967520000000000020000000000020000002000000010410404301100113011847993210430000007080923   1030000200030000   3338000100012031040000040022C2P (Myanmar) Co. Ltd Yangon        MMR11004301100113011840430000000000000000   10300001F05104100000000004200000000000000     
100   95050312160676580000000000000979000000000979002000000010410404300613234323264397290430000007079573   1020000200030000   333400010001204104000000281Myanmar Soft-Gate Tech Yangon        MMR11004300613234323260430000000000000000   10300001F05104100000000000205000000000000     
100   62911028202169750000000000171820000000171820002000000010410404301044250239834369000430000746313743   1030000200030000   541188001038000008000000010KBZ BANK               MARKETPLACE - MMR11004301044250239830430000000000000000   10300001 00104100000000010309000000000000     
100   62443100361813580000000000050000000000050000002000000010410404300435590559564155790430000007079038   1030000200030000   333800010001203104000003327KBZPay                 Yangon        MMR11004300435590559560430000000000000000   10300001F05104100000000010500000000000000     
100   95050314287403810000000000000980000000000980002000000010410404301449101910249255860430000007081839   1020000200030000   333400010001204104000000281Myanmar Soft-Gate Tech Yangon        MMR11004301449101910240430000000000000000   10300001F05104100000000000206000000000000     
100   95050325305150830000000000000980000000000980002000000010410404300508233823090922140430000007079199   1020000200030000   333400010001204104000000281Myanmar Soft-Gate Tech Yangon        MMR11004300508233823090430000000000000000   10300001F05104100000000000206000000000000     
100   95050312781844250000000000003000000000003000002000000010410404301159352935568588880430000007081164   1030000200030000   3334000100012031040000040102C2P (Myanmar) Co. Ltd Yangon        MMR11004301159352935560430000000000000000   10300001F05104100000000000630000000000000     
100   95050310332595380000000000002940000000002940002000000010410404300342451245745297700430000007078738   1020000200030000   333400010001204104000000281Myanmar Soft-Gate Tech Yangon        MMR11004300342451245740430000000000000000   10300001F05104100000000000617000000000000     
100   95050312695033440000000000001960000000001960002000000010410404301203213321397177900430000007081174   1020000200030000   333400010001204104000000281Myanmar Soft-Gate Tech Yangon        MMR11004301203213321390430000000000000000   10300001F05104100000000000412000000000000     
100   95030367537085740000000000001960000000001960002000000010410404301315444544324369000430000007081456   1020000200030000   333400010001204104000000281Myanmar Soft-Gate Tech Yangon        MMR11004301315444544320430000000000000000   10300001F05104100000000000412000000000000     
100   95050312498129060000000000000980000000000980002000000010410404301242131213118915470430000007081339   1020000200030000   333400010001204104000000281Myanmar Soft-Gate Tech Yangon        MMR11004301242131213110430000000000000000   10300001F05104100000000000206000000000000     
100   62443100313529540000000000002940000000002940002000000010410404300557542754223000100430000007079480   1020000200030000   333400010001204104000000281Myanmar Soft-Gate Tech Yangon        MMR11004300557542754220430000000000000000   10300001F05104100000000000617000000000000     
100   95050318131043910000000000009800000000009800002000000010410404300535010501565624300430000007079352   1020000200030000   333400010001204104000000281Myanmar Soft-Gate Tech Yangon        MMR11004300535010501560430000000000000000   10300001F05104100000000002058000000000000     
100   95050322954091830000000000010000000000010000002000000010410404300408383838271992730430000007078880   1030000200030000   3334000100012031040000040102C2P (Myanmar) Co. Ltd Yangon        MMR11004300408383838270430000000000000000   10300001F05104100000000002100000000000000     
100   95050312498129060000000000001960000000001960002000000010410404300506183618727532070430000007079196   1020000200030000   333400010001204104000000281Myanmar Soft-Gate Tech Yangon        MMR11004300506183618720430000000000000000   10300001F05104100000000000412000000000000     
100   62911028202460220000000000107670000000107670002000000010410404300518350525214369000430483519066578   1040001400030000   592110000078015921100000365Million Mart Million M rt No. (519/  MMR11004300518350525210430000000000000000   10300001 00104100000000006460000000000000     
100   95050312498129060000000000004900000000004900002000000010410404300156152615984106350430000007078195   1020000200030000   333400010001204104000000281Myanmar Soft-Gate Tech Yangon        MMR11004300156152615980430000000000000000   10300001F05104100000000001029000000000000     
100   95050315743141220000000000000980000000000980002000000010410404301414504450783787830430000007081714   1020000200030000   333400010001204104000000281Myanmar Soft-Gate Tech Yangon        MMR11004301414504450780430000000000000000   10300001F05104100000000000206000000000000     
100   95050313732480420000000000002940000000002940002000000010410404300340251025321907640430000007078724   1020000200030000   333400010001204104000000281Myanmar Soft-Gate Tech Yangon        MMR11004300340251025320430000000000000000   10300001F05104100000000000617000000000000     
100   95050318617855880000000000001960000000001960002000000010410404301541531153566035990430000007082014   1020000200030000   333400010001204104000000281Myanmar Soft-Gate Tech Yangon        MMR11004301541531153560430000000000000000   10300001F05104100000000000412000000000000     
100   62911028202077190000000000000980000000000980002000000010410404301006063606314369000430000007080669   1020000200030000   333400010001204104000000281Myanmar Soft-Gate Tech Yangon        MMR11004301006063606310430000000000000000   10300001F05104100000000000206000000000000     
100   95050315557781210000000000005000000000005000002000000010410404301329275927857007710430000007081520   1040001600030000   333800010001220104000004507A +                    Yangon        MMR11004301329275927850430000000000000000   10300001F05104100000000001050000000000000     
100   95050318601641810000000000002940000000002940002000000010410404301526455645711078540430000007081990   1020000200030000   333400010001204104000000281Myanmar Soft-Gate Tech Yangon        MMR11004301526455645710430000000000000000   10300001F05104100000000000617000000000000     
