100   62911028202531350000000000026887000000026887002000000010410404291147180202494369000429000746267128   1030000200030000   541188001001000008000000008KBZ BANK               MARKETPLACE - MMR11004291147180202490429000000000000000   10300001 00104100000000001613000000000000     
100   95030301100351360000000000030000000000030000002000000010410404291441311131524369000429000007077147   1030000500030000   333800010001201104000003863AYA Pay                Yangon        MMR11004291441311131520429000000000000000   10300001F05104100000000006300000000000000     
100   95030367537085740000000000001960000000001960002000000010410404291311334133624369000429000007076753   1020000200030000   333400010001204104000000281Myanmar Soft-Gate Tech Yangon        MMR11004291311334133620429000000000000000   10300001F05104100000000000412000000000000     
100   95050314064416890000000000000980000000000980002000000010410404290043411341443030040429000007070987   1020000200030000   333400010001204104000000281Myanmar Soft-Gate Tech Yangon        MMR11004290043411341440429000000000000000   10300001F05104100000000000206000000000000     
100   62911028202777790000000000007880000000007880002000000010410404290644281428704369000429000007073887   1030000200030000   333800010001203104000003327KBZPay                 Yangon        MMR11004290644281428700429000000000000000   10300001F05104100000000001655000000000000     
100   62911028202777790000000000007000000000007000002000000010410404290901043104134369000429000007075151   1030000200030000   333800010001203104000003327KBZPay                 Yangon        MMR11004290901043104130429000000000000000   10300001F05104100000000001470000000000000     
100   95030319588829360000000000014500000000014500002000000010410404290249004357804369000429444190900118   1030000900030000   541119001229190110000000946City Mart TM Season C  YANGONONE     MMR11004290249004357800429000000000000000   10300001F00104100000000000870000000000000     
100   95050319331315630000000000002940000000002940002000000010410404290112444244311888130429000007071065   1020000200030000   333400010001204104000000281Myanmar Soft-Gate Tech Yangon        MMR11004290112444244310429000000000000000   10300001F05104100000000000617000000000000     
100   95030385550669610000000000059965000000059965002000000010410404290836364448194369000429730061536118   1030000900030000   541119000374190110000000178Pro (1) Global (East D YANGONMYOTHIT MMR11004290836364448190429000000000000000   10300001F00104100000000003598000000000000     
100   95050315424817550000000000000980000000000980002000000010410404291115224522620370190429000007076154   1020000200030000   333400010001204104000000281Myanmar Soft-Gate Tech Yangon        MMR11004291115224522620429000000000000000   10300001F05104100000000000206000000000000     
100   95050319161596230000000000001960000000001960002000000010410404290220025002791256810429000007071335   1020000200030000   333400010001204104000000281Myanmar Soft-Gate Tech Yangon        MMR11004290220025002790429000000000000000   10300001F05104100000000000412000000000000     
100   95050310427855490000000000002940000000002940002000000010410404291325305530688001280429000007076825   1020000200030000   333400010001204104000000281Myanmar Soft-Gate Tech Yangon        MMR11004291325305530680429000000000000000   10300001F05104100000000000617000000000000     
100   95030353051876670000000000005000000000005000002000000010410404291321075107714369000429000007076793   1030000200030000   333800010001203104000003327KBZPay                 Yangon        MMR11004291321075107710429000000000000000   10300001F05104100000000001050000000000000     
100   62911028202318180000000000039100000000039100002000000010410404291003314474634369000429401331631118   1030000900030000   541119000136190110000000083SeinGayHarParami Cente YANGON        MMR11004291003314474630429000000000000000   10300001F00104100000000002346000000000000     
100   95050310397364970000000000002940000000002940002000000010410404291519454945964441020429000007077287   1020000200030000   333400010001204104000000281Myanmar Soft-Gate Tech Yangon        MMR11004291519454945960429000000000000000   10300001F05104100000000000617000000000000     
100   95050312498129060000000000002940000000002940002000000010410404290421105110201448860429000007072532   1020000200030000   333400010001204104000000281Myanmar Soft-Gate Tech Yangon        MMR11004290421105110200429000000000000000   10300001F05104100000000000617000000000000     
100   62911028202492080000000000108000000000108000002000000010410404290222589162534369000429211909916253   1040001600030000   598320000658000000010000527Shwe Taung Energy (YGN Yangon        MMR11004290222589162530429000000000000000   10300001F00104100000000003240000000000000     
100   62911028202509170000000000008850000000008850002000000010410404290740264435264369000429001101426118   1030000900030000   591219000507190110000000354Shwe Ohh Pharmacy - (S YANGON        MMR11004290740264435260429000000000000000   10300001F00104100000000000531000000000000     
100   95050318057347910000000000001960000000001960002000000010410404291120435043783675160429000007076188   1020000200030000   333400010001204104000000281Myanmar Soft-Gate Tech Yangon        MMR11004291120435043780429000000000000000   10300001F05104100000000000412000000000000     
100   95050310409767690000000000025000000000025000002000000010410404290317324732338278430429000007071815   1030000200030000   333800010001203104000003327KBZPay                 Yangon        MMR11004290317324732330429000000000000000   10300001F05104100000000005250000000000000     
100   95050327416134790000000000004900000000004900002000000010410404290329305930390441500429000007072007   1020000200030000   333400010001204104000000281Myanmar Soft-Gate Tech Yangon        MMR11004290329305930390429000000000000000   10300001F05104100000000001029000000000000     
100   62443100316099160000000000200000000000200000002000000010410404291014474447052582690429000007075770   1030000200030000   333800010001203104000003327KBZPay                 Yangon        MMR11004291014474447050429000000000000000   10300001F05104100000000042000000000000000     
100   95050319532433550000000000006037000000006037002000000010410404291220095009615923310429000007076513   1030000200030000   333800010001203104000003327KBZPay                 Yangon        MMR11004291220095009610429000000000000000   10300001F05104100000000001268000000000000     
100   95030301100423890000000000200000000000200000002000000010410404290829505950634369000429000007074875   1030000500030000   333800010001201104000003863AYA Pay                Yangon        MMR11004290829505950630429000000000000000   10300001F05104100000000042000000000000000     
100   95050326154591400000000000006375000000006375002000000010410404290702479300447213550429211914930044   1040001600030000   541120000581000000010000465Ocean Shwe Gone Daing  Yangon        MMR11004290702479300440429000000000000000   10300001F00104100000000001594000000000000     
100   95050318057347910000000000001960000000001960002000000010410404291118434843565327640429000007076168   1020000200030000   333400010001204104000000281Myanmar Soft-Gate Tech Yangon        MMR11004291118434843560429000000000000000   10300001F05104100000000000412000000000000     
100   62443101006526980000000000037600000000037600002000000010410404290317339185126540850429211910918512   1040001600030000   541120000557000000010000465Ocean Shwe Gone Daing  Yangon        MMR11004290317339185120429000000000000000   10300001F00104100000000009400000000000000     
100   95050317343045830000000000000980000000000980002000000010410404291318224822859568670429000007076776   1020000200030000   333400010001204104000000281Myanmar Soft-Gate Tech Yangon        MMR11004291318224822850429000000000000000   10300001F05104100000000000206000000000000     
100   62443100372718280000000000042000000000042000002000000010410404290305189180078448630429211910918007   1040001600030000   598320000321000000010000309PT Power Petrol Statio Yangon        MMR11004290305189180070429000000000000000   10300001F00104100000000005040000000000000     
100   95050318057347910000000000000980000000000980002000000010410404290221515151609604320429000007071345   1020000200030000   333400010001204104000000281Myanmar Soft-Gate Tech Yangon        MMR11004290221515151600429000000000000000   10300001F05104100000000000206000000000000     
100   62911028202328080000000000004930000000004930002000000010410404290709569303424369000429211914930342   1040001600030000   541120000557000000010000465Ocean Shwe Gone Daing  Yangon        MMR11004290709569303420429000000000000000   10300001F00104100000000000296000000000000     
100   95050312240830690000000000000980000000000980002000000010410404291424475447849738860429000007077070   1020000200030000   333400010001204104000000281Myanmar Soft-Gate Tech Yangon        MMR11004291424475447840429000000000000000   10300001F05104100000000000206000000000000     
100   62911028202677880000000000084260000000084260002000000010410404291349284537064369000429379192028118   1030000900030000   581219001121190110000000902Yoon Kitchen           YANGONONE     MMR11004291349284537060429000000000000000   10300001F00104100000000008595000000000000     
100   95050310427855490000000000003920000000003920002000000010410404290718014801239717000429000007074191   1020000200030000   333400010001204104000000281Myanmar Soft-Gate Tech Yangon        MMR11004290718014801230429000000000000000   10300001F05104100000000000823000000000000     
100   95050312224678430000000000000980000000000980002000000010410404290117264726316845590429000007071077   1020000200030000   333400010001204104000000281Myanmar Soft-Gate Tech Yangon        MMR11004290117264726310429000000000000000   10300001F05104100000000000206000000000000     
100   95030349489765520000000000015500000000015500002000000010410404291023284481454369000429842531628118   1030000900030000   541119000122190110000000080Sein Gay Har BAK       YANGONADA     MMR11004291023284481450429000000000000000   10300001F00104100000000000930000000000000     
100   95030301100129110000000000010400000000010400002000000010410404291229114521034369000429429591811118   1030000900030000   591219001406190110000001010Life Plus Store 11     YANGONUNG     MMR11004291229114521030429000000000000000   10300001F00104100000000000624000000000000     
100   62911028202196800000000000040000000000040000002000000010410404291038239416684369000429211917941668   1040001600030000   598320000658000000010000527Shwe Taung Energy (YGN Yangon        MMR11004291038239416680429000000000000000   10300001F00104100000000001200000000000000     
100   62911028202293090000000000013676000000013676002000000010410404290427099520934369000429534001113118   1030000500030000   555610103479104519000003432City Mart Junction Zaw na 6          MMR11004290427099520930429000000000000000   10300001 00104100000000000821000000000000     
100   62911028202728380000000000023900000000023900002000000010410404290253459512284369000429686300929118   1030000500030000   555610118965104519000016137City Mart South Okkala WZYD BR       MMR11004290253459512280429000000000000000   10300001 00104100000000001434000000000000     
100   62443100363668680000000000048750000000048750002000000010410404291228379516849228290429211919951684   1040001600030000   581420000803000000010000579Jeff's Kitchen (Ahlone Yangon        MMR11004291228379516840429000000000000000   10300001F00104100000000005850000000000000     
100   62911028202761360000000000070000000000070000002000000010410404290813029333034369000429211915933303   1040001600030000   598320000660000000010000529Shwe Taung Energy (NPT Naypyitaw     MMR11004290813029333030429000000000000000   10300001F00104100000000002100000000000000     
100   95030337100000390000000000036150000000036150002000000010410404290730179313054369000429211914931305   1040001600030000   591220000274000000010000262Shwe Ohh Pharmacy (Shw Yangon        MMR11004290730179313050429000000000000000   10300001F00104100000000002169000000000000     
100   62911028202523350000000000040500000000040500002000000010410404290726209311144369000429211914931114   1040001600030000   598320000659000000010000528Shwe Taung Energy (YGN Yangon        MMR11004290726209311140429000000000000000   10300001F00104100000000001215000000000000     
100   62443100379321630000000000150000000000150000002000000010410404290743059546123277250429366151438118   1030000300030000   555510124689104519000020166Makro Myanmar                        MMR11004290743059546120429000000000000000   10300001 00104100000000036000000000000000     
100   62911028202495390000000000003700000000003700002000000010410404290656009539934369000429620261331118   1030000500030000   555610110595104519000009166City Mart 47 Branch                  MMR11004290656009539930429000000000000000   10300001 00104100000000000222000000000000     
100   95050321685338790000000000035950000000035950002000000010410404290509359525558179550429035391108118   1030000300030000   444410116806104519000014353BreadTalk JunctionCity               MMR11004290509359525550429000000000000000   10300001 00104100000000015279000000000000     
100   62911028202169750000000000019800000000019800002000000010410404290723139543474369000429038531355118   1030000500030000   555610118962104519000016137City Mart South Okkala WZYD BR       MMR11004290723139543470429000000000000000   10300001 00104100000000001188000000000000     
100   95050318808284430000000000023000000000023000002000000010410404281132370012550464360428000342457796   1030000300030000   531100000752000000000000408CB BANK                CAPITAL HYPER MMR11004281132370012550428000000000000000   10300001F00104100000000005520000000000000     
100   62443100313529540000000000025000000000025000002000000010410404281114060000813769330428211817000081   1030000500030000   566120038001016505661200380RIPPLE FLIPFLOPS       PTN           MMR11004281114060000810428000000000000000   10300001 00104100000000006000000000000000     
100   95030301100124400000000000068000000000068000002000000010410404280802120000154369000428211814000015   1030000500030000   594420172701000015944201727VJM (ST)               PTN           MMR11004280802120000150428000000000000000   10300001 00104100000000004080000000000000     
100   95030325264619140000000000149500000000149500002000000010410404280644030011344369000428000342419115   1030000300030000   541100000203000000000000102CB BANK                MAKRO MYANMAR MMR11004280644030011340428000000000000000   10300001F00104100000000008970000000000000     
100   62443100315110470000000000025000000000025000002000000010410404280946560004871705150428211816000487   1030000500030000   569120104001008205691201040ESCORT ( CITY MALL-ST. PTN           MMR11004280946560004870428000000000000000   10300001 00104100000000006000000000000000     
100   62911028202313470000000000050000000000050000002000000010410404280329530007604369000428211809000760   1030000500030000   598320001601000015172200016MAX ENERGY             PTN           MMR11004280329530007600428000000000000000   10300001 00104100000000001500000000000000     
100   95030307100064460000000000008000000000008000002000000010410404281240400000454369000428211819000045   1030000500030000   581220142001000015812201420GOLDEN DUCK (NAN THI D PTN           MMR11004281240400000450428000000000000000   10300001 00104100000000000816000000000000     
100   62443101006037900000000000010000000000010000002000000010410404280006030008210840390428211806000821   1030000500030000   598320001303000015172200013MAX ENERGY             PTN           MMR11004280006030008210428000000000000000   10300001 00104100000000001200000000000000     
100   95030307100064460000000000010000000000010000002000000010410404281227090000414369000428211818000041   1030000500030000   581220148201017105812201482GOLDEN DUCK RESTAURANT PTN           MMR11004281227090000410428000000000000000   10300001 00104100000000001020000000000000     
100   62911028202099050000000000034900000000034900002000000010410404280651310003034369000428211813000303   1030000500030000   481220022001000024812200220ANYCALL MOBILE         PTN           MMR11004280651310003030428000000000000000   10300001 00104100000000002094000000000000     
100   95050319006804440000000000004400000000004400002000000010410404281049350002817329580428211817000281   1030000500030000   531120155804000045311201558GAMONE PWINT           PTN           MMR11004281049350002810428000000000000000   10300001 00104100000000001056000000000000     
100   95030310098554020000000000250000000000250000002000000010410404281037120003624369000428211817000362   1030000500030000   806220009106024108062200091ARYU INTL HOSPITAL     PTN           MMR11004281037120003620428000000000000000   10300001 00104100000000015000000000000000     
100   95050320531117320000000000219870000000219870002000000010410404281255420003636272770428000342468439   1030000300030000   581200000491000000000000351CB BANK                CHO JAPANESE  MMR11004281255420003630428000000000000000   10300001F00104100000000093445000000000000     
100   95050329632900220000000000050000000000050000002000000010410404280124280011259443200428211807001125   1030000500030000   598320001301000015172200013MAX ENERGY             PTN           MMR11004280124280011250428000000000000000   10300001 00104100000000006000000000000000     
100   62443100398006570000000000076000000000076000002000000010410404281029050000366904100428211816000036   1030000500030000   729820044001000017298200440YANGON SANCTUARY SPA   PTN           MMR11004281029050000360428000000000000000   10300001 00104100000000018240000000000000     
100   62911028202194090000000000027000000000027000002000000010410404280738450007714369000428211814000771   1030000500030000   598320001203000015172200012MAX ENERGY             PTN           MMR11004280738450007710428000000000000000   10300001 00104100000000000810000000000000     
100   62911028202110420000000000059000000000059000002000000010410404271358520117644369000427211713011764   1030000600030000   554100002324315799420000481DENKO NORTH OKKALAPA   YANGON        MMR11004271358520117640427000000000000000   10300001 00104100000000001770000000000000     
100   95050324411430900000000000009806000000009806002000000010410404291130020002676809930429000007076247   1010000100030000   333500010001212104000002535Internal Revenue Depar Yangon        MMR11004291130020002670429000000000000000   10300001F05104100000000060000000000000000     
100   62911028202400660000000000047250000000047250002000000010410404291127350112894369000429000746265210   1030000200030000   541188001127000008000000296KBZ BANK               CITY MART - J MMR11004291127350112890429000000000000000   10300001 00104100000000002835000000000000     
100   95050310160291140000000000067904000000067904002000000010410404291350290035524419160429000746277728   1030000200030000   541188001436000008000000401KBZ BANK               OCEAN SUPERCE MMR11004291350290035520429000000000000000   10300001 00104100000000016976000000000000     
100   62443101053241940000000000009000000000009000002000000010410404291214430010208009350429000746269711   1030000200030000   541188001311000008000000325KBZ BANK               CITY MART - A MMR11004291214430010200429000000000000000   10300001 00104100000000002250000000000000     
100   95030306100081790000000000006800000000006800002000000010410404291538540017264369000429000746284469   1030000200030000   541188001079000008000000294KBZ BANK               CITY MART - J MMR11004291538540017260429000000000000000   10300001 00104100000000000408000000000000     
100   95030306100081790000000000019000000000019000002000000010410404291539590017274369000429000746284520   1030000200030000   541188001079000008000000294KBZ BANK               CITY MART - J MMR11004291539590017270429000000000000000   10300001 00104100000000001140000000000000     
100   95050313817486860000000000019900000000019900002000000010410404291553270049022717230429000746285233   1030000200030000   541188001440000008000000401KBZ BANK               OCEAN SUPERCE MMR11004291553270049020429000000000000000   10300001 00104100000000004975000000000000     
100   62911028202677390000000000050000000000050000002000000010410404280938230007404369000428211816000740   1030000500030000   598320002701000015172200027MAX ENERGY             PTN           MMR11004280938230007400428000000000000000   10300001 00104100000000001500000000000000     
100   62911028202449100000000000140000000000140000002000000010410404280339140009564369000428211810000956   1030000500030000   598320001202000015172200012MAX ENERGY             PTN           MMR11004280339140009560428000000000000000   10300001 00104100000000004200000000000000     
100   62443100313529540000000000054900000000054900002000000010410404280815500002387088080428211814000238   1030000500030000   531120155806000045311201558GAMONE PWINT           PTN           MMR11004280815500002380428000000000000000   10300001 00104100000000013176000000000000     
100   62911028202788270000000000019030000000019030002000000010410404280643300000774369000428211813000077   1030000500030000   581220123001000045812201230YOON KITCHEN           PTN           MMR11004280643300000770428000000000000000   10300001 00104100000000001941000000000000     
100   95030301100121350000000000060000000000060000002000000010410404280118550142114369000428211801014211   1030000600030000   554100002323315799420000474DENKO N.DAGON - 1      YANGON        MMR11004280118550142110428000000000000000   10300001 00104100000000001800000000000000     
100   95050310397364970000000000000980000000000980002000000010410404281631410141644597430428000007070514   1020000200030000   333400010001204104000000281Myanmar Soft-Gate Tech Yangon        MMR11004281631410141640428000000000000000   10300001F05104100000000000206000000000000     
100   95050324133333980000000000007893000000007893002000000010410404281034120472780294160428211810047278   1030000600030000   554100001756315799420001137DENKO NORTH DAGON 2    YANGON        MMR11004281034120472780428000000000000000   10300001 00104100000000000947000000000000     
100   62911028202366010000000000138000000000138000002000000010410404280534500356784369000428211805035678   1030000600030000   554100001865315799420001235DENKO NAY PYI TAW 2    NAYPYITAW     MMR11004280534500356780428000000000000000   10300001 00104100000000004140000000000000     
100   62911028202400660000000000010500000000010500002000000010410404291124440103604369000429000746264921   1030000200030000   541188001132000008000000296KBZ BANK               CITY MART - J MMR11004291124440103600429000000000000000   10300001 00104100000000000630000000000000     
100   62911028202662930000000000009810000000009810002000000010410404291109120066704369000429000746263521   1030000200030000   541188001062000008000000314KBZ BANK               MARKETPLACE - MMR11004291109120066700429000000000000000   10300001 00104100000000000589000000000000     
100   95050312926040930000000000014700000000014700002000000010410404291331200120542958730429000007076841   1020000200030000   333400010001204104000000281Myanmar Soft-Gate Tech Yangon        MMR11004291331200120540429000000000000000   10300001F05104100000000003087000000000000     
100   95050329720609600000000000029350000000029350002000000010410404291557240125569667550429000746285490   1030000200030000   541188001065000008000000314KBZ BANK               MARKETPLACE - MMR11004291557240125560429000000000000000   10300001 00104100000000007338000000000000     
100   95050316785465380000000000003920000000003920002000000010410404291431230123818086380429000007077092   1020000200030000   333400010001204104000000281Myanmar Soft-Gate Tech Yangon        MMR11004291431230123810429000000000000000   10300001F05104100000000000823000000000000     
100   95030333478847140000000000020700000000020700002000000010410404291612500025584369000429000746286315   1030000200030000   541188001462000008000000391KBZ BANK               OCEAN SUPER C MMR11004291612500025580429000000000000000   10300001 00104100000000001242000000000000     
100   62911028202318750000000000008150000000008150002000000010410404291410340124964369000429000746279358   1030000200030000   541188001009000008000000008KBZ BANK               MARKETPLACE - MMR11004291410340124960429000000000000000   10300001 00104100000000000489000000000000     
100   95050318134586070000000000036850000000036850002000000010410404291922250064750625480429000746295305   1030000200030000   541188001315000008000000306KBZ BANK               CITY MART - S MMR11004291922250064750429000000000000000   10300001 00104100000000009213000000000000     
100   95030320529939180000000000100000000000100000002000000010410404280022008449574369000428211807844957   1040001600030000   598320000918000000010000665MMTM - Thingangyun     Ygn           MMR11004280022008449570428000000000000000   10300001F00104100000000003000000000000000     
100   95030353305053700000000000049100000000049100002000000010410404291007349568114369000429980571634118   1030000500030000   555610103477104519000003432City Mart Junction Zaw na 4          MMR11004291007349568110429000000000000000   10300001 00104100000000002946000000000000     
100   62911028202756820000000000010500000000010500002000000010410404291003569564634369000429541341624118   1030000300030000   555510125523104519000021338MGOU Monywa                          MMR11004291003569564630429000000000000000   10300001 00104100000000000630000000000000     
100   95030303100034700000000000014000000000014000002000000010410404290728239544044369000429114591315118   1030000500030000   555610110557104519000009163City Mart Ayeyarwon Br nch           MMR11004290728239544040429000000000000000   10300001 00104100000000000840000000000000     
100   95030367537085740000000000004900000000004900002000000010410404290808543854994369000429000007074651   1020000200030000   333400010001204104000000281Myanmar Soft-Gate Tech Yangon        MMR11004290808543854990429000000000000000   10300001F05104100000000001029000000000000     
100   95050327416134790000000000002940000000002940002000000010410404290754432443866908820429000007074524   1020000200030000   333400010001204104000000281Myanmar Soft-Gate Tech Yangon        MMR11004290754432443860429000000000000000   10300001F05104100000000000617000000000000     
100   95050319331315630000000000004900000000004900002000000010410404291019114911886483330429000007075802   1020000200030000   333400010001204104000000281Myanmar Soft-Gate Tech Yangon        MMR11004291019114911880429000000000000000   10300001F05104100000000001029000000000000     
100   62443100379321630000000000019000000000019000002000000010410404290807524441399958490429339371452118   1030000900030000   541119001372190110000000978Ocean PZD Season C 2   YANGONAUNG    MMR11004290807524441390429000000000000000   10300001F00104100000000004750000000000000     
100   95050313843656520000000000000980000000000980002000000010410404290433380338323526830429000007072678   1020000200030000   333400010001204104000000281Myanmar Soft-Gate Tech Yangon        MMR11004290433380338320429000000000000000   10300001F05104100000000000206000000000000     
100   62911028202531350000000000009950000000009950002000000010410404291148170202504369000429000746267240   1030000200030000   541188001001000008000000008KBZ BANK               MARKETPLACE - MMR11004291148170202500429000000000000000   10300001 00104100000000000597000000000000     
100   95030301100119050000000000020000000000020000002000000010410404282345581558634369000429000007070847   1030000200030000   333800010001203104000003327KBZPay                 Yangon        MMR11004282345581558630429000000000000000   10300001F05104100000000004200000000000000     
100   95030301100122420000000000100000000000100000002000000010410404290234350435684369000429000007071424   1030000200030000   333800010001203104000003327KBZPay                 Yangon        MMR11004290234350435680429000000000000000   10300001F05104100000000021000000000000000     
100   95050313411345710000000000005000000000005000002000000010410404290354202420499370900429000007072257   1030000200030000   333800010001203104000003327KBZPay                 Yangon        MMR11004290354202420490429000000000000000   10300001F05104100000000001050000000000000     
100   62911028202031710000000000105410000000105410002000000010410404291615260143974369000429000746286460   1030000200030000   541188001306000008000000325KBZ BANK               CITY MART - A MMR11004291615260143970429000000000000000   10300001 00104100000000006325000000000000     
100   95050317100052460000000000000850000000000850002000000010410404291332590259983043830429000007076849   1030000200030000   333800010001203104000003327KBZPay                 Yangon        MMR11004291332590259980429000000000000000   10300001F05104100000000000179000000000000     
100   62443100355903280000000000010000000000010000002000000010410404291336310631956348800429000007076865   1030000200030000   333800010001203104000003327KBZPay                 Yangon        MMR11004291336310631950429000000000000000   10300001F05104100000000002100000000000000     
100   62443100364681690000000000006350000000006350002000000010410404291212259585124185730429002451823118   1030000500030000   555610110570104519000009164City Mart China Town P int Cen       MMR11004291212259585120429000000000000000   10300001 00104100000000001588000000000000     
100   62911028202721270000000000100000000000100000002000000010410404291249051905884369000429000007076666   1030000200030000   333800010001203104000003327KBZPay                 Yangon        MMR11004291249051905880429000000000000000   10300001F05104100000000021000000000000000     
100   62443101023815100000000000015700000000015700002000000010410404291230159587972618350429340041934118   1030000500030000   555610114573104519000012532City Mart Ahlone Branc               MMR11004291230159587970429000000000000000   10300001 00104100000000003925000000000000     
100   62911028202118690000000000021770000000021770002000000010410404291043069571134369000429327131723118   1030000500030000   555610112248104519000010487Ocean Super Center St  ohn           MMR11004291043069571130429000000000000000   10300001 00104100000000001306000000000000     
100   95050315150726490000000000019100000000019100002000000010410404290936044465855291990429857061604118   1030000900030000   541119000116190110000000078Sein Gay Har Kan Thar  YANGONOKKALAP MMR11004290936044465850429000000000000000   10300001F00104100000000004775000000000000     
100   62443100364681690000000000014547000000014547002000000010410404291200579583386980120429803331844118   1030000500030000   555610110570104519000009164City Mart China Town P int Cen       MMR11004291200579583380429000000000000000   10300001 00104100000000003637000000000000     
100   95050329888918380000000000068390000000068390002000000010410404290843054450137504490429856131505118   1030000900030000   594519000445190110000000300BKB Baby &Toys (Kyimyi YANGONINDAING MMR11004290843054450130429000000000000000   10300001F00104100000000016414000000000000     
100   95050324420254860000000000016800000000016800002000000010410404290555334406801654710429295251233118   1030000900030000   541119000112190110000000077Sein Gay Har Chinatown YANGON        MMR11004290555334406800429000000000000000   10300001F00104100000000004200000000000000     
100   95050319938772870000000000000980000000000980002000000010410404291500463046826093510429000007077227   1020000200030000   333400010001204104000000281Myanmar Soft-Gate Tech Yangon        MMR11004291500463046820429000000000000000   10300001F05104100000000000206000000000000     
100   95050319938772870000000000001960000000001960002000000010410404291457032703086008410429000007077201   1020000200030000   333400010001204104000000281Myanmar Soft-Gate Tech Yangon        MMR11004291457032703080429000000000000000   10300001F05104100000000000412000000000000     
100   95050322104201170000000000180000000000180000002000000010410404290305193519876796150429000007071676   1030000200030000   333800010001203104000003327KBZPay                 Yangon        MMR11004290305193519870429000000000000000   10300001F05104100000000037800000000000000     
100   95050319938772870000000000003920000000003920002000000010410404291331460146531306250429000007076845   1020000200030000   333400010001204104000000281Myanmar Soft-Gate Tech Yangon        MMR11004291331460146530429000000000000000   10300001F05104100000000000823000000000000     
100   62911028202491330000000000013336000000013336002000000010410404291558150184184369000429000746285541   1030000200030000   541188001080000008000000294KBZ BANK               CITY MART - J MMR11004291558150184180429000000000000000   10300001 00104100000000000800000000000000     
100   95050310332595380000000000002940000000002940002000000010410404290139030903058327880429000007071154   1020000200030000   333400010001204104000000281Myanmar Soft-Gate Tech Yangon        MMR11004290139030903050429000000000000000   10300001F05104100000000000617000000000000     
100   95030367537085740000000000000980000000000980002000000010410404291249131913324369000429000007076659   1020000200030000   333400010001204104000000281Myanmar Soft-Gate Tech Yangon        MMR11004291249131913320429000000000000000   10300001F05104100000000000206000000000000     
100   95050311403968010000000000050000000000050000002000000010410404291253512351122363060429000007076695   1030000200030000   333800010001203104000003327KBZPay                 Yangon        MMR11004291253512351120429000000000000000   10300001F05104100000000010500000000000000     
100   62911028202260570000000000021700000000021700002000000010410404290622394415014369000429796521239118   1030000900030000   541119001281190110000000963City Mart SPL C6       YANGONMYOTHIT MMR11004290622394415010429000000000000000   10300001F00104100000000001302000000000000     
100   62911028202708080000000000026750000000026750002000000010410404290753529547144369000429502231437118   1030000500030000   555610110596104519000009166City Mart 47 Branch                  MMR11004290753529547140429000000000000000   10300001 00104100000000001605000000000000     
100   62443100363668680000000000150000000000150000002000000010410404280156250049089854890428000342380934   1030000300030000   806200000197000000000000097CB BANK                AUNG YADANA H MMR11004280156250049080428000000000000000   10300001F00104100000000036000000000000000     
100   62443100371022130000000000028000000000028000002000000010410404290501409231327498770429211912923132   1040001600030000   598320000658000000010000527Shwe Taung Energy (YGN Yangon        MMR11004290501409231320429000000000000000   10300001F00104100000000003360000000000000     
100   95050312618592720000000000010000000000010000002000000010410404291306173617936263700429000007076740   1030000200030000   333800010001203104000003327KBZPay                 Yangon        MMR11004291306173617930429000000000000000   10300001F05104100000000002100000000000000     
100   95030303100034700000000000007000000000007000002000000010410404290729089544174369000429138001414118   1030000500030000   555610110557104519000009163City Mart Ayeyarwon Br nch           MMR11004290729089544170429000000000000000   10300001 00104100000000000420000000000000     
100   62911028202495390000000000013800000000013800002000000010410404291249489590064369000429601201920118   1030000500030000   555610110595104519000009166City Mart 47 Branch                  MMR11004291249489590060429000000000000000   10300001 00104100000000000828000000000000     
100   95050321685338790000000000088131000000088131002000000010410404290825204445478391110429580551420118   1030000900030000   541119001511190110000001102Ocean MGDTM C-4        YANGONADON    MMR11004290825204445470429000000000000000   10300001F00104100000000022033000000000000     
100   62911028202235910000000000033000000000033000002000000010410404291349520175604369000429000746277649   1030000200030000   541188001082000008000000294KBZ BANK               CITY MART - J MMR11004291349520175600429000000000000000   10300001 00104100000000001980000000000000     
100   62443100379116470000000000004900000000004900002000000010410404291335290529041391340429000007076854   1020000200030000   333400010001204104000000281Myanmar Soft-Gate Tech Yangon        MMR11004291335290529040429000000000000000   10300001F05104100000000001029000000000000     
100   95050312160676580000000000000980000000000980002000000010410404290240341034862980600429000007071462   1020000200030000   333400010001204104000000281Myanmar Soft-Gate Tech Yangon        MMR11004290240341034860429000000000000000   10300001F05104100000000000206000000000000     
100   95050313168701670000000000014000000000014000002000000010410404291343071307514696310429000007076890   1030000200030000   333800010001203104000003327KBZPay                 Yangon        MMR11004291343071307510429000000000000000   10300001F05104100000000002940000000000000     
100   95050318601641810000000000000980000000000980002000000010410404290601223122258349740429000007073559   1020000200030000   333400010001204104000000281Myanmar Soft-Gate Tech Yangon        MMR11004290601223122250429000000000000000   10300001F05104100000000000206000000000000     
100   95050319524870520000000000002940000000002940002000000010410404291054422442461682280429000007076032   1020000200030000   333400010001204104000000281Myanmar Soft-Gate Tech Yangon        MMR11004291054422442460429000000000000000   10300001F05104100000000000617000000000000     
100   62443100315110470000000000010000000000010000002000000010410404291058032803828377320429000007076052   1030000900030000   333400010001202104000002022ACS                    Yangon        MMR11004291058032803820429000000000000000   10300001F05104100000000002100000000000000     
100   95050318601641810000000000000980000000000980002000000010410404290556462646617037640429000007073502   1020000200030000   333400010001204104000000281Myanmar Soft-Gate Tech Yangon        MMR11004290556462646610429000000000000000   10300001F05104100000000000206000000000000     
100   62443100313529540000000000003750000000003750002000000010410404280824450004139336240428211814000413   1030000500030000   531120155802000045311201558GAMONE PWINT           PTN           MMR11004280824450004130428000000000000000   10300001 00104100000000000900000000000000     
100   62911028202527800000000000040000000000040000002000000010410404281103420008214369000428211817000821   1030000500030000   598320001601000015172200016MAX ENERGY             PTN           MMR11004281103420008210428000000000000000   10300001 00104100000000001200000000000000     
100   95050310332595380000000000002940000000002940002000000010410404290139560956363285330429000007071157   1020000200030000   333400010001204104000000281Myanmar Soft-Gate Tech Yangon        MMR11004290139560956360429000000000000000   10300001F05104100000000000617000000000000     
100   95050315150726490000000000000980000000000980002000000010410404290252322232319760730429000007071561   1020000200030000   333400010001204104000000281Myanmar Soft-Gate Tech Yangon        MMR11004290252322232310429000000000000000   10300001F05104100000000000206000000000000     
100   95030301100126550000000000052000000000052000002000000010410404281055570008334369000428211817000833   1030000500030000   598320001204000015172200012MAX ENERGY             PTN           MMR11004281055570008330428000000000000000   10300001 00104100000000001560000000000000     
100   62443100333488440000000000067014000000067014002000000010410404280814110011533783110428211814001153   1030000500030000   598320001304000015172200013MAX ENERGY             PTN           MMR11004280814110011530428000000000000000   10300001 00104100000000008042000000000000     
100   95050322715181550000000000600000000000600000002000000010410404290732154433399802090429899021415118   1030000900030000   541119000831190110000000177Pro1 Global (Insein)   YANGON        MMR11004290732154433390429000000000000000   10300001F00104100000000150000000000000000     
100   95050319789172490000000000004900000000004900002000000010410404291540070197125596720429000746284526   1030000200030000   541188001070000008000000314KBZ BANK               MARKETPLACE - MMR11004291540070197120429000000000000000   10300001 00104100000000001225000000000000     
100   62911028202370470000000000000980000000000980002000000010410404290107123712454369000429000007071046   1020000200030000   333400010001204104000000281Myanmar Soft-Gate Tech Yangon        MMR11004290107123712450429000000000000000   10300001F05104100000000000206000000000000     
100   95050312498129060000000000004900000000004900002000000010410404290256462646982725310429000007071596   1020000200030000   333400010001204104000000281Myanmar Soft-Gate Tech Yangon        MMR11004290256462646980429000000000000000   10300001F05104100000000001029000000000000     
100   95050312498129060000000000000980000000000980002000000010410404290252402240394377790429000007071563   1020000200030000   333400010001204104000000281Myanmar Soft-Gate Tech Yangon        MMR11004290252402240390429000000000000000   10300001F05104100000000000206000000000000     
100   95050319524870520000000000002940000000002940002000000010410404290545041504508605030429000007073381   1020000200030000   333400010001204104000000281Myanmar Soft-Gate Tech Yangon        MMR11004290545041504500429000000000000000   10300001F05104100000000000617000000000000     
100   95050319938772870000000000000980000000000980002000000010410404291458552855684355920429000007077216   1020000200030000   333400010001204104000000281Myanmar Soft-Gate Tech Yangon        MMR11004291458552855680429000000000000000   10300001F05104100000000000206000000000000     
100   95030352597917530000000000009000000000009000002000000010410404291557062706924369000429000007077450   1030000200030000   333800010001203104000003327KBZPay                 Yangon        MMR11004291557062706920429000000000000000   10300001F05104100000000001890000000000000     
100   95050317100052460000000000000700000000000700002000000010410404291203373337028632610429000007076438   1030000200030000   333800010001203104000003327KBZPay                 Yangon        MMR11004291203373337020429000000000000000   10300001F05104100000000000147000000000000     
100   95050311419479170000000000000980000000000980002000000010410404281840151015109554880429000007070702   1020000200030000   333400010001204104000000281Myanmar Soft-Gate Tech Yangon        MMR11004281840151015100429000000000000000   10300001F05104100000000000206000000000000     
100   62911028202786290000000000035000000000035000002000000010410404291440391039324369000429000007077142   1030000200030000   333800010001203104000003327KBZPay                 Yangon        MMR11004291440391039320429000000000000000   10300001F05104100000000007350000000000000     
100   95050315005801680000000000002940000000002940002000000010410404281630590059606249910428000007070516   1020000200030000   333400010001204104000000281Myanmar Soft-Gate Tech Yangon        MMR11004281630590059600428000000000000000   10300001F05104100000000000617000000000000     
100   95050318057347910000000000000980000000000980002000000010410404291538210821407745990429000007077365   1020000200030000   333400010001204104000000281Myanmar Soft-Gate Tech Yangon        MMR11004291538210821400429000000000000000   10300001F05104100000000000206000000000000     
100   95050316272163320000000000002940000000002940002000000010410404291056472647510029800429000007076044   1020000200030000   333400010001204104000000281Myanmar Soft-Gate Tech Yangon        MMR11004291056472647510429000000000000000   10300001F05104100000000000617000000000000     
100   95050316717221100000000000000980000000000980002000000010410404290456492649074108710429000007072908   1020000200030000   333400010001204104000000281Myanmar Soft-Gate Tech Yangon        MMR11004290456492649070429000000000000000   10300001F05104100000000000206000000000000     
100   62911028202908140000000000001000000000001000002000000010410404290304063406314369000429000007071648   1030000200030000   3334000100012031040000040102C2P (Myanmar) Co. Ltd Yangon        MMR11004290304063406310429000000000000000   10300001F05104100000000000210000000000000     
100   62911028202446700000000000025000000000025000002000000010410404290902143214654369000429000007075172   1030000200030000   333800010001203104000003327KBZPay                 Yangon        MMR11004290902143214650429000000000000000   10300001F05104100000000005250000000000000     
100   62443101053241940000000000097500000000097500002000000010410404291209320158404619290429000746269251   1030000200030000   541188001305000008000000325KBZ BANK               CITY MART - A MMR11004291209320158400429000000000000000   10300001 00104100000000024375000000000000     
100   95050323667276610000000000005880000000005880002000000010410404290442361236340562250429000007072761   1020000200030000   333400010001204104000000281Myanmar Soft-Gate Tech Yangon        MMR11004290442361236340429000000000000000   10300001F05104100000000001235000000000000     
100   62443100315110470000000000005000000000005000002000000010410404291052432243099944710429000007076010   1030000900030000   333400010001202104000002022ACS                    Yangon        MMR11004291052432243090429000000000000000   10300001F05104100000000001050000000000000     
100   62911028202777790000000000010000000000010000002000000010410404290345531553164369000429000007072171   1030000200030000   333800010001203104000003327KBZPay                 Yangon        MMR11004290345531553160429000000000000000   10300001F05104100000000002100000000000000     
100   95050314557307430000000000001960000000001960002000000010410404290813284328275001050429000007074714   1020000200030000   333400010001204104000000281Myanmar Soft-Gate Tech Yangon        MMR11004290813284328270429000000000000000   10300001F05104100000000000412000000000000     
100   62911028202440680000000000043450000000043450002000000010410404291850310142254369000429000746294038   1030000200030000   541188001073000008000000294KBZ BANK               CITY MART - J MMR11004291850310142250429000000000000000   10300001 00104100000000002607000000000000     
100   95050323233042810000000000000980000000000980002000000010410404291532460246049398480429000007077346   1020000200030000   333400010001204104000000281Myanmar Soft-Gate Tech Yangon        MMR11004291532460246040429000000000000000   10300001F05104100000000000206000000000000     
100   95050311131833760000000000050000000000050000002000000010410404290646391639294163870429000007073914   1030000200030000   333800010001203104000003327KBZPay                 Yangon        MMR11004290646391639290429000000000000000   10300001F05104100000000010500000000000000     
100   95050311382087030000000000002940000000002940002000000010410404290908073807780554170429000007075239   1020000200030000   333400010001204104000000281Myanmar Soft-Gate Tech Yangon        MMR11004290908073807780429000000000000000   10300001F05104100000000000617000000000000     
100   62443100335647210000000000010000000000010000002000000010410404291304083408684100640429000007076730   1030000200030000   3334000100012031040000040102C2P (Myanmar) Co. Ltd Yangon        MMR11004291304083408680429000000000000000   10300001F05104100000000002100000000000000     
100   62911028202728380000000000010500000000010500002000000010410404290319114365234369000429845490911118   1030000900030000   541119001004190110000000394Super One ShoppingMall YANGON        MMR11004290319114365230429000000000000000   10300001F00104100000000000630000000000000     
