100   95050316785465380000000000000980000000000980002000000010410405021541561156956661820502000007094331   1020000200030000   333400010001204104000000281Myanmar Soft-Gate Tech Yangon        MMR11005021541561156950502000000000000000   10300001F05104100000000000206000000000000     
100   95030301100183220000000000300000000000300000002000000010410405021142341234844369000502000007093295   1030000500030000   333800010001201104000003863AYA Pay                Yangon        MMR11005021142341234840502000000000000000   10300001F05104100000000063000000000000000     
100   95050315150726490000000000001960000000001960002000000010410405020935340534915654460502000007092470   1020000200030000   333400010001204104000000281Myanmar Soft-Gate Tech Yangon        MMR11005020935340534910502000000000000000   10300001F05104100000000000412000000000000     
100   95050317517212300000000000021550000000021550002000000010410405020417301277037244340502212211127703   1040001600030000   541120000569000000010000465Ocean Shwe Gone Daing  Yangon        MMR11005020417301277030502000000000000000   10300001F00104100000000005388000000000000     
100   62911028202313470000000000039100000000039100002000000010410405021205420274154369000502000746408506   1030000200030000   541188001012000008000000008KBZ BANK               MARKETPLACE - MMR11005021205420274150502000000000000000   10300001 00104100000000002346000000000000     
100   95030301100159060000000000039000000000039000002000000010410405020636020602634369000502000007090788   1030000200030000   333800010001203104000003327KBZPay                 Yangon        MMR11005020636020602630502000000000000000   10300001F05104100000000008190000000000000     
100   95050316321163940000000000000980000000000980002000000010410405021241181118858945640502000007093541   1020000200030000   333400010001204104000000281Myanmar Soft-Gate Tech Yangon        MMR11005021241181118850502000000000000000   10300001F05104100000000000206000000000000     
100   95050316272163320000000000031000000000031000002000000010410405020640121012789733150502000007090846   1030000200030000   333800010001203104000003327KBZPay                 Yangon        MMR11005020640121012780502000000000000000   10300001F05104100000000006510000000000000     
100   62911028202170490000000000042518000000042518002000000010410405020808149909164369000502817381406121   1030000500030000   555610112234104519000010487Ocean Super Center St  ohn           MMR11005020808149909160502000000000000000   10300001 00104100000000002551000000000000     
100   95030301100215990000000000045800000000045800002000000010410405020858425102844369000502844281542121   1030000900030000   723019001054190110000000857Beauty Diary JC        YANGONN       MMR11005020858425102840502000000000000000   10300001F00104100000000002748000000000000     
100   62911028202154800000000000041994000000041994002000000010410405020933445111814369000502353031644121   1030000900030000   541119001281190110000000963City Mart SPL C6       YANGONMYOTHIT MMR11005020933445111810502000000000000000   10300001F00104100000000002520000000000000     
100   62911028202487960000000001121100000001121100002000000010410405020548249891374369000502816181210121   1030000300030000   555510114637104519000012589Win Mobile                           MMR11005020548249891370502000000000000000   10300001 00104100000000067266000000000000     
100   95030315150842990000000000006800000000006800002000000010410405020951245116444369000502613211624121   1030000900030000   541119001113190110000000872Sein Gay Har Hledan    YANGONUT      MMR11005020951245116440502000000000000000   10300001F00104100000000000408000000000000     
100   62911028202093430000000000001960000000001960002000000010410405020623125312564369000502000007090666   1020000200030000   333400010001204104000000281Myanmar Soft-Gate Tech Yangon        MMR11005020623125312560502000000000000000   10300001F05104100000000000412000000000000     
100   62911028202318180000000000109500000000109500002000000010410405020848255100424369000502720181525121   1030000900030000   541119001074190110000000872Sein Gay Har Hledan    YANGONUT      MMR11005020848255100420502000000000000000   10300001F00104100000000006570000000000000     
100   62911028202169750000000000001050000000001050002000000010410405020912029917454369000502779451510121   1030000500030000   555610123194104519000019444Neighbourhood Shwe Moe Kaung         MMR11005020912029917450502000000000000000   10300001 00104100000000000063000000000000     
100   62911028202531350000000000076067000000076067002000000010410405020957040204724369000502000746399870   1030000200030000   541188001001000008000000008KBZ BANK               MARKETPLACE - MMR11005020957040204720502000000000000000   10300001 00104100000000004564000000000000     
100   95050316717221100000000000001960000000001960002000000010410405021135170517598448850502000007093237   1020000200030000   333400010001204104000000281Myanmar Soft-Gate Tech Yangon        MMR11005021135170517590502000000000000000   10300001F05104100000000000412000000000000     
100   62911028202509170000000000012000000000012000002000000010410405021334230091754369000502000746415339   1030000200030000   541188001002000008000000008KBZ BANK               MARKETPLACE - MMR11005021334230091750502000000000000000   10300001 00104100000000000720000000000000     
100   62911028202074950000000000022286000000022286002000000010410405020844560341274369000502000746393840   1030000200030000   541188001024000008000000298KBZ BANK               CITY MART - M MMR11005020844560341270502000000000000000   10300001 00104100000000001337000000000000     
100   62911028202212230000000000003300000000003300002000000010410405021617580143694369000502000746425523   1030000200030000   541188001073000008000000294KBZ BANK               CITY MART - J MMR11005021617580143690502000000000000000   10300001 00104100000000000198000000000000     
100   62911028202531350000000000001400000000001400002000000010410405020957540204734369000502000746399909   1030000200030000   541188001001000008000000008KBZ BANK               MARKETPLACE - MMR11005020957540204730502000000000000000   10300001 00104100000000000084000000000000     
100   62443100363992240000000000010000000000010000002000000010410405020833500350737186190502000007091885   1030000400030000   333800010001205104000004531Onepay                 Yangon        MMR11005020833500350730502000000000000000   10300001F05104100000000002100000000000000     
100   95050316530487400000000000100000000000100000002000000010410405021336280628394668960502000007093801   1030000200030000   333800010001203104000003327KBZPay                 Yangon        MMR11005021336280628390502000000000000000   10300001F05104100000000021000000000000000     
100   95050320205194540000000000055900000000055900002000000010410405021106115137425228980502967361711121   1030000900030000   591219000796190110000000628Shwe Ohh Pharmacy ST-3 YANGONMYOTHIT MMR11005021106115137420502000000000000000   10300001F00104100000000013416000000000000     
100   95050310456843760000000000014750000000014750002000000010410405021220355154899200930502109501835121   1030000900030000   541119000124190110000000080Sein Gay Har BAK       YANGONADA     MMR11005021220355154890502000000000000000   10300001F00104100000000003688000000000000     
100   95050319667137090000000000043500000000043500002000000010410405020957005117861462880502703271600121   1030000900030000   541119001280190110000000963City Mart SPL C 5      YANGONMYOTHIT MMR11005020957005117860502000000000000000   10300001F00104100000000010875000000000000     
100   62911028202487960000000000030000000000030000002000000010410405020549069891504369000502828181258121   1030000300030000   555510114637104519000012589Win Mobile                           MMR11005020549069891500502000000000000000   10300001 00104100000000001800000000000000     
100   62911028202154800000000000008400000000008400002000000010410405020940285113574369000502445101628121   1030000900030000   541119001289190110000000964City Mart SPL Season C YANGONMYOTHIT MMR11005020940285113570502000000000000000   10300001F00104100000000000504000000000000     
100   95050319524870520000000000004900000000004900002000000010410405021425295529301108700502000007094034   1020000200030000   333400010001204104000000281Myanmar Soft-Gate Tech Yangon        MMR11005021425295529300502000000000000000   10300001F05104100000000001029000000000000     
100   62911028202223200000000000017700000000017700002000000010410405020434299883024369000502932091126121   1030000500030000   555610110576104519000009164City Mart China Town P int Cen       MMR11005020434299883020502000000000000000   10300001 00104100000000001062000000000000     
100   95030317922148660000000000097600000000097600002000000010410405020931059919564369000502044001634121   1030000300030000   555510122151104519000018538Bay Dar N Co Limited                 MMR11005020931059919560502000000000000000   10300001 00104100000000005856000000000000     
100   62911028202125030000000000033130000000033130002000000010410405021532180176934369000502000746423076   1030000200030000   541188001082000008000000294KBZ BANK               CITY MART - J MMR11005021532180176930502000000000000000   10300001 00104100000000001988000000000000     
100   95050313123223200000000000000980000000000980002000000010410405020532330233521633700502000007090144   1020000200030000   333400010001204104000000281Myanmar Soft-Gate Tech Yangon        MMR11005020532330233520502000000000000000   10300001F05104100000000000206000000000000     
100   95050313062063490000000000002940000000002940002000000010410405021342101210069711510502000007093828   1020000200030000   333400010001204104000000281Myanmar Soft-Gate Tech Yangon        MMR11005021342101210060502000000000000000   10300001F05104100000000000617000000000000     
100   95050327531396450000000000060000000000060000002000000010410405020835470547070576260502000007091905   1030000200030000   333800010001203104000003327KBZPay                 Yangon        MMR11005020835470547070502000000000000000   10300001F05104100000000012600000000000000     
100   62443101000669310000000000083600000000083600002000000010410405020737080708753003320502000007091403   1030000200030000   333300010001203104000003632Myanmar Tradenet Test  Yangon        MMR11005020737080708750502000000000000000   10300001F05104100000000010000000000000000     
100   95050313710136610000000000002940000000002940002000000010410405020034320432000703350502000007087046   1020000200030000   333400010001204104000000281Myanmar Soft-Gate Tech Yangon        MMR11005020034320432000502000000000000000   10300001F05104100000000000617000000000000     
100   95030301100183220000000000045791000000045791002000000010410405020021581181124369000502212207118112   1040001600030000   598320000313000000010000301PT Power Petrol Statio Yangon        MMR11005020021581181120502000000000000000   10300001F00104100000000001374000000000000     
100   62443100379116470000000000007750000000007750002000000010410405021710360161217768080502000746428249   1030000200030000   541188001020000008000000298KBZ BANK               CITY MART - M MMR11005021710360161210502000000000000000   10300001 00104100000000001938000000000000     
100   62911028202175770000000000114850000000114850002000000010410405020840589913244369000502296111524121   1030000300030000   555510124366104519000020166Makro Myanmar                        MMR11005020840589913240502000000000000000   10300001 00104100000000006891000000000000     
100   62443101006037900000000000050000000000050000002000000010410405010731490016134339780501212114001613   1030000500030000   598320001301000015172200013MAX ENERGY             PTN           MMR11005010731490016130501000000000000000   10300001 00104100000000006000000000000000     
100   62911028202677880000000000312883000000312883002000000010410405021030419928174369000502048031711121   1030000500030000   555610118967104519000016137City Mart South Okkala WZYD BR       MMR11005021030419928170502000000000000000   10300001 00104100000000018773000000000000     
100   95050320531117320000000000055000000000055000002000000010410405010843300010842588410501212115001084   1030000500030000   598320002701000015172200027MAX ENERGY             PTN           MMR11005010843300010840501000000000000000   10300001 00104100000000006600000000000000     
100   62911028202471600000000000003100000000003100002000000010410405020950569922504369000502396221654121   1030000500030000   555610117864104519000009164City Mart China Town P int Cen       MMR11005020950569922500502000000000000000   10300001 00104100000000000186000000000000     
100   95030348493377970000000000039600000000039600002000000010410405021159089940664369000502519281838121   1030000300030000   444410123677104519000019693Cafe Salween                         MMR11005021159089940660502000000000000000   10300001 00104100000000004039000000000000     
100   95030302100067550000000000050000000000050000002000000010410404290158130009924369000429211901000992   1030000600030000   806200002190315799420001535ASIA ROYAL HOSPITAL    YANGON        MMR11004290158130009920429000000000000000   10300001 00104100000000003000000000000000     
100   62911028202910850000000000008150000000008150002000000010410405021218329943514369000502876481826121   1030000500030000   555610120986104519000017749City Express MCS 68                  MMR11005021218329943510502000000000000000   10300001 00104100000000000489000000000000     
100   95050327185992630000000000035343000000035343002000000010410405021655440177109250370502000746427555   1030000200030000   541188001082000008000000294KBZ BANK               CITY MART - J MMR11005021655440177100502000000000000000   10300001 00104100000000008836000000000000     
100   95050311619387960000000000060000000000060000002000000010410405020254242424879149760502000007087731   1030000200030000   333800010001203104000003327KBZPay                 Yangon        MMR11005020254242424870502000000000000000   10300001F05104100000000012600000000000000     
100   62911028202235910000000000058600000000058600002000000010410405020453411295334369000502212211129533   1040001600030000   591220000262000000010000250Shwe Ohh Pharmacy (SC- Yangon        MMR11005020453411295330502000000000000000   10300001F00104100000000003516000000000000     
100   95050325305150830000000000000980000000000980002000000010410405020230490049569986930502000007087520   1020000200030000   333400010001204104000000281Myanmar Soft-Gate Tech Yangon        MMR11005020230490049560502000000000000000   10300001F05104100000000000206000000000000     
100   62911028202174450000000000027815000000027815002000000010410405021836270223834369000502000746431986   1030000200030000   541188001003000008000000008KBZ BANK               MARKETPLACE - MMR11005021836270223830502000000000000000   10300001 00104100000000001669000000000000     
100   62911028202074950000000000004000000000004000002000000010410405020846160044654369000502000746393859   1030000200030000   541188001031000008000000298KBZ BANK               CITY MART - M MMR11005020846160044650502000000000000000   10300001 00104100000000000240000000000000     
100   95050312926040930000000000002940000000002940002000000010410405021341521152064754060502000007093827   1020000200030000   333400010001204104000000281Myanmar Soft-Gate Tech Yangon        MMR11005021341521152060502000000000000000   10300001F05104100000000000617000000000000     
100   62443100306882420000000000200000000000200000002000000010410405020236480648738164260502000007087557   1030000200030000   333800010001203104000003327KBZPay                 Yangon        MMR11005020236480648730502000000000000000   10300001F05104100000000042000000000000000     
100   95050324154190880000000000150000000000150000002000000010410405020440009883032676720502934091132121   1030000300030000   555510124692104519000020166Makro Myanmar                        MMR11005020440009883030502000000000000000   10300001 00104100000000036000000000000000     
100   62443101021477390000000000074400000000074400002000000010410405010934240000550304590501212116000055   1030000500030000   569120163001019505691201630MK FASHION SHOP        PTN           MMR11005010934240000550501000000000000000   10300001 00104100000000017856000000000000     
100   95050317043153610000000000041650000000041650002000000010410405010943440007800389690501000342952327   1030000300030000   531100000609000000000000408CB BANK                CAPITAL HYPER MMR11005010943440007800501000000000000000   10300001F00104100000000009996000000000000     
100   62911028202170490000000000003800000000003800002000000010410405020814579909854369000502896441439121   1030000500030000   555610112532104519000010487Ocean Super Center St  ohn           MMR11005020814579909850502000000000000000   10300001 00104100000000000228000000000000     
100   62911028202162640000000000010000000000010000002000000010410404290151010360994369000429211901036099   1030000600030000   554100001003315799420000497DENKO KONE TA LA PAUNG YANGON        MMR11004290151010360990429000000000000000   10300001 00104100000000000300000000000000     
100   62911028202471600000000000016000000000016000002000000010410405020950109922264369000502358211643121   1030000500030000   555610117864104519000009164City Mart China Town P int Cen       MMR11005020950109922260502000000000000000   10300001 00104100000000000960000000000000     
100   62911028202225440000000000001000000000001000002000000010410405020948509922044369000502326201607121   1030000500030000   555610117864104519000009164City Mart China Town P int Cen       MMR11005020948509922040502000000000000000   10300001 00104100000000000060000000000000     
100   95050324250133010000000000055900000000055900002000000010410405021151159939682080420502404211827121   1030000300030000   555610125778104519000021591One Stop Kitchen Super arket         MMR11005021151159939680502000000000000000   10300001 00104100000000013975000000000000     
100   95050311780044340000000000009800000000009800002000000010410405020158442844061675070502000007087339   1020000200030000   333400010001204104000000281Myanmar Soft-Gate Tech Yangon        MMR11005020158442844060502000000000000000   10300001F05104100000000002058000000000000     
100   95050319938772870000000000000980000000000980002000000010410405021416284628607803730502000007093986   1020000200030000   333400010001204104000000281Myanmar Soft-Gate Tech Yangon        MMR11005021416284628600502000000000000000   10300001F05104100000000000206000000000000     
100   95050319532433550000000000010000000000010000002000000010410405021316294629321278890502000007093681   1030000200030000   333800010001203104000003327KBZPay                 Yangon        MMR11005021316294629320502000000000000000   10300001F05104100000000002100000000000000     
100   95050316785465380000000000001960000000001960002000000010410405021358032803581023600502000007093902   1020000200030000   333400010001204104000000281Myanmar Soft-Gate Tech Yangon        MMR11005021358032803580502000000000000000   10300001F05104100000000000412000000000000     
100   95050319709462380000000000006000000000006000002000000010410405020300083008530371040502000007087753   1030000200030000   3338000100012031040000040022C2P (Myanmar) Co. Ltd Yangon        MMR11005020300083008530502000000000000000   10300001F05104100000000001260000000000000     
100   62911028202026290000000000100000000000100000002000000010410405020501513151004369000502000007089785   1030000200030000   333800010001203104000003327KBZPay                 Yangon        MMR11005020501513151000502000000000000000   10300001F05104100000000021000000000000000     
100   62443101071845130000000000040000000000040000002000000010410405021103163316545143880502000007093095   1030000300030000   333300010001206104000002147DICA Company Limited   Yangon        MMR11005021103163316540502000000000000000   10300001F05104100000000010000000000000000     
100   95030301100119390000000000110000000000110000002000000010410405020817304730584369000502000007091762   1030000200030000   333800010001203104000003327KBZPay                 Yangon        MMR11005020817304730580502000000000000000   10300001F05104100000000023100000000000000     
100   95030367537085740000000000000980000000000980002000000010410405020227295729904369000502000007087494   1020000200030000   333400010001204104000000281Myanmar Soft-Gate Tech Yangon        MMR11005020227295729900502000000000000000   10300001F05104100000000000206000000000000     
100   62911028202109450000000000042450000000042450002000000010410405021242019946884369000502279161931121   1030000500030000   555610112238104519000010487Ocean Super Center St  ohn           MMR11005021242019946880502000000000000000   10300001 00104100000000002547000000000000     
100   95030367537085740000000000000980000000000980002000000010410405021006003600034369000502000007092744   1020000200030000   333400010001204104000000281Myanmar Soft-Gate Tech Yangon        MMR11005021006003600030502000000000000000   10300001F05104100000000000206000000000000     
100   95050311382087030000000000004900000000004900002000000010410405021438500850752846280502000007094098   1020000200030000   333400010001204104000000281Myanmar Soft-Gate Tech Yangon        MMR11005021438500850750502000000000000000   10300001F05104100000000001029000000000000     
100   62911028202721270000000000012000000000012000002000000010410405021401353135164369000502000007093923   1030000200030000   333800010001203104000003327KBZPay                 Yangon        MMR11005021401353135160502000000000000000   10300001F05104100000000002520000000000000     
100   95030301100341540000000000040000000000040000002000000010410405020519544954944369000502000007090028   1030000200030000   333800010001203104000003327KBZPay                 Yangon        MMR11005020519544954940502000000000000000   10300001F05104100000000008400000000000000     
100   95050322295410690000000000018840000000018840002000000010410405020628099897086002700502475581226121   1030000500030000   555610118958104519000016137City Mart South Okkala WZYD BR       MMR11005020628099897080502000000000000000   10300001 00104100000000004710000000000000     
100   95050327192897240000000000027500000000027500002000000010410405021144235146627037870502555141823121   1030000900030000   541119001220190110000000945City Mart TM C 5       YANGONONE     MMR11005021144235146620502000000000000000   10300001F00104100000000006875000000000000     
100   95050314064416890000000000002940000000002940002000000010410405021520555055991704380502000007094262   1020000200030000   333400010001204104000000281Myanmar Soft-Gate Tech Yangon        MMR11005021520555055990502000000000000000   10300001F05104100000000000617000000000000     
100   62911028202243420000000000052000000000052000002000000010410405020409171272914369000502212211127291   1040001600030000   591220000288000000010000276Shwe Ohh Pharmacy (Nor Yangon        MMR11005020409171272910502000000000000000   10300001F00104100000000003120000000000000     
100   62911028202684060000000000057000000000057000002000000010410405020522331311124369000502212212131112   1040001600030000   598320001170000000010000527Shwe Taung Energy (YGN Yangon        MMR11005020522331311120502000000000000000   10300001F00104100000000001710000000000000     
100   95030301100183220000000000200000000000200000002000000010410405021143561356554369000502000007093307   1030000500030000   333800010001201104000003863AYA Pay                Yangon        MMR11005021143561356550502000000000000000   10300001F05104100000000042000000000000000     
100   62911028202142100000000000014000000000014000002000000010410405020743131313334369000502000007091469   1030000400030000   333800010001205104000004531Onepay                 Yangon        MMR11005020743131313330502000000000000000   10300001F05104100000000002940000000000000     
100   95030301100346910000000000010000000000010000002000000010410405020645291529014369000502000007090896   1030000300030000   333300010001206104000002147DICA Company Limited   Yangon        MMR11005020645291529010502000000000000000   10300001F05104100000000010000000000000000     
100   95050324250133010000000000020000000000020000002000000010410405021050281506281498530502212217150628   1040001600030000   598320000911000000010000662MMTM - Tamwe           Ygn           MMR11005021050281506280502000000000000000   10300001F00104100000000002400000000000000     
100   95050314829126520000000000000980000000000980002000000010410405021255322532275725770502000007093600   1020000200030000   333400010001204104000000281Myanmar Soft-Gate Tech Yangon        MMR11005021255322532270502000000000000000   10300001F05104100000000000206000000000000     
100   62911028202446540000000000027900000000027900002000000010410405020646429899484369000502735161350121   1030000300030000   444410120049104519000017043YKKO St John                         MMR11005020646429899480502000000000000000   10300001 00104100000000002846000000000000     
100   62911028202233510000000000021949000000021949002000000010410405021027539928124369000502043021756121   1030000500030000   555610112244104519000010487Ocean Super Center St  ohn           MMR11005021027539928120502000000000000000   10300001 00104100000000001317000000000000     
100   95030307100064460000000000050000000000050000002000000010410405010229340012814369000501212108001281   1030000500030000   598320002001000015172200020MAX ENERGY             PTN           MMR11005010229340012810501000000000000000   10300001 00104100000000001500000000000000     
100   62911028202527490000000000028581000000028581002000000010410405010622310013734369000501212112001373   1030000500030000   598320001001000015172200010MAX ENERGY             PTN           MMR11005010622310013730501000000000000000   10300001 00104100000000000857000000000000     
100   95050324411430900000000000103750000000103750002000000010410405020559452945356477620502000007090416   1010000100030000   333500010001212104000002543Internal Revenue Depar Yangon        MMR11005020559452945350502000000000000000   10300001F05104100000000060000000000000000     
100   62911028202154800000000000047000000000047000002000000010410404290731390361354369000429211907036135   1030000600030000   554100001003315799420000497DENKO KONE TA LA PAUNG YANGON        MMR11004290731390361350429000000000000000   10300001 00104100000000001410000000000000     
100   95050325455962190000000000001960000000001960002000000010410405021048191819094718400502000007093012   1020000200030000   333400010001204104000000281Myanmar Soft-Gate Tech Yangon        MMR11005021048191819090502000000000000000   10300001F05104100000000000412000000000000     
100   62911028202778600000000000340000000000340000002000000010410404290151000098414369000429211901009841   1030000600030000   554100001237315799420000691DENKO AUNG PAN         KALAW.        MMR11004290151000098410429000000000000000   10300001 00104100000000010200000000000000     
100   95050321232876860000000000069000000000069000002000000010410404290340100107979384680429211903010797   1030000600030000   554100002328315799420001235DENKO NAY PYI TAW 2    NAYPYITAW     MMR11004290340100107970429000000000000000   10300001 00104100000000008280000000000000     
100   62911028202495390000000000020000000000020000002000000010410404291002340137824369000429211910013782   1030000600030000   554100002085315799420000471DENKO BAHAN            YANGON        MMR11004291002340137820429000000000000000   10300001 00104100000000000600000000000000     
100   62911028202393160000000000030000000000030000002000000010410404291005260095244369000429211910009524   1030000600030000   554100001218315799420000670DENKO MAWLAMYAING      MON STATE.    MMR11004291005260095240429000000000000000   10300001 00104100000000000900000000000000     
100   62911028202335820000000000079000000000079000002000000010410404291128260051974369000429211911005197   1030000600030000   554100000744315799420000322DENKO AMARAPURA-PACHI  MANDALAY      MMR11004291128260051970429000000000000000   10300001 00104100000000002370000000000000     
100   62911028202023630000000000070000000000070000002000000010410404291039400125904369000429211910012590   1030000600030000   554100002329315799420000304DENKO MDY - 62         MANDALAY      MMR11004291039400125900429000000000000000   10300001 00104100000000002100000000000000     
100   95050324411430900000000000031000000000031000002000000010410404290249290820106455760429211902082010   1030000600030000   554100000946315799420000471DENKO BAHAN            YANGON        MMR11004290249290820100429000000000000000   10300001 00104100000000003720000000000000     
100   62911028202687780000000000042000000000042000002000000010410404290450200820444369000429211904082044   1030000600030000   554100000946315799420000471DENKO BAHAN            YANGON        MMR11004290450200820440429000000000000000   10300001 00104100000000001260000000000000     
100   95030359363082940000000000012000000000012000002000000010410405021401323132364369000502000007093925   1030000200030000   333800010001203104000003327KBZPay                 Yangon        MMR11005021401323132360502000000000000000   10300001F05104100000000002520000000000000     
100   62911028202026290000000000005000000000005000002000000010410405020504473447784369000502000007089816   1030000200030000   333800010001203104000003327KBZPay                 Yangon        MMR11005020504473447780502000000000000000   10300001F05104100000000001050000000000000     
100   62911028202026290000000000001000000000001000002000000010410405020510364036984369000502000007089894   1030000200030000   333800010001203104000003327KBZPay                 Yangon        MMR11005020510364036980502000000000000000   10300001F05104100000000000210000000000000     
100   95050319468370810000000000005000000000005000002000000010410405021311154115634583860502000007093659   1030000900030000   333400010001202104000002022ACS                    Yangon        MMR11005021311154115630502000000000000000   10300001F05104100000000001050000000000000     
100   95050319938772870000000000000980000000000980002000000010410405021313114311719541310502000007093669   1020000200030000   333400010001204104000000281Myanmar Soft-Gate Tech Yangon        MMR11005021313114311710502000000000000000   10300001F05104100000000000206000000000000     
100   95050312940629360000000000000980000000000980002000000010410405021249231923653988180502000007093579   1020000200030000   333400010001204104000000281Myanmar Soft-Gate Tech Yangon        MMR11005021249231923650502000000000000000   10300001F05104100000000000206000000000000     
100   95050319928585020000000000002940000000002940002000000010410405020454062406590101960502000007089657   1020000200030000   333400010001204104000000281Myanmar Soft-Gate Tech Yangon        MMR11005020454062406590502000000000000000   10300001F05104100000000000617000000000000     
100   95050319928585020000000000001960000000001960002000000010410405020458092809340272160502000007089709   1020000200030000   333400010001204104000000281Myanmar Soft-Gate Tech Yangon        MMR11005020458092809340502000000000000000   10300001F05104100000000000412000000000000     
100   95050319789172490000000000040000000000040000002000000010410404291257530474820710570429211912047482   1030000600030000   554100001756315799420001137DENKO NORTH DAGON 2    YANGON        MMR11004291257530474820429000000000000000   10300001 00104100000000004800000000000000     
100   62911028202752520000000000058000000000058000002000000010410404290352140820334369000429211903082033   1030000600030000   554100000946315799420000471DENKO BAHAN            YANGON        MMR11004290352140820330429000000000000000   10300001 00104100000000001740000000000000     
100   62911028202778600000000000050000000000050000002000000010410404281435360031134369000428211814003113   1030000600030000   554100001238315799420000692DENKO  SHWE NYAUNG     SHWE NYAUNG   MMR11004281435360031130428000000000000000   10300001 00104100000000001500000000000000     
100   95050321287849350000000000001700000000001700002000000010410404281207030021578180540428211812002157   1030000600030000   549900002143315799420001492EASY MART 024          YANGON        MMR11004281207030021570428000000000000000   10300001 00104100000000000723000000000000     
100   95050323049250880000000000091800000000091800002000000010410405010743320004971034810501212114000497   1030000500030000   569120096201019505691200962MK FASHION SHOP        PTN           MMR11005010743320004970501000000000000000   10300001 00104100000000022032000000000000     
100   95030301100344930000000000029500000000029500002000000010410405011109080005284369000501212117000528   1030000500030000   481220022001000024812200220ANYCALL MOBILE         PTN           MMR11005011109080005280501000000000000000   10300001 00104100000000001770000000000000     
100   62443100318296470000000000060000000000060000002000000010410405010701440013447304360501212113001344   1030000500030000   598320001303000015172200013MAX ENERGY             PTN           MMR11005010701440013440501000000000000000   10300001 00104100000000007200000000000000     
100   95030303100037510000000000050000000000050000002000000010410405011117250012124369000501212117001212   1030000500030000   598320001203000015172200012MAX ENERGY             PTN           MMR11005011117250012120501000000000000000   10300001 00104100000000001500000000000000     
100   95030363502824520000000000005000000000005000002000000010410405011705363536384369000502000007086668   1030000200030000   333800010001203104000003327KBZPay                 Yangon        MMR11005011705363536380502000000000000000   10300001F05104100000000001050000000000000     
100   95050325593833300000000000038380000000038380002000000010410405020746155085120840250502930161415121   1030000900030000   541119001075190110000000872Sein Gay Har Hledan    YANGONUT      MMR11005020746155085120502000000000000000   10300001F00104100000000009595000000000000     
100   95050327416134790000000000022000000000022000002000000010410405020848371837402739320502000007092034   1030000200030000   3333000100012031040000040282C2P (Myanmar) Co. Ltd Yangon        MMR11005020848371837400502000000000000000   10300001F05104100000000010000000000000000     
100   95030367537085740000000000000980000000000980002000000010410405021455572557764369000502000007094167   1020000200030000   333400010001204104000000281Myanmar Soft-Gate Tech Yangon        MMR11005021455572557760502000000000000000   10300001F05104100000000000206000000000000     
100   62443101000669310000000000083600000000083600002000000010410405020810564056992067260502000007091685   1030000200030000   333300010001203104000003632Myanmar Tradenet Test  Yangon        MMR11005020810564056990502000000000000000   10300001F05104100000000010000000000000000     
100   95050310332595380000000000004900000000004900002000000010410405021109153915143491400502000007093133   1020000200030000   333400010001204104000000281Myanmar Soft-Gate Tech Yangon        MMR11005021109153915140502000000000000000   10300001F05104100000000001029000000000000     
100   95050311419479170000000000000980000000000980002000000010410405020709173917849223420502000007091132   1020000200030000   333400010001204104000000281Myanmar Soft-Gate Tech Yangon        MMR11005020709173917840502000000000000000   10300001F05104100000000000206000000000000     
100   95050315259054570000000000001960000000001960002000000010410405021314574457782931380502000007093677   1020000200030000   333400010001204104000000281Myanmar Soft-Gate Tech Yangon        MMR11005021314574457780502000000000000000   10300001F05104100000000000412000000000000     
100   62911028202185590000000000009450000000009450002000000010410405011158390002744369000501212118000274   1030000500030000   541120024603022205411200246ORANGE (THANLYIN)      PTN           MMR11005011158390002740501000000000000000   10300001 00104100000000000567000000000000     
100   95050328074436620000000000058000000000058000002000000010410405010255540011177573440501212109001117   1030000500030000   598320001203000015172200012MAX ENERGY             PTN           MMR11005010255540011170501000000000000000   10300001 00104100000000006960000000000000     
100   95050323049250880000000000022200000000022200002000000010410405010746420004994424870501212114000499   1030000500030000   569120096201019505691200962MK FASHION SHOP        PTN           MMR11005010746420004990501000000000000000   10300001 00104100000000005328000000000000     
100   62443100360763680000000000210150000000210150002000000010410405010333070000916247550501212110000091   1030000500030000   591220013401014405912200134SHWE OHH PHARMACY      PTN           MMR11005010333070000910501000000000000000   10300001 00104100000000050436000000000000     
100   62911028202223200000000000005700000000005700002000000010410405011147210000814369000501212118000081   1030000500030000   591220211101014405912202111SHWE OHH PHARMACY      PTN           MMR11005011147210000810501000000000000000   10300001 00104100000000000342000000000000     
100   95030326160984770000000000010000000000010000002000000010410405010407450001274369000501212110000127   1030000500030000   598320002101000015172200021MAX ENERGY             PTN           MMR11005010407450001270501000000000000000   10300001 00104100000000000300000000000000     
100   62911028202240290000000000020200000000020200002000000010410405010237170000574369000501212109000057   1030000500030000   569120087101006305691200871DYNAMIC PINLON (2)     PTN           MMR11005010237170000570501000000000000000   10300001 00104100000000001212000000000000     
100   62911028202318180000000000019450000000019450002000000010410405011251160002154369000501212119000215   1030000500030000   541120065701000015411200657SHOP & SHOP CONVENIENC PTN           MMR11005011251160002150501000000000000000   10300001 00104100000000001167000000000000     
100   95050325305150830000000000000980000000000980002000000010410405020918474847838973220502000007092338   1020000200030000   333400010001204104000000281Myanmar Soft-Gate Tech Yangon        MMR11005020918474847830502000000000000000   10300001F05104100000000000206000000000000     
100   62911028202666400000000000060000000000060000002000000010410405021245061506664369000502000007093563   1030000200030000   333800010001203104000003327KBZPay                 Yangon        MMR11005021245061506660502000000000000000   10300001F05104100000000012600000000000000     
100   95050327684850900000000001000000000001000000002000000010410405021256202620409030740502000007093604   1030000400030000   333800010001205104000004531Onepay                 Yangon        MMR11005021256202620400502000000000000000   10300001F05104100000000210000000000000000     
100   95050315889680120000000000010100000000010100002000000010410405021001013101252058550502000007092720   1030000200030000   333800010001203104000003327KBZPay                 Yangon        MMR11005021001013101250502000000000000000   10300001F05104100000000002121000000000000     
100   95050315398070120000000000300000000000300000002000000010410405020952442244277647330502000007092644   1030000200030000   333800010001203104000003327KBZPay                 Yangon        MMR11005020952442244270502000000000000000   10300001F05104100000000063000000000000000     
100   95050317728825080000000000004900000000004900002000000010410405020304493449675158300502000007087884   1020000200030000   333400010001204104000000281Myanmar Soft-Gate Tech Yangon        MMR11005020304493449670502000000000000000   10300001F05104100000000001029000000000000     
100   95050312171561790000000000050000000000050000002000000010410405020308173817196044920502000007087954   1030000200030000   333800010001203104000003327KBZPay                 Yangon        MMR11005020308173817190502000000000000000   10300001F05104100000000010500000000000000     
100   95030313499565480000000000051400000000051400002000000010410405020253222322974369000502000007087720   1030000200030000   333800010001203104000003327KBZPay                 Yangon        MMR11005020253222322970502000000000000000   10300001F05104100000000010794000000000000     
100   95030301100118480000000000013412000000013412002000000010410405011056340011394369000501000342962139   1030000300030000   591200000188000000000000093CB BANK                MEDICARE STOR MMR11005011056340011390501000000000000000   10300001F00104100000000000805000000000000     
100   62911028202594880000000000011000000000011000002000000010410405010947150000764369000501212116000076   1030000500030000   591220011701014405912200117SHWE OHH PHARMACY      PTN           MMR11005010947150000760501000000000000000   10300001 00104100000000000660000000000000     
100   62443100318296470000000000060000000000060000002000000010410405010942180013783694660501212116001378   1030000500030000   598320001303000015172200013MAX ENERGY             PTN           MMR11005010942180013780501000000000000000   10300001 00104100000000007200000000000000     
100   95030358707166270000000000007800000000007800002000000010410405010421130002024369000501212110000202   1030000500030000   531120155701000045311201557GAMONE PWINT           PTN           MMR11005010421130002020501000000000000000   10300001 00104100000000000468000000000000     
100   62443100378093870000000000063000000000063000002000000010410405010727310011680439140501212113001168   1030000500030000   598320001203000015172200012MAX ENERGY             PTN           MMR11005010727310011680501000000000000000   10300001 00104100000000007560000000000000     
100   95030310098554020000000000388940000000388940002000000010410405010527010004214369000501212111000421   1030000500030000   806220009106024108062200091ARYU INTL HOSPITAL     PTN           MMR11005010527010004210501000000000000000   10300001 00104100000000023336000000000000     
100   62911028202616250000000000483360000000483360002000000010410405010903540004224369000501212115000422   1030000500030000   569120058001019505691200580MK FASHION SHOP        PTN           MMR11005010903540004220501000000000000000   10300001 00104100000000029002000000000000     
100   95050311587250810000000000013600000000013600002000000010410405011044240011620909200501000342960514   1030000300030000   531100000598000000000000408CB BANK                CAPITAL HYPER MMR11005011044240011620501000000000000000   10300001F00104100000000003264000000000000     
100   95050316997303010000000000000980000000000980002000000010410405021356452645768059020502000007093893   1020000200030000   333400010001204104000000281Myanmar Soft-Gate Tech Yangon        MMR11005021356452645760502000000000000000   10300001F05104100000000000206000000000000     
100   95050312224678430000000000001960000000001960002000000010410405021406303630774413670502000007093951   1020000200030000   333400010001204104000000281Myanmar Soft-Gate Tech Yangon        MMR11005021406303630770502000000000000000   10300001F05104100000000000412000000000000     
100   95050319938772870000000000001960000000001960002000000010410405021414064406589456220502000007093973   1020000200030000   333400010001204104000000281Myanmar Soft-Gate Tech Yangon        MMR11005021414064406580502000000000000000   10300001F05104100000000000412000000000000     
100   95050314557307430000000000000980000000000980002000000010410405021049481948846370880502000007093025   1020000200030000   333400010001204104000000281Myanmar Soft-Gate Tech Yangon        MMR11005021049481948840502000000000000000   10300001F05104100000000000206000000000000     
100   95050312498129060000000000032340000000032340002000000010410405021156002600166782580502000007093355   1020000200030000   333400010001204104000000281Myanmar Soft-Gate Tech Yangon        MMR11005021156002600160502000000000000000   10300001F05104100000000006791000000000000     
100   95050310427855490000000000006860000000006860002000000010410405021404043404666066150502000007093937   1020000200030000   333400010001204104000000281Myanmar Soft-Gate Tech Yangon        MMR11005021404043404660502000000000000000   10300001F05104100000000001441000000000000     
100   62911028202000450000000000001960000000001960002000000010410405020309213921394369000502000007087973   1020000200030000   333400010001204104000000281Myanmar Soft-Gate Tech Yangon        MMR11005020309213921390502000000000000000   10300001F05104100000000000412000000000000     
100   95050319468370810000000000046200000000046200002000000010410405021255402540294073290502000007093605   1030000200030000   3333000100012031040000040282C2P (Myanmar) Co. Ltd Yangon        MMR11005021255402540290502000000000000000   10300001F05104100000000010000000000000000     
100   62911028202132040000000000044004000000044004002000000010410405010744180011274369000501212114001127   1030000500030000   598320001601000015172200016MAX ENERGY             PTN           MMR11005010744180011270501000000000000000   10300001 00104100000000001320000000000000     
100   95050315066440750000000000035600000000035600002000000010410405011127050001708831230501212117000170   1030000500030000   581220024401000015812200244SHWE LAR HOT POT       PTN           MMR11005011127050001700501000000000000000   10300001 00104100000000015130000000000000     
100   62911028202142850000000000049800000000049800002000000010410405010147340003694369000501212108000369   1030000500030000   541120020701022205411200207ORANGE (YDG)           PTN           MMR11005010147340003690501000000000000000   10300001 00104100000000002988000000000000     
100   95050325784857510000000000060000000000060000002000000010410405010326470003406417750501212109000340   1030000500030000   481220074501000014812200745TECHNOLAND (36TH ST)   PTN           MMR11005010326470003400501000000000000000   10300001 00104100000000014400000000000000     
100   62911028202533900000000000061500000000061500002000000010410405011102410001144369000501212117000114   1030000500030000   591220010401014405912200104SHWE OHH PHARMACY      PTN           MMR11005011102410001140501000000000000000   10300001 00104100000000003690000000000000     
100   62443101006037900000000000020000000000020000002000000010410405010732120016149382330501212114001614   1030000500030000   598320001301000015172200013MAX ENERGY             PTN           MMR11005010732120016140501000000000000000   10300001 00104100000000002400000000000000     
100   62911028202524260000000000058000000000058000002000000010410405011236220016144369000501212119001614   1030000500030000   598320001302000015172200013MAX ENERGY             PTN           MMR11005011236220016140501000000000000000   10300001 00104100000000001740000000000000     
100   62911028202136750000000000052000000000052000002000000010410405010438360024314369000501212111002431   1030000500030000   598320001903000015172200019MAX ENERGY             PTN           MMR11005010438360024310501000000000000000   10300001 00104100000000001560000000000000     
100   95050324855048920000000000900000000000900000002000000010410405021259242924987378250502000007093609   1030000400030000   333800010001205104000004531Onepay                 Yangon        MMR11005021259242924980502000000000000000   10300001F05104100000000189000000000000000     
100   95050314292165140000000000015000000000015000002000000010410405021101423142434633300502000007093085   1030000200030000   3338000100012031040000040022C2P (Myanmar) Co. Ltd Yangon        MMR11005021101423142430502000000000000000   10300001F05104100000000003150000000000000     
100   62911028202721270000000000001000000000001000002000000010410405021406463646664369000502000007093949   1030000200030000   333800010001203104000003327KBZPay                 Yangon        MMR11005021406463646660502000000000000000   10300001F05104100000000000210000000000000     
100   95050316997303010000000000001960000000001960002000000010410405020212024202908213700502000007087416   1020000200030000   333400010001204104000000281Myanmar Soft-Gate Tech Yangon        MMR11005020212024202900502000000000000000   10300001F05104100000000000412000000000000     
100   95050312224678430000000000002940000000002940002000000010410405020214264426578043500502000007087427   1020000200030000   333400010001204104000000281Myanmar Soft-Gate Tech Yangon        MMR11005020214264426570502000000000000000   10300001F05104100000000000617000000000000     
100   62911028202674810000000000004400000000004400002000000010410405020350015028304369000502698201001121   1030000900030000   541119001207190110000000948City Mart YK C 5       YANGONAUNG    MMR11005020350015028300502000000000000000   10300001F00104100000000000264000000000000     
100   95050316717221100000000000000980000000000980002000000010410405020514194419880563100502000007089951   1020000200030000   333400010001204104000000281Myanmar Soft-Gate Tech Yangon        MMR11005020514194419880502000000000000000   10300001F05104100000000000206000000000000     
100   95050316873917690000000000080000000000080000002000000010410405020711424142655322780502000007091162   1030000200030000   3338000100012031040000040022C2P (Myanmar) Co. Ltd Yangon        MMR11005020711424142650502000000000000000   10300001F05104100000000016800000000000000     
100   62911028202221220000000000010000000000010000002000000010410404302334340015164369000501212106001516   1030000500030000   598320001404000015172200014MAX ENERGY             PTN           MMR11004302334340015160501000000000000000   10300001 00104100000000000300000000000000     
100   95050318041680090000000000017350000000017350002000000010410405011129400040330483720501000342966749   1030000300030000   591200000229000000000000123CB BANK                MEDICARE STOR MMR11005011129400040330501000000000000000   10300001F00104100000000004164000000000000     
100   95050326198165350000000000025000000000025000002000000010410405010929420014104836570501212115001410   1030000500030000   598320001403000015172200014MAX ENERGY             PTN           MMR11005010929420014100501000000000000000   10300001 00104100000000003000000000000000     
100   62443100363668680000000000028000000000028000002000000010410405011238160014201625620501212119001420   1030000500030000   598320001303000015172200013MAX ENERGY             PTN           MMR11005011238160014200501000000000000000   10300001 00104100000000003360000000000000     
100   62911028202203320000000000124900000000124900002000000010410405010754140001614369000501212114000161   1030000500030000   531120201602000085311202016STJ BLAZON             PTN           MMR11005010754140001610501000000000000000   10300001 00104100000000007494000000000000     
100   95050311382087030000000000020000000000020000002000000010410405020845161516714647090502000007091992   1030000200030000   333800010001203104000003327KBZPay                 Yangon        MMR11005020845161516710502000000000000000   10300001F05104100000000004200000000000000     
100   95050312554086980000000000012600000000012600002000000010410405020627145066161045240502871571214121   1030000900030000   541119000120190110000000080Sein Gay Har BAK       YANGONADA     MMR11005020627145066160502000000000000000   10300001F00104100000000003150000000000000     
100   62911028202313470000000000072069000000072069002000000010410405021214360204844369000502000746409166   1030000200030000   541188001001000008000000008KBZ BANK               MARKETPLACE - MMR11005021214360204840502000000000000000   10300001 00104100000000004324000000000000     
100   62911028202026290000000000005000000000005000002000000010410405020508363836474369000502000007089878   1030000200030000   333800010001203104000003327KBZPay                 Yangon        MMR11005020508363836470502000000000000000   10300001F05104100000000001050000000000000     
100   95050326393773020000000000002940000000002940002000000010410405020316554655525789630502000007088081   1020000200030000   333400010001204104000000281Myanmar Soft-Gate Tech Yangon        MMR11005020316554655520502000000000000000   10300001F05104100000000000617000000000000     
100   95050327684850900000000000100000000000100000002000000010410405021444571457301193800502000007094128   1030000200030000   333800010001203104000003327KBZPay                 Yangon        MMR11005021444571457300502000000000000000   10300001F05104100000000021000000000000000     
100   62911028202045180000000000020000000000020000002000000010410405020150042004404369000502000007087293   1030000200030000   333800010001203104000003327KBZPay                 Yangon        MMR11005020150042004400502000000000000000   10300001F05104100000000004200000000000000     
100   95050312139901420000000000000605000000000605002000000010410405020403513351802888280502000007088955   1030000200030000   333800010001203104000003327KBZPay                 Yangon        MMR11005020403513351800502000000000000000   10300001F05104100000000000127000000000000     
100   95050318511918960000000000050500000000050500002000000010410405020204583458216547420502000007087369   1030000200030000   333800010001203104000003327KBZPay                 Yangon        MMR11005020204583458210502000000000000000   10300001F05104100000000010605000000000000     
100   95050314735271470000000000100000000000100000002000000010410405020113284328611760160502000007087143   1030000200030000   333800010001203104000003327KBZPay                 Yangon        MMR11005020113284328610502000000000000000   10300001F05104100000000021000000000000000     
100   95030301100315070000000000010000000000010000002000000010410405021515024502164369000502000007094238   1030000300030000   333300010001206104000002741Get All Myanmar Compan Yangon        MMR11005021515024502160502000000000000000   10300001F05104100000000010000000000000000     
100   95030301100126890000000000005950000000005950002000000010410405020659035074254369000502341291303121   1030000900030000   541119001514190110000001102Ocean MGDTM C-7        YANGONADON    MMR11005020659035074250502000000000000000   10300001F00104100000000000357000000000000     
100   62911028202130710000000000020000000000020000002000000010410405021153241559644369000502212218155964   1040001600030000   598320000659000000010000528Shwe Taung Energy (YGN Yangon        MMR11005021153241559640502000000000000000   10300001F00104100000000000600000000000000     
100   95050322295410690000000000020500000000020500002000000010410405011058040003942816980501212117000394   1030000500030000   531120156004000045311201560GAMONE PWINT           PTN           MMR11005011058040003940501000000000000000   10300001 00104100000000004920000000000000     
100   62911028202235910000000000041600000000041600002000000010410405021146190105444369000502000746407031   1030000200030000   541188001023000008000000298KBZ BANK               CITY MART - M MMR11005021146190105440502000000000000000   10300001 00104100000000002496000000000000     
100   62911028202026290000000000005000000000005000002000000010410405020503353335504369000502000007089806   1030000200030000   333800010001203104000003327KBZPay                 Yangon        MMR11005020503353335500502000000000000000   10300001F05104100000000001050000000000000     
100   95050322426452690000000000055000000000055000002000000010410404290610490109286782350429211906010928   1030000600030000   554100001217315799420000669DENKO PHAYAR GYI       BAGO          MMR11004290610490109280429000000000000000   10300001 00104100000000006600000000000000     
100   95030331359799240000000000005000000000005000002000000010410405020508593859024369000502000007089866   1030000200030000   3338000100012031040000040022C2P (Myanmar) Co. Ltd Yangon        MMR11005020508593859020502000000000000000   10300001F05104100000000001050000000000000     
100   95050329252108030000000000014700000000014700002000000010410405011324170008193022820501212119000819   1030000500030000   598320041901000055983200419MAX ENERGY             PTN           MMR11005011324170008190501000000000000000   10300001 00104100000000001764000000000000     
100   95030398701797940000000000020500000000020500002000000010410405020739391386034369000502212214138603   1040001600030000   541120000561000000010000465Ocean Shwe Gone Daing  Yangon        MMR11005020739391386030502000000000000000   10300001F00104100000000001230000000000000     
100   95050315701710960000000000100000000000100000002000000010410405020150302030028370100502000007087294   1030000200030000   333800010001203104000003327KBZPay                 Yangon        MMR11005020150302030020502000000000000000   10300001F05104100000000021000000000000000     
100   95050310409767690000000000100000000000100000002000000010410405021410454045677718640502000007093966   1030000200030000   333800010001203104000003327KBZPay                 Yangon        MMR11005021410454045670502000000000000000   10300001F05104100000000021000000000000000     
100   95050314950595330000000000002000000000002000002000000010410405020820365036798166610502000007091781   1030000200030000   3338000100012031040000040022C2P (Myanmar) Co. Ltd Yangon        MMR11005020820365036790502000000000000000   10300001F05104100000000000420000000000000     
100   62911028202112730000000000130000000000130000002000000010410405020724531379234369000502212214137923   1040001600030000   598320000659000000010000528Shwe Taung Energy (YGN Yangon        MMR11005020724531379230502000000000000000   10300001F00104100000000003900000000000000     
100   95050324154190880000000000014950000000014950002000000010410405021001411464247101100502212217146424   1040001600030000   591220000282000000010000270Shwe Ohh Pharmacy (Shw Yangon        MMR11005021001411464240502000000000000000   10300001F00104100000000003588000000000000     
100   62443101000669310000000000083600000000083600002000000010410405020804383438407620380502000007091652   1030000200030000   333300010001203104000003632Myanmar Tradenet Test  Yangon        MMR11005020804383438400502000000000000000   10300001F05104100000000010000000000000000     
100   95050319468370810000000000003000000000003000002000000010410405021313174317237888830502000007093667   1030000900030000   333400010001202104000002022ACS                    Yangon        MMR11005021313174317230502000000000000000   10300001F05104100000000000630000000000000     
100   62443101037081820000000000026900000000026900002000000010410405010630470000716538490501000342927488   1030000300030000   581200001141000000000000802CB BANK                LUMBINI TEA R MMR11005010630470000710501000000000000000   10300001F00104100000000011433000000000000     
100   95050310816569570000000000200000000000200000002000000010410405021200143014440087540502000007093376   1030000200030000   333800010001203104000003327KBZPay                 Yangon        MMR11005021200143014440502000000000000000   10300001F05104100000000042000000000000000     
100   95050322715181550000000000075000000000075000002000000010410404290651160180782596480429211906018078   1030000600030000   554100002319315799420000477DENKO INSEIN           YANGON        MMR11004290651160180780429000000000000000   10300001 00104100000000009000000000000000     
100   95050312498129060000000000009500000000009500002000000010410405020002503250909476350502000007086982   1030000200030000   3333000100012031040000040282C2P (Myanmar) Co. Ltd Yangon        MMR11005020002503250900502000000000000000   10300001F05104100000000010000000000000000     
100   95050322654733420000000000072000000000072000002000000010410405020601473147998215200502000007090434   1030000200030000   333800010001203104000003327KBZPay                 Yangon        MMR11005020601473147990502000000000000000   10300001F05104100000000015120000000000000     
100   62911028202401160000000000086101000000086101002000000010410405010941330005314369000501212116000531   1030000500030000   806220172406013008062201724GRAND HANTHA HOSPITAL  PTN           MMR11005010941330005310501000000000000000   10300001 00104100000000005166000000000000     
100   95050327531396450000000000009800000000009800002000000010410405021310424042956236340502000007093655   1020000200030000   333400010001204104000000281Myanmar Soft-Gate Tech Yangon        MMR11005021310424042950502000000000000000   10300001F05104100000000002058000000000000     
100   62911028202169750000000000027000000000027000002000000010410405020847315100214369000502705171531121   1030000900030000   554119001101190110000000213New Day Energy SOK     YANGONOKKALAP MMR11005020847315100210502000000000000000   10300001F00104100000000000810000000000000     
100   95050311382087030000000000028000000000028000002000000010410405021217054705665895960502000007093452   1030000200030000   3338000100012031040000040022C2P (Myanmar) Co. Ltd Yangon        MMR11005021217054705660502000000000000000   10300001F05104100000000005880000000000000     
100   62911028202142100000000000002500000000002500002000000010410405020217054705684369000502000007087452   1030000900030000   333400010001202104000002022ACS                    Yangon        MMR11005020217054705680502000000000000000   10300001F05104100000000000525000000000000     
100   95050316717221100000000000000980000000000980002000000010410405021419064906222761180502000007093999   1020000200030000   333400010001204104000000281Myanmar Soft-Gate Tech Yangon        MMR11005021419064906220502000000000000000   10300001F05104100000000000206000000000000     
100   95050324855048920000000000150000000000150000002000000010410405021248511851875640670502000007093575   1030000400030000   333800010001205104000004531Onepay                 Yangon        MMR11005021248511851870502000000000000000   10300001F05104100000000031500000000000000     
100   95050317084233280000000000001960000000001960002000000010410405020811104110943719740502000007091707   1020000200030000   333400010001204104000000281Myanmar Soft-Gate Tech Yangon        MMR11005020811104110940502000000000000000   10300001F05104100000000000412000000000000     
100   95050312728902740000000000055000000000055000002000000010410405021009273927788909980502000007092767   1030000200030000   333800010001203104000003327KBZPay                 Yangon        MMR11005021009273927780502000000000000000   10300001F05104100000000011550000000000000     
100   95050323667276610000000000039200000000039200002000000010410405020716414641269938990502000007091217   1020000200030000   333400010001204104000000281Myanmar Soft-Gate Tech Yangon        MMR11005020716414641260502000000000000000   10300001F05104100000000008232000000000000     
100   95050328074436620000000000027900000000027900002000000010410405021036381494226030500502212217149422   1040001600030000   591220000278000000010000266Shwe Ohh Pharmacy (Bah Yangon        MMR11005021036381494220502000000000000000   10300001F00104100000000006696000000000000     
100   95050315150726490000000000004900000000004900002000000010410405020932450245283760480502000007092454   1020000200030000   333400010001204104000000281Myanmar Soft-Gate Tech Yangon        MMR11005020932450245280502000000000000000   10300001F05104100000000001029000000000000     
100   95050311780044340000000000004900000000004900002000000010410405020200073007939937490502000007087347   1020000200030000   333400010001204104000000281Myanmar Soft-Gate Tech Yangon        MMR11005020200073007930502000000000000000   10300001F05104100000000001029000000000000     
100   62911028202026290000000000005000000000005000002000000010410405020505253525924369000502000007089835   1030000200030000   333800010001203104000003327KBZPay                 Yangon        MMR11005020505253525920502000000000000000   10300001F05104100000000001050000000000000     
100   95050319144542320000000000300000000000300000002000000010410405020705283528340620620502000007091090   1030000200030000   333800010001203104000003327KBZPay                 Yangon        MMR11005020705283528340502000000000000000   10300001F05104100000000063000000000000000     
100   95050318131043910000000000004900000000004900002000000010410405021122055205703661590502000007093187   1020000200030000   333400010001204104000000281Myanmar Soft-Gate Tech Yangon        MMR11005021122055205700502000000000000000   10300001F05104100000000001029000000000000     
100   95030301100120930000000000050000000000050000002000000010410405020230280028984369000502000007087511   1030000200030000   333800010001203104000003327KBZPay                 Yangon        MMR11005020230280028980502000000000000000   10300001F05104100000000010500000000000000     
100   95030305700676370000000000210000000000210000002000000010410404290205260135964369000429211902013596   1030000600030000   554100001754315799420001135DENKO KYITE HTO        MON STATE.    MMR11004290205260135960429000000000000000   10300001 00104100000000006300000000000000     
100   95050312498129060000000000004900000000004900002000000010410405021340271027146406540502000007093823   1020000200030000   333400010001204104000000281Myanmar Soft-Gate Tech Yangon        MMR11005021340271027140502000000000000000   10300001F05104100000000001029000000000000     
100   95030315150842990000000000033600000000033600002000000010410405020949345115944369000502593191634121   1030000900030000   541119001113190110000000872Sein Gay Har Hledan    YANGONUT      MMR11005020949345115940502000000000000000   10300001F00104100000000002016000000000000     
100   95050317248519320000000000020000000000020000002000000010410405021125405540008278660502000007093201   1030000200030000   3338000100012031040000040022C2P (Myanmar) Co. Ltd Yangon        MMR11005021125405540000502000000000000000   10300001F05104100000000004200000000000000     
100   95030301100124400000000000002800000000002800002000000010410405020229259871984369000502853000941121   1030000300030000   444410125270104519000021124SP Bakery North Dagon  apital        MMR11005020229259871980502000000000000000   10300001 00104100000000000286000000000000     
100   62443100313112320000000000087000000000087000002000000010410405020838205097934051420502585081520121   1030000900030000   554119000348190110000000215New Day Energy MYG     YANGONONE     MMR11005020838205097930502000000000000000   10300001F00104100000000010440000000000000     
100   62911028202233510000000000010000000000010000002000000010410405020936369920504369000502158071645121   1030000500030000   555610112248104519000010487Ocean Super Center St  ohn           MMR11005020936369920500502000000000000000   10300001 00104100000000000600000000000000     
100   62443100313529540000000000053000000000053000002000000010410405020754155086822833120502012241415121   1030000900030000   569119001496190110000001090Next Generation GCS JC YANGONN       MMR11005020754155086820502000000000000000   10300001F00104100000000012720000000000000     
100   62443100313529540000000000016000000000016000002000000010410405020808265090380414770502209381426121   1030000900030000   569119001496190110000001090Next Generation GCS JC YANGONN       MMR11005020808265090380502000000000000000   10300001F00104100000000003840000000000000     
100   95050317100052460000000000022200000000022200002000000010410405020423345334741691220502000007089285   1030000200030000   333800010001203104000003327KBZPay                 Yangon        MMR11005020423345334740502000000000000000   10300001F05104100000000004662000000000000     
100   62911028202506690000000000037100000000037100002000000010410404301122040002664369000430212017000266   1030000500030000   581220065001000015812200650GOLDEN DUCK (8 MILES)  PTN           MMR11004301122040002660430000000000000000   10300001 00104100000000003784000000000000     
100   62911028202169750000000000005000000000005000002000000010410404300621590004914369000430212012000491   1030000500030000   541120020801022205411200208ORANGE (TAMWE)         PTN           MMR11004300621590004910430000000000000000   10300001 00104100000000000300000000000000     
100   95030333478847140000000000020500000000020500002000000010410405021825030014894369000502000746431514   1030000200030000   541188001456000008000000391KBZ BANK               OCEAN SUPER C MMR11005021825030014890502000000000000000   10300001 00104100000000001230000000000000     
100   62911028202023630000000000032350000000032350002000000010410405021439060015994369000502000746419843   1030000200030000   541188001350000008000000395KBZ BANK               OCEAN SUPERMA MMR11005021439060015990502000000000000000   10300001 00104100000000001941000000000000     
100   62911028202709150000000000003850000000003850002000000010410405021049470004964369000502000746403164   1030000200030000   541188001445000008000000401KBZ BANK               OCEAN SUPERCE MMR11005021049470004960502000000000000000   10300001 00104100000000000231000000000000     
100   62911028202215530000000000017600000000017600002000000010410405021517240018454369000502000746422237   1030000200030000   541188001079000008000000294KBZ BANK               CITY MART - J MMR11005021517240018450502000000000000000   10300001 00104100000000001056000000000000     
100   62911028202142850000000000009402000000009402002000000010410405021451330068644369000502000746420758   1030000200030000   541188001062000008000000314KBZ BANK               MARKETPLACE - MMR11005021451330068640502000000000000000   10300001 00104100000000000564000000000000     
100   95050314557307430000000000004900000000004900002000000010410405020833220322135959200502000007091889   1020000200030000   333400010001204104000000281Myanmar Soft-Gate Tech Yangon        MMR11005020833220322130502000000000000000   10300001F05104100000000001029000000000000     
100   62911028202487960000000001121100000001121100002000000010410405020534189889624369000502625031259121   1030000300030000   555510114637104519000012589Win Mobile                           MMR11005020534189889620502000000000000000   10300001 00104100000000067266000000000000     
100   95030363083688740000000000028200000000028200002000000010410405021114025139124369000502069441702121   1030000900030000   541119001203190110000000948City Mart YK C 1       YANGONAUNG    MMR11005021114025139120502000000000000000   10300001F00104100000000001692000000000000     
100   95050320624349010000000000050000000000050000002000000010410405021221295155177548440502130511829121   1030000900030000   554119001101190110000000213New Day Energy SOK     YANGONOKKALAP MMR11005021221295155170502000000000000000   10300001F00104100000000006000000000000000     
100   62911028202463780000000000022750000000022750002000000010410405020848019913874369000502372171530121   1030000500030000   555610110576104519000009164City Mart China Town P int Cen       MMR11005020848019913870502000000000000000   10300001 00104100000000001365000000000000     
100   62911028202703370000000000017032000000017032002000000010410405021016565123164369000502029461656121   1030000900030000   541119001154190110000000930OCEAN HTY C 4          YANGONTHARYA  MMR11005021016565123160502000000000000000   10300001F00104100000000001022000000000000     
100   95050326689257240000000000095000000000095000002000000010410405021226415156897208050502271561841121   1030000900030000   541119001261190110000000958City Mart PLST C 4     YANGONMYOTHIT MMR11005021226415156890502000000000000000   10300001F00104100000000023750000000000000     
100   62911028202777790000000000004500000000004500002000000010410405020722305230594369000502000007091292   1030000200030000   333800010001203104000003327KBZPay                 Yangon        MMR11005020722305230590502000000000000000   10300001F05104100000000000945000000000000     
100   95050313732480420000000000003920000000003920002000000010410405021327135713016321440502000007093749   1020000200030000   333400010001204104000000281Myanmar Soft-Gate Tech Yangon        MMR11005021327135713010502000000000000000   10300001F05104100000000000823000000000000     
