100   95050322921717110000000000020000000000020000002000000010410405020123070008668795580502212207000866   1030000500030000   598320001603000015172200016MAX ENERGY             PTN           MMR11005020123070008660502000000000000000   10300001 00104100000000002400000000000000     
100   62443101053241940000000000070600000000070600002000000010410405020827260008300831550502212214000830   1030000500030000   531120156008000045311201560GAMONE PWINT           PTN           MMR11005020827260008300502000000000000000   10300001 00104100000000016944000000000000     
100   62911028202203320000000000074980000000074980002000000010410405020913160000364369000502212215000036   1030000500030000   569120090601000015691200906GIORDANO JUNCTION MAW  PTN           MMR11005020913160000360502000000000000000   10300001 00104100000000004499000000000000     
100   95030301100126890000000000007600000000007600002000000010410405020749200041214369000502000343112205   1030000300030000   571900000582000000000000397CB BANK                PRO 1 PLUS ST MMR11005020749200041210502000000000000000   10300001F00104100000000000456000000000000     
100   95050322426452690000000000051000000000051000002000000010410405020749540263405882800502212207026340   1030000600030000   554100001116315799420000574DENKO HLAE KUU         HLAE KUU      MMR11005020749540263400502000000000000000   10300001 00104100000000006120000000000000     
100   95050312539675540000000000003000000000003000002000000010410405020346520066503094120502212203006650   1030000600030000   554100002139315799420001488DENKO MDY-12           MANDALAY      MMR11005020346520066500502000000000000000   10300001 00104100000000000360000000000000     
100   62911028202027440000000000052379000000052379002000000010410405020302361244354369000502212210124435   1040001600030000   541120000557000000010000465Ocean Shwe Gone Daing  Yangon        MMR11005020302361244350502000000000000000   10300001F00104100000000003143000000000000     
100   62911028202163630000000000027000000000027000002000000010410405020543520478514369000502212205047851   1030000600030000   554100001756315799420001137DENKO NORTH DAGON 2    YANGON        MMR11005020543520478510502000000000000000   10300001 00104100000000000810000000000000     
100   62911028202684060000000000012500000000012500002000000010410405030349481909754369000503212310190975   1040001600030000   591220000258000000010000246Shwe Ohh Pharmacy (Sin Yangon        MMR11005030349481909750503000000000000000   10300001F00104100000000000750000000000000     
100   95050325139996190000000000093600000000093600002000000010410405030651162116015715330503000007098059   1030000200030000   333300010001203104000003632Myanmar Tradenet Test  Yangon        MMR11005030651162116010503000000000000000   10300001F05104100000000010000000000000000     
100   95030339867270590000000000008050000000008050002000000010410405031134072172824369000503212318217282   1040001600030000   591220000281000000010000269Shwe Ohh Pharmacy (San Yangon        MMR11005031134072172820503000000000000000   10300001F00104100000000000483000000000000     
100   95050313843656520000000000001960000000001960002000000010410405030856072607859418200503000007099277   1020000200030000   333400010001204104000000281Myanmar Soft-Gate Tech Yangon        MMR11005030856072607850503000000000000000   10300001F05104100000000000412000000000000     
100   95050312498129060000000000000980000000000980002000000010410405031202563256225696240503000007100422   1020000200030000   333400010001204104000000281Myanmar Soft-Gate Tech Yangon        MMR11005031202563256220503000000000000000   10300001F05104100000000000206000000000000     
100   95050328137327770000000000050000000000050000002000000010410405030305023502655972980503000007095609   1030000200030000   333800010001203104000003327KBZPay                 Yangon        MMR11005030305023502650503000000000000000   10300001F05104100000000010500000000000000     
100   62911028202708080000000000300000000000300000002000000010410405031038090809474369000503000007100037   1030000200030000   333800010001203104000003327KBZPay                 Yangon        MMR11005031038090809470503000000000000000   10300001F05104100000000063000000000000000     
100   95050315743141220000000000000980000000000980002000000010410405030351242124698597180503000007096281   1020000200030000   333400010001204104000000281Myanmar Soft-Gate Tech Yangon        MMR11005030351242124690503000000000000000   10300001F05104100000000000206000000000000     
100   62911028202491410000000000031500000000031500002000000010410405020402170043964369000502212204004396   1030000600030000   809900000542315799420000147GRAND HANTHA HOSPITAL  YANGON        MMR11005020402170043960502000000000000000   10300001 00104100000000001890000000000000     
100   62911028202393160000000000030000000000030000002000000010410405020833560096134369000502212208009613   1030000600030000   554100001218315799420000670DENKO MAWLAMYAING      MON STATE.    MMR11005020833560096130502000000000000000   10300001 00104100000000000900000000000000     
100   95050321232876860000000000069000000000069000002000000010410405020621290359382867920502212206035938   1030000600030000   554100001865315799420001235DENKO NAY PYI TAW 2    NAYPYITAW     MMR11005020621290359380502000000000000000   10300001 00104100000000008280000000000000     
100   62911028202221220000000000010000000000010000002000000010410405012243210144474369000502212222014447   1030000600030000   554100002085315799420000471DENKO BAHAN            YANGON        MMR11005012243210144470502000000000000000   10300001 00104100000000000300000000000000     
100   95050324773225760000000000088000000000088000002000000010410405031124195419372476370503000007100267   1030000200030000   333800010001203104000003327KBZPay                 Yangon        MMR11005031124195419370503000000000000000   10300001F05104100000000018480000000000000     
100   95030301100183220000000000200000000000200000002000000010410405030009303930664369000503000007094757   1030000500030000   333800010001201104000003863AYA Pay                Yangon        MMR11005030009303930660503000000000000000   10300001F05104100000000042000000000000000     
100   95030301100121350000000000068000000000068000002000000010410405020117400624224369000502212201062422   1030000600030000   554100000952315799420000474DENKO N.DAGON - 1      YANGON        MMR11005020117400624220502000000000000000   10300001 00104100000000002040000000000000     
100   95050319604564870000000000006000000000006000002000000010410405030102093209751114420503000007094867   1030000200030000   333800010001203104000003327KBZPay                 Yangon        MMR11005030102093209750503000000000000000   10300001F05104100000000001260000000000000     
100   95030315150842990000000000039300000000039300002000000010410405031057502140084369000503212317214008   1040001600030000   591220000262000000010000250Shwe Ohh Pharmacy (SC- Yangon        MMR11005031057502140080503000000000000000   10300001F00104100000000002358000000000000     
100   95050319156011610000000000004900000000004900002000000010410405031519294929574773960503000007101282   1020000200030000   333400010001204104000000281Myanmar Soft-Gate Tech Yangon        MMR11005031519294929570503000000000000000   10300001F05104100000000001029000000000000     
100   95050319216089110000000000007300000000007300002000000010410405030056035210416156970503700260703122   1030000900030000   581219000715190110000000546Akkhaya Tea House(Dago YANGON        MMR11005030056035210410503000000000000000   10300001F00104100000000003103000000000000     
100   62911028202786290000000000014000000000014000002000000010410405031528265826154369000503000007101321   1030000200030000   333800010001203104000003327KBZPay                 Yangon        MMR11005031528265826150503000000000000000   10300001F05104100000000002940000000000000     
100   95050328876009750000000000035000000000035000002000000010410405030415504550183269400503000007096602   1030000200030000   333800010001203104000003327KBZPay                 Yangon        MMR11005030415504550180503000000000000000   10300001F05104100000000007350000000000000     
100   95030367537085740000000000000980000000000980002000000010410405030416454645854369000503000007096605   1020000200030000   333400010001204104000000281Myanmar Soft-Gate Tech Yangon        MMR11005030416454645850503000000000000000   10300001F05104100000000000206000000000000     
100   95030301100122420000000000020000000000020000002000000010410405030429045904234369000503000007096734   1030000200030000   333800010001203104000003327KBZPay                 Yangon        MMR11005030429045904230503000000000000000   10300001F05104100000000004200000000000000     
100   62911028202460220000000000025500000000025500002000000010410405030424499989364369000503910561015122   1030000500030000   555610110576104519000009164City Mart China Town P int Cen       MMR11005030424499989360503000000000000000   10300001 00104100000000001530000000000000     
100   95050317942168830000000000013450000000013450002000000010410405031200020001993241830503000746458769   1030000200030000   541188001288000008000001475KBZ BANK               CITY CARE STA MMR11005031200020001990503000000000000000   10300001 00104100000000003363000000000000     
100   62443100316099160000000000200000000000200000002000000010410405030930160016891921650503000007099598   1030000200030000   333800010001203104000003327KBZPay                 Yangon        MMR11005030930160016890503000000000000000   10300001F05104100000000042000000000000000     
100   95030310098554020000000000115300000000115300002000000010410405030646220015484369000503000746464492   1030000200030000   599988000602000008000003445KBZ BANK               SWEETY HOME ( MMR11005030646220015480503000000000000000   10300001 00104100000000006918000000000000     
100   62911028202910850000000000003000000000003000002000000010410405030631050004934369000503554031353122   1030000500030000   555610112654104519000010849City Express MCS 51                  MMR11005030631050004930503000000000000000   10300001 00104100000000000180000000000000     
100   62911028202593140000000000005200000000005200002000000010410405030844380020284369000503289141533122   1030000500030000   555610120984104519000017747City Express MCS 112                 MMR11005030844380020280503000000000000000   10300001 00104100000000000312000000000000     
100   62911028202684060000000000019943000000019943002000000010410405031044250035604369000503023131752122   1030000500030000   555610104032104519000003821City Mart North Point  enter         MMR11005031044250035600503000000000000000   10300001 00104100000000001197000000000000     
100   62911028202112730000000000325965000000325965002000000010410405031648060205974369000503000746477006   1030000200030000   541188001001000008000000008KBZ BANK               MARKETPLACE - MMR11005031648060205970503000000000000000   10300001 00104100000000019558000000000000     
100   95050313640946520000000000026600000000026600002000000010410405031129190042812816750503881021823122   1030000500030000   555610103469104519000003420City Mart Yankin Cente 8             MMR11005031129190042810503000000000000000   10300001 00104100000000006650000000000000     
100   95030394609966640000000000021000000000021000002000000010410405030501189993014369000503284301148122   1030000500030000   555610114574104519000012532City Mart Ahlone Branc               MMR11005030501189993010503000000000000000   10300001 00104100000000001260000000000000     
100   95050312210363590000000000002000000000002000002000000010410405031418274827511469000503000007101044   1030000200030000   333800010001203104000003327KBZPay                 Yangon        MMR11005031418274827510503000000000000000   10300001F05104100000000000420000000000000     
100   62911028202416270000000000316000000000316000002000000010410405030815515290404369000503890451451122   1030000900030000   541119000282190110000000177Pro1 Global (Insein)   YANGON        MMR11005030815515290400503000000000000000   10300001F00104100000000018960000000000000     
100   95050325139996190000000000093600000000093600002000000010410405030713054305812651870503000007098265   1030000200030000   333300010001203104000003632Myanmar Tradenet Test  Yangon        MMR11005030713054305810503000000000000000   10300001F05104100000000010000000000000000     
100   95050318131043910000000000000980000000000980002000000010410405030316574657231441010503000007095841   1020000200030000   333400010001204104000000281Myanmar Soft-Gate Tech Yangon        MMR11005030316574657230503000000000000000   10300001F05104100000000000206000000000000     
100   62443101034067530000000000640000000000640000002000000010410405030559135258984007690503044291213122   1030000900030000   594419000582190110000000422Zwe Htet Gems & Jewell MANDALAYHARSA MMR11005030559135258980503000000000000000   10300001F00104100000000153600000000000000     
100   62911028202809060000000000050000000000050000002000000010410405030327045704674369000503000007095974   1030000200030000   333800010001203104000003327KBZPay                 Yangon        MMR11005030327045704670503000000000000000   10300001F05104100000000010500000000000000     
100   95050310816569570000000000050000000000050000002000000010410405031229305930415526040503000007100533   1030000200030000   333800010001203104000003327KBZPay                 Yangon        MMR11005031229305930410503000000000000000   10300001F05104100000000010500000000000000     
100   62911028202204560000000000009000000000009000002000000010410405030856470105974369000503000746447755   1030000200030000   541188001023000008000000298KBZ BANK               CITY MART - M MMR11005030856470105970503000000000000000   10300001 00104100000000000540000000000000     
100   62911028202290100000000000055596000000055596002000000010410405031122190202314369000503000746455969   1030000200030000   541188001054000008000000314KBZ BANK               MARKETPLACE - MMR11005031122190202310503000000000000000   10300001 00104100000000003336000000000000     
100   95050316712109910000000000044002000000044002002000000010410405031154450045086390390503000746458368   1030000200030000   541188001426000008000000401KBZ BANK               OCEAN SUPERCE MMR11005031154450045080503000000000000000   10300001 00104100000000011001000000000000     
100   62911028202175770000000000006000000000006000002000000010410405031653300206394369000503000746477235   1030000200030000   541188001017000008000000008KBZ BANK               MARKETPLACE - MMR11005031653300206390503000000000000000   10300001 00104100000000000360000000000000     
100   62443100395535610000000000300000000000300000002000000010410405031231100110417178530503000007100544   1030000200030000   333800010001203104000003327KBZPay                 Yangon        MMR11005031231100110410503000000000000000   10300001F05104100000000063000000000000000     
100   95050318621775380000000000003000000000003000002000000010410405031531260126824688870503000007101333   1030000200030000   3338000100012031040000040022C2P (Myanmar) Co. Ltd Yangon        MMR11005031531260126820503000000000000000   10300001F05104100000000000630000000000000     
100   62911028202045260000000000018200000000018200002000000010410405030957460029584369000503328291622122   1030000500030000   555610120972104519000017735City Express MCS 24                  MMR11005030957460029580503000000000000000   10300001 00104100000000001092000000000000     
100   95050316812885810000000000004900000000004900002000000010410405030430270027308893840503000007096753   1020000200030000   333400010001204104000000281Myanmar Soft-Gate Tech Yangon        MMR11005030430270027300503000000000000000   10300001F05104100000000001029000000000000     
100   95050318065288040000000000010500000000010500002000000010410405030216435215884298630503892460843122   1030000900030000   591219000795190110000000627Shwe Ohh Pharmacy ST-3 YANGONINDAING MMR11005030216435215880503000000000000000   10300001F00104100000000002520000000000000     
100   95050314703432410000000000020000000000020000002000000010410405031321585158387107220503000007100781   1030000200030000   3338000100012031040000040022C2P (Myanmar) Co. Ltd Yangon        MMR11005031321585158380503000000000000000   10300001F05104100000000004200000000000000     
100   95050311121153200000000000001960000000001960002000000010410405031027245724583497520503000007099987   1020000200030000   333400010001204104000000281Myanmar Soft-Gate Tech Yangon        MMR11005031027245724580503000000000000000   10300001F05104100000000000412000000000000     
100   95030301100157400000000000003000000000003000002000000010410405031117504750744369000503000007100233   1030000200030000   333800010001203104000003327KBZPay                 Yangon        MMR11005031117504750740503000000000000000   10300001F05104100000000000630000000000000     
100   95030332666916030000000000177000000000177000002000000010410405030645575269654369000503695151357122   1030000900030000   541119000882190110000000084Pro (1) Global (Pazund YANGONARTAUNG MMR11005030645575269650503000000000000000   10300001F00104100000000010620000000000000     
100   95030314863516850000000000004500000000004500002000000010410405030820265026854369000503000007098875   1030000200030000   333800010001203104000003327KBZPay                 Yangon        MMR11005030820265026850503000000000000000   10300001F05104100000000000945000000000000     
100   62911028202154800000000000012200000000012200002000000010410405030835045294994369000503133051504122   1030000900030000   541119001263190110000000958City Mart PLST C 6     YANGONMYOTHIT MMR11005030835045294990503000000000000000   10300001F00104100000000000732000000000000     
100   95050316785465380000000000001960000000001960002000000010410405030223005300166277710503000007095270   1020000200030000   333400010001204104000000281Myanmar Soft-Gate Tech Yangon        MMR11005030223005300160503000000000000000   10300001F05104100000000000412000000000000     
100   62911028202400660000000000006550000000006550002000000010410405031149360114684369000503000746457947   1030000200030000   541188001127000008000000296KBZ BANK               CITY MART - J MMR11005031149360114680503000000000000000   10300001 00104100000000000393000000000000     
100   62911028202133940000000000023300000000023300002000000010410405032023460161394369000503000746484378   1030000200030000   541188001304000008000000325KBZ BANK               CITY MART - A MMR11005032023460161390503000000000000000   10300001 00104100000000001398000000000000     
100   95030302100015820000000000046500000000046500002000000010410405031046270024414369000503000746453138   1030000200030000   541188001066000008000000314KBZ BANK               MARKETPLACE - MMR11005031046270024410503000000000000000   10300001 00104100000000002790000000000000     
100   95050320335873810000000000000980000000000980002000000010410405031031160116803327330503000007100010   1020000200030000   333400010001204104000000281Myanmar Soft-Gate Tech Yangon        MMR11005031031160116800503000000000000000   10300001F05104100000000000206000000000000     
100   95030302100015820000000000019450000000019450002000000010410405031047470024424369000503000746453245   1030000200030000   541188001066000008000000314KBZ BANK               MARKETPLACE - MMR11005031047470024420503000000000000000   10300001 00104100000000001167000000000000     
100   95050316949180000000000000016660000000016660002000000010410405031432240224239816510503000007101118   1020000200030000   333400010001204104000000281Myanmar Soft-Gate Tech Yangon        MMR11005031432240224230503000000000000000   10300001F05104100000000003499000000000000     
100   62911028202166940000000000090398000000090398002000000010410405031605280114934369000503000746474825   1030000200030000   541188001127000008000000296KBZ BANK               CITY MART - J MMR11005031605280114930503000000000000000   10300001 00104100000000005424000000000000     
100   95050316653112190000000000010000000000010000002000000010410405030941581158506582860503000007099715   1030000200030000   333800010001203104000003327KBZPay                 Yangon        MMR11005030941581158500503000000000000000   10300001F05104100000000002100000000000000     
100   62911028202446540000000000028500000000028500002000000010410405030819585291604369000503956491458122   1030000900030000   591219000795190110000000627Shwe Ohh Pharmacy ST-3 YANGONINDAING MMR11005030819585291600503000000000000000   10300001F00104100000000001710000000000000     
100   95050323670692380000000000010000000000010000002000000010410405031016334633699036850503000007099936   1030000200030000   333800010001203104000003327KBZPay                 Yangon        MMR11005031016334633690503000000000000000   10300001F05104100000000002100000000000000     
100   62911028202305390000000000007800000000007800002000000010410405030506085248104369000503481361108122   1030000900030000   591219000969190110000000776Shwe Ohh Pharmacy St ( YANGONADA     MMR11005030506085248100503000000000000000   10300001F00104100000000000468000000000000     
100   95050320092651450000000000028350000000028350002000000010410405030843255296990219730503244131525122   1030000900030000   541119000165190110000000085SeinGayHar (Dagon Cent YANGONUNG     MMR11005030843255296990503000000000000000   10300001F00104100000000007088000000000000     
100   95050314635839930000000000010000000000010000002000000010410405031218104810489001200503000007100482   1030000200030000   333800010001203104000003327KBZPay                 Yangon        MMR11005031218104810480503000000000000000   10300001F05104100000000002100000000000000     
100   95050318131043910000000000000980000000000980002000000010410405030318374837709788530503000007095860   1020000200030000   333400010001204104000000281Myanmar Soft-Gate Tech Yangon        MMR11005030318374837700503000000000000000   10300001F05104100000000000206000000000000     
100   62911028202077010000000000001960000000001960002000000010410405031429585958204369000503000007101104   1020000200030000   333400010001204104000000281Myanmar Soft-Gate Tech Yangon        MMR11005031429585958200503000000000000000   10300001F05104100000000000412000000000000     
100   95030346179196360000000000092400000000092400002000000010410405030959585316344369000503381291658122   1030000900030000   723019001049190110000000852Beauty Diary(SYS) -1   YANGON        MMR11005030959585316340503000000000000000   10300001F00104100000000005544000000000000     
100   95050323067379780000000000200000000000200000002000000010410405030747501750412020540503000007098582   1030000200030000   333800010001203104000003327KBZPay                 Yangon        MMR11005030747501750410503000000000000000   10300001F05104100000000042000000000000000     
100   62443100393841160000000000300000000000300000002000000010410405030051212121234759770503000007094838   1030000200030000   333800010001203104000003327KBZPay                 Yangon        MMR11005030051212121230503000000000000000   10300001F05104100000000063000000000000000     
100   95050316818236190000000000001960000000001960002000000010410405031549161916731383900503000007101405   1020000200030000   333400010001204104000000281Myanmar Soft-Gate Tech Yangon        MMR11005031549161916730503000000000000000   10300001F05104100000000000412000000000000     
100   62911028202789750000000000017700000000017700002000000010410405031107132148434369000503212318214843   1040001600030000   591220000271000000010000259Shwe Ohh Pharmacy (Gwa Yangon        MMR11005031107132148430503000000000000000   10300001F00104100000000001062000000000000     
100   95050329213164970000000000002940000000002940002000000010410405030813494349634935680503000007098854   1020000200030000   333400010001204104000000281Myanmar Soft-Gate Tech Yangon        MMR11005030813494349630503000000000000000   10300001F05104100000000000617000000000000     
100   95050311931431670000000000004900000000004900002000000010410405031248301830935284540503000007100624   1020000200030000   333400010001204104000000281Myanmar Soft-Gate Tech Yangon        MMR11005031248301830930503000000000000000   10300001F05104100000000001029000000000000     
100   62443100393841160000000000300000000000300000002000000010410405030049571957534674670503000007094833   1030000200030000   333800010001203104000003327KBZPay                 Yangon        MMR11005030049571957530503000000000000000   10300001F05104100000000063000000000000000     
100   62911028202473430000000000089600000000089600002000000010410405030755202031034369000503212314203103   1040001600030000   591220000278000000010000266Shwe Ohh Pharmacy (Bah Yangon        MMR11005030755202031030503000000000000000   10300001F00104100000000005376000000000000     
100   95050319391394380000000000013700000000013700002000000010410405031000235316442767310503384301623122   1030000900030000   541119000121190110000000080Sein Gay Har BAK       YANGONADA     MMR11005031000235316440503000000000000000   10300001F00104100000000003425000000000000     
100   62911028202133520000000000004900000000004900002000000010410405031224435351744369000503641541843122   1030000900030000   541119001186190110000000942City Mart HDC C 1      YANGONUT      MMR11005031224435351740503000000000000000   10300001F00104100000000000294000000000000     
100   95050310213446310000000000019600000000019600002000000010410405031117394739547518910503000007100239   1020000200030000   333400010001204104000000281Myanmar Soft-Gate Tech Yangon        MMR11005031117394739540503000000000000000   10300001F05104100000000004116000000000000     
100   62911028202313470000000000129950000000129950002000000010410405030345115230614369000503604151011122   1030000900030000   591219000609190110000000449Shwe Ohh Pharmacy St-3 YANGONAUNG    MMR11005030345115230610503000000000000000   10300001F00104100000000007797000000000000     
100   95030380891034700000000000050000000000050000002000000010410405031609233923824369000503000007101447   1030000200030000   333800010001203104000003327KBZPay                 Yangon        MMR11005031609233923820503000000000000000   10300001F05104100000000010500000000000000     
100   95050312240830690000000000000980000000000980002000000010410405031424215421473121480503000007101080   1020000200030000   333400010001204104000000281Myanmar Soft-Gate Tech Yangon        MMR11005031424215421470503000000000000000   10300001F05104100000000000206000000000000     
100   95050325784857510000000000002500000000002500002000000010410405030314589982506398460503245450910122   1030000500030000   555610112649104519000010844City Express MCS 20                  MMR11005030314589982500503000000000000000   10300001 00104100000000000625000000000000     
100   95050314248160600000000000014750000000014750002000000010410405030956355315666157370503345261635122   1030000900030000   541119001267190110000000958City Mart PLST C 10    YANGONMYOTHIT MMR11005030956355315660503000000000000000   10300001F00104100000000003688000000000000     
100   62911028202790980000000000050000000000050000002000000010410405030936122079554369000503212316207955   1040001600030000   598320000322000000010000310PT Power Petrol Statio Yangon        MMR11005030936122079550503000000000000000   10300001F00104100000000001500000000000000     
100   95050317376014640000000000002940000000002940002000000010410405031252012201076937030503000007100643   1020000200030000   333400010001204104000000281Myanmar Soft-Gate Tech Yangon        MMR11005031252012201070503000000000000000   10300001F05104100000000000617000000000000     
100   95050319161596230000000000000980000000000980002000000010410405030354262426477285080503000007096319   1020000200030000   333400010001204104000000281Myanmar Soft-Gate Tech Yangon        MMR11005030354262426470503000000000000000   10300001F05104100000000000206000000000000     
100   95050323067379780000000000300000000000300000002000000010410405030657502750320502590503000007098119   1030000200030000   333800010001203104000003327KBZPay                 Yangon        MMR11005030657502750320503000000000000000   10300001F05104100000000063000000000000000     
100   95050316785465380000000000000980000000000980002000000010410405030056142614801539900503000007094852   1020000200030000   333400010001204104000000281Myanmar Soft-Gate Tech Yangon        MMR11005030056142614800503000000000000000   10300001F05104100000000000206000000000000     
100   95050312695033440000000000002940000000002940002000000010410405030708463846599006510503000007098232   1020000200030000   333400010001204104000000281Myanmar Soft-Gate Tech Yangon        MMR11005030708463846590503000000000000000   10300001F05104100000000000617000000000000     
100   95050312695033440000000000000980000000000980002000000010410405031115004500047604010503000007100229   1020000200030000   333400010001204104000000281Myanmar Soft-Gate Tech Yangon        MMR11005031115004500040503000000000000000   10300001F05104100000000000206000000000000     
100   62911028202721270000000000003693000000003693002000000010410405031713280341234369000503000746478082   1030000200030000   541188001025000008000000298KBZ BANK               CITY MART - M MMR11005031713280341230503000000000000000   10300001 00104100000000000222000000000000     
100   95050319928585020000000000001960000000001960002000000010410405030627195719575750990503000007097829   1020000200030000   333400010001204104000000281Myanmar Soft-Gate Tech Yangon        MMR11005030627195719570503000000000000000   10300001F05104100000000000412000000000000     
100   95050317043153610000000000005300000000005300002000000010410405031108370039855951520503524421736122   1030000300030000   555510120538104519000017437Art and T8                           MMR11005031108370039850503000000000000000   10300001 00104100000000001272000000000000     
100   62911028202170310000000000150000000000150000002000000010410405030521549995494369000503529511139122   1030000300030000   555510124696104519000020166Makro Myanmar                        MMR11005030521549995490503000000000000000   10300001 00104100000000009000000000000000     
100   95050318471308000000000000085000000000085000002000000010410405030532590259038284370503000007097343   1030000200030000   333800010001203104000003327KBZPay                 Yangon        MMR11005030532590259030503000000000000000   10300001F05104100000000017850000000000000     
100   62911028202610960000000000030000000000030000002000000010410405011013370826754369000501212110082675   1030000600030000   554100000946315799420000471DENKO BAHAN            YANGON        MMR11005011013370826750501000000000000000   10300001 00104100000000000900000000000000     
100   95050324154190880000000000002940000000002940002000000010410405030730470047789942570503000007098434   1020000200030000   333400010001204104000000281Myanmar Soft-Gate Tech Yangon        MMR11005030730470047780503000000000000000   10300001F05104100000000000617000000000000     
100   95050314829126520000000000024100000000024100002000000010410405030247529980115476190503008170921122   1030000500030000   555610110570104519000009164City Mart China Town P int Cen       MMR11005030247529980110503000000000000000   10300001 00104100000000006025000000000000     
100   62443100379321630000000000023500000000023500002000000010410405031101070038427859300503367321747122   1030000500030000   555610117864104519000009164City Mart China Town P int Cen       MMR11005031101070038420503000000000000000   10300001 00104100000000005875000000000000     
100   95030366960186690000000000097845000000097845002000000010410404290849060150904369000429211908015090   1030000600030000   809900000541315799420000147GRAND HANTHA HOSPITAL  YANGON        MMR11004290849060150900429000000000000000   10300001 00104100000000005871000000000000     
100   62911028202616170000000000041500000000041500002000000010410405011105010007064369000501212111000706   1030000600030000   597700000971315799420000492BEAUTY RECIPES         YANGON        MMR11005011105010007060501000000000000000   10300001 00104100000000002490000000000000     
100   95030339473566670000000000080800000000080800002000000010410405010011450196144369000501212100019614   1030000600030000   809900000537315799420000147GRAND HANTHA HOSPITAL  YANGON        MMR11005010011450196140501000000000000000   10300001 00104100000000004848000000000000     
100   95030301100126550000000000030000000000030000002000000010410405010315410145524369000501212103014552   1030000600030000   554100002323315799420000474DENKO N.DAGON - 1      YANGON        MMR11005010315410145520501000000000000000   10300001 00104100000000000900000000000000     
100   62911028202023630000000000060000000000060000002000000010410405010721470021434369000501212107002143   1030000600030000   554100000775315799420000342DENKO  YIN TAW         MANDALAY      MMR11005010721470021430501000000000000000   10300001 00104100000000001800000000000000     
100   95050324133333980000000000026000000000026000002000000010410405011353550144259547660501212113014425   1030000600030000   554100002085315799420000471DENKO BAHAN            YANGON        MMR11005011353550144250501000000000000000   10300001 00104100000000003120000000000000     
100   95030301100118480000000000009070000000009070002000000010410405011110380018124369000501212111001812   1030000600030000   549900002142315799420001491EASY MART 023          YANGON        MMR11005011110380018120501000000000000000   10300001 00104100000000000925000000000000     
100   62911028202290100000000000062000000000062000002000000010410405010445470034744369000501212104003474   1030000600030000   554100001266315799420000720DENKO HPA AN - 2       HPA AN.       MMR11005010445470034740501000000000000000   10300001 00104100000000001860000000000000     
100   95030301100121680000000000020000000000020000002000000010410405030837370737854369000503000007099076   1030000200030000   333800010001203104000003327KBZPay                 Yangon        MMR11005030837370737850503000000000000000   10300001F05104100000000004200000000000000     
100   95050311382087030000000000001960000000001960002000000010410405030947311731331880690503000007099755   1020000200030000   333400010001204104000000281Myanmar Soft-Gate Tech Yangon        MMR11005030947311731330503000000000000000   10300001F05104100000000000412000000000000     
100   95050317003064220000000000000980000000000980002000000010410405031559362936818419320503000007101427   1020000200030000   333400010001204104000000281Myanmar Soft-Gate Tech Yangon        MMR11005031559362936810503000000000000000   10300001F05104100000000000206000000000000     
100   62911028202369990000000000300000000000300000002000000010410405030404433443584369000503000007096445   1030000200030000   333800010001203104000003327KBZPay                 Yangon        MMR11005030404433443580503000000000000000   10300001F05104100000000063000000000000000     
100   62443101071845130000000000010000000000010000002000000010410405030711294129098034800503000007098250   1030000300030000   333300010001206104000002147DICA Company Limited   Yangon        MMR11005030711294129090503000000000000000   10300001F05104100000000010000000000000000     
100   95050316601084530000000000000980000000000980002000000010410405030753302330145481910503000007098644   1020000200030000   333400010001204104000000281Myanmar Soft-Gate Tech Yangon        MMR11005030753302330140503000000000000000   10300001F05104100000000000206000000000000     
100   62443100301716860000000000100000000000100000002000000010410405030857532753950645210503000007099295   1030000200030000   333800010001203104000003327KBZPay                 Yangon        MMR11005030857532753950503000000000000000   10300001F05104100000000021000000000000000     
100   95050316067768680000000000000980000000000980002000000010410405031305133513833802250503000007100705   1020000200030000   333400010001204104000000281Myanmar Soft-Gate Tech Yangon        MMR11005031305133513830503000000000000000   10300001F05104100000000000206000000000000     
100   62911028202466670000000000040000000000040000002000000010410405011432000144374369000501212114014437   1030000600030000   554100002085315799420000471DENKO BAHAN            YANGON        MMR11005011432000144370501000000000000000   10300001 00104100000000001200000000000000     
100   95050315296997180000000000020000000000020000002000000010410405011005100198125262050501212110019812   1030000600030000   554100000747315799420000325DENKO MDY 26           YANGON        MMR11005011005100198120501000000000000000   10300001 00104100000000002400000000000000     
100   95050324622440820000000000025750000000025750002000000010410405010408200066926928320501212104006692   1030000600030000   549900002153315799420001502EASY MART- 003         YANGON        MMR11005010408200066920501000000000000000   10300001 00104100000000010944000000000000     
100   95030305700676370000000000030000000000030000002000000010410405010904370063804369000501212109006380   1030000600030000   554100002141315799420001490DENKO MEIKHTILA 3      MANDALAY      MMR11005010904370063800501000000000000000   10300001 00104100000000000900000000000000     
100   62911028202506690000000000015000000000015000002000000010410405010357440747394369000501212103074739   1030000600030000   554100000955315799420000477DENKO INSEIN           YANGON        MMR11005010357440747390501000000000000000   10300001 00104100000000000450000000000000     
100   62443100306028540000000000040000000000040000002000000010410405010836090826491191210501212108082649   1030000600030000   554100000946315799420000471DENKO BAHAN            YANGON        MMR11005010836090826490501000000000000000   10300001 00104100000000004800000000000000     
100   62911028202778600000000000280000000000280000002000000010410404300008090053534369000430212000005353   1030000600030000   554100001210315799420000662DENKO PYUN TANZAR      PYUN TANZAR   MMR11004300008090053530430000000000000000   10300001 00104100000000008400000000000000     
100   95030301100215990000000000007000000000007000002000000010410405020840250006644369000502212215000664   1030000500030000   573220039601000065732200396REMAX                  PTN           MMR11005020840250006640502000000000000000   10300001 00104100000000000420000000000000     
100   95030301100332300000000000210000000000210000002000000010410405030806083608944369000503000007098764   1030000200030000   333800010001203104000003327KBZPay                 Yangon        MMR11005030806083608940503000000000000000   10300001F05104100000000044100000000000000     
100   95050316049877640000000000002940000000002940002000000010410405030240441044318440780503000007095384   1020000200030000   333400010001204104000000281Myanmar Soft-Gate Tech Yangon        MMR11005030240441044310503000000000000000   10300001F05104100000000000617000000000000     
100   95030331359799240000000000005000000000005000002000000010410405031238480848414369000503000007100585   1030000200030000   3338000100012031040000040022C2P (Myanmar) Co. Ltd Yangon        MMR11005031238480848410503000000000000000   10300001F05104100000000001050000000000000     
100   95030346179196360000000000034000000000034000002000000010410405030308261893744369000503212310189374   1040001600030000   598320000856000000010000609Terminal Petrol Statio Yangon        MMR11005030308261893740503000000000000000   10300001F00104100000000001020000000000000     
100   95050312210363590000000000010000000000010000002000000010410405031555232523403036390503000007101419   1030000200030000   333800010001203104000003327KBZPay                 Yangon        MMR11005031555232523400503000000000000000   10300001F05104100000000002100000000000000     
100   62443100301716860000000000300000000000300000002000000010410405030857052705935687760503000007099286   1030000200030000   333800010001203104000003327KBZPay                 Yangon        MMR11005030857052705930503000000000000000   10300001F05104100000000063000000000000000     
100   95050315445638160000000000095600000000095600002000000010410405030751422142250694650503000007098625   1030000200030000   333800010001203104000003327KBZPay                 Yangon        MMR11005030751422142250503000000000000000   10300001F05104100000000020076000000000000     
100   62443100301716860000000000300000000000300000002000000010410405030855362536100985590503000007099273   1030000200030000   333800010001203104000003327KBZPay                 Yangon        MMR11005030855362536100503000000000000000   10300001F05104100000000063000000000000000     
100   62911028202529960000000000020950000000020950002000000010410405010811390016354369000501212108001635   1030000600030000   549900001956315799420001325EASY MART 012          YANGON        MMR11005010811390016350501000000000000000   10300001 00104100000000002137000000000000     
100   95030301100121270000000000030000000000030000002000000010410404300326150475294369000430212003047529   1030000600030000   554100001756315799420001137DENKO NORTH DAGON 2    YANGON        MMR11004300326150475290430000000000000000   10300001 00104100000000000900000000000000     
100   62443100358839880000000000100312000000100312002000000010410405010344140042484680160501212103004248   1030000600030000   581200002287315799420000141FUJI COFFEE HOUSE      YANGON        MMR11005010344140042480501000000000000000   10300001 00104100000000042633000000000000     
100   95030366960186690000000000155500000000155500002000000010410404290850340150914369000429211908015091   1030000600030000   809900000541315799420000147GRAND HANTHA HOSPITAL  YANGON        MMR11004290850340150910429000000000000000   10300001 00104100000000009330000000000000     
100   95050320093758110000000000020000000000020000002000000010410404300942070065947142240430212009006594   1030000600030000   554100002139315799420001488DENKO MDY-12           MANDALAY      MMR11004300942070065940430000000000000000   10300001 00104100000000002400000000000000     
100   62911028202289130000000000109773000000109773002000000010410404301236290141434369000430212012014143   1030000600030000   554100002085315799420000471DENKO BAHAN            YANGON        MMR11004301236290141430430000000000000000   10300001 00104100000000003293000000000000     
100   62443100393841160000000000028000000000028000002000000010410404301351320060472050250430212013006047   1030000600030000   554100001226315799420000679DENKO MAGWAY - 2       MAGWAY        MMR11004301351320060470430000000000000000   10300001 00104100000000003360000000000000     
100   62911028202088990000000000030000000000030000002000000010410404300954040050114369000430212009005011   1030000600030000   554100001211315799420000663DENKO  TETKONE         TETKONE       MMR11004300954040050110430000000000000000   10300001 00104100000000000900000000000000     
100   95030301100126970000000000085000000000085000002000000010410405031124082163484369000503212318216348   1040001600030000   591220000287000000010000275Shwe Ohh Pharmacy (Wit Yangon        MMR11005031124082163480503000000000000000   10300001F00104100000000005100000000000000     
100   95050316785465380000000000000980000000000980002000000010410405031303563356712149770503000007100701   1020000200030000   333400010001204104000000281Myanmar Soft-Gate Tech Yangon        MMR11005031303563356710503000000000000000   10300001F05104100000000000206000000000000     
100   95050319532433550000000000010061000000010061002000000010410405031340461046012064670503000007100866   1030000200030000   333800010001203104000003327KBZPay                 Yangon        MMR11005031340461046010503000000000000000   10300001F05104100000000002113000000000000     
100   62443100395535610000000000200000000000200000002000000010410405031242311231698589510503000007100600   1030000200030000   333800010001203104000003327KBZPay                 Yangon        MMR11005031242311231690503000000000000000   10300001F05104100000000042000000000000000     
100   62911028202446540000000000013450000000013450002000000010410405030421041922464369000503212311192246   1040001600030000   591220000267000000010000255Shwe Ohh Pharmacy (Bah Yangon        MMR11005030421041922460503000000000000000   10300001F00104100000000000807000000000000     
100   62443100301716860000000000300000000000300000002000000010410405030856212621024375660503000007099278   1030000200030000   333800010001203104000003327KBZPay                 Yangon        MMR11005030856212621020503000000000000000   10300001F05104100000000063000000000000000     
100   95050328074436620000000000009800000000009800002000000010410405030159052905934128440503000007095119   1020000200030000   333400010001204104000000281Myanmar Soft-Gate Tech Yangon        MMR11005030159052905930503000000000000000   10300001F05104100000000002058000000000000     
100   95050317072727910000000000000980000000000980002000000010410405030457082708841397280503000007097017   1020000200030000   333400010001204104000000281Myanmar Soft-Gate Tech Yangon        MMR11005030457082708840503000000000000000   10300001F05104100000000000206000000000000     
100   95050312781844250000000000020000000000020000002000000010410404300515520052045964680430212005005204   1030000600030000   554100000744315799420000322DENKO AMARAPURA-PACHI  MANDALAY      MMR11004300515520052040430000000000000000   10300001 00104100000000002400000000000000     
100   62911028202023630000000000030000000000030000002000000010410404300243060032704369000430212002003270   1030000600030000   554100001219315799420000671DENKO MYINGYAN         MYINGYAN      MMR11004300243060032700430000000000000000   10300001 00104100000000000900000000000000     
100   62443100379321630000000000200000000000200000002000000010410404300911330060159050010430212009006015   1030000600030000   554100002322315799420000497DENKO KONE TA LA PAUNG YANGON        MMR11004300911330060150430000000000000000   10300001 00104100000000024000000000000000     
100   62443100343312450000000000151350000000151350002000000010410404300655390055963510680430212006005596   1030000600030000   581200000719315799420000302BEAUTY IN THE POT      YANGON        MMR11004300655390055960430000000000000000   10300001 00104100000000064324000000000000     
100   62911028202752520000000000049000000000049000002000000010410404300051290138614369000430212000013861   1030000600030000   554100002320315799420000564DENKO PHYUU            PHYUU         MMR11004300051290138610430000000000000000   10300001 00104100000000001470000000000000     
100   95050320531117320000000000469000000000469000002000000010410404300521520391437617160430212005039143   1030000600030000   554100001009315799420000504DENKO SOUTH DAGON      YANGON        MMR11004300521520391430430000000000000000   10300001 00104100000000056280000000000000     
100   62911028202269410000000000030000000000030000002000000010410404300328210220244369000430212003022024   1030000600030000   554100001118315799420000576DENKO THAN HLYIN - 2   THAN HLYIN    MMR11004300328210220240430000000000000000   10300001 00104100000000000900000000000000     
100   95030301100124400000000000048000000000048000002000000010410404301135090703864369000430212011070386   1030000600030000   554100000957315799420000480DENKO N.DAGON - 3      YANGON        MMR11004301135090703860430000000000000000   10300001 00104100000000001440000000000000     
100   95030367537085740000000000000980000000000980002000000010410405031412304230874369000503000007101023   1020000200030000   333400010001204104000000281Myanmar Soft-Gate Tech Yangon        MMR11005031412304230870503000000000000000   10300001F05104100000000000206000000000000     
100   95050318597867880000000000010000000000010000002000000010410405030941111111734930370503000007099708   1030000200030000   333800010001203104000003327KBZPay                 Yangon        MMR11005030941111111730503000000000000000   10300001F05104100000000002100000000000000     
100   95050310750557450000000000029650000000029650002000000010410405030228381877944455040503212309187794   1040001600030000   591220000299000000010000287Shwe Ohh Pharmacy (Yan Yangon        MMR11005030228381877940503000000000000000   10300001F00104100000000007116000000000000     
100   95030301100127050000000000041000000000041000002000000010410405030445141933934369000503212311193393   1040001600030000   591220000043000000010000041Mingalar Pharmacy      Yangon        MMR11005030445141933930503000000000000000   10300001F00104100000000002460000000000000     
100   95050317209843640000000000300000000000300000002000000010410405030655442544203807560503000007098086   1030000200030000   333800010001203104000003327KBZPay                 Yangon        MMR11005030655442544200503000000000000000   10300001F05104100000000063000000000000000     
100   62911028202446700000000000300000000000300000002000000010410405030504553455904369000503000007097099   1030000500030000   333800010001201104000003863AYA Pay                Yangon        MMR11005030504553455900503000000000000000   10300001F05104100000000063000000000000000     
100   62911028202676220000000000010070000000010070002000000010410405030833170317554369000503000007099045   1030000200030000   333800010001203104000003327KBZPay                 Yangon        MMR11005030833170317550503000000000000000   10300001F05104100000000002115000000000000     
100   95050315372485810000000000050000000000050000002000000010410405030637250725026516850503000007097931   1030000200030000   333800010001203104000003327KBZPay                 Yangon        MMR11005030637250725020503000000000000000   10300001F05104100000000010500000000000000     
100   95030339867270590000000000113800000000113800002000000010410405031131372170564369000503212318217056   1040001600030000   591220000281000000010000269Shwe Ohh Pharmacy (San Yangon        MMR11005031131372170560503000000000000000   10300001F00104100000000006828000000000000     
100   95030309199843360000000000036700000000036700002000000010410405030631015266644369000503510011301122   1030000900030000   541119001203190110000000948City Mart YK C 1       YANGONAUNG    MMR11005030631015266640503000000000000000   10300001F00104100000000002202000000000000     
100   95050312820609340000000000300000000000300000002000000010410405030400353035387035500503000007096396   1030000200030000   333800010001203104000003327KBZPay                 Yangon        MMR11005030400353035380503000000000000000   10300001F05104100000000063000000000000000     
100   95050316785465380000000000000980000000000980002000000010410405030811254125531630710503000007098833   1020000200030000   333400010001204104000000281Myanmar Soft-Gate Tech Yangon        MMR11005030811254125530503000000000000000   10300001F05104100000000000206000000000000     
100   95050314829126520000000000031620000000031620002000000010410405030304323432545887890503000007095624   1030000200030000   333800010001203104000003327KBZPay                 Yangon        MMR11005030304323432540503000000000000000   10300001F05104100000000006640000000000000     
100   95050312498129060000000000004900000000004900002000000010410405030250162016485306000503000007095454   1020000200030000   333400010001204104000000281Myanmar Soft-Gate Tech Yangon        MMR11005030250162016480503000000000000000   10300001F05104100000000001029000000000000     
100   95050312482469810000000000036300000000036300002000000010410405030457385246421723880503407271138122   1030000900030000   541119000121190110000000080Sein Gay Har BAK       YANGONADA     MMR11005030457385246420503000000000000000   10300001F00104100000000009075000000000000     
100   62911028202196800000000000050000000000050000002000000010410405020949120004094369000502212216000409   1030000500030000   598320002103000015172200021MAX ENERGY             PTN           MMR11005020949120004090502000000000000000   10300001 00104100000000001500000000000000     
100   95050318057347910000000000004900000000004900002000000010410405030641301130512871500503000007097956   1020000200030000   333400010001204104000000281Myanmar Soft-Gate Tech Yangon        MMR11005030641301130510503000000000000000   10300001F05104100000000001029000000000000     
100   62911028202708080000000000300000000000300000002000000010410405031039410941274369000503000007100046   1030000200030000   333800010001203104000003327KBZPay                 Yangon        MMR11005031039410941270503000000000000000   10300001F05104100000000063000000000000000     
100   95050323067379780000000000300000000000300000002000000010410405030749581958975652100503000007098607   1030000200030000   333800010001203104000003327KBZPay                 Yangon        MMR11005030749581958970503000000000000000   10300001F05104100000000063000000000000000     
100   95050316785465380000000000001960000000001960002000000010410405030050392039673022190503000007094837   1020000200030000   333400010001204104000000281Myanmar Soft-Gate Tech Yangon        MMR11005030050392039670503000000000000000   10300001F05104100000000000412000000000000     
100   95050317003064220000000000000980000000000980002000000010410405030251382138255391100503000007095467   1020000200030000   333400010001204104000000281Myanmar Soft-Gate Tech Yangon        MMR11005030251382138250503000000000000000   10300001F05104100000000000206000000000000     
100   62443100393841160000000000100000000000100000002000000010410405030053382338796412260503000007094844   1030000200030000   333800010001203104000003327KBZPay                 Yangon        MMR11005030053382338790503000000000000000   10300001F05104100000000021000000000000000     
100   95050312498129060000000000000980000000000980002000000010410405030858462846068992720503000007099298   1020000200030000   333400010001204104000000281Myanmar Soft-Gate Tech Yangon        MMR11005030858462846060503000000000000000   10300001F05104100000000000206000000000000     
100   95050315259054570000000000000980000000000980002000000010410405030800083008227730060503000007098709   1020000200030000   333400010001204104000000281Myanmar Soft-Gate Tech Yangon        MMR11005030800083008220503000000000000000   10300001F05104100000000000206000000000000     
100   62911028202909210000000000100000000000100000002000000010410405030225255525524369000503000007095291   1030000200030000   333800010001203104000003327KBZPay                 Yangon        MMR11005030225255525520503000000000000000   10300001F05104100000000021000000000000000     
100   95050310427855490000000000000980000000000980002000000010410405031150302030037008340503000007100374   1020000200030000   333400010001204104000000281Myanmar Soft-Gate Tech Yangon        MMR11005031150302030030503000000000000000   10300001F05104100000000000206000000000000     
100   62911028202132460000000000015800000000015800002000000010410405030542505255464369000503857121250122   1030000900030000   541119000161190110000000084Pro (1) Global (Pazund YANGONARTAUNG MMR11005030542505255460503000000000000000   10300001F00104100000000000948000000000000     
100   95050311121153200000000000001960000000001960002000000010410405031028455845678369880503000007099996   1020000200030000   333400010001204104000000281Myanmar Soft-Gate Tech Yangon        MMR11005031028455845670503000000000000000   10300001F05104100000000000412000000000000     
100   62443100358839880000000000010800000000010800002000000010410405021356520000502676090502000343163790   1030000300030000   531100001264000000000000866CB BANK                G & G CONVENI MMR11005021356520000500502000000000000000   10300001F00104100000000002592000000000000     
100   95050312005798410000000000002940000000002940002000000010410405031003003300922852400503000007099865   1020000200030000   333400010001204104000000281Myanmar Soft-Gate Tech Yangon        MMR11005031003003300920503000000000000000   10300001F05104100000000000617000000000000     
100   95050319161596230000000000000980000000000980002000000010410405030312184218865001270503000007095763   1020000200030000   333400010001204104000000281Myanmar Soft-Gate Tech Yangon        MMR11005030312184218860503000000000000000   10300001F05104100000000000206000000000000     
100   62911028202696360000000000043000000000043000002000000010410405020708370083554369000502212207008355   1030000600030000   554100001206315799420000658DENKO PATHEIN          PATHEIN.      MMR11005020708370083550502000000000000000   10300001 00104100000000001290000000000000     
100   95050316573091630000000000002940000000002940002000000010410405030300103010084490690503000007095548   1020000200030000   333400010001204104000000281Myanmar Soft-Gate Tech Yangon        MMR11005030300103010080503000000000000000   10300001F05104100000000000617000000000000     
100   95050313836159580000000000001000000000001000002000000010410405031400203020036511550503000007100969   1030000200030000   3334000100012031040000040102C2P (Myanmar) Co. Ltd Yangon        MMR11005031400203020030503000000000000000   10300001F05104100000000000210000000000000     
100   95050316067768680000000000000980000000000980002000000010410405031306563656518844800503000007100716   1020000200030000   333400010001204104000000281Myanmar Soft-Gate Tech Yangon        MMR11005031306563656510503000000000000000   10300001F05104100000000000206000000000000     
100   95030301100183220000000000300000000000300000002000000010410405030007453745814369000503000007094751   1030000500030000   333800010001201104000003863AYA Pay                Yangon        MMR11005030007453745810503000000000000000   10300001F05104100000000063000000000000000     
100   95050311382087030000000000001960000000001960002000000010410405031034150415831674840503000007100021   1020000200030000   333400010001204104000000281Myanmar Soft-Gate Tech Yangon        MMR11005031034150415830503000000000000000   10300001F05104100000000000412000000000000     
100   62911028202809060000000000200000000000200000002000000010410405030244481448294369000503000007095411   1030000200030000   333800010001203104000003327KBZPay                 Yangon        MMR11005030244481448290503000000000000000   10300001F05104100000000042000000000000000     
100   95050325630928770000000000000980000000000980002000000010410405030646411641826942330503000007098016   1020000200030000   333400010001204104000000281Myanmar Soft-Gate Tech Yangon        MMR11005030646411641820503000000000000000   10300001F05104100000000000206000000000000     
100   95050318057347910000000000030000000000030000002000000010410405031248251825360241990503000007100623   1030000200030000   3338000100012031040000040022C2P (Myanmar) Co. Ltd Yangon        MMR11005031248251825360503000000000000000   10300001F05104100000000006300000000000000     
100   62911028202676220000000000010070000000010070002000000010410405030615274527754369000503000007097734   1030000200030000   333800010001203104000003327KBZPay                 Yangon        MMR11005030615274527750503000000000000000   10300001F05104100000000002115000000000000     
100   62911028202118690000000000022750000000022750002000000010410405030711192012154369000503212314201215   1040001600030000   541120000571000000010000465Ocean Shwe Gone Daing  Yangon        MMR11005030711192012150503000000000000000   10300001F00104100000000001365000000000000     
100   95030301100125230000000000005000000000005000002000000010410405022352572257104369000503000007094727   1030000200030000   333800010001203104000003327KBZPay                 Yangon        MMR11005022352572257100503000000000000000   10300001F05104100000000001050000000000000     
100   62911028202533900000000000005200000000005200002000000010410405030955495315534369000503339251649122   1030000900030000   541119001195190110000000942City Mart HDC C 10     YANGONUT      MMR11005030955495315530503000000000000000   10300001F00104100000000000312000000000000     
100   62911028202184760000000000070000000000070000002000000010410405020239160005944369000502212209000594   1030000500030000   541120020801022205411200208ORANGE (TAMWE)         PTN           MMR11005020239160005940502000000000000000   10300001 00104100000000004200000000000000     
100   95030301100215990000000000026500000000026500002000000010410405020833450006604369000502212215000660   1030000500030000   573220039601000065732200396REMAX                  PTN           MMR11005020833450006600502000000000000000   10300001 00104100000000001590000000000000     
100   62911028202531350000000000050000000000050000002000000010410405020359550017074369000502212210001707   1030000500030000   598320001301000015172200013MAX ENERGY             PTN           MMR11005020359550017070502000000000000000   10300001 00104100000000001500000000000000     
100   62443101037081820000000000052000000000052000002000000010410405020407060017256357720502212210001725   1030000500030000   598320001404000015172200014MAX ENERGY             PTN           MMR11005020407060017250502000000000000000   10300001 00104100000000006240000000000000     
100   95050314108819790000000000300000000000300000002000000010410405030657382738435545140503000007098112   1030000200030000   333800010001203104000003327KBZPay                 Yangon        MMR11005030657382738430503000000000000000   10300001F05104100000000063000000000000000     
100   95050316184853420000000000020000000000020000002000000010410405030401473147970085190503000007096417   1030000200030000   333800010001203104000003327KBZPay                 Yangon        MMR11005030401473147970503000000000000000   10300001F05104100000000004200000000000000     
100   95030367537085740000000000000980000000000980002000000010410405031440541054604369000503000007101151   1020000200030000   333400010001204104000000281Myanmar Soft-Gate Tech Yangon        MMR11005031440541054600503000000000000000   10300001F05104100000000000206000000000000     
100   95050323067379780000000000300000000000300000002000000010410405030651562156460757880503000007098067   1030000200030000   333800010001203104000003327KBZPay                 Yangon        MMR11005030651562156460503000000000000000   10300001F05104100000000063000000000000000     
100   95050316736513170000000000000980000000000980002000000010410405030501133113900071400503000007097046   1020000200030000   333400010001204104000000281Myanmar Soft-Gate Tech Yangon        MMR11005030501133113900503000000000000000   10300001F05104100000000000206000000000000     
100   95050319220344710000000000013000000000013000002000000010410405031545211521066341350503000007101393   1030000900030000   333400010001202104000002022ACS                    Yangon        MMR11005031545211521060503000000000000000   10300001F05104100000000002730000000000000     
100   95050312695033440000000000002940000000002940002000000010410405030800383038176077590503000007098715   1020000200030000   333400010001204104000000281Myanmar Soft-Gate Tech Yangon        MMR11005030800383038170503000000000000000   10300001F05104100000000000617000000000000     
100   95050328074436620000000000009800000000009800002000000010410405030200403040020397990503000007095127   1020000200030000   333400010001204104000000281Myanmar Soft-Gate Tech Yangon        MMR11005030200403040020503000000000000000   10300001F05104100000000002058000000000000     
100   95030308100042590000000000095000000000095000002000000010410405020654240006424369000502212213000642   1030000500030000   598320001702000015172200017MAX ENERGY             PTN           MMR11005020654240006420502000000000000000   10300001 00104100000000002850000000000000     
100   95030308100042590000000000072000000000072000002000000010410405020659070006434369000502212213000643   1030000500030000   598320001702000015172200017MAX ENERGY             PTN           MMR11005020659070006430502000000000000000   10300001 00104100000000002160000000000000     
100   62911028202531350000000000050000000000050000002000000010410405020400390017084369000502212210001708   1030000500030000   598320001301000015172200013MAX ENERGY             PTN           MMR11005020400390017080502000000000000000   10300001 00104100000000001500000000000000     
100   95050312554086980000000000005500000000005500002000000010410405020703370040365748260502000343105084   1030000300030000   591200000169000000000000084CB BANK                MEDICARE STOR MMR11005020703370040360502000000000000000   10300001F00104100000000001320000000000000     
100   95050329252108030000000000094000000000094000002000000010410405020955200002487987710502212216000248   1030000500030000   598320002101000015172200021MAX ENERGY             PTN           MMR11005020955200002480502000000000000000   10300001 00104100000000011280000000000000     
100   62911028202194090000000000022000000000022000002000000010410405020752320013084369000502212214001308   1030000500030000   598320001203000015172200012MAX ENERGY             PTN           MMR11005020752320013080502000000000000000   10300001 00104100000000000660000000000000     
100   62911028202194090000000000029500000000029500002000000010410405020812000013474369000502212214001347   1030000500030000   598320001204000015172200012MAX ENERGY             PTN           MMR11005020812000013470502000000000000000   10300001 00104100000000000885000000000000     
100   62911028202531350000000000080000000000080000002000000010410405020401020017094369000502212210001709   1030000500030000   598320001301000015172200013MAX ENERGY             PTN           MMR11005020401020017090502000000000000000   10300001 00104100000000002400000000000000     
100   95050316563230820000000000050000000000050000002000000010410405031308173817830497280503000007100723   1030000200030000   333800010001203104000003327KBZPay                 Yangon        MMR11005031308173817830503000000000000000   10300001F05104100000000010500000000000000     
100   95050318621775380000000000015000000000015000002000000010410405031508183818439731420503000007101248   1030000200030000   3338000100012031040000040022C2P (Myanmar) Co. Ltd Yangon        MMR11005031508183818430503000000000000000   10300001F05104100000000003150000000000000     
100   62911028202809060000000000200000000000200000002000000010410405031013434343664369000503000007099922   1030000200030000   333800010001203104000003327KBZPay                 Yangon        MMR11005031013434343660503000000000000000   10300001F05104100000000042000000000000000     
100   62911028202175770000000000119800000000119800002000000010410405031645490274884369000503000746476914   1030000200030000   541188001012000008000000008KBZ BANK               MARKETPLACE - MMR11005031645490274880503000000000000000   10300001 00104100000000007188000000000000     
100   95050315110306410000000000003000000000003000002000000010410405030334190419060966090503000007096066   1030000200030000   333800010001203104000003327KBZPay                 Yangon        MMR11005030334190419060503000000000000000   10300001F05104100000000000630000000000000     
100   95050314565805350000000000050000000000050000002000000010410405030844171417375517560503000007099144   1030000200030000   333800010001203104000003327KBZPay                 Yangon        MMR11005030844171417370503000000000000000   10300001F05104100000000010500000000000000     
100   95050312224678430000000000000980000000000980002000000010410405031347191719703717160503000007100901   1020000200030000   333400010001204104000000281Myanmar Soft-Gate Tech Yangon        MMR11005031347191719700503000000000000000   10300001F05104100000000000206000000000000     
100   62443100393841160000000000300000000000300000002000000010410405030047491749349717220503000007094822   1030000200030000   333800010001203104000003327KBZPay                 Yangon        MMR11005030047491749340503000000000000000   10300001F05104100000000063000000000000000     
100   95030337100000390000000000092850000000092850002000000010410405020442170012884369000502000343082022   1030000300030000   541100000957000000000000683CB BANK                ONE STOP KITC MMR11005020442170012880502000000000000000   10300001F00104100000000005571000000000000     
100   62911028202212490000000000009300000000009300002000000010410405020420000002804369000502212210000280   1030000500030000   581220195901000085812201959AKKHAYA TEA HOUSE      PTN           MMR11005020420000002800502000000000000000   10300001 00104100000000000949000000000000     
100   62911028202443730000000000020000000000020000002000000010410405020911130020804369000502212215002080   1030000500030000   598320001904000015172200019MAX ENERGY             PTN           MMR11005020911130020800502000000000000000   10300001 00104100000000000600000000000000     
100   95030301100215990000000000006250000000006250002000000010410405020826570010904369000502000343118413   1030000300030000   531100000838000000000000574CB BANK                MGOU          MMR11005020826570010900502000000000000000   10300001F00104100000000000375000000000000     
100   62911028202169750000000000025850000000025850002000000010410405020842030002024369000502212215000202   1030000500030000   591220012001014405912200120SHWE OHH PHARMACY      PTN           MMR11005020842030002020502000000000000000   10300001 00104100000000001551000000000000     
100   62911028202125290000000000040000000000040000002000000010410405020347260014754369000502212210001475   1030000500030000   598320001303000015172200013MAX ENERGY             PTN           MMR11005020347260014750502000000000000000   10300001 00104100000000001200000000000000     
100   95050324154190880000000000032000000000032000002000000010410405021009250016850562470502000343133540   1030000300030000   591200000292000000000000173CB BANK                MEDICARE STOR MMR11005021009250016850502000000000000000   10300001F00104100000000007680000000000000     
100   62911028202680670000000000036000000000036000002000000010410405020954020017754369000502212216001775   1030000500030000   598320001301000015172200013MAX ENERGY             PTN           MMR11005020954020017750502000000000000000   10300001 00104100000000001080000000000000     
