100   95050319604564870000000000015000000000015000002000000010410405040059442944987568350504000007101975   1030000200030000   333800010001203104000003327KBZPay                 Yangon        MMR11005040059442944980504000000000000000   10300001F05104100000000003150000000000000     
100   95050325139996190000000000093600000000093600002000000010410405040315164516621433350504000007102728   1030000200030000   333300010001203104000003632Myanmar Tradenet Test  Yangon        MMR11005040315164516620504000000000000000   10300001F05104100000000010000000000000000     
100   95050316321163940000000000000980000000000980002000000010410405040009243924887738540504000007101849   1020000200030000   333400010001204104000000281Myanmar Soft-Gate Tech Yangon        MMR11005040009243924880504000000000000000   10300001F05104100000000000206000000000000     
100   95050314567755980000000000011000000000011000002000000010410405032321065106059901610504000007101808   1030000200030000   333800010001203104000003327KBZPay                 Yangon        MMR11005032321065106050504000000000000000   10300001F05104100000000002310000000000000     
100   62911028202615180000000000439000000000439000002000000010410405040445072579754369000504212411257975   1040001600030000   573220000396000000010000372Snoopy Mobile (North D Yangon        MMR11005040445072579750504000000000000000   10300001F00104100000000026340000000000000     
100   95050325305150830000000000000980000000000980002000000010410405031801333133345114350504000007101665   1020000200030000   333400010001204104000000281Myanmar Soft-Gate Tech Yangon        MMR11005031801333133340504000000000000000   10300001F05104100000000000206000000000000     
100   62911028202204800000000000036800000000036800002000000010410405041047182778234369000504212417277823   1040001600030000   591220000278000000010000266Shwe Ohh Pharmacy (Bah Yangon        MMR11005041047182778230504000000000000000   10300001F00104100000000002208000000000000     
100   62911028202243670000000000025550000000025550002000000010410405040600442621334369000504212413262133   1040001600030000   591220000288000000010000276Shwe Ohh Pharmacy (Nor Yangon        MMR11005040600442621330504000000000000000   10300001F00104100000000001533000000000000     
100   62911028202615180000000000046800000000046800002000000010410405040846312704394369000504212415270439   1040001600030000   573220000396000000010000372Snoopy Mobile (North D Yangon        MMR11005040846312704390504000000000000000   10300001F00104100000000002808000000000000     
100   95050313123223200000000000001960000000001960002000000010410405040325225522844089440504000007102888   1020000200030000   333400010001204104000000281Myanmar Soft-Gate Tech Yangon        MMR11005040325225522840504000000000000000   10300001F05104100000000000412000000000000     
100   62443100309698080000000000038900000000038900002000000010410405040516245454686784940504260461124123   1030000900030000   541119000155190110000000083SeinGayHarParami Cente YANGON        MMR11005040516245454680504000000000000000   10300001F00104100000000009725000000000000     
100   95050315833864180000000000439000000000439000002000000010410405040715015481247845510504826451301123   1030000900030000   573219001178190110000000934UNIQUE Pansodan        YANGONADA     MMR11005040715015481240504000000000000000   10300001F00104100000000105360000000000000     
100   62911028202318180000000000038900000000038900002000000010410405041002565519924369000504105321656123   1030000900030000   541119001113190110000000872Sein Gay Har Hledan    YANGONUT      MMR11005041002565519920504000000000000000   10300001F00104100000000002334000000000000     
100   95050325139996190000000000093600000000093600002000000010410405040326515651062096560504000007102891   1030000200030000   333300010001203104000003632Myanmar Tradenet Test  Yangon        MMR11005040326515651060504000000000000000   10300001F05104100000000010000000000000000     
100   95050321455580800000000000102816000000102816002000000010410405031825275527315029250504000007101687   1030000900030000   333800010001202104000003301uab bank               Yangon        MMR11005031825275527310504000000000000000   10300001F05104100000000021592000000000000     
100   62911028202318180000000000198000000000198000002000000010410405040938085513444369000504703081608123   1030000900030000   541119001081190110000000872Sein Gay Har Hledan    YANGONUT      MMR11005040938085513440504000000000000000   10300001F00104100000000011880000000000000     
100   95050320335873810000000000060000000000060000002000000010410405040326535653370444080504000007102912   1030000200030000   333800010001203104000003327KBZPay                 Yangon        MMR11005040326535653370504000000000000000   10300001F05104100000000012600000000000000     
100   62911028202204490000000000038000000000038000002000000010410405031147120833064369000503212311083306   1030000600030000   554100000946315799420000471DENKO BAHAN            YANGON        MMR11005031147120833060503000000000000000   10300001 00104100000000001140000000000000     
100   62911028202196800000000000064300000000064300002000000010410405040938145513484369000504706081614123   1030000900030000   591219000694190110000000525Shwe Ohh Pharmacy ST-2 YANGONAW      MMR11005040938145513480504000000000000000   10300001F00104100000000003858000000000000     
100   62911028202460220000000000035000000000035000002000000010410405031017100014884369000503212316001488   1030000500030000   598320001203000015172200012MAX ENERGY             PTN           MMR11005031017100014880503000000000000000   10300001 00104100000000001050000000000000     
100   95030352597917530000000000050000000000050000002000000010410405041626325632754369000504000007108404   1030000200030000   333800010001203104000003327KBZPay                 Yangon        MMR11005041626325632750504000000000000000   10300001F05104100000000010500000000000000     
100   95050315344668630000000000006300000000006300002000000010410405041028075526818819180504541581607123   1030000900030000   541119000112190110000000077Sein Gay Har Chinatown YANGON        MMR11005041028075526810504000000000000000   10300001F00104100000000001575000000000000     
100   95030308100042590000000000022300000000022300002000000010410405041025075526124369000504500551607123   1030000900030000   541119001216190110000000945City Mart TM C 1       YANGONONE     MMR11005041025075526120504000000000000000   10300001F00104100000000001338000000000000     
100   95030301100119390000000000001300000000001300002000000010410405030821110008154369000503212314000815   1030000500030000   541120020902022205411200209ORANGE (HLAING)        PTN           MMR11005030821110008150503000000000000000   10300001 00104100000000000078000000000000     
100   62911028202248050000000000025000000000025000002000000010410405020527400319064369000502212205031906   1030000600030000   554100001155315799420000607DENKO NPT 1            NAYPYITAW.    MMR11005020527400319060502000000000000000   10300001 00104100000000000750000000000000     
100   95050314735271470000000000020000000000020000002000000010410405040138570857111128610504000007102098   1030000200030000   333800010001203104000003327KBZPay                 Yangon        MMR11005040138570857110504000000000000000   10300001F05104100000000004200000000000000     
100   95050316717221100000000000031350000000031350002000000010410405031104340004192901850503000343317851   1030000300030000   591200000215000000000000112CB BANK                MEDICARE STOR MMR11005031104340004190503000000000000000   10300001F00104100000000007524000000000000     
100   62911028202440680000000000015000000000015000002000000010410405040935135512634369000504653051613123   1030000900030000   591219000970190110000000777Shwe Ohh Pharmacy St ( YANGONAW      MMR11005040935135512630504000000000000000   10300001F00104100000000000900000000000000     
100   62911028202196800000000000003000000000003000002000000010410405041034465528644369000504665041746123   1030000900030000   541119001372190110000000978Ocean PZD Season C 2   YANGONAUNG    MMR11005041034465528640504000000000000000   10300001F00104100000000000180000000000000     
100   62443100313529540000000000005000000000005000002000000010410405041057165535108478790504101271716123   1030000900030000   541119000112190110000000077Sein Gay Har Chinatown YANGON        MMR11005041057165535100504000000000000000   10300001F00104100000000001250000000000000     
100   95050310794962000000000000001000000000001000002000000010410405040325035503890784470504000007102885   1030000200030000   3338000100012031040000040022C2P (Myanmar) Co. Ltd Yangon        MMR11005040325035503890504000000000000000   10300001F05104100000000000210000000000000     
100   62911028202154800000000000007500000000007500002000000010410405040909565506694369000504293391556123   1030000900030000   541119001265190110000000958City Mart PLST C 8     YANGONMYOTHIT MMR11005040909565506690504000000000000000   10300001F00104100000000000450000000000000     
100   95050324133333980000000000025950000000025950002000000010410405041035135528721783760504670051713123   1030000900030000   541119000290190110000000178Pro (1) Global (East D YANGONMYOTHIT MMR11005041035135528720504000000000000000   10300001F00104100000000006488000000000000     
100   95030301100119390000000000059450000000059450002000000010410405030819560008144369000503212314000814   1030000500030000   541120020902022205411200209ORANGE (HLAING)        PTN           MMR11005030819560008140503000000000000000   10300001 00104100000000003567000000000000     
100   95050327285327260000000000101325000000101325002000000010410405040738135486124115060504085081413123   1030000900030000   541119001355190110000000977Ocean PZD C9           YANGONAUNG    MMR11005040738135486120504000000000000000   10300001F00104100000000025332000000000000     
100   95050310456843760000000000021750000000021750002000000010410405041059085535686826300504148291708123   1030000900030000   541119000124190110000000080Sein Gay Har BAK       YANGONADA     MMR11005041059085535680504000000000000000   10300001F00104100000000005438000000000000     
100   62443100397667340000000000020000000000020000002000000010410405040940375514204322850504753101637123   1030000900030000   554119001103190110000000215New Day Energy MYG     YANGONONE     MMR11005040940375514200504000000000000000   10300001F00104100000000002400000000000000     
100   62443100355445150000000000067500000000067500002000000010410405030345180001383129150503212310000138   1030000500030000   569120051501000015691200515AMERICAN BRANDED COLLE PTN           MMR11005030345180001380503000000000000000   10300001 00104100000000016200000000000000     
100   62911028202174450000000000047080000000047080002000000010410405030755530013604369000503212314001360   1030000500030000   598320001602000015172200016MAX ENERGY             PTN           MMR11005030755530013600503000000000000000   10300001 00104100000000001412000000000000     
100   95050320531117320000000000009450000000009450002000000010410405030913550013594460750503000343302267   1030000300030000   581200000378000000000000257CB BANK                UNCLE TETSU B MMR11005030913550013590503000000000000000   10300001F00104100000000004017000000000000     
100   62911028202335820000000000037000000000037000002000000010410405031138560052644369000503212311005264   1030000600030000   554100000744315799420000322DENKO AMARAPURA-PACHI  MANDALAY      MMR11005031138560052640503000000000000000   10300001 00104100000000001110000000000000     
100   62443101025940470000000000012420000000012420002000000010410405030913090037249843690503212309003724   1030000600030000   581200001313315799420000758HORIZON RESTAURANT     HLAING THAR Y MMR11005030913090037240503000000000000000   10300001 00104100000000005279000000000000     
100   95050321232876860000000000104000000000104000002000000010410405030901150111074035270503212309011107   1030000600030000   554100002328315799420001235DENKO NAY PYI TAW 2    NAYPYITAW     MMR11005030901150111070503000000000000000   10300001 00104100000000012480000000000000     
100   95030301100129110000000000039000000000039000002000000010410405030328150020374369000503212309002037   1030000500030000   598320001401000015172200014MAX ENERGY             PTN           MMR11005030328150020370503000000000000000   10300001 00104100000000001170000000000000     
100   62443101025940470000000000011730000000011730002000000010410405030914080037252808270503212309003725   1030000600030000   581200001313315799420000758HORIZON RESTAURANT     HLAING THAR Y MMR11005030914080037250503000000000000000   10300001 00104100000000004986000000000000     
100   62911028202023630000000000039000000000039000002000000010410405030143430267834369000503212301026783   1030000600030000   554100000725315799420000306DENKO MDY - 78         MANDALAY      MMR11005030143430267830503000000000000000   10300001 00104100000000001170000000000000     
100   95050324411430900000000000025000000000025000002000000010410405030529020148249610260503212305014824   1030000600030000   554100002085315799420000471DENKO BAHAN            YANGON        MMR11005030529020148240503000000000000000   10300001 00104100000000003000000000000000     
100   95050329632900220000000000060000000000060000002000000010410405030323000018433433880503212309001843   1030000500030000   598320001301000015172200013MAX ENERGY             PTN           MMR11005030323000018430503000000000000000   10300001 00104100000000007200000000000000     
100   62443101096632410000000000075000000000075000002000000010410405031318542264745454740503212320226474   1040001600030000   598320000310000000010000298PT Power Petrol Statio Yangon        MMR11005031318542264740503000000000000000   10300001F00104100000000009000000000000000     
100   62911028202448030000000000010890000000010890002000000010410405030342391907204369000503212310190720   1040001600030000   581420000803000000010000579Jeff's Kitchen (Ahlone Yangon        MMR11005030342391907200503000000000000000   10300001F00104100000000000327000000000000     
100   62911028202366010000000000020800000000020800002000000010410405040337010089894369000504140091058123   1030000500030000   555610103956104519000003818Ocean Oattara Thiri Na PyiTaw        MMR11005040337010089890504000000000000000   10300001 00104100000000001248000000000000     
100   95050314292165140000000000015000000000015000002000000010410405040230330033050788230504000007102334   1030000200030000   3338000100012031040000040022C2P (Myanmar) Co. Ltd Yangon        MMR11005040230330033050504000000000000000   10300001F05104100000000003150000000000000     
100   95030305100040620000000000245350000000245350002000000010410405041005520093294369000504000746499243   1030000200030000   541188001002000008000000008KBZ BANK               MARKETPLACE - MMR11005041005520093290504000000000000000   10300001 00104100000000014721000000000000     
100   95050319928585020000000000001960000000001960002000000010410405040243481348180291440504000007102423   1020000200030000   333400010001204104000000281Myanmar Soft-Gate Tech Yangon        MMR11005040243481348180504000000000000000   10300001F05104100000000000412000000000000     
100   95050310178107440000000000020000000000020000002000000010410405040332590259763919240504000007103000   1030000200030000   3338000100012031040000040022C2P (Myanmar) Co. Ltd Yangon        MMR11005040332590259760504000000000000000   10300001F05104100000000004200000000000000     
100   62911028202117290000000000100000000000100000002000000010410405040332160216554369000504000007102975   1030000200030000   333800010001203104000003327KBZPay                 Yangon        MMR11005040332160216550504000000000000000   10300001F05104100000000021000000000000000     
100   95050323233042810000000000004900000000004900002000000010410405040333380338926167400504000007103007   1020000200030000   333400010001204104000000281Myanmar Soft-Gate Tech Yangon        MMR11005040333380338920504000000000000000   10300001F05104100000000001029000000000000     
100   95030301100346910000000000050000000000050000002000000010410405040254052405094369000504000007102493   1030000300030000   333300010001206104000002147DICA Company Limited   Yangon        MMR11005040254052405090504000000000000000   10300001F05104100000000010000000000000000     
100   95050323133124350000000000005000000000005000002000000010410405032043281328863376770504000007101738   1040001600030000   333800010001220104000004507A +                    Yangon        MMR11005032043281328860504000000000000000   10300001F05104100000000001050000000000000     
100   95030301100183220000000000150000000000150000002000000010410405032206093609274369000504000007101774   1030000500030000   333800010001201104000003863AYA Pay                Yangon        MMR11005032206093609270504000000000000000   10300001F05104100000000031500000000000000     
100   62911028202448030000000000045000000000045000002000000010410405040955582739634369000504212416273963   1040001600030000   598320000658000000010000527Shwe Taung Energy (YGN Yangon        MMR11005040955582739630504000000000000000   10300001F00104100000000001350000000000000     
100   62911028202099050000000000021000000000021000002000000010410405040802155491284369000504392321415123   1030000900030000   569119001498190110000001092Next Generation GCS GM YANGONUT      MMR11005040802155491280504000000000000000   10300001F00104100000000001260000000000000     
100   62911028202509170000000000004550000000004550002000000010410405041143522825754369000504212418282575   1040001600030000   591220000282000000010000270Shwe Ohh Pharmacy (Shw Yangon        MMR11005041143522825750504000000000000000   10300001F00104100000000000273000000000000     
100   95050315701710960000000000001960000000001960002000000010410405040301263126518553860504000007102555   1020000200030000   333400010001204104000000281Myanmar Soft-Gate Tech Yangon        MMR11005040301263126510504000000000000000   10300001F05104100000000000412000000000000     
100   62911028202243420000000000021990000000021990002000000010410405040612035467344369000504003421203123   1030000900030000   541119001264190110000000958City Mart PLST C 7     YANGONMYOTHIT MMR11005040612035467340504000000000000000   10300001F00104100000000001319000000000000     
100   62911028202289130000000000031000000000031000002000000010410405040647102646374369000504212413264637   1040001600030000   598320000658000000010000527Shwe Taung Energy (YGN Yangon        MMR11005040647102646370504000000000000000   10300001F00104100000000000930000000000000     
100   62911028202289130000000000033400000000033400002000000010410405041102282790584369000504212418279058   1040001600030000   591220000275000000010000263Shwe Ohh Pharmacy (Hla Yangon        MMR11005041102282790580504000000000000000   10300001F00104100000000002004000000000000     
100   62911028202313470000000000058554000000058554002000000010410405040459575451554369000504099291157123   1030000900030000   541119001353190110000000977Ocean PZD C 7          YANGONAUNG    MMR11005040459575451550504000000000000000   10300001F00104100000000003513000000000000     
100   95050310283577350000000000010000000000010000002000000010410405040324425442150699370504000007102532   1030000300030000   333300010001206104000002147DICA Company Limited   Yangon        MMR11005040324425442150504000000000000000   10300001F05104100000000010000000000000000     
100   95050321455580800000000000180000000000180000002000000010410405031808303830706766830504000007101673   1030000200030000   333800010001203104000003327KBZPay                 Yangon        MMR11005031808303830700504000000000000000   10300001F05104100000000037800000000000000     
100   62911028202163630000000000007500000000007500002000000010410405040320562540384369000504212410254038   1040001600030000   591220000288000000010000276Shwe Ohh Pharmacy (Nor Yangon        MMR11005040320562540380504000000000000000   10300001F00104100000000000450000000000000     
100   95050325139996190000000000093600000000093600002000000010410405040318414841294312830504000007102782   1030000200030000   333300010001203104000003632Myanmar Tradenet Test  Yangon        MMR11005040318414841290504000000000000000   10300001F05104100000000010000000000000000     
100   95050325139996190000000000093600000000093600002000000010410405040306593659465248890504000007102624   1030000200030000   333300010001203104000003632Myanmar Tradenet Test  Yangon        MMR11005040306593659460504000000000000000   10300001F05104100000000010000000000000000     
100   95050325139996190000000000093600000000093600002000000010410405040323105310789046880504000007102850   1030000200030000   333300010001203104000003632Myanmar Tradenet Test  Yangon        MMR11005040323105310780504000000000000000   10300001F05104100000000010000000000000000     
100   95050320205194540000000000028650000000028650002000000010410405040941592732265890250504212416273226   1040001600030000   591220000295000000010000283Shwe Ohh Pharmacy (39t Yangon        MMR11005040941592732260504000000000000000   10300001F00104100000000006876000000000000     
100   62443101025940470000000000050000000000050000002000000010410405041137112819405939690504212418281940   1040001600030000   598320001127000000010000608Terminal Petrol Statio Yangon        MMR11005041137112819400504000000000000000   10300001F00104100000000006000000000000000     
100   62911028202474000000000000062000000000062000002000000010410405041059362788254369000504212417278825   1040001600030000   598320001170000000010000527Shwe Taung Energy (YGN Yangon        MMR11005041059362788250504000000000000000   10300001F00104100000000001860000000000000     
100   95030360160133170000000000007120000000007120002000000010410405031236030016094369000503000343330213   1030000300030000   504700000295000000000000176CB BANK                MEDICARE STOR MMR11005031236030016090503000000000000000   10300001F00104100000000000427000000000000     
100   95050311959900780000000000000980000000000980002000000010410405040313484348177787990504000007102717   1020000200030000   333400010001204104000000281Myanmar Soft-Gate Tech Yangon        MMR11005040313484348170504000000000000000   10300001F05104100000000000206000000000000     
100   62911028202533900000000000020000000000020000002000000010410405030926550016684369000503212315001668   1030000500030000   598320001403000015172200014MAX ENERGY             PTN           MMR11005030926550016680503000000000000000   10300001 00104100000000000600000000000000     
100   62911028202474180000000000021000000000021000002000000010410405031225100009514369000503212318000951   1030000500030000   598320041901000055983200419MAX ENERGY             PTN           MMR11005031225100009510503000000000000000   10300001 00104100000000000630000000000000     
100   62443100343312450000000000031000000000031000002000000010410405041136422819030982240504212418281903   1040001600030000   598320001170000000010000527Shwe Taung Energy (YGN Yangon        MMR11005041136422819030504000000000000000   10300001F00104100000000003720000000000000     
100   95050325139996190000000000093600000000093600002000000010410405040312134213893426210504000007102692   1030000200030000   333300010001203104000003632Myanmar Tradenet Test  Yangon        MMR11005040312134213890504000000000000000   10300001F05104100000000010000000000000000     
100   95050313123223200000000000000980000000000980002000000010410405040322225222284004340504000007102838   1020000200030000   333400010001204104000000281Myanmar Soft-Gate Tech Yangon        MMR11005040322225222280504000000000000000   10300001F05104100000000000206000000000000     
100   62911028202260320000000000243700000000243700002000000010410405040450272582414369000504212411258241   1040001600030000   591220000626000000010000497AAA Pharmacy           Ygn           MMR11005040450272582410504000000000000000   10300001F00104100000000014622000000000000     
100   62443100309698080000000000053154000000053154002000000010410405040559485464629543670504844291248123   1030000900030000   541119001217190110000000945City Mart TM C 2       YANGONONE     MMR11005040559485464620504000000000000000   10300001F00104100000000013289000000000000     
100   95030361482647470000000000040000000000040000002000000010410405031048210028864369000503212317002886   1030000500030000   598320001902000015172200019MAX ENERGY             PTN           MMR11005031048210028860503000000000000000   10300001 00104100000000001200000000000000     
100   95030353305053700000000000020160000000020160002000000010410405040235170517964369000504000007102364   1030000900030000   333800010001202104000003301uab bank               Yangon        MMR11005040235170517960504000000000000000   10300001F05104100000000004234000000000000     
100   62443100370782070000000000038000000000038000002000000010410405020342000318840810310502212203031884   1030000600030000   554100001155315799420000607DENKO NPT 1            NAYPYITAW.    MMR11005020342000318840502000000000000000   10300001 00104100000000004560000000000000     
100   95050323282717740000000000014400000000014400002000000010410405030759340003012176940503000343291503   1030000300030000   591200000323000000000000203CB BANK                MEDICARE STOR MMR11005030759340003010503000000000000000   10300001F00104100000000003456000000000000     
100   95030301100124570000000000030000000000030000002000000010410405030815070005144369000503212314000514   1030000500030000   598320002103000015172200021MAX ENERGY             PTN           MMR11005030815070005140503000000000000000   10300001 00104100000000000900000000000000     
100   62911028202126850000000000055000000000055000002000000010410405031211070015064369000503212318001506   1030000500030000   598320001203000015172200012MAX ENERGY             PTN           MMR11005031211070015060503000000000000000   10300001 00104100000000001650000000000000     
100   95050310456843760000000000013300000000013300002000000010410405031115220001735866430503212317000173   1030000500030000   591220014201014405912200142SHWE OHH PHARMACY      PTN           MMR11005031115220001730503000000000000000   10300001 00104100000000003192000000000000     
100   95050323282717740000000000048550000000048550002000000010410405030808380003038155550503000343292908   1030000300030000   591200000323000000000000203CB BANK                MEDICARE STOR MMR11005030808380003030503000000000000000   10300001F00104100000000011652000000000000     
100   95030379578686440000000000015400000000015400002000000010410405031257060007184369000503212319000718   1030000500030000   541120020801022205411200208ORANGE (TAMWE)         PTN           MMR11005031257060007180503000000000000000   10300001 00104100000000000924000000000000     
100   62911028202790310000000000054000000000054000002000000010410405030157320013234369000503212308001323   1030000500030000   598320001602000015172200016MAX ENERGY             PTN           MMR11005030157320013230503000000000000000   10300001 00104100000000001620000000000000     
100   62911028202221220000000000008000000000008000002000000010410405030015100018124369000503212306001812   1030000500030000   598320001301000015172200013MAX ENERGY             PTN           MMR11005030015100018120503000000000000000   10300001 00104100000000000240000000000000     
100   62443100372360940000000000032194000000032194002000000010410405031414580013423206580503000343341783   1030000300030000   541100000957000000000000683CB BANK                ONE STOP KITC MMR11005031414580013420503000000000000000   10300001F00104100000000008049000000000000     
100   62443100330048680000000000042000000000042000002000000010410405030419200017008383260503212310001700   1030000500030000   598320001103000015172200011MAX ENERGY             PTN           MMR11005030419200017000503000000000000000   10300001 00104100000000005040000000000000     
100   62443100371022130000000000042000000000042000002000000010410405030454340014709659700503212311001470   1030000500030000   598320001201000015172200012MAX ENERGY             PTN           MMR11005030454340014700503000000000000000   10300001 00104100000000005040000000000000     
100   62443100375796910000000000091007000000091007002000000010410405030949110013660058010503212316001366   1030000500030000   598320001601000015172200016MAX ENERGY             PTN           MMR11005030949110013660503000000000000000   10300001 00104100000000010921000000000000     
100   62911028202261800000000000040000000000040000002000000010410405030737420016964369000503212314001696   1030000500030000   598320001001000015172200010MAX ENERGY             PTN           MMR11005030737420016960503000000000000000   10300001 00104100000000001200000000000000     
100   62911028202500810000000000178850000000178850002000000010410405030248280004104369000503212309000410   1030000500030000   806220172409013008062201724GRAND HANTHA HOSPITAL  PTN           MMR11005030248280004100503000000000000000   10300001 00104100000000010731000000000000     
100   62911028202124200000000000093757000000093757002000000010410405031057280006444369000503212317000644   1030000500030000   806220172406013008062201724GRAND HANTHA HOSPITAL  PTN           MMR11005031057280006440503000000000000000   10300001 00104100000000005625000000000000     
100   62443100372718280000000000062220000000062220002000000010410405030445490004144872450503212311000414   1030000500030000   806220172409013008062201724GRAND HANTHA HOSPITAL  PTN           MMR11005030445490004140503000000000000000   10300001 00104100000000014933000000000000     
100   62911028202116610000000000060000000000060000002000000010410405031324270014254369000503212319001425   1030000500030000   598320001602000015172200016MAX ENERGY             PTN           MMR11005031324270014250503000000000000000   10300001 00104100000000001800000000000000     
100   62911028202449100000000000140000000000140000002000000010410405030929570015114369000503212315001511   1030000500030000   598320001201000015172200012MAX ENERGY             PTN           MMR11005030929570015110503000000000000000   10300001 00104100000000004200000000000000     
100   95050325925517520000000000032800000000032800002000000010410405030346070001402788760503212310000140   1030000500030000   569120051501000015691200515AMERICAN BRANDED COLLE PTN           MMR11005030346070001400503000000000000000   10300001 00104100000000007872000000000000     
100   62911028202528710000000000020000000000020000002000000010410405030135490014064369000503212308001406   1030000500030000   598320002004000015172200020MAX ENERGY             PTN           MMR11005030135490014060503000000000000000   10300001 00104100000000000600000000000000     
