100   62911028202112730000000000059900000000059900002000000010410405050944050275534369000505000746558235   1030000200030000   541188001012000008000000008KBZ BANK               MARKETPLACE - MMR11005050944050275530505000000000000000   10300001 00104100000000003594000000000000     
100   62911028202124200000000000031800000000031800002000000010410405031017290197214369000503212310019721   1030000600030000   809900000537315799420000147GRAND HANTHA HOSPITAL  YANGON        MMR11005031017290197210503000000000000000   10300001 00104100000000001908000000000000     
100   95030301100121270000000000030000000000030000002000000010410405041247320482764369000504212412048276   1030000600030000   554100001756315799420001137DENKO NORTH DAGON 2    YANGON        MMR11005041247320482760504000000000000000   10300001 00104100000000000900000000000000     
100   95050319928585020000000000001000000000001000002000000010410405050812194219402210640505000007112236   1030000200030000   3338000100012031040000040022C2P (Myanmar) Co. Ltd Yangon        MMR11005050812194219400505000000000000000   10300001F05104100000000000210000000000000     
100   95050317903887690000000000000980000000000980002000000010410405050026235623291479030505000007108749   1020000200030000   333400010001204104000000281Myanmar Soft-Gate Tech Yangon        MMR11005050026235623290505000000000000000   10300001F05104100000000000206000000000000     
100   62911028202525660000000000030000000000030000002000000010410405050448015648644369000505804181101124   1030000900030000   554119001101190110000000213New Day Energy SOK     YANGONOKKALAP MMR11005050448015648640505000000000000000   10300001F00104100000000000900000000000000     
100   95030301100121680000000000020000000000020000002000000010410405051150032003884369000505000007113491   1030000200030000   333800010001203104000003327KBZPay                 Yangon        MMR11005051150032003880505000000000000000   10300001F05104100000000004200000000000000     
100   62911028202077190000000000000980000000000980002000000010410405051500473047014369000505000007114325   1020000200030000   333400010001204104000000281Myanmar Soft-Gate Tech Yangon        MMR11005051500473047010505000000000000000   10300001F05104100000000000206000000000000     
100   62911028202789750000000000017350000000017350002000000010410405051210123490894369000505212519349089   1040001600030000   591220000271000000010000259Shwe Ohh Pharmacy (Gwa Yangon        MMR11005051210123490890505000000000000000   10300001F00104100000000001041000000000000     
100   62911028202078000000000000200000000000200000002000000010410405050709343934744369000505000007111738   1030000200030000   333800010001203104000003327KBZPay                 Yangon        MMR11005050709343934740505000000000000000   10300001F05104100000000042000000000000000     
100   95050313547265370000000000090000000000090000002000000010410405050621045104675577440505000007111348   1030000200030000   333800010001203104000003327KBZPay                 Yangon        MMR11005050621045104670505000000000000000   10300001F05104100000000018900000000000000     
100   95050319789172490000000000010000000000010000002000000010410405020602550003378895970502212212000337   1030000500030000   581220065001000015812200650GOLDEN DUCK (8 MILES)  PTN           MMR11005020602550003370502000000000000000   10300001 00104100000000004250000000000000     
100   62911028202161240000000000015401000000015401002000000010410405051036380068584369000505000746562323   1030000200030000   541188001022000008000000298KBZ BANK               CITY MART - M MMR11005051036380068580505000000000000000   10300001 00104100000000000924000000000000     
100   62443100373945130000000000042900000000042900002000000010410405050502180204921981530505816311159124   1030000500030000   555610104018104519000003821City Mart North Point  enter         MMR11005050502180204920505000000000000000   10300001 00104100000000010725000000000000     
100   62443100394939820000000000021350000000021350002000000010410405051841120026788664170505000746605651   1030000200030000   541188001066000008000000314KBZ BANK               MARKETPLACE - MMR11005051841120026780505000000000000000   10300001 00104100000000005338000000000000     
100   62911028202161240000000000000800000000000800002000000010410405051041580071794369000505000746562798   1030000200030000   541188001033000008000000298KBZ BANK               CITY MART - M MMR11005051041580071790505000000000000000   10300001 00104100000000000048000000000000     
100   95030321548759060000000000004400000000004400002000000010410405050212470190424369000505333420820124   1030000500030000   555610112649104519000010844City Express MCS 20                  MMR11005050212470190420505000000000000000   10300001 00104100000000000264000000000000     
100   95050312499482960000000000033100000000033100002000000010410405051914170020433025950505000746607650   1030000200030000   541188001021000008000000298KBZ BANK               CITY MART - M MMR11005051914170020430505000000000000000   10300001 00104100000000008275000000000000     
100   62911028202161240000000000021610000000021610002000000010410405051348510068704369000505000746581900   1030000200030000   541188001022000008000000298KBZ BANK               CITY MART - M MMR11005051348510068700505000000000000000   10300001 00104100000000001297000000000000     
100   95050313732480420000000000002940000000002940002000000010410405050615434543568542020505000007111306   1020000200030000   333400010001204104000000281Myanmar Soft-Gate Tech Yangon        MMR11005050615434543560505000000000000000   10300001F05104100000000000617000000000000     
100   95050316818236190000000000001960000000001960002000000010410405050219274927857457630505000007109143   1020000200030000   333400010001204104000000281Myanmar Soft-Gate Tech Yangon        MMR11005050219274927850505000000000000000   10300001F05104100000000000412000000000000     
100   95030304441505280000000005182000000005182000002000000010410405050753342334794369000505000007112075   1010000100030000   333500010001212104000003087Internal Revenue Depar Yangon        MMR11005050753342334790505000000000000000   10300001F05104100000000060000000000000000     
100   95050316717221100000000000000980000000000980002000000010410405050106533653037833670505000007108849   1020000200030000   333400010001204104000000281Myanmar Soft-Gate Tech Yangon        MMR11005050106533653030505000000000000000   10300001F05104100000000000206000000000000     
100   95050316717221100000000000000980000000000980002000000010410405050105243524409486160505000007108846   1020000200030000   333400010001204104000000281Myanmar Soft-Gate Tech Yangon        MMR11005050105243524400505000000000000000   10300001F05104100000000000206000000000000     
100   95050320093758110000000000200000000000200000002000000010410405051314134413117898310505000007113870   1030000200030000   333800010001203104000003327KBZPay                 Yangon        MMR11005051314134413110505000000000000000   10300001F05104100000000042000000000000000     
100   95030367537085740000000000001960000000001960002000000010410405051111524152694369000505000007113289   1020000200030000   333400010001204104000000281Myanmar Soft-Gate Tech Yangon        MMR11005051111524152690505000000000000000   10300001F05104100000000000412000000000000     
100   62443100313002190000000000035000000000035000002000000010410405051121085108527096780505000007113330   1030000900030000   333400010001202104000002022ACS                    Yangon        MMR11005051121085108520505000000000000000   10300001F05104100000000007350000000000000     
100   95030363502824520000000000001000000000001000002000000010410405051330380038964369000505000007113955   1030000200030000   333800010001203104000003327KBZPay                 Yangon        MMR11005051330380038960505000000000000000   10300001F05104100000000000210000000000000     
100   62911028202668140000000000161200000000161200002000000010410405051216190070294369000505000746572876   1030000200030000   541188001006000008000000008KBZ BANK               MARKETPLACE - MMR11005051216190070290505000000000000000   10300001 00104100000000009672000000000000     
100   62443100325551180000000000097200000000097200002000000010410405050320490194934904740505797500953124   1030000300030000   555510124687104519000020166Makro Myanmar                        MMR11005050320490194930505000000000000000   10300001 00104100000000023328000000000000     
100   95050319067144780000000000002900000000002900002000000010410405051506000045338480190505000746589480   1030000200030000   541188001426000008000000401KBZ BANK               OCEAN SUPERCE MMR11005051506000045330505000000000000000   10300001 00104100000000000725000000000000     
100   62443101006526980000000000100600000000100600002000000010410405050218580190774152670505378480829124   1030000300030000   555510124364104519000020166Makro Myanmar                        MMR11005050218580190770505000000000000000   10300001 00104100000000024144000000000000     
100   62911028202136750000000000024000000000024000002000000010410405051641330012714369000505000746596792   1030000200030000   581288000940000008000001248KBZ BANK               PIZZA HUT (TH MMR11005051641330012710505000000000000000   10300001 00104100000000002448000000000000     
100   62911028202175770000000000016950000000016950002000000010410405051005220070114369000505000746559705   1030000200030000   541188001006000008000000008KBZ BANK               MARKETPLACE - MMR11005051005220070110505000000000000000   10300001 00104100000000001017000000000000     
100   62911028202151340000000000003400000000003400002000000010410405051351060186894369000505000746582103   1030000200030000   541188001080000008000000294KBZ BANK               CITY MART - J MMR11005051351060186890505000000000000000   10300001 00104100000000000204000000000000     
100   95050317084233280000000000006500000000006500002000000010410405051121095109198749270505000007113333   1030000200030000   333800010001203104000003327KBZPay                 Yangon        MMR11005051121095109190505000000000000000   10300001F05104100000000001365000000000000     
100   95050318712627500000000000002940000000002940002000000010410405050322435243423337360505000007109659   1020000200030000   333400010001204104000000281Myanmar Soft-Gate Tech Yangon        MMR11005050322435243420505000000000000000   10300001F05104100000000000617000000000000     
100   95030394609966640000000000005500000000005500002000000010410405050438215646244369000505668081121124   1030000900030000   591219000500190110000000347Shwe Ohh Pharmacy -  ( YANGONUNG     MMR11005050438215646240505000000000000000   10300001F00104100000000000330000000000000     
100   95050314791376690000000000007840000000007840002000000010410405050250082008761004100505000007109313   1020000200030000   333400010001204104000000281Myanmar Soft-Gate Tech Yangon        MMR11005050250082008760505000000000000000   10300001F05104100000000001646000000000000     
100   62911028202203320000000000151980000000151980002000000010410405040326420000504369000504212409000050   1030000500030000   569120090701000015691200907GIORDANO LATHA         PTN           MMR11005040326420000500504000000000000000   10300001 00104100000000009119000000000000     
100   95050327243132200000000000015600000000015600002000000010410405040838230008829840330504000343472073   1030000300030000   531100000609000000000000408CB BANK                CAPITAL HYPER MMR11005040838230008820504000000000000000   10300001F00104100000000003744000000000000     
100   62911028202170490000000000052500000000052500002000000010410405040307100001404369000504212409000140   1030000500030000   573220040201000015732200402REMAX                  PTN           MMR11005040307100001400504000000000000000   10300001 00104100000000003150000000000000     
100   95050327243132200000000000014000000000014000002000000010410405040826350012587847460504000343470410   1030000300030000   531100000598000000000000408CB BANK                CAPITAL HYPER MMR11005040826350012580504000000000000000   10300001F00104100000000003360000000000000     
100   62443100313529540000000000007050000000007050002000000010410405051758270026715699590505000746602578   1030000200030000   541188001066000008000000314KBZ BANK               MARKETPLACE - MMR11005051758270026710505000000000000000   10300001 00104100000000001763000000000000     
100   62911028202245730000000000177299000000177299002000000010410405050122170188274369000505207510756124   1030000500030000   555610118961104519000016137City Mart South Okkala WZYD BR       MMR11005050122170188270505000000000000000   10300001 00104100000000010638000000000000     
100   95050325455962190000000000001960000000001960002000000010410405050430310031818009580505000007110349   1020000200030000   333400010001204104000000281Myanmar Soft-Gate Tech Yangon        MMR11005050430310031810505000000000000000   10300001F05104100000000000412000000000000     
100   62911028202593140000000000015150000000015150002000000010410405051230180270474369000505630031941124   1030000500030000   555610114570104519000012532City Mart Ahlone Branc               MMR11005051230180270470505000000000000000   10300001 00104100000000000909000000000000     
100   95050317741619680000000000049000000000049000002000000010410405050235400540834564360505000007109226   1030000200030000   333800010001203104000003327KBZPay                 Yangon        MMR11005050235400540830505000000000000000   10300001F05104100000000010290000000000000     
100   95050315150726490000000000000980000000000980002000000010410405051249261926394678440505000007113783   1020000200030000   333400010001204104000000281Myanmar Soft-Gate Tech Yangon        MMR11005051249261926390505000000000000000   10300001F05104100000000000206000000000000     
100   62911028202117110000000000050000000000050000002000000010410405050444121412934369000505000007110466   1030000200030000   333800010001203104000003327KBZPay                 Yangon        MMR11005050444121412930505000000000000000   10300001F05104100000000010500000000000000     
100   62443101023815100000000000015625000000015625002000000010410405051230300270636841490505647041958124   1030000500030000   555610114573104519000012532City Mart Ahlone Branc               MMR11005051230300270630505000000000000000   10300001 00104100000000003907000000000000     
100   95030301100121270000000000017100000000017100002000000010410405040928520001244369000504000343478963   1030000300030000   541100000442000000000000319CB BANK                ONESTOP KITCH MMR11005040928520001240504000000000000000   10300001F00104100000000001026000000000000     
100   62911028202460220000000000023500000000023500002000000010410405040300020002494369000504212409000249   1030000500030000   598320005201000015172200052MAX ENERGY             PTN           MMR11005040300020002490504000000000000000   10300001 00104100000000000705000000000000     
100   95030393174848800000000000141602000000141602002000000010410405040613030006814369000504000343451493   1030000300030000   531100000747000000000000408CB BANK                CAPITAL HYPER MMR11005040613030006810504000000000000000   10300001F00104100000000008496000000000000     
100   62911028202112400000000000023000000000023000002000000010410405040248350014574369000504212409001457   1030000500030000   598320001602000015172200016MAX ENERGY             PTN           MMR11005040248350014570504000000000000000   10300001 00104100000000000690000000000000     
100   95030301100133150000000000004800000000004800002000000010410405040956390040644369000504000343482789   1030000300030000   591200000169000000000000084CB BANK                MEDICARE STOR MMR11005040956390040640504000000000000000   10300001F00104100000000000288000000000000     
100   95050314557307430000000000022137000000022137002000000010410405040849140032528613330504000343473495   1030000300030000   591200000183000000000000090CB BANK                MEDICARE STOR MMR11005040849140032520504000000000000000   10300001F00104100000000005313000000000000     
100   95050318712627500000000000016250000000016250002000000010410405040202230226675490390504000343415821   1030000300030000   531100000794000000000000540CB BANK                CAPITAL SUPER MMR11005040202230226670504000000000000000   10300001F00104100000000003900000000000000     
100   95050320531117320000000000469000000000469000002000000010410405040554480396768061390504212405039676   1030000600030000   554100001009315799420000504DENKO SOUTH DAGON      YANGON        MMR11005040554480396760504000000000000000   10300001 00104100000000056280000000000000     
100   95050312926040930000000000001960000000001960002000000010410405050034320432073216610505000007108767   1020000200030000   333400010001204104000000281Myanmar Soft-Gate Tech Yangon        MMR11005050034320432070505000000000000000   10300001F05104100000000000412000000000000     
100   95050314567755980000000000000900000000000900002000000010410405051045421542836281470505000007113162   1030000200030000   333800010001203104000003327KBZPay                 Yangon        MMR11005051045421542830505000000000000000   10300001F05104100000000000189000000000000     
100   95050310314438940000000000023000000000023000002000000010410405051145441544526756400505000007113474   1030000200030000   333800010001203104000003327KBZPay                 Yangon        MMR11005051145441544520505000000000000000   10300001F05104100000000004830000000000000     
100   62911028202471860000000000006550000000006550002000000010410405050720200221424369000505622491356124   1030000300030000   444410125393104519000021220Myanmar Bakery CoLtd                 MMR11005050720200221420505000000000000000   10300001 00104100000000000668000000000000     
100   95050311419479170000000000001960000000001960002000000010410405051039060906144714080505000007113122   1020000200030000   333400010001204104000000281Myanmar Soft-Gate Tech Yangon        MMR11005051039060906140505000000000000000   10300001F05104100000000000412000000000000     
100   95050310213446310000000000019600000000019600002000000010410405050637450745454350440505000007111490   1020000200030000   333400010001204104000000281Myanmar Soft-Gate Tech Yangon        MMR11005050637450745450505000000000000000   10300001F05104100000000004116000000000000     
100   95030367537085740000000000001960000000001960002000000010410405050032080208304369000505000007108761   1020000200030000   333400010001204104000000281Myanmar Soft-Gate Tech Yangon        MMR11005050032080208300505000000000000000   10300001F05104100000000000412000000000000     
100   62911028202423360000000000006700000000006700002000000010410405050530050208324369000505161021218124   1030000500030000   555610104031104519000003821City Mart North Point  enter         MMR11005050530050208320505000000000000000   10300001 00104100000000000402000000000000     
100   62911028202423360000000000030000000000030000002000000010410405040343010470254369000504212403047025   1030000600030000   554100001001315799420000498DENKO SHWE PYI THAR    YANGON        MMR11005040343010470250504000000000000000   10300001 00104100000000000900000000000000     
100   95050321232876860000000000067000000000067000002000000010410405041043190361223436240504212410036122   1030000600030000   554100001865315799420001235DENKO NAY PYI TAW 2    NAYPYITAW     MMR11005041043190361220504000000000000000   10300001 00104100000000008040000000000000     
100   62443100314002660000000000071500000000071500002000000010410405050810455697882636120505553401445124   1030000900030000   594419000708190110000000539Zwe Htet Gems & Jewell YANGON        MMR11005050810455697880505000000000000000   10300001F00104100000000017160000000000000     
100   95030301100131580000000000100000000000100000002000000010410405050827035703874369000505000007112340   1030000200030000   333800010001203104000003327KBZPay                 Yangon        MMR11005050827035703870505000000000000000   10300001F05104100000000021000000000000000     
100   95030314863516850000000000014000000000014000002000000010410405050854022402564369000505000007112577   1030000200030000   333800010001203104000003327KBZPay                 Yangon        MMR11005050854022402560505000000000000000   10300001F05104100000000002940000000000000     
100   95050314557307430000000000002940000000002940002000000010410405051226085608250231560505000007113673   1020000200030000   333400010001204104000000281Myanmar Soft-Gate Tech Yangon        MMR11005051226085608250505000000000000000   10300001F05104100000000000617000000000000     
100   95050315122972560000000000000980000000000980002000000010410405051112194219059600230505000007113294   1020000200030000   333400010001204104000000281Myanmar Soft-Gate Tech Yangon        MMR11005051112194219050505000000000000000   10300001F05104100000000000206000000000000     
100   62911028202112400000000000077150000000077150002000000010410405050252383169924369000505212509316992   1040001600030000   591220000276000000010000264Shwe Ohh Pharmacy (YGH Yangon        MMR11005050252383169920505000000000000000   10300001F00104100000000004629000000000000     
100   62911028202341350000000000003600000000003600002000000010410405051000440251654369000505354331617124   1030000500030000   555610112660104519000010855City Express MCS 77                  MMR11005051000440251650505000000000000000   10300001 00104100000000000216000000000000     
100   62443100393841160000000000300000000000300000002000000010410405042247501750525840810505000007108662   1030000200030000   333800010001203104000003327KBZPay                 Yangon        MMR11005042247501750520505000000000000000   10300001F05104100000000063000000000000000     
100   95050310427855490000000000000980000000000980002000000010410405041641021102012365640505000007108425   1020000200030000   333400010001204104000000281Myanmar Soft-Gate Tech Yangon        MMR11005041641021102010505000000000000000   10300001F05104100000000000206000000000000     
100   62443100378093870000000000041600000000041600002000000010410405051053190257234387490505079241731124   1030000300030000   555510124693104519000020166Makro Myanmar                        MMR11005051053190257230505000000000000000   10300001 00104100000000009984000000000000     
100   95030367537085740000000000000980000000000980002000000010410405051348211821684369000505000007114023   1020000200030000   333400010001204104000000281Myanmar Soft-Gate Tech Yangon        MMR11005051348211821680505000000000000000   10300001F05104100000000000206000000000000     
100   62911028202236330000000000028650000000028650002000000010410405050743240225014369000505998191459124   1030000500030000   555610118965104519000016137City Mart South Okkala WZYD BR       MMR11005050743240225010505000000000000000   10300001 00104100000000001719000000000000     
100   62911028202260400000000000049738000000049738002000000010410405051026250254314369000505704011724124   1030000500030000   555610108840104519000003432City Mart Junction Zaw na 1          MMR11005051026250254310505000000000000000   10300001 00104100000000002984000000000000     
100   62911028202222390000000000037700000000037700002000000010410405050446350203374369000505664171105124   1030000500030000   555610110597104519000009166City Mart 47 Branch                  MMR11005050446350203370505000000000000000   10300001 00104100000000002262000000000000     
100   62911028202136750000000000066200000000066200002000000010410405051027515741824369000505415571651124   1030000900030000   541119001223190110000000945City Mart TM C 8       YANGONONE     MMR11005051027515741820505000000000000000   10300001F00104100000000003972000000000000     
100   95050326155679180000000000002940000000002940002000000010410405050553502350901591700505000007111128   1020000200030000   333400010001204104000000281Myanmar Soft-Gate Tech Yangon        MMR11005050553502350900505000000000000000   10300001F05104100000000000617000000000000     
100   95050320047636150000000000030000000000030000002000000010410405050250012001247699130505000007109310   1030000200030000   333800010001203104000003327KBZPay                 Yangon        MMR11005050250012001240505000000000000000   10300001F05104100000000006300000000000000     
100   95050325787151080000000000172000000000172000002000000010410405050027365736306436480505000007108750   1030000200030000   333800010001203104000003327KBZPay                 Yangon        MMR11005050027365736300505000000000000000   10300001F05104100000000036120000000000000     
100   95050319161596230000000000000980000000000980002000000010410405050029105910516521570505000007108753   1020000200030000   333400010001204104000000281Myanmar Soft-Gate Tech Yangon        MMR11005050029105910510505000000000000000   10300001F05104100000000000206000000000000     
100   95050310427855490000000000000980000000000980002000000010410405050454492449613889300505000007110573   1020000200030000   333400010001204104000000281Myanmar Soft-Gate Tech Yangon        MMR11005050454492449610505000000000000000   10300001F05104100000000000206000000000000     
100   62911028202284260000000000016900000000016900002000000010410405050749265692804369000505264191426124   1030000900030000   541119001246190110000000955City Mart JS C 5       YANGONUT      MMR11005050749265692800505000000000000000   10300001F00104100000000001014000000000000     
100   62443100306028540000000000007100000000007100002000000010410405051139075761635103910505674091807124   1030000900030000   541119001213190110000000949City Mart YK Season C  YANGONAUNG    MMR11005051139075761630505000000000000000   10300001F00104100000000001775000000000000     
100   95030301100129110000000000300000000000300000002000000010410405050135260526844369000505000007108954   1030000200030000   333800010001203104000003327KBZPay                 Yangon        MMR11005050135260526840505000000000000000   10300001F05104100000000063000000000000000     
100   95030371405797020000000000100000000000100000002000000010410405050837200720054369000505000007112409   1030000200030000   333800010001203104000003327KBZPay                 Yangon        MMR11005050837200720050505000000000000000   10300001F05104100000000021000000000000000     
100   95050313396828960000000000000980000000000980002000000010410405051349121912304763530505000007114029   1020000200030000   333400010001204104000000281Myanmar Soft-Gate Tech Yangon        MMR11005051349121912300505000000000000000   10300001F05104100000000000206000000000000     
100   62911028202130710000000000008350000000008350002000000010410405051816160207574369000505000746603923   1030000200030000   541188001001000008000000008KBZ BANK               MARKETPLACE - MMR11005051816160207570505000000000000000   10300001 00104100000000000501000000000000     
100   62911028202175770000000000008400000000008400002000000010410405051013310207324369000505000746560321   1030000200030000   541188001017000008000000008KBZ BANK               MARKETPLACE - MMR11005051013310207320505000000000000000   10300001 00104100000000000504000000000000     
100   95050315701710960000000000182000000000182000002000000010410405050237230723362996970505000007109232   1030000200030000   333800010001203104000003327KBZPay                 Yangon        MMR11005050237230723360505000000000000000   10300001F05104100000000038220000000000000     
100   95050310332595380000000000004900000000004900002000000010410405051042281228304628990505000007113147   1020000200030000   333400010001204104000000281Myanmar Soft-Gate Tech Yangon        MMR11005051042281228300505000000000000000   10300001F05104100000000001029000000000000     
100   62911028202175770000000000059900000000059900002000000010410405050943170275524369000505000746558185   1030000200030000   541188001012000008000000008KBZ BANK               MARKETPLACE - MMR11005050943170275520505000000000000000   10300001 00104100000000003594000000000000     
100   62443100306028540000000000007789000000007789002000000010410405051158235766353366330505982281823124   1030000900030000   541119001203190110000000948City Mart YK C 1       YANGONAUNG    MMR11005051158235766350505000000000000000   10300001F00104100000000001948000000000000     
100   95050319928585020000000000002940000000002940002000000010410405050301343134430117480505000007109421   1020000200030000   333400010001204104000000281Myanmar Soft-Gate Tech Yangon        MMR11005050301343134430505000000000000000   10300001F05104100000000000617000000000000     
100   95050314401921990000000000020000000000020000002000000010410405051019584958816111290505000007113012   1030000200030000   3338000100012031040000040022C2P (Myanmar) Co. Ltd Yangon        MMR11005051019584958810505000000000000000   10300001F05104100000000004200000000000000     
100   95030367537085740000000000001960000000001960002000000010410405050329305930174369000505000007109730   1020000200030000   333400010001204104000000281Myanmar Soft-Gate Tech Yangon        MMR11005050329305930170505000000000000000   10300001F05104100000000000412000000000000     
100   62911028202291190000000001058500000001058500002000000010410405050754025694014369000505337241402124   1030000900030000   594419000706190110000000537Zwe Htet Gems & Jewell YANGONAW      MMR11005050754025694010505000000000000000   10300001F00104100000000063510000000000000     
100   62911028202203320000000000077500000000077500002000000010410405050721535685954369000505864511353124   1030000900030000   541119000113190110000000077Sein Gay Har Chinatown YANGON        MMR11005050721535685950505000000000000000   10300001F00104100000000004650000000000000     
100   95050327192897240000000000012650000000012650002000000010410405051134575760650657040505617041857124   1030000900030000   541119000145190110000000083SeinGayHarParami Cente YANGON        MMR11005051134575760650505000000000000000   10300001F00104100000000003163000000000000     
100   95050314996291580000000000001960000000001960002000000010410405050228565856827528940505000007109199   1020000200030000   333400010001204104000000281Myanmar Soft-Gate Tech Yangon        MMR11005050228565856820505000000000000000   10300001F05104100000000000412000000000000     
100   95030301100126220000000000050000000000050000002000000010410405050337590759484369000505000007109799   1030000200030000   333800010001203104000003327KBZPay                 Yangon        MMR11005050337590759480505000000000000000   10300001F05104100000000010500000000000000     
100   95050310902464360000000000004900000000004900002000000010410405051034530453229756640505000007113094   1020000200030000   333400010001204104000000281Myanmar Soft-Gate Tech Yangon        MMR11005051034530453220505000000000000000   10300001F05104100000000001029000000000000     
100   95050314570621780000000000000980000000000980002000000010410405050137280728268514450505000007108966   1020000200030000   333400010001204104000000281Myanmar Soft-Gate Tech Yangon        MMR11005050137280728260505000000000000000   10300001F05104100000000000206000000000000     
100   62911028202423360000000000004500000000004500002000000010410405050522360207194369000505027531132124   1030000500030000   555610104036104519000003821City Mart North Point  enter         MMR11005050522360207190505000000000000000   10300001 00104100000000000270000000000000     
100   62911028202169750000000000066214000000066214002000000010410405051344380208234369000505000746581511   1030000200030000   541188001037000008000000010KBZ BANK               MARKETPLACE - MMR11005051344380208230505000000000000000   10300001 00104100000000003973000000000000     
100   62911028202169750000000000017325000000017325002000000010410405051443340225814369000505000746587554   1030000200030000   541188001003000008000000008KBZ BANK               MARKETPLACE - MMR11005051443340225810505000000000000000   10300001 00104100000000001040000000000000     
100   62911028202342910000000000005050000000005050002000000010410405051053010256984369000505049221743124   1030000500030000   555610108767104519000003818City Mart Oattara Thir NPT           MMR11005051053010256980505000000000000000   10300001 00104100000000000303000000000000     
100   95050310902464360000000000005880000000005880002000000010410405051041481148206366570505000007113138   1020000200030000   333400010001204104000000281Myanmar Soft-Gate Tech Yangon        MMR11005051041481148200505000000000000000   10300001F05104100000000001235000000000000     
100   95050318601641810000000000018177000000018177002000000010410405051322375783016586210505057521937124   1030000900030000   541119001219190110000000945City Mart TM C 4       YANGONONE     MMR11005051322375783010505000000000000000   10300001F00104100000000004545000000000000     
100   62911028202103410000000000059100000000059100002000000010410405050731485688374369000505013011448124   1030000900030000   591219001556190110000001130Life Plus Store 35     YANGON        MMR11005050731485688370505000000000000000   10300001F00104100000000003546000000000000     
100   62911028202910770000000000103000000000103000002000000010410405050128145814404369000505000007108917   1030000200030000   333800010001203104000003327KBZPay                 Yangon        MMR11005050128145814400505000000000000000   10300001F05104100000000021630000000000000     
100   62911028202169750000000000024050000000024050002000000010410405050554095664754369000505697241209124   1030000900030000   541119000882190110000000084Pro (1) Global (Pazund YANGONARTAUNG MMR11005050554095664750505000000000000000   10300001F00104100000000001443000000000000     
100   95030352597917530000000000100000000000100000002000000010410405051529075907704369000505000007114404   1030000200030000   333800010001203104000003327KBZPay                 Yangon        MMR11005051529075907700505000000000000000   10300001F05104100000000021000000000000000     
100   95050314791376690000000000001960000000001960002000000010410405051227455745201884040505000007113683   1020000200030000   333400010001204104000000281Myanmar Soft-Gate Tech Yangon        MMR11005051227455745200505000000000000000   10300001F05104100000000000412000000000000     
100   95050314996291580000000000002940000000002940002000000010410405050227315731305791360505000007109192   1020000200030000   333400010001204104000000281Myanmar Soft-Gate Tech Yangon        MMR11005050227315731300505000000000000000   10300001F05104100000000000617000000000000     
100   95050324247403260000000000050000000000050000002000000010410405050656525680184762130505572261352124   1030000900030000   554119000344190110000000211New Day Energy SCH     YANGONUNG     MMR11005050656525680180505000000000000000   10300001F00104100000000006000000000000000     
100   62443100355445150000000001714800000001714800002000000010410405050352470197940803970505103221014124   1030000300030000   555510107297104519000006507Bumrungrad Clinc Yango               MMR11005050352470197940505000000000000000   10300001 00104100000000411552000000000000     
100   62911028202000450000000000001960000000001960002000000010410405050441191119474369000505000007110436   1020000200030000   333400010001204104000000281Myanmar Soft-Gate Tech Yangon        MMR11005050441191119470505000000000000000   10300001F05104100000000000412000000000000     
100   95030301100126220000000000100000000000100000002000000010410405050339010901684369000505000007109809   1030000200030000   333800010001203104000003327KBZPay                 Yangon        MMR11005050339010901680505000000000000000   10300001F05104100000000021000000000000000     
100   95030301100129110000000000200000000000200000002000000010410405050136480648474369000505000007108961   1030000200030000   333800010001203104000003327KBZPay                 Yangon        MMR11005050136480648470505000000000000000   10300001F05104100000000042000000000000000     
100   95050312641885210000000000030000000000030000002000000010410405050237550755157954420505000007109241   1030000200030000   333800010001203104000003327KBZPay                 Yangon        MMR11005050237550755150505000000000000000   10300001F05104100000000006300000000000000     
100   95050311718887830000000000045000000000045000002000000010410405050856072607721700060505000007112594   1030000200030000   333800010001203104000003327KBZPay                 Yangon        MMR11005050856072607720505000000000000000   10300001F05104100000000009450000000000000     
100   95050310305109410000000000000980000000000980002000000010410405051401453145871458560505000007114081   1020000200030000   333400010001204104000000281Myanmar Soft-Gate Tech Yangon        MMR11005051401453145870505000000000000000   10300001F05104100000000000206000000000000     
100   95050318046885190000000000030000000000030000002000000010410405050001413141037493290505000007108704   1030000200030000   333800010001203104000003327KBZPay                 Yangon        MMR11005050001413141030505000000000000000   10300001F05104100000000006300000000000000     
100   62443101076362230000000000076627000000076627002000000010410405051030425742671409120505472001742124   1030000900030000   701119000076190110000000024Lotte Hotel            YANGON        MMR11005051030425742670505000000000000000   10300001F00104100000000032567000000000000     
100   62911028202693960000000000066000000000066000002000000010410405050609165668404369000505898391216124   1030000900030000   541119001250190110000000955City Mart JS C 9       YANGONUT      MMR11005050609165668400505000000000000000   10300001F00104100000000003960000000000000     
100   62443101025940470000000000405000000000405000002000000010410405050504226166152066620505342202063156   1040001400030000   806210000099028062100000766Yoma OUE Pun Hlaing Ho pital  Yoma O MMR11005050504226166150505000000000000000   10300001 00104100000000097200000000000000     
100   62443100314002660000000000094500000000094500002000000010410405050820455700294118410505684501445124   1030000900030000   594419001118190110000000899Zwe Htet Gems & Jewell YANGON        MMR11005050820455700290505000000000000000   10300001F00104100000000022680000000000000     
100   95050325925517520000000000588500000000588500002000000010410405050728385687472308120505949581338124   1030000900030000   541119000162190110000000084Pro (1) Global (Pazund YANGONARTAUNG MMR11005050728385687470505000000000000000   10300001F00104100000000147125000000000000     
100   62911028202464440000000000115450000000115450002000000010410405050557163259454369000505212512325945   1040001600030000   591220000276000000010000264Shwe Ohh Pharmacy (YGH Yangon        MMR11005050557163259450505000000000000000   10300001F00104100000000006927000000000000     
100   95050316896526710000000000110000000000110000002000000010410405050324095409967238000505000007109674   1030000200030000   333800010001203104000003327KBZPay                 Yangon        MMR11005050324095409960505000000000000000   10300001F05104100000000023100000000000000     
100   95030314863516850000000000020000000000020000002000000010410405041702183218864369000505000007108460   1030000200030000   333800010001203104000003327KBZPay                 Yangon        MMR11005041702183218860505000000000000000   10300001F05104100000000004200000000000000     
100   62911028202593140000000000040000000000040000002000000010410405051215263495944369000505212519349594   1040001600030000   598320000658000000010000527Shwe Taung Energy (YGN Yangon        MMR11005051215263495940505000000000000000   10300001F00104100000000001200000000000000     
100   62443100306882420000000000140000000000140000002000000010410405051009593959856706960505000007112939   1030000200030000   333800010001203104000003327KBZPay                 Yangon        MMR11005051009593959850505000000000000000   10300001F05104100000000029400000000000000     
100   62443100330108240000000000009800000000009800002000000010410405050302483248165074930505000007109445   1020000200030000   333400010001204104000000281Myanmar Soft-Gate Tech Yangon        MMR11005050302483248160505000000000000000   10300001F05104100000000002058000000000000     
100   95050317903887690000000000000980000000000980002000000010410405051425595559174522030505000007114190   1020000200030000   333400010001204104000000281Myanmar Soft-Gate Tech Yangon        MMR11005051425595559170505000000000000000   10300001F05104100000000000206000000000000     
100   95050312695033440000000000004900000000004900002000000010410405050422045204272711740505000007110273   1020000200030000   333400010001204104000000281Myanmar Soft-Gate Tech Yangon        MMR11005050422045204270505000000000000000   10300001F05104100000000001029000000000000     
100   95050318608138520000000000010000000000010000002000000010410405050806243624219075870505000007112197   1030000200030000   333800010001203104000003327KBZPay                 Yangon        MMR11005050806243624210505000000000000000   10300001F05104100000000002100000000000000     
100   95050314996291580000000000001960000000001960002000000010410405050226125612368939930505000007109183   1020000200030000   333400010001204104000000281Myanmar Soft-Gate Tech Yangon        MMR11005050226125612360505000000000000000   10300001F05104100000000000412000000000000     
100   62911028202077010000000000000980000000000980002000000010410405051019324932094369000505000007113007   1020000200030000   333400010001204104000000281Myanmar Soft-Gate Tech Yangon        MMR11005051019324932090505000000000000000   10300001F05104100000000000206000000000000     
100   95050319789172490000000000010350000000010350002000000010410405020703200003385578070502212213000338   1030000500030000   581220065001000015812200650GOLDEN DUCK (8 MILES)  PTN           MMR11005020703200003380502000000000000000   10300001 00104100000000004399000000000000     
100   62911028202820010000000000030000000000030000002000000010410405040116270018964369000504212407001896   1030000500030000   598320001004000015172200010MAX ENERGY             PTN           MMR11005040116270018960504000000000000000   10300001 00104100000000000900000000000000     
100   62911028202151340000000000013800000000013800002000000010410405050657480218634369000505308271314124   1030000300030000   444410125393104519000021220Myanmar Bakery CoLtd                 MMR11005050657480218630505000000000000000   10300001 00104100000000001408000000000000     
100   62911028202019440000000000020750000000020750002000000010410405050422275642894369000505494521027124   1030000900030000   541119001264190110000000958City Mart PLST C 7     YANGONMYOTHIT MMR11005050422275642890505000000000000000   10300001F00104100000000001245000000000000     
100   62911028202248050000000000019760000000019760002000000010410405051048400032374369000505212517003237   1020000200030000   541100255001300115411000025MWD BANK               YGN           MMR11005051048400032370505000000000000000   10300001 00104100000000001186000000000000     
100   95030301100120850000000000020000000000020000002000000010410405041704373437954369000505000007108465   1030000200030000   333800010001203104000003327KBZPay                 Yangon        MMR11005041704373437950505000000000000000   10300001F05104100000000004200000000000000     
100   62443100392426520000000000010000000000010000002000000010410405051132480248025614500505000007113410   1030000200030000   333800010001203104000003327KBZPay                 Yangon        MMR11005051132480248020505000000000000000   10300001F05104100000000002100000000000000     
100   62911028202132460000000000021550000000021550002000000010410405051104355752754369000505130341735124   1030000900030000   541119001203190110000000948City Mart YK C 1       YANGONAUNG    MMR11005051104355752750505000000000000000   10300001F00104100000000001293000000000000     
100   95030301100354740000000000035000000000035000002000000010410405051057592759804369000505000007113218   1030000200030000   333800010001203104000003327KBZPay                 Yangon        MMR11005051057592759800505000000000000000   10300001F05104100000000007350000000000000     
100   95050319938772870000000000005000000000005000002000000010410405050258082808101684870505000007109403   1040001600030000   333800010001220104000004507A +                    Yangon        MMR11005050258082808100505000000000000000   10300001F05104100000000001050000000000000     
100   95050318267399100000000000000980000000000980002000000010410405051459282928739479480505000007114319   1020000200030000   333400010001204104000000281Myanmar Soft-Gate Tech Yangon        MMR11005051459282928730505000000000000000   10300001F05104100000000000206000000000000     
100   95050317003064220000000000000980000000000980002000000010410405050707463746367896900505000007111737   1020000200030000   333400010001204104000000281Myanmar Soft-Gate Tech Yangon        MMR11005050707463746360505000000000000000   10300001F05104100000000000206000000000000     
100   95050319753756490000000000025000000000025000002000000010410405051355002500779806080505000007114059   1030000200030000   333800010001203104000003327KBZPay                 Yangon        MMR11005051355002500770505000000000000000   10300001F05104100000000005250000000000000     
100   95050311959900780000000000000980000000000980002000000010410405050905263526429366810505000007112691   1020000200030000   333400010001204104000000281Myanmar Soft-Gate Tech Yangon        MMR11005050905263526420505000000000000000   10300001F05104100000000000206000000000000     
100   62911028202593140000000000010000000000010000002000000010410405051216163496664369000505212519349666   1040001600030000   598320000658000000010000527Shwe Taung Energy (YGN Yangon        MMR11005051216163496660505000000000000000   10300001F00104100000000000300000000000000     
100   62443100395535610000000000300000000000300000002000000010410405050110434043109571250505000007108867   1030000200030000   333800010001203104000003327KBZPay                 Yangon        MMR11005050110434043100505000000000000000   10300001F05104100000000063000000000000000     
100   95030301100157400000000000000980000000000980002000000010410405051237070707364369000505000007113716   1020000200030000   333400010001204104000000281Myanmar Soft-Gate Tech Yangon        MMR11005051237070707360505000000000000000   10300001F05104100000000000206000000000000     
100   95030340340746190000000000012300000000012300002000000010410405050735150223174369000505816041444124   1030000500030000   555610122589104519000018896City Mart Hlaing Thar  ar            MMR11005050735150223170505000000000000000   10300001 00104100000000000738000000000000     
100   95030301100121270000000000018800000000018800002000000010410405041233390013794369000504000343503470   1030000300030000   541100000957000000000000683CB BANK                ONE STOP KITC MMR11005041233390013790504000000000000000   10300001F00104100000000001128000000000000     
100   95050319161596230000000000001960000000001960002000000010410405050842011201945090120505000007112468   1020000200030000   333400010001204104000000281Myanmar Soft-Gate Tech Yangon        MMR11005050842011201940505000000000000000   10300001F05104100000000000412000000000000     
100   62911028202791630000000000071000000000071000002000000010410405050206263149974369000505212509314997   1040001600030000   598320000659000000010000528Shwe Taung Energy (YGN Yangon        MMR11005050206263149970505000000000000000   10300001F00104100000000002130000000000000     
100   62911028202684060000000000031650000000031650002000000010410405050405490199954369000505300441026124   1030000500030000   555610122582104519000018896City Mart Hlaing Thar  ar            MMR11005050405490199950505000000000000000   10300001 00104100000000001899000000000000     
100   62443101023815100000000000046000000000046000002000000010410405050519193236166052370505212512323616   1040001600030000   598320001170000000010000527Shwe Taung Energy (YGN Yangon        MMR11005050519193236160505000000000000000   10300001F00104100000000005520000000000000     
100   95050311876202380000000000061000000000061000002000000010410405031237390320881979580503212312032088   1030000600030000   554100001155315799420000607DENKO NPT 1            NAYPYITAW.    MMR11005031237390320880503000000000000000   10300001 00104100000000007320000000000000     
100   95050318180584510000000000020000000000020000002000000010410405051102223222992564820505000007113244   1030000200030000   333800010001203104000003327KBZPay                 Yangon        MMR11005051102223222990505000000000000000   10300001F05104100000000004200000000000000     
100   95050318141561190000000000010000000000010000002000000010410405050415214521110974160505000007110214   1030000200030000   333800010001203104000003327KBZPay                 Yangon        MMR11005050415214521110505000000000000000   10300001F05104100000000002100000000000000     
100   95050313062063490000000000000980000000000980002000000010410405050752202220859428630505000007112078   1020000200030000   333400010001204104000000281Myanmar Soft-Gate Tech Yangon        MMR11005050752202220850505000000000000000   10300001F05104100000000000206000000000000     
100   62911028202465680000000000020000000000020000002000000010410405051022283396114369000505212517339611   1040001600030000   598320001170000000010000527Shwe Taung Energy (YGN Yangon        MMR11005051022283396110505000000000000000   10300001F00104100000000000600000000000000     
100   62443100379116470000000000100500000000100500002000000010410405050306273627345160030505000007109486   1030000200030000   333800010001203104000003327KBZPay                 Yangon        MMR11005050306273627340505000000000000000   10300001F05104100000000021105000000000000     
100   62443100395535610000000000300000000000300000002000000010410405050114214421562876220505000007108884   1030000200030000   333800010001203104000003327KBZPay                 Yangon        MMR11005050114214421560505000000000000000   10300001F05104100000000063000000000000000     
100   62911028202417000000000000009800000000009800002000000010410405050425245643564369000505533551024124   1030000900030000   541119001207190110000000948City Mart YK C 5       YANGONAUNG    MMR11005050425245643560505000000000000000   10300001F00104100000000000588000000000000     
100   95050313062063490000000000004900000000004900002000000010410405051450182018642784450505000007114276   1020000200030000   333400010001204104000000281Myanmar Soft-Gate Tech Yangon        MMR11005051450182018640505000000000000000   10300001F05104100000000001029000000000000     
100   95030301100215990000000000050000000000050000002000000010410405050126295629344369000505000007108913   1030000200030000   333800010001203104000003327KBZPay                 Yangon        MMR11005050126295629340505000000000000000   10300001F05104100000000010500000000000000     
100   62443100372718280000000000020000000000020000002000000010410405050054003117784528700505212507311778   1040001600030000   598320000658000000010000527Shwe Taung Energy (YGN Yangon        MMR11005050054003117780505000000000000000   10300001F00104100000000002400000000000000     
100   95050312695033440000000000000980000000000980002000000010410405050402503250440463590505000007110077   1020000200030000   333400010001204104000000281Myanmar Soft-Gate Tech Yangon        MMR11005050402503250440505000000000000000   10300001F05104100000000000206000000000000     
100   95050316717221100000000000000980000000000980002000000010410405050111304130997918770505000007108873   1020000200030000   333400010001204104000000281Myanmar Soft-Gate Tech Yangon        MMR11005050111304130990505000000000000000   10300001F05104100000000000206000000000000     
100   95030367537085740000000000000980000000000980002000000010410405050011324132034369000505000007108722   1020000200030000   333400010001204104000000281Myanmar Soft-Gate Tech Yangon        MMR11005050011324132030505000000000000000   10300001F05104100000000000206000000000000     
100   95050318180584510000000000007000000000007000002000000010410405051323285328631543660505000007113923   1030000200030000   333800010001203104000003327KBZPay                 Yangon        MMR11005051323285328630505000000000000000   10300001F05104100000000001470000000000000     
100   95050321057500320000000000004000000000004000002000000010410405050201475618880081830505328310847124   1030000900030000   581219000528190110000000376Shwepalin (Hantharwadd YANGONUT      MMR11005050201475618880505000000000000000   10300001F00104100000000001700000000000000     
100   95050323133124350000000000010000000000010000002000000010410405050125385538299656350505000007108907   1040001600030000   333800010001220104000004507A +                    Yangon        MMR11005050125385538290505000000000000000   10300001F05104100000000002100000000000000     
100   62911028202027440000000000019000000000019000002000000010410405050035235613264369000505167050723124   1030000900030000   554119000348190110000000215New Day Energy MYG     YANGONONE     MMR11005050035235613260505000000000000000   10300001F00104100000000000570000000000000     
100   95050312240830690000000000000980000000000980002000000010410405051458112811974436940505000007114311   1020000200030000   333400010001204104000000281Myanmar Soft-Gate Tech Yangon        MMR11005051458112811970505000000000000000   10300001F05104100000000000206000000000000     
100   95050314108819790000000000100000000000100000002000000010410405050205563556643386800505000007109093   1030000200030000   333800010001203104000003327KBZPay                 Yangon        MMR11005050205563556640505000000000000000   10300001F05104100000000021000000000000000     
100   95050311931431670000000000004900000000004900002000000010410405051210204020467011690505000007113599   1020000200030000   333400010001204104000000281Myanmar Soft-Gate Tech Yangon        MMR11005051210204020460505000000000000000   10300001F05104100000000001029000000000000     
100   95030301100128610000000000010000000000010000002000000010410405050325195519154369000505000007109678   1030000200030000   333800010001203104000003327KBZPay                 Yangon        MMR11005050325195519150505000000000000000   10300001F05104100000000002100000000000000     
100   62443100325551180000000000027000000000027000002000000010410405050415055640984279130505387451005124   1030000900030000   541119000882190110000000084Pro (1) Global (Pazund YANGONARTAUNG MMR11005050415055640980505000000000000000   10300001F00104100000000006750000000000000     
100   95050312695033440000000000000980000000000980002000000010410405050004283428819230870505000007108711   1020000200030000   333400010001204104000000281Myanmar Soft-Gate Tech Yangon        MMR11005050004283428810505000000000000000   10300001F05104100000000000206000000000000     
100   95050313411345710000000000005000000000005000002000000010410405050225415541300592410505000007109180   1030000200030000   333800010001203104000003327KBZPay                 Yangon        MMR11005050225415541300505000000000000000   10300001F05104100000000001050000000000000     
100   95050313547265370000000000013000000000013000002000000010410405050623325332550619990505000007111366   1030000200030000   333800010001203104000003327KBZPay                 Yangon        MMR11005050623325332550505000000000000000   10300001F05104100000000002730000000000000     
100   95050317728825080000000000004900000000004900002000000010410405050217404740539110120505000007109136   1020000200030000   333400010001204104000000281Myanmar Soft-Gate Tech Yangon        MMR11005050217404740530505000000000000000   10300001F05104100000000001029000000000000     
100   95050320093758110000000000104500000000104500002000000010410405051318154815386160730505000007113886   1030000200030000   333800010001203104000003327KBZPay                 Yangon        MMR11005051318154815380505000000000000000   10300001F05104100000000021945000000000000     
100   62911028202616170000000000047630000000047630002000000010410405051253403530024369000505212519353002   1040001600030000   581420000238000000010000226My Hill Coffeehouse    Yangon        MMR11005051253403530020505000000000000000   10300001F00104100000000001429000000000000     
100   95050312498129060000000000000980000000000980002000000010410405051313124312196245820505000007113879   1020000200030000   333400010001204104000000281Myanmar Soft-Gate Tech Yangon        MMR11005051313124312190505000000000000000   10300001F05104100000000000206000000000000     
100   95050319156544340000000000099000000000099000002000000010410405051223335333921969140505000007113656   1030000200030000   333800010001203104000003327KBZPay                 Yangon        MMR11005051223335333920505000000000000000   10300001F05104100000000020790000000000000     
100   95050317518971470000000000010000000000010000002000000010410405050659522952589804680505000007111691   1030000200030000   3338000100012031040000040022C2P (Myanmar) Co. Ltd Yangon        MMR11005050659522952580505000000000000000   10300001F05104100000000002100000000000000     
100   95050312618592720000000000010000000000010000002000000010410405050305583558153422450505000007109482   1030000200030000   333800010001203104000003327KBZPay                 Yangon        MMR11005050305583558150505000000000000000   10300001F05104100000000002100000000000000     
100   95050314248160600000000000083000000000083000002000000010410405051221385138740316650505000007113649   1030000200030000   333800010001203104000003327KBZPay                 Yangon        MMR11005051221385138740505000000000000000   10300001F05104100000000017430000000000000     
100   95050329213164970000000000002940000000002940002000000010410405050900173017776657520505000007112642   1020000200030000   333400010001204104000000281Myanmar Soft-Gate Tech Yangon        MMR11005050900173017770505000000000000000   10300001F05104100000000000617000000000000     
100   95050310305109410000000000000980000000000980002000000010410405051404423442091373470505000007114095   1020000200030000   333400010001204104000000281Myanmar Soft-Gate Tech Yangon        MMR11005051404423442090505000000000000000   10300001F05104100000000000206000000000000     
100   95050317209843640000000000100000000000100000002000000010410405050207373737173471890505000007109097   1030000200030000   333800010001203104000003327KBZPay                 Yangon        MMR11005050207373737170505000000000000000   10300001F05104100000000021000000000000000     
100   95050314775367220000000000050000000000050000002000000010410405050623395339178967510505000007111365   1030000200030000   333800010001203104000003327KBZPay                 Yangon        MMR11005050623395339170505000000000000000   10300001F05104100000000010500000000000000     
100   95030314863516850000000000013000000000013000002000000010410405050819474947704369000505000007112287   1030000200030000   333800010001203104000003327KBZPay                 Yangon        MMR11005050819474947700505000000000000000   10300001F05104100000000002730000000000000     
100   62911028202057620000000000050000000000050000002000000010410405051518494849984369000505000007114376   1030000200030000   333800010001203104000003327KBZPay                 Yangon        MMR11005051518494849980505000000000000000   10300001F05104100000000010500000000000000     
100   62911028202291190000000000015350000000015350002000000010410405050503155652314369000505007331115124   1030000900030000   541119000167190110000000085SeinGayHar (Dagon Cent YANGONUNG     MMR11005050503155652310505000000000000000   10300001F00104100000000000921000000000000     
