100   95050312695033440000000000001960000000001960002000000010410405070223535353179070150507000007121892   1020000200030000   333400010001204104000000281Myanmar Soft-Gate Tech Yangon        MMR11005070223535353170507000000000000000   10300001F05104100000000000412000000000000     
100   95050319161596230000000000000980000000000980002000000010410405070323205320992034730507000007122168   1020000200030000   333400010001204104000000281Myanmar Soft-Gate Tech Yangon        MMR11005070323205320990507000000000000000   10300001F05104100000000000206000000000000     
100   95030308100010080000000000000980000000000980002000000010410405071125195519004369000507000007124152   1020000200030000   333400010001204104000000281Myanmar Soft-Gate Tech Yangon        MMR11005071125195519000507000000000000000   10300001F05104100000000000206000000000000     
100   95030339867270590000000000040500000000040500002000000010410405070745446125784369000507130151444126   1030000900030000   573219001183190110000000939UNIQUE Thingangyun     YANGONNGKUUN  MMR11005070745446125780507000000000000000   10300001F00104100000000002430000000000000     
100   62443100300743690000000000015000000000015000002000000010410405071016166160426950810507819461616126   1030000900030000   573219001183190110000000939UNIQUE Thingangyun     YANGONNGKUUN  MMR11005071016166160420507000000000000000   10300001F00104100000000003600000000000000     
100   62443100344229520000000000106570000000106570002000000010410405071055106171334532470507681251710126   1030000900030000   541119001281190110000000963City Mart SPL C6       YANGONMYOTHIT MMR11005071055106171330507000000000000000   10300001F00104100000000026643000000000000     
100   62911028202245730000000000055748000000055748002000000010410405071202446190114369000507091321844126   1030000900030000   591219000899190110000000708Shwe Ohh Pharmacy St 3 YANGONONE     MMR11005071202446190110507000000000000000   10300001F00104100000000003345000000000000     
100   95050319156011610000000000003500000000003500002000000010410405070320366069788729760507196500936126   1030000900030000   541119001372190110000000978Ocean PZD Season C 2   YANGONAUNG    MMR11005070320366069780507000000000000000   10300001F00104100000000000875000000000000     
100   62911028202400660000000000032990000000032990002000000010410405061021350000124369000506212616000012   1030000500030000   569120090901000015691200909GIORDANO JUNCTION 8    PTN           MMR11005061021350000120506000000000000000   10300001 00104100000000001979000000000000     
100   62911028202193670000000000065002000000065002002000000010410405061202490001764369000506212618000176   1030000500030000   598320001602000015172200016MAX ENERGY             PTN           MMR11005061202490001760506000000000000000   10300001 00104100000000001950000000000000     
100   95030394609966640000000000030000000000030000002000000010410405060450120000214369000506000343784222   1030000300030000   598300001209000000000000817CB BANK                SHWE TAUNG EN MMR11005060450120000210506000000000000000   10300001F00104100000000000900000000000000     
100   95030346645639490000000000008771000000008771002000000010410405060739180000104369000506212614000010   1030000500030000   531120155715000045311201557GAMONE PWINT           PTN           MMR11005060739180000100506000000000000000   10300001 00104100000000000526000000000000     
100   95030301100022270000000000020002000000020002002000000010410405060736050000604369000506212614000060   1030000500030000   598320002103000015172200021MAX ENERGY             PTN           MMR11005060736050000600506000000000000000   10300001 00104100000000000600000000000000     
100   95050312382278190000000000117900000000117900002000000010410405061050440000194318550506212617000019   1030000500030000   503920036902017205039200369PRO-1 HOME CENTER      PTN           MMR11005061050440000190506000000000000000   10300001 00104100000000028296000000000000     
100   62911028202662930000000000040000000000040000002000000010410405060325510001574369000506212609000157   1030000500030000   598320001101000015172200011MAX ENERGY             PTN           MMR11005060325510001570506000000000000000   10300001 00104100000000001200000000000000     
100   62911028202449440000000000058000000000058000002000000010410405061123260002714369000506212617000271   1030000500030000   598320001203000015172200012MAX ENERGY             PTN           MMR11005061123260002710506000000000000000   10300001 00104100000000001740000000000000     
100   62911028202909050000000000014200000000014200002000000010410405071129016181364369000507460591701126   1030000900030000   541119000138190110000000083SeinGayHarParami Cente YANGON        MMR11005071129016181360507000000000000000   10300001F00104100000000000852000000000000     
100   95050324133333980000000000010850000000010850002000000010410405070253366064993431930507870230936126   1030000900030000   541119000374190110000000178Pro (1) Global (East D YANGONMYOTHIT MMR11005070253366064990507000000000000000   10300001F00104100000000002713000000000000     
100   95030301100423890000000000064184000000064184002000000010410405070901516142624369000507442311551126   1030000900030000   581219000371190110000000243Jo Jo Hot Pot (Junctio YANGONN       MMR11005070901516142620507000000000000000   10300001F00104100000000006547000000000000     
100   95050312695033440000000000001960000000001960002000000010410405070222105210814027600507000007121886   1020000200030000   333400010001204104000000281Myanmar Soft-Gate Tech Yangon        MMR11005070222105210810507000000000000000   10300001F05104100000000000412000000000000     
100   62443100390038980000000000143000000000143000002000000010410405070545006101496240110507393151200126   1030000900030000   581419000966190110000000773Yuki Mugi Bakery       YANGONONE     MMR11005070545006101490507000000000000000   10300001F00104100000000017160000000000000     
100   95050313640946520000000000400000000000400000002000000010410405071133156182443220370507539031815126   1030000900030000   573219001180190110000000936UNIQUE UChit Maung     YANGON        MMR11005071133156182440507000000000000000   10300001F00104100000000096000000000000000     
100   95030301100122420000000000061700000000061700002000000010410405071144336185474369000507759141833126   1030000900030000   541119001080190110000000872Sein Gay Har Hledan    YANGONUT      MMR11005071144336185470507000000000000000   10300001F00104100000000003702000000000000     
100   62443100345308040000000000010700000000010700002000000010410405070442476087604417430507428121147126   1030000900030000   541119001218190110000000945City Mart TM C 3       YANGONONE     MMR11005070442476087600507000000000000000   10300001F00104100000000002675000000000000     
100   95030313100013730000000000036309000000036309002000000010410405061158590048824369000506000343842098   1030000300030000   541100000444000000000000319CB BANK                ONESTOP KITCH MMR11005061158590048820506000000000000000   10300001F00104100000000002179000000000000     
100   95030301100120440000000000037750000000037750002000000010410405070843100458884369000507876131504126   1030000500030000   555610110576104519000009164City Mart China Town P int Cen       MMR11005070843100458880507000000000000000   10300001 00104100000000002265000000000000     
100   62911028202207460000000000027908000000027908002000000010410405070731580449334369000507770011421126   1030000500030000   555610112237104519000010487Ocean Super Center St  ohn           MMR11005070731580449330507000000000000000   10300001 00104100000000001674000000000000     
100   62443100313002190000000000009600000000009600002000000010410405071048530478539660110507276191749126   1030000500030000   555610122351104519000018696CityMartSupermarket Sh ePyiTha       MMR11005071048530478530507000000000000000   10300001 00104100000000002400000000000000     
100   62911028202225440000000000003000000000003000002000000010410405070938020469244369000507176201640126   1030000500030000   555610117864104519000009164City Mart China Town P int Cen       MMR11005070938020469240507000000000000000   10300001 00104100000000000180000000000000     
100   62443100325551180000000000024000000000024000002000000010410405070931240465940170680507735011600126   1030000500030000   555610110597104519000009166City Mart 47 Branch                  MMR11005070931240465940507000000000000000   10300001 00104100000000006000000000000000     
100   62911028202423360000000000006200000000006200002000000010410405071129290486484369000507262041820126   1030000500030000   555610104043104519000003821City Mart North Point  enter         MMR11005071129290486480507000000000000000   10300001 00104100000000000372000000000000     
100   62911028202467900000000000019900000000019900002000000010410405070609370439044369000507536441247126   1030000500030000   555610110576104519000009164City Mart China Town P int Cen       MMR11005070609370439040507000000000000000   10300001 00104100000000001194000000000000     
100   95050313243172680000000000017150000000017150002000000010410405070711326118893566470507608411332126   1030000900030000   541119001265190110000000958City Mart PLST C 8     YANGONMYOTHIT MMR11005070711326118890507000000000000000   10300001F00104100000000004288000000000000     
100   95030314001421450000000000044050000000044050002000000010410405070643426113354369000507205131342126   1030000900030000   571219001536190110000001113Pro 1 Plus Store-1     YANGONADON    MMR11005070643426113350507000000000000000   10300001F00104100000000002643000000000000     
100   95050311048637960000000000009438000000009438002000000010410405070827046135480511070507882571404126   1030000900030000   541119000126190110000000082Sein Gay Har Super Cen YANGON        MMR11005070827046135480507000000000000000   10300001F00104100000000002360000000000000     
100   95050322954091830000000000307400000000307400002000000010410405070809586131167291200507546391458126   1030000900030000   573219001183190110000000939UNIQUE Thingangyun     YANGONNGKUUN  MMR11005070809586131160507000000000000000   10300001F00104100000000073776000000000000     
100   95030301100126550000000000007000000000007000002000000010410405070644176113424369000507212141317126   1030000900030000   571219001536190110000001113Pro 1 Plus Store-1     YANGONADON    MMR11005070644176113420507000000000000000   10300001F00104100000000000420000000000000     
100   95050313817486860000000000004900000000004900002000000010410405071322565256647667240507000007124578   1020000200030000   333400010001204104000000281Myanmar Soft-Gate Tech Yangon        MMR11005071322565256640507000000000000000   10300001F05104100000000001029000000000000     
100   95050314557307430000000000004900000000004900002000000010410405071027275727891908270507000007123933   1020000200030000   333400010001204104000000281Myanmar Soft-Gate Tech Yangon        MMR11005071027275727890507000000000000000   10300001F05104100000000001029000000000000     
100   62911028202440680000000000019800000000019800002000000010410405070601346104974369000507640311234126   1030000900030000   591219000970190110000000777Shwe Ohh Pharmacy St ( YANGONAW      MMR11005070601346104970507000000000000000   10300001F00104100000000001188000000000000     
100   62911028202467900000000000056500000000056500002000000010410405070554080436274369000507183231249126   1030000300030000   555510120538104519000017437Art and T8                           MMR11005070554080436270507000000000000000   10300001 00104100000000003390000000000000     
100   95050310332595380000000000004900000000004900002000000010410405071436020602178908030507000007124889   1020000200030000   333400010001204104000000281Myanmar Soft-Gate Tech Yangon        MMR11005071436020602170507000000000000000   10300001F05104100000000001029000000000000     
100   95050316997303010000000000000980000000000980002000000010410405071336560656644120770507000007124650   1020000200030000   333400010001204104000000281Myanmar Soft-Gate Tech Yangon        MMR11005071336560656640507000000000000000   10300001F05104100000000000206000000000000     
100   95050310213446310000000000019600000000019600002000000010410405061741021102534367990507000007121306   1020000200030000   333400010001204104000000281Myanmar Soft-Gate Tech Yangon        MMR11005061741021102530507000000000000000   10300001F05104100000000004116000000000000     
100   95050310213446310000000000009800000000009800002000000010410405071141051105433135270507000007124222   1020000200030000   333400010001204104000000281Myanmar Soft-Gate Tech Yangon        MMR11005071141051105430507000000000000000   10300001F05104100000000002058000000000000     
100   95050312005798410000000000002940000000002940002000000010410405070903243324142418840507000007123591   1020000200030000   333400010001204104000000281Myanmar Soft-Gate Tech Yangon        MMR11005070903243324140507000000000000000   10300001F05104100000000000617000000000000     
100   62911028202138320000000000014700000000014700002000000010410405070619384938814369000507000007122981   1020000200030000   333400010001204104000000281Myanmar Soft-Gate Tech Yangon        MMR11005070619384938810507000000000000000   10300001F05104100000000003087000000000000     
100   95050312695033440000000000001960000000001960002000000010410405070220575057552375120507000007121878   1020000200030000   333400010001204104000000281Myanmar Soft-Gate Tech Yangon        MMR11005070220575057550507000000000000000   10300001F05104100000000000412000000000000     
100   62911028202593140000000000010800000000010800002000000010410405071256570497604369000507644271911126   1030000500030000   555610114570104519000012532City Mart Ahlone Branc               MMR11005071256570497600507000000000000000   10300001 00104100000000000648000000000000     
100   95050316717221100000000000031360000000031360002000000010410405070650112011802594760507000007123115   1020000200030000   333400010001204104000000281Myanmar Soft-Gate Tech Yangon        MMR11005070650112011800507000000000000000   10300001F05104100000000006586000000000000     
100   62443100317500820000000000050000000000050000002000000010410405070617564756209034500507000007122969   1030000200030000   333800010001203104000003327KBZPay                 Yangon        MMR11005070617564756200507000000000000000   10300001F05104100000000010500000000000000     
100   62443100328070970000000000013400000000013400002000000010410405071249590496786099850507537191921126   1030000500030000   555610112249104519000010487Ocean Super Center St  ohn           MMR11005071249590496780507000000000000000   10300001 00104100000000003350000000000000     
100   95050314570621780000000000004900000000004900002000000010410405070339330933103602120507000007122247   1020000200030000   333400010001204104000000281Myanmar Soft-Gate Tech Yangon        MMR11005070339330933100507000000000000000   10300001F05104100000000001029000000000000     
100   95050319379439060000000000005000000000005000002000000010410405070454422442911027370507000007122577   1030000200030000   333800010001203104000003327KBZPay                 Yangon        MMR11005070454422442910507000000000000000   10300001F05104100000000001050000000000000     
100   95050311382087030000000000002940000000002940002000000010410405071010264026927035920507000007123857   1020000200030000   333400010001204104000000281Myanmar Soft-Gate Tech Yangon        MMR11005071010264026920507000000000000000   10300001F05104100000000000617000000000000     
100   95050317465574180000000000070000000000070000002000000010410405071406353635600645610507000007124769   1030000200030000   333800010001203104000003327KBZPay                 Yangon        MMR11005071406353635600507000000000000000   10300001F05104100000000014700000000000000     
100   95050318131043910000000000001000000000001000002000000010410405071216084608262539600507000007124341   1030000200030000   3334000100012031040000040102C2P (Myanmar) Co. Ltd Yangon        MMR11005071216084608260507000000000000000   10300001F05104100000000000210000000000000     
100   95050312695033440000000000000980000000000980002000000010410405071541561156477595930507000007125129   1020000200030000   333400010001204104000000281Myanmar Soft-Gate Tech Yangon        MMR11005071541561156470507000000000000000   10300001F05104100000000000206000000000000     
100   95050318131043910000000000001960000000001960002000000010410405071013114311403730940507000007123873   1020000200030000   333400010001204104000000281Myanmar Soft-Gate Tech Yangon        MMR11005071013114311400507000000000000000   10300001F05104100000000000412000000000000     
100   95050315677581110000000000040000000000040000002000000010410405070652412241740857170507000007123123   1030000200030000   333800010001203104000003327KBZPay                 Yangon        MMR11005070652412241740507000000000000000   10300001F05104100000000008400000000000000     
100   95050319144542320000000000030000000000030000002000000010410405071446231623575603070507000007124927   1030000200030000   333800010001203104000003327KBZPay                 Yangon        MMR11005071446231623570507000000000000000   10300001F05104100000000006300000000000000     
100   95050312498129060000000000002940000000002940002000000010410405071449091909680986000507000007124938   1020000200030000   333400010001204104000000281Myanmar Soft-Gate Tech Yangon        MMR11005071449091909680507000000000000000   10300001F05104100000000000617000000000000     
100   95050316321163940000000000000980000000000980002000000010410405070202013201895424800507000007121774   1020000200030000   333400010001204104000000281Myanmar Soft-Gate Tech Yangon        MMR11005070202013201890507000000000000000   10300001F05104100000000000206000000000000     
100   95030367537085740000000000001960000000001960002000000010410405070120205020104369000507000007121651   1020000200030000   333400010001204104000000281Myanmar Soft-Gate Tech Yangon        MMR11005070120205020100507000000000000000   10300001F05104100000000000412000000000000     
100   62911028202527490000000000057000000000057000002000000010410405060954190001474369000506212616000147   1030000500030000   598320002104000015172200021MAX ENERGY             PTN           MMR11005060954190001470506000000000000000   10300001 00104100000000001710000000000000     
100   62911028202509170000000000014503000000014503002000000010410405070557380437244369000507303301248126   1030000500030000   555610112232104519000010487Ocean Super Center St  ohn           MMR11005070557380437240507000000000000000   10300001 00104100000000000870000000000000     
100   95050313817486860000000000004900000000004900002000000010410405071321035103642624690507000007124572   1020000200030000   333400010001204104000000281Myanmar Soft-Gate Tech Yangon        MMR11005071321035103640507000000000000000   10300001F05104100000000001029000000000000     
100   95050314567755980000000000001960000000001960002000000010410405071203593359695844560507000007124304   1020000200030000   333400010001204104000000281Myanmar Soft-Gate Tech Yangon        MMR11005071203593359690507000000000000000   10300001F05104100000000000412000000000000     
100   95050316785465380000000000000980000000000980002000000010410405070312164216660041860507000007122128   1020000200030000   333400010001204104000000281Myanmar Soft-Gate Tech Yangon        MMR11005070312164216660507000000000000000   10300001F05104100000000000206000000000000     
100   95030326160984770000000000015000000000015000002000000010410405060159430000234369000506212608000023   1030000500030000   598320002102000015172200021MAX ENERGY             PTN           MMR11005060159430000230506000000000000000   10300001 00104100000000000450000000000000     
100   95050319156011610000000000078200000000078200002000000010410405071134266182761482790507563041826126   1030000900030000   541119001359190110000000977Ocean PZD C 13         YANGONAUNG    MMR11005071134266182760507000000000000000   10300001F00104100000000019550000000000000     
100   95050318601641810000000000012700000000012700002000000010410405070400526077973190430507752301052126   1030000900030000   541119000138190110000000083SeinGayHarParami Cente YANGON        MMR11005070400526077970507000000000000000   10300001F00104100000000003175000000000000     
100   95050319502933380000000000000980000000000980002000000010410405070343071307733517020507000007122261   1020000200030000   333400010001204104000000281Myanmar Soft-Gate Tech Yangon        MMR11005070343071307730507000000000000000   10300001F05104100000000000206000000000000     
100   95050325997730520000000000067018000000067018002000000010410405070608524598190686980507212713459819   1040001600030000   598320000321000000010000309PT Power Petrol Statio Yangon        MMR11005070608524598190507000000000000000   10300001F00104100000000008042000000000000     
100   95030301100215990000000000036200000000036200002000000010410405070804530453534369000507223341435126   1030000300030000   555510120544104519000017443Art and T8                           MMR11005070804530453530507000000000000000   10300001 00104100000000002172000000000000     
100   95050319379439060000000000010000000000010000002000000010410405070453162316142764950507000007122565   1030000200030000   333800010001203104000003327KBZPay                 Yangon        MMR11005070453162316140507000000000000000   10300001F05104100000000002100000000000000     
100   95050322312885760000000000015000000000015000002000000010410405071600263026054290970507000007125180   1030000200030000   333800010001203104000003327KBZPay                 Yangon        MMR11005071600263026050507000000000000000   10300001F05104100000000003150000000000000     
100   95050329252108030000000000042000000000042000002000000010410405060946480001461680560506212616000146   1030000500030000   598320002104000015172200021MAX ENERGY             PTN           MMR11005060946480001460506000000000000000   10300001 00104100000000005040000000000000     
100   62443100379321630000000000150000000000150000002000000010410405060605040002009267920506212612000200   1030000500030000   598320001203000015172200012MAX ENERGY             PTN           MMR11005060605040002000506000000000000000   10300001 00104100000000018000000000000000     
100   95050312498129060000000000002940000000002940002000000010410405071349261926190730710507000007124718   1020000200030000   333400010001204104000000281Myanmar Soft-Gate Tech Yangon        MMR11005071349261926190507000000000000000   10300001F05104100000000000617000000000000     
100   95030301100215990000000000015700000000015700002000000010410405070908126144204369000507561381512126   1030000900030000   541119001074190110000000872Sein Gay Har Hledan    YANGONUT      MMR11005070908126144200507000000000000000   10300001F00104100000000000942000000000000     
100   62443100328070970000000000012000000000012000002000000010410405071252200497054362280507576221900126   1030000500030000   555610112254104519000010487Ocean Super Center St  ohn           MMR11005071252200497050507000000000000000   10300001 00104100000000003000000000000000     
100   95050314365758940000000000016500000000016500002000000010410405070407560422688232980507609371022126   1030000500030000   555610120944104519000017714City Mart Yuzana Dagon Seikkan       MMR11005070407560422680507000000000000000   10300001 00104100000000004125000000000000     
100   62443100313002190000000000009100000000009100002000000010410405061134480000476687450506212618000047   1030000500030000   541120024701022205411200247ORANGE (SHWE PYI THAR) PTN           MMR11005061134480000470506000000000000000   10300001 00104100000000002275000000000000     
100   62911028202539860000000000001500000000001500002000000010410405071632250200654369000507000746703051   1030000200030000   541188001070000008000000314KBZ BANK               MARKETPLACE - MMR11005071632250200650507000000000000000   10300001 00104100000000000090000000000000     
100   62443100379321630000000000030000000000030000002000000010410405060604300001994225380506212612000199   1030000500030000   598320001203000015172200012MAX ENERGY             PTN           MMR11005060604300001990506000000000000000   10300001 00104100000000003600000000000000     
100   95050312498129060000000000000980000000000980002000000010410405062350122012692545310507000007121469   1020000200030000   333400010001204104000000281Myanmar Soft-Gate Tech Yangon        MMR11005062350122012690507000000000000000   10300001F05104100000000000206000000000000     
100   95030339867270590000000000050000000000050000002000000010410405060138150002084369000506212608000208   1030000500030000   598320001004000015172200010MAX ENERGY             PTN           MMR11005060138150002080506000000000000000   10300001 00104100000000001500000000000000     
100   95050322312885760000000000030000000000030000002000000010410405070713284328495304050507000007123204   1030000200030000   333800010001203104000003327KBZPay                 Yangon        MMR11005070713284328490507000000000000000   10300001F05104100000000006300000000000000     
100   62911028202023630000000000063000000000063000002000000010410405062313446049794369000507267430544126   1030000900030000   554119000348190110000000215New Day Energy MYG     YANGONONE     MMR11005062313446049790507000000000000000   10300001F00104100000000001890000000000000     
100   62911028202616250000000000168850000000168850002000000010410405071239390495764369000507409091930126   1030000500030000   555610112983104519000011143Market Place by City M rt Sule       MMR11005071239390495760507000000000000000   10300001 00104100000000010131000000000000     
100   95050317338786370000000000003000000000003000002000000010410405061706413641079921120507000007121246   1030000200030000   3334000100012031040000040102C2P (Myanmar) Co. Ltd Yangon        MMR11005061706413641070507000000000000000   10300001F05104100000000000630000000000000     
100   95050314557307430000000000001960000000001960002000000010410405070412474247868147880507000007122391   1020000200030000   333400010001204104000000281Myanmar Soft-Gate Tech Yangon        MMR11005070412474247860507000000000000000   10300001F05104100000000000412000000000000     
100   95030308100010080000000000000980000000000980002000000010410405071400023002244369000507000007124741   1020000200030000   333400010001204104000000281Myanmar Soft-Gate Tech Yangon        MMR11005071400023002240507000000000000000   10300001F05104100000000000206000000000000     
100   95050323233042810000000000000980000000000980002000000010410405070515204520496410300507000007122683   1020000200030000   333400010001204104000000281Myanmar Soft-Gate Tech Yangon        MMR11005070515204520490507000000000000000   10300001F05104100000000000206000000000000     
100   95050314893649800000000000004900000000004900002000000010410405071340331033395773250507000007124667   1020000200030000   333400010001204104000000281Myanmar Soft-Gate Tech Yangon        MMR11005071340331033390507000000000000000   10300001F05104100000000001029000000000000     
100   95050310427855490000000000000980000000000980002000000010410405071456352635312638480507000007124973   1020000200030000   333400010001204104000000281Myanmar Soft-Gate Tech Yangon        MMR11005071456352635310507000000000000000   10300001F05104100000000000206000000000000     
100   62911028202539860000000000087523000000087523002000000010410405071626150234964369000507000746702753   1030000200030000   541188001059000008000000314KBZ BANK               MARKETPLACE - MMR11005071626150234960507000000000000000   10300001 00104100000000005251000000000000     
100   95030301100121840000000000200000000000200000002000000010410405070433120312304369000507000007122473   1030000200030000   333800010001203104000003327KBZPay                 Yangon        MMR11005070433120312300507000000000000000   10300001F05104100000000042000000000000000     
100   95050324154190880000000000006700000000006700002000000010410405070758036128770596170507361281403126   1030000900030000   591219000507190110000000354Shwe Ohh Pharmacy - (S YANGON        MMR11005070758036128770507000000000000000   10300001F00104100000000001608000000000000     
100   95050310750557450000000000075900000000075900002000000010410405070852230460597376300507111241517126   1030000300030000   555510124688104519000020166Makro Myanmar                        MMR11005070852230460590507000000000000000   10300001 00104100000000018216000000000000     
100   62911028202528710000000000040000000000040000002000000010410405060612270001204369000506212612000120   1030000500030000   598320002104000015172200021MAX ENERGY             PTN           MMR11005060612270001200506000000000000000   10300001 00104100000000001200000000000000     
100   95030325264619140000000000067270000000067270002000000010410405060529120000944369000506212611000094   1030000500030000   598320002101000015172200021MAX ENERGY             PTN           MMR11005060529120000940506000000000000000   10300001 00104100000000002018000000000000     
100   95030317922148660000000000034000000000034000002000000010410405060714180001844369000506212613000184   1030000500030000   598320001301000015172200013MAX ENERGY             PTN           MMR11005060714180001840506000000000000000   10300001 00104100000000001020000000000000     
100   95030394609966640000000000012300000000012300002000000010410405070916576146294369000507727461557126   1030000900030000   591219000691190110000000522Shwe Ohh Pharmacy ST-1 YANGONUNG     MMR11005070916576146290507000000000000000   10300001F00104100000000000738000000000000     
100   95050318741700180000000000001960000000001960002000000010410405070305143514698389380507000007122093   1020000200030000   333400010001204104000000281Myanmar Soft-Gate Tech Yangon        MMR11005070305143514690507000000000000000   10300001F05104100000000000412000000000000     
100   62443100322986690000000000100000000000100000002000000010410405070706043604195814630507000007123171   1030000200030000   333800010001203104000003327KBZPay                 Yangon        MMR11005070706043604190507000000000000000   10300001F05104100000000021000000000000000     
100   62911028202527800000000000007400000000007400002000000010410405070814494662824369000507212715466282   1040001600030000   591220000260000000010000248Shwe Ohh Pharmacy (KDL Yangon        MMR11005070814494662820507000000000000000   10300001F00104100000000000444000000000000     
100   95050310494988230000000000010000000000010000002000000010410405061720275027612715500507000007121274   1030000200030000   333800010001203104000003327KBZPay                 Yangon        MMR11005061720275027610507000000000000000   10300001F05104100000000002100000000000000     
100   95050311121153200000000000010000000000010000002000000010410405071242541254149404820507000007124445   1030000200030000   333800010001203104000003327KBZPay                 Yangon        MMR11005071242541254140507000000000000000   10300001F05104100000000002100000000000000     
100   95050319532433550000000000020121000000020121002000000010410405071445021502983950580507000007124922   1030000200030000   333800010001203104000003327KBZPay                 Yangon        MMR11005071445021502980507000000000000000   10300001F05104100000000004226000000000000     
100   95050319111666800000000000000980000000000980002000000010410405071311114111481057300507000007124544   1020000200030000   333400010001204104000000281Myanmar Soft-Gate Tech Yangon        MMR11005071311114111480507000000000000000   10300001F05104100000000000206000000000000     
100   95050316736513170000000000004500000000004500002000000010410405070304243424683346830507000007122088   1030000200030000   333800010001203104000003327KBZPay                 Yangon        MMR11005070304243424680507000000000000000   10300001F05104100000000000945000000000000     
100   62911028202169750000000000015000000000015000002000000010410405071114210016384369000507000746688183   1030000200030000   541188001011000008000000008KBZ BANK               MARKETPLACE - MMR11005071114210016380507000000000000000   10300001 00104100000000000900000000000000     
100   95050310607449490000000000038400000000038400002000000010410405071253090015690601890507000746692623   1030000200030000   541188001484000008000000399KBZ BANK               OCEAN SUPERCE MMR11005071253090015690507000000000000000   10300001 00104100000000009600000000000000     
100   95030322371504830000000000183897000000183897002000000010410405071615170015764369000507000746702093   1030000200030000   541188001484000008000000399KBZ BANK               OCEAN SUPERCE MMR11005071615170015760507000000000000000   10300001 00104100000000011034000000000000     
100   95030322371504830000000000012600000000012600002000000010410405071619350015774369000507000746702331   1030000200030000   541188001484000008000000399KBZ BANK               OCEAN SUPERCE MMR11005071619350015770507000000000000000   10300001 00104100000000000756000000000000     
100   95030301100121840000000000300000000000300000002000000010410405070432160216254369000507000007122468   1030000200030000   333800010001203104000003327KBZPay                 Yangon        MMR11005070432160216250507000000000000000   10300001F05104100000000063000000000000000     
100   62443100383487320000000000095015000000095015002000000010410405071125120227032679850507000746688659   1030000200030000   541188001003000008000000008KBZ BANK               MARKETPLACE - MMR11005071125120227030507000000000000000   10300001 00104100000000023754000000000000     
100   62911028202524260000000000103450000000103450002000000010410405070201020411784369000507436370842126   1030000300030000   555510124691104519000020166Makro Myanmar                        MMR11005070201020411780507000000000000000   10300001 00104100000000006207000000000000     
100   95030346179196360000000000049250000000049250002000000010410405071752240083424369000507000746707357   1030000200030000   541188001282000008000000319KBZ BANK               NEIGHBOURHOOD MMR11005071752240083420507000000000000000   10300001 00104100000000002955000000000000     
100   62911028202169750000000000023293000000023293002000000010410405070521154569894369000507212712456989   1040001600030000   541120000557000000010000465Ocean Shwe Gone Daing  Yangon        MMR11005070521154569890507000000000000000   10300001F00104100000000001398000000000000     
100   95050325630928770000000000000980000000000980002000000010410405070017324732880892830507000007121516   1020000200030000   333400010001204104000000281Myanmar Soft-Gate Tech Yangon        MMR11005070017324732880507000000000000000   10300001F05104100000000000206000000000000     
100   95050312638349680000000000040800000000040800002000000010410405071138570487608177820507404111813126   1030000500030000   555610103978104519000003818Ocean Oattara Thiri Na PyiTaw        MMR11005071138570487600507000000000000000   10300001 00104100000000010200000000000000     
100   62443100328070970000000000046750000000046750002000000010410405071310500498912709790507830401935126   1030000500030000   555610112240104519000010487Ocean Super Center St  ohn           MMR11005071310500498910507000000000000000   10300001 00104100000000011688000000000000     
100   62911028202057620000000000010000000000010000002000000010410405071537420742454369000507000007125105   1030000200030000   333800010001203104000003327KBZPay                 Yangon        MMR11005071537420742450507000000000000000   10300001F05104100000000002100000000000000     
100   95050316601084530000000000000980000000000980002000000010410405070054082408044538180507000007121583   1020000200030000   333400010001204104000000281Myanmar Soft-Gate Tech Yangon        MMR11005070054082408040507000000000000000   10300001F05104100000000000206000000000000     
100   62911028202397530000000000200200000000200200002000000010410405071012024202044369000507000007123864   1030000900030000   333300010001202104000002659MSP                    Yangon        MMR11005071012024202040507000000000000000   10300001F05104100000000010000000000000000     
100   62911028202003590000000000100000000000100000002000000010410405070711194119414369000507000007123195   1030000200030000   333800010001203104000003327KBZPay                 Yangon        MMR11005070711194119410507000000000000000   10300001F05104100000000021000000000000000     
100   62443100381661260000000000021600000000021600002000000010410405071711190087688007630507000746705061   1030000200030000   541188001060000008000000314KBZ BANK               MARKETPLACE - MMR11005071711190087680507000000000000000   10300001 00104100000000005400000000000000     
100   95030394609966640000000000002000000000002000002000000010410405071626380073544369000507000746702765   1030000200030000   541188001033000008000000298KBZ BANK               CITY MART - M MMR11005071626380073540507000000000000000   10300001 00104100000000000120000000000000     
100   62911028202194090000000000067000000000067000002000000010410405070226340413354369000507620030922126   1030000300030000   555510124691104519000020166Makro Myanmar                        MMR11005070226340413350507000000000000000   10300001 00104100000000004020000000000000     
100   62911028202440680000000000010350000000010350002000000010410405071736260179314369000507000746706401   1030000200030000   541188001082000008000000294KBZ BANK               CITY MART - J MMR11005071736260179310507000000000000000   10300001 00104100000000000621000000000000     
100   62911028202502480000000000043323000000043323002000000010410405071626200275364369000507000746702757   1030000200030000   541188001042000008000000010KBZ BANK               MARKETPLACE - MMR11005071626200275360507000000000000000   10300001 00104100000000002599000000000000     
100   95030302100067550000000000024800000000024800002000000010410405070128490410164369000507338040856126   1030000500030000   555610120972104519000017735City Express MCS 24                  MMR11005070128490410160507000000000000000   10300001 00104100000000001488000000000000     
100   62911028202662510000000000035356000000035356002000000010410405071039470020844369000507000746686706   1030000200030000   541188001004000008000000008KBZ BANK               MARKETPLACE - MMR11005071039470020840507000000000000000   10300001 00104100000000002121000000000000     
100   62911028202109860000000000020600000000020600002000000010410405071332220021124369000507000746694600   1030000200030000   541188001021000008000000298KBZ BANK               CITY MART - M MMR11005071332220021120507000000000000000   10300001 00104100000000001236000000000000     
100   95050312498129060000000000002940000000002940002000000010410405071408373837512298090507000007124783   1020000200030000   333400010001204104000000281Myanmar Soft-Gate Tech Yangon        MMR11005071408373837510507000000000000000   10300001F05104100000000000617000000000000     
100   62911028202169750000000000067500000000067500002000000010410405070534514578294369000507212712457829   1040001600030000   541120000571000000010000465Ocean Shwe Gone Daing  Yangon        MMR11005070534514578290507000000000000000   10300001F00104100000000004050000000000000     
100   95050311382087030000000000003920000000003920002000000010410405071239160916039489920507000007124431   1020000200030000   333400010001204104000000281Myanmar Soft-Gate Tech Yangon        MMR11005071239160916030507000000000000000   10300001F05104100000000000823000000000000     
100   95050312498129060000000000000980000000000980002000000010410405070740031003988864300507000007123286   1020000200030000   333400010001204104000000281Myanmar Soft-Gate Tech Yangon        MMR11005070740031003980507000000000000000   10300001F05104100000000000206000000000000     
100   95050319379439060000000000020000000000020000002000000010410405070255132513855084410507000007122028   1030000200030000   333800010001203104000003327KBZPay                 Yangon        MMR11005070255132513850507000000000000000   10300001F05104100000000004200000000000000     
100   95050312498129060000000000005880000000005880002000000010410405071313344334030972210507000007124552   1020000200030000   333400010001204104000000281Myanmar Soft-Gate Tech Yangon        MMR11005071313344334030507000000000000000   10300001F05104100000000001235000000000000     
100   62443100399918110000000000002940000000002940002000000010410405070615424542257382010507000007122948   1020000200030000   333400010001204104000000281Myanmar Soft-Gate Tech Yangon        MMR11005070615424542250507000000000000000   10300001F05104100000000000617000000000000     
100   95050311184380560000000000001960000000001960002000000010410405071549331933369248420507000007125144   1020000200030000   333400010001204104000000281Myanmar Soft-Gate Tech Yangon        MMR11005071549331933360507000000000000000   10300001F05104100000000000412000000000000     
100   62911028202341350000000000008500000000008500002000000010410405071541000145834369000507000746700617   1030000200030000   541188001073000008000000294KBZ BANK               CITY MART - J MMR11005071541000145830507000000000000000   10300001 00104100000000000510000000000000     
100   95050311876202380000000000015450000000015450002000000010410405071105420030796184950507212717003079   1020000200030000   541100255002300115411000025MWD BANK               YGN           MMR11005071105420030790507000000000000000   10300001 00104100000000003863000000000000     
100   62911028202169750000000000196610000000196610002000000010410405071110510020864369000507000746688037   1030000200030000   541188001004000008000000008KBZ BANK               MARKETPLACE - MMR11005071110510020860507000000000000000   10300001 00104100000000011797000000000000     
100   95050327192897240000000000005100000000005100002000000010410405071255590082769289780507000746692765   1030000200030000   541188001071000008000000314KBZ BANK               MARKETPLACE - MMR11005071255590082760507000000000000000   10300001 00104100000000001275000000000000     
100   95050318951177660000000000041000000000041000002000000010410405070932500250438433110507000007123694   1030000200030000   333800010001203104000003327KBZPay                 Yangon        MMR11005070932500250430507000000000000000   10300001F05104100000000008610000000000000     
100   95050318134586070000000000019100000000019100002000000010410405070925230065046736900507000746683848   1030000200030000   541188001316000008000000306KBZ BANK               CITY MART - S MMR11005070925230065040507000000000000000   10300001 00104100000000004775000000000000     
100   95050322921717110000000000048616000000048616002000000010410405071543380071939028780507000746700730   1030000200030000   541188001006000008000000008KBZ BANK               MARKETPLACE - MMR11005071543380071930507000000000000000   10300001 00104100000000012154000000000000     
100   95050316997303010000000000000980000000000980002000000010410405071434050405237255550507000007124879   1020000200030000   333400010001204104000000281Myanmar Soft-Gate Tech Yangon        MMR11005071434050405230507000000000000000   10300001F05104100000000000206000000000000     
100   95030371405797020000000000038300000000038300002000000010410405061712214221964369000507000007121260   1030000200030000   333800010001203104000003327KBZPay                 Yangon        MMR11005061712214221960507000000000000000   10300001F05104100000000008043000000000000     
100   95050317100052460000000000000500000000000500002000000010410405071346461646964035680507000007124700   1030000200030000   333800010001203104000003327KBZPay                 Yangon        MMR11005071346461646960507000000000000000   10300001F05104100000000000105000000000000     
100   95050313836159580000000000001000000000001000002000000010410405070343021302731864540507000007122255   1030000200030000   3334000100012031040000040102C2P (Myanmar) Co. Ltd Yangon        MMR11005070343021302730507000000000000000   10300001F05104100000000000210000000000000     
100   95050314567755980000000000002940000000002940002000000010410405071202323232324192080507000007124296   1020000200030000   333400010001204104000000281Myanmar Soft-Gate Tech Yangon        MMR11005071202323232320507000000000000000   10300001F05104100000000000617000000000000     
100   95050312498129060000000000004900000000004900002000000010410405071007373737235383430507000007123847   1020000200030000   333400010001204104000000281Myanmar Soft-Gate Tech Yangon        MMR11005071007373737230507000000000000000   10300001F05104100000000001029000000000000     
100   95050310520330790000000000050000000000050000002000000010410405070607373737812424560507000007122924   1030000200030000   333800010001203104000003327KBZPay                 Yangon        MMR11005070607373737810507000000000000000   10300001F05104100000000010500000000000000     
100   62911028202169750000000000031000000000031000002000000010410405070703496117534369000507513331349126   1030000900030000   554119001101190110000000213New Day Energy SOK     YANGONOKKALAP MMR11005070703496117530507000000000000000   10300001F00104100000000000930000000000000     
100   95030333409030400000000000355300000000355300002000000010410405070701006117064369000507480311300126   1030000900030000   573219001183190110000000939UNIQUE Thingangyun     YANGONNGKUUN  MMR11005070701006117060507000000000000000   10300001F00104100000000021318000000000000     
100   62911028202161240000000000019156000000019156002000000010410405071908580346004369000507000746710949   1030000200030000   541188001024000008000000298KBZ BANK               CITY MART - M MMR11005071908580346000507000000000000000   10300001 00104100000000001149000000000000     
100   95030394609966640000000000028200000000028200002000000010410405071621080126904369000507000746702406   1030000200030000   541188001019000008000000298KBZ BANK               CITY MART - M MMR11005071621080126900507000000000000000   10300001 00104100000000001692000000000000     
100   95050312498129060000000000004900000000004900002000000010410405071133360336226525330507000007124189   1020000200030000   333400010001204104000000281Myanmar Soft-Gate Tech Yangon        MMR11005071133360336220507000000000000000   10300001F05104100000000001029000000000000     
100   95030310098554020000000000009600000000009600002000000010410405070314240417194369000507015440959126   1030000300030000   444410111504104519000009877YKKO Botahtaung                      MMR11005070314240417190507000000000000000   10300001 00104100000000000979000000000000     
100   95050327192897240000000000015131000000015131002000000010410405071249200087398949400507000746692467   1030000200030000   541188001060000008000000314KBZ BANK               MARKETPLACE - MMR11005071249200087390507000000000000000   10300001 00104100000000003783000000000000     
100   62443100372702000000000000015600000000015600002000000010410405071419000145733821760507000746696724   1030000200030000   541188001073000008000000294KBZ BANK               CITY MART - J MMR11005071419000145730507000000000000000   10300001 00104100000000003900000000000000     
100   62443100360763680000000000057350000000057350002000000010410405071646440315950340880507000746703719   1030000200030000   541188001039000008000000010KBZ BANK               MARKETPLACE - MMR11005071646440315950507000000000000000   10300001 00104100000000014338000000000000     
100   62911028202341350000000000007900000000007900002000000010410405071548130187794369000507000746700942   1030000200030000   541188001080000008000000294KBZ BANK               CITY MART - J MMR11005071548130187790507000000000000000   10300001 00104100000000000474000000000000     
100   95030301100425380000000000033400000000033400002000000010410405070912466145354369000507658421546126   1030000900030000   541119001508190110000001102Ocean MGDTM-C 1        YANGONADON    MMR11005070912466145350507000000000000000   10300001F00104100000000002004000000000000     
100   95050310357533060000000000038000000000038000002000000010410405070830006136048773490507929001500126   1030000900030000   569919000578190110000000418D & C Myanmar (CT)     YANGONAW      MMR11005070830006136040507000000000000000   10300001F00104100000000009120000000000000     
100   95050319156011610000000000004000000000004000002000000010410405070956016155498348010507434261601126   1030000900030000   541119001361190110000000977Ocean PZD C 15         YANGONAUNG    MMR11005070956016155490507000000000000000   10300001F00104100000000001000000000000000     
100   95050311959900780000000000001960000000001960002000000010410405070525415541211367750507000007122732   1020000200030000   333400010001204104000000281Myanmar Soft-Gate Tech Yangon        MMR11005070525415541210507000000000000000   10300001F05104100000000000412000000000000     
100   95030300515226620000000000048000000000048000002000000010410405070707336118264369000507560371333126   1030000900030000   729819000945190110000000752SML Clinic             YANGON        MMR11005070707336118260507000000000000000   10300001F00104100000000002880000000000000     
100   95030301100126550000000000081000000000081000002000000010410405070653446115434369000507353231344126   1030000900030000   571219001539190110000001113Pro 1 Plus Store-4     YANGONADON    MMR11005070653446115430507000000000000000   10300001F00104100000000004860000000000000     
100   95050318901726910000000000290000000000290000002000000010410405070916016146123475660507718461501126   1030000900030000   541119000081190110000000057Pro (1) Global (Tampaw MANDALAYHARSI MMR11005070916016146120507000000000000000   10300001F00104100000000072500000000000000     
100   95030379578686440000000000025950000000025950002000000010410405071111166176214369000507077411716126   1030000900030000   541119000547190110000000394Super One ShoppingMall YANGON        MMR11005071111166176210507000000000000000   10300001F00104100000000001557000000000000     
100   62911028202161240000000000008550000000008550002000000010410405071005110344314369000507000746685321   1030000200030000   541188001025000008000000298KBZ BANK               CITY MART - M MMR11005071005110344310507000000000000000   10300001 00104100000000000513000000000000     
100   95050319207947610000000000024129000000024129002000000010410405061258130017746445960506000343849559   1030000300030000   541100000218000000000000113CB BANK                ONESTOP KITCH MMR11005061258130017740506000000000000000   10300001F00104100000000006033000000000000     
100   62911028202400660000000000032990000000032990002000000010410405061012490000114369000506212616000011   1030000500030000   569120090901000015691200909GIORDANO JUNCTION 8    PTN           MMR11005061012490000110506000000000000000   10300001 00104100000000001979000000000000     
100   95050318805978240000000000012610000000012610002000000010410405060948140000708375590506212616000070   1030000500030000   531120155714000045311201557GAMONE PWINT           PTN           MMR11005060948140000700506000000000000000   10300001 00104100000000003026000000000000     
100   95050312360118350000000000004780000000004780002000000010410405060948130040811765650506000343824413   1030000300030000   591200000169000000000000084CB BANK                MEDICARE STOR MMR11005060948130040810506000000000000000   10300001F00104100000000001147000000000000     
100   95030301100095370000000000048900000000048900002000000010410405060511550000314369000506212611000031   1030000500030000   591220011001014405912200110SHWE OHH PHARMACY      PTN           MMR11005060511550000310506000000000000000   10300001 00104100000000002934000000000000     
100   62911028202125290000000000060000000000060000002000000010410405060336520002724369000506212610000272   1030000500030000   598320001302000015172200013MAX ENERGY             PTN           MMR11005060336520002720506000000000000000   10300001 00104100000000001800000000000000     
100   62443100326436660000000000010000000000010000002000000010410405060947400002173333040506212616000217   1030000500030000   598320002702000015172200027MAX ENERGY             PTN           MMR11005060947400002170506000000000000000   10300001 00104100000000001200000000000000     
100   95050311876202380000000000017200000000017200002000000010410405071148246186507582150507834181824126   1030000900030000   541119001332190110000000971Ocean Junction NPT C 1 NAYPYITAW     MMR11005071148246186500507000000000000000   10300001F00104100000000004300000000000000     
100   95030301100124400000000000015337000000015337002000000010410405070230346061954369000507687000934126   1030000900030000   541119001260190110000000958City Mart PLST C 3     YANGONMYOTHIT MMR11005070230346061950507000000000000000   10300001F00104100000000000920000000000000     
100   95050312023656110000000000050000000000050000002000000010410405070526295629408062780507000007122728   1030000200030000   333800010001203104000003327KBZPay                 Yangon        MMR11005070526295629400507000000000000000   10300001F05104100000000010500000000000000     
100   95050317376014640000000000012104000000012104002000000010410405071235276197982794880507646051927126   1030000900030000   541119001349190110000000977Ocean PZD C 3          YANGONAUNG    MMR11005071235276197980507000000000000000   10300001F00104100000000003026000000000000     
100   95030301100123250000000000081000000000081000002000000010410405070627095709694369000507000007123007   1030000200030000   333800010001203104000003327KBZPay                 Yangon        MMR11005070627095709690507000000000000000   10300001F05104100000000017010000000000000     
100   95050310746600650000000000050350000000050350002000000010410405070127105710533857410507000007121672   1030000200030000   333800010001203104000003327KBZPay                 Yangon        MMR11005070127105710530507000000000000000   10300001F05104100000000010574000000000000     
100   95050310585042220000000000050350000000050350002000000010410405070124295429782204920507000007121666   1030000200030000   333800010001203104000003327KBZPay                 Yangon        MMR11005070124295429780507000000000000000   10300001F05104100000000010574000000000000     
100   95050312498129060000000000000980000000000980002000000010410405071323165316229319720507000007124580   1020000200030000   333400010001204104000000281Myanmar Soft-Gate Tech Yangon        MMR11005071323165316220507000000000000000   10300001F05104100000000000206000000000000     
