100   95050310080023760000000000018500000000018500002000000010410405051150030000528323790505212518000052   1030000500030000   531120156005000045311201560GAMONE PWINT           PTN           MMR11005051150030000520505000000000000000   10300001 00104100000000004440000000000000     
100   95050319207947610000000000003500000000003500002000000010410405050044150016746181190505000343581260   1030000300030000   541100000218000000000000113CB BANK                ONESTOP KITCH MMR11005050044150016740505000000000000000   10300001F00104100000000000875000000000000     
100   62911028202312890000000000050000000000050000002000000010410405050407220000254369000505212510000025   1030000500030000   598320001602000015172200016MAX ENERGY             PTN           MMR11005050407220000250505000000000000000   10300001 00104100000000001500000000000000     
100   62443100390038980000000000215700000000215700002000000010410405051420280001776174520505212520000177   1030000500030000   581220197901000015812201979CANTON PARADISE (SYS)  PTN           MMR11005051420280001770505000000000000000   10300001 00104100000000091673000000000000     
100   62911028202264530000000000085000000000085000002000000010410405050709210000114369000505212513000011   1030000500030000   481220073201005904812200732TECHNOLAND COMPUTER TR PTN           MMR11005050709210000110505000000000000000   10300001 00104100000000005100000000000000     
100   62911028202194090000000000023000000000023000002000000010410405050639350000564369000505212513000056   1030000500030000   598320001204000015172200012MAX ENERGY             PTN           MMR11005050639350000560505000000000000000   10300001 00104100000000000690000000000000     
100   62911028202442250000000000123006000000123006002000000010410405050251570000264369000505212509000026   1030000500030000   598320001203000015172200012MAX ENERGY             PTN           MMR11005050251570000260505000000000000000   10300001 00104100000000003690000000000000     
100   62443100379321630000000000037000000000037000002000000010410405050820340001415855990505000343643368   1030000300030000   598300001209000000000000817CB BANK                SHWE TAUNG EN MMR11005050820340001410505000000000000000   10300001F00104100000000004440000000000000     
100   62911028202108460000000000050000000000050000002000000010410405050238460000314369000505212509000031   1030000500030000   598320001202000015172200012MAX ENERGY             PTN           MMR11005050238460000310505000000000000000   10300001 00104100000000001500000000000000     
100   62911028202074950000000000030000000000030000002000000010410405050903050000694369000505212515000069   1030000500030000   598320001201000015172200012MAX ENERGY             PTN           MMR11005050903050000690505000000000000000   10300001 00104100000000000900000000000000     
100   62911028202286990000000000040000000000040000002000000010410405050213300000234369000505212508000023   1030000500030000   598320001904000015172200019MAX ENERGY             PTN           MMR11005050213300000230505000000000000000   10300001 00104100000000001200000000000000     
100   62911028202103410000000000029500000000029500002000000010410405050713400000124369000505212513000012   1030000500030000   591220132901008605912201329THEIK DI WIN SHOP      PTN           MMR11005050713400000120505000000000000000   10300001 00104100000000001770000000000000     
100   62443100358839880000000000090000000000090000002000000010410405050225040000197443840505212508000019   1030000500030000   598320002701000015172200027MAX ENERGY             PTN           MMR11005050225040000190505000000000000000   10300001 00104100000000010800000000000000     
100   62911028202700140000000000047500000000047500002000000010410405050708000000174369000505212513000017   1030000500030000   598320101301005405983201013PT POWER (NPT)         PTN           MMR11005050708000000170505000000000000000   10300001 00104100000000001425000000000000     
100   62443101007477200000000000053900000000053900002000000010410405051422480002787827000505212520000278   1030000500030000   581320123101000045813201231MALIBU BAR             PTN           MMR11005051422480002780505000000000000000   10300001 00104100000000022908000000000000     
100   62443101007477200000000000013500000000013500002000000010410405051423230002792869540505212520000279   1030000500030000   581320123101000045813201231MALIBU BAR             PTN           MMR11005051423230002790505000000000000000   10300001 00104100000000005738000000000000     
100   95050320093758110000000000015000000000015000002000000010410405051050100067862891410505212510006786   1030000600030000   554100002139315799420001488DENKO MDY-12           MANDALAY      MMR11005051050100067860505000000000000000   10300001 00104100000000001800000000000000     
100   62911028202503210000000000034000000000034000002000000010410405050137120023454369000505212508002345   1030000500030000   598320001901000015172200019MAX ENERGY             PTN           MMR11005050137120023450505000000000000000   10300001 00104100000000001020000000000000     
100   95030366960186690000000000054090000000054090002000000010410405050328320005464369000505212509000546   1030000500030000   806220172402013008062201724GRAND HANTHA HOSPITAL  PTN           MMR11005050328320005460505000000000000000   10300001 00104100000000003245000000000000     
100   62443100390038980000000000068542000000068542002000000010410405051239170001973536530505212519000197   1030000500030000   598320001302000015172200013MAX ENERGY             PTN           MMR11005051239170001970505000000000000000   10300001 00104100000000008225000000000000     
100   62911028202474180000000000020000000000020000002000000010410405050755530018404369000505212514001840   1030000500030000   598320001402000015172200014MAX ENERGY             PTN           MMR11005050755530018400505000000000000000   10300001 00104100000000000600000000000000     
100   62443100325551180000000000022500000000022500002000000010410405050410300002770889070505212510000277   1030000500030000   503920036607000015039200366PRO-1 HOME CENTER      PTN           MMR11005050410300002770505000000000000000   10300001 00104100000000005400000000000000     
100   62443101025940470000000000117000000000117000002000000010410405050150530261016947050505212501026101   1030000600030000   554100002086315799420001136DENKOHLAING THAR YAR   YANGON        MMR11005050150530261010505000000000000000   10300001 00104100000000014040000000000000     
100   95030319588829360000000000050000000000050000002000000010410405050525070753364369000505212505075336   1030000600030000   554100000955315799420000477DENKO INSEIN           YANGON        MMR11005050525070753360505000000000000000   10300001 00104100000000001500000000000000     
100   95030361482647470000000000010000000000010000002000000010410405051126360710734369000505212511071073   1030000600030000   554100000957315799420000480DENKO N.DAGON - 3      YANGON        MMR11005051126360710730505000000000000000   10300001 00104100000000000300000000000000     
100   62911028202154800000000000057000000000057000002000000010410405040855560627404369000504212408062740   1030000600030000   554100000952315799420000474DENKO N.DAGON - 1      YANGON        MMR11005040855560627400504000000000000000   10300001 00104100000000001710000000000000     
100   95050317465574180000000000030000000000030000002000000010410405061432000200011743790506000007120839   1030000200030000   333800010001203104000003327KBZPay                 Yangon        MMR11005061432000200010506000000000000000   10300001F05104100000000006300000000000000     
100   62911028202531840000000000015800000000015800002000000010410405061009100226294369000506000746629277   1030000200030000   541188001003000008000000008KBZ BANK               MARKETPLACE - MMR11005061009100226290506000000000000000   10300001 00104100000000000948000000000000     
100   95050323133124350000000000000979000000000979002000000010410405060247021702694983170506000007115545   1020000200030000   333400010001204104000000281Myanmar Soft-Gate Tech Yangon        MMR11005060247021702690506000000000000000   10300001F05104100000000000205000000000000     
100   95050317728825080000000000016100000000016100002000000010410405060246155852933495160506426160915125   1030000900030000   541119000124190110000000080Sein Gay Har BAK       YANGONADA     MMR11005060246155852930506000000000000000   10300001F00104100000000004025000000000000     
100   95050311382087030000000000002940000000002940002000000010410405060906163616280453560506000007119208   1020000200030000   333400010001204104000000281Myanmar Soft-Gate Tech Yangon        MMR11005060906163616280506000000000000000   10300001F05104100000000000617000000000000     
100   95050324411430900000000000029500000000029500002000000010410405060701343134553643490506000007117985   1010000100030000   333500010001212104000002840Internal Revenue Depar Yangon        MMR11005060701343134550506000000000000000   10300001F05104100000000060000000000000000     
100   95030301100122420000000000045620000000045620002000000010410405050317540051724369000505000343599685   1030000300030000   806200000197000000000000097CB BANK                AUNG YADANA H MMR11005050317540051720505000000000000000   10300001F00104100000000002737000000000000     
100   95050312818293620000000000040600000000040600002000000010410405051130040000183962010505212518000018   1030000500030000   531120156006000045311201560GAMONE PWINT           PTN           MMR11005051130040000180505000000000000000   10300001 00104100000000009744000000000000     
100   95050320624349010000000000050000000000050000002000000010410405060348523847085282180506212610384708   1040001600030000   598320000915000000010000664MMTM - North Dagon     Ygn           MMR11005060348523847080506000000000000000   10300001F00104100000000006000000000000000     
100   95030371405797020000000000028000000000028000002000000010410405060948271827554369000506000007119592   1030000200030000   333800010001203104000003327KBZPay                 Yangon        MMR11005060948271827550506000000000000000   10300001F05104100000000005880000000000000     
100   62911028202911680000000000003400000000003400002000000010410405061126465979844369000506790561746125   1030000900030000   541119001372190110000000978Ocean PZD Season C 2   YANGONAUNG    MMR11005061126465979840506000000000000000   10300001F00104100000000000204000000000000     
100   95050312695033440000000000000980000000000980002000000010410405061327375737094708370506000007120601   1020000200030000   333400010001204104000000281Myanmar Soft-Gate Tech Yangon        MMR11005061327375737090506000000000000000   10300001F05104100000000000206000000000000     
100   95050318712627500000000000025200000000025200002000000010410405061019294048657538420506212617404865   1040001600030000   541120000557000000010000465Ocean Shwe Gone Daing  Yangon        MMR11005061019294048650506000000000000000   10300001F00104100000000006300000000000000     
100   95050315150726490000000000000980000000000980002000000010410405060655322532667033550506000007117921   1020000200030000   333400010001204104000000281Myanmar Soft-Gate Tech Yangon        MMR11005060655322532660506000000000000000   10300001F05104100000000000206000000000000     
100   62911028202507430000000000080025000000080025002000000010410405060957315955794369000506183271631125   1030000900030000   541119001468190110000001066Million Mart Y NUV     YANGON        MMR11005060957315955790506000000000000000   10300001F00104100000000004802000000000000     
100   62443100374797770000000000350000000000350000002000000010410405061031124057016141220506212617405701   1040001600030000   806220000092000000010000088Dr Z Aesthetics & Dent Yangon        MMR11005061031124057010506000000000000000   10300001F00104100000000084000000000000000     
100   95050319978637470000000000005000000000005000002000000010410405060203153315580195900506000007115268   1030000200030000   3338000100012031040000040022C2P (Myanmar) Co. Ltd Yangon        MMR11005060203153315580506000000000000000   10300001F05104100000000001050000000000000     
100   95050319111666800000000000000980000000000980002000000010410405052259332933443039740506000007114880   1020000200030000   333400010001204104000000281Myanmar Soft-Gate Tech Yangon        MMR11005052259332933440506000000000000000   10300001F05104100000000000206000000000000     
100   62911028202668140000000000058742000000058742002000000010410405061740400015864369000506000746662968   1030000200030000   541188001040000008000000010KBZ BANK               MARKETPLACE - MMR11005061740400015860506000000000000000   10300001 00104100000000003525000000000000     
100   95050324247403260000000000002700000000002700002000000010410405061857040015883382490506000746666571   1030000200030000   541188001131000008000000296KBZ BANK               CITY MART - J MMR11005061857040015880506000000000000000   10300001 00104100000000000675000000000000     
100   62911028202908550000000000019000000000019000002000000010410405060630150015594369000506000007117668   1030000200030000   333800010001203104000003327KBZPay                 Yangon        MMR11005060630150015590506000000000000000   10300001F05104100000000003990000000000000     
100   62911028202161240000000000038570000000038570002000000010410405061041470019004369000506000746631911   1030000200030000   541188001005000008000000008KBZ BANK               MARKETPLACE - MMR11005061041470019000506000000000000000   10300001 00104100000000002314000000000000     
100   95050327185992630000000000008712000000008712002000000010410405061628040020211353960506000746658507   1030000200030000   541188001079000008000000294KBZ BANK               CITY MART - J MMR11005061628040020210506000000000000000   10300001 00104100000000002178000000000000     
100   62443100309698080000000000016200000000016200002000000010410405061335430003648600940506000746647155   1030000200030000   581288000945000008000004870KBZ BANK               PIZZA HUT RES MMR11005061335430003640506000000000000000   10300001 00104100000000006885000000000000     
100   95050325925517520000000000019450000000019450002000000010410405060520280320906558630506055531147125   1030000500030000   555610110595104519000009166City Mart 47 Branch                  MMR11005060520280320900506000000000000000   10300001 00104100000000004863000000000000     
100   62911028202593140000000000009700000000009700002000000010410405060701490334524369000506609311333125   1030000500030000   555610114575104519000012532City Mart Ahlone Branc               MMR11005060701490334520506000000000000000   10300001 00104100000000000582000000000000     
100   62911028202461620000000000019400000000019400002000000010410405060815130343464369000506644471422125   1030000500030000   555610110570104519000009164City Mart China Town P int Cen       MMR11005060815130343460506000000000000000   10300001 00104100000000001164000000000000     
100   95030325264619140000000000012950000000012950002000000010410405060500270317884369000506724291157125   1030000300030000   555510125330104519000021173One Stop Mart Shopping Mall 0003     MMR11005060500270317880506000000000000000   10300001 00104100000000000777000000000000     
100   62911028202400660000000000024450000000024450002000000010410405061220130088734369000506000746640572   1030000200030000   541188001128000008000000296KBZ BANK               CITY MART - J MMR11005061220130088730506000000000000000   10300001 00104100000000001467000000000000     
100   95050318416662540000000000002000000000002000002000000010410405060031370137337316420506000007114975   1030000200030000   333800010001203104000003327KBZPay                 Yangon        MMR11005060031370137330506000000000000000   10300001F05104100000000000420000000000000     
100   95050320788558180000000000041300000000041300002000000010410405061229520170142317600506000746641488   1030000200030000   541188001126000008000000296KBZ BANK               CITY MART - J MMR11005061229520170140506000000000000000   10300001 00104100000000010325000000000000     
100   95030322236782320000000000038500000000038500002000000010410405061827200082624369000506000746665414   1030000200030000   541188001262000008000000310KBZ BANK               CITY MART- FM MMR11005061827200082620506000000000000000   10300001 00104100000000002310000000000000     
100   95030300515226620000000000020300000000020300002000000010410405061530270209134369000506000746655373   1030000200030000   541188001037000008000000010KBZ BANK               MARKETPLACE - MMR11005061530270209130506000000000000000   10300001 00104100000000001218000000000000     
100   95050314307746340000000000000980000000000980002000000010410405061333240324509665830506000007120625   1020000200030000   333400010001204104000000281Myanmar Soft-Gate Tech Yangon        MMR11005061333240324500506000000000000000   10300001F05104100000000000206000000000000     
100   62911028202668140000000000014800000000014800002000000010410405061747430128714369000506000746663354   1030000200030000   541188001047000008000000010KBZ BANK               MARKETPLACE - MMR11005061747430128710506000000000000000   10300001 00104100000000000888000000000000     
100   62443100318296470000000000043350000000043350002000000010410405061201220069418466400506000746639035   1030000200030000   541188001022000008000000298KBZ BANK               CITY MART - M MMR11005061201220069410506000000000000000   10300001 00104100000000010838000000000000     
100   62911028202531840000000000003000000000003000002000000010410405061003140226274369000506000746628818   1030000200030000   541188001003000008000000008KBZ BANK               MARKETPLACE - MMR11005061003140226270506000000000000000   10300001 00104100000000000180000000000000     
100   95050310305440490000000000020552000000020552002000000010410405060519480320621516080506028511101125   1030000500030000   555610110561104519000009163City Mart Ayeyarwon Br nch           MMR11005060519480320620506000000000000000   10300001 00104100000000005138000000000000     
100   95050319156011610000000000004900000000004900002000000010410405060132150215827571710506000007115123   1020000200030000   333400010001204104000000281Myanmar Soft-Gate Tech Yangon        MMR11005060132150215820506000000000000000   10300001F05104100000000001029000000000000     
100   62911028202531840000000000042351000000042351002000000010410405061007190226284369000506000746629141   1030000200030000   541188001003000008000000008KBZ BANK               MARKETPLACE - MMR11005061007190226280506000000000000000   10300001 00104100000000002541000000000000     
100   95030301100119050000000000020000000000020000002000000010410405061432350235574369000506000007120840   1030000200030000   333800010001203104000003327KBZPay                 Yangon        MMR11005061432350235570506000000000000000   10300001F05104100000000004200000000000000     
100   62911028202400660000000000005850000000005850002000000010410405060557190325774369000506632261245125   1030000300030000   444410125394104519000021221Myanmar Bakery CoLtd                 MMR11005060557190325770506000000000000000   10300001 00104100000000000597000000000000     
100   62911028202242760000000000135530000000135530002000000010410405061438000064904369000506000746651948   1030000200030000   541188001316000008000000306KBZ BANK               CITY MART - S MMR11005061438000064900506000000000000000   10300001 00104100000000008132000000000000     
100   95050314557307430000000000002940000000002940002000000010410405061330460046029750920506000007120615   1020000200030000   333400010001204104000000281Myanmar Soft-Gate Tech Yangon        MMR11005061330460046020506000000000000000   10300001F05104100000000000617000000000000     
100   62911028202678610000000000012300000000012300002000000010410405061723520088944369000506000746661674   1030000200030000   541188001128000008000000296KBZ BANK               CITY MART - J MMR11005061723520088940506000000000000000   10300001 00104100000000000738000000000000     
100   95030302100015820000000000007650000000007650002000000010410405060708540335204369000506684381317125   1030000300030000   444410116806104519000014353BreadTalk JunctionCity               MMR11005060708540335200506000000000000000   10300001 00104100000000000780000000000000     
100   95030373033018450000000000007000000000007000002000000010410405061000280357334369000506245351627125   1030000500030000   555610118972104519000016137City Mart South Okkala WZYD BR       MMR11005061000280357330506000000000000000   10300001 00104100000000000420000000000000     
100   95050318057347910000000000001960000000001960002000000010410405060739040904444785400506000007118326   1020000200030000   333400010001204104000000281Myanmar Soft-Gate Tech Yangon        MMR11005060739040904440506000000000000000   10300001F05104100000000000412000000000000     
100   95050311394574080000000000300000000000300000002000000010410405061047561756229361090506000007119949   1030000200030000   333800010001203104000003327KBZPay                 Yangon        MMR11005061047561756220506000000000000000   10300001F05104100000000063000000000000000     
100   95050320360851930000000000050000000000050000002000000010410405061554412441994878560506000007121145   1030000200030000   333800010001203104000003327KBZPay                 Yangon        MMR11005061554412441990506000000000000000   10300001F05104100000000010500000000000000     
100   95050316769671810000000000014800000000014800002000000010410405060903183318522191140506000007119182   1030000200030000   333800010001203104000003327KBZPay                 Yangon        MMR11005060903183318520506000000000000000   10300001F05104100000000003108000000000000     
100   95050319928585020000000000001000000000001000002000000010410405060208363836836890940506000007115296   1030000200030000   3338000100012031040000040022C2P (Myanmar) Co. Ltd Yangon        MMR11005060208363836830506000000000000000   10300001F05104100000000000210000000000000     
100   62911028202161240000000000022550000000022550002000000010410405061851560344024369000506000746666352   1030000200030000   541188001025000008000000298KBZ BANK               CITY MART - M MMR11005061851560344020506000000000000000   10300001 00104100000000001353000000000000     
100   95050319753756490000000000020000000000020000002000000010410405061445441544748353720506000007120896   1030000200030000   333800010001203104000003327KBZPay                 Yangon        MMR11005061445441544740506000000000000000   10300001F05104100000000004200000000000000     
100   95050329888918380000000000045400000000045400002000000010410405061033500361494403640506755031723125   1030000500030000   555610112234104519000010487Ocean Super Center St  ohn           MMR11005061033500361490506000000000000000   10300001 00104100000000011350000000000000     
100   62911028202907490000000000019350000000019350002000000010410405061136290370734369000506838061813125   1030000500030000   555610103466104519000003420City Mart Yankin Cente 5             MMR11005061136290370730506000000000000000   10300001 00104100000000001161000000000000     
100   95030329830382620000000000300000000000300000002000000010410405060249121912384369000506000007115574   1030000200030000   333800010001203104000003327KBZPay                 Yangon        MMR11005060249121912380506000000000000000   10300001F05104100000000063000000000000000     
100   62911028202076850000000000000980000000000980002000000010410405061302043204514369000506000007120516   1020000200030000   333400010001204104000000281Myanmar Soft-Gate Tech Yangon        MMR11005061302043204510506000000000000000   10300001F05104100000000000206000000000000     
100   95050324411430900000000000145417000000145417002000000010410405060704573457273558390506000007118021   1010000100030000   333500010001212104000002543Internal Revenue Depar Yangon        MMR11005060704573457270506000000000000000   10300001F05104100000000060000000000000000     
100   95050311382087030000000000001960000000001960002000000010410405061501143114608268630506000007120940   1020000200030000   333400010001204104000000281Myanmar Soft-Gate Tech Yangon        MMR11005061501143114600506000000000000000   10300001F05104100000000000412000000000000     
100   62911028202291190000000000025150000000025150002000000010410405060333123840684369000506212610384068   1040001600030000   591220000283000000010000271Shwe Ohh Pharmacy ( Ky Yangon        MMR11005060333123840680506000000000000000   10300001F00104100000000001509000000000000     
100   95030331359799240000000000005000000000005000002000000010410405061156172617364369000506000007120252   1040001600030000   333800010001220104000004507A +                    Yangon        MMR11005061156172617360506000000000000000   10300001F05104100000000001050000000000000     
100   95030331359799240000000000005000000000005000002000000010410405061154492449054369000506000007120243   1030000200030000   3338000100012031040000040022C2P (Myanmar) Co. Ltd Yangon        MMR11005061154492449050506000000000000000   10300001F05104100000000001050000000000000     
100   95050326155679180000000000008820000000008820002000000010410405061007073707969871670506000007119717   1020000200030000   333400010001204104000000281Myanmar Soft-Gate Tech Yangon        MMR11005061007073707960506000000000000000   10300001F05104100000000001852000000000000     
100   95050316601084530000000000000980000000000980002000000010410405060458172817193679140506000007116910   1020000200030000   333400010001204104000000281Myanmar Soft-Gate Tech Yangon        MMR11005060458172817190506000000000000000   10300001F05104100000000000206000000000000     
100   95030367537085740000000000002940000000002940002000000010410405060755192519554369000506000007118488   1020000200030000   333400010001204104000000281Myanmar Soft-Gate Tech Yangon        MMR11005060755192519550506000000000000000   10300001F05104100000000000617000000000000     
100   62911028202523430000000000027950000000027950002000000010410405060354323849364369000506212610384936   1040001600030000   591220000274000000010000262Shwe Ohh Pharmacy (Shw Yangon        MMR11005060354323849360506000000000000000   10300001F00104100000000001677000000000000     
100   95050314735271470000000000000980000000000980002000000010410405061348371837338013340506000007120661   1020000200030000   333400010001204104000000281Myanmar Soft-Gate Tech Yangon        MMR11005061348371837330506000000000000000   10300001F05104100000000000206000000000000     
100   95050316785465380000000000001960000000001960002000000010410405061358392839253396270506000007120701   1020000200030000   333400010001204104000000281Myanmar Soft-Gate Tech Yangon        MMR11005061358392839250506000000000000000   10300001F05104100000000000412000000000000     
100   95050313400680100000000000083664000000083664002000000010410405060257542754144977450506000007115618   1030000900030000   333800010001202104000003301uab bank               Yangon        MMR11005060257542754140506000000000000000   10300001F05104100000000017569000000000000     
100   95050317248519320000000000040000000000040000002000000010410405060106483648129224190506000007115053   1030000200030000   3338000100012031040000040022C2P (Myanmar) Co. Ltd Yangon        MMR11005060106483648120506000000000000000   10300001F05104100000000008400000000000000     
100   62443100317500820000000000050000000000050000002000000010410405061202143214165205160506000007120270   1030000200030000   333800010001203104000003327KBZPay                 Yangon        MMR11005061202143214160506000000000000000   10300001F05104100000000010500000000000000     
100   62443100388528570000000000004900000000004900002000000010410405060805293529765842200506000007118583   1020000200030000   333400010001204104000000281Myanmar Soft-Gate Tech Yangon        MMR11005060805293529760506000000000000000   10300001F05104100000000001029000000000000     
100   62911028202803930000000000030000000000030000002000000010410405061248551855184369000506000007120452   1030000200030000   333800010001203104000003327KBZPay                 Yangon        MMR11005061248551855180506000000000000000   10300001F05104100000000006300000000000000     
100   95050315166583130000000000020000000000020000002000000010410405061006503650248219190506000007119713   1030000200030000   333800010001203104000003327KBZPay                 Yangon        MMR11005061006503650240506000000000000000   10300001F05104100000000004200000000000000     
100   95030367537085740000000000000980000000000980002000000010410405061203243324804369000506000007120283   1020000200030000   333400010001204104000000281Myanmar Soft-Gate Tech Yangon        MMR11005061203243324800506000000000000000   10300001F05104100000000000206000000000000     
100   95030352597917530000000000010000000000010000002000000010410405051835570557934369000506000007114769   1030000200030000   333800010001203104000003327KBZPay                 Yangon        MMR11005051835570557930506000000000000000   10300001F05104100000000002100000000000000     
100   95050318057347910000000000000980000000000980002000000010410405060246201620538373230506000007115541   1020000200030000   333400010001204104000000281Myanmar Soft-Gate Tech Yangon        MMR11005060246201620530506000000000000000   10300001F05104100000000000206000000000000     
100   95050312911050270000000000000980000000000980002000000010410405060242531253649770420506000007115513   1020000200030000   333400010001204104000000281Myanmar Soft-Gate Tech Yangon        MMR11005060242531253640506000000000000000   10300001F05104100000000000206000000000000     
100   95050319156011610000000000002940000000002940002000000010410405060142001200432444060506000007115164   1020000200030000   333400010001204104000000281Myanmar Soft-Gate Tech Yangon        MMR11005060142001200430506000000000000000   10300001F05104100000000000617000000000000     
100   95030380891034700000000000050000000000050000002000000010410405060506303630114369000506000007116964   1030000200030000   333800010001203104000003327KBZPay                 Yangon        MMR11005060506303630110506000000000000000   10300001F05104100000000010500000000000000     
100   95030373033018450000000000001656000000001656002000000010410405060959200356734369000506180301617125   1030000500030000   555610118960104519000016137City Mart South Okkala WZYD BR       MMR11005060959200356730506000000000000000   10300001 00104100000000000099000000000000     
100   95050314791376690000000000004900000000004900002000000010410405061445011501956701250506000007120892   1020000200030000   333400010001204104000000281Myanmar Soft-Gate Tech Yangon        MMR11005061445011501950506000000000000000   10300001F05104100000000001029000000000000     
100   62911028202910690000000000003000000000003000002000000010410405060800043004344369000506000007118514   1030000200030000   333800010001203104000003327KBZPay                 Yangon        MMR11005060800043004340506000000000000000   10300001F05104100000000000630000000000000     
100   62911028202679290000000000030182000000030182002000000010410405060753452345904369000506000007118468   1030000200030000   333800010001203104000003327KBZPay                 Yangon        MMR11005060753452345900506000000000000000   10300001F05104100000000006338000000000000     
100   95030301100122420000000000100000000000100000002000000010410405061051432143514369000506000007119966   1030000200030000   333800010001203104000003327KBZPay                 Yangon        MMR11005061051432143510506000000000000000   10300001F05104100000000021000000000000000     
100   95050312695033440000000000002940000000002940002000000010410405060241371137898117940506000007115505   1020000200030000   333400010001204104000000281Myanmar Soft-Gate Tech Yangon        MMR11005060241371137890506000000000000000   10300001F05104100000000000617000000000000     
100   95050312210363590000000000001000000000001000002000000010410405061452582258106616140506000007120925   1030000200030000   333800010001203104000003327KBZPay                 Yangon        MMR11005061452582258100506000000000000000   10300001F05104100000000000210000000000000     
100   95050314565805350000000000050000000000050000002000000010410405060802523252597579790506000007118549   1030000200030000   333800010001203104000003327KBZPay                 Yangon        MMR11005060802523252590506000000000000000   10300001F05104100000000010500000000000000     
100   95030302100015820000000000059600000000059600002000000010410405060427223864124369000506212611386412   1040001600030000   591220001006000000010000736Shwe Ohh Pharmacy (Kyi Ygn           MMR11005060427223864120506000000000000000   10300001F00104100000000003576000000000000     
100   95050319156011610000000000002940000000002940002000000010410405060139510951852529160506000007115151   1020000200030000   333400010001204104000000281Myanmar Soft-Gate Tech Yangon        MMR11005060139510951850506000000000000000   10300001F05104100000000000617000000000000     
100   95050318575030940000000000010000000000010000002000000010410405060448171817589048290506000007116821   1040001600030000   333800010001220104000004507A +                    Yangon        MMR11005060448171817580506000000000000000   10300001F05104100000000002100000000000000     
100   95050312498129060000000000000980000000000980002000000010410405060542581258881175690506000007117262   1020000200030000   333400010001204104000000281Myanmar Soft-Gate Tech Yangon        MMR11005060542581258880506000000000000000   10300001F05104100000000000206000000000000     
100   95050310305440490000000000025000000000025000002000000010410405061444101410571658690506000007120887   1030000200030000   333800010001203104000003327KBZPay                 Yangon        MMR11005061444101410570506000000000000000   10300001F05104100000000005250000000000000     
100   95030301100125070000000000200000000000200000002000000010410405060653262326584369000506000007117904   1030000200030000   333800010001203104000003327KBZPay                 Yangon        MMR11005060653262326580506000000000000000   10300001F05104100000000042000000000000000     
100   62443100335647210000000000035280000000035280002000000010410405060539210921578381310506000007117227   1020000200030000   333400010001204104000000281Myanmar Soft-Gate Tech Yangon        MMR11005060539210921570506000000000000000   10300001F05104100000000007409000000000000     
100   95050318141561190000000000030000000000030000002000000010410405060447491749307395800506000007116818   1030000200030000   333800010001203104000003327KBZPay                 Yangon        MMR11005060447491749300506000000000000000   10300001F05104100000000006300000000000000     
100   95050314534800510000000000000980000000000980002000000010410405061243321332219836010506000007120432   1020000200030000   333400010001204104000000281Myanmar Soft-Gate Tech Yangon        MMR11005061243321332210506000000000000000   10300001F05104100000000000206000000000000     
100   95050319928585020000000000001960000000001960002000000010410405060906563656275496110506000007119212   1020000200030000   333400010001204104000000281Myanmar Soft-Gate Tech Yangon        MMR11005060906563656270506000000000000000   10300001F05104100000000000412000000000000     
100   95030346179196360000000000245936000000245936002000000010410405060940005950614369000506844101600125   1030000900030000   541119001279190110000000963City Mart SPL C 4      YANGONMYOTHIT MMR11005060940005950610506000000000000000   10300001F00104100000000014756000000000000     
100   62443100330108240000000000000980000000000980002000000010410405060412254225583374410506000007116507   1020000200030000   333400010001204104000000281Myanmar Soft-Gate Tech Yangon        MMR11005060412254225580506000000000000000   10300001F05104100000000000206000000000000     
100   95050314160856250000000000001960000000001960002000000010410405060713554355506267690506000007118111   1020000200030000   333400010001204104000000281Myanmar Soft-Gate Tech Yangon        MMR11005060713554355500506000000000000000   10300001F05104100000000000412000000000000     
100   62911028202507430000000000080025000000080025002000000010410405060956055955384369000506155261605125   1030000900030000   541119001468190110000001066Million Mart Y NUV     YANGON        MMR11005060956055955380506000000000000000   10300001F00104100000000004802000000000000     
100   95030340548278620000000000030000000000030000002000000010410405051910064006624369000506000007114789   1030000200030000   333800010001203104000003327KBZPay                 Yangon        MMR11005051910064006620506000000000000000   10300001F05104100000000006300000000000000     
100   62911028202472440000000000062000000000062000002000000010410405060856474003154369000506212615400315   1040001600030000   598320000658000000010000527Shwe Taung Energy (YGN Yangon        MMR11005060856474003150506000000000000000   10300001F00104100000000001860000000000000     
100   95050324411430900000000000353621000000353621002000000010410405060713384338174615200506000007118109   1010000100030000   333500010001212104000002535Internal Revenue Depar Yangon        MMR11005060713384338170506000000000000000   10300001F05104100000000060000000000000000     
100   95050313062063490000000000000980000000000980002000000010410405060623035303502416480506000007117606   1020000200030000   333400010001204104000000281Myanmar Soft-Gate Tech Yangon        MMR11005060623035303500506000000000000000   10300001F05104100000000000206000000000000     
100   95050315474529910000000000022000000000022000002000000010410405060520585058719863590506000007117057   1030000200030000   3333000100012031040000040282C2P (Myanmar) Co. Ltd Yangon        MMR11005060520585058710506000000000000000   10300001F05104100000000010000000000000000     
100   95050325139996190000000000093600000000093600002000000010410405060718094809142877620506000007118137   1030000200030000   333300010001203104000003632Myanmar Tradenet Test  Yangon        MMR11005060718094809140506000000000000000   10300001F05104100000000010000000000000000     
100   95050312210363590000000000001000000000001000002000000010410405061426505650040091310506000007120819   1030000200030000   333800010001203104000003327KBZPay                 Yangon        MMR11005061426505650040506000000000000000   10300001F05104100000000000210000000000000     
100   95050312845568060000000000033000000000033000002000000010410405060745105920593132910506053151410125   1030000900030000   573219001179190110000000935UNIQUE Seikkanthar     YANGONADA     MMR11005060745105920590506000000000000000   10300001F00104100000000007920000000000000     
100   95030300515226620000000000036493000000036493002000000010410405060729125916654369000506811591312125   1030000900030000   541119001246190110000000955City Mart JS C 5       YANGONUT      MMR11005060729125916650506000000000000000   10300001F00104100000000002190000000000000     
100   95050314160856250000000000000980000000000980002000000010410405060718314831727920170506000007118147   1020000200030000   333400010001204104000000281Myanmar Soft-Gate Tech Yangon        MMR11005060718314831720506000000000000000   10300001F05104100000000000206000000000000     
100   95050316785465380000000000001960000000001960002000000010410405061125595559177198030506000007120107   1020000200030000   333400010001204104000000281Myanmar Soft-Gate Tech Yangon        MMR11005061125595559170506000000000000000   10300001F05104100000000000412000000000000     
100   95050322343585250000000000150000000000150000002000000010410405060726005600729487560506000007118210   1030000200030000   333800010001203104000003327KBZPay                 Yangon        MMR11005060726005600720506000000000000000   10300001F05104100000000031500000000000000     
100   62911028202295310000000000052400000000052400002000000010410405060526305887844369000506209561130125   1030000900030000   723019001054190110000000857Beauty Diary JC        YANGONN       MMR11005060526305887840506000000000000000   10300001F00104100000000003144000000000000     
100   62911028202440680000000000008600000000008600002000000010410405060808585926184369000506377381458125   1030000900030000   591219000970190110000000777Shwe Ohh Pharmacy St ( YANGONAW      MMR11005060808585926180506000000000000000   10300001F00104100000000000516000000000000     
100   62443101053241940000000000060000000000060000002000000010410405060535205890171686270506352051220125   1030000900030000   554119001101190110000000213New Day Energy SOK     YANGONOKKALAP MMR11005060535205890170506000000000000000   10300001F00104100000000007200000000000000     
100   62911028202610960000000000090000000000090000002000000010410405060506295883604369000506992361129125   1030000900030000   554119000348190110000000215New Day Energy MYG     YANGONONE     MMR11005060506295883600506000000000000000   10300001F00104100000000002700000000000000     
100   62911028202443730000000000102350000000102350002000000010410405060344295865384369000506047141029125   1030000900030000   591219000795190110000000627Shwe Ohh Pharmacy ST-3 YANGONINDAING MMR11005060344295865380506000000000000000   10300001F00104100000000006141000000000000     
100   95050318617855880000000000002940000000002940002000000010410405060218424842053415780506000007115371   1020000200030000   333400010001204104000000281Myanmar Soft-Gate Tech Yangon        MMR11005060218424842050506000000000000000   10300001F05104100000000000617000000000000     
100   95050325139996190000000000003300000000003300002000000010410405060312334233414637060506000007115789   1030000200030000   333300010001203104000003632Myanmar Tradenet Test  Yangon        MMR11005060312334233410506000000000000000   10300001F05104100000000010000000000000000     
100   62911028202154800000000000030500000000030500002000000010410405060726495916114369000506779561349125   1030000900030000   541119001281190110000000963City Mart SPL C6       YANGONMYOTHIT MMR11005060726495916110506000000000000000   10300001F00104100000000001830000000000000     
100   62911028202911680000000000006460000000006460002000000010410405061121495978784369000506720511749125   1030000900030000   541119001347190110000000977Ocean PZD C 1          YANGONAUNG    MMR11005061121495978780506000000000000000   10300001F00104100000000000388000000000000     
100   95050318048516790000000000030000000000030000002000000010410405060920255025463758520506000007119339   1030000200030000   333800010001203104000003327KBZPay                 Yangon        MMR11005060920255025460506000000000000000   10300001F05104100000000006300000000000000     
100   95050319524870520000000000000980000000000980002000000010410405060129585958855919220506000007115113   1020000200030000   333400010001204104000000281Myanmar Soft-Gate Tech Yangon        MMR11005060129585958850506000000000000000   10300001F05104100000000000206000000000000     
100   95050316311487940000000000039800000000039800002000000010410405061032525965056056130506767021752125   1030000900030000   541119001355190110000000977Ocean PZD C9           YANGONAUNG    MMR11005061032525965050506000000000000000   10300001F00104100000000009950000000000000     
100   62911028202107390000000000040000000000040000002000000010410405061107385975294369000506477371738125   1030000900030000   554119001101190110000000213New Day Energy SOK     YANGONOKKALAP MMR11005061107385975290506000000000000000   10300001F00104100000000001200000000000000     
100   62911028202110420000000000054000000000054000002000000010410405061126005979634369000506778561700125   1030000900030000   573219001180190110000000936UNIQUE UChit Maung     YANGON        MMR11005061126005979630506000000000000000   10300001F00104100000000003240000000000000     
100   62443100313529540000000000005150000000005150002000000010410405061133595981418339940506903031859125   1030000900030000   541119000112190110000000077Sein Gay Har Chinatown YANGON        MMR11005061133595981410506000000000000000   10300001F00104100000000001288000000000000     
100   95050317084233280000000000000980000000000980002000000010410405061017154715570843390506000007119783   1020000200030000   333400010001204104000000281Myanmar Soft-Gate Tech Yangon        MMR11005061017154715570506000000000000000   10300001F05104100000000000206000000000000     
100   95050315110306410000000000002940000000002940002000000010410405061516264626314963660506000007121028   1020000200030000   333400010001204104000000281Myanmar Soft-Gate Tech Yangon        MMR11005061516264626310506000000000000000   10300001F05104100000000000617000000000000     
100   95050314752934410000000000030000000000030000002000000010410405060115514551980876680506000007115068   1030000200030000   333800010001203104000003327KBZPay                 Yangon        MMR11005060115514551980506000000000000000   10300001F05104100000000006300000000000000     
100   95050324411430900000000000270148000000270148002000000010410405060710344034309657750506000007118075   1010000100030000   333500010001212104000002535Internal Revenue Depar Yangon        MMR11005060710344034300506000000000000000   10300001F05104100000000060000000000000000     
100   62911028202225440000000000001000000000001000002000000010410405060932290354464369000506915131607125   1030000500030000   555610117864104519000009164City Mart China Town P int Cen       MMR11005060932290354460506000000000000000   10300001 00104100000000000060000000000000     
100   95050314649264560000000000030000000000030000002000000010410405061341361136441318310506000007120642   1030000200030000   333800010001203104000003327KBZPay                 Yangon        MMR11005061341361136440506000000000000000   10300001F05104100000000006300000000000000     
100   95050320335873810000000000022600000000022600002000000010410405061045455968797623510506026151745125   1030000900030000   541119000148190110000000083SeinGayHarParami Cente YANGON        MMR11005061045455968790506000000000000000   10300001F00104100000000005650000000000000     
100   62911028202285900000000000046000000000046000002000000010410405050556380015884369000505212512001588   1030000500030000   598320001601000015172200016MAX ENERGY             PTN           MMR11005050556380015880505000000000000000   10300001 00104100000000001380000000000000     
100   95030373033018450000000000003450000000003450002000000010410405060955410356274369000506134261620125   1030000500030000   555610118969104519000016137City Mart South Okkala WZYD BR       MMR11005060955410356270506000000000000000   10300001 00104100000000000207000000000000     
100   95050312498129060000000000000980000000000980002000000010410405061220105010903467580506000007120340   1020000200030000   333400010001204104000000281Myanmar Soft-Gate Tech Yangon        MMR11005061220105010900506000000000000000   10300001F05104100000000000206000000000000     
100   95050310520330790000000000100000000000100000002000000010410405060221495149365493740506000007115391   1030000200030000   333800010001203104000003327KBZPay                 Yangon        MMR11005060221495149360506000000000000000   10300001F05104100000000021000000000000000     
100   95030366960186690000000000104500000000104500002000000010410405061019135961144369000506503491613125   1030000900030000   563119000646190110000000477Monster Fashion Access YANGONUT      MMR11005061019135961140506000000000000000   10300001F00104100000000006270000000000000     
100   95050321690472590000000001100000000001100000002000000010410405060952555954426638010506088221655125   1030000900030000   594419000707190110000000538Zwe Htet Gems & Jewell YANGON        MMR11005060952555954420506000000000000000   10300001F00104100000000264000000000000000     
100   62443100323428970000000000021750000000021750002000000010410405061017544047582495870506212617404758   1040001600030000   591220000301000000010000289Shwe Ohh Pharmacy (Yay Yangon        MMR11005061017544047580506000000000000000   10300001F00104100000000005220000000000000     
100   62911028202290100000000000056000000000056000002000000010410405060854564002234369000506212615400223   1040001600030000   598320001170000000010000527Shwe Taung Energy (YGN Yangon        MMR11005060854564002230506000000000000000   10300001F00104100000000001680000000000000     
100   95050312240830690000000000000980000000000980002000000010410405061318494849983055890506000007120580   1020000200030000   333400010001204104000000281Myanmar Soft-Gate Tech Yangon        MMR11005061318494849980506000000000000000   10300001F05104100000000000206000000000000     
100   62911028202417260000000000010800000000010800002000000010410405060728195916404369000506795581319125   1030000900030000   591219000601190110000000441Shwe Ohh Pharmacy St-3 YANGON        MMR11005060728195916400506000000000000000   10300001F00104100000000000648000000000000     
100   95030394609966640000000000052750000000052750002000000010410405061103010108394369000506000746633868   1030000200030000   541188001023000008000000298KBZ BANK               CITY MART - M MMR11005061103010108390506000000000000000   10300001 00104100000000003165000000000000     
100   62911028202806660000000000008900000000008900002000000010410405060524050321124369000506079551114125   1030000500030000   555610112982104519000011143Market Place by City M rt Sule       MMR11005060524050321120506000000000000000   10300001 00104100000000000534000000000000     
100   95030394609966640000000000001000000000001000002000000010410405061107490072434369000506000746634338   1030000200030000   541188001033000008000000298KBZ BANK               CITY MART - M MMR11005061107490072430506000000000000000   10300001 00104100000000000060000000000000     
100   62911028202118690000000000056000000000056000002000000010410405060553020325064369000506551221228125   1030000300030000   555510125125104519000020166Makro Myanmar                        MMR11005060553020325060506000000000000000   10300001 00104100000000003360000000000000     
100   95030302100015820000000000027638000000027638002000000010410405061316140152634369000506000746645650   1030000200030000   541188001061000008000000314KBZ BANK               MARKETPLACE - MMR11005061316140152630506000000000000000   10300001 00104100000000001658000000000000     
100   62443100315110470000000000018650000000018650002000000010410405060535350323186728820506318081201125   1030000500030000   555610110576104519000009164City Mart China Town P int Cen       MMR11005060535350323180506000000000000000   10300001 00104100000000004663000000000000     
100   62911028202792960000000000005350000000005350002000000010410405060901370349364369000506357341533125   1030000500030000   555610110570104519000009164City Mart China Town P int Cen       MMR11005060901370349360506000000000000000   10300001 00104100000000000321000000000000     
100   62911028202169750000000000002550000000002550002000000010410405060744150340364369000506289211454125   1030000500030000   555610123193104519000019444Neighbourhood Shwe Moe Kaung         MMR11005060744150340360506000000000000000   10300001 00104100000000000153000000000000     
100   62443100311760720000000000049000000000049000002000000010410405061028434055064488740506212617405506   1040001600030000   592120000941000000010000688Shwe Gone Daing Liquor Ygn           MMR11005061028434055060506000000000000000   10300001F00104100000000011760000000000000     
100   62911028202679290000000000018000000000018000002000000010410405060337555863984369000506972071055125   1030000900030000   541119000122190110000000080Sein Gay Har BAK       YANGONADA     MMR11005060337555863980506000000000000000   10300001F00104100000000001080000000000000     
100   95050310357533060000000000050000000000050000002000000010410405060629225922087288840506000007117657   1030000200030000   333800010001203104000003327KBZPay                 Yangon        MMR11005060629225922080506000000000000000   10300001F05104100000000010500000000000000     
100   95050313062063490000000000004900000000004900002000000010410405060624515451920764000506000007117624   1020000200030000   333400010001204104000000281Myanmar Soft-Gate Tech Yangon        MMR11005060624515451920506000000000000000   10300001F05104100000000001029000000000000     
100   62443100300743690000000000035600000000035600002000000010410405061103384084820417900506212618408482   1040001600030000   541120000553000000010000465Ocean Shwe Gone Daing  Yangon        MMR11005061103384084820506000000000000000   10300001F00104100000000008900000000000000     
100   62911028202465350000000000042000000000042000002000000010410405061121464101074369000506212618410107   1040001600030000   598320001170000000010000527Shwe Taung Energy (YGN Yangon        MMR11005061121464101070506000000000000000   10300001F00104100000000001260000000000000     
100   95050311068653690000000000100000000000100000002000000010410405060614454445513728590506000007117536   1030000200030000   333800010001203104000003327KBZPay                 Yangon        MMR11005060614454445510506000000000000000   10300001F05104100000000021000000000000000     
100   95050310427855490000000000003920000000003920002000000010410405061214464446578425030506000007120320   1020000200030000   333400010001204104000000281Myanmar Soft-Gate Tech Yangon        MMR11005061214464446570506000000000000000   10300001F05104100000000000823000000000000     
100   62911028202792960000000000007400000000007400002000000010410405062041000162734369000506000746669452   1030000200030000   541188001305000008000000325KBZ BANK               CITY MART - A MMR11005062041000162730506000000000000000   10300001 00104100000000000444000000000000     
100   95050314020354280000000000014850000000014850002000000010410405061215580162296133150506000746640266   1030000200030000   541188001305000008000000325KBZ BANK               CITY MART - A MMR11005061215580162290506000000000000000   10300001 00104100000000003713000000000000     
100   95050318057347910000000000000980000000000980002000000010410405061333220322031403400506000007120623   1020000200030000   333400010001204104000000281Myanmar Soft-Gate Tech Yangon        MMR11005061333220322030506000000000000000   10300001F05104100000000000206000000000000     
100   95050312695033440000000000002940000000002940002000000010410405061304163416983140990506000007120525   1020000200030000   333400010001204104000000281Myanmar Soft-Gate Tech Yangon        MMR11005061304163416980506000000000000000   10300001F05104100000000000617000000000000     
100   95050312224678430000000000004900000000004900002000000010410405060635350535031820810506000007117715   1020000200030000   333400010001204104000000281Myanmar Soft-Gate Tech Yangon        MMR11005060635350535030506000000000000000   10300001F05104100000000001029000000000000     
100   95050312911050270000000000000980000000000980002000000010410405060240361036863075390506000007115497   1020000200030000   333400010001204104000000281Myanmar Soft-Gate Tech Yangon        MMR11005060240361036860506000000000000000   10300001F05104100000000000206000000000000     
100   95050325095525130000000000045000000000045000002000000010410405060249021902536800130506000007115552   1030000200030000   333800010001203104000003327KBZPay                 Yangon        MMR11005060249021902530506000000000000000   10300001F05104100000000009450000000000000     
100   95050316736513170000000000000980000000000980002000000010410405060746581658771480430506000007118415   1020000200030000   333400010001204104000000281Myanmar Soft-Gate Tech Yangon        MMR11005060746581658770506000000000000000   10300001F05104100000000000206000000000000     
100   95050320531117320000000000007200000000007200002000000010410405061158315986853552670506256281831125   1030000900030000   541119001510190110000001102Ocean MGDTM-C 3        YANGONADON    MMR11005061158315986850506000000000000000   10300001F00104100000000001800000000000000     
100   62911028202792960000000000094160000000094160002000000010410405051403433587034369000505212521358703   1040001600030000   581420000803000000010000579Jeff's Kitchen (Ahlone Yangon        MMR11005051403433587030505000000000000000   10300001F00104100000000002825000000000000     
100   95050311926829590000000000001960000000001960002000000010410405061515174517143311180506000007121023   1020000200030000   333400010001204104000000281Myanmar Soft-Gate Tech Yangon        MMR11005061515174517140506000000000000000   10300001F05104100000000000412000000000000     
100   95050312498129060000000000010780000000010780002000000010410405061304193419064793470506000007120526   1020000200030000   333400010001204104000000281Myanmar Soft-Gate Tech Yangon        MMR11005061304193419060506000000000000000   10300001F05104100000000002264000000000000     
100   62911028202280200000000000030174000000030174002000000010410405050205490836904369000505212502083690   1030000600030000   554100000946315799420000471DENKO BAHAN            YANGON        MMR11005050205490836900505000000000000000   10300001 00104100000000000905000000000000     
100   95050318741700180000000000011300000000011300002000000010410405050716060048295272710505000343634438   1030000300030000   541100000444000000000000319CB BANK                ONESTOP KITCH MMR11005050716060048290505000000000000000   10300001F00104100000000002825000000000000     
100   95030367537085740000000000001960000000001960002000000010410405061232350235994369000506000007120390   1020000200030000   333400010001204104000000281Myanmar Soft-Gate Tech Yangon        MMR11005061232350235990506000000000000000   10300001F05104100000000000412000000000000     
100   62911028202366010000000000029000000000029000002000000010410405060514360320114369000506962461154125   1030000500030000   555610103975104519000003818Ocean Oattara Thiri Na PyiTaw        MMR11005060514360320110506000000000000000   10300001 00104100000000001740000000000000     
100   95050312498129060000000000000980000000000980002000000010410405060903333333410538650506000007119185   1020000200030000   333400010001204104000000281Myanmar Soft-Gate Tech Yangon        MMR11005060903333333410506000000000000000   10300001F05104100000000000206000000000000     
100   62911028202684060000000000044050000000044050002000000010410405060654143946224369000506212613394622   1040001600030000   591220000290000000010000278Shwe Ohh Pharmacy (8 M Yangon        MMR11005060654143946220506000000000000000   10300001F00104100000000002643000000000000     
100   95050319161596230000000000000980000000000980002000000010410405060036100610282358970506000007114978   1020000200030000   333400010001204104000000281Myanmar Soft-Gate Tech Yangon        MMR11005060036100610280506000000000000000   10300001F05104100000000000206000000000000     
100   95050315122972560000000000010000000000010000002000000010410405061345111511566360860506000007120652   1040001600030000   333800010001220104000004507A +                    Yangon        MMR11005061345111511560506000000000000000   10300001F05104100000000002100000000000000     
100   95030301100124570000000000300000000000300000002000000010410405061058092809364369000506000007119999   1030000200030000   333800010001203104000003327KBZPay                 Yangon        MMR11005061058092809360506000000000000000   10300001F05104100000000063000000000000000     
100   62911028202065050000000000030000000000030000002000000010410405060752392239374369000506000007118461   1030000200030000   333800010001203104000003327KBZPay                 Yangon        MMR11005060752392239370506000000000000000   10300001F05104100000000006300000000000000     
100   62443100389971990000000000050000000000050000002000000010410405060955302530308290490506000007119642   1030000200030000   333800010001203104000003327KBZPay                 Yangon        MMR11005060955302530300506000000000000000   10300001F05104100000000010500000000000000     
100   62443100361813580000000000100000000000100000002000000010410405051834590459716089420506000007114765   1030000200030000   333800010001203104000003327KBZPay                 Yangon        MMR11005051834590459710506000000000000000   10300001F05104100000000021000000000000000     
100   95050324411430900000000000327000000000327000002000000010410405060656322632611991000506000007117931   1010000100030000   333500010001212104000002543Internal Revenue Depar Yangon        MMR11005060656322632610506000000000000000   10300001F05104100000000060000000000000000     
100   95050322990383760000000000001000000000001000002000000010410405061002313231901609250506000007119691   1030000200030000   3334000100012031040000040102C2P (Myanmar) Co. Ltd Yangon        MMR11005061002313231900506000000000000000   10300001F05104100000000000210000000000000     
100   62911028202212230000000000006850000000006850002000000010410405060346533846284369000506212610384628   1040001600030000   591220001007000000010000737Shwe Ohh Pharmacy (Tan Ygn           MMR11005060346533846280506000000000000000   10300001F00104100000000000411000000000000     
100   95050312911050270000000000000980000000000980002000000010410405060239280928691422910506000007115491   1020000200030000   333400010001204104000000281Myanmar Soft-Gate Tech Yangon        MMR11005060239280928690506000000000000000   10300001F05104100000000000206000000000000     
100   95030301100125070000000000100000000000100000002000000010410405060652182218454369000506000007117889   1030000200030000   333800010001203104000003327KBZPay                 Yangon        MMR11005060652182218450506000000000000000   10300001F05104100000000021000000000000000     
100   95050311382087030000000000002940000000002940002000000010410405061251322132678183530506000007120465   1020000200030000   333400010001204104000000281Myanmar Soft-Gate Tech Yangon        MMR11005061251322132670506000000000000000   10300001F05104100000000000617000000000000     
100   95050311382087030000000000002940000000002940002000000010410405060207163716755238460506000007115292   1020000200030000   333400010001204104000000281Myanmar Soft-Gate Tech Yangon        MMR11005060207163716750506000000000000000   10300001F05104100000000000617000000000000     
100   95030301100126220000000000050000000000050000002000000010410405061209473947104369000506000007120305   1030000200030000   333800010001203104000003327KBZPay                 Yangon        MMR11005061209473947100506000000000000000   10300001F05104100000000010500000000000000     
