100   95050314570621780000000000001960000000001960002000000010410405081443281328961058300508000007128596   1020000200030000   333400010001204104000000281Myanmar Soft-Gate Tech Yangon        MMR11005081443281328960508000000000000000   10300001F05104100000000000412000000000000     
100   95030304100003010000000000017050000000017050002000000010410405080310090532944369000508615400932127   1030000500030000   555610120944104519000017714City Mart Yuzana Dagon Seikkan       MMR11005080310090532940508000000000000000   10300001 00104100000000001023000000000000     
100   62443100372702000000000000100000000000100000002000000010410405080313544354053269810508000007126045   1040001600030000   333800010001220104000004507A +                    Yangon        MMR11005080313544354050508000000000000000   10300001F05104100000000021000000000000000     
100   95030301100124400000000000005600000000005600002000000010410405080856320583734369000508506261516127   1030000300030000   444410125270104519000021124SP Bakery North Dagon  apital        MMR11005080856320583730508000000000000000   10300001 00104100000000000571000000000000     
100   62911028202530280000000000016700000000016700002000000010410405081128296391534369000508348581729127   1030000900030000   541119001206190110000000948City Mart YK C 4       YANGONAUNG    MMR11005081128296391530508000000000000000   10300001F00104100000000001002000000000000     
100   95050318267399100000000000001960000000001960002000000010410405081301543154820803010508000007128226   1020000200030000   333400010001204104000000281Myanmar Soft-Gate Tech Yangon        MMR11005081301543154820508000000000000000   10300001F05104100000000000412000000000000     
100   62911028202093430000000000000980000000000980002000000010410405080441401140154369000508000007126406   1020000200030000   333400010001204104000000281Myanmar Soft-Gate Tech Yangon        MMR11005080441401140150508000000000000000   10300001F05104100000000000206000000000000     
100   95050312498129060000000000001960000000001960002000000010410405081320035003989576010508000007128301   1020000200030000   333400010001204104000000281Myanmar Soft-Gate Tech Yangon        MMR11005081320035003980508000000000000000   10300001F05104100000000000412000000000000     
100   95030301100122420000000000250000000000250000002000000010410405080114514451242789210508000007125650   1030000200030000   333800010001203104000003327KBZPay                 Yangon        MMR11005080114514451240508000000000000000   10300001F05104100000000052500000000000000     
100   62911028202684060000000000014000000000014000002000000010410405081119485463134369000508212818546313   1040001600030000   591220000290000000010000278Shwe Ohh Pharmacy (8 M Yangon        MMR11005081119485463130508000000000000000   10300001F00104100000000000840000000000000     
100   95030301100124400000000000023100000000023100002000000010410405080909376354324369000508572391537127   1030000900030000   541119001261190110000000958City Mart PLST C 4     YANGONMYOTHIT MMR11005080909376354320508000000000000000   10300001F00104100000000001386000000000000     
100   62911028202474000000000000014636000000014636002000000010410405081649210179634369000508000746747848   1030000200030000   541188001082000008000000294KBZ BANK               CITY MART - J MMR11005081649210179630508000000000000000   10300001 00104100000000000878000000000000     
100   62443100300743690000000000036000000000036000002000000010410405080317356279994922290508028470935127   1030000900030000   573219001183190110000000939UNIQUE Thingangyun     YANGONNGKUUN  MMR11005080317356279990508000000000000000   10300001F00104100000000008640000000000000     
100   62911028202668300000000000020000000000020000002000000010410405070521260001964369000507212711000196   1030000500030000   598320002101000015172200021MAX ENERGY             PTN           MMR11005070521260001960507000000000000000   10300001 00104100000000000600000000000000     
100   62443100313002190000000000039387000000039387002000000010410405081022466374217354430508059521646127   1030000900030000   541119001511190110000001102Ocean MGDTM C-4        YANGONADON    MMR11005081022466374210508000000000000000   10300001F00104100000000009847000000000000     
100   95050310427855490000000000001960000000001960002000000010410405081607203720750547720508000007128797   1020000200030000   333400010001204104000000281Myanmar Soft-Gate Tech Yangon        MMR11005081607203720750508000000000000000   10300001F05104100000000000412000000000000     
100   62911028202243670000000000044800000000044800002000000010410405081025260598274369000508293541653127   1030000300030000   555510124686104519000020166Makro Myanmar                        MMR11005081025260598270508000000000000000   10300001 00104100000000002688000000000000     
100   95030333478847140000000000004900000000004900002000000010410405081851150039674369000508000746753401   1030000200030000   541188001463000008000000391KBZ BANK               OCEAN SUPER C MMR11005081851150039670508000000000000000   10300001 00104100000000000294000000000000     
100   62911028202674810000000000050900000000050900002000000010410405080716500568144369000508557471324127   1030000300030000   555510124364104519000020166Makro Myanmar                        MMR11005080716500568140508000000000000000   10300001 00104100000000003054000000000000     
100   62911028202415020000000000016450000000016450002000000010410405080743380572534369000508073171454127   1030000500030000   555610110564104519000009163City Mart Ayeyarwon Br nch           MMR11005080743380572530508000000000000000   10300001 00104100000000000987000000000000     
100   95050311382087030000000000000980000000000980002000000010410405081354482448926100850508000007128413   1020000200030000   333400010001204104000000281Myanmar Soft-Gate Tech Yangon        MMR11005081354482448920508000000000000000   10300001F05104100000000000206000000000000     
100   62911028202491330000000000031300000000031300002000000010410405070846100000244369000507212715000024   1030000500030000   581220204201000085812202042MIN LAN                PTN           MMR11005070846100000240507000000000000000   10300001 00104100000000003193000000000000     
100   95030356977005070000000000008100000000008100002000000010410405081051216382104369000508648211721127   1030000900030000   541119001196190110000000942City Mart HDC C 11     YANGONUT      MMR11005081051216382100508000000000000000   10300001F00104100000000000486000000000000     
100   62911028202448030000000000040000000000040000002000000010410405070737130004074369000507212714000407   1030000500030000   598320001202000015172200012MAX ENERGY             PTN           MMR11005070737130004070507000000000000000   10300001 00104100000000001200000000000000     
100   62911028202448030000000000100000000000100000002000000010410405070740020004084369000507212714000408   1030000500030000   598320001202000015172200012MAX ENERGY             PTN           MMR11005070740020004080507000000000000000   10300001 00104100000000003000000000000000     
100   95050316736513170000000000010000000000010000002000000010410405081417514751172710780508000007128509   1030000200030000   333800010001203104000003327KBZPay                 Yangon        MMR11005081417514751170508000000000000000   10300001F05104100000000002100000000000000     
100   62911028202123960000000000030000000000030000002000000010410405070136380003424369000507212708000342   1030000500030000   598320001303000015172200013MAX ENERGY             PTN           MMR11005070136380003420507000000000000000   10300001 00104100000000000900000000000000     
100   62911028202065470000000000012000000000012000002000000010410405070950550000564369000507212716000056   1030000500030000   531120155717000045311201557GAMONE PWINT           PTN           MMR11005070950550000560507000000000000000   10300001 00104100000000000720000000000000     
100   62911028202331290000000000024950000000024950002000000010410405080945196363664369000508270151619127   1030000900030000   591219000969190110000000776Shwe Ohh Pharmacy St ( YANGONADA     MMR11005080945196363660508000000000000000   10300001F00104100000000001497000000000000     
100   62911028202169750000000000026000000000026000002000000010410405070602180002204369000507212712000220   1030000500030000   598320002104000015172200021MAX ENERGY             PTN           MMR11005070602180002200507000000000000000   10300001 00104100000000000780000000000000     
100   95050323576695670000000000066900000000066900002000000010410405081310586412587498040508799401958127   1030000900030000   541119000112190110000000077Sein Gay Har Chinatown YANGON        MMR11005081310586412580508000000000000000   10300001F00104100000000016725000000000000     
100   62443100374068610000000000050500000000050500002000000010410405070400400000211537940507212710000021   1030000500030000   531120155708000045311201557GAMONE PWINT           PTN           MMR11005070400400000210507000000000000000   10300001 00104100000000012120000000000000     
100   62911028202666570000000000012985000000012985002000000010410405070441410000744369000507212711000074   1030000500030000   531120156008000045311201560GAMONE PWINT           PTN           MMR11005070441410000740507000000000000000   10300001 00104100000000000779000000000000     
100   95050325925517520000000000028000000000028000002000000010410405071332110003529078220507212720000352   1030000500030000   598320001201000015172200012MAX ENERGY             PTN           MMR11005071332110003520507000000000000000   10300001 00104100000000003360000000000000     
100   62911028202460220000000000040000000000040000002000000010410405071219380004234369000507212718000423   1030000500030000   598320001203000015172200012MAX ENERGY             PTN           MMR11005071219380004230507000000000000000   10300001 00104100000000001200000000000000     
100   95030307100064460000000000120000000000120000002000000010410405070500380000054369000507212711000005   1030000500030000   573220038901000015732200389REMAX                  PTN           MMR11005070500380000050507000000000000000   10300001 00104100000000007200000000000000     
100   62911028202135350000000000120800000000120800002000000010410405071345510000904369000507212720000090   1030000500030000   581220212301000085812202123SUSHI TEI MYANMAR      PTN           MMR11005071345510000900507000000000000000   10300001 00104100000000012322000000000000     
100   62911028202194090000000000024255000000024255002000000010410405070143080002094369000507212708000209   1030000500030000   581220063701000015812200637CHINESE 47             PTN           MMR11005070143080002090507000000000000000   10300001 00104100000000002474000000000000     
100   62911028202202580000000000069050000000069050002000000010410405070238470000284369000507212709000028   1030000500030000   591220014301014405912200143SHWE OHH PHARMACY      PTN           MMR11005070238470000280507000000000000000   10300001 00104100000000004143000000000000     
100   95050312498129060000000000005500000000005500002000000010410405070446550000556069910507212711000055   1030000500030000   531120155804000045311201558GAMONE PWINT           PTN           MMR11005070446550000550507000000000000000   10300001 00104100000000001320000000000000     
100   62443100340422630000000000042074000000042074002000000010410405071242340004954447370507212719000495   1030000500030000   581220024001000015812200240SHWE LAR HOT POT       PTN           MMR11005071242340004950507000000000000000   10300001 00104100000000017882000000000000     
100   95030301100215990000000000019500000000019500002000000010410405070529120000224369000507212711000022   1030000500030000   566120120401016505661201204RIPPLE FLIPFLOPS       PTN           MMR11005070529120000220507000000000000000   10300001 00104100000000001170000000000000     
100   62911028202466670000000000020000000000020000002000000010410405070344390002034369000507212710000203   1030000500030000   598320002104000015172200021MAX ENERGY             PTN           MMR11005070344390002030507000000000000000   10300001 00104100000000000600000000000000     
100   95050311883152260000000000068650000000068650002000000010410405070827000002073816040507000343891828   1030000300030000   531100000752000000000000408CB BANK                CAPITAL HYPER MMR11005070827000002070507000000000000000   10300001F00104100000000016476000000000000     
100   95030301100425380000000000016994000000016994002000000010410405070817420000304369000507212714000030   1030000500030000   581220199201000085812201992JO JO TERMINAL M       PTN           MMR11005070817420000300507000000000000000   10300001 00104100000000001733000000000000     
100   62911028202110910000000000030000000000030000002000000010410405071038520002394369000507212717000239   1030000500030000   598320001604000015172200016MAX ENERGY             PTN           MMR11005071038520002390507000000000000000   10300001 00104100000000000900000000000000     
100   95030301100215990000000000009000000000009000002000000010410405070616040000104369000507212712000010   1030000500030000   569120069101008205691200691ESCORT                 PTN           MMR11005070616040000100507000000000000000   10300001 00104100000000000540000000000000     
100   95030301100081740000000000014300000000014300002000000010410405070203410000264369000507212708000026   1030000500030000   591220010601014405912200106SHWE OHH PHARMACY      PTN           MMR11005070203410000260507000000000000000   10300001 00104100000000000858000000000000     
100   62911028202527800000000000052000000000052000002000000010410405070043300001604369000507212707000160   1030000500030000   598320001601000015172200016MAX ENERGY             PTN           MMR11005070043300001600507000000000000000   10300001 00104100000000001560000000000000     
100   62911028202318180000000000032200000000032200002000000010410405071130450000514369000507212718000051   1030000500030000   541120065701000015411200657SHOP & SHOP CONVENIENC PTN           MMR11005071130450000510507000000000000000   10300001 00104100000000001932000000000000     
100   62443100372702000000000000019000000000019000002000000010410405070825370003958858590507212714000395   1030000500030000   598320001204000015172200012MAX ENERGY             PTN           MMR11005070825370003950507000000000000000   10300001 00104100000000002280000000000000     
100   95050325273694860000000000010800000000010800002000000010410405070812420000177206100507212714000017   1030000500030000   541120024802022205411200248ORANGE (THARKAYTA)     PTN           MMR11005070812420000170507000000000000000   10300001 00104100000000002700000000000000     
100   95050324154190880000000000024000000000024000002000000010410405070743570003258779210507212714000325   1030000500030000   598320001301000015172200013MAX ENERGY             PTN           MMR11005070743570003250507000000000000000   10300001 00104100000000002880000000000000     
100   62911028202528710000000000014300000000014300002000000010410405070253450000084369000507212709000008   1030000500030000   591220011901014405912200119SHWE OHH PHARMACY      PTN           MMR11005070253450000080507000000000000000   10300001 00104100000000000858000000000000     
100   95050316901496590000000000009150000000009150002000000010410405071326290000267425740507212719000026   1030000500030000   541120045801009205411200458126 STORE              PTN           MMR11005071326290000260507000000000000000   10300001 00104100000000002288000000000000     
100   62911028202666570000000000009500000000009500002000000010410405070534130021834369000507212712002183   1030000500030000   531120156007000045311201560GAMONE PWINT           PTN           MMR11005070534130021830507000000000000000   10300001 00104100000000000570000000000000     
100   62911028202666570000000000008640000000008640002000000010410405070526340021784369000507212711002178   1030000500030000   531120156007000045311201560GAMONE PWINT           PTN           MMR11005070526340021780507000000000000000   10300001 00104100000000000518000000000000     
100   95050315166583130000000000010000000000010000002000000010410405080943121312167099140508000007127551   1030000200030000   333800010001203104000003327KBZPay                 Yangon        MMR11005080943121312160508000000000000000   10300001F05104100000000002100000000000000     
100   62911028202110420000000000029500000000029500002000000010410405080042110526144369000508974490726127   1030000300030000   444410118915104519000016097SP Bakery Yangon SR 1                MMR11005080042110526140508000000000000000   10300001 00104100000000003009000000000000     
100   62911028202492080000000000004500000000004500002000000010410405080419570542294369000508581521017127   1030000300030000   555510120538104519000017437Art and T8                           MMR11005080419570542290508000000000000000   10300001 00104100000000000270000000000000     
100   62911028202416760000000000102000000000102000002000000010410405080619175278464369000508212813527846   1040001600030000   598320000854000000010000608Terminal Petrol Statio Yangon        MMR11005080619175278460508000000000000000   10300001F00104100000000003060000000000000     
100   95050319524870520000000000001960000000001960002000000010410405080936300630112141700508000007127527   1020000200030000   333400010001204104000000281Myanmar Soft-Gate Tech Yangon        MMR11005080936300630110508000000000000000   10300001F05104100000000000412000000000000     
100   95050318242219520000000000000980000000000980002000000010410405081141371137336696520508000007127954   1020000200030000   333400010001204104000000281Myanmar Soft-Gate Tech Yangon        MMR11005081141371137330508000000000000000   10300001F05104100000000000206000000000000     
100   95030367537085740000000000000980000000000980002000000010410405080310454045214369000508000007126037   1020000200030000   333400010001204104000000281Myanmar Soft-Gate Tech Yangon        MMR11005080310454045210508000000000000000   10300001F05104100000000000206000000000000     
100   95050323233042810000000000001960000000001960002000000010410405071844591459844205870508000007125411   1020000200030000   333400010001204104000000281Myanmar Soft-Gate Tech Yangon        MMR11005071844591459840508000000000000000   10300001F05104100000000000412000000000000     
100   95050312240830690000000000000980000000000980002000000010410405081504073407492200210508000007128643   1020000200030000   333400010001204104000000281Myanmar Soft-Gate Tech Yangon        MMR11005081504073407490508000000000000000   10300001F05104100000000000206000000000000     
100   95050322654733420000000000015000000000015000002000000010410405080136340634912127900508000007125694   1030000200030000   3338000100012031040000040022C2P (Myanmar) Co. Ltd Yangon        MMR11005080136340634910508000000000000000   10300001F05104100000000003150000000000000     
100   95050312498129060000000000009500000000009500002000000010410405080046451645868652740508000007125603   1030000200030000   3333000100012031040000040282C2P (Myanmar) Co. Ltd Yangon        MMR11005080046451645860508000000000000000   10300001F05104100000000010000000000000000     
100   62443100317500820000000000050000000000050000002000000010410405080308233823081702420508000007126027   1030000200030000   333800010001203104000003327KBZPay                 Yangon        MMR11005080308233823080508000000000000000   10300001F05104100000000010500000000000000     
100   95050314557307430000000000002940000000002940002000000010410405080821305130556028550508000007127231   1020000200030000   333400010001204104000000281Myanmar Soft-Gate Tech Yangon        MMR11005080821305130550508000000000000000   10300001F05104100000000000617000000000000     
100   95050317003064220000000000000980000000000980002000000010410405081516344634138895240508000007128683   1020000200030000   333400010001204104000000281Myanmar Soft-Gate Tech Yangon        MMR11005081516344634130508000000000000000   10300001F05104100000000000206000000000000     
100   95050319532433550000000000030181000000030181002000000010410405081322385238219490910508000007128309   1030000200030000   333800010001203104000003327KBZPay                 Yangon        MMR11005081322385238210508000000000000000   10300001F05104100000000006338000000000000     
100   62911028202196800000000000359000000000359000002000000010410405081103040604664369000508067321740127   1030000300030000   555510114637104519000012589Win Mobile                           MMR11005081103040604660508000000000000000   10300001 00104100000000021540000000000000     
100   95050311419479170000000000001960000000001960002000000010410405081509173917133852690508000007128664   1020000200030000   333400010001204104000000281Myanmar Soft-Gate Tech Yangon        MMR11005081509173917130508000000000000000   10300001F05104100000000000412000000000000     
100   95050317003064220000000000000980000000000980002000000010410405080857222722769588800508000007127356   1020000200030000   333400010001204104000000281Myanmar Soft-Gate Tech Yangon        MMR11005080857222722760508000000000000000   10300001F05104100000000000206000000000000     
100   95050319532433550000000000030181000000030181002000000010410405081057282728569553150508000007127800   1030000200030000   333800010001203104000003327KBZPay                 Yangon        MMR11005081057282728560508000000000000000   10300001F05104100000000006338000000000000     
100   62443100353553260000000000050000000000050000002000000010410405081156002600289916390508000007127989   1030000200030000   333800010001203104000003327KBZPay                 Yangon        MMR11005081156002600280508000000000000000   10300001F05104100000000010500000000000000     
100   95050315110306410000000000005000000000005000002000000010410405071701363136435943450508000007125299   1030000200030000   333800010001203104000003327KBZPay                 Yangon        MMR11005071701363136430508000000000000000   10300001F05104100000000001050000000000000     
100   95050313843656520000000000002940000000002940002000000010410405080650032003543319260508000007126903   1020000200030000   333400010001204104000000281Myanmar Soft-Gate Tech Yangon        MMR11005080650032003540508000000000000000   10300001F05104100000000000617000000000000     
100   95030367537085740000000000000980000000000980002000000010410405081352352235644369000508000007128404   1020000200030000   333400010001204104000000281Myanmar Soft-Gate Tech Yangon        MMR11005081352352235640508000000000000000   10300001F05104100000000000206000000000000     
100   95050314570621780000000000000980000000000980002000000010410405080504173417662687930508000007126494   1020000200030000   333400010001204104000000281Myanmar Soft-Gate Tech Yangon        MMR11005080504173417660508000000000000000   10300001F05104100000000000206000000000000     
100   62443100313002190000000000070000000000070000002000000010410405080438240824252432640508000007126391   1030000200030000   333800010001203104000003327KBZPay                 Yangon        MMR11005080438240824250508000000000000000   10300001F05104100000000014700000000000000     
100   95050311959900780000000000000980000000000980002000000010410405080345081508601276940508000007126181   1020000200030000   333400010001204104000000281Myanmar Soft-Gate Tech Yangon        MMR11005080345081508600508000000000000000   10300001F05104100000000000206000000000000     
100   62911028202077190000000000000980000000000980002000000010410405080805023502014369000508000007127163   1020000200030000   333400010001204104000000281Myanmar Soft-Gate Tech Yangon        MMR11005080805023502010508000000000000000   10300001F05104100000000000206000000000000     
100   95050325455962190000000000001960000000001960002000000010410405080803153315361751860508000007127157   1020000200030000   333400010001204104000000281Myanmar Soft-Gate Tech Yangon        MMR11005080803153315360508000000000000000   10300001F05104100000000000412000000000000     
100   62443100372702000000000000100000000000100000002000000010410405080247411741838057070508000007125934   1040001600030000   333800010001220104000004507A +                    Yangon        MMR11005080247411741830508000000000000000   10300001F05104100000000021000000000000000     
100   95050315259054570000000000000980000000000980002000000010410405080956042604177439530508000007127587   1020000200030000   333400010001204104000000281Myanmar Soft-Gate Tech Yangon        MMR11005080956042604170508000000000000000   10300001F05104100000000000206000000000000     
100   95050312498129060000000000000980000000000980002000000010410405081119584958344788750508000007127882   1020000200030000   333400010001204104000000281Myanmar Soft-Gate Tech Yangon        MMR11005081119584958340508000000000000000   10300001F05104100000000000206000000000000     
100   95050316785465380000000000001960000000001960002000000010410405080702263226566539130508000007126957   1020000200030000   333400010001204104000000281Myanmar Soft-Gate Tech Yangon        MMR11005080702263226560508000000000000000   10300001F05104100000000000412000000000000     
100   95050310427855490000000000002940000000002940002000000010410405080204243424170390330508000007125766   1020000200030000   333400010001204104000000281Myanmar Soft-Gate Tech Yangon        MMR11005080204243424170508000000000000000   10300001F05104100000000000617000000000000     
100   62911028202506690000000000050718000000050718002000000010410405081131160609544369000508676011853127   1030000500030000   555610104023104519000003821City Mart North Point  enter         MMR11005081131160609540508000000000000000   10300001 00104100000000003043000000000000     
100   62443100344229520000000000102600000000102600002000000010410405081105325451159893540508212818545115   1040001600030000   591220000302000000010000290Shwe Ohh Pharmacy (Nor Yangon        MMR11005081105325451150508000000000000000   10300001F00104100000000024624000000000000     
100   62443100318296470000000000076600000000076600002000000010410405080738245323421836960508212814532342   1040001600030000   541120000559000000010000465Ocean Shwe Gone Daing  Yangon        MMR11005080738245323420508000000000000000   10300001F00104100000000019150000000000000     
100   62911028202126850000000000088150000000088150002000000010410405081105435451334369000508212818545133   1040001600030000   591220000296000000010000284Shwe Ohh Pharmacy (Lan Yangon        MMR11005081105435451330508000000000000000   10300001F00104100000000005289000000000000     
100   95050312224678430000000000001960000000001960002000000010410405080523315331385992900508000007126549   1020000200030000   333400010001204104000000281Myanmar Soft-Gate Tech Yangon        MMR11005080523315331380508000000000000000   10300001F05104100000000000412000000000000     
100   62443100344229520000000000019400000000019400002000000010410405081106465452219808440508212818545221   1040001600030000   591220000302000000010000290Shwe Ohh Pharmacy (Nor Yangon        MMR11005081106465452210508000000000000000   10300001F00104100000000004656000000000000     
100   95050319524870520000000000000980000000000980002000000010410405080623245324650695060508000007126799   1020000200030000   333400010001204104000000281Myanmar Soft-Gate Tech Yangon        MMR11005080623245324650508000000000000000   10300001F05104100000000000206000000000000     
100   95050311959900780000000000000980000000000980002000000010410405081324245424951143400508000007128319   1020000200030000   333400010001204104000000281Myanmar Soft-Gate Tech Yangon        MMR11005081324245424950508000000000000000   10300001F05104100000000000206000000000000     
100   95050319753756490000000000020000000000020000002000000010410405081024385438400659400508000007127684   1030000200030000   333800010001203104000003327KBZPay                 Yangon        MMR11005081024385438400508000000000000000   10300001F05104100000000004200000000000000     
100   95050317942168830000000000002940000000002940002000000010410405081129205920971398690508000007127912   1020000200030000   333400010001204104000000281Myanmar Soft-Gate Tech Yangon        MMR11005081129205920970508000000000000000   10300001F05104100000000000617000000000000     
100   62911028202417260000000000015900000000015900002000000010410405080140106267614369000508332100810127   1030000900030000   581219000715190110000000546Akkhaya Tea House(Dago YANGON        MMR11005080140106267610508000000000000000   10300001F00104100000000001622000000000000     
100   95050310750557450000000000004250000000004250002000000010410405080820016342641071090508711501401127   1030000900030000   541119001351190110000000977Ocean PZD C5           YANGONAUNG    MMR11005080820016342640508000000000000000   10300001F00104100000000001063000000000000     
100   62911028202532910000000000044700000000044700002000000010410405081144195483474369000508212818548347   1040001600030000   541120000563000000010000465Ocean Shwe Gone Daing  Yangon        MMR11005081144195483470508000000000000000   10300001F00104100000000002682000000000000     
100   95030321128605110000000000114330000000114330002000000010410405080717286328574369000508695471328127   1030000900030000   701119000065190110000000024Lotte Hotel            YANGON        MMR11005080717286328570508000000000000000   10300001F00104100000000011662000000000000     
100   95030321100003180000000000018206000000018206002000000010410405080348226285114369000508403181022127   1030000900030000   541119001260190110000000958City Mart PLST C 3     YANGONMYOTHIT MMR11005080348226285110508000000000000000   10300001F00104100000000001092000000000000     
100   95030337100000390000000000076200000000076200002000000010410405080330186282004369000508164001018127   1030000900030000   541119000817190110000000178Pro (1) Global (East D YANGONMYOTHIT MMR11005080330186282000508000000000000000   10300001F00104100000000004572000000000000     
100   62911028202132460000000000033900000000033900002000000010410405080412276289274369000508710421027127   1030000900030000   541119000161190110000000084Pro (1) Global (Pazund YANGONARTAUNG MMR11005080412276289270508000000000000000   10300001F00104100000000002034000000000000     
100   95050310750557450000000000005050000000005050002000000010410405080843116348001411480508115131511127   1030000900030000   541119001353190110000000977Ocean PZD C 7          YANGONAUNG    MMR11005080843116348000508000000000000000   10300001F00104100000000001263000000000000     
100   62911028202446130000000000003800000000003800002000000010410405080931315380254369000508212816538025   1040001600030000   581420000094000000010000090Potato Corner (City Ma Yangon        MMR11005080931315380250508000000000000000   10300001F00104100000000000114000000000000     
100   95050323722449090000000000004409000000004409002000000010410405081226305630085930660508000007128079   1020000200030000   333400010001204104000000281Myanmar Soft-Gate Tech Yangon        MMR11005081226305630080508000000000000000   10300001F05104100000000000926000000000000     
100   62443100350052510000000000057450000000057450002000000010410405080421016291205737600508860511001127   1030000900030000   541119001262190110000000958City Mart PLST C 5     YANGONMYOTHIT MMR11005080421016291200508000000000000000   10300001F00104100000000014363000000000000     
100   62911028202532910000000000011550000000011550002000000010410405081140395480344369000508212818548034   1040001600030000   541120000563000000010000465Ocean Shwe Gone Daing  Yangon        MMR11005081140395480340508000000000000000   10300001F00104100000000000693000000000000     
100   62911028202318180000000000028250000000028250002000000010410405080238116273814369000508606080911127   1030000900030000   541119001186190110000000942City Mart HDC C 1      YANGONUT      MMR11005080238116273810508000000000000000   10300001F00104100000000001695000000000000     
100   62443100350052510000000000026200000000026200002000000010410405080418376290605822700508821481037127   1030000900030000   541119001262190110000000958City Mart PLST C 5     YANGONMYOTHIT MMR11005080418376290600508000000000000000   10300001F00104100000000006550000000000000     
100   62911028202446130000000000002200000000002200002000000010410405080927125378114369000508212816537811   1040001600030000   581420000094000000010000090Potato Corner (City Ma Yangon        MMR11005080927125378110508000000000000000   10300001F00104100000000000066000000000000     
100   95050315158357300000000000004900000000004900002000000010410405080328055805195894010508000007126122   1020000200030000   333400010001204104000000281Myanmar Soft-Gate Tech Yangon        MMR11005080328055805190508000000000000000   10300001F05104100000000001029000000000000     
100   95050312482469810000000000023600000000023600002000000010410405081632340003934049460508000746747005   1030000200030000   541188001287000008000000472KBZ BANK               NEIGHBOURHOOD MMR11005081632340003930508000000000000000   10300001 00104100000000005900000000000000     
100   62911028202473430000000000003925000000003925002000000010410405080936490021064369000508000746728295   1030000200030000   541188001079000008000000294KBZ BANK               CITY MART - J MMR11005080936490021060508000000000000000   10300001 00104100000000000236000000000000     
100   95050329213164970000000000046850000000046850002000000010410405081037030016162602830508000746730708   1030000200030000   541188001479000008000000399KBZ BANK               OCEAN SUPERCE MMR11005081037030016160508000000000000000   10300001 00104100000000011713000000000000     
100   95050324800108530000000000011350000000011350002000000010410405081604400065550489210508000746745539   1030000200030000   541188001316000008000000306KBZ BANK               CITY MART - S MMR11005081604400065550508000000000000000   10300001 00104100000000002838000000000000     
100   95030321548759060000000000300000000000300000002000000010410405080632180218094369000508000007126835   1030000200030000   333800010001203104000003327KBZPay                 Yangon        MMR11005080632180218090508000000000000000   10300001F05104100000000063000000000000000     
100   62911028202752030000000000146600000000146600002000000010410405080124270545924369000508996181132127   1030000500030000   555610103970104519000003818Ocean Oattara Thiri Na PyiTaw        MMR11005080124270545920508000000000000000   10300001 00104100000000008796000000000000     
100   95050318769713630000000000216000000000216000002000000010410405081318015555774533460508212820555577   1040001600030000   541120000583000000010000465Ocean Shwe Gone Daing  Yangon        MMR11005081318015555770508000000000000000   10300001F00104100000000054000000000000000     
100   95030308100042590000000000005000000000005000002000000010410405080546326309004369000508236161232127   1030000900030000   541119000145190110000000083SeinGayHarParami Cente YANGON        MMR11005080546326309000508000000000000000   10300001F00104100000000000300000000000000     
100   62443100346413950000000000011600000000011600002000000010410405080824416343759759000508792541441127   1030000900030000   541119001187190110000000942City Mart HDC C 2      YANGONUT      MMR11005080824416343750508000000000000000   10300001F00104100000000002900000000000000     
100   95050318621775380000000000002000000000002000002000000010410405080829415941594801540508000007127267   1030000200030000   3338000100012031040000040022C2P (Myanmar) Co. Ltd Yangon        MMR11005080829415941590508000000000000000   10300001F05104100000000000420000000000000     
100   95050321057500320000000000025500000000025500002000000010410405080959135396105787050508212816539610   1040001600030000   591220000298000000010000286Shwe Ohh Pharmacy (Shw Yangon        MMR11005080959135396100508000000000000000   10300001F00104100000000006120000000000000     
100   62443100372718280000000000016300000000016300002000000010410405080056246264003610200508244260724127   1030000900030000   581219000715190110000000546Akkhaya Tea House(Dago YANGON        MMR11005080056246264000508000000000000000   10300001F00104100000000006928000000000000     
100   62911028202870750000000000031600000000031600002000000010410405080549086309674369000508289191208127   1030000900030000   541119001308190110000000968Ocean Mingalar MDY C 1 MANDALAYHARSI MMR11005080549086309670508000000000000000   10300001F00104100000000001896000000000000     
100   62443100330105920000000000160000000000160000002000000010410405080954375393259177110508212816539325   1040001600030000   806220000140000000010000132Aesthetic Villa        Yangon        MMR11005080954375393250508000000000000000   10300001F00104100000000038400000000000000     
100   62911028202261800000000000149550000000149550002000000010410405080550380554874369000508998201252127   1030000300030000   555510124690104519000020166Makro Myanmar                        MMR11005080550380554870508000000000000000   10300001 00104100000000008973000000000000     
100   95050314557307430000000000002940000000002940002000000010410405081035010501883709080508000007127725   1020000200030000   333400010001204104000000281Myanmar Soft-Gate Tech Yangon        MMR11005081035010501880508000000000000000   10300001F05104100000000000617000000000000     
100   95050325787151080000000000030000000000030000002000000010410405080035210521611957710508000007125584   1030000200030000   333800010001203104000003327KBZPay                 Yangon        MMR11005080035210521610508000000000000000   10300001F05104100000000006300000000000000     
100   62911028202290100000000000036600000000036600002000000010410405080753400573514369000508205241438127   1030000300030000   444410125393104519000021220Myanmar Bakery CoLtd                 MMR11005080753400573510508000000000000000   10300001 00104100000000003733000000000000     
100   62911028202472440000000000002400000000002400002000000010410405081221010159104369000508000746735120   1030000200030000   541188001049000008000000010KBZ BANK               MARKETPLACE - MMR11005081221010159100508000000000000000   10300001 00104100000000000144000000000000     
100   95050313123223200000000000000980000000000980002000000010410405081032260226699978630508000007127713   1020000200030000   333400010001204104000000281Myanmar Soft-Gate Tech Yangon        MMR11005081032260226690508000000000000000   10300001F05104100000000000206000000000000     
100   62911028202442250000000000005800000000005800002000000010410405081540450097564369000508000746744407   1030000200030000   541188001088000008000000294KBZ BANK               CITY MART - J MMR11005081540450097560508000000000000000   10300001 00104100000000000348000000000000     
100   95050311959900780000000000002940000000002940002000000010410405080833410341816454030508000007127272   1020000200030000   333400010001204104000000281Myanmar Soft-Gate Tech Yangon        MMR11005080833410341810508000000000000000   10300001F05104100000000000617000000000000     
100   95050318769713630000000000070137000000070137002000000010410405081322035558921228490508212820555892   1040001600030000   541120000573000000010000465Ocean Shwe Gone Daing  Yangon        MMR11005081322035558920508000000000000000   10300001F00104100000000017535000000000000     
100   62443101063232860000000000083000000000083000002000000010410405081220546402957668230508148501854127   1030000900030000   554119001103190110000000215New Day Energy MYG     YANGONONE     MMR11005081220546402950508000000000000000   10300001F00104100000000009960000000000000     
100   95050312498129060000000000018500000000018500002000000010410405070416480000739800370507212710000073   1030000500030000   573220038801000015732200388REMAX                  PTN           MMR11005070416480000730507000000000000000   10300001 00104100000000004440000000000000     
100   62911028202491330000000000077004000000077004002000000010410405070524040003854369000507212711000385   1030000500030000   598320001303000015172200013MAX ENERGY             PTN           MMR11005070524040003850507000000000000000   10300001 00104100000000002310000000000000     
100   62911028202703030000000000200000000000200000002000000010410405070628130000234369000507212712000023   1030000500030000   481220052001007704812200520WIN MOBILE SHOP        PTN           MMR11005070628130000230507000000000000000   10300001 00104100000000012000000000000000     
100   62911028202446130000000000001100000000001100002000000010410405080931046359974369000508998011604127   1030000900030000   581219001105190110000000890Shwepalin City Mall Ta YANGONAW      MMR11005080931046359970508000000000000000   10300001F00104100000000000112000000000000     
100   95030356977005070000000000002200000000002200002000000010410405081020556373634369000508014501655127   1030000900030000   541119001200190110000000943City Mart HDC Season C YANGONUT      MMR11005081020556373630508000000000000000   10300001F00104100000000000132000000000000     
100   95050320205194540000000000013942000000013942002000000010410405081151316396534873850508700211831127   1030000900030000   541119001261190110000000958City Mart PLST C 4     YANGONMYOTHIT MMR11005081151316396530508000000000000000   10300001F00104100000000003486000000000000     
100   95050319524870520000000000002940000000002940002000000010410405080433590359297390090508000007126383   1020000200030000   333400010001204104000000281Myanmar Soft-Gate Tech Yangon        MMR11005080433590359290508000000000000000   10300001F05104100000000000617000000000000     
100   62911028202693960000000000079200000000079200002000000010410405080754410573554369000508210241451127   1030000300030000   555510124690104519000020166Makro Myanmar                        MMR11005080754410573550508000000000000000   10300001 00104100000000004752000000000000     
100   62911028202133940000000000052985000000052985002000000010410405081606300163564369000508000746745655   1030000200030000   541188001305000008000000325KBZ BANK               CITY MART - A MMR11005081606300163560508000000000000000   10300001 00104100000000003179000000000000     
100   62911028202684060000000000002826000000002826002000000010410405081757380090344369000508000746751073   1030000200030000   541188001128000008000000296KBZ BANK               CITY MART - J MMR11005081757380090340508000000000000000   10300001 00104100000000000170000000000000     
100   95050311077567400000000000023000000000023000002000000010410405081700100102973453790508000746748390   1030000200030000   541188001246000008000000323KBZ BANK               CITY MART - I MMR11005081700100102970508000000000000000   10300001 00104100000000005750000000000000     
100   62911028202139640000000000043012000000043012002000000010410405081318190210624369000508000746737564   1030000200030000   541188001037000008000000010KBZ BANK               MARKETPLACE - MMR11005081318190210620508000000000000000   10300001 00104100000000002581000000000000     
100   95030321548759060000000000140000000000140000002000000010410405080634420442144369000508000007126849   1030000200030000   333800010001203104000003327KBZPay                 Yangon        MMR11005080634420442140508000000000000000   10300001F05104100000000029400000000000000     
100   62911028202213220000000000023950000000023950002000000010410405080755530573624369000508221251413127   1030000500030000   555610110570104519000009164City Mart China Town P int Cen       MMR11005080755530573620508000000000000000   10300001 00104100000000001437000000000000     
100   95050318734435310000000000038050000000038050002000000010410405081602420129940574300508000746745440   1030000200030000   541188001349000008000000395KBZ BANK               OCEAN SUPERMA MMR11005081602420129940508000000000000000   10300001 00104100000000009513000000000000     
100   62443100340422630000000000047000000000047000002000000010410405080447520545816163080508986171142127   1030000500030000   555610110576104519000009164City Mart China Town P int Cen       MMR11005080447520545810508000000000000000   10300001 00104100000000011750000000000000     
100   95050314996291580000000000001960000000001960002000000010410405081235420542122625690508000007128106   1020000200030000   333400010001204104000000281Myanmar Soft-Gate Tech Yangon        MMR11005081235420542120508000000000000000   10300001F05104100000000000412000000000000     
100   62911028202290100000000000042835000000042835002000000010410405081413340109564369000508000746740228   1030000200030000   541188001081000008000000294KBZ BANK               CITY MART - J MMR11005081413340109560508000000000000000   10300001 00104100000000002570000000000000     
100   95050314996291580000000000004900000000004900002000000010410405081334110411536185950508000007128340   1020000200030000   333400010001204104000000281Myanmar Soft-Gate Tech Yangon        MMR11005081334110411530508000000000000000   10300001F05104100000000001029000000000000     
100   95050314931885730000000000001960000000001960002000000010410405081034170417521631110508000007127720   1020000200030000   333400010001204104000000281Myanmar Soft-Gate Tech Yangon        MMR11005081034170417520508000000000000000   10300001F05104100000000000412000000000000     
100   95030301100354740000000000050000000000050000002000000010410405081232410241434369000508000007128098   1030000200030000   333800010001203104000003327KBZPay                 Yangon        MMR11005081232410241430508000000000000000   10300001F05104100000000010500000000000000     
100   95050319532433550000000000020121000000020121002000000010410405080912334233332567180508000007127434   1030000200030000   333800010001203104000003327KBZPay                 Yangon        MMR11005080912334233330508000000000000000   10300001F05104100000000004226000000000000     
100   95050325455962190000000000001960000000001960002000000010410405081101053105493198500508000007127812   1020000200030000   333400010001204104000000281Myanmar Soft-Gate Tech Yangon        MMR11005081101053105490508000000000000000   10300001F05104100000000000412000000000000     
100   95050312498129060000000000001960000000001960002000000010410405080956552655974134560508000007127591   1020000200030000   333400010001204104000000281Myanmar Soft-Gate Tech Yangon        MMR11005080956552655970508000000000000000   10300001F05104100000000000412000000000000     
100   62443100392773440000000000075018000000075018002000000010410405080825320578558106510508808551444127   1030000500030000   555610112231104519000010487Ocean Super Center St  ohn           MMR11005080825320578550508000000000000000   10300001 00104100000000018755000000000000     
100   95050319524870520000000000001960000000001960002000000010410405080947481748678751630508000007127567   1020000200030000   333400010001204104000000281Myanmar Soft-Gate Tech Yangon        MMR11005080947481748670508000000000000000   10300001F05104100000000000412000000000000     
100   62911028202161240000000000050750000000050750002000000010410405080450362571934369000508020361384937   1040001400030000   546210000143025462100000389STK Bakery Supply STK  akery Supply  MMR11005080450362571930508000000000000000   10300001 00104100000000003045000000000000     
100   95050322104201170000000000030000000000030000002000000010410405080940221022348836720508000007127535   1030000200030000   333800010001203104000003327KBZPay                 Yangon        MMR11005080940221022340508000000000000000   10300001F05104100000000006300000000000000     
100   62443100372702000000000001000000000001000000002000000010410405080307553755220049940508000007126026   1040001600030000   333800010001220104000004507A +                    Yangon        MMR11005080307553755220508000000000000000   10300001F05104100000000210000000000000000     
100   95050314557307430000000000002940000000002940002000000010410405080819584958946113640508000007127225   1020000200030000   333400010001204104000000281Myanmar Soft-Gate Tech Yangon        MMR11005080819584958940508000000000000000   10300001F05104100000000000617000000000000     
100   95050312224678430000000000000980000000000980002000000010410405080323565356891021650508000007126100   1020000200030000   333400010001204104000000281Myanmar Soft-Gate Tech Yangon        MMR11005080323565356890508000000000000000   10300001F05104100000000000206000000000000     
100   62443100398006570000000000028600000000028600002000000010410405081132520609982966070508725051803127   1030000500030000   555610110570104519000009164City Mart China Town P int Cen       MMR11005081132520609980508000000000000000   10300001 00104100000000007150000000000000     
100   95050325997730520000000000045000000000045000002000000010410405080313035178508227260508212810517850   1040001600030000   598320000321000000010000309PT Power Petrol Statio Yangon        MMR11005080313035178500508000000000000000   10300001F00104100000000005400000000000000     
100   62443100355903280000000000002940000000002940002000000010410405081119324932158093720508000007127880   1020000200030000   333400010001204104000000281Myanmar Soft-Gate Tech Yangon        MMR11005081119324932150508000000000000000   10300001F05104100000000000617000000000000     
100   62443101083052160000000000113100000000113100002000000010410405080956310593449092010508712261601127   1030000300030000   555510110857104519000009364MK Fashion Junction Ci y             MMR11005080956310593440508000000000000000   10300001 00104100000000027144000000000000     
100   62911028202243420000000000048700000000048700002000000010410405081027020598564369000508326561635127   1030000300030000   555510124686104519000020166Makro Myanmar                        MMR11005081027020598560508000000000000000   10300001 00104100000000002922000000000000     
100   95050313970192050000000000005600000000005600002000000010410405081153340613639831300508172291831127   1030000500030000   555610112651104519000010846City Express MCS 34                  MMR11005081153340613630508000000000000000   10300001 00104100000000001400000000000000     
100   95050319524870520000000000000980000000000980002000000010410405080757082708255056830508000007127137   1020000200030000   333400010001204104000000281Myanmar Soft-Gate Tech Yangon        MMR11005080757082708250508000000000000000   10300001F05104100000000000206000000000000     
100   95050316321163940000000000001960000000001960002000000010410405081057082708424510600508000007127799   1020000200030000   333400010001204104000000281Myanmar Soft-Gate Tech Yangon        MMR11005081057082708420508000000000000000   10300001F05104100000000000412000000000000     
100   95050316321163940000000000015000000000015000002000000010410405081218004800390973200508000007128055   1030000200030000   333800010001203104000003327KBZPay                 Yangon        MMR11005081218004800390508000000000000000   10300001F05104100000000003150000000000000     
100   62911028202530280000000000050000000000050000002000000010410405080452125228464369000508212811522846   1040001600030000   598320000659000000010000528Shwe Taung Energy (YGN Yangon        MMR11005080452125228460508000000000000000   10300001F00104100000000001500000000000000     
100   62911028202525660000000000028507000000028507002000000010410405081305530621484369000508067371949127   1030000500030000   555610118966104519000016137City Mart South Okkala WZYD BR       MMR11005081305530621480508000000000000000   10300001 00104100000000001710000000000000     
100   62911028202764900000000000010000000000010000002000000010410405081237190719714369000508000007128118   1030000200030000   333800010001203104000003327KBZPay                 Yangon        MMR11005081237190719710508000000000000000   10300001F05104100000000002100000000000000     
100   95050319156011610000000000002940000000002940002000000010410405081137210721754618560508000007127934   1020000200030000   333400010001204104000000281Myanmar Soft-Gate Tech Yangon        MMR11005081137210721750508000000000000000   10300001F05104100000000000617000000000000     
100   95050319156011610000000000002940000000002940002000000010410405081141581158178349000508000007127955   1020000200030000   333400010001204104000000281Myanmar Soft-Gate Tech Yangon        MMR11005081141581158170508000000000000000   10300001F05104100000000000617000000000000     
100   95050316949180000000000000003920000000003920002000000010410405080356262626157801780508000007126236   1020000200030000   333400010001204104000000281Myanmar Soft-Gate Tech Yangon        MMR11005080356262626150508000000000000000   10300001F05104100000000000823000000000000     
100   95050311959900780000000000001960000000001960002000000010410405080620065006629042570508000007126788   1020000200030000   333400010001204104000000281Myanmar Soft-Gate Tech Yangon        MMR11005080620065006620508000000000000000   10300001F05104100000000000412000000000000     
100   95050312498129060000000000003920000000003920002000000010410405081255172517570888110508000007128200   1020000200030000   333400010001204104000000281Myanmar Soft-Gate Tech Yangon        MMR11005081255172517570508000000000000000   10300001F05104100000000000823000000000000     
100   95050319524870520000000000002940000000002940002000000010410405080755232523640099380508000007127126   1020000200030000   333400010001204104000000281Myanmar Soft-Gate Tech Yangon        MMR11005080755232523640508000000000000000   10300001F05104100000000000617000000000000     
100   62911028202822900000000000010000000000010000002000000010410405080323545354944369000508000007126102   1030000200030000   333800010001203104000003327KBZPay                 Yangon        MMR11005080323545354940508000000000000000   10300001F05104100000000002100000000000000     
100   62911028202446130000000000050200000000050200002000000010410405080925010588404369000508049541520127   1030000500030000   555610112233104519000010487Ocean Super Center St  ohn           MMR11005080925010588400508000000000000000   10300001 00104100000000003012000000000000     
100   62443100328070970000000000008450000000008450002000000010410405081249160619989235620508898191936127   1030000500030000   555610112249104519000010487Ocean Super Center St  ohn           MMR11005081249160619980508000000000000000   10300001 00104100000000002113000000000000     
100   95050312498129060000000000002940000000002940002000000010410405080838440844074716450508000007127302   1020000200030000   333400010001204104000000281Myanmar Soft-Gate Tech Yangon        MMR11005080838440844070508000000000000000   10300001F05104100000000000617000000000000     
100   62911028202057620000000000035000000000035000002000000010410405080412514251654369000508000007126297   1030000200030000   333800010001203104000003327KBZPay                 Yangon        MMR11005080412514251650508000000000000000   10300001F05104100000000007350000000000000     
100   95050311959900780000000000000980000000000980002000000010410405081418144814814363270508000007128518   1020000200030000   333400010001204104000000281Myanmar Soft-Gate Tech Yangon        MMR11005081418144814810508000000000000000   10300001F05104100000000000206000000000000     
100   95050326750398570000000000013500000000013500002000000010410405081001410595135701950508923361604127   1030000500030000   555610104043104519000003821City Mart North Point  enter         MMR11005081001410595130508000000000000000   10300001 00104100000000003375000000000000     
100   95030301100215990000000000005000000000005000002000000010410405081038000800984369000508000007127735   1030000200030000   333800010001203104000003327KBZPay                 Yangon        MMR11005081038000800980508000000000000000   10300001F05104100000000001050000000000000     
100   95030353051876670000000000002000000000002000002000000010410405080850412041814369000508000007127347   1030000200030000   333800010001203104000003327KBZPay                 Yangon        MMR11005080850412041810508000000000000000   10300001F05104100000000000420000000000000     
100   62443100372702000000000001000000000001000000002000000010410405080310004000479964840508000007126031   1040001600030000   333800010001220104000004507A +                    Yangon        MMR11005080310004000470508000000000000000   10300001F05104100000000210000000000000000     
100   95050315615561720000000000002940000000002940002000000010410405081402003200057753330508000007128460   1020000200030000   333400010001204104000000281Myanmar Soft-Gate Tech Yangon        MMR11005081402003200050508000000000000000   10300001F05104100000000000617000000000000     
100   95050312498129060000000000000980000000000980002000000010410405081217224722899320720508000007128058   1020000200030000   333400010001204104000000281Myanmar Soft-Gate Tech Yangon        MMR11005081217224722890508000000000000000   10300001F05104100000000000206000000000000     
100   95030301100338420000000000100000000000100000002000000010410405080416274627034369000508000007126306   1030000200030000   333800010001203104000003327KBZPay                 Yangon        MMR11005080416274627030508000000000000000   10300001F05104100000000021000000000000000     
