100   95050317100052460000000000000500000000000500002000000010410405091301363136796407940509000007134387   1030000200030000   333800010001203104000003327KBZPay                 Yangon        MMR11005091301363136790509000000000000000   10300001F05104100000000000105000000000000     
100   62443100361813580000000000100000000000100000002000000010410405090707363736140421260509000007132104   1030000200030000   333800010001203104000003327KBZPay                 Yangon        MMR11005090707363736140509000000000000000   10300001F05104100000000021000000000000000     
100   62911028202474000000000000026408000000026408002000000010410405091808470211624369000509000746805310   1030000200030000   541188001001000008000000008KBZ BANK               MARKETPLACE - MMR11005091808470211620509000000000000000   10300001 00104100000000001584000000000000     
100   95050312224678430000000000004900000000004900002000000010410405090619484948085244170509000007131701   1020000200030000   333400010001204104000000281Myanmar Soft-Gate Tech Yangon        MMR11005090619484948080509000000000000000   10300001F05104100000000001029000000000000     
100   62443100369813440000000000015200000000015200002000000010410405081147430002053221360508212818000205   1030000500030000   531120156005000045311201560GAMONE PWINT           PTN           MMR11005081147430002050508000000000000000   10300001 00104100000000003648000000000000     
100   95030367537085740000000000004900000000004900002000000010410405090911284128094369000509000007133196   1020000200030000   333400010001204104000000281Myanmar Soft-Gate Tech Yangon        MMR11005090911284128090509000000000000000   10300001F05104100000000001029000000000000     
100   95050311739830950000000000038800000000038800002000000010410405081122520000194703650508212817000019   1030000500030000   531120201401000085311202014HLC THE ONE            PTN           MMR11005081122520000190508000000000000000   10300001 00104100000000009312000000000000     
100   62911028202531840000000000009900000000009900002000000010410405091032140097524369000509000746775734   1030000200030000   541188001002000008000000008KBZ BANK               MARKETPLACE - MMR11005091032140097520509000000000000000   10300001 00104100000000000594000000000000     
100   95030363083688740000000000020000000000020000002000000010410405090922255225294369000509000007133288   1030000200030000   333800010001203104000003327KBZPay                 Yangon        MMR11005090922255225290509000000000000000   10300001F05104100000000004200000000000000     
100   95050316949180000000000000004900000000004900002000000010410405091107173717290209700509000007133986   1020000200030000   333400010001204104000000281Myanmar Soft-Gate Tech Yangon        MMR11005091107173717290509000000000000000   10300001F05104100000000001029000000000000     
100   95050312695033440000000000006860000000006860002000000010410405090240441044254547250509000007129610   1020000200030000   333400010001204104000000281Myanmar Soft-Gate Tech Yangon        MMR11005090240441044250509000000000000000   10300001F05104100000000001441000000000000     
100   95050312618592720000000000020000000000020000002000000010410405090346471647523825110509000007130321   1030000200030000   333800010001203104000003327KBZPay                 Yangon        MMR11005090346471647520509000000000000000   10300001F05104100000000004200000000000000     
100   95050317175714970000000000202500000000202500002000000010410405090359372937992732650509000007130451   1030000200030000   333800010001203104000003327KBZPay                 Yangon        MMR11005090359372937990509000000000000000   10300001F05104100000000042525000000000000     
100   62911028202293090000000000062000000000062000002000000010410405080347420000664369000508212810000066   1030000500030000   591220012001014405912200120SHWE OHH PHARMACY      PTN           MMR11005080347420000660508000000000000000   10300001 00104100000000003720000000000000     
100   62443100375796910000000000040000000000040000002000000010410405080129490002720475420508212807000272   1030000500030000   598320001601000015172200016MAX ENERGY             PTN           MMR11005080129490002720508000000000000000   10300001 00104100000000004800000000000000     
100   62911028202446700000000000300000000000300000002000000010410405090242591259594369000509000007129622   1030000500030000   333800010001201104000003863AYA Pay                Yangon        MMR11005090242591259590509000000000000000   10300001F05104100000000063000000000000000     
100   95050312240830690000000000004900000000004900002000000010410405090052562256365178580509000007129177   1020000200030000   333400010001204104000000281Myanmar Soft-Gate Tech Yangon        MMR11005090052562256360509000000000000000   10300001F05104100000000001029000000000000     
100   95050315005801680000000000002940000000002940002000000010410405091605253525423989590509000007134960   1020000200030000   333400010001204104000000281Myanmar Soft-Gate Tech Yangon        MMR11005091605253525420509000000000000000   10300001F05104100000000000617000000000000     
100   62443100323428970000000000100000000000100000002000000010410405090911464146953720510509000007133186   1030000200030000   333800010001203104000003327KBZPay                 Yangon        MMR11005090911464146950509000000000000000   10300001F05104100000000021000000000000000     
100   95030301100120850000000000100000000000100000002000000010410405090351342134084369000509000007130373   1030000200030000   333800010001203104000003327KBZPay                 Yangon        MMR11005090351342134080509000000000000000   10300001F05104100000000021000000000000000     
100   95030367537085740000000000001960000000001960002000000010410405091357072707454369000509000007134594   1020000200030000   333400010001204104000000281Myanmar Soft-Gate Tech Yangon        MMR11005091357072707450509000000000000000   10300001F05104100000000000412000000000000     
100   95050314160856250000000000001960000000001960002000000010410405090618504850416896650509000007131702   1020000200030000   333400010001204104000000281Myanmar Soft-Gate Tech Yangon        MMR11005090618504850410509000000000000000   10300001F05104100000000000412000000000000     
100   62911028202068510000000000050000000000050000002000000010410405090743521352334369000509000007132437   1030000200030000   333800010001203104000003327KBZPay                 Yangon        MMR11005090743521352330509000000000000000   10300001F05104100000000010500000000000000     
100   95050310472135470000000000245000000000245000002000000010410405091309423942196322850509000007134427   1030000200030000   333800010001203104000003327KBZPay                 Yangon        MMR11005091309423942190509000000000000000   10300001F05104100000000051450000000000000     
100   95050310357533060000000000055000000000055000002000000010410405090513054305810067080509000007131146   1030000200030000   333800010001203104000003327KBZPay                 Yangon        MMR11005090513054305810509000000000000000   10300001F05104100000000011550000000000000     
100   95050325455962190000000000100000000000100000002000000010410405090413344334231044510509000007130597   1030000200030000   333800010001203104000003327KBZPay                 Yangon        MMR11005090413344334230509000000000000000   10300001F05104100000000021000000000000000     
100   95050315796541830000000000082000000000082000002000000010410405090416224622606342350509000007130625   1030000200030000   333800010001203104000003327KBZPay                 Yangon        MMR11005090416224622600509000000000000000   10300001F05104100000000017220000000000000     
100   95050316785465380000000000002940000000002940002000000010410405091322295229341280300509000007134468   1020000200030000   333400010001204104000000281Myanmar Soft-Gate Tech Yangon        MMR11005091322295229340509000000000000000   10300001F05104100000000000617000000000000     
100   95050326493030660000000000200000000000200000002000000010410405090828205820822924710509000007132837   1030000200030000   333800010001203104000003327KBZPay                 Yangon        MMR11005090828205820820509000000000000000   10300001F05104100000000042000000000000000     
100   62443100379321630000000000054000000000054000002000000010410405090802295971139158600509212915597113   1040001600030000   598320001170000000010000527Shwe Taung Energy (YGN Yangon        MMR11005090802295971130509000000000000000   10300001F00104100000000006480000000000000     
100   95030371418374890000000000100000000000100000002000000010410405091015214521284369000509000007133723   1030000200030000   333800010001203104000003327KBZPay                 Yangon        MMR11005091015214521280509000000000000000   10300001F05104100000000021000000000000000     
100   95050312499482960000000000042000000000042000002000000010410405081116530000236441230508212817000023   1030000500030000   481220139101000064812201391SERVICE CHANNEL MOBILE PTN           MMR11005081116530000230508000000000000000   10300001 00104100000000010080000000000000     
100   62911028202441420000000000056700000000056700002000000010410405080356540000274369000508212810000027   1030000500030000   591220014101014405912200141SHWE OHH PHARMACY      PTN           MMR11005080356540000270508000000000000000   10300001 00104100000000003402000000000000     
100   62911028202404050000000000058000000000058000002000000010410405080045000005194369000508212807000519   1030000500030000   598320001404000015172200014MAX ENERGY             PTN           MMR11005080045000005190508000000000000000   10300001 00104100000000001740000000000000     
100   62911028202110420000000000081000000000081000002000000010410405080402530004934369000508212810000493   1030000500030000   598320001304000015172200013MAX ENERGY             PTN           MMR11005080402530004930508000000000000000   10300001 00104100000000002430000000000000     
100   62443101063232860000000000003100000000003100002000000010410405081042290000778581440508212817000077   1030000500030000   531120201602000085311202016STJ BLAZON             PTN           MMR11005081042290000770508000000000000000   10300001 00104100000000000744000000000000     
100   95050322478649490000000000031000000000031000002000000010410405080818550002034376060508212814000203   1030000500030000   569120084301008205691200843ESCORT (A-12 YUZANA PL PTN           MMR11005080818550002030508000000000000000   10300001 00104100000000007440000000000000     
100   62443100399918110000000000055750000000055750002000000010410405080715190000911581670508212813000091   1030000500030000   581220044201022605812200442HOT POT CITY (AHLONE)  PTN           MMR11005080715190000910508000000000000000   10300001 00104100000000023694000000000000     
100   95050319111666800000000000015900000000015900002000000010410405080413580009100865250508212810000910   1030000500030000   531120155803000045311201558GAMONE PWINT           PTN           MMR11005080413580009100508000000000000000   10300001 00104100000000003816000000000000     
100   62911028202130710000000000020000000000020000002000000010410405090629455929484369000509212913592948   1040001600030000   598320000659000000010000528Shwe Taung Energy (YGN Yangon        MMR11005090629455929480509000000000000000   10300001F00104100000000000600000000000000     
100   62443100313002190000000000050000000000050000002000000010410405090746381638172364680509000007132489   1030000200030000   333800010001203104000003327KBZPay                 Yangon        MMR11005090746381638170509000000000000000   10300001F05104100000000010500000000000000     
100   95050316321163940000000000000980000000000980002000000010410405091245451545302677490509000007134332   1020000200030000   333400010001204104000000281Myanmar Soft-Gate Tech Yangon        MMR11005091245451545300509000000000000000   10300001F05104100000000000206000000000000     
100   95030301100215990000000000050000000000050000002000000010410405090853042304714369000509000007133045   1030000200030000   333800010001203104000003327KBZPay                 Yangon        MMR11005090853042304710509000000000000000   10300001F05104100000000010500000000000000     
100   95050311184380560000000000005880000000005880002000000010410405091009453945362798240509000007133675   1020000200030000   333400010001204104000000281Myanmar Soft-Gate Tech Yangon        MMR11005091009453945360509000000000000000   10300001F05104100000000001235000000000000     
100   95050316067768680000000000000980000000000980002000000010410405090211054105200597160509000007129461   1020000200030000   333400010001204104000000281Myanmar Soft-Gate Tech Yangon        MMR11005090211054105200509000000000000000   10300001F05104100000000000206000000000000     
100   95030367537085740000000000004900000000004900002000000010410405090913124312294369000509000007133212   1020000200030000   333400010001204104000000281Myanmar Soft-Gate Tech Yangon        MMR11005090913124312290509000000000000000   10300001F05104100000000001029000000000000     
100   95050316067768680000000000000980000000000980002000000010410405091425315531376237750509000007134680   1020000200030000   333400010001204104000000281Myanmar Soft-Gate Tech Yangon        MMR11005091425315531370509000000000000000   10300001F05104100000000000206000000000000     
100   62911028202690080000000000019050000000019050002000000010410405080644520000644369000508212813000064   1030000500030000   541120020901022205411200209ORANGE (HLAING)        PTN           MMR11005080644520000640508000000000000000   10300001 00104100000000001143000000000000     
100   62911028202074950000000000021000000000021000002000000010410405081028280005754369000508212816000575   1030000500030000   598320001202000015172200012MAX ENERGY             PTN           MMR11005081028280005750508000000000000000   10300001 00104100000000000630000000000000     
100   62911028202442250000000000033000000000033000002000000010410405080919310005414369000508212815000541   1030000500030000   598320001204000015172200012MAX ENERGY             PTN           MMR11005080919310005410508000000000000000   10300001 00104100000000000990000000000000     
100   62443100369813440000000000018538000000018538002000000010410405081201330002741483780508212818000274   1030000500030000   531120156002000045311201560GAMONE PWINT           PTN           MMR11005081201330002740508000000000000000   10300001 00104100000000004449000000000000     
100   95050328074436620000000000064011000000064011002000000010410405080055420004978567650508212807000497   1030000500030000   598320001003000015172200010MAX ENERGY             PTN           MMR11005080055420004970508000000000000000   10300001 00104100000000007681000000000000     
100   95050325273694860000000000003550000000003550002000000010410405080605430000402347540508212812000040   1030000500030000   541120024801022205411200248ORANGE (THARKAYTA)     PTN           MMR11005080605430000400508000000000000000   10300001 00104100000000000888000000000000     
100   95030313100013730000000000015500000000015500002000000010410405081026290002004369000508212816000200   1030000500030000   531120156001000045311201560GAMONE PWINT           PTN           MMR11005081026290002000508000000000000000   10300001 00104100000000000930000000000000     
100   95050324247403260000000000073000000000073000002000000010410405080034440004567000260508212807000456   1030000500030000   598320001204000015172200012MAX ENERGY             PTN           MMR11005080034440004560508000000000000000   10300001 00104100000000008760000000000000     
100   95050311077567400000000000000980000000000980002000000010410405091029185918575082050509000007133806   1020000200030000   333400010001204104000000281Myanmar Soft-Gate Tech Yangon        MMR11005091029185918570509000000000000000   10300001F05104100000000000206000000000000     
100   62911028202668140000000000085499000000085499002000000010410405091023596570384369000509347531659128   1030000900030000   541119001281190110000000963City Mart SPL C6       YANGONMYOTHIT MMR11005091023596570380509000000000000000   10300001F00104100000000005130000000000000     
100   62443101003317490000000000030910000000030910002000000010410405081418435598539405820508212821559853   1040001600030000   581420000804000000010000580Jeff's Kitchen (Kan Ye Yangon        MMR11005081418435598530508000000000000000   10300001F00104100000000003709000000000000     
100   62443100328070970000000000015841000000015841002000000010410405091040576575102032370509679101757128   1030000900030000   541119001513190110000001102Ocean MGDTM C-6        YANGONADON    MMR11005091040576575100509000000000000000   10300001F00104100000000003961000000000000     
100   95050328384000040000000000015000000000015000002000000010410405080659210003314886640508212813000331   1030000500030000   598320002101000015172200021MAX ENERGY             PTN           MMR11005080659210003310508000000000000000   10300001 00104100000000001800000000000000     
100   95050310332595380000000000009800000000009800002000000010410405091343581358487975320509000007134548   1020000200030000   333400010001204104000000281Myanmar Soft-Gate Tech Yangon        MMR11005091343581358480509000000000000000   10300001F05104100000000002058000000000000     
100   62443100330108240000000000000980000000000980002000000010410405090214494449522164550509000007129469   1020000200030000   333400010001204104000000281Myanmar Soft-Gate Tech Yangon        MMR11005090214494449520509000000000000000   10300001F05104100000000000206000000000000     
100   95050312498129060000000000000980000000000980002000000010410405091020425042819152890509000007133762   1020000200030000   333400010001204104000000281Myanmar Soft-Gate Tech Yangon        MMR11005091020425042810509000000000000000   10300001F05104100000000000206000000000000     
100   95030322236782320000000000080000000000080000002000000010410405080629150010334369000508212812001033   1030000500030000   598320001702000015172200017MAX ENERGY             PTN           MMR11005080629150010330508000000000000000   10300001 00104100000000002400000000000000     
100   95030394609966640000000000023100000000023100002000000010410405080442280000324369000508212811000032   1030000500030000   581220114301008505812201143GOLDEN DUCK (KAN TAW M PTN           MMR11005080442280000320508000000000000000   10300001 00104100000000002356000000000000     
100   62443100330048680000000000048000000000048000002000000010410405080447210004356077990508212811000435   1030000500030000   598320001101000015172200011MAX ENERGY             PTN           MMR11005080447210004350508000000000000000   10300001 00104100000000005760000000000000     
100   95030313100013730000000000006800000000006800002000000010410405080949520002524369000508212816000252   1030000500030000   531120156008000045311201560GAMONE PWINT           PTN           MMR11005080949520002520508000000000000000   10300001 00104100000000000408000000000000     
100   62443100326436660000000000020000000000020000002000000010410405080722250004703149060508212813000470   1030000500030000   598320002702000015172200027MAX ENERGY             PTN           MMR11005080722250004700508000000000000000   10300001 00104100000000002400000000000000     
100   95030301100086460000000000020000000000020000002000000010410405080135340004662927310508212808000466   1030000500030000   598320001304000015172200013MAX ENERGY             PTN           MMR11005080135340004660508000000000000000   10300001 00104100000000000600000000000000     
100   62911028202690080000000000016550000000016550002000000010410405080735540000334369000508212814000033   1030000500030000   531120155715000045311201557GAMONE PWINT           PTN           MMR11005080735540000330508000000000000000   10300001 00104100000000000993000000000000     
100   95030390626214130000000000030000000000030000002000000010410405080441050004154369000508212811000415   1030000500030000   598320002001000015172200020MAX ENERGY             PTN           MMR11005080441050004150508000000000000000   10300001 00104100000000000900000000000000     
100   95050320531117320000000000027602000000027602002000000010410405091112036582949968200509181421703128   1030000900030000   541119001516190110000001102Ocean MGDTM C-9        YANGONADON    MMR11005091112036582940509000000000000000   10300001F00104100000000006901000000000000     
100   95030301100126890000000000044100000000044100002000000010410405090519506505924369000509793491150128   1030000900030000   541119000122190110000000080Sein Gay Har BAK       YANGONADA     MMR11005090519506505920509000000000000000   10300001F00104100000000002646000000000000     
100   95050324133333980000000000038550000000038550002000000010410405091347506611159627810509890172050128   1030000900030000   541119001280190110000000963City Mart SPL C 5      YANGONMYOTHIT MMR11005091347506611150509000000000000000   10300001F00104100000000009638000000000000     
100   95030398701797940000000000038900000000038900002000000010410405090820065978614369000509212915597861   1040001600030000   541120000559000000010000465Ocean Shwe Gone Daing  Yangon        MMR11005090820065978610509000000000000000   10300001F00104100000000002334000000000000     
100   95030337100000390000000000020900000000020900002000000010410405080247470012463346810508000344012506   1030000300030000   541100000961000000000000683CB BANK                ONE STOP KITC MMR11005080247470012460508000000000000000   10300001F00104100000000001254000000000000     
100   95030301100124400000000000020436000000020436002000000010410405090714136528274369000509961441313128   1030000900030000   541119001265190110000000958City Mart PLST C 8     YANGONMYOTHIT MMR11005090714136528270509000000000000000   10300001F00104100000000001226000000000000     
100   95050312173216740000000000021800000000021800002000000010410405090829496543641102030509775591449128   1030000900030000   541119001262190110000000958City Mart PLST C 5     YANGONMYOTHIT MMR11005090829496543640509000000000000000   10300001F00104100000000005450000000000000     
100   95050321188471220000000000011950000000011950002000000010410405091314150023547868370509000746788820   1030000200030000   541188001480000008000000399KBZ BANK               OCEAN SUPERCE MMR11005091314150023540509000000000000000   10300001 00104100000000002988000000000000     
100   95050324104751500000000000021500000000021500002000000010410405081035360004730404110508000344071585   1030000300030000   531100000841000000000000576CB BANK                MGOU          MMR11005081035360004730508000000000000000   10300001F00104100000000005160000000000000     
100   62443100371022130000000000121000000000121000002000000010410405080551020004573659640508212812000457   1030000500030000   598320001301000015172200013MAX ENERGY             PTN           MMR11005080551020004570508000000000000000   10300001 00104100000000014520000000000000     
100   62911028202331290000000000020000000000020000002000000010410405080949030002444369000508212816000244   1030000500030000   591220014201014405912200142SHWE OHH PHARMACY      PTN           MMR11005080949030002440508000000000000000   10300001 00104100000000001200000000000000     
100   95050322478649490000000000037000000000037000002000000010410405080823590002052723580508212814000205   1030000500030000   569120084301008205691200843ESCORT (A-12 YUZANA PL PTN           MMR11005080823590002050508000000000000000   10300001 00104100000000008880000000000000     
100   62911028202261800000000000030000000000030000002000000010410405080151390005123023800508212808000512   1030000500030000   598320001003000015172200010MAX ENERGY             PTN           MMR11005080151390005120508000000000000000   10300001 00104100000000000900000000000000     
100   62911028202443730000000000025000000000025000002000000010410405080912440042444369000508212815004244   1030000500030000   598320001903000015172200019MAX ENERGY             PTN           MMR11005080912440042440508000000000000000   10300001 00104100000000000750000000000000     
100   95050317563202100000000000023075000000023075002000000010410405080534520012770439770508000344033141   1030000300030000   591200000291000000000000172CB BANK                MEDICARE STOR MMR11005080534520012770508000000000000000   10300001F00104100000000005538000000000000     
100   95030305700676370000000000050000000000050000002000000010410405081137050029734369000508000746751407   1030000200030000   598388001833000008000005310KBZ BANK               BOC (138 MILE MMR11005081137050029730508000000000000000   10300001 00104100000000001500000000000000     
100   95050318131767790000000000008500000000008500002000000010410405090802466538386825350509501321446128   1030000900030000   541119000122190110000000080Sein Gay Har BAK       YANGONADA     MMR11005090802466538380509000000000000000   10300001F00104100000000002125000000000000     
100   95030390626214130000000000040000000000040000002000000010410405090601103110974369000509000007131576   1030000200030000   333800010001203104000003327KBZPay                 Yangon        MMR11005090601103110970509000000000000000   10300001F05104100000000008400000000000000     
100   62911028202163630000000000019000000000019000002000000010410405090913116002794369000509212916600279   1040001600030000   598320000915000000010000664MMTM - North Dagon     Ygn           MMR11005090913116002790509000000000000000   10300001F00104100000000000570000000000000     
100   95050318877641040000000000020000000000020000002000000010410405090823486542377626870509702531448128   1030000900030000   541119001247190110000000955City Mart JS C 6       YANGONUT      MMR11005090823486542370509000000000000000   10300001F00104100000000005000000000000000     
100   62911028202474180000000001000000000001000000002000000010410405090913356553314369000509334431535128   1030000900030000   573219001177190110000000933UNIQUE Kabaraye        YANGON        MMR11005090913356553310509000000000000000   10300001F00104100000000060000000000000000     
100   62443100379321630000000000048600000000048600002000000010410405090938200697416685090509220071641128   1030000300030000   555510124365104519000020166Makro Myanmar                        MMR11005090938200697410509000000000000000   10300001 00104100000000011664000000000000     
100   62911028202423360000000000009700000000009700002000000010410405090806476539164369000509536361447128   1030000900030000   541119001528190110000001107Ocean MGDTM-Season C-1 YANGONADON    MMR11005090806476539160509000000000000000   10300001F00104100000000000582000000000000     
100   62911028202684060000000000059000000000059000002000000010410405090449395872614369000509212911587261   1040001600030000   598320000658000000010000527Shwe Taung Energy (YGN Yangon        MMR11005090449395872610509000000000000000   10300001F00104100000000001770000000000000     
100   95030308100042590000000000012900000000012900002000000010410405080556400023844369000508000344035881   1030000300030000   581400000692000000000000478CB BANK                KFC PARAMI SG MMR11005080556400023840508000000000000000   10300001F00104100000000000387000000000000     
100   95030337100000390000000000011350000000011350002000000010410405080250380012484369000508000344012840   1030000300030000   541100000961000000000000683CB BANK                ONE STOP KITC MMR11005080250380012480508000000000000000   10300001F00104100000000000681000000000000     
100   95030322236782320000000000100000000000100000002000000010410405081118510010734369000508212817001073   1030000500030000   598320001702000015172200017MAX ENERGY             PTN           MMR11005081118510010730508000000000000000   10300001 00104100000000003000000000000000     
100   62911028202136750000000000058000000000058000002000000010410405081202290011024369000508212818001102   1030000500030000   598320001904000015172200019MAX ENERGY             PTN           MMR11005081202290011020508000000000000000   10300001 00104100000000001740000000000000     
100   95030301100425380000000000040000000000040000002000000010410405081256580144584369000508000344089692   1030000300030000   598300000342000000000000222CB BANK                YANGON PETROL MMR11005081256580144580508000000000000000   10300001F00104100000000001200000000000000     
100   95050313453886860000000000011900000000011900002000000010410405051243490003387983400505212512000338   1030000600030000   581200000720315799420000301CAFE CITY              MANDALY       MMR11005051243490003380505000000000000000   10300001 00104100000000005058000000000000     
100   62911028202752030000000000060000000000060000002000000010410405050631440322844369000505212506032284   1030000600030000   554100001155315799420000607DENKO NPT 1            NAYPYITAW.    MMR11005050631440322840505000000000000000   10300001 00104100000000001800000000000000     
100   62443100311760720000000000062500000000062500002000000010410405060157070158623585970506212601015862   1030000600030000   554100002085315799420000471DENKO BAHAN            YANGON        MMR11005060157070158620506000000000000000   10300001 00104100000000007500000000000000     
100   95030310098554020000000000013800000000013800002000000010410405070301480000634369000507212709000063   1030000500030000   531120155806000045311201558GAMONE PWINT           PTN           MMR11005070301480000630507000000000000000   10300001 00104100000000000828000000000000     
100   95050327416134790000000000004900000000004900002000000010410405090845471547379869310509000007132981   1020000200030000   333400010001204104000000281Myanmar Soft-Gate Tech Yangon        MMR11005090845471547370509000000000000000   10300001F05104100000000001029000000000000     
100   95050311740551900000000000100000000000100000002000000010410405090355562556077690100509000007130414   1030000200030000   333800010001203104000003327KBZPay                 Yangon        MMR11005090355562556070509000000000000000   10300001F05104100000000021000000000000000     
100   62911028202245730000000000045874000000045874002000000010410405090844250692524369000509663241506128   1030000300030000   555510125356104519000015328Myittar Oo Eye Hospita               MMR11005090844250692520509000000000000000   10300001 00104100000000002752000000000000     
100   95050316818236190000000000002940000000002940002000000010410405090107443744676065190509000007129214   1020000200030000   333400010001204104000000281Myanmar Soft-Gate Tech Yangon        MMR11005090107443744670509000000000000000   10300001F05104100000000000617000000000000     
100   95030371418374890000000000300000000000300000002000000010410405090853362336604369000509000007133048   1030000200030000   333800010001203104000003327KBZPay                 Yangon        MMR11005090853362336600509000000000000000   10300001F05104100000000063000000000000000     
100   62911028202500810000000000025900000000025900002000000010410405091039046058374369000509212917605837   1040001600030000   591220000266000000010000254Shwe Ohh Pharmacy (Sin Yangon        MMR11005091039046058370509000000000000000   10300001F00104100000000001554000000000000     
100   95050318805978240000000000013600000000013600002000000010410405090322125212148242050509000007130023   1030000200030000   333800010001203104000003327KBZPay                 Yangon        MMR11005090322125212140509000000000000000   10300001F05104100000000002856000000000000     
100   95030318100004530000000000040000000000040000002000000010410405060427350097544369000506212604009754   1030000600030000   554100001218315799420000670DENKO MAWLAMYAING      MON STATE.    MMR11005060427350097540506000000000000000   10300001 00104100000000001200000000000000     
100   62911028202197630000000000027000000000027000002000000010410405060417150754284369000506212604075428   1030000600030000   554100000955315799420000477DENKO INSEIN           YANGON        MMR11005060417150754280506000000000000000   10300001 00104100000000000810000000000000     
100   62443100392426520000000000010000000000010000002000000010410405091430140014487379650509000007134697   1030000200030000   333800010001203104000003327KBZPay                 Yangon        MMR11005091430140014480509000000000000000   10300001F05104100000000002100000000000000     
100   62443100330108240000000000000980000000000980002000000010410405091230120012524329970509000007134275   1020000200030000   333400010001204104000000281Myanmar Soft-Gate Tech Yangon        MMR11005091230120012520509000000000000000   10300001F05104100000000000206000000000000     
100   62911028202825140000000000025900000000025900002000000010410405091157430003594369000509000746805944   1030000200030000   564188001668000008000005178KBZ BANK               SB BABY-11    MMR11005091157430003590509000000000000000   10300001 00104100000000001554000000000000     
100   95030337100000390000000000020500000000020500002000000010410405090347540039824369000509000746774617   1030000200030000   591288000837000008000004646KBZ BANK               PINLON PHARMA MMR11005090347540039820509000000000000000   10300001 00104100000000001230000000000000     
100   62443100337100010000000000030170000000030170002000000010410405091202330072316677020509000746783361   1030000200030000   541188001062000008000000314KBZ BANK               MARKETPLACE - MMR11005091202330072310509000000000000000   10300001 00104100000000007543000000000000     
100   95030337100000390000000000012250000000012250002000000010410405090350340036664369000509000746774858   1030000200030000   591288000018000008000002044KBZ BANK               PINLON PHARMA MMR11005090350340036660509000000000000000   10300001 00104100000000000735000000000000     
100   62911028202531840000000000009100000000009100002000000010410405090414220006154369000509000746776625   1030000200030000   581288000093000008000003916KBZ BANK               SHARKY' S MYA MMR11005090414220006150509000000000000000   10300001 00104100000000000928000000000000     
100   62911028202383670000000000018400000000018400002000000010410405091120540024864369000509000746779734   1030000200030000   541188001348000008000000395KBZ BANK               OCEAN SUPERMA MMR11005091120540024860509000000000000000   10300001 00104100000000001104000000000000     
100   95050318257792630000000000038800000000038800002000000010410405091031330021176734530509000746802443   1030000200030000   569988000778000008000004529KBZ BANK               JSQ-IPANEMA   MMR11005091031330021170509000000000000000   10300001 00104100000000009312000000000000     
100   95030310098554020000000000036971000000036971002000000010410405090415490020924369000509212910002092   1020000200030000   806200105003300018062000010MWD BANK               YGN           MMR11005090415490020920509000000000000000   10300001 00104100000000002218000000000000     
100   95030380157605420000000000071800000000071800002000000010410405091442450025594369000509000746794973   1030000200030000   541188001482000008000000399KBZ BANK               OCEAN SUPERCE MMR11005091442450025590509000000000000000   10300001 00104100000000004308000000000000     
100   62911028202169750000000000016921000000016921002000000010410405090150130650224369000509346200801128   1030000500030000   555610118964104519000016137City Mart South Okkala WZYD BR       MMR11005090150130650220509000000000000000   10300001 00104100000000001015000000000000     
100   62911028202169750000000000016200000000016200002000000010410405090152390650324369000509350220829128   1030000500030000   555610118968104519000016137City Mart South Okkala WZYD BR       MMR11005090152390650320509000000000000000   10300001 00104100000000000972000000000000     
100   62911028202169750000000000004100000000004100002000000010410405090155180650414369000509352250806128   1030000500030000   555610118972104519000016137City Mart South Okkala WZYD BR       MMR11005090155180650410509000000000000000   10300001 00104100000000000246000000000000     
100   95030361482647470000000000028526000000028526002000000010410405091559470277234369000509000746799439   1030000200030000   541188001042000008000000010KBZ BANK               MARKETPLACE - MMR11005091559470277230509000000000000000   10300001 00104100000000001712000000000000     
100   62911028202421380000000000020450000000020450002000000010410405091749300154754369000509000746804534   1030000200030000   541188001061000008000000314KBZ BANK               MARKETPLACE - MMR11005091749300154750509000000000000000   10300001 00104100000000001227000000000000     
100   62911028202077010000000000000980000000000980002000000010410405082334320432004369000509000007129090   1020000200030000   333400010001204104000000281Myanmar Soft-Gate Tech Yangon        MMR11005082334320432000509000000000000000   10300001F05104100000000000206000000000000     
100   95050315557781210000000000010000000000010000002000000010410405090931120112541557450509000007133380   1040001600030000   333800010001220104000004507A +                    Yangon        MMR11005090931120112540509000000000000000   10300001F05104100000000002100000000000000     
100   95030310098554020000000000018000000000018000002000000010410405090640140678264369000509019091333128   1030000300030000   444410111504104519000009877YKKO Botahtaung                      MMR11005090640140678260509000000000000000   10300001 00104100000000001836000000000000     
100   62443100315110470000000000024650000000024650002000000010410405091639360111494535820509000746801407   1030000200030000   541188001023000008000000298KBZ BANK               CITY MART - M MMR11005091639360111490509000000000000000   10300001 00104100000000006163000000000000     
100   62911028202170490000000000045768000000045768002000000010410405091551140246034369000509000746799031   1030000200030000   541188001038000008000000010KBZ BANK               MARKETPLACE - MMR11005091551140246030509000000000000000   10300001 00104100000000002746000000000000     
100   62911028202610960000000000043200000000043200002000000010410405091146180083304369000509000746781957   1030000200030000   541188001018000008000000008KBZ BANK               MARKETPLACE - MMR11005091146180083300509000000000000000   10300001 00104100000000002592000000000000     
100   62911028202108380000000000013790000000013790002000000010410405090931510109804369000509000746772292   1030000200030000   541188001081000008000000294KBZ BANK               CITY MART - J MMR11005090931510109800509000000000000000   10300001 00104100000000000827000000000000     
100   62443100337100010000000000014000000000014000002000000010410405091203430201273286950509000746783459   1030000200030000   541188001070000008000000314KBZ BANK               MARKETPLACE - MMR11005091203430201270509000000000000000   10300001 00104100000000003500000000000000     
100   62911028202531840000000000060143000000060143002000000010410405091031200097514369000509000746775674   1030000200030000   541188001002000008000000008KBZ BANK               MARKETPLACE - MMR11005091031200097510509000000000000000   10300001 00104100000000003609000000000000     
100   95030308100010080000000000001960000000001960002000000010410405091133030303244369000509000007134082   1020000200030000   333400010001204104000000281Myanmar Soft-Gate Tech Yangon        MMR11005091133030303240509000000000000000   10300001F05104100000000000412000000000000     
100   95050313062063490000000000000980000000000980002000000010410405090536350635838244410509000007131349   1020000200030000   333400010001204104000000281Myanmar Soft-Gate Tech Yangon        MMR11005090536350635830509000000000000000   10300001F05104100000000000206000000000000     
100   95030301100215990000000000015000000000015000002000000010410405090532360236334369000509000007131324   1030000200030000   333800010001203104000003327KBZPay                 Yangon        MMR11005090532360236330509000000000000000   10300001F05104100000000003150000000000000     
100   62911028202249380000000000001960000000001960002000000010410405090335290529634369000509000007130194   1020000200030000   333400010001204104000000281Myanmar Soft-Gate Tech Yangon        MMR11005090335290529630509000000000000000   10300001F05104100000000000412000000000000     
100   95050323049250880000000000042476000000042476002000000010410405090800520322203015520509000746768693   1030000200030000   541188001041000008000000010KBZ BANK               MARKETPLACE - MMR11005090800520322200509000000000000000   10300001 00104100000000010619000000000000     
100   62911028202610960000000000225250000000225250002000000010410405091124140097594369000509000746780007   1030000200030000   541188001002000008000000008KBZ BANK               MARKETPLACE - MMR11005091124140097590509000000000000000   10300001 00104100000000013515000000000000     
100   95050318305047550000000000150000000000150000002000000010410405090531400140977989120509000007131309   1030000200030000   333800010001203104000003327KBZPay                 Yangon        MMR11005090531400140970509000000000000000   10300001F05104100000000031500000000000000     
100   95030390626214130000000000040000000000040000002000000010410405090536410641034369000509000007131348   1030000500030000   333800010001201104000003863AYA Pay                Yangon        MMR11005090536410641030509000000000000000   10300001F05104100000000008400000000000000     
100   62911028202161240000000000012752000000012752002000000010410405091008340347224369000509000746774047   1030000200030000   541188001024000008000000298KBZ BANK               CITY MART - M MMR11005091008340347220509000000000000000   10300001 00104100000000000765000000000000     
100   62911028202443730000000000042870000000042870002000000010410405091056580347254369000509000746777638   1030000200030000   541188001024000008000000298KBZ BANK               CITY MART - M MMR11005091056580347250509000000000000000   10300001 00104100000000002572000000000000     
100   62911028202212490000000000003900000000003900002000000010410405090938460697754369000509268101618128   1030000500030000   555610112252104519000010487Ocean Super Center St  ohn           MMR11005090938460697750509000000000000000   10300001 00104100000000000234000000000000     
100   62911028202807400000000000150000000000150000002000000010410405090711590681624369000509433421350128   1030000300030000   555510124695104519000020166Makro Myanmar                        MMR11005090711590681620509000000000000000   10300001 00104100000000009000000000000000     
100   62443100379321630000000000014300000000014300002000000010410405090818240689071612600509245521412128   1030000500030000   555610112532104519000010487Ocean Super Center St  ohn           MMR11005090818240689070509000000000000000   10300001 00104100000000003575000000000000     
100   62911028202539860000000000089031000000089031002000000010410405091043320707424369000509441231729128   1030000300030000   555510125356104519000015328Myittar Oo Eye Hospita               MMR11005091043320707420509000000000000000   10300001 00104100000000005342000000000000     
100   95050326750398570000000000000650000000000650002000000010410405091024090703572372760509970541640128   1030000500030000   555610104035104519000003821City Mart North Point  enter         MMR11005091024090703570509000000000000000   10300001 00104100000000000163000000000000     
100   95050326750398570000000000010050000000010050002000000010410405091023390703227330210509930531608128   1030000500030000   555610104049104519000003821City Mart North Point  enter         MMR11005091023390703220509000000000000000   10300001 00104100000000002513000000000000     
100   62911028202245730000000000051809000000051809002000000010410405090811470688874369000509222501441128   1030000300030000   555510125356104519000015328Myittar Oo Eye Hospita               MMR11005090811470688870509000000000000000   10300001 00104100000000003109000000000000     
100   95050316321163940000000000000980000000000980002000000010410405091243381338021025010509000007134326   1020000200030000   333400010001204104000000281Myanmar Soft-Gate Tech Yangon        MMR11005091243381338020509000000000000000   10300001F05104100000000000206000000000000     
100   95030301100125070000000000200000000000200000002000000010410405090747481748974369000509000007132500   1030000200030000   333800010001203104000003327KBZPay                 Yangon        MMR11005090747481748970509000000000000000   10300001F05104100000000042000000000000000     
100   95050317003064220000000000000980000000000980002000000010410405090401293129580739780509000007130478   1020000200030000   333400010001204104000000281Myanmar Soft-Gate Tech Yangon        MMR11005090401293129580509000000000000000   10300001F05104100000000000206000000000000     
100   95030371418374890000000000200000000000200000002000000010410405091013374337694369000509000007133711   1030000200030000   333800010001203104000003327KBZPay                 Yangon        MMR11005091013374337690509000000000000000   10300001F05104100000000042000000000000000     
100   62911028202539860000000000041100000000041100002000000010410405090618570720764369000509069061942128   1030000300030000   444410116456104519000014056Shwe Kaung Mawtin                    MMR11005090618570720760509000000000000000   10300001 00104100000000004192000000000000     
100   62911028202764900000000000151000000000151000002000000010410405090219044904684369000509000007129487   1030000200030000   333800010001203104000003327KBZPay                 Yangon        MMR11005090219044904680509000000000000000   10300001F05104100000000031710000000000000     
100   95030305700676370000000000050000000000050000002000000010410405090702385945064369000509212914594506   1040001600030000   598320000658000000010000527Shwe Taung Energy (YGN Yangon        MMR11005090702385945060509000000000000000   10300001F00104100000000001500000000000000     
100   95050323133124350000000000020000000000020000002000000010410405090406443644291881690509000007130531   1030000200030000   333800010001203104000003327KBZPay                 Yangon        MMR11005090406443644290509000000000000000   10300001F05104100000000004200000000000000     
100   95050314996291580000000000000980000000000980002000000010410405091211164116752847690509000007134215   1020000200030000   333400010001204104000000281Myanmar Soft-Gate Tech Yangon        MMR11005091211164116750509000000000000000   10300001F05104100000000000206000000000000     
100   95050311184380560000000000000980000000000980002000000010410405091016064606862202560509000007133721   1020000200030000   333400010001204104000000281Myanmar Soft-Gate Tech Yangon        MMR11005091016064606860509000000000000000   10300001F05104100000000000206000000000000     
100   95050326493030660000000000300000000000300000002000000010410405090825405540611527510509000007132814   1030000200030000   333800010001203104000003327KBZPay                 Yangon        MMR11005090825405540610509000000000000000   10300001F05104100000000063000000000000000     
100   95030371418374890000000000100000000000100000002000000010410405090850332033694369000509000007133009   1030000200030000   333800010001203104000003327KBZPay                 Yangon        MMR11005090850332033690509000000000000000   10300001F05104100000000021000000000000000     
100   95050310685238570000000000003000000000003000002000000010410405090952102210583308820509000007133549   1030000200030000   3334000100012031040000040102C2P (Myanmar) Co. Ltd Yangon        MMR11005090952102210580509000000000000000   10300001F05104100000000000630000000000000     
100   95050313374257020000000000050400000000050400002000000010410405090502483248950157900509000007131065   1030000900030000   333800010001202104000003301uab bank               Yangon        MMR11005090502483248950509000000000000000   10300001F05104100000000010584000000000000     
100   62911028202466670000000000137700000000137700002000000010410405090334545841154369000509212910584115   1040001600030000   591220000276000000010000264Shwe Ohh Pharmacy (YGH Yangon        MMR11005090334545841150509000000000000000   10300001F00104100000000008262000000000000     
100   95050320205194540000000000054100000000054100002000000010410405090950466021773393920509212916602177   1040001600030000   591220000295000000010000283Shwe Ohh Pharmacy (39t Yangon        MMR11005090950466021770509000000000000000   10300001F00104100000000012984000000000000     
100   95030371418374890000000000300000000000300000002000000010410405090851542154854369000509000007133026   1030000200030000   333800010001203104000003327KBZPay                 Yangon        MMR11005090851542154850509000000000000000   10300001F05104100000000063000000000000000     
100   95050310427855490000000000000980000000000980002000000010410405090852502250712493510509000007133036   1020000200030000   333400010001204104000000281Myanmar Soft-Gate Tech Yangon        MMR11005090852502250710509000000000000000   10300001F05104100000000000206000000000000     
100   95050315557781210000000000010000000000010000002000000010410405091004183418532542950509000007133640   1030000200030000   333800010001203104000003327KBZPay                 Yangon        MMR11005091004183418530509000000000000000   10300001F05104100000000002100000000000000     
100   95050325997730520000000000523000000000523000002000000010410405090609573957167393440509000007131631   1030000300030000   333800010001206104000001412INTERNET WALLET MYANMA Yangon        MMR11005090609573957160509000000000000000   10300001F05104100000000109830000000000000     
100   95050310608512070000000000004900000000004900002000000010410405091520435043245727170509000007134859   1020000200030000   333400010001204104000000281Myanmar Soft-Gate Tech Yangon        MMR11005091520435043240509000000000000000   10300001F05104100000000001029000000000000     
100   62911028202203320000000000060000000000060000002000000010410405090614475921744369000509212913592174   1040001600030000   569120000925000000010000672Generation Concept Sto Ygn           MMR11005090614475921740509000000000000000   10300001F00104100000000003600000000000000     
100   95050314534800510000000000000985000000000985002000000010410405090357022702725952520509000007130412   1020000200030000   333400010001204104000000281Myanmar Soft-Gate Tech Yangon        MMR11005090357022702720509000000000000000   10300001F05104100000000000207000000000000     
100   95030367537085740000000000002940000000002940002000000010410405090805233523534369000509000007132645   1020000200030000   333400010001204104000000281Myanmar Soft-Gate Tech Yangon        MMR11005090805233523530509000000000000000   10300001F05104100000000000617000000000000     
100   95050316067768680000000000001960000000001960002000000010410405090208453845845554620509000007129445   1020000200030000   333400010001204104000000281Myanmar Soft-Gate Tech Yangon        MMR11005090208453845840509000000000000000   10300001F05104100000000000412000000000000     
100   95050312498129060000000000002940000000002940002000000010410405091013454345086103210509000007133713   1020000200030000   333400010001204104000000281Myanmar Soft-Gate Tech Yangon        MMR11005091013454345080509000000000000000   10300001F05104100000000000617000000000000     
100   62911028202000450000000000004900000000004900002000000010410405090319514951884369000509000007130001   1020000200030000   333400010001204104000000281Myanmar Soft-Gate Tech Yangon        MMR11005090319514951880509000000000000000   10300001F05104100000000001029000000000000     
100   95050311184380560000000000000980000000000980002000000010410405091017564756270379890509000007133745   1020000200030000   333400010001204104000000281Myanmar Soft-Gate Tech Yangon        MMR11005091017564756270509000000000000000   10300001F05104100000000000206000000000000     
