100   62911028202231380000000000023000000000023000002000000010410405101525120110374369000510000746844636   1030000200030000   541188001081000008000000294KBZ BANK               CITY MART - J MMR11005101525120110370510000000000000000   10300001 00104100000000001380000000000000     
100   95050310750557450000000000006120000000006120002000000010410405100549020770580437180510381221206129   1030000500030000   555610103470104519000003420City Mart Yankin Cente 9             MMR11005100549020770580510000000000000000   10300001 00104100000000001530000000000000     
100   62911028202231380000000000007000000000007000002000000010410405101531110097994369000510000746844953   1030000200030000   541188001088000008000000294KBZ BANK               CITY MART - J MMR11005101531110097990510000000000000000   10300001 00104100000000000420000000000000     
100   95050312498129060000000000004900000000004900002000000010410405101336080608433544380510000007140330   1020000200030000   333400010001204104000000281Myanmar Soft-Gate Tech Yangon        MMR11005101336080608430510000000000000000   10300001F05104100000000001029000000000000     
100   62911028202684060000000000020800000000020800002000000010410405100528350768234369000510133021217129   1030000500030000   555610104020104519000003821City Mart North Point  enter         MMR11005100528350768230510000000000000000   10300001 00104100000000001248000000000000     
100   95050312568198510000000000002000000000002000002000000010410405101343161316411381310510000007140357   1030000200030000   3338000100012031040000040022C2P (Myanmar) Co. Ltd Yangon        MMR11005101343161316410510000000000000000   10300001F05104100000000000420000000000000     
100   95050319528093960000000000000980000000000980002000000010410405100656162616837011460510000007137793   1020000200030000   333400010001204104000000281Myanmar Soft-Gate Tech Yangon        MMR11005100656162616830510000000000000000   10300001F05104100000000000206000000000000     
100   95050319928585020000000000004900000000004900002000000010410405100258062806153152410510000007135889   1020000200030000   333400010001204104000000281Myanmar Soft-Gate Tech Yangon        MMR11005100258062806150510000000000000000   10300001F05104100000000001029000000000000     
100   62443100311760720000000000029950000000029950002000000010410405091059510000328557210509000344232678   1030000300030000   541100000608000000000000412CB BANK                ONE STOP MART MMR11005091059510000320509000000000000000   10300001F00104100000000007488000000000000     
100   62911028202474000000000000062500000000062500002000000010410405090421210006204369000509212910000620   1030000500030000   598320001203000015172200012MAX ENERGY             PTN           MMR11005090421210006200509000000000000000   10300001 00104100000000001875000000000000     
100   62911028202703370000000000040000000000040000002000000010410405091053120011394369000509212917001139   1030000500030000   598320001702000015172200017MAX ENERGY             PTN           MMR11005091053120011390509000000000000000   10300001 00104100000000001200000000000000     
100   62911028202170490000000000040000000000040000002000000010410405090351190005624369000509212910000562   1030000500030000   598320001402000015172200014MAX ENERGY             PTN           MMR11005090351190005620509000000000000000   10300001 00104100000000001200000000000000     
100   95030337100000390000000000066000000000066000002000000010410405090401060002044369000509212910000204   1030000500030000   806220195401000018062201954PIN LON HOSPITAL       PTN           MMR11005090401060002040509000000000000000   10300001 00104100000000003960000000000000     
100   62911028202147720000000000050000000000050000002000000010410405091031560004354369000509212917000435   1030000500030000   598320001601000015172200016MAX ENERGY             PTN           MMR11005091031560004350509000000000000000   10300001 00104100000000001500000000000000     
100   95050312173216740000000000033000000000033000002000000010410405090815170000343350190509212914000034   1030000500030000   569120087001006305691200870DYNAMIC PINLON (1)     PTN           MMR11005090815170000340509000000000000000   10300001 00104100000000007920000000000000     
100   62911028202668140000000000075000000000075000002000000010410405090154420003724369000509212908000372   1030000500030000   598320002102000015172200021MAX ENERGY             PTN           MMR11005090154420003720509000000000000000   10300001 00104100000000002250000000000000     
100   95050312498129060000000000000980000000000980002000000010410405101615534553851466410510000007140838   1020000200030000   333400010001204104000000281Myanmar Soft-Gate Tech Yangon        MMR11005101615534553850510000000000000000   10300001F05104100000000000206000000000000     
100   95050311382087030000000000005000000000005000002000000010410405101327055705650324510510000007140282   1030000200030000   333800010001203104000003327KBZPay                 Yangon        MMR11005101327055705650510000000000000000   10300001F05104100000000001050000000000000     
100   95030305100040620000000000060280000000060280002000000010410405100344566485514369000510213010648551   1040001600030000   581420000961000000010000708Imperial Garden (Sein  Yangon        MMR11005100344566485510510000000000000000   10300001F00104100000000001808000000000000     
100   62443100345308040000000000002500000000002500002000000010410405100242571257700187830510000007135795   1030000900030000   333400010001202104000002022ACS                    Yangon        MMR11005100242571257700510000000000000000   10300001F05104100000000000525000000000000     
100   95050322343585250000000000050000000000050000002000000010410405100342581258644919710510000007136284   1030000200030000   333800010001203104000003327KBZPay                 Yangon        MMR11005100342581258640510000000000000000   10300001F05104100000000010500000000000000     
100   95050319928585020000000000001960000000001960002000000010410405100254242424292897130510000007135863   1020000200030000   333400010001204104000000281Myanmar Soft-Gate Tech Yangon        MMR11005100254242424290510000000000000000   10300001F05104100000000000412000000000000     
100   95050319528093960000000000000980000000000980002000000010410405100652132213442054020510000007137758   1020000200030000   333400010001204104000000281Myanmar Soft-Gate Tech Yangon        MMR11005100652132213440510000000000000000   10300001F05104100000000000206000000000000     
100   62443100372702000000000000100000000000100000002000000010410405100906533653909849580510000007138922   1040001600030000   333800010001220104000004507A +                    Yangon        MMR11005100906533653900510000000000000000   10300001F05104100000000021000000000000000     
100   62911028202284260000000000032320000000032320002000000010410405090535150006914369000509212912000691   1030000500030000   806220172402013008062201724GRAND HANTHA HOSPITAL  PTN           MMR11005090535150006910509000000000000000   10300001 00104100000000001939000000000000     
100   62911028202500810000000000021500000000021500002000000010410405091025270007124369000509212916000712   1030000500030000   806220172402013008062201724GRAND HANTHA HOSPITAL  PTN           MMR11005091025270007120509000000000000000   10300001 00104100000000001290000000000000     
100   95050310553090700000000000003100000000003100002000000010410405090226590000613405340509000344169206   1030000300030000   541100000908000000000000645CB BANK                ONE STOP MART MMR11005090226590000610509000000000000000   10300001F00104100000000000775000000000000     
100   62911028202169750000000000024452000000024452002000000010410405091051560004164369000509212917000416   1030000500030000   598320002103000015172200021MAX ENERGY             PTN           MMR11005091051560004160509000000000000000   10300001 00104100000000000734000000000000     
100   62911028202197630000000000010000000000010000002000000010410405090431390004514369000509212911000451   1030000500030000   598320001403000015172200014MAX ENERGY             PTN           MMR11005090431390004510509000000000000000   10300001 00104100000000000300000000000000     
100   62911028202393160000000000030000000000030000002000000010410405090259340098824369000509212902009882   1030000600030000   554100001218315799420000670DENKO MAWLAMYAING      MON STATE.    MMR11005090259340098820509000000000000000   10300001 00104100000000000900000000000000     
100   62911028202366010000000000081000000000081000002000000010410405091222020116114369000509212912011611   1030000600030000   554100002328315799420001235DENKO NAY PYI TAW 2    NAYPYITAW     MMR11005091222020116110509000000000000000   10300001 00104100000000002430000000000000     
100   62911028202136750000000000050000000000050000002000000010410405091143390478474369000509212911047847   1030000600030000   554100001001315799420000498DENKO SHWE PYI THAR    YANGON        MMR11005091143390478470509000000000000000   10300001 00104100000000001500000000000000     
100   95050319728246800000000000300000000000300000002000000010410405100145231523497124360510000007135505   1030000200030000   333800010001203104000003327KBZPay                 Yangon        MMR11005100145231523490510000000000000000   10300001F05104100000000063000000000000000     
100   95030371418374890000000000100000000000100000002000000010410405100350322032954369000510000007136369   1030000500030000   333800010001201104000003863AYA Pay                Yangon        MMR11005100350322032950510000000000000000   10300001F05104100000000021000000000000000     
100   95050320624349010000000000050000000000050000002000000010410405100323346477064379410510213010647706   1040001600030000   598320000915000000010000664MMTM - North Dagon     Ygn           MMR11005100323346477060510000000000000000   10300001F00104100000000006000000000000000     
100   62911028202400660000000000082045000000082045002000000010410405101135160815674369000510684051820129   1030000500030000   555610104041104519000003821City Mart North Point  enter         MMR11005101135160815670510000000000000000   10300001 00104100000000004923000000000000     
100   95050312695033440000000000009800000000009800002000000010410405100853192319577055190510000007138825   1020000200030000   333400010001204104000000281Myanmar Soft-Gate Tech Yangon        MMR11005100853192319570510000000000000000   10300001F05104100000000002058000000000000     
100   95030367537085740000000000000980000000000980002000000010410405101416544654844369000510000007140460   1020000200030000   333400010001204104000000281Myanmar Soft-Gate Tech Yangon        MMR11005101416544654840510000000000000000   10300001F05104100000000000206000000000000     
100   95030367537085740000000000003920000000003920002000000010410405101127575757554369000510000007139820   1020000200030000   333400010001204104000000281Myanmar Soft-Gate Tech Yangon        MMR11005101127575757550510000000000000000   10300001F05104100000000000823000000000000     
100   62911028202471600000000000000700000000000700002000000010410405101142450816874369000510827131833129   1030000500030000   555610110570104519000009164City Mart China Town P int Cen       MMR11005101142450816870510000000000000000   10300001 00104100000000000042000000000000     
100   62911028202010920000000000091129000000091129002000000010410405090435560128524369000509212904012852   1030000600030000   581200000524315799420000141FUJI COFFEE HOUSE      YANGON        MMR11005090435560128520509000000000000000   10300001 00104100000000009295000000000000     
100   62443100315110470000000000050000000000050000002000000010410405090934080168594777320509212909016859   1030000600030000   554100002085315799420000471DENKO BAHAN            YANGON        MMR11005090934080168590509000000000000000   10300001 00104100000000006000000000000000     
100   62911028202077010000000000004900000000004900002000000010410405100559522952524369000510000007137418   1020000200030000   333400010001204104000000281Myanmar Soft-Gate Tech Yangon        MMR11005100559522952520510000000000000000   10300001F05104100000000001029000000000000     
100   95050316997303010000000000001960000000001960002000000010410405101435560556284941570510000007140536   1020000200030000   333400010001204104000000281Myanmar Soft-Gate Tech Yangon        MMR11005101435560556280510000000000000000   10300001F05104100000000000412000000000000     
100   62443100358839880000000000098300000000098300002000000010410405101220410821409984120510364501837129   1030000300030000   555510124688104519000020166Makro Myanmar                        MMR11005101220410821400510000000000000000   10300001 00104100000000023592000000000000     
100   95050318052625040000000000050000000000050000002000000010410405080353060714442844320508212803071444   1030000600030000   554100000957315799420000480DENKO N.DAGON - 3      YANGON        MMR11005080353060714440508000000000000000   10300001 00104100000000006000000000000000     
100   95030301100126220000000000250000000000250000002000000010410405100355292529944369000510000007136414   1030000200030000   333800010001203104000003327KBZPay                 Yangon        MMR11005100355292529940510000000000000000   10300001F05104100000000052500000000000000     
100   95050312498129060000000000009500000000009500002000000010410405101210364036700069220510000007139970   1030000200030000   3333000100012031040000040282C2P (Myanmar) Co. Ltd Yangon        MMR11005101210364036700510000000000000000   10300001F05104100000000010000000000000000     
100   95030371418374890000000000100000000000100000002000000010410405100349211921614369000510000007136358   1030000500030000   333800010001201104000003863AYA Pay                Yangon        MMR11005100349211921610510000000000000000   10300001F05104100000000021000000000000000     
100   95050318400277060000000000045000000000045000002000000010410405100508033803320302640510000007137034   1030000200030000   333800010001203104000003327KBZPay                 Yangon        MMR11005100508033803320510000000000000000   10300001F05104100000000009450000000000000     
100   95050318416662540000000000002000000000002000002000000010410405100909363936380275060510000007138937   1030000200030000   333800010001203104000003327KBZPay                 Yangon        MMR11005100909363936380510000000000000000   10300001F05104100000000000420000000000000     
100   95050311077567400000000000002940000000002940002000000010410405100320115011577429100510000007136078   1020000200030000   333400010001204104000000281Myanmar Soft-Gate Tech Yangon        MMR11005100320115011570510000000000000000   10300001F05104100000000000617000000000000     
100   95050319753756490000000000030000000000030000002000000010410405101516024602638161440510000007140689   1030000200030000   333800010001203104000003327KBZPay                 Yangon        MMR11005101516024602630510000000000000000   10300001F05104100000000006300000000000000     
100   62911028202203320000000000032000000000032000002000000010410405100340016483444369000510213010648344   1040001600030000   569120000926000000010000673Generation Concept Sto Ygn           MMR11005100340016483440510000000000000000   10300001F00104100000000001920000000000000     
100   62443101023815100000000000028900000000028900002000000010410405101331120827376934440510085002031129   1030000500030000   555610114572104519000012532City Mart Ahlone Branc               MMR11005101331120827370510000000000000000   10300001 00104100000000007225000000000000     
100   95050312005798410000000000000980000000000980002000000010410405100448461846370643030510000007136903   1020000200030000   333400010001204104000000281Myanmar Soft-Gate Tech Yangon        MMR11005100448461846370510000000000000000   10300001F05104100000000000206000000000000     
100   95030301100157400000000000001960000000001960002000000010410405100256122612404369000510000007135881   1020000200030000   333400010001204104000000281Myanmar Soft-Gate Tech Yangon        MMR11005100256122612400510000000000000000   10300001F05104100000000000412000000000000     
100   62911028202474180000000000539800000000539800002000000010410405100408266678294369000510425381026129   1030000900030000   573219001177190110000000933UNIQUE Kabaraye        YANGON        MMR11005100408266678290510000000000000000   10300001F00104100000000032388000000000000     
100   95050315150726490000000000005300000000005300002000000010410405100824406733756239880510397541440129   1030000900030000   541119000115190110000000078Sein Gay Har Kan Thar  YANGONOKKALAP MMR11005100824406733750510000000000000000   10300001F00104100000000001325000000000000     
100   62443100313002190000000000030000000000030000002000000010410405081145390477038263910508212811047703   1030000600030000   554100001001315799420000498DENKO SHWE PYI THAR    YANGON        MMR11005081145390477030508000000000000000   10300001 00104100000000003600000000000000     
100   95030301100126220000000000300000000000300000002000000010410405100354262426584369000510000007136401   1030000200030000   333800010001203104000003327KBZPay                 Yangon        MMR11005100354262426580510000000000000000   10300001F05104100000000063000000000000000     
100   62911028202248050000000000041000000000041000002000000010410405060319510323904369000506212603032390   1030000600030000   554100001155315799420000607DENKO NPT 1            NAYPYITAW.    MMR11005060319510323900506000000000000000   10300001 00104100000000001230000000000000     
100   95050311382087030000000000003920000000003920002000000010410405100851312131047735960510000007138804   1020000200030000   333400010001204104000000281Myanmar Soft-Gate Tech Yangon        MMR11005100851312131040510000000000000000   10300001F05104100000000000823000000000000     
100   62443101006526980000000000002000000000002000002000000010410405100957150223043613550510000746823482   1030000200030000   541188001007000008000000008KBZ BANK               MARKETPLACE - MMR11005100957150223040510000000000000000   10300001 00104100000000000500000000000000     
100   95050319728246800000000000250000000000250000002000000010410405100239020902968620440510000007135776   1030000200030000   333800010001203104000003327KBZPay                 Yangon        MMR11005100239020902960510000000000000000   10300001F05104100000000052500000000000000     
100   62443100317500820000000000050000000000050000002000000010410405100239030903306882870510000007135777   1030000200030000   333800010001203104000003327KBZPay                 Yangon        MMR11005100239030903300510000000000000000   10300001F05104100000000010500000000000000     
100   95050315557781210000000000010000000000010000002000000010410405100022225222263904490510000007135325   1040001600030000   333800010001220104000004507A +                    Yangon        MMR11005100022225222260510000000000000000   10300001F05104100000000002100000000000000     
100   95050312675525330000000000002000000000002000002000000010410405101558022802664771380510000007140795   1030000200030000   333800010001203104000003327KBZPay                 Yangon        MMR11005101558022802660510000000000000000   10300001F05104100000000000420000000000000     
100   95050319528093960000000000002940000000002940002000000010410405101559132913306423860510000007140800   1020000200030000   333400010001204104000000281Myanmar Soft-Gate Tech Yangon        MMR11005101559132913300510000000000000000   10300001F05104100000000000617000000000000     
100   62911028202788350000000000010000000000010000002000000010410405101039370937894369000510000007139558   1030000200030000   333800010001203104000003327KBZPay                 Yangon        MMR11005101039370937890510000000000000000   10300001F05104100000000002100000000000000     
100   95050312498129060000000000009500000000009500002000000010410405100422015201831820590510000007136669   1030000200030000   3333000100012031040000040282C2P (Myanmar) Co. Ltd Yangon        MMR11005100422015201830510000000000000000   10300001F05104100000000010000000000000000     
100   62911028202717310000000000013200000000013200002000000010410405101044395912394369000510143914756132   1040001400030000   592110000079015921100000365Million Mart Million M rt No. (519/  MMR11005101044395912390510000000000000000   10300001 00104100000000000792000000000000     
100   95030301100121680000000000010000000000010000002000000010410405101144201420964369000510000007139878   1030000200030000   333800010001203104000003327KBZPay                 Yangon        MMR11005101144201420960510000000000000000   10300001F05104100000000002100000000000000     
100   62443100355445150000000000008000000000008000002000000010410405100732310784030225620510953061401129   1030000500030000   555610110599104519000009166City Mart 47 Branch                  MMR11005100732310784030510000000000000000   10300001 00104100000000002000000000000000     
100   95050315110306410000000000030000000000030000002000000010410405100239180918248535350510000007135782   1030000200030000   333800010001203104000003327KBZPay                 Yangon        MMR11005100239180918240510000000000000000   10300001F05104100000000006300000000000000     
100   62911028202908140000000000001000000000001000002000000010410405100731240124184369000510000007138083   1030000200030000   3334000100012031040000040102C2P (Myanmar) Co. Ltd Yangon        MMR11005100731240124180510000000000000000   10300001F05104100000000000210000000000000     
100   95050311419479170000000000000980000000000980002000000010410405101207383738538416730510000007139954   1020000200030000   333400010001204104000000281Myanmar Soft-Gate Tech Yangon        MMR11005101207383738530510000000000000000   10300001F05104100000000000206000000000000     
100   62911028202472440000000000050000000000050000002000000010410405100720316592224369000510213014659222   1040001600030000   598320000658000000010000527Shwe Taung Energy (YGN Yangon        MMR11005100720316592220510000000000000000   10300001F00104100000000001500000000000000     
100   95050316573091630000000000003920000000003920002000000010410405100852222222865998380510000007138815   1020000200030000   333400010001204104000000281Myanmar Soft-Gate Tech Yangon        MMR11005100852222222860510000000000000000   10300001F05104100000000000823000000000000     
100   95050312695033440000000000000980000000000980002000000010410405100044401440607634940510000007135362   1020000200030000   333400010001204104000000281Myanmar Soft-Gate Tech Yangon        MMR11005100044401440600510000000000000000   10300001F05104100000000000206000000000000     
100   95050312926040930000000000004000000000004000002000000010410405100341471147251189260510000007136277   1030000200030000   333800010001203104000003327KBZPay                 Yangon        MMR11005100341471147250510000000000000000   10300001F05104100000000000840000000000000     
100   95050313374257020000000000040320000000040320002000000010410405091741481148835642070510000007135122   1030000900030000   333800010001202104000003301uab bank               Yangon        MMR11005091741481148830510000000000000000   10300001F05104100000000008467000000000000     
100   95030314863516850000000000045000000000045000002000000010410405100615014501604369000510000007137517   1030000200030000   333800010001203104000003327KBZPay                 Yangon        MMR11005100615014501600510000000000000000   10300001F05104100000000009450000000000000     
100   62911028202492080000000000120000000000120000002000000010410405100053296411344369000510213007641134   1040001600030000   598320001170000000010000527Shwe Taung Energy (YGN Yangon        MMR11005100053296411340510000000000000000   10300001F00104100000000003600000000000000     
100   62911028202203320000000000050000000000050000002000000010410405100336106481924369000510213010648192   1040001600030000   569120000925000000010000672Generation Concept Sto Ygn           MMR11005100336106481920510000000000000000   10300001F00104100000000003000000000000000     
100   95050312498129060000000000000980000000000980002000000010410405101339440944638586930510000007140339   1020000200030000   333400010001204104000000281Myanmar Soft-Gate Tech Yangon        MMR11005101339440944630510000000000000000   10300001F05104100000000000206000000000000     
100   95050315743141220000000000000980000000000980002000000010410405101101393139945877630510000007139691   1020000200030000   333400010001204104000000281Myanmar Soft-Gate Tech Yangon        MMR11005101101393139940510000000000000000   10300001F05104100000000000206000000000000     
100   95050312498129060000000000000980000000000980002000000010410405101217414741728331640510000007139997   1020000200030000   333400010001204104000000281Myanmar Soft-Gate Tech Yangon        MMR11005101217414741720510000000000000000   10300001F05104100000000000206000000000000     
100   95050315150726490000000000000980000000000980002000000010410405101327215721575367060510000007140284   1020000200030000   333400010001204104000000281Myanmar Soft-Gate Tech Yangon        MMR11005101327215721570510000000000000000   10300001F05104100000000000206000000000000     
100   62911028202287310000000000061200000000061200002000000010410405100817496617304369000510213015661730   1040001600030000   591220000262000000010000250Shwe Ohh Pharmacy (SC- Yangon        MMR11005100817496617300510000000000000000   10300001F00104100000000003672000000000000     
100   95050315099113150000000000004900000000004900002000000010410405100846321632001126020510000007138754   1020000200030000   333400010001204104000000281Myanmar Soft-Gate Tech Yangon        MMR11005100846321632000510000000000000000   10300001F05104100000000001029000000000000     
100   95050314749068520000000000020200000000020200002000000010410405100144131413500429330510000007135503   1030000300030000   333300010001206104000001685MM Bus Ticket          Yangon        MMR11005100144131413500510000000000000000   10300001F05104100000000010000000000000000     
100   95050313396828960000000000000980000000000980002000000010410405101547421742796508960510000007140782   1020000200030000   333400010001204104000000281Myanmar Soft-Gate Tech Yangon        MMR11005101547421742790510000000000000000   10300001F05104100000000000206000000000000     
100   95050315745833530000000000100000000000100000002000000010410405100504333433073352320510000007137014   1030000200030000   333800010001203104000003327KBZPay                 Yangon        MMR11005100504333433070510000000000000000   10300001F05104100000000021000000000000000     
100   95050312498129060000000000000980000000000980002000000010410405101320265026930409600510000007140261   1020000200030000   333400010001204104000000281Myanmar Soft-Gate Tech Yangon        MMR11005101320265026930510000000000000000   10300001F05104100000000000206000000000000     
100   95050328303533000000000000005000000000005000002000000010410405100329455945392301450510000007136156   1030000200030000   3334000100012031040000040102C2P (Myanmar) Co. Ltd Yangon        MMR11005100329455945390510000000000000000   10300001F05104100000000001050000000000000     
100   62911028202700140000000000030000000000030000002000000010410405100159336442864369000510213008644286   1040001600030000   598320000326000000010000314PT Power Petrol Statio Nay Pyi Taw   MMR11005100159336442860510000000000000000   10300001F00104100000000000900000000000000     
100   95050314749068520000000000037550000000037550002000000010410405101006310803977700310510275391642129   1030000500030000   555610103976104519000003818Ocean Oattara Thiri Na PyiTaw        MMR11005101006310803970510000000000000000   10300001 00104100000000009388000000000000     
100   95030371418374890000000000050000000000050000002000000010410405100348011801064369000510000007136347   1030000500030000   333800010001201104000003863AYA Pay                Yangon        MMR11005100348011801060510000000000000000   10300001F05104100000000010500000000000000     
100   95050312498129060000000000000980000000000980002000000010410405100742461246677175940510000007138199   1020000200030000   333400010001204104000000281Myanmar Soft-Gate Tech Yangon        MMR11005100742461246670510000000000000000   10300001F05104100000000000206000000000000     
100   95050319528093960000000000001960000000001960002000000010410405100440171017359330930510000007136834   1020000200030000   333400010001204104000000281Myanmar Soft-Gate Tech Yangon        MMR11005100440171017350510000000000000000   10300001F05104100000000000412000000000000     
100   95050312210363590000000000026000000000026000002000000010410405101419314931824686280510000007140479   1030000200030000   333800010001203104000003327KBZPay                 Yangon        MMR11005101419314931820510000000000000000   10300001F05104100000000005460000000000000     
100   95050327416134790000000000002940000000002940002000000010410405101326575657308672030510000007140285   1020000200030000   333400010001204104000000281Myanmar Soft-Gate Tech Yangon        MMR11005101326575657300510000000000000000   10300001F05104100000000000617000000000000     
100   95030301100134480000000000058000000000058000002000000010410405100522126529804369000510213012652980   1040001600030000   598320001170000000010000527Shwe Taung Energy (YGN Yangon        MMR11005100522126529800510000000000000000   10300001F00104100000000001740000000000000     
100   62911028202099050000000000005600000000005600002000000010410405100839400791844369000510875091522129   1030000300030000   444410116806104519000014353BreadTalk JunctionCity               MMR11005100839400791840510000000000000000   10300001 00104100000000000571000000000000     
100   62911028202464020000000000013950000000013950002000000010410405101043060808164369000510781121723129   1030000500030000   555610110570104519000009164City Mart China Town P int Cen       MMR11005101043060808160510000000000000000   10300001 00104100000000000837000000000000     
100   95050310357533060000000000005000000000005000002000000010410405101047101710387274820510000007139601   1030000200030000   333800010001203104000003327KBZPay                 Yangon        MMR11005101047101710380510000000000000000   10300001F05104100000000001050000000000000     
100   62911028202761360000000000116630000000116630002000000010410405100906010795184369000510262361520129   1030000500030000   555610103965104519000003818Ocean Oattara Thiri Na PyiTaw        MMR11005100906010795180510000000000000000   10300001 00104100000000006998000000000000     
100   62911028202400660000000000022400000000022400002000000010410405101137250816044369000510728071843129   1030000500030000   555610104041104519000003821City Mart North Point  enter         MMR11005101137250816040510000000000000000   10300001 00104100000000001344000000000000     
100   95050326228858240000000000126530000000126530002000000010410405080202490002515347770508212802000251   1030000600030000   581200002336315799420001621SIGNATURE FINEDINING 6 YANGON        MMR11005080202490002510508000000000000000   10300001 00104100000000053776000000000000     
100   95030359617000430000000000050000000000050000002000000010410405081141260027174369000508212811002717   1030000600030000   554100002114315799420001464DENKO PATHEIN-2        AYEYARWADDY   MMR11005081141260027170508000000000000000   10300001 00104100000000001500000000000000     
100   62911028202023630000000000102000000000102000002000000010410405080535350036224369000508212805003622   1030000600030000   554100001260315799420000714DENKO LET PA TAN       LET PA TAN.   MMR11005080535350036220508000000000000000   10300001 00104100000000003060000000000000     
100   62443101061229100000000000058900000000058900002000000010410405081316150022882880980508212813002288   1030000600030000   581200001104315799420000561REDDOT RESTAURANT      YANGON        MMR11005081316150022880508000000000000000   10300001 00104100000000025033000000000000     
100   62911028202506690000000000010000000000010000002000000010410405081158480193514369000508212811019351   1030000600030000   554100002319315799420000477DENKO INSEIN           YANGON        MMR11005081158480193510508000000000000000   10300001 00104100000000000300000000000000     
100   62911028202366010000000000079000000000079000002000000010410405080104270363312726100508212801036331   1030000600030000   554100001865315799420001235DENKO NAY PYI TAW 2    NAYPYITAW     MMR11005080104270363310508000000000000000   10300001 00104100000000002370000000000000     
100   62443100302523870000000000050000000000050000002000000010410405080241040503788142170508212802050378   1030000600030000   554100000969315799420000481DENKO NORTH OKKALAPA   YANGON        MMR11005080241040503780508000000000000000   10300001 00104100000000006000000000000000     
100   62911028202417590000000000060000000000060000002000000010410405081215170405634369000508212812040563   1030000600030000   554100001106315799420000564DENKO PHYUU            PHYUU         MMR11005081215170405630508000000000000000   10300001 00104100000000001800000000000000     
100   95050316736513170000000000000980000000000980002000000010410405100643121312431082300510000007137701   1020000200030000   333400010001204104000000281Myanmar Soft-Gate Tech Yangon        MMR11005100643121312430510000000000000000   10300001F05104100000000000206000000000000     
100   95050313817486860000000000001960000000001960002000000010410405100242221222605145290510000007135790   1020000200030000   333400010001204104000000281Myanmar Soft-Gate Tech Yangon        MMR11005100242221222600510000000000000000   10300001F05104100000000000412000000000000     
100   62443100379116470000000000002940000000002940002000000010410405101541281128774856480510000007140763   1020000200030000   333400010001204104000000281Myanmar Soft-Gate Tech Yangon        MMR11005101541281128770510000000000000000   10300001F05104100000000000617000000000000     
100   95050314302558730000000000057300000000057300002000000010410405101017310805237615210510405471657129   1030000500030000   555610103467104519000003420City Mart Yankin Cente 6             MMR11005101017310805230510000000000000000   10300001 00104100000000014325000000000000     
100   95050328511810100000000000050000000000050000002000000010410405100342511251873267220510000007136274   1030000200030000   333800010001203104000003327KBZPay                 Yangon        MMR11005100342511251870510000000000000000   10300001F05104100000000010500000000000000     
100   62443100361813580000000000200000000000200000002000000010410405100409163916993983650510000007136544   1030000200030000   333800010001203104000003327KBZPay                 Yangon        MMR11005100409163916990510000000000000000   10300001F05104100000000042000000000000000     
100   95050319928585020000000000000980000000000980002000000010410405100301163116989762350510000007135910   1020000200030000   333400010001204104000000281Myanmar Soft-Gate Tech Yangon        MMR11005100301163116980510000000000000000   10300001F05104100000000000206000000000000     
100   62443100330108240000000000000980000000000980002000000010410405100304393439428109870510000007135935   1020000200030000   333400010001204104000000281Myanmar Soft-Gate Tech Yangon        MMR11005100304393439420510000000000000000   10300001F05104100000000000206000000000000     
100   62911028202471860000000000095000000000095000002000000010410405080807250268384369000508212808026838   1030000600030000   554100001116315799420000574DENKO HLAE KUU         HLAE KUU      MMR11005080807250268380508000000000000000   10300001 00104100000000002850000000000000     
100   62443101006526980000000000075000000000075000002000000010410405080009450164599163320508212800016459   1030000600030000   554100002085315799420000471DENKO BAHAN            YANGON        MMR11005080009450164590508000000000000000   10300001 00104100000000009000000000000000     
100   95030301100157400000000000002940000000002940002000000010410405100252072207524369000510000007135856   1020000200030000   333400010001204104000000281Myanmar Soft-Gate Tech Yangon        MMR11005100252072207520510000000000000000   10300001F05104100000000000617000000000000     
100   95050321232876860000000000115000000000115000002000000010410405071422460114438993130507212714011443   1030000600030000   554100002328315799420001235DENKO NAY PYI TAW 2    NAYPYITAW     MMR11005071422460114430507000000000000000   10300001 00104100000000013800000000000000     
100   62443100303702210000000000060000000000060000002000000010410405070625020400847637300507212706040084   1030000600030000   554100001009315799420000504DENKO SOUTH DAGON      YANGON        MMR11005070625020400840507000000000000000   10300001 00104100000000007200000000000000     
100   95050326228858240000000000126000000000126000002000000010410405070649340169170942270507212706016917   1030000600030000   554100001011315799420000505DENKO HTAN TA PIN      YANGON        MMR11005070649340169170507000000000000000   10300001 00104100000000015120000000000000     
100   95050329252108030000000000020000000000020000002000000010410405071508310154307681030507212715015430   1030000600030000   554100002323315799420000474DENKO N.DAGON - 1      YANGON        MMR11005071508310154300507000000000000000   10300001 00104100000000002400000000000000     
100   95030341448197210000000000040000000000040000002000000010410405070959260064064369000507212709006406   1030000600030000   554100000841315799420000373DENKO NYAUNG U         NYAUNG U      MMR11005070959260064060507000000000000000   10300001 00104100000000001200000000000000     
100   95050314307746340000000000000980000000000980002000000010410405100221515151305060190510000007135678   1020000200030000   333400010001204104000000281Myanmar Soft-Gate Tech Yangon        MMR11005100221515151300510000000000000000   10300001F05104100000000000206000000000000     
100   95050312005798410000000000000980000000000980002000000010410405100446101610906196150510000007136877   1020000200030000   333400010001204104000000281Myanmar Soft-Gate Tech Yangon        MMR11005100446101610900510000000000000000   10300001F05104100000000000206000000000000     
100   95050318203765370000000000020000000000020000002000000010410405101241041104396679150510000007140101   1030000200030000   3338000100012031040000040022C2P (Myanmar) Co. Ltd Yangon        MMR11005101241041104390510000000000000000   10300001F05104100000000004200000000000000     
100   95050312160676580000000000000979000000000979002000000010410405101500003000398246540510000007140628   1020000200030000   333400010001204104000000281Myanmar Soft-Gate Tech Yangon        MMR11005101500003000390510000000000000000   10300001F05104100000000000205000000000000     
100   95050314287403810000000000009800000000009800002000000010410405101409553955289728830510000007140446   1020000200030000   333400010001204104000000281Myanmar Soft-Gate Tech Yangon        MMR11005101409553955280510000000000000000   10300001F05104100000000002058000000000000     
100   62911028202249380000000000000980000000000980002000000010410405100217594759194369000510000007135658   1020000200030000   333400010001204104000000281Myanmar Soft-Gate Tech Yangon        MMR11005100217594759190510000000000000000   10300001F05104100000000000206000000000000     
100   95050314287403810000000000001960000000001960002000000010410405101412504250997991250510000007140453   1020000200030000   333400010001204104000000281Myanmar Soft-Gate Tech Yangon        MMR11005101412504250990510000000000000000   10300001F05104100000000000412000000000000     
100   62911028202523430000000000027950000000027950002000000010410405100352296488364369000510213010648836   1040001600030000   591220000274000000010000262Shwe Ohh Pharmacy (Shw Yangon        MMR11005100352296488360510000000000000000   10300001F00104100000000001677000000000000     
100   62911028202174450000000000015000000000015000002000000010410405070242090063634369000507212702006363   1030000600030000   554100002322315799420000497DENKO KONE TA LA PAUNG YANGON        MMR11005070242090063630507000000000000000   10300001 00104100000000000450000000000000     
100   95050322426452690000000000058000000000058000002000000010410405070334290111608644670507212703011160   1030000600030000   554100001217315799420000669DENKO PHAYAR GYI       BAGO          MMR11005070334290111600507000000000000000   10300001 00104100000000006960000000000000     
100   62443100303702210000000000500000000000500000002000000010410405070558340400742935140507212705040074   1030000600030000   554100001009315799420000504DENKO SOUTH DAGON      YANGON        MMR11005070558340400740507000000000000000   10300001 00104100000000060000000000000000     
100   95030301100126550000000000049000000000049000002000000010410405070735110503004369000507212707050300   1030000600030000   554100000969315799420000481DENKO NORTH OKKALAPA   YANGON        MMR11005070735110503000507000000000000000   10300001 00104100000000001470000000000000     
100   62443101006526980000000000080000000000080000002000000010410405070004360841414197800507212700084141   1030000600030000   554100000946315799420000471DENKO BAHAN            YANGON        MMR11005070004360841410507000000000000000   10300001 00104100000000009600000000000000     
100   62911028202308020000000000019386000000019386002000000010410405101532290040824369000510000746845024   1030000200030000   541188001057000008000000314KBZ BANK               MARKETPLACE - MMR11005101532290040820510000000000000000   10300001 00104100000000001163000000000000     
100   95030394609966640000000000003400000000003400002000000010410405101421370045864369000510000746840524   1030000200030000   541188001031000008000000298KBZ BANK               CITY MART - M MMR11005101421370045860510000000000000000   10300001 00104100000000000204000000000000     
100   95030394609966640000000000037500000000037500002000000010410405101433560045884369000510000746841366   1030000200030000   541188001031000008000000298KBZ BANK               CITY MART - M MMR11005101433560045880510000000000000000   10300001 00104100000000002250000000000000     
100   62911028202471600000000000078553000000078553002000000010410405101049170809004369000510873181745129   1030000500030000   555610110570104519000009164City Mart China Town P int Cen       MMR11005101049170809000510000000000000000   10300001 00104100000000004713000000000000     
100   62911028202099050000000000048450000000048450002000000010410405101024406686954369000510213017668695   1040001600030000   591220000266000000010000254Shwe Ohh Pharmacy (Sin Yangon        MMR11005101024406686950510000000000000000   10300001F00104100000000002907000000000000     
100   62911028202099050000000000029006000000029006002000000010410405100811556730874369000510233411455129   1030000900030000   581219000371190110000000243Jo Jo Hot Pot (Junctio YANGONN       MMR11005100811556730870510000000000000000   10300001F00104100000000002959000000000000     
100   62911028202472280000000001613100000001613100002000000010410405100758286728064369000510095281428129   1030000900030000   573219001177190110000000933UNIQUE Kabaraye        YANGON        MMR11005100758286728060510000000000000000   10300001F00104100000000096786000000000000     
100   62911028202446620000000000030194000000030194002000000010410405100619006705744369000510877491200129   1030000900030000   581219000006190110000000004Jo Jo Hot Pot Junction YANGONUT      MMR11005100619006705740510000000000000000   10300001F00104100000000003080000000000000     
100   62911028202212490000000000007700000000007700002000000010410405100417176679834369000510499471017129   1030000900030000   581219000715190110000000546Akkhaya Tea House(Dago YANGON        MMR11005100417176679830510000000000000000   10300001F00104100000000000785000000000000     
100   95030301100081330000000000020000000000020000002000000010410405101148196760684369000510213018676068   1040001600030000   598320000816000000010000589Regency Petrol Station Mdy           MMR11005101148196760680510000000000000000   10300001F00104100000000000600000000000000     
100   62911028202260570000000000031196000000031196002000000010410405100736396723274369000510825061439129   1030000900030000   541119001283190110000000963City Mart SPL C 8      YANGONMYOTHIT MMR11005100736396723270510000000000000000   10300001F00104100000000001872000000000000     
100   62911028202013730000000000013950000000013950002000000010410405101505270015564369000510000746843512   1030000200030000   541188001010000008000000008KBZ BANK               MARKETPLACE - MMR11005101505270015560510000000000000000   10300001 00104100000000000837000000000000     
100   62443100398129000000000001300000000001300000002000000010410405101444510006701551510510213021000670   1030000400030000   701120200122000003220200012AUREUM PALACE HOTEL (N RAKHINE       MMR11005101444510006700510000000000000000   10300001 00104100000000552500000000000000     
100   95050316442084030000000000004900000000004900002000000010410405100930240024549594290510000007139088   1020000200030000   333400010001204104000000281Myanmar Soft-Gate Tech Yangon        MMR11005100930240024540510000000000000000   10300001F05104100000000001029000000000000     
100   95050315166583130000000000050000000000050000002000000010410405101030490049360920180510000007139517   1030000200030000   333800010001203104000003327KBZPay                 Yangon        MMR11005101030490049360510000000000000000   10300001F05104100000000010500000000000000     
100   62911028202489110000000000006600000000006600002000000010410405100840140013544369000510000746821065   1030000200030000   541188001008000008000000008KBZ BANK               MARKETPLACE - MMR11005100840140013540510000000000000000   10300001 00104100000000000396000000000000     
100   62911028202150010000000000059600000000059600002000000010410405100747210002564369000510000746840243   1030000200030000   569988000789000008000004562KBZ BANK               LTA-IPANEMA   MMR11005100747210002560510000000000000000   10300001 00104100000000003576000000000000     
100   95050319067144780000000000033350000000033350002000000010410405101000380043920648970510000746823604   1030000200030000   541188001424000008000000401KBZ BANK               OCEAN SUPERCE MMR11005101000380043920510000000000000000   10300001 00104100000000008338000000000000     
100   62443100313112320000000000085000000000085000002000000010410405101453590006773203990510213021000677   1030000400030000   701120200122000003220200012AUREUM PALACE HOTEL (N RAKHINE       MMR11005101453590006770510000000000000000   10300001 00104100000000036125000000000000     
100   95050315150726490000000000007900000000007900002000000010410405100949276754541076580510615191627129   1030000900030000   541119000116190110000000078Sein Gay Har Kan Thar  YANGONOKKALAP MMR11005100949276754540510000000000000000   10300001F00104100000000001975000000000000     
100   62911028202308280000000000029950000000029950002000000010410405100446036685174369000510752161103129   1030000900030000   581219000528190110000000376Shwepalin (Hantharwadd YANGONUT      MMR11005100446036685170510000000000000000   10300001F00104100000000003055000000000000     
100   62911028202473840000000000057000000000057000002000000010410405101048296706664369000510213017670666   1040001600030000   591220000278000000010000266Shwe Ohh Pharmacy (Bah Yangon        MMR11005101048296706660510000000000000000   10300001F00104100000000003420000000000000     
100   62911028202423360000000000050000000000050000002000000010410405090314240003224369000509212909000322   1030000500030000   598320001603000015172200016MAX ENERGY             PTN           MMR11005090314240003220509000000000000000   10300001 00104100000000001500000000000000     
100   62911028202030150000000000033558000000033558002000000010410405091222010000744369000509212918000074   1030000500030000   581220214501000085812202145CHILLI POT MALA XIANG  PTN           MMR11005091222010000740509000000000000000   10300001 00104100000000003423000000000000     
100   62911028202296630000000000052133000000052133002000000010410405090739460004014369000509212914000401   1030000500030000   598320001601000015172200016MAX ENERGY             PTN           MMR11005090739460004010509000000000000000   10300001 00104100000000001564000000000000     
100   62911028202313470000000000050000000000050000002000000010410405090048440004164369000509212907000416   1030000500030000   598320001602000015172200016MAX ENERGY             PTN           MMR11005090048440004160509000000000000000   10300001 00104100000000001500000000000000     
100   95050312695033440000000000004900000000004900002000000010410405101335040504403629470510000007140324   1020000200030000   333400010001204104000000281Myanmar Soft-Gate Tech Yangon        MMR11005101335040504400510000000000000000   10300001F05104100000000001029000000000000     
100   62443100330108240000000000030000000000030000002000000010410405101430220022259558640510000007140522   1030000200030000   333800010001203104000003327KBZPay                 Yangon        MMR11005101430220022250510000000000000000   10300001F05104100000000006300000000000000     
100   95030394609966640000000000002000000000002000002000000010410405101443320075554369000510000746842032   1030000200030000   541188001033000008000000298KBZ BANK               CITY MART - M MMR11005101443320075550510000000000000000   10300001 00104100000000000120000000000000     
100   62911028202161240000000000035344000000035344002000000010410405101026170347864369000510000746824830   1030000200030000   541188001024000008000000298KBZ BANK               CITY MART - M MMR11005101026170347860510000000000000000   10300001 00104100000000002121000000000000     
100   95030367537085740000000000000980000000000980002000000010410405100036230623984369000510000007135350   1020000200030000   333400010001204104000000281Myanmar Soft-Gate Tech Yangon        MMR11005100036230623980510000000000000000   10300001F05104100000000000206000000000000     
100   62911028202461130000000000017900000000017900002000000010410405100702060780444369000510563361303129   1030000500030000   555610110576104519000009164City Mart China Town P int Cen       MMR11005100702060780440510000000000000000   10300001 00104100000000001074000000000000     
100   95030394609966640000000000007000000000007000002000000010410405101420300112194369000510000746840451   1030000200030000   541188001023000008000000298KBZ BANK               CITY MART - M MMR11005101420300112190510000000000000000   10300001 00104100000000000420000000000000     
100   95050313710136610000000000002940000000002940002000000010410405100634510451997607140510000007137639   1020000200030000   333400010001204104000000281Myanmar Soft-Gate Tech Yangon        MMR11005100634510451990510000000000000000   10300001F05104100000000000617000000000000     
100   62911028202489110000000000676000000000676000002000000010410405100809360278504369000510000746820504   1030000200030000   541188001012000008000000008KBZ BANK               MARKETPLACE - MMR11005100809360278500510000000000000000   10300001 00104100000000040560000000000000     
100   95030310098554020000000000066000000000066000002000000010410405091306020004214369000509212919000421   1030000500030000   598320001604000015172200016MAX ENERGY             PTN           MMR11005091306020004210509000000000000000   10300001 00104100000000001980000000000000     
100   62911028202023630000000000069000000000069000002000000010410405070324550038204369000507212703003820   1030000600030000   554100001269315799420000723DENKO GYOBINGAUK       GYOBINGAUK    MMR11005070324550038200507000000000000000   10300001 00104100000000002070000000000000     
100   95050321232876860000000000091000000000091000002000000010410405070319140362879956770507212703036287   1030000600030000   554100001865315799420001235DENKO NAY PYI TAW 2    NAYPYITAW     MMR11005070319140362870507000000000000000   10300001 00104100000000010920000000000000     
100   62911028202162640000000000020000000000020000002000000010410405070722130153654369000507212707015365   1030000600030000   554100002323315799420000474DENKO N.DAGON - 1      YANGON        MMR11005070722130153650507000000000000000   10300001 00104100000000000600000000000000     
100   95050321057500320000000000010850000000010850002000000010410405101002360803064807030510171321643129   1030000300030000   444410116809104519000014355BreadTalk CrystalTower               MMR11005101002360803060510000000000000000   10300001 00104100000000004612000000000000     
100   62443100326436660000000000059500000000059500002000000010410405101118026777312402470510050481702129   1030000900030000   541119001208190110000000948City Mart YK C 6       YANGONAUNG    MMR11005101118026777310510000000000000000   10300001F00104100000000014875000000000000     
100   62911028202304220000000000441500000000441500002000000010410405090240360000364369000509212909000036   1030000500030000   481220086401000404812200864M-9 (THEIN PHYU)       PTN           MMR11005090240360000360509000000000000000   10300001 00104100000000026490000000000000     
100   95050327192897240000000000013550000000013550002000000010410405101119056777524054950510063491705129   1030000900030000   541119000149190110000000083SeinGayHarParami Cente YANGON        MMR11005101119056777520510000000000000000   10300001F00104100000000003388000000000000     
100   95050319528093960000000000001960000000001960002000000010410405100737340734655183070510000007138148   1020000200030000   333400010001204104000000281Myanmar Soft-Gate Tech Yangon        MMR11005100737340734650510000000000000000   10300001F05104100000000000412000000000000     
100   95050312498129060000000000004900000000004900002000000010410405100337050705739706970510000007136219   1020000200030000   333400010001204104000000281Myanmar Soft-Gate Tech Yangon        MMR11005100337050705730510000000000000000   10300001F05104100000000001029000000000000     
100   95030327835334700000000000021603000000021603002000000010410405101716320148734369000510000746849890   1030000200030000   541188001242000008000000323KBZ BANK               CITY MART - I MMR11005101716320148730510000000000000000   10300001 00104100000000001296000000000000     
100   62911028202489110000000000009750000000009750002000000010410405100814420278514369000510000746820595   1030000200030000   541188001012000008000000008KBZ BANK               MARKETPLACE - MMR11005100814420278510510000000000000000   10300001 00104100000000000585000000000000     
100   95030385289348810000000000008100000000008100002000000010410405101727160104944369000510000746850431   1030000200030000   541188001189000008000000383KBZ BANK               OCEAN SUPER C MMR11005101727160104940510000000000000000   10300001 00104100000000000486000000000000     
100   95030331359799240000000000010000000000010000002000000010410405100333340334504369000510000007136192   1040001600030000   333800010001220104000004507A +                    Yangon        MMR11005100333340334500510000000000000000   10300001F05104100000000002100000000000000     
100   62911028202193670000000000087000000000087000002000000010410405101531390139504369000510000007140735   1010000100030000   333500010001212104000002840Internal Revenue Depar Yangon        MMR11005101531390139500510000000000000000   10300001F05104100000000060000000000000000     
100   95050327192897240000000000000980000000000980002000000010410405100632000200770912110510000007137624   1020000200030000   333400010001204104000000281Myanmar Soft-Gate Tech Yangon        MMR11005100632000200770510000000000000000   10300001F05104100000000000206000000000000     
100   62911028202446540000000000040000000000040000002000000010410405090141160006094369000509212908000609   1030000500030000   598320001204000015172200012MAX ENERGY             PTN           MMR11005090141160006090509000000000000000   10300001 00104100000000001200000000000000     
100   95050324411430900000000000036000000000036000002000000010410405070240180841730126960507212702084173   1030000600030000   554100000946315799420000471DENKO BAHAN            YANGON        MMR11005070240180841730507000000000000000   10300001 00104100000000004320000000000000     
100   95050311048637960000000000011500000000011500002000000010410405101102346773717530120510819321734129   1030000900030000   541119000113190110000000077Sein Gay Har Chinatown YANGON        MMR11005101102346773710510000000000000000   10300001F00104100000000002875000000000000     
100   62443100358839880000000000014900000000014900002000000010410405091500320001144074680509000344260282   1030000300030000   531100001264000000000000866CB BANK                G & G CONVENI MMR11005091500320001140509000000000000000   10300001F00104100000000003576000000000000     
100   95030308100042590000000000137000000000137000002000000010410405091124130006794369000509212917000679   1030000500030000   598320001902000015172200019MAX ENERGY             PTN           MMR11005091124130006790509000000000000000   10300001 00104100000000004110000000000000     
100   95050326228858240000000000088200000000088200002000000010410405090357070008424470230509212910000842   1030000500030000   581220089001000015812200890KRISPY KREME           PTN           MMR11005090357070008420509000000000000000   10300001 00104100000000037485000000000000     
100   62911028202335820000000000030000000000030000002000000010410405091123180053834369000509212911005383   1030000600030000   554100000744315799420000322DENKO AMARAPURA-PACHI  MANDALAY      MMR11005091123180053830509000000000000000   10300001 00104100000000000900000000000000     
100   62911028202023630000000000030000000000030000002000000010410405090702420000684369000509212913000068   1030000500030000   581220185301000085812201853M FOOD COUNT           PTN           MMR11005090702420000680509000000000000000   10300001 00104100000000003060000000000000     
100   62911028202790310000000000039950000000039950002000000010410405101517590164744369000510000746844235   1030000200030000   541188001305000008000000325KBZ BANK               CITY MART - A MMR11005101517590164740510000000000000000   10300001 00104100000000002397000000000000     
100   95050312695033440000000000004900000000004900002000000010410405101333340334681976990510000007140313   1020000200030000   333400010001204104000000281Myanmar Soft-Gate Tech Yangon        MMR11005101333340334680510000000000000000   10300001F05104100000000001029000000000000     
100   62911028202231380000000000001100000000001100002000000010410405101529230146914369000510000746844863   1030000200030000   541188001073000008000000294KBZ BANK               CITY MART - J MMR11005101529230146910510000000000000000   10300001 00104100000000000066000000000000     
100   95050310427855490000000000002940000000002940002000000010410405091935230523850684620510000007135185   1020000200030000   333400010001204104000000281Myanmar Soft-Gate Tech Yangon        MMR11005091935230523850510000000000000000   10300001F05104100000000000617000000000000     
100   95050319938772870000000000005000000000005000002000000010410405100631210121649770200510000007137621   1040001600030000   333800010001220104000004507A +                    Yangon        MMR11005100631210121640510000000000000000   10300001F05104100000000001050000000000000     
100   62911028202000450000000000004900000000004900002000000010410405100332260226064369000510000007136187   1020000200030000   333400010001204104000000281Myanmar Soft-Gate Tech Yangon        MMR11005100332260226060510000000000000000   10300001F05104100000000001029000000000000     
100   95030302100067550000000000058950000000058950002000000010410405100912010795924369000510357411542129   1030000300030000   555510124695104519000020166Makro Myanmar                        MMR11005100912010795920510000000000000000   10300001 00104100000000003537000000000000     
100   62443100313529540000000000015897000000015897002000000010410405101739040088715792540510000746850899   1030000200030000   541188001060000008000000314KBZ BANK               MARKETPLACE - MMR11005101739040088710510000000000000000   10300001 00104100000000003975000000000000     
100   95050322222444890000000000044550000000044550002000000010410405091145560009208400810509000344238613   1030000300030000   531100000747000000000000408CB BANK                CAPITAL HYPER MMR11005091145560009200509000000000000000   10300001F00104100000000010692000000000000     
100   62911028202335820000000000137000000000137000002000000010410405091126280053844369000509212911005384   1030000600030000   554100000744315799420000322DENKO AMARAPURA-PACHI  MANDALAY      MMR11005091126280053840509000000000000000   10300001 00104100000000004110000000000000     
100   62911028202231380000000000045000000000045000002000000010410405091134150005324369000509212918000532   1030000500030000   598320001403000015172200014MAX ENERGY             PTN           MMR11005091134150005320509000000000000000   10300001 00104100000000001350000000000000     
100   62443100371022130000000000062107000000062107002000000010410405091054430007100294790509212917000710   1030000500030000   598320001204000015172200012MAX ENERGY             PTN           MMR11005091054430007100509000000000000000   10300001 00104100000000007453000000000000     
100   62911028202213220000000000052000000000052000002000000010410405090328280005224369000509212909000522   1030000500030000   598320001201000015172200012MAX ENERGY             PTN           MMR11005090328280005220509000000000000000   10300001 00104100000000001560000000000000     
100   95050327243132200000000000011700000000011700002000000010410405090547320000564173570509212912000056   1030000500030000   531120155705000045311201557GAMONE PWINT           PTN           MMR11005090547320000560509000000000000000   10300001 00104100000000002808000000000000     
100   62911028202150190000000000030000000000030000002000000010410405090600340005844369000509212912000584   1030000500030000   598320001301000015172200013MAX ENERGY             PTN           MMR11005090600340005840509000000000000000   10300001 00104100000000000900000000000000     
100   62911028202112400000000000025000000000025000002000000010410405090505130007294369000509212911000729   1030000500030000   598320001404000015172200014MAX ENERGY             PTN           MMR11005090505130007290509000000000000000   10300001 00104100000000000750000000000000     
