100   62911028202463780000000000008100000000008100002000000010410405110821140894964369000511448521431130   1030000500030000   555610110581104519000009164City Mart China Town P int Cen       MMR11005110821140894960511000000000000000   10300001 00104100000000000486000000000000     
100   95030367537085740000000000000980000000000980002000000010410405110552102210484369000511000007143242   1020000200030000   333400010001204104000000281Myanmar Soft-Gate Tech Yangon        MMR11005110552102210480511000000000000000   10300001F05104100000000000206000000000000     
100   62911028202684060000000000024650000000024650002000000010410405111127090919884369000511337591753130   1030000500030000   555610104018104519000003821City Mart North Point  enter         MMR11005111127090919880511000000000000000   10300001 00104100000000001479000000000000     
100   95050321657711590000000000260000000000260000002000000010410405111155322532770218950511000007145654   1030000200030000   333800010001203104000003327KBZPay                 Yangon        MMR11005111155322532770511000000000000000   10300001F05104100000000054600000000000000     
100   62443100379321630000000000024750000000024750002000000010410405110435030867057744030511419051132130   1030000500030000   555610112256104519000010487Ocean Super Center St  ohn           MMR11005110435030867050511000000000000000   10300001 00104100000000006188000000000000     
100   95050316785465380000000000001960000000001960002000000010410405111444141414701772550511000007146299   1020000200030000   333400010001204104000000281Myanmar Soft-Gate Tech Yangon        MMR11005111444141414700511000000000000000   10300001F05104100000000000412000000000000     
100   95050327416134790000000000001960000000001960002000000010410405111344171417610375360511000007146068   1020000200030000   333400010001204104000000281Myanmar Soft-Gate Tech Yangon        MMR11005111344171417610511000000000000000   10300001F05104100000000000412000000000000     
100   95050321657711590000000000300000000000300000002000000010410405111152492249158481380511000007145643   1030000200030000   333800010001203104000003327KBZPay                 Yangon        MMR11005111152492249150511000000000000000   10300001F05104100000000063000000000000000     
100   95030301100129110000000000017000000000017000002000000010410405110926460902754369000511304561530130   1030000500030000   555610114571104519000012532City Mart Ahlone Branc               MMR11005110926460902750511000000000000000   10300001 00104100000000001020000000000000     
100   95050318125457190000000000095000000000095000002000000010410405110740191019680644430511000007144083   1030000200030000   333800010001203104000003327KBZPay                 Yangon        MMR11005110740191019680511000000000000000   10300001F05104100000000019950000000000000     
100   95050311836400730000000000140000000000140000002000000010410405110243501350756643500511000007141687   1030000200030000   333800010001203104000003327KBZPay                 Yangon        MMR11005110243501350750511000000000000000   10300001F05104100000000029400000000000000     
100   62443100328070970000000000010650000000010650002000000010410405111132020920305091310511386021811130   1030000500030000   555610104049104519000003821City Mart North Point  enter         MMR11005111132020920300511000000000000000   10300001 00104100000000002663000000000000     
100   62911028202528710000000000093200000000093200002000000010410405110732140888894369000511763021419130   1030000300030000   555510124364104519000020166Makro Myanmar                        MMR11005110732140888890511000000000000000   10300001 00104100000000005592000000000000     
100   62911028202169750000000000020000000000020000002000000010410405110853380899574369000511963311558130   1030000500030000   555610103474104519000003432City Mart Junction Zaw na 1          MMR11005110853380899570511000000000000000   10300001 00104100000000001200000000000000     
100   95050323133124350000000000020000000000020000002000000010410405110849491949990268400511000007144570   1040001600030000   333800010001220104000004507A +                    Yangon        MMR11005110849491949990511000000000000000   10300001F05104100000000004200000000000000     
100   95050319525934530000000000039800000000039800002000000010410405111245201520400205170511000007145849   1030000200030000   333800010001203104000003327KBZPay                 Yangon        MMR11005111245201520400511000000000000000   10300001F05104100000000008358000000000000     
100   95050325630928770000000000000980000000000980002000000010410405110446461646357318550511000007142729   1020000200030000   333400010001204104000000281Myanmar Soft-Gate Tech Yangon        MMR11005110446461646350511000000000000000   10300001F05104100000000000206000000000000     
100   95050315150726490000000000000980000000000980002000000010410405111351272127193680330511000007146091   1020000200030000   333400010001204104000000281Myanmar Soft-Gate Tech Yangon        MMR11005111351272127190511000000000000000   10300001F05104100000000000206000000000000     
100   62911028202284260000000000083850000000083850002000000010410405110750090890944369000511986191437130   1030000500030000   555610112233104519000010487Ocean Super Center St  ohn           MMR11005110750090890940511000000000000000   10300001 00104100000000005031000000000000     
100   95050311959900780000000000000980000000000980002000000010410405111250432043955162610511000007145880   1020000200030000   333400010001204104000000281Myanmar Soft-Gate Tech Yangon        MMR11005111250432043950511000000000000000   10300001F05104100000000000206000000000000     
100   62911028202803930000000000030000000000030000002000000010410405110156572657834369000511000007141457   1030000200030000   333800010001203104000003327KBZPay                 Yangon        MMR11005110156572657830511000000000000000   10300001F05104100000000006300000000000000     
100   62911028202829850000000000036650000000036650002000000010410405111048570913954369000511592211704130   1030000300030000   555510124365104519000020166Makro Myanmar                        MMR11005111048570913950511000000000000000   10300001 00104100000000002199000000000000     
100   62911028202631420000000000059800000000059800002000000010410405111019380910484369000511180531634130   1030000500030000   555610110570104519000009164City Mart China Town P int Cen       MMR11005111019380910480511000000000000000   10300001 00104100000000003588000000000000     
100   62911028202827610000000000040000000000040000002000000010410405111542151215554369000511000007146471   1030000200030000   333800010001203104000003327KBZPay                 Yangon        MMR11005111542151215550511000000000000000   10300001F05104100000000008400000000000000     
100   95050310101767130000000000020000000000020000002000000010410405110836140614429757820511000007144475   1030000200030000   333800010001203104000003327KBZPay                 Yangon        MMR11005110836140614420511000000000000000   10300001F05104100000000004200000000000000     
100   95030301100338180000000000025000000000025000002000000010410405111123500919734369000511318581735130   1030000500030000   555610110557104519000009163City Mart Ayeyarwon Br nch           MMR11005111123500919730511000000000000000   10300001 00104100000000001500000000000000     
100   62911028202616250000000000098200000000098200002000000010410405111209090925364369000511989381849130   1030000500030000   555610112982104519000011143Market Place by City M rt Sule       MMR11005111209090925360511000000000000000   10300001 00104100000000005892000000000000     
100   62443101006037900000000000020000000000020000002000000010410405110548061806675715510511000007143218   1030000300030000   333300010001206104000002147DICA Company Limited   Yangon        MMR11005110548061806670511000000000000000   10300001F05104100000000010000000000000000     
100   95050314775367220000000000027500000000027500002000000010410405110353032303037524400511000007142297   1030000200030000   333800010001203104000003327KBZPay                 Yangon        MMR11005110353032303030511000000000000000   10300001F05104100000000005775000000000000     
100   95050319470122050000000000030000000000030000002000000010410405111221330926918226080511196511844130   1030000500030000   555610110561104519000009163City Mart Ayeyarwon Br nch           MMR11005111221330926910511000000000000000   10300001 00104100000000007500000000000000     
100   95050310427855490000000000002940000000002940002000000010410405110546281628377453090511000007143195   1020000200030000   333400010001204104000000281Myanmar Soft-Gate Tech Yangon        MMR11005110546281628370511000000000000000   10300001F05104100000000000617000000000000     
100   62911028202661370000000000093250000000093250002000000010410405110821070894844369000511438511433130   1030000300030000   555510124692104519000020166Makro Myanmar                        MMR11005110821070894840511000000000000000   10300001 00104100000000005595000000000000     
100   95050310672555840000000000039500000000039500002000000010410405111242001200291857650511000007145838   1030000200030000   333800010001203104000003327KBZPay                 Yangon        MMR11005111242001200290511000000000000000   10300001F05104100000000008295000000000000     
100   62911028202465920000000000007100000000007100002000000010410405110515290871374369000511872451117130   1030000500030000   555610110574104519000009164City Mart China Town P int Cen       MMR11005110515290871370511000000000000000   10300001 00104100000000000426000000000000     
100   62911028202803930000000000020000000000020000002000000010410405111151422142184369000511000007145639   1030000200030000   333800010001203104000003327KBZPay                 Yangon        MMR11005111151422142180511000000000000000   10300001F05104100000000004200000000000000     
100   62443100315110470000000000233000000000233000002000000010410405110647186915504537960511584171318130   1030000900030000   573219001177190110000000933UNIQUE Kabaraye        YANGON        MMR11005110647186915500511000000000000000   10300001F00104100000000055920000000000000     
100   62911028202019440000000000010000000000010000002000000010410405110700056918464369000511755301305130   1030000900030000   541119001267190110000000958City Mart PLST C 10    YANGONMYOTHIT MMR11005110700056918460511000000000000000   10300001F00104100000000000600000000000000     
100   95050325139996190000000000003300000000003300002000000010410405110304093409909948470511000007141812   1030000200030000   333300010001203104000003632Myanmar Tradenet Test  Yangon        MMR11005110304093409900511000000000000000   10300001F05104100000000010000000000000000     
100   95050319528093960000000000001960000000001960002000000010410405111505583558587325680511000007146360   1020000200030000   333400010001204104000000281Myanmar Soft-Gate Tech Yangon        MMR11005111505583558580511000000000000000   10300001F05104100000000000412000000000000     
100   95050319161596230000000000000980000000000980002000000010410405110308083808385155500511000007141875   1020000200030000   333400010001204104000000281Myanmar Soft-Gate Tech Yangon        MMR11005110308083808380511000000000000000   10300001F05104100000000000206000000000000     
100   62911028202216940000000000041000000000041000002000000010410405061028340198364369000506212610019836   1030000600030000   809900000537315799420000147GRAND HANTHA HOSPITAL  YANGON        MMR11005061028340198360506000000000000000   10300001 00104100000000002460000000000000     
100   95050326228858240000000000276200000000276200002000000010410405101256010057728757120510213012005772   1030000600030000   581200000719315799420000302BEAUTY IN THE POT      YANGON        MMR11005101256010057720510000000000000000   10300001 00104100000000117385000000000000     
100   62911028202088990000000000020000000000020000002000000010410405100158130051964369000510213001005196   1030000600030000   554100001211315799420000663DENKO  TETKONE         TETKONE       MMR11005100158130051960510000000000000000   10300001 00104100000000000600000000000000     
100   62911028202527800000000000040000000000040000002000000010410405101129460005944369000510213017000594   1030000500030000   598320001602000015172200016MAX ENERGY             PTN           MMR11005101129460005940510000000000000000   10300001 00104100000000001200000000000000     
100   95030301100134480000000000080150000000080150002000000010410405100430160005034369000510213011000503   1030000500030000   503920036610000015039200366PRO-1 HOME CENTER      PTN           MMR11005100430160005030510000000000000000   10300001 00104100000000004809000000000000     
100   62911028202527490000000000053000000000053000002000000010410405101149060006244369000510213018000624   1030000500030000   598320041903000055983200419MAX ENERGY             PTN           MMR11005101149060006240510000000000000000   10300001 00104100000000001590000000000000     
100   62911028202135350000000000035000000000035000002000000010410405100347300002394369000510213010000239   1030000500030000   598320001501000015172200015MAX ENERGY             PTN           MMR11005100347300002390510000000000000000   10300001 00104100000000001050000000000000     
100   95050325646370920000000000100000000000100000002000000010410405110325485548465240590511000007142056   1030000200030000   333800010001203104000003327KBZPay                 Yangon        MMR11005110325485548460511000000000000000   10300001F05104100000000021000000000000000     
100   62911028202019440000000000017119000000017119002000000010410405110657066917904369000511724271306130   1030000900030000   541119001263190110000000958City Mart PLST C 6     YANGONMYOTHIT MMR11005110657066917900511000000000000000   10300001F00104100000000001027000000000000     
100   95050319528093960000000000000980000000000980002000000010410405111321135113636900200511000007145990   1020000200030000   333400010001204104000000281Myanmar Soft-Gate Tech Yangon        MMR11005111321135113630511000000000000000   10300001F05104100000000000206000000000000     
100   62911028202132460000000000036950000000036950002000000010410405110309056866994369000511970390905130   1030000900030000   591219000609190110000000449Shwe Ohh Pharmacy St-3 YANGONAUNG    MMR11005110309056866990511000000000000000   10300001F00104100000000002217000000000000     
100   95050314570621780000000000001960000000001960002000000010410405111200433043023523920511000007145674   1020000200030000   333400010001204104000000281Myanmar Soft-Gate Tech Yangon        MMR11005111200433043020511000000000000000   10300001F05104100000000000412000000000000     
100   62911028202192270000000000029000000000029000002000000010410405110424375437084369000511000007142561   1030000200030000   333800010001203104000003327KBZPay                 Yangon        MMR11005110424375437080511000000000000000   10300001F05104100000000006090000000000000     
100   62911028202150190000000005000000000005000000002000000010410405110817266935794369000511735471426130   1030000900030000   701119000072190110000000024Lotte Hotel            YANGON        MMR11005110817266935790511000000000000000   10300001F00104100000000510000000000000000     
100   95050318741700180000000000000980000000000980002000000010410405111452092209060120070511000007146324   1020000200030000   333400010001204104000000281Myanmar Soft-Gate Tech Yangon        MMR11005111452092209060511000000000000000   10300001F05104100000000000206000000000000     
100   62911028202287980000000000040000000000040000002000000010410405100510070008484369000510213011000848   1030000500030000   598320001902000015172200019MAX ENERGY             PTN           MMR11005100510070008480510000000000000000   10300001 00104100000000001200000000000000     
100   62911028202203320000000000122970000000122970002000000010410405100328340000974369000510213009000097   1030000500030000   531120201602000085311202016STJ BLAZON             PTN           MMR11005100328340000970510000000000000000   10300001 00104100000000007378000000000000     
100   95030333409030400000000000200000000000200000002000000010410405101128470000144369000510213017000014   1030000500030000   804320041401000018043200414ZEEKWEK EYEWEAR        PTN           MMR11005101128470000140510000000000000000   10300001 00104100000000012000000000000000     
100   62911028202595200000000000059700000000059700002000000010410405100656440007434369000510213013000743   1030000500030000   806220172402013008062201724GRAND HANTHA HOSPITAL  PTN           MMR11005100656440007430510000000000000000   10300001 00104100000000003582000000000000     
100   62911028202492990000000000011500000000011500002000000010410405101230410006094369000510213019000609   1030000500030000   598320001602000015172200016MAX ENERGY             PTN           MMR11005101230410006090510000000000000000   10300001 00104100000000000345000000000000     
100   62911028202203320000000000223200000000223200002000000010410405100429260000654369000510213010000065   1030000500030000   531120201603000085311202016STJ BLAZON             PTN           MMR11005100429260000650510000000000000000   10300001 00104100000000013392000000000000     
100   95050324411430900000000000500000000000500000002000000010410405101011190001605962730510213016000160   1030000500030000   481220073201005904812200732TECHNOLAND COMPUTER TR PTN           MMR11005101011190001600510000000000000000   10300001 00104100000000120000000000000000     
100   62911028202185590000000000030000000000030000002000000010410405100928190004874369000510213015000487   1030000500030000   598320068303000055983200683MAX ENERGY             PTN           MMR11005100928190004870510000000000000000   10300001 00104100000000000900000000000000     
100   95050313123223200000000000000980000000000980002000000010410405110007463746242707200511000007141188   1020000200030000   333400010001204104000000281Myanmar Soft-Gate Tech Yangon        MMR11005110007463746240511000000000000000   10300001F05104100000000000206000000000000     
100   95050311959900780000000000001960000000001960002000000010410405111324085408666985290511000007146003   1020000200030000   333400010001204104000000281Myanmar Soft-Gate Tech Yangon        MMR11005111324085408660511000000000000000   10300001F05104100000000000412000000000000     
100   95050312695033440000000000000980000000000980002000000010410405110613144314480346370511000007143414   1020000200030000   333400010001204104000000281Myanmar Soft-Gate Tech Yangon        MMR11005110613144314480511000000000000000   10300001F05104100000000000206000000000000     
100   95050315743141220000000000000980000000000980002000000010410405110421505150411559580511000007142534   1020000200030000   333400010001204104000000281Myanmar Soft-Gate Tech Yangon        MMR11005110421505150410511000000000000000   10300001F05104100000000000206000000000000     
100   62911028202116530000000000065550000000065550002000000010410405110442366886584369000511978121136130   1030000900030000   541119000124190110000000080Sein Gay Har BAK       YANGONADA     MMR11005110442366886580511000000000000000   10300001F00104100000000003933000000000000     
100   95050310553090700000000000009000000000009000002000000010410405110552306902038935390511791221230130   1030000900030000   541119000122190110000000080Sein Gay Har BAK       YANGONADA     MMR11005110552306902030511000000000000000   10300001F00104100000000002250000000000000     
100   62911028202157460000000000097000000000097000002000000010410405110853476944484369000511262231547130   1030000900030000   569119001496190110000001090Next Generation GCS JC YANGONN       MMR11005110853476944480511000000000000000   10300001F00104100000000005820000000000000     
100   95030321100003180000000000010490000000010490002000000010410405110854286944604369000511269241528130   1030000900030000   541119001260190110000000958City Mart PLST C 3     YANGONMYOTHIT MMR11005110854286944600511000000000000000   10300001F00104100000000000629000000000000     
100   62443101037081820000000000065000000000065000002000000010410405100445010007481153610510213011000748   1030000500030000   598320001402000015172200014MAX ENERGY             PTN           MMR11005100445010007480510000000000000000   10300001 00104100000000007800000000000000     
100   62911028202680670000000000042000000000042000002000000010410405100609430008584369000510213012000858   1030000500030000   598320001302000015172200013MAX ENERGY             PTN           MMR11005100609430008580510000000000000000   10300001 00104100000000001260000000000000     
100   95050317333821270000000000005200000000005200002000000010410405101031320000714650630510213017000071   1030000500030000   541120025401022205411200254ORANGE 2(MDY)          PTN           MMR11005101031320000710510000000000000000   10300001 00104100000000001300000000000000     
100   95050322921717110000000000020000000000020000002000000010410405100120570005210174040510213007000521   1030000500030000   598320001602000015172200016MAX ENERGY             PTN           MMR11005100120570005210510000000000000000   10300001 00104100000000002400000000000000     
100   62911028202595200000000000005500000000005500002000000010410405100701330007444369000510213013000744   1030000500030000   806220172402013008062201724GRAND HANTHA HOSPITAL  PTN           MMR11005100701330007440510000000000000000   10300001 00104100000000000330000000000000     
100   95030308100042590000000000073000000000073000002000000010410405100631410011824369000510213013001182   1030000500030000   598320001701000015172200017MAX ENERGY             PTN           MMR11005100631410011820510000000000000000   10300001 00104100000000002190000000000000     
100   62443101006037900000000000050000000000050000002000000010410405100508530009423281020510213011000942   1030000500030000   598320002801000015172200028MAX ENERGY             PTN           MMR11005100508530009420510000000000000000   10300001 00104100000000006000000000000000     
100   95050324154190880000000000039000000000039000002000000010410405101144200005986764250510213018000598   1030000500030000   598320001602000015172200016MAX ENERGY             PTN           MMR11005101144200005980510000000000000000   10300001 00104100000000004680000000000000     
100   95050310427855490000000000005880000000005880002000000010410405110206063606410288850511000007141500   1020000200030000   333400010001204104000000281Myanmar Soft-Gate Tech Yangon        MMR11005110206063606410511000000000000000   10300001F05104100000000001235000000000000     
100   95050319006804440000000000000980000000000980002000000010410405111411164116324992420511000007146166   1020000200030000   333400010001204104000000281Myanmar Soft-Gate Tech Yangon        MMR11005111411164116320511000000000000000   10300001F05104100000000000206000000000000     
100   95050316818236190000000000001960000000001960002000000010410405111017404740908942510511000007145192   1020000200030000   333400010001204104000000281Myanmar Soft-Gate Tech Yangon        MMR11005111017404740900511000000000000000   10300001F05104100000000000412000000000000     
100   62911028202915800000000000010200000000010200002000000010410405110913386948724369000511507431538130   1030000900030000   541119000132190110000000083SeinGayHarParami Cente YANGONOKKALAP MMR11005110913386948720511000000000000000   10300001F00104100000000000612000000000000     
100   62911028202788350000000000010000000000010000002000000010410405111102573257204369000511000007145431   1030000200030000   333800010001203104000003327KBZPay                 Yangon        MMR11005111102573257200511000000000000000   10300001F05104100000000002100000000000000     
100   62443100330108240000000000002940000000002940002000000010410405111409283928351687450511000007146155   1020000200030000   333400010001204104000000281Myanmar Soft-Gate Tech Yangon        MMR11005111409283928350511000000000000000   10300001F05104100000000000617000000000000     
100   95050312618592720000000000010000000000010000002000000010410405110618174817378608790511000007143451   1030000200030000   333800010001203104000003327KBZPay                 Yangon        MMR11005110618174817370511000000000000000   10300001F05104100000000002100000000000000     
100   62443101025940470000000000300000000000300000002000000010410405110017174717287749750511000007141195   1030000200030000   333800010001203104000003327KBZPay                 Yangon        MMR11005110017174717280511000000000000000   10300001F05104100000000063000000000000000     
100   95050316901496590000000000004850000000004850002000000010410405100937580000496204230510213016000049   1030000500030000   541120045801009205411200458126 STORE              PTN           MMR11005100937580000490510000000000000000   10300001 00104100000000001213000000000000     
100   62911028202225850000000000032375000000032375002000000010410405100329080000634369000510213009000063   1030000500030000   581320000701000055813200007GOURMET STUDIO         PTN           MMR11005100329080000630510000000000000000   10300001 00104100000000003302000000000000     
100   95050311883152260000000000036990000000036990002000000010410405100433150000323316670510213011000032   1030000500030000   531120201507000085311202015HAGL BLAZON            PTN           MMR11005100433150000320510000000000000000   10300001 00104100000000008878000000000000     
100   95050319789172490000000000025000000000025000002000000010410405101335400492741891900510213013049274   1030000600030000   554100001756315799420001137DENKO NORTH DAGON 2    YANGON        MMR11005101335400492740510000000000000000   10300001 00104100000000003000000000000000     
100   95050321232876860000000000066000000000066000002000000010410405100503160116521784930510213005011652   1030000600030000   554100002328315799420001235DENKO NAY PYI TAW 2    NAYPYITAW     MMR11005100503160116520510000000000000000   10300001 00104100000000007920000000000000     
100   95050329252108030000000000020000000000020000002000000010410405101345370636503033800510213013063650   1030000600030000   554100000952315799420000474DENKO N.DAGON - 1      YANGON        MMR11005101345370636500510000000000000000   10300001 00104100000000002400000000000000     
100   95050321232876860000000000085000000000085000002000000010410405100316240365342556740510213003036534   1030000600030000   554100001865315799420001235DENKO NAY PYI TAW 2    NAYPYITAW     MMR11005100316240365340510000000000000000   10300001 00104100000000010200000000000000     
100   95030301100124400000000000046000000000046000002000000010410405101026100720054369000510213010072005   1030000600030000   554100000957315799420000480DENKO N.DAGON - 3      YANGON        MMR11005101026100720050510000000000000000   10300001 00104100000000001380000000000000     
100   95050310553090700000000000026400000000026400002000000010410405110530406897011268640511532001240130   1030000900030000   541119000124190110000000080Sein Gay Har BAK       YANGONADA     MMR11005110530406897010511000000000000000   10300001F00104100000000006600000000000000     
100   95050314635839930000000000025100000000025100002000000010410405110955206959658602120511196251620130   1030000900030000   541119000112190110000000077Sein Gay Har Chinatown YANGON        MMR11005110955206959650511000000000000000   10300001F00104100000000006275000000000000     
100   62443100330108240000000000001960000000001960002000000010410405111406463646239949880511000007146147   1020000200030000   333400010001204104000000281Myanmar Soft-Gate Tech Yangon        MMR11005111406463646230511000000000000000   10300001F05104100000000000412000000000000     
100   95050319703729630000000000300000000000300000002000000010410405110620435043191913760511000007143473   1030000200030000   333800010001203104000003327KBZPay                 Yangon        MMR11005110620435043190511000000000000000   10300001F05104100000000063000000000000000     
100   95050316818236190000000000000980000000000980002000000010410405111023395339722332570511000007145220   1020000200030000   333400010001204104000000281Myanmar Soft-Gate Tech Yangon        MMR11005111023395339720511000000000000000   10300001F05104100000000000206000000000000     
100   62911028202031710000000000038300000000038300002000000010410405110713556921494369000511921431355130   1030000900030000   541119001189190110000000942City Mart HDC C 4      YANGONUT      MMR11005110713556921490511000000000000000   10300001F00104100000000002298000000000000     
100   62911028202284260000000000098000000000098000002000000010410405110851126944034369000511237211512130   1030000900030000   541119001081190110000000872Sein Gay Har Hledan    YANGONUT      MMR11005110851126944030511000000000000000   10300001F00104100000000005880000000000000     
100   95030348493377970000000000720000000000720000002000000010410405110949326957984369000511095191632130   1030000900030000   541119000164190110000000084Pro (1) Global (Pazund YANGONARTAUNG MMR11005110949326957980511000000000000000   10300001F00104100000000043200000000000000     
100   95030301100121270000000000030000000000030000002000000010410405101031046692124369000510213017669212   1040001600030000   598320000918000000010000665MMTM - Thingangyun     Ygn           MMR11005101031046692120510000000000000000   10300001F00104100000000000900000000000000     
100   62443100300743690000000000025900000000025900002000000010410405101341436857910239410510213020685791   1040001600030000   541120000584000000010000465Ocean Shwe Gone Daing  Yangon        MMR11005101341436857910510000000000000000   10300001F00104100000000006475000000000000     
100   62911028202693960000000000040550000000040550002000000010410405091032150000414369000509212917000041   1030000500030000   591220012201014405912200122SHWE OHH PHARMACY      PTN           MMR11005091032150000410509000000000000000   10300001 00104100000000002433000000000000     
100   62911028202500810000000000026400000000026400002000000010410405091045260199664369000509212910019966   1030000600030000   809900000537315799420000147GRAND HANTHA HOSPITAL  YANGON        MMR11005091045260199660509000000000000000   10300001 00104100000000001584000000000000     
100   95050312781844250000000000003000000000003000002000000010410405111156032603745176410511000007145657   1030000200030000   3334000100012031040000040102C2P (Myanmar) Co. Ltd Yangon        MMR11005111156032603740511000000000000000   10300001F05104100000000000630000000000000     
100   95050317003064220000000000000980000000000980002000000010410405110357122712987779690511000007142329   1020000200030000   333400010001204104000000281Myanmar Soft-Gate Tech Yangon        MMR11005110357122712980511000000000000000   10300001F05104100000000000206000000000000     
100   95030339867270590000000000014185000000014185002000000010410405110500280870104369000511740331159130   1030000500030000   555610118964104519000016137City Mart South Okkala WZYD BR       MMR11005110500280870100511000000000000000   10300001 00104100000000000851000000000000     
100   62443100372718280000000000034000000000034000002000000010410405100111510046185216590510213007004618   1030000500030000   598320001903000015172200019MAX ENERGY             PTN           MMR11005100111510046180510000000000000000   10300001 00104100000000004080000000000000     
100   95050313843656520000000000000980000000000980002000000010410405110106123612231310010511000007141268   1020000200030000   333400010001204104000000281Myanmar Soft-Gate Tech Yangon        MMR11005110106123612230511000000000000000   10300001F05104100000000000206000000000000     
100   95030393174848800000000000061650000000061650002000000010410405110340106873184369000511273101010130   1030000900030000   541119001083190110000000872Sein Gay Har Hledan    YANGONUT      MMR11005110340106873180511000000000000000   10300001F00104100000000003699000000000000     
100   95030348493377970000000000119900000000119900002000000010410405110903386946374369000511363331538130   1030000900030000   541119000162190110000000084Pro (1) Global (Pazund YANGONARTAUNG MMR11005110903386946370511000000000000000   10300001F00104100000000007194000000000000     
100   95050317003048070000000000100000000000100000002000000010410405110329195919793588110511000007142066   1030000200030000   333800010001203104000003327KBZPay                 Yangon        MMR11005110329195919790511000000000000000   10300001F05104100000000021000000000000000     
100   62911028202284260000000000037500000000037500002000000010410405110900326945664369000511317301532130   1030000900030000   541119001081190110000000872Sein Gay Har Hledan    YANGONUT      MMR11005110900326945660511000000000000000   10300001F00104100000000002250000000000000     
100   95050310427855490000000000000980000000000980002000000010410405110209083908331941340511000007141513   1020000200030000   333400010001204104000000281Myanmar Soft-Gate Tech Yangon        MMR11005110209083908330511000000000000000   10300001F05104100000000000206000000000000     
100   95030393174848800000000000120700000000120700002000000010410405110416556881024369000511685461055130   1030000900030000   541119001074190110000000872Sein Gay Har Hledan    YANGONUT      MMR11005110416556881020511000000000000000   10300001F00104100000000007242000000000000     
100   62911028202915800000000000006800000000006800002000000010410405110921236950524369000511613511523130   1030000900030000   541119000138190110000000083SeinGayHarParami Cente YANGON        MMR11005110921236950520511000000000000000   10300001F00104100000000000408000000000000     
100   62911028202193670000000000030000000000030000002000000010410405100955510004814369000510213016000481   1030000500030000   598320001603000015172200016MAX ENERGY             PTN           MMR11005100955510004810510000000000000000   10300001 00104100000000000900000000000000     
100   95030353305053700000000000035000000000035000002000000010410405110506053605054369000511000007142881   1030000900030000   333400010001202104000002022ACS                    Yangon        MMR11005110506053605050511000000000000000   10300001F05104100000000007350000000000000     
100   95050312549035820000000000035000000000035000002000000010410405111356452645018297390511000007146109   1030000200030000   333800010001203104000003327KBZPay                 Yangon        MMR11005111356452645010511000000000000000   10300001F05104100000000007350000000000000     
100   62911028202204800000000000018550000000018550002000000010410405111150570180624369000511000746877926   1030000200030000   541188001082000008000000294KBZ BANK               CITY MART - J MMR11005111150570180620511000000000000000   10300001 00104100000000001113000000000000     
100   62911028202790310000000000056004000000056004002000000010410405100421080004584369000510213010000458   1030000500030000   598320001604000015172200016MAX ENERGY             PTN           MMR11005100421080004580510000000000000000   10300001 00104100000000001680000000000000     
100   95050312520116690000000000002100000000002100002000000010410405100840190000207821060510000344376080   1030000300030000   591200000169000000000000084CB BANK                MEDICARE STOR MMR11005100840190000200510000000000000000   10300001F00104100000000000504000000000000     
100   62911028202169750000000000035400000000035400002000000010410405110426420866114369000511318571036130   1030000500030000   555610118967104519000016137City Mart South Okkala WZYD BR       MMR11005110426420866110511000000000000000   10300001 00104100000000002124000000000000     
100   95050323282717740000000000009000000000009000002000000010410405100457080002600132450510213011000260   1030000500030000   591220014201014405912200142SHWE OHH PHARMACY      PTN           MMR11005100457080002600510000000000000000   10300001 00104100000000002160000000000000     
100   62911028202679290000000000014085000000014085002000000010410405111401403140934369000511000007146127   1030000200030000   333800010001203104000003327KBZPay                 Yangon        MMR11005111401403140930511000000000000000   10300001F05104100000000002958000000000000     
100   95030301100129110000000000300000000000300000002000000010410405111403303330014369000511000007146138   1030000200030000   333800010001203104000003327KBZPay                 Yangon        MMR11005111403303330010511000000000000000   10300001F05104100000000063000000000000000     
100   95050311926829590000000000000980000000000980002000000010410405111410004000070034970511000007146164   1020000200030000   333400010001204104000000281Myanmar Soft-Gate Tech Yangon        MMR11005111410004000070511000000000000000   10300001F05104100000000000206000000000000     
100   62443101025940470000000000300000000000300000002000000010410405110019234923189402230511000007141197   1030000200030000   333800010001203104000003327KBZPay                 Yangon        MMR11005110019234923180511000000000000000   10300001F05104100000000063000000000000000     
100   62911028202616250000000000719000000000719000002000000010410405110633586912294369000511403031358130   1030000900030000   573219001009190110000000814LG Myanmar Plaza LG MP YANGON        MMR11005110633586912290511000000000000000   10300001F00104100000000043140000000000000     
100   95050319220344710000000000004900000000004900002000000010410405111105043504924410540511000007145439   1020000200030000   333400010001204104000000281Myanmar Soft-Gate Tech Yangon        MMR11005111105043504920511000000000000000   10300001F05104100000000001029000000000000     
100   95050312695033440000000000002940000000002940002000000010410405110807323732545942270511000007144292   1020000200030000   333400010001204104000000281Myanmar Soft-Gate Tech Yangon        MMR11005110807323732540511000000000000000   10300001F05104100000000000617000000000000     
100   95050325139996190000000000003300000000003300002000000010410405110308023802290112950511000007141869   1030000200030000   333300010001203104000003632Myanmar Tradenet Test  Yangon        MMR11005110308023802290511000000000000000   10300001F05104100000000010000000000000000     
100   95050316949180000000000000000980000000000980002000000010410405111536520652442283130511000007146457   1020000200030000   333400010001204104000000281Myanmar Soft-Gate Tech Yangon        MMR11005111536520652440511000000000000000   10300001F05104100000000000206000000000000     
100   95050319528093960000000000000980000000000980002000000010410405111323055305088637780511000007145997   1020000200030000   333400010001204104000000281Myanmar Soft-Gate Tech Yangon        MMR11005111323055305080511000000000000000   10300001F05104100000000000206000000000000     
100   62443100364681690000000001000000000001000000002000000010410405110426275627784779450511000007142554   1040001600030000   333800010001220104000004507A +                    Yangon        MMR11005110426275627780511000000000000000   10300001F05104100000000210000000000000000     
100   95050311121153200000000000000980000000000980002000000010410405111429495949203339940511000007146225   1020000200030000   333400010001204104000000281Myanmar Soft-Gate Tech Yangon        MMR11005111429495949200511000000000000000   10300001F05104100000000000206000000000000     
100   62911028202421380000000000050000000000050000002000000010410405100435360014174369000510213011001417   1030000500030000   598320001904000015172200019MAX ENERGY             PTN           MMR11005100435360014170510000000000000000   10300001 00104100000000001500000000000000     
100   95050312520116690000000000009695000000009695002000000010410405100834370000187480670510000344375352   1030000300030000   591200000169000000000000084CB BANK                MEDICARE STOR MMR11005100834370000180510000000000000000   10300001F00104100000000002327000000000000     
100   62443101025940470000000000300000000000300000002000000010410405110021205120494785170511000007141201   1030000200030000   333800010001203104000003327KBZPay                 Yangon        MMR11005110021205120490511000000000000000   10300001F05104100000000063000000000000000     
100   62443100358839880000000000024950000000024950002000000010410405110804010279117324270511000746866869   1030000200030000   541188001012000008000000008KBZ BANK               MARKETPLACE - MMR11005110804010279110511000000000000000   10300001 00104100000000006238000000000000     
100   95050319703729630000000000200000000000200000002000000010410405110622095209733055660511000007143492   1030000200030000   333800010001203104000003327KBZPay                 Yangon        MMR11005110622095209730511000000000000000   10300001F05104100000000042000000000000000     
100   95050318057347910000000000000980000000000980002000000010410405111125415541807800600511000007145520   1020000200030000   333400010001204104000000281Myanmar Soft-Gate Tech Yangon        MMR11005111125415541800511000000000000000   10300001F05104100000000000206000000000000     
100   95050316067768680000000000300000000000300000002000000010410405110728165816440474240511000007143993   1030000200030000   333800010001203104000003327KBZPay                 Yangon        MMR11005110728165816440511000000000000000   10300001F05104100000000063000000000000000     
100   62443100315110470000000000032000000000032000002000000010410405110656356917673225860511710261335130   1030000900030000   573219001177190110000000933UNIQUE Kabaraye        YANGON        MMR11005110656356917670511000000000000000   10300001F00104100000000007680000000000000     
100   95050314557307430000000000003920000000003920002000000010410405111217284728483183540511000007145734   1020000200030000   333400010001204104000000281Myanmar Soft-Gate Tech Yangon        MMR11005111217284728480511000000000000000   10300001F05104100000000000823000000000000     
100   62443100379321630000000000019778000000019778002000000010410405111221396993546573600511406511839130   1030000900030000   581219000371190110000000243Jo Jo Hot Pot (Junctio YANGONN       MMR11005111221396993540511000000000000000   10300001F00104100000000008406000000000000     
100   62911028202471600000000000048250000000048250002000000010410405110905577286924369000511213116728692   1040001600030000   591220000276000000010000264Shwe Ohh Pharmacy (YGH Yangon        MMR11005110905577286920511000000000000000   10300001F00104100000000002895000000000000     
100   62911028202290100000000000040000000000040000002000000010410405111225366994574369000511486551836130   1030000900030000   554119000345190110000000212New Day Energy PZD     YANGONAUNG    MMR11005111225366994570511000000000000000   10300001F00104100000000001200000000000000     
100   95050325455962190000000000000980000000000980002000000010410405111430580058065077520511000007146233   1020000200030000   333400010001204104000000281Myanmar Soft-Gate Tech Yangon        MMR11005111430580058060511000000000000000   10300001F05104100000000000206000000000000     
100   62911028202284260000000000031500000000031500002000000010410405101112230003754369000510213017000375   1030000500030000   806220172403013008062201724GRAND HANTHA HOSPITAL  PTN           MMR11005101112230003750510000000000000000   10300001 00104100000000001890000000000000     
100   95050313843656520000000000010100000000010100002000000010410405111037400912599708380511447111701130   1030000300030000   555510120536104519000017435Art and T8                           MMR11005111037400912590511000000000000000   10300001 00104100000000002424000000000000     
100   95050316717221100000000000000980000000000980002000000010410405110316184618173758300511000007141972   1020000200030000   333400010001204104000000281Myanmar Soft-Gate Tech Yangon        MMR11005110316184618170511000000000000000   10300001F05104100000000000206000000000000     
100   62911028202313470000000000029800000000029800002000000010410405111347180007044369000511000746885878   1030000200030000   594388001708000008000001175KBZ BANK               SHWE KYARR    MMR11005111347180007040511000000000000000   10300001 00104100000000001788000000000000     
100   62911028202175770000000000150029000000150029002000000010410405111704380230514369000511000746896816   1030000200030000   541188001003000008000000008KBZ BANK               MARKETPLACE - MMR11005111704380230510511000000000000000   10300001 00104100000000009002000000000000     
100   95050310719071210000000000098000000000098000002000000010410405111728560041219367990511000746897778   1030000200030000   541188001428000008000000401KBZ BANK               OCEAN SUPERCE MMR11005111728560041210511000000000000000   10300001 00104100000000024500000000000000     
100   95050316067768680000000000170000000000170000002000000010410405110731300130053949410511000007144019   1030000200030000   333800010001203104000003327KBZPay                 Yangon        MMR11005110731300130050511000000000000000   10300001F05104100000000035700000000000000     
100   62911028202158290000000000029450000000029450002000000010410405110407567138374369000511213111713837   1040001600030000   591220000276000000010000264Shwe Ohh Pharmacy (YGH Yangon        MMR11005110407567138370511000000000000000   10300001F00104100000000001767000000000000     
100   62911028202154720000000000090002000000090002002000000010410405110941287304854369000511213116730485   1040001600030000   598320000658000000010000527Shwe Taung Energy (YGN Yangon        MMR11005110941287304850511000000000000000   10300001F00104100000000002700000000000000     
100   95050317942168830000000000004900000000004900002000000010410405111348371837525332810511000007146080   1020000200030000   333400010001204104000000281Myanmar Soft-Gate Tech Yangon        MMR11005111348371837520511000000000000000   10300001F05104100000000001029000000000000     
100   62911028202000450000000000004900000000004900002000000010410405110850372037004369000511000007144580   1020000200030000   333400010001204104000000281Myanmar Soft-Gate Tech Yangon        MMR11005110850372037000511000000000000000   10300001F05104100000000001029000000000000     
100   62911028202289130000000000029000000000029000002000000010410405110900117284014369000511213116728401   1040001600030000   598320001170000000010000527Shwe Taung Energy (YGN Yangon        MMR11005110900117284010511000000000000000   10300001F00104100000000000870000000000000     
100   62911028202169750000000000043800000000043800002000000010410405110404187136884369000511213111713688   1040001600030000   591220000273000000010000261Shwe Ohh Pharmacy (WZY Yangon        MMR11005110404187136880511000000000000000   10300001F00104100000000002628000000000000     
100   95050317517212300000000000027750000000027750002000000010410405110505057164487403650511213112716448   1040001600030000   541120000553000000010000465Ocean Shwe Gone Daing  Yangon        MMR11005110505057164480511000000000000000   10300001F00104100000000006938000000000000     
100   62911028202151340000000000001200000000001200002000000010410405110728307241684369000511213114724168   1040001600030000   591220000296000000010000284Shwe Ohh Pharmacy (Lan Yangon        MMR11005110728307241680511000000000000000   10300001F00104100000000000072000000000000     
100   62443100364681690000000001000000000001000000002000000010410405110433300330173297160511000007142634   1040001600030000   333800010001220104000004507A +                    Yangon        MMR11005110433300330170511000000000000000   10300001F05104100000000210000000000000000     
100   62911028202175770000000000009500000000009500002000000010410405111621290211484369000511000746894874   1030000200030000   541188001017000008000000008KBZ BANK               MARKETPLACE - MMR11005111621290211480511000000000000000   10300001 00104100000000000570000000000000     
100   62911028202756820000000000106900000000106900002000000010410405111649070016494369000511000746896152   1030000200030000   541188001484000008000000399KBZ BANK               OCEAN SUPERCE MMR11005111649070016490511000000000000000   10300001 00104100000000006414000000000000     
100   62443100358839880000000000069114000000069114002000000010410405110809400099195671790511000746866956   1030000200030000   541188001002000008000000008KBZ BANK               MARKETPLACE - MMR11005110809400099190511000000000000000   10300001 00104100000000017279000000000000     
100   95050312360118350000000000015800000000015800002000000010410405111655080087532417670511000746896384   1030000200030000   541188001314000008000000306KBZ BANK               CITY MART - S MMR11005111655080087530511000000000000000   10300001 00104100000000003950000000000000     
100   95030367537085740000000000000980000000000980002000000010410405111432230223124369000511000007146237   1020000200030000   333400010001204104000000281Myanmar Soft-Gate Tech Yangon        MMR11005111432230223120511000000000000000   10300001F05104100000000000206000000000000     
100   95050318131043910000000000000980000000000980002000000010410405110331020102394730010511000007142098   1020000200030000   333400010001204104000000281Myanmar Soft-Gate Tech Yangon        MMR11005110331020102390511000000000000000   10300001F05104100000000000206000000000000     
100   62911028202204800000000000009900000000009900002000000010410405111333110196764369000511000746884818   1030000200030000   541188001075000008000000294KBZ BANK               CITY MART - J MMR11005111333110196760511000000000000000   10300001 00104100000000000594000000000000     
100   62443101053241940000000000036000000000036000002000000010410405110751407252120389150511213114725212   1040001600030000   598320000915000000010000664MMTM - North Dagon     Ygn           MMR11005110751407252120511000000000000000   10300001F00104100000000004320000000000000     
100   62911028202789750000000000006000000000006000002000000010410405110521147174764369000511213112717476   1040001600030000   591220000271000000010000259Shwe Ohh Pharmacy (Gwa Yangon        MMR11005110521147174760511000000000000000   10300001F00104100000000000360000000000000     
100   62911028202677390000000000050000000000050000002000000010410405100451260227904369000510213004022790   1030000600030000   554100001118315799420000576DENKO THAN HLYIN - 2   THAN HLYIN    MMR11005100451260227900510000000000000000   10300001 00104100000000001500000000000000     
100   95050325139996190000000000003300000000003300002000000010410405110332340234731425040511000007142097   1030000200030000   333300010001203104000003632Myanmar Tradenet Test  Yangon        MMR11005110332340234730511000000000000000   10300001F05104100000000010000000000000000     
100   62911028202696360000000000014800000000014800002000000010410405111107050323894369000511000746874672   1030000200030000   541188001041000008000000010KBZ BANK               MARKETPLACE - MMR11005111107050323890511000000000000000   10300001 00104100000000000888000000000000     
100   95050314287403810000000000002940000000002940002000000010410405111136370637683438820511000007145573   1020000200030000   333400010001204104000000281Myanmar Soft-Gate Tech Yangon        MMR11005111136370637680511000000000000000   10300001F05104100000000000617000000000000     
100   95050319067144780000000000006800000000006800002000000010410405111013440050598290260511000746871095   1030000200030000   541188001440000008000000401KBZ BANK               OCEAN SUPERCE MMR11005111013440050590511000000000000000   10300001 00104100000000001700000000000000     
100   62911028202151340000000000001600000000001600002000000010410405111443040110814369000511000746889899   1030000200030000   541188001081000008000000294KBZ BANK               CITY MART - J MMR11005111443040110810511000000000000000   10300001 00104100000000000096000000000000     
100   95050323481251170000000000010000000000010000002000000010410405111232270227076658700511000007145799   1030000200030000   333800010001203104000003327KBZPay                 Yangon        MMR11005111232270227070511000000000000000   10300001F05104100000000002100000000000000     
100   62911028202788350000000000011000000000011000002000000010410405111031380138004369000511000007145273   1030000200030000   333800010001203104000003327KBZPay                 Yangon        MMR11005111031380138000511000000000000000   10300001F05104100000000002310000000000000     
100   62911028202013730000000000013950000000013950002000000010410405111414250013974369000511000746887916   1030000200030000   541188001008000008000000008KBZ BANK               MARKETPLACE - MMR11005111414250013970511000000000000000   10300001 00104100000000000837000000000000     
100   95030301100102610000000000020000000000020000002000000010410405110332140214674369000511000007142111   1030000200030000   333800010001203104000003327KBZPay                 Yangon        MMR11005110332140214670511000000000000000   10300001F05104100000000004200000000000000     
100   95030339867270590000000000081198000000081198002000000010410405110503490870414369000511768371136130   1030000500030000   555610118964104519000016137City Mart South Okkala WZYD BR       MMR11005110503490870410511000000000000000   10300001 00104100000000004872000000000000     
100   62443100372718280000000000098450000000098450002000000010410405110706200885525935150511408361312130   1030000300030000   555510124364104519000020166Makro Myanmar                        MMR11005110706200885520511000000000000000   10300001 00104100000000023628000000000000     
100   62911028202291190000000000029888000000029888002000000010410405110801550892434369000511158311412130   1030000500030000   555610112235104519000010487Ocean Super Center St  ohn           MMR11005110801550892430511000000000000000   10300001 00104100000000001793000000000000     
100   62911028202169750000000000049159000000049159002000000010410405110857010898934369000511894261532130   1030000500030000   555610108840104519000003432City Mart Junction Zaw na 1          MMR11005110857010898930511000000000000000   10300001 00104100000000002950000000000000     
100   95050315919368400000000000045000000000045000002000000010410405110257152715684905920511000007141758   1030000200030000   333800010001203104000003327KBZPay                 Yangon        MMR11005110257152715680511000000000000000   10300001F05104100000000009450000000000000     
100   62911028202696360000000000006100000000006100002000000010410405110401050864644369000511160441000130   1030000300030000   444410125271104519000021125SP Bakery San YeikNyei GMP           MMR11005110401050864640511000000000000000   10300001 00104100000000000622000000000000     
100   62911028202463780000000000019500000000019500002000000010410405110818290894464369000511395481421130   1030000500030000   555610110576104519000009164City Mart China Town P int Cen       MMR11005110818290894460511000000000000000   10300001 00104100000000001170000000000000     
