100   62911028202175770000000000014500000000014500002000000010410405151742110204694369000515000747072030   1030000200030000   541188001070000008000000314KBZ BANK               MARKETPLACE - MMR11005151742110204690515000000000000000   10300001 00104100000000000870000000000000     
100   95030301100124400000000000062570000000062570002000000010410405150406037724554369000515418361003134   1030000900030000   541119001267190110000000958City Mart PLST C 10    YANGONMYOTHIT MMR11005150406037724550515000000000000000   10300001F00104100000000003754000000000000     
100   62911028202175770000000000029750000000029750002000000010410405151852410157654369000515000747074702   1030000200030000   541188001061000008000000314KBZ BANK               MARKETPLACE - MMR11005151852410157650515000000000000000   10300001 00104100000000001785000000000000     
100   62911028202520380000000000043350000000043350002000000010410405150833280351194369000515000747052316   1030000200030000   541188001025000008000000298KBZ BANK               CITY MART - M MMR11005150833280351190515000000000000000   10300001 00104100000000002601000000000000     
100   95030374458345210000000000035550000000035550002000000010410405151344156975994369000515141503444049   1040001400030000   581210000466025812100002956Golden Duck Restaurant (Junction 8)  MMR11005151344156975990515000000000000000   10300001 00104100000000003626000000000000     
100   62911028202296630000000000011800000000011800002000000010410405151344386135334369000515014384279220   1040001400030000   581410000465025814100002939Golden Duck Restaurant (Kan Taw Min) MMR11005151344386135330515000000000000000   10300001 00104100000000000354000000000000     
100   95030314863516850000000000018000000000018000002000000010410405141726025602554369000515000007163058   1030000200030000   333800010001203104000003327KBZPay                 Yangon        MMR11005141726025602550515000000000000000   10300001F05104100000000003780000000000000     
100   95030314863516850000000000018000000000018000002000000010410405141656362636444369000515000007163034   1030000200030000   333800010001203104000003327KBZPay                 Yangon        MMR11005141656362636440515000000000000000   10300001F05104100000000003780000000000000     
100   62911028202057540000000000050000000000050000002000000010410405150641460900984369000515114600094679   1040001400030000   581410000465025814100002939Golden Duck Restaurant (Kan Taw Min) MMR11005150641460900980515000000000000000   10300001 00104100000000001500000000000000     
100   95050310685238570000000000339000000000339000002000000010410405150515347739992538010515546451134134   1030000900030000   573219001183190110000000939UNIQUE Thingangyun     YANGONNGKUUN  MMR11005150515347739990515000000000000000   10300001F00104100000000081360000000000000     
100   62911028202677390000000000050000000000050000002000000010410405150440117731754369000515938101111134   1030000900030000   554119000345190110000000212New Day Energy PZD     YANGONAUNG    MMR11005150440117731750515000000000000000   10300001F00104100000000001500000000000000     
100   95050316430749210000000000027500000000027500002000000010410405150656297761954119180515176261329134   1030000900030000   541119000127190110000000082Sein Gay Har Super Cen YANGON        MMR11005150656297761950515000000000000000   10300001F00104100000000006875000000000000     
100   62911028202404050000000000309000000000309000002000000010410405150928107794654369000515675581510134   1030000900030000   573219001177190110000000933UNIQUE Kabaraye        YANGON        MMR11005150928107794650515000000000000000   10300001F00104100000000018540000000000000     
100   62911028202690160000000000016400000000016400002000000010410405151216447836294369000515774461844134   1030000900030000   541119000149190110000000083SeinGayHarParami Cente YANGON        MMR11005151216447836290515000000000000000   10300001F00104100000000000984000000000000     
100   95030317922148660000000000030000000000030000002000000010410405120702530001704369000512213213000170   1030000500030000   729820064401000017298200644HAIR REPUBLIC SALON    PTN           MMR11005120702530001700512000000000000000   10300001 00104100000000001800000000000000     
100   62911028202761360000000000083450000000083450002000000010410405150539447745194369000515920091244134   1030000900030000   541119001326190110000000971Ocean Junction NPT C 4 NAYPYITAW     MMR11005150539447745190515000000000000000   10300001F00104100000000005007000000000000     
100   62911028202460220000000000017600000000017600002000000010410405150244489888644369000515213509988864   1040001600030000   581420000803000000010000579Jeff's Kitchen (Ahlone Yangon        MMR11005150244489888640515000000000000000   10300001F00104100000000000528000000000000     
100   95050322420590810000000000023850000000023850002000000010410405150727177767966913570515628571317134   1030000900030000   541119001518190110000001102Ocean MGDTM C-11       YANGONADON    MMR11005150727177767960515000000000000000   10300001F00104100000000005963000000000000     
100   62443100382109160000000000034500000000034500002000000010410405150735587770103523510515796051458134   1030000900030000   541119000882190110000000084Pro (1) Global (Pazund YANGONARTAUNG MMR11005150735587770100515000000000000000   10300001F00104100000000008625000000000000     
100   62443100384660050000000000072650000000072650002000000010410405150914277791683268220515457441527134   1030000900030000   541119001301190110000000968Ocean Mingalar MDY C 9 MANDALAYHARSI MMR11005150914277791680515000000000000000   10300001F00104100000000018163000000000000     
100   62911028202135350000000000086000000000086000002000000010410405141047460012994369000514213417001299   1030000500030000   598320001403000015172200014MAX ENERGY             PTN           MMR11005141047460012990514000000000000000   10300001 00104100000000002580000000000000     
100   62911028202507760000000000020100000000020100002000000010410405150333169912474369000515213510991247   1040001600030000   591220001006000000010000736Shwe Ohh Pharmacy (Kyi Ygn           MMR11005150333169912470515000000000000000   10300001F00104100000000001206000000000000     
100   95050316430749210000000000018000000000018000002000000010410405150714497765690729120515465441349134   1030000900030000   541119000127190110000000082Sein Gay Har Super Cen YANGON        MMR11005150714497765690515000000000000000   10300001F00104100000000004500000000000000     
100   95050312867570630000000000026000000000026000002000000010410405151032207811129537770515981021720134   1030000900030000   569119001575190110000001146SISBURMA               YANGONA       MMR11005151032207811120515000000000000000   10300001F00104100000000006240000000000000     
100   62911028202690160000000000016500000000016500002000000010410405151234167840654369000515082041916134   1030000900030000   541119000154190110000000083SeinGayHarParami Cente YANGON        MMR11005151234167840650515000000000000000   10300001F00104100000000000990000000000000     
100   62911028202440680000000000028000000000028000002000000010410405150832197782194369000515725021519134   1030000900030000   573219001178190110000000934UNIQUE Pansodan        YANGONADA     MMR11005150832197782190515000000000000000   10300001F00104100000000001680000000000000     
100   62911028202761360000000000018300000000018300002000000010410405150541527745714369000515957111252134   1030000900030000   541119001326190110000000971Ocean Junction NPT C 4 NAYPYITAW     MMR11005150541527745710515000000000000000   10300001F00104100000000001098000000000000     
100   95050322420590810000000000004000000000004000002000000010410405150734357769691871030515766041435134   1030000900030000   541119001529190110000001107Ocean MGDTM-Season C-2 YANGONADON    MMR11005150734357769690515000000000000000   10300001F00104100000000001000000000000000     
100   62911028202674810000000000026150000000026150002000000010410405150437037730924369000515875071103134   1030000900030000   541119000161190110000000084Pro (1) Global (Pazund YANGONARTAUNG MMR11005150437037730920515000000000000000   10300001F00104100000000001569000000000000     
100   62911028202233510000000000005450000000005450002000000010410405151102017818854369000515567321701134   1030000900030000   541119001244190110000000955City Mart JS C 3       YANGONUT      MMR11005151102017818850515000000000000000   10300001F00104100000000000327000000000000     
100   62911028202198620000000000102000000000102000002000000010410405150710347764884369000515398401334134   1030000900030000   554119000348190110000000215New Day Energy MYG     YANGONONE     MMR11005150710347764880515000000000000000   10300001F00104100000000003060000000000000     
100   62911028202170490000000000055000000000055000002000000010410405130207560011674369000513213308001167   1030000500030000   598320001402000015172200014MAX ENERGY             PTN           MMR11005130207560011670513000000000000000   10300001 00104100000000001650000000000000     
100   62911028202789750000000000035000000000035000002000000010410405131151260002874369000513213318000287   1030000500030000   806220046404006308062200464ASIA ROYAL HOSPITAL    PTN           MMR11005131151260002870513000000000000000   10300001 00104100000000002100000000000000     
100   62911028202161240000000000050000000000050000002000000010410405130454330012394369000513213311001239   1030000500030000   598320001204000015172200012MAX ENERGY             PTN           MMR11005130454330012390513000000000000000   10300001 00104100000000001500000000000000     
100   95050324247403260000000001149900000001149900002000000010410405150856107787239622870515107261510134   1030000900030000   541119000881190110000000084Pro (1) Global (Pazund YANGONARTAUNG MMR11005150856107787230515000000000000000   10300001F00104100000000287475000000000000     
100   95050322715181550000000000100000000000100000002000000010410405141133410000850743120514213418000085   1030000500030000   573220075101000015732200751WAI YAN ELECTRONICS (M PTN           MMR11005141133410000850514000000000000000   10300001 00104100000000024000000000000000     
100   62911028202169750000000000041000000000041000002000000010410405150312009901884369000515213510990188   1040001600030000   541120000569000000010000465Ocean Shwe Gone Daing  Yangon        MMR11005150312009901880515000000000000000   10300001F00104100000000002460000000000000     
100   62443100306416880000000000005400000000005400002000000010410405151719370204686232800515000747071088   1030000200030000   541188001070000008000000314KBZ BANK               MARKETPLACE - MMR11005151719370204680515000000000000000   10300001 00104100000000001350000000000000     
100   95050315344668630000000000018200000000018200002000000010410405151428460239193778800515000747064304   1030000200030000   541188001059000008000000314KBZ BANK               MARKETPLACE - MMR11005151428460239190515000000000000000   10300001 00104100000000004550000000000000     
100   95030325332426120000000000004000000000004000002000000010410405140618360000954369000514213412000095   1030000500030000   569120069101008205691200691ESCORT                 PTN           MMR11005140618360000950514000000000000000   10300001 00104100000000000240000000000000     
100   95050329252108030000000000104000000000104000002000000010410405140915470010646857180514213415001064   1030000500030000   598320002104000015172200021MAX ENERGY             PTN           MMR11005140915470010640514000000000000000   10300001 00104100000000012480000000000000     
100   62443100306416880000000000029256000000029256002000000010410405140610480010163735350514213412001016   1030000500030000   598320002101000015172200021MAX ENERGY             PTN           MMR11005140610480010160514000000000000000   10300001 00104100000000003511000000000000     
100   62911028202313470000000000030000000000030000002000000010410405140311340008004369000514213409000800   1030000500030000   598320001604000015172200016MAX ENERGY             PTN           MMR11005140311340008000514000000000000000   10300001 00104100000000000900000000000000     
100   95030300067918830000000000023900000000023900002000000010410405150328067717204369000515919580906134   1030000900030000   541119001202190110000000944City Mart HDC City Car YANGONUT      MMR11005150328067717200515000000000000000   10300001F00104100000000001434000000000000     
100   95030394609966640000000000009000000000009000002000000010410405151029550025884369000515000747055404   1030000200030000   541188001021000008000000298KBZ BANK               CITY MART - M MMR11005151029550025880515000000000000000   10300001 00104100000000000540000000000000     
100   62911028202194090000000000030000000000030000002000000010410405140406510013564369000514213410001356   1030000500030000   598320001204000015172200012MAX ENERGY             PTN           MMR11005140406510013560514000000000000000   10300001 00104100000000000900000000000000     
100   95050319286546940000000000026850000000026850002000000010410405130136500001020874090513213308000102   1030000500030000   591220010401014405912200104SHWE OHH PHARMACY      PTN           MMR11005130136500001020513000000000000000   10300001 00104100000000006444000000000000     
100   62911028202194090000000000025007000000025007002000000010410405130325590012214369000513213309001221   1030000500030000   598320001204000015172200012MAX ENERGY             PTN           MMR11005130325590012210513000000000000000   10300001 00104100000000000750000000000000     
100   62911028202460220000000000020000000000020000002000000010410405130930350012884369000513213316001288   1030000500030000   598320001204000015172200012MAX ENERGY             PTN           MMR11005130930350012880513000000000000000   10300001 00104100000000000600000000000000     
100   95030308100042590000000000147702000000147702002000000010410405130938460014524369000513213316001452   1030000500030000   598320001701000015172200017MAX ENERGY             PTN           MMR11005130938460014520513000000000000000   10300001 00104100000000004431000000000000     
100   62911028202260320000000000030000000000030000002000000010410405130621260013074369000513213312001307   1030000500030000   598320001001000015172200010MAX ENERGY             PTN           MMR11005130621260013070513000000000000000   10300001 00104100000000000900000000000000     
100   62443100340288250000000000034000000000034000002000000010410405130211000010113838670513213308001011   1030000500030000   598320001403000015172200014MAX ENERGY             PTN           MMR11005130211000010110513000000000000000   10300001 00104100000000004080000000000000     
100   95030308100042590000000000050000000000050000002000000010410405130941200014544369000513213316001454   1030000500030000   598320001701000015172200017MAX ENERGY             PTN           MMR11005130941200014540513000000000000000   10300001 00104100000000001500000000000000     
100   95030308100042590000000000045000000000045000002000000010410405130942330014564369000513213316001456   1030000500030000   598320001701000015172200017MAX ENERGY             PTN           MMR11005130942330014560513000000000000000   10300001 00104100000000001350000000000000     
100   95050324154190880000000000020000000000020000002000000010410405131319220008901821850513213319000890   1030000500030000   598320002102000015172200021MAX ENERGY             PTN           MMR11005131319220008900513000000000000000   10300001 00104100000000002400000000000000     
100   95030339867270590000000000050000000000050000002000000010410405130142220012704369000513213308001270   1030000500030000   598320001001000015172200010MAX ENERGY             PTN           MMR11005130142220012700513000000000000000   10300001 00104100000000001500000000000000     
100   62443100376865460000000000017318000000017318002000000010410405131123310000892249680513213317000089   1030000500030000   581220024001000015812200240SHWE LAR HOT POT       PTN           MMR11005131123310000890513000000000000000   10300001 00104100000000007360000000000000     
100   62443100371022130000000000033000000000033000002000000010410405131011090012363868610513213316001236   1030000500030000   598320001202000015172200012MAX ENERGY             PTN           MMR11005131011090012360513000000000000000   10300001 00104100000000003960000000000000     
100   62911028202193670000000000026009000000026009002000000010410405130954310009224369000513213316000922   1030000500030000   598320001602000015172200016MAX ENERGY             PTN           MMR11005130954310009220513000000000000000   10300001 00104100000000000780000000000000     
100   95030364439875210000000000055160000000055160002000000010410405130922070021664369000513213315002166   1030000500030000   598320001904000015172200019MAX ENERGY             PTN           MMR11005130922070021660513000000000000000   10300001 00104100000000001655000000000000     
100   95050326094581320000000000009000000000009000002000000010410405130955450001392556520513213316000139   1030000500030000   569120104101008205691201041ESCORT (TERMINAL M)    PTN           MMR11005130955450001390513000000000000000   10300001 00104100000000002160000000000000     
100   62911028202446540000000000037015000000037015002000000010410405131214450012564369000513213318001256   1030000500030000   598320001202000015172200012MAX ENERGY             PTN           MMR11005131214450012560513000000000000000   10300001 00104100000000001111000000000000     
100   95030317922148660000000000092000000000092000002000000010410405121040440000194369000512213217000019   1030000500030000   597720029101000015977200291LOCCITANE              PTN           MMR11005121040440000190512000000000000000   10300001 00104100000000005520000000000000     
100   62911028202761360000000000017600000000017600002000000010410405150521210001914369000515000747058346   1030000200030000   569988000792000008000004571KBZ BANK               NPT-THE ONE   MMR11005150521210001910515000000000000000   10300001 00104100000000001056000000000000     
100   62911028202761360000000000035800000000035800002000000010410405150500550001884369000515000747057559   1030000200030000   569988000792000008000004571KBZ BANK               NPT-THE ONE   MMR11005150500550001880515000000000000000   10300001 00104100000000002148000000000000     
100   95050317780740350000000000027000000000027000002000000010410405150557440000351055710515000747059742   1030000200030000   509488002506000008000006706KBZ BANK               SHWE SAN EAIN MMR11005150557440000350515000000000000000   10300001 00104100000000010800000000000000     
100   62911028202761360000000000052990000000052990002000000010410405150447170000134369000515000747057083   1030000200030000   569988000799000008000004571KBZ BANK               NPT-THE ONE   MMR11005150447170000130515000000000000000   10300001 00104100000000003179000000000000     
100   62911028202761360000000000040000000000040000002000000010410405150618310001754369000515213513000175   1040001600030000   598320000660000000010000529Shwe Taung Energy (NPT Naypyitaw     MMR11005150618310001750515000000000000000   10300001F00104100000000001200000000000000     
100   62911028202761360000000000145980000000145980002000000010410405150517460001904369000515000747058221   1030000200030000   569988000792000008000004571KBZ BANK               NPT-THE ONE   MMR11005150517460001900515000000000000000   10300001 00104100000000008759000000000000     
100   62911028202392740000000000003400000000003400002000000010410405151718380008044369000515000747071051   1030000200030000   541188001448000008000000401KBZ BANK               OCEAN SUPERCE MMR11005151718380008040515000000000000000   10300001 00104100000000000204000000000000     
100   62911028202417000000000000007000000000007000002000000010410405151753450035414369000515000747072494   1030000200030000   541188001053000008000000539KBZ BANK               SAFARI BOOK S MMR11005151753450035410515000000000000000   10300001 00104100000000000420000000000000     
100   95050312520116690000000000002100000000002100002000000010410405151026450143492502350515213517014349   1040001600030000   541120000584000000010000465Ocean Shwe Gone Daing  Yangon        MMR11005151026450143490515000000000000000   10300001F00104100000000000525000000000000     
100   62911028202499270000000000007300000000007300002000000010410405151102310168054369000515213518016805   1040001600030000   591220000301000000010000289Shwe Ohh Pharmacy (Yay Yangon        MMR11005151102310168050515000000000000000   10300001F00104100000000000438000000000000     
100   62443100309698080000000000028600000000028600002000000010410405150732480043205176000515213514004320   1040001600030000   581420001042000000010000763Aries Cafe & Bistro (L ygn           MMR11005150732480043200515000000000000000   10300001F00104100000000003432000000000000     
100   95030318100004530000000000044250000000044250002000000010410405151037080037004369000515000747055622   1030000200030000   541188001436000008000000401KBZ BANK               OCEAN SUPERCE MMR11005151037080037000515000000000000000   10300001 00104100000000002655000000000000     
100   95030305700676370000000000030000000000030000002000000010410405150645520032334369000515000747061469   1030000200030000   598388001833000008000005310KBZ BANK               BOC (138 MILE MMR11005150645520032330515000000000000000   10300001 00104100000000000900000000000000     
100   62911028202136750000000000025700000000025700002000000010410405151756380044664369000515000747072604   1030000200030000   541188001057000008000000314KBZ BANK               MARKETPLACE - MMR11005151756380044660515000000000000000   10300001 00104100000000001542000000000000     
100   95050312520116690000000000024650000000024650002000000010410405151004330129072587450515213517012907   1040001600030000   541120000553000000010000465Ocean Shwe Gone Daing  Yangon        MMR11005151004330129070515000000000000000   10300001F00104100000000006163000000000000     
100   95050318712627500000000000035200000000035200002000000010410405150951520121456488090515213516012145   1040001600030000   541120000563000000010000465Ocean Shwe Gone Daing  Yangon        MMR11005150951520121450515000000000000000   10300001F00104100000000008800000000000000     
100   62911028202203320000000000049990000000049990002000000010410405150355050021814369000515000747055260   1030000200030000   569988000805000008000004620KBZ BANK               STJ-BLAZON    MMR11005150355050021810515000000000000000   10300001 00104100000000002999000000000000     
100   62443100330220920000000000025450000000025450002000000010410405151702330098307885290515000747070340   1030000200030000   541188001313000008000000306KBZ BANK               CITY MART - S MMR11005151702330098300515000000000000000   10300001 00104100000000006363000000000000     
100   62911028202807400000000000015550000000015550002000000010410405151232350093494369000515000747059918   1030000200030000   541188001128000008000000296KBZ BANK               CITY MART - J MMR11005151232350093490515000000000000000   10300001 00104100000000000933000000000000     
100   62911028202220980000000000007000000000007000002000000010410405151743060194164369000515000747072070   1030000200030000   541188001055000008000000314KBZ BANK               MARKETPLACE - MMR11005151743060194160515000000000000000   10300001 00104100000000000420000000000000     
100   95050312360118350000000000029850000000029850002000000010410405151612440074644920710515000747068326   1030000200030000   541188001317000008000000306KBZ BANK               CITY MART - S MMR11005151612440074640515000000000000000   10300001 00104100000000007463000000000000     
100   62911028202417000000000000009000000000009000002000000010410405151636020133804369000515000747069262   1030000200030000   541188001047000008000000010KBZ BANK               MARKETPLACE - MMR11005151636020133800515000000000000000   10300001 00104100000000000540000000000000     
100   62911028202290100000000000045800000000045800002000000010410405151228020112704369000515000747059748   1030000200030000   541188001081000008000000294KBZ BANK               CITY MART - J MMR11005151228020112700515000000000000000   10300001 00104100000000002748000000000000     
100   62911028202170490000000000020500000000020500002000000010410405151425140129574369000515000747064134   1030000200030000   541188001065000008000000314KBZ BANK               MARKETPLACE - MMR11005151425140129570515000000000000000   10300001 00104100000000001230000000000000     
100   62911028202417000000000000003900000000003900002000000010410405151642450133814369000515000747069526   1030000200030000   541188001047000008000000010KBZ BANK               MARKETPLACE - MMR11005151642450133810515000000000000000   10300001 00104100000000000234000000000000     
100   95050312173216740000000000012000000000012000002000000010410405150901020092145005800515213516009214   1040001600030000   569120000928000000010000675Generation Concept Sto Ygn           MMR11005150901020092140515000000000000000   10300001F00104100000000002880000000000000     
100   95050326228858240000000000042507000000042507002000000010410405141205030004002417260514213418000400   1030000500030000   581220024101000015812200241SHWE LAR HOT POT       PTN           MMR11005141205030004000514000000000000000   10300001 00104100000000018066000000000000     
100   95030379578686440000000000014700000000014700002000000010410405141125390004734369000514213417000473   1030000500030000   541120020801022205411200208ORANGE (TAMWE)         PTN           MMR11005141125390004730514000000000000000   10300001 00104100000000000882000000000000     
100   62911028202717310000000000050000000000050000002000000010410405140717320012984369000514213413001298   1030000500030000   598320001303000015172200013MAX ENERGY             PTN           MMR11005140717320012980514000000000000000   10300001 00104100000000001500000000000000     
100   95050328074436620000000000055000000000055000002000000010410405140301350012991184780514213409001299   1030000500030000   598320001203000015172200012MAX ENERGY             PTN           MMR11005140301350012990514000000000000000   10300001 00104100000000006600000000000000     
100   62911028202136750000000000050000000000050000002000000010410405140311060015044369000514213409001504   1030000500030000   598320001701000015172200017MAX ENERGY             PTN           MMR11005140311060015040514000000000000000   10300001 00104100000000001500000000000000     
100   95030374458345210000000000015100000000015100002000000010410405141233570020974369000514000345055294   1030000300030000   541100000441000000000000319CB BANK                ONESTOP KITCH MMR11005141233570020970514000000000000000   10300001F00104100000000000906000000000000     
100   62911028202421380000000000081000000000081000002000000010410405140434300023134369000514213411002313   1030000500030000   598320001904000015172200019MAX ENERGY             PTN           MMR11005140434300023130514000000000000000   10300001 00104100000000002430000000000000     
100   62911028202467900000000000007000000000007000002000000010410405140701470004804369000514213413000480   1030000500030000   569120104001008205691201040ESCORT ( CITY MALL-ST. PTN           MMR11005140701470004800514000000000000000   10300001 00104100000000000420000000000000     
100   95030325332426120000000000027000000000027000002000000010410405140615470000934369000514213412000093   1030000500030000   569120069101008205691200691ESCORT                 PTN           MMR11005140615470000930514000000000000000   10300001 00104100000000001620000000000000     
100   62911028202500810000000000040000000000040000002000000010410405140933330000884369000514213416000088   1030000500030000   804320041601000018043200416ZEEKWEK EYEWEAR        PTN           MMR11005140933330000880514000000000000000   10300001 00104100000000002400000000000000     
100   62911028202318180000000000025900000000025900002000000010410405141131130001764369000514213418000176   1030000500030000   541120065701000015411200657SHOP & SHOP CONVENIENC PTN           MMR11005141131130001760514000000000000000   10300001 00104100000000001554000000000000     
100   62443100383487320000000000079900000000079900002000000010410405141118560000834004010514213417000083   1030000500030000   531120201506000085311202015HAGL BLAZON            PTN           MMR11005141118560000830514000000000000000   10300001 00104100000000019176000000000000     
100   62911028202150190000000000030000000000030000002000000010410405140537140013214369000514213412001321   1030000500030000   598320001301000015172200013MAX ENERGY             PTN           MMR11005140537140013210514000000000000000   10300001 00104100000000000900000000000000     
100   62443100316099160000000000072000000000072000002000000010410405140713410015572109330514213413001557   1030000500030000   598320001404000015172200014MAX ENERGY             PTN           MMR11005140713410015570514000000000000000   10300001 00104100000000008640000000000000     
100   95050311831926380000000000014000000000014000002000000010410405140555200004533806660514213412000453   1030000500030000   531120156003000045311201560GAMONE PWINT           PTN           MMR11005140555200004530514000000000000000   10300001 00104100000000003360000000000000     
100   62443101003317490000000000106000000000106000002000000010410405141213200013569112290514213418001356   1030000500030000   598320001303000015172200013MAX ENERGY             PTN           MMR11005141213200013560514000000000000000   10300001 00104100000000012720000000000000     
100   62911028202442410000000000071036000000071036002000000010410405140710430013564369000514213413001356   1030000500030000   598320001203000015172200012MAX ENERGY             PTN           MMR11005140710430013560514000000000000000   10300001 00104100000000002131000000000000     
100   95030361482647470000000000019730000000019730002000000010410405141234360000734369000514213419000073   1030000500030000   581220214401000085812202144CHILLI POT MALA XIANG  PTN           MMR11005141234360000730514000000000000000   10300001 00104100000000002013000000000000     
100   95050314842866260000000000011850000000011850002000000010410405140926090007112886580514213415000711   1030000500030000   531120156002000045311201560GAMONE PWINT           PTN           MMR11005140926090007110514000000000000000   10300001 00104100000000002844000000000000     
100   62443100333488440000000000087019000000087019002000000010410405140612070002502884340514213412000250   1030000500030000   598320003702000015172200037MAX ENERGY             PTN           MMR11005140612070002500514000000000000000   10300001 00104100000000010442000000000000     
100   95030361482647470000000000041000000000041000002000000010410405141202240011264369000514213418001126   1030000500030000   598320001903000015172200019MAX ENERGY             PTN           MMR11005141202240011260514000000000000000   10300001 00104100000000001230000000000000     
100   95050316901496590000000000005100000000005100002000000010410405141104380000827422040514213417000082   1030000500030000   541120045801009205411200458126 STORE              PTN           MMR11005141104380000820514000000000000000   10300001 00104100000000001275000000000000     
100   62911028202764820000000000009000000000009000002000000010410405140616540000944369000514213412000094   1030000500030000   569120069101008205691200691ESCORT                 PTN           MMR11005140616540000940514000000000000000   10300001 00104100000000000540000000000000     
100   95050310739614720000000000019000000000019000002000000010410405141012410011046271610514000345037372   1030000300030000   531100000747000000000000408CB BANK                CAPITAL HYPER MMR11005141012410011040514000000000000000   10300001F00104100000000004560000000000000     
100   62911028202161240000000000045000000000045000002000000010410405140545350011384369000514213412001138   1030000500030000   598320001201000015172200012MAX ENERGY             PTN           MMR11005140545350011380514000000000000000   10300001 00104100000000001350000000000000     
100   95030308100042590000000000030000000000030000002000000010410405140644070000804369000514213413000080   1030000500030000   591220012201014405912200122SHWE OHH PHARMACY      PTN           MMR11005140644070000800514000000000000000   10300001 00104100000000001800000000000000     
100   62911028202690160000000000027000000000027000002000000010410405140436050000274369000514213411000027   1030000500030000   566120038401016505661200384RIPPLE FLIPFLOPS       PTN           MMR11005140436050000270514000000000000000   10300001 00104100000000001620000000000000     
100   62911028202907490000000000021000000000021000002000000010410405140424570004124369000514000747016952   1030000200030000   596588002422000008000006477KBZ BANK               AMERICAN COLL MMR11005140424570004120514000000000000000   10300001 00104100000000001260000000000000     
100   62911028202286990000000000040000000000040000002000000010410405140727540014824369000514213413001482   1030000500030000   598320001302000015172200013MAX ENERGY             PTN           MMR11005140727540014820514000000000000000   10300001 00104100000000001200000000000000     
100   62443100392773440000000000104803000000104803002000000010410405140805320001651657990514000345021003   1030000300030000   701100000121000000000000052CB BANK                MELIA YANGON  MMR11005140805320001650514000000000000000   10300001F00104100000000044542000000000000     
100   62443101037081820000000000045500000000045500002000000010410405140824180001619841730514213414000161   1030000500030000   581220105102002005812201051WHITE SWAN             PTN           MMR11005140824180001610514000000000000000   10300001 00104100000000019338000000000000     
100   62911028202467900000000000149900000000149900002000000010410405140617460001684369000514213412000168   1030000500030000   531120201602000085311202016STJ BLAZON             PTN           MMR11005140617460001680514000000000000000   10300001 00104100000000008994000000000000     
100   62443100306416880000000000000270000000000270002000000010410405140614410010183309850514213412001018   1030000500030000   598320002101000015172200021MAX ENERGY             PTN           MMR11005140614410010180514000000000000000   10300001 00104100000000000032000000000000     
100   62911028202610540000000000016000000000016000002000000010410405140553310004674369000514213412000467   1030000500030000   569120104001008205691201040ESCORT ( CITY MALL-ST. PTN           MMR11005140553310004670514000000000000000   10300001 00104100000000000960000000000000     
100   62911028202175770000000000105000000000105000002000000010410405140522590005404369000514213411000540   1030000500030000   598320001802000015172200018MAX ENERGY             PTN           MMR11005140522590005400514000000000000000   10300001 00104100000000003150000000000000     
100   95050311091346230000000000048000000000048000002000000010410405140512399225842316300514213412922584   1040001600030000   581420000881000000010000632Luck Shwin BBQ & Hot P Ygn           MMR11005140512399225840514000000000000000   10300001F00104100000000005760000000000000     
100   95050316717221100000000000064000000000064000002000000010410405140511489225341890760514213412922534   1040001600030000   581420000881000000010000632Luck Shwin BBQ & Hot P Ygn           MMR11005140511489225340514000000000000000   10300001F00104100000000007680000000000000     
100   95050320092651450000000000026400000000026400002000000010410405151106190226031481200515000747056680   1030000200030000   541188001007000008000000008KBZ BANK               MARKETPLACE - MMR11005151106190226030515000000000000000   10300001 00104100000000006600000000000000     
