100   95030301100170760000000000015500000000015500002000000010410405131022390005344369000513000746991843   1030000200030000   569988000806000008000004620KBZ BANK               STJ-BLAZON    MMR11005131022390005340513000000000000000   10300001 00104100000000000930000000000000     
100   62911028202788350000000000010000000000010000002000000010410405131231160116124369000513000007158359   1030000200030000   333800010001203104000003327KBZPay                 Yangon        MMR11005131231160116120513000000000000000   10300001F05104100000000002100000000000000     
100   62911028202130710000000000009000000000009000002000000010410405131834110215124369000513000746996630   1030000200030000   541188001001000008000000008KBZ BANK               MARKETPLACE - MMR11005131834110215120513000000000000000   10300001 00104100000000000540000000000000     
100   95050322954091830000000000005000000000005000002000000010410405131331490149360970890513000007158551   1030000200030000   3334000100012031040000040102C2P (Myanmar) Co. Ltd Yangon        MMR11005131331490149360513000000000000000   10300001F05104100000000001050000000000000     
100   95050327185992630000000000020912000000020912002000000010410405131642360190315521100513000746991444   1030000200030000   541188001080000008000000294KBZ BANK               CITY MART - J MMR11005131642360190310513000000000000000   10300001 00104100000000005228000000000000     
100   62443100323117100000000000049200000000049200002000000010410405130934310431058180950513000007157490   1030000200030000   333300010001203104000004523Ying Family Trading Co Yangon        MMR11005130934310431050513000000000000000   10300001F05104100000000010000000000000000     
100   95050326493030660000000000130000000000130000002000000010410405131239280928508562990513000007158388   1030000200030000   333800010001203104000003327KBZPay                 Yangon        MMR11005131239280928500513000000000000000   10300001F05104100000000027300000000000000     
100   62911028202170490000000000004450000000004450002000000010410405130547021087744369000513925161217132   1030000300030000   444410125393104519000021220Myanmar Bakery CoLtd                 MMR11005130547021087740513000000000000000   10300001 00104100000000000454000000000000     
100   62443101006526980000000000058000000000058000002000000010410405120026280175782198030512213200017578   1030000600030000   554100002085315799420000471DENKO BAHAN            YANGON        MMR11005120026280175780512000000000000000   10300001 00104100000000006960000000000000     
100   62911028202335820000000000022000000000022000002000000010410405121211250054404369000512213212005440   1030000600030000   554100000744315799420000322DENKO AMARAPURA-PACHI  MANDALAY      MMR11005121211250054400512000000000000000   10300001 00104100000000000660000000000000     
100   95030318100004530000000000020000000000020000002000000010410405120406170100054369000512213204010005   1030000600030000   554100001218315799420000670DENKO MAWLAMYAING      MON STATE.    MMR11005120406170100050512000000000000000   10300001 00104100000000000600000000000000     
100   95030341448197210000000000010000000000010000002000000010410405120410450064824369000512213204006482   1030000600030000   554100000841315799420000373DENKO NYAUNG U         NYAUNG U      MMR11005120410450064820512000000000000000   10300001 00104100000000000300000000000000     
100   62911028202099050000000000028500000000028500002000000010410405120958060155474369000512213209015547   1030000600030000   809900000541315799420000147GRAND HANTHA HOSPITAL  YANGON        MMR11005120958060155470512000000000000000   10300001 00104100000000001710000000000000     
100   95050324247403260000000000070000000000070000002000000010410405120328010482001978400512213203048200   1030000600030000   554100001001315799420000498DENKO SHWE PYI THAR    YANGON        MMR11005120328010482000512000000000000000   10300001 00104100000000008400000000000000     
100   62443101076362230000000000064000000000064000002000000010410405120954380853763654690512213209085376   1030000600030000   554100000946315799420000471DENKO BAHAN            YANGON        MMR11005120954380853760512000000000000000   10300001 00104100000000007680000000000000     
100   62911028202593140000000000050000000000050000002000000010410405120344507785394369000512213210778539   1040001600030000   598320000915000000010000664MMTM - North Dagon     Ygn           MMR11005120344507785390512000000000000000   10300001F00104100000000001500000000000000     
100   95050310427855490000000000001960000000001960002000000010410405122330540054671554860513000007152915   1020000200030000   333400010001204104000000281Myanmar Soft-Gate Tech Yangon        MMR11005122330540054670513000000000000000   10300001F05104100000000000412000000000000     
100   62911028202212230000000000005000000000005000002000000010410405131604070197824369000513000746989773   1030000200030000   541188001075000008000000294KBZ BANK               CITY MART - J MMR11005131604070197820513000000000000000   10300001 00104100000000000300000000000000     
100   62911028202245730000000000141207000000141207002000000010410405130249221069214369000513036190947132   1030000500030000   555610118964104519000016137City Mart South Okkala WZYD BR       MMR11005130249221069210513000000000000000   10300001 00104100000000008472000000000000     
100   62911028202696360000000000054900000000054900002000000010410405131644410161944369000513000746991523   1030000200030000   541188001049000008000000010KBZ BANK               MARKETPLACE - MMR11005131644410161940513000000000000000   10300001 00104100000000003294000000000000     
100   62911028202130710000000000004700000000004700002000000010410405131841120213044369000513000746996898   1030000200030000   541188001017000008000000008KBZ BANK               MARKETPLACE - MMR11005131841120213040513000000000000000   10300001 00104100000000000282000000000000     
100   95050326493030660000000000300000000000300000002000000010410405131236360636689413910513000007158372   1030000200030000   333800010001203104000003327KBZPay                 Yangon        MMR11005131236360636680513000000000000000   10300001F05104100000000063000000000000000     
100   62911028202074950000000000005071000000005071002000000010410405130507031082844369000513441361127132   1030000500030000   555610112236104519000010487Ocean Super Center St  ohn           MMR11005130507031082840513000000000000000   10300001 00104100000000000304000000000000     
100   62911028202788350000000000010000000000010000002000000010410405122331410141294369000513000007152917   1030000200030000   333800010001203104000003327KBZPay                 Yangon        MMR11005122331410141290513000000000000000   10300001F05104100000000002100000000000000     
100   95050317085125750000000000020000000000020000002000000010410405130718304830415287670513000007156241   1030000200030000   333800010001203104000003327KBZPay                 Yangon        MMR11005130718304830410513000000000000000   10300001F05104100000000004200000000000000     
100   95050316421999920000000000006104000000006104002000000010410405130924207364586188080513170541520132   1030000900030000   541119001260190110000000958City Mart PLST C 3     YANGONMYOTHIT MMR11005130924207364580513000000000000000   10300001F00104100000000001526000000000000     
100   62911028202245730000000000050000000000050000002000000010410405131035097383274369000513323051709132   1030000900030000   592119000589190110000000429Htun Htun Oo Liquor (Y YANGON        MMR11005131035097383270513000000000000000   10300001F00104100000000003000000000000000     
100   62443100330108240000000000002940000000002940002000000010410405130329235923152982000513000007154040   1020000200030000   333400010001204104000000281Myanmar Soft-Gate Tech Yangon        MMR11005130329235923150513000000000000000   10300001F05104100000000000617000000000000     
100   95030375920022940000000000038500000000038500002000000010410405131037507384204369000513390071750132   1030000900030000   541119001076190110000000872Sein Gay Har Hledan    YANGONUT      MMR11005131037507384200513000000000000000   10300001F00104100000000002310000000000000     
100   95050313970192050000000000024300000000024300002000000010410405131044337386011194970513506141733132   1030000900030000   541119000121190110000000080Sein Gay Har BAK       YANGONADA     MMR11005131044337386010513000000000000000   10300001F00104100000000006075000000000000     
100   62443100372702000000000001000000000001000000002000000010410405131026275627598230390513000007157893   1040001600030000   333800010001220104000004507A +                    Yangon        MMR11005131026275627590513000000000000000   10300001F05104100000000210000000000000000     
100   95050312728902740000000000005000000000005000002000000010410405130729005900667195450513000007156341   1030000200030000   333800010001203104000003327KBZPay                 Yangon        MMR11005130729005900660513000000000000000   10300001F05104100000000001050000000000000     
100   62911028202130710000000000001950000000001950002000000010410405131826540281474369000513000746996336   1030000200030000   541188001012000008000000008KBZ BANK               MARKETPLACE - MMR11005131826540281470513000000000000000   10300001 00104100000000000117000000000000     
100   95050316997303010000000000010000000000010000002000000010410405130934420442323223500513000007157495   1030000200030000   333800010001203104000003327KBZPay                 Yangon        MMR11005130934420442320513000000000000000   10300001F05104100000000002100000000000000     
100   95050312539675540000000000004000000000004000002000000010410405131902270057169910720513000746997713   1030000200030000   541188001366000008000000395KBZ BANK               OCEAN SUPERMA MMR11005131902270057160513000000000000000   10300001 00104100000000001000000000000000     
100   62911028202074950000000000003900000000003900002000000010410405131001430112194369000513000746966401   1030000200030000   541188001303000008000000325KBZ BANK               CITY MART - A MMR11005131001430112190513000000000000000   10300001 00104100000000000234000000000000     
100   62911028202161240000000000014464000000014464002000000010410405131821150101584369000513000746996050   1030000200030000   541188001002000008000000008KBZ BANK               MARKETPLACE - MMR11005131821150101580513000000000000000   10300001 00104100000000000868000000000000     
100   95030313100013730000000000013000000000013000002000000010410405131121270104364369000513512793961166   1040001400030000   565510000348025655100002171Amazing Sportswear nul No-161  Ahlon MMR11005131121270104360513000000000000000   10300001 00104100000000000780000000000000     
100   62443100399918110000000000032966000000032966002000000010410405131024360349480151950513000746967878   1030000200030000   541188001025000008000000298KBZ BANK               CITY MART - M MMR11005131024360349480513000000000000000   10300001 00104100000000008242000000000000     
100   95050315557781210000000000020000000000020000002000000010410405130536440644632995780513000007155358   1040001600030000   333800010001220104000004507A +                    Yangon        MMR11005130536440644630513000000000000000   10300001F05104100000000004200000000000000     
100   95050314570621780000000000000980000000000980002000000010410405130518394839410371590513000007155173   1020000200030000   333400010001204104000000281Myanmar Soft-Gate Tech Yangon        MMR11005130518394839410513000000000000000   10300001F05104100000000000206000000000000     
100   95050312845568060000000000021600000000021600002000000010410405130439087294682449550513151091108132   1030000900030000   541119001208190110000000948City Mart YK C 6       YANGONAUNG    MMR11005130439087294680513000000000000000   10300001F00104100000000005400000000000000     
100   62911028202170490000000000014200000000014200002000000010410405130451537298094369000513360211153132   1030000900030000   541119001242190110000000955City Mart JS C 1       YANGONUT      MMR11005130451537298090513000000000000000   10300001F00104100000000000852000000000000     
100   62443101063232860000000000088000000000088000002000000010410405130349157282284052600513491191015132   1030000900030000   554119000347190110000000214New Day Energy MTN     YANGONARTAUNG MMR11005130349157282280513000000000000000   10300001F00104100000000010560000000000000     
100   95030360829747230000000001250000000001250000002000000010410405130543537310904369000513102131253132   1030000900030000   729819001039190110000000844The Clinic De Novo     YANGONUT      MMR11005130543537310900513000000000000000   10300001F00104100000000075000000000000000     
100   95050310553090700000000000020700000000020700002000000010410405130637047324126945870513873071304132   1030000900030000   541119000124190110000000080Sein Gay Har BAK       YANGONADA     MMR11005130637047324120513000000000000000   10300001F00104100000000005175000000000000     
100   95050326094581320000000000054942000000054942002000000010410405131030387381715982240513214001738132   1030000900030000   541119001508190110000001102Ocean MGDTM-C 1        YANGONADON    MMR11005131030387381710513000000000000000   10300001F00104100000000013736000000000000     
100   62443100333488440000000000027000000000027000002000000010410405130845077355693429340513673151507132   1030000900030000   554119000348190110000000215New Day Energy MYG     YANGONONE     MMR11005130845077355690513000000000000000   10300001F00104100000000003240000000000000     
100   62911028202187730000000000039750000000039750002000000010410405130243441068904369000513008140932132   1030000500030000   555610110565104519000009163City Mart Ayeyarwon Br nch           MMR11005130243441068900513000000000000000   10300001 00104100000000002385000000000000     
100   95030301100423890000000000100000000000100000002000000010410405130432550255704369000513000007154742   1030000500030000   333800010001201104000003863AYA Pay                Yangon        MMR11005130432550255700513000000000000000   10300001F05104100000000021000000000000000     
100   95050322312885760000000000010000000000010000002000000010410405130735590559103805380513000007156404   1030000200030000   333800010001203104000003327KBZPay                 Yangon        MMR11005130735590559100513000000000000000   10300001F05104100000000002100000000000000     
100   95030315150842990000000000087841000000087841002000000010410405131143000349604369000513000746973592   1030000200030000   541188001025000008000000298KBZ BANK               CITY MART - M MMR11005131143000349600513000000000000000   10300001 00104100000000005271000000000000     
100   95050318057347910000000000000980000000000980002000000010410405130137150715379221610513000007153191   1020000200030000   333400010001204104000000281Myanmar Soft-Gate Tech Yangon        MMR11005130137150715370513000000000000000   10300001F05104100000000000206000000000000     
100   62443100389971990000000000005000000000005000002000000010410405130804373437681046640513000007156654   1030000200030000   333800010001203104000003327KBZPay                 Yangon        MMR11005130804373437680513000000000000000   10300001F05104100000000001050000000000000     
100   95050328511810100000000000300000000000300000002000000010410405131109463946802603830513000007158087   1030000200030000   333800010001203104000003327KBZPay                 Yangon        MMR11005131109463946800513000000000000000   10300001F05104100000000063000000000000000     
100   62911028202684060000000000058580000000058580002000000010410405130420011078424369000513982531017132   1030000500030000   555610104031104519000003821City Mart North Point  enter         MMR11005130420011078420513000000000000000   10300001 00104100000000003515000000000000     
100   95050312287957830000000000005080000000005080002000000010410405131039097384512932550513413091709132   1030000900030000   541119001349190110000000977Ocean PZD C 3          YANGONAUNG    MMR11005131039097384510513000000000000000   10300001F00104100000000001270000000000000     
100   62911028202285170000000000054000000000054000002000000010410405130502537301034369000513539321153132   1030000900030000   569119001501190110000001095Next Generation GCS HT YANGONTHARYA  MMR11005130502537301030513000000000000000   10300001F00104100000000003240000000000000     
100   62443100361813580000000000020000000000020000002000000010410405130416304630789740260513000007154599   1030000200030000   333800010001203104000003327KBZPay                 Yangon        MMR11005130416304630780513000000000000000   10300001F05104100000000004200000000000000     
100   62911028202804010000000000021700000000021700002000000010410405130309137273504369000513057390913132   1030000900030000   541119001462190110000000077Sein Gay Har Chinatown YANGON        MMR11005130309137273500513000000000000000   10300001F00104100000000001302000000000000     
100   95030380891034700000000000020000000000020000002000000010410405130420495049534369000513000007154633   1030000200030000   333800010001203104000003327KBZPay                 Yangon        MMR11005130420495049530513000000000000000   10300001F05104100000000004200000000000000     
100   62443100372702000000000000500000000000500000002000000010410405131027335733646577910513000007157900   1040001600030000   333800010001220104000004507A +                    Yangon        MMR11005131027335733640513000000000000000   10300001F05104100000000105000000000000000     
100   62911028202440680000000000005900000000005900002000000010410405130800347344594369000513056301434132   1030000900030000   591219000970190110000000777Shwe Ohh Pharmacy St ( YANGONAW      MMR11005130800347344590513000000000000000   10300001F00104100000000000354000000000000     
100   62911028202057620000000000017600000000017600002000000010410405131006157375384369000513817361615132   1030000900030000   541119001359190110000000977Ocean PZD C 13         YANGONAUNG    MMR11005131006157375380513000000000000000   10300001F00104100000000001056000000000000     
100   95030301100316300000000000179000000000179000002000000010410405131125251133164369000513071541740132   1030000300030000   555510114689104519000012636Win Mobile                           MMR11005131125251133160513000000000000000   10300001 00104100000000010740000000000000     
100   95050316717221100000000000000980000000000980002000000010410405130243571357839386090513000007153536   1020000200030000   333400010001204104000000281Myanmar Soft-Gate Tech Yangon        MMR11005130243571357830513000000000000000   10300001F05104100000000000206000000000000     
100   95050311959900780000000000000980000000000980002000000010410405131255562556599623110513000007158454   1020000200030000   333400010001204104000000281Myanmar Soft-Gate Tech Yangon        MMR11005131255562556590513000000000000000   10300001F05104100000000000206000000000000     
100   62911028202788350000000000019000000000019000002000000010410405122349291929674369000513000007152930   1030000200030000   333800010001203104000003327KBZPay                 Yangon        MMR11005122349291929670513000000000000000   10300001F05104100000000003990000000000000     
100   95030314863516850000000000011000000000011000002000000010410405130702243224854369000513000007156117   1030000200030000   333800010001203104000003327KBZPay                 Yangon        MMR11005130702243224850513000000000000000   10300001F05104100000000002310000000000000     
100   95050311959900780000000000000980000000000980002000000010410405130423355335429655170513000007154659   1020000200030000   333400010001204104000000281Myanmar Soft-Gate Tech Yangon        MMR11005130423355335420513000000000000000   10300001F05104100000000000206000000000000     
100   62911028202290100000000000023050000000023050002000000010410405130938211117084369000513219071657132   1030000300030000   444410125393104519000021220Myanmar Bakery CoLtd                 MMR11005130938211117080513000000000000000   10300001 00104100000000002351000000000000     
100   95050312926040930000000000002940000000002940002000000010410405130652542254676605490513000007156036   1020000200030000   333400010001204104000000281Myanmar Soft-Gate Tech Yangon        MMR11005130652542254670513000000000000000   10300001F05104100000000000617000000000000     
100   95050312695033440000000000001960000000001960002000000010410405130916584658880003620513000007157342   1020000200030000   333400010001204104000000281Myanmar Soft-Gate Tech Yangon        MMR11005130916584658880513000000000000000   10300001F05104100000000000412000000000000     
100   62911028202261800000000000138950000000138950002000000010410405130409347287914369000513796391034132   1030000900030000   541119000161190110000000084Pro (1) Global (Pazund YANGONARTAUNG MMR11005130409347287910513000000000000000   10300001F00104100000000008337000000000000     
100   62911028202196800000000000003400000000003400002000000010410405130913227362044369000513031431522132   1030000900030000   581219000931190110000000740Shwe Palin City Mall   YANGONAW      MMR11005130913227362040513000000000000000   10300001F00104100000000000347000000000000     
100   62443100328070970000000000013100000000013100002000000010410405131040067384887890000513436101706132   1030000900030000   541119001509190110000001102Ocean MGDTM-C 2        YANGONADON    MMR11005131040067384880513000000000000000   10300001F00104100000000003275000000000000     
100   95050312926040930000000000010000000000010000002000000010410405130817514751989223970513000007156764   1030000200030000   333800010001203104000003327KBZPay                 Yangon        MMR11005130817514751980513000000000000000   10300001F05104100000000002100000000000000     
100   62911028202117290000000000143400000000143400002000000010410405130545487311264369000513120151248132   1030000900030000   591219000601190110000000441Shwe Ohh Pharmacy St-3 YANGON        MMR11005130545487311260513000000000000000   10300001F00104100000000008604000000000000     
100   95050312781844250000000000001000000000001000002000000010410405131529405940539765730513000007158954   1030000200030000   3334000100012031040000040102C2P (Myanmar) Co. Ltd Yangon        MMR11005131529405940530513000000000000000   10300001F05104100000000000210000000000000     
100   95050318808284430000000000053398000000053398002000000010410405131016097377756492810513960461609132   1030000900030000   541119001353190110000000977Ocean PZD C 7          YANGONAUNG    MMR11005131016097377750513000000000000000   10300001F00104100000000013350000000000000     
100   95050316736513170000000000000980000000000980002000000010410405130403353335056166220513000007154450   1020000200030000   333400010001204104000000281Myanmar Soft-Gate Tech Yangon        MMR11005130403353335050513000000000000000   10300001F05104100000000000206000000000000     
100   62911028202109290000000000017700000000017700002000000010410405131010281121884369000513730401603132   1030000500030000   555610115764104519000013506MarketplaceMyanmarPlaz Branch        MMR11005131010281121880513000000000000000   10300001 00104100000000001062000000000000     
100   95050310427855490000000000000980000000000980002000000010410405130252552255498705320513000007153599   1020000200030000   333400010001204104000000281Myanmar Soft-Gate Tech Yangon        MMR11005130252552255490513000000000000000   10300001F05104100000000000206000000000000     
100   95050315424817550000000000000980000000000980002000000010410405130603563356732924480513000007155574   1020000200030000   333400010001204104000000281Myanmar Soft-Gate Tech Yangon        MMR11005130603563356730513000000000000000   10300001F05104100000000000206000000000000     
100   62443100340422630000000000150000000000150000002000000010410405130956581120190818930513554271654132   1030000300030000   555510124685104519000020166Makro Myanmar                        MMR11005130956581120190513000000000000000   10300001 00104100000000036000000000000000     
100   95050312926040930000000000010500000000010500002000000010410405130351152115069180240513000007154283   1030000200030000   333800010001203104000003327KBZPay                 Yangon        MMR11005130351152115060513000000000000000   10300001F05104100000000002205000000000000     
100   95050328511810100000000000300000000000300000002000000010410405131108193819229128700513000007158070   1030000200030000   333800010001203104000003327KBZPay                 Yangon        MMR11005131108193819220513000000000000000   10300001F05104100000000063000000000000000     
100   95030367537085740000000000001960000000001960002000000010410405130009103910214369000513000007152963   1020000200030000   333400010001204104000000281Myanmar Soft-Gate Tech Yangon        MMR11005130009103910210513000000000000000   10300001F05104100000000000412000000000000     
100   95050312173216740000000000021000000000021000002000000010410405131016487377893102750513968461648132   1030000900030000   541119001261190110000000958City Mart PLST C 4     YANGONMYOTHIT MMR11005131016487377890513000000000000000   10300001F00104100000000005250000000000000     
100   62911028202662930000000000032974000000032974002000000010410405130427338482814369000513213311848281   1040001600030000   541120000563000000010000465Ocean Shwe Gone Daing  Yangon        MMR11005130427338482810513000000000000000   10300001F00104100000000001978000000000000     
100   95050324250133010000000000073031000000073031002000000010410405131059408714673454840513213317871467   1040001600030000   598320000911000000010000662MMTM - Tamwe           Ygn           MMR11005131059408714670513000000000000000   10300001F00104100000000008764000000000000     
100   95030301100134480000000000060000000000060000002000000010410405131154358766274369000513213318876627   1040001600030000   598320000323000000010000311PT Power Petrol Statio Mawlamyaing   MMR11005131154358766270513000000000000000   10300001F00104100000000001800000000000000     
100   95050320205194540000000000036800000000036800002000000010410405131017308678695350900513213317867869   1040001600030000   591220000281000000010000269Shwe Ohh Pharmacy (San Yangon        MMR11005131017308678690513000000000000000   10300001F00104100000000008832000000000000     
100   62911028202163630000000000017000000000017000002000000010410405130818548610954369000513213315861095   1040001600030000   598320000856000000010000609Terminal Petrol Statio Yangon        MMR11005130818548610950513000000000000000   10300001F00104100000000000510000000000000     
100   62911028202690160000000000018000000000018000002000000010410405130738547495534369000513085497872086   1040001400030000   565510000351025655100002171Amazing Sportswear nul No-161  Ahlon MMR11005130738547495530513000000000000000   10300001 00104100000000001080000000000000     
100   62443100372718280000000000052558000000052558002000000010410405131401417430421467660513303312041132   1030000900030000   701119000064190110000000024Lotte Hotel            YANGON        MMR11005131401417430420513000000000000000   10300001F00104100000000022337000000000000     
100   62911028202170490000000000016000000000016000002000000010410405130432081079434369000513093011140132   1030000300030000   444410100537104519000000526YKKO (Junction Square)               MMR11005130432081079430513000000000000000   10300001 00104100000000001632000000000000     
100   95050326426352250000000000050000000000050000002000000010410405130847551755333514440513000007157054   1030000200030000   333800010001203104000003327KBZPay                 Yangon        MMR11005130847551755330513000000000000000   10300001F05104100000000010500000000000000     
100   95050322312885760000000000015500000000015500002000000010410405131048541854201109880513000007158003   1030000200030000   333800010001203104000003327KBZPay                 Yangon        MMR11005131048541854200513000000000000000   10300001F05104100000000003255000000000000     
100   62911028202788350000000000020000000000020000002000000010410405130011244124354369000513000007152968   1030000200030000   333800010001203104000003327KBZPay                 Yangon        MMR11005130011244124350513000000000000000   10300001F05104100000000004200000000000000     
100   95050318057347910000000000000980000000000980002000000010410405130245291529005996020513000007153551   1020000200030000   333400010001204104000000281Myanmar Soft-Gate Tech Yangon        MMR11005130245291529000513000000000000000   10300001F05104100000000000206000000000000     
100   95050315099113150000000000000980000000000980002000000010410405130348071807177187370513000007154242   1020000200030000   333400010001204104000000281Myanmar Soft-Gate Tech Yangon        MMR11005130348071807170513000000000000000   10300001F05104100000000000206000000000000     
100   95050322312885760000000000007500000000007500002000000010410405131604513451650191240513000007159054   1030000200030000   333800010001203104000003327KBZPay                 Yangon        MMR11005131604513451650513000000000000000   10300001F05104100000000001575000000000000     
100   95050312298324450000000000001960000000001960002000000010410405131422565256871042200513000007158737   1020000200030000   333400010001204104000000281Myanmar Soft-Gate Tech Yangon        MMR11005131422565256870513000000000000000   10300001F05104100000000000412000000000000     
100   95050311876202380000000000030000000000030000002000000010410405110316360330812020720511213103033081   1030000600030000   554100001155315799420000607DENKO NPT 1            NAYPYITAW.    MMR11005110316360330810511000000000000000   10300001 00104100000000003600000000000000     
100   95050325388974590000000000044950000000044950002000000010410405130830148616512188550513213315861651   1040001600030000   591220000285000000010000273Shwe Ohh Pharmacy (47t Yangon        MMR11005130830148616510513000000000000000   10300001F00104100000000010788000000000000     
100   62911028202788350000000000010000000000010000002000000010410405130340091009624369000513000007154157   1030000200030000   333800010001203104000003327KBZPay                 Yangon        MMR11005130340091009620513000000000000000   10300001F05104100000000002100000000000000     
100   62443100372718280000000000420468000000420468002000000010410405131402277430611893120513318322027132   1030000900030000   701119000064190110000000024Lotte Hotel            YANGON        MMR11005131402277430610513000000000000000   10300001F00104100000000178699000000000000     
100   95050313640946520000000000014250000000014250002000000010410405131159498771054165540513213318877105   1040001600030000   541120000573000000010000465Ocean Shwe Gone Daing  Yangon        MMR11005131159498771050513000000000000000   10300001F00104100000000003563000000000000     
100   62911028202313470000000000008800000000008800002000000010410405130527341085964369000513760001232132   1030000500030000   555610110597104519000009166City Mart 47 Branch                  MMR11005130527341085960513000000000000000   10300001 00104100000000000528000000000000     
100   62911028202313470000000000036000000000036000002000000010410405130542168526434369000513213312852643   1040001600030000   591220000285000000010000273Shwe Ohh Pharmacy (47t Yangon        MMR11005130542168526430513000000000000000   10300001F00104100000000002160000000000000     
100   62911028202668140000000000024200000000024200002000000010410405131135017399794369000513411051801132   1030000900030000   581219000590190110000000430The Tea Club           YANGON        MMR11005131135017399790513000000000000000   10300001F00104100000000002468000000000000     
100   62911028202423360000000000006200000000006200002000000010410405130714491100124369000513284521334132   1030000500030000   555610104043104519000003821City Mart North Point  enter         MMR11005130714491100120513000000000000000   10300001 00104100000000000372000000000000     
100   95050316601084530000000000000980000000000980002000000010410405130352412241123967500513000007154308   1020000200030000   333400010001204104000000281Myanmar Soft-Gate Tech Yangon        MMR11005130352412241120513000000000000000   10300001F05104100000000000206000000000000     
100   62911028202769870000000000007840000000007840002000000010410405131505193519924369000513000007158849   1020000200030000   333400010001204104000000281Myanmar Soft-Gate Tech Yangon        MMR11005131505193519920513000000000000000   10300001F05104100000000001646000000000000     
100   95050319928585020000000000002000000000002000002000000010410405130157262726452781870513000007153297   1030000200030000   3338000100012031040000040022C2P (Myanmar) Co. Ltd Yangon        MMR11005130157262726450513000000000000000   10300001F05104100000000000420000000000000     
100   95050319709462380000000000000980000000000980002000000010410405130900303030302918760513000007157173   1020000200030000   333400010001204104000000281Myanmar Soft-Gate Tech Yangon        MMR11005130900303030300513000000000000000   10300001F05104100000000000206000000000000     
100   95030301100338180000000000008900000000008900002000000010410405130639151094634369000513682091353132   1030000500030000   555610110569104519000009163City Mart Ayeyarwon Br nch           MMR11005130639151094630513000000000000000   10300001 00104100000000000534000000000000     
100   62911028202461130000000000021700000000021700002000000010410405130854471111844369000513618251517132   1030000500030000   555610110574104519000009164City Mart China Town P int Cen       MMR11005130854471111840513000000000000000   10300001 00104100000000001302000000000000     
100   62911028202536710000000000010000000000010000002000000010410405130743411341064369000513000007156473   1030000300030000   333300010001206104000002147DICA Company Limited   Yangon        MMR11005130743411341060513000000000000000   10300001F05104100000000010000000000000000     
100   95050316717221100000000000000980000000000980002000000010410405130245031503526081120513000007153546   1020000200030000   333400010001204104000000281Myanmar Soft-Gate Tech Yangon        MMR11005130245031503520513000000000000000   10300001F05104100000000000206000000000000     
100   95050312695033440000000000002940000000002940002000000010410405131144241424271398720513000007158203   1020000200030000   333400010001204104000000281Myanmar Soft-Gate Tech Yangon        MMR11005131144241424270513000000000000000   10300001F05104100000000000617000000000000     
100   95030341448197210000000000040000000000040000002000000010410405120406460064814369000512213204006481   1030000600030000   554100000841315799420000373DENKO NYAUNG U         NYAUNG U      MMR11005120406460064810512000000000000000   10300001 00104100000000001200000000000000     
100   95050310750557450000000000003150000000003150002000000010410405130245128435344428630513213309843534   1040001600030000   591220000299000000010000287Shwe Ohh Pharmacy (Yan Yangon        MMR11005130245128435340513000000000000000   10300001F00104100000000000756000000000000     
100   95050316215826630000000000032400000000032400002000000010410405130317368450584889770513213310845058   1040001600030000   592120000399000000010000375Bo 1000 Fine Wines & L Yangon        MMR11005130317368450580513000000000000000   10300001F00104100000000007776000000000000     
100   95050315066440750000000000000980000000000980002000000010410405131209273927067569400513000007158282   1020000200030000   333400010001204104000000281Myanmar Soft-Gate Tech Yangon        MMR11005131209273927060513000000000000000   10300001F05104100000000000206000000000000     
100   95050317376014640000000000017800000000017800002000000010410405131234517415042038150513430041951132   1030000900030000   541119001363190110000000977Ocean PZD C17          YANGONAUNG    MMR11005131234517415040513000000000000000   10300001F00104100000000004450000000000000     
100   95050317317598540000000000007500000000007500002000000010410405130251147270183747860513887210914132   1030000900030000   541119000121190110000000080Sein Gay Har BAK       YANGONADA     MMR11005130251147270180513000000000000000   10300001F00104100000000001875000000000000     
100   95050316184853420000000000050000000000050000002000000010410405130248001800637648510513000007153564   1030000200030000   333800010001203104000003327KBZPay                 Yangon        MMR11005130248001800630513000000000000000   10300001F05104100000000010500000000000000     
100   95050312947607030000000000020000000000020000002000000010410405130600313031006229450513000007155550   1030000200030000   333800010001203104000003327KBZPay                 Yangon        MMR11005130600313031000513000000000000000   10300001F05104100000000004200000000000000     
100   95050314557307430000000000002940000000002940002000000010410405131400333033946998950513000007158671   1020000200030000   333400010001204104000000281Myanmar Soft-Gate Tech Yangon        MMR11005131400333033940513000000000000000   10300001F05104100000000000617000000000000     
100   95050328511810100000000000030000000000030000002000000010410405131111404140285228080513000007158095   1030000200030000   333800010001203104000003327KBZPay                 Yangon        MMR11005131111404140280513000000000000000   10300001F05104100000000006300000000000000     
100   62911028202789750000000000085000000000085000002000000010410405131132081135704369000513364111813132   1030000300030000   555510125344104519000010634Asia Royal Co Ltd                    MMR11005131132081135700513000000000000000   10300001 00104100000000005100000000000000     
100   62443101023815100000000000014432000000014432002000000010410405131236141143016789750513240051930132   1030000500030000   555610114572104519000012532City Mart Ahlone Branc               MMR11005131236141143010513000000000000000   10300001 00104100000000003608000000000000     
100   95050317084233280000000000000980000000000980002000000010410405131353022302946573450513000007158644   1020000200030000   333400010001204104000000281Myanmar Soft-Gate Tech Yangon        MMR11005131353022302940513000000000000000   10300001F05104100000000000206000000000000     
100   95050319928585020000000000002940000000002940002000000010410405130911074107699117010513000007157282   1020000200030000   333400010001204104000000281Myanmar Soft-Gate Tech Yangon        MMR11005130911074107690513000000000000000   10300001F05104100000000000617000000000000     
100   95050313970192050000000000058800000000058800002000000010410405131022167379353358040513055521616132   1030000900030000   541119000122190110000000080Sein Gay Har BAK       YANGONADA     MMR11005131022167379350513000000000000000   10300001F00104100000000014700000000000000     
100   95030333476006490000000000034300000000034300002000000010410405130634168558404369000513213313855840   1040001600030000   591220000275000000010000263Shwe Ohh Pharmacy (Hla Yangon        MMR11005130634168558400513000000000000000   10300001F00104100000000002058000000000000     
100   95050314635839930000000000010700000000010700002000000010410405131041147385236152430513459111714132   1030000900030000   541119000112190110000000077Sein Gay Har Chinatown YANGON        MMR11005131041147385230513000000000000000   10300001F00104100000000002675000000000000     
100   95050316311487940000000000008000000000008000002000000010410405130336107278999265340513337061010132   1030000900030000   541119001363190110000000977Ocean PZD C17          YANGONAUNG    MMR11005130336107278990513000000000000000   10300001F00104100000000002000000000000000     
100   95050310616516480000000000009800000000009800002000000010410405130044071407772526580513000007153015   1020000200030000   333400010001204104000000281Myanmar Soft-Gate Tech Yangon        MMR11005130044071407770513000000000000000   10300001F05104100000000002058000000000000     
100   95050318057347910000000000000980000000000980002000000010410405130242271227117733600513000007153522   1020000200030000   333400010001204104000000281Myanmar Soft-Gate Tech Yangon        MMR11005130242271227110513000000000000000   10300001F05104100000000000206000000000000     
100   95050319928585020000000000001960000000001960002000000010410405130555232523983009580513000007155501   1020000200030000   333400010001204104000000281Myanmar Soft-Gate Tech Yangon        MMR11005130555232523980513000000000000000   10300001F05104100000000000412000000000000     
100   95050328035424750000000000118314000000118314002000000010410405130817251107649564350513103511428132   1030000500030000   555610103969104519000003818Ocean Oattara Thiri Na PyiTaw        MMR11005130817251107640513000000000000000   10300001 00104100000000029579000000000000     
100   62443100333488440000000000011450000000011450002000000010410405130920101115195216360513991521510132   1030000500030000   555610123193104519000019444Neighbourhood Shwe Moe Kaung         MMR11005130920101115190513000000000000000   10300001 00104100000000002863000000000000     
100   95050311273457710000000000180000000000180000002000000010410405131400363036023523780513000007158670   1030000200030000   333800010001203104000003327KBZPay                 Yangon        MMR11005131400363036020513000000000000000   10300001F05104100000000037800000000000000     
100   95050312695033440000000000001960000000001960002000000010410405130324525452069762130513000007153986   1020000200030000   333400010001204104000000281Myanmar Soft-Gate Tech Yangon        MMR11005130324525452060513000000000000000   10300001F05104100000000000412000000000000     
100   95030301100338180000000000038250000000038250002000000010410405130630591093514369000513549001357132   1030000500030000   555610110557104519000009163City Mart Ayeyarwon Br nch           MMR11005130630591093510513000000000000000   10300001 00104100000000002295000000000000     
100   95050313732480420000000000002940000000002940002000000010410405130341081108827527760513000007154167   1020000200030000   333400010001204104000000281Myanmar Soft-Gate Tech Yangon        MMR11005130341081108820513000000000000000   10300001F05104100000000000617000000000000     
100   95030378062733680000000000066396000000066396002000000010410405130856141111924369000513626251548132   1030000500030000   555610103981104519000003818Ocean Oattara Thiri Na PyiTaw        MMR11005130856141111920513000000000000000   10300001 00104100000000003984000000000000     
100   62911028202773650000000000010000000000010000002000000010410405130847341734644369000513000007157047   1030000200030000   333800010001203104000003327KBZPay                 Yangon        MMR11005130847341734640513000000000000000   10300001F05104100000000002100000000000000     
100   62911028202536710000000000010000000000010000002000000010410405130803253325324369000513000007156645   1030000300030000   333300010001206104000002147DICA Company Limited   Yangon        MMR11005130803253325320513000000000000000   10300001F05104100000000010000000000000000     
100   95050317728825080000000000004900000000004900002000000010410405130605253525252839380513000007155597   1020000200030000   333400010001204104000000281Myanmar Soft-Gate Tech Yangon        MMR11005130605253525250513000000000000000   10300001F05104100000000001029000000000000     
100   95050328035424750000000000012000000000012000002000000010410405130811141106864266520513016451403132   1030000500030000   555610103969104519000003818Ocean Oattara Thiri Na PyiTaw        MMR11005130811141106860513000000000000000   10300001 00104100000000003000000000000000     
100   95050317176867660000000000001960000000001960002000000010410405131351462146117424410513000007158638   1020000200030000   333400010001204104000000281Myanmar Soft-Gate Tech Yangon        MMR11005131351462146110513000000000000000   10300001F05104100000000000412000000000000     
100   95050314302558730000000000005880000000005880002000000010410405131452332233374091910513000007158820   1020000200030000   333400010001204104000000281Myanmar Soft-Gate Tech Yangon        MMR11005131452332233370513000000000000000   10300001F05104100000000001235000000000000     
100   95050315066440750000000000001960000000001960002000000010410405131207123712057143900513000007158277   1020000200030000   333400010001204104000000281Myanmar Soft-Gate Tech Yangon        MMR11005131207123712050513000000000000000   10300001F05104100000000000412000000000000     
100   95050323481251170000000000060000000000060000002000000010410405131240511051235087780513000007158395   1030000200030000   333800010001203104000003327KBZPay                 Yangon        MMR11005131240511051230513000000000000000   10300001F05104100000000012600000000000000     
100   62911028202423360000000000003000000000003000002000000010410405130726561101034369000513386591351132   1030000500030000   555610104020104519000003821City Mart North Point  enter         MMR11005130726561101030513000000000000000   10300001 00104100000000000180000000000000     
100   95050319451859610000000000200000000000200000002000000010410405131404293429054942830513000007158684   1030000200030000   333800010001203104000003327KBZPay                 Yangon        MMR11005131404293429050513000000000000000   10300001F05104100000000042000000000000000     
100   95050325630928770000000000000980000000000980002000000010410405130608263826093264870513000007155623   1020000200030000   333400010001204104000000281Myanmar Soft-Gate Tech Yangon        MMR11005130608263826090513000000000000000   10300001F05104100000000000206000000000000     
100   95050313817486860000000000003920000000003920002000000010410405131157312731991115840513000007158242   1020000200030000   333400010001204104000000281Myanmar Soft-Gate Tech Yangon        MMR11005131157312731990513000000000000000   10300001F05104100000000000823000000000000     
100   62911028202491330000000000034963000000034963002000000010410405131558020214924369000513000746989530   1030000200030000   541188001001000008000000008KBZ BANK               MARKETPLACE - MMR11005131558020214920513000000000000000   10300001 00104100000000002098000000000000     
100   62443100333488440000000000030700000000030700002000000010410405130713301099103635190513169441353132   1030000300030000   444410106710104519000005921YKKO Bahan 2                         MMR11005130713301099100513000000000000000   10300001 00104100000000013048000000000000     
100   95050322312885760000000000005500000000005500002000000010410405130402393239794598830513000007154441   1030000200030000   333800010001203104000003327KBZPay                 Yangon        MMR11005130402393239790513000000000000000   10300001F05104100000000001155000000000000     
100   95050317317598540000000000025150000000025150002000000010410405130609023902954917350513000007155629   1030000200030000   333800010001203104000003327KBZPay                 Yangon        MMR11005130609023902950513000000000000000   10300001F05104100000000005282000000000000     
100   95050310750557450000000000034250000000034250002000000010410405130859561112384656350513674291508132   1030000500030000   555610103464104519000003420City Mart Yankin Cente 3             MMR11005130859561112380513000000000000000   10300001 00104100000000008563000000000000     
100   95050326493030660000000000020000000000020000002000000010410405131241431143536147940513000007158396   1030000200030000   333800010001203104000003327KBZPay                 Yangon        MMR11005131241431143530513000000000000000   10300001F05104100000000004200000000000000     
100   95050325630928770000000000000980000000000980002000000010410405130605023502544576960513000007155589   1020000200030000   333400010001204104000000281Myanmar Soft-Gate Tech Yangon        MMR11005130605023502540513000000000000000   10300001F05104100000000000206000000000000     
100   95050312020318170000000000001000000000001000002000000010410405130400003000366336410513000007154383   1030000200030000   333800010001203104000003327KBZPay                 Yangon        MMR11005130400003000360513000000000000000   10300001F05104100000000000210000000000000     
100   62911028202788350000000000010000000000010000002000000010410405131259172917584369000513000007158469   1030000200030000   333800010001203104000003327KBZPay                 Yangon        MMR11005131259172917580513000000000000000   10300001F05104100000000002100000000000000     
100   95050316573091630000000000020000000000020000002000000010410405130410494049757832490513000007154529   1030000200030000   333800010001203104000003327KBZPay                 Yangon        MMR11005130410494049750513000000000000000   10300001F05104100000000004200000000000000     
100   95050312926040930000000000015000000000015000002000000010410405131416374637918418000513000007158717   1030000200030000   333800010001203104000003327KBZPay                 Yangon        MMR11005131416374637910513000000000000000   10300001F05104100000000003150000000000000     
100   95030346130941600000000000044980000000044980002000000010410405120448470046904369000512000344668013   1030000300030000   806200000192000000000000097CB BANK                AUNG YADANA H MMR11005120448470046900512000000000000000   10300001F00104100000000002699000000000000     
100   62911028202357510000000000023600000000023600002000000010410405131030291125234369000513125021706132   1030000500030000   555610110570104519000009164City Mart China Town P int Cen       MMR11005131030291125230513000000000000000   10300001 00104100000000001416000000000000     
100   95050311780044340000000000004900000000004900002000000010410405130156072607037739320513000007153291   1020000200030000   333400010001204104000000281Myanmar Soft-Gate Tech Yangon        MMR11005130156072607030513000000000000000   10300001F05104100000000001029000000000000     
100   62911028202328650000000000016951000000016951002000000010410405131809270127744369000513000746995531   1030000200030000   541188001019000008000000298KBZ BANK               CITY MART - M MMR11005131809270127740513000000000000000   10300001 00104100000000001017000000000000     
100   95030301100126890000000000084500000000084500002000000010410405131005051121744369000513716391607132   1030000300030000   555510120542104519000017441Art and T8                           MMR11005131005051121740513000000000000000   10300001 00104100000000005070000000000000     
100   95050327192897240000000000010500000000010500002000000010410405130414467288814782810513836441046132   1030000900030000   541119000124190110000000080Sein Gay Har BAK       YANGONADA     MMR11005130414467288810513000000000000000   10300001F00104100000000002625000000000000     
100   95050312695033440000000000011760000000011760002000000010410405130453092309990116300513000007154944   1020000200030000   333400010001204104000000281Myanmar Soft-Gate Tech Yangon        MMR11005130453092309990513000000000000000   10300001F05104100000000002470000000000000     
100   62443100330108240000000000004900000000004900002000000010410405130323305330684464290513000007153962   1020000200030000   333400010001204104000000281Myanmar Soft-Gate Tech Yangon        MMR11005130323305330680513000000000000000   10300001F05104100000000001029000000000000     
100   62443100372702000000000001000000000001000000002000000010410405131024575457216663010513000007157886   1040001600030000   333800010001220104000004507A +                    Yangon        MMR11005131024575457210513000000000000000   10300001F05104100000000210000000000000000     
100   95050316949180000000000000005880000000005880002000000010410405131021555155124755230513000007157876   1020000200030000   333400010001204104000000281Myanmar Soft-Gate Tech Yangon        MMR11005131021555155120513000000000000000   10300001F05104100000000001235000000000000     
100   95050311184380560000000000001960000000001960002000000010410405130921555155356868850513000007157372   1020000200030000   333400010001204104000000281Myanmar Soft-Gate Tech Yangon        MMR11005130921555155350513000000000000000   10300001F05104100000000000412000000000000     
100   95050314542175100000000000030000000000030000002000000010410405131121565156215370660513000007158119   1030000200030000   333800010001203104000003327KBZPay                 Yangon        MMR11005131121565156210513000000000000000   10300001F05104100000000006300000000000000     
100   62911028202423360000000000009700000000009700002000000010410405130727301100714369000513348571317132   1030000500030000   555610104031104519000003821City Mart North Point  enter         MMR11005130727301100710513000000000000000   10300001 00104100000000000582000000000000     
100   95050319938772870000000000005000000000005000002000000010410405131324215421914446060513000007158535   1040001600030000   333800010001220104000004507A +                    Yangon        MMR11005131324215421910513000000000000000   10300001F05104100000000001050000000000000     
100   62911028202187730000000000027150000000027150002000000010410405130602491089744369000513142321206132   1030000500030000   555610122985104519000019269City Mart Supermarket  hanlyin       MMR11005130602491089740513000000000000000   10300001 00104100000000001629000000000000     
100   95050312298324450000000000000980000000000980002000000010410405131427475747267567030513000007158746   1020000200030000   333400010001204104000000281Myanmar Soft-Gate Tech Yangon        MMR11005131427475747260513000000000000000   10300001F05104100000000000206000000000000     
100   95050317176867660000000000001960000000001960002000000010410405130703083308910080650513000007156125   1020000200030000   333400010001204104000000281Myanmar Soft-Gate Tech Yangon        MMR11005130703083308910513000000000000000   10300001F05104100000000000412000000000000     
100   62911028202074950000000000001800000000001800002000000010410405130507491083184369000513469391116132   1030000500030000   555610112532104519000010487Ocean Super Center St  ohn           MMR11005130507491083180513000000000000000   10300001 00104100000000000108000000000000     
100   62911028202788350000000000030000000000030000002000000010410405131352342234914369000513000007158643   1030000200030000   333800010001203104000003327KBZPay                 Yangon        MMR11005131352342234910513000000000000000   10300001F05104100000000006300000000000000     
100   95050322312885760000000000004500000000004500002000000010410405130446081608490286500513000007154875   1030000200030000   333800010001203104000003327KBZPay                 Yangon        MMR11005130446081608490513000000000000000   10300001F05104100000000000945000000000000     
100   95050321057500320000000000004900000000004900002000000010410405130902473247315713150513000007157195   1020000200030000   333400010001204104000000281Myanmar Soft-Gate Tech Yangon        MMR11005130902473247310513000000000000000   10300001F05104100000000001029000000000000     
100   62911028202170490000000000004100000000004100002000000010410405130448057297054369000513304181105132   1030000900030000   541119001257190110000000957City Mart JS City Care YANGONUT      MMR11005130448057297050513000000000000000   10300001F00104100000000000246000000000000     
100   62911028202788350000000000021000000000021000002000000010410405131316314631804369000513000007158513   1030000200030000   333800010001203104000003327KBZPay                 Yangon        MMR11005131316314631800513000000000000000   10300001F05104100000000004410000000000000     
100   62911028202203320000000000229400000000229400002000000010410405120334150000804369000512213210000080   1030000500030000   531120201603000085311202016STJ BLAZON             PTN           MMR11005120334150000800512000000000000000   10300001 00104100000000013764000000000000     
100   62911028202150190000000000020000000000020000002000000010410405120816570011594369000512213214001159   1030000500030000   598320001302000015172200013MAX ENERGY             PTN           MMR11005120816570011590512000000000000000   10300001 00104100000000000600000000000000     
100   62443100315110470000000000018000000000018000002000000010410405120732560003791151240512213214000379   1030000500030000   569120104001008205691201040ESCORT ( CITY MALL-ST. PTN           MMR11005120732560003790512000000000000000   10300001 00104100000000004320000000000000     
100   62911028202668300000000000020000000000020000002000000010410405120253400008714369000512213209000871   1030000500030000   598320001403000015172200014MAX ENERGY             PTN           MMR11005120253400008710512000000000000000   10300001 00104100000000000600000000000000     
100   95050320531117320000000000070000000000070000002000000010410405121228280009237107990512213218000923   1030000500030000   598320002702000015172200027MAX ENERGY             PTN           MMR11005121228280009230512000000000000000   10300001 00104100000000008400000000000000     
100   95050324826664210000000000052000000000052000002000000010410405121048170011787774980512213217001178   1030000500030000   598320001401000015172200014MAX ENERGY             PTN           MMR11005121048170011780512000000000000000   10300001 00104100000000006240000000000000     
100   95030380891034700000000000050000000000050000002000000010410405121229290002704369000512213218000270   1030000500030000   541120024604022205411200246ORANGE (THANLYIN)      PTN           MMR11005121229290002700512000000000000000   10300001 00104100000000003000000000000000     
100   62911028202203320000000000329900000000329900002000000010410405120707060001344369000512213213000134   1030000500030000   531120201602000085311202016STJ BLAZON             PTN           MMR11005120707060001340512000000000000000   10300001 00104100000000019794000000000000     
100   95050310534130230000000000021200000000021200002000000010410405131120447396191895490513174501744132   1030000900030000   541119001206190110000000948City Mart YK C 4       YANGONAUNG    MMR11005131120447396190513000000000000000   10300001F00104100000000005300000000000000     
100   62911028202169750000000000023600000000023600002000000010410405120609320001344369000512213212000134   1030000500030000   591220012001014405912200120SHWE OHH PHARMACY      PTN           MMR11005120609320001340512000000000000000   10300001 00104100000000001416000000000000     
100   95050312173216740000000000005000000000005000002000000010410405131019157378501365170513007491615132   1030000900030000   541119001274190110000000961City Mart PLST City Ca YANGONMYOTHIT MMR11005131019157378500513000000000000000   10300001F00104100000000001250000000000000     
100   62443100379321630000000000024000000000024000002000000010410405121301390011471469770512213219001147   1030000500030000   598320001203000015172200012MAX ENERGY             PTN           MMR11005121301390011470512000000000000000   10300001 00104100000000002880000000000000     
100   62911028202159020000000000019900000000019900002000000010410405131145137402744369000513613151813132   1030000900030000   541119001187190110000000942City Mart HDC C 2      YANGONUT      MMR11005131145137402740513000000000000000   10300001F00104100000000001194000000000000     
100   95050316311487940000000000005500000000005500002000000010410405130335047278742655400513326051004132   1030000900030000   541119001363190110000000977Ocean PZD C17          YANGONAUNG    MMR11005130335047278740513000000000000000   10300001F00104100000000001375000000000000     
100   95030301100126550000000000055000000000055000002000000010410405111155410637614369000511213111063761   1030000600030000   554100000952315799420000474DENKO N.DAGON - 1      YANGON        MMR11005111155410637610511000000000000000   10300001 00104100000000001650000000000000     
100   95050312539675540000000000013354000000013354002000000010410405131859440030150761690513000746997629   1030000200030000   541188001354000008000000395KBZ BANK               OCEAN SUPERMA MMR11005131859440030150513000000000000000   10300001 00104100000000003339000000000000     
100   95050311076838860000000000005150000000005150002000000010410405121100330003103789230512213217000310   1030000500030000   541120020701022205411200207ORANGE (YDG)           PTN           MMR11005121100330003100512000000000000000   10300001 00104100000000001288000000000000     
100   95030301100121270000000000034750000000034750002000000010410405120332450000154369000512213210000015   1030000500030000   591220014201014405912200142SHWE OHH PHARMACY      PTN           MMR11005120332450000150512000000000000000   10300001 00104100000000002085000000000000     
100   62911028202203320000000000186000000000186000002000000010410405120711350000834369000512213213000083   1030000500030000   531120201603000085311202016STJ BLAZON             PTN           MMR11005120711350000830512000000000000000   10300001 00104100000000011160000000000000     
100   62911028202112400000000000024224000000024224002000000010410405120251130005894369000512213209000589   1030000500030000   598320001604000015172200016MAX ENERGY             PTN           MMR11005120251130005890512000000000000000   10300001 00104100000000000727000000000000     
100   95050316901496590000000000008772000000008772002000000010410405121030180000639852940512213217000063   1030000500030000   541120045801009205411200458126 STORE              PTN           MMR11005121030180000630512000000000000000   10300001 00104100000000002193000000000000     
100   62443100375796910000000000090000000000090000002000000010410405120421570006399015760512213210000639   1030000500030000   598320001601000015172200016MAX ENERGY             PTN           MMR11005120421570006390512000000000000000   10300001 00104100000000010800000000000000     
100   62911028202440680000000000005900000000005900002000000010410405120502500000794369000512213211000079   1030000500030000   591220014301014405912200143SHWE OHH PHARMACY      PTN           MMR11005120502500000790512000000000000000   10300001 00104100000000000354000000000000     
100   95050311076838860000000000011400000000011400002000000010410405121054160003085952290512213217000308   1030000500030000   541120020701022205411200207ORANGE (YDG)           PTN           MMR11005121054160003080512000000000000000   10300001 00104100000000002850000000000000     
100   95050315745833530000000000029700000000029700002000000010410405131544550008131826300513000746989028   1030000200030000   541188001487000008000000399KBZ BANK               OCEAN SUPERCE MMR11005131544550008130513000000000000000   10300001 00104100000000007425000000000000     
100   95050318808284430000000000120000000000120000002000000010410405131133580001459200020513000746995240   1030000200030000   509488001918000008000005406KBZ BANK               SEIN NAN TAW  MMR11005131133580001450513000000000000000   10300001 00104100000000048000000000000000     
100   62911028202509170000000000041050000000041050002000000010410405131841590023894369000513000746996922   1030000200030000   541188001005000008000000008KBZ BANK               MARKETPLACE - MMR11005131841590023890513000000000000000   10300001 00104100000000002463000000000000     
100   62443101053241940000000000099900000000099900002000000010410405130914240001420173820513000746988998   1030000200030000   569988002492000008000006651KBZ BANK               JC-MANGO      MMR11005130914240001420513000000000000000   10300001 00104100000000023976000000000000     
100   95050316438375580000000000024550000000024550002000000010410405131649320016694840330513000746991713   1030000200030000   541188001479000008000000399KBZ BANK               OCEAN SUPERCE MMR11005131649320016690513000000000000000   10300001 00104100000000006138000000000000     
100   95030301100124400000000000064000000000064000002000000010410405130126340034334369000513000746962468   1030000200030000   591288000181000008000002044KBZ BANK               PINLON PHARMA MMR11005130126340034330513000000000000000   10300001 00104100000000003840000000000000     
100   62911028202690160000000000025800000000025800002000000010410405131108470006964369000513000746994031   1030000200030000   569988000801000008000004608KBZ BANK               SGP-IPANEMA   MMR11005131108470006960513000000000000000   10300001 00104100000000001548000000000000     
100   62443100340422630000000000049600000000049600002000000010410405131802110014802675180513000746995174   1030000200030000   541188001008000008000000008KBZ BANK               MARKETPLACE - MMR11005131802110014800513000000000000000   10300001 00104100000000012400000000000000     
100   95030301100129110000000000045000000000045000002000000010410405121215440009784369000512213218000978   1030000500030000   598320001403000015172200014MAX ENERGY             PTN           MMR11005121215440009780512000000000000000   10300001 00104100000000001350000000000000     
100   62443100333488440000000000013900000000013900002000000010410405120418030004017958950512213210000401   1030000500030000   503920036601000015039200366PRO-1 HOME CENTER      PTN           MMR11005120418030004010512000000000000000   10300001 00104100000000003336000000000000     
100   95030305700676370000000000050000000000050000002000000010410405121001290000834369000512213216000083   1030000500030000   598320115101005405983201151PT POWER (HLEGU)       PTN           MMR11005121001290000830512000000000000000   10300001 00104100000000001500000000000000     
100   62911028202207380000000000017000000000017000002000000010410405120542100001754369000512213212000175   1030000500030000   531120155805000045311201558GAMONE PWINT           PTN           MMR11005120542100001750512000000000000000   10300001 00104100000000001020000000000000     
100   62911028202593060000000000014500000000014500002000000010410405121203000003194369000512213218000319   1030000500030000   541120020701022205411200207ORANGE (YDG)           PTN           MMR11005121203000003190512000000000000000   10300001 00104100000000000870000000000000     
100   95030305700676370000000000003675000000003675002000000010410405120500460050134369000512213205005013   1030000600030000   581200000604315799420000201THE COFFEEBEAN&TEALEAF YANGON        MMR11005120500460050130512000000000000000   10300001 00104100000000000375000000000000     
100   95030346130941600000000000025000000000025000002000000010410405120404430046874369000512000344662432   1030000300030000   806200000192000000000000097CB BANK                AUNG YADANA H MMR11005120404430046870512000000000000000   10300001F00104100000000001500000000000000     
100   62911028202174450000000000040000000000040000002000000010410405120645590176674369000512213206017667   1030000600030000   554100002085315799420000471DENKO BAHAN            YANGON        MMR11005120645590176670512000000000000000   10300001 00104100000000001200000000000000     
