100   95050316601084530000000000000980000000000980002000000010410405160232420242795301750516000007171298   1020000200030000   333400010001204104000000281Myanmar Soft-Gate Tech Yangon        MMR11005160232420242790516000000000000000   10300001F05104100000000000206000000000000     
100   95050315330275830000000000001960000000001960002000000010410405160834180418430199040516000007175754   1020000200030000   333400010001204104000000281Myanmar Soft-Gate Tech Yangon        MMR11005160834180418430516000000000000000   10300001F05104100000000000412000000000000     
100   95050315330275830000000000000980000000000980002000000010410405161538550855867673720516000007177886   1020000200030000   333400010001204104000000281Myanmar Soft-Gate Tech Yangon        MMR11005161538550855860516000000000000000   10300001F05104100000000000206000000000000     
100   62911028202369990000000000300000000000300000002000000010410405160639320932254369000516000007174516   1030000200030000   333800010001203104000003327KBZPay                 Yangon        MMR11005160639320932250516000000000000000   10300001F05104100000000063000000000000000     
100   95050319978637470000000000005000000000005000002000000010410405160234380438121826540516000007171316   1030000200030000   3338000100012031040000040022C2P (Myanmar) Co. Ltd Yangon        MMR11005160234380438120516000000000000000   10300001F05104100000000001050000000000000     
100   95050319111666800000000000000980000000000980002000000010410405152233370337198104920516000007170341   1020000200030000   333400010001204104000000281Myanmar Soft-Gate Tech Yangon        MMR11005152233370337190516000000000000000   10300001F05104100000000000206000000000000     
100   95050312240830690000000000000980000000000980002000000010410405161231040104478170510516000007177195   1020000200030000   333400010001204104000000281Myanmar Soft-Gate Tech Yangon        MMR11005161231040104470516000000000000000   10300001F05104100000000000206000000000000     
100   95050319161596230000000000000980000000000980002000000010410405160231140114623882660516000007171284   1020000200030000   333400010001204104000000281Myanmar Soft-Gate Tech Yangon        MMR11005160231140114620516000000000000000   10300001F05104100000000000206000000000000     
100   95050316812885810000000000003920000000003920002000000010410405160512324232774431990516000007173599   1020000200030000   333400010001204104000000281Myanmar Soft-Gate Tech Yangon        MMR11005160512324232770516000000000000000   10300001F05104100000000000823000000000000     
100   62911028202010500000000000025000000000025000002000000010410405151218420005404369000515213518000540   1030000500030000   531120155714000045311201557GAMONE PWINT           PTN           MMR11005151218420005400515000000000000000   10300001 00104100000000001500000000000000     
100   95050312695033440000000000003920000000003920002000000010410405161153282328948851280516000007177075   1020000200030000   333400010001204104000000281Myanmar Soft-Gate Tech Yangon        MMR11005161153282328940516000000000000000   10300001F05104100000000000823000000000000     
100   62443100306416880000000000010164000000010164002000000010410405161236278047104780450516650061927135   1030000900030000   581219000981190110000000788Jo Jo Hot Pot (KTY)    YANGONARTAUNG MMR11005161236278047100516000000000000000   10300001F00104100000000004320000000000000     
100   95050311077567400000000000001960000000001960002000000010410405160619124912405958010516000007174340   1020000200030000   333400010001204104000000281Myanmar Soft-Gate Tech Yangon        MMR11005160619124912400516000000000000000   10300001F05104100000000000412000000000000     
100   95050316997303010000000000015000000000015000002000000010410405160301123112958919500516000007171549   1030000200030000   333800010001203104000003327KBZPay                 Yangon        MMR11005160301123112950516000000000000000   10300001F05104100000000003150000000000000     
100   95050316586367540000000000002940000000002940002000000010410405160341191119938950170516000007172202   1020000200030000   333400010001204104000000281Myanmar Soft-Gate Tech Yangon        MMR11005160341191119930516000000000000000   10300001F05104100000000000617000000000000     
100   95030367537085740000000000000980000000000980002000000010410405160458032803194369000516000007173410   1020000200030000   333400010001204104000000281Myanmar Soft-Gate Tech Yangon        MMR11005160458032803190516000000000000000   10300001F05104100000000000206000000000000     
100   62443100348951400000000000300000000000300000002000000010410405161435060506714964430516000007177674   1030000200030000   333800010001203104000003327KBZPay                 Yangon        MMR11005161435060506710516000000000000000   10300001F05104100000000063000000000000000     
100   62911028202369990000000000300000000000300000002000000010410405160236150615704369000516000007171322   1030000200030000   333800010001203104000003327KBZPay                 Yangon        MMR11005160236150615700516000000000000000   10300001F05104100000000063000000000000000     
100   95030325264619140000000000019033000000019033002000000010410405160445530571624369000516213611057162   1040001600030000   541120000563000000010000465Ocean Shwe Gone Daing  Yangon        MMR11005160445530571620516000000000000000   10300001F00104100000000001142000000000000     
100   95050310332595380000000000001960000000001960002000000010410405161233100310444865550516000007177207   1020000200030000   333400010001204104000000281Myanmar Soft-Gate Tech Yangon        MMR11005161233100310440516000000000000000   10300001F05104100000000000412000000000000     
100   62443100345308040000000000002500000000002500002000000010410405152035110511839757400516000007170280   1030000900030000   333400010001202104000002022ACS                    Yangon        MMR11005152035110511830516000000000000000   10300001F05104100000000000525000000000000     
100   62911028202788350000000000020000000000020000002000000010410405161035080508324369000516000007176746   1030000200030000   333800010001203104000003327KBZPay                 Yangon        MMR11005161035080508320516000000000000000   10300001F05104100000000004200000000000000     
100   95050311959900780000000000001960000000001960002000000010410405160540161016720204750516000007173922   1020000200030000   333400010001204104000000281Myanmar Soft-Gate Tech Yangon        MMR11005160540161016720516000000000000000   10300001F05104100000000000412000000000000     
100   62443100360763680000000000004900000000004900002000000010410405160042581258837764540516000007170625   1020000200030000   333400010001204104000000281Myanmar Soft-Gate Tech Yangon        MMR11005160042581258830516000000000000000   10300001F05104100000000001029000000000000     
100   62911028202668140000000000104750000000104750002000000010410405161007168015114369000516628371616135   1030000900030000   541119001281190110000000963City Mart SPL C6       YANGONMYOTHIT MMR11005161007168015110516000000000000000   10300001F00104100000000006285000000000000     
100   62911028202686950000000000099100000000099100002000000010410405150601330001574369000515213512000157   1030000500030000   541120129726000045411201297MAKRO MYANMAR          PTN           MMR11005150601330001570515000000000000000   10300001 00104100000000005946000000000000     
100   95050326393773020000000000002940000000002940002000000010410405160611134113352233270516000007174239   1020000200030000   333400010001204104000000281Myanmar Soft-Gate Tech Yangon        MMR11005160611134113350516000000000000000   10300001F05104100000000000617000000000000     
100   95050313817486860000000000004900000000004900002000000010410405160251512151035727210516000007171480   1020000200030000   333400010001204104000000281Myanmar Soft-Gate Tech Yangon        MMR11005160251512151030516000000000000000   10300001F05104100000000001029000000000000     
100   95050319835237500000000000112000000000112000002000000010410405161248438048903127970516754181943135   1030000900030000   541119001305190110000000968Ocean Mingalar MDY C 1 MANDALAYHARSI MMR11005161248438048900516000000000000000   10300001F00104100000000028000000000000000     
100   95050314996291580000000000000980000000000980002000000010410405161221365136028255610516000007177172   1020000200030000   333400010001204104000000281Myanmar Soft-Gate Tech Yangon        MMR11005161221365136020516000000000000000   10300001F05104100000000000206000000000000     
100   95050322312885760000000000015000000000015000002000000010410405160914324432672021710516000007176087   1030000200030000   333800010001203104000003327KBZPay                 Yangon        MMR11005160914324432670516000000000000000   10300001F05104100000000003150000000000000     
100   62443100306045460000000000177450000000177450002000000010410405161120338031257028610516605501733135   1030000900030000   541119001283190110000000963City Mart SPL C 8      YANGONMYOTHIT MMR11005161120338031250516000000000000000   10300001F00104100000000044363000000000000     
100   62911028202474000000000000045378000000045378002000000010410405161631360217534369000516000747115982   1030000200030000   541188001001000008000000008KBZ BANK               MARKETPLACE - MMR11005161631360217530516000000000000000   10300001 00104100000000002723000000000000     
100   62911028202491090000000000020000000000020000002000000010410405160332010201664369000516000007172049   1030000900030000   333400010001202104000002022ACS                    Yangon        MMR11005160332010201660516000000000000000   10300001F05104100000000004200000000000000     
100   62911028202225850000000000017400000000017400002000000010410405161025420113034369000516000747093796   1030000200030000   541188001081000008000000294KBZ BANK               CITY MART - J MMR11005161025420113030516000000000000000   10300001 00104100000000001044000000000000     
100   95050312498129060000000000004900000000004900002000000010410405161232510251969823000516000007177204   1020000200030000   333400010001204104000000281Myanmar Soft-Gate Tech Yangon        MMR11005161232510251960516000000000000000   10300001F05104100000000001029000000000000     
100   62911028202281450000000000110300000000110300002000000010410405160447550572614369000516213611057261   1040001600030000   591220000287000000010000275Shwe Ohh Pharmacy (Wit Yangon        MMR11005160447550572610516000000000000000   10300001F00104100000000006618000000000000     
100   62911028202289130000000000030000000000030000002000000010410405160449130573314369000516213611057331   1040001600030000   598320000658000000010000527Shwe Taung Energy (YGN Yangon        MMR11005160449130573310516000000000000000   10300001F00104100000000000900000000000000     
100   95050316442084030000000000002940000000002940002000000010410405160143371337076506870516000007170946   1020000200030000   333400010001204104000000281Myanmar Soft-Gate Tech Yangon        MMR11005160143371337070516000000000000000   10300001F05104100000000000617000000000000     
100   62443100360763680000000000009800000000009800002000000010410405160044561456566026960516000007170636   1020000200030000   333400010001204104000000281Myanmar Soft-Gate Tech Yangon        MMR11005160044561456560516000000000000000   10300001F05104100000000002058000000000000     
100   95050317043153610000000000027530000000027530002000000010410405161052448025491099440516264221744135   1030000900030000   541119001357190110000000977Ocean PZD C 11         YANGONAUNG    MMR11005161052448025490516000000000000000   10300001F00104100000000006883000000000000     
100   62911028202527490000000000039001000000039001002000000010410405150627210016534369000515213512001653   1030000500030000   598320001004000015172200010MAX ENERGY             PTN           MMR11005150627210016530515000000000000000   10300001 00104100000000001170000000000000     
100   95030307100064460000000000078000000000078000002000000010410405150618510008274369000515213512000827   1030000500030000   598320002004000015172200020MAX ENERGY             PTN           MMR11005150618510008270515000000000000000   10300001 00104100000000002340000000000000     
100   62911028202471860000000000113966000000113966002000000010410405130033300178754369000513213300017875   1030000600030000   554100002085315799420000471DENKO BAHAN            YANGON        MMR11005130033300178750513000000000000000   10300001 00104100000000003419000000000000     
100   95050324154190880000000000016100000000016100002000000010410405150524290011309147940515213511001130   1030000500030000   598320002101000015172200021MAX ENERGY             PTN           MMR11005150524290011300515000000000000000   10300001 00104100000000001932000000000000     
100   95050320531117320000000000441000000000441000002000000010410405130442170407714187140513213304040771   1030000600030000   554100001009315799420000504DENKO SOUTH DAGON      YANGON        MMR11005130442170407710513000000000000000   10300001 00104100000000052920000000000000     
100   62443100348951400000000000300000000000300000002000000010410405161502063206349921880516000007177767   1030000200030000   333800010001203104000003327KBZPay                 Yangon        MMR11005161502063206340516000000000000000   10300001F05104100000000063000000000000000     
100   95050328741376010000000000200000000000200000002000000010410405161354532453489666600516000007177515   1030000200030000   333800010001203104000003327KBZPay                 Yangon        MMR11005161354532453480516000000000000000   10300001F05104100000000042000000000000000     
100   62911028202525660000000000027080000000027080002000000010410405161246141408624369000516038151937135   1030000500030000   555610118962104519000016137City Mart South Okkala WZYD BR       MMR11005161246141408620516000000000000000   10300001 00104100000000001625000000000000     
100   95050314064416890000000000001960000000001960002000000010410405160201223122064733630516000007171056   1020000200030000   333400010001204104000000281Myanmar Soft-Gate Tech Yangon        MMR11005160201223122060516000000000000000   10300001F05104100000000000412000000000000     
100   95050320360851930000000000000980000000000980002000000010410405161004243424351184540516000007176537   1020000200030000   333400010001204104000000281Myanmar Soft-Gate Tech Yangon        MMR11005161004243424350516000000000000000   10300001F05104100000000000206000000000000     
100   95050316717221100000000000000980000000000980002000000010410405160305293529756649490516000007171629   1020000200030000   333400010001204104000000281Myanmar Soft-Gate Tech Yangon        MMR11005160305293529750516000000000000000   10300001F05104100000000000206000000000000     
100   95050312539675540000000000001960000000001960002000000010410405161126055605375291020516000007176969   1020000200030000   333400010001204104000000281Myanmar Soft-Gate Tech Yangon        MMR11005161126055605370516000000000000000   10300001F05104100000000000412000000000000     
100   62443100323117100000000000035000000000035000002000000010410405160722455245228156730516000007175028   1030000200030000   333800010001203104000003327KBZPay                 Yangon        MMR11005160722455245220516000000000000000   10300001F05104100000000007350000000000000     
100   62911028202487960000000000015300000000015300002000000010410405161059571398694369000516788301735135   1030000500030000   555610110576104519000009164City Mart China Town P int Cen       MMR11005161059571398690516000000000000000   10300001 00104100000000000918000000000000     
100   95030346130941600000000000009050000000009050002000000010410405161141301402784369000516308111811135   1030000500030000   555610118965104519000016137City Mart South Okkala WZYD BR       MMR11005161141301402780516000000000000000   10300001 00104100000000000543000000000000     
100   62443100348951400000000000100000000000100000002000000010410405161503143314688184310516000007177772   1030000200030000   333800010001203104000003327KBZPay                 Yangon        MMR11005161503143314680516000000000000000   10300001F05104100000000021000000000000000     
100   95030301100354740000000000003000000000003000002000000010410405161211394139244369000516000007177131   1030000200030000   333800010001203104000003327KBZPay                 Yangon        MMR11005161211394139240516000000000000000   10300001F05104100000000000630000000000000     
100   95050315298771650000000000010000000000010000002000000010410405161346241624708099210516000007177481   1030000200030000   333800010001203104000003327KBZPay                 Yangon        MMR11005161346241624700516000000000000000   10300001F05104100000000002100000000000000     
100   95050319528093960000000000002940000000002940002000000010410405161308373837631815860516000007177356   1020000200030000   333400010001204104000000281Myanmar Soft-Gate Tech Yangon        MMR11005161308373837630516000000000000000   10300001F05104100000000000617000000000000     
100   95050312224678430000000000004900000000004900002000000010410405160810224022015922350516000007175518   1020000200030000   333400010001204104000000281Myanmar Soft-Gate Tech Yangon        MMR11005160810224022010516000000000000000   10300001F05104100000000001029000000000000     
100   95050312911050270000000000000980000000000980002000000010410405160615554555997446020516000007174306   1020000200030000   333400010001204104000000281Myanmar Soft-Gate Tech Yangon        MMR11005160615554555990516000000000000000   10300001F05104100000000000206000000000000     
100   95030301100121680000000000010000000000010000002000000010410405160024015401874369000516000007170560   1030000200030000   333800010001203104000003327KBZPay                 Yangon        MMR11005160024015401870516000000000000000   10300001F05104100000000002100000000000000     
100   95030314863516850000000000017000000000017000002000000010410405160523495349614369000516000007173735   1030000200030000   333800010001203104000003327KBZPay                 Yangon        MMR11005160523495349610516000000000000000   10300001F05104100000000003570000000000000     
100   62911028202421380000000000026500000000026500002000000010410405160959151392484369000516997281640135   1030000300030000   444410100537104519000000526YKKO (Junction Square)               MMR11005160959151392480516000000000000000   10300001 00104100000000002703000000000000     
100   62443100301716860000000000005000000000005000002000000010410405161425275527036702010516000007177643   1030000200030000   333800010001203104000003327KBZPay                 Yangon        MMR11005161425275527030516000000000000000   10300001F05104100000000001050000000000000     
100   62911028202788350000000000005000000000005000002000000010410405161528315831154369000516000007177852   1030000200030000   333800010001203104000003327KBZPay                 Yangon        MMR11005161528315831150516000000000000000   10300001F05104100000000001050000000000000     
100   95030301100126550000000000024800000000024800002000000010410405161207581405314369000516627371810135   1030000300030000   444410123546104519000019764YKKO NOP                             MMR11005161207581405310516000000000000000   10300001 00104100000000002530000000000000     
100   95050313411345710000000000032000000000032000002000000010410405160146261626483031700516000007170968   1030000200030000   3338000100012031040000040022C2P (Myanmar) Co. Ltd Yangon        MMR11005160146261626480516000000000000000   10300001F05104100000000006720000000000000     
100   62443100301716860000000000001960000000001960002000000010410405160615304530482403470516000007174290   1020000200030000   333400010001204104000000281Myanmar Soft-Gate Tech Yangon        MMR11005160615304530480516000000000000000   10300001F05104100000000000412000000000000     
100   95050316067768680000000000000980000000000980002000000010410405160712174217317986530516000007174916   1020000200030000   333400010001204104000000281Myanmar Soft-Gate Tech Yangon        MMR11005160712174217310516000000000000000   10300001F05104100000000000206000000000000     
100   62443100330108240000000000010000000000010000002000000010410405160444011401623957060516000007173230   1030000200030000   333800010001203104000003327KBZPay                 Yangon        MMR11005160444011401620516000000000000000   10300001F05104100000000002100000000000000     
100   95050310427855490000000000000980000000000980002000000010410405151753402340769842500516000007170121   1020000200030000   333400010001204104000000281Myanmar Soft-Gate Tech Yangon        MMR11005151753402340760516000000000000000   10300001F05104100000000000206000000000000     
100   95030367537085740000000000000980000000000980002000000010410405160750382038044369000516000007175312   1020000200030000   333400010001204104000000281Myanmar Soft-Gate Tech Yangon        MMR11005160750382038040516000000000000000   10300001F05104100000000000206000000000000     
100   95050310213446310000000000002940000000002940002000000010410405161101523152291014350516000007176881   1020000200030000   333400010001204104000000281Myanmar Soft-Gate Tech Yangon        MMR11005161101523152290516000000000000000   10300001F05104100000000000617000000000000     
100   95050315557781210000000000020000000000020000002000000010410405160158462846244804940516000007171035   1040001600030000   333800010001220104000004507A +                    Yangon        MMR11005160158462846240516000000000000000   10300001F05104100000000004200000000000000     
100   95050311382087030000000000006860000000006860002000000010410405161313484348066446720516000007177374   1020000200030000   333400010001204104000000281Myanmar Soft-Gate Tech Yangon        MMR11005161313484348060516000000000000000   10300001F05104100000000001441000000000000     
100   62911028202350170000000000050000000000050000002000000010410405160624295429424369000516000007174403   1030000200030000   333800010001203104000003327KBZPay                 Yangon        MMR11005160624295429420516000000000000000   10300001F05104100000000010500000000000000     
100   95050319379439060000000000003000000000003000002000000010410405160923525352008716740516000007176175   1030000200030000   333800010001203104000003327KBZPay                 Yangon        MMR11005160923525352000516000000000000000   10300001F05104100000000000630000000000000     
100   62911028202369990000000000100000000000100000002000000010410405160645001500434369000516000007174594   1030000200030000   333800010001203104000003327KBZPay                 Yangon        MMR11005160645001500430516000000000000000   10300001F05104100000000021000000000000000     
100   62443100389971990000000000050000000000050000002000000010410405160646501650179979400516000007174613   1030000200030000   333800010001203104000003327KBZPay                 Yangon        MMR11005160646501650170516000000000000000   10300001F05104100000000010500000000000000     
100   95050327996244850000000000300000000000300000002000000010410405160147481748303457200516000007170978   1030000200030000   3338000100012031040000040022C2P (Myanmar) Co. Ltd Yangon        MMR11005160147481748300516000000000000000   10300001F05104100000000063000000000000000     
100   95030301100081740000000000051500000000051500002000000010410405070355420000464369000507212710000046   1030000500030000   701120055401024207011200554AIRPORT AVENUE HOTEL   PTN           MMR11005070355420000460507000000000000000   10300001 00104100000000005253000000000000     
100   95050312867570630000000000004950000000004950002000000010410405130809310041466004100513213308004146   1030000600030000   581200001876315799420001246BLACK CANYON JC        PABEDAN       MMR11005130809310041460513000000000000000   10300001 00104100000000002104000000000000     
100   95050321232876860000000000074000000000074000002000000010410405130249090368039300990513213302036803   1030000600030000   554100001865315799420001235DENKO NAY PYI TAW 2    NAYPYITAW     MMR11005130249090368030513000000000000000   10300001 00104100000000008880000000000000     
100   62443100379321630000000000028000000000028000002000000010410405130947510855572798020513213309085557   1030000600030000   554100000946315799420000471DENKO BAHAN            YANGON        MMR11005130947510855570513000000000000000   10300001 00104100000000003360000000000000     
100   62443101093150400000000000069000000000069000002000000010410405130348340179442229920513213303017944   1030000600030000   554100002085315799420000471DENKO BAHAN            YANGON        MMR11005130348340179440513000000000000000   10300001 00104100000000008280000000000000     
100   95050319789172490000000000030000000000030000002000000010410405131259570498364871520513213312049836   1030000600030000   554100001756315799420001137DENKO NORTH DAGON 2    YANGON        MMR11005131259570498360513000000000000000   10300001 00104100000000003600000000000000     
100   62911028202778600000000000350000000000350000002000000010410405120810320103014369000512213208010301   1030000600030000   554100001237315799420000691DENKO AUNG PAN         KALAW.        MMR11005120810320103010512000000000000000   10300001 00104100000000010500000000000000     
100   62911028202203320000000000105400000000105400002000000010410405150345480001164369000515213510000116   1030000500030000   531120201603000085311202016STJ BLAZON             PTN           MMR11005150345480001160515000000000000000   10300001 00104100000000006324000000000000     
100   95050315557781210000000000005000000000005000002000000010410405160555592559999694170516000007174084   1030000200030000   333800010001203104000003327KBZPay                 Yangon        MMR11005160555592559990516000000000000000   10300001F05104100000000001050000000000000     
100   95050323481251170000000000010000000000010000002000000010410405160317464746384167910516000007171810   1030000200030000   333800010001203104000003327KBZPay                 Yangon        MMR11005160317464746380516000000000000000   10300001F05104100000000002100000000000000     
100   62443100330108240000000000300000000000300000002000000010410405160442291229206921640516000007173206   1030000200030000   333800010001203104000003327KBZPay                 Yangon        MMR11005160442291229200516000000000000000   10300001F05104100000000063000000000000000     
100   95050313970192050000000000005400000000005400002000000010410405161401521413214624050516549322029135   1030000500030000   555610112651104519000010846City Express MCS 34                  MMR11005161401521413210516000000000000000   10300001 00104100000000001350000000000000     
100   95050314703432410000000000028000000000028000002000000010410405160154072407632180740516000007171011   1030000200030000   3338000100012031040000040022C2P (Myanmar) Co. Ltd Yangon        MMR11005160154072407630516000000000000000   10300001F05104100000000005880000000000000     
100   95050317775833170000000000045300000000045300002000000010410405160258472847742820130516000007171534   1030000200030000   333800010001203104000003327KBZPay                 Yangon        MMR11005160258472847740516000000000000000   10300001F05104100000000009513000000000000     
100   95050315158357300000000000001960000000001960002000000010410405160356272627550432460516000007172468   1020000200030000   333400010001204104000000281Myanmar Soft-Gate Tech Yangon        MMR11005160356272627550516000000000000000   10300001F05104100000000000412000000000000     
100   95050312618592720000000000050000000000050000002000000010410405160910424042810454330516000007176045   1030000200030000   333800010001203104000003327KBZPay                 Yangon        MMR11005160910424042810516000000000000000   10300001F05104100000000010500000000000000     
100   62443100306416880000000000039700000000039700002000000010410405150839580003878055480515213515000387   1030000500030000   581320195701000085813201957HARRYS BAR JUNCTION SQ PTN           MMR11005150839580003870515000000000000000   10300001 00104100000000016873000000000000     
100   95030300067918830000000000036450000000036450002000000010410405150346390000334369000515213510000033   1030000500030000   597720147801008005977201478CLOVER COSMETICS       PTN           MMR11005150346390000330515000000000000000   10300001 00104100000000002187000000000000     
100   62911028202674810000000000021650000000021650002000000010410405150153230000904369000515213508000090   1030000500030000   541120129723000045411201297MAKRO MYANMAR          PTN           MMR11005150153230000900515000000000000000   10300001 00104100000000001299000000000000     
100   62911028202174450000000000118500000000118500002000000010410405150755340001944369000515213514000194   1030000500030000   581220105102002005812201051WHITE SWAN             PTN           MMR11005150755340001940515000000000000000   10300001 00104100000000012087000000000000     
100   95050316311487940000000000009250000000009250002000000010410405150601370005997665650515213512000599   1030000500030000   531120155802000045311201558GAMONE PWINT           PTN           MMR11005150601370005990515000000000000000   10300001 00104100000000002220000000000000     
100   62911028202264610000000000029950000000029950002000000010410405150315170000814369000515213509000081   1030000500030000   597720147701008005977201477CLOVER COSMETICS       PTN           MMR11005150315170000810515000000000000000   10300001 00104100000000001797000000000000     
100   62443100306416880000000000028500000000028500002000000010410405150856120004497970380515213515000449   1030000500030000   569120057301000015691200573CONQUEROR              PTN           MMR11005150856120004490515000000000000000   10300001 00104100000000006840000000000000     
100   62443100328070970000000000010150000000010150002000000010410405151213060002219487590515213518000221   1030000500030000   541120129716000045411201297MAKRO MYANMAR          PTN           MMR11005151213060002210515000000000000000   10300001 00104100000000002538000000000000     
100   62443100313112320000000000110000000000110000002000000010410405160517297948910361160516870471129135   1030000900030000   554119000348190110000000215New Day Energy MYG     YANGONONE     MMR11005160517297948910516000000000000000   10300001F00104100000000013200000000000000     
100   95030367537085740000000000001960000000001960002000000010410405160501143114054369000516000007173455   1020000200030000   333400010001204104000000281Myanmar Soft-Gate Tech Yangon        MMR11005160501143114050516000000000000000   10300001F05104100000000000412000000000000     
100   95050312940629360000000000000980000000000980002000000010410405161501163116528269400516000007177764   1020000200030000   333400010001204104000000281Myanmar Soft-Gate Tech Yangon        MMR11005161501163116520516000000000000000   10300001F05104100000000000206000000000000     
100   95050311382087030000000000001960000000001960002000000010410405161358122812844709140516000007177530   1020000200030000   333400010001204104000000281Myanmar Soft-Gate Tech Yangon        MMR11005161358122812840516000000000000000   10300001F05104100000000000412000000000000     
100   95050319204938440000000000005000000000005000002000000010410405152008123812981494990516000007170263   1030000200030000   333800010001203104000003327KBZPay                 Yangon        MMR11005152008123812980516000000000000000   10300001F05104100000000001050000000000000     
100   95050316717221100000000000000980000000000980002000000010410405160306183618083174320516000007171645   1020000200030000   333400010001204104000000281Myanmar Soft-Gate Tech Yangon        MMR11005160306183618080516000000000000000   10300001F05104100000000000206000000000000     
100   95050312498129060000000000002940000000002940002000000010410405161213504350363213060516000007177143   1020000200030000   333400010001204104000000281Myanmar Soft-Gate Tech Yangon        MMR11005161213504350360516000000000000000   10300001F05104100000000000617000000000000     
100   62911028202057620000000000050000000000050000002000000010410405161621525152924369000516000007177999   1030000200030000   333800010001203104000003327KBZPay                 Yangon        MMR11005161621525152920516000000000000000   10300001F05104100000000010500000000000000     
100   62911028202130710000000000018150000000018150002000000010410405151150040003724369000515213518000372   1030000500030000   531120155806000045311201558GAMONE PWINT           PTN           MMR11005151150040003720515000000000000000   10300001 00104100000000001089000000000000     
100   95050326228858240000000000117000000000117000002000000010410405150733180013346828480515213514001334   1030000500030000   598320002701000015172200027MAX ENERGY             PTN           MMR11005150733180013340515000000000000000   10300001 00104100000000014040000000000000     
100   95050315413187270000000000012700000000012700002000000010410405151239420002248700600515213519000224   1030000500030000   541120129716000045411201297MAKRO MYANMAR          PTN           MMR11005151239420002240515000000000000000   10300001 00104100000000003175000000000000     
100   62911028202197630000000000040755000000040755002000000010410405150714560005194369000515213513000519   1030000500030000   541120020902022205411200209ORANGE (HLAING)        PTN           MMR11005150714560005190515000000000000000   10300001 00104100000000002445000000000000     
100   62911028202472440000000000053000000000053000002000000010410405150438180011844369000515213511001184   1030000500030000   598320001903000015172200019MAX ENERGY             PTN           MMR11005150438180011840515000000000000000   10300001 00104100000000001590000000000000     
100   62911028202674810000000000133050000000133050002000000010410405150541280001564369000515213512000156   1030000500030000   541120129713000045411201297MAKRO MYANMAR          PTN           MMR11005150541280001560515000000000000000   10300001 00104100000000007983000000000000     
100   62911028202193830000000000160000000000160000002000000010410405150246420009504369000515213509000950   1030000500030000   598320001603000015172200016MAX ENERGY             PTN           MMR11005150246420009500515000000000000000   10300001 00104100000000004800000000000000     
100   62911028202187730000000000030000000000030000002000000010410405150206380009054369000515213508000905   1030000500030000   598320068301000055983200683MAX ENERGY             PTN           MMR11005150206380009050515000000000000000   10300001 00104100000000000900000000000000     
100   95050316812885810000000000001960000000001960002000000010410405160727415741533114170516000007175094   1020000200030000   333400010001204104000000281Myanmar Soft-Gate Tech Yangon        MMR11005160727415741530516000000000000000   10300001F05104100000000000412000000000000     
100   95050310332595380000000000004900000000004900002000000010410405160957032703671596230516000007176472   1020000200030000   333400010001204104000000281Myanmar Soft-Gate Tech Yangon        MMR11005160957032703670516000000000000000   10300001F05104100000000001029000000000000     
100   95050326393773020000000000002940000000002940002000000010410405160614124412329183600516000007174276   1020000200030000   333400010001204104000000281Myanmar Soft-Gate Tech Yangon        MMR11005160614124412320516000000000000000   10300001F05104100000000000617000000000000     
100   62443100348951400000000000100000000000100000002000000010410405161454092409293311950516000007177739   1030000200030000   333800010001203104000003327KBZPay                 Yangon        MMR11005161454092409290516000000000000000   10300001F05104100000000021000000000000000     
100   95050312020318170000000000010000000000010000002000000010410405161303053305656858420516000007177328   1030000900030000   333400010001202104000002022ACS                    Yangon        MMR11005161303053305650516000000000000000   10300001F05104100000000002100000000000000     
100   95050327416134790000000000009800000000009800002000000010410405160358152815126957300516000007172505   1020000200030000   333400010001204104000000281Myanmar Soft-Gate Tech Yangon        MMR11005160358152815120516000000000000000   10300001F05104100000000002058000000000000     
100   95050320360851930000000000000980000000000980002000000010410405161008283828241524920516000007176570   1020000200030000   333400010001204104000000281Myanmar Soft-Gate Tech Yangon        MMR11005161008283828240516000000000000000   10300001F05104100000000000206000000000000     
100   95050317376014640000000000000980000000000980002000000010410405160112284228804629760516000007170771   1020000200030000   333400010001204104000000281Myanmar Soft-Gate Tech Yangon        MMR11005160112284228800516000000000000000   10300001F05104100000000000206000000000000     
100   95030361482647470000000000019350000000019350002000000010410405151150590001844369000515213518000184   1030000500030000   531120155701000045311201557GAMONE PWINT           PTN           MMR11005151150590001840515000000000000000   10300001 00104100000000001161000000000000     
100   62443100382109160000000000022000000000022000002000000010410405150628530000398906440515213512000039   1030000500030000   569120091101000015691200911GIORDANO YUZANA PLAZA  PTN           MMR11005150628530000390515000000000000000   10300001 00104100000000005280000000000000     
100   62911028202203320000000000059900000000059900002000000010410405150916100002614369000515213515000261   1030000500030000   569120058001019505691200580MK FASHION SHOP        PTN           MMR11005150916100002610515000000000000000   10300001 00104100000000003594000000000000     
100   62911028202509170000000000030000000000030000002000000010410405150115380011294369000515213507001129   1030000500030000   598320002702000015172200027MAX ENERGY             PTN           MMR11005150115380011290515000000000000000   10300001 00104100000000000900000000000000     
100   62911028202440680000000000032203000000032203002000000010410405151013080013074369000515213516001307   1030000500030000   598320001201000015172200012MAX ENERGY             PTN           MMR11005151013080013070515000000000000000   10300001 00104100000000000966000000000000     
100   95050316430749210000000000010000000000010000002000000010410405150805400019868821350515213514001986   1030000500030000   598320001902000015172200019MAX ENERGY             PTN           MMR11005150805400019860515000000000000000   10300001 00104100000000001200000000000000     
100   62443100330048680000000000030000000000030000002000000010410405150102060012841991780515213507001284   1030000500030000   598320001101000015172200011MAX ENERGY             PTN           MMR11005150102060012840515000000000000000   10300001 00104100000000003600000000000000     
100   62911028202668140000000000041300000000041300002000000010410405150542090015214369000515213512001521   1030000500030000   581220050501023105812200505FUSAN RESTAURANT       PTN           MMR11005150542090015210515000000000000000   10300001 00104100000000004213000000000000     
100   95050310652791070000000000020000000000020000002000000010410405160124185418161239700516000007170853   1030000200030000   333800010001203104000003327KBZPay                 Yangon        MMR11005160124185418160516000000000000000   10300001F05104100000000004200000000000000     
100   95050318741700180000000000022700000000022700002000000010410405160304157920125798530516295340915135   1030000900030000   541119001363190110000000977Ocean PZD C17          YANGONAUNG    MMR11005160304157920120516000000000000000   10300001F00104100000000005675000000000000     
100   95050314557307430000000000001960000000001960002000000010410405160229395939727357830516000007171271   1020000200030000   333400010001204104000000281Myanmar Soft-Gate Tech Yangon        MMR11005160229395939720516000000000000000   10300001F05104100000000000412000000000000     
100   95050326493030660000000000300000000000300000002000000010410405160909273927873844390516000007176034   1030000200030000   333800010001203104000003327KBZPay                 Yangon        MMR11005160909273927870516000000000000000   10300001F05104100000000063000000000000000     
100   62443100313529540000000000017100000000017100002000000010410405160106573657882977280516000007170740   1030000200030000   333800010001203104000003327KBZPay                 Yangon        MMR11005160106573657880516000000000000000   10300001F05104100000000003591000000000000     
100   95050318180584510000000000001960000000001960002000000010410405161306223622066773320516000007177345   1020000200030000   333400010001204104000000281Myanmar Soft-Gate Tech Yangon        MMR11005161306223622060516000000000000000   10300001F05104100000000000412000000000000     
100   62911028202708080000000000300000000000300000002000000010410405161504503450054369000516000007177775   1030000200030000   333800010001203104000003327KBZPay                 Yangon        MMR11005161504503450050516000000000000000   10300001F05104100000000063000000000000000     
100   95030301100022270000000000011550000000011550002000000010410405160513127947724369000516803431112135   1030000900030000   541119000882190110000000084Pro (1) Global (Pazund YANGONARTAUNG MMR11005160513127947720516000000000000000   10300001F00104100000000000693000000000000     
100   95050322921717110000000000020000000000020000002000000010410405150217200012771311000515213508001277   1030000500030000   598320002701000015172200027MAX ENERGY             PTN           MMR11005150217200012770515000000000000000   10300001 00104100000000002400000000000000     
100   62911028202610960000000000070000000000070000002000000010410405150430080012984369000515213511001298   1030000500030000   598320002701000015172200027MAX ENERGY             PTN           MMR11005150430080012980515000000000000000   10300001 00104100000000002100000000000000     
100   95050317502160260000000000010000000000010000002000000010410405140719030000397357660514213413000039   1030000500030000   569120169901008205691201699ESCORT                 PTN           MMR11005140719030000390514000000000000000   10300001 00104100000000002400000000000000     
100   62911028202314610000000000024600000000024600002000000010410405140536280004074369000514213412000407   1030000500030000   541120020601022205411200206ORANGE (NOKL)          PTN           MMR11005140536280004070514000000000000000   10300001 00104100000000001476000000000000     
100   95050317502160260000000000059000000000059000002000000010410405140716560000386860580514213413000038   1030000500030000   569120169901008205691201699ESCORT                 PTN           MMR11005140716560000380514000000000000000   10300001 00104100000000014160000000000000     
100   62443100372718280000000000066000000000066000002000000010410405151343140283379927600515213520028337   1040001600030000   581420000076000000010000074Hot Pot City Ahlone    Yangon        MMR11005151343140283370515000000000000000   10300001F00104100000000007920000000000000     
100   62911028202132460000000000174250000000174250002000000010410405151308080258094369000515213520025809   1040001600030000   581420000076000000010000074Hot Pot City Ahlone    Yangon        MMR11005151308080258090515000000000000000   10300001F00104100000000005228000000000000     
100   95030380157605420000000000041800000000041800002000000010410405161300170026304369000516000747104251   1030000200030000   541188001482000008000000399KBZ BANK               OCEAN SUPERCE MMR11005161300170026300516000000000000000   10300001 00104100000000002508000000000000     
100   95050312781844250000000000003000000000003000002000000010410405161048391839529106570516000007176820   1030000200030000   3334000100012031040000040102C2P (Myanmar) Co. Ltd Yangon        MMR11005161048391839520516000000000000000   10300001F05104100000000000630000000000000     
100   62443100355903280000000000100000000000100000002000000010410405161257282728938510900516000007177304   1030000200030000   333800010001203104000003327KBZPay                 Yangon        MMR11005161257282728930516000000000000000   10300001F05104100000000021000000000000000     
100   95050326155679180000000000002940000000002940002000000010410405161028395839739702250516000007176708   1020000200030000   333400010001204104000000281Myanmar Soft-Gate Tech Yangon        MMR11005161028395839730516000000000000000   10300001F05104100000000000617000000000000     
100   62443100313112320000000000150000000000150000002000000010410405161240471408416432930516014111952135   1030000300030000   555510124696104519000020166Makro Myanmar                        MMR11005161240471408410516000000000000000   10300001 00104100000000036000000000000000     
100   95050318057347910000000000030000000000030000002000000010410405160101013101978019820516000007170712   1030000200030000   3338000100012031040000040022C2P (Myanmar) Co. Ltd Yangon        MMR11005160101013101970516000000000000000   10300001F05104100000000006300000000000000     
100   62911028202788350000000000009000000000009000002000000010410405161401033103284369000516000007177553   1030000200030000   333800010001203104000003327KBZPay                 Yangon        MMR11005161401033103280516000000000000000   10300001F05104100000000001890000000000000     
100   62911028202788350000000000010000000000010000002000000010410405161615014501454369000516000007177985   1030000200030000   333800010001203104000003327KBZPay                 Yangon        MMR11005161615014501450516000000000000000   10300001F05104100000000002100000000000000     
100   95050312539675540000000000001960000000001960002000000010410405160313564356491189510516000007171746   1020000200030000   333400010001204104000000281Myanmar Soft-Gate Tech Yangon        MMR11005160313564356490516000000000000000   10300001F05104100000000000412000000000000     
100   62443100363992240000000000133050000000133050002000000010410405162011220076953056660516000747122581   1030000200030000   541188001331000008000000327KBZ BANK               CITY MART - S MMR11005162011220076950516000000000000000   10300001 00104100000000033263000000000000     
100   95050316377032610000000000020000000000020000002000000010410405161515110003026808970516000747112548   1030000200030000   541188001288000008000001475KBZ BANK               CITY CARE STA MMR11005161515110003020516000000000000000   10300001 00104100000000005000000000000000     
100   95030394609966640000000000031000000000031000002000000010410405161543490027024369000516000747113936   1030000200030000   541188001021000008000000298KBZ BANK               CITY MART - M MMR11005161543490027020516000000000000000   10300001 00104100000000001860000000000000     
100   62911028202296630000000000020028000000020028002000000010410405161822050045394369000516000747119910   1030000200030000   541188001057000008000000314KBZ BANK               MARKETPLACE - MMR11005161822050045390516000000000000000   10300001 00104100000000001202000000000000     
100   62911028202296630000000000001700000000001700002000000010410405161822530045404369000516000747119932   1030000200030000   541188001057000008000000314KBZ BANK               MARKETPLACE - MMR11005161822530045400516000000000000000   10300001 00104100000000000102000000000000     
100   95030337100000390000000000015650000000015650002000000010410405160800330038924369000516000747109908   1030000200030000   591288000018000008000002044KBZ BANK               PINLON PHARMA MMR11005160800330038920516000000000000000   10300001 00104100000000000939000000000000     
100   62911028202116950000000000002000000000002000002000000010410405161052040014064369000516000747095468   1030000200030000   541188001311000008000000325KBZ BANK               CITY MART - A MMR11005161052040014060516000000000000000   10300001 00104100000000000120000000000000     
100   62911028202531350000000000006100000000006100002000000010410405161006350027174369000516000747092761   1030000200030000   541188001005000008000000008KBZ BANK               MARKETPLACE - MMR11005161006350027170516000000000000000   10300001 00104100000000000366000000000000     
100   95050318741700180000000000009500000000009500002000000010410405160305187920388422730516310350918135   1030000900030000   541119001363190110000000977Ocean PZD C17          YANGONAUNG    MMR11005160305187920380516000000000000000   10300001F00104100000000002375000000000000     
100   95030390626214130000000000000980000000000980002000000010410405160444521452544369000516000007173235   1020000200030000   333400010001204104000000281Myanmar Soft-Gate Tech Yangon        MMR11005160444521452540516000000000000000   10300001F05104100000000000206000000000000     
100   95050315158357300000000000004000000000004000002000000010410405161145101510632326440516000007177039   1030000200030000   333800010001203104000003327KBZPay                 Yangon        MMR11005161145101510630516000000000000000   10300001F05104100000000000840000000000000     
100   95050313836159580000000000005000000000005000002000000010410405151750182018614799950516000007170116   1030000200030000   3334000100012031040000040102C2P (Myanmar) Co. Ltd Yangon        MMR11005151750182018610516000000000000000   10300001F05104100000000001050000000000000     
100   62443100348951400000000000300000000000300000002000000010410405161451532153681659470516000007177734   1030000200030000   333800010001203104000003327KBZPay                 Yangon        MMR11005161451532153680516000000000000000   10300001F05104100000000063000000000000000     
100   95050325455962190000000000002940000000002940002000000010410405160959182918899617150516000007176498   1020000200030000   333400010001204104000000281Myanmar Soft-Gate Tech Yangon        MMR11005160959182918890516000000000000000   10300001F05104100000000000617000000000000     
100   62443100348951400000000000300000000000300000002000000010410405161459212921511574370516000007177755   1030000200030000   333800010001203104000003327KBZPay                 Yangon        MMR11005161459212921510516000000000000000   10300001F05104100000000063000000000000000     
100   95050312224678430000000000001960000000001960002000000010410405160917394739477064260516000007176111   1020000200030000   333400010001204104000000281Myanmar Soft-Gate Tech Yangon        MMR11005160917394739470516000000000000000   10300001F05104100000000000412000000000000     
100   95050319528093960000000000000980000000000980002000000010410405161030030003056397280516000007176712   1020000200030000   333400010001204104000000281Myanmar Soft-Gate Tech Yangon        MMR11005161030030003050516000000000000000   10300001F05104100000000000206000000000000     
100   95030310098554020000000000078066000000078066002000000010410405160409570021294369000516213610002129   1020000200030000   806200105003300018062000010MWD BANK               YGN           MMR11005160409570021290516000000000000000   10300001 00104100000000004684000000000000     
100   95050310719071210000000000007800000000007800002000000010410405161635000008156227090516000747116135   1030000200030000   541188001448000008000000401KBZ BANK               OCEAN SUPERCE MMR11005161635000008150516000000000000000   10300001 00104100000000001950000000000000     
100   62911028202147720000000000011000000000011000002000000010410405161607310014174369000516000747115102   1030000200030000   541188001311000008000000325KBZ BANK               CITY MART - A MMR11005161607310014170516000000000000000   10300001 00104100000000000660000000000000     
100   62443100348951400000000000300000000000300000002000000010410405161436450645216616920516000007177681   1030000200030000   333800010001203104000003327KBZPay                 Yangon        MMR11005161436450645210516000000000000000   10300001F05104100000000063000000000000000     
100   95050316438375580000000000000980000000000980002000000010410405160339540954772340240516000007172181   1020000200030000   333400010001204104000000281Myanmar Soft-Gate Tech Yangon        MMR11005160339540954770516000000000000000   10300001F05104100000000000206000000000000     
100   95050317518971470000000000005000000000005000002000000010410405160331000100186070680516000007172031   1030000200030000   3338000100012031040000040022C2P (Myanmar) Co. Ltd Yangon        MMR11005160331000100180516000000000000000   10300001F05104100000000001050000000000000     
100   62443100306416880000000000006200000000006200002000000010410405161713070086392411540516000747117452   1030000200030000   541188001071000008000000314KBZ BANK               MARKETPLACE - MMR11005161713070086390516000000000000000   10300001 00104100000000001550000000000000     
100   62911028202120320000000000013750000000013750002000000010410405161120281400934369000516049521758135   1030000500030000   555610110576104519000009164City Mart China Town P int Cen       MMR11005161120281400930516000000000000000   10300001 00104100000000000825000000000000     
100   95050313702988830000000000002940000000002940002000000010410405160946141614203333820516000007176387   1020000200030000   333400010001204104000000281Myanmar Soft-Gate Tech Yangon        MMR11005160946141614200516000000000000000   10300001F05104100000000000617000000000000     
100   95050315158357300000000000002940000000002940002000000010410405160050212021456367340516000007170657   1020000200030000   333400010001204104000000281Myanmar Soft-Gate Tech Yangon        MMR11005160050212021450516000000000000000   10300001F05104100000000000617000000000000     
100   62443100348951400000000000300000000000300000002000000010410405161500443044073226850516000007177759   1030000200030000   333800010001203104000003327KBZPay                 Yangon        MMR11005161500443044070516000000000000000   10300001F05104100000000063000000000000000     
100   95050317728825080000000000002940000000002940002000000010410405160910194019585411780516000007176044   1020000200030000   333400010001204104000000281Myanmar Soft-Gate Tech Yangon        MMR11005160910194019580516000000000000000   10300001F05104100000000000617000000000000     
100   95050319379439060000000000001000000000001000002000000010410405160925415541446979170516000007176195   1030000200030000   333800010001203104000003327KBZPay                 Yangon        MMR11005160925415541440516000000000000000   10300001F05104100000000000210000000000000     
100   95050318180584510000000000005000000000005000002000000010410405160320035003681538720516000007171851   1030000200030000   333800010001203104000003327KBZPay                 Yangon        MMR11005160320035003680516000000000000000   10300001F05104100000000001050000000000000     
100   95050320684106730000000000005000000000005000002000000010410405160547551755608467170516000007173982   1030000200030000   3338000100012031040000040022C2P (Myanmar) Co. Ltd Yangon        MMR11005160547551755600516000000000000000   10300001F05104100000000001050000000000000     
100   62911028202684060000000000072000000000072000002000000010410405160317300527694369000516213610052769   1040001600030000   598320001170000000010000527Shwe Taung Energy (YGN Yangon        MMR11005160317300527690516000000000000000   10300001F00104100000000002160000000000000     
100   62911028202443730000000000025000000000025000002000000010410405160914210720394369000516213616072039   1040001600030000   598320000913000000010000663MMTM - Ywarma          Ygn           MMR11005160914210720390516000000000000000   10300001F00104100000000000750000000000000     
100   62911028202175770000000000033750000000033750002000000010410405160918410234154369000516000747090891   1030000200030000   541188001003000008000000008KBZ BANK               MARKETPLACE - MMR11005160918410234150516000000000000000   10300001 00104100000000002025000000000000     
100   62911028202788350000000000010000000000010000002000000010410405160931100110774369000516000007176243   1030000200030000   333800010001203104000003327KBZPay                 Yangon        MMR11005160931100110770516000000000000000   10300001F05104100000000002100000000000000     
100   95030325264619140000000000030000000000030000002000000010410405160451490574794369000516213611057479   1040001600030000   541120000584000000010000465Ocean Shwe Gone Daing  Yangon        MMR11005160451490574790516000000000000000   10300001F00104100000000001800000000000000     
100   95030301100319290000000000007000000000007000002000000010410405160136190619294369000516000007170910   1030000200030000   333800010001203104000003327KBZPay                 Yangon        MMR11005160136190619290516000000000000000   10300001F05104100000000001470000000000000     
100   95050318608138520000000000005000000000005000002000000010410405160536310631088552270516000007173879   1030000200030000   333800010001203104000003327KBZPay                 Yangon        MMR11005160536310631080516000000000000000   10300001F05104100000000001050000000000000     
100   95050312224678430000000000001960000000001960002000000010410405160240291029507925910516000007171366   1020000200030000   333400010001204104000000281Myanmar Soft-Gate Tech Yangon        MMR11005160240291029500516000000000000000   10300001F05104100000000000412000000000000     
100   95050314893649800000000000002940000000002940002000000010410405160246401640283103010516000007171414   1020000200030000   333400010001204104000000281Myanmar Soft-Gate Tech Yangon        MMR11005160246401640280516000000000000000   10300001F05104100000000000617000000000000     
100   95050314570621780000000000001960000000001960002000000010410405161159542954745546320516000007177094   1020000200030000   333400010001204104000000281Myanmar Soft-Gate Tech Yangon        MMR11005161159542954740516000000000000000   10300001F05104100000000000412000000000000     
100   95050319451859610000000000030000000000030000002000000010410405161605293529059326210516000007177957   1030000200030000   333800010001203104000003327KBZPay                 Yangon        MMR11005161605293529050516000000000000000   10300001F05104100000000006300000000000000     
100   62911028202166940000000000150000000000150000002000000010410405150745200001564369000515213514000156   1030000500030000   541120129723000045411201297MAKRO MYANMAR          PTN           MMR11005150745200001560515000000000000000   10300001 00104100000000009000000000000000     
100   62911028202147720000000000058128000000058128002000000010410405151215150004194369000515213518000419   1030000500030000   581220024101000015812200241SHWE LAR HOT POT       PTN           MMR11005151215150004190515000000000000000   10300001 00104100000000005929000000000000     
100   95050311077567400000000000003000000000003000002000000010410405160359012901598453380516000007172500   1030000900030000   333400010001202104000002022ACS                    Yangon        MMR11005160359012901590516000000000000000   10300001F05104100000000000630000000000000     
100   62911028202099050000000000169397000000169397002000000010410405150727580001694369000515213513000169   1030000500030000   581220024001000015812200240SHWE LAR HOT POT       PTN           MMR11005150727580001690515000000000000000   10300001 00104100000000017278000000000000     
100   95030337100000390000000000020500000000020500002000000010410405160739400035414369000516000747108621   1030000200030000   591288000181000008000002044KBZ BANK               PINLON PHARMA MMR11005160739400035410516000000000000000   10300001 00104100000000001230000000000000     
100   62443100318296470000000000015517000000015517002000000010410405161817540128263978930516000747119798   1030000200030000   541188001019000008000000298KBZ BANK               CITY MART - M MMR11005161817540128260516000000000000000   10300001 00104100000000003880000000000000     
100   95030301100354740000000000030000000000030000002000000010410405161132060206264369000516000007176988   1030000200030000   333800010001203104000003327KBZPay                 Yangon        MMR11005161132060206260516000000000000000   10300001F05104100000000006300000000000000     
100   95030314863516850000000000013000000000013000002000000010410405160432060206534369000516000007173048   1030000200030000   333800010001203104000003327KBZPay                 Yangon        MMR11005160432060206530516000000000000000   10300001F05104100000000002730000000000000     
100   95050310427855490000000000002940000000002940002000000010410405161536570657466531820516000007177880   1020000200030000   333400010001204104000000281Myanmar Soft-Gate Tech Yangon        MMR11005161536570657460516000000000000000   10300001F05104100000000000617000000000000     
100   95050312020318170000000000025000000000025000002000000010410405160936110611729773560516000007176283   1030000200030000   333800010001203104000003327KBZPay                 Yangon        MMR11005160936110611720516000000000000000   10300001F05104100000000005250000000000000     
100   62911028202791630000000000073000000000073000002000000010410405161020350761564369000516213617076156   1040001600030000   598320000658000000010000527Shwe Taung Energy (YGN Yangon        MMR11005161020350761560516000000000000000   10300001F00104100000000002190000000000000     
100   95050327996244850000000000100000000000100000002000000010410405160739080908712702480516000007175215   1030000200030000   3338000100012031040000040022C2P (Myanmar) Co. Ltd Yangon        MMR11005160739080908710516000000000000000   10300001F05104100000000021000000000000000     
100   62911028202147720000000000029500000000029500002000000010410405161602490167964369000516000747114909   1030000200030000   541188001305000008000000325KBZ BANK               CITY MART - A MMR11005161602490167960516000000000000000   10300001 00104100000000001770000000000000     
100   62911028202693960000000000066330000000066330002000000010410405161230028045844369000516571001902135   1030000900030000   581319001532190110000001079I Four-2               YANGON        MMR11005161230028045840516000000000000000   10300001F00104100000000006766000000000000     
100   95050316573091630000000000080150000000080150002000000010410405150346260001201140810515213510000120   1030000500030000   541120129723000045411201297MAKRO MYANMAR          PTN           MMR11005150346260001200515000000000000000   10300001 00104100000000020038000000000000     
100   95050312940629360000000000020000000000020000002000000010410405160003403340578445310516000007170502   1030000200030000   333800010001203104000003327KBZPay                 Yangon        MMR11005160003403340570516000000000000000   10300001F05104100000000004200000000000000     
100   95030301100121270000000000039150000000039150002000000010410405161031518020594369000516965011751135   1030000900030000   541119001260190110000000958City Mart PLST C 3     YANGONMYOTHIT MMR11005161031518020590516000000000000000   10300001F00104100000000002349000000000000     
100   95030301100121270000000000006000000000006000002000000010410405161036408021784369000516027061740135   1030000900030000   541119001273190110000000960City Mart PLST Season  YANGONMYOTHIT MMR11005161036408021780516000000000000000   10300001F00104100000000000360000000000000     
100   62443100306416880000000000170900000000170900002000000010410405150606320001882708200515213512000188   1030000500030000   531120201602000085311202016STJ BLAZON             PTN           MMR11005150606320001880515000000000000000   10300001 00104100000000041016000000000000     
100   62443100369813440000000000020000000000020000002000000010410405160245567916859202380516118150956135   1030000900030000   554119000346190110000000213New Day Energy SOK     YANGONOKKALAP MMR11005160245567916850516000000000000000   10300001F00104100000000002400000000000000     
100   62443100306416880000000000011861000000011861002000000010410405161154518038260503770516052241851135   1030000900030000   581219000981190110000000788Jo Jo Hot Pot (KTY)    YANGONARTAUNG MMR11005161154518038260516000000000000000   10300001F00104100000000005041000000000000     
