100   95050311419479170000000000001960000000001960002000000010410405140809033903525133160514000007161266   1020000200030000   333400010001204104000000281Myanmar Soft-Gate Tech Yangon        MMR11005140809033903520514000000000000000   10300001F05104100000000000412000000000000     
100   95050312792817170000000000001960000000001960002000000010410405140901473147797918860514000007161469   1020000200030000   333400010001204104000000281Myanmar Soft-Gate Tech Yangon        MMR11005140901473147790514000000000000000   10300001F05104100000000000412000000000000     
100   95050314321886680000000000300000000000300000002000000010410405140224535453982815440514000007159814   1030000200030000   333800010001203104000003327KBZPay                 Yangon        MMR11005140224535453980514000000000000000   10300001F05104100000000063000000000000000     
100   95050324154190880000000000002940000000002940002000000010410405132227195719410119880514000007159425   1020000200030000   333400010001204104000000281Myanmar Soft-Gate Tech Yangon        MMR11005132227195719410514000000000000000   10300001F05104100000000000617000000000000     
100   62911028202525660000000000024406000000024406002000000010410405140312121180904369000514542430901133   1030000500030000   555610118965104519000016137City Mart South Okkala WZYD BR       MMR11005140312121180900514000000000000000   10300001 00104100000000001464000000000000     
100   62911028202467900000000000006000000000006000002000000010410405140712511214314369000514222431326133   1030000500030000   555610112237104519000010487Ocean Super Center St  ohn           MMR11005140712511214310514000000000000000   10300001 00104100000000000360000000000000     
100   95050313396828960000000000002940000000002940002000000010410405141256382638236779030514000007162306   1020000200030000   333400010001204104000000281Myanmar Soft-Gate Tech Yangon        MMR11005141256382638230514000000000000000   10300001F05104100000000000617000000000000     
100   95050322312885760000000000015000000000015000002000000010410405141105483548183227200514000007161883   1030000200030000   333800010001203104000003327KBZPay                 Yangon        MMR11005141105483548180514000000000000000   10300001F05104100000000003150000000000000     
100   95050319528093960000000000002940000000002940002000000010410405140315424542222958020514000007160023   1020000200030000   333400010001204104000000281Myanmar Soft-Gate Tech Yangon        MMR11005140315424542220514000000000000000   10300001F05104100000000000617000000000000     
100   62911028202207460000000000013250000000013250002000000010410405140637501209084369000514646101305133   1030000500030000   555610112235104519000010487Ocean Super Center St  ohn           MMR11005140637501209080514000000000000000   10300001 00104100000000000795000000000000     
100   95050314307746340000000000002940000000002940002000000010410405140249391939814659950514000007159901   1020000200030000   333400010001204104000000281Myanmar Soft-Gate Tech Yangon        MMR11005140249391939810514000000000000000   10300001F05104100000000000617000000000000     
100   62911028202788350000000000010000000000010000002000000010410405132248091809934369000514000007159434   1030000200030000   333800010001203104000003327KBZPay                 Yangon        MMR11005132248091809930514000000000000000   10300001F05104100000000002100000000000000     
100   95050312005798410000000000001960000000001960002000000010410405140259282928110759320514000007159944   1020000200030000   333400010001204104000000281Myanmar Soft-Gate Tech Yangon        MMR11005140259282928110514000000000000000   10300001F05104100000000000412000000000000     
100   95030301100315070000000000003000000000003000002000000010410405141201063106114369000514000007162074   1030000300030000   333300010001206104000002741Get All Myanmar Compan Yangon        MMR11005141201063106110514000000000000000   10300001F05104100000000010000000000000000     
100   95050327996244850000000000470000000000470000002000000010410405140316344634059908360514000007160026   1030000200030000   3338000100012031040000040022C2P (Myanmar) Co. Ltd Yangon        MMR11005140316344634050514000000000000000   10300001F05104100000000098700000000000000     
100   95050319161596230000000000000980000000000980002000000010410405140656082608315579900514000007160976   1020000200030000   333400010001204104000000281Myanmar Soft-Gate Tech Yangon        MMR11005140656082608310514000000000000000   10300001F05104100000000000206000000000000     
100   62911028202194090000000000063900000000063900002000000010410405140726521216294369000514464561332133   1030000300030000   555510124690104519000020166Makro Myanmar                        MMR11005140726521216290514000000000000000   10300001 00104100000000003834000000000000     
100   95030342412592190000000000033600000000033600002000000010410405140906021230484369000514162361522133   1030000500030000   555610122584104519000018896City Mart Hlaing Thar  ar            MMR11005140906021230480514000000000000000   10300001 00104100000000002016000000000000     
100   62443100313002190000000000165000000000165000002000000010410405140710064006117778600514000007161031   1030000200030000   333800010001203104000003327KBZPay                 Yangon        MMR11005140710064006110514000000000000000   10300001F05104100000000034650000000000000     
100   95030314863516850000000000010000000000010000002000000010410405131718114811234369000514000007159203   1030000200030000   333800010001203104000003327KBZPay                 Yangon        MMR11005131718114811230514000000000000000   10300001F05104100000000002100000000000000     
100   95050319331315630000000000004900000000004900002000000010410405140224205420006290610514000007159821   1020000200030000   333400010001204104000000281Myanmar Soft-Gate Tech Yangon        MMR11005140224205420000514000000000000000   10300001F05104100000000001029000000000000     
100   95050314567755980000000000000980000000000980002000000010410405140324205420917918820514000007160063   1020000200030000   333400010001204104000000281Myanmar Soft-Gate Tech Yangon        MMR11005140324205420910514000000000000000   10300001F05104100000000000206000000000000     
100   62911028202616250000000000146200000000146200002000000010410405141137211254174369000514048061832133   1030000500030000   555610112982104519000011143Market Place by City M rt Sule       MMR11005141137211254170514000000000000000   10300001 00104100000000008772000000000000     
100   95050318734435310000000000010000000000010000002000000010410405141346141614295041450514000007162471   1030000200030000   333800010001203104000003327KBZPay                 Yangon        MMR11005141346141614290514000000000000000   10300001F05104100000000002100000000000000     
100   95050310213446310000000000019600000000019600002000000010410405140844501450158351370514000007161417   1020000200030000   333400010001204104000000281Myanmar Soft-Gate Tech Yangon        MMR11005140844501450150514000000000000000   10300001F05104100000000004116000000000000     
100   95050319870763910000000000000980000000000980002000000010410405141056162616452794680514000007161849   1020000200030000   333400010001204104000000281Myanmar Soft-Gate Tech Yangon        MMR11005141056162616450514000000000000000   10300001F05104100000000000206000000000000     
100   95050327996244850000000000030000000000030000002000000010410405140315124512993809030514000007160018   1030000200030000   3338000100012031040000040022C2P (Myanmar) Co. Ltd Yangon        MMR11005140315124512990514000000000000000   10300001F05104100000000006300000000000000     
100   95050313123223200000000000000980000000000980002000000010410405140524205420958415630514000007160635   1020000200030000   333400010001204104000000281Myanmar Soft-Gate Tech Yangon        MMR11005140524205420950514000000000000000   10300001F05104100000000000206000000000000     
100   95050315158357300000000000002940000000002940002000000010410405141145391539283899550514000007162010   1020000200030000   333400010001204104000000281Myanmar Soft-Gate Tech Yangon        MMR11005141145391539280514000000000000000   10300001F05104100000000000617000000000000     
100   95050319528093960000000000000980000000000980002000000010410405141247001700018942100514000007162266   1020000200030000   333400010001204104000000281Myanmar Soft-Gate Tech Yangon        MMR11005141247001700010514000000000000000   10300001F05104100000000000206000000000000     
100   95050328384000040000000001800000000001800000002000000010410405140931487590352389500514192011648133   1030000900030000   573219001183190110000000939UNIQUE Thingangyun     YANGONNGKUUN  MMR11005140931487590350514000000000000000   10300001F00104100000000432000000000000000     
100   62911028202909880000000000026000000000026000002000000010410405140644019281934369000514213413928193   1040001600030000   569120000931000000010000678Generation Concept Sto Ygn           MMR11005140644019281930514000000000000000   10300001F00104100000000001560000000000000     
100   62911028202917880000000000029331000000029331002000000010410405140929227589854369000514157591522133   1030000900030000   541119001242190110000000955City Mart JS C 1       YANGONUT      MMR11005140929227589850514000000000000000   10300001F00104100000000001760000000000000     
100   62443100306045460000000000078100000000078100002000000010410405141116587617822514080514206461758133   1030000900030000   541119001280190110000000963City Mart SPL C 5      YANGONMYOTHIT MMR11005141116587617820514000000000000000   10300001F00104100000000019525000000000000     
100   62443100306045460000000000013400000000013400002000000010410405141201197627565381840514899311819133   1030000900030000   541119001290190110000000965City Mart SPL City Car YANGONMYOTHIT MMR11005141201197627560514000000000000000   10300001F00104100000000003350000000000000     
100   95030374458345210000000000046380000000046380002000000010410405141157297626864369000514847271829133   1030000900030000   541119000124190110000000080Sein Gay Har BAK       YANGONADA     MMR11005141157297626860514000000000000000   10300001F00104100000000002783000000000000     
100   62443100372718280000000000023000000000023000002000000010410405140109049104415793790514213408910441   1040001600030000   598320000658000000010000527Shwe Taung Energy (YGN Yangon        MMR11005140109049104410514000000000000000   10300001F00104100000000002760000000000000     
100   95030325332426120000000000032100000000032100002000000010410405140342417507314369000514266121041133   1030000900030000   541119001083190110000000872Sein Gay Har Hledan    YANGONUT      MMR11005140342417507310514000000000000000   10300001F00104100000000001926000000000000     
100   62911028202610540000000000001450000000001450002000000010410405140509207527164369000514693391120133   1030000900030000   541119000130190110000000082Sein Gay Har Super Cen YANGON        MMR11005140509207527160514000000000000000   10300001F00104100000000000087000000000000     
100   62443101023815100000000000049000000000049000002000000010410405140129359113270262550514213408911327   1040001600030000   598320001170000000010000527Shwe Taung Energy (YGN Yangon        MMR11005140129359113270514000000000000000   10300001F00104100000000005880000000000000     
100   95030394609966640000000000040000000000040000002000000010410405130542180005424369000513000344837733   1030000300030000   598300001210000000000000817CB BANK                SHWE TAUNG EN MMR11005130542180005420513000000000000000   10300001F00104100000000001200000000000000     
100   95030301100425040000000000003900000000003900002000000010410405131053490012544369000513000344879010   1030000300030000   591200000188000000000000093CB BANK                MEDICARE STOR MMR11005131053490012540513000000000000000   10300001F00104100000000000234000000000000     
100   62443100333488440000000000085000000000085000002000000010410405130740500006212067800513000344853343   1030000300030000   701100001001000000000000708CB BANK                INYA LAKE (RE MMR11005130740500006210513000000000000000   10300001F00104100000000036125000000000000     
100   62911028202164620000000000003400000000003400002000000010410405130740348591544369000513213314859154   1040001600030000   541120000559000000010000465Ocean Shwe Gone Daing  Yangon        MMR11005130740348591540513000000000000000   10300001F00104100000000000204000000000000     
100   62911028202164620000000000000700000000000700002000000010410405130741558592204369000513213314859220   1040001600030000   541120000559000000010000465Ocean Shwe Gone Daing  Yangon        MMR11005130741558592200513000000000000000   10300001F00104100000000000042000000000000     
100   62911028202308280000000000037200000000037200002000000010410405130757558600114369000513213314860011   1040001600030000   581420000076000000010000074Hot Pot City Ahlone    Yangon        MMR11005130757558600110513000000000000000   10300001F00104100000000001116000000000000     
100   62911028202467900000000000029900000000029900002000000010410405140637301208634369000514584061345133   1030000300030000   555510120217104519000017198RENE Mattias YGN CM                  MMR11005140637301208630514000000000000000   10300001 00104100000000001794000000000000     
100   62911028202907490000000000057850000000057850002000000010410405140337149172214369000514213410917221   1040001600030000   591220000299000000010000287Shwe Ohh Pharmacy (Yan Yangon        MMR11005140337149172210514000000000000000   10300001F00104100000000003471000000000000     
100   62911028202304890000000000734000000000734000002000000010410405140515307528304369000514768451130133   1030000900030000   59441900052919011000000037729 Jewellery           YANGONUT      MMR11005140515307528300514000000000000000   10300001F00104100000000044040000000000000     
100   95030301100120440000000000040950000000040950002000000010410405141117417617974369000514214471741133   1030000900030000   541119001208190110000000948City Mart YK C 6       YANGONAUNG    MMR11005141117417617970514000000000000000   10300001F00104100000000002457000000000000     
100   95050316421999920000000000004050000000004050002000000010410405140450177522729337910514361201117133   1030000900030000   541119001511190110000001102Ocean MGDTM C-4        YANGONADON    MMR11005140450177522720514000000000000000   10300001F00104100000000001013000000000000     
100   62443100300743690000000000008000000000008000002000000010410405140700017553875154400514663301301133   1030000900030000   541119001372190110000000978Ocean PZD Season C 2   YANGONAUNG    MMR11005140700017553870514000000000000000   10300001F00104100000000002000000000000000     
100   62911028202523430000000000027950000000027950002000000010410405140357039182064369000514213410918206   1040001600030000   591220000274000000010000262Shwe Ohh Pharmacy (Shw Yangon        MMR11005140357039182060514000000000000000   10300001F00104100000000001677000000000000     
100   62911028202764820000000000018500000000018500002000000010410405140415487514404369000514752451048133   1030000900030000   541119001074190110000000872Sein Gay Har Hledan    YANGONUT      MMR11005140415487514400514000000000000000   10300001F00104100000000001110000000000000     
100   95030301100423890000000000030901000000030901002000000010410405140749537565434369000514449191453133   1030000900030000   581219000006190110000000004Jo Jo Hot Pot Junction YANGONUT      MMR11005140749537565430514000000000000000   10300001F00104100000000003152000000000000     
100   62911028202281370000000000037750000000037750002000000010410405140837507576704369000514223071550133   1030000900030000   541119001219190110000000945City Mart TM C 4       YANGONONE     MMR11005140837507576700514000000000000000   10300001F00104100000000002265000000000000     
100   62911028202169750000000000225872000000225872002000000010410405141157230128254369000514000747019519   1030000200030000   541188001009000008000000008KBZ BANK               MARKETPLACE - MMR11005141157230128250514000000000000000   10300001 00104100000000013552000000000000     
100   62911028202764820000000000011100000000011100002000000010410405140437087519594369000514136071108133   1030000900030000   541119001079190110000000872Sein Gay Har Hledan    YANGONUT      MMR11005140437087519590514000000000000000   10300001F00104100000000000666000000000000     
100   95050329252108030000000000108300000000108300002000000010410405141028571244116056000514829011728133   1030000500030000   555610118967104519000016137City Mart South Okkala WZYD BR       MMR11005141028571244110514000000000000000   10300001 00104100000000027075000000000000     
100   95050329213164970000000000019700000000019700002000000010410405140920000016735085450514000747013605   1030000200030000   541188001479000008000000399KBZ BANK               OCEAN SUPERCE MMR11005140920000016730514000000000000000   10300001 00104100000000004925000000000000     
100   62911028202474000000000000048454000000048454002000000010410405141114080025844369000514000747017739   1030000200030000   541188001005000008000000008KBZ BANK               MARKETPLACE - MMR11005141114080025840514000000000000000   10300001 00104100000000002907000000000000     
100   62443100323891610000000000033670000000033670002000000010410405141602380021331892860514000747030295   1030000200030000   541188001360000008000000395KBZ BANK               OCEAN SUPERMA MMR11005141602380021330514000000000000000   10300001 00104100000000008418000000000000     
100   95050318065288040000000000047600000000047600002000000010410405140700000022236005360514000747023578   1030000200030000   569988000778000008000004529KBZ BANK               JSQ-IPANEMA   MMR11005140700000022230514000000000000000   10300001 00104100000000011424000000000000     
100   62911028202137090000000000022500000000022500002000000010410405141010450002894369000514000747032067   1030000200030000   806288001905000008000001738KBZ BANK               SHWE GONE DIN MMR11005141010450002890514000000000000000   10300001 00104100000000001350000000000000     
100   62443100376865460000000000023450000000023450002000000010410405141128307620469252760514392581730133   1030000900030000   541119001242190110000000955City Mart JS C 1       YANGONUT      MMR11005141128307620460514000000000000000   10300001F00104100000000005863000000000000     
100   62911028202610540000000000010400000000010400002000000010410405140559557538114369000514492291255133   1030000900030000   581219000931190110000000740Shwe Palin City Mall   YANGONAW      MMR11005140559557538110514000000000000000   10300001F00104100000000001061000000000000     
100   62911028202314610000000000008500000000008500002000000010410405140615457541874369000514757451245133   1030000900030000   591219000983190110000000790Shwe Ohh Pharmacy St 4 YANGONOKKALAP MMR11005140615457541870514000000000000000   10300001F00104100000000000510000000000000     
100   62911028202610540000000000001400000000001400002000000010410405140615457541884369000514758451245133   1030000900030000   581219000931190110000000740Shwe Palin City Mall   YANGONAW      MMR11005140615457541880514000000000000000   10300001F00104100000000000143000000000000     
100   62443100379321630000000000041554000000041554002000000010410405140059229100645368290514213407910064   1040001600030000   598320000316000000010000304PT Power Petrol Statio Yangon        MMR11005140059229100640514000000000000000   10300001F00104100000000004986000000000000     
100   62911028202416760000000000094011000000094011002000000010410405140344349175634369000514213410917563   1040001600030000   598320000316000000010000304PT Power Petrol Statio Yangon        MMR11005140344349175630514000000000000000   10300001F00104100000000002820000000000000     
100   62911028202169750000000000030000000000030000002000000010410405140720557558814369000514990501355133   1030000900030000   554119001101190110000000213New Day Energy SOK     YANGONOKKALAP MMR11005140720557558810514000000000000000   10300001F00104100000000000900000000000000     
100   62911028202610540000000000004200000000004200002000000010410405140508057526924369000514675381105133   1030000900030000   541119000130190110000000082Sein Gay Har Super Cen YANGON        MMR11005140508057526920514000000000000000   10300001F00104100000000000252000000000000     
100   95050312539675540000000000004400000000004400002000000010410405142008160005053388970514000747039202   1030000200030000   541188001337000008000000327KBZ BANK               CITY MART - S MMR11005142008160005050514000000000000000   10300001 00104100000000001100000000000000     
100   62443100322986690000000000048110000000048110002000000010410405141100180013426488090514000747034167   1030000200030000   569988000804000008000004617KBZ BANK               JCY-TFS       MMR11005141100180013420514000000000000000   10300001 00104100000000011546000000000000     
100   95050312482469810000000000010200000000010200002000000010410405141244290006156359550514000747021441   1030000200030000   541188001287000008000000472KBZ BANK               NEIGHBOURHOOD MMR11005141244290006150514000000000000000   10300001 00104100000000002550000000000000     
100   95050310719071210000000000006200000000006200002000000010410405141224020007827281830514000747020597   1030000200030000   541188001448000008000000401KBZ BANK               OCEAN SUPERCE MMR11005141224020007820514000000000000000   10300001 00104100000000001550000000000000     
100   62911028202690080000000000007750000000007750002000000010410405141405410026374369000514000747025127   1030000200030000   541188001004000008000000008KBZ BANK               MARKETPLACE - MMR11005141405410026370514000000000000000   10300001 00104100000000000465000000000000     
100   62911028202125030000000000047750000000047750002000000010410405140946010026094369000514000747014478   1030000200030000   541188001004000008000000008KBZ BANK               MARKETPLACE - MMR11005140946010026090514000000000000000   10300001 00104100000000002865000000000000     
100   95050316638224720000000000019850000000019850002000000010410405141355310005415867300514000747024693   1030000200030000   541188001425000008000000401KBZ BANK               OCEAN SUPERCE MMR11005141355310005410514000000000000000   10300001 00104100000000004963000000000000     
100   62911028202138320000000000014700000000014700002000000010410405140730500050304369000514000007161102   1020000200030000   333400010001204104000000281Myanmar Soft-Gate Tech Yangon        MMR11005140730500050300514000000000000000   10300001F05104100000000003087000000000000     
100   62911028202789750000000000028200000000028200002000000010410405141104509451724369000514213418945172   1040001600030000   591220000271000000010000259Shwe Ohh Pharmacy (Gwa Yangon        MMR11005141104509451720514000000000000000   10300001F00104100000000001692000000000000     
100   62911028202116120000000000024150000000024150002000000010410405141048369436584369000514213417943658   1040001600030000   591220000258000000010000246Shwe Ohh Pharmacy (Sin Yangon        MMR11005141048369436580514000000000000000   10300001F00104100000000001449000000000000     
100   62911028202169750000000000064088000000064088002000000010410405140619089266934369000514213413926693   1040001600030000   541120000557000000010000465Ocean Shwe Gone Daing  Yangon        MMR11005140619089266930514000000000000000   10300001F00104100000000003845000000000000     
100   62911028202421040000000000012950000000012950002000000010410405140909031230984369000514231401502133   1030000500030000   555610122584104519000018896City Mart Hlaing Thar  ar            MMR11005140909031230980514000000000000000   10300001 00104100000000000777000000000000     
100   95050320624349010000000000050000000000050000002000000010410405140644219282232176000514213413928223   1040001600030000   598320000915000000010000664MMTM - North Dagon     Ygn           MMR11005140644219282230514000000000000000   10300001F00104100000000006000000000000000     
100   62911028202473840000000000015950000000015950002000000010410405141126509472704369000514213418947270   1040001600030000   591220000296000000010000284Shwe Ohh Pharmacy (Lan Yangon        MMR11005141126509472700514000000000000000   10300001F00104100000000000957000000000000     
100   62911028202467900000000000020000000000020000002000000010410405140650089285774369000514213413928577   1040001600030000   569120000925000000010000672Generation Concept Sto Ygn           MMR11005140650089285770514000000000000000   10300001F00104100000000001200000000000000     
100   62443100382109160000000000025502000000025502002000000010410405141136209481745991440514213418948174   1040001600030000   541120000559000000010000465Ocean Shwe Gone Daing  Yangon        MMR11005141136209481740514000000000000000   10300001F00104100000000006376000000000000     
100   95050316638224720000000000015000000000015000002000000010410405140739110911495370650514000007161139   1030000200030000   333800010001203104000003327KBZPay                 Yangon        MMR11005140739110911490514000000000000000   10300001F05104100000000003150000000000000     
100   95050322158563070000000000011350000000011350002000000010410405141559410215473383650514000747030147   1030000200030000   541188001037000008000000010KBZ BANK               MARKETPLACE - MMR11005141559410215470514000000000000000   10300001 00104100000000002838000000000000     
100   95050312224678430000000000001960000000001960002000000010410405140132590259190688010514000007159662   1020000200030000   333400010001204104000000281Myanmar Soft-Gate Tech Yangon        MMR11005140132590259190514000000000000000   10300001F05104100000000000412000000000000     
100   62911028202907490000000000002000000000002000002000000010410405140416341188834369000514369481035133   1030000500030000   555610103468104519000003420City Mart Yankin Cente 7             MMR11005140416341188830514000000000000000   10300001 00104100000000000120000000000000     
100   95050326393773020000000000007750000000007750002000000010410405141014150026535791430514000747015451   1030000200030000   541188001452000008000000391KBZ BANK               OCEAN SUPER C MMR11005141014150026530514000000000000000   10300001 00104100000000001938000000000000     
100   95050312210363590000000000001000000000001000002000000010410405141532110211519998910514000007162816   1030000200030000   333800010001203104000003327KBZPay                 Yangon        MMR11005141532110211510514000000000000000   10300001F05104100000000000210000000000000     
100   95050316785465380000000000000980000000000980002000000010410405141139170917175494800514000007161979   1020000200030000   333400010001204104000000281Myanmar Soft-Gate Tech Yangon        MMR11005141139170917170514000000000000000   10300001F05104100000000000206000000000000     
100   95030301100120850000000000010000000000010000002000000010410405140241571157284369000514000007159873   1030000200030000   333800010001203104000003327KBZPay                 Yangon        MMR11005140241571157280514000000000000000   10300001F05104100000000002100000000000000     
100   62911028202524260000000000006350000000006350002000000010410405141108059454604369000514213418945460   1040001600030000   591220000261000000010000249Shwe Ohh Pharmacy (Thi Yangon        MMR11005141108059454600514000000000000000   10300001F00104100000000000381000000000000     
100   62911028202595200000000000100950000000100950002000000010410405140931131234064369000514601001627133   1030000300030000   555510124358104519000020166Makro Myanmar                        MMR11005140931131234060514000000000000000   10300001 00104100000000006057000000000000     
100   95050312539675540000000000017528000000017528002000000010410405142001540005048346420514000747039098   1030000200030000   541188001337000008000000327KBZ BANK               CITY MART - S MMR11005142001540005040514000000000000000   10300001 00104100000000004382000000000000     
100   62443101037081820000000000053450000000053450002000000010410405141147381255653814450514237171817133   1030000300030000   555510124689104519000020166Makro Myanmar                        MMR11005141147381255650514000000000000000   10300001 00104100000000012828000000000000     
100   95050325925517520000000000061000000000061000002000000010410405140751471219939625260514898211453133   1030000300030000   555510124363104519000020166Makro Myanmar                        MMR11005140751471219930514000000000000000   10300001 00104100000000014640000000000000     
100   95050322715181550000000000066000000000066000002000000010410405141215169520727459810514213419952072   1040001600030000   598320000658000000010000527Shwe Taung Energy (YGN Yangon        MMR11005141215169520720514000000000000000   10300001F00104100000000007920000000000000     
100   62911028202717310000000000011650000000011650002000000010410405141105511249594369000514497351713133   1030000500030000   555610108840104519000003432City Mart Junction Zaw na 1          MMR11005141105511249590514000000000000000   10300001 00104100000000000699000000000000     
100   95030301100423890000000000049000000000049000002000000010410405140700499292374369000514213414929237   1040001600030000   569120000931000000010000678Generation Concept Sto Ygn           MMR11005140700499292370514000000000000000   10300001F00104100000000002940000000000000     
100   62911028202674810000000000022500000000022500002000000010410405141310340043284369000514000747022589   1030000200030000   541188001057000008000000314KBZ BANK               MARKETPLACE - MMR11005141310340043280514000000000000000   10300001 00104100000000001350000000000000     
100   95050319308486800000000000030600000000030600002000000010410405141016300026540046250514000747015525   1030000200030000   541188001452000008000000391KBZ BANK               OCEAN SUPER C MMR11005141016300026540514000000000000000   10300001 00104100000000007650000000000000     
100   95030301100354740000000000028000000000028000002000000010410405141431010101384369000514000007162630   1030000200030000   333800010001203104000003327KBZPay                 Yangon        MMR11005141431010101380514000000000000000   10300001F05104100000000005880000000000000     
100   95030394609966640000000000004200000000004200002000000010410405141717040166354369000514000747033634   1030000200030000   541188001020000008000000298KBZ BANK               CITY MART - M MMR11005141717040166350514000000000000000   10300001 00104100000000000252000000000000     
100   95050311959900780000000000000980000000000980002000000010410405140133290329056361880514000007159665   1020000200030000   333400010001204104000000281Myanmar Soft-Gate Tech Yangon        MMR11005140133290329050514000000000000000   10300001F05104100000000000206000000000000     
100   95050310332595380000000000004900000000004900002000000010410405141131520152184997730514000007161959   1020000200030000   333400010001204104000000281Myanmar Soft-Gate Tech Yangon        MMR11005141131520152180514000000000000000   10300001F05104100000000001029000000000000     
100   95030364439875210000000000051635000000051635002000000010410405141619120280554369000514000747031057   1030000200030000   541188001042000008000000010KBZ BANK               MARKETPLACE - MMR11005141619120280550514000000000000000   10300001 00104100000000003098000000000000     
100   95030327835334700000000000006000000000006000002000000010410405141957030150404369000514000747039001   1030000200030000   541188001242000008000000323KBZ BANK               CITY MART - I MMR11005141957030150400514000000000000000   10300001 00104100000000000360000000000000     
100   62911028202091860000000000007950000000007950002000000010410405140825451224904369000514505551435133   1030000500030000   555610115764104519000013506MarketplaceMyanmarPlaz Branch        MMR11005140825451224900514000000000000000   10300001 00104100000000000477000000000000     
100   95050322990383760000000000059950000000059950002000000010410405141154529500420424390514213418950042   1040001600030000   591220000301000000010000289Shwe Ohh Pharmacy (Yay Yangon        MMR11005141154529500420514000000000000000   10300001F00104100000000014388000000000000     
100   62911028202184760000000000050000000000050000002000000010410405140840249346794369000514213415934679   1040001600030000   598320000911000000010000662MMTM - Tamwe           Ygn           MMR11005140840249346790514000000000000000   10300001F00104100000000001500000000000000     
100   62911028202524260000000000060650000000060650002000000010410405141105439452364369000514213418945236   1040001600030000   591220000261000000010000249Shwe Ohh Pharmacy (Thi Yangon        MMR11005141105439452360514000000000000000   10300001F00104100000000003639000000000000     
100   62911028202225850000000000005800000000005800002000000010410405141208370182184369000514000747019950   1030000200030000   541188001082000008000000294KBZ BANK               CITY MART - J MMR11005141208370182180514000000000000000   10300001 00104100000000000348000000000000     
100   95050312210363590000000000001000000000001000002000000010410405141548061806111651390514000007162877   1030000200030000   333800010001203104000003327KBZPay                 Yangon        MMR11005141548061806110514000000000000000   10300001F05104100000000000210000000000000     
100   95050316321163940000000000001960000000001960002000000010410405140350162016662670450514000007160177   1020000200030000   333400010001204104000000281Myanmar Soft-Gate Tech Yangon        MMR11005140350162016660514000000000000000   10300001F05104100000000000412000000000000     
100   95050316586367540000000000004900000000004900002000000010410405141123315331068259050514000007161940   1020000200030000   333400010001204104000000281Myanmar Soft-Gate Tech Yangon        MMR11005141123315331060514000000000000000   10300001F05104100000000001029000000000000     
100   62911028202212230000000000002200000000002200002000000010410405140955480190534369000514000747014807   1030000200030000   541188001080000008000000294KBZ BANK               CITY MART - J MMR11005140955480190530514000000000000000   10300001 00104100000000000132000000000000     
100   95050318180584510000000000013000000000013000002000000010410405140936480648870899570514000007161595   1030000200030000   333800010001203104000003327KBZPay                 Yangon        MMR11005140936480648870514000000000000000   10300001F05104100000000002730000000000000     
100   95050310427855490000000000005880000000005880002000000010410405140239380938481256140514000007159860   1020000200030000   333400010001204104000000281Myanmar Soft-Gate Tech Yangon        MMR11005140239380938480514000000000000000   10300001F05104100000000001235000000000000     
100   95050311403968010000000000005000000000005000002000000010410405140638180818989551840514000007160901   1030000200030000   333800010001203104000003327KBZPay                 Yangon        MMR11005140638180818980514000000000000000   10300001F05104100000000001050000000000000     
100   62911028202616250000000000075000000000075000002000000010410405140619281205324369000514187501209133   1030000500030000   555610112238104519000010487Ocean Super Center St  ohn           MMR11005140619281205320514000000000000000   10300001 00104100000000004500000000000000     
100   62911028202792960000000000016800000000016800002000000010410405140945321236654369000514917161616133   1030000500030000   555610110595104519000009166City Mart 47 Branch                  MMR11005140945321236650514000000000000000   10300001 00104100000000001008000000000000     
100   62443100379321630000000000011520000000011520002000000010410405141057581248471239760514368281741133   1030000300030000   444410114754104519000012700The Kalaw Heritage Hot l             MMR11005141057581248470514000000000000000   10300001 00104100000000004896000000000000     
100   95050312675873230000000000002940000000002940002000000010410405140749571957419128190514000007161195   1020000200030000   333400010001204104000000281Myanmar Soft-Gate Tech Yangon        MMR11005140749571957410514000000000000000   10300001F05104100000000000617000000000000     
100   95050316785465380000000000000980000000000980002000000010410405141147431743985552030514000007162026   1020000200030000   333400010001204104000000281Myanmar Soft-Gate Tech Yangon        MMR11005141147431743980514000000000000000   10300001F05104100000000000206000000000000     
100   62911028202788350000000000010000000000010000002000000010410405131909363936454369000514000007159335   1030000200030000   333800010001203104000003327KBZPay                 Yangon        MMR11005131909363936450514000000000000000   10300001F05104100000000002100000000000000     
100   95050319870763910000000000000980000000000980002000000010410405141059082908576985160514000007161867   1020000200030000   333400010001204104000000281Myanmar Soft-Gate Tech Yangon        MMR11005141059082908570514000000000000000   10300001F05104100000000000206000000000000     
100   95050322312885760000000000050000000000050000002000000010410405140650252025952955660514000007160952   1030000200030000   333800010001203104000003327KBZPay                 Yangon        MMR11005140650252025950514000000000000000   10300001F05104100000000010500000000000000     
100   95050312005798410000000000011000000000011000002000000010410405141302533253608431520514000007162324   1030000900030000   333400010001202104000002022ACS                    Yangon        MMR11005141302533253600514000000000000000   10300001F05104100000000002310000000000000     
100   95050312240830690000000000001999000000001999002000000010410405141152012201342161970514000007162042   1030000200030000   3333000100012031040000040282C2P (Myanmar) Co. Ltd Yangon        MMR11005141152012201340514000000000000000   10300001F05104100000000010000000000000000     
100   95050316818236190000000000004900000000004900002000000010410405141252012201581736480514000007162284   1020000200030000   333400010001204104000000281Myanmar Soft-Gate Tech Yangon        MMR11005141252012201580514000000000000000   10300001F05104100000000001029000000000000     
100   95050316321163940000000000002940000000002940002000000010410405140315204520086433190514000007160020   1020000200030000   333400010001204104000000281Myanmar Soft-Gate Tech Yangon        MMR11005140315204520080514000000000000000   10300001F05104100000000000617000000000000     
100   95050324247403260000000000053050000000053050002000000010410405140503561195211536610514033361121133   1030000500030000   555610104041104519000003821City Mart North Point  enter         MMR11005140503561195210514000000000000000   10300001 00104100000000013263000000000000     
100   62443100379321630000000000130000000000130000002000000010410405140940401235866644540514819111607133   1030000300030000   444410114754104519000012700The Kalaw Heritage Hot l             MMR11005140940401235860514000000000000000   10300001 00104100000000055250000000000000     
100   95030333409030400000000000019500000000019500002000000010410405141002461240084369000514335361632133   1030000500030000   555610118958104519000016137City Mart South Okkala WZYD BR       MMR11005141002461240080514000000000000000   10300001 00104100000000001170000000000000     
100   95050327996244850000000000100000000000100000002000000010410405140543131313425083090514000007160710   1030000200030000   333800010001203104000003327KBZPay                 Yangon        MMR11005140543131313420514000000000000000   10300001F05104100000000021000000000000000     
100   95050318964967630000000000001960000000001960002000000010410405140650492049519480530514000007160955   1020000200030000   333400010001204104000000281Myanmar Soft-Gate Tech Yangon        MMR11005140650492049510514000000000000000   10300001F05104100000000000412000000000000     
100   95050313123223200000000000000980000000000980002000000010410405141144581458378857000514000007162009   1020000200030000   333400010001204104000000281Myanmar Soft-Gate Tech Yangon        MMR11005141144581458370514000000000000000   10300001F05104100000000000206000000000000     
100   95030314863516850000000000014600000000014600002000000010410405141616484648344369000514000007162949   1030000200030000   333800010001203104000003327KBZPay                 Yangon        MMR11005141616484648340514000000000000000   10300001F05104100000000003066000000000000     
100   95050316321163940000000000000980000000000980002000000010410405140317284728310968520514000007160031   1020000200030000   333400010001204104000000281Myanmar Soft-Gate Tech Yangon        MMR11005140317284728310514000000000000000   10300001F05104100000000000206000000000000     
100   95050317376014640000000000000980000000000980002000000010410405140229385938185439600514000007159835   1020000200030000   333400010001204104000000281Myanmar Soft-Gate Tech Yangon        MMR11005140229385938180514000000000000000   10300001F05104100000000000206000000000000     
100   95050327192897240000000000004900000000004900002000000010410405140642541254623027010514000007160921   1020000200030000   333400010001204104000000281Myanmar Soft-Gate Tech Yangon        MMR11005140642541254620514000000000000000   10300001F05104100000000001029000000000000     
100   95050314308945310000000000020000000000020000002000000010410405140153482348012461250514000007159720   1030000200030000   333800010001203104000003327KBZPay                 Yangon        MMR11005140153482348010514000000000000000   10300001F05104100000000004200000000000000     
100   95050310652791070000000000010000000000010000002000000010410405140004273427956219250514000007159486   1030000200030000   333800010001203104000003327KBZPay                 Yangon        MMR11005140004273427950514000000000000000   10300001F05104100000000002100000000000000     
100   62911028202136750000000000149800000000149800002000000010410405140928281233634369000514547581505133   1030000300030000   555510124696104519000020166Makro Myanmar                        MMR11005140928281233630514000000000000000   10300001 00104100000000008988000000000000     
100   95030314863516850000000000009500000000009500002000000010410405131745011501254369000514000007159248   1030000200030000   333800010001203104000003327KBZPay                 Yangon        MMR11005131745011501250514000000000000000   10300001F05104100000000001995000000000000     
100   95050315250339200000000000000980000000000980002000000010410405140501403140261962110514000007160527   1020000200030000   333400010001204104000000281Myanmar Soft-Gate Tech Yangon        MMR11005140501403140260514000000000000000   10300001F05104100000000000206000000000000     
100   62911028202222620000000000025550000000025550002000000010410405140325517504434369000514081550951133   1030000900030000   541119000112190110000000077Sein Gay Har Chinatown YANGON        MMR11005140325517504430514000000000000000   10300001F00104100000000001533000000000000     
100   95050314307746340000000000000980000000000980002000000010410405140252502250834234490514000007159914   1020000200030000   333400010001204104000000281Myanmar Soft-Gate Tech Yangon        MMR11005140252502250830514000000000000000   10300001F05104100000000000206000000000000     
100   95050312792817170000000000001960000000001960002000000010410405140858452845213167180514000007161454   1020000200030000   333400010001204104000000281Myanmar Soft-Gate Tech Yangon        MMR11005140858452845210514000000000000000   10300001F05104100000000000412000000000000     
100   62443100322986690000000000090000000000090000002000000010410405140705051212992104730514082341321133   1030000300030000   555510100032104519000000029Myanmar American Visio               MMR11005140705051212990514000000000000000   10300001 00104100000000021600000000000000     
100   62911028202359000000000000027700000000027700002000000010410405141028481243714369000514770581623133   1030000500030000   555610108840104519000003432City Mart Junction Zaw na 1          MMR11005141028481243710514000000000000000   10300001 00104100000000001662000000000000     
100   95050316818236190000000000001960000000001960002000000010410405140756282628916083770514000007161218   1020000200030000   333400010001204104000000281Myanmar Soft-Gate Tech Yangon        MMR11005140756282628910514000000000000000   10300001F05104100000000000412000000000000     
100   95050316717221100000000000000980000000000980002000000010410405140916234623538017930514000007161530   1020000200030000   333400010001204104000000281Myanmar Soft-Gate Tech Yangon        MMR11005140916234623530514000000000000000   10300001F05104100000000000206000000000000     
100   62911028202510550000000000004800000000004800002000000010410405141005281240974369000514447411640133   1030000500030000   555610120978104519000017741City Express MCS 64                  MMR11005141005281240970514000000000000000   10300001 00104100000000000288000000000000     
100   62911028202792960000000000008950000000008950002000000010410405141154341257094369000514407271825133   1030000500030000   555610110599104519000009166City Mart 47 Branch                  MMR11005141154341257090514000000000000000   10300001 00104100000000000537000000000000     
100   95050319528093960000000000000980000000000980002000000010410405141248521852850084000514000007162275   1020000200030000   333400010001204104000000281Myanmar Soft-Gate Tech Yangon        MMR11005141248521852850514000000000000000   10300001F05104100000000000206000000000000     
100   95050313640946520000000000019500000000019500002000000010410405140831001225615586700514594011543133   1030000500030000   555610103470104519000003420City Mart Yankin Cente 9             MMR11005140831001225610514000000000000000   10300001 00104100000000004875000000000000     
100   95050320559934420000000000152300000000152300002000000010410405140952261237583291320514039211651133   1030000500030000   555610103468104519000003420City Mart Yankin Cente 7             MMR11005140952261237580514000000000000000   10300001 00104100000000038075000000000000     
100   95050325646370920000000000039650000000039650002000000010410405141054411247876552210514282251714133   1030000500030000   555610110563104519000009163City Mart Ayeyarwon Br nch           MMR11005141054411247870514000000000000000   10300001 00104100000000009913000000000000     
100   95050310427855490000000000000980000000000980002000000010410405141602333233049913810514000007162908   1020000200030000   333400010001204104000000281Myanmar Soft-Gate Tech Yangon        MMR11005141602333233040514000000000000000   10300001F05104100000000000206000000000000     
100   95050313702988830000000000002940000000002940002000000010410405141008143814190527080514000007161693   1020000200030000   333400010001204104000000281Myanmar Soft-Gate Tech Yangon        MMR11005141008143814190514000000000000000   10300001F05104100000000000617000000000000     
100   95030367537085740000000000000980000000000980002000000010410405141421385138494369000514000007162597   1020000200030000   333400010001204104000000281Myanmar Soft-Gate Tech Yangon        MMR11005141421385138490514000000000000000   10300001F05104100000000000206000000000000     
100   62911028202616250000000000188000000000188000002000000010410405140542141200204369000514583111237133   1030000300030000   555510125244104519000021098Gadget Store by Win Mo ile Wor       MMR11005140542141200200514000000000000000   10300001 00104100000000011280000000000000     
100   62443100360763680000000000144000000000144000002000000010410405140249471199807139160514540081252133   1030000300030000   555510122556104519000018875VNC Fashion Taw Win Ce ter           MMR11005140249471199800514000000000000000   10300001 00104100000000034560000000000000     
100   95030333409030400000000000092789000000092789002000000010410405141001381239854369000514301351608133   1030000500030000   555610118958104519000016137City Mart South Okkala WZYD BR       MMR11005141001381239850514000000000000000   10300001 00104100000000005567000000000000     
100   95050314570621780000000000000980000000000980002000000010410405140250232023301610290514000007159908   1020000200030000   333400010001204104000000281Myanmar Soft-Gate Tech Yangon        MMR11005140250232023300514000000000000000   10300001F05104100000000000206000000000000     
100   62911028202045180000000000065500000000065500002000000010410405141149291929924369000514000007162035   1030000200030000   333800010001203104000003327KBZPay                 Yangon        MMR11005141149291929920514000000000000000   10300001F05104100000000013755000000000000     
