100   95050318805978240000000000012000000000012000002000000010410405161042520001924064030516213617000192   1030000500030000   541120024703022205411200247ORANGE (SHWE PYI THAR) PTN           MMR11005161042520001920516000000000000000   10300001 00104100000000003000000000000000     
100   62911028202421200000000000060000000000060000002000000010410405160320370016534369000516213609001653   1030000500030000   598320001701000015172200017MAX ENERGY             PTN           MMR11005160320370016530516000000000000000   10300001 00104100000000001800000000000000     
100   62443101006037900000000000050000000000050000002000000010410405160509430016774517090516213611001677   1030000500030000   598320001304000015172200013MAX ENERGY             PTN           MMR11005160509430016770516000000000000000   10300001 00104100000000006000000000000000     
100   62911028202440680000000000005900000000005900002000000010410405160819400001234369000516213614000123   1030000500030000   591220014301014405912200143SHWE OHH PHARMACY      PTN           MMR11005160819400001230516000000000000000   10300001 00104100000000000354000000000000     
100   62911028202203320000000000055800000000055800002000000010410405160340200001324369000516213610000132   1030000500030000   531120201603000085311202016STJ BLAZON             PTN           MMR11005160340200001320516000000000000000   10300001 00104100000000003348000000000000     
100   62911028202126850000000000070000000000070000002000000010410405160725330014044369000516213613001404   1030000500030000   598320001201000015172200012MAX ENERGY             PTN           MMR11005160725330014040516000000000000000   10300001 00104100000000002100000000000000     
100   95030327835334700000000000019350000000019350002000000010410405160302290003244369000516213609000324   1030000500030000   591220132901008605912201329THEIK DI WIN SHOP      PTN           MMR11005160302290003240516000000000000000   10300001 00104100000000001161000000000000     
100   62443100325551180000000000030000000000030000002000000010410405160825410010734184780516213614001073   1030000500030000   598320001601000015172200016MAX ENERGY             PTN           MMR11005160825410010730516000000000000000   10300001 00104100000000003600000000000000     
100   95050312498129060000000000006860000000006860002000000010410405170316434643163615500517000007179171   1020000200030000   333400010001204104000000281Myanmar Soft-Gate Tech Yangon        MMR11005170316434643160517000000000000000   10300001F05104100000000001441000000000000     
100   95030364439875210000000000028992000000028992002000000010410405170612098160994369000517876421209136   1030000900030000   541119001249190110000000955City Mart JS C 8       YANGONUT      MMR11005170612098160990517000000000000000   10300001F00104100000000001740000000000000     
100   95050318597867880000000000010200000000010200002000000010410405170722475247897161970517000007181422   1030000200030000   333800010001203104000003327KBZPay                 Yangon        MMR11005170722475247890517000000000000000   10300001F05104100000000002142000000000000     
100   95050314567080940000000000001960000000001960002000000010410405170322035203971707730517000007179230   1020000200030000   333400010001204104000000281Myanmar Soft-Gate Tech Yangon        MMR11005170322035203970517000000000000000   10300001F05104100000000000412000000000000     
100   95050311382087030000000000000980000000000980002000000010410405171027475747255465760517000007182796   1020000200030000   333400010001204104000000281Myanmar Soft-Gate Tech Yangon        MMR11005171027475747250517000000000000000   10300001F05104100000000000206000000000000     
100   62911028202031710000000000030000000000030000002000000010410405170348288128644369000517012181028136   1030000900030000   554119000346190110000000213New Day Energy SOK     YANGONOKKALAP MMR11005170348288128640517000000000000000   10300001F00104100000000000900000000000000     
100   62911028202451150000000000011500000000011500002000000010410405170937548207144369000517563071654136   1030000900030000   541119001160190110000000930OCEAN HTY C 10         YANGONTHARYA  MMR11005170937548207140517000000000000000   10300001F00104100000000000690000000000000     
100   95050327192897240000000000002940000000002940002000000010410405170310244024861792830517000007179088   1020000200030000   333400010001204104000000281Myanmar Soft-Gate Tech Yangon        MMR11005170310244024860517000000000000000   10300001F05104100000000000617000000000000     
100   95030359617000430000000000050000000000050000002000000010410405160314370028204369000516213603002820   1030000600030000   554100002114315799420001464DENKO PATHEIN-2        AYEYARWADDY   MMR11005160314370028200516000000000000000   10300001 00104100000000001500000000000000     
100   62911028202403550000000000026350000000026350002000000010410405160825070027374369000516213608002737   1030000600030000   5499000022463157994200015701 STOP S M INSEIN      YANGON        MMR11005160825070027370516000000000000000   10300001 00104100000000002688000000000000     
100   95050314767696390000000000079000000000079000002000000010410405160938240005779688460516213616000577   1030000500030000   531120155714000045311201557GAMONE PWINT           PTN           MMR11005160938240005770516000000000000000   10300001 00104100000000018960000000000000     
100   95050310553090700000000000003000000000003000002000000010410405160707430017943624760516000345341223   1030000300030000   541100000936000000000000673CB BANK                ONE STOP MART MMR11005160707430017940516000000000000000   10300001F00104100000000000750000000000000     
100   95050312173216740000000000012950000000012950002000000010410405160810410013350964900516000345350082   1030000300030000   591200000291000000000000172CB BANK                MEDICARE STOR MMR11005160810410013350516000000000000000   10300001F00104100000000003108000000000000     
100   62443100371022130000000000081000000000081000002000000010410405160939420014178035980516213616001417   1030000500030000   598320001201000015172200012MAX ENERGY             PTN           MMR11005160939420014170516000000000000000   10300001 00104100000000009720000000000000     
100   62911028202520380000000000050000000000050000002000000010410405161010450016144369000516213616001614   1030000500030000   598320001202000015172200012MAX ENERGY             PTN           MMR11005161010450016140516000000000000000   10300001 00104100000000001500000000000000     
100   62911028202195320000000000149900000000149900002000000010410405160523100002284369000516213611000228   1030000500030000   531120201504000085311202015HAGL BLAZON            PTN           MMR11005160523100002280516000000000000000   10300001 00104100000000008994000000000000     
100   95050314401921990000000000004000000000004000002000000010410405170310264026970140340517000007179062   1030000200030000   333800010001203104000003327KBZPay                 Yangon        MMR11005170310264026970517000000000000000   10300001F05104100000000000840000000000000     
100   95050312675873230000000000002940000000002940002000000010410405171106163616911103980517000007182967   1020000200030000   333400010001204104000000281Myanmar Soft-Gate Tech Yangon        MMR11005171106163616910517000000000000000   10300001F05104100000000000617000000000000     
100   62443100303127280000000000000980000000000980002000000010410405171107173717908309590517000007182970   1020000200030000   333400010001204104000000281Myanmar Soft-Gate Tech Yangon        MMR11005171107173717900517000000000000000   10300001F05104100000000000206000000000000     
100   95050316653112190000000000005000000000005000002000000010410405170725095509768899550517000007181443   1030000200030000   333800010001203104000003327KBZPay                 Yangon        MMR11005170725095509760517000000000000000   10300001F05104100000000001050000000000000     
100   95050310427855490000000000003920000000003920002000000010410405170257372737094601010517000007178973   1020000200030000   333400010001204104000000281Myanmar Soft-Gate Tech Yangon        MMR11005170257372737090517000000000000000   10300001F05104100000000000823000000000000     
100   95050316997303010000000000003920000000003920002000000010410405170905323532387763360517000007182219   1020000200030000   333400010001204104000000281Myanmar Soft-Gate Tech Yangon        MMR11005170905323532380517000000000000000   10300001F05104100000000000823000000000000     
100   95050315122972560000000000020000000000020000002000000010410405171208493849620203580517000007183211   1040001600030000   333800010001220104000004507A +                    Yangon        MMR11005171208493849620517000000000000000   10300001F05104100000000004200000000000000     
100   95050312498129060000000000000980000000000980002000000010410405171216034603020288670517000007183238   1020000200030000   333400010001204104000000281Myanmar Soft-Gate Tech Yangon        MMR11005171216034603020517000000000000000   10300001F05104100000000000206000000000000     
100   62911028202790310000000000055000000000055000002000000010410405160601010010564369000516213612001056   1030000500030000   598320001601000015172200016MAX ENERGY             PTN           MMR11005160601010010560516000000000000000   10300001 00104100000000001650000000000000     
100   95050329252108030000000000026000000000026000002000000010410405161323010011631404180516213619001163   1030000500030000   598320041903000055983200419MAX ENERGY             PTN           MMR11005161323010011630516000000000000000   10300001 00104100000000003120000000000000     
100   62443100369813440000000000010000000000010000002000000010410405161301430503345205930516213613050334   1030000600030000   554100001756315799420001137DENKO NORTH DAGON 2    YANGON        MMR11005161301430503340516000000000000000   10300001 00104100000000001200000000000000     
100   62443100313002190000000000022758000000022758002000000010410405160335450174379035270516213603017437   1030000600030000   554100001011315799420000505DENKO HTAN TA PIN      YANGON        MMR11005160335450174370516000000000000000   10300001 00104100000000002731000000000000     
100   62911028202471860000000000085000000000085000002000000010410405160650310087374369000516213606008737   1030000600030000   554100001206315799420000658DENKO PATHEIN          PATHEIN.      MMR11005160650310087370516000000000000000   10300001 00104100000000002550000000000000     
100   95050321232876860000000000113000000000113000002000000010410405160332120370313021000516213603037031   1030000600030000   554100001865315799420001235DENKO NAY PYI TAW 2    NAYPYITAW     MMR11005160332120370310516000000000000000   10300001 00104100000000013560000000000000     
100   62911028202610960000000000112000000000112000002000000010410405160604260188914369000516213606018891   1030000600030000   554100002085315799420000471DENKO BAHAN            YANGON        MMR11005160604260188910516000000000000000   10300001 00104100000000003360000000000000     
100   95050322957045260000000000005000000000005000002000000010410405171114284428483352140517000007182991   1030000200030000   3338000100012031040000040022C2P (Myanmar) Co.,Ltd Yangon        MMR11005171114284428480517000000000000000   10300001F05104100000000001050000000000000     
100   62911028202788350000000000010000000000010000002000000010410405162106523652244369000517000007178276   1030000200030000   333800010001203104000003327KBZPay                 Yangon        MMR11005162106523652240517000000000000000   10300001F05104100000000002100000000000000     
100   95050315122972560000000000020000000000020000002000000010410405171218364836848636190517000007183250   1040001600030000   333800010001220104000004507A +                    Yangon        MMR11005171218364836840517000000000000000   10300001F05104100000000004200000000000000     
100   62911028202488950000000000020000000000020000002000000010410405171348488261024369000517976182048136   1030000900030000   554119000347190110000000214New Day Energy MTN     YANGONARTAUNG MMR11005171348488261020517000000000000000   10300001F00104100000000000600000000000000     
100   95050313710136610000000000007840000000007840002000000010410405171419504950113763830517000007183724   1020000200030000   333400010001204104000000281Myanmar Soft-Gate Tech Yangon        MMR11005171419504950110517000000000000000   10300001F05104100000000001646000000000000     
100   95050312498129060000000000004900000000004900002000000010410405170424335433604452680517000007179904   1020000200030000   333400010001204104000000281Myanmar Soft-Gate Tech Yangon        MMR11005170424335433600517000000000000000   10300001F05104100000000001029000000000000     
100   62911028202163630000000000015750000000015750002000000010410405170504258143764369000517847341125136   1030000900030000   591219000695190110000000526Shwe Ohh Pharmacy ST-2 YANGONNGKUUN  MMR11005170504258143760517000000000000000   10300001F00104100000000000945000000000000     
100   62911028202117290000000000057975000000057975002000000010410405170630038165624369000517173001303136   1030000900030000   591219000601190110000000441Shwe Ohh Pharmacy St-3 YANGON        MMR11005170630038165620517000000000000000   10300001F00104100000000003479000000000000     
100   95050319928585020000000000001960000000001960002000000010410405171056192619937969210517000007182921   1020000200030000   333400010001204104000000281Myanmar Soft-Gate Tech Yangon        MMR11005171056192619930517000000000000000   10300001F05104100000000000412000000000000     
100   95050316812885810000000000014700000000014700002000000010410405171328555855622366640517000007183541   1020000200030000   333400010001204104000000281Myanmar Soft-Gate Tech Yangon        MMR11005171328555855620517000000000000000   10300001F05104100000000003087000000000000     
100   62443101023815100000000000032000000000032000002000000010410405160049110859754374470516213600085975   1030000600030000   554100000946315799420000471DENKO BAHAN            YANGON        MMR11005160049110859750516000000000000000   10300001 00104100000000003840000000000000     
100   95030306100096490000000000004900000000004900002000000010410405170609033903724369000517000007180790   1020000200030000   333400010001204104000000281Myanmar Soft-Gate Tech Yangon        MMR11005170609033903720517000000000000000   10300001F05104100000000001029000000000000     
100   62911028202217360000000000006900000000006900002000000010410405171054520191914369000517000747140218   1030000200030000   541188001080000008000000294KBZ BANK               CITY MART - J MMR11005171054520191910517000000000000000   10300001 00104100000000000414000000000000     
100   95030361482647470000000000033192000000033192002000000010410405171624140330474369000517000747159647   1030000200030000   541188001041000008000000010KBZ BANK               MARKETPLACE - MMR11005171624140330470517000000000000000   10300001 00104100000000001992000000000000     
100   62911028202291190000000000025900000000025900002000000010410405170356281211064369000517213710121106   1040001600030000   591220000283000000010000271Shwe Ohh Pharmacy ( Ky Yangon        MMR11005170356281211060517000000000000000   10300001F00104100000000001554000000000000     
100   62443101063232860000000000060000000000060000002000000010410405170659121307851864130517213713130785   1040001600030000   598320000659000000010000528Shwe Taung Energy (YGN Yangon        MMR11005170659121307850517000000000000000   10300001F00104100000000007200000000000000     
100   95050317333821270000000000070560000000070560002000000010410405170639380938761779040517000007181049   1030000900030000   333800010001202104000003301uab bank               Yangon        MMR11005170639380938760517000000000000000   10300001F05104100000000014818000000000000     
100   95050310427855490000000000001960000000001960002000000010410405171307523752585586510517000007183457   1020000200030000   333400010001204104000000281Myanmar Soft-Gate Tech Yangon        MMR11005171307523752580517000000000000000   10300001F05104100000000000412000000000000     
100   95050315259054570000000000000980000000000980002000000010410405170921005100188188840517000007182334   1020000200030000   333400010001204104000000281Myanmar Soft-Gate Tech Yangon        MMR11005170921005100180517000000000000000   10300001F05104100000000000206000000000000     
100   95050314567080940000000000002940000000002940002000000010410405170318154815568232570517000007179187   1020000200030000   333400010001204104000000281Myanmar Soft-Gate Tech Yangon        MMR11005170318154815560517000000000000000   10300001F05104100000000000617000000000000     
100   95050314557307430000000000002940000000002940002000000010410405171617164716487749570517000007184077   1020000200030000   333400010001204104000000281Myanmar Soft-Gate Tech Yangon        MMR11005171617164716480517000000000000000   10300001F05104100000000000617000000000000     
100   62443100397667340000000000010780000000010780002000000010410405170425445544351658290517000007179916   1020000200030000   333400010001204104000000281Myanmar Soft-Gate Tech Yangon        MMR11005170425445544350517000000000000000   10300001F05104100000000002264000000000000     
100   62911028202451150000000000002400000000002400002000000010410405170736058179704369000517978061405136   1030000900030000   541119001175190110000000932OCEAN HTY CITY CARE    YANGONTHARYA  MMR11005170736058179700517000000000000000   10300001F00104100000000000144000000000000     
100   62911028202199530000000000035000000000035000002000000010410405170736158179744369000517979061415136   1030000900030000   569119001496190110000001090Next Generation GCS JC YANGONN       MMR11005170736158179740517000000000000000   10300001F00104100000000002100000000000000     
100   95050315330275830000000000000980000000000980002000000010410405161722585258064283660517000007178126   1020000200030000   333400010001204104000000281Myanmar Soft-Gate Tech Yangon        MMR11005161722585258060517000000000000000   10300001F05104100000000000206000000000000     
100   95050322295410690000000000010369000000010369002000000010410405171236381503274905740517032071957136   1030000500030000   555610118962104519000016137City Mart South Okkala WZYD BR       MMR11005171236381503270517000000000000000   10300001 00104100000000002593000000000000     
100   62911028202471860000000000697320000000697320002000000010410405160516490000754369000516213611000075   1030000500030000   701120077601004107011200776BELLE RESORT           PTN           MMR11005160516490000750516000000000000000   10300001 00104100000000071127000000000000     
100   62911028202107390000000000043000000000043000002000000010410405171123148233944369000517256531714136   1030000900030000   554119000346190110000000213New Day Energy SOK     YANGONOKKALAP MMR11005171123148233940517000000000000000   10300001F00104100000000001290000000000000     
100   95050326593223450000000000067000000000067000002000000010410405140950230134509036290514213409013450   1030000600030000   554100002324315799420000481DENKO NORTH OKKALAPA   YANGON        MMR11005140950230134500514000000000000000   10300001 00104100000000008040000000000000     
100   62911028202163630000000000015750000000015750002000000010410405170441491230814369000517213711123081   1040001600030000   591220000302000000010000290Shwe Ohh Pharmacy (Nor Yangon        MMR11005170441491230810517000000000000000   10300001F00104100000000000945000000000000     
100   95030301100126550000000000051000000000051000002000000010410405151202450135804369000515213512013580   1030000600030000   554100002324315799420000481DENKO NORTH OKKALAPA   YANGON        MMR11005151202450135800515000000000000000   10300001 00104100000000001530000000000000     
100   62911028202615590000000000073000000000073000002000000010410405160118030017384369000516213607001738   1030000500030000   598320001004000015172200010MAX ENERGY             PTN           MMR11005160118030017380516000000000000000   10300001 00104100000000002190000000000000     
100   95030393174848800000000000047850000000047850002000000010410405170849598197054369000517991191559136   1030000900030000   541119001191190110000000942City Mart HDC C 6      YANGONUT      MMR11005170849598197050517000000000000000   10300001F00104100000000002871000000000000     
100   95050314567080940000000000002940000000002940002000000010410405170320405040815012700517000007179208   1020000200030000   333400010001204104000000281Myanmar Soft-Gate Tech Yangon        MMR11005170320405040810517000000000000000   10300001F05104100000000000617000000000000     
100   62443100378297160000000000007840000000007840002000000010410405171218404840663593640517000007183247   1020000200030000   333400010001204104000000281Myanmar Soft-Gate Tech Yangon        MMR11005171218404840660517000000000000000   10300001F05104100000000001646000000000000     
100   62911028202417000000000000006175000000006175002000000010410405170240128115514369000517346100912136   1030000900030000   591219001416190110000001020Life Plus Store 21     YANGONAUNG    MMR11005170240128115510517000000000000000   10300001F00104100000000000371000000000000     
100   62911028202488950000000000030000000000030000002000000010410405171349338261154369000517982192033136   1030000900030000   554119000347190110000000214New Day Energy MTN     YANGONARTAUNG MMR11005171349338261150517000000000000000   10300001F00104100000000000900000000000000     
100   95050325052849960000000000015038000000015038002000000010410405151103590859149367580515213511085914   1030000600030000   554100000946315799420000471DENKO BAHAN            YANGON        MMR11005151103590859140515000000000000000   10300001 00104100000000001804000000000000     
100   95050313763920110000000000030000000000030000002000000010410405171321025102524019120517000007183511   1030000200030000   333800010001203104000003327KBZPay                 Yangon        MMR11005171321025102520517000000000000000   10300001F05104100000000006300000000000000     
100   62911028202788350000000000015000000000015000002000000010410405162203003300794369000517000007178299   1030000200030000   333800010001203104000003327KBZPay                 Yangon        MMR11005162203003300790517000000000000000   10300001F05104100000000003150000000000000     
100   62443100379116470000000000002940000000002940002000000010410405170808303830383947810517000007181772   1020000200030000   333400010001204104000000281Myanmar Soft-Gate Tech Yangon        MMR11005170808303830380517000000000000000   10300001F05104100000000000617000000000000     
100   62911028202442250000000000025009000000025009002000000010410405160610450015804369000516213612001580   1030000500030000   598320001203000015172200012MAX ENERGY             PTN           MMR11005160610450015800516000000000000000   10300001 00104100000000000750000000000000     
100   62443100300743690000000000011600000000011600002000000010410405171210591500208551090517649411823136   1030000300030000   555510124365104519000020166Makro Myanmar                        MMR11005171210591500200517000000000000000   10300001 00104100000000002784000000000000     
100   62443100303127280000000000000980000000000980002000000010410405171109283928521614560517000007182978   1020000200030000   333400010001204104000000281Myanmar Soft-Gate Tech Yangon        MMR11005171109283928520517000000000000000   10300001F05104100000000000206000000000000     
100   62911028202359000000000000011990000000011990002000000010410405170743168181204369000517067131416136   1030000900030000   581219000590190110000000430The Tea Club           YANGON        MMR11005170743168181200517000000000000000   10300001F00104100000000001223000000000000     
100   62443100325551180000000000027000000000027000002000000010410405160355370009845389910516213610000984   1030000500030000   503920036604000015039200366PRO-1 HOME CENTER      PTN           MMR11005160355370009840516000000000000000   10300001 00104100000000006480000000000000     
100   95050311382087030000000000002940000000002940002000000010410405170647511751963431520517000007181128   1020000200030000   333400010001204104000000281Myanmar Soft-Gate Tech Yangon        MMR11005170647511751960517000000000000000   10300001F05104100000000000617000000000000     
100   62911028202204490000000000100000000000100000002000000010410405160352200013744369000516213610001374   1030000500030000   598320001201000015172200012MAX ENERGY             PTN           MMR11005160352200013740516000000000000000   10300001 00104100000000003000000000000000     
100   95050312287957830000000000012000000000012000002000000010410405171151531497741856060517379221830136   1030000500030000   555610110597104519000009166City Mart 47 Branch                  MMR11005171151531497740517000000000000000   10300001 00104100000000003000000000000000     
100   62911028202660950000000000010000000000010000002000000010410405170822365236084369000517000007181903   1030000200030000   333800010001203104000003327KBZPay                 Yangon        MMR11005170822365236080517000000000000000   10300001F05104100000000002100000000000000     
100   95050328303533000000000000005000000000005000002000000010410405170522135213876225910517000007180443   1030000200030000   3334000100012031040000040102C2P (Myanmar) Co.,Ltd Yangon        MMR11005170522135213870517000000000000000   10300001F05104100000000001050000000000000     
100   62911028202660950000000000010000000000010000002000000010410405170818454845684369000517000007181870   1030000200030000   333800010001203104000003327KBZPay                 Yangon        MMR11005170818454845680517000000000000000   10300001F05104100000000002100000000000000     
100   62911028202908630000000000030000000000030000002000000010410405170227425742384369000517000007178791   1030000200030000   333800010001203104000003327KBZPay                 Yangon        MMR11005170227425742380517000000000000000   10300001F05104100000000006300000000000000     
100   95030393174848800000000000005700000000005700002000000010410405170826158191274369000517626561415136   1030000900030000   541119001200190110000000943City Mart HDC Season C YANGONUT      MMR11005170826158191270517000000000000000   10300001F00104100000000000342000000000000     
100   62911028202003590000000000036205000000036205002000000010410405171147528239824369000517642171852136   1030000900030000   541119000141190110000000083SeinGayHarParami Cente YANGON        MMR11005171147528239820517000000000000000   10300001F00104100000000002172000000000000     
100   95050314570621780000000000005880000000005880002000000010410405170213074307606374240517000007178717   1020000200030000   333400010001204104000000281Myanmar Soft-Gate Tech Yangon        MMR11005170213074307600517000000000000000   10300001F05104100000000001235000000000000     
100   62911028202533820000000000599900000000599900002000000010410405170748228182634369000517156181422136   1030000900030000   573219001177190110000000933UNIQUE Kabaraye        YANGON        MMR11005170748228182630517000000000000000   10300001F00104100000000035994000000000000     
100   95050313994394430000000000150300000000150300002000000010410405170431540000573395870517000747140674   1030000200030000   594488000568000008000003794KBZ BANK               NAY PYI TAW C MMR11005170431540000570517000000000000000   10300001 00104100000000036072000000000000     
100   62443100388528570000000000300000000000300000002000000010410405170330180018069083530517000007179291   1030000200030000   333800010001203104000003327KBZPay                 Yangon        MMR11005170330180018060517000000000000000   10300001F05104100000000063000000000000000     
100   95050318267399100000000000000980000000000980002000000010410405171236410641936558220517000007183333   1020000200030000   333400010001204104000000281Myanmar Soft-Gate Tech Yangon        MMR11005171236410641930517000000000000000   10300001F05104100000000000206000000000000     
100   62443100301716860000000000000980000000000980002000000010410405170635100510370041460517000007181008   1020000200030000   333400010001204104000000281Myanmar Soft-Gate Tech Yangon        MMR11005170635100510370517000000000000000   10300001F05104100000000000206000000000000     
100   62911028202528710000000000030000000000030000002000000010410405170203181164724369000517213709116472   1040001600030000   598320001059000000010000780Yangon Petrol (Tharket Ygn           MMR11005170203181164720517000000000000000   10300001F00104100000000000900000000000000     
100   95050312482469810000000000021250000000021250002000000010410405171802570070298139400517000747164150   1030000200030000   541188001286000008000000472KBZ BANK               NEIGHBOURHOOD MMR11005171802570070290517000000000000000   10300001 00104100000000005313000000000000     
100   62443100306698200000000000104708000000104708002000000010410405171039570105178012930517000747139341   1030000200030000   541188001002000008000000008KBZ BANK               MARKETPLACE - MMR11005171039570105170517000000000000000   10300001 00104100000000026177000000000000     
100   95050317003064220000000000002940000000002940002000000010410405170334520452493700600517000007179364   1020000200030000   333400010001204104000000281Myanmar Soft-Gate Tech Yangon        MMR11005170334520452490517000000000000000   10300001F05104100000000000617000000000000     
100   62443100316099160000000000200000000000200000002000000010410405170704393439842459810517000007181279   1030000200030000   333800010001203104000003327KBZPay                 Yangon        MMR11005170704393439840517000000000000000   10300001F05104100000000042000000000000000     
100   95050310427855490000000000000980000000000980002000000010410405171520115011876011990517000007183950   1020000200030000   333400010001204104000000281Myanmar Soft-Gate Tech Yangon        MMR11005171520115011870517000000000000000   10300001F05104100000000000206000000000000     
100   95050312498129060000000000002940000000002940002000000010410405162329305930724198560517000007178339   1020000200030000   333400010001204104000000281Myanmar Soft-Gate Tech Yangon        MMR11005162329305930720517000000000000000   10300001F05104100000000000617000000000000     
100   95030317922148660000000001129800000001129800002000000010410405170709448174034369000517645391344136   1030000900030000   729819000768190110000000600Urban Beauty Studio    YANGON        MMR11005170709448174030517000000000000000   10300001F00104100000000067788000000000000     
100   95050312498129060000000000000980000000000980002000000010410405171320385038872281540517000007183510   1020000200030000   333400010001204104000000281Myanmar Soft-Gate Tech Yangon        MMR11005171320385038870517000000000000000   10300001F05104100000000000206000000000000     
100   62911028202132460000000000024200000000024200002000000010410405170318228122444369000517697480922136   1030000900030000   541119000158190110000000084Pro (1) Global (Pazund YANGONARTAUNG MMR11005170318228122440517000000000000000   10300001F00104100000000001452000000000000     
100   95050326094581320000000000032888000000032888002000000010410405171057318227282671370517832271731136   1030000900030000   541119001508190110000001102Ocean MGDTM-C 1        YANGONADON    MMR11005171057318227280517000000000000000   10300001F00104100000000008222000000000000     
100   95050314635839930000000000008500000000008500002000000010410405171027098218993813280517294571609136   1030000900030000   541119000112190110000000077Sein Gay Har Chinatown YANGON        MMR11005171027098218990517000000000000000   10300001F00104100000000002125000000000000     
100   95030308100042590000000000072750000000072750002000000010410405170510081245194369000517213712124519   1040001600030000   591220000275000000010000263Shwe Ohh Pharmacy (Hla Yangon        MMR11005170510081245190517000000000000000   10300001F00104100000000004365000000000000     
100   95050311959900780000000000001960000000001960002000000010410405170633210321746736490517000007180997   1020000200030000   333400010001204104000000281Myanmar Soft-Gate Tech Yangon        MMR11005170633210321740517000000000000000   10300001F05104100000000000412000000000000     
100   95050319938772870000000000005000000000005000002000000010410405171334550455487324090517000007183561   1040001600030000   333800010001220104000004507A +                    Yangon        MMR11005171334550455480517000000000000000   10300001F05104100000000001050000000000000     
100   95050323667276610000000000005880000000005880002000000010410405170938050805597033150517000007182472   1020000200030000   333400010001204104000000281Myanmar Soft-Gate Tech Yangon        MMR11005170938050805590517000000000000000   10300001F05104100000000001235000000000000     
100   95050317517212300000000000025272000000025272002000000010410405170516581249857878400517213712124985   1040001600030000   541120000563000000010000465Ocean Shwe Gone Daing  Yangon        MMR11005170516581249850517000000000000000   10300001F00104100000000006318000000000000     
100   62911028202314610000000000019000000000019000002000000010410405171828270070324369000517000747165139   1030000200030000   541188001286000008000000472KBZ BANK               NEIGHBOURHOOD MMR11005171828270070320517000000000000000   10300001 00104100000000001140000000000000     
100   95050315743141220000000000000980000000000980002000000010410405171232080208361941160517000007183309   1020000200030000   333400010001204104000000281Myanmar Soft-Gate Tech Yangon        MMR11005171232080208360517000000000000000   10300001F05104100000000000206000000000000     
100   62911028202788350000000000005000000000005000002000000010410405162040381038844369000517000007178265   1030000200030000   333800010001203104000003327KBZPay                 Yangon        MMR11005162040381038840517000000000000000   10300001F05104100000000001050000000000000     
100   95050312224678430000000000000980000000000980002000000010410405171022435243492160790517000007182768   1020000200030000   333400010001204104000000281Myanmar Soft-Gate Tech Yangon        MMR11005171022435243490517000000000000000   10300001F05104100000000000206000000000000     
100   95050318131043910000000000000980000000000980002000000010410405170920065006144883870517000007182329   1020000200030000   333400010001204104000000281Myanmar Soft-Gate Tech Yangon        MMR11005170920065006140517000000000000000   10300001F05104100000000000206000000000000     
100   95050313968650950000000000014700000000014700002000000010410405171125325532545089720517000007183034   1020000200030000   333400010001204104000000281Myanmar Soft-Gate Tech Yangon        MMR11005171125325532540517000000000000000   10300001F05104100000000003087000000000000     
100   62911028202440680000000000004500000000004500002000000010410405171102208228834369000517941321720136   1030000900030000   591219000970190110000000777Shwe Ohh Pharmacy St ( YANGONAW      MMR11005171102208228830517000000000000000   10300001F00104100000000000270000000000000     
100   62911028202260400000000000060000000000060000002000000010410405170802388186124369000517338321438136   1030000900030000   554119000346190110000000213New Day Energy SOK     YANGONOKKALAP MMR11005170802388186120517000000000000000   10300001F00104100000000001800000000000000     
100   62911028202233510000000000018500000000018500002000000010410405170837238194034369000517803071523136   1030000900030000   541119000113190110000000077Sein Gay Har Chinatown YANGON        MMR11005170837238194030517000000000000000   10300001F00104100000000001110000000000000     
100   95050318288857520000000000050000000000050000002000000010410405170642451245730126550517000007181075   1030000200030000   333800010001203104000003327KBZPay                 Yangon        MMR11005170642451245730517000000000000000   10300001F05104100000000010500000000000000     
100   95050312224678430000000000000980000000000980002000000010410405170442271227892168870517000007180068   1020000200030000   333400010001204104000000281Myanmar Soft-Gate Tech Yangon        MMR11005170442271227890517000000000000000   10300001F05104100000000000206000000000000     
100   95050312498129060000000000000980000000000980002000000010410405171134010401591444370517000007183089   1020000200030000   333400010001204104000000281Myanmar Soft-Gate Tech Yangon        MMR11005171134010401590517000000000000000   10300001F05104100000000000206000000000000     
100   95050314950595330000000000003000000000003000002000000010410405170437350735433225680517000007180028   1030000200030000   3338000100012031040000040022C2P (Myanmar) Co.,Ltd Yangon        MMR11005170437350735430517000000000000000   10300001F05104100000000000630000000000000     
100   62911028202159020000000000042000000000042000002000000010410405170700151308274369000517213714130827   1040001600030000   591220000303000000010000291Shwe Ohh Pharmacy (Kyu Yangon        MMR11005170700151308270517000000000000000   10300001F00104100000000002520000000000000     
100   95050322990383760000000000003000000000003000002000000010410405170532500250037623110517000007180506   1030000200030000   3334000100012031040000040102C2P (Myanmar) Co.,Ltd Yangon        MMR11005170532500250030517000000000000000   10300001F05104100000000000630000000000000     
100   95050316717221100000000000000980000000000980002000000010410405170935220522790253020517000007182451   1020000200030000   333400010001204104000000281Myanmar Soft-Gate Tech Yangon        MMR11005170935220522790517000000000000000   10300001F05104100000000000206000000000000     
100   95050311419479170000000000001960000000001960002000000010410405170439000900388778800517000007180040   1020000200030000   333400010001204104000000281Myanmar Soft-Gate Tech Yangon        MMR11005170439000900380517000000000000000   10300001F05104100000000000412000000000000     
100   95050319928585020000000000001000000000001000002000000010410405170137330733868390150517000007178577   1030000200030000   3338000100012031040000040022C2P (Myanmar) Co.,Ltd Yangon        MMR11005170137330733860517000000000000000   10300001F05104100000000000210000000000000     
100   95050317338786370000000000003000000000003000002000000010410405170743011301425515200517000007181588   1030000200030000   3334000100012031040000040102C2P (Myanmar) Co.,Ltd Yangon        MMR11005170743011301420517000000000000000   10300001F05104100000000000630000000000000     
100   95030361482647470000000000004400000000004400002000000010410405171628090134884369000517000747159885   1030000200030000   541188001047000008000000010KBZ BANK               MARKETPLACE - MMR11005171628090134880517000000000000000   10300001 00104100000000000264000000000000     
100   95050311273457710000000000200000000000200000002000000010410405171433320332175501410517000007183777   1030000200030000   333800010001203104000003327KBZPay                 Yangon        MMR11005171433320332170517000000000000000   10300001F05104100000000042000000000000000     
100   62911028202166940000000000078374000000078374002000000010410405171804250094664369000517000747164188   1030000200030000   541188001128000008000000296KBZ BANK               CITY MART - J MMR11005171804250094660517000000000000000   10300001 00104100000000004702000000000000     
100   62911028202692140000000000021110000000021110002000000010410405170746070329994369000517000747133485   1030000200030000   541188001041000008000000010KBZ BANK               MARKETPLACE - MMR11005170746070329990517000000000000000   10300001 00104100000000001267000000000000     
100   95030390626214130000000000007000000000007000002000000010410405170337570757494369000517000007179406   1030000200030000   333800010001203104000003327KBZPay                 Yangon        MMR11005170337570757490517000000000000000   10300001F05104100000000001470000000000000     
100   95050319928585020000000000001000000000001000002000000010410405170133090309413432700517000007178559   1030000200030000   3338000100012031040000040022C2P (Myanmar) Co.,Ltd Yangon        MMR11005170133090309410517000000000000000   10300001F05104100000000000210000000000000     
100   95050317743858310000000000018600000000018600002000000010410405170244421437735487630517436150947136   1030000500030000   555610110576104519000009164City Mart China Town P int Cen       MMR11005170244421437730517000000000000000   10300001 00104100000000004650000000000000     
100   95050310534130230000000000007900000000007900002000000010410405171105071446077799010517213718144607   1040001600030000   591220000043000000010000041Mingalar Pharmacy      Yangon        MMR11005171105071446070517000000000000000   10300001F00104100000000001896000000000000     
100   95050316043499650000000000025000000000025000002000000010410405170249371937187225200517000007178922   1030000200030000   333800010001203104000003327KBZPay                 Yangon        MMR11005170249371937180517000000000000000   10300001F05104100000000005250000000000000     
100   95050314931885730000000000002940000000002940002000000010410405171153402340736813510517000007183166   1020000200030000   333400010001204104000000281Myanmar Soft-Gate Tech Yangon        MMR11005171153402340730517000000000000000   10300001F05104100000000000617000000000000     
100   95050317580681890000000000142000000000142000002000000010410405170801193119422635720517000007181726   1030000200030000   333800010001203104000003327KBZPay                 Yangon        MMR11005170801193119420517000000000000000   10300001F05104100000000029820000000000000     
100   95050315122972560000000000020000000000020000002000000010410405171258042804823338350517000007183418   1040001600030000   333800010001220104000004507A +                    Yangon        MMR11005171258042804820517000000000000000   10300001F05104100000000004200000000000000     
100   95030367537085740000000000001960000000001960002000000010410405170145451545304369000517000007178613   1020000200030000   333400010001204104000000281Myanmar Soft-Gate Tech Yangon        MMR11005170145451545300517000000000000000   10300001F05104100000000000412000000000000     
100   95050318267399100000000000000980000000000980002000000010410405170947211721371820400517000007182547   1020000200030000   333400010001204104000000281Myanmar Soft-Gate Tech Yangon        MMR11005170947211721370517000000000000000   10300001F05104100000000000206000000000000     
100   95050316949180000000000000002940000000002940002000000010410405170202223222931950410517000007178671   1020000200030000   333400010001204104000000281Myanmar Soft-Gate Tech Yangon        MMR11005170202223222930517000000000000000   10300001F05104100000000000617000000000000     
100   62911028202313470000000000021300000000021300002000000010410405170257551438824369000517562290905136   1030000500030000   555610110595104519000009166City Mart 47 Branch                  MMR11005170257551438820517000000000000000   10300001 00104100000000001278000000000000     
100   95050316785465380000000000000980000000000980002000000010410405171456402640852707020517000007183862   1020000200030000   333400010001204104000000281Myanmar Soft-Gate Tech Yangon        MMR11005171456402640850517000000000000000   10300001F05104100000000000206000000000000     
100   95050317338786370000000000003000000000003000002000000010410405171456452645637664480517000007183864   1030000200030000   3334000100012031040000040102C2P (Myanmar) Co.,Ltd Yangon        MMR11005171456452645630517000000000000000   10300001F05104100000000000630000000000000     
100   62911028202110420000000000061300000000061300002000000010410405171054301436814369000517213717143681   1040001600030000   591220000270000000010000258Shwe Ohh Pharmacy (U C Yangon        MMR11005171054301436810517000000000000000   10300001F00104100000000003678000000000000     
100   95050319111666800000000000000980000000000980002000000010410405170203103310328560340517000007178673   1020000200030000   333400010001204104000000281Myanmar Soft-Gate Tech Yangon        MMR11005170203103310320517000000000000000   10300001F05104100000000000206000000000000     
100   62911028202091860000000000002940000000002940002000000010410405162257112711864369000517000007178322   1020000200030000   333400010001204104000000281Myanmar Soft-Gate Tech Yangon        MMR11005162257112711860517000000000000000   10300001F05104100000000000617000000000000     
100   62911028202012660000000000066550000000066550002000000010410405170727181464984369000517507581345136   1030000500030000   555610112237104519000010487Ocean Super Center St  ohn           MMR11005170727181464980517000000000000000   10300001 00104100000000003993000000000000     
100   95050329252108030000000000018609000000018609002000000010410405131508100162123240900513213315016212   1030000600030000   554100002323315799420000474DENKO N.DAGON - 1      YANGON        MMR11005131508100162120513000000000000000   10300001 00104100000000002233000000000000     
100   95030301100127050000000000071000000000071000002000000010410405131042150640384369000513213310064038   1030000600030000   554100000952315799420000474DENKO N.DAGON - 1      YANGON        MMR11005131042150640380513000000000000000   10300001 00104100000000002130000000000000     
100   95030305100040620000000000065000000000065000002000000010410405130722070151854369000513213307015185   1030000600030000   554100002320315799420000564DENKO PHYUU            PHYUU         MMR11005130722070151850513000000000000000   10300001 00104100000000001950000000000000     
100   62911028202451150000000000050009000000050009002000000010410405150623340003954369000515213512000395   1030000500030000   598320198001000075983201980MOON SUN EXCELLENT APE PTN           MMR11005150623340003950515000000000000000   10300001 00104100000000001500000000000000     
100   95030305700676370000000000030000000000030000002000000010410405150959240067784369000515213509006778   1030000600030000   554100002141315799420001490DENKO MEIKHTILA 3      MANDALAY      MMR11005150959240067780515000000000000000   10300001 00104100000000000900000000000000     
100   62911028202393160000000000020000000000020000002000000010410405150258020101214369000515213502010121   1030000600030000   554100001218315799420000670DENKO MAWLAMYAING      MON STATE.    MMR11005150258020101210515000000000000000   10300001 00104100000000000600000000000000     
100   95030301100119050000000000048360000000048360002000000010410405150435180201234369000515213504020123   1030000600030000   809900000537315799420000147GRAND HANTHA HOSPITAL  YANGON        MMR11005150435180201230515000000000000000   10300001 00104100000000002902000000000000     
100   62911028202474000000000000073000000000073000002000000010410405150206250185624369000515213502018562   1030000600030000   554100002085315799420000471DENKO BAHAN            YANGON        MMR11005150206250185620515000000000000000   10300001 00104100000000002190000000000000     
100   62911028202451150000000000017100000000017100002000000010410405170754591468484369000517920271455136   1030000300030000   444410123554104519000019772YKKO HTYO                            MMR11005170754591468480517000000000000000   10300001 00104100000000001744000000000000     
100   95050316818460650000000000032035000000032035002000000010410405171158171499615246120517592361838136   1030000500030000   555610108840104519000003432City Mart Junction Zaw na 1          MMR11005171158171499610517000000000000000   10300001 00104100000000008009000000000000     
100   62443100316099160000000000300000000000300000002000000010410405170702303230102374710517000007181250   1030000200030000   333800010001203104000003327KBZPay                 Yangon        MMR11005170702303230100517000000000000000   10300001F05104100000000063000000000000000     
100   95050319524870520000000000000980000000000980002000000010410405171054272427637884110517000007182907   1020000200030000   333400010001204104000000281Myanmar Soft-Gate Tech Yangon        MMR11005171054272427630517000000000000000   10300001F05104100000000000206000000000000     
100   62443100315110470000000002000000000002000000002000000010410405170933431380161905500517213716138016   1040001600030000   594720000951000000010000698The House of Mogok Art Ygn           MMR11005170933431380160517000000000000000   10300001F00104100000000480000000000000000     
100   95050328384000040000000000005300000000005300002000000010410405170412351444749410130517214411059136   1030000300030000   444410113812104519000011888Shwepalin Nawaday Dago 1             MMR11005170412351444740517000000000000000   10300001 00104100000000002253000000000000     
100   95050325925517520000000000007000000000007000002000000010410405170323371440955608370517798550956136   1030000500030000   555610110595104519000009166City Mart 47 Branch                  MMR11005170323371440950517000000000000000   10300001 00104100000000001750000000000000     
100   62911028202212230000000000004350000000004350002000000010410405170948401482314369000517517281624136   1030000500030000   555610110572104519000009164City Mart China Town P int Cen       MMR11005170948401482310517000000000000000   10300001 00104100000000000261000000000000     
100   95030301100425040000000000003900000000003900002000000010410405140531210019024369000514213405001902   1030000600030000   549900002142315799420001491EASY MART 023          YANGON        MMR11005140531210019020514000000000000000   10300001 00104100000000000398000000000000     
100   95050317578818060000000000040000000000040000002000000010410405141022170408811520360514213410040881   1030000600030000   554100001009315799420000504DENKO SOUTH DAGON      YANGON        MMR11005141022170408810514000000000000000   10300001 00104100000000004800000000000000     
100   95030305100040620000000000080000000000080000002000000010410405140138360052794369000514213401005279   1030000600030000   554100001211315799420000663DENKO  TETKONE         TETKONE       MMR11005140138360052790514000000000000000   10300001 00104100000000002400000000000000     
100   95050325052849960000000000020000000000020000002000000010410405140109150272812318670514213401027281   1030000600030000   554100001116315799420000574DENKO HLAE KUU         HLAE KUU      MMR11005140109150272810514000000000000000   10300001 00104100000000002400000000000000     
100   95050325052849960000000000040000000000040000002000000010410405140112370272823737720514213401027282   1030000600030000   554100001116315799420000574DENKO HLAE KUU         HLAE KUU      MMR11005140112370272820514000000000000000   10300001 00104100000000004800000000000000     
100   62443100379321630000000000035000000000035000002000000010410405140758190092210835450514213407009221   1030000600030000   554100001213315799420000665DENKO KWYAL TUT SONE   MANDALAY      MMR11005140758190092210514000000000000000   10300001 00104100000000004200000000000000     
100   95050318052625040000000000020000000000020000002000000010410405132254180408289268960514213422040828   1030000600030000   554100001009315799420000504DENKO SOUTH DAGON      YANGON        MMR11005132254180408280514000000000000000   10300001 00104100000000002400000000000000     
100   95050313102162270000000000041000000000041000002000000010410405132256160408299694420514213422040829   1030000600030000   554100001009315799420000504DENKO SOUTH DAGON      YANGON        MMR11005132256160408290514000000000000000   10300001 00104100000000004920000000000000     
100   95050312498129060000000000001960000000001960002000000010410405171255552555181600770517000007183407   1020000200030000   333400010001204104000000281Myanmar Soft-Gate Tech Yangon        MMR11005171255552555180517000000000000000   10300001F05104100000000000412000000000000     
100   95050318057347910000000000001960000000001960002000000010410405170256542654369643550517000007178969   1020000200030000   333400010001204104000000281Myanmar Soft-Gate Tech Yangon        MMR11005170256542654360517000000000000000   10300001F05104100000000000412000000000000     
100   95050316997303010000000000001960000000001960002000000010410405171450122012604359510517000007183838   1020000200030000   333400010001204104000000281Myanmar Soft-Gate Tech Yangon        MMR11005171450122012600517000000000000000   10300001F05104100000000000412000000000000     
100   95050312539675540000000000004900000000004900002000000010410405170348301830070395630517000007179514   1020000200030000   333400010001204104000000281Myanmar Soft-Gate Tech Yangon        MMR11005170348301830070517000000000000000   10300001F05104100000000001029000000000000     
100   95050324551230380000000000300000000000300000002000000010410405171244111411828210710517000007183352   1030000200030000   333800010001203104000003327KBZPay                 Yangon        MMR11005171244111411820517000000000000000   10300001F05104100000000063000000000000000     
100   62911028202593140000000000007000000000007000002000000010410405171137401496104369000517175091833136   1030000500030000   555610114572104519000012532City Mart Ahlone Branc               MMR11005171137401496100517000000000000000   10300001 00104100000000000420000000000000     
100   62443100325551180000000000024000000000024000002000000010410405171015241484830848690517805461652136   1030000500030000   555610110597104519000009166City Mart 47 Branch                  MMR11005171015241484830517000000000000000   10300001 00104100000000006000000000000000     
100   95050315564078030000000000010000000000010000002000000010410405170050392039095510670517000007178437   1030000200030000   3338000100012031040000040022C2P (Myanmar) Co.,Ltd Yangon        MMR11005170050392039090517000000000000000   10300001F05104100000000002100000000000000     
100   62443100302523870000000000037000000000037000002000000010410405140238530509898631890514213402050989   1030000600030000   554100000969315799420000481DENKO NORTH OKKALAPA   YANGON        MMR11005140238530509890514000000000000000   10300001 00104100000000004440000000000000     
100   62443100323428970000000000044982000000044982002000000010410405140058460069498843500514213400006949   1030000600030000   581200001904315799420001274SIGNATURE FINEDINING 2 BAHAN         MMR11005140058460069490514000000000000000   10300001 00104100000000019118000000000000     
100   95050322426452690000000000065000000000065000002000000010410405140656040113769055030514213406011376   1030000600030000   554100001217315799420000669DENKO PHAYAR GYI       BAGO          MMR11005140656040113760514000000000000000   10300001 00104100000000007800000000000000     
100   95050315401626960000000000020000000000020000002000000010410405140706230130198629520514213407013019   1030000600030000   554100001214315799420000666DENKO MAGWAY - 1       MAGWAY.       MMR11005140706230130190514000000000000000   10300001 00104100000000002400000000000000     
100   62911028202393160000000000020000000000020000002000000010410405140451140100874369000514213404010087   1030000600030000   554100001218315799420000670DENKO MAWLAMYAING      MON STATE.    MMR11005140451140100870514000000000000000   10300001 00104100000000000600000000000000     
100   62911028202204490000000000038000000000038000002000000010410405150328390858064369000515213503085806   1030000600030000   554100000946315799420000471DENKO BAHAN            YANGON        MMR11005150328390858060515000000000000000   10300001 00104100000000001140000000000000     
100   95050325052849960000000000030000000000030000002000000010410405151109570859205161450515213511085920   1030000600030000   554100000946315799420000471DENKO BAHAN            YANGON        MMR11005151109570859200515000000000000000   10300001 00104100000000003600000000000000     
100   62911028202527800000000000040000000000040000002000000010410405161121250011134369000516213617001113   1030000500030000   598320001604000015172200016MAX ENERGY             PTN           MMR11005161121250011130516000000000000000   10300001 00104100000000001200000000000000     
100   95050322312885760000000000007000000000007000002000000010410405170551392139281523750517000007180671   1030000200030000   333800010001203104000003327KBZPay                 Yangon        MMR11005170551392139280517000000000000000   10300001F05104100000000001470000000000000     
100   95050316769671810000000000000980000000000980002000000010410405171248301830859948290517000007183369   1020000200030000   333400010001204104000000281Myanmar Soft-Gate Tech Yangon        MMR11005171248301830850517000000000000000   10300001F05104100000000000206000000000000     
100   62443100306028540000000001000000000001000000002000000010410405170935411381261990600517213716138126   1040001600030000   594720000951000000010000698The House of Mogok Art Ygn           MMR11005170935411381260517000000000000000   10300001F00104100000000240000000000000000     
100   95050328384000040000000000009600000000009600002000000010410405170235341438673033620517552270923136   1030000500030000   555610118972104519000016137City Mart South Okkala WZYD BR       MMR11005170235341438670517000000000000000   10300001 00104100000000002400000000000000     
100   95050329252108030000000000005200000000005200002000000010410405170543471453038133680517105131228136   1030000300030000   444410113812104519000011888Shwepalin Nawaday Dago 1             MMR11005170543471453030517000000000000000   10300001 00104100000000002210000000000000     
100   95050314534800510000000000010070000000010070002000000010410405170845281528468018650517000007182080   1030000200030000   333800010001203104000003327KBZPay                 Yangon        MMR11005170845281528460517000000000000000   10300001F05104100000000002115000000000000     
100   95030301100124990000000000144950000000144950002000000010410405171101151442394369000517213718144239   1040001600030000   591220000290000000010000278Shwe Ohh Pharmacy (8 M Yangon        MMR11005171101151442390517000000000000000   10300001F00104100000000008697000000000000     
100   62911028202471600000000000035050000000035050002000000010410405170902351476014369000517746381525136   1030000500030000   555610110576104519000009164City Mart China Town P int Cen       MMR11005170902351476010517000000000000000   10300001 00104100000000002103000000000000     
100   95030310098554020000000000024000000000024000002000000010410405161002260013814369000516213616001381   1030000500030000   598320002001000015172200020MAX ENERGY             PTN           MMR11005161002260013810516000000000000000   10300001 00104100000000000720000000000000     
100   62443100306416880000000000027963000000027963002000000010410405161258280012820163390516213619001282   1030000500030000   598320002101000015172200021MAX ENERGY             PTN           MMR11005161258280012820516000000000000000   10300001 00104100000000003356000000000000     
100   95050322990383760000000000001300000000001300002000000010410405160336040001570687750516000345312138   1030000300030000   541100000593000000000000405CB BANK                ONE STOP MART MMR11005160336040001570516000000000000000   10300001F00104100000000000325000000000000     
100   95030301100129110000000000004000000000004000002000000010410405160744220009184369000516000345346215   1030000300030000   531100000819000000000000558CB BANK                MGOU          MMR11005160744220009180516000000000000000   10300001F00104100000000000240000000000000     
100   62911028202308280000000000033749000000033749002000000010410405161304360013924369000516213613001392   1030000600030000   5499000022293157994200015671 STOP S M BOGYOKE RD  YANGON        MMR11005161304360013920516000000000000000   10300001 00104100000000003442000000000000     
100   62911028202761360000000000124000000000124000002000000010410405160417020001024369000516213610000102   1030000500030000   569120102701008205691201027ESCORT                 PTN           MMR11005160417020001020516000000000000000   10300001 00104100000000007440000000000000     
100   62911028202703370000000000050000000000050000002000000010410405160140550003674369000516213608000367   1030000500030000   598320001702000015172200017MAX ENERGY             PTN           MMR11005160140550003670516000000000000000   10300001 00104100000000001500000000000000     
100   62911028202448030000000000100000000000100000002000000010410405160614450015904369000516213612001590   1030000500030000   598320001202000015172200012MAX ENERGY             PTN           MMR11005160614450015900516000000000000000   10300001 00104100000000003000000000000000     
100   62911028202684060000000000027996000000027996002000000010410405171119331494014369000517943531725136   1030000500030000   555610104028104519000003821City Mart North Point  enter         MMR11005171119331494010517000000000000000   10300001 00104100000000001680000000000000     
100   95050314557307430000000000001960000000001960002000000010410405170246161616433835140517000007178908   1020000200030000   333400010001204104000000281Myanmar Soft-Gate Tech Yangon        MMR11005170246161616430517000000000000000   10300001F05104100000000000412000000000000     
100   95050319528093960000000000002940000000002940002000000010410405170304303430618062380517000007179027   1020000200030000   333400010001204104000000281Myanmar Soft-Gate Tech Yangon        MMR11005170304303430610517000000000000000   10300001F05104100000000000617000000000000     
100   95050321798808970000000000013000000000013000002000000010410405170656092609956821590517000007181191   1030000200030000   333800010001203104000003327KBZPay                 Yangon        MMR11005170656092609950517000000000000000   10300001F05104100000000002730000000000000     
100   62911028202169750000000000046418000000046418002000000010410405170757431468364369000517907271401136   1030000500030000   555610118958104519000016137City Mart South Okkala WZYD BR       MMR11005170757431468360517000000000000000   10300001 00104100000000002785000000000000     
100   95050312298324450000000000002940000000002940002000000010410405170203403340553517790517000007178674   1020000200030000   333400010001204104000000281Myanmar Soft-Gate Tech Yangon        MMR11005170203403340550517000000000000000   10300001F05104100000000000617000000000000     
100   95050312781844250000000000001000000000001000002000000010410405171000163016286862950517000007182642   1030000200030000   3334000100012031040000040102C2P (Myanmar) Co.,Ltd Yangon        MMR11005171000163016280517000000000000000   10300001F05104100000000000210000000000000     
100   95050316818236190000000000002940000000002940002000000010410405161806143614695936150517000007178179   1020000200030000   333400010001204104000000281Myanmar Soft-Gate Tech Yangon        MMR11005161806143614690517000000000000000   10300001F05104100000000000617000000000000     
