100   95050328384000040000000000017300000000017300002000000010410405190415540005598472810519000747232145   1030000200030000   569988000867000008000004745KBZ BANK               BENCH MYANMAR MMR11005190415540005590519000000000000000   10300001 00104100000000004152000000000000     
100   62443101054139140000000000152955000000152955002000000010410405192018130029760330990519000747260177   1030000200030000   541188001005000008000000008KBZ BANK               MARKETPLACE - MMR11005192018130029760519000000000000000   10300001 00104100000000038239000000000000     
100   95030301100124400000000000064000000000064000002000000010410405190136540034934369000519000747226369   1030000200030000   591288001741000008000004646KBZ BANK               PINLON PHARMA MMR11005190136540034930519000000000000000   10300001 00104100000000003840000000000000     
100   62911028202245730000000000024850000000024850002000000010410405190259540034944369000519000747228341   1030000200030000   581288000098000008000003562KBZ BANK               CANTON PARADI MMR11005190259540034940519000000000000000   10300001 00104100000000002535000000000000     
100   95050327416134790000000000001960000000001960002000000010410405191330220022607026020519000007194991   1020000200030000   333400010001204104000000281Myanmar Soft-Gate Tech Yangon        MMR11005191330220022600519000000000000000   10300001F05104100000000000412000000000000     
100   62911028202541660000000000022800000000022800002000000010410405190652290012204369000519000747242544   1030000200030000   569988000786000008000004553KBZ BANK               CPT-IPANEMA   MMR11005190652290012200519000000000000000   10300001 00104100000000001368000000000000     
100   95050323855563310000000000118092000000118092002000000010410405191632080008224558230519000747253198   1030000200030000   541188001487000008000000399KBZ BANK               OCEAN SUPERCE MMR11005191632080008220519000000000000000   10300001 00104100000000029523000000000000     
100   95050319216824370000000000007100000000007100002000000010410405191429010024458544120519000747247018   1030000200030000   541188001480000008000000399KBZ BANK               OCEAN SUPERCE MMR11005191429010024450519000000000000000   10300001 00104100000000001775000000000000     
100   95050312695033440000000000001960000000001960002000000010410405190005253525570878340519000007190191   1020000200030000   333400010001204104000000281Myanmar Soft-Gate Tech Yangon        MMR11005190005253525570519000000000000000   10300001F05104100000000000412000000000000     
100   95050316769671810000000000000980000000000980002000000010410405191222395239215288450519000007194705   1020000200030000   333400010001204104000000281Myanmar Soft-Gate Tech Yangon        MMR11005191222395239210519000000000000000   10300001F05104100000000000206000000000000     
100   95050312224678430000000000000980000000000980002000000010410405191225175517796855830519000007194713   1020000200030000   333400010001204104000000281Myanmar Soft-Gate Tech Yangon        MMR11005191225175517790519000000000000000   10300001F05104100000000000206000000000000     
100   62911028202120400000000000045000000000045000002000000010410405190700138579674369000519709301313138   1030000900030000   554119000344190110000000211New Day Energy SCH     YANGONUNG     MMR11005190700138579670519000000000000000   10300001F00104100000000001350000000000000     
100   95050316377977350000000000010000000000010000002000000010410405190222395239868824630519000007190515   1040001600030000   333800010001220104000004507A +                    Yangon        MMR11005190222395239860519000000000000000   10300001F05104100000000002100000000000000     
100   62911028202397530000000000038200000000038200002000000010410405190656298578914369000519667261329138   1030000900030000   541119001307190110000000968Ocean Mingalar MDY C 1 MANDALAYHARSI MMR11005190656298578910519000000000000000   10300001F00104100000000002292000000000000     
100   62443100326436660000000000006350000000006350002000000010410405190656388578930531290519668261338138   1030000900030000   541119001206190110000000948City Mart YK C 4       YANGONAUNG    MMR11005190656388578930519000000000000000   10300001F00104100000000001588000000000000     
100   95050328384000040000000000025400000000025400002000000010410405190429498542955777330519602591049138   1030000900030000   541119000546190110000000394Super One ShoppingMall YANGON        MMR11005190429498542950519000000000000000   10300001F00104100000000006350000000000000     
100   62911028202668300000000000013000000000013000002000000010410405191007250007704369000519000747253419   1030000200030000   569988002341000008000006217KBZ BANK               BESTO FASHION MMR11005191007250007700519000000000000000   10300001 00104100000000000780000000000000     
100   95030305700676370000000000108200000000108200002000000010410405191403340076854369000519000747245348   1030000200030000   541188001501000008000000403KBZ BANK               OCEAN SUPERCE MMR11005191403340076850519000000000000000   10300001 00104100000000006492000000000000     
100   95030327835334700000000000016460000000016460002000000010410405191652490137024369000519000747254063   1030000200030000   541188001244000008000000323KBZ BANK               CITY MART - I MMR11005191652490137020519000000000000000   10300001 00104100000000000988000000000000     
100   62443100306416880000000000047950000000047950002000000010410405191742310077800912880519000747255955   1030000200030000   541188001062000008000000314KBZ BANK               MARKETPLACE - MMR11005191742310077800519000000000000000   10300001 00104100000000011988000000000000     
100   95050323749862420000000000028600000000028600002000000010410405191739230169569345490519000747255827   1030000200030000   541188001305000008000000325KBZ BANK               CITY MART - A MMR11005191739230169560519000000000000000   10300001 00104100000000007150000000000000     
100   62911028202610540000000000030050000000030050002000000010410405191615110184554369000519000747252502   1030000200030000   541188001082000008000000294KBZ BANK               CITY MART - J MMR11005191615110184550519000000000000000   10300001 00104100000000001803000000000000     
100   95050311382087030000000000003920000000003920002000000010410405190932370237244643330519000007193955   1020000200030000   333400010001204104000000281Myanmar Soft-Gate Tech Yangon        MMR11005190932370237240519000000000000000   10300001F05104100000000000823000000000000     
100   62443100328070970000000000011450000000011450002000000010410405191949540219877111120519000747259667   1030000200030000   541188001037000008000000010KBZ BANK               MARKETPLACE - MMR11005191949540219870519000000000000000   10300001 00104100000000002863000000000000     
100   95050312498129060000000000000980000000000980002000000010410405191201173117123877460519000007194619   1020000200030000   333400010001204104000000281Myanmar Soft-Gate Tech Yangon        MMR11005191201173117120519000000000000000   10300001F05104100000000000206000000000000     
100   95050312613888920000000000040000000000040000002000000010410405191308503850368763600519000007194898   1030000200030000   333800010001203104000003327KBZPay                 Yangon        MMR11005191308503850360519000000000000000   10300001F05104100000000008400000000000000     
100   95050310332595380000000000014700000000014700002000000010410405191309173917195458630519000007194900   1020000200030000   333400010001204104000000281Myanmar Soft-Gate Tech Yangon        MMR11005191309173917190519000000000000000   10300001F05104100000000003087000000000000     
100   95050315344668630000000000008250000000008250002000000010410405190244508521187973670519368140950138   1030000900030000   541119000112190110000000077Sein Gay Har Chinatown YANGON        MMR11005190244508521180519000000000000000   10300001F00104100000000002063000000000000     
100   95050312224678430000000000004900000000004900002000000010410405190624205420229680330519000007192523   1020000200030000   333400010001204104000000281Myanmar Soft-Gate Tech Yangon        MMR11005190624205420220519000000000000000   10300001F05104100000000001029000000000000     
100   95050328384000040000000000008900000000008900002000000010410405190457558549340032150519961271155138   1030000900030000   541119000546190110000000394Super One ShoppingMall YANGON        MMR11005190457558549340519000000000000000   10300001F00104100000000002225000000000000     
100   95050316818236190000000000001960000000001960002000000010410405191323125312215373540519000007194950   1020000200030000   333400010001204104000000281Myanmar Soft-Gate Tech Yangon        MMR11005191323125312210519000000000000000   10300001F05104100000000000412000000000000     
100   95030393581449300000000000020000000000020000002000000010410405191622155215204369000519000007195428   1030000200030000   333800010001203104000003327KBZPay                 Yangon        MMR11005191622155215200519000000000000000   10300001F05104100000000004200000000000000     
100   62911028202281450000000000044900000000044900002000000010410405191235030355674369000519000747239375   1030000200030000   541188001024000008000000298KBZ BANK               CITY MART - M MMR11005191235030355670519000000000000000   10300001 00104100000000002694000000000000     
100   95050317338786370000000000011000000000011000002000000010410405191236400640543465770519000007194764   1030000200030000   333800010001203104000003327KBZPay                 Yangon        MMR11005191236400640540519000000000000000   10300001F05104100000000002310000000000000     
100   62911028202502480000000000017344000000017344002000000010410405190837370325234369000519000747226927   1030000200030000   541188001039000008000000010KBZ BANK               MARKETPLACE - MMR11005190837370325230519000000000000000   10300001 00104100000000001041000000000000     
100   62911028202150190000000000029200000000029200002000000010410405191800060325844369000519000747256571   1030000200030000   541188001039000008000000010KBZ BANK               MARKETPLACE - MMR11005191800060325840519000000000000000   10300001 00104100000000001752000000000000     
100   62911028202286990000000000068900000000068900002000000010410405191015320331754369000519000747230166   1030000200030000   541188001041000008000000010KBZ BANK               MARKETPLACE - MMR11005191015320331750519000000000000000   10300001 00104100000000004134000000000000     
100   95050312498129060000000000002940000000002940002000000010410405191234430443723550860519000007194757   1020000200030000   333400010001204104000000281Myanmar Soft-Gate Tech Yangon        MMR11005191234430443720519000000000000000   10300001F05104100000000000617000000000000     
100   95050313817486860000000000004900000000004900002000000010410405191435350535424777860519000007195201   1020000200030000   333400010001204104000000281Myanmar Soft-Gate Tech Yangon        MMR11005191435350535420519000000000000000   10300001F05104100000000001029000000000000     
100   95050315005801680000000000002940000000002940002000000010410405190436120612723153090519000007191689   1020000200030000   333400010001204104000000281Myanmar Soft-Gate Tech Yangon        MMR11005190436120612720519000000000000000   10300001F05104100000000000617000000000000     
100   95050315005801680000000000004900000000004900002000000010410405191203143314328593410519000007194629   1020000200030000   333400010001204104000000281Myanmar Soft-Gate Tech Yangon        MMR11005191203143314320519000000000000000   10300001F05104100000000001029000000000000     
100   62911028202460220000000000130465000000130465002000000010410405190526489072874369000519564822890016   1040001400030000   592110000078015921100000365Million Mart Million M rt No. (519/  MMR11005190526489072870519000000000000000   10300001 00104100000000007828000000000000     
100   95050320360851930000000000002940000000002940002000000010410405190524295429677762100519000007192124   1020000200030000   333400010001204104000000281Myanmar Soft-Gate Tech Yangon        MMR11005190524295429670519000000000000000   10300001F05104100000000000617000000000000     
100   62443100326436660000000000029905000000029905002000000010410405190654458578461310900519642241345138   1030000900030000   541119001206190110000000948City Mart YK C 4       YANGONAUNG    MMR11005190654458578460519000000000000000   10300001F00104100000000007477000000000000     
100   95030301100124400000000000004400000000004400002000000010410405191047068634734369000519802171706138   1030000900030000   541119001261190110000000958City Mart PLST C 4     YANGONMYOTHIT MMR11005191047068634730519000000000000000   10300001F00104100000000000264000000000000     
100   95050317834964620000000000010800000000010800002000000010410405191054458636800742680519933241745138   1030000900030000   541119001353190110000000977Ocean PZD C 7          YANGONAUNG    MMR11005191054458636800519000000000000000   10300001F00104100000000002700000000000000     
100   62911028202359000000000000006800000000006800002000000010410405191142551686844369000519959251814138   1030000500030000   555610108840104519000003432City Mart Junction Zaw na 1          MMR11005191142551686840519000000000000000   10300001 00104100000000000408000000000000     
100   95050312968654190000000000018800000000018800002000000010410405190703391654347907090519213321344138   1030000500030000   555610103981104519000003818Ocean Oattara Thiri Na PyiTaw        MMR11005190703391654340519000000000000000   10300001 00104100000000004700000000000000     
100   95050311959900780000000000000980000000000980002000000010410405190441551155600528930519000007191750   1020000200030000   333400010001204104000000281Myanmar Soft-Gate Tech Yangon        MMR11005190441551155600519000000000000000   10300001F05104100000000000206000000000000     
100   95050317517212300000000000012100000000012100002000000010410405190422592536852302160519213911253685   1040001600030000   541120000573000000010000465Ocean Shwe Gone Daing  Yangon        MMR11005190422592536850519000000000000000   10300001F00104100000000003025000000000000     
100   95050317486512680000000000005000000000005000002000000010410405191239100910670160800519000007194774   1030000200030000   333800010001203104000003327KBZPay                 Yangon        MMR11005191239100910670519000000000000000   10300001F05104100000000001050000000000000     
100   95050315099113150000000000002940000000002940002000000010410405191346251625573635960519000007195028   1020000200030000   333400010001204104000000281Myanmar Soft-Gate Tech Yangon        MMR11005191346251625570519000000000000000   10300001F05104100000000000617000000000000     
100   95030393581449300000000000005500000000005500002000000010410405190510461641324369000519705391152138   1030000500030000   555610115765104519000013506MarketplaceMyanmarPlaz Branch        MMR11005190510461641320519000000000000000   10300001 00104100000000000330000000000000     
100   95030302100067550000000000105800000000105800002000000010410405190939291672104369000519204101613138   1030000300030000   555510124687104519000020166Makro Myanmar                        MMR11005190939291672100519000000000000000   10300001 00104100000000006348000000000000     
100   95050318601641810000000000000980000000000980002000000010410405191049081908616466010519000007194377   1020000200030000   333400010001204104000000281Myanmar Soft-Gate Tech Yangon        MMR11005191049081908610519000000000000000   10300001F05104100000000000206000000000000     
100   95050311419479170000000000001960000000001960002000000010410405190851062106526976580519000007193621   1020000200030000   333400010001204104000000281Myanmar Soft-Gate Tech Yangon        MMR11005190851062106520519000000000000000   10300001F05104100000000000412000000000000     
100   62443100328070970000000000018800000000018800002000000010410405191927010165112153670519000747259194   1030000200030000   541188001049000008000000010KBZ BANK               MARKETPLACE - MMR11005191927010165110519000000000000000   10300001 00104100000000004700000000000000     
100   62911028202684060000000000022600000000022600002000000010410405190831158601024369000519853011515138   1030000900030000   541119001159190110000000930OCEAN HTY C 9          YANGONTHARYA  MMR11005190831158601020519000000000000000   10300001F00104100000000001356000000000000     
100   95050321232876860000000000100000000000100000002000000010410405180847300372113160080518213808037211   1030000600030000   554100001865315799420001235DENKO NAY PYI TAW 2    NAYPYITAW     MMR11005180847300372110518000000000000000   10300001 00104100000000012000000000000000     
100   62443100330048680000000000029000000000029000002000000010410405180052440017009231860518213807001700   1030000500030000   598320001101000015172200011MAX ENERGY             PTN           MMR11005180052440017000518000000000000000   10300001 00104100000000003480000000000000     
100   95050329252108030000000000019494000000019494002000000010410405181341120011790027420518213820001179   1030000500030000   598320041902000055983200419MAX ENERGY             PTN           MMR11005181341120011790518000000000000000   10300001 00104100000000002339000000000000     
100   95050311739830950000000000064950000000064950002000000010410405191130548644682054780519385001854138   1030000900030000   591219000601190110000000441Shwe Ohh Pharmacy St-3 YANGON        MMR11005191130548644680519000000000000000   10300001F00104100000000015588000000000000     
100   62443100363668680000000000038000000000038000002000000010410405181152120019656766190518213818001965   1030000500030000   598320001303000015172200013MAX ENERGY             PTN           MMR11005181152120019650518000000000000000   10300001 00104100000000004560000000000000     
100   62911028202491330000000000009400000000009400002000000010410405191333190150544369000519000747243185   1030000200030000   541188001073000008000000294KBZ BANK               CITY MART - J MMR11005191333190150540519000000000000000   10300001 00104100000000000564000000000000     
100   95050326393773020000000000002940000000002940002000000010410405191255582558146770740519000007194860   1020000200030000   333400010001204104000000281Myanmar Soft-Gate Tech Yangon        MMR11005191255582558140519000000000000000   10300001F05104100000000000617000000000000     
100   95050325925517520000000000009900000000009900002000000010410405190454101639686911130519533251113138   1030000500030000   555610110597104519000009166City Mart 47 Branch                  MMR11005190454101639680519000000000000000   10300001 00104100000000002475000000000000     
100   95050328919375610000000000090600000000090600002000000010410405190951072107767863200519000007194071   1030000200030000   333800010001203104000003327KBZPay                 Yangon        MMR11005190951072107760519000000000000000   10300001F05104100000000019026000000000000     
100   95050316321163940000000000001960000000001960002000000010410405191355392539809820420519000007195074   1020000200030000   333400010001204104000000281Myanmar Soft-Gate Tech Yangon        MMR11005191355392539800519000000000000000   10300001F05104100000000000412000000000000     
100   62911028202440680000000000050000000000050000002000000010410405190539421644394369000519033091251138   1030000300030000   555510120539104519000017438Art and T8                           MMR11005190539421644390519000000000000000   10300001 00104100000000003000000000000000     
100   95050312498129060000000000000980000000000980002000000010410405190348171817297550570519000007191264   1020000200030000   333400010001204104000000281Myanmar Soft-Gate Tech Yangon        MMR11005190348171817290519000000000000000   10300001F05104100000000000206000000000000     
100   62911028202655010000000000054100000000054100002000000010410405190649491652704369000519020191343138   1030000300030000   555510124687104519000020166Makro Myanmar                        MMR11005190649491652700519000000000000000   10300001 00104100000000003246000000000000     
100   95050327883696130000000000000886000000000886002000000010410405191348221822871472900519000007195032   1030000200030000   333800010001203104000003327KBZPay                 Yangon        MMR11005191348221822870519000000000000000   10300001F05104100000000000186000000000000     
100   95050324247403260000000000070000000000070000002000000010410405190834358601900281550519909041535138   1030000900030000   554119000344190110000000211New Day Energy SCH     YANGONUNG     MMR11005190834358601900519000000000000000   10300001F00104100000000008400000000000000     
100   95050321057500320000000000004900000000004900002000000010410405190443171317723578590519000007191755   1020000200030000   333400010001204104000000281Myanmar Soft-Gate Tech Yangon        MMR11005190443171317720519000000000000000   10300001F05104100000000001029000000000000     
100   62911028202232860000000000037200000000037200002000000010410405180351090001114369000518213810000111   1030000500030000   541120045801009205411200458126 STORE              PTN           MMR11005180351090001110518000000000000000   10300001 00104100000000002232000000000000     
100   62443101054139140000000000041000000000041000002000000010410405191055258636975785230519941251725138   1030000900030000   554119000348190110000000215New Day Energy MYG     YANGONONE     MMR11005191055258636970519000000000000000   10300001F00104100000000004920000000000000     
100   62443101006037900000000000076000000000076000002000000010410405191155508650347182430519684251850138   1030000900030000   554119000348190110000000215New Day Energy MYG     YANGONONE     MMR11005191155508650340519000000000000000   10300001F00104100000000009120000000000000     
100   62911028202448030000000000010907000000010907002000000010410405191133571685174369000519751091818138   1030000500030000   555610112256104519000010487Ocean Super Center St  ohn           MMR11005191133571685170519000000000000000   10300001 00104100000000000654000000000000     
100   62911028202421380000000000017300000000017300002000000010410405191712440200574369000519000747254857   1030000200030000   541188001075000008000000294KBZ BANK               CITY MART - J MMR11005191712440200570519000000000000000   10300001 00104100000000001038000000000000     
100   62911028202232860000000000031500000000031500002000000010410405190815288597334369000519658451428138   1030000900030000   806219001559190110000000290Grand Hanthar Hospital YANGONUT      MMR11005190815288597330519000000000000000   10300001F00104100000000001890000000000000     
100   62911028202203320000000000006800000000006800002000000010410405190714021655654369000519337451326138   1030000300030000   444410123122104519000019376YKKO JCSM                            MMR11005190714021655650519000000000000000   10300001 00104100000000000694000000000000     
100   62911028202789750000000000056400000000056400002000000010410405190309242506264369000519213910250626   1040001600030000   591220000271000000010000259Shwe Ohh Pharmacy (Gwa Yangon        MMR11005190309242506260519000000000000000   10300001F00104100000000003384000000000000     
100   95050322478649490000000000002940000000002940002000000010410405190239210921150526560519000007190599   1020000200030000   333400010001204104000000281Myanmar Soft-Gate Tech Yangon        MMR11005190239210921150519000000000000000   10300001F05104100000000000617000000000000     
100   95030394609966640000000000007100000000007100002000000010410405190442211638514369000519419121117138   1030000500030000   555610114573104519000012532City Mart Ahlone Branc               MMR11005190442211638510519000000000000000   10300001 00104100000000000426000000000000     
100   95050323233042810000000000000980000000000980002000000010410405190949231923746210710519000007194058   1020000200030000   333400010001204104000000281Myanmar Soft-Gate Tech Yangon        MMR11005190949231923740519000000000000000   10300001F05104100000000000206000000000000     
100   95050312160676580000000000010000000000010000002000000010410405190055502550607619470519000007190268   1030000200030000   333800010001203104000003327KBZPay                 Yangon        MMR11005190055502550600519000000000000000   10300001F05104100000000002100000000000000     
100   62911028202088990000000000011500000000011500002000000010410405190821002659164369000519213915265916   1040001600030000   591220000303000000010000291Shwe Ohh Pharmacy (Kyu Yangon        MMR11005190821002659160519000000000000000   10300001F00104100000000000690000000000000     
100   95030310098554020000000000076000000000076000002000000010410405190254132500024369000519213909250002   1040001600030000   598320000659000000010000528Shwe Taung Energy (YGN Yangon        MMR11005190254132500020519000000000000000   10300001F00104100000000002280000000000000     
100   62911028202907560000000000042050000000042050002000000010410405190844448604204369000519022141544138   1030000900030000   541119001244190110000000955City Mart JS C 3       YANGONUT      MMR11005190844448604200519000000000000000   10300001F00104100000000002523000000000000     
100   95030327835334700000000000038800000000038800002000000010410405180904560007384369000518000747204190   1030000200030000   569988000801000008000004608KBZ BANK               SGP-IPANEMA   MMR11005180904560007380518000000000000000   10300001 00104100000000002328000000000000     
100   62911028202074950000000000040000000000040000002000000010410405180430210018244369000518213811001824   1030000500030000   598320001203000015172200012MAX ENERGY             PTN           MMR11005180430210018240518000000000000000   10300001 00104100000000001200000000000000     
100   95050312020318170000000000035000000000035000002000000010410405190642411241380602560519000007192657   1030000200030000   333800010001203104000003327KBZPay                 Yangon        MMR11005190642411241380519000000000000000   10300001F05104100000000007350000000000000     
100   95030310098554020000000000015100000000015100002000000010410405191311060196594369000519000747241848   1030000200030000   541188001055000008000000314KBZ BANK               MARKETPLACE - MMR11005191311060196590519000000000000000   10300001 00104100000000000906000000000000     
100   62911028202135350000000000049000000000049000002000000010410405181036270018454369000518213817001845   1030000500030000   598320001202000015172200012MAX ENERGY             PTN           MMR11005181036270018450518000000000000000   10300001 00104100000000001470000000000000     
100   95050310676042860000000000020000000000020000002000000010410405190251412141556980080519000007190679   1030000200030000   333800010001203104000003327KBZPay                 Yangon        MMR11005190251412141550519000000000000000   10300001F05104100000000004200000000000000     
100   95050329352979980000000000025800000000025800002000000010410405180952420001015564650518213816000101   1030000500030000   569120159601019505691201596MK FASHION SHOP        PTN           MMR11005180952420001010518000000000000000   10300001 00104100000000006192000000000000     
100   95050311959900780000000000001960000000001960002000000010410405190651572157227552900519000007192737   1020000200030000   333400010001204104000000281Myanmar Soft-Gate Tech Yangon        MMR11005190651572157220519000000000000000   10300001F05104100000000000412000000000000     
100   95030353305053700000000000030240000000030240002000000010410405190350542054204369000519000007191286   1030000900030000   333800010001202104000003301uab bank               Yangon        MMR11005190350542054200519000000000000000   10300001F05104100000000006350000000000000     
100   62443101023815100000000000016000000000016000002000000010410405190724212633182516100519213914263318   1040001600030000   598320001170000000010000527Shwe Taung Energy (YGN Yangon        MMR11005190724212633180519000000000000000   10300001F00104100000000001920000000000000     
100   95050311780044340000000000004900000000004900002000000010410405190138100810362796570519000007190362   1020000200030000   333400010001204104000000281Myanmar Soft-Gate Tech Yangon        MMR11005190138100810360519000000000000000   10300001F05104100000000001029000000000000     
100   62911028202237810000000000147100000000147100002000000010410405190626241649934369000519664561238138   1030000300030000   555510124685104519000020166Makro Myanmar                        MMR11005190626241649930519000000000000000   10300001 00104100000000008826000000000000     
100   62443101037081820000000000071000000000071000002000000010410405190641281651657127390519895111350138   1030000300030000   555510120538104519000017437Art and T8                           MMR11005190641281651650519000000000000000   10300001 00104100000000017040000000000000     
100   95050310397364970000000000002940000000002940002000000010410405191238110811988508320519000007194768   1020000200030000   333400010001204104000000281Myanmar Soft-Gate Tech Yangon        MMR11005191238110811980519000000000000000   10300001F05104100000000000617000000000000     
100   95050324622440820000000000045376000000045376002000000010410405190528531643254712430519902581115138   1030000500030000   555610110597104519000009166City Mart 47 Branch                  MMR11005190528531643250519000000000000000   10300001 00104100000000011344000000000000     
100   95050324154190880000000000042000000000042000002000000010410405172356370012479402050518213806001247   1030000500030000   598320001603000015172200016MAX ENERGY             PTN           MMR11005172356370012470518000000000000000   10300001 00104100000000005040000000000000     
100   95050326228858240000000000063000000000063000002000000010410405190516452563358258910519213912256335   1040001600030000   598320000830000000010000596Regency Petrol Station Ygn           MMR11005190516452563350519000000000000000   10300001F00104100000000007560000000000000     
100   95030361482647470000000000019719000000019719002000000010410405181055160001004369000518213817000100   1030000500030000   581220214401000085812202144CHILLI POT MALA XIANG  PTN           MMR11005181055160001000518000000000000000   10300001 00104100000000002011000000000000     
100   95050312287957830000000000006200000000006200002000000010410405171344510037695671600517213713003769   1030000600030000   5499000022273157994200015671 STOP S M BOGYOKE RD  YANGON        MMR11005171344510037690517000000000000000   10300001 00104100000000002635000000000000     
100   62911028202421200000000000030000000000030000002000000010410405180450020005074369000518213811000507   1030000500030000   598320001702000015172200017MAX ENERGY             PTN           MMR11005180450020005070518000000000000000   10300001 00104100000000000900000000000000     
100   95030339867270590000000000038400000000038400002000000010410405190530112572134369000519213912257213   1040001600030000   591220000272000000010000260Shwe Ohh Pharmacy ( Th Yangon        MMR11005190530112572130519000000000000000   10300001F00104100000000002304000000000000     
100   95050319835237500000000000047038000000047038002000000010410405190624568571079326140519218541256138   1030000900030000   541119001295190110000000968Ocean Mingalar MDY C 3 MANDALAYHARSI MMR11005190624568571070519000000000000000   10300001F00104100000000011760000000000000     
100   62911028202593140000000000040000000000040000002000000010410405181250170019114369000518213819001911   1030000500030000   598320001203000015172200012MAX ENERGY             PTN           MMR11005181250170019110518000000000000000   10300001 00104100000000001200000000000000     
100   95050324622440820000000000004200000000004200002000000010410405190521081642389889490519814501113138   1030000500030000   555610110596104519000009166City Mart 47 Branch                  MMR11005190521081642380519000000000000000   10300001 00104100000000001050000000000000     
100   95030394609966640000000000004000000000004000002000000010410405190512371641594369000519732421140138   1030000300030000   444410117442104519000014840Shwe Pa Lin Kyee Myin  aing          MMR11005190512371641590519000000000000000   10300001 00104100000000000408000000000000     
100   62911028202150190000000000006150000000006150002000000010410405191049351679334369000519058181742138   1030000300030000   555510118558104519000015799S and P Distribution C Ltd           MMR11005191049351679330519000000000000000   10300001 00104100000000000369000000000000     
100   95050312675873230000000000002940000000002940002000000010410405182355572557521232530519000007190186   1020000200030000   333400010001204104000000281Myanmar Soft-Gate Tech Yangon        MMR11005182355572557520519000000000000000   10300001F05104100000000000617000000000000     
100   62911028202045260000000000020800000000020800002000000010410405190744291659284369000519730171416138   1030000500030000   555610120972104519000017735City Express MCS 24                  MMR11005190744291659280519000000000000000   10300001 00104100000000001248000000000000     
100   95050315158357300000000000000980000000000980002000000010410405190444141414072159540519000007191772   1020000200030000   333400010001204104000000281Myanmar Soft-Gate Tech Yangon        MMR11005190444141414070519000000000000000   10300001F05104100000000000206000000000000     
100   62911028202446540000000000018500000000018500002000000010410405190502001640384369000519609311106138   1030000300030000   444410118069104519000015348Astons Specialities Ya gon           MMR11005190502001640380519000000000000000   10300001 00104100000000001887000000000000     
100   62911028202203320000000000003700000000003700002000000010410405190823071663554369000519197561448138   1030000500030000   555610117864104519000009164City Mart China Town P int Cen       MMR11005190823071663550519000000000000000   10300001 00104100000000000222000000000000     
100   62443101053241940000000000200000000000200000002000000010410405190331482515429461660519213910251542   1040001600030000   806220000003000000010000001Victoria Hospital      Yangon        MMR11005190331482515420519000000000000000   10300001F00104100000000048000000000000000     
100   62443100316099160000000000041000000000041000002000000010410405190804362651292019280519213915265129   1040001600030000   598320000660000000010000529Shwe Taung Energy (NPT Naypyitaw     MMR11005190804362651290519000000000000000   10300001F00104100000000004920000000000000     
100   95030367537085740000000000002940000000002940002000000010410405190319404940314369000519000007190969   1020000200030000   333400010001204104000000281Myanmar Soft-Gate Tech Yangon        MMR11005190319404940310519000000000000000   10300001F05104100000000000617000000000000     
100   62911028202136750000000000049000000000049000002000000010410405180310190490354369000518213803049035   1030000600030000   554100001001315799420000498DENKO SHWE PYI THAR    YANGON        MMR11005180310190490350518000000000000000   10300001 00104100000000001470000000000000     
100   95050312498129060000000000000980000000000980002000000010410405190502383238433081770519000007191949   1020000200030000   333400010001204104000000281Myanmar Soft-Gate Tech Yangon        MMR11005190502383238430519000000000000000   10300001F05104100000000000206000000000000     
100   95030308100042590000000000025400000000025400002000000010410405190755081660204369000519830251443138   1030000500030000   555610110576104519000009164City Mart China Town P int Cen       MMR11005190755081660200519000000000000000   10300001 00104100000000001524000000000000     
100   62443100392426520000000000010000000000010000002000000010410405190644251425020177100519000007192678   1030000200030000   333800010001203104000003327KBZPay                 Yangon        MMR11005190644251425020519000000000000000   10300001F05104100000000002100000000000000     
100   95050319111666800000000000000980000000000980002000000010410405190949051905547948290519000007194059   1020000200030000   333400010001204104000000281Myanmar Soft-Gate Tech Yangon        MMR11005190949051905540519000000000000000   10300001F05104100000000000206000000000000     
100   62911028202468080000000000032850000000032850002000000010410405190627441650084369000519678581203138   1030000300030000   555510124685104519000020166Makro Myanmar                        MMR11005190627441650080519000000000000000   10300001 00104100000000001971000000000000     
100   95050326750398570000000000035000000000035000002000000010410405180740000000482819700518213814000048   1030000500030000   566120042401016505661200424RIPPLE FLIPFLOPS       PTN           MMR11005180740000000480518000000000000000   10300001 00104100000000008400000000000000     
100   62911028202074950000000000008900000000008900002000000010410405180407420000684369000518213810000068   1030000500030000   581220195901000085812201959AKKHAYA TEA HOUSE      PTN           MMR11005180407420000680518000000000000000   10300001 00104100000000000908000000000000     
100   95050329632900220000000000050000000000050000002000000010410405180348400019607705840518213810001960   1030000500030000   598320001304000015172200013MAX ENERGY             PTN           MMR11005180348400019600518000000000000000   10300001 00104100000000006000000000000000     
100   62911028202474180000000000070500000000070500002000000010410405180608380002444369000518000747192860   1030000200030000   581288000746000008000004038KBZ BANK               CAESAR CAF? & MMR11005180608380002440518000000000000000   10300001 00104100000000007191000000000000     
100   62911028202700140000000000051000000000051000002000000010410405180749250005764369000518213814000576   1030000500030000   598320101301005405983201013PT POWER (NPT)         PTN           MMR11005180749250005760518000000000000000   10300001 00104100000000001530000000000000     
100   62443100378093870000000000065000000000065000002000000010410405181218260012988822260518213818001298   1030000500030000   598320001604000015172200016MAX ENERGY             PTN           MMR11005181218260012980518000000000000000   10300001 00104100000000007800000000000000     
100   62911028202194090000000000020000000000020000002000000010410405180814580018684369000518213814001868   1030000500030000   598320001203000015172200012MAX ENERGY             PTN           MMR11005180814580018680518000000000000000   10300001 00104100000000000600000000000000     
100   95030367537085740000000000001960000000001960002000000010410405191048031803804369000519000007194370   1020000200030000   333400010001204104000000281Myanmar Soft-Gate Tech Yangon        MMR11005191048031803800519000000000000000   10300001F05104100000000000412000000000000     
100   95030301100425040000000000004550000000004550002000000010410405181104290019314369000518213811001931   1030000600030000   549900002142315799420001491EASY MART 023          YANGON        MMR11005181104290019310518000000000000000   10300001 00104100000000000464000000000000     
100   62443100315110470000000000059000000000059000002000000010410405181015460018408784520518213816001840   1030000500030000   598320001202000015172200012MAX ENERGY             PTN           MMR11005181015460018400518000000000000000   10300001 00104100000000007080000000000000     
100   62443100330220920000000000040300000000040300002000000010410405180504190003122613850518213811000312   1030000500030000   531120155805000045311201558GAMONE PWINT           PTN           MMR11005180504190003120518000000000000000   10300001 00104100000000009672000000000000     
100   95050316901496590000000000003600000000003600002000000010410405180943540001172018180518213816000117   1030000500030000   541120045801009205411200458126 STORE              PTN           MMR11005180943540001170518000000000000000   10300001 00104100000000000900000000000000     
100   95030301100129110000000000036000000000036000002000000010410405181106280020414369000518213817002041   1030000500030000   598320001402000015172200014MAX ENERGY             PTN           MMR11005181106280020410518000000000000000   10300001 00104100000000001080000000000000     
100   95030378062733680000000000020000000000020000002000000010410405180358490005614369000518213810000561   1030000500030000   598320101301005405983201013PT POWER (NPT)         PTN           MMR11005180358490005610518000000000000000   10300001 00104100000000000600000000000000     
100   95050323282717740000000000027000000000027000002000000010410405180924210005205238050518000345693993   1030000300030000   591200000323000000000000203CB BANK                MEDICARE STOR MMR11005180924210005200518000000000000000   10300001F00104100000000006480000000000000     
100   62911028202147720000000000067000000000067000002000000010410405180302410012334369000518213809001233   1030000500030000   598320001604000015172200016MAX ENERGY             PTN           MMR11005180302410012330518000000000000000   10300001 00104100000000002010000000000000     
100   62911028202460220000000000020000000000020000002000000010410405181017100018894369000518213816001889   1030000500030000   598320001203000015172200012MAX ENERGY             PTN           MMR11005181017100018890518000000000000000   10300001 00104100000000000600000000000000     
100   62911028202132460000000000040000000000040000002000000010410405181105370000604369000518213817000060   1030000500030000   581220148201017105812201482GOLDEN DUCK RESTAURANT PTN           MMR11005181105370000600518000000000000000   10300001 00104100000000004080000000000000     
100   62911028202203320000000000162900000000162900002000000010410405180356010003084369000518213810000308   1030000500030000   569120058001019505691200580MK FASHION SHOP        PTN           MMR11005180356010003080518000000000000000   10300001 00104100000000009774000000000000     
100   62911028202194090000000000026509000000026509002000000010410405180115240017604369000518213807001760   1030000500030000   598320001202000015172200012MAX ENERGY             PTN           MMR11005180115240017600518000000000000000   10300001 00104100000000000795000000000000     
100   95050328384000040000000000046000000000046000002000000010410405181124050012900231150518213817001290   1030000500030000   598320002103000015172200021MAX ENERGY             PTN           MMR11005181124050012900518000000000000000   10300001 00104100000000005520000000000000     
100   62911028202312890000000000059000000000059000002000000010410405181011350012424369000518213816001242   1030000500030000   598320002004000015172200020MAX ENERGY             PTN           MMR11005181011350012420518000000000000000   10300001 00104100000000001770000000000000     
100   62443100371022130000000000017045000000017045002000000010410405180957160003624082350518213816000362   1030000500030000   598320003702000015172200037MAX ENERGY             PTN           MMR11005180957160003620518000000000000000   10300001 00104100000000002046000000000000     
100   95030339867270590000000000025665000000025665002000000010410405180549220001534369000518000345665130   1030000300030000   541100000089000000000000028CB BANK                ONE STOP KITC MMR11005180549220001530518000000000000000   10300001F00104100000000001540000000000000     
100   62911028202181120000000000019500000000019500002000000010410405180534560001154369000518213812000115   1030000500030000   569120086901003105691200869DI EXPORT FASHION      PTN           MMR11005180534560001150518000000000000000   10300001 00104100000000001170000000000000     
100   95050326228858240000000000038412000000038412002000000010410405181245510004659744540518213819000465   1030000500030000   581220024101000015812200241SHWE LAR HOT POT       PTN           MMR11005181245510004650518000000000000000   10300001 00104100000000016325000000000000     
100   62443100330220920000000000015000000000015000002000000010410405180435080004163769550518213811000416   1030000500030000   531120155804000045311201558GAMONE PWINT           PTN           MMR11005180435080004160518000000000000000   10300001 00104100000000003600000000000000     
100   62911028202243590000000000084000000000084000002000000010410405180153300012374369000518213808001237   1030000500030000   598320041903000055983200419MAX ENERGY             PTN           MMR11005180153300012370518000000000000000   10300001 00104100000000002520000000000000     
100   62443100300743690000000000012100000000012100002000000010410405181125030010998578670518213817001099   1030000500030000   531120155803000045311201558GAMONE PWINT           PTN           MMR11005181125030010990518000000000000000   10300001 00104100000000002904000000000000     
100   62911028202151340000000000030000000000030000002000000010410405180637330016454369000518213813001645   1030000500030000   598320001201000015172200012MAX ENERGY             PTN           MMR11005180637330016450518000000000000000   10300001 00104100000000000900000000000000     
100   62911028202366010000000000112000000000112000002000000010410405180620220122664369000518213806012266   1030000600030000   554100002328315799420001235DENKO NAY PYI TAW 2    NAYPYITAW     MMR11005180620220122660518000000000000000   10300001 00104100000000003360000000000000     
100   95050322420590810000000000090000000000090000002000000010410405180103570138259316960518213801013825   1030000600030000   554100002324315799420000481DENKO NORTH OKKALAPA   YANGON        MMR11005180103570138250518000000000000000   10300001 00104100000000010800000000000000     
100   62443100333488440000000000023000000000023000002000000010410405180348400105192748390518213803010519   1030000600030000   554100001237315799420000691DENKO AUNG PAN         KALAW.        MMR11005180348400105190518000000000000000   10300001 00104100000000002760000000000000     
100   62443101076362230000000000115000000000115000002000000010410405181122110865196926180518213811086519   1030000600030000   554100000946315799420000471DENKO BAHAN            YANGON        MMR11005181122110865190518000000000000000   10300001 00104100000000013800000000000000     
100   95030301100121270000000000030000000000030000002000000010410405180310061835304369000518213810183530   1040001600030000   598320000917000000010000665MMTM - Thingangyun     Ygn           MMR11005180310061835300518000000000000000   10300001F00104100000000000900000000000000     
100   62443100372718280000000000043010000000043010002000000010410405181337402233206977710518213820223320   1040001600030000   581420000616000000010000489Mai Thai               Ygn           MMR11005181337402233200518000000000000000   10300001F00104100000000005161000000000000     
100   62911028202761360000000000040000000000040000002000000010410405170001450155634369000517213700015563   1030000600030000   554100002320315799420000564DENKO PHYUU            PHYUU         MMR11005170001450155630517000000000000000   10300001 00104100000000001200000000000000     
100   62443100333488440000000000027000000000027000002000000010410405170811140093132295330517213708009313   1030000600030000   554100001213315799420000665DENKO KWYAL TUT SONE   MANDALAY      MMR11005170811140093130517000000000000000   10300001 00104100000000003240000000000000     
100   95030301100126550000000000049003000000049003002000000010410405171118500166824369000517213711016682   1030000600030000   554100002323315799420000474DENKO N.DAGON - 1      YANGON        MMR11005171118500166820517000000000000000   10300001 00104100000000001470000000000000     
100   95050316949180000000000000000980000000000980002000000010410405190309313931402157180519000007190828   1020000200030000   333400010001204104000000281Myanmar Soft-Gate Tech Yangon        MMR11005190309313931400519000000000000000   10300001F05104100000000000206000000000000     
100   95050319006804440000000000001960000000001960002000000010410405190602483248401879030519000007192372   1020000200030000   333400010001204104000000281Myanmar Soft-Gate Tech Yangon        MMR11005190602483248400519000000000000000   10300001F05104100000000000412000000000000     
100   95050317003064220000000000000980000000000980002000000010410405190808073807675919910519000007193292   1020000200030000   333400010001204104000000281Myanmar Soft-Gate Tech Yangon        MMR11005190808073807670519000000000000000   10300001F05104100000000000206000000000000     
100   95030308100010080000000000000980000000000980002000000010410405191211534153034369000519000007194666   1020000200030000   333400010001204104000000281Myanmar Soft-Gate Tech Yangon        MMR11005191211534153030519000000000000000   10300001F05104100000000000206000000000000     
100   62911028202019440000000000021650000000021650002000000010410405190304148525014369000519572340914138   1030000900030000   541119001263190110000000958City Mart PLST C 6     YANGONMYOTHIT MMR11005190304148525010519000000000000000   10300001F00104100000000001299000000000000     
100   95050313145843230000000000100500000000100500002000000010410405190659442944650885440519000007192802   1030000200030000   333800010001203104000003327KBZPay                 Yangon        MMR11005190659442944650519000000000000000   10300001F05104100000000021105000000000000     
100   95050329613303740000000000050000000000050000002000000010410405191259552955633806150519000007194869   1030000200030000   333800010001203104000003327KBZPay                 Yangon        MMR11005191259552955630519000000000000000   10300001F05104100000000010500000000000000     
100   95050316769671810000000000000980000000000980002000000010410405190612474247875779700519000007192445   1020000200030000   333400010001204104000000281Myanmar Soft-Gate Tech Yangon        MMR11005190612474247870519000000000000000   10300001F05104100000000000206000000000000     
100   95050314567080940000000000001960000000001960002000000010410405191224075407785203340519000007194711   1020000200030000   333400010001204104000000281Myanmar Soft-Gate Tech Yangon        MMR11005191224075407780519000000000000000   10300001F05104100000000000412000000000000     
100   95050312482469810000000000010450000000010450002000000010410405190407068538611947970519350371006138   1030000900030000   541119000124190110000000080Sein Gay Har BAK       YANGONADA     MMR11005190407068538610519000000000000000   10300001F00104100000000002613000000000000     
100   95030318100004530000000000502650000000502650002000000010410405190801218593984369000519476311421138   1030000900030000   599919000388190110000000251Pro (1) Global (MawlaM AYEYARWADDYGY MMR11005190801218593980519000000000000000   10300001F00104100000000030159000000000000     
100   95050312498129060000000000000980000000000980002000000010410405191309003900640416090519000007194899   1020000200030000   333400010001204104000000281Myanmar Soft-Gate Tech Yangon        MMR11005191309003900640519000000000000000   10300001F05104100000000000206000000000000     
100   95050328303533000000000000010000000000010000002000000010410405190221535153335774970519000007190512   1030000200030000   3334000100012031040000040102C2P (Myanmar) Co. Ltd Yangon        MMR11005190221535153330519000000000000000   10300001F05104100000000002100000000000000     
100   62911028202397530000000000042374000000042374002000000010410405190714438582724369000519861441343138   1030000900030000   541119001303190110000000968Ocean Mingalar MDY C11 MANDALAYHARSI MMR11005190714438582720519000000000000000   10300001F00104100000000002542000000000000     
100   95050316321163940000000000000980000000000980002000000010410405191358062806158082830519000007195086   1020000200030000   333400010001204104000000281Myanmar Soft-Gate Tech Yangon        MMR11005191358062806150519000000000000000   10300001F05104100000000000206000000000000     
100   95050317284600370000000000040000000000040000002000000010410405191308233823810501180519000007194897   1030000200030000   333800010001203104000003327KBZPay                 Yangon        MMR11005191308233823810519000000000000000   10300001F05104100000000008400000000000000     
100   95050319528093960000000000000980000000000980002000000010410405191402583258809735320519000007195105   1020000200030000   333400010001204104000000281Myanmar Soft-Gate Tech Yangon        MMR11005191402583258800519000000000000000   10300001F05104100000000000206000000000000     
100   62443101054139140000000000041000000000041000002000000010410405190944362703331253260519213916270333   1040001600030000   598320000659000000010000528Shwe Taung Energy (YGN Yangon        MMR11005190944362703330519000000000000000   10300001F00104100000000004920000000000000     
