100   95050310427855490000000000000980000000000980002000000010410405210705503550768906220521000007203220   1020000200030000   333400010001204104000000281Myanmar Soft-Gate Tech Yangon        MMR11005210705503550760521000000000000000   10300001F05104100000000000206000000000000     
100   95050312695033440000000000000980000000000980002000000010410405211451322132230347140521000007204860   1020000200030000   333400010001204104000000281Myanmar Soft-Gate Tech Yangon        MMR11005211451322132230521000000000000000   10300001F05104100000000000206000000000000     
100   62911028202443730000000000023000000000023000002000000010410405210921434060734369000521214116406073   1040001600030000   598320000913000000010000663MMTM - Ywarma          Ygn           MMR11005210921434060730521000000000000000   10300001F00104100000000000690000000000000     
100   95050314557307430000000000001960000000001960002000000010410405210515124512984969920521000007202798   1020000200030000   333400010001204104000000281Myanmar Soft-Gate Tech Yangon        MMR11005210515124512980521000000000000000   10300001F05104100000000000412000000000000     
100   95050316818236190000000000004900000000004900002000000010410405210805033503417338830521000007203437   1020000200030000   333400010001204104000000281Myanmar Soft-Gate Tech Yangon        MMR11005210805033503410521000000000000000   10300001F05104100000000001029000000000000     
100   62443100369787460000000000035000000000035000002000000010410405210444023904649842280521214111390464   1040001600030000   598320000658000000010000527Shwe Taung Energy (YGN Yangon        MMR11005210444023904640521000000000000000   10300001F00104100000000004200000000000000     
100   62911028202827120000000000020000000000020000002000000010410405210856524046844369000521214115404684   1040001600030000   541120000569000000010000465Ocean Shwe Gone Daing  Yangon        MMR11005210856524046840521000000000000000   10300001F00104100000000001200000000000000     
100   95050311931431670000000000004900000000004900002000000010410405210924445444598154140521000007203712   1020000200030000   333400010001204104000000281Myanmar Soft-Gate Tech Yangon        MMR11005210924445444590521000000000000000   10300001F05104100000000001029000000000000     
100   95050312498129060000000000000980000000000980002000000010410405210322545254119998680521000007202309   1020000200030000   333400010001204104000000281Myanmar Soft-Gate Tech Yangon        MMR11005210322545254110521000000000000000   10300001F05104100000000000206000000000000     
100   95050314567080940000000000000980000000000980002000000010410405211316024602665644980521000007204538   1020000200030000   333400010001204104000000281Myanmar Soft-Gate Tech Yangon        MMR11005211316024602660521000000000000000   10300001F05104100000000000206000000000000     
100   95050314893649800000000000001960000000001960002000000010410405210359172917063218550521000007202469   1020000200030000   333400010001204104000000281Myanmar Soft-Gate Tech Yangon        MMR11005210359172917060521000000000000000   10300001F05104100000000000412000000000000     
100   95050319938772870000000000005000000000005000002000000010410405211353102310776701790521000007204679   1040001600030000   333800010001220104000004507A +                    Yangon        MMR11005211353102310770521000000000000000   10300001F05104100000000001050000000000000     
100   95030394609966640000000000050000000000050000002000000010410405210601413950874369000521214113395087   1040001600030000   598320000658000000010000527Shwe Taung Energy (YGN Yangon        MMR11005210601413950870521000000000000000   10300001F00104100000000001500000000000000     
100   95050322715181550000000000300000000000300000002000000010410405211113554149458955660521214118414945   1040001600030000   573220000051000000010000049Idea Link IT & Mobile  Yangon        MMR11005211113554149450521000000000000000   10300001F00104100000000072000000000000000     
100   95050317071956460000000000019600000000019600002000000010410405210425505550656863910521000007202584   1020000200030000   333400010001204104000000281Myanmar Soft-Gate Tech Yangon        MMR11005210425505550650521000000000000000   10300001F05104100000000004116000000000000     
100   95050313123223200000000000000980000000000980002000000010410405210719064906992211190521000007203271   1020000200030000   333400010001204104000000281Myanmar Soft-Gate Tech Yangon        MMR11005210719064906990521000000000000000   10300001F05104100000000000206000000000000     
100   95050317175714970000000000005000000000005000002000000010410405210830010001222040990521000007203511   1030000200030000   333800010001203104000003327KBZPay                 Yangon        MMR11005210830010001220521000000000000000   10300001F05104100000000001050000000000000     
100   95030380157605420000000000046701000000046701002000000010410405211311480008344369000521000747326013   1030000200030000   541188001487000008000000399KBZ BANK               OCEAN SUPERCE MMR11005211311480008340521000000000000000   10300001 00104100000000002802000000000000     
100   95030318100002710000000000034950000000034950002000000010410405211406310008124369000521000747328520   1030000200030000   541188001422000008000000401KBZ BANK               OCEAN SUPERCE MMR11005211406310008120521000000000000000   10300001 00104100000000002097000000000000     
100   62911028202656830000000000043860000000043860002000000010410405210423420013894369000521000747320344   1030000200030000   569988000804000008000004617KBZ BANK               JCY-TFS       MMR11005210423420013890521000000000000000   10300001 00104100000000002632000000000000     
100   95050315345734110000000000023000000000023000002000000010410405211034200000446416560521000747336356   1030000200030000   569988002478000008000006614KBZ BANK               PLATINUM BOX  MMR11005211034200000440521000000000000000   10300001 00104100000000005520000000000000     
100   95050320360851930000000000170000000000170000002000000010410405210830530053313693480521000007203518   1030000200030000   333800010001203104000003327KBZPay                 Yangon        MMR11005210830530053310521000000000000000   10300001F05104100000000035700000000000000     
100   95050315752234130000000000024301000000024301002000000010410405211057520016913558940521000747320518   1030000200030000   541188001456000008000000391KBZ BANK               OCEAN SUPER C MMR11005211057520016910521000000000000000   10300001 00104100000000006076000000000000     
100   95050326945666250000000000021550000000021550002000000010410405211621070100153366880521000747334604   1030000200030000   541188001313000008000000306KBZ BANK               CITY MART - S MMR11005211621070100150521000000000000000   10300001 00104100000000005388000000000000     
100   95050315564078030000000000050000000000050000002000000010410405211118154815135565600521000007204104   1030000200030000   3338000100012031040000040022C2P (Myanmar) Co. Ltd Yangon        MMR11005211118154815130521000000000000000   10300001F05104100000000010500000000000000     
100   62911028202281370000000000002400000000002400002000000010410405210653339007034369000521395231333140   1030000900030000   541119001225190110000000945City Mart TM C 10      YANGONONE     MMR11005210653339007030521000000000000000   10300001F00104100000000000144000000000000     
100   95050312498129060000000000000980000000000980002000000010410405210504123412746707500521000007202765   1020000200030000   333400010001204104000000281Myanmar Soft-Gate Tech Yangon        MMR11005210504123412740521000000000000000   10300001F05104100000000000206000000000000     
100   95050312224678430000000000000980000000000980002000000010410405210611574157257509030521000007203005   1020000200030000   333400010001204104000000281Myanmar Soft-Gate Tech Yangon        MMR11005210611574157250521000000000000000   10300001F05104100000000000206000000000000     
100   95050316601084530000000000000980000000000980002000000010410405210010194019589707740521000007201787   1020000200030000   333400010001204104000000281Myanmar Soft-Gate Tech Yangon        MMR11005210010194019580521000000000000000   10300001F05104100000000000206000000000000     
100   95050327531396450000000000009800000000009800002000000010410405211023095309808069040521000007203913   1020000200030000   333400010001204104000000281Myanmar Soft-Gate Tech Yangon        MMR11005211023095309800521000000000000000   10300001F05104100000000002058000000000000     
100   62443101054139140000000000032000000000032000002000000010410405211328354255308439370521214120425530   1040001600030000   598320000310000000010000298PT Power Petrol Statio Yangon        MMR11005211328354255300521000000000000000   10300001F00104100000000003840000000000000     
100   95050319835237500000000000035646000000035646002000000010410405210429228972691821360521088591022140   1030000900030000   541119001304190110000000968Ocean Mingalar MDY C 1 MANDALAYHARSI MMR11005210429228972690521000000000000000   10300001F00104100000000008912000000000000     
100   62911028202031710000000000155305000000155305002000000010410405211727170221364369000521000747337657   1030000200030000   541188001037000008000000010KBZ BANK               MARKETPLACE - MMR11005211727170221360521000000000000000   10300001 00104100000000009318000000000000     
100   95050327192897240000000000000980000000000980002000000010410405211230430043488779760521000007204385   1020000200030000   333400010001204104000000281Myanmar Soft-Gate Tech Yangon        MMR11005211230430043480521000000000000000   10300001F05104100000000000206000000000000     
100   62911028202448030000000000036095000000036095002000000010410405211800370031024369000521000747339186   1030000200030000   541188001005000008000000008KBZ BANK               MARKETPLACE - MMR11005211800370031020521000000000000000   10300001 00104100000000002166000000000000     
100   62911028202502480000000000005000000000005000002000000010410405211812190136854369000521000747339690   1030000200030000   541188001047000008000000010KBZ BANK               MARKETPLACE - MMR11005211812190136850521000000000000000   10300001 00104100000000000300000000000000     
100   62911028202440680000000000012000000000012000002000000010410405211832370193884369000521000747340479   1030000200030000   541188001080000008000000294KBZ BANK               CITY MART - J MMR11005211832370193880521000000000000000   10300001 00104100000000000720000000000000     
100   62911028202502480000000000024150000000024150002000000010410405211806410221394369000521000747339438   1030000200030000   541188001037000008000000010KBZ BANK               MARKETPLACE - MMR11005211806410221390521000000000000000   10300001 00104100000000001449000000000000     
100   62443101076362230000000000045000000000045000002000000010410405211453430252729963030521000747330588   1030000200030000   541188001038000008000000010KBZ BANK               MARKETPLACE - MMR11005211453430252720521000000000000000   10300001 00104100000000011250000000000000     
100   95050312613888920000000000010000000000010000002000000010410405201733330333979792830521000007201568   1030000200030000   333800010001203104000003327KBZPay                 Yangon        MMR11005201733330333970521000000000000000   10300001F05104100000000002100000000000000     
100   62443100325551180000000000044946000000044946002000000010410405210554148993494374250521452241214140   1030000900030000   581219000371190110000000243Jo Jo Hot Pot (Junctio YANGONN       MMR11005210554148993490521000000000000000   10300001F00104100000000019102000000000000     
100   95030301100103940000000000038200000000038200002000000010410405210928544064814369000521214116406481   1040001600030000   541120000555000000010000465Ocean Shwe Gone Daing  Yangon        MMR11005210928544064810521000000000000000   10300001F00104100000000002292000000000000     
100   62911028202132460000000000020000000000020000002000000010410405211053424132954369000521214117413295   1040001600030000   569120000924000000010000671Generation Concept Sto Ygn           MMR11005211053424132950521000000000000000   10300001F00104100000000001200000000000000     
100   95050325925517520000000000025000000000025000002000000010410405211131384163277473370521214118416327   1040001600030000   598320000310000000010000298PT Power Petrol Statio Yangon        MMR11005211131384163270521000000000000000   10300001F00104100000000003000000000000000     
100   95050316067768680000000000000980000000000980002000000010410405211319594959501744340521000007204549   1020000200030000   333400010001204104000000281Myanmar Soft-Gate Tech Yangon        MMR11005211319594959500521000000000000000   10300001F05104100000000000206000000000000     
100   62911028202788350000000000010000000000010000002000000010410405211215324532114369000521000007204328   1030000200030000   333800010001203104000003327KBZPay                 Yangon        MMR11005211215324532110521000000000000000   10300001F05104100000000002100000000000000     
100   62911028202656830000000000006000000000006000002000000010410405210457218979834369000521558271121140   1030000900030000   723019001054190110000000857Beauty Diary JC        YANGONN       MMR11005210457218979830521000000000000000   10300001F00104100000000000360000000000000     
100   62911028202138320000000000009800000000009800002000000010410405211208103810124369000521000007204297   1020000200030000   333400010001204104000000281Myanmar Soft-Gate Tech Yangon        MMR11005211208103810120521000000000000000   10300001F05104100000000002058000000000000     
100   95050312498129060000000000000980000000000980002000000010410405211135360536938530180521000007204177   1020000200030000   333400010001204104000000281Myanmar Soft-Gate Tech Yangon        MMR11005211135360536930521000000000000000   10300001F05104100000000000206000000000000     
100   95050323749862420000000000020650000000020650002000000010410405211151580197820012470521000747322646   1030000200030000   541188001055000008000000314KBZ BANK               MARKETPLACE - MMR11005211151580197820521000000000000000   10300001 00104100000000005163000000000000     
100   62443100325551180000000000026088000000026088002000000010410405211301300071121239470521000747325516   1030000200030000   541188001064000008000000314KBZ BANK               MARKETPLACE - MMR11005211301300071120521000000000000000   10300001 00104100000000006522000000000000     
100   62911028202150190000000000027400000000027400002000000010410405212023120221504369000521000747343392   1030000200030000   541188001037000008000000010KBZ BANK               MARKETPLACE - MMR11005212023120221500521000000000000000   10300001 00104100000000001644000000000000     
100   95050328899555750000000000005077000000005077002000000010410405211110260220826693710521000747320986   1030000200030000   541188001037000008000000010KBZ BANK               MARKETPLACE - MMR11005211110260220820521000000000000000   10300001 00104100000000001270000000000000     
100   62911028202169750000000000240058000000240058002000000010410405211337050030664369000521000747327118   1030000200030000   541188001005000008000000008KBZ BANK               MARKETPLACE - MMR11005211337050030660521000000000000000   10300001 00104100000000014403000000000000     
100   62911028202161240000000000004250000000004250002000000010410405211307170120724369000521000747325804   1030000200030000   541188001023000008000000298KBZ BANK               CITY MART - M MMR11005211307170120720521000000000000000   10300001 00104100000000000255000000000000     
100   62443101076362230000000000011000000000011000002000000010410405211508320179943608380521000747331275   1030000200030000   541188001124000008000000296KBZ BANK               CITY MART - J MMR11005211508320179940521000000000000000   10300001 00104100000000002750000000000000     
100   95050314567080940000000000001960000000001960002000000010410405210856252625369891720521000007203626   1020000200030000   333400010001204104000000281Myanmar Soft-Gate Tech Yangon        MMR11005210856252625360521000000000000000   10300001F05104100000000000412000000000000     
100   95050321287849350000000000055750000000055750002000000010410405210426303895148516390521214111389514   1040001600030000   591220000281000000010000269Shwe Ohh Pharmacy (San Yangon        MMR11005210426303895140521000000000000000   10300001F00104100000000013380000000000000     
100   95050310427855490000000000002940000000002940002000000010410405210710294029795601250521000007203242   1020000200030000   333400010001204104000000281Myanmar Soft-Gate Tech Yangon        MMR11005210710294029790521000000000000000   10300001F05104100000000000617000000000000     
100   95050311959900780000000000001960000000001960002000000010410405211216254625005474790521000007204330   1020000200030000   333400010001204104000000281Myanmar Soft-Gate Tech Yangon        MMR11005211216254625000521000000000000000   10300001F05104100000000000412000000000000     
100   95050315005801680000000000000980000000000980002000000010410405201720115011258140350521000007201548   1020000200030000   333400010001204104000000281Myanmar Soft-Gate Tech Yangon        MMR11005201720115011250521000000000000000   10300001F05104100000000000206000000000000     
100   95030367537085740000000000000980000000000980002000000010410405210313304330404369000521000007202263   1020000200030000   333400010001204104000000281Myanmar Soft-Gate Tech Yangon        MMR11005210313304330400521000000000000000   10300001F05104100000000000206000000000000     
100   62911028202169750000000000022000000000022000002000000010410405210138183817034369000521214108381703   1040001600030000   598320000838000000010000600Regency Petrol Station Ygn           MMR11005210138183817030521000000000000000   10300001F00104100000000000660000000000000     
100   95050314565805350000000000025000000000025000002000000010410405211311054105160687520521000007204513   1030000200030000   333800010001203104000003327KBZPay                 Yangon        MMR11005211311054105160521000000000000000   10300001F05104100000000005250000000000000     
100   95050326155679180000000000005880000000005880002000000010410405210632370237757934510521000007203090   1020000200030000   333400010001204104000000281Myanmar Soft-Gate Tech Yangon        MMR11005210632370237750521000000000000000   10300001F05104100000000001235000000000000     
100   62911028202656830000000000021650000000021650002000000010410405211115560241924369000521000747321205   1030000200030000   541188001059000008000000314KBZ BANK               MARKETPLACE - MMR11005211115560241920521000000000000000   10300001 00104100000000001299000000000000     
100   95030381424182120000000000007000000000007000002000000010410405211817560170604369000521000747339894   1030000200030000   541188001305000008000000325KBZ BANK               CITY MART - A MMR11005211817560170600521000000000000000   10300001 00104100000000000420000000000000     
100   62911028202530930000000000003500000000003500002000000010410405211629170207154369000521000747334947   1030000200030000   541188001070000008000000314KBZ BANK               MARKETPLACE - MMR11005211629170207150521000000000000000   10300001 00104100000000000210000000000000     
100   95050312498129060000000000000980000000000980002000000010410405210630420042364204050521000007203082   1020000200030000   333400010001204104000000281Myanmar Soft-Gate Tech Yangon        MMR11005210630420042360521000000000000000   10300001F05104100000000000206000000000000     
100   62911028202120400000000000027000000000027000002000000010410405211233140078624369000521000747324334   1030000200030000   541188001062000008000000314KBZ BANK               MARKETPLACE - MMR11005211233140078620521000000000000000   10300001 00104100000000001620000000000000     
100   95030317922148660000000000107397000000107397002000000010410405211501550022744369000521000747330970   1030000200030000   541188001040000008000000010KBZ BANK               MARKETPLACE - MMR11005211501550022740521000000000000000   10300001 00104100000000006444000000000000     
100   95050321685338790000000000160800000000160800002000000010410405211341440035350091850521000747343185   1030000200030000   581288000098000008000003562KBZ BANK               CANTON PARADI MMR11005211341440035350521000000000000000   10300001 00104100000000068340000000000000     
100   62443100318296470000000000045000000000045000002000000010410405211106474144020693240521214118414402   1040001600030000   598320000658000000010000527Shwe Taung Energy (YGN Yangon        MMR11005211106474144020521000000000000000   10300001F00104100000000005400000000000000     
100   95030393921562700000000000024600000000024600002000000010410405210817568093814369000521475660532729   1040001400030000   581410000363025814100002561MuDon Thu null No(141) YawGi Kyaung  MMR11005210817568093810521000000000000000   10300001 00104100000000000738000000000000     
100   95050318267399100000000000000980000000000980002000000010410405211251112111634077590521000007204434   1020000200030000   333400010001204104000000281Myanmar Soft-Gate Tech Yangon        MMR11005211251112111630521000000000000000   10300001F05104100000000000206000000000000     
100   95050321976590420000000000019200000000019200002000000010410405211037544118113026490521214117411811   1040001600030000   541120000569000000010000465Ocean Shwe Gone Daing  Yangon        MMR11005211037544118110521000000000000000   10300001F00104100000000004800000000000000     
100   95050312695033440000000000000980000000000980002000000010410405211213354335260517330521000007204321   1020000200030000   333400010001204104000000281Myanmar Soft-Gate Tech Yangon        MMR11005211213354335260521000000000000000   10300001F05104100000000000206000000000000     
100   62911028202499270000000000007100000000007100002000000010410405210637209003364369000521125071320140   1030000900030000   541119001358190110000000977Ocean PZD C 12         YANGONAUNG    MMR11005210637209003360521000000000000000   10300001F00104100000000000426000000000000     
100   62911028202449850000000000177000000000177000002000000010410405210509003918514369000521214112391851   1040001600030000   591220000619000000010000491Kyaw Pharmacy          ygn           MMR11005210509003918510521000000000000000   10300001F00104100000000010620000000000000     
100   62911028202827120000000000031272000000031272002000000010410405210912044055144369000521214116405514   1040001600030000   541120000557000000010000465Ocean Shwe Gone Daing  Yangon        MMR11005210912044055140521000000000000000   10300001F00104100000000001876000000000000     
100   62911028202161240000000000001600000000001600002000000010410405211304400084754369000521000747325664   1030000200030000   541188001033000008000000298KBZ BANK               CITY MART - M MMR11005211304400084750521000000000000000   10300001 00104100000000000096000000000000     
100   62911028202169750000000000003600000000003600002000000010410405211342370285694369000521000747327382   1030000200030000   541188001012000008000000008KBZ BANK               MARKETPLACE - MMR11005211342370285690521000000000000000   10300001 00104100000000000216000000000000     
100   62911028202045260000000000004500000000004500002000000010410405211139471889694369000521562231816140   1030000500030000   555610112646104519000010841City Express MCS 07                  MMR11005211139471889690521000000000000000   10300001 00104100000000000270000000000000     
100   62443100340288250000000000003500000000003500002000000010410405210735341850855431060521098051440140   1030000500030000   555610112248104519000010487Ocean Super Center St  ohn           MMR11005210735341850850521000000000000000   10300001 00104100000000000875000000000000     
100   95050314190972620000000000050500000000050500002000000010410405210536530653476537310521000007202867   1030000200030000   333800010001203104000003327KBZPay                 Yangon        MMR11005210536530653470521000000000000000   10300001F05104100000000010605000000000000     
100   95050324104751500000000000011550000000011550002000000010410405211054231882123998210521673311725140   1030000500030000   555610110595104519000009166City Mart 47 Branch                  MMR11005211054231882120521000000000000000   10300001 00104100000000002888000000000000     
100   95030308100010080000000000000980000000000980002000000010410405210445581558084369000521000007202674   1020000200030000   333400010001204104000000281Myanmar Soft-Gate Tech Yangon        MMR11005210445581558080521000000000000000   10300001F05104100000000000206000000000000     
100   62911028202169750000000000000600000000000600002000000010410405210744471852424369000521269161418140   1030000500030000   555610108765104519000003432City Mart Junction Zaw na 1          MMR11005210744471852420521000000000000000   10300001 00104100000000000036000000000000     
100   95050312005798410000000000002940000000002940002000000010410405211026075607284764080521000007203926   1020000200030000   333400010001204104000000281Myanmar Soft-Gate Tech Yangon        MMR11005211026075607280521000000000000000   10300001F05104100000000000617000000000000     
100   95030380157605420000000000300000000000300000002000000010410405210718544854744369000521000007203267   1030000200030000   333800010001203104000003327KBZPay                 Yangon        MMR11005210718544854740521000000000000000   10300001F05104100000000063000000000000000     
100   95050314950595330000000000001000000000001000002000000010410405211218554855317127270521000007204338   1030000200030000   3338000100012031040000040022C2P (Myanmar) Co. Ltd Yangon        MMR11005211218554855310521000000000000000   10300001F05104100000000000210000000000000     
100   95050316321163940000000000004000000000004000002000000010410405211629555955536957080521000007205107   1030000200030000   333800010001203104000003327KBZPay                 Yangon        MMR11005211629555955530521000000000000000   10300001F05104100000000000840000000000000     
100   62911028202248050000000000041100000000041100002000000010410405211045389063644369000521651151738140   1030000900030000   541119001328190110000000971Ocean Junction NPT C6  NAYPYITAW     MMR11005211045389063640521000000000000000   10300001F00104100000000002466000000000000     
100   62443100369813440000000000020000000000020000002000000010410405200635340022218692300520214013002221   1030000500030000   598320001303000015172200013MAX ENERGY             PTN           MMR11005200635340022210520000000000000000   10300001 00104100000000002400000000000000     
100   95050326228858240000000000137720000000137720002000000010410405211324089101303396820521104541908140   1030000900030000   581219001443190110000001047Noodle Bowl Sayarsan   YANGON        MMR11005211324089101300521000000000000000   10300001F00104100000000058531000000000000     
100   95030301100120440000000000061850000000061850002000000010410405210825289028744369000521032551428140   1030000900030000   541119001207190110000000948City Mart YK C 5       YANGONAUNG    MMR11005210825289028740521000000000000000   10300001F00104100000000003711000000000000     
100   62911028202169750000000000017400000000017400002000000010410405210811471856274369000521690431436140   1030000500030000   555610108765104519000003432City Mart Junction Zaw na 1          MMR11005210811471856270521000000000000000   10300001 00104100000000001044000000000000     
100   62911028202223200000000000007450000000007450002000000010410405211241031895354369000521235111935140   1030000500030000   555610110581104519000009164City Mart China Town P int Cen       MMR11005211241031895350521000000000000000   10300001 00104100000000000447000000000000     
100   95050314557307430000000000003920000000003920002000000010410405202344411441858055260521000007201766   1020000200030000   333400010001204104000000281Myanmar Soft-Gate Tech Yangon        MMR11005202344411441850521000000000000000   10300001F05104100000000000823000000000000     
100   95050312005798410000000000010000000000010000002000000010410405210456361829712977050521794261104140   1030000500030000   555610124465104519000003432City Mart Junction Zaw na 1          MMR11005210456361829710521000000000000000   10300001 00104100000000002500000000000000     
100   62911028202674810000000000004500000000004500002000000010410405210428241826464369000521442001118140   1030000500030000   555610112649104519000010844City Express MCS 20                  MMR11005210428241826460521000000000000000   10300001 00104100000000000270000000000000     
100   95050315150726490000000000000980000000000980002000000010410405210237040704448601490521000007202128   1020000200030000   333400010001204104000000281Myanmar Soft-Gate Tech Yangon        MMR11005210237040704440521000000000000000   10300001F05104100000000000206000000000000     
100   62911028202788350000000000010000000000010000002000000010410405210940321032064369000521000007203763   1030000200030000   333800010001203104000003327KBZPay                 Yangon        MMR11005210940321032060521000000000000000   10300001F05104100000000002100000000000000     
100   95050314248677090000000000300000000000300000002000000010410405210244471447738941880521000007202145   1030000200030000   333800010001203104000003327KBZPay                 Yangon        MMR11005210244471447730521000000000000000   10300001F05104100000000063000000000000000     
100   62911028202593140000000000070000000000070000002000000010410405210858254047734369000521214115404773   1040001600030000   598320000913000000010000663MMTM - Ywarma          Ygn           MMR11005210858254047730521000000000000000   10300001F00104100000000002100000000000000     
100   62911028202331290000000000032700000000032700002000000010410405210959409051634369000521753291640140   1030000900030000   591219000969190110000000776Shwe Ohh Pharmacy St ( YANGONADA     MMR11005210959409051630521000000000000000   10300001F00104100000000001962000000000000     
100   95030301100125070000000000013350000000013350002000000010410405210921201866784369000521906511506140   1030000300030000   444410116806104519000014353BreadTalk JunctionCity               MMR11005210921201866780521000000000000000   10300001 00104100000000001362000000000000     
100   95050326198165350000000000011200000000011200002000000010410405211057549067065735790521895271754140   1030000900030000   541119001255190110000000956City Mart JS Season C  YANGONUT      MMR11005211057549067060521000000000000000   10300001F00104100000000002800000000000000     
100   95050328425894870000000000024700000000024700002000000010410405211204469083770602430521002341846140   1030000900030000   541119001308190110000000968Ocean Mingalar MDY C 1 MANDALAYHARSI MMR11005211204469083770521000000000000000   10300001F00104100000000006175000000000000     
100   62911028202154800000000000020440000000020440002000000010410405210811459025724369000521807411445140   1030000900030000   541119001265190110000000958City Mart PLST C 8     YANGONMYOTHIT MMR11005210811459025720521000000000000000   10300001F00104100000000001226000000000000     
100   95050313836159580000000000001000000000001000002000000010410405211513154315615389690521000007204904   1030000200030000   3334000100012031040000040102C2P (Myanmar) Co. Ltd Yangon        MMR11005211513154315610521000000000000000   10300001F05104100000000000210000000000000     
100   62443100306416880000000000018250000000018250002000000010410405210638371843022891960521282071340140   1030000500030000   555610115765104519000013506MarketplaceMyanmarPlaz Branch        MMR11005210638371843020521000000000000000   10300001 00104100000000004563000000000000     
100   95050314248677090000000000150000000000150000002000000010410405210247171717467204290521000007202156   1030000200030000   333800010001203104000003327KBZPay                 Yangon        MMR11005210247171717460521000000000000000   10300001F05104100000000031500000000000000     
100   95050314557307430000000000023520000000023520002000000010410405210242321232550594350521000007202141   1020000200030000   333400010001204104000000281Myanmar Soft-Gate Tech Yangon        MMR11005210242321232550521000000000000000   10300001F05104100000000004939000000000000     
100   95050310332595380000000000004900000000004900002000000010410405210335540554706608620521000007202355   1020000200030000   333400010001204104000000281Myanmar Soft-Gate Tech Yangon        MMR11005210335540554700521000000000000000   10300001F05104100000000001029000000000000     
100   95050313102162270000000000034109000000034109002000000010410405210811101855852296280521646401429140   1030000500030000   555610122990104519000019269City Mart Supermarket  hanlyin       MMR11005210811101855850521000000000000000   10300001 00104100000000008528000000000000     
100   62911028202357510000000000009800000000009800002000000010410405211251541896254369000521356201958140   1030000500030000   555610110570104519000009164City Mart China Town P int Cen       MMR11005211251541896250521000000000000000   10300001 00104100000000000588000000000000     
100   62911028202593140000000000019321000000019321002000000010410405211224491893844369000521066551854140   1030000500030000   555610114572104519000012532City Mart Ahlone Branc               MMR11005211224491893840521000000000000000   10300001 00104100000000001159000000000000     
100   95050315099113150000000000001960000000001960002000000010410405210741371137117083540521000007203354   1020000200030000   333400010001204104000000281Myanmar Soft-Gate Tech Yangon        MMR11005210741371137110521000000000000000   10300001F05104100000000000412000000000000     
100   62911028202684060000000000020053000000020053002000000010410405211145241889024369000521480181840140   1030000500030000   555610104028104519000003821City Mart North Point  enter         MMR11005211145241889020521000000000000000   10300001 00104100000000001203000000000000     
100   95050324247403260000000000276550000000276550002000000010410405210745029019019161510521298151402140   1030000900030000   541119000284190110000000177Pro1 Global (Insein)   YANGON        MMR11005210745029019010521000000000000000   10300001F00104100000000069138000000000000     
100   62911028202448030000000000007200000000007200002000000010410405211152169081244369000521849221816140   1030000900030000   541119000167190110000000085SeinGayHar (Dagon Cent YANGONUNG     MMR11005211152169081240521000000000000000   10300001F00104100000000000432000000000000     
100   95050315690875920000000000029000000000029000002000000010410405200938320001752282490520214016000175   1030000500030000   569120066801008205691200668ESCORT                 PTN           MMR11005200938320001750520000000000000000   10300001 00104100000000006960000000000000     
100   62443100399918110000000000092200000000092200002000000010410405210955470237871651160521000747318464   1030000200030000   541188001003000008000000008KBZ BANK               MARKETPLACE - MMR11005210955470237870521000000000000000   10300001 00104100000000023050000000000000     
100   62911028202130710000000000016878000000016878002000000010410405211810530032304369000521000747339634   1030000200030000   541188001004000008000000008KBZ BANK               MARKETPLACE - MMR11005211810530032300521000000000000000   10300001 00104100000000001013000000000000     
100   62443100384660050000000000126150000000126150002000000010410405210924209043005189560521093541520140   1030000900030000   541119001308190110000000968Ocean Mingalar MDY C 1 MANDALAYHARSI MMR11005210924209043000521000000000000000   10300001F00104100000000031538000000000000     
100   95050317376014640000000000001960000000001960002000000010410405211149561956313828020521000007204233   1020000200030000   333400010001204104000000281Myanmar Soft-Gate Tech Yangon        MMR11005211149561956310521000000000000000   10300001F05104100000000000412000000000000     
100   95030394609966640000000000003800000000003800002000000010410405211218230029364369000521000747323677   1030000200030000   541188001021000008000000298KBZ BANK               CITY MART - M MMR11005211218230029360521000000000000000   10300001 00104100000000000228000000000000     
100   62443101076362230000000000024200000000024200002000000010410405211259451897189035040521469311918140   1030000300030000   444410106710104519000005921YKKO Bahan 2                         MMR11005211259451897180521000000000000000   10300001 00104100000000010285000000000000     
100   95030301100119620000000000067500000000067500002000000010410405210847091861344369000521306171500140   1030000300030000   555510124693104519000020166Makro Myanmar                        MMR11005210847091861340521000000000000000   10300001 00104100000000004050000000000000     
100   62443100325551180000000000135150000000135150002000000010410405210845571861068650930521274151506140   1030000300030000   555510124695104519000020166Makro Myanmar                        MMR11005210845571861060521000000000000000   10300001 00104100000000032436000000000000     
100   95050324104751500000000000007200000000007200002000000010410405211101501882365650690521703331725140   1030000500030000   555610110596104519000009166City Mart 47 Branch                  MMR11005211101501882360521000000000000000   10300001 00104100000000001800000000000000     
100   95050319870763910000000000000980000000000980002000000010410405210804153415235686350521000007203434   1020000200030000   333400010001204104000000281Myanmar Soft-Gate Tech Yangon        MMR11005210804153415230521000000000000000   10300001F05104100000000000206000000000000     
100   62911028202169750000000000037450000000037450002000000010410405210801271854414369000521485301431140   1030000500030000   555610103474104519000003432City Mart Junction Zaw na 1          MMR11005210801271854410521000000000000000   10300001 00104100000000002247000000000000     
100   95050313970192050000000000016000000000016000002000000010410405210921151867779806620521017561526140   1030000500030000   555610112651104519000010846City Express MCS 34                  MMR11005210921151867770521000000000000000   10300001 00104100000000004000000000000000     
100   62443101023815100000000000020750000000020750002000000010410405211403451901436616690521975322048140   1030000500030000   555610114573104519000012532City Mart Ahlone Branc               MMR11005211403451901430521000000000000000   10300001 00104100000000005188000000000000     
100   62911028202423360000000000016000000000016000002000000010410405211032169060014369000521385021716140   1030000900030000   541119000285190110000000177Pro1 Global (Insein)   YANGON        MMR11005211032169060010521000000000000000   10300001F00104100000000000960000000000000     
100   95050324850150480000000000082050000000082050002000000010410405210753389021249076410521461231438140   1030000900030000   541119000375190110000000178Pro (1) Global (East D YANGONMYOTHIT MMR11005210753389021240521000000000000000   10300001F00104100000000020513000000000000     
100   95050311419479170000000000001960000000001960002000000010410405210802183218535771440521000007203428   1020000200030000   333400010001204104000000281Myanmar Soft-Gate Tech Yangon        MMR11005210802183218530521000000000000000   10300001F05104100000000000412000000000000     
100   62911028202161240000000000027665000000027665002000000010410405211302210168654369000521000747325557   1030000200030000   541188001020000008000000298KBZ BANK               CITY MART - M MMR11005211302210168650521000000000000000   10300001 00104100000000001660000000000000     
100   62911028202441420000000000041200000000041200002000000010410405211037344117764369000521214117411776   1040001600030000   591220000294000000010000282Shwe Ohh Pharmacy (Kha Yangon        MMR11005211037344117760521000000000000000   10300001F00104100000000002472000000000000     
100   62443100372718280000000000074970000000074970002000000010410405210105478937194069510521068350747140   1030000900030000   806219001560190110000000290Grand Hanthar Hospital YANGONUT      MMR11005210105478937190521000000000000000   10300001F00104100000000017993000000000000     
100   95050316818236190000000000004900000000004900002000000010410405211136350635183572720521000007204181   1020000200030000   333400010001204104000000281Myanmar Soft-Gate Tech Yangon        MMR11005211136350635180521000000000000000   10300001F05104100000000001029000000000000     
100   62911028202684060000000000047000000000047000002000000010410405210510293919324369000521214112391932   1040001600030000   598320001170000000010000527Shwe Taung Energy (YGN Yangon        MMR11005210510293919320521000000000000000   10300001F00104100000000001410000000000000     
100   95030301100128610000000000100000000000100000002000000010410405210939460946454369000521000007203760   1030000200030000   333800010001203104000003327KBZPay                 Yangon        MMR11005210939460946450521000000000000000   10300001F05104100000000021000000000000000     
100   95030306100096490000000000007840000000007840002000000010410405211441561156424369000521000007204831   1020000200030000   333400010001204104000000281Myanmar Soft-Gate Tech Yangon        MMR11005211441561156420521000000000000000   10300001F05104100000000001646000000000000     
100   95030301100338180000000000053700000000053700002000000010410405210703541846684369000521664341343140   1030000500030000   555610110559104519000009163City Mart Ayeyarwon Br nch           MMR11005210703541846680521000000000000000   10300001 00104100000000003222000000000000     
100   62911028202151340000000000002800000000002800002000000010410405210829201858364369000521956581438140   1030000300030000   444410125393104519000021220Myanmar Bakery CoLtd                 MMR11005210829201858360521000000000000000   10300001 00104100000000000286000000000000     
100   62911028202151340000000000029200000000029200002000000010410405211020581876094369000521974521620140   1030000500030000   555610110576104519000009164City Mart China Town P int Cen       MMR11005211020581876090521000000000000000   10300001 00104100000000001752000000000000     
100   62443100340288250000000000039207000000039207002000000010410405210735001850738736030521086041457140   1030000500030000   555610112248104519000010487Ocean Super Center St  ohn           MMR11005210735001850730521000000000000000   10300001 00104100000000009802000000000000     
100   95030301100338180000000000007000000000007000002000000010410405210948291871394369000521403191640140   1030000500030000   555610110561104519000009163City Mart Ayeyarwon Br nch           MMR11005210948291871390521000000000000000   10300001 00104100000000000420000000000000     
100   95050311382087030000000000000980000000000980002000000010410405211241011101194162690521000007204406   1020000200030000   333400010001204104000000281Myanmar Soft-Gate Tech Yangon        MMR11005211241011101190521000000000000000   10300001F05104100000000000206000000000000     
100   95050317084233280000000000001960000000001960002000000010410405210555102510586026730521000007202932   1020000200030000   333400010001204104000000281Myanmar Soft-Gate Tech Yangon        MMR11005210555102510580521000000000000000   10300001F05104100000000000412000000000000     
100   62911028202397530000000000123002000000123002002000000010410405200728150008444369000520214013000844   1030000500030000   598320130401000075983201304MOON SUN TRADING CO. L PTN           MMR11005200728150008440520000000000000000   10300001 00104100000000003690000000000000     
100   95050326689257240000000000009900000000009900002000000010410405201222320232566559180520000346044758   1030000300030000   531100000794000000000000540CB BANK                CAPITAL SUPER MMR11005201222320232560520000000000000000   10300001F00104100000000002376000000000000     
100   95050314365758940000000000003850000000003850002000000010410405210723091849028821120521912531329140   1030000500030000   555610120939104519000017714City Mart Yuzana Dagon Seikkan       MMR11005210723091849020521000000000000000   10300001 00104100000000000963000000000000     
100   62911028202169750000000000054600000000054600002000000010410405210433348973694369000521150031134140   1030000900030000   541119000160190110000000084Pro (1) Global (Pazund YANGONARTAUNG MMR11005210433348973690521000000000000000   10300001F00104100000000003276000000000000     
100   95050312498129060000000000001960000000001960002000000010410405211349051905798354270521000007204659   1020000200030000   333400010001204104000000281Myanmar Soft-Gate Tech Yangon        MMR11005211349051905790521000000000000000   10300001F05104100000000000412000000000000     
100   62911028202088990000000000111000000000111000002000000010410405200324070024154369000520214009002415   1030000500030000   598320001404000015172200014MAX ENERGY             PTN           MMR11005200324070024150520000000000000000   10300001 00104100000000003330000000000000     
100   95030393921562700000000000030500000000030500002000000010410405210540058990004369000521207101205140   1030000900030000   573219001183190110000000939UNIQUE Thingangyun     YANGONNGKUUN  MMR11005210540058990000521000000000000000   10300001F00104100000000001830000000000000     
100   95050316818236190000000000000980000000000980002000000010410405210638540854684544440521000007203107   1020000200030000   333400010001204104000000281Myanmar Soft-Gate Tech Yangon        MMR11005210638540854680521000000000000000   10300001F05104100000000000206000000000000     
100   95030301100120850000000000010000000000010000002000000010410405210541221122654369000521000007202882   1030000200030000   333800010001203104000003327KBZPay                 Yangon        MMR11005210541221122650521000000000000000   10300001F05104100000000002100000000000000     
100   62911028202788350000000000010000000000010000002000000010410405211542021202304369000521000007204984   1030000200030000   333800010001203104000003327KBZPay                 Yangon        MMR11005211542021202300521000000000000000   10300001F05104100000000002100000000000000     
100   62911028202135350000000000592699000000592699002000000010410405200539160005524369000520214012000552   1030000500030000   806220046401006308062200464ASIA ROYAL HOSPITAL    PTN           MMR11005200539160005520520000000000000000   10300001 00104100000000035562000000000000     
100   62911028202162640000000000042200000000042200002000000010410405200606230007464369000520214012000746   1030000500030000   541120020902022205411200209ORANGE (HLAING)        PTN           MMR11005200606230007460520000000000000000   10300001 00104100000000002532000000000000     
100   62911028202460220000000000020000000000020000002000000010410405200559540019194369000520214012001919   1030000500030000   598320001201000015172200012MAX ENERGY             PTN           MMR11005200559540019190520000000000000000   10300001 00104100000000000600000000000000     
100   95050319286546940000000000012200000000012200002000000010410405200921360004509062620520214015000450   1030000500030000   591220132901008605912201329THEIK DI WIN SHOP      PTN           MMR11005200921360004500520000000000000000   10300001 00104100000000002928000000000000     
100   62911028202668300000000000030000000000030000002000000010410405201016060023134369000520214016002313   1030000500030000   598320001403000015172200014MAX ENERGY             PTN           MMR11005201016060023130520000000000000000   10300001 00104100000000000900000000000000     
100   95050318741700180000000000000980000000000980002000000010410405211311234123615730070521000007204522   1020000200030000   333400010001204104000000281Myanmar Soft-Gate Tech Yangon        MMR11005211311234123610521000000000000000   10300001F05104100000000000206000000000000     
100   95050316355723530000000000000980000000000980002000000010410405211554582458965304590521000007205020   1020000200030000   333400010001204104000000281Myanmar Soft-Gate Tech Yangon        MMR11005211554582458960521000000000000000   10300001F05104100000000000206000000000000     
100   95050319111666800000000000000980000000000980002000000010410405211228085808403737210521000007204380   1020000200030000   333400010001204104000000281Myanmar Soft-Gate Tech Yangon        MMR11005211228085808400521000000000000000   10300001F05104100000000000206000000000000     
100   95050311959900780000000000000980000000000980002000000010410405210124395439569452450521000007201905   1020000200030000   333400010001204104000000281Myanmar Soft-Gate Tech Yangon        MMR11005210124395439560521000000000000000   10300001F05104100000000000206000000000000     
100   62911028202281370000000000003100000000003100002000000010410405210645469005254369000521265151346140   1030000900030000   541119001217190110000000945City Mart TM C 2       YANGONONE     MMR11005210645469005250521000000000000000   10300001F00104100000000000186000000000000     
100   62443101006037900000000000010000000000010000002000000010410405210436188757580083780521061853522834   1040001400030000   581210000464025812100002920Golden Duck Restaurant (Sayarsan) nu MMR11005210436188757580521000000000000000   10300001 00104100000000004250000000000000     
100   95030361482647470000000000032000000000032000002000000010410405201053590026644369000520214017002664   1030000500030000   598320001901000015172200019MAX ENERGY             PTN           MMR11005201053590026640520000000000000000   10300001 00104100000000000960000000000000     
100   95050319006804440000000000002900000000002900002000000010410405201236240011306317670520214019001130   1030000500030000   531120155803000045311201558GAMONE PWINT           PTN           MMR11005201236240011300520000000000000000   10300001 00104100000000000696000000000000     
100   95050315158357300000000000011649000000011649002000000010410405200913140005519573200520214015000551   1030000500030000   531120155712000045311201557GAMONE PWINT           PTN           MMR11005200913140005510520000000000000000   10300001 00104100000000002796000000000000     
100   62911028202792960000000000065886000000065886002000000010410405201032090015134369000520214017001513   1030000500030000   598320001602000015172200016MAX ENERGY             PTN           MMR11005201032090015130520000000000000000   10300001 00104100000000001977000000000000     
100   62911028202112400000000000028000000000028000002000000010410405201029050021504369000520214016002150   1030000500030000   598320001203000015172200012MAX ENERGY             PTN           MMR11005201029050021500520000000000000000   10300001 00104100000000000840000000000000     
100   62911028202162640000000000020000000000020000002000000010410405200134280028934369000520214008002893   1030000500030000   598320001902000015172200019MAX ENERGY             PTN           MMR11005200134280028930520000000000000000   10300001 00104100000000000600000000000000     
100   62911028202232860000000000057500000000057500002000000010410405200310360001874369000520214009000187   1030000500030000   541120183601000045411201836EASY MART-021          PTN           MMR11005200310360001870520000000000000000   10300001 00104100000000003450000000000000     
100   62911028202703370000000000040000000000040000002000000010410405200857240024784369000520214015002478   1030000500030000   598320001404000015172200014MAX ENERGY             PTN           MMR11005200857240024780520000000000000000   10300001 00104100000000001200000000000000     
100   62911028202792960000000000048846000000048846002000000010410405201307290010964369000520214019001096   1030000500030000   581220146401013205812201464THAI 47 (HELPIN BRANCH PTN           MMR11005201307290010960520000000000000000   10300001 00104100000000004982000000000000     
100   95050324154190880000000000017000000000017000002000000010410405200151330016069905510520214008001606   1030000500030000   598320002102000015172200021MAX ENERGY             PTN           MMR11005200151330016060520000000000000000   10300001 00104100000000002040000000000000     
100   62911028202313470000000000050000000000050000002000000010410405200208060013804369000520214008001380   1030000500030000   598320001601000015172200016MAX ENERGY             PTN           MMR11005200208060013800520000000000000000   10300001 00104100000000001500000000000000     
100   62911028202440680000000000037975000000037975002000000010410405201134090021154369000520214018002115   1030000500030000   598320001202000015172200012MAX ENERGY             PTN           MMR11005201134090021150520000000000000000   10300001 00104100000000001139000000000000     
100   62911028202223200000000000013500000000013500002000000010410405201013060007014369000520214016000701   1030000500030000   573220039601000065732200396REMAX                  PTN           MMR11005201013060007010520000000000000000   10300001 00104100000000000810000000000000     
100   62911028202792960000000000088623000000088623002000000010410405200645540014184369000520214013001418   1030000500030000   598320001601000015172200016MAX ENERGY             PTN           MMR11005200645540014180520000000000000000   10300001 00104100000000002659000000000000     
100   62911028202789750000000000060000000000060000002000000010410405200021230005024369000520214006000502   1030000500030000   806220046404006308062200464ASIA ROYAL HOSPITAL    PTN           MMR11005200021230005020520000000000000000   10300001 00104100000000003600000000000000     
100   95050325141379530000000000075000000000075000002000000010410405201132330013614821590520214018001361   1030000500030000   598320041902000055983200419MAX ENERGY             PTN           MMR11005201132330013610520000000000000000   10300001 00104100000000009000000000000000     
100   62911028202286990000000000040000000000040000002000000010410405200721520024684369000520214013002468   1030000500030000   598320001302000015172200013MAX ENERGY             PTN           MMR11005200721520024680520000000000000000   10300001 00104100000000001200000000000000     
100   62911028202312890000000000034000000000034000002000000010410405200413310014214369000520214010001421   1030000500030000   598320001604000015172200016MAX ENERGY             PTN           MMR11005200413310014210520000000000000000   10300001 00104100000000001020000000000000     
100   95050315690875920000000000023500000000023500002000000010410405200816100001189238530520214014000118   1030000500030000   481220139101000064812201391SERVICE CHANNEL MOBILE PTN           MMR11005200816100001180520000000000000000   10300001 00104100000000005640000000000000     
100   62911028202031710000000000030000000000030000002000000010410405200341060017514369000520214010001751   1030000500030000   598320002702000015172200027MAX ENERGY             PTN           MMR11005200341060017510520000000000000000   10300001 00104100000000000900000000000000     
100   62911028202027440000000000186000000000186000002000000010410405200854160001794369000520214015000179   1030000500030000   531120201603000085311202016STJ BLAZON             PTN           MMR11005200854160001790520000000000000000   10300001 00104100000000011160000000000000     
100   62911028202161240000000000030000000000030000002000000010410405200648430002184369000520214013000218   1030000500030000   598320005202000015172200052MAX ENERGY             PTN           MMR11005200648430002180520000000000000000   10300001 00104100000000000900000000000000     
100   95050311779172060000000000158400000000158400002000000010410405201203083490840034340520214019349084   1040001600030000   581420000076000000010000074Hot Pot City Ahlone    Yangon        MMR11005201203083490840520000000000000000   10300001F00104100000000019008000000000000     
100   62911028202207040000000000018200000000018200002000000010410405210441063902974369000521214111390297   1040001600030000   591220000276000000010000264Shwe Ohh Pharmacy (YGH Yangon        MMR11005210441063902970521000000000000000   10300001F00104100000000001092000000000000     
100   95050318694773110000000000050000000000050000002000000010410405210014014401544750280521000007201794   1030000200030000   3338000100012031040000040022C2P (Myanmar) Co. Ltd Yangon        MMR11005210014014401540521000000000000000   10300001F05104100000000010500000000000000     
100   62443100330108240000000000004900000000004900002000000010410405211421485148251659240521000007204785   1020000200030000   333400010001204104000000281Myanmar Soft-Gate Tech Yangon        MMR11005211421485148250521000000000000000   10300001F05104100000000001029000000000000     
100   95050327192897240000000000000980000000000980002000000010410405211227535753562084720521000007204372   1020000200030000   333400010001204104000000281Myanmar Soft-Gate Tech Yangon        MMR11005211227535753560521000000000000000   10300001F05104100000000000206000000000000     
100   95050311959900780000000000001960000000001960002000000010410405211206533653513907400521000007204293   1020000200030000   333400010001204104000000281Myanmar Soft-Gate Tech Yangon        MMR11005211206533653510521000000000000000   10300001F05104100000000000412000000000000     
100   95050323233042810000000000030000000000030000002000000010410405211208413841078864850521000007204301   1030000200030000   333800010001203104000003327KBZPay                 Yangon        MMR11005211208413841070521000000000000000   10300001F05104100000000006300000000000000     
100   95050312224678430000000000004900000000004900002000000010410405210808183818732381380521000007203453   1020000200030000   333400010001204104000000281Myanmar Soft-Gate Tech Yangon        MMR11005210808183818730521000000000000000   10300001F05104100000000001029000000000000     
100   95030374458345210000000001237500000001237500002000000010410405210912534055634369000521214116405563   1040001600030000   829920000997000000010000727Institute of Internati Ygn           MMR11005210912534055630521000000000000000   10300001F00104100000000074250000000000000     
100   95050328570548980000000000023000000000023000002000000010410405210312498954114956130521946420949140   1030000900030000   581219001454190110000001058PH Bakery              YANGON        MMR11005210312498954110521000000000000000   10300001F00104100000000009775000000000000     
