100   95030393174848800000000000065544000000065544002000000010410405220507051945344369000522535431145141   1030000500030000   555610110562104519000009163City Mart Ayeyarwon Br nch           MMR11005220507051945340522000000000000000   10300001 00104100000000003933000000000000     
100   62911028202471860000000000015800000000015800002000000010410405220750481966664369000522920201425141   1030000500030000   555610112983104519000011143Market Place by City M rt Sule       MMR11005220750481966660522000000000000000   10300001 00104100000000000948000000000000     
100   95050312240830690000000000004900000000004900002000000010410405221135290529697942580522000007207526   1020000200030000   333400010001204104000000281Myanmar Soft-Gate Tech Yangon        MMR11005221135290529690522000000000000000   10300001F05104100000000001029000000000000     
100   95050310427855490000000000001960000000001960002000000010410405221442141214420750760522000007208114   1020000200030000   333400010001204104000000281Myanmar Soft-Gate Tech Yangon        MMR11005221442141214420522000000000000000   10300001F05104100000000000412000000000000     
100   62443100333488440000000000027000000000027000002000000010410405220311431930835609330522074410940141   1030000500030000   555610115772104519000013506MarketplaceMyanmarPlaz Branch        MMR11005220311431930830522000000000000000   10300001 00104100000000006750000000000000     
100   95050316736513170000000000000980000000000980002000000010410405220538230823813276070522000007206351   1020000200030000   333400010001204104000000281Myanmar Soft-Gate Tech Yangon        MMR11005220538230823810522000000000000000   10300001F05104100000000000206000000000000     
100   62443100333488440000000000094605000000094605002000000010410405220400291935865268940522552291059141   1030000500030000   555610115765104519000013506MarketplaceMyanmarPlaz Branch        MMR11005220400291935860522000000000000000   10300001 00104100000000023652000000000000     
100   95050314365758940000000000009312000000009312002000000010410405221151012002415963500522014261852141   1030000500030000   555610120947104519000017714City Mart Yuzana Dagon Seikkan       MMR11005221151012002410522000000000000000   10300001 00104100000000002328000000000000     
100   95050314365758940000000000007800000000007800002000000010410405221118231997612985130522485511749141   1030000500030000   555610120948104519000017714City Mart Yuzana Dagon Seikkan       MMR11005221118231997610522000000000000000   10300001 00104100000000001950000000000000     
100   95050317100052460000000000020000000000020000002000000010410405220240101010634198340522000007205662   1030000200030000   333800010001203104000003327KBZPay                 Yangon        MMR11005220240101010630522000000000000000   10300001F05104100000000004200000000000000     
100   95050324622440820000000000053907000000053907002000000010410405220331381933138914290522277051023141   1030000500030000   555610110595104519000009166City Mart 47 Branch                  MMR11005220331381933130522000000000000000   10300001 00104100000000013477000000000000     
100   95050314996291580000000000001960000000001960002000000010410405221244121412316133690522000007207732   1020000200030000   333400010001204104000000281Myanmar Soft-Gate Tech Yangon        MMR11005221244121412310522000000000000000   10300001F05104100000000000412000000000000     
100   95050315158357300000000000005000000000005000002000000010410405221442311231282403240522000007208111   1030000200030000   333800010001203104000003327KBZPay                 Yangon        MMR11005221442311231280522000000000000000   10300001F05104100000000001050000000000000     
100   62911028202443730000000000053559000000053559002000000010410405220428221939654369000522917591002141   1030000500030000   555610112231104519000010487Ocean Super Center St  ohn           MMR11005220428221939650522000000000000000   10300001 00104100000000003214000000000000     
100   62911028202665580000000000118700000000118700002000000010410405220618251953764369000522469471231141   1030000300030000   555510124685104519000020166Makro Myanmar                        MMR11005220618251953760522000000000000000   10300001 00104100000000007122000000000000     
100   62911028202807400000000000055600000000055600002000000010410405220924511980074369000522419541513141   1030000300030000   555510125126104519000020166Makro Myanmar                        MMR11005220924511980070522000000000000000   10300001 00104100000000003336000000000000     
100   62911028202154640000000000150000000000150000002000000010410405220943081983234369000522783131649141   1030000300030000   555510124690104519000020166Makro Myanmar                        MMR11005220943081983230522000000000000000   10300001 00104100000000009000000000000000     
100   62443100372718280000000000044500000000044500002000000010410405220811050357398269170522000747356085   1030000200030000   541188001025000008000000298KBZ BANK               CITY MART - M MMR11005220811050357390522000000000000000   10300001 00104100000000011125000000000000     
100   95050312498129060000000000000980000000000980002000000010410405220545011501939886000522000007206375   1020000200030000   333400010001204104000000281Myanmar Soft-Gate Tech Yangon        MMR11005220545011501930522000000000000000   10300001F05104100000000000206000000000000     
100   95050312498129060000000000000980000000000980002000000010410405220849411941347055970522000007206983   1020000200030000   333400010001204104000000281Myanmar Soft-Gate Tech Yangon        MMR11005220849411941340522000000000000000   10300001F05104100000000000206000000000000     
100   95050316896526710000000000010000000000010000002000000010410405221535020502193460050522000007208257   1030000200030000   333800010001203104000003327KBZPay                 Yangon        MMR11005221535020502190522000000000000000   10300001F05104100000000002100000000000000     
100   62443100383487320000000000051259000000051259002000000010410405220650231958524176480522997201311141   1030000500030000   555610112233104519000010487Ocean Super Center St  ohn           MMR11005220650231958520522000000000000000   10300001 00104100000000012815000000000000     
100   62911028202166940000000000009150000000009150002000000010410405221202402002954369000522071311843141   1030000300030000   444410125394104519000021221Myanmar Bakery CoLtd                 MMR11005221202402002950522000000000000000   10300001 00104100000000000933000000000000     
100   62911028202668140000000000062132000000062132002000000010410405221114181996504369000522346441709141   1030000500030000   555610104020104519000003821City Mart North Point  enter         MMR11005221114181996500522000000000000000   10300001 00104100000000003728000000000000     
100   95030367537085740000000000000980000000000980002000000010410405220633360336054369000522000007206566   1020000200030000   333400010001204104000000281Myanmar Soft-Gate Tech Yangon        MMR11005220633360336050522000000000000000   10300001F05104100000000000206000000000000     
100   62911028202662690000000000028600000000028600002000000010410405220733481964324369000522662021451141   1030000300030000   555510125254104519000021109Pearl Mart                           MMR11005220733481964320522000000000000000   10300001 00104100000000001716000000000000     
100   62443100399918110000000000000980000000000980002000000010410405220423475347813786650522000007206062   1020000200030000   333400010001204104000000281Myanmar Soft-Gate Tech Yangon        MMR11005220423475347810522000000000000000   10300001F05104100000000000206000000000000     
100   95050313411345710000000000005000000000005000002000000010410405220526295629306751230522000007206321   1030000200030000   333800010001203104000003327KBZPay                 Yangon        MMR11005220526295629300522000000000000000   10300001F05104100000000001050000000000000     
100   95050323233042810000000000002940000000002940002000000010410405221007343734573410610522000007207228   1020000200030000   333400010001204104000000281Myanmar Soft-Gate Tech Yangon        MMR11005221007343734570522000000000000000   10300001F05104100000000000617000000000000     
100   95050314931885730000000000000980000000000980002000000010410405221152332233624396110522000007207581   1020000200030000   333400010001204104000000281Myanmar Soft-Gate Tech Yangon        MMR11005221152332233620522000000000000000   10300001F05104100000000000206000000000000     
100   95050319928585020000000000001960000000001960002000000010410405220414224422031793780522000007206003   1020000200030000   333400010001204104000000281Myanmar Soft-Gate Tech Yangon        MMR11005220414224422030522000000000000000   10300001F05104100000000000412000000000000     
100   95050312160676580000000000000980000000000980002000000010410405221128165816001247550522000007207500   1020000200030000   333400010001204104000000281Myanmar Soft-Gate Tech Yangon        MMR11005221128165816000522000000000000000   10300001F05104100000000000206000000000000     
100   95030337100000390000000000272500000000272500002000000010410405220513399208574369000522816431139141   1030000900030000   541119000375190110000000178Pro (1) Global (East D YANGONMYOTHIT MMR11005220513399208570522000000000000000   10300001F00104100000000016350000000000000     
100   95050317338786370000000000021000000000021000002000000010410405221151532153919353560522000007207579   1030000200030000   333800010001203104000003327KBZPay                 Yangon        MMR11005221151532153910522000000000000000   10300001F05104100000000004410000000000000     
100   95050328082468580000000000010000000000010000002000000010410405221357302730714140820522000007207976   1030000200030000   333800010001203104000003327KBZPay                 Yangon        MMR11005221357302730710522000000000000000   10300001F05104100000000002100000000000000     
100   95050327192897240000000000000980000000000980002000000010410405221517574757155708210522000007208217   1020000200030000   333400010001204104000000281Myanmar Soft-Gate Tech Yangon        MMR11005221517574757150522000000000000000   10300001F05104100000000000206000000000000     
100   95050311419479170000000000001960000000001960002000000010410405221327295729163800440522000007207859   1020000200030000   333400010001204104000000281Myanmar Soft-Gate Tech Yangon        MMR11005221327295729160522000000000000000   10300001F05104100000000000412000000000000     
100   62911028202132460000000000012000000000012000002000000010410405220625549224214369000522956551254141   1030000900030000   591219000609190110000000449Shwe Ohh Pharmacy St-3 YANGONAUNG    MMR11005220625549224210522000000000000000   10300001F00104100000000000720000000000000     
100   95050314641725490000000000100000000000100000002000000010410405221459232923987360700522000007208157   1030000200030000   333800010001203104000003327KBZPay                 Yangon        MMR11005221459232923980522000000000000000   10300001F05104100000000021000000000000000     
100   62911028202448030000000000009130000000009130002000000010410405220520424590144369000522214212459014   1040001600030000   581420000803000000010000579Jeff's Kitchen (Ahlone Yangon        MMR11005220520424590140522000000000000000   10300001F00104100000000000274000000000000     
100   95050313640946520000000000063500000000063500002000000010410405211016340002644423690521214116000264   1030000500030000   531120155807000045311201558GAMONE PWINT           PTN           MMR11005211016340002640521000000000000000   10300001 00104100000000015240000000000000     
100   95050323282717740000000000009500000000009500002000000010410405210643550005939501890521214113000593   1030000500030000   531120155712000045311201557GAMONE PWINT           PTN           MMR11005210643550005930521000000000000000   10300001 00104100000000002280000000000000     
100   62443100379321630000000000075000000000075000002000000010410405211422270003663311720521214120000366   1030000500030000   598320088701005405983200887PT POWER TRADING CO. L PTN           MMR11005211422270003660521000000000000000   10300001 00104100000000009000000000000000     
100   62443100323428970000000000017650000000017650002000000010410405211113580003257218080521000346198711   1030000300030000   541100001628000000000001151CB BANK                ONE STOP SUPE MMR11005211113580003250521000000000000000   10300001F00104100000000004413000000000000     
100   62911028202594880000000000118850000000118850002000000010410405210844170008084369000521214115000808   1030000500030000   503920036606000015039200366PRO-1 HOME CENTER      PTN           MMR11005210844170008080521000000000000000   10300001 00104100000000007131000000000000     
100   62911028202193830000000000057532000000057532002000000010410405210531110014964369000521214112001496   1030000500030000   598320001601000015172200016MAX ENERGY             PTN           MMR11005210531110014960521000000000000000   10300001 00104100000000001726000000000000     
100   95050326511614440000000000050000000000050000002000000010410405210624310022062551570521214112002206   1030000500030000   598320001202000015172200012MAX ENERGY             PTN           MMR11005210624310022060521000000000000000   10300001 00104100000000006000000000000000     
100   95050315345734110000000000036000000000036000002000000010410405211006000008519466240521214116000851   1030000500030000   531120156003000045311201560GAMONE PWINT           PTN           MMR11005211006000008510521000000000000000   10300001 00104100000000008640000000000000     
100   62911028202668140000000000066000000000066000002000000010410405221027274783564369000522214217478356   1040001600030000   598320001127000000010000608Terminal Petrol Statio Yangon        MMR11005221027274783560522000000000000000   10300001F00104100000000001980000000000000     
100   62443100399918110000000000002940000000002940002000000010410405220421325132503871740522000007206053   1020000200030000   333400010001204104000000281Myanmar Soft-Gate Tech Yangon        MMR11005220421325132500522000000000000000   10300001F05104100000000000617000000000000     
100   95050318057347910000000000009800000000009800002000000010410405221102423242929680160522000007207419   1020000200030000   333400010001204104000000281Myanmar Soft-Gate Tech Yangon        MMR11005221102423242920522000000000000000   10300001F05104100000000002058000000000000     
100   95050327192897240000000000000980000000000980002000000010410405221521355135095623120522000007208227   1020000200030000   333400010001204104000000281Myanmar Soft-Gate Tech Yangon        MMR11005221521355135090522000000000000000   10300001F05104100000000000206000000000000     
100   62911028202773650000000000010000000000010000002000000010410405221224055405464369000522000007207679   1030000200030000   333800010001203104000003327KBZPay                 Yangon        MMR11005221224055405460522000000000000000   10300001F05104100000000002100000000000000     
100   62443100376865460000000000045500000000045500002000000010410405220424009198932134170522110541000141   1030000900030000   573219001178190110000000934UNIQUE Pansodan        YANGONADA     MMR11005220424009198930522000000000000000   10300001F00104100000000010920000000000000     
100   95030337100000390000000000013000000000013000002000000010410405220523319210754369000522975531131141   1030000900030000   541119000288190110000000178Pro (1) Global (East D YANGONMYOTHIT MMR11005220523319210750522000000000000000   10300001F00104100000000000780000000000000     
100   62911028202011260000000000050000000000050000002000000010410405220309023902274369000522000007205767   1030000200030000   333800010001203104000003327KBZPay                 Yangon        MMR11005220309023902270522000000000000000   10300001F05104100000000010500000000000000     
100   62911028202909880000000000021500000000021500002000000010410405211135390007694369000521214118000769   1030000500030000   531120156005000045311201560GAMONE PWINT           PTN           MMR11005211135390007690521000000000000000   10300001 00104100000000001290000000000000     
100   95050324411430900000000000154000000000154000002000000010410405210812450003723438190521214114000372   1030000500030000   481220073201005904812200732TECHNOLAND COMPUTER TR PTN           MMR11005210812450003720521000000000000000   10300001 00104100000000036960000000000000     
100   62911028202655010000000000038000000000038000002000000010410405210721530016034369000521214113001603   1030000500030000   598320001603000015172200016MAX ENERGY             PTN           MMR11005210721530016030521000000000000000   10300001 00104100000000001140000000000000     
100   62911028202169750000000000007800000000007800002000000010410405210501010000494369000521214111000049   1030000500030000   503920036609000015039200366PRO-1 HOME CENTER      PTN           MMR11005210501010000490521000000000000000   10300001 00104100000000000468000000000000     
100   95050316901496590000000000005950000000005950002000000010410405210506090001533402540521214111000153   1030000500030000   541120045801009205411200458126 STORE              PTN           MMR11005210506090001530521000000000000000   10300001 00104100000000001488000000000000     
100   62911028202117940000000000050000000000050000002000000010410405210252340015704369000521214109001570   1030000500030000   598320001603000015172200016MAX ENERGY             PTN           MMR11005210252340015700521000000000000000   10300001 00104100000000001500000000000000     
100   62911028202318180000000000032400000000032400002000000010410405211211410003184369000521214118000318   1030000500030000   541120065701000015411200657SHOP & SHOP CONVENIENC PTN           MMR11005211211410003180521000000000000000   10300001 00104100000000001944000000000000     
100   62911028202331290000000000015000000000015000002000000010410405210933170002614369000521214116000261   1030000500030000   531120155807000045311201558GAMONE PWINT           PTN           MMR11005210933170002610521000000000000000   10300001 00104100000000000900000000000000     
100   95050319161596230000000000000980000000000980002000000010410405221202063206272658530522000007207615   1020000200030000   333400010001204104000000281Myanmar Soft-Gate Tech Yangon        MMR11005221202063206270522000000000000000   10300001F05104100000000000206000000000000     
100   95050316717221100000000000000980000000000980002000000010410405220555582558234247780522000007206425   1020000200030000   333400010001204104000000281Myanmar Soft-Gate Tech Yangon        MMR11005220555582558230522000000000000000   10300001F05104100000000000206000000000000     
100   62911028202788350000000000010000000000010000002000000010410405211854032403904369000522000007205259   1030000200030000   333800010001203104000003327KBZPay                 Yangon        MMR11005211854032403900522000000000000000   10300001F05104100000000002100000000000000     
100   95050315330275830000000000000980000000000980002000000010410405221316274627333885540522000007207820   1020000200030000   333400010001204104000000281Myanmar Soft-Gate Tech Yangon        MMR11005221316274627330522000000000000000   10300001F05104100000000000206000000000000     
100   95030301100121270000000000006100000000006100002000000010410405220827214704514369000522214215470451   1040001600030000   581420000098000000010000094Cha Tra Mue (Pinlon)   Yangon        MMR11005220827214704510522000000000000000   10300001F00104100000000000183000000000000     
100   95030301100119050000000000005000000000005000002000000010410405221117304730864369000522000007207462   1030000200030000   333800010001203104000003327KBZPay                 Yangon        MMR11005221117304730860522000000000000000   10300001F05104100000000001050000000000000     
100   95050322990383760000000000046750000000046750002000000010410405220948484754816545380522214216475481   1040001600030000   591220000043000000010000041Mingalar Pharmacy      Yangon        MMR11005220948484754810522000000000000000   10300001F00104100000000011220000000000000     
100   95030301100126550000000000014950000000014950002000000010410405220626389224474369000522976561238141   1030000900030000   571219001537190110000001113Pro 1 Plus Store-2     YANGONADON    MMR11005220626389224470522000000000000000   10300001F00104100000000000897000000000000     
100   62911028202404050000000000034500000000034500002000000010410405210553450001254369000521214112000125   1030000500030000   569120116201000405691201162AMERICAN COLLECTION (J PTN           MMR11005210553450001250521000000000000000   10300001 00104100000000002070000000000000     
100   62911028202156540000000000075000000000075000002000000010410405210523310001984369000521214111000198   1030000500030000   806220046402006308062200464ASIA ROYAL HOSPITAL    PTN           MMR11005210523310001980521000000000000000   10300001 00104100000000004500000000000000     
100   95030301100122420000000000010450000000010450002000000010410405210716570001254369000521214113000125   1030000500030000   531120155710000045311201557GAMONE PWINT           PTN           MMR11005210716570001250521000000000000000   10300001 00104100000000000627000000000000     
100   95030398701797940000000000009900000000009900002000000010410405211250390007484369000521214119000748   1030000500030000   531120155714000045311201557GAMONE PWINT           PTN           MMR11005211250390007480521000000000000000   10300001 00104100000000000594000000000000     
100   95050324411430900000000000020000000000020000002000000010410405210905280015574849170521214115001557   1030000500030000   598320001604000015172200016MAX ENERGY             PTN           MMR11005210905280015570521000000000000000   10300001 00104100000000002400000000000000     
100   95050316901496590000000000005000000000005000002000000010410405210951150001591203820521214116000159   1030000500030000   541120045801009205411200458126 STORE              PTN           MMR11005210951150001590521000000000000000   10300001 00104100000000001250000000000000     
100   62443100378093870000000000056459000000056459002000000010410405210751120005170813990521214114000517   1030000500030000   581220024101000015812200241SHWE LAR HOT POT       PTN           MMR11005210751120005170521000000000000000   10300001 00104100000000023995000000000000     
100   62443100323428970000000000033950000000033950002000000010410405211112440015807303180521000346198564   1030000300030000   541100001625000000000001151CB BANK                ONE STOP SUPE MMR11005211112440015800521000000000000000   10300001F00104100000000008488000000000000     
100   95050310427855490000000000000980000000000980002000000010410405211757512751571914530522000007205205   1020000200030000   333400010001204104000000281Myanmar Soft-Gate Tech Yangon        MMR11005211757512751570522000000000000000   10300001F05104100000000000206000000000000     
100   95050315099113150000000000001960000000001960002000000010410405221317404740335538020522000007207824   1020000200030000   333400010001204104000000281Myanmar Soft-Gate Tech Yangon        MMR11005221317404740330522000000000000000   10300001F05104100000000000412000000000000     
100   95030314001421450000000000014950000000014950002000000010410405220624099223724369000522918541209141   1030000900030000   571219001537190110000001113Pro 1 Plus Store-2     YANGONADON    MMR11005220624099223720522000000000000000   10300001F00104100000000000897000000000000     
100   95050317376014640000000000001960000000001960002000000010410405220159472947308184080522000007205567   1020000200030000   333400010001204104000000281Myanmar Soft-Gate Tech Yangon        MMR11005220159472947300522000000000000000   10300001F05104100000000000412000000000000     
100   95030318100002710000000000010000000000010000002000000010410405220410114011724369000522000007206002   1030000200030000   333800010001203104000003327KBZPay                 Yangon        MMR11005220410114011720522000000000000000   10300001F05104100000000002100000000000000     
100   95050325455962190000000000014700000000014700002000000010410405220927485748498963730522000007207086   1020000200030000   333400010001204104000000281Myanmar Soft-Gate Tech Yangon        MMR11005220927485748490522000000000000000   10300001F05104100000000003087000000000000     
100   95050312498129060000000000000980000000000980002000000010410405221226115611847956370522000007207687   1020000200030000   333400010001204104000000281Myanmar Soft-Gate Tech Yangon        MMR11005221226115611840522000000000000000   10300001F05104100000000000206000000000000     
100   95050314160856250000000000000980000000000980002000000010410405220619424942974588170522000007206501   1020000200030000   333400010001204104000000281Myanmar Soft-Gate Tech Yangon        MMR11005220619424942970522000000000000000   10300001F05104100000000000206000000000000     
100   62911028202110420000000000076000000000076000002000000010410405210553330021744369000521214112002174   1030000500030000   598320001102000015172200011MAX ENERGY             PTN           MMR11005210553330021740521000000000000000   10300001 00104100000000002280000000000000     
100   62911028202448030000000000026368000000026368002000000010410405211652270005944369000521000747335936   1030000200030000   599588000841000008000004656KBZ BANK               MY PET STORE  MMR11005211652270005940521000000000000000   10300001 00104100000000001582000000000000     
100   62911028202193830000000000073000000000073000002000000010410405210942360015664369000521214116001566   1030000500030000   598320001604000015172200016MAX ENERGY             PTN           MMR11005210942360015660521000000000000000   10300001 00104100000000002190000000000000     
100   95050328384000040000000000052000000000052000002000000010410405210957320018542771200521214116001854   1030000500030000   598320002101000015172200021MAX ENERGY             PTN           MMR11005210957320018540521000000000000000   10300001 00104100000000006240000000000000     
100   62911028202150190000000000050000000000050000002000000010410405210532130023654369000521214112002365   1030000500030000   598320001301000015172200013MAX ENERGY             PTN           MMR11005210532130023650521000000000000000   10300001 00104100000000001500000000000000     
100   62911028202448030000000000120000000000120000002000000010410405210529140021974369000521214111002197   1030000500030000   598320001202000015172200012MAX ENERGY             PTN           MMR11005210529140021970521000000000000000   10300001 00104100000000003600000000000000     
100   62443100306416880000000000029016000000029016002000000010410405211218110026492169820521214118002649   1030000500030000   598320001304000015172200013MAX ENERGY             PTN           MMR11005211218110026490521000000000000000   10300001 00104100000000003482000000000000     
100   95030390626214130000000000027900000000027900002000000010410405210438290056614369000521000346148044   1030000300030000   806200000197000000000000097CB BANK                AUNG YADANA H MMR11005210438290056610521000000000000000   10300001F00104100000000001674000000000000     
100   62443100333488440000000000086500000000086500002000000010410405220649319231762438890522563191331141   1030000900030000   541119000546190110000000394Super One ShoppingMall YANGON        MMR11005220649319231760522000000000000000   10300001F00104100000000021625000000000000     
100   95050323233042810000000000001960000000001960002000000010410405220513494349723190970522000007206272   1020000200030000   333400010001204104000000281Myanmar Soft-Gate Tech Yangon        MMR11005220513494349720522000000000000000   10300001F05104100000000000412000000000000     
100   95050314791376690000000000005880000000005880002000000010410405221011324132740105640522000007207241   1020000200030000   333400010001204104000000281Myanmar Soft-Gate Tech Yangon        MMR11005221011324132740522000000000000000   10300001F05104100000000001235000000000000     
100   95030337100000390000000000023950000000023950002000000010410405220502199206414369000522661321119141   1030000900030000   541119000376190110000000178Pro (1) Global (East D YANGONMYOTHIT MMR11005220502199206410522000000000000000   10300001F00104100000000001437000000000000     
100   95050324250133010000000000020000000000020000002000000010410405212334324439965219500522214206443996   1040001600030000   598320000911000000010000662MMTM - Tamwe           Ygn           MMR11005212334324439960522000000000000000   10300001F00104100000000002400000000000000     
100   95050327416134790000000000002940000000002940002000000010410405221327525752445452920522000007207862   1020000200030000   333400010001204104000000281Myanmar Soft-Gate Tech Yangon        MMR11005221327525752440522000000000000000   10300001F05104100000000000617000000000000     
100   95050312781844250000000000001000000000001000002000000010410405221423295329022488340522000007208057   1030000200030000   3334000100012031040000040102C2P (Myanmar) Co. Ltd Yangon        MMR11005221423295329020522000000000000000   10300001F05104100000000000210000000000000     
100   95030301100126550000000000012500000000012500002000000010410405220609199220234369000522659391219141   1030000900030000   541119001513190110000001102Ocean MGDTM C-6        YANGONADON    MMR11005220609199220230522000000000000000   10300001F00104100000000000750000000000000     
100   62911028202204490000000000020000000000020000002000000010410405211132590021104369000521214118002110   1030000500030000   598320001201000015172200012MAX ENERGY             PTN           MMR11005211132590021100521000000000000000   10300001 00104100000000000600000000000000     
100   62911028202417260000000000050000000000050000002000000010410405210155090025344369000521214108002534   1030000500030000   598320001404000015172200014MAX ENERGY             PTN           MMR11005210155090025340521000000000000000   10300001 00104100000000001500000000000000     
100   62911028202231380000000000105000000000105000002000000010410405211201110025884369000521214118002588   1030000500030000   598320001401000015172200014MAX ENERGY             PTN           MMR11005211201110025880521000000000000000   10300001 00104100000000003150000000000000     
100   62443100371022130000000000031000000000031000002000000010410405211016220019619381140521214116001961   1030000500030000   598320002701000015172200027MAX ENERGY             PTN           MMR11005211016220019610521000000000000000   10300001 00104100000000003720000000000000     
100   62443100340288250000000000044000000000044000002000000010410405210134130025317714870521214108002531   1030000500030000   598320001404000015172200014MAX ENERGY             PTN           MMR11005210134130025310521000000000000000   10300001 00104100000000005280000000000000     
100   62443100328876850000000000074000000000074000002000000010410405211152530024768785470521214118002476   1030000500030000   598320001303000015172200013MAX ENERGY             PTN           MMR11005211152530024760521000000000000000   10300001 00104100000000008880000000000000     
100   95050321685338790000000000071800000000071800002000000010410405220918251979057311250522312471526141   1030000500030000   555610112252104519000010487Ocean Super Center St  ohn           MMR11005220918251979050522000000000000000   10300001 00104100000000017950000000000000     
100   95050312695033440000000000000980000000000980002000000010410405220248121812940723180522000007205674   1020000200030000   333400010001204104000000281Myanmar Soft-Gate Tech Yangon        MMR11005220248121812940522000000000000000   10300001F05104100000000000206000000000000     
100   95050312498129060000000000004900000000004900002000000010410405220700223022320701320522000007206655   1020000200030000   333400010001204104000000281Myanmar Soft-Gate Tech Yangon        MMR11005220700223022320522000000000000000   10300001F05104100000000001029000000000000     
100   95050327192897240000000000000980000000000980002000000010410405221450382038107445790522000007208135   1020000200030000   333400010001204104000000281Myanmar Soft-Gate Tech Yangon        MMR11005221450382038100522000000000000000   10300001F05104100000000000206000000000000     
100   95050315743141220000000000002940000000002940002000000010410405221500013001229013180522000007208167   1020000200030000   333400010001204104000000281Myanmar Soft-Gate Tech Yangon        MMR11005221500013001220522000000000000000   10300001F05104100000000000617000000000000     
100   95050320205194540000000000108300000000108300002000000010410405220517414588419800910522214212458841   1040001600030000   591220000288000000010000276Shwe Ohh Pharmacy (Nor Yangon        MMR11005220517414588410522000000000000000   10300001F00104100000000025992000000000000     
100   95050327192897240000000000000980000000000980002000000010410405221519444944393970630522000007208221   1020000200030000   333400010001204104000000281Myanmar Soft-Gate Tech Yangon        MMR11005221519444944390522000000000000000   10300001F05104100000000000206000000000000     
100   95050314893649800000000000002940000000002940002000000010410405221528585858862318140522000007208244   1020000200030000   333400010001204104000000281Myanmar Soft-Gate Tech Yangon        MMR11005221528585858860522000000000000000   10300001F05104100000000000617000000000000     
100   95050314641725490000000000100000000000100000002000000010410405221502203220844055730522000007208170   1030000200030000   333800010001203104000003327KBZPay                 Yangon        MMR11005221502203220840522000000000000000   10300001F05104100000000021000000000000000     
100   95050312298324450000000000001960000000001960002000000010410405221154242424626048600522000007207589   1020000200030000   333400010001204104000000281Myanmar Soft-Gate Tech Yangon        MMR11005221154242424620522000000000000000   10300001F05104100000000000412000000000000     
100   62911028202313470000000000019100000000019100002000000010410405221046264797664369000522214217479766   1040001600030000   591220000285000000010000273Shwe Ohh Pharmacy (47t Yangon        MMR11005221046264797660522000000000000000   10300001F00104100000000001146000000000000     
100   95030301100120850000000000070000000000070000002000000010410405220539510951704369000522000007206355   1030000200030000   333800010001203104000003327KBZPay                 Yangon        MMR11005220539510951700522000000000000000   10300001F05104100000000014700000000000000     
100   95050324250133010000000000048500000000048500002000000010410405221214194875444225920522214219487544   1040001600030000   569120000928000000010000675Generation Concept Sto Ygn           MMR11005221214194875440522000000000000000   10300001F00104100000000011640000000000000     
100   95050325630928770000000000000980000000000980002000000010410405220351562156185864610522000007205935   1020000200030000   333400010001204104000000281Myanmar Soft-Gate Tech Yangon        MMR11005220351562156180522000000000000000   10300001F05104100000000000206000000000000     
100   95050315345734110000000000021900000000021900002000000010410405220644489230267566540522443141348141   1030000900030000   541119001242190110000000955City Mart JS C 1       YANGONUT      MMR11005220644489230260522000000000000000   10300001F00104100000000005475000000000000     
100   95030314001421450000000000086500000000086500002000000010410405220607529219824369000522625371252141   1030000900030000   541119001513190110000001102Ocean MGDTM C-6        YANGONADON    MMR11005220607529219820522000000000000000   10300001F00104100000000005190000000000000     
100   95050311780044340000000000009800000000009800002000000010410405221528075807640665660522000007208243   1020000200030000   333400010001204104000000281Myanmar Soft-Gate Tech Yangon        MMR11005221528075807640522000000000000000   10300001F05104100000000002058000000000000     
100   95050310332595380000000000014700000000014700002000000010410405220519184918741453400522000007206291   1020000200030000   333400010001204104000000281Myanmar Soft-Gate Tech Yangon        MMR11005220519184918740522000000000000000   10300001F05104100000000003087000000000000     
100   95050318057347910000000000002940000000002940002000000010410405220205163516146531600522000007205585   1020000200030000   333400010001204104000000281Myanmar Soft-Gate Tech Yangon        MMR11005220205163516140522000000000000000   10300001F05104100000000000617000000000000     
100   95050315005801680000000000002940000000002940002000000010410405220358082808003616450522000007205962   1020000200030000   333400010001204104000000281Myanmar Soft-Gate Tech Yangon        MMR11005220358082808000522000000000000000   10300001F05104100000000000617000000000000     
100   62911028202171710000000000053800000000053800002000000010410405220255359182834369000522996250935141   1030000900030000   591219000601190110000000441Shwe Ohh Pharmacy St-3 YANGON        MMR11005220255359182830522000000000000000   10300001F00104100000000003228000000000000     
100   95050325630928770000000000000980000000000980002000000010410405220354392439530822070522000007205941   1020000200030000   333400010001204104000000281Myanmar Soft-Gate Tech Yangon        MMR11005220354392439530522000000000000000   10300001F05104100000000000206000000000000     
100   62911028202366010000000000100000000000100000002000000010410405220136104476024369000522214208447602   1040001600030000   598320000326000000010000314PT Power Petrol Statio Nay Pyi Taw   MMR11005220136104476020522000000000000000   10300001F00104100000000003000000000000000     
100   62911028202665580000000000020000000000020000002000000010410405220527599211664369000522042571159141   1030000900030000   554119000347190110000000214New Day Energy MTN     YANGONARTAUNG MMR11005220527599211660522000000000000000   10300001F00104100000000000600000000000000     
100   62911028202003590000000000015600000000015600002000000010410405220652049232574369000522622221304141   1030000900030000   541119000151190110000000083SeinGayHarParami Cente YANGON        MMR11005220652049232570522000000000000000   10300001F00104100000000000936000000000000     
100   95050316997303010000000000030000000000030000002000000010410405221059072907318112770522000007207406   1030000200030000   333800010001203104000003327KBZPay                 Yangon        MMR11005221059072907310522000000000000000   10300001F05104100000000006300000000000000     
100   62443100326436660000000000031473000000031473002000000010410405220552209216432595300522384221220141   1030000900030000   541119001207190110000000948City Mart YK C 5       YANGONAUNG    MMR11005220552209216430522000000000000000   10300001F00104100000000007869000000000000     
100   95050326948926900000000000050000000000050000002000000010410405220006543654916276310522000007205402   1030000200030000   333800010001203104000003327KBZPay                 Yangon        MMR11005220006543654910522000000000000000   10300001F05104100000000010500000000000000     
100   95050316321163940000000000000980000000000980002000000010410405221259422942981176240522000007207774   1020000200030000   333400010001204104000000281Myanmar Soft-Gate Tech Yangon        MMR11005221259422942980522000000000000000   10300001F05104100000000000206000000000000     
100   95050327192897240000000000000980000000000980002000000010410405221452502250569098270522000007208140   1020000200030000   333400010001204104000000281Myanmar Soft-Gate Tech Yangon        MMR11005221452502250560522000000000000000   10300001F05104100000000000206000000000000     
100   62911028202557750000000000015520000000015520002000000010410405221005310008464369000522000747358881   1030000200030000   541188001287000008000000472KBZ BANK               NEIGHBOURHOOD MMR11005221005310008460522000000000000000   10300001 00104100000000000931000000000000     
100   95050311121153200000000000004700000000004700002000000010410405220730190019712779280522000007206737   1030000200030000   333800010001203104000003327KBZPay                 Yangon        MMR11005220730190019710522000000000000000   10300001F05104100000000000987000000000000     
100   62443100306045460000000000200000000000200000002000000010410405220657540001699048830522000747366816   1030000200030000   809988002182000008000005785KBZ BANK               WOMEN?S CENTR MMR11005220657540001690522000000000000000   10300001 00104100000000048000000000000000     
100   95050310463864920000000000074896000000074896002000000010410405221245430027307552750522000747364795   1030000200030000   541188001462000008000000391KBZ BANK               OCEAN SUPER C MMR11005221245430027300522000000000000000   10300001 00104100000000018724000000000000     
100   95050317100052460000000000005000000000005000002000000010410405220554452445534332880522000007206416   1030000200030000   333800010001203104000003327KBZPay                 Yangon        MMR11005220554452445530522000000000000000   10300001F05104100000000001050000000000000     
100   95050315330275830000000000083000000000083000002000000010410405220439109201667006520522309091110141   1030000900030000   723019001047190110000000850Beauty Diary LDK       YANGONNGKUUN  MMR11005220439109201660522000000000000000   10300001F00104100000000019920000000000000     
100   95030301100196920000000000022500000000022500002000000010410405220925079271674369000522332551507141   1030000900030000   541119001361190110000000977Ocean PZD C 15         YANGONAUNG    MMR11005220925079271670522000000000000000   10300001F00104100000000001350000000000000     
100   95030301100121270000000000003700000000003700002000000010410405220831359258114369000522409011535141   1030000900030000   541119001273190110000000960City Mart PLST Season  YANGONMYOTHIT MMR11005220831359258110522000000000000000   10300001F00104100000000000222000000000000     
100   62911028202156540000000000025000000000025000002000000010410405210141520001794369000521214108000179   1030000500030000   806220046402006308062200464ASIA ROYAL HOSPITAL    PTN           MMR11005210141520001790521000000000000000   10300001 00104100000000001500000000000000     
100   62443100388528570000000000016500000000016500002000000010410405220255031929507758590522954260903141   1030000300030000   555510124695104519000020166Makro Myanmar                        MMR11005220255031929500522000000000000000   10300001 00104100000000003960000000000000     
100   62443100328070970000000000008200000000008200002000000010410405220856271976325318380522017271543141   1030000300030000   555510124691104519000020166Makro Myanmar                        MMR11005220856271976320522000000000000000   10300001 00104100000000001968000000000000     
100   62911028202150190000000000015750000000015750002000000010410405220944289277454369000522746141628141   1030000900030000   581219001391190110000000996King BBQ sayarsan      YANGON        MMR11005220944289277450522000000000000000   10300001F00104100000000001607000000000000     
100   95050317461467820000000000030000000000030000002000000010410405221043250000382729840522000747376797   1030000200030000   509488002507000008000006709KBZ BANK               SHWE SAN EAIN MMR11005221043250000380522000000000000000   10300001 00104100000000012000000000000000     
100   62911028202610960000000000050000000000050000002000000010410405222025440010944369000522000747383571   1030000200030000   581288000382000008000002788KBZ BANK               THE BRUNCH SO MMR11005222025440010940522000000000000000   10300001 00104100000000005100000000000000     
100   95050324247403260000000000050876000000050876002000000010410405221739550023506375190522000747378139   1030000200030000   541188001040000008000000010KBZ BANK               MARKETPLACE - MMR11005221739550023500522000000000000000   10300001 00104100000000012719000000000000     
100   62911028202692140000000000048088000000048088002000000010410405220759050023014369000522000747355871   1030000200030000   541188001040000008000000010KBZ BANK               MARKETPLACE - MMR11005220759050023010522000000000000000   10300001 00104100000000002885000000000000     
100   62911028202793040000000000030800000000030800002000000010410405220843430040604369000522000747371307   1030000200030000   569988000803000008000004614KBZ BANK               JCY-IPANEMA   MMR11005220843430040600522000000000000000   10300001 00104100000000001848000000000000     
100   95030317922148660000000000015900000000015900002000000010410405220512560032724369000522000747362368   1030000200030000   541188001627000008000000008KBZ BANK               MARKETPLACE - MMR11005220512560032720522000000000000000   10300001 00104100000000000954000000000000     
100   95030363502824520000000000001400000000001400002000000010410405221331360136024369000522000007207870   1030000200030000   333800010001203104000003327KBZPay                 Yangon        MMR11005221331360136020522000000000000000   10300001F05104100000000000294000000000000     
100   62911028202130710000000000007600000000007600002000000010410405221944410030584369000522000747382716   1030000200030000   541188001021000008000000298KBZ BANK               CITY MART - M MMR11005221944410030580522000000000000000   10300001 00104100000000000456000000000000     
100   62911028202492080000000000006500000000006500002000000010410405221100069297654369000522215301706141   1030000900030000   581219000931190110000000740Shwe Palin City Mall   YANGONAW      MMR11005221100069297650522000000000000000   10300001F00104100000000000663000000000000     
100   95050319111666800000000000000980000000000980002000000010410405220221275127953141530522000007205626   1020000200030000   333400010001204104000000281Myanmar Soft-Gate Tech Yangon        MMR11005220221275127950522000000000000000   10300001F05104100000000000206000000000000     
100   95050324947866880000000000016500000000016500002000000010410405221005019282708453160522109351601141   1030000900030000   541119001221190110000000945City Mart TM C 6       YANGONONE     MMR11005221005019282700522000000000000000   10300001F00104100000000004125000000000000     
100   62911028202423360000000000017650000000017650002000000010410405220938309275134369000522565081630141   1030000900030000   541119000282190110000000177Pro1 Global (Insein)   YANGON        MMR11005220938309275130522000000000000000   10300001F00104100000000001059000000000000     
100   62443100300743690000000000007480000000007480002000000010410405221054049295901417740522075241704141   1030000900030000   581219000981190110000000788Jo Jo Hot Pot (KTY)    YANGONARTAUNG MMR11005221054049295900522000000000000000   10300001F00104100000000003179000000000000     
100   95050313102162270000000000026700000000026700002000000010410405220835149259160360930522478051514141   1030000900030000   541119001261190110000000958City Mart PLST C 4     YANGONMYOTHIT MMR11005220835149259160522000000000000000   10300001F00104100000000006675000000000000     
100   62911028202661370000000000057200000000057200002000000010410405220952439279504369000522886221643141   1030000900030000   541119000882190110000000084Pro (1) Global (Pazund YANGONARTAUNG MMR11005220952439279500522000000000000000   10300001F00104100000000003432000000000000     
100   95050314749068520000000000002940000000002940002000000010410405220522355235794673270522000007206307   1020000200030000   333400010001204104000000281Myanmar Soft-Gate Tech Yangon        MMR11005220522355235790522000000000000000   10300001F05104100000000000617000000000000     
100   62911028202473840000000000037000000000037000002000000010410405221706230115744369000522000747376431   1030000200030000   541188001081000008000000294KBZ BANK               CITY MART - J MMR11005221706230115740522000000000000000   10300001 00104100000000002220000000000000     
100   95050321685338790000000000128150000000128150002000000010410405220734220035571041700522000747368307   1030000200030000   581288000098000008000003562KBZ BANK               CANTON PARADI MMR11005220734220035570522000000000000000   10300001 00104100000000054464000000000000     
100   62911028202793040000000000010350000000010350002000000010410405221448570079484369000522000747370207   1030000200030000   541188001062000008000000314KBZ BANK               MARKETPLACE - MMR11005221448570079480522000000000000000   10300001 00104100000000000621000000000000     
100   95030318100004530000000000039650000000039650002000000010410405221628560055134369000522000747374664   1030000200030000   541188001420000008000000401KBZ BANK               OCEAN SUPERCE MMR11005221628560055130522000000000000000   10300001 00104100000000002379000000000000     
100   62911028202743390000000000908900000000908900002000000010410405221047350027714369000522000747360256   1030000200030000   541188001452000008000000391KBZ BANK               OCEAN SUPER C MMR11005221047350027710522000000000000000   10300001 00104100000000054534000000000000     
100   62911028202693960000000000063800000000063800002000000010410405221504070105584369000522000747370907   1030000200030000   541188001246000008000000323KBZ BANK               CITY MART - I MMR11005221504070105580522000000000000000   10300001 00104100000000003828000000000000     
100   62911028202166940000000000068029000000068029002000000010410405221844190096844369000522000747380922   1030000200030000   541188001128000008000000296KBZ BANK               CITY MART - J MMR11005221844190096840522000000000000000   10300001 00104100000000004082000000000000     
100   62911028202161240000000000027964000000027964002000000010410405220926430357944369000522000747357716   1030000200030000   541188001024000008000000298KBZ BANK               CITY MART - M MMR11005220926430357940522000000000000000   10300001 00104100000000001678000000000000     
100   62911028202524260000000000015100000000015100002000000010410405221054469296094369000522087241746141   1030000900030000   591219000603190110000000443Shwe Ohh Pharmacy St-8 YANGON        MMR11005221054469296090522000000000000000   10300001F00104100000000000906000000000000     
100   62911028202467900000000000013000000000013000002000000010410405220619511954374369000522527511248141   1030000500030000   555610112532104519000010487Ocean Super Center St  ohn           MMR11005220619511954370522000000000000000   10300001 00104100000000000780000000000000     
100   62443100378093870000000000021645000000021645002000000010410405221013369284720020550522242431636141   1030000900030000   541119001206190110000000948City Mart YK C 4       YANGONAUNG    MMR11005221013369284720522000000000000000   10300001F00104100000000005412000000000000     
100   62443100384660050000000000017350000000017350002000000010410405221129089305172900030522768591708141   1030000900030000   541119001302190110000000968Ocean Mingalar MDY C 1 MANDALAYHARSI MMR11005221129089305170522000000000000000   10300001F00104100000000004338000000000000     
100   95030301100022270000000000024550000000024550002000000010410405220946469277924369000522779161646141   1030000900030000   541119001347190110000000977Ocean PZD C 1          YANGONAUNG    MMR11005220946469277920522000000000000000   10300001F00104100000000001473000000000000     
100   62911028202472440000000000036886000000036886002000000010410405221421480220614369000522000747369061   1030000200030000   541188001001000008000000008KBZ BANK               MARKETPLACE - MMR11005221421480220610522000000000000000   10300001 00104100000000002213000000000000     
100   95050317343045830000000000000980000000000980002000000010410405220356022602922474550522000007205950   1020000200030000   333400010001204104000000281Myanmar Soft-Gate Tech Yangon        MMR11005220356022602920522000000000000000   10300001F05104100000000000206000000000000     
100   95050316901496590000000000020600000000020600002000000010410405210504190001528359990521214111000152   1030000500030000   541120045801009205411200458126 STORE              PTN           MMR11005210504190001520521000000000000000   10300001 00104100000000005150000000000000     
100   62443100333488440000000000025400000000025400002000000010410405220559360032950942810522000747364121   1030000200030000   599988000601000008000003442KBZ BANK               SWEETY HOME ( MMR11005220559360032950522000000000000000   10300001 00104100000000006096000000000000     
100   95050328768121690000000000038288000000038288002000000010410405221307360037966155560522000747365654   1030000200030000   541188001511000008000000403KBZ BANK               OCEAN SUPERCE MMR11005221307360037960522000000000000000   10300001 00104100000000009572000000000000     
100   95030381424182120000000000172850000000172850002000000010410405221858310027514369000522000747381447   1030000200030000   541188001066000008000000314KBZ BANK               MARKETPLACE - MMR11005221858310027510522000000000000000   10300001 00104100000000010371000000000000     
100   95050328768121690000000000031953000000031953002000000010410405221310160037972850590522000747365942   1030000200030000   541188001511000008000000403KBZ BANK               OCEAN SUPERCE MMR11005221310160037970522000000000000000   10300001 00104100000000007989000000000000     
100   62911028202166940000000000019600000000019600002000000010410405221846160108634369000522000747380996   1030000200030000   541188001132000008000000296KBZ BANK               CITY MART - J MMR11005221846160108630522000000000000000   10300001 00104100000000001176000000000000     
100   95030315150842990000000000012900000000012900002000000010410405221123070194454369000522000747361601   1030000200030000   541188001080000008000000294KBZ BANK               CITY MART - J MMR11005221123070194450522000000000000000   10300001 00104100000000000774000000000000     
100   62911028202074950000000000002850000000002850002000000010410405220240041928104369000522807090921141   1030000500030000   555610114572104519000012532City Mart Ahlone Branc               MMR11005220240041928100522000000000000000   10300001 00104100000000000171000000000000     
100   95030314863516850000000000015000000000015000002000000010410405221348371837534369000522000007207938   1030000200030000   333800010001203104000003327KBZPay                 Yangon        MMR11005221348371837530522000000000000000   10300001F05104100000000003150000000000000     
100   95050314893649800000000000000980000000000980002000000010410405220944261426948282970522000007207150   1020000200030000   333400010001204104000000281Myanmar Soft-Gate Tech Yangon        MMR11005220944261426940522000000000000000   10300001F05104100000000000206000000000000     
100   95030393174848800000000000009200000000009200002000000010410405220434131940614369000522024051151141   1030000500030000   555610110566104519000009163City Mart Ayeyarwon Br nch           MMR11005220434131940610522000000000000000   10300001 00104100000000000552000000000000     
100   62443100300743690000000000009600000000009600002000000010410405220653391959054091380522066241304141   1030000500030000   555610124465104519000003432City Mart Junction Zaw na 1          MMR11005220653391959050522000000000000000   10300001 00104100000000002400000000000000     
100   62911028202118690000000000046050000000046050002000000010410405220934001981814369000522605051615141   1030000300030000   555510124689104519000020166Makro Myanmar                        MMR11005220934001981810522000000000000000   10300001 00104100000000002763000000000000     
100   62443100373945130000000000030350000000030350002000000010410405220940481983379850350522800141614141   1030000500030000   555610123193104519000019444Neighbourhood Shwe Moe Kaung         MMR11005220940481983370522000000000000000   10300001 00104100000000007588000000000000     
100   62911028202792960000000000024800000000024800002000000010410405220903341977084369000522109331533141   1030000500030000   555610110599104519000009166City Mart 47 Branch                  MMR11005220903341977080522000000000000000   10300001 00104100000000001488000000000000     
100   62911028202163630000000000014000000000014000002000000010410405221050451993254369000522954201749141   1030000300030000   444410125270104519000021124SP Bakery North Dagon  apital        MMR11005221050451993250522000000000000000   10300001 00104100000000001428000000000000     
100   62911028202220980000000000139300000000139300002000000010410405220213431926754369000522648420852141   1030000300030000   555510124363104519000020166Makro Myanmar                        MMR11005220213431926750522000000000000000   10300001 00104100000000008358000000000000     
100   62911028202187730000000000150000000000150000002000000010410405220306301930244369000522014350934141   1030000300030000   555510124363104519000020166Makro Myanmar                        MMR11005220306301930240522000000000000000   10300001 00104100000000009000000000000000     
100   62911028202194090000000000076300000000076300002000000010410405220240541928174369000522816100901141   1030000300030000   555510124363104519000020166Makro Myanmar                        MMR11005220240541928170522000000000000000   10300001 00104100000000004578000000000000     
100   62911028202788350000000000010000000000010000002000000010410405211647571757404369000522000007205133   1030000200030000   333800010001203104000003327KBZPay                 Yangon        MMR11005211647571757400522000000000000000   10300001F05104100000000002100000000000000     
100   95050315099113150000000000000980000000000980002000000010410405221343591359470410380522000007207918   1020000200030000   333400010001204104000000281Myanmar Soft-Gate Tech Yangon        MMR11005221343591359470522000000000000000   10300001F05104100000000000206000000000000     
100   95050321685338790000000000023000000000023000002000000010410405220919141979582353800522367511501141   1030000500030000   555610112249104519000010487Ocean Super Center St  ohn           MMR11005220919141979580522000000000000000   10300001 00104100000000005750000000000000     
100   62911028202492080000000000056000000000056000002000000010410405221148122001154369000522869171855141   1030000500030000   555610112245104519000010487Ocean Super Center St  ohn           MMR11005221148122001150522000000000000000   10300001 00104100000000003360000000000000     
100   95050325455962190000000000001960000000001960002000000010410405220938150815076630480522000007207125   1020000200030000   333400010001204104000000281Myanmar Soft-Gate Tech Yangon        MMR11005220938150815070522000000000000000   10300001F05104100000000000412000000000000     
100   95030392891915960000000000087300000000087300002000000010410405220612521953104369000522399421217141   1030000300030000   555510124358104519000020166Makro Myanmar                        MMR11005220612521953100522000000000000000   10300001 00104100000000005238000000000000     
