100   95050312675873230000000000002940000000002940002000000010410405201322295229567885060520000007200986   1020000200030000   333400010001204104000000281Myanmar Soft-Gate Tech Yangon        MMR11005201322295229560520000000000000000   10300001F05104100000000000617000000000000     
100   95050311077567400000000000024800000000024800002000000010410405201139408865749779050520938091840139   1030000900030000   541119001587190110000001157Sein Gay Har Aung San- YANGONADON    MMR11005201139408865740520000000000000000   10300001F00104100000000006200000000000000     
100   95050310178107440000000000010000000000010000002000000010410405200544091409549103990520000007197959   1030000200030000   3338000100012031040000040022C2P (Myanmar) Co. Ltd Yangon        MMR11005200544091409540520000000000000000   10300001F05104100000000002100000000000000     
100   62911028202491330000000000010750000000010750002000000010410405201353360078184369000520000747288374   1030000200030000   541188001062000008000000314KBZ BANK               MARKETPLACE - MMR11005201353360078180520000000000000000   10300001 00104100000000000645000000000000     
100   95050317343045830000000000004900000000004900002000000010410405200245281528032870090520000007196218   1020000200030000   333400010001204104000000281Myanmar Soft-Gate Tech Yangon        MMR11005200245281528030520000000000000000   10300001F05104100000000001029000000000000     
100   62911028202451150000000000034658000000034658002000000010410405200446411730004369000520766171155139   1030000500030000   555610122578104519000018896City Mart Hlaing Thar  ar            MMR11005200446411730000520000000000000000   10300001 00104100000000002079000000000000     
100   95050317003064220000000000000980000000000980002000000010410405200336020602903685400520000007196794   1020000200030000   333400010001204104000000281Myanmar Soft-Gate Tech Yangon        MMR11005200336020602900520000000000000000   10300001F05104100000000000206000000000000     
100   62911028202472440000000000023660000000023660002000000010410405201031210356314369000520000747275711   1030000200030000   541188001024000008000000298KBZ BANK               CITY MART - M MMR11005201031210356310520000000000000000   10300001 00104100000000001420000000000000     
100   62911028202451150000000000009000000000009000002000000010410405200436051728984369000520674061107139   1030000500030000   555610122586104519000018896City Mart Hlaing Thar  ar            MMR11005200436051728980520000000000000000   10300001 00104100000000000540000000000000     
100   95030301100425040000000000013900000000013900002000000010410405200928020241504369000520000747272931   1030000200030000   541188001059000008000000314KBZ BANK               MARKETPLACE - MMR11005200928020241500520000000000000000   10300001 00104100000000000834000000000000     
100   95050312498129060000000000000980000000000980002000000010410405200636270627053649750520000007198341   1020000200030000   333400010001204104000000281Myanmar Soft-Gate Tech Yangon        MMR11005200636270627050520000000000000000   10300001F05104100000000000206000000000000     
100   95030389156816320000000000025000000000025000002000000010410405200344241424354369000520000007196919   1030000200030000   333800010001203104000003327KBZPay                 Yangon        MMR11005200344241424350520000000000000000   10300001F05104100000000005250000000000000     
100   62911028202223200000000000007900000000007900002000000010410405201706370078344369000520000747298288   1030000200030000   541188001062000008000000314KBZ BANK               MARKETPLACE - MMR11005201706370078340520000000000000000   10300001 00104100000000000474000000000000     
100   62911028202692140000000000014222000000014222002000000010410405201230200284184369000520000747282870   1030000200030000   541188001042000008000000010KBZ BANK               MARKETPLACE - MMR11005201230200284180520000000000000000   10300001 00104100000000000853000000000000     
100   95050318242219520000000000000980000000000980002000000010410405200238530853996260160520000007196183   1020000200030000   333400010001204104000000281Myanmar Soft-Gate Tech Yangon        MMR11005200238530853990520000000000000000   10300001F05104100000000000206000000000000     
100   95050316818236190000000000000980000000000980002000000010410405200941391139023934980520000007200024   1020000200030000   333400010001204104000000281Myanmar Soft-Gate Tech Yangon        MMR11005200941391139020520000000000000000   10300001F05104100000000000206000000000000     
100   95050325273694860000000000003000000000003000002000000010410405200246281719802785000520752150948139   1030000500030000   555610110595104519000009166City Mart 47 Branch                  MMR11005200246281719800520000000000000000   10300001 00104100000000000750000000000000     
100   62443101065883000000000000159720000000159720002000000010410405200941480237207061680520000747273449   1030000200030000   541188001003000008000000008KBZ BANK               MARKETPLACE - MMR11005200941480237200520000000000000000   10300001 00104100000000039930000000000000     
100   62911028202401810000000000052500000000052500002000000010410405200347351724784369000520258181014139   1030000500030000   555610103464104519000003420City Mart Yankin Cente 3             MMR11005200347351724780520000000000000000   10300001 00104100000000003150000000000000     
100   62911028202557750000000000020400000000020400002000000010410405201648530070814369000520000747297583   1030000200030000   541188001286000008000000472KBZ BANK               NEIGHBOURHOOD MMR11005201648530070810520000000000000000   10300001 00104100000000001224000000000000     
100   62911028202472440000000000023158000000023158002000000010410405201100560079354369000520000747277540   1030000200030000   541188001006000008000000008KBZ BANK               MARKETPLACE - MMR11005201100560079350520000000000000000   10300001 00104100000000001389000000000000     
100   95030301100338180000000000020750000000020750002000000010410405200906281758384369000520943381514139   1030000500030000   555610110563104519000009163City Mart Ayeyarwon Br nch           MMR11005200906281758380520000000000000000   10300001 00104100000000001245000000000000     
100   95050312498129060000000000002940000000002940002000000010410405200257082708189394940520000007196291   1020000200030000   333400010001204104000000281Myanmar Soft-Gate Tech Yangon        MMR11005200257082708180520000000000000000   10300001F05104100000000000617000000000000     
100   95050312224678430000000000000980000000000980002000000010410405200348401840700635720520000007196952   1020000200030000   333400010001204104000000281Myanmar Soft-Gate Tech Yangon        MMR11005200348401840700520000000000000000   10300001F05104100000000000206000000000000     
100   95050327192897240000000000000980000000000980002000000010410405201457282728931530410520000007201296   1020000200030000   333400010001204104000000281Myanmar Soft-Gate Tech Yangon        MMR11005201457282728930520000000000000000   10300001F05104100000000000206000000000000     
100   62911028202492080000000000118400000000118400002000000010410405200132443127824369000520214008312782   1040001600030000   598320001170000000010000527Shwe Taung Energy (YGN Yangon        MMR11005200132443127820520000000000000000   10300001F00104100000000003552000000000000     
100   95050326228858240000000000067229000000067229002000000010410405201010581765922537780520837411606139   1030000500030000   555610103965104519000003818Ocean Oattara Thiri Na PyiTaw        MMR11005201010581765920520000000000000000   10300001 00104100000000016808000000000000     
100   95050317003064220000000000000980000000000980002000000010410405201358432843606147480520000007201108   1020000200030000   333400010001204104000000281Myanmar Soft-Gate Tech Yangon        MMR11005201358432843600520000000000000000   10300001F05104100000000000206000000000000     
100   62443100372702000000000001000000000001000000002000000010410405200953282328072622880520000007200140   1040001600030000   333800010001220104000004507A +                    Yangon        MMR11005200953282328070520000000000000000   10300001F05104100000000210000000000000000     
100   95050311382087030000000000000980000000000980002000000010410405200957142714764275360520000007200164   1020000200030000   333400010001204104000000281Myanmar Soft-Gate Tech Yangon        MMR11005200957142714760520000000000000000   10300001F05104100000000000206000000000000     
100   95050311931431670000000000004900000000004900002000000010410405200303083308885579390520000007196341   1020000200030000   333400010001204104000000281Myanmar Soft-Gate Tech Yangon        MMR11005200303083308880520000000000000000   10300001F05104100000000001029000000000000     
100   62911028202471600000000000060450000000060450002000000010410405200913171759174369000520041431554139   1030000500030000   555610110581104519000009164City Mart China Town P int Cen       MMR11005200913171759170520000000000000000   10300001 00104100000000003627000000000000     
100   95050312498129060000000000002940000000002940002000000010410405201351372137356232580520000007201086   1020000200030000   333400010001204104000000281Myanmar Soft-Gate Tech Yangon        MMR11005201351372137350520000000000000000   10300001F05104100000000000617000000000000     
100   95050327192897240000000000000980000000000980002000000010410405201455202520764835390520000007201289   1020000200030000   333400010001204104000000281Myanmar Soft-Gate Tech Yangon        MMR11005201455202520760520000000000000000   10300001F05104100000000000206000000000000     
100   62911028202471600000000000010300000000010300002000000010410405200917261759744369000520098491524139   1030000500030000   555610110574104519000009164City Mart China Town P int Cen       MMR11005200917261759740520000000000000000   10300001 00104100000000000618000000000000     
100   95050324154190880000000000183300000000183300002000000010410405201023352003788466940520533528328579   1040001400030000   599910000222025999100001869MAHAR SAN USA Store MA AR SAN USA St MMR11005201023352003780520000000000000000   10300001 00104100000000043992000000000000     
100   62443100374797770000000000245000000000245000002000000010410405201201063488902998920520214019348890   1040001600030000   806220000092000000010000088Dr Z Aesthetics & Dent Yangon        MMR11005201201063488900520000000000000000   10300001F00104100000000058800000000000000     
100   95050327185992630000000000071560000000071560002000000010410405201016011766943424400520954491605139   1030000500030000   555610114573104519000012532City Mart Ahlone Branc               MMR11005201016011766940520000000000000000   10300001 00104100000000017890000000000000     
100   62911028202290100000000000027600000000027600002000000010410405201007441765484369000520784371610139   1030000300030000   444410125393104519000021220Myanmar Bakery CoLtd                 MMR11005201007441765480520000000000000000   10300001 00104100000000002815000000000000     
100   95030301100118480000000000050550000000050550002000000010410405201217411780994369000520645461859139   1030000300030000   555510124687104519000020166Makro Myanmar                        MMR11005201217411780990520000000000000000   10300001 00104100000000003033000000000000     
100   95030301100319290000000000003000000000003000002000000010410405200151392139624369000520000007195984   1030000200030000   333800010001203104000003327KBZPay                 Yangon        MMR11005200151392139620520000000000000000   10300001F05104100000000000630000000000000     
100   95050312498129060000000000001960000000001960002000000010410405201258572857941360220520000007200885   1020000200030000   333400010001204104000000281Myanmar Soft-Gate Tech Yangon        MMR11005201258572857940520000000000000000   10300001F05104100000000000412000000000000     
100   62911028202696360000000000066500000000066500002000000010410405200548323248804369000520214012324880   1040001600030000   598320000830000000010000596Regency Petrol Station Ygn           MMR11005200548323248800520000000000000000   10300001F00104100000000001995000000000000     
100   95050316321163940000000000016500000000016500002000000010410405200909103910943048360520000007199675   1030000200030000   333800010001203104000003327KBZPay                 Yangon        MMR11005200909103910940520000000000000000   10300001F05104100000000003465000000000000     
100   95050315743141220000000000000980000000000980002000000010410405200902283228928090910520000007199608   1020000200030000   333400010001204104000000281Myanmar Soft-Gate Tech Yangon        MMR11005200902283228920520000000000000000   10300001F05104100000000000206000000000000     
100   95050316717221100000000000000980000000000980002000000010410405200250082008339480030520000007196256   1020000200030000   333400010001204104000000281Myanmar Soft-Gate Tech Yangon        MMR11005200250082008330520000000000000000   10300001F05104100000000000206000000000000     
100   62911028202651050000000000034320000000034320002000000010410405200709131748054369000520743031444139   1030000500030000   555610103469104519000003420City Mart Yankin Cente 8             MMR11005200709131748050520000000000000000   10300001 00104100000000002059000000000000     
100   95050315889680120000000000001000000000001000002000000010410405201149431943084651400520000007200659   1030000200030000   333800010001203104000003327KBZPay                 Yangon        MMR11005201149431943080520000000000000000   10300001F05104100000000000210000000000000     
100   95050327192897240000000000000980000000000980002000000010410405201450302030396572960520000007201277   1020000200030000   333400010001204104000000281Myanmar Soft-Gate Tech Yangon        MMR11005201450302030390520000000000000000   10300001F05104100000000000206000000000000     
100   62443100392426520000000000010000000000010000002000000010410405201301013101173012710520000007200897   1030000200030000   333800010001203104000003327KBZPay                 Yangon        MMR11005201301013101170520000000000000000   10300001F05104100000000002100000000000000     
100   62911028202170490000000000072178000000072178002000000010410405182350110021234369000519213906002123   1030000500030000   598320001401000015172200014MAX ENERGY             PTN           MMR11005182350110021230519000000000000000   10300001 00104100000000002165000000000000     
100   62443100306416880000000000030244000000030244002000000010410405191243290013975118250519213919001397   1030000500030000   598320001604000015172200016MAX ENERGY             PTN           MMR11005191243290013970519000000000000000   10300001 00104100000000003629000000000000     
100   95050320531117320000000000068000000000068000002000000010410405190246370006991448830519213909000699   1030000500030000   598320001502000015172200015MAX ENERGY             PTN           MMR11005190246370006990519000000000000000   10300001 00104100000000008160000000000000     
100   62911028202668140000000000061000000000061000002000000010410405190149570017564369000519213908001756   1030000500030000   598320001104000015172200011MAX ENERGY             PTN           MMR11005190149570017560519000000000000000   10300001 00104100000000001830000000000000     
100   62911028202421200000000000030000000000030000002000000010410405190340450018954369000519213910001895   1030000500030000   598320001701000015172200017MAX ENERGY             PTN           MMR11005190340450018950519000000000000000   10300001 00104100000000000900000000000000     
100   62911028202421200000000000035000000000035000002000000010410405190341100018964369000519213910001896   1030000500030000   598320001701000015172200017MAX ENERGY             PTN           MMR11005190341100018960519000000000000000   10300001 00104100000000001050000000000000     
100   95050320531117320000000000023625000000023625002000000010410405201041231769973764790520327121755139   1030000300030000   444410108783104519000007876The Pizza CompanyResta rant II       MMR11005201041231769970520000000000000000   10300001 00104100000000010041000000000000     
100   62911028202204560000000000015000000000015000002000000010410405201456572657044369000520000007201290   1030000200030000   333800010001203104000003327KBZPay                 Yangon        MMR11005201456572657040520000000000000000   10300001F05104100000000003150000000000000     
100   95050312498129060000000000004900000000004900002000000010410405201304283428531275130520000007200914   1020000200030000   333400010001204104000000281Myanmar Soft-Gate Tech Yangon        MMR11005201304283428530520000000000000000   10300001F05104100000000001029000000000000     
100   95050328384000040000000000150000000000150000002000000010410405201423272334558225450520532764514990   1040001400030000   581210000464025812100002920Golden Duck Restaurant (Sayarsan) nu MMR11005201423272334550520000000000000000   10300001 00104100000000063750000000000000     
100   95050316717221100000000000000980000000000980002000000010410405200248211821777827540520000007196210   1020000200030000   333400010001204104000000281Myanmar Soft-Gate Tech Yangon        MMR11005200248211821770520000000000000000   10300001F05104100000000000206000000000000     
100   95030367537085740000000000000980000000000980002000000010410405200601353135854369000520000007198079   1020000200030000   333400010001204104000000281Myanmar Soft-Gate Tech Yangon        MMR11005200601353135850520000000000000000   10300001F05104100000000000206000000000000     
100   62911028202293090000000000024200000000024200002000000010410405200638541741994369000520083081349139   1030000500030000   555610103474104519000003432City Mart Junction Zaw na 1          MMR11005200638541741990520000000000000000   10300001 00104100000000001452000000000000     
100   95050312498129060000000000005880000000005880002000000010410405200503293329433004630520000007197664   1020000200030000   333400010001204104000000281Myanmar Soft-Gate Tech Yangon        MMR11005200503293329430520000000000000000   10300001F05104100000000001235000000000000     
100   62911028202703370000000000030000000000030000002000000010410405190448540022574369000519213911002257   1030000500030000   598320001404000015172200014MAX ENERGY             PTN           MMR11005190448540022570519000000000000000   10300001 00104100000000000900000000000000     
100   95050318052625040000000000040000000000040000002000000010410405190039120013324569810519213907001332   1030000500030000   598320001602000015172200016MAX ENERGY             PTN           MMR11005190039120013320519000000000000000   10300001 00104100000000004800000000000000     
100   95030301100124570000000000041000000000041000002000000010410405182312240014544369000519213905001454   1030000500030000   598320002102000015172200021MAX ENERGY             PTN           MMR11005182312240014540519000000000000000   10300001 00104100000000001230000000000000     
100   62911028202530280000000000042000000000042000002000000010410405191232550014304369000519213919001430   1030000500030000   598320002004000015172200020MAX ENERGY             PTN           MMR11005191232550014300519000000000000000   10300001 00104100000000001260000000000000     
100   95050328074436620000000000045000000000045000002000000010410405190101560020248470440519213907002024   1030000500030000   598320001204000015172200012MAX ENERGY             PTN           MMR11005190101560020240519000000000000000   10300001 00104100000000005400000000000000     
100   62911028202651050000000000286560000000286560002000000010410405190547290001264369000519213912000126   1030000500030000   541120203401000045411202034AZAY CO. LTD           PTN           MMR11005190547290001260519000000000000000   10300001 00104100000000017194000000000000     
100   62911028202527800000000000044000000000044000002000000010410405190025270013614369000519213906001361   1030000500030000   598320001603000015172200016MAX ENERGY             PTN           MMR11005190025270013610519000000000000000   10300001 00104100000000001320000000000000     
100   95050314791376690000000000007850000000007850002000000010410405191302200000798848700519213919000079   1030000500030000   541120025201022205411200252ORANGE (80ST)          PTN           MMR11005191302200000790519000000000000000   10300001 00104100000000001963000000000000     
100   95050313640946520000000000022200000000022200002000000010410405201126123454552027200520214018345455   1040001600030000   541120000553000000010000465Ocean Shwe Gone Daing  Yangon        MMR11005201126123454550520000000000000000   10300001F00104100000000005550000000000000     
100   95050315743141220000000000000980000000000980002000000010410405200904163416696353330520000007199622   1020000200030000   333400010001204104000000281Myanmar Soft-Gate Tech Yangon        MMR11005200904163416690520000000000000000   10300001F05104100000000000206000000000000     
100   95050314557307430000000000002940000000002940002000000010410405200951012101917239950520000007200113   1020000200030000   333400010001204104000000281Myanmar Soft-Gate Tech Yangon        MMR11005200951012101910520000000000000000   10300001F05104100000000000617000000000000     
100   95030367537085740000000000001960000000001960002000000010410405200948571857014369000520000007200087   1020000200030000   333400010001204104000000281Myanmar Soft-Gate Tech Yangon        MMR11005200948571857010520000000000000000   10300001F05104100000000000412000000000000     
100   95050312498129060000000000000980000000000980002000000010410405192354432443872955190520000007195754   1020000200030000   333400010001204104000000281Myanmar Soft-Gate Tech Yangon        MMR11005192354432443870520000000000000000   10300001F05104100000000000206000000000000     
100   62443100372718280000000000021000000000021000002000000010410405200054303107526685640520214007310752   1040001600030000   598320000658000000010000527Shwe Taung Energy (YGN Yangon        MMR11005200054303107520520000000000000000   10300001F00104100000000002520000000000000     
100   62911028202520530000000000005000000000005000002000000010410405200820575057904369000520000007199209   1030000200030000   3338000100012031040000040022C2P (Myanmar) Co. Ltd Yangon        MMR11005200820575057900520000000000000000   10300001F05104100000000001050000000000000     
100   62911028202909210000000000150000000000150000002000000010410405201523485348894369000520000007201361   1030000200030000   333800010001203104000003327KBZPay                 Yangon        MMR11005201523485348890520000000000000000   10300001F05104100000000031500000000000000     
100   62911028202443730000000000071700000000071700002000000010410405190331130001304369000519213910000130   1030000500030000   591220013401014405912200134SHWE OHH PHARMACY      PTN           MMR11005190331130001300519000000000000000   10300001 00104100000000004302000000000000     
100   62911028202527490000000000062000000000062000002000000010410405191119030022694369000519213917002269   1030000500030000   598320001003000015172200010MAX ENERGY             PTN           MMR11005191119030022690519000000000000000   10300001 00104100000000001860000000000000     
100   62911028202665170000000000068000000000068000002000000010410405190058120017304369000519213907001730   1030000500030000   598320001201000015172200012MAX ENERGY             PTN           MMR11005190058120017300519000000000000000   10300001 00104100000000002040000000000000     
100   62911028202520380000000000056000000000056000002000000010410405190528060019404369000519213911001940   1030000500030000   598320001202000015172200012MAX ENERGY             PTN           MMR11005190528060019400519000000000000000   10300001 00104100000000001680000000000000     
100   95050326094581320000000000042950000000042950002000000010410405191241110006460075700519213919000646   1030000500030000   541120020601022205411200206ORANGE (NOKL)          PTN           MMR11005191241110006460519000000000000000   10300001 00104100000000010738000000000000     
100   95030305100040620000000000070000000000070000002000000010410405190242120020404369000519213909002040   1030000500030000   598320001303000015172200013MAX ENERGY             PTN           MMR11005190242120020400519000000000000000   10300001 00104100000000002100000000000000     
100   95030308100042590000000000111000000000111000002000000010410405191147060019684369000519213918001968   1030000500030000   598320001701000015172200017MAX ENERGY             PTN           MMR11005191147060019680519000000000000000   10300001 00104100000000003330000000000000     
100   95050319207947610000000000015050000000015050002000000010410405190054070023078044980519000345795060   1030000300030000   541100000218000000000000113CB BANK                ONESTOP KITCH MMR11005190054070023070519000000000000000   10300001F00104100000000003763000000000000     
100   62443100340422630000000000068900000000068900002000000010410405200918208831906268230520867481520139   1030000900030000   581219000368190110000000241Beauty In The Pot (PHS YANGON        MMR11005200918208831900520000000000000000   10300001F00104100000000029283000000000000     
100   95050313702988830000000000000980000000000980002000000010410405201314434443367970150520000007200941   1020000200030000   333400010001204104000000281Myanmar Soft-Gate Tech Yangon        MMR11005201314434443360520000000000000000   10300001F05104100000000000206000000000000     
100   95050314735271470000000000040000000000040000002000000010410405200125125512963295580520000007195913   1030000200030000   333800010001203104000003327KBZPay                 Yangon        MMR11005200125125512960520000000000000000   10300001F05104100000000008400000000000000     
100   95050326228858240000000000032000000000032000002000000010410405200714098802761146300520130441309139   1030000900030000   541119001331190110000000971Ocean Junction NPT C 9 NAYPYITAW     MMR11005200714098802760520000000000000000   10300001F00104100000000008000000000000000     
100   62911028202199530000000000033300000000033300002000000010410405200324018751024369000520281540901139   1030000900030000   591219001378190110000000983Shwe Ohh Pharmacy St 5 YANGONAUNG    MMR11005200324018751020520000000000000000   10300001F00104100000000001998000000000000     
100   62911028202761360000000000030250000000030250002000000010410405200526068777864369000520727561106139   1030000900030000   541119001330190110000000971Ocean Junction NPT C 8 NAYPYITAW     MMR11005200526068777860520000000000000000   10300001F00104100000000001815000000000000     
100   95050311077567400000000000045500000000045500002000000010410405201105038858656984660520533351703139   1030000900030000   541119001589190110000001157Sein Gay Har Aung San- YANGONADON    MMR11005201105038858650520000000000000000   10300001F00104100000000011375000000000000     
100   95050328876009750000000000030000000000030000002000000010410405200418334833000125150520000007197224   1030000200030000   333800010001203104000003327KBZPay                 Yangon        MMR11005200418334833000520000000000000000   10300001F05104100000000006300000000000000     
100   95030339867270590000000000040000000000040000002000000010410405190140340021634369000519213908002163   1030000500030000   598320001001000015172200010MAX ENERGY             PTN           MMR11005190140340021630519000000000000000   10300001 00104100000000001200000000000000     
100   62911028202161240000000000015000000000015000002000000010410405190449590004084369000519213911000408   1030000500030000   598320005402000015172200054MAX ENERGY             PTN           MMR11005190449590004080519000000000000000   10300001 00104100000000000450000000000000     
100   95050317728825080000000000017560000000017560002000000010410405190857520001156891480519000345855865   1030000300030000   591200000169000000000000084CB BANK                MEDICARE STOR MMR11005190857520001150519000000000000000   10300001F00104100000000004214000000000000     
100   62911028202421380000000000072000000000072000002000000010410405190659020036024369000519213913003602   1030000500030000   598320001904000015172200019MAX ENERGY             PTN           MMR11005190659020036020519000000000000000   10300001 00104100000000002160000000000000     
100   62911028202260160000000000118619000000118619002000000010410405190647180047534369000519213906004753   1030000600030000   581200002287315799420000141FUJI COFFEE HOUSE      YANGON        MMR11005190647180047530519000000000000000   10300001 00104100000000012099000000000000     
100   62443101025940470000000000024926000000024926002000000010410405191240140038738423220519213912003873   1030000600030000   581200001313315799420000758HORIZON RESTAURANT     HLAING THAR Y MMR11005191240140038730519000000000000000   10300001 00104100000000010594000000000000     
100   95030346130941600000000000034500000000034500002000000010410405190334410049724369000519000345813809   1030000300030000   806200000192000000000000097CB BANK                AUNG YADANA H MMR11005190334410049720519000000000000000   10300001F00104100000000002070000000000000     
100   62443100333488440000000000035000000000035000002000000010410405190448100105555634670519213904010555   1030000600030000   554100001237315799420000691DENKO AUNG PAN         KALAW.        MMR11005190448100105550519000000000000000   10300001 00104100000000004200000000000000     
100   62443100316099160000000000200000000000200000002000000010410405200424485448061777630520000007197293   1030000200030000   333800010001203104000003327KBZPay                 Yangon        MMR11005200424485448060520000000000000000   10300001F05104100000000042000000000000000     
100   95050311121153200000000000001960000000001960002000000010410405201321315131139622640520000007200984   1020000200030000   333400010001204104000000281Myanmar Soft-Gate Tech Yangon        MMR11005201321315131130520000000000000000   10300001F05104100000000000412000000000000     
100   95030393581449300000000000020000000000020000002000000010410405200711574157884369000520000007198602   1030000200030000   333800010001203104000003327KBZPay                 Yangon        MMR11005200711574157880520000000000000000   10300001F05104100000000004200000000000000     
100   95050311419479170000000000000980000000000980002000000010410405200227195719347657350520000007196142   1020000200030000   333400010001204104000000281Myanmar Soft-Gate Tech Yangon        MMR11005200227195719340520000000000000000   10300001F05104100000000000206000000000000     
100   62443100318296470000000000379900000000379900002000000010410405200743218810042458400520564131421139   1030000900030000   573219001177190110000000933UNIQUE Kabaraye        YANGON        MMR11005200743218810040520000000000000000   10300001F00104100000000091176000000000000     
100   95050313145843230000000000055000000000055000002000000010410405201011064106765842750520000007200287   1030000200030000   333800010001203104000003327KBZPay                 Yangon        MMR11005201011064106760520000000000000000   10300001F05104100000000011550000000000000     
100   95050327531396450000000000002940000000002940002000000010410405200222185218380962320520000007196119   1020000200030000   333400010001204104000000281Myanmar Soft-Gate Tech Yangon        MMR11005200222185218380520000000000000000   10300001F05104100000000000617000000000000     
100   62911028202449440000000000093000000000093000002000000010410405191036250006124369000519213917000612   1030000500030000   598320001702000015172200017MAX ENERGY             PTN           MMR11005191036250006120519000000000000000   10300001 00104100000000002790000000000000     
100   62443100313002190000000000030000000000030000002000000010410405190621220175780105790519213906017578   1030000600030000   554100001011315799420000505DENKO HTAN TA PIN      YANGON        MMR11005190621220175780519000000000000000   10300001 00104100000000003600000000000000     
100   62911028202910770000000000047259000000047259002000000010410405190255300197204369000519213902019720   1030000600030000   554100002085315799420000471DENKO BAHAN            YANGON        MMR11005190255300197200519000000000000000   10300001 00104100000000001418000000000000     
100   62443101015591650000000000072700000000072700002000000010410405190309020775381306210519213903077538   1030000600030000   554100000955315799420000477DENKO INSEIN           YANGON        MMR11005190309020775380519000000000000000   10300001 00104100000000008724000000000000     
100   62443100371022130000000000037000000000037000002000000010410405180410180157014911450518213804015701   1030000600030000   554100002320315799420000564DENKO PHYUU            PHYUU         MMR11005180410180157010518000000000000000   10300001 00104100000000004440000000000000     
100   62443100371309900000000000080800000000080800002000000010410405181435080033800098730518213814003380   1030000600030000   5499000022283157994200015671 STOP S M BOGYOKE RD  YANGON        MMR11005181435080033800518000000000000000   10300001 00104100000000034340000000000000     
100   62443100371309900000000000093038000000093038002000000010410405181448250033823148400518213814003382   1030000600030000   5499000022283157994200015671 STOP S M BOGYOKE RD  YANGON        MMR11005181448250033820518000000000000000   10300001 00104100000000039541000000000000     
100   95050311876202380000000000040000000000040000002000000010410405181238360341139319080518213812034113   1030000600030000   554100001155315799420000607DENKO NPT 1            NAYPYITAW.    MMR11005181238360341130518000000000000000   10300001 00104100000000004800000000000000     
100   95050321232876860000000000078000000000078000002000000010410405181552110123416906400518213815012341   1030000600030000   554100002328315799420001235DENKO NAY PYI TAW 2    NAYPYITAW     MMR11005181552110123410518000000000000000   10300001 00104100000000009360000000000000     
100   95050311382087030000000000000980000000000980002000000010410405201519254925173182900520000007201357   1020000200030000   333400010001204104000000281Myanmar Soft-Gate Tech Yangon        MMR11005201519254925170520000000000000000   10300001F05104100000000000206000000000000     
100   95030301100338180000000000050000000000050000002000000010410405200812004200624369000520000007199138   1030000200030000   333800010001203104000003327KBZPay                 Yangon        MMR11005200812004200620520000000000000000   10300001F05104100000000010500000000000000     
100   62911028202520530000000000050000000000050000002000000010410405200822385238974369000520000007199229   1030000200030000   3338000100012031040000040022C2P (Myanmar) Co. Ltd Yangon        MMR11005200822385238970520000000000000000   10300001F05104100000000010500000000000000     
100   62911028202674810000000000016500000000016500002000000010410405201137388865484369000520924071838139   1030000900030000   541119001206190110000000948City Mart YK C 4       YANGONAUNG    MMR11005201137388865480520000000000000000   10300001F00104100000000000990000000000000     
100   95050314570621780000000000000980000000000980002000000010410405200414564456193515210520000007197199   1020000200030000   333400010001204104000000281Myanmar Soft-Gate Tech Yangon        MMR11005200414564456190520000000000000000   10300001F05104100000000000206000000000000     
100   95050310427855490000000000000980000000000980002000000010410405201322425242149537550520000007200989   1020000200030000   333400010001204104000000281Myanmar Soft-Gate Tech Yangon        MMR11005201322425242140520000000000000000   10300001F05104100000000000206000000000000     
100   62911028202684060000000000024350000000024350002000000010410405200341338755224369000520506111033139   1030000900030000   541119001216190110000000945City Mart TM C 1       YANGONONE     MMR11005200341338755220520000000000000000   10300001F00104100000000001461000000000000     
100   62911028202441420000000000014300000000014300002000000010410405190849590001254369000519213915000125   1030000500030000   591220012501014405912200125SHWE OHH PHARMACY      PTN           MMR11005190849590001250519000000000000000   10300001 00104100000000000858000000000000     
100   62443100388528570000000000017500000000017500002000000010410405171028370002065550860517213716000206   1030000500030000   569120116101000015691201161AMERICAN COLLECTION (H PTN           MMR11005171028370002060517000000000000000   10300001 00104100000000004200000000000000     
100   95050314430707800000000000009563000000009563002000000010410405191050412753713075940519213917275371   1040001600030000   541120000561000000010000465Ocean Shwe Gone Daing  Yangon        MMR11005191050412753710519000000000000000   10300001F00104100000000002391000000000000     
100   95030317922148660000000000050000000000050000002000000010410405190551220022754369000519213912002275   1030000500030000   598320001302000015172200013MAX ENERGY             PTN           MMR11005190551220022750519000000000000000   10300001 00104100000000001500000000000000     
100   95030393581449300000000000020000000000020000002000000010410405201133410341144369000520000007200608   1030000200030000   333800010001203104000003327KBZPay                 Yangon        MMR11005201133410341140520000000000000000   10300001F05104100000000004200000000000000     
100   62911028202696360000000000030000000000030000002000000010410405200033423097134369000520214007309713   1040001600030000   598320000316000000010000304PT Power Petrol Statio Yangon        MMR11005200033423097130520000000000000000   10300001F00104100000000000900000000000000     
100   95050316818236190000000000000980000000000980002000000010410405200944581458900630010520000007200050   1020000200030000   333400010001204104000000281Myanmar Soft-Gate Tech Yangon        MMR11005200944581458900520000000000000000   10300001F05104100000000000206000000000000     
100   62911028202460220000000000069840000000069840002000000010410405200932442314714369000520024476732908   1040001400030000   592110000078015921100000365Million Mart Million M rt No. (519/  MMR11005200932442314710520000000000000000   10300001 00104100000000004190000000000000     
100   62911028202108380000000000032000000000032000002000000010410405190519020002954369000519213911000295   1030000500030000   569120084301008205691200843ESCORT (A-12 YUZANA PL PTN           MMR11005190519020002950519000000000000000   10300001 00104100000000001920000000000000     
100   95050328137327770000000000030000000000030000002000000010410405200729185918461486690520000007198750   1030000200030000   333800010001203104000003327KBZPay                 Yangon        MMR11005200729185918460520000000000000000   10300001F05104100000000006300000000000000     
100   95050314570621780000000000000980000000000980002000000010410405201416594659191190030520000007201170   1020000200030000   333400010001204104000000281Myanmar Soft-Gate Tech Yangon        MMR11005201416594659190520000000000000000   10300001F05104100000000000206000000000000     
100   95030314863516850000000000005000000000005000002000000010410405200616094609544369000520000007198200   1030000200030000   333800010001203104000003327KBZPay                 Yangon        MMR11005200616094609540520000000000000000   10300001F05104100000000001050000000000000     
100   62911028202520530000000000030000000000030000002000000010410405200823455345934369000520000007199237   1030000200030000   3338000100012031040000040022C2P (Myanmar) Co. Ltd Yangon        MMR11005200823455345930520000000000000000   10300001F05104100000000006300000000000000     
100   62443100306416880000000000060940000000060940002000000010410405200722168804554876750520232521316139   1030000900030000   723019001053190110000000856The Body Shop JC       YANGONN       MMR11005200722168804550520000000000000000   10300001F00104100000000014626000000000000     
100   95030361482647470000000000009638000000009638002000000010410405201005488843304369000520550351648139   1030000900030000   541119001195190110000000942City Mart HDC C 10     YANGONUT      MMR11005201005488843300520000000000000000   10300001F00104100000000000578000000000000     
100   95030353305053700000000000021000000000021000002000000010410405200219534953634369000520000007196111   1030000200030000   3338000100012031040000040022C2P (Myanmar) Co. Ltd Yangon        MMR11005200219534953630520000000000000000   10300001F05104100000000004410000000000000     
100   95030367537085740000000000000980000000000980002000000010410405201418064806524369000520000007201171   1020000200030000   333400010001204104000000281Myanmar Soft-Gate Tech Yangon        MMR11005201418064806520520000000000000000   10300001F05104100000000000206000000000000     
100   62911028202448030000000000120000000000120000002000000010410405191224340008264369000519213912000826   1030000600030000   504700002375315799420001653EVERGREEN DENTAL CARE  YANGON        MMR11005191224340008260519000000000000000   10300001 00104100000000007200000000000000     
100   62911028202651050000000000148259000000148259002000000010410405200915390237164369000520000747272619   1030000200030000   541188001003000008000000008KBZ BANK               MARKETPLACE - MMR11005200915390237160520000000000000000   10300001 00104100000000008896000000000000     
100   95050315099113150000000000075000000000075000002000000010410405200511174117105713930520000007197713   1030000200030000   333800010001203104000003327KBZPay                 Yangon        MMR11005200511174117100520000000000000000   10300001F05104100000000015750000000000000     
100   95030346130941600000000000010667000000010667002000000010410405180704240014384369000518213807001438   1030000600030000   5499000022293157994200015671 STOP S M BOGYOKE RD  YANGON        MMR11005180704240014380518000000000000000   10300001 00104100000000001088000000000000     
100   62443100328876850000000000050000000000050000002000000010410405190027370013625629980519213906001362   1030000500030000   598320001603000015172200016MAX ENERGY             PTN           MMR11005190027370013620519000000000000000   10300001 00104100000000006000000000000000     
100   95050310427855490000000000006860000000006860002000000010410405200307443744048799260520000007196416   1020000200030000   333400010001204104000000281Myanmar Soft-Gate Tech Yangon        MMR11005200307443744040520000000000000000   10300001F05104100000000001441000000000000     
100   62911028202472440000000000009600000000009600002000000010410405201036130084024369000520000747275986   1030000200030000   541188001033000008000000298KBZ BANK               CITY MART - M MMR11005201036130084020520000000000000000   10300001 00104100000000000576000000000000     
100   62911028202461130000000000012200000000012200002000000010410405200654131743564369000520264231318139   1030000500030000   555610110576104519000009164City Mart China Town P int Cen       MMR11005200654131743560520000000000000000   10300001 00104100000000000732000000000000     
100   62911028202221220000000000010000000000010000002000000010410405190554530020784369000519213912002078   1030000500030000   598320001204000015172200012MAX ENERGY             PTN           MMR11005190554530020780519000000000000000   10300001 00104100000000000300000000000000     
100   95050316818236190000000000002940000000002940002000000010410405200810264026144366170520000007199122   1020000200030000   333400010001204104000000281Myanmar Soft-Gate Tech Yangon        MMR11005200810264026140520000000000000000   10300001F05104100000000000617000000000000     
100   95050312695033440000000000000980000000000980002000000010410405201151212121546303890520000007200664   1020000200030000   333400010001204104000000281Myanmar Soft-Gate Tech Yangon        MMR11005201151212121540520000000000000000   10300001F05104100000000000206000000000000     
100   95050318048516790000000000020000000000020000002000000010410405191724285428844692770520000007195530   1030000200030000   333800010001203104000003327KBZPay                 Yangon        MMR11005191724285428840520000000000000000   10300001F05104100000000004200000000000000     
100   62911028202209440000000000095000000000095000002000000010410405200331153179594369000520214010317959   1040001600030000   598320001170000000010000527Shwe Taung Energy (YGN Yangon        MMR11005200331153179590520000000000000000   10300001F00104100000000002850000000000000     
100   62911028202341350000000000013917000000013917002000000010410405200933148835364369000520084031614139   1030000900030000   581219000718190110000000549Chilli Pot Mala Xiang  YANGONUT      MMR11005200933148835360520000000000000000   10300001F00104100000000001419000000000000     
100   95050310902464360000000000015000000000015000002000000010410405201556402640003097800520000007201408   1030000200030000   3338000100012031040000040022C2P (Myanmar) Co. Ltd Yangon        MMR11005201556402640000520000000000000000   10300001F05104100000000003150000000000000     
100   95050327192897240000000000000980000000000980002000000010410405201442001200679877930520000007201248   1020000200030000   333400010001204104000000281Myanmar Soft-Gate Tech Yangon        MMR11005201442001200670520000000000000000   10300001F05104100000000000206000000000000     
100   95050323282717740000000000025000000000025000002000000010410405201956130356954580100520000747303965   1030000200030000   541188001024000008000000298KBZ BANK               CITY MART - M MMR11005201956130356950520000000000000000   10300001 00104100000000006250000000000000     
100   95050322715181550000000000118300000000118300002000000010410405201023448848140119430520856531644139   1030000900030000   541119000831190110000000177Pro1 Global (Insein)   YANGON        MMR11005201023448848140520000000000000000   10300001F00104100000000029575000000000000     
100   95050321188471220000000000016600000000016600002000000010410405201517480017361140590520000747293408   1030000200030000   541188001479000008000000399KBZ BANK               OCEAN SUPERCE MMR11005201517480017360520000000000000000   10300001 00104100000000004150000000000000     
100   62443101037081820000000000054700000000054700002000000010410405201356380021124495000520000747304503   1030000200030000   581288001917000008000005395KBZ BANK               MIN LAN RESTA MMR11005201356380021120520000000000000000   10300001 00104100000000023248000000000000     
100   62911028202290100000000000037650000000037650002000000010410405201657330026184369000520000747297935   1030000200030000   541188001079000008000000294KBZ BANK               CITY MART - J MMR11005201657330026180520000000000000000   10300001 00104100000000002259000000000000     
100   62443101076362230000000000009900000000009900002000000010410405201231070024624665190520000747302623   1030000200030000   581288001738000008000005244KBZ BANK               SEAFOOD CITY  MMR11005201231070024620520000000000000000   10300001 00104100000000004208000000000000     
100   95050316438375580000000000005150000000005150002000000010410405201407340026854195980520000747289237   1030000200030000   541188001482000008000000399KBZ BANK               OCEAN SUPERCE MMR11005201407340026850520000000000000000   10300001 00104100000000001288000000000000     
100   95050317461467820000000000009500000000009500002000000010410405201017350000301857010520000747297525   1030000200030000   509488002507000008000006709KBZ BANK               SHWE SAN EAIN MMR11005201017350000300520000000000000000   10300001 00104100000000003800000000000000     
100   95050319216824370000000000013500000000013500002000000010410405201409300026865848460520000747289370   1030000200030000   541188001482000008000000399KBZ BANK               OCEAN SUPERCE MMR11005201409300026860520000000000000000   10300001 00104100000000003375000000000000     
100   62911028202286990000000000023000000000023000002000000010410405201838120047754369000520000747301835   1030000200030000   541188001057000008000000314KBZ BANK               MARKETPLACE - MMR11005201838120047750520000000000000000   10300001 00104100000000001380000000000000     
100   95050319928585020000000000004900000000004900002000000010410405200936000600552367590520000007199959   1020000200030000   333400010001204104000000281Myanmar Soft-Gate Tech Yangon        MMR11005200936000600550520000000000000000   10300001F05104100000000001029000000000000     
100   95050319996628650000000000000980000000000980002000000010410405201446141614074920480520000007201264   1020000200030000   333400010001204104000000281Myanmar Soft-Gate Tech Yangon        MMR11005201446141614070520000000000000000   10300001F05104100000000000206000000000000     
100   95050317343045830000000000002940000000002940002000000010410405200239210921194522580520000007196184   1020000200030000   333400010001204104000000281Myanmar Soft-Gate Tech Yangon        MMR11005200239210921190520000000000000000   10300001F05104100000000000617000000000000     
100   62911028202366010000000000071940000000071940002000000010410405200833530032304369000520214015003230   1020000200030000   541100255002300115411000025MWD BANK               YGN           MMR11005200833530032300520000000000000000   10300001 00104100000000004316000000000000     
100   95030302100067550000000000018250000000018250002000000010410405200405351726154369000520402351030139   1030000500030000   555610112236104519000010487Ocean Super Center St  ohn           MMR11005200405351726150520000000000000000   10300001 00104100000000001095000000000000     
100   62443100306045460000000000014000000000014000002000000010410405201716320217148807330520000747298688   1030000200030000   541188001017000008000000008KBZ BANK               MARKETPLACE - MMR11005201716320217140520000000000000000   10300001 00104100000000003500000000000000     
