100   62911028202147720000000000045000000000045000002000000010410405221000410017154369000522214216001715   1030000500030000   598320001603000015172200016MAX ENERGY             PTN           MMR11005221000410017150522000000000000000   10300001 00104100000000001350000000000000     
100   62911028202404050000000000025400000000025400002000000010410405231348245926314369000523001824126474   1040001400030000   581210000466025812100002956Golden Duck Restaurant (Junction 8)  MMR11005231348245926310523000000000000000   10300001 00104100000000002591000000000000     
100   62911028202192270000000000002850000000002850002000000010410405230154119385284369000523558240811142   1030000900030000   591219000969190110000000776Shwe Ohh Pharmacy St ( YANGONADA     MMR11005230154119385280523000000000000000   10300001F00104100000000000171000000000000     
100   95030308100042590000000000028800000000028800002000000010410405220906270025824369000522000346344674   1030000300030000   581400000692000000000000478CB BANK                KFC PARAMI SG MMR11005220906270025820522000000000000000   10300001F00104100000000000864000000000000     
100   95050311959900780000000000000980000000000980002000000010410405230751262126260552990523000007211513   1020000200030000   333400010001204104000000281Myanmar Soft-Gate Tech Yangon        MMR11005230751262126260523000000000000000   10300001F05104100000000000206000000000000     
100   95050322104201170000000000012930000000012930002000000010410405220532190001553361160522214212000155   1030000500030000   531120155716000045311201557GAMONE PWINT           PTN           MMR11005220532190001550522000000000000000   10300001 00104100000000003103000000000000     
100   62911028202527490000000000041000000000041000002000000010410405220636070016054369000522214213001605   1030000500030000   598320041903000055983200419MAX ENERGY             PTN           MMR11005220636070016050522000000000000000   10300001 00104100000000001230000000000000     
100   95050312498129060000000000000980000000000980002000000010410405231241551155151118150523000007213219   1020000200030000   333400010001204104000000281Myanmar Soft-Gate Tech Yangon        MMR11005231241551155150523000000000000000   10300001F05104100000000000206000000000000     
100   95050314307746340000000000000980000000000980002000000010410405230154162416096594830523000007208869   1020000200030000   333400010001204104000000281Myanmar Soft-Gate Tech Yangon        MMR11005230154162416090523000000000000000   10300001F05104100000000000206000000000000     
100   95050314557307430000000000004900000000004900002000000010410405231359102910893316850523000007213442   1020000200030000   333400010001204104000000281Myanmar Soft-Gate Tech Yangon        MMR11005231359102910890523000000000000000   10300001F05104100000000001029000000000000     
100   62911028202471600000000000097950000000097950002000000010410405230957025409494369000523214316540949   1040001600030000   591220000296000000010000284Shwe Ohh Pharmacy (Lan Yangon        MMR11005230957025409490523000000000000000   10300001F00104100000000005877000000000000     
100   62443100330108240000000000001960000000001960002000000010410405231424215421582323260523000007213502   1020000200030000   333400010001204104000000281Myanmar Soft-Gate Tech Yangon        MMR11005231424215421580523000000000000000   10300001F05104100000000000412000000000000     
100   95050315401626960000000000007260000000007260002000000010410405230855292454951865080523252974867618   1040001400030000   599910000184025999100001252Mi Tha Su Mart Mi Tha  u Mart K-31   MMR11005230855292454950523000000000000000   10300001 00104100000000001742000000000000     
100   95050323749862420000000000300000000000300000002000000010410405230659422942342872450523000007211136   1030000200030000   333800010001203104000003327KBZPay                 Yangon        MMR11005230659422942340523000000000000000   10300001F05104100000000063000000000000000     
100   95050311184380560000000000001960000000001960002000000010410405231003383338729191440523000007212592   1020000200030000   333400010001204104000000281Myanmar Soft-Gate Tech Yangon        MMR11005231003383338720523000000000000000   10300001F05104100000000000412000000000000     
100   95030337100000390000000000077700000000077700002000000010410405230716425329024369000523214314532902   1040001600030000   591220000302000000010000290Shwe Ohh Pharmacy (Nor Yangon        MMR11005230716425329020523000000000000000   10300001F00104100000000004662000000000000     
100   62911028202651050000000000026000000000026000002000000010410405220639120002654369000522214213000265   1030000500030000   531120155702000045311201557GAMONE PWINT           PTN           MMR11005220639120002650522000000000000000   10300001 00104100000000001560000000000000     
100   62911028202473840000000000134350000000134350002000000010410405220405450001524369000522214210000152   1030000500030000   591220012501014405912200125SHWE OHH PHARMACY      PTN           MMR11005220405450001520522000000000000000   10300001 00104100000000008061000000000000     
100   62911028202397530000000000062000000000062000002000000010410405220933420004664369000522214216000466   1030000500030000   598320005402000015172200054MAX ENERGY             PTN           MMR11005220933420004660522000000000000000   10300001 00104100000000001860000000000000     
100   62911028202417260000000000010000000000010000002000000010410405221112040027354369000522214217002735   1030000500030000   598320001402000015172200014MAX ENERGY             PTN           MMR11005221112040027350522000000000000000   10300001 00104100000000000300000000000000     
100   62443101042646490000000000402000000000402000002000000010410405221157250001181006050522214218000118   1030000500030000   481220018401000024812200184SUPER MOBILE           PTN           MMR11005221157250001180522000000000000000   10300001 00104100000000096480000000000000     
100   62443100381661260000000000029850000000029850002000000010410405221204500005752573430522000346367651   1030000300030000   531100000539000000000000376CB BANK                CAPITAL HYPER MMR11005221204500005750522000000000000000   10300001F00104100000000007164000000000000     
100   95050329252108030000000000010000000000010000002000000010410405220643010018745914060522214213001874   1030000500030000   598320002102000015172200021MAX ENERGY             PTN           MMR11005220643010018740522000000000000000   10300001 00104100000000001200000000000000     
100   62443100371022130000000000039830000000039830002000000010410405220928210026345488570522214215002634   1030000500030000   598320001301000015172200013MAX ENERGY             PTN           MMR11005220928210026340522000000000000000   10300001 00104100000000004780000000000000     
100   62911028202290100000000000080000000000080000002000000010410405230938465398664369000523214316539866   1040001600030000   598320000658000000010000527Shwe Taung Energy (YGN Yangon        MMR11005230938465398660523000000000000000   10300001F00104100000000002400000000000000     
100   62443101000669310000000000013100000000013100002000000010410405231416425453781897800523464293065404   1040001400030000   581410000385025814100002458San Fransico San Frans co No.(91/Kha MMR11005231416425453780523000000000000000   10300001 00104100000000001572000000000000     
100   95050328384000040000000000042735000000042735002000000010410405231112392092870906580523495411744142   1030000300030000   444410121373104519000018029Shan Yoe Yar Restauran               MMR11005231112392092870523000000000000000   10300001 00104100000000018163000000000000     
100   62911028202163480000000000200000000000200000002000000010410405231300533053544369000523000007213273   1030000500030000   333800010001201104000003863AYA Pay                Yangon        MMR11005231300533053540523000000000000000   10300001F05104100000000042000000000000000     
100   95050328876009750000000000020000000000020000002000000010410405230515164516196042880523000007210355   1030000200030000   333800010001203104000003327KBZPay                 Yangon        MMR11005230515164516190523000000000000000   10300001F05104100000000004200000000000000     
100   95050317003064220000000000000980000000000980002000000010410405230312514251081461470523000007209248   1020000200030000   333400010001204104000000281Myanmar Soft-Gate Tech Yangon        MMR11005230312514251080523000000000000000   10300001F05104100000000000206000000000000     
100   95050317284600370000000000050000000000050000002000000010410405230425335533726893850523000007209937   1030000200030000   333800010001203104000003327KBZPay                 Yangon        MMR11005230425335533720523000000000000000   10300001F05104100000000010500000000000000     
100   62911028202440680000000000009450000000009450002000000010410405230213289386894369000523623430828142   1030000900030000   591219000970190110000000777Shwe Ohh Pharmacy St ( YANGONAW      MMR11005230213289386890523000000000000000   10300001F00104100000000000567000000000000     
100   62911028202472440000000000063000000000063000002000000010410405220824580026444369000522214214002644   1030000500030000   598320001303000015172200013MAX ENERGY             PTN           MMR11005220824580026440522000000000000000   10300001 00104100000000001890000000000000     
100   95050316901496590000000000008200000000008200002000000010410405220344330004395949710522000346304398   1030000300030000   541100000601000000000000409CB BANK                ONE STOP MART MMR11005220344330004390522000000000000000   10300001F00104100000000002050000000000000     
100   62911028202530280000000000014000000000014000002000000010410405221226260000964369000522214218000096   1030000500030000   581220142001000015812201420GOLDEN DUCK (NAN THI D PTN           MMR11005221226260000960522000000000000000   10300001 00104100000000001428000000000000     
100   62911028202442250000000000018000000000018000002000000010410405220456390023304369000522214211002330   1030000500030000   598320001202000015172200012MAX ENERGY             PTN           MMR11005220456390023300522000000000000000   10300001 00104100000000000540000000000000     
100   62911028202221220000000000010000000000010000002000000010410405220417350026174369000522214210002617   1030000500030000   598320001403000015172200014MAX ENERGY             PTN           MMR11005220417350026170522000000000000000   10300001 00104100000000000300000000000000     
100   95050325273694860000000000010000000000010000002000000010410405220831450002328793540522214215000232   1030000500030000   541120024802022205411200248ORANGE (THARKAYTA)     PTN           MMR11005220831450002320522000000000000000   10300001 00104100000000002500000000000000     
100   62911028202074950000000000037000000000037000002000000010410405220223160023554369000522214208002355   1030000500030000   598320001203000015172200012MAX ENERGY             PTN           MMR11005220223160023550522000000000000000   10300001 00104100000000001110000000000000     
100   95050317945250280000000000006300000000006300002000000010410405220406080001098488810522214210000109   1030000500030000   531120155707000045311201557GAMONE PWINT           PTN           MMR11005220406080001090522000000000000000   10300001 00104100000000001512000000000000     
100   95050313702988830000000000002940000000002940002000000010410405230157402740128247310523000007208881   1020000200030000   333400010001204104000000281Myanmar Soft-Gate Tech Yangon        MMR11005230157402740120523000000000000000   10300001F05104100000000000617000000000000     
100   62911028202788350000000000010000000000010000002000000010410405230515454545994369000523000007210361   1030000200030000   333800010001203104000003327KBZPay                 Yangon        MMR11005230515454545990523000000000000000   10300001F05104100000000002100000000000000     
100   95030301100095370000000000028150000000028150002000000010410405230628465306624369000523214313530662   1040001600030000   591220000303000000010000291Shwe Ohh Pharmacy (Kyu Yangon        MMR11005230628465306620523000000000000000   10300001F00104100000000001689000000000000     
100   95050317317598540000000000010000000000010000002000000010410405230416224622032021490523000007209861   1030000200030000   333800010001203104000003327KBZPay                 Yangon        MMR11005230416224622030523000000000000000   10300001F05104100000000002100000000000000     
100   95050321044701600000000000100800000000100800002000000010410405230520335033535447210523000007210399   1030000900030000   333800010001202104000003301uab bank               Yangon        MMR11005230520335033530523000000000000000   10300001F05104100000000021168000000000000     
100   95030325264619140000000000050000000000050000002000000010410405230304435203944369000523214310520394   1040001600030000   598320000911000000010000662MMTM - Tamwe           Ygn           MMR11005230304435203940523000000000000000   10300001F00104100000000001500000000000000     
100   95050321057500320000000000026400000000026400002000000010410405231123335483206437830523214318548320   1040001600030000   591220000271000000010000259Shwe Ohh Pharmacy (Gwa Yangon        MMR11005231123335483200523000000000000000   10300001F00104100000000006336000000000000     
100   95050324551230380000000000100000000000100000002000000010410405230320515051822943760523000007209312   1030000200030000   333800010001203104000003327KBZPay                 Yangon        MMR11005230320515051820523000000000000000   10300001F05104100000000021000000000000000     
100   95050313640946520000000000027300000000027300002000000010410405220933040005657141060522000346348205   1030000300030000   531100000539000000000000376CB BANK                CAPITAL HYPER MMR11005220933040005650522000000000000000   10300001F00104100000000006552000000000000     
100   95050322104201170000000000012000000000012000002000000010410405220513200002613105880522214211000261   1030000500030000   531120155702000045311201557GAMONE PWINT           PTN           MMR11005220513200002610522000000000000000   10300001 00104100000000002880000000000000     
100   62443100392773440000000000054780000000054780002000000010410405220647050002815828960522214213000281   1030000500030000   581220123001000045812201230YOON KITCHEN           PTN           MMR11005220647050002810522000000000000000   10300001 00104100000000023282000000000000     
100   62911028202651050000000000044400000000044400002000000010410405220741340002574369000522214214000257   1030000500030000   531120155711000045311201557GAMONE PWINT           PTN           MMR11005220741340002570522000000000000000   10300001 00104100000000002664000000000000     
100   95030315150842990000000000030000000000030000002000000010410405220545510023964369000522214212002396   1030000500030000   598320001203000015172200012MAX ENERGY             PTN           MMR11005220545510023960522000000000000000   10300001 00104100000000000900000000000000     
100   95050316901496590000000000010650000000010650002000000010410405221036370001754552520522214217000175   1030000500030000   541120045801009205411200458126 STORE              PTN           MMR11005221036370001750522000000000000000   10300001 00104100000000002663000000000000     
100   62911028202169750000000000025000000000025000002000000010410405220931380019614369000522214216001961   1030000500030000   598320002104000015172200021MAX ENERGY             PTN           MMR11005220931380019610522000000000000000   10300001 00104100000000000750000000000000     
100   62911028202793040000000000035000000000035000002000000010410405220832070002294369000522214215000229   1030000500030000   566120038001016505661200380RIPPLE FLIPFLOPS       PTN           MMR11005220832070002290522000000000000000   10300001 00104100000000002100000000000000     
100   62911028202019440000000000032600000000032600002000000010410405230403005227104369000523214311522710   1040001600030000   591220000288000000010000276Shwe Ohh Pharmacy (Nor Yangon        MMR11005230403005227100523000000000000000   10300001F00104100000000001956000000000000     
100   62443100330108240000000000002940000000002940002000000010410405231425585558585798430523000007213506   1020000200030000   333400010001204104000000281Myanmar Soft-Gate Tech Yangon        MMR11005231425585558580523000000000000000   10300001F05104100000000000617000000000000     
100   95030319588829360000000000012800000000012800002000000010410405230535279431104369000523020051227142   1030000900030000   541119001229190110000000946City Mart TM Season C  YANGONONE     MMR11005230535279431100523000000000000000   10300001F00104100000000000768000000000000     
100   95050323749862420000000000300000000000300000002000000010410405230651542154332957550523000007211088   1030000200030000   333800010001203104000003327KBZPay                 Yangon        MMR11005230651542154330523000000000000000   10300001F05104100000000063000000000000000     
100   95050311184380560000000000002940000000002940002000000010410405231001273127570929030523000007212581   1020000200030000   333400010001204104000000281Myanmar Soft-Gate Tech Yangon        MMR11005231001273127570523000000000000000   10300001F05104100000000000617000000000000     
100   95030367537085740000000000000980000000000980002000000010410405231103473347344369000523000007212833   1020000200030000   333400010001204104000000281Myanmar Soft-Gate Tech Yangon        MMR11005231103473347340523000000000000000   10300001F05104100000000000206000000000000     
100   95050310332595380000000000004900000000004900002000000010410405231411264126038848090523000007213472   1020000200030000   333400010001204104000000281Myanmar Soft-Gate Tech Yangon        MMR11005231411264126030523000000000000000   10300001F05104100000000001029000000000000     
100   62911028202132460000000000031000000000031000002000000010410405231132025490994369000523214318549099   1040001600030000   591220000285000000010000273Shwe Ohh Pharmacy (47t Yangon        MMR11005231132025490990523000000000000000   10300001F00104100000000001860000000000000     
100   95050317945250280000000000019200000000019200002000000010410405220358570001070311490522214210000107   1030000500030000   531120155707000045311201557GAMONE PWINT           PTN           MMR11005220358570001070522000000000000000   10300001 00104100000000004608000000000000     
100   95050317945250280000000000008500000000008500002000000010410405220402430001080226390522214210000108   1030000500030000   531120155707000045311201557GAMONE PWINT           PTN           MMR11005220402430001080522000000000000000   10300001 00104100000000002040000000000000     
100   62911028202651050000000000030000000000030000002000000010410405220750050002584369000522214214000258   1030000500030000   531120155711000045311201557GAMONE PWINT           PTN           MMR11005220750050002580522000000000000000   10300001 00104100000000001800000000000000     
100   62911028202177750000000000031500000000031500002000000010410405220146400011644369000522214208001164   1030000500030000   806220172402013008062201724GRAND HANTHA HOSPITAL  PTN           MMR11005220146400011640522000000000000000   10300001 00104100000000001890000000000000     
100   62443100333488440000000000035000000000035000002000000010410405220421440025855439130522214210002585   1030000500030000   598320001303000015172200013MAX ENERGY             PTN           MMR11005220421440025850522000000000000000   10300001 00104100000000004200000000000000     
100   62443100333488440000000000029200000000029200002000000010410405220531070000276666130522000346317417   1030000300030000   581200001517000000000001066CB BANK                YKKO(TAMWE)   MMR11005220531070000270522000000000000000   10300001F00104100000000012410000000000000     
100   62911028202520950000000000500000000000500000002000000010410405221207470001554369000522214218000155   1030000500030000   481220063801000014812200638BANANA (MYANMAR PLAZA) PTN           MMR11005221207470001550522000000000000000   10300001 00104100000000030000000000000000     
100   62443100333488440000000000009750000000009750002000000010410405220331290010422304360522000346302798   1030000300030000   531100000899000000000000636CB BANK                MGOU-MMPZ     MMR11005220331290010420522000000000000000   10300001F00104100000000002340000000000000     
100   62911028202132460000000000013850000000013850002000000010410405231210385527874369000523214319552787   1040001600030000   591220000301000000010000289Shwe Ohh Pharmacy (Yay Yangon        MMR11005231210385527870523000000000000000   10300001F00104100000000000831000000000000     
100   62911028202788350000000000020000000000020000002000000010410405231302503250814369000523000007213280   1030000200030000   333800010001203104000003327KBZPay                 Yangon        MMR11005231302503250810523000000000000000   10300001F05104100000000004200000000000000     
100   62911028202788350000000000010000000000010000002000000010410405230505533553274369000523000007210274   1030000200030000   333800010001203104000003327KBZPay                 Yangon        MMR11005230505533553270523000000000000000   10300001F05104100000000002100000000000000     
100   95050311931431670000000000009800000000009800002000000010410405230705543554737149140523000007211182   1020000200030000   333400010001204104000000281Myanmar Soft-Gate Tech Yangon        MMR11005230705543554730523000000000000000   10300001F05104100000000002058000000000000     
100   62911028202788350000000000010000000000010000002000000010410405230813564356104369000523000007211721   1030000200030000   333800010001203104000003327KBZPay                 Yangon        MMR11005230813564356100523000000000000000   10300001F05104100000000002100000000000000     
100   95050312224678430000000000000980000000000980002000000010410405230215224522473119660523000007208939   1020000200030000   333400010001204104000000281Myanmar Soft-Gate Tech Yangon        MMR11005230215224522470523000000000000000   10300001F05104100000000000206000000000000     
100   95050311419479170000000000000980000000000980002000000010410405230914554455751014120523000007212222   1020000200030000   333400010001204104000000281Myanmar Soft-Gate Tech Yangon        MMR11005230914554455750523000000000000000   10300001F05104100000000000206000000000000     
100   95050320047636150000000000241000000000241000002000000010410405231024259498402608510523835541625142   1030000900030000   573219001183190110000000939UNIQUE Thingangyun     YANGONNGKUUN  MMR11005231024259498400523000000000000000   10300001F00104100000000057840000000000000     
100   95050321685338790000000000200600000000200600002000000010410405220111120002937928790522214207000293   1030000500030000   806220009103024108062200091ARYU INTL HOSPITAL     PTN           MMR11005220111120002930522000000000000000   10300001 00104100000000048144000000000000     
100   95030301100103940000000000078300000000078300002000000010410405220722110007694369000522000346331516   1030000300030000   541100000204000000000000102CB BANK                MAKRO MYANMAR MMR11005220722110007690522000000000000000   10300001F00104100000000004698000000000000     
100   95050316901496590000000000005100000000005100002000000010410405221233560001774481210522214219000177   1030000500030000   541120045801009205411200458126 STORE              PTN           MMR11005221233560001770522000000000000000   10300001 00104100000000001275000000000000     
100   62911028202651050000000000120100000000120100002000000010410405220814550002594369000522214214000259   1030000500030000   531120155711000045311201557GAMONE PWINT           PTN           MMR11005220814550002590522000000000000000   10300001 00104100000000007206000000000000     
100   95050317945250280000000000016800000000016800002000000010410405220419370002595524230522214210000259   1030000500030000   531120155702000045311201557GAMONE PWINT           PTN           MMR11005220419370002590522000000000000000   10300001 00104100000000004032000000000000     
100   62911028202790310000000000060000000000060000002000000010410405220007100016144369000522214206001614   1030000500030000   598320001604000015172200016MAX ENERGY             PTN           MMR11005220007100016140522000000000000000   10300001 00104100000000001800000000000000     
100   62911028202221220000000000020000000000020000002000000010410405220231150025884369000522214209002588   1030000500030000   598320001403000015172200014MAX ENERGY             PTN           MMR11005220231150025880522000000000000000   10300001 00104100000000000600000000000000     
100   62911028202668300000000000030000000000030000002000000010410405220135330026734369000522214208002673   1030000500030000   598320001302000015172200013MAX ENERGY             PTN           MMR11005220135330026730522000000000000000   10300001 00104100000000000900000000000000     
100   95050311077567400000000000033500000000033500002000000010410405231131219515686863330523878011821142   1030000900030000   541119001589190110000001157Sein Gay Har Aung San- YANGONADON    MMR11005231131219515680523000000000000000   10300001F00104100000000008375000000000000     
100   95050317834964620000000000007200000000007200002000000010410405231055369506396580450523315251736142   1030000900030000   541119001349190110000000977Ocean PZD C 3          YANGONAUNG    MMR11005231055369506390523000000000000000   10300001F00104100000000001800000000000000     
100   95050326159929830000000000011100000000011100002000000010410405231013189495361757500523648431618142   1030000900030000   541119000124190110000000080Sein Gay Har BAK       YANGONADA     MMR11005231013189495360523000000000000000   10300001F00104100000000002775000000000000     
100   95030313100064300000000000037750000000037750002000000010410405231028419499464369000523899581641142   1030000900030000   541119000284190110000000177Pro1 Global (Insein)   YANGON        MMR11005231028419499460523000000000000000   10300001F00104100000000002265000000000000     
100   62911028202198620000000000123000000000123000002000000010410405231234099530744369000523790041909142   1030000900030000   554119000345190110000000212New Day Energy PZD     YANGONAUNG    MMR11005231234099530740523000000000000000   10300001F00104100000000003690000000000000     
100   95050313843656520000000000006300000000006300002000000010410405231146369519607288790523102161836142   1030000900030000   541119001261190110000000958City Mart PLST C 4     YANGONMYOTHIT MMR11005231146369519600523000000000000000   10300001F00104100000000001575000000000000     
100   62911028202792960000000000008850000000008850002000000010410405221608480169064369000522000747373776   1030000200030000   541188001304000008000000325KBZ BANK               CITY MART - A MMR11005221608480169060522000000000000000   10300001 00104100000000000531000000000000     
100   95050315330275830000000000000980000000000980002000000010410405230814034403024914760523000007211719   1020000200030000   333400010001204104000000281Myanmar Soft-Gate Tech Yangon        MMR11005230814034403020523000000000000000   10300001F05104100000000000206000000000000     
100   62911028202527800000000000051000000000051000002000000010410405220252140043394369000522214209004339   1030000500030000   598320001904000015172200019MAX ENERGY             PTN           MMR11005220252140043390522000000000000000   10300001 00104100000000001530000000000000     
100   62911028202136750000000000036000000000036000002000000010410405220422170032814369000522214210003281   1030000500030000   598320001902000015172200019MAX ENERGY             PTN           MMR11005220422170032810522000000000000000   10300001 00104100000000001080000000000000     
100   62443100346413950000000000024427000000024427002000000010410405221021580027885063090522214216002788   1030000500030000   598320001001000015172200010MAX ENERGY             PTN           MMR11005221021580027880522000000000000000   10300001 00104100000000002931000000000000     
100   62443100371022130000000000020000000000020000002000000010410405220910210026558623350522214215002655   1030000500030000   598320001303000015172200013MAX ENERGY             PTN           MMR11005220910210026550522000000000000000   10300001 00104100000000002400000000000000     
100   95050320624349010000000000050000000000050000002000000010410405221015254774078368060522214217477407   1040001600030000   598320000915000000010000664MMTM - North Dagon     Ygn           MMR11005221015254774070522000000000000000   10300001F00104100000000006000000000000000     
100   62911028202651050000000000031000000000031000002000000010410405231020520110074369000523000747400366   1030000200030000   541188001002000008000000008KBZ BANK               MARKETPLACE - MMR11005231020520110070523000000000000000   10300001 00104100000000001860000000000000     
100   62911028202232860000000000030000000000030000002000000010410405231134310083054369000523000747405501   1030000200030000   541188001022000008000000298KBZ BANK               CITY MART - M MMR11005231134310083050523000000000000000   10300001 00104100000000001800000000000000     
100   62443100318296470000000000030127000000030127002000000010410405231130310017745872690523000747405169   1030000200030000   541188001029000008000000298KBZ BANK               CITY MART - M MMR11005231130310017740523000000000000000   10300001 00104100000000007532000000000000     
100   95030317922148660000000000106500000000106500002000000010410405230621399442394369000523658511239142   1030000900030000   729819000768190110000000600Urban Beauty Studio    YANGON        MMR11005230621399442390523000000000000000   10300001F00104100000000006390000000000000     
100   95050318267399100000000000000980000000000980002000000010410405231221425142915161400523000007213142   1020000200030000   333400010001204104000000281Myanmar Soft-Gate Tech Yangon        MMR11005231221425142910523000000000000000   10300001F05104100000000000206000000000000     
100   95050316769671810000000000000980000000000980002000000010410405230351312131403830380523000007209635   1020000200030000   333400010001204104000000281Myanmar Soft-Gate Tech Yangon        MMR11005230351312131400523000000000000000   10300001F05104100000000000206000000000000     
100   95050314567080940000000000000980000000000980002000000010410405222248211821086679920523000007208602   1020000200030000   333400010001204104000000281Myanmar Soft-Gate Tech Yangon        MMR11005222248211821080523000000000000000   10300001F05104100000000000206000000000000     
100   62911028202441420000000000141650000000141650002000000010410405230937249486024369000523074071624142   1030000900030000   591219000970190110000000777Shwe Ohh Pharmacy St ( YANGONAW      MMR11005230937249486020523000000000000000   10300001F00104100000000008499000000000000     
100   95030301100125070000000000065121000000065121002000000010410405231045059503924369000523175151705142   1030000900030000   541119001206190110000000948City Mart YK C 4       YANGONAUNG    MMR11005231045059503920523000000000000000   10300001F00104100000000003907000000000000     
100   95030301100125070000000000032900000000032900002000000010410405230943449487874369000523197131644142   1030000900030000   541119001215190110000000950City Mart YK City Care YANGONAUNG    MMR11005230943449487870523000000000000000   10300001F00104100000000001974000000000000     
100   62911028202693960000000000150000000000150000002000000010410405230657422064544369000523457261353142   1030000300030000   555510124696104519000020166Makro Myanmar                        MMR11005230657422064540523000000000000000   10300001 00104100000000009000000000000000     
100   62443100306416880000000000029250000000029250002000000010410405231712120027976934640523000747424853   1030000200030000   541188001066000008000000314KBZ BANK               MARKETPLACE - MMR11005231712120027970523000000000000000   10300001 00104100000000007313000000000000     
100   62911028202448030000000000046648000000046648002000000010410405231532400030734369000523000747420869   1030000200030000   541188001021000008000000298KBZ BANK               CITY MART - M MMR11005231532400030730523000000000000000   10300001 00104100000000002799000000000000     
100   62443100318296470000000000033275000000033275002000000010410405231154170122182057140523000747407244   1030000200030000   541188001023000008000000298KBZ BANK               CITY MART - M MMR11005231154170122180523000000000000000   10300001 00104100000000008319000000000000     
100   95050317685093130000000000055000000000055000002000000010410405230430220022429603140523000007209968   1030000200030000   333800010001203104000003327KBZPay                 Yangon        MMR11005230430220022420523000000000000000   10300001F05104100000000011550000000000000     
100   95050312240830690000000000024600000000024600002000000010410405231928010069602040380523000747429480   1030000200030000   541188001315000008000000306KBZ BANK               CITY MART - S MMR11005231928010069600523000000000000000   10300001 00104100000000006150000000000000     
100   95050313710136610000000000042000000000042000002000000010410405231648250080295232710523000747423941   1030000200030000   541188001062000008000000314KBZ BANK               MARKETPLACE - MMR11005231648250080290523000000000000000   10300001 00104100000000010500000000000000     
100   62911028202232860000000000062084000000062084002000000010410405231133400083044369000523000747405432   1030000200030000   541188001022000008000000298KBZ BANK               CITY MART - M MMR11005231133400083040523000000000000000   10300001 00104100000000003725000000000000     
100   62911028202474000000000000017425000000017425002000000010410405231742570221524369000523000747426049   1030000200030000   541188001001000008000000008KBZ BANK               MARKETPLACE - MMR11005231742570221520523000000000000000   10300001 00104100000000001046000000000000     
100   62911028202177750000000000052030000000052030002000000010410405220327330007824369000522214209000782   1030000500030000   806220172406013008062201724GRAND HANTHA HOSPITAL  PTN           MMR11005220327330007820522000000000000000   10300001 00104100000000003122000000000000     
100   62443100322986690000000000087500000000087500002000000010410405231408529545738422630523547382052142   1030000900030000   581319001478190110000001075The Lord Yankin        YANGON        MMR11005231408529545730523000000000000000   10300001F00104100000000037188000000000000     
100   95050324850150480000000000070000000000070000002000000010410405230934595396292411310523214316539629   1040001600030000   598320000830000000010000596Regency Petrol Station Ygn           MMR11005230934595396290523000000000000000   10300001F00104100000000008400000000000000     
100   62443100372718280000000000023503000000023503002000000010410405220158090028489836560522214208002848   1030000500030000   598320001903000015172200019MAX ENERGY             PTN           MMR11005220158090028480522000000000000000   10300001 00104100000000002820000000000000     
100   95050318712627500000000000010000000000010000002000000010410405231211544154854735940523000007213104   1030000200030000   333800010001203104000003327KBZPay                 Yangon        MMR11005231211544154850523000000000000000   10300001F05104100000000002100000000000000     
100   62911028202221220000000000010000000000010000002000000010410405220532440026344369000522214212002634   1030000500030000   598320001403000015172200014MAX ENERGY             PTN           MMR11005220532440026340522000000000000000   10300001 00104100000000000300000000000000     
100   95050310750557450000000000030000000000030000002000000010410405220721120022957396350522214213002295   1030000500030000   598320001103000015172200011MAX ENERGY             PTN           MMR11005220721120022950522000000000000000   10300001 00104100000000003600000000000000     
100   62911028202294730000000000036750000000036750002000000010410405231050379505284369000523252201737142   1030000900030000   541119000128190110000000082Sein Gay Har Super Cen YANGON        MMR11005231050379505280523000000000000000   10300001F00104100000000002205000000000000     
100   95050316717221100000000000000980000000000980002000000010410405231144401440083388160523000007212983   1020000200030000   333400010001204104000000281Myanmar Soft-Gate Tech Yangon        MMR11005231144401440080523000000000000000   10300001F05104100000000000206000000000000     
100   95050323749862420000000000300000000000300000002000000010410405230644111411230879580523000007211027   1030000200030000   333800010001203104000003327KBZPay                 Yangon        MMR11005230644111411230523000000000000000   10300001F05104100000000063000000000000000     
100   95050316785465380000000000003920000000003920002000000010410405230241381138666759300523000007209031   1020000200030000   333400010001204104000000281Myanmar Soft-Gate Tech Yangon        MMR11005230241381138660523000000000000000   10300001F05104100000000000823000000000000     
100   62911028202693960000000000150000000000150000002000000010410405230702342065074369000523516311340142   1030000300030000   555510124685104519000020166Makro Myanmar                        MMR11005230702342065070523000000000000000   10300001 00104100000000009000000000000000     
100   62443100323428970000000000104650000000104650002000000010410405230928592080857964440523182591531142   1030000300030000   555510124689104519000020166Makro Myanmar                        MMR11005230928592080850523000000000000000   10300001 00104100000000025116000000000000     
100   95050323749862420000000000300000000000300000002000000010410405230643171317732617160523000007211002   1030000200030000   333800010001203104000003327KBZPay                 Yangon        MMR11005230643171317730523000000000000000   10300001F05104100000000063000000000000000     
100   95050329192229210000000001000000000001000000002000000010410405230708002065989142000523608411310142   1030000300030000   555510119008104519000016170Z N T Mobile                         MMR11005230708002065980523000000000000000   10300001 00104100000000240000000000000000     
100   62911028202225850000000000004800000000004800002000000010410405230707532065994369000523609411311142   1030000500030000   555610112532104519000010487Ocean Super Center St  ohn           MMR11005230707532065990523000000000000000   10300001 00104100000000000288000000000000     
100   95050324551230380000000000300000000000300000002000000010410405230250202020417816120523000007209071   1030000200030000   333800010001203104000003327KBZPay                 Yangon        MMR11005230250202020410523000000000000000   10300001F05104100000000063000000000000000     
100   95050323749862420000000000300000000000300000002000000010410405230710014001583759070523000007211220   1030000200030000   333800010001203104000003327KBZPay                 Yangon        MMR11005230710014001580523000000000000000   10300001F05104100000000063000000000000000     
100   95050312498129060000000000018620000000018620002000000010410405231237460746771686230523000007213200   1020000200030000   333400010001204104000000281Myanmar Soft-Gate Tech Yangon        MMR11005231237460746770523000000000000000   10300001F05104100000000003910000000000000     
100   95050317084233280000000000002940000000002940002000000010410405231139000900470338450523000007212967   1020000200030000   333400010001204104000000281Myanmar Soft-Gate Tech Yangon        MMR11005231139000900470523000000000000000   10300001F05104100000000000617000000000000     
100   95050319111666800000000000000980000000000980002000000010410405231241161116328068440523000007213216   1020000200030000   333400010001204104000000281Myanmar Soft-Gate Tech Yangon        MMR11005231241161116320523000000000000000   10300001F05104100000000000206000000000000     
100   62911028202161240000000000025770000000025770002000000010410405230952470358964369000523000747398901   1030000200030000   541188001024000008000000298KBZ BANK               CITY MART - M MMR11005230952470358960523000000000000000   10300001 00104100000000001546000000000000     
100   62911028202238150000000000063550000000063550002000000010410405230635392062644369000523262101345142   1030000500030000   555610103468104519000003420City Mart Yankin Cente 7             MMR11005230635392062640523000000000000000   10300001 00104100000000003813000000000000     
100   95030301100117720000000000065000000000065000002000000010410405230935580558464369000523000007212390   1030000200030000   333800010001203104000003327KBZPay                 Yangon        MMR11005230935580558460523000000000000000   10300001F05104100000000013650000000000000     
100   95050319996628650000000000000980000000000980002000000010410405230037480748228672790523000007208683   1020000200030000   333400010001204104000000281Myanmar Soft-Gate Tech Yangon        MMR11005230037480748220523000000000000000   10300001F05104100000000000206000000000000     
100   95050319928585020000000000001960000000001960002000000010410405230240161016171886950523000007209023   1020000200030000   333400010001204104000000281Myanmar Soft-Gate Tech Yangon        MMR11005230240161016170523000000000000000   10300001F05104100000000000412000000000000     
100   95050317343045830000000000000980000000000980002000000010410405231145541554363813620523000007212989   1020000200030000   333400010001204104000000281Myanmar Soft-Gate Tech Yangon        MMR11005231145541554360523000000000000000   10300001F05104100000000000206000000000000     
100   62911028202133940000000000030400000000030400002000000010410405232030540171744369000523000747430643   1030000200030000   541188001305000008000000325KBZ BANK               CITY MART - A MMR11005232030540171740523000000000000000   10300001 00104100000000001824000000000000     
100   95050312695033440000000000000980000000000980002000000010410405230732590259577077830523000007211391   1020000200030000   333400010001204104000000281Myanmar Soft-Gate Tech Yangon        MMR11005230732590259570523000000000000000   10300001F05104100000000000206000000000000     
100   95050312695033440000000000009800000000009800002000000010410405230738250825963943050523000007211438   1020000200030000   333400010001204104000000281Myanmar Soft-Gate Tech Yangon        MMR11005230738250825960523000000000000000   10300001F05104100000000002058000000000000     
100   95050323749862420000000000300000000000300000002000000010410405230639020902566007230523000007210981   1030000200030000   333800010001203104000003327KBZPay                 Yangon        MMR11005230639020902560523000000000000000   10300001F05104100000000063000000000000000     
100   95050317072727910000000000000980000000000980002000000010410405230046271627083715340523000007208707   1020000200030000   333400010001204104000000281Myanmar Soft-Gate Tech Yangon        MMR11005230046271627080523000000000000000   10300001F05104100000000000206000000000000     
100   95050322990383760000000000003200000000003200002000000010410405230924512081809106350523280071636142   1030000500030000   555610112655104519000010850City Express MCS 55                  MMR11005230924512081800523000000000000000   10300001 00104100000000000800000000000000     
100   95050315110306410000000000005000000000005000002000000010410405231331280128869841680523000007213358   1030000200030000   333800010001203104000003327KBZPay                 Yangon        MMR11005231331280128860523000000000000000   10300001F05104100000000001050000000000000     
100   95050328430660970000000000018394310000018394312000000010410405230734090409478730310523000007211390   1030000200030000   333300010001203104000003632Myanmar Tradenet Test  Yangon        MMR11005230734090409470523000000000000000   10300001F05104100000000010000000000000000     
100   95050310616516480000000000000980000000000980002000000010410405230244221422611716760523000007209047   1020000200030000   333400010001204104000000281Myanmar Soft-Gate Tech Yangon        MMR11005230244221422610523000000000000000   10300001F05104100000000000206000000000000     
100   95050324702000270000000001000000000001000000002000000010410405230709082066085837030523618421322142   1030000300030000   555510119008104519000016170Z N T Mobile                         MMR11005230709082066080523000000000000000   10300001 00104100000000240000000000000000     
100   62443100313002190000000000025000000000025000002000000010410405230534360436662227340523000007210493   1030000200030000   333800010001203104000003327KBZPay                 Yangon        MMR11005230534360436660523000000000000000   10300001F05104100000000005250000000000000     
100   95050314567080940000000000000980000000000980002000000010410405231334360436949416220523000007213364   1020000200030000   333400010001204104000000281Myanmar Soft-Gate Tech Yangon        MMR11005231334360436940523000000000000000   10300001F05104100000000000206000000000000     
100   95050312224678430000000000000980000000000980002000000010410405230737570757465680630523000007211435   1020000200030000   333400010001204104000000281Myanmar Soft-Gate Tech Yangon        MMR11005230737570757460523000000000000000   10300001F05104100000000000206000000000000     
100   95050319709462380000000000013000000000013000002000000010410405230240481048288496890523000007209016   1030000200030000   3338000100012031040000040022C2P (Myanmar) Co. Ltd Yangon        MMR11005230240481048280523000000000000000   10300001F05104100000000002730000000000000     
100   62443100306882420000000000040000000000040000002000000010410405230950092009754233990523000007212488   1030000200030000   333800010001203104000003327KBZPay                 Yangon        MMR11005230950092009750523000000000000000   10300001F05104100000000008400000000000000     
100   95050323749862420000000000300000000000300000002000000010410405230707143714338801620523000007211195   1030000200030000   333800010001203104000003327KBZPay                 Yangon        MMR11005230707143714330523000000000000000   10300001F05104100000000063000000000000000     
100   62443100306416880000000000042800000000042800002000000010410405221326000003220495470522214219000322   1030000500030000   581320195801000085813201958HARRYS BAR TAW WIN     PTN           MMR11005221326000003220522000000000000000   10300001 00104100000000018190000000000000     
100   95050311077567400000000000008650000000008650002000000010410405231154569521898139750523244241856142   1030000900030000   541119001587190110000001157Sein Gay Har Aung San- YANGONADON    MMR11005231154569521890523000000000000000   10300001F00104100000000002163000000000000     
100   62911028202401810000000000018600000000018600002000000010410405231200109522984369000523304301810142   1030000900030000   591219001116190110000000897Shwe Ohh Pharmacy St 4 YANGON        MMR11005231200109522980523000000000000000   10300001F00104100000000001116000000000000     
100   62911028202313470000000000081500000000081500002000000010410405230531042055134369000523495001251142   1030000300030000   555510124363104519000020166Makro Myanmar                        MMR11005230531042055130523000000000000000   10300001 00104100000000004890000000000000     
100   95050324702000270000000001000000000001000000002000000010410405230710022066214099460523629431320142   1030000300030000   555510119008104519000016170Z N T Mobile                         MMR11005230710022066210523000000000000000   10300001 00104100000000240000000000000000     
100   95050315005801680000000000000980000000000980002000000010410405230436100610751510910523000007210013   1020000200030000   333400010001204104000000281Myanmar Soft-Gate Tech Yangon        MMR11005230436100610750523000000000000000   10300001F05104100000000000206000000000000     
100   95050312695033440000000000019600000000019600002000000010410405230748331833972290570523000007211496   1020000200030000   333400010001204104000000281Myanmar Soft-Gate Tech Yangon        MMR11005230748331833970523000000000000000   10300001F05104100000000004116000000000000     
100   62911028202788350000000000010000000000010000002000000010410405230835010501064369000523000007211895   1030000200030000   333800010001203104000003327KBZPay                 Yangon        MMR11005230835010501060523000000000000000   10300001F05104100000000002100000000000000     
100   95050316812885810000000000000980000000000980002000000010410405231342441244720267140523000007213387   1020000200030000   333400010001204104000000281Myanmar Soft-Gate Tech Yangon        MMR11005231342441244720523000000000000000   10300001F05104100000000000206000000000000     
100   95050327192897240000000000000980000000000980002000000010410405230540001000667184790523000007210540   1020000200030000   333400010001204104000000281Myanmar Soft-Gate Tech Yangon        MMR11005230540001000660523000000000000000   10300001F05104100000000000206000000000000     
100   95030367537085740000000000000980000000000980002000000010410405230447271727194369000523000007210114   1020000200030000   333400010001204104000000281Myanmar Soft-Gate Tech Yangon        MMR11005230447271727190523000000000000000   10300001F05104100000000000206000000000000     
100   95030301100126550000000000037000000000037000002000000010410405191229070170054369000519213912017005   1030000600030000   554100002323315799420000474DENKO N.DAGON - 1      YANGON        MMR11005191229070170050519000000000000000   10300001 00104100000000001110000000000000     
100   95050321232876860000000000109000000000109000002000000010410405200948120374488892430520214009037448   1030000600030000   554100001865315799420001235DENKO NAY PYI TAW 2    NAYPYITAW     MMR11005200948120374480520000000000000000   10300001 00104100000000013080000000000000     
100   62443100311760720000000000068600000000068600002000000010410405200223430199672614810520214002019967   1030000600030000   554100002085315799420000471DENKO BAHAN            YANGON        MMR11005200223430199670520000000000000000   10300001 00104100000000008232000000000000     
100   62911028202907560000000000047000000000047000002000000010410405201216500201364369000520214012020136   1030000600030000   554100002085315799420000471DENKO BAHAN            YANGON        MMR11005201216500201360520000000000000000   10300001 00104100000000001410000000000000     
100   62911028202221220000000000010000000000010000002000000010410405192259160199224369000520214022019922   1030000600030000   554100002085315799420000471DENKO BAHAN            YANGON        MMR11005192259160199220520000000000000000   10300001 00104100000000000300000000000000     
100   62911028202397530000000000064000000000064000002000000010410405192236210207614369000520214022020761   1030000600030000   554100001212315799420000664DENKO TA TAR OO        TA TAR OO     MMR11005192236210207610520000000000000000   10300001 00104100000000001920000000000000     
100   62911028202393160000000000030000000000030000002000000010410405200437500103094369000520214004010309   1030000600030000   554100001218315799420000670DENKO MAWLAMYAING      MON STATE.    MMR11005200437500103090520000000000000000   10300001 00104100000000000900000000000000     
100   62911028202023630000000000077000000000077000002000000010410405200436290164934369000520214004016493   1030000600030000   554100000741315799420000320DENKO THEIK PAN        MANDALAY      MMR11005200436290164930520000000000000000   10300001 00104100000000002310000000000000     
100   95050323749862420000000000300000000000300000002000000010410405230649071907484610030523000007211062   1030000200030000   333800010001203104000003327KBZPay                 Yangon        MMR11005230649071907480523000000000000000   10300001F05104100000000063000000000000000     
100   95050312057403150000000000003000000000003000002000000010410405230618234823068000100523000007210827   1030000200030000   3338000100012031040000040022C2P (Myanmar) Co. Ltd Yangon        MMR11005230618234823060523000000000000000   10300001F05104100000000000630000000000000     
100   95050312498129060000000000002940000000002940002000000010410405230259322932472688470523000007209123   1020000200030000   333400010001204104000000281Myanmar Soft-Gate Tech Yangon        MMR11005230259322932470523000000000000000   10300001F05104100000000000617000000000000     
100   95050319928585020000000000000980000000000980002000000010410405230500293029640830140523000007210228   1020000200030000   333400010001204104000000281Myanmar Soft-Gate Tech Yangon        MMR11005230500293029640523000000000000000   10300001F05104100000000000206000000000000     
100   95050315448852350000000000110000000000110000002000000010410405231006233623460843930523000007212609   1030000200030000   333800010001203104000003327KBZPay                 Yangon        MMR11005231006233623460523000000000000000   10300001F05104100000000023100000000000000     
100   95030367537085740000000000000980000000000980002000000010410405231421445144914369000523000007213486   1020000200030000   333400010001204104000000281Myanmar Soft-Gate Tech Yangon        MMR11005231421445144910523000000000000000   10300001F05104100000000000206000000000000     
100   95050315743141220000000000000980000000000980002000000010410405230804163416778304830523000007211640   1020000200030000   333400010001204104000000281Myanmar Soft-Gate Tech Yangon        MMR11005230804163416770523000000000000000   10300001F05104100000000000206000000000000     
100   95030390626214130000000000009300000000009300002000000010410405230310544054894369000523000007209222   1030000200030000   333800010001203104000003327KBZPay                 Yangon        MMR11005230310544054890523000000000000000   10300001F05104100000000001953000000000000     
100   95050322715181550000000000048000000000048000002000000010410405201206150210775076880520214012021077   1030000600030000   554100002319315799420000477DENKO INSEIN           YANGON        MMR11005201206150210770520000000000000000   10300001 00104100000000005760000000000000     
100   62911028202023630000000000098000000000098000002000000010410405200510000164994369000520214005016499   1030000600030000   554100000741315799420000320DENKO THEIK PAN        MANDALAY      MMR11005200510000164990520000000000000000   10300001 00104100000000002940000000000000     
100   95050315296997180000000000022000000000022000002000000010410405201207570213506729370520214012021350   1030000600030000   554100000747315799420000325DENKO MDY 26           YANGON        MMR11005201207570213500520000000000000000   10300001 00104100000000002640000000000000     
100   62443100302523870000000000044000000000044000002000000010410405201202350516498381850520214012051649   1030000600030000   554100000969315799420000481DENKO NORTH OKKALAPA   YANGON        MMR11005201202350516490520000000000000000   10300001 00104100000000005280000000000000     
100   95030310098554020000000000039000000000039000002000000010410405220753380017514369000522214214001751   1030000500030000   598320001602000015172200016MAX ENERGY             PTN           MMR11005220753380017510522000000000000000   10300001 00104100000000001170000000000000     
100   62443100301716860000000000000980000000000980002000000010410405230523385338007099690523000007210423   1020000200030000   333400010001204104000000281Myanmar Soft-Gate Tech Yangon        MMR11005230523385338000523000000000000000   10300001F05104100000000000206000000000000     
100   95050322420590810000000000050000000000050000002000000010410405200115220515791728190520214001051579   1030000600030000   554100000969315799420000481DENKO NORTH OKKALAPA   YANGON        MMR11005200115220515790520000000000000000   10300001 00104100000000006000000000000000     
100   62911028202668300000000000047700000000047700002000000010410405231032285437374369000523214317543737   1040001600030000   591220000259000000010000247Shwe Ohh Pharmacy (KKT Yangon        MMR11005231032285437370523000000000000000   10300001F00104100000000002862000000000000     
100   95050328156626340000000000010000000000010000002000000010410405231318104810035941050523000007213321   1030000200030000   333800010001203104000003327KBZPay                 Yangon        MMR11005231318104810030523000000000000000   10300001F05104100000000002100000000000000     
100   62911028202150010000000000030000000000030000002000000010410405230526285269424369000523214312526942   1040001600030000   598320000838000000010000600Regency Petrol Station Ygn           MMR11005230526285269420523000000000000000   10300001F00104100000000000900000000000000     
100   95050314307746340000000000000980000000000980002000000010410405231007213721775886480523000007212617   1020000200030000   333400010001204104000000281Myanmar Soft-Gate Tech Yangon        MMR11005231007213721770523000000000000000   10300001F05104100000000000206000000000000     
100   62443100335647210000000000002940000000002940002000000010410405230606253625685375900523000007210747   1020000200030000   333400010001204104000000281Myanmar Soft-Gate Tech Yangon        MMR11005230606253625680523000000000000000   10300001F05104100000000000617000000000000     
100   95050312498129060000000000000980000000000980002000000010410405230857232723616907630523000007212069   1020000200030000   333400010001204104000000281Myanmar Soft-Gate Tech Yangon        MMR11005230857232723610523000000000000000   10300001F05104100000000000206000000000000     
100   62911028202163630000000000035000000000035000002000000010410405231239515555294369000523214319555529   1040001600030000   598320000915000000010000664MMTM - North Dagon     Ygn           MMR11005231239515555290523000000000000000   10300001F00104100000000001050000000000000     
100   95050328074436620000000000004900000000004900002000000010410405230928595859951354510523000007212338   1020000200030000   333400010001204104000000281Myanmar Soft-Gate Tech Yangon        MMR11005230928595859950523000000000000000   10300001F05104100000000001029000000000000     
100   95050317084233280000000000002940000000002940002000000010410405230613174317847028390523000007210793   1020000200030000   333400010001204104000000281Myanmar Soft-Gate Tech Yangon        MMR11005230613174317840523000000000000000   10300001F05104100000000000617000000000000     
100   95050328074436620000000000002940000000002940002000000010410405230938530853589021250523000007212406   1020000200030000   333400010001204104000000281Myanmar Soft-Gate Tech Yangon        MMR11005230938530853580523000000000000000   10300001F05104100000000000617000000000000     
100   95050329613303740000000000020000000000020000002000000010410405230647371737727574620523000007211052   1030000200030000   333800010001203104000003327KBZPay                 Yangon        MMR11005230647371737720523000000000000000   10300001F05104100000000004200000000000000     
100   95050324773225760000000000050000000000050000002000000010410405231619484948106649390523000007213780   1030000200030000   333800010001203104000003327KBZPay                 Yangon        MMR11005231619484948100523000000000000000   10300001F05104100000000010500000000000000     
100   62911028202523430000000000027950000000027950002000000010410405220400030001754369000522214210000175   1030000500030000   591220012101014405912200121SHWE OHH PHARMACY      PTN           MMR11005220400030001750522000000000000000   10300001 00104100000000001677000000000000     
100   95050324154190880000000000025000000000025000002000000010410405221002040019651758130522214216001965   1030000500030000   598320002104000015172200021MAX ENERGY             PTN           MMR11005221002040019650522000000000000000   10300001 00104100000000003000000000000000     
100   62443101053241940000000000034000000000034000002000000010410405192352570868281302700520214023086828   1030000600030000   554100000946315799420000471DENKO BAHAN            YANGON        MMR11005192352570868280520000000000000000   10300001 00104100000000004080000000000000     
100   95030301100126220000000000050000000000050000002000000010410405231204373437544369000523000007213072   1030000200030000   333800010001203104000003327KBZPay                 Yangon        MMR11005231204373437540523000000000000000   10300001F05104100000000010500000000000000     
100   62911028202221220000000000010000000000010000002000000010410405192301130199234369000520214023019923   1030000600030000   554100002085315799420000471DENKO BAHAN            YANGON        MMR11005192301130199230520000000000000000   10300001 00104100000000000300000000000000     
100   95050319216089110000000000006000000000006000002000000010410405230057439381618502600523419270743142   1030000900030000   581219000715190110000000546Akkhaya Tea House(Dago YANGON        MMR11005230057439381610523000000000000000   10300001F00104100000000002550000000000000     
100   95050319996628650000000000000980000000000980002000000010410405230007553755235027440523000007208654   1020000200030000   333400010001204104000000281Myanmar Soft-Gate Tech Yangon        MMR11005230007553755230523000000000000000   10300001F05104100000000000206000000000000     
100   95030367537085740000000000000980000000000980002000000010410405231212154215274369000523000007213103   1020000200030000   333400010001204104000000281Myanmar Soft-Gate Tech Yangon        MMR11005231212154215270523000000000000000   10300001F05104100000000000206000000000000     
100   95050318741700180000000000000980000000000980002000000010410405230218424842019814700523000007208950   1020000200030000   333400010001204104000000281Myanmar Soft-Gate Tech Yangon        MMR11005230218424842010523000000000000000   10300001F05104100000000000206000000000000     
100   62911028202169750000000000006350000000006350002000000010410405230211375182144369000523214309518214   1040001600030000   591220000269000000010000257Shwe Ohh Pharmacy (Tam Yangon        MMR11005230211375182140523000000000000000   10300001F00104100000000000381000000000000     
100   62911028202788350000000000010000000000010000002000000010410405230624535453374369000523000007210885   1030000200030000   333800010001203104000003327KBZPay                 Yangon        MMR11005230624535453370523000000000000000   10300001F05104100000000002100000000000000     
100   62443100301716860000000000005000000000005000002000000010410405231409253925365372970523000007213467   1030000200030000   333800010001203104000003327KBZPay                 Yangon        MMR11005231409253925360523000000000000000   10300001F05104100000000001050000000000000     
100   95050323133124350000000000030200000000030200002000000010410405231221195119107785560523000007213131   1030000200030000   333800010001203104000003327KBZPay                 Yangon        MMR11005231221195119100523000000000000000   10300001F05104100000000006342000000000000     
