100   62443101093150400000000000016600000000016600002000000010410405250034119807841396300525728040711144   1030000900030000   581219000528190110000000376Shwepalin (Hantharwadd YANGONUT      MMR11005250034119807840525000000000000000   10300001F00104100000000007055000000000000     
100   95050324154190880000000000019000000000019000002000000010410405251033529943306768610525319031752144   1030000900030000   573219001177190110000000933UNIQUE Kabaraye        YANGON        MMR11005251033529943300525000000000000000   10300001F00104100000000004560000000000000     
100   62911028202469800000000000062100000000062100002000000010410405250617096632924369000525214513663292   1040001600030000   591220000276000000010000264Shwe Ohh Pharmacy (YGH Yangon        MMR11005250617096632920525000000000000000   10300001F00104100000000003726000000000000     
100   62443100374797770000000000120000000000120000002000000010410405251030596768069818310525214517676806   1040001600030000   806220000092000000010000088Dr Z Aesthetics & Dent Yangon        MMR11005251030596768060525000000000000000   10300001F00104100000000028800000000000000     
100   62443100315110470000000000007150000000007150002000000010410405250849489915567267750525598191548144   1030000900030000   541119001175190110000000932OCEAN HTY CITY CARE    YANGONTHARYA  MMR11005250849489915560525000000000000000   10300001F00104100000000001788000000000000     
100   62911028202468080000000000066000000000066000002000000010410405251043349945804369000525481131734144   1030000900030000   541119000129190110000000082Sein Gay Har Super Cen YANGON        MMR11005251043349945800525000000000000000   10300001F00104100000000003960000000000000     
100   62911028202004410000000000035880000000035880002000000010410405231303450087694369000523214313008769   1030000600030000   581200000525315799420000142WINELINKRESTAURANTBAR  YANGON        MMR11005231303450087690523000000000000000   10300001 00104100000000003660000000000000     
100   62911028202527490000000000028850000000028850002000000010410405231015450000684369000523214310000068   1030000600030000   5499000024173157994200016871 STOP S M PIN LONE    YANGON        MMR11005231015450000680523000000000000000   10300001 00104100000000002943000000000000     
100   95030301100126550000000000045000000000045000002000000010410405231101500175804369000523214311017580   1030000600030000   554100002323315799420000474DENKO N.DAGON - 1      YANGON        MMR11005231101500175800523000000000000000   10300001 00104100000000001350000000000000     
100   95050329252108030000000000019500000000019500002000000010410405231454170176113174230523214314017611   1030000600030000   554100002323315799420000474DENKO N.DAGON - 1      YANGON        MMR11005231454170176110523000000000000000   10300001 00104100000000002340000000000000     
100   62443100333488440000000000071100000000071100002000000010410405250705110033500336090525000747501263   1030000200030000   599988000601000008000003442KBZ BANK               SWEETY HOME ( MMR11005250705110033500525000000000000000   10300001 00104100000000017064000000000000     
100   62911028202091860000000000000833000000000833002000000010410405250505293529464369000525000007220888   1020000200030000   333400010001204104000000281Myanmar Soft-Gate Tech Yangon        MMR11005250505293529460525000000000000000   10300001F05104100000000000175000000000000     
100   95050314302558730000000000005880000000005880002000000010410405250617014701725159030525000007221405   1020000200030000   333400010001204104000000281Myanmar Soft-Gate Tech Yangon        MMR11005250617014701720525000000000000000   10300001F05104100000000001235000000000000     
100   95050311182936420000000000004900000000004900002000000010410405251121085108061662820525000007223662   1020000200030000   333400010001204104000000281Myanmar Soft-Gate Tech Yangon        MMR11005251121085108060525000000000000000   10300001F05104100000000001029000000000000     
100   62443100302523870000000000043000000000043000002000000010410405240300000520451246820524214403052045   1030000600030000   554100000969315799420000481DENKO NORTH OKKALAPA   YANGON        MMR11005240300000520450524000000000000000   10300001 00104100000000005160000000000000     
100   62911028202260160000000000045000000000045000002000000010410405250717259890504369000525140471325144   1030000900030000   554119000346190110000000213New Day Energy SOK     YANGONOKKALAP MMR11005250717259890500525000000000000000   10300001F00104100000000001350000000000000     
100   62911028202651050000000000033250000000033250002000000010410405251512310111904369000525000747507577   1030000200030000   541188001002000008000000008KBZ BANK               MARKETPLACE - MMR11005251512310111900525000000000000000   10300001 00104100000000001995000000000000     
100   95050314327553180000000000010000000000010000002000000010410405251119414941938187650525000007223659   1030000200030000   333800010001203104000003327KBZPay                 Yangon        MMR11005251119414941930525000000000000000   10300001F05104100000000002100000000000000     
100   62911028202442170000000000021700000000021700002000000010410405250941419929234369000525426111641144   1030000900030000   541119000882190110000000084Pro (1) Global (Pazund YANGONARTAUNG MMR11005250941419929230525000000000000000   10300001F00104100000000001302000000000000     
100   95050317728825080000000000016150000000016150002000000010410405250615159875995584500525307451215144   1030000900030000   541119000120190110000000080Sein Gay Har BAK       YANGONADA     MMR11005250615159875990525000000000000000   10300001F00104100000000004038000000000000     
100   95030308100010080000000000000980000000000980002000000010410405250319364936814369000525000007219963   1020000200030000   333400010001204104000000281Myanmar Soft-Gate Tech Yangon        MMR11005250319364936810525000000000000000   10300001F05104100000000000206000000000000     
100   62911028202286990000000000040000000000040000002000000010410405240640160033154369000524214413003315   1030000500030000   598320001903000015172200019MAX ENERGY             PTN           MMR11005240640160033150524000000000000000   10300001 00104100000000001200000000000000     
100   95050314327553180000000000050000000000050000002000000010410405250716014601761612560525000007221868   1030000200030000   333800010001203104000003327KBZPay                 Yangon        MMR11005250716014601760525000000000000000   10300001F05104100000000010500000000000000     
100   95050313968650950000000000000980000000000980002000000010410405251026405640961874390525000007223437   1020000200030000   333400010001204104000000281Myanmar Soft-Gate Tech Yangon        MMR11005251026405640960525000000000000000   10300001F05104100000000000206000000000000     
100   95050324133333980000000000010000000000010000002000000010410405241149590520167351960524214411052016   1030000600030000   554100001756315799420001137DENKO NORTH DAGON 2    YANGON        MMR11005241149590520160524000000000000000   10300001 00104100000000001200000000000000     
100   62911028202003590000000000008900000000008900002000000010410405251255349975737015110525276251934144   1030000900030000   541119000147190110000000083SeinGayHarParami Cente YANGON        MMR11005251255349975730525000000000000000   10300001F00104100000000000534000000000000     
100   95050318057347910000000000002940000000002940002000000010410405250834290429187125120525000007222584   1020000200030000   333400010001204104000000281Myanmar Soft-Gate Tech Yangon        MMR11005250834290429180525000000000000000   10300001F05104100000000000617000000000000     
100   62443100316099160000000000070000000000070000002000000010410405240810520027959495450524214414002795   1030000500030000   598320001204000015172200012MAX ENERGY             PTN           MMR11005240810520027950524000000000000000   10300001 00104100000000008400000000000000     
100   95050313836159580000000000001960000000001960002000000010410405242353162316657070120525000007219240   1020000200030000   333400010001204104000000281Myanmar Soft-Gate Tech Yangon        MMR11005242353162316650525000000000000000   10300001F05104100000000000412000000000000     
100   95050312498129060000000000000980000000000980002000000010410405250149461946855225610525000007219453   1020000200030000   333400010001204104000000281Myanmar Soft-Gate Tech Yangon        MMR11005250149461946850525000000000000000   10300001F05104100000000000206000000000000     
100   62443100303702210000000000093000000000093000002000000010410405251112519953905563490525005421751144   1030000900030000   541119001284190110000000963City Mart SPL C 9      YANGONMYOTHIT MMR11005251112519953900525000000000000000   10300001F00104100000000023250000000000000     
100   62443100392426520000000000010000000000010000002000000010410405251216314631225706070525000007223930   1030000200030000   333800010001203104000003327KBZPay                 Yangon        MMR11005251216314631220525000000000000000   10300001F05104100000000002100000000000000     
100   95050310397364970000000000000980000000000980002000000010410405251218444844276131530525000007223938   1020000200030000   333400010001204104000000281Myanmar Soft-Gate Tech Yangon        MMR11005251218444844270525000000000000000   10300001F05104100000000000206000000000000     
100   95030361482647470000000000019853000000019853002000000010410405241141060001464369000524214418000146   1030000500030000   581220214401000085812202144CHILLI POT MALA XIANG  PTN           MMR11005241141060001460524000000000000000   10300001 00104100000000002025000000000000     
100   62443100358839880000000000015000000000015000002000000010410405240615470002602630230524214412000260   1030000500030000   799220099801013607992200998YANGON GOLF CLUB       PTN           MMR11005240615470002600524000000000000000   10300001 00104100000000003600000000000000     
100   62443100393841160000000000300000000000300000002000000010410405250404403440296078940525000007220366   1030000200030000   333800010001203104000003327KBZPay                 Yangon        MMR11005250404403440290525000000000000000   10300001F05104100000000063000000000000000     
100   95050319532433550000000000005030000000005030002000000010410405251055282528511591550525000007223551   1030000200030000   333800010001203104000003327KBZPay                 Yangon        MMR11005251055282528510525000000000000000   10300001F05104100000000001056000000000000     
100   62911028202196800000000000010100000000010100002000000010410405241025580004534369000524214416000453   1030000500030000   503920036602000015039200366PRO-1 HOME CENTER      PTN           MMR11005241025580004530524000000000000000   10300001 00104100000000000606000000000000     
100   62443100330048680000000000036003000000036003002000000010410405240913500025375048580524214415002537   1030000500030000   598320001102000015172200011MAX ENERGY             PTN           MMR11005240913500025370524000000000000000   10300001 00104100000000004320000000000000     
100   62911028202668300000000000020000000000020000002000000010410405241016070029514369000524214416002951   1030000500030000   598320001403000015172200014MAX ENERGY             PTN           MMR11005241016070029510524000000000000000   10300001 00104100000000000600000000000000     
100   62911028202150190000000000040000000000040000002000000010410405240706020029094369000524214413002909   1030000500030000   598320001302000015172200013MAX ENERGY             PTN           MMR11005240706020029090524000000000000000   10300001 00104100000000001200000000000000     
100   95030301100126550000000000218873000000218873002000000010410405240633350008544369000524214413000854   1030000500030000   581220021301000015812200213THAI 47                PTN           MMR11005240633350008540524000000000000000   10300001 00104100000000022325000000000000     
100   62911028202397530000000000095100000000095100002000000010410405240235510021674369000524214409002167   1030000500030000   598320002702000015172200027MAX ENERGY             PTN           MMR11005240235510021670524000000000000000   10300001 00104100000000002853000000000000     
100   62443100333488440000000000015000000000015000002000000010410405240942300028892387480524214416002889   1030000500030000   598320001301000015172200013MAX ENERGY             PTN           MMR11005240942300028890524000000000000000   10300001 00104100000000001800000000000000     
100   62443101003317490000000000103400000000103400002000000010410405240228120000742133440524214408000074   1030000500030000   806220081701000018062200817RIGHT HEALTH CARE CO.  PTN           MMR11005240228120000740524000000000000000   10300001 00104100000000024816000000000000     
100   95050319207947610000000000003850000000003850002000000010410405241252170025865493840524000346701982   1030000300030000   541100000218000000000000113CB BANK                ONESTOP KITCH MMR11005241252170025860524000000000000000   10300001F00104100000000000963000000000000     
100   62911028202088990000000000030000000000030000002000000010410405240308270054894369000524214403005489   1030000600030000   554100001211315799420000663DENKO  TETKONE         TETKONE       MMR11005240308270054890524000000000000000   10300001 00104100000000000900000000000000     
100   62911028202194090000000000023005000000023005002000000010410405240409590025374369000524214410002537   1030000500030000   598320001202000015172200012MAX ENERGY             PTN           MMR11005240409590025370524000000000000000   10300001 00104100000000000690000000000000     
100   95030308100010080000000000000980000000000980002000000010410405250316014601844369000525000007219918   1020000200030000   333400010001204104000000281Myanmar Soft-Gate Tech Yangon        MMR11005250316014601840525000000000000000   10300001F05104100000000000206000000000000     
100   95050311382087030000000000003000000000003000002000000010410405251345131513848468170525000007224323   1030000200030000   333800010001203104000003327KBZPay                 Yangon        MMR11005251345131513840525000000000000000   10300001F05104100000000000630000000000000     
100   95050315690875920000000000057650000000057650002000000010410405250721402254704519640525323511339144   1030000500030000   555610118962104519000016137City Mart South Okkala WZYD BR       MMR11005250721402254700525000000000000000   10300001 00104100000000014413000000000000     
100   95050315743141220000000000003920000000003920002000000010410405250553302330777500400525000007221217   1020000200030000   333400010001204104000000281Myanmar Soft-Gate Tech Yangon        MMR11005250553302330770525000000000000000   10300001F05104100000000000823000000000000     
100   95050315424817550000000000001960000000001960002000000010410405251148371837739889580525000007223812   1020000200030000   333400010001204104000000281Myanmar Soft-Gate Tech Yangon        MMR11005251148371837730525000000000000000   10300001F05104100000000000412000000000000     
100   62443100393841160000000000300000000000300000002000000010410405250403253325130973160525000007220339   1030000200030000   333800010001203104000003327KBZPay                 Yangon        MMR11005250403253325130525000000000000000   10300001F05104100000000063000000000000000     
100   95050325139996190000000000003300000000003300002000000010410405250310484048196076580525000007219834   1030000200030000   333300010001203104000003632Myanmar Tradenet Test  Yangon        MMR11005250310484048190525000000000000000   10300001F05104100000000010000000000000000     
100   95050314570621780000000000001960000000001960002000000010410405250308233823546502080525000007219833   1020000200030000   333400010001204104000000281Myanmar Soft-Gate Tech Yangon        MMR11005250308233823540525000000000000000   10300001F05104100000000000412000000000000     
100   95030308100042590000000000065000000000065000002000000010410405241106100023884369000524214417002388   1030000500030000   598320001701000015172200017MAX ENERGY             PTN           MMR11005241106100023880524000000000000000   10300001 00104100000000001950000000000000     
100   95050311823681970000000000016000000000016000002000000010410405240951480001316713650524214416000131   1030000500030000   569120170701008205691201707ESCORT                 PTN           MMR11005240951480001310524000000000000000   10300001 00104100000000003840000000000000     
100   62443100300743690000000000025000000000025000002000000010410405241232210002702729590524214419000270   1030000500030000   573220039701000015732200397REMAX                  PTN           MMR11005241232210002700524000000000000000   10300001 00104100000000006000000000000000     
100   95030308100042590000000000030000000000030000002000000010410405240337330009934369000524214410000993   1030000500030000   598320001702000015172200017MAX ENERGY             PTN           MMR11005240337330009930524000000000000000   10300001 00104100000000000900000000000000     
100   62911028202490830000000000070000000000070000002000000010410405240528450027714369000524214411002771   1030000500030000   598320001204000015172200012MAX ENERGY             PTN           MMR11005240528450027710524000000000000000   10300001 00104100000000002100000000000000     
100   62911028202335820000000000040000000000040000002000000010410405241151290056414369000524214411005641   1030000600030000   554100000744315799420000322DENKO AMARAPURA-PACHI  MANDALAY      MMR11005241151290056410524000000000000000   10300001 00104100000000001200000000000000     
100   62911028202703370000000000040000000000040000002000000010410405240810400010214369000524214414001021   1030000500030000   598320001702000015172200017MAX ENERGY             PTN           MMR11005240810400010210524000000000000000   10300001 00104100000000001200000000000000     
100   62911028202304220000000000067700000000067700002000000010410405240326190004694369000524214409000469   1030000500030000   503920036608000015039200366PRO-1 HOME CENTER      PTN           MMR11005240326190004690524000000000000000   10300001 00104100000000004062000000000000     
100   95050319928585020000000000001960000000001960002000000010410405250947481748230597970525000007223239   1020000200030000   333400010001204104000000281Myanmar Soft-Gate Tech Yangon        MMR11005250947481748230525000000000000000   10300001F05104100000000000412000000000000     
100   95030301100354740000000000003000000000003000002000000010410405250042071207644369000525000007219301   1030000200030000   333800010001203104000003327KBZPay                 Yangon        MMR11005250042071207640525000000000000000   10300001F05104100000000000630000000000000     
100   95050314534800510000000000000985000000000985002000000010410405251142071207980740550525000007223768   1020000200030000   333400010001204104000000281Myanmar Soft-Gate Tech Yangon        MMR11005251142071207980525000000000000000   10300001F05104100000000000207000000000000     
100   95050318712627500000000000004900000000004900002000000010410405250453122312676433140525000007220773   1020000200030000   333400010001204104000000281Myanmar Soft-Gate Tech Yangon        MMR11005250453122312670525000000000000000   10300001F05104100000000001029000000000000     
100   95050314327553180000000000030000000000030000002000000010410405251206033603473507370525000007223892   1030000200030000   333800010001203104000003327KBZPay                 Yangon        MMR11005251206033603470525000000000000000   10300001F05104100000000006300000000000000     
100   95050316067768680000000000001960000000001960002000000010410405251256342634355634760525000007224115   1020000200030000   333400010001204104000000281Myanmar Soft-Gate Tech Yangon        MMR11005251256342634350525000000000000000   10300001F05104100000000000412000000000000     
100   62911028202473840000000000020950000000020950002000000010410405250818562260684369000525924481407144   1030000500030000   555610112245104519000010487Ocean Super Center St  ohn           MMR11005250818562260680525000000000000000   10300001 00104100000000001257000000000000     
100   95050316067768680000000000000980000000000980002000000010410405251254572457325209300525000007224110   1020000200030000   333400010001204104000000281Myanmar Soft-Gate Tech Yangon        MMR11005251254572457320525000000000000000   10300001F05104100000000000206000000000000     
100   95030398701797940000000000017450000000017450002000000010410405241025110007264369000524214416000726   1030000500030000   531120155712000045311201557GAMONE PWINT           PTN           MMR11005241025110007260524000000000000000   10300001 00104100000000001047000000000000     
100   95050324154190880000000000018000000000018000002000000010410405240309510018920104910524214409001892   1030000500030000   598320002103000015172200021MAX ENERGY             PTN           MMR11005240309510018920524000000000000000   10300001 00104100000000002160000000000000     
100   62911028202161240000000000030000000000030000002000000010410405240338090027594369000524214410002759   1030000500030000   598320001204000015172200012MAX ENERGY             PTN           MMR11005240338090027590524000000000000000   10300001 00104100000000000900000000000000     
100   62911028202778600000000000090000000000090000002000000010410405240612200105224369000524214406010522   1030000600030000   554100000757315799420000328DENKO  HTONE BO        MANDALAY      MMR11005240612200105220524000000000000000   10300001 00104100000000002700000000000000     
100   62911028202708080000000000030000000000030000002000000010410405240321090019124369000524214409001912   1030000500030000   598320002004000015172200020MAX ENERGY             PTN           MMR11005240321090019120524000000000000000   10300001 00104100000000000900000000000000     
100   62911028202440680000000000001950000000001950002000000010410405240157320002174369000524214408000217   1030000500030000   591220014301014405912200143SHWE OHH PHARMACY      PTN           MMR11005240157320002170524000000000000000   10300001 00104100000000000117000000000000     
100   95050324247403260000000000137000000000137000002000000010410405240546260004347247290524214412000434   1030000500030000   481220073301005904812200733TECHNOLAND COMPUTER TR PTN           MMR11005240546260004340524000000000000000   10300001 00104100000000032880000000000000     
100   62911028202448030000000000120000000000120000002000000010410405240538580008824369000524214405000882   1030000600030000   504700002375315799420001653EVERGREEN DENTAL CARE  YANGON        MMR11005240538580008820524000000000000000   10300001 00104100000000007200000000000000     
100   95050314759815990000000000090000000000090000002000000010410405250104173417220616600525000007219322   1030000200030000   333800010001203104000003327KBZPay                 Yangon        MMR11005250104173417220525000000000000000   10300001F05104100000000018900000000000000     
100   62443100328070970000000000010000000000010000002000000010410405251117422282374287030525271511709144   1030000500030000   555610108771104519000003821City Mart North Point  enter         MMR11005251117422282370525000000000000000   10300001 00104100000000002500000000000000     
100   62443100333488440000000000010000000000010000002000000010410405250339412231450685590525957091040144   1030000500030000   555610121914104519000018359City Express MCS 114                 MMR11005250339412231450525000000000000000   10300001 00104100000000002500000000000000     
100   95050319161596230000000000000980000000000980002000000010410405251248451845449535430525000007224076   1020000200030000   333400010001204104000000281Myanmar Soft-Gate Tech Yangon        MMR11005251248451845440525000000000000000   10300001F05104100000000000206000000000000     
100   95050329213164970000000000002940000000002940002000000010410405251450112011647545890525000007224547   1020000200030000   333400010001204104000000281Myanmar Soft-Gate Tech Yangon        MMR11005251450112011640525000000000000000   10300001F05104100000000000617000000000000     
100   95050318057347910000000000000980000000000980002000000010410405250252552255815154300525000007219682   1020000200030000   333400010001204104000000281Myanmar Soft-Gate Tech Yangon        MMR11005250252552255810525000000000000000   10300001F05104100000000000206000000000000     
100   95050311382087030000000000000980000000000980002000000010410405251245301530869109970525000007224064   1020000200030000   333400010001204104000000281Myanmar Soft-Gate Tech Yangon        MMR11005251245301530860525000000000000000   10300001F05104100000000000206000000000000     
100   95050312240830690000000000000980000000000980002000000010410405251409293929974142080525000007224415   1020000200030000   333400010001204104000000281Myanmar Soft-Gate Tech Yangon        MMR11005251409293929970525000000000000000   10300001F05104100000000000206000000000000     
100   62911028202446540000000000047000000000047000002000000010410405240112380027404369000524214407002740   1030000500030000   598320001204000015172200012MAX ENERGY             PTN           MMR11005240112380027400524000000000000000   10300001 00104100000000001410000000000000     
100   95050317903887690000000000013350000000013350002000000010410405241117500032524933070524214417003252   1030000500030000   531120156007000045311201560GAMONE PWINT           PTN           MMR11005241117500032520524000000000000000   10300001 00104100000000003204000000000000     
100   62911028202423360000000000030000000000030000002000000010410405241055060782474369000524214410078247   1030000600030000   554100000955315799420000477DENKO INSEIN           YANGON        MMR11005241055060782470524000000000000000   10300001 00104100000000000900000000000000     
100   95050326689257240000000000038150000000038150002000000010410405241222090234078971200524000346698429   1030000300030000   531100000794000000000000540CB BANK                CAPITAL SUPER MMR11005241222090234070524000000000000000   10300001F00104100000000009156000000000000     
100   95050324133333980000000000024000000000024000002000000010410405240212580518884096500524214402051888   1030000600030000   554100001756315799420001137DENKO NORTH DAGON 2    YANGON        MMR11005240212580518880524000000000000000   10300001 00104100000000002880000000000000     
100   95050324411430900000000000020000000000020000002000000010410405240442510879046920700524214404087904   1030000600030000   554100000946315799420000471DENKO BAHAN            YANGON        MMR11005240442510879040524000000000000000   10300001 00104100000000002400000000000000     
100   62443100379321630000000000134200000000134200002000000010410405240444530380781878150524214404038078   1030000600030000   554100001003315799420000497DENKO KONE TA LA PAUNG YANGON        MMR11005240444530380780524000000000000000   10300001 00104100000000016104000000000000     
100   62911028202204560000000000014000000000014000002000000010410405232356110211234369000524214423021123   1030000600030000   554100002085315799420000471DENKO BAHAN            YANGON        MMR11005232356110211230524000000000000000   10300001 00104100000000000420000000000000     
100   95050313400081980000000000003000000000003000002000000010410405251310544054321734130525000007224165   1030000200030000   333800010001203104000003327KBZPay                 Yangon        MMR11005251310544054320525000000000000000   10300001F05104100000000000630000000000000     
100   95050310427855490000000000002940000000002940002000000010410405251438300830111021060525000007224528   1020000200030000   333400010001204104000000281Myanmar Soft-Gate Tech Yangon        MMR11005251438300830110525000000000000000   10300001F05104100000000000617000000000000     
100   62911028202045260000000000013500000000013500002000000010410405250939372270034369000525940091602144   1030000500030000   555610120978104519000017741City Express MCS 64                  MMR11005250939372270030525000000000000000   10300001 00104100000000000810000000000000     
100   62911028202000450000000000002940000000002940002000000010410405250403303330964369000525000007220358   1020000200030000   333400010001204104000000281Myanmar Soft-Gate Tech Yangon        MMR11005250403303330960525000000000000000   10300001F05104100000000000617000000000000     
100   62443101023815100000000000007600000000007600002000000010410405251209072287549606750525813391832144   1030000500030000   555610114572104519000012532City Mart Ahlone Branc               MMR11005251209072287540525000000000000000   10300001 00104100000000001900000000000000     
100   95030367537085740000000000000980000000000980002000000010410405251215244524776754200525000007223920   1020000200030000   333400010001204104000000281Myanmar Soft-Gate Tech Yangon        MMR11005251215244524770525000000000000000   10300001F05104100000000000206000000000000     
100   95050312240830690000000000000980000000000980002000000010410405251413284328391092370525000007224439   1020000200030000   333400010001204104000000281Myanmar Soft-Gate Tech Yangon        MMR11005251413284328390525000000000000000   10300001F05104100000000000206000000000000     
100   62911028202091860000000000000833000000000833002000000010410405250510054005224369000525000007220920   1020000200030000   333400010001204104000000281Myanmar Soft-Gate Tech Yangon        MMR11005250510054005220525000000000000000   10300001F05104100000000000175000000000000     
100   95050313836159580000000000001000000000001000002000000010410405242345331533047495670525000007219230   1030000200030000   3334000100012031040000040102C2P (Myanmar) Co. Ltd Yangon        MMR11005242345331533040525000000000000000   10300001F05104100000000000210000000000000     
100   95030302100067550000000000012350000000012350002000000010410405250600102245404369000525306291234144   1030000500030000   555610114572104519000012532City Mart Ahlone Branc               MMR11005250600102245400525000000000000000   10300001 00104100000000000741000000000000     
100   62443100340648380000000000005000000000005000002000000010410405251005423542029746960525000007223365   1030000200030000   333800010001203104000003327KBZPay                 Yangon        MMR11005251005423542020525000000000000000   10300001F05104100000000001050000000000000     
100   62443100393841160000000000200000000000200000002000000010410405250407263726850405080525000007220389   1030000200030000   333800010001203104000003327KBZPay                 Yangon        MMR11005250407263726850525000000000000000   10300001F05104100000000042000000000000000     
100   95050326228858240000000000048741000000048741002000000010410405250950592271357548260525084201623144   1030000300030000   444410108091104519000007238The Pizza and Swensens III           MMR11005250950592271350525000000000000000   10300001 00104100000000020715000000000000     
100   95050316067768680000000000000980000000000980002000000010410405251253252325918684430525000007224102   1020000200030000   333400010001204104000000281Myanmar Soft-Gate Tech Yangon        MMR11005251253252325910525000000000000000   10300001F05104100000000000206000000000000     
100   62443101023815100000000000010900000000010900002000000010410405251201182286689464120525717311843144   1030000500030000   555610114574104519000012532City Mart Ahlone Branc               MMR11005251201182286680525000000000000000   10300001 00104100000000002725000000000000     
100   95030306100096490000000000007840000000007840002000000010410405251109073907764369000525000007223619   1020000200030000   333400010001204104000000281Myanmar Soft-Gate Tech Yangon        MMR11005251109073907760525000000000000000   10300001F05104100000000001646000000000000     
100   95050317343045830000000000002940000000002940002000000010410405251309083908621308670525000007224155   1020000200030000   333400010001204104000000281Myanmar Soft-Gate Tech Yangon        MMR11005251309083908620525000000000000000   10300001F05104100000000000617000000000000     
100   62911028202788350000000000010000000000010000002000000010410405241826175617484369000525000007219105   1030000200030000   333800010001203104000003327KBZPay                 Yangon        MMR11005241826175617480525000000000000000   10300001F05104100000000002100000000000000     
100   95050318601641810000000000000980000000000980002000000010410405250121525152254942730525000007219379   1020000200030000   333400010001204104000000281Myanmar Soft-Gate Tech Yangon        MMR11005250121525152250525000000000000000   10300001F05104100000000000206000000000000     
100   95050328082468580000000000025000000000025000002000000010410405251426105610501872020525000007224492   1030000200030000   333800010001203104000003327KBZPay                 Yangon        MMR11005251426105610500525000000000000000   10300001F05104100000000005250000000000000     
100   95050327883696130000000000010000000000010000002000000010410405250325425542611253670525000007220024   1030000200030000   333800010001203104000003327KBZPay                 Yangon        MMR11005250325425542610525000000000000000   10300001F05104100000000002100000000000000     
100   95050325139996190000000000003300000000003300002000000010410405250322155215537778510525000007219984   1030000200030000   333300010001203104000003632Myanmar Tradenet Test  Yangon        MMR11005250322155215530525000000000000000   10300001F05104100000000010000000000000000     
100   95050319532433550000000000010061000000010061002000000010410405251318584858805844010525000007224203   1030000200030000   333800010001203104000003327KBZPay                 Yangon        MMR11005251318584858800525000000000000000   10300001F05104100000000002113000000000000     
100   95030367537085740000000000000980000000000980002000000010410405251320415041887145210525000007224213   1020000200030000   333400010001204104000000281Myanmar Soft-Gate Tech Yangon        MMR11005251320415041880525000000000000000   10300001F05104100000000000206000000000000     
100   95050310427855490000000000003920000000003920002000000010410405250319134913763877880525000007219960   1020000200030000   333400010001204104000000281Myanmar Soft-Gate Tech Yangon        MMR11005250319134913760525000000000000000   10300001F05104100000000000823000000000000     
100   95050316601084530000000000001960000000001960002000000010410405250116564656167992440525000007219364   1020000200030000   333400010001204104000000281Myanmar Soft-Gate Tech Yangon        MMR11005250116564656160525000000000000000   10300001F05104100000000000412000000000000     
100   95050316321163940000000000000980000000000980002000000010410405251418204820111446520525000007224459   1020000200030000   333400010001204104000000281Myanmar Soft-Gate Tech Yangon        MMR11005251418204820110525000000000000000   10300001F05104100000000000206000000000000     
100   95050314996291580000000000002940000000002940002000000010410405251216244624589181240525000007223931   1020000200030000   333400010001204104000000281Myanmar Soft-Gate Tech Yangon        MMR11005251216244624580525000000000000000   10300001F05104100000000000617000000000000     
100   95050312005798410000000000001960000000001960002000000010410405250919334933512161960525000007222987   1020000200030000   333400010001204104000000281Myanmar Soft-Gate Tech Yangon        MMR11005250919334933510525000000000000000   10300001F05104100000000000412000000000000     
100   95050325139996190000000000003300000000003300002000000010410405250317314731784303380525000007219927   1030000200030000   333300010001203104000003632Myanmar Tradenet Test  Yangon        MMR11005250317314731780525000000000000000   10300001F05104100000000010000000000000000     
100   62911028202809060000000000020000000000020000002000000010410405251220565056316786700525000007223955   1030000200030000   333800010001203104000003327KBZPay                 Yangon        MMR11005251220565056310525000000000000000   10300001F05104100000000004200000000000000     
100   95050315122972560000000000002940000000002940002000000010410405250120035003591893070525000007219374   1020000200030000   333400010001204104000000281Myanmar Soft-Gate Tech Yangon        MMR11005250120035003590525000000000000000   10300001F05104100000000000617000000000000     
100   95050319161596230000000000000980000000000980002000000010410405250822475247464075460525000007222495   1020000200030000   333400010001204104000000281Myanmar Soft-Gate Tech Yangon        MMR11005250822475247460525000000000000000   10300001F05104100000000000206000000000000     
100   95050318471308000000000000010000000000010000002000000010410405250923005300018686790525000007223026   1030000200030000   333800010001203104000003327KBZPay                 Yangon        MMR11005250923005300010525000000000000000   10300001F05104100000000002100000000000000     
100   95050315122972560000000000001960000000001960002000000010410405251225045504286485730525000007223971   1020000200030000   333400010001204104000000281Myanmar Soft-Gate Tech Yangon        MMR11005251225045504280525000000000000000   10300001F05104100000000000412000000000000     
100   95050320624349010000000000050000000000050000002000000010410405251304476906474783800525214520690647   1040001600030000   598320000915000000010000664MMTM - North Dagon     Ygn           MMR11005251304476906470525000000000000000   10300001F00104100000000006000000000000000     
100   95050311077567400000000000005000000000005000002000000010410405251027245724893293440525000007223441   1030000900030000   333400010001202104000002022ACS                    Yangon        MMR11005251027245724890525000000000000000   10300001F05104100000000001050000000000000     
100   95050310397364970000000000002940000000002940002000000010410405251329235923742368840525000007224256   1020000200030000   333400010001204104000000281Myanmar Soft-Gate Tech Yangon        MMR11005251329235923740525000000000000000   10300001F05104100000000000617000000000000     
100   62911028202685470000000000134000000000134000002000000010410405251025116763764369000525214517676376   1040001600030000   806220000003000000010000001Victoria Hospital      Yangon        MMR11005251025116763760525000000000000000   10300001F00104100000000008040000000000000     
100   62911028202440680000000000002150000000002150002000000010410405250159379816014369000525012290837144   1030000900030000   591219000795190110000000627Shwe Ohh Pharmacy ST-3 YANGONINDAING MMR11005250159379816010525000000000000000   10300001F00104100000000000129000000000000     
100   62911028202197550000000000104350000000104350002000000010410405251152309962584369000525503221830144   1030000900030000   591219000601190110000000441Shwe Ohh Pharmacy St-3 YANGON        MMR11005251152309962580525000000000000000   10300001F00104100000000006261000000000000     
100   95030394609966640000000000016700000000016700002000000010410405250544136613874369000525214512661387   1040001600030000   569920001236000000010000942Street Fashion         Ygn           MMR11005250544136613870525000000000000000   10300001F00104100000000001002000000000000     
100   62911028202593140000000000050000000000050000002000000010410405250918216719994369000525214516671999   1040001600030000   598320001170000000010000527Shwe Taung Energy (YGN Yangon        MMR11005250918216719990525000000000000000   10300001F00104100000000001500000000000000     
100   62911028202286400000000000039000000000039000002000000010410405250753076677084369000525214514667708   1040001600030000   598320001170000000010000527Shwe Taung Energy (YGN Yangon        MMR11005250753076677080525000000000000000   10300001F00104100000000001170000000000000     
100   95030301100124400000000000012425000000012425002000000010410405250328339831794369000525809580933144   1030000900030000   541119001261190110000000958City Mart PLST C 4     YANGONMYOTHIT MMR11005250328339831790525000000000000000   10300001F00104100000000000746000000000000     
100   95030323161862590000000000231398000000231398002000000010410405250729559893844369000525336591355144   1030000900030000   701119000071190110000000024Lotte Hotel            YANGON        MMR11005250729559893840525000000000000000   10300001F00104100000000023603000000000000     
100   62911028202693960000000000014300000000014300002000000010410405250727219893174369000525290571321144   1030000900030000   541119001250190110000000955City Mart JS C 9       YANGONUT      MMR11005250727219893170525000000000000000   10300001F00104100000000000858000000000000     
100   62443100315110470000000000011200000000011200002000000010410405250847359914909323870525561171535144   1030000900030000   541119001160190110000000930OCEAN HTY C 10         YANGONTHARYA  MMR11005250847359914900525000000000000000   10300001F00104100000000002800000000000000     
100   62911028202023630000000000080000000000080000002000000010410405251209189966034369000525706391818144   1030000900030000   554119001103190110000000215New Day Energy MYG     YANGONONE     MMR11005251209189966030525000000000000000   10300001F00104100000000002400000000000000     
100   95030337100000390000000000028350000000028350002000000010410405250424586569874369000525214511656987   1040001600030000   591220000302000000010000290Shwe Ohh Pharmacy (Nor Yangon        MMR11005250424586569870525000000000000000   10300001F00104100000000001701000000000000     
100   95050329252108030000000000037688000000037688002000000010410405250755236678055351930525214514667805   1040001600030000   598320000911000000010000662MMTM - Tamwe           Ygn           MMR11005250755236678050525000000000000000   10300001F00104100000000004522000000000000     
100   62911028202610960000000000086000000000086000002000000010410405250958286742634369000525214516674263   1040001600030000   598320000830000000010000596Regency Petrol Station Ygn           MMR11005250958286742630525000000000000000   10300001F00104100000000002580000000000000     
100   62911028202132460000000000050150000000050150002000000010410405251229276875876836810525214519687587   1040001600030000   591220000285000000010000273Shwe Ohh Pharmacy (47t Yangon        MMR11005251229276875870525000000000000000   10300001F00104100000000003009000000000000     
100   62911028202019440000000000022350000000022350002000000010410405250115019811944369000525840450701144   1030000900030000   541119001263190110000000958City Mart PLST C 6     YANGONMYOTHIT MMR11005250115019811940525000000000000000   10300001F00104100000000001341000000000000     
100   95030343981710920000000000031000000000031000002000000010410405250826379909134369000525212561437144   1030000900030000   723019001054190110000000857Beauty Diary JC        YANGONN       MMR11005250826379909130525000000000000000   10300001F00104100000000001860000000000000     
100   62443100384568160000000000719000000000719000002000000010410405251109589953189038620525960391758144   1030000900030000   573219001180190110000000936UNIQUE UChit Maung     YANGON        MMR11005251109589953180525000000000000000   10300001F00104100000000172560000000000000     
100   62911028202187730000000000026300000000026300002000000010410405251336040029034369000525000747501324   1030000200030000   541188001066000008000000314KBZ BANK               MARKETPLACE - MMR11005251336040029030525000000000000000   10300001 00104100000000001578000000000000     
100   62443100361813580000000000030000000000030000002000000010410405250632410241938705510525000007221526   1030000200030000   333800010001203104000003327KBZPay                 Yangon        MMR11005250632410241930525000000000000000   10300001F05104100000000006300000000000000     
100   95030327835334700000000000008069000000008069002000000010410405251755540154994369000525000747514634   1030000200030000   541188001242000008000000323KBZ BANK               CITY MART - I MMR11005251755540154990525000000000000000   10300001 00104100000000000484000000000000     
100   62911028202788350000000000010000000000010000002000000010410405241835070507384369000525000007219106   1030000200030000   333800010001203104000003327KBZPay                 Yangon        MMR11005241835070507380525000000000000000   10300001F05104100000000002100000000000000     
100   95050312298324450000000000000980000000000980002000000010410405250833570357656699660525000007222579   1020000200030000   333400010001204104000000281Myanmar Soft-Gate Tech Yangon        MMR11005250833570357650525000000000000000   10300001F05104100000000000206000000000000     
100   62911028202161240000000000000700000000000700002000000010410405251021070084424369000525000747488592   1030000200030000   541188001022000008000000298KBZ BANK               CITY MART - M MMR11005251021070084420525000000000000000   10300001 00104100000000000042000000000000     
100   62911028202147720000000000006200000000006200002000000010410405251539100016334369000525000747508904   1030000200030000   541188001311000008000000325KBZ BANK               CITY MART - A MMR11005251539100016330525000000000000000   10300001 00104100000000000372000000000000     
100   62911028202147720000000000014200000000014200002000000010410405251532590172844369000525000747508615   1030000200030000   541188001305000008000000325KBZ BANK               CITY MART - A MMR11005251532590172840525000000000000000   10300001 00104100000000000852000000000000     
100   62443101065883000000000000064729000000064729002000000010410405251516500222878898360525000747507783   1030000200030000   541188001001000008000000008KBZ BANK               MARKETPLACE - MMR11005251516500222870525000000000000000   10300001 00104100000000016183000000000000     
100   95050318670242480000000000300000000000300000002000000010410405251035100510600243770525000007223465   1030000200030000   333800010001203104000003327KBZPay                 Yangon        MMR11005251035100510600525000000000000000   10300001F05104100000000063000000000000000     
100   62911028202166940000000000112568000000112568002000000010410405251213170287684369000525000747495605   1030000200030000   541188001042000008000000010KBZ BANK               MARKETPLACE - MMR11005251213170287680525000000000000000   10300001 00104100000000006754000000000000     
100   62911028202161240000000000008960000000008960002000000010410405251034570359824369000525000747489374   1030000200030000   541188001025000008000000298KBZ BANK               CITY MART - M MMR11005251034570359820525000000000000000   10300001 00104100000000000538000000000000     
100   62911028202170490000000000031570000000031570002000000010410405250725250022184369000525214513002218   1030000400030000   581231020266000003102020066365 THE TERRACE        YANGON        MMR11005250725250022180525000000000000000   10300001 00104100000000003220000000000000     
100   62911028202154720000000000043950000000043950002000000010410405251359230081224369000525000747502906   1030000200030000   541188001062000008000000314KBZ BANK               MARKETPLACE - MMR11005251359230081220525000000000000000   10300001 00104100000000002637000000000000     
100   95050312498129060000000000005880000000005880002000000010410405251335140514321517830525000007224283   1020000200030000   333400010001204104000000281Myanmar Soft-Gate Tech Yangon        MMR11005251335140514320525000000000000000   10300001F05104100000000001235000000000000     
100   95050316785465380000000000000980000000000980002000000010410405250131450145465793740525000007219400   1020000200030000   333400010001204104000000281Myanmar Soft-Gate Tech Yangon        MMR11005250131450145460525000000000000000   10300001F05104100000000000206000000000000     
100   95030305100040620000000000091500000000091500002000000010410405250744180019674369000525000747504015   1030000200030000   581288000671000008000004115KBZ BANK               MIN LANN REST MMR11005250744180019670525000000000000000   10300001 00104100000000009333000000000000     
100   62911028202091860000000000050400000000050400002000000010410405250859142914994369000525000007222798   1030000200030000   333800010001203104000003327KBZPay                 Yangon        MMR11005250859142914990525000000000000000   10300001F05104100000000010584000000000000     
100   95050319928585020000000000000980000000000980002000000010410405250159152915111750490525000007219484   1020000200030000   333400010001204104000000281Myanmar Soft-Gate Tech Yangon        MMR11005250159152915110525000000000000000   10300001F05104100000000000206000000000000     
100   95030367537085740000000000000980000000000980002000000010410405250714524452614369000525000007221850   1020000200030000   333400010001204104000000281Myanmar Soft-Gate Tech Yangon        MMR11005250714524452610525000000000000000   10300001F05104100000000000206000000000000     
100   95050312498129060000000000000980000000000980002000000010410405250236090609609623060525000007219627   1020000200030000   333400010001204104000000281Myanmar Soft-Gate Tech Yangon        MMR11005250236090609600525000000000000000   10300001F05104100000000000206000000000000     
100   95050316949180000000000000004900000000004900002000000010410405251450262026027971350525000007224550   1020000200030000   333400010001204104000000281Myanmar Soft-Gate Tech Yangon        MMR11005251450262026020525000000000000000   10300001F05104100000000001029000000000000     
100   95050316818236190000000000000980000000000980002000000010410405251437150715458396900525000007224522   1020000200030000   333400010001204104000000281Myanmar Soft-Gate Tech Yangon        MMR11005251437150715450525000000000000000   10300001F05104100000000000206000000000000     
100   95050319928585020000000000002940000000002940002000000010410405250949281928927122800525000007223252   1020000200030000   333400010001204104000000281Myanmar Soft-Gate Tech Yangon        MMR11005250949281928920525000000000000000   10300001F05104100000000000617000000000000     
100   95050319974529540000000000200000000000200000002000000010410405251151492149456839920525000007223823   1030000200030000   333800010001203104000003327KBZPay                 Yangon        MMR11005251151492149450525000000000000000   10300001F05104100000000042000000000000000     
100   95030346130941600000000000017900000000017900002000000010410405251151572286144369000525660261823144   1030000500030000   555610118960104519000016137City Mart South Okkala WZYD BR       MMR11005251151572286140525000000000000000   10300001 00104100000000001074000000000000     
100   95050314557307430000000000001960000000001960002000000010410405250257482748722955600525000007219733   1020000200030000   333400010001204104000000281Myanmar Soft-Gate Tech Yangon        MMR11005250257482748720525000000000000000   10300001F05104100000000000412000000000000     
100   95050319111666800000000000000980000000000980002000000010410405251538350835854496230525000007224667   1020000200030000   333400010001204104000000281Myanmar Soft-Gate Tech Yangon        MMR11005251538350835850525000000000000000   10300001F05104100000000000206000000000000     
100   95050322957045260000000000180000000000180000002000000010410405250852402240165848700525000007222723   1030000200030000   3338000100012031040000040022C2P (Myanmar) Co. Ltd Yangon        MMR11005250852402240160525000000000000000   10300001F05104100000000037800000000000000     
100   62911028202473840000000000009500000000009500002000000010410405250824592261494369000525023561413144   1030000500030000   555610112248104519000010487Ocean Super Center St  ohn           MMR11005250824592261490525000000000000000   10300001 00104100000000000570000000000000     
100   62443100328070970000000000010000000000010000002000000010410405251119252282617762190525295531703144   1030000500030000   555610108844104519000003821City Mart North Point  enter         MMR11005251119252282610525000000000000000   10300001 00104100000000002500000000000000     
100   95050314570621780000000000000980000000000980002000000010410405250315364536663452370525000007219917   1020000200030000   333400010001204104000000281Myanmar Soft-Gate Tech Yangon        MMR11005250315364536660525000000000000000   10300001F05104100000000000206000000000000     
100   95050312240830690000000000001960000000001960002000000010410405251406373637087617200525000007224401   1020000200030000   333400010001204104000000281Myanmar Soft-Gate Tech Yangon        MMR11005251406373637080525000000000000000   10300001F05104100000000000412000000000000     
100   95050311382087030000000000001960000000001960002000000010410405251335540554098042710525000007224286   1020000200030000   333400010001204104000000281Myanmar Soft-Gate Tech Yangon        MMR11005251335540554090525000000000000000   10300001F05104100000000000412000000000000     
100   95050311959900780000000000000980000000000980002000000010410405251348361836264993000525000007224335   1020000200030000   333400010001204104000000281Myanmar Soft-Gate Tech Yangon        MMR11005251348361836260525000000000000000   10300001F05104100000000000206000000000000     
100   62443100355445150000000000015650000000015650002000000010410405250344222231814586220525988131056144   1030000500030000   555610110595104519000009166City Mart 47 Branch                  MMR11005250344222231810525000000000000000   10300001 00104100000000003913000000000000     
100   95050314567080940000000000029500000000029500002000000010410405251059292279815420830525997311730144   1030000500030000   555610122985104519000019269City Mart Supermarket  hanlyin       MMR11005251059292279810525000000000000000   10300001 00104100000000007375000000000000     
100   95050319178423260000000000270000000000270000002000000010410405251154012401203364750525000007223844   1030000200030000   333800010001203104000003327KBZPay                 Yangon        MMR11005251154012401200525000000000000000   10300001F05104100000000056700000000000000     
100   62911028202530280000000000010000000000010000002000000010410405251332003275617212110525020055946953   1040001400030000   581210000469025812100002960Junior Duck Restaurant null Nanthida MMR11005251332003275610525000000000000000   10300001 00104100000000001020000000000000     
100   95050319709462380000000000000980000000000980002000000010410405250813164316665423190525000007222404   1020000200030000   333400010001204104000000281Myanmar Soft-Gate Tech Yangon        MMR11005250813164316660525000000000000000   10300001F05104100000000000206000000000000     
100   62443100300743690000000000006700000000006700002000000010410405241251116227571735880524214419622757   1040001600030000   541120000557000000010000465Ocean Shwe Gone Daing  Yangon        MMR11005241251116227570524000000000000000   10300001F00104100000000001675000000000000     
100   95050326228858240000000000026250000000026250002000000010410405241106296131965926360524214418613196   1040001600030000   581420001162000000010000872Kin Sakura (Kyauk Kone ygn           MMR11005241106296131960524000000000000000   10300001F00104100000000003150000000000000     
100   95050316321163940000000000002940000000002940002000000010410405251416154615654921690525000007224448   1020000200030000   333400010001204104000000281Myanmar Soft-Gate Tech Yangon        MMR11005251416154615650525000000000000000   10300001F05104100000000000617000000000000     
100   62911028202231380000000000024804000000024804002000000010410405250547569869024369000525911171256144   1030000900030000   581219000006190110000000004Jo Jo Hot Pot Junction YANGONUT      MMR11005250547569869020525000000000000000   10300001F00104100000000002530000000000000     
100   95050314100797310000000000228000000000228000002000000010410405250344220000414160710525000747488207   1030000200030000   509488002507000008000006709KBZ BANK               SHWE SAN EAIN MMR11005250344220000410525000000000000000   10300001 00104100000000091200000000000000     
100   62911028202290100000000000015600000000015600002000000010410405251736220008724369000525000747513825   1030000200030000   581288000938000008000000484KBZ BANK               PIZZA HUT (YA MMR11005251736220008720525000000000000000   10300001 00104100000000001591000000000000     
100   95050325925517520000000000077316000000077316002000000010410405251454570018670600330525000747506384   1030000200030000   541188001008000008000000008KBZ BANK               MARKETPLACE - MMR11005251454570018670525000000000000000   10300001 00104100000000019329000000000000     
100   95050325925517520000000000015200000000015200002000000010410405251429060030567976090525000747504906   1030000200030000   581288000947000008000004873KBZ BANK               PIZZA HUT RES MMR11005251429060030560525000000000000000   10300001 00104100000000006460000000000000     
100   62911028202161240000000000000800000000000800002000000010410405251024470087374369000525000747488788   1030000200030000   541188001033000008000000298KBZ BANK               CITY MART - M MMR11005251024470087370525000000000000000   10300001 00104100000000000048000000000000     
100   62911028202150190000000000025496000000025496002000000010410405251956440083047180710525000747517889   1030000200030000   541188001006000008000000008KBZ BANK               MARKETPLACE - MMR11005251956440083040525000000000000000   10300001 00104100000000001530000000000000     
