100   62911028202308280000000000060000000000060000002000000010410405250812170000074369000525214514000007   1030000500030000   594220168301000045942201683TAB BOOK STORE         PTN           MMR11005250812170000070525000000000000000   10300001 00104100000000003600000000000000     
100   62911028202109290000000000014550000000014550002000000010410405251141090012854369000525214518001285   1030000500030000   531120155802000045311201558GAMONE PWINT           PTN           MMR11005251141090012850525000000000000000   10300001 00104100000000000873000000000000     
100   62911028202448030000000000002400000000002400002000000010410405251109410008914369000525214517000891   1030000500030000   541120020701022205411200207ORANGE (YDG)           PTN           MMR11005251109410008910525000000000000000   10300001 00104100000000000144000000000000     
100   95030305700676370000000000050000000000050000002000000010410405251110120004234369000525214517000423   1030000500030000   598320115101005405983201151PT POWER (HLEGU)       PTN           MMR11005251110120004230525000000000000000   10300001 00104100000000001500000000000000     
100   62911028202442170000000000048000000000048000002000000010410405250930290004944369000525214516000494   1030000500030000   503920036602000015039200366PRO-1 HOME CENTER      PTN           MMR11005250930290004940525000000000000000   10300001 00104100000000002880000000000000     
100   95050326228858240000000000040656000000040656002000000010410405250135200071998843360525214501007199   1030000600030000   581200001904315799420001274SIGNATURE FINEDINING 2 BAHAN         MMR11005250135200071990525000000000000000   10300001 00104100000000017279000000000000     
100   62911028202169750000000000018000000000018000002000000010410405250032440020814369000525214507002081   1030000500030000   598320002102000015172200021MAX ENERGY             PTN           MMR11005250032440020810525000000000000000   10300001 00104100000000000540000000000000     
100   62911028202099050000000000059000000000059000002000000010410405250506420034074369000525214511003407   1030000500030000   598320001901000015172200019MAX ENERGY             PTN           MMR11005250506420034070525000000000000000   10300001 00104100000000001770000000000000     
100   95050323282717740000000000030000000000030000002000000010410405242341500029264020500525214506002926   1030000500030000   598320001301000015172200013MAX ENERGY             PTN           MMR11005242341500029260525000000000000000   10300001 00104100000000003600000000000000     
100   62443101053241940000000000052000000000052000002000000010410405250902450215187693250525214509021518   1030000600030000   554100002085315799420000471DENKO BAHAN            YANGON        MMR11005250902450215180525000000000000000   10300001 00104100000000006240000000000000     
100   62443100371309900000000000257945000000257945002000000010410405251201360013550883170525214518001355   1030000500030000   806220172402013008062201724GRAND HANTHA HOSPITAL  PTN           MMR11005251201360013550525000000000000000   10300001 00104100000000061907000000000000     
100   62911028202520380000000000057000000000057000002000000010410405250654040027784369000525214513002778   1030000500030000   598320001203000015172200012MAX ENERGY             PTN           MMR11005250654040027780525000000000000000   10300001 00104100000000001710000000000000     
100   62443100311760720000000000068500000000068500002000000010410405250212350214072175950525214502021407   1030000600030000   554100002085315799420000471DENKO BAHAN            YANGON        MMR11005250212350214070525000000000000000   10300001 00104100000000008220000000000000     
100   62911028202792960000000000032000000000032000002000000010410405251034490019894369000525214517001989   1030000500030000   598320001602000015172200016MAX ENERGY             PTN           MMR11005251034490019890525000000000000000   10300001 00104100000000000960000000000000     
100   62443100369813440000000000030000000000030000002000000010410405250149100030408275320525214508003040   1030000500030000   598320001304000015172200013MAX ENERGY             PTN           MMR11005250149100030400525000000000000000   10300001 00104100000000003600000000000000     
100   95050326228858240000000000060000000000060000002000000010410405251312090020119319130525214519002011   1030000500030000   598320001602000015172200016MAX ENERGY             PTN           MMR11005251312090020110525000000000000000   10300001 00104100000000007200000000000000     
100   62911028202161240000000000030000000000030000002000000010410405250227350024554369000525214508002455   1030000500030000   598320001201000015172200012MAX ENERGY             PTN           MMR11005250227350024550525000000000000000   10300001 00104100000000000900000000000000     
100   95050320624349010000000000015750000000015750002000000010410405251323070040695418460525000346871469   1030000300030000   531100000797000000000000540CB BANK                CAPITAL SUPER MMR11005251323070040690525000000000000000   10300001F00104100000000003780000000000000     
100   62911028202792960000000000051000000000051000002000000010410405251002450019774369000525214516001977   1030000500030000   598320001602000015172200016MAX ENERGY             PTN           MMR11005251002450019770525000000000000000   10300001 00104100000000001530000000000000     
100   62911028202717310000000000050000000000050000002000000010410405250748500030004369000525214514003000   1030000500030000   598320001302000015172200013MAX ENERGY             PTN           MMR11005250748500030000525000000000000000   10300001 00104100000000001500000000000000     
100   62443100371022130000000000030000000000030000002000000010410405251147110031016414410525214518003101   1030000500030000   598320001301000015172200013MAX ENERGY             PTN           MMR11005251147110031010525000000000000000   10300001 00104100000000003600000000000000     
100   62911028202280200000000000040000000000040000002000000010410405250041490881224369000525214500088122   1030000600030000   554100000946315799420000471DENKO BAHAN            YANGON        MMR11005250041490881220525000000000000000   10300001 00104100000000001200000000000000     
100   62911028202154800000000000064000000000064000002000000010410405250301560656844369000525214503065684   1030000600030000   554100000952315799420000474DENKO N.DAGON - 1      YANGON        MMR11005250301560656840525000000000000000   10300001 00104100000000001920000000000000     
100   62911028202166940000000000094950000000094950002000000010410405251313236913727100500525214520691372   1040001600030000   581420000079000000010000075Spicy Hot Pot Saya San Yangon        MMR11005251313236913720525000000000000000   10300001F00104100000000002849000000000000     
100   62443100303702210000000000092000000000092000002000000010410405250223546519505722430525214509651950   1040001600030000   598320000313000000010000301PT Power Petrol Statio Yangon        MMR11005250223546519500525000000000000000   10300001F00104100000000011040000000000000     
100   62911028202397530000000000135000000000135000002000000010410405241036050211534369000524214410021153   1030000600030000   554100001212315799420000664DENKO TA TAR OO        TA TAR OO     MMR11005241036050211530524000000000000000   10300001 00104100000000004050000000000000     
100   95030301100126550000000000057000000000057000002000000010410405251056056789904369000525214517678990   1040001600030000   598320001065000000010000785Yangon Petrol (Thudama Ygn           MMR11005251056056789900525000000000000000   10300001F00104100000000001710000000000000     
100   62911028202150190000000000032224000000032224002000000010410405261823280019083511700526000747558968   1030000200030000   541188001008000008000000008KBZ BANK               MARKETPLACE - MMR11005261823280019080526000000000000000   10300001 00104100000000001933000000000000     
100   62443100399918110000000000011350000000011350002000000010410405261224090028175741510526000747541224   1030000200030000   541188001079000008000000294KBZ BANK               CITY MART - J MMR11005261224090028170526000000000000000   10300001 00104100000000002838000000000000     
100   95050318267399100000000000001960000000001960002000000010410405260830360036566216430526000007228253   1020000200030000   333400010001204104000000281Myanmar Soft-Gate Tech Yangon        MMR11005260830360036560526000000000000000   10300001F05104100000000000412000000000000     
100   95050311559234320000000000004900000000004900002000000010410405260430290029498997030526000007226286   1020000200030000   333400010001204104000000281Myanmar Soft-Gate Tech Yangon        MMR11005260430290029490526000000000000000   10300001F05104100000000001029000000000000     
100   95030300515226620000000000025100000000025100002000000010410405251042160005944369000525000346851707   1030000300030000   581200000839000000000000575CB BANK                YKKO (TMGLD)  MMR11005251042160005940525000000000000000   10300001F00104100000000002560000000000000     
100   62911028202132460000000000015000000000015000002000000010410405250133380002264369000525214508000226   1030000500030000   591220042601014405912200426SHWE OHH PHARMACY      PTN           MMR11005250133380002260525000000000000000   10300001 00104100000000000900000000000000     
100   62911028202112400000000000028000000000028000002000000010410405250331190881564369000525214503088156   1030000600030000   554100000946315799420000471DENKO BAHAN            YANGON        MMR11005250331190881560525000000000000000   10300001 00104100000000000840000000000000     
100   95050326198165350000000000021501000000021501002000000010410405261057310179236166990526814271731145   1030000900030000   581219000718190110000000549Chilli Pot Mala Xiang  YANGONUT      MMR11005261057310179230526000000000000000   10300001F00104100000000009138000000000000     
100   95030301100121270000000000049300000000049300002000000010410405261041570175543511700526578111757145   1030000900030000   541119001262190110000000958City Mart PLST C 5     YANGONMYOTHIT MMR11005261041570175540526000000000000000   10300001F00104100000000002958000000000000     
100   95030367537085740000000000002940000000002940002000000010410405261350262026607324000526000007229953   1020000200030000   333400010001204104000000281Myanmar Soft-Gate Tech Yangon        MMR11005261350262026600526000000000000000   10300001F05104100000000000617000000000000     
100   62911028202074790000000000034398000000034398002000000010410405251232010030906868400525214519003090   1030000500030000   598320001401000015172200014MAX ENERGY             PTN           MMR11005251232010030900525000000000000000   10300001 00104100000000001032000000000000     
100   95050313240335680000000000026200000000026200002000000010410405260234260054373008240526178040926145   1030000900030000   591219000601190110000000441Shwe Ohh Pharmacy St-3 YANGON        MMR11005260234260054370526000000000000000   10300001F00104100000000006288000000000000     
100   62911028202527490000000000053000000000053000002000000010410405250702470030244369000525214513003024   1030000500030000   598320001003000015172200010MAX ENERGY             PTN           MMR11005250702470030240525000000000000000   10300001 00104100000000001590000000000000     
100   95050316231020800000000000008000000000008000002000000010410405260651490118158280610526015211349145   1030000900030000   541119001257190110000000957City Mart JS City Care YANGONUT      MMR11005260651490118150526000000000000000   10300001F00104100000000002000000000000000     
100   62911028202421380000000000020100000000020100002000000010410405261020170196193511700526000747533514   1030000200030000   541188001080000008000000294KBZ BANK               CITY MART - J MMR11005261020170196190526000000000000000   10300001 00104100000000001206000000000000     
100   62911028202685470000000000120000000000120000002000000010410405251129190001284369000525214517000128   1030000500030000   806220072801000018062200728WITORIYA HOSPITAL      PTN           MMR11005251129190001280525000000000000000   10300001 00104100000000007200000000000000     
100   95050320213992110000000000032200000000032200002000000010410405251125320006096911190525000346857188   1030000300030000   531100000610000000000000408CB BANK                CAPITAL HYPER MMR11005251125320006090525000000000000000   10300001F00104100000000007728000000000000     
100   62911028202162640000000000019500000000019500002000000010410405251004000001294369000525214516000129   1030000500030000   531120155706000045311201557GAMONE PWINT           PTN           MMR11005251004000001290525000000000000000   10300001 00104100000000001170000000000000     
100   62911028202166940000000000075981000000075981002000000010410405250713330001544369000525214513000154   1030000500030000   569120090901000015691200909GIORDANO JUNCTION 8    PTN           MMR11005250713330001540525000000000000000   10300001 00104100000000004559000000000000     
100   62911028202651050000000000152880000000152880002000000010410405250805430001704369000525214514000170   1030000500030000   541120203401000045411202034AZAY CO. LTD           PTN           MMR11005250805430001700525000000000000000   10300001 00104100000000009173000000000000     
100   95050314996291580000000000001960000000001960002000000010410405260457462746231280840526000007226531   1020000200030000   333400010001204104000000281Myanmar Soft-Gate Tech Yangon        MMR11005260457462746230526000000000000000   10300001F05104100000000000412000000000000     
100   95050315166583130000000000040000000000040000002000000010410405251755392539063219760526000007224832   1030000200030000   333800010001203104000003327KBZPay                 Yangon        MMR11005251755392539060526000000000000000   10300001F05104100000000008400000000000000     
100   95030306100078820000000000036050000000036050002000000010410405260703552349834890210526169331354145   1030000500030000   555610112248104519000010487Ocean Super Center St  ohn           MMR11005260703552349830526000000000000000   10300001 00104100000000002163000000000000     
100   62443100397667340000000000034300000000034300002000000010410405260836000600422911460526000007228279   1020000200030000   333400010001204104000000281Myanmar Soft-Gate Tech Yangon        MMR11005260836000600420526000000000000000   10300001F05104100000000007203000000000000     
100   95050312695033440000000000004900000000004900002000000010410405260353402340524282290526000007225924   1020000200030000   333400010001204104000000281Myanmar Soft-Gate Tech Yangon        MMR11005260353402340520526000000000000000   10300001F05104100000000001029000000000000     
100   62911028202792960000000000045000000000045000002000000010410405260854392361845555810526415241550145   1030000300030000   444410104694104519000004433Ngwe Moe Hotel                       MMR11005260854392361840526000000000000000   10300001 00104100000000004590000000000000     
100   62911028202366010000000000085815000000085815002000000010410405261119042378723511700526190491722145   1030000500030000   555610108768104519000003818City Mart Oattara Thir NPT           MMR11005261119042378720526000000000000000   10300001 00104100000000005149000000000000     
100   95050310305100650000000000050000000000050000002000000010410405260043511351136837550526000007225063   1030000200030000   3338000100012031040000040022C2P (Myanmar) Co. Ltd Yangon        MMR11005260043511351130526000000000000000   10300001F05104100000000010500000000000000     
100   62911028202170490000000000036960000000036960002000000010410405260612362343244585810526492431211145   1030000300030000   444410125517104519000021332Hot Pot king                         MMR11005260612362343240526000000000000000   10300001 00104100000000003770000000000000     
100   62911028202907490000000000002450000000002450002000000010410405260812152357273511700526931411429145   1030000500030000   555610103467104519000003420City Mart Yankin Cente 6             MMR11005260812152357270526000000000000000   10300001 00104100000000000147000000000000     
100   62443100333488440000000000028500000000028500002000000010410405260305542324008753420526595350915145   1030000500030000   555610115772104519000013506MarketplaceMyanmarPlaz Branch        MMR11005260305542324000526000000000000000   10300001 00104100000000007125000000000000     
100   95050321057500320000000000004900000000004900002000000010410405260855152515081088780526000007228439   1020000200030000   333400010001204104000000281Myanmar Soft-Gate Tech Yangon        MMR11005260855152515080526000000000000000   10300001F05104100000000001029000000000000     
100   95050314570621780000000000000980000000000980002000000010410405261300163016023652320526000007229755   1020000200030000   333400010001204104000000281Myanmar Soft-Gate Tech Yangon        MMR11005261300163016020526000000000000000   10300001F05104100000000000206000000000000     
100   95030301100121680000000000020000000000020000002000000010410405260845441544963511700526000007228355   1030000200030000   333800010001203104000003327KBZPay                 Yangon        MMR11005260845441544960526000000000000000   10300001F05104100000000004200000000000000     
100   62911028202232860000000000057103000000057103002000000010410405260820432358173511700526031491439145   1030000500030000   555610112237104519000010487Ocean Super Center St  ohn           MMR11005260820432358170526000000000000000   10300001 00104100000000003426000000000000     
100   95050323133124350000000000002940000000002940002000000010410405261519354935525779750526000007230232   1020000200030000   333400010001204104000000281Myanmar Soft-Gate Tech Yangon        MMR11005261519354935520526000000000000000   10300001F05104100000000000617000000000000     
100   62443100392426520000000000010000000000010000002000000010410405261259172917992233270526000007229743   1030000200030000   333800010001203104000003327KBZPay                 Yangon        MMR11005261259172917990526000000000000000   10300001F05104100000000002100000000000000     
100   95030367537085740000000000000980000000000980002000000010410405261109483948753511700526000007229286   1020000200030000   333400010001204104000000281Myanmar Soft-Gate Tech Yangon        MMR11005261109483948750526000000000000000   10300001F05104100000000000206000000000000     
100   95050323133124350000000000028200000000028200002000000010410405261418294829763932620526000007230058   1030000200030000   333800010001203104000003327KBZPay                 Yangon        MMR11005261418294829760526000000000000000   10300001F05104100000000005922000000000000     
100   95030367537085740000000000000980000000000980002000000010410405261221025102503511700526000007229594   1020000200030000   333400010001204104000000281Myanmar Soft-Gate Tech Yangon        MMR11005261221025102500526000000000000000   10300001F05104100000000000206000000000000     
100   95050316043499650000000000005000000000005000002000000010410405260811464146849592700526000007228107   1030000200030000   333800010001203104000003327KBZPay                 Yangon        MMR11005260811464146840526000000000000000   10300001F05104100000000001050000000000000     
100   95050319928585020000000000000980000000000980002000000010410405261122155215194857480526000007229347   1020000200030000   333400010001204104000000281Myanmar Soft-Gate Tech Yangon        MMR11005261122155215190526000000000000000   10300001F05104100000000000206000000000000     
100   62911028202393160000000000030000000000030000002000000010410405251250210105086960110525214512010508   1030000600030000   554100001218315799420000670DENKO MAWLAMYAING      MON STATE.    MMR11005251250210105080525000000000000000   10300001 00104100000000000900000000000000     
100   62911028202000290000000000040000000000040000002000000010410405261110484048086366110526000007229288   1030000300030000   333800010001206104000003988CB Card +              Yangon        MMR11005261110484048080526000000000000000   10300001F05104100000000008400000000000000     
100   95050320360851930000000000000980000000000980002000000010410405261121255125821379730526000007229340   1020000200030000   333400010001204104000000281Myanmar Soft-Gate Tech Yangon        MMR11005261121255125820526000000000000000   10300001F05104100000000000206000000000000     
100   62911028202169750000000000087573000000087573002000000010410405260421127236543511700526214611723654   1040001600030000   541120000559000000010000465Ocean Shwe Gone Daing  Yangon        MMR11005260421127236540526000000000000000   10300001F00104100000000005254000000000000     
100   95050324154190880000000000002940000000002940002000000010410405260512434243739373070526000007226643   1020000200030000   333400010001204104000000281Myanmar Soft-Gate Tech Yangon        MMR11005260512434243730526000000000000000   10300001F05104100000000000617000000000000     
100   95030306100096490000000000001960000000001960002000000010410405261114414441976389510526000007229312   1020000200030000   333400010001204104000000281Myanmar Soft-Gate Tech Yangon        MMR11005261114414441970526000000000000000   10300001F05104100000000000412000000000000     
100   95050312498129060000000000000980000000000980002000000010410405260112184218842440110526000007225142   1020000200030000   333400010001204104000000281Myanmar Soft-Gate Tech Yangon        MMR11005260112184218840526000000000000000   10300001F05104100000000000206000000000000     
100   62911028202527490000000000031000000000031000002000000010410405260624247304844646500526214613730484   1040001600030000   598320000915000000010000664MMTM - North Dagon     Ygn           MMR11005260624247304840526000000000000000   10300001F00104100000000000930000000000000     
100   95050326593223450000000000134000000000134000002000000010410405250120370520661467610525214501052066   1030000600030000   554100001756315799420001137DENKO NORTH DAGON 2    YANGON        MMR11005250120370520660525000000000000000   10300001 00104100000000016080000000000000     
100   95050319532433550000000000010061000000010061002000000010410405251710174017960595600526000007224787   1030000200030000   333800010001203104000003327KBZPay                 Yangon        MMR11005251710174017960526000000000000000   10300001F05104100000000002113000000000000     
100   62443100313529540000000000033000000000033000002000000010410405261125527486761807810526214618748676   1040001600030000   569120000924000000010000671Generation Concept Sto Ygn           MMR11005261125527486760526000000000000000   10300001F00104100000000007920000000000000     
100   95050325455962190000000000002940000000002940002000000010410405251703093309944070770526000007224777   1020000200030000   333400010001204104000000281Myanmar Soft-Gate Tech Yangon        MMR11005251703093309940526000000000000000   10300001F05104100000000000617000000000000     
100   95050319331315630000000000014700000000014700002000000010410405260823555355720918590526000007228205   1020000200030000   333400010001204104000000281Myanmar Soft-Gate Tech Yangon        MMR11005260823555355720526000000000000000   10300001F05104100000000003087000000000000     
100   95050318712627500000000000000980000000000980002000000010410405260625485548580358570526000007227246   1020000200030000   333400010001204104000000281Myanmar Soft-Gate Tech Yangon        MMR11005260625485548580526000000000000000   10300001F05104100000000000206000000000000     
100   95050326155679180000000000002940000000002940002000000010410405260321355135931893390526000007225658   1020000200030000   333400010001204104000000281Myanmar Soft-Gate Tech Yangon        MMR11005260321355135930526000000000000000   10300001F05104100000000000617000000000000     
100   62911028202773650000000000130000000000130000002000000010410405260923285328705722200526000007228633   1030000200030000   333800010001203104000003327KBZPay                 Yangon        MMR11005260923285328700526000000000000000   10300001F05104100000000027300000000000000     
100   95050318041680090000000000010000000000010000002000000010410405260729445944246798310526000007227743   1030000200030000   333800010001203104000003327KBZPay                 Yangon        MMR11005260729445944240526000000000000000   10300001F05104100000000002100000000000000     
100   62443100381661260000000000010000000000010000002000000010410405261429175917972195030526000007230093   1030000200030000   333800010001203104000003327KBZPay                 Yangon        MMR11005261429175917970526000000000000000   10300001F05104100000000002100000000000000     
100   95050323670692380000000000010000000000010000002000000010410405260059342934926412050526000007225096   1030000200030000   333800010001203104000003327KBZPay                 Yangon        MMR11005260059342934920526000000000000000   10300001F05104100000000002100000000000000     
100   95050311718887830000000000005000000000005000002000000010410405261607323732985354250526000007230349   1030000200030000   333800010001203104000003327KBZPay                 Yangon        MMR11005261607323732980526000000000000000   10300001F05104100000000001050000000000000     
100   95050311959900780000000000000980000000000980002000000010410405261109073907079897440526000007229278   1020000200030000   333400010001204104000000281Myanmar Soft-Gate Tech Yangon        MMR11005261109073907070526000000000000000   10300001F05104100000000000206000000000000     
100   95050314287403810000000000025000000000025000002000000010410405261603453345592730090526000007230342   1030000200030000   333800010001203104000003327KBZPay                 Yangon        MMR11005261603453345590526000000000000000   10300001F05104100000000005250000000000000     
100   95050319161596230000000000000980000000000980002000000010410405260107353735229887260526000007225118   1020000200030000   333400010001204104000000281Myanmar Soft-Gate Tech Yangon        MMR11005260107353735220526000000000000000   10300001F05104100000000000206000000000000     
100   95050319996628650000000000000980000000000980002000000010410405260616394639525911690526000007227148   1020000200030000   333400010001204104000000281Myanmar Soft-Gate Tech Yangon        MMR11005260616394639520526000000000000000   10300001F05104100000000000206000000000000     
100   95050312498129060000000000004900000000004900002000000010410405261226145614172658730526000007229623   1020000200030000   333400010001204104000000281Myanmar Soft-Gate Tech Yangon        MMR11005261226145614170526000000000000000   10300001F05104100000000001029000000000000     
100   95050317461467820000000000023138000000023138002000000010410405260926205620747443430526000007228659   1030000200030000   333800010001203104000003327KBZPay                 Yangon        MMR11005260926205620740526000000000000000   10300001F05104100000000004859000000000000     
100   95050314292165140000000000010000000000010000002000000010410405261407133713592280140526000007230008   1030000200030000   3338000100012031040000040022C2P (Myanmar) Co. Ltd Yangon        MMR11005261407133713590526000000000000000   10300001F05104100000000002100000000000000     
100   95050314567080940000000000000980000000000980002000000010410405252325565556001589190526000007224969   1020000200030000   333400010001204104000000281Myanmar Soft-Gate Tech Yangon        MMR11005252325565556000526000000000000000   10300001F05104100000000000206000000000000     
100   95030305700676370000000000229000000000229000002000000010410405260822367359613511700526214615735961   1040001600030000   597720001051000000010000772iHub (YGN)             Ygn           MMR11005260822367359610526000000000000000   10300001F00104100000000013740000000000000     
100   95050319161596230000000000000980000000000980002000000010410405261103223322897819470526000007229257   1020000200030000   333400010001204104000000281Myanmar Soft-Gate Tech Yangon        MMR11005261103223322890526000000000000000   10300001F05104100000000000206000000000000     
100   62911028202169750000000000000200000000000200002000000010410405260426007238743511700526214611723874   1040001600030000   541120000584000000010000465Ocean Shwe Gone Daing  Yangon        MMR11005260426007238740526000000000000000   10300001F00104100000000000012000000000000     
100   95050316377977350000000000005000000000005000002000000010410405260159432943475489820526000007225281   1030000200030000   3338000100012031040000040022C2P (Myanmar) Co. Ltd Yangon        MMR11005260159432943470526000000000000000   10300001F05104100000000001050000000000000     
100   95050319161596230000000000000980000000000980002000000010410405260101483148562936880526000007225101   1020000200030000   333400010001204104000000281Myanmar Soft-Gate Tech Yangon        MMR11005260101483148560526000000000000000   10300001F05104100000000000206000000000000     
100   95050310427855490000000000000980000000000980002000000010410405260136360636368539480526000007225211   1020000200030000   333400010001204104000000281Myanmar Soft-Gate Tech Yangon        MMR11005260136360636360526000000000000000   10300001F05104100000000000206000000000000     
100   95050316573091630000000000007840000000007840002000000010410405260819144914954308660526000007228098   1020000200030000   333400010001204104000000281Myanmar Soft-Gate Tech Yangon        MMR11005260819144914950526000000000000000   10300001F05104100000000001646000000000000     
100   95050319532433550000000000010061000000010061002000000010410405261021205120618670430526000007229058   1030000200030000   333800010001203104000003327KBZPay                 Yangon        MMR11005261021205120610526000000000000000   10300001F05104100000000002113000000000000     
100   95030308100042590000000000064300000000064300002000000010410405260623247304233511700526214613730423   1040001600030000   591220000289000000010000277Shwe Ohh Pharmacy (Par Yangon        MMR11005260623247304230526000000000000000   10300001F00104100000000003858000000000000     
100   62911028202132460000000000010900000000010900002000000010410405261106407468076340100526214618746807   1040001600030000   591220000285000000010000273Shwe Ohh Pharmacy (47t Yangon        MMR11005261106407468070526000000000000000   10300001F00104100000000000654000000000000     
100   62911028202112400000000000027500000000027500002000000010410405261016397425526040010526214617742552   1040001600030000   591220000303000000010000291Shwe Ohh Pharmacy (Kyu Yangon        MMR11005261016397425520526000000000000000   10300001F00104100000000001650000000000000     
100   95050313732480420000000000002940000000002940002000000010410405260808513851227940220526000007228080   1020000200030000   333400010001204104000000281Myanmar Soft-Gate Tech Yangon        MMR11005260808513851220526000000000000000   10300001F05104100000000000617000000000000     
100   95050319161596230000000000000980000000000980002000000010410405260104323432313362430526000007225111   1020000200030000   333400010001204104000000281Myanmar Soft-Gate Tech Yangon        MMR11005260104323432310526000000000000000   10300001F05104100000000000206000000000000     
100   95050319502933380000000000000980000000000980002000000010410405260618234823727564180526000007227165   1020000200030000   333400010001204104000000281Myanmar Soft-Gate Tech Yangon        MMR11005260618234823720526000000000000000   10300001F05104100000000000206000000000000     
100   95030390626214130000000000090000000000090000002000000010410405260624165416993511700526000007227228   1030000200030000   333800010001203104000003327KBZPay                 Yangon        MMR11005260624165416990526000000000000000   10300001F05104100000000018900000000000000     
100   95050314567080940000000000000980000000000980002000000010410405252327405740454213350526000007224972   1020000200030000   333400010001204104000000281Myanmar Soft-Gate Tech Yangon        MMR11005252327405740450526000000000000000   10300001F05104100000000000206000000000000     
100   62911028202248050000000000034000000000034000002000000010410405260222057186913192810526214609718691   1040001600030000   598320000660000000010000529Shwe Taung Energy (NPT Naypyitaw     MMR11005260222057186910526000000000000000   10300001F00104100000000001020000000000000     
100   62911028202527800000000000043500000000043500002000000010410405260409137231373511700526214611723137   1040001600030000   598320000659000000010000528Shwe Taung Energy (YGN Yangon        MMR11005260409137231370526000000000000000   10300001F00104100000000001305000000000000     
100   95050323133124350000000000002000000000002000002000000010410405261559512951376205210526000007230328   1030000200030000   333800010001203104000003327KBZPay                 Yangon        MMR11005261559512951370526000000000000000   10300001F05104100000000000420000000000000     
100   95050323233042810000000000025000000000025000002000000010410405260309173917251377620526000007225552   1030000200030000   333800010001203104000003327KBZPay                 Yangon        MMR11005260309173917250526000000000000000   10300001F05104100000000005250000000000000     
100   62911028202161240000000000002800000000002800002000000010410405261009540007883511700526000747532963   1030000200030000   541188001030000008000000298KBZ BANK               CITY MART - M MMR11005261009540007880526000000000000000   10300001 00104100000000000168000000000000     
100   62911028202175770000000000025500000000025500002000000010410405261919040086793511700526000747560732   1030000200030000   541188001018000008000000008KBZ BANK               MARKETPLACE - MMR11005261919040086790526000000000000000   10300001 00104100000000001530000000000000     
100   95030364439875210000000000007500000000007500002000000010410405260857540149233511700526910271554145   1030000900030000   581219001134190110000000915Gamone in Tea House    YANGONUT      MMR11005260857540149230526000000000000000   10300001F00104100000000000765000000000000     
100   62911028202243590000000001364500000001364500002000000010410405260820430140285366010526359501443145   1030000900030000   481219000710190110000000541I Sure Technology Co.  YANGONAUNG    MMR11005260820430140280526000000000000000   10300001F00104100000000081870000000000000     
100   95030303100034700000000000061450000000061450002000000010410405260825490141533511700526436551449145   1030000900030000   541119000158190110000000084Pro (1) Global (Pazund YANGONARTAUNG MMR11005260825490141530526000000000000000   10300001F00104100000000003687000000000000     
100   95030303100034700000000000031700000000031700002000000010410405260835010143463511700526548051501145   1030000900030000   541119000882190110000000084Pro (1) Global (Pazund YANGONARTAUNG MMR11005260835010143460526000000000000000   10300001F00104100000000001902000000000000     
100   62911028202280200000000000063400000000063400002000000010410405261050460177613511700526705201746145   1030000900030000   541119001196190110000000942City Mart HDC C 11     YANGONUT      MMR11005261050460177610526000000000000000   10300001F00104100000000003804000000000000     
100   95050320092651450000000000027650000000027650002000000010410405260836200143752826370526562061520145   1030000900030000   541119001250190110000000955City Mart JS C 9       YANGONUT      MMR11005260836200143750526000000000000000   10300001F00104100000000006913000000000000     
100   62911028202484810000000000050000000000050000002000000010410405260956370164163511700526868261637145   1030000900030000   554119000345190110000000212New Day Energy PZD     YANGONAUNG    MMR11005260956370164160526000000000000000   10300001F00104100000000001500000000000000     
100   95050329720609600000000000015800000000015800002000000010410405261221090209525826600526000747540993   1030000200030000   541188001070000008000000314KBZ BANK               MARKETPLACE - MMR11005261221090209520526000000000000000   10300001 00104100000000003950000000000000     
100   95050319006804440000000000000980000000000980002000000010410405260931320132542400880526000007228705   1020000200030000   333400010001204104000000281Myanmar Soft-Gate Tech Yangon        MMR11005260931320132540526000000000000000   10300001F05104100000000000206000000000000     
100   95030301100121270000000000030950000000030950002000000010410405261039430174936200100526535091743145   1030000900030000   541119001274190110000000961City Mart PLST City Ca YANGONMYOTHIT MMR11005261039430174930526000000000000000   10300001F00104100000000001857000000000000     
100   62911028202161240000000000012100000000012100002000000010410405261011490124633511700526000747533080   1030000200030000   541188001023000008000000298KBZ BANK               CITY MART - M MMR11005261011490124630526000000000000000   10300001 00104100000000000726000000000000     
100   62443100309698080000000000032750000000032750002000000010410405260744020131257855130526817141402145   1030000900030000   541119001216190110000000945City Mart TM C 1       YANGONONE     MMR11005260744020131250526000000000000000   10300001F00104100000000008188000000000000     
100   62443100306698200000000000079021000000079021002000000010410405261434460223603067870526000747549557   1030000200030000   541188001001000008000000008KBZ BANK               MARKETPLACE - MMR11005261434460223600526000000000000000   10300001 00104100000000019756000000000000     
100   95050316785465380000000000000980000000000980002000000010410405261333450345080602660526000007229889   1020000200030000   333400010001204104000000281Myanmar Soft-Gate Tech Yangon        MMR11005261333450345080526000000000000000   10300001F05104100000000000206000000000000     
100   95050313240335680000000000039900000000039900002000000010410405260909430152477188140526118391543145   1030000900030000   591219000505190110000000352Shwe Ohh Pharmacy (THU YANGON        MMR11005260909430152470526000000000000000   10300001F00104100000000009576000000000000     
100   95050329720609600000000000114300000000114300002000000010410405261219240081749216660526000747540849   1030000200030000   541188001062000008000000314KBZ BANK               MARKETPLACE - MMR11005261219240081740526000000000000000   10300001 00104100000000028575000000000000     
100   95030381596008350000000000007450000000007450002000000010410405261048260177063511700526677181726145   1030000900030000   541119001349190110000000977Ocean PZD C 3          YANGONAUNG    MMR11005261048260177060526000000000000000   10300001F00104100000000000447000000000000     
100   62911028202170490000000000012030000000012030002000000010410405261855320224876813500526000747560034   1030000200030000   541188001037000008000000010KBZ BANK               MARKETPLACE - MMR11005261855320224870526000000000000000   10300001 00104100000000000722000000000000     
100   95050311959900780000000000000979000000000979002000000010410405261453222322330542550526000007230161   1020000200030000   333400010001204104000000281Myanmar Soft-Gate Tech Yangon        MMR11005261453222322330526000000000000000   10300001F05104100000000000205000000000000     
100   95050315330275830000000000000980000000000980002000000010410405260345201520918679690526000007225850   1020000200030000   333400010001204104000000281Myanmar Soft-Gate Tech Yangon        MMR11005260345201520910526000000000000000   10300001F05104100000000000206000000000000     
100   95050313817486860000000000000980000000000980002000000010410405260853422342996046240526000007228430   1020000200030000   333400010001204104000000281Myanmar Soft-Gate Tech Yangon        MMR11005260853422342990526000000000000000   10300001F05104100000000000206000000000000     
100   62443100378297160000000000004900000000004900002000000010410405261339310931907127490526000007229910   1020000200030000   333400010001204104000000281Myanmar Soft-Gate Tech Yangon        MMR11005261339310931900526000000000000000   10300001F05104100000000001029000000000000     
100   95050312498129060000000000001960000000001960002000000010410405260249141914598185290526000007225422   1020000200030000   333400010001204104000000281Myanmar Soft-Gate Tech Yangon        MMR11005260249141914590526000000000000000   10300001F05104100000000000412000000000000     
100   62911028202684060000000000009888000000009888002000000010410405260440122332663511700526400121125145   1030000500030000   555610122584104519000018896City Mart Hlaing Thar  ar            MMR11005260440122332660526000000000000000   10300001 00104100000000000593000000000000     
100   95030302100015820000000000087000000000087000002000000010410405260630222345403511700526720591224145   1030000300030000   555510124686104519000020166Makro Myanmar                        MMR11005260630222345400526000000000000000   10300001 00104100000000005220000000000000     
100   62911028202471600000000000006500000000006500002000000010410405260815342358215347200526035501404145   1030000500030000   555610110570104519000009164City Mart China Town P int Cen       MMR11005260815342358210526000000000000000   10300001 00104100000000000390000000000000     
100   62911028202471600000000000004000000000004000002000000010410405260907172364165677610526659451508145   1030000500030000   555610110576104519000009164City Mart China Town P int Cen       MMR11005260907172364160526000000000000000   10300001 00104100000000000240000000000000     
100   95050310332595380000000000004900000000004900002000000010410405261444531453813847520526000007230127   1020000200030000   333400010001204104000000281Myanmar Soft-Gate Tech Yangon        MMR11005261444531453810526000000000000000   10300001F05104100000000001029000000000000     
100   62911028202222390000000000025000000000025000002000000010410405260622382345004664900526676561221145   1030000500030000   555610110595104519000009166City Mart 47 Branch                  MMR11005260622382345000526000000000000000   10300001 00104100000000001500000000000000     
100   62911028202170490000000000009060000000009060002000000010410405260959232368975936710526161281620145   1030000500030000   555610112235104519000010487Ocean Super Center St  ohn           MMR11005260959232368970526000000000000000   10300001 00104100000000000544000000000000     
100   95050314557307430000000000006860000000006860002000000010410405261202313231096984910526000007229524   1020000200030000   333400010001204104000000281Myanmar Soft-Gate Tech Yangon        MMR11005261202313231090526000000000000000   10300001F05104100000000001441000000000000     
100   95050312498129060000000000002940000000002940002000000010410405261144251425760105840526000007229443   1020000200030000   333400010001204104000000281Myanmar Soft-Gate Tech Yangon        MMR11005261144251425760526000000000000000   10300001F05104100000000000617000000000000     
100   95050311959900780000000000000980000000000980002000000010410405261355232523013226860526000007229964   1020000200030000   333400010001204104000000281Myanmar Soft-Gate Tech Yangon        MMR11005261355232523010526000000000000000   10300001F05104100000000000206000000000000     
100   95050310305100650000000000003000000000003000002000000010410405260044591459467263010526000007225064   1030000200030000   3338000100012031040000040022C2P (Myanmar) Co. Ltd Yangon        MMR11005260044591459460526000000000000000   10300001F05104100000000000630000000000000     
100   62911028202907490000000000001600000000001600002000000010410405260813012357885331010526999471422145   1030000500030000   555610103462104519000003420City Mart Yankin Cente 1             MMR11005260813012357880526000000000000000   10300001 00104100000000000096000000000000     
100   62911028202631420000000000027650000000027650002000000010410405261152572383743511700526726321826145   1030000500030000   555610110576104519000009164City Mart China Town P int Cen       MMR11005261152572383740526000000000000000   10300001 00104100000000001659000000000000     
100   95050316769671810000000000000980000000000980002000000010410405260256512651322228540526000007225455   1020000200030000   333400010001204104000000281Myanmar Soft-Gate Tech Yangon        MMR11005260256512651320526000000000000000   10300001F05104100000000000206000000000000     
100   95050324154190880000000000002940000000002940002000000010410405260437010701582472190526000007226340   1020000200030000   333400010001204104000000281Myanmar Soft-Gate Tech Yangon        MMR11005260437010701580526000000000000000   10300001F05104100000000000617000000000000     
100   95050326750398570000000000012684000000012684002000000010410405260959202369086677570526169291613145   1030000500030000   555610104046104519000003821City Mart North Point  enter         MMR11005260959202369080526000000000000000   10300001 00104100000000003171000000000000     
100   62911028202761360000000000034160000000034160002000000010410405261049452374806243010526777191723145   1030000500030000   555610108768104519000003818City Mart Oattara Thir NPT           MMR11005261049452374800526000000000000000   10300001 00104100000000002050000000000000     
100   95050312005798410000000000000980000000000980002000000010410405260335550555868537110526000007225755   1020000200030000   333400010001204104000000281Myanmar Soft-Gate Tech Yangon        MMR11005260335550555860526000000000000000   10300001F05104100000000000206000000000000     
100   95030329830382620000000000300000000000300000002000000010410405261447011701783511700526000007230139   1030000200030000   333800010001203104000003327KBZPay                 Yangon        MMR11005261447011701780526000000000000000   10300001F05104100000000063000000000000000     
100   95050315743141220000000000000980000000000980002000000010410405260347031703271303940526000007225863   1020000200030000   333400010001204104000000281Myanmar Soft-Gate Tech Yangon        MMR11005260347031703270526000000000000000   10300001F05104100000000000206000000000000     
100   95050312005798410000000000000980000000000980002000000010410405260745051505363323150526000007227867   1020000200030000   333400010001204104000000281Myanmar Soft-Gate Tech Yangon        MMR11005260745051505360526000000000000000   10300001F05104100000000000206000000000000     
100   95050314996291580000000000000980000000000980002000000010410405261253232323745708440526000007229717   1020000200030000   333400010001204104000000281Myanmar Soft-Gate Tech Yangon        MMR11005261253232323740526000000000000000   10300001F05104100000000000206000000000000     
100   62911028202261230000000000086944000000086944002000000010410405260628432346364716210526822041354145   1030000500030000   555610118966104519000016137City Mart South Okkala WZYD BR       MMR11005260628432346360526000000000000000   10300001 00104100000000005217000000000000     
100   95050329613303740000000000025000000000025000002000000010410405260034170417680312720526000007225048   1030000200030000   333800010001203104000003327KBZPay                 Yangon        MMR11005260034170417680526000000000000000   10300001F05104100000000005250000000000000     
100   62443100361813580000000000030000000000030000002000000010410405260538540854186153200526000007226849   1030000200030000   333800010001203104000003327KBZPay                 Yangon        MMR11005260538540854180526000000000000000   10300001F05104100000000006300000000000000     
100   95050312360118350000000000003000000000003000002000000010410405260745371537008365700526000007227875   1030000200030000   3334000100012031040000040102C2P (Myanmar) Co. Ltd Yangon        MMR11005260745371537000526000000000000000   10300001F05104100000000000630000000000000     
100   95050310616516480000000000002940000000002940002000000010410405260846421642639436300526000007228377   1020000200030000   333400010001204104000000281Myanmar Soft-Gate Tech Yangon        MMR11005260846421642630526000000000000000   10300001F05104100000000000617000000000000     
100   95050312498129060000000000002940000000002940002000000010410405260552212221307479090526000007226958   1020000200030000   333400010001204104000000281Myanmar Soft-Gate Tech Yangon        MMR11005260552212221300526000000000000000   10300001F05104100000000000617000000000000     
100   95050316717221100000000000000980000000000980002000000010410405261035170517618500240526000007229129   1020000200030000   333400010001204104000000281Myanmar Soft-Gate Tech Yangon        MMR11005261035170517610526000000000000000   10300001F05104100000000000206000000000000     
100   95050312005798410000000000000980000000000980002000000010410405260747111711172812580526000007227887   1020000200030000   333400010001204104000000281Myanmar Soft-Gate Tech Yangon        MMR11005260747111711170526000000000000000   10300001F05104100000000000206000000000000     
100   62911028202469800000000000002500000000002500002000000010410405260754012355383511700526727231424145   1030000500030000   555610117864104519000009164City Mart China Town P int Cen       MMR11005260754012355380526000000000000000   10300001 00104100000000000150000000000000     
