100   95030367537085740000000000000980000000000980002000000010410405270858522852893511700527000007234143   1020000200030000   333400010001204104000000281Myanmar Soft-Gate Tech Yangon        MMR11005270858522852890527000000000000000   10300001F05104100000000000206000000000000     
100   95050311959900780000000000000980000000000980002000000010410405271312134213052561280527000007235617   1020000200030000   333400010001204104000000281Myanmar Soft-Gate Tech Yangon        MMR11005271312134213050527000000000000000   10300001F05104100000000000206000000000000     
100   62443100301716860000000000002940000000002940002000000010410405271409163916560653510527000007235823   1020000200030000   333400010001204104000000281Myanmar Soft-Gate Tech Yangon        MMR11005271409163916560527000000000000000   10300001F05104100000000000617000000000000     
100   95050319709462380000000000003000000000003000002000000010410405271106043604283782570527000007235040   1030000200030000   3338000100012031040000040022C2P (Myanmar) Co. Ltd Yangon        MMR11005271106043604280527000000000000000   10300001F05104100000000000630000000000000     
100   95050312498129060000000000002940000000002940002000000010410405271427195719141249180527000007235874   1020000200030000   333400010001204104000000281Myanmar Soft-Gate Tech Yangon        MMR11005271427195719140527000000000000000   10300001F05104100000000000617000000000000     
100   62443101037081820000000000164890000000164890002000000010410405271406138318847348540527214721831884   1040001600030000   581420000803000000010000579Jeff's Kitchen (Ahlone Yangon        MMR11005271406138318840527000000000000000   10300001F00104100000000019787000000000000     
100   95050311184380560000000000004900000000004900002000000010410405270801003100238108690527000007233574   1020000200030000   333400010001204104000000281Myanmar Soft-Gate Tech Yangon        MMR11005270801003100230527000000000000000   10300001F05104100000000001029000000000000     
100   95050311121153200000000000000980000000000980002000000010410405271215024502734293140527000007235370   1020000200030000   333400010001204104000000281Myanmar Soft-Gate Tech Yangon        MMR11005271215024502730527000000000000000   10300001F05104100000000000206000000000000     
100   95030308100010080000000000000980000000000980002000000010410405270910504050773511700527000007234243   1020000200030000   333400010001204104000000281Myanmar Soft-Gate Tech Yangon        MMR11005270910504050770527000000000000000   10300001F05104100000000000206000000000000     
100   62443100303702210000000000080000000000080000002000000010410405270502417932553455970527214712793255   1040001600030000   598320000316000000010000304PT Power Petrol Statio Yangon        MMR11005270502417932550527000000000000000   10300001F00104100000000009600000000000000     
100   62443100379321630000000000028000000000028000002000000010410405270806468032496966780527214715803249   1040001600030000   598320001170000000010000527Shwe Taung Energy (YGN Yangon        MMR11005270806468032490527000000000000000   10300001F00104100000000003360000000000000     
100   95030301100103940000000000020550000000020550002000000010410405271314312489263511700527780441950146   1030000300030000   555510125557104519000021378OneStopMartShoppingMal 0049          MMR11005271314312489260527000000000000000   10300001 00104100000000001233000000000000     
100   95030301100124990000000000037450000000037450002000000010410405271207402483043511700527103361850146   1030000500030000   555610110597104519000009166City Mart 47 Branch                  MMR11005271207402483040527000000000000000   10300001 00104100000000002247000000000000     
100   95050311184380560000000000002940000000002940002000000010410405270313194319311852930527000007231331   1020000200030000   333400010001204104000000281Myanmar Soft-Gate Tech Yangon        MMR11005270313194319310527000000000000000   10300001F05104100000000000617000000000000     
100   95050319996628650000000000000980000000000980002000000010410405271101283128895435050527000007235015   1020000200030000   333400010001204104000000281Myanmar Soft-Gate Tech Yangon        MMR11005271101283128890527000000000000000   10300001F05104100000000000206000000000000     
100   95030306100096490000000000001960000000001960002000000010410405270427275727863511700527000007231977   1020000200030000   333400010001204104000000281Myanmar Soft-Gate Tech Yangon        MMR11005270427275727860527000000000000000   10300001F05104100000000000412000000000000     
100   62911028202472440000000000050000000000050000002000000010410405270841138050093511700527214715805009   1040001600030000   598320000658000000010000527Shwe Taung Energy (YGN Yangon        MMR11005270841138050090527000000000000000   10300001F00104100000000001500000000000000     
100   95050311959900780000000000000980000000000980002000000010410405270401043104091051410527000007231770   1020000200030000   333400010001204104000000281Myanmar Soft-Gate Tech Yangon        MMR11005270401043104090527000000000000000   10300001F05104100000000000206000000000000     
100   95050318267399100000000000001960000000001960002000000010410405270817564756184087300527000007233728   1020000200030000   333400010001204104000000281Myanmar Soft-Gate Tech Yangon        MMR11005270817564756180527000000000000000   10300001F05104100000000000412000000000000     
100   95050314307746340000000000002940000000002940002000000010410405271611554155261334270527000007236152   1020000200030000   333400010001204104000000281Myanmar Soft-Gate Tech Yangon        MMR11005271611554155260527000000000000000   10300001F05104100000000000617000000000000     
100   95050312210363590000000000003100000000003100002000000010410405271213274327930988180527000007235358   1030000200030000   333800010001203104000003327KBZPay                 Yangon        MMR11005271213274327930527000000000000000   10300001F05104100000000000651000000000000     
100   95050323722449090000000000004409000000004409002000000010410405271122595259252725760527000007235112   1020000200030000   333400010001204104000000281Myanmar Soft-Gate Tech Yangon        MMR11005271122595259250527000000000000000   10300001F05104100000000000926000000000000     
100   62911028202685470000000000025000000000025000002000000010410405270826378042853511700527214715804285   1040001600030000   806220000002000000010000001Victoria Hospital      Yangon        MMR11005270826378042850527000000000000000   10300001F00104100000000001500000000000000     
100   95050311121153200000000000000980000000000980002000000010410405271212464246999250590527000007235359   1020000200030000   333400010001204104000000281Myanmar Soft-Gate Tech Yangon        MMR11005271212464246990527000000000000000   10300001F05104100000000000206000000000000     
100   95050312358501180000000000186807000000186807002000000010410405270356315964197150770527263164990415   1040001400030000   806210000094028062100000766Yoma OUE Pun Hlaing Ho pital  Yoma O MMR11005270356315964190527000000000000000   10300001 00104100000000044834000000000000     
100   95050328212196190000000000098800000000098800002000000010410405270341542424042363510527903111005146   1030000300030000   555510124686104519000020166Makro Myanmar                        MMR11005270341542424040527000000000000000   10300001 00104100000000023712000000000000     
100   95050310427855490000000000001960000000001960002000000010410405270843121312633917110527000007233972   1020000200030000   333400010001204104000000281Myanmar Soft-Gate Tech Yangon        MMR11005270843121312630527000000000000000   10300001F05104100000000000412000000000000     
100   95050318617855880000000000002940000000002940002000000010410405270938320832877803960527000007234483   1020000200030000   333400010001204104000000281Myanmar Soft-Gate Tech Yangon        MMR11005270938320832870527000000000000000   10300001F05104100000000000617000000000000     
100   95050314893649800000000000005880000000005880002000000010410405270248201820103081650527000007231115   1020000200030000   333400010001204104000000281Myanmar Soft-Gate Tech Yangon        MMR11005270248201820100527000000000000000   10300001F05104100000000001235000000000000     
100   62911028202440680000000000002450000000002450002000000010410405271213010430963511700527481431801146   1030000900030000   591219000970190110000000777Shwe Ohh Pharmacy St ( YANGONAW      MMR11005271213010430960527000000000000000   10300001F00104100000000000147000000000000     
100   95050312210363590000000000020000000000020000002000000010410405270642301230273079930527000007232919   1030000200030000   333800010001203104000003327KBZPay                 Yangon        MMR11005270642301230270527000000000000000   10300001F05104100000000004200000000000000     
100   95030333409030400000000000054287000000054287002000000010410405270522442434243511700527914551111146   1030000500030000   555610118960104519000016137City Mart South Okkala WZYD BR       MMR11005270522442434240527000000000000000   10300001 00104100000000003257000000000000     
100   95050319925596540000000000014700000000014700002000000010410405271454352435069596700527000007235943   1020000200030000   333400010001204104000000281Myanmar Soft-Gate Tech Yangon        MMR11005271454352435060527000000000000000   10300001F05104100000000003087000000000000     
100   95050319006804440000000000000980000000000980002000000010410405270942571257182846510527000007234505   1020000200030000   333400010001204104000000281Myanmar Soft-Gate Tech Yangon        MMR11005270942571257180527000000000000000   10300001F05104100000000000206000000000000     
100   95050327416134790000000000002940000000002940002000000010410405270853512351854002200527000007234083   1020000200030000   333400010001204104000000281Myanmar Soft-Gate Tech Yangon        MMR11005270853512351850527000000000000000   10300001F05104100000000000617000000000000     
100   95050316769671810000000000000980000000000980002000000010410405271047021702399080400527000007234920   1020000200030000   333400010001204104000000281Myanmar Soft-Gate Tech Yangon        MMR11005271047021702390527000000000000000   10300001F05104100000000000206000000000000     
100   62911028202132460000000000007200000000007200002000000010410405271148180425053511700527147181818146   1030000900030000   541119001372190110000000978Ocean PZD Season C 2   YANGONAUNG    MMR11005271148180425050527000000000000000   10300001F00104100000000000432000000000000     
100   95050311184380560000000000000980000000000980002000000010410405270336190619155583380527000007231545   1020000200030000   333400010001204104000000281Myanmar Soft-Gate Tech Yangon        MMR11005270336190619150527000000000000000   10300001F05104100000000000206000000000000     
100   95030318100002710000000000002940000000002940002000000010410405270251172117573369510527000007231138   1020000200030000   333400010001204104000000281Myanmar Soft-Gate Tech Yangon        MMR11005270251172117570527000000000000000   10300001F05104100000000000617000000000000     
100   62911028202359000000000000005558000000005558002000000010410405270343532424663511700527968171029146   1030000500030000   555610108840104519000003432City Mart Junction Zaw na 1          MMR11005270343532424660527000000000000000   10300001 00104100000000000333000000000000     
100   62443101007477200000000000042500000000042500002000000010410405270529172434703796350527960581144146   1030000300030000   555510124685104519000020166Makro Myanmar                        MMR11005270529172434700527000000000000000   10300001 00104100000000010200000000000000     
100   62911028202792960000000000045000000000045000002000000010410405270812512454203511700527964411447146   1030000300030000   444410104694104519000004433Ngwe Moe Hotel                       MMR11005270812512454200527000000000000000   10300001 00104100000000004590000000000000     
100   62911028202308280000000000023100000000023100002000000010410405271309048268433511700527214720826843   1040001600030000   581420001161000000010000871Kin Sakura (Bo Aung Ky ygn           MMR11005271309048268430527000000000000000   10300001F00104100000000000693000000000000     
100   95050311382087030000000000002940000000002940002000000010410405270601113111924221840527000007232660   1020000200030000   333400010001204104000000281Myanmar Soft-Gate Tech Yangon        MMR11005270601113111920527000000000000000   10300001F05104100000000000617000000000000     
100   95050320360851930000000000002940000000002940002000000010410405270557182718575363750527000007232627   1020000200030000   333400010001204104000000281Myanmar Soft-Gate Tech Yangon        MMR11005270557182718570527000000000000000   10300001F05104100000000000617000000000000     
100   95030367537085740000000000000980000000000980002000000010410405271520135013083511700527000007236016   1020000200030000   333400010001204104000000281Myanmar Soft-Gate Tech Yangon        MMR11005271520135013080527000000000000000   10300001F05104100000000000206000000000000     
100   62911028202466670000000000052500000000052500002000000010410405270953248088823511700527214716808882   1040001600030000   591220000276000000010000264Shwe Ohh Pharmacy (YGH Yangon        MMR11005270953248088820527000000000000000   10300001F00104100000000003150000000000000     
100   62911028202685470000000000010000000000010000002000000010410405270947498085893511700527214716808589   1040001600030000   806220000002000000010000001Victoria Hospital      Yangon        MMR11005270947498085890527000000000000000   10300001F00104100000000000600000000000000     
100   62911028202446700000000000020165000000020165002000000010410405271124002478043511700527566561732146   1030000500030000   555610110561104519000009163City Mart Ayeyarwon Br nch           MMR11005271124002478040527000000000000000   10300001 00104100000000001210000000000000     
100   62443100301716860000000000000980000000000980002000000010410405271414164416022816570527000007235836   1020000200030000   333400010001204104000000281Myanmar Soft-Gate Tech Yangon        MMR11005271414164416020527000000000000000   10300001F05104100000000000206000000000000     
100   95050310427855490000000000005880000000005880002000000010410405271123025302057683210527000007235119   1020000200030000   333400010001204104000000281Myanmar Soft-Gate Tech Yangon        MMR11005271123025302050527000000000000000   10300001F05104100000000001235000000000000     
100   95050317728825080000000000004900000000004900002000000010410405270424255425440796120527000007231940   1020000200030000   333400010001204104000000281Myanmar Soft-Gate Tech Yangon        MMR11005270424255425440527000000000000000   10300001F05104100000000001029000000000000     
100   95050312498129060000000000001960000000001960002000000010410405270920335033632775200527000007234339   1020000200030000   333400010001204104000000281Myanmar Soft-Gate Tech Yangon        MMR11005270920335033630527000000000000000   10300001F05104100000000000412000000000000     
100   95050318057347910000000000001960000000001960002000000010410405270019444944993592230527000007230673   1020000200030000   333400010001204104000000281Myanmar Soft-Gate Tech Yangon        MMR11005270019444944990527000000000000000   10300001F05104100000000000412000000000000     
100   95050316601084530000000000000980000000000980002000000010410405270000443044604077820527000007230649   1020000200030000   333400010001204104000000281Myanmar Soft-Gate Tech Yangon        MMR11005270000443044600527000000000000000   10300001F05104100000000000206000000000000     
100   95050313968650950000000000000980000000000980002000000010410405270259092909874649040527000007231196   1020000200030000   333400010001204104000000281Myanmar Soft-Gate Tech Yangon        MMR11005270259092909870527000000000000000   10300001F05104100000000000206000000000000     
100   95050314302558730000000000002940000000002940002000000010410405271508333833947944210527000007235984   1020000200030000   333400010001204104000000281Myanmar Soft-Gate Tech Yangon        MMR11005271508333833940527000000000000000   10300001F05104100000000000617000000000000     
100   62911028202232860000000000022400000000022400002000000010410405271023318113513511700527214717811351   1040001600030000   598320000838000000010000600Regency Petrol Station Ygn           MMR11005271023318113510527000000000000000   10300001F00104100000000000672000000000000     
100   95050317003064220000000000001960000000001960002000000010410405271310154015920823700527000007235609   1020000200030000   333400010001204104000000281Myanmar Soft-Gate Tech Yangon        MMR11005271310154015920527000000000000000   10300001F05104100000000000412000000000000     
100   95050313123223200000000000000980000000000980002000000010410405270621465146897356610527000007232768   1020000200030000   333400010001204104000000281Myanmar Soft-Gate Tech Yangon        MMR11005270621465146890527000000000000000   10300001F05104100000000000206000000000000     
100   95050318621775380000000000002000000000002000002000000010410405270827115711627477360527000007233815   1030000200030000   3338000100012031040000040022C2P (Myanmar) Co. Ltd Yangon        MMR11005270827115711620527000000000000000   10300001F05104100000000000420000000000000     
100   95050317563202100000000000013000000000013000002000000010410405271140162479690817980527750101827146   1030000500030000   555610110557104519000009163City Mart Ayeyarwon Br nch           MMR11005271140162479690527000000000000000   10300001 00104100000000003250000000000000     
100   62443100389971990000000000020000000000020000002000000010410405271126305630057768300527000007235130   1030000200030000   333800010001203104000003327KBZPay                 Yangon        MMR11005271126305630050527000000000000000   10300001F05104100000000004200000000000000     
100   62911028202150190000000000010349000000010349002000000010410405270936282463883511700527056051637146   1030000300030000   555510118558104519000015799S and P Distribution C Ltd           MMR11005270936282463880527000000000000000   10300001 00104100000000000621000000000000     
100   95050327192897240000000000000980000000000980002000000010410405270800483048286371110527000007233569   1020000200030000   333400010001204104000000281Myanmar Soft-Gate Tech Yangon        MMR11005270800483048280527000000000000000   10300001F05104100000000000206000000000000     
100   95050319161596230000000000000980000000000980002000000010410405271101553155170392500527000007235019   1020000200030000   333400010001204104000000281Myanmar Soft-Gate Tech Yangon        MMR11005271101553155170527000000000000000   10300001F05104100000000000206000000000000     
100   95050311121153200000000000000980000000000980002000000010410405271213544354459335690527000007235363   1020000200030000   333400010001204104000000281Myanmar Soft-Gate Tech Yangon        MMR11005271213544354450527000000000000000   10300001F05104100000000000206000000000000     
100   95030367537085740000000000001960000000001960002000000010410405271218094809143511700527000007235380   1020000200030000   333400010001204104000000281Myanmar Soft-Gate Tech Yangon        MMR11005271218094809140527000000000000000   10300001F05104100000000000412000000000000     
100   95050312498129060000000000001960000000001960002000000010410405270917264726667817750527000007234299   1020000200030000   333400010001204104000000281Myanmar Soft-Gate Tech Yangon        MMR11005270917264726660527000000000000000   10300001F05104100000000000412000000000000     
100   95050312224678430000000000001960000000001960002000000010410405271356492649517263440527000007235783   1020000200030000   333400010001204104000000281Myanmar Soft-Gate Tech Yangon        MMR11005271356492649510527000000000000000   10300001F05104100000000000412000000000000     
100   95050310676042860000000000010000000000010000002000000010410405270405593559709398920527000007231806   1030000200030000   333800010001203104000003327KBZPay                 Yangon        MMR11005270405593559700527000000000000000   10300001F05104100000000002100000000000000     
100   95030308616180720000000000010000000000010000002000000010410405271628115811883511700527000007236184   1030000200030000   333800010001203104000003327KBZPay                 Yangon        MMR11005271628115811880527000000000000000   10300001F05104100000000002100000000000000     
100   62911028202662930000000000036000000000036000002000000010410405271242288244323511700527214719824432   1040001600030000   541120000557000000010000465Ocean Shwe Gone Daing  Yangon        MMR11005271242288244320527000000000000000   10300001F00104100000000002160000000000000     
100   62911028202423360000000000005750000000005750002000000010410405271257342487973511700527656261959146   1030000500030000   555610104049104519000003821City Mart North Point  enter         MMR11005271257342487970527000000000000000   10300001 00104100000000000345000000000000     
100   95050317338786370000000000021000000000021000002000000010410405271220425042280738600527000007235392   1030000200030000   333800010001203104000003327KBZPay                 Yangon        MMR11005271220425042280527000000000000000   10300001F05104100000000004410000000000000     
100   95050323233042810000000000000980000000000980002000000010410405270417004700271136500527000007231892   1020000200030000   333400010001204104000000281Myanmar Soft-Gate Tech Yangon        MMR11005270417004700270527000000000000000   10300001F05104100000000000206000000000000     
100   95050316997303010000000000005000000000005000002000000010410405271019584958816662050527000007234747   1040001600030000   333800010001220104000004507A +                    Yangon        MMR11005271019584958810527000000000000000   10300001F05104100000000001050000000000000     
100   62911028202245730000000000083250000000083250002000000010410405270702528001923511700527325287841836   1040001400030000   581410000465025814100002939Golden Duck Restaurant (Kan Taw Min) MMR11005270702528001920527000000000000000   10300001 00104100000000002498000000000000     
100   62911028202331290000000000040700000000040700002000000010410405271043168130763511700527214717813076   1040001600030000   591220000295000000010000283Shwe Ohh Pharmacy (39t Yangon        MMR11005271043168130760527000000000000000   10300001F00104100000000002442000000000000     
100   62911028202448030000000000007000000000007000002000000010410405271000458093283511700527214717809328   1040001600030000   569120000924000000010000671Generation Concept Sto Ygn           MMR11005271000458093280527000000000000000   10300001F00104100000000000420000000000000     
100   62911028202423360000000000005000000000005000002000000010410405271233232486263511700527464081936146   1030000500030000   555610104044104519000003821City Mart North Point  enter         MMR11005271233232486260527000000000000000   10300001 00104100000000000300000000000000     
100   95050311959900780000000000000980000000000980002000000010410405271406273627632305990527000007235818   1020000200030000   333400010001204104000000281Myanmar Soft-Gate Tech Yangon        MMR11005271406273627630527000000000000000   10300001F05104100000000000206000000000000     
100   62911028202468080000000000072200000000072200002000000010410405270329242422973602200527807590913146   1030000300030000   555510124691104519000020166Makro Myanmar                        MMR11005270329242422970527000000000000000   10300001 00104100000000004332000000000000     
100   95050316997303010000000000010000000000010000002000000010410405270943071307871194020527000007234512   1030000200030000   333800010001203104000003327KBZPay                 Yangon        MMR11005270943071307870527000000000000000   10300001F05104100000000002100000000000000     
100   95050317518971470000000000020000000000020000002000000010410405271241111111154128670527000007235478   1030000200030000   3338000100012031040000040022C2P (Myanmar) Co. Ltd Yangon        MMR11005271241111111150527000000000000000   10300001F05104100000000004200000000000000     
100   95050312224678430000000000002940000000002940002000000010410405271352082208513958470527000007235769   1020000200030000   333400010001204104000000281Myanmar Soft-Gate Tech Yangon        MMR11005271352082208510527000000000000000   10300001F05104100000000000617000000000000     
100   95050311382087030000000000000980000000000980002000000010410405270651372137461427440527000007232992   1020000200030000   333400010001204104000000281Myanmar Soft-Gate Tech Yangon        MMR11005270651372137460527000000000000000   10300001F05104100000000000206000000000000     
100   62911028202026450000000000040200000000040200002000000010410405271304090442683511700527181341909146   1030000900030000   541119000131190110000000083SeinGayHarParami Cente YANGON        MMR11005271304090442680527000000000000000   10300001F00104100000000002412000000000000     
100   95050313616076540000000000030200000000030200002000000010410405270242511251684734130527000007231075   1030000200030000   333800010001203104000003327KBZPay                 Yangon        MMR11005270242511251680527000000000000000   10300001F05104100000000006342000000000000     
100   62911028202132460000000000051124000000051124002000000010410405271143390424013511700527085131839146   1030000900030000   541119001355190110000000977Ocean PZD C9           YANGONAUNG    MMR11005271143390424010527000000000000000   10300001F00104100000000003067000000000000     
100   95030308100042590000000000030000000000030000002000000010410405260928230024573511700526214615002457   1030000500030000   598320001701000015172200017MAX ENERGY             PTN           MMR11005260928230024570526000000000000000   10300001 00104100000000000900000000000000     
100   95050317041521450000000000027500000000027500002000000010410405260702380024426543020526000346988792   1030000300030000   531100000104000000000000038CB BANK                ICELAND CO.LT MMR11005260702380024420526000000000000000   10300001F00104100000000006600000000000000     
100   95050326228858240000000000045000000000045000002000000010410405261354570066566702030526214613006656   1030000600030000   554100001226315799420000679DENKO MAGWAY - 2       MAGWAY        MMR11005261354570066560526000000000000000   10300001 00104100000000005400000000000000     
100   95030318100004530000000000021000000000021000002000000010410405260922170105313511700526214609010531   1030000600030000   554100001218315799420000670DENKO MAWLAMYAING      MON STATE.    MMR11005260922170105310526000000000000000   10300001 00104100000000000630000000000000     
100   62443101023815100000000000034000000000034000002000000010410405260752020884666032450526214607088466   1030000600030000   554100000946315799420000471DENKO BAHAN            YANGON        MMR11005260752020884660526000000000000000   10300001 00104100000000004080000000000000     
100   62911028202693960000000000020000000000020000002000000010410405260406520884073511700526214604088407   1030000600030000   554100000946315799420000471DENKO BAHAN            YANGON        MMR11005260406520884070526000000000000000   10300001 00104100000000000600000000000000     
100   62911028202761360000000000050000000000050000002000000010410405261115300380293511700526214611038029   1030000600030000   554100001865315799420001235DENKO NAY PYI TAW 2    NAYPYITAW     MMR11005261115300380290526000000000000000   10300001 00104100000000001500000000000000     
100   95050320531117320000000000100000000000100000002000000010410405260751510523464379960526214607052346   1030000600030000   554100001756315799420001137DENKO NORTH DAGON 2    YANGON        MMR11005260751510523460526000000000000000   10300001 00104100000000012000000000000000     
100   95050326750398570000000000020000000000020000002000000010410405261122590785101382310526214611078510   1030000600030000   554100000955315799420000477DENKO INSEIN           YANGON        MMR11005261122590785100526000000000000000   10300001 00104100000000002400000000000000     
100   62911028202793040000000000050000000000050000002000000010410405260638110522513511700526214606052251   1030000600030000   554100000969315799420000481DENKO NORTH OKKALAPA   YANGON        MMR11005260638110522510526000000000000000   10300001 00104100000000001500000000000000     
100   62911028202668140000000000056000000000056000002000000010410405261006340750513511700526214610075051   1030000600030000   554100000957315799420000480DENKO N.DAGON - 3      YANGON        MMR11005261006340750510526000000000000000   10300001 00104100000000001680000000000000     
100   62443100379321630000000000056000000000056000002000000010410405260736530884601755770526214607088460   1030000600030000   554100000946315799420000471DENKO BAHAN            YANGON        MMR11005260736530884600526000000000000000   10300001 00104100000000006720000000000000     
100   95050321232876860000000000073000000000073000002000000010410405260928580129479095920526214609012947   1030000600030000   554100002328315799420001235DENKO NAY PYI TAW 2    NAYPYITAW     MMR11005260928580129470526000000000000000   10300001 00104100000000008760000000000000     
100   62911028202909050000000000030800000000030800002000000010410405270928200010353511700527000747599603   1030000200030000   569988000788000008000004559KBZ BANK               HLS-IPANEMA   MMR11005270928200010350527000000000000000   10300001 00104100000000001848000000000000     
100   62911028202290100000000000015521000000015521002000000010410405271200040028543511700527000747584554   1030000200030000   541188001079000008000000294KBZ BANK               CITY MART - J MMR11005271200040028540527000000000000000   10300001 00104100000000000931000000000000     
100   62911028202708160000000000061333000000061333002000000010410405271041320045743849710527000747578827   1030000200030000   541188001424000008000000401KBZ BANK               OCEAN SUPERCE MMR11005271041320045740527000000000000000   10300001 00104100000000003680000000000000     
100   62911028202179570000000000016321000000016321002000000010410405271339050035843511700527000747591239   1030000200030000   541188001004000008000000008KBZ BANK               MARKETPLACE - MMR11005271339050035840527000000000000000   10300001 00104100000000000979000000000000     
100   62911028202296140000000000016800000000016800002000000010410405271330520028603511700527000747590742   1030000200030000   541188001079000008000000294KBZ BANK               CITY MART - J MMR11005271330520028600527000000000000000   10300001 00104100000000001008000000000000     
100   62911028202472440000000000085286000000085286002000000010410405271403520033873511700527000747592875   1030000200030000   541188001005000008000000008KBZ BANK               MARKETPLACE - MMR11005271403520033870527000000000000000   10300001 00104100000000005117000000000000     
100   62911028202728380000000000010500000000010500002000000010410405270640190045283511700527000747589342   1030000200030000   591288000837000008000004646KBZ BANK               PINLON PHARMA MMR11005270640190045280527000000000000000   10300001 00104100000000000630000000000000     
100   95050327185992630000000000010580000000010580002000000010410405271714390028747427920527000747603161   1030000200030000   541188001079000008000000294KBZ BANK               CITY MART - J MMR11005271714390028740527000000000000000   10300001 00104100000000002645000000000000     
100   62911028202474180000000000006700000000006700002000000010410405271512310006583511700527000747597377   1030000200030000   541188001046000008000000010KBZ BANK               MARKETPLACE - MMR11005271512310006580527000000000000000   10300001 00104100000000000402000000000000     
100   62911028202238150000000000037730000000037730002000000010410405270310530028003511700527000747575716   1030000200030000   581288000389000008000002776KBZ BANK               RANGOON TEA H MMR11005270310530028000527000000000000000   10300001 00104100000000003849000000000000     
100   62911028202233510000000000011150000000011150002000000010410405270944190389453511700527961141619146   1030000900030000   591219000607190110000000447Shwe Ohh Pharmacy St-3 YANGONINDAING MMR11005270944190389450527000000000000000   10300001F00104100000000000669000000000000     
100   95050313453886860000000000020000000000020000002000000010410405271923060078667433630527000747608140   1030000200030000   541188001331000008000000327KBZ BANK               CITY MART - S MMR11005271923060078660527000000000000000   10300001 00104100000000005000000000000000     
100   62911028202404390000000000009000000000009000002000000010410405270447460310123511700527282171146146   1030000900030000   541119001257190110000000957City Mart JS City Care YANGONUT      MMR11005270447460310120527000000000000000   10300001F00104100000000000540000000000000     
100   62911028202000290000000000025000000000025000002000000010410405262032480248061098310527000007230567   1030000300030000   333800010001206104000003988CB Card +              Yangon        MMR11005262032480248060527000000000000000   10300001F05104100000000005250000000000000     
100   95050324247403260000000000050000000000050000002000000010410405270947190390661279120527038171619146   1030000900030000   554119000344190110000000211New Day Energy SCH     YANGONUNG     MMR11005270947190390660527000000000000000   10300001F00104100000000006000000000000000     
100   95050314567080940000000000000980000000000980002000000010410405271333190319635525860527000007235710   1020000200030000   333400010001204104000000281Myanmar Soft-Gate Tech Yangon        MMR11005271333190319630527000000000000000   10300001F05104100000000000206000000000000     
100   62911028202404390000000000049650000000049650002000000010410405270455400312763511700527433251140146   1030000900030000   541119001248190110000000955City Mart JS C 7       YANGONUT      MMR11005270455400312760527000000000000000   10300001F00104100000000002979000000000000     
100   62911028202728380000000000013100000000013100002000000010410405270808300363053511700527379381430146   1030000900030000   541119001280190110000000963City Mart SPL C 5      YANGONMYOTHIT MMR11005270808300363050527000000000000000   10300001F00104100000000000786000000000000     
100   95030353305053700000000000027000000000027000002000000010410405270518080318843511700527797481108146   1030000900030000   573219001178190110000000934UNIQUE Pansodan        YANGONADA     MMR11005270518080318840527000000000000000   10300001F00104100000000001620000000000000     
100   62443100379321630000000000100000000000100000002000000010410405270727070352708193790527786571307146   1030000900030000   554119000344190110000000211New Day Energy SCH     YANGONUNG     MMR11005270727070352700527000000000000000   10300001F00104100000000012000000000000000     
100   95030319588829360000000000018200000000018200002000000010410405270315590286063537710527880450959146   1030000900030000   541119001218190110000000945City Mart TM C 3       YANGONONE     MMR11005270315590286060527000000000000000   10300001F00104100000000001092000000000000     
100   62911028202668140000000000040937000000040937002000000010410405271807080332103511700527000747605393   1030000200030000   541188001039000008000000010KBZ BANK               MARKETPLACE - MMR11005271807080332100527000000000000000   10300001 00104100000000002456000000000000     
100   95050321976590420000000000011700000000011700002000000010410405271652450111085009570527000747602194   1030000200030000   541188001189000008000000383KBZ BANK               OCEAN SUPER C MMR11005271652450111080527000000000000000   10300001 00104100000000002925000000000000     
100   62911028202150190000000000003900000000003900002000000010410405271628290139283511700527000747601056   1030000200030000   541188001047000008000000010KBZ BANK               MARKETPLACE - MMR11005271628290139280527000000000000000   10300001 00104100000000000234000000000000     
100   62911028202161240000000000010420000000010420002000000010410405271012360085743511700527000747577170   1030000200030000   541188001022000008000000298KBZ BANK               CITY MART - M MMR11005271012360085740527000000000000000   10300001 00104100000000000625000000000000     
100   95030353305053700000000000032000000000032000002000000010410405262333440344583511700527000007230633   1030000200030000   333800010001203104000003327KBZPay                 Yangon        MMR11005262333440344580527000000000000000   10300001F05104100000000006720000000000000     
100   62911028202284260000000000018845000000018845002000000010410405270652570343713511700527235221357146   1030000900030000   541119001243190110000000955City Mart JS C 2       YANGONUT      MMR11005270652570343710527000000000000000   10300001F00104100000000001131000000000000     
100   62911028202448030000000000007332000000007332002000000010410405271807370209193511700527000747605416   1030000200030000   541188001054000008000000314KBZ BANK               MARKETPLACE - MMR11005271807370209190527000000000000000   10300001 00104100000000000440000000000000     
100   62911028202474180000000000027100000000027100002000000010410405271508390289063511700527000747597206   1030000200030000   541188001042000008000000010KBZ BANK               MARKETPLACE - MMR11005271508390289060527000000000000000   10300001 00104100000000001626000000000000     
100   95030340548278620000000000148486000000148486002000000010410405270713270349223511700527576431327146   1030000900030000   806219001119190110000000900Shwe La Min Hospital L YANGONAW      MMR11005270713270349220527000000000000000   10300001F00104100000000008909000000000000     
100   62911028202472440000000000016200000000016200002000000010410405271522430362083511700527000747597883   1030000200030000   541188001025000008000000298KBZ BANK               CITY MART - M MMR11005271522430362080527000000000000000   10300001 00104100000000000972000000000000     
100   62911028202166940000000000111278000000111278002000000010410405271811510179093511700527000747605601   1030000200030000   541188001126000008000000296KBZ BANK               CITY MART - J MMR11005271811510179090527000000000000000   10300001 00104100000000006677000000000000     
100   62911028202692140000000000047507000000047507002000000010410405271255180255863511700527000747588430   1030000200030000   541188001038000008000000010KBZ BANK               MARKETPLACE - MMR11005271255180255860527000000000000000   10300001 00104100000000002850000000000000     
100   62911028202793040000000000002500000000002500002000000010410405270633070338703511700527963031307146   1030000900030000   541119001231190110000000951Marketplace KTY C 1    YANGONARTAUNG MMR11005270633070338700527000000000000000   10300001F00104100000000000150000000000000     
100   62443100379321630000000000020000000000020000002000000010410405270727480352856541300527792571348146   1030000900030000   554119000344190110000000211New Day Energy SCH     YANGONUNG     MMR11005270727480352850527000000000000000   10300001F00104100000000002400000000000000     
100   62443100384660050000000000014750000000014750002000000010410405271643440083123357080527000747601820   1030000200030000   541188001347000008000000395KBZ BANK               OCEAN SUPERMA MMR11005271643440083120527000000000000000   10300001 00104100000000003688000000000000     
100   62911028202150190000000000018900000000018900002000000010410405271624180255983511700527000747600842   1030000200030000   541188001038000008000000010KBZ BANK               MARKETPLACE - MMR11005271624180255980527000000000000000   10300001 00104100000000001134000000000000     
100   95050312224678430000000000001960000000001960002000000010410405270631480148984136740527000007232831   1020000200030000   333400010001204104000000281Myanmar Soft-Gate Tech Yangon        MMR11005270631480148980527000000000000000   10300001F05104100000000000412000000000000     
100   62911028202166940000000000068000000000068000002000000010410405270932260124513511700527000747575429   1030000200030000   541188001127000008000000296KBZ BANK               CITY MART - J MMR11005270932260124510527000000000000000   10300001 00104100000000004080000000000000     
100   95050313079290890000000000011800000000011800002000000010410405270212590274422024850527235420859146   1030000900030000   541119000112190110000000077Sein Gay Har Chinatown YANGON        MMR11005270212590274420527000000000000000   10300001F00104100000000002950000000000000     
100   62911028202793040000000000003600000000003600002000000010410405270629140337863511700527918591214146   1030000900030000   541119001239190110000000953Marketplace KTYCity Ca YANGONARTAUNG MMR11005270629140337860527000000000000000   10300001F00104100000000000216000000000000     
100   62911028202489110000000000053700000000053700002000000010410405271052570410343511700527260221757146   1030000900030000   541119001239190110000000953Marketplace KTYCity Ca YANGONARTAUNG MMR11005271052570410340527000000000000000   10300001F00104100000000003222000000000000     
100   95050317834964620000000000003483000000003483002000000010410405271049400409153697470527185191740146   1030000900030000   541119001353190110000000977Ocean PZD C 7          YANGONAUNG    MMR11005271049400409150527000000000000000   10300001F00104100000000000871000000000000     
100   95050312498129060000000000000980000000000980002000000010410405270247101710901429170527000007231111   1020000200030000   333400010001204104000000281Myanmar Soft-Gate Tech Yangon        MMR11005270247101710900527000000000000000   10300001F05104100000000000206000000000000     
100   62443100379321630000000000026300000000026300002000000010410405270858112459026165270527512271537146   1030000500030000   555610112532104519000010487Ocean Super Center St  ohn           MMR11005270858112459020527000000000000000   10300001 00104100000000006575000000000000     
100   62911028202026110000000000150000000000150000002000000010410405270802132452953511700527821311454146   1030000300030000   555510124685104519000020166Makro Myanmar                        MMR11005270802132452950527000000000000000   10300001 00104100000000009000000000000000     
100   95050314893649800000000000002940000000002940002000000010410405270935160516444839380527000007234459   1020000200030000   333400010001204104000000281Myanmar Soft-Gate Tech Yangon        MMR11005270935160516440527000000000000000   10300001F05104100000000000617000000000000     
100   95030301100122420000000000005000000000005000002000000010410405270336020602013511700527000007231547   1030000200030000   333800010001203104000003327KBZPay                 Yangon        MMR11005270336020602010527000000000000000   10300001F05104100000000001050000000000000     
100   95030301100102610000000000020000000000020000002000000010410405270636290629283511700527000007232863   1030000200030000   333800010001203104000003327KBZPay                 Yangon        MMR11005270636290629280527000000000000000   10300001F05104100000000004200000000000000     
100   95030339867270590000000000020900000000020900002000000010410405270515052433113511700527793471101146   1030000500030000   555610118960104519000016137City Mart South Okkala WZYD BR       MMR11005270515052433110527000000000000000   10300001 00104100000000001254000000000000     
100   95050313968650950000000000002940000000002940002000000010410405271442411241484554140527000007235913   1020000200030000   333400010001204104000000281Myanmar Soft-Gate Tech Yangon        MMR11005271442411241480527000000000000000   10300001F05104100000000000617000000000000     
100   95050317903887690000000000002940000000002940002000000010410405270945571557559626640527000007234536   1020000200030000   333400010001204104000000281Myanmar Soft-Gate Tech Yangon        MMR11005270945571557550527000000000000000   10300001F05104100000000000617000000000000     
100   62911028202369990000000000200000000000200000002000000010410405270847181718003511700527000007234004   1030000200030000   333800010001203104000003327KBZPay                 Yangon        MMR11005270847181718000527000000000000000   10300001F05104100000000042000000000000000     
100   95050313968650950000000000000980000000000980002000000010410405271445001500594639250527000007235925   1020000200030000   333400010001204104000000281Myanmar Soft-Gate Tech Yangon        MMR11005271445001500590527000000000000000   10300001F05104100000000000206000000000000     
100   95050318964967630000000000001960000000001960002000000010410405271045031503865775430527000007234906   1020000200030000   333400010001204104000000281Myanmar Soft-Gate Tech Yangon        MMR11005271045031503860527000000000000000   10300001F05104100000000000412000000000000     
100   95030318100002710000000000002940000000002940002000000010410405270137550755142929010527000007230852   1020000200030000   333400010001204104000000281Myanmar Soft-Gate Tech Yangon        MMR11005270137550755140527000000000000000   10300001F05104100000000000617000000000000     
100   62443100330727820000000000150000000000150000002000000010410405270943222464827889060527160131613146   1030000300030000   555510124685104519000020166Makro Myanmar                        MMR11005270943222464820527000000000000000   10300001 00104100000000036000000000000000     
100   95050313968650950000000000000980000000000980002000000010410405271439530953926206630527000007235906   1020000200030000   333400010001204104000000281Myanmar Soft-Gate Tech Yangon        MMR11005271439530953920527000000000000000   10300001F05104100000000000206000000000000     
100   62443100330108240000000000002940000000002940002000000010410405271444441444836291730527000007235924   1020000200030000   333400010001204104000000281Myanmar Soft-Gate Tech Yangon        MMR11005271444441444830527000000000000000   10300001F05104100000000000617000000000000     
100   62911028202286990000000000037950000000037950002000000010410405251407130001567439600525214520000156   1030000500030000   581220072001000015812200720UNION                  PTN           MMR11005251407130001560525000000000000000   10300001 00104100000000003871000000000000     
100   62911028202023630000000000050000000000050000002000000010410405250803140164234369000525214508016423   1030000600030000   554100002320315799420000564DENKO PHYUU            PHYUU         MMR11005250803140164230525000000000000000   10300001 00104100000000001500000000000000     
100   95050324850150480000000000045000000000045000002000000010410405251012090017039250190525214510001703   1030000600030000   554100002170315799420001517DENKO KYAUNG KONE      AYAWADY       MMR11005251012090017030525000000000000000   10300001 00104100000000005400000000000000     
100   95050312695033440000000000000980000000000980002000000010410405270257242724127954010527000007231191   1020000200030000   333400010001204104000000281Myanmar Soft-Gate Tech Yangon        MMR11005270257242724120527000000000000000   10300001F05104100000000000206000000000000     
100   95050319938772870000000000000980000000000980002000000010410405270828425842622434810527000007233825   1020000200030000   333400010001204104000000281Myanmar Soft-Gate Tech Yangon        MMR11005270828425842620527000000000000000   10300001F05104100000000000206000000000000     
100   95050319111666800000000000002940000000002940002000000010410405271622455245985951340527000007236178   1020000200030000   333400010001204104000000281Myanmar Soft-Gate Tech Yangon        MMR11005271622455245980527000000000000000   10300001F05104100000000000617000000000000     
100   95050314567080940000000000000980000000000980002000000010410405271336520652463873380527000007235720   1020000200030000   333400010001204104000000281Myanmar Soft-Gate Tech Yangon        MMR11005271336520652460527000000000000000   10300001F05104100000000000206000000000000     
100   95050312498129060000000000002940000000002940002000000010410405271339380938325610960527000007235735   1020000200030000   333400010001204104000000281Myanmar Soft-Gate Tech Yangon        MMR11005271339380938320527000000000000000   10300001F05104100000000000617000000000000     
100   95050321976590420000000000003500000000003500002000000010410405271740480111132130080527000747604370   1030000200030000   541188001189000008000000383KBZ BANK               OCEAN SUPER C MMR11005271740480111130527000000000000000   10300001 00104100000000000875000000000000     
100   62911028202136750000000000031000000000031000002000000010410405260610540034943511700526214612003494   1030000500030000   598320001901000015172200019MAX ENERGY             PTN           MMR11005260610540034940526000000000000000   10300001 00104100000000000930000000000000     
100   95050324411430900000000000050200000000050200002000000010410405270809398033883661820527214715803388   1040001600030000   581420000803000000010000579Jeff's Kitchen (Ahlone Yangon        MMR11005270809398033880527000000000000000   10300001F00104100000000006024000000000000     
100   95050321976590420000000000067692000000067692002000000010410405271100348146587087540527214718814658   1040001600030000   541120000557000000010000465Ocean Shwe Gone Daing  Yangon        MMR11005271100348146580527000000000000000   10300001F00104100000000016923000000000000     
100   95050319881452370000000000200000000000200000002000000010410405270201203120940457460527000007230917   1030000200030000   333800010001203104000003327KBZPay                 Yangon        MMR11005270201203120940527000000000000000   10300001F05104100000000042000000000000000     
100   95050326228858240000000000085000000000085000002000000010410405261353430066550627650526214613006655   1030000600030000   554100001226315799420000679DENKO MAGWAY - 2       MAGWAY        MMR11005261353430066550526000000000000000   10300001 00104100000000010200000000000000     
100   95050313396828960000000000002940000000002940002000000010410405271211174117420903080527000007235353   1020000200030000   333400010001204104000000281Myanmar Soft-Gate Tech Yangon        MMR11005271211174117420527000000000000000   10300001F05104100000000000617000000000000     
100   95050314064416890000000000001960000000001960002000000010410405271555522552052986760527000007236116   1020000200030000   333400010001204104000000281Myanmar Soft-Gate Tech Yangon        MMR11005271555522552050527000000000000000   10300001F05104100000000000412000000000000     
100   95030301100124570000000000100000000000100000002000000010410405271045141514893511700527000007234911   1030000200030000   333800010001203104000003327KBZPay                 Yangon        MMR11005271045141514890527000000000000000   10300001F05104100000000021000000000000000     
100   95050319216824370000000000150000000000150000002000000010410405270716124612307867190527000007233163   1030000200030000   333800010001203104000003327KBZPay                 Yangon        MMR11005270716124612300527000000000000000   10300001F05104100000000031500000000000000     
100   62911028202194090000000000033203000000033203002000000010410405260112440026812792710526214607002681   1030000500030000   598320001202000015172200012MAX ENERGY             PTN           MMR11005260112440026810526000000000000000   10300001 00104100000000000996000000000000     
100   95030333409030400000000000038956000000038956002000000010410405270518332433583511700527848501144146   1030000500030000   555610118960104519000016137City Mart South Okkala WZYD BR       MMR11005270518332433580527000000000000000   10300001 00104100000000002337000000000000     
100   95050316818236190000000000002940000000002940002000000010410405270157422742398804970527000007230907   1020000200030000   333400010001204104000000281Myanmar Soft-Gate Tech Yangon        MMR11005270157422742390527000000000000000   10300001F05104100000000000617000000000000     
100   62443100345308040000000000016128000000016128002000000010410405270435300530867661340527000007232041   1030000400030000   333800010001205104000004531Onepay                 Yangon        MMR11005270435300530860527000000000000000   10300001F05104100000000003387000000000000     
100   95050328074436620000000000053005000000053005002000000010410405261136080218370531340526214611021837   1030000600030000   554100002085315799420000471DENKO BAHAN            YANGON        MMR11005261136080218370526000000000000000   10300001 00104100000000006361000000000000     
100   62911028202162640000000000207700000000207700002000000010410405270701100345693511700527351311310146   1030000900030000   541119000131190110000000083SeinGayHarParami Cente YANGON        MMR11005270701100345690527000000000000000   10300001F00104100000000012462000000000000     
100   95050320531117320000000000066000000000066000002000000010410405261205010023883084280526214618002388   1030000500030000   598320002702000015172200027MAX ENERGY             PTN           MMR11005261205010023880526000000000000000   10300001 00104100000000007920000000000000     
100   95050319286546940000000000014600000000014600002000000010410405260200420005866908820526214608000586   1030000500030000   591220132901008605912201329THEIK DI WIN SHOP      PTN           MMR11005260200420005860526000000000000000   10300001 00104100000000003504000000000000     
100   95050320531117320000000000100000000000100000002000000010410405260752290523471075000526214607052347   1030000600030000   554100001756315799420001137DENKO NORTH DAGON 2    YANGON        MMR11005260752290523470526000000000000000   10300001 00104100000000012000000000000000     
100   95050313497815710000000000015000000000015000002000000010410405271358082808129001020527000007235789   1030000200030000   333800010001203104000003327KBZPay                 Yangon        MMR11005271358082808120527000000000000000   10300001F05104100000000003150000000000000     
100   62911028202147720000000000033000000000033000002000000010410405260317260020093511700526214609002009   1030000500030000   598320001604000015172200016MAX ENERGY             PTN           MMR11005260317260020090526000000000000000   10300001 00104100000000000990000000000000     
100   95030319588829360000000000019700000000019700002000000010410405270309440284693500610527800390944146   1030000900030000   541119001229190110000000946City Mart TM Season C  YANGONONE     MMR11005270309440284690527000000000000000   10300001F00104100000000001182000000000000     
100   95030308100042590000000000030000000000030000002000000010410405260749360024565174000526214614002456   1030000500030000   598320001701000015172200017MAX ENERGY             PTN           MMR11005260749360024560526000000000000000   10300001 00104100000000000900000000000000     
100   62911028202528710000000000034742000000034742002000000010410405271328030242733511700527000747590555   1030000200030000   541188001003000008000000008KBZ BANK               MARKETPLACE - MMR11005271328030242730527000000000000000   10300001 00104100000000002085000000000000     
100   62911028202728380000000000003000000000003000002000000010410405270812110363903511700527429421411146   1030000900030000   541119001289190110000000964City Mart SPL Season C YANGONMYOTHIT MMR11005270812110363900527000000000000000   10300001F00104100000000000180000000000000     
100   95050312358501180000000000116129000000116129002000000010410405260745340002009422510526214614000200   1030000500030000   806220072802000018062200728WITORIYA HOSPITAL      PTN           MMR11005260745340002000526000000000000000   10300001 00104100000000027871000000000000     
100   95030320529939180000000000036759000000036759002000000010410405260930500017205765110526000347007356   1030000300030000   541100001625000000000001151CB BANK                ONE STOP SUPE MMR11005260930500017200526000000000000000   10300001F00104100000000002206000000000000     
100   62911028202161240000000000020000000000020000002000000010410405260237380026933302300526214609002693   1030000500030000   598320001202000015172200012MAX ENERGY             PTN           MMR11005260237380026930526000000000000000   10300001 00104100000000000600000000000000     
100   62911028202132040000000000017800000000017800002000000010410405260618150000714625810526214612000071   1030000500030000   598320198101000075983201981MOON SUN HLAING THAR Y PTN           MMR11005260618150000710526000000000000000   10300001 00104100000000000534000000000000     
100   62911028202662690000000000117000000000117000002000000010410405261042110005743511700526214610000574   1030000600030000   569900002197315799420001542HAVAIANAS SJ           YANGON        MMR11005261042110005740526000000000000000   10300001 00104100000000007020000000000000     
100   95050323282717740000000000030000000000030000002000000010410405260333020016494707750526214610001649   1030000500030000   598320068302000055983200683MAX ENERGY             PTN           MMR11005260333020016490526000000000000000   10300001 00104100000000003600000000000000     
100   62911028202442250000000000060000000000060000002000000010410405260613230029983511700526214612002998   1030000500030000   598320001204000015172200012MAX ENERGY             PTN           MMR11005260613230029980526000000000000000   10300001 00104100000000001800000000000000     
100   95050321057500320000000000040000000000040000002000000010410405261027220031856847760526214616003185   1030000500030000   598320001403000015172200014MAX ENERGY             PTN           MMR11005261027220031850526000000000000000   10300001 00104100000000004800000000000000     
100   62911028202524260000000000020550000000020550002000000010410405261110350001333511700526214617000133   1030000500030000   591220010901014405912200109SHWE OHH PHARMACY      PTN           MMR11005261110350001330526000000000000000   10300001 00104100000000001233000000000000     
100   62911028202524260000000000001200000000001200002000000010410405261113070001346395010526214617000134   1030000500030000   591220010901014405912200109SHWE OHH PHARMACY      PTN           MMR11005261113070001340526000000000000000   10300001 00104100000000000072000000000000     
100   95050316901496590000000000005500000000005500002000000010410405260927220002214138460526214615000221   1030000500030000   541120045801009205411200458126 STORE              PTN           MMR11005260927220002210526000000000000000   10300001 00104100000000001375000000000000     
100   62911028202490830000000000030000000000030000002000000010410405261036280028766175210526214617002876   1030000500030000   598320001203000015172200012MAX ENERGY             PTN           MMR11005261036280028760526000000000000000   10300001 00104100000000000900000000000000     
100   62911028202792960000000000047000000000047000002000000010410405260831500069815410010526214608006981   1030000600030000   554100001209315799420000661DENKO  MOTAMA          MOTAMA.       MMR11005260831500069810526000000000000000   10300001 00104100000000001410000000000000     
100   62911028202529960000000000023000000000023000002000000010410405261156510017236640210526214611001723   1030000600030000   549900001956315799420001325EASY MART 012          YANGON        MMR11005261156510017230526000000000000000   10300001 00104100000000002346000000000000     
100   62911028202194090000000000023706000000023706002000000010410405260437500028653511700526214611002865   1030000500030000   598320001203000015172200012MAX ENERGY             PTN           MMR11005260437500028650526000000000000000   10300001 00104100000000000711000000000000     
100   62911028202156540000000000032000000000032000002000000010410405260719330002943511700526214613000294   1030000500030000   806220046402006308062200464ASIA ROYAL HOSPITAL    PTN           MMR11005260719330002940526000000000000000   10300001 00104100000000001920000000000000     
100   95050326511614440000000000020289000000020289002000000010410405261321030003640177150526214619000364   1030000500030000   581220214501000085812202145CHILLI POT MALA XIANG  PTN           MMR11005261321030003640526000000000000000   10300001 00104100000000008623000000000000     
100   62911028202809060000000000060407000000060407002000000010410405260640050009154756900526214613000915   1030000500030000   581220021301000015812200213THAI 47                PTN           MMR11005260640050009150526000000000000000   10300001 00104100000000006162000000000000     
100   62443100318296470000000000076350000000076350002000000010410405261102270001103202410526214617000110   1030000500030000   566120207301021305661202073SARAMANDA SHOES        PTN           MMR11005261102270001100526000000000000000   10300001 00104100000000018324000000000000     
100   95030301100086460000000000030000000000030000002000000010410405260230120032343257710526214609003234   1030000500030000   598320001304000015172200013MAX ENERGY             PTN           MMR11005260230120032340526000000000000000   10300001 00104100000000000900000000000000     
100   62911028202132460000000000004300000000004300002000000010410405261128100000896485310526214617000089   1030000500030000   591220011201014405912200112SHWE OHH PHARMACY      PTN           MMR11005261128100000890526000000000000000   10300001 00104100000000000258000000000000     
100   95030308100042590000000000096000000000096000002000000010410405260815530031803511700526214614003180   1030000500030000   598320001403000015172200014MAX ENERGY             PTN           MMR11005260815530031800526000000000000000   10300001 00104100000000002880000000000000     
100   95050317413015720000000000049000000000049000002000000010410405260551400000927393990526214612000092   1030000500030000   569120038701008205691200387ESCORT                 PTN           MMR11005260551400000920526000000000000000   10300001 00104100000000011760000000000000     
