100   95050315752234130000000000023400000000023400002000000010410405291245160027092945460529000747670145   1030000200030000   541188001474000008000000391KBZ BANK               OCEAN SUPER C MMR11005291245160027090529000000000000000   10300001 00104100000000005850000000000000     
100   95030302100062270000000000014850000000014850002000000010410405291855550244803511700529000747686215   1030000200030000   541188001003000008000000008KBZ BANK               MARKETPLACE - MMR11005291855550244800529000000000000000   10300001 00104100000000000891000000000000     
100   95050316949180000000000000002940000000002940002000000010410405291132220222696305590529000007242363   1020000200030000   333400010001204104000000281Myanmar Soft-Gate Tech Yangon        MMR11005291132220222690529000000000000000   10300001F05104100000000000617000000000000     
100   95050312498129060000000000005880000000005880002000000010410405290630590059204683040529000007241385   1020000200030000   333400010001204104000000281Myanmar Soft-Gate Tech Yangon        MMR11005290630590059200529000000000000000   10300001F05104100000000001235000000000000     
100   95050312498129060000000000001960000000001960002000000010410405291332360236227787880529000007242713   1020000200030000   333400010001204104000000281Myanmar Soft-Gate Tech Yangon        MMR11005291332360236220529000000000000000   10300001F05104100000000000412000000000000     
100   95050319709462380000000000002000000000002000002000000010410405291535170517175078580529000007243075   1030000200030000   3338000100012031040000040022C2P (Myanmar) Co. Ltd Yangon        MMR11005291535170517170529000000000000000   10300001F05104100000000000420000000000000     
100   62911028202594880000000000055350000000055350002000000010410405290458290805213511700529035281129148   1030000900030000   541119000145190110000000083SeinGayHarParami Cente YANGON        MMR11005290458290805210529000000000000000   10300001F00104100000000003321000000000000     
100   62911028202023630000000000042950000000042950002000000010410405291207120047463511700529000747668572   1030000200030000   541188001355000008000000395KBZ BANK               OCEAN SUPERMA MMR11005291207120047460529000000000000000   10300001 00104100000000002577000000000000     
100   95030301100120850000000000027800000000027800002000000010410405290945250043833511700529000747679310   1030000200030000   569988000803000008000004614KBZ BANK               JCY-IPANEMA   MMR11005290945250043830529000000000000000   10300001 00104100000000001668000000000000     
100   95050310427855490000000000000980000000000980002000000010410405291433510351636220490529000007242911   1020000200030000   333400010001204104000000281Myanmar Soft-Gate Tech Yangon        MMR11005291433510351630529000000000000000   10300001F05104100000000000206000000000000     
100   95050311712422700000000000002000000000002000002000000010410405291233120312099780750529000007242539   1030000200030000   333800010001203104000003327KBZPay                 Yangon        MMR11005291233120312090529000000000000000   10300001F05104100000000000420000000000000     
100   95050312224678430000000000004900000000004900002000000010410405290131260126003505480529000007240479   1020000200030000   333400010001204104000000281Myanmar Soft-Gate Tech Yangon        MMR11005290131260126000529000000000000000   10300001F05104100000000001029000000000000     
100   62911028202161240000000000057975000000057975002000000010410405291042040087373511700529000747665383   1030000200030000   541188001022000008000000298KBZ BANK               CITY MART - M MMR11005291042040087370529000000000000000   10300001 00104100000000003479000000000000     
100   95050312498129060000000000000980000000000980002000000010410405291432580258381263040529000007242909   1020000200030000   333400010001204104000000281Myanmar Soft-Gate Tech Yangon        MMR11005291432580258380529000000000000000   10300001F05104100000000000206000000000000     
100   62443100391804560000000000004900000000004900002000000010410405291436530653284568000529000007242916   1020000200030000   333400010001204104000000281Myanmar Soft-Gate Tech Yangon        MMR11005291436530653280529000000000000000   10300001F05104100000000001029000000000000     
100   62911028202471860000000000004800000000004800002000000010410405290741440454233511700529114482897543   1040001400030000   581210000049025812100000393Feel Delight (Star Cit ) Feel Deligh MMR11005290741440454230529000000000000000   10300001 00104100000000000490000000000000     
100   95050317343045830000000000000980000000000980002000000010410405291340121012229525460529000007242738   1020000200030000   333400010001204104000000281Myanmar Soft-Gate Tech Yangon        MMR11005291340121012220529000000000000000   10300001F05104100000000000206000000000000     
100   62443101076362230000000000130000000000130000002000000010410405290751380848568413490529930211438148   1030000900030000   554119001103190110000000215New Day Energy MYG     YANGONONE     MMR11005290751380848560529000000000000000   10300001F00104100000000015600000000000000     
100   62911028202197550000000000017600000000017600002000000010410405290904270866813511700529190341527148   1030000900030000   541119001154190110000000930OCEAN HTY C 4          YANGONTHARYA  MMR11005290904270866810529000000000000000   10300001F00104100000000001056000000000000     
100   95050316818236190000000000000980000000000980002000000010410405291256422642622745330529000007242608   1020000200030000   333400010001204104000000281Myanmar Soft-Gate Tech Yangon        MMR11005291256422642620529000000000000000   10300001F05104100000000000206000000000000     
100   62911028202917880000000000022000000000022000002000000010410405290819380855583511700529413491438148   1030000900030000   569119001500190110000001094Next Generation GCS Hl YANGONUT      MMR11005290819380855580529000000000000000   10300001F00104100000000001320000000000000     
100   95050317903887690000000000005000000000005000002000000010410405291541141114866816160529000007243095   1030000200030000   3334000100012031040000040102C2P (Myanmar) Co. Ltd Yangon        MMR11005291541141114860529000000000000000   10300001F05104100000000001050000000000000     
100   95050315330275830000000000000980000000000980002000000010410405291441241124373426100529000007242922   1020000200030000   333400010001204104000000281Myanmar Soft-Gate Tech Yangon        MMR11005291441241124370529000000000000000   10300001F05104100000000000206000000000000     
100   95030306100096490000000000001960000000001960002000000010410405290140241024453511700529000007240495   1020000200030000   333400010001204104000000281Myanmar Soft-Gate Tech Yangon        MMR11005290140241024450529000000000000000   10300001F05104100000000000412000000000000     
100   62911028202045180000000000002500000000002500002000000010410405291048281828253511700529000007242182   1030000200030000   333800010001203104000003327KBZPay                 Yangon        MMR11005291048281828250529000000000000000   10300001F05104100000000000525000000000000     
100   95050313817486860000000000004900000000004900002000000010410405290843131313702484320529000007241801   1020000200030000   333400010001204104000000281Myanmar Soft-Gate Tech Yangon        MMR11005290843131313700529000000000000000   10300001F05104100000000001029000000000000     
100   95050326511614440000000000065750000000065750002000000010410405290651492653788073110529238211330148   1030000300030000   555510124696104519000020166Makro Myanmar                        MMR11005290651492653780529000000000000000   10300001 00104100000000015780000000000000     
100   95050314950595330000000000003000000000003000002000000010410405291441421142391773620529000007242929   1030000200030000   3338000100012031040000040022C2P (Myanmar) Co. Ltd Yangon        MMR11005291441421142390529000000000000000   10300001F05104100000000000630000000000000     
100   95050327022536610000000000038500000000038500002000000010410405290537420742879895780529000007241192   1030000200030000   3333000100012031040000040282C2P (Myanmar) Co. Ltd Yangon        MMR11005290537420742870529000000000000000   10300001F05104100000000010000000000000000     
100   62443100306045460000000000099500000000099500002000000010410405290800090850651888650529079301409148   1030000900030000   571219001536190110000001113Pro 1 Plus Store-1     YANGONADON    MMR11005290800090850650529000000000000000   10300001F00104100000000023880000000000000     
100   62911028202668140000000000112960000000112960002000000010410405290909360868353511700529298391536148   1030000900030000   723019001049190110000000852Beauty Diary(SYS) -1   YANGON        MMR11005290909360868350529000000000000000   10300001F00104100000000006778000000000000     
100   95050315017843630000000000004900000000004900002000000010410405291343271327752830420529000007242748   1020000200030000   333400010001204104000000281Myanmar Soft-Gate Tech Yangon        MMR11005291343271327750529000000000000000   10300001F05104100000000001029000000000000     
100   62911028202162640000000000015650000000015650002000000010410405290440532637743511700529615171117148   1030000500030000   555610120939104519000017714City Mart Yuzana Dagon Seikkan       MMR11005290440532637740529000000000000000   10300001 00104100000000000939000000000000     
100   62443100395964530000000000024500000000024500002000000010410405291058300897495624810529393281730148   1030000900030000   541119001363190110000000977Ocean PZD C17          YANGONAUNG    MMR11005291058300897490529000000000000000   10300001F00104100000000006125000000000000     
100   95050312498129060000000000000980000000000980002000000010410405291150242024404653100529000007242416   1020000200030000   333400010001204104000000281Myanmar Soft-Gate Tech Yangon        MMR11005291150242024400529000000000000000   10300001F05104100000000000206000000000000     
100   95030307963177330000000000080738000000080738002000000010410405290552542645653511700529395221227148   1030000500030000   555610112242104519000010487Ocean Super Center St  ohn           MMR11005290552542645650529000000000000000   10300001 00104100000000004844000000000000     
100   95050326198165350000000000004000000000004000002000000010410405290615430823283030550529196451243148   1030000900030000   541119001248190110000000955City Mart JS C 7       YANGONUT      MMR11005290615430823280529000000000000000   10300001F00104100000000001000000000000000     
100   62443100392426520000000000010000000000010000002000000010410405291053352335879270170529000007242208   1030000200030000   333800010001203104000003327KBZPay                 Yangon        MMR11005291053352335870529000000000000000   10300001F05104100000000002100000000000000     
100   62911028202448030000000000017503000000017503002000000010410405291014220885353511700529528441622148   1030000900030000   541119001245190110000000955City Mart JS C 4       YANGONUT      MMR11005291014220885350529000000000000000   10300001F00104100000000001050000000000000     
100   95050316377977350000000000005000000000005000002000000010410405291354322432461177940529000007242784   1040001600030000   333800010001220104000004507A +                    Yangon        MMR11005291354322432460529000000000000000   10300001F05104100000000001050000000000000     
100   95050311182936420000000000000980000000000980002000000010410405290049291929355498350529000007240413   1020000200030000   333400010001204104000000281Myanmar Soft-Gate Tech Yangon        MMR11005290049291929350529000000000000000   10300001F05104100000000000206000000000000     
100   62911028202121560000000000019800000000019800002000000010410405290615110823183511700529187451211148   1030000900030000   569119000573190110000000413CNC Mens Wear(SanYeikN YANGONUT      MMR11005290615110823180529000000000000000   10300001F00104100000000001188000000000000     
100   95050319835237500000000000068850000000068850002000000010410405290733230843471718460529573031423148   1030000900030000   541119001295190110000000968Ocean Mingalar MDY C 3 MANDALAYHARSI MMR11005290733230843470529000000000000000   10300001F00104100000000017213000000000000     
100   62911028202617320000000002000000000002000000002000000010410405290902360866373511700529163321536148   1030000900030000   594419001427190110000001031Sandar Yadanar         YANGONUT      MMR11005290902360866370529000000000000000   10300001F00104100000000120000000000000000     
100   62911028202400660000000000006800000000006800002000000010410405290932032675383511700529580071608148   1030000300030000   444410123007104519000019277SP Bakery GMP Kabaraye               MMR11005290932032675380529000000000000000   10300001 00104100000000000694000000000000     
100   95050316785465380000000000001960000000001960002000000010410405290303123312191051480529000007240692   1020000200030000   333400010001204104000000281Myanmar Soft-Gate Tech Yangon        MMR11005290303123312190529000000000000000   10300001F05104100000000000412000000000000     
100   62911028202665580000000000007319000000007319002000000010410405290614192648713511700529731431257148   1030000500030000   555610112237104519000010487Ocean Super Center St  ohn           MMR11005290614192648710529000000000000000   10300001 00104100000000000439000000000000     
100   95050311419479170000000000001960000000001960002000000010410405290359052905479484090529000007240884   1020000200030000   333400010001204104000000281Myanmar Soft-Gate Tech Yangon        MMR11005290359052905470529000000000000000   10300001F05104100000000000412000000000000     
100   95050316377977350000000000005000000000005000002000000010410405291156592659807958070529000007242439   1040001600030000   333800010001220104000004507A +                    Yangon        MMR11005291156592659800529000000000000000   10300001F05104100000000001050000000000000     
100   95030301100124990000000000007124000000007124002000000010410405290941192676813511700529731171650148   1030000500030000   555610110601104519000009166City Mart 47 Branch                  MMR11005290941192676810529000000000000000   10300001 00104100000000000427000000000000     
100   62443100355903280000000000002000000000002000002000000010410405290715134513191973750529000007241502   1030000200030000   333800010001203104000003327KBZPay                 Yangon        MMR11005290715134513190529000000000000000   10300001F05104100000000000420000000000000     
100   95050316785465380000000000000980000000000980002000000010410405290913124312699009160529000007241902   1020000200030000   333400010001204104000000281Myanmar Soft-Gate Tech Yangon        MMR11005290913124312690529000000000000000   10300001F05104100000000000206000000000000     
100   62911028202792960000000000014100000000014100002000000010410405291040412684213511700529588101759148   1030000500030000   555610110599104519000009166City Mart 47 Branch                  MMR11005291040412684210529000000000000000   10300001 00104100000000000846000000000000     
100   62911028202132460000000000016818000000016818002000000010410405290428419345513511700529214911934551   1040001600030000   591220000265000000010000253Shwe Ohh Pharmacy (Yay Yangon        MMR11005290428419345510529000000000000000   10300001F00104100000000001009000000000000     
100   62911028202469070000000000150000000000150000002000000010410405290748062660683511700529945181439148   1030000300030000   555510124364104519000020166Makro Myanmar                        MMR11005290748062660680529000000000000000   10300001 00104100000000009000000000000000     
100   95030302100062270000000000137700000000137700002000000010410405291041082684223511700529589111704148   1030000300030000   555510124363104519000020166Makro Myanmar                        MMR11005291041082684220529000000000000000   10300001 00104100000000008262000000000000     
100   95030306100096490000000000001960000000001960002000000010410405291022015201573511700529000007242102   1020000200030000   333400010001204104000000281Myanmar Soft-Gate Tech Yangon        MMR11005291022015201570529000000000000000   10300001F05104100000000000412000000000000     
100   95050317084233280000000000001960000000001960002000000010410405290707013701338583680529000007241481   1020000200030000   333400010001204104000000281Myanmar Soft-Gate Tech Yangon        MMR11005290707013701330529000000000000000   10300001F05104100000000000412000000000000     
100   62443100350052510000000000047000000000047000002000000010410405290854522669443881520529885241533148   1030000300030000   555510124688104519000020166Makro Myanmar                        MMR11005290854522669440529000000000000000   10300001 00104100000000011280000000000000     
100   62911028202674810000000000005411000000005411002000000010410405291243012699903511700529352121917148   1030000500030000   555610110595104519000009166City Mart 47 Branch                  MMR11005291243012699900529000000000000000   10300001 00104100000000000325000000000000     
100   95050315110306410000000000003000000000003000002000000010410405290122075207125157960529000007240460   1030000200030000   333800010001203104000003327KBZPay                 Yangon        MMR11005290122075207120529000000000000000   10300001F05104100000000000630000000000000     
100   62911028202793040000000000003000000000003000002000000010410405291613264326613511700529000007243176   1030000200030000   3334000100012031040000040102C2P (Myanmar) Co. Ltd Yangon        MMR11005291613264326610529000000000000000   10300001F05104100000000000630000000000000     
100   62911028202181200000000000000980000000000980002000000010410405290708023802143511700529000007241486   1020000200030000   333400010001204104000000281Myanmar Soft-Gate Tech Yangon        MMR11005290708023802140529000000000000000   10300001F05104100000000000206000000000000     
100   62911028202684060000000000070000000000070000002000000010410405290304499302633511700529214910930263   1040001600030000   598320001170000000010000527Shwe Taung Energy (YGN Yangon        MMR11005290304499302630529000000000000000   10300001F00104100000000002100000000000000     
100   62911028202527490000000000032000000000032000002000000010410405290612059406413511700529214913940641   1040001600030000   598320000915000000010000664MMTM - North Dagon     Ygn           MMR11005290612059406410529000000000000000   10300001F00104100000000000960000000000000     
100   95050316573091630000000000071250000000071250002000000010410405291053042685794312720529789221723148   1030000300030000   555510124685104519000020166Makro Myanmar                        MMR11005291053042685790529000000000000000   10300001 00104100000000017100000000000000     
100   62911028202116120000000000070500000000070500002000000010410405290700272703893511700529744092030148   1030000300030000   444410116456104519000014056Shwe Kaung Mawtin                    MMR11005290700272703890529000000000000000   10300001 00104100000000007191000000000000     
100   62911028202792960000000000022850000000022850002000000010410405291014332680703511700529202461641148   1030000500030000   555610110596104519000009166City Mart 47 Branch                  MMR11005291014332680700529000000000000000   10300001 00104100000000001371000000000000     
100   95030315150842990000000000049000000000049000002000000010410405290655319432533511700529214913943253   1040001600030000   598320000658000000010000527Shwe Taung Energy (YGN Yangon        MMR11005290655319432530529000000000000000   10300001F00104100000000001470000000000000     
100   95030301100121270000000000006000000000006000002000000010410405290951349532153511700529214916953215   1040001600030000   581420000163000000010000151Cha Tra Mue (Capital)  Yangon        MMR11005290951349532150529000000000000000   10300001F00104100000000000180000000000000     
100   62443100371022130000000000050000000000050000002000000010410405290915239510611172230529214916951061   1040001600030000   598320000911000000010000662MMTM - Tamwe           Ygn           MMR11005290915239510610529000000000000000   10300001F00104100000000006000000000000000     
100   62911028202023630000000000012200000000012200002000000010410405290603392647273511700529577331236148   1030000300030000   444410125428104519000021255KFC 78th St Mdy                      MMR11005290603392647270529000000000000000   10300001 00104100000000001244000000000000     
100   95050321057500320000000000116900000000116900002000000010410405290855092669572229030529898251511148   1030000300030000   555510124871104519000020166Makro Myanmar                        MMR11005290855092669570529000000000000000   10300001 00104100000000028056000000000000     
100   62911028202809060000000000150000000000150000002000000010410405290357512751393511700529000007240874   1030000200030000   333800010001203104000003327KBZPay                 Yangon        MMR11005290357512751390529000000000000000   10300001F05104100000000031500000000000000     
100   95050317343045830000000000000980000000000980002000000010410405290220455045955923830529000007240580   1020000200030000   333400010001204104000000281Myanmar Soft-Gate Tech Yangon        MMR11005290220455045950529000000000000000   10300001F05104100000000000206000000000000     
100   62443100306045460000000000007200000000007200002000000010410405291015182680376044580529164441622148   1030000300030000   444410125394104519000021221Myanmar Bakery CoLtd                 MMR11005291015182680370529000000000000000   10300001 00104100000000003060000000000000     
100   95050323233042810000000000002940000000002940002000000010410405290927355735002909800529000007241957   1020000200030000   333400010001204104000000281Myanmar Soft-Gate Tech Yangon        MMR11005290927355735000529000000000000000   10300001F05104100000000000617000000000000     
100   62911028202471600000000000062148000000062148002000000010410405290754262661523511700529036261422148   1030000500030000   555610110576104519000009164City Mart China Town P int Cen       MMR11005290754262661520529000000000000000   10300001 00104100000000003729000000000000     
100   62443100381661260000000000009400000000009400002000000010410405291109082688102319850529052381750148   1030000500030000   555610115763104519000013506MarketplaceMyanmarPlaz Branch        MMR11005291109082688100529000000000000000   10300001 00104100000000002350000000000000     
100   95050313702988830000000000000980000000000980002000000010410405290518074807744853230529000007241126   1020000200030000   333400010001204104000000281Myanmar Soft-Gate Tech Yangon        MMR11005290518074807740529000000000000000   10300001F05104100000000000206000000000000     
100   95050315743141220000000000001960000000001960002000000010410405291229355935856475780529000007242523   1020000200030000   333400010001204104000000281Myanmar Soft-Gate Tech Yangon        MMR11005291229355935850529000000000000000   10300001F05104100000000000412000000000000     
100   62443100371022130000000000014900000000014900002000000010410405290735359455123370940529214914945512   1040001600030000   541120000562000000010000465Ocean Shwe Gone Daing  Yangon        MMR11005290735359455120529000000000000000   10300001F00104100000000003725000000000000     
100   62911028202135350000000000036850000000036850002000000010410405291015279550043511700529214917955004   1040001600030000   581420000803000000010000579Jeff's Kitchen (Ahlone Yangon        MMR11005291015279550040529000000000000000   10300001F00104100000000001106000000000000     
100   95030374458345210000000000055800000000055800002000000010410405290910589508323511700529214916950832   1040001600030000   591220000295000000010000283Shwe Ohh Pharmacy (39t Yangon        MMR11005290910589508320529000000000000000   10300001F00104100000000003348000000000000     
100   62911028202465350000000000017250000000017250002000000010410405290843282667873511700529734121558148   1030000300030000   444410125393104519000021220Myanmar Bakery CoLtd                 MMR11005290843282667870529000000000000000   10300001 00104100000000001760000000000000     
100   95050316818236190000000000001960000000001960002000000010410405291300193019331092840529000007242623   1020000200030000   333400010001204104000000281Myanmar Soft-Gate Tech Yangon        MMR11005291300193019330529000000000000000   10300001F05104100000000000412000000000000     
100   62443100300743690000000000009900000000009900002000000010410405291224552698214738200529156551841148   1030000500030000   555610110595104519000009166City Mart 47 Branch                  MMR11005291224552698210529000000000000000   10300001 00104100000000002475000000000000     
100   95050315743141220000000000000980000000000980002000000010410405290602563256046250430529000007241289   1020000200030000   333400010001204104000000281Myanmar Soft-Gate Tech Yangon        MMR11005290602563256040529000000000000000   10300001F05104100000000000206000000000000     
100   95050324444444460000000000095500000000095500002000000010410405290858372670105619100529962281527148   1030000300030000   555510124688104519000020166Makro Myanmar                        MMR11005290858372670100529000000000000000   10300001 00104100000000022920000000000000     
100   62443100355903280000000000003000000000003000002000000010410405290722435243728753870529000007241530   1030000200030000   333800010001203104000003327KBZPay                 Yangon        MMR11005290722435243720529000000000000000   10300001F05104100000000000630000000000000     
100   95050312940629360000000000000980000000000980002000000010410405290510264026041548270529000007241111   1020000200030000   333400010001204104000000281Myanmar Soft-Gate Tech Yangon        MMR11005290510264026040529000000000000000   10300001F05104100000000000206000000000000     
100   95050314570621780000000000000980000000000980002000000010410405291127585758609099980529000007242346   1020000200030000   333400010001204104000000281Myanmar Soft-Gate Tech Yangon        MMR11005291127585758600529000000000000000   10300001F05104100000000000206000000000000     
100   95050324444444460000000000016950000000016950002000000010410405290856232669737186490529916261508148   1030000300030000   555510124688104519000020166Makro Myanmar                        MMR11005290856232669730529000000000000000   10300001 00104100000000004068000000000000     
100   95050312498129060000000000001960000000001960002000000010410405291116304630054057430529000007242296   1020000200030000   333400010001204104000000281Myanmar Soft-Gate Tech Yangon        MMR11005291116304630050529000000000000000   10300001F05104100000000000412000000000000     
100   62911028202539600000000000036000000000036000002000000010410405290352379326473511700529214910932647   1040001600030000   591220000263000000010000251Shwe Ohh Pharmacy (KM- Yangon        MMR11005290352379326470529000000000000000   10300001F00104100000000002160000000000000     
100   95050320205194540000000000027950000000027950002000000010410405290419019340714526640529214911934071   1040001600030000   591220000288000000010000276Shwe Ohh Pharmacy (Nor Yangon        MMR11005290419019340710529000000000000000   10300001F00104100000000006708000000000000     
100   95050315743141220000000000000980000000000980002000000010410405290201043104612023190529000007240539   1020000200030000   333400010001204104000000281Myanmar Soft-Gate Tech Yangon        MMR11005290201043104610529000000000000000   10300001F05104100000000000206000000000000     
100   95050315017843630000000000001960000000001960002000000010410405291306033603454397810529000007242638   1020000200030000   333400010001204104000000281Myanmar Soft-Gate Tech Yangon        MMR11005291306033603450529000000000000000   10300001F05104100000000000412000000000000     
100   62911028202110420000000000037600000000037600002000000010410405290555482646403511700529478281201148   1030000500030000   555610103466104519000003420City Mart Yankin Cente 5             MMR11005290555482646400529000000000000000   10300001 00104100000000002256000000000000     
100   62911028202112400000000000060300000000060300002000000010410405290842219492323511700529214915949232   1040001600030000   591220000276000000010000264Shwe Ohh Pharmacy (YGH Yangon        MMR11005290842219492320529000000000000000   10300001F00104100000000003618000000000000     
100   62911028202112400000000000019000000000019000002000000010410405280101290030213511700528214807003021   1030000500030000   598320001203000015172200012MAX ENERGY             PTN           MMR11005280101290030210528000000000000000   10300001 00104100000000000570000000000000     
100   62911028202440680000000000005900000000005900002000000010410405291110229596603511700529214918959660   1040001600030000   591220000296000000010000284Shwe Ohh Pharmacy (Lan Yangon        MMR11005291110229596600529000000000000000   10300001F00104100000000000354000000000000     
100   62911028202142930000000000025000000000025000002000000010410405291303559694433511700529214920969443   1040001600030000   541120000559000000010000465Ocean Shwe Gone Daing  Yangon        MMR11005291303559694430529000000000000000   10300001F00104100000000001500000000000000     
100   62911028202594880000000000017000000000017000002000000010410405290511160808253511700529233411116148   1030000900030000   541119000156190110000000083SeinGayHarParami Cente YANGON        MMR11005290511160808250529000000000000000   10300001F00104100000000001020000000000000     
100   62911028202593060000000000003600000000003600002000000010410405280948300012503511700528214816001250   1030000500030000   531120155803000045311201558GAMONE PWINT           PTN           MMR11005280948300012500528000000000000000   10300001 00104100000000000216000000000000     
100   95030308100042590000000000013600000000013600002000000010410405280612560001143511700528000347314646   1030000300030000   581400000753000000000000518CB BANK                KFC (HLD)     MMR11005280612560001140528000000000000000   10300001F00104100000000000408000000000000     
100   62911028202116610000000000080000000000080000002000000010410405280740430022043511700528214814002204   1030000500030000   598320001602000015172200016MAX ENERGY             PTN           MMR11005280740430022040528000000000000000   10300001 00104100000000002400000000000000     
100   62443100306416880000000000059900000000059900002000000010410405280836280002372327920528214815000237   1030000500030000   531120201505000085311202015HAGL BLAZON            PTN           MMR11005280836280002370528000000000000000   10300001 00104100000000014376000000000000     
100   62911028202440680000000000001700000000001700002000000010410405280157560002713511700528214808000271   1030000500030000   591220014301014405912200143SHWE OHH PHARMACY      PTN           MMR11005280157560002710528000000000000000   10300001 00104100000000000102000000000000     
100   62911028202448030000000000100000000000100000002000000010410405280836060029233511700528214815002923   1030000500030000   598320001202000015172200012MAX ENERGY             PTN           MMR11005280836060029230528000000000000000   10300001 00104100000000003000000000000000     
100   62443100340288250000000000030000000000030000002000000010410405280234410033782015050528214809003378   1030000500030000   598320001402000015172200014MAX ENERGY             PTN           MMR11005280234410033780528000000000000000   10300001 00104100000000003600000000000000     
100   62911028202150190000000000080000000000080000002000000010410405280230190032213511700528214809003221   1030000500030000   598320001302000015172200013MAX ENERGY             PTN           MMR11005280230190032210528000000000000000   10300001 00104100000000002400000000000000     
100   95050325925517520000000000032000000000032000002000000010410405291101349589161007750529214918958916   1040001600030000   598320000310000000010000298PT Power Petrol Statio Yangon        MMR11005291101349589160529000000000000000   10300001F00104100000000003840000000000000     
100   95050325455962190000000000001960000000001960002000000010410405290218494849954186250529000007240579   1020000200030000   333400010001204104000000281Myanmar Soft-Gate Tech Yangon        MMR11005290218494849950529000000000000000   10300001F05104100000000000412000000000000     
100   62911028202465350000000000023050000000023050002000000010410405291502520118373511700529000747675980   1030000200030000   541188001081000008000000294KBZ BANK               CITY MART - J MMR11005291502520118370529000000000000000   10300001 00104100000000001383000000000000     
100   95050312498129060000000000004900000000004900002000000010410405290712254225668668780529000007241499   1020000200030000   333400010001204104000000281Myanmar Soft-Gate Tech Yangon        MMR11005290712254225660529000000000000000   10300001F05104100000000001029000000000000     
100   62911028202443730000000000081711000000081711002000000010410405290341002630633511700529914101036148   1030000500030000   555610112232104519000010487Ocean Super Center St  ohn           MMR11005290341002630630529000000000000000   10300001 00104100000000004903000000000000     
100   95050319925596540000000000009800000000009800002000000010410405290329305930328171990529000007240790   1020000200030000   333400010001204104000000281Myanmar Soft-Gate Tech Yangon        MMR11005290329305930320529000000000000000   10300001F05104100000000002058000000000000     
100   95030301100121270000000000028000000000028000002000000010410405290946239528953511700529214916952895   1040001600030000   569120000928000000010000675Generation Concept Sto Ygn           MMR11005290946239528950529000000000000000   10300001F00104100000000001680000000000000     
100   95050325455962190000000000000980000000000980002000000010410405290213284328725838730529000007240564   1020000200030000   333400010001204104000000281Myanmar Soft-Gate Tech Yangon        MMR11005290213284328720529000000000000000   10300001F05104100000000000206000000000000     
100   62443100303702210000000000120132000000120132002000000010410405281114520020126654050528214817002012   1030000500030000   598320041903000055983200419MAX ENERGY             PTN           MMR11005281114520020120528000000000000000   10300001 00104100000000014416000000000000     
100   95050328384000040000000000051067000000051067002000000010410405281153500021391597710528214818002139   1030000500030000   598320002103000015172200021MAX ENERGY             PTN           MMR11005281153500021390528000000000000000   10300001 00104100000000006128000000000000     
100   62443101083052160000000000135000000000135000002000000010410405280937210030867030080528214816003086   1030000500030000   598320001203000015172200012MAX ENERGY             PTN           MMR11005280937210030860528000000000000000   10300001 00104100000000016200000000000000     
100   62911028202136750000000000036000000000036000002000000010410405280308540038983511700528214809003898   1030000500030000   598320001903000015172200019MAX ENERGY             PTN           MMR11005280308540038980528000000000000000   10300001 00104100000000001080000000000000     
100   62911028202287980000000000030000000000030000002000000010410405281148560037293511700528214818003729   1030000500030000   598320001901000015172200019MAX ENERGY             PTN           MMR11005281148560037290528000000000000000   10300001 00104100000000000900000000000000     
100   62443101006037900000000000054000000000054000002000000010410405280049450034461674660528214807003446   1030000500030000   598320001304000015172200013MAX ENERGY             PTN           MMR11005280049450034460528000000000000000   10300001 00104100000000006480000000000000     
100   95050317903887690000000000005000000000005000002000000010410405291413544354482915520529000007242857   1030000200030000   3334000100012031040000040102C2P (Myanmar) Co. Ltd Yangon        MMR11005291413544354480529000000000000000   10300001F05104100000000001050000000000000     
100   95030364439875210000000000030141000000030141002000000010410405280202420042083511700528214808004208   1030000500030000   598320001902000015172200019MAX ENERGY             PTN           MMR11005280202420042080528000000000000000   10300001 00104100000000000904000000000000     
100   62911028202003590000000000041600000000041600002000000010410405291119240904113511700529858491724148   1030000900030000   541119000136190110000000083SeinGayHarParami Cente YANGON        MMR11005291119240904110529000000000000000   10300001F00104100000000002496000000000000     
100   95050315439834520000000000010000000000010000002000000010410405290602043204761633360529000007241284   1030000200030000   333800010001203104000003327KBZPay                 Yangon        MMR11005290602043204760529000000000000000   10300001F05104100000000002100000000000000     
100   95050315743141220000000000000980000000000980002000000010410405290434570457619810680529000007240988   1020000200030000   333400010001204104000000281Myanmar Soft-Gate Tech Yangon        MMR11005290434570457610529000000000000000   10300001F05104100000000000206000000000000     
100   95050323722449090000000000004409000000004409002000000010410405290849081908425874390529000007241816   1020000200030000   333400010001204104000000281Myanmar Soft-Gate Tech Yangon        MMR11005290849081908420529000000000000000   10300001F05104100000000000926000000000000     
100   62443100399918110000000000000980000000000980002000000010410405290242131213822703960529000007240635   1020000200030000   333400010001204104000000281Myanmar Soft-Gate Tech Yangon        MMR11005290242131213820529000000000000000   10300001F05104100000000000206000000000000     
100   62911028202023630000000000025400000000025400002000000010410405291213190007853511700529000747668821   1030000200030000   541188001351000008000000395KBZ BANK               OCEAN SUPERMA MMR11005291213190007850529000000000000000   10300001 00104100000000001524000000000000     
100   95050312482469810000000000014850000000014850002000000010410405291510340010809179360529000747676322   1030000200030000   541188001287000008000000472KBZ BANK               NEIGHBOURHOOD MMR11005291510340010800529000000000000000   10300001 00104100000000003713000000000000     
100   95030322371504830000000000007708000000007708002000000010410405291700540018343511700529000747681338   1030000200030000   541188001484000008000000399KBZ BANK               OCEAN SUPERCE MMR11005291700540018340529000000000000000   10300001 00104100000000000462000000000000     
100   95030322371504830000000000063964000000063964002000000010410405291659160018333511700529000747681272   1030000200030000   541188001484000008000000399KBZ BANK               OCEAN SUPERCE MMR11005291659160018330529000000000000000   10300001 00104100000000003838000000000000     
100   62911028202890630000000000075800000000075800002000000010410405291131500007843511700529000747667239   1030000200030000   541188001351000008000000395KBZ BANK               OCEAN SUPERMA MMR11005291131500007840529000000000000000   10300001 00104100000000004548000000000000     
100   95050312695033440000000000000980000000000980002000000010410405291230040004844823290529000007242527   1020000200030000   333400010001204104000000281Myanmar Soft-Gate Tech Yangon        MMR11005291230040004840529000000000000000   10300001F05104100000000000206000000000000     
100   95050315752234130000000000045804000000045804002000000010410405291237440017879555390529000747669814   1030000200030000   541188001456000008000000391KBZ BANK               OCEAN SUPER C MMR11005291237440017870529000000000000000   10300001 00104100000000011451000000000000     
100   62443100318296470000000000015148000000015148002000000010410405291722490018945965200529000747682328   1030000200030000   541188001029000008000000298KBZ BANK               CITY MART - M MMR11005291722490018940529000000000000000   10300001 00104100000000003787000000000000     
