100   95050319996628650000000000001960000000001960002000000010410405281150492049376398760528000007239252   1020000200030000   333400010001204104000000281Myanmar Soft-Gate Tech Yangon        MMR11005281150492049370528000000000000000   10300001F05104100000000000412000000000000     
100   62911028202471600000000000076800000000076800002000000010410405280302132521173511700528209310905147   1030000500030000   555610110570104519000009164City Mart China Town P int Cen       MMR11005280302132521170528000000000000000   10300001 00104100000000004608000000000000     
100   95050315250339200000000000000980000000000980002000000010410405280251352135550604060528000007236904   1020000200030000   333400010001204104000000281Myanmar Soft-Gate Tech Yangon        MMR11005280251352135550528000000000000000   10300001F05104100000000000206000000000000     
100   62443100399918110000000000001960000000001960002000000010410405280252262226768951580528000007236911   1020000200030000   333400010001204104000000281Myanmar Soft-Gate Tech Yangon        MMR11005280252262226760528000000000000000   10300001F05104100000000000412000000000000     
100   95050314931885730000000000001960000000001960002000000010410405280249151915727299100528000007236887   1020000200030000   333400010001204104000000281Myanmar Soft-Gate Tech Yangon        MMR11005280249151915720528000000000000000   10300001F05104100000000000412000000000000     
100   95050322990383760000000000013000000000013000002000000010410405280727592552420249960528351581345147   1030000500030000   555610110572104519000009164City Mart China Town P int Cen       MMR11005280727592552420528000000000000000   10300001 00104100000000003250000000000000     
100   95050314567080940000000000000980000000000980002000000010410405280948331833737115180528000007238812   1020000200030000   333400010001204104000000281Myanmar Soft-Gate Tech Yangon        MMR11005280948331833730528000000000000000   10300001F05104100000000000206000000000000     
100   95050316818236190000000000000980000000000980002000000010410405280253232323550689160528000007236912   1020000200030000   333400010001204104000000281Myanmar Soft-Gate Tech Yangon        MMR11005280253232323550528000000000000000   10300001F05104100000000000206000000000000     
100   95050316818236190000000000004900000000004900002000000010410405280051492149408369690528000007236599   1020000200030000   333400010001204104000000281Myanmar Soft-Gate Tech Yangon        MMR11005280051492149400528000000000000000   10300001F05104100000000001029000000000000     
100   62443100399918110000000000002940000000002940002000000010410405280250322032445646610528000007236896   1020000200030000   333400010001204104000000281Myanmar Soft-Gate Tech Yangon        MMR11005280250322032440528000000000000000   10300001F05104100000000000617000000000000     
100   95030308100010080000000000002940000000002940002000000010410405280053312331993511700528000007236605   1020000200030000   333400010001204104000000281Myanmar Soft-Gate Tech Yangon        MMR11005280053312331990528000000000000000   10300001F05104100000000000617000000000000     
100   95050312498129060000000000004900000000004900002000000010410405280754092409038342180528000007238317   1020000200030000   333400010001204104000000281Myanmar Soft-Gate Tech Yangon        MMR11005280754092409030528000000000000000   10300001F05104100000000001029000000000000     
100   62443100340422630000000000053350000000053350002000000010410405280623522544439753170528536521259147   1030000500030000   555610103470104519000003420City Mart Yankin Cente 9             MMR11005280623522544430528000000000000000   10300001 00104100000000013338000000000000     
100   95050327531396450000000000009800000000009800002000000010410405280950022002385462700528000007238819   1020000200030000   333400010001204104000000281Myanmar Soft-Gate Tech Yangon        MMR11005280950022002380528000000000000000   10300001F05104100000000002058000000000000     
100   62911028202463780000000000021100000000021100002000000010410405280827562559733511700528139571410147   1030000500030000   555610110576104519000009164City Mart China Town P int Cen       MMR11005280827562559730528000000000000000   10300001 00104100000000001266000000000000     
100   95050315122972560000000000000980000000000980002000000010410405271648071807466121540528000007236232   1020000200030000   333400010001204104000000281Myanmar Soft-Gate Tech Yangon        MMR11005271648071807460528000000000000000   10300001F05104100000000000206000000000000     
100   62911028202366010000000000020550000000020550002000000010410405280819082558783511700528046491421147   1030000500030000   555610103960104519000003818Ocean Oattara Thiri Na PyiTaw        MMR11005280819082558780528000000000000000   10300001 00104100000000001233000000000000     
100   95050315424817550000000000001960000000001960002000000010410405280620485048624795710528000007237922   1020000200030000   333400010001204104000000281Myanmar Soft-Gate Tech Yangon        MMR11005280620485048620528000000000000000   10300001F05104100000000000412000000000000     
100   62443101095422050000000000009800000000009800002000000010410405281427055705285413250528000007239758   1020000200030000   333400010001204104000000281Myanmar Soft-Gate Tech Yangon        MMR11005281427055705280528000000000000000   10300001F05104100000000002058000000000000     
100   62911028202661370000000000089904000000089904002000000010410405281001402573943511700528812321608147   1030000500030000   555610118960104519000016137City Mart South Okkala WZYD BR       MMR11005281001402573940528000000000000000   10300001 00104100000000005394000000000000     
100   95050312933828140000000000030300000000030300002000000010410405281124212585406313660528117531727147   1030000500030000   555610120947104519000017714City Mart Yuzana Dagon Seikkan       MMR11005281124212585400528000000000000000   10300001 00104100000000007575000000000000     
100   95050312498129060000000000000980000000000980002000000010410405281258352835418462930528000007239445   1020000200030000   333400010001204104000000281Myanmar Soft-Gate Tech Yangon        MMR11005281258352835410528000000000000000   10300001F05104100000000000206000000000000     
100   95050315122972560000000000000980000000000980002000000010410405281004353435604405880528000007238853   1020000200030000   333400010001204104000000281Myanmar Soft-Gate Tech Yangon        MMR11005281004353435600528000000000000000   10300001F05104100000000000206000000000000     
100   62443101023815100000000000018307000000018307002000000010410405281351232598846384960528593232026147   1030000500030000   555610114572104519000012532City Mart Ahlone Branc               MMR11005281351232598840528000000000000000   10300001 00104100000000004577000000000000     
100   95050329213164970000000000002940000000002940002000000010410405281122305230742923600528000007239152   1020000200030000   333400010001204104000000281Myanmar Soft-Gate Tech Yangon        MMR11005281122305230740528000000000000000   10300001F05104100000000000617000000000000     
100   95050314567080940000000000000980000000000980002000000010410405280119164916451419370528000007236644   1020000200030000   333400010001204104000000281Myanmar Soft-Gate Tech Yangon        MMR11005280119164916450528000000000000000   10300001F05104100000000000206000000000000     
100   95050316949180000000000000002940000000002940002000000010410405280127505750644724340528000007236666   1020000200030000   333400010001204104000000281Myanmar Soft-Gate Tech Yangon        MMR11005280127505750640528000000000000000   10300001F05104100000000000617000000000000     
100   95050312224678430000000000004900000000004900002000000010410405280624195419488100690528000007237937   1020000200030000   333400010001204104000000281Myanmar Soft-Gate Tech Yangon        MMR11005280624195419480528000000000000000   10300001F05104100000000001029000000000000     
100   95050312498129060000000000002940000000002940002000000010410405280223195319195234920528000007236820   1020000200030000   333400010001204104000000281Myanmar Soft-Gate Tech Yangon        MMR11005280223195319190528000000000000000   10300001F05104100000000000617000000000000     
100   95050312360118350000000000009500000000009500002000000010410405280658128722831490740528214813872283   1040001600030000   541120000571000000010000465Ocean Shwe Gone Daing  Yangon        MMR11005280658128722830528000000000000000   10300001F00104100000000002375000000000000     
100   95050312240830690000000000002940000000002940002000000010410405281402053205661427510528000007239661   1020000200030000   333400010001204104000000281Myanmar Soft-Gate Tech Yangon        MMR11005281402053205660528000000000000000   10300001F05104100000000000617000000000000     
100   95050315122972560000000000000980000000000980002000000010410405280222165216331929950528000007236814   1020000200030000   333400010001204104000000281Myanmar Soft-Gate Tech Yangon        MMR11005280222165216330528000000000000000   10300001F05104100000000000206000000000000     
100   62443101095422050000000000019600000000019600002000000010410405281425455545966555160528000007239751   1020000200030000   333400010001204104000000281Myanmar Soft-Gate Tech Yangon        MMR11005281425455545960528000000000000000   10300001F05104100000000004116000000000000     
100   95050329252108030000000000036164000000036164002000000010410405280708508729081575840528214814872908   1040001600030000   598320000911000000010000662MMTM - Tamwe           Ygn           MMR11005280708508729080528000000000000000   10300001F00104100000000004340000000000000     
100   62443100314843770000000000100000000000100000002000000010410405280202453245083242050528000007236765   1030000200030000   333800010001203104000003327KBZPay                 Yangon        MMR11005280202453245080528000000000000000   10300001F05104100000000021000000000000000     
100   95050323233042810000000000001960000000001960002000000010410405280916064606338682570528000007238667   1020000200030000   333400010001204104000000281Myanmar Soft-Gate Tech Yangon        MMR11005280916064606330528000000000000000   10300001F05104100000000000412000000000000     
100   95050319928585020000000000001000000000001000002000000010410405281107183718218221430528000007239094   1030000200030000   3338000100012031040000040022C2P (Myanmar) Co. Ltd Yangon        MMR11005281107183718210528000000000000000   10300001F05104100000000000210000000000000     
100   95050315158357300000000000004000000000004000002000000010410405280859402940830335050528000007238598   1030000200030000   333800010001203104000003327KBZPay                 Yangon        MMR11005280859402940830528000000000000000   10300001F05104100000000000840000000000000     
100   95050311382087030000000000001960000000001960002000000010410405280227575757820362560528000007236832   1020000200030000   333400010001204104000000281Myanmar Soft-Gate Tech Yangon        MMR11005280227575757820528000000000000000   10300001F05104100000000000412000000000000     
100   95050315017843630000000000002940000000002940002000000010410405281229575957793335290528000007239361   1020000200030000   333400010001204104000000281Myanmar Soft-Gate Tech Yangon        MMR11005281229575957790528000000000000000   10300001F05104100000000000617000000000000     
100   62443100306416880000000000019000000000019000002000000010410405281110448885216568950528214818888521   1040001600030000   598320000838000000010000600Regency Petrol Station Ygn           MMR11005281110448885210528000000000000000   10300001F00104100000000002280000000000000     
100   95050317770415060000000000030000000000030000002000000010410405281101213121084831370528000007239078   1030000200030000   333800010001203104000003327KBZPay                 Yangon        MMR11005281101213121080528000000000000000   10300001F05104100000000006300000000000000     
100   95050314570621780000000000000980000000000980002000000010410405280712074207905122310528000007238157   1020000200030000   333400010001204104000000281Myanmar Soft-Gate Tech Yangon        MMR11005280712074207900528000000000000000   10300001F05104100000000000206000000000000     
100   95050316438375580000000000000980000000000980002000000010410405280207423742000532760528000007236778   1020000200030000   333400010001204104000000281Myanmar Soft-Gate Tech Yangon        MMR11005280207423742000528000000000000000   10300001F05104100000000000206000000000000     
100   62443100340288250000000000024300000000024300002000000010410405281019122576236143470528075491609147   1030000500030000   555610112252104519000010487Ocean Super Center St  ohn           MMR11005281019122576230528000000000000000   10300001 00104100000000006075000000000000     
100   95050312641885210000000000000980000000000980002000000010410405281057492749099873920528000007239059   1020000200030000   333400010001204104000000281Myanmar Soft-Gate Tech Yangon        MMR11005281057492749090528000000000000000   10300001F05104100000000000206000000000000     
100   95050319502933380000000000001960000000001960002000000010410405280259552955933994130528000007236945   1020000200030000   333400010001204104000000281Myanmar Soft-Gate Tech Yangon        MMR11005280259552955930528000000000000000   10300001F05104100000000000412000000000000     
100   95050314557307430000000000000980000000000980002000000010410405281120225022244576080528000007239148   1020000200030000   333400010001204104000000281Myanmar Soft-Gate Tech Yangon        MMR11005281120225022240528000000000000000   10300001F05104100000000000206000000000000     
100   95050318048516790000000000005000000000005000002000000010410405281620265026200455800528000007240056   1030000200030000   3334000100012031040000040102C2P (Myanmar) Co. Ltd Yangon        MMR11005281620265026200528000000000000000   10300001F05104100000000001050000000000000     
100   95030367537085740000000000000980000000000980002000000010410405281410074007733511700528000007239686   1020000200030000   333400010001204104000000281Myanmar Soft-Gate Tech Yangon        MMR11005281410074007730528000000000000000   10300001F05104100000000000206000000000000     
100   95050313836159580000000000003000000000003000002000000010410405281424405440983250190528000007239742   1030000200030000   3334000100012031040000040102C2P (Myanmar) Co. Ltd Yangon        MMR11005281424405440980528000000000000000   10300001F05104100000000000630000000000000     
100   95050323233042810000000000002940000000002940002000000010410405280827305730030590340528000007238453   1020000200030000   333400010001204104000000281Myanmar Soft-Gate Tech Yangon        MMR11005280827305730030528000000000000000   10300001F05104100000000000617000000000000     
100   95050322957045260000000000002000000000002000002000000010410405281005363536242753410528000007238857   1030000200030000   3338000100012031040000040022C2P (Myanmar) Co. Ltd Yangon        MMR11005281005363536240528000000000000000   10300001F05104100000000000420000000000000     
100   95050319532433550000000000010000000000010000002000000010410405281056442644416483850528000007239055   1030000200030000   333800010001203104000003327KBZPay                 Yangon        MMR11005281056442644410528000000000000000   10300001F05104100000000002100000000000000     
100   95050325630928770000000000000980000000000980002000000010410405280715464546766859890528000007238174   1020000200030000   333400010001204104000000281Myanmar Soft-Gate Tech Yangon        MMR11005280715464546760528000000000000000   10300001F05104100000000000206000000000000     
100   95050317376014640000000000001960000000001960002000000010410405280209033903118880270528000007236782   1020000200030000   333400010001204104000000281Myanmar Soft-Gate Tech Yangon        MMR11005280209033903110528000000000000000   10300001F05104100000000000412000000000000     
100   95050316949180000000000000005880000000005880002000000010410405281401303130496470060528000007239659   1020000200030000   333400010001204104000000281Myanmar Soft-Gate Tech Yangon        MMR11005281401303130490528000000000000000   10300001F05104100000000001235000000000000     
100   95050315564078030000000000020000000000020000002000000010410405281413174317264817580528000007239698   1030000200030000   3338000100012031040000040022C2P (Myanmar) Co. Ltd Yangon        MMR11005281413174317260528000000000000000   10300001F05104100000000004200000000000000     
100   95030367537085740000000000000980000000000980002000000010410405281159102910353511700528000007239270   1020000200030000   333400010001204104000000281Myanmar Soft-Gate Tech Yangon        MMR11005281159102910350528000000000000000   10300001F05104100000000000206000000000000     
100   95050316438375580000000000000980000000000980002000000010410405280205113511537142690528000007236774   1020000200030000   333400010001204104000000281Myanmar Soft-Gate Tech Yangon        MMR11005280205113511530528000000000000000   10300001F05104100000000000206000000000000     
100   95030367537085740000000000001960000000001960002000000010410405280757242724903511700528000007238336   1020000200030000   333400010001204104000000281Myanmar Soft-Gate Tech Yangon        MMR11005280757242724900528000000000000000   10300001F05104100000000000412000000000000     
100   95050312675873230000000000010000000000010000002000000010410405281357252725058122550528000007239644   1030000200030000   333800010001203104000003327KBZPay                 Yangon        MMR11005281357252725050528000000000000000   10300001F05104100000000002100000000000000     
100   95050317084233280000000000002940000000002940002000000010410405280223015301056887400528000007236819   1020000200030000   333400010001204104000000281Myanmar Soft-Gate Tech Yangon        MMR11005280223015301050528000000000000000   10300001F05104100000000000617000000000000     
100   95050313168701670000000000001960000000001960002000000010410405281424465446928207640528000007239743   1020000200030000   333400010001204104000000281Myanmar Soft-Gate Tech Yangon        MMR11005281424465446920528000000000000000   10300001F05104100000000000412000000000000     
100   95050319161596230000000000002940000000002940002000000010410405280229345934078710080528000007236835   1020000200030000   333400010001204104000000281Myanmar Soft-Gate Tech Yangon        MMR11005280229345934070528000000000000000   10300001F05104100000000000617000000000000     
100   95050312498129060000000000000980000000000980002000000010410405280856532653585717990528000007238585   1020000200030000   333400010001204104000000281Myanmar Soft-Gate Tech Yangon        MMR11005280856532653580528000000000000000   10300001F05104100000000000206000000000000     
100   95050316438375580000000000000980000000000980002000000010410405280212344234563837720528000007236793   1020000200030000   333400010001204104000000281Myanmar Soft-Gate Tech Yangon        MMR11005280212344234560528000000000000000   10300001F05104100000000000206000000000000     
100   95050312360118350000000000010550000000010550002000000010410405280729518740475292500528214814874047   1040001600030000   541120000559000000010000465Ocean Shwe Gone Daing  Yangon        MMR11005280729518740470528000000000000000   10300001F00104100000000002638000000000000     
100   62911028202616250000000000212600000000212600002000000010410405281224322592393511700528891561856147   1030000500030000   555610112988104519000011143Market Place by City M rt Sule       MMR11005281224322592390528000000000000000   10300001 00104100000000012756000000000000     
100   95050319111666800000000000000980000000000980002000000010410405272321215121287774020528000007236469   1020000200030000   333400010001204104000000281Myanmar Soft-Gate Tech Yangon        MMR11005272321215121280528000000000000000   10300001F05104100000000000206000000000000     
100   95050316818236190000000000004900000000004900002000000010410405280823585358895632890528000007238435   1020000200030000   333400010001204104000000281Myanmar Soft-Gate Tech Yangon        MMR11005280823585358890528000000000000000   10300001F05104100000000001029000000000000     
100   95050319156011610000000000000980000000000980002000000010410405281514474447558803310528000007239894   1020000200030000   333400010001204104000000281Myanmar Soft-Gate Tech Yangon        MMR11005281514474447550528000000000000000   10300001F05104100000000000206000000000000     
100   95050314996291580000000000000980000000000980002000000010410405280829025902120675440528000007238457   1020000200030000   333400010001204104000000281Myanmar Soft-Gate Tech Yangon        MMR11005280829025902120528000000000000000   10300001F05104100000000000206000000000000     
100   95050316818236190000000000002940000000002940002000000010410405280119134913513071860528000007236645   1020000200030000   333400010001204104000000281Myanmar Soft-Gate Tech Yangon        MMR11005280119134913510528000000000000000   10300001F05104100000000000617000000000000     
100   95050317578818060000000000003800000000003800002000000010410405280739078745314867020528214814874531   1040001600030000   591220000264000000010000252Shwe Ohh Pharmacy (Sha Yangon        MMR11005280739078745310528000000000000000   10300001F00104100000000000912000000000000     
100   62443101095422050000000000009800000000009800002000000010410405281424195419434902670528000007239739   1020000200030000   333400010001204104000000281Myanmar Soft-Gate Tech Yangon        MMR11005281424195419430528000000000000000   10300001F05104100000000002058000000000000     
100   95050312020318170000000000030000000000030000002000000010410405280643111311023143230528000007238011   1030000200030000   333800010001203104000003327KBZPay                 Yangon        MMR11005280643111311020528000000000000000   10300001F05104100000000006300000000000000     
100   95050316818236190000000000000980000000000980002000000010410405280046371637650022180528000007236593   1020000200030000   333400010001204104000000281Myanmar Soft-Gate Tech Yangon        MMR11005280046371637650528000000000000000   10300001F05104100000000000206000000000000     
100   95050328425894870000000000017450000000017450002000000010410405281253180689868377830528901231918147   1030000900030000   541119001294190110000000968Ocean Mingalar MDY C 2 MANDALAYHARSI MMR11005281253180689860528000000000000000   10300001F00104100000000004363000000000000     
100   95030333478847140000000000171190000000171190002000000010410405281018188408193511700528481841071793   1040001400030000   546210000143025462100000389PSD-STK Bakery Supply  ull No(98) My MMR11005281018188408190528000000000000000   10300001 00104100000000010271000000000000     
100   95050319331315630000000000001960000000001960002000000010410405280156182618319766890528000007236736   1020000200030000   333400010001204104000000281Myanmar Soft-Gate Tech Yangon        MMR11005280156182618310528000000000000000   10300001F05104100000000000412000000000000     
100   95050310427855490000000000000980000000000980002000000010410405281618194819912108290528000007240054   1020000200030000   333400010001204104000000281Myanmar Soft-Gate Tech Yangon        MMR11005281618194819910528000000000000000   10300001F05104100000000000206000000000000     
100   95050314752934410000000000030000000000030000002000000010410405281419554955403165090528000007239722   1030000200030000   333800010001203104000003327KBZPay                 Yangon        MMR11005281419554955400528000000000000000   10300001F05104100000000006300000000000000     
100   95050320360851930000000000050000000000050000002000000010410405280923115311723725120528000007238710   1030000200030000   333800010001203104000003327KBZPay                 Yangon        MMR11005280923115311720528000000000000000   10300001F05104100000000010500000000000000     
100   62911028202616170000000000024000000000024000002000000010410405281113042585243511700528104521714147   1030000300030000   555510111681104519000010027VNC Fashion                          MMR11005281113042585240528000000000000000   10300001 00104100000000001440000000000000     
100   95030301100022270000000000024000000000024000002000000010410405270536180022693511700527214712002269   1030000500030000   598320002102000015172200021MAX ENERGY             PTN           MMR11005270536180022690527000000000000000   10300001 00104100000000000720000000000000     
100   62911028202150190000000000028693000000028693002000000010410405281439250256493511700528000747635602   1030000200030000   541188001038000008000000010KBZ BANK               MARKETPLACE - MMR11005281439250256490528000000000000000   10300001 00104100000000001722000000000000     
100   95050311931431670000000000004900000000004900002000000010410405280123535353846376830528000007236657   1020000200030000   333400010001204104000000281Myanmar Soft-Gate Tech Yangon        MMR11005280123535353840528000000000000000   10300001F05104100000000001029000000000000     
100   95050319938772870000000000000980000000000980002000000010410405280219594959332270340528000007236809   1020000200030000   333400010001204104000000281Myanmar Soft-Gate Tech Yangon        MMR11005280219594959330528000000000000000   10300001F05104100000000000206000000000000     
100   95030367537085740000000000000980000000000980002000000010410405280140511051093511700528000007236690   1020000200030000   333400010001204104000000281Myanmar Soft-Gate Tech Yangon        MMR11005280140511051090528000000000000000   10300001F05104100000000000206000000000000     
100   95050315122972560000000000001960000000001960002000000010410405280220195019327227790528000007236810   1020000200030000   333400010001204104000000281Myanmar Soft-Gate Tech Yangon        MMR11005280220195019320528000000000000000   10300001F05104100000000000412000000000000     
100   62911028202473430000000000005500000000005500002000000010410405281637180006643511700528000747641577   1030000200030000   541188001087000008000000294KBZ BANK               CITY MART - J MMR11005281637180006640528000000000000000   10300001 00104100000000000330000000000000     
100   95030327835334700000000000010000000000010000002000000010410405281519590000583511700528000747637756   1030000200030000   541188001254000008000000323KBZ BANK               CITY MART - I MMR11005281519590000580528000000000000000   10300001 00104100000000000600000000000000     
100   62443101095422050000000000009800000000009800002000000010410405281430180018543760770528000007239773   1020000200030000   333400010001204104000000281Myanmar Soft-Gate Tech Yangon        MMR11005281430180018540528000000000000000   10300001F05104100000000002058000000000000     
100   62911028202473840000000000004900000000004900002000000010410405281700490020583511700528000747642667   1030000200030000   541188001083000008000000294KBZ BANK               CITY MART - J MMR11005281700490020580528000000000000000   10300001 00104100000000000294000000000000     
100   95030301988332950000000000053000000000053000002000000010410405281521380018133511700528000747637831   1030000200030000   541188001484000008000000399KBZ BANK               OCEAN SUPERCE MMR11005281521380018130528000000000000000   10300001 00104100000000003180000000000000     
100   95050316311487940000000000024000000000024000002000000010410405270922460004194754280527214715000419   1030000500030000   531120155808000045311201558GAMONE PWINT           PTN           MMR11005270922460004190527000000000000000   10300001 00104100000000005760000000000000     
100   95030301100338180000000000050000000000050000002000000010410405281328555855993511700528000007239535   1030000200030000   333800010001203104000003327KBZPay                 Yangon        MMR11005281328555855990528000000000000000   10300001F05104100000000010500000000000000     
100   62443101006037900000000000020000000000020000002000000010410405270924050032108059250527214715003210   1030000500030000   598320001303000015172200013MAX ENERGY             PTN           MMR11005270924050032100527000000000000000   10300001 00104100000000002400000000000000     
100   62443100372718280000000000026006000000026006002000000010410405262337020027451453620527214706002745   1030000500030000   598320001202000015172200012MAX ENERGY             PTN           MMR11005262337020027450527000000000000000   10300001 00104100000000003121000000000000     
100   95050324154190880000000000022500000000022500002000000010410405270951370003750137210527000347178022   1030000300030000   573200001711000000000001226CB BANK                MDRIVE(KABAR  MMR11005270951370003750527000000000000000   10300001F00104100000000005400000000000000     
100   95030346645639490000000000021500000000021500002000000010410405271130060002303511700527214718000230   1030000500030000   531120155718000045311201557GAMONE PWINT           PTN           MMR11005271130060002300527000000000000000   10300001 00104100000000001290000000000000     
100   95030317922148660000000000067000000000067000002000000010410405270748030002063511700527214714000206   1030000500030000   592120185501000085921201855I LOVE LIQUOR 1        PTN           MMR11005270748030002060527000000000000000   10300001 00104100000000004020000000000000     
100   62443100358839880000000000026000000000026000002000000010410405270613450002884392030527214712000288   1030000500030000   799220099801013607992200998YANGON GOLF CLUB       PTN           MMR11005270613450002880527000000000000000   10300001 00104100000000006240000000000000     
100   95050314287403810000000000050000000000050000002000000010410405280734450445716519510528000007238242   1030000200030000   333800010001203104000003327KBZPay                 Yangon        MMR11005280734450445710528000000000000000   10300001F05104100000000010500000000000000     
100   95030308616180720000000000005000000000005000002000000010410405271634320432533511700528000007236202   1030000200030000   333800010001203104000003327KBZPay                 Yangon        MMR11005271634320432530528000000000000000   10300001F05104100000000001050000000000000     
100   95030301100120440000000000003100000000003100002000000010410405281451150103453511700528000747636222   1030000200030000   541188001310000008000000325KBZ BANK               CITY MART - A MMR11005281451150103450528000000000000000   10300001 00104100000000000186000000000000     
100   95050319996628650000000000000980000000000980002000000010410405281531540154507150840528000007239941   1020000200030000   333400010001204104000000281Myanmar Soft-Gate Tech Yangon        MMR11005281531540154500528000000000000000   10300001F05104100000000000206000000000000     
100   95030301100120440000000000036600000000036600002000000010410405281448320174373511700528000747636089   1030000200030000   541188001305000008000000325KBZ BANK               CITY MART - A MMR11005281448320174370528000000000000000   10300001 00104100000000002196000000000000     
100   62911028202793040000000000002000000000002000002000000010410405280731050105543511700528000007238225   1030000200030000   3334000100012031040000040102C2P (Myanmar) Co. Ltd Yangon        MMR11005280731050105540528000000000000000   10300001F05104100000000000420000000000000     
100   95050316321163940000000000000980000000000980002000000010410405280634160416919838260528000007237978   1020000200030000   333400010001204104000000281Myanmar Soft-Gate Tech Yangon        MMR11005280634160416910528000000000000000   10300001F05104100000000000206000000000000     
100   62911028202907490000000000114000000000114000002000000010410405280048370521123511700528731180737147   1030000900030000   729819000945190110000000752SML Clinic             YANGON        MMR11005280048370521120528000000000000000   10300001F00104100000000006840000000000000     
100   62911028202448030000000000100000000000100000002000000010410405270545360029723511700527214712002972   1030000500030000   598320001203000015172200012MAX ENERGY             PTN           MMR11005270545360029720527000000000000000   10300001 00104100000000003000000000000000     
100   95030346645639490000000000010780000000010780002000000010410405271121050002493511700527214717000249   1030000500030000   531120155713000045311201557GAMONE PWINT           PTN           MMR11005271121050002490527000000000000000   10300001 00104100000000000647000000000000     
100   95030346645639490000000000015386000000015386002000000010410405271115060009943511700527214717000994   1030000500030000   531120155714000045311201557GAMONE PWINT           PTN           MMR11005271115060009940527000000000000000   10300001 00104100000000000923000000000000     
100   62911028202448030000000000050000000000050000002000000010410405270932240001053511700527214716000105   1030000500030000   569120135001009505691201350F1 FREE POINT FASHION  PTN           MMR11005270932240001050527000000000000000   10300001 00104100000000003000000000000000     
100   95030333478847140000000000013247000000013247002000000010410405270619070003173511700527214712000317   1030000500030000   581220214601000085812202146CHILLI POT MALA XIANG  PTN           MMR11005270619070003170527000000000000000   10300001 00104100000000001351000000000000     
100   95030350385420630000000000005900000000005900002000000010410405270218250002603186910527214708000260   1030000500030000   591220014301014405912200143SHWE OHH PHARMACY      PTN           MMR11005270218250002600527000000000000000   10300001 00104100000000000354000000000000     
100   62911028202442170000000000040000000000040000002000000010410405270932310011953511700527214716001195   1030000500030000   503920036601000015039200366PRO-1 HOME CENTER      PTN           MMR11005270932310011950527000000000000000   10300001 00104100000000002400000000000000     
100   95050324154190880000000000023000000000023000002000000010410405270052360020688549680527214707002068   1030000500030000   598320001604000015172200016MAX ENERGY             PTN           MMR11005270052360020680527000000000000000   10300001 00104100000000002760000000000000     
100   62911028202473840000000000017900000000017900002000000010410405281656070188043511700528000747642455   1030000200030000   541188001082000008000000294KBZ BANK               CITY MART - J MMR11005281656070188040528000000000000000   10300001 00104100000000001074000000000000     
100   62911028202161240000000000021589000000021589002000000010410405281900370363003511700528000747647625   1030000200030000   541188001025000008000000298KBZ BANK               CITY MART - M MMR11005281900370363000528000000000000000   10300001 00104100000000001295000000000000     
100   62911028202132460000000000013900000000013900002000000010410405280201290531163511700528067310829147   1030000900030000   591219000690190110000000521Shwe Ohh Pharmacy ST-1 YANGONAUNG    MMR11005280201290531160528000000000000000   10300001F00104100000000000834000000000000     
100   95050318631979070000000000020500000000020500002000000010410405281852490070260030320528000747647319   1030000200030000   541188001315000008000000306KBZ BANK               CITY MART - S MMR11005281852490070260528000000000000000   10300001 00104100000000005125000000000000     
100   95050314064416890000000000004900000000004900002000000010410405271633130313492646380528000007236198   1020000200030000   333400010001204104000000281Myanmar Soft-Gate Tech Yangon        MMR11005271633130313490528000000000000000   10300001F05104100000000001029000000000000     
100   95030308616180720000000000002000000000002000002000000010410405271636080608343511700528000007236205   1030000200030000   333800010001203104000003327KBZPay                 Yangon        MMR11005271636080608340528000000000000000   10300001F05104100000000000420000000000000     
100   95050324154190880000000000002940000000002940002000000010410405280739280928406604600528000007238260   1020000200030000   333400010001204104000000281Myanmar Soft-Gate Tech Yangon        MMR11005280739280928400528000000000000000   10300001F05104100000000000617000000000000     
100   95050319709462380000000000003000000000003000002000000010410405281039030903232838500528000007238968   1030000200030000   3338000100012031040000040022C2P (Myanmar) Co. Ltd Yangon        MMR11005281039030903230528000000000000000   10300001F05104100000000000630000000000000     
100   62911028202829850000000000012000000000012000002000000010410405270111380027623511700527214707002762   1030000500030000   598320001101000015172200011MAX ENERGY             PTN           MMR11005270111380027620527000000000000000   10300001 00104100000000000360000000000000     
100   62911028202188560000000000018650000000018650002000000010410405270352530003123511700527214710000312   1030000500030000   541120024702022205411200247ORANGE (SHWE PYI THAR) PTN           MMR11005270352530003120527000000000000000   10300001 00104100000000001119000000000000     
100   62911028202790310000000000061000000000061000002000000010410405270240460020863321110527214709002086   1030000500030000   598320001602000015172200016MAX ENERGY             PTN           MMR11005270240460020860527000000000000000   10300001 00104100000000001830000000000000     
100   62911028202161240000000000030000000000030000002000000010410405270235350027863511700527214709002786   1030000500030000   598320001202000015172200012MAX ENERGY             PTN           MMR11005270235350027860527000000000000000   10300001 00104100000000000900000000000000     
100   95030307100064460000000000082000000000082000002000000010410405271053330025983511700527214717002598   1030000500030000   598320002001000015172200020MAX ENERGY             PTN           MMR11005271053330025980527000000000000000   10300001 00104100000000002460000000000000     
100   62911028202528710000000000050000000000050000002000000010410405262341370020572246400527214706002057   1030000500030000   598320001604000015172200016MAX ENERGY             PTN           MMR11005262341370020570527000000000000000   10300001 00104100000000001500000000000000     
100   95050319207947610000000000015000000000015000002000000010410405270038390000743507140527000347105758   1030000300030000   541100000218000000000000113CB BANK                ONESTOP KITCH MMR11005270038390000740527000000000000000   10300001F00104100000000003750000000000000     
100   62911028202471600000000000037100000000037100002000000010410405270353420002053758700527214710000205   1030000500030000   591220013401014405912200134SHWE OHH PHARMACY      PTN           MMR11005270353420002050527000000000000000   10300001 00104100000000002226000000000000     
100   95030356977005070000000000010400000000010400002000000010410405281242450688113511700528800121945147   1030000900030000   541119001083190110000000872Sein Gay Har Hledan    YANGONUT      MMR11005281242450688110528000000000000000   10300001F00104100000000000624000000000000     
100   95030301100124400000000000032511000000032511002000000010410405280943410639543511700528329131641147   1030000900030000   541119001260190110000000958City Mart PLST C 3     YANGONMYOTHIT MMR11005280943410639540528000000000000000   10300001F00104100000000001951000000000000     
100   62443100373945130000000000030000000000030000002000000010410405281254190689976725350528906241919147   1030000900030000   554119000348190110000000215New Day Energy MYG     YANGONONE     MMR11005281254190689970528000000000000000   10300001F00104100000000003600000000000000     
100   95030302100067550000000000108000000000108000002000000010410405280253292520393511700528148220928147   1030000300030000   555510124697104519000020166Makro Myanmar                        MMR11005280253292520390528000000000000000   10300001 00104100000000006480000000000000     
100   95050310427855490000000000000980000000000980002000000010410405281142071207741356210528000007239216   1020000200030000   333400010001204104000000281Myanmar Soft-Gate Tech Yangon        MMR11005281142071207740528000000000000000   10300001F05104100000000000206000000000000     
100   95050315005801680000000000019800000000019800002000000010410405281019030650021100920528132491603147   1030000900030000   723019001053190110000000856The Body Shop JC       YANGONN       MMR11005281019030650020528000000000000000   10300001F00104100000000004752000000000000     
100   95030356977005070000000000005000000000005000002000000010410405281255060690113511700528916251906147   1030000900030000   541119001195190110000000942City Mart HDC C 10     YANGONUT      MMR11005281255060690110528000000000000000   10300001F00104100000000000300000000000000     
100   62911028202530280000000000037000000000037000002000000010410405281303130691793511700528029331913147   1030000900030000   554119000345190110000000212New Day Energy PZD     YANGONAUNG    MMR11005281303130691790528000000000000000   10300001F00104100000000001110000000000000     
100   62911028202074950000000000037000000000037000002000000010410405262351560029133511700527214706002913   1030000500030000   598320001203000015172200012MAX ENERGY             PTN           MMR11005262351560029130527000000000000000   10300001 00104100000000001110000000000000     
100   95030310098554020000000000025000000000025000002000000010410405270425250025633511700527214710002563   1030000500030000   598320002001000015172200020MAX ENERGY             PTN           MMR11005270425250025630527000000000000000   10300001 00104100000000000750000000000000     
100   62911028202448030000000000048600000000048600002000000010410405270843160002623511700527214715000262   1030000500030000   569120060701000015691200607MIX (JUNCTION CITY)    PTN           MMR11005270843160002620527000000000000000   10300001 00104100000000002916000000000000     
100   95050323282717740000000000030000000000030000002000000010410405270032480020191854650527214707002019   1030000500030000   598320001601000015172200016MAX ENERGY             PTN           MMR11005270032480020190527000000000000000   10300001 00104100000000003600000000000000     
100   95030301100022270000000000025422000000025422002000000010410405270928080032633511700527214715003263   1030000500030000   598320001003000015172200010MAX ENERGY             PTN           MMR11005270928080032630527000000000000000   10300001 00104100000000000763000000000000     
100   62443100333488440000000000020000000000020000002000000010410405270807060023783746910527214714002378   1030000500030000   598320002104000015172200021MAX ENERGY             PTN           MMR11005270807060023780527000000000000000   10300001 00104100000000002400000000000000     
100   62443100330048680000000000031000000000031000002000000010410405270337440027997320960527214710002799   1030000500030000   598320001103000015172200011MAX ENERGY             PTN           MMR11005270337440027990527000000000000000   10300001 00104100000000003720000000000000     
100   62911028202472440000000000009900000000009900002000000010410405271527270088833511700527000747598138   1030000200030000   541188001033000008000000298KBZ BANK               CITY MART - M MMR11005271527270088830527000000000000000   10300001 00104100000000000594000000000000     
100   62911028202245730000000000148602000000148602002000000010410405280304172521933511700528274390942147   1030000500030000   555610118962104519000016137City Mart South Okkala WZYD BR       MMR11005280304172521930528000000000000000   10300001 00104100000000008916000000000000     
100   95050316717221100000000000001960000000001960002000000010410405280241131113227214000528000007236872   1020000200030000   333400010001204104000000281Myanmar Soft-Gate Tech Yangon        MMR11005280241131113220528000000000000000   10300001F05104100000000000412000000000000     
100   62911028202446700000000000020000000000020000002000000010410405280742571257243511700528000007238272   1030000500030000   333800010001201104000003863AYA Pay                Yangon        MMR11005280742571257240528000000000000000   10300001F05104100000000004200000000000000     
100   95050314735271470000000000000980000000000980002000000010410405281045361536625803080528000007239004   1020000200030000   333400010001204104000000281Myanmar Soft-Gate Tech Yangon        MMR11005281045361536620528000000000000000   10300001F05104100000000000206000000000000     
100   95050310427855490000000000000980000000000980002000000010410405280642181218898185780528000007238010   1020000200030000   333400010001204104000000281Myanmar Soft-Gate Tech Yangon        MMR11005280642181218890528000000000000000   10300001F05104100000000000206000000000000     
100   95050310332595380000000000002940000000002940002000000010410405281344321432978037450528000007239587   1020000200030000   333400010001204104000000281Myanmar Soft-Gate Tech Yangon        MMR11005281344321432970528000000000000000   10300001F05104100000000000617000000000000     
100   95050319161596230000000000000980000000000980002000000010410405280747551755129994660528000007238291   1020000200030000   333400010001204104000000281Myanmar Soft-Gate Tech Yangon        MMR11005280747551755120528000000000000000   10300001F05104100000000000206000000000000     
100   62911028202132460000000000063050000000063050002000000010410405280929170635973511700528078591517147   1030000900030000   541119000158190110000000084Pro (1) Global (Pazund YANGONARTAUNG MMR11005280929170635970528000000000000000   10300001F00104100000000003783000000000000     
100   95050319532433550000000000014000000000014000002000000010410405271633030303537688920527000007236197   1030000200030000   333800010001203104000003327KBZPay                 Yangon        MMR11005271633030303530527000000000000000   10300001F05104100000000002940000000000000     
100   62443100306028540000000000066000000000066000002000000010410405270528180053723881450527214711005372   1030000500030000   598320001904000015172200019MAX ENERGY             PTN           MMR11005270528180053720527000000000000000   10300001 00104100000000007920000000000000     
100   62911028202161240000000000002400000000002400002000000010410405271017160088553704100527000747577422   1030000200030000   541188001033000008000000298KBZ BANK               CITY MART - M MMR11005271017160088550527000000000000000   10300001 00104100000000000144000000000000     
100   95050314703432410000000000005000000000005000002000000010410405271738220822174469050528000007236305   1030000200030000   3338000100012031040000040022C2P (Myanmar) Co. Ltd Yangon        MMR11005271738220822170528000000000000000   10300001F05104100000000001050000000000000     
100   95050313732480420000000000002940000000002940002000000010410405280746231623718257080528000007238286   1020000200030000   333400010001204104000000281Myanmar Soft-Gate Tech Yangon        MMR11005280746231623710528000000000000000   10300001F05104100000000000617000000000000     
100   95050315250339200000000000002940000000002940002000000010410405280245441544215561510528000007236883   1020000200030000   333400010001204104000000281Myanmar Soft-Gate Tech Yangon        MMR11005280245441544210528000000000000000   10300001F05104100000000000617000000000000     
100   95030303100034700000000000020500000000020500002000000010410405280851450627043511700528370211545147   1030000900030000   541119000882190110000000084Pro (1) Global (Pazund YANGONARTAUNG MMR11005280851450627040528000000000000000   10300001F00104100000000001230000000000000     
100   95050322990383760000000000026000000000026000002000000010410405280919340633451987530528890491534147   1030000900030000   541119001207190110000000948City Mart YK C 5       YANGONAUNG    MMR11005280919340633450528000000000000000   10300001F00104100000000006500000000000000     
100   95050314979630620000000000000980000000000980002000000010410405281339270927683080000528000007239568   1020000200030000   333400010001204104000000281Myanmar Soft-Gate Tech Yangon        MMR11005281339270927680528000000000000000   10300001F05104100000000000206000000000000     
100   62911028202685470000000000004376000000004376002000000010410405280953180642373511700528542231618147   1030000900030000   541119001225190110000000945City Mart TM C 10      YANGONONE     MMR11005280953180642370528000000000000000   10300001F00104100000000000263000000000000     
100   95030333478847140000000000195000000000195000002000000010410405281129350671063511700528658591735147   1030000900030000   541119000129190110000000082Sein Gay Har Super Cen YANGON        MMR11005281129350671060528000000000000000   10300001F00104100000000011700000000000000     
