100   95030306100096490000000000000980000000000980002000000010410405300104083408353511700530000007243518   1020000200030000   333400010001204104000000281Myanmar Soft-Gate Tech Yangon        MMR11005300104083408350530000000000000000   10300001F05104100000000000206000000000000     
100   95050317823045920000000000050000000000050000002000000010410405301303273327688941030530000007248984   1030000200030000   333800010001203104000003327KBZPay                 Yangon        MMR11005301303273327680530000000000000000   10300001F05104100000000010500000000000000     
100   62911028202752030000000000080000000000080000002000000010410405271024190381453511700527214710038145   1030000600030000   554100001865315799420001235DENKO NAY PYI TAW 2    NAYPYITAW     MMR11005271024190381450527000000000000000   10300001 00104100000000002400000000000000     
100   95050312781844250000000000005000000000005000002000000010410405301502553255780763710530000007249493   1030000200030000   3334000100012031040000040102C2P (Myanmar) Co. Ltd Yangon        MMR11005301502553255780530000000000000000   10300001F05104100000000001050000000000000     
100   62911028202471860000000000100000000000100000002000000010410405291117509603013511700529214918960301   1040001600030000   598320001066000000010000786Yangon Petrol (Dala)   Ygn           MMR11005291117509603010529000000000000000   10300001F00104100000000003000000000000000     
100   62911028202136750000000000029000000000029000002000000010410405291203020013403511700529214918001340   1030000500030000   598320001702000015172200017MAX ENERGY             PTN           MMR11005291203020013400529000000000000000   10300001 00104100000000000870000000000000     
100   62911028202155970000000000039750000000039750002000000010410405301120531148264773800530915501753149   1030000900030000   541119000120190110000000080Sein Gay Har BAK       YANGONADA     MMR11005301120531148260530000000000000000   10300001F00104100000000002385000000000000     
100   62911028202077430000000000000980000000000980002000000010410405300516244624283511700530000007245436   1020000200030000   333400010001204104000000281Myanmar Soft-Gate Tech Yangon        MMR11005300516244624280530000000000000000   10300001F05104100000000000206000000000000     
100   62911028202752030000000000020000000000020000002000000010410405271027370130663511700527214710013066   1030000600030000   554100002328315799420001235DENKO NAY PYI TAW 2    NAYPYITAW     MMR11005271027370130660527000000000000000   10300001 00104100000000000600000000000000     
100   62443101037081820000000000051000000000051000002000000010410405300636451067465369350530167061345149   1030000900030000   554119001099190110000000211New Day Energy SCH     YANGONUNG     MMR11005300636451067460530000000000000000   10300001F00104100000000006120000000000000     
100   95050310427855490000000000000980000000000980002000000010410405301158292829163267160530000007248710   1020000200030000   333400010001204104000000281Myanmar Soft-Gate Tech Yangon        MMR11005301158292829160530000000000000000   10300001F05104100000000000206000000000000     
100   95050322426452690000000000065000000000065000002000000010410405300412330018708674490530215011001870   1040001600030000   598320000320000000010000308PT Power Petrol Statio Yangon        MMR11005300412330018700530000000000000000   10300001F00104100000000007800000000000000     
100   95050321188471220000000000023400000000023400002000000010410405301448020018474960010530000747723710   1030000200030000   541188001484000008000000399KBZ BANK               OCEAN SUPERCE MMR11005301448020018470530000000000000000   10300001 00104100000000005850000000000000     
100   62443100306045460000000000026500000000026500002000000010410405300649290034242248360530000747717921   1030000200030000   599988000601000008000003442KBZ BANK               SWEETY HOME ( MMR11005300649290034240530000000000000000   10300001 00104100000000006360000000000000     
100   95050311382087030000000000002940000000002940002000000010410405301030170017495452080530000007248293   1020000200030000   333400010001204104000000281Myanmar Soft-Gate Tech Yangon        MMR11005301030170017490530000000000000000   10300001F05104100000000000617000000000000     
100   62911028202031710000000000026200000000026200002000000010410405301004410026363511700530000747704220   1030000200030000   541188001040000008000000010KBZ BANK               MARKETPLACE - MMR11005301004410026360530000000000000000   10300001 00104100000000001572000000000000     
100   62911028202120400000000000145433000000145433002000000010410405301338080032274773800530000747719342   1030000200030000   541188001066000008000000314KBZ BANK               MARKETPLACE - MMR11005301338080032270530000000000000000   10300001 00104100000000008726000000000000     
100   62911028202495540000000000021900000000021900002000000010410405301721450032914773800530000747730695   1030000200030000   541188001085000008000000294KBZ BANK               CITY MART - J MMR11005301721450032910530000000000000000   10300001 00104100000000001314000000000000     
100   62911028202291190000000000029132000000029132002000000010410405301135010032103511700530000747710323   1030000200030000   541188001066000008000000314KBZ BANK               MARKETPLACE - MMR11005301135010032100530000000000000000   10300001 00104100000000001748000000000000     
100   95050314534800510000000000000980000000000980002000000010410405301334490449273813390530000007249150   1020000200030000   333400010001204104000000281Myanmar Soft-Gate Tech Yangon        MMR11005301334490449270530000000000000000   10300001F05104100000000000206000000000000     
100   95050312926040930000000000004900000000004900002000000010410405301034300430904856410530000007248328   1020000200030000   333400010001204104000000281Myanmar Soft-Gate Tech Yangon        MMR11005301034300430900530000000000000000   10300001F05104100000000001029000000000000     
100   62911028202161240000000000010750000000010750002000000010410405301457530088514773800530000747724201   1030000200030000   541188001022000008000000298KBZ BANK               CITY MART - M MMR11005301457530088510530000000000000000   10300001 00104100000000000645000000000000     
100   95050311419479170000000000001960000000001960002000000010410405300936350635228982400530000007247838   1020000200030000   333400010001204104000000281Myanmar Soft-Gate Tech Yangon        MMR11005300936350635220530000000000000000   10300001F05104100000000000412000000000000     
100   95030317922148660000000000067734000000067734002000000010410405301433120341444773800530000747722763   1030000200030000   541188001041000008000000010KBZ BANK               MARKETPLACE - MMR11005301433120341440530000000000000000   10300001 00104100000000004064000000000000     
100   95050320205194540000000000037200000000037200002000000010410405300700010106401696410530215014010640   1040001600030000   591220000295000000010000283Shwe Ohh Pharmacy (39t Yangon        MMR11005300700010106400530000000000000000   10300001F00104100000000008928000000000000     
100   95050320531117320000000000462000000000462000002000000010410405300538250061858957360530215012006185   1040001600030000   598320001064000000010000784Yangon Petrol (Min Ye  Ygn           MMR11005300538250061850530000000000000000   10300001F00104100000000055440000000000000     
100   62911028202491330000000000030182000000030182002000000010410405301341020188763511700530000747719520   1030000200030000   541188001082000008000000294KBZ BANK               CITY MART - J MMR11005301341020188760530000000000000000   10300001 00104100000000001811000000000000     
100   62911028202495540000000000021500000000021500002000000010410405301743400118864773800530000747731610   1030000200030000   541188001081000008000000294KBZ BANK               CITY MART - J MMR11005301743400118860530000000000000000   10300001 00104100000000001290000000000000     
100   62911028202471860000000000013900000000013900002000000010410405301830370154944773800530000747733296   1030000200030000   541188001073000008000000294KBZ BANK               CITY MART - J MMR11005301830370154940530000000000000000   10300001 00104100000000000834000000000000     
100   62911028202421380000000000090250000000090250002000000010410405300601260075833511700530215013007583   1040001600030000   591220000271000000010000259Shwe Ohh Pharmacy (Gwa Yangon        MMR11005300601260075830530000000000000000   10300001F00104100000000005415000000000000     
100   62911028202495540000000000007100000000007100002000000010410405301752030102744773800530000747731934   1030000200030000   541188001088000008000000294KBZ BANK               CITY MART - J MMR11005301752030102740530000000000000000   10300001 00104100000000000426000000000000     
100   95050317903887690000000000004900000000004900002000000010410405300833400340439550490530000007247286   1020000200030000   333400010001204104000000281Myanmar Soft-Gate Tech Yangon        MMR11005300833400340430530000000000000000   10300001F05104100000000001029000000000000     
100   62911028202161240000000000028263000000028263002000000010410405301139420128303511700530000747710612   1030000200030000   541188001023000008000000298KBZ BANK               CITY MART - M MMR11005301139420128300530000000000000000   10300001 00104100000000001696000000000000     
100   62911028202617320000000005000000000005000000002000000010410405300826431097084773800530883561443149   1030000900030000   594419001427190110000001031Sandar Yadanar         YANGONUT      MMR11005300826431097080530000000000000000   10300001F00104100000000300000000000000000     
100   62443101006526980000000000042050000000042050002000000010410405300516342745219006800530956451135149   1030000300030000   555510124685104519000020166Makro Myanmar                        MMR11005300516342745210530000000000000000   10300001 00104100000000010092000000000000     
100   62911028202793040000000000090500000000090500002000000010410405300349091025213511700530863191009149   1030000900030000   541119000117190110000000078Sein Gay Har Kan Thar  YANGONOKKALAP MMR11005300349091025210530000000000000000   10300001F00104100000000005430000000000000     
100   62911028202130710000000000003800000000003800002000000010410405300423072739673511700530424521051149   1030000500030000   555610115761104519000013506MarketplaceMyanmarPlaz Branch        MMR11005300423072739670530000000000000000   10300001 00104100000000000228000000000000     
100   95030367537085740000000000001960000000001960002000000010410405301156462646244773800530000007248707   1020000200030000   333400010001204104000000281Myanmar Soft-Gate Tech Yangon        MMR11005301156462646240530000000000000000   10300001F05104100000000000412000000000000     
100   62911028202397530000000000067200000000067200002000000010410405300835371099594773800530024051537149   1030000900030000   541119001296190110000000968Ocean Mingalar MDY C 4 MANDALAYHARSI MMR11005300835371099590530000000000000000   10300001F00104100000000004032000000000000     
100   62443100371022130000000000034350000000034350002000000010410405301157571158471104100530536271857149   1030000900030000   591219000502190110000000349Shwe Ohh Pharmacy - (U YANGON        MMR11005301157571158470530000000000000000   10300001F00104100000000008244000000000000     
100   95050328384000040000000000005600000000005600002000000010410405300516422745264049350530960451148149   1030000500030000   555610118961104519000016137City Mart South Okkala WZYD BR       MMR11005300516422745260530000000000000000   10300001 00104100000000001400000000000000     
100   62443101000669310000000000080000000000080000002000000010410405300712531076674158490530683421353149   1030000900030000   701119001579190110000001151Hotel Shwe Pyi Thar    MANDALAYHARSA MMR11005300712531076670530000000000000000   10300001F00104100000000034000000000000000     
100   95050319709462380000000000000980000000000980002000000010410405300953552355009954120530000007248003   1020000200030000   333400010001204104000000281Myanmar Soft-Gate Tech Yangon        MMR11005300953552355000530000000000000000   10300001F05104100000000000206000000000000     
100   62911028202465350000000000024200000000024200002000000010410405300515081047173511700530045451108149   1030000900030000   581219000980190110000000787Jo Jo Hot Pot (MPZ)    YANGON        MMR11005300515081047170530000000000000000   10300001F00104100000000002468000000000000     
100   62443101006526980000000000064600000000064600002000000010410405300434311037232816630530509041131149   1030000900030000   541119000161190110000000084Pro (1) Global (Pazund YANGONARTAUNG MMR11005300434311037230530000000000000000   10300001F00104100000000016150000000000000     
100   95050322957045260000000000030000000000030000002000000010410405300254472447165660470530000007243903   1030000200030000   3338000100012031040000040022C2P (Myanmar) Co. Ltd Yangon        MMR11005300254472447160530000000000000000   10300001F05104100000000006300000000000000     
100   95050328384000040000000000027700000000027700002000000010410405300347582737373887240530232261010149   1030000500030000   555610108840104519000003432City Mart Junction Zaw na 1          MMR11005300347582737370530000000000000000   10300001 00104100000000006925000000000000     
100   62911028202522020000000002735600000002735600002000000010410405300144312729203511700530521130823149   1030000300030000   555510107297104519000006507Bumrungrad Clinc Yango               MMR11005300144312729200530000000000000000   10300001 00104100000000164136000000000000     
100   62911028202684060000000000019634000000019634002000000010410405300348012736923511700530183211024149   1030000500030000   555610104020104519000003821City Mart North Point  enter         MMR11005300348012736920530000000000000000   10300001 00104100000000001178000000000000     
100   95050328384000040000000000018000000000018000002000000010410405300516002745437099030530975471134149   1030000500030000   555610118972104519000016137City Mart South Okkala WZYD BR       MMR11005300516002745430530000000000000000   10300001 00104100000000004500000000000000     
100   62911028202725640000000000036450000000036450002000000010410405300454481041813511700530744241148149   1030000900030000   541119001282190110000000963City Mart SPL C 7      YANGONMYOTHIT MMR11005300454481041810530000000000000000   10300001F00104100000000002187000000000000     
100   62443100372718280000000000076750000000076750002000000010410405300714281077147037980530713441328149   1030000900030000   541119000158190110000000084Pro (1) Global (Pazund YANGONARTAUNG MMR11005300714281077140530000000000000000   10300001F00104100000000019188000000000000     
100   95030367537085740000000000001960000000001960002000000010410405300645051505004771000530000007246191   1020000200030000   333400010001204104000000281Myanmar Soft-Gate Tech Yangon        MMR11005300645051505000530000000000000000   10300001F05104100000000000412000000000000     
100   95030318100002710000000000002940000000002940002000000010410405300751452145994773800530000007246880   1020000200030000   333400010001204104000000281Myanmar Soft-Gate Tech Yangon        MMR11005300751452145990530000000000000000   10300001F05104100000000000617000000000000     
100   95050311959900780000000000000980000000000980002000000010410405301553192319115125490530000007249650   1020000200030000   333400010001204104000000281Myanmar Soft-Gate Tech Yangon        MMR11005301553192319110530000000000000000   10300001F05104100000000000206000000000000     
100   62911028202112400000000000037400000000037400002000000010410405301308071173694773800530383381907149   1030000900030000   541119001464190110000000077Sein Gay Har Chinatown YANGON        MMR11005301308071173690530000000000000000   10300001F00104100000000002244000000000000     
100   95050313702988830000000000002940000000002940002000000010410405300842461246409039920530000007247377   1020000200030000   333400010001204104000000281Myanmar Soft-Gate Tech Yangon        MMR11005300842461246400530000000000000000   10300001F05104100000000000617000000000000     
100   62443100333488440000000000129700000000129700002000000010410405300952082775548301640530041221621149   1030000300030000   555510124685104519000020166Makro Myanmar                        MMR11005300952082775540530000000000000000   10300001 00104100000000031128000000000000     
100   62443100394939820000000000050000000000050000002000000010410405301229125912859536710530000007248816   1040001600030000   333800010001220104000004507A +                    Yangon        MMR11005301229125912850530000000000000000   10300001F05104100000000010500000000000000     
100   62911028202777790000000000006000000000006000002000000010410405300500173017413511700530000007245285   1030000200030000   333800010001203104000003327KBZPay                 Yangon        MMR11005300500173017410530000000000000000   10300001F05104100000000001260000000000000     
100   95050316586367540000000000004900000000004900002000000010410405300801183118516293980530000007246966   1020000200030000   333400010001204104000000281Myanmar Soft-Gate Tech Yangon        MMR11005300801183118510530000000000000000   10300001F05104100000000001029000000000000     
100   62911028202169750000000000013560000000013560002000000010410405300705312757564773800530147371302149   1030000500030000   555610103477104519000003432City Mart Junction Zaw na 4          MMR11005300705312757560530000000000000000   10300001 00104100000000000814000000000000     
100   95050317741619680000000000055000000000055000002000000010410405301400503050697543840530000007249239   1030000200030000   333800010001203104000003327KBZPay                 Yangon        MMR11005301400503050690530000000000000000   10300001F05104100000000011550000000000000     
100   62911028202077430000000000000980000000000980002000000010410405300514314431503511700530000007245416   1020000200030000   333400010001204104000000281Myanmar Soft-Gate Tech Yangon        MMR11005300514314431500530000000000000000   10300001F05104100000000000206000000000000     
100   95050312675873230000000000002940000000002940002000000010410405292359582958311858710530000007243445   1020000200030000   333400010001204104000000281Myanmar Soft-Gate Tech Yangon        MMR11005292359582958310530000000000000000   10300001F05104100000000000617000000000000     
100   95050315122972560000000000000980000000000980002000000010410405301017224722775622280530000007248198   1020000200030000   333400010001204104000000281Myanmar Soft-Gate Tech Yangon        MMR11005301017224722770530000000000000000   10300001F05104100000000000206000000000000     
100   95050317903887690000000000004900000000004900002000000010410405301217224722906316840530000007248772   1020000200030000   333400010001204104000000281Myanmar Soft-Gate Tech Yangon        MMR11005301217224722900530000000000000000   10300001F05104100000000001029000000000000     
100   95050314950595330000000000010000000000010000002000000010410405300724495449392129970530000007246584   1030000200030000   3338000100012031040000040022C2P (Myanmar) Co. Ltd Yangon        MMR11005300724495449390530000000000000000   10300001F05104100000000002100000000000000     
100   62911028202451150000000000009873000000009873002000000010410405300720252759174773800530313501340149   1030000500030000   555610122578104519000018896City Mart Hlaing Thar  ar            MMR11005300720252759170530000000000000000   10300001 00104100000000000592000000000000     
100   95050317084233280000000000000980000000000980002000000010410405301158342834394919650530000007248716   1020000200030000   333400010001204104000000281Myanmar Soft-Gate Tech Yangon        MMR11005301158342834390530000000000000000   10300001F05104100000000000206000000000000     
100   62911028202809060000000000100000000000100000002000000010410405300558362836233511700530000007245788   1030000200030000   333800010001203104000003327KBZPay                 Yangon        MMR11005300558362836230530000000000000000   10300001F05104100000000021000000000000000     
100   95050314893649800000000000000980000000000980002000000010410405300103553355821603420530000007243516   1020000200030000   333400010001204104000000281Myanmar Soft-Gate Tech Yangon        MMR11005300103553355820530000000000000000   10300001F05104100000000000206000000000000     
100   95050310427855490000000000002940000000002940002000000010410405300307493749324518560530000007244017   1020000200030000   333400010001204104000000281Myanmar Soft-Gate Tech Yangon        MMR11005300307493749320530000000000000000   10300001F05104100000000000617000000000000     
100   95050311419479170000000000001960000000001960002000000010410405301327375737982160900530000007249116   1020000200030000   333400010001204104000000281Myanmar Soft-Gate Tech Yangon        MMR11005301327375737980530000000000000000   10300001F05104100000000000412000000000000     
100   95050312695033440000000000001960000000001960002000000010410405300928445844306769900530000007247782   1020000200030000   333400010001204104000000281Myanmar Soft-Gate Tech Yangon        MMR11005300928445844300530000000000000000   10300001F05104100000000000412000000000000     
100   95050312498129060000000000002940000000002940002000000010410405300814144414743123550530000007247091   1020000200030000   333400010001204104000000281Myanmar Soft-Gate Tech Yangon        MMR11005300814144414740530000000000000000   10300001F05104100000000000617000000000000     
100   95050319753756490000000000030000000000030000002000000010410405301219114911587969320530000007248781   1030000200030000   333800010001203104000003327KBZPay                 Yangon        MMR11005301219114911580530000000000000000   10300001F05104100000000006300000000000000     
100   95050317942168830000000000002940000000002940002000000010410405301426155615112501290530000007249383   1020000200030000   333400010001204104000000281Myanmar Soft-Gate Tech Yangon        MMR11005301426155615110530000000000000000   10300001F05104100000000000617000000000000     
100   62911028202907560000000000016650000000016650002000000010410405300639042754683511700530872111303149   1030000500030000   555610112235104519000010487Ocean Super Center St  ohn           MMR11005300639042754680530000000000000000   10300001 00104100000000000999000000000000     
100   62911028202777790000000000015000000000015000002000000010410405301010434043544773800530000007248136   1030000200030000   333800010001203104000003327KBZPay                 Yangon        MMR11005301010434043540530000000000000000   10300001F05104100000000003150000000000000     
100   95030360829747230000000000000100000000000100002000000010410405300346087304603511700530160881933372   1040001400030000   581410000418025814100001974Shwe Kan Kaw Shwe Kan  aw Corner of  MMR11005300346087304600530000000000000000   10300001 00104100000000000003000000000000     
100   95030367537085740000000000000980000000000980002000000010410405301003173317444773800530000007248094   1020000200030000   333400010001204104000000281Myanmar Soft-Gate Tech Yangon        MMR11005301003173317440530000000000000000   10300001F05104100000000000206000000000000     
100   95050324411430900000000000036000000000036000002000000010410405270905220220544597870527214709022054   1030000600030000   554100002085315799420000471DENKO BAHAN            YANGON        MMR11005270905220220540527000000000000000   10300001 00104100000000004320000000000000     
100   62911028202133940000000000035600000000035600002000000010410405301354372798324773800530397232027149   1030000500030000   555610112988104519000011143Market Place by City M rt Sule       MMR11005301354372798320530000000000000000   10300001 00104100000000002136000000000000     
100   95050310902464360000000000002940000000002940002000000010410405301301503150733898480530000007248974   1020000200030000   333400010001204104000000281Myanmar Soft-Gate Tech Yangon        MMR11005301301503150730530000000000000000   10300001F05104100000000000617000000000000     
100   62911028202023630000000000080000000000080000002000000010410405270105270219202731710527214701021920   1030000600030000   554100002085315799420000471DENKO BAHAN            YANGON        MMR11005270105270219200527000000000000000   10300001 00104100000000002400000000000000     
100   95050312695033440000000000000980000000000980002000000010410405301458152815372416190530000007249480   1020000200030000   333400010001204104000000281Myanmar Soft-Gate Tech Yangon        MMR11005301458152815370530000000000000000   10300001F05104100000000000206000000000000     
100   62911028202077430000000000000980000000000980002000000010410405300510504050713511700530000007245383   1020000200030000   333400010001204104000000281Myanmar Soft-Gate Tech Yangon        MMR11005300510504050710530000000000000000   10300001F05104100000000000206000000000000     
100   62911028202116120000000000032781000000032781002000000010410405281114420008633511700528214817000863   1030000500030000   531120155712000045311201557GAMONE PWINT           PTN           MMR11005281114420008630528000000000000000   10300001 00104100000000001967000000000000     
100   62911028202909050000000000029500000000029500002000000010410405271008370018723511700527214710001872   1030000600030000   597700001901315799420001271NATURE REPUBLIC HLD    KAMARYUT.     MMR11005271008370018720527000000000000000   10300001 00104100000000001770000000000000     
100   62911028202448030000000000011781000000011781002000000010410405271121020050473511700527214711005047   1030000600030000   581200000715315799420000297IPPUDO JC              YANGON        MMR11005271121020050470527000000000000000   10300001 00104100000000001202000000000000     
100   62911028202610960000000000085000000000085000002000000010410405270425000107913511700527214704010791   1030000600030000   554100001237315799420000691DENKO AUNG PAN         KALAW.        MMR11005270425000107910527000000000000000   10300001 00104100000000002550000000000000     
100   62443100303702210000000000111000000000111000002000000010410405271058100130675349950527214710013067   1030000600030000   554100002328315799420001235DENKO NAY PYI TAW 2    NAYPYITAW     MMR11005271058100130670527000000000000000   10300001 00104100000000013320000000000000     
100   95050321232876860000000000117000000000117000002000000010410405271131440130691158370527214711013069   1030000600030000   554100002328315799420001235DENKO NAY PYI TAW 2    NAYPYITAW     MMR11005271131440130690527000000000000000   10300001 00104100000000014040000000000000     
100   62911028202752030000000000130318000000130318002000000010410405270622210124663511700527214706012466   1030000600030000   554100001224315799420000677DENKO LAL WAY          LAL WAY       MMR11005270622210124660527000000000000000   10300001 00104100000000003910000000000000     
100   95030317922148660000000000052000000000052000002000000010410405271002510220763511700527214710022076   1030000600030000   554100002085315799420000471DENKO BAHAN            YANGON        MMR11005271002510220760527000000000000000   10300001 00104100000000001560000000000000     
100   95050319161596230000000000000980000000000980002000000010410405300013314331973596290530000007243459   1020000200030000   333400010001204104000000281Myanmar Soft-Gate Tech Yangon        MMR11005300013314331970530000000000000000   10300001F05104100000000000206000000000000     
100   95050313923133060000000000050000000000050000002000000010410405301411424142477458740530000007249303   1030000200030000   333800010001203104000003327KBZPay                 Yangon        MMR11005301411424142470530000000000000000   10300001F05104100000000010500000000000000     
100   95050313145843230000000000200000000000200000002000000010410405300718364836831668840530000007246512   1030000200030000   333800010001203104000003327KBZPay                 Yangon        MMR11005300718364836830530000000000000000   10300001F05104100000000042000000000000000     
100   62443100372718280000000000077100000000077100002000000010410405300748252762513109760530690171448149   1030000300030000   555510124696104519000020166Makro Myanmar                        MMR11005300748252762510530000000000000000   10300001 00104100000000018504000000000000     
100   95050319156011610000000000000980000000000980002000000010410405291823015301940121130530000007243285   1020000200030000   333400010001204104000000281Myanmar Soft-Gate Tech Yangon        MMR11005291823015301940530000000000000000   10300001F05104100000000000206000000000000     
100   95050317741619680000000000005000000000005000002000000010410405301401523152885806260530000007249245   1030000200030000   333800010001203104000003327KBZPay                 Yangon        MMR11005301401523152880530000000000000000   10300001F05104100000000001050000000000000     
100   95050312498129060000000000004900000000004900002000000010410405301316054605738855940530000007249056   1020000200030000   333400010001204104000000281Myanmar Soft-Gate Tech Yangon        MMR11005301316054605730530000000000000000   10300001F05104100000000001029000000000000     
100   95050320360851930000000000002940000000002940002000000010410405300518074807939176990530000007245462   1020000200030000   333400010001204104000000281Myanmar Soft-Gate Tech Yangon        MMR11005300518074807930530000000000000000   10300001F05104100000000000617000000000000     
100   62911028202204490000000000020000000000020000002000000010410405270645100220193511700527214706022019   1030000600030000   554100002085315799420000471DENKO BAHAN            YANGON        MMR11005270645100220190527000000000000000   10300001 00104100000000000600000000000000     
100   95050321232876860000000000085000000000085000002000000010410405270252500380729691590527214702038072   1030000600030000   554100001865315799420001235DENKO NAY PYI TAW 2    NAYPYITAW     MMR11005270252500380720527000000000000000   10300001 00104100000000010200000000000000     
100   62911028202136750000000000032000000000032000002000000010410405271027070503453511700527214710050345   1030000600030000   554100001001315799420000498DENKO SHWE PYI THAR    YANGON        MMR11005271027070503450527000000000000000   10300001 00104100000000000960000000000000     
100   62911028202135350000000000053000000000053000002000000010410405291220360026833511700529214918002683   1030000500030000   598320001701000015172200017MAX ENERGY             PTN           MMR11005291220360026830529000000000000000   10300001 00104100000000001590000000000000     
100   95030361482647470000000000017356000000017356002000000010410405291217470001773511700529214918000177   1030000500030000   581220214401000085812202144CHILLI POT MALA XIANG  PTN           MMR11005291217470001770529000000000000000   10300001 00104100000000001770000000000000     
100   95050312940629360000000000007450000000007450002000000010410405290649300005939725590529000347483857   1030000300030000   591200000215000000000000112CB BANK                MEDICARE STOR MMR11005290649300005930529000000000000000   10300001F00104100000000001788000000000000     
100   62911028202490830000000000080000000000080000002000000010410405290048070032753511700529214907003275   1030000500030000   598320001204000015172200012MAX ENERGY             PTN           MMR11005290048070032750529000000000000000   10300001 00104100000000002400000000000000     
100   62443100306045460000000000014400000000014400002000000010410405291131360000027447490529000347520819   1030000300030000   701100001507000000000001058CB BANK                YKKO(MAYANGON MMR11005291131360000020529000000000000000   10300001F00104100000000006120000000000000     
100   95050317903887690000000000002940000000002940002000000010410405301327235723477118360530000007249114   1020000200030000   333400010001204104000000281Myanmar Soft-Gate Tech Yangon        MMR11005301327235723470530000000000000000   10300001F05104100000000000617000000000000     
100   95050312498129060000000000009800000000009800002000000010410405300225495549285418970530000007243765   1020000200030000   333400010001204104000000281Myanmar Soft-Gate Tech Yangon        MMR11005300225495549280530000000000000000   10300001F05104100000000002058000000000000     
100   95050314842866260000000000002250000000002250002000000010410405290558270010473285840529214912001047   1030000500030000   531120156001000045311201560GAMONE PWINT           PTN           MMR11005290558270010470529000000000000000   10300001 00104100000000000540000000000000     
100   95030364439875210000000000008300000000008300002000000010410405301015192778944773800530399531659149   1030000300030000   555610103755104519000003631G and G Convenience St re 72         MMR11005301015192778940530000000000000000   10300001 00104100000000000498000000000000     
100   95050316818236190000000000002940000000002940002000000010410405300613364336813050060530000007245913   1020000200030000   333400010001204104000000281Myanmar Soft-Gate Tech Yangon        MMR11005300613364336810530000000000000000   10300001F05104100000000000617000000000000     
100   95050312781844250000000000005000000000005000002000000010410405301501133113639111230530000007249489   1030000200030000   3334000100012031040000040102C2P (Myanmar) Co. Ltd Yangon        MMR11005301501133113630530000000000000000   10300001F05104100000000001050000000000000     
100   62911028202000450000000000004900000000004900002000000010410405300426565656653511700530000007244929   1020000200030000   333400010001204104000000281Myanmar Soft-Gate Tech Yangon        MMR11005300426565656650530000000000000000   10300001F05104100000000001029000000000000     
100   62443100379321630000000000026000000000026000002000000010410405300957032776001181120530079261656149   1030000500030000   555610112532104519000010487Ocean Super Center St  ohn           MMR11005300957032776000530000000000000000   10300001 00104100000000006500000000000000     
100   62443100346413950000000000040000000000040000002000000010410405291322550002456135390529214919000245   1030000500030000   598320198401000075983201984MOON SUN SOUTH DAGON   PTN           MMR11005291322550002450529000000000000000   10300001 00104100000000004800000000000000     
100   95030301100022270000000000018000000000018000002000000010410405291016450025173511700529214916002517   1030000500030000   598320002101000015172200021MAX ENERGY             PTN           MMR11005291016450025170529000000000000000   10300001 00104100000000000540000000000000     
100   95030301100103940000000000023500000000023500002000000010410405290844560001953511700529000347498973   1030000300030000   531100000604000000000000408CB BANK                CAPITAL HYPER MMR11005290844560001950529000000000000000   10300001F00104100000000001410000000000000     
100   62911028202467900000000000015750000000015750002000000010410405290137080002863511700529214908000286   1030000500030000   591220014301014405912200143SHWE OHH PHARMACY      PTN           MMR11005290137080002860529000000000000000   10300001 00104100000000000945000000000000     
100   95030308100042590000000000020000000000020000002000000010410405290753510026533511700529214914002653   1030000500030000   598320001701000015172200017MAX ENERGY             PTN           MMR11005290753510026530529000000000000000   10300001 00104100000000000600000000000000     
100   95030308100042590000000000060500000000060500002000000010410405290754260026543511700529214914002654   1030000500030000   598320001701000015172200017MAX ENERGY             PTN           MMR11005290754260026540529000000000000000   10300001 00104100000000001815000000000000     
100   62911028202204560000000000061080000000061080002000000010410405290204010011953511700529214908001195   1030000500030000   806220172406013008062201724GRAND HANTHA HOSPITAL  PTN           MMR11005290204010011950529000000000000000   10300001 00104100000000003665000000000000     
100   95050314842866260000000000048450000000048450002000000010410405290617390018631378070529214912001863   1030000500030000   531120156002000045311201560GAMONE PWINT           PTN           MMR11005290617390018630529000000000000000   10300001 00104100000000011628000000000000     
100   95050317903887690000000000002940000000002940002000000010410405300320465046101043400530000007244179   1020000200030000   333400010001204104000000281Myanmar Soft-Gate Tech Yangon        MMR11005300320465046100530000000000000000   10300001F05104100000000000617000000000000     
100   62911028202725640000000000057000000000057000002000000010410405300736472761094773800530540061425149   1030000300030000   555510121075104519000017824Rangoon Espa                         MMR11005300736472761090530000000000000000   10300001 00104100000000003420000000000000     
100   62443100355445150000000000058350000000058350002000000010410405300754332763065152070530742231448149   1030000300030000   555510124686104519000020166Makro Myanmar                        MMR11005300754332763060530000000000000000   10300001 00104100000000014004000000000000     
100   62443100323428970000000000057000000000057000002000000010410405291022440030757532590529214916003075   1030000500030000   598320001104000015172200011MAX ENERGY             PTN           MMR11005291022440030750529000000000000000   10300001 00104100000000006840000000000000     
100   62911028202451150000000000070400000000070400002000000010410405300712422758084773800530197421324149   1030000500030000   555610122580104519000018896City Mart Hlaing Thar  ar            MMR11005300712422758080530000000000000000   10300001 00104100000000004224000000000000     
100   62911028202792960000000000067000000000067000002000000010410405290923020030283511700529214915003028   1030000500030000   598320001202000015172200012MAX ENERGY             PTN           MMR11005290923020030280529000000000000000   10300001 00104100000000002010000000000000     
100   95050319207947610000000000007400000000007400002000000010410405290950490015484307000529000347507474   1030000300030000   541100000217000000000000113CB BANK                ONESTOP KITCH MMR11005290950490015480529000000000000000   10300001F00104100000000001850000000000000     
100   62911028202793040000000000073000000000073000002000000010410405291152460023163511700529214918002316   1030000500030000   598320001604000015172200016MAX ENERGY             PTN           MMR11005291152460023160529000000000000000   10300001 00104100000000002190000000000000     
100   95030305100040620000000000053000000000053000002000000010410405290233340033063511700529214909003306   1030000500030000   598320001302000015172200013MAX ENERGY             PTN           MMR11005290233340033060529000000000000000   10300001 00104100000000001590000000000000     
100   95050326198165350000000000070000000000070000002000000010410405290635580001786420620529214913000178   1030000500030000   806220022401000018062200224DR.Z                   PTN           MMR11005290635580001780529000000000000000   10300001 00104100000000016800000000000000     
100   95050324947866880000000000023900000000023900002000000010410405290910270000763966620529214915000076   1030000500030000   573220111601000015732201116JBL                    PTN           MMR11005290910270000760529000000000000000   10300001 00104100000000005736000000000000     
100   95030346130941600000000000038910000000038910002000000010410405290755390058503511700529000347492461   1030000300030000   806200000197000000000000097CB BANK                AUNG YADANA H MMR11005290755390058500529000000000000000   10300001F00104100000000002335000000000000     
100   62911028202400660000000000088400000000088400002000000010410405290922530035903511700529214915003590   1030000500030000   531120156007000045311201560GAMONE PWINT           PTN           MMR11005290922530035900529000000000000000   10300001 00104100000000005304000000000000     
100   62911028202448030000000000100000000000100000002000000010410405290609520032033511700529214912003203   1030000500030000   598320001203000015172200012MAX ENERGY             PTN           MMR11005290609520032030529000000000000000   10300001 00104100000000003000000000000000     
100   62911028202197630000000000009000000000009000002000000010410405290642000044523511700529214913004452   1030000500030000   598320001902000015172200019MAX ENERGY             PTN           MMR11005290642000044520529000000000000000   10300001 00104100000000000270000000000000     
100   95030301100121270000000000040000000000040000002000000010410405291023479556853511700529214917955685   1040001600030000   598320000918000000010000665MMTM - Thingangyun     Ygn           MMR11005291023479556850529000000000000000   10300001F00104100000000001200000000000000     
100   95050312240830690000000000002940000000002940002000000010410405300838140814594507950530000007247342   1020000200030000   333400010001204104000000281Myanmar Soft-Gate Tech Yangon        MMR11005300838140814590530000000000000000   10300001F05104100000000000617000000000000     
100   95050314557307430000000000001960000000001960002000000010410405301214064406240933900530000007248758   1020000200030000   333400010001204104000000281Myanmar Soft-Gate Tech Yangon        MMR11005301214064406240530000000000000000   10300001F05104100000000000412000000000000     
100   95030306100096490000000000001960000000001960002000000010410405300427585758723511700530000007244949   1020000200030000   333400010001204104000000281Myanmar Soft-Gate Tech Yangon        MMR11005300427585758720530000000000000000   10300001F05104100000000000412000000000000     
100   95050314996291580000000000001960000000001960002000000010410405300626365636036000670530000007246017   1020000200030000   333400010001204104000000281Myanmar Soft-Gate Tech Yangon        MMR11005300626365636030530000000000000000   10300001F05104100000000000412000000000000     
100   95050311382087030000000000000980000000000980002000000010410405300901383138848834070530000007247555   1020000200030000   333400010001204104000000281Myanmar Soft-Gate Tech Yangon        MMR11005300901383138840530000000000000000   10300001F05104100000000000206000000000000     
