100   62911028202355870000000000400000000000400000002000000010410405310544291429324773800531000007252140   1040001600030000   333800010001220104000004507A +                    Yangon        MMR11005310544291429320531000000000000000   10300001F05104100000000084000000000000000     
100   95050324411430900000000000020000000000020000002000000010410405310859162916951460630531000007253932   1030000300030000   333300010001206104000002147DICA Company Limited   Yangon        MMR11005310859162916950531000000000000000   10300001F05104100000000010000000000000000     
100   62911028202355870000000000700000000000700000002000000010410405310543281328024773800531000007252131   1040001600030000   333800010001220104000004507A +                    Yangon        MMR11005310543281328020531000000000000000   10300001F05104100000000147000000000000000     
100   95050310332595380000000000000980000000000980002000000010410405311050262026887027550531000007254861   1020000200030000   333400010001204104000000281Myanmar Soft-Gate Tech Yangon        MMR11005311050262026880531000000000000000   10300001F05104100000000000206000000000000     
100   95050319709462380000000000001000000000001000002000000010410405311404403440660963840531000007255976   1030000200030000   3338000100012031040000040022C2P (Myanmar) Co. Ltd Yangon        MMR11005311404403440660531000000000000000   10300001F05104100000000000210000000000000     
100   95050329213164970000000000002940000000002940002000000010410405310513104310201537650531000007251893   1020000200030000   333400010001204104000000281Myanmar Soft-Gate Tech Yangon        MMR11005310513104310200531000000000000000   10300001F05104100000000000617000000000000     
100   95050323233042810000000000000980000000000980002000000010410405310312304230395814330531000007250708   1020000200030000   333400010001204104000000281Myanmar Soft-Gate Tech Yangon        MMR11005310312304230390531000000000000000   10300001F05104100000000000206000000000000     
100   95050318601641810000000000000980000000000980002000000010410405311044231423108765130531000007254812   1020000200030000   333400010001204104000000281Myanmar Soft-Gate Tech Yangon        MMR11005311044231423100531000000000000000   10300001F05104100000000000206000000000000     
100   62911028202000450000000000001960000000001960002000000010410405310356152615194773800531000007251178   1020000200030000   333400010001204104000000281Myanmar Soft-Gate Tech Yangon        MMR11005310356152615190531000000000000000   10300001F05104100000000000412000000000000     
100   62911028202793040000000000003000000000003000002000000010410405311409063906054773800531000007255999   1030000200030000   3334000100012031040000040102C2P (Myanmar) Co. Ltd Yangon        MMR11005311409063906050531000000000000000   10300001F05104100000000000630000000000000     
100   95050319753756490000000000050000000000050000002000000010410405311427225722139226260531000007256068   1030000200030000   333800010001203104000003327KBZPay                 Yangon        MMR11005311427225722130531000000000000000   10300001F05104100000000010500000000000000     
100   62911028202124790000000000035700000000035700002000000010410405311326420074064773800531000747765775   1030000200030000   541188001064000008000000314KBZ BANK               MARKETPLACE - MMR11005311326420074060531000000000000000   10300001 00104100000000002142000000000000     
100   95050310427855490000000000003920000000003920002000000010410405311331220122370623460531000007255792   1020000200030000   333400010001204104000000281Myanmar Soft-Gate Tech Yangon        MMR11005311331220122370531000000000000000   10300001F05104100000000000823000000000000     
100   95050314307746340000000000001960000000001960002000000010410405310441161116227005680531000007251574   1020000200030000   333400010001204104000000281Myanmar Soft-Gate Tech Yangon        MMR11005310441161116220531000000000000000   10300001F05104100000000000412000000000000     
100   95050323233042810000000000000980000000000980002000000010410405311504253425441759430531000007256251   1020000200030000   333400010001204104000000281Myanmar Soft-Gate Tech Yangon        MMR11005311504253425440531000000000000000   10300001F05104100000000000206000000000000     
100   95050315122972560000000000000980000000000980002000000010410405310413334333791147830531000007251346   1020000200030000   333400010001204104000000281Myanmar Soft-Gate Tech Yangon        MMR11005310413334333790531000000000000000   10300001F05104100000000000206000000000000     
100   62911028202777790000000000010000000000010000002000000010410405310806373637414773800531000007253404   1030000200030000   333800010001203104000003327KBZPay                 Yangon        MMR11005310806373637410531000000000000000   10300001F05104100000000002100000000000000     
100   95050315396509660000000000005000000000005000002000000010410405311459442944510106940531000007256232   1030000200030000   333800010001203104000003327KBZPay                 Yangon        MMR11005311459442944510531000000000000000   10300001F05104100000000001050000000000000     
100   95050315396509660000000000005000000000005000002000000010410405311209093909502956710531000007255344   1030000200030000   333800010001203104000003327KBZPay                 Yangon        MMR11005311209093909500531000000000000000   10300001F05104100000000001050000000000000     
100   62911028202077010000000000000980000000000980002000000010410405311516484648024773800531000007256293   1020000200030000   333400010001204104000000281Myanmar Soft-Gate Tech Yangon        MMR11005311516484648020531000000000000000   10300001F05104100000000000206000000000000     
100   95050311712422700000000000005000000000005000002000000010410405311219544954276176580531000007255394   1030000200030000   333800010001203104000003327KBZPay                 Yangon        MMR11005311219544954270531000000000000000   10300001F05104100000000001050000000000000     
100   62443101023815100000000000030000000000030000002000000010410405310701440766531836670531215114076653   1040001600030000   598320000658000000010000527Shwe Taung Energy (YGN Yangon        MMR11005310701440766530531000000000000000   10300001F00104100000000003600000000000000     
100   62911028202750390000000000002940000000002940002000000010410405310406553655574773800531000007251290   1020000200030000   333400010001204104000000281Myanmar Soft-Gate Tech Yangon        MMR11005310406553655570531000000000000000   10300001F05104100000000000617000000000000     
100   95050314570621780000000000000980000000000980002000000010410405311313584358632361030531000007255682   1020000200030000   333400010001204104000000281Myanmar Soft-Gate Tech Yangon        MMR11005311313584358630531000000000000000   10300001F05104100000000000206000000000000     
100   62911028202349600000000000006300000000006300002000000010410405311026475647884773800531000007254682   1030000200030000   3338000100012031040000040022C2P (Myanmar) Co. Ltd Yangon        MMR11005311026475647880531000000000000000   10300001F05104100000000001323000000000000     
100   62911028202595200000000000077902000000077902002000000010410405310445430691144773800531215111069114   1040001600030000   598320000658000000010000527Shwe Taung Energy (YGN Yangon        MMR11005310445430691140531000000000000000   10300001F00104100000000002337000000000000     
100   95030301100338180000000000100000000000100000002000000010410405310206423642174773800531000007250296   1030000200030000   333800010001203104000003327KBZPay                 Yangon        MMR11005310206423642170531000000000000000   10300001F05104100000000021000000000000000     
100   95050316785465380000000000000980000000000980002000000010410405311126225622481729710531000007255068   1020000200030000   333400010001204104000000281Myanmar Soft-Gate Tech Yangon        MMR11005311126225622480531000000000000000   10300001F05104100000000000206000000000000     
100   95050315396509660000000000010000000000010000002000000010410405311304483448744098620531000007255636   1030000200030000   333800010001203104000003327KBZPay                 Yangon        MMR11005311304483448740531000000000000000   10300001F05104100000000002100000000000000     
100   62911028202792960000000000007700000000007700002000000010410405311214312888874773800531689431836150   1030000500030000   555610110599104519000009166City Mart 47 Branch                  MMR11005311214312888870531000000000000000   10300001 00104100000000000462000000000000     
100   95050319528093960000000000001960000000001960002000000010410405311408543854192616320531000007255997   1020000200030000   333400010001204104000000281Myanmar Soft-Gate Tech Yangon        MMR11005311408543854190531000000000000000   10300001F05104100000000000412000000000000     
100   62911028202581340000000000002940000000002940002000000010410405310217164716324773800531000007250350   1020000200030000   333400010001204104000000281Myanmar Soft-Gate Tech Yangon        MMR11005310217164716320531000000000000000   10300001F05104100000000000617000000000000     
100   62911028202907560000000000021000000000021000002000000010410405300614490015023511700530215012001502   1030000500030000   569120104001008205691201040ESCORT ( CITY MALL-ST. PTN           MMR11005300614490015020530000000000000000   10300001 00104100000000001260000000000000     
100   95050312298324450000000000000980000000000980002000000010410405311128335833149992130531000007255105   1020000200030000   333400010001204104000000281Myanmar Soft-Gate Tech Yangon        MMR11005311128335833140531000000000000000   10300001F05104100000000000206000000000000     
100   95050316442084030000000000002940000000002940002000000010410405310815454545128737550531000007253479   1020000200030000   333400010001204104000000281Myanmar Soft-Gate Tech Yangon        MMR11005310815454545120531000000000000000   10300001F05104100000000000617000000000000     
100   95050316785465380000000000000980000000000980002000000010410405311220535053937829070531000007255407   1020000200030000   333400010001204104000000281Myanmar Soft-Gate Tech Yangon        MMR11005311220535053930531000000000000000   10300001F05104100000000000206000000000000     
100   62911028202581340000000000000980000000000980002000000010410405310220035003204773800531000007250365   1020000200030000   333400010001204104000000281Myanmar Soft-Gate Tech Yangon        MMR11005310220035003200531000000000000000   10300001F05104100000000000206000000000000     
100   95030390626214130000000000051200000000051200002000000010410405310629095909704773800531000007252506   1030000200030000   333800010001203104000003327KBZPay                 Yangon        MMR11005310629095909700531000000000000000   10300001F05104100000000010752000000000000     
100   95050316818236190000000000001960000000001960002000000010410405311207423742027914160531000007255328   1020000200030000   333400010001204104000000281Myanmar Soft-Gate Tech Yangon        MMR11005311207423742020531000000000000000   10300001F05104100000000000412000000000000     
100   62911028202777790000000000007000000000007000002000000010410405310310034003244773800531000007250684   1030000200030000   333800010001203104000003327KBZPay                 Yangon        MMR11005310310034003240531000000000000000   10300001F05104100000000001470000000000000     
100   95030301100126550000000000041000000000041000002000000010410405281055120788123511700528214810078812   1030000600030000   554100000955315799420000477DENKO INSEIN           YANGON        MMR11005281055120788120528000000000000000   10300001 00104100000000001230000000000000     
100   95050312224678430000000000009800000000009800002000000010410405310212084208655855700531000007250319   1020000200030000   333400010001204104000000281Myanmar Soft-Gate Tech Yangon        MMR11005310212084208650531000000000000000   10300001F05104100000000002058000000000000     
100   62443100313529540000000000002940000000002940002000000010410405310321165116677637010531000007250819   1020000200030000   333400010001204104000000281Myanmar Soft-Gate Tech Yangon        MMR11005310321165116670531000000000000000   10300001F05104100000000000617000000000000     
100   62911028202355870000000001000000000001000000002000000010410405310544431443944773800531000007252139   1040001600030000   333800010001220104000004507A +                    Yangon        MMR11005310544431443940531000000000000000   10300001F05104100000000210000000000000000     
100   62911028202610960000000000073000000000073000002000000010410405290752340168183511700529214907016818   1030000600030000   554100002320315799420000564DENKO PHYUU            PHYUU         MMR11005290752340168180529000000000000000   10300001 00104100000000002190000000000000     
100   95050314931885730000000000001960000000001960002000000010410405311003443344474644850531000007254498   1020000200030000   333400010001204104000000281Myanmar Soft-Gate Tech Yangon        MMR11005311003443344470531000000000000000   10300001F05104100000000000412000000000000     
100   95030367537085740000000000000980000000000980002000000010410405311017234723724773800531000007254627   1020000200030000   333400010001204104000000281Myanmar Soft-Gate Tech Yangon        MMR11005311017234723720531000000000000000   10300001F05104100000000000206000000000000     
100   95050317728825080000000000004900000000004900002000000010410405310617234723930445190531000007252387   1020000200030000   333400010001204104000000281Myanmar Soft-Gate Tech Yangon        MMR11005310617234723930531000000000000000   10300001F05104100000000001029000000000000     
100   95050318214455130000000000002940000000002940002000000010410405310115224522757848570531000007250125   1020000200030000   333400010001204104000000281Myanmar Soft-Gate Tech Yangon        MMR11005310115224522750531000000000000000   10300001F05104100000000000617000000000000     
100   95050310427855490000000000002940000000002940002000000010410405310214484448143607540531000007250330   1020000200030000   333400010001204104000000281Myanmar Soft-Gate Tech Yangon        MMR11005310214484448140531000000000000000   10300001F05104100000000000617000000000000     
100   62443100306045460000000000080600000000080600002000000010410405291733500029193972330529000747682835   1030000200030000   541188001134000008000000296KBZ BANK               CITY MART - J MMR11005291733500029190529000000000000000   10300001 00104100000000020150000000000000     
100   95050311382087030000000000003920000000003920002000000010410405311304173417772446130531000007255632   1020000200030000   333400010001204104000000281Myanmar Soft-Gate Tech Yangon        MMR11005311304173417770531000000000000000   10300001F05104100000000000823000000000000     
100   62911028202917880000000000027350000000027350002000000010410405300653010020364773800530215013002036   1030000500030000   531120156008000045311201560GAMONE PWINT           PTN           MMR11005300653010020360530000000000000000   10300001 00104100000000001641000000000000     
100   62911028202091860000000000000833000000000833002000000010410405310302363236424773800531000007250608   1020000200030000   333400010001204104000000281Myanmar Soft-Gate Tech Yangon        MMR11005310302363236420531000000000000000   10300001F05104100000000000175000000000000     
100   95050310332595380000000000000980000000000980002000000010410405310219274927543777740531000007250361   1020000200030000   333400010001204104000000281Myanmar Soft-Gate Tech Yangon        MMR11005310219274927540531000000000000000   10300001F05104100000000000206000000000000     
100   62911028202161240000000000085600000000085600002000000010410405310337216086344773800531072134344716   1040001400030000   546210000338025462100000389PSD-STK Bakery Supply  ull No(98) My MMR11005310337216086340531000000000000000   10300001 00104100000000005136000000000000     
100   62911028202057620000000000050000000000050000002000000010410405311520295029934773800531000007256309   1030000200030000   333800010001203104000003327KBZPay                 Yangon        MMR11005311520295029930531000000000000000   10300001F05104100000000010500000000000000     
100   62911028202440680000000000012000000000012000002000000010410405290441550001503511700529214911000150   1030000500030000   481220087901003104812200879C4E COMPUTER & MOBILE  PTN           MMR11005290441550001500529000000000000000   10300001 00104100000000000720000000000000     
100   62443100306045460000000000018081000000018081002000000010410405290712540000233626230529214907000023   1030000600030000   581200002448315799420001708MR CHEF TERMINAL -M    YANGON        MMR11005290712540000230529000000000000000   10300001 00104100000000007685000000000000     
100   62911028202610960000000000073000000000073000002000000010410405290338010096733511700529214903009673   1030000600030000   554100001213315799420000665DENKO KWYAL TUT SONE   MANDALAY      MMR11005290338010096730529000000000000000   10300001 00104100000000002190000000000000     
100   62911028202162640000000000020000000000020000002000000010410405290816020017913511700529214908001791   1030000600030000   554100002404315799420000480DENKO N.DAGON - 3      YANGON        MMR11005290816020017910529000000000000000   10300001 00104100000000000600000000000000     
100   95030301100126550000000000030000000000030000002000000010410405301128420269914773800530215018026991   1040001600030000   598320001065000000010000785Yangon Petrol (Thudama Ygn           MMR11005301128420269910530000000000000000   10300001F00104100000000000900000000000000     
100   95030309199843360000000000036990000000036990002000000010410405300946530001364773800530215016000136   1030000500030000   569120090501000015691200905GIORDANO 35X36         PTN           MMR11005300946530001360530000000000000000   10300001 00104100000000002219000000000000     
100   62911028202286990000000000400000000000400000002000000010410405300626020001553511700530215012000155   1030000500030000   481220052701000014812200527WIN MOBILE WORLD       PTN           MMR11005300626020001550530000000000000000   10300001 00104100000000024000000000000000     
100   95030301100086460000000000030000000000030000002000000010410405280139540888193511700528214801088819   1030000600030000   554100000946315799420000471DENKO BAHAN            YANGON        MMR11005280139540888190528000000000000000   10300001 00104100000000000900000000000000     
100   95050324154190880000000000018000000000018000002000000010410405281036540889144490980528214810088914   1030000600030000   554100000946315799420000471DENKO BAHAN            YANGON        MMR11005281036540889140528000000000000000   10300001 00104100000000002160000000000000     
100   62911028202231380000000000008600000000008600002000000010410405311519030102954773800531000747773131   1030000200030000   541188001088000008000000294KBZ BANK               CITY MART - J MMR11005311519030102950531000000000000000   10300001 00104100000000000516000000000000     
100   62911028202202580000000000003900000000003900002000000010410405311448270119124773800531000747771635   1030000200030000   541188001081000008000000294KBZ BANK               CITY MART - J MMR11005311448270119120531000000000000000   10300001 00104100000000000234000000000000     
100   62911028202161240000000000058588000000058588002000000010410405311037340116474773800531000747752974   1030000200030000   541188001002000008000000008KBZ BANK               MARKETPLACE - MMR11005311037340116470531000000000000000   10300001 00104100000000003515000000000000     
100   62911028202150190000000000026355000000026355002000000010410405311447110365414773800531000747771577   1030000200030000   541188001025000008000000298KBZ BANK               CITY MART - M MMR11005311447110365410531000000000000000   10300001 00104100000000001581000000000000     
100   95050315743141220000000000004900000000004900002000000010410405310836120612207098850531000007253703   1020000200030000   333400010001204104000000281Myanmar Soft-Gate Tech Yangon        MMR11005310836120612200531000000000000000   10300001F05104100000000001029000000000000     
100   95030327835334700000000000022809000000022809002000000010410405311709150098544773800531000747778141   1030000200030000   541188001245000008000000323KBZ BANK               CITY MART - I MMR11005311709150098540531000000000000000   10300001 00104100000000001369000000000000     
100   62911028202449100000000000028700000000028700002000000010410405301142350001334773800530215018000133   1030000500030000   581220204101000085812202041MIN LAN                PTN           MMR11005301142350001330530000000000000000   10300001 00104100000000002927000000000000     
100   62911028202286990000000000399000000000399000002000000010410405300626580001563511700530215012000156   1030000500030000   481220052701000014812200527WIN MOBILE WORLD       PTN           MMR11005300626580001560530000000000000000   10300001 00104100000000023940000000000000     
100   62911028202527800000000000050000000000050000002000000010410405301224160029814773800530215018002981   1030000500030000   598320001201000015172200012MAX ENERGY             PTN           MMR11005301224160029810530000000000000000   10300001 00104100000000001500000000000000     
100   62443100346413950000000000018942000000018942002000000010410405300109560034766645970530215007003476   1030000500030000   598320001003000015172200010MAX ENERGY             PTN           MMR11005300109560034760530000000000000000   10300001 00104100000000002273000000000000     
100   95050329252108030000000000020000000000020000002000000010410405300907420034769004260530215015003476   1030000500030000   598320001302000015172200013MAX ENERGY             PTN           MMR11005300907420034760530000000000000000   10300001 00104100000000002400000000000000     
100   95030308100042590000000003746000000003746000002000000010410405301101150001644773800530215017000164   1030000500030000   503920054001005505039200540NAY LA CONSTRUCTION MA PTN           MMR11005301101150001640530000000000000000   10300001 00104100000000224760000000000000     
100   95030305700676370000000000050000000000050000002000000010410405301036210006794773800530215017000679   1030000500030000   598320115101005405983201151PT POWER (HLEGU)       PTN           MMR11005301036210006790530000000000000000   10300001 00104100000000001500000000000000     
100   95050324250133010000000000020000000000020000002000000010410405300113280031324993490530215007003132   1030000500030000   598320001102000015172200011MAX ENERGY             PTN           MMR11005300113280031320530000000000000000   10300001 00104100000000002400000000000000     
100   95050314355878900000000000050000000000050000002000000010410405310333110311133651270531000007250927   1030000200030000   333800010001203104000003327KBZPay                 Yangon        MMR11005310333110311130531000000000000000   10300001F05104100000000010500000000000000     
100   62911028202777790000000000020450000000020450002000000010410405311134000400694773800531000007255135   1030000200030000   333800010001203104000003327KBZPay                 Yangon        MMR11005311134000400690531000000000000000   10300001F05104100000000004295000000000000     
100   62443101053241940000000000069930000000069930002000000010410405311331260172793574250531000747766081   1030000200030000   541188001304000008000000325KBZ BANK               CITY MART - A MMR11005311331260172790531000000000000000   10300001 00104100000000017483000000000000     
100   62911028202790310000000000102068000000102068002000000010410405311044260175564773800531000747753335   1030000200030000   541188001305000008000000325KBZ BANK               CITY MART - A MMR11005311044260175560531000000000000000   10300001 00104100000000006124000000000000     
100   95030302100062270000000000023100000000023100002000000010410405310813460089254773800531000747747263   1030000200030000   541188001022000008000000298KBZ BANK               CITY MART - M MMR11005310813460089250531000000000000000   10300001 00104100000000001386000000000000     
100   62911028202471600000000000022750000000022750002000000010410405311014131401894773800531328441613150   1030000900030000   591219000601190110000000441Shwe Ohh Pharmacy St-3 YANGON        MMR11005311014131401890531000000000000000   10300001F00104100000000001365000000000000     
100   62911028202355870000000000300000000000300000002000000010410405310542141214784773800531000007252126   1040001600030000   333800010001220104000004507A +                    Yangon        MMR11005310542141214780531000000000000000   10300001F05104100000000063000000000000000     
100   62443100306882420000000000020000000000020000002000000010410405311143341334649907040531000007255188   1030000200030000   333800010001203104000003327KBZPay                 Yangon        MMR11005311143341334640531000000000000000   10300001F05104100000000004200000000000000     
100   62443100379321630000000000065000000000065000002000000010410405301233520031411189190530215019003141   1030000500030000   598320001202000015172200012MAX ENERGY             PTN           MMR11005301233520031410530000000000000000   10300001 00104100000000007800000000000000     
100   62911028202451150000000000092006000000092006002000000010410405300553490000423511700530215012000042   1030000500030000   598320198002000075983201980MOON SUN EXCELLENT APE PTN           MMR11005300553490000420530000000000000000   10300001 00104100000000002760000000000000     
100   62443100358839880000000000065500000000065500002000000010410405301318380002805550970530215019000280   1030000500030000   541120045801009205411200458126 STORE              PTN           MMR11005301318380002800530000000000000000   10300001 00104100000000016375000000000000     
100   95050327285327260000000000020800000000020800002000000010410405300730560008187221960530215007000818   1030000600030000   5499000023523157994200016371 STOP S M KAMARKYI    YANGON        MMR11005300730560008180530000000000000000   10300001 00104100000000008840000000000000     
100   95030310189526870000000000008100000000008100002000000010410405301057310000854773800530000347684906   1030000300030000   531100000789000000000000537CB BANK                CAPITAL SUPER MMR11005301057310000850530000000000000000   10300001F00104100000000000486000000000000     
100   95050322222444890000000000009850000000009850002000000010410405301316460008840508420530000347702242   1030000300030000   531100000752000000000000408CB BANK                CAPITAL HYPER MMR11005301316460008840530000000000000000   10300001F00104100000000002364000000000000     
100   62443100309698080000000000029750000000029750002000000010410405300838150011540352020530215015001154   1030000500030000   581220021101000015812200211SHWE LAR HOT POT       PTN           MMR11005300838150011540530000000000000000   10300001 00104100000000012644000000000000     
100   62443100369813440000000000020000000000020000002000000010410405300213260034990291320530215008003499   1030000500030000   598320001301000015172200013MAX ENERGY             PTN           MMR11005300213260034990530000000000000000   10300001 00104100000000002400000000000000     
100   95030364439875210000000000009668000000009668002000000010410405310510131310914773800531758401113150   1030000900030000   541119001186190110000000942City Mart HDC C 1      YANGONUT      MMR11005310510131310910531000000000000000   10300001F00104100000000000580000000000000     
100   95030301100128610000000000300000000000300000002000000010410405311239390939154773800531000007255514   1030000200030000   333800010001203104000003327KBZPay                 Yangon        MMR11005311239390939150531000000000000000   10300001F05104100000000063000000000000000     
100   95030301100128610000000000300000000000300000002000000010410405311238260826294773800531000007255500   1030000200030000   333800010001203104000003327KBZPay                 Yangon        MMR11005311238260826290531000000000000000   10300001F05104100000000063000000000000000     
100   95050316717221100000000000000980000000000980002000000010410405310738470847853695000531000007253132   1020000200030000   333400010001204104000000281Myanmar Soft-Gate Tech Yangon        MMR11005310738470847850531000000000000000   10300001F05104100000000000206000000000000     
100   95030301100128610000000000300000000000300000002000000010410405311243081308654773800531000007255523   1030000200030000   333800010001203104000003327KBZPay                 Yangon        MMR11005311243081308650531000000000000000   10300001F05104100000000063000000000000000     
100   62911028202355870000000000300000000000300000002000000010410405310543401340494773800531000007252135   1040001600030000   333800010001220104000004507A +                    Yangon        MMR11005310543401340490531000000000000000   10300001F05104100000000063000000000000000     
100   95050328351497860000000000100000000000100000002000000010410405311338450845007318490531000007255834   1030000500030000   333800010001201104000003863AYA Pay                Yangon        MMR11005311338450845000531000000000000000   10300001F05104100000000021000000000000000     
100   95050319528093960000000000000980000000000980002000000010410405311239550955829736840531000007255518   1020000200030000   333400010001204104000000281Myanmar Soft-Gate Tech Yangon        MMR11005311239550955820531000000000000000   10300001F05104100000000000206000000000000     
100   62911028202703370000000000050000000000050000002000000010410405300221120045193511700530215008004519   1030000500030000   598320001902000015172200019MAX ENERGY             PTN           MMR11005300221120045190530000000000000000   10300001 00104100000000001500000000000000     
100   95050324826664210000000000046000000000046000002000000010410405300058470035813255910530215007003581   1030000500030000   598320001403000015172200014MAX ENERGY             PTN           MMR11005300058470035810530000000000000000   10300001 00104100000000005520000000000000     
100   95050326228858240000000000090000000000090000002000000010410405300525270383817936200530215005038381   1030000600030000   554100001865315799420001235DENKO NAY PYI TAW 2    NAYPYITAW     MMR11005300525270383810530000000000000000   10300001 00104100000000010800000000000000     
100   62911028202761360000000000050000000000050000002000000010410405300839340076534773800530215008007653   1030000600030000   554100002322315799420000497DENKO KONE TA LA PAUNG YANGON        MMR11005300839340076530530000000000000000   10300001 00104100000000001500000000000000     
100   95050324850150480000000000050000000000050000002000000010410405301023330288619267630530215010028861   1030000600030000   554100001116315799420000574DENKO HLAE KUU         HLAE KUU      MMR11005301023330288610530000000000000000   10300001 00104100000000006000000000000000     
100   95050316355723530000000000015200000000015200002000000010410405300820120052834364340530000347663978   1030000300030000   541100000444000000000000319CB BANK                ONESTOP KITCH MMR11005300820120052830530000000000000000   10300001F00104100000000003800000000000000     
100   95050312173216740000000000054150000000054150002000000010410405300905570236305869490530000347670126   1030000300030000   531100000794000000000000540CB BANK                CAPITAL SUPER MMR11005300905570236300530000000000000000   10300001F00104100000000012996000000000000     
100   62443100333488440000000000025000000000025000002000000010410405300259120035110617920530215009003511   1030000500030000   598320001303000015172200013MAX ENERGY             PTN           MMR11005300259120035110530000000000000000   10300001 00104100000000003000000000000000     
100   62911028202793790000000000001000000000001000002000000010410405310043381338284773800531000007250056   1030000200030000   3334000100012031040000040102C2P (Myanmar) Co. Ltd Yangon        MMR11005310043381338280531000000000000000   10300001F05104100000000000210000000000000     
100   95050325139996190000000000003300000000003300002000000010410405310339510951505559050531000007250964   1030000200030000   333300010001203104000003632Myanmar Tradenet Test  Yangon        MMR11005310339510951500531000000000000000   10300001F05104100000000010000000000000000     
100   62911028202308280000000000014385000000014385002000000010410405310940510843004773800531215116084300   1040001600030000   581420001161000000010000871Kin Sakura (Bo Aung Ky ygn           MMR11005310940510843000531000000000000000   10300001F00104100000000000432000000000000     
100   62911028202472440000000000042000000000042000002000000010410405310656090763734773800531215113076373   1040001600030000   598320001170000000010000527Shwe Taung Energy (YGN Yangon        MMR11005310656090763730531000000000000000   10300001F00104100000000001260000000000000     
100   62911028202520610000000000008500000000008500002000000010410405310659290765464773800531215113076546   1040001600030000   591220001200000000010000908Shwe Ohh Pharmacy (Thu Ygn           MMR11005310659290765460531000000000000000   10300001F00104100000000000510000000000000     
100   95050328351497860000000000077000000000077000002000000010410405311336480648255666000531000007255823   1030000500030000   333800010001201104000003863AYA Pay                Yangon        MMR11005311336480648250531000000000000000   10300001F05104100000000016170000000000000     
100   62911028202248050000000000036000000000036000002000000010410405310239530639914773800531215109063991   1040001600030000   598320000660000000010000529Shwe Taung Energy (NPT Naypyitaw     MMR11005310239530639910531000000000000000   10300001F00104100000000001080000000000000     
100   62911028202684060000000000011900000000011900002000000010410405311131440931244773800531215118093124   1040001600030000   591220000290000000010000278Shwe Ohh Pharmacy (8 M Yangon        MMR11005311131440931240531000000000000000   10300001F00104100000000000714000000000000     
100   62911028202503210000000000051000000000051000002000000010410405300119560036543511700530215007003654   1030000500030000   598320001404000015172200014MAX ENERGY             PTN           MMR11005300119560036540530000000000000000   10300001 00104100000000001530000000000000     
100   62911028202260400000000000077111000000077111002000000010410405281142030016283511700528214811001628   1030000600030000   581200001817315799420000142WINELINKRESTAURANTBAR  YANGON        MMR11005281142030016280528000000000000000   10300001 00104100000000007865000000000000     
100   95050325925517520000000000003400000000003400002000000010410405310905492865615907500531170341554150   1030000500030000   555610110597104519000009166City Mart 47 Branch                  MMR11005310905492865610531000000000000000   10300001 00104100000000000850000000000000     
100   62911028202026450000000000001000000000001000002000000010410405311230531441394773800531916001953150   1030000900030000   541119001217190110000000945City Mart TM C 2       YANGONONE     MMR11005311230531441390531000000000000000   10300001F00104100000000000060000000000000     
100   95030367537085740000000000000980000000000980002000000010410405311130470047724773800531000007255119   1020000200030000   333400010001204104000000281Myanmar Soft-Gate Tech Yangon        MMR11005311130470047720531000000000000000   10300001F05104100000000000206000000000000     
100   62911028202792960000000000031000000000031000002000000010410405280658460048753511700528214806004875   1030000600030000   554100001225315799420000678DENKO THEINZEIK        THEINZEIK     MMR11005280658460048750528000000000000000   10300001 00104100000000000930000000000000     
100   95050320624349010000000000050000000000050000002000000010410405300429140025741965670530215011002574   1040001600030000   598320000915000000010000664MMTM - North Dagon     Ygn           MMR11005300429140025740530000000000000000   10300001F00104100000000006000000000000000     
100   62911028202169750000000000025850000000025850002000000010410405310513221311814773800531811431122150   1030000900030000   541119000881190110000000084Pro (1) Global (Pazund YANGONARTAUNG MMR11005310513221311810531000000000000000   10300001F00104100000000001551000000000000     
100   62443100379321630000000000025000000000025000002000000010410405310536091318890955770531245061209150   1030000900030000   541119000286190110000000177Pro1 Global (Insein)   YANGON        MMR11005310536091318890531000000000000000   10300001F00104100000000006250000000000000     
100   62911028202163630000000000017000000000017000002000000010410405310456260696194773800531215111069619   1040001600030000   598320000915000000010000664MMTM - North Dagon     Ygn           MMR11005310456260696190531000000000000000   10300001F00104100000000000510000000000000     
100   62911028202684060000000000003172000000003172002000000010410405310500542836974773800531279301148150   1030000500030000   555610104025104519000003821City Mart North Point  enter         MMR11005310500542836970531000000000000000   10300001 00104100000000000190000000000000     
100   62443100323428970000000000150000000000150000002000000010410405311111512881325545260531893411721150   1030000300030000   555510124363104519000020166Makro Myanmar                        MMR11005311111512881320531000000000000000   10300001 00104100000000036000000000000000     
100   62443100379321630000000000069000000000069000002000000010410405310853502864178240760531032221554150   1030000300030000   555510124687104519000020166Makro Myanmar                        MMR11005310853502864170531000000000000000   10300001 00104100000000016560000000000000     
100   95050314996291580000000000004900000000004900002000000010410405311357102710734353910531000007255939   1020000200030000   333400010001204104000000281Myanmar Soft-Gate Tech Yangon        MMR11005311357102710730531000000000000000   10300001F05104100000000001029000000000000     
100   62911028202471600000000000029750000000029750002000000010410405310600412843964773800531923311206150   1030000500030000   555610110576104519000009164City Mart China Town P int Cen       MMR11005310600412843960531000000000000000   10300001 00104100000000001785000000000000     
100   62911028202204490000000000190650000000190650002000000010410405311350281457424773800531845202028150   1030000900030000   581219000369190110000000241Beauty In The Pot (PHS YANGON        MMR11005311350281457420531000000000000000   10300001F00104100000000019446000000000000     
100   95050316067768680000000000001960000000001960002000000010410405311357412741349396450531000007255940   1020000200030000   333400010001204104000000281Myanmar Soft-Gate Tech Yangon        MMR11005311357412741340531000000000000000   10300001F05104100000000000412000000000000     
100   95050316785465380000000000000980000000000980002000000010410405310958592859079687390531000007254444   1020000200030000   333400010001204104000000281Myanmar Soft-Gate Tech Yangon        MMR11005310958592859070531000000000000000   10300001F05104100000000000206000000000000     
100   95050316785465380000000000000980000000000980002000000010410405310952082208777779630531000007254393   1020000200030000   333400010001204104000000281Myanmar Soft-Gate Tech Yangon        MMR11005310952082208770531000000000000000   10300001F05104100000000000206000000000000     
100   95050317903887690000000000002940000000002940002000000010410405310247351735508303990531000007250515   1020000200030000   333400010001204104000000281Myanmar Soft-Gate Tech Yangon        MMR11005310247351735500531000000000000000   10300001F05104100000000000617000000000000     
100   62443100373945130000000000020000000000020000002000000010410405311424511463890878750531212542051150   1030000900030000   554119000348190110000000215New Day Energy MYG     YANGONONE     MMR11005311424511463890531000000000000000   10300001F00104100000000002400000000000000     
100   62911028202423360000000000015400000000015400002000000010410405310731432855084773800531068031405150   1030000500030000   555610104018104519000003821City Mart North Point  enter         MMR11005310731432855080531000000000000000   10300001 00104100000000000924000000000000     
100   95050314557307430000000000002940000000002940002000000010410405311252132213607403590531000007255580   1020000200030000   333400010001204104000000281Myanmar Soft-Gate Tech Yangon        MMR11005311252132213600531000000000000000   10300001F05104100000000000617000000000000     
100   62911028202761360000000000024550000000024550002000000010410405310720142853784773800531928511307150   1030000500030000   555610103975104519000003818Ocean Oattara Thiri Na PyiTaw        MMR11005310720142853780531000000000000000   10300001 00104100000000001473000000000000     
100   62911028202446700000000000012391000000012391002000000010410405310641482849244773800531466121323150   1030000500030000   555610110561104519000009163City Mart Ayeyarwon Br nch           MMR11005310641482849240531000000000000000   10300001 00104100000000000744000000000000     
100   62911028202057620000000000030700000000030700002000000010410405311032372875694773800531280011732150   1030000300030000   555510124695104519000020166Makro Myanmar                        MMR11005311032372875690531000000000000000   10300001 00104100000000001842000000000000     
100   62911028202341350000000000005750000000005750002000000010410405311042232877324773800531458111751150   1030000500030000   555610112660104519000010855City Express MCS 77                  MMR11005311042232877320531000000000000000   10300001 00104100000000000345000000000000     
100   95050314567080940000000000000980000000000980002000000010410405310953172317339432110531000007254405   1020000200030000   333400010001204104000000281Myanmar Soft-Gate Tech Yangon        MMR11005310953172317330531000000000000000   10300001F05104100000000000206000000000000     
100   62911028202728380000000000000900000000000900002000000010410405310828022861024773800531681561452150   1030000500030000   555610118968104519000016137City Mart South Okkala WZYD BR       MMR11005310828022861020531000000000000000   10300001 00104100000000000054000000000000     
100   62911028202355870000000001000000000001000000002000000010410405310545541554824773800531000007252147   1040001600030000   333800010001220104000004507A +                    Yangon        MMR11005310545541554820531000000000000000   10300001F05104100000000210000000000000000     
100   62443100318296470000000000026050000000026050002000000010410405311311271450394013520531466411927150   1030000900030000   581219001545190110000001119Paradise Hot Pot       YANGONUT      MMR11005311311271450390531000000000000000   10300001F00104100000000011072000000000000     
100   62911028202423360000000000011600000000011600002000000010410405310711162852584773800531801401343150   1030000500030000   555610104028104519000003821City Mart North Point  enter         MMR11005310711162852580531000000000000000   10300001 00104100000000000696000000000000     
100   62443100306882420000000000080000000000080000002000000010410405311045551555952070090531000007254825   1030000200030000   333800010001203104000003327KBZPay                 Yangon        MMR11005311045551555950531000000000000000   10300001F05104100000000016800000000000000     
100   62443100306416880000000000004440000000004440002000000010410405311027152874999176820531201561603150   1030000500030000   444410113402104519000011515Pan Pacific PacificMar etPlace       MMR11005311027152874990531000000000000000   10300001 00104100000000001887000000000000     
100   95050315396509660000000000005000000000005000002000000010410405311053422342012325380531000007254887   1030000200030000   333800010001203104000003327KBZPay                 Yangon        MMR11005311053422342010531000000000000000   10300001F05104100000000001050000000000000     
100   62911028202423360000000000006200000000006200002000000010410405310731232854834773800531041011423150   1030000500030000   555610104043104519000003821City Mart North Point  enter         MMR11005310731232854830531000000000000000   10300001 00104100000000000372000000000000     
100   62911028202668140000000000047223000000047223002000000010410405311114562881624773800531919431747150   1030000500030000   555610118966104519000016137City Mart South Okkala WZYD BR       MMR11005311114562881620531000000000000000   10300001 00104100000000002833000000000000     
100   62443101000669310000000000160000000000160000002000000010410405311138471428744864480531099081847150   1030000900030000   701119001579190110000001151Hotel Shwe Pyi Thar    MANDALAYHARSA MMR11005311138471428740531000000000000000   10300001F00104100000000068000000000000000     
100   95030301100124400000000000022850000000022850002000000010410405311059441418224773800531447291744150   1030000900030000   541119001260190110000000958City Mart PLST C 3     YANGONMYOTHIT MMR11005311059441418220531000000000000000   10300001F00104100000000001371000000000000     
100   95030391376131630000000000018000000000018000002000000010410405310149111911454773800531000007250228   1030000200030000   333800010001203104000003327KBZPay                 Yangon        MMR11005310149111911450531000000000000000   10300001F05104100000000003780000000000000     
100   62911028202593140000000000009400000000009400002000000010410405311120262882564773800531024521700150   1030000500030000   555610114572104519000012532City Mart Ahlone Branc               MMR11005311120262882560531000000000000000   10300001 00104100000000000564000000000000     
100   62911028202355870000000001000000000001000000002000000010410405310545421542644773800531000007252145   1040001600030000   333800010001220104000004507A +                    Yangon        MMR11005310545421542640531000000000000000   10300001F05104100000000210000000000000000     
100   62911028202595200000000000094100000000094100002000000010410405310342442829934773800531610121020150   1030000300030000   555510124696104519000020166Makro Myanmar                        MMR11005310342442829930531000000000000000   10300001 00104100000000005646000000000000     
100   95050323282717740000000000028800000000028800002000000010410405311318362894818970970531323501940150   1030000500030000   555610122988104519000019269City Mart Supermarket  hanlyin       MMR11005311318362894810531000000000000000   10300001 00104100000000007200000000000000     
100   62911028202308280000000000017400000000017400002000000010410405310944101391954773800531691141610150   1030000900030000   591219000969190110000000776Shwe Ohh Pharmacy St ( YANGONADA     MMR11005310944101391950531000000000000000   10300001F00104100000000001044000000000000     
100   62911028202355870000000000300000000000300000002000000010410405310547041704974773800531000007252155   1040001600030000   333800010001220104000004507A +                    Yangon        MMR11005310547041704970531000000000000000   10300001F05104100000000063000000000000000     
100   62911028202026450000000000001800000000001800002000000010410405311223541439554773800531784531854150   1030000900030000   541119001216190110000000945City Mart TM C 1       YANGONONE     MMR11005311223541439550531000000000000000   10300001F00104100000000000108000000000000     
100   95050325273694860000000000008550000000008550002000000010410405311504230007570063430531000747772457   1030000200030000   594388001708000008000001175KBZ BANK               SHWE KYARR    MMR11005311504230007570531000000000000000   10300001 00104100000000002052000000000000     
100   95030393921562700000000000064300000000064300002000000010410405311317340004594773800531000747784285   1030000200030000   564188001659000008000005171KBZ BANK               SB BABY-2     MMR11005311317340004590531000000000000000   10300001 00104100000000003858000000000000     
100   62443100358839880000000000131600000000131600002000000010410405310837410026565446370531000747772591   1030000200030000   581288001737000008000005244KBZ BANK               SEAFOOD CITY  MMR11005310837410026560531000000000000000   10300001 00104100000000055930000000000000     
100   95050327386436040000000000036700000000036700002000000010410405311915320056275751100531000747783439   1030000200030000   541188001420000008000000401KBZ BANK               OCEAN SUPERCE MMR11005311915320056270531000000000000000   10300001 00104100000000009175000000000000     
100   95050310283518110000000000008330000000008330002000000010410405311337370053034631060531000747766640   1030000200030000   541188001440000008000000401KBZ BANK               OCEAN SUPERCE MMR11005311337370053030531000000000000000   10300001 00104100000000002083000000000000     
100   95050310283518110000000000018600000000018600002000000010410405312028190053121048940531000747785146   1030000200030000   541188001440000008000000401KBZ BANK               OCEAN SUPERCE MMR11005312028190053120531000000000000000   10300001 00104100000000004650000000000000     
100   95050310283518110000000000011300000000011300002000000010410405312031220036699311360531000747785195   1030000200030000   541188001444000008000000401KBZ BANK               OCEAN SUPERCE MMR11005312031220036690531000000000000000   10300001 00104100000000002825000000000000     
100   95050327185992630000000000006532000000006532002000000010410405311658020030207439240531000747777603   1030000200030000   541188001079000008000000294KBZ BANK               CITY MART - J MMR11005311658020030200531000000000000000   10300001 00104100000000001633000000000000     
100   95050325139996190000000000003300000000003300002000000010410405310330520052088608720531000007250895   1030000200030000   333300010001203104000003632Myanmar Tradenet Test  Yangon        MMR11005310330520052080531000000000000000   10300001F05104100000000010000000000000000     
100   95030305700676370000000000060000000000060000002000000010410405281043080148353511700528214810014835   1030000600030000   554100001754315799420001135DENKO KYITE HTO        MON STATE.    MMR11005281043080148350528000000000000000   10300001 00104100000000001800000000000000     
100   62911028202088990000000000030000000000030000002000000010410405281103170055763511700528214811005576   1030000600030000   554100001211315799420000663DENKO  TETKONE         TETKONE       MMR11005281103170055760528000000000000000   10300001 00104100000000000900000000000000     
100   62911028202468080000000000039000000000039000002000000010410405280009520221953511700528214800022195   1030000600030000   554100002085315799420000471DENKO BAHAN            YANGON        MMR11005280009520221950528000000000000000   10300001 00104100000000001170000000000000     
100   62911028202023630000000000063000000000063000002000000010410405281217550290563511700528214812029056   1030000600030000   554100000725315799420000306DENKO MDY - 78         MANDALAY      MMR11005281217550290560528000000000000000   10300001 00104100000000001890000000000000     
100   62443100303702210000000000525000000000525000002000000010410405281151290423648292740528214811042364   1030000600030000   554100001009315799420000504DENKO SOUTH DAGON      YANGON        MMR11005281151290423640528000000000000000   10300001 00104100000000063000000000000000     
100   95030302100067550000000000037900000000037900002000000010410405280822340060843511700528214808006084   1030000600030000   806200002188315799420001535ASIA ROYAL HOSPITAL    YANGON        MMR11005280822340060840528000000000000000   10300001 00104100000000002274000000000000     
100   62911028202466670000000000045000000000045000002000000010410405281448260224083511700528214814022408   1030000600030000   554100002085315799420000471DENKO BAHAN            YANGON        MMR11005281448260224080528000000000000000   10300001 00104100000000001350000000000000     
