100   62911028202355870000000001000000000001000000002000000010410406010344291429444773800601000007258260   1040001600030000   333800010001220104000004507A +                    Yangon        MMR11006010344291429440601000000000000000   10300001F05104100000000210000000000000000     
100   95050311382087030000000000006860000000006860002000000010410406011535520552101422390601000007263591   1020000200030000   333400010001204104000000281Myanmar Soft-Gate Tech Yangon        MMR11006011535520552100601000000000000000   10300001F05104100000000001441000000000000     
100   95050311438762210000000000009800000000009800002000000010410406010837250725830741250601000007261152   1020000200030000   333400010001204104000000281Myanmar Soft-Gate Tech Yangon        MMR11006010837250725830601000000000000000   10300001F05104100000000002058000000000000     
100   95050325997730520000000000050000000000050000002000000010410406010542341391429692520601215212139142   1040001600030000   598320000321000000010000309PT Power Petrol Statio Yangon        MMR11006010542341391420601000000000000000   10300001F00104100000000006000000000000000     
100   95030310100002200000000000046200000000046200002000000010410406010935340136084773800601000747802462   1030000200030000   541188001349000008000000395KBZ BANK               OCEAN SUPERMA MMR11006010935340136080601000000000000000   10300001 00104100000000002772000000000000     
100   95050328074436620000000000009800000000009800002000000010410406010034430443140823360601000007256987   1020000200030000   333400010001204104000000281Myanmar Soft-Gate Tech Yangon        MMR11006010034430443140601000000000000000   10300001F05104100000000002058000000000000     
100   95050312498129060000000000010780000000010780002000000010410406011338100810768713100601000007263073   1020000200030000   333400010001204104000000281Myanmar Soft-Gate Tech Yangon        MMR11006011338100810760601000000000000000   10300001F05104100000000002264000000000000     
100   95050312568198510000000000002000000000002000002000000010410406011036150615194458280601000007262084   1030000200030000   3338000100012031040000040022C2P (Myanmar) Co. Ltd Yangon        MMR11006011036150615190601000000000000000   10300001F05104100000000000420000000000000     
100   62911028202616170000000000038061000000038061002000000010410406010806012957224773800601533341450151   1030000500030000   555610115767104519000013506MarketplaceMyanmarPlaz Branch        MMR11006010806012957220601000000000000000   10300001 00104100000000002284000000000000     
100   62911028202147720000000000005000000000005000002000000010410406010944522968994773800601735141659151   1030000500030000   555610114575104519000012532City Mart Ahlone Branc               MMR11006010944522968990601000000000000000   10300001 00104100000000000300000000000000     
100   95050314749068520000000000020400000000020400002000000010410406011023032973173231280601172521637151   1030000500030000   555610108767104519000003818City Mart Oattara Thir NPT           MMR11006011023032973170601000000000000000   10300001 00104100000000005100000000000000     
100   95050310711432300000000000250000000000250000002000000010410406010605273527917408710601000007259696   1030000200030000   333800010001203104000003327KBZPay                 Yangon        MMR11006010605273527910601000000000000000   10300001F05104100000000052500000000000000     
100   95030301100128610000000000300000000000300000002000000010410406010414304430604773800601000007258571   1030000200030000   333800010001203104000003327KBZPay                 Yangon        MMR11006010414304430600601000000000000000   10300001F05104100000000063000000000000000     
100   95050325139996190000000000003300000000003300002000000010410406010321265126957405720601000007257974   1030000200030000   333300010001203104000003632Myanmar Tradenet Test  Yangon        MMR11006010321265126950601000000000000000   10300001F05104100000000010000000000000000     
100   95050319938772870000000000000980000000000980002000000010410406011422095209456975520601000007263285   1020000200030000   333400010001204104000000281Myanmar Soft-Gate Tech Yangon        MMR11006011422095209450601000000000000000   10300001F05104100000000000206000000000000     
100   95050310427855490000000000000980000000000980002000000010410405312255412541099936750601000007256872   1020000200030000   333400010001204104000000281Myanmar Soft-Gate Tech Yangon        MMR11005312255412541090601000000000000000   10300001F05104100000000000206000000000000     
100   95050328074436620000000000009800000000009800002000000010410406010039440944572646040601000007257002   1020000200030000   333400010001204104000000281Myanmar Soft-Gate Tech Yangon        MMR11006010039440944570601000000000000000   10300001F05104100000000002058000000000000     
100   62911028202473840000000000043950000000043950002000000010410406010559361402604773800601215212140260   1040001600030000   591220000278000000010000266Shwe Ohh Pharmacy (Bah Yangon        MMR11006010559361402600601000000000000000   10300001F00104100000000002637000000000000     
100   62911028202355870000000001000000000001000000002000000010410406010343211321384773800601000007258245   1040001600030000   333800010001220104000004507A +                    Yangon        MMR11006010343211321380601000000000000000   10300001F05104100000000210000000000000000     
100   95050325095525130000000000150000000000150000002000000010410405312144371437935064390601000007256844   1030000200030000   333800010001203104000003327KBZPay                 Yangon        MMR11005312144371437930601000000000000000   10300001F05104100000000031500000000000000     
100   95050328876009750000000000025000000000025000002000000010410406010931210121151918810601000007261565   1030000200030000   333800010001203104000003327KBZPay                 Yangon        MMR11006010931210121150601000000000000000   10300001F05104100000000005250000000000000     
100   95030311150602280000000000005450000000005450002000000010410406011739170206944773800601000747831372   1030000200030000   541188001075000008000000294KBZ BANK               CITY MART - J MMR11006011739170206940601000000000000000   10300001 00104100000000000327000000000000     
100   95050310520330790000000000100000000000100000002000000010410406010236530653068723530601000007257504   1030000200030000   333800010001203104000003327KBZPay                 Yangon        MMR11006010236530653060601000000000000000   10300001F05104100000000021000000000000000     
100   95050317942168830000000000005880000000005880002000000010410406011240581058508542910601000007262792   1020000200030000   333400010001204104000000281Myanmar Soft-Gate Tech Yangon        MMR11006011240581058500601000000000000000   10300001F05104100000000001235000000000000     
100   95050317743858310000000000046800000000046800002000000010410406010803092958114932840601617421410151   1030000500030000   555610110581104519000009164City Mart China Town P int Cen       MMR11006010803092958110601000000000000000   10300001 00104100000000011700000000000000     
100   95050327192897240000000000000980000000000980002000000010410406010415444544608405020601000007258585   1020000200030000   333400010001204104000000281Myanmar Soft-Gate Tech Yangon        MMR11006010415444544600601000000000000000   10300001F05104100000000000206000000000000     
100   62911028202074950000000000018000000000018000002000000010410406010942002969014773800601739151620151   1030000500030000   555610118972104519000016137City Mart South Okkala WZYD BR       MMR11006010942002969010601000000000000000   10300001 00104100000000001080000000000000     
100   95050310711432300000000000300000000000300000002000000010410406010600263026990032900601000007259632   1030000200030000   333800010001203104000003327KBZPay                 Yangon        MMR11006010600263026990601000000000000000   10300001F05104100000000063000000000000000     
100   95030318100002710000000000002940000000002940002000000010410406010707073707214773800601000007260303   1020000200030000   333400010001204104000000281Myanmar Soft-Gate Tech Yangon        MMR11006010707073707210601000000000000000   10300001F05104100000000000617000000000000     
100   95050313441999020000000000015000000000015000002000000010410406011505493549461932970601000007263467   1030000200030000   3338000100012031040000040022C2P (Myanmar) Co. Ltd Yangon        MMR11006011505493549460601000000000000000   10300001F05104100000000003150000000000000     
100   62911028202000450000000000000980000000000980002000000010410406010904143414594773800601000007261388   1020000200030000   333400010001204104000000281Myanmar Soft-Gate Tech Yangon        MMR11006010904143414590601000000000000000   10300001F05104100000000000206000000000000     
100   95050312781844250000000000031000000000031000002000000010410406010116544654473873040601000007257113   1030000200030000   333800010001203104000003327KBZPay                 Yangon        MMR11006010116544654470601000000000000000   10300001F05104100000000006510000000000000     
100   95050315396509660000000000045000000000045000002000000010410406010145261526978759190601000007257226   1030000200030000   333800010001203104000003327KBZPay                 Yangon        MMR11006010145261526970601000000000000000   10300001F05104100000000009450000000000000     
100   62443100306416880000000000035350000000035350002000000010410406011738470145647011170601000747831349   1030000200030000   541188001056000008000000314KBZ BANK               MARKETPLACE - MMR11006011738470145640601000000000000000   10300001 00104100000000008838000000000000     
100   95050311959900780000000000000980000000000980002000000010410406011533250325570280490601000007263581   1020000200030000   333400010001204104000000281Myanmar Soft-Gate Tech Yangon        MMR11006011533250325570601000000000000000   10300001F05104100000000000206000000000000     
100   95050311438762210000000000009800000000009800002000000010410406010834030403910145580601000007261120   1020000200030000   333400010001204104000000281Myanmar Soft-Gate Tech Yangon        MMR11006010834030403910601000000000000000   10300001F05104100000000002058000000000000     
100   95050319468370810000000000046200000000046200002000000010410406010836540654299088770601000007261149   1030000200030000   3333000100012031040000040282C2P (Myanmar) Co. Ltd Yangon        MMR11006010836540654290601000000000000000   10300001F05104100000000010000000000000000     
100   95050319604564870000000000021150000000021150002000000010410406010944381438291117290601000007261718   1030000200030000   333800010001203104000003327KBZPay                 Yangon        MMR11006010944381438290601000000000000000   10300001F05104100000000004442000000000000     
100   62911028202228250000000000013133000000013133002000000010410406011120120212054773800601000747808515   1030000200030000   541188001054000008000000314KBZ BANK               MARKETPLACE - MMR11006011120120212050601000000000000000   10300001 00104100000000000788000000000000     
100   62911028202233510000000000010950000000010950002000000010410406011654170119514773800601000747829278   1030000200030000   541188001081000008000000294KBZ BANK               CITY MART - J MMR11006011654170119510601000000000000000   10300001 00104100000000000657000000000000     
100   95050327192897240000000000002940000000002940002000000010410406010413054305013518870601000007258552   1020000200030000   333400010001204104000000281Myanmar Soft-Gate Tech Yangon        MMR11006010413054305010601000000000000000   10300001F05104100000000000617000000000000     
100   95050311182936420000000000004900000000004900002000000010410406010127445744030241480601000007257163   1020000200030000   333400010001204104000000281Myanmar Soft-Gate Tech Yangon        MMR11006010127445744030601000000000000000   10300001F05104100000000001029000000000000     
100   95050311619387960000000000055000000000055000002000000010410406010421125112963022080601000007258650   1030000200030000   333800010001203104000003327KBZPay                 Yangon        MMR11006010421125112960601000000000000000   10300001F05104100000000011550000000000000     
100   95050315557781210000000000010000000000010000002000000010410406011109193919180741620601000007262313   1040001600030000   333800010001220104000004507A +                    Yangon        MMR11006011109193919180601000000000000000   10300001F05104100000000002100000000000000     
100   95050315166583130000000000070000000000070000002000000010410406011106413641183791300601000007262293   1030000200030000   333800010001203104000003327KBZPay                 Yangon        MMR11006011106413641180601000000000000000   10300001F05104100000000014700000000000000     
100   95050317775833170000000000050400000000050400002000000010410406011018104810365564540601000007261962   1030000200030000   333800010001203104000003327KBZPay                 Yangon        MMR11006011018104810360601000000000000000   10300001F05104100000000010584000000000000     
100   95030301100128610000000000100000000000100000002000000010410406010415514551874773800601000007258590   1030000200030000   333800010001203104000003327KBZPay                 Yangon        MMR11006010415514551870601000000000000000   10300001F05104100000000021000000000000000     
100   95050325139996190000000000003300000000003300002000000010410406010313414341209483690601000007257882   1030000200030000   333300010001203104000003632Myanmar Tradenet Test  Yangon        MMR11006010313414341200601000000000000000   10300001F05104100000000010000000000000000     
100   95050315743141220000000000001960000000001960002000000010410406010734590459122017700601000007260572   1020000200030000   333400010001204104000000281Myanmar Soft-Gate Tech Yangon        MMR11006010734590459120601000000000000000   10300001F05104100000000000412000000000000     
100   62443100313529540000000000006860000000006860002000000010410406010337370737065887770601000007258179   1020000200030000   333400010001204104000000281Myanmar Soft-Gate Tech Yangon        MMR11006010337370737060601000000000000000   10300001F05104100000000001441000000000000     
100   95050322426452690000000000037000000000037000002000000010410406010537451388427732310601215212138842   1040001600030000   598320000320000000010000308PT Power Petrol Statio Yangon        MMR11006010537451388420601000000000000000   10300001F00104100000000004440000000000000     
100   62911028202151340000000000011200000000011200002000000010410406010659501434894773800601215213143489   1040001600030000   591220000296000000010000284Shwe Ohh Pharmacy (Lan Yangon        MMR11006010659501434890601000000000000000   10300001F00104100000000000672000000000000     
100   62911028202161240000000000025646000000025646002000000010410406011013340365834773800601000747804175   1030000200030000   541188001025000008000000298KBZ BANK               CITY MART - M MMR11006011013340365830601000000000000000   10300001 00104100000000001539000000000000     
100   62443100303702210000000000127000000000127000002000000010410406010617581413242739210601215213141324   1040001600030000   598320000313000000010000301PT Power Petrol Statio Yangon        MMR11006010617581413240601000000000000000   10300001F00104100000000015240000000000000     
100   62911028202161240000000000013850000000013850002000000010410406011230580367624773800601000747813292   1030000200030000   541188001024000008000000298KBZ BANK               CITY MART - M MMR11006011230580367620601000000000000000   10300001 00104100000000000831000000000000     
100   62911028202400660000000000002950000000002950002000000010410406011110460110574773800601000747807860   1030000200030000   541188001132000008000000296KBZ BANK               CITY MART - J MMR11006011110460110570601000000000000000   10300001 00104100000000000177000000000000     
100   95050318214455130000000000002940000000002940002000000010410405311720105010763411910601000007256622   1020000200030000   333400010001204104000000281Myanmar Soft-Gate Tech Yangon        MMR11005311720105010760601000000000000000   10300001F05104100000000000617000000000000     
100   95050310409767690000000000100000000000100000002000000010410406010329245924255497950601000007258080   1030000200030000   333800010001203104000003327KBZPay                 Yangon        MMR11006010329245924250601000000000000000   10300001F05104100000000021000000000000000     
100   95050316234969530000000000025000000000025000002000000010410406011519554955293585460601000007263527   1030000200030000   333800010001203104000003327KBZPay                 Yangon        MMR11006011519554955290601000000000000000   10300001F05104100000000005250000000000000     
100   95030349489765520000000000028000000000028000002000000010410406011101011677544773800601899311701151   1030000900030000   541119000120190110000000080Sein Gay Har BAK       YANGONADA     MMR11006011101011677540601000000000000000   10300001F00104100000000001680000000000000     
100   62911028202807400000000000028650000000028650002000000010410406011032320157964773800601000747805291   1030000200030000   541188001242000008000000323KBZ BANK               CITY MART - I MMR11006011032320157960601000000000000000   10300001 00104100000000001719000000000000     
100   95050319528093960000000000002940000000002940002000000010410406011026245624245139050601000007262026   1020000200030000   333400010001204104000000281Myanmar Soft-Gate Tech Yangon        MMR11006011026245624240601000000000000000   10300001F05104100000000000617000000000000     
100   95050315122972560000000000001960000000001960002000000010410406010426165616633908700601000007258695   1020000200030000   333400010001204104000000281Myanmar Soft-Gate Tech Yangon        MMR11006010426165616630601000000000000000   10300001F05104100000000000412000000000000     
100   62911028202099050000000000022900000000022900002000000010410406010826492960444773800601862041515151   1030000300030000   444410125271104519000021125SP Bakery San YeikNyei GMP           MMR11006010826492960440601000000000000000   10300001 00104100000000002336000000000000     
100   62911028202117940000000000030000000000030000002000000010410406010129451270614773800601215208127061   1040001600030000   598320000310000000010000298PT Power Petrol Statio Yangon        MMR11006010129451270610601000000000000000   10300001F00104100000000000900000000000000     
100   95050320360851930000000000050000000000050000002000000010410406011550022002073074880601000007263640   1030000200030000   333800010001203104000003327KBZPay                 Yangon        MMR11006011550022002070601000000000000000   10300001F05104100000000010500000000000000     
100   95050322318997110000000000095000000000095000002000000010410406010149221922580411670601000007257243   1030000200030000   333800010001203104000003327KBZPay                 Yangon        MMR11006010149221922580601000000000000000   10300001F05104100000000019950000000000000     
100   95050318511918960000000000050300000000050300002000000010410406010457142714074117530601000007258979   1030000200030000   333800010001203104000003327KBZPay                 Yangon        MMR11006010457142714070601000000000000000   10300001F05104100000000010563000000000000     
100   95050328212196190000000000014000000000014000002000000010410406010406071564735341540601208361007151   1030000900030000   541119001290190110000000965City Mart SPL City Car YANGONMYOTHIT MMR11006010406071564730601000000000000000   10300001F00104100000000003500000000000000     
100   95030349489765520000000000028000000000028000002000000010410406011048521674064773800601670181752151   1030000900030000   541119000122190110000000080Sein Gay Har BAK       YANGONADA     MMR11006011048521674060601000000000000000   10300001F00104100000000001680000000000000     
100   95050319928585020000000000001960000000001960002000000010410406010849231923997266090601000007261238   1020000200030000   333400010001204104000000281Myanmar Soft-Gate Tech Yangon        MMR11006010849231923990601000000000000000   10300001F05104100000000000412000000000000     
100   95050318621775380000000000015000000000015000002000000010410406011149241924792698840601000007262524   1030000200030000   3338000100012031040000040022C2P (Myanmar) Co. Ltd Yangon        MMR11006011149241924790601000000000000000   10300001F05104100000000003150000000000000     
100   95050318214455130000000000002940000000002940002000000010410406010711274127791265620601000007260345   1020000200030000   333400010001204104000000281Myanmar Soft-Gate Tech Yangon        MMR11006010711274127790601000000000000000   10300001F05104100000000000617000000000000     
100   62911028202074790000000000000980000000000980002000000010410406010850502050804773800601000007261255   1020000200030000   333400010001204104000000281Myanmar Soft-Gate Tech Yangon        MMR11006010850502050800601000000000000000   10300001F05104100000000000206000000000000     
100   95050313817486860000000000004900000000004900002000000010410406011450022002753670550601000007263410   1020000200030000   333400010001204104000000281Myanmar Soft-Gate Tech Yangon        MMR11006011450022002750601000000000000000   10300001F05104100000000001029000000000000     
100   62911028202245730000000000008950000000008950002000000010410406010949491657304773800601608191649151   1030000900030000   806219001560190110000000290Grand Hanthar Hospital YANGONUT      MMR11006010949491657300601000000000000000   10300001F00104100000000000537000000000000     
100   95050314946697790000000000012000000000012000002000000010410406011016311664062174470601011461631151   1030000900030000   541119001196190110000000942City Mart HDC C 11     YANGONUT      MMR11006011016311664060601000000000000000   10300001F00104100000000003000000000000000     
100   95050316430749210000000000018500000000018500002000000010410406010955491658924252430601699251649151   1030000900030000   541119000116190110000000078Sein Gay Har Kan Thar  YANGONOKKALAP MMR11006010955491658920601000000000000000   10300001F00104100000000004625000000000000     
100   95050319928585020000000000001960000000001960002000000010410406010851522152623961120601000007261282   1020000200030000   333400010001204104000000281Myanmar Soft-Gate Tech Yangon        MMR11006010851522152620601000000000000000   10300001F05104100000000000412000000000000     
100   62911028202826700000000000100000000000100000002000000010410406010858242824494773800601000007261347   1030000200030000   333800010001203104000003327KBZPay                 Yangon        MMR11006010858242824490601000000000000000   10300001F05104100000000021000000000000000     
100   62911028202708080000000000064100000000064100002000000010410406010545011592424773800601851151201151   1030000900030000   571219001598190110000001164Pro (1) Global South D YANGONMYOTHIT MMR11006010545011592420601000000000000000   10300001F00104100000000003846000000000000     
100   95050322990383760000000000001000000000001000002000000010410406010346061606665036810601000007258270   1030000200030000   3334000100012031040000040102C2P (Myanmar) Co. Ltd Yangon        MMR11006010346061606660601000000000000000   10300001F05104100000000000210000000000000     
100   95050312946679160000000000077000000000077000002000000010410406011152422242900961260601000007262540   1030000200030000   333800010001203104000003327KBZPay                 Yangon        MMR11006011152422242900601000000000000000   10300001F05104100000000016170000000000000     
100   95030367537085740000000000000980000000000980002000000010410406011151572157034773800601000007262543   1020000200030000   333400010001204104000000281Myanmar Soft-Gate Tech Yangon        MMR11006011151572157030601000000000000000   10300001F05104100000000000206000000000000     
100   95050325630928770000000000000980000000000980002000000010410406010752002200756003440601000007260724   1020000200030000   333400010001204104000000281Myanmar Soft-Gate Tech Yangon        MMR11006010752002200750601000000000000000   10300001F05104100000000000206000000000000     
100   95050310676042860000000000010000000000010000002000000010410406010349361936721320150601000007258300   1030000200030000   333800010001203104000003327KBZPay                 Yangon        MMR11006010349361936720601000000000000000   10300001F05104100000000002100000000000000     
100   95050319161596230000000000000980000000000980002000000010410406010250162016862744920601000007257626   1020000200030000   333400010001204104000000281Myanmar Soft-Gate Tech Yangon        MMR11006010250162016860601000000000000000   10300001F05104100000000000206000000000000     
100   95050310291835770000000000300000000000300000002000000010410406010254072407314567600601000007257656   1030000200030000   333800010001203104000003327KBZPay                 Yangon        MMR11006010254072407310601000000000000000   10300001F05104100000000063000000000000000     
100   95050322104201170000000000043000000000043000002000000010410406010049551955696922720601000007257036   1030000200030000   333800010001203104000003327KBZPay                 Yangon        MMR11006010049551955690601000000000000000   10300001F05104100000000009030000000000000     
100   95050323670692380000000000048000000000048000002000000010410406010935171654253656390601446051617151   1030000900030000   573219001178190110000000934UNIQUE Pansodan        YANGONADA     MMR11006010935171654250601000000000000000   10300001F00104100000000011520000000000000     
100   95050316272163320000000000007000000000007000002000000010410406010946551656632514860601570161655151   1030000900030000   723019001040190110000000845Beauty Diary HDC       YANGONUT      MMR11006010946551656630601000000000000000   10300001F00104100000000001680000000000000     
100   62911028202003590000000000009000000000009000002000000010410406011240381704434773800601638101938151   1030000900030000   541119000153190110000000083SeinGayHarParami Cente YANGON        MMR11006011240381704430601000000000000000   10300001F00104100000000000540000000000000     
100   95050311419479170000000000001960000000001960002000000010410406010752452245537315530601000007260737   1020000200030000   333400010001204104000000281Myanmar Soft-Gate Tech Yangon        MMR11006010752452245530601000000000000000   10300001F05104100000000000412000000000000     
100   95050315259054570000000000000980000000000980002000000010410406010248301830980035630601000007257607   1020000200030000   333400010001204104000000281Myanmar Soft-Gate Tech Yangon        MMR11006010248301830980601000000000000000   10300001F05104100000000000206000000000000     
100   95050315557781210000000000053000000000053000002000000010410406010357062706667164220601000007258384   1030000200030000   333800010001203104000003327KBZPay                 Yangon        MMR11006010357062706660601000000000000000   10300001F05104100000000011130000000000000     
100   62911028202440680000000000006900000000006900002000000010410406010756201627484773800601902261420151   1030000900030000   591219000970190110000000777Shwe Ohh Pharmacy St ( YANGONAW      MMR11006010756201627480601000000000000000   10300001F00104100000000000414000000000000     
100   62911028202154800000000000036750000000036750002000000010410406010750101625924773800601815201410151   1030000900030000   541119001284190110000000963City Mart SPL C 9      YANGONMYOTHIT MMR11006010750101625920601000000000000000   10300001F00104100000000002205000000000000     
100   95050310332595380000000000000980000000000980002000000010410406010428565856306873280601000007258720   1020000200030000   333400010001204104000000281Myanmar Soft-Gate Tech Yangon        MMR11006010428565856300601000000000000000   10300001F05104100000000000206000000000000     
100   95050312962334280000000000000980000000000980002000000010410406011129555955594677920601000007262418   1020000200030000   333400010001204104000000281Myanmar Soft-Gate Tech Yangon        MMR11006011129555955590601000000000000000   10300001F05104100000000000206000000000000     
100   95050312171561790000000000040000000000040000002000000010410406010423545354432341310601000007258671   1030000200030000   333800010001203104000003327KBZPay                 Yangon        MMR11006010423545354430601000000000000000   10300001F05104100000000008400000000000000     
100   95030301100157400000000000024000000000024000002000000010410406011202053205674773800601000007262599   1030000200030000   333800010001203104000003327KBZPay                 Yangon        MMR11006011202053205670601000000000000000   10300001F05104100000000005040000000000000     
100   95050311712422700000000000050000000000050000002000000010410406011352042204320365590601000007263148   1030000200030000   333800010001203104000003327KBZPay                 Yangon        MMR11006011352042204320601000000000000000   10300001F05104100000000010500000000000000     
100   95050313411345710000000000005000000000005000002000000010410406010849161916848918580601000007261249   1030000200030000   333800010001203104000003327KBZPay                 Yangon        MMR11006010849161916840601000000000000000   10300001F05104100000000001050000000000000     
100   62911028202023630000000000080000000000080000002000000010410406010247011543644773800601027170901151   1030000900030000   554119001103190110000000215New Day Energy MYG     YANGONONE     MMR11006010247011543640601000000000000000   10300001F00104100000000002400000000000000     
100   95050315430281830000000000000800000000000800002000000010410406010857231644404386600601883271523151   1030000900030000   581219000018190110000000031Bali                   YANGONUT      MMR11006010857231644400601000000000000000   10300001F00104100000000000340000000000000     
100   62911028202132460000000000020350000000020350002000000010410406011128311685824773800601437581731151   1030000900030000   541119001208190110000000948City Mart YK C 6       YANGONAUNG    MMR11006011128311685820601000000000000000   10300001F00104100000000001221000000000000     
100   95050314570621780000000000001960000000001960002000000010410406010049591959282305660601000007257038   1020000200030000   333400010001204104000000281Myanmar Soft-Gate Tech Yangon        MMR11006010049591959280601000000000000000   10300001F05104100000000000412000000000000     
100   62911028202355870000000001000000000001000000002000000010410406010345211521744773800601000007258273   1040001600030000   333800010001220104000004507A +                    Yangon        MMR11006010345211521740601000000000000000   10300001F05104100000000210000000000000000     
100   62911028202474000000000000084600000000084600002000000010410406010916051499444773800601215216149944   1040001600030000   598320000658000000010000527Shwe Taung Energy (YGN Yangon        MMR11006010916051499440601000000000000000   10300001F00104100000000002538000000000000     
100   95050327285327260000000000010250000000010250002000000010410405310648220015971587100531000347824317   1030000300030000   541100000217000000000000113CB BANK                ONESTOP KITCH MMR11005310648220015970531000000000000000   10300001F00104100000000002563000000000000     
100   95030301100081330000000000069000000000069000002000000010410405310449210028224773800531000347805883   1030000300030000   598300001213000000000000820CB BANK                SHWE TAUNG EN MMR11005310449210028220531000000000000000   10300001F00104100000000002070000000000000     
100   62443100303702210000000000540000000000540000002000000010410405310938190530708205110531215109053070   1030000600030000   554100001756315799420001137DENKO NORTH DAGON 2    YANGON        MMR11005310938190530700531000000000000000   10300001 00104100000000064800000000000000     
100   62911028202471860000000000093000000000093000002000000010410405310403270230964773800531215104023096   1030000600030000   554100002085315799420000471DENKO BAHAN            YANGON        MMR11005310403270230960531000000000000000   10300001 00104100000000002790000000000000     
100   62911028202023630000000000040000000000040000002000000010410405310719250215554773800531215107021555   1030000600030000   554100001212315799420000664DENKO TA TAR OO        TA TAR OO     MMR11005310719250215550531000000000000000   10300001 00104100000000001200000000000000     
100   95050324411430900000000000035000000000035000002000000010410405310418260231072473710531215104023107   1030000600030000   554100002085315799420000471DENKO BAHAN            YANGON        MMR11005310418260231070531000000000000000   10300001 00104100000000004200000000000000     
100   62443100379321630000000000029009000000029009002000000010410405310741200784112042510531215114078411   1040001600030000   598320000315000000010000303PT Power Petrol Statio Yangon        MMR11005310741200784110531000000000000000   10300001F00104100000000003481000000000000     
100   95030301100121270000000000012000000000012000002000000010410405311045220891054773800531215117089105   1040001600030000   598320000918000000010000665MMTM - Thingangyun     Ygn           MMR11005311045220891050531000000000000000   10300001F00104100000000000360000000000000     
100   95030308100042590000000000102612000000102612002000000010410406010804271629774773800601041341427151   1030000900030000   806219001119190110000000900Shwe La Min Hospital L YANGONAW      MMR11006010804271629770601000000000000000   10300001F00104100000000006157000000000000     
100   95050322104201170000000000066000000000066000002000000010410405312356032603271248840601000007256923   1030000200030000   333800010001203104000003327KBZPay                 Yangon        MMR11005312356032603270601000000000000000   10300001F05104100000000013860000000000000     
100   95050319144542320000000000300000000000300000002000000010410406010657112711655627400601000007260203   1030000200030000   333800010001203104000003327KBZPay                 Yangon        MMR11006010657112711650601000000000000000   10300001F05104100000000063000000000000000     
100   62911028202695110000000000096000000000096000002000000010410406010426341570034773800601509561034151   1030000900030000   591219000601190110000000441Shwe Ohh Pharmacy St-3 YANGON        MMR11006010426341570030601000000000000000   10300001F00104100000000005760000000000000     
100   95050316430749210000000000023800000000023800002000000010410406010943101655979124420601539131610151   1030000900030000   541119000117190110000000078Sein Gay Har Kan Thar  YANGONOKKALAP MMR11006010943101655970601000000000000000   10300001F00104100000000005950000000000000     
100   95050312224678430000000000009800000000009800002000000010410406010248001800075078180601000007257602   1020000200030000   333400010001204104000000281Myanmar Soft-Gate Tech Yangon        MMR11006010248001800070601000000000000000   10300001F05104100000000002058000000000000     
100   95050319204938440000000000018000000000018000002000000010410406010317494749428086490601000007257936   1030000200030000   333800010001203104000003327KBZPay                 Yangon        MMR11006010317494749420601000000000000000   10300001F05104100000000003780000000000000     
100   95050310409767690000000000020000000000020000002000000010410406011213094309228883290601000007262653   1030000200030000   333800010001203104000003327KBZPay                 Yangon        MMR11006011213094309220601000000000000000   10300001F05104100000000004200000000000000     
100   62911028202725640000000000019000000000019000002000000010410405301437180000304773800530215014000030   1030000600030000   5499000024203157994200016871 STOP S M PIN LONE    YANGON        MMR11005301437180000300530000000000000000   10300001 00104100000000001938000000000000     
100   62911028202284260000000000033870000000033870002000000010410405300332390205923511700530215003020592   1030000600030000   809900000537315799420000147GRAND HANTHA HOSPITAL  YANGON        MMR11005300332390205920530000000000000000   10300001 00104100000000002032000000000000     
100   62911028202761360000000000050000000000050000002000000010410405300109490426923511700530215001042692   1030000600030000   554100001106315799420000564DENKO PHYUU            PHYUU         MMR11005300109490426920530000000000000000   10300001 00104100000000001500000000000000     
100   62911028202752030000000000101000000000101000002000000010410405300509410356593511700530215005035659   1030000600030000   554100001155315799420000607DENKO NPT 1            NAYPYITAW.    MMR11005300509410356590530000000000000000   10300001 00104100000000003030000000000000     
100   95050329252108030000000000012828000000012828002000000010410405301500360664004068680530215015066400   1030000600030000   554100000952315799420000474DENKO N.DAGON - 1      YANGON        MMR11005301500360664000530000000000000000   10300001 00104100000000001539000000000000     
100   62443100340422630000000000017450000000017450002000000010410406011832470246907826480601000747833746   1030000200030000   541188001003000008000000008KBZ BANK               MARKETPLACE - MMR11006011832470246900601000000000000000   10300001 00104100000000004363000000000000     
100   62443100372718280000000000029820000000029820002000000010410406010402191563640043700601148321019151   1030000900030000   806219001560190110000000290Grand Hanthar Hospital YANGONUT      MMR11006010402191563640601000000000000000   10300001F00104100000000007157000000000000     
100   95050316272163320000000000010000000000010000002000000010410406010554272427258550610601000007259590   1030000200030000   333800010001203104000003327KBZPay                 Yangon        MMR11006010554272427250601000000000000000   10300001F05104100000000002100000000000000     
100   95050312139901420000000000090000000000090000002000000010410406011206423642142358450601000007262614   1030000200030000   333800010001203104000003327KBZPay                 Yangon        MMR11006011206423642140601000000000000000   10300001F05104100000000018900000000000000     
100   95030301100128610000000000300000000000300000002000000010410406010413294329474773800601000007258555   1030000200030000   333800010001203104000003327KBZPay                 Yangon        MMR11006010413294329470601000000000000000   10300001F05104100000000063000000000000000     
100   95050314534800510000000000000980000000000980002000000010410406010424495449290603730601000007258673   1020000200030000   333400010001204104000000281Myanmar Soft-Gate Tech Yangon        MMR11006010424495449290601000000000000000   10300001F05104100000000000206000000000000     
100   95050311182936420000000000004900000000004900002000000010410406010124275427618830490601000007257148   1020000200030000   333400010001204104000000281Myanmar Soft-Gate Tech Yangon        MMR11006010124275427610601000000000000000   10300001F05104100000000001029000000000000     
100   95050319161596230000000000001960000000001960002000000010410406010121175117862135460601000007257130   1020000200030000   333400010001204104000000281Myanmar Soft-Gate Tech Yangon        MMR11006010121175117860601000000000000000   10300001F05104100000000000412000000000000     
100   95050312781844250000000000268000000000268000002000000010410406010122015201973787940601000007257137   1040001600030000   333800010001220104000004507A +                    Yangon        MMR11006010122015201970601000000000000000   10300001F05104100000000056280000000000000     
100   95050311959900780000000000000980000000000980002000000010410406011529255925638628000601000007263566   1020000200030000   333400010001204104000000281Myanmar Soft-Gate Tech Yangon        MMR11006011529255925630601000000000000000   10300001F05104100000000000206000000000000     
100   62911028202400660000000000006250000000006250002000000010410406010628272945914773800601401571217151   1030000300030000   444410125394104519000021221Myanmar Bakery CoLtd                 MMR11006010628272945910601000000000000000   10300001 00104100000000000638000000000000     
100   95050312498129060000000000006860000000006860002000000010410406011308103810042103160601000007262935   1020000200030000   333400010001204104000000281Myanmar Soft-Gate Tech Yangon        MMR11006011308103810040601000000000000000   10300001F05104100000000001441000000000000     
100   95050310456843760000000000037030000000037030002000000010410406011213481697340535770601152431848151   1030000900030000   541119000124190110000000080Sein Gay Har BAK       YANGONADA     MMR11006011213481697340601000000000000000   10300001F00104100000000009258000000000000     
100   95050328212196190000000000168626000000168626002000000010410406010417321567621369600601373471032151   1030000900030000   541119001282190110000000963City Mart SPL C 7      YANGONMYOTHIT MMR11006010417321567620601000000000000000   10300001F00104100000000042157000000000000     
100   95050312618592720000000000080000000000080000002000000010410406010317454745201391460601000007257940   1030000200030000   333800010001203104000003327KBZPay                 Yangon        MMR11006010317454745200601000000000000000   10300001F05104100000000016800000000000000     
100   62911028202151340000000000006299000000006299002000000010410406011722410198944773800601000747830585   1030000200030000   541188001080000008000000294KBZ BANK               CITY MART - J MMR11006011722410198940601000000000000000   10300001 00104100000000000378000000000000     
100   62911028202260400000000000030000000000030000002000000010410406010725091618914773800601402551309151   1030000900030000   554119001037190110000000842Puma Power(BBIBB)      MONON         MMR11006010725091618910601000000000000000   10300001F00104100000000000900000000000000     
100   95050314829126520000000000057200000000057200002000000010410406010934480448798954230601000007261629   1030000200030000   333800010001203104000003327KBZPay                 Yangon        MMR11006010934480448790601000000000000000   10300001F05104100000000012012000000000000     
100   95030301100022270000000000037861000000037861002000000010410406010504161581014773800601171341116151   1030000900030000   806219001559190110000000290Grand Hanthar Hospital YANGONUT      MMR11006010504161581010601000000000000000   10300001F00104100000000002272000000000000     
100   95050314893649800000000000011760000000011760002000000010410406010501233123094444120601000007259040   1020000200030000   333400010001204104000000281Myanmar Soft-Gate Tech Yangon        MMR11006010501233123090601000000000000000   10300001F05104100000000002470000000000000     
100   95050310735627670000000000011200000000011200002000000010410406010010324032484553810601000007256939   1030000200030000   333800010001203104000003327KBZPay                 Yangon        MMR11006010010324032480601000000000000000   10300001F05104100000000002352000000000000     
100   95050319928585020000000000004900000000004900002000000010410406010918144814462805430601000007261497   1020000200030000   333400010001204104000000281Myanmar Soft-Gate Tech Yangon        MMR11006010918144814460601000000000000000   10300001F05104100000000001029000000000000     
100   62443100315110470000000000010000000000010000002000000010410406010416134613154504370601000007258584   1030000900030000   333400010001202104000002022ACS                    Yangon        MMR11006010416134613150601000000000000000   10300001F05104100000000002100000000000000     
100   95050317284600370000000000090000000000090000002000000010410406011119114911091883530601000007262362   1030000200030000   333800010001203104000003327KBZPay                 Yangon        MMR11006011119114911090601000000000000000   10300001F05104100000000018900000000000000     
100   95050319468370810000000000013000000000013000002000000010410406010956322632474337530601000007261810   1030000900030000   333400010001202104000002022ACS                    Yangon        MMR11006010956322632470601000000000000000   10300001F05104100000000002730000000000000     
100   62443100333488440000000000036350000000036350002000000010410406010647142948380074270601641171332151   1030000500030000   555610118964104519000016137City Mart South Okkala WZYD BR       MMR11006010647142948380601000000000000000   10300001 00104100000000009088000000000000     
100   62911028202169750000000000002600000000002600002000000010410406010805162957534773800601564371456151   1030000500030000   555610123193104519000019444Neighbourhood Shwe Moe Kaung         MMR11006010805162957530601000000000000000   10300001 00104100000000000156000000000000     
100   95050319528093960000000000002940000000002940002000000010410406011029185918281748990601000007262047   1020000200030000   333400010001204104000000281Myanmar Soft-Gate Tech Yangon        MMR11006011029185918280601000000000000000   10300001F05104100000000000617000000000000     
100   62911028202684060000000000040800000000040800002000000010410406010506561368824773800601215212136882   1040001600030000   591220000277000000010000265Shwe Ohh Pharmacy (Thu Yangon        MMR11006010506561368820601000000000000000   10300001F00104100000000002448000000000000     
100   95050317338786370000000000003000000000003000002000000010410406010859062906620996540601000007261349   1030000200030000   3334000100012031040000040102C2P (Myanmar) Co. Ltd Yangon        MMR11006010859062906620601000000000000000   10300001F05104100000000000630000000000000     
100   95050312224678430000000000001960000000001960002000000010410406010202243224128078420601000007257310   1020000200030000   333400010001204104000000281Myanmar Soft-Gate Tech Yangon        MMR11006010202243224120601000000000000000   10300001F05104100000000000412000000000000     
100   95050310735627670000000000099100000000099100002000000010410406010013424342999511270601000007256950   1030000200030000   333800010001203104000003327KBZPay                 Yangon        MMR11006010013424342990601000000000000000   10300001F05104100000000020811000000000000     
100   95050327416134790000000000002940000000002940002000000010410406011021205120213741860601000007261980   1020000200030000   333400010001204104000000281Myanmar Soft-Gate Tech Yangon        MMR11006011021205120210601000000000000000   10300001F05104100000000000617000000000000     
100   95050314117051850000000000020000000000020000002000000010410405312345391539578539550601000007256915   1030000200030000   3338000100012031040000040022C2P (Myanmar) Co. Ltd Yangon        MMR11005312345391539570601000000000000000   10300001F05104100000000004200000000000000     
100   95050315615561720000000000000980000000000980002000000010410406010358262826582121670601000007258381   1020000200030000   333400010001204104000000281Myanmar Soft-Gate Tech Yangon        MMR11006010358262826580601000000000000000   10300001F05104100000000000206000000000000     
100   62911028202074950000000000001700000000001700002000000010410406010947122969234773800601756171633151   1030000500030000   555610118971104519000016137City Mart South Okkala WZYD BR       MMR11006010947122969230601000000000000000   10300001 00104100000000000102000000000000     
100   95050314570621780000000000001960000000001960002000000010410406010210144014904858540601000007257346   1020000200030000   333400010001204104000000281Myanmar Soft-Gate Tech Yangon        MMR11006010210144014900601000000000000000   10300001F05104100000000000412000000000000     
100   95050312962334280000000000000980000000000980002000000010410406011119034903200231040601000007262347   1020000200030000   333400010001204104000000281Myanmar Soft-Gate Tech Yangon        MMR11006011119034903200601000000000000000   10300001F05104100000000000206000000000000     
100   95050314749068520000000000006657000000006657002000000010410406011043162976264713570601479141758151   1030000500030000   555610103978104519000003818Ocean Oattara Thiri Na PyiTaw        MMR11006011043162976260601000000000000000   10300001 00104100000000001665000000000000     
100   62911028202761360000000000028098000000028098002000000010410406010957162970704773800601892301611151   1030000500030000   555610103976104519000003818Ocean Oattara Thiri Na PyiTaw        MMR11006010957162970700601000000000000000   10300001 00104100000000001686000000000000     
100   95050314735271470000000000065000000000065000002000000010410406011201243124307911580601000007262591   1030000200030000   333800010001203104000003327KBZPay                 Yangon        MMR11006011201243124300601000000000000000   10300001F05104100000000013650000000000000     
100   95030331359799240000000000005000000000005000002000000010410406010505023502394773800601000007259076   1030000200030000   3338000100012031040000040022C2P (Myanmar) Co. Ltd Yangon        MMR11006010505023502390601000000000000000   10300001F05104100000000001050000000000000     
100   95050310409767690000000000150000000000150000002000000010410406010415184518856837620601000007258586   1030000200030000   333800010001203104000003327KBZPay                 Yangon        MMR11006010415184518850601000000000000000   10300001F05104100000000031500000000000000     
100   95050319528093960000000000004900000000004900002000000010410406010312424242947666720601000007257874   1020000200030000   333400010001204104000000281Myanmar Soft-Gate Tech Yangon        MMR11006010312424242940601000000000000000   10300001F05104100000000001029000000000000     
100   95050316234969530000000000100000000000100000002000000010410406010430500050590433540601000007258732   1030000200030000   333800010001203104000003327KBZPay                 Yangon        MMR11006010430500050590601000000000000000   10300001F05104100000000021000000000000000     
100   62911028202708080000000000031850000000031850002000000010410406011021090072594773800601000747804598   1030000200030000   541188001286000008000000472KBZ BANK               NEIGHBOURHOOD MMR11006011021090072590601000000000000000   10300001 00104100000000001911000000000000     
100   62443100340422630000000000020580000000020580002000000010410406011948500086808798190601000747836064   1030000200030000   541188001006000008000000008KBZ BANK               MARKETPLACE - MMR11006011948500086800601000000000000000   10300001 00104100000000005145000000000000     
100   62443100306045460000000000015600000000015600002000000010410406011822470017619308770601000747833330   1030000200030000   581288000855000008000004704KBZ BANK               PIZZA HUT RES MMR11006011822470017610601000000000000000   10300001 00104100000000006630000000000000     
100   95030380157605420000000000148640000000148640002000000010410406011148350032764773800601000747810439   1030000200030000   541188001483000008000000399KBZ BANK               OCEAN SUPERCE MMR11006011148350032760601000000000000000   10300001 00104100000000008918000000000000     
100   95050319888386410000000000315000000000315000002000000010410406011055030000308951240601000747806822   1030000200030000   594488000506000008000003327KBZ BANK               KHIT SAN JEWE MMR11006011055030000300601000000000000000   10300001 00104100000000075600000000000000     
100   62443101028043880000000000083895000000083895002000000010410406010751180000134350950601215214000013   1030000400030000   581230205731000003130200573KKS THAI FOOD AND B.B. YANGON        MMR11006010751180000130601000000000000000   10300001 00104100000000035656000000000000     
100   95030367537085740000000000004900000000004900002000000010410406010915594559704773800601000007261492   1020000200030000   333400010001204104000000281Myanmar Soft-Gate Tech Yangon        MMR11006010915594559700601000000000000000   10300001F05104100000000001029000000000000     
100   95050324773225760000000000050000000000050000002000000010410406011301363136938457810601000007262901   1030000200030000   333800010001203104000003327KBZPay                 Yangon        MMR11006011301363136930601000000000000000   10300001F05104100000000010500000000000000     
100   95050310213446310000000000019600000000019600002000000010410406011108243824128748750601000007262310   1020000200030000   333400010001204104000000281Myanmar Soft-Gate Tech Yangon        MMR11006011108243824120601000000000000000   10300001F05104100000000004116000000000000     
100   95030301100128610000000000300000000000300000002000000010410406010412234223244773800601000007258537   1030000200030000   333800010001203104000003327KBZPay                 Yangon        MMR11006010412234223240601000000000000000   10300001F05104100000000063000000000000000     
100   95050319938772870000000000000980000000000980002000000010410406011423475347482018060601000007263295   1020000200030000   333400010001204104000000281Myanmar Soft-Gate Tech Yangon        MMR11006011423475347480601000000000000000   10300001F05104100000000000206000000000000     
100   95050312695033440000000000000980000000000980002000000010410406011319554955710450680601000007262995   1020000200030000   333400010001204104000000281Myanmar Soft-Gate Tech Yangon        MMR11006011319554955710601000000000000000   10300001F05104100000000000206000000000000     
100   95050314534800510000000000000985000000000985002000000010410406010358402840273774160601000007258389   1020000200030000   333400010001204104000000281Myanmar Soft-Gate Tech Yangon        MMR11006010358402840270601000000000000000   10300001F05104100000000000207000000000000     
100   95050314307746340000000000000980000000000980002000000010410406010958052805732599950601000007261820   1020000200030000   333400010001204104000000281Myanmar Soft-Gate Tech Yangon        MMR11006010958052805730601000000000000000   10300001F05104100000000000206000000000000     
100   95050319532433550000000000037900000000037900002000000010410406011649070019925479440601000747829024   1030000200030000   541188001438000008000000401KBZ BANK               OCEAN SUPERCE MMR11006011649070019920601000000000000000   10300001 00104100000000009475000000000000     
100   95030329830382620000000000100000000000100000002000000010410406010830400040524773800601000007261086   1030000200030000   333800010001203104000003327KBZPay                 Yangon        MMR11006010830400040520601000000000000000   10300001F05104100000000021000000000000000     
100   95030308100042590000000000018108000000018108002000000010410406010801340042774773800601215214004277   1020000200030000   806200105002300018062000010MWD BANK               YGN           MMR11006010801340042770601000000000000000   10300001 00104100000000001087000000000000     
100   62911028202130710000000000002500000000002500002000000010410406011818440249234773800601000747833145   1030000200030000   541188001059000008000000314KBZ BANK               MARKETPLACE - MMR11006011818440249230601000000000000000   10300001 00104100000000000150000000000000     
100   62911028202166940000000000050650000000050650002000000010410406011609250180924773800601000747827340   1030000200030000   541188001126000008000000296KBZ BANK               CITY MART - J MMR11006011609250180920601000000000000000   10300001 00104100000000003039000000000000     
100   62911028202166940000000000032650000000032650002000000010410406011605170183864773800601000747827188   1030000200030000   541188001124000008000000296KBZ BANK               CITY MART - J MMR11006011605170183860601000000000000000   10300001 00104100000000001959000000000000     
100   62911028202355870000000001000000000001000000002000000010410406010343081308414773800601000007258244   1040001600030000   333800010001220104000004507A +                    Yangon        MMR11006010343081308410601000000000000000   10300001F05104100000000210000000000000000     
100   62911028202142930000000000033000000000033000002000000010410406010851381487044773800601215215148704   1040001600030000   598320000659000000010000528Shwe Taung Energy (YGN Yangon        MMR11006010851381487040601000000000000000   10300001F00104100000000000990000000000000     
100   62911028202151340000000000011150000000011150002000000010410406010812462958034773800601608411445151   1030000300030000   444410125393104519000021220Myanmar Bakery CoLtd                 MMR11006010812462958030601000000000000000   10300001 00104100000000001137000000000000     
100   62911028202593140000000000008700000000008700002000000010410406010701532950324773800601846321350151   1030000500030000   555610112238104519000010487Ocean Super Center St  ohn           MMR11006010701532950320601000000000000000   10300001 00104100000000000522000000000000     
100   95050322990383760000000000001000000000001000002000000010410406010410014001993603960601000007258501   1030000200030000   3334000100012031040000040102C2P (Myanmar) Co. Ltd Yangon        MMR11006010410014001990601000000000000000   10300001F05104100000000000210000000000000     
100   95050326393773020000000000002940000000002940002000000010410406010905033503138018170601000007261403   1020000200030000   333400010001204104000000281Myanmar Soft-Gate Tech Yangon        MMR11006010905033503130601000000000000000   10300001F05104100000000000617000000000000     
100   95050317248519320000000000020000000000020000002000000010410406011418194819787060620601000007263264   1030000200030000   3338000100012031040000040022C2P (Myanmar) Co. Ltd Yangon        MMR11006011418194819780601000000000000000   10300001F05104100000000004200000000000000     
100   95050325139996190000000000003300000000003300002000000010410406010316444644949738980601000007257920   1030000200030000   333300010001203104000003632Myanmar Tradenet Test  Yangon        MMR11006010316444644940601000000000000000   10300001F05104100000000010000000000000000     
100   62443100317500820000000000007200000000007200002000000010410406011024042974338444020601289001730151   1030000300030000   444410125270104519000021124SP Bakery North Dagon  apital        MMR11006011024042974330601000000000000000   10300001 00104100000000003060000000000000     
100   95030331359799240000000000010000000000010000002000000010410406011211284128814773800601000007262643   1040001600030000   333800010001220104000004507A +                    Yangon        MMR11006011211284128810601000000000000000   10300001F05104100000000002100000000000000     
100   95050314649264560000000000004900000000004900002000000010410406010544201420529777610601000007259487   1020000200030000   333400010001204104000000281Myanmar Soft-Gate Tech Yangon        MMR11006010544201420520601000000000000000   10300001F05104100000000001029000000000000     
100   95050319709462380000000000000980000000000980002000000010410406010235200520705660070601000007257494   1020000200030000   333400010001204104000000281Myanmar Soft-Gate Tech Yangon        MMR11006010235200520700601000000000000000   10300001F05104100000000000206000000000000     
100   95050311438762210000000000009800000000009800002000000010410406010835470547919003670601000007261133   1020000200030000   333400010001204104000000281Myanmar Soft-Gate Tech Yangon        MMR11006010835470547910601000000000000000   10300001F05104100000000002058000000000000     
100   62443100330108240000000000000980000000000980002000000010410406010238180818283766080601000007257508   1020000200030000   333400010001204104000000281Myanmar Soft-Gate Tech Yangon        MMR11006010238180818280601000000000000000   10300001F05104100000000000206000000000000     
100   62911028202355870000000001000000000001000000002000000010410406010344011401864773800601000007258257   1040001600030000   333800010001220104000004507A +                    Yangon        MMR11006010344011401860601000000000000000   10300001F05104100000000210000000000000000     
100   95050328074436620000000000009800000000009800002000000010410406010036410641925695720601000007256992   1020000200030000   333400010001204104000000281Myanmar Soft-Gate Tech Yangon        MMR11006010036410641920601000000000000000   10300001F05104100000000002058000000000000     
100   95050328074436620000000000009800000000009800002000000010410406010038260826077773680601000007256996   1020000200030000   333400010001204104000000281Myanmar Soft-Gate Tech Yangon        MMR11006010038260826070601000000000000000   10300001F05104100000000002058000000000000     
100   95050312498129060000000000008820000000008820002000000010410406010943391339259379710601000007261708   1020000200030000   333400010001204104000000281Myanmar Soft-Gate Tech Yangon        MMR11006010943391339250601000000000000000   10300001F05104100000000001852000000000000     
100   62911028202907560000000000091900000000091900002000000010410406010432022933304773800601200011156151   1030000300030000   555510124366104519000020166Makro Myanmar                        MMR11006010432022933300601000000000000000   10300001 00104100000000005514000000000000     
100   95050325139996190000000000003300000000003300002000000010410406010310204020506354620601000007257838   1030000200030000   333300010001203104000003632Myanmar Tradenet Test  Yangon        MMR11006010310204020500601000000000000000   10300001F05104100000000010000000000000000     
100   95050315889680120000000000010000000000010000002000000010410406010520005000199110630601000007259228   1030000200030000   333800010001203104000003327KBZPay                 Yangon        MMR11006010520005000190601000000000000000   10300001F05104100000000002100000000000000     
100   95050318180584510000000000070000000000070000002000000010410406010426255625630944110601000007258698   1030000200030000   333800010001203104000003327KBZPay                 Yangon        MMR11006010426255625630601000000000000000   10300001F05104100000000014700000000000000     
100   95050319938772870000000000000980000000000980002000000010410406011420225022595323030601000007263278   1020000200030000   333400010001204104000000281Myanmar Soft-Gate Tech Yangon        MMR11006011420225022590601000000000000000   10300001F05104100000000000206000000000000     
100   95050311959900780000000000004900000000004900002000000010410406010322095209285668140601000007257992   1020000200030000   333400010001204104000000281Myanmar Soft-Gate Tech Yangon        MMR11006010322095209280601000000000000000   10300001F05104100000000001029000000000000     
100   95050311458479980000000000008000000000008000002000000010410406011355202520215408130601000007263169   1030000200030000   3338000100012031040000040022C2P (Myanmar) Co. Ltd Yangon        MMR11006011355202520210601000000000000000   10300001F05104100000000001680000000000000     
100   62911028202232860000000000062262000000062262002000000010410406010510082936964773800601538391143151   1030000500030000   555610112256104519000010487Ocean Super Center St  ohn           MMR11006010510082936960601000000000000000   10300001 00104100000000003736000000000000     
