100   95030393174848800000000000068650000000068650002000000010410406020818100002974773800602000747870973   1030000200030000   591288002327000008000006195KBZ BANK               ORCHID (TKT-2 MMR11006020818100002970602000000000000000   10300001 00104100000000004119000000000000     
100   62911028202756820000000000052910000000052910002000000010410406021524170025414773800602000747873035   1030000200030000   541188001481000008000000399KBZ BANK               OCEAN SUPERCE MMR11006021524170025410602000000000000000   10300001 00104100000000003175000000000000     
100   95050329698388160000000000200000000000200000002000000010410406020433230323402210120602000007265595   1030000200030000   333800010001203104000003327KBZPay                 Yangon        MMR11006020433230323400602000000000000000   10300001F05104100000000042000000000000000     
100   62443100350052510000000000010000000000010000002000000010410406020533130313296857130602000007266153   1030000300030000   333300010001206104000002147DICA Company Limited   Yangon        MMR11006020533130313290602000000000000000   10300001F05104100000000010000000000000000     
100   95030301100128610000000000100000000000100000002000000010410406020230280028024773800602000007264488   1030000200030000   333800010001203104000003327KBZPay                 Yangon        MMR11006020230280028020602000000000000000   10300001F05104100000000021000000000000000     
100   95050318057347910000000000019972000000019972002000000010410406021658030053359516980602000747877178   1030000200030000   541188001440000008000000401KBZ BANK               OCEAN SUPERCE MMR11006021658030053350602000000000000000   10300001 00104100000000004993000000000000     
100   95030350385420630000000000006550000000006550002000000010410406021204000189764773800602000747859647   1030000200030000   541188001082000008000000294KBZ BANK               CITY MART - J MMR11006021204000189760602000000000000000   10300001 00104100000000000393000000000000     
100   62911028202696360000000000025300000000025300002000000010410406021530150345194773800602000747873310   1030000200030000   541188001325000008000000304KBZ BANK               CITY MART - S MMR11006021530150345190602000000000000000   10300001 00104100000000001518000000000000     
100   95050315681162360000000000300000000000300000002000000010410406020235290529384946990602000007264519   1030000200030000   333800010001203104000003327KBZPay                 Yangon        MMR11006020235290529380602000000000000000   10300001F05104100000000063000000000000000     
100   95050318617855880000000000002940000000002940002000000010410406021234010401929396230602000007269152   1020000200030000   333400010001204104000000281Myanmar Soft-Gate Tech Yangon        MMR11006021234010401920602000000000000000   10300001F05104100000000000617000000000000     
100   95050310213446310000000000009800000000009800002000000010410406020236450645901642030602000007264531   1020000200030000   333400010001204104000000281Myanmar Soft-Gate Tech Yangon        MMR11006020236450645900602000000000000000   10300001F05104100000000002058000000000000     
100   62911028202204800000000000049400000000049400002000000010410406021611430030904773800602000747875350   1030000200030000   541188001079000008000000294KBZ BANK               CITY MART - J MMR11006021611430030900602000000000000000   10300001 00104100000000002964000000000000     
100   62443100335647210000000000016660000000016660002000000010410406021531190119082616100602000007269928   1020000200030000   333400010001204104000000281Myanmar Soft-Gate Tech Yangon        MMR11006021531190119080602000000000000000   10300001F05104100000000003499000000000000     
100   62911028202684060000000000027400000000027400002000000010410406021018550158534773800602000747852847   1030000200030000   541188001306000008000000325KBZ BANK               CITY MART - A MMR11006021018550158530602000000000000000   10300001 00104100000000001644000000000000     
100   95030301100125070000000000007800000000007800002000000010410406021704160113454773800602000747877439   1030000200030000   541188001189000008000000383KBZ BANK               OCEAN SUPER C MMR11006021704160113450602000000000000000   10300001 00104100000000000468000000000000     
100   95050311959900780000000000000980000000000980002000000010410406021234430443301048710602000007269155   1020000200030000   333400010001204104000000281Myanmar Soft-Gate Tech Yangon        MMR11006021234430443300602000000000000000   10300001F05104100000000000206000000000000     
100   95050325141379530000000000051000000000051000002000000010410405310108020021513486790531215107002151   1030000500030000   598320041903000055983200419MAX ENERGY             PTN           MMR11005310108020021510531000000000000000   10300001 00104100000000006120000000000000     
100   62911028202184760000000000016650000000016650002000000010410405310713560013534773800531215113001353   1030000500030000   541120020801022205411200208ORANGE (TAMWE)         PTN           MMR11005310713560013530531000000000000000   10300001 00104100000000000999000000000000     
100   95030308100042590000000000107107000000107107002000000010410405310437200027774773800531215111002777   1030000500030000   598320001701000015172200017MAX ENERGY             PTN           MMR11005310437200027770531000000000000000   10300001 00104100000000003213000000000000     
100   62911028202668300000000000030000000000030000002000000010410405310131400035824773800531215108003582   1030000500030000   598320001303000015172200013MAX ENERGY             PTN           MMR11005310131400035820531000000000000000   10300001 00104100000000000900000000000000     
100   95030346645639490000000000015386000000015386002000000010410405310640280011564773800531215113001156   1030000500030000   531120155714000045311201557GAMONE PWINT           PTN           MMR11005310640280011560531000000000000000   10300001 00104100000000000923000000000000     
100   62911028202464440000000000018650000000018650002000000010410405310612190002094773800531215112000209   1030000500030000   591220012301014405912200123SHWE OHH PHARMACY      PTN           MMR11005310612190002090531000000000000000   10300001 00104100000000001119000000000000     
100   95050324154190880000000000022000000000022000002000000010410405310107410024185139280531215107002418   1030000500030000   598320001603000015172200016MAX ENERGY             PTN           MMR11005310107410024180531000000000000000   10300001 00104100000000002640000000000000     
100   95030308100042590000000000050000000000050000002000000010410405310436530027764773800531215111002776   1030000500030000   598320001701000015172200017MAX ENERGY             PTN           MMR11005310436530027760531000000000000000   10300001 00104100000000001500000000000000     
100   62911028202150190000000000010100000000010100002000000010410405310757270001414773800531215114000141   1030000500030000   571220205201000045712202052LOCK & LOCK            PTN           MMR11005310757270001410531000000000000000   10300001 00104100000000000606000000000000     
100   62911028202231380000000000017010000000017010002000000010410405310834290003364773800531215115000336   1030000500030000   581220199401000085812201994LITTLE BOSS MAWTIN     PTN           MMR11005310834290003360531000000000000000   10300001 00104100000000001735000000000000     
100   62911028202448030000000000002900000000002900002000000010410405311112030011294773800531215117001129   1030000500030000   541120020701022205411200207ORANGE (YDG)           PTN           MMR11005311112030011290531000000000000000   10300001 00104100000000000174000000000000     
100   62911028202696360000000000035000000000035000002000000010410405310144130037794773800531215108003779   1030000500030000   598320001404000015172200014MAX ENERGY             PTN           MMR11005310144130037790531000000000000000   10300001 00104100000000001050000000000000     
100   62911028202404050000000000050000000000050000002000000010410405310002160037624773800531215106003762   1030000500030000   598320001404000015172200014MAX ENERGY             PTN           MMR11005310002160037620531000000000000000   10300001 00104100000000001500000000000000     
100   95030305700676370000000000070000000000070000002000000010410405311020030072424773800531215110007242   1030000600030000   554100002141315799420001490DENKO MEIKHTILA 3      MANDALAY      MMR11005311020030072420531000000000000000   10300001 00104100000000002100000000000000     
100   95050322295410690000000000024500000000024500002000000010410406020848560004172843810602000747872791   1030000200030000   569988002288000008000006047KBZ BANK               PAPILLON - JU MMR11006020848560004170602000000000000000   10300001 00104100000000005880000000000000     
100   95030393174848800000000000124550000000124550002000000010410406020816190002964773800602000747870895   1030000200030000   591288002327000008000006195KBZ BANK               ORCHID (TKT-2 MMR11006020816190002960602000000000000000   10300001 00104100000000007473000000000000     
100   95050326228858240000000000045477000000045477002000000010410406011232330007064096030601215219000706   1030000500030000   581220024101000015812200241SHWE LAR HOT POT       PTN           MMR11006011232330007060601000000000000000   10300001 00104100000000019328000000000000     
100   62911028202665170000000000080000000000080000002000000010410406010223070034384773800601215208003438   1030000500030000   598320001203000015172200012MAX ENERGY             PTN           MMR11006010223070034380601000000000000000   10300001 00104100000000002400000000000000     
100   62443100306416880000000000022523000000022523002000000010410406011153330038379649160601215218003837   1030000500030000   598320001304000015172200013MAX ENERGY             PTN           MMR11006011153330038370601000000000000000   10300001 00104100000000002703000000000000     
100   95050327936713000000000000024435000000024435002000000010410406011115100002953365820601000348039258   1030000300030000   591200000214000000000000111CB BANK                MEDICARE STOR MMR11006011115100002950601000000000000000   10300001F00104100000000005864000000000000     
100   95050326228858240000000000047239000000047239002000000010410406010137020029000156380601215201002900   1030000600030000   581200002268315799420001575SIGNATURE FINEDINING 4 YANGON        MMR11006010137020029000601000000000000000   10300001 00104100000000020077000000000000     
100   62911028202559990000000000050000000000050000002000000010410406010446010005064773800601215211000506   1030000500030000   598320198202000075983201982MOON SUN NORTH OKKALAP PTN           MMR11006010446010005060601000000000000000   10300001 00104100000000001500000000000000     
100   95050327243132200000000000021500000000021500002000000010410406010734030013746975150601215214001374   1030000500030000   531120156005000045311201560GAMONE PWINT           PTN           MMR11006010734030013740601000000000000000   10300001 00104100000000005160000000000000     
100   95050327243132200000000000010400000000010400002000000010410406010055260000943958140601000347953397   1030000300030000   541100001610000000000001146CB BANK                ONE STOP MART MMR11006010055260000940601000000000000000   10300001F00104100000000002600000000000000     
100   95050312287957830000000000003500000000003500002000000010410406010810320011854847740601000348014127   1030000300030000   531100000904000000000000641CB BANK                MGOU-KTY      MMR11006010810320011850601000000000000000   10300001F00104100000000000840000000000000     
100   95050328384000040000000000059000000000059000002000000010410406010906210023916450780601215215002391   1030000500030000   598320002103000015172200021MAX ENERGY             PTN           MMR11006010906210023910601000000000000000   10300001 00104100000000007080000000000000     
100   62443101037081820000000000057330000000057330002000000010410406011133240058540798770601000747809459   1030000200030000   596588000900000008000000712KBZ BANK               AK CONCEPT SH MMR11006011133240058540601000000000000000   10300001 00104100000000013759000000000000     
100   62911028202245730000000000073200000000073200002000000010410406011039200002354773800601215217000235   1030000500030000   591220013801014405912200138SHWE OHH PHARMACY      PTN           MMR11006011039200002350601000000000000000   10300001 00104100000000004392000000000000     
100   95050313211495320000000000181400000000181400002000000010410406010334400003479703320601215210000347   1030000500030000   481220100501000014812201005LINN IT AND MOBILE (PY PTN           MMR11006010334400003470601000000000000000   10300001 00104100000000043536000000000000     
100   62911028202156540000000000480000000000480000002000000010410406010819140009004773800601215214000900   1030000500030000   806220046401006308062200464ASIA ROYAL HOSPITAL    PTN           MMR11006010819140009000601000000000000000   10300001 00104100000000028800000000000000     
100   62911028202185590000000000007550000000007550002000000010410406011057230004194773800601215217000419   1030000500030000   541120024601022205411200246ORANGE (THANLYIN)      PTN           MMR11006011057230004190601000000000000000   10300001 00104100000000000453000000000000     
100   62911028202147720000000000046000000000046000002000000010410406010310050024494773800601215209002449   1030000500030000   598320001604000015172200016MAX ENERGY             PTN           MMR11006010310050024490601000000000000000   10300001 00104100000000001380000000000000     
100   62911028202103410000000000030800000000030800002000000010410406010527510007894773800601215211000789   1030000500030000   591220132901008605912201329THEIK DI WIN SHOP      PTN           MMR11006010527510007890601000000000000000   10300001 00104100000000001848000000000000     
100   95050327243132200000000000018750000000018750002000000010410406010855510002814641900601000348020365   1030000300030000   531100000750000000000000408CB BANK                CAPITAL HYPER MMR11006010855510002810601000000000000000   10300001F00104100000000004500000000000000     
100   95050325784857510000000000052000000000052000002000000010410406010744550007755833240601000348010451   1030000300030000   573200000991000000000000705CB BANK                UNIQUE MOBILE MMR11006010744550007750601000000000000000   10300001F00104100000000012480000000000000     
100   95050322921717110000000000030000000000030000002000000010410406010132500023641893960601215208002364   1030000500030000   598320001601000015172200016MAX ENERGY             PTN           MMR11006010132500023640601000000000000000   10300001 00104100000000003600000000000000     
100   95030396594260770000000000030000000000030000002000000010410406010311360070574773800601215203007057   1030000600030000   554100001209315799420000661DENKO  MOTAMA          MOTAMA.       MMR11006010311360070570601000000000000000   10300001 00104100000000000900000000000000     
100   62911028202680670000000000042000000000042000002000000010410406010842400791454773800601215208079145   1030000600030000   554100000955315799420000477DENKO INSEIN           YANGON        MMR11006010842400791450601000000000000000   10300001 00104100000000001260000000000000     
100   62911028202023630000000000062000000000062000002000000010410406011123180234984773800601215211023498   1030000600030000   554100002085315799420000471DENKO BAHAN            YANGON        MMR11006011123180234980601000000000000000   10300001 00104100000000001860000000000000     
100   62911028202423360000000000050000000000050000002000000010410406010433300791104773800601215204079110   1030000600030000   554100000955315799420000477DENKO INSEIN           YANGON        MMR11006010433300791100601000000000000000   10300001 00104100000000001500000000000000     
100   95050329698388160000000000300000000000300000002000000010410406020431280128400557640602000007265580   1030000200030000   333800010001203104000003327KBZPay                 Yangon        MMR11006020431280128400602000000000000000   10300001F05104100000000063000000000000000     
100   95050319709462380000000000000980000000000980002000000010410406020131200120709188030602000007264251   1020000200030000   333400010001204104000000281Myanmar Soft-Gate Tech Yangon        MMR11006020131200120700602000000000000000   10300001F05104100000000000206000000000000     
100   95050310585042220000000000050400000000050400002000000010410406020231200120710074640602000007264470   1030000200030000   333800010001203104000003327KBZPay                 Yangon        MMR11006020231200120710602000000000000000   10300001F05104100000000010584000000000000     
100   95030308100010080000000000000980000000000980002000000010410406020530270027434773800602000007266140   1020000200030000   333400010001204104000000281Myanmar Soft-Gate Tech Yangon        MMR11006020530270027430602000000000000000   10300001F05104100000000000206000000000000     
100   62443100372718280000000000042100000000042100002000000010410406021019530189719182310602000747852899   1030000200030000   541188001082000008000000294KBZ BANK               CITY MART - J MMR11006021019530189710602000000000000000   10300001 00104100000000010525000000000000     
100   95050323667276610000000000039200000000039200002000000010410406020734580458256203940602000007267072   1020000200030000   333400010001204104000000281Myanmar Soft-Gate Tech Yangon        MMR11006020734580458250602000000000000000   10300001F05104100000000008232000000000000     
100   95050322312197120000000000060000000000060000002000000010410406020345351535127870210602000007265145   1030000200030000   333800010001203104000003327KBZPay                 Yangon        MMR11006020345351535120602000000000000000   10300001F05104100000000012600000000000000     
100   95050316430749210000000000012000000000012000002000000010410406020930501894445141420602669001650152   1030000900030000   541119000117190110000000078Sein Gay Har Kan Thar  YANGONOKKALAP MMR11006020930501894440602000000000000000   10300001F00104100000000003000000000000000     
100   62443100303702210000000000293000000000293000002000000010410406010231390426430532420601215202042643   1030000600030000   554100001009315799420000504DENKO SOUTH DAGON      YANGON        MMR11006010231390426430601000000000000000   10300001 00104100000000035160000000000000     
100   95030317922148660000000000051000000000051000002000000010410406010733240898814773800601215207089881   1030000600030000   554100000946315799420000471DENKO BAHAN            YANGON        MMR11006010733240898810601000000000000000   10300001 00104100000000001530000000000000     
100   95050325329474660000000000100000000000100000002000000010410406020851581884444411200602086211558152   1030000900030000   594419000581190110000000421Zwe Htet Gems & Jewell MANDALAYTHARS MMR11006020851581884440602000000000000000   10300001F00104100000000024000000000000000     
100   95050317465574180000000000010000000000010000002000000010410406011648171817118032330602000007263772   1030000200030000   333800010001203104000003327KBZPay                 Yangon        MMR11006011648171817110602000000000000000   10300001F05104100000000002100000000000000     
100   62911028202355870000000001000000000001000000002000000010410406020414074407164773800602000007265420   1040001600030000   333800010001220104000004507A +                    Yangon        MMR11006020414074407160602000000000000000   10300001F05104100000000210000000000000000     
100   62911028202355870000000001000000000001000000002000000010410406020412174217994773800602000007265399   1040001600030000   333800010001220104000004507A +                    Yangon        MMR11006020412174217990602000000000000000   10300001F05104100000000210000000000000000     
100   95050310305100650000000000055000000000055000002000000010410406020920085008845226510602000007268021   1030000200030000   3338000100012031040000040022C2P (Myanmar) Co. Ltd Yangon        MMR11006020920085008840602000000000000000   10300001F05104100000000011550000000000000     
100   62911028202870750000000000048450000000048450002000000010410406020415151812704773800602030451015152   1030000900030000   723019001446190110000001050Beauty Diary MDY 80    MANDALAYHARSA MMR11006020415151812700602000000000000000   10300001F00104100000000002907000000000000     
100   62911028202185590000000000002000000000002000002000000010410406021146351932124773800602020161835152   1030000900030000   581219000481190110000000334Shwepalin (TLKK)       YANGONIN      MMR11006021146351932120602000000000000000   10300001F00104100000000000204000000000000     
100   95050310332595380000000000000980000000000980002000000010410406020550432043554622760602000007266268   1020000200030000   333400010001204104000000281Myanmar Soft-Gate Tech Yangon        MMR11006020550432043550602000000000000000   10300001F05104100000000000206000000000000     
100   95030301100120280000000000010000000000010000002000000010410406011635260526564773800602000007263759   1030000200030000   333800010001203104000003327KBZPay                 Yangon        MMR11006011635260526560602000000000000000   10300001F05104100000000002100000000000000     
100   95050312498129060000000000004900000000004900002000000010410406021335260526274523870602000007269471   1020000200030000   333400010001204104000000281Myanmar Soft-Gate Tech Yangon        MMR11006021335260526270602000000000000000   10300001F05104100000000001029000000000000     
100   62443101063232860000000000049000000000049000002000000010410406020632372103231537430602215313210323   1040001600030000   598320000310000000010000298PT Power Petrol Statio Yangon        MMR11006020632372103230602000000000000000   10300001F00104100000000005880000000000000     
100   95050312728902740000000000055500000000055500002000000010410406020941121112288361290602000007268186   1030000200030000   333800010001203104000003327KBZPay                 Yangon        MMR11006020941121112280602000000000000000   10300001F05104100000000011655000000000000     
100   62911028202120400000000000038000000000038000002000000010410406020332211801574773800602414021021152   1030000900030000   554119000345190110000000212New Day Energy PZD     YANGONAUNG    MMR11006020332211801570602000000000000000   10300001F00104100000000001140000000000000     
100   62911028202616250000000000213000000000213000002000000010410406020915121889884773800602386451512152   1030000900030000   541119001068190110000000082Sein Gay Har Super Cen YANGON        MMR11006020915121889880602000000000000000   10300001F00104100000000012780000000000000     
100   62443100390038980000000000146200000000146200002000000010410406021254241949299736610602106241924152   1030000900030000   581219001106190110000000891Beauty in the pot 9mil YANGONONE     MMR11006021254241949290602000000000000000   10300001F00104100000000062135000000000000     
100   62911028202777790000000000007000000000007000002000000010410406020849491949984773800602000007267750   1030000200030000   333800010001203104000003327KBZPay                 Yangon        MMR11006020849491949980602000000000000000   10300001F05104100000000001470000000000000     
100   95050310456843760000000000000980000000000980002000000010410406021226345634564438780602000007269118   1020000200030000   333400010001204104000000281Myanmar Soft-Gate Tech Yangon        MMR11006021226345634560602000000000000000   10300001F05104100000000000206000000000000     
100   95050310427855490000000000000980000000000980002000000010410406020126355635372578090602000007264238   1020000200030000   333400010001204104000000281Myanmar Soft-Gate Tech Yangon        MMR11006020126355635370602000000000000000   10300001F05104100000000000206000000000000     
100   95050310456843760000000000004900000000004900002000000010410406021228225822692701190602000007269133   1020000200030000   333400010001204104000000281Myanmar Soft-Gate Tech Yangon        MMR11006021228225822690602000000000000000   10300001F05104100000000001029000000000000     
100   95050325630928770000000000000980000000000980002000000010410406020252252225936338480602000007264623   1020000200030000   333400010001204104000000281Myanmar Soft-Gate Tech Yangon        MMR11006020252252225930602000000000000000   10300001F05104100000000000206000000000000     
100   62911028202355870000000001000000000001000000002000000010410406020412324232054773800602000007265402   1040001600030000   333800010001220104000004507A +                    Yangon        MMR11006020412324232050602000000000000000   10300001F05104100000000210000000000000000     
100   95050322104201170000000000100000000000100000002000000010410406020329195919391515560602000007264971   1030000200030000   333800010001203104000003327KBZPay                 Yangon        MMR11006020329195919390602000000000000000   10300001F05104100000000021000000000000000     
100   95050319528093960000000000001960000000001960002000000010410406020338430843862657470602000007265075   1020000200030000   333400010001204104000000281Myanmar Soft-Gate Tech Yangon        MMR11006020338430843860602000000000000000   10300001F05104100000000000412000000000000     
100   95030314863516850000000000013000000000013000002000000010410406020647571757304773800602000007266678   1030000200030000   333800010001203104000003327KBZPay                 Yangon        MMR11006020647571757300602000000000000000   10300001F05104100000000002730000000000000     
100   95050318617855880000000000000980000000000980002000000010410406021346341634511218910602000007269517   1020000200030000   333400010001204104000000281Myanmar Soft-Gate Tech Yangon        MMR11006021346341634510602000000000000000   10300001F05104100000000000206000000000000     
100   62911028202019440000000000006460000000006460002000000010410406020334261802004773800602433041026152   1030000900030000   541119001266190110000000958City Mart PLST C9      YANGONMYOTHIT MMR11006020334261802000602000000000000000   10300001F00104100000000000388000000000000     
100   95050324250133010000000000080000000000080000002000000010410406020129011952827535540602215308195282   1040001600030000   598320000911000000010000662MMTM - Tamwe           Ygn           MMR11006020129011952820602000000000000000   10300001F00104100000000009600000000000000     
100   95050312498129060000000000000980000000000980002000000010410406012248171817174642260602000007264043   1020000200030000   333400010001204104000000281Myanmar Soft-Gate Tech Yangon        MMR11006012248171817170602000000000000000   10300001F05104100000000000206000000000000     
100   62911028202185590000000000003310000000003310002000000010410406021144551931584773800602984141855152   1030000900030000   581219000481190110000000334Shwepalin (TLKK)       YANGONIN      MMR11006021144551931580602000000000000000   10300001F00104100000000000338000000000000     
100   62911028202260320000000000268000000000268000002000000010410406020618571844814773800602890481257152   1030000900030000   729819000945190110000000752SML Clinic             YANGON        MMR11006020618571844810602000000000000000   10300001F00104100000000016080000000000000     
100   95050314649264560000000000050000000000050000002000000010410406021033170317112226270602000007268556   1030000200030000   333800010001203104000003327KBZPay                 Yangon        MMR11006021033170317110602000000000000000   10300001F05104100000000010500000000000000     
100   62443100369813440000000000020000000000020000002000000010410406010212250037886511030601215208003788   1030000500030000   598320001304000015172200013MAX ENERGY             PTN           MMR11006010212250037880601000000000000000   10300001 00104100000000002400000000000000     
100   62443100355445150000000000040150000000040150002000000010410405310952580002394389560531215116000239   1030000500030000   591220013201014405912200132SHWE OHH PHARMACY      PTN           MMR11005310952580002390531000000000000000   10300001 00104100000000009636000000000000     
100   62443100333488440000000000060270000000060270002000000010410406020328113027634905630602888570910152   1030000500030000   555610118969104519000016137City Mart South Okkala WZYD BR       MMR11006020328113027630602000000000000000   10300001 00104100000000015068000000000000     
100   95050312139901420000000000000980000000000980002000000010410406021521045104307573560602000007269886   1020000200030000   333400010001204104000000281Myanmar Soft-Gate Tech Yangon        MMR11006021521045104300602000000000000000   10300001F05104100000000000206000000000000     
100   62911028202685390000000000025474000000025474002000000010410406020307521796244773800602127370952152   1030000900030000   806219000432190110000000290Grand Hanthar Hospital YANGONUT      MMR11006020307521796240602000000000000000   10300001F00104100000000001528000000000000     
100   62443100379321630000000000095000000000095000002000000010410406020608461842307417150602756381246152   1030000900030000   554119001099190110000000211New Day Energy SCH     YANGONUNG     MMR11006020608461842300602000000000000000   10300001F00104100000000011400000000000000     
100   95030318100002710000000000002940000000002940002000000010410406020614594459664773800602000007266444   1020000200030000   333400010001204104000000281Myanmar Soft-Gate Tech Yangon        MMR11006020614594459660602000000000000000   10300001F05104100000000000617000000000000     
100   95050318617855880000000000000980000000000980002000000010410406021348121812262360810602000007269519   1020000200030000   333400010001204104000000281Myanmar Soft-Gate Tech Yangon        MMR11006021348121812260602000000000000000   10300001F05104100000000000206000000000000     
100   95050328074436620000000000036002000000036002002000000010410406021214211940086091260602538441821152   1030000900030000   554119001037190110000000842Puma Power(BBIBB)      MONON         MMR11006021214211940080602000000000000000   10300001F00104100000000004320000000000000     
100   95050318180584510000000000005000000000005000002000000010410406021345381538659566420602000007269513   1030000200030000   333800010001203104000003327KBZPay                 Yangon        MMR11006021345381538650602000000000000000   10300001F05104100000000001050000000000000     
100   95050313400680100000000000055440000000055440002000000010410406020348261826810579500602000007265171   1030000900030000   333800010001202104000003301uab bank               Yangon        MMR11006020348261826810602000000000000000   10300001F05104100000000011642000000000000     
100   95050313003526690000000000295000000000295000002000000010410406020637410741869884940602000007266586   1030000200030000   333800010001203104000003327KBZPay                 Yangon        MMR11006020637410741860602000000000000000   10300001F05104100000000061950000000000000     
100   62443100395250310000000000001960000000001960002000000010410406020544131413906445440602000007266210   1020000200030000   333400010001204104000000281Myanmar Soft-Gate Tech Yangon        MMR11006020544131413900602000000000000000   10300001F05104100000000000412000000000000     
100   95050316997303010000000000100000000000100000002000000010410406020446531653573096740602000007265728   1030000200030000   333800010001203104000003327KBZPay                 Yangon        MMR11006020446531653570602000000000000000   10300001F05104100000000021000000000000000     
100   62911028202170490000000000015400000000015400002000000010410406020421371814214773800602113511037152   1030000900030000   541119001248190110000000955City Mart JS C 7       YANGONUT      MMR11006020421371814210602000000000000000   10300001F00104100000000000924000000000000     
100   62911028202355870000000001000000000001000000002000000010410406020413224322854773800602000007265411   1040001600030000   333800010001220104000004507A +                    Yangon        MMR11006020413224322850602000000000000000   10300001F05104100000000210000000000000000     
100   95050319468370810000000000001000000000001000002000000010410406020709583958935133340602000007266857   1030000200030000   3334000100012031040000040102C2P (Myanmar) Co. Ltd Yangon        MMR11006020709583958930602000000000000000   10300001F05104100000000000210000000000000     
100   95050317248519320000000000005000000000005000002000000010410406020326405640892111230602000007264958   1030000200030000   3338000100012031040000040022C2P (Myanmar) Co. Ltd Yangon        MMR11006020326405640890602000000000000000   10300001F05104100000000001050000000000000     
100   95050316785465380000000000001960000000001960002000000010410406021117524752657013530602000007268771   1020000200030000   333400010001204104000000281Myanmar Soft-Gate Tech Yangon        MMR11006021117524752650602000000000000000   10300001F05104100000000000412000000000000     
100   95050318694773110000000000045000000000045000002000000010410406020852112211307801260602000007267775   1030000200030000   3338000100012031040000040022C2P (Myanmar) Co. Ltd Yangon        MMR11006020852112211300602000000000000000   10300001F05104100000000009450000000000000     
100   62443100388528570000000000031130000000031130002000000010410405311315440015590708550531215119001559   1030000500030000   581220045301000015812200453TASTE II               PTN           MMR11005311315440015590531000000000000000   10300001 00104100000000013231000000000000     
100   62911028202194090000000000034335000000034335002000000010410406010919310034704773800601215215003470   1030000500030000   598320001203000015172200012MAX ENERGY             PTN           MMR11006010919310034700601000000000000000   10300001 00104100000000001030000000000000     
100   95050312287957830000000000004500000000004500002000000010410406010803060011844521150601000348013029   1030000300030000   531100000904000000000000641CB BANK                MGOU-KTY      MMR11006010803060011840601000000000000000   10300001F00104100000000001080000000000000     
100   62911028202185590000000000001260000000001260002000000010410406021147371932404773800602039171837152   1030000900030000   581219000481190110000000334Shwepalin (TLKK)       YANGONIN      MMR11006021147371932400602000000000000000   10300001F00104100000000000129000000000000     
100   95050319156011610000000000002940000000002940002000000010410406011747341734014727360602000007263880   1020000200030000   333400010001204104000000281Myanmar Soft-Gate Tech Yangon        MMR11006011747341734010602000000000000000   10300001F05104100000000000617000000000000     
100   95030301100124400000000000025967000000025967002000000010410406021128511927014773800602683581751152   1030000900030000   541119001264190110000000958City Mart PLST C 7     YANGONMYOTHIT MMR11006021128511927010602000000000000000   10300001F00104100000000001558000000000000     
100   62911028202169750000000000139575000000139575002000000010410406020424582031254773800602215311203125   1040001600030000   541120000557000000010000465Ocean Shwe Gone Daing  Yangon        MMR11006020424582031250602000000000000000   10300001F00104100000000008375000000000000     
100   95050323843042610000000000300000000000300000002000000010410406021148571857396502950602000007268924   1030000200030000   333800010001203104000003327KBZPay                 Yangon        MMR11006021148571857390602000000000000000   10300001F05104100000000063000000000000000     
100   95050312940629360000000000011700000000011700002000000010410406020804241872013955780602394341424152   1030000900030000   541119000120190110000000080Sein Gay Har BAK       YANGONADA     MMR11006020804241872010602000000000000000   10300001F00104100000000002925000000000000     
100   95050323843042610000000000300000000000300000002000000010410406021150122012398070350602000007268931   1030000200030000   333800010001203104000003327KBZPay                 Yangon        MMR11006021150122012390602000000000000000   10300001F05104100000000063000000000000000     
100   95030301100022270000000000250000000000250000002000000010410406020619431845074773800602906491243152   1030000900030000   599919001141190110000000921Lucky Man South Okkala YANGONOKKALAP MMR11006020619431845070602000000000000000   10300001F00104100000000015000000000000000     
100   95050311419479170000000000001960000000001960002000000010410406021510244024715921070602000007269847   1020000200030000   333400010001204104000000281Myanmar Soft-Gate Tech Yangon        MMR11006021510244024710602000000000000000   10300001F05104100000000000412000000000000     
100   95050316997303010000000000010000000000010000002000000010410406020925515551177134280602000007268066   1040001600030000   333800010001220104000004507A +                    Yangon        MMR11006020925515551170602000000000000000   10300001F05104100000000002100000000000000     
100   95050310746600650000000000050400000000050400002000000010410406020225525552716514390602000007264462   1030000200030000   333800010001203104000003327KBZPay                 Yangon        MMR11006020225525552710602000000000000000   10300001F05104100000000010584000000000000     
100   95050312498129060000000000009500000000009500002000000010410406012259222922566294750602000007264047   1030000200030000   3333000100012031040000040282C2P (Myanmar) Co. Ltd Yangon        MMR11006012259222922560602000000000000000   10300001F05104100000000010000000000000000     
100   95050320394567060000000000025800000000025800002000000010410405312313060008862014710601215205000886   1030000500030000   806220046404006308062200464ASIA ROYAL HOSPITAL    PTN           MMR11005312313060008860601000000000000000   10300001 00104100000000006192000000000000     
100   95050310332595380000000000002940000000002940002000000010410406020944241424047765610602000007268212   1020000200030000   333400010001204104000000281Myanmar Soft-Gate Tech Yangon        MMR11006020944241424040602000000000000000   10300001F05104100000000000617000000000000     
100   95050313072967520000000000015000000000015000002000000010410406021425535553943843100602000007269659   1030000200030000   3338000100012031040000040022C2P (Myanmar) Co. Ltd Yangon        MMR11006021425535553940602000000000000000   10300001F05104100000000003150000000000000     
100   95030314863516850000000000002500000000002500002000000010410406020924225422344773800602000007268059   1030000200030000   333800010001203104000003327KBZPay                 Yangon        MMR11006020924225422340602000000000000000   10300001F05104100000000000525000000000000     
100   62911028202120400000000000049900000000049900002000000010410406020508561827114773800602881381156152   1030000900030000   591219000609190110000000449Shwe Ohh Pharmacy St-3 YANGONAUNG    MMR11006020508561827110602000000000000000   10300001F00104100000000002994000000000000     
100   95050318180584510000000000015000000000015000002000000010410406012246301630646379840602000007264041   1030000200030000   333800010001203104000003327KBZPay                 Yangon        MMR11006012246301630640602000000000000000   10300001F05104100000000003150000000000000     
100   95030364439875210000000000008200000000008200002000000010410406020445211821144773800602546151121152   1030000900030000   541119001249190110000000955City Mart JS C 8       YANGONUT      MMR11006020445211821140602000000000000000   10300001F00104100000000000492000000000000     
100   62911028202133940000000000014100000000014100002000000010410406021044491913974773800602844141749152   1030000900030000   591219001420190110000001024Life Plus Store 25     YANGONN       MMR11006021044491913970602000000000000000   10300001F00104100000000000846000000000000     
100   95050310750557450000000000020000000000020000002000000010410406020236261984849989540602215309198484   1040001600030000   591220000299000000010000287Shwe Ohh Pharmacy (Yan Yangon        MMR11006020236261984840602000000000000000   10300001F00104100000000004800000000000000     
100   95050316997303010000000000300000000000300000002000000010410406020445171517353692410602000007265709   1030000200030000   333800010001203104000003327KBZPay                 Yangon        MMR11006020445171517350602000000000000000   10300001F05104100000000063000000000000000     
100   95050325329474660000000000337500000000337500002000000010410406020834451880091531710602858041545152   1030000900030000   594419000581190110000000421Zwe Htet Gems & Jewell MANDALAYTHARS MMR11006020834451880090602000000000000000   10300001F00104100000000081000000000000000     
100   95050320360851930000000000004900000000004900002000000010410406020036280628954826250602000007264141   1020000200030000   333400010001204104000000281Myanmar Soft-Gate Tech Yangon        MMR11006020036280628950602000000000000000   10300001F05104100000000001029000000000000     
100   62911028202124790000000000067500000000067500002000000010410406020718427314804773800602484279530691   1040001400030000   555610000607025556100003510119 Store null No-119  Anawrahta Roa MMR11006020718427314800602000000000000000   10300001 00104100000000004050000000000000     
100   95050317919176400000000000011515000000011515002000000010410406021250343085107999040602581281942152   1030000500030000   555610120939104519000017714City Mart Yuzana Dagon Seikkan       MMR11006021250343085100602000000000000000   10300001 00104100000000002879000000000000     
100   95050329632900220000000000070000000000070000002000000010410406010125200036475284030601215207003647   1030000500030000   598320001303000015172200013MAX ENERGY             PTN           MMR11006010125200036470601000000000000000   10300001 00104100000000008400000000000000     
100   95030367537085740000000000000980000000000980002000000010410406020920165016234773800602000007268013   1020000200030000   333400010001204104000000281Myanmar Soft-Gate Tech Yangon        MMR11006020920165016230602000000000000000   10300001F05104100000000000206000000000000     
100   95030367537085740000000000000980000000000980002000000010410406020329015901954773800602000007264979   1020000200030000   333400010001204104000000281Myanmar Soft-Gate Tech Yangon        MMR11006020329015901950602000000000000000   10300001F05104100000000000206000000000000     
100   95050311394574080000000000300000000000300000002000000010410406020711134113711743280602000007266869   1030000200030000   333800010001203104000003327KBZPay                 Yangon        MMR11006020711134113710602000000000000000   10300001F05104100000000063000000000000000     
100   95050316818236190000000000002940000000002940002000000010410406020019544954824570960602000007264127   1020000200030000   333400010001204104000000281Myanmar Soft-Gate Tech Yangon        MMR11006020019544954820602000000000000000   10300001F05104100000000000617000000000000     
100   62911028202460220000000000033000000000033000002000000010410406011057540032734773800601215217003273   1030000500030000   598320001202000015172200012MAX ENERGY             PTN           MMR11006011057540032730601000000000000000   10300001 00104100000000000990000000000000     
100   95050326228858240000000000150000000000150000002000000010410406020308443026197054900602736380910152   1030000300030000   555510124364104519000020166Makro Myanmar                        MMR11006020308443026190602000000000000000   10300001 00104100000000036000000000000000     
100   95050327416134790000000000022000000000022000002000000010410406020300423042245912990602000007264684   1030000200030000   3333000100012031040000040282C2P (Myanmar) Co. Ltd Yangon        MMR11006020300423042240602000000000000000   10300001F05104100000000010000000000000000     
100   95050312005798410000000000000980000000000980002000000010410406021502323232448885650602000007269800   1020000200030000   333400010001204104000000281Myanmar Soft-Gate Tech Yangon        MMR11006021502323232440602000000000000000   10300001F05104100000000000206000000000000     
100   62911028202169750000000000106800000000106800002000000010410406020426282031964773800602215311203196   1040001600030000   541120000557000000010000465Ocean Shwe Gone Daing  Yangon        MMR11006020426282031960602000000000000000   10300001F00104100000000006408000000000000     
100   62443100363668680000000000018250000000018250002000000010410406021249052364479311130602215319236447   1040001600030000   581420000803000000010000579Jeff's Kitchen (Ahlone Yangon        MMR11006021249052364470602000000000000000   10300001F00104100000000002190000000000000     
100   62911028202315370000000000300000000000300000002000000010410406020200513051634773800602000007264345   1030000200030000   333800010001203104000003327KBZPay                 Yangon        MMR11006020200513051630602000000000000000   10300001F05104100000000063000000000000000     
100   95050313640946520000000000015650000000015650002000000010410406021117422276941970990602215318227694   1040001600030000   541120000557000000010000465Ocean Shwe Gone Daing  Yangon        MMR11006021117422276940602000000000000000   10300001F00104100000000003913000000000000     
100   95050316438375580000000000000980000000000980002000000010410406020254392439741295930602000007264640   1020000200030000   333400010001204104000000281Myanmar Soft-Gate Tech Yangon        MMR11006020254392439740602000000000000000   10300001F05104100000000000206000000000000     
100   95050312926040930000000000021000000000021000002000000010410406020108003800140755410602000007264202   1030000200030000   333800010001203104000003327KBZPay                 Yangon        MMR11006020108003800140602000000000000000   10300001F05104100000000004410000000000000     
100   95050317465574180000000000010000000000010000002000000010410406011720215021419684810602000007263837   1030000200030000   333800010001203104000003327KBZPay                 Yangon        MMR11006011720215021410602000000000000000   10300001F05104100000000002100000000000000     
100   62443100333488440000000000016000000000016000002000000010410406010820070038180315770601215214003818   1030000500030000   598320001304000015172200013MAX ENERGY             PTN           MMR11006010820070038180601000000000000000   10300001 00104100000000001920000000000000     
100   95050312618592720000000000008985000000008985002000000010410406011018520002567217010601000348031575   1030000300030000   591200000169000000000000084CB BANK                MEDICARE STOR MMR11006011018520002560601000000000000000   10300001F00104100000000002156000000000000     
100   62911028202204490000000000096000000000096000002000000010410406010551270898644773800601215205089864   1030000600030000   554100000946315799420000471DENKO BAHAN            YANGON        MMR11006010551270898640601000000000000000   10300001 00104100000000002880000000000000     
100   95050311959900780000000000000980000000000980002000000010410406020816464646428567130602000007267438   1020000200030000   333400010001204104000000281Myanmar Soft-Gate Tech Yangon        MMR11006020816464646420602000000000000000   10300001F05104100000000000206000000000000     
100   95050315743141220000000000000980000000000980002000000010410406021018444844772566660602000007268471   1020000200030000   333400010001204104000000281Myanmar Soft-Gate Tech Yangon        MMR11006021018444844770602000000000000000   10300001F05104100000000000206000000000000     
100   95050316949180000000000000016660000000016660002000000010410406021503073307250538140602000007269805   1020000200030000   333400010001204104000000281Myanmar Soft-Gate Tech Yangon        MMR11006021503073307250602000000000000000   10300001F05104100000000003499000000000000     
100   95050310213446310000000000000980000000000980002000000010410406020500383038242586170602000007265896   1020000200030000   333400010001204104000000281Myanmar Soft-Gate Tech Yangon        MMR11006020500383038240602000000000000000   10300001F05104100000000000206000000000000     
100   95030393174848800000000000018104000000018104002000000010410406020742363052124773800602220141413152   1030000500030000   555610110563104519000009163City Mart Ayeyarwon Br nch           MMR11006020742363052120602000000000000000   10300001 00104100000000001086000000000000     
100   95050322990383760000000000001000000000001000002000000010410406020931353063697850700602328111637152   1030000500030000   555610117864104519000009164City Mart China Town P int Cen       MMR11006020931353063690602000000000000000   10300001 00104100000000000250000000000000     
100   95050322990383760000000000002400000000002400002000000010410406021005503065734545740602527341651152   1030000500030000   555610110570104519000009164City Mart China Town P int Cen       MMR11006021005503065730602000000000000000   10300001 00104100000000000600000000000000     
100   62911028202232370000000000010000000000010000002000000010410406021306573657474773800602000007269319   1030000200030000   333800010001203104000003327KBZPay                 Yangon        MMR11006021306573657470602000000000000000   10300001F05104100000000002100000000000000     
100   95050316321163940000000000000980000000000980002000000010410406020159572957648592350602000007264341   1020000200030000   333400010001204104000000281Myanmar Soft-Gate Tech Yangon        MMR11006020159572957640602000000000000000   10300001F05104100000000000206000000000000     
100   95050318621775380000000000003000000000003000002000000010410406021051502150085105760602000007268650   1030000200030000   3338000100012031040000040022C2P (Myanmar) Co. Ltd Yangon        MMR11006021051502150080602000000000000000   10300001F05104100000000000630000000000000     
100   62911028202245730000000000012300000000012300002000000010410406021008472217994773800602215317221799   1040001600030000   591220000270000000010000258Shwe Ohh Pharmacy (U C Yangon        MMR11006021008472217990602000000000000000   10300001F00104100000000000738000000000000     
100   95030367537085740000000000000980000000000980002000000010410406021003153315124773800602000007268366   1020000200030000   333400010001204104000000281Myanmar Soft-Gate Tech Yangon        MMR11006021003153315120602000000000000000   10300001F05104100000000000206000000000000     
100   95030301100128610000000000300000000000300000002000000010410406020228025802414773800602000007264472   1030000200030000   333800010001203104000003327KBZPay                 Yangon        MMR11006020228025802410602000000000000000   10300001F05104100000000063000000000000000     
100   62911028202355870000000001000000000001000000002000000010410406020413124312744773800602000007265410   1040001600030000   333800010001220104000004507A +                    Yangon        MMR11006020413124312740602000000000000000   10300001F05104100000000210000000000000000     
100   95050312099416380000000000015450000000015450002000000010410406010713590003550109930601215213000355   1030000500030000   541120025401022205411200254ORANGE 2(MDY)          PTN           MMR11006010713590003550601000000000000000   10300001 00104100000000003863000000000000     
100   95030341448197210000000000039000000000039000002000000010410406010714320068754773800601215207006875   1030000600030000   554100000841315799420000373DENKO NYAUNG U         NYAUNG U      MMR11006010714320068750601000000000000000   10300001 00104100000000001170000000000000     
100   95030301100128610000000000300000000000300000002000000010410406020229065906834773800602000007264479   1030000200030000   333800010001203104000003327KBZPay                 Yangon        MMR11006020229065906830602000000000000000   10300001F05104100000000063000000000000000     
100   62911028202448030000000000081700000000081700002000000010410406020657493047624773800602805291305152   1030000300030000   555510124691104519000020166Makro Myanmar                        MMR11006020657493047620602000000000000000   10300001 00104100000000004902000000000000     
100   95050317942168830000000000000980000000000980002000000010410406020310164016144005220602000007264778   1020000200030000   333400010001204104000000281Myanmar Soft-Gate Tech Yangon        MMR11006020310164016140602000000000000000   10300001F05104100000000000206000000000000     
100   95030301100125070000000000041029000000041029002000000010410406021021552228544773800602215317222854   1040001600030000   541120000569000000010000465Ocean Shwe Gone Daing  Yangon        MMR11006021021552228540602000000000000000   10300001F00104100000000002462000000000000     
100   95050312498129060000000000004900000000004900002000000010410406020754282428199253620602000007267256   1020000200030000   333400010001204104000000281Myanmar Soft-Gate Tech Yangon        MMR11006020754282428190602000000000000000   10300001F05104100000000001029000000000000     
100   62443100390038980000000000095100000000095100002000000010410406020312003026437068690602758410931152   1030000300030000   555510124364104519000020166Makro Myanmar                        MMR11006020312003026430602000000000000000   10300001 00104100000000022824000000000000     
100   95050313168701670000000000015000000000015000002000000010410406021057362736725020660602000007268681   1030000200030000   333800010001203104000003327KBZPay                 Yangon        MMR11006021057362736720602000000000000000   10300001F05104100000000003150000000000000     
100   95050317465574180000000000040000000000040000002000000010410406021259282928181304000602000007269283   1030000200030000   333800010001203104000003327KBZPay                 Yangon        MMR11006021259282928180602000000000000000   10300001F05104100000000008400000000000000     
100   95050322990383760000000000001800000000001800002000000010410406020936213064194460640602377161646152   1030000500030000   555610110572104519000009164City Mart China Town P int Cen       MMR11006020936213064190602000000000000000   10300001 00104100000000000450000000000000     
100   95050322957045260000000000150000000000150000002000000010410406020003263326339940100602000007264111   1030000200030000   3338000100012031040000040022C2P (Myanmar) Co. Ltd Yangon        MMR11006020003263326330602000000000000000   10300001F05104100000000031500000000000000     
100   95050311718887830000000000020500000000020500002000000010410406020158582858501897320602000007264334   1030000200030000   333800010001203104000003327KBZPay                 Yangon        MMR11006020158582858500602000000000000000   10300001F05104100000000004305000000000000     
100   95050319928585020000000000000980000000000980002000000010410406020826005600916744450602000007267515   1020000200030000   333400010001204104000000281Myanmar Soft-Gate Tech Yangon        MMR11006020826005600910602000000000000000   10300001F05104100000000000206000000000000     
100   95050310427855490000000000004900000000004900002000000010410406021220245024007743750602000007269096   1020000200030000   333400010001204104000000281Myanmar Soft-Gate Tech Yangon        MMR11006021220245024000602000000000000000   10300001F05104100000000001029000000000000     
100   95030301100128610000000000300000000000300000002000000010410406020226475647974773800602000007264458   1030000200030000   333800010001203104000003327KBZPay                 Yangon        MMR11006020226475647970602000000000000000   10300001F05104100000000063000000000000000     
100   95030367537085740000000000000980000000000980002000000010410406020221295129294773800602000007264435   1020000200030000   333400010001204104000000281Myanmar Soft-Gate Tech Yangon        MMR11006020221295129290602000000000000000   10300001F05104100000000000206000000000000     
100   62443100395250310000000000001960000000001960002000000010410406020539090909789991910602000007266183   1020000200030000   333400010001204104000000281Myanmar Soft-Gate Tech Yangon        MMR11006020539090909780602000000000000000   10300001F05104100000000000412000000000000     
100   95050319928585020000000000001960000000001960002000000010410406021331150115294608970602000007269450   1020000200030000   333400010001204104000000281Myanmar Soft-Gate Tech Yangon        MMR11006021331150115290602000000000000000   10300001F05104100000000000412000000000000     
100   62911028202693700000000000003700000000003700002000000010410406020338233030084773800602200251010152   1030000500030000   555610104018104519000003821City Mart North Point  enter         MMR11006020338233030080602000000000000000   10300001 00104100000000000222000000000000     
100   62443100363668680000000000019200000000019200002000000010410406011048490002672564300601215217000267   1030000500030000   591220012901014405912200129SHWE OHH PHARMACY      PTN           MMR11006011048490002670601000000000000000   10300001 00104100000000004608000000000000     
100   95050315099113150000000000000980000000000980002000000010410406021558332833932531010602000007270036   1020000200030000   333400010001204104000000281Myanmar Soft-Gate Tech Yangon        MMR11006021558332833930602000000000000000   10300001F05104100000000000206000000000000     
100   95050311559234320000000000012740000000012740002000000010410406020400513051776692650602000007265293   1020000200030000   333400010001204104000000281Myanmar Soft-Gate Tech Yangon        MMR11006020400513051770602000000000000000   10300001F05104100000000002675000000000000     
100   95030317922148660000000000208000000000208000002000000010410406020706283048204773800602861351329152   1030000300030000   444410103326104519000003284Winner Inn                           MMR11006020706283048200602000000000000000   10300001 00104100000000021216000000000000     
100   95050310902464360000000000005880000000005880002000000010410406021251342134147658650602000007269243   1020000200030000   333400010001204104000000281Myanmar Soft-Gate Tech Yangon        MMR11006021251342134140602000000000000000   10300001F05104100000000001235000000000000     
100   95050315701710960000000000004900000000004900002000000010410406020152322232690329930602000007264312   1020000200030000   333400010001204104000000281Myanmar Soft-Gate Tech Yangon        MMR11006020152322232690602000000000000000   10300001F05104100000000001029000000000000     
100   95050322569804950000000000230000000000230000002000000010410406020953552355057680510602000007268284   1030000200030000   3338000100012031040000040022C2P (Myanmar) Co. Ltd Yangon        MMR11006020953552355050602000000000000000   10300001F05104100000000048300000000000000     
100   62911028202907490000000000018838000000018838002000000010410406020733323050894773800602111021417152   1030000500030000   555610103466104519000003420City Mart Yankin Cente 5             MMR11006020733323050890602000000000000000   10300001 00104100000000001130000000000000     
100   62911028202777790000000000010000000000010000002000000010410406020400383038444773800602000007265286   1030000200030000   333800010001203104000003327KBZPay                 Yangon        MMR11006020400383038440602000000000000000   10300001F05104100000000002100000000000000     
100   62911028202169750000000000148145000000148145002000000010410406020416302027334773800602215311202733   1040001600030000   541120000557000000010000465Ocean Shwe Gone Daing  Yangon        MMR11006020416302027330602000000000000000   10300001F00104100000000008889000000000000     
100   95050324850150480000000000050000000000050000002000000010410406011031190290333401470601215210029033   1030000600030000   554100001116315799420000574DENKO HLAE KUU         HLAE KUU      MMR11006011031190290330601000000000000000   10300001 00104100000000006000000000000000     
100   62443100300412100000000000064268000000064268002000000010410406010557070234203252770601215205023420   1030000600030000   554100002085315799420000471DENKO BAHAN            YANGON        MMR11006010557070234200601000000000000000   10300001 00104100000000007712000000000000     
100   62443100313529540000000000009050000000009050002000000010410406021756200086390233400602000747879569   1030000200030000   541188001062000008000000314KBZ BANK               MARKETPLACE - MMR11006021756200086390602000000000000000   10300001 00104100000000002263000000000000     
100   62911028202315370000000000300000000000300000002000000010410406020202483248214773800602000007264353   1030000200030000   333800010001203104000003327KBZPay                 Yangon        MMR11006020202483248210602000000000000000   10300001F05104100000000063000000000000000     
100   95050314995854750000000000032500000000032500002000000010410406020212542201875542670602425447910442   1040001400030000   481210000556034812100002836Shwe Nadi Mobile null  o(792) Thudha MMR11006020212542201870602000000000000000   10300001 00104100000000007800000000000000     
100   62911028202130710000000000040000000000040000002000000010410406021125062284154773800602215318228415   1040001600030000   598320000659000000010000528Shwe Taung Energy (YGN Yangon        MMR11006021125062284150602000000000000000   10300001F00104100000000001200000000000000     
100   62911028202315370000000000300000000000300000002000000010410406020159122912024773800602000007264336   1030000200030000   333800010001203104000003327KBZPay                 Yangon        MMR11006020159122912020602000000000000000   10300001F05104100000000063000000000000000     
100   62911028202661370000000000135700000000135700002000000010410406020728423050534773800602065581346152   1030000300030000   555510124362104519000020166Makro Myanmar                        MMR11006020728423050530602000000000000000   10300001 00104100000000008142000000000000     
100   95050315099113150000000000000980000000000980002000000010410406021556482648104268580602000007270031   1020000200030000   333400010001204104000000281Myanmar Soft-Gate Tech Yangon        MMR11006021556482648100602000000000000000   10300001F05104100000000000206000000000000     
100   62911028202674810000000000004850000000004850002000000010410406020735523051444773800602155071427152   1030000500030000   555610110599104519000009166City Mart 47 Branch                  MMR11006020735523051440602000000000000000   10300001 00104100000000000291000000000000     
100   62443101023815100000000000009546000000009546002000000010410406021231133081904353680602258001955152   1030000500030000   555610114573104519000012532City Mart Ahlone Branc               MMR11006021231133081900602000000000000000   10300001 00104100000000002387000000000000     
100   95050316997303010000000000010000000000010000002000000010410406021306453645906261450602000007269318   1040001600030000   333800010001220104000004507A +                    Yangon        MMR11006021306453645900602000000000000000   10300001F05104100000000002100000000000000     
100   95050327531396450000000000002940000000002940002000000010410406021400103010404013300602000007269575   1020000200030000   333400010001204104000000281Myanmar Soft-Gate Tech Yangon        MMR11006021400103010400602000000000000000   10300001F05104100000000000617000000000000     
100   62911028202135350000000000048000000000048000002000000010410406021028132233474773800602215317223347   1040001600030000   581420000803000000010000579Jeff's Kitchen (Ahlone Yangon        MMR11006021028132233470602000000000000000   10300001F00104100000000001440000000000000     
100   95050320335873810000000000000980000000000980002000000010410406021259162916611389100602000007269280   1020000200030000   333400010001204104000000281Myanmar Soft-Gate Tech Yangon        MMR11006021259162916610602000000000000000   10300001F05104100000000000206000000000000     
100   62911028202790310000000000075800000000075800002000000010410406020435393033824773800602559041132152   1030000300030000   555510124696104519000020166Makro Myanmar                        MMR11006020435393033820602000000000000000   10300001 00104100000000004548000000000000     
100   95050312224678430000000000001960000000001960002000000010410406020205493549143549800602000007264366   1020000200030000   333400010001204104000000281Myanmar Soft-Gate Tech Yangon        MMR11006020205493549140602000000000000000   10300001F05104100000000000412000000000000     
100   62443100313529540000000000028000000000028000002000000010410406021112452272474935570602215318227247   1040001600030000   569120000924000000010000671Generation Concept Sto Ygn           MMR11006021112452272470602000000000000000   10300001F00104100000000006720000000000000     
100   95050310409767690000000000050000000000050000002000000010410406020403373337880252910602000007265325   1030000200030000   333800010001203104000003327KBZPay                 Yangon        MMR11006020403373337880602000000000000000   10300001F05104100000000010500000000000000     
100   62911028202369990000000000150000000000150000002000000010410406020705373537594773800602000007266819   1030000200030000   333800010001203104000003327KBZPay                 Yangon        MMR11006020705373537590602000000000000000   10300001F05104100000000031500000000000000     
100   95030301100127050000000000018600000000018600002000000010410406020837022163534773800602215315216353   1040001600030000   591220000043000000010000041Mingalar Pharmacy      Yangon        MMR11006020837022163530602000000000000000   10300001F00104100000000001116000000000000     
100   95050320047636150000000000284000000000284000002000000010410406010815530007826244940601000348014849   1030000300030000   573200000991000000000000705CB BANK                UNIQUE MOBILE MMR11006010815530007820601000000000000000   10300001F00104100000000068160000000000000     
100   62911028202185590000000000004150000000004150002000000010410406011059010004214773800601215217000421   1030000500030000   541120024601022205411200246ORANGE (THANLYIN)      PTN           MMR11006011059010004210601000000000000000   10300001 00104100000000000249000000000000     
100   62911028202112400000000000036000000000036000002000000010410406010444460016514773800601215211001651   1030000500030000   806220172402013008062201724GRAND HANTHA HOSPITAL  PTN           MMR11006010444460016510601000000000000000   10300001 00104100000000002160000000000000     
100   62911028202112400000000000026010000000026010002000000010410406010300420024484773800601215209002448   1030000500030000   598320001604000015172200016MAX ENERGY             PTN           MMR11006010300420024480601000000000000000   10300001 00104100000000000780000000000000     
100   95030325264619140000000000060000000000060000002000000010410406010413160023814773800601215210002381   1030000500030000   598320001601000015172200016MAX ENERGY             PTN           MMR11006010413160023810601000000000000000   10300001 00104100000000001800000000000000     
100   95030325264619140000000000239550000000239550002000000010410406010533460003224773800601215212000322   1030000500030000   591220012101014405912200121SHWE OHH PHARMACY      PTN           MMR11006010533460003220601000000000000000   10300001 00104100000000014373000000000000     
100   62911028202616250000000000147800000000147800002000000010410406021637410034284773800602000747876337   1030000200030000   541188001066000008000000314KBZ BANK               MARKETPLACE - MMR11006021637410034280602000000000000000   10300001 00104100000000008868000000000000     
100   62443100395250310000000000025800000000025800002000000010410406020757250045065267880602000747869527   1030000200030000   569988000803000008000004614KBZ BANK               JCY-IPANEMA   MMR11006020757250045060602000000000000000   10300001 00104100000000006192000000000000     
100   62911028202489110000000000021600000000021600002000000010410406021742100095264773800602000747879006   1030000200030000   541188001013000008000000008KBZ BANK               MARKETPLACE - MMR11006021742100095260602000000000000000   10300001 00104100000000001296000000000000     
100   95050315398070120000000000300000000000300000002000000010410406020331360136921430470602000007265002   1030000200030000   333800010001203104000003327KBZPay                 Yangon        MMR11006020331360136920602000000000000000   10300001F05104100000000063000000000000000     
100   95050311806372620000000000073650000000073650002000000010410406021818510058471460410602000747880534   1030000200030000   541188001432000008000000401KBZ BANK               OCEAN SUPERCE MMR11006021818510058470602000000000000000   10300001 00104100000000018413000000000000     
100   62911028202492080000000000021000000000021000002000000010410406021730170088444773800602000747878493   1030000200030000   541188001018000008000000008KBZ BANK               MARKETPLACE - MMR11006021730170088440602000000000000000   10300001 00104100000000001260000000000000     
100   95030327835334700000000000009609000000009609002000000010410406021841120158664773800602000747881564   1030000200030000   541188001242000008000000323KBZ BANK               CITY MART - I MMR11006021841120158660602000000000000000   10300001 00104100000000000577000000000000     
100   95050314567080940000000000010061000000010061002000000010410406020840321032659283550602000007267653   1030000200030000   333800010001203104000003327KBZPay                 Yangon        MMR11006020840321032650602000000000000000   10300001F05104100000000002113000000000000     
