100   62443100308767300000000000500000000000500000002000000010410406010220420007460957900601215202000746   1030000600030000   573200001086315799420000543MYOSATTHIT ELECTRONIC  MONYWA        MMR11006010220420007460601000000000000000   10300001 00104100000000120000000000000000     
100   62911028202161240000000000004000000000004000002000000010410406031019490093004773800603000747900691   1030000200030000   541188001033000008000000298KBZ BANK               CITY MART - M MMR11006031019490093000603000000000000000   10300001 00104100000000000240000000000000     
100   95050318877641040000000000025100000000025100002000000010410406031102242170691689110603243321724153   1030000900030000   541119001079190110000000872Sein Gay Har Hledan    YANGONUT      MMR11006031102242170690603000000000000000   10300001F00104100000000006275000000000000     
100   95050324247403260000000000031500000000031500002000000010410406030248582037715554100603462180958153   1030000900030000   541119000284190110000000177Pro1 Global (Insein)   YANGON        MMR11006030248582037710603000000000000000   10300001F00104100000000007875000000000000     
100   95050316442084030000000000002940000000002940002000000010410406031240311031678718810603000007275517   1020000200030000   333400010001204104000000281Myanmar Soft-Gate Tech Yangon        MMR11006031240311031670603000000000000000   10300001F05104100000000000617000000000000     
100   95030301100010700000000000011984000000011984002000000010410406030254463116824773800603923240906153   1030000500030000   555610103468104519000003420City Mart Yankin Cente 7             MMR11006030254463116820603000000000000000   10300001 00104100000000000719000000000000     
100   95050318134586070000000000018700000000018700002000000010410406031739170103858299050603000747936641   1030000200030000   541188001313000008000000306KBZ BANK               CITY MART - S MMR11006031739170103850603000000000000000   10300001 00104100000000004675000000000000     
100   62911028202162640000000000054550000000054550002000000010410406020413000014104773800602215310001410   1030000500030000   541120020902022205411200209ORANGE (HLAING)        PTN           MMR11006020413000014100602000000000000000   10300001 00104100000000003273000000000000     
100   95030371405797020000000000300000000000300000002000000010410406031010414041084773800603000007274754   1030000200030000   333800010001203104000003327KBZPay                 Yangon        MMR11006031010414041080603000000000000000   10300001F05104100000000063000000000000000     
100   62911028202684060000000000011276000000011276002000000010410406030338023119814773800603144081000153   1030000500030000   555610122584104519000018896City Mart Hlaing Thar  ar            MMR11006030338023119810603000000000000000   10300001 00104100000000000677000000000000     
100   62911028202469800000000000043344000000043344002000000010410406031242003166154773800603513111905153   1030000500030000   555610110572104519000009164City Mart China Town P int Cen       MMR11006031242003166150603000000000000000   10300001 00104100000000002601000000000000     
100   95050318617855880000000000000980000000000980002000000010410406031308473847133250790603000007275639   1020000200030000   333400010001204104000000281Myanmar Soft-Gate Tech Yangon        MMR11006031308473847130603000000000000000   10300001F05104100000000000206000000000000     
100   62911028202355870000000001000000000001000000002000000010410406030216094609824773800603000007270758   1040001600030000   333800010001220104000004507A +                    Yangon        MMR11006030216094609820603000000000000000   10300001F05104100000000210000000000000000     
100   95050317775833170000000000005100000000005100002000000010410406030923225322247022600603000007274386   1030000200030000   333800010001203104000003327KBZPay                 Yangon        MMR11006030923225322240603000000000000000   10300001F05104100000000001071000000000000     
100   62443100369813440000000000037700000000037700002000000010410406030612153133238654970603341411202153   1030000300030000   555510124697104519000020166Makro Myanmar                        MMR11006030612153133230603000000000000000   10300001 00104100000000009048000000000000     
100   95050316818236190000000000002940000000002940002000000010410406031104003400692199690603000007275074   1020000200030000   333400010001204104000000281Myanmar Soft-Gate Tech Yangon        MMR11006031104003400690603000000000000000   10300001F05104100000000000617000000000000     
100   95050317376014640000000000000980000000000980002000000010410406030030540054305495590603000007270454   1020000200030000   333400010001204104000000281Myanmar Soft-Gate Tech Yangon        MMR11006030030540054300603000000000000000   10300001F05104100000000000206000000000000     
100   95030306100078820000000000043750000000043750002000000010410406031352350034744773800603000747919512   1030000200030000   541188001066000008000000314KBZ BANK               MARKETPLACE - MMR11006031352350034740603000000000000000   10300001 00104100000000002625000000000000     
100   95050326228858240000000000048850000000048850002000000010410406030141500037503077240603000747896385   1030000200030000   581288000098000008000003562KBZ BANK               CANTON PARADI MMR11006030141500037500603000000000000000   10300001 00104100000000020762000000000000     
100   62911028202147720000000000004500000000004500002000000010410406031200480017934773800603000747909928   1030000200030000   541188001311000008000000325KBZ BANK               CITY MART - A MMR11006031200480017930603000000000000000   10300001 00104100000000000270000000000000     
100   95050310283518110000000000005683000000005683002000000010410406031336360028404845750603000747918067   1030000200030000   541188001430000008000000401KBZ BANK               OCEAN SUPERCE MMR11006031336360028400603000000000000000   10300001 00104100000000001421000000000000     
100   62911028202460550000000000003601000000003601002000000010410406031111030031054773800603000747905681   1030000200030000   541188001079000008000000294KBZ BANK               CITY MART - J MMR11006031111030031050603000000000000000   10300001 00104100000000000216000000000000     
100   95050310283518110000000000006600000000006600002000000010410406031335050028396583330603000747917932   1030000200030000   541188001430000008000000401KBZ BANK               OCEAN SUPERCE MMR11006031335050028390603000000000000000   10300001 00104100000000001650000000000000     
100   62443100395250310000000000002940000000002940002000000010410406031249281928176555750603000007275561   1020000200030000   333400010001204104000000281Myanmar Soft-Gate Tech Yangon        MMR11006031249281928170603000000000000000   10300001F05104100000000000617000000000000     
100   95050325715886680000000000004900000000004900002000000010410406031109513951339951530603000007275095   1020000200030000   333400010001204104000000281Myanmar Soft-Gate Tech Yangon        MMR11006031109513951330603000000000000000   10300001F05104100000000001029000000000000     
100   95050311077567400000000000003500000000003500002000000010410406031629335933213335880603000007276345   1030000900030000   333400010001202104000002022ACS                    Yangon        MMR11006031629335933210603000000000000000   10300001F05104100000000000735000000000000     
100   95050317461467820000000000050310000000050310002000000010410406031129575957186901850603000007275208   1030000200030000   333800010001203104000003327KBZPay                 Yangon        MMR11006031129575957180603000000000000000   10300001F05104100000000010565000000000000     
100   95050319468370810000000000000980000000000980002000000010410406031115184518081604010603000007275131   1020000200030000   333400010001204104000000281Myanmar Soft-Gate Tech Yangon        MMR11006031115184518080603000000000000000   10300001F05104100000000000206000000000000     
100   95050316601084530000000000000980000000000980002000000010410406030014164416618460170603000007270431   1020000200030000   333400010001204104000000281Myanmar Soft-Gate Tech Yangon        MMR11006030014164416610603000000000000000   10300001F05104100000000000206000000000000     
100   95050315919368400000000000009000000000009000002000000010410406030304583458990766840603000007271045   1030000200030000   333800010001203104000003327KBZPay                 Yangon        MMR11006030304583458990603000000000000000   10300001F05104100000000001890000000000000     
100   95030301100102610000000000020000000000020000002000000010410406030929335933494773800603000007274443   1030000200030000   333800010001203104000003327KBZPay                 Yangon        MMR11006030929335933490603000000000000000   10300001F05104100000000004200000000000000     
100   95050313374257020000000000090720000000090720002000000010410406030704033403620058490603000007273196   1030000900030000   333800010001202104000003301uab bank               Yangon        MMR11006030704033403620603000000000000000   10300001F05104100000000019051000000000000     
100   95050311121153200000000000002940000000002940002000000010410406031434500450811768490603000007275977   1020000200030000   333400010001204104000000281Myanmar Soft-Gate Tech Yangon        MMR11006031434500450810603000000000000000   10300001F05104100000000000617000000000000     
100   95050314567080940000000000000980000000000980002000000010410406030442091209665536320603000007272031   1020000200030000   333400010001204104000000281Myanmar Soft-Gate Tech Yangon        MMR11006030442091209660603000000000000000   10300001F05104100000000000206000000000000     
100   95030350385420630000000000006050000000006050002000000010410406031820490199804773800603000747940123   1030000200030000   541188001080000008000000294KBZ BANK               CITY MART - J MMR11006031820490199800603000000000000000   10300001 00104100000000000363000000000000     
100   95050311121153200000000000001960000000001960002000000010410406031436550655226811040603000007275988   1020000200030000   333400010001204104000000281Myanmar Soft-Gate Tech Yangon        MMR11006031436550655220603000000000000000   10300001F05104100000000000412000000000000     
100   95050316321163940000000000111000000000111000002000000010410406031238280828947066330603000007275503   1030000200030000   333800010001203104000003327KBZPay                 Yangon        MMR11006031238280828940603000000000000000   10300001F05104100000000023310000000000000     
100   95030380157605420000000000100000000000100000002000000010410406030138300830564773800603000007270588   1030000200030000   333800010001203104000003327KBZPay                 Yangon        MMR11006030138300830560603000000000000000   10300001F05104100000000021000000000000000     
100   62443100350052510000000000063600000000063600002000000010410406030943421342139660590603000007274545   1030000200030000   333300010001203104000003632Myanmar Tradenet Test  Yangon        MMR11006030943421342130603000000000000000   10300001F05104100000000010000000000000000     
100   62911028202147720000000000071651000000071651002000000010410406031157110176884773800603000747909665   1030000200030000   541188001305000008000000325KBZ BANK               CITY MART - A MMR11006031157110176880603000000000000000   10300001 00104100000000004299000000000000     
100   95030301100124400000000000100000000000100000002000000010410406031421165116534773800603000007275934   1030000200030000   333800010001203104000003327KBZPay                 Yangon        MMR11006031421165116530603000000000000000   10300001F05104100000000021000000000000000     
100   95050315851042070000000000050000000000050000002000000010410406031121205120449866430603000007275165   1030000200030000   333800010001203104000003327KBZPay                 Yangon        MMR11006031121205120440603000000000000000   10300001F05104100000000010500000000000000     
100   95050325784857510000000000003500000000003500002000000010410406030243363116290937040603884140956153   1030000500030000   555610112649104519000010844City Express MCS 20                  MMR11006030243363116290603000000000000000   10300001 00104100000000000875000000000000     
100   62911028202482750000000000013650000000013650002000000010410406030949273151874773800603088221634153   1030000500030000   555610110576104519000009164City Mart China Town P int Cen       MMR11006030949273151870603000000000000000   10300001 00104100000000000819000000000000     
100   95050314292165140000000000015000000000015000002000000010410406031437390739238463520603000007275983   1030000200030000   3338000100012031040000040022C2P (Myanmar) Co. Ltd Yangon        MMR11006031437390739230603000000000000000   10300001F05104100000000003150000000000000     
100   95050327416134790000000000001960000000001960002000000010410406031339430943261513200603000007275762   1020000200030000   333400010001204104000000281Myanmar Soft-Gate Tech Yangon        MMR11006031339430943260603000000000000000   10300001F05104100000000000412000000000000     
100   95050312498129060000000000004900000000004900002000000010410406031142111211168469240603000007275259   1020000200030000   333400010001204104000000281Myanmar Soft-Gate Tech Yangon        MMR11006031142111211160603000000000000000   10300001F05104100000000001029000000000000     
100   95030329830382620000000000100000000000100000002000000010410406030842111211304773800603000007274068   1030000200030000   333800010001203104000003327KBZPay                 Yangon        MMR11006030842111211300603000000000000000   10300001F05104100000000021000000000000000     
100   62911028202161240000000000023200000000023200002000000010410406031017340367644773800603000747900574   1030000200030000   541188001025000008000000298KBZ BANK               CITY MART - M MMR11006031017340367640603000000000000000   10300001 00104100000000001392000000000000     
100   95050315743141220000000000000980000000000980002000000010410406030441101110358586020603000007272026   1020000200030000   333400010001204104000000281Myanmar Soft-Gate Tech Yangon        MMR11006030441101110350603000000000000000   10300001F05104100000000000206000000000000     
100   95030367537085740000000000000980000000000980002000000010410406030731530153354773800603000007273444   1020000200030000   333400010001204104000000281Myanmar Soft-Gate Tech Yangon        MMR11006030731530153350603000000000000000   10300001F05104100000000000206000000000000     
100   62911028202355870000000001000000000001000000002000000010410406030333040304924773800603000007271352   1040001600030000   333800010001220104000004507A +                    Yangon        MMR11006030333040304920603000000000000000   10300001F05104100000000210000000000000000     
100   95050317376014640000000000000980000000000980002000000010410406030341471147459504190603000007271438   1020000200030000   333400010001204104000000281Myanmar Soft-Gate Tech Yangon        MMR11006030341471147450603000000000000000   10300001F05104100000000000206000000000000     
100   95030329830382620000000000300000000000300000002000000010410406030840511051744773800603000007274049   1030000200030000   333800010001203104000003327KBZPay                 Yangon        MMR11006030840511051740603000000000000000   10300001F05104100000000063000000000000000     
100   62443100303702210000000000027000000000027000002000000010410406030400432057734631830603612301043153   1030000900030000   541119000816190110000000178Pro (1) Global (East D YANGONMYOTHIT MMR11006030400432057730603000000000000000   10300001F00104100000000006750000000000000     
100   95030301100022270000000000022500000000022500002000000010410406031211170369174773800603000747910800   1030000200030000   541188001024000008000000298KBZ BANK               CITY MART - M MMR11006031211170369170603000000000000000   10300001 00104100000000001350000000000000     
100   62911028202355870000000001000000000001000000002000000010410406030334000400194773800603000007271359   1040001600030000   333800010001220104000004507A +                    Yangon        MMR11006030334000400190603000000000000000   10300001F05104100000000210000000000000000     
100   95050315743141220000000000000980000000000980002000000010410406030437170717115961780603000007271994   1020000200030000   333400010001204104000000281Myanmar Soft-Gate Tech Yangon        MMR11006030437170717110603000000000000000   10300001F05104100000000000206000000000000     
100   95050315743141220000000000000980000000000980002000000010410406030444441444714188580603000007272054   1020000200030000   333400010001204104000000281Myanmar Soft-Gate Tech Yangon        MMR11006030444441444710603000000000000000   10300001F05104100000000000206000000000000     
100   95050310305100650000000000003000000000003000002000000010410406030334550455837948950603000007271364   1030000200030000   3338000100012031040000040022C2P (Myanmar) Co. Ltd Yangon        MMR11006030334550455830603000000000000000   10300001F05104100000000000630000000000000     
100   95050320335873810000000000000980000000000980002000000010410406030732090209705661060603000007273446   1020000200030000   333400010001204104000000281Myanmar Soft-Gate Tech Yangon        MMR11006030732090209700603000000000000000   10300001F05104100000000000206000000000000     
100   62911028202355870000000001000000000001000000002000000010410406030332040204064773800603000007271341   1040001600030000   333800010001220104000004507A +                    Yangon        MMR11006030332040204060603000000000000000   10300001F05104100000000210000000000000000     
100   95050314567080940000000000004900000000004900002000000010410406030932050205917107700603000007274454   1020000200030000   333400010001204104000000281Myanmar Soft-Gate Tech Yangon        MMR11006030932050205910603000000000000000   10300001F05104100000000001029000000000000     
100   95050315743141220000000000000980000000000980002000000010410406030435010501682344030603000007271973   1020000200030000   333400010001204104000000281Myanmar Soft-Gate Tech Yangon        MMR11006030435010501680603000000000000000   10300001F05104100000000000206000000000000     
100   62911028202212490000000000003200000000003200002000000010410406030423302063954773800603952531030153   1030000900030000   581219000715190110000000546Akkhaya Tea House(Dago YANGON        MMR11006030423302063950603000000000000000   10300001F00104100000000000326000000000000     
100   95050311403968010000000000050000000000050000002000000010410406030034070407607148070603000007270461   1030000200030000   333800010001203104000003327KBZPay                 Yangon        MMR11006030034070407600603000000000000000   10300001F05104100000000010500000000000000     
100   95050316812885810000000000000980000000000980002000000010410406030239510951681022130603000007270874   1020000200030000   333400010001204104000000281Myanmar Soft-Gate Tech Yangon        MMR11006030239510951680603000000000000000   10300001F05104100000000000206000000000000     
100   95030399304534290000000000017550000000017550002000000010410406030259492040534773800603626290949153   1030000900030000   541119001206190110000000948City Mart YK C 4       YANGONAUNG    MMR11006030259492040530603000000000000000   10300001F00104100000000001053000000000000     
100   95050314567080940000000000000980000000000980002000000010410406030849061906994738790603000007274126   1020000200030000   333400010001204104000000281Myanmar Soft-Gate Tech Yangon        MMR11006030849061906990603000000000000000   10300001F05104100000000000206000000000000     
100   95030301100119700000000000079550000000079550002000000010410406031814330077284773800603000747939646   1030000200030000   541188001317000008000000306KBZ BANK               CITY MART - S MMR11006031814330077280603000000000000000   10300001 00104100000000004773000000000000     
100   95050315743141220000000000000980000000000980002000000010410406030443111311805465000603000007272038   1020000200030000   333400010001204104000000281Myanmar Soft-Gate Tech Yangon        MMR11006030443111311800603000000000000000   10300001F05104100000000000206000000000000     
100   62443100306698200000000000088582000000088582002000000010410406031025500229858106990603000747901184   1030000200030000   541188001037000008000000010KBZ BANK               MARKETPLACE - MMR11006031025500229850603000000000000000   10300001 00104100000000022146000000000000     
100   95050318180584510000000000003000000000003000002000000010410406031441211121876725950603000007276009   1030000200030000   333800010001203104000003327KBZPay                 Yangon        MMR11006031441211121870603000000000000000   10300001F05104100000000000630000000000000     
100   95050314567755980000000000031500000000031500002000000010410406031044281428245334470603000007274975   1030000200030000   333800010001203104000003327KBZPay                 Yangon        MMR11006031044281428240603000000000000000   10300001F05104100000000006615000000000000     
100   95050311184380560000000000002940000000002940002000000010410406030848381838806476370603000007274123   1020000200030000   333400010001204104000000281Myanmar Soft-Gate Tech Yangon        MMR11006030848381838800603000000000000000   10300001F05104100000000000617000000000000     
100   95030329830382620000000000300000000000300000002000000010410406022339100910104773800603000007270399   1030000200030000   333800010001203104000003327KBZPay                 Yangon        MMR11006022339100910100603000000000000000   10300001F05104100000000063000000000000000     
100   62443100313002190000000000050000000000050000002000000010410406031043341334538724530603000007274960   1030000200030000   333800010001203104000003327KBZPay                 Yangon        MMR11006031043341334530603000000000000000   10300001F05104100000000010500000000000000     
100   95050315110306410000000000003000000000003000002000000010410406022349491949832445910603000007270410   1030000200030000   333800010001203104000003327KBZPay                 Yangon        MMR11006022349491949830603000000000000000   10300001F05104100000000000630000000000000     
100   62911028202355870000000000500000000000500000002000000010410406030334480448294773800603000007271372   1040001600030000   333800010001220104000004507A +                    Yangon        MMR11006030334480448290603000000000000000   10300001F05104100000000105000000000000000     
100   95050311077567400000000000019200000000019200002000000010410406031104152171230036630603277341715153   1030000900030000   541119001587190110000001157Sein Gay Har Aung San- YANGONADON    MMR11006031104152171230603000000000000000   10300001F00104100000000004800000000000000     
100   95050325139996190000000000969238000000969238002000000010410406031352492249459775630603000007275818   1030000900030000   333300010001202104000000109Myanmar National Airli Yangon        MMR11006031352492249450603000000000000000   10300001F05104100000000010000000000000000     
100   95050317915469510000000000080000000000080000002000000010410406030657322732835611610603000007273143   1030000200030000   333800010001203104000003327KBZPay                 Yangon        MMR11006030657322732830603000000000000000   10300001F05104100000000016800000000000000     
100   95050316818236190000000000000980000000000980002000000010410406030459192919354331200603000007272167   1020000200030000   333400010001204104000000281Myanmar Soft-Gate Tech Yangon        MMR11006030459192919350603000000000000000   10300001F05104100000000000206000000000000     
100   95050312926040930000000000002940000000002940002000000010410406030359012901869759480603000007271607   1020000200030000   333400010001204104000000281Myanmar Soft-Gate Tech Yangon        MMR11006030359012901860603000000000000000   10300001F05104100000000000617000000000000     
100   95050326198165350000000000031000000000031000002000000010410406031057002988952284790603215417298895   1040001600030000   569120000931000000010000678Generation Concept Sto Ygn           MMR11006031057002988950603000000000000000   10300001F00104100000000007440000000000000     
100   95050310427855490000000000000980000000000980002000000010410406031551222122373420980603000007276246   1020000200030000   333400010001204104000000281Myanmar Soft-Gate Tech Yangon        MMR11006031551222122370603000000000000000   10300001F05104100000000000206000000000000     
100   95050320624349010000000000050000000000050000002000000010410406030524092780245678940603215412278024   1040001600030000   598320000915000000010000664MMTM - North Dagon     Ygn           MMR11006030524092780240603000000000000000   10300001F00104100000000006000000000000000     
100   95050312498129060000000000000980000000000980002000000010410406030057512751928715460603000007270498   1020000200030000   333400010001204104000000281Myanmar Soft-Gate Tech Yangon        MMR11006030057512751920603000000000000000   10300001F05104100000000000206000000000000     
100   95050320360851930000000000050000000000050000002000000010410406031455412541758378430603000007276059   1030000200030000   333800010001203104000003327KBZPay                 Yangon        MMR11006031455412541750603000000000000000   10300001F05104100000000010500000000000000     
100   62911028202417260000000000007450000000007450002000000010410406031025472160034773800603553551647153   1030000900030000   541119001256190110000000957City Mart JS City Care YANGONUT      MMR11006031025472160030603000000000000000   10300001F00104100000000000447000000000000     
100   62911028202489110000000000010000000000010000002000000010410406031041032164354773800603821111703153   1030000900030000   541119001236190110000000951Marketplace KTY C 6    YANGONARTAUNG MMR11006031041032164350603000000000000000   10300001F00104100000000000600000000000000     
100   95050310902464360000000000002940000000002940002000000010410406031556532653685073460603000007276265   1020000200030000   333400010001204104000000281Myanmar Soft-Gate Tech Yangon        MMR11006031556532653680603000000000000000   10300001F05104100000000000617000000000000     
100   95050310314438940000000000033000000000033000002000000010410406031357492749358123140603000007275839   1030000200030000   333800010001203104000003327KBZPay                 Yangon        MMR11006031357492749350603000000000000000   10300001F05104100000000006930000000000000     
100   95030301100022270000000000089600000000089600002000000010410406030715472107434773800603463451347153   1030000900030000   573219001180190110000000936UNIQUE UChit Maung     YANGON        MMR11006030715472107430603000000000000000   10300001F00104100000000005376000000000000     
100   95050310427855490000000000002940000000002940002000000010410406030255162516578859070603000007270966   1020000200030000   333400010001204104000000281Myanmar Soft-Gate Tech Yangon        MMR11006030255162516570603000000000000000   10300001F05104100000000000617000000000000     
100   95050312498129060000000000004900000000004900002000000010410406031254522452928208240603000007275585   1020000200030000   333400010001204104000000281Myanmar Soft-Gate Tech Yangon        MMR11006031254522452920603000000000000000   10300001F05104100000000001029000000000000     
100   95050311077567400000000000016500000000016500002000000010410406031129002177901944400603687591700153   1030000900030000   541119001589190110000001157Sein Gay Har Aung San- YANGONADON    MMR11006031129002177900603000000000000000   10300001F00104100000000004125000000000000     
100   95030371405797020000000000135000000000135000002000000010410406031052462246944773800603000007275008   1030000200030000   333800010001203104000003327KBZPay                 Yangon        MMR11006031052462246940603000000000000000   10300001F05104100000000028350000000000000     
100   95050319695392670000000000026310000000026310002000000010410406030954112936653220850603215416293665   1040001600030000   541120000557000000010000465Ocean Shwe Gone Daing  Yangon        MMR11006030954112936650603000000000000000   10300001F00104100000000006578000000000000     
100   62911028202773650000000000020000000000020000002000000010410406022155182518854773800603000007270366   1030000200030000   333800010001203104000003327KBZPay                 Yangon        MMR11006022155182518850603000000000000000   10300001F05104100000000004200000000000000     
100   62443100345308040000000000300000000000300000002000000010410406031055192519917327330603000007275033   1030000200030000   333800010001203104000003327KBZPay                 Yangon        MMR11006031055192519910603000000000000000   10300001F05104100000000063000000000000000     
100   95030308100042590000000000056550000000056550002000000010410406030429012745664773800603215411274566   1040001600030000   591220000275000000010000263Shwe Ohh Pharmacy (Hla Yangon        MMR11006030429012745660603000000000000000   10300001F00104100000000003393000000000000     
100   62911028202684060000000000010200000000010200002000000010410406030521542778754773800603215412277875   1040001600030000   591220000290000000010000278Shwe Ohh Pharmacy (8 M Yangon        MMR11006030521542778750603000000000000000   10300001F00104100000000000612000000000000     
100   95050324411430900000000000066000000000066000002000000010410406030936082925781384380603215416292578   1040001600030000   598320001170000000010000527Shwe Taung Energy (YGN Yangon        MMR11006030936082925780603000000000000000   10300001F00104100000000007920000000000000     
100   62911028202417260000000000018850000000018850002000000010410406031024362159714773800603532541636153   1030000900030000   541119001249190110000000955City Mart JS C 8       YANGONUT      MMR11006031024362159710603000000000000000   10300001F00104100000000001131000000000000     
100   95030308100042590000000000018000000000018000002000000010410406031019252158304773800603448491625153   1030000900030000   541119000302190110000000184Super One Shopping Mal YANGONTHARYA  MMR11006031019252158300603000000000000000   10300001F00104100000000001080000000000000     
100   95050318458849030000000000027700000000027700002000000010410406030831332127241263630603604011533153   1030000900030000   541119000122190110000000080Sein Gay Har BAK       YANGONADA     MMR11006030831332127240603000000000000000   10300001F00104100000000006925000000000000     
100   62911028202440680000000000006900000000006900002000000010410406031140373029244773800603215418302924   1040001600030000   591220000296000000010000284Shwe Ohh Pharmacy (Lan Yangon        MMR11006031140373029240603000000000000000   10300001F00104100000000000414000000000000     
100   95050316586367540000000000002940000000002940002000000010410406030417304730571873090603000007271797   1020000200030000   333400010001204104000000281Myanmar Soft-Gate Tech Yangon        MMR11006030417304730570603000000000000000   10300001F05104100000000000617000000000000     
100   95050315158357300000000000015000000000015000002000000010410406030704113411961710970603000007273190   1030000200030000   333800010001203104000003327KBZPay                 Yangon        MMR11006030704113411960603000000000000000   10300001F05104100000000003150000000000000     
100   95050312520116690000000000041000000000041000002000000010410406030616194619228372090603000007272789   1030000200030000   333800010001203104000003327KBZPay                 Yangon        MMR11006030616194619220603000000000000000   10300001F05104100000000008610000000000000     
100   95050314752934410000000000050000000000050000002000000010410406031325425542389860720603000007275716   1030000200030000   333800010001203104000003327KBZPay                 Yangon        MMR11006031325425542380603000000000000000   10300001F05104100000000010500000000000000     
100   95050314567080940000000000004900000000004900002000000010410406030929375937232235340603000007274438   1020000200030000   333400010001204104000000281Myanmar Soft-Gate Tech Yangon        MMR11006030929375937230603000000000000000   10300001F05104100000000001029000000000000     
100   62443100300743690000000000002700000000002700002000000010410406021145510023289893020602000348220274   1030000300030000   541100000441000000000000319CB BANK                ONESTOP KITCH MMR11006021145510023280602000000000000000   10300001F00104100000000000675000000000000     
100   95050310281229490000000000100000000000100000002000000010410406031418164816343080590603000007275919   1030000200030000   333800010001203104000003327KBZPay                 Yangon        MMR11006031418164816340603000000000000000   10300001F05104100000000021000000000000000     
100   95050314567080940000000000004900000000004900002000000010410406030926465646570157380603000007274413   1020000200030000   333400010001204104000000281Myanmar Soft-Gate Tech Yangon        MMR11006030926465646570603000000000000000   10300001F05104100000000001029000000000000     
100   95050322083768590000000000024000000000024000002000000010410406020912010001922687410602215315000192   1030000500030000   531120155705000045311201557GAMONE PWINT           PTN           MMR11006020912010001920602000000000000000   10300001 00104100000000005760000000000000     
100   95030301100121270000000000053750000000053750002000000010410406021215140002674773800602000348224292   1030000300030000   541100000955000000000000683CB BANK                ONE STOP KITC MMR11006021215140002670602000000000000000   10300001F00104100000000003225000000000000     
100   95050316272163320000000000008840000000008840002000000010410406021009460001365871630602000348206548   1030000300030000   591200000312000000000000193CB BANK                MEDICARE STOR MMR11006021009460001360602000000000000000   10300001F00104100000000002122000000000000     
100   62911028202169750000000000085800000000085800002000000010410406020505150014494773800602215311001449   1030000500030000   541120020801022205411200208ORANGE (TAMWE)         PTN           MMR11006020505150014490602000000000000000   10300001 00104100000000005148000000000000     
100   62911028202700480000000000070900000000070900002000000010410406020824400003394773800602215314000339   1030000500030000   591220020501005105912200205MINGALAR PHARMACY      PTN           MMR11006020824400003390602000000000000000   10300001 00104100000000004254000000000000     
100   62443100371022130000000000009200000000009200002000000010410406020357050008425635840602000348151806   1030000300030000   581200001812000000000001296CB BANK                SP BAKERY (YA MMR11006020357050008420602000000000000000   10300001F00104100000000003910000000000000     
100   95050322083768590000000000014800000000014800002000000010410406020842440002040850940602215315000204   1030000500030000   531120155708000045311201557GAMONE PWINT           PTN           MMR11006020842440002040602000000000000000   10300001 00104100000000003552000000000000     
100   95030339867270590000000000013100000000013100002000000010410406021211380000544773800602000348223826   1030000300030000   531100001331000000000000919CB BANK                G & G CONVENI MMR11006021211380000540602000000000000000   10300001F00104100000000000786000000000000     
100   95030367537085740000000000001960000000001960002000000010410406030324445444404773800603000007271272   1020000200030000   333400010001204104000000281Myanmar Soft-Gate Tech Yangon        MMR11006030324445444400603000000000000000   10300001F05104100000000000412000000000000     
100   62911028202225850000000000009250000000009250002000000010410406031153403041904773800603215418304190   1040001600030000   591220000276000000010000264Shwe Ohh Pharmacy (YGH Yangon        MMR11006031153403041900603000000000000000   10300001F00104100000000000555000000000000     
100   95050312820609340000000000300000000000300000002000000010410406021806473647024183490603000007270265   1030000200030000   333800010001203104000003327KBZPay                 Yangon        MMR11006021806473647020603000000000000000   10300001F05104100000000063000000000000000     
100   95050316601084530000000000000980000000000980002000000010410406030006053605113502720603000007270426   1020000200030000   333400010001204104000000281Myanmar Soft-Gate Tech Yangon        MMR11006030006053605110603000000000000000   10300001F05104100000000000206000000000000     
100   95050315745833530000000000010000000000010000002000000010410406021005220073656283320602215310007365   1030000600030000   554100001252315799420000706DENKO MONEYWAR - 2     MONEYWAR      MMR11006021005220073650602000000000000000   10300001 00104100000000001200000000000000     
100   95050317942168830000000000003920000000003920002000000010410406031401283128426385560603000007275852   1020000200030000   333400010001204104000000281Myanmar Soft-Gate Tech Yangon        MMR11006031401283128420603000000000000000   10300001F05104100000000000823000000000000     
100   95050314567080940000000000000980000000000980002000000010410406031411164116878038040603000007275879   1020000200030000   333400010001204104000000281Myanmar Soft-Gate Tech Yangon        MMR11006031411164116870603000000000000000   10300001F05104100000000000206000000000000     
100   95050328074436620000000000004900000000004900002000000010410406030015464546636807680603000007270432   1020000200030000   333400010001204104000000281Myanmar Soft-Gate Tech Yangon        MMR11006030015464546630603000000000000000   10300001F05104100000000001029000000000000     
100   62911028202446540000000000036000000000036000002000000010410406012350490036564773800602215306003656   1030000500030000   598320001204000015172200012MAX ENERGY             PTN           MMR11006012350490036560602000000000000000   10300001 00104100000000001080000000000000     
100   95050329252108030000000000021968000000021968002000000010410406021051170022893368180602215317002289   1030000500030000   598320041901000055983200419MAX ENERGY             PTN           MMR11006021051170022890602000000000000000   10300001 00104100000000002636000000000000     
100   95030389641831340000000000045000000000045000002000000010410406012331020038184773800602215306003818   1030000500030000   598320001001000015172200010MAX ENERGY             PTN           MMR11006012331020038180602000000000000000   10300001 00104100000000001350000000000000     
100   62911028202471860000000000050000000000050000002000000010410406020642520510474773800602215306051047   1030000600030000   554100001001315799420000498DENKO SHWE PYI THAR    YANGON        MMR11006020642520510470602000000000000000   10300001 00104100000000001500000000000000     
100   95050320531117320000000000070000000000070000002000000010410406020318490022240628950602215309002224   1030000500030000   598320041903000055983200419MAX ENERGY             PTN           MMR11006020318490022240602000000000000000   10300001 00104100000000008400000000000000     
100   95030333409030400000000000040000000000040000002000000010410406020146580038544773800602215308003854   1030000500030000   598320001004000015172200010MAX ENERGY             PTN           MMR11006020146580038540602000000000000000   10300001 00104100000000001200000000000000     
100   62911028202911760000000000049000000000049000002000000010410406020944160301874773800602215309030187   1030000600030000   554100001113315799420000571DENKO THAN HLYIN -1    THAN HLYIN    MMR11006020944160301870602000000000000000   10300001 00104100000000001470000000000000     
100   62911028202136750000000000027000000000027000002000000010410406020358470510234773800602215303051023   1030000600030000   554100001001315799420000498DENKO SHWE PYI THAR    YANGON        MMR11006020358470510230602000000000000000   10300001 00104100000000000810000000000000     
100   95050315889680120000000000003000000000003000002000000010410406030627315731647859780603000007272892   1030000200030000   333800010001203104000003327KBZPay                 Yangon        MMR11006030627315731640603000000000000000   10300001F05104100000000000630000000000000     
100   95050324154190880000000000052000000000052000002000000010410406020045220025691521280602215307002569   1030000500030000   598320001603000015172200016MAX ENERGY             PTN           MMR11006020045220025690602000000000000000   10300001 00104100000000006240000000000000     
100   95050315144611650000000000062000000000062000002000000010410406030316074607501653460603000007271172   1030000200030000   333800010001203104000003327KBZPay                 Yangon        MMR11006030316074607500603000000000000000   10300001F05104100000000013020000000000000     
100   95050315851042070000000000300000000000300000002000000010410406031118024802723256500603000007275145   1030000200030000   333800010001203104000003327KBZPay                 Yangon        MMR11006031118024802720603000000000000000   10300001F05104100000000063000000000000000     
100   62443100392426520000000000010000000000010000002000000010410406031007343734651568360603000007274743   1030000200030000   333800010001203104000003327KBZPay                 Yangon        MMR11006031007343734650603000000000000000   10300001F05104100000000002100000000000000     
100   95030371405797020000000000002000000000002000002000000010410406030903273327044773800603000007274230   1030000200030000   333800010001203104000003327KBZPay                 Yangon        MMR11006030903273327040603000000000000000   10300001F05104100000000000420000000000000     
100   95050319528093960000000000000980000000000980002000000010410406030212374237293185190603000007270728   1020000200030000   333400010001204104000000281Myanmar Soft-Gate Tech Yangon        MMR11006030212374237290603000000000000000   10300001F05104100000000000206000000000000     
100   95050314307746340000000000000980000000000980002000000010410406031318464846273165690603000007275678   1020000200030000   333400010001204104000000281Myanmar Soft-Gate Tech Yangon        MMR11006031318464846270603000000000000000   10300001F05104100000000000206000000000000     
100   62443100313002190000000000030000000000030000002000000010410406020419240510275756590602215304051027   1030000600030000   554100001001315799420000498DENKO SHWE PYI THAR    YANGON        MMR11006020419240510270602000000000000000   10300001 00104100000000003600000000000000     
100   62443100300412100000000000197621000000197621002000000010410406020843550052027545970602215308005202   1030000600030000   581200002287315799420000141FUJI COFFEE HOUSE      YANGON        MMR11006020843550052020602000000000000000   10300001 00104100000000083989000000000000     
100   62443100313002190000000000039800000000039800002000000010410406020513080012247623000602215311001224   1030000500030000   531120155714000045311201557GAMONE PWINT           PTN           MMR11006020513080012240602000000000000000   10300001 00104100000000009552000000000000     
100   62911028202116610000000000093000000000093000002000000010410406020853070025274773800602215315002527   1030000500030000   598320001604000015172200016MAX ENERGY             PTN           MMR11006020853070025270602000000000000000   10300001 00104100000000002790000000000000     
100   95050321232876860000000000093000000000093000002000000010410406020402010386594955070602215304038659   1030000600030000   554100001865315799420001235DENKO NAY PYI TAW 2    NAYPYITAW     MMR11006020402010386590602000000000000000   10300001 00104100000000011160000000000000     
100   95030310098554020000000000080000000000080000002000000010410406020521470900514773800602215305090051   1030000600030000   554100000946315799420000471DENKO BAHAN            YANGON        MMR11006020521470900510602000000000000000   10300001 00104100000000002400000000000000     
100   62911028202527490000000000038000000000038000002000000010410406020625512099744773800602215313209974   1040001600030000   598320000915000000010000664MMTM - North Dagon     Ygn           MMR11006020625512099740602000000000000000   10300001F00104100000000001140000000000000     
100   62911028202761360000000000100000000000100000002000000010410406010932420358934773800601215209035893   1030000600030000   554100001155315799420000607DENKO NPT 1            NAYPYITAW.    MMR11006010932420358930601000000000000000   10300001 00104100000000003000000000000000     
100   62911028202162640000000000046500000000046500002000000010410406021040180008314773800602215317000831   1030000500030000   591220132901008605912201329THEIK DI WIN SHOP      PTN           MMR11006021040180008310602000000000000000   10300001 00104100000000002790000000000000     
100   95050316563230820000000000078000000000078000002000000010410406030411494149367681510603000007271735   1030000200030000   333800010001203104000003327KBZPay                 Yangon        MMR11006030411494149360603000000000000000   10300001F05104100000000016380000000000000     
100   95050318214455130000000000002940000000002940002000000010410406031221055105335158550603000007275423   1020000200030000   333400010001204104000000281Myanmar Soft-Gate Tech Yangon        MMR11006031221055105330603000000000000000   10300001F05104100000000000617000000000000     
100   95050315474529910000000000022000000000022000002000000010410406030418094809418568120603000007271796   1030000200030000   3333000100012031040000040282C2P (Myanmar) Co. Ltd Yangon        MMR11006030418094809410603000000000000000   10300001F05104100000000010000000000000000     
100   95050312675525330000000000006000000000006000002000000010410406031424285428670116010603000007275946   1030000200030000   333800010001203104000003327KBZPay                 Yangon        MMR11006031424285428670603000000000000000   10300001F05104100000000001260000000000000     
100   95030367537085740000000000000980000000000980002000000010410406030622595259864773800603000007272847   1020000200030000   333400010001204104000000281Myanmar Soft-Gate Tech Yangon        MMR11006030622595259860603000000000000000   10300001F05104100000000000206000000000000     
100   62443100379321630000000000024900000000024900002000000010410406030614223133488229460603363431209153   1030000500030000   555610122997104519000019269City Mart Supermarket  hanlyin       MMR11006030614223133480603000000000000000   10300001 00104100000000006225000000000000     
100   62443100306028540000000000017350000000017350002000000010410406031235033165548803910603454051927153   1030000500030000   555610110570104519000009164City Mart China Town P int Cen       MMR11006031235033165540603000000000000000   10300001 00104100000000004338000000000000     
100   62443100398177500000000000050000000000050000002000000010410406010855090099214471710601215208009921   1030000600030000   554100002318315799420000510DENKO AUNG SAN         YANGON        MMR11006010855090099210601000000000000000   10300001 00104100000000006000000000000000     
100   95050312845568060000000000039000000000039000002000000010410406030407362059806029020603731371036153   1030000900030000   573219001178190110000000934UNIQUE Pansodan        YANGONADA     MMR11006030407362059800603000000000000000   10300001F00104100000000009360000000000000     
100   62911028202074950000000000043000000000043000002000000010410406012346240032994773800602215306003299   1030000500030000   598320001202000015172200012MAX ENERGY             PTN           MMR11006012346240032990602000000000000000   10300001 00104100000000001290000000000000     
100   95030331359799240000000000005000000000005000002000000010410406030134530453444773800603000007270577   1030000200030000   3338000100012031040000040022C2P (Myanmar) Co. Ltd Yangon        MMR11006030134530453440603000000000000000   10300001F05104100000000001050000000000000     
100   62443100345308040000000000100000000000100000002000000010410406031056092609007242240603000007275036   1030000200030000   333800010001203104000003327KBZPay                 Yangon        MMR11006031056092609000603000000000000000   10300001F05104100000000021000000000000000     
100   62911028202725640000000000034300000000034300002000000010410406020919470058714773800602000747850248   1030000200030000   596588000900000008000000712KBZ BANK               AK CONCEPT SH MMR11006020919470058710602000000000000000   10300001 00104100000000002058000000000000     
100   95050313836159580000000000001000000000001000002000000010410406031211204120648548620603000007275376   1030000200030000   3334000100012031040000040102C2P (Myanmar) Co. Ltd Yangon        MMR11006031211204120640603000000000000000   10300001F05104100000000000210000000000000     
100   95030393921562700000000000055050000000055050002000000010410406031240202197294773800603896101920153   1030000900030000   541119000547190110000000394Super One ShoppingMall YANGON        MMR11006031240202197290603000000000000000   10300001F00104100000000003303000000000000     
100   95050312498129060000000000011760000000011760002000000010410406030307493749391823650603000007271087   1020000200030000   333400010001204104000000281Myanmar Soft-Gate Tech Yangon        MMR11006030307493749390603000000000000000   10300001F05104100000000002470000000000000     
100   95050314570621780000000000000980000000000980002000000010410406031317084708724903270603000007275677   1020000200030000   333400010001204104000000281Myanmar Soft-Gate Tech Yangon        MMR11006031317084708720603000000000000000   10300001F05104100000000000206000000000000     
100   95050314775367220000000000030000000000030000002000000010410406030618114811868726240603000007272809   1030000200030000   333800010001203104000003327KBZPay                 Yangon        MMR11006030618114811860603000000000000000   10300001F05104100000000006300000000000000     
100   95050315122972560000000000002940000000002940002000000010410406031128585858335249370603000007275205   1020000200030000   333400010001204104000000281Myanmar Soft-Gate Tech Yangon        MMR11006031128585858330603000000000000000   10300001F05104100000000000617000000000000     
100   62911028202366010000000000054300000000054300002000000010410406030440193124944773800603586131104153   1030000500030000   555610103961104519000003818Ocean Oattara Thiri Na PyiTaw        MMR11006030440193124940603000000000000000   10300001 00104100000000003258000000000000     
100   95050327416134790000000000004900000000004900002000000010410406030806083608807058260603000007273779   1020000200030000   333400010001204104000000281Myanmar Soft-Gate Tech Yangon        MMR11006030806083608800603000000000000000   10300001F05104100000000001029000000000000     
100   95050316786253730000000000023000000000023000002000000010410406031104413441393852170603000007275075   1030000200030000   333800010001203104000003327KBZPay                 Yangon        MMR11006031104413441390603000000000000000   10300001F05104100000000004830000000000000     
100   95050318621775380000000000002000000000002000002000000010410406030302423242434071810603000007271026   1030000200030000   3338000100012031040000040022C2P (Myanmar) Co. Ltd Yangon        MMR11006030302423242430603000000000000000   10300001F05104100000000000420000000000000     
