100   95050315066440750000000000019000000000019000002000000010410406041017582401432427400604804471658154   1030000900030000   541119001264190110000000958City Mart PLST C 7     YANGONMYOTHIT MMR11006041017582401430604000000000000000   10300001F00104100000000004750000000000000     
100   95030308100010080000000000000980000000000980002000000010410406041340421042904773800604000007279493   1020000200030000   333400010001204104000000281Myanmar Soft-Gate Tech Yangon        MMR11006041340421042900604000000000000000   10300001F05104100000000000206000000000000     
100   95050312641885210000000000020000000000020000002000000010410406040448331833011562650604000007277488   1030000200030000   333800010001203104000003327KBZPay                 Yangon        MMR11006040448331833010604000000000000000   10300001F05104100000000004200000000000000     
100   62911028202103410000000000080778000000080778002000000010410406040846022377834773800604177161502154   1030000900030000   541119001242190110000000955City Mart JS C 1       YANGONUT      MMR11006040846022377830604000000000000000   10300001F00104100000000004847000000000000     
100   95030339867270590000000000011250000000011250002000000010410406041111142416324773800604866411714154   1030000900030000   591219000695190110000000526Shwe Ohh Pharmacy ST-2 YANGONNGKUUN  MMR11006041111142416320604000000000000000   10300001F00104100000000000675000000000000     
100   95050318597867880000000000025100000000025100002000000010410406040840001000945087250604000007278390   1030000200030000   333800010001203104000003327KBZPay                 Yangon        MMR11006040840001000940604000000000000000   10300001F05104100000000005271000000000000     
100   95050312498129060000000000001960000000001960002000000010410406041041151115881030210604000007278832   1020000200030000   333400010001204104000000281Myanmar Soft-Gate Tech Yangon        MMR11006041041151115880604000000000000000   10300001F05104100000000000412000000000000     
100   95050314570621780000000000000980000000000980002000000010410406041151532153643739500604000007279088   1020000200030000   333400010001204104000000281Myanmar Soft-Gate Tech Yangon        MMR11006041151532153640604000000000000000   10300001F05104100000000000206000000000000     
100   62911028202116120000000000068000000000068000002000000010410406041106142414994773800604768361714154   1030000900030000   541119001256190110000000957City Mart JS City Care YANGONUT      MMR11006041106142414990604000000000000000   10300001F00104100000000004080000000000000     
100   95050319978637470000000000005000000000005000002000000010410406041543101310356278600604000007279879   1030000200030000   3338000100012031040000040022C2P (Myanmar) Co. Ltd Yangon        MMR11006041543101310350604000000000000000   10300001F05104100000000001050000000000000     
100   95050316653112190000000000015100000000015100002000000010410406040842311231720044700604000007278403   1030000200030000   333800010001203104000003327KBZPay                 Yangon        MMR11006040842311231720604000000000000000   10300001F05104100000000003171000000000000     
100   95050312498129060000000000000980000000000980002000000010410406032345061506521683390604000007276623   1020000200030000   333400010001204104000000281Myanmar Soft-Gate Tech Yangon        MMR11006032345061506520604000000000000000   10300001F05104100000000000206000000000000     
100   62911028202460220000000000052380000000052380002000000010410406041102161946034773800604321616240804   1040001400030000   592110000078015921100000365Million Mart Million M rt No. (519/  MMR11006041102161946030604000000000000000   10300001 00104100000000003143000000000000     
100   95030301100124400000000000015350000000015350002000000010410406040342492302494773800604243121049154   1030000900030000   541119000882190110000000084Pro (1) Global (Pazund YANGONARTAUNG MMR11006040342492302490604000000000000000   10300001F00104100000000000921000000000000     
100   95050327192897240000000000022000000000022000002000000010410406041120272418768526760604038501727154   1030000900030000   541119000141190110000000083SeinGayHarParami Cente YANGON        MMR11006041120272418760604000000000000000   10300001F00104100000000005500000000000000     
100   62911028202057620000000000051174000000051174002000000010410406041728350369064773800604000747992150   1030000200030000   541188001025000008000000298KBZ BANK               CITY MART - M MMR11006041728350369060604000000000000000   10300001 00104100000000003070000000000000     
100   95050319870763910000000000000980000000000980002000000010410406041146231623327129560604000007279073   1020000200030000   333400010001204104000000281Myanmar Soft-Gate Tech Yangon        MMR11006041146231623320604000000000000000   10300001F05104100000000000206000000000000     
100   95050319870763910000000000000980000000000980002000000010410406040740541054487505600604000007278160   1020000200030000   333400010001204104000000281Myanmar Soft-Gate Tech Yangon        MMR11006040740541054480604000000000000000   10300001F05104100000000000206000000000000     
100   95050319161596230000000000000980000000000980002000000010410406041336120612109328280604000007279483   1020000200030000   333400010001204104000000281Myanmar Soft-Gate Tech Yangon        MMR11006041336120612100604000000000000000   10300001F05104100000000000206000000000000     
100   62443100395250310000000000300000000000300000002000000010410406040840171017183349670604000007278386   1030000200030000   333800010001203104000003327KBZPay                 Yangon        MMR11006040840171017180604000000000000000   10300001F05104100000000063000000000000000     
100   95050310213446310000000000009800000000009800002000000010410406040847561756978732600604000007278438   1020000200030000   333400010001204104000000281Myanmar Soft-Gate Tech Yangon        MMR11006040847561756970604000000000000000   10300001F05104100000000002058000000000000     
100   95030364439875210000000000007900000000007900002000000010410406041015022400604773800604743451602154   1030000900030000   581219001134190110000000915Gamone in Tea House    YANGONUT      MMR11006041015022400600604000000000000000   10300001F00104100000000000806000000000000     
100   95030301100022270000000000017000000000017000002000000010410406040146122279684773800604965160812154   1030000900030000   554119000997190110000000803Puma Power SOKL        YANGONOKKALAP MMR11006040146122279680604000000000000000   10300001F00104100000000000510000000000000     
100   95050314703432410000000000020000000000020000002000000010410406040050552055117612560604000007276709   1030000200030000   3338000100012031040000040022C2P (Myanmar) Co. Ltd Yangon        MMR11006040050552055110604000000000000000   10300001F05104100000000004200000000000000     
100   95050315259054570000000000000980000000000980002000000010410406040854292429965427640604000007278459   1020000200030000   333400010001204104000000281Myanmar Soft-Gate Tech Yangon        MMR11006040854292429960604000000000000000   10300001F05104100000000000206000000000000     
100   95050326094581320000000000031602000000031602002000000010410406041053152411985902560604566231715154   1030000900030000   541119001512190110000001102Ocean MGDTM C-5        YANGONADON    MMR11006041053152411980604000000000000000   10300001F00104100000000007901000000000000     
100   95050319528093960000000000001960000000001960002000000010410406041549061906564541020604000007279895   1020000200030000   333400010001204104000000281Myanmar Soft-Gate Tech Yangon        MMR11006041549061906560604000000000000000   10300001F05104100000000000412000000000000     
100   95030374458345210000000000031800000000031800002000000010410406040435202316544773800604158051120154   1030000900030000   541119000613190110000000452Pro(1) Global-Hlaing T YANGONTHARYA  MMR11006040435202316540604000000000000000   10300001F00104100000000001908000000000000     
100   62911028202280200000000000033914000000033914002000000010410406040459182321814773800604488291118154   1030000900030000   541119001196190110000000942City Mart HDC C 11     YANGONUT      MMR11006040459182321810604000000000000000   10300001F00104100000000002035000000000000     
100   95050327192897240000000000021000000000021000002000000010410406041044492409629292620604403141749154   1030000900030000   541119000156190110000000083SeinGayHarParami Cente YANGON        MMR11006041044492409620604000000000000000   10300001F00104100000000005250000000000000     
100   62911028202290100000000000031250000000031250002000000010410406040656593217594773800604295251353154   1030000300030000   444410125393104519000021220Myanmar Bakery CoLtd                 MMR11006040656593217590604000000000000000   10300001 00104100000000003188000000000000     
100   62911028202499270000000000013150000000013150002000000010410406041009433664064773800604215517366406   1040001600030000   591220000301000000010000289Shwe Ohh Pharmacy (Yay Yangon        MMR11006041009433664060604000000000000000   10300001F00104100000000000789000000000000     
100   62443101083052160000000000024100000000024100002000000010410406040539453210789825070604687091246154   1030000500030000   555610110570104519000009164City Mart China Town P int Cen       MMR11006040539453210780604000000000000000   10300001 00104100000000006025000000000000     
100   95050324622440820000000000092600000000092600002000000010410406040601013212704357040604878291252154   1030000300030000   555510124696104519000020166Makro Myanmar                        MMR11006040601013212700604000000000000000   10300001 00104100000000022224000000000000     
100   62443100333488440000000000026200000000026200002000000010410406041205113245823143820604027331858154   1030000500030000   555610121914104519000018359City Express MCS 114                 MMR11006041205113245820604000000000000000   10300001 00104100000000006550000000000000     
100   62443100333488440000000000005000000000005000002000000010410406041205523245898186370604035341849154   1030000500030000   555610121914104519000018359City Express MCS 114                 MMR11006041205523245890604000000000000000   10300001 00104100000000001250000000000000     
100   95050314735271470000000000002940000000002940002000000010410406041114514451798696950604000007278933   1020000200030000   333400010001204104000000281Myanmar Soft-Gate Tech Yangon        MMR11006041114514451790604000000000000000   10300001F05104100000000000617000000000000     
100   95050318843447930000000000035100000000035100002000000010410406040410193202929023550604026401051154   1030000500030000   555610103472104519000003420City Mart Yankin Cente 11            MMR11006040410193202920604000000000000000   10300001 00104100000000008775000000000000     
100   62911028202448030000000000002000000000002000002000000010410406040805123223934773800604866341451154   1030000500030000   555610122358104519000018696CityMartSupermarket Sh ePyiTha       MMR11006040805123223930604000000000000000   10300001 00104100000000000120000000000000     
100   62911028202448030000000000026350000000026350002000000010410406040800153223514773800604829301440154   1030000500030000   555610122350104519000018696CityMartSupermarket Sh ePyiTha       MMR11006040800153223510604000000000000000   10300001 00104100000000001581000000000000     
100   62443100328070970000000000032500000000032500002000000010410406041214463246518101280604083441802154   1030000500030000   555610112249104519000010487Ocean Super Center St  ohn           MMR11006041214463246510604000000000000000   10300001 00104100000000008125000000000000     
100   95050317084233280000000000000980000000000980002000000010410406041356162616784285730604000007279546   1020000200030000   333400010001204104000000281Myanmar Soft-Gate Tech Yangon        MMR11006041356162616780604000000000000000   10300001F05104100000000000206000000000000     
100   62443100333488440000000000100000000000100000002000000010410406040454443206570250550604324231130154   1030000500030000   555610115765104519000013506MarketplaceMyanmarPlaz Branch        MMR11006040454443206570604000000000000000   10300001 00104100000000025000000000000000     
100   95050318843447930000000000038400000000038400002000000010410406040407463202593980990604996371040154   1030000500030000   555610103464104519000003420City Mart Yankin Cente 3             MMR11006040407463202590604000000000000000   10300001 00104100000000009600000000000000     
100   95050315066440750000000000000980000000000980002000000010410406041514164416619583560604000007279798   1020000200030000   333400010001204104000000281Myanmar Soft-Gate Tech Yangon        MMR11006041514164416610604000000000000000   10300001F05104100000000000206000000000000     
100   62443100359018060000000000012700000000012700002000000010410406041001403234716058960604922321633154   1030000500030000   555610112249104519000010487Ocean Super Center St  ohn           MMR11006041001403234710604000000000000000   10300001 00104100000000003175000000000000     
100   95030350385420630000000000002050000000002050002000000010410406040931203638574773800604215516363857   1040001600030000   591220000296000000010000284Shwe Ohh Pharmacy (Lan Yangon        MMR11006040931203638570604000000000000000   10300001F00104100000000000123000000000000     
100   95050316601084530000000000000980000000000980002000000010410406040014194419526640850604000007276659   1020000200030000   333400010001204104000000281Myanmar Soft-Gate Tech Yangon        MMR11006040014194419520604000000000000000   10300001F05104100000000000206000000000000     
100   95050316785465380000000000001960000000001960002000000010410406040655232523128817700604000007277983   1020000200030000   333400010001204104000000281Myanmar Soft-Gate Tech Yangon        MMR11006040655232523120604000000000000000   10300001F05104100000000000412000000000000     
100   62443100333488440000000000105850000000105850002000000010410406040434403205154867610604201071125154   1030000500030000   555610115769104519000013506MarketplaceMyanmarPlaz Branch        MMR11006040434403205150604000000000000000   10300001 00104100000000026463000000000000     
100   62443100313002190000000000016000000000016000002000000010410406040543383211044782520604713121244154   1030000500030000   555610112532104519000010487Ocean Super Center St  ohn           MMR11006040543383211040604000000000000000   10300001 00104100000000004000000000000000     
100   62443100328475310000000000159000000000159000002000000010410406040509513485688512970604215512348568   1040001600030000   569120000925000000010000672Generation Concept Sto Ygn           MMR11006040509513485680604000000000000000   10300001F00104100000000038160000000000000     
100   95050312498129060000000000002940000000002940002000000010410406041010404040000774920604000007278726   1020000200030000   333400010001204104000000281Myanmar Soft-Gate Tech Yangon        MMR11006041010404040000604000000000000000   10300001F05104100000000000617000000000000     
100   95050328074436620000000000129300000000129300002000000010410406041015363235895732370604046441631154   1030000300030000   555510124685104519000020166Makro Myanmar                        MMR11006041015363235890604000000000000000   10300001 00104100000000031032000000000000     
100   95050324411430900000000000028000000000028000002000000010410406041058493705382597590604215517370538   1040001600030000   598320000658000000010000527Shwe Taung Energy (YGN Yangon        MMR11006041058493705380604000000000000000   10300001F00104100000000003360000000000000     
100   95050315066440750000000000000980000000000980002000000010410406041508273827057931080604000007279780   1020000200030000   333400010001204104000000281Myanmar Soft-Gate Tech Yangon        MMR11006041508273827050604000000000000000   10300001F05104100000000000206000000000000     
100   95050314749068520000000000020200000000020200002000000010410406040859012901041952480604000007278467   1030000300030000   333300010001206104000001685MM Bus Ticket          Yangon        MMR11006040859012901040604000000000000000   10300001F05104100000000010000000000000000     
100   62443101006526980000000000146600000000146600002000000010410406040904353229153094380604378331528154   1030000300030000   555510124695104519000020166Makro Myanmar                        MMR11006040904353229150604000000000000000   10300001 00104100000000035184000000000000     
100   95050323670692380000000000063600000000063600002000000010410406040144343382229605430604215508338222   1040001600030000   591220000262000000010000250Shwe Ohh Pharmacy (SC- Yangon        MMR11006040144343382220604000000000000000   10300001F00104100000000015264000000000000     
100   95050314557307430000000000002940000000002940002000000010410406041300433043664966500604000007279367   1020000200030000   333400010001204104000000281Myanmar Soft-Gate Tech Yangon        MMR11006041300433043660604000000000000000   10300001F05104100000000000617000000000000     
100   95030301100124400000000000138300000000138300002000000010410406040320473199224773800604730490946154   1030000300030000   555510124693104519000020166Makro Myanmar                        MMR11006040320473199220604000000000000000   10300001 00104100000000008298000000000000     
100   62443100360763680000000000125350000000125350002000000010410406040615283526952619460604215513352695   1040001600030000   591220000287000000010000275Shwe Ohh Pharmacy (Wit Yangon        MMR11006040615283526950604000000000000000   10300001F00104100000000030084000000000000     
100   95050314557307430000000000001960000000001960002000000010410406040356352635695718580604000007277253   1020000200030000   333400010001204104000000281Myanmar Soft-Gate Tech Yangon        MMR11006040356352635690604000000000000000   10300001F05104100000000000412000000000000     
100   95050310213446310000000000009800000000009800002000000010410406040905183518294661770604000007278491   1020000200030000   333400010001204104000000281Myanmar Soft-Gate Tech Yangon        MMR11006040905183518290604000000000000000   10300001F05104100000000002058000000000000     
100   95050310281229490000000000100000000000100000002000000010410406041207573757479838860604000007279179   1030000200030000   333800010001203104000003327KBZPay                 Yangon        MMR11006041207573757470604000000000000000   10300001F05104100000000021000000000000000     
100   95050310427855490000000000000980000000000980002000000010410406041410454045685938210604000007279589   1020000200030000   333400010001204104000000281Myanmar Soft-Gate Tech Yangon        MMR11006041410454045680604000000000000000   10300001F05104100000000000206000000000000     
100   95050311382087030000000000027000000000027000002000000010410406040525495549317917290604000007277635   1030000200030000   3338000100012031040000040022C2P (Myanmar) Co. Ltd Yangon        MMR11006040525495549310604000000000000000   10300001F05104100000000005670000000000000     
100   62911028202527490000000000029000000000029000002000000010410406040416272311254773800604815461027154   1030000900030000   554119001037190110000000842Puma Power(BBIBB)      MONON         MMR11006040416272311250604000000000000000   10300001F00104100000000000870000000000000     
100   62443100392426520000000000010000000000010000002000000010410406041215394539019753760604000007279216   1030000200030000   333800010001203104000003327KBZPay                 Yangon        MMR11006041215394539010604000000000000000   10300001F05104100000000002100000000000000     
100   95050313243172680000000000055500000000055500002000000010410406040415434543018938450604000007277348   1030000200030000   333800010001203104000003327KBZPay                 Yangon        MMR11006040415434543010604000000000000000   10300001F05104100000000011655000000000000     
100   95050318057347910000000000002940000000002940002000000010410406041223105310176448790604000007279234   1020000200030000   333400010001204104000000281Myanmar Soft-Gate Tech Yangon        MMR11006041223105310170604000000000000000   10300001F05104100000000000617000000000000     
100   95030357609700370000000000004900000000004900002000000010410406040629275927384773800604000007277859   1020000200030000   333400010001204104000000281Myanmar Soft-Gate Tech Yangon        MMR11006040629275927380604000000000000000   10300001F05104100000000001029000000000000     
100   95050319928585020000000000000980000000000980002000000010410406040617174717639314490604000007277807   1020000200030000   333400010001204104000000281Myanmar Soft-Gate Tech Yangon        MMR11006040617174717630604000000000000000   10300001F05104100000000000206000000000000     
100   95050319928585020000000000001000000000001000002000000010410406041125125512420179240604000007278973   1030000200030000   3338000100012031040000040022C2P (Myanmar) Co. Ltd Yangon        MMR11006041125125512420604000000000000000   10300001F05104100000000000210000000000000     
100   95050312498129060000000000000980000000000980002000000010410406041319284928411065860604000007279423   1020000200030000   333400010001204104000000281Myanmar Soft-Gate Tech Yangon        MMR11006041319284928410604000000000000000   10300001F05104100000000000206000000000000     
100   95050319928585020000000000001000000000001000002000000010410406041121505150633569300604000007278956   1030000200030000   3338000100012031040000040022C2P (Myanmar) Co. Ltd Yangon        MMR11006041121505150630604000000000000000   10300001F05104100000000000210000000000000     
100   95050311419479170000000000001960000000001960002000000010410406031728055805704988370604000007276435   1020000200030000   333400010001204104000000281Myanmar Soft-Gate Tech Yangon        MMR11006031728055805700604000000000000000   10300001F05104100000000000412000000000000     
100   95050319928585020000000000001960000000001960002000000010410406040609563956531052070604000007277777   1020000200030000   333400010001204104000000281Myanmar Soft-Gate Tech Yangon        MMR11006040609563956530604000000000000000   10300001F05104100000000000412000000000000     
100   95050310213446310000000000005880000000005880002000000010410406040137500750191343010604000007276796   1020000200030000   333400010001204104000000281Myanmar Soft-Gate Tech Yangon        MMR11006040137500750190604000000000000000   10300001F05104100000000001235000000000000     
100   95050319220344710000000000002940000000002940002000000010410406041235000500741746630604000007279277   1020000200030000   333400010001204104000000281Myanmar Soft-Gate Tech Yangon        MMR11006041235000500740604000000000000000   10300001F05104100000000000617000000000000     
100   62911028202245730000000000270000000000270000002000000010410406040508543485124773800604215512348512   1040001600030000   591220000292000000010000280Shwe Ohh Pharmacy (Cha Yangon        MMR11006040508543485120604000000000000000   10300001F00104100000000016200000000000000     
100   62911028202594880000000000030850000000030850002000000010410406040342143437064773800604215510343706   1040001600030000   591220000270000000010000258Shwe Ohh Pharmacy (U C Yangon        MMR11006040342143437060604000000000000000   10300001F00104100000000001851000000000000     
100   62911028202919290000000000006037000000006037002000000010410406040640341034944773800604000007277926   1030000200030000   333800010001203104000003327KBZPay                 Yangon        MMR11006040640341034940604000000000000000   10300001F05104100000000001268000000000000     
100   62911028202116120000000000109484000000109484002000000010410406041140222423254773800604334101822154   1030000900030000   541119001247190110000000955City Mart JS C 6       YANGONUT      MMR11006041140222423250604000000000000000   10300001F00104100000000006569000000000000     
100   95050319870763910000000000000980000000000980002000000010410406041145071507340519630604000007279064   1020000200030000   333400010001204104000000281Myanmar Soft-Gate Tech Yangon        MMR11006041145071507340604000000000000000   10300001F05104100000000000206000000000000     
100   95050314401921990000000000045000000000045000002000000010410406040043441344361002630604000007276697   1030000200030000   3338000100012031040000040022C2P (Myanmar) Co. Ltd Yangon        MMR11006040043441344360604000000000000000   10300001F05104100000000009450000000000000     
100   95050320093758110000000000015750000000015750002000000010410406041720540048367640140604000747991641   1030000200030000   541188001355000008000000395KBZ BANK               OCEAN SUPERMA MMR11006041720540048360604000000000000000   10300001 00104100000000003938000000000000     
100   62911028202777790000000000007575000000007575002000000010410406040843161316264773800604000007278408   1030000200030000   333800010001203104000003327KBZPay                 Yangon        MMR11006040843161316260604000000000000000   10300001F05104100000000001591000000000000     
100   95050314570621780000000000000980000000000980002000000010410406041322445244017675790604000007279433   1020000200030000   333400010001204104000000281Myanmar Soft-Gate Tech Yangon        MMR11006041322445244010604000000000000000   10300001F05104100000000000206000000000000     
100   95050319709462380000000000001960000000001960002000000010410406040013414341451598300604000007276658   1020000200030000   333400010001204104000000281Myanmar Soft-Gate Tech Yangon        MMR11006040013414341450604000000000000000   10300001F05104100000000000412000000000000     
100   95050310816569570000000000200000000000200000002000000010410406040017284728458293330604000007276662   1030000200030000   333800010001203104000003327KBZPay                 Yangon        MMR11006040017284728450604000000000000000   10300001F05104100000000042000000000000000     
100   62443100340422630000000000078750000000078750002000000010410406030906480006135795600603000348377968   1030000300030000   541100000525000000000000102CB BANK                MAKRO MYANMAR MMR11006030906480006130603000000000000000   10300001F00104100000000019688000000000000     
100   95050314749068520000000000020200000000020200002000000010410406040919074907844831960604000007278532   1030000300030000   333300010001206104000001685MM Bus Ticket          Yangon        MMR11006040919074907840604000000000000000   10300001F05104100000000010000000000000000     
100   95050319938772870000000000000980000000000980002000000010410406041317294729354370820604000007279412   1020000200030000   333400010001204104000000281Myanmar Soft-Gate Tech Yangon        MMR11006041317294729350604000000000000000   10300001F05104100000000000206000000000000     
100   95050311382087030000000000001000000000001000002000000010410406040532130213786179710604000007277655   1030000200030000   3338000100012031040000040022C2P (Myanmar) Co. Ltd Yangon        MMR11006040532130213780604000000000000000   10300001F05104100000000000210000000000000     
100   95050312675525330000000000020000000000020000002000000010410406041320375037132633240604000007279426   1030000200030000   333800010001203104000003327KBZPay                 Yangon        MMR11006041320375037130604000000000000000   10300001F05104100000000004200000000000000     
100   95030318100002710000000000004900000000004900002000000010410406040508153815734773800604000007277567   1020000200030000   333400010001204104000000281Myanmar Soft-Gate Tech Yangon        MMR11006040508153815730604000000000000000   10300001F05104100000000001029000000000000     
100   95050319111666800000000000000980000000000980002000000010410406032303003300200030910604000007276597   1020000200030000   333400010001204104000000281Myanmar Soft-Gate Tech Yangon        MMR11006032303003300200604000000000000000   10300001F05104100000000000206000000000000     
100   95050320205194540000000000086150000000086150002000000010410406041140053742402257210604215518374240   1040001600030000   591220000288000000010000276Shwe Ohh Pharmacy (Nor Yangon        MMR11006041140053742400604000000000000000   10300001F00104100000000020676000000000000     
100   62911028202161240000000000001600000000001600002000000010410406041032300093514773800604000747966574   1030000200030000   541188001033000008000000298KBZ BANK               CITY MART - M MMR11006041032300093510604000000000000000   10300001 00104100000000000096000000000000     
100   95050315066440750000000000000980000000000980002000000010410406041502283228579668660604000007279764   1020000200030000   333400010001204104000000281Myanmar Soft-Gate Tech Yangon        MMR11006041502283228570604000000000000000   10300001F05104100000000000206000000000000     
100   62911028202443730000000000021000000000021000002000000010410406041231043789254773800604215519378925   1040001600030000   598320000913000000010000663MMTM - Ywarma          Ygn           MMR11006041231043789250604000000000000000   10300001F00104100000000000630000000000000     
100   62911028202313470000000000102050000000102050002000000010410406041033443684364773800604215517368436   1040001600030000   591220000285000000010000273Shwe Ohh Pharmacy (47t Yangon        MMR11006041033443684360604000000000000000   10300001F00104100000000006123000000000000     
100   62911028202023630000000000018200000000018200002000000010410406041450120058714773800604000747982962   1030000200030000   541188001366000008000000395KBZ BANK               OCEAN SUPERMA MMR11006041450120058710604000000000000000   10300001 00104100000000001092000000000000     
100   95050316231020800000000000006000000000006000002000000010410406040838082376015002150604056081508154   1030000900030000   541119001244190110000000955City Mart JS C 3       YANGONUT      MMR11006040838082376010604000000000000000   10300001F00104100000000001500000000000000     
100   95050319709462380000000000005000000000005000002000000010410406040344221422812073230604000007277196   1030000200030000   3338000100012031040000040022C2P (Myanmar) Co. Ltd Yangon        MMR11006040344221422810604000000000000000   10300001F05104100000000001050000000000000     
100   95050310553090700000000000007200000000007200002000000010410406030654080001517264100603000348356855   1030000300030000   541100000908000000000000645CB BANK                ONE STOP MART MMR11006030654080001510603000000000000000   10300001F00104100000000001800000000000000     
100   62443101023815100000000000009800000000009800002000000010410406030526290013426104440603000348342903   1030000300030000   581200001830000000000001314CB BANK                SP BAKERY (GM MMR11006030526290013420603000000000000000   10300001F00104100000000004165000000000000     
100   95050314557307430000000000025495000000025495002000000010410406030859520033963001210603000348376866   1030000300030000   591200000183000000000000090CB BANK                MEDICARE STOR MMR11006030859520033960603000000000000000   10300001F00104100000000006119000000000000     
100   62443100360763680000000000306000000000306000002000000010410406040751150006539158080604000747981122   1030000200030000   596588002421000008000006474KBZ BANK               AMERICAN COLL MMR11006040751150006530604000000000000000   10300001 00104100000000073440000000000000     
100   62443100328475310000000000051400000000051400002000000010410406040613080021280966970604000747974927   1030000200030000   581288000671000008000004115KBZ BANK               MIN LANN REST MMR11006040613080021280604000000000000000   10300001 00104100000000021845000000000000     
100   62443100328475310000000000032800000000032800002000000010410406040421540003785548380604000747967570   1030000200030000   569988002501000008000006688KBZ BANK               ST-JOHN IPANE MMR11006040421540003780604000000000000000   10300001 00104100000000007872000000000000     
100   62911028202473430000000000100000000000100000002000000010410406041022590057094773800604000747965973   1030000200030000   541188001028000008000000298KBZ BANK               CITY MART - M MMR11006041022590057090604000000000000000   10300001 00104100000000006000000000000000     
100   62911028202207460000000000004300000000004300002000000010410406041127130061384773800604000747969128   1030000200030000   541188001072000008000000314KBZ BANK               MARKETPLACE - MMR11006041127130061380604000000000000000   10300001 00104100000000000258000000000000     
100   95050316717221100000000000000980000000000980002000000010410406041030580058759037330604000007278789   1020000200030000   333400010001204104000000281Myanmar Soft-Gate Tech Yangon        MMR11006041030580058750604000000000000000   10300001F05104100000000000206000000000000     
100   95050310902464360000000000009800000000009800002000000010410406041231420142741406240604000007279260   1020000200030000   333400010001204104000000281Myanmar Soft-Gate Tech Yangon        MMR11006041231420142740604000000000000000   10300001F05104100000000002058000000000000     
100   62911028202245730000000000088450000000088450002000000010410406040836280037554773800604000747961164   1030000200030000   541188001005000008000000008KBZ BANK               MARKETPLACE - MMR11006040836280037550604000000000000000   10300001 00104100000000005307000000000000     
100   95030346130941600000000000023106000000023106002000000010410406041627290250854773800604000747988485   1030000200030000   541188001059000008000000314KBZ BANK               MARKETPLACE - MMR11006041627290250850604000000000000000   10300001 00104100000000001386000000000000     
100   95050314692738880000000000002940000000002940002000000010410406041233210321285136690604000007279269   1020000200030000   333400010001204104000000281Myanmar Soft-Gate Tech Yangon        MMR11006041233210321280604000000000000000   10300001F05104100000000000617000000000000     
100   95050311779172060000000000006650000000006650002000000010410406041211250213689739970604000747971843   1030000200030000   541188001070000008000000314KBZ BANK               MARKETPLACE - MMR11006041211250213680604000000000000000   10300001 00104100000000001663000000000000     
100   62443101028043880000000000015100000000015100002000000010410406041126250235615293100604000747969095   1030000200030000   541188001007000008000000008KBZ BANK               MARKETPLACE - MMR11006041126250235610604000000000000000   10300001 00104100000000003775000000000000     
100   95050322921717110000000000038427000000038427002000000010410406040957330248712158320604000747964620   1030000200030000   541188001003000008000000008KBZ BANK               MARKETPLACE - MMR11006040957330248710604000000000000000   10300001 00104100000000009607000000000000     
100   62443100300743690000000000008174000000008174002000000010410406041640450147565817460604000747989200   1030000200030000   541188001056000008000000314KBZ BANK               MARKETPLACE - MMR11006041640450147560604000000000000000   10300001 00104100000000002044000000000000     
100   62911028202045260000000000007050000000007050002000000010410406041441220033564773800604000747982350   1030000200030000   541188001077000008000000294KBZ BANK               CITY MART - J MMR11006041441220033560604000000000000000   10300001 00104100000000000423000000000000     
100   95050315752234130000000000039353000000039353002000000010410406041058260035209910160604000747967873   1030000200030000   541188001454000008000000391KBZ BANK               OCEAN SUPER C MMR11006041058260035200604000000000000000   10300001 00104100000000009839000000000000     
100   62911028202473430000000000059000000000059000002000000010410406041020100132424773800604000747965817   1030000200030000   541188001023000008000000298KBZ BANK               CITY MART - M MMR11006041020100132420604000000000000000   10300001 00104100000000003540000000000000     
100   62911028202651050000000000080000000000080000002000000010410406040829570337934773800604000747960917   1030000200030000   541188001039000008000000010KBZ BANK               MARKETPLACE - MMR11006040829570337930604000000000000000   10300001 00104100000000004800000000000000     
100   62911028202161240000000000030238000000030238002000000010410406041028310132434773800604000747966387   1030000200030000   541188001023000008000000298KBZ BANK               CITY MART - M MMR11006041028310132430604000000000000000   10300001 00104100000000001814000000000000     
100   95050313640946520000000000100000000000100000002000000010410406040431490149194952710604000007277417   1030000200030000   333800010001203104000003327KBZPay                 Yangon        MMR11006040431490149190604000000000000000   10300001F05104100000000021000000000000000     
100   62911028202446540000000000044050000000044050002000000010410406041920230037284773800604000747998212   1030000200030000   541188001021000008000000298KBZ BANK               CITY MART - M MMR11006041920230037280604000000000000000   10300001 00104100000000002643000000000000     
100   95050314692738880000000000002940000000002940002000000010410406041231590159508441660604000007279263   1020000200030000   333400010001204104000000281Myanmar Soft-Gate Tech Yangon        MMR11006041231590159500604000000000000000   10300001F05104100000000000617000000000000     
100   62911028202023630000000000044750000000044750002000000010410406041515300031984773800604000747984442   1030000200030000   541188001354000008000000395KBZ BANK               OCEAN SUPERMA MMR11006041515300031980604000000000000000   10300001 00104100000000002685000000000000     
100   95050312498129060000000000004900000000004900002000000010410406041347161716609243180604000007279518   1020000200030000   333400010001204104000000281Myanmar Soft-Gate Tech Yangon        MMR11006041347161716600604000000000000000   10300001F05104100000000001029000000000000     
100   62911028202777790000000000009500000000009500002000000010410406041449131913924773800604000007279732   1030000200030000   333800010001203104000003327KBZPay                 Yangon        MMR11006041449131913920604000000000000000   10300001F05104100000000001995000000000000     
100   95050327192897240000000000007500000000007500002000000010410406041059212413432512490604669291721154   1030000900030000   541119000148190110000000083SeinGayHarParami Cente YANGON        MMR11006041059212413430604000000000000000   10300001F00104100000000001875000000000000     
100   62911028202107390000000000030000000000030000002000000010410406041105562414904773800604760351756154   1030000900030000   554119001037190110000000842Puma Power(BBIBB)      MONON         MMR11006041105562414900604000000000000000   10300001F00104100000000000900000000000000     
100   95050312280776950000000000030000000000030000002000000010410406041123435343933484210604000007278968   1030000200030000   3338000100012031040000040022C2P (Myanmar) Co. Ltd Yangon        MMR11006041123435343930604000000000000000   10300001F05104100000000006300000000000000     
100   95050318057347910000000000001960000000001960002000000010410406041422585258731321150604000007279638   1020000200030000   333400010001204104000000281Myanmar Soft-Gate Tech Yangon        MMR11006041422585258730604000000000000000   10300001F05104100000000000412000000000000     
100   62443101071845130000000000062700000000062700002000000010410406040419154915300590930604000007277366   1030000200030000   3333000100012031040000040282C2P (Myanmar) Co. Ltd Yangon        MMR11006040419154915300604000000000000000   10300001F05104100000000010000000000000000     
100   62443100395535610000000000300000000000300000002000000010410406040229545954595619690604000007276935   1030000200030000   333800010001203104000003327KBZPay                 Yangon        MMR11006040229545954590604000000000000000   10300001F05104100000000063000000000000000     
