100   62443100378093870000000000050800000000050800002000000010410406050825212610222251490605588551421155   1030000900030000   541119001206190110000000948City Mart YK C 4       YANGONAUNG    MMR11006050825212610220605000000000000000   10300001F00104100000000012700000000000000     
100   62911028202091860000000000030000000000030000002000000010410406050705473547654773800605000007281484   1030000200030000   333800010001203104000003327KBZPay                 Yangon        MMR11006050705473547650605000000000000000   10300001F05104100000000006300000000000000     
100   95030393581449300000000000000500000000000500002000000010410406050905133513734773800605000007281945   1030000200030000   333800010001203104000003327KBZPay                 Yangon        MMR11006050905133513730605000000000000000   10300001F05104100000000000105000000000000     
100   62911028202471860000000000022000000000022000002000000010410406050939454357084773800605215616435708   1040001600030000   598320001059000000010000780Yangon Petrol (Tharket Ygn           MMR11006050939454357080605000000000000000   10300001F00104100000000000660000000000000     
100   62911028202308280000000000021525000000021525002000000010410406051130464448124773800605215618444812   1040001600030000   581420001161000000010000871Kin Sakura (Bo Aung Ky ygn           MMR11006051130464448120605000000000000000   10300001F00104100000000000646000000000000     
100   95050312498129060000000000001960000000001960002000000010410406050218174817432627530605000007280480   1020000200030000   333400010001204104000000281Myanmar Soft-Gate Tech Yangon        MMR11006050218174817430605000000000000000   10300001F05104100000000000412000000000000     
100   95050316377977350000000000005000000000005000002000000010410406050829235923558946530605000007281820   1040001600030000   333800010001220104000004507A +                    Yangon        MMR11006050829235923550605000000000000000   10300001F05104100000000001050000000000000     
100   62443100306416880000000000038850000000038850002000000010410406041420580002442973630604215520000244   1030000500030000   581220027401000015812200274GINKI YANGON RESTAURAN PTN           MMR11006041420580002440604000000000000000   10300001 00104100000000016512000000000000     
100   62443100363668680000000000019950000000019950002000000010410406041234240012381661530604215519001238   1030000500030000   581220041801000055812200418SHWE LAR HOT POT       PTN           MMR11006041234240012380604000000000000000   10300001 00104100000000008479000000000000     
100   62911028202264530000000000044200000000044200002000000010410406040241420003754773800604215509000375   1030000500030000   809920152601003108099201526LUDU                   PTN           MMR11006040241420003750604000000000000000   10300001 00104100000000002652000000000000     
100   95030306100078820000000000026450000000026450002000000010410406040615060013034773800604215512001303   1030000500030000   541120020701022205411200207ORANGE (YDG)           PTN           MMR11006040615060013030604000000000000000   10300001 00104100000000001587000000000000     
100   62911028202917880000000000017000000000017000002000000010410406040835520000714773800604215515000071   1030000500030000   531120226706000045311202267OCEAN NORTH POINT      PTN           MMR11006040835520000710604000000000000000   10300001 00104100000000001020000000000000     
100   95050328074436620000000000062400000000062400002000000010410406040604250002836009520604215512000283   1030000500030000   591220013401014405912200134SHWE OHH PHARMACY      PTN           MMR11006040604250002830604000000000000000   10300001 00104100000000014976000000000000     
100   62911028202693960000000000018950000000018950002000000010410406041314450015764773800604215519001576   1030000500030000   541120020902022205411200209ORANGE (HLAING)        PTN           MMR11006041314450015760604000000000000000   10300001 00104100000000001137000000000000     
100   62911028202651050000000000035000000000035000002000000010410406040945270003564773800604215516000356   1030000500030000   573220040201000015732200402REMAX                  PTN           MMR11006040945270003560604000000000000000   10300001 00104100000000002100000000000000     
100   95050314248677090000000000108000000000108000002000000010410406040915180004643179480604215515000464   1030000500030000   569120116101000015691201161AMERICAN COLLECTION (H PTN           MMR11006040915180004640604000000000000000   10300001 00104100000000025920000000000000     
100   62911028202243590000000000019700000000019700002000000010410406050341414148064773800605215610414806   1040001600030000   591220000288000000010000276Shwe Ohh Pharmacy (Nor Yangon        MMR11006050341414148060605000000000000000   10300001F00104100000000001182000000000000     
100   62443100313002190000000000050000000000050000002000000010410406050413514351301691470605000007280872   1030000200030000   333800010001203104000003327KBZPay                 Yangon        MMR11006050413514351300605000000000000000   10300001F05104100000000010500000000000000     
100   62911028202163630000000000010000000000010000002000000010410406051107004427974773800605215618442797   1040001600030000   598320000916000000010000664MMTM - North Dagon     Ygn           MMR11006051107004427970605000000000000000   10300001F00104100000000000300000000000000     
100   62443100333488440000000000037990000000037990002000000010410406040613060003477662000604215512000347   1030000500030000   531120201507000085311202015HAGL BLAZON            PTN           MMR11006040613060003470604000000000000000   10300001 00104100000000009118000000000000     
100   95050326198165350000000000016600000000016600002000000010410406040647250005450470180604000348532788   1030000300030000   541100000867000000000000603CB BANK                ONE STOP MART MMR11006040647250005450604000000000000000   10300001F00104100000000004150000000000000     
100   95050310332595380000000000002940000000002940002000000010410406051605223522017683870605000007283288   1020000200030000   333400010001204104000000281Myanmar Soft-Gate Tech Yangon        MMR11006051605223522010605000000000000000   10300001F05104100000000000617000000000000     
100   62911028202524260000000000023500000000023500002000000010410406051049034412344773800605215617441234   1040001600030000   598320000659000000010000528Shwe Taung Energy (YGN Yangon        MMR11006051049034412340605000000000000000   10300001F00104100000000000705000000000000     
100   62911028202093760000000000000980000000000980002000000010410406050119454945894773800605000007280344   1020000200030000   333400010001204104000000281Myanmar Soft-Gate Tech Yangon        MMR11006050119454945890605000000000000000   10300001F05104100000000000206000000000000     
100   62911028202193670000000000043000000000043000002000000010410406041112040026304773800604215517002630   1030000500030000   598320001602000015172200016MAX ENERGY             PTN           MMR11006041112040026300604000000000000000   10300001 00104100000000001290000000000000     
100   62911028202286990000000000050000000000050000002000000010410406040715290040614773800604215513004061   1030000500030000   598320001304000015172200013MAX ENERGY             PTN           MMR11006040715290040610604000000000000000   10300001 00104100000000001500000000000000     
100   62911028202460220000000000013504000000013504002000000010410406041129110038184773800604215517003818   1030000500030000   598320001203000015172200012MAX ENERGY             PTN           MMR11006041129110038180604000000000000000   10300001 00104100000000000405000000000000     
100   62911028202135350000000000059000000000059000002000000010410406040909390030464773800604215515003046   1030000500030000   598320001701000015172200017MAX ENERGY             PTN           MMR11006040909390030460604000000000000000   10300001 00104100000000001770000000000000     
100   95030308100042590000000000015400000000015400002000000010410406040814330027484773800604000348545359   1030000300030000   581400000692000000000000478CB BANK                KFC PARAMI SG MMR11006040814330027480604000000000000000   10300001F00104100000000000462000000000000     
100   95050327386436040000000000018100000000018100002000000010410406051003160001650343720605000748038641   1030000200030000   541188002337000008000006213KBZ BANK               BEAR MART-1   MMR11006051003160001650605000000000000000   10300001 00104100000000004525000000000000     
100   62911028202474000000000000107512000000107512002000000010410406050956370037434773800605000748018195   1030000200030000   541188001021000008000000298KBZ BANK               CITY MART - M MMR11006050956370037430605000000000000000   10300001 00104100000000006451000000000000     
100   62911028202110420000000000007550000000007550002000000010410406051232470023074773800605000748026203   1030000200030000   581288000219000008000002000KBZ BANK               SORABOL KOREA MMR11006051232470023070605000000000000000   10300001 00104100000000000770000000000000     
100   95050312498129060000000000005880000000005880002000000010410406051327575757374123610605000007282790   1020000200030000   333400010001204104000000281Myanmar Soft-Gate Tech Yangon        MMR11006051327575757370605000000000000000   10300001F05104100000000001235000000000000     
100   95050324154190880000000000035000000000035000002000000010410406040534020021993130030604215512002199   1030000500030000   598320068301000055983200683MAX ENERGY             PTN           MMR11006040534020021990604000000000000000   10300001 00104100000000004200000000000000     
100   62911028202651050000000000045391000000045391002000000010410406040858500021244773800604215515002124   1030000500030000   581220146401013205812201464THAI 47 (HELPIN BRANCH PTN           MMR11006040858500021240604000000000000000   10300001 00104100000000004630000000000000     
100   62911028202527800000000000050000000000050000002000000010410406041124000026714773800604215517002671   1030000500030000   598320001601000015172200016MAX ENERGY             PTN           MMR11006041124000026710604000000000000000   10300001 00104100000000001500000000000000     
100   62443100396287690000000000115940000000115940002000000010410406051107544428760272410605215618442876   1040001600030000   581420000804000000010000580Jeff's Kitchen (Kan Ye Yangon        MMR11006051107544428760605000000000000000   10300001F00104100000000013913000000000000     
100   95050321848852460000000000036017000000036017002000000010410406051306114530054634190605215620453005   1040001600030000   598320000310000000010000298PT Power Petrol Statio Yangon        MMR11006051306114530050605000000000000000   10300001F00104100000000004322000000000000     
100   95050316377977350000000000005000000000005000002000000010410406050120325032279577850605000007280346   1040001600030000   333800010001220104000004507A +                    Yangon        MMR11006050120325032270605000000000000000   10300001F05104100000000001050000000000000     
100   95030346130941600000000000015030000000015030002000000010410406041217000056654773800604000348579229   1030000300030000   806200000192000000000000097CB BANK                AUNG YADANA H MMR11006041217000056650604000000000000000   10300001F00104100000000000902000000000000     
100   95050313817486860000000000004400000000004400002000000010410406051844330048326116480605000748044938   1030000200030000   541188001426000008000000401KBZ BANK               OCEAN SUPERCE MMR11006051844330048320605000000000000000   10300001 00104100000000001100000000000000     
100   95050316785465380000000000001960000000001960002000000010410406051230210021959761830605000007282598   1020000200030000   333400010001204104000000281Myanmar Soft-Gate Tech Yangon        MMR11006051230210021950605000000000000000   10300001F05104100000000000412000000000000     
100   62911028202527070000000000018628000000018628002000000010410406051634490037764773800605000748038724   1030000200030000   541188001021000008000000298KBZ BANK               CITY MART - M MMR11006051634490037760605000000000000000   10300001 00104100000000001118000000000000     
100   95050322158563070000000000016600000000016600002000000010410406051752050093950187320605000748042688   1030000200030000   541188001022000008000000298KBZ BANK               CITY MART - M MMR11006051752050093950605000000000000000   10300001 00104100000000004150000000000000     
100   62443101001072630000000000039600000000039600002000000010410406051656210058780017120605000748039919   1030000200030000   541188001366000008000000395KBZ BANK               OCEAN SUPERMA MMR11006051656210058780605000000000000000   10300001 00104100000000009900000000000000     
100   95030318100004530000000000054575000000054575002000000010410406051332590047074773800605000748029234   1030000200030000   541188001424000008000000401KBZ BANK               OCEAN SUPERCE MMR11006051332590047070605000000000000000   10300001 00104100000000003275000000000000     
100   62911028202132460000000000097636000000097636002000000010410406050617290021504773800605000748026952   1030000200030000   581288000671000008000004115KBZ BANK               MIN LANN REST MMR11006050617290021500605000000000000000   10300001 00104100000000009959000000000000     
100   95050328570548980000000000017100000000017100002000000010410406050330360035300719760605000748018358   1030000200030000   599988000601000008000003442KBZ BANK               SWEETY HOME ( MMR11006050330360035300605000000000000000   10300001 00104100000000004104000000000000     
100   95050318877641040000000000019000000000019000002000000010410406050651450007701620170605000748028631   1030000200030000   569988000806000008000004620KBZ BANK               STJ-BLAZON    MMR11006050651450007700605000000000000000   10300001 00104100000000004560000000000000     
100   62911028202446700000000000010000000000010000002000000010410406050244561456374773800605000007280555   1030000500030000   333800010001201104000003863AYA Pay                Yangon        MMR11006050244561456370605000000000000000   10300001F05104100000000002100000000000000     
100   95050319528093960000000000004900000000004900002000000010410406051050142014746541960605000007282246   1020000200030000   333400010001204104000000281Myanmar Soft-Gate Tech Yangon        MMR11006051050142014740605000000000000000   10300001F05104100000000001029000000000000     
100   95050312498129060000000000000980000000000980002000000010410406051354082408519166160605000007282887   1020000200030000   333400010001204104000000281Myanmar Soft-Gate Tech Yangon        MMR11006051354082408510605000000000000000   10300001F05104100000000000206000000000000     
100   95030301100121270000000000017850000000017850002000000010410406050559542573704773800605046291254155   1030000900030000   541119001260190110000000958City Mart PLST C 3     YANGONMYOTHIT MMR11006050559542573700605000000000000000   10300001F00104100000000001071000000000000     
100   95050314692738880000000000004900000000004900002000000010410406050732320232171279780605000007281598   1020000200030000   333400010001204104000000281Myanmar Soft-Gate Tech Yangon        MMR11006050732320232170605000000000000000   10300001F05104100000000001029000000000000     
100   95050312498129060000000000005880000000005880002000000010410406051236020602136456870605000007282616   1020000200030000   333400010001204104000000281Myanmar Soft-Gate Tech Yangon        MMR11006051236020602130605000000000000000   10300001F05104100000000001235000000000000     
100   95030367537085740000000000001960000000001960002000000010410406050648531853464773800605000007281425   1020000200030000   333400010001204104000000281Myanmar Soft-Gate Tech Yangon        MMR11006050648531853460605000000000000000   10300001F05104100000000000412000000000000     
100   62911028202212490000000000013629000000013629002000000010410406051541330251454773800605000748035975   1030000200030000   541188001059000008000000314KBZ BANK               MARKETPLACE - MMR11006051541330251450605000000000000000   10300001 00104100000000000818000000000000     
100   95050316442084030000000000002940000000002940002000000010410406041643291329616193500605000007280001   1020000200030000   333400010001204104000000281Myanmar Soft-Gate Tech Yangon        MMR11006041643291329610605000000000000000   10300001F05104100000000000617000000000000     
100   62911028202031710000000000050200000000050200002000000010410406050339092540354773800605809091009155   1030000900030000   541119001189190110000000942City Mart HDC C 4      YANGONUT      MMR11006050339092540350605000000000000000   10300001F00104100000000003012000000000000     
100   95050310427855490000000000001960000000001960002000000010410406050337550755777329690605000007280710   1020000200030000   333400010001204104000000281Myanmar Soft-Gate Tech Yangon        MMR11006050337550755770605000000000000000   10300001F05104100000000000412000000000000     
100   95050319468370810000000000000980000000000980002000000010410406041748591859591150950605000007280123   1020000200030000   333400010001204104000000281Myanmar Soft-Gate Tech Yangon        MMR11006041748591859590605000000000000000   10300001F05104100000000000206000000000000     
100   95050312498129060000000000001960000000001960002000000010410406051050212021768194450605000007282250   1020000200030000   333400010001204104000000281Myanmar Soft-Gate Tech Yangon        MMR11006051050212021760605000000000000000   10300001F05104100000000000412000000000000     
100   95030314001421450000000000216100000000216100002000000010410406050553392572174773800605928231239155   1030000900030000   541119001219190110000000945City Mart TM C 4       YANGONONE     MMR11006050553392572170605000000000000000   10300001F00104100000000012966000000000000     
100   95050321044701600000000000033800000000033800002000000010410406050916360723206783460605463699765150   1040001400030000   555610000609025556100003510119 Store null No-119  Anawrahta Roa MMR11006050916360723200605000000000000000   10300001 00104100000000008450000000000000     
100   62911028202448030000000000088665000000088665002000000010410406031053020034414773800603215417003441   1030000500030000   598320001202000015172200012MAX ENERGY             PTN           MMR11006031053020034410603000000000000000   10300001 00104100000000002660000000000000     
100   62911028202026450000000000003600000000003600002000000010410406051025512644764773800605093551651155   1030000900030000   541119001219190110000000945City Mart TM C 4       YANGONONE     MMR11006051025512644760605000000000000000   10300001F00104100000000000216000000000000     
100   62911028202659640000000000143500000000143500002000000010410406040230250004594773800604215509000459   1030000500030000   581220123001000045812201230YOON KITCHEN           PTN           MMR11006040230250004590604000000000000000   10300001 00104100000000014637000000000000     
100   95050312240830690000000000002940000000002940002000000010410406050724235423544329460605000007281567   1020000200030000   333400010001204104000000281Myanmar Soft-Gate Tech Yangon        MMR11006050724235423540605000000000000000   10300001F05104100000000000617000000000000     
100   62911028202527070000000000083700000000083700002000000010410406051657380133884773800605000748039978   1030000200030000   541188001023000008000000298KBZ BANK               CITY MART - M MMR11006051657380133880605000000000000000   10300001 00104100000000005022000000000000     
100   95050321718824380000000000419500000000419500002000000010410406050524562565238471600605461541156155   1030000900030000   594419000890190110000000699Zwe Htet Gems & Jewell MANDALAYHARSA MMR11006050524562565230605000000000000000   10300001F00104100000000100680000000000000     
100   95030301100081330000000000039550000000039550002000000010410406051423380116264773800605000748031997   1030000200030000   541188001303000008000000325KBZ BANK               CITY MART - A MMR11006051423380116260605000000000000000   10300001 00104100000000002373000000000000     
100   95050314567755980000000000017200000000017200002000000010410406050541461146484840040605000007281183   1030000200030000   333800010001203104000003327KBZPay                 Yangon        MMR11006050541461146480605000000000000000   10300001F05104100000000003612000000000000     
100   95050312498129060000000000000980000000000980002000000010410406051136160616467854060605000007282396   1020000200030000   333400010001204104000000281Myanmar Soft-Gate Tech Yangon        MMR11006051136160616460605000000000000000   10300001F05104100000000000206000000000000     
100   62443100333488440000000000033000000000033000002000000010410406050210302523529833140605840400830155   1030000900030000   554119000348190110000000215New Day Energy MYG     YANGONONE     MMR11006050210302523520605000000000000000   10300001F00104100000000003960000000000000     
100   62911028202446540000000000044250000000044250002000000010410406050159432522064773800605776290843155   1030000900030000   591219000795190110000000627Shwe Ohh Pharmacy ST-3 YANGONINDAING MMR11006050159432522060605000000000000000   10300001F00104100000000002655000000000000     
100   95050315557781210000000000006000000000006000002000000010410406051555472547686031380605000007283268   1030000200030000   333800010001203104000003327KBZPay                 Yangon        MMR11006051555472547680605000000000000000   10300001F05104100000000001260000000000000     
100   95030314001421450000000000035450000000035450002000000010410406050554572572414773800605944241257155   1030000900030000   541119001219190110000000945City Mart TM C 4       YANGONONE     MMR11006050554572572410605000000000000000   10300001F00104100000000002127000000000000     
100   62443100302386910000000000019200000000019200002000000010410406050626082579200052770605410561208155   1030000900030000   541119001201190110000000943City Mart HDC Season C YANGONUT      MMR11006050626082579200605000000000000000   10300001F00104100000000004800000000000000     
100   95050312675525330000000000011000000000011000002000000010410406051538240824660648450605000007283231   1030000200030000   333800010001203104000003327KBZPay                 Yangon        MMR11006051538240824660605000000000000000   10300001F05104100000000002310000000000000     
100   95050313732480420000000000002940000000002940002000000010410406050450542054069868800605000007281011   1020000200030000   333400010001204104000000281Myanmar Soft-Gate Tech Yangon        MMR11006050450542054060605000000000000000   10300001F05104100000000000617000000000000     
100   95050317084233280000000000001960000000001960002000000010410406051233460346171414320605000007282607   1020000200030000   333400010001204104000000281Myanmar Soft-Gate Tech Yangon        MMR11006051233460346170605000000000000000   10300001F05104100000000000412000000000000     
100   95050314567755980000000000001960000000001960002000000010410406050345431543648982180605000007280736   1020000200030000   333400010001204104000000281Myanmar Soft-Gate Tech Yangon        MMR11006050345431543640605000000000000000   10300001F05104100000000000412000000000000     
100   95050321718824380000000000106000000000106000002000000010410406050613422576634754940605237431242155   1030000900030000   594419000890190110000000699Zwe Htet Gems & Jewell MANDALAYHARSA MMR11006050613422576630605000000000000000   10300001F00104100000000025440000000000000     
100   95050322420590810000000000016500000000016500002000000010410406050716002590734414550605199461300155   1030000900030000   541119001363190110000000977Ocean PZD C17          YANGONAUNG    MMR11006050716002590730605000000000000000   10300001F00104100000000004125000000000000     
100   95050321057500320000000000122050000000122050002000000010410406051439300174752847170605000748032814   1030000200030000   541188001020000008000000298KBZ BANK               CITY MART - M MMR11006051439300174750605000000000000000   10300001 00104100000000030513000000000000     
100   95050310332595380000000000002940000000002940002000000010410406041751512151902803440605000007280128   1020000200030000   333400010001204104000000281Myanmar Soft-Gate Tech Yangon        MMR11006041751512151900605000000000000000   10300001F05104100000000000617000000000000     
100   62443100311760720000000000092400000000092400002000000010410406050900082620297464230605318301508155   1030000900030000   541119000285190110000000177Pro1 Global (Insein)   YANGON        MMR11006050900082620290605000000000000000   10300001F00104100000000023100000000000000     
100   62911028202099390000000000028550000000028550002000000010410406050306313280584773800605312370927155   1030000500030000   555610122350104519000018696CityMartSupermarket Sh ePyiTha       MMR11006050306313280580605000000000000000   10300001 00104100000000001713000000000000     
100   95050316896526710000000000061000000000061000002000000010410406051403083308535691000605000007282921   1030000200030000   333800010001203104000003327KBZPay                 Yangon        MMR11006051403083308530605000000000000000   10300001F05104100000000012810000000000000     
100   95050319111666800000000000000980000000000980002000000010410406050703093309997804620605000007281475   1020000200030000   333400010001204104000000281Myanmar Soft-Gate Tech Yangon        MMR11006050703093309990605000000000000000   10300001F05104100000000000206000000000000     
100   62911028202074950000000000015000000000015000002000000010410406050943052632704773800605242131605155   1030000900030000   554119000346190110000000213New Day Energy SOK     YANGONOKKALAP MMR11006050943052632700605000000000000000   10300001F00104100000000000450000000000000     
100   95050317343045830000000000002940000000002940002000000010410406051356482648509081060605000007282896   1020000200030000   333400010001204104000000281Myanmar Soft-Gate Tech Yangon        MMR11006051356482648500605000000000000000   10300001F05104100000000000617000000000000     
100   62443100328070970000000000012100000000012100002000000010410406050655453299568315200605876241343155   1030000300030000   555510124695104519000020166Makro Myanmar                        MMR11006050655453299560605000000000000000   10300001 00104100000000002904000000000000     
100   62911028202248050000000000025000000000025000002000000010410406051112172658184773800605062421717155   1030000900030000   541119001329190110000000971Ocean Junction NPT C 7 NAYPYITAW     MMR11006051112172658180605000000000000000   10300001F00104100000000001500000000000000     
100   62911028202199530000000000019100000000019100002000000010410406051154322668264773800605730241832155   1030000900030000   541119001206190110000000948City Mart YK C 4       YANGONAUNG    MMR11006051154322668260605000000000000000   10300001F00104100000000001146000000000000     
100   62911028202404050000000000022700000000022700002000000010410406051002272637904773800605606321627155   1030000900030000   541119001249190110000000955City Mart JS C 8       YANGONUT      MMR11006051002272637900605000000000000000   10300001F00104100000000001362000000000000     
100   95050311419479170000000000001960000000001960002000000010410406050400003000320634660605000007280809   1020000200030000   333400010001204104000000281Myanmar Soft-Gate Tech Yangon        MMR11006050400003000320605000000000000000   10300001F05104100000000000412000000000000     
100   95050312020318170000000000300000000000300000002000000010410406050259122912956102690605000007280589   1030000200030000   333800010001203104000003327KBZPay                 Yangon        MMR11006050259122912950605000000000000000   10300001F05104100000000063000000000000000     
100   62911028202793040000000000012600000000012600002000000010410406050736192596604773800605603061419155   1030000900030000   569919000967190110000000774Mya Na Di Fancy JC     YANGONN       MMR11006050736192596600605000000000000000   10300001F00104100000000000756000000000000     
100   62911028202761360000000000027600000000027600002000000010410406050441403288404773800605932221119155   1030000500030000   555610103965104519000003818Ocean Oattara Thiri Na PyiTaw        MMR11006050441403288400605000000000000000   10300001 00104100000000001656000000000000     
100   62443100306045460000000000245711000000245711002000000010410406051120072660261754700605208501707155   1030000900030000   541119001265190110000000958City Mart PLST C 8     YANGONMYOTHIT MMR11006051120072660260605000000000000000   10300001F00104100000000061428000000000000     
100   95050319928585020000000000002940000000002940002000000010410406051357552755515776090605000007282902   1020000200030000   333400010001204104000000281Myanmar Soft-Gate Tech Yangon        MMR11006051357552755510605000000000000000   10300001F05104100000000000617000000000000     
100   95050310750557450000000000093400000000093400002000000010410406050556143294316492520605419251247155   1030000300030000   555510124693104519000020166Makro Myanmar                        MMR11006050556143294310605000000000000000   10300001 00104100000000022416000000000000     
100   95050320205194540000000000011650000000011650002000000010410406051203122670121159030605849331812155   1030000900030000   541119001260190110000000958City Mart PLST C 3     YANGONMYOTHIT MMR11006051203122670120605000000000000000   10300001F00104100000000002913000000000000     
100   95050319928585020000000000001000000000001000002000000010410406051358542854147428580605000007282909   1030000200030000   3338000100012031040000040022C2P (Myanmar) Co. Ltd Yangon        MMR11006051358542854140605000000000000000   10300001F05104100000000000210000000000000     
100   62911028202136750000000000049050000000049050002000000010410406050805393306564773800605483431454155   1030000500030000   555610112244104519000010487Ocean Super Center St  ohn           MMR11006050805393306560605000000000000000   10300001 00104100000000002943000000000000     
100   95050314557307430000000000002940000000002940002000000010410406051256342634528024250605000007282688   1020000200030000   333400010001204104000000281Myanmar Soft-Gate Tech Yangon        MMR11006051256342634520605000000000000000   10300001F05104100000000000617000000000000     
100   62911028202110420000000000027900000000027900002000000010410406050630313297314773800605685591224155   1030000500030000   555610115769104519000013506MarketplaceMyanmarPlaz Branch        MMR11006050630313297310605000000000000000   10300001 00104100000000001674000000000000     
100   62911028202133940000000000043363000000043363002000000010410406030548340027664773800603215412002766   1030000500030000   581220063701000015812200637CHINESE 47             PTN           MMR11006030548340027660603000000000000000   10300001 00104100000000004423000000000000     
100   95050312173216740000000000007000000000007000002000000010410406030706310006596923720603215413000659   1030000500030000   541120024603022205411200246ORANGE (THANLYIN)      PTN           MMR11006030706310006590603000000000000000   10300001 00104100000000001750000000000000     
100   62911028202440680000000000047500000000047500002000000010410406020956130001744773800602215316000174   1030000500030000   481220087901003104812200879C4E COMPUTER & MOBILE  PTN           MMR11006020956130001740602000000000000000   10300001 00104100000000002850000000000000     
100   95050312173216740000000000001250000000001250002000000010410406030717310006619803200603215413000661   1030000500030000   541120024603022205411200246ORANGE (THANLYIN)      PTN           MMR11006030717310006610603000000000000000   10300001 00104100000000000313000000000000     
100   62911028202169750000000000003400000000003400002000000010410406031011420000084773800603215416000008   1030000500030000   541120226811000045411202268CITY MART WAIZAYANDA   PTN           MMR11006031011420000080603000000000000000   10300001 00104100000000000204000000000000     
100   95050312173216740000000000030400000000030400002000000010410406030702220009658235810603215413000965   1030000500030000   541120024604022205411200246ORANGE (THANLYIN)      PTN           MMR11006030702220009650603000000000000000   10300001 00104100000000007600000000000000     
100   62911028202169750000000000028000000000028000002000000010410406030802310034494773800603215414003449   1030000500030000   598320001102000015172200011MAX ENERGY             PTN           MMR11006030802310034490603000000000000000   10300001 00104100000000000840000000000000     
100   95030390626214130000000000060000000000060000002000000010410406030146510033944773800603215408003394   1030000500030000   598320001101000015172200011MAX ENERGY             PTN           MMR11006030146510033940603000000000000000   10300001 00104100000000001800000000000000     
100   62911028202026450000000000002800000000002800002000000010410406051035352647534773800605292051735155   1030000900030000   541119001229190110000000946City Mart TM Season C  YANGONONE     MMR11006051035352647530605000000000000000   10300001F00104100000000000168000000000000     
100   95030374458345210000000000030250000000030250002000000010410406051206372670924773800605898361837155   1030000900030000   541119000123190110000000080Sein Gay Har BAK       YANGON        MMR11006051206372670920605000000000000000   10300001F00104100000000001815000000000000     
100   95050319996628650000000000000980000000000980002000000010410406051458022802362300930605000007283087   1020000200030000   333400010001204104000000281Myanmar Soft-Gate Tech Yangon        MMR11006051458022802360605000000000000000   10300001F05104100000000000206000000000000     
100   62911028202260400000000000210000000000210000002000000010410406050747302599824773800605834171430155   1030000900030000   806219000942190110000000750Kan Tharyar Hospital 1 YANGON        MMR11006050747302599820605000000000000000   10300001F00104100000000012600000000000000     
100   95050311959900780000000000000980000000000980002000000010410406050657272727511109590605000007281453   1020000200030000   333400010001204104000000281Myanmar Soft-Gate Tech Yangon        MMR11006050657272727510605000000000000000   10300001F05104100000000000206000000000000     
100   95050316377977350000000000005000000000005000002000000010410406050959422942623648690605000007282093   1040001600030000   333800010001220104000004507A +                    Yangon        MMR11006050959422942620605000000000000000   10300001F05104100000000001050000000000000     
100   62911028202163630000000000031800000000031800002000000010410406050726552593934773800605426561355155   1030000900030000   806219001560190110000000290Grand Hanthar Hospital YANGONUT      MMR11006050726552593930605000000000000000   10300001F00104100000000001908000000000000     
100   62911028202313470000000000030907000000030907002000000010410406050755282601874773800605984251428155   1030000900030000   541119001359190110000000977Ocean PZD C 13         YANGONAUNG    MMR11006050755282601870605000000000000000   10300001F00104100000000001854000000000000     
100   62911028202661370000000000107700000000107700002000000010410406030912120000174773800603215415000017   1030000500030000   531120226704000045311202267OCEAN NORTH POINT      PTN           MMR11006030912120000170603000000000000000   10300001 00104100000000006462000000000000     
100   62911028202419570000000000038000000000038000002000000010410406031203340005684773800603215418000568   1030000500030000   541120065701000015411200657SHOP & SHOP CONVENIENC PTN           MMR11006031203340005680603000000000000000   10300001 00104100000000002280000000000000     
100   62911028202133940000000000073000000000073000002000000010410406030930540026664773800603215416002666   1030000500030000   598320001603000015172200016MAX ENERGY             PTN           MMR11006030930540026660603000000000000000   10300001 00104100000000002190000000000000     
100   62443100313529540000000000007500000000007500002000000010410406031158470000901938680603215418000090   1030000500030000   531120155905000045311201559GAMONE PWINT           PTN           MMR11006031158470000900603000000000000000   10300001 00104100000000001800000000000000     
100   62911028202122630000000000030000000000030000002000000010410406031151310025944773800603215418002594   1030000500030000   598320001604000015172200016MAX ENERGY             PTN           MMR11006031151310025940603000000000000000   10300001 00104100000000000900000000000000     
100   95030353305053700000000000072000000000072000002000000010410406030454540000654773800603215411000065   1030000500030000   481220010001009204812200100MI HOME                PTN           MMR11006030454540000650603000000000000000   10300001 00104100000000004320000000000000     
100   62911028202331290000000000061750000000061750002000000010410406030702370002664773800603215413000266   1030000500030000   591220014201014405912200142SHWE OHH PHARMACY      PTN           MMR11006030702370002660603000000000000000   10300001 00104100000000003705000000000000     
100   62911028202169750000000000003200000000003200002000000010410406031014190000074773800603215416000007   1030000500030000   541120226814000045411202268CITY MART WAIZAYANDA   PTN           MMR11006031014190000070603000000000000000   10300001 00104100000000000192000000000000     
100   95050328074436620000000000004900000000004900002000000010410406051357312731090733550605000007282906   1020000200030000   333400010001204104000000281Myanmar Soft-Gate Tech Yangon        MMR11006051357312731090605000000000000000   10300001F05104100000000001029000000000000     
100   95050319161596230000000000001960000000001960002000000010410406051318314831942471130605000007282751   1020000200030000   333400010001204104000000281Myanmar Soft-Gate Tech Yangon        MMR11006051318314831940605000000000000000   10300001F05104100000000000412000000000000     
100   62911028202204490000000000024900000000024900002000000010410406040231120001994773800604215509000199   1030000500030000   581220195901000085812201959AKKHAYA TEA HOUSE      PTN           MMR11006040231120001990604000000000000000   10300001 00104100000000002540000000000000     
100   95030301100022270000000000012300000000012300002000000010410406050421254169364773800605215611416936   1040001600030000   541120000569000000010000465Ocean Shwe Gone Daing  Yangon        MMR11006050421254169360605000000000000000   10300001F00104100000000000738000000000000     
100   95050312498129060000000000001960000000001960002000000010410406050719244924399372010605000007281548   1020000200030000   333400010001204104000000281Myanmar Soft-Gate Tech Yangon        MMR11006050719244924390605000000000000000   10300001F05104100000000000412000000000000     
100   95050326750398570000000000012850000000012850002000000010410406040756500000740725470604215514000074   1030000500030000   531120226719000045311202267OCEAN NORTH POINT      PTN           MMR11006040756500000740604000000000000000   10300001 00104100000000003084000000000000     
100   62443100328475310000000000044600000000044600002000000010410406040411090001160676030604215510000116   1030000500030000   531120226303000045311202263OCEAN SUPER CENTER STJ PTN           MMR11006040411090001160604000000000000000   10300001 00104100000000010704000000000000     
100   95030301100086460000000000060000000000060000002000000010410406040209290040104773800604215508004010   1030000500030000   598320001304000015172200013MAX ENERGY             PTN           MMR11006040209290040100604000000000000000   10300001 00104100000000001800000000000000     
100   62911028202717310000000000080000000000080000002000000010410406031023540027614773800603215416002761   1030000500030000   598320002104000015172200021MAX ENERGY             PTN           MMR11006031023540027610603000000000000000   10300001 00104100000000002400000000000000     
100   62911028202315370000000000430000000000430000002000000010410406031021280001104773800603215416000110   1030000500030000   573220034701005905732200347EXCELLENCE ELECTRONIC  PTN           MMR11006031021280001100603000000000000000   10300001 00104100000000025800000000000000     
100   95050324154190880000000000025300000000025300002000000010410406030337110002824546730603215410000282   1030000500030000   591220012901014405912200129SHWE OHH PHARMACY      PTN           MMR11006030337110002820603000000000000000   10300001 00104100000000006072000000000000     
100   62911028202446540000000000017250000000017250002000000010410406041229000011794773800604215518001179   1030000500030000   581220021001000015812200210SHWE LAR HOT POT       PTN           MMR11006041229000011790604000000000000000   10300001 00104100000000001760000000000000     
100   95030308100042590000000000043184000000043184002000000010410406040752520016754773800604215514001675   1030000500030000   598320001702000015172200017MAX ENERGY             PTN           MMR11006040752520016750604000000000000000   10300001 00104100000000001296000000000000     
100   62911028202084020000000000074350000000074350002000000010410406040638290002574773800604215513000257   1030000500030000   581220044201022605812200442HOT POT CITY (AHLONE)  PTN           MMR11006040638290002570604000000000000000   10300001 00104100000000007584000000000000     
100   62911028202261230000000000119450000000119450002000000010410406040522500000624773800604215511000062   1030000500030000   541120226811000045411202268CITY MART WAIZAYANDA   PTN           MMR11006040522500000620604000000000000000   10300001 00104100000000007167000000000000     
100   62911028202264530000000000120000000000120000002000000010410406040240510003724773800604215509000372   1030000500030000   809920152601003108099201526LUDU                   PTN           MMR11006040240510003720604000000000000000   10300001 00104100000000007200000000000000     
100   95050325925517520000000000030005000000030005002000000010410406050638154252685010230605215613425268   1040001600030000   598320000310000000010000298PT Power Petrol Statio Yangon        MMR11006050638154252680605000000000000000   10300001F00104100000000003601000000000000     
100   95050315005801680000000000002940000000002940002000000010410406050315414541982202050605000007280650   1020000200030000   333400010001204104000000281Myanmar Soft-Gate Tech Yangon        MMR11006050315414541980605000000000000000   10300001F05104100000000000617000000000000     
100   62911028202446700000000000010000000000010000002000000010410406051121295129744773800605000007282346   1030000500030000   333800010001201104000003863AYA Pay                Yangon        MMR11006051121295129740605000000000000000   10300001F05104100000000002100000000000000     
100   95030393581449300000000000001000000000001000002000000010410406050903573357374773800605000007281940   1030000200030000   333800010001203104000003327KBZPay                 Yangon        MMR11006050903573357370605000000000000000   10300001F05104100000000000210000000000000     
100   95050317084233280000000000000980000000000980002000000010410406051205323532404464000605000007282509   1020000200030000   333400010001204104000000281Myanmar Soft-Gate Tech Yangon        MMR11006051205323532400605000000000000000   10300001F05104100000000000206000000000000     
100   95030301100290140000000000305000000000305000002000000010410406051035270034094773800605215617003409   1020000200030000   541100255002300115411000025MWD BANK               YGN           MMR11006051035270034090605000000000000000   10300001 00104100000000018300000000000000     
100   95050316377977350000000000010000000000010000002000000010410406051355412541680818650605000007282892   1040001600030000   333800010001220104000004507A +                    Yangon        MMR11006051355412541680605000000000000000   10300001F05104100000000002100000000000000     
100   95050325997730520000000000040000000000040000002000000010410406051145264461914549090605215618446191   1040001600030000   598320000321000000010000309PT Power Petrol Statio Yangon        MMR11006051145264461910605000000000000000   10300001F00104100000000004800000000000000     
100   62911028202446540000000000012600000000012600002000000010410406041229350011804773800604215518001180   1030000500030000   581220021001000015812200210SHWE LAR HOT POT       PTN           MMR11006041229350011800604000000000000000   10300001 00104100000000001285000000000000     
100   62911028202491330000000000033650000000033650002000000010410406040639500001264773800604215513000126   1030000500030000   531120226303000045311202263OCEAN SUPER CENTER STJ PTN           MMR11006040639500001260604000000000000000   10300001 00104100000000002019000000000000     
100   62443100359018060000000000214000000000214000002000000010410406041012410001727469950604215516000172   1030000500030000   531120226301000045311202263OCEAN SUPER CENTER STJ PTN           MMR11006041012410001720604000000000000000   10300001 00104100000000051360000000000000     
100   95050322104201170000000000008330000000008330002000000010410406040453550003676945580604215511000367   1030000500030000   531120155715000045311201557GAMONE PWINT           PTN           MMR11006040453550003670604000000000000000   10300001 00104100000000001999000000000000     
100   62443100328475310000000000022800000000022800002000000010410406040431290005206605190604215511000520   1030000500030000   531120201602000085311202016STJ BLAZON             PTN           MMR11006040431290005200604000000000000000   10300001 00104100000000005472000000000000     
100   62443100328475310000000000075130000000075130002000000010410406040749140013497420510604215514001349   1030000500030000   531120155714000045311201557GAMONE PWINT           PTN           MMR11006040749140013490604000000000000000   10300001 00104100000000018031000000000000     
100   62443100355903280000000000012400000000012400002000000010410406040555550019802279070604215512001980   1030000500030000   531120155802000045311201558GAMONE PWINT           PTN           MMR11006040555550019800604000000000000000   10300001 00104100000000002976000000000000     
100   95050318919136220000000000060450000000060450002000000010410406040551380001069144300604215512000106   1030000500030000   503920036905017205039200369PRO-1 HOME CENTER      PTN           MMR11006040551380001060604000000000000000   10300001 00104100000000014508000000000000     
100   95050319156011610000000000004900000000004900002000000010410406051020035003103407190605000007282160   1020000200030000   333400010001204104000000281Myanmar Soft-Gate Tech Yangon        MMR11006051020035003100605000000000000000   10300001F05104100000000001029000000000000     
100   62911028202789750000000000016250000000016250002000000010410406050322104138564773800605215610413856   1040001600030000   591220000271000000010000259Shwe Ohh Pharmacy (Gwa Yangon        MMR11006050322104138560605000000000000000   10300001F00104100000000000975000000000000     
100   95050315158357300000000000000980000000000980002000000010410406050412284228656648920605000007280868   1020000200030000   333400010001204104000000281Myanmar Soft-Gate Tech Yangon        MMR11006050412284228650605000000000000000   10300001F05104100000000000206000000000000     
100   95050311419479170000000000001960000000001960002000000010410406050913124312620088430605000007281963   1020000200030000   333400010001204104000000281Myanmar Soft-Gate Tech Yangon        MMR11006050913124312620605000000000000000   10300001F05104100000000000412000000000000     
100   62443100389971990000000000100000000000100000002000000010410406050315274527647159500605000007280648   1030000200030000   333800010001203104000003327KBZPay                 Yangon        MMR11006050315274527640605000000000000000   10300001F05104100000000021000000000000000     
100   95050316949180000000000000007840000000007840002000000010410406051518504850243953420605000007283164   1020000200030000   333400010001204104000000281Myanmar Soft-Gate Tech Yangon        MMR11006051518504850240605000000000000000   10300001F05104100000000001646000000000000     
100   62443100302386910000000000009300000000009300002000000010410406050635122581056662710605519051312155   1030000900030000   541119001201190110000000943City Mart HDC Season C YANGONUT      MMR11006050635122581050605000000000000000   10300001F00104100000000002325000000000000     
100   95050315158357300000000000000980000000000980002000000010410406050252102210981060140605000007280578   1020000200030000   333400010001204104000000281Myanmar Soft-Gate Tech Yangon        MMR11006050252102210980605000000000000000   10300001F05104100000000000206000000000000     
100   62911028202156540000000000300000000000300000002000000010410406041138170009374773800604215518000937   1030000500030000   806220046401006308062200464ASIA ROYAL HOSPITAL    PTN           MMR11006041138170009370604000000000000000   10300001 00104100000000018000000000000000     
100   62443100333488440000000000059000000000059000002000000010410406040510100000710165450604000348517953   1030000300030000   573200001740000000000001243CB BANK                WIN MOBILE WO MMR11006040510100000710604000000000000000   10300001F00104100000000014160000000000000     
100   62443100328070970000000000056750000000056750002000000010410406041237370001513314020604215519000151   1030000500030000   531120226303000045311202263OCEAN SUPER CENTER STJ PTN           MMR11006041237370001510604000000000000000   10300001 00104100000000013620000000000000     
100   62911028202532910000000000086900000000086900002000000010410406041150580004084773800604215518000408   1030000500030000   541120129715000045411201297MAKRO MYANMAR          PTN           MMR11006041150580004080604000000000000000   10300001 00104100000000005214000000000000     
100   62911028202593140000000000070000000000070000002000000010410406040510010016504773800604215511001650   1030000500030000   598320001702000015172200017MAX ENERGY             PTN           MMR11006040510010016500604000000000000000   10300001 00104100000000002100000000000000     
100   62911028202708080000000000050000000000050000002000000010410406040211140004194773800604215508000419   1030000500030000   598320005701000015172200057MAX ENERGY             PTN           MMR11006040211140004190604000000000000000   10300001 00104100000000001500000000000000     
100   62443100333488440000000000035100000000035100002000000010410406040609170006362704550604215512000636   1030000500030000   569120074901009305691200749MK FASHION SHOP        PTN           MMR11006040609170006360604000000000000000   10300001 00104100000000008424000000000000     
100   62443100333488440000000000050800000000050800002000000010410406040553430002460711680604215512000246   1030000500030000   581220216101000085812202161ASTONS                 PTN           MMR11006040553430002460604000000000000000   10300001 00104100000000021590000000000000     
100   62443100313002190000000000015750000000015750002000000010410406051129403325357939160605281591745155   1030000500030000   555610122356104519000018696CityMartSupermarket Sh ePyiTha       MMR11006051129403325350605000000000000000   10300001 00104100000000003938000000000000     
100   95050310427855490000000000002940000000002940002000000010410406051521005100528995970605000007283168   1020000200030000   333400010001204104000000281Myanmar Soft-Gate Tech Yangon        MMR11006051521005100520605000000000000000   10300001F05104100000000000617000000000000     
100   62911028202907490000000000008700000000008700002000000010410406050441514180774773800605215611418077   1040001600030000   591220000299000000010000287Shwe Ohh Pharmacy (Yan Yangon        MMR11006050441514180770605000000000000000   10300001F00104100000000000522000000000000     
100   62911028202471600000000000035400000000035400002000000010410406050728214281674773800605215614428167   1040001600030000   591220000282000000010000270Shwe Ohh Pharmacy (Shw Yangon        MMR11006050728214281670605000000000000000   10300001F00104100000000002124000000000000     
100   95050310281229490000000000100000000000100000002000000010410406050924105410456698360605000007282001   1030000200030000   333800010001203104000003327KBZPay                 Yangon        MMR11006050924105410450605000000000000000   10300001F05104100000000021000000000000000     
100   62443101063232860000000000049004000000049004002000000010410406050747594292427889720605215614429242   1040001600030000   598320000310000000010000298PT Power Petrol Statio Yangon        MMR11006050747594292420605000000000000000   10300001F00104100000000005880000000000000     
100   62911028202693960000000000107750000000107750002000000010410406051206404480324773800605215619448032   1040001600030000   591220000277000000010000265Shwe Ohh Pharmacy (Thu Yangon        MMR11006051206404480320605000000000000000   10300001F00104100000000006465000000000000     
100   95050310427855490000000000003920000000003920002000000010410406050622415241328485390605000007281331   1020000200030000   333400010001204104000000281Myanmar Soft-Gate Tech Yangon        MMR11006050622415241320605000000000000000   10300001F05104100000000000823000000000000     
100   95050316442084030000000000002940000000002940002000000010410406041645491549561236050605000007280005   1020000200030000   333400010001204104000000281Myanmar Soft-Gate Tech Yangon        MMR11006041645491549560605000000000000000   10300001F05104100000000000617000000000000     
100   95050325784857510000000000008500000000008500002000000010410406050325272537379067270605619550927155   1030000900030000   541119001208190110000000948City Mart YK C 6       YANGONAUNG    MMR11006050325272537370605000000000000000   10300001F00104100000000002125000000000000     
100   62911028202793040000000000009300000000009300002000000010410406051358570251254773800605000748030684   1030000200030000   541188001059000008000000314KBZ BANK               MARKETPLACE - MMR11006051358570251250605000000000000000   10300001 00104100000000000558000000000000     
100   95050316231020800000000000001450000000001450002000000010410406041223210000114711210604215518000011   1030000500030000   541120227901000045411202279CITY EXPRESS (MCS - 14 PTN           MMR11006041223210000110604000000000000000   10300001 00104100000000000363000000000000     
100   62911028202110420000000000019000000000019000002000000010410406050619184240944773800605215613424094   1040001600030000   569120000923000000010000670Generation Concept Sto Ygn           MMR11006050619184240940605000000000000000   10300001F00104100000000001140000000000000     
100   95050315158357300000000000008000000000008000002000000010410406050414234423303343960605000007280874   1030000200030000   333800010001203104000003327KBZPay                 Yangon        MMR11006050414234423300605000000000000000   10300001F05104100000000001680000000000000     
100   95050312695033440000000000000980000000000980002000000010410406051305563556302981700605000007282722   1020000200030000   333400010001204104000000281Myanmar Soft-Gate Tech Yangon        MMR11006051305563556300605000000000000000   10300001F05104100000000000206000000000000     
100   62911028202132460000000000024500000000024500002000000010410406050736483303294773800605198061421155   1030000300030000   444410125393104519000021220Myanmar Bakery CoLtd                 MMR11006050736483303290605000000000000000   10300001 00104100000000002499000000000000     
100   95050312224678430000000000000980000000000980002000000010410406051009173917236953650605000007282131   1020000200030000   333400010001204104000000281Myanmar Soft-Gate Tech Yangon        MMR11006051009173917230605000000000000000   10300001F05104100000000000206000000000000     
100   95050314979630620000000000000980000000000980002000000010410406050247111711541145240605000007280560   1020000200030000   333400010001204104000000281Myanmar Soft-Gate Tech Yangon        MMR11006050247111711540605000000000000000   10300001F05104100000000000206000000000000     
100   62911028202794110000000000027500000000027500002000000010410406050909572623064773800605522391557155   1030000900030000   597719001573190110000001144Mi Mi Dara Comestic    YANGONOKKALAP MMR11006050909572623060605000000000000000   10300001F00104100000000001650000000000000     
100   95050315345734110000000000050000000000050000002000000010410406050615157803819712390605451572532394   1040001400030000   569910000191025699100001425Flannel Box Flannel Bo No.290 Pyay R MMR11006050615157803810605000000000000000   10300001 00104100000000012000000000000000     
100   62443100306045460000000000070150000000070150002000000010410406050846093309747549330605779141558155   1030000300030000   555510124697104519000020166Makro Myanmar                        MMR11006050846093309740605000000000000000   10300001 00104100000000016836000000000000     
100   62911028202286400000000000020000000000020000002000000010410406041111300038124773800604215517003812   1030000500030000   598320001203000015172200012MAX ENERGY             PTN           MMR11006041111300038120604000000000000000   10300001 00104100000000000600000000000000     
100   95050329252108030000000000018000000000018000002000000010410406031322080023514818170603215419002351   1030000500030000   598320041901000055983200419MAX ENERGY             PTN           MMR11006031322080023510603000000000000000   10300001 00104100000000002160000000000000     
100   95050325630928770000000000000980000000000980002000000010410406050410184018464996430605000007280862   1020000200030000   333400010001204104000000281Myanmar Soft-Gate Tech Yangon        MMR11006050410184018460605000000000000000   10300001F05104100000000000206000000000000     
