100   95050323667276610000000000005880000000005880002000000010410406060539070907232952170606000007285577   1020000200030000   333400010001204104000000281Myanmar Soft-Gate Tech Yangon        MMR11006060539070907230606000000000000000   10300001F05104100000000001235000000000000     
100   62911028202099390000000000006900000000006900002000000010410406061129440116464773800606000748074017   1030000200030000   541188001189000008000000383KBZ BANK               OCEAN SUPER C MMR11006061129440116460606000000000000000   10300001 00104100000000000414000000000000     
100   95050322295410690000000000020703000000020703002000000010410406061446320347166819150606000748089947   1030000200030000   541188001041000008000000010KBZ BANK               MARKETPLACE - MMR11006061446320347160606000000000000000   10300001 00104100000000005176000000000000     
100   95050311780044340000000000004900000000004900002000000010410406060437470747827193190606000007285087   1020000200030000   333400010001204104000000281Myanmar Soft-Gate Tech Yangon        MMR11006060437470747820606000000000000000   10300001F05104100000000001029000000000000     
100   95050319928585020000000000002940000000002940002000000010410406060244231423519364330606000007284019   1020000200030000   333400010001204104000000281Myanmar Soft-Gate Tech Yangon        MMR11006060244231423510606000000000000000   10300001F05104100000000000617000000000000     
100   95050323722449090000000000004900000000004900002000000010410406060348001800592825710606000007284613   1020000200030000   333400010001204104000000281Myanmar Soft-Gate Tech Yangon        MMR11006060348001800590606000000000000000   10300001F05104100000000001029000000000000     
100   95050315158357300000000000005000000000005000002000000010410406060355092509368974510606000007284690   1030000200030000   333800010001203104000003327KBZPay                 Yangon        MMR11006060355092509360606000000000000000   10300001F05104100000000001050000000000000     
100   62443100395535610000000000100000000000100000002000000010410406060640161016273825000606000007286049   1030000200030000   333800010001203104000003327KBZPay                 Yangon        MMR11006060640161016270606000000000000000   10300001F05104100000000021000000000000000     
100   95050313123223200000000000000980000000000980002000000010410406060253372337216995420606000007284079   1020000200030000   333400010001204104000000281Myanmar Soft-Gate Tech Yangon        MMR11006060253372337210606000000000000000   10300001F05104100000000000206000000000000     
100   95050314302558730000000000005880000000005880002000000010410406060231030103241101910606000007283957   1020000200030000   333400010001204104000000281Myanmar Soft-Gate Tech Yangon        MMR11006060231030103240606000000000000000   10300001F05104100000000001235000000000000     
100   62911028202099390000000000005400000000005400002000000010410406061140380116484773800606000748074892   1030000200030000   541188001189000008000000383KBZ BANK               OCEAN SUPER C MMR11006061140380116480606000000000000000   10300001 00104100000000000324000000000000     
100   95050317338786370000000000003000000000003000002000000010410406061334070407653560290606000007288557   1030000200030000   3334000100012031040000040102C2P (Myanmar) Co. Ltd Yangon        MMR11006061334070407650606000000000000000   10300001F05104100000000000630000000000000     
100   95050317084233280000000000009800000000009800002000000010410406060535000500847228850606000007285537   1020000200030000   333400010001204104000000281Myanmar Soft-Gate Tech Yangon        MMR11006060535000500840606000000000000000   10300001F05104100000000002058000000000000     
100   95030367537085740000000000000980000000000980002000000010410406060335250525904773800606000007284475   1020000200030000   333400010001204104000000281Myanmar Soft-Gate Tech Yangon        MMR11006060335250525900606000000000000000   10300001F05104100000000000206000000000000     
100   95050314307746340000000000000980000000000980002000000010410406060438260826605540710606000007285094   1020000200030000   333400010001204104000000281Myanmar Soft-Gate Tech Yangon        MMR11006060438260826600606000000000000000   10300001F05104100000000000206000000000000     
100   95050317376014640000000000001960000000001960002000000010410406060559542954224931250606000007285724   1020000200030000   333400010001204104000000281Myanmar Soft-Gate Tech Yangon        MMR11006060559542954220606000000000000000   10300001F05104100000000000412000000000000     
100   95050319701366650000000000006200000000006200002000000010410406061030242882440122120606704001724156   1030000900030000   541119001113190110000000872Sein Gay Har Hledan    YANGONUT      MMR11006061030242882440606000000000000000   10300001F00104100000000001550000000000000     
100   62443100379321630000000000039700000000039700002000000010410406061109193395420462510606288391712156   1030000500030000   555610112532104519000010487Ocean Super Center St  ohn           MMR11006061109193395420606000000000000000   10300001 00104100000000009925000000000000     
100   95050323233042810000000000000980000000000980002000000010410406061358202820777460910606000007288637   1020000200030000   333400010001204104000000281Myanmar Soft-Gate Tech Yangon        MMR11006061358202820770606000000000000000   10300001F05104100000000000206000000000000     
100   95030323161862590000000004000000000004000000002000000010410406060712552828994773800606521421355156   1030000900030000   701119000073190110000000024Lotte Hotel            YANGON        MMR11006060712552828990606000000000000000   10300001F00104100000000408000000000000000     
100   95050318267399100000000000000980000000000980002000000010410406061000313031787884050606000007287618   1020000200030000   333400010001204104000000281Myanmar Soft-Gate Tech Yangon        MMR11006061000313031780606000000000000000   10300001F05104100000000000206000000000000     
100   95050310281229490000000000050000000000050000002000000010410406061200323032342540470606000007288186   1030000200030000   333800010001203104000003327KBZPay                 Yangon        MMR11006061200323032340606000000000000000   10300001F05104100000000010500000000000000     
100   95030301100125070000000000017100000000017100002000000010410406060959353390724773800606926291622156   1030000500030000   555610112237104519000010487Ocean Super Center St  ohn           MMR11006060959353390720606000000000000000   10300001 00104100000000001026000000000000     
100   62443100313002190000000000035000000000035000002000000010410406060504273427734640310606000007285294   1030000900030000   333400010001202104000002022ACS                    Yangon        MMR11006060504273427730606000000000000000   10300001F05104100000000007350000000000000     
100   62911028202446540000000001500000000001500000002000000010410405300357010000063511700530000747705651   1030000200030000   729788001574000008000000054KBZ BANK               OGAWA (JUNCTI MMR11005300357010000060530000000000000000   10300001 00104100000000090000000000000000     
100   95050313123223200000000000004650000000004650002000000010410406051255240006466371770605000348751714   1030000300030000   541100000076000000000000016CB BANK                CAPITAL EXPRE MMR11006051255240006460605000000000000000   10300001F00104100000000001163000000000000     
100   62911028202728380000000000013300000000013300002000000010410406051002420003004773800605215616000300   1030000500030000   591220013901014405912200139SHWE OHH PHARMACY      PTN           MMR11006051002420003000605000000000000000   10300001 00104100000000000798000000000000     
100   95050322158563070000000000017750000000017750002000000010410406051208520012351073940605215618001235   1030000500030000   581220021001000015812200210SHWE LAR HOT POT       PTN           MMR11006051208520012350605000000000000000   10300001 00104100000000007544000000000000     
100   95050320531117320000000000058069000000058069002000000010410406050910010015591826010605215615001559   1030000500030000   598320001801000015172200018MAX ENERGY             PTN           MMR11006050910010015590605000000000000000   10300001 00104100000000006968000000000000     
100   62911028202248050000000000031000000000031000002000000010410406021018440360154773800602215310036015   1030000600030000   554100001155315799420000607DENKO NPT 1            NAYPYITAW.    MMR11006021018440360150602000000000000000   10300001 00104100000000000930000000000000     
100   62443100306028540000000000040000000000040000002000000010410406030710140021738576200603215407002173   1030000600030000   554100002404315799420000480DENKO N.DAGON - 3      YANGON        MMR11006030710140021730603000000000000000   10300001 00104100000000004800000000000000     
100   62911028202421380000000000032744000000032744002000000010410406030605310029644773800603215406002964   1030000600030000   581200002268315799420001575SIGNATURE FINEDINING 4 YANGON        MMR11006030605310029640603000000000000000   10300001 00104100000000003340000000000000     
100   62911028202617320000000002000000000002000000002000000010410406060948572870454773800606964181657156   1030000900030000   594419001427190110000001031Sandar Yadanar         YANGONUT      MMR11006060948572870450606000000000000000   10300001F00104100000000120000000000000000     
100   62443100313529540000000000002400000000002400002000000010410406061100233394825760350606250291750156   1030000500030000   555610112991104519000011143Market Place by City M rt Sule       MMR11006061100233394820606000000000000000   10300001 00104100000000000600000000000000     
100   95050312358501180000000000125921000000125921002000000010410406060535472802576257140606963051247156   1030000900030000   541119001242190110000000955City Mart JS C 1       YANGONUT      MMR11006060535472802570606000000000000000   10300001F00104100000000031481000000000000     
100   95050313817486860000000000001960000000001960002000000010410406060303333333315683330606000007284143   1020000200030000   333400010001204104000000281Myanmar Soft-Gate Tech Yangon        MMR11006060303333333310606000000000000000   10300001F05104100000000000412000000000000     
100   95050314557307430000000000009800000000009800002000000010410406060401163116479045820606000007284728   1020000200030000   333400010001204104000000281Myanmar Soft-Gate Tech Yangon        MMR11006060401163116470606000000000000000   10300001F05104100000000002058000000000000     
100   62911028202807400000000000124000000000124000002000000010410406060934173388764773800606772031625156   1030000300030000   555510124686104519000020166Makro Myanmar                        MMR11006060934173388760606000000000000000   10300001 00104100000000007440000000000000     
100   62911028202280200000000000021700000000021700002000000010410406061057332890064773800606189271733156   1030000900030000   541119001250190110000000955City Mart JS C 9       YANGONUT      MMR11006061057332890060606000000000000000   10300001F00104100000000001302000000000000     
100   95030393581449300000000000010000000000010000002000000010410406061011194119614773800606000007287695   1030000200030000   333800010001203104000003327KBZPay                 Yangon        MMR11006061011194119610606000000000000000   10300001F05104100000000002100000000000000     
100   62911028202366010000000000046000000000046000002000000010410406030408230135954773800603215404013595   1030000600030000   554100002328315799420001235DENKO NAY PYI TAW 2    NAYPYITAW     MMR11006030408230135950603000000000000000   10300001 00104100000000001380000000000000     
100   95050315745833530000000000007000000000007000002000000010410406030551160073820782360603215405007382   1030000600030000   554100001252315799420000706DENKO MONEYWAR - 2     MONEYWAR      MMR11006030551160073820603000000000000000   10300001 00104100000000000840000000000000     
100   62911028202725640000000000111000000000111000002000000010410406030624310758834773800603215406075883   1030000600030000   554100000957315799420000480DENKO N.DAGON - 3      YANGON        MMR11006030624310758830603000000000000000   10300001 00104100000000003330000000000000     
100   62911028202312890000000000059000000000059000002000000010410406030645250239244773800603215406023924   1030000600030000   554100002085315799420000471DENKO BAHAN            YANGON        MMR11006030645250239240603000000000000000   10300001 00104100000000001770000000000000     
100   62911028202366010000000000060000000000060000002000000010410406030408460135964773800603215404013596   1030000600030000   554100002328315799420001235DENKO NAY PYI TAW 2    NAYPYITAW     MMR11006030408460135960603000000000000000   10300001 00104100000000001800000000000000     
100   62911028202162640000000000020000000000020000002000000010410406030235390292014773800603215402029201   1030000600030000   554100001116315799420000574DENKO HLAE KUU         HLAE KUU      MMR11006030235390292010603000000000000000   10300001 00104100000000000600000000000000     
100   95050326228858240000000000095000000000095000002000000010410406030847060136214823880603215408013621   1030000600030000   554100002328315799420001235DENKO NAY PYI TAW 2    NAYPYITAW     MMR11006030847060136210603000000000000000   10300001 00104100000000011400000000000000     
100   62443100302386910000000000022000000000022000002000000010410406051113580001783492290605215617000178   1030000500030000   569120009201016505691200092SOON FASHION SHOP      PTN           MMR11006051113580001780605000000000000000   10300001 00104100000000005280000000000000     
100   95050315424817550000000000000980000000000980002000000010410406061216554655144278060606000007288248   1020000200030000   333400010001204104000000281Myanmar Soft-Gate Tech Yangon        MMR11006061216554655140606000000000000000   10300001F05104100000000000206000000000000     
100   95050318214455130000000000002940000000002940002000000010410406061003153315891430490606000007287640   1020000200030000   333400010001204104000000281Myanmar Soft-Gate Tech Yangon        MMR11006061003153315890606000000000000000   10300001F05104100000000000617000000000000     
100   62911028202207380000000000003000000000003000002000000010410406060325583363884773800606872540951156   1030000500030000   555610110570104519000009164City Mart China Town P int Cen       MMR11006060325583363880606000000000000000   10300001 00104100000000000180000000000000     
100   95050319524870520000000000300000000000300000002000000010410406060522592799780789110606814521159156   1030000900030000   481219001601190110000001165Snoopy Mobile SPT      YANGONITHAR   MMR11006060522592799780606000000000000000   10300001F00104100000000072000000000000000     
100   62911028202595200000000000111100000000111100002000000010410406060350403365254773800606958201007156   1030000300030000   555510124696104519000020166Makro Myanmar                        MMR11006060350403365250606000000000000000   10300001 00104100000000006666000000000000     
100   62911028202243590000000000004800000000004800002000000010410406060625432816684773800606798551243156   1030000900030000   541119001273190110000000960City Mart PLST Season  YANGONMYOTHIT MMR11006060625432816680606000000000000000   10300001F00104100000000000288000000000000     
100   62911028202474000000000000076000000000076000002000000010410406061124252897494773800606619541725156   1030000900030000   569119001495190110000001089Next Generation GCS MP YANGON        MMR11006061124252897490606000000000000000   10300001F00104100000000004560000000000000     
100   95050310427855490000000000000980000000000980002000000010410406060304083408010725880606000007284157   1020000200030000   333400010001204104000000281Myanmar Soft-Gate Tech Yangon        MMR11006060304083408010606000000000000000   10300001F05104100000000000206000000000000     
100   62443100383487320000000000114234000000114234002000000010410406050643250002171705260605215613000217   1030000500030000   531120226301000045311202263OCEAN SUPER CENTER STJ PTN           MMR11006050643250002170605000000000000000   10300001 00104100000000027416000000000000     
100   62911028202222620000000000029800000000029800002000000010410406050446160000504773800605215611000050   1030000500030000   541120227605000045411202276CITY MART ( 47 BRANCH  PTN           MMR11006050446160000500605000000000000000   10300001 00104100000000001788000000000000     
100   95030307100064460000000000090000000000090000002000000010410406050102140003204773800605215607000320   1030000500030000   598320002003000015172200020MAX ENERGY             PTN           MMR11006050102140003200605000000000000000   10300001 00104100000000002700000000000000     
100   62443100300743690000000000011600000000011600002000000010410406050829210001797294040605000348716003   1030000300030000   581200001506000000000001052CB BANK                YKKO (SGD)    MMR11006050829210001790605000000000000000   10300001F00104100000000004930000000000000     
100   95050327192897240000000000031177000000031177002000000010410406050939480002867123840605215616000286   1030000500030000   531120226305000045311202263OCEAN SUPER CENTER STJ PTN           MMR11006050939480002860605000000000000000   10300001 00104100000000007482000000000000     
100   62443100355445150000000000010378000000010378002000000010410406050957540000385301170605215616000038   1030000500030000   541120227603000045411202276CITY MART ( 47 BRANCH  PTN           MMR11006050957540000380605000000000000000   10300001 00104100000000002595000000000000     
100   95050313977497770000000000004700000000004700002000000010410406050317060000590379370605215609000059   1030000500030000   541120203807000015411202038CITY MART SUPERMARKET  PTN           MMR11006050317060000590605000000000000000   10300001 00104100000000001175000000000000     
100   62911028202237810000000000023725000000023725002000000010410406050506150001824773800605215611000182   1030000500030000   531120226308000045311202263OCEAN SUPER CENTER STJ PTN           MMR11006050506150001820605000000000000000   10300001 00104100000000001424000000000000     
100   95050311382087030000000000001960000000001960002000000010410406061010244024005249770606000007287692   1020000200030000   333400010001204104000000281Myanmar Soft-Gate Tech Yangon        MMR11006061010244024000606000000000000000   10300001F05104100000000000412000000000000     
100   62911028202786780000000000058900000000058900002000000010410406061053513394494773800606224241730156   1030000500030000   555610112988104519000011143Market Place by City M rt Sule       MMR11006061053513394490606000000000000000   10300001 00104100000000003534000000000000     
100   62443100350052510000000000003300000000003300002000000010410406060904203420210864770606000007287209   1030000200030000   333300010001203104000003632Myanmar Tradenet Test  Yangon        MMR11006060904203420210606000000000000000   10300001F05104100000000010000000000000000     
100   95050310213446310000000000004900000000004900002000000010410406060305413541959073390606000007284174   1020000200030000   333400010001204104000000281Myanmar Soft-Gate Tech Yangon        MMR11006060305413541950606000000000000000   10300001F05104100000000001029000000000000     
100   95050311959900780000000000000980000000000980002000000010410406061505173517774836710606000007288879   1020000200030000   333400010001204104000000281Myanmar Soft-Gate Tech Yangon        MMR11006061505173517770606000000000000000   10300001F05104100000000000206000000000000     
100   95050312224678430000000000002940000000002940002000000010410406061412454245403985750606000007288692   1020000200030000   333400010001204104000000281Myanmar Soft-Gate Tech Yangon        MMR11006061412454245400606000000000000000   10300001F05104100000000000617000000000000     
100   62911028202000450000000000004900000000004900002000000010410406060315274527294773800606000007284277   1020000200030000   333400010001204104000000281Myanmar Soft-Gate Tech Yangon        MMR11006060315274527290606000000000000000   10300001F05104100000000001029000000000000     
100   62911028202793040000000000005600000000005600002000000010410406050635160001644773800605215613000164   1030000500030000   581220112701000015812201127ENJOY GARDEN           PTN           MMR11006050635160001640605000000000000000   10300001 00104100000000000571000000000000     
100   95030302100067550000000000006800000000006800002000000010410406050626100002684773800605215612000268   1030000500030000   531120226305000045311202263OCEAN SUPER CENTER STJ PTN           MMR11006050626100002680605000000000000000   10300001 00104100000000000408000000000000     
100   62911028202684060000000000020354000000020354002000000010410406051113180001034773800605215617000103   1030000500030000   531120226717000045311202267OCEAN NORTH POINT      PTN           MMR11006051113180001030605000000000000000   10300001 00104100000000001221000000000000     
100   62911028202170490000000000025850000000025850002000000010410406050624440001674773800605215612000167   1030000500030000   581220196701000085812201967BLACK CANYON (TIME CIT PTN           MMR11006050624440001670605000000000000000   10300001 00104100000000002637000000000000     
100   62911028202677880000000000102100000000102100002000000010410406050856190001914773800605215615000191   1030000500030000   541120226812000045411202268CITY MART WAIZAYANDA   PTN           MMR11006050856190001910605000000000000000   10300001 00104100000000006126000000000000     
100   62443100359018060000000000027200000000027200002000000010410406050925420002968350850605215615000296   1030000500030000   531120226302000045311202263OCEAN SUPER CENTER STJ PTN           MMR11006050925420002960605000000000000000   10300001 00104100000000006528000000000000     
100   62911028202110420000000000025000000000025000002000000010410406050451540003464773800605215611000346   1030000500030000   569120066801008205691200668ESCORT                 PTN           MMR11006050451540003460605000000000000000   10300001 00104100000000001500000000000000     
100   62911028202473840000000000023300000000023300002000000010410406050330470003514773800605215610000351   1030000500030000   591220014301014405912200143SHWE OHH PHARMACY      PTN           MMR11006050330470003510605000000000000000   10300001 00104100000000001398000000000000     
100   95050319286546940000000000009500000000009500002000000010410406050734400002062932260605215614000206   1030000500030000   569120067501022105691200675HLA FAMILY FASHION CEN PTN           MMR11006050734400002060605000000000000000   10300001 00104100000000002280000000000000     
100   95050319161596230000000000000980000000000980002000000010410406060624275427712902730606000007285933   1020000200030000   333400010001204104000000281Myanmar Soft-Gate Tech Yangon        MMR11006060624275427710606000000000000000   10300001F05104100000000000206000000000000     
100   95050321848852460000000000031000000000031000002000000010410406061000575035275259850606215717503527   1040001600030000   598320000658000000010000527Shwe Taung Energy (YGN Yangon        MMR11006061000575035270606000000000000000   10300001F00104100000000003720000000000000     
100   95050324250133010000000000048000000000048000002000000010410406060127374780503286440606215708478050   1040001600030000   598320000911000000010000662MMTM - Tamwe           Ygn           MMR11006060127374780500606000000000000000   10300001F00104100000000005760000000000000     
100   95050322654733420000000000015000000000015000002000000010410406060429075907664859940606000007285009   1030000200030000   3338000100012031040000040022C2P (Myanmar) Co. Ltd Yangon        MMR11006060429075907660606000000000000000   10300001F05104100000000003150000000000000     
100   95030367537085740000000000000980000000000980002000000010410406061115494549244773800606000007288021   1020000200030000   333400010001204104000000281Myanmar Soft-Gate Tech Yangon        MMR11006061115494549240606000000000000000   10300001F05104100000000000206000000000000     
100   62911028202417000000000000013800000000013800002000000010410406050618220003824773800605215612000382   1030000500030000   531120201603000085311202016STJ BLAZON             PTN           MMR11006050618220003820605000000000000000   10300001 00104100000000000828000000000000     
100   95030393921562700000000000053800000000053800002000000010410406050401240001874773800605215610000187   1030000500030000   541120226203000045411202262CITY MART ZAWANA       PTN           MMR11006050401240001870605000000000000000   10300001 00104100000000003228000000000000     
100   62443100340648380000000000019420000000019420002000000010410406050854000004395896850605215615000439   1030000500030000   531120155715000045311201557GAMONE PWINT           PTN           MMR11006050854000004390605000000000000000   10300001 00104100000000004661000000000000     
100   62443100358839880000000000056100000000056100002000000010410406051412550003622386030605215620000362   1030000500030000   541120045801009205411200458126 STORE              PTN           MMR11006051412550003620605000000000000000   10300001 00104100000000014025000000000000     
100   62911028202440680000000000012100000000012100002000000010410406050331500003524773800605215610000352   1030000500030000   591220014301014405912200143SHWE OHH PHARMACY      PTN           MMR11006050331500003520605000000000000000   10300001 00104100000000000726000000000000     
100   62911028202170490000000000010800000000010800002000000010410406050859370004654773800605215615000465   1030000500030000   581220064101000015812200641KRISPY KREME           PTN           MMR11006050859370004650605000000000000000   10300001 00104100000000001102000000000000     
100   95050321237170130000000000022000000000022000002000000010410406050949110019323733780605000348726950   1030000300030000   531100000747000000000000408CB BANK                CAPITAL HYPER MMR11006050949110019320605000000000000000   10300001F00104100000000005280000000000000     
100   62911028202533900000000000030000000000030000002000000010410406050338540026424773800605215610002642   1030000500030000   598320002103000015172200021MAX ENERGY             PTN           MMR11006050338540026420605000000000000000   10300001 00104100000000000900000000000000     
100   62911028202442250000000000017510000000017510002000000010410406050235210038654773800605215609003865   1030000500030000   598320001203000015172200012MAX ENERGY             PTN           MMR11006050235210038650605000000000000000   10300001 00104100000000000525000000000000     
100   95050321237170130000000000129900000000129900002000000010410406051014050040708364640605000348730297   1030000300030000   531100000604000000000000408CB BANK                CAPITAL HYPER MMR11006051014050040700605000000000000000   10300001F00104100000000031176000000000000     
100   95050319207947610000000000038089000000038089002000000010410406051059350018443236990605000348736532   1030000300030000   541100000217000000000000113CB BANK                ONESTOP KITCH MMR11006051059350018440605000000000000000   10300001F00104100000000009523000000000000     
100   62911028202207040000000000019850000000019850002000000010410406060211184802814773800606215709480281   1040001600030000   591220001007000000010000737Shwe Ohh Pharmacy (Tan Ygn           MMR11006060211184802810606000000000000000   10300001F00104100000000001191000000000000     
100   95050312224678430000000000000980000000000980002000000010410406060425505550573627220606000007284981   1020000200030000   333400010001204104000000281Myanmar Soft-Gate Tech Yangon        MMR11006060425505550570606000000000000000   10300001F05104100000000000206000000000000     
100   62911028202120400000000000021500000000021500002000000010410406060629456412664773800606594530923855   1040001400030000   546210000541025462100002716Paradise Bakery null M anmar Ahlone  MMR11006060629456412660606000000000000000   10300001 00104100000000001290000000000000     
100   62911028202099390000000000052480000000052480002000000010410406060542094901984773800606215712490198   1040001600030000   541120000563000000010000465Ocean Shwe Gone Daing  Yangon        MMR11006060542094901980606000000000000000   10300001F00104100000000003149000000000000     
100   62911028202290100000000000065000000000065000002000000010410406060757544970014773800606215714497001   1040001600030000   598320000658000000010000527Shwe Taung Energy (YGN Yangon        MMR11006060757544970010606000000000000000   10300001F00104100000000001950000000000000     
100   95050310213446310000000000000980000000000980002000000010410406061021155115286987350606000007287747   1020000200030000   333400010001204104000000281Myanmar Soft-Gate Tech Yangon        MMR11006061021155115280606000000000000000   10300001F05104100000000000206000000000000     
100   95030331359799240000000000010000000000010000002000000010410406061257142714144773800606000007288405   1040001600030000   333800010001220104000004507A +                    Yangon        MMR11006061257142714140606000000000000000   10300001F05104100000000002100000000000000     
100   95050319978637470000000000005000000000005000002000000010410406060457442744631505530606000007285247   1030000200030000   3338000100012031040000040022C2P (Myanmar) Co. Ltd Yangon        MMR11006060457442744630606000000000000000   10300001F05104100000000001050000000000000     
100   95050324154190880000000000017000000000017000002000000010410406050839530040840513910605215615004084   1030000500030000   598320001204000015172200012MAX ENERGY             PTN           MMR11006050839530040840605000000000000000   10300001 00104100000000002040000000000000     
100   62911028202703370000000000070000000000070000002000000010410406050050490052324773800605215607005232   1030000500030000   598320001902000015172200019MAX ENERGY             PTN           MMR11006050050490052320605000000000000000   10300001 00104100000000002100000000000000     
100   95050321057500320000000000012450000000012450002000000010410406050854000012184159260605215615001218   1030000500030000   581220021001000015812200210SHWE LAR HOT POT       PTN           MMR11006050854000012180605000000000000000   10300001 00104100000000005292000000000000     
100   62911028202530930000000000010500000000010500002000000010410406050813530012194773800605215614001219   1030000500030000   481220074501000014812200745TECHNOLAND (36TH ST)   PTN           MMR11006050813530012190605000000000000000   10300001 00104100000000000630000000000000     
100   95030307100064460000000000049000000000049000002000000010410406050040330027454773800605215607002745   1030000500030000   598320002004000015172200020MAX ENERGY             PTN           MMR11006050040330027450605000000000000000   10300001 00104100000000001470000000000000     
100   62911028202112400000000000030000000000030000002000000010410406050334260040194773800605215610004019   1030000500030000   598320001204000015172200012MAX ENERGY             PTN           MMR11006050334260040190605000000000000000   10300001 00104100000000000900000000000000     
100   62443100394939820000000000012175000000012175002000000010410406050426090008453258860605000348683710   1030000300030000   531100000544000000000000376CB BANK                CAPITAL HYPER MMR11006050426090008450605000000000000000   10300001F00104100000000002922000000000000     
100   95050318156904210000000000013550000000013550002000000010410406050859180014130769200605215615001413   1030000500030000   531120155714000045311201557GAMONE PWINT           PTN           MMR11006050859180014130605000000000000000   10300001 00104100000000003252000000000000     
100   95050316184853420000000000150000000000150000002000000010410406061023495349734994480606000007287751   1030000200030000   333800010001203104000003327KBZPay                 Yangon        MMR11006061023495349730606000000000000000   10300001F05104100000000031500000000000000     
100   95030301100290140000000000035000000000035000002000000010410406051139380000464773800605215618000046   1030000500030000   569120100801008405691201008M.Y FASHION            PTN           MMR11006051139380000460605000000000000000   10300001 00104100000000002100000000000000     
100   62911028202581830000000000201500000000201500002000000010410406060707593759154773800606000007286274   1030000200030000   333800010001203104000003327KBZPay                 Yangon        MMR11006060707593759150606000000000000000   10300001F05104100000000042315000000000000     
100   95050316321163940000000000000980000000000980002000000010410406061328275827246184450606000007288535   1020000200030000   333400010001204104000000281Myanmar Soft-Gate Tech Yangon        MMR11006061328275827240606000000000000000   10300001F05104100000000000206000000000000     
100   95050328570548980000000000086000000000086000002000000010410406060300528973197591100606305290222189   1040001400030000   553310000610025533100003492Myo Motor null No.(258 B)/(192)  Eas MMR11006060300528973190606000000000000000   10300001 00104100000000020640000000000000     
100   95050319996628650000000000000980000000000980002000000010410406061357392739320085120606000007288632   1020000200030000   333400010001204104000000281Myanmar Soft-Gate Tech Yangon        MMR11006061357392739320606000000000000000   10300001F05104100000000000206000000000000     
100   62911028202440680000000000003600000000003600002000000010410406061618090200974773800606000748094990   1030000200030000   541188001080000008000000294KBZ BANK               CITY MART - J MMR11006061618090200970606000000000000000   10300001 00104100000000000216000000000000     
100   95050311182936420000000000004900000000004900002000000010410406061302043204609588350606000007288412   1020000200030000   333400010001204104000000281Myanmar Soft-Gate Tech Yangon        MMR11006061302043204600606000000000000000   10300001F05104100000000001029000000000000     
100   62443100340648380000000000015900000000015900002000000010410406050816120008292336590605215614000829   1030000500030000   531120155717000045311201557GAMONE PWINT           PTN           MMR11006050816120008290605000000000000000   10300001 00104100000000003816000000000000     
100   62911028202331290000000000051700000000051700002000000010410406050808560011454773800605215614001145   1030000500030000   531120155804000045311201558GAMONE PWINT           PTN           MMR11006050808560011450605000000000000000   10300001 00104100000000003102000000000000     
100   62911028202204490000000000046000000000046000002000000010410406050247460034334773800605215609003433   1030000500030000   598320001201000015172200012MAX ENERGY             PTN           MMR11006050247460034330605000000000000000   10300001 00104100000000001380000000000000     
100   62443100330048680000000000033000000000033000002000000010410406042253190036337845990605215605003633   1030000500030000   598320001104000015172200011MAX ENERGY             PTN           MMR11006042253190036330605000000000000000   10300001 00104100000000003960000000000000     
100   95030307100064460000000000025600000000025600002000000010410406051249420006914773800605215619000691   1030000500030000   581220024201000015812200242SHWE LAR HOT POT       PTN           MMR11006051249420006910605000000000000000   10300001 00104100000000002611000000000000     
100   62911028202445710000000000047000000000047000002000000010410406050711500026654773800605215613002665   1030000500030000   598320002103000015172200021MAX ENERGY             PTN           MMR11006050711500026650605000000000000000   10300001 00104100000000001410000000000000     
100   95030301100081330000000000030000000000030000002000000010410406050024270027974773800605215606002797   1030000500030000   598320001603000015172200016MAX ENERGY             PTN           MMR11006050024270027970605000000000000000   10300001 00104100000000000900000000000000     
100   95050315005801680000000000022100000000022100002000000010410406050536100011530124080605215612001153   1030000500030000   531120155712000045311201557GAMONE PWINT           PTN           MMR11006050536100011530605000000000000000   10300001 00104100000000005304000000000000     
100   62911028202693960000000000040000000000040000002000000010410406050649200032314773800605215613003231   1030000500030000   598320002702000015172200027MAX ENERGY             PTN           MMR11006050649200032310605000000000000000   10300001 00104100000000001200000000000000     
100   95050314307746340000000000000980000000000980002000000010410406060440561056933973320606000007285109   1020000200030000   333400010001204104000000281Myanmar Soft-Gate Tech Yangon        MMR11006060440561056930606000000000000000   10300001F05104100000000000206000000000000     
100   95050310816569570000000000300000000000300000002000000010410406061059132913740802900606000007287939   1030000200030000   333800010001203104000003327KBZPay                 Yangon        MMR11006061059132913740606000000000000000   10300001F05104100000000063000000000000000     
100   62443100373945130000000000037708000000037708002000000010410406060820244980371642100606215715498037   1040001600030000   541120000559000000010000465Ocean Shwe Gone Daing  Yangon        MMR11006060820244980370606000000000000000   10300001F00104100000000009427000000000000     
100   95050316321163940000000000002940000000002940002000000010410406061319144914553488970606000007288492   1020000200030000   333400010001204104000000281Myanmar Soft-Gate Tech Yangon        MMR11006061319144914550606000000000000000   10300001F05104100000000000617000000000000     
100   95050311959900780000000000000980000000000980002000000010410406061328035803712709280606000007288533   1020000200030000   333400010001204104000000281Myanmar Soft-Gate Tech Yangon        MMR11006061328035803710606000000000000000   10300001F05104100000000000206000000000000     
100   95030329830382620000000000300000000000300000002000000010410406060611504150974773800606000007285810   1030000200030000   333800010001203104000003327KBZPay                 Yangon        MMR11006060611504150970606000000000000000   10300001F05104100000000063000000000000000     
100   95050311959900780000000000000980000000000980002000000010410406061325375537633134830606000007288523   1020000200030000   333400010001204104000000281Myanmar Soft-Gate Tech Yangon        MMR11006061325375537630606000000000000000   10300001F05104100000000000206000000000000     
100   62911028202150190000000000109000000000109000002000000010410406050240540036354773800605215609003635   1030000500030000   598320001202000015172200012MAX ENERGY             PTN           MMR11006050240540036350605000000000000000   10300001 00104100000000003270000000000000     
100   62443100371022130000000000046134000000046134002000000010410406051113290041015229860605215617004101   1030000500030000   598320001301000015172200013MAX ENERGY             PTN           MMR11006051113290041010605000000000000000   10300001 00104100000000005536000000000000     
100   62911028202194090000000000018701000000018701002000000010410406050901450027384773800605215615002738   1030000500030000   598320001601000015172200016MAX ENERGY             PTN           MMR11006050901450027380605000000000000000   10300001 00104100000000000561000000000000     
100   62911028202404050000000000024000000000024000002000000010410406050155040040414773800605215608004041   1030000500030000   598320001401000015172200014MAX ENERGY             PTN           MMR11006050155040040410605000000000000000   10300001 00104100000000000720000000000000     
100   95050317878347340000000000050000000000050000002000000010410406050836124319095556460605215615431909   1040001600030000   541120000557000000010000465Ocean Shwe Gone Daing  Yangon        MMR11006050836124319090605000000000000000   10300001F00104100000000012500000000000000     
100   62911028202287150000000000006129000000006129002000000010410406060537050035494773800606000748076994   1030000200030000   541188001627000008000000008KBZ BANK               MARKETPLACE - MMR11006060537050035490606000000000000000   10300001 00104100000000000368000000000000     
100   95050316377032610000000000010650000000010650002000000010410406061626040004584126050606000748095329   1030000200030000   541188001288000008000001475KBZ BANK               CITY CARE STA MMR11006061626040004580606000000000000000   10300001 00104100000000002663000000000000     
100   62443100328475310000000000150050000000150050002000000010410406061228310039041626280606000748078752   1030000200030000   541188001459000008000000391KBZ BANK               OCEAN SUPER C MMR11006061228310039040606000000000000000   10300001 00104100000000037513000000000000     
100   62911028202463520000000000055000000000055000002000000010410406060408364851884773800606215711485188   1040001600030000   591220001007000000010000737Shwe Ohh Pharmacy (Tan Ygn           MMR11006060408364851880606000000000000000   10300001F00104100000000003300000000000000     
100   62911028202777790000000000003000000000003000002000000010410406060417564756004773800606000007284906   1030000200030000   333800010001203104000003327KBZPay                 Yangon        MMR11006060417564756000606000000000000000   10300001F05104100000000000630000000000000     
100   95050315259054570000000000000980000000000980002000000010410406060220575057447307830606000007283935   1020000200030000   333400010001204104000000281Myanmar Soft-Gate Tech Yangon        MMR11006060220575057440606000000000000000   10300001F05104100000000000206000000000000     
100   62911028202243590000000000036541000000036541002000000010410406060620192815324773800606718501219156   1030000900030000   541119001260190110000000958City Mart PLST C 3     YANGONMYOTHIT MMR11006060620192815320606000000000000000   10300001F00104100000000002193000000000000     
100   62443100372718280000000000023000000000023000002000000010410406060941105022997246980606215716502299   1040001600030000   598320000658000000010000527Shwe Taung Energy (YGN Yangon        MMR11006060941105022990606000000000000000   10300001F00104100000000002760000000000000     
100   95050312498129060000000000004900000000004900002000000010410406061319544954189659610606000007288499   1020000200030000   333400010001204104000000281Myanmar Soft-Gate Tech Yangon        MMR11006061319544954180606000000000000000   10300001F05104100000000001029000000000000     
100   95030308100042590000000000805000000000805000002000000010410406060500522792994773800606408301152156   1030000900030000   541119000831190110000000177Pro1 Global (Insein)   YANGON        MMR11006060500522792990606000000000000000   10300001F00104100000000048300000000000000     
100   95030331359799240000000000010000000000010000002000000010410406060822005200174773800606000007286871   1040001600030000   333800010001220104000004507A +                    Yangon        MMR11006060822005200170606000000000000000   10300001F05104100000000002100000000000000     
100   62911028202383670000000000076950000000076950002000000010410406061237270005964773800606000748079531   1030000200030000   541188001357000008000000395KBZ BANK               OCEAN SUPERMA MMR11006061237270005960606000000000000000   10300001 00104100000000004617000000000000     
100   62911028202221220000000000041800000000041800002000000010410406061028020004524773800606000748069129   1030000200030000   541188001288000008000001475KBZ BANK               CITY CARE STA MMR11006061028020004520606000000000000000   10300001 00104100000000002508000000000000     
100   95050310719071210000000000008600000000008600002000000010410406061144470010046462980606000748075240   1030000200030000   541188001448000008000000401KBZ BANK               OCEAN SUPERCE MMR11006061144470010040606000000000000000   10300001 00104100000000002150000000000000     
100   62911028202737450000000000057605000000057605002000000010410406061228040027754773800606000748078709   1030000200030000   541188001482000008000000399KBZ BANK               OCEAN SUPERCE MMR11006061228040027750606000000000000000   10300001 00104100000000003456000000000000     
100   95050324850150480000000000041600000000041600002000000010410406060711120004325682980606000748085038   1030000200030000   581288000669000008000004109KBZ BANK               MIN LANN REST MMR11006060711120004320606000000000000000   10300001 00104100000000017680000000000000     
100   62911028202169750000000000015400000000015400002000000010410406060056380026314773800606000748060149   1030000200030000   541188000976000008000004913KBZ BANK               EASY-17       MMR11006060056380026310606000000000000000   10300001 00104100000000000924000000000000     
100   62911028202527490000000000033000000000033000002000000010410406061056420041214773800606000748098384   1030000200030000   591288000181000008000002044KBZ BANK               PINLON PHARMA MMR11006061056420041210606000000000000000   10300001 00104100000000001980000000000000     
100   62911028202202580000000000005800000000005800002000000010410406061519040200934773800606000748091873   1030000200030000   541188001080000008000000294KBZ BANK               CITY MART - J MMR11006061519040200930606000000000000000   10300001 00104100000000000348000000000000     
100   95050319928585020000000000004900000000004900002000000010410406060249281928883350070606000007284047   1020000200030000   333400010001204104000000281Myanmar Soft-Gate Tech Yangon        MMR11006060249281928880606000000000000000   10300001F05104100000000001029000000000000     
100   95050316717221100000000000052416000000052416002000000010410406060636470647503144230606000007286006   1030000900030000   333800010001202104000003301uab bank               Yangon        MMR11006060636470647500606000000000000000   10300001F05104100000000011008000000000000     
100   95050319938772870000000000003920000000003920002000000010410406061312234223366964100606000007288461   1020000200030000   333400010001204104000000281Myanmar Soft-Gate Tech Yangon        MMR11006061312234223360606000000000000000   10300001F05104100000000000823000000000000     
100   62911028202077010000000000001960000000001960002000000010410406061256242624034773800606000007288402   1020000200030000   333400010001204104000000281Myanmar Soft-Gate Tech Yangon        MMR11006061256242624030606000000000000000   10300001F05104100000000000412000000000000     
100   95050316321163940000000000000980000000000980002000000010410406061037200720173427090606000007287825   1020000200030000   333400010001204104000000281Myanmar Soft-Gate Tech Yangon        MMR11006061037200720170606000000000000000   10300001F05104100000000000206000000000000     
100   95050310534130230000000000015157000000015157002000000010410406061026302881391689510606641561630156   1030000900030000   541119001208190110000000948City Mart YK C 6       YANGONAUNG    MMR11006061026302881390606000000000000000   10300001F00104100000000003790000000000000     
100   62443100372718280000000000020000000000020000002000000010410406060102072750345279310606333320707156   1030000900030000   806219001560190110000000290Grand Hanthar Hospital YANGONUT      MMR11006060102072750340606000000000000000   10300001F00104100000000004800000000000000     
100   95030310100002200000000000038820000000038820002000000010410406061637330084864773800606000748095811   1030000200030000   541188001347000008000000395KBZ BANK               OCEAN SUPERMA MMR11006061637330084860606000000000000000   10300001 00104100000000002329000000000000     
100   62911028202161240000000000025599000000025599002000000010410406060919050370594773800606000748064931   1030000200030000   541188001025000008000000298KBZ BANK               CITY MART - M MMR11006060919050370590606000000000000000   10300001 00104100000000001536000000000000     
100   62443101071845130000000000010000000000010000002000000010410406060847081708085825570606000007287063   1030000300030000   333300010001206104000002147DICA Company Limited   Yangon        MMR11006060847081708080606000000000000000   10300001F05104100000000010000000000000000     
100   95050323722449090000000000004900000000004900002000000010410406060344501450194052710606000007284576   1020000200030000   333400010001204104000000281Myanmar Soft-Gate Tech Yangon        MMR11006060344501450190606000000000000000   10300001F05104100000000001029000000000000     
100   95050315796541830000000000033200000000033200002000000010410406060850492049614477830606000007287099   1030000200030000   333800010001203104000003327KBZPay                 Yangon        MMR11006060850492049610606000000000000000   10300001F05104100000000006972000000000000     
100   95050310902464360000000000015000000000015000002000000010410406060550492049647810730606000007285669   1030000200030000   3338000100012031040000040022C2P (Myanmar) Co. Ltd Yangon        MMR11006060550492049640606000000000000000   10300001F05104100000000003150000000000000     
100   95050318267399100000000000000980000000000980002000000010410406060955512551754551510606000007287585   1020000200030000   333400010001204104000000281Myanmar Soft-Gate Tech Yangon        MMR11006060955512551750606000000000000000   10300001F05104100000000000206000000000000     
100   95050314567080940000000000000980000000000980002000000010410406061350372037126609950606000007288610   1020000200030000   333400010001204104000000281Myanmar Soft-Gate Tech Yangon        MMR11006061350372037120606000000000000000   10300001F05104100000000000206000000000000     
100   95050316573091630000000000002940000000002940002000000010410406060635500550866874680606000007286015   1020000200030000   333400010001204104000000281Myanmar Soft-Gate Tech Yangon        MMR11006060635500550860606000000000000000   10300001F05104100000000000617000000000000     
100   62911028202212490000000000009700000000009700002000000010410406060208312756924773800606513380831156   1030000900030000   581219000715190110000000546Akkhaya Tea House(Dago YANGON        MMR11006060208312756920606000000000000000   10300001F00104100000000000989000000000000     
100   95050310427855490000000000003920000000003920002000000010410406061550572057327886420606000007289038   1020000200030000   333400010001204104000000281Myanmar Soft-Gate Tech Yangon        MMR11006061550572057320606000000000000000   10300001F05104100000000000823000000000000     
100   95050319870763910000000000000980000000000980002000000010410406061231540154802638010606000007288302   1020000200030000   333400010001204104000000281Myanmar Soft-Gate Tech Yangon        MMR11006061231540154800606000000000000000   10300001F05104100000000000206000000000000     
100   62911028202260160000000000054350000000054350002000000010410406060832090888494773800606020913521084   1040001400030000   591210000277025912100002552AAA Pharmacy null No(1 2)A Lay Daung MMR11006060832090888490606000000000000000   10300001 00104100000000003261000000000000     
100   95050313616076540000000000030200000000030200002000000010410406060939110911043771850606000007287482   1030000200030000   333800010001203104000003327KBZPay                 Yangon        MMR11006060939110911040606000000000000000   10300001F05104100000000006342000000000000     
100   95030322236782320000000000077000000000077000002000000010410406052355192743104773800606129250619156   1030000900030000   554119000348190110000000215New Day Energy MYG     YANGONONE     MMR11006052355192743100606000000000000000   10300001F00104100000000002310000000000000     
100   62911028202031710000000000030000000000030000002000000010410406060228312759464773800606629580831156   1030000900030000   554119000346190110000000213New Day Energy SOK     YANGONOKKALAP MMR11006060228312759460606000000000000000   10300001F00104100000000000900000000000000     
100   95050316785465380000000000002450000000002450002000000010410406061058190044408505300606000748071497   1030000200030000   541188001465000008000000391KBZ BANK               OCEAN SUPER C MMR11006061058190044400606000000000000000   10300001 00104100000000000613000000000000     
100   62443100358839880000000000062950000000062950002000000010410406061904050089685687670606000748102769   1030000200030000   541188001006000008000000008KBZ BANK               MARKETPLACE - MMR11006061904050089680606000000000000000   10300001 00104100000000015738000000000000     
100   95050315259054570000000000000980000000000980002000000010410406061349461946847035450606000007288607   1020000200030000   333400010001204104000000281Myanmar Soft-Gate Tech Yangon        MMR11006061349461946840606000000000000000   10300001F05104100000000000206000000000000     
100   62911028202170490000000000053100000000053100002000000010410406061533490261754773800606000748092718   1030000200030000   541188001038000008000000010KBZ BANK               MARKETPLACE - MMR11006061533490261750606000000000000000   10300001 00104100000000003186000000000000     
100   62911028202117290000000000100000000000100000002000000010410406060837020702064773800606000007286987   1030000200030000   333800010001203104000003327KBZPay                 Yangon        MMR11006060837020702060606000000000000000   10300001F05104100000000021000000000000000     
100   95050319928585020000000000004900000000004900002000000010410406060242361236370931720606000007284010   1020000200030000   333400010001204104000000281Myanmar Soft-Gate Tech Yangon        MMR11006060242361236370606000000000000000   10300001F05104100000000001029000000000000     
100   95050315099113150000000000000980000000000980002000000010410406060340251025804066490606000007284497   1020000200030000   333400010001204104000000281Myanmar Soft-Gate Tech Yangon        MMR11006060340251025800606000000000000000   10300001F05104100000000000206000000000000     
100   62443100306416880000000000014400000000014400002000000010410406061710400252215590150606000748097574   1030000200030000   541188001059000008000000314KBZ BANK               MARKETPLACE - MMR11006061710400252210606000000000000000   10300001 00104100000000003600000000000000     
100   95050329720648480000000000200000000000200000002000000010410406051756492649852726410606000007283455   1030000500030000   333800010001201104000003863AYA Pay                Yangon        MMR11006051756492649850606000000000000000   10300001F05104100000000042000000000000000     
100   95050325630928770000000000000980000000000980002000000010410406060341141114118768660606000007284544   1020000200030000   333400010001204104000000281Myanmar Soft-Gate Tech Yangon        MMR11006060341141114110606000000000000000   10300001F05104100000000000206000000000000     
100   95050319928585020000000000001960000000001960002000000010410406060247281728075002560606000007284032   1020000200030000   333400010001204104000000281Myanmar Soft-Gate Tech Yangon        MMR11006060247281728070606000000000000000   10300001F05104100000000000412000000000000     
100   62443100315110470000000000014350000000014350002000000010410406060027152747071804140606260570615156   1030000900030000   581219000715190110000000546Akkhaya Tea House(Dago YANGON        MMR11006060027152747070606000000000000000   10300001F00104100000000006099000000000000     
100   95030367537085740000000000000980000000000980002000000010410406060233120312654773800606000007283965   1020000200030000   333400010001204104000000281Myanmar Soft-Gate Tech Yangon        MMR11006060233120312650606000000000000000   10300001F05104100000000000206000000000000     
100   95050322295410690000000000033450000000033450002000000010410406061443490347150436900606000748089791   1030000200030000   541188001041000008000000010KBZ BANK               MARKETPLACE - MMR11006061443490347150606000000000000000   10300001 00104100000000008363000000000000     
100   62911028202170490000000000004150000000004150002000000010410406061524350174204773800606000748092190   1030000200030000   541188001049000008000000010KBZ BANK               MARKETPLACE - MMR11006061524350174200606000000000000000   10300001 00104100000000000249000000000000     
