100   62443101006526980000000000086000000000086000002000000010410406032352560241289945820604215523024128   1030000600030000   554100002085315799420000471DENKO BAHAN            YANGON        MMR11006032352560241280604000000000000000   10300001 00104100000000010320000000000000     
100   95050318617855880000000000004900000000004900002000000010410406071150292029825106530607000007293905   1020000200030000   333400010001204104000000281Myanmar Soft-Gate Tech Yangon        MMR11006071150292029820607000000000000000   10300001F05104100000000001029000000000000     
100   62443100333488440000000000017350000000017350002000000010410406070917423453885057090607112461544157   1030000500030000   555610121914104519000018359City Express MCS 114                 MMR11006070917423453880607000000000000000   10300001 00104100000000004338000000000000     
100   95050312498129060000000000002940000000002940002000000010410406071225425542149808700607000007294045   1020000200030000   333400010001204104000000281Myanmar Soft-Gate Tech Yangon        MMR11006071225425542140607000000000000000   10300001F05104100000000000617000000000000     
100   62911028202446540000000000173550000000173550002000000010410406070818345645934773800607215815564593   1040001600030000   591220000287000000010000275Shwe Ohh Pharmacy (Wit Yangon        MMR11006070818345645930607000000000000000   10300001F00104100000000010413000000000000     
100   95050313702988830000000000001960000000001960002000000010410406071320285028466333530607000007294240   1020000200030000   333400010001204104000000281Myanmar Soft-Gate Tech Yangon        MMR11006071320285028460607000000000000000   10300001F05104100000000000412000000000000     
100   95050315701710960000000000000980000000000980002000000010410406071210464046539468310607000007293984   1020000200030000   333400010001204104000000281Myanmar Soft-Gate Tech Yangon        MMR11006071210464046530607000000000000000   10300001F05104100000000000206000000000000     
100   95050312498129060000000000005880000000005880002000000010410406071315064506529638500607000007294241   1020000200030000   333400010001204104000000281Myanmar Soft-Gate Tech Yangon        MMR11006071315064506520607000000000000000   10300001F05104100000000001235000000000000     
100   62443100330108240000000000001960000000001960002000000010410406071521015101521795850607000007294667   1020000200030000   333400010001204104000000281Myanmar Soft-Gate Tech Yangon        MMR11006071521015101520607000000000000000   10300001F05104100000000000412000000000000     
100   95050323067379780000000000300000000000300000002000000010410406070625385538022213250607000007291724   1030000200030000   333800010001203104000003327KBZPay                 Yangon        MMR11006070625385538020607000000000000000   10300001F05104100000000063000000000000000     
100   95050319286546940000000000043700000000043700002000000010410406070208325469672624540607215809546967   1040001600030000   591220000258000000010000246Shwe Ohh Pharmacy (Sin Yangon        MMR11006070208325469670607000000000000000   10300001F00104100000000010488000000000000     
100   95050318057347910000000000001960000000001960002000000010410406070622355235480645870607000007291674   1020000200030000   333400010001204104000000281Myanmar Soft-Gate Tech Yangon        MMR11006070622355235480607000000000000000   10300001F05104100000000000412000000000000     
100   95050310427855490000000000001960000000001960002000000010410406070926125612373319510607000007293108   1020000200030000   333400010001204104000000281Myanmar Soft-Gate Tech Yangon        MMR11006070926125612370607000000000000000   10300001F05104100000000000412000000000000     
100   95050323282717740000000000030000000000030000002000000010410406060233250039512924590606215709003951   1030000500030000   598320001302000015172200013MAX ENERGY             PTN           MMR11006060233250039510606000000000000000   10300001 00104100000000003600000000000000     
100   95050312498129060000000000000980000000000980002000000010410406062310534053856808050607000007289375   1020000200030000   333400010001204104000000281Myanmar Soft-Gate Tech Yangon        MMR11006062310534053850607000000000000000   10300001F05104100000000000206000000000000     
100   62443100316099160000000000200000000000200000002000000010410406070517064706049792820607000007291210   1030000200030000   333800010001203104000003327KBZPay                 Yangon        MMR11006070517064706040607000000000000000   10300001F05104100000000042000000000000000     
100   95050323133124350000000000005000000000005000002000000010410406071421045104018150490607000007294499   1030000200030000   333800010001203104000003327KBZPay                 Yangon        MMR11006071421045104010607000000000000000   10300001F05104100000000001050000000000000     
100   62911028202161240000000000030000000000030000002000000010410406060148080039994773800606215708003999   1030000500030000   598320001203000015172200012MAX ENERGY             PTN           MMR11006060148080039990606000000000000000   10300001 00104100000000000900000000000000     
100   95050318057347910000000000002940000000002940002000000010410406070810254025061035700607000007292534   1020000200030000   333400010001204104000000281Myanmar Soft-Gate Tech Yangon        MMR11006070810254025060607000000000000000   10300001F05104100000000000617000000000000     
100   62911028202057620000000000050000000000050000002000000010410406070312534253344773800607000007290070   1030000200030000   333800010001203104000003327KBZPay                 Yangon        MMR11006070312534253340607000000000000000   10300001F05104100000000010500000000000000     
100   62443100330108240000000000002940000000002940002000000010410406071522465246786838390607000007294676   1020000200030000   333400010001204104000000281Myanmar Soft-Gate Tech Yangon        MMR11006071522465246780607000000000000000   10300001F05104100000000000617000000000000     
100   62911028202777790000000000007000000000007000002000000010410406070424525452064773800607000007290746   1030000200030000   333800010001203104000003327KBZPay                 Yangon        MMR11006070424525452060607000000000000000   10300001F05104100000000001470000000000000     
100   95030308100010080000000000001960000000001960002000000010410406071329195919804773800607000007294296   1020000200030000   333400010001204104000000281Myanmar Soft-Gate Tech Yangon        MMR11006071329195919800607000000000000000   10300001F05104100000000000412000000000000     
100   95050319096688200000000000030000000000030000002000000010410406071128595859219893790607000007293790   1030000200030000   333800010001203104000003327KBZPay                 Yangon        MMR11006071128595859210607000000000000000   10300001F05104100000000006300000000000000     
100   62911028202142930000000000022000000000022000002000000010410406070113175439314773800607215808543931   1040001600030000   598320000659000000010000528Shwe Taung Energy (YGN Yangon        MMR11006070113175439310607000000000000000   10300001F00104100000000000660000000000000     
100   95030304441505280000000005362865000005362865002000000010410406070405593559054773800607000007290567   1010000100030000   333500010001212104000003087Internal Revenue Depar Yangon        MMR11006070405593559050607000000000000000   10300001F05104100000000060000000000000000     
100   95050312695033440000000000000980000000000980002000000010410406070719034903191277200607000007292133   1020000200030000   333400010001204104000000281Myanmar Soft-Gate Tech Yangon        MMR11006070719034903190607000000000000000   10300001F05104100000000000206000000000000     
100   95050316377977350000000000010000000000010000002000000010410406070214554455923050000607000007289701   1040001600030000   333800010001220104000004507A +                    Yangon        MMR11006070214554455920607000000000000000   10300001F05104100000000002100000000000000     
100   95050312675525330000000000020000000000020000002000000010410406071410344034991455460607000007294461   1030000200030000   333800010001203104000003327KBZPay                 Yangon        MMR11006071410344034990607000000000000000   10300001F05104100000000004200000000000000     
100   95050326155679180000000000008820000000008820002000000010410406070318394839742622180607000007290122   1020000200030000   333400010001204104000000281Myanmar Soft-Gate Tech Yangon        MMR11006070318394839740607000000000000000   10300001F05104100000000001852000000000000     
100   62911028202472440000000000036000000000036000002000000010410406070657545610784773800607215813561078   1040001600030000   598320001170000000010000527Shwe Taung Energy (YGN Yangon        MMR11006070657545610780607000000000000000   10300001F00104100000000001080000000000000     
100   95050312695033440000000000000980000000000980002000000010410406071207333733247815820607000007293973   1020000200030000   333400010001204104000000281Myanmar Soft-Gate Tech Yangon        MMR11006071207333733240607000000000000000   10300001F05104100000000000206000000000000     
100   95050312695033440000000000002940000000002940002000000010410406071214154415656163340607000007294002   1020000200030000   333400010001204104000000281Myanmar Soft-Gate Tech Yangon        MMR11006071214154415650607000000000000000   10300001F05104100000000000617000000000000     
100   95050314893649800000000000005880000000005880002000000010410406070420355035440605090607000007290694   1020000200030000   333400010001204104000000281Myanmar Soft-Gate Tech Yangon        MMR11006070420355035440607000000000000000   10300001F05104100000000001235000000000000     
100   95050319286546940000000000020900000000020900002000000010410406070206415468767376130607215809546876   1040001600030000   591220000258000000010000246Shwe Ohh Pharmacy (Sin Yangon        MMR11006070206415468760607000000000000000   10300001F00104100000000005016000000000000     
100   62911028202668140000000000042000000000042000002000000010410406060937110763224773800606215709076322   1030000600030000   554100000957315799420000480DENKO N.DAGON - 3      YANGON        MMR11006060937110763220606000000000000000   10300001 00104100000000001260000000000000     
100   95050316769671810000000000000980000000000980002000000010410406070519114911403267940607000007291196   1020000200030000   333400010001204104000000281Myanmar Soft-Gate Tech Yangon        MMR11006070519114911400607000000000000000   10300001F05104100000000000206000000000000     
100   62911028202527490000000000027000000000027000002000000010410406070523075558024773800607215812555802   1040001600030000   598320000916000000010000664MMTM - North Dagon     Ygn           MMR11006070523075558020607000000000000000   10300001F00104100000000000810000000000000     
100   95050324826664210000000000035000000000035000002000000010410406060030190042880151660606215707004288   1030000500030000   598320001402000015172200014MAX ENERGY             PTN           MMR11006060030190042880606000000000000000   10300001 00104100000000004200000000000000     
100   95050318052625040000000000030000000000030000002000000010410406040049460022525960080604215500002252   1030000600030000   554100002404315799420000480DENKO N.DAGON - 3      YANGON        MMR11006040049460022520604000000000000000   10300001 00104100000000003600000000000000     
100   62443100379321630000000000068300000000068300002000000010410406070959333456332567430607295281624157   1030000300030000   555510124363104519000020166Makro Myanmar                        MMR11006070959333456330607000000000000000   10300001 00104100000000016392000000000000     
100   95030317922148660000000000130499000000130499002000000010410406071601300023664773800607000748142678   1030000200030000   541188001008000008000000008KBZ BANK               MARKETPLACE - MMR11006071601300023660607000000000000000   10300001 00104100000000007830000000000000     
100   62911028202150190000000000065800000000065800002000000010410406070820480028294773800607000748138903   1030000200030000   581288001738000008000005244KBZ BANK               SEAFOOD CITY  MMR11006070820480028290607000000000000000   10300001 00104100000000006712000000000000     
100   62911028202709150000000000016706000000016706002000000010410406071226160059104773800607000748128603   1030000200030000   541188001432000008000000401KBZ BANK               OCEAN SUPERCE MMR11006071226160059100607000000000000000   10300001 00104100000000001002000000000000     
100   95050323067379780000000000300000000000300000002000000010410406070633210321319248670607000007291774   1030000200030000   333800010001203104000003327KBZPay                 Yangon        MMR11006070633210321310607000000000000000   10300001F05104100000000063000000000000000     
100   95030305700676370000000000060000000000060000002000000010410406070809260040194773800607000748137963   1030000200030000   598388001833000008000005310KBZ BANK               BOC (138 MILE MMR11006070809260040190607000000000000000   10300001 00104100000000001800000000000000     
100   62911028202142850000000000015400000000015400002000000010410406071558260201484773800607000748142539   1030000200030000   541188001080000008000000294KBZ BANK               CITY MART - J MMR11006071558260201480607000000000000000   10300001 00104100000000000924000000000000     
100   62911028202161240000000000010975000000010975002000000010410406071012090134754773800607000748119936   1030000200030000   541188001023000008000000298KBZ BANK               CITY MART - M MMR11006071012090134750607000000000000000   10300001 00104100000000000659000000000000     
100   95050315110306410000000000003000000000003000002000000010410406071438560856066412910607000007294551   1030000200030000   333800010001203104000003327KBZPay                 Yangon        MMR11006071438560856060607000000000000000   10300001F05104100000000000630000000000000     
100   95050315743141220000000000001960000000001960002000000010410406070547421742296865970607000007291454   1020000200030000   333400010001204104000000281Myanmar Soft-Gate Tech Yangon        MMR11006070547421742290607000000000000000   10300001F05104100000000000412000000000000     
100   95050324154190880000000000002900000000002900002000000010410406071856270135446503720607000748149729   1030000200030000   541188001023000008000000298KBZ BANK               CITY MART - M MMR11006071856270135440607000000000000000   10300001 00104100000000000725000000000000     
100   95050314534800510000000000000985000000000985002000000010410406070240401040692479600607000007289823   1020000200030000   333400010001204104000000281Myanmar Soft-Gate Tech Yangon        MMR11006070240401040690607000000000000000   10300001F05104100000000000207000000000000     
100   62911028202045260000000000003900000000003900002000000010410406071428370079094773800607000748137404   1030000200030000   541188001074000008000000294KBZ BANK               CITY MART - J MMR11006071428370079090607000000000000000   10300001 00104100000000000234000000000000     
100   95050313400081980000000000030000000000030000002000000010410406070233330333782270350607000007289781   1030000200030000   333800010001203104000003327KBZPay                 Yangon        MMR11006070233330333780607000000000000000   10300001F05104100000000006300000000000000     
100   62911028202448030000000000012900000000012900002000000010410406071745190095414773800607000748147117   1030000200030000   541188001022000008000000298KBZ BANK               CITY MART - M MMR11006071745190095410607000000000000000   10300001 00104100000000000774000000000000     
100   62911028202421380000000000032550000000032550002000000010410406071116320121774773800607000748123647   1030000200030000   541188001081000008000000294KBZ BANK               CITY MART - J MMR11006071116320121770607000000000000000   10300001 00104100000000001953000000000000     
100   62911028202696360000000000052330000000052330002000000010410406071606470348164773800607000748142916   1030000200030000   541188001041000008000000010KBZ BANK               MARKETPLACE - MMR11006071606470348160607000000000000000   10300001 00104100000000003140000000000000     
100   95050311419479170000000000000980000000000980002000000010410406070934240424232808930607000007293175   1020000200030000   333400010001204104000000281Myanmar Soft-Gate Tech Yangon        MMR11006070934240424230607000000000000000   10300001F05104100000000000206000000000000     
100   95050310213446310000000000009800000000009800002000000010410406071339580958384930620607000007294346   1020000200030000   333400010001204104000000281Myanmar Soft-Gate Tech Yangon        MMR11006071339580958380607000000000000000   10300001F05104100000000002058000000000000     
100   95050311048637960000000000006674000000006674002000000010410406071658040079157695070607000748145044   1030000200030000   541188001074000008000000294KBZ BANK               CITY MART - J MMR11006071658040079150607000000000000000   10300001 00104100000000001669000000000000     
100   62911028202400660000000000018700000000018700002000000010410406071719000183694773800607000748146070   1030000200030000   541188001126000008000000296KBZ BANK               CITY MART - J MMR11006071719000183690607000000000000000   10300001 00104100000000001122000000000000     
100   95050319881452370000000000300000000000300000002000000010410406071033340334708836970607000007293552   1030000200030000   333800010001203104000003327KBZPay                 Yangon        MMR11006071033340334700607000000000000000   10300001F05104100000000063000000000000000     
100   62911028202696360000000000008700000000008700002000000010410406071523540144224773800607000748140679   1030000200030000   541188001047000008000000010KBZ BANK               MARKETPLACE - MMR11006071523540144220607000000000000000   10300001 00104100000000000522000000000000     
100   62911028202130710000000000011650000000011650002000000010410406071237070252604773800607000748129388   1030000200030000   541188001059000008000000314KBZ BANK               MARKETPLACE - MMR11006071237070252600607000000000000000   10300001 00104100000000000699000000000000     
100   95050329213164970000000000002940000000002940002000000010410406071040511051239092270607000007293582   1020000200030000   333400010001204104000000281Myanmar Soft-Gate Tech Yangon        MMR11006071040511051230607000000000000000   10300001F05104100000000000617000000000000     
100   95050323067379780000000000300000000000300000002000000010410406070645031503082468540607000007291857   1030000200030000   333800010001203104000003327KBZPay                 Yangon        MMR11006070645031503080607000000000000000   10300001F05104100000000063000000000000000     
100   95050314557307430000000000005880000000005880002000000010410406071045031503610659660607000007293599   1020000200030000   333400010001204104000000281Myanmar Soft-Gate Tech Yangon        MMR11006071045031503610607000000000000000   10300001F05104100000000001235000000000000     
100   62911028202142850000000000014900000000014900002000000010410406071607550209424773800607000748142976   1030000200030000   541188001075000008000000294KBZ BANK               CITY MART - J MMR11006071607550209420607000000000000000   10300001 00104100000000000894000000000000     
100   95050311419479170000000000001960000000001960002000000010410406070937250725402723830607000007293194   1020000200030000   333400010001204104000000281Myanmar Soft-Gate Tech Yangon        MMR11006070937250725400607000000000000000   10300001F05104100000000000412000000000000     
100   95050316377977350000000000010000000000010000002000000010410406071447551755093107950607000007294586   1040001600030000   333800010001220104000004507A +                    Yangon        MMR11006071447551755090607000000000000000   10300001F05104100000000002100000000000000     
100   95050326426352250000000000050000000000050000002000000010410406071345301530663193040607000007294370   1030000200030000   333800010001203104000003327KBZPay                 Yangon        MMR11006071345301530660607000000000000000   10300001F05104100000000010500000000000000     
100   62911028202151910000000000162956000000162956002000000010410406071050080120104773800607000748122070   1030000200030000   541188001002000008000000008KBZ BANK               MARKETPLACE - MMR11006071050080120100607000000000000000   10300001 00104100000000009777000000000000     
100   95030325264619140000000000042200000000042200002000000010410406071153330120154773800607000748126284   1030000200030000   541188001002000008000000008KBZ BANK               MARKETPLACE - MMR11006071153330120150607000000000000000   10300001 00104100000000002532000000000000     
100   62911028202290100000000000110995000000110995002000000010410406070958170201214773800607000748119277   1030000200030000   541188001080000008000000294KBZ BANK               CITY MART - J MMR11006070958170201210607000000000000000   10300001 00104100000000006660000000000000     
100   95050327416134790000000000001960000000001960002000000010410406071300143014368071110607000007294183   1020000200030000   333400010001204104000000281Myanmar Soft-Gate Tech Yangon        MMR11006071300143014360607000000000000000   10300001F05104100000000000412000000000000     
100   95050312020729360000000000059092000000059092002000000010410406070313503015090069280607185430950157   1030000900030000   541119001262190110000000958City Mart PLST C 5     YANGONMYOTHIT MMR11006070313503015090607000000000000000   10300001F00104100000000014773000000000000     
100   62911028202703370000000000031000000000031000002000000010410406070908083099404773800607768381508157   1030000900030000   541119001154190110000000930OCEAN HTY C 4          YANGONTHARYA  MMR11006070908083099400607000000000000000   10300001F00104100000000001860000000000000     
100   62911028202198620000000000100000000000100000002000000010410406071245543157724773800607262151954157   1030000900030000   554119000345190110000000212New Day Energy PZD     YANGONAUNG    MMR11006071245543157720607000000000000000   10300001F00104100000000003000000000000000     
100   95050315743141220000000000001960000000001960002000000010410406070707083708655348030607000007292020   1020000200030000   333400010001204104000000281Myanmar Soft-Gate Tech Yangon        MMR11006070707083708650607000000000000000   10300001F05104100000000000412000000000000     
100   95050314126593570000000000003000000000003000002000000010410406071222423152594851240607958521842157   1030000900030000   541119001077190110000000872Sein Gay Har Hledan    YANGONUT      MMR11006071222423152590607000000000000000   10300001F00104100000000000750000000000000     
100   95050323133124350000000000017000000000017000002000000010410406071444241424208065400607000007294567   1030000200030000   333800010001203104000003327KBZPay                 Yangon        MMR11006071444241424200607000000000000000   10300001F05104100000000003570000000000000     
100   95050319902033540000000000050700000000050700002000000010410406070533493046771738330607876031249157   1030000900030000   541119000145190110000000083SeinGayHarParami Cente YANGON        MMR11006070533493046770607000000000000000   10300001F00104100000000012675000000000000     
100   62911028202169750000000000010030000000010030002000000010410406070516323042914773800607678461132157   1030000900030000   541119001266190110000000958City Mart PLST C9      YANGONMYOTHIT MMR11006070516323042910607000000000000000   10300001F00104100000000000602000000000000     
100   95050314126593570000000000005400000000005400002000000010410406071156513145491205890607510261851157   1030000900030000   541119001074190110000000872Sein Gay Har Hledan    YANGONUT      MMR11006071156513145490607000000000000000   10300001F00104100000000001350000000000000     
100   95050314160856250000000000002940000000002940002000000010410406070651372137670220380607000007291914   1020000200030000   333400010001204104000000281Myanmar Soft-Gate Tech Yangon        MMR11006070651372137670607000000000000000   10300001F05104100000000000617000000000000     
100   95050317834964620000000000009275000000009275002000000010410406071116053135513283850607935461705157   1030000900030000   541119001355190110000000977Ocean PZD C9           YANGONAUNG    MMR11006071116053135510607000000000000000   10300001F00104100000000002319000000000000     
100   95050322158563070000000000044000000000044000002000000010410406070425273437052134140607869141134157   1030000300030000   555510125034104519000020930Smile Art Dental Group               MMR11006070425273437050607000000000000000   10300001 00104100000000010560000000000000     
100   95030323161862590000000002105000000002105000002000000010410406070235243006834773800607756050924157   1030000900030000   701119000073190110000000024Lotte Hotel            YANGON        MMR11006070235243006830607000000000000000   10300001F00104100000000214710000000000000     
100   95050312160676580000000000010000000000010000002000000010410406071401283128669888070607000007294420   1030000200030000   333800010001203104000003327KBZPay                 Yangon        MMR11006071401283128660607000000000000000   10300001F05104100000000002100000000000000     
100   95050328303533000000000000010000000000010000002000000010410406071201593159952858370607000007293949   1030000200030000   3334000100012031040000040102C2P (Myanmar) Co.,Ltd Yangon        MMR11006071201593159950607000000000000000   10300001F05104100000000002100000000000000     
100   95050313732480420000000000005880000000005880002000000010410406070049121912826736780607000007289471   1020000200030000   333400010001204104000000281Myanmar Soft-Gate Tech Yangon        MMR11006070049121912820607000000000000000   10300001F05104100000000001235000000000000     
100   95050318203765370000000000020000000000020000002000000010410406070706543654210305480607000007292009   1030000200030000   3338000100012031040000040022C2P (Myanmar) Co.,Ltd Yangon        MMR11006070706543654210607000000000000000   10300001F05104100000000004200000000000000     
100   95030378062733680000000000010800000000010800002000000010410406070838413451384773800607920081522157   1030000300030000   555510125772104519000021585G and G Convenience St re G040       MMR11006070838413451380607000000000000000   10300001 00104100000000000648000000000000     
100   95050323067379780000000000200000000000200000002000000010410406070657432743356745220607000007291955   1030000200030000   333800010001203104000003327KBZPay                 Yangon        MMR11006070657432743350607000000000000000   10300001F05104100000000042000000000000000     
100   95050312224678430000000000001960000000001960002000000010410406070201073107721276760607000007289644   1020000200030000   333400010001204104000000281Myanmar Soft-Gate Tech Yangon        MMR11006070201073107720607000000000000000   10300001F05104100000000000412000000000000     
100   62911028202198620000000000012000000000012000002000000010410406071250103158594773800607302201910157   1030000900030000   554119000345190110000000212New Day Energy PZD     YANGONAUNG    MMR11006071250103158590607000000000000000   10300001F00104100000000000360000000000000     
100   62443100313529540000000000006000000000006000002000000010410406071159132913461290980607000007293943   1030000200030000   333800010001203104000003327KBZPay                 Yangon        MMR11006071159132913460607000000000000000   10300001F05104100000000001260000000000000     
100   95050310409767690000000000001960000000001960002000000010410406070502373237415538000607000007291097   1020000200030000   333400010001204104000000281Myanmar Soft-Gate Tech Yangon        MMR11006070502373237410607000000000000000   10300001F05104100000000000412000000000000     
100   95050313732480420000000000002940000000002940002000000010410406071358492849664845530607000007294409   1020000200030000   333400010001204104000000281Myanmar Soft-Gate Tech Yangon        MMR11006071358492849660607000000000000000   10300001F05104100000000000617000000000000     
100   95030301100121270000000000005100000000005100002000000010410406070948233110944773800607441181623157   1030000900030000   541119001273190110000000960City Mart PLST Season  YANGONMYOTHIT MMR11006070948233110940607000000000000000   10300001F00104100000000000306000000000000     
100   62911028202134510000000000098800000000098800002000000010410406070736453447964773800607686051459157   1030000300030000   555510124363104519000020166Makro Myanmar                        MMR11006070736453447960607000000000000000   10300001 00104100000000005928000000000000     
100   95050313396828960000000000000980000000000980002000000010410406071248591859143113660607000007294145   1020000200030000   333400010001204104000000281Myanmar Soft-Gate Tech Yangon        MMR11006071248591859140607000000000000000   10300001F05104100000000000206000000000000     
100   95050312675525330000000000002000000000002000002000000010410406071453422342284760430607000007294600   1030000200030000   333800010001203104000003327KBZPay                 Yangon        MMR11006071453422342280607000000000000000   10300001F05104100000000000420000000000000     
100   95050317084233280000000000000980000000000980002000000010410406071204003400459553410607000007293960   1020000200030000   333400010001204104000000281Myanmar Soft-Gate Tech Yangon        MMR11006071204003400450607000000000000000   10300001F05104100000000000206000000000000     
100   95050311959900780000000000000980000000000980002000000010410406070053402340967162240607000007289483   1020000200030000   333400010001204104000000281Myanmar Soft-Gate Tech Yangon        MMR11006070053402340960607000000000000000   10300001F05104100000000000206000000000000     
100   95050324154190880000000000002250000000002250002000000010410406060230290001719534520606215709000171   1030000500030000   541120226803000045411202268CITY MART WAIZAYANDA   PTN           MMR11006060230290001710606000000000000000   10300001 00104100000000000563000000000000     
100   95050314126593570000000000017400000000017400002000000010410406071210083149004510860607728401808157   1030000900030000   541119001079190110000000872Sein Gay Har Hledan    YANGONUT      MMR11006071210083149000607000000000000000   10300001F00104100000000004350000000000000     
100   95030367537085740000000000004900000000004900002000000010410406071335550555714773800607000007294317   1020000200030000   333400010001204104000000281Myanmar Soft-Gate Tech Yangon        MMR11006071335550555710607000000000000000   10300001F05104100000000001029000000000000     
100   62911028202207040000000000034050000000034050002000000010410406070135342997824773800607412050834157   1030000900030000   541119001462190110000000077Sein Gay Har Chinatown YANGON        MMR11006070135342997820607000000000000000   10300001F00104100000000002043000000000000     
100   62443100302523870000000000057000000000057000002000000010410406040355420158220335640604215503015822   1030000600030000   554100002324315799420000481DENKO NORTH OKKALAPA   YANGON        MMR11006040355420158220604000000000000000   10300001 00104100000000006840000000000000     
100   62911028202491330000000000092000000000092000002000000010410406041033470243034773800604215510024303   1030000600030000   554100002085315799420000471DENKO BAHAN            YANGON        MMR11006041033470243030604000000000000000   10300001 00104100000000002760000000000000     
100   95050324850150480000000000040000000000040000002000000010410406040222210293268924660604215502029326   1030000600030000   554100001116315799420000574DENKO HLAE KUU         HLAE KUU      MMR11006040222210293260604000000000000000   10300001 00104100000000004800000000000000     
100   62911028202442250000000000034600000000034600002000000010410406040349390062114773800604215503006211   1030000600030000   806200002188315799420001535ASIA ROYAL HOSPITAL    YANGON        MMR11006040349390062110604000000000000000   10300001 00104100000000002076000000000000     
100   62911028202404050000000000056018000000056018002000000010410406041246590136674773800604215512013667   1030000600030000   581200000524315799420000141FUJI COFFEE HOUSE      YANGON        MMR11006041246590136670604000000000000000   10300001 00104100000000005714000000000000     
100   62443100328475310000000000119000000000119000002000000010410406041026480183784079880604215510018378   1030000600030000   554100001011315799420000505DENKO HTAN TA PIN      YANGON        MMR11006041026480183780604000000000000000   10300001 00104100000000014280000000000000     
100   62911028202103410000000000053279000000053279002000000010410406040658370242344773800604215506024234   1030000600030000   554100002085315799420000471DENKO BAHAN            YANGON        MMR11006040658370242340604000000000000000   10300001 00104100000000001598000000000000     
100   95030301100121270000000000026000000000026000002000000010410406040922270538144773800604215509053814   1030000600030000   554100001756315799420001137DENKO NORTH DAGON 2    YANGON        MMR11006040922270538140604000000000000000   10300001 00104100000000000780000000000000     
100   62911028202474000000000000086193000000086193002000000010410406040555270904074773800604215505090407   1030000600030000   554100000946315799420000471DENKO BAHAN            YANGON        MMR11006040555270904070604000000000000000   10300001 00104100000000002586000000000000     
100   62443100306045460000000000076600000000076600002000000010410406051135580002466201570605215611000246   1030000600030000   591200002216315799420001561365 PHARMACY 2         YANGON        MMR11006051135580002460605000000000000000   10300001 00104100000000018384000000000000     
100   95050326228858240000000000070000000000070000002000000010410406050839240001843818880605215608000184   1030000600030000   554100001214315799420000666DENKO MAGWAY - 1       MAGWAY.       MMR11006050839240001840605000000000000000   10300001 00104100000000008400000000000000     
100   62911028202130710000000000027800000000027800002000000010410406051011310017164773800605215610001716   1030000600030000   569100001986315799420001355RENE MYANMAR MP        MAYANGONE     MMR11006051011310017160605000000000000000   10300001 00104100000000001668000000000000     
100   62443100328070970000000000022800000000022800002000000010410406050719590010526067040605215607001052   1030000600030000   5499000022363157994200015691 STOP S M SATSAN      YANGON        MMR11006050719590010520605000000000000000   10300001 00104100000000009690000000000000     
100   95050320093758110000000000066000000000066000002000000010410406051124150077990102220605215611007799   1030000600030000   554100002139315799420001488DENKO MDY-12           MANDALAY      MMR11006051124150077990605000000000000000   10300001 00104100000000007920000000000000     
100   95030305700676370000000000030000000000030000002000000010410406050436330109994773800605215604010999   1030000600030000   554100001237315799420000691DENKO AUNG PAN         KALAW.        MMR11006050436330109990605000000000000000   10300001 00104100000000000900000000000000     
100   62911028202752030000000000111000000000111000002000000010410406051317000364684773800605215613036468   1030000600030000   554100001155315799420000607DENKO NPT 1            NAYPYITAW.    MMR11006051317000364680605000000000000000   10300001 00104100000000003330000000000000     
100   95050328074436620000000000028000000000028000002000000010410406050517090245313514150605215605024531   1030000600030000   554100002085315799420000471DENKO BAHAN            YANGON        MMR11006050517090245310605000000000000000   10300001 00104100000000003360000000000000     
100   62443101023815100000000000027000000000027000002000000010410406050308400905896017600605215603090589   1030000600030000   554100000946315799420000471DENKO BAHAN            YANGON        MMR11006050308400905890605000000000000000   10300001 00104100000000003240000000000000     
100   62911028202752520000000000092000000000092000002000000010410406051222240175314773800605215612017531   1030000600030000   554100002320315799420000564DENKO PHYUU            PHYUU         MMR11006051222240175310605000000000000000   10300001 00104100000000002760000000000000     
100   95050311876202380000000000070000000000070000002000000010410406050301050363557755180605215603036355   1030000600030000   554100001155315799420000607DENKO NPT 1            NAYPYITAW.    MMR11006050301050363550605000000000000000   10300001 00104100000000008400000000000000     
100   62443100311760720000000000059000000000059000002000000010410406050827510230300599000605215608023030   1030000600030000   554100002319315799420000477DENKO INSEIN           YANGON        MMR11006050827510230300605000000000000000   10300001 00104100000000007080000000000000     
100   95050326228858240000000000119000000000119000002000000010410406051457580388884038520605215614038888   1030000600030000   554100001003315799420000497DENKO KONE TA LA PAUNG YANGON        MMR11006051457580388880605000000000000000   10300001 00104100000000014280000000000000     
100   62911028202237810000000000081120000000081120002000000010410406060631550012154773800606215713001215   1030000500030000   569120096201019505691200962MK FASHION SHOP        PTN           MMR11006060631550012150606000000000000000   10300001 00104100000000004867000000000000     
100   95050324154190880000000000031000000000031000002000000010410406060223590001702754400606215708000170   1030000500030000   541120226803000045411202268CITY MART WAIZAYANDA   PTN           MMR11006060223590001700606000000000000000   10300001 00104100000000007750000000000000     
100   62443100379321630000000000365250000000365250002000000010410406061151220003059235510606215718000305   1030000500030000   531120226303000045311202263OCEAN SUPER CENTER STJ PTN           MMR11006061151220003050606000000000000000   10300001 00104100000000087660000000000000     
100   95030301100126550000000000013200000000013200002000000010410406061138560007434773800606000348917432   1030000300030000   581200001529000000000001077CB BANK                YKKO (NOP)    MMR11006061138560007430606000000000000000   10300001F00104100000000001346000000000000     
100   95030301100196920000000000027500000000027500002000000010410406060746230021394773800606215714002139   1030000500030000   531120155802000045311201558GAMONE PWINT           PTN           MMR11006060746230021390606000000000000000   10300001 00104100000000001650000000000000     
100   62911028202207380000000000020000000000020000002000000010410406061002010002054773800606215716000205   1030000500030000   531120226311000045311202263OCEAN SUPER CENTER STJ PTN           MMR11006061002010002050606000000000000000   10300001 00104100000000001200000000000000     
100   95030301100196920000000000075500000000075500002000000010410406060739320005404773800606215714000540   1030000500030000   531120155807000045311201558GAMONE PWINT           PTN           MMR11006060739320005400606000000000000000   10300001 00104100000000004530000000000000     
100   62911028202668300000000000020000000000020000002000000010410406060257370042234773800606215709004223   1030000500030000   598320001403000015172200014MAX ENERGY             PTN           MMR11006060257370042230606000000000000000   10300001 00104100000000000600000000000000     
100   95030308100042590000000000050000000000050000002000000010410406060333220018164773800606215710001816   1030000500030000   598320001702000015172200017MAX ENERGY             PTN           MMR11006060333220018160606000000000000000   10300001 00104100000000001500000000000000     
100   95030308100042590000000000170000000000170000002000000010410406060333510018174773800606215710001817   1030000500030000   598320001702000015172200017MAX ENERGY             PTN           MMR11006060333510018170606000000000000000   10300001 00104100000000005100000000000000     
100   62911028202615590000000000057000000000057000002000000010410406052328050041414773800606215705004141   1030000500030000   598320001001000015172200010MAX ENERGY             PTN           MMR11006052328050041410606000000000000000   10300001 00104100000000001710000000000000     
100   62911028202520610000000000259600000000259600002000000010410406060623320001814773800606215712000181   1030000500030000   531120201801000085311202018STJ MANGO              PTN           MMR11006060623320001810606000000000000000   10300001 00104100000000015576000000000000     
100   95030325264619140000000000008100000000008100002000000010410406060611500000194773800606000348870007   1030000300030000   581200001506000000000001052CB BANK                YKKO (SGD)    MMR11006060611500000190606000000000000000   10300001F00104100000000000826000000000000     
100   62911028202668140000000000023206000000023206002000000010410406061015540002274773800606215716000227   1030000500030000   541120226809000045411202268CITY MART WAIZAYANDA   PTN           MMR11006061015540002270606000000000000000   10300001 00104100000000001392000000000000     
100   95050328384000040000000000056000000000056000002000000010410406061029270027821774610606215716002782   1030000500030000   598320002103000015172200021MAX ENERGY             PTN           MMR11006061029270027820606000000000000000   10300001 00104100000000006720000000000000     
100   62911028202523430000000000027950000000027950002000000010410406060532350003724773800606215712000372   1030000500030000   591220012101014405912200121SHWE OHH PHARMACY      PTN           MMR11006060532350003720606000000000000000   10300001 00104100000000001677000000000000     
100   62911028202523430000000000036000000000036000002000000010410406060636010027604773800606215713002760   1030000500030000   598320002103000015172200021MAX ENERGY             PTN           MMR11006060636010027600606000000000000000   10300001 00104100000000001080000000000000     
100   95030301100022270000000000021000000000021000002000000010410406052356010000674773800606215706000067   1030000500030000   598320002802000015172200028MAX ENERGY             PTN           MMR11006052356010000670606000000000000000   10300001 00104100000000000630000000000000     
100   95030353305053700000000000057936000000057936002000000010410406061011390003034773800606215716000303   1030000500030000   541120226203000045411202262CITY MART ZAWANA       PTN           MMR11006061011390003030606000000000000000   10300001 00104100000000003476000000000000     
100   62911028202696360000000000025000000000025000002000000010410406060639510041974773800606215713004197   1030000500030000   598320001303000015172200013MAX ENERGY             PTN           MMR11006060639510041970606000000000000000   10300001 00104100000000000750000000000000     
100   62911028202527490000000000100000000000100000002000000010410406060006270015224773800606215706001522   1030000500030000   806220195401000018062201954PIN LON HOSPITAL       PTN           MMR11006060006270015220606000000000000000   10300001 00104100000000006000000000000000     
100   62911028202147720000000000030000000000030000002000000010410406060011540027314773800606215706002731   1030000500030000   598320001602000015172200016MAX ENERGY             PTN           MMR11006060011540027310606000000000000000   10300001 00104100000000000900000000000000     
100   62443101006037900000000000009050000000009050002000000010410406060645080055425307280606000348874980   1030000300030000   541100000444000000000000319CB BANK                ONESTOP KITCH MMR11006060645080055420606000000000000000   10300001F00104100000000002263000000000000     
100   62443100322986690000000000030000000000030000002000000010410406060625290091649172280606215706009164   1030000600030000   554100001206315799420000658DENKO PATHEIN          PATHEIN.      MMR11006060625290091640606000000000000000   10300001 00104100000000003600000000000000     
100   95030317922148660000000000033000000000033000002000000010410406060557120248974773800606215705024897   1030000600030000   554100002085315799420000471DENKO BAHAN            YANGON        MMR11006060557120248970606000000000000000   10300001 00104100000000000990000000000000     
100   95050324850150480000000000070000000000070000002000000010410406060052450295631974340606215700029563   1030000600030000   554100001116315799420000574DENKO HLAE KUU         HLAE KUU      MMR11006060052450295630606000000000000000   10300001 00104100000000008400000000000000     
100   62443101037081820000000000050000000000050000002000000010410406060852400043727527490606215715004372   1030000500030000   598320001402000015172200014MAX ENERGY             PTN           MMR11006060852400043720606000000000000000   10300001 00104100000000006000000000000000     
100   62443101006526980000000000034000000000034000002000000010410406060358340098650371700606215703009865   1030000600030000   554100002321315799420000502DENKO DAGON HARBOUR    YANGON        MMR11006060358340098650606000000000000000   10300001 00104100000000004080000000000000     
100   95050322420590810000000000040000000000040000002000000010410406060115280672376421220606215701067237   1030000600030000   554100000952315799420000474DENKO N.DAGON - 1      YANGON        MMR11006060115280672370606000000000000000   10300001 00104100000000004800000000000000     
100   95030364439875210000000000028742000000028742002000000010410406060813450068524773800606215714006852   1030000500030000   598320001904000015172200019MAX ENERGY             PTN           MMR11006060813450068520606000000000000000   10300001 00104100000000000862000000000000     
100   62911028202537390000000000016000000000016000002000000010410406060805190184534773800606215708018453   1030000600030000   554100001011315799420000505DENKO HTAN TA PIN      YANGON        MMR11006060805190184530606000000000000000   10300001 00104100000000000480000000000000     
100   95050321232876860000000000098000000000098000002000000010410406060540230390457994720606215705039045   1030000600030000   554100001865315799420001235DENKO NAY PYI TAW 2    NAYPYITAW     MMR11006060540230390450606000000000000000   10300001 00104100000000011760000000000000     
100   62911028202491330000000000024780000000024780002000000010410406060653544942194773800606215713494219   1040001600030000   581420001162000000010000872Kin Sakura (Kyauk Kone ygn           MMR11006060653544942190606000000000000000   10300001F00104100000000000743000000000000     
100   62911028202287150000000000031680000000031680002000000010410406071324140005294773800607000748151076   1030000200030000   581288002231000008000005934KBZ BANK               PRIME GRILL   MMR11006071324140005290607000000000000000   10300001 00104100000000003231000000000000     
100   62911028202709150000000000009400000000009400002000000010410406071233530010164773800607000748129185   1030000200030000   541188001448000008000000401KBZ BANK               OCEAN SUPERCE MMR11006071233530010160607000000000000000   10300001 00104100000000000564000000000000     
100   95050318988837600000000000000980000000000980002000000010410406070830230023318617340607000007292690   1020000200030000   333400010001204104000000281Myanmar Soft-Gate Tech Yangon        MMR11006070830230023310607000000000000000   10300001F05104100000000000206000000000000     
100   62911028202130710000000000005000000000005000002000000010410406071833440019094773800607000748148925   1030000200030000   541188001311000008000000325KBZ BANK               CITY MART - A MMR11006071833440019090607000000000000000   10300001 00104100000000000300000000000000     
100   95050317942168830000000000002940000000002940002000000010410406071407363736969802980607000007294445   1020000200030000   333400010001204104000000281Myanmar Soft-Gate Tech Yangon        MMR11006071407363736960607000000000000000   10300001F05104100000000000617000000000000     
100   95050314567080940000000000000980000000000980002000000010410406071240151015981461180607000007294115   1020000200030000   333400010001204104000000281Myanmar Soft-Gate Tech Yangon        MMR11006071240151015980607000000000000000   10300001F05104100000000000206000000000000     
100   95030314001421450000000000040000000000040000002000000010410406050315450514154773800605215603051415   1030000600030000   554100001001315799420000498DENKO SHWE PYI THAR    YANGON        MMR11006050315450514150605000000000000000   10300001 00104100000000001200000000000000     
100   62443100303702210000000000574000000000574000002000000010410406050922150540208435950605215609054020   1030000600030000   554100001756315799420001137DENKO NORTH DAGON 2    YANGON        MMR11006050922150540200605000000000000000   10300001 00104100000000068880000000000000     
100   62911028202674810000000000002000000000002000002000000010410406060646410001074773800606215713000107   1030000500030000   541120227605000045411202276CITY MART ( 47 BRANCH  PTN           MMR11006060646410001070606000000000000000   10300001 00104100000000000120000000000000     
100   95050314893649800000000000100600000000100600002000000010410406070429535953535680620607000007290784   1030000200030000   333800010001203104000003327KBZPay                 Yangon        MMR11006070429535953530607000000000000000   10300001F05104100000000021126000000000000     
100   62911028202132460000000000023950000000023950002000000010410406060911580002964773800606215715000296   1030000500030000   591220014201014405912200142SHWE OHH PHARMACY      PTN           MMR11006060911580002960606000000000000000   10300001 00104100000000001437000000000000     
100   95050318242219520000000000000980000000000980002000000010410406070925215521328276960607000007293106   1020000200030000   333400010001204104000000281Myanmar Soft-Gate Tech Yangon        MMR11006070925215521320607000000000000000   10300001F05104100000000000206000000000000     
100   95050312498129060000000000009500000000009500002000000010410406071231160116266418630607000007294074   1030000200030000   3333000100012031040000040282C2P (Myanmar) Co.,Ltd Yangon        MMR11006071231160116260607000000000000000   10300001F05104100000000010000000000000000     
100   62443101028043880000000000046600000000046600002000000010410406070706183069801447390607184361318157   1030000900030000   541119001250190110000000955City Mart JS C 9       YANGONUT      MMR11006070706183069800607000000000000000   10300001F00104100000000011650000000000000     
100   62911028202161240000000000012000000000012000002000000010410406071015290134764773800607000748120149   1030000200030000   541188001023000008000000298KBZ BANK               CITY MART - M MMR11006071015290134760607000000000000000   10300001 00104100000000000720000000000000     
100   62443100303702210000000000055000000000055000002000000010410406050845480431132166400605215608043113   1030000600030000   554100001009315799420000504DENKO SOUTH DAGON      YANGON        MMR11006050845480431130605000000000000000   10300001 00104100000000006600000000000000     
100   62443101000669310000000000080000000000080000002000000010410406071213363149891120790607781431836157   1030000900030000   701119001579190110000001151Hotel Shwe Pyi Thar    MANDALAYHARSA MMR11006071213363149890607000000000000000   10300001F00104100000000034000000000000000     
100   62911028202218270000000000005900000000005900002000000010410406071651090201524773800607000748144744   1030000200030000   541188001080000008000000294KBZ BANK               CITY MART - J MMR11006071651090201520607000000000000000   10300001 00104100000000000354000000000000     
100   95050312020729360000000000010700000000010700002000000010410406070315093015429147010607201450909157   1030000900030000   541119001262190110000000958City Mart PLST C 5     YANGONMYOTHIT MMR11006070315093015420607000000000000000   10300001F00104100000000002675000000000000     
100   95050312119522920000000000151200000000151200002000000010410406070159132913423972320607000007289637   1030000900030000   333800010001202104000003301uab bank               Yangon        MMR11006070159132913420607000000000000000   10300001F05104100000000031752000000000000     
