100   95050311712422700000000000005000000000005000002000000010410406081603413341116187560608000007300601   1030000200030000   333800010001203104000003327KBZPay                 Yangon        MMR11006081603413341110608000000000000000   10300001F05104100000000001050000000000000     
100   95050315150726490000000000011900000000011900002000000010410406081124133379380768980608811541713158   1030000900030000   541119000115190110000000078Sein Gay Har Kan Thar  YANGONOKKALAP MMR11006081124133379380608000000000000000   10300001F00104100000000002975000000000000     
100   62443100317500820000000000150000000000150000002000000010410406081436320632481315210608000007300374   1030000200030000   333800010001203104000003327KBZPay                 Yangon        MMR11006081436320632480608000000000000000   10300001F05104100000000031500000000000000     
100   95050316377032610000000000190000000000190000002000000010410406080853042304803519640608000007298836   1030000200030000   333800010001203104000003327KBZPay                 Yangon        MMR11006080853042304800608000000000000000   10300001F05104100000000039900000000000000     
100   62911028202158290000000000035250000000035250002000000010410406080330153257624773800608889001015158   1030000900030000   591219000694190110000000525Shwe Ohh Pharmacy ST-2 YANGONAW      MMR11006080330153257620608000000000000000   10300001F00104100000000002115000000000000     
100   62911028202295310000000000128550000000128550002000000010410406081027313518604773800608170561625158   1030000300030000   555510124696104519000020166Makro Myanmar                        MMR11006081027313518600608000000000000000   10300001 00104100000000007713000000000000     
100   95050311382087030000000000001960000000001960002000000010410406081026445644424060150608000007299459   1020000200030000   333400010001204104000000281Myanmar Soft-Gate Tech Yangon        MMR11006081026445644420608000000000000000   10300001F05104100000000000412000000000000     
100   62443100301716860000000000300000000000300000002000000010410406080324425442777944650608000007295954   1030000200030000   333800010001203104000003327KBZPay                 Yangon        MMR11006080324425442770608000000000000000   10300001F05104100000000063000000000000000     
100   62911028202474000000000000185000000000185000002000000010410406061219120003854773800606215718000385   1030000500030000   531120201507000085311202015HAGL BLAZON            PTN           MMR11006061219120003850606000000000000000   10300001 00104100000000011100000000000000     
100   62911028202919290000000000040000000000040000002000000010410406061035270673354773800606215710067335   1030000600030000   554100000952315799420000474DENKO N.DAGON - 1      YANGON        MMR11006061035270673350606000000000000000   10300001 00104100000000001200000000000000     
100   95050319502933380000000000000980000000000980002000000010410406080424145414239646580608000007296498   1020000200030000   333400010001204104000000281Myanmar Soft-Gate Tech Yangon        MMR11006080424145414230608000000000000000   10300001F05104100000000000206000000000000     
100   95050311438762210000000000031000000000031000002000000010410406080424165416831299060608000007296495   1030000200030000   333800010001203104000003327KBZPay                 Yangon        MMR11006080424165416830608000000000000000   10300001F05104100000000006510000000000000     
100   95050324247403260000000000056000000000056000002000000010410406080501166227808894500608215912622780   1040001600030000   598320000854000000010000608Terminal Petrol Statio Yangon        MMR11006080501166227800608000000000000000   10300001F00104100000000006720000000000000     
100   95030393174848800000000000124350000000124350002000000010410406070705370011314773800607000349051189   1030000300030000   531100000752000000000000408CB BANK                CAPITAL HYPER MMR11006070705370011310607000000000000000   10300001F00104100000000007461000000000000     
100   95050314567080940000000000029500000000029500002000000010410406071148180000081801560607215818000008   1030000500030000   541120230212000045411202302CITY MART SUPERMARKET  PTN           MMR11006071148180000080607000000000000000   10300001 00104100000000007375000000000000     
100   95050312962334280000000000000980000000000980002000000010410406080807513751495037580608000007298475   1020000200030000   333400010001204104000000281Myanmar Soft-Gate Tech Yangon        MMR11006080807513751490608000000000000000   10300001F05104100000000000206000000000000     
100   95050318575030940000000000004900000000004900002000000010410406080207003700788952010608000007295453   1020000200030000   333400010001204104000000281Myanmar Soft-Gate Tech Yangon        MMR11006080207003700780608000000000000000   10300001F05104100000000001029000000000000     
100   95050312498129060000000000000980000000000980002000000010410406081427385738514620170608000007300346   1020000200030000   333400010001204104000000281Myanmar Soft-Gate Tech Yangon        MMR11006081427385738510608000000000000000   10300001F05104100000000000206000000000000     
100   62911028202520380000000000055929000000055929002000000010410406080554216261034773800608215912626103   1040001600030000   541120000557000000010000465Ocean Shwe Gone Daing  Yangon        MMR11006080554216261030608000000000000000   10300001F00104100000000003356000000000000     
100   95050319938772870000000000010000000000010000002000000010410406081015474547291350860608000007299397   1030000200030000   333800010001203104000003327KBZPay                 Yangon        MMR11006081015474547290608000000000000000   10300001F05104100000000002100000000000000     
100   95030367537085740000000000003920000000003920002000000010410406081113044304504773800608000007299674   1020000200030000   333400010001204104000000281Myanmar Soft-Gate Tech Yangon        MMR11006081113044304500608000000000000000   10300001F05104100000000000823000000000000     
100   95050316231020800000000000050400000000050400002000000010410406081223475347381740690608000007299903   1030000200030000   3333000100012031040000040282C2P (Myanmar) Co. Ltd Yangon        MMR11006081223475347380608000000000000000   10300001F05104100000000010000000000000000     
100   95050321848852460000000000038000000000038000002000000010410406080654496293726420990608215913629372   1040001600030000   598320000658000000010000527Shwe Taung Energy (YGN Yangon        MMR11006080654496293720608000000000000000   10300001F00104100000000004560000000000000     
100   62443101023815100000000000036388000000036388002000000010410406071148120001866759010607215818000186   1030000500030000   541120227504000045411202275CITY MART (AHLONE BRAN PTN           MMR11006071148120001860607000000000000000   10300001 00104100000000009097000000000000     
100   95030302100067550000000000073900000000073900002000000010410406080436523501254773800608106061101158   1030000300030000   555510124695104519000020166Makro Myanmar                        MMR11006080436523501250608000000000000000   10300001 00104100000000004434000000000000     
100   95050312298324450000000000000980000000000980002000000010410406080310564056570349210608000007295824   1020000200030000   333400010001204104000000281Myanmar Soft-Gate Tech Yangon        MMR11006080310564056570608000000000000000   10300001F05104100000000000206000000000000     
100   62443100373945130000000000020050000000020050002000000010410406071312550001804681050607215819000180   1030000500030000   541120203903000015411202039NEIGHBOURHOOD          PTN           MMR11006071312550001800607000000000000000   10300001 00104100000000005013000000000000     
100   95050318057347910000000000001960000000001960002000000010410406081507553755007925140608000007300457   1020000200030000   333400010001204104000000281Myanmar Soft-Gate Tech Yangon        MMR11006081507553755000608000000000000000   10300001F05104100000000000412000000000000     
100   62443100350052510000000000003300000000003300002000000010410406080309093909802001690608000007295800   1030000200030000   333300010001203104000003632Myanmar Tradenet Test  Yangon        MMR11006080309093909800608000000000000000   10300001F05104100000000010000000000000000     
100   95050329888918380000000000014668000000014668002000000010410406070921350000396624470607215815000039   1030000500030000   531120226304000045311202263OCEAN SUPER CENTER STJ PTN           MMR11006070921350000390607000000000000000   10300001 00104100000000003520000000000000     
100   62911028202449440000000000089977000000089977002000000010410406071006370000084773800607215816000008   1030000500030000   598320005702000015172200057MAX ENERGY             PTN           MMR11006071006370000080607000000000000000   10300001 00104100000000002699000000000000     
100   95050311836400730000000000004150000000004150002000000010410406081232033524705045650608574101949158   1030000500030000   555610119280104519000016348City Express MCS 45                  MMR11006081232033524700608000000000000000   10300001 00104100000000001038000000000000     
100   95050329252108030000000000017784000000017784002000000010410406061421350673661361590606215714067366   1030000600030000   554100000952315799420000474DENKO N.DAGON - 1      YANGON        MMR11006061421350673660606000000000000000   10300001 00104100000000002134000000000000     
100   95030396594260770000000000049000000000049000002000000010410406071037160108274773800607215810010827   1030000600030000   554100001218315799420000670DENKO MAWLAMYAING      MON STATE.    MMR11006071037160108270607000000000000000   10300001 00104100000000001470000000000000     
100   95050320531117320000000000200000000000200000002000000010410406070945050543312979120607215809054331   1030000600030000   554100001756315799420001137DENKO NORTH DAGON 2    YANGON        MMR11006070945050543310607000000000000000   10300001 00104100000000024000000000000000     
100   95050311906097980000000000048320000000048320002000000010410406081427250009418682940608000748184971   1030000200030000   541188001487000008000000399KBZ BANK               OCEAN SUPERCE MMR11006081427250009410608000000000000000   10300001 00104100000000012080000000000000     
100   95050319286546940000000000030600000000030600002000000010410406070212580009480993880607215808000948   1030000500030000   591220132901008605912201329THEIK DI WIN SHOP      PTN           MMR11006070212580009480607000000000000000   10300001 00104100000000007344000000000000     
100   62911028202665170000000000028168000000028168002000000010410406070523460003184773800607215811000318   1030000500030000   541120226201000045411202262CITY MART ZAWANA       PTN           MMR11006070523460003180607000000000000000   10300001 00104100000000001690000000000000     
100   95030301100120850000000000012237000000012237002000000010410406070608050003484773800607215812000348   1030000500030000   531120226307000045311202263OCEAN SUPER CENTER STJ PTN           MMR11006070608050003480607000000000000000   10300001 00104100000000000734000000000000     
100   95050313102162270000000000017200000000017200002000000010410406071147340003576844110607215818000357   1030000500030000   541120226201000045411202262CITY MART ZAWANA       PTN           MMR11006071147340003570607000000000000000   10300001 00104100000000004300000000000000     
100   95050312498129060000000000002940000000002940002000000010410406080308263826197044240608000007295801   1020000200030000   333400010001204104000000281Myanmar Soft-Gate Tech Yangon        MMR11006080308263826190608000000000000000   10300001F05104100000000000617000000000000     
100   62443100301716860000000000100000000000100000002000000010410406080327205720811164520608000007295988   1030000200030000   333800010001203104000003327KBZPay                 Yangon        MMR11006080327205720810608000000000000000   10300001F05104100000000021000000000000000     
100   95050310332595380000000000002940000000002940002000000010410406080305173517438781820608000007295766   1020000200030000   333400010001204104000000281Myanmar Soft-Gate Tech Yangon        MMR11006080305173517430608000000000000000   10300001F05104100000000000617000000000000     
100   95050322104201170000000000020000000000020000002000000010410406080715384538100115790608000007298057   1030000200030000   333800010001203104000003327KBZPay                 Yangon        MMR11006080715384538100608000000000000000   10300001F05104100000000004200000000000000     
100   95050316601084530000000000000980000000000980002000000010410406081415394539681825780608000007300294   1020000200030000   333400010001204104000000281Myanmar Soft-Gate Tech Yangon        MMR11006081415394539680608000000000000000   10300001F05104100000000000206000000000000     
100   62911028202213890000000000001500000000001500002000000010410406080513483503134773800608235421149158   1030000300030000   444410125393104519000021220Myanmar Bakery CoLtd                 MMR11006080513483503130608000000000000000   10300001 00104100000000000153000000000000     
100   62443100333488440000000000013000000000013000002000000010410406080309423496703654180608812380923158   1030000500030000   555610121914104519000018359City Express MCS 114                 MMR11006080309423496700608000000000000000   10300001 00104100000000003250000000000000     
100   95050312224678430000000000002940000000002940002000000010410406081208563856138946300608000007299873   1020000200030000   333400010001204104000000281Myanmar Soft-Gate Tech Yangon        MMR11006081208563856130608000000000000000   10300001F05104100000000000617000000000000     
100   62443100390038980000000000040212000000040212002000000010410406071309530007927986020607215819000792   1030000500030000   581220024101000015812200241SHWE LAR HOT POT       PTN           MMR11006071309530007920607000000000000000   10300001 00104100000000017090000000000000     
100   62911028202530930000000000024700000000024700002000000010410406071136580023134773800607215818002313   1030000500030000   581220146401013205812201464THAI 47 (HELPIN BRANCH PTN           MMR11006071136580023130607000000000000000   10300001 00104100000000002519000000000000     
100   95050329352979980000000000106200000000106200002000000010410406070623570002433865740607215812000243   1030000500030000   569120159601019505691201596MK FASHION SHOP        PTN           MMR11006070623570002430607000000000000000   10300001 00104100000000025488000000000000     
100   95030374458345210000000000058300000000058300002000000010410406070654280003114773800607215813000311   1030000500030000   591220014201014405912200142SHWE OHH PHARMACY      PTN           MMR11006070654280003110607000000000000000   10300001 00104100000000003498000000000000     
100   95050325273694860000000000017400000000017400002000000010410406070841440002213830080607215815000221   1030000500030000   541120227604000045411202276CITY MART ( 47 BRANCH  PTN           MMR11006070841440002210607000000000000000   10300001 00104100000000004350000000000000     
100   62911028202593140000000000012800000000012800002000000010410406071257270001554773800607215819000155   1030000500030000   541120227503000045411202275CITY MART (AHLONE BRAN PTN           MMR11006071257270001550607000000000000000   10300001 00104100000000000768000000000000     
100   95050315439834520000000000006000000000006000002000000010410406071404190004481540560607000349106690   1030000300030000   531100000568000000000000376CB BANK                CAPITAL HYPER MMR11006071404190004480607000000000000000   10300001F00104100000000001440000000000000     
100   95050320624349010000000000050000000000050000002000000010410406070754170029007475440607215814002900   1030000500030000   598320002102000015172200021MAX ENERGY             PTN           MMR11006070754170029000607000000000000000   10300001 00104100000000006000000000000000     
100   62443100301716860000000000300000000000300000002000000010410406080326315631796207060608000007295974   1030000200030000   333800010001203104000003327KBZPay                 Yangon        MMR11006080326315631790608000000000000000   10300001F05104100000000063000000000000000     
100   62911028202473430000000000075000000000075000002000000010410406080425266210314773800608215911621031   1040001600030000   591220000296000000010000284Shwe Ohh Pharmacy (Lan Yangon        MMR11006080425266210310608000000000000000   10300001F00104100000000004500000000000000     
100   62911028202349600000000000005000000000005000002000000010410406081404193419794773800608000007300240   1030000200030000   3338000100012031040000040022C2P (Myanmar) Co. Ltd Yangon        MMR11006081404193419790608000000000000000   10300001F05104100000000001050000000000000     
100   62443100394939820000000000024000000000024000002000000010410406081116513520877123620608302451734158   1030000300030000   555510124688104519000020166Makro Myanmar                        MMR11006081116513520870608000000000000000   10300001 00104100000000005760000000000000     
100   62443100301716860000000000300000000000300000002000000010410406080325415541779597130608000007295964   1030000200030000   333800010001203104000003327KBZPay                 Yangon        MMR11006080325415541770608000000000000000   10300001F05104100000000063000000000000000     
100   95050312298324450000000000000980000000000980002000000010410406080317104710998370130608000007295871   1020000200030000   333400010001204104000000281Myanmar Soft-Gate Tech Yangon        MMR11006080317104710990608000000000000000   10300001F05104100000000000206000000000000     
100   62443100306698200000000000188600000000188600002000000010410406080336446189571419810608215910618957   1040001600030000   591220000278000000010000266Shwe Ohh Pharmacy (Bah Yangon        MMR11006080336446189570608000000000000000   10300001F00104100000000045264000000000000     
100   62911028202416760000000000105000000000105000002000000010410406080058596114004773800608215907611400   1040001600030000   598320000854000000010000608Terminal Petrol Statio Yangon        MMR11006080058596114000608000000000000000   10300001F00104100000000003150000000000000     
100   62911028202221220000000000010000000000010000002000000010410406062252480028824773800607215805002882   1030000500030000   598320001601000015172200016MAX ENERGY             PTN           MMR11006062252480028820607000000000000000   10300001 00104100000000000300000000000000     
100   62911028202530930000000000097000000000097000002000000010410406070941090028834773800607215816002883   1030000500030000   598320001602000015172200016MAX ENERGY             PTN           MMR11006070941090028830607000000000000000   10300001 00104100000000002910000000000000     
100   95050313699604770000000000002500000000002500002000000010410406070416320001438121020607215810000143   1030000500030000   541120226407000045411202264MARKET PLACE MYANMARPL PTN           MMR11006070416320001430607000000000000000   10300001 00104100000000000625000000000000     
100   95050322990383760000000000005250000000005250002000000010410406070843100000775482570607215815000077   1030000500030000   541120203706000015411202037CITY MART SUPERMARKET  PTN           MMR11006070843100000770607000000000000000   10300001 00104100000000001313000000000000     
100   62911028202045260000000000013000000000013000002000000010410406070828040000274773800607215814000027   1030000500030000   541120229201000045411202292CITY EXPRESS (MCS - 07 PTN           MMR11006070828040000270607000000000000000   10300001 00104100000000000780000000000000     
100   95050317072727910000000000006550000000006550002000000010410406070959120009064305010607000349075896   1030000300030000   531100000610000000000000408CB BANK                CAPITAL HYPER MMR11006070959120009060607000000000000000   10300001F00104100000000001572000000000000     
100   62911028202260160000000000107245000000107245002000000010410406070943270003594773800607215816000359   1030000500030000   541120226203000045411202262CITY MART ZAWANA       PTN           MMR11006070943270003590607000000000000000   10300001 00104100000000006435000000000000     
100   62911028202471600000000000125500000000125500002000000010410406070847030000784773800607215815000078   1030000500030000   541120203706000015411202037CITY MART SUPERMARKET  PTN           MMR11006070847030000780607000000000000000   10300001 00104100000000007530000000000000     
100   62911028202207380000000000018850000000018850002000000010410406080757056320424773800608215914632042   1040001600030000   591220000296000000010000284Shwe Ohh Pharmacy (Lan Yangon        MMR11006080757056320420608000000000000000   10300001F00104100000000001131000000000000     
100   62911028202133940000000000039600000000039600002000000010410406071149000000544773800607215818000054   1030000500030000   541120230005000045411202300MARKET PLACE BY CITY M PTN           MMR11006071149000000540607000000000000000   10300001 00104100000000002376000000000000     
100   95050322343585250000000000050000000000050000002000000010410406080607383738297527240608000007297430   1030000200030000   333800010001203104000003327KBZPay                 Yangon        MMR11006080607383738290608000000000000000   10300001F05104100000000010500000000000000     
100   62911028202143430000000000040000000000040000002000000010410406080330326187104773800608215910618710   1040001600030000   598320000659000000010000528Shwe Taung Energy (YGN Yangon        MMR11006080330326187100608000000000000000   10300001F00104100000000001200000000000000     
100   62911028202464100000000000062000000000062000002000000010410406080705146298014773800608215914629801   1040001600030000   569120000925000000010000672Generation Concept Sto Ygn           MMR11006080705146298010608000000000000000   10300001F00104100000000003720000000000000     
100   95050316901496590000000000001800000000001800002000000010410406070931070003827766380607215816000382   1030000500030000   541120045801009205411200458126 STORE              PTN           MMR11006070931070003820607000000000000000   10300001 00104100000000000450000000000000     
100   95050316785465380000000000000980000000000980002000000010410406081206443644517293810608000007299861   1020000200030000   333400010001204104000000281Myanmar Soft-Gate Tech Yangon        MMR11006081206443644510608000000000000000   10300001F05104100000000000206000000000000     
100   95050312568198510000000000002000000000002000002000000010410406081111024102672166170608000007299664   1030000200030000   3338000100012031040000040022C2P (Myanmar) Co. Ltd Yangon        MMR11006081111024102670608000000000000000   10300001F05104100000000000420000000000000     
100   62443100313002190000000000008900000000008900002000000010410406070836350000532262690607215815000053   1030000500030000   531120226707000045311202267OCEAN NORTH POINT      PTN           MMR11006070836350000530607000000000000000   10300001 00104100000000002136000000000000     
100   62443101028043880000000000094650000000094650002000000010410406070314520000618650240607000349019276   1030000300030000   541100000201000000000000102CB BANK                MAKRO MYANMAR MMR11006070314520000610607000000000000000   10300001F00104100000000023663000000000000     
100   62443100313002190000000000004800000000004800002000000010410406070702530001233695540607215813000123   1030000500030000   531120226738000045311202267OCEAN NORTH POINT      PTN           MMR11006070702530001230607000000000000000   10300001 00104100000000001152000000000000     
100   95050316377032610000000000021000000000021000002000000010410406070757550006970695310607215814000697   1030000500030000   573220038801000015732200388REMAX                  PTN           MMR11006070757550006970607000000000000000   10300001 00104100000000005040000000000000     
100   62443100359661970000000000042600000000042600002000000010410406070903470000146794670607215815000014   1030000500030000   541120230002000045411202300MARKET PLACE BY CITY M PTN           MMR11006070903470000140607000000000000000   10300001 00104100000000010650000000000000     
100   62911028202524260000000000048200000000048200002000000010410406071049240002194773800607215817000219   1030000500030000   591220010901014405912200109SHWE OHH PHARMACY      PTN           MMR11006071049240002190607000000000000000   10300001 00104100000000002892000000000000     
100   62911028202248050000000000046000000000046000002000000010410406071228010367214773800607215812036721   1030000600030000   554100001155315799420000607DENKO NPT 1            NAYPYITAW.    MMR11006071228010367210607000000000000000   10300001 00104100000000001380000000000000     
100   62911028202668300000000000010000000000010000002000000010410406070230030040464773800607215809004046   1030000500030000   598320001302000015172200013MAX ENERGY             PTN           MMR11006070230030040460607000000000000000   10300001 00104100000000000300000000000000     
100   95050316785465380000000000000980000000000980002000000010410406081327345734898605910608000007300119   1020000200030000   333400010001204104000000281Myanmar Soft-Gate Tech Yangon        MMR11006081327345734890608000000000000000   10300001F05104100000000000206000000000000     
100   62443100372718280000000000020000000000020000002000000010410406080107506118632852650608215908611863   1040001600030000   598320001170000000010000527Shwe Taung Energy (YGN Yangon        MMR11006080107506118630608000000000000000   10300001F00104100000000002400000000000000     
100   95050312498129060000000000002940000000002940002000000010410406081306203620256613040608000007300037   1020000200030000   333400010001204104000000281Myanmar Soft-Gate Tech Yangon        MMR11006081306203620250608000000000000000   10300001F05104100000000000617000000000000     
100   95050317084233280000000000024000000000024000002000000010410406080619464946251087500608000007297536   1030000200030000   333800010001203104000003327KBZPay                 Yangon        MMR11006080619464946250608000000000000000   10300001F05104100000000005040000000000000     
100   62911028202595200000000000150000000000150000002000000010410406080428303500834773800608085571021158   1030000300030000   555510124358104519000020166Makro Myanmar                        MMR11006080428303500830608000000000000000   10300001 00104100000000009000000000000000     
100   95030301954234130000000000030000000000030000002000000010410406080752052205074773800608000007298345   1030000200030000   333800010001203104000003327KBZPay                 Yangon        MMR11006080752052205070608000000000000000   10300001F05104100000000006300000000000000     
100   95050319502933380000000000000980000000000980002000000010410406080453152315213923260608000007296753   1020000200030000   333400010001204104000000281Myanmar Soft-Gate Tech Yangon        MMR11006080453152315210608000000000000000   10300001F05104100000000000206000000000000     
100   95050327192897240000000000019600000000019600002000000010410406080211404140890604500608000007295470   1020000200030000   333400010001204104000000281Myanmar Soft-Gate Tech Yangon        MMR11006080211404140890608000000000000000   10300001F05104100000000004116000000000000     
100   62443100306416880000000000023805000000023805002000000010410406071217450031902773280607215818003190   1030000500030000   598320002001000015172200020MAX ENERGY             PTN           MMR11006071217450031900607000000000000000   10300001 00104100000000002857000000000000     
100   62911028202108460000000000048000000000048000002000000010410406070157220038914773800607215808003891   1030000500030000   598320001104000015172200011MAX ENERGY             PTN           MMR11006070157220038910607000000000000000   10300001 00104100000000001440000000000000     
100   62443100358839880000000000093000000000093000002000000010410406070212460033619574830607215808003361   1030000500030000   598320002702000015172200027MAX ENERGY             PTN           MMR11006070212460033610607000000000000000   10300001 00104100000000011160000000000000     
100   62911028202231380000000000035000000000035000002000000010410406070840060042974773800607215815004297   1030000500030000   598320001204000015172200012MAX ENERGY             PTN           MMR11006070840060042970607000000000000000   10300001 00104100000000001050000000000000     
100   95050315245968360000000000070000000000070000002000000010410406070233260366455745520607215802036645   1030000600030000   554100001155315799420000607DENKO NPT 1            NAYPYITAW.    MMR11006070233260366450607000000000000000   10300001 00104100000000008400000000000000     
100   62911028202130710000000000008700000000008700002000000010410406071829500160894773800607000748148800   1030000200030000   541188001306000008000000325KBZ BANK               CITY MART - A MMR11006071829500160890607000000000000000   10300001 00104100000000000522000000000000     
100   62911028202527800000000000026000000000026000002000000010410406071036530030174773800607215817003017   1030000500030000   598320001603000015172200016MAX ENERGY             PTN           MMR11006071036530030170607000000000000000   10300001 00104100000000000780000000000000     
100   62443101053241940000000000043650000000043650002000000010410406081509260150108817470608000748187455   1030000200030000   541188001056000008000000314KBZ BANK               MARKETPLACE - MMR11006081509260150100608000000000000000   10300001 00104100000000010913000000000000     
100   95050312298324450000000000001960000000001960002000000010410406080315134513106959140608000007295857   1020000200030000   333400010001204104000000281Myanmar Soft-Gate Tech Yangon        MMR11006080315134513100608000000000000000   10300001F05104100000000000412000000000000     
100   95030390626214130000000000031000000000031000002000000010410406061250330161114773800606215712016111   1030000600030000   554100002324315799420000481DENKO NORTH OKKALAPA   YANGON        MMR11006061250330161110606000000000000000   10300001 00104100000000000930000000000000     
100   95030318100002710000000000002940000000002940002000000010410406080844371437594773800608000007298785   1020000200030000   333400010001204104000000281Myanmar Soft-Gate Tech Yangon        MMR11006080844371437590608000000000000000   10300001F05104100000000000617000000000000     
100   95050312695033440000000000000980000000000980002000000010410406080000003000872682460608000007295145   1020000200030000   333400010001204104000000281Myanmar Soft-Gate Tech Yangon        MMR11006080000003000870608000000000000000   10300001F05104100000000000206000000000000     
100   62911028202170490000000000026000000000026000002000000010410406081001323357814773800608520311632158   1030000900030000   541119000158190110000000084Pro (1) Global (Pazund YANGONARTAUNG MMR11006081001323357810608000000000000000   10300001F00104100000000001560000000000000     
100   62443101000669310000000000080000000000080000002000000010410406081452003417261230110608775222100158   1030000900030000   701119001579190110000001151Hotel Shwe Pyi Thar    MANDALAYHARSA MMR11006081452003417260608000000000000000   10300001F00104100000000034000000000000000     
100   62443100336591330000000000202350000000202350002000000010410406081026323364335627540608898561632158   1030000900030000   541119001163190110000000930OCEAN HTY C 13         YANGONTHARYA  MMR11006081026323364330608000000000000000   10300001F00104100000000050588000000000000     
100   95050325273694860000000000009300000000009300002000000010410406070833000000466879770607215815000046   1030000500030000   541120227608000045411202276CITY MART ( 47 BRANCH  PTN           MMR11006070833000000460607000000000000000   10300001 00104100000000002325000000000000     
100   62443101065883000000000000020150000000020150002000000010410406080933100296333398890608000748165093   1030000200030000   541188001012000008000000008KBZ BANK               MARKETPLACE - MMR11006080933100296330608000000000000000   10300001 00104100000000005038000000000000     
100   62911028202520380000000000003600000000003600002000000010410406081230030038514773800608000748176895   1030000200030000   541188001188000008000000383KBZ BANK               OCEAN SUPER C MMR11006081230030038510608000000000000000   10300001 00104100000000000216000000000000     
100   95050315743141220000000000000980000000000980002000000010410406080833300330151150730608000007298705   1020000200030000   333400010001204104000000281Myanmar Soft-Gate Tech Yangon        MMR11006080833300330150608000000000000000   10300001F05104100000000000206000000000000     
100   62911028202150190000000000019228000000019228002000000010410406080511010035774773800608000748173445   1030000200030000   541188001627000008000000008KBZ BANK               MARKETPLACE - MMR11006080511010035770608000000000000000   10300001 00104100000000001154000000000000     
100   95050321188471220000000000011750000000011750002000000010410406081102560018850873580608000748170671   1030000200030000   541188001479000008000000399KBZ BANK               OCEAN SUPERCE MMR11006081102560018850608000000000000000   10300001 00104100000000002938000000000000     
100   62911028202161240000000000039500000000039500002000000010410406081029290095724773800608000748168306   1030000200030000   541188001022000008000000298KBZ BANK               CITY MART - M MMR11006081029290095720608000000000000000   10300001 00104100000000002370000000000000     
100   62911028202651050000000000233805000000233805002000000010410406081142440252004773800608000748173595   1030000200030000   541188001003000008000000008KBZ BANK               MARKETPLACE - MMR11006081142440252000608000000000000000   10300001 00104100000000014028000000000000     
100   62911028202651050000000000050295000000050295002000000010410406081144010252014773800608000748173679   1030000200030000   541188001003000008000000008KBZ BANK               MARKETPLACE - MMR11006081144010252010608000000000000000   10300001 00104100000000003018000000000000     
100   95050314996291580000000000000980000000000980002000000010410406080629195919942144300608000007297622   1020000200030000   333400010001204104000000281Myanmar Soft-Gate Tech Yangon        MMR11006080629195919940608000000000000000   10300001F05104100000000000206000000000000     
100   95050318214455130000000000002940000000002940002000000010410406080642261226390321630608000007297762   1020000200030000   333400010001204104000000281Myanmar Soft-Gate Tech Yangon        MMR11006080642261226390608000000000000000   10300001F05104100000000000617000000000000     
100   62911028202207380000000000005400000000005400002000000010410406080800226321734773800608215915632173   1040001600030000   591220000296000000010000284Shwe Ohh Pharmacy (Lan Yangon        MMR11006080800226321730608000000000000000   10300001F00104100000000000324000000000000     
100   95050312695033440000000000002940000000002940002000000010410406081405543554830173300608000007300249   1020000200030000   333400010001204104000000281Myanmar Soft-Gate Tech Yangon        MMR11006081405543554830608000000000000000   10300001F05104100000000000617000000000000     
100   95030305700676370000000000040000000000040000002000000010410406070241360218334773800607215802021833   1030000600030000   554100001212315799420000664DENKO TA TAR OO        TA TAR OO     MMR11006070241360218330607000000000000000   10300001 00104100000000001200000000000000     
100   62443100333488440000000000024000000000024000002000000010410406070858010042993064220607215815004299   1030000500030000   598320001303000015172200013MAX ENERGY             PTN           MMR11006070858010042990607000000000000000   10300001 00104100000000002880000000000000     
100   62443100315110470000000000028000000000028000002000000010410406071220230035328156210607215818003532   1030000500030000   598320002701000015172200027MAX ENERGY             PTN           MMR11006071220230035320607000000000000000   10300001 00104100000000003360000000000000     
100   95050324154190880000000000016000000000016000002000000010410406070945070031499503960607215816003149   1030000500030000   598320002104000015172200021MAX ENERGY             PTN           MMR11006070945070031490607000000000000000   10300001 00104100000000001920000000000000     
100   95030327835334700000000000003248000000003248002000000010410406081855070160804773800608000748196767   1030000200030000   541188001242000008000000323KBZ BANK               CITY MART - I MMR11006081855070160800608000000000000000   10300001 00104100000000000195000000000000     
100   62911028202170490000000000003650000000003650002000000010410406081424020216664773800608000748184681   1030000200030000   541188001054000008000000314KBZ BANK               MARKETPLACE - MMR11006081424020216660608000000000000000   10300001 00104100000000000219000000000000     
100   95050311184380560000000000002940000000002940002000000010410406080830340034875852890608000007298672   1020000200030000   333400010001204104000000281Myanmar Soft-Gate Tech Yangon        MMR11006080830340034870608000000000000000   10300001F05104100000000000617000000000000     
100   95050315259054570000000000000980000000000980002000000010410406080535200520967362760608000007297156   1020000200030000   333400010001204104000000281Myanmar Soft-Gate Tech Yangon        MMR11006080535200520960608000000000000000   10300001F05104100000000000206000000000000     
100   95050321188471220000000000009450000000009450002000000010410406081046100019405369890608000748169440   1030000200030000   541188001496000008000000399KBZ BANK               OCEAN SUPERCE MMR11006081046100019400608000000000000000   10300001 00104100000000002363000000000000     
100   95050312224678430000000000000980000000000980002000000010410406080233150315113824370608000007295553   1020000200030000   333400010001204104000000281Myanmar Soft-Gate Tech Yangon        MMR11006080233150315110608000000000000000   10300001F05104100000000000206000000000000     
100   95050313732480420000000000001960000000001960002000000010410406080632550255697442150608000007297670   1020000200030000   333400010001204104000000281Myanmar Soft-Gate Tech Yangon        MMR11006080632550255690608000000000000000   10300001F05104100000000000412000000000000     
100   62911028202421040000000000020650000000020650002000000010410406080939223352464773800608230091622158   1030000900030000   541119001156190110000000930OCEAN HTY C 6          YANGONTHARYA  MMR11006080939223352460608000000000000000   10300001F00104100000000001239000000000000     
100   95050313836159580000000000030200000000030200002000000010410406080439190919061043770608000007296629   1030000200030000   333800010001203104000003327KBZPay                 Yangon        MMR11006080439190919060608000000000000000   10300001F05104100000000006342000000000000     
100   95050316601084530000000000000980000000000980002000000010410406080359482948141966040608000007296296   1020000200030000   333400010001204104000000281Myanmar Soft-Gate Tech Yangon        MMR11006080359482948140608000000000000000   10300001F05104100000000000206000000000000     
100   95050322312885760000000000003000000000003000002000000010410406080438030803502696250608000007296588   1030000200030000   333800010001203104000003327KBZPay                 Yangon        MMR11006080438030803500608000000000000000   10300001F05104100000000000630000000000000     
100   95050319468370810000000000000980000000000980002000000010410406081349091909503478270608000007300187   1020000200030000   333400010001204104000000281Myanmar Soft-Gate Tech Yangon        MMR11006081349091909500608000000000000000   10300001F05104100000000000206000000000000     
100   95050314570621780000000000004900000000004900002000000010410406081059562956649102700608000007299610   1020000200030000   333400010001204104000000281Myanmar Soft-Gate Tech Yangon        MMR11006081059562956640608000000000000000   10300001F05104100000000001029000000000000     
100   95050310281229490000000000100000000000100000002000000010410406081334590459006868330608000007300129   1030000200030000   333800010001203104000003327KBZPay                 Yangon        MMR11006081334590459000608000000000000000   10300001F05104100000000021000000000000000     
100   95050321057500320000000000004900000000004900002000000010410406080637260726055108890608000007297711   1020000200030000   333400010001204104000000281Myanmar Soft-Gate Tech Yangon        MMR11006080637260726050608000000000000000   10300001F05104100000000001029000000000000     
100   95050314557307430000000000001960000000001960002000000010410406080257562756003569080608000007295701   1020000200030000   333400010001204104000000281Myanmar Soft-Gate Tech Yangon        MMR11006080257562756000608000000000000000   10300001F05104100000000000412000000000000     
100   62443100350052510000000000083600000000083600002000000010410406080337570757092987190608000007296078   1030000200030000   333300010001203104000003632Myanmar Tradenet Test  Yangon        MMR11006080337570757090608000000000000000   10300001F05104100000000010000000000000000     
100   95050316442084030000000000002940000000002940002000000010410406071647241724548490880608000007294896   1020000200030000   333400010001204104000000281Myanmar Soft-Gate Tech Yangon        MMR11006071647241724540608000000000000000   10300001F05104100000000000617000000000000     
100   95050311184380560000000000002940000000002940002000000010410406080845151515666739510608000007298786   1020000200030000   333400010001204104000000281Myanmar Soft-Gate Tech Yangon        MMR11006080845151515660608000000000000000   10300001F05104100000000000617000000000000     
100   62911028202471600000000000019900000000019900002000000010410406080518233282394773800608221481123158   1030000900030000   591219000504190110000000351Shwe Ohh Pharmacy - (Y YANGONAW      MMR11006080518233282390608000000000000000   10300001F00104100000000001194000000000000     
100   95030393174848800000000000057112000000057112002000000010410406080402583499654773800608027331036158   1030000500030000   555610110561104519000009163City Mart Ayeyarwon Br nch           MMR11006080402583499650608000000000000000   10300001 00104100000000003427000000000000     
100   95030367537085740000000000000980000000000980002000000010410406080539150915704773800608000007297187   1020000200030000   333400010001204104000000281Myanmar Soft-Gate Tech Yangon        MMR11006080539150915700608000000000000000   10300001F05104100000000000206000000000000     
100   95030338921533090000000000008950000000008950002000000010410406081043003368444773800608141131700158   1030000900030000   541119000165190110000000085SeinGayHar (Dagon Cent YANGONUNG     MMR11006081043003368440608000000000000000   10300001F00104100000000000537000000000000     
100   62911028202790560000000000025000000000025000002000000010410406081224033393044773800608602541803158   1030000900030000   541119000113190110000000077Sein Gay Har Chinatown YANGON        MMR11006081224033393040608000000000000000   10300001F00104100000000001500000000000000     
100   95050314775367220000000000013000000000013000002000000010410406080836430643202718120608000007298734   1030000200030000   333800010001203104000003327KBZPay                 Yangon        MMR11006080836430643200608000000000000000   10300001F05104100000000002730000000000000     
100   95050314570621780000000000002940000000002940002000000010410406081201073107900598780608000007299843   1020000200030000   333400010001204104000000281Myanmar Soft-Gate Tech Yangon        MMR11006081201073107900608000000000000000   10300001F05104100000000000617000000000000     
100   62911028202120400000000000020000000000020000002000000010410406080431573271174773800608617011157158   1030000900030000   554119000345190110000000212New Day Energy PZD     YANGONAUNG    MMR11006080431573271170608000000000000000   10300001F00104100000000000600000000000000     
100   62911028202485150000000000007400000000007400002000000010410406080615033296524773800608027451203158   1030000900030000   541119000112190110000000077Sein Gay Har Chinatown YANGON        MMR11006080615033296520608000000000000000   10300001F00104100000000000444000000000000     
100   95050311959900780000000000002940000000002940002000000010410406080837380738190469960608000007298740   1020000200030000   333400010001204104000000281Myanmar Soft-Gate Tech Yangon        MMR11006080837380738190608000000000000000   10300001F05104100000000000617000000000000     
100   95050311931431670000000000009800000000009800002000000010410406081150052005522336370608000007299801   1020000200030000   333400010001204104000000281Myanmar Soft-Gate Tech Yangon        MMR11006081150052005520608000000000000000   10300001F05104100000000002058000000000000     
100   95050310409767690000000000001960000000001960002000000010410406080344181418379001460608000007296148   1020000200030000   333400010001204104000000281Myanmar Soft-Gate Tech Yangon        MMR11006080344181418370608000000000000000   10300001F05104100000000000412000000000000     
100   95050316530487400000000000097000000000097000002000000010410406080939520952515166410608000007299168   1030000200030000   333800010001203104000003327KBZPay                 Yangon        MMR11006080939520952510608000000000000000   10300001F05104100000000020370000000000000     
100   62443100389971990000000000200000000000200000002000000010410406081441511151689577630608000007300393   1030000200030000   333800010001203104000003327KBZPay                 Yangon        MMR11006081441511151680608000000000000000   10300001F05104100000000042000000000000000     
100   95050311419479170000000000001960000000001960002000000010410406080454232423755334240608000007296762   1020000200030000   333400010001204104000000281Myanmar Soft-Gate Tech Yangon        MMR11006080454232423750608000000000000000   10300001F05104100000000000412000000000000     
100   95050326393773020000000000002940000000002940002000000010410406080057222722526242720608000007295228   1020000200030000   333400010001204104000000281Myanmar Soft-Gate Tech Yangon        MMR11006080057222722520608000000000000000   10300001F05104100000000000617000000000000     
100   95050319220344710000000000015000000000015000002000000010410406080150442044650689600608000007295381   1030000900030000   333400010001202104000002022ACS                    Yangon        MMR11006080150442044650608000000000000000   10300001F05104100000000003150000000000000     
100   62911028202397530000000000053575000000053575002000000010410406080628543301074773800608309581254158   1030000900030000   541119001305190110000000968Ocean Mingalar MDY C 1 MANDALAYHARSI MMR11006080628543301070608000000000000000   10300001F00104100000000003215000000000000     
100   62911028202530930000000000013000000000013000002000000010410406080732583319614773800608383021458158   1030000900030000   581219000423190110000000284BCC (SYS)              YANGON        MMR11006080732583319610608000000000000000   10300001F00104100000000001326000000000000     
100   62911028202280200000000000049265000000049265002000000010410406080847533339984773800608544171553158   1030000900030000   541119001195190110000000942City Mart HDC C 10     YANGONUT      MMR11006080847533339980608000000000000000   10300001F00104100000000002956000000000000     
100   62911028202074950000000000012567000000012567002000000010410406080451463502304773800608189241135158   1030000500030000   555610112256104519000010487Ocean Super Center St  ohn           MMR11006080451463502300608000000000000000   10300001 00104100000000000754000000000000     
100   95030301100124570000000000300000000000300000002000000010410406080143281328174773800608000007295366   1030000200030000   333800010001203104000003327KBZPay                 Yangon        MMR11006080143281328170608000000000000000   10300001F05104100000000063000000000000000     
100   95050310427855490000000000001960000000001960002000000010410406081457372737796272660608000007300434   1020000200030000   333400010001204104000000281Myanmar Soft-Gate Tech Yangon        MMR11006081457372737790608000000000000000   10300001F05104100000000000412000000000000     
100   95050313732480420000000000002940000000002940002000000010410406081203063306822251270608000007299849   1020000200030000   333400010001204104000000281Myanmar Soft-Gate Tech Yangon        MMR11006081203063306820608000000000000000   10300001F05104100000000000617000000000000     
100   95050310397364970000000000000980000000000980002000000010410406081434020402379662720608000007300368   1020000200030000   333400010001204104000000281Myanmar Soft-Gate Tech Yangon        MMR11006081434020402370608000000000000000   10300001F05104100000000000206000000000000     
100   62911028202161240000000000012550000000012550002000000010410406081013290372274773800608000748167271   1030000200030000   541188001025000008000000298KBZ BANK               CITY MART - M MMR11006081013290372270608000000000000000   10300001 00104100000000000753000000000000     
100   95050313400081980000000000003000000000003000002000000010410406080235400540060519400608000007295566   1030000200030000   333800010001203104000003327KBZPay                 Yangon        MMR11006080235400540060608000000000000000   10300001F05104100000000000630000000000000     
100   62911028202000450000000000001960000000001960002000000010410406080303023302714773800608000007295736   1020000200030000   333400010001204104000000281Myanmar Soft-Gate Tech Yangon        MMR11006080303023302710608000000000000000   10300001F05104100000000000412000000000000     
100   95050319701366650000000000055000000000055000002000000010410406080434450445959476380608000007296572   1030000200030000   333800010001203104000003327KBZPay                 Yangon        MMR11006080434450445950608000000000000000   10300001F05104100000000011550000000000000     
100   95050312498129060000000000001960000000001960002000000010410406081255152515754960560608000007300001   1020000200030000   333400010001204104000000281Myanmar Soft-Gate Tech Yangon        MMR11006081255152515750608000000000000000   10300001F05104100000000000412000000000000     
100   95050327192897240000000000000980000000000980002000000010410406080351272127534214200608000007296171   1020000200030000   333400010001204104000000281Myanmar Soft-Gate Tech Yangon        MMR11006080351272127530608000000000000000   10300001F05104100000000000206000000000000     
