100   95050319925596540000000000009800000000009800002000000010410406081731320132507840050609000007300729   1020000200030000   333400010001204104000000281Myanmar Soft-Gate Tech Yangon        MMR11006081731320132500609000000000000000   10300001F05104100000000002058000000000000     
100   95050320335873810000000000000980000000000980002000000010410406091032000200292959960609000007305275   1020000200030000   333400010001204104000000281Myanmar Soft-Gate Tech Yangon        MMR11006091032000200290609000000000000000   10300001F05104100000000000206000000000000     
100   95050317866508340000000000010000000000010000002000000010410406091030220022656060640609000007305260   1030000200030000   333800010001203104000003327KBZPay                 Yangon        MMR11006091030220022650609000000000000000   10300001F05104100000000002100000000000000     
100   62443100313529540000000000004300000000004300002000000010410406091751090151164236430609000748245114   1030000200030000   541188001056000008000000314KBZ BANK               MARKETPLACE - MMR11006091751090151160609000000000000000   10300001 00104100000000001075000000000000     
100   95050312499482960000000000019600000000019600002000000010410406091926040137008776410609000748249279   1030000200030000   541188001023000008000000298KBZ BANK               CITY MART - M MMR11006091926040137000609000000000000000   10300001 00104100000000004900000000000000     
100   62443101053241940000000000061300000000061300002000000010410406091150570150660736190609000748221290   1030000200030000   541188001056000008000000314KBZ BANK               MARKETPLACE - MMR11006091150570150660609000000000000000   10300001 00104100000000015325000000000000     
100   62443100353553260000000000300000000000300000002000000010410406091145021502248705140609000007305582   1030000200030000   333800010001203104000003327KBZPay                 Yangon        MMR11006091145021502240609000000000000000   10300001F05104100000000063000000000000000     
100   95050319928585020000000000000980000000000980002000000010410406091448411841914167440609000007306281   1020000200030000   333400010001204104000000281Myanmar Soft-Gate Tech Yangon        MMR11006091448411841910609000000000000000   10300001F05104100000000000206000000000000     
100   62443100330105920000000000030000000000030000002000000010410406090348121812794343020609000007301958   1030000500030000   333800010001201104000003863AYA Pay                Yangon        MMR11006090348121812790609000000000000000   10300001F05104100000000006300000000000000     
100   95030367537085740000000000000980000000000980002000000010410406091045321532144773800609000007305328   1020000200030000   333400010001204104000000281Myanmar Soft-Gate Tech Yangon        MMR11006091045321532140609000000000000000   10300001F05104100000000000206000000000000     
100   62911028202120400000000000043000000000043000002000000010410406090634250878224773800609042568938079   1040001400030000   546210000541025462100002716Paradise Bakery null M anmar Ahlone  MMR11006090634250878220609000000000000000   10300001 00104100000000002580000000000000     
100   95050315158357300000000000006000000000006000002000000010410406091355582558052394200609000007306060   1030000200030000   333800010001203104000003327KBZPay                 Yangon        MMR11006091355582558050609000000000000000   10300001F05104100000000001260000000000000     
100   95050314931885730000000000000980000000000980002000000010410406091156532653135229970609000007305638   1020000200030000   333400010001204104000000281Myanmar Soft-Gate Tech Yangon        MMR11006091156532653130609000000000000000   10300001F05104100000000000206000000000000     
100   95050319928585020000000000001960000000001960002000000010410406090335590559199371780609000007301827   1020000200030000   333400010001204104000000281Myanmar Soft-Gate Tech Yangon        MMR11006090335590559190609000000000000000   10300001F05104100000000000412000000000000     
100   62911028202355870000000001000000000001000000002000000010410406090539200920134773800609000007302939   1040001600030000   333800010001220104000004507A +                    Yangon        MMR11006090539200920130609000000000000000   10300001F05104100000000210000000000000000     
100   95050311419479170000000000001960000000001960002000000010410406091505363536231117770609000007306326   1020000200030000   333400010001204104000000281Myanmar Soft-Gate Tech Yangon        MMR11006091505363536230609000000000000000   10300001F05104100000000000412000000000000     
100   62911028202193670000000000005300000000005300002000000010410406090717043558744773800609385471304159   1030000900030000   541119000124190110000000080Sein Gay Har BAK       YANGONADA     MMR11006090717043558740609000000000000000   10300001F00104100000000000318000000000000     
100   62911028202355870000000001000000000001000000002000000010410406090537470747744773800609000007302929   1040001600030000   333800010001220104000004507A +                    Yangon        MMR11006090537470747740609000000000000000   10300001F05104100000000210000000000000000     
100   62911028202000450000000000004900000000004900002000000010410406090454032403804773800609000007302537   1020000200030000   333400010001204104000000281Myanmar Soft-Gate Tech Yangon        MMR11006090454032403800609000000000000000   10300001F05104100000000001029000000000000     
100   62911028202207380000000000010000000000010000002000000010410406090359592959814773800609000007302067   1030000500030000   333800010001201104000003863AYA Pay                Yangon        MMR11006090359592959810609000000000000000   10300001F05104100000000002100000000000000     
100   95030366960186690000000000050500000000050500002000000010410406090257063493264773800609018270906159   1030000900030000   573219001181190110000000937UNIQUE Hlaing          YANGON        MMR11006090257063493260609000000000000000   10300001F00104100000000003030000000000000     
100   62911028202107390000000000040000000000040000002000000010410406090736153563454773800609628061415159   1030000900030000   554119000997190110000000803Puma Power SOKL        YANGONOKKALAP MMR11006090736153563450609000000000000000   10300001F00104100000000001200000000000000     
100   95030367537085740000000000000980000000000980002000000010410406091140121012004773800609000007305568   1020000200030000   333400010001204104000000281Myanmar Soft-Gate Tech Yangon        MMR11006091140121012000609000000000000000   10300001F05104100000000000206000000000000     
100   95050317084233280000000000005000000000005000002000000010410406090552152215409887590609000007303019   1030000200030000   333800010001203104000003327KBZPay                 Yangon        MMR11006090552152215400609000000000000000   10300001F05104100000000001050000000000000     
100   95050310427855490000000000004900000000004900002000000010410406091350202020175443910609000007306035   1020000200030000   333400010001204104000000281Myanmar Soft-Gate Tech Yangon        MMR11006091350202020170609000000000000000   10300001F05104100000000001029000000000000     
100   95050319161596230000000000001960000000001960002000000010410406090302343234419627070609000007301503   1020000200030000   333400010001204104000000281Myanmar Soft-Gate Tech Yangon        MMR11006090302343234410609000000000000000   10300001F05104100000000000412000000000000     
100   95030301100022270000000000077900000000077900002000000010410406091213333580854773800609535431832159   1030000300030000   555510124364104519000020166Makro Myanmar                        MMR11006091213333580850609000000000000000   10300001 00104100000000004674000000000000     
100   62911028202440680000000000010600000000010600002000000010410406090955343597934773800609492251634159   1030000900030000   591219000970190110000000777Shwe Ohh Pharmacy St ( YANGONAW      MMR11006090955343597930609000000000000000   10300001F00104100000000000636000000000000     
100   95030367537085740000000000002940000000002940002000000010410406091236360636554773800609000007305772   1020000200030000   333400010001204104000000281Myanmar Soft-Gate Tech Yangon        MMR11006091236360636550609000000000000000   10300001F05104100000000000617000000000000     
100   62911028202355870000000001000000000001000000002000000010410406090537110711544773800609000007302919   1040001600030000   333800010001220104000004507A +                    Yangon        MMR11006090537110711540609000000000000000   10300001F05104100000000210000000000000000     
100   95050312962334280000000000000980000000000980002000000010410406091337120712619344540609000007306004   1020000200030000   333400010001204104000000281Myanmar Soft-Gate Tech Yangon        MMR11006091337120712610609000000000000000   10300001F05104100000000000206000000000000     
100   62911028202355870000000001000000000001000000002000000010410406090538340834054773800609000007302933   1040001600030000   333800010001220104000004507A +                    Yangon        MMR11006090538340834050609000000000000000   10300001F05104100000000210000000000000000     
100   95050312160676580000000000000980000000000980002000000010410406090738050805807902780609000007303836   1020000200030000   333400010001204104000000281Myanmar Soft-Gate Tech Yangon        MMR11006090738050805800609000000000000000   10300001F05104100000000000206000000000000     
100   95050317284600370000000000050000000000050000002000000010410406091352452245891968740609000007306047   1030000200030000   333800010001203104000003327KBZPay                 Yangon        MMR11006091352452245890609000000000000000   10300001F05104100000000010500000000000000     
100   95050314692738880000000000004900000000004900002000000010410406090346391639902350150609000007301951   1020000200030000   333400010001204104000000281Myanmar Soft-Gate Tech Yangon        MMR11006090346391639900609000000000000000   10300001F05104100000000001029000000000000     
100   62443100333488440000000000018200000000018200002000000010410406090845353570912445220609979151536159   1030000500030000   555610121914104519000018359City Express MCS 114                 MMR11006090845353570910609000000000000000   10300001 00104100000000004550000000000000     
100   62443100323428970000000000032850000000032850002000000010410406091107243577834661890609367361731159   1030000300030000   555510124696104519000020166Makro Myanmar                        MMR11006091107243577830609000000000000000   10300001 00104100000000007884000000000000     
100   95050315150726490000000000005400000000005400002000000010410406091003253599729110310609595331625159   1030000900030000   541119000116190110000000078Sein Gay Har Kan Thar  YANGONOKKALAP MMR11006091003253599720609000000000000000   10300001F00104100000000001350000000000000     
100   95050315259054570000000000000980000000000980002000000010410406090858152815288827470609000007304526   1020000200030000   333400010001204104000000281Myanmar Soft-Gate Tech Yangon        MMR11006090858152815280609000000000000000   10300001F05104100000000000206000000000000     
100   95050312224678430000000000000980000000000980002000000010410406090952002200804712860609000007305007   1020000200030000   333400010001204104000000281Myanmar Soft-Gate Tech Yangon        MMR11006090952002200800609000000000000000   10300001F05104100000000000206000000000000     
100   95050321084131410000000000300000000000300000002000000010410406090935400540803082290609000007304852   1030000200030000   333800010001203104000003327KBZPay                 Yangon        MMR11006090935400540800609000000000000000   10300001F05104100000000063000000000000000     
100   62911028202446700000000000010000000000010000002000000010410406091439220922934773800609000007306238   1030000500030000   333800010001201104000003863AYA Pay                Yangon        MMR11006091439220922930609000000000000000   10300001F05104100000000002100000000000000     
100   95030360829747230000000002760000000002760000002000000010410406080832090109524773800608000349232831   1030000300030000   573200001743000000000001246CB BANK                WIN MOBILE (S MMR11006080832090109520608000000000000000   10300001F00104100000000165600000000000000     
100   95050321798808970000000000080000000000080000002000000010410406090737590759724427620609000007303838   1030000200030000   333800010001203104000003327KBZPay                 Yangon        MMR11006090737590759720609000000000000000   10300001F05104100000000016800000000000000     
100   95050316769671810000000000013100000000013100002000000010410406090459212921002896380609000007302586   1030000200030000   333800010001203104000003327KBZPay                 Yangon        MMR11006090459212921000609000000000000000   10300001F05104100000000002751000000000000     
100   95050312498129060000000000009500000000009500002000000010410406091204153415320052880609000007305668   1030000200030000   3333000100012031040000040282C2P (Myanmar) Co. Ltd Yangon        MMR11006091204153415320609000000000000000   10300001F05104100000000010000000000000000     
100   62911028202169750000000000039716000000039716002000000010410406090455453522744773800609477251145159   1030000900030000   541119001264190110000000958City Mart PLST C 7     YANGONMYOTHIT MMR11006090455453522740609000000000000000   10300001F00104100000000002383000000000000     
100   95050321084131410000000000200000000000200000002000000010410406090937210721640458040609000007304872   1030000200030000   333800010001203104000003327KBZPay                 Yangon        MMR11006090937210721640609000000000000000   10300001F05104100000000042000000000000000     
100   95050323722449090000000000004409000000004409002000000010410406091157182718007854180609000007305639   1020000200030000   333400010001204104000000281Myanmar Soft-Gate Tech Yangon        MMR11006091157182718000609000000000000000   10300001F05104100000000000926000000000000     
100   95050311926829590000000000000980000000000980002000000010410406091301103110099201910609000007305880   1020000200030000   333400010001204104000000281Myanmar Soft-Gate Tech Yangon        MMR11006091301103110090609000000000000000   10300001F05104100000000000206000000000000     
100   95050319161596230000000000002940000000002940002000000010410406090153062306341059920609000007301150   1020000200030000   333400010001204104000000281Myanmar Soft-Gate Tech Yangon        MMR11006090153062306340609000000000000000   10300001F05104100000000000617000000000000     
100   62443100373945130000000000030000000000030000002000000010410406090921503589366274530609009511550159   1030000900030000   554119000348190110000000215New Day Energy MYG     YANGONONE     MMR11006090921503589360609000000000000000   10300001F00104100000000003600000000000000     
100   95050321688266460000000000001000000000001000002000000010410406090546451645373571960609000007302970   1030000200030000   333800010001203104000003327KBZPay                 Yangon        MMR11006090546451645370609000000000000000   10300001F05104100000000000210000000000000     
100   95050325630928770000000000000980000000000980002000000010410406090804133413108682440609000007304053   1020000200030000   333400010001204104000000281Myanmar Soft-Gate Tech Yangon        MMR11006090804133413100609000000000000000   10300001F05104100000000000206000000000000     
100   95030308100042590000000000050000000000050000002000000010410406080750580019574773800608215914001957   1030000500030000   598320001702000015172200017MAX ENERGY             PTN           MMR11006080750580019570608000000000000000   10300001 00104100000000001500000000000000     
100   62911028202665170000000000060000000000060000002000000010410406080105410039524773800608215907003952   1030000500030000   598320001202000015172200012MAX ENERGY             PTN           MMR11006080105410039520608000000000000000   10300001 00104100000000001800000000000000     
100   95050318180584510000000000020000000000020000002000000010410406090855352535972302590609000007304501   1030000200030000   333800010001203104000003327KBZPay                 Yangon        MMR11006090855352535970609000000000000000   10300001F05104100000000004200000000000000     
100   95050310213446310000000000004900000000004900002000000010410406090948331833087337070609000007304977   1020000200030000   333400010001204104000000281Myanmar Soft-Gate Tech Yangon        MMR11006090948331833080609000000000000000   10300001F05104100000000001029000000000000     
100   95050321232876860000000000081000000000081000002000000010410406080849590219306569320608215908021930   1030000600030000   554100001212315799420000664DENKO TA TAR OO        TA TAR OO     MMR11006080849590219300608000000000000000   10300001 00104100000000009720000000000000     
100   95050311076838860000000000015900000000015900002000000010410406081121200003627038520608215917000362   1030000500030000   541120226805000045411202268CITY MART WAIZAYANDA   PTN           MMR11006081121200003620608000000000000000   10300001 00104100000000003975000000000000     
100   62911028202237810000000000072450000000072450002000000010410406090825463569964773800609939541424159   1030000300030000   555510124362104519000020166Makro Myanmar                        MMR11006090825463569960609000000000000000   10300001 00104100000000004347000000000000     
100   62443100395964530000000000116600000000116600002000000010410406090920413588962799410609987501541159   1030000900030000   541119000882190110000000084Pro (1) Global (Pazund YANGONARTAUNG MMR11006090920413588960609000000000000000   10300001F00104100000000029150000000000000     
100   95050312878706670000000000017100000000017100002000000010410406090723363560377265750609469531336159   1030000900030000   541119000124190110000000080Sein Gay Har BAK       YANGONADA     MMR11006090723363560370609000000000000000   10300001F00104100000000004275000000000000     
100   62911028202000450000000000004900000000004900002000000010410406090440251025304773800609000007302433   1020000200030000   333400010001204104000000281Myanmar Soft-Gate Tech Yangon        MMR11006090440251025300609000000000000000   10300001F05104100000000001029000000000000     
100   95050311926829590000000000000980000000000980002000000010410406091303553355125726790609000007305895   1020000200030000   333400010001204104000000281Myanmar Soft-Gate Tech Yangon        MMR11006091303553355120609000000000000000   10300001F05104100000000000206000000000000     
100   62911028202761360000000000085100000000085100002000000010410406090714313558184773800609357441331159   1030000900030000   541119001334190110000000971Ocean Junction NPT C 1 NAYPYITAW     MMR11006090714313558180609000000000000000   10300001F00104100000000005106000000000000     
100   95050311048637960000000000008250000000008250002000000010410406090929383591283650330609122591538159   1030000900030000   541119000124190110000000080Sein Gay Har BAK       YANGONADA     MMR11006090929383591280609000000000000000   10300001F00104100000000002063000000000000     
100   95050324411430900000000000103750000000103750002000000010410406091035280528779910250609000007305287   1010000100030000   333500010001212104000002543Internal Revenue Depar Yangon        MMR11006091035280528770609000000000000000   10300001F05104100000000060000000000000000     
100   95050312695033440000000000001960000000001960002000000010410406090243311331286747580609000007301362   1020000200030000   333400010001204104000000281Myanmar Soft-Gate Tech Yangon        MMR11006090243311331280609000000000000000   10300001F05104100000000000412000000000000     
100   62911028202446700000000000010000000000010000002000000010410406091140581058634773800609000007305574   1030000500030000   333800010001201104000003863AYA Pay                Yangon        MMR11006091140581058630609000000000000000   10300001F05104100000000002100000000000000     
100   95050324250133010000000000225400000000225400002000000010410406090956203598101663200609501261620159   1030000900030000   541119000158190110000000084Pro (1) Global (Pazund YANGONARTAUNG MMR11006090956203598100609000000000000000   10300001F00104100000000056350000000000000     
100   95050319161596230000000000000980000000000980002000000010410406090403063306841924670609000007302093   1020000200030000   333400010001204104000000281Myanmar Soft-Gate Tech Yangon        MMR11006090403063306840609000000000000000   10300001F05104100000000000206000000000000     
100   62911028202026450000000000003000000000003000002000000010410406090741203564654773800609689111420159   1030000900030000   594419001071190110000000869Shwe Nan Taw (CS)      YANGON        MMR11006090741203564650609000000000000000   10300001F00104100000000000180000000000000     
100   62911028202231380000000000086000000000086000002000000010410406081131570052154773800608215918005215   1030000500030000   598320001901000015172200019MAX ENERGY             PTN           MMR11006081131570052150608000000000000000   10300001 00104100000000002580000000000000     
100   62911028202207380000000000002350000000002350002000000010410406080826260000824773800608215914000082   1030000500030000   541120203705000015411202037CITY MART SUPERMARKET  PTN           MMR11006080826260000820608000000000000000   10300001 00104100000000000141000000000000     
100   62911028202163630000000000012900000000012900002000000010410406080511300003254773800608215911000325   1030000500030000   591220014201014405912200142SHWE OHH PHARMACY      PTN           MMR11006080511300003250608000000000000000   10300001 00104100000000000774000000000000     
100   95050310520330790000000000050000000000050000002000000010410406090713304330958116720609000007303653   1030000200030000   333800010001203104000003327KBZPay                 Yangon        MMR11006090713304330950609000000000000000   10300001F05104100000000010500000000000000     
100   95050320531117320000000000067279000000067279002000000010410406080306500026638696730608215909002663   1030000500030000   598320041901000055983200419MAX ENERGY             PTN           MMR11006080306500026630608000000000000000   10300001 00104100000000008074000000000000     
100   62911028202169750000000000222374000000222374002000000010410406090416123513864773800609054461012159   1030000900030000   541119001281190110000000963City Mart SPL C6       YANGONMYOTHIT MMR11006090416123513860609000000000000000   10300001F00104100000000013342000000000000     
100   95050312641885210000000000010000000000010000002000000010410406090551402140579462090609000007303008   1030000200030000   333800010001203104000003327KBZPay                 Yangon        MMR11006090551402140570609000000000000000   10300001F05104100000000002100000000000000     
100   95050321057500320000000000005800000000005800002000000010410406090202113482692712400609595320811159   1030000900030000   581219000528190110000000376Shwepalin (Hantharwadd YANGONUT      MMR11006090202113482690609000000000000000   10300001F00104100000000002465000000000000     
100   95050317175714970000000000009350000000009350002000000010410406090221353485654208480609708510835159   1030000900030000   541119000112190110000000077Sein Gay Har Chinatown YANGON        MMR11006090221353485650609000000000000000   10300001F00104100000000002338000000000000     
100   62911028202170490000000000028600000000028600002000000010410406090643393551344773800609030131339159   1030000900030000   581219000421190110000000282BCC (MPZ)              YANGON        MMR11006090643393551340609000000000000000   10300001F00104100000000002917000000000000     
100   95050320531117320000000000017650000000017650002000000010410406090911543586708898740609857411554159   1030000900030000   571219001536190110000001113Pro 1 Plus Store-1     YANGONADON    MMR11006090911543586700609000000000000000   10300001F00104100000000004236000000000000     
100   62911028202169750000000000008200000000008200002000000010410406090420263515164773800609122501026159   1030000900030000   541119001288190110000000964City Mart SPL Season C YANGONMYOTHIT MMR11006090420263515160609000000000000000   10300001F00104100000000000492000000000000     
100   95050312498129060000000000004900000000004900002000000010410406091206523652527003210609000007305678   1020000200030000   333400010001204104000000281Myanmar Soft-Gate Tech Yangon        MMR11006091206523652520609000000000000000   10300001F05104100000000001029000000000000     
100   62911028202355870000000001000000000001000000002000000010410406090535550555134773800609000007302910   1040001600030000   333800010001220104000004507A +                    Yangon        MMR11006090535550555130609000000000000000   10300001F05104100000000210000000000000000     
100   95030367537085740000000000000980000000000980002000000010410406090835070507704773800609000007304348   1020000200030000   333400010001204104000000281Myanmar Soft-Gate Tech Yangon        MMR11006090835070507700609000000000000000   10300001F05104100000000000206000000000000     
100   95030360829747230000000000012200000000012200002000000010410406090326463501724773800609432560946159   1030000900030000   541119000286190110000000177Pro1 Global (Insein)   YANGON        MMR11006090326463501720609000000000000000   10300001F00104100000000000732000000000000     
100   62443100300743690000000000006000000000006000002000000010410406091916190117829698730609000748249007   1030000200030000   541188001189000008000000383KBZ BANK               OCEAN SUPER C MMR11006091916190117820609000000000000000   10300001 00104100000000001500000000000000     
100   62911028202207380000000000005600000000005600002000000010410406080827390000834773800608215914000083   1030000500030000   541120203705000015411202037CITY MART SUPERMARKET  PTN           MMR11006080827390000830608000000000000000   10300001 00104100000000000336000000000000     
100   95050313817486860000000000004900000000004900002000000010410406090225075507012556000609000007301300   1020000200030000   333400010001204104000000281Myanmar Soft-Gate Tech Yangon        MMR11006090225075507010609000000000000000   10300001F05104100000000001029000000000000     
100   95050324411430900000000000052000000000052000002000000010410406090815357012217406010609216015701221   1040001600030000   598320000658000000010000527Shwe Taung Energy (YGN Yangon        MMR11006090815357012210609000000000000000   10300001F00104100000000006240000000000000     
100   95050321848852460000000000026000000000026000002000000010410406081130400009179031400608000349256548   1030000300030000   581200000376000000000000256CB BANK                UNCLE TETSU B MMR11006081130400009170608000000000000000   10300001F00104100000000011050000000000000     
100   95030314863516850000000000015000000000015000002000000010410406090908443844484773800609000007304619   1030000200030000   333800010001203104000003327KBZPay                 Yangon        MMR11006090908443844480609000000000000000   10300001F05104100000000003150000000000000     
100   95050312498129060000000000000980000000000980002000000010410406091422385238888493570609000007306168   1020000200030000   333400010001204104000000281Myanmar Soft-Gate Tech Yangon        MMR11006091422385238880609000000000000000   10300001F05104100000000000206000000000000     
100   95050312224678430000000000000980000000000980002000000010410406090320385038247889490609000007301673   1020000200030000   333400010001204104000000281Myanmar Soft-Gate Tech Yangon        MMR11006090320385038240609000000000000000   10300001F05104100000000000206000000000000     
100   62911028202466670000000000124300000000124300002000000010410406090833317021114773800609216015702111   1040001600030000   591220000276000000010000264Shwe Ohh Pharmacy (YGH Yangon        MMR11006090833317021110609000000000000000   10300001F00104100000000007458000000000000     
100   95050329698388160000000000300000000000300000002000000010410406091211004100336931900609000007305691   1030000200030000   333800010001203104000003327KBZPay                 Yangon        MMR11006091211004100330609000000000000000   10300001F05104100000000063000000000000000     
100   62443100330105920000000000046500000000046500002000000010410406091055313614588208370609475251731159   1030000900030000   541119001358190110000000977Ocean PZD C 12         YANGONAUNG    MMR11006091055313614580609000000000000000   10300001F00104100000000011625000000000000     
100   95050320360851930000000000200000000000200000002000000010410406090813024302873079920609000007304139   1030000200030000   333800010001203104000003327KBZPay                 Yangon        MMR11006090813024302870609000000000000000   10300001F05104100000000042000000000000000     
100   62443100395250310000000000100000000000100000002000000010410406090829015901761097480609000007304284   1030000200030000   333800010001203104000003327KBZPay                 Yangon        MMR11006090829015901760609000000000000000   10300001F05104100000000021000000000000000     
100   62911028202448030000000000007500000000007500002000000010410406081039290000444773800608215917000044   1030000500030000   531120226331000045311202263OCEAN SUPER CENTER STJ PTN           MMR11006081039290000440608000000000000000   10300001 00104100000000000450000000000000     
100   95050324247403260000000000126589000000126589002000000010410406080433030001109136000608000349199821   1030000300030000   551100001510000000000001060CB BANK                TTAS COMPANY  MMR11006080433030001100608000000000000000   10300001F00104100000000030381000000000000     
100   95050325925517520000000000006500000000006500002000000010410406080510180000548469020608215911000054   1030000500030000   541120227608000045411202276CITY MART ( 47 BRANCH  PTN           MMR11006080510180000540608000000000000000   10300001 00104100000000001625000000000000     
100   95030317922148660000000000420000000000420000002000000010410406080823090001854773800608215914000185   1030000500030000   729820125601022607298201256BEAUTY BANK AESTHETIC  PTN           MMR11006080823090001850608000000000000000   10300001 00104100000000025200000000000000     
100   62443100315110470000000000019863000000019863002000000010410406081103410000365471140608215917000036   1030000500030000   531120226320000045311202263OCEAN SUPER CENTER STJ PTN           MMR11006081103410000360608000000000000000   10300001 00104100000000004767000000000000     
100   62911028202122630000000000005300000000005300002000000010410406080717140001864773800608215913000186   1030000500030000   541120226407000045411202264MARKET PLACE MYANMARPL PTN           MMR11006080717140001860608000000000000000   10300001 00104100000000000318000000000000     
100   62911028202448030000000000060426000000060426002000000010410406081024450000564773800608215916000056   1030000500030000   531120226314000045311202263OCEAN SUPER CENTER STJ PTN           MMR11006081024450000560608000000000000000   10300001 00104100000000003626000000000000     
100   62911028202170490000000000018000000000018000002000000010410406081041360004424773800608215917000442   1030000500030000   531120226310000045311202263OCEAN SUPER CENTER STJ PTN           MMR11006081041360004420608000000000000000   10300001 00104100000000001080000000000000     
100   95050317770415060000000000050000000000050000002000000010410406091609413941834947090609000007306482   1030000200030000   333800010001203104000003327KBZPay                 Yangon        MMR11006091609413941830609000000000000000   10300001F05104100000000010500000000000000     
100   95050314570621780000000000000980000000000980002000000010410406090414154415147307610609000007302197   1020000200030000   333400010001204104000000281Myanmar Soft-Gate Tech Yangon        MMR11006090414154415140609000000000000000   10300001F05104100000000000206000000000000     
100   95050316377977350000000000005000000000005000002000000010410406090108203820109832920609000007301032   1030000200030000   3338000100012031040000040022C2P (Myanmar) Co. Ltd Yangon        MMR11006090108203820100609000000000000000   10300001F05104100000000001050000000000000     
100   95050311559234320000000000005880000000005880002000000010410406090216124612333953190609000007301269   1020000200030000   333400010001204104000000281Myanmar Soft-Gate Tech Yangon        MMR11006090216124612330609000000000000000   10300001F05104100000000001235000000000000     
100   95050312695033440000000000000980000000000980002000000010410406091419294929008068070609000007306157   1020000200030000   333400010001204104000000281Myanmar Soft-Gate Tech Yangon        MMR11006091419294929000609000000000000000   10300001F05104100000000000206000000000000     
100   95050315066440750000000000000980000000000980002000000010410406090328425842972846940609000007301755   1020000200030000   333400010001204104000000281Myanmar Soft-Gate Tech Yangon        MMR11006090328425842970609000000000000000   10300001F05104100000000000206000000000000     
100   62911028202169750000000000137344000000137344002000000010410406090626316959824773800609216013695982   1040001600030000   541120000559000000010000465Ocean Shwe Gone Daing  Yangon        MMR11006090626316959820609000000000000000   10300001F00104100000000008241000000000000     
100   95050327243132200000000000034000000000034000002000000010410406090320496861412506560609216010686141   1040001600030000   541120000571000000010000465Ocean Shwe Gone Daing  Yangon        MMR11006090320496861410609000000000000000   10300001F00104100000000008500000000000000     
100   62911028202170490000000000004000000000004000002000000010410406080706280000294773800608215913000029   1030000500030000   531120226314000045311202263OCEAN SUPER CENTER STJ PTN           MMR11006080706280000290608000000000000000   10300001 00104100000000000240000000000000     
100   62443100315110470000000000012378000000012378002000000010410406081058500000357208720608215917000035   1030000500030000   531120226320000045311202263OCEAN SUPER CENTER STJ PTN           MMR11006081058500000350608000000000000000   10300001 00104100000000002971000000000000     
100   62911028202207380000000000022350000000022350002000000010410406080810300001204773800608215914000120   1030000500030000   541120203704000015411202037CITY MART SUPERMARKET  PTN           MMR11006080810300001200608000000000000000   10300001 00104100000000001341000000000000     
100   62911028202212490000000000005800000000005800002000000010410406080456080002434773800608215911000243   1030000500030000   581220195901000085812201959AKKHAYA TEA HOUSE      PTN           MMR11006080456080002430608000000000000000   10300001 00104100000000000592000000000000     
100   95030302100067550000000000016934000000016934002000000010410406080558030003654773800608215912000365   1030000500030000   531120226302000045311202263OCEAN SUPER CENTER STJ PTN           MMR11006080558030003650608000000000000000   10300001 00104100000000001016000000000000     
100   62911028202464100000000000005700000000005700002000000010410406080602030000064773800608215912000006   1030000500030000   531120226331000045311202263OCEAN SUPER CENTER STJ PTN           MMR11006080602030000060608000000000000000   10300001 00104100000000000342000000000000     
100   62911028202491330000000000039245000000039245002000000010410406080943120000894773800608215916000089   1030000500030000   541120203705000015411202037CITY MART SUPERMARKET  PTN           MMR11006080943120000890608000000000000000   10300001 00104100000000002355000000000000     
100   62911028202471600000000000028438000000028438002000000010410406080543490000784773800608215912000078   1030000500030000   541120203705000015411202037CITY MART SUPERMARKET  PTN           MMR11006080543490000780608000000000000000   10300001 00104100000000001706000000000000     
100   95050315557781210000000000013000000000013000002000000010410406090619494949327760200609000007303189   1040001600030000   333800010001220104000004507A +                    Yangon        MMR11006090619494949320609000000000000000   10300001F05104100000000002730000000000000     
100   95050312695033440000000000000980000000000980002000000010410406091415504550301543240609000007306140   1020000200030000   333400010001204104000000281Myanmar Soft-Gate Tech Yangon        MMR11006091415504550300609000000000000000   10300001F05104100000000000206000000000000     
100   62443100391804560000000000004900000000004900002000000010410406090525075507780593610609000007302804   1020000200030000   333400010001204104000000281Myanmar Soft-Gate Tech Yangon        MMR11006090525075507780609000000000000000   10300001F05104100000000001029000000000000     
100   95050318242219520000000000000980000000000980002000000010410406090216164616408995740609000007301268   1020000200030000   333400010001204104000000281Myanmar Soft-Gate Tech Yangon        MMR11006090216164616400609000000000000000   10300001F05104100000000000206000000000000     
100   95050310494988230000000000010000000000010000002000000010410406091028075807073010930609000007305246   1030000200030000   333800010001203104000003327KBZPay                 Yangon        MMR11006091028075807070609000000000000000   10300001F05104100000000002100000000000000     
100   95030308100042590000000000018400000000018400002000000010410406091239053641474773800609091091905159   1030000900030000   541119001219190110000000945City Mart TM C 4       YANGONONE     MMR11006091239053641470609000000000000000   10300001F00104100000000001104000000000000     
100   95030367537085740000000000001960000000001960002000000010410406091323355335834773800609000007305966   1020000200030000   333400010001204104000000281Myanmar Soft-Gate Tech Yangon        MMR11006091323355335830609000000000000000   10300001F05104100000000000412000000000000     
100   62443100353553260000000000300000000000300000002000000010410406091122535253803385420609000007305474   1030000200030000   333800010001203104000003327KBZPay                 Yangon        MMR11006091122535253800609000000000000000   10300001F05104100000000063000000000000000     
100   62911028202147720000000000008900000000008900002000000010410406080931350001414773800608215916000141   1030000500030000   541120227507000045411202275CITY MART (AHLONE BRAN PTN           MMR11006080931350001410608000000000000000   10300001 00104100000000000534000000000000     
100   95050329581164220000000000095000000000095000002000000010410406081419300010932967690608215920001093   1030001300030000   555500000041700000000000031SHWEBANK BANK          959           MMR11006081419300010930608000000000000000   10300001 00104100000000022800000000000000     
100   62911028202207380000000000014700000000014700002000000010410406080834020001224773800608215915000122   1030000500030000   541120203704000015411202037CITY MART SUPERMARKET  PTN           MMR11006080834020001220608000000000000000   10300001 00104100000000000882000000000000     
100   95050318156904210000000000450000000000450000002000000010410406081011130002166393410608000349245940   1030000300030000   573200001740000000000001243CB BANK                WIN MOBILE WO MMR11006081011130002160608000000000000000   10300001F00104100000000108000000000000000     
100   95050310534130230000000000012250000000012250002000000010410406080231300009868866920608215909000986   1030000500030000   591220132901008605912201329THEIK DI WIN SHOP      PTN           MMR11006080231300009860608000000000000000   10300001 00104100000000002940000000000000     
100   62911028202053740000000000035000000000035000002000000010410406071507290192584773800607215815019258   1030000600030000   554100002323315799420000474DENKO N.DAGON - 1      YANGON        MMR11006071507290192580607000000000000000   10300001 00104100000000001050000000000000     
100   62911028202221220000000000010000000000010000002000000010410406072257350029624773800608215905002962   1030000500030000   598320001601000015172200016MAX ENERGY             PTN           MMR11006072257350029620608000000000000000   10300001 00104100000000000300000000000000     
100   95050312498129060000000000006500000000006500002000000010410406080517550007278383920608215911000727   1030000500030000   573220038801000015732200388REMAX                  PTN           MMR11006080517550007270608000000000000000   10300001 00104100000000001560000000000000     
100   95050312498129060000000000005880000000005880002000000010410406090919374937002373900609000007304744   1020000200030000   333400010001204104000000281Myanmar Soft-Gate Tech Yangon        MMR11006090919374937000609000000000000000   10300001F05104100000000001235000000000000     
100   62911028202451150000000000032000000000032000002000000010410406090630056961874773800609216013696187   1040001600030000   598320001127000000010000608Terminal Petrol Statio Yangon        MMR11006090630056961870609000000000000000   10300001F00104100000000000960000000000000     
100   95050314020354280000000000007000000000007000002000000010410406090918423588381948400609960481542159   1030000900030000   541119000115190110000000078Sein Gay Har Kan Thar  YANGONOKKALAP MMR11006090918423588380609000000000000000   10300001F00104100000000001750000000000000     
100   95030319588829360000000000050000000000050000002000000010410406090323206862384773800609216010686238   1040001600030000   598320001127000000010000608Terminal Petrol Statio Yangon        MMR11006090323206862380609000000000000000   10300001F00104100000000001500000000000000     
100   95050315330275830000000000000980000000000980002000000010410406090808483848299958900609000007304094   1020000200030000   333400010001204104000000281Myanmar Soft-Gate Tech Yangon        MMR11006090808483848290609000000000000000   10300001F05104100000000000206000000000000     
100   95050318805978240000000000015100000000015100002000000010410406090308513851051534840609000007301550   1030000200030000   333800010001203104000003327KBZPay                 Yangon        MMR11006090308513851050609000000000000000   10300001F05104100000000003171000000000000     
100   95050311959900780000000000000980000000000980002000000010410406091426165616055018400609000007306189   1020000200030000   333400010001204104000000281Myanmar Soft-Gate Tech Yangon        MMR11006091426165616050609000000000000000   10300001F05104100000000000206000000000000     
100   95050320531117320000000000007900000000007900002000000010410406090918473588445423570609965481547159   1030000900030000   541119001528190110000001107Ocean MGDTM-Season C-1 YANGONADON    MMR11006090918473588440609000000000000000   10300001F00104100000000001975000000000000     
100   62911028202312890000000000036003000000036003002000000010410406080538100044194773800608215912004419   1030000500030000   598320001401000015172200014MAX ENERGY             PTN           MMR11006080538100044190608000000000000000   10300001 00104100000000001080000000000000     
100   62911028202677390000000000030000000000030000002000000010410406080550410249384773800608215905024938   1030000600030000   554100001118315799420000576DENKO THAN HLYIN - 2   THAN HLYIN    MMR11006080550410249380608000000000000000   10300001 00104100000000000900000000000000     
100   95050313843656520000000000019700000000019700002000000010410406081216190009890088200608215918000989   1030000500030000   581220024401000015812200244SHWE LAR HOT POT       PTN           MMR11006081216190009890608000000000000000   10300001 00104100000000008373000000000000     
100   95050323282717740000000000020000000000020000002000000010410406080637160045679981250608215913004567   1030000500030000   598320001404000015172200014MAX ENERGY             PTN           MMR11006080637160045670608000000000000000   10300001 00104100000000002400000000000000     
100   62911028202169750000000000022500000000022500002000000010410406080127280031724773800608215907003172   1030000500030000   598320002104000015172200021MAX ENERGY             PTN           MMR11006080127280031720608000000000000000   10300001 00104100000000000675000000000000     
100   62911028202194090000000000035000000000035000002000000010410406080248480037494773800608215909003749   1030000500030000   598320001201000015172200012MAX ENERGY             PTN           MMR11006080248480037490608000000000000000   10300001 00104100000000001050000000000000     
100   62443100323891610000000000022000000000022000002000000010410406081115220049272081070608215911004927   1030000600030000   554100000746315799420000324DENKO SHANKALAY KYUN   MANDALAY      MMR11006081115220049270608000000000000000   10300001 00104100000000002640000000000000     
100   95050322921717110000000000030000000000030000002000000010410406080121010029761200170608215907002976   1030000500030000   598320001601000015172200016MAX ENERGY             PTN           MMR11006080121010029760608000000000000000   10300001 00104100000000003600000000000000     
100   95050316377977350000000000010000000000010000002000000010410406090122515251942457110609000007301063   1040001600030000   333800010001220104000004507A +                    Yangon        MMR11006090122515251940609000000000000000   10300001F05104100000000002100000000000000     
100   95030308100042590000000000003700000000003700002000000010410406091208423634144773800609648381842159   1030000900030000   541119001229190110000000946City Mart TM Season C  YANGONONE     MMR11006091208423634140609000000000000000   10300001F00104100000000000222000000000000     
100   95050314365758940000000000014497000000014497002000000010410406091214117194076080940609216019719407   1040001600030000   541120000563000000010000465Ocean Shwe Gone Daing  Yangon        MMR11006091214117194070609000000000000000   10300001F00104100000000003625000000000000     
100   62443100348951400000000000050000000000050000002000000010410406090806413641856483730609000007304073   1030000200030000   333800010001203104000003327KBZPay                 Yangon        MMR11006090806413641850609000000000000000   10300001F05104100000000010500000000000000     
100   95030308100042590000000000002400000000002400002000000010410406091212153634944773800609696421815159   1030000900030000   541119001230190110000000947City Mart TM City Care YANGONONE     MMR11006091212153634940609000000000000000   10300001F00104100000000000144000000000000     
100   95050312498129060000000000000980000000000980002000000010410406091323065306291826120609000007305961   1020000200030000   333400010001204104000000281Myanmar Soft-Gate Tech Yangon        MMR11006091323065306290609000000000000000   10300001F05104100000000000206000000000000     
100   62443100373105840000000000100000000000100000002000000010410406091328595859267925490609000007305974   1030000200030000   333800010001203104000003327KBZPay                 Yangon        MMR11006091328595859260609000000000000000   10300001F05104100000000021000000000000000     
100   62443101000669310000000000080000000000080000002000000010410406091118123621516860590609897481712159   1030000900030000   701119001579190110000001151Hotel Shwe Pyi Thar    MANDALAYHARSA MMR11006091118123621510609000000000000000   10300001F00104100000000034000000000000000     
100   62911028202448030000000000120000000000120000002000000010410406080546440039834773800608215912003983   1030000500030000   598320001202000015172200012MAX ENERGY             PTN           MMR11006080546440039830608000000000000000   10300001 00104100000000003600000000000000     
100   62911028202474000000000000030507000000030507002000000010410406080406000043804773800608215910004380   1030000500030000   598320001303000015172200013MAX ENERGY             PTN           MMR11006080406000043800608000000000000000   10300001 00104100000000000915000000000000     
100   62911028202537390000000000070000000000070000002000000010410406081111070048704773800608215911004870   1030000600030000   554100001257315799420000711DENKO MAUBIN           MAUBIN        MMR11006081111070048700608000000000000000   10300001 00104100000000002100000000000000     
100   62911028202285900000000000040000000000040000002000000010410406080550170029704773800608215912002970   1030000500030000   598320001602000015172200016MAX ENERGY             PTN           MMR11006080550170029700608000000000000000   10300001 00104100000000001200000000000000     
100   62911028202193830000000000071000000000071000002000000010410406080826310029974773800608215914002997   1030000500030000   598320001604000015172200016MAX ENERGY             PTN           MMR11006080826310029970608000000000000000   10300001 00104100000000002130000000000000     
100   62911028202112400000000000021000000000021000002000000010410406080250270029784773800608215909002978   1030000500030000   598320001601000015172200016MAX ENERGY             PTN           MMR11006080250270029780608000000000000000   10300001 00104100000000000630000000000000     
100   62911028202221220000000000006300000000006300002000000010410406080037320076784773800608215900007678   1030000600030000   549900002153315799420001502EASY MART- 003         YANGON        MMR11006080037320076780608000000000000000   10300001 00104100000000000643000000000000     
100   62911028202193830000000000125000000000125000002000000010410406080402300030794773800608215910003079   1030000500030000   598320001603000015172200016MAX ENERGY             PTN           MMR11006080402300030790608000000000000000   10300001 00104100000000003750000000000000     
100   95050325455962190000000000002940000000002940002000000010410406090324565456661194460609000007301710   1020000200030000   333400010001204104000000281Myanmar Soft-Gate Tech Yangon        MMR11006090324565456660609000000000000000   10300001F05104100000000000617000000000000     
100   62443100313112320000000000035000000000035000002000000010410406090809547009296129540609216015700929   1040001600030000   598320000328000000010000316PT Power Petrol Statio Nay Pyi Taw   MMR11006090809547009290609000000000000000   10300001F00104100000000004200000000000000     
100   62911028202163630000000000003900000000003900002000000010410406091043087105674773800609216017710567   1040001600030000   591220000288000000010000276Shwe Ohh Pharmacy (Nor Yangon        MMR11006091043087105670609000000000000000   10300001F00104100000000000234000000000000     
100   62443100371022130000000000174150000000174150002000000010410406091357013655778919070609883272001159   1030000900030000   581219000206190110000000108Beauty in the Pot      YANGON        MMR11006091357013655770609000000000000000   10300001F00104100000000074014000000000000     
100   95030318100004530000000000023000000000023000002000000010410406081000100108614773800608215910010861   1030000600030000   554100001218315799420000670DENKO MAWLAMYAING      MON STATE.    MMR11006081000100108610608000000000000000   10300001 00104100000000000690000000000000     
100   62443100315110470000000000010000000000010000002000000010410406081036080019052237480608215917001905   1030000500030000   569120104001008205691201040ESCORT ( CITY MALL-ST. PTN           MMR11006081036080019050608000000000000000   10300001 00104100000000002400000000000000     
100   62911028202324770000000000060000000000060000002000000010410406080831150079564773800608215908007956   1030000600030000   554100001812315799420001187DENKO  SHWE TAUNG      SHWE TAUNG    MMR11006080831150079560608000000000000000   10300001 00104100000000001800000000000000     
100   95050320531117320000000000150000000000150000002000000010410406081021360544819528190608215910054481   1030000600030000   554100001756315799420001137DENKO NORTH DAGON 2    YANGON        MMR11006081021360544810608000000000000000   10300001 00104100000000018000000000000000     
100   62911028202136750000000000036000000000036000002000000010410406080815370518194773800608215908051819   1030000600030000   554100001001315799420000498DENKO SHWE PYI THAR    YANGON        MMR11006080815370518190608000000000000000   10300001 00104100000000001080000000000000     
100   95050321232876860000000000050000000000050000002000000010410406080034100391721370370608215900039172   1030000600030000   554100001865315799420001235DENKO NAY PYI TAW 2    NAYPYITAW     MMR11006080034100391720608000000000000000   10300001 00104100000000006000000000000000     
100   95050321232876860000000000106000000000106000002000000010410406080110020391759547690608215901039175   1030000600030000   554100001865315799420001235DENKO NAY PYI TAW 2    NAYPYITAW     MMR11006080110020391750608000000000000000   10300001 00104100000000012720000000000000     
100   95050317185868580000000000023500000000023500002000000010410406090830040004404572650609000007304300   1030000200030000   333800010001203104000003327KBZPay                 Yangon        MMR11006090830040004400609000000000000000   10300001F05104100000000004935000000000000     
100   62911028202761360000000000038800000000038800002000000010410406090522150003664773800609000748221413   1030000200030000   569988000792000008000004571KBZ BANK               NPT-THE ONE   MMR11006090522150003660609000000000000000   10300001 00104100000000002328000000000000     
100   95050310332595380000000000002940000000002940002000000010410406090330020002681109360609000007301772   1020000200030000   333400010001204104000000281Myanmar Soft-Gate Tech Yangon        MMR11006090330020002680609000000000000000   10300001F05104100000000000617000000000000     
100   62443101001072630000000000005000000000005000002000000010410406091039460005598534610609000748215534   1030000200030000   541188001369000008000000395KBZ BANK               OCEAN SUPERMA MMR11006091039460005590609000000000000000   10300001 00104100000000001250000000000000     
100   62443100396287690000000000003600000000003600002000000010410406091253080036008847720609000748249174   1030000200030000   541188001627000008000000008KBZ BANK               MARKETPLACE - MMR11006091253080036000609000000000000000   10300001 00104100000000000900000000000000     
100   62911028202161240000000000010324000000010324002000000010410406090950480136464773800609000748212800   1030000200030000   541188001023000008000000298KBZ BANK               CITY MART - M MMR11006090950480136460609000000000000000   10300001 00104100000000000619000000000000     
100   95050324411430900000000000852000000000852000002000000010410406091031100110019535810609000007305267   1010000100030000   333500010001212104000002543Internal Revenue Depar Yangon        MMR11006091031100110010609000000000000000   10300001F05104100000000060000000000000000     
100   95030314863516850000000000006000000000006000002000000010410406091233150315654773800609000007305764   1030000200030000   333800010001203104000003327KBZPay                 Yangon        MMR11006091233150315650609000000000000000   10300001F05104100000000001260000000000000     
100   95030380157605420000000000067015000000067015002000000010410406091336450015904773800609000748228825   1030000200030000   541188001488000008000000399KBZ BANK               OCEAN SUPERCE MMR11006091336450015900609000000000000000   10300001 00104100000000004021000000000000     
