100   95050315564078030000000000010000000000010000002000000010410406111250542054716920990611000007315572   1030000200030000   3338000100012031040000040022C2P (Myanmar) Co. Ltd Yangon        MMR11006111250542054710611000000000000000   10300001F05104100000000002100000000000000     
100   95030325264619140000000000078700000000078700002000000010410406110427183673124773800611342551057161   1030000300030000   555510124363104519000020166Makro Myanmar                        MMR11006110427183673120611000000000000000   10300001 00104100000000004722000000000000     
100   95050318597867880000000000005000000000005000002000000010410406110408233823704708630611000007313577   1030000200030000   333800010001203104000003327KBZPay                 Yangon        MMR11006110408233823700611000000000000000   10300001F05104100000000001050000000000000     
100   62911028202616170000000000006100000000006100002000000010410406110905434069734773800611691351543161   1030000900030000   723019001049190110000000852Beauty Diary(SYS) -1   YANGON        MMR11006110905434069730611000000000000000   10300001F00104100000000000366000000000000     
100   95030389237176000000000000013800000000013800002000000010410406110925184075204773800611064551518161   1030000900030000   541119001311190110000000968Ocean Mingalar MDY     MANDALAYHARSI MMR11006110925184075200611000000000000000   10300001F00104100000000000828000000000000     
100   95050314692738880000000000004900000000004900002000000010410406110437430743091488760611000007313743   1020000200030000   333400010001204104000000281Myanmar Soft-Gate Tech Yangon        MMR11006110437430743090611000000000000000   10300001F05104100000000001029000000000000     
100   95050328035424750000000000022600000000022600002000000010410406110517493675799155500611493481153161   1030000300030000   444410119209104519000016281VIP Bar N Restaurant                 MMR11006110517493675790611000000000000000   10300001 00104100000000009605000000000000     
100   62911028202290100000000000061000000000061000002000000010410406110547334022844773800611807171233161   1030000900030000   554119000345190110000000212New Day Energy PZD     YANGONAUNG    MMR11006110547334022840611000000000000000   10300001F00104100000000001830000000000000     
100   62443100395250310000000000000980000000000980002000000010410406111502553255131793340611000007316005   1020000200030000   333400010001204104000000281Myanmar Soft-Gate Tech Yangon        MMR11006111502553255130611000000000000000   10300001F05104100000000000206000000000000     
100   95050325925517520000000000051800000000051800002000000010410406110703084040435254860611911331308161   1030000900030000   541119000164190110000000084Pro (1) Global (Pazund YANGONARTAUNG MMR11006110703084040430611000000000000000   10300001F00104100000000012950000000000000     
100   95050311121153200000000000000980000000000980002000000010410406110450382038702630660611000007313781   1020000200030000   333400010001204104000000281Myanmar Soft-Gate Tech Yangon        MMR11006110450382038700611000000000000000   10300001F05104100000000000206000000000000     
100   95050317621139300000000000004850000000004850002000000010410406111056380979333481630611263831065947   1040001400030000   541110000255025411100002149Sein Daung Super Store Sein Daung Su MMR11006111056380979330611000000000000000   10300001 00104100000000001213000000000000     
100   95050313396828960000000000002940000000002940002000000010410406111544431443450651440611000007316096   1020000200030000   333400010001204104000000281Myanmar Soft-Gate Tech Yangon        MMR11006111544431443450611000000000000000   10300001F05104100000000000617000000000000     
100   95050314542175100000000000080000000000080000002000000010410406110505003500289240600611000007313836   1030000200030000   333800010001203104000003327KBZPay                 Yangon        MMR11006110505003500280611000000000000000   10300001F05104100000000016800000000000000     
100   95050310213446310000000000009800000000009800002000000010410406110838010801373360870611000007314671   1020000200030000   333400010001204104000000281Myanmar Soft-Gate Tech Yangon        MMR11006110838010801370611000000000000000   10300001F05104100000000002058000000000000     
100   95030367537085740000000000001960000000001960002000000010410406110746141614584773800611000007314487   1020000200030000   333400010001204104000000281Myanmar Soft-Gate Tech Yangon        MMR11006110746141614580611000000000000000   10300001F05104100000000000412000000000000     
100   62911028202077010000000000000980000000000980002000000010410406111451102110574773800611000007315972   1020000200030000   333400010001204104000000281Myanmar Soft-Gate Tech Yangon        MMR11006111451102110570611000000000000000   10300001F05104100000000000206000000000000     
100   95050314979630620000000000001960000000001960002000000010410406111535060506322303920611000007316075   1020000200030000   333400010001204104000000281Myanmar Soft-Gate Tech Yangon        MMR11006111535060506320611000000000000000   10300001F05104100000000000412000000000000     
100   95050314570621780000000000002940000000002940002000000010410406111035070507699119850611000007315096   1020000200030000   333400010001204104000000281Myanmar Soft-Gate Tech Yangon        MMR11006111035070507690611000000000000000   10300001F05104100000000000617000000000000     
100   95050316653112190000000000005000000000005000002000000010410406110409313931526361110611000007313586   1030000200030000   333800010001203104000003327KBZPay                 Yangon        MMR11006110409313931520611000000000000000   10300001F05104100000000001050000000000000     
100   95050312224678430000000000004900000000004900002000000010410406110056312631134900680611000007313026   1020000200030000   333400010001204104000000281Myanmar Soft-Gate Tech Yangon        MMR11006110056312631130611000000000000000   10300001F05104100000000001029000000000000     
100   95050315564078030000000000000980000000000980002000000010410406111037190719609034750611000007315100   1020000200030000   333400010001204104000000281Myanmar Soft-Gate Tech Yangon        MMR11006111037190719600611000000000000000   10300001F05104100000000000206000000000000     
100   95050310332595380000000000000980000000000980002000000010410406110940361036445644680611000007314881   1020000200030000   333400010001204104000000281Myanmar Soft-Gate Tech Yangon        MMR11006110940361036440611000000000000000   10300001F05104100000000000206000000000000     
100   95050322312885760000000000010000000000010000002000000010410406111155202520726240220611000007315372   1030000200030000   333800010001203104000003327KBZPay                 Yangon        MMR11006111155202520720611000000000000000   10300001F05104100000000002100000000000000     
100   62911028202616170000000000019800000000019800002000000010410406110900104068174773800611592301510161   1030000900030000   723019001049190110000000852Beauty Diary(SYS) -1   YANGON        MMR11006110900104068170611000000000000000   10300001F00104100000000001188000000000000     
100   95050312210363590000000000022000000000022000002000000010410406110415334533991233470611000007313620   1030000200030000   333800010001203104000003327KBZPay                 Yangon        MMR11006110415334533990611000000000000000   10300001F05104100000000004620000000000000     
100   62911028202355870000000001000000000001000000002000000010410406110421005100604773800611000007313661   1040001600030000   333800010001220104000004507A +                    Yangon        MMR11006110421005100600611000000000000000   10300001F05104100000000210000000000000000     
100   95050325593833300000000000021000000000021000002000000010410406111055074100603396520611778251707161   1030000900030000   541119001257190110000000957City Mart JS City Care YANGONUT      MMR11006111055074100600611000000000000000   10300001F00104100000000005250000000000000     
100   95050310427855490000000000000980000000000980002000000010410406110928525852226240360611000007314831   1020000200030000   333400010001204104000000281Myanmar Soft-Gate Tech Yangon        MMR11006110928525852220611000000000000000   10300001F05104100000000000206000000000000     
100   62911028202595200000000000079608000000079608002000000010410406111213148652934773800611216219865293   1040001600030000   598320001170000000010000527Shwe Taung Energy (YGN Yangon        MMR11006111213148652930611000000000000000   10300001F00104100000000002388000000000000     
100   95050322990383760000000000001000000000001000002000000010410406110227285728282070640611000007313218   1030000200030000   3334000100012031040000040102C2P (Myanmar) Co. Ltd Yangon        MMR11006110227285728280611000000000000000   10300001F05104100000000000210000000000000     
100   95050327192897240000000000000980000000000980002000000010410406110820255025948063040611000007314605   1020000200030000   333400010001204104000000281Myanmar Soft-Gate Tech Yangon        MMR11006110820255025940611000000000000000   10300001F05104100000000000206000000000000     
100   95030301100319290000000000004900000000004900002000000010410406111022415241354773800611000007315049   1020000200030000   333400010001204104000000281Myanmar Soft-Gate Tech Yangon        MMR11006111022415241350611000000000000000   10300001F05104100000000001029000000000000     
100   62443100330108240000000000020000000000020000002000000010410406110821135113770141000611000007314611   1030000200030000   333800010001203104000003327KBZPay                 Yangon        MMR11006110821135113770611000000000000000   10300001F05104100000000004200000000000000     
100   62911028202462200000000000088600000000088600002000000010410406111039118564924773800611216217856492   1040001600030000   591220000269000000010000257Shwe Ohh Pharmacy (Tam Yangon        MMR11006111039118564920611000000000000000   10300001F00104100000000005316000000000000     
100   95050325593833300000000000025300000000025300002000000010410406111059174101948353980611873291717161   1030000900030000   541119001243190110000000955City Mart JS C 2       YANGONUT      MMR11006111059174101940611000000000000000   10300001F00104100000000006325000000000000     
100   62443100359661970000000000045750000000045750002000000010410406111026274091262424810611116561627161   1030000900030000   541119001515190110000001102Ocean MGDTM C-8        YANGONADON    MMR11006111026274091260611000000000000000   10300001F00104100000000011438000000000000     
100   95050314950595330000000000001000000000001000002000000010410406111119454945573736910611000007315251   1030000200030000   3338000100012031040000040022C2P (Myanmar) Co. Ltd Yangon        MMR11006111119454945570611000000000000000   10300001F05104100000000000210000000000000     
100   95050311559234320000000000002940000000002940002000000010410406111023115311510857430611000007315054   1020000200030000   333400010001204104000000281Myanmar Soft-Gate Tech Yangon        MMR11006111023115311510611000000000000000   10300001F05104100000000000617000000000000     
100   95050324154190880000000000004900000000004900002000000010410406111423165316148318180611000007315886   1020000200030000   333400010001204104000000281Myanmar Soft-Gate Tech Yangon        MMR11006111423165316140611000000000000000   10300001F05104100000000001029000000000000     
100   95030301100102610000000000020000000000020000002000000010410406111229025902824773800611000007315507   1030000200030000   333800010001203104000003327KBZPay                 Yangon        MMR11006111229025902820611000000000000000   10300001F05104100000000004200000000000000     
100   95050329734064360000000000022350000000022350002000000010410406110936388514277807750611216216851427   1040001600030000   591220000272000000010000260Shwe Ohh Pharmacy ( Th Yangon        MMR11006110936388514270611000000000000000   10300001F00104100000000005364000000000000     
100   95030364439875210000000000017450000000017450002000000010410406111153274115664773800611754231827161   1030000900030000   541119001242190110000000955City Mart JS C 1       YANGONUT      MMR11006111153274115660611000000000000000   10300001F00104100000000001047000000000000     
100   95030301100122750000000000005400000000005400002000000010410406111129274109864773800611397591727161   1030000900030000   541119001200190110000000943City Mart HDC Season C YANGONUT      MMR11006111129274109860611000000000000000   10300001F00104100000000000324000000000000     
100   95050313817486860000000000004900000000004900002000000010410406110427285728536446210611000007313699   1020000200030000   333400010001204104000000281Myanmar Soft-Gate Tech Yangon        MMR11006110427285728530611000000000000000   10300001F05104100000000001029000000000000     
100   62443100379321630000000000085000000000085000002000000010410406110813048465598148130611216215846559   1040001600030000   598320000658000000010000527Shwe Taung Energy (YGN Yangon        MMR11006110813048465590611000000000000000   10300001F00104100000000010200000000000000     
100   62911028202527490000000000035000000000035000002000000010410406111040048565834773800611216217856583   1040001600030000   598320000916000000010000664MMTM - North Dagon     Ygn           MMR11006111040048565830611000000000000000   10300001F00104100000000001050000000000000     
100   62911028202696360000000000033650000000033650002000000010410406111132364110694773800611449021836161   1030000900030000   591219000601190110000000441Shwe Ohh Pharmacy St-3 YANGON        MMR11006111132364110690611000000000000000   10300001F00104100000000002019000000000000     
100   62911028202610540000000000026700000000026700002000000010410406110729419514554773800611594110839463   1040001400030000   555610000600025556100003510119 Store null No-119  Anawrahta Roa MMR11006110729419514550611000000000000000   10300001 00104100000000001602000000000000     
100   95050310427855490000000000000980000000000980002000000010410406110317154715173127450611000007313374   1020000200030000   333400010001204104000000281Myanmar Soft-Gate Tech Yangon        MMR11006110317154715170611000000000000000   10300001F05104100000000000206000000000000     
100   62911028202355870000000000500000000000500000002000000010410406110423305330684773800611000007313680   1040001600030000   333800010001220104000004507A +                    Yangon        MMR11006110423305330680611000000000000000   10300001F05104100000000105000000000000000     
100   95030393921562700000000000051200000000051200002000000010410406110327598295264773800611216210829526   1040001600030000   591220000626000000010000497AAA Pharmacy           Ygn           MMR11006110327598295260611000000000000000   10300001F00104100000000003072000000000000     
100   62911028202293090000000000031000000000031000002000000010410406110352438307484773800611216210830748   1040001600030000   591220000273000000010000261Shwe Ohh Pharmacy (WZY Yangon        MMR11006110352438307480611000000000000000   10300001F00104100000000001860000000000000     
100   62911028202355870000000001000000000001000000002000000010410406110422045204874773800611000007313669   1040001600030000   333800010001220104000004507A +                    Yangon        MMR11006110422045204870611000000000000000   10300001F05104100000000210000000000000000     
100   62443100313112320000000000014000000000014000002000000010410406102314388191831936100611216206819183   1040001600030000   598320000317000000010000305PT Power Petrol Statio Yangon        MMR11006102314388191830611000000000000000   10300001F00104100000000001680000000000000     
100   95050314355878900000000000050000000000050000002000000010410406110425565556104878820611000007313690   1030000200030000   333800010001203104000003327KBZPay                 Yangon        MMR11006110425565556100611000000000000000   10300001F05104100000000010500000000000000     
100   95050319978637470000000000028300000000028300002000000010410406110331468771910077770611014668071933   1040001400030000   541110000390025411100002149Sein Daung Super Store Sein Daung Su MMR11006110331468771910611000000000000000   10300001 00104100000000007075000000000000     
100   95050311959900780000000000000980000000000980002000000010410406111238000800878488370611000007315531   1020000200030000   333400010001204104000000281Myanmar Soft-Gate Tech Yangon        MMR11006111238000800870611000000000000000   10300001F05104100000000000206000000000000     
100   62911028202750390000000000002940000000002940002000000010410406110650242024764773800611000007314303   1020000200030000   333400010001204104000000281Myanmar Soft-Gate Tech Yangon        MMR11006110650242024760611000000000000000   10300001F05104100000000000617000000000000     
100   95050310409767690000000000000980000000000980002000000010410406111350142014699970670611000007315764   1020000200030000   333400010001204104000000281Myanmar Soft-Gate Tech Yangon        MMR11006111350142014690611000000000000000   10300001F05104100000000000206000000000000     
100   95050317084233280000000000002940000000002940002000000010410406111158282828599545180611000007315381   1020000200030000   333400010001204104000000281Myanmar Soft-Gate Tech Yangon        MMR11006111158282828590611000000000000000   10300001F05104100000000000617000000000000     
100   62443101037081820000000000123400000000123400002000000010410406111421414146696665700611680512041161   1030000900030000   581219001391190110000000996King BBQ sayarsan      YANGON        MMR11006111421414146690611000000000000000   10300001F00104100000000052445000000000000     
100   95050324411430900000000000045000000000045000002000000010410406110219048260457113190611216209826045   1040001600030000   598320001170000000010000527Shwe Taung Energy (YGN Yangon        MMR11006110219048260450611000000000000000   10300001F00104100000000005400000000000000     
100   62911028202907490000000000062400000000062400002000000010410406110706388429114773800611216214842911   1040001600030000   591220000299000000010000287Shwe Ohh Pharmacy (Yan Yangon        MMR11006110706388429110611000000000000000   10300001F00104100000000003744000000000000     
100   62443100306028540000000000008300000000008300002000000010410406111027054091574077300611137571605161   1030000900030000   541119001373190110000000979Ocean PZD City Care C- YANGONAUNG    MMR11006111027054091570611000000000000000   10300001F00104100000000002075000000000000     
100   62911028202355870000000001000000000001000000002000000010410406110420465046634773800611000007313660   1040001600030000   333800010001220104000004507A +                    Yangon        MMR11006110420465046630611000000000000000   10300001F05104100000000210000000000000000     
100   95050325630928770000000000000980000000000980002000000010410406110716384638250212310611000007314381   1020000200030000   333400010001204104000000281Myanmar Soft-Gate Tech Yangon        MMR11006110716384638250611000000000000000   10300001F05104100000000000206000000000000     
100   95050312498129060000000000002940000000002940002000000010410406110829255925806665840611000007314636   1020000200030000   333400010001204104000000281Myanmar Soft-Gate Tech Yangon        MMR11006110829255925800611000000000000000   10300001F05104100000000000617000000000000     
100   62911028202130710000000000040000000000040000002000000010410406111119368602994773800611216218860299   1040001600030000   598320000659000000010000528Shwe Taung Energy (YGN Yangon        MMR11006111119368602990611000000000000000   10300001F00104100000000001200000000000000     
100   95050320205194540000000000031300000000031300002000000010410406111146258627517807610611216218862751   1040001600030000   591220000288000000010000276Shwe Ohh Pharmacy (Nor Yangon        MMR11006111146258627510611000000000000000   10300001F00104100000000007512000000000000     
100   95050312498129060000000000002940000000002940002000000010410406111524525452933445820611000007316056   1020000200030000   333400010001204104000000281Myanmar Soft-Gate Tech Yangon        MMR11006111524525452930611000000000000000   10300001F05104100000000000617000000000000     
100   62911028202506770000000000030000000000030000002000000010410406110444168337164773800611216211833716   1040001600030000   598320001170000000010000527Shwe Taung Energy (YGN Yangon        MMR11006110444168337160611000000000000000   10300001F00104100000000000900000000000000     
100   62443100376865460000000000004600000000004600002000000010410406110312268287446432420611216210828744   1040001600030000   591220000271000000010000259Shwe Ohh Pharmacy (Gwa Yangon        MMR11006110312268287440611000000000000000   10300001F00104100000000001104000000000000     
100   95050325925517520000000000011150000000011150002000000010410406110727148439976907340611216214843997   1040001600030000   591220000285000000010000273Shwe Ohh Pharmacy (47t Yangon        MMR11006110727148439970611000000000000000   10300001F00104100000000002676000000000000     
100   62911028202462200000000000211550000000211550002000000010410406110529398366454773800611216212836645   1040001600030000   591220000279000000010000267Shwe Ohh Pharmacy (Ar  Yangon        MMR11006110529398366450611000000000000000   10300001F00104100000000012693000000000000     
100   95030301100122750000000000040400000000040400002000000010410406111124484108794773800611329541748161   1030000900030000   541119001191190110000000942City Mart HDC C 6      YANGONUT      MMR11006111124484108790611000000000000000   10300001F00104100000000002424000000000000     
100   62443100371022130000000000016280000000016280002000000010410406111326454136933701120611107561945161   1030000900030000   581219001443190110000001047Noodle Bowl Sayarsan   YANGON        MMR11006111326454136930611000000000000000   10300001F00104100000000006919000000000000     
100   62911028202023630000000000032000000000032000002000000010410406110636148410704773800611216213841070   1040001600030000   598320000660000000010000529Shwe Taung Energy (NPT Naypyitaw     MMR11006110636148410700611000000000000000   10300001F00104100000000000960000000000000     
100   95030367537085740000000000000980000000000980002000000010410406111313184318824773800611000007315646   1020000200030000   333400010001204104000000281Myanmar Soft-Gate Tech Yangon        MMR11006111313184318820611000000000000000   10300001F05104100000000000206000000000000     
100   62911028202789750000000000019700000000019700002000000010410406110250568276504773800611216209827650   1040001600030000   591220000271000000010000259Shwe Ohh Pharmacy (Gwa Yangon        MMR11006110250568276500611000000000000000   10300001F00104100000000001182000000000000     
100   62443100317500820000000000005000000000005000002000000010410406101139390000301899790610000349587301   1030000300030000   581200002397000000000001619CB BANK                SP BAKERY(NOR MMR11006101139390000300610000000000000000   10300001F00104100000000002125000000000000     
100   62443100333488440000000000005900000000005900002000000010410406100845460000824771860610000349563934   1030000300030000   531100001408000000000000962CB BANK                G & G CONVENI MMR11006100845460000820610000000000000000   10300001F00104100000000001416000000000000     
100   95050317043153610000000000007700000000007700002000000010410406101156040032752701970610000349589510   1030000300030000   729800001742000000000001247CB BANK                ART & T8      MMR11006101156040032750610000000000000000   10300001F00104100000000001848000000000000     
100   62443100371022130000000000046000000000046000002000000010410406101018560047926083300610000349576366   1030000300030000   598300001210000000000000817CB BANK                SHWE TAUNG EN MMR11006101018560047920610000000000000000   10300001F00104100000000005520000000000000     
100   95030378062733680000000000020000000000020000002000000010410406100734457698404773800610216114769840   1040001600030000   598320000326000000010000314PT Power Petrol Statio Nay Pyi Taw   MMR11006100734457698400610000000000000000   10300001F00104100000000000600000000000000     
100   62443100300743690000000000017822000000017822002000000010410406101317107958956723360610216120795895   1040001600030000   541120000555000000010000465Ocean Shwe Gone Daing  Yangon        MMR11006101317107958950610000000000000000   10300001F00104100000000004456000000000000     
100   95050313817486860000000000016609000000016609002000000010410406111245560009937332830611000748332306   1030000200030000   541188001431000008000000401KBZ BANK               OCEAN SUPERCE MMR11006111245560009930611000000000000000   10300001 00104100000000004153000000000000     
100   95050326028605570000000000021900000000021900002000000010410406111248220026365680340611000748332413   1030000200030000   541188001480000008000000399KBZ BANK               OCEAN SUPERCE MMR11006111248220026360611000000000000000   10300001 00104100000000005475000000000000     
100   62443100354437180000000000154550000000154550002000000010410406110251238276741560060611216209827674   1040001600030000   591220001200000000010000908Shwe Ohh Pharmacy (Thu Ygn           MMR11006110251238276740611000000000000000   10300001F00104100000000037092000000000000     
100   95050316818236190000000000000980000000000980002000000010410406110113474347756553170611000007313051   1020000200030000   333400010001204104000000281Myanmar Soft-Gate Tech Yangon        MMR11006110113474347750611000000000000000   10300001F05104100000000000206000000000000     
100   62443100379321630000000000077000000000077000002000000010410406110452168341780893080611216211834178   1040001600030000   598320001170000000010000527Shwe Taung Energy (YGN Yangon        MMR11006110452168341780611000000000000000   10300001F00104100000000009240000000000000     
100   62911028202248050000000000029900000000029900002000000010410406111102524103114773800611953321752161   1030000900030000   541119001329190110000000971Ocean Junction NPT C 7 NAYPYITAW     MMR11006111102524103110611000000000000000   10300001F00104100000000001794000000000000     
100   95030364439875210000000000006500000000006500002000000010410406111105444103934773800611002351744161   1030000900030000   581219001134190110000000915Gamone in Tea House    YANGONUT      MMR11006111105444103930611000000000000000   10300001F00104100000000000663000000000000     
100   62911028202355870000000001000000000001000000002000000010410406110421415141234773800611000007313666   1040001600030000   333800010001220104000004507A +                    Yangon        MMR11006110421415141230611000000000000000   10300001F05104100000000210000000000000000     
100   95050321848852460000000000326751000000326751002000000010410406112058390123558403280611000748352910   1030000200030000   541188001002000008000000008KBZ BANK               MARKETPLACE - MMR11006112058390123550611000000000000000   10300001 00104100000000081688000000000000     
100   95050322104201170000000000027000000000027000002000000010410406111200593059039630280611000007315388   1030000200030000   333800010001203104000003327KBZPay                 Yangon        MMR11006111200593059030611000000000000000   10300001F05104100000000005670000000000000     
100   95050326028605570000000000091486000000091486002000000010410406111254190026376737150611000748332697   1030000200030000   541188001480000008000000399KBZ BANK               OCEAN SUPERCE MMR11006111254190026370611000000000000000   10300001 00104100000000022872000000000000     
100   95030301100216560000000000046000000000046000002000000010410406110625300002304773800611000748332758   1030000200030000   509488002506000008000006706KBZ BANK               SHWE SAN EAIN MMR11006110625300002300611000000000000000   10300001 00104100000000004600000000000000     
100   62443100306028540000000000048000000000048000002000000010410406110838390008943275780611000748338794   1030000200030000   569988001630000008000005150KBZ BANK               YDG OFFICE    MMR11006110838390008940611000000000000000   10300001 00104100000000011520000000000000     
100   62911028202907490000000000018500000000018500002000000010410406110619160011474773800611000748332458   1030000200030000   596588002422000008000006477KBZ BANK               AMERICAN COLL MMR11006110619160011470611000000000000000   10300001 00104100000000001110000000000000     
100   95050312855530910000000000050008000000050008002000000010410406110406130004529666080611000748326132   1030000200030000   594488000253000008000002280KBZ BANK               PWINT HTUN GO MMR11006110406130004520611000000000000000   10300001 00104100000000012002000000000000     
100   95030327835334700000000000010300000000010300002000000010410406111946150101124773800611000748351540   1030000200030000   541188001245000008000000323KBZ BANK               CITY MART - I MMR11006111946150101120611000000000000000   10300001 00104100000000000618000000000000     
100   95050322990383760000000000001000000000001000002000000010410406110231240124183723120611000007313236   1030000200030000   3334000100012031040000040102C2P (Myanmar) Co. Ltd Yangon        MMR11006110231240124180611000000000000000   10300001F05104100000000000210000000000000     
100   95050311718887830000000000000980000000000980002000000010410406111431390139006750800611000007315918   1020000200030000   333400010001204104000000281Myanmar Soft-Gate Tech Yangon        MMR11006111431390139000611000000000000000   10300001F05104100000000000206000000000000     
100   95050312498129060000000000000980000000000980002000000010410406111107513751925049010611000007315214   1020000200030000   333400010001204104000000281Myanmar Soft-Gate Tech Yangon        MMR11006111107513751920611000000000000000   10300001F05104100000000000206000000000000     
100   62911028202161240000000000016499000000016499002000000010410406111021030375574773800611000748325443   1030000200030000   541188001024000008000000298KBZ BANK               CITY MART - M MMR11006111021030375570611000000000000000   10300001 00104100000000000990000000000000     
100   95050312498129060000000000000980000000000980002000000010410406111146511651087892700611000007315344   1020000200030000   333400010001204104000000281Myanmar Soft-Gate Tech Yangon        MMR11006111146511651080611000000000000000   10300001F05104100000000000206000000000000     
100   95050327416134790000000000001960000000001960002000000010410406111257562756370225950611000007315590   1020000200030000   333400010001204104000000281Myanmar Soft-Gate Tech Yangon        MMR11006111257562756370611000000000000000   10300001F05104100000000000412000000000000     
100   95050313843656520000000000000980000000000980002000000010410406110937030703562850290611000007314862   1020000200030000   333400010001204104000000281Myanmar Soft-Gate Tech Yangon        MMR11006110937030703560611000000000000000   10300001F05104100000000000206000000000000     
100   95050317071956460000000000019600000000019600002000000010410406110639090909231609500611000007314256   1020000200030000   333400010001204104000000281Myanmar Soft-Gate Tech Yangon        MMR11006110639090909230611000000000000000   10300001F05104100000000004116000000000000     
100   95050319331315630000000000004900000000004900002000000010410406111119544954008779460611000007315252   1020000200030000   333400010001204104000000281Myanmar Soft-Gate Tech Yangon        MMR11006111119544954000611000000000000000   10300001F05104100000000001029000000000000     
100   95050319144542320000000000030000000000030000002000000010410406110541591159896020720611000007313995   1030000200030000   333800010001203104000003327KBZPay                 Yangon        MMR11006110541591159890611000000000000000   10300001F05104100000000006300000000000000     
100   95050315066440750000000000000980000000000980002000000010410406110634060406158304540611000007314229   1020000200030000   333400010001204104000000281Myanmar Soft-Gate Tech Yangon        MMR11006110634060406150611000000000000000   10300001F05104100000000000206000000000000     
100   62911028202166940000000000039725000000039725002000000010410406111759080106304773800611000748347484   1030000200030000   541188001128000008000000296KBZ BANK               CITY MART - J MMR11006111759080106300611000000000000000   10300001 00104100000000002384000000000000     
100   95050317518971470000000000010000000000010000002000000010410406111130210021836410410611000007315291   1030000200030000   3338000100012031040000040022C2P (Myanmar) Co. Ltd Yangon        MMR11006111130210021830611000000000000000   10300001F05104100000000002100000000000000     
100   62911028202161240000000000061038000000061038002000000010410406111153030239304773800611000748329501   1030000200030000   541188001007000008000000008KBZ BANK               MARKETPLACE - MMR11006111153030239300611000000000000000   10300001 00104100000000003662000000000000     
100   95050310283518110000000000021150000000021150002000000010410406112002570054277006080611000748351898   1030000200030000   541188001440000008000000401KBZ BANK               OCEAN SUPERCE MMR11006112002570054270611000000000000000   10300001 00104100000000005288000000000000     
100   62911028202485490000000000019891000000019891002000000010410406111421040152234773800611000748336575   1030000200030000   541188001056000008000000314KBZ BANK               MARKETPLACE - MMR11006111421040152230611000000000000000   10300001 00104100000000001194000000000000     
100   95050317919176400000000000022350000000022350002000000010410406112021360073494928120611000748352186   1030000200030000   541188001316000008000000306KBZ BANK               CITY MART - S MMR11006112021360073490611000000000000000   10300001 00104100000000005588000000000000     
100   95050316785465380000000000000980000000000980002000000010410406110933310331056155270611000007314850   1020000200030000   333400010001204104000000281Myanmar Soft-Gate Tech Yangon        MMR11006110933310331050611000000000000000   10300001F05104100000000000206000000000000     
100   62911028202417000000000000015850000000015850002000000010410406111008044086074773800611768381604161   1030000900030000   541119001208190110000000948City Mart YK C 6       YANGONAUNG    MMR11006111008044086070611000000000000000   10300001F00104100000000000951000000000000     
100   95050327285327260000000000074050000000074050002000000010410406110936394078244502780611257061639161   1030000900030000   541119001353190110000000977Ocean PZD C 7          YANGONAUNG    MMR11006110936394078240611000000000000000   10300001F00104100000000018513000000000000     
100   62443100323117100000000000025000000000025000002000000010410406111125285528738694360611000007315274   1030000200030000   333800010001203104000003327KBZPay                 Yangon        MMR11006111125285528730611000000000000000   10300001F05104100000000005250000000000000     
100   62443100306882420000000000120000000000120000002000000010410406111146411641366155120611000007315339   1030000200030000   333800010001203104000003327KBZPay                 Yangon        MMR11006111146411641360611000000000000000   10300001F05104100000000025200000000000000     
100   95050316818236190000000000000980000000000980002000000010410406111102173217560091560611000007315192   1020000200030000   333400010001204104000000281Myanmar Soft-Gate Tech Yangon        MMR11006111102173217560611000000000000000   10300001F05104100000000000206000000000000     
100   95050314534800510000000000000980000000000980002000000010410406110133350335607879060611000007313094   1020000200030000   333400010001204104000000281Myanmar Soft-Gate Tech Yangon        MMR11006110133350335600611000000000000000   10300001F05104100000000000206000000000000     
100   95050314020354280000000000008400000000008400002000000010410406111828530178501282770611000748348904   1030000200030000   541188001304000008000000325KBZ BANK               CITY MART - A MMR11006111828530178500611000000000000000   10300001 00104100000000002100000000000000     
100   95050322083768590000000000047440000000047440002000000010410406111719540118218524170611000748345466   1030000200030000   541188001303000008000000325KBZ BANK               CITY MART - A MMR11006111719540118210611000000000000000   10300001 00104100000000011860000000000000     
100   95050314557307430000000000001960000000001960002000000010410406110642331233201524410611000007314273   1020000200030000   333400010001204104000000281Myanmar Soft-Gate Tech Yangon        MMR11006110642331233200611000000000000000   10300001F05104100000000000412000000000000     
100   95050323133124350000000000002940000000002940002000000010410406110954302430247212070611000007314935   1020000200030000   333400010001204104000000281Myanmar Soft-Gate Tech Yangon        MMR11006110954302430240611000000000000000   10300001F05104100000000000617000000000000     
100   95050312224678430000000000000980000000000980002000000010410406111300133013991963530611000007315596   1020000200030000   333400010001204104000000281Myanmar Soft-Gate Tech Yangon        MMR11006111300133013990611000000000000000   10300001F05104100000000000206000000000000     
100   95050317621139300000000000004800000000004800002000000010410406111051242683550176650611212410678516   1040001400030000   541110000366025411100002149Sein Daung Super Store Sein Daung Su MMR11006111051242683550611000000000000000   10300001 00104100000000001200000000000000     
100   95050315066440750000000000000980000000000980002000000010410406110637300730594914480611000007314247   1020000200030000   333400010001204104000000281Myanmar Soft-Gate Tech Yangon        MMR11006110637300730590611000000000000000   10300001F05104100000000000206000000000000     
100   62443101028043880000000000059850000000059850002000000010410406110629013679476652050611698571241161   1030000300030000   555510124364104519000020166Makro Myanmar                        MMR11006110629013679470611000000000000000   10300001 00104100000000014364000000000000     
100   95030301100119620000000000056100000000056100002000000010410406110615363678774773800611661441229161   1030000300030000   555510124697104519000020166Makro Myanmar                        MMR11006110615363678770611000000000000000   10300001 00104100000000003366000000000000     
100   95050310427855490000000000000980000000000980002000000010410406110533450345466105820611000007313955   1020000200030000   333400010001204104000000281Myanmar Soft-Gate Tech Yangon        MMR11006110533450345460611000000000000000   10300001F05104100000000000206000000000000     
100   95050318242219520000000000000980000000000980002000000010410406110947231723602254620611000007314903   1020000200030000   333400010001204104000000281Myanmar Soft-Gate Tech Yangon        MMR11006110947231723600611000000000000000   10300001F05104100000000000206000000000000     
100   95050314565805350000000000032000000000032000002000000010410406110858512851867637560611000007314742   1030000200030000   333800010001203104000003327KBZPay                 Yangon        MMR11006110858512851860611000000000000000   10300001F05104100000000006720000000000000     
100   95050310213446310000000000009800000000009800002000000010410406110752392239350127210611000007314514   1020000200030000   333400010001204104000000281Myanmar Soft-Gate Tech Yangon        MMR11006110752392239350611000000000000000   10300001F05104100000000002058000000000000     
100   62443100363668680000000000093450000000093450002000000010410406110542153676997162630611573101250161   1030000300030000   555510124697104519000020166Makro Myanmar                        MMR11006110542153676990611000000000000000   10300001 00104100000000022428000000000000     
100   95050310427855490000000000003920000000003920002000000010410406111056182618531829140611000007315174   1020000200030000   333400010001204104000000281Myanmar Soft-Gate Tech Yangon        MMR11006111056182618530611000000000000000   10300001F05104100000000000823000000000000     
100   62911028202136750000000000147200000000147200002000000010410406110824453685424773800611044531450161   1030000300030000   555510124871104519000020166Makro Myanmar                        MMR11006110824453685420611000000000000000   10300001 00104100000000008832000000000000     
100   62911028202202580000000000027650000000027650002000000010410406110259423982424773800611350290942161   1030000900030000   591219000504190110000000351Shwe Ohh Pharmacy - (Y YANGONAW      MMR11006110259423982420611000000000000000   10300001F00104100000000001659000000000000     
100   62911028202484810000000000050000000000050000002000000010410406110838444062634773800611228081544161   1030000900030000   554119000345190110000000212New Day Energy PZD     YANGONAUNG    MMR11006110838444062630611000000000000000   10300001F00104100000000001500000000000000     
100   95050311131833760000000000030000000000030000002000000010410406111241491149588573470611000007315544   1030000200030000   333800010001203104000003327KBZPay                 Yangon        MMR11006111241491149580611000000000000000   10300001F05104100000000006300000000000000     
100   95050319709462380000000000000980000000000980002000000010410406111409533953083275640611000007315847   1020000200030000   333400010001204104000000281Myanmar Soft-Gate Tech Yangon        MMR11006111409533953080611000000000000000   10300001F05104100000000000206000000000000     
100   62911028202484990000000000029500000000029500002000000010410406110316103986644773800611591460910161   1030000900030000   541119001079190110000000872Sein Gay Har Hledan    YANGONUT      MMR11006110316103986640611000000000000000   10300001F00104100000000001770000000000000     
100   95050312360118350000000000029000000000029000002000000010410406110942451245037297170611000007314884   1030000200030000   333800010001203104000003327KBZPay                 Yangon        MMR11006110942451245030611000000000000000   10300001F05104100000000006090000000000000     
100   95050311959900780000000000000980000000000980002000000010410406111239490949636835890611000007315539   1020000200030000   333400010001204104000000281Myanmar Soft-Gate Tech Yangon        MMR11006111239490949630611000000000000000   10300001F05104100000000000206000000000000     
