100   62911028202793040000000000005000000000005000002000000010410406120011044104134773800612000007316435   1030000200030000   3334000100012031040000040102C2P (Myanmar) Co. Ltd Yangon        MMR11006120011044104130612000000000000000   10300001F05104100000000001050000000000000     
100   95050311547837790000000000013500000000013500002000000010410406120732124278692581080612926021412162   1030000900030000   541119001222190110000000945City Mart TM C 7       YANGONONE     MMR11006120732124278690612000000000000000   10300001F00104100000000003375000000000000     
100   95050310397364970000000000000980000000000980002000000010410406121038170817483942610612000007318399   1020000200030000   333400010001204104000000281Myanmar Soft-Gate Tech Yangon        MMR11006121038170817480612000000000000000   10300001F05104100000000000206000000000000     
100   95050310332595380000000000000980000000000980002000000010410406120305253525827928360612000007316813   1020000200030000   333400010001204104000000281Myanmar Soft-Gate Tech Yangon        MMR11006120305253525820612000000000000000   10300001F05104100000000000206000000000000     
100   95050318214455130000000000002940000000002940002000000010410406120955342534234112810612000007318259   1020000200030000   333400010001204104000000281Myanmar Soft-Gate Tech Yangon        MMR11006120955342534230612000000000000000   10300001F05104100000000000617000000000000     
100   95050316586367540000000000004900000000004900002000000010410406121312124212954864890612000007318944   1020000200030000   333400010001204104000000281Myanmar Soft-Gate Tech Yangon        MMR11006121312124212950612000000000000000   10300001F05104100000000001029000000000000     
100   95050316785465380000000000001960000000001960002000000010410406120756332633469361200612000007317868   1020000200030000   333400010001204104000000281Myanmar Soft-Gate Tech Yangon        MMR11006120756332633460612000000000000000   10300001F05104100000000000412000000000000     
100   95050310427855490000000000002940000000002940002000000010410406120554552455570772190612000007317439   1020000200030000   333400010001204104000000281Myanmar Soft-Gate Tech Yangon        MMR11006120554552455570612000000000000000   10300001F05104100000000000617000000000000     
100   95050320559934420000000000819000000000819000002000000010410406120436240005180602000612000748369912   1030000200030000   573288000079000008000003881KBZ BANK               WAI YAN ELECT MMR11006120436240005180612000000000000000   10300001 00104100000000196560000000000000     
100   95030301100337010000000000018800000000018800002000000010410406120357060016114773800612000748368273   1030000200030000   569988000804000008000004617KBZ BANK               JCY-TFS       MMR11006120357060016110612000000000000000   10300001 00104100000000001128000000000000     
100   95050310719071210000000000005300000000005300002000000010410406121113060010743906960612000748370220   1030000200030000   541188001448000008000000401KBZ BANK               OCEAN SUPERCE MMR11006121113060010740612000000000000000   10300001 00104100000000001325000000000000     
100   62443100385534140000000000130000000000130000002000000010410406120758280000178219300612000748379435   1030000200030000   701188001728000008000005216KBZ BANK               NOVOTEL INLE  MMR11006120758280000170612000000000000000   10300001 00104100000000055250000000000000     
100   62443100385534140000000000026102000000026102002000000010410406121321190000188169860612000748392927   1030000200030000   701188001731000008000005219KBZ BANK               TERRACE RESTA MMR11006121321190000180612000000000000000   10300001 00104100000000011094000000000000     
100   95050312482469810000000000015100000000015100002000000010410406121559500016193687320612000748383751   1030000200030000   541188001287000008000000472KBZ BANK               NEIGHBOURHOOD MMR11006121559500016190612000000000000000   10300001 00104100000000003775000000000000     
100   95050320092651450000000000005000000000005000002000000010410406121522220100066737010612000748382016   1030000200030000   541188001033000008000000298KBZ BANK               CITY MART - M MMR11006121522220100060612000000000000000   10300001 00104100000000001250000000000000     
100   62911028202130710000000000001600000000001600002000000010410406121827270163194773800612000748390485   1030000200030000   541188001306000008000000325KBZ BANK               CITY MART - A MMR11006121827270163190612000000000000000   10300001 00104100000000000096000000000000     
100   95050319996628650000000000000980000000000980002000000010410406121332290229479907440612000007319012   1020000200030000   333400010001204104000000281Myanmar Soft-Gate Tech Yangon        MMR11006121332290229470612000000000000000   10300001F05104100000000000206000000000000     
100   95050312792817170000000000000980000000000980002000000010410406121531200120192957120612000007319339   1020000200030000   333400010001204104000000281Myanmar Soft-Gate Tech Yangon        MMR11006121531200120190612000000000000000   10300001F05104100000000000206000000000000     
100   62443101023815100000000000053527000000053527002000000010410406121246480239835899830612000748374723   1030000200030000   541188001007000008000000008KBZ BANK               MARKETPLACE - MMR11006121246480239830612000000000000000   10300001 00104100000000013382000000000000     
100   95050324247403260000000000027420000000027420002000000010410406121652130131218900070612000748386237   1030000200030000   541188001127000008000000296KBZ BANK               CITY MART - J MMR11006121652130131210612000000000000000   10300001 00104100000000006855000000000000     
100   62911028202807400000000000063850000000063850002000000010410406121546540101344773800612000748383097   1030000200030000   541188001245000008000000323KBZ BANK               CITY MART - I MMR11006121546540101340612000000000000000   10300001 00104100000000003831000000000000     
100   95050312498129060000000000002940000000002940002000000010410406120930500050258644780612000007318189   1020000200030000   333400010001204104000000281Myanmar Soft-Gate Tech Yangon        MMR11006120930500050250612000000000000000   10300001F05104100000000000617000000000000     
100   62443101053241940000000000026950000000026950002000000010410406120855130030770041970612000748382138   1030000200030000   581288000389000008000002776KBZ BANK               RANGOON TEA H MMR11006120855130030770612000000000000000   10300001 00104100000000011454000000000000     
100   62911028202668140000000000018000000000018000002000000010410406121845520146514773800612000748391108   1030000200030000   541188001047000008000000010KBZ BANK               MARKETPLACE - MMR11006121845520146510612000000000000000   10300001 00104100000000001080000000000000     
100   62911028202218350000000000012202000000012202002000000010410406121651540203654773800612000748386225   1030000200030000   541188001080000008000000294KBZ BANK               CITY MART - J MMR11006121651540203650612000000000000000   10300001 00104100000000000732000000000000     
100   95030301100125070000000000039250000000039250002000000010410406121513160074774773800612000748381580   1030000200030000   541188001064000008000000314KBZ BANK               MARKETPLACE - MMR11006121513160074770612000000000000000   10300001 00104100000000002355000000000000     
100   95050311077567400000000000005000000000005000002000000010410406120331080108497673070612000007316890   1030000900030000   333400010001202104000002022ACS                    Yangon        MMR11006120331080108490612000000000000000   10300001F05104100000000001050000000000000     
100   95050315752234130000000000037953000000037953002000000010410406121143040036307297030612000748371614   1030000200030000   541188001454000008000000391KBZ BANK               OCEAN SUPER C MMR11006121143040036300612000000000000000   10300001 00104100000000009489000000000000     
100   62443100343196790000000000027150000000027150002000000010410406122008040045466176990612000748393230   1030000200030000   541188001463000008000000391KBZ BANK               OCEAN SUPER C MMR11006122008040045460612000000000000000   10300001 00104100000000006788000000000000     
100   95030367537085740000000000000980000000000980002000000010410406121332380238604773800612000007319013   1020000200030000   333400010001204104000000281Myanmar Soft-Gate Tech Yangon        MMR11006121332380238600612000000000000000   10300001F05104100000000000206000000000000     
100   62911028202471860000000000025350000000025350002000000010410406121923460238654773800612000748392205   1030000200030000   541188001001000008000000008KBZ BANK               MARKETPLACE - MMR11006121923460238650612000000000000000   10300001 00104100000000001521000000000000     
100   95050312675525330000000000023000000000023000002000000010410406120442581258278949510612000007317196   1030000200030000   333800010001203104000003327KBZPay                 Yangon        MMR11006120442581258270612000000000000000   10300001F05104100000000004830000000000000     
100   62911028202077010000000000000980000000000980002000000010410406111649341934464773800612000007316203   1020000200030000   333400010001204104000000281Myanmar Soft-Gate Tech Yangon        MMR11006111649341934460612000000000000000   10300001F05104100000000000206000000000000     
100   95050324154190880000000000002940000000002940002000000010410406120152072207262729400612000007316611   1020000200030000   333400010001204104000000281Myanmar Soft-Gate Tech Yangon        MMR11006120152072207260612000000000000000   10300001F05104100000000000617000000000000     
100   95050316573091630000000000080900000000080900002000000010410406120553133736439034610612776211247162   1030000300030000   555510124362104519000020166Makro Myanmar                        MMR11006120553133736430612000000000000000   10300001 00104100000000019416000000000000     
100   95050314327553180000000000100000000000100000002000000010410406120908203820816311520612000007318124   1030000200030000   333800010001203104000003327KBZPay                 Yangon        MMR11006120908203820810612000000000000000   10300001F05104100000000021000000000000000     
100   95050314692738880000000000002940000000002940002000000010410406120946431643550297260612000007318236   1020000200030000   333400010001204104000000281Myanmar Soft-Gate Tech Yangon        MMR11006120946431643550612000000000000000   10300001F05104100000000000617000000000000     
100   95050314557307430000000000002940000000002940002000000010410406120255062506716034370612000007316796   1020000200030000   333400010001204104000000281Myanmar Soft-Gate Tech Yangon        MMR11006120255062506710612000000000000000   10300001F05104100000000000617000000000000     
100   95050318057347910000000000000980000000000980002000000010410406120558012801374077160612000007317448   1020000200030000   333400010001204104000000281Myanmar Soft-Gate Tech Yangon        MMR11006120558012801370612000000000000000   10300001F05104100000000000206000000000000     
100   95050315158357300000000000004000000000004000002000000010410406121353352335009567050612000007319089   1030000200030000   333800010001203104000003327KBZPay                 Yangon        MMR11006121353352335000612000000000000000   10300001F05104100000000000840000000000000     
100   95030306100096490000000000001960000000001960002000000010410406120138340834234773800612000007316576   1020000200030000   333400010001204104000000281Myanmar Soft-Gate Tech Yangon        MMR11006120138340834230612000000000000000   10300001F05104100000000000412000000000000     
100   95050325455962190000000000001960000000001960002000000010410406120154192419611076920612000007316615   1020000200030000   333400010001204104000000281Myanmar Soft-Gate Tech Yangon        MMR11006120154192419610612000000000000000   10300001F05104100000000000412000000000000     
100   62911028202243420000000000097900000000097900002000000010410406120513044244604773800612712431104162   1030000900030000   591219000796190110000000628Shwe Ohh Pharmacy ST-3 YANGONMYOTHIT MMR11006120513044244600612000000000000000   10300001F00104100000000005874000000000000     
100   62443100300412100000000000023450000000023450002000000010410406120711524273295886040612577411352162   1030000900030000   541119001154190110000000930OCEAN HTY C 4          YANGONTHARYA  MMR11006120711524273290612000000000000000   10300001F00104100000000005863000000000000     
100   95050311184380560000000000002940000000002940002000000010410406120633490349481098790612000007317584   1020000200030000   333400010001204104000000281Myanmar Soft-Gate Tech Yangon        MMR11006120633490349480612000000000000000   10300001F05104100000000000617000000000000     
100   95050317343045830000000000000980000000000980002000000010410406120400053005981488610612000007317021   1020000200030000   333400010001204104000000281Myanmar Soft-Gate Tech Yangon        MMR11006120400053005980612000000000000000   10300001F05104100000000000206000000000000     
100   62443100328070970000000000020900000000020900002000000010410406120948473748842460320612472171621162   1030000300030000   555510124358104519000020166Makro Myanmar                        MMR11006120948473748840612000000000000000   10300001 00104100000000005016000000000000     
100   62911028202446700000000000013000000000013000002000000010410406120258492849934773800612000007316803   1030000500030000   333800010001201104000003863AYA Pay                Yangon        MMR11006120258492849930612000000000000000   10300001F05104100000000002730000000000000     
100   62911028202197630000000000043871000000043871002000000010410406120544194251754773800612168141219162   1030000900030000   541119001218190110000000945City Mart TM C 3       YANGONONE     MMR11006120544194251750612000000000000000   10300001F00104100000000002632000000000000     
100   62911028202132460000000000033750000000033750002000000010410406120647314266564773800612143171331162   1030000900030000   541119001203190110000000948City Mart YK C 1       YANGONAUNG    MMR11006120647314266560612000000000000000   10300001F00104100000000002025000000000000     
100   62911028202539600000000000026200000000026200002000000010410406120558054255124773800612389281205162   1030000900030000   591219000603190110000000443Shwe Ohh Pharmacy St-8 YANGON        MMR11006120558054255120612000000000000000   10300001F00104100000000001572000000000000     
100   62911028202523840000000001195900000001195900002000000010410406120744384282044773800612144141438162   1030000900030000   573219001179190110000000935UNIQUE Seikkanthar     YANGONADA     MMR11006120744384282040612000000000000000   10300001F00104100000000071754000000000000     
100   95050320092651450000000000049589000000049589002000000010410406121546420376214744140612000748383093   1030000200030000   541188001025000008000000298KBZ BANK               CITY MART - M MMR11006121546420376210612000000000000000   10300001 00104100000000012398000000000000     
100   95050310213446310000000000000980000000000980002000000010410406120552162216155729640612000007317430   1020000200030000   333400010001204104000000281Myanmar Soft-Gate Tech Yangon        MMR11006120552162216150612000000000000000   10300001F05104100000000000206000000000000     
100   62911028202805260000000000050000000000050000002000000010410406120252302230614773800612000007316770   1030000200030000   333800010001203104000003327KBZPay                 Yangon        MMR11006120252302230610612000000000000000   10300001F05104100000000010500000000000000     
100   95050311076838860000000000009750000000009750002000000010410406120631204262389446300612855011320162   1030000900030000   541119000546190110000000394Super One ShoppingMall YANGON        MMR11006120631204262380612000000000000000   10300001F00104100000000002438000000000000     
100   95050319528093960000000000002940000000002940002000000010410406120334580458491063130612000007316903   1020000200030000   333400010001204104000000281Myanmar Soft-Gate Tech Yangon        MMR11006120334580458490612000000000000000   10300001F05104100000000000617000000000000     
100   95050316818236190000000000002940000000002940002000000010410406120807003700431524270612000007317917   1020000200030000   333400010001204104000000281Myanmar Soft-Gate Tech Yangon        MMR11006120807003700430612000000000000000   10300001F05104100000000000617000000000000     
100   95050319111666800000000000000980000000000980002000000010410406120337530753377843260612000007316923   1020000200030000   333400010001204104000000281Myanmar Soft-Gate Tech Yangon        MMR11006120337530753370612000000000000000   10300001F05104100000000000206000000000000     
100   95050313168701670000000000000980000000000980002000000010410406121306033603346517370612000007318924   1020000200030000   333400010001204104000000281Myanmar Soft-Gate Tech Yangon        MMR11006121306033603340612000000000000000   10300001F05104100000000000206000000000000     
100   62911028202594880000000000060953000000060953002000000010410406120115214200114773800612227450721162   1030000900030000   581219000714190110000000545Akkhaya Tea House(Yank YANGON        MMR11006120115214200110612000000000000000   10300001F00104100000000006217000000000000     
100   62911028202795770000000000016050000000016050002000000010410406121743490376324773800612000748388749   1030000200030000   541188001025000008000000298KBZ BANK               CITY MART - M MMR11006121743490376320612000000000000000   10300001 00104100000000000963000000000000     
100   95050310427855490000000000000980000000000980002000000010410406121239540954961389730612000007318854   1020000200030000   333400010001204104000000281Myanmar Soft-Gate Tech Yangon        MMR11006121239540954960612000000000000000   10300001F05104100000000000206000000000000     
100   95050312498129060000000000002940000000002940002000000010410406120138120812985523790612000007316572   1020000200030000   333400010001204104000000281Myanmar Soft-Gate Tech Yangon        MMR11006120138120812980612000000000000000   10300001F05104100000000000617000000000000     
100   62911028202402980000000000125000000000125000002000000010410406120300444216714773800612003300944162   1030000900030000   591219000500190110000000347Shwe Ohh Pharmacy -  ( YANGONUNG     MMR11006120300444216710612000000000000000   10300001F00104100000000007500000000000000     
100   95050322312885760000000000010000000000010000002000000010410406121534290429731304630612000007319349   1030000200030000   333800010001203104000003327KBZPay                 Yangon        MMR11006121534290429730612000000000000000   10300001F05104100000000002100000000000000     
100   95030367537085740000000000002940000000002940002000000010410406120947061706514773800612000007318238   1020000200030000   333400010001204104000000281Myanmar Soft-Gate Tech Yangon        MMR11006120947061706510612000000000000000   10300001F05104100000000000617000000000000     
100   62443100306028540000000000150000000000150000002000000010410406121140213754501049340612820081854162   1030000300030000   555510124358104519000020166Makro Myanmar                        MMR11006121140213754500612000000000000000   10300001 00104100000000036000000000000000     
100   95050312498129060000000000000980000000000980002000000010410406120657302730891268970612000007317663   1020000200030000   333400010001204104000000281Myanmar Soft-Gate Tech Yangon        MMR11006120657302730890612000000000000000   10300001F05104100000000000206000000000000     
100   95050317343045830000000000000980000000000980002000000010410406120401463146326531160612000007317026   1020000200030000   333400010001204104000000281Myanmar Soft-Gate Tech Yangon        MMR11006120401463146320612000000000000000   10300001F05104100000000000206000000000000     
100   62911028202228250000000000024200000000024200002000000010410406120942033748494773800612452111601162   1030000300030000   555510124691104519000020166Makro Myanmar                        MMR11006120942033748490612000000000000000   10300001 00104100000000001452000000000000     
100   95050312498129060000000000001960000000001960002000000010410406121012114211279240450612000007318323   1020000200030000   333400010001204104000000281Myanmar Soft-Gate Tech Yangon        MMR11006121012114211270612000000000000000   10300001F05104100000000000412000000000000     
100   95050311382087030000000000014700000000014700002000000010410406120938220822320467450612000007318205   1020000200030000   333400010001204104000000281Myanmar Soft-Gate Tech Yangon        MMR11006120938220822320612000000000000000   10300001F05104100000000003087000000000000     
100   95050314931885730000000000001960000000001960002000000010410406120512394239542339570612000007317295   1020000200030000   333400010001204104000000281Myanmar Soft-Gate Tech Yangon        MMR11006120512394239540612000000000000000   10300001F05104100000000000412000000000000     
100   62911028202590580000000000017500000000017500002000000010410406121231250375944773800612000748373960   1030000200030000   541188001025000008000000298KBZ BANK               CITY MART - M MMR11006121231250375940612000000000000000   10300001 00104100000000001050000000000000     
100   95050311931431670000000000009800000000009800002000000010410406120913524352199701590612000007318138   1020000200030000   333400010001204104000000281Myanmar Soft-Gate Tech Yangon        MMR11006120913524352190612000000000000000   10300001F05104100000000002058000000000000     
100   95050314950595330000000000010000000000010000002000000010410406111820055005162389020612000007316299   1030000200030000   3338000100012031040000040022C2P (Myanmar) Co. Ltd Yangon        MMR11006111820055005160612000000000000000   10300001F05104100000000002100000000000000     
100   62443100330108240000000000030000000000030000002000000010410406120523485348238694220612000007317332   1030000200030000   333800010001203104000003327KBZPay                 Yangon        MMR11006120523485348230612000000000000000   10300001F05104100000000006300000000000000     
100   62443100313112320000000000026001000000026001002000000010410406121140109353972701820612216318935397   1040001600030000   598320000317000000010000305PT Power Petrol Statio Yangon        MMR11006121140109353970612000000000000000   10300001F00104100000000003120000000000000     
100   62911028202169750000000000017600000000017600002000000010410406120955039265144773800612216316926514   1040001600030000   541120000561000000010000465Ocean Shwe Gone Daing  Yangon        MMR11006120955039265140612000000000000000   10300001F00104100000000001056000000000000     
100   95050320624349010000000000050000000000050000002000000010410406120324399034994708490612216310903499   1040001600030000   598320000916000000010000664MMTM - North Dagon     Ygn           MMR11006120324399034990612000000000000000   10300001F00104100000000006000000000000000     
100   62911028202795770000000000018250000000018250002000000010410406121731570054364773800612000748388130   1030000200030000   541188001031000008000000298KBZ BANK               CITY MART - M MMR11006121731570054360612000000000000000   10300001 00104100000000001095000000000000     
100   95030301100022270000000000012000000000012000002000000010410406120937574311424773800612120071657162   1030000900030000   554119000345190110000000212New Day Energy PZD     YANGONAUNG    MMR11006120937574311420612000000000000000   10300001F00104100000000000360000000000000     
100   95050327416134790000000000004900000000004900002000000010410406121515094509531219530612000007319301   1020000200030000   333400010001204104000000281Myanmar Soft-Gate Tech Yangon        MMR11006121515094509530612000000000000000   10300001F05104100000000001029000000000000     
100   95030360829747230000000000030000000000030000002000000010410406120708079167184773800612216314916718   1040001600030000   598320000838000000010000600Regency Petrol Station Ygn           MMR11006120708079167180612000000000000000   10300001F00104100000000000900000000000000     
100   95030379578686440000000000038822000000038822002000000010410406121108379326574773800612216318932657   1040001600030000   541120000560000000010000465Ocean Shwe Gone Daing  Yangon        MMR11006121108379326570612000000000000000   10300001F00104100000000002329000000000000     
100   62911028202793040000000000002400000000002400002000000010410406120913154304544773800612649431515162   1030000900030000   541119001519190110000001102Ocean MGDTM C-12       YANGONADON    MMR11006120913154304540612000000000000000   10300001F00104100000000000144000000000000     
100   95050315053846650000000000050000000000050000002000000010410406120922185218026481720612000007318161   1030000200030000   333800010001203104000003327KBZPay                 Yangon        MMR11006120922185218020612000000000000000   10300001F05104100000000010500000000000000     
100   95050314557307430000000000001960000000001960002000000010410406120615174517047552310612000007317517   1020000200030000   333400010001204104000000281Myanmar Soft-Gate Tech Yangon        MMR11006120615174517040612000000000000000   10300001F05104100000000000412000000000000     
100   95050311275575990000000000090000000000090000002000000010410406120914284428921439170612000007318139   1030000200030000   333800010001203104000003327KBZPay                 Yangon        MMR11006120914284428920612000000000000000   10300001F05104100000000018900000000000000     
100   62911028202154800000000000011150000000011150002000000010410406120444294238394773800612316141129162   1030000900030000   541119001265190110000000958City Mart PLST C 8     YANGONMYOTHIT MMR11006120444294238390612000000000000000   10300001F00104100000000000669000000000000     
100   95050312962334280000000000000980000000000980002000000010410406121043181318655680200612000007318421   1020000200030000   333400010001204104000000281Myanmar Soft-Gate Tech Yangon        MMR11006121043181318650612000000000000000   10300001F05104100000000000206000000000000     
100   95050313710136610000000000007840000000007840002000000010410406120424085408025474350612000007317122   1020000200030000   333400010001204104000000281Myanmar Soft-Gate Tech Yangon        MMR11006120424085408020612000000000000000   10300001F05104100000000001646000000000000     
100   95050312498129060000000000002940000000002940002000000010410406120227265726450906730612000007316702   1020000200030000   333400010001204104000000281Myanmar Soft-Gate Tech Yangon        MMR11006120227265726450612000000000000000   10300001F05104100000000000617000000000000     
100   62911028202523430000000000027950000000027950002000000010410406120420249065544773800612216311906554   1040001600030000   591220000274000000010000262Shwe Ohh Pharmacy (Shw Yangon        MMR11006120420249065540612000000000000000   10300001F00104100000000001677000000000000     
100   95030379578686440000000000014900000000014900002000000010410406120759519197394773800612216314919739   1040001600030000   591220000279000000010000267Shwe Ohh Pharmacy (Ar  Yangon        MMR11006120759519197390612000000000000000   10300001F00104100000000000894000000000000     
100   62443100306028540000000000150000000000150000002000000010410406121142163754606091890612832101853162   1030000300030000   555510124358104519000020166Makro Myanmar                        MMR11006121142163754600612000000000000000   10300001 00104100000000036000000000000000     
100   62443100315110470000000000008650000000008650002000000010410406120916194305568134200612721461519162   1030000900030000   541119001364190110000000977Ocean PZD C18          YANGONAUNG    MMR11006120916194305560612000000000000000   10300001F00104100000000002163000000000000     
100   95050324800108530000000000047157000000047157002000000010410406121215534351362531640612746451853162   1030000900030000   541119001295190110000000968Ocean Mingalar MDY C 3 MANDALAYHARSI MMR11006121215534351360612000000000000000   10300001F00104100000000011790000000000000     
100   62443100382109160000000000050000000000050000002000000010410406120423165316347126840612000007317119   1030000200030000   333800010001203104000003327KBZPay                 Yangon        MMR11006120423165316340612000000000000000   10300001F05104100000000010500000000000000     
100   95050312781844250000000000020000000000020000002000000010410406120415254525086616250612000007317092   1030000200030000   333800010001203104000003327KBZPay                 Yangon        MMR11006120415254525080612000000000000000   10300001F05104100000000004200000000000000     
100   95050316818236190000000000000980000000000980002000000010410406120814394439129956880612000007317944   1020000200030000   333400010001204104000000281Myanmar Soft-Gate Tech Yangon        MMR11006120814394439120612000000000000000   10300001F05104100000000000206000000000000     
100   62911028202795770000000000026000000000026000002000000010410406121131039345844773800612216318934584   1040001600030000   598320001170000000010000527Shwe Taung Energy (YGN Yangon        MMR11006121131039345840612000000000000000   10300001F00104100000000000780000000000000     
100   95030306100096490000000000000980000000000980002000000010410406121253202320124773800612000007318886   1020000200030000   333400010001204104000000281Myanmar Soft-Gate Tech Yangon        MMR11006121253202320120612000000000000000   10300001F05104100000000000206000000000000     
100   95050312287957830000000000034682000000034682002000000010410406121130534341397744370612131001853162   1030000900030000   581219000981190110000000788Jo Jo Hot Pot (KTY)    YANGONARTAUNG MMR11006121130534341390612000000000000000   10300001F00104100000000014740000000000000     
100   95050311121153200000000000000980000000000980002000000010410406121025325532037247580612000007318360   1020000200030000   333400010001204104000000281Myanmar Soft-Gate Tech Yangon        MMR11006121025325532030612000000000000000   10300001F05104100000000000206000000000000     
100   95050321848852460000000000069014000000069014002000000010410406121256529422734779790612216319942273   1040001600030000   598320000310000000010000298PT Power Petrol Statio Yangon        MMR11006121256529422730612000000000000000   10300001F00104100000000008282000000000000     
100   95030301100324550000000000010300000000010300002000000010410406120938514311654773800612136081651162   1030000900030000   541119001281190110000000963City Mart SPL C6       YANGONMYOTHIT MMR11006120938514311650612000000000000000   10300001F00104100000000000618000000000000     
100   62911028202499350000000000011055000000011055002000000010410406120905524302634773800612515351552162   1030000900030000   541119001195190110000000942City Mart HDC C 10     YANGONUT      MMR11006120905524302630612000000000000000   10300001F00104100000000000663000000000000     
100   95050326094581320000000000029100000000029100002000000010410406121223134353318084760612868531813162   1030000900030000   541119001529190110000001107Ocean MGDTM-Season C-2 YANGONADON    MMR11006121223134353310612000000000000000   10300001F00104100000000007275000000000000     
100   95050311959900780000000000000980000000000980002000000010410406120323325332406360960612000007316860   1020000200030000   333400010001204104000000281Myanmar Soft-Gate Tech Yangon        MMR11006120323325332400612000000000000000   10300001F05104100000000000206000000000000     
100   62443100382109160000000000050000000000050000002000000010410406120627405740870857290612000007317559   1030000200030000   333800010001203104000003327KBZPay                 Yangon        MMR11006120627405740870612000000000000000   10300001F05104100000000010500000000000000     
100   95050324800108530000000000031500000000031500002000000010410406121212074350507574180612687421807162   1030000900030000   541119001295190110000000968Ocean Mingalar MDY C 3 MANDALAYHARSI MMR11006121212074350500612000000000000000   10300001F00104100000000007875000000000000     
100   95050326094581320000000000011954000000011954002000000010410406121218014351809737240612770481801162   1030000900030000   541119001510190110000001102Ocean MGDTM-C 3        YANGONADON    MMR11006121218014351800612000000000000000   10300001F00104100000000002989000000000000     
100   95050312695033440000000000002940000000002940002000000010410406120824185418434999430612000007317997   1020000200030000   333400010001204104000000281Myanmar Soft-Gate Tech Yangon        MMR11006120824185418430612000000000000000   10300001F05104100000000000617000000000000     
100   95050322426452690000000000045000000000045000002000000010410406120537049111013736770612216312911101   1040001600030000   598320000320000000010000308PT Power Petrol Statio Yangon        MMR11006120537049111010612000000000000000   10300001F00104100000000005400000000000000     
100   62911028202595200000000000045407000000045407002000000010410406120422499066884773800612216311906688   1040001600030000   598320001170000000010000527Shwe Taung Energy (YGN Yangon        MMR11006120422499066880612000000000000000   10300001F00104100000000001362000000000000     
100   95050315110306410000000000003000000000003000002000000010410406112354332433340821630612000007316422   1030000200030000   333800010001203104000003327KBZPay                 Yangon        MMR11006112354332433340612000000000000000   10300001F05104100000000000630000000000000     
100   62911028202793040000000000028888000000028888002000000010410406120909424303494773800612575391542162   1030000900030000   541119001519190110000001102Ocean MGDTM C-12       YANGONADON    MMR11006120909424303490612000000000000000   10300001F00104100000000001733000000000000     
100   95050316949180000000000000000980000000000980002000000010410406121513324332627914560612000007319297   1020000200030000   333400010001204104000000281Myanmar Soft-Gate Tech Yangon        MMR11006121513324332620612000000000000000   10300001F05104100000000000206000000000000     
100   62911028202023630000000000053000000000053000002000000010410406120357259052244773800612216310905224   1040001600030000   598320000658000000010000527Shwe Taung Energy (YGN Yangon        MMR11006120357259052240612000000000000000   10300001F00104100000000001590000000000000     
100   62911028202204490000000000013100000000013100002000000010410406120903404301814773800612465331540162   1030000900030000   581219000715190110000000546Akkhaya Tea House(Dago YANGON        MMR11006120903404301810612000000000000000   10300001F00104100000000001336000000000000     
100   95050325925517520000000000052010000000052010002000000010410406120643319152212751270612216313915221   1040001600030000   598320000310000000010000298PT Power Petrol Statio Yangon        MMR11006120643319152210612000000000000000   10300001F00104100000000006241000000000000     
100   95050328246950960000000000135252000000135252002000000010410406120644229152794488850612216313915279   1040001600030000   541120000561000000010000465Ocean Shwe Gone Daing  Yangon        MMR11006120644229152790612000000000000000   10300001F00104100000000033813000000000000     
100   95050320047636150000000000075000000000075000002000000010410406120543509115311027480612216312911531   1040001600030000   806220000001000000010000001Victoria Hospital      Yangon        MMR11006120543509115310612000000000000000   10300001F00104100000000018000000000000000     
100   95050312287957830000000000015042000000015042002000000010410406121027074324812290130612038571607162   1030000900030000   581219000981190110000000788Jo Jo Hot Pot (KTY)    YANGONARTAUNG MMR11006121027074324810612000000000000000   10300001F00104100000000006393000000000000     
100   95050315166583130000000000005000000000005000002000000010410406121017314731012630520612000007318338   1030000200030000   333800010001203104000003327KBZPay                 Yangon        MMR11006121017314731010612000000000000000   10300001F05104100000000001050000000000000     
100   95050326094581320000000000009150000000009150002000000010410406121202134348349141570612556321813162   1030000900030000   571219001537190110000001113Pro 1 Plus Store-2     YANGONADON    MMR11006121202134348340612000000000000000   10300001F00104100000000002196000000000000     
100   95030301100103940000000000010300000000010300002000000010410406111500270003554773800611000349776417   1030000300030000   531100001410000000000000964CB BANK                G & G CONVENI MMR11006111500270003550611000000000000000   10300001F00104100000000000618000000000000     
100   95050318242219520000000000006000000000006000002000000010410406110751590001385084670611000349722656   1030000300030000   531100001326000000000000915CB BANK                G & G CONVENI MMR11006110751590001380611000000000000000   10300001F00104100000000001440000000000000     
100   62443100396287690000000000006100000000006100002000000010410406110558100002632034990611000349708303   1030000300030000   581200001513000000000001062CB BANK                YKKO(BAHAN)   MMR11006110558100002630611000000000000000   10300001F00104100000000002593000000000000     
100   95030301100121270000000000014500000000014500002000000010410406110916220000334773800611000349733671   1030000300030000   581200002155000000000001427CB BANK                CAFE' AMAZON( MMR11006110916220000330611000000000000000   10300001F00104100000000001479000000000000     
100   95030308100042590000000000015000000000015000002000000010410406110810570028334773800611000349725099   1030000300030000   581400000692000000000000478CB BANK                KFC PARAMI SG MMR11006110810570028330611000000000000000   10300001F00104100000000000450000000000000     
100   62911028202284260000000000033000000000033000002000000010410406110944188518824773800611216216851882   1040001600030000   569920001263000000010000969CLOTHIX                Ygn           MMR11006110944188518820611000000000000000   10300001F00104100000000001980000000000000     
100   95050318048516790000000000030000000000030000002000000010410406120029565956808743660612000007316459   1030000200030000   333800010001203104000003327KBZPay                 Yangon        MMR11006120029565956800612000000000000000   10300001F05104100000000006300000000000000     
100   62911028202031710000000000072490000000072490002000000010410406121422570344704773800612000748379192   1030000200030000   541188001039000008000000010KBZ BANK               MARKETPLACE - MMR11006121422570344700612000000000000000   10300001 00104100000000004349000000000000     
100   62911028202154800000000000037600000000037600002000000010410406120428239070004773800612216311907000   1040001600030000   591220000288000000010000276Shwe Ohh Pharmacy (Nor Yangon        MMR11006120428239070000612000000000000000   10300001F00104100000000002256000000000000     
100   95050324154190880000000000002940000000002940002000000010410406111653232323169084050612000007316207   1020000200030000   333400010001204104000000281Myanmar Soft-Gate Tech Yangon        MMR11006111653232323160612000000000000000   10300001F05104100000000000617000000000000     
100   62911028202674810000000000119200000000119200002000000010410406120908533746784773800612359371536162   1030000300030000   555510124691104519000020166Makro Myanmar                        MMR11006120908533746780612000000000000000   10300001 00104100000000007152000000000000     
100   95050316818236190000000000001960000000001960002000000010410406120947141714473602230612000007318232   1020000200030000   333400010001204104000000281Myanmar Soft-Gate Tech Yangon        MMR11006120947141714470612000000000000000   10300001F05104100000000000412000000000000     
100   95050323349421940000000000020000000000020000002000000010410406120524405440180431800612000007317337   1030000200030000   333800010001203104000003327KBZPay                 Yangon        MMR11006120524405440180612000000000000000   10300001F05104100000000004200000000000000     
100   62911028202057540000000000031880000000031880002000000010410406120957194316644773800612474271619162   1030000900030000   541119001186190110000000942City Mart HDC C 1      YANGONUT      MMR11006120957194316640612000000000000000   10300001F00104100000000001913000000000000     
100   95050324247403260000000000082000000000082000002000000010410406121647190112980892940612000748386018   1030000200030000   541188001132000008000000296KBZ BANK               CITY MART - J MMR11006121647190112980612000000000000000   10300001 00104100000000020500000000000000     
100   62911028202366010000000000136000000000136000002000000010410406111422550060204773800611000748336690   1030000200030000   596588000900000008000000712KBZ BANK               AK CONCEPT SH MMR11006111422550060200611000000000000000   10300001 00104100000000008160000000000000     
