100   62911028202225850000000000006000000000006000002000000010410406101321280096834773800610000748285171   1030000200030000   541188001060000008000000314KBZ BANK               MARKETPLACE - MMR11006101321280096830610000000000000000   10300001 00104100000000000360000000000000     
100   95050327416134790000000000001960000000001960002000000010410406101336030603965411260610000007312135   1020000200030000   333400010001204104000000281Myanmar Soft-Gate Tech Yangon        MMR11006101336030603960610000000000000000   10300001F05104100000000000412000000000000     
100   62911028202121560000000000030500000000030500002000000010410406101929240034434773800610000748308095   1030000200030000   581288000947000008000004873KBZ BANK               PIZZA HUT RES MMR11006101929240034430610000000000000000   10300001 00104100000000003111000000000000     
100   62443101064466810000000000035000000000035000002000000010410406100933490349621120140610000007311082   1030000900030000   333400010001202104000002022ACS                    Yangon        MMR11006100933490349620610000000000000000   10300001F05104100000000007350000000000000     
100   95050321848852460000000001550682000001550682002000000010410406100734200420695949420610000007310106   1010000100030000   333500010001212104000002543Internal Revenue Depar Yangon        MMR11006100734200420690610000000000000000   10300001F05104100000000060000000000000000     
100   95050310652791070000000000100000000000100000002000000010410406100258552855758845350610000007307467   1030000200030000   333800010001203104000003327KBZPay                 Yangon        MMR11006100258552855750610000000000000000   10300001F05104100000000021000000000000000     
100   62911028202788350000000000010000000000010000002000000010410406101104483448714773800610000007311609   1030000200030000   333800010001203104000003327KBZPay                 Yangon        MMR11006101104483448710610000000000000000   10300001F05104100000000002100000000000000     
100   62911028202170490000000000038700000000038700002000000010410406100945033630974773800610106141600160   1030000300030000   555510124697104519000020166Makro Myanmar                        MMR11006100945033630970610000000000000000   10300001 00104100000000002322000000000000     
100   95030301100126890000000000034500000000034500002000000010410406101100283634604773800610318291757160   1030000300030000   555510115261104519000013127Trendi Fashion Shop                  MMR11006101100283634600610000000000000000   10300001 00104100000000002070000000000000     
100   62911028202287310000000000039700000000039700002000000010410406100739523799494773800610026091452160   1030000900030000   541119001189190110000000942City Mart HDC C 4      YANGONUT      MMR11006100739523799490610000000000000000   10300001F00104100000000002382000000000000     
100   95050322312885760000000000007000000000007000002000000010410406100345051505977495290610000007307996   1030000200030000   333800010001203104000003327KBZPay                 Yangon        MMR11006100345051505970610000000000000000   10300001F05104100000000001470000000000000     
100   62911028202077010000000000000980000000000980002000000010410406101508013801134773800610000007312479   1020000200030000   333400010001204104000000281Myanmar Soft-Gate Tech Yangon        MMR11006101508013801130610000000000000000   10300001F05104100000000000206000000000000     
100   95050317317598540000000000002000000000002000002000000010410406101347301730830453810610000007312168   1030000200030000   333800010001203104000003327KBZPay                 Yangon        MMR11006101347301730830610000000000000000   10300001F05104100000000000420000000000000     
100   95030352597917530000000000002000000000002000002000000010410406100753132313914773800610000007310315   1030000200030000   333800010001203104000003327KBZPay                 Yangon        MMR11006100753132313910610000000000000000   10300001F05104100000000000420000000000000     
100   62911028202187730000000000150000000000150000002000000010410406100347033613504773800610153151054160   1030000300030000   555510124687104519000020166Makro Myanmar                        MMR11006100347033613500610000000000000000   10300001 00104100000000009000000000000000     
100   95030360829747230000000000096500000000096500002000000010410406100920433825494773800610378501543160   1030000900030000   541119001250190110000000955City Mart JS C 9       YANGONUT      MMR11006100920433825490610000000000000000   10300001F00104100000000005790000000000000     
100   95030301100121270000000000097250000000097250002000000010410406100934353829544773800610614041635160   1030000900030000   541119001263190110000000958City Mart PLST C 6     YANGONMYOTHIT MMR11006100934353829540610000000000000000   10300001F00104100000000005835000000000000     
100   95050312695033440000000000002940000000002940002000000010410406100356192619295793370610000007308123   1020000200030000   333400010001204104000000281Myanmar Soft-Gate Tech Yangon        MMR11006100356192619290610000000000000000   10300001F05104100000000000617000000000000     
100   95050310397364970000000000000980000000000980002000000010410406101157452745569397000610000007311786   1020000200030000   333400010001204104000000281Myanmar Soft-Gate Tech Yangon        MMR11006101157452745560610000000000000000   10300001F05104100000000000206000000000000     
100   95050319111666800000000000000980000000000980002000000010410406101306513651181680810610000007312040   1020000200030000   333400010001204104000000281Myanmar Soft-Gate Tech Yangon        MMR11006101306513651180610000000000000000   10300001F05104100000000000206000000000000     
100   62911028202170490000000000036500000000036500002000000010410406101017153842164773800610322471615160   1030000900030000   541119000158190110000000084Pro (1) Global (Pazund YANGONARTAUNG MMR11006101017153842160610000000000000000   10300001F00104100000000002190000000000000     
100   95050312224678430000000000001960000000001960002000000010410406101305003500490113420610000007312033   1020000200030000   333400010001204104000000281Myanmar Soft-Gate Tech Yangon        MMR11006101305003500490610000000000000000   10300001F05104100000000000412000000000000     
100   62911028202286990000000000028666000000028666002000000010410406100722213624034773800610744511312160   1030000300030000   555510114764104519000012710S and P Distribution C Ltd           MMR11006100722213624030610000000000000000   10300001 00104100000000001720000000000000     
100   62911028202610540000000000010800000000010800002000000010410406100553313771944773800610495231231160   1030000900030000   581219000931190110000000740Shwe Palin City Mall   YANGONAW      MMR11006100553313771940610000000000000000   10300001F00104100000000001102000000000000     
100   95050312224678430000000000004900000000004900002000000010410406100846281628771466890610000007310723   1020000200030000   333400010001204104000000281Myanmar Soft-Gate Tech Yangon        MMR11006100846281628770610000000000000000   10300001F05104100000000001029000000000000     
100   95050314248160600000000000097000000000097000002000000010410406101055292529167573660610000007311558   1030000200030000   333800010001203104000003327KBZPay                 Yangon        MMR11006101055292529160610000000000000000   10300001F05104100000000020370000000000000     
100   62443100313112320000000000150000000000150000002000000010410406101122243635638850090610381511701160   1030000300030000   555510124688104519000020166Makro Myanmar                        MMR11006101122243635630610000000000000000   10300001 00104100000000036000000000000000     
100   62911028202610540000000000001300000000001300002000000010410406100619073778594773800610871491207160   1030000900030000   581219000931190110000000740Shwe Palin City Mall   YANGONAW      MMR11006100619073778590610000000000000000   10300001F00104100000000000133000000000000     
100   95050312224678430000000000000980000000000980002000000010410406101252492249805155970610000007311981   1020000200030000   333400010001204104000000281Myanmar Soft-Gate Tech Yangon        MMR11006101252492249800610000000000000000   10300001F05104100000000000206000000000000     
100   95050315439834520000000000050000000000050000002000000010410406100856252625314091090610000007310802   1030000200030000   333800010001203104000003327KBZPay                 Yangon        MMR11006100856252625310610000000000000000   10300001F05104100000000010500000000000000     
100   95050312498129060000000000001960000000001960002000000010410406101303553355965070870610000007312027   1020000200030000   333400010001204104000000281Myanmar Soft-Gate Tech Yangon        MMR11006101303553355960610000000000000000   10300001F05104100000000000412000000000000     
100   62911028202421380000000000044800000000044800002000000010410406100505103761374773800610953351110160   1030000900030000   723019001053190110000000856The Body Shop JC       YANGONN       MMR11006100505103761370610000000000000000   10300001F00104100000000002688000000000000     
100   62911028202023630000000000056100000000056100002000000010410406100915513824014773800610308451551160   1030000900030000   541119001330190110000000971Ocean Junction NPT C 8 NAYPYITAW     MMR11006100915513824010610000000000000000   10300001F00104100000000003366000000000000     
100   62443100344229520000000000044397000000044397002000000010410406101238023885477404130610917081902160   1030000900030000   541119001281190110000000963City Mart SPL C6       YANGONMYOTHIT MMR11006101238023885470610000000000000000   10300001F00104100000000011100000000000000     
100   95050310427855490000000000001960000000001960002000000010410406091647281728111471970610000007306556   1020000200030000   333400010001204104000000281Myanmar Soft-Gate Tech Yangon        MMR11006091647281728110610000000000000000   10300001F05104100000000000412000000000000     
100   95050312498129060000000000004900000000004900002000000010410406100302053205371469600610000007307495   1020000200030000   333400010001204104000000281Myanmar Soft-Gate Tech Yangon        MMR11006100302053205370610000000000000000   10300001F05104100000000001029000000000000     
100   95050319156544340000000000099000000000099000002000000010410406100102553255520195500610000007306929   1030000200030000   333800010001203104000003327KBZPay                 Yangon        MMR11006100102553255520610000000000000000   10300001F05104100000000020790000000000000     
100   62911028202150190000000000033196000000033196002000000010410406100821113626864773800610887501417160   1030000300030000   555510118558104519000015799S and P Distribution C Ltd           MMR11006100821113626860610000000000000000   10300001 00104100000000001992000000000000     
100   95050311121153200000000000010000000000010000002000000010410406101349271927500368710610000007312175   1030000200030000   333800010001203104000003327KBZPay                 Yangon        MMR11006101349271927500610000000000000000   10300001F05104100000000002100000000000000     
100   62911028202449440000000000089650000000089650002000000010410406100603173620034773800610522311253160   1030000300030000   555510124359104519000020166Makro Myanmar                        MMR11006100603173620030610000000000000000   10300001 00104100000000005379000000000000     
100   95030301100126890000000000017500000000017500002000000010410406101113263635214773800610352431711160   1030000300030000   555510115261104519000013127Trendi Fashion Shop                  MMR11006101113263635210610000000000000000   10300001 00104100000000001050000000000000     
100   62911028202499680000000000024250000000024250002000000010410406100531033766944773800610240011203160   1030000900030000   541119001462190110000000077Sein Gay Har Chinatown YANGON        MMR11006100531033766940610000000000000000   10300001F00104100000000001455000000000000     
100   95050310332595380000000000002940000000002940002000000010410406100039070907407145830610000007306889   1020000200030000   333400010001204104000000281Myanmar Soft-Gate Tech Yangon        MMR11006100039070907400610000000000000000   10300001F05104100000000000617000000000000     
100   62911028202788350000000000015000000000015000002000000010410406101250472047944773800610000007311967   1030000200030000   333800010001203104000003327KBZPay                 Yangon        MMR11006101250472047940610000000000000000   10300001F05104100000000003150000000000000     
100   95050311382087030000000000012000000000012000002000000010410406100953222322412317850610000007311258   1030000200030000   333800010001203104000003327KBZPay                 Yangon        MMR11006100953222322410610000000000000000   10300001F05104100000000002520000000000000     
100   95050320205194540000000000064400000000064400002000000010410406101150073871211049490610043201807160   1030000900030000   541119001267190110000000958City Mart PLST C 10    YANGONMYOTHIT MMR11006101150073871210610000000000000000   10300001F00104100000000016100000000000000     
100   95050310427855490000000000001960000000001960002000000010410406100846041604269814410610000007310722   1020000200030000   333400010001204104000000281Myanmar Soft-Gate Tech Yangon        MMR11006100846041604260610000000000000000   10300001F05104100000000000412000000000000     
100   95050322312885760000000000007000000000007000002000000010410406100850032003079218740610000007310750   1030000200030000   333800010001203104000003327KBZPay                 Yangon        MMR11006100850032003070610000000000000000   10300001F05104100000000001470000000000000     
100   62911028202150190000000000002672000000002672002000000010410406100822233626964773800610895511433160   1030000300030000   555510118558104519000015799S and P Distribution C Ltd           MMR11006100822233626960610000000000000000   10300001 00104100000000000160000000000000     
100   62911028202916630000000000629900000000629900002000000010410406100641303784744773800610230111330160   1030000900030000   573219001178190110000000934UNIQUE Pansodan        YANGONADA     MMR11006100641303784740610000000000000000   10300001F00104100000000037794000000000000     
100   95050314893649800000000000001960000000001960002000000010410406101352322232112021200610000007312182   1020000200030000   333400010001204104000000281Myanmar Soft-Gate Tech Yangon        MMR11006101352322232110610000000000000000   10300001F05104100000000000412000000000000     
100   95050329698388160000000000300000000000300000002000000010410406100746181618817006230610000007310234   1030000200030000   333800010001203104000003327KBZPay                 Yangon        MMR11006100746181618810610000000000000000   10300001F05104100000000063000000000000000     
100   62911028202788350000000000010000000000010000002000000010410406100800353035144773800610000007310383   1030000200030000   333800010001203104000003327KBZPay                 Yangon        MMR11006100800353035140610000000000000000   10300001F05104100000000002100000000000000     
100   62911028202665170000000000043900000000043900002000000010410406100511553617544773800610392401136160   1030000300030000   555510124688104519000020166Makro Myanmar                        MMR11006100511553617540610000000000000000   10300001 00104100000000002634000000000000     
100   95050316433375340000000000270000000000270000002000000010410406100532143767186381560610255021214160   1030000900030000   594419001585190110000001156Zwe Htet Gems & Jewell YANGON        MMR11006100532143767180610000000000000000   10300001F00104100000000064800000000000000     
100   62911028202099050000000000005700000000005700002000000010410406100607493775334773800610678371249160   1030000900030000   541119001248190110000000955City Mart JS C 7       YANGONUT      MMR11006100607493775330610000000000000000   10300001F00104100000000000342000000000000     
100   62911028202074950000000000012200000000012200002000000010410406090251060003764773800609216009000376   1030000500030000   531120226308000045311202263OCEAN SUPER CENTER STJ PTN           MMR11006090251060003760609000000000000000   10300001 00104100000000000732000000000000     
100   62911028202161240000000000020000000000020000002000000010410406090446300043384773800609216011004338   1030000500030000   598320001203000015172200012MAX ENERGY             PTN           MMR11006090446300043380609000000000000000   10300001 00104100000000000600000000000000     
100   62443100313002190000000000045000000000045000002000000010410406090339260518944172830609216003051894   1030000600030000   554100001001315799420000498DENKO SHWE PYI THAR    YANGON        MMR11006090339260518940609000000000000000   10300001 00104100000000005400000000000000     
100   95050310427855490000000000002940000000002940002000000010410406101606203620510283620610000007312605   1020000200030000   333400010001204104000000281Myanmar Soft-Gate Tech Yangon        MMR11006101606203620510610000000000000000   10300001F05104100000000000617000000000000     
100   62443100353553260000000000100000000000100000002000000010410406100931310131015020770610000007311053   1030000200030000   333800010001203104000003327KBZPay                 Yangon        MMR11006100931310131010610000000000000000   10300001F05104100000000021000000000000000     
100   95050314996291580000000000004900000000004900002000000010410406101434140414526978650610000007312353   1020000200030000   333400010001204104000000281Myanmar Soft-Gate Tech Yangon        MMR11006101434140414520610000000000000000   10300001F05104100000000001029000000000000     
100   95050328384000040000000000009900000000009900002000000010410406100817103809141892370610549471410160   1030000900030000   541119001004190110000000394Super One ShoppingMall YANGON        MMR11006100817103809140610000000000000000   10300001F00104100000000002475000000000000     
100   62911028202074950000000000001600000000001600002000000010410406090240330000584773800609216009000058   1030000500030000   531120226331000045311202263OCEAN SUPER CENTER STJ PTN           MMR11006090240330000580609000000000000000   10300001 00104100000000000096000000000000     
100   95050312224678430000000000001960000000001960002000000010410406101306453645380028330610000007312041   1020000200030000   333400010001204104000000281Myanmar Soft-Gate Tech Yangon        MMR11006101306453645380610000000000000000   10300001F05104100000000000412000000000000     
100   62443100373945130000000000020000000000020000002000000010410406100651403786921757830610332211340160   1030000900030000   554119001037190110000000842Puma Power(BBIBB)      MONON         MMR11006100651403786920610000000000000000   10300001F00104100000000002400000000000000     
100   95050311876202380000000000045200000000045200002000000010410406101153423872357744510610108231842160   1030000900030000   541119001328190110000000971Ocean Junction NPT C6  NAYPYITAW     MMR11006101153423872350610000000000000000   10300001F00104100000000011300000000000000     
100   95030353305053700000000000032500000000032500002000000010410406100705123790274773800610508351312160   1030000900030000   573219001179190110000000935UNIQUE Seikkanthar     YANGONADA     MMR11006100705123790270610000000000000000   10300001F00104100000000001950000000000000     
100   95050310868882250000000000250000000000250000002000000010410406100844513816164261280610914141551160   1030000900030000   594419000582190110000000422Zwe Htet Gems & Jewell MANDALAYHARSA MMR11006100844513816160610000000000000000   10300001F00104100000000060000000000000000     
100   62911028202162490000000000100610000000100610002000000010410406100249441944504773800610000007307409   1030000200030000   333800010001203104000003327KBZPay                 Yangon        MMR11006100249441944500610000000000000000   10300001F05104100000000021128000000000000     
100   95030352597917530000000000080000000000080000002000000010410406100751372137304773800610000007310302   1030000200030000   333800010001203104000003327KBZPay                 Yangon        MMR11006100751372137300610000000000000000   10300001F05104100000000016800000000000000     
100   95050312224678430000000000004900000000004900002000000010410406100848361836829303830610000007310741   1020000200030000   333400010001204104000000281Myanmar Soft-Gate Tech Yangon        MMR11006100848361836820610000000000000000   10300001F05104100000000001029000000000000     
100   95030301100337010000000000010600000000010600002000000010410406091216030004114773800609216018000411   1030000500030000   541120025101022205411200251ORANGE (THANLYIN-2)    PTN           MMR11006091216030004110609000000000000000   10300001 00104100000000000636000000000000     
100   95050328384000040000000000019400000000019400002000000010410406100824233810984686760610641541423160   1030000900030000   541119001004190110000000394Super One ShoppingMall YANGON        MMR11006100824233810980610000000000000000   10300001F00104100000000004850000000000000     
100   95050322312885760000000000006000000000006000002000000010410406100507423742787338270610000007308815   1030000200030000   333800010001203104000003327KBZPay                 Yangon        MMR11006100507423742780610000000000000000   10300001F05104100000000001260000000000000     
100   95030399304534290000000000014500000000014500002000000010410406100347513742984773800610967171051160   1030000900030000   541119001208190110000000948City Mart YK C 6       YANGONAUNG    MMR11006100347513742980610000000000000000   10300001F00104100000000000870000000000000     
100   95050312933828140000000000063421000000063421002000000010410406071101550001394936340607215817000139   1030000500030000   541120203807000015411202038CITY MART SUPERMARKET  PTN           MMR11006071101550001390607000000000000000   10300001 00104100000000015856000000000000     
100   95050319207947610000000000008150000000008150002000000010410406081248370025333308080608215912002533   1030000600030000   5499000023543157994200016371 STOP S M KAMARKYI    YANGON        MMR11006081248370025330608000000000000000   10300001 00104100000000003464000000000000     
100   95030301100126550000000000033000000000033000002000000010410406081053160193274773800608215910019327   1030000600030000   554100002323315799420000474DENKO N.DAGON - 1      YANGON        MMR11006081053160193270608000000000000000   10300001 00104100000000000990000000000000     
100   62911028202684060000000000082550000000082550002000000010410406090310030003104773800609216009000310   1030000500030000   531120226706000045311202267OCEAN NORTH POINT      PTN           MMR11006090310030003100609000000000000000   10300001 00104100000000004953000000000000     
100   95050311959900780000000000000980000000000980002000000010410406101348391839842106290610000007312173   1020000200030000   333400010001204104000000281Myanmar Soft-Gate Tech Yangon        MMR11006101348391839840610000000000000000   10300001F05104100000000000206000000000000     
100   62911028202010920000000000032000000000032000002000000010410406101102247832314773800610216118783231   1040001600030000   598320000658000000010000527Shwe Taung Energy (YGN Yangon        MMR11006101102247832310610000000000000000   10300001F00104100000000000960000000000000     
100   95050329252108030000000000010280000000010280002000000010410406081345490676265215850608215913067626   1030000600030000   554100000952315799420000474DENKO N.DAGON - 1      YANGON        MMR11006081345490676260608000000000000000   10300001 00104100000000001234000000000000     
100   62911028202099050000000000042000000000042000002000000010410406100657467681584773800610216113768158   1040001600030000   591220000266000000010000254Shwe Ohh Pharmacy (Sin Yangon        MMR11006100657467681580610000000000000000   10300001F00104100000000002520000000000000     
100   62911028202355870000000001000000000001000000002000000010410406100416034603634773800610000007308338   1040001600030000   333800010001220104000004507A +                    Yangon        MMR11006100416034603630610000000000000000   10300001F05104100000000210000000000000000     
100   95050312360118350000000000009000000000009000002000000010410406100324285428499413480610000007307761   1030000200030000   333800010001203104000003327KBZPay                 Yangon        MMR11006100324285428490610000000000000000   10300001F05104100000000001890000000000000     
100   62911028202077010000000000000980000000000980002000000010410406101525275527024773800610000007312529   1020000200030000   333400010001204104000000281Myanmar Soft-Gate Tech Yangon        MMR11006101525275527020610000000000000000   10300001F05104100000000000206000000000000     
100   62911028202498100000000001305214000001305214002000000010410406101027085708164773800610000007311431   1010000100030000   333500010001205104000000364Internal Revenue Depar Yangon        MMR11006101027085708160610000000000000000   10300001F05104100000000060000000000000000     
100   62911028202074950000000000005000000000005000002000000010410406090258340003874773800609216009000387   1030000500030000   531120226306000045311202263OCEAN SUPER CENTER STJ PTN           MMR11006090258340003870609000000000000000   10300001 00104100000000000300000000000000     
100   62911028202133940000000000006750000000006750002000000010410406091154350000094773800609216018000009   1030000500030000   541120233201000045411202332CITY EXPRESS (MCS - 68 PTN           MMR11006091154350000090609000000000000000   10300001 00104100000000000405000000000000     
100   95050321848852460000000000030000000000030000002000000010410406091014090001352585470609000349414558   1030000300030000   598300001209000000000000817CB BANK                SHWE TAUNG EN MMR11006091014090001350609000000000000000   10300001F00104100000000003600000000000000     
100   62911028202045260000000000005200000000005200002000000010410406090343350000354773800609216010000035   1030000500030000   541120229701000045411202297CITY EXPRESS (MCS - 95 PTN           MMR11006090343350000350609000000000000000   10300001 00104100000000000312000000000000     
100   62911028202216940000000000022800000000022800002000000010410406091224010001994773800609216018000199   1030000500030000   541120203704000015411202037CITY MART SUPERMARKET  PTN           MMR11006091224010001990609000000000000000   10300001 00104100000000001368000000000000     
100   62911028202207040000000000030750000000030750002000000010410406090208490002934773800609216008000293   1030000500030000   591220211101014405912202111SHWE OHH PHARMACY      PTN           MMR11006090208490002930609000000000000000   10300001 00104100000000001845000000000000     
100   62911028202463940000000000010050000000010050002000000010410406090809250001444773800609216014000144   1030000500030000   541120203706000015411202037CITY MART SUPERMARKET  PTN           MMR11006090809250001440609000000000000000   10300001 00104100000000000603000000000000     
100   62911028202440680000000000015000000000015000002000000010410406091057190045694773800609216017004569   1030000500030000   598320001204000015172200012MAX ENERGY             PTN           MMR11006091057190045690609000000000000000   10300001 00104100000000000450000000000000     
100   95030353305053700000000000035000000000035000002000000010410406100213524352514773800610000007307223   1030000900030000   333400010001202104000002022ACS                    Yangon        MMR11006100213524352510610000000000000000   10300001F05104100000000007350000000000000     
100   95050319161596230000000000000980000000000980002000000010410406100211094109906432760610000007307198   1020000200030000   333400010001204104000000281Myanmar Soft-Gate Tech Yangon        MMR11006100211094109900610000000000000000   10300001F05104100000000000206000000000000     
100   95050310409767690000000000002940000000002940002000000010410406100128385838434730830610000007307005   1020000200030000   333400010001204104000000281Myanmar Soft-Gate Tech Yangon        MMR11006100128385838430610000000000000000   10300001F05104100000000000617000000000000     
100   95050312360118350000000000009000000000009000002000000010410406100326075607922391830610000007307784   1030000200030000   333800010001203104000003327KBZPay                 Yangon        MMR11006100326075607920610000000000000000   10300001F05104100000000001890000000000000     
100   62911028202685390000000000032230000000032230002000000010410406101211067896804773800610216119789680   1040001600030000   591220000277000000010000265Shwe Ohh Pharmacy (Thu Yangon        MMR11006101211067896800610000000000000000   10300001F00104100000000001934000000000000     
100   62911028202527490000000000030000000000030000002000000010410406090431296891114773800609216011689111   1040001600030000   598320000916000000010000664MMTM - North Dagon     Ygn           MMR11006090431296891110609000000000000000   10300001F00104100000000000900000000000000     
100   62443100388528570000000000130000000000130000002000000010410406100319134913339696360610000007307688   1030000200030000   333800010001203104000003327KBZPay                 Yangon        MMR11006100319134913330610000000000000000   10300001F05104100000000027300000000000000     
100   95050325455962190000000000120000000000120000002000000010410406100321395139283739610610000007307732   1030000200030000   333800010001203104000003327KBZPay                 Yangon        MMR11006100321395139280610000000000000000   10300001F05104100000000025200000000000000     
100   95050325925517520000000000031450000000031450002000000010410406090704550016975276260609216013001697   1030000500030000   503920036606000015039200366PRO-1 HOME CENTER      PTN           MMR11006090704550016970609000000000000000   10300001 00104100000000007548000000000000     
100   95050324154190880000000000020000000000020000002000000010410406090846520033341877090609216015003334   1030000500030000   598320002104000015172200021MAX ENERGY             PTN           MMR11006090846520033340609000000000000000   10300001 00104100000000002400000000000000     
100   62443100330048680000000000011000000000011000002000000010410406090200150040066102470609216008004006   1030000500030000   598320001101000015172200011MAX ENERGY             PTN           MMR11006090200150040060609000000000000000   10300001 00104100000000001320000000000000     
100   95050321232876860000000000102000000000102000002000000010410406090456000140276286450609216004014027   1030000600030000   554100002328315799420001235DENKO NAY PYI TAW 2    NAYPYITAW     MMR11006090456000140270609000000000000000   10300001 00104100000000012240000000000000     
100   95050325141379530000000000058000000000058000002000000010410406090906550194379678390609216009019437   1030000600030000   554100002323315799420000474DENKO N.DAGON - 1      YANGON        MMR11006090906550194370609000000000000000   10300001 00104100000000006960000000000000     
100   62911028202212490000000000044000000000044000002000000010410406091155000039024773800609216018003902   1030000500030000   598320001201000015172200012MAX ENERGY             PTN           MMR11006091155000039020609000000000000000   10300001 00104100000000001320000000000000     
100   62911028202449440000000000150000000000150000002000000010410406091207340033924773800609216018003392   1030000500030000   598320001701000015172200017MAX ENERGY             PTN           MMR11006091207340033920609000000000000000   10300001 00104100000000004500000000000000     
100   62911028202392410000000000030000000000030000002000000010410406090617380108924773800609216006010892   1030000600030000   554100001218315799420000670DENKO MAWLAMYAING      MON STATE.    MMR11006090617380108920609000000000000000   10300001 00104100000000000900000000000000     
100   95050318805978240000000000020000000000020000002000000010410406100327165716388491200610000007307782   1030000200030000   333800010001203104000003327KBZPay                 Yangon        MMR11006100327165716380610000000000000000   10300001F05104100000000004200000000000000     
100   95050318180584510000000000005000000000005000002000000010410406101510334033523588580610000007312488   1030000200030000   333800010001203104000003327KBZPay                 Yangon        MMR11006101510334033520610000000000000000   10300001F05104100000000001050000000000000     
100   62911028202355870000000001000000000001000000002000000010410406100414194419124773800610000007308308   1040001600030000   333800010001220104000004507A +                    Yangon        MMR11006100414194419120610000000000000000   10300001F05104100000000210000000000000000     
100   95050318712627500000000000050000000000050000002000000010410406100927245724442893380610000007311030   1030000200030000   333800010001203104000003327KBZPay                 Yangon        MMR11006100927245724440610000000000000000   10300001F05104100000000010500000000000000     
100   95030301100081330000000000059000000000059000002000000010410406100856027739654773800610216115773965   1040001600030000   598320000660000000010000529Shwe Taung Energy (NPT Naypyitaw     MMR11006100856027739650610000000000000000   10300001F00104100000000001770000000000000     
100   62443101061229100000000000035631000000035631002000000010410406101301473890441765910610188311947160   1030000900030000   701119000075190110000000024Lotte Hotel            YANGON        MMR11006101301473890440610000000000000000   10300001F00104100000000015143000000000000     
100   62911028202750390000000000002940000000002940002000000010410406100618234823664773800610000007309475   1020000200030000   333400010001204104000000281Myanmar Soft-Gate Tech Yangon        MMR11006100618234823660610000000000000000   10300001F05104100000000000617000000000000     
100   62443100303127280000000000000980000000000980002000000010410406100716414641095779220610000007309963   1020000200030000   333400010001204104000000281Myanmar Soft-Gate Tech Yangon        MMR11006100716414641090610000000000000000   10300001F05104100000000000206000000000000     
100   62911028202136750000000000036000000000036000002000000010410406090142570163114773800609216001016311   1030000600030000   554100002324315799420000481DENKO NORTH OKKALAPA   YANGON        MMR11006090142570163110609000000000000000   10300001 00104100000000001080000000000000     
100   62443100355445150000000000208362000000208362002000000010410406091315440024504875780609216019002450   1030000500030000   581220146401013205812201464THAI 47 (HELPIN BRANCH PTN           MMR11006091315440024500609000000000000000   10300001 00104100000000088554000000000000     
100   62911028202221220000000000010000000000010000002000000010410406090346450040704773800609216010004070   1030000500030000   598320001202000015172200012MAX ENERGY             PTN           MMR11006090346450040700609000000000000000   10300001 00104100000000000300000000000000     
100   62911028202665580000000000043000000000043000002000000010410406082352310030634773800609216006003063   1030000500030000   598320001601000015172200016MAX ENERGY             PTN           MMR11006082352310030630609000000000000000   10300001 00104100000000001290000000000000     
100   95030301100127050000000000068000000000068000002000000010410406090116040163054773800609216001016305   1030000600030000   554100002324315799420000481DENKO NORTH OKKALAPA   YANGON        MMR11006090116040163050609000000000000000   10300001 00104100000000002040000000000000     
100   62443100390038980000000000047500000000047500002000000010410406091321570008070975150609216019000807   1030000500030000   581320123101000045813201231MALIBU BAR             PTN           MMR11006091321570008070609000000000000000   10300001 00104100000000020188000000000000     
100   62911028202440680000000000051051000000051051002000000010410406091338140024604773800609216020002460   1030000500030000   581220146401013205812201464THAI 47 (HELPIN BRANCH PTN           MMR11006091338140024600609000000000000000   10300001 00104100000000005207000000000000     
100   62911028202442250000000000014011000000014011002000000010410406090455320043394773800609216011004339   1030000500030000   598320001203000015172200012MAX ENERGY             PTN           MMR11006090455320043390609000000000000000   10300001 00104100000000000420000000000000     
100   95050312926040930000000000003000000000003000002000000010410406100926515651510269130610000007311029   1030000200030000   333800010001203104000003327KBZPay                 Yangon        MMR11006100926515651510610000000000000000   10300001F05104100000000000630000000000000     
100   62911028202154720000000000095000000000095000002000000010410406101032527804824773800610216117780482   1040001600030000   598320001170000000010000527Shwe Taung Energy (YGN Yangon        MMR11006101032527804820610000000000000000   10300001F00104100000000002850000000000000     
100   62443100306882420000000000100000000000100000002000000010410406101219454945212191390610000007311879   1030000200030000   333800010001203104000003327KBZPay                 Yangon        MMR11006101219454945210610000000000000000   10300001F05104100000000021000000000000000     
100   62911028202307860000000000005400000000005400002000000010410406101147267874174773800610216118787417   1040001600030000   591220000301000000010000289Shwe Ohh Pharmacy (Yay Yangon        MMR11006101147267874170610000000000000000   10300001F00104100000000000324000000000000     
100   62443100379321630000000000142000000000142000002000000010410406090658490390653503020609216006039065   1030000600030000   554100001003315799420000497DENKO KONE TA LA PAUNG YANGON        MMR11006090658490390650609000000000000000   10300001 00104100000000017040000000000000     
100   62443100303702210000000000200000000000200000002000000010410406090409120545776882120609216004054577   1030000600030000   554100001756315799420001137DENKO NORTH DAGON 2    YANGON        MMR11006090409120545770609000000000000000   10300001 00104100000000024000000000000000     
100   95050312695033440000000000000980000000000980002000000010410406101223435343800879290610000007311889   1020000200030000   333400010001204104000000281Myanmar Soft-Gate Tech Yangon        MMR11006101223435343800610000000000000000   10300001F05104100000000000206000000000000     
100   62443100388528570000000000180000000000180000002000000010410406100315304530317923120610000007307638   1030000200030000   333800010001203104000003327KBZPay                 Yangon        MMR11006100315304530310610000000000000000   10300001F05104100000000037800000000000000     
100   62911028202400660000000000071000000000071000002000000010410406090816260235894773800609216008023589   1030000600030000   554100002319315799420000477DENKO INSEIN           YANGON        MMR11006090816260235890609000000000000000   10300001 00104100000000002130000000000000     
100   62443100390038980000000000011500000000011500002000000010410406091322450008081400660609216019000808   1030000500030000   581320123101000045813201231MALIBU BAR             PTN           MMR11006091322450008080609000000000000000   10300001 00104100000000004888000000000000     
100   62911028202169750000000000018500000000018500002000000010410406090330520765954773800609216003076595   1030000600030000   554100000957315799420000480DENKO N.DAGON - 3      YANGON        MMR11006090330520765950609000000000000000   10300001 00104100000000000555000000000000     
100   62443100303702210000000000140000000000140000002000000010410406090941440546400529350609216009054640   1030000600030000   554100001756315799420001137DENKO NORTH DAGON 2    YANGON        MMR11006090941440546400609000000000000000   10300001 00104100000000016800000000000000     
100   62443100300743690000000000012850000000012850002000000010410406091238127217282748390609216019721728   1040001600030000   541120000555000000010000465Ocean Shwe Gone Daing  Yangon        MMR11006091238127217280609000000000000000   10300001F00104100000000003213000000000000     
100   95050328384000040000000000037200000000037200002000000010410406091215547195803031230609216019719580   1040001600030000   581420000246000000010000234Hot Pot Country        Yangon        MMR11006091215547195800609000000000000000   10300001F00104100000000004464000000000000     
100   95050310283518110000000000012740000000012740002000000010410406101153440010445567740610000748277070   1030000200030000   541188001422000008000000401KBZ BANK               OCEAN SUPERCE MMR11006101153440010440610000000000000000   10300001 00104100000000003185000000000000     
100   62911028202121560000000000031000000000031000002000000010410406101849220025564773800610000748306670   1030000200030000   541188001014000008000000008KBZ BANK               MARKETPLACE - MMR11006101849220025560610000000000000000   10300001 00104100000000001860000000000000     
100   95050316818236190000000000002940000000002940002000000010410406100916424642095403190610000007310950   1020000200030000   333400010001204104000000281Myanmar Soft-Gate Tech Yangon        MMR11006100916424642090610000000000000000   10300001F05104100000000000617000000000000     
100   95050321848852460000000000029500000000029500002000000010410406100728525852557687000610000007310063   1010000100030000   333500010001212104000002840Internal Revenue Depar Yangon        MMR11006100728525852550610000000000000000   10300001F05104100000000060000000000000000     
100   62911028202163630000000000025000000000025000002000000010410406101046427817494773800610216117781749   1040001600030000   598320000916000000010000664MMTM - North Dagon     Ygn           MMR11006101046427817490610000000000000000   10300001F00104100000000000750000000000000     
100   62911028202304060000000000029000000000029000002000000010410406100413284328984773800610000007308305   1030000200030000   333800010001203104000003327KBZPay                 Yangon        MMR11006100413284328980610000000000000000   10300001F05104100000000006090000000000000     
100   95050310397364970000000000000980000000000980002000000010410406101209473947354609740610000007311831   1020000200030000   333400010001204104000000281Myanmar Soft-Gate Tech Yangon        MMR11006101209473947350610000000000000000   10300001F05104100000000000206000000000000     
100   95050316377977350000000000010000000000010000002000000010410406100211464146189056920610000007307207   1040001600030000   333800010001220104000004507A +                    Yangon        MMR11006100211464146180610000000000000000   10300001F05104100000000002100000000000000     
100   95050321688266460000000000116000000000116000002000000010410406100610544054199055670610000007309410   1030000200030000   333800010001203104000003327KBZPay                 Yangon        MMR11006100610544054190610000000000000000   10300001F05104100000000024360000000000000     
100   95030367537085740000000000000980000000000980002000000010410406100317064706454773800610000007307541   1020000200030000   333400010001204104000000281Myanmar Soft-Gate Tech Yangon        MMR11006100317064706450610000000000000000   10300001F05104100000000000206000000000000     
100   95050319391394380000000000004000000000004000002000000010410406100330130013759125870610000007307819   1030000200030000   333800010001203104000003327KBZPay                 Yangon        MMR11006100330130013750610000000000000000   10300001F05104100000000000840000000000000     
100   62911028202756820000000000068880000000068880002000000010410406101328100015944773800610000748285780   1030000200030000   541188001488000008000000399KBZ BANK               OCEAN SUPERCE MMR11006101328100015940610000000000000000   10300001 00104100000000004133000000000000     
100   62443100306045460000000000012900000000012900002000000010410406100655470022963410320610000748285567   1030000200030000   581288001917000008000005395KBZ BANK               MIN LAN RESTA MMR11006100655470022960610000000000000000   10300001 00104100000000005483000000000000     
100   62911028202170490000000000014000000000014000002000000010410406101201050020774773800610000748277772   1030000200030000   581288000950000008000004879KBZ BANK               PIZZA HUT RES MMR11006101201050020770610000000000000000   10300001 00104100000000001428000000000000     
100   62911028202121490000000000053010000000053010002000000010410406101834090122524773800610000748305998   1030000200030000   541188001002000008000000008KBZ BANK               MARKETPLACE - MMR11006101834090122520610000000000000000   10300001 00104100000000003181000000000000     
100   62911028202161240000000000014606000000014606002000000010410406101022090137214773800610000748268917   1030000200030000   541188001023000008000000298KBZ BANK               CITY MART - M MMR11006101022090137210610000000000000000   10300001 00104100000000000876000000000000     
100   95050312695033440000000000000980000000000980002000000010410406101236550655022361580610000007311924   1020000200030000   333400010001204104000000281Myanmar Soft-Gate Tech Yangon        MMR11006101236550655020610000000000000000   10300001F05104100000000000206000000000000     
100   95050310672555840000000000039000000000039000002000000010410406101137060706255800420610000007311726   1030000200030000   333800010001203104000003327KBZPay                 Yangon        MMR11006101137060706250610000000000000000   10300001F05104100000000008190000000000000     
100   62911028202355870000000001000000000001000000002000000010410406100417354735274773800610000007308354   1040001600030000   333800010001220104000004507A +                    Yangon        MMR11006100417354735270610000000000000000   10300001F05104100000000210000000000000000     
100   95050314287403810000000000002940000000002940002000000010410406101416434643867063740610000007312288   1020000200030000   333400010001204104000000281Myanmar Soft-Gate Tech Yangon        MMR11006101416434643860610000000000000000   10300001F05104100000000000617000000000000     
100   95030301100126890000000000017500000000017500002000000010410406101124403635774773800610389541742160   1030000300030000   555510115261104519000013127Trendi Fashion Shop                  MMR11006101124403635770610000000000000000   10300001 00104100000000001050000000000000     
100   95050318575030940000000000004900000000004900002000000010410406100923485348147396060610000007311010   1020000200030000   333400010001204104000000281Myanmar Soft-Gate Tech Yangon        MMR11006100923485348140610000000000000000   10300001F05104100000000001029000000000000     
100   62911028202366010000000000014300000000014300002000000010410406101147217874064773800610216118787406   1040001600030000   541120000569000000010000465Ocean Shwe Gone Daing  Yangon        MMR11006101147217874060610000000000000000   10300001F00104100000000000858000000000000     
100   62911028202355870000000001000000000001000000002000000010410406100415134513624773800610000007308328   1040001600030000   333800010001220104000004507A +                    Yangon        MMR11006100415134513620610000000000000000   10300001F05104100000000210000000000000000     
100   95050312962334280000000000000980000000000980002000000010410406100816054605445027150610000007310504   1020000200030000   333400010001204104000000281Myanmar Soft-Gate Tech Yangon        MMR11006100816054605440610000000000000000   10300001F05104100000000000206000000000000     
100   95050312498129060000000000000980000000000980002000000010410406101138130813068424630610000007311732   1020000200030000   333400010001204104000000281Myanmar Soft-Gate Tech Yangon        MMR11006101138130813060610000000000000000   10300001F05104100000000000206000000000000     
100   95030301100319290000000000002940000000002940002000000010410406101242411241194773800610000007311937   1020000200030000   333400010001204104000000281Myanmar Soft-Gate Tech Yangon        MMR11006101242411241190610000000000000000   10300001F05104100000000000617000000000000     
100   62911028202150190000000000006000000000006000002000000010410406101503410342994773800610000748294146   1030000200030000   541188001039000008000000010KBZ BANK               MARKETPLACE - MMR11006101503410342990610000000000000000   10300001 00104100000000000360000000000000     
100   95050314287403810000000000004900000000004900002000000010410406100537100710253835510610000007309106   1020000200030000   333400010001204104000000281Myanmar Soft-Gate Tech Yangon        MMR11006100537100710250610000000000000000   10300001F05104100000000001029000000000000     
100   95030317922148660000000000039953000000039953002000000010410406101552420343034773800610000748297296   1030000200030000   541188001039000008000000010KBZ BANK               MARKETPLACE - MMR11006101552420343030610000000000000000   10300001 00104100000000002397000000000000     
100   95050321848852460000000000137286000000137286002000000010410406100739330933842559350610000007310165   1010000100030000   333500010001212104000002543Internal Revenue Depar Yangon        MMR11006100739330933840610000000000000000   10300001F05104100000000060000000000000000     
100   95050311121153200000000000017500000000017500002000000010410406101334500450513758780610000007312129   1030000200030000   333800010001203104000003327KBZPay                 Yangon        MMR11006101334500450510610000000000000000   10300001F05104100000000003675000000000000     
100   62911028202509170000000000018200000000018200002000000010410406101829060092104773800610000748305741   1030000200030000   541188001006000008000000008KBZ BANK               MARKETPLACE - MMR11006101829060092100610000000000000000   10300001 00104100000000001092000000000000     
100   62443100330105920000000000100000000000100000002000000010410406100331310131425225240610000007307841   1030000200030000   333800010001203104000003327KBZPay                 Yangon        MMR11006100331310131420610000000000000000   10300001F05104100000000021000000000000000     
100   62911028202788350000000000010000000000010000002000000010410406101212344234894773800610000007311845   1030000200030000   333800010001203104000003327KBZPay                 Yangon        MMR11006101212344234890610000000000000000   10300001F05104100000000002100000000000000     
100   62443100323117100000000000100000000000100000002000000010410406100127265726474305330610000007306999   1030000200030000   333800010001203104000003327KBZPay                 Yangon        MMR11006100127265726470610000000000000000   10300001F05104100000000021000000000000000     
100   62911028202684060000000000052000000000052000002000000010410406100448207605134773800610216111760513   1040001600030000   598320000658000000010000527Shwe Taung Energy (YGN Yangon        MMR11006100448207605130610000000000000000   10300001F00104100000000001560000000000000     
100   62911028202610540000000000056000000000056000002000000010410406100916327750524773800610216116775052   1040001600030000   598320001170000000010000527Shwe Taung Energy (YGN Yangon        MMR11006100916327750520610000000000000000   10300001F00104100000000001680000000000000     
100   62911028202369990000000000100000000000100000002000000010410406101440501050534773800610000007312375   1030000200030000   333800010001203104000003327KBZPay                 Yangon        MMR11006101440501050530610000000000000000   10300001F05104100000000021000000000000000     
100   95050317176867660000000000015150000000015150002000000010410406090933080020974075830609000349409298   1030000300030000   531100000747000000000000408CB BANK                CAPITAL HYPER MMR11006090933080020970609000000000000000   10300001F00104100000000003636000000000000     
100   95050316091358640000000000050000000000050000002000000010410406101018344834195657800610000007311384   1030000200030000   333800010001203104000003327KBZPay                 Yangon        MMR11006101018344834190610000000000000000   10300001F05104100000000010500000000000000     
100   95050318608138520000000000013000000000013000002000000010410406101116184618766225930610000007311646   1030000200030000   333800010001203104000003327KBZPay                 Yangon        MMR11006101116184618760610000000000000000   10300001F05104100000000002730000000000000     
100   95050319161596230000000000000980000000000980002000000010410406100333370337851324610610000007307867   1020000200030000   333400010001204104000000281Myanmar Soft-Gate Tech Yangon        MMR11006100333370337850610000000000000000   10300001F05104100000000000206000000000000     
100   95050311831926380000000000040244000000040244002000000010410406101535190122326169050610000748296368   1030000200030000   541188001002000008000000008KBZ BANK               MARKETPLACE - MMR11006101535190122320610000000000000000   10300001 00104100000000010061000000000000     
100   95050324247403260000000000030500000000030500002000000010410406101808420186924949460610000748304716   1030000200030000   541188001124000008000000296KBZ BANK               CITY MART - J MMR11006101808420186920610000000000000000   10300001 00104100000000007625000000000000     
100   95050312224678430000000000001960000000001960002000000010410406100243231323371398290610000007307362   1020000200030000   333400010001204104000000281Myanmar Soft-Gate Tech Yangon        MMR11006100243231323370610000000000000000   10300001F05104100000000000412000000000000     
100   95050312224678430000000000000980000000000980002000000010410406101041091109467431040610000007311510   1020000200030000   333400010001204104000000281Myanmar Soft-Gate Tech Yangon        MMR11006101041091109460610000000000000000   10300001F05104100000000000206000000000000     
100   62443100395250310000000000002940000000002940002000000010410406101332200220718375850610000007312123   1020000200030000   333400010001204104000000281Myanmar Soft-Gate Tech Yangon        MMR11006101332200220710610000000000000000   10300001F05104100000000000617000000000000     
100   95050319525934530000000000038800000000038800002000000010410406101139000900865374960610000007311734   1030000200030000   333800010001203104000003327KBZPay                 Yangon        MMR11006101139000900860610000000000000000   10300001F05104100000000008148000000000000     
100   62443101001072630000000000041200000000041200002000000010410406101554420032324005990610000748297409   1030000200030000   541188001354000008000000395KBZ BANK               OCEAN SUPERMA MMR11006101554420032320610000000000000000   10300001 00104100000000010300000000000000     
100   95050319391394380000000000001000000000001000002000000010410406100327005700721966370610000007307792   1030000200030000   333800010001203104000003327KBZPay                 Yangon        MMR11006100327005700720610000000000000000   10300001F05104100000000000210000000000000     
100   62911028202530930000000000042735000000042735002000000010410406090953410016284773800609216009001628   1030000600030000   581200002335315799420001620SIGNATURE FINEDINING 5 YANGON        MMR11006090953410016280609000000000000000   10300001 00104100000000004359000000000000     
100   62911028202464020000000000005800000000005800002000000010410406090901210001454773800609216015000145   1030000500030000   541120203705000015411202037CITY MART SUPERMARKET  PTN           MMR11006090901210001450609000000000000000   10300001 00104100000000000348000000000000     
100   95050319161596230000000000000980000000000980002000000010410406100208143814876858220610000007307185   1020000200030000   333400010001204104000000281Myanmar Soft-Gate Tech Yangon        MMR11006100208143814870610000000000000000   10300001F05104100000000000206000000000000     
100   62911028202355870000000001000000000001000000002000000010410406100414494449484773800610000007308314   1040001600030000   333800010001220104000004507A +                    Yangon        MMR11006100414494449480610000000000000000   10300001F05104100000000210000000000000000     
100   62911028202788350000000000035000000000035000002000000010410406101023565356384773800610000007311420   1030000200030000   333800010001203104000003327KBZPay                 Yangon        MMR11006101023565356380610000000000000000   10300001F05104100000000007350000000000000     
100   95050310322713510000000000026000000000026000002000000010410406100615144514543806920610000007309449   1030000200030000   333800010001203104000003327KBZPay                 Yangon        MMR11006100615144514540610000000000000000   10300001F05104100000000005460000000000000     
