100   95050324154190880000000000008000000000008000002000000010410406100326270003256010400610216109000325   1030000500030000   541120019201004805411200192GO GREEN               PTN           MMR11006100326270003250610000000000000000   10300001 00104100000000002000000000000000     
100   62911028202528710000000000030000000000030000002000000010410406092254520031164773800610216105003116   1030000500030000   598320001604000015172200016MAX ENERGY             PTN           MMR11006092254520031160610000000000000000   10300001 00104100000000000900000000000000     
100   62443100325551180000000000015000000000015000002000000010410406101113250031933601720610216117003193   1030000500030000   598320002103000015172200021MAX ENERGY             PTN           MMR11006101113250031930610000000000000000   10300001 00104100000000001800000000000000     
100   95050320531117320000000000040000000000040000002000000010410406100823010037396339250610216114003739   1030000500030000   598320002701000015172200027MAX ENERGY             PTN           MMR11006100823010037390610000000000000000   10300001 00104100000000004800000000000000     
100   95050321232876860000000000100718000000100718002000000010410406100608590140993310280610216106014099   1030000600030000   554100002328315799420001235DENKO NAY PYI TAW 2    NAYPYITAW     MMR11006100608590140990610000000000000000   10300001 00104100000000012086000000000000     
100   62911028202116610000000000088000000000088000002000000010410406100841170031964773800610216115003196   1030000500030000   598320001604000015172200016MAX ENERGY             PTN           MMR11006100841170031960610000000000000000   10300001 00104100000000002640000000000000     
100   62443100358839880000000000041000000000041000002000000010410406100007450036171046460610216106003617   1030000500030000   598320002702000015172200027MAX ENERGY             PTN           MMR11006100007450036170610000000000000000   10300001 00104100000000004920000000000000     
100   62911028202198620000000000120000000000120000002000000010410406101222570047924773800610216118004792   1030000500030000   598320001403000015172200014MAX ENERGY             PTN           MMR11006101222570047920610000000000000000   10300001 00104100000000003600000000000000     
100   62911028202417260000000000010000000000010000002000000010410406131356564593344773800613643262056163   1030000900030000   541119001331190110000000971Ocean Junction NPT C 9 NAYPYITAW     MMR11006131356564593340613000000000000000   10300001F00104100000000000600000000000000     
100   95050312695033440000000000002940000000002940002000000010410406130355062506236437990613000007320921   1020000200030000   333400010001204104000000281Myanmar Soft-Gate Tech Yangon        MMR11006130355062506230613000000000000000   10300001F05104100000000000617000000000000     
100   95050316717221100000000000000980000000000980002000000010410406130852082208004082870613000007323625   1020000200030000   333400010001204104000000281Myanmar Soft-Gate Tech Yangon        MMR11006130852082208000613000000000000000   10300001F05104100000000000206000000000000     
100   95050326393773020000000000002940000000002940002000000010410406131353252325559586550613000007325239   1020000200030000   333400010001204104000000281Myanmar Soft-Gate Tech Yangon        MMR11006131353252325550613000000000000000   10300001F05104100000000000617000000000000     
100   95050316785465380000000000000980000000000980002000000010410406131510264026543487200613000007325461   1020000200030000   333400010001204104000000281Myanmar Soft-Gate Tech Yangon        MMR11006131510264026540613000000000000000   10300001F05104100000000000206000000000000     
100   62443100317863910000000000072004000000072004002000000010410406130956359954636331030613216416995463   1040001600030000   598320000328000000010000316PT Power Petrol Statio Nay Pyi Taw   MMR11006130956359954630613000000000000000   10300001F00104100000000008640000000000000     
100   95050311382087030000000000000980000000000980002000000010410406131524345434393572290613000007325519   1020000200030000   333400010001204104000000281Myanmar Soft-Gate Tech Yangon        MMR11006131524345434390613000000000000000   10300001F05104100000000000206000000000000     
100   95030301100081330000000000005100000000005100002000000010410406131040327986904773800613103230549119   1040001400030000   541110000255025411100002149Sein Daung Super Store Sein Daung Su MMR11006131040327986900613000000000000000   10300001 00104100000000000306000000000000     
100   62911028202204490000000000055000000000055000002000000010410406101114070047064773800610216117004706   1030000500030000   598320001204000015172200012MAX ENERGY             PTN           MMR11006101114070047060610000000000000000   10300001 00104100000000001650000000000000     
100   62911028202790310000000000077000000000077000002000000010410406100242560032304773800610216109003230   1030000500030000   598320001603000015172200016MAX ENERGY             PTN           MMR11006100242560032300610000000000000000   10300001 00104100000000002310000000000000     
100   62911028202123960000000000028000000000028000002000000010410406100058370043554773800610216107004355   1030000500030000   598320001302000015172200013MAX ENERGY             PTN           MMR11006100058370043550610000000000000000   10300001 00104100000000000840000000000000     
100   62911028202417260000000000044000000000044000002000000010410406101246460046834773800610216119004683   1030000500030000   598320001401000015172200014MAX ENERGY             PTN           MMR11006101246460046830610000000000000000   10300001 00104100000000001320000000000000     
100   62911028202919290000000000030000000000030000002000000010410406101014050164664773800610216110016466   1030000600030000   554100002324315799420000481DENKO NORTH OKKALAPA   YANGON        MMR11006101014050164660610000000000000000   10300001 00104100000000000900000000000000     
100   62443100303702210000000000096000000000096000002000000010410406100836190436608161920610216108043660   1030000600030000   554100001009315799420000504DENKO SOUTH DAGON      YANGON        MMR11006100836190436600610000000000000000   10300001 00104100000000011520000000000000     
100   62443100330048680000000000021000000000021000002000000010410406100605210041486128510610216112004148   1030000500030000   598320001101000015172200011MAX ENERGY             PTN           MMR11006100605210041480610000000000000000   10300001 00104100000000002520000000000000     
100   62911028202194090000000000032591000000032591002000000010410406100056260044404773800610216107004440   1030000500030000   598320001203000015172200012MAX ENERGY             PTN           MMR11006100056260044400610000000000000000   10300001 00104100000000000978000000000000     
100   62911028202417260000000000022000000000022000002000000010410406111158420049064773800611216218004906   1030000500030000   598320001403000015172200014MAX ENERGY             PTN           MMR11006111158420049060611000000000000000   10300001 00104100000000000660000000000000     
100   95050321084131410000000000200000000000200000002000000010410406131326045604947934070613000007325131   1030000200030000   333800010001203104000003327KBZPay                 Yangon        MMR11006131326045604940613000000000000000   10300001F05104100000000042000000000000000     
100   62911028202112400000000000020100000000020100002000000010410406130709359869784773800613216414986978   1040001600030000   591220001007000000010000737Shwe Ohh Pharmacy (Tan Ygn           MMR11006130709359869780613000000000000000   10300001F00104100000000001206000000000000     
100   95030367537085740000000000000980000000000980002000000010410406131424325432104773800613000007325329   1020000200030000   333400010001204104000000281Myanmar Soft-Gate Tech Yangon        MMR11006131424325432100613000000000000000   10300001F05104100000000000206000000000000     
100   95050329720648480000000000080000000000080000002000000010410406131622045204758614840613000007325657   1030000200030000   333800010001203104000003327KBZPay                 Yangon        MMR11006131622045204750613000000000000000   10300001F05104100000000016800000000000000     
100   95050315296997180000000000033400000000033400002000000010410406131145364567441068850613179151836163   1030000900030000   541119001308190110000000968Ocean Mingalar MDY C 1 MANDALAYHARSI MMR11006131145364567440613000000000000000   10300001F00104100000000008350000000000000     
100   95050329632900220000000000050000000000050000002000000010410406120808450013651609360612216314001365   1030000500030000   598320001802000015172200018MAX ENERGY             PTN           MMR11006120808450013650612000000000000000   10300001 00104100000000006000000000000000     
100   95050324850150480000000000050000000000050000002000000010410406100624260299221042680610216106029922   1030000600030000   554100001116315799420000574DENKO HLAE KUU         HLAE KUU      MMR11006100624260299220610000000000000000   10300001 00104100000000006000000000000000     
100   95050314893649800000000000005880000000005880002000000010410406131423135313161834710613000007325324   1020000200030000   333400010001204104000000281Myanmar Soft-Gate Tech Yangon        MMR11006131423135313160613000000000000000   10300001F05104100000000001235000000000000     
100   95050314534800510000000000000985000000000985002000000010410406130323165316101771480613000007320479   1020000200030000   333400010001204104000000281Myanmar Soft-Gate Tech Yangon        MMR11006130323165316100613000000000000000   10300001F05104100000000000207000000000000     
100   62911028202112400000000000028900000000028900002000000010410406130601129834324773800613216413983432   1040001600030000   591220000276000000010000264Shwe Ohh Pharmacy (YGH Yangon        MMR11006130601129834320613000000000000000   10300001F00104100000000001734000000000000     
100   62911028202221220000000000010000000000010000002000000010410406092247470031144773800610216105003114   1030000500030000   598320001604000015172200016MAX ENERGY             PTN           MMR11006092247470031140610000000000000000   10300001 00104100000000000300000000000000     
100   95050317834964620000000000001850000000001850002000000010410406101055160077557999170610216110007755   1030000600030000   549900002153315799420001502EASY MART- 003         YANGON        MMR11006101055160077550610000000000000000   10300001 00104100000000000787000000000000     
100   62911028202023630000000000076000000000076000002000000010410406100645010370154773800610216106037015   1030000600030000   554100001155315799420000607DENKO NPT 1            NAYPYITAW.    MMR11006100645010370150610000000000000000   10300001 00104100000000002280000000000000     
100   95050329888918380000000000017688000000017688002000000010410406110827040000278318330611216214000027   1030000500030000   531120226325000045311202263OCEAN SUPER CENTER STJ PTN           MMR11006110827040000270611000000000000000   10300001 00104100000000004245000000000000     
100   62911028202465350000000000011600000000011600002000000010410406110954290000364773800611216216000036   1030000500030000   541120203701000015411202037CITY MART SUPERMARKET  PTN           MMR11006110954290000360611000000000000000   10300001 00104100000000000696000000000000     
100   95050328035424750000000000019500000000019500002000000010410406110635420000629957020611216213000062   1030000500030000   569120100801008405691201008M.Y FASHION            PTN           MMR11006110635420000620611000000000000000   10300001 00104100000000004680000000000000     
100   95050326583352640000000000058972000000058972002000000010410406110738590001566822240611216214000156   1030000500030000   531120231221000045311202312OCEAN OATTARA THIRI    PTN           MMR11006110738590001560611000000000000000   10300001 00104100000000014153000000000000     
100   62911028202169750000000000044505000000044505002000000010410406110807190005684773800611216214000568   1030000500030000   541120226201000045411202262CITY MART ZAWANA       PTN           MMR11006110807190005680611000000000000000   10300001 00104100000000002670000000000000     
100   62911028202795770000000000025788000000025788002000000010410406111417580010934773800611216220001093   1030000500030000   581220024001000015812200240SHWE LAR HOT POT       PTN           MMR11006111417580010930611000000000000000   10300001 00104100000000002630000000000000     
100   95050322990383760000000000016900000000016900002000000010410406110813370002659715520611216214000265   1030000500030000   541120203706000015411202037CITY MART SUPERMARKET  PTN           MMR11006110813370002650611000000000000000   10300001 00104100000000004225000000000000     
100   95050313732480420000000000000980000000000980002000000010410406130422525252598587260613000007321243   1020000200030000   333400010001204104000000281Myanmar Soft-Gate Tech Yangon        MMR11006130422525252590613000000000000000   10300001F05104100000000000206000000000000     
100   95050317919176400000000000005000000000005000002000000010410406110634060005383261990611216213000538   1030000500030000   541120024704022205411200247ORANGE (SHWE PYI THAR) PTN           MMR11006110634060005380611000000000000000   10300001 00104100000000001250000000000000     
100   62911028202668300000000000030000000000030000002000000010410406100852510047604773800610216115004760   1030000500030000   598320001403000015172200014MAX ENERGY             PTN           MMR11006100852510047600610000000000000000   10300001 00104100000000000900000000000000     
100   95050311419479170000000000001960000000001960002000000010410406130923325332442770770613000007323899   1020000200030000   333400010001204104000000281Myanmar Soft-Gate Tech Yangon        MMR11006130923325332440613000000000000000   10300001F05104100000000000412000000000000     
100   95050319996628650000000000000980000000000980002000000010410406130123335333657368330613000007319862   1020000200030000   333400010001204104000000281Myanmar Soft-Gate Tech Yangon        MMR11006130123335333650613000000000000000   10300001F05104100000000000206000000000000     
100   95030301100081330000000000018300000000018300002000000010410406131043126245034773800613013124199029   1040001400030000   541110000369025411100002149Sein Daung Super Store Sein Daung Su MMR11006131043126245030613000000000000000   10300001 00104100000000001098000000000000     
100   62443100359018060000000000023000000000023000002000000010410406101056090001436722700610216117000143   1030000500030000   531120226326000045311202263OCEAN SUPER CENTER STJ PTN           MMR11006101056090001430610000000000000000   10300001 00104100000000005520000000000000     
100   62911028202442250000000000016500000000016500002000000010410406120109030046814773800612216307004681   1030000500030000   598320001203000015172200012MAX ENERGY             PTN           MMR11006120109030046810612000000000000000   10300001 00104100000000000495000000000000     
100   62911028202162640000000000075350000000075350002000000010410406101011020019204773800610216116001920   1030000500030000   541120020902022205411200209ORANGE (HLAING)        PTN           MMR11006101011020019200610000000000000000   10300001 00104100000000004521000000000000     
100   62911028202686950000000000035000000000035000002000000010410406100108200918714773800610216101091871   1030000600030000   554100000946315799420000471DENKO BAHAN            YANGON        MMR11006100108200918710610000000000000000   10300001 00104100000000001050000000000000     
100   62443100330108240000000000004900000000004900002000000010410406131323385338896196490613000007325124   1020000200030000   333400010001204104000000281Myanmar Soft-Gate Tech Yangon        MMR11006131323385338890613000000000000000   10300001F05104100000000001029000000000000     
100   62911028202112400000000000030000000000030000002000000010410406120517580043944773800612216311004394   1030000500030000   598320001202000015172200012MAX ENERGY             PTN           MMR11006120517580043940612000000000000000   10300001 00104100000000000900000000000000     
100   62911028202446540000000000037000000000037000002000000010410406100103010046104773800610216107004610   1030000500030000   598320001204000015172200012MAX ENERGY             PTN           MMR11006100103010046100610000000000000000   10300001 00104100000000001110000000000000     
100   62911028202194090000000000024599000000024599002000000010410406120050410041244773800612216307004124   1030000500030000   598320001201000015172200012MAX ENERGY             PTN           MMR11006120050410041240612000000000000000   10300001 00104100000000000738000000000000     
100   95050328384000040000000000015600000000015600002000000010410406110835000002405013360611216215000240   1030000500030000   541120226813000045411202268CITY MART WAIZAYANDA   PTN           MMR11006110835000002400611000000000000000   10300001 00104100000000003900000000000000     
100   62911028202651050000000000088809000000088809002000000010410406110615550003284773800611216212000328   1030000500030000   541120203401000045411202034AZAY CO. LTD           PTN           MMR11006110615550003280611000000000000000   10300001 00104100000000005329000000000000     
100   62911028202595200000000000150000000000150000002000000010410406110452200005014773800611216211000501   1030000500030000   541120129726000045411201297MAKRO MYANMAR          PTN           MMR11006110452200005010611000000000000000   10300001 00104100000000009000000000000000     
100   95050314430707800000000000013000000000013000002000000010410406110741330003188474730611216214000318   1030000500030000   569120069101008205691200691ESCORT                 PTN           MMR11006110741330003180611000000000000000   10300001 00104100000000003120000000000000     
100   62911028202809060000000000056052000000056052002000000010410406110349540004144773800611216210000414   1030000500030000   531120226710000045311202267OCEAN NORTH POINT      PTN           MMR11006110349540004140611000000000000000   10300001 00104100000000003363000000000000     
100   62911028202156540000000000100000000000100000002000000010410406110539190006904773800611216212000690   1030000500030000   806220046402006308062200464ASIA ROYAL HOSPITAL    PTN           MMR11006110539190006900611000000000000000   10300001 00104100000000006000000000000000     
100   62911028202440680000000000010100000000010100002000000010410406110255220004144773800611216209000414   1030000500030000   591220014301014405912200143SHWE OHH PHARMACY      PTN           MMR11006110255220004140611000000000000000   10300001 00104100000000000606000000000000     
100   62443100381661260000000000014750000000014750002000000010410406111208480006074672830611216218000607   1030000500030000   541120226203000045411202262CITY MART ZAWANA       PTN           MMR11006111208480006070611000000000000000   10300001 00104100000000003688000000000000     
100   62443100323428970000000000070368000000070368002000000010410406121109190004609311760612216317000460   1030000500030000   541120226810000045411202268CITY MART WAIZAYANDA   PTN           MMR11006121109190004600612000000000000000   10300001 00104100000000017592000000000000     
100   95030367537085740000000000010780000000010780002000000010410406130925425542664773800613000007323920   1020000200030000   333400010001204104000000281Myanmar Soft-Gate Tech Yangon        MMR11006130925425542660613000000000000000   10300001F05104100000000002264000000000000     
100   95050312224678430000000000000980000000000980002000000010410406131326125612346281580613000007325136   1020000200030000   333400010001204104000000281Myanmar Soft-Gate Tech Yangon        MMR11006131326125612340613000000000000000   10300001F05104100000000000206000000000000     
100   62443100337100010000000000027923500000027923502000000010410406131229075907551494330613000007324893   1030000200030000   3333000100012031040000040282C2P (Myanmar) Co. Ltd Yangon        MMR11006131229075907550613000000000000000   10300001F05104100000000010000000000000000     
100   62443101063232860000000000012000000000012000002000000010410406130732589880191252830613216414988019   1040001600030000   598320000310000000010000298PT Power Petrol Statio Yangon        MMR11006130732589880190613000000000000000   10300001F00104100000000001440000000000000     
100   62911028202443730000000000021000000000021000002000000010410406120914350060654773800612216315006065   1030000500030000   598320001901000015172200019MAX ENERGY             PTN           MMR11006120914350060650612000000000000000   10300001 00104100000000000630000000000000     
100   62443100383487320000000000306900000000306900002000000010410406120627590008669204800612216312000866   1030000500030000   569120058001019505691200580MK FASHION SHOP        PTN           MMR11006120627590008660612000000000000000   10300001 00104100000000073656000000000000     
100   62911028202472440000000000037000000000037000002000000010410406130606129837554773800613216413983755   1040001600030000   598320000658000000010000527Shwe Taung Energy (YGN Yangon        MMR11006130606129837550613000000000000000   10300001F00104100000000001110000000000000     
100   95050321057500320000000000008450000000008450002000000010410406110319400000565120320611216209000056   1030000500030000   541120234401000045411202344CITY EXPRESS (MCS - 28 PTN           MMR11006110319400000560611000000000000000   10300001 00104100000000002113000000000000     
100   62443100372718280000000000028500000000028500002000000010410406120524190020388779320612216311002038   1030000500030000   806220172402013008062201724GRAND HANTHA HOSPITAL  PTN           MMR11006120524190020380612000000000000000   10300001 00104100000000006840000000000000     
100   62911028202163630000000000043000000000043000002000000010410406120156448993674773800612216308899367   1040001600030000   598320000856000000010000609Terminal Petrol Statio Yangon        MMR11006120156448993670612000000000000000   10300001F00104100000000001290000000000000     
100   62443100390038980000000000041469000000041469002000000010410406120141058986548828760612216308898654   1040001600030000   581420000961000000010000708Imperial Garden (Sein  Yangon        MMR11006120141058986540612000000000000000   10300001F00104100000000004976000000000000     
100   62911028202463780000000000024850000000024850002000000010410406110948270002234773800611216216000223   1030000500030000   541120203705000015411202037CITY MART SUPERMARKET  PTN           MMR11006110948270002230611000000000000000   10300001 00104100000000001491000000000000     
100   62911028202440680000000000007500000000007500002000000010410406111231120000784773800611216219000078   1030000500030000   541120227901000045411202279CITY EXPRESS (MCS - 14 PTN           MMR11006111231120000780611000000000000000   10300001 00104100000000000450000000000000     
100   62443100363668680000000000030550000000030550002000000010410406101242540015000198520610216119001500   1030000500030000   581220041801000055812200418SHWE LAR HOT POT       PTN           MMR11006101242540015000610000000000000000   10300001 00104100000000012984000000000000     
100   62443100330105920000000000080990000000080990002000000010410406110529570006526190920611216211000652   1030000500030000   531120201602000085311202016STJ BLAZON             PTN           MMR11006110529570006520611000000000000000   10300001 00104100000000019438000000000000     
100   62911028202366010000000000189000000000189000002000000010410406111059020002954773800611216217000295   1030000500030000   569120090401000015691200904GIORDANO JUNCTION SQUA PTN           MMR11006111059020002950611000000000000000   10300001 00104100000000011340000000000000     
100   62911028202907490000000000029472000000029472002000000010410406110608560002384773800611216212000238   1030000500030000   541120229106000045411202291CITY MART YANKIN       PTN           MMR11006110608560002380611000000000000000   10300001 00104100000000001768000000000000     
100   95030301100338180000000000014150000000014150002000000010410406110601310001094773800611216212000109   1030000500030000   541120231308000045411202313CITY MART (AYEYARWON)  PTN           MMR11006110601310001090611000000000000000   10300001 00104100000000000849000000000000     
100   95050310750557450000000000003050000000003050002000000010410406111018030002523822010611216216000252   1030000500030000   591220011901014405912200119SHWE OHH PHARMACY      PTN           MMR11006111018030002520611000000000000000   10300001 00104100000000000732000000000000     
100   95050322990383760000000000064850000000064850002000000010410406110922340002701197810611216215000270   1030000500030000   541120203706000015411202037CITY MART SUPERMARKET  PTN           MMR11006110922340002700611000000000000000   10300001 00104100000000016213000000000000     
100   95050316901496590000000000010650000000010650002000000010410406111204040004472935250611216218000447   1030000500030000   541120045801009205411200458126 STORE              PTN           MMR11006111204040004470611000000000000000   10300001 00104100000000002663000000000000     
100   62911028202135350000000000045450000000045450002000000010410406111048230012884773800611216217001288   1030000500030000   581320195701000085813201957HARRYS BAR JUNCTION SQ PTN           MMR11006111048230012880611000000000000000   10300001 00104100000000004636000000000000     
100   95030301100121270000000000058250000000058250002000000010410406111043320002244773800611216217000224   1030000500030000   591220011601014405912200116SHWE OHH PHARMACY      PTN           MMR11006111043320002240611000000000000000   10300001 00104100000000003495000000000000     
100   62911028202793040000000000011990000000011990002000000010410406120704280002634773800612216313000263   1030000500030000   581220199601000085812201996LITTLE BOSS TERMINAL M PTN           MMR11006120704280002630612000000000000000   10300001 00104100000000001223000000000000     
100   95030367537085740000000000004900000000004900002000000010410406130927255725674773800613000007323942   1020000200030000   333400010001204104000000281Myanmar Soft-Gate Tech Yangon        MMR11006130927255725670613000000000000000   10300001F05104100000000001029000000000000     
100   62911028202099050000000000053800000000053800002000000010410406130509059800704773800613216412980070   1040001600030000   591220000266000000010000254Shwe Ohh Pharmacy (Sin Yangon        MMR11006130509059800700613000000000000000   10300001F00104100000000003228000000000000     
100   62443100392426520000000000010000000000010000002000000010410406131531110111788529740613000007325540   1030000200030000   333800010001203104000003327KBZPay                 Yangon        MMR11006131531110111780613000000000000000   10300001F05104100000000002100000000000000     
100   62911028202369990000000000200000000000200000002000000010410406130429105910184773800613000007321300   1030000200030000   333800010001203104000003327KBZPay                 Yangon        MMR11006130429105910180613000000000000000   10300001F05104100000000042000000000000000     
100   95050312498129060000000000002940000000002940002000000010410406131244521452244884390613000007324952   1020000200030000   333400010001204104000000281Myanmar Soft-Gate Tech Yangon        MMR11006131244521452240613000000000000000   10300001F05104100000000000617000000000000     
100   62911028202147720000000000036000000000036000002000000010410406100029550031274773800610216106003127   1030000500030000   598320001604000015172200016MAX ENERGY             PTN           MMR11006100029550031270610000000000000000   10300001 00104100000000001080000000000000     
100   62443100369813440000000000030000000000030000002000000010410406100202040043670333390610216108004367   1030000500030000   598320001302000015172200013MAX ENERGY             PTN           MMR11006100202040043670610000000000000000   10300001 00104100000000003600000000000000     
100   95050324154190880000000000025000000000025000002000000010410406120838200048788304390612216315004878   1030000500030000   598320001303000015172200013MAX ENERGY             PTN           MMR11006120838200048780612000000000000000   10300001 00104100000000003000000000000000     
100   62443100395250310000000000000980000000000980002000000010410406130051592159649992530613000007319793   1020000200030000   333400010001204104000000281Myanmar Soft-Gate Tech Yangon        MMR11006130051592159640613000000000000000   10300001F05104100000000000206000000000000     
100   95030339473566670000000000044640000000044640002000000010410406110717040018884773800611216213001888   1030000500030000   806220172406013008062201724GRAND HANTHA HOSPITAL  PTN           MMR11006110717040018880611000000000000000   10300001 00104100000000002678000000000000     
100   62911028202471600000000000071500000000071500002000000010410406100845180004444773800610216115000444   1030000500030000   531120226308000045311202263OCEAN SUPER CENTER STJ PTN           MMR11006100845180004440610000000000000000   10300001 00104100000000004290000000000000     
100   62911028202464020000000000002400000000002400002000000010410406111339170002464773800611216220000246   1030000500030000   541120203705000015411202037CITY MART SUPERMARKET  PTN           MMR11006111339170002460611000000000000000   10300001 00104100000000000144000000000000     
100   62911028202708080000000000024600000000024600002000000010410406130600254480524773800613459301225163   1030000900030000   541119001363190110000000977Ocean PZD C17          YANGONAUNG    MMR11006130600254480520613000000000000000   10300001F00104100000000001476000000000000     
100   95050312498129060000000000001960000000001960002000000010410406130921285128147728220613000007323884   1020000200030000   333400010001204104000000281Myanmar Soft-Gate Tech Yangon        MMR11006130921285128140613000000000000000   10300001F05104100000000000412000000000000     
100   62911028202464100000000000004300000000004300002000000010410406100631170001674773800610216113000167   1030000500030000   541120203705000015411202037CITY MART SUPERMARKET  PTN           MMR11006100631170001670610000000000000000   10300001 00104100000000000258000000000000     
100   62911028202911760000000000048500000000048500002000000010410406110251590005534773800611216209000553   1030000500030000   541120025102022205411200251ORANGE (THANLYIN-2)    PTN           MMR11006110251590005530611000000000000000   10300001 00104100000000002910000000000000     
100   62911028202202580000000000022600000000022600002000000010410406110358360004204773800611216210000420   1030000500030000   591220014301014405912200143SHWE OHH PHARMACY      PTN           MMR11006110358360004200611000000000000000   10300001 00104100000000001356000000000000     
100   62911028202135350000000000038015000000038015002000000010410406111118160047734773800611216217004773   1030000500030000   598320001401000015172200014MAX ENERGY             PTN           MMR11006111118160047730611000000000000000   10300001 00104100000000001141000000000000     
100   62911028202791220000000000097000000000097000002000000010410406110129050033004773800611216207003300   1030000500030000   598320001603000015172200016MAX ENERGY             PTN           MMR11006110129050033000611000000000000000   10300001 00104100000000002910000000000000     
100   62443101006526980000000000074500000000074500002000000010410406110542340027335425050611216212002733   1030000500030000   503920036604000015039200366PRO-1 HOME CENTER      PTN           MMR11006110542340027330611000000000000000   10300001 00104100000000017880000000000000     
100   62911028202286990000000000030000000000030000002000000010410406110154080057164773800611216208005716   1030000500030000   598320001901000015172200019MAX ENERGY             PTN           MMR11006110154080057160611000000000000000   10300001 00104100000000000900000000000000     
100   95050324154190880000000000018100000000018100002000000010410406110423380031656531300611216210003165   1030000500030000   598320002102000015172200021MAX ENERGY             PTN           MMR11006110423380031650611000000000000000   10300001 00104100000000002172000000000000     
100   62911028202910770000000000065000000000065000002000000010410406110338150057464773800611216210005746   1030000500030000   598320001901000015172200019MAX ENERGY             PTN           MMR11006110338150057460611000000000000000   10300001 00104100000000001950000000000000     
100   62443100328070970000000000029200000000029200002000000010410406131034544549108990880613065041754163   1030000900030000   541119001508190110000001102Ocean MGDTM-C 1        YANGONADON    MMR11006131034544549100613000000000000000   10300001F00104100000000007300000000000000     
100   62911028202423360000000000002000000000002000002000000010410406121031580002384773800612216317000238   1030000500030000   531120226718000045311202267OCEAN NORTH POINT      PTN           MMR11006121031580002380612000000000000000   10300001 00104100000000000120000000000000     
100   95050319996628650000000000001960000000001960002000000010410406130115294529213467690613000007319836   1020000200030000   333400010001204104000000281Myanmar Soft-Gate Tech Yangon        MMR11006130115294529210613000000000000000   10300001F05104100000000000412000000000000     
100   62443100375796910000000000105000000000105000002000000010410406102355020032854730490611216206003285   1030000500030000   598320001603000015172200016MAX ENERGY             PTN           MMR11006102355020032850611000000000000000   10300001 00104100000000012600000000000000     
100   95050310397364970000000000000980000000000980002000000010410406130901373137580437520613000007323717   1020000200030000   333400010001204104000000281Myanmar Soft-Gate Tech Yangon        MMR11006130901373137580613000000000000000   10300001F05104100000000000206000000000000     
100   62911028202527490000000000010900000000010900002000000010410406130340104446924773800613653101010163   1030000900030000   541119001263190110000000958City Mart PLST C 6     YANGONMYOTHIT MMR11006130340104446920613000000000000000   10300001F00104100000000000654000000000000     
100   62443100358839880000000000066000000000066000002000000010410406120003110004935779080612216306000493   1030000500030000   799220099801013607992200998YANGON GOLF CLUB       PTN           MMR11006120003110004930612000000000000000   10300001 00104100000000015840000000000000     
100   62911028202423360000000000006200000000006200002000000010410406121017530002904773800612216316000290   1030000500030000   531120226738000045311202267OCEAN NORTH POINT      PTN           MMR11006121017530002900612000000000000000   10300001 00104100000000000372000000000000     
100   62911028202221220000000000010000000000010000002000000010410406110034000048794773800611216207004879   1030000500030000   598320001402000015172200014MAX ENERGY             PTN           MMR11006110034000048790611000000000000000   10300001 00104100000000000300000000000000     
100   62911028202593140000000000060000000000060000002000000010410406110859150058254773800611216215005825   1030000500030000   598320001901000015172200019MAX ENERGY             PTN           MMR11006110859150058250611000000000000000   10300001 00104100000000001800000000000000     
100   62911028202789750000000000021300000000021300002000000010410406131103430013884773800613216418001388   1040001600030000   591220000271000000010000259Shwe Ohh Pharmacy (Gwa Yangon        MMR11006131103430013880613000000000000000   10300001F00104100000000001278000000000000     
100   95050321188471220000000000014100000000014100002000000010410406131237470026497742010613000748423210   1030000200030000   541188001480000008000000399KBZ BANK               OCEAN SUPERCE MMR11006131237470026490613000000000000000   10300001 00104100000000003525000000000000     
100   95050312119522920000000000014000000000014000002000000010410406130949451945948238800613000007324112   1030000200030000   333800010001203104000003327KBZPay                 Yangon        MMR11006130949451945940613000000000000000   10300001F05104100000000002940000000000000     
100   62911028202232860000000000012137000000012137002000000010410406131513270377814773800613000748435833   1030000200030000   541188001024000008000000298KBZ BANK               CITY MART - M MMR11006131513270377810613000000000000000   10300001 00104100000000000728000000000000     
100   95050314287403810000000000002940000000002940002000000010410406130139170917128850630613000007319906   1020000200030000   333400010001204104000000281Myanmar Soft-Gate Tech Yangon        MMR11006130139170917120613000000000000000   10300001F05104100000000000617000000000000     
100   95050319728246800000000000100000000000100000002000000010410406131338500850311239040613000007325191   1030000500030000   333800010001201104000003863AYA Pay                Yangon        MMR11006131338500850310613000000000000000   10300001F05104100000000021000000000000000     
100   62443100371022130000000000029000000000029000002000000010410406120903050011613006560612000349896617   1030000300030000   581200001812000000000001296CB BANK                SP BAKERY (YA MMR11006120903050011610612000000000000000   10300001F00104100000000012325000000000000     
100   62911028202761360000000000052650000000052650002000000010410406120847330001864773800612216315000186   1030000500030000   531120231221000045311202312OCEAN OATTARA THIRI    PTN           MMR11006120847330001860612000000000000000   10300001 00104100000000003159000000000000     
100   62911028202423360000000000010600000000010600002000000010410406120552500004634773800612216312000463   1030000500030000   531120226719000045311202267OCEAN NORTH POINT      PTN           MMR11006120552500004630612000000000000000   10300001 00104100000000000636000000000000     
100   95030333409030400000000000086264000000086264002000000010410406120610490005634773800612216312000563   1030000500030000   541120226804000045411202268CITY MART WAIZAYANDA   PTN           MMR11006120610490005630612000000000000000   10300001 00104100000000005176000000000000     
100   95050324250133010000000000099300000000099300002000000010410406120357340017116446060612216310001711   1030000500030000   503920036610000015039200366PRO-1 HOME CENTER      PTN           MMR11006120357340017110612000000000000000   10300001 00104100000000023832000000000000     
100   62911028202506770000000000006000000000006000002000000010410406121056160001904773800612216317000190   1030000500030000   541120227505000045411202275CITY MART (AHLONE BRAN PTN           MMR11006121056160001900612000000000000000   10300001 00104100000000000360000000000000     
100   62911028202221220000000000003600000000003600002000000010410406120610420000124773800612216312000012   1030000500030000   541120232201000045411202322CITY EXPRESS (MCS - 22 PTN           MMR11006120610420000120612000000000000000   10300001 00104100000000000216000000000000     
100   62911028202663430000000000000250000000000250002000000010410406120713130003014773800612216313000301   1030000500030000   541120203706000015411202037CITY MART SUPERMARKET  PTN           MMR11006120713130003010612000000000000000   10300001 00104100000000000015000000000000     
100   62911028202527490000000000020500000000020500002000000010410406130303550052124773800613000748408985   1030000200030000   591288000837000008000004646KBZ BANK               PINLON PHARMA MMR11006130303550052120613000000000000000   10300001 00104100000000001230000000000000     
100   62911028202232860000000000030000000000030000002000000010410406131514050377824773800613000748435875   1030000200030000   541188001024000008000000298KBZ BANK               CITY MART - M MMR11006131514050377820613000000000000000   10300001 00104100000000001800000000000000     
100   95050319067144780000000000042200000000042200002000000010410406131042450048913119230613000748413710   1030000200030000   541188001426000008000000401KBZ BANK               OCEAN SUPERCE MMR11006131042450048910613000000000000000   10300001 00104100000000010550000000000000     
100   62443100300743690000000000025533000000025533002000000010410406131237010107654799290613216419010765   1040001600030000   541120000557000000010000465Ocean Shwe Gone Daing  Yangon        MMR11006131237010107650613000000000000000   10300001F00104100000000006384000000000000     
100   95050318057347910000000000000980000000000980002000000010410406130636140614032869660613000007322449   1020000200030000   333400010001204104000000281Myanmar Soft-Gate Tech Yangon        MMR11006130636140614030613000000000000000   10300001F05104100000000000206000000000000     
100   62443100391804560000000000004900000000004900002000000010410406130933550355812685680613000007323980   1020000200030000   333400010001204104000000281Myanmar Soft-Gate Tech Yangon        MMR11006130933550355810613000000000000000   10300001F05104100000000001029000000000000     
100   95050312160676580000000000001960000000001960002000000010410406130151062106452076210613000007319942   1020000200030000   333400010001204104000000281Myanmar Soft-Gate Tech Yangon        MMR11006130151062106450613000000000000000   10300001F05104100000000000412000000000000     
100   95050312224678430000000000001960000000001960002000000010410406130241571157052671880613000007320096   1020000200030000   333400010001204104000000281Myanmar Soft-Gate Tech Yangon        MMR11006130241571157050613000000000000000   10300001F05104100000000000412000000000000     
100   95050327192897240000000000007989000000007989002000000010410406121025440007160552550612216316000716   1030000500030000   531120226306000045311202263OCEAN SUPER CENTER STJ PTN           MMR11006121025440007160612000000000000000   10300001 00104100000000001917000000000000     
100   62443100379321630000000000027327000000027327002000000010410406121217180003050879150612216318000305   1030000500030000   581220214201000085812202142CHILLI POT MALA XIANG  PTN           MMR11006121217180003050612000000000000000   10300001 00104100000000011614000000000000     
100   95030333409030400000000000019688000000019688002000000010410406120605540005624773800612216312000562   1030000500030000   541120226804000045411202268CITY MART WAIZAYANDA   PTN           MMR11006120605540005620612000000000000000   10300001 00104100000000001181000000000000     
100   62911028202506770000000000031266000000031266002000000010410406121011560006984773800612216316000698   1030000500030000   531120226303000045311202263OCEAN SUPER CENTER STJ PTN           MMR11006121011560006980612000000000000000   10300001 00104100000000001876000000000000     
100   95030315150842990000000000009100000000009100002000000010410406120655290014064773800612216313001406   1030000500030000   531120155604000045311201556GAMONE PWINT           PTN           MMR11006120655290014060612000000000000000   10300001 00104100000000000546000000000000     
100   95050311739830950000000000038800000000038800002000000010410406120931500002177077390612216316000217   1030000500030000   531120201401000085311202014HLC THE ONE            PTN           MMR11006120931500002170612000000000000000   10300001 00104100000000009312000000000000     
100   95050322104201170000000000013440000000013440002000000010410406120413040002924963770612216310000292   1030000500030000   531120155707000045311201557GAMONE PWINT           PTN           MMR11006120413040002920612000000000000000   10300001 00104100000000003226000000000000     
100   95030301100119620000000000010050000000010050002000000010410406120817440002424773800612216314000242   1030000500030000   541120227603000045411202276CITY MART ( 47 BRANCH  PTN           MMR11006120817440002420612000000000000000   10300001 00104100000000000603000000000000     
100   95050320335873810000000000000980000000000980002000000010410406130245591559425005140613000007320123   1020000200030000   333400010001204104000000281Myanmar Soft-Gate Tech Yangon        MMR11006130245591559420613000000000000000   10300001F05104100000000000206000000000000     
100   95050315615561720000000000000980000000000980002000000010410406130039450945525375460613000007319778   1020000200030000   333400010001204104000000281Myanmar Soft-Gate Tech Yangon        MMR11006130039450945520613000000000000000   10300001F05104100000000000206000000000000     
100   95050319996628650000000000000980000000000980002000000010410406130951092109003281350613000007324131   1020000200030000   333400010001204104000000281Myanmar Soft-Gate Tech Yangon        MMR11006130951092109000613000000000000000   10300001F05104100000000000206000000000000     
100   95050319728246800000000000300000000000300000002000000010410406131137550755504288720613000007324664   1030000500030000   333800010001201104000003863AYA Pay                Yangon        MMR11006131137550755500613000000000000000   10300001F05104100000000063000000000000000     
100   95050312498129060000000000000980000000000980002000000010410406130241171117384664760613000007320092   1020000200030000   333400010001204104000000281Myanmar Soft-Gate Tech Yangon        MMR11006130241171117380613000000000000000   10300001F05104100000000000206000000000000     
100   95050321455580800000000000007600000000007600002000000010410406131407250065124727990613000748431027   1030000200030000   541188001072000008000000314KBZ BANK               MARKETPLACE - MMR11006131407250065120613000000000000000   10300001 00104100000000001900000000000000     
100   95050314692738880000000000004900000000004900002000000010410406131235070507299841840613000007324914   1020000200030000   333400010001204104000000281Myanmar Soft-Gate Tech Yangon        MMR11006131235070507290613000000000000000   10300001F05104100000000001029000000000000     
100   95050319728246800000000000100000000000100000002000000010410406131141401140472721330613000007324687   1030000500030000   333800010001201104000003863AYA Pay                Yangon        MMR11006131141401140470613000000000000000   10300001F05104100000000021000000000000000     
100   62443100390038980000000000038500000000038500002000000010410406120837530006063346940612216315000606   1030000500030000   581220120601000055812201206THE SUSHI BAR          PTN           MMR11006120837530006060612000000000000000   10300001 00104100000000016363000000000000     
100   62911028202147720000000000032400000000032400002000000010410406121312450001824773800612216319000182   1030000500030000   581220142001000015812201420GOLDEN DUCK (NAN THI D PTN           MMR11006121312450001820612000000000000000   10300001 00104100000000003305000000000000     
100   62911028202473430000000000003400000000003400002000000010410406120924250002064773800612216315000206   1030000500030000   531120226331000045311202263OCEAN SUPER CENTER STJ PTN           MMR11006120924250002060612000000000000000   10300001 00104100000000000204000000000000     
100   95050316901496590000000000014300000000014300002000000010410406120549200004530687090612216312000453   1030000500030000   541120045801009205411200458126 STORE              PTN           MMR11006120549200004530612000000000000000   10300001 00104100000000003575000000000000     
100   62443100371022130000000000079620000000079620002000000010410406120650110006179531400612216313000617   1030000500030000   581220123001000045812201230YOON KITCHEN           PTN           MMR11006120650110006170612000000000000000   10300001 00104100000000033839000000000000     
100   62443100315110470000000000015500000000015500002000000010410406120901510007464659040612000349896467   1030000300030000   531100000863000000000000599CB BANK                MGOU-OP       MMR11006120901510007460612000000000000000   10300001F00104100000000003720000000000000     
100   62911028202506770000000000002200000000002200002000000010410406121029590002114773800612216316000211   1030000500030000   531120226331000045311202263OCEAN SUPER CENTER STJ PTN           MMR11006121029590002110612000000000000000   10300001 00104100000000000132000000000000     
100   95050310283577350000000000029400000000029400002000000010410406121158210003240708950612216318000324   1030000500030000   531120155707000045311201557GAMONE PWINT           PTN           MMR11006121158210003240612000000000000000   10300001 00104100000000007056000000000000     
100   95050310332595380000000000000980000000000980002000000010410406130243081308057714430613000007320106   1020000200030000   333400010001204104000000281Myanmar Soft-Gate Tech Yangon        MMR11006130243081308050613000000000000000   10300001F05104100000000000206000000000000     
100   95050310427855490000000000002940000000002940002000000010410406131143081308087678780613000007324697   1020000200030000   333400010001204104000000281Myanmar Soft-Gate Tech Yangon        MMR11006131143081308080613000000000000000   10300001F05104100000000000617000000000000     
100   95050319528093960000000000000980000000000980002000000010410406121649371937824609600613000007319479   1020000200030000   333400010001204104000000281Myanmar Soft-Gate Tech Yangon        MMR11006121649371937820613000000000000000   10300001F05104100000000000206000000000000     
100   95050312792817170000000000000980000000000980002000000010410406130331410141669487670613000007320623   1020000200030000   333400010001204104000000281Myanmar Soft-Gate Tech Yangon        MMR11006130331410141660613000000000000000   10300001F05104100000000000206000000000000     
100   95030367537085740000000000000980000000000980002000000010410406130235090509704773800613000007320062   1020000200030000   333400010001204104000000281Myanmar Soft-Gate Tech Yangon        MMR11006130235090509700613000000000000000   10300001F05104100000000000206000000000000     
100   95050313892255050000000000100000000000100000002000000010410406130338420842184274930613000007320718   1030000200030000   333800010001203104000003327KBZPay                 Yangon        MMR11006130338420842180613000000000000000   10300001F05104100000000021000000000000000     
100   95050328074436620000000000009800000000009800002000000010410406130731110111386295380613000007322920   1020000200030000   333400010001204104000000281Myanmar Soft-Gate Tech Yangon        MMR11006130731110111380613000000000000000   10300001F05104100000000002058000000000000     
100   95050316717221100000000000001960000000001960002000000010410406130336050605657494800613000007320693   1020000200030000   333400010001204104000000281Myanmar Soft-Gate Tech Yangon        MMR11006130336050605650613000000000000000   10300001F05104100000000000412000000000000     
100   62911028202761360000000000042000000000042000002000000010410406120933170003464773800612216316000346   1030000500030000   569120102701008205691201027ESCORT                 PTN           MMR11006120933170003460612000000000000000   10300001 00104100000000002520000000000000     
100   62911028202446540000000000022950000000022950002000000010410406121337470014934773800612216320001493   1030000500030000   581220021001000015812200210SHWE LAR HOT POT       PTN           MMR11006121337470014930612000000000000000   10300001 00104100000000002341000000000000     
100   62443100369813440000000000020000000000020000002000000010410406120253490046434381890612216309004643   1030000500030000   598320001302000015172200013MAX ENERGY             PTN           MMR11006120253490046430612000000000000000   10300001 00104100000000002400000000000000     
100   62911028202666570000000000021756000000021756002000000010410406120520290030694773800612216311003069   1030000500030000   531120156002000045311201560GAMONE PWINT           PTN           MMR11006120520290030690612000000000000000   10300001 00104100000000001305000000000000     
100   62911028202232860000000000091001000000091001002000000010410406121015180084284773800612216316008428   1030000500030000   598320001904000015172200019MAX ENERGY             PTN           MMR11006121015180084280612000000000000000   10300001 00104100000000002730000000000000     
100   62911028202221220000000000010000000000010000002000000010410406112247550033234773800612216305003323   1030000500030000   598320001604000015172200016MAX ENERGY             PTN           MMR11006112247550033230612000000000000000   10300001 00104100000000000300000000000000     
100   62443100371022130000000000054889000000054889002000000010410406120911310049729786680612216315004972   1030000500030000   598320001304000015172200013MAX ENERGY             PTN           MMR11006120911310049720612000000000000000   10300001 00104100000000006587000000000000     
100   62911028202533740000000000041000000000041000002000000010410406120941560034014773800612216316003401   1030000500030000   598320001601000015172200016MAX ENERGY             PTN           MMR11006120941560034010612000000000000000   10300001 00104100000000001230000000000000     
100   95050319978637470000000000005000000000005000002000000010410406130238100810453012270613000007320080   1030000200030000   3338000100012031040000040022C2P (Myanmar) Co. Ltd Yangon        MMR11006130238100810450613000000000000000   10300001F05104100000000001050000000000000     
100   95050310332595380000000000000980000000000980002000000010410406130244311431001189600613000007320115   1020000200030000   333400010001204104000000281Myanmar Soft-Gate Tech Yangon        MMR11006130244311431000613000000000000000   10300001F05104100000000000206000000000000     
100   95050310902464360000000000002940000000002940002000000010410406131539210921566877260613000007325558   1020000200030000   333400010001204104000000281Myanmar Soft-Gate Tech Yangon        MMR11006131539210921560613000000000000000   10300001F05104100000000000617000000000000     
100   95050312940629360000000000006000000000006000002000000010410406130909123912114423250613000007323781   1030000200030000   333800010001203104000003327KBZPay                 Yangon        MMR11006130909123912110613000000000000000   10300001F05104100000000001260000000000000     
100   62443100372718280000000000090260000000090260002000000010410406130056064422610077630613634260706163   1030000900030000   806219001559190110000000290Grand Hanthar Hospital YANGONUT      MMR11006130056064422610613000000000000000   10300001F00104100000000021662000000000000     
100   95050312618592720000000000045000000000045000002000000010410406130814334433431508120613000007323324   1030000200030000   333800010001203104000003327KBZPay                 Yangon        MMR11006130814334433430613000000000000000   10300001F05104100000000009450000000000000     
100   62443100399918110000000000041666000000041666002000000010410406130547354477109473880613278171235163   1030000900030000   541119001250190110000000955City Mart JS C 9       YANGONUT      MMR11006130547354477100613000000000000000   10300001F00104100000000010417000000000000     
100   95050329213164970000000000002940000000002940002000000010410406130816484648169855630613000007323340   1020000200030000   333400010001204104000000281Myanmar Soft-Gate Tech Yangon        MMR11006130816484648160613000000000000000   10300001F05104100000000000617000000000000     
100   62911028202527800000000000046000000000046000002000000010410406121024140034024773800612216316003402   1030000500030000   598320001604000015172200016MAX ENERGY             PTN           MMR11006121024140034020612000000000000000   10300001 00104100000000001380000000000000     
100   95050314842866260000000000017100000000017100002000000010410406120724500030569191010612216313003056   1030000500030000   531120156008000045311201560GAMONE PWINT           PTN           MMR11006120724500030560612000000000000000   10300001 00104100000000004104000000000000     
100   95030343892826500000000000014700000000014700002000000010410406120711380043364773800612000349882280   1030000300030000   541100000089000000000000028CB BANK                ONE STOP KITC MMR11006120711380043360612000000000000000   10300001F00104100000000000882000000000000     
100   62911028202421380000000000086100000000086100002000000010410406120318040083114773800612216309008311   1030000500030000   598320001904000015172200019MAX ENERGY             PTN           MMR11006120318040083110612000000000000000   10300001 00104100000000002583000000000000     
100   95030346130941600000000000036970000000036970002000000010410406120809480060154773800612000349889741   1030000300030000   806200000192000000000000097CB BANK                AUNG YADANA H MMR11006120809480060150612000000000000000   10300001F00104100000000002218000000000000     
100   95030308100042590000000000045000000000045000002000000010410406121138360064524773800612216318006452   1030000500030000   598320001903000015172200019MAX ENERGY             PTN           MMR11006121138360064520612000000000000000   10300001 00104100000000001350000000000000     
100   62911028202124530000000000050000000000050000002000000010410406120740190044164773800612216314004416   1030000500030000   598320001202000015172200012MAX ENERGY             PTN           MMR11006120740190044160612000000000000000   10300001 00104100000000001500000000000000     
100   95050318052625040000000000020000000000020000002000000010410406120354590043436871540612216310004343   1030000500030000   598320001104000015172200011MAX ENERGY             PTN           MMR11006120354590043430612000000000000000   10300001 00104100000000002400000000000000     
100   62911028202355870000000000200000000000200000002000000010410406130325055505554773800613000007320533   1040001600030000   333800010001220104000004507A +                    Yangon        MMR11006130325055505550613000000000000000   10300001F05104100000000042000000000000000     
100   95050312962334280000000000000980000000000980002000000010410406131418014801184629100613000007325302   1020000200030000   333400010001204104000000281Myanmar Soft-Gate Tech Yangon        MMR11006131418014801180613000000000000000   10300001F05104100000000000206000000000000     
100   95050311182936420000000000029400000000029400002000000010410406131217164716168019170613000007324846   1020000200030000   333400010001204104000000281Myanmar Soft-Gate Tech Yangon        MMR11006131217164716160613000000000000000   10300001F05104100000000006174000000000000     
100   95050325630928770000000000000980000000000980002000000010410406130512264226220105210613000007321778   1020000200030000   333400010001204104000000281Myanmar Soft-Gate Tech Yangon        MMR11006130512264226220613000000000000000   10300001F05104100000000000206000000000000     
100   95030322236782320000000000340500000000340500002000000010410406130948144536104773800613295181614163   1030000900030000   541119000617190110000000452Pro(1) Global-Hlaing T YANGONTHARYA  MMR11006130948144536100613000000000000000   10300001F00104100000000020430000000000000     
100   62911028202668140000000000085364000000085364002000000010410406131001344539944773800613519311634163   1030000900030000   541119001284190110000000963City Mart SPL C 9      YANGONMYOTHIT MMR11006131001344539940613000000000000000   10300001F00104100000000005122000000000000     
100   95050323349421940000000000050000000000050000002000000010410406130823455345766635760613000007323399   1030000200030000   333800010001203104000003327KBZPay                 Yangon        MMR11006130823455345760613000000000000000   10300001F05104100000000010500000000000000     
100   62911028202260160000000000028250000000028250002000000010410406130727224502374773800613576571322163   1030000900030000   591219000918190110000000727Shwe Ohh Pharmacy St 3 YANGONOKKALAP MMR11006130727224502370613000000000000000   10300001F00104100000000001695000000000000     
100   62911028202464020000000000030000000000030000002000000010410406120326370033444773800612216309003344   1030000500030000   598320001601000015172200016MAX ENERGY             PTN           MMR11006120326370033440612000000000000000   10300001 00104100000000000900000000000000     
100   62443100379321630000000000060000000000060000002000000010410406091315590164058350950609216013016405   1030000600030000   554100002324315799420000481DENKO NORTH OKKALAPA   YANGON        MMR11006091315590164050609000000000000000   10300001 00104100000000007200000000000000     
100   62911028202341350000000000043000000000043000002000000010410406091323090803214773800609216013080321   1030000600030000   554100000955315799420000477DENKO INSEIN           YANGON        MMR11006091323090803210609000000000000000   10300001 00104100000000001290000000000000     
100   62911028202031710000000000131800000000131800002000000010410406120644369152964773800612216313915296   1040001600030000   581420000076000000010000074Hot Pot City Ahlone    Yangon        MMR11006120644369152960612000000000000000   10300001F00104100000000003954000000000000     
100   62443100363668680000000000261950000000261950002000000010410406121341429461569481950612216320946156   1040001600030000   581420000079000000010000075Spicy Hot Pot Saya San Yangon        MMR11006121341429461560612000000000000000   10300001F00104100000000031434000000000000     
100   95030302100062270000000000057750000000057750002000000010410406121343549463204773800612216320946320   1040001600030000   581420000079000000010000075Spicy Hot Pot Saya San Yangon        MMR11006121343549463200612000000000000000   10300001F00104100000000001733000000000000     
100   62911028202163630000000000018000000000018000002000000010410406120151408991424773800612216308899142   1040001600030000   598320000856000000010000609Terminal Petrol Statio Yangon        MMR11006120151408991420612000000000000000   10300001F00104100000000000540000000000000     
100   62911028202662930000000000043540000000043540002000000010410406121211169382034773800612216319938203   1040001600030000   541120000557000000010000465Ocean Shwe Gone Daing  Yangon        MMR11006121211169382030612000000000000000   10300001F00104100000000002612000000000000     
100   62443100323117100000000000015000000000015000002000000010410406131301473147984458910613000007325018   1030000200030000   333800010001203104000003327KBZPay                 Yangon        MMR11006131301473147980613000000000000000   10300001F05104100000000003150000000000000     
100   95050314692738880000000000002940000000002940002000000010410406131308113811124544010613000007325053   1020000200030000   333400010001204104000000281Myanmar Soft-Gate Tech Yangon        MMR11006131308113811120613000000000000000   10300001F05104100000000000617000000000000     
100   95050316818236190000000000004900000000004900002000000010410406130023505350696942850613000007319755   1020000200030000   333400010001204104000000281Myanmar Soft-Gate Tech Yangon        MMR11006130023505350690613000000000000000   10300001F05104100000000001029000000000000     
100   95050312498129060000000000000980000000000980002000000010410406131254102410788189360613000007324996   1020000200030000   333400010001204104000000281Myanmar Soft-Gate Tech Yangon        MMR11006131254102410780613000000000000000   10300001F05104100000000000206000000000000     
100   95050314996291580000000000001960000000001960002000000010410406130358562856651722030613000007320931   1020000200030000   333400010001204104000000281Myanmar Soft-Gate Tech Yangon        MMR11006130358562856650613000000000000000   10300001F05104100000000000412000000000000     
100   95050327416134790000000000004900000000004900002000000010410406130503063306426459850613000007321695   1020000200030000   333400010001204104000000281Myanmar Soft-Gate Tech Yangon        MMR11006130503063306420613000000000000000   10300001F05104100000000001029000000000000     
100   95050322312885760000000000006500000000006500002000000010410406130906173617228870130613000007323758   1030000200030000   333800010001203104000003327KBZPay                 Yangon        MMR11006130906173617220613000000000000000   10300001F05104100000000001365000000000000     
100   95050316377977350000000000005000000000005000002000000010410406130113494349111730110613000007319831   1030000200030000   3338000100012031040000040022C2P (Myanmar) Co. Ltd Yangon        MMR11006130113494349110613000000000000000   10300001F05104100000000001050000000000000     
100   62443100301716860000000000013542000000013542002000000010410406100910320001195488280610216115000119   1030000500030000   531120231214000045311202312OCEAN OATTARA THIRI    PTN           MMR11006100910320001190610000000000000000   10300001 00104100000000003250000000000000     
100   62443100340422630000000000041076000000041076002000000010410406101052360001430623330610216117000143   1030000500030000   541120229108000045411202291CITY MART YANKIN       PTN           MMR11006101052360001430610000000000000000   10300001 00104100000000010269000000000000     
100   95030346645639490000000000002744000000002744002000000010410406100851530005034773800610216115000503   1030000500030000   531120155715000045311201557GAMONE PWINT           PTN           MMR11006100851530005030610000000000000000   10300001 00104100000000000165000000000000     
100   95050328035424750000000000147900000000147900002000000010410406101025320000017359730610216116000001   1030000500030000   481220100301000014812201003LASER MOBILE 1         PTN           MMR11006101025320000010610000000000000000   10300001 00104100000000035496000000000000     
100   62911028202185260000000000017550000000017550002000000010410406101037340002324773800610216117000232   1030000500030000   541120203704000015411202037CITY MART SUPERMARKET  PTN           MMR11006101037340002320610000000000000000   10300001 00104100000000001053000000000000     
100   62911028202708080000000000040000000000040000002000000010410406100336560006534773800610216110000653   1030000500030000   598320002003000015172200020MAX ENERGY             PTN           MMR11006100336560006530610000000000000000   10300001 00104100000000001200000000000000     
100   62911028202099050000000000177600000000177600002000000010410406100628220006964773800610216112000696   1030000500030000   569120068701019505691200687MK FASHION SHOP        PTN           MMR11006100628220006960610000000000000000   10300001 00104100000000010656000000000000     
100   62911028202004330000000000013750000000013750002000000010410406101158510001324773800610216118000132   1030000500030000   531120226314000045311202263OCEAN SUPER CENTER STJ PTN           MMR11006101158510001320610000000000000000   10300001 00104100000000000825000000000000     
100   95050312595952760000000000019600000000019600002000000010410406130418564856395452490613000007321205   1020000200030000   333400010001204104000000281Myanmar Soft-Gate Tech Yangon        MMR11006130418564856390613000000000000000   10300001F05104100000000004116000000000000     
100   95050319996628650000000000000980000000000980002000000010410406130119514951807283240613000007319854   1020000200030000   333400010001204104000000281Myanmar Soft-Gate Tech Yangon        MMR11006130119514951800613000000000000000   10300001F05104100000000000206000000000000     
100   95050314692738880000000000000980000000000980002000000010410406130850192019782260190613000007323607   1020000200030000   333400010001204104000000281Myanmar Soft-Gate Tech Yangon        MMR11006130850192019780613000000000000000   10300001F05104100000000000206000000000000     
100   95050316377977350000000000010000000000010000002000000010410406130110404040358425150613000007319821   1040001600030000   333800010001220104000004507A +                    Yangon        MMR11006130110404040350613000000000000000   10300001F05104100000000002100000000000000     
100   95050313715913510000000000006500000000006500002000000010410406130956004538400316770613428261600163   1030000900030000   541119000122190110000000080Sein Gay Har BAK       YANGONADA     MMR11006130956004538400613000000000000000   10300001F00104100000000001625000000000000     
100   95050311959900780000000000002940000000002940002000000010410406130755362536668458430613000007323157   1020000200030000   333400010001204104000000281Myanmar Soft-Gate Tech Yangon        MMR11006130755362536660613000000000000000   10300001F05104100000000000617000000000000     
100   95030367537085740000000000002940000000002940002000000010410406130352562256524773800613000007320900   1020000200030000   333400010001204104000000281Myanmar Soft-Gate Tech Yangon        MMR11006130352562256520613000000000000000   10300001F05104100000000000617000000000000     
100   62443100308973140000000000161900000000161900002000000010410406130451024462848367620613501211102163   1030000900030000   591219000694190110000000525Shwe Ohh Pharmacy ST-2 YANGONAW      MMR11006130451024462840613000000000000000   10300001F00104100000000038856000000000000     
100   62911028202473840000000000193700000000193700002000000010410406100451430004064773800610216111000406   1030000500030000   591220014301014405912200143SHWE OHH PHARMACY      PTN           MMR11006100451430004060610000000000000000   10300001 00104100000000011622000000000000     
100   62911028202443730000000000032000000000032000002000000010410406100259450005034773800610216109000503   1030000500030000   531120226306000045311202263OCEAN SUPER CENTER STJ PTN           MMR11006100259450005030610000000000000000   10300001 00104100000000001920000000000000     
100   95030346645639490000000000009359000000009359002000000010410406100833000015714773800610216115001571   1030000500030000   531120155714000045311201557GAMONE PWINT           PTN           MMR11006100833000015710610000000000000000   10300001 00104100000000000562000000000000     
100   62911028202684060000000000044900000000044900002000000010410406100657370000454773800610216113000045   1030000500030000   541120229004000045411202290CITY MART SUPERMARKET  PTN           MMR11006100657370000450610000000000000000   10300001 00104100000000002694000000000000     
100   62911028202443730000000000081118000000081118002000000010410406100337130001014773800610216110000101   1030000500030000   531120226317000045311202263OCEAN SUPER CENTER STJ PTN           MMR11006100337130001010610000000000000000   10300001 00104100000000004867000000000000     
100   62911028202665170000000000025566000000025566002000000010410406100905540005314773800610216115000531   1030000500030000   541120226203000045411202262CITY MART ZAWANA       PTN           MMR11006100905540005310610000000000000000   10300001 00104100000000001534000000000000     
100   62911028202109030000000000341991000000341991002000000010410406101414450000884773800610216120000088   1030000500030000   581220124601000015812201246THE SQUARE             PTN           MMR11006101414450000880610000000000000000   10300001 00104100000000034883000000000000     
100   62911028202328810000000000026050000000026050002000000010410406101104510001184773800610216117000118   1030000500030000   541120226411000045411202264MARKET PLACE MYANMARPL PTN           MMR11006101104510001180610000000000000000   10300001 00104100000000001563000000000000     
100   62443101076362230000000000069486000000069486002000000010410406131019504544767253300613792491650163   1030000900030000   701119000076190110000000024Lotte Hotel            YANGON        MMR11006131019504544760613000000000000000   10300001F00104100000000029532000000000000     
100   95050329252108030000000000712000000000712000002000000010410406131119254561389246170613839491725163   1030000900030000   573219001183190110000000939UNIQUE Thingangyun     YANGONNGKUUN  MMR11006131119254561380613000000000000000   10300001F00104100000000170880000000000000     
100   95050314703432410000000000001000000000001000002000000010410406130900223022647047460613000007323707   1030000200030000   3338000100012031040000040022C2P (Myanmar) Co. Ltd Yangon        MMR11006130900223022640613000000000000000   10300001F05104100000000000210000000000000     
100   95050328156626340000000000010000000000010000002000000010410406131258482848629501450613000007325008   1030000200030000   333800010001203104000003327KBZPay                 Yangon        MMR11006131258482848620613000000000000000   10300001F05104100000000002100000000000000     
100   95050310456843760000000000000980000000000980002000000010410406131301573157492806420613000007325017   1020000200030000   333400010001204104000000281Myanmar Soft-Gate Tech Yangon        MMR11006131301573157490613000000000000000   10300001F05104100000000000206000000000000     
100   95030390626214130000000000003920000000003920002000000010410406130906503650564773800613000007323761   1020000200030000   333400010001204104000000281Myanmar Soft-Gate Tech Yangon        MMR11006130906503650560613000000000000000   10300001F05104100000000000823000000000000     
100   62911028202117290000000000200000000000200000002000000010410406130410474047854773800613000007321102   1030000200030000   333800010001203104000003327KBZPay                 Yangon        MMR11006130410474047850613000000000000000   10300001F05104100000000042000000000000000     
100   95050326159929830000000000017000000000017000002000000010410406131006294541246756510613593361629163   1030000900030000   541119000124190110000000080Sein Gay Har BAK       YANGONADA     MMR11006131006294541240613000000000000000   10300001F00104100000000004250000000000000     
100   62911028202471600000000000005000000000005000002000000010410406100846550001184773800610216115000118   1030000500030000   531120226312000045311202263OCEAN SUPER CENTER STJ PTN           MMR11006100846550001180610000000000000000   10300001 00104100000000000300000000000000     
100   62911028202610540000000000028000000000028000002000000010410406100650070001304773800610216113000130   1030000500030000   531120226316000045311202263OCEAN SUPER CENTER STJ PTN           MMR11006100650070001300610000000000000000   10300001 00104100000000001680000000000000     
100   95030346645639490000000000015500000000015500002000000010410406100750020003524773800610216114000352   1030000500030000   531120155701000045311201557GAMONE PWINT           PTN           MMR11006100750020003520610000000000000000   10300001 00104100000000000930000000000000     
100   62911028202464100000000000002900000000002900002000000010410406100645540000164773800610216113000016   1030000500030000   541120203701000015411202037CITY MART SUPERMARKET  PTN           MMR11006100645540000160610000000000000000   10300001 00104100000000000174000000000000     
100   62911028202045260000000000015600000000015600002000000010410406101057590000744773800610216117000074   1030000500030000   541120229201000045411202292CITY EXPRESS (MCS - 07 PTN           MMR11006101057590000740610000000000000000   10300001 00104100000000000936000000000000     
100   62911028202392820000000000018550000000018550002000000010410406100437020002234773800610216111000223   1030000500030000   503920036902017205039200369PRO-1 HOME CENTER      PTN           MMR11006100437020002230610000000000000000   10300001 00104100000000001113000000000000     
100   95030301100103940000000000027750000000027750002000000010410406100626270003134773800610216112000313   1030000500030000   571220154301000015712201543LOCK & LOCK (TIME CITY PTN           MMR11006100626270003130610000000000000000   10300001 00104100000000001665000000000000     
100   62911028202471600000000000017400000000017400002000000010410406100802380000604773800610216114000060   1030000500030000   531120226327000045311202263OCEAN SUPER CENTER STJ PTN           MMR11006100802380000600610000000000000000   10300001 00104100000000001044000000000000     
100   95050318131043910000000000004900000000004900002000000010410406131453002300595139680613000007325410   1020000200030000   333400010001204104000000281Myanmar Soft-Gate Tech Yangon        MMR11006131453002300590613000000000000000   10300001F05104100000000001029000000000000     
100   95050327416134790000000000030000000000030000002000000010410406130304303430168310110613000007320249   1030000200030000   333800010001203104000003327KBZPay                 Yangon        MMR11006130304303430160613000000000000000   10300001F05104100000000006300000000000000     
100   95050310409767690000000000000980000000000980002000000010410406130407053705718502160613000007321069   1020000200030000   333400010001204104000000281Myanmar Soft-Gate Tech Yangon        MMR11006130407053705710613000000000000000   10300001F05104100000000000206000000000000     
100   95050318057347910000000000025000000000025000002000000010410406131018194819010473170613000007324305   1030000200030000   3338000100012031040000040022C2P (Myanmar) Co. Ltd Yangon        MMR11006131018194819010613000000000000000   10300001F05104100000000005250000000000000     
100   95050313067820340000000000080500000000080500002000000010410406130702553255590827350613000007322681   1030000200030000   333800010001203104000003327KBZPay                 Yangon        MMR11006130702553255590613000000000000000   10300001F05104100000000016905000000000000     
100   62911028202520530000000000010000000000010000002000000010410406131312194219714773800613000007325074   1030000200030000   3338000100012031040000040022C2P (Myanmar) Co. Ltd Yangon        MMR11006131312194219710613000000000000000   10300001F05104100000000002100000000000000     
100   95050314979630620000000000002000000000002000002000000010410406131110504050178735590613000007324555   1030000200030000   3338000100012031040000040022C2P (Myanmar) Co. Ltd Yangon        MMR11006131110504050170613000000000000000   10300001F05104100000000000420000000000000     
100   62911028202417260000000000003500000000003500002000000010410406131355304593124773800613626252030163   1030000900030000   541119001341190110000000973Ocean JunctionNPT City NAYPYITAW     MMR11006131355304593120613000000000000000   10300001F00104100000000000210000000000000     
