100   62443100313112320000000000055000000000055000002000000010410406140237250437294088580614216509043729   1040001600030000   598320000328000000010000316PT Power Petrol Statio Nay Pyi Taw   MMR11006140237250437290614000000000000000   10300001F00104100000000006600000000000000     
100   95050317084233280000000000001960000000001960002000000010410406141045321532236492150614000007330321   1020000200030000   333400010001204104000000281Myanmar Soft-Gate Tech Yangon        MMR11006141045321532230614000000000000000   10300001F05104100000000000412000000000000     
100   62443100300743690000000000027000000000027000002000000010410406141232070807571861300614216519080757   1040001600030000   598320000911000000010000662MMTM - Tamwe           Ygn           MMR11006141232070807570614000000000000000   10300001F00104100000000003240000000000000     
100   95050324622440820000000000025000000000025000002000000010410406111332050077778658570611216213007777   1030000600030000   549900002153315799420001502EASY MART- 003         YANGON        MMR11006111332050077770611000000000000000   10300001 00104100000000010625000000000000     
100   95050323481251170000000000040000000000040000002000000010410406140855502550452166020614000007329528   1030000200030000   333800010001203104000003327KBZPay                 Yangon        MMR11006140855502550450614000000000000000   10300001F05104100000000008400000000000000     
100   62911028202661370000000000087470000000087470002000000010410406130730550006444773800613216414000644   1030000500030000   541120226804000045411202268CITY MART WAIZAYANDA   PTN           MMR11006130730550006440613000000000000000   10300001 00104100000000005248000000000000     
100   95050314292165140000000000028000000000028000002000000010410406140614064406960442230614000007328161   1030000200030000   3338000100012031040000040022C2P (Myanmar) Co. Ltd Yangon        MMR11006140614064406960614000000000000000   10300001F05104100000000005880000000000000     
100   62911028202313470000000000060000000000060000002000000010410406130857350035444773800613216415003544   1030000500030000   598320001603000015172200016MAX ENERGY             PTN           MMR11006130857350035440613000000000000000   10300001 00104100000000001800000000000000     
100   95050314692738880000000000158000000000158000002000000010410406140511114111516989930614000007327676   1030000200030000   3333000100012031040000040282C2P (Myanmar) Co. Ltd Yangon        MMR11006140511114111510614000000000000000   10300001F05104100000000010000000000000000     
100   95050312947607030000000000031000000000031000002000000010410406140147011701608024880614000007326174   1030000200030000   333800010001203104000003327KBZPay                 Yangon        MMR11006140147011701600614000000000000000   10300001F05104100000000006510000000000000     
100   62911028202162490000000000000980000000000980002000000010410406140206563656774773800614000007326249   1020000200030000   333400010001204104000000281Myanmar Soft-Gate Tech Yangon        MMR11006140206563656770614000000000000000   10300001F05104100000000000206000000000000     
100   95050316818236190000000000000980000000000980002000000010410406141340131013568896710614000007331044   1020000200030000   333400010001204104000000281Myanmar Soft-Gate Tech Yangon        MMR11006141340131013560614000000000000000   10300001F05104100000000000206000000000000     
100   95050311121153200000000000000980000000000980002000000010410406141344111411621144870614000007331057   1020000200030000   333400010001204104000000281Myanmar Soft-Gate Tech Yangon        MMR11006141344111411620614000000000000000   10300001F05104100000000000206000000000000     
100   95050317084233280000000000000980000000000980002000000010410406141054292429096577250614000007330369   1020000200030000   333400010001204104000000281Myanmar Soft-Gate Tech Yangon        MMR11006141054292429090614000000000000000   10300001F05104100000000000206000000000000     
100   62911028202473840000000000030700000000030700002000000010410406140620054710644773800614359501205164   1030000900030000   541119000126190110000000082Sein Gay Har Super Cen YANGON        MMR11006140620054710640614000000000000000   10300001F00104100000000001842000000000000     
100   95050311959900780000000000001960000000001960002000000010410406131643531353491919810614000007325712   1020000200030000   333400010001204104000000281Myanmar Soft-Gate Tech Yangon        MMR11006131643531353490614000000000000000   10300001F05104100000000000412000000000000     
100   95030308100042590000000000143500000000143500002000000010410406130743470003074773800613216414000307   1030000500030000   598320001704000015172200017MAX ENERGY             PTN           MMR11006130743470003070613000000000000000   10300001 00104100000000004305000000000000     
100   62911028202761360000000000030000000000030000002000000010410406110553000371414773800611216205037141   1030000600030000   554100001155315799420000607DENKO NPT 1            NAYPYITAW.    MMR11006110553000371410611000000000000000   10300001 00104100000000000900000000000000     
100   62911028202197630000000000011500000000011500002000000010410406120450010239834773800612216304023983   1030000600030000   554100002319315799420000477DENKO INSEIN           YANGON        MMR11006120450010239830612000000000000000   10300001 00104100000000000345000000000000     
100   62911028202212490000000000040000000000040000002000000010410406131141540043084773800613216418004308   1030000500030000   598320001201000015172200012MAX ENERGY             PTN           MMR11006131141540043080613000000000000000   10300001 00104100000000001200000000000000     
100   95050318065288040000000000020000000000020000002000000010410406140343061306164379530614000007326868   1030000200030000   333800010001203104000003327KBZPay                 Yangon        MMR11006140343061306160614000000000000000   10300001F05104100000000004200000000000000     
100   62911028202467900000000000023350000000023350002000000010410406130832000004304773800613216415000430   1030000500030000   541120227504000045411202275CITY MART (AHLONE BRAN PTN           MMR11006130832000004300613000000000000000   10300001 00104100000000001401000000000000     
100   95050314307746340000000000000980000000000980002000000010410406141447331733992627160614000007331293   1020000200030000   333400010001204104000000281Myanmar Soft-Gate Tech Yangon        MMR11006141447331733990614000000000000000   10300001F05104100000000000206000000000000     
100   62443100313529540000000000002940000000002940002000000010410406140837510751983662100614000007329382   1020000200030000   333400010001204104000000281Myanmar Soft-Gate Tech Yangon        MMR11006140837510751980614000000000000000   10300001F05104100000000000617000000000000     
100   95050324411430900000000000050000000000050000002000000010410406141002453245361449600614000007330075   1030000300030000   333300010001206104000002147DICA Company Limited   Yangon        MMR11006141002453245360614000000000000000   10300001F05104100000000010000000000000000     
100   95050310427855490000000000000980000000000980002000000010410406141407373737872967550614000007331119   1020000200030000   333400010001204104000000281Myanmar Soft-Gate Tech Yangon        MMR11006141407373737870614000000000000000   10300001F05104100000000000206000000000000     
100   62911028202473840000000000026000000000026000002000000010410406140604464706834773800614160341246164   1030000900030000   541119000127190110000000082Sein Gay Har Super Cen YANGON        MMR11006140604464706830614000000000000000   10300001F00104100000000001560000000000000     
100   95050311740551900000000000050000000000050000002000000010410406140849041904681754340614000007329481   1030000200030000   333800010001203104000003327KBZPay                 Yangon        MMR11006140849041904680614000000000000000   10300001F05104100000000010500000000000000     
100   95050312498129060000000000005880000000005880002000000010410406141057342734639882220614000007330379   1020000200030000   333400010001204104000000281Myanmar Soft-Gate Tech Yangon        MMR11006141057342734630614000000000000000   10300001F05104100000000001235000000000000     
100   95030301100120850000000000007400000000007400002000000010410406140601184705934773800614112311218164   1030000900030000   541119000126190110000000082Sein Gay Har Super Cen YANGON        MMR11006140601184705930614000000000000000   10300001F00104100000000000444000000000000     
100   95050316818236190000000000000980000000000980002000000010410406141336570657455591740614000007331026   1020000200030000   333400010001204104000000281Myanmar Soft-Gate Tech Yangon        MMR11006141336570657450614000000000000000   10300001F05104100000000000206000000000000     
100   62911028202446540000000000019200000000019200002000000010410406141214210790234773800614216519079023   1040001600030000   591220000287000000010000275Shwe Ohh Pharmacy (Wit Yangon        MMR11006141214210790230614000000000000000   10300001F00104100000000001152000000000000     
100   95050313970192050000000000027400000000027400002000000010410406111127380014250346850611216211001425   1030000600030000   5499000022253157994200015671 STOP S M BOGYOKE RD  YANGON        MMR11006111127380014250611000000000000000   10300001 00104100000000011645000000000000     
100   95050313843656520000000000001960000000001960002000000010410406140702533253206761230614000007328557   1020000200030000   333400010001204104000000281Myanmar Soft-Gate Tech Yangon        MMR11006140702533253200614000000000000000   10300001F05104100000000000412000000000000     
100   62911028202154800000000000100000000000100000002000000010410406140707122873994773800614371247915106   1040001400030000   581210000466025812100002956Golden Duck Restaurant (Junction 8)  MMR11006140707122873990614000000000000000   10300001 00104100000000010200000000000000     
100   95050328137327770000000000030000000000030000002000000010410406140155522552104805010614000007326207   1030000200030000   333800010001203104000003327KBZPay                 Yangon        MMR11006140155522552100614000000000000000   10300001F05104100000000006300000000000000     
100   62911028202248050000000000036000000000036000002000000010410406120303190372294773800612216303037229   1030000600030000   554100001155315799420000607DENKO NPT 1            NAYPYITAW.    MMR11006120303190372290612000000000000000   10300001 00104100000000001080000000000000     
100   95030396594260770000000000053000000000053000002000000010410406120311360109804773800612216303010980   1030000600030000   554100001218315799420000670DENKO MAWLAMYAING      MON STATE.    MMR11006120311360109800612000000000000000   10300001 00104100000000001590000000000000     
100   95030305700676370000000000075000000000075000002000000010410406121149320151984773800612216311015198   1030000600030000   554100001754315799420001135DENKO KYITE HTO        MON STATE.    MMR11006121149320151980612000000000000000   10300001 00104100000000002250000000000000     
100   62911028202366010000000000082000000000082000002000000010410406121228300143054773800612216312014305   1030000600030000   554100002328315799420001235DENKO NAY PYI TAW 2    NAYPYITAW     MMR11006121228300143050612000000000000000   10300001 00104100000000002460000000000000     
100   95050313732480420000000000003920000000003920002000000010410406141343241324090634290614000007331055   1020000200030000   333400010001204104000000281Myanmar Soft-Gate Tech Yangon        MMR11006141343241324090614000000000000000   10300001F05104100000000000823000000000000     
100   95050312498129060000000000000980000000000980002000000010410406141304343434600804490614000007330874   1020000200030000   333400010001204104000000281Myanmar Soft-Gate Tech Yangon        MMR11006141304343434600614000000000000000   10300001F05104100000000000206000000000000     
100   95050319728246800000000000050000000000050000002000000010410406131904343434650352420614000007325867   1030000500030000   333800010001201104000003863AYA Pay                Yangon        MMR11006131904343434650614000000000000000   10300001F05104100000000010500000000000000     
100   95030301100128610000000000300000000000300000002000000010410406140506133613534773800614000007327630   1030000200030000   333800010001203104000003327KBZPay                 Yangon        MMR11006140506133613530614000000000000000   10300001F05104100000000063000000000000000     
100   95050312933828140000000000005500000000005500002000000010410406140411134677834450830614637411013164   1030000900030000   541119001280190110000000963City Mart SPL C 5      YANGONMYOTHIT MMR11006140411134677830614000000000000000   10300001F00104100000000001375000000000000     
100   95050316377977350000000000005000000000005000002000000010410406140145131513439677370614000007326166   1030000200030000   3338000100012031040000040022C2P (Myanmar) Co. Ltd Yangon        MMR11006140145131513430614000000000000000   10300001F05104100000000001050000000000000     
100   95050311121153200000000000000980000000000980002000000010410406141346001600952882450614000007331062   1020000200030000   333400010001204104000000281Myanmar Soft-Gate Tech Yangon        MMR11006141346001600950614000000000000000   10300001F05104100000000000206000000000000     
100   95050314893649800000000000002940000000002940002000000010410406140655122512573286070614000007328510   1020000200030000   333400010001204104000000281Myanmar Soft-Gate Tech Yangon        MMR11006140655122512570614000000000000000   10300001F05104100000000000617000000000000     
100   95030317759265360000000000000100000000000100002000000010410406090906490000014773800609216015000001   1030000500030000   806220104601000018062201046DAWN CLINIC & DIAGNOST PTN           MMR11006090906490000010609000000000000000   10300001 00104100000000000006000000000000     
100   62443101006526980000000000047000000000047000002000000010410406120156590923064466980612216301092306   1030000600030000   554100000946315799420000471DENKO BAHAN            YANGON        MMR11006120156590923060612000000000000000   10300001 00104100000000005640000000000000     
100   62911028202911760000000000049000000000049000002000000010410406120350190311154773800612216303031115   1030000600030000   554100001113315799420000571DENKO THAN HLYIN -1    THAN HLYIN    MMR11006120350190311150612000000000000000   10300001 00104100000000001470000000000000     
100   95050319207947610000000000008300000000008300002000000010410406101232270025790709100610216112002579   1030000600030000   5499000023543157994200016371 STOP S M KAMARKYI    YANGON        MMR11006101232270025790610000000000000000   10300001 00104100000000003528000000000000     
100   62911028202752520000000000078000000000078000002000000010410406100605140178664773800610216106017866   1030000600030000   554100002320315799420000564DENKO PHYUU            PHYUU         MMR11006100605140178660610000000000000000   10300001 00104100000000002340000000000000     
100   95030339473566670000000000057400000000057400002000000010410406100045560209274773800610216100020927   1030000600030000   809900000537315799420000147GRAND HANTHA HOSPITAL  YANGON        MMR11006100045560209270610000000000000000   10300001 00104100000000003444000000000000     
100   95030301100121270000000000031500000000031500002000000010410406101053000678314773800610216110067831   1030000600030000   554100000952315799420000474DENKO N.DAGON - 1      YANGON        MMR11006101053000678310610000000000000000   10300001 00104100000000000945000000000000     
100   95050329252108030000000000010000000000010000002000000010410406101451040678743673680610216114067874   1030000600030000   554100000952315799420000474DENKO N.DAGON - 1      YANGON        MMR11006101451040678740610000000000000000   10300001 00104100000000001200000000000000     
100   62911028202077010000000000000980000000000980002000000010410406140400393039374773800614000007327059   1020000200030000   333400010001204104000000281Myanmar Soft-Gate Tech Yangon        MMR11006140400393039370614000000000000000   10300001F05104100000000000206000000000000     
100   62443100345308040000000000001000000000001000002000000010410406140911434143715300800614000007329656   1030000200030000   333800010001203104000003327KBZPay                 Yangon        MMR11006140911434143710614000000000000000   10300001F05104100000000000210000000000000     
100   95050311779172060000000000012000000000012000002000000010410406140037030703610097130614000007326007   1030000200030000   333800010001203104000003327KBZPay                 Yangon        MMR11006140037030703610614000000000000000   10300001F05104100000000002520000000000000     
100   95050314692738880000000000002940000000002940002000000010410406131705173517910267330614000007325748   1020000200030000   333400010001204104000000281Myanmar Soft-Gate Tech Yangon        MMR11006131705173517910614000000000000000   10300001F05104100000000000617000000000000     
100   95050328855407440000000000007600000000007600002000000010410406140752184733426031020614592221418164   1030000900030000   541119000155190110000000083SeinGayHarParami Cente YANGON        MMR11006140752184733420614000000000000000   10300001F00104100000000001900000000000000     
100   95050324250133010000000000005000000000005000002000000010410406140747381738000307690614000007328949   1030000200030000   333800010001203104000003327KBZPay                 Yangon        MMR11006140747381738000614000000000000000   10300001F05104100000000001050000000000000     
100   95050314567755980000000000001960000000001960002000000010410406141002283228713102090614000007330078   1020000200030000   333400010001204104000000281Myanmar Soft-Gate Tech Yangon        MMR11006141002283228710614000000000000000   10300001F05104100000000000412000000000000     
100   95050322312885760000000000014000000000014000002000000010410406140313274327207648840614000007326605   1030000200030000   333800010001203104000003327KBZPay                 Yangon        MMR11006140313274327200614000000000000000   10300001F05104100000000002940000000000000     
100   62911028202709150000000000038000000000038000002000000010410406110012580109344773800611216200010934   1030000600030000   554100001218315799420000670DENKO MAWLAMYAING      MON STATE.    MMR11006110012580109340611000000000000000   10300001 00104100000000001140000000000000     
100   62911028202761360000000000070000000000070000002000000010410406110551190371404773800611216205037140   1030000600030000   554100001155315799420000607DENKO NPT 1            NAYPYITAW.    MMR11006110551190371400611000000000000000   10300001 00104100000000002100000000000000     
100   62443100302523870000000000043000000000043000002000000010410406102346300165093078010611216223016509   1030000600030000   554100002324315799420000481DENKO NORTH OKKALAPA   YANGON        MMR11006102346300165090611000000000000000   10300001 00104100000000005160000000000000     
100   62911028202680670000000000047300000000047300002000000010410406110024360238064773800611216200023806   1030000600030000   554100002319315799420000477DENKO INSEIN           YANGON        MMR11006110024360238060611000000000000000   10300001 00104100000000001419000000000000     
100   95030389237176000000000000062000000000062000002000000010410406110120120296544773800611216201029654   1030000600030000   554100000725315799420000306DENKO MDY - 78         MANDALAY      MMR11006110120120296540611000000000000000   10300001 00104100000000001860000000000000     
100   62443100303702210000000000055000000000055000002000000010410406110308300437264779930611216203043726   1030000600030000   554100001009315799420000504DENKO SOUTH DAGON      YANGON        MMR11006110308300437260611000000000000000   10300001 00104100000000006600000000000000     
100   95030301100125070000000000046085000000046085002000000010410406110816070054324773800611216208005432   1030000600030000   581200002287315799420000141FUJI COFFEE HOUSE      YANGON        MMR11006110816070054320611000000000000000   10300001 00104100000000004701000000000000     
100   95030317922148660000000000029000000000029000002000000010410406110747380261664773800611216207026166   1030000600030000   554100002085315799420000471DENKO BAHAN            YANGON        MMR11006110747380261660611000000000000000   10300001 00104100000000000870000000000000     
100   62911028202397530000000000040845000000040845002000000010410406140702354721424773800614952321335164   1030000900030000   581219001580190110000001150Pizzamaru Mingalar Cin MANDALAYHARSA MMR11006140702354721420614000000000000000   10300001F00104100000000004166000000000000     
100   95050312728902740000000000005000000000005000002000000010410406140840571057218364270614000007329402   1030000200030000   333800010001203104000003327KBZPay                 Yangon        MMR11006140840571057210614000000000000000   10300001F05104100000000001050000000000000     
100   95050315110306410000000000003000000000003000002000000010410406140250102010395911260614000007326407   1030000200030000   333800010001203104000003327KBZPay                 Yangon        MMR11006140250102010390614000000000000000   10300001F05104100000000000630000000000000     
100   95050312695033440000000000000980000000000980002000000010410406141453302330944364740614000007331308   1020000200030000   333400010001204104000000281Myanmar Soft-Gate Tech Yangon        MMR11006141453302330940614000000000000000   10300001F05104100000000000206000000000000     
100   95050328855407440000000000007000000000007000002000000010410406140756274734469421080614649261427164   1030000900030000   541119000155190110000000083SeinGayHarParami Cente YANGON        MMR11006140756274734460614000000000000000   10300001F00104100000000001750000000000000     
100   95050311959900780000000000000980000000000980002000000010410406141537310731896017230614000007331427   1020000200030000   333400010001204104000000281Myanmar Soft-Gate Tech Yangon        MMR11006141537310731890614000000000000000   10300001F05104100000000000206000000000000     
100   95050315250339200000000000051000000000051000002000000010410406140838090809127052170614000007329379   1030000200030000   333800010001203104000003327KBZPay                 Yangon        MMR11006140838090809120614000000000000000   10300001F05104100000000010710000000000000     
100   95050311959900780000000000000980000000000980002000000010410406141558102810536102330614000007331487   1020000200030000   333400010001204104000000281Myanmar Soft-Gate Tech Yangon        MMR11006141558102810530614000000000000000   10300001F05104100000000000206000000000000     
100   62911028202088990000000000030000000000030000002000000010410406111018360058674773800611216210005867   1030000600030000   554100001211315799420000663DENKO  TETKONE         TETKONE       MMR11006111018360058670611000000000000000   10300001 00104100000000000900000000000000     
100   95050328074436620000000000044004000000044004002000000010410406110037520260398290740611216200026039   1030000600030000   554100002085315799420000471DENKO BAHAN            YANGON        MMR11006110037520260390611000000000000000   10300001 00104100000000005280000000000000     
100   95050321232876860000000000090000000000090000002000000010410406110315210141831474960611216203014183   1030000600030000   554100002328315799420001235DENKO NAY PYI TAW 2    NAYPYITAW     MMR11006110315210141830611000000000000000   10300001 00104100000000010800000000000000     
100   95030301100126550000000000043000000000043000002000000010410406110604420805064773800611216206080506   1030000600030000   554100000955315799420000477DENKO INSEIN           YANGON        MMR11006110604420805060611000000000000000   10300001 00104100000000001290000000000000     
100   95030398701797940000000000017150000000017150002000000010410406130635310002284773800613216413000228   1030000500030000   541120226411000045411202264MARKET PLACE MYANMARPL PTN           MMR11006130635310002280613000000000000000   10300001 00104100000000001029000000000000     
100   62911028202147720000000000008000000000008000002000000010410406130906340002954773800613216415000295   1030000500030000   541120227507000045411202275CITY MART (AHLONE BRAN PTN           MMR11006130906340002950613000000000000000   10300001 00104100000000000480000000000000     
100   62911028202213890000000000019800000000019800002000000010410406130516410003454773800613216411000345   1030000500030000   541120203706000015411202037CITY MART SUPERMARKET  PTN           MMR11006130516410003450613000000000000000   10300001 00104100000000001188000000000000     
100   95050326750398570000000000012500000000012500002000000010410406131121130004110983750613216417000411   1030000500030000   531120226725000045311202267OCEAN NORTH POINT      PTN           MMR11006131121130004110613000000000000000   10300001 00104100000000003000000000000000     
100   62911028202151910000000000029300000000029300002000000010410406140354324673864773800614446241032164   1030000900030000   581219001121190110000000902Yoon Kitchen           YANGONONE     MMR11006140354324673860614000000000000000   10300001F00104100000000002989000000000000     
100   62911028202809060000000000010000000000010000002000000010410406140959352935134773800614000007330056   1030000200030000   333800010001203104000003327KBZPay                 Yangon        MMR11006140959352935130614000000000000000   10300001F05104100000000002100000000000000     
100   95050319331315630000000000002940000000002940002000000010410406140805333533354463630614000007329100   1020000200030000   333400010001204104000000281Myanmar Soft-Gate Tech Yangon        MMR11006140805333533350614000000000000000   10300001F05104100000000000617000000000000     
100   62443101093150400000000000110900000000110900002000000010410406140239403840934173680614056080920164   1030000300030000   555510124693104519000020166Makro Myanmar                        MMR11006140239403840930614000000000000000   10300001 00104100000000026616000000000000     
100   62443100395250310000000000010000000000010000002000000010410406141239280928332371870614000007330793   1030000200030000   333800010001203104000003327KBZPay                 Yangon        MMR11006141239280928330614000000000000000   10300001F05104100000000002100000000000000     
100   95050313817486860000000000004900000000004900002000000010410406140407513751103053640614000007327111   1020000200030000   333400010001204104000000281Myanmar Soft-Gate Tech Yangon        MMR11006140407513751100614000000000000000   10300001F05104100000000001029000000000000     
100   62443100330048680000000000030000000000030000002000000010410406141510504050232712260614000007331359   1030000200030000   333800010001203104000003327KBZPay                 Yangon        MMR11006141510504050230614000000000000000   10300001F05104100000000006300000000000000     
100   95050313640946520000000000030000000000030000002000000010410406140313164316330317830614000007326596   1030000200030000   333800010001203104000003327KBZPay                 Yangon        MMR11006140313164316330614000000000000000   10300001F05104100000000006300000000000000     
100   95030301100022270000000000018120000000018120002000000010410406130125560000804773800613216407000080   1030000500030000   598320005302000015172200053MAX ENERGY             PTN           MMR11006130125560000800613000000000000000   10300001 00104100000000000544000000000000     
100   62443100358839880000000000045700000000045700002000000010410406130325090004662111860613216409000466   1030000500030000   541120045801009205411200458126 STORE              PTN           MMR11006130325090004660613000000000000000   10300001 00104100000000011425000000000000     
100   62911028202470870000000000016448000000016448002000000010410406130657370005684773800613216413000568   1030000500030000   581220214601000085812202146CHILLI POT MALA XIANG  PTN           MMR11006130657370005680613000000000000000   10300001 00104100000000001678000000000000     
100   62911028202221220000000000003850000000003850002000000010410406130051220005694773800613216407000569   1030000500030000   541120182401000045411201824EASY MART-007          PTN           MMR11006130051220005690613000000000000000   10300001 00104100000000000231000000000000     
100   62911028202687370000000000024064000000024064002000000010410406130837220002664773800613216415000266   1030000500030000   531120226316000045311202263OCEAN SUPER CENTER STJ PTN           MMR11006130837220002660613000000000000000   10300001 00104100000000001444000000000000     
100   62911028202221220000000000020000000000020000002000000010410406122235040034214773800613216405003421   1030000500030000   598320001604000015172200016MAX ENERGY             PTN           MMR11006122235040034210613000000000000000   10300001 00104100000000000600000000000000     
100   62911028202221220000000000010000000000010000002000000010410406130618500035214773800613216412003521   1030000500030000   598320001603000015172200016MAX ENERGY             PTN           MMR11006130618500035210613000000000000000   10300001 00104100000000000300000000000000     
100   62911028202218270000000000002800000000002800002000000010410406131021050002764773800613216416000276   1030000500030000   541120203705000015411202037CITY MART SUPERMARKET  PTN           MMR11006131021050002760613000000000000000   10300001 00104100000000000168000000000000     
100   95050312240830690000000000004900000000004900002000000010410406141417004700110889580614000007331184   1020000200030000   333400010001204104000000281Myanmar Soft-Gate Tech Yangon        MMR11006141417004700110614000000000000000   10300001F05104100000000001029000000000000     
100   95050314791376690000000000001960000000001960002000000010410406141446291629899322200614000007331290   1020000200030000   333400010001204104000000281Myanmar Soft-Gate Tech Yangon        MMR11006141446291629890614000000000000000   10300001F05104100000000000412000000000000     
100   95050314703432410000000000001000000000001000002000000010410406140248391839892606300614000007326404   1030000200030000   3338000100012031040000040022C2P (Myanmar) Co. Ltd Yangon        MMR11006140248391839890614000000000000000   10300001F05104100000000000210000000000000     
100   95050318141561190000000000010000000000010000002000000010410406140554532453823855160614000007328004   1030000200030000   333800010001203104000003327KBZPay                 Yangon        MMR11006140554532453820614000000000000000   10300001F05104100000000002100000000000000     
100   95050314570621780000000000004900000000004900002000000010410406140302183218397223360614000007326483   1020000200030000   333400010001204104000000281Myanmar Soft-Gate Tech Yangon        MMR11006140302183218390614000000000000000   10300001F05104100000000001029000000000000     
100   95050313168701670000000000000980000000000980002000000010410406141304553455774194550614000007330877   1020000200030000   333400010001204104000000281Myanmar Soft-Gate Tech Yangon        MMR11006141304553455770614000000000000000   10300001F05104100000000000206000000000000     
100   95050315158357300000000000004000000000004000002000000010410406141410534053425932130614000007331154   1030000200030000   333800010001203104000003327KBZPay                 Yangon        MMR11006141410534053420614000000000000000   10300001F05104100000000000840000000000000     
100   95030367537085740000000000000980000000000980002000000010410406140113354335974773800614000007326080   1020000200030000   333400010001204104000000281Myanmar Soft-Gate Tech Yangon        MMR11006140113354335970614000000000000000   10300001F05104100000000000206000000000000     
100   62911028202470870000000000006000000000006000002000000010410406130402250003614773800613216410000361   1030000500030000   541120203704000015411202037CITY MART SUPERMARKET  PTN           MMR11006130402250003610613000000000000000   10300001 00104100000000000360000000000000     
100   95050328137327770000000000010000000000010000002000000010410406131243560027513231910613216419002751   1030000500030000   598320068302000055983200683MAX ENERGY             PTN           MMR11006131243560027510613000000000000000   10300001 00104100000000001200000000000000     
100   95050313970192050000000000002800000000002800002000000010410406130224280000284579660613216408000028   1030000500030000   541120232801000045411202328CITY EXPRESS (MCS - 34 PTN           MMR11006130224280000280613000000000000000   10300001 00104100000000000700000000000000     
100   62911028202467900000000000006400000000006400002000000010410406130836460002894773800613216415000289   1030000500030000   541120227507000045411202275CITY MART (AHLONE BRAN PTN           MMR11006130836460002890613000000000000000   10300001 00104100000000000384000000000000     
100   95050315430281830000000000047900000000047900002000000010410406130131540003090418010613216401000309   1030000600030000   591200002214315799420001559365 PHARMACY 1         YANGON        MMR11006130131540003090613000000000000000   10300001 00104100000000011496000000000000     
100   95050315579688860000000000150000000000150000002000000010410406130408310000314771720613216410000031   1030000500030000   594420054101009605944200541NEW YORK JEWLERY SHOP  PTN           MMR11006130408310000310613000000000000000   10300001 00104100000000036000000000000000     
100   95050314567080940000000000029500000000029500002000000010410406131210260000682466040613216418000068   1030000500030000   541120230212000045411202302CITY MART SUPERMARKET  PTN           MMR11006131210260000680613000000000000000   10300001 00104100000000007375000000000000     
100   62443101001072630000000000128000000000128000002000000010410406130417520002392317710613216410000239   1030000500030000   569120170301008205691201703ESCORT                 PTN           MMR11006130417520002390613000000000000000   10300001 00104100000000030720000000000000     
100   95050314692738880000000000002940000000002940002000000010410406131713364336932004910614000007325756   1020000200030000   333400010001204104000000281Myanmar Soft-Gate Tech Yangon        MMR11006131713364336930614000000000000000   10300001F05104100000000000617000000000000     
100   95030301100128610000000000300000000000300000002000000010410406140507563756124773800614000007327642   1030000200030000   333800010001203104000003327KBZPay                 Yangon        MMR11006140507563756120614000000000000000   10300001F05104100000000063000000000000000     
100   95050314567755980000000000004500000000004500002000000010410406141112444244211619790614000007330445   1030000200030000   333800010001203104000003327KBZPay                 Yangon        MMR11006141112444244210614000000000000000   10300001F05104100000000000945000000000000     
100   95050318458849030000000000022490000000022490002000000010410406130618470003853039850613000350043189   1030000300030000   591200000169000000000000084CB BANK                MEDICARE STOR MMR11006130618470003850613000000000000000   10300001F00104100000000005398000000000000     
100   95050324773225760000000000020000000000020000002000000010410406140324165416063613660614000007326690   1030000200030000   333800010001203104000003327KBZPay                 Yangon        MMR11006140324165416060614000000000000000   10300001F05104100000000004200000000000000     
100   62911028202610540000000000004550000000004550002000000010410406140720008132144773800614500089563925   1040001400030000   555610000406025556100002875307 Store null No.(307   Anawrahta R MMR11006140720008132140614000000000000000   10300001 00104100000000000273000000000000     
100   95050317343045830000000000001960000000001960002000000010410406140353052305710819270614000007326986   1020000200030000   333400010001204104000000281Myanmar Soft-Gate Tech Yangon        MMR11006140353052305710614000000000000000   10300001F05104100000000000412000000000000     
100   95050319391394380000000000005750000000005750002000000010410406140952444763701364510614246221644164   1030000900030000   541119000124190110000000080Sein Gay Har BAK       YANGONADA     MMR11006140952444763700614000000000000000   10300001F00104100000000001438000000000000     
100   62911028202448030000000000012800000000012800002000000010410406131141270023844773800613216411002384   1030000600030000   581200000442315799420000068MR COW FOOD & BBQ 1    YANGON        MMR11006131141270023840613000000000000000   10300001 00104100000000001306000000000000     
100   62443100379321630000000000029800000000029800002000000010410406130921130007174508350613216415000717   1030000500030000   531120226305000045311202263OCEAN SUPER CENTER STJ PTN           MMR11006130921130007170613000000000000000   10300001 00104100000000007152000000000000     
100   95030308100042590000000000050000000000050000002000000010410406130745520003094773800613216414000309   1030000500030000   598320001704000015172200017MAX ENERGY             PTN           MMR11006130745520003090613000000000000000   10300001 00104100000000001500000000000000     
100   62911028202169750000000000026000000000026000002000000010410406130658590034654773800613216413003465   1030000500030000   598320002103000015172200021MAX ENERGY             PTN           MMR11006130658590034650613000000000000000   10300001 00104100000000000780000000000000     
100   95030308100042590000000000084529000000084529002000000010410406130742320003054773800613216414000305   1030000500030000   598320001704000015172200017MAX ENERGY             PTN           MMR11006130742320003050613000000000000000   10300001 00104100000000002536000000000000     
100   62911028202440680000000000010600000000010600002000000010410406130146000004374773800613216408000437   1030000500030000   591220014301014405912200143SHWE OHH PHARMACY      PTN           MMR11006130146000004370613000000000000000   10300001 00104100000000000636000000000000     
100   62911028202792960000000000004300000000004300002000000010410406131110100007264773800613216417000726   1030000500030000   531120226305000045311202263OCEAN SUPER CENTER STJ PTN           MMR11006131110100007260613000000000000000   10300001 00104100000000000258000000000000     
100   95030302100067550000000000013900000000013900002000000010410406130827230002854773800613216414000285   1030000500030000   531120226314000045311202263OCEAN SUPER CENTER STJ PTN           MMR11006130827230002850613000000000000000   10300001 00104100000000000834000000000000     
100   95050311883152260000000000011600000000011600002000000010410406141151144796383343590614144211814164   1030000900030000   541119001074190110000000872Sein Gay Har Hledan    YANGONUT      MMR11006141151144796380614000000000000000   10300001F00104100000000002900000000000000     
100   62911028202204800000000000022000000000022000002000000010410406141218354803174773800614537481835164   1030000900030000   591219000694190110000000525Shwe Ohh Pharmacy ST-2 YANGONAW      MMR11006141218354803170614000000000000000   10300001F00104100000000001320000000000000     
100   95050312224678430000000000000980000000000980002000000010410406140522275227147160130614000007327760   1020000200030000   333400010001204104000000281Myanmar Soft-Gate Tech Yangon        MMR11006140522275227140614000000000000000   10300001F05104100000000000206000000000000     
100   62443100345308040000000000001000000000001000002000000010410406140020185018318359550614000007325990   1030000900030000   333400010001202104000002022ACS                    Yangon        MMR11006140020185018310614000000000000000   10300001F05104100000000000210000000000000     
100   95050317823045920000000000050000000000050000002000000010410406140425335533038266380614000007327260   1030000200030000   333800010001203104000003327KBZPay                 Yangon        MMR11006140425335533030614000000000000000   10300001F05104100000000010500000000000000     
100   95050324411430900000000000353621000000353621002000000010410406141026555655970052410614000007330209   1010000100030000   333500010001212104000002535Internal Revenue Depar Yangon        MMR11006141026555655970614000000000000000   10300001F05104100000000060000000000000000     
100   95030360829747230000000000099200000000099200002000000010410406131138100004864773800613216418000486   1030000500030000   531120201603000085311202016STJ BLAZON             PTN           MMR11006131138100004860613000000000000000   10300001 00104100000000005952000000000000     
100   62911028202109290000000000102350000000102350002000000010410406140930104758164773800614960001610164   1030000900030000   541119001361190110000000977Ocean PZD C 15         YANGONAUNG    MMR11006140930104758160614000000000000000   10300001F00104100000000006141000000000000     
100   62443101053241940000000000122500000000122500002000000010410406131018420007463778140613216416000746   1030000500030000   581220105102002005812201051WHITE SWAN             PTN           MMR11006131018420007460613000000000000000   10300001 00104100000000052063000000000000     
100   95050319286546940000000000014600000000014600002000000010410406130223350011046232140613216408001104   1030000500030000   591220132901008605912201329THEIK DI WIN SHOP      PTN           MMR11006130223350011040613000000000000000   10300001 00104100000000003504000000000000     
100   62911028202132460000000000012200000000012200002000000010410406131055530002684773800613216417000268   1030000500030000   541120227603000045411202276CITY MART ( 47 BRANCH  PTN           MMR11006131055530002680613000000000000000   10300001 00104100000000000732000000000000     
100   62911028202703370000000000050000000000050000002000000010410406130239040062054773800613216409006205   1030000500030000   598320001901000015172200019MAX ENERGY             PTN           MMR11006130239040062050613000000000000000   10300001 00104100000000001500000000000000     
100   62911028202474000000000000040500000000040500002000000010410406130949500926234773800613216409092623   1030000600030000   554100000946315799420000471DENKO BAHAN            YANGON        MMR11006130949500926230613000000000000000   10300001 00104100000000001215000000000000     
100   62911028202286990000000000030000000000030000002000000010410406130821490049814773800613216414004981   1030000500030000   598320001301000015172200013MAX ENERGY             PTN           MMR11006130821490049810613000000000000000   10300001 00104100000000000900000000000000     
100   62911028202807400000000000100000000000100000002000000010410406130453010807354773800613216404080735   1030000600030000   554100000955315799420000477DENKO INSEIN           YANGON        MMR11006130453010807350613000000000000000   10300001 00104100000000003000000000000000     
100   95050310750557450000000000030000000000030000002000000010410406130515590044425913620613216411004442   1030000500030000   598320001101000015172200011MAX ENERGY             PTN           MMR11006130515590044420613000000000000000   10300001 00104100000000003600000000000000     
100   95050324411430900000000000270148000000270148002000000010410406141023075307726747440614000007330187   1010000100030000   333500010001212104000002535Internal Revenue Depar Yangon        MMR11006141023075307720614000000000000000   10300001F05104100000000060000000000000000     
100   95050311382087030000000000000980000000000980002000000010410406141425075507039237100614000007331219   1020000200030000   333400010001204104000000281Myanmar Soft-Gate Tech Yangon        MMR11006141425075507030614000000000000000   10300001F05104100000000000206000000000000     
100   95050314735271470000000000020000000000020000002000000010410406141326585658577159130614000007330967   1030000200030000   333800010001203104000003327KBZPay                 Yangon        MMR11006141326585658570614000000000000000   10300001F05104100000000004200000000000000     
100   95050311131833760000000000030000000000030000002000000010410406140725335533301548490614000007328769   1030000200030000   333800010001203104000003327KBZPay                 Yangon        MMR11006140725335533300614000000000000000   10300001F05104100000000006300000000000000     
100   95050314557307430000000000002940000000002940002000000010410406141123305330018641430614000007330487   1020000200030000   333400010001204104000000281Myanmar Soft-Gate Tech Yangon        MMR11006141123305330010614000000000000000   10300001F05104100000000000617000000000000     
100   62911028202473840000000000080150000000080150002000000010410406140953014763774773800614252231601164   1030000900030000   591219000694190110000000525Shwe Ohh Pharmacy ST-2 YANGONAW      MMR11006140953014763770614000000000000000   10300001F00104100000000004809000000000000     
100   62911028202109290000000000020600000000020600002000000010410406140948414762644773800614197181641164   1030000900030000   541119001349190110000000977Ocean PZD C 3          YANGONAUNG    MMR11006140948414762640614000000000000000   10300001F00104100000000001236000000000000     
100   95050316573091630000000000001960000000001960002000000010410406140618374837185484780614000007328199   1020000200030000   333400010001204104000000281Myanmar Soft-Gate Tech Yangon        MMR11006140618374837180614000000000000000   10300001F05104100000000000412000000000000     
100   62911028202752030000000000085000000000085000002000000010410406130252590392844773800613216402039284   1030000600030000   554100001003315799420000497DENKO KONE TA LA PAUNG YANGON        MMR11006130252590392840613000000000000000   10300001 00104100000000002550000000000000     
100   62443101006526980000000000030000000000030000002000000010410406122243590924900162720613216422092490   1030000600030000   554100000946315799420000471DENKO BAHAN            YANGON        MMR11006122243590924900613000000000000000   10300001 00104100000000003600000000000000     
100   95050323282717740000000000015000000000015000002000000010410406130321190049283934540613216409004928   1030000500030000   598320001301000015172200013MAX ENERGY             PTN           MMR11006130321190049280613000000000000000   10300001 00104100000000001800000000000000     
100   95050324850150480000000000050000000000050000002000000010410406130201580065748430860613216402006574   1030000600030000   554100001207315799420000659DENKO TAUNGOO          TAUNGOO.      MMR11006130201580065740613000000000000000   10300001 00104100000000006000000000000000     
100   62443100385534140000000000107000000000107000002000000010410406130601140112439224310613216406011243   1030000600030000   554100001237315799420000691DENKO AUNG PAN         KALAW.        MMR11006130601140112430613000000000000000   10300001 00104100000000012840000000000000     
100   62443100363668680000000000081000000000081000002000000010410406131242090060833146810613000350094025   1030000300030000   806200000192000000000000097CB BANK                AUNG YADANA H MMR11006131242090060830613000000000000000   10300001F00104100000000019440000000000000     
100   62911028202023630000000000057000000000057000002000000010410406111230230391964773800611216212039196   1030000600030000   554100001003315799420000497DENKO KONE TA LA PAUNG YANGON        MMR11006111230230391960611000000000000000   10300001 00104100000000001710000000000000     
100   95050326393773020000000000002940000000002940002000000010410406140830010001214804010614000007329309   1020000200030000   333400010001204104000000281Myanmar Soft-Gate Tech Yangon        MMR11006140830010001210614000000000000000   10300001F05104100000000000617000000000000     
100   95050312940629360000000000004000000000004000002000000010410406140700303030751718680614000007328548   1030000200030000   333800010001203104000003327KBZPay                 Yangon        MMR11006140700303030750614000000000000000   10300001F05104100000000000840000000000000     
100   62911028202610540000000000001000000000001000002000000010410406140723488105414773800614534833645688   1040001400030000   555610000406025556100002875307 Store null No.(307   Anawrahta R MMR11006140723488105410614000000000000000   10300001 00104100000000000060000000000000     
100   95050322295410690000000000008732000000008732002000000010410406131217270002499756750613216418000249   1030000500030000   541120226411000045411202264MARKET PLACE MYANMARPL PTN           MMR11006131217270002490613000000000000000   10300001 00104100000000002183000000000000     
100   95050317834964620000000000009500000000009500002000000010410406141123324789593683970614795531732164   1030000900030000   541119001353190110000000977Ocean PZD C 7          YANGONAUNG    MMR11006141123324789590614000000000000000   10300001F00104100000000002375000000000000     
100   95050324411430900000000000140716000000140716002000000010410406141018424842939541830614000007330166   1010000100030000   333500010001212104000002543Internal Revenue Depar Yangon        MMR11006141018424842930614000000000000000   10300001F05104100000000060000000000000000     
100   95050311419479170000000000001960000000001960002000000010410406140721555155691463390614000007328735   1020000200030000   333400010001204104000000281Myanmar Soft-Gate Tech Yangon        MMR11006140721555155690614000000000000000   10300001F05104100000000000412000000000000     
100   62911028202221220000000000003100000000003100002000000010410406140610468425654773800614404652928100   1040001400030000   599910000183025999100001252Mi Tha Su Mart Mi Tha  u Mart K-31   MMR11006140610468425650614000000000000000   10300001 00104100000000000186000000000000     
100   95050328855407440000000000007200000000007200002000000010410406140816434740167598410614995461443164   1030000900030000   541119000145190110000000083SeinGayHarParami Cente YANGON        MMR11006140816434740160614000000000000000   10300001F00104100000000001800000000000000     
100   62443100338139870000000000300000000000300000002000000010410406141456030005739250890614000748489334   1030000200030000   541188001067000008000000314KBZ BANK               MARKETPLACE - MMR11006141456030005730614000000000000000   10300001 00104100000000075000000000000000     
100   95050310332595380000000000000980000000000980002000000010410406140430020002735301800614000007327312   1020000200030000   333400010001204104000000281Myanmar Soft-Gate Tech Yangon        MMR11006140430020002730614000000000000000   10300001F05104100000000000206000000000000     
100   95050312498129060000000000000980000000000980002000000010410406140931150115012251130614000007329809   1020000200030000   333400010001204104000000281Myanmar Soft-Gate Tech Yangon        MMR11006140931150115010614000000000000000   10300001F05104100000000000206000000000000     
100   62443100306028540000000000013200000000013200002000000010410406141625100195561279410614000748494563   1030000200030000   541188001082000008000000294KBZ BANK               CITY MART - J MMR11006141625100195560614000000000000000   10300001 00104100000000003300000000000000     
100   62443100317863910000000000135000000000135000002000000010410406140502540501241692100614216512050124   1040001600030000   598320000328000000010000316PT Power Petrol Statio Nay Pyi Taw   MMR11006140502540501240614000000000000000   10300001F00104100000000016200000000000000     
100   95030301100344930000000000006500000000006500002000000010410406141254090065524773800614000748478956   1030000200030000   541188001072000008000000314KBZ BANK               MARKETPLACE - MMR11006141254090065520614000000000000000   10300001 00104100000000000390000000000000     
100   62911028202170490000000000057067000000057067002000000010410406141628030354204773800614000748494710   1030000200030000   541188001041000008000000010KBZ BANK               MARKETPLACE - MMR11006141628030354200614000000000000000   10300001 00104100000000003424000000000000     
100   62443100372702000000000000500000000000500000002000000010410406141534120412987669710614000007331422   1040001600030000   333800010001220104000004507A +                    Yangon        MMR11006141534120412980614000000000000000   10300001F05104100000000105000000000000000     
100   62911028202593140000000000050675000000050675002000000010410406141014314769924773800614606441631164   1030000900030000   541119001262190110000000958City Mart PLST C 5     YANGONMYOTHIT MMR11006141014314769920614000000000000000   10300001F00104100000000003041000000000000     
100   95050314126593570000000000002850000000002850002000000010410406141202154798805081170614273321815164   1030000900030000   541119001080190110000000872Sein Gay Har Hledan    YANGONUT      MMR11006141202154798800614000000000000000   10300001F00104100000000000713000000000000     
100   95050314126593570000000000011200000000011200002000000010410406141152224796681691100614161221822164   1030000900030000   541119001074190110000000872Sein Gay Har Hledan    YANGONUT      MMR11006141152224796680614000000000000000   10300001F00104100000000002800000000000000     
100   95050318057347910000000000000980000000000980002000000010410406141322235223592201680614000007330942   1020000200030000   333400010001204104000000281Myanmar Soft-Gate Tech Yangon        MMR11006141322235223590614000000000000000   10300001F05104100000000000206000000000000     
100   95030309416734020000000000001000000000001000002000000010410406132325205520164773800614000007325949   1030000200030000   3338000100012031040000040022C2P (Myanmar) Co. Ltd Yangon        MMR11006132325205520160614000000000000000   10300001F05104100000000000210000000000000     
100   62443100372702000000000001000000000001000000002000000010410406141228125812833428690614000007330756   1040001600030000   333800010001220104000004507A +                    Yangon        MMR11006141228125812830614000000000000000   10300001F05104100000000210000000000000000     
100   95030367537085740000000000000980000000000980002000000010410406141425525552504773800614000007331223   1020000200030000   333400010001204104000000281Myanmar Soft-Gate Tech Yangon        MMR11006141425525552500614000000000000000   10300001F05104100000000000206000000000000     
100   62911028202195320000000000300000000000300000002000000010410406141629195919784773800614000007331547   1030000200030000   333800010001203104000003327KBZPay                 Yangon        MMR11006141629195919780614000000000000000   10300001F05104100000000063000000000000000     
100   95050314302558730000000000025800000000025800002000000010410406141019100049987889350614000748495684   1030000200030000   569988000803000008000004614KBZ BANK               JCY-IPANEMA   MMR11006141019100049980614000000000000000   10300001 00104100000000006192000000000000     
100   95050314302558730000000000044800000000044800002000000010410406141024350050005094960614000748495890   1030000200030000   569988000803000008000004614KBZ BANK               JCY-IPANEMA   MMR11006141024350050000614000000000000000   10300001 00104100000000010752000000000000     
100   95050312298324450000000000001960000000001960002000000010410406140531300130835762930614000007327826   1020000200030000   333400010001204104000000281Myanmar Soft-Gate Tech Yangon        MMR11006140531300130830614000000000000000   10300001F05104100000000000412000000000000     
100   95050312360118350000000000003000000000003000002000000010410406140432230223873734410614000007327333   1030000200030000   3334000100012031040000040102C2P (Myanmar) Co. Ltd Yangon        MMR11006140432230223870614000000000000000   10300001F05104100000000000630000000000000     
100   62911028202313470000000000099858000000099858002000000010410406141607240042864773800614000748493686   1030000200030000   541188001005000008000000008KBZ BANK               MARKETPLACE - MMR11006141607240042860614000000000000000   10300001 00104100000000005991000000000000     
100   95050324411430900000000000118550000000118550002000000010410406141031030103553527570614000007330247   1010000100030000   333500010001212104000002535Internal Revenue Depar Yangon        MMR11006141031030103550614000000000000000   10300001F05104100000000060000000000000000     
100   95050323233042810000000000035000000000035000002000000010410406140535200520177415420614000007327857   1030000200030000   333800010001203104000003327KBZPay                 Yangon        MMR11006140535200520170614000000000000000   10300001F05104100000000007350000000000000     
100   62911028202313470000000000011400000000011400002000000010410406141618000231694773800614000748494194   1030000200030000   541188001017000008000000008KBZ BANK               MARKETPLACE - MMR11006141618000231690614000000000000000   10300001 00104100000000000684000000000000     
100   95050314307746340000000000000980000000000980002000000010410406140322525252440138500614000007326679   1020000200030000   333400010001204104000000281Myanmar Soft-Gate Tech Yangon        MMR11006140322525252440614000000000000000   10300001F05104100000000000206000000000000     
100   62443100363668680000000000030550000000030550002000000010410406131311110060862891520613000350097470   1030000300030000   806200000192000000000000097CB BANK                AUNG YADANA H MMR11006131311110060860613000000000000000   10300001F00104100000000007332000000000000     
100   95050324411430900000000000018000000000018000002000000010410406110758560921886580750611216207092188   1030000600030000   554100000946315799420000471DENKO BAHAN            YANGON        MMR11006110758560921880611000000000000000   10300001 00104100000000002160000000000000     
100   62443100333488440000000000020000000000020000002000000010410406130224350032589537110613216408003258   1030000500030000   598320002102000015172200021MAX ENERGY             PTN           MMR11006130224350032580613000000000000000   10300001 00104100000000002400000000000000     
100   95050314791376690000000000011760000000011760002000000010410406141232540254825166260614000007330768   1020000200030000   333400010001204104000000281Myanmar Soft-Gate Tech Yangon        MMR11006141232540254820614000000000000000   10300001F05104100000000002470000000000000     
100   95050315005801680000000000002940000000002940002000000010410406141233050305544024360614000007330769   1020000200030000   333400010001204104000000281Myanmar Soft-Gate Tech Yangon        MMR11006141233050305540614000000000000000   10300001F05104100000000000617000000000000     
100   62911028202472440000000000069190000000069190002000000010410406141054210042634773800614000748468552   1030000200030000   541188001005000008000000008KBZ BANK               MARKETPLACE - MMR11006141054210042630614000000000000000   10300001 00104100000000004151000000000000     
100   95030301100127050000000000092000000000092000002000000010410406140743520587604773800614216514058760   1040001600030000   591220000043000000010000041Mingalar Pharmacy      Yangon        MMR11006140743520587600614000000000000000   10300001F00104100000000005520000000000000     
100   95050326750398570000000000020440000000020440002000000010410406141414150300522215470614000748485743   1030000200030000   541188001042000008000000010KBZ BANK               MARKETPLACE - MMR11006141414150300520614000000000000000   10300001 00104100000000005110000000000000     
100   95050314448977280000000000050300000000050300002000000010410406140933060306580598640614000007329820   1030000200030000   333800010001203104000003327KBZPay                 Yangon        MMR11006140933060306580614000000000000000   10300001F05104100000000010563000000000000     
100   95050313968650950000000000019600000000019600002000000010410406140833070307986626690614000007329337   1020000200030000   333400010001204104000000281Myanmar Soft-Gate Tech Yangon        MMR11006140833070307980614000000000000000   10300001F05104100000000004116000000000000     
100   62911028202537390000000000020600000000020600002000000010410406141947270097064773800614000748502590   1030000200030000   541188001314000008000000306KBZ BANK               CITY MART - S MMR11006141947270097060614000000000000000   10300001 00104100000000001236000000000000     
100   62911028202448030000000000040750000000040750002000000010410406141427110140774773800614000748486934   1030000200030000   541188001023000008000000298KBZ BANK               CITY MART - M MMR11006141427110140770614000000000000000   10300001 00104100000000002445000000000000     
100   62443100323428970000000000090600000000090600002000000010410406140306190449822351010614216510044982   1040001600030000   591220000301000000010000289Shwe Ohh Pharmacy (Yay Yangon        MMR11006140306190449820614000000000000000   10300001F00104100000000021744000000000000     
100   62911028202470870000000000021150000000021150002000000010410406141133010124904773800614000748471787   1030000200030000   541188001081000008000000294KBZ BANK               CITY MART - J MMR11006141133010124900614000000000000000   10300001 00104100000000001269000000000000     
100   95050317533455090000000000050000000000050000002000000010410406141134270427282031490614000007330522   1030000200030000   333800010001203104000003327KBZPay                 Yangon        MMR11006141134270427280614000000000000000   10300001F05104100000000010500000000000000     
100   95050310750557450000000000024100000000024100002000000010410406140452110495731181520614216511049573   1040001600030000   591220001200000000010000908Shwe Ohh Pharmacy (Thu Ygn           MMR11006140452110495730614000000000000000   10300001F00104100000000005784000000000000     
100   95050324411430900000000000145417000000145417002000000010410406141035520552076917630614000007330270   1010000100030000   333500010001212104000002543Internal Revenue Depar Yangon        MMR11006141035520552070614000000000000000   10300001F05104100000000060000000000000000     
100   62443100300412100000000000294100000000294100002000000010410406140810590599914123240614216515059991   1040001600030000   591220000289000000010000277Shwe Ohh Pharmacy (Par Yangon        MMR11006140810590599910614000000000000000   10300001F00104100000000070584000000000000     
100   62443100340422630000000000025100000000025100002000000010410406141506250212655229500614000748490057   1030000200030000   541188001075000008000000294KBZ BANK               CITY MART - J MMR11006141506250212650614000000000000000   10300001 00104100000000006275000000000000     
100   95050328243669610000000000269000000000269000002000000010410406130949060000543366450613216416000054   1030000500030000   729820062701000017298200627BEAUTY BOX             PTN           MMR11006130949060000540613000000000000000   10300001 00104100000000064560000000000000     
100   95050324247403260000000000070000000000070000002000000010410406140619374710458959940614351491237164   1030000900030000   554119001103190110000000215New Day Energy MYG     YANGONONE     MMR11006140619374710450614000000000000000   10300001F00104100000000008400000000000000     
100   95030301100128610000000000300000000000300000002000000010410406140504493449594773800614000007327619   1030000200030000   333800010001203104000003327KBZPay                 Yangon        MMR11006140504493449590614000000000000000   10300001F05104100000000063000000000000000     
100   62911028202790310000000000064000000000064000002000000010410406130216310034854773800613216408003485   1030000500030000   598320001603000015172200016MAX ENERGY             PTN           MMR11006130216310034850613000000000000000   10300001 00104100000000001920000000000000     
100   62911028202471860000000000045000000000045000002000000010410406121011090311684773800612216310031168   1030000600030000   554100001113315799420000571DENKO THAN HLYIN -1    THAN HLYIN    MMR11006121011090311680612000000000000000   10300001 00104100000000001350000000000000     
100   62911028202147720000000000066800000000066800002000000010410406130904170002084773800613216415000208   1030000500030000   541120227505000045411202275CITY MART (AHLONE BRAN PTN           MMR11006130904170002080613000000000000000   10300001 00104100000000004008000000000000     
100   62911028202423360000000000030000000000030000002000000010410406130607240241364773800613216406024136   1030000600030000   554100002319315799420000477DENKO INSEIN           YANGON        MMR11006130607240241360613000000000000000   10300001 00104100000000000900000000000000     
100   95050312549035820000000000040000000000040000002000000010410406132344471447849926940614000007325960   1030000200030000   333800010001203104000003327KBZPay                 Yangon        MMR11006132344471447840614000000000000000   10300001F05104100000000008400000000000000     
100   95050326228858240000000000075000000000075000002000000010410406140346390466424464620614216510046642   1040001600030000   598320000830000000010000596Regency Petrol Station Ygn           MMR11006140346390466420614000000000000000   10300001F00104100000000009000000000000000     
100   95050316785465380000000000004950000000004950002000000010410406141122060045669443940614000748470881   1030000200030000   541188001463000008000000391KBZ BANK               OCEAN SUPER C MMR11006141122060045660614000000000000000   10300001 00104100000000001238000000000000     
100   62443100372702000000000001000000000001000000002000000010410406141231200120441776200614000007330762   1040001600030000   333800010001220104000004507A +                    Yangon        MMR11006141231200120440614000000000000000   10300001F05104100000000210000000000000000     
100   95050325997730520000000000055000000000055000002000000010410406140613530544322094720614216513054432   1040001600030000   598320000321000000010000309PT Power Petrol Statio Yangon        MMR11006140613530544320614000000000000000   10300001F00104100000000006600000000000000     
100   62443100379321630000000000055000000000055000002000000010410406140958290660769712020614216516066076   1040001600030000   598320000658000000010000527Shwe Taung Energy (YGN Yangon        MMR11006140958290660760614000000000000000   10300001F00104100000000006600000000000000     
100   62911028202289130000000000053000000000053000002000000010410406141027490686114773800614216517068611   1040001600030000   598320000658000000010000527Shwe Taung Energy (YGN Yangon        MMR11006141027490686110614000000000000000   10300001F00104100000000001590000000000000     
100   95050313123223200000000000005000000000005000002000000010410406140740331033428498810614000007328886   1030000200030000   333800010001203104000003327KBZPay                 Yangon        MMR11006140740331033420614000000000000000   10300001F05104100000000001050000000000000     
100   95050310676042860000000000080500000000080500002000000010410406140600323032227330320614000007328052   1030000200030000   333800010001203104000003327KBZPay                 Yangon        MMR11006140600323032220614000000000000000   10300001F05104100000000016905000000000000     
