100   95050319709462380000000000005000000000005000002000000010410406150237370737095221420615000007332289   1030000200030000   3338000100012031040000040022C2P (Myanmar) Co. Ltd Yangon        MMR11006150237370737090615000000000000000   10300001F05104100000000001050000000000000     
100   95050312119522920000000000010000000000010000002000000010410406151035590559056681850615000007336299   1030000200030000   333800010001203104000003327KBZPay                 Yangon        MMR11006151035590559050615000000000000000   10300001F05104100000000002100000000000000     
100   95030390626214130000000000080000000000080000002000000010410406150341191119334773800615000007332858   1030000200030000   333800010001203104000003327KBZPay                 Yangon        MMR11006150341191119330615000000000000000   10300001F05104100000000016800000000000000     
100   95050311458479980000000000001000000000001000002000000010410406151441311131286717500615000007337298   1030000200030000   3338000100012031040000040022C2P (Myanmar) Co. Ltd Yangon        MMR11006151441311131280615000000000000000   10300001F05104100000000000210000000000000     
100   95050318288857520000000000030000000000030000002000000010410406150152052205304625750615000007332104   1030000200030000   333800010001203104000003327KBZPay                 Yangon        MMR11006150152052205300615000000000000000   10300001F05104100000000006300000000000000     
100   95050310427855490000000000001960000000001960002000000010410406150302583258766959000615000007332447   1020000200030000   333400010001204104000000281Myanmar Soft-Gate Tech Yangon        MMR11006150302583258760615000000000000000   10300001F05104100000000000412000000000000     
100   62911028202355870000000001000000000001000000002000000010410406150605413541114773800615000007334117   1040001600030000   333800010001220104000004507A +                    Yangon        MMR11006150605413541110615000000000000000   10300001F05104100000000210000000000000000     
100   95050327996244850000000000130000000000130000002000000010410406151216504650843171030615000007336739   1030000200030000   333800010001203104000003327KBZPay                 Yangon        MMR11006151216504650840615000000000000000   10300001F05104100000000027300000000000000     
100   95050312781844250000000000010000000000010000002000000010410406151201193119839780970615000007336662   1030000200030000   333800010001203104000003327KBZPay                 Yangon        MMR11006151201193119830615000000000000000   10300001F05104100000000002100000000000000     
100   95050325139996190000000000003300000000003300002000000010410406150302353235952341940615000007332441   1030000200030000   333300010001203104000003632Myanmar Tradenet Test  Yangon        MMR11006150302353235950615000000000000000   10300001F05104100000000010000000000000000     
100   95050327996244850000000000100000000000100000002000000010410406151300243024381589860615000007336912   1030000200030000   3338000100012031040000040022C2P (Myanmar) Co. Ltd Yangon        MMR11006151300243024380615000000000000000   10300001F05104100000000021000000000000000     
100   95050313396828960000000000001960000000001960002000000010410406151115144514579355490615000007336496   1020000200030000   333400010001204104000000281Myanmar Soft-Gate Tech Yangon        MMR11006151115144514570615000000000000000   10300001F05104100000000000412000000000000     
100   62911028202651050000000000018800000000018800002000000010410406150218294894744773800615813480829165   1030000900030000   591219000885190110000000694Shwe Ohh Pharmacy ST-3 YANGON        MMR11006150218294894740615000000000000000   10300001F00104100000000001128000000000000     
100   95050328212196190000000000145150000000145150002000000010410406150647534961792995130615205171353165   1030000900030000   541119000817190110000000178Pro (1) Global (East D YANGONMYOTHIT MMR11006150647534961790615000000000000000   10300001F00104100000000036288000000000000     
100   95050327416134790000000000001960000000001960002000000010410406151307253725196547310615000007336926   1020000200030000   333400010001204104000000281Myanmar Soft-Gate Tech Yangon        MMR11006151307253725190615000000000000000   10300001F05104100000000000412000000000000     
100   95050327996244850000000000030000000000030000002000000010410406151214594459348128480615000007336733   1030000200030000   333800010001203104000003327KBZPay                 Yangon        MMR11006151214594459340615000000000000000   10300001F05104100000000006300000000000000     
100   95050322295410690000000000015000000000015000002000000010410406150343594913339363560615676131059165   1030000900030000   554119000348190110000000215New Day Energy MYG     YANGONONE     MMR11006150343594913330615000000000000000   10300001F00104100000000001800000000000000     
100   95050317176867660000000000001960000000001960002000000010410406150222045204851150580615000007332194   1020000200030000   333400010001204104000000281Myanmar Soft-Gate Tech Yangon        MMR11006150222045204850615000000000000000   10300001F05104100000000000412000000000000     
100   62443100348951400000000000100000000000100000002000000010410406150952152215618007740615000007336027   1030000200030000   333800010001203104000003327KBZPay                 Yangon        MMR11006150952152215610615000000000000000   10300001F05104100000000021000000000000000     
100   95050322312885760000000000008000000000008000002000000010410406150313164316472682320615000007332589   1030000200030000   333800010001203104000003327KBZPay                 Yangon        MMR11006150313164316470615000000000000000   10300001F05104100000000001680000000000000     
100   95050310989069570000000000260000000000260000002000000010410406150220305030129498100615000007332187   1030000200030000   333800010001203104000003327KBZPay                 Yangon        MMR11006150220305030120615000000000000000   10300001F05104100000000054600000000000000     
100   95050311230075240000000000051000000000051000002000000010410406151253382338891348350615000007336892   1030000200030000   333800010001203104000003327KBZPay                 Yangon        MMR11006151253382338890615000000000000000   10300001F05104100000000010710000000000000     
100   95050313411345710000000000032000000000032000002000000010410406150215184518654795940615000007332164   1030000200030000   3338000100012031040000040022C2P (Myanmar) Co. Ltd Yangon        MMR11006150215184518650615000000000000000   10300001F05104100000000006720000000000000     
100   95050310750557450000000000005800000000005800002000000010410406150223084895448441300615830530808165   1030000900030000   591219001116190110000000897Shwe Ohh Pharmacy St 4 YANGON        MMR11006150223084895440615000000000000000   10300001F00104100000000001392000000000000     
100   62443100348951400000000000100000000000100000002000000010410406150957182718393050280615000007336077   1030000200030000   333800010001203104000003327KBZPay                 Yangon        MMR11006150957182718390615000000000000000   10300001F05104100000000021000000000000000     
100   95050318048516790000000000010000000000010000002000000010410406150303043304375306520615000007332445   1030000200030000   333800010001203104000003327KBZPay                 Yangon        MMR11006150303043304370615000000000000000   10300001F05104100000000002100000000000000     
100   95050315099113150000000000000980000000000980002000000010410406151412574257093412540615000007337183   1020000200030000   333400010001204104000000281Myanmar Soft-Gate Tech Yangon        MMR11006151412574257090615000000000000000   10300001F05104100000000000206000000000000     
100   95050310427855490000000000000980000000000980002000000010410406151512014201699682080615000007337386   1020000200030000   333400010001204104000000281Myanmar Soft-Gate Tech Yangon        MMR11006151512014201690615000000000000000   10300001F05104100000000000206000000000000     
100   62911028202355870000000001000000000001000000002000000010410406150604483448884773800615000007334113   1040001600030000   333800010001220104000004507A +                    Yangon        MMR11006150604483448880615000000000000000   10300001F05104100000000210000000000000000     
100   95050311959900780000000000001960000000001960002000000010410406150623465346658852990615000007334275   1020000200030000   333400010001204104000000281Myanmar Soft-Gate Tech Yangon        MMR11006150623465346650615000000000000000   10300001F05104100000000000412000000000000     
100   95050312224678430000000000000980000000000980002000000010410406150427105710937505230615000007333261   1020000200030000   333400010001204104000000281Myanmar Soft-Gate Tech Yangon        MMR11006150427105710930615000000000000000   10300001F05104100000000000206000000000000     
100   95050310332595380000000000000980000000000980002000000010410406150627115711219179580615000007334296   1020000200030000   333400010001204104000000281Myanmar Soft-Gate Tech Yangon        MMR11006150627115711210615000000000000000   10300001F05104100000000000206000000000000     
100   95050329352979980000000000027000000000027000002000000010410406131034520001860643360613216417000186   1030000500030000   569920200001000025699202000ERKE SPORT GOODS SHOP  PTN           MMR11006131034520001860613000000000000000   10300001 00104100000000006480000000000000     
100   95050312878706670000000000009500000000009500002000000010410406140914290005772506410614000350234451   1030000300030000   531100000831000000000000567CB BANK                MGOU-CP       MMR11006140914290005770614000000000000000   10300001F00104100000000002280000000000000     
100   95030301100127050000000000001500000000001500002000000010410406140744100005214773800614216514000521   1030000500030000   591220020501005105912200205MINGALAR PHARMACY      PTN           MMR11006140744100005210614000000000000000   10300001 00104100000000000090000000000000     
100   62911028202243670000000000029300000000029300002000000010410406140611390001234773800614216506000123   1030000600030000   5499000024183157994200016871 STOP S M PIN LONE    YANGON        MMR11006140611390001230614000000000000000   10300001 00104100000000002989000000000000     
100   62443101001072630000000000040000000000040000002000000010410406140056400298599847560614216500029859   1030000600030000   554100000725315799420000306DENKO MDY - 78         MANDALAY      MMR11006140056400298590614000000000000000   10300001 00104100000000004800000000000000     
100   95050317175714970000000000050050000000050050002000000010410406150240331143279923580615216609114327   1040001600030000   591220001007000000010000737Shwe Ohh Pharmacy (Tan Ygn           MMR11006150240331143270615000000000000000   10300001F00104100000000012012000000000000     
100   95050327996244850000000000160000000000160000002000000010410406151248371837893000840615000007336874   1030000200030000   3338000100012031040000040022C2P (Myanmar) Co. Ltd Yangon        MMR11006151248371837890615000000000000000   10300001F05104100000000033600000000000000     
100   95050318400277060000000000040000000000040000002000000010410406150625045504222243050615000007334277   1030000200030000   333800010001203104000003327KBZPay                 Yangon        MMR11006150625045504220615000000000000000   10300001F05104100000000008400000000000000     
100   95050323233042810000000000000980000000000980002000000010410406150502023202627406350615000007333594   1020000200030000   333400010001204104000000281Myanmar Soft-Gate Tech Yangon        MMR11006150502023202620615000000000000000   10300001F05104100000000000206000000000000     
100   95050311382087030000000000000980000000000980002000000010410406150318544854376157480615000007332637   1020000200030000   333400010001204104000000281Myanmar Soft-Gate Tech Yangon        MMR11006150318544854370615000000000000000   10300001F05104100000000000206000000000000     
100   62443100315110470000000000012350000000012350002000000010410406150500474932819143930615666301147165   1030000900030000   591219000504190110000000351Shwe Ohh Pharmacy - (Y YANGONAW      MMR11006150500474932810615000000000000000   10300001F00104100000000002964000000000000     
100   62443100372718280000000000111600000000111600002000000010410406150742423919607236160615355111429165   1030000300030000   555510124690104519000020166Makro Myanmar                        MMR11006150742423919600615000000000000000   10300001 00104100000000026784000000000000     
100   95050314020354280000000000006400000000006400002000000010410406150922435000053851800615151521543165   1030000900030000   541119000115190110000000078Sein Gay Har Kan Thar  YANGONOKKALAP MMR11006150922435000050615000000000000000   10300001F00104100000000001600000000000000     
100   95050311959900780000000000000980000000000980002000000010410406151222585258036220720615000007336763   1020000200030000   333400010001204104000000281Myanmar Soft-Gate Tech Yangon        MMR11006151222585258030615000000000000000   10300001F05104100000000000206000000000000     
100   95050311959900780000000000000979000000000979002000000010410406151422105210761760050615000007337221   1020000200030000   333400010001204104000000281Myanmar Soft-Gate Tech Yangon        MMR11006151422105210760615000000000000000   10300001F05104100000000000205000000000000     
100   95030349489765520000000000030240000000030240002000000010410406150317004700844773800615000007332619   1030000400030000   333800010001205104000004531Onepay                 Yangon        MMR11006150317004700840615000000000000000   10300001F05104100000000006350000000000000     
100   62911028202441420000000000009300000000009300002000000010410406150657081272224773800615216613127222   1040001600030000   591220000296000000010000284Shwe Ohh Pharmacy (Lan Yangon        MMR11006150657081272220615000000000000000   10300001F00104100000000000558000000000000     
100   95050321848852460000000000361000000000361000002000000010410406140641470008966591040614216513000896   1030000500030000   481220073201005904812200732TECHNOLAND COMPUTER TR PTN           MMR11006140641470008960614000000000000000   10300001 00104100000000086640000000000000     
100   95050320531117320000000000073171000000073171002000000010410406141113400040936903850614216517004093   1030000500030000   598320002701000015172200027MAX ENERGY             PTN           MMR11006141113400040930614000000000000000   10300001 00104100000000008780000000000000     
100   62911028202000450000000000001960000000001960002000000010410406150708173817954773800615000007334635   1020000200030000   333400010001204104000000281Myanmar Soft-Gate Tech Yangon        MMR11006150708173817950615000000000000000   10300001F05104100000000000412000000000000     
100   95030302100067550000000000011900000000011900002000000010410406150716314968874773800615556461331165   1030000900030000   591219000506190110000000353Shwe Ohh Pharmacy - (Y YANGON        MMR11006150716314968870615000000000000000   10300001F00104100000000000714000000000000     
100   95050317770415060000000000070000000000070000002000000010410406141912584258776612900615000007331768   1030000200030000   333800010001203104000003327KBZPay                 Yangon        MMR11006141912584258770615000000000000000   10300001F05104100000000014700000000000000     
100   95050318617855880000000000000980000000000980002000000010410406150953362336396355250615000007336042   1020000200030000   333400010001204104000000281Myanmar Soft-Gate Tech Yangon        MMR11006150953362336390615000000000000000   10300001F05104100000000000206000000000000     
100   95050312498129060000000000002940000000002940002000000010410406150054362436548435580615000007331973   1020000200030000   333400010001204104000000281Myanmar Soft-Gate Tech Yangon        MMR11006150054362436540615000000000000000   10300001F05104100000000000617000000000000     
100   95030378828065520000000000010500000000010500002000000010410406151042335021724773800615353121733165   1030000900030000   541119000136190110000000083SeinGayHarParami Cente YANGON        MMR11006151042335021720615000000000000000   10300001F00104100000000000630000000000000     
100   95050315424817550000000000002940000000002940002000000010410406150623305330300505470615000007334273   1020000200030000   333400010001204104000000281Myanmar Soft-Gate Tech Yangon        MMR11006150623305330300615000000000000000   10300001F05104100000000000617000000000000     
100   95050315259054570000000000000980000000000980002000000010410406150659042904103420610615000007334543   1020000200030000   333400010001204104000000281Myanmar Soft-Gate Tech Yangon        MMR11006150659042904100615000000000000000   10300001F05104100000000000206000000000000     
100   62911028202355870000000001000000000001000000002000000010410406150603593359274773800615000007334105   1040001600030000   333800010001220104000004507A +                    Yangon        MMR11006150603593359270615000000000000000   10300001F05104100000000210000000000000000     
100   95030367537085740000000000000980000000000980002000000010410406151215274527004773800615000007336735   1020000200030000   333400010001204104000000281Myanmar Soft-Gate Tech Yangon        MMR11006151215274527000615000000000000000   10300001F05104100000000000206000000000000     
100   62443100348951400000000000300000000000300000002000000010410406150954252425031312700615000007336051   1030000200030000   333800010001203104000003327KBZPay                 Yangon        MMR11006150954252425030615000000000000000   10300001F05104100000000063000000000000000     
100   95050319528093960000000000002940000000002940002000000010410406150908303830873766710615000007335603   1020000200030000   333400010001204104000000281Myanmar Soft-Gate Tech Yangon        MMR11006150908303830870615000000000000000   10300001F05104100000000000617000000000000     
100   95050328384000040000000000004400000000004400002000000010410406150423063900596994650615933511054165   1030000300030000   444410113812104519000011888Shwepalin Nawaday Dago 1             MMR11006150423063900590615000000000000000   10300001 00104100000000001870000000000000     
100   62911028202355870000000000771000000000771000002000000010410406150608503850174773800615000007334143   1040001600030000   333800010001220104000004507A +                    Yangon        MMR11006150608503850170615000000000000000   10300001F05104100000000161910000000000000     
100   62443100306882420000000000100000000000100000002000000010410406142026065606371570350615000007331819   1030000200030000   333800010001203104000003327KBZPay                 Yangon        MMR11006142026065606370615000000000000000   10300001F05104100000000021000000000000000     
100   62443100379321630000000000016600000000016600002000000010410406130926060002469210510613216415000246   1030000500030000   531120226331000045311202263OCEAN SUPER CENTER STJ PTN           MMR11006130926060002460613000000000000000   10300001 00104100000000003984000000000000     
100   62911028202752520000000000027000000000027000002000000010410406130019260438944773800613216400043894   1030000600030000   554100001106315799420000564DENKO PHYUU            PHYUU         MMR11006130019260438940613000000000000000   10300001 00104100000000000810000000000000     
100   62911028202752030000000000060000000000060000002000000010410406131128340439684773800613216411043968   1030000600030000   554100001106315799420000564DENKO PHYUU            PHYUU         MMR11006131128340439680613000000000000000   10300001 00104100000000001800000000000000     
100   95050329252108030000000000015000000000015000002000000010410406131421050682452976620613216414068245   1030000600030000   554100000952315799420000474DENKO N.DAGON - 1      YANGON        MMR11006131421050682450613000000000000000   10300001 00104100000000001800000000000000     
100   62911028202169750000000000003200000000003200002000000010410406140350200002654773800614216510000265   1030000500030000   531120226331000045311202263OCEAN SUPER CENTER STJ PTN           MMR11006140350200002650614000000000000000   10300001 00104100000000000192000000000000     
100   62911028202170490000000000004750000000004750002000000010410406141124140003974773800614216517000397   1030000500030000   531120226326000045311202263OCEAN SUPER CENTER STJ PTN           MMR11006141124140003970614000000000000000   10300001 00104100000000000285000000000000     
100   95050325139996190000000000003300000000003300002000000010410406150309403940987044090615000007332533   1030000200030000   333300010001203104000003632Myanmar Tradenet Test  Yangon        MMR11006150309403940980615000000000000000   10300001F05104100000000010000000000000000     
100   95050312139901420000000000000980000000000980002000000010410406151054522452408589620615000007336397   1020000200030000   333400010001204104000000281Myanmar Soft-Gate Tech Yangon        MMR11006151054522452400615000000000000000   10300001F05104100000000000206000000000000     
100   95050316736513170000000000025500000000025500002000000010410406151104563456265454840615000007336447   1030000200030000   333800010001203104000003327KBZPay                 Yangon        MMR11006151104563456260615000000000000000   10300001F05104100000000005355000000000000     
100   95050314557307430000000000001960000000001960002000000010410406150823345334496646200615000007335212   1020000200030000   333400010001204104000000281Myanmar Soft-Gate Tech Yangon        MMR11006150823345334490615000000000000000   10300001F05104100000000000412000000000000     
100   95050315745833530000000000050000000000050000002000000010410406150427215721182462690615000007333250   1030000200030000   333800010001203104000003327KBZPay                 Yangon        MMR11006150427215721180615000000000000000   10300001F05104100000000010500000000000000     
100   62443100348951400000000000300000000000300000002000000010410406150956052605809660220615000007336062   1030000200030000   333800010001203104000003327KBZPay                 Yangon        MMR11006150956052605800615000000000000000   10300001F05104100000000063000000000000000     
100   95050323133124350000000000005500000000005500002000000010410406150707203720673590800615000007334629   1040001600030000   333800010001220104000004507A +                    Yangon        MMR11006150707203720670615000000000000000   10300001F05104100000000001155000000000000     
100   95050319938772870000000000000980000000000980002000000010410406151519334933328029600615000007337412   1020000200030000   333400010001204104000000281Myanmar Soft-Gate Tech Yangon        MMR11006151519334933320615000000000000000   10300001F05104100000000000206000000000000     
100   62911028202147720000000000031000000000031000002000000010410406140120510035054773800614216507003505   1030000500030000   598320001601000015172200016MAX ENERGY             PTN           MMR11006140120510035050614000000000000000   10300001 00104100000000000930000000000000     
100   62443100300743690000000000002200000000002200002000000010410406141446400000014279650614000350276082   1030000300030000   541100000449000000000000319CB BANK                ONESTOP KITCH MMR11006141446400000010614000000000000000   10300001F00104100000000000550000000000000     
100   62911028202169750000000000020000000000020000002000000010410406140345310007504773800614216510000750   1030000500030000   531120226305000045311202263OCEAN SUPER CENTER STJ PTN           MMR11006140345310007500614000000000000000   10300001 00104100000000001200000000000000     
100   95030301100121270000000000010000000000010000002000000010410406141123430022234773800614000350251335   1030000300030000   541100000961000000000000683CB BANK                ONE STOP KITC MMR11006141123430022230614000000000000000   10300001F00104100000000000600000000000000     
100   95050316573091630000000000012550000000012550002000000010410406141208390010510038620614216512001051   1030000600030000   5499000023523157994200016371 STOP S M KAMARKYI    YANGON        MMR11006141208390010510614000000000000000   10300001 00104100000000005334000000000000     
100   95050311836400730000000000012050000000012050002000000010410406141119110000470293910614216517000047   1030000500030000   541120233001000045411202330CITY EXPRESS (MCS - 45 PTN           MMR11006141119110000470614000000000000000   10300001 00104100000000003013000000000000     
100   62911028202684060000000000018371000000018371002000000010410406141059580002764773800614216517000276   1030000500030000   531120226718000045311202267OCEAN NORTH POINT      PTN           MMR11006141059580002760614000000000000000   10300001 00104100000000001102000000000000     
100   62443100306028540000000000010050000000010050002000000010410406140918200004805896480614216515000480   1030000500030000   541120227504000045411202275CITY MART (AHLONE BRAN PTN           MMR11006140918200004800614000000000000000   10300001 00104100000000002513000000000000     
100   62911028202290100000000000048000000000048000002000000010410406150537044942614773800615193071204165   1030000900030000   554119000345190110000000212New Day Energy PZD     YANGONAUNG    MMR11006150537044942610615000000000000000   10300001F00104100000000001440000000000000     
100   95050325139996190000000000093600000000093600002000000010410406150556332633646689920615000007334032   1030000200030000   333300010001203104000003632Myanmar Tradenet Test  Yangon        MMR11006150556332633640615000000000000000   10300001F05104100000000010000000000000000     
100   95050326306163850000000000018394310000018394312000000010410406150917114711815419190615000007335634   1030000200030000   333300010001203104000003632Myanmar Tradenet Test  Yangon        MMR11006150917114711810615000000000000000   10300001F05104100000000010000000000000000     
100   95050319111666800000000000000980000000000980002000000010410406142317114711910002970615000007331876   1020000200030000   333400010001204104000000281Myanmar Soft-Gate Tech Yangon        MMR11006142317114711910615000000000000000   10300001F05104100000000000206000000000000     
100   95050315701710960000000000200000000000200000002000000010410406151200413041974823520615000007336657   1030000200030000   333800010001203104000003327KBZPay                 Yangon        MMR11006151200413041970615000000000000000   10300001F05104100000000042000000000000000     
100   62911028202793040000000000003000000000003000002000000010410406151008073807114773800615000007336161   1030000200030000   3334000100012031040000040102C2P (Myanmar) Co. Ltd Yangon        MMR11006151008073807110615000000000000000   10300001F05104100000000000630000000000000     
100   95050312937155340000000000093850000000093850002000000010410406150955375008334787870615594251637165   1030000900030000   591219000796190110000000628Shwe Ohh Pharmacy ST-3 YANGONMYOTHIT MMR11006150955375008330615000000000000000   10300001F00104100000000022524000000000000     
100   95050313732480420000000000002940000000002940002000000010410406150828195819614993710615000007335250   1020000200030000   333400010001204104000000281Myanmar Soft-Gate Tech Yangon        MMR11006150828195819610615000000000000000   10300001F05104100000000000617000000000000     
100   95030360160133170000000000007700000000007700002000000010410406140921470012184773800614000350235395   1030000300030000   729800001753000000000001257CB BANK                ART & T8      MMR11006140921470012180614000000000000000   10300001F00104100000000000462000000000000     
100   95030346645639490000000000006860000000006860002000000010410406140716360015014773800614216513001501   1030000500030000   531120155712000045311201557GAMONE PWINT           PTN           MMR11006140716360015010614000000000000000   10300001 00104100000000000412000000000000     
100   95050311836400730000000000008050000000008050002000000010410406141405170000497584610614216520000049   1030000500030000   541120233001000045411202330CITY EXPRESS (MCS - 45 PTN           MMR11006141405170000490614000000000000000   10300001 00104100000000002013000000000000     
100   62911028202207380000000000008250000000008250002000000010410406140746300001594773800614216514000159   1030000500030000   541120203707000015411202037CITY MART SUPERMARKET  PTN           MMR11006140746300001590614000000000000000   10300001 00104100000000000495000000000000     
100   62911028202207380000000000005800000000005800002000000010410406140751310004234773800614216514000423   1030000500030000   541120203704000015411202037CITY MART SUPERMARKET  PTN           MMR11006140751310004230614000000000000000   10300001 00104100000000000348000000000000     
100   95030301100127050000000000030700000000030700002000000010410406140743260005204773800614216514000520   1030000500030000   591220020501005105912200205MINGALAR PHARMACY      PTN           MMR11006140743260005200614000000000000000   10300001 00104100000000001842000000000000     
100   62911028202684060000000000022750000000022750002000000010410406140414140007554773800614216510000755   1030000500030000   591220013601014405912200136SHWE OHH PHARMACY      PTN           MMR11006140414140007550614000000000000000   10300001 00104100000000001365000000000000     
100   95030325264619140000000000174900000000174900002000000010410406140548160004574773800614216512000457   1030000500030000   591220012101014405912200121SHWE OHH PHARMACY      PTN           MMR11006140548160004570614000000000000000   10300001 00104100000000010494000000000000     
100   62911028202341350000000000010550000000010550002000000010410406151103331420244773800615216618142024   1040001600030000   591220000299000000010000287Shwe Ohh Pharmacy (Yan Yangon        MMR11006151103331420240615000000000000000   10300001F00104100000000000633000000000000     
100   62911028202221220000000000010000000000010000002000000010410406132325440050494773800614216505005049   1030000500030000   598320001303000015172200013MAX ENERGY             PTN           MMR11006132325440050490614000000000000000   10300001 00104100000000000300000000000000     
100   95050316442084030000000000051000000000051000002000000010410406150524015401261306990615000007333781   1030000200030000   333800010001203104000003327KBZPay                 Yangon        MMR11006150524015401260615000000000000000   10300001F05104100000000010710000000000000     
100   95050316311487940000000000050000000000050000002000000010410406151225225522756305810615000007336774   1030000200030000   333800010001203104000003327KBZPay                 Yangon        MMR11006151225225522750615000000000000000   10300001F05104100000000010500000000000000     
100   95050313968650950000000000000980000000000980002000000010410406151229405940227958290615000007336797   1020000200030000   333400010001204104000000281Myanmar Soft-Gate Tech Yangon        MMR11006151229405940220615000000000000000   10300001F05104100000000000206000000000000     
100   95050314307746340000000000001960000000001960002000000010410406150927595759503936900615000007335788   1020000200030000   333400010001204104000000281Myanmar Soft-Gate Tech Yangon        MMR11006150927595759500615000000000000000   10300001F05104100000000000412000000000000     
100   95050319928585020000000000000980000000000980002000000010410406150929215921282284420615000007335787   1020000200030000   333400010001204104000000281Myanmar Soft-Gate Tech Yangon        MMR11006150929215921280615000000000000000   10300001F05104100000000000206000000000000     
100   62443100345308040000000000001000000000001000002000000010410406151225395539804653330615000007336786   1030000900030000   333400010001202104000002022ACS                    Yangon        MMR11006151225395539800615000000000000000   10300001F05104100000000000210000000000000     
100   95050312878706670000000000006050000000006050002000000010410406140835390000859676370614000350229369   1030000300030000   531100000750000000000000408CB BANK                CAPITAL HYPER MMR11006140835390000850614000000000000000   10300001F00104100000000001452000000000000     
100   62443100333488440000000000011000000000011000002000000010410406140259410003645570880614216509000364   1030000500030000   541120226407000045411202264MARKET PLACE MYANMARPL PTN           MMR11006140259410003640614000000000000000   10300001 00104100000000002750000000000000     
100   95050317043153610000000000034100000000034100002000000010410406141142190001190379000614216518000119   1030000500030000   541120231310000045411202313CITY MART (AYEYARWON)  PTN           MMR11006141142190001190614000000000000000   10300001 00104100000000008525000000000000     
100   62911028202170490000000000054632000000054632002000000010410406140624260028104773800614216512002810   1030000500030000   581220146401013205812201464THAI 47 (HELPIN BRANCH PTN           MMR11006140624260028100614000000000000000   10300001 00104100000000005572000000000000     
100   95030302100067550000000000012350000000012350002000000010410406140708430003964773800614216513000396   1030000500030000   541120227503000045411202275CITY MART (AHLONE BRAN PTN           MMR11006140708430003960614000000000000000   10300001 00104100000000000741000000000000     
100   62911028202684060000000000005000000000005000002000000010410406140532480005974773800614216512000597   1030000500030000   531120226721000045311202267OCEAN NORTH POINT      PTN           MMR11006140532480005970614000000000000000   10300001 00104100000000000300000000000000     
100   62443100333488440000000000181450000000181450002000000010410406140257010006683918390614216509000668   1030000500030000   541120226402000045411202264MARKET PLACE MYANMARPL PTN           MMR11006140257010006680614000000000000000   10300001 00104100000000045363000000000000     
100   62911028202221220000000000008700000000008700002000000010410406141131390011124773800614216518001112   1030000500030000   541120182201000045411201822EASY MART-005          PTN           MMR11006141131390011120614000000000000000   10300001 00104100000000000522000000000000     
100   95030364439875210000000000018000000000018000002000000010410406140914520021814773800614216515002181   1030000500030000   569120104001008205691201040ESCORT ( CITY MALL-ST. PTN           MMR11006140914520021810614000000000000000   10300001 00104100000000001080000000000000     
100   62911028202154800000000000047000000000047000002000000010410406130900310198684773800613216409019868   1030000600030000   554100002323315799420000474DENKO N.DAGON - 1      YANGON        MMR11006130900310198680613000000000000000   10300001 00104100000000001410000000000000     
100   95050313125362830000000000019500000000019500002000000010410406150312026456770944740615420227642338   1040001400030000   555610000598025556100003510119 Store null No-119  Anawrahta Roa MMR11006150312026456770615000000000000000   10300001 00104100000000004875000000000000     
100   95050324826664210000000000045000000000045000002000000010410406140054340052138195070614216507005213   1030000500030000   598320001402000015172200014MAX ENERGY             PTN           MMR11006140054340052130614000000000000000   10300001 00104100000000005400000000000000     
100   95050321232876860000000000067000000000067000002000000010410406140414320144201060770614216504014420   1030000600030000   554100002328315799420001235DENKO NAY PYI TAW 2    NAYPYITAW     MMR11006140414320144200614000000000000000   10300001 00104100000000008040000000000000     
100   95050317376014640000000000000980000000000980002000000010410406151531470147582987050615000007337450   1020000200030000   333400010001204104000000281Myanmar Soft-Gate Tech Yangon        MMR11006151531470147580615000000000000000   10300001F05104100000000000206000000000000     
100   95050311077567400000000000000980000000000980002000000010410406150829495949963341230615000007335271   1020000200030000   333400010001204104000000281Myanmar Soft-Gate Tech Yangon        MMR11006150829495949960615000000000000000   10300001F05104100000000000206000000000000     
100   95050317043153610000000000024900000000024900002000000010410406141214300002490123720614216518000249   1030000500030000   541120231304000045411202313CITY MART (AYEYARWON)  PTN           MMR11006141214300002490614000000000000000   10300001 00104100000000006225000000000000     
100   95050314538419220000000000012625000000012625002000000010410406141141500026165421560614000350253733   1030000300030000   541100000441000000000000319CB BANK                ONESTOP KITCH MMR11006141141500026160614000000000000000   10300001F00104100000000003157000000000000     
100   95030301100127050000000000022400000000022400002000000010410406140745570005224773800614216514000522   1030000500030000   591220020501005105912200205MINGALAR PHARMACY      PTN           MMR11006140745570005220614000000000000000   10300001 00104100000000001344000000000000     
100   95050319391394380000000000003400000000003400002000000010410406141029220014121875080614216516001412   1030000500030000   531120155804000045311201558GAMONE PWINT           PTN           MMR11006141029220014120614000000000000000   10300001 00104100000000000816000000000000     
100   62911028202170490000000000033279000000033279002000000010410406141151160003344773800614216518000334   1030000500030000   531120226316000045311202263OCEAN SUPER CENTER STJ PTN           MMR11006141151160003340614000000000000000   10300001 00104100000000001997000000000000     
100   62911028202674810000000000011000000000011000002000000010410406140440200005224773800614216511000522   1030000500030000   541120227605000045411202276CITY MART ( 47 BRANCH  PTN           MMR11006140440200005220614000000000000000   10300001 00104100000000000660000000000000     
100   62911028202169750000000000140130000000140130002000000010410406140343520007484773800614216510000748   1030000500030000   531120226305000045311202263OCEAN SUPER CENTER STJ PTN           MMR11006140343520007480614000000000000000   10300001 00104100000000008408000000000000     
100   62443101076362230000000000029016000000029016002000000010410406140516280012063770060614000350202599   1030000300030000   581200001812000000000001296CB BANK                SP BAKERY (YA MMR11006140516280012060614000000000000000   10300001F00104100000000012332000000000000     
100   62911028202074950000000000044000000000044000002000000010410406132349320043374773800614216506004337   1030000500030000   598320001201000015172200012MAX ENERGY             PTN           MMR11006132349320043370614000000000000000   10300001 00104100000000001320000000000000     
100   62443100390038980000000000045000000000045000002000000010410406140014140040223402100614216506004022   1030000500030000   598320002701000015172200027MAX ENERGY             PTN           MMR11006140014140040220614000000000000000   10300001 00104100000000005400000000000000     
100   95030301100126550000000000035000000000035000002000000010410406131047580682214773800613216410068221   1030000600030000   554100000952315799420000474DENKO N.DAGON - 1      YANGON        MMR11006131047580682210613000000000000000   10300001 00104100000000001050000000000000     
100   62443101086752040000000000063000000000063000002000000010410406140753080269130477890614216507026913   1030000600030000   554100002085315799420000471DENKO BAHAN            YANGON        MMR11006140753080269130614000000000000000   10300001 00104100000000007560000000000000     
100   62911028202661370000000000061900000000061900002000000010410406140910080009634773800614216515000963   1030000500030000   503920036602000015039200366PRO-1 HOME CENTER      PTN           MMR11006140910080009630614000000000000000   10300001 00104100000000003714000000000000     
100   62911028202703030000000000034254000000034254002000000010410406141016010210584773800614216510021058   1030000600030000   809900000537315799420000147GRAND HANTHA HOSPITAL  YANGON        MMR11006141016010210580614000000000000000   10300001 00104100000000002055000000000000     
100   62911028202752520000000000063000000000063000002000000010410406140555430144264773800614216505014426   1030000600030000   554100002328315799420001235DENKO NAY PYI TAW 2    NAYPYITAW     MMR11006140555430144260614000000000000000   10300001 00104100000000001890000000000000     
100   62911028202221220000000000010000000000010000002000000010410406132325190050484773800614216505005048   1030000500030000   598320001303000015172200013MAX ENERGY             PTN           MMR11006132325190050480614000000000000000   10300001 00104100000000000300000000000000     
100   62911028202668140000000000054000000000054000002000000010410406141202550053834773800614216518005383   1030000500030000   598320001004000015172200010MAX ENERGY             PTN           MMR11006141202550053830614000000000000000   10300001 00104100000000001620000000000000     
100   62911028202527490000000000032000000000032000002000000010410406140510080053204773800614216511005320   1030000500030000   598320001004000015172200010MAX ENERGY             PTN           MMR11006140510080053200614000000000000000   10300001 00104100000000000960000000000000     
100   95050324850150480000000000060000000000060000002000000010410406140211580298646712780614216502029864   1030000600030000   554100000725315799420000306DENKO MDY - 78         MANDALAY      MMR11006140211580298640614000000000000000   10300001 00104100000000007200000000000000     
100   95050324411430900000000000025000000000025000002000000010410406141040200928321534700614216510092832   1030000600030000   554100000946315799420000471DENKO BAHAN            YANGON        MMR11006141040200928320614000000000000000   10300001 00104100000000003000000000000000     
100   62443100363668680000000000027000000000027000002000000010410406141046130928344839660614216510092834   1030000600030000   554100000946315799420000471DENKO BAHAN            YANGON        MMR11006141046130928340614000000000000000   10300001 00104100000000003240000000000000     
100   95050312695033440000000000002940000000002940002000000010410406150949301930378263030615000007335990   1020000200030000   333400010001204104000000281Myanmar Soft-Gate Tech Yangon        MMR11006150949301930370615000000000000000   10300001F05104100000000000617000000000000     
100   95050321798808970000000000010000000000010000002000000010410406150241351135738866780615000007332316   1030000200030000   333800010001203104000003327KBZPay                 Yangon        MMR11006150241351135730615000000000000000   10300001F05104100000000002100000000000000     
100   95050314307746340000000000000980000000000980002000000010410406150944251425049404930615000007335950   1020000200030000   333400010001204104000000281Myanmar Soft-Gate Tech Yangon        MMR11006150944251425040615000000000000000   10300001F05104100000000000206000000000000     
100   62443100348951400000000000300000000000300000002000000010410406150951082108450085700615000007336010   1030000200030000   333800010001203104000003327KBZPay                 Yangon        MMR11006150951082108450615000000000000000   10300001F05104100000000063000000000000000     
100   62911028202471600000000000119650000000119650002000000010410406151041431400364773800615216617140036   1040001600030000   591220000013000000010000011Golden Bell            Yangon        MMR11006151041431400360615000000000000000   10300001F00104100000000007179000000000000     
100   62443100348951400000000000300000000000300000002000000010410406150948281828973220480615000007335983   1030000200030000   333800010001203104000003327KBZPay                 Yangon        MMR11006150948281828970615000000000000000   10300001F05104100000000063000000000000000     
100   95050313843656520000000000000980000000000980002000000010410406150237460746109838490615000007332298   1020000200030000   333400010001204104000000281Myanmar Soft-Gate Tech Yangon        MMR11006150237460746100615000000000000000   10300001F05104100000000000206000000000000     
100   95050316818236190000000000001960000000001960002000000010410406150246431643993909320615000007332345   1020000200030000   333400010001204104000000281Myanmar Soft-Gate Tech Yangon        MMR11006150246431643990615000000000000000   10300001F05104100000000000412000000000000     
100   62443100372718280000000000029517000000029517002000000010410406150100161092596783090615216608109259   1040001600030000   598320001170000000010000527Shwe Taung Energy (YGN Yangon        MMR11006150100161092590615000000000000000   10300001F00104100000000003542000000000000     
100   95050310616516480000000000002940000000002940002000000010410406151038430843479986820615000007336316   1020000200030000   333400010001204104000000281Myanmar Soft-Gate Tech Yangon        MMR11006151038430843470615000000000000000   10300001F05104100000000000617000000000000     
100   62443100348951400000000000300000000000300000002000000010410406150949481948478348120615000007335993   1030000200030000   333800010001203104000003327KBZPay                 Yangon        MMR11006150949481948470615000000000000000   10300001F05104100000000063000000000000000     
100   95050317088336250000000000074592000000074592002000000010410406150637050705907271810615000007334377   1030000900030000   333800010001202104000003301uab bank               Yangon        MMR11006150637050705900615000000000000000   10300001F05104100000000015664000000000000     
100   95050317517212300000000000016900000000016900002000000010410406150448281198607420140615216611119860   1040001600030000   541120000571000000010000465Ocean Shwe Gone Daing  Yangon        MMR11006150448281198600615000000000000000   10300001F00104100000000004225000000000000     
100   95050315144447320000000000000980000000000980002000000010410406141742141214999407290615000007331674   1020000200030000   333400010001204104000000281Myanmar Soft-Gate Tech Yangon        MMR11006141742141214990615000000000000000   10300001F05104100000000000206000000000000     
100   95050312240830690000000000000980000000000980002000000010410406151347061706531674950615000007337098   1020000200030000   333400010001204104000000281Myanmar Soft-Gate Tech Yangon        MMR11006151347061706530615000000000000000   10300001F05104100000000000206000000000000     
100   95050314692738880000000000001960000000001960002000000010410406151039190919332149880615000007336319   1020000200030000   333400010001204104000000281Myanmar Soft-Gate Tech Yangon        MMR11006151039190919330615000000000000000   10300001F05104100000000000412000000000000     
100   95050318951177660000000000040000000000040000002000000010410406151446321632925065020615000007337309   1030000200030000   333800010001203104000003327KBZPay                 Yangon        MMR11006151446321632920615000000000000000   10300001F05104100000000008400000000000000     
100   95050312210363590000000000002000000000002000002000000010410406150950552055031738190615000007336007   1030000200030000   333800010001203104000003327KBZPay                 Yangon        MMR11006150950552055030615000000000000000   10300001F05104100000000000420000000000000     
100   95050322957045260000000000001000000000001000002000000010410406151131580158107788100615000007336577   1030000200030000   3338000100012031040000040022C2P (Myanmar) Co. Ltd Yangon        MMR11006151131580158100615000000000000000   10300001F05104100000000000210000000000000     
100   62911028202684060000000000051000000000051000002000000010410406150330471164144773800615216610116414   1040001600030000   598320001170000000010000527Shwe Taung Energy (YGN Yangon        MMR11006150330471164140615000000000000000   10300001F00104100000000001530000000000000     
100   95050317084233280000000000000980000000000980002000000010410406151132350235232405170615000007336583   1020000200030000   333400010001204104000000281Myanmar Soft-Gate Tech Yangon        MMR11006151132350235230615000000000000000   10300001F05104100000000000206000000000000     
100   62443100343312450000000000023000000000023000002000000010410406150510331210917576540615216612121091   1040001600030000   598320001170000000010000527Shwe Taung Energy (YGN Yangon        MMR11006150510331210910615000000000000000   10300001F00104100000000002760000000000000     
100   95050312568198510000000000005000000000005000002000000010410406150243281328093824220615000007332326   1030000200030000   3338000100012031040000040022C2P (Myanmar) Co. Ltd Yangon        MMR11006150243281328090615000000000000000   10300001F05104100000000001050000000000000     
100   95050316234969530000000000100000000000100000002000000010410406150433070307184285360615000007333313   1030000200030000   333800010001203104000003327KBZPay                 Yangon        MMR11006150433070307180615000000000000000   10300001F05104100000000021000000000000000     
100   95050319161596230000000000001960000000001960002000000010410406151333470347049937380615000007337039   1020000200030000   333400010001204104000000281Myanmar Soft-Gate Tech Yangon        MMR11006151333470347040615000000000000000   10300001F05104100000000000412000000000000     
100   95050319161596230000000000000980000000000980002000000010410406151034440444008249230615000007336295   1020000200030000   333400010001204104000000281Myanmar Soft-Gate Tech Yangon        MMR11006151034440444000615000000000000000   10300001F05104100000000000206000000000000     
100   95050310332595380000000000000980000000000980002000000010410406150936220622890887220615000007335861   1020000200030000   333400010001204104000000281Myanmar Soft-Gate Tech Yangon        MMR11006150936220622890615000000000000000   10300001F05104100000000000206000000000000     
100   95050317517212300000000000012600000000012600002000000010410406150433091191275937840615216611119127   1040001600030000   541120000559000000010000465Ocean Shwe Gone Daing  Yangon        MMR11006150433091191270615000000000000000   10300001F00104100000000003150000000000000     
100   62911028202307860000000000105300000000105300002000000010410406150550581236964773800615216612123696   1040001600030000   598320000310000000010000298PT Power Petrol Statio Yangon        MMR11006150550581236960615000000000000000   10300001F00104100000000003159000000000000     
100   62911028202446700000000000010000000000010000002000000010410406150945551555834773800615000007335965   1030000500030000   333800010001201104000003863AYA Pay                Yangon        MMR11006150945551555830615000000000000000   10300001F05104100000000002100000000000000     
100   95050311780044340000000000009800000000009800002000000010410406150450012001212704190615000007333471   1020000200030000   333400010001204104000000281Myanmar Soft-Gate Tech Yangon        MMR11006150450012001210615000000000000000   10300001F05104100000000002058000000000000     
100   62911028202355870000000000028000000000028000002000000010410406151246221622504773800615000007336864   1030000200030000   3338000100012031040000040022C2P (Myanmar) Co. Ltd Yangon        MMR11006151246221622500615000000000000000   10300001F05104100000000005880000000000000     
