100   95050319902033540000000000120000000000120000002000000010410406160926132043172056700616216716204317   1040001600030000   591220000085000000010000081Golden Bell (North Okk Yangon        MMR11006160926132043170616000000000000000   10300001F00104100000000028800000000000000     
100   95050312298324450000000000000980000000000980002000000010410406160401403140318575830616000007339140   1020000200030000   333400010001204104000000281Myanmar Soft-Gate Tech Yangon        MMR11006160401403140310616000000000000000   10300001F05104100000000000206000000000000     
100   95030353305053700000000000050400000000050400002000000010410406160406383638644773800616000007339194   1030000900030000   333800010001202104000003301uab bank               Yangon        MMR11006160406383638640616000000000000000   10300001F05104100000000010584000000000000     
100   95030353305053700000000000020000000000020000002000000010410406160416204620974773800616000007339256   1030000500030000   333800010001201104000003863AYA Pay                Yangon        MMR11006160416204620970616000000000000000   10300001F05104100000000004200000000000000     
100   95050319938772870000000000003920000000003920002000000010410406161142551255042468400616000007342907   1020000200030000   333400010001204104000000281Myanmar Soft-Gate Tech Yangon        MMR11006161142551255040616000000000000000   10300001F05104100000000000823000000000000     
100   95050312962334280000000000000980000000000980002000000010410406160349131913454590100616000007338995   1020000200030000   333400010001204104000000281Myanmar Soft-Gate Tech Yangon        MMR11006160349131913450616000000000000000   10300001F05104100000000000206000000000000     
100   95050326511614440000000000098000000000098000002000000010410406160723361981140368570616216714198114   1040001600030000   569920001307000000010001013Silky House            Ygn           MMR11006160723361981140616000000000000000   10300001F00104100000000023520000000000000     
100   95050316601084530000000000000980000000000980002000000010410406160954202420230234030616000007342282   1020000200030000   333400010001204104000000281Myanmar Soft-Gate Tech Yangon        MMR11006160954202420230616000000000000000   10300001F05104100000000000206000000000000     
100   95050315250339200000000000000980000000000980002000000010410406160752292229720610070616000007341154   1020000200030000   333400010001204104000000281Myanmar Soft-Gate Tech Yangon        MMR11006160752292229720616000000000000000   10300001F05104100000000000206000000000000     
100   62443100306416880000000000100440000000100440002000000010410406161038215279891957820616011081721166   1030000900030000   723019001053190110000000856The Body Shop JC       YANGONN       MMR11006161038215279890616000000000000000   10300001F00104100000000024106000000000000     
100   62911028202290100000000000136000000000136000002000000010410406160616515210644773800616373461251166   1030000900030000   541119000129190110000000082Sein Gay Har Super Cen YANGON        MMR11006160616515210640616000000000000000   10300001F00104100000000008160000000000000     
100   62911028202067520000000000010500000000010500002000000010410406160922485248244773800616000007341923   1030000200030000   333800010001203104000003327KBZPay                 Yangon        MMR11006160922485248240616000000000000000   10300001F05104100000000002205000000000000     
100   95030301100124400000000000040597000000040597002000000010410406161110235288424773800616516401723166   1030000900030000   541119001266190110000000958City Mart PLST C9      YANGONMYOTHIT MMR11006161110235288420616000000000000000   10300001F00104100000000002436000000000000     
100   95050326094581320000000000044891000000044891002000000010410406161145385296957510950616010151838166   1030000900030000   541119001516190110000001102Ocean MGDTM C-9        YANGONADON    MMR11006161145385296950616000000000000000   10300001F00104100000000011223000000000000     
100   95050314703432410000000000028000000000028000002000000010410406161011224122643624100616000007342425   1030000200030000   3338000100012031040000040022C2P (Myanmar) Co. Ltd Yangon        MMR11006161011224122640616000000000000000   10300001F05104100000000005880000000000000     
100   95050315445638160000000000007000000000007000002000000010410406161330310031418532100616000007343392   1030000200030000   333800010001203104000003327KBZPay                 Yangon        MMR11006161330310031410616000000000000000   10300001F05104100000000001470000000000000     
100   62911028202290100000000000014084000000014084002000000010410406160919065258844773800616842491506166   1030000900030000   806219001119190110000000900Shwe La Min Hospital L YANGONAW      MMR11006160919065258840616000000000000000   10300001F00104100000000000845000000000000     
100   95050326228858240000000000089000000000089000002000000010410406141340180375430549200614216513037543   1030000600030000   554100001155315799420000607DENKO NPT 1            NAYPYITAW.    MMR11006141340180375430614000000000000000   10300001 00104100000000010680000000000000     
100   95050310676042860000000000010000000000010000002000000010410406160838590859393283710616000007341540   1030000200030000   333800010001203104000003327KBZPay                 Yangon        MMR11006160838590859390616000000000000000   10300001F05104100000000002100000000000000     
100   95050316377977350000000000010000000000010000002000000010410406160628245824856808310616000007340390   1040001600030000   333800010001220104000004507A +                    Yangon        MMR11006160628245824850616000000000000000   10300001F05104100000000002100000000000000     
100   62911028202533740000000000046000000000046000002000000010410406160945145265254773800616159151614166   1030000900030000   573219001178190110000000934UNIQUE Pansodan        YANGONADA     MMR11006160945145265250616000000000000000   10300001F00104100000000002760000000000000     
100   95030367537085740000000000000980000000000980002000000010410406161128515851654773800616000007342840   1020000200030000   333400010001204104000000281Myanmar Soft-Gate Tech Yangon        MMR11006161128515851650616000000000000000   10300001F05104100000000000206000000000000     
100   62911028202170490000000000009350000000009350002000000010410406160903295254824773800616652331529166   1030000900030000   541119001231190110000000951Marketplace KTY C 1    YANGONARTAUNG MMR11006160903295254820616000000000000000   10300001F00104100000000000561000000000000     
100   95030301100124400000000000004400000000004400002000000010410406161117175290224773800616623471717166   1030000900030000   541119001273190110000000960City Mart PLST Season  YANGONMYOTHIT MMR11006161117175290220616000000000000000   10300001F00104100000000000264000000000000     
100   95050312160676580000000000010000000000010000002000000010410406160412464246246753150616000007339230   1030000200030000   333800010001203104000003327KBZPay                 Yangon        MMR11006160412464246240616000000000000000   10300001F05104100000000002100000000000000     
100   62911028202708160000000000041170000000041170002000000010410406151645450048284773800615000748547859   1030000200030000   541188001424000008000000401KBZ BANK               OCEAN SUPERCE MMR11006151645450048280615000000000000000   10300001 00104100000000002470000000000000     
100   62911028202530930000000000115612000000115612002000000010410406151808380048734773800615000748551491   1030000200030000   541188001004000008000000008KBZ BANK               MARKETPLACE - MMR11006151808380048730615000000000000000   10300001 00104100000000006937000000000000     
100   62911028202150190000000000030000000000030000002000000010410406151132280053044773800615216618005304   1030000500030000   598320001304000015172200013MAX ENERGY             PTN           MMR11006151132280053040615000000000000000   10300001 00104100000000000900000000000000     
100   95050312240830690000000000000980000000000980002000000010410406161415324532143574650616000007343570   1020000200030000   333400010001204104000000281Myanmar Soft-Gate Tech Yangon        MMR11006161415324532140616000000000000000   10300001F05104100000000000206000000000000     
100   95050316712109910000000000058000000000058000002000000010410406151044320054675171980615000748521299   1030000200030000   541188001440000008000000401KBZ BANK               OCEAN SUPERCE MMR11006151044320054670615000000000000000   10300001 00104100000000014500000000000000     
100   95050320531117320000000000023700000000023700002000000010410406151028170033251526630615000748520027   1030000200030000   541188001040000008000000010KBZ BANK               MARKETPLACE - MMR11006151028170033250615000000000000000   10300001 00104100000000005925000000000000     
100   62911028202541660000000000034400000000034400002000000010410406150914050195824773800615000748515942   1030000200030000   541188001082000008000000294KBZ BANK               CITY MART - J MMR11006150914050195820615000000000000000   10300001 00104100000000002064000000000000     
100   62911028202807400000000000026350000000026350002000000010410406161410430146724773800616000748586100   1030000200030000   541188001244000008000000323KBZ BANK               CITY MART - I MMR11006161410430146720616000000000000000   10300001 00104100000000001581000000000000     
100   62443100345308040000000000001000000000001000002000000010410406160641401140979857990616000007340503   1030000200030000   333800010001203104000003327KBZPay                 Yangon        MMR11006160641401140970616000000000000000   10300001F05104100000000000210000000000000     
100   95050324154190880000000000022000000000022000002000000010410406150407150036670554910615216610003667   1030000500030000   598320002103000015172200021MAX ENERGY             PTN           MMR11006150407150036670615000000000000000   10300001 00104100000000002640000000000000     
100   95050325637546660000000000225000000000225000002000000010410406150650360002358122770615216613000235   1030000500030000   531120231201000045311202312OCEAN OATTARA THIRI    PTN           MMR11006150650360002350615000000000000000   10300001 00104100000000054000000000000000     
100   62911028202461130000000000011500000000011500002000000010410406150731090003114773800615216614000311   1030000500030000   541120203705000015411202037CITY MART SUPERMARKET  PTN           MMR11006150731090003110615000000000000000   10300001 00104100000000000690000000000000     
100   95030390626214130000000000040000000000040000002000000010410406151103380169514773800615216611016951   1030000600030000   554100002324315799420000481DENKO NORTH OKKALAPA   YANGON        MMR11006151103380169510615000000000000000   10300001 00104100000000001200000000000000     
100   95050312962334280000000000000980000000000980002000000010410406160351462146057980160616000007339022   1020000200030000   333400010001204104000000281Myanmar Soft-Gate Tech Yangon        MMR11006160351462146050616000000000000000   10300001F05104100000000000206000000000000     
100   62911028202221220000000000010000000000010000002000000010410406150518180044654773800615216611004465   1030000500030000   598320001201000015172200012MAX ENERGY             PTN           MMR11006150518180044650615000000000000000   10300001 00104100000000000300000000000000     
100   95030346645639490000000000017273000000017273002000000010410406150639200015344773800615216613001534   1030000500030000   531120155712000045311201557GAMONE PWINT           PTN           MMR11006150639200015340615000000000000000   10300001 00104100000000001036000000000000     
100   62443100372718280000000000127800000000127800002000000010410406150647080029094647610615216613002909   1030000500030000   503920036611000015039200366PRO-1 HOME CENTER      PTN           MMR11006150647080029090615000000000000000   10300001 00104100000000030672000000000000     
100   62443100315110470000000000014500000000014500002000000010410406150636210015132654740615000350380676   1030000300030000   531100000819000000000000558CB BANK                MGOU-CM       MMR11006150636210015130615000000000000000   10300001F00104100000000003480000000000000     
100   95030346645639490000000000001078000000001078002000000010410406150643440001214773800615216613000121   1030000500030000   531120155703000045311201557GAMONE PWINT           PTN           MMR11006150643440001210615000000000000000   10300001 00104100000000000065000000000000     
100   95030371724152130000000000029000000000029000002000000010410406150335400001694773800615216610000169   1030000500030000   569120038701008205691200387ESCORT                 PTN           MMR11006150335400001690615000000000000000   10300001 00104100000000001740000000000000     
100   95050313970192050000000000002300000000002300002000000010410406151216420004048213580615000350425459   1030000300030000   591200000169000000000000084CB BANK                MEDICARE STOR MMR11006151216420004040615000000000000000   10300001F00104100000000000552000000000000     
100   95050317743858310000000000012750000000012750002000000010410406150250430004783994420615216609000478   1030000500030000   541120203706000015411202037CITY MART SUPERMARKET  PTN           MMR11006150250430004780615000000000000000   10300001 00104100000000003188000000000000     
100   62911028202443730000000000037751000000037751002000000010410406150347510008194773800615216610000819   1030000500030000   531120226305000045311202263OCEAN SUPER CENTER STJ PTN           MMR11006150347510008190615000000000000000   10300001 00104100000000002265000000000000     
100   95050313970192050000000000007800000000007800002000000010410406151216460000514908610615216618000051   1030000500030000   541120232801000045411202328CITY EXPRESS (MCS - 34 PTN           MMR11006151216460000510615000000000000000   10300001 00104100000000001950000000000000     
100   62911028202116950000000000003720000000003720002000000010410406151124470154644773800615000748524564   1030000200030000   541188001056000008000000314KBZ BANK               MARKETPLACE - MMR11006151124470154640615000000000000000   10300001 00104100000000000223000000000000     
100   95050318041680090000000000005000000000005000002000000010410406161101163116923695400616000007342691   1030000200030000   333800010001203104000003327KBZPay                 Yangon        MMR11006161101163116920616000000000000000   10300001F05104100000000001050000000000000     
100   62911028202737030000000000300000000000300000002000000010410406161406123612674773800616000007343520   1030000200030000   333800010001203104000003327KBZPay                 Yangon        MMR11006161406123612670616000000000000000   10300001F05104100000000063000000000000000     
100   95050315743141220000000000000980000000000980002000000010410406161611444144430354780616000007344047   1020000200030000   333400010001204104000000281Myanmar Soft-Gate Tech Yangon        MMR11006161611444144430616000000000000000   10300001F05104100000000000206000000000000     
100   95050316385053500000000000006000000000006000002000000010410406151034300017694859170615000350411978   1030000300030000   531100000823000000000000562CB BANK                MGOU-SGH      MMR11006151034300017690615000000000000000   10300001F00104100000000001440000000000000     
100   62911028202473840000000000041200000000041200002000000010410406150333400003614773800615216610000361   1030000500030000   591220012501014405912200125SHWE OHH PHARMACY      PTN           MMR11006150333400003610615000000000000000   10300001 00104100000000002472000000000000     
100   95030366960186690000000001391000000001391000002000000010410406150431300013864773800615000350363955   1030000300030000   573200000993000000000000707CB BANK                UNIQUE MOBILE MMR11006150431300013860615000000000000000   10300001F00104100000000083460000000000000     
100   62911028202464100000000000005382000000005382002000000010410406150813190004434773800615216614000443   1030000500030000   541120227503000045411202275CITY MART (AHLONE BRAN PTN           MMR11006150813190004430615000000000000000   10300001 00104100000000000323000000000000     
100   62911028202187730000000000389000000000389000002000000010410406150536530001054773800615216612000105   1030000500030000   573220014801000015732200148LG PANSODAN            PTN           MMR11006150536530001050615000000000000000   10300001 00104100000000023340000000000000     
100   95030371724152130000000000041600000000041600002000000010410406150958250030674773800615000748518007   1030000200030000   541188001452000008000000391KBZ BANK               OCEAN SUPER C MMR11006150958250030670615000000000000000   10300001 00104100000000002496000000000000     
100   62911028202530930000000000022000000000022000002000000010410406151100230039594773800615216617003959   1030000500030000   581220063701000015812200637CHINESE 47             PTN           MMR11006151100230039590615000000000000000   10300001 00104100000000002244000000000000     
100   62911028202470870000000000010560000000010560002000000010410406150752320005114773800615216614000511   1030000500030000   581220199401000085812201994LITTLE BOSS MAWTIN     PTN           MMR11006150752320005110615000000000000000   10300001 00104100000000001077000000000000     
100   95030308100042590000000000014400000000014400002000000010410406151155340028834773800615000350422716   1030000300030000   581400000692000000000000478CB BANK                KFC PARAMI SG MMR11006151155340028830615000000000000000   10300001F00104100000000000432000000000000     
100   95050328384000040000000000090000000000090000002000000010410406150645400038796300090615216613003879   1030000500030000   598320002104000015172200021MAX ENERGY             PTN           MMR11006150645400038790615000000000000000   10300001 00104100000000010800000000000000     
100   62443100333488440000000000015000000000015000002000000010410406151018490000116766950615216616000011   1030000500030000   541120228601000045411202286CITY EXPRESS (MCS - 11 PTN           MMR11006151018490000110615000000000000000   10300001 00104100000000003750000000000000     
100   62911028202135350000000000065550000000065550002000000010410406151018460053694773800615216616005369   1030000500030000   598320001403000015172200014MAX ENERGY             PTN           MMR11006151018460053690615000000000000000   10300001 00104100000000001967000000000000     
100   62911028202709150000000000010242000000010242002000000010410406151438280057894773800615000748540792   1030000200030000   541188001420000008000000401KBZ BANK               OCEAN SUPERCE MMR11006151438280057890615000000000000000   10300001 00104100000000000615000000000000     
100   62911028202442250000000000018000000000018000002000000010410406150021550065504773800615216606006550   1030000500030000   598320001901000015172200019MAX ENERGY             PTN           MMR11006150021550065500615000000000000000   10300001 00104100000000000540000000000000     
100   62443100371022130000000000041870000000041870002000000010410406150029570049746698000615216606004974   1030000500030000   598320001302000015172200013MAX ENERGY             PTN           MMR11006150029570049740615000000000000000   10300001 00104100000000005024000000000000     
100   62911028202448030000000000070000000000070000002000000010410406150618590051394773800615216612005139   1030000500030000   598320001203000015172200012MAX ENERGY             PTN           MMR11006150618590051390615000000000000000   10300001 00104100000000002100000000000000     
100   95050323282717740000000000010000000000010000002000000010410406151222580047839610780615216618004783   1030000500030000   598320001202000015172200012MAX ENERGY             PTN           MMR11006151222580047830615000000000000000   10300001 00104100000000001200000000000000     
100   62911028202124530000000000040000000000040000002000000010410406150521020051364773800615216611005136   1030000500030000   598320001003000015172200010MAX ENERGY             PTN           MMR11006150521020051360615000000000000000   10300001 00104100000000001200000000000000     
100   62443101093150400000000000023000000000023000002000000010410406150133300049881400160615216608004988   1030000500030000   598320001302000015172200013MAX ENERGY             PTN           MMR11006150133300049880615000000000000000   10300001 00104100000000002760000000000000     
100   62911028202136750000000000049000000000049000002000000010410406151243510004684773800615216619000468   1030000500030000   598320001704000015172200017MAX ENERGY             PTN           MMR11006151243510004680615000000000000000   10300001 00104100000000001470000000000000     
100   62911028202170490000000000010900000000010900002000000010410406150726500007934773800615216613000793   1030000500030000   581220211401000015812202114GLORIA JEANS COFFEES   PTN           MMR11006150726500007930615000000000000000   10300001 00104100000000001112000000000000     
100   95050321188471220000000000020550000000020550002000000010410406151204260025958597700615000748527964   1030000200030000   541188001481000008000000399KBZ BANK               OCEAN SUPERCE MMR11006151204260025950615000000000000000   10300001 00104100000000005138000000000000     
100   62911028202112400000000000024000000000024000002000000010410406150835040036364773800615216615003636   1030000500030000   598320001601000015172200016MAX ENERGY             PTN           MMR11006150835040036360615000000000000000   10300001 00104100000000000720000000000000     
100   95030333409030400000000000040000000000040000002000000010410406150146530001594773800615216608000159   1030000500030000   598320001001000015172200010MAX ENERGY             PTN           MMR11006150146530001590615000000000000000   10300001 00104100000000001200000000000000     
100   95030343892826500000000000037400000000037400002000000010410406150515380006784773800615216611000678   1030000500030000   541120226204000045411202262CITY MART ZAWANA       PTN           MMR11006150515380006780615000000000000000   10300001 00104100000000002244000000000000     
100   62443100300412100000000000215523000000215523002000000010410406140733270139612059070614216507013961   1030000600030000   581200000524315799420000141FUJI COFFEE HOUSE      YANGON        MMR11006140733270139610614000000000000000   10300001 00104100000000091598000000000000     
100   95030301100121270000000000032000000000032000002000000010410406141056500683094773800614216510068309   1030000600030000   554100000952315799420000474DENKO N.DAGON - 1      YANGON        MMR11006141056500683090614000000000000000   10300001 00104100000000000960000000000000     
100   62443100306028540000000000031000000000031000002000000010410406150248420052219036970615216609005221   1030000500030000   598320001204000015172200012MAX ENERGY             PTN           MMR11006150248420052210615000000000000000   10300001 00104100000000003720000000000000     
100   95050318057347910000000000023800000000023800002000000010410406151606120054697922640615000748545975   1030000200030000   541188001440000008000000401KBZ BANK               OCEAN SUPERCE MMR11006151606120054690615000000000000000   10300001 00104100000000005950000000000000     
100   62443100338512680000000000115000000000115000002000000010410406150238220080873228550615216602008087   1030000600030000   554100001812315799420001187DENKO  SHWE TAUNG      SHWE TAUNG    MMR11006150238220080870615000000000000000   10300001 00104100000000013800000000000000     
100   62443101028043880000000000016870000000016870002000000010410406151730340094891979690615000748549758   1030000200030000   541188001006000008000000008KBZ BANK               MARKETPLACE - MMR11006151730340094890615000000000000000   10300001 00104100000000004218000000000000     
100   62911028202472440000000000008200000000008200002000000010410406151351020205824773800615000748536844   1030000200030000   541188001032000008000000298KBZ BANK               CITY MART - M MMR11006151351020205820615000000000000000   10300001 00104100000000000492000000000000     
100   62911028202651050000000000232912000000232912002000000010410406151054530300984773800615000748522145   1030000200030000   541188001042000008000000010KBZ BANK               MARKETPLACE - MMR11006151054530300980615000000000000000   10300001 00104100000000013975000000000000     
100   62911028202472440000000000053800000000053800002000000010410406151341560379584773800615000748536196   1030000200030000   541188001024000008000000298KBZ BANK               CITY MART - M MMR11006151341560379580615000000000000000   10300001 00104100000000003228000000000000     
100   95030318100004530000000000026000000000026000002000000010410406150456260110744773800615216604011074   1030000600030000   554100001218315799420000670DENKO MAWLAMYAING      MON STATE.    MMR11006150456260110740615000000000000000   10300001 00104100000000000780000000000000     
100   62443101053241940000000000028100000000028100002000000010410406151024470220481611720615000748519725   1030000200030000   541188001054000008000000314KBZ BANK               MARKETPLACE - MMR11006151024470220480615000000000000000   10300001 00104100000000007025000000000000     
100   62911028202121560000000000016000000000016000002000000010410406161907170026774773800616000748600112   1030000200030000   541188001014000008000000008KBZ BANK               MARKETPLACE - MMR11006161907170026770616000000000000000   10300001 00104100000000000960000000000000     
100   62911028202169750000000000031500000000031500002000000010410406160507270027304773800616000748575669   1030000200030000   541188000976000008000004913KBZ BANK               EASY-17       MMR11006160507270027300616000000000000000   10300001 00104100000000001890000000000000     
100   62911028202709150000000000006400000000006400002000000010410406161115200011174773800616000748574038   1030000200030000   541188001448000008000000401KBZ BANK               OCEAN SUPERCE MMR11006161115200011170616000000000000000   10300001 00104100000000000384000000000000     
100   95050321188471220000000000008500000000008500002000000010410406161146280019574219770616000748576343   1030000200030000   541188001479000008000000399KBZ BANK               OCEAN SUPERCE MMR11006161146280019570616000000000000000   10300001 00104100000000002125000000000000     
100   62443100308973140000000000052520000000052520002000000010410406161324220023856369040616000748601360   1030000200030000   541188000960000008000004886KBZ BANK               EASY-1        MMR11006161324220023850616000000000000000   10300001 00104100000000013130000000000000     
100   62911028202383670000000000013200000000013200002000000010410406161656250031684773800616000748594674   1030000200030000   541188001348000008000000395KBZ BANK               OCEAN SUPERMA MMR11006161656250031680616000000000000000   10300001 00104100000000000792000000000000     
100   62911028202116120000000000016700000000016700002000000010410406161918000010834773800616000748600438   1030000200030000   581288000949000008000004876KBZ BANK               PIZZA HUT RES MMR11006161918000010830616000000000000000   10300001 00104100000000001703000000000000     
100   62911028202151340000000000004200000000004200002000000010410406151514210213164773800615000748543152   1030000200030000   541188001075000008000000294KBZ BANK               CITY MART - J MMR11006151514210213160615000000000000000   10300001 00104100000000000252000000000000     
100   62443100311760720000000000058000000000058000002000000010410406151115130272087617910615216611027208   1030000600030000   554100002085315799420000471DENKO BAHAN            YANGON        MMR11006151115130272080615000000000000000   10300001 00104100000000006960000000000000     
100   62911028202163630000000000016200000000016200002000000010410406150746111294234773800615216614129423   1040001600030000   598320000856000000010000609Terminal Petrol Statio Yangon        MMR11006150746111294230615000000000000000   10300001F00104100000000000486000000000000     
100   62911028202151340000000000037950000000037950002000000010410406151504020196044773800615000748542522   1030000200030000   541188001082000008000000294KBZ BANK               CITY MART - J MMR11006151504020196040615000000000000000   10300001 00104100000000002277000000000000     
100   62911028202357510000000000022172000000022172002000000010410406151304330139364773800615000748532999   1030000200030000   541188001349000008000000395KBZ BANK               OCEAN SUPERMA MMR11006151304330139360615000000000000000   10300001 00104100000000001330000000000000     
100   95030327835334700000000000018248000000018248002000000010410406151850080146604773800615000748553117   1030000200030000   541188001244000008000000323KBZ BANK               CITY MART - I MMR11006151850080146600615000000000000000   10300001 00104100000000001095000000000000     
100   62911028202473840000000000021600000000021600002000000010410406151104580213024773800615000748522928   1030000200030000   541188001075000008000000294KBZ BANK               CITY MART - J MMR11006151104580213020615000000000000000   10300001 00104100000000001296000000000000     
100   95050320531117320000000000150000000000150000002000000010410406150813310555917151060615216608055591   1030000600030000   554100001756315799420001137DENKO NORTH DAGON 2    YANGON        MMR11006150813310555910615000000000000000   10300001 00104100000000018000000000000000     
100   95030378427292740000000000019000000000019000002000000010410406161556380011214773800616000748592077   1030000200030000   541188001448000008000000401KBZ BANK               OCEAN SUPERCE MMR11006161556380011210616000000000000000   10300001 00104100000000001140000000000000     
100   95050321188471220000000000038900000000038900002000000010410406161139130019670914800616000748575798   1030000200030000   541188001496000008000000399KBZ BANK               OCEAN SUPERCE MMR11006161139130019670616000000000000000   10300001 00104100000000009725000000000000     
100   62911028202260320000000000307500000000307500002000000010410406160941330094104773800616113349129476   1040001400030000   591210000277025912100002552AAA Pharmacy null No(1 2)A Lay Daung MMR11006160941330094100616000000000000000   10300001 00104100000000018450000000000000     
100   95050324850150480000000000050000000000050000002000000010410406160912290042631461030616000748591293   1030000200030000   598388001833000008000005310KBZ BANK               BOC (138 MILE MMR11006160912290042630616000000000000000   10300001 00104100000000006000000000000000     
100   62911028202169750000000000209648000000209648002000000010410406161101050126834773800616000748572871   1030000200030000   541188001002000008000000008KBZ BANK               MARKETPLACE - MMR11006161101050126830616000000000000000   10300001 00104100000000012579000000000000     
100   95050311121153200000000000000980000000000980002000000010410406161331300130556879620616000007343397   1020000200030000   333400010001204104000000281Myanmar Soft-Gate Tech Yangon        MMR11006161331300130550616000000000000000   10300001F05104100000000000206000000000000     
100   62911028202286400000000000050000000000050000002000000010410406161428140091584773800616000748587376   1030000200030000   541188001018000008000000008KBZ BANK               MARKETPLACE - MMR11006161428140091580616000000000000000   10300001 00104100000000003000000000000000     
100   95050314692738880000000000001960000000001960002000000010410406161046191619927000370616000007342616   1020000200030000   333400010001204104000000281Myanmar Soft-Gate Tech Yangon        MMR11006161046191619920616000000000000000   10300001F05104100000000000412000000000000     
100   95050322312885760000000000025000000000025000002000000010410406160243511351469135850616000007338314   1030000200030000   333800010001203104000003327KBZPay                 Yangon        MMR11006160243511351460616000000000000000   10300001F05104100000000005250000000000000     
100   62911028202169750000000000003500000000003500002000000010410406161048330301334773800616000748571890   1030000200030000   541188001012000008000000008KBZ BANK               MARKETPLACE - MMR11006161048330301330616000000000000000   10300001 00104100000000000210000000000000     
100   95050319204938440000000000010000000000010000002000000010410406160135280528190533050616000007338056   1030000200030000   333800010001203104000003327KBZPay                 Yangon        MMR11006160135280528190616000000000000000   10300001F05104100000000002100000000000000     
100   95050310427855490000000000000980000000000980002000000010410406161435440544533659750616000007343663   1020000200030000   333400010001204104000000281Myanmar Soft-Gate Tech Yangon        MMR11006161435440544530616000000000000000   10300001F05104100000000000206000000000000     
100   62911028202355870000000000402000000000402000002000000010410406160337520752034773800616000007338888   1040001600030000   333800010001220104000004507A +                    Yangon        MMR11006160337520752030616000000000000000   10300001F05104100000000084420000000000000     
100   95050327996244850000000000100000000000100000002000000010410406160152062206273838020616000007338099   1030000200030000   3338000100012031040000040022C2P (Myanmar) Co. Ltd Yangon        MMR11006160152062206270616000000000000000   10300001F05104100000000021000000000000000     
100   62443100364681690000000001000000000001000000002000000010410406160402173217567008450616000007339148   1040001600030000   333800010001220104000004507A +                    Yangon        MMR11006160402173217560616000000000000000   10300001F05104100000000210000000000000000     
100   95050315150726490000000000001960000000001960002000000010410406160059582958237057890616000007337983   1020000200030000   333400010001204104000000281Myanmar Soft-Gate Tech Yangon        MMR11006160059582958230616000000000000000   10300001F05104100000000000412000000000000     
100   95050314567080940000000000000980000000000980002000000010410406161442211221348617200616000007343697   1020000200030000   333400010001204104000000281Myanmar Soft-Gate Tech Yangon        MMR11006161442211221340616000000000000000   10300001F05104100000000000206000000000000     
100   95050319928585020000000000001960000000001960002000000010410406160734520452325397330616000007340978   1020000200030000   333400010001204104000000281Myanmar Soft-Gate Tech Yangon        MMR11006160734520452320616000000000000000   10300001F05104100000000000412000000000000     
100   62911028202286400000000000021046000000021046002000000010410406161459250241684773800616000748589341   1030000200030000   541188001001000008000000008KBZ BANK               MARKETPLACE - MMR11006161459250241680616000000000000000   10300001 00104100000000001263000000000000     
100   95050316812885810000000000014700000000014700002000000010410406160833070307979893650616000007341473   1020000200030000   333400010001204104000000281Myanmar Soft-Gate Tech Yangon        MMR11006160833070307970616000000000000000   10300001F05104100000000003087000000000000     
100   95050312139901420000000000000980000000000980002000000010410406161539180918778702300616000007343934   1020000200030000   333400010001204104000000281Myanmar Soft-Gate Tech Yangon        MMR11006161539180918770616000000000000000   10300001F05104100000000000206000000000000     
100   95050313817486860000000000014800000000014800002000000010410406161832530060239248530616000748598902   1030000200030000   541188001432000008000000401KBZ BANK               OCEAN SUPERCE MMR11006161832530060230616000000000000000   10300001 00104100000000003700000000000000     
100   95050315166583130000000000060000000000060000002000000010410406160432510251135526150616000007339370   1030000200030000   333800010001203104000003327KBZPay                 Yangon        MMR11006160432510251130616000000000000000   10300001F05104100000000012600000000000000     
100   95050327996244850000000000430000000000430000002000000010410406160231520152850277760616000007338253   1030000200030000   3338000100012031040000040022C2P (Myanmar) Co. Ltd Yangon        MMR11006160231520152850616000000000000000   10300001F05104100000000090300000000000000     
100   62443100340422630000000000088000000000088000002000000010410406160456173966644214050616553241146166   1030000300030000   555510124361104519000020166Makro Myanmar                        MMR11006160456173966640616000000000000000   10300001 00104100000000021120000000000000     
100   95050312498129060000000000000980000000000980002000000010410406160910264026334766000616000007341794   1020000200030000   333400010001204104000000281Myanmar Soft-Gate Tech Yangon        MMR11006160910264026330616000000000000000   10300001F05104100000000000206000000000000     
100   95050323233042810000000000020000000000020000002000000010410406152356342634388114700616000007337879   1030000200030000   333800010001203104000003327KBZPay                 Yangon        MMR11006152356342634380616000000000000000   10300001F05104100000000004200000000000000     
100   95050311382087030000000000001960000000001960002000000010410406161301523152307936430616000007343271   1020000200030000   333400010001204104000000281Myanmar Soft-Gate Tech Yangon        MMR11006161301523152300616000000000000000   10300001F05104100000000000412000000000000     
100   95050311382087030000000000000980000000000980002000000010410406161214274427019929300616000007343025   1020000200030000   333400010001204104000000281Myanmar Soft-Gate Tech Yangon        MMR11006161214274427010616000000000000000   10300001F05104100000000000206000000000000     
100   95050316997303010000000000050000000000050000002000000010410406161120135013554376170616000007342793   1030000200030000   333800010001203104000003327KBZPay                 Yangon        MMR11006161120135013550616000000000000000   10300001F05104100000000010500000000000000     
100   95050315743141220000000000000980000000000980002000000010410406160821175117194595810616000007341369   1020000200030000   333400010001204104000000281Myanmar Soft-Gate Tech Yangon        MMR11006160821175117190616000000000000000   10300001F05104100000000000206000000000000     
100   95030325264619140000000000025750000000025750002000000010410406160427111882644773800616216711188264   1040001600030000   541120000555000000010000465Ocean Shwe Gone Daing  Yangon        MMR11006160427111882640616000000000000000   10300001F00104100000000001545000000000000     
100   62911028202207040000000000022800000000022800002000000010410406160220061830254773800616216709183025   1040001600030000   591220001007000000010000737Shwe Ohh Pharmacy (Tan Ygn           MMR11006160220061830250616000000000000000   10300001F00104100000000001368000000000000     
100   95050310427855490000000000001960000000001960002000000010410406160308513851922355720616000007338501   1020000200030000   333400010001204104000000281Myanmar Soft-Gate Tech Yangon        MMR11006160308513851920616000000000000000   10300001F05104100000000000412000000000000     
100   62443100360763680000000000004900000000004900002000000010410406160212014201221845150616000007338159   1020000200030000   333400010001204104000000281Myanmar Soft-Gate Tech Yangon        MMR11006160212014201220616000000000000000   10300001F05104100000000001029000000000000     
100   95050310427855490000000000000980000000000980002000000010410406160619384938631765760616000007340310   1020000200030000   333400010001204104000000281Myanmar Soft-Gate Tech Yangon        MMR11006160619384938630616000000000000000   10300001F05104100000000000206000000000000     
100   62911028202397530000000000050000000000050000002000000010410406160431215177394773800616425011121166   1030000900030000   541119001311190110000000968Ocean Mingalar MDY     MANDALAYHARSI MMR11006160431215177390616000000000000000   10300001F00104100000000003000000000000000     
100   95050318621775380000000000002000000000002000002000000010410406160822095209589212880616000007341374   1030000200030000   3338000100012031040000040022C2P (Myanmar) Co. Ltd Yangon        MMR11006160822095209580616000000000000000   10300001F05104100000000000420000000000000     
100   95050311458479980000000000028000000000028000002000000010410406160046441644632100430616000007337959   1030000200030000   3338000100012031040000040022C2P (Myanmar) Co. Ltd Yangon        MMR11006160046441644630616000000000000000   10300001F05104100000000005880000000000000     
100   95050316377977350000000000010000000000010000002000000010410406161256092609752978980616000007343242   1040001600030000   333800010001220104000004507A +                    Yangon        MMR11006161256092609750616000000000000000   10300001F05104100000000002100000000000000     
100   95050319938772870000000000000980000000000980002000000010410406161359322932510184590616000007343499   1020000200030000   333400010001204104000000281Myanmar Soft-Gate Tech Yangon        MMR11006161359322932510616000000000000000   10300001F05104100000000000206000000000000     
100   62911028202737030000000000300000000000300000002000000010410406161403463346374773800616000007343510   1030000200030000   333800010001203104000003327KBZPay                 Yangon        MMR11006161403463346370616000000000000000   10300001F05104100000000063000000000000000     
100   95050312845568060000000000069000000000069000002000000010410406160847253976829978740616050161558166   1030000300030000   444410125517104519000021332Hot Pot king                         MMR11006160847253976820616000000000000000   10300001 00104100000000029325000000000000     
100   62911028202159020000000000101200000000101200002000000010410406160455235186454773800616997251123166   1030000900030000   591219000601190110000000441Shwe Ohh Pharmacy St-3 YANGON        MMR11006160455235186450616000000000000000   10300001F00104100000000006072000000000000     
100   95050312498129060000000000000980000000000980002000000010410406160241141114275830890616000007338302   1020000200030000   333400010001204104000000281Myanmar Soft-Gate Tech Yangon        MMR11006160241141114270616000000000000000   10300001F05104100000000000206000000000000     
100   62443100317500820000000000020000000000020000002000000010410406161154272427880815910616000007342952   1030000200030000   333800010001203104000003327KBZPay                 Yangon        MMR11006161154272427880616000000000000000   10300001F05104100000000004200000000000000     
100   95050311419479170000000000001960000000001960002000000010410406160758562856126163190616000007341227   1020000200030000   333400010001204104000000281Myanmar Soft-Gate Tech Yangon        MMR11006160758562856120616000000000000000   10300001F05104100000000000412000000000000     
100   62443100364681690000000001000000000001000000002000000010410406160404173417390313410616000007339172   1040001600030000   333800010001220104000004507A +                    Yangon        MMR11006160404173417390616000000000000000   10300001F05104100000000210000000000000000     
100   95050317333821270000000000060480000000060480002000000010410406160457422742444299150616000007339629   1030000900030000   333800010001202104000003301uab bank               Yangon        MMR11006160457422742440616000000000000000   10300001F05104100000000012701000000000000     
100   95030353305053700000000000030000000000030000002000000010410406160403003300144773800616000007339154   1030000200030000   3338000100012031040000040022C2P (Myanmar) Co. Ltd Yangon        MMR11006160403003300140616000000000000000   10300001F05104100000000006300000000000000     
100   62443100317500820000000000100000000000100000002000000010410406160303483348847313180616000007338443   1030000200030000   333800010001203104000003327KBZPay                 Yangon        MMR11006160303483348840616000000000000000   10300001F05104100000000021000000000000000     
100   95050314355878900000000000020000000000020000002000000010410406160307243724064008210616000007338483   1030000200030000   333800010001203104000003327KBZPay                 Yangon        MMR11006160307243724060616000000000000000   10300001F05104100000000004200000000000000     
100   95050320624349010000000000050000000000050000002000000010410406160203585142838455080616848330858166   1030000900030000   554119000346190110000000213New Day Energy SOK     YANGONOKKALAP MMR11006160203585142830616000000000000000   10300001F00104100000000006000000000000000     
100   95050316812885810000000000005880000000005880002000000010410406160804243424239468160616000007341256   1020000200030000   333400010001204104000000281Myanmar Soft-Gate Tech Yangon        MMR11006160804243424230616000000000000000   10300001F05104100000000001235000000000000     
100   62443100355445150000000000059700000000059700002000000010410406160640013971261510470616779091318166   1030000300030000   555510124697104519000020166Makro Myanmar                        MMR11006160640013971260616000000000000000   10300001 00104100000000014328000000000000     
100   62443100350052510000000000003300000000003300002000000010410406160317074707287993950616000007338623   1030000200030000   333300010001203104000003632Myanmar Tradenet Test  Yangon        MMR11006160317074707280616000000000000000   10300001F05104100000000010000000000000000     
100   95050310599777990000000000055757000000055757002000000010410406160444303966285866540616545151110166   1030000300030000   555510124728104519000020696Happy Baby Store                     MMR11006160444303966280616000000000000000   10300001 00104100000000013382000000000000     
100   95050315743141220000000000004900000000004900002000000010410406161613474347934971850616000007344054   1020000200030000   333400010001204104000000281Myanmar Soft-Gate Tech Yangon        MMR11006161613474347930616000000000000000   10300001F05104100000000001029000000000000     
100   62911028202290100000000000190280000000190280002000000010410406160627145213224773800616504571214166   1030000900030000   541119001241190110000000082Sein Gay Har Super Cen YANGON        MMR11006160627145213220616000000000000000   10300001F00104100000000011417000000000000     
100   62911028202474000000000000028500000000028500002000000010410406160324381857674773800616216710185767   1040001600030000   598320001170000000010000527Shwe Taung Energy (YGN Yangon        MMR11006160324381857670616000000000000000   10300001F00104100000000000855000000000000     
100   95050312173216740000000000090400000000090400002000000010410406160403085169785355960616073331008166   1030000900030000   541119001260190110000000958City Mart PLST C 3     YANGONMYOTHIT MMR11006160403085169780616000000000000000   10300001F00104100000000022600000000000000     
100   62911028202212490000000000011300000000011300002000000010410406160438305179794773800616563081130166   1030000900030000   581219000715190110000000546Akkhaya Tea House(Dago YANGON        MMR11006160438305179790616000000000000000   10300001F00104100000000001153000000000000     
100   62911028202530930000000000039900000000039900002000000010410406160524231914044773800616216712191404   1040001600030000   541120000584000000010000465Ocean Shwe Gone Daing  Yangon        MMR11006160524231914040616000000000000000   10300001F00104100000000002394000000000000     
100   95050328794829940000000000100000000000100000002000000010410406160309113911294093310616000007338512   1030000200030000   333800010001203104000003327KBZPay                 Yangon        MMR11006160309113911290616000000000000000   10300001F05104100000000021000000000000000     
100   95050321084131410000000000104200000000104200002000000010410406161056122612508737950616000007342656   1010000100030000   333500010001205104000000364Internal Revenue Depar Yangon        MMR11006161056122612500616000000000000000   10300001F05104100000000060000000000000000     
100   62911028202788350000000000010000000000010000002000000010410406152357442744224773800616000007337880   1030000200030000   333800010001203104000003327KBZPay                 Yangon        MMR11006152357442744220616000000000000000   10300001F05104100000000002100000000000000     
100   62911028202737030000000000300000000000300000002000000010410406161407253725814773800616000007343532   1030000200030000   333800010001203104000003327KBZPay                 Yangon        MMR11006161407253725810616000000000000000   10300001F05104100000000063000000000000000     
100   95050311382087030000000000001960000000001960002000000010410406161012404240186929070616000007342434   1020000200030000   333400010001204104000000281Myanmar Soft-Gate Tech Yangon        MMR11006161012404240180616000000000000000   10300001F05104100000000000412000000000000     
100   62911028202530930000000000043100000000043100002000000010410406160552295204274773800616039221229166   1030000900030000   581219000423190110000000284BCC (SYS)              YANGON        MMR11006160552295204270616000000000000000   10300001F00104100000000004396000000000000     
100   95050310178107440000000000010000000000010000002000000010410406160753022302875567520616000007341157   1030000200030000   3338000100012031040000040022C2P (Myanmar) Co. Ltd Yangon        MMR11006160753022302870616000000000000000   10300001F05104100000000002100000000000000     
100   95050312529325420000000000042000000000042000002000000010410406160259112911263923110616000007338375   1030000200030000   3338000100012031040000040022C2P (Myanmar) Co. Ltd Yangon        MMR11006160259112911260616000000000000000   10300001F05104100000000008820000000000000     
100   95050322420590810000000000100000000000100000002000000010410406160505173517827524740616000007339693   1030000200030000   333800010001203104000003327KBZPay                 Yangon        MMR11006160505173517820616000000000000000   10300001F05104100000000021000000000000000     
100   95030302100061930000000000026400000000026400002000000010410406160604535207654773800616217341253166   1030000900030000   541119000128190110000000082Sein Gay Har Super Cen YANGON        MMR11006160604535207650616000000000000000   10300001F00104100000000001584000000000000     
100   95050316818236190000000000000980000000000980002000000010410406160145471547978880560616000007338077   1020000200030000   333400010001204104000000281Myanmar Soft-Gate Tech Yangon        MMR11006160145471547970616000000000000000   10300001F05104100000000000206000000000000     
100   62911028202313470000000000012829000000012829002000000010410406160753165235474773800616619231416166   1030000900030000   541119001359190110000000977Ocean PZD C 13         YANGONAUNG    MMR11006160753165235470616000000000000000   10300001F00104100000000000770000000000000     
100   62911028202150190000000000017710000000017710002000000010410406161156185299894773800616183261818166   1030000900030000   581219000590190110000000430The Tea Club           YANGON        MMR11006161156185299890616000000000000000   10300001F00104100000000001806000000000000     
100   62443100330105920000000000020000000000020000002000000010410406160424375437945696340616000007339321   1030000200030000   333800010001203104000003327KBZPay                 Yangon        MMR11006160424375437940616000000000000000   10300001F05104100000000004200000000000000     
100   62911028202057620000000000190000000000190000002000000010410406161327195719334773800616000007343381   1030000200030000   333800010001203104000003327KBZPay                 Yangon        MMR11006161327195719330616000000000000000   10300001F05104100000000039900000000000000     
100   62911028202668140000000000074639000000074639002000000010410406161010315271834773800616532401631166   1030000900030000   541119001282190110000000963City Mart SPL C 7      YANGONMYOTHIT MMR11006161010315271830616000000000000000   10300001F00104100000000004478000000000000     
100   95050312224678430000000000000980000000000980002000000010410406160326265626179391140616000007338741   1020000200030000   333400010001204104000000281Myanmar Soft-Gate Tech Yangon        MMR11006160326265626170616000000000000000   10300001F05104100000000000206000000000000     
100   95050313836159580000000000008176000000008176002000000010410406160926295260865446770616950561529166   1030000900030000   541119000112190110000000077Sein Gay Har Chinatown YANGON        MMR11006160926295260860616000000000000000   10300001F00104100000000002044000000000000     
100   95050313079290890000000000013500000000013500002000000010410406160917145258248666640616810471514166   1030000900030000   541119000113190110000000077Sein Gay Har Chinatown YANGON        MMR11006160917145258240616000000000000000   10300001F00104100000000003375000000000000     
100   62443100348951400000000000215828000000215828002000000010410406160856275253073028420616559261527166   1030000900030000   541119001328190110000000971Ocean Junction NPT C6  NAYPYITAW     MMR11006160856275253070616000000000000000   10300001F00104100000000053957000000000000     
100   95050317084233280000000000000980000000000980002000000010410406161328075807509674010616000007343384   1020000200030000   333400010001204104000000281Myanmar Soft-Gate Tech Yangon        MMR11006161328075807500616000000000000000   10300001F05104100000000000206000000000000     
100   95050318257792630000000000002600000000002600002000000010410406160813205241001290840616910431420166   1030000900030000   541119001248190110000000955City Mart JS C 7       YANGONUT      MMR11006160813205241000616000000000000000   10300001F00104100000000000650000000000000     
100   95050310357533060000000000050000000000050000002000000010410406160748011801642262550616000007341097   1030000200030000   333800010001203104000003327KBZPay                 Yangon        MMR11006160748011801640616000000000000000   10300001F05104100000000010500000000000000     
100   95050319178423260000000000025000000000025000002000000010410406161252262226094631460616000007343224   1030000200030000   333800010001203104000003327KBZPay                 Yangon        MMR11006161252262226090616000000000000000   10300001F05104100000000005250000000000000     
100   62911028202000450000000000004900000000004900002000000010410406160404273427914773800616000007339174   1020000200030000   333400010001204104000000281Myanmar Soft-Gate Tech Yangon        MMR11006160404273427910616000000000000000   10300001F05104100000000001029000000000000     
100   62443100364681690000000000500000000000500000002000000010410406160409063906449973030616000007339210   1040001600030000   333800010001220104000004507A +                    Yangon        MMR11006160409063906440616000000000000000   10300001F05104100000000105000000000000000     
100   95050314557307430000000000001960000000001960002000000010410406160844581458214936190616000007341590   1020000200030000   333400010001204104000000281Myanmar Soft-Gate Tech Yangon        MMR11006160844581458210616000000000000000   10300001F05104100000000000412000000000000     
100   95050310332595380000000000000980000000000980002000000010410406160204033403460107560616000007338132   1020000200030000   333400010001204104000000281Myanmar Soft-Gate Tech Yangon        MMR11006160204033403460616000000000000000   10300001F05104100000000000206000000000000     
100   95050310332595380000000000000980000000000980002000000010410406161541261126667049810616000007343942   1020000200030000   333400010001204104000000281Myanmar Soft-Gate Tech Yangon        MMR11006161541261126660616000000000000000   10300001F05104100000000000206000000000000     
100   95050314570621780000000000003920000000003920002000000010410406160246041604572525920616000007338323   1020000200030000   333400010001204104000000281Myanmar Soft-Gate Tech Yangon        MMR11006160246041604570616000000000000000   10300001F05104100000000000823000000000000     
