100   95050317876216360000000000000980000000000980002000000010410406180840041004485513650618000007352936   1020000200030000   333400010001204104000000281Myanmar Soft-Gate Tech Yangon        MMR11006180840041004480618000000000000000   10300001F05104100000000000206000000000000     
100   95050314692738880000000000001960000000001960002000000010410406181101043104288771470618000007353419   1020000200030000   333400010001204104000000281Myanmar Soft-Gate Tech Yangon        MMR11006181101043104280618000000000000000   10300001F05104100000000000412000000000000     
100   95050312595952760000000000002940000000002940002000000010410406181558402840904225710618000007354396   1020000200030000   333400010001204104000000281Myanmar Soft-Gate Tech Yangon        MMR11006181558402840900618000000000000000   10300001F05104100000000000617000000000000     
100   95050317084233280000000000000980000000000980002000000010410406181310554055350849440618000007353884   1020000200030000   333400010001204104000000281Myanmar Soft-Gate Tech Yangon        MMR11006181310554055350618000000000000000   10300001F05104100000000000206000000000000     
100   62911028202163630000000000105500000000105500002000000010410406180517283367814773800618216912336781   1040001600030000   591220000302000000010000290Shwe Ohh Pharmacy (Nor Yangon        MMR11006180517283367810618000000000000000   10300001F00104100000000006330000000000000     
100   95050313836159580000000000002940000000002940002000000010410406180918144814769572990618000007353085   1020000200030000   333400010001204104000000281Myanmar Soft-Gate Tech Yangon        MMR11006180918144814760618000000000000000   10300001F05104100000000000617000000000000     
100   95050316442084030000000000060500000000060500002000000010410406181508223822904566100618000007354281   1030000200030000   333800010001203104000003327KBZPay                 Yangon        MMR11006181508223822900618000000000000000   10300001F05104100000000012705000000000000     
100   95050329213164970000000000039950000000039950002000000010410406181658130026773473630618000748687848   1030000200030000   541188001480000008000000399KBZ BANK               OCEAN SUPERCE MMR11006181658130026770618000000000000000   10300001 00104100000000009988000000000000     
100   62911028202685390000000000005250000000005250002000000010410406180521503370514773800618216912337051   1040001600030000   591220000277000000010000265Shwe Ohh Pharmacy (Thu Yangon        MMR11006180521503370510618000000000000000   10300001F00104100000000000315000000000000     
100   62911028202010500000000000023300000000023300002000000010410406181116550009904773800618000748690012   1030000200030000   569988000801000008000004608KBZ BANK               SGP-IPANEMA   MMR11006181116550009900618000000000000000   10300001 00104100000000001398000000000000     
100   62911028202203320000000000441800000000441800002000000010410406180501170004194773800618000748673259   1030000200030000   594488000580000008000003830KBZ BANK               TIME SQUARE F MMR11006180501170004190618000000000000000   10300001 00104100000000026508000000000000     
100   95050324154190880000000000014800000000014800002000000010410406181507130156721612980618000748682727   1030000200030000   541188001056000008000000314KBZ BANK               MARKETPLACE - MMR11006181507130156720618000000000000000   10300001 00104100000000003700000000000000     
100   62911028202910770000000000010000000000010000002000000010410406180133080308274773800618000007351213   1030000200030000   333800010001203104000003327KBZPay                 Yangon        MMR11006180133080308270618000000000000000   10300001F05104100000000002100000000000000     
100   95050328074436620000000000120500000000120500002000000010410406180511590041778705940618000748673709   1030000200030000   599988000600000008000003439KBZ BANK               SWEETY HOME ( MMR11006180511590041770618000000000000000   10300001 00104100000000028920000000000000     
100   95030301100103940000000000031808000000031808002000000010410406181530400156754773800618000748683797   1030000200030000   541188001056000008000000314KBZ BANK               MARKETPLACE - MMR11006181530400156750618000000000000000   10300001 00104100000000001908000000000000     
100   95030327835334700000000000035500000000035500002000000010410406181931250164294773800618000748693690   1030000200030000   541188001242000008000000323KBZ BANK               CITY MART - I MMR11006181931250164290618000000000000000   10300001 00104100000000002130000000000000     
100   95030327835334700000000000024400000000024400002000000010410406181933040164304773800618000748693712   1030000200030000   541188001242000008000000323KBZ BANK               CITY MART - I MMR11006181933040164300618000000000000000   10300001 00104100000000001464000000000000     
100   62911028202117290000000000100000000000100000002000000010410406180432310231114773800618000007351965   1030000200030000   333800010001203104000003327KBZPay                 Yangon        MMR11006180432310231110618000000000000000   10300001F05104100000000021000000000000000     
100   95050325646370920000000000025000000000025000002000000010410406180433100310937926290618000007351978   1030000200030000   333800010001203104000003327KBZPay                 Yangon        MMR11006180433100310930618000000000000000   10300001F05104100000000005250000000000000     
100   95030380157605420000000000037700000000037700002000000010410406181424320028804773800618000748680793   1030000200030000   541188001482000008000000399KBZ BANK               OCEAN SUPERCE MMR11006181424320028800618000000000000000   10300001 00104100000000002262000000000000     
100   95050310332595380000000000000980000000000980002000000010410406181530260026094140610618000007354338   1020000200030000   333400010001204104000000281Myanmar Soft-Gate Tech Yangon        MMR11006181530260026090618000000000000000   10300001F05104100000000000206000000000000     
100   62911028202290100000000000044444000000044444002000000010410406181345110197324773800618000748678783   1030000200030000   541188001082000008000000294KBZ BANK               CITY MART - J MMR11006181345110197320618000000000000000   10300001 00104100000000002667000000000000     
100   95050311382087030000000000002940000000002940002000000010410406181331510151874395900618000007353949   1020000200030000   333400010001204104000000281Myanmar Soft-Gate Tech Yangon        MMR11006181331510151870618000000000000000   10300001F05104100000000000617000000000000     
100   62911028202616250000000000265210000000265210002000000010410406181913360157044773800618000748693255   1030000200030000   541188001056000008000000314KBZ BANK               MARKETPLACE - MMR11006181913360157040618000000000000000   10300001 00104100000000015913000000000000     
100   95030318100004530000000000034715000000034715002000000010410406180352160036174773800618216910003617   1020000200030000   541100255001300115411000025MWD BANK               YGN           MMR11006180352160036170618000000000000000   10300001 00104100000000002083000000000000     
100   95050328035424750000000000195550000000195550002000000010410406181046470079161360010618000748671427   1030000200030000   541188001334000008000000327KBZ BANK               CITY MART - S MMR11006181046470079160618000000000000000   10300001 00104100000000048888000000000000     
100   95050318214455130000000000002940000000002940002000000010410406180931170117959658080618000007353133   1020000200030000   333400010001204104000000281Myanmar Soft-Gate Tech Yangon        MMR11006180931170117950618000000000000000   10300001F05104100000000000617000000000000     
100   62911028202265290000000000004950000000004950002000000010410406181250310123394773800618000748676475   1030000200030000   541188001256000008000000310KBZ BANK               CITY MART- FM MMR11006181250310123390618000000000000000   10300001 00104100000000000297000000000000     
100   95030344066832370000000000044987000000044987002000000010410406181424330045194773800618000748680792   1030000200030000   541188001428000008000000401KBZ BANK               OCEAN SUPERCE MMR11006181424330045190618000000000000000   10300001 00104100000000002699000000000000     
100   95050317413015720000000000028300000000028300002000000010410406181057490037054664980618000748671895   1030000200030000   541188001454000008000000391KBZ BANK               OCEAN SUPER C MMR11006181057490037050618000000000000000   10300001 00104100000000007075000000000000     
100   95050315752234130000000000020500000000020500002000000010410406181125200037089452240618000748673041   1030000200030000   541188001454000008000000391KBZ BANK               OCEAN SUPER C MMR11006181125200037080618000000000000000   10300001 00104100000000005125000000000000     
100   95050315345734110000000000020000000000020000002000000010410406180132440244767879140618000007351211   1030000200030000   333800010001203104000003327KBZPay                 Yangon        MMR11006180132440244760618000000000000000   10300001F05104100000000004200000000000000     
100   62911028202290100000000000044264000000044264002000000010410406180645050044164773800618216913004416   1020000200030000   806200105002300018062000010MWD BANK               YGN           MMR11006180645050044160618000000000000000   10300001 00104100000000002656000000000000     
100   95050315110306410000000000003000000000003000002000000010410406181612004200877530680618000007354429   1030000200030000   333800010001203104000003327KBZPay                 Yangon        MMR11006181612004200870618000000000000000   10300001F05104100000000000630000000000000     
100   95050316442084030000000000020200000000020200002000000010410406181517314731497871060618000007354304   1030000200030000   333800010001203104000003327KBZPay                 Yangon        MMR11006181517314731490618000000000000000   10300001F05104100000000004242000000000000     
100   95050312498129060000000000001960000000001960002000000010410406180317324732039446520618000007351632   1020000200030000   333400010001204104000000281Myanmar Soft-Gate Tech Yangon        MMR11006180317324732030618000000000000000   10300001F05104100000000000412000000000000     
100   95050314570621780000000000001960000000001960002000000010410406181422195219242743420618000007354108   1020000200030000   333400010001204104000000281Myanmar Soft-Gate Tech Yangon        MMR11006181422195219240618000000000000000   10300001F05104100000000000412000000000000     
100   95050319156011610000000000000980000000000980002000000010410406181522275227105793100618000007354320   1020000200030000   333400010001204104000000281Myanmar Soft-Gate Tech Yangon        MMR11006181522275227100618000000000000000   10300001F05104100000000000206000000000000     
100   95050319532433550000000000010000000000010000002000000010410406181435460546521090930618000007354151   1030000200030000   333800010001203104000003327KBZPay                 Yangon        MMR11006181435460546520618000000000000000   10300001F05104100000000002100000000000000     
100   62443100395250310000000000002940000000002940002000000010410406180456542654691104720618000007352070   1020000200030000   333400010001204104000000281Myanmar Soft-Gate Tech Yangon        MMR11006180456542654690618000000000000000   10300001F05104100000000000617000000000000     
100   95050315745833530000000000030000000000030000002000000010410406180852432243143314910618000007352970   1030000200030000   333800010001203104000003327KBZPay                 Yangon        MMR11006180852432243140618000000000000000   10300001F05104100000000006300000000000000     
100   62911028202590250000000000114950000000114950002000000010410406180155323259704773800618216908325970   1040001600030000   591220000273000000010000261Shwe Ohh Pharmacy (WZY Yangon        MMR11006180155323259700618000000000000000   10300001F00104100000000006897000000000000     
100   62911028202489110000000000064800000000064800002000000010410406180424095677984773800618823541009168   1030000900030000   541119001231190110000000951Marketplace KTY C 1    YANGONARTAUNG MMR11006180424095677980618000000000000000   10300001F00104100000000003888000000000000     
100   95050319928585020000000000000980000000000980002000000010410406180338040804901694680618000007351725   1020000200030000   333400010001204104000000281Myanmar Soft-Gate Tech Yangon        MMR11006180338040804900618000000000000000   10300001F05104100000000000206000000000000     
100   95050311184380560000000000002940000000002940002000000010410406181444441444496133480618000007354188   1020000200030000   333400010001204104000000281Myanmar Soft-Gate Tech Yangon        MMR11006181444441444490618000000000000000   10300001F05104100000000000617000000000000     
100   62443100395250310000000000000980000000000980002000000010410406180459432943671274910618000007352080   1020000200030000   333400010001204104000000281Myanmar Soft-Gate Tech Yangon        MMR11006180459432943670618000000000000000   10300001F05104100000000000206000000000000     
100   95050316377977350000000000010000000000010000002000000010410406180919334933001310570618000007353096   1040001600030000   333800010001220104000004507A +                    Yangon        MMR11006180919334933000618000000000000000   10300001F05104100000000002100000000000000     
100   95050325787151080000000000050000000000050000002000000010410406181118404840063814020618000007353490   1030000200030000   333800010001203104000003327KBZPay                 Yangon        MMR11006181118404840060618000000000000000   10300001F05104100000000010500000000000000     
100   95050316785465380000000000000980000000000980002000000010410406181145501550533643830618000007353573   1020000200030000   333400010001204104000000281Myanmar Soft-Gate Tech Yangon        MMR11006181145501550530618000000000000000   10300001F05104100000000000206000000000000     
100   95050321057500320000000000004900000000004900002000000010410406181144011401225296310618000007353562   1020000200030000   333400010001204104000000281Myanmar Soft-Gate Tech Yangon        MMR11006181144011401220618000000000000000   10300001F05104100000000001029000000000000     
100   62443101023815100000000000035000000000035000002000000010410406180451343351348351750618216911335134   1040001600030000   598320000658000000010000527Shwe Taung Energy (YGN Yangon        MMR11006180451343351340618000000000000000   10300001F00104100000000004200000000000000     
100   62911028202163630000000000007550000000007550002000000010410406180516153367094773800618216912336709   1040001600030000   591220000302000000010000290Shwe Ohh Pharmacy (Nor Yangon        MMR11006180516153367090618000000000000000   10300001F00104100000000000453000000000000     
100   95050318741700180000000000000980000000000980002000000010410406181153252325703728920618000007353598   1020000200030000   333400010001204104000000281Myanmar Soft-Gate Tech Yangon        MMR11006181153252325700618000000000000000   10300001F05104100000000000206000000000000     
100   62911028202490830000000000046000000000046000002000000010410406181346563748794773800618216920374879   1040001600030000   806220000003000000010000001Victoria Hospital      Yangon        MMR11006181346563748790618000000000000000   10300001F00104100000000002760000000000000     
100   95050325787151080000000000040000000000040000002000000010410406181120475047905551600618000007353497   1030000200030000   333800010001203104000003327KBZPay                 Yangon        MMR11006181120475047900618000000000000000   10300001F05104100000000008400000000000000     
100   95050315440420430000000000039250000000039250002000000010410406180356365671751439400618446261036168   1030000900030000   541119000613190110000000452Pro(1) Global-Hlaing T YANGONTHARYA  MMR11006180356365671750618000000000000000   10300001F00104100000000009813000000000000     
100   62911028202489110000000000012700000000012700002000000010410406180407075674434773800618608371007168   1030000900030000   541119001239190110000000953Marketplace KTYCity Ca YANGONARTAUNG MMR11006180407075674430618000000000000000   10300001F00104100000000000762000000000000     
100   62443100399918110000000000084720000000084720002000000010410406180446555683164876580618144161155168   1030000900030000   541119001189190110000000942City Mart HDC C 4      YANGONUT      MMR11006180446555683160618000000000000000   10300001F00104100000000021180000000000000     
100   95050319925596540000000000009800000000009800002000000010410406180403163316959786910618000007351828   1020000200030000   333400010001204104000000281Myanmar Soft-Gate Tech Yangon        MMR11006180403163316950618000000000000000   10300001F05104100000000002058000000000000     
100   95050310332595380000000000000980000000000980002000000010410406180504013401054379810618000007352106   1020000200030000   333400010001204104000000281Myanmar Soft-Gate Tech Yangon        MMR11006180504013401050618000000000000000   10300001F05104100000000000206000000000000     
100   62911028202542080000000000025550000000025550002000000010410406181046023578474773800618216917357847   1040001600030000   541120000555000000010000465Ocean Shwe Gone Daing  Yangon        MMR11006181046023578470618000000000000000   10300001F00104100000000001533000000000000     
100   95050319178423260000000000010000000000010000002000000010410406181512124212019523550618000007354287   1030000200030000   333800010001203104000003327KBZPay                 Yangon        MMR11006181512124212010618000000000000000   10300001F05104100000000002100000000000000     
100   95050316785465380000000000001960000000001960002000000010410406181054242424426523310618000007353397   1020000200030000   333400010001204104000000281Myanmar Soft-Gate Tech Yangon        MMR11006181054242424420618000000000000000   10300001F05104100000000000412000000000000     
100   62911028202116120000000000042856000000042856002000000010410406180627333412904773800618216913341290   1040001600030000   541120000569000000010000465Ocean Shwe Gone Daing  Yangon        MMR11006180627333412900618000000000000000   10300001F00104100000000002571000000000000     
100   62443100340648380000000000020000000000020000002000000010410406180314214421395971360618000007351611   1030000200030000   333800010001203104000003327KBZPay                 Yangon        MMR11006180314214421390618000000000000000   10300001F05104100000000004200000000000000     
100   95050317876216360000000000002940000000002940002000000010410406181037290729026438210618000007353351   1020000200030000   333400010001204104000000281Myanmar Soft-Gate Tech Yangon        MMR11006181037290729020618000000000000000   10300001F05104100000000000617000000000000     
100   95050311184380560000000000002940000000002940002000000010410406181446591659854481000618000007354191   1020000200030000   333400010001204104000000281Myanmar Soft-Gate Tech Yangon        MMR11006181446591659850618000000000000000   10300001F05104100000000000617000000000000     
100   95050310397364970000000000003920000000003920002000000010410406181253322332523984210618000007353816   1020000200030000   333400010001204104000000281Myanmar Soft-Gate Tech Yangon        MMR11006181253322332520618000000000000000   10300001F05104100000000000823000000000000     
100   95030318100004530000000000034000000000034000002000000010410406180329113304974773800618216910330497   1040001600030000   598320000660000000010000529Shwe Taung Energy (NPT Naypyitaw     MMR11006180329113304970618000000000000000   10300001F00104100000000001020000000000000     
100   62911028202311150000000000054318000000054318002000000010410406180804233469884773800618216915346988   1040001600030000   541120000559000000010000465Ocean Shwe Gone Daing  Yangon        MMR11006180804233469880618000000000000000   10300001F00104100000000003259000000000000     
100   95050325646370920000000000010000000000010000002000000010410406181443321332381176030618000007354186   1030000200030000   333800010001203104000003327KBZPay                 Yangon        MMR11006181443321332380618000000000000000   10300001F05104100000000002100000000000000     
100   95050324200302760000000000438500000000438500002000000010410406181109361580920423960618393687668832   1040001400030000   481210000421034812100003078Boss Mobile null No.(5 )  Yay Kyaw s MMR11006181109361580920618000000000000000   10300001 00104100000000105240000000000000     
100   95050317084233280000000000002940000000002940002000000010410406180656142614700336560618000007352569   1020000200030000   333400010001204104000000281Myanmar Soft-Gate Tech Yangon        MMR11006180656142614700618000000000000000   10300001F05104100000000000617000000000000     
100   95050328919375610000000000050000000000050000002000000010410406180720075007289982410618000007352659   1030000200030000   333800010001203104000003327KBZPay                 Yangon        MMR11006180720075007280618000000000000000   10300001F05104100000000010500000000000000     
100   95050315110306410000000000002000000000002000002000000010410406181547391739615878190618000007354377   1030000200030000   333800010001203104000003327KBZPay                 Yangon        MMR11006181547391739610618000000000000000   10300001F05104100000000000420000000000000     
100   62443100313529540000000000004900000000004900002000000010410406181342411241519353350618000007353990   1020000200030000   333400010001204104000000281Myanmar Soft-Gate Tech Yangon        MMR11006181342411241510618000000000000000   10300001F05104100000000001029000000000000     
100   95050315796541830000000000020100000000020100002000000010410406180648451845189911100618000007352543   1030000200030000   333800010001203104000003327KBZPay                 Yangon        MMR11006180648451845180618000000000000000   10300001F05104100000000004221000000000000     
100   95050314248677090000000000050000000000050000002000000010410406180554292429493528890618000007352322   1030000200030000   333800010001203104000003327KBZPay                 Yangon        MMR11006180554292429490618000000000000000   10300001F05104100000000010500000000000000     
100   95050312224678430000000000002940000000002940002000000010410406181302053205937374270618000007353851   1020000200030000   333400010001204104000000281Myanmar Soft-Gate Tech Yangon        MMR11006181302053205930618000000000000000   10300001F05104100000000000617000000000000     
100   95050326686895020000000000500000000000500000002000000010410406180712234223006932700618000007352622   1030000200030000   3338000100012031040000040022C2P (Myanmar) Co. Ltd Yangon        MMR11006180712234223000618000000000000000   10300001F05104100000000105000000000000000     
100   62443100357925510000000000044973000000044973002000000010410406180549125696996153050618966191212168   1030000900030000   541119001206190110000000948City Mart YK C 4       YANGONAUNG    MMR11006180549125696990618000000000000000   10300001F00104100000000011244000000000000     
100   62443100350052510000000000127103000000127103002000000010410406180339100910930042200618000007351732   1010000100030000   333500010001205104000000364Internal Revenue Depar Yangon        MMR11006180339100910930618000000000000000   10300001F05104100000000060000000000000000     
100   95050315330275830000000000002940000000002940002000000010410406181438220822192828510618000007354162   1020000200030000   333400010001204104000000281Myanmar Soft-Gate Tech Yangon        MMR11006181438220822190618000000000000000   10300001F05104100000000000617000000000000     
100   95050312675873230000000000002940000000002940002000000010410406181221465146752587010618000007353691   1020000200030000   333400010001204104000000281Myanmar Soft-Gate Tech Yangon        MMR11006181221465146750618000000000000000   10300001F05104100000000000617000000000000     
100   95050311121153200000000000000980000000000980002000000010410406181343441344907700870618000007353995   1020000200030000   333400010001204104000000281Myanmar Soft-Gate Tech Yangon        MMR11006181343441344900618000000000000000   10300001F05104100000000000206000000000000     
100   95050312549035820000000000030000000000030000002000000010410406180246101610661354300618000007351466   1030000200030000   333800010001203104000003327KBZPay                 Yangon        MMR11006180246101610660618000000000000000   10300001F05104100000000006300000000000000     
100   62443100350052510000000000264941000000264941002000000010410406180346111611881779780618000007351766   1010000100030000   333500010001205104000000364Internal Revenue Depar Yangon        MMR11006180346111611880618000000000000000   10300001F05104100000000060000000000000000     
100   95050318617855880000000000002940000000002940002000000010410406181458362836766218580618000007354245   1020000200030000   333400010001204104000000281Myanmar Soft-Gate Tech Yangon        MMR11006181458362836760618000000000000000   10300001F05104100000000000617000000000000     
100   95050315110306410000000000003000000000003000002000000010410406181605033503089183160618000007354413   1030000200030000   333800010001203104000003327KBZPay                 Yangon        MMR11006181605033503080618000000000000000   10300001F05104100000000000630000000000000     
100   95050316321163940000000000000980000000000980002000000010410406180413554355214914560618000007351894   1020000200030000   333400010001204104000000281Myanmar Soft-Gate Tech Yangon        MMR11006180413554355210618000000000000000   10300001F05104100000000000206000000000000     
100   95050317518971470000000000005000000000005000002000000010410406180410474047128219520618000007351875   1030000200030000   3338000100012031040000040022C2P (Myanmar) Co. Ltd Yangon        MMR11006180410474047120618000000000000000   10300001F05104100000000001050000000000000     
100   95050316067768680000000000000980000000000980002000000010410406180225505550316396840618000007351393   1020000200030000   333400010001204104000000281Myanmar Soft-Gate Tech Yangon        MMR11006180225505550310618000000000000000   10300001F05104100000000000206000000000000     
100   95050326094581320000000000006953000000006953002000000010410406180323105662998304620618940530910168   1030000900030000   541119001513190110000001102Ocean MGDTM C-6        YANGONADON    MMR11006180323105662990618000000000000000   10300001F00104100000000001739000000000000     
100   62911028202470870000000000036600000000036600002000000010410406180355075671344773800618423251007168   1030000900030000   591219000504190110000000351Shwe Ohh Pharmacy - (Y YANGONAW      MMR11006180355075671340618000000000000000   10300001F00104100000000002196000000000000     
100   95050316442084030000000000050200000000050200002000000010410406181242531253522331720618000007353769   1030000200030000   333800010001203104000003327KBZPay                 Yangon        MMR11006181242531253520618000000000000000   10300001F05104100000000010542000000000000     
100   62911028202265290000000000026650000000026650002000000010410406180604215700494773800618176341221168   1030000900030000   541119001157190110000000930OCEAN HTY C 7          YANGONTHARYA  MMR11006180604215700490618000000000000000   10300001F00104100000000001599000000000000     
100   95050316421999920000000000002940000000002940002000000010410406181153582358008686370618000007353595   1020000200030000   333400010001204104000000281Myanmar Soft-Gate Tech Yangon        MMR11006181153582358000618000000000000000   10300001F05104100000000000617000000000000     
100   95050329185828460000000000070000000000070000002000000010410406181355502550677785970618000007354027   1030000200030000   333800010001203104000003327KBZPay                 Yangon        MMR11006181355502550670618000000000000000   10300001F05104100000000014700000000000000     
100   95050322312197120000000000100000000000100000002000000010410406180325035503054999650618000007351669   1030000200030000   333800010001203104000003327KBZPay                 Yangon        MMR11006180325035503050618000000000000000   10300001F05104100000000021000000000000000     
100   62443100399918110000000000003800000000003800002000000010410406180455075684909622430618243251107168   1030000900030000   541119001201190110000000943City Mart HDC Season C YANGONUT      MMR11006180455075684900618000000000000000   10300001F00104100000000000950000000000000     
100   95050310427855490000000000001960000000001960002000000010410406180558412841047004010618000007352335   1020000200030000   333400010001204104000000281Myanmar Soft-Gate Tech Yangon        MMR11006180558412841040618000000000000000   10300001F05104100000000000412000000000000     
100   95050325646370920000000000000980000000000980002000000010410406180858462846067835410618000007353001   1020000200030000   333400010001204104000000281Myanmar Soft-Gate Tech Yangon        MMR11006180858462846060618000000000000000   10300001F05104100000000000206000000000000     
100   95030301100081330000000000022500000000022500002000000010410406181136243077744773800618062480652486   1040001400030000   541110000255025411100002149Sein Daung Super Store Sein Daung Su MMR11006181136243077740618000000000000000   10300001 00104100000000001350000000000000     
100   95030367537085740000000000000980000000000980002000000010410406181302573257884773800618000007353855   1020000200030000   333400010001204104000000281Myanmar Soft-Gate Tech Yangon        MMR11006181302573257880618000000000000000   10300001F05104100000000000206000000000000     
100   62443100373945130000000000020000000000020000002000000010410406180656213430843811730618216913343084   1040001600030000   598320000911000000010000662MMTM - Tamwe           Ygn           MMR11006180656213430840618000000000000000   10300001F00104100000000002400000000000000     
100   95050313168701670000000000001960000000001960002000000010410406180624155415480904640618000007352453   1020000200030000   333400010001204104000000281Myanmar Soft-Gate Tech Yangon        MMR11006180624155415480618000000000000000   10300001F05104100000000000412000000000000     
100   95030318100004530000000000229000000000229000002000000010410406180315435661234773800618843450943168   1030000900030000   541119001330190110000000971Ocean Junction NPT C 8 NAYPYITAW     MMR11006180315435661230618000000000000000   10300001F00104100000000013740000000000000     
100   95030301100081330000000000030100000000030100002000000010410406181141042100644773800618110491027723   1040001400030000   541110000369025411100002149Sein Daung Super Store Sein Daung Su MMR11006181141042100640618000000000000000   10300001 00104100000000001806000000000000     
100   95050317343045830000000000001960000000001960002000000010410406180254532453429701810618000007351507   1020000200030000   333400010001204104000000281Myanmar Soft-Gate Tech Yangon        MMR11006180254532453420618000000000000000   10300001F05104100000000000412000000000000     
100   62911028202440680000000000005300000000005300002000000010410406180325133303024773800618216910330302   1040001600030000   591220000296000000010000284Shwe Ohh Pharmacy (Lan Yangon        MMR11006180325133303020618000000000000000   10300001F00104100000000000318000000000000     
100   62443100323428970000000000021950000000021950002000000010410406181043443576229743180618216917357622   1040001600030000   591220000259000000010000247Shwe Ohh Pharmacy (KKT Yangon        MMR11006181043443576220618000000000000000   10300001F00104100000000005268000000000000     
100   95050313102162270000000000027700000000027700002000000010410406180634165708285584920618673041316168   1030000900030000   541119001358190110000000977Ocean PZD C 12         YANGONAUNG    MMR11006180634165708280618000000000000000   10300001F00104100000000006925000000000000     
100   62911028202788350000000000010000000000010000002000000010410406172135250525634773800618000007350996   1030000200030000   333800010001203104000003327KBZPay                 Yangon        MMR11006172135250525630618000000000000000   10300001F05104100000000002100000000000000     
100   95050322715181550000000000043494000000043494002000000010410406180911305747111225470618070411530168   1030000900030000   581219000006190110000000004Jo Jo Hot Pot Junction YANGONUT      MMR11006180911305747110618000000000000000   10300001F00104100000000018485000000000000     
100   95030338921533090000000000014100000000014100002000000010410406180743365724304773800618630131436168   1030000900030000   541119001249190110000000955City Mart JS C 8       YANGONUT      MMR11006180743365724300618000000000000000   10300001F00104100000000000846000000000000     
100   95050324200302760000000000007350000000007350002000000010410406181018025766675126120618374481602168   1030000900030000   591219001378190110000000983Shwe Ohh Pharmacy St 5 YANGONAUNG    MMR11006181018025766670618000000000000000   10300001F00104100000000001764000000000000     
100   62443100300743690000000000010000000000010000002000000010410406180855263499102889450618216915349910   1040001600030000   598320000911000000010000662MMTM - Tamwe           Ygn           MMR11006180855263499100618000000000000000   10300001F00104100000000001200000000000000     
100   95050322823372070000000000055050000000055050002000000010410406180722435719624308500618351521343168   1030000900030000   541119001244190110000000955City Mart JS C 3       YANGONUT      MMR11006180722435719620618000000000000000   10300001F00104100000000013763000000000000     
100   62911028202919290000000000050000000000050000002000000010410406181227505750614773800618000007353715   1030000200030000   333800010001203104000003327KBZPay                 Yangon        MMR11006181227505750610618000000000000000   10300001F05104100000000010500000000000000     
100   62443101083052160000000000173750000000173750002000000010410406180841325739585939120618598111532168   1030000900030000   541119000158190110000000084Pro (1) Global (Pazund YANGONARTAUNG MMR11006180841325739580618000000000000000   10300001F00104100000000043438000000000000     
100   62443100300743690000000000005600000000005600002000000010410406171348580003718510470617000350772507   1030000300030000   581200001506000000000001052CB BANK                YKKO (SGD)    MMR11006171348580003710617000000000000000   10300001F00104100000000002380000000000000     
100   62443100333488440000000000033000000000033000002000000010410406170411570000935694210617000350696612   1030000300030000   581200001846000000000001321CB BANK                SHAN YOE YAR  MMR11006170411570000930617000000000000000   10300001F00104100000000014025000000000000     
100   95030393174848800000000000060700000000060700002000000010410406170909560050554773800617000350736493   1030000300030000   531100000609000000000000408CB BANK                CAPITAL HYPER MMR11006170909560050550617000000000000000   10300001F00104100000000003642000000000000     
100   62911028202169750000000000025000000000025000002000000010410406180913013509054773800618216916350905   1040001600030000   598320000838000000010000600Regency Petrol Station Ygn           MMR11006180913013509050618000000000000000   10300001F00104100000000000750000000000000     
100   95050312695033440000000000000980000000000980002000000010410406181059092909269913370618000007353410   1020000200030000   333400010001204104000000281Myanmar Soft-Gate Tech Yangon        MMR11006181059092909260618000000000000000   10300001F05104100000000000206000000000000     
100   62443100313529540000000000017000000000017000002000000010410406180724563447040833330618216914344704   1040001600030000   569120000924000000010000671Generation Concept Sto Ygn           MMR11006180724563447040618000000000000000   10300001F00104100000000004080000000000000     
100   62443100303702210000000000065000000000065000002000000010410406180518253368409131400618216912336840   1040001600030000   598320000326000000010000314PT Power Petrol Statio Nay Pyi Taw   MMR11006180518253368400618000000000000000   10300001F00104100000000007800000000000000     
100   95050313497815710000000000015000000000015000002000000010410406180322055205442836590618000007351649   1030000200030000   333800010001203104000003327KBZPay                 Yangon        MMR11006180322055205440618000000000000000   10300001F05104100000000003150000000000000     
100   95030338921533090000000000031900000000031900002000000010410406180737125722984773800618551071412168   1030000900030000   541119001257190110000000957City Mart JS City Care YANGONUT      MMR11006180737125722980618000000000000000   10300001F00104100000000001914000000000000     
100   62911028202788350000000000010000000000010000002000000010410406171803333333414773800618000007350848   1030000200030000   333800010001203104000003327KBZPay                 Yangon        MMR11006171803333333410618000000000000000   10300001F05104100000000002100000000000000     
100   62911028202331290000000000061350000000061350002000000010410406180943015755644773800618611131601168   1030000900030000   591219000969190110000000776Shwe Ohh Pharmacy St ( YANGONADA     MMR11006180943015755640618000000000000000   10300001F00104100000000003681000000000000     
100   95050311959900780000000000000980000000000980002000000010410406180947221722582622670618000007353205   1020000200030000   333400010001204104000000281Myanmar Soft-Gate Tech Yangon        MMR11006180947221722580618000000000000000   10300001F05104100000000000206000000000000     
100   62911028202193830000000000015500000000015500002000000010410406181045335775054773800618947151733168   1030000900030000   541119001267190110000000958City Mart PLST C 10    YANGONMYOTHIT MMR11006181045335775050618000000000000000   10300001F00104100000000000930000000000000     
100   95050324947866880000000000022000000000022000002000000010410406180728385720948634630618430581338168   1030000900030000   541119001223190110000000945City Mart TM C 8       YANGONONE     MMR11006180728385720940618000000000000000   10300001F00104100000000005500000000000000     
100   95050324247403260000000000074250000000074250002000000010410406180903095744987920510618936331509168   1030000900030000   541119001068190110000000082Sein Gay Har Super Cen YANGON        MMR11006180903095744980618000000000000000   10300001F00104100000000018563000000000000     
100   95050320531117320000000000035950000000035950002000000010410406181009405764083303440618192391640168   1030000900030000   541119000285190110000000177Pro1 Global (Insein)   YANGON        MMR11006181009405764080618000000000000000   10300001F00104100000000008988000000000000     
100   95050322295410690000000000069950000000069950002000000010410406171108582843384538520617216818284338   1040001600030000   581420000079000000010000075Spicy Hot Pot Saya San Yangon        MMR11006171108582843380617000000000000000   10300001F00104100000000008394000000000000     
100   62443100371022130000000000172950000000172950002000000010410406181053445777601565860618103231744168   1030000900030000   541119000617190110000000452Pro(1) Global-Hlaing T YANGONTHARYA  MMR11006181053445777600618000000000000000   10300001F00104100000000043238000000000000     
