100   95050316442084030000000000050200000000050200002000000010410406170504203420546715370617000007346312   1030000200030000   333800010001203104000003327KBZPay                 Yangon        MMR11006170504203420540617000000000000000   10300001F05104100000000010542000000000000     
100   95050318057347910000000000001960000000001960002000000010410406170835460546531793570617000007348276   1020000200030000   333400010001204104000000281Myanmar Soft-Gate Tech Yangon        MMR11006170835460546530617000000000000000   10300001F05104100000000000412000000000000     
100   95050310332595380000000000000980000000000980002000000010410406170359582958877261600617000007345669   1020000200030000   333400010001204104000000281Myanmar Soft-Gate Tech Yangon        MMR11006170359582958870617000000000000000   10300001F05104100000000000206000000000000     
100   62911028202130710000000000032200000000032200002000000010410406171219070258224773800617000748627771   1030000200030000   541188001059000008000000314KBZ BANK               MARKETPLACE - MMR11006171219070258220617000000000000000   10300001 00104100000000001932000000000000     
100   95050317317598540000000000050000000000050000002000000010410406170022405240493404460617000007344587   1030000200030000   333800010001203104000003327KBZPay                 Yangon        MMR11006170022405240490617000000000000000   10300001F05104100000000010500000000000000     
100   62911028202103410000000000035000000000035000002000000010410406171138072872084773800617216818287208   1040001600030000   569120000926000000010000673Generation Concept Sto Ygn           MMR11006171138072872080617000000000000000   10300001F00104100000000002100000000000000     
100   62911028202221220000000000018250000000018250002000000010410406140822400005014773800614000748459815   1030000200030000   541188001288000008000001475KBZ BANK               CITY CARE STA MMR11006140822400005010614000000000000000   10300001 00104100000000001095000000000000     
100   95030305700676370000000000080000000000080000002000000010410406150946540076224773800615216609007622   1030000600030000   554100002141315799420001490DENKO MEIKHTILA 3      MANDALAY      MMR11006150946540076220615000000000000000   10300001 00104100000000002400000000000000     
100   95050312224678430000000000002940000000002940002000000010410406170346401640319964950617000007345532   1020000200030000   333400010001204104000000281Myanmar Soft-Gate Tech Yangon        MMR11006170346401640310617000000000000000   10300001F05104100000000000617000000000000     
100   95030356977005070000000000014000000000014000002000000010410406171010020008364773800617000748646676   1030000200030000   569988000806000008000004620KBZ BANK               STJ-BLAZON    MMR11006171010020008360617000000000000000   10300001 00104100000000000840000000000000     
100   95050323349421940000000000010000000000010000002000000010410406170430080008864637400617000007345984   1030000200030000   333800010001203104000003327KBZPay                 Yangon        MMR11006170430080008860617000000000000000   10300001F05104100000000002100000000000000     
100   62443100306416880000000000032300000000032300002000000010410406171715030172996446290617000748648696   1030000200030000   541188001061000008000000314KBZ BANK               MARKETPLACE - MMR11006171715030172990617000000000000000   10300001 00104100000000008075000000000000     
100   62443100306698200000000000097243000000097243002000000010410406171228460259503240210617000748628570   1030000200030000   541188001003000008000000008KBZ BANK               MARKETPLACE - MMR11006171228460259500617000000000000000   10300001 00104100000000024311000000000000     
100   95050327996244850000000000045000000000045000002000000010410406171131570157241829220617000007349543   1030000200030000   3338000100012031040000040022C2P (Myanmar) Co. Ltd Yangon        MMR11006171131570157240617000000000000000   10300001F05104100000000009450000000000000     
100   62911028202668140000000000074416000000074416002000000010410406171845520267554773800617000748652728   1030000200030000   541188001038000008000000010KBZ BANK               MARKETPLACE - MMR11006171845520267550617000000000000000   10300001 00104100000000004465000000000000     
100   62911028202440680000000000055700000000055700002000000010410406171823110206254773800617000748651716   1030000200030000   541188001080000008000000294KBZ BANK               CITY MART - J MMR11006171823110206250617000000000000000   10300001 00104100000000003342000000000000     
100   62911028202919290000000000040000000000040000002000000010410406151148240200984773800615216611020098   1030000600030000   554100002323315799420000474DENKO N.DAGON - 1      YANGON        MMR11006151148240200980615000000000000000   10300001 00104100000000001200000000000000     
100   62911028202161990000000000015000000000015000002000000010410406160946330010224773800616216716001022   1030000500030000   531120155805000045311201558GAMONE PWINT           PTN           MMR11006160946330010220616000000000000000   10300001 00104100000000000900000000000000     
100   62911028202074950000000000036050000000036050002000000010410406160352010008394773800616216710000839   1030000500030000   531120226301000045311202263OCEAN SUPER CENTER STJ PTN           MMR11006160352010008390616000000000000000   10300001 00104100000000002163000000000000     
100   62443100306416880000000000021767000000021767002000000010410406161320200038058021530616216719003805   1030000500030000   598320001601000015172200016MAX ENERGY             PTN           MMR11006161320200038050616000000000000000   10300001 00104100000000002612000000000000     
100   62911028202121560000000000033200000000033200002000000010410406161227230004534773800616216718000453   1030000500030000   571220140101000045712201401LOCK & LOCK            PTN           MMR11006161227230004530616000000000000000   10300001 00104100000000001992000000000000     
100   62911028202469800000000000096036000000096036002000000010410406160525530008074773800616216711000807   1030000500030000   531120226308000045311202263OCEAN SUPER CENTER STJ PTN           MMR11006160525530008070616000000000000000   10300001 00104100000000005762000000000000     
100   62911028202469800000000000028506000000028506002000000010410406160610340004184773800616216712000418   1030000500030000   531120226316000045311202263OCEAN SUPER CENTER STJ PTN           MMR11006160610340004180616000000000000000   10300001 00104100000000001710000000000000     
100   62443100313529540000000000010150000000010150002000000010410406161150430005655858460616216718000565   1030000500030000   541120230002000045411202300MARKET PLACE BY CITY M PTN           MMR11006161150430005650616000000000000000   10300001 00104100000000002538000000000000     
100   95050320335873810000000000000980000000000980002000000010410406171333320332115460790617000007350076   1020000200030000   333400010001204104000000281Myanmar Soft-Gate Tech Yangon        MMR11006171333320332110617000000000000000   10300001F05104100000000000206000000000000     
100   62911028202651050000000000006000000000006000002000000010410406171230110239414773800617000748628728   1030000200030000   541188001037000008000000010KBZ BANK               MARKETPLACE - MMR11006171230110239410617000000000000000   10300001 00104100000000000360000000000000     
100   95030308100010080000000000004900000000004900002000000010410406171438350835514773800617000007350316   1020000200030000   333400010001204104000000281Myanmar Soft-Gate Tech Yangon        MMR11006171438350835510617000000000000000   10300001F05104100000000001029000000000000     
100   62443101006526980000000000027170000000027170002000000010410406170040260040925298450617000748613608   1030000200030000   701188000996000008000004989KBZ BANK               EXCEL CRYSTAL MMR11006170040260040920617000000000000000   10300001 00104100000000011548000000000000     
100   95050311598146290000000000200000000000200000002000000010410406170835110511510055990617000007348286   1030000200030000   333800010001203104000003327KBZPay                 Yangon        MMR11006170835110511510617000000000000000   10300001F05104100000000042000000000000000     
100   95050314570621780000000000000980000000000980002000000010410406171438400840851900530617000007350318   1020000200030000   333400010001204104000000281Myanmar Soft-Gate Tech Yangon        MMR11006171438400840850617000000000000000   10300001F05104100000000000206000000000000     
100   62443100318296470000000000022450000000022450002000000010410406171107370102788027460617000748622105   1030000200030000   541188001022000008000000298KBZ BANK               CITY MART - M MMR11006171107370102780617000000000000000   10300001 00104100000000005613000000000000     
100   95050313441999020000000000010000000000010000002000000010410406162235540554046624330617000007344468   1030000200030000   333800010001203104000003327KBZPay                 Yangon        MMR11006162235540554040617000000000000000   10300001F05104100000000002100000000000000     
100   62911028202440680000000000032600000000032600002000000010410406160855410008214773800616216715000821   1030000500030000   531120226308000045311202263OCEAN SUPER CENTER STJ PTN           MMR11006160855410008210616000000000000000   10300001 00104100000000001956000000000000     
100   95050320531117320000000000234080000000234080002000000010410406160810240038117900780616216708003811   1030000600030000   554100002404315799420000480DENKO N.DAGON - 3      YANGON        MMR11006160810240038110616000000000000000   10300001 00104100000000028090000000000000     
100   62911028202440680000000000064790000000064790002000000010410406161121220002384773800616216717000238   1030000500030000   581220224901000085812202249TOKYO BBQ DINING MANPU PTN           MMR11006161121220002380616000000000000000   10300001 00104100000000006609000000000000     
100   62911028202170490000000000007150000000007150002000000010410406160655030004444773800616216713000444   1030000500030000   581220151701000015812201517TOM N TOM COFFEE SHOP  PTN           MMR11006160655030004440616000000000000000   10300001 00104100000000000729000000000000     
100   95030356977005070000000000890000000000890000002000000010410406160641300001114773800616216713000111   1030000500030000   573220014801000015732200148LG PANSODAN            PTN           MMR11006160641300001110616000000000000000   10300001 00104100000000053400000000000000     
100   62911028202446540000000000074100000000074100002000000010410406161202460004124773800616216718000412   1030000500030000   591220013401014405912200134SHWE OHH PHARMACY      PTN           MMR11006161202460004120616000000000000000   10300001 00104100000000004446000000000000     
100   62911028202147720000000000025000000000025000002000000010410406160025590037714773800616216706003771   1030000500030000   598320001603000015172200016MAX ENERGY             PTN           MMR11006160025590037710616000000000000000   10300001 00104100000000000750000000000000     
100   95050324154190880000000000014500000000014500002000000010410406161336120005381837070616000350603108   1030000300030000   581200001513000000000001062CB BANK                YKKO(BAHAN)   MMR11006161336120005380616000000000000000   10300001F00104100000000006163000000000000     
100   62443100393841160000000000300000000000300000002000000010410406170233540354557376410617000007344989   1030000200030000   333800010001203104000003327KBZPay                 Yangon        MMR11006170233540354550617000000000000000   10300001F05104100000000063000000000000000     
100   95050316067768680000000000000980000000000980002000000010410406171456452645314063590617000007350382   1020000200030000   333400010001204104000000281Myanmar Soft-Gate Tech Yangon        MMR11006171456452645310617000000000000000   10300001F05104100000000000206000000000000     
100   95050313732480420000000000004900000000004900002000000010410406170457062706521672820617000007346248   1020000200030000   333400010001204104000000281Myanmar Soft-Gate Tech Yangon        MMR11006170457062706520617000000000000000   10300001F05104100000000001029000000000000     
100   62911028202794110000000000020000000000020000002000000010410406170259292929964773800617000007345138   1030000200030000   333800010001203104000003327KBZPay                 Yangon        MMR11006170259292929960617000000000000000   10300001F05104100000000004200000000000000     
100   95050319928585020000000000001960000000001960002000000010410406171001533153654368330617000007349096   1020000200030000   333400010001204104000000281Myanmar Soft-Gate Tech Yangon        MMR11006171001533153650617000000000000000   10300001F05104100000000000412000000000000     
100   95050312498129060000000000004900000000004900002000000010410406170015394539945056940617000007344565   1020000200030000   333400010001204104000000281Myanmar Soft-Gate Tech Yangon        MMR11006170015394539940617000000000000000   10300001F05104100000000001029000000000000     
100   95050312498129060000000000001960000000001960002000000010410406171324135413912155820617000007350042   1020000200030000   333400010001204104000000281Myanmar Soft-Gate Tech Yangon        MMR11006171324135413910617000000000000000   10300001F05104100000000000412000000000000     
100   95050326155679180000000000005880000000005880002000000010410406170407413741625609120617000007345748   1020000200030000   333400010001204104000000281Myanmar Soft-Gate Tech Yangon        MMR11006170407413741620617000000000000000   10300001F05104100000000001235000000000000     
100   95050325388974590000000000010700000000010700002000000010410406160917120007100319130616216715000710   1030000500030000   541120227604000045411202276CITY MART ( 47 BRANCH  PTN           MMR11006160917120007100616000000000000000   10300001 00104100000000002675000000000000     
100   62911028202581260000000000420600000000420600002000000010410406161001150001294773800616216716000129   1030000500030000   594420080601000015944200806VJM (MP)               PTN           MMR11006161001150001290616000000000000000   10300001 00104100000000025236000000000000     
100   95050320559934420000000000021008000000021008002000000010410406160518490005142652380616216711000514   1030000500030000   541120230002000045411202300MARKET PLACE BY CITY M PTN           MMR11006160518490005140616000000000000000   10300001 00104100000000005252000000000000     
100   95050313640946520000000000020750000000020750002000000010410406161140150005617425860616216718000561   1030000500030000   541120229102000045411202291CITY MART YANKIN       PTN           MMR11006161140150005610616000000000000000   10300001 00104100000000005188000000000000     
100   95030389237176000000000000016600000000016600002000000010410406160813420013064773800616000350560937   1030000300030000   531100000975000000000000688CB BANK                CAPITAL SUPER MMR11006160813420013060616000000000000000   10300001F00104100000000000996000000000000     
100   95030380157605420000000000104000000000104000002000000010410406152341540002494773800616216706000249   1030000500030000   598320004102000015172200041MAX ENERGY             PTN           MMR11006152341540002490616000000000000000   10300001 00104100000000003120000000000000     
100   62911028202684060000000000016234000000016234002000000010410406160845350003134773800616216715000313   1030000500030000   531120226718000045311202267OCEAN NORTH POINT      PTN           MMR11006160845350003130616000000000000000   10300001 00104100000000000974000000000000     
100   62911028202423360000000000005000000000005000002000000010410406161152240004034773800616216718000403   1030000500030000   531120226738000045311202267OCEAN NORTH POINT      PTN           MMR11006161152240004030616000000000000000   10300001 00104100000000000300000000000000     
100   95030367537085740000000000000980000000000980002000000010410406170410264026694773800617000007345750   1020000200030000   333400010001204104000000281Myanmar Soft-Gate Tech Yangon        MMR11006170410264026690617000000000000000   10300001F05104100000000000206000000000000     
100   95050322954091830000000000300000000000300000002000000010410406170417104710986204790617000007345862   1030000200030000   333800010001203104000003327KBZPay                 Yangon        MMR11006170417104710980617000000000000000   10300001F05104100000000063000000000000000     
100   95050316438375580000000000050000000000050000002000000010410406170637480748910687320617000007347143   1030000200030000   333800010001203104000003327KBZPay                 Yangon        MMR11006170637480748910617000000000000000   10300001F05104100000000010500000000000000     
100   95030343892826500000000000050000000000050000002000000010410406171348331833864773800617000007350092   1030000200030000   333800010001203104000003327KBZPay                 Yangon        MMR11006171348331833860617000000000000000   10300001F05104100000000010500000000000000     
100   95050319379439060000000000001000000000001000002000000010410406170052442244407036020617000007344658   1030000200030000   333800010001203104000003327KBZPay                 Yangon        MMR11006170052442244400617000000000000000   10300001F05104100000000000210000000000000     
100   95050312618592720000000000040000000000040000002000000010410406171217114711510006550617000007349722   1030000200030000   333800010001203104000003327KBZPay                 Yangon        MMR11006171217114711510617000000000000000   10300001F05104100000000008400000000000000     
100   95050310427855490000000000004900000000004900002000000010410406171057342734586105900617000007349414   1020000200030000   333400010001204104000000281Myanmar Soft-Gate Tech Yangon        MMR11006171057342734580617000000000000000   10300001F05104100000000001029000000000000     
100   95050316818236190000000000000980000000000980002000000010410406171306333633910418240617000007349957   1020000200030000   333400010001204104000000281Myanmar Soft-Gate Tech Yangon        MMR11006171306333633910617000000000000000   10300001F05104100000000000206000000000000     
100   62911028202528710000000000050000000000050000002000000010410406152313480037644773800616216705003764   1030000500030000   598320001603000015172200016MAX ENERGY             PTN           MMR11006152313480037640616000000000000000   10300001 00104100000000001500000000000000     
100   62911028202593140000000000016950000000016950002000000010410406161248090003574773800616216719000357   1030000500030000   541120227502000045411202275CITY MART (AHLONE BRAN PTN           MMR11006161248090003570616000000000000000   10300001 00104100000000001017000000000000     
100   62911028202423360000000000028300000000028300002000000010410406161232170005854773800616216719000585   1030000500030000   531120226732000045311202267OCEAN NORTH POINT      PTN           MMR11006161232170005850616000000000000000   10300001 00104100000000001698000000000000     
100   62911028202260320000000000048620000000048620002000000010410406161111310007554773800616216717000755   1030000500030000   581220118401022605812201184DIY BBQ & HOT POT      PTN           MMR11006161111310007550616000000000000000   10300001 00104100000000004959000000000000     
100   62911028202795770000000000027200000000027200002000000010410406161420070001564773800616216720000156   1030000500030000   806220172409013008062201724GRAND HANTHA HOSPITAL  PTN           MMR11006161420070001560616000000000000000   10300001 00104100000000001632000000000000     
100   62911028202088990000000000030000000000030000002000000010410406160244030059444773800616216702005944   1030000600030000   554100001211315799420000663DENKO  TETKONE         TETKONE       MMR11006160244030059440616000000000000000   10300001 00104100000000000900000000000000     
100   95050311876202380000000000030000000000030000002000000010410406161232020377879503820616216712037787   1030000600030000   554100001155315799420000607DENKO NPT 1            NAYPYITAW.    MMR11006161232020377870616000000000000000   10300001 00104100000000003600000000000000     
100   62911028202197630000000000015000000000015000002000000010410406160610320071584773800616216712007158   1030000500030000   598320001903000015172200019MAX ENERGY             PTN           MMR11006160610320071580616000000000000000   10300001 00104100000000000450000000000000     
100   95050316785465380000000000000980000000000980002000000010410406170110504050012078570617000007344710   1020000200030000   333400010001204104000000281Myanmar Soft-Gate Tech Yangon        MMR11006170110504050010617000000000000000   10300001F05104100000000000206000000000000     
100   95050319006804440000000000001960000000001960002000000010410406171016424642507332910617000007349194   1020000200030000   333400010001204104000000281Myanmar Soft-Gate Tech Yangon        MMR11006171016424642500617000000000000000   10300001F05104100000000000412000000000000     
100   95050316321163940000000000000980000000000980002000000010410406170923315331295340040617000007348765   1020000200030000   333400010001204104000000281Myanmar Soft-Gate Tech Yangon        MMR11006170923315331290617000000000000000   10300001F05104100000000000206000000000000     
100   95050313123223200000000000000980000000000980002000000010410406170248141814336319600617000007345074   1020000200030000   333400010001204104000000281Myanmar Soft-Gate Tech Yangon        MMR11006170248141814330617000000000000000   10300001F05104100000000000206000000000000     
100   95050319978637470000000000001000000000001000002000000010410406171349271927240248040617000007350135   1030000200030000   3338000100012031040000040022C2P (Myanmar) Co. Ltd Yangon        MMR11006171349271927240617000000000000000   10300001F05104100000000000210000000000000     
100   95050323233042810000000000000980000000000980002000000010410406170552142214298197660617000007346747   1020000200030000   333400010001204104000000281Myanmar Soft-Gate Tech Yangon        MMR11006170552142214290617000000000000000   10300001F05104100000000000206000000000000     
100   95050312139901420000000000000980000000000980002000000010410406162351332133021751980617000007344536   1020000200030000   333400010001204104000000281Myanmar Soft-Gate Tech Yangon        MMR11006162351332133020617000000000000000   10300001F05104100000000000206000000000000     
100   95050316067768680000000000000980000000000980002000000010410406171458292829092411110617000007350387   1020000200030000   333400010001204104000000281Myanmar Soft-Gate Tech Yangon        MMR11006171458292829090617000000000000000   10300001F05104100000000000206000000000000     
100   62443100333488440000000000020003000000020003002000000010410406160242160052714178400616216709005271   1030000500030000   598320001303000015172200013MAX ENERGY             PTN           MMR11006160242160052710616000000000000000   10300001 00104100000000002400000000000000     
100   62911028202204490000000000040000000000040000002000000010410406160938510274064773800616216709027406   1030000600030000   554100002085315799420000471DENKO BAHAN            YANGON        MMR11006160938510274060616000000000000000   10300001 00104100000000001200000000000000     
100   62443100318296470000000000043002000000043002002000000010410406160702590052983928830616216713005298   1030000500030000   598320001301000015172200013MAX ENERGY             PTN           MMR11006160702590052980616000000000000000   10300001 00104100000000005160000000000000     
100   95050324826664210000000000065000000000065000002000000010410406160423090054614128960616216710005461   1030000500030000   598320001402000015172200014MAX ENERGY             PTN           MMR11006160423090054610616000000000000000   10300001 00104100000000007800000000000000     
100   62911028202665170000000000082000000000082000002000000010410406160105550051964773800616216707005196   1030000500030000   598320001203000015172200012MAX ENERGY             PTN           MMR11006160105550051960616000000000000000   10300001 00104100000000002460000000000000     
100   95050326689257240000000000038500000000038500002000000010410406161230210242286198850616000350595229   1030000300030000   531100000794000000000000540CB BANK                CAPITAL SUPER MMR11006161230210242280616000000000000000   10300001F00104100000000009240000000000000     
100   62911028202709150000000000025000000000025000002000000010410406160034070111184773800616216700011118   1030000600030000   554100001218315799420000670DENKO MAWLAMYAING      MON STATE.    MMR11006160034070111180616000000000000000   10300001 00104100000000000750000000000000     
100   62443100306028540000000000021000000000021000002000000010410406161215270274567851330616216712027456   1030000600030000   554100002085315799420000471DENKO BAHAN            YANGON        MMR11006161215270274560616000000000000000   10300001 00104100000000002520000000000000     
100   95050322312885760000000000012000000000012000002000000010410406170819484948098658790617000007348130   1030000200030000   333800010001203104000003327KBZPay                 Yangon        MMR11006170819484948090617000000000000000   10300001F05104100000000002520000000000000     
100   62443100344229520000000000007410000000007410002000000010410406170710505474552850380617273401350167   1030000900030000   541119001247190110000000955City Mart JS C 6       YANGONUT      MMR11006170710505474550617000000000000000   10300001F00104100000000001853000000000000     
100   95030367537085740000000000000980000000000980002000000010410406170353172317864773800617000007345591   1020000200030000   333400010001204104000000281Myanmar Soft-Gate Tech Yangon        MMR11006170353172317860617000000000000000   10300001F05104100000000000206000000000000     
100   62911028202416760000000000100000000000100000002000000010410406170633152670114773800617216813267011   1040001600030000   598320001170000000010000527Shwe Taung Energy (YGN Yangon        MMR11006170633152670110617000000000000000   10300001F00104100000000003000000000000000     
100   95050322312885760000000000003000000000003000002000000010410406170307183718841702530617000007345189   1030000200030000   333800010001203104000003327KBZPay                 Yangon        MMR11006170307183718840617000000000000000   10300001F05104100000000000630000000000000     
100   95050312360118350000000000001000000000001000002000000010410406170716174617885814960617000007347512   1030000200030000   3334000100012031040000040102C2P (Myanmar) Co. Ltd Yangon        MMR11006170716174617880617000000000000000   10300001F05104100000000000210000000000000     
100   95050322954091830000000000015500000000015500002000000010410406170420215021754552300617000007345897   1030000200030000   333800010001203104000003327KBZPay                 Yangon        MMR11006170420215021750617000000000000000   10300001F05104100000000003255000000000000     
100   62911028202527490000000000037000000000037000002000000010410406170352395424154773800617789221039167   1030000900030000   554119001101190110000000213New Day Energy SOK     YANGONOKKALAP MMR11006170352395424150617000000000000000   10300001F00104100000000001110000000000000     
100   62443100303702210000000000109000000000109000002000000010410406161113120442482042920616216711044248   1030000600030000   554100001009315799420000504DENKO SOUTH DAGON      YANGON        MMR11006161113120442480616000000000000000   10300001 00104100000000013080000000000000     
100   95050321232876860000000000087600000000087600002000000010410406160315340145672951400616216703014567   1030000600030000   554100002328315799420001235DENKO NAY PYI TAW 2    NAYPYITAW     MMR11006160315340145670616000000000000000   10300001 00104100000000010512000000000000     
100   95050324154190880000000000018000000000018000002000000010410406161303010053456283950616216719005345   1030000500030000   598320001301000015172200013MAX ENERGY             PTN           MMR11006161303010053450616000000000000000   10300001 00104100000000002160000000000000     
100   95050327936713000000000000050000000000050000002000000010410406171242411241811985630617000007349855   1030000200030000   333800010001203104000003327KBZPay                 Yangon        MMR11006171242411241810617000000000000000   10300001F05104100000000010500000000000000     
100   95050318057347910000000000005000000000005000002000000010410406170243561356934071440617000007345043   1030000200030000   3338000100012031040000040022C2P (Myanmar) Co. Ltd Yangon        MMR11006170243561356930617000000000000000   10300001F05104100000000001050000000000000     
100   95050312360118350000000000001000000000001000002000000010410406171201153115138268970617000007349677   1030000200030000   3334000100012031040000040102C2P (Myanmar) Co. Ltd Yangon        MMR11006171201153115130617000000000000000   10300001F05104100000000000210000000000000     
100   95050311712422700000000000101500000000101500002000000010410406171605263526245886270617000007350597   1030000200030000   333800010001203104000003327KBZPay                 Yangon        MMR11006171605263526240617000000000000000   10300001F05104100000000021315000000000000     
100   95050322312885760000000000003000000000003000002000000010410406170443041304386034600617000007346096   1030000200030000   333800010001203104000003327KBZPay                 Yangon        MMR11006170443041304380617000000000000000   10300001F05104100000000000630000000000000     
100   95050315615561720000000000000980000000000980002000000010410406170945391539100893160617000007348960   1020000200030000   333400010001204104000000281Myanmar Soft-Gate Tech Yangon        MMR11006170945391539100617000000000000000   10300001F05104100000000000206000000000000     
100   95050318131043910000000000004900000000004900002000000010410406171054072407148183870617000007349400   1020000200030000   333400010001204104000000281Myanmar Soft-Gate Tech Yangon        MMR11006171054072407140617000000000000000   10300001F05104100000000001029000000000000     
100   62911028202132460000000000018500000000018500002000000010410406171141462875744773800617216818287574   1040001600030000   591220000265000000010000253Shwe Ohh Pharmacy (Yay Yangon        MMR11006171141462875740617000000000000000   10300001F00104100000000001110000000000000     
100   95050313968650950000000000014700000000014700002000000010410406171308153815038765760617000007349964   1020000200030000   333400010001204104000000281Myanmar Soft-Gate Tech Yangon        MMR11006171308153815030617000000000000000   10300001F05104100000000003087000000000000     
100   95050319938772870000000000020000000000020000002000000010410406170621195119753580590617000007347011   1030000200030000   333800010001203104000003327KBZPay                 Yangon        MMR11006170621195119750617000000000000000   10300001F05104100000000004200000000000000     
100   95050324250133010000000000121000000000121000002000000010410406171136432870806786670617216818287080   1040001600030000   598320000911000000010000662MMTM - Tamwe           Ygn           MMR11006171136432870800617000000000000000   10300001F00104100000000014520000000000000     
100   95050312224678430000000000002940000000002940002000000010410406171215314531316701580617000007349718   1020000200030000   333400010001204104000000281Myanmar Soft-Gate Tech Yangon        MMR11006171215314531310617000000000000000   10300001F05104100000000000617000000000000     
100   95050312240830690000000000002940000000002940002000000010410406171513004300804148690617000007350425   1020000200030000   333400010001204104000000281Myanmar Soft-Gate Tech Yangon        MMR11006171513004300800617000000000000000   10300001F05104100000000000617000000000000     
100   95050313441999020000000000010500000000010500002000000010410406162237390739858361910617000007344469   1030000200030000   333800010001203104000003327KBZPay                 Yangon        MMR11006162237390739850617000000000000000   10300001F05104100000000002205000000000000     
100   95050314692738880000000000001960000000001960002000000010410406170851432143090467680617000007348447   1020000200030000   333400010001204104000000281Myanmar Soft-Gate Tech Yangon        MMR11006170851432143090617000000000000000   10300001F05104100000000000412000000000000     
100   95050310281229490000000000040121000000040121002000000010410406171301183118145375690617000007349939   1030000200030000   333800010001203104000003327KBZPay                 Yangon        MMR11006171301183118140617000000000000000   10300001F05104100000000008426000000000000     
100   95050316818236190000000000000980000000000980002000000010410406171301193119280333140617000007349938   1020000200030000   333400010001204104000000281Myanmar Soft-Gate Tech Yangon        MMR11006171301193119280617000000000000000   10300001F05104100000000000206000000000000     
100   62911028202752520000000000062000000000062000002000000010410406170328482569584773800617216810256958   1040001600030000   598320000660000000010000529Shwe Taung Energy (NPT Naypyitaw     MMR11006170328482569580617000000000000000   10300001F00104100000000001860000000000000     
100   62911028202542080000000000041278000000041278002000000010410406171103422838284773800617216818283828   1040001600030000   541120000555000000010000465Ocean Shwe Gone Daing  Yangon        MMR11006171103422838280617000000000000000   10300001F00104100000000002477000000000000     
100   62911028202103410000000000028000000000028000002000000010410406171219252913364773800617216819291336   1040001600030000   569120000925000000010000672Generation Concept Sto Ygn           MMR11006171219252913360617000000000000000   10300001F00104100000000001680000000000000     
100   95050317041521450000000000017534000000017534002000000010410406170536075450903155110617074061207167   1030000900030000   541119001514190110000001102Ocean MGDTM C-7        YANGONADON    MMR11006170536075450900617000000000000000   10300001F00104100000000004384000000000000     
100   95050319156011610000000000000980000000000980002000000010410406171454412441180758630617000007350376   1020000200030000   333400010001204104000000281Myanmar Soft-Gate Tech Yangon        MMR11006171454412441180617000000000000000   10300001F05104100000000000206000000000000     
100   95050316949180000000000000005880000000005880002000000010410406171456442644689106140617000007350383   1020000200030000   333400010001204104000000281Myanmar Soft-Gate Tech Yangon        MMR11006171456442644680617000000000000000   10300001F05104100000000001235000000000000     
100   95030367537085740000000000000980000000000980002000000010410406162318474847754773800617000007344500   1020000200030000   333400010001204104000000281Myanmar Soft-Gate Tech Yangon        MMR11006162318474847750617000000000000000   10300001F05104100000000000206000000000000     
100   62911028202916630000000000075000000000075000002000000010410406171318114811944773800617000007350016   1030000200030000   333800010001203104000003327KBZPay                 Yangon        MMR11006171318114811940617000000000000000   10300001F05104100000000015750000000000000     
100   62911028202472440000000000045000000000045000002000000010410406170644232676094773800617216813267609   1040001600030000   598320000658000000010000527Shwe Taung Energy (YGN Yangon        MMR11006170644232676090617000000000000000   10300001F00104100000000001350000000000000     
100   95030349489765520000000000036400000000036400002000000010410406171055242830024773800617216817283002   1040001600030000   591220000295000000010000283Shwe Ohh Pharmacy (39t Yangon        MMR11006171055242830020617000000000000000   10300001F00104100000000002184000000000000     
100   62443100325551180000000000050000000000050000002000000010410406171137482871845134190617216818287184   1040001600030000   598320001059000000010000780Yangon Petrol (Tharket Ygn           MMR11006171137482871840617000000000000000   10300001F00104100000000006000000000000000     
100   95050310281229490000000000040121000000040121002000000010410406171303093309318680660617000007349944   1030000200030000   333800010001203104000003327KBZPay                 Yangon        MMR11006171303093309310617000000000000000   10300001F05104100000000008426000000000000     
100   95050311836400730000000000000980000000000980002000000010410406171217274727778354060617000007349721   1020000200030000   333400010001204104000000281Myanmar Soft-Gate Tech Yangon        MMR11006171217274727770617000000000000000   10300001F05104100000000000206000000000000     
100   62911028202169750000000000006500000000006500002000000010410406170900172743994773800617216816274399   1040001600030000   541120000584000000010000465Ocean Shwe Gone Daing  Yangon        MMR11006170900172743990617000000000000000   10300001F00104100000000000390000000000000     
100   95050310457113440000000000025000000000025000002000000010410406171348281828585205500617000007350131   1030000200030000   333800010001203104000003327KBZPay                 Yangon        MMR11006171348281828580617000000000000000   10300001F05104100000000005250000000000000     
100   95050319974529540000000000030000000000030000002000000010410406171526505650237453650617000007350479   1030000200030000   333800010001203104000003327KBZPay                 Yangon        MMR11006171526505650230617000000000000000   10300001F05104100000000006300000000000000     
100   62911028202703370000000000040000000000040000002000000010410406171036365528014773800617215061736167   1030000900030000   581319000844190110000000659Beer Vibe              YANGONUNG     MMR11006171036365528010617000000000000000   10300001F00104100000000004080000000000000     
100   62911028202280200000000000036200000000036200002000000010410406171105125537174773800617787351712167   1030000900030000   541119001244190110000000955City Mart JS C 3       YANGONUT      MMR11006171105125537170617000000000000000   10300001F00104100000000002172000000000000     
100   62911028202099390000000000040000000000040000002000000010410406170809105489374773800617065391410167   1030000900030000   554119000348190110000000215New Day Energy MYG     YANGONONE     MMR11006170809105489370617000000000000000   10300001F00104100000000001200000000000000     
100   62911028202243590000000000004000000000004000002000000010410406170844195498144773800617537141519167   1030000900030000   541119001273190110000000960City Mart PLST Season  YANGONMYOTHIT MMR11006170844195498140617000000000000000   10300001F00104100000000000240000000000000     
100   62911028202792960000000000068000000000068000002000000010410406161024130037544773800616216716003754   1030000500030000   598320001604000015172200016MAX ENERGY             PTN           MMR11006161024130037540616000000000000000   10300001 00104100000000002040000000000000     
100   62443100317500820000000000025000000000025000002000000010410406170429155915941247340617000007345978   1030000200030000   333800010001203104000003327KBZPay                 Yangon        MMR11006170429155915940617000000000000000   10300001F05104100000000005250000000000000     
100   95050317621139300000000000020484000000020484002000000010410406171206185552084964000617606361818167   1030000900030000   541119001330190110000000971Ocean Junction NPT C 8 NAYPYITAW     MMR11006171206185552080617000000000000000   10300001F00104100000000005121000000000000     
100   62443100303702210000000000067000000000067000002000000010410406150247340183365561810615216602018336   1030000600030000   554100002320315799420000564DENKO PHYUU            PHYUU         MMR11006150247340183360615000000000000000   10300001 00104100000000008040000000000000     
100   62911028202243590000000000022300000000022300002000000010410406170919115506264773800617944491511167   1030000900030000   541119001264190110000000958City Mart PLST C 7     YANGONMYOTHIT MMR11006170919115506260617000000000000000   10300001F00104100000000001338000000000000     
100   62911028202243590000000000002000000000002000002000000010410406170925565508144773800617047551556167   1030000900030000   541119001273190110000000960City Mart PLST Season  YANGONMYOTHIT MMR11006170925565508140617000000000000000   10300001F00104100000000000120000000000000     
100   62911028202919290000000000039179000000039179002000000010410406171031525526444773800617118011752167   1030000900030000   541119001514190110000001102Ocean MGDTM C-7        YANGONADON    MMR11006171031525526440617000000000000000   10300001F00104100000000002351000000000000     
100   62911028202469800000000000074000000000074000002000000010410406160540270004534773800616216712000453   1030000500030000   531120226326000045311202263OCEAN SUPER CENTER STJ PTN           MMR11006160540270004530616000000000000000   10300001 00104100000000004440000000000000     
100   95050329734064360000000000030000000000030000002000000010410406161117560049002723690616216717004900   1030000500030000   598320001202000015172200012MAX ENERGY             PTN           MMR11006161117560049000616000000000000000   10300001 00104100000000003600000000000000     
100   95030303100034700000000000071000000000071000002000000010410406170838575496744773800617463081557167   1030000900030000   541119000882190110000000084Pro (1) Global (Pazund YANGONARTAUNG MMR11006170838575496740617000000000000000   10300001F00104100000000004260000000000000     
100   95050311959900780000000000000980000000000980002000000010410406171325095509087113270617000007350047   1020000200030000   333400010001204104000000281Myanmar Soft-Gate Tech Yangon        MMR11006171325095509080617000000000000000   10300001F05104100000000000206000000000000     
100   95050312940629360000000000028000000000028000002000000010410406170425175517847857270617000007345946   1030000200030000   333800010001203104000003327KBZPay                 Yangon        MMR11006170425175517840617000000000000000   10300001F05104100000000005880000000000000     
100   95030310098554020000000000150000000000150000002000000010410406160912480062034773800616000350568736   1030000300030000   806200000192000000000000097CB BANK                AUNG YADANA H MMR11006160912480062030616000000000000000   10300001F00104100000000009000000000000000     
100   62443100350052510000000000828000000000828000002000000010410406160953100001578496450616000350574201   1030000300030000   806200001235000000000000838CB BANK                INTERNATIONAL MMR11006160953100001570616000000000000000   10300001F00104100000000198720000000000000     
100   95030301100022270000000000010000000000010000002000000010410406171037575528394773800617241071757167   1030000900030000   554119001037190110000000842Puma Power(BBIBB)      MONON         MMR11006171037575528390617000000000000000   10300001F00104100000000000300000000000000     
100   95050312695033440000000000003920000000003920002000000010410406170627355735610602220617000007347054   1020000200030000   333400010001204104000000281Myanmar Soft-Gate Tech Yangon        MMR11006170627355735610617000000000000000   10300001F05104100000000000823000000000000     
100   62911028202170490000000000009950000000009950002000000010410406160652370004434773800616216713000443   1030000500030000   581220151701000015812201517TOM N TOM COFFEE SHOP  PTN           MMR11006160652370004430616000000000000000   10300001 00104100000000001015000000000000     
100   95050322990383760000000000014000000000014000002000000010410406161029540000695603170616216710000069   1030000600030000   591200002215315799420001560365 PHARMACY 3         YANGON        MMR11006161029540000690616000000000000000   10300001 00104100000000003360000000000000     
100   62443100330048680000000000050000000000050000002000000010410406160346320047402937610616216710004740   1030000500030000   598320001101000015172200011MAX ENERGY             PTN           MMR11006160346320047400616000000000000000   10300001 00104100000000006000000000000000     
100   62911028202003590000000000001155000000001155002000000010410406171537266141534773800617072650618533   1040001400030000   581210000327025812100002201Kanote Rooftop Bar Kan te Rooftop Ba MMR11006171537266141530617000000000000000   10300001 00104100000000000118000000000000     
100   62443100369813440000000000030000000000030000002000000010410406160816100053066248290616216714005306   1030000500030000   598320001301000015172200013MAX ENERGY             PTN           MMR11006160816100053060616000000000000000   10300001 00104100000000003600000000000000     
100   62443100318296470000000000038000000000038000002000000010410406170425182594489509760617216811259448   1040001600030000   598320000658000000010000527Shwe Taung Energy (YGN Yangon        MMR11006170425182594480617000000000000000   10300001F00104100000000004560000000000000     
100   95050314557307430000000000002940000000002940002000000010410406170903043304888559910617000007348583   1020000200030000   333400010001204104000000281Myanmar Soft-Gate Tech Yangon        MMR11006170903043304880617000000000000000   10300001F05104100000000000617000000000000     
100   62911028202214050000000000300000000000300000002000000010410406160417580000204773800616216710000020   1030000500030000   541120203710000015411202037CITY MART SUPERMARKET  PTN           MMR11006160417580000200616000000000000000   10300001 00104100000000018000000000000000     
100   62911028202045260000000000005000000000005000002000000010410406160921380001114773800616216715000111   1030000500030000   541120234101000045411202341CITY EXPRESS (MCS - 58 PTN           MMR11006160921380001110616000000000000000   10300001 00104100000000000300000000000000     
100   62911028202221220000000000010000000000010000002000000010410406160210130036994773800616216708003699   1030000500030000   598320001601000015172200016MAX ENERGY             PTN           MMR11006160210130036990616000000000000000   10300001 00104100000000000300000000000000     
100   95050320531117320000000000300000000000300000002000000010410406160756140557491120650616216707055749   1030000600030000   554100001756315799420001137DENKO NORTH DAGON 2    YANGON        MMR11006160756140557490616000000000000000   10300001 00104100000000036000000000000000     
100   95050321455580800000000000028134000000028134002000000010410406170642565468094077380617969121356167   1030000900030000   541119001233190110000000951Marketplace KTY C 3    YANGONARTAUNG MMR11006170642565468090617000000000000000   10300001F00104100000000007034000000000000     
100   62443100373105840000000000100000000000100000002000000010410406170245111511822929530617000007345050   1030000200030000   333800010001203104000003327KBZPay                 Yangon        MMR11006170245111511820617000000000000000   10300001F05104100000000021000000000000000     
100   95050317100052460000000000004000000000004000002000000010410406170658082808570432030617000007347340   1030000200030000   333800010001203104000003327KBZPay                 Yangon        MMR11006170658082808570617000000000000000   10300001F05104100000000000840000000000000     
100   95050310332595380000000000000980000000000980002000000010410406170208563856703560860617000007344912   1020000200030000   333400010001204104000000281Myanmar Soft-Gate Tech Yangon        MMR11006170208563856700617000000000000000   10300001F05104100000000000206000000000000     
100   62911028202473840000000000016050000000016050002000000010410406171411440126394773800617000748637286   1030000200030000   541188001081000008000000294KBZ BANK               CITY MART - J MMR11006171411440126390617000000000000000   10300001 00104100000000000963000000000000     
100   95050313843656520000000000000980000000000980002000000010410406170312244224855092600617000007345214   1020000200030000   333400010001204104000000281Myanmar Soft-Gate Tech Yangon        MMR11006170312244224850617000000000000000   10300001F05104100000000000206000000000000     
100   62911028202471860000000000033000000000033000002000000010410406170613512658934773800617216813265893   1040001600030000   598320001059000000010000780Yangon Petrol (Tharket Ygn           MMR11006170613512658930617000000000000000   10300001F00104100000000000990000000000000     
100   95050315166583130000000000015000000000015000002000000010410406171218444844520091640617000007349731   1030000200030000   333800010001203104000003327KBZPay                 Yangon        MMR11006171218444844520617000000000000000   10300001F05104100000000003150000000000000     
