100   95050328866468050000000000104000000000104000002000000010410406190623440007798977320619000748715703   1030000200030000   509488002505000008000006703KBZ BANK               SHWE SAN EAIN MMR11006190623440007790619000000000000000   10300001 00104100000000041600000000000000     
100   95030301100319290000000000004900000000004900002000000010410406190730110011804773800619000007356312   1020000200030000   333400010001204104000000281Myanmar Soft-Gate Tech Yangon        MMR11006190730110011800619000000000000000   10300001F05104100000000001029000000000000     
100   95050320093758110000000000010100000000010100002000000010410406191750300010282456890619000748729867   1030000200030000   541188001361000008000000395KBZ BANK               OCEAN SUPERMA MMR11006191750300010280619000000000000000   10300001 00104100000000002525000000000000     
100   62911028202442250000000000063500000000063500002000000010410406190919480002794773800619000748723693   1030000200030000   569988000890000008000004816KBZ BANK               BIO.BSX (NTW) MMR11006190919480002790619000000000000000   10300001 00104100000000003810000000000000     
100   95030374458345210000000000012000000000012000002000000010410406191513130023574773800619000748721998   1030000200030000   541188001029000008000000298KBZ BANK               CITY MART - M MMR11006191513130023570619000000000000000   10300001 00104100000000000720000000000000     
100   95050314100797310000000000029150000000029150002000000010410406191623550080158502390619000748725357   1030000200030000   541188001317000008000000306KBZ BANK               CITY MART - S MMR11006191623550080150619000000000000000   10300001 00104100000000007288000000000000     
100   95050321057500320000000000014600000000014600002000000010410406191040250023280069780619000748727733   1030000200030000   581288000671000008000004115KBZ BANK               MIN LANN REST MMR11006191040250023280619000000000000000   10300001 00104100000000006205000000000000     
100   62443100381661260000000000009100000000009100002000000010410406191211580044980885090619000748714152   1030000200030000   541188001066000008000000314KBZ BANK               MARKETPLACE - MMR11006191211580044980619000000000000000   10300001 00104100000000002275000000000000     
100   62911028202446130000000000003800000000003800002000000010410406191052336015774773800619994221733169   1030000900030000   581219000931190110000000740Shwe Palin City Mall   YANGONAW      MMR11006191052336015770619000000000000000   10300001F00104100000000000388000000000000     
100   95030310098554020000000000021000000000021000002000000010410406170226140005584773800617216808000558   1030000500030000   591220020501005105912200205MINGALAR PHARMACY      PTN           MMR11006170226140005580617000000000000000   10300001 00104100000000001260000000000000     
100   62443100300743690000000000007600000000007600002000000010410406191314046051419881410619198441904169   1030000900030000   541119001213190110000000949City Mart YK Season C  YANGONAUNG    MMR11006191314046051410619000000000000000   10300001F00104100000000001900000000000000     
100   95050324104751500000000000068050000000068050002000000010410406181059010007737118980618216917000773   1030000500030000   541120227605000045411202276CITY MART ( 47 BRANCH  PTN           MMR11006181059010007730618000000000000000   10300001 00104100000000017013000000000000     
100   62911028202906570000000000026500000000026500002000000010410406180431010001834773800618216911000183   1030000500030000   566120038101016505661200381RIPPLE FLIPFLOPS       PTN           MMR11006180431010001830618000000000000000   10300001 00104100000000001590000000000000     
100   62911028202198620000000000096000000000096000002000000010410406191142216029944773800619917121821169   1030000900030000   554119000347190110000000214New Day Energy MTN     YANGONARTAUNG MMR11006191142216029940619000000000000000   10300001F00104100000000002880000000000000     
100   95050315099113150000000000000980000000000980002000000010410406191118284828939407180619000007357198   1020000200030000   333400010001204104000000281Myanmar Soft-Gate Tech Yangon        MMR11006191118284828930619000000000000000   10300001F05104100000000000206000000000000     
100   62911028202312890000000000043002000000043002002000000010410406180632210056324773800618216913005632   1030000500030000   598320001204000015172200012MAX ENERGY             PTN           MMR11006180632210056320618000000000000000   10300001 00104100000000001290000000000000     
100   95030374458345210000000000048950000000048950002000000010410406191505220045404773800619000748721586   1030000200030000   541188001021000008000000298KBZ BANK               CITY MART - M MMR11006191505220045400619000000000000000   10300001 00104100000000002937000000000000     
100   62911028202130710000000000002800000000002800002000000010410406191732440183654773800619000748728993   1030000200030000   541188001305000008000000325KBZ BANK               CITY MART - A MMR11006191732440183650619000000000000000   10300001 00104100000000000168000000000000     
100   95050315752234130000000000035505000000035505002000000010410406191237290037228892220619000748715116   1030000200030000   541188001454000008000000391KBZ BANK               OCEAN SUPER C MMR11006191237290037220619000000000000000   10300001 00104100000000008877000000000000     
100   95050319928585020000000000001000000000001000002000000010410406191232420242545506560619000007357463   1030000200030000   3338000100012031040000040022C2P (Myanmar) Co. Ltd Yangon        MMR11006191232420242540619000000000000000   10300001F05104100000000000210000000000000     
100   62443100355903280000000000015500000000015500002000000010410406191606190037359559200619000748724485   1030000200030000   541188001454000008000000391KBZ BANK               OCEAN SUPER C MMR11006191606190037350619000000000000000   10300001 00104100000000003875000000000000     
100   95050312595952760000000000014700000000014700002000000010410406181830500050557615770619000007354682   1020000200030000   333400010001204104000000281Myanmar Soft-Gate Tech Yangon        MMR11006181830500050550619000000000000000   10300001F05104100000000003087000000000000     
100   62443100311760720000000000026500000000026500002000000010410406190836070025493034360619000748721609   1030000200030000   599988000599000008000003436KBZ BANK               SWEETY HOME ( MMR11006190836070025490619000000000000000   10300001 00104100000000006360000000000000     
100   95050319286546940000000000033395000000033395002000000010410406190948060164333083800619000748708770   1030000200030000   541188001242000008000000323KBZ BANK               CITY MART - I MMR11006190948060164330619000000000000000   10300001 00104100000000008349000000000000     
100   95050310427855490000000000002940000000002940002000000010410406191114584458765452710619000007357191   1020000200030000   333400010001204104000000281Myanmar Soft-Gate Tech Yangon        MMR11006191114584458760619000000000000000   10300001F05104100000000000617000000000000     
100   95050315250339200000000000000980000000000980002000000010410406190203543354094991570619000007355044   1020000200030000   333400010001204104000000281Myanmar Soft-Gate Tech Yangon        MMR11006190203543354090619000000000000000   10300001F05104100000000000206000000000000     
100   62911028202446540000000000027000000000027000002000000010410406180040410055714773800618216907005571   1030000500030000   598320001204000015172200012MAX ENERGY             PTN           MMR11006180040410055710618000000000000000   10300001 00104100000000000810000000000000     
100   62443101007477200000000000028500000000028500002000000010410406181003100012804445340618216916001280   1030000500030000   599520213801000085995202138NPT PET MART GROUP     PTN           MMR11006181003100012800618000000000000000   10300001 00104100000000006840000000000000     
100   62911028202248050000000000088365000000088365002000000010410406180959000002484773800618216916000248   1030000500030000   531120231207000045311202312OCEAN OATTARA THIRI    PTN           MMR11006180959000002480618000000000000000   10300001 00104100000000005302000000000000     
100   95050328384000040000000000013400000000013400002000000010410406180546100004488777250618216912000448   1030000500030000   541120226814000045411202268CITY MART WAIZAYANDA   PTN           MMR11006180546100004480618000000000000000   10300001 00104100000000003350000000000000     
100   95050326094581320000000000014000000000014000002000000010410406180312280005287708940618216909000528   1030000500030000   569120104101008205691201041ESCORT (TERMINAL M)    PTN           MMR11006180312280005280618000000000000000   10300001 00104100000000003360000000000000     
100   62911028202045260000000000014500000000014500002000000010410406181017010005974773800618216916000597   1030000500030000   541120203704000015411202037CITY MART SUPERMARKET  PTN           MMR11006181017010005970618000000000000000   10300001 00104100000000000870000000000000     
100   95050319286546940000000000041158000000041158002000000010410406190950230164341431320619000748708815   1030000200030000   541188001242000008000000323KBZ BANK               CITY MART - I MMR11006190950230164340619000000000000000   10300001 00104100000000010290000000000000     
100   95050314950595330000000000001000000000001000002000000010410406190430240024458722030619000007355566   1030000200030000   3338000100012031040000040022C2P (Myanmar) Co. Ltd Yangon        MMR11006190430240024450619000000000000000   10300001F05104100000000000210000000000000     
100   95030327835334700000000000046000000000046000002000000010410406191309210164444773800619000748716344   1030000200030000   541188001242000008000000323KBZ BANK               CITY MART - I MMR11006191309210164440619000000000000000   10300001 00104100000000002760000000000000     
100   95050312554086980000000000018900000000018900002000000010410406191232440147535587250619000748714955   1030000200030000   541188001244000008000000323KBZ BANK               CITY MART - I MMR11006191232440147530619000000000000000   10300001 00104100000000004725000000000000     
100   62911028202792960000000000002400000000002400002000000010410406191550470021164773800619000748723742   1030000200030000   541188001311000008000000325KBZ BANK               CITY MART - A MMR11006191550470021160619000000000000000   10300001 00104100000000000144000000000000     
100   95050314692738880000000000001960000000001960002000000010410406191332560256544136440619000007357675   1020000200030000   333400010001204104000000281Myanmar Soft-Gate Tech Yangon        MMR11006191332560256540619000000000000000   10300001F05104100000000000412000000000000     
100   95050312224678430000000000000980000000000980002000000010410406190233430343624651190619000007355161   1020000200030000   333400010001204104000000281Myanmar Soft-Gate Tech Yangon        MMR11006190233430343620619000000000000000   10300001F05104100000000000206000000000000     
100   95030301100319290000000000005000000000005000002000000010410406190734090409084773800619000007356325   1030000200030000   333800010001203104000003327KBZPay                 Yangon        MMR11006190734090409080619000000000000000   10300001F05104100000000001050000000000000     
100   62911028202150190000000000022000000000022000002000000010410406180944450011924773800618216916001192   1030000500030000   581220216201000085812202162ASTONS                 PTN           MMR11006180944450011920618000000000000000   10300001 00104100000000002244000000000000     
100   62443101076362230000000000051300000000051300002000000010410406180811320013768492050618000350894198   1030000300030000   581200001812000000000001296CB BANK                SP BAKERY (YA MMR11006180811320013760618000000000000000   10300001F00104100000000021803000000000000     
100   62443101076362230000000000011532000000011532002000000010410406180816570013781967180618000350894919   1030000300030000   581200001812000000000001296CB BANK                SP BAKERY (YA MMR11006180816570013780618000000000000000   10300001F00104100000000004901000000000000     
100   62911028202223200000000000071500000000071500002000000010410406181312460002214773800618216919000221   1030000500030000   581320156901000015813201569ACTIVE BAR             PTN           MMR11006181312460002210618000000000000000   10300001 00104100000000007293000000000000     
100   95050317413015720000000000034000000000034000002000000010410406180331550001908389710618216910000190   1030000500030000   569120038701008205691200387ESCORT                 PTN           MMR11006180331550001900618000000000000000   10300001 00104100000000008160000000000000     
100   62443100308973140000000000066915000000066915002000000010410406180516180003812606570618216911000381   1030000500030000   541120203401000045411202034AZAY CO. LTD           PTN           MMR11006180516180003810618000000000000000   10300001 00104100000000016729000000000000     
100   62911028202471600000000000010760000000010760002000000010410406181311000005454773800618216919000545   1030000500030000   531120226320000045311202263OCEAN SUPER CENTER STJ PTN           MMR11006181311000005450618000000000000000   10300001 00104100000000000646000000000000     
100   62911028202792960000000000036400000000036400002000000010410406180953260008444773800618216916000844   1030000500030000   541120227604000045411202276CITY MART ( 47 BRANCH  PTN           MMR11006180953260008440618000000000000000   10300001 00104100000000002184000000000000     
100   95050312498129060000000000004900000000004900002000000010410406191435250525887894400619000007357874   1020000200030000   333400010001204104000000281Myanmar Soft-Gate Tech Yangon        MMR11006191435250525880619000000000000000   10300001F05104100000000001029000000000000     
100   62443100373105840000000000040000000000040000002000000010410406191236320632498981720619000007357473   1030000200030000   333800010001203104000003327KBZPay                 Yangon        MMR11006191236320632490619000000000000000   10300001F05104100000000008400000000000000     
100   95050311382087030000000000001960000000001960002000000010410406191047141714737275390619000007357086   1020000200030000   333400010001204104000000281Myanmar Soft-Gate Tech Yangon        MMR11006191047141714730619000000000000000   10300001F05104100000000000412000000000000     
100   95050312224678430000000000000980000000000980002000000010410406191145571557033804670619000007357302   1020000200030000   333400010001204104000000281Myanmar Soft-Gate Tech Yangon        MMR11006191145571557030619000000000000000   10300001F05104100000000000206000000000000     
100   95050319996628650000000000000980000000000980002000000010410406190336000600043594380619000007355370   1020000200030000   333400010001204104000000281Myanmar Soft-Gate Tech Yangon        MMR11006190336000600040619000000000000000   10300001F05104100000000000206000000000000     
100   95050311959900780000000000000980000000000980002000000010410406191141511151094158820619000007357284   1020000200030000   333400010001204104000000281Myanmar Soft-Gate Tech Yangon        MMR11006191141511151090619000000000000000   10300001F05104100000000000206000000000000     
100   95050311382087030000000000001960000000001960002000000010410406190343321332632026990619000007355387   1020000200030000   333400010001204104000000281Myanmar Soft-Gate Tech Yangon        MMR11006190343321332630619000000000000000   10300001F05104100000000000412000000000000     
100   95050319928585020000000000000980000000000980002000000010410406190939270927691296780619000007356828   1020000200030000   333400010001204104000000281Myanmar Soft-Gate Tech Yangon        MMR11006190939270927690619000000000000000   10300001F05104100000000000206000000000000     
100   62911028202581260000000000050000000000050000002000000010410406180634400001464773800618216913000146   1030000500030000   594420080601000015944200806VJM (MP)               PTN           MMR11006180634400001460618000000000000000   10300001 00104100000000003000000000000000     
100   62443100308973140000000000129298000000129298002000000010410406180504570003787854980618216911000378   1030000500030000   541120203401000045411202034AZAY CO. LTD           PTN           MMR11006180504570003780618000000000000000   10300001 00104100000000032325000000000000     
100   95030301100340140000000000007000000000007000002000000010410406180928300003484773800618216915000348   1030000500030000   531120155708000045311201557GAMONE PWINT           PTN           MMR11006180928300003480618000000000000000   10300001 00104100000000000420000000000000     
100   62911028202471600000000000007800000000007800002000000010410406181207420009974773800618216918000997   1030000500030000   531120226310000045311202263OCEAN SUPER CENTER STJ PTN           MMR11006181207420009970618000000000000000   10300001 00104100000000000468000000000000     
100   95050313843656520000000000090850000000090850002000000010410406180533060000045656280618000350873542   1030000300030000   594700000546000000000000379CB BANK                YANGOODS( JUN MMR11006180533060000040618000000000000000   10300001F00104100000000021804000000000000     
100   62911028202169750000000000016000000000016000002000000010410406180952320006084773800618216916000608   1030000500030000   541120226802000045411202268CITY MART WAIZAYANDA   PTN           MMR11006180952320006080618000000000000000   10300001 00104100000000000960000000000000     
100   62911028202471600000000000013550000000013550002000000010410406181244310005764773800618216919000576   1030000500030000   531120226326000045311202263OCEAN SUPER CENTER STJ PTN           MMR11006181244310005760618000000000000000   10300001 00104100000000000813000000000000     
100   62443101007477200000000000014800000000014800002000000010410406180306240007017623850618216909000701   1030000500030000   581220123001000045812201230YOON KITCHEN           PTN           MMR11006180306240007010618000000000000000   10300001 00104100000000006290000000000000     
100   95050312498129060000000000004900000000004900002000000010410406191238210821268556260619000007357486   1020000200030000   333400010001204104000000281Myanmar Soft-Gate Tech Yangon        MMR11006191238210821260619000000000000000   10300001F05104100000000001029000000000000     
100   95050312962334280000000000000980000000000980002000000010410406191347311731569384760619000007357722   1020000200030000   333400010001204104000000281Myanmar Soft-Gate Tech Yangon        MMR11006191347311731560619000000000000000   10300001F05104100000000000206000000000000     
100   95050315743141220000000000001960000000001960002000000010410406190339480948631941900619000007355381   1020000200030000   333400010001204104000000281Myanmar Soft-Gate Tech Yangon        MMR11006190339480948630619000000000000000   10300001F05104100000000000412000000000000     
100   95050323722449090000000000004409000000004409002000000010410406191048321832652232840619000007357089   1020000200030000   333400010001204104000000281Myanmar Soft-Gate Tech Yangon        MMR11006191048321832650619000000000000000   10300001F05104100000000000926000000000000     
100   95050312675873230000000000004900000000004900002000000010410406191153412341306854330619000007357338   1020000200030000   333400010001204104000000281Myanmar Soft-Gate Tech Yangon        MMR11006191153412341300619000000000000000   10300001F05104100000000001029000000000000     
100   95050312498129060000000000002940000000002940002000000010410406190259402940139778830619000007355245   1020000200030000   333400010001204104000000281Myanmar Soft-Gate Tech Yangon        MMR11006190259402940130619000000000000000   10300001F05104100000000000617000000000000     
100   62443100313002190000000000250000000000250000002000000010410406190550132013613849670619000007355909   1030000200030000   333800010001203104000003327KBZPay                 Yangon        MMR11006190550132013610619000000000000000   10300001F05104100000000052500000000000000     
100   62911028202446700000000000010000000000010000002000000010410406182353052305234773800619000007354862   1030000500030000   333800010001201104000003863AYA Pay                Yangon        MMR11006182353052305230619000000000000000   10300001F05104100000000002100000000000000     
100   95030393921562700000000000112950000000112950002000000010410406180422290008284773800618000350864618   1030000300030000   564100002780000000000001898CB BANK                HAPPY BABY ST MMR11006180422290008280618000000000000000   10300001F00104100000000006777000000000000     
100   95050311048637960000000000008400000000008400002000000010410406180739350009603740410618216914000960   1030000500030000   531120226310000045311202263OCEAN SUPER CENTER STJ PTN           MMR11006180739350009600618000000000000000   10300001 00104100000000002016000000000000     
100   62443100314002660000000000050000000000050000002000000010410406180656440000333386220618000350884367   1030000300030000   594400002388000000000001610CB BANK                ZWE HTET GOLD MMR11006180656440000330618000000000000000   10300001F00104100000000012000000000000000     
100   62911028202471600000000000113642000000113642002000000010410406181233440002314773800618216919000231   1030000500030000   531120226318000045311202263OCEAN SUPER CENTER STJ PTN           MMR11006181233440002310618000000000000000   10300001 00104100000000006819000000000000     
100   95030301100340140000000000017000000000017000002000000010410406180931310003494773800618216916000349   1030000500030000   531120155708000045311201557GAMONE PWINT           PTN           MMR11006180931310003490618000000000000000   10300001 00104100000000001020000000000000     
100   62911028202506770000000000003000000000003000002000000010410406180726180004244773800618216913000424   1030000500030000   541120227507000045411202275CITY MART (AHLONE BRAN PTN           MMR11006180726180004240618000000000000000   10300001 00104100000000000180000000000000     
100   62911028202469800000000000034100000000034100002000000010410406181118270005684773800618216917000568   1030000500030000   531120226326000045311202263OCEAN SUPER CENTER STJ PTN           MMR11006181118270005680618000000000000000   10300001 00104100000000002046000000000000     
100   95050320531117320000000000069000000000069000002000000010410406180206180017757964230618216908001775   1030000500030000   598320001502000015172200015MAX ENERGY             PTN           MMR11006180206180017750618000000000000000   10300001 00104100000000008280000000000000     
100   95050314307746340000000000000980000000000980002000000010410406190351292129385331960619000007355412   1020000200030000   333400010001204104000000281Myanmar Soft-Gate Tech Yangon        MMR11006190351292129380619000000000000000   10300001F05104100000000000206000000000000     
100   95050318057347910000000000009800000000009800002000000010410406190907453745314857040619000007356717   1020000200030000   333400010001204104000000281Myanmar Soft-Gate Tech Yangon        MMR11006190907453745310619000000000000000   10300001F05104100000000002058000000000000     
100   95050312224678430000000000001960000000001960002000000010410406191342291229318887690619000007357706   1020000200030000   333400010001204104000000281Myanmar Soft-Gate Tech Yangon        MMR11006191342291229310619000000000000000   10300001F05104100000000000412000000000000     
100   95050313497815710000000000004000000000004000002000000010410406190907333733423119460619000007356711   1030000200030000   333800010001203104000003327KBZPay                 Yangon        MMR11006190907333733420619000000000000000   10300001F05104100000000000840000000000000     
100   95050318131043910000000000000980000000000980002000000010410406190805373537995743650619000007356442   1020000200030000   333400010001204104000000281Myanmar Soft-Gate Tech Yangon        MMR11006190805373537990619000000000000000   10300001F05104100000000000206000000000000     
100   95050318712627500000000000004900000000004900002000000010410406190737250725611041490619000007356343   1020000200030000   333400010001204104000000281Myanmar Soft-Gate Tech Yangon        MMR11006190737250725610619000000000000000   10300001F05104100000000001029000000000000     
100   95050319111666800000000000000980000000000980002000000010410406191242091209270612380619000007357499   1020000200030000   333400010001204104000000281Myanmar Soft-Gate Tech Yangon        MMR11006191242091209270619000000000000000   10300001F05104100000000000206000000000000     
100   95050312498129060000000000000980000000000980002000000010410406191250362036913662000619000007357522   1020000200030000   333400010001204104000000281Myanmar Soft-Gate Tech Yangon        MMR11006191250362036910619000000000000000   10300001F05104100000000000206000000000000     
100   62911028202471600000000000002649000000002649002000000010410406181259250005814773800618216919000581   1030000500030000   531120226314000045311202263OCEAN SUPER CENTER STJ PTN           MMR11006181259250005810618000000000000000   10300001 00104100000000000159000000000000     
100   62911028202150190000000000029400000000029400002000000010410406180701270005264773800618216913000526   1030000500030000   531120226316000045311202263OCEAN SUPER CENTER STJ PTN           MMR11006180701270005260618000000000000000   10300001 00104100000000001764000000000000     
100   62911028202470870000000000060000000000060000002000000010410406180221140013244773800618216908001324   1030000500030000   806220046401006308062200464ASIA ROYAL HOSPITAL    PTN           MMR11006180221140013240618000000000000000   10300001 00104100000000003600000000000000     
100   62443100313529540000000000012000000000012000002000000010410406180719340004513457580618216913000451   1030000500030000   569120060701000015691200607MIX (JUNCTION CITY)    PTN           MMR11006180719340004510618000000000000000   10300001 00104100000000002880000000000000     
100   62443100325551180000000000009000000000009000002000000010410406180435590005784451120618216911000578   1030000500030000   591220020501005105912200205MINGALAR PHARMACY      PTN           MMR11006180435590005780618000000000000000   10300001 00104100000000002160000000000000     
100   62911028202581260000000000330000000000330000002000000010410406180729090001484773800618216913000148   1030000500030000   594420080601000015944200806VJM (MP)               PTN           MMR11006180729090001480618000000000000000   10300001 00104100000000019800000000000000     
100   62911028202202580000000000001700000000001700002000000010410406180438260004854773800618216911000485   1030000500030000   591220014301014405912200143SHWE OHH PHARMACY      PTN           MMR11006180438260004850618000000000000000   10300001 00104100000000000102000000000000     
100   62443100308973140000000000019400000000019400002000000010410406180435370005550976000618216911000555   1030000500030000   531120226317000045311202263OCEAN SUPER CENTER STJ PTN           MMR11006180435370005550618000000000000000   10300001 00104100000000004656000000000000     
100   95050310427855490000000000001960000000001960002000000010410406190251182118054736290619000007355221   1020000200030000   333400010001204104000000281Myanmar Soft-Gate Tech Yangon        MMR11006190251182118050619000000000000000   10300001F05104100000000000412000000000000     
100   95050310332595380000000000002940000000002940002000000010410406181708223822409268260619000007354562   1020000200030000   333400010001204104000000281Myanmar Soft-Gate Tech Yangon        MMR11006181708223822400619000000000000000   10300001F05104100000000000617000000000000     
100   62911028202736950000000000005000000000005000002000000010410406191001063106444773800619000007356912   1040001600030000   333800010001220104000004507A +                    Yangon        MMR11006191001063106440619000000000000000   10300001F05104100000000001050000000000000     
100   62443100345308040000000000003000000000003000002000000010410406190948091809815112330619000007356876   1030000200030000   333800010001203104000003327KBZPay                 Yangon        MMR11006190948091809810619000000000000000   10300001F05104100000000000630000000000000     
100   95050314791376690000000000005880000000005880002000000010410406190950172017885197420619000007356884   1020000200030000   333400010001204104000000281Myanmar Soft-Gate Tech Yangon        MMR11006190950172017880619000000000000000   10300001F05104100000000001235000000000000     
100   62911028202471860000000000017000000000017000002000000010410406191244333775584773800619143387585522   1040001400030000   581210000016025812100000204YKKO SCITY null Buildi g (A-1)  Wing MMR11006191244333775580619000000000000000   10300001 00104100000000001734000000000000     
100   95050310332595380000000000000980000000000980002000000010410406191017014701169899590619000007356969   1020000200030000   333400010001204104000000281Myanmar Soft-Gate Tech Yangon        MMR11006191017014701160619000000000000000   10300001F05104100000000000206000000000000     
100   95030308100042590000000000043750000000043750002000000010410406190900325983714773800619875301532169   1030000900030000   541119001166190110000000930OCEAN HTY C 16         YANGONTHARYA  MMR11006190900325983710619000000000000000   10300001F00104100000000002625000000000000     
100   62911028202197550000000000400000000000400000002000000010410406181008030011904773800618216916001190   1030000500030000   806220172403013008062201724GRAND HANTHA HOSPITAL  PTN           MMR11006181008030011900618000000000000000   10300001 00104100000000024000000000000000     
100   62911028202405460000000000010800000000010800002000000010410406181128250016704773800618216917001670   1030000500030000   531120155712000045311201557GAMONE PWINT           PTN           MMR11006181128250016700618000000000000000   10300001 00104100000000000648000000000000     
100   95050321455580800000000000028235000000028235002000000010410406180724080003283883040618216913000328   1030000500030000   541120231302000045411202313CITY MART (AYEYARWON)  PTN           MMR11006180724080003280618000000000000000   10300001 00104100000000007059000000000000     
100   62911028202294730000000000055000000000055000002000000010410406180957150040324773800618216916004032   1030000500030000   598320001603000015172200016MAX ENERGY             PTN           MMR11006180957150040320618000000000000000   10300001 00104100000000001650000000000000     
100   95050318631979070000000000004500000000004500002000000010410406180538460033943032070618000350874263   1030000300030000   729800001742000000000001247CB BANK                ART & T8      MMR11006180538460033940618000000000000000   10300001F00104100000000001080000000000000     
100   62911028202507190000000000050000000000050000002000000010410406180536030037454773800618216912003745   1030000500030000   598320002102000015172200021MAX ENERGY             PTN           MMR11006180536030037450618000000000000000   10300001 00104100000000001500000000000000     
100   62911028202449440000000000103000000000103000002000000010410406180001040075214773800618216906007521   1030000500030000   598320001903000015172200019MAX ENERGY             PTN           MMR11006180001040075210618000000000000000   10300001 00104100000000003090000000000000     
100   62443100372718280000000000054038000000054038002000000010410406180112100075417368560618216907007541   1030000500030000   598320001903000015172200019MAX ENERGY             PTN           MMR11006180112100075410618000000000000000   10300001 00104100000000006484000000000000     
100   62911028202441420000000000027950000000027950002000000010410406190929425991594773800619374591542169   1030000900030000   591219000958190110000000765Shwe Ohh Pharmacy St 4 YANGONOKKALAP MMR11006190929425991590619000000000000000   10300001F00104100000000001677000000000000     
100   62911028202523430000000000027950000000027950002000000010410406190413374082044773800619217011408204   1040001600030000   591220000274000000010000262Shwe Ohh Pharmacy (Shw Yangon        MMR11006190413374082040619000000000000000   10300001F00104100000000001677000000000000     
100   95050314893649800000000000002940000000002940002000000010410406191211464146990754960619000007357389   1020000200030000   333400010001204104000000281Myanmar Soft-Gate Tech Yangon        MMR11006191211464146990619000000000000000   10300001F05104100000000000617000000000000     
100   95050320205194540000000000075800000000075800002000000010410406190848155980896424430619711181515169   1030000900030000   541119001264190110000000958City Mart PLST C 7     YANGONMYOTHIT MMR11006190848155980890619000000000000000   10300001F00104100000000018950000000000000     
100   62911028202207040000000000029650000000029650002000000010410406190138404005064773800619217008400506   1040001600030000   591220001007000000010000737Shwe Ohh Pharmacy (Tan Ygn           MMR11006190138404005060619000000000000000   10300001F00104100000000001779000000000000     
100   95050312498129060000000000001960000000001960002000000010410406190515274527777495030619000007355766   1020000200030000   333400010001204104000000281Myanmar Soft-Gate Tech Yangon        MMR11006190515274527770619000000000000000   10300001F05104100000000000412000000000000     
100   95050315250339200000000000101000000000101000002000000010410406190218054805797956160619000007355096   1030000200030000   333800010001203104000003327KBZPay                 Yangon        MMR11006190218054805790619000000000000000   10300001F05104100000000021210000000000000     
100   95050314570621780000000000001960000000001960002000000010410406191016204620833630030619000007356970   1020000200030000   333400010001204104000000281Myanmar Soft-Gate Tech Yangon        MMR11006191016204620830619000000000000000   10300001F05104100000000000412000000000000     
100   95050321084131410000000000075000000000075000002000000010410406180739400047677215580618216914004767   1030000500030000   598320001201000015172200012MAX ENERGY             PTN           MMR11006180739400047670618000000000000000   10300001 00104100000000009000000000000000     
100   95050324154190880000000000023000000000023000002000000010410406181109210039352161530618216917003935   1030000500030000   598320002103000015172200021MAX ENERGY             PTN           MMR11006181109210039350618000000000000000   10300001 00104100000000002760000000000000     
100   62911028202668300000000000030000000000030000002000000010410406180657040041604773800618216913004160   1030000500030000   598320002104000015172200021MAX ENERGY             PTN           MMR11006180657040041600618000000000000000   10300001 00104100000000000900000000000000     
100   95050314248677090000000000259000000000259000002000000010410406180931570020172963050618000350904706   1030000300030000   573200001015000000000000720CB BANK                UNIQUE MOBILE MMR11006180931570020170618000000000000000   10300001F00104100000000062160000000000000     
100   95030308100042590000000000087000000000087000002000000010410406180356120038224773800618216910003822   1030000500030000   598320001701000015172200017MAX ENERGY             PTN           MMR11006180356120038220618000000000000000   10300001 00104100000000002610000000000000     
100   95050325925517520000000000292450000000292450002000000010410406180507420024705230770618216911002470   1030000500030000   503920036601000015039200366PRO-1 HOME CENTER      PTN           MMR11006180507420024700618000000000000000   10300001 00104100000000070188000000000000     
100   95030308100042590000000000050000000000050000002000000010410406180356460038234773800618216910003823   1030000500030000   598320001701000015172200017MAX ENERGY             PTN           MMR11006180356460038230618000000000000000   10300001 00104100000000001500000000000000     
100   95030346130941600000000000018970000000018970002000000010410406180945210064054773800618000350906472   1030000300030000   806200000197000000000000097CB BANK                AUNG YADANA H MMR11006180945210064050618000000000000000   10300001F00104100000000001138000000000000     
100   95050311931431670000000000004900000000004900002000000010410406191512344234935009780619000007357969   1020000200030000   333400010001204104000000281Myanmar Soft-Gate Tech Yangon        MMR11006191512344234930619000000000000000   10300001F05104100000000001029000000000000     
100   62911028202728380000000000166150000000166150002000000010410406190817154226864773800619217015422686   1040001600030000   591220000291000000010000279Shwe Ohh Pharmacy (Sou Yangon        MMR11006190817154226860619000000000000000   10300001F00104100000000009969000000000000     
100   62911028202581830000000000030000000000030000002000000010410406191228215821304773800619000007357447   1030000200030000   333800010001203104000003327KBZPay                 Yangon        MMR11006191228215821300619000000000000000   10300001F05104100000000006300000000000000     
100   95050316311487940000000000050000000000050000002000000010410406191327325732590378480619000007357651   1030000200030000   333800010001203104000003327KBZPay                 Yangon        MMR11006191327325732590619000000000000000   10300001F05104100000000010500000000000000     
100   62911028202610540000000000012200000000012200002000000010410406190558525940004773800619163281252169   1030000900030000   581219000931190110000000740Shwe Palin City Mall   YANGONAW      MMR11006190558525940000619000000000000000   10300001F00104100000000001244000000000000     
100   62911028202610540000000000071350000000071350002000000010410406190826595975534773800619380561459169   1030000900030000   541119000129190110000000082Sein Gay Har Super Cen YANGON        MMR11006190826595975530619000000000000000   10300001F00104100000000004281000000000000     
100   95030301100081330000000000062000000000062000002000000010410406190942264276664773800619217016427666   1040001600030000   598320000660000000010000529Shwe Taung Energy (NPT Naypyitaw     MMR11006190942264276660619000000000000000   10300001F00104100000000001860000000000000     
100   62443101023815100000000000044175000000044175002000000010410406191345174482174633080619217020448217   1040001600030000   581420000803000000010000579Jeff's Kitchen (Ahlone Yangon        MMR11006191345174482170619000000000000000   10300001F00104100000000005301000000000000     
100   95030308100042590000000000012600000000012600002000000010410406181124510029214773800618000350919710   1030000300030000   581400000692000000000000478CB BANK                KFC PARAMI SG MMR11006181124510029210618000000000000000   10300001F00104100000000000378000000000000     
100   62911028202790310000000000037000000000037000002000000010410406180151240039784773800618216908003978   1030000500030000   598320001603000015172200016MAX ENERGY             PTN           MMR11006180151240039780618000000000000000   10300001 00104100000000001110000000000000     
100   62443100371022130000000000041907000000041907002000000010410406181157240054924239500618216918005492   1030000500030000   598320001302000015172200013MAX ENERGY             PTN           MMR11006181157240054920618000000000000000   10300001 00104100000000005029000000000000     
100   62911028202520380000000000040400000000040400002000000010410406181104090018524773800618216917001852   1030000500030000   541120020701022205411200207ORANGE (YDG)           PTN           MMR11006181104090018520618000000000000000   10300001 00104100000000002424000000000000     
100   95050328074436620000000000056000000000056000002000000010410406180132420047201184110618216908004720   1030000500030000   598320001201000015172200012MAX ENERGY             PTN           MMR11006180132420047200618000000000000000   10300001 00104100000000006720000000000000     
100   62911028202668140000000000080000000000080000002000000010410406181009370039294773800618216916003929   1030000500030000   598320002103000015172200021MAX ENERGY             PTN           MMR11006181009370039290618000000000000000   10300001 00104100000000002400000000000000     
100   62443100333488440000000000065050000000065050002000000010410406181112483602920509050618216918360292   1040001600030000   581420000246000000010000234Hot Pot Country        Yangon        MMR11006181112483602920618000000000000000   10300001F00104100000000007806000000000000     
100   62443100379321630000000000032250000000032250002000000010410406181000413537986097830618216917353798   1040001600030000   598320000315000000010000303PT Power Petrol Statio Yangon        MMR11006181000413537980618000000000000000   10300001F00104100000000003870000000000000     
100   95050310902464360000000000015000000000015000002000000010410406191626535653208059490619000007358153   1030000200030000   3338000100012031040000040022C2P (Myanmar) Co. Ltd Yangon        MMR11006191626535653200619000000000000000   10300001F05104100000000003150000000000000     
100   95050328074436620000000000009800000000009800002000000010410406191127365736933307860619000007357236   1020000200030000   333400010001204104000000281Myanmar Soft-Gate Tech Yangon        MMR11006191127365736930619000000000000000   10300001F05104100000000002058000000000000     
100   95050319709462380000000000005000000000005000002000000010410406190112484248224821390619000007354954   1030000200030000   3338000100012031040000040022C2P (Myanmar) Co. Ltd Yangon        MMR11006190112484248220619000000000000000   10300001F05104100000000001050000000000000     
100   62911028202116120000000000024750000000024750002000000010410406191107024348064773800619217018434806   1040001600030000   591220000258000000010000246Shwe Ohh Pharmacy (Sin Yangon        MMR11006191107024348060619000000000000000   10300001F00104100000000001485000000000000     
100   95050317100052460000000000000500000000000500002000000010410406191118174817617190290619000007357199   1030000200030000   333800010001203104000003327KBZPay                 Yangon        MMR11006191118174817610619000000000000000   10300001F05104100000000000105000000000000     
100   95050316442084030000000000010200000000010200002000000010410406190521135113387580120619000007355800   1030000200030000   333800010001203104000003327KBZPay                 Yangon        MMR11006190521135113380619000000000000000   10300001F05104100000000002142000000000000     
100   95050313497815710000000000030000000000030000002000000010410406191129055905476783020619000007357237   1030000200030000   333800010001203104000003327KBZPay                 Yangon        MMR11006191129055905470619000000000000000   10300001F05104100000000006300000000000000     
100   95050327531396450000000000110000000000110000002000000010410406190829235923104176270619000007356535   1030000200030000   333800010001203104000003327KBZPay                 Yangon        MMR11006190829235923100619000000000000000   10300001F05104100000000023100000000000000     
100   95050324767581840000000000177750000000177750002000000010410406190830115976407481230619433001511169   1030000900030000   581219000368190110000000241Beauty In The Pot (PHS YANGON        MMR11006190830115976400619000000000000000   10300001F00104100000000075544000000000000     
100   95050312498129060000000000000980000000000980002000000010410406191111524152713715130619000007357179   1020000200030000   333400010001204104000000281Myanmar Soft-Gate Tech Yangon        MMR11006191111524152710619000000000000000   10300001F05104100000000000206000000000000     
100   95050319938772870000000000000980000000000980002000000010410406191317314731655130160619000007357618   1020000200030000   333400010001204104000000281Myanmar Soft-Gate Tech Yangon        MMR11006191317314731650619000000000000000   10300001F05104100000000000206000000000000     
100   62911028202616250000000000191300000000191300002000000010410406190306565903884773800619121360956169   1030000900030000   541119001241190110000000082Sein Gay Har Super Cen YANGON        MMR11006190306565903880619000000000000000   10300001F00104100000000011478000000000000     
100   95050315919368400000000000004900000000004900002000000010410406191318274827737562680619000007357622   1020000200030000   333400010001204104000000281Myanmar Soft-Gate Tech Yangon        MMR11006191318274827730619000000000000000   10300001F05104100000000001029000000000000     
100   95030301100124400000000000004200000000004200002000000010410406190915235987774773800619138451523169   1030000900030000   541119001273190110000000960City Mart PLST Season  YANGONMYOTHIT MMR11006190915235987770619000000000000000   10300001F00104100000000000252000000000000     
100   95030301100124400000000000008050000000008050002000000010410406190950525997194773800619737201652169   1030000900030000   541119001259190110000000958City Mart PLST C 2     YANGONMYOTHIT MMR11006190950525997190619000000000000000   10300001F00104100000000000483000000000000     
100   62443101015591650000000000114000000000114000002000000010410406190811574224060701100619217015422406   1040001600030000   569920000135000000010000127Skechers (Myanmar Plaz Yangon        MMR11006190811574224060619000000000000000   10300001F00104100000000027360000000000000     
100   95050312695033440000000000002940000000002940002000000010410406191212314231974230130619000007357391   1020000200030000   333400010001204104000000281Myanmar Soft-Gate Tech Yangon        MMR11006191212314231970619000000000000000   10300001F05104100000000000617000000000000     
100   62911028202537390000000000040000000000040000002000000010410406190834394236174773800619217015423617   1040001600030000   598320001067000000010000787Yangon Petrol (Maungma Ygn           MMR11006190834394236170619000000000000000   10300001F00104100000000001200000000000000     
100   95050318699187280000000000010300000000010300002000000010410406190923214265344516650619217016426534   1040001600030000   591220000262000000010000250Shwe Ohh Pharmacy (SC- Yangon        MMR11006190923214265340619000000000000000   10300001F00104100000000002472000000000000     
100   95050313968650950000000000000980000000000980002000000010410406190126125612714906480619000007354973   1020000200030000   333400010001204104000000281Myanmar Soft-Gate Tech Yangon        MMR11006190126125612710619000000000000000   10300001F05104100000000000206000000000000     
100   62443100392426520000000000010000000000010000002000000010410406191424205420553143150619000007357836   1030000200030000   333800010001203104000003327KBZPay                 Yangon        MMR11006191424205420550619000000000000000   10300001F05104100000000002100000000000000     
100   62443100345308040000000000001000000000001000002000000010410406191609153915598484950619000007358122   1030000200030000   333800010001203104000003327KBZPay                 Yangon        MMR11006191609153915590619000000000000000   10300001F05104100000000000210000000000000     
100   62911028202163630000000000171500000000171500002000000010410406190221174024794773800619217009402479   1040001600030000   591220000302000000010000290Shwe Ohh Pharmacy (Nor Yangon        MMR11006190221174024790619000000000000000   10300001F00104100000000010290000000000000     
100   95050316818236190000000000000980000000000980002000000010410406191119584958482882350619000007357203   1020000200030000   333400010001204104000000281Myanmar Soft-Gate Tech Yangon        MMR11006191119584958480619000000000000000   10300001F05104100000000000206000000000000     
100   62911028202789750000000000003750000000003750002000000010410406190158354013794773800619217008401379   1040001600030000   591220000271000000010000259Shwe Ohh Pharmacy (Gwa Yangon        MMR11006190158354013790619000000000000000   10300001F00104100000000000225000000000000     
100   95050314534800510000000000010900000000010900002000000010410406191018494849499984680619000007356975   1030000200030000   333800010001203104000003327KBZPay                 Yangon        MMR11006191018494849490619000000000000000   10300001F05104100000000002289000000000000     
100   95050315144611650000000000019300000000019300002000000010410406190840495979336339330619619101549169   1030000900030000   541119001242190110000000955City Mart JS C 1       YANGONUT      MMR11006190840495979330619000000000000000   10300001F00104100000000004825000000000000     
100   62911028202397530000000000067550000000067550002000000010410406190713115957414773800619214431311169   1030000900030000   541119001295190110000000968Ocean Mingalar MDY C 3 MANDALAYHARSI MMR11006190713115957410619000000000000000   10300001F00104100000000004053000000000000     
100   95050318699187280000000000019650000000019650002000000010410406190932574271096254230619217016427109   1040001600030000   591220000262000000010000250Shwe Ohh Pharmacy (SC- Yangon        MMR11006190932574271090619000000000000000   10300001F00104100000000004716000000000000     
100   62911028202417000000000000015070000000015070002000000010410406190844265980074773800619661141526169   1030000900030000   581219001443190110000001047Noodle Bowl Sayarsan   YANGON        MMR11006190844265980070619000000000000000   10300001F00104100000000001537000000000000     
100   62911028202169750000000000048100000000048100002000000010410406170945530009314773800617216816000931   1030000500030000   541120226201000045411202262CITY MART ZAWANA       PTN           MMR11006170945530009310617000000000000000   10300001 00104100000000002886000000000000     
100   62443100345308040000000000003000000000003000002000000010410406182127005700442573230619000007354818   1030000200030000   333800010001203104000003327KBZPay                 Yangon        MMR11006182127005700440619000000000000000   10300001F05104100000000000630000000000000     
100   62911028202674810000000000004000000000004000002000000010410406170709520003864773800617216813000386   1030000500030000   541120227603000045411202276CITY MART ( 47 BRANCH  PTN           MMR11006170709520003860617000000000000000   10300001 00104100000000000240000000000000     
100   62911028202668300000000000043500000000043500002000000010410406170958500006094773800617216816000609   1030000500030000   569120116101000015691201161AMERICAN COLLECTION (H PTN           MMR11006170958500006090617000000000000000   10300001 00104100000000002610000000000000     
100   62911028202169750000000000001449000000001449002000000010410406171013240007204773800617216816000720   1030000500030000   541120226810000045411202268CITY MART WAIZAYANDA   PTN           MMR11006171013240007200617000000000000000   10300001 00104100000000000087000000000000     
100   62911028202491410000000001800000000001800000002000000010410406170556420002254773800617216812000225   1030000500030000   806220172405013008062201724GRAND HANTHA HOSPITAL  PTN           MMR11006170556420002250617000000000000000   10300001 00104100000000108000000000000000     
100   62911028202132460000000000012200000000012200002000000010410406170311190003904773800617216809000390   1030000500030000   591220013201014405912200132SHWE OHH PHARMACY      PTN           MMR11006170311190003900617000000000000000   10300001 00104100000000000732000000000000     
100   62443100313529540000000000013400000000013400002000000010410406171151170005469921450617216818000546   1030000500030000   541120230003000045411202300MARKET PLACE BY CITY M PTN           MMR11006171151170005460617000000000000000   10300001 00104100000000003350000000000000     
100   62911028202045260000000000009750000000009750002000000010410406170943290000274773800617216816000027   1030000500030000   541120203703000015411202037CITY MART SUPERMARKET  PTN           MMR11006170943290000270617000000000000000   10300001 00104100000000000585000000000000     
100   95050325925517520000000000012450000000012450002000000010410406170423440003929594850617216810000392   1030000500030000   591220013201014405912200132SHWE OHH PHARMACY      PTN           MMR11006170423440003920617000000000000000   10300001 00104100000000002988000000000000     
100   95050325925517520000000000030011000000030011002000000010410406191134014372527208480619217018437252   1040001600030000   598320000310000000010000298PT Power Petrol Statio Yangon        MMR11006191134014372520619000000000000000   10300001F00104100000000003601000000000000     
100   62911028202150190000000000040950000000040950002000000010410406191212316037034773800619346421831169   1030000900030000   581219001391190110000000996King BBQ sayarsan      YANGON        MMR11006191212316037030619000000000000000   10300001F00104100000000004177000000000000     
100   62443100369813440000000000039050000000039050002000000010410406170724330017593190760617216813001759   1030000500030000   581220041801000055812200418SHWE LAR HOT POT       PTN           MMR11006170724330017590617000000000000000   10300001 00104100000000016597000000000000     
100   95030346130941600000000000022990000000022990002000000010410406180802210006414773800618216914000641   1030000500030000   569120091201000015691200912GIORDANO               PTN           MMR11006180802210006410618000000000000000   10300001 00104100000000001379000000000000     
100   62443100300743690000000000010100000000010100002000000010410406180604010000286578510618000350877503   1030000300030000   581400001691000000000001213CB BANK                SHWEPALIN(NOR MMR11006180604010000280618000000000000000   10300001F00104100000000001212000000000000     
100   95030301100081330000000000054700000000054700002000000010410406190626357596294773800619563518084418   1040001400030000   541110000369025411100002149Sein Daung Super Store Sein Daung Su MMR11006190626357596290619000000000000000   10300001 00104100000000003282000000000000     
100   95050319996628650000000000014700000000014700002000000010410406190552442244477154640619000007355925   1020000200030000   333400010001204104000000281Myanmar Soft-Gate Tech Yangon        MMR11006190552442244470619000000000000000   10300001F05104100000000003087000000000000     
100   95050311931431670000000000004900000000004900002000000010410406191458202820468391480619000007357942   1020000200030000   333400010001204104000000281Myanmar Soft-Gate Tech Yangon        MMR11006191458202820460619000000000000000   10300001F05104100000000001029000000000000     
100   95050318712627500000000000015500000000015500002000000010410406171035350006119666160617216817000611   1030000500030000   541120229102000045411202291CITY MART YANKIN       PTN           MMR11006171035350006110617000000000000000   10300001 00104100000000003875000000000000     
100   62443100333488440000000000021000000000021000002000000010410406171043400000294793810617216817000029   1030000500030000   541120228601000045411202286CITY EXPRESS (MCS - 11 PTN           MMR11006171043400000290617000000000000000   10300001 00104100000000005250000000000000     
100   62443100346413950000000000066409000000066409002000000010410406171250550004567028170617216819000456   1030000500030000   598320001001000015172200010MAX ENERGY             PTN           MMR11006171250550004560617000000000000000   10300001 00104100000000007969000000000000     
100   95050312933828140000000000010100000000010100002000000010410406171150200001445304380617216818000144   1030000500030000   541120231312000045411202313CITY MART (AYEYARWON)  PTN           MMR11006171150200001440617000000000000000   10300001 00104100000000002525000000000000     
100   62911028202808150000000000009400000000009400002000000010410406171119060003184773800617216817000318   1030000500030000   541120230001000045411202300MARKET PLACE BY CITY M PTN           MMR11006171119060003180617000000000000000   10300001 00104100000000000564000000000000     
100   95030364439875210000000000018000000000018000002000000010410406171034260022644773800617216817002264   1030000500030000   569120104001008205691201040ESCORT ( CITY MALL-ST. PTN           MMR11006171034260022640617000000000000000   10300001 00104100000000001080000000000000     
100   62911028202446540000000000021935000000021935002000000010410406171357500012644773800617216820001264   1030000500030000   581220024001000015812200240SHWE LAR HOT POT       PTN           MMR11006171357500012640617000000000000000   10300001 00104100000000002237000000000000     
100   62443100309698080000000000009000000000009000002000000010410406170530250017815147980617216812001781   1030000500030000   531120156001000045311201560GAMONE PWINT           PTN           MMR11006170530250017810617000000000000000   10300001 00104100000000002160000000000000     
100   62443100337100010000000000006865000000006865002000000010410406190246271627876388770619000007355201   1030000200030000   3333000100012031040000040282C2P (Myanmar) Co. Ltd Yangon        MMR11006190246271627870619000000000000000   10300001F05104100000000010000000000000000     
100   95050314979630620000000000002000000000002000002000000010410406190914434443453204550619000007356748   1030000200030000   3338000100012031040000040022C2P (Myanmar) Co. Ltd Yangon        MMR11006190914434443450619000000000000000   10300001F05104100000000000420000000000000     
100   62911028202074950000000000009350000000009350002000000010410406180841420011234773800618216915001123   1030000500030000   531120226306000045311202263OCEAN SUPER CENTER STJ PTN           MMR11006180841420011230618000000000000000   10300001 00104100000000000561000000000000     
100   95050314692738880000000000000980000000000980002000000010410406191453192319833639800619000007357931   1020000200030000   333400010001204104000000281Myanmar Soft-Gate Tech Yangon        MMR11006191453192319830619000000000000000   10300001F05104100000000000206000000000000     
100   62911028202440680000000000004250000000004250002000000010410406191035184319004773800619217017431900   1040001600030000   591220000296000000010000284Shwe Ohh Pharmacy (Lan Yangon        MMR11006191035184319000619000000000000000   10300001F00104100000000000255000000000000     
100   95050315344668630000000000009100000000009100002000000010410406171039550006338098770617216817000633   1030000500030000   541120203706000015411202037CITY MART SUPERMARKET  PTN           MMR11006171039550006330617000000000000000   10300001 00104100000000002275000000000000     
100   95030364439875210000000000011600000000011600002000000010410406181204250000894773800618000350924846   1030000300030000   531100001267000000000000869CB BANK                G & G CONVENI MMR11006181204250000890618000000000000000   10300001F00104100000000000696000000000000     
100   62911028202162640000000000034250000000034250002000000010410406181046180024224773800618216917002422   1030000500030000   541120020902022205411200209ORANGE (HLAING)        PTN           MMR11006181046180024220618000000000000000   10300001 00104100000000002055000000000000     
100   62443100306028540000000000021350000000021350002000000010410406170537410017361502630617216812001736   1030000500030000   581220021101000015812200211SHWE LAR HOT POT       PTN           MMR11006170537410017360617000000000000000   10300001 00104100000000009074000000000000     
100   62443100369813440000000000051800000000051800002000000010410406170725160017608148210617216813001760   1030000500030000   581220041801000055812200418SHWE LAR HOT POT       PTN           MMR11006170725160017600617000000000000000   10300001 00104100000000022015000000000000     
100   95050322295410690000000000005650000000005650002000000010410406171245290010396943080617216819001039   1030000500030000   531120226303000045311202263OCEAN SUPER CENTER STJ PTN           MMR11006171245290010390617000000000000000   10300001 00104100000000001356000000000000     
100   95050322295410690000000000015450000000015450002000000010410406171247360010405290590617216819001040   1030000500030000   531120226303000045311202263OCEAN SUPER CENTER STJ PTN           MMR11006171247360010400617000000000000000   10300001 00104100000000003708000000000000     
100   95050325141379530000000000067000000000067000002000000010410406171050170031759836350617216817003175   1030000500030000   598320041903000055983200419MAX ENERGY             PTN           MMR11006171050170031750617000000000000000   10300001 00104100000000008040000000000000     
100   62911028202108460000000000051000000000051000002000000010410406170227260053294773800617216808005329   1030000500030000   598320001203000015172200012MAX ENERGY             PTN           MMR11006170227260053290617000000000000000   10300001 00104100000000001530000000000000     
100   62911028202285820000000000033000000000033000002000000010410406170441520048284773800617216811004828   1030000500030000   598320001104000015172200011MAX ENERGY             PTN           MMR11006170441520048280617000000000000000   10300001 00104100000000000990000000000000     
100   95030301100022270000000000026874000000026874002000000010410406170830530038874773800617216815003887   1030000500030000   598320001601000015172200016MAX ENERGY             PTN           MMR11006170830530038870617000000000000000   10300001 00104100000000000806000000000000     
100   95050312498129060000000000003920000000003920002000000010410406191105093509573970420619000007357148   1020000200030000   333400010001204104000000281Myanmar Soft-Gate Tech Yangon        MMR11006191105093509570619000000000000000   10300001F05104100000000000823000000000000     
100   62911028202471600000000000002500000000002500002000000010410406191217456038464773800619437471845169   1030000900030000   591219000507190110000000354Shwe Ohh Pharmacy - (S YANGON        MMR11006191217456038460619000000000000000   10300001F00104100000000000150000000000000     
100   95030301100124400000000000010200000000010200002000000010410406190954355998214773800619808241635169   1030000900030000   541119001274190110000000961City Mart PLST City Ca YANGONMYOTHIT MMR11006190954355998210619000000000000000   10300001F00104100000000000612000000000000     
100   95030301100103940000000000041450000000041450002000000010410406191141414379444773800619217018437944   1040001600030000   541120000573000000010000465Ocean Shwe Gone Daing  Yangon        MMR11006191141414379440619000000000000000   10300001F00104100000000002487000000000000     
100   62911028202147720000000000030000000000030000002000000010410406180032300038724773800618216907003872   1030000500030000   598320001604000015172200016MAX ENERGY             PTN           MMR11006180032300038720618000000000000000   10300001 00104100000000000900000000000000     
100   62911028202142930000000000018000000000018000002000000010410406180730300037584773800618216914003758   1030000500030000   598320002102000015172200021MAX ENERGY             PTN           MMR11006180730300037580618000000000000000   10300001 00104100000000000540000000000000     
100   62443100379321630000000000039612000000039612002000000010410406181039113572271395670618216917357227   1040001600030000   598320000315000000010000303PT Power Petrol Statio Yangon        MMR11006181039113572270618000000000000000   10300001F00104100000000004754000000000000     
100   62911028202074950000000000025000000000025000002000000010410406172353460047134773800618216906004713   1030000500030000   598320001201000015172200012MAX ENERGY             PTN           MMR11006172353460047130618000000000000000   10300001 00104100000000000750000000000000     
