100   62443100306416880000000000024289000000024289002000000010410406191205280056531180420619217018005653   1030000500030000   598320001303000015172200013MAX ENERGY             PTN           MMR11006191205280056530619000000000000000   10300001 00104100000000002915000000000000     
100   62443100306045460000000000045187000000045187002000000010410406161209130001022553490616216712000102   1030000600030000   5499000024193157994200016871 STOP S M PIN LONE    YANGON        MMR11006161209130001020616000000000000000   10300001 00104100000000019205000000000000     
100   95050326228858240000000000030000000000030000002000000010410406160354230076386327670616216703007638   1030000600030000   554100002141315799420001490DENKO MEIKHTILA 3      MANDALAY      MMR11006160354230076380616000000000000000   10300001 00104100000000003600000000000000     
100   95050326228858240000000000075000000000075000002000000010410406160355010076399632640616216703007639   1030000600030000   554100002141315799420001490DENKO MEIKHTILA 3      MANDALAY      MMR11006160355010076390616000000000000000   10300001 00104100000000009000000000000000     
100   95030301100126550000000000042000000000042000002000000010410406161040580202184773800616216710020218   1030000600030000   554100002323315799420000474DENKO N.DAGON - 1      YANGON        MMR11006161040580202180616000000000000000   10300001 00104100000000001260000000000000     
100   62911028202790560000000000037200000000037200002000000010410406190945564278724773800619217016427872   1040001600030000   581420000076000000010000074Hot Pot City Ahlone    Yangon        MMR11006190945564278720619000000000000000   10300001F00104100000000001116000000000000     
100   62911028202737030000000000300000000000300000002000000010410406201455502550504773800620000007364035   1030000200030000   333800010001203104000003327KBZPay                 Yangon        MMR11006201455502550500620000000000000000   10300001F05104100000000063000000000000000     
100   95030300515226620000000000056500000000056500002000000010410406190503530000524773800619000351034369   1030000300030000   531100000918000000000000655CB BANK                MGOU-JS       MMR11006190503530000520619000000000000000   10300001F00104100000000003390000000000000     
100   95050327416134790000000000001960000000001960002000000010410406201307253725664219980620000007363608   1020000200030000   333400010001204104000000281Myanmar Soft-Gate Tech Yangon        MMR11006201307253725660620000000000000000   10300001F05104100000000000412000000000000     
100   95050310332595380000000000014700000000014700002000000010410406200209473947800442610620000007358766   1020000200030000   333400010001204104000000281Myanmar Soft-Gate Tech Yangon        MMR11006200209473947800620000000000000000   10300001F05104100000000003087000000000000     
100   95050314565805350000000000025000000000025000002000000010410406200606573657163452840620000007360857   1030000200030000   333800010001203104000003327KBZPay                 Yangon        MMR11006200606573657160620000000000000000   10300001F05104100000000005250000000000000     
100   62443100314002660000000000034000000000034000002000000010410406200708066199297995240620736381306170   1030000900030000   723019001041190110000000846Beauty Diary IS        YANGONUT      MMR11006200708066199290620000000000000000   10300001F00104100000000008160000000000000     
100   95050321232876860000000000081000000000081000002000000010410406170312000146303440110617216803014630   1030000600030000   554100002328315799420001235DENKO NAY PYI TAW 2    NAYPYITAW     MMR11006170312000146300617000000000000000   10300001 00104100000000009720000000000000     
100   95050319938772870000000000001960000000001960002000000010410406200345121512141323090620000007359540   1020000200030000   333400010001204104000000281Myanmar Soft-Gate Tech Yangon        MMR11006200345121512140620000000000000000   10300001F05104100000000000412000000000000     
100   95050319938772870000000000000980000000000980002000000010410406201500113011286772910620000007364043   1020000200030000   333400010001204104000000281Myanmar Soft-Gate Tech Yangon        MMR11006201500113011280620000000000000000   10300001F05104100000000000206000000000000     
100   62911028202136750000000000046000000000046000002000000010410406191201040075764773800619217018007576   1030000500030000   598320001901000015172200019MAX ENERGY             PTN           MMR11006191201040075760619000000000000000   10300001 00104100000000001380000000000000     
100   62911028202530930000000000048450000000048450002000000010410406191133430031414773800619217018003141   1030000500030000   581220146401013205812201464THAI 47 (HELPIN BRANCH PTN           MMR11006191133430031410619000000000000000   10300001 00104100000000004942000000000000     
100   62911028202792960000000000055000000000055000002000000010410406190939170040714773800619217016004071   1030000500030000   598320001601000015172200016MAX ENERGY             PTN           MMR11006190939170040710619000000000000000   10300001 00104100000000001650000000000000     
100   95050320559934420000000000129150000000129150002000000010410406200723256202885796530620913531325170   1030000900030000   581219000206190110000000108Beauty in the Pot      YANGON        MMR11006200723256202880620000000000000000   10300001F00104100000000054889000000000000     
100   95050312224678430000000000000980000000000980002000000010410406200820235023327498460620000007361837   1020000200030000   333400010001204104000000281Myanmar Soft-Gate Tech Yangon        MMR11006200820235023320620000000000000000   10300001F05104100000000000206000000000000     
100   95050314893649800000000000009800000000009800002000000010410406200506323632768347020620000007360345   1020000200030000   333400010001204104000000281Myanmar Soft-Gate Tech Yangon        MMR11006200506323632760620000000000000000   10300001F05104100000000002058000000000000     
100   95050312933828140000000000036046000000036046002000000010410406190429580005900459610619217010000590   1030000500030000   541120203805000015411202038CITY MART SUPERMARKET  PTN           MMR11006190429580005900619000000000000000   10300001 00104100000000009012000000000000     
100   95050317343045830000000000002940000000002940002000000010410406201543391339355921900620000007364177   1020000200030000   333400010001204104000000281Myanmar Soft-Gate Tech Yangon        MMR11006201543391339350620000000000000000   10300001F05104100000000000617000000000000     
100   62911028202662930000000000014800000000014800002000000010410406191236430006444773800619217019000644   1030000500030000   531120226314000045311202263OCEAN SUPER CENTER STJ PTN           MMR11006191236430006440619000000000000000   10300001 00104100000000000888000000000000     
100   95050318416662540000000000007010000000007010002000000010410406201237250725027127060620000007363488   1030000200030000   333800010001203104000003327KBZPay                 Yangon        MMR11006201237250725020620000000000000000   10300001F05104100000000001472000000000000     
100   62911028202154800000000000048500000000048500002000000010410406200436300042254773800620000748756052   1030000200030000   599988000600000008000003439KBZ BANK               SWEETY HOME ( MMR11006200436300042250620000000000000000   10300001 00104100000000002910000000000000     
100   62911028202207610000000000013950000000013950002000000010410406201602540036484773800620000748778741   1030000200030000   541188001079000008000000294KBZ BANK               CITY MART - J MMR11006201602540036480620000000000000000   10300001 00104100000000000837000000000000     
100   95030389237176000000000000038900000000038900002000000010410406201042060032204773800620000748754063   1030000200030000   541188001348000008000000395KBZ BANK               OCEAN SUPERMA MMR11006201042060032200620000000000000000   10300001 00104100000000002334000000000000     
100   95030301988332950000000000015300000000015300002000000010410406201146100020114773800620000748759577   1030000200030000   541188001484000008000000399KBZ BANK               OCEAN SUPERCE MMR11006201146100020110620000000000000000   10300001 00104100000000000918000000000000     
100   95050314064416890000000000001960000000001960002000000010410406200835070507770830960620000007361989   1020000200030000   333400010001204104000000281Myanmar Soft-Gate Tech Yangon        MMR11006200835070507770620000000000000000   10300001F05104100000000000412000000000000     
100   62911028202139640000000000035848000000035848002000000010410406201936390350724773800620000748787664   1030000200030000   541188001039000008000000010KBZ BANK               MARKETPLACE - MMR11006201936390350720620000000000000000   10300001 00104100000000002151000000000000     
100   95050313968650950000000000000980000000000980002000000010410406200241431143789665360620000007358900   1020000200030000   333400010001204104000000281Myanmar Soft-Gate Tech Yangon        MMR11006200241431143780620000000000000000   10300001F05104100000000000206000000000000     
100   95050312360118350000000000001000000000001000002000000010410406200546511651723169960620000007360732   1030000200030000   3334000100012031040000040102C2P (Myanmar) Co. Ltd Yangon        MMR11006200546511651720620000000000000000   10300001F05104100000000000210000000000000     
100   95050325455962190000000000001960000000001960002000000010410406200240561056873919970620000007358897   1020000200030000   333400010001204104000000281Myanmar Soft-Gate Tech Yangon        MMR11006200240561056870620000000000000000   10300001F05104100000000000412000000000000     
100   62911028202233510000000000021402000000021402002000000010410406201509450146264773800620000748775864   1030000200030000   541188001023000008000000298KBZ BANK               CITY MART - M MMR11006201509450146260620000000000000000   10300001 00104100000000001284000000000000     
100   62443100300412100000000000032868000000032868002000000010410406201110530358587567410620000748756487   1030000200030000   541188001041000008000000010KBZ BANK               MARKETPLACE - MMR11006201110530358580620000000000000000   10300001 00104100000000008217000000000000     
100   95050313732480420000000000002940000000002940002000000010410406200954552455699908730620000007362742   1020000200030000   333400010001204104000000281Myanmar Soft-Gate Tech Yangon        MMR11006200954552455690620000000000000000   10300001F05104100000000000617000000000000     
100   95050313396828960000000000001960000000001960002000000010410406201102483248345779320620000007363100   1020000200030000   333400010001204104000000281Myanmar Soft-Gate Tech Yangon        MMR11006201102483248340620000000000000000   10300001F05104100000000000412000000000000     
100   95050314893649800000000000000980000000000980002000000010410406201237420742327552560620000007363490   1020000200030000   333400010001204104000000281Myanmar Soft-Gate Tech Yangon        MMR11006201237420742320620000000000000000   10300001F05104100000000000206000000000000     
100   95050317072727910000000000000980000000000980002000000010410406201042561256682586990620000007363031   1020000200030000   333400010001204104000000281Myanmar Soft-Gate Tech Yangon        MMR11006201042561256680620000000000000000   10300001F05104100000000000206000000000000     
100   95050315743141220000000000000980000000000980002000000010410406201048471847072161530620000007363053   1020000200030000   333400010001204104000000281Myanmar Soft-Gate Tech Yangon        MMR11006201048471847070620000000000000000   10300001F05104100000000000206000000000000     
100   95050325095525130000000000300000000000300000002000000010410406200648481848494729270620000007361095   1030000200030000   333800010001203104000003327KBZPay                 Yangon        MMR11006200648481848490620000000000000000   10300001F05104100000000063000000000000000     
100   95050314534800510000000000000985000000000985002000000010410406200250032003214697210620000007358944   1020000200030000   333400010001204104000000281Myanmar Soft-Gate Tech Yangon        MMR11006200250032003210620000000000000000   10300001F05104100000000000207000000000000     
100   95050316601084530000000000000980000000000980002000000010410406201344431443590319350620000007363747   1020000200030000   333400010001204104000000281Myanmar Soft-Gate Tech Yangon        MMR11006201344431443590620000000000000000   10300001F05104100000000000206000000000000     
100   95050318919136220000000000079778000000079778002000000010410406201142090058277921560620000748759239   1030000200030000   541188001420000008000000401KBZ BANK               OCEAN SUPERCE MMR11006201142090058270620000000000000000   10300001 00104100000000019945000000000000     
100   95050318141561190000000000020000000000020000002000000010410406200243521352875111690620000007358908   1030000200030000   3338000100012031040000040022C2P (Myanmar) Co. Ltd Yangon        MMR11006200243521352870620000000000000000   10300001F05104100000000004200000000000000     
100   95050328275983620000000000004900000000004900002000000010410406200345101510497847920620000007359536   1020000200030000   333400010001204104000000281Myanmar Soft-Gate Tech Yangon        MMR11006200345101510490620000000000000000   10300001F05104100000000001029000000000000     
100   95030367537085740000000000002940000000002940002000000010410406200802293229884773800620000007361707   1020000200030000   333400010001204104000000281Myanmar Soft-Gate Tech Yangon        MMR11006200802293229880620000000000000000   10300001F05104100000000000617000000000000     
100   62911028202166940000000000054950000000054950002000000010410406201827190189434773800620000748785467   1030000200030000   541188001126000008000000296KBZ BANK               CITY MART - J MMR11006201827190189430620000000000000000   10300001 00104100000000003297000000000000     
100   95050315445638160000000000080000000000080000002000000010410406200232370237430659080620000007358853   1030000200030000   333800010001203104000003327KBZPay                 Yangon        MMR11006200232370237430620000000000000000   10300001F05104100000000016800000000000000     
100   62911028202737030000000000300000000000300000002000000010410406201457072707914773800620000007364036   1030000200030000   333800010001203104000003327KBZPay                 Yangon        MMR11006201457072707910620000000000000000   10300001F05104100000000063000000000000000     
100   95050312224678430000000000001960000000001960002000000010410406200501393139680971260620000007360295   1020000200030000   333400010001204104000000281Myanmar Soft-Gate Tech Yangon        MMR11006200501393139680620000000000000000   10300001F05104100000000000412000000000000     
100   95050313836159580000000000001960000000001960002000000010410406201539100910489397070620000007364166   1020000200030000   333400010001204104000000281Myanmar Soft-Gate Tech Yangon        MMR11006201539100910480620000000000000000   10300001F05104100000000000412000000000000     
100   95050312224678430000000000002940000000002940002000000010410406200046401640176286250620000007358549   1020000200030000   333400010001204104000000281Myanmar Soft-Gate Tech Yangon        MMR11006200046401640170620000000000000000   10300001F05104100000000000617000000000000     
100   95050312695033440000000000000980000000000980002000000010410406201257122712853651890620000007363559   1020000200030000   333400010001204104000000281Myanmar Soft-Gate Tech Yangon        MMR11006201257122712850620000000000000000   10300001F05104100000000000206000000000000     
100   62443100313529540000000000002940000000002940002000000010410406200232280228174913680620000007358854   1020000200030000   333400010001204104000000281Myanmar Soft-Gate Tech Yangon        MMR11006200232280228170620000000000000000   10300001F05104100000000000617000000000000     
100   95050312498129060000000000005880000000005880002000000010410406192352432243331960120620000007358484   1020000200030000   333400010001204104000000281Myanmar Soft-Gate Tech Yangon        MMR11006192352432243330620000000000000000   10300001F05104100000000001235000000000000     
100   62911028202737030000000000300000000000300000002000000010410406201454342434024773800620000007364025   1030000200030000   333800010001203104000003327KBZPay                 Yangon        MMR11006201454342434020620000000000000000   10300001F05104100000000063000000000000000     
100   95050316321163940000000000026000000000026000002000000010410406201040101010116062200620000007363014   1030000200030000   333800010001203104000003327KBZPay                 Yangon        MMR11006201040101010110620000000000000000   10300001F05104100000000005460000000000000     
100   95050318712627500000000000000980000000000980002000000010410406200255092509847636310620000007358978   1020000200030000   333400010001204104000000281Myanmar Soft-Gate Tech Yangon        MMR11006200255092509840620000000000000000   10300001F05104100000000000206000000000000     
100   95050316321163940000000000002940000000002940002000000010410406201402583258846418720620000007363829   1020000200030000   333400010001204104000000281Myanmar Soft-Gate Tech Yangon        MMR11006201402583258840620000000000000000   10300001F05104100000000000617000000000000     
100   62911028202472440000000000063953000000063953002000000010410406201414310105754773800620000748771717   1030000200030000   541188001022000008000000298KBZ BANK               CITY MART - M MMR11006201414310105750620000000000000000   10300001 00104100000000003837000000000000     
100   95050311382087030000000000017000000000017000002000000010410406201214004400208474800620000007363405   1030000200030000   333800010001203104000003327KBZPay                 Yangon        MMR11006201214004400200620000000000000000   10300001F05104100000000003570000000000000     
100   62443100373945130000000000035892000000035892002000000010410406200620384869996999320620217113486999   1040001600030000   541120000555000000010000465Ocean Shwe Gone Daing  Yangon        MMR11006200620384869990620000000000000000   10300001F00104100000000008973000000000000     
100   95030349489765520000000000004650000000004650002000000010410406201047476253654773800620481171747170   1030000900030000   591219000969190110000000776Shwe Ohh Pharmacy St ( YANGONADA     MMR11006201047476253650620000000000000000   10300001F00104100000000000279000000000000     
100   95050315005801680000000000002940000000002940002000000010410406201103303330658403490620000007363101   1020000200030000   333400010001204104000000281Myanmar Soft-Gate Tech Yangon        MMR11006201103303330650620000000000000000   10300001F05104100000000000617000000000000     
100   95050311959900780000000000000980000000000980002000000010410406201408453845363369010620000007363856   1020000200030000   333400010001204104000000281Myanmar Soft-Gate Tech Yangon        MMR11006201408453845360620000000000000000   10300001F05104100000000000206000000000000     
100   95050313732480420000000000000980000000000980002000000010410406201000223022987710030620000007362797   1020000200030000   333400010001204104000000281Myanmar Soft-Gate Tech Yangon        MMR11006201000223022980620000000000000000   10300001F05104100000000000206000000000000     
100   95050312358501180000000000130100000000130100002000000010410406200450284815044589010620217111481504   1040001600030000   591220000275000000010000263Shwe Ohh Pharmacy (Hla Yangon        MMR11006200450284815040620000000000000000   10300001F00104100000000031224000000000000     
100   95050312498129060000000000003920000000003920002000000010410406201326525652231170310620000007363680   1020000200030000   333400010001204104000000281Myanmar Soft-Gate Tech Yangon        MMR11006201326525652230620000000000000000   10300001F05104100000000000823000000000000     
100   95050312298324450000000000001960000000001960002000000010410406200303393339922459260620000007359048   1020000200030000   333400010001204104000000281Myanmar Soft-Gate Tech Yangon        MMR11006200303393339920620000000000000000   10300001F05104100000000000412000000000000     
100   95050318670242480000000000300000000000300000002000000010410406201010044004881185160620000007362856   1030000200030000   333800010001203104000003327KBZPay                 Yangon        MMR11006201010044004880620000000000000000   10300001F05104100000000063000000000000000     
100   62911028202136750000000000052000000000052000002000000010410406170348000528604773800617216803052860   1030000600030000   554100001001315799420000498DENKO SHWE PYI THAR    YANGON        MMR11006170348000528600617000000000000000   10300001 00104100000000001560000000000000     
100   62443100302523870000000000040000000000040000002000000010410406170001580170830099490617216800017083   1030000600030000   554100002324315799420000481DENKO NORTH OKKALAPA   YANGON        MMR11006170001580170830617000000000000000   10300001 00104100000000004800000000000000     
100   95050329352979980000000000050000000000050000002000000010410406170739010378448233310617216807037844   1030000600030000   554100001155315799420000607DENKO NPT 1            NAYPYITAW.    MMR11006170739010378440617000000000000000   10300001 00104100000000006000000000000000     
100   62443100303702210000000000140000000000140000002000000010410406170528520085516800460617216805008551   1030000600030000   554100002322315799420000497DENKO KONE TA LA PAUNG YANGON        MMR11006170528520085510617000000000000000   10300001 00104100000000016800000000000000     
100   95030318100004530000000000015000000000015000002000000010410406170456270153094773800617216804015309   1030000600030000   554100001754315799420001135DENKO KYITE HTO        MON STATE.    MMR11006170456270153090617000000000000000   10300001 00104100000000000450000000000000     
100   95050324850150480000000000050000000000050000002000000010410406170417280304487346700617216804030448   1030000600030000   554100001116315799420000574DENKO HLAE KUU         HLAE KUU      MMR11006170417280304480617000000000000000   10300001 00104100000000006000000000000000     
100   62911028202151340000000000006900000000006900002000000010410406190712590001554773800619217013000155   1030000500030000   531120226324000045311202263OCEAN SUPER CENTER STJ PTN           MMR11006190712590001550619000000000000000   10300001 00104100000000000414000000000000     
100   95050320694620120000000000211680000000211680002000000010410406190920130002824431560619000351067540   1030000300030000   581200001803000000000001289CB BANK                SHWE KAUNG (S MMR11006190920130002820619000000000000000   10300001F00104100000000089964000000000000     
100   62911028202291270000000001750000000001750000002000000010410406200726596203564773800620940561359170   1030000900030000   59441900111719011000000089829 Jewellery U Chit Ma YANGON        MMR11006200726596203560620000000000000000   10300001F00104100000000105000000000000000     
100   95030367537085740000000000000980000000000980002000000010410406201405373537934773800620000007363846   1020000200030000   333400010001204104000000281Myanmar Soft-Gate Tech Yangon        MMR11006201405373537930620000000000000000   10300001F05104100000000000206000000000000     
100   95050315259054570000000000000980000000000980002000000010410406200310084008265934430620000007359130   1020000200030000   333400010001204104000000281Myanmar Soft-Gate Tech Yangon        MMR11006200310084008260620000000000000000   10300001F05104100000000000206000000000000     
100   95050322312885760000000000004500000000004500002000000010410406200823375337750973630620000007361872   1030000200030000   333800010001203104000003327KBZPay                 Yangon        MMR11006200823375337750620000000000000000   10300001F05104100000000000945000000000000     
100   95050318141561190000000000002940000000002940002000000010410406200427225722903450480620000007359980   1020000200030000   333400010001204104000000281Myanmar Soft-Gate Tech Yangon        MMR11006200427225722900620000000000000000   10300001F05104100000000000617000000000000     
100   95050312498129060000000000001960000000001960002000000010410406200200323032371932960620000007358734   1020000200030000   333400010001204104000000281Myanmar Soft-Gate Tech Yangon        MMR11006200200323032370620000000000000000   10300001F05104100000000000412000000000000     
100   95050311068653690000000000100000000000100000002000000010410406200208283828931435890620000007358760   1030000200030000   333800010001203104000003327KBZPay                 Yangon        MMR11006200208283828930620000000000000000   10300001F05104100000000021000000000000000     
100   95050312298324450000000000002940000000002940002000000010410406200305383538486359890620000007359077   1020000200030000   333400010001204104000000281Myanmar Soft-Gate Tech Yangon        MMR11006200305383538480620000000000000000   10300001F05104100000000000617000000000000     
100   62911028202490830000000000700000000000700000002000000010410406190251400015234773800619217009001523   1030000500030000   806220046404006308062200464ASIA ROYAL HOSPITAL    PTN           MMR11006190251400015230619000000000000000   10300001 00104100000000042000000000000000     
100   62911028202761360000000000092512000000092512002000000010410406191013470002374773800619217016000237   1030000500030000   531120231217000045311202312OCEAN OATTARA THIRI    PTN           MMR11006191013470002370619000000000000000   10300001 00104100000000005551000000000000     
100   62443100306045460000000000072500000000072500002000000010410406191152480007350329500619217018000735   1030000500030000   581220123001000045812201230YOON KITCHEN           PTN           MMR11006191152480007350619000000000000000   10300001 00104100000000030813000000000000     
100   95050329068434320000000000033650000000033650002000000010410406191259010009227137170619217019000922   1030000500030000   541120227604000045411202276CITY MART ( 47 BRANCH  PTN           MMR11006191259010009220619000000000000000   10300001 00104100000000008413000000000000     
100   62911028202162640000000000017500000000017500002000000010410406191118480013234773800619217017001323   1030000500030000   591220132901008605912201329THEIK DI WIN SHOP      PTN           MMR11006191118480013230619000000000000000   10300001 00104100000000001050000000000000     
100   62443100358839880000000000068000000000068000002000000010410406190032420005861516420619217007000586   1030000500030000   799220099801013607992200998YANGON GOLF CLUB       PTN           MMR11006190032420005860619000000000000000   10300001 00104100000000016320000000000000     
100   62911028202045260000000000014500000000014500002000000010410406190821340002024773800619217014000202   1030000500030000   541120234801000045411202348CITY EXPRESS (MCS - 10 PTN           MMR11006190821340002020619000000000000000   10300001 00104100000000000870000000000000     
100   95050326750398570000000000013016000000013016002000000010410406191110270007112062640619217017000711   1030000500030000   531120226732000045311202267OCEAN NORTH POINT      PTN           MMR11006191110270007110619000000000000000   10300001 00104100000000003124000000000000     
100   95050316321163940000000000000980000000000980002000000010410406201409453945975993220620000007363861   1020000200030000   333400010001204104000000281Myanmar Soft-Gate Tech Yangon        MMR11006201409453945970620000000000000000   10300001F05104100000000000206000000000000     
100   62911028202000450000000000004900000000004900002000000010410406200815034503384773800620000007361794   1020000200030000   333400010001204104000000281Myanmar Soft-Gate Tech Yangon        MMR11006200815034503380620000000000000000   10300001F05104100000000001029000000000000     
100   95050318242219520000000000000980000000000980002000000010410406200312344234560686020620000007359154   1020000200030000   333400010001204104000000281Myanmar Soft-Gate Tech Yangon        MMR11006200312344234560620000000000000000   10300001F05104100000000000206000000000000     
100   95050318712627500000000000002940000000002940002000000010410406200115244524663236540620000007358601   1020000200030000   333400010001204104000000281Myanmar Soft-Gate Tech Yangon        MMR11006200115244524660620000000000000000   10300001F05104100000000000617000000000000     
100   95050318988837600000000000000980000000000980002000000010410406200918454845992461620620000007362351   1020000200030000   333400010001204104000000281Myanmar Soft-Gate Tech Yangon        MMR11006200918454845990620000000000000000   10300001F05104100000000000206000000000000     
100   95050311926829590000000000001960000000001960002000000010410406200320215021553593100620000007359259   1020000200030000   333400010001204104000000281Myanmar Soft-Gate Tech Yangon        MMR11006200320215021550620000000000000000   10300001F05104100000000000412000000000000     
100   62911028202170490000000000014000000000014000002000000010410406200436556160814773800620852061155170   1030000900030000   723019001054190110000000857Beauty Diary JC        YANGONN       MMR11006200436556160810620000000000000000   10300001F00104100000000000840000000000000     
100   95050316377977350000000000010000000000010000002000000010410406200152152215327181290620000007358711   1040001600030000   333800010001220104000004507A +                    Yangon        MMR11006200152152215320620000000000000000   10300001F05104100000000002100000000000000     
100   62911028202906570000000000022776000000022776002000000010410406191136020003484773800619217018000348   1030000500030000   541120230001000045411202300MARKET PLACE BY CITY M PTN           MMR11006191136020003480619000000000000000   10300001 00104100000000001367000000000000     
100   62443101015591650000000000018500000000018500002000000010410406190747550004395658560619217014000439   1030000500030000   581220216101000085812202161ASTONS                 PTN           MMR11006190747550004390619000000000000000   10300001 00104100000000007863000000000000     
100   95050312933828140000000000012850000000012850002000000010410406190430460005918807120619217011000591   1030000500030000   541120203805000015411202038CITY MART SUPERMARKET  PTN           MMR11006190430460005910619000000000000000   10300001 00104100000000003213000000000000     
100   62443101037081820000000000035000000000035000002000000010410406191140250006347633940619217018000634   1030000500030000   531120226314000045311202263OCEAN SUPER CENTER STJ PTN           MMR11006191140250006340619000000000000000   10300001 00104100000000008400000000000000     
100   95050320205194540000000000008200000000008200002000000010410406190902410007464771940619217015000746   1030000500030000   591220013501014405912200135SHWE OHH PHARMACY      PTN           MMR11006190902410007460619000000000000000   10300001 00104100000000001968000000000000     
100   62911028202132460000000000015350000000015350002000000010410406190914180007904773800619217015000790   1030000500030000   541120227605000045411202276CITY MART ( 47 BRANCH  PTN           MMR11006190914180007900619000000000000000   10300001 00104100000000000921000000000000     
100   62911028202280200000000000249000000000249000002000000010410406190854290010424773800619217015001042   1030000500030000   481220073201005904812200732TECHNOLAND COMPUTER TR PTN           MMR11006190854290010420619000000000000000   10300001 00104100000000014940000000000000     
100   62911028202284260000000000060500000000060500002000000010410406190510550012054773800619217011001205   1030000500030000   806220172403013008062201724GRAND HANTHA HOSPITAL  PTN           MMR11006190510550012050619000000000000000   10300001 00104100000000003630000000000000     
100   95050319379439060000000000005000000000005000002000000010410406200459012901078915140620000007360271   1030000200030000   333800010001203104000003327KBZPay                 Yangon        MMR11006200459012901070620000000000000000   10300001F05104100000000001050000000000000     
100   95050316377977350000000000005000000000005000002000000010410406200208293829135194280620000007358761   1030000200030000   3338000100012031040000040022C2P (Myanmar) Co. Ltd Yangon        MMR11006200208293829130620000000000000000   10300001F05104100000000001050000000000000     
100   62911028202142850000000000044500000000044500002000000010410406200517296170734773800620315471129170   1030000900030000   541119001353190110000000977Ocean PZD C 7          YANGONAUNG    MMR11006200517296170730620000000000000000   10300001F00104100000000002670000000000000     
100   95050315122972560000000000000980000000000980002000000010410406200709513951958420700620000007361297   1020000200030000   333400010001204104000000281Myanmar Soft-Gate Tech Yangon        MMR11006200709513951950620000000000000000   10300001F05104100000000000206000000000000     
100   62911028202077010000000000064000000000064000002000000010410406201017084708834773800620000007362884   1030000200030000   3333000100012031040000040282C2P (Myanmar) Co. Ltd Yangon        MMR11006201017084708830620000000000000000   10300001F05104100000000010000000000000000     
100   62911028202298040000000000036100000000036100002000000010410406200351494788614773800620217110478861   1040001600030000   591220000043000000010000041Mingalar Pharmacy      Yangon        MMR11006200351494788610620000000000000000   10300001F00104100000000002166000000000000     
100   62911028202916630000000000050000000000050000002000000010410406201424005400304773800620000007363921   1030000200030000   333800010001203104000003327KBZPay                 Yangon        MMR11006201424005400300620000000000000000   10300001F05104100000000010500000000000000     
100   95050315919368400000000000063000000000063000002000000010410406200305243524972884720620000007359069   1030000200030000   333800010001203104000003327KBZPay                 Yangon        MMR11006200305243524970620000000000000000   10300001F05104100000000013230000000000000     
100   62443100378093870000000000098000000000098000002000000010410406190710510000912608880619000351050644   1030000300030000   541100002356000000000000102CB BANK                MAKRO MYANMAR MMR11006190710510000910619000000000000000   10300001F00104100000000024500000000000000     
100   95050310739614720000000000041000000000041000002000000010410406190547080002159232600619000351039890   1030000300030000   531100000750000000000000408CB BANK                CAPITAL HYPER MMR11006190547080002150619000000000000000   10300001F00104100000000009840000000000000     
100   62911028202461130000000000018850000000018850002000000010410406190711380006244773800619217013000624   1030000500030000   541120203704000015411202037CITY MART SUPERMARKET  PTN           MMR11006190711380006240619000000000000000   10300001 00104100000000001131000000000000     
100   95050319391394380000000000035000000000035000002000000010410406190511480010772537570619217011001077   1030000500030000   531120155805000045311201558GAMONE PWINT           PTN           MMR11006190511480010770619000000000000000   10300001 00104100000000008400000000000000     
100   62911028202151340000000000045300000000045300002000000010410406190704050011004773800619217013001100   1030000500030000   531120226303000045311202263OCEAN SUPER CENTER STJ PTN           MMR11006190704050011000619000000000000000   10300001 00104100000000002718000000000000     
100   62911028202446540000000000600000000000600000002000000010410406190717130005444773800619217013000544   1030000500030000   806220009105024108062200091ARYU INTL HOSPITAL     PTN           MMR11006190717130005440619000000000000000   10300001 00104100000000036000000000000000     
100   62911028202202580000000000059000000000059000002000000010410406190514080008114773800619217011000811   1030000500030000   503920036605000015039200366PRO-1 HOME CENTER      PTN           MMR11006190514080008110619000000000000000   10300001 00104100000000003540000000000000     
100   62911028202446130000000000116550000000116550002000000010410406191021100002584773800619217016000258   1030000500030000   531120226318000045311202263OCEAN SUPER CENTER STJ PTN           MMR11006191021100002580619000000000000000   10300001 00104100000000006993000000000000     
100   95030367537085740000000000000980000000000980002000000010410406201016534653144773800620000007362885   1020000200030000   333400010001204104000000281Myanmar Soft-Gate Tech Yangon        MMR11006201016534653140620000000000000000   10300001F05104100000000000206000000000000     
100   95050314160856250000000000000980000000000980002000000010410406200928195819878986460620000007362458   1020000200030000   333400010001204104000000281Myanmar Soft-Gate Tech Yangon        MMR11006200928195819870620000000000000000   10300001F05104100000000000206000000000000     
100   62443100379321630000000000017300000000017300002000000010410406200839286220737781340620778091528170   1030000900030000   541119001371190110000000978Ocean PZD Season C 1   YANGONAUNG    MMR11006200839286220730620000000000000000   10300001F00104100000000004325000000000000     
100   95030364439875210000000000020000000000020000002000000010410406200754454914764773800620217114491476   1040001600030000   598320001170000000010000527Shwe Taung Energy (YGN Yangon        MMR11006200754454914760620000000000000000   10300001F00104100000000000600000000000000     
100   95050318712627500000000000000980000000000980002000000010410406201111154115305353820620000007363147   1020000200030000   333400010001204104000000281Myanmar Soft-Gate Tech Yangon        MMR11006201111154115300620000000000000000   10300001F05104100000000000206000000000000     
100   95050314893649800000000000000980000000000980002000000010410406200118574857558175000620000007358606   1020000200030000   333400010001204104000000281Myanmar Soft-Gate Tech Yangon        MMR11006200118574857550620000000000000000   10300001F05104100000000000206000000000000     
100   95050323233042810000000000000980000000000980002000000010410406200419384938409549850620000007359871   1020000200030000   333400010001204104000000281Myanmar Soft-Gate Tech Yangon        MMR11006200419384938400620000000000000000   10300001F05104100000000000206000000000000     
100   95050320624349010000000000050000000000050000002000000010410406200132586127428672080620490020858170   1030000900030000   554119001103190110000000215New Day Energy MYG     YANGONONE     MMR11006200132586127420620000000000000000   10300001F00104100000000006000000000000000     
100   62911028202761360000000000022000000000022000002000000010410406191023580004164773800619217016000416   1030000500030000   569120102701008205691201027ESCORT                 PTN           MMR11006191023580004160619000000000000000   10300001 00104100000000001320000000000000     
100   95050318699187280000000000003850000000003850002000000010410406191016500016514942130619217016001651   1030000500030000   531120155604000045311201556GAMONE PWINT           PTN           MMR11006191016500016510619000000000000000   10300001 00104100000000000924000000000000     
100   62911028202790560000000000045000000000045000002000000010410406190656260001914773800619217013000191   1030000500030000   806220022601000018062200226DR.Z                   PTN           MMR11006190656260001910619000000000000000   10300001 00104100000000002700000000000000     
100   62443100306416880000000000005700000000005700002000000010410406190915070004178162000619000351066894   1030000300030000   581200001141000000000000802CB BANK                LUMBINI TEA R MMR11006190915070004170619000000000000000   10300001F00104100000000002423000000000000     
100   62911028202610540000000000003600000000003600002000000010410406190520050004704773800619217011000470   1030000500030000   531120226331000045311202263OCEAN SUPER CENTER STJ PTN           MMR11006190520050004700619000000000000000   10300001 00104100000000000216000000000000     
100   62911028202197630000000000022800000000022800002000000010410406190757270006854773800619217014000685   1030000500030000   541120024704022205411200247ORANGE (SHWE PYI THAR) PTN           MMR11006190757270006850619000000000000000   10300001 00104100000000001368000000000000     
100   95050310739614720000000000049900000000049900002000000010410406190554580011025502160619000351040874   1030000300030000   531100000602000000000000408CB BANK                CAPITAL HYPER MMR11006190554580011020619000000000000000   10300001F00104100000000011976000000000000     
100   95030300515226620000000000006500000000006500002000000010410406190550460001174773800619000351040346   1030000300030000   531100000828000000000000565CB BANK                MGOU-SYT      MMR11006190550460001170619000000000000000   10300001F00104100000000000390000000000000     
100   62443101007477200000000000012900000000012900002000000010410406200542096177135794170620629121209170   1030000900030000   581219001121190110000000902Yoon Kitchen           YANGONONE     MMR11006200542096177130620000000000000000   10300001F00104100000000005483000000000000     
100   95050322715181550000000000040000000000040000002000000010410406171202320247183226420617216812024718   1030000600030000   554100002319315799420000477DENKO INSEIN           YANGON        MMR11006171202320247180617000000000000000   10300001 00104100000000004800000000000000     
100   62443101006037900000000000300000000000300000002000000010410406200705453545984945570620000007361257   1030000200030000   333800010001203104000003327KBZPay                 Yangon        MMR11006200705453545980620000000000000000   10300001F05104100000000063000000000000000     
100   62911028202280200000000000035006000000035006002000000010410406201156226273974773800620650261822170   1030000900030000   541119001187190110000000942City Mart HDC C 2      YANGONUT      MMR11006201156226273970620000000000000000   10300001F00104100000000002100000000000000     
100   62443100306416880000000000028500000000028500002000000010410406191004190005071977550619000351073336   1030000300030000   531100000932000000000000669CB BANK                MGOU-TMM      MMR11006191004190005070619000000000000000   10300001F00104100000000006840000000000000     
100   95050314557307430000000000002940000000002940002000000010410406201234580458647978020620000007363481   1020000200030000   333400010001204104000000281Myanmar Soft-Gate Tech Yangon        MMR11006201234580458640620000000000000000   10300001F05104100000000000617000000000000     
100   95030301100081330000000000007500000000007500002000000010410406190953290041514773800619000351071891   1030000300030000   581200000677000000000000464CB BANK                BREADTALK (JU MMR11006190953290041510619000000000000000   10300001F00104100000000000765000000000000     
100   62443101076362230000000000235283000000235283002000000010410406201448276307109468380620288182127170   1030000900030000   701119000071190110000000024Lotte Hotel            YANGON        MMR11006201448276307100620000000000000000   10300001F00104100000000099996000000000000     
100   62911028202442250000000000021000000000021000002000000010410406190123330057144773800619217007005714   1030000500030000   598320001204000015172200012MAX ENERGY             PTN           MMR11006190123330057140619000000000000000   10300001 00104100000000000630000000000000     
100   95030300515226620000000000014700000000014700002000000010410406190618550016894773800619217012001689   1030000500030000   531120155712000045311201557GAMONE PWINT           PTN           MMR11006190618550016890619000000000000000   10300001 00104100000000000882000000000000     
100   95030300515226620000000000063500000000063500002000000010410406190449140037684773800619000351032491   1030000300030000   569100001451000000000000998CB BANK                ADVISORY FASH MMR11006190449140037680619000000000000000   10300001F00104100000000003810000000000000     
100   62911028202728380000000000007000000000007000002000000010410406191106050035464773800619217017003546   1030000500030000   531120156002000045311201560GAMONE PWINT           PTN           MMR11006191106050035460619000000000000000   10300001 00104100000000000420000000000000     
100   95050325925517520000000000046000000000046000002000000010410406190737250038424006070619217014003842   1030000500030000   598320001602000015172200016MAX ENERGY             PTN           MMR11006190737250038420619000000000000000   10300001 00104100000000005520000000000000     
100   62911028202610540000000000083000000000083000002000000010410406190747410023854773800619217014002385   1030000500030000   569120104001008205691201040ESCORT ( CITY MALL-ST. PTN           MMR11006190747410023850619000000000000000   10300001 00104100000000004980000000000000     
100   95030308100042590000000000058000000000058000002000000010410406191013380039154773800619217016003915   1030000500030000   598320001701000015172200017MAX ENERGY             PTN           MMR11006191013380039150619000000000000000   10300001 00104100000000001740000000000000     
100   95050329734064360000000000030000000000030000002000000010410406190736180059339389000619217014005933   1030000500030000   598320001404000015172200014MAX ENERGY             PTN           MMR11006190736180059330619000000000000000   10300001 00104100000000003600000000000000     
100   62443100355445150000000000053013000000053013002000000010410406190019300040594310800619217006004059   1030000500030000   598320001603000015172200016MAX ENERGY             PTN           MMR11006190019300040590619000000000000000   10300001 00104100000000006362000000000000     
100   62911028202728380000000000036500000000036500002000000010410406191053400046604773800619217017004660   1030000500030000   531120156007000045311201560GAMONE PWINT           PTN           MMR11006191053400046600619000000000000000   10300001 00104100000000002190000000000000     
100   62911028202231380000000000052000000000052000002000000010410406190810500075004773800619217014007500   1030000500030000   598320001901000015172200019MAX ENERGY             PTN           MMR11006190810500075000619000000000000000   10300001 00104100000000001560000000000000     
100   62443100369813440000000000020000000000020000002000000010410406190127400055378211450619217007005537   1030000500030000   598320001302000015172200013MAX ENERGY             PTN           MMR11006190127400055370619000000000000000   10300001 00104100000000002400000000000000     
100   62911028202527490000000000030000000000030000002000000010410406190358000059094773800619217010005909   1030000500030000   598320001004000015172200010MAX ENERGY             PTN           MMR11006190358000059090619000000000000000   10300001 00104100000000000900000000000000     
100   62911028202204490000000000031000000000031000002000000010410406191127120052424773800619217017005242   1030000500030000   598320001202000015172200012MAX ENERGY             PTN           MMR11006191127120052420619000000000000000   10300001 00104100000000000930000000000000     
100   62911028202474000000000000022511000000022511002000000010410406190253360048324773800619217009004832   1030000500030000   598320001201000015172200012MAX ENERGY             PTN           MMR11006190253360048320619000000000000000   10300001 00104100000000000675000000000000     
100   62911028202728380000000000032500000000032500002000000010410406191042550018874773800619217017001887   1030000500030000   531120156004000045311201560GAMONE PWINT           PTN           MMR11006191042550018870619000000000000000   10300001 00104100000000001950000000000000     
