100   95050316601084530000000000000980000000000980002000000010410406210157562756361805020621000007364837   1020000200030000   333400010001204104000000281Myanmar Soft-Gate Tech Yangon        MMR11006210157562756360621000000000000000   10300001F05104100000000000206000000000000     
100   95030318100004530000000000026000000000026000002000000010410406170831570187194773800617216808018719   1030000600030000   554100002320315799420000564DENKO PHYUU            PHYUU         MMR11006170831570187190617000000000000000   10300001 00104100000000000780000000000000     
100   95030301100022270000000000043541000000043541002000000010410406191134510010854773800619217018001085   1030000500030000   541120226807000045411202268CITY MART WAIZAYANDA   PTN           MMR11006191134510010850619000000000000000   10300001 00104100000000002613000000000000     
100   62911028202147720000000000023000000000023000002000000010410406191134260002094773800619217018000209   1030000500030000   581220142001000015812201420GOLDEN DUCK (NAN THI D PTN           MMR11006191134260002090619000000000000000   10300001 00104100000000002346000000000000     
100   95030318100004530000000000020000000000020000002000000010410406190601450073284773800619217006007328   1030000600030000   554100001209315799420000661DENKO  MOTAMA          MOTAMA.       MMR11006190601450073280619000000000000000   10300001 00104100000000000600000000000000     
100   95050324850150480000000000050000000000050000002000000010410406190402120123295417060619217004012329   1030000600030000   554100001217315799420000669DENKO PHAYAR GYI       BAGO          MMR11006190402120123290619000000000000000   10300001 00104100000000006000000000000000     
100   62911028202027440000000000070000000000070000002000000010410406190215030189074773800619217002018907   1030000600030000   554100002320315799420000564DENKO PHYUU            PHYUU         MMR11006190215030189070619000000000000000   10300001 00104100000000002100000000000000     
100   62911028202366010000000000087000000000087000002000000010410406191110570148114773800619217011014811   1030000600030000   554100002328315799420001235DENKO NAY PYI TAW 2    NAYPYITAW     MMR11006191110570148110619000000000000000   10300001 00104100000000002610000000000000     
100   62443101093150400000000000042000000000042000002000000010410406210240465453247053380621217209545324   1040001600030000   591220000280000000010000268Shwe Ohh Pharmacy (Naw Yangon        MMR11006210240465453240621000000000000000   10300001F00104100000000010080000000000000     
100   95050310332595380000000000000980000000000980002000000010410406210121235123238120600621000007364722   1020000200030000   333400010001204104000000281Myanmar Soft-Gate Tech Yangon        MMR11006210121235123230621000000000000000   10300001F05104100000000000206000000000000     
100   95050324850150480000000000070000000000070000002000000010410406210144405425252655940621217208542525   1040001600030000   598320000320000000010000308PT Power Petrol Statio Yangon        MMR11006210144405425250621000000000000000   10300001F00104100000000008400000000000000     
100   62911028202031710000000000026000000000026000002000000010410406210246456381284773800621380160945171   1030000900030000   554119001101190110000000213New Day Energy SOK     YANGONOKKALAP MMR11006210246456381280621000000000000000   10300001F00104100000000000780000000000000     
100   95050315344668630000000000007600000000007600002000000010410406210237246379427478890621298070924171   1030000900030000   541119000112190110000000077Sein Gay Har Chinatown YANGON        MMR11006210237246379420621000000000000000   10300001F00104100000000001900000000000000     
100   95050312224678430000000000000980000000000980002000000010410406210528155815178219370621000007366375   1020000200030000   333400010001204104000000281Myanmar Soft-Gate Tech Yangon        MMR11006210528155815170621000000000000000   10300001F05104100000000000206000000000000     
100   62911028202417260000000000009000000000009000002000000010410406211216576528824773800621876461857171   1030000900030000   541119001255190110000000956City Mart JS Season C  YANGONUT      MMR11006211216576528820621000000000000000   10300001F00104100000000000540000000000000     
100   95050328941224760000000000108600000000108600002000000010410406210238136379583578260621303080913171   1030000900030000   591219000969190110000000776Shwe Ohh Pharmacy St ( YANGONADA     MMR11006210238136379580621000000000000000   10300001F00104100000000026064000000000000     
100   95050324082484780000000000026000000000026000002000000010410406190343370026696984440619217003002669   1030000600030000   554100000775315799420000342DENKO  YIN TAW         MANDALAY      MMR11006190343370026690619000000000000000   10300001 00104100000000003120000000000000     
100   62911028202088990000000000030000000000030000002000000010410406190124150060124773800619217001006012   1030000600030000   554100001211315799420000663DENKO  TETKONE         TETKONE       MMR11006190124150060120619000000000000000   10300001 00104100000000000900000000000000     
100   62911028202687780000000000054377000000054377002000000010410406190341340248914773800619217003024891   1030000600030000   554100002319315799420000477DENKO INSEIN           YANGON        MMR11006190341340248910619000000000000000   10300001 00104100000000001631000000000000     
100   95030305700676370000000000080000000000080000002000000010410406191007560035624773800619217010003562   1030000600030000   554100001228315799420000682DENKO MEIKHTILAR       MEIKHTILAR.   MMR11006191007560035620619000000000000000   10300001 00104100000000002400000000000000     
100   62911028202680670000000000038000000000038000002000000010410406190016070248614773800619217000024861   1030000600030000   554100002319315799420000477DENKO INSEIN           YANGON        MMR11006190016070248610619000000000000000   10300001 00104100000000001140000000000000     
100   62443101001072630000000000170000000000170000002000000010410406190009490301681005840619217000030168   1030000600030000   554100000725315799420000306DENKO MDY - 78         MANDALAY      MMR11006190009490301680619000000000000000   10300001 00104100000000020400000000000000     
100   62911028202795770000000000022000000000022000002000000010410406191223140939724773800619217012093972   1030000600030000   554100000946315799420000471DENKO BAHAN            YANGON        MMR11006191223140939720619000000000000000   10300001 00104100000000000660000000000000     
100   62911028202366010000000000080000000000080000002000000010410406190745350401604773800619217007040160   1030000600030000   554100001865315799420001235DENKO NAY PYI TAW 2    NAYPYITAW     MMR11006190745350401600619000000000000000   10300001 00104100000000002400000000000000     
100   95050311121153200000000000000980000000000980002000000010410406211329215921014172910621000007369361   1020000200030000   333400010001204104000000281Myanmar Soft-Gate Tech Yangon        MMR11006211329215921010621000000000000000   10300001F05104100000000000206000000000000     
100   95030300515226620000000000077392000000077392002000000010410406200745220006064773800620217114000606   1030000500030000   531120226725000045311202267OCEAN NORTH POINT      PTN           MMR11006200745220006060620000000000000000   10300001 00104100000000004644000000000000     
100   62911028202193670000000000431471000000431471002000000010410406210618384838424773800621000007366769   1010000100030000   333500010001212104000002840Internal Revenue Depar Yangon        MMR11006210618384838420621000000000000000   10300001F05104100000000060000000000000000     
100   62443100300412100000000000127627000000127627002000000010410406180839340140932038530618216908014093   1030000600030000   581200000524315799420000141FUJI COFFEE HOUSE      YANGON        MMR11006180839340140930618000000000000000   10300001 00104100000000054242000000000000     
100   62911028202077010000000000004900000000004900002000000010410406210417584758134773800621000007365844   1020000200030000   333400010001204104000000281Myanmar Soft-Gate Tech Yangon        MMR11006210417584758130621000000000000000   10300001F05104100000000001029000000000000     
100   95050325388974590000000000016850000000016850002000000010410406201140580009794857010620217118000979   1030000500030000   541120227604000045411202276CITY MART ( 47 BRANCH  PTN           MMR11006201140580009790620000000000000000   10300001 00104100000000004213000000000000     
100   62443100330048680000000000021002000000021002002000000010410406200845100052069057770620217115005206   1030000500030000   598320001101000015172200011MAX ENERGY             PTN           MMR11006200845100052060620000000000000000   10300001 00104100000000002520000000000000     
100   95050311876202380000000000030000000000030000002000000010410406201219160382534574130620217112038253   1030000600030000   554100001155315799420000607DENKO NPT 1            NAYPYITAW.    MMR11006201219160382530620000000000000000   10300001 00104100000000003600000000000000     
100   62911028202197630000000000012000000000012000002000000010410406190824500815904773800619217008081590   1030000600030000   554100000955315799420000477DENKO INSEIN           YANGON        MMR11006190824500815900619000000000000000   10300001 00104100000000000360000000000000     
100   62911028202151340000000000059450000000059450002000000010410406180759150024124773800618216907002412   1030000600030000   581200000442315799420000068MR COW FOOD & BBQ 1    YANGON        MMR11006180759150024120618000000000000000   10300001 00104100000000006064000000000000     
100   95030301100126550000000000023000000000023000002000000010410406180856160204514773800618216908020451   1030000600030000   554100002323315799420000474DENKO N.DAGON - 1      YANGON        MMR11006180856160204510618000000000000000   10300001 00104100000000000690000000000000     
100   62911028202540670000000000070000000000070000002000000010410406180139230057514773800618216901005751   1030000600030000   554100001232315799420000686DENKO TAUNG LAY LONE   TAUNGGYI      MMR11006180139230057510618000000000000000   10300001 00104100000000002100000000000000     
100   62443100318296470000000000063525000000063525002000000010410406181131360018490594140618216911001849   1030000600030000   581200002335315799420001620SIGNATURE FINEDINING 5 YANGON        MMR11006181131360018490618000000000000000   10300001 00104100000000026998000000000000     
100   62911028202248050000000000040000000000040000002000000010410406181155330380334773800618216911038033   1030000600030000   554100001155315799420000607DENKO NPT 1            NAYPYITAW.    MMR11006181155330380330618000000000000000   10300001 00104100000000001200000000000000     
100   95030318100004530000000000054000000000054000002000000010410406181047230153434773800618216910015343   1030000600030000   554100001754315799420001135DENKO KYITE HTO        MON STATE.    MMR11006181047230153430618000000000000000   10300001 00104100000000001620000000000000     
100   95050322426452690000000000050000000000050000002000000010410406180324030067206141560618216903006720   1030000600030000   554100001207315799420000659DENKO TAUNGOO          TAUNGOO.      MMR11006180324030067200618000000000000000   10300001 00104100000000006000000000000000     
100   62911028202443730000000000020000000000020000002000000010410406200910290081924773800620217115008192   1030000500030000   598320001903000015172200019MAX ENERGY             PTN           MMR11006200910290081920620000000000000000   10300001 00104100000000000600000000000000     
100   62911028202198620000000003000000000003000000002000000010410406201025010000114773800620217116000011   1030000500030000   594420057601007805944200576GOLD BLISS             PTN           MMR11006201025010000110620000000000000000   10300001 00104100000000180000000000000000     
100   62443101093150400000000000074100000000074100002000000010410406200102530041859761380620217107004185   1030000500030000   598320002101000015172200021MAX ENERGY             PTN           MMR11006200102530041850620000000000000000   10300001 00104100000000008892000000000000     
100   95050311382087030000000000003920000000003920002000000010410406211058102810784719140621000007368832   1020000200030000   333400010001204104000000281Myanmar Soft-Gate Tech Yangon        MMR11006211058102810780621000000000000000   10300001F05104100000000000823000000000000     
100   62911028202468080000000000017974000000017974002000000010410406201151530009804773800620217118000980   1030000500030000   581220024101000015812200241SHWE LAR HOT POT       PTN           MMR11006201151530009800620000000000000000   10300001 00104100000000001833000000000000     
100   95050328212196190000000000155700000000155700002000000010410406200637120025867282160620000351215008   1030000300030000   531100000747000000000000408CB BANK                CAPITAL HYPER MMR11006200637120025860620000000000000000   10300001F00104100000000037368000000000000     
100   62443100303702210000000000054000000000054000002000000010410406180733470188552109800618216907018855   1030000600030000   554100002320315799420000564DENKO PHYUU            PHYUU         MMR11006180733470188550618000000000000000   10300001 00104100000000006480000000000000     
100   95050326228858240000000000128000000000128000002000000010410406180503230101664805270618216905010166   1030000600030000   554100001213315799420000665DENKO KWYAL TUT SONE   MANDALAY      MMR11006180503230101660618000000000000000   10300001 00104100000000015360000000000000     
100   95050324411430900000000000038000000000038000002000000010410406180442540936635302090618216904093663   1030000600030000   554100000946315799420000471DENKO BAHAN            YANGON        MMR11006180442540936630618000000000000000   10300001 00104100000000004560000000000000     
100   95050316785465380000000000011550000000011550002000000010410406210911270046554003720621000748801032   1030000200030000   541188001465000008000000391KBZ BANK               OCEAN SUPER C MMR11006210911270046550621000000000000000   10300001 00104100000000002888000000000000     
100   95050310251874990000000000028750000000028750002000000010410406211451160049715194070621000748827645   1030000200030000   541188001426000008000000401KBZ BANK               OCEAN SUPERCE MMR11006211451160049710621000000000000000   10300001 00104100000000007188000000000000     
100   95050318057347910000000000022500000000022500002000000010410406211627070039212569870621000748832775   1030000200030000   541188001436000008000000401KBZ BANK               OCEAN SUPERCE MMR11006211627070039210621000000000000000   10300001 00104100000000005625000000000000     
100   62443100381153960000000000058200000000058200002000000010410406211054510032398895570621000748808206   1030000200030000   541188001348000008000000395KBZ BANK               OCEAN SUPERMA MMR11006211054510032390621000000000000000   10300001 00104100000000014550000000000000     
100   95050321188471220000000000011600000000011600002000000010410406211132530020306342680621000748811477   1030000200030000   541188001484000008000000399KBZ BANK               OCEAN SUPERCE MMR11006211132530020300621000000000000000   10300001 00104100000000002900000000000000     
100   62911028202737450000000000067606000000067606002000000010410406211135330020314773800621000748811672   1030000200030000   541188001484000008000000399KBZ BANK               OCEAN SUPERCE MMR11006211135330020310621000000000000000   10300001 00104100000000004056000000000000     
100   62443100394939820000000000300000000000300000002000000010410406211130500050128704880621000007368961   1030000200030000   333800010001203104000003327KBZPay                 Yangon        MMR11006211130500050120621000000000000000   10300001F05104100000000063000000000000000     
100   62911028202684060000000000011343000000011343002000000010410406200846080008604773800620217115000860   1030000500030000   531120226710000045311202267OCEAN NORTH POINT      PTN           MMR11006200846080008600620000000000000000   10300001 00104100000000000681000000000000     
100   95030308100042590000000000082000000000082000002000000010410406200424020007384773800620217110000738   1030000500030000   598320001704000015172200017MAX ENERGY             PTN           MMR11006200424020007380620000000000000000   10300001 00104100000000002460000000000000     
100   62443100303702210000000000060000000000060000002000000010410406170745540187009885790617216807018700   1030000600030000   554100002320315799420000564DENKO PHYUU            PHYUU         MMR11006170745540187000617000000000000000   10300001 00104100000000007200000000000000     
100   62911028202752030000000000082000000000082000002000000010410406180132240379394773800618216901037939   1030000600030000   554100001155315799420000607DENKO NPT 1            NAYPYITAW.    MMR11006180132240379390618000000000000000   10300001 00104100000000002460000000000000     
100   62911028202169750000000000023000000000023000002000000010410406200346300040454773800620217110004045   1030000500030000   598320002103000015172200021MAX ENERGY             PTN           MMR11006200346300040450620000000000000000   10300001 00104100000000000690000000000000     
100   95030396594260770000000000040000000000040000002000000010410406200955250112854773800620217109011285   1030000600030000   554100001218315799420000670DENKO MAWLAMYAING      MON STATE.    MMR11006200955250112850620000000000000000   10300001 00104100000000001200000000000000     
100   62911028202668140000000000017140000000017140002000000010410406201022340005974773800620217116000597   1030000500030000   541120226811000045411202268CITY MART WAIZAYANDA   PTN           MMR11006201022340005970620000000000000000   10300001 00104100000000001028000000000000     
100   62911028202752030000000000067000000000067000002000000010410406180845160060064773800618216908006006   1030000600030000   554100001211315799420000663DENKO  TETKONE         TETKONE       MMR11006180845160060060618000000000000000   10300001 00104100000000002010000000000000     
100   62911028202737450000000000007950000000007950002000000010410406211041510020014773800621000748806975   1030000200030000   541188001496000008000000399KBZ BANK               OCEAN SUPERCE MMR11006211041510020010621000000000000000   10300001 00104100000000000477000000000000     
100   95050312695033440000000000000980000000000980002000000010410406211430490049149215460621000007369570   1020000200030000   333400010001204104000000281Myanmar Soft-Gate Tech Yangon        MMR11006211430490049140621000000000000000   10300001F05104100000000000206000000000000     
100   62911028202147720000000000002500000000002500002000000010410406211642010021604773800621000748833399   1030000200030000   541188001311000008000000325KBZ BANK               CITY MART - A MMR11006211642010021600621000000000000000   10300001 00104100000000000150000000000000     
100   62443100308973140000000000030400000000030400002000000010410406211234530024396967300621000748839275   1030000200030000   541188000960000008000004886KBZ BANK               EASY-1        MMR11006211234530024390621000000000000000   10300001 00104100000000007600000000000000     
100   95030327835334700000000000029150000000029150002000000010410406211757440165134773800621000748836660   1030000200030000   541188001242000008000000323KBZ BANK               CITY MART - I MMR11006211757440165130621000000000000000   10300001 00104100000000001749000000000000     
100   95050316311487940000000000050000000000050000002000000010410406211204583458290102070621000007369088   1030000200030000   333800010001203104000003327KBZPay                 Yangon        MMR11006211204583458290621000000000000000   10300001F05104100000000010500000000000000     
100   95050319161596230000000000001960000000001960002000000010410406210302283228672373060621000007365128   1020000200030000   333400010001204104000000281Myanmar Soft-Gate Tech Yangon        MMR11006210302283228670621000000000000000   10300001F05104100000000000412000000000000     
100   62911028202616250000000000041700000000041700002000000010410406211327140158694773800621000748821084   1030000200030000   541188001056000008000000314KBZ BANK               MARKETPLACE - MMR11006211327140158690621000000000000000   10300001 00104100000000002502000000000000     
100   62443100302523870000000000030000000000030000002000000010410406190816280546770786200619217008054677   1030000600030000   554100000969315799420000481DENKO NORTH OKKALAPA   YANGON        MMR11006190816280546770619000000000000000   10300001 00104100000000003600000000000000     
100   62443100303702210000000000085000000000085000002000000010410406190854290562261381870619217008056226   1030000600030000   554100001756315799420001137DENKO NORTH DAGON 2    YANGON        MMR11006190854290562260619000000000000000   10300001 00104100000000010200000000000000     
100   95050311959900780000000000000980000000000980002000000010410406211159062906438449590621000007369067   1020000200030000   333400010001204104000000281Myanmar Soft-Gate Tech Yangon        MMR11006211159062906430621000000000000000   10300001F05104100000000000206000000000000     
100   62911028202355870000000001000000000001000000002000000010410406210940581058204773800621000007368399   1030000600030000   333800010001230104000004564Trusty Wallet          Yangon        MMR11006210940581058200621000000000000000   10300001F05104100000000210000000000000000     
100   95050314893649800000000000005880000000005880002000000010410406210438050805371591040621000007365998   1020000200030000   333400010001204104000000281Myanmar Soft-Gate Tech Yangon        MMR11006210438050805370621000000000000000   10300001F05104100000000001235000000000000     
100   95050318617855880000000000000980000000000980002000000010410406210211094109750954010621000007364890   1020000200030000   333400010001204104000000281Myanmar Soft-Gate Tech Yangon        MMR11006210211094109750621000000000000000   10300001F05104100000000000206000000000000     
100   95050312498129060000000000001960000000001960002000000010410406211308403840302435330621000007369289   1020000200030000   333400010001204104000000281Myanmar Soft-Gate Tech Yangon        MMR11006211308403840300621000000000000000   10300001F05104100000000000412000000000000     
100   95050315344668630000000000022200000000022200002000000010410406210650216444428610320621425201321171   1030000900030000   723019001054190110000000857Beauty Diary JC        YANGONN       MMR11006210650216444420621000000000000000   10300001F00104100000000005328000000000000     
100   95050312695033440000000000000980000000000980002000000010410406211049331933851329080621000007368805   1020000200030000   333400010001204104000000281Myanmar Soft-Gate Tech Yangon        MMR11006211049331933850621000000000000000   10300001F05104100000000000206000000000000     
100   95050325455962190000000000014700000000014700002000000010410406210248251825109820210621000007365048   1020000200030000   333400010001204104000000281Myanmar Soft-Gate Tech Yangon        MMR11006210248251825100621000000000000000   10300001F05104100000000003087000000000000     
100   95050318617855880000000000002940000000002940002000000010410406210157282728745280190621000007364836   1020000200030000   333400010001204104000000281Myanmar Soft-Gate Tech Yangon        MMR11006210157282728740621000000000000000   10300001F05104100000000000617000000000000     
100   95050314893649800000000000000980000000000980002000000010410406210431050105774923630621000007365956   1020000200030000   333400010001204104000000281Myanmar Soft-Gate Tech Yangon        MMR11006210431050105770621000000000000000   10300001F05104100000000000206000000000000     
100   62911028202369990000000000100000000000100000002000000010410406210454032403054773800621000007366113   1030000200030000   333800010001203104000003327KBZPay                 Yangon        MMR11006210454032403050621000000000000000   10300001F05104100000000021000000000000000     
100   95050311931431670000000000004900000000004900002000000010410406210648541854838184860621000007366965   1020000200030000   333400010001204104000000281Myanmar Soft-Gate Tech Yangon        MMR11006210648541854830621000000000000000   10300001F05104100000000001029000000000000     
100   95050311559234320000000000002940000000002940002000000010410406211100333033833066660621000007368847   1020000200030000   333400010001204104000000281Myanmar Soft-Gate Tech Yangon        MMR11006211100333033830621000000000000000   10300001F05104100000000000617000000000000     
100   95050312926040930000000000025000000000025000002000000010410406210943121312717442230621000007368425   1030000200030000   333800010001203104000003327KBZPay                 Yangon        MMR11006210943121312710621000000000000000   10300001F05104100000000005250000000000000     
100   95050312240830690000000000000980000000000980002000000010410406211538510851527648070621000007369816   1020000200030000   333400010001204104000000281Myanmar Soft-Gate Tech Yangon        MMR11006211538510851520621000000000000000   10300001F05104100000000000206000000000000     
100   62911028202789750000000000006100000000006100002000000010410406211156505787064773800621217218578706   1040001600030000   591220000271000000010000259Shwe Ohh Pharmacy (Gwa Yangon        MMR11006211156505787060621000000000000000   10300001F00104100000000000366000000000000     
100   62911028202243590000000000003000000000003000002000000010410406210615276436324773800621027451227171   1030000900030000   541119001273190110000000960City Mart PLST Season  YANGONMYOTHIT MMR11006210615276436320621000000000000000   10300001F00104100000000000180000000000000     
100   95050322823372070000000000020000000000020000002000000010410406210954126488014732930621504241612171   1030000900030000   554119001103190110000000215New Day Energy MYG     YANGONONE     MMR11006210954126488010621000000000000000   10300001F00104100000000002400000000000000     
100   62911028202469800000000000050000000000050000002000000010410406210825475625964773800621217215562596   1040001600030000   591220000282000000010000270Shwe Ohh Pharmacy (Shw Yangon        MMR11006210825475625960621000000000000000   10300001F00104100000000003000000000000000     
100   95050321044701600000000000070560000000070560002000000010410406210410374037256625510621000007365788   1030000900030000   333800010001202104000003301uab bank               Yangon        MMR11006210410374037250621000000000000000   10300001F05104100000000014818000000000000     
100   62443100394939820000000000300000000000300000002000000010410406211132420242128789980621000007368969   1030000200030000   333800010001203104000003327KBZPay                 Yangon        MMR11006211132420242120621000000000000000   10300001F05104100000000063000000000000000     
100   62911028202485150000000000015500000000015500002000000010410406210606486434034773800621908361248171   1030000900030000   541119001462190110000000077Sein Gay Har Chinatown YANGON        MMR11006210606486434030621000000000000000   10300001F00104100000000000930000000000000     
100   95050312962334280000000000000980000000000980002000000010410406211212044204391839660621000007369110   1020000200030000   333400010001204104000000281Myanmar Soft-Gate Tech Yangon        MMR11006211212044204390621000000000000000   10300001F05104100000000000206000000000000     
100   95050312498129060000000000002940000000002940002000000010410406210540241024544460980621000007366472   1020000200030000   333400010001204104000000281Myanmar Soft-Gate Tech Yangon        MMR11006210540241024540621000000000000000   10300001F05104100000000000617000000000000     
100   95050316638224720000000000005880000000005880002000000010410406210054522452922446740621000007364668   1020000200030000   333400010001204104000000281Myanmar Soft-Gate Tech Yangon        MMR11006210054522452920621000000000000000   10300001F05104100000000001235000000000000     
100   95050319938772870000000000003920000000003920002000000010410406210014154415372872240621000007364595   1020000200030000   333400010001204104000000281Myanmar Soft-Gate Tech Yangon        MMR11006210014154415370621000000000000000   10300001F05104100000000000823000000000000     
100   62911028202472440000000000023400000000023400002000000010410406211050420243364773800621000748807814   1030000200030000   541188001007000008000000008KBZ BANK               MARKETPLACE - MMR11006211050420243360621000000000000000   10300001 00104100000000001404000000000000     
100   62911028202355870000000000500000000000500000002000000010410406210938290829314773800621000007368379   1030000600030000   333800010001230104000004564Trusty Wallet          Yangon        MMR11006210938290829310621000000000000000   10300001F05104100000000105000000000000000     
100   95030367537085740000000000000980000000000980002000000010410406210251462146184773800621000007365063   1020000200030000   333400010001204104000000281Myanmar Soft-Gate Tech Yangon        MMR11006210251462146180621000000000000000   10300001F05104100000000000206000000000000     
100   95050318141561190000000000010000000000010000002000000010410406210508193819512442050621000007366235   1030000200030000   333800010001203104000003327KBZPay                 Yangon        MMR11006210508193819510621000000000000000   10300001F05104100000000002100000000000000     
100   62911028202074950000000000010112000000010112002000000010410406200332070002084773800620217110000208   1030000500030000   531120226319000045311202263OCEAN SUPER CENTER STJ PTN           MMR11006200332070002080620000000000000000   10300001 00104100000000000607000000000000     
100   62911028202154800000000000044682000000044682002000000010410406200403590004014773800620217110000401   1030000500030000   531120226718000045311202267OCEAN NORTH POINT      PTN           MMR11006200403590004010620000000000000000   10300001 00104100000000002681000000000000     
100   95050312618592720000000000025200000000025200002000000010410406201204180014471949960620217118001447   1030000500030000   531120155806000045311201558GAMONE PWINT           PTN           MMR11006201204180014470620000000000000000   10300001 00104100000000006048000000000000     
100   62911028202540670000000000072000000000072000002000000010410406200517120040034773800620217105004003   1030000600030000   554100000748315799420000327DENKO KYAUK SEIN ZAY   MANDALAY      MMR11006200517120040030620000000000000000   10300001 00104100000000002160000000000000     
100   62443100325551180000000000150000000000150000002000000010410406200441170001421042580620000351198915   1030000300030000   541100002355000000000000102CB BANK                MAKRO MYANMAR MMR11006200441170001420620000000000000000   10300001F00104100000000037500000000000000     
100   62911028202792960000000000009200000000009200002000000010410406201158100009824773800620217118000982   1030000500030000   541120227604000045411202276CITY MART ( 47 BRANCH  PTN           MMR11006201158100009820620000000000000000   10300001 00104100000000000552000000000000     
100   95030301504712580000000000060000000000060000002000000010410406201152460004894773800620217118000489   1030000500030000   598320005202000015172200052MAX ENERGY             PTN           MMR11006201152460004890620000000000000000   10300001 00104100000000001800000000000000     
100   62443100372718280000000000025850000000025850002000000010410406201334580032073794520620217120003207   1030000500030000   581220146401013205812201464THAI 47 (HELPIN BRANCH PTN           MMR11006201334580032070620000000000000000   10300001 00104100000000010987000000000000     
100   62911028202355870000000001000000000001000000002000000010410406210941351135734773800621000007368405   1030000600030000   333800010001230104000004564Trusty Wallet          Yangon        MMR11006210941351135730621000000000000000   10300001F05104100000000210000000000000000     
100   62443100378297160000000000005880000000005880002000000010410406211357092709705910490621000007369462   1020000200030000   333400010001204104000000281Myanmar Soft-Gate Tech Yangon        MMR11006211357092709700621000000000000000   10300001F05104100000000001235000000000000     
100   95050328303533000000000000003000000000003000002000000010410406211508553855527562980621000007369732   1030000200030000   3334000100012031040000040102C2P (Myanmar) Co. Ltd Yangon        MMR11006211508553855520621000000000000000   10300001F05104100000000000630000000000000     
100   62911028202147720000000000017100000000017100002000000010410406211636550106444773800621000748833177   1030000200030000   541188001310000008000000325KBZ BANK               CITY MART - A MMR11006211636550106440621000000000000000   10300001 00104100000000001026000000000000     
100   95050315745833530000000000030000000000030000002000000010410406210914544454577612420621000007368116   1030000200030000   333800010001203104000003327KBZPay                 Yangon        MMR11006210914544454570621000000000000000   10300001F05104100000000006300000000000000     
100   62911028202313470000000000065899000000065899002000000010410406211248320046984773800621000748818126   1030000200030000   541188001005000008000000008KBZ BANK               MARKETPLACE - MMR11006211248320046980621000000000000000   10300001 00104100000000003954000000000000     
100   62911028202357510000000000031061000000031061002000000010410406211544500076784773800621000748830713   1030000200030000   541188001336000008000000327KBZ BANK               CITY MART - S MMR11006211544500076780621000000000000000   10300001 00104100000000001864000000000000     
100   62911028202357510000000000130150000000130150002000000010410406211550200076794773800621000748830994   1030000200030000   541188001336000008000000327KBZ BANK               CITY MART - S MMR11006211550200076790621000000000000000   10300001 00104100000000007809000000000000     
100   95050320531117320000000000055209000000055209002000000010410406201112440006881878650620217111000688   1030000600030000   581200002336315799420001621SIGNATURE FINEDINING 6 YANGON        MMR11006201112440006880620000000000000000   10300001 00104100000000023464000000000000     
100   62911028202471860000000000041050000000041050002000000010410406201155140007954773800620217118000795   1030000500030000   541120203706000015411202037CITY MART SUPERMARKET  PTN           MMR11006201155140007950620000000000000000   10300001 00104100000000002463000000000000     
100   95050329720609600000000000014100000000014100002000000010410406200227450000110162010620000351181377   1030000300030000   541100000444000000000000319CB BANK                ONESTOP KITCH MMR11006200227450000110620000000000000000   10300001F00104100000000003525000000000000     
100   95050311736839760000000000008450000000008450002000000010410406201031410005113012500620217117000511   1030000500030000   541120024802022205411200248ORANGE (THARKAYTA)     PTN           MMR11006201031410005110620000000000000000   10300001 00104100000000002113000000000000     
100   95030346130941600000000000019900000000019900002000000010410406201138380011914773800620217118001191   1030000500030000   541120226806000045411202268CITY MART WAIZAYANDA   PTN           MMR11006201138380011910620000000000000000   10300001 00104100000000001194000000000000     
100   62911028202668300000000000008000000000008000002000000010410406200837370024264773800620217115002426   1030000500030000   541120020801022205411200208ORANGE (TAMWE)         PTN           MMR11006200837370024260620000000000000000   10300001 00104100000000000480000000000000     
100   62911028202170490000000000024650000000024650002000000010410406200829380012414773800620217114001241   1030000500030000   531120226301000045311202263OCEAN SUPER CENTER STJ PTN           MMR11006200829380012410620000000000000000   10300001 00104100000000001479000000000000     
100   62911028202530930000000000050400000000050400002000000010410406200526530005024773800620217111000502   1030000500030000   581220197901000015812201979CANTON PARADISE (SYS)  PTN           MMR11006200526530005020620000000000000000   10300001 00104100000000005141000000000000     
100   95050318141561190000000000009800000000009800002000000010410406210506423642299817840621000007366217   1020000200030000   333400010001204104000000281Myanmar Soft-Gate Tech Yangon        MMR11006210506423642290621000000000000000   10300001F05104100000000002058000000000000     
100   62911028202117110000000000100000000000100000002000000010410406210457102710024773800621000007366131   1030000200030000   333800010001203104000003327KBZPay                 Yangon        MMR11006210457102710020621000000000000000   10300001F05104100000000021000000000000000     
100   95050310427855490000000000002940000000002940002000000010410406210257122712515494080621000007365096   1020000200030000   333400010001204104000000281Myanmar Soft-Gate Tech Yangon        MMR11006210257122712510621000000000000000   10300001F05104100000000000617000000000000     
100   95050311959900780000000000000980000000000980002000000010410406211259112911609130360621000007369257   1020000200030000   333400010001204104000000281Myanmar Soft-Gate Tech Yangon        MMR11006211259112911600621000000000000000   10300001F05104100000000000206000000000000     
100   95050317003064220000000000000980000000000980002000000010410406211416194619964258010621000007369517   1020000200030000   333400010001204104000000281Myanmar Soft-Gate Tech Yangon        MMR11006211416194619960621000000000000000   10300001F05104100000000000206000000000000     
100   95050314703432410000000000001960000000001960002000000010410406210211444144697904350621000007364894   1020000200030000   333400010001204104000000281Myanmar Soft-Gate Tech Yangon        MMR11006210211444144690621000000000000000   10300001F05104100000000000412000000000000     
100   95050315743141220000000000000980000000000980002000000010410406210633190319938467740621000007366885   1020000200030000   333400010001204104000000281Myanmar Soft-Gate Tech Yangon        MMR11006210633190319930621000000000000000   10300001F05104100000000000206000000000000     
100   62911028202355870000000001000000000001000000002000000010410406210937210721454773800621000007368363   1030000600030000   333800010001230104000004564Trusty Wallet          Yangon        MMR11006210937210721450621000000000000000   10300001F05104100000000210000000000000000     
100   95030301100022270000000000045000000000045000002000000010410406192304200005114773800620217105000511   1030000500030000   598320005701000015172200057MAX ENERGY             PTN           MMR11006192304200005110620000000000000000   10300001 00104100000000001350000000000000     
100   62911028202074950000000000023500000000023500002000000010410406201052100005554773800620217117000555   1030000500030000   581220204201000085812202042MIN LAN                PTN           MMR11006201052100005550620000000000000000   10300001 00104100000000002397000000000000     
100   62443100358839880000000000027600000000027600002000000010410406201410330005822518090620217120000582   1030000500030000   541120045801009205411200458126 STORE              PTN           MMR11006201410330005820620000000000000000   10300001 00104100000000006900000000000000     
100   62911028202525330000000000209300000000209300002000000010410406200532280006234773800620217112000623   1030000500030000   806220009101024108062200091ARYU INTL HOSPITAL     PTN           MMR11006200532280006230620000000000000000   10300001 00104100000000012558000000000000     
100   95030300515226620000000000047500000000047500002000000010410406200753360001964773800620217114000196   1030000500030000   569120042501016505691200425SOON FASHION SHOP      PTN           MMR11006200753360001960620000000000000000   10300001 00104100000000002850000000000000     
100   62911028202198620000000001000000000001000000002000000010410406201027500000144773800620217116000014   1030000500030000   594420057601007805944200576GOLD BLISS             PTN           MMR11006201027500000140620000000000000000   10300001 00104100000000060000000000000000     
100   62911028202198620000000001000000000001000000002000000010410406201028410000154773800620217116000015   1030000500030000   594420057601007805944200576GOLD BLISS             PTN           MMR11006201028410000150620000000000000000   10300001 00104100000000060000000000000000     
100   62443100333488440000000000029700000000029700002000000010410406200913450001582036160620000351236712   1030000300030000   531100001408000000000000962CB BANK                G & G CONVENI MMR11006200913450001580620000000000000000   10300001F00104100000000007128000000000000     
100   95050314692738880000000000002940000000002940002000000010410406211200453045016797110621000007369074   1020000200030000   333400010001204104000000281Myanmar Soft-Gate Tech Yangon        MMR11006211200453045010621000000000000000   10300001F05104100000000000617000000000000     
100   95050315701710960000000000001960000000001960002000000010410406211110524052719846780621000007368887   1020000200030000   333400010001204104000000281Myanmar Soft-Gate Tech Yangon        MMR11006211110524052710621000000000000000   10300001F05104100000000000412000000000000     
100   95050314692738880000000000004900000000004900002000000010410406210235370537660599820621000007364992   1020000200030000   333400010001204104000000281Myanmar Soft-Gate Tech Yangon        MMR11006210235370537660621000000000000000   10300001F05104100000000001029000000000000     
100   95050317743858310000000000050000000000050000002000000010410406210144451445333081440621000007364791   1030000200030000   3338000100012031040000040022C2P (Myanmar) Co. Ltd Yangon        MMR11006210144451445330621000000000000000   10300001F05104100000000010500000000000000     
100   95050317728825080000000000000980000000000980002000000010410406210551242124088499540621000007366555   1020000200030000   333400010001204104000000281Myanmar Soft-Gate Tech Yangon        MMR11006210551242124080621000000000000000   10300001F05104100000000000206000000000000     
100   95050311926829590000000000000980000000000980002000000010410406211146461646902180040621000007369016   1020000200030000   333400010001204104000000281Myanmar Soft-Gate Tech Yangon        MMR11006211146461646900621000000000000000   10300001F05104100000000000206000000000000     
100   95050319161596230000000000000980000000000980002000000010410406210106133613328971610621000007364689   1020000200030000   333400010001204104000000281Myanmar Soft-Gate Tech Yangon        MMR11006210106133613320621000000000000000   10300001F05104100000000000206000000000000     
100   95050315743141220000000000000980000000000980002000000010410406210635580558854992570621000007366898   1020000200030000   333400010001204104000000281Myanmar Soft-Gate Tech Yangon        MMR11006210635580558850621000000000000000   10300001F05104100000000000206000000000000     
100   95050322715181550000000000031801000000031801002000000010410406201244050017713226430620217119001771   1030000500030000   531120155712000045311201557GAMONE PWINT           PTN           MMR11006201244050017710620000000000000000   10300001 00104100000000007632000000000000     
100   62911028202490830000000000360000000000360000002000000010410406201023260015514773800620217116001551   1030000500030000   806220046404006308062200464ASIA ROYAL HOSPITAL    PTN           MMR11006201023260015510620000000000000000   10300001 00104100000000021600000000000000     
100   62443100379321630000000000102000000000102000002000000010410406200824260013978349380620000351229996   1030000300030000   541100002341000000000000102CB BANK                MAKRO MYANMAR MMR11006200824260013970620000000000000000   10300001F00104100000000025500000000000000     
100   95050328384000040000000000060000000000060000002000000010410406200714330005751470400620217113000575   1030000500030000   569120066901008205691200669ESCORT                 PTN           MMR11006200714330005750620000000000000000   10300001 00104100000000014400000000000000     
100   62911028202792960000000000053000000000053000002000000010410406200427380103584773800620217110010358   1030000500030000   598320001904000015172200019MAX ENERGY             PTN           MMR11006200427380103580620000000000000000   10300001 00104100000000001590000000000000     
100   62443101015591650000000000081000000000081000002000000010410406201024270817413934770620217110081741   1030000600030000   554100000955315799420000477DENKO INSEIN           YANGON        MMR11006201024270817410620000000000000000   10300001 00104100000000009720000000000000     
100   95030390626214130000000000040000000000040000002000000010410406201200110174404773800620217112017440   1030000600030000   554100002324315799420000481DENKO NORTH OKKALAPA   YANGON        MMR11006201200110174400620000000000000000   10300001 00104100000000001200000000000000     
100   95050326228858240000000000078500000000078500002000000010410406200606300382129977680620217106038212   1030000600030000   554100001155315799420000607DENKO NPT 1            NAYPYITAW.    MMR11006200606300382120620000000000000000   10300001 00104100000000009420000000000000     
100   95050317728825080000000000000980000000000980002000000010410406210641501150905560660621000007366920   1020000200030000   333400010001204104000000281Myanmar Soft-Gate Tech Yangon        MMR11006210641501150900621000000000000000   10300001F05104100000000000206000000000000     
100   95050313968650950000000000000980000000000980002000000010410406210853132313490236620621000007367866   1020000200030000   333400010001204104000000281Myanmar Soft-Gate Tech Yangon        MMR11006210853132313490621000000000000000   10300001F05104100000000000206000000000000     
100   95050312498129060000000000001960000000001960002000000010410406210901553155681974190621000007367959   1020000200030000   333400010001204104000000281Myanmar Soft-Gate Tech Yangon        MMR11006210901553155680621000000000000000   10300001F05104100000000000412000000000000     
100   95050319703729630000000000055000000000055000002000000010410406210218054805661308200621000007364927   1030000200030000   333800010001203104000003327KBZPay                 Yangon        MMR11006210218054805660621000000000000000   10300001F05104100000000011550000000000000     
100   95050312498129060000000000010030000000010030002000000010410406210611474147179389970621000007366711   1030000200030000   333800010001203104000003327KBZPay                 Yangon        MMR11006210611474147170621000000000000000   10300001F05104100000000002106000000000000     
100   95050318712627500000000000000980000000000980002000000010410406210752112211786482930621000007367377   1020000200030000   333400010001204104000000281Myanmar Soft-Gate Tech Yangon        MMR11006210752112211780621000000000000000   10300001F05104100000000000206000000000000     
100   95050314557307430000000000001960000000001960002000000010410406210853522352278584130621000007367882   1020000200030000   333400010001204104000000281Myanmar Soft-Gate Tech Yangon        MMR11006210853522352270621000000000000000   10300001F05104100000000000412000000000000     
100   95050313710136610000000000002940000000002940002000000010410406210709103910541163210621000007367072   1020000200030000   333400010001204104000000281Myanmar Soft-Gate Tech Yangon        MMR11006210709103910540621000000000000000   10300001F05104100000000000617000000000000     
100   62911028202231380000000000040016000000040016002000000010410406200830350049484773800620217115004948   1030000500030000   598320001201000015172200012MAX ENERGY             PTN           MMR11006200830350049480620000000000000000   10300001 00104100000000001201000000000000     
100   62911028202112400000000000031000000000031000002000000010410406200128340058244773800620217107005824   1030000500030000   598320001204000015172200012MAX ENERGY             PTN           MMR11006200128340058240620000000000000000   10300001 00104100000000000930000000000000     
100   62911028202502480000000000057000000000057000002000000010410406200942230104234773800620217116010423   1030000500030000   598320001904000015172200019MAX ENERGY             PTN           MMR11006200942230104230620000000000000000   10300001 00104100000000001710000000000000     
100   62443100300412100000000000095000000000095000002000000010410406200417250282969124350620217104028296   1030000600030000   554100002085315799420000471DENKO BAHAN            YANGON        MMR11006200417250282960620000000000000000   10300001 00104100000000011400000000000000     
100   62911028202703370000000000050000000000050000002000000010410406200215140103094773800620217108010309   1030000500030000   598320001904000015172200019MAX ENERGY             PTN           MMR11006200215140103090620000000000000000   10300001 00104100000000001500000000000000     
100   95050320531117320000000000544000000000544000002000000010410406200702120043278204440620217107004327   1030000600030000   554100002404315799420000480DENKO N.DAGON - 3      YANGON        MMR11006200702120043270620000000000000000   10300001 00104100000000065280000000000000     
100   62911028202448030000000000100000000000100000002000000010410406201132350057184773800620217118005718   1030000500030000   598320001203000015172200012MAX ENERGY             PTN           MMR11006201132350057180620000000000000000   10300001 00104100000000003000000000000000     
100   62911028202677390000000000030000000000030000002000000010410406200146004730414773800620217108473041   1040001600030000   598320001065000000010000785Yangon Petrol (Thudama Ygn           MMR11006200146004730410620000000000000000   10300001F00104100000000000900000000000000     
100   62911028202231380000000000002600000000002600002000000010410406211519120085224773800621000748829382   1030000200030000   541188001074000008000000294KBZ BANK               CITY MART - J MMR11006211519120085220621000000000000000   10300001 00104100000000000156000000000000     
100   62911028202355870000000000500000000000500000002000000010410406210937390739374773800621000007368366   1030000600030000   333800010001230104000004564Trusty Wallet          Yangon        MMR11006210937390739370621000000000000000   10300001F05104100000000105000000000000000     
100   95050317085125750000000000070000000000070000002000000010410406210341211121617338590621000007365528   1030000200030000   333800010001203104000003327KBZPay                 Yangon        MMR11006210341211121610621000000000000000   10300001F05104100000000014700000000000000     
100   95050327531396450000000000009800000000009800002000000010410406210146521652162230480621000007364801   1020000200030000   333400010001204104000000281Myanmar Soft-Gate Tech Yangon        MMR11006210146521652160621000000000000000   10300001F05104100000000002058000000000000     
100   95050312498129060000000000000980000000000980002000000010410406211314034403440782850621000007369307   1020000200030000   333400010001204104000000281Myanmar Soft-Gate Tech Yangon        MMR11006211314034403440621000000000000000   10300001F05104100000000000206000000000000     
100   62911028202147720000000000032350000000032350002000000010410406211640350182334773800621000748833338   1030000200030000   541188001304000008000000325KBZ BANK               CITY MART - A MMR11006211640350182330621000000000000000   10300001 00104100000000001941000000000000     
100   62911028202045260000000000021900000000021900002000000010410406211218330215394773800621000748815409   1030000200030000   541188001075000008000000294KBZ BANK               CITY MART - J MMR11006211218330215390621000000000000000   10300001 00104100000000001314000000000000     
100   62911028202355870000000001000000000001000000002000000010410406210936060606924773800621000007368348   1030000600030000   333800010001230104000004564Trusty Wallet          Yangon        MMR11006210936060606920621000000000000000   10300001F05104100000000210000000000000000     
100   95050311712422700000000000190000000000190000002000000010410406210948181818485789740621000007368480   1030000200030000   333800010001203104000003327KBZPay                 Yangon        MMR11006210948181818480621000000000000000   10300001F05104100000000039900000000000000     
100   95050319709462380000000000000980000000000980002000000010410406210317054705624571850621000007365272   1020000200030000   333400010001204104000000281Myanmar Soft-Gate Tech Yangon        MMR11006210317054705620621000000000000000   10300001F05104100000000000206000000000000     
100   62911028202448030000000000002300000000002300002000000010410406211625190085254773800621000748832675   1030000200030000   541188001074000008000000294KBZ BANK               CITY MART - J MMR11006211625190085250621000000000000000   10300001 00104100000000000138000000000000     
100   62911028202446540000000000025000000000025000002000000010410406210753195610804773800621217214561080   1040001600030000   541120000571000000010000465Ocean Shwe Gone Daing  Yangon        MMR11006210753195610800621000000000000000   10300001F00104100000000001500000000000000     
100   95050310750557450000000000005800000000005800002000000010410406210228006377514500490621235580800171   1030000900030000   591219001116190110000000897Shwe Ohh Pharmacy St 4 YANGON        MMR11006210228006377510621000000000000000   10300001F00104100000000001392000000000000     
100   62911028202154800000000000047000000000047000002000000010410406210644236442794773800621333141323171   1030000900030000   554119000348190110000000215New Day Energy MYG     YANGONONE     MMR11006210644236442790621000000000000000   10300001F00104100000000001410000000000000     
100   62443100397667340000000000020000000000020000002000000010410406210953276487835874840621492231627171   1030000900030000   554119001103190110000000215New Day Energy MYG     YANGONONE     MMR11006210953276487830621000000000000000   10300001F00104100000000002400000000000000     
100   62911028202091860000000000003350000000003350002000000010410406210910375649374773800621217216564937   1040001600030000   591220000266000000010000254Shwe Ohh Pharmacy (Sin Yangon        MMR11006210910375649370621000000000000000   10300001F00104100000000000201000000000000     
100   62911028202280200000000000015700000000015700002000000010410406210742526455744773800621933121452171   1030000900030000   541119001196190110000000942City Mart HDC C 11     YANGONUT      MMR11006210742526455740621000000000000000   10300001F00104100000000000942000000000000     
100   62911028202074950000000000081100000000081100002000000010410406211014246494204773800621866441624171   1030000900030000   541119001241190110000000082Sein Gay Har Super Cen YANGON        MMR11006211014246494200621000000000000000   10300001F00104100000000004866000000000000     
100   95050320205194540000000000017800000000017800002000000010410406211120456514173662330621034501745171   1030000900030000   591219000899190110000000708Shwe Ohh Pharmacy St 3 YANGONONE     MMR11006211120456514170621000000000000000   10300001F00104100000000004272000000000000     
100   62911028202116530000000000104250000000104250002000000010410406210717065594124773800621217214559412   1040001600030000   591220000295000000010000283Shwe Ohh Pharmacy (39t Yangon        MMR11006210717065594120621000000000000000   10300001F00104100000000006255000000000000     
100   62911028202446700000000000130000000000130000002000000010410406211529225922194773800621000007369792   1030000200030000   333800010001203104000003327KBZPay                 Yangon        MMR11006211529225922190621000000000000000   10300001F05104100000000027300000000000000     
100   62443100391804560000000000004900000000004900002000000010410406210420125012579178450621000007365828   1020000200030000   333400010001204104000000281Myanmar Soft-Gate Tech Yangon        MMR11006210420125012570621000000000000000   10300001F05104100000000001029000000000000     
100   95050329352979980000000000019500000000019500002000000010410406210748135608590383560621217214560859   1040001600030000   569920000599000000010000474BOSSINI (Nay Pyi Taw)  Nay Pyi Taw   MMR11006210748135608590621000000000000000   10300001F00104100000000004680000000000000     
100   62443100300743690000000000050000000000050000002000000010410406211242315826750272270621217219582675   1040001600030000   598320000911000000010000662MMTM - Tamwe           Ygn           MMR11006211242315826750621000000000000000   10300001F00104100000000006000000000000000     
100   95050315344668630000000000008600000000008600002000000010410406210640276441899035820621294101327171   1030000900030000   723019001054190110000000857Beauty Diary JC        YANGONN       MMR11006210640276441890621000000000000000   10300001F00104100000000002064000000000000     
100   62911028202291190000000000714500000000714500002000000010410406210831206467314773800621470011520171   1030000900030000   594419000706190110000000537Zwe Htet Gems & Jewell YANGONAW      MMR11006210831206467310621000000000000000   10300001F00104100000000042870000000000000     
100   95050319379439060000000000010000000000010000002000000010410406210222195219510457240621000007364948   1030000200030000   333800010001203104000003327KBZPay                 Yangon        MMR11006210222195219510621000000000000000   10300001F05104100000000002100000000000000     
100   62911028202170490000000000033250000000033250002000000010410406210904356475504773800621870341535171   1030000900030000   541119001248190110000000955City Mart JS C 7       YANGONUT      MMR11006210904356475500621000000000000000   10300001F00104100000000001995000000000000     
100   62911028202446540000000000140300000000140300002000000010410406211003385682424773800621217217568242   1040001600030000   591220000279000000010000267Shwe Ohh Pharmacy (Ar  Yangon        MMR11006211003385682420621000000000000000   10300001F00104100000000008418000000000000     
100   62911028202193670000000001865716000001865716002000000010410406210626345634634773800621000007366837   1010000100030000   333500010001212104000002840Internal Revenue Depar Yangon        MMR11006210626345634630621000000000000000   10300001F05104100000000060000000000000000     
100   62911028202287310000000000068800000000068800002000000010410406210659175586224773800621217213558622   1040001600030000   591220000282000000010000270Shwe Ohh Pharmacy (Shw Yangon        MMR11006210659175586220621000000000000000   10300001F00104100000000004128000000000000     
100   62911028202417260000000000023000000000023000002000000010410406211219326529784773800621942491832171   1030000900030000   541119001242190110000000955City Mart JS C 1       YANGONUT      MMR11006211219326529780621000000000000000   10300001F00104100000000001380000000000000     
100   95050314893649800000000000009800000000009800002000000010410406210119044904731595770621000007364712   1020000200030000   333400010001204104000000281Myanmar Soft-Gate Tech Yangon        MMR11006210119044904730621000000000000000   10300001F05104100000000002058000000000000     
100   95050313710136610000000000002940000000002940002000000010410406210925005500512740060621000007368232   1020000200030000   333400010001204104000000281Myanmar Soft-Gate Tech Yangon        MMR11006210925005500510621000000000000000   10300001F05104100000000000617000000000000     
100   62911028202170490000000000005700000000005700002000000010410406210838566469094773800621552081556171   1030000900030000   541119001248190110000000955City Mart JS C 7       YANGONUT      MMR11006210838566469090621000000000000000   10300001F00104100000000000342000000000000     
100   62911028202151340000000000054100000000054100002000000010410406211028026497434773800621036581602171   1030000900030000   581219001143190110000000923Classic Garden         YANGON        MMR11006211028026497430621000000000000000   10300001F00104100000000005518000000000000     
100   95050319996628650000000000000980000000000980002000000010410406210022545254375496440621000007364611   1020000200030000   333400010001204104000000281Myanmar Soft-Gate Tech Yangon        MMR11006210022545254370621000000000000000   10300001F05104100000000000206000000000000     
100   95050311121153200000000000000980000000000980002000000010410406211327505750555825400621000007369355   1020000200030000   333400010001204104000000281Myanmar Soft-Gate Tech Yangon        MMR11006211327505750550621000000000000000   10300001F05104100000000000206000000000000     
100   95050314557307430000000000007840000000007840002000000010410406210122035203038546150621000007364725   1020000200030000   333400010001204104000000281Myanmar Soft-Gate Tech Yangon        MMR11006210122035203030621000000000000000   10300001F05104100000000001646000000000000     
100   62911028202485150000000000035750000000035750002000000010410406210536165538704773800621217212553870   1040001600030000   591220001007000000010000737Shwe Ohh Pharmacy (Tan Ygn           MMR11006210536165538700621000000000000000   10300001F00104100000000002145000000000000     
