100   95050311382087030000000000001960000000001960002000000010410406221327535753178562270622000007374764   1020000200030000   333400010001204104000000281Myanmar Soft-Gate Tech Yangon        MMR11006221327535753170622000000000000000   10300001F05104100000000000412000000000000     
100   62911028202443730000000000024000000000024000002000000010410406220501426210194773800622217312621019   1040001600030000   598320000658000000010000527Shwe Taung Energy (YGN Yangon        MMR11006220501426210190622000000000000000   10300001F00104100000000000720000000000000     
100   62443100323117100000000000050000000000050000002000000010410406221525345534285938070622000007375122   1030000200030000   333800010001203104000003327KBZPay                 Yangon        MMR11006221525345534280622000000000000000   10300001F05104100000000010500000000000000     
100   62911028202472440000000000046000000000046000002000000010410406220358406179514773800622217310617951   1040001600030000   598320001170000000010000527Shwe Taung Energy (YGN Yangon        MMR11006220358406179510622000000000000000   10300001F00104100000000001380000000000000     
100   95050320205194540000000000027950000000027950002000000010410406221136096775223788800622237061809172   1030000900030000   591219000899190110000000708Shwe Ohh Pharmacy St 3 YANGONONE     MMR11006221136096775220622000000000000000   10300001F00104100000000006708000000000000     
100   62443100358839880000000000106000000000106000002000000010410406210241550047072301790621217209004707   1030000500030000   598320002701000015172200027MAX ENERGY             PTN           MMR11006210241550047070621000000000000000   10300001 00104100000000012720000000000000     
100   95030301100120850000000000020000000000020000002000000010410406221500373037124773800622000007375050   1030000200030000   333800010001203104000003327KBZPay                 Yangon        MMR11006221500373037120622000000000000000   10300001F05104100000000004200000000000000     
100   62911028202162640000000000013100000000013100002000000010410406221119596770394773800622952491759172   1030000900030000   541119001077190110000000872Sein Gay Har Hledan    YANGONUT      MMR11006221119596770390622000000000000000   10300001F00104100000000000786000000000000     
100   95030301100126550000000000052100000000052100002000000010410406220954056745594773800622483241605172   1030000900030000   554119000347190110000000214New Day Energy MTN     YANGONARTAUNG MMR11006220954056745590622000000000000000   10300001F00104100000000001563000000000000     
100   62911028202915800000000000017562000000017562002000000010410406221110376767714773800622791401737172   1030000900030000   541119001155190110000000930OCEAN HTY C 5          YANGONTHARYA  MMR11006221110376767710622000000000000000   10300001F00104100000000001054000000000000     
100   95050315005801680000000000012250000000012250002000000010410406221103436765738065480622679331743172   1030000900030000   541119001222190110000000945City Mart TM C 7       YANGONONE     MMR11006221103436765730622000000000000000   10300001F00104100000000003063000000000000     
100   95030325264619140000000000032223000000032223002000000010410406210739020003314773800621000351393349   1030000300030000   541100001019000000000000719CB BANK                ONE STOP MART MMR11006210739020003310621000000000000000   10300001F00104100000000001933000000000000     
100   62911028202290100000000000071000000000071000002000000010410406220713366701924773800622159431336172   1030000900030000   554119000345190110000000212New Day Energy PZD     YANGONAUNG    MMR11006220713366701920622000000000000000   10300001F00104100000000002130000000000000     
100   95050310102690960000000000010600000000010600002000000010410406220624066687547840130622390541206172   1030000900030000   541119001371190110000000978Ocean PZD Season C 1   YANGONAUNG    MMR11006220624066687540622000000000000000   10300001F00104100000000002650000000000000     
100   95050313123223200000000000009600000000009600002000000010410406220751566712694414410622720211456172   1030000900030000   541119000121190110000000080Sein Gay Har BAK       YANGONADA     MMR11006220751566712690622000000000000000   10300001F00104100000000002400000000000000     
100   95050310102690960000000000002400000000002400002000000010410406220616586685446102550622274461258172   1030000900030000   541119001371190110000000978Ocean PZD Season C 1   YANGONAUNG    MMR11006220616586685440622000000000000000   10300001F00104100000000000600000000000000     
100   62911028202331290000000000061900000000061900002000000010410406221025116754144773800622957551611172   1030000900030000   591219000969190110000000776Shwe Ohh Pharmacy St ( YANGONADA     MMR11006221025116754140622000000000000000   10300001F00104100000000003714000000000000     
100   95050312224678430000000000002940000000002940002000000010410406220100373037158875070622000007370314   1020000200030000   333400010001204104000000281Myanmar Soft-Gate Tech Yangon        MMR11006220100373037150622000000000000000   10300001F05104100000000000617000000000000     
100   95050312358501180000000000169500000000169500002000000010410406220410076184515010090622217311618451   1040001600030000   591220000275000000010000263Shwe Ohh Pharmacy (Hla Yangon        MMR11006220410076184510622000000000000000   10300001F00104100000000040680000000000000     
100   62443101023815100000000000030000000000030000002000000010410406221112036768237008670622821421703172   1030000900030000   554119000348190110000000215New Day Energy MYG     YANGONONE     MMR11006221112036768230622000000000000000   10300001F00104100000000003600000000000000     
100   62443100300743690000000000004100000000004100002000000010410406221311276798365257300622634411927172   1030000900030000   541119001208190110000000948City Mart YK C 6       YANGONAUNG    MMR11006221311276798360622000000000000000   10300001F00104100000000001025000000000000     
100   95050320559934420000000000024488000000024488002000000010410406210441490006683364280621217211000668   1030000500030000   541120230003000045411202300MARKET PLACE BY CITY M PTN           MMR11006210441490006680621000000000000000   10300001 00104100000000006122000000000000     
100   95050317100052460000000000001000000000001000002000000010410406220828455845005647130622000007373265   1030000200030000   333800010001203104000003327KBZPay                 Yangon        MMR11006220828455845000622000000000000000   10300001F05104100000000000210000000000000     
100   62911028202124530000000000036000000000036000002000000010410406220427096655724773800622693571009172   1030000900030000   554119000347190110000000214New Day Energy MTN     YANGONARTAUNG MMR11006220427096655720622000000000000000   10300001F00104100000000001080000000000000     
100   95050317834964620000000000008115000000008115002000000010410406221108486767319803060622771381748172   1030000900030000   541119001349190110000000977Ocean PZD C 3          YANGONAUNG    MMR11006221108486767310622000000000000000   10300001F00104100000000002029000000000000     
100   95050319938772870000000000000980000000000980002000000010410406221513564356833775010622000007375092   1020000200030000   333400010001204104000000281Myanmar Soft-Gate Tech Yangon        MMR11006221513564356830622000000000000000   10300001F05104100000000000206000000000000     
100   62911028202132460000000000039100000000039100002000000010410406221144026777104773800622355141802172   1030000900030000   591219000609190110000000449Shwe Ohh Pharmacy St-3 YANGONAUNG    MMR11006221144026777100622000000000000000   10300001F00104100000000002346000000000000     
100   95050324154190880000000000022000000000022000002000000010410406210142120057529606270621217208005752   1030000500030000   598320001303000015172200013MAX ENERGY             PTN           MMR11006210142120057520621000000000000000   10300001 00104100000000002640000000000000     
100   95030329830382620000000000300000000000300000002000000010410406220606253625724773800622000007372214   1030000200030000   333800010001203104000003327KBZPay                 Yangon        MMR11006220606253625720622000000000000000   10300001F05104100000000063000000000000000     
100   95050310427855490000000000002940000000002940002000000010410406220804183418781109440622000007373058   1020000200030000   333400010001204104000000281Myanmar Soft-Gate Tech Yangon        MMR11006220804183418780622000000000000000   10300001F05104100000000000617000000000000     
100   62443100330727820000000000050000000000050000002000000010410406220602013201142712480622000007372170   1030000300030000   333300010001206104000002147DICA Company Limited   Yangon        MMR11006220602013201140622000000000000000   10300001F05104100000000010000000000000000     
100   62911028202355870000000001000000000001000000002000000010410406220744091409574773800622000007372881   1030000600030000   333800010001230104000004564Trusty Wallet          Yangon        MMR11006220744091409570622000000000000000   10300001F05104100000000210000000000000000     
100   95050312224678430000000000001960000000001960002000000010410406220340231023989627150622000007371114   1020000200030000   333400010001204104000000281Myanmar Soft-Gate Tech Yangon        MMR11006220340231023980622000000000000000   10300001F05104100000000000412000000000000     
100   62911028202474000000000000066000000000066000002000000010410406221057396429194773800622217317642919   1040001600030000   598320001170000000010000527Shwe Taung Energy (YGN Yangon        MMR11006221057396429190622000000000000000   10300001F00104100000000001980000000000000     
100   62911028202264610000000000011700000000011700002000000010410406210712240008294773800621217213000829   1030000500030000   541120203903000015411202039NEIGHBOURHOOD          PTN           MMR11006210712240008290621000000000000000   10300001 00104100000000000702000000000000     
100   62911028202355870000000000500000000000500000002000000010410406220745421542134773800622000007372903   1030000600030000   333800010001230104000004564Trusty Wallet          Yangon        MMR11006220745421542130622000000000000000   10300001F05104100000000105000000000000000     
100   62911028202074950000000000074900000000074900002000000010410406210501000004554773800621217211000455   1030000500030000   591220013401014405912200134SHWE OHH PHARMACY      PTN           MMR11006210501000004550621000000000000000   10300001 00104100000000004494000000000000     
100   62443101071845130000000000050000000000050000002000000010410406220450072007218825630622000007371651   1030000300030000   333300010001206104000002147DICA Company Limited   Yangon        MMR11006220450072007210622000000000000000   10300001F05104100000000010000000000000000     
100   95050324247403260000000000020920000000020920002000000010410406221837540191068817560622000748888889   1030000200030000   541188001124000008000000296KBZ BANK               CITY MART - J MMR11006221837540191060622000000000000000   10300001 00104100000000005230000000000000     
100   62443100301716860000000000001960000000001960002000000010410406220332020202574839890622000007371039   1020000200030000   333400010001204104000000281Myanmar Soft-Gate Tech Yangon        MMR11006220332020202570622000000000000000   10300001F05104100000000000412000000000000     
100   62443100345308040000000000004000000000004000002000000010410406220401063106128655440622000007371295   1030000200030000   333800010001203104000003327KBZPay                 Yangon        MMR11006220401063106120622000000000000000   10300001F05104100000000000840000000000000     
100   62443101076362230000000000136000000000136000002000000010410406220345076645561279630622166151007172   1030000900030000   554119000348190110000000215New Day Energy MYG     YANGONONE     MMR11006220345076645560622000000000000000   10300001F00104100000000016320000000000000     
100   62911028202147720000000000016000000000016000002000000010410406210125110039524773800621217207003952   1030000500030000   598320001602000015172200016MAX ENERGY             PTN           MMR11006210125110039520621000000000000000   10300001 00104100000000000480000000000000     
100   95050321455580800000000000250000000000250000002000000010410406221515304530148732460622000007375093   1030000200030000   333800010001203104000003327KBZPay                 Yangon        MMR11006221515304530140622000000000000000   10300001F05104100000000052500000000000000     
100   95050325139996190000000000003300000000003300002000000010410406220944171417157214520622000007373759   1030000200030000   333300010001203104000003632Myanmar Tradenet Test  Yangon        MMR11006220944171417150622000000000000000   10300001F05104100000000010000000000000000     
100   95050313243172680000000000045500000000045500002000000010410406221346121612611952330622000007374831   1030000200030000   333800010001203104000003327KBZPay                 Yangon        MMR11006221346121612610622000000000000000   10300001F05104100000000009555000000000000     
100   95030301100126550000000000033000000000033000002000000010410406201037040690384773800620217110069038   1030000600030000   554100000952315799420000474DENKO N.DAGON - 1      YANGON        MMR11006201037040690380620000000000000000   10300001 00104100000000000990000000000000     
100   95050317376014640000000000000980000000000980002000000010410406220710384038518861280622000007372648   1020000200030000   333400010001204104000000281Myanmar Soft-Gate Tech Yangon        MMR11006220710384038510622000000000000000   10300001F05104100000000000206000000000000     
100   95050322420590810000000000039352000000039352002000000010410406210322420016885990850621217209001688   1030000500030000   531120155604000045311201556GAMONE PWINT           PTN           MMR11006210322420016880621000000000000000   10300001 00104100000000009444000000000000     
100   62911028202290100000000000076356000000076356002000000010410406220416126653514773800622591461012172   1030000900030000   806219001119190110000000900Shwe La Min Hospital L YANGONAW      MMR11006220416126653510622000000000000000   10300001F00104100000000004581000000000000     
100   62443100333488440000000000030700000000030700002000000010410406210804250005239532640621217214000523   1030000500030000   541120226815000045411202268CITY MART WAIZAYANDA   PTN           MMR11006210804250005230621000000000000000   10300001 00104100000000007675000000000000     
100   95050317100052460000000000000550000000000550002000000010410406221021125112619888160622000007374092   1030000200030000   333800010001203104000003327KBZPay                 Yangon        MMR11006221021125112610622000000000000000   10300001F05104100000000000116000000000000     
100   95050310305440490000000000050000000000050000002000000010410406221517254725197079970622000007375101   1030000200030000   333800010001203104000003327KBZPay                 Yangon        MMR11006221517254725190622000000000000000   10300001F05104100000000010500000000000000     
100   95050318131043910000000000000980000000000980002000000010410406220459472947246116340622000007371752   1020000200030000   333400010001204104000000281Myanmar Soft-Gate Tech Yangon        MMR11006220459472947240622000000000000000   10300001F05104100000000000206000000000000     
100   62443100300412100000000000018674000000018674002000000010410406221526580360312427260622000748879655   1030000200030000   541188001041000008000000010KBZ BANK               MARKETPLACE - MMR11006221526580360310622000000000000000   10300001 00104100000000004669000000000000     
100   95050323667276610000000000004900000000004900002000000010410406220524395439544208560622000007371925   1020000200030000   333400010001204104000000281Myanmar Soft-Gate Tech Yangon        MMR11006220524395439540622000000000000000   10300001F05104100000000001029000000000000     
100   62443100301716860000000000001960000000001960002000000010410406220335360536546237090622000007371068   1020000200030000   333400010001204104000000281Myanmar Soft-Gate Tech Yangon        MMR11006220335360536540622000000000000000   10300001F05104100000000000412000000000000     
100   95050316785465380000000000000980000000000980002000000010410406221236110611397250170622000007374590   1020000200030000   333400010001204104000000281Myanmar Soft-Gate Tech Yangon        MMR11006221236110611390622000000000000000   10300001F05104100000000000206000000000000     
100   95050319006804440000000000000980000000000980002000000010410406220756362636179371860622000007372992   1020000200030000   333400010001204104000000281Myanmar Soft-Gate Tech Yangon        MMR11006220756362636170622000000000000000   10300001F05104100000000000206000000000000     
100   95050316949180000000000000002940000000002940002000000010410406221433580358510384940622000007374979   1020000200030000   333400010001204104000000281Myanmar Soft-Gate Tech Yangon        MMR11006221433580358510622000000000000000   10300001F05104100000000000617000000000000     
100   95050319928585020000000000000980000000000980002000000010410406220301403140291038140622000007370747   1020000200030000   333400010001204104000000281Myanmar Soft-Gate Tech Yangon        MMR11006220301403140290622000000000000000   10300001F05104100000000000206000000000000     
100   62911028202355870000000001000000000001000000002000000010410406220817184718764773800622000007373169   1030000600030000   333800010001230104000004564Trusty Wallet          Yangon        MMR11006220817184718760622000000000000000   10300001F05104100000000210000000000000000     
100   62911028202355870000000001000000000001000000002000000010410406220745101510374773800622000007372889   1030000600030000   333800010001230104000004564Trusty Wallet          Yangon        MMR11006220745101510370622000000000000000   10300001F05104100000000210000000000000000     
100   62911028202355870000000000500000000000500000002000000010410406220746081608434773800622000007372907   1030000600030000   333800010001230104000004564Trusty Wallet          Yangon        MMR11006220746081608430622000000000000000   10300001F05104100000000105000000000000000     
100   95050319928585020000000000000980000000000980002000000010410406220243211321659640940622000007370656   1020000200030000   333400010001204104000000281Myanmar Soft-Gate Tech Yangon        MMR11006220243211321650622000000000000000   10300001F05104100000000000206000000000000     
100   95050310397364970000000000000980000000000980002000000010410406220358432843155265380622000007371189   1020000200030000   333400010001204104000000281Myanmar Soft-Gate Tech Yangon        MMR11006220358432843150622000000000000000   10300001F05104100000000000206000000000000     
100   95050317376014640000000000000980000000000980002000000010410406220707343734743818730622000007372621   1020000200030000   333400010001204104000000281Myanmar Soft-Gate Tech Yangon        MMR11006220707343734740622000000000000000   10300001F05104100000000000206000000000000     
100   95050312498129060000000000000980000000000980002000000010410406220549161916118010320622000007372099   1020000200030000   333400010001204104000000281Myanmar Soft-Gate Tech Yangon        MMR11006220549161916110622000000000000000   10300001F05104100000000000206000000000000     
100   95050322312197120000000000050000000000050000002000000010410406220410284028865095180622000007371375   1030000200030000   333800010001203104000003327KBZPay                 Yangon        MMR11006220410284028860622000000000000000   10300001F05104100000000010500000000000000     
100   95050313702988830000000000002940000000002940002000000010410406220303053305905995580622000007370767   1020000200030000   333400010001204104000000281Myanmar Soft-Gate Tech Yangon        MMR11006220303053305900622000000000000000   10300001F05104100000000000617000000000000     
100   62911028202919290000000000040000000000040000002000000010410406201106490690434773800620217111069043   1030000600030000   554100000952315799420000474DENKO N.DAGON - 1      YANGON        MMR11006201106490690430620000000000000000   10300001 00104100000000001200000000000000     
100   62911028202684060000000000067000000000067000002000000010410406220459216208904773800622217311620890   1040001600030000   598320000658000000010000527Shwe Taung Energy (YGN Yangon        MMR11006220459216208900622000000000000000   10300001F00104100000000002010000000000000     
100   95050324411430900000000000040000000000040000002000000010410406220518276220907853920622217312622090   1040001600030000   598320000658000000010000527Shwe Taung Energy (YGN Yangon        MMR11006220518276220900622000000000000000   10300001F00104100000000004800000000000000     
100   95030308100042590000000000011000000000011000002000000010410406221218386511814773800622217319651181   1040001600030000   591220000275000000010000263Shwe Ohh Pharmacy (Hla Yangon        MMR11006221218386511810622000000000000000   10300001F00104100000000000660000000000000     
100   62911028202280200000000000045593000000045593002000000010410406220535076672564773800622551051207172   1030000900030000   554119000348190110000000215New Day Energy MYG     YANGONONE     MMR11006220535076672560622000000000000000   10300001F00104100000000001368000000000000     
100   95050315017843630000000000005000000000005000002000000010410406220829015901090604580622000007373254   1040001600030000   333800010001220104000004507A +                    Yangon        MMR11006220829015901090622000000000000000   10300001F05104100000000001050000000000000     
100   62443100379321630000000000105000000000105000002000000010410406220854556337632342160622217315633763   1040001600030000   598320001170000000010000527Shwe Taung Energy (YGN Yangon        MMR11006220854556337630622000000000000000   10300001F00104100000000012600000000000000     
100   62443101076362230000000001175000000001175000002000000010410406220432206656789166020622744021120172   1030000900030000   573219001177190110000000933UNIQUE Kabaraye        YANGON        MMR11006220432206656780622000000000000000   10300001F00104100000000282000000000000000     
100   95050317100052460000000000000560000000000560002000000010410406221018104810234335030622000007374078   1030000200030000   333800010001203104000003327KBZPay                 Yangon        MMR11006221018104810230622000000000000000   10300001F05104100000000000118000000000000     
100   62443100330108240000000000000980000000000980002000000010410406221218114811920555130622000007374535   1020000200030000   333400010001204104000000281Myanmar Soft-Gate Tech Yangon        MMR11006221218114811920622000000000000000   10300001F05104100000000000206000000000000     
100   95050319220344710000000000005000000000005000002000000010410406221329455945756909780622000007374781   1030000900030000   333400010001202104000002022ACS                    Yangon        MMR11006221329455945750622000000000000000   10300001F05104100000000001050000000000000     
100   95050319220344710000000000015000000000015000002000000010410406220827415741957299610622000007373245   1030000200030000   333800010001203104000003327KBZPay                 Yangon        MMR11006220827415741950622000000000000000   10300001F05104100000000003150000000000000     
100   62443101063232860000000000074012000000074012002000000010410406220710396285743903830622217314628574   1040001600030000   598320000310000000010000298PT Power Petrol Statio Yangon        MMR11006220710396285740622000000000000000   10300001F00104100000000008882000000000000     
100   95050324154190880000000000034006000000034006002000000010410406221214076506662122530622217319650666   1040001600030000   541120000573000000010000465Ocean Shwe Gone Daing  Yangon        MMR11006221214076506660622000000000000000   10300001F00104100000000008502000000000000     
100   95050322149411750000000000030000000000030000002000000010410406220326376641366492370622978560937172   1030000900030000   554119000348190110000000215New Day Energy MYG     YANGONONE     MMR11006220326376641360622000000000000000   10300001F00104100000000003600000000000000     
100   95050317100052460000000000001000000000001000002000000010410406221129495949542051220622000007374381   1030000200030000   333800010001203104000003327KBZPay                 Yangon        MMR11006221129495949540622000000000000000   10300001F05104100000000000210000000000000     
100   95050313970192050000000000006750000000006750002000000010410406211004180000898208090621217216000089   1030000500030000   541120232801000045411202328CITY EXPRESS (MCS - 34 PTN           MMR11006211004180000890621000000000000000   10300001 00104100000000001688000000000000     
100   62443101023815100000000000020600000000020600002000000010410406211142390001680442460621217218000168   1030000500030000   541120227501000045411202275CITY MART (AHLONE BRAN PTN           MMR11006211142390001680621000000000000000   10300001 00104100000000005150000000000000     
100   95030338164853990000000000181400000000181400002000000010410406210807380001104773800621217214000110   1030000500030000   701120100201008407011201002HOTEL 101              PTN           MMR11006210807380001100621000000000000000   10300001 00104100000000018503000000000000     
100   62911028202684060000000000025900000000025900002000000010410406210537580010434773800621217212001043   1030000500030000   531120226706000045311202267OCEAN NORTH POINT      PTN           MMR11006210537580010430621000000000000000   10300001 00104100000000001554000000000000     
100   95050310080023760000000000017199000000017199002000000010410406210620360030386447980621217212003038   1030000500030000   531120155802000045311201558GAMONE PWINT           PTN           MMR11006210620360030380621000000000000000   10300001 00104100000000004128000000000000     
100   62911028202112400000000000037000000000037000002000000010410406211014540024944773800621217216002494   1030000500030000   569120104001008205691201040ESCORT ( CITY MALL-ST. PTN           MMR11006211014540024940621000000000000000   10300001 00104100000000002220000000000000     
100   95030333478847140000000000022411000000022411002000000010410406210955450006524773800621217216000652   1030000500030000   581220214601000085812202146CHILLI POT MALA XIANG  PTN           MMR11006210955450006520621000000000000000   10300001 00104100000000002286000000000000     
100   62911028202313470000000000050000000000050000002000000010410406210517460042844773800621217211004284   1030000500030000   598320001603000015172200016MAX ENERGY             PTN           MMR11006210517460042840621000000000000000   10300001 00104100000000001500000000000000     
100   95030301100120850000000000005700000000005700002000000010410406210550400012564773800621217212001256   1030000500030000   531120226306000045311202263OCEAN SUPER CENTER STJ PTN           MMR11006210550400012560621000000000000000   10300001 00104100000000000342000000000000     
100   62443100333488440000000000050402000000050402002000000010410406210807320011466761460621217214001146   1030000500030000   541120226807000045411202268CITY MART WAIZAYANDA   PTN           MMR11006210807320011460621000000000000000   10300001 00104100000000012601000000000000     
100   62911028202595200000000000035900000000035900002000000010410406210827130024134773800621217214002413   1030000500030000   806220172406013008062201724GRAND HANTHA HOSPITAL  PTN           MMR11006210827130024130621000000000000000   10300001 00104100000000002154000000000000     
100   95030349489765520000000000033500000000033500002000000010410406211306270007274773800621000351436792   1030000300030000   531100000921000000000000658CB BANK                MGOU-DSK      MMR11006211306270007270621000000000000000   10300001F00104100000000002010000000000000     
100   95050324104751500000000000900000000000900000002000000010410406211209520016260187170621217218001626   1030000500030000   806220046404006308062200464ASIA ROYAL HOSPITAL    PTN           MMR11006211209520016260621000000000000000   10300001 00104100000000216000000000000000     
100   62911028202169750000000000011600000000011600002000000010410406210708550004984773800621217213000498   1030000500030000   541120203902000015411202039NEIGHBOURHOOD          PTN           MMR11006210708550004980621000000000000000   10300001 00104100000000000696000000000000     
100   62443100306028540000000000021450000000021450002000000010410406210417100011679603910621217210001167   1030000500030000   541120226809000045411202268CITY MART WAIZAYANDA   PTN           MMR11006210417100011670621000000000000000   10300001 00104100000000005363000000000000     
100   62911028202142850000000000006550000000006550002000000010410406210852360019814773800621217215001981   1030000500030000   541120020701022205411200207ORANGE (YDG)           PTN           MMR11006210852360019810621000000000000000   10300001 00104100000000000393000000000000     
100   95050326689257240000000000022650000000022650002000000010410406211216370048465144620621000351430619   1030000300030000   531100000797000000000000540CB BANK                CAPITAL SUPER MMR11006211216370048460621000000000000000   10300001F00104100000000005436000000000000     
100   95050326689257240000000000029950000000029950002000000010410406211220050048485229720621000351431110   1030000300030000   531100000797000000000000540CB BANK                CAPITAL SUPER MMR11006211220050048480621000000000000000   10300001F00104100000000007188000000000000     
100   62911028202490830000000000400000000000400000002000000010410406211226490016294773800621217218001629   1030000500030000   806220046404006308062200464ASIA ROYAL HOSPITAL    PTN           MMR11006211226490016290621000000000000000   10300001 00104100000000024000000000000000     
100   62911028202790310000000000038000000000038000002000000010410406210555060041774773800621217212004177   1030000500030000   598320001601000015172200016MAX ENERGY             PTN           MMR11006210555060041770621000000000000000   10300001 00104100000000001140000000000000     
100   62443100333488440000000000009400000000009400002000000010410406210809470005051889100621217214000505   1030000500030000   541120226813000045411202268CITY MART WAIZAYANDA   PTN           MMR11006210809470005050621000000000000000   10300001 00104100000000002350000000000000     
100   62911028202616250000000000289000000000289000002000000010410406210629580005484773800621217212000548   1030000500030000   569120061401006305691200614YOF JC                 PTN           MMR11006210629580005480621000000000000000   10300001 00104100000000017340000000000000     
100   62911028202197550000000000027100000000027100002000000010410406211045490014004773800621217217001400   1030000500030000   591220132901008605912201329THEIK DI WIN SHOP      PTN           MMR11006211045490014000621000000000000000   10300001 00104100000000001626000000000000     
100   95050322420590810000000000001100000000001100002000000010410406210324400016905139890621217209001690   1030000500030000   531120155604000045311201556GAMONE PWINT           PTN           MMR11006210324400016900621000000000000000   10300001 00104100000000000264000000000000     
100   62911028202286990000000000040000000000040000002000000010410406211215000058684773800621217218005868   1030000500030000   598320001303000015172200013MAX ENERGY             PTN           MMR11006211215000058680621000000000000000   10300001 00104100000000001200000000000000     
100   95050311076838860000000000002600000000002600002000000010410406211106130005419761690621217217000541   1030000500030000   541120226814000045411202268CITY MART WAIZAYANDA   PTN           MMR11006211106130005410621000000000000000   10300001 00104100000000000650000000000000     
100   62443101023815100000000000014000000000014000002000000010410406211313490004192520420621217219000419   1030000500030000   541120227505000045411202275CITY MART (AHLONE BRAN PTN           MMR11006211313490004190621000000000000000   10300001 00104100000000003500000000000000     
100   95050311091346230000000000025800000000025800002000000010410406211000270010866470520621000748832922   1030000200030000   569988000802000008000004611KBZ BANK               S33-IPANEMA   MMR11006211000270010860621000000000000000   10300001 00104100000000006192000000000000     
100   62911028202146650000000000012300000000012300002000000010410406210845110013784773800621217215001378   1030000500030000   591220132901008605912201329THEIK DI WIN SHOP      PTN           MMR11006210845110013780621000000000000000   10300001 00104100000000000738000000000000     
100   95050317780740350000000000045000000000045000002000000010410406210842590007670577000621217215000767   1030000500030000   541120129716000045411201297MAKRO MYANMAR          PTN           MMR11006210842590007670621000000000000000   10300001 00104100000000011250000000000000     
100   95030308100042590000000000050000000000050000002000000010410406210843280008284773800621217215000828   1030000500030000   598320001704000015172200017MAX ENERGY             PTN           MMR11006210843280008280621000000000000000   10300001 00104100000000001500000000000000     
100   95050320531117320000000000032900000000032900002000000010410406210754460009306057470621217214000930   1030000500030000   541120226405000045411202264MARKET PLACE MYANMARPL PTN           MMR11006210754460009300621000000000000000   10300001 00104100000000008225000000000000     
100   62911028202118690000000000060912000000060912002000000010410406211148090012734773800621217218001273   1030000500030000   531120226303000045311202263OCEAN SUPER CENTER STJ PTN           MMR11006211148090012730621000000000000000   10300001 00104100000000003655000000000000     
100   95050316348780660000000000059050000000059050002000000010410406211042340037558364500621217217003755   1030000500030000   531120156008000045311201560GAMONE PWINT           PTN           MMR11006211042340037550621000000000000000   10300001 00104100000000014172000000000000     
100   62911028202465920000000000026400000000026400002000000010410406210357360008144773800621217210000814   1030000500030000   541120203706000015411202037CITY MART SUPERMARKET  PTN           MMR11006210357360008140621000000000000000   10300001 00104100000000001584000000000000     
100   62911028202709150000000000036000000000036000002000000010410406210929320175264773800621217209017526   1030000600030000   554100002324315799420000481DENKO NORTH OKKALAPA   YANGON        MMR11006210929320175260621000000000000000   10300001 00104100000000001080000000000000     
100   95050324082484780000000000044000000000044000002000000010410406211110490303591499270621217211030359   1030000600030000   554100000725315799420000306DENKO MDY - 78         MANDALAY      MMR11006211110490303590621000000000000000   10300001 00104100000000005280000000000000     
100   62443100333488440000000000029000000000029000002000000010410406211027470060751584370621217216006075   1030000500030000   598320001304000015172200013MAX ENERGY             PTN           MMR11006211027470060750621000000000000000   10300001 00104100000000003480000000000000     
100   62443100381153960000000000089000000000089000002000000010410406210343370303178118240621217203030317   1030000600030000   554100000725315799420000306DENKO MDY - 78         MANDALAY      MMR11006210343370303170621000000000000000   10300001 00104100000000010680000000000000     
100   95050321232876860000000000098000000000098000002000000010410406210306490149188897930621217203014918   1030000600030000   554100002328315799420001235DENKO NAY PYI TAW 2    NAYPYITAW     MMR11006210306490149180621000000000000000   10300001 00104100000000011760000000000000     
100   62443100376865460000000000040000000000040000002000000010410406211019160061872995350621217216006187   1030000500030000   598320001403000015172200014MAX ENERGY             PTN           MMR11006211019160061870621000000000000000   10300001 00104100000000004800000000000000     
100   62911028202442250000000000021000000000021000002000000010410406210041190059274773800621217207005927   1030000500030000   598320001204000015172200012MAX ENERGY             PTN           MMR11006210041190059270621000000000000000   10300001 00104100000000000630000000000000     
100   62911028202916630000000000020000000000020000002000000010410406210122540058614773800621217207005861   1030000500030000   598320001301000015172200013MAX ENERGY             PTN           MMR11006210122540058610621000000000000000   10300001 00104100000000000600000000000000     
100   62911028202540670000000000070000000000070000002000000010410406210539430149294773800621217205014929   1030000600030000   554100002328315799420001235DENKO NAY PYI TAW 2    NAYPYITAW     MMR11006210539430149290621000000000000000   10300001 00104100000000002100000000000000     
100   95050320531117320000000000060000000000060000002000000010410406211109570396221414180621217211039622   1030000600030000   554100001003315799420000497DENKO KONE TA LA PAUNG YANGON        MMR11006211109570396220621000000000000000   10300001 00104100000000007200000000000000     
100   95030310098554020000000000108720000000108720002000000010410406211018120063724773800621000351414758   1030000300030000   806200000192000000000000097CB BANK                AUNG YADANA H MMR11006211018120063720621000000000000000   10300001F00104100000000006523000000000000     
100   62443100390038980000000000061000000000061000002000000010410406211242350073631924750621217212007363   1030000600030000   554100001226315799420000679DENKO MAGWAY - 2       MAGWAY        MMR11006211242350073630621000000000000000   10300001 00104100000000007320000000000000     
100   62911028202530930000000000090000000000090000002000000010410406211228420059134773800621217218005913   1030000500030000   598320001301000015172200013MAX ENERGY             PTN           MMR11006211228420059130621000000000000000   10300001 00104100000000002700000000000000     
100   95030300515226620000000000043000000000043000002000000010410406210736310060344773800621217214006034   1030000500030000   598320001402000015172200014MAX ENERGY             PTN           MMR11006210736310060340621000000000000000   10300001 00104100000000001290000000000000     
100   95050325925517520000000000067853000000067853002000000010410406221436220053104074020622000748876398   1030000200030000   541188001004000008000000008KBZ BANK               MARKETPLACE - MMR11006221436220053100622000000000000000   10300001 00104100000000016964000000000000     
100   95030321939721770000000000004000000000004000002000000010410406220230210021474773800622000007370596   1030000200030000   333800010001203104000003327KBZPay                 Yangon        MMR11006220230210021470622000000000000000   10300001F05104100000000000840000000000000     
100   95030305700676370000000000061000000000061000002000000010410406220927240044044773800622000748881148   1030000200030000   598388001833000008000005310KBZ BANK               BOC (138 MILE MMR11006220927240044040622000000000000000   10300001 00104100000000001830000000000000     
100   95050316377977350000000000300000000000300000002000000010410406221031030103948320770622000007374129   1030000200030000   333800010001203104000003327KBZPay                 Yangon        MMR11006221031030103940622000000000000000   10300001F05104100000000063000000000000000     
100   95050313732480420000000000004900000000004900002000000010410406212336180618610953040622000007370205   1020000200030000   333400010001204104000000281Myanmar Soft-Gate Tech Yangon        MMR11006212336180618610622000000000000000   10300001F05104100000000001029000000000000     
100   62911028202222470000000000010000000000010000002000000010410406221347201720854773800622000007374830   1030000300030000   333300010001206104000002147DICA Company Limited   Yangon        MMR11006221347201720850622000000000000000   10300001F05104100000000010000000000000000     
100   95050325455962190000000000001960000000001960002000000010410406221217224722352207620622000007374532   1020000200030000   333400010001204104000000281Myanmar Soft-Gate Tech Yangon        MMR11006221217224722350622000000000000000   10300001F05104100000000000412000000000000     
100   95050316785465380000000000000980000000000980002000000010410406221537080708744285590622000007375157   1020000200030000   333400010001204104000000281Myanmar Soft-Gate Tech Yangon        MMR11006221537080708740622000000000000000   10300001F05104100000000000206000000000000     
100   95050319156011610000000000002940000000002940002000000010410406220943471347852257060622000007373867   1020000200030000   333400010001204104000000281Myanmar Soft-Gate Tech Yangon        MMR11006220943471347850622000000000000000   10300001F05104100000000000617000000000000     
100   62443100330727820000000000010000000000010000002000000010410406220548471847824705350622000007372089   1030000300030000   333300010001206104000002147DICA Company Limited   Yangon        MMR11006220548471847820622000000000000000   10300001F05104100000000010000000000000000     
100   95050318267399100000000000000980000000000980002000000010410406220801143114297719370622000007373026   1020000200030000   333400010001204104000000281Myanmar Soft-Gate Tech Yangon        MMR11006220801143114290622000000000000000   10300001F05104100000000000206000000000000     
100   95050312695033440000000000001960000000001960002000000010410406220305203520104343110622000007370788   1020000200030000   333400010001204104000000281Myanmar Soft-Gate Tech Yangon        MMR11006220305203520100622000000000000000   10300001F05104100000000000412000000000000     
100   95050318141561190000000000020000000000020000002000000010410406220804023402812761930622000007373054   1040001600030000   333800010001220104000004507A +                    Yangon        MMR11006220804023402810622000000000000000   10300001F05104100000000004200000000000000     
100   95050319938772870000000000000980000000000980002000000010410406221504033403375427490622000007375068   1020000200030000   333400010001204104000000281Myanmar Soft-Gate Tech Yangon        MMR11006221504033403370622000000000000000   10300001F05104100000000000206000000000000     
100   62911028202116950000000000002850000000002850002000000010410406221123480174584773800622000748861468   1030000200030000   541188001061000008000000314KBZ BANK               MARKETPLACE - MMR11006221123480174580622000000000000000   10300001 00104100000000000171000000000000     
100   62911028202440680000000000018150000000018150002000000010410406221844560216054773800622000748889170   1030000200030000   541188001075000008000000294KBZ BANK               CITY MART - J MMR11006221844560216050622000000000000000   10300001 00104100000000001089000000000000     
100   95050314692738880000000000001960000000001960002000000010410406221056452645881370450622000007374244   1020000200030000   333400010001204104000000281Myanmar Soft-Gate Tech Yangon        MMR11006221056452645880622000000000000000   10300001F05104100000000000412000000000000     
100   95030301100121680000000000002000000000002000002000000010410406221256152615754773800622000007374661   1030000200030000   333800010001203104000003327KBZPay                 Yangon        MMR11006221256152615750622000000000000000   10300001F05104100000000000420000000000000     
100   95030329830382620000000000300000000000300000002000000010410406220605233523904773800622000007372197   1030000200030000   333800010001203104000003327KBZPay                 Yangon        MMR11006220605233523900622000000000000000   10300001F05104100000000063000000000000000     
100   95050316896526710000000000020000000000020000002000000010410406221036590659921710830622000007374151   1030000200030000   333800010001203104000003327KBZPay                 Yangon        MMR11006221036590659920622000000000000000   10300001F05104100000000004200000000000000     
100   62911028202355870000000001000000000001000000002000000010410406220748031803534773800622000007372922   1030000600030000   333800010001230104000004564Trusty Wallet          Yangon        MMR11006220748031803530622000000000000000   10300001F05104100000000210000000000000000     
100   95050319928585020000000000004900000000004900002000000010410406220240121012027903360622000007370644   1020000200030000   333400010001204104000000281Myanmar Soft-Gate Tech Yangon        MMR11006220240121012020622000000000000000   10300001F05104100000000001029000000000000     
100   95050314570621780000000000001960000000001960002000000010410406221156462646995100900622000007374475   1020000200030000   333400010001204104000000281Myanmar Soft-Gate Tech Yangon        MMR11006221156462646990622000000000000000   10300001F05104100000000000412000000000000     
100   95030301100102610000000000020000000000020000002000000010410406221336280628824773800622000007374800   1030000200030000   333800010001203104000003327KBZPay                 Yangon        MMR11006221336280628820622000000000000000   10300001F05104100000000004200000000000000     
100   62911028202919290000000000200000000000200000002000000010410406220447001700054773800622000007371644   1030000200030000   333800010001203104000003327KBZPay                 Yangon        MMR11006220447001700050622000000000000000   10300001F05104100000000042000000000000000     
100   95050318617855880000000000001960000000001960002000000010410406220547021702704620260622000007372068   1020000200030000   333400010001204104000000281Myanmar Soft-Gate Tech Yangon        MMR11006220547021702700622000000000000000   10300001F05104100000000000412000000000000     
100   62911028202773650000000000050000000000050000002000000010410406221203443344744773800622000007374494   1030000200030000   333800010001203104000003327KBZPay                 Yangon        MMR11006221203443344740622000000000000000   10300001F05104100000000010500000000000000     
100   95050318057347910000000000020000000000020000002000000010410406220940131013303909550622000007373837   1030000200030000   3338000100012031040000040022C2P (Myanmar) Co. Ltd Yangon        MMR11006220940131013300622000000000000000   10300001F05104100000000004200000000000000     
100   95050316573091630000000000002940000000002940002000000010410406220349391939033017210622000007371181   1020000200030000   333400010001204104000000281Myanmar Soft-Gate Tech Yangon        MMR11006220349391939030622000000000000000   10300001F05104100000000000617000000000000     
100   95050325139996190000000000003300000000003300002000000010410406220953242324744420130622000007373941   1030000200030000   333300010001203104000003632Myanmar Tradenet Test  Yangon        MMR11006220953242324740622000000000000000   10300001F05104100000000010000000000000000     
100   95050319502933380000000000006000000000006000002000000010410406221149031903412136310622000007374449   1030000200030000   333800010001203104000003327KBZPay                 Yangon        MMR11006221149031903410622000000000000000   10300001F05104100000000001260000000000000     
100   95050313123223200000000000000980000000000980002000000010410406221501503150923689910622000007375055   1020000200030000   333400010001204104000000281Myanmar Soft-Gate Tech Yangon        MMR11006221501503150920622000000000000000   10300001F05104100000000000206000000000000     
100   95050326155679180000000000010780000000010780002000000010410406220458362836088910730622000007371741   1020000200030000   333400010001204104000000281Myanmar Soft-Gate Tech Yangon        MMR11006220458362836080622000000000000000   10300001F05104100000000002264000000000000     
100   95050311931431670000000000002940000000002940002000000010410406220151512151955655200622000007370454   1020000200030000   333400010001204104000000281Myanmar Soft-Gate Tech Yangon        MMR11006220151512151950622000000000000000   10300001F05104100000000000617000000000000     
100   95050315743141220000000000020000000000020000002000000010410406221041121112410058340622000007374170   1030000200030000   333800010001203104000003327KBZPay                 Yangon        MMR11006221041121112410622000000000000000   10300001F05104100000000004200000000000000     
100   95050310332595380000000000000980000000000980002000000010410406220856322632334079740622000007373494   1020000200030000   333400010001204104000000281Myanmar Soft-Gate Tech Yangon        MMR11006220856322632330622000000000000000   10300001F05104100000000000206000000000000     
100   95030367537085740000000000000980000000000980002000000010410406221106463646334773800622000007374299   1020000200030000   333400010001204104000000281Myanmar Soft-Gate Tech Yangon        MMR11006221106463646330622000000000000000   10300001F05104100000000000206000000000000     
100   95050312926040930000000000010000000000010000002000000010410406220731360136200258480622000007372767   1030000200030000   333800010001203104000003327KBZPay                 Yangon        MMR11006220731360136200622000000000000000   10300001F05104100000000002100000000000000     
100   95050321084131410000000000200000000000200000002000000010410406220932570257350519480622000007373771   1030000200030000   333800010001203104000003327KBZPay                 Yangon        MMR11006220932570257350622000000000000000   10300001F05104100000000042000000000000000     
