100   95050318141561190000000000010000000000010000002000000010410406230227445744366618840623000007376002   1040001600030000   333800010001220104000004507A +                    Yangon        MMR11006230227445744360623000000000000000   10300001F05104100000000002100000000000000     
100   62443100328509230000000000093000000000093000002000000010410406230438026920809363790623217411692080   1040001600030000   598320000830000000010000596Regency Petrol Station Ygn           MMR11006230438026920800623000000000000000   10300001F00104100000000011160000000000000     
100   62911028202440680000000000000750000000000750002000000010410406230601016971754773800623217413697175   1040001600030000   591220000296000000010000284Shwe Ohh Pharmacy (Lan Yangon        MMR11006230601016971750623000000000000000   10300001F00104100000000000045000000000000     
100   62911028202181120000000000011200000000011200002000000010410406231149017026374773800623356191801173   1030000900030000   541119001262190110000000958City Mart PLST C 5     YANGONMYOTHIT MMR11006231149017026370623000000000000000   10300001F00104100000000000672000000000000     
100   62911028202355870000000000500000000000500000002000000010410406230524455445074773800623000007377397   1030000600030000   333800010001230104000004564Trusty Wallet          Yangon        MMR11006230524455445070623000000000000000   10300001F05104100000000105000000000000000     
100   95030346645639490000000000019350000000019350002000000010410406230351186899374773800623217410689937   1040001600030000   591220000258000000010000246Shwe Ohh Pharmacy (Sin Yangon        MMR11006230351186899370623000000000000000   10300001F00104100000000001161000000000000     
100   95030301100126550000000000025000000000025000002000000010410406231005146996544773800623574351614173   1030000900030000   554119000347190110000000214New Day Energy MTN     YANGONARTAUNG MMR11006231005146996540623000000000000000   10300001F00104100000000000750000000000000     
100   95030301100121270000000000007600000000007600002000000010410406231019377000644773800623791491637173   1030000900030000   541119001273190110000000960City Mart PLST Season  YANGONMYOTHIT MMR11006231019377000640623000000000000000   10300001F00104100000000000456000000000000     
100   95050312498129060000000000001960000000001960002000000010410406230759552955452704410623000007378598   1020000200030000   333400010001204104000000281Myanmar Soft-Gate Tech Yangon        MMR11006230759552955450623000000000000000   10300001F05104100000000000412000000000000     
100   95030301100121270000000000010400000000010400002000000010410406231024477002644773800623916541647173   1030000900030000   541119001263190110000000958City Mart PLST C 6     YANGONMYOTHIT MMR11006231024477002640623000000000000000   10300001F00104100000000000624000000000000     
100   62443101063232860000000000075010000000075010002000000010410406230435256919564661620623217411691956   1040001600030000   598320000310000000010000298PT Power Petrol Statio Yangon        MMR11006230435256919560623000000000000000   10300001F00104100000000009001000000000000     
100   95050319870763910000000000000980000000000980002000000010410406231405373537442419180623000007380473   1020000200030000   333400010001204104000000281Myanmar Soft-Gate Tech Yangon        MMR11006231405373537440623000000000000000   10300001F05104100000000000206000000000000     
100   95050312498129060000000000000980000000000980002000000010410406230704403440454441990623000007378195   1020000200030000   333400010001204104000000281Myanmar Soft-Gate Tech Yangon        MMR11006230704403440450623000000000000000   10300001F05104100000000000206000000000000     
100   95050314557307430000000000001960000000001960002000000010410406230906323632339824920623000007379110   1020000200030000   333400010001204104000000281Myanmar Soft-Gate Tech Yangon        MMR11006230906323632330623000000000000000   10300001F05104100000000000412000000000000     
100   95050319331315630000000000002940000000002940002000000010410406231308383838121107080623000007380256   1020000200030000   333400010001204104000000281Myanmar Soft-Gate Tech Yangon        MMR11006231308383838120623000000000000000   10300001F05104100000000000617000000000000     
100   62911028202355870000000000500000000000500000002000000010410406230518584858774773800623000007377337   1030000600030000   333800010001230104000004564Trusty Wallet          Yangon        MMR11006230518584858770623000000000000000   10300001F05104100000000105000000000000000     
100   62911028202417260000000000038990000000038990002000000010410406211158140003794773800621217218000379   1030000500030000   569120090401000015691200904GIORDANO JUNCTION SQUA PTN           MMR11006211158140003790621000000000000000   10300001 00104100000000002339000000000000     
100   62443100306028540000000000028000000000028000002000000010410406211317160945120867950621217213094512   1030000600030000   554100000946315799420000471DENKO BAHAN            YANGON        MMR11006211317160945120621000000000000000   10300001 00104100000000003360000000000000     
100   95030301100121270000000000031000000000031000002000000010410406211122370691684773800621217211069168   1030000600030000   554100000952315799420000474DENKO N.DAGON - 1      YANGON        MMR11006211122370691680621000000000000000   10300001 00104100000000000930000000000000     
100   62911028202198620000000002072000000002072000002000000010410406221024370000204773800622217316000020   1030000500030000   594420057601007805944200576GOLD BLISS             PTN           MMR11006221024370000200622000000000000000   10300001 00104100000000124320000000000000     
100   62911028202198620000000001686700000001686700002000000010410406221026150000214773800622217316000021   1030000500030000   594420057601007805944200576GOLD BLISS             PTN           MMR11006221026150000210622000000000000000   10300001 00104100000000101202000000000000     
100   62911028202525330000000000095600000000095600002000000010410406220557480002554773800622000748866553   1030000200030000   569988000793000008000004584KBZ BANK               YUP-IPANEMA   MMR11006220557480002550622000000000000000   10300001 00104100000000005736000000000000     
100   62911028202464020000000000002650000000002650002000000010410406220737230004134773800622217314000413   1030000500030000   591220211101014405912202111SHWE OHH PHARMACY      PTN           MMR11006220737230004130622000000000000000   10300001 00104100000000000159000000000000     
100   95050327456215690000000000063000000000063000002000000010410406220608260001917755030622000351550076   1030000300030000   541100002372000000000000102CB BANK                MAKRO MYANMAR MMR11006220608260001910622000000000000000   10300001F00104100000000015750000000000000     
100   95050314557307430000000000001960000000001960002000000010410406230929575957898007960623000007379273   1020000200030000   333400010001204104000000281Myanmar Soft-Gate Tech Yangon        MMR11006230929575957890623000000000000000   10300001F05104100000000000412000000000000     
100   95050312498129060000000000000980000000000980002000000010410406231227525752991993700623000007380110   1020000200030000   333400010001204104000000281Myanmar Soft-Gate Tech Yangon        MMR11006231227525752990623000000000000000   10300001F05104100000000000206000000000000     
100   62911028202440680000000000006300000000006300002000000010410406230246576883524773800623592160957173   1030000900030000   591219000970190110000000777Shwe Ohh Pharmacy St ( YANGONAW      MMR11006230246576883520623000000000000000   10300001F00104100000000000378000000000000     
100   62911028202595200000000000045269000000045269002000000010410406230547376962174773800623217412696217   1040001600030000   598320001170000000010000527Shwe Taung Energy (YGN Yangon        MMR11006230547376962170623000000000000000   10300001F00104100000000001358000000000000     
100   95050317100052460000000000001960000000001960002000000010410406231303013301114326950623000007380234   1020000200030000   333400010001204104000000281Myanmar Soft-Gate Tech Yangon        MMR11006231303013301110623000000000000000   10300001F05104100000000000412000000000000     
100   95030301100120850000000000004850000000004850002000000010410406230557576931454773800623076271257173   1030000900030000   541119000128190110000000082Sein Gay Har Super Cen YANGON        MMR11006230557576931450623000000000000000   10300001F00104100000000000291000000000000     
100   95050317834964620000000000008212000000008212002000000010410406231059287013408093060623579291728173   1030000900030000   541119001349190110000000977Ocean PZD C 3          YANGONAUNG    MMR11006231059287013400623000000000000000   10300001F00104100000000002053000000000000     
100   95050312498129060000000000001960000000001960002000000010410406230918364836223129890623000007379202   1020000200030000   333400010001204104000000281Myanmar Soft-Gate Tech Yangon        MMR11006230918364836220623000000000000000   10300001F05104100000000000412000000000000     
100   62911028202464440000000000025550000000025550002000000010410406220911520003824773800622217315000382   1030000500030000   591220012301014405912200123SHWE OHH PHARMACY      PTN           MMR11006220911520003820622000000000000000   10300001 00104100000000001533000000000000     
100   95050314365758940000000000015497000000015497002000000010410406221150530006450483830622217318000645   1030000500030000   541120203806000015411202038CITY MART SUPERMARKET  PTN           MMR11006221150530006450622000000000000000   10300001 00104100000000003875000000000000     
100   95050315158357300000000000011600000000011600002000000010410406220246000004827988460622000351522774   1030000300030000   591200000169000000000000084CB BANK                MEDICARE STOR MMR11006220246000004820622000000000000000   10300001F00104100000000002784000000000000     
100   62911028202225850000000000286650000000286650002000000010410406220942160004144773800622217316000414   1030000500030000   591220211101014405912202111SHWE OHH PHARMACY      PTN           MMR11006220942160004140622000000000000000   10300001 00104100000000017199000000000000     
100   62443100358839880000000000609309000000609309002000000010410406221101520002674760510622217317000267   1030000500030000   581220066601000015812200666MUSIC BUZZ ENTERTAINME PTN           MMR11006221101520002670622000000000000000   10300001 00104100000000258957000000000000     
100   62911028202421200000000000028500000000028500002000000010410406220952480003734773800622217316000373   1030000500030000   566120038301016505661200383RIPPLE FLIPFLOPS       PTN           MMR11006220952480003730622000000000000000   10300001 00104100000000001710000000000000     
100   95030346645639490000000000008575000000008575002000000010410406220930320002414773800622217316000241   1030000500030000   531120155703000045311201557GAMONE PWINT           PTN           MMR11006220930320002410622000000000000000   10300001 00104100000000000515000000000000     
100   62443100379321630000000000005000000000005000002000000010410406220836440006240689680622217315000624   1030000500030000   531120226331000045311202263OCEAN SUPER CENTER STJ PTN           MMR11006220836440006240622000000000000000   10300001 00104100000000001200000000000000     
100   95050326689257240000000000024250000000024250002000000010410406231220287034097036250623817501828173   1030000900030000   541119001264190110000000958City Mart PLST C 7     YANGONMYOTHIT MMR11006231220287034090623000000000000000   10300001F00104100000000006063000000000000     
100   95050317518971470000000000005000000000005000002000000010410406230922175217289575350623000007379221   1030000200030000   3338000100012031040000040022C2P (Myanmar) Co. Ltd Yangon        MMR11006230922175217280623000000000000000   10300001F05104100000000001050000000000000     
100   95050322715181550000000000060000000000060000002000000010410406230736207020282874600623217414702028   1040001600030000   598320000658000000010000527Shwe Taung Energy (YGN Yangon        MMR11006230736207020280623000000000000000   10300001F00104100000000007200000000000000     
100   95050318617855880000000000000980000000000980002000000010410406230821175117751732690623000007378757   1020000200030000   333400010001204104000000281Myanmar Soft-Gate Tech Yangon        MMR11006230821175117750623000000000000000   10300001F05104100000000000206000000000000     
100   62911028202355870000000001000000000001000000002000000010410406230520265026634773800623000007377353   1030000600030000   333800010001230104000004564Trusty Wallet          Yangon        MMR11006230520265026630623000000000000000   10300001F05104100000000210000000000000000     
100   95050315122972560000000000000980000000000980002000000010410406230828245824571392310623000007378815   1020000200030000   333400010001204104000000281Myanmar Soft-Gate Tech Yangon        MMR11006230828245824570623000000000000000   10300001F05104100000000000206000000000000     
100   62911028202790310000000000028413000000028413002000000010410406230854546976224773800623491241554173   1030000900030000   541119001206190110000000948City Mart YK C 4       YANGONAUNG    MMR11006230854546976220623000000000000000   10300001F00104100000000001705000000000000     
100   62911028202088990000000000032650000000032650002000000010410406230736337020414773800623217414702041   1040001600030000   591220000303000000010000291Shwe Ohh Pharmacy (Kyu Yangon        MMR11006230736337020410623000000000000000   10300001F00104100000000001959000000000000     
100   62911028202684060000000000014750000000014750002000000010410406220833160009534773800622217315000953   1030000500030000   531120226710000045311202267OCEAN NORTH POINT      PTN           MMR11006220833160009530622000000000000000   10300001 00104100000000000885000000000000     
100   95030301100216560000000000012000000000012000002000000010410406221047120006124773800622217317000612   1030000500030000   569120066901008205691200669ESCORT                 PTN           MMR11006221047120006120622000000000000000   10300001 00104100000000000720000000000000     
100   95030346645639490000000000059704000000059704002000000010410406220857460007244773800622217315000724   1030000500030000   531120155715000045311201557GAMONE PWINT           PTN           MMR11006220857460007240622000000000000000   10300001 00104100000000003582000000000000     
100   62911028202446540000000000500000000000500000002000000010410406220511370015324773800622217311001532   1030000500030000   806220009106024108062200091ARYU INTL HOSPITAL     PTN           MMR11006220511370015320622000000000000000   10300001 00104100000000030000000000000000     
100   95050327456215690000000000236400000000236400002000000010410406220507390014569421300622000351541766   1030000300030000   571900001564000000000001116CB BANK                PRO 1 HOME CE MMR11006220507390014560622000000000000000   10300001F00104100000000056736000000000000     
100   62911028202520380000000000040100000000040100002000000010410406220452510013614773800622217311001361   1030000500030000   531120226301000045311202263OCEAN SUPER CENTER STJ PTN           MMR11006220452510013610622000000000000000   10300001 00104100000000002406000000000000     
100   62443100390038980000000000130000000000130000002000000010410406220444360019715435570622217304001971   1030000600030000   554100002170315799420001517DENKO KYAUNG KONE      AYAWADY       MMR11006220444360019710622000000000000000   10300001 00104100000000015600000000000000     
100   95050325925517520000000000020000000000020000002000000010410406220443450059120393010622217311005912   1030000500030000   598320001203000015172200012MAX ENERGY             PTN           MMR11006220443450059120622000000000000000   10300001 00104100000000002400000000000000     
100   62911028202169750000000000070971000000070971002000000010410406230521586945154773800623217412694515   1040001600030000   541120000557000000010000465Ocean Shwe Gone Daing  Yangon        MMR11006230521586945150623000000000000000   10300001F00104100000000004258000000000000     
100   62911028202169750000000000001600000000001600002000000010410406230531546951794773800623217412695179   1040001600030000   541120000584000000010000465Ocean Shwe Gone Daing  Yangon        MMR11006230531546951790623000000000000000   10300001F00104100000000000096000000000000     
100   95050314692738880000000000001960000000001960002000000010410406231316464646306064530623000007380298   1020000200030000   333400010001204104000000281Myanmar Soft-Gate Tech Yangon        MMR11006231316464646300623000000000000000   10300001F05104100000000000412000000000000     
100   62911028202355870000000001000000000001000000002000000010410406230520005000654773800623000007377345   1030000600030000   333800010001230104000004564Trusty Wallet          Yangon        MMR11006230520005000650623000000000000000   10300001F05104100000000210000000000000000     
100   95050324850150480000000000080000000000080000002000000010410406230601596972410371160623217413697241   1040001600030000   598320000320000000010000308PT Power Petrol Statio Yangon        MMR11006230601596972410623000000000000000   10300001F00104100000000009600000000000000     
100   95050312498129060000000000000980000000000980002000000010410406231305543554152759570623000007380248   1020000200030000   333400010001204104000000281Myanmar Soft-Gate Tech Yangon        MMR11006231305543554150623000000000000000   10300001F05104100000000000206000000000000     
100   95050316601084530000000000000980000000000980002000000010410406230911234123388172440623000007379155   1020000200030000   333400010001204104000000281Myanmar Soft-Gate Tech Yangon        MMR11006230911234123380623000000000000000   10300001F05104100000000000206000000000000     
100   95050319709462380000000000005000000000005000002000000010410406230202503250041235910623000007375907   1030000200030000   3338000100012031040000040022C2P (Myanmar) Co. Ltd Yangon        MMR11006230202503250040623000000000000000   10300001F05104100000000001050000000000000     
100   62911028202593140000000000017250000000017250002000000010410406221130210007014773800622217318000701   1030000500030000   541120227503000045411202275CITY MART (AHLONE BRAN PTN           MMR11006221130210007010622000000000000000   10300001 00104100000000001035000000000000     
100   62443101023815100000000000008500000000008500002000000010410406221009300015365987510622000351582564   1030000300030000   581200001830000000000001314CB BANK                SP BAKERY (GM MMR11006221009300015360622000000000000000   10300001F00104100000000003613000000000000     
100   62443100306045460000000000040800000000040800002000000010410406220739430007792081160622217314000779   1030000500030000   581220123001000045812201230YOON KITCHEN           PTN           MMR11006220739430007790622000000000000000   10300001 00104100000000017340000000000000     
100   95050322921717110000000000020000000000020000002000000010410406220122030042558960170622217307004255   1030000500030000   598320001601000015172200016MAX ENERGY             PTN           MMR11006220122030042550622000000000000000   10300001 00104100000000002400000000000000     
100   62443100306028540000000000071170000000071170002000000010410406220747440008552676830622217314000855   1030000500030000   581220118401022605812201184DIY BBQ & HOT POT      PTN           MMR11006220747440008550622000000000000000   10300001 00104100000000030248000000000000     
100   62911028202212490000000000048000000000048000002000000010410406220623340051234773800622217312005123   1030000500030000   598320001201000015172200012MAX ENERGY             PTN           MMR11006220623340051230622000000000000000   10300001 00104100000000001440000000000000     
100   62443100357925510000000000009900000000009900002000000010410406220759180036927804480622217314003692   1030000500030000   503920036604000015039200366PRO-1 HOME CENTER      PTN           MMR11006220759180036920622000000000000000   10300001 00104100000000002376000000000000     
100   62911028202520380000000000072006000000072006002000000010410406220518450059184773800622217311005918   1030000500030000   598320001203000015172200012MAX ENERGY             PTN           MMR11006220518450059180622000000000000000   10300001 00104100000000002160000000000000     
100   62911028202443400000000000017400000000017400002000000010410406231036160387014773800623000748908783   1030000200030000   541188001024000008000000298KBZ BANK               CITY MART - M MMR11006231036160387010623000000000000000   10300001 00104100000000001044000000000000     
100   62443100345308040000000000001200000000001200002000000010410406231010404040719490250623000007379532   1030000200030000   333800010001203104000003327KBZPay                 Yangon        MMR11006231010404040710623000000000000000   10300001F05104100000000000252000000000000     
100   95050310427855490000000000001960000000001960002000000010410406230304303430960080210623000007376207   1020000200030000   333400010001204104000000281Myanmar Soft-Gate Tech Yangon        MMR11006230304303430960623000000000000000   10300001F05104100000000000412000000000000     
100   62911028202163630000000000007500000000007500002000000010410406230920077074204773800623217416707420   1040001600030000   591220000288000000010000276Shwe Ohh Pharmacy (Nor Yangon        MMR11006230920077074200623000000000000000   10300001F00104100000000000450000000000000     
100   62443100306698200000000000217900000000217900002000000010410406230641046945507406570623937111304173   1030000900030000   541119000161190110000000084Pro (1) Global (Pazund YANGONARTAUNG MMR11006230641046945500623000000000000000   10300001F00104100000000054475000000000000     
100   95050328074436620000000000044000000000044000002000000010410406221041390060985015800622217317006098   1030000500030000   598320001204000015172200012MAX ENERGY             PTN           MMR11006221041390060980622000000000000000   10300001 00104100000000005280000000000000     
100   95050317578818060000000000042350000000042350002000000010410406220432470007500818500622217311000750   1030000500030000   541120229106000045411202291CITY MART YANKIN       PTN           MMR11006220432470007500622000000000000000   10300001 00104100000000010588000000000000     
100   62911028202656670000000000097865000000097865002000000010410406220619500013024773800622217312001302   1030000500030000   531120226305000045311202263OCEAN SUPER CENTER STJ PTN           MMR11006220619500013020622000000000000000   10300001 00104100000000005872000000000000     
100   62911028202520380000000000033500000000033500002000000010410406220447390013574773800622217311001357   1030000500030000   531120226301000045311202263OCEAN SUPER CENTER STJ PTN           MMR11006220447390013570622000000000000000   10300001 00104100000000002010000000000000     
100   62911028202520380000000000011850000000011850002000000010410406220449070013594773800622217311001359   1030000500030000   531120226301000045311202263OCEAN SUPER CENTER STJ PTN           MMR11006220449070013590622000000000000000   10300001 00104100000000000711000000000000     
100   95050324247403260000000000081000000000081000002000000010410406220313550534916080680622217303053491   1030000600030000   554100001001315799420000498DENKO SHWE PYI THAR    YANGON        MMR11006220313550534910622000000000000000   10300001 00104100000000009720000000000000     
100   95050322426452690000000000057000000000057000002000000010410406220719170308252336450622217307030825   1030000600030000   554100001116315799420000574DENKO HLAE KUU         HLAE KUU      MMR11006220719170308250622000000000000000   10300001 00104100000000006840000000000000     
100   95050322420590810000000000107000000000107000002000000010410406220118020692077222590622217301069207   1030000600030000   554100000952315799420000474DENKO N.DAGON - 1      YANGON        MMR11006220118020692070622000000000000000   10300001 00104100000000012840000000000000     
100   95050321232876860000000000137000000000137000002000000010410406221227570403788902650622217312040378   1030000600030000   554100001865315799420001235DENKO NAY PYI TAW 2    NAYPYITAW     MMR11006221227570403780622000000000000000   10300001 00104100000000016440000000000000     
100   95050321976590420000000000025627000000025627002000000010410406220954456373462767640622217316637346   1040001600030000   541120000557000000010000465Ocean Shwe Gone Daing  Yangon        MMR11006220954456373460622000000000000000   10300001F00104100000000006407000000000000     
100   95050312224678430000000000000980000000000980002000000010410406231120045004316525670623000007379847   1020000200030000   333400010001204104000000281Myanmar Soft-Gate Tech Yangon        MMR11006231120045004310623000000000000000   10300001F05104100000000000206000000000000     
100   62911028202491330000000000057000000000057000002000000010410406220915020288604773800622217309028860   1030000600030000   554100002085315799420000471DENKO BAHAN            YANGON        MMR11006220915020288600622000000000000000   10300001 00104100000000001710000000000000     
100   95030305700676370000000000060000000000060000002000000010410406220324220226894773800622217303022689   1030000600030000   554100001212315799420000664DENKO TA TAR OO        TA TAR OO     MMR11006220324220226890622000000000000000   10300001 00104100000000001800000000000000     
100   62911028202472440000000000012800000000012800002000000010410406231304270105294773800623000748920611   1030000200030000   541188001033000008000000298KBZ BANK               CITY MART - M MMR11006231304270105290623000000000000000   10300001 00104100000000000768000000000000     
100   62911028202416760000000000105000000000105000002000000010410406230632316989394773800623217413698939   1040001600030000   598320000316000000010000304PT Power Petrol Statio Yangon        MMR11006230632316989390623000000000000000   10300001F00104100000000003150000000000000     
100   62443100369813440000000000020000000000020000002000000010410406220205320059584002720622217308005958   1030000500030000   598320001302000015172200013MAX ENERGY             PTN           MMR11006220205320059580622000000000000000   10300001 00104100000000002400000000000000     
100   95030356977005070000000000002000000000002000002000000010410406231823410105484773800623000748938022   1030000200030000   541188001033000008000000298KBZ BANK               CITY MART - M MMR11006231823410105480623000000000000000   10300001 00104100000000000120000000000000     
100   62911028202440680000000000009950000000009950002000000010410406230559316970834773800623217412697083   1040001600030000   591220000296000000010000284Shwe Ohh Pharmacy (Lan Yangon        MMR11006230559316970830623000000000000000   10300001F00104100000000000597000000000000     
100   95050312695033440000000000001960000000001960002000000010410406230921365136781227830623000007379216   1020000200030000   333400010001204104000000281Myanmar Soft-Gate Tech Yangon        MMR11006230921365136780623000000000000000   10300001F05104100000000000412000000000000     
100   62911028202163480000000000300000000000300000002000000010410406231256152615484773800623000007380198   1030000500030000   333800010001201104000003863AYA Pay                Yangon        MMR11006231256152615480623000000000000000   10300001F05104100000000063000000000000000     
100   62911028202540670000000000010000000000010000002000000010410406230342246895724773800623217410689572   1040001600030000   598320000326000000010000314PT Power Petrol Statio Nay Pyi Taw   MMR11006230342246895720623000000000000000   10300001F00104100000000000300000000000000     
100   95050312498129060000000000001960000000001960002000000010410406231140461046555639050623000007379929   1020000200030000   333400010001204104000000281Myanmar Soft-Gate Tech Yangon        MMR11006231140461046550623000000000000000   10300001F05104100000000000412000000000000     
100   95030367537085740000000000000980000000000980002000000010410406231412374237584773800623000007380510   1020000200030000   333400010001204104000000281Myanmar Soft-Gate Tech Yangon        MMR11006231412374237580623000000000000000   10300001F05104100000000000206000000000000     
100   62911028202355870000000000500000000000500000002000000010410406230520485048014773800623000007377354   1030000600030000   333800010001230104000004564Trusty Wallet          Yangon        MMR11006230520485048010623000000000000000   10300001F05104100000000105000000000000000     
100   62911028202417260000000000007500000000007500002000000010410406230244406870724773800623217409687072   1040001600030000   591220000277000000010000265Shwe Ohh Pharmacy (Thu Yangon        MMR11006230244406870720623000000000000000   10300001F00104100000000000450000000000000     
100   62911028202610960000000000024950000000024950002000000010410406231140360305274773800623000748914102   1030000200030000   541188001012000008000000008KBZ BANK               MARKETPLACE - MMR11006231140360305270623000000000000000   10300001 00104100000000001497000000000000     
100   95030318100004530000000000013000000000013000002000000010410406231441510011704773800623000748927854   1030000200030000   541188001448000008000000401KBZ BANK               OCEAN SUPERCE MMR11006231441510011700623000000000000000   10300001 00104100000000000780000000000000     
100   95050314570621780000000000004900000000004900002000000010410406230630240024192364030623000007377879   1020000200030000   333400010001204104000000281Myanmar Soft-Gate Tech Yangon        MMR11006230630240024190623000000000000000   10300001F05104100000000001029000000000000     
100   95050312818293620000000000029200000000029200002000000010410406230549190005155243510623000748917135   1030000200030000   564188001659000008000005171KBZ BANK               SB BABY-2     MMR11006230549190005150623000000000000000   10300001 00104100000000007008000000000000     
100   95050321379436960000000000028800000000028800002000000010410406230413020024425718440623000748909321   1030000200030000   569988000805000008000004620KBZ BANK               STJ-BLAZON    MMR11006230413020024420623000000000000000   10300001 00104100000000006912000000000000     
100   62911028202169750000000000003200000000003200002000000010410406231205080122574773800623000748915900   1030000200030000   541188001189000008000000383KBZ BANK               OCEAN SUPER C MMR11006231205080122570623000000000000000   10300001 00104100000000000192000000000000     
100   62911028202616250000000000087100000000087100002000000010410406231301010261904773800623000748920273   1030000200030000   541188001059000008000000314KBZ BANK               MARKETPLACE - MMR11006231301010261900623000000000000000   10300001 00104100000000005226000000000000     
100   95050318214455130000000000002940000000002940002000000010410406230548111811430200960623000007377573   1020000200030000   333400010001204104000000281Myanmar Soft-Gate Tech Yangon        MMR11006230548111811430623000000000000000   10300001F05104100000000000617000000000000     
100   95050322740667800000000000200000000000200000002000000010410406231138130813033901470623000007379920   1030000200030000   333800010001203104000003327KBZPay                 Yangon        MMR11006231138130813030623000000000000000   10300001F05104100000000042000000000000000     
100   95050325630928770000000000000980000000000980002000000010410406230939330933271398020623000007379334   1020000200030000   333400010001204104000000281Myanmar Soft-Gate Tech Yangon        MMR11006230939330933270623000000000000000   10300001F05104100000000000206000000000000     
100   95030301100081330000000000325000000000325000002000000010410406230420482685244773800623504897446663   1040001400030000   573210000363025732100002140TAGON ELECTRONIC  null Shwe Chi (7)S MMR11006230420482685240623000000000000000   10300001 00104100000000019500000000000000     
100   95030333478847140000000000173572000000173572002000000010410406231859190264324773800623000748939356   1030000200030000   541188001003000008000000008KBZ BANK               MARKETPLACE - MMR11006231859190264320623000000000000000   10300001 00104100000000010414000000000000     
100   62443101065883000000000000030700000000030700002000000010410406231700450305460085920623000748934463   1030000200030000   541188001012000008000000008KBZ BANK               MARKETPLACE - MMR11006231700450305460623000000000000000   10300001 00104100000000007675000000000000     
100   95050322654733420000000000017420000000017420002000000010410406230948351835610972540623000007379391   1030000200030000   333800010001203104000003327KBZPay                 Yangon        MMR11006230948351835610623000000000000000   10300001F05104100000000003658000000000000     
100   62911028202610960000000000202300000000202300002000000010410406231145070263734773800623000748914418   1030000200030000   541188001003000008000000008KBZ BANK               MARKETPLACE - MMR11006231145070263730623000000000000000   10300001 00104100000000012138000000000000     
100   95050310427855490000000000002940000000002940002000000010410406231144411441503986570623000007379942   1020000200030000   333400010001204104000000281Myanmar Soft-Gate Tech Yangon        MMR11006231144411441500623000000000000000   10300001F05104100000000000617000000000000     
100   95050317876216360000000000001960000000001960002000000010410406230533420342731611950623000007377470   1020000200030000   333400010001204104000000281Myanmar Soft-Gate Tech Yangon        MMR11006230533420342730623000000000000000   10300001F05104100000000000412000000000000     
100   62911028202446700000000000010000000000010000002000000010410406230149371937844773800623000007375859   1030000500030000   333800010001201104000003863AYA Pay                Yangon        MMR11006230149371937840623000000000000000   10300001F05104100000000002100000000000000     
100   62911028202823400000000000050000000000050000002000000010410406230257022702334773800623000007376142   1030000200030000   333800010001203104000003327KBZPay                 Yangon        MMR11006230257022702330623000000000000000   10300001F05104100000000010500000000000000     
100   95050319468370810000000000000980000000000980002000000010410406231152582258335213570623000007379979   1020000200030000   333400010001204104000000281Myanmar Soft-Gate Tech Yangon        MMR11006231152582258330623000000000000000   10300001F05104100000000000206000000000000     
100   62443100350052510000000000105200000000105200002000000010410406231529120216349739830623000748930828   1030000200030000   541188001075000008000000294KBZ BANK               CITY MART - J MMR11006231529120216340623000000000000000   10300001 00104100000000026300000000000000     
100   95050321084131410000000000200000000000200000002000000010410406230845371537794697280623000007378935   1030000200030000   333800010001203104000003327KBZPay                 Yangon        MMR11006230845371537790623000000000000000   10300001F05104100000000042000000000000000     
100   95050313843656520000000000000980000000000980002000000010410406230956332633467752670623000007379447   1020000200030000   333400010001204104000000281Myanmar Soft-Gate Tech Yangon        MMR11006230956332633460623000000000000000   10300001F05104100000000000206000000000000     
100   95030318100004530000000000059550000000059550002000000010410406231429450058764773800623000748927006   1030000200030000   541188001420000008000000401KBZ BANK               OCEAN SUPERCE MMR11006231429450058760623000000000000000   10300001 00104100000000003573000000000000     
100   62911028202000450000000000001960000000001960002000000010410406230946351635084773800623000007379378   1020000200030000   333400010001204104000000281Myanmar Soft-Gate Tech Yangon        MMR11006230946351635080623000000000000000   10300001F05104100000000000412000000000000     
100   95050319161596230000000000000980000000000980002000000010410406230051592159632633100623000007375690   1020000200030000   333400010001204104000000281Myanmar Soft-Gate Tech Yangon        MMR11006230051592159630623000000000000000   10300001F05104100000000000206000000000000     
100   62911028202474000000000000045253000000045253002000000010410406231719350129414773800623000748935238   1030000200030000   541188001081000008000000294KBZ BANK               CITY MART - J MMR11006231719350129410623000000000000000   10300001 00104100000000002715000000000000     
100   95050310332595380000000000000980000000000980002000000010410406230135070507716363550623000007375787   1020000200030000   333400010001204104000000281Myanmar Soft-Gate Tech Yangon        MMR11006230135070507710623000000000000000   10300001F05104100000000000206000000000000     
100   95050312498129060000000000004900000000004900002000000010410406230659402940026094470623000007378144   1020000200030000   333400010001204104000000281Myanmar Soft-Gate Tech Yangon        MMR11006230659402940020623000000000000000   10300001F05104100000000001029000000000000     
100   62911028202169750000000000263485000000263485002000000010410406231056160053514773800623000748910451   1030000200030000   541188001004000008000000008KBZ BANK               MARKETPLACE - MMR11006231056160053510623000000000000000   10300001 00104100000000015809000000000000     
100   95050310305109410000000000001960000000001960002000000010410406231242431243850426310623000007380149   1020000200030000   333400010001204104000000281Myanmar Soft-Gate Tech Yangon        MMR11006231242431243850623000000000000000   10300001F05104100000000000412000000000000     
100   95050324622440820000000000026050000000026050002000000010410406231500100166476349760623000748929108   1030000200030000   541188001306000008000000325KBZ BANK               CITY MART - A MMR11006231500100166470623000000000000000   10300001 00104100000000006513000000000000     
100   62443100328070970000000000011130000000011130002000000010410406232020350387557376640623000748941234   1030000200030000   541188001024000008000000298KBZ BANK               CITY MART - M MMR11006232020350387550623000000000000000   10300001 00104100000000002783000000000000     
100   62911028202068510000000000020000000000020000002000000010410406230235240524304773800623000007376022   1030000200030000   333800010001203104000003327KBZPay                 Yangon        MMR11006230235240524300623000000000000000   10300001F05104100000000004200000000000000     
100   95050323667276610000000000002940000000002940002000000010410406230947051705296015090623000007379382   1020000200030000   333400010001204104000000281Myanmar Soft-Gate Tech Yangon        MMR11006230947051705290623000000000000000   10300001F05104100000000000617000000000000     
100   95050319938772870000000000000980000000000980002000000010410406231248581858815383770623000007380168   1020000200030000   333400010001204104000000281Myanmar Soft-Gate Tech Yangon        MMR11006231248581858810623000000000000000   10300001F05104100000000000206000000000000     
100   95050312554086980000000000007200000000007200002000000010410406231251530216237321480623000748919383   1030000200030000   541188001075000008000000294KBZ BANK               CITY MART - J MMR11006231251530216230623000000000000000   10300001 00104100000000001800000000000000     
100   95050322990383760000000000001000000000001000002000000010410406230642491249379059050623000007377971   1030000200030000   3334000100012031040000040102C2P (Myanmar) Co. Ltd Yangon        MMR11006230642491249370623000000000000000   10300001F05104100000000000210000000000000     
100   95050316997303010000000000010000000000010000002000000010410406231352082208992334090623000007380436   1040001600030000   333800010001220104000004507A +                    Yangon        MMR11006231352082208990623000000000000000   10300001F05104100000000002100000000000000     
100   95050311959900780000000000000980000000000980002000000010410406231533040304454156760623000007380806   1020000200030000   333400010001204104000000281Myanmar Soft-Gate Tech Yangon        MMR11006231533040304450623000000000000000   10300001F05104100000000000206000000000000     
100   95050316785465380000000000001960000000001960002000000010410406230737390739804527080623000007378438   1020000200030000   333400010001204104000000281Myanmar Soft-Gate Tech Yangon        MMR11006230737390739800623000000000000000   10300001F05104100000000000412000000000000     
100   95050322740667800000000000300000000000300000002000000010410406231136560656025553960623000007379912   1030000200030000   333800010001203104000003327KBZPay                 Yangon        MMR11006231136560656020623000000000000000   10300001F05104100000000063000000000000000     
100   95050319528093960000000000000980000000000980002000000010410406231538530853369114210623000007380825   1020000200030000   333400010001204104000000281Myanmar Soft-Gate Tech Yangon        MMR11006231538530853360623000000000000000   10300001F05104100000000000206000000000000     
100   95050310427855490000000000002940000000002940002000000010410406221643221322439243040623000007375298   1020000200030000   333400010001204104000000281Myanmar Soft-Gate Tech Yangon        MMR11006221643221322430623000000000000000   10300001F05104100000000000617000000000000     
100   95050310616516480000000000002940000000002940002000000010410406230446431643894491430623000007377112   1020000200030000   333400010001204104000000281Myanmar Soft-Gate Tech Yangon        MMR11006230446431643890623000000000000000   10300001F05104100000000000617000000000000     
100   95050319925596540000000000012740000000012740002000000010410406231151242124647291530623000007379970   1020000200030000   333400010001204104000000281Myanmar Soft-Gate Tech Yangon        MMR11006231151242124640623000000000000000   10300001F05104100000000002675000000000000     
100   95050315017843630000000000005000000000005000002000000010410406231258142814450936890623000007380208   1040001600030000   333800010001220104000004507A +                    Yangon        MMR11006231258142814450623000000000000000   10300001F05104100000000001050000000000000     
100   62911028202116120000000000133070000000133070002000000010410406231955340361344773800623000748940784   1030000200030000   541188001041000008000000010KBZ BANK               MARKETPLACE - MMR11006231955340361340623000000000000000   10300001 00104100000000007984000000000000     
100   95050320335873810000000000060000000000060000002000000010410406230450252025112838950623000007377143   1030000200030000   333800010001203104000003327KBZPay                 Yangon        MMR11006230450252025110623000000000000000   10300001F05104100000000012600000000000000     
100   95050311382087030000000000000980000000000980002000000010410406231155032503135298670623000007379990   1020000200030000   333400010001204104000000281Myanmar Soft-Gate Tech Yangon        MMR11006231155032503130623000000000000000   10300001F05104100000000000206000000000000     
100   95050322312197120000000000020000000000020000002000000010410406230931020102146355480623000007379282   1030000200030000   333800010001203104000003327KBZPay                 Yangon        MMR11006230931020102140623000000000000000   10300001F05104100000000004200000000000000     
100   62911028202651050000000000230550000000230550002000000010410406230953520243344773800623000748905950   1030000200030000   541188001037000008000000010KBZ BANK               MARKETPLACE - MMR11006230953520243340623000000000000000   10300001 00104100000000013833000000000000     
100   95050318712627500000000000016000000000016000002000000010410406230739290929906264670623000007378455   1030000200030000   333800010001203104000003327KBZPay                 Yangon        MMR11006230739290929900623000000000000000   10300001F05104100000000003360000000000000     
100   95050319938772870000000000000980000000000980002000000010410406231520035003844071660623000007380771   1020000200030000   333400010001204104000000281Myanmar Soft-Gate Tech Yangon        MMR11006231520035003840623000000000000000   10300001F05104100000000000206000000000000     
100   62911028202355870000000001000000000001000000002000000010410406230519434943014773800623000007377342   1030000600030000   333800010001230104000004564Trusty Wallet          Yangon        MMR11006230519434943010623000000000000000   10300001F05104100000000210000000000000000     
