100   95050318617855880000000000000980000000000980002000000010410406241225255525026517590624000007385914   1020000200030000   333400010001204104000000281Myanmar Soft-Gate Tech Yangon        MMR11006241225255525020624000000000000000   10300001F05104100000000000206000000000000     
100   95050310427855490000000000000980000000000980002000000010410406240307413741564653550624000007381819   1020000200030000   333400010001204104000000281Myanmar Soft-Gate Tech Yangon        MMR11006240307413741560624000000000000000   10300001F05104100000000000206000000000000     
100   95050325139996190000000000083600000000083600002000000010410406240302533253393341450624000007381763   1030000200030000   333300010001203104000003632Myanmar Tradenet Test  Yangon        MMR11006240302533253390624000000000000000   10300001F05104100000000010000000000000000     
100   62911028202446700000000000015000000000015000002000000010410406240628045804464773800624000007383505   1030000500030000   333800010001201104000003863AYA Pay                Yangon        MMR11006240628045804460624000000000000000   10300001F05104100000000003150000000000000     
100   95030308100042590000000000019800000000019800002000000010410406240413077149374773800624400431007174   1030000900030000   591219000693190110000000524Shwe Ohh Pharmacy ST-2 YANGON        MMR11006240413077149370624000000000000000   10300001F00104100000000001188000000000000     
100   95050310427855490000000000000980000000000980002000000010410406240319074907864738650624000007381913   1020000200030000   333400010001204104000000281Myanmar Soft-Gate Tech Yangon        MMR11006240319074907860624000000000000000   10300001F05104100000000000206000000000000     
100   62911028202684060000000000002705000000002705002000000010410406240428087153004773800624592581008174   1030000900030000   541119001162190110000000930OCEAN HTY C 12         YANGONTHARYA  MMR11006240428087153000624000000000000000   10300001F00104100000000000162000000000000     
100   62911028202212490000000000008100000000008100002000000010410406240404137147044773800624281341013174   1030000900030000   581219000715190110000000546Akkhaya Tea House(Dago YANGON        MMR11006240404137147040624000000000000000   10300001F00104100000000000826000000000000     
100   62911028202313470000000000234400000000234400002000000010410406240404237147094773800624284341023174   1030000900030000   591219000609190110000000449Shwe Ohh Pharmacy St-3 YANGONAUNG    MMR11006240404237147090624000000000000000   10300001F00104100000000014064000000000000     
100   95050318712627500000000000000980000000000980002000000010410406240306493649316306040624000007381816   1020000200030000   333400010001204104000000281Myanmar Soft-Gate Tech Yangon        MMR11006240306493649310624000000000000000   10300001F05104100000000000206000000000000     
100   95050311959900780000000000002940000000002940002000000010410406241519404940269737470624000007386543   1020000200030000   333400010001204104000000281Myanmar Soft-Gate Tech Yangon        MMR11006241519404940260624000000000000000   10300001F05104100000000000617000000000000     
100   95050311959900780000000000001960000000001960002000000010410406241522065206248084980624000007386556   1020000200030000   333400010001204104000000281Myanmar Soft-Gate Tech Yangon        MMR11006241522065206240624000000000000000   10300001F05104100000000000412000000000000     
100   62911028202595200000000000050900000000050900002000000010410406240238057126644773800624263080905174   1030000900030000   541119000162190110000000084Pro (1) Global (Pazund YANGONARTAUNG MMR11006240238057126640624000000000000000   10300001F00104100000000003054000000000000     
100   95050316067768680000000000000980000000000980002000000010410406241108563856486092110624000007385607   1020000200030000   333400010001204104000000281Myanmar Soft-Gate Tech Yangon        MMR11006241108563856480624000000000000000   10300001F05104100000000000206000000000000     
100   95050312520116690000000000002150000000002150002000000010410406240728317201775526380624583146371107   1040001400030000   555610000598025556100003510119 Store null No-119  Anawrahta Roa MMR11006240728317201770624000000000000000   10300001 00104100000000000538000000000000     
100   95030301100319290000000000004900000000004900002000000010410406240650202020174773800624000007383692   1020000200030000   333400010001204104000000281Myanmar Soft-Gate Tech Yangon        MMR11006240650202020170624000000000000000   10300001F05104100000000001029000000000000     
100   95050319331315630000000000014700000000014700002000000010410406241053332333072191470624000007385560   1020000200030000   333400010001204104000000281Myanmar Soft-Gate Tech Yangon        MMR11006241053332333070624000000000000000   10300001F05104100000000003087000000000000     
100   95050318267399100000000000000980000000000980002000000010410406241126325632941219750624000007385675   1020000200030000   333400010001204104000000281Myanmar Soft-Gate Tech Yangon        MMR11006241126325632940624000000000000000   10300001F05104100000000000206000000000000     
100   95030325264619140000000000011320000000011320002000000010410406240404337147184773800624289341033174   1030000900030000   541119001231190110000000951Marketplace KTY C 1    YANGONARTAUNG MMR11006240404337147180624000000000000000   10300001F00104100000000000679000000000000     
100   95050310553090700000000000036830000000036830002000000010410406240655387194349171730624908251338174   1030000900030000   541119000121190110000000080Sein Gay Har BAK       YANGONADA     MMR11006240655387194340624000000000000000   10300001F00104100000000009208000000000000     
100   95050312498129060000000000001960000000001960002000000010410406240851492149397313400624000007384692   1020000200030000   333400010001204104000000281Myanmar Soft-Gate Tech Yangon        MMR11006240851492149390624000000000000000   10300001F05104100000000000412000000000000     
100   95050316067768680000000000000980000000000980002000000010410406241107313731211049570624000007385603   1020000200030000   333400010001204104000000281Myanmar Soft-Gate Tech Yangon        MMR11006241107313731210624000000000000000   10300001F05104100000000000206000000000000     
100   95050315199558640000000000052050000000052050002000000010410406240503297163625746010624210331129174   1030000900030000   541119001358190110000000977Ocean PZD C 12         YANGONAUNG    MMR11006240503297163620624000000000000000   10300001F00104100000000013013000000000000     
100   95050319938772870000000000000980000000000980002000000010410406241523365336713042430624000007386562   1020000200030000   333400010001204104000000281Myanmar Soft-Gate Tech Yangon        MMR11006241523365336710624000000000000000   10300001F05104100000000000206000000000000     
100   95050312695033440000000000000980000000000980002000000010410406240005263526202504280624000007381297   1020000200030000   333400010001204104000000281Myanmar Soft-Gate Tech Yangon        MMR11006240005263526200624000000000000000   10300001F05104100000000000206000000000000     
100   95050317338786370000000000001000000000001000002000000010410406240107113711271178390624000007381397   1030000200030000   3334000100012031040000040102C2P (Myanmar) Co. Ltd Yangon        MMR11006240107113711270624000000000000000   10300001F05104100000000000210000000000000     
100   95050311121153200000000000000980000000000980002000000010410406241407143714476262310624000007386305   1020000200030000   333400010001204104000000281Myanmar Soft-Gate Tech Yangon        MMR11006241407143714470624000000000000000   10300001F05104100000000000206000000000000     
100   95030306757281900000000000077901000000077901002000000010410406240639097189984773800624669091309174   1030000900030000   541119001217190110000000945City Mart TM C 2       YANGONONE     MMR11006240639097189980624000000000000000   10300001F00104100000000004674000000000000     
100   95030343892826500000000000050000000000050000002000000010410406241323455345064773800624000007386145   1030000200030000   333800010001203104000003327KBZPay                 Yangon        MMR11006241323455345060624000000000000000   10300001F05104100000000010500000000000000     
100   95050316717221100000000000017796000000017796002000000010410406240650137192952235200624831201313174   1030000900030000   541119000116190110000000078Sein Gay Har Kan Thar  YANGONOKKALAP MMR11006240650137192950624000000000000000   10300001F00104100000000004449000000000000     
100   62911028202405460000000000012900000000012900002000000010410406240946217239494773800624411161621174   1030000900030000   541119001191190110000000942City Mart HDC C 6      YANGONUT      MMR11006240946217239490624000000000000000   10300001F00104100000000000774000000000000     
100   95050310332595380000000000000980000000000980002000000010410406240202423242702575590624000007381530   1020000200030000   333400010001204104000000281Myanmar Soft-Gate Tech Yangon        MMR11006240202423242700624000000000000000   10300001F05104100000000000206000000000000     
100   95050310427855490000000000001960000000001960002000000010410406240211494149685880560624000007381553   1020000200030000   333400010001204104000000281Myanmar Soft-Gate Tech Yangon        MMR11006240211494149680624000000000000000   10300001F05104100000000000412000000000000     
100   62443100372718280000000000024150000000024150002000000010410406240119477114931263480624815490747174   1030000900030000   581219000715190110000000546Akkhaya Tea House(Dago YANGON        MMR11006240119477114930624000000000000000   10300001F00104100000000010264000000000000     
100   95050311184380560000000000002940000000002940002000000010410406241412434243814609820624000007386328   1020000200030000   333400010001204104000000281Myanmar Soft-Gate Tech Yangon        MMR11006241412434243810624000000000000000   10300001F05104100000000000617000000000000     
100   95050316785465380000000000000980000000000980002000000010410406241512444244027999880624000007386527   1020000200030000   333400010001204104000000281Myanmar Soft-Gate Tech Yangon        MMR11006241512444244020624000000000000000   10300001F05104100000000000206000000000000     
100   95050312224678430000000000001960000000001960002000000010410406241329025902764950210624000007386163   1020000200030000   333400010001204104000000281Myanmar Soft-Gate Tech Yangon        MMR11006241329025902760624000000000000000   10300001F05104100000000000412000000000000     
100   95050316785465380000000000000980000000000980002000000010410406241524125412791389950624000007386565   1020000200030000   333400010001204104000000281Myanmar Soft-Gate Tech Yangon        MMR11006241524125412790624000000000000000   10300001F05104100000000000206000000000000     
100   95050322823372070000000000040000000000040000002000000010410406240928507234508461020624119581550174   1030000900030000   554119001103190110000000215New Day Energy MYG     YANGONONE     MMR11006240928507234500624000000000000000   10300001F00104100000000004800000000000000     
100   95050316818236190000000000002940000000002940002000000010410406241546281628221475050624000007386645   1020000200030000   333400010001204104000000281Myanmar Soft-Gate Tech Yangon        MMR11006241546281628220624000000000000000   10300001F05104100000000000617000000000000     
100   62443100373945130000000000020000000000020000002000000010410406241237557286658170080624148071955174   1030000900030000   554119001103190110000000215New Day Energy MYG     YANGONONE     MMR11006241237557286650624000000000000000   10300001F00104100000000002400000000000000     
100   95050313240335680000000000020000000000020000002000000010410406240926317796387058110624217516779638   1040001600030000   591220000258000000010000246Shwe Ohh Pharmacy (Sin Yangon        MMR11006240926317796380624000000000000000   10300001F00104100000000004800000000000000     
100   62443100300743690000000000009332000000009332002000000010410406241350418035911304860624217520803591   1040001600030000   541120000553000000010000465Ocean Shwe Gone Daing  Yangon        MMR11006241350418035910624000000000000000   10300001F00104100000000002333000000000000     
100   62911028202789750000000000024700000000024700002000000010410406241035047849154773800624217517784915   1040001600030000   591220000271000000010000259Shwe Ohh Pharmacy (Gwa Yangon        MMR11006241035047849150624000000000000000   10300001F00104100000000001482000000000000     
100   62911028202488950000000000030000000000030000002000000010410406241048297257444773800624428181729174   1030000900030000   554119000345190110000000212New Day Energy PZD     YANGONAUNG    MMR11006241048297257440624000000000000000   10300001F00104100000000000900000000000000     
100   62911028202107390000000000035000000000035000002000000010410406241110357264354773800624844401735174   1030000900030000   554119001101190110000000213New Day Energy SOK     YANGONOKKALAP MMR11006241110357264350624000000000000000   10300001F00104100000000001050000000000000     
100   95050328082468580000000000005000000000005000002000000010410406241541271127793127530624000007386637   1030000200030000   333800010001203104000003327KBZPay                 Yangon        MMR11006241541271127790624000000000000000   10300001F05104100000000001050000000000000     
100   95050317003064220000000000000980000000000980002000000010410406241615504550344780010624000007386722   1020000200030000   333400010001204104000000281Myanmar Soft-Gate Tech Yangon        MMR11006241615504550340624000000000000000   10300001F05104100000000000206000000000000     
100   95050317834964620000000000006040000000006040002000000010410406241052357258680538990624494221735174   1030000900030000   541119001355190110000000977Ocean PZD C9           YANGONAUNG    MMR11006241052357258680624000000000000000   10300001F00104100000000001510000000000000     
100   62911028202471860000000000033300000000033300002000000010410406231336310002654773800623217420000265   1030000500030000   581220204101000085812202041MIN LAN                PTN           MMR11006231336310002650623000000000000000   10300001 00104100000000003397000000000000     
100   95050320092651450000000000040000000000040000002000000010410406240050257523909525910624217507752390   1040001600030000   598320001170000000010000527Shwe Taung Energy (YGN Yangon        MMR11006240050257523900624000000000000000   10300001F00104100000000004800000000000000     
100   62911028202595200000000000077055000000077055002000000010410406241217197948714773800624217519794871   1040001600030000   598320001170000000010000527Shwe Taung Energy (YGN Yangon        MMR11006241217197948710624000000000000000   10300001F00104100000000002312000000000000     
100   62911028202212490000000000003900000000003900002000000010410406230332510001934773800623217410000193   1030000500030000   541120227501000045411202275CITY MART (AHLONE BRAN PTN           MMR11006230332510001930623000000000000000   10300001 00104100000000000234000000000000     
100   95050322990383760000000000030700000000030700002000000010410406240227077575767618130624217509757576   1040001600030000   591220000043000000010000041Mingalar Pharmacy      Yangon        MMR11006240227077575760624000000000000000   10300001F00104100000000007368000000000000     
100   95030319588829360000000000018100000000018100002000000010410406240844237222534773800624446141523174   1030000900030000   541119001229190110000000946City Mart TM Season C  YANGONONE     MMR11006240844237222530624000000000000000   10300001F00104100000000001086000000000000     
100   62911028202132460000000000006850000000006850002000000010410406241226307958054773800624217519795805   1040001600030000   591220000285000000010000273Shwe Ohh Pharmacy (47t Yangon        MMR11006241226307958050624000000000000000   10300001F00104100000000000411000000000000     
100   95050320205194540000000000032450000000032450002000000010410406241121387893689482180624217518789368   1040001600030000   591220000292000000010000280Shwe Ohh Pharmacy (Cha Yangon        MMR11006241121387893680624000000000000000   10300001F00104100000000007788000000000000     
100   62911028202108460000000000050000000000050000002000000010410406230237010059864773800623217409005986   1030000500030000   598320001203000015172200012MAX ENERGY             PTN           MMR11006230237010059860623000000000000000   10300001 00104100000000001500000000000000     
100   62911028202471860000000000011500000000011500002000000010410406241243547287814773800624216131954174   1030000900030000   541119000113190110000000077Sein Gay Har Chinatown YANGON        MMR11006241243547287810624000000000000000   10300001F00104100000000000690000000000000     
100   62911028202151340000000000008950000000008950002000000010410406240606147690784773800624217513769078   1040001600030000   591220000296000000010000284Shwe Ohh Pharmacy (Lan Yangon        MMR11006240606147690780624000000000000000   10300001F00104100000000000537000000000000     
100   62911028202146650000000000025000000000025000002000000010410406241128497269214773800624127581749174   1030000900030000   541119001250190110000000955City Mart JS C 9       YANGONUT      MMR11006241128497269210624000000000000000   10300001F00104100000000001500000000000000     
100   95050314774151170000000000052374000000052374002000000010410406230737430015346179570623000351732942   1030000300030000   531100000752000000000000408CB BANK                CAPITAL HYPER MMR11006230737430015340623000000000000000   10300001F00104100000000012570000000000000     
100   95030394133855510000000000007750000000007750002000000010410406230406530004434773800623217410000443   1030000500030000   541120229002000045411202290CITY MART SUPERMARKET  PTN           MMR11006230406530004430623000000000000000   10300001 00104100000000000465000000000000     
100   95050323749862420000000000035260000000035260002000000010410406231212240001446951150623000351769748   1030000300030000   541100000441000000000000319CB BANK                ONESTOP KITCH MMR11006231212240001440623000000000000000   10300001F00104100000000008815000000000000     
100   62443100373945130000000000023300000000023300002000000010410406231002190006166100190623217416000616   1030000500030000   541120045801009205411200458126 STORE              PTN           MMR11006231002190006160623000000000000000   10300001 00104100000000005825000000000000     
100   95050319902033540000000000043894000000043894002000000010410406230843480038106434860623217415003810   1030000500030000   531120156008000045311201560GAMONE PWINT           PTN           MMR11006230843480038100623000000000000000   10300001 00104100000000010534000000000000     
100   95050328243669610000000000060000000000060000002000000010410406231122120045951483130623217417004595   1030000500030000   598320002101000015172200021MAX ENERGY             PTN           MMR11006231122120045950623000000000000000   10300001 00104100000000007200000000000000     
100   62443101023815100000000000014250000000014250002000000010410406231153340007313646180623217418000731   1030000500030000   541120227503000045411202275CITY MART (AHLONE BRAN PTN           MMR11006231153340007310623000000000000000   10300001 00104100000000003563000000000000     
100   62911028202115960000000000079647000000079647002000000010410406230418250008554773800623217410000855   1030000500030000   541120226802000045411202268CITY MART WAIZAYANDA   PTN           MMR11006230418250008550623000000000000000   10300001 00104100000000004779000000000000     
100   95050320205194540000000000649000000000649000002000000010410406230606070001363335740623217412000136   1030000500030000   573220014801000015732200148LG PANSODAN            PTN           MMR11006230606070001360623000000000000000   10300001 00104100000000155760000000000000     
100   95030308100042590000000000067000000000067000002000000010410406231204020009874773800623217418000987   1030000500030000   598320001704000015172200017MAX ENERGY             PTN           MMR11006231204020009870623000000000000000   10300001 00104100000000002010000000000000     
100   95050321379436960000000000075000000000075000002000000010410406230455570025341867240623217411002534   1030000500030000   569120104001008205691201040ESCORT ( CITY MALL-ST. PTN           MMR11006230455570025340623000000000000000   10300001 00104100000000018000000000000000     
100   62443101093150400000000000103450000000103450002000000010410406230530360000148306980623000351714891   1030000300030000   541100002345000000000000102CB BANK                MAKRO MYANMAR MMR11006230530360000140623000000000000000   10300001F00104100000000025863000000000000     
100   95050314302558730000000000002940000000002940002000000010410406240446431643761043850624000007382739   1020000200030000   333400010001204104000000281Myanmar Soft-Gate Tech Yangon        MMR11006240446431643760624000000000000000   10300001F05104100000000000617000000000000     
100   95050324247403260000000000026000000000026000002000000010410406240521387169254604110624529511138174   1030000900030000   541119001230190110000000947City Mart TM City Care YANGONONE     MMR11006240521387169250624000000000000000   10300001F00104100000000006500000000000000     
100   95050315017843630000000000000980000000000980002000000010410406241034500450955751730624000007385470   1020000200030000   333400010001204104000000281Myanmar Soft-Gate Tech Yangon        MMR11006241034500450950624000000000000000   10300001F05104100000000000206000000000000     
100   62443100372718280000000000043983000000043983002000000010410406230108490044660725330623000351681180   1030000300030000   598300001210000000000000817CB BANK                SHWE TAUNG EN MMR11006230108490044660623000000000000000   10300001F00104100000000005278000000000000     
100   95050315615561720000000000000980000000000980002000000010410406240905573557538965880624000007384801   1020000200030000   333400010001204104000000281Myanmar Soft-Gate Tech Yangon        MMR11006240905573557530624000000000000000   10300001F05104100000000000206000000000000     
100   95050319204938440000000000005000000000005000002000000010410406240909513951255235430624000007384834   1030000200030000   333800010001203104000003327KBZPay                 Yangon        MMR11006240909513951250624000000000000000   10300001F05104100000000001050000000000000     
100   62443100303702210000000000113600000000113600002000000010410406240451247159966086400624994211124174   1030000900030000   541119001281190110000000963City Mart SPL C6       YANGONMYOTHIT MMR11006240451247159960624000000000000000   10300001F00104100000000028400000000000000     
100   62911028202045260000000000018500000000018500002000000010410406230644010001104773800623217413000110   1030000500030000   541120229601000045411202296CITY EXPRESS (MCS - 10 PTN           MMR11006230644010001100623000000000000000   10300001 00104100000000001110000000000000     
100   95050321379436960000000000035000000000035000002000000010410406230353210002935973730623217410000293   1030000500030000   531120226319000045311202263OCEAN SUPER CENTER STJ PTN           MMR11006230353210002930623000000000000000   10300001 00104100000000008400000000000000     
100   62443100306698200000000000147300000000147300002000000010410406230602220007435328610623217412000743   1030000500030000   541120129726000045411201297MAKRO MYANMAR          PTN           MMR11006230602220007430623000000000000000   10300001 00104100000000036825000000000000     
100   62911028202490830000000000260000000000260000002000000010410406230720040016984773800623217413001698   1030000500030000   806220046404006308062200464ASIA ROYAL HOSPITAL    PTN           MMR11006230720040016980623000000000000000   10300001 00104100000000015600000000000000     
100   95030389641831340000000000039800000000039800002000000010410406231103470010884773800623217417001088   1030000500030000   541120226803000045411202268CITY MART WAIZAYANDA   PTN           MMR11006231103470010880623000000000000000   10300001 00104100000000002388000000000000     
100   95050325925517520000000000091200000000091200002000000010410406230643350033599144160623217413003359   1030000500030000   503920036611000015039200366PRO-1 HOME CENTER      PTN           MMR11006230643350033590623000000000000000   10300001 00104100000000021888000000000000     
100   95050323282717740000000000021741000000021741002000000010410406231110200010898178150623217417001089   1030000500030000   541120226803000045411202268CITY MART WAIZAYANDA   PTN           MMR11006231110200010890623000000000000000   10300001 00104100000000005436000000000000     
100   95030346130941600000000000011445000000011445002000000010410406231133310013464773800623217418001346   1030000500030000   541120226806000045411202268CITY MART WAIZAYANDA   PTN           MMR11006231133310013460623000000000000000   10300001 00104100000000000687000000000000     
100   95050316067768680000000000000980000000000980002000000010410406241111414141184439630624000007385616   1020000200030000   333400010001204104000000281Myanmar Soft-Gate Tech Yangon        MMR11006241111414141180624000000000000000   10300001F05104100000000000206000000000000     
100   62911028202163480000000000040200000000040200002000000010410406240413247149424773800624403431024174   1030000900030000   541119000123190110000000080Sein Gay Har BAK       YANGON        MMR11006240413247149420624000000000000000   10300001F00104100000000002412000000000000     
100   95050310493351990000000000000980000000000980002000000010410406240027265726766050740624000007381328   1020000200030000   333400010001204104000000281Myanmar Soft-Gate Tech Yangon        MMR11006240027265726760624000000000000000   10300001F05104100000000000206000000000000     
100   95050318608138520000000000002500000000002500002000000010410406241621075107056674000624000007386733   1030000200030000   333800010001203104000003327KBZPay                 Yangon        MMR11006241621075107050624000000000000000   10300001F05104100000000000525000000000000     
100   62443100359661970000000000102250000000102250002000000010410406240454167160802355950624040241116174   1030000900030000   541119000115190110000000078Sein Gay Har Kan Thar  YANGONOKKALAP MMR11006240454167160800624000000000000000   10300001F00104100000000025563000000000000     
100   95050311926829590000000000000980000000000980002000000010410406241329455945436687790624000007386164   1020000200030000   333400010001204104000000281Myanmar Soft-Gate Tech Yangon        MMR11006241329455945430624000000000000000   10300001F05104100000000000206000000000000     
100   95050318267399100000000000000980000000000980002000000010410406241124545454067914790624000007385669   1020000200030000   333400010001204104000000281Myanmar Soft-Gate Tech Yangon        MMR11006241124545454060624000000000000000   10300001F05104100000000000206000000000000     
100   95050314365758940000000000002400000000002400002000000010410406221154580002063448410622217318000206   1030000500030000   541120203812000015411202038CITY MART SUPERMARKET  PTN           MMR11006221154580002060622000000000000000   10300001 00104100000000000600000000000000     
100   62911028202527800000000000050000000000050000002000000010410406231018400043834773800623217416004383   1030000500030000   598320001601000015172200016MAX ENERGY             PTN           MMR11006231018400043830623000000000000000   10300001 00104100000000001500000000000000     
100   62911028202527490000000000037000000000037000002000000010410406230340030015914773800623217410001591   1030000500030000   598320002003000015172200020MAX ENERGY             PTN           MMR11006230340030015910623000000000000000   10300001 00104100000000001110000000000000     
100   95050328212196190000000000084100000000084100002000000010410406230631570002275668990623000351723665   1030000300030000   541100002357000000000000102CB BANK                MAKRO MYANMAR MMR11006230631570002270623000000000000000   10300001F00104100000000021025000000000000     
100   62911028202449440000000000100000000000100000002000000010410406231017070005444773800623217416000544   1030000500030000   598320005701000015172200057MAX ENERGY             PTN           MMR11006231017070005440623000000000000000   10300001 00104100000000003000000000000000     
100   62911028202004330000000000002600000000002600002000000010410406231149280006764773800623217418000676   1030000500030000   531120226331000045311202263OCEAN SUPER CENTER STJ PTN           MMR11006231149280006760623000000000000000   10300001 00104100000000000156000000000000     
100   62911028202108200000000000018400000000018400002000000010410406231225040019454773800623217418001945   1030000500030000   581220021101000015812200211SHWE LAR HOT POT       PTN           MMR11006231225040019450623000000000000000   10300001 00104100000000001877000000000000     
100   62911028202004330000000000010900000000010900002000000010410406231146140007584773800623217418000758   1030000500030000   531120226320000045311202263OCEAN SUPER CENTER STJ PTN           MMR11006231146140007580623000000000000000   10300001 00104100000000000654000000000000     
100   95050324154190880000000000024000000000024000002000000010410406230234320045108441520623217409004510   1030000500030000   598320002101000015172200021MAX ENERGY             PTN           MMR11006230234320045100623000000000000000   10300001 00104100000000002880000000000000     
100   62443100330108240000000000003920000000003920002000000010410406241330010001845035300624000007386166   1020000200030000   333400010001204104000000281Myanmar Soft-Gate Tech Yangon        MMR11006241330010001840624000000000000000   10300001F05104100000000000823000000000000     
100   62443100371022130000000000027250000000027250002000000010410406241551400037763753150624000748987020   1030000200030000   541188001079000008000000294KBZ BANK               CITY MART - J MMR11006241551400037760624000000000000000   10300001 00104100000000006813000000000000     
100   95050318621775380000000000002000000000002000002000000010410406240230350035119355720624000007381611   1030000200030000   3338000100012031040000040022C2P (Myanmar) Co. Ltd Yangon        MMR11006240230350035110624000000000000000   10300001F05104100000000000420000000000000     
100   95050316785465380000000000015900000000015900002000000010410406241000050047420461960624000748956630   1030000200030000   541188001463000008000000391KBZ BANK               OCEAN SUPER C MMR11006241000050047420624000000000000000   10300001 00104100000000003975000000000000     
100   95030306757281900000000000028800000000028800002000000010410406240518580012154773800624000748965411   1030000200030000   569988000788000008000004559KBZ BANK               HLS-IPANEMA   MMR11006240518580012150624000000000000000   10300001 00104100000000001728000000000000     
100   95050316785465380000000000006400000000006400002000000010410406241003370029305079030624000748956892   1030000200030000   541188001474000008000000391KBZ BANK               OCEAN SUPER C MMR11006241003370029300624000000000000000   10300001 00104100000000001600000000000000     
100   95050310251874990000000000004850000000004850002000000010410406241207440061340157230624000748967069   1030000200030000   541188001432000008000000401KBZ BANK               OCEAN SUPERCE MMR11006241207440061340624000000000000000   10300001 00104100000000001213000000000000     
100   95050319938772870000000000000980000000000980002000000010410406241248281828668255170624000007386000   1020000200030000   333400010001204104000000281Myanmar Soft-Gate Tech Yangon        MMR11006241248281828660624000000000000000   10300001F05104100000000000206000000000000     
100   95050328384000040000000000013900000000013900002000000010410406230411320000834065950623000351703869   1030000300030000   581400001678000000000001199CB BANK                SHWEPALIN (NA MMR11006230411320000830623000000000000000   10300001F00104100000000001668000000000000     
100   62911028202163630000000000012001000000012001002000000010410406230904190784224773800623217409078422   1030000600030000   554100000957315799420000480DENKO N.DAGON - 3      YANGON        MMR11006230904190784220623000000000000000   10300001 00104100000000000360000000000000     
100   62911028202112400000000000022000000000022000002000000010410406230129230052104773800623217407005210   1030000500030000   598320001201000015172200012MAX ENERGY             PTN           MMR11006230129230052100623000000000000000   10300001 00104100000000000660000000000000     
100   62911028202197630000000000014000000000014000002000000010410406231018590255104773800623217410025510   1030000600030000   554100002319315799420000477DENKO INSEIN           YANGON        MMR11006231018590255100623000000000000000   10300001 00104100000000000420000000000000     
100   95050321232876860000000000030000000000030000002000000010410406230941580404299745540623217409040429   1030000600030000   554100001865315799420001235DENKO NAY PYI TAW 2    NAYPYITAW     MMR11006230941580404290623000000000000000   10300001 00104100000000003600000000000000     
100   95030318100004530000000000032000000000032000002000000010410406230401570113604773800623217404011360   1030000600030000   554100001218315799420000670DENKO MAWLAMYAING      MON STATE.    MMR11006230401570113600623000000000000000   10300001 00104100000000000960000000000000     
100   62911028202717310000000000030000000000030000002000000010410406231253040046094773800623217419004609   1030000500030000   598320002101000015172200021MAX ENERGY             PTN           MMR11006231253040046090623000000000000000   10300001 00104100000000000900000000000000     
100   62443100371022130000000000046000000000046000002000000010410406230706250056309399440623217413005630   1030000500030000   598320001202000015172200012MAX ENERGY             PTN           MMR11006230706250056300623000000000000000   10300001 00104100000000005520000000000000     
100   95050316818236190000000000001960000000001960002000000010410406241556272627126432500624000007386669   1020000200030000   333400010001204104000000281Myanmar Soft-Gate Tech Yangon        MMR11006241556272627120624000000000000000   10300001F05104100000000000412000000000000     
100   95050315122972560000000000000980000000000980002000000010410406241431580158806347400624000007386400   1020000200030000   333400010001204104000000281Myanmar Soft-Gate Tech Yangon        MMR11006241431580158800624000000000000000   10300001F05104100000000000206000000000000     
100   95050328082468580000000000010000000000010000002000000010410406241336550655988340270624000007386189   1030000200030000   333800010001203104000003327KBZPay                 Yangon        MMR11006241336550655980624000000000000000   10300001F05104100000000002100000000000000     
100   95050319161596230000000000000980000000000980002000000010410406240242071207121518770624000007381651   1020000200030000   333400010001204104000000281Myanmar Soft-Gate Tech Yangon        MMR11006240242071207120624000000000000000   10300001F05104100000000000206000000000000     
100   95050313396828960000000000001960000000001960002000000010410406241031340134989056700624000007385451   1020000200030000   333400010001204104000000281Myanmar Soft-Gate Tech Yangon        MMR11006241031340134980624000000000000000   10300001F05104100000000000412000000000000     
100   62443100330105920000000000020000000000020000002000000010410406240538560856821894810624000007383158   1030000200030000   333800010001203104000003327KBZPay                 Yangon        MMR11006240538560856820624000000000000000   10300001F05104100000000004200000000000000     
100   62443100392426520000000000010000000000010000002000000010410406241438570857544694920624000007386423   1030000200030000   333800010001203104000003327KBZPay                 Yangon        MMR11006241438570857540624000000000000000   10300001F05104100000000002100000000000000     
100   95050315615561720000000000000980000000000980002000000010410406240847501750530533270624000007384652   1020000200030000   333400010001204104000000281Myanmar Soft-Gate Tech Yangon        MMR11006240847501750530624000000000000000   10300001F05104100000000000206000000000000     
100   62911028202442250000000000027000000000027000002000000010410406230043360059624773800623217407005962   1030000500030000   598320001203000015172200012MAX ENERGY             PTN           MMR11006230043360059620623000000000000000   10300001 00104100000000000810000000000000     
100   95050314749068520000000000003124000000003124002000000010410406241231500150189822560624000007385938   1020000200030000   333300010001204104000000406MyanPay Co. Ltd        Yangon        MMR11006241231500150180624000000000000000   10300001F05104100000000010000000000000000     
100   62911028202151340000000000013750000000013750002000000010410406241542420216754773800624000748986544   1030000200030000   541188001075000008000000294KBZ BANK               CITY MART - J MMR11006241542420216750624000000000000000   10300001 00104100000000000825000000000000     
100   62443100345308040000000000000600000000000600002000000010410406240752272227850654020624000007384217   1030000200030000   333800010001203104000003327KBZPay                 Yangon        MMR11006240752272227850624000000000000000   10300001F05104100000000000126000000000000     
100   62911028202616170000000000013500000000013500002000000010410406241853130244774773800624000748996282   1030000200030000   541188001007000008000000008KBZ BANK               MARKETPLACE - MMR11006241853130244770624000000000000000   10300001 00104100000000000810000000000000     
100   62443100363992240000000000100000000000100000002000000010410406241032130213917404210624000007385450   1030000200030000   333800010001203104000003327KBZPay                 Yangon        MMR11006241032130213910624000000000000000   10300001F05104100000000021000000000000000     
100   95050316234969530000000000065000000000065000002000000010410406240741151115967263960624000007384106   1030000200030000   333800010001203104000003327KBZPay                 Yangon        MMR11006240741151115960624000000000000000   10300001F05104100000000013650000000000000     
100   95030301100336440000000000011859000000011859002000000010410406241832550160954773800624000748995535   1030000200030000   541188001056000008000000314KBZ BANK               MARKETPLACE - MMR11006241832550160950624000000000000000   10300001 00104100000000000712000000000000     
100   62443100330108240000000000000980000000000980002000000010410406241331430143709992750624000007386173   1020000200030000   333400010001204104000000281Myanmar Soft-Gate Tech Yangon        MMR11006241331430143700624000000000000000   10300001F05104100000000000206000000000000     
100   95050312618592720000000000015000000000015000002000000010410406241347331733142957340624000007386226   1030000200030000   333800010001203104000003327KBZPay                 Yangon        MMR11006241347331733140624000000000000000   10300001F05104100000000003150000000000000     
100   95050319156011610000000000002940000000002940002000000010410406240343491349993511640624000007382186   1020000200030000   333400010001204104000000281Myanmar Soft-Gate Tech Yangon        MMR11006240343491349990624000000000000000   10300001F05104100000000000617000000000000     
100   95030367537085740000000000001960000000001960002000000010410406240253562356004773800624000007381719   1020000200030000   333400010001204104000000281Myanmar Soft-Gate Tech Yangon        MMR11006240253562356000624000000000000000   10300001F05104100000000000412000000000000     
100   95050315017843630000000000001960000000001960002000000010410406241033010301852361660624000007385459   1020000200030000   333400010001204104000000281Myanmar Soft-Gate Tech Yangon        MMR11006241033010301850624000000000000000   10300001F05104100000000000412000000000000     
100   95050316377977350000000000005000000000005000002000000010410406241200273027805921920624000007385815   1030000200030000   3338000100012031040000040022C2P (Myanmar) Co. Ltd Yangon        MMR11006241200273027800624000000000000000   10300001F05104100000000001050000000000000     
100   62911028202031710000000000047964000000047964002000000010410406241352210353254773800624000748977293   1030000200030000   541188001039000008000000010KBZ BANK               MARKETPLACE - MMR11006241352210353250624000000000000000   10300001 00104100000000002878000000000000     
100   95050312498129060000000000000980000000000980002000000010410406241256152615883212630624000007386035   1020000200030000   333400010001204104000000281Myanmar Soft-Gate Tech Yangon        MMR11006241256152615880624000000000000000   10300001F05104100000000000206000000000000     
100   62911028202151340000000000018750000000018750002000000010410406241537520129784773800624000748986215   1030000200030000   541188001081000008000000294KBZ BANK               CITY MART - J MMR11006241537520129780624000000000000000   10300001 00104100000000001125000000000000     
100   62911028202077010000000000000980000000000980002000000010410406240450002000264773800624000007382767   1020000200030000   333400010001204104000000281Myanmar Soft-Gate Tech Yangon        MMR11006240450002000260624000000000000000   10300001F05104100000000000206000000000000     
100   95050315017843630000000000000980000000000980002000000010410406241136250625274184340624000007385709   1020000200030000   333400010001204104000000281Myanmar Soft-Gate Tech Yangon        MMR11006241136250625270624000000000000000   10300001F05104100000000000206000000000000     
100   62911028202491330000000000174744000000174744002000000010410406241158450054194773800624000748966299   1030000200030000   541188001004000008000000008KBZ BANK               MARKETPLACE - MMR11006241158450054190624000000000000000   10300001 00104100000000010485000000000000     
100   95050314570621780000000000000980000000000980002000000010410406240348261826056901710624000007382233   1020000200030000   333400010001204104000000281Myanmar Soft-Gate Tech Yangon        MMR11006240348261826050624000000000000000   10300001F05104100000000000206000000000000     
100   95050317728825080000000000002940000000002940002000000010410406240957212721226978730624000007385284   1020000200030000   333400010001204104000000281Myanmar Soft-Gate Tech Yangon        MMR11006240957212721220624000000000000000   10300001F05104100000000000617000000000000     
100   62443100345308040000000000001000000000001000002000000010410406241455082508079652370624000007386467   1030000900030000   333400010001202104000002022ACS                    Yangon        MMR11006241455082508070624000000000000000   10300001F05104100000000000210000000000000     
100   62911028202107210000000000140450000000140450002000000010410406241447350099154773800624000748982315   1030000200030000   541188001062000008000000314KBZ BANK               MARKETPLACE - MMR11006241447350099150624000000000000000   10300001 00104100000000008427000000000000     
100   95050310427855490000000000000980000000000980002000000010410406240310104010719696100624000007381850   1020000200030000   333400010001204104000000281Myanmar Soft-Gate Tech Yangon        MMR11006240310104010710624000000000000000   10300001F05104100000000000206000000000000     
