100   62911028202199530000000000021500000000021500002000000010410406250425177396324773800625712551017175   1030000900030000   541119001363190110000000977Ocean PZD C17          YANGONAUNG    MMR11006250425177396320625000000000000000   10300001F00104100000000001290000000000000     
100   62443101093150400000000001214000000001214000002000000010410406250917307460140014620625789471530175   1030000900030000   573219001178190110000000934UNIQUE Pansodan        YANGONADA     MMR11006250917307460140625000000000000000   10300001F00104100000000291360000000000000     
100   95050315429354870000000000053050000000053050002000000010410406251117327492395567740625096471732175   1030000900030000   591219001606190110000001167Life Plus Store 40     YANGONNGKUUN  MMR11006251117327492390625000000000000000   10300001F00104100000000012732000000000000     
100   95050319216089110000000000012100000000012100002000000010410406251128367494959553490625267581736175   1030000900030000   541119000113190110000000077Sein Gay Har Chinatown YANGON        MMR11006251128367494950625000000000000000   10300001F00104100000000003025000000000000     
100   95050315005801680000000000002940000000002940002000000010410406250308303830152227130625000007387608   1020000200030000   333400010001204104000000281Myanmar Soft-Gate Tech Yangon        MMR11006250308303830150625000000000000000   10300001F05104100000000000617000000000000     
100   95050315122972560000000000000980000000000980002000000010410406250827225722778191940625000007388905   1020000200030000   333400010001204104000000281Myanmar Soft-Gate Tech Yangon        MMR11006250827225722770625000000000000000   10300001F05104100000000000206000000000000     
100   95050319928585020000000000000980000000000980002000000010410406251055522552382603160625000007389465   1020000200030000   333400010001204104000000281Myanmar Soft-Gate Tech Yangon        MMR11006251055522552380625000000000000000   10300001F05104100000000000206000000000000     
100   95050319502933380000000000000980000000000980002000000010410406250246221622385447000625000007387506   1020000200030000   333400010001204104000000281Myanmar Soft-Gate Tech Yangon        MMR11006250246221622380625000000000000000   10300001F05104100000000000206000000000000     
100   95050319928585020000000000000980000000000980002000000010410406251050142014924085460625000007389440   1020000200030000   333400010001204104000000281Myanmar Soft-Gate Tech Yangon        MMR11006251050142014920625000000000000000   10300001F05104100000000000206000000000000     
100   95050319928585020000000000000980000000000980002000000010410406251052532253329128000625000007389449   1020000200030000   333400010001204104000000281Myanmar Soft-Gate Tech Yangon        MMR11006251052532253320625000000000000000   10300001F05104100000000000206000000000000     
100   95050312498129060000000000001960000000001960002000000010410406251210504050178071190625000007389718   1020000200030000   333400010001204104000000281Myanmar Soft-Gate Tech Yangon        MMR11006251210504050170625000000000000000   10300001F05104100000000000412000000000000     
100   95050319528093960000000000000980000000000980002000000010410406251411014101544837530625000007390110   1020000200030000   333400010001204104000000281Myanmar Soft-Gate Tech Yangon        MMR11006251411014101540625000000000000000   10300001F05104100000000000206000000000000     
100   95050320624349010000000000050000000000050000002000000010410406250158107371759808780625420280810175   1030000900030000   554119001101190110000000213New Day Energy SOK     YANGONOKKALAP MMR11006250158107371750625000000000000000   10300001F00104100000000006000000000000000     
100   95050312498129060000000000000980000000000980002000000010410406251121155115122262780625000007389545   1020000200030000   333400010001204104000000281Myanmar Soft-Gate Tech Yangon        MMR11006251121155115120625000000000000000   10300001F05104100000000000206000000000000     
100   62443100306028540000000000002500000000002500002000000010410406251355272527636404920625000007390049   1030000900030000   333400010001202104000002022ACS                    Yangon        MMR11006251355272527630625000000000000000   10300001F05104100000000000525000000000000     
100   62911028202202580000000000013300000000013300002000000010410406250247498309004773800625217609830900   1040001600030000   591220000276000000010000264Shwe Ohh Pharmacy (YGH Yangon        MMR11006250247498309000625000000000000000   10300001F00104100000000000798000000000000     
100   62911028202685390000000000013500000000013500002000000010410406251210598687274773800625217619868727   1040001600030000   591220000277000000010000265Shwe Ohh Pharmacy (Thu Yangon        MMR11006251210598687270625000000000000000   10300001F00104100000000000810000000000000     
100   62911028202260160000000000084000000000084000002000000010410406250938548552204773800625217616855220   1040001600030000   598320000915000000010000664MMTM - North Dagon     Ygn           MMR11006250938548552200625000000000000000   10300001F00104100000000002520000000000000     
100   95050321976590420000000000020280000000020280002000000010410406251120478639790525200625217618863979   1040001600030000   541120000560000000010000465Ocean Shwe Gone Daing  Yangon        MMR11006251120478639790625000000000000000   10300001F00104100000000005070000000000000     
100   62443100300743690000000000059400000000059400002000000010410406251329597521173014850625041591959175   1030000900030000   541119001207190110000000948City Mart YK C 5       YANGONAUNG    MMR11006251329597521170625000000000000000   10300001F00104100000000014850000000000000     
100   62911028202448030000000000009000000000009000002000000010410406251124118642634773800625217618864263   1040001600030000   591220000287000000010000275Shwe Ohh Pharmacy (Wit Yangon        MMR11006251124118642630625000000000000000   10300001F00104100000000000540000000000000     
100   95050317834964620000000000013820000000013820002000000010410406251050407485027560620625560201740175   1030000900030000   541119001355190110000000977Ocean PZD C9           YANGONAUNG    MMR11006251050407485020625000000000000000   10300001F00104100000000003455000000000000     
100   62443100374174960000000000101950000000101950002000000010410406251241147512362773360625471111914175   1030000900030000   594519000962190110000000769BKB Baby and Toys Cent YANGONINDAING MMR11006251241147512360625000000000000000   10300001F00104100000000024468000000000000     
100   95050323749862420000000000013850000000013850002000000010410406251219470183995702290625000749019972   1030000200030000   541188001304000008000000325KBZ BANK               CITY MART - A MMR11006251219470183990625000000000000000   10300001 00104100000000003463000000000000     
100   62443100318296470000000000046000000000046000002000000010410406241049160045875496440624000351926420   1030000300030000   598300001210000000000000817CB BANK                SHWE TAUNG EN MMR11006241049160045870624000000000000000   10300001F00104100000000005520000000000000     
100   95050319709462380000000000005000000000005000002000000010410406251417144714429794980625000007390126   1030000200030000   3338000100012031040000040022C2P (Myanmar) Co. Ltd Yangon        MMR11006251417144714420625000000000000000   10300001F05104100000000001050000000000000     
100   95050323349421940000000000014500000000014500002000000010410406251029577478671922390625098591657175   1030000900030000   569119000574190110000000414Busan Korea Fashion (G YANGONUT      MMR11006251029577478670625000000000000000   10300001F00104100000000003480000000000000     
100   62911028202792960000000000060000000000060000002000000010410406241040030044614773800624217517004461   1030000500030000   598320001601000015172200016MAX ENERGY             PTN           MMR11006241040030044610624000000000000000   10300001 00104100000000001800000000000000     
100   95030308100042590000000000805000000000805000002000000010410406250517427407244773800625407471142175   1030000900030000   541119000831190110000000177Pro1 Global (Insein)   YANGON        MMR11006250517427407240625000000000000000   10300001F00104100000000048300000000000000     
100   95050314692738880000000000001960000000001960002000000010410406250721495149638205730625000007388670   1020000200030000   333400010001204104000000281Myanmar Soft-Gate Tech Yangon        MMR11006250721495149630625000000000000000   10300001F05104100000000000412000000000000     
100   62911028202440680000000000026550000000026550002000000010410406250201417372104773800625431310841175   1030000900030000   591219000970190110000000777Shwe Ohh Pharmacy St ( YANGONAW      MMR11006250201417372100625000000000000000   10300001F00104100000000001593000000000000     
100   95050314567755980000000000004900000000004900002000000010410406251115024502767220230625000007389526   1020000200030000   333400010001204104000000281Myanmar Soft-Gate Tech Yangon        MMR11006251115024502760625000000000000000   10300001F05104100000000001029000000000000     
100   95050313970192050000000000009600000000009600002000000010410406241314090001003297720624217519000100   1030000500030000   541120232801000045411202328CITY EXPRESS (MCS - 34 PTN           MMR11006241314090001000624000000000000000   10300001 00104100000000002400000000000000     
100   62911028202474180000000000499800000000499800002000000010410406250548058413374773800625217612841337   1040001600030000   591220000267000000010000255Shwe Ohh Pharmacy (Bah Yangon        MMR11006250548058413370625000000000000000   10300001F00104100000000029988000000000000     
100   62911028202631420000000000021401000000021401002000000010410406240613390006044773800624217512000604   1030000500030000   541120203705000015411202037CITY MART SUPERMARKET  PTN           MMR11006240613390006040624000000000000000   10300001 00104100000000001284000000000000     
100   95050311077567400000000000100000000000100000002000000010410406251001589262597135140625315835389404   1040001400030000   481210000474024812100002004Anycall Mobile null No 196  Terminal MMR11006251001589262590625000000000000000   10300001 00104100000000024000000000000000     
100   95050324411430900000000000035000000000035000002000000010410406250228398299214936420625217609829921   1040001600030000   598320001170000000010000527Shwe Taung Energy (YGN Yangon        MMR11006250228398299210625000000000000000   10300001F00104100000000004200000000000000     
100   62911028202193830000000000066000000000066000002000000010410406251218507506714773800625067481850175   1030000900030000   541119000127190110000000082Sein Gay Har Super Cen YANGON        MMR11006251218507506710625000000000000000   10300001F00104100000000003960000000000000     
100   95050319111666800000000000000980000000000980002000000010410406242316364636053369030625000007387111   1020000200030000   333400010001204104000000281Myanmar Soft-Gate Tech Yangon        MMR11006242316364636050625000000000000000   10300001F05104100000000000206000000000000     
100   95050319006804440000000000001960000000001960002000000010410406250546311631202737700625000007388263   1020000200030000   333400010001204104000000281Myanmar Soft-Gate Tech Yangon        MMR11006250546311631200625000000000000000   10300001F05104100000000000412000000000000     
100   62911028202147720000000000012300000000012300002000000010410406240909110008674773800624217515000867   1030000500030000   541120227504000045411202275CITY MART (AHLONE BRAN PTN           MMR11006240909110008670624000000000000000   10300001 00104100000000000738000000000000     
100   95050312962334280000000000000980000000000980002000000010410406250710204020483163190625000007388627   1020000200030000   333400010001204104000000281Myanmar Soft-Gate Tech Yangon        MMR11006250710204020480625000000000000000   10300001F05104100000000000206000000000000     
100   62911028202473840000000000081700000000081700002000000010410406240610170004474773800624217512000447   1030000500030000   591220012501014405912200125SHWE OHH PHARMACY      PTN           MMR11006240610170004470624000000000000000   10300001 00104100000000004902000000000000     
100   95050312240830690000000000000980000000000980002000000010410406251405003500576490020625000007390091   1020000200030000   333400010001204104000000281Myanmar Soft-Gate Tech Yangon        MMR11006251405003500570625000000000000000   10300001F05104100000000000206000000000000     
100   95030301100120440000000000038250000000038250002000000010410406251117207492354773800625092471720175   1030000900030000   541119001231190110000000951Marketplace KTY C 1    YANGONARTAUNG MMR11006251117207492350625000000000000000   10300001F00104100000000002295000000000000     
100   95050314692738880000000000002940000000002940002000000010410406251321425142109468390625000007389948   1020000200030000   333400010001204104000000281Myanmar Soft-Gate Tech Yangon        MMR11006251321425142100625000000000000000   10300001F05104100000000000617000000000000     
100   62911028202147720000000000030008000000030008002000000010410406240018260041564773800624217506004156   1030000500030000   598320001602000015172200016MAX ENERGY             PTN           MMR11006240018260041560624000000000000000   10300001 00104100000000000900000000000000     
100   95030301100124400000000000016700000000016700002000000010410406240353050000924773800624000351867280   1030000300030000   581200001529000000000001077CB BANK                YKKO (NOP)    MMR11006240353050000920624000000000000000   10300001F00104100000000001703000000000000     
100   62911028202132460000000000006850000000006850002000000010410406251046058606374773800625217617860637   1040001600030000   591220000265000000010000253Shwe Ohh Pharmacy (Yay Yangon        MMR11006251046058606370625000000000000000   10300001F00104100000000000411000000000000     
100   62911028202313470000000000022850000000022850002000000010410406250558298420544773800625217612842054   1040001600030000   591220000285000000010000273Shwe Ohh Pharmacy (47t Yangon        MMR11006250558298420540625000000000000000   10300001F00104100000000001371000000000000     
100   62443100371022130000000000060988000000060988002000000010410406240829590057523072370624217514005752   1030000500030000   598320001202000015172200012MAX ENERGY             PTN           MMR11006240829590057520624000000000000000   10300001 00104100000000007318000000000000     
100   62911028202116120000000000026700000000026700002000000010410406251234207510954773800625379041920175   1030000900030000   591219001556190110000001130Life Plus Store 35     YANGON        MMR11006251234207510950625000000000000000   10300001F00104100000000001602000000000000     
100   95030363090756500000000000030000000000030000002000000010410406251209148685384773800625217619868538   1040001600030000   598320000660000000010000529Shwe Taung Energy (NPT Naypyitaw     MMR11006251209148685380625000000000000000   10300001F00104100000000000900000000000000     
100   62443101003317490000000000029370000000029370002000000010410406250942228554223149390625217616855422   1040001600030000   581420000804000000010000580Jeff's Kitchen (Kan Ye Yangon        MMR11006250942228554220625000000000000000   10300001F00104100000000003524000000000000     
100   62911028202530930000000000014600000000014600002000000010410406251231060175844773800625000749020516   1030000200030000   541188001061000008000000314KBZ BANK               MARKETPLACE - MMR11006251231060175840625000000000000000   10300001 00104100000000000876000000000000     
100   62911028202474180000000000029775000000029775002000000010410406250601048422174773800625217613842217   1040001600030000   591220000267000000010000255Shwe Ohh Pharmacy (Bah Yangon        MMR11006250601048422170625000000000000000   10300001F00104100000000001787000000000000     
100   95050324247403260000000000003800000000003800002000000010410406241008000000441680890624000351920848   1030000300030000   581200002379000000000001601CB BANK                MYANMAR BAKER MMR11006241008000000440624000000000000000   10300001F00104100000000001615000000000000     
100   95050319286546940000000000006500000000006500002000000010410406241024220003020624080624217516000302   1030000500030000   541120230102000045411202301CITY MART SUPERMARKET  PTN           MMR11006241024220003020624000000000000000   10300001 00104100000000001625000000000000     
100   95050310299956570000000000020450000000020450002000000010410406240407060002149234960624000351869245   1030000300030000   531100000607000000000000408CB BANK                CAPITAL HYPER MMR11006240407060002140624000000000000000   10300001F00104100000000004908000000000000     
100   62443100379321630000000000005600000000005600002000000010410406240909130001955320530624217515000195   1030000500030000   541120203712000015411202037CITY MART SUPERMARKET  PTN           MMR11006240909130001950624000000000000000   10300001 00104100000000001400000000000000     
100   62443100318296470000000000089000000000089000002000000010410406241021030002335070960624000351922639   1030000300030000   569100001808000000000001292CB BANK                ERKE SPORT FA MMR11006241021030002330624000000000000000   10300001F00104100000000021360000000000000     
100   62911028202446540000000000700000000000700000002000000010410406240314450015664773800624217509001566   1030000500030000   806220009106024108062200091ARYU INTL HOSPITAL     PTN           MMR11006240314450015660624000000000000000   10300001 00104100000000042000000000000000     
100   62443100306028540000000000020750000000020750002000000010410406240816050008507944730624217514000850   1030000500030000   541120203704000015411202037CITY MART SUPERMARKET  PTN           MMR11006240816050008500624000000000000000   10300001 00104100000000005188000000000000     
100   62443101093150400000000000093850000000093850002000000010410406240249490005134993940624217509000513   1030000500030000   591220012701014405912200127SHWE OHH PHARMACY      PTN           MMR11006240249490005130624000000000000000   10300001 00104100000000022524000000000000     
100   62911028202116950000000000002400000000002400002000000010410406251423410263054773800625000749025795   1030000200030000   541188001059000008000000314KBZ BANK               MARKETPLACE - MMR11006251423410263050625000000000000000   10300001 00104100000000000144000000000000     
100   62911028202293090000000000074540000000074540002000000010410406240505130010754773800624217511001075   1030000500030000   541120226204000045411202262CITY MART ZAWANA       PTN           MMR11006240505130010750624000000000000000   10300001 00104100000000004472000000000000     
100   95050324104751500000000000253293000000253293002000000010410406240319390017180376870624217509001718   1030000500030000   806220046404006308062200464ASIA ROYAL HOSPITAL    PTN           MMR11006240319390017180624000000000000000   10300001 00104100000000060790000000000000     
100   62911028202471600000000000007050000000007050002000000010410406240930460008084773800624217516000808   1030000500030000   531120226326000045311202263OCEAN SUPER CENTER STJ PTN           MMR11006240930460008080624000000000000000   10300001 00104100000000000423000000000000     
100   62911028202169750000000000017000000000017000002000000010410406241012260047094773800624217516004709   1030000500030000   598320002104000015172200021MAX ENERGY             PTN           MMR11006241012260047090624000000000000000   10300001 00104100000000000510000000000000     
100   62911028202147720000000000010400000000010400002000000010410406240912390005954773800624217515000595   1030000500030000   541120227507000045411202275CITY MART (AHLONE BRAN PTN           MMR11006240912390005950624000000000000000   10300001 00104100000000000624000000000000     
100   62911028202471600000000000015425000000015425002000000010410406240953240014414773800624217516001441   1030000500030000   531120226305000045311202263OCEAN SUPER CENTER STJ PTN           MMR11006240953240014410624000000000000000   10300001 00104100000000000926000000000000     
100   95050322990383760000000000008400000000008400002000000010410406240941260006681936180624217516000668   1030000500030000   591220020501005105912200205MINGALAR PHARMACY      PTN           MMR11006240941260006680624000000000000000   10300001 00104100000000002016000000000000     
100   62911028202446700000000000030000000000030000002000000010410406240108240039154773800624217507003915   1030000500030000   598320002001000015172200020MAX ENERGY             PTN           MMR11006240108240039150624000000000000000   10300001 00104100000000000900000000000000     
100   62911028202471600000000000095606000000095606002000000010410406240927520010034773800624217515001003   1030000500030000   531120226311000045311202263OCEAN SUPER CENTER STJ PTN           MMR11006240927520010030624000000000000000   10300001 00104100000000005736000000000000     
100   62911028202132460000000000055200000000055200002000000010410406240801270029244773800624217514002924   1030000500030000   503920036601000015039200366PRO-1 HOME CENTER      PTN           MMR11006240801270029240624000000000000000   10300001 00104100000000003312000000000000     
100   95050322990383760000000000004150000000004150002000000010410406240235470004548213810624217509000454   1030000500030000   591220013201014405912200132SHWE OHH PHARMACY      PTN           MMR11006240235470004540624000000000000000   10300001 00104100000000000996000000000000     
100   95030378062733680000000000088703000000088703002000000010410406240721510003434773800624217513000343   1030000500030000   531120231207000045311202312OCEAN OATTARA THIRI    PTN           MMR11006240721510003430624000000000000000   10300001 00104100000000005322000000000000     
100   95050312173216740000000000132500000000132500002000000010410406240923380008742100660624000748987096   1030000200030000   509488002505000008000006703KBZ BANK               SHWE SAN EAIN MMR11006240923380008740624000000000000000   10300001 00104100000000053000000000000000     
100   62911028202470870000000000019900000000019900002000000010410406240639330009914773800624217513000991   1030000500030000   541120203706000015411202037CITY MART SUPERMARKET  PTN           MMR11006240639330009910624000000000000000   10300001 00104100000000001194000000000000     
100   95030301100216560000000000014000000000014000002000000010410406241022210004924773800624217516000492   1030000500030000   569120066801008205691200668ESCORT                 PTN           MMR11006241022210004920624000000000000000   10300001 00104100000000000840000000000000     
100   62911028202207610000000000061000000000061000002000000010410406240239470062794773800624217509006279   1030000500030000   598320001204000015172200012MAX ENERGY             PTN           MMR11006240239470062790624000000000000000   10300001 00104100000000001830000000000000     
100   62911028202074950000000000036000000000036000002000000010410406232351540053004773800624217506005300   1030000500030000   598320001201000015172200012MAX ENERGY             PTN           MMR11006232351540053000624000000000000000   10300001 00104100000000001080000000000000     
100   95050324154190880000000000024000000000024000002000000010410406241220000062997659500624217518006299   1030000500030000   598320001302000015172200013MAX ENERGY             PTN           MMR11006241220000062990624000000000000000   10300001 00104100000000002880000000000000     
100   62443100358839880000000000019100000000019100002000000010410406231420190001645724150623217420000164   1030000500030000   541120231801000045411202318CITY EXPRESS (MCS - 81 PTN           MMR11006231420190001640623000000000000000   10300001 00104100000000004775000000000000     
100   95050324800108530000000000015000000000015000002000000010410406251842050013145993230625000749038536   1030000200030000   541188001337000008000000327KBZ BANK               CITY MART - S MMR11006251842050013140625000000000000000   10300001 00104100000000003750000000000000     
100   62443101076362230000000000153600000000153600002000000010410406251612260385878106850625000749031340   1030000200030000   541188001025000008000000298KBZ BANK               CITY MART - M MMR11006251612260385870625000000000000000   10300001 00104100000000038400000000000000     
100   62443101076362230000000000019600000000019600002000000010410406251616120385882092590625000749031521   1030000200030000   541188001025000008000000298KBZ BANK               CITY MART - M MMR11006251616120385880625000000000000000   10300001 00104100000000004900000000000000     
100   62443100373105840000000000100000000000100000002000000010410406251438570857001532570625000007390206   1030000200030000   333800010001203104000003327KBZPay                 Yangon        MMR11006251438570857000625000000000000000   10300001F05104100000000021000000000000000     
100   95050319938772870000000000003920000000003920002000000010410406251306313631414425840625000007389897   1020000200030000   333400010001204104000000281Myanmar Soft-Gate Tech Yangon        MMR11006251306313631410625000000000000000   10300001F05104100000000000823000000000000     
100   95050324850150480000000000070000000000070000002000000010410406250023530044521716540625000749009536   1030000200030000   598388001833000008000005310KBZ BANK               BOC (138 MILE MMR11006250023530044520625000000000000000   10300001 00104100000000008400000000000000     
100   95050327456215690000000000070500000000070500002000000010410406251600030038686284170625000749030729   1030000200030000   541188001040000008000000010KBZ BANK               MARKETPLACE - MMR11006251600030038680625000000000000000   10300001 00104100000000017625000000000000     
100   62911028202708160000000000118800000000118800002000000010410406251801460055604773800625000749036714   1030000200030000   541188001440000008000000401KBZ BANK               OCEAN SUPERCE MMR11006251801460055600625000000000000000   10300001 00104100000000007128000000000000     
100   62443100373105840000000000300000000000300000002000000010410406251434550455588227600625000007390187   1030000200030000   333800010001203104000003327KBZPay                 Yangon        MMR11006251434550455580625000000000000000   10300001F05104100000000063000000000000000     
100   62911028202294730000000000014400000000014400002000000010410406251813170049274773800625000749037276   1030000200030000   541188001066000008000000314KBZ BANK               MARKETPLACE - MMR11006251813170049270625000000000000000   10300001 00104100000000000864000000000000     
100   62911028202442250000000000054509000000054509002000000010410406251730300150184773800625000749035205   1030000200030000   541188001023000008000000298KBZ BANK               CITY MART - M MMR11006251730300150180625000000000000000   10300001 00104100000000003271000000000000     
100   62911028202651050000000000078319000000078319002000000010410406250955290244754773800625000749013826   1030000200030000   541188001037000008000000010KBZ BANK               MARKETPLACE - MMR11006250955290244750625000000000000000   10300001 00104100000000004699000000000000     
100   62911028202470870000000000045819000000045819002000000010410406251613540038264773800625000749031398   1030000200030000   541188001079000008000000294KBZ BANK               CITY MART - J MMR11006251613540038260625000000000000000   10300001 00104100000000002749000000000000     
100   62443101076362230000000000032800000000032800002000000010410406251635280049525142260625000749032416   1030000200030000   541188001005000008000000008KBZ BANK               MARKETPLACE - MMR11006251635280049520625000000000000000   10300001 00104100000000008200000000000000     
100   95050328082468580000000000010000000000010000002000000010410406251138150815812858450625000007389598   1030000200030000   333800010001203104000003327KBZPay                 Yangon        MMR11006251138150815810625000000000000000   10300001F05104100000000002100000000000000     
100   62443100399918110000000000037496000000037496002000000010410406251201070100091085220625000749019048   1030000200030000   541188001006000008000000008KBZ BANK               MARKETPLACE - MMR11006251201070100090625000000000000000   10300001 00104100000000009374000000000000     
100   62911028202708080000000000300000000000300000002000000010410406250138190819634773800625000007387304   1030000200030000   333800010001203104000003327KBZPay                 Yangon        MMR11006250138190819630625000000000000000   10300001F05104100000000063000000000000000     
100   95050314794441720000000000200000000000200000002000000010410406250830410041101496910625000007388910   1030000200030000   333800010001203104000003327KBZPay                 Yangon        MMR11006250830410041100625000000000000000   10300001F05104100000000042000000000000000     
100   62911028202151590000000000021500000000021500002000000010410406251105010048694773800625000749016635   1030000200030000   541188001066000008000000314KBZ BANK               MARKETPLACE - MMR11006251105010048690625000000000000000   10300001 00104100000000001290000000000000     
100   95030327835334700000000000024995000000024995002000000010410406251724120149694773800625000749034856   1030000200030000   541188001244000008000000323KBZ BANK               CITY MART - I MMR11006251724120149690625000000000000000   10300001 00104100000000001500000000000000     
100   62911028202530930000000000047100000000047100002000000010410406250234300041794773800625000749012035   1030000200030000   581288000098000008000003562KBZ BANK               CANTON PARADI MMR11006250234300041790625000000000000000   10300001 00104100000000004804000000000000     
100   62911028202121560000000000014200000000014200002000000010410406251845440248734773800625000749038661   1030000200030000   541188001001000008000000008KBZ BANK               MARKETPLACE - MMR11006251845440248730625000000000000000   10300001 00104100000000000852000000000000     
100   62911028202440680000000000016778000000016778002000000010410406251632400086704773800625000749032308   1030000200030000   541188001074000008000000294KBZ BANK               CITY MART - J MMR11006251632400086700625000000000000000   10300001 00104100000000001007000000000000     
100   62911028202121560000000000012800000000012800002000000010410406251834590237314773800625000749038252   1030000200030000   541188001017000008000000008KBZ BANK               MARKETPLACE - MMR11006251834590237310625000000000000000   10300001 00104100000000000768000000000000     
100   62443100373105840000000000300000000000300000002000000010410406251431590159479880080625000007390167   1030000200030000   333800010001203104000003327KBZPay                 Yangon        MMR11006251431590159470625000000000000000   10300001F05104100000000063000000000000000     
100   95050316638224720000000000004900000000004900002000000010410406251435240524653185050625000007390194   1020000200030000   333400010001204104000000281Myanmar Soft-Gate Tech Yangon        MMR11006251435240524650625000000000000000   10300001F05104100000000001029000000000000     
100   95050310332595380000000000000980000000000980002000000010410406241647401740355021510625000007386796   1020000200030000   333400010001204104000000281Myanmar Soft-Gate Tech Yangon        MMR11006241647401740350625000000000000000   10300001F05104100000000000206000000000000     
100   95050329734064360000000000040700000000040700002000000010410406250914207459616709650625759441520175   1030000900030000   591219000795190110000000627Shwe Ohh Pharmacy ST-3 YANGONINDAING MMR11006250914207459610625000000000000000   10300001F00104100000000009768000000000000     
100   95030349489765520000000000038000000000038000002000000010410406250646241624414773800625000007388531   1030000200030000   333800010001203104000003327KBZPay                 Yangon        MMR11006250646241624410625000000000000000   10300001F05104100000000007980000000000000     
100   95050316785465380000000000000980000000000980002000000010410406241647481748619978970625000007386795   1020000200030000   333400010001204104000000281Myanmar Soft-Gate Tech Yangon        MMR11006241647481748610625000000000000000   10300001F05104100000000000206000000000000     
100   95050323722449090000000000004409000000004409002000000010410406251006503650763489780625000007389284   1020000200030000   333400010001204104000000281Myanmar Soft-Gate Tech Yangon        MMR11006251006503650760625000000000000000   10300001F05104100000000000926000000000000     
100   62911028202077190000000000000980000000000980002000000010410406251454252425284773800625000007390264   1020000200030000   333400010001204104000000281Myanmar Soft-Gate Tech Yangon        MMR11006251454252425280625000000000000000   10300001F05104100000000000206000000000000     
100   95050310332595380000000000000980000000000980002000000010410406250825475547396297960625000007388896   1020000200030000   333400010001204104000000281Myanmar Soft-Gate Tech Yangon        MMR11006250825475547390625000000000000000   10300001F05104100000000000206000000000000     
100   95050323233042810000000000000980000000000980002000000010410406251056472647990950680625000007389466   1020000200030000   333400010001204104000000281Myanmar Soft-Gate Tech Yangon        MMR11006251056472647990625000000000000000   10300001F05104100000000000206000000000000     
100   95050327416134790000000000001960000000001960002000000010410406251344471447931362370625000007390028   1020000200030000   333400010001204104000000281Myanmar Soft-Gate Tech Yangon        MMR11006251344471447930625000000000000000   10300001F05104100000000000412000000000000     
100   95050312539675540000000000002940000000002940002000000010410406250543071307924390180625000007388252   1020000200030000   333400010001204104000000281Myanmar Soft-Gate Tech Yangon        MMR11006250543071307920625000000000000000   10300001F05104100000000000617000000000000     
100   95050316377977350000000000005000000000005000002000000010410406251554552455909454600625000007390414   1030000200030000   3338000100012031040000040022C2P (Myanmar) Co. Ltd Yangon        MMR11006251554552455900625000000000000000   10300001F05104100000000001050000000000000     
100   95050317425045390000000000380000000000380000002000000010410406250339387387743624320625202091038175   1030000900030000   594419000705190110000000536Zwe Htet Gems & Jewell YANGON        MMR11006250339387387740625000000000000000   10300001F00104100000000091200000000000000     
100   62911028202199530000000000022424000000022424002000000010410406250442297399704773800625923121129175   1030000900030000   541119001353190110000000977Ocean PZD C 7          YANGONAUNG    MMR11006250442297399700625000000000000000   10300001F00104100000000001345000000000000     
100   62911028202594880000000000082250000000082250002000000010410406250355307390544773800625363251030175   1030000900030000   591219000502190110000000349Shwe Ohh Pharmacy - (U YANGON        MMR11006250355307390540625000000000000000   10300001F00104100000000004935000000000000     
100   95050314307746340000000000000980000000000980002000000010410406250646361636195872480625000007388530   1020000200030000   333400010001204104000000281Myanmar Soft-Gate Tech Yangon        MMR11006250646361636190625000000000000000   10300001F05104100000000000206000000000000     
100   95050319870763910000000000000980000000000980002000000010410406251608063806097802120625000007390452   1020000200030000   333400010001204104000000281Myanmar Soft-Gate Tech Yangon        MMR11006251608063806090625000000000000000   10300001F05104100000000000206000000000000     
100   95050314248677090000000000120000000000120000002000000010410406250628545854934134900625000007388435   1030000200030000   333800010001203104000003327KBZPay                 Yangon        MMR11006250628545854930625000000000000000   10300001F05104100000000025200000000000000     
100   62443101071845130000000000070000000000070000002000000010410406250300023002390574640625000007387571   1030000300030000   333300010001206104000002147DICA Company Limited   Yangon        MMR11006250300023002390625000000000000000   10300001F05104100000000010000000000000000     
100   62443100311760720000000000123000000000123000002000000010410406250252047379210489550625742220904175   1030000900030000   599919001140190110000000920Lucky Man Hantharwaddy YANGONUT      MMR11006250252047379210625000000000000000   10300001F00104100000000029520000000000000     
100   95050313732480420000000000000980000000000980002000000010410406250822345234727950440625000007388882   1020000200030000   333400010001204104000000281Myanmar Soft-Gate Tech Yangon        MMR11006250822345234720625000000000000000   10300001F05104100000000000206000000000000     
100   95050310397364970000000000002940000000002940002000000010410406251307123712226163420625000007389903   1020000200030000   333400010001204104000000281Myanmar Soft-Gate Tech Yangon        MMR11006251307123712220625000000000000000   10300001F05104100000000000617000000000000     
100   95050312498129060000000000002940000000002940002000000010410406251324405440367815900625000007389965   1020000200030000   333400010001204104000000281Myanmar Soft-Gate Tech Yangon        MMR11006251324405440360625000000000000000   10300001F05104100000000000617000000000000     
100   95050316785465380000000000000980000000000980002000000010410406251424475447758142500625000007390145   1020000200030000   333400010001204104000000281Myanmar Soft-Gate Tech Yangon        MMR11006251424475447750625000000000000000   10300001F05104100000000000206000000000000     
100   62443100300743690000000000011384000000011384002000000010410406250708187431378120640625915381318175   1030000900030000   581219000371190110000000243Jo Jo Hot Pot (Junctio YANGONN       MMR11006250708187431370625000000000000000   10300001F00104100000000004838000000000000     
100   95050312498129060000000000000980000000000980002000000010410406251239160916342688260625000007389810   1020000200030000   333400010001204104000000281Myanmar Soft-Gate Tech Yangon        MMR11006251239160916340625000000000000000   10300001F05104100000000000206000000000000     
100   62911028202077190000000000000980000000000980002000000010410406251450242024124773800625000007390252   1020000200030000   333400010001204104000000281Myanmar Soft-Gate Tech Yangon        MMR11006251450242024120625000000000000000   10300001F05104100000000000206000000000000     
100   95050313843656520000000000018000000000018000002000000010410406250933325591158021750625033258710069   1040001400030000   565510000351025655100002171Amazing Sportswear nul No-161  Ahlon MMR11006250933325591150625000000000000000   10300001 00104100000000004320000000000000     
100   62443101086752040000000000070000000000070000002000000010410406250607177418084049800625083371217175   1030000900030000   554119001103190110000000215New Day Energy MYG     YANGONONE     MMR11006250607177418080625000000000000000   10300001F00104100000000008400000000000000     
100   95050324444444460000000000187550000000187550002000000010410406250722217434096553250625078521321175   1030000900030000   581219000368190110000000241Beauty In The Pot (PHS YANGON        MMR11006250722217434090625000000000000000   10300001F00104100000000079709000000000000     
100   62911028202484810000000000050000000000050000002000000010410406250940407466204773800625213101640175   1030000900030000   554119000345190110000000212New Day Energy PZD     YANGONAUNG    MMR11006250940407466200625000000000000000   10300001F00104100000000001500000000000000     
100   95050314893649800000000000004900000000004900002000000010410406250241261126137099480625000007387490   1020000200030000   333400010001204104000000281Myanmar Soft-Gate Tech Yangon        MMR11006250241261126130625000000000000000   10300001F05104100000000001029000000000000     
100   95030308100042590000000000477000000000477000002000000010410406250417407394934773800625632471040175   1030000900030000   541119000831190110000000177Pro1 Global (Insein)   YANGON        MMR11006250417407394930625000000000000000   10300001F00104100000000028620000000000000     
100   62911028202790560000000000076700000000076700002000000010410406251139357497584773800625451091835175   1030000900030000   541119000113190110000000077Sein Gay Har Chinatown YANGON        MMR11006251139357497580625000000000000000   10300001F00104100000000004602000000000000     
100   95050310427855490000000000000980000000000980002000000010410406251054072407437475520625000007389454   1020000200030000   333400010001204104000000281Myanmar Soft-Gate Tech Yangon        MMR11006251054072407430625000000000000000   10300001F05104100000000000206000000000000     
100   95050314791376690000000000001960000000001960002000000010410406250841361136113319590625000007388957   1020000200030000   333400010001204104000000281Myanmar Soft-Gate Tech Yangon        MMR11006250841361136110625000000000000000   10300001F05104100000000000412000000000000     
100   95050312224678430000000000000980000000000980002000000010410406250312134213033964710625000007387627   1020000200030000   333400010001204104000000281Myanmar Soft-Gate Tech Yangon        MMR11006250312134213030625000000000000000   10300001F05104100000000000206000000000000     
100   95050314794441720000000000300000000000300000002000000010410406250829035903456539460625000007388907   1030000200030000   333800010001203104000003327KBZPay                 Yangon        MMR11006250829035903450625000000000000000   10300001F05104100000000063000000000000000     
100   95050314692738880000000000000980000000000980002000000010410406251328005800159709890625000007389963   1020000200030000   333400010001204104000000281Myanmar Soft-Gate Tech Yangon        MMR11006251328005800150625000000000000000   10300001F05104100000000000206000000000000     
100   62911028202448030000000000015500000000015500002000000010410406251047027483934773800625488171702175   1030000900030000   541119001245190110000000955City Mart JS C 4       YANGONUT      MMR11006251047027483930625000000000000000   10300001F00104100000000000930000000000000     
100   95050310397364970000000000000980000000000980002000000010410406250511234123346042670625000007388130   1020000200030000   333400010001204104000000281Myanmar Soft-Gate Tech Yangon        MMR11006250511234123340625000000000000000   10300001F05104100000000000206000000000000     
100   95030301100120440000000000006900000000006900002000000010410406251111027490844773800625986411702175   1030000900030000   541119001239190110000000953Marketplace KTYCity Ca YANGONARTAUNG MMR11006251111027490840625000000000000000   10300001F00104100000000000414000000000000     
100   95050317518971470000000000005000000000005000002000000010410406251328075807728057410625000007389986   1030000200030000   3338000100012031040000040022C2P (Myanmar) Co. Ltd Yangon        MMR11006251328075807720625000000000000000   10300001F05104100000000001050000000000000     
100   95050313763920110000000000050000000000050000002000000010410406250154162416664851320625000007387351   1030000200030000   333800010001203104000003327KBZPay                 Yangon        MMR11006250154162416660625000000000000000   10300001F05104100000000010500000000000000     
