100   62443100322986690000000000068000000000068000002000000010410406250950500015213745070625000352082898   1030000300030000   804300002919000000000002023CB BANK                MYANMAR AMERI MMR11006250950500015210625000000000000000   10300001F00104100000000016320000000000000     
100   95030308100042590000000000013600000000013600002000000010410406250647050030104773800625000352058601   1030000300030000   581400000692000000000000478CB BANK                KFC PARAMI SG MMR11006250647050030100625000000000000000   10300001F00104100000000000408000000000000     
100   95050323349421940000000000039500000000039500002000000010410406251207550006081376160625217618000608   1030000500030000   531120155701000045311201557GAMONE PWINT           PTN           MMR11006251207550006080625000000000000000   10300001 00104100000000009480000000000000     
100   95030307963177330000000000106638000000106638002000000010410406250706560014854773800625217613001485   1030000500030000   531120226303000045311202263OCEAN SUPER CENTER STJ PTN           MMR11006250706560014850625000000000000000   10300001 00104100000000006398000000000000     
100   62443100381661260000000000015650000000015650002000000010410406250355100013727014390625217610001372   1030000500030000   541120226203000045411202262CITY MART ZAWANA       PTN           MMR11006250355100013720625000000000000000   10300001 00104100000000003913000000000000     
100   95050325925517520000000000018750000000018750002000000010410406250430390004662567510625217611000466   1030000500030000   591220013201014405912200132SHWE OHH PHARMACY      PTN           MMR11006250430390004660625000000000000000   10300001 00104100000000004500000000000000     
100   62911028202907490000000000015285000000015285002000000010410406250756290010034773800625217614001003   1030000500030000   541120229102000045411202291CITY MART YANKIN       PTN           MMR11006250756290010030625000000000000000   10300001 00104100000000000917000000000000     
100   62443100323428970000000000150000000000150000002000000010410406251014470002761837300625000352086273   1030000300030000   541100002357000000000000102CB BANK                MAKRO MYANMAR MMR11006251014470002760625000000000000000   10300001F00104100000000037500000000000000     
100   95030333478847140000000000150000000000150000002000000010410406251004520003104773800625000352084884   1030000300030000   541100002330000000000000102CB BANK                MAKRO MYANMAR MMR11006251004520003100625000000000000000   10300001F00104100000000009000000000000000     
100   95050312499482960000000000032000000000032000002000000010410406250835070005134972070625217615000513   1030000500030000   569120066801008205691200668ESCORT                 PTN           MMR11006250835070005130625000000000000000   10300001 00104100000000007680000000000000     
100   62911028202464020000000000001500000000001500002000000010410406250755290004524773800625217614000452   1030000500030000   591220211101014405912202111SHWE OHH PHARMACY      PTN           MMR11006250755290004520625000000000000000   10300001 00104100000000000090000000000000     
100   62911028202366010000000000047400000000047400002000000010410406250959340003684773800625217616000368   1030000500030000   569120102801019505691201028MK FASHION SHOP        PTN           MMR11006250959340003680625000000000000000   10300001 00104100000000002844000000000000     
100   95030307963177330000000000168500000000168500002000000010410406250339080003694773800625217610000369   1030000500030000   531120226327000045311202263OCEAN SUPER CENTER STJ PTN           MMR11006250339080003690625000000000000000   10300001 00104100000000010110000000000000     
100   95050324200302760000000000020950000000020950002000000010410406250234410005512142030625217609000551   1030000500030000   591220042601014405912200426SHWE OHH PHARMACY      PTN           MMR11006250234410005510625000000000000000   10300001 00104100000000005028000000000000     
100   62911028202663430000000000006000000000006000002000000010410406250741260012624773800625217614001262   1030000500030000   541120227604000045411202276CITY MART ( 47 BRANCH  PTN           MMR11006250741260012620625000000000000000   10300001 00104100000000000360000000000000     
100   62911028202490830000000000204000000000204000002000000010410406250920200018004773800625217615001800   1030000500030000   806220046404006308062200464ASIA ROYAL HOSPITAL    PTN           MMR11006250920200018000625000000000000000   10300001 00104100000000012240000000000000     
100   62443100340604550000000000057000000000057000002000000010410406250923000003024631690625000352079269   1030000300030000   701100001159000000000000807CB BANK                SULE - SHANGR MMR11006250923000003020625000000000000000   10300001F00104100000000024225000000000000     
100   62911028202703370000000000017000000000017000002000000010410406250815160004464773800625217614000446   1030000500030000   701120141601008207011201416GREEN PARADISE HOTEL   PTN           MMR11006250815160004460625000000000000000   10300001 00104100000000001734000000000000     
100   62443101076362230000000000050000000000050000002000000010410406251053540008235908130625217617000823   1030000500030000   531120226320000045311202263OCEAN SUPER CENTER STJ PTN           MMR11006251053540008230625000000000000000   10300001 00104100000000012000000000000000     
100   95050328384000040000000000041300000000041300002000000010410406250345000001275276800625000352034875   1030000300030000   581400000748000000000000517CB BANK                KFC (INT)     MMR11006250345000001270625000000000000000   10300001F00104100000000004956000000000000     
100   95050323282717740000000000030000000000030000002000000010410406251226030048479383290625217618004847   1030000500030000   598320002104000015172200021MAX ENERGY             PTN           MMR11006251226030048470625000000000000000   10300001 00104100000000003600000000000000     
100   95030301100081330000000000071000000000071000002000000010410406251128020046274773800625217617004627   1030000500030000   598320001604000015172200016MAX ENERGY             PTN           MMR11006251128020046270625000000000000000   10300001 00104100000000002130000000000000     
100   62911028202142930000000000018000000000018000002000000010410406250726270043524773800625217613004352   1030000500030000   598320002102000015172200021MAX ENERGY             PTN           MMR11006250726270043520625000000000000000   10300001 00104100000000000540000000000000     
100   62443100323428970000000000025000000000025000002000000010410406251048380063864170550625217617006386   1030000500030000   598320001303000015172200013MAX ENERGY             PTN           MMR11006251048380063860625000000000000000   10300001 00104100000000003000000000000000     
100   62443100394939820000000000042700000000042700002000000010410406251145160040036248520625000352098503   1030000300030000   541100002331000000000000102CB BANK                MAKRO MYANMAR MMR11006251145160040030625000000000000000   10300001F00104100000000010675000000000000     
100   62911028202136750000000000052000000000052000002000000010410406251105170093774773800625217617009377   1030000500030000   598320001903000015172200019MAX ENERGY             PTN           MMR11006251105170093770625000000000000000   10300001 00104100000000001560000000000000     
100   62911028202204490000000000028000000000028000002000000010410406251136040054714773800625217618005471   1030000500030000   598320001201000015172200012MAX ENERGY             PTN           MMR11006251136040054710625000000000000000   10300001 00104100000000000840000000000000     
100   62911028202286990000000000030000000000030000002000000010410406251222520091034773800625217618009103   1030000500030000   598320001901000015172200019MAX ENERGY             PTN           MMR11006251222520091030625000000000000000   10300001 00104100000000000900000000000000     
100   62911028202703370000000000050000000000050000002000000010410406250209370116354773800625217608011635   1030000500030000   598320001904000015172200019MAX ENERGY             PTN           MMR11006250209370116350625000000000000000   10300001 00104100000000001500000000000000     
100   62911028202204490000000000060000000000060000002000000010410406250457530062604773800625217611006260   1030000500030000   598320001203000015172200012MAX ENERGY             PTN           MMR11006250457530062600625000000000000000   10300001 00104100000000001800000000000000     
100   95030301100022270000000000027000000000027000002000000010410406250511210063764773800625217611006376   1030000500030000   598320001302000015172200013MAX ENERGY             PTN           MMR11006250511210063760625000000000000000   10300001 00104100000000000810000000000000     
100   62911028202668300000000000040000000000040000002000000010410406250533440043314773800625217612004331   1030000500030000   598320002102000015172200021MAX ENERGY             PTN           MMR11006250533440043310625000000000000000   10300001 00104100000000001200000000000000     
100   62443100300412100000000000030306000000030306002000000010410406261123090245720475750626000749059562   1030000200030000   541188001037000008000000010KBZ BANK               MARKETPLACE - MMR11006261123090245720626000000000000000   10300001 00104100000000007577000000000000     
100   95030301100081330000000000008804000000008804002000000010410406262006200186734773800626000749082440   1030000200030000   541188001305000008000000325KBZ BANK               CITY MART - A MMR11006262006200186730626000000000000000   10300001 00104100000000000528000000000000     
100   62911028202133940000000000063604000000063604002000000010410406261721010167404773800626000749076316   1030000200030000   541188001306000008000000325KBZ BANK               CITY MART - A MMR11006261721010167400626000000000000000   10300001 00104100000000003816000000000000     
100   95050316818236190000000000001960000000001960002000000010410406260932080208091729340626000007392559   1020000200030000   333400010001204104000000281Myanmar Soft-Gate Tech Yangon        MMR11006260932080208090626000000000000000   10300001F05104100000000000412000000000000     
100   62911028202290100000000000044300000000044300002000000010410406261120060209674773800626000749059457   1030000200030000   541188001080000008000000294KBZ BANK               CITY MART - J MMR11006261120060209670626000000000000000   10300001 00104100000000002658000000000000     
100   95050317003064220000000000000980000000000980002000000010410406260409243924135688490626000007391383   1020000200030000   333400010001204104000000281Myanmar Soft-Gate Tech Yangon        MMR11006260409243924130626000000000000000   10300001F05104100000000000206000000000000     
100   95050319928585020000000000001000000000001000002000000010410406260258422842031872950626000007391175   1030000200030000   3338000100012031040000040022C2P (Myanmar) Co. Ltd Yangon        MMR11006260258422842030626000000000000000   10300001F05104100000000000210000000000000     
100   95050318057347910000000000019600000000019600002000000010410406260821005100017998890626000007392361   1020000200030000   333400010001204104000000281Myanmar Soft-Gate Tech Yangon        MMR11006260821005100010626000000000000000   10300001F05104100000000004116000000000000     
100   62911028202154640000000000013350000000013350002000000010410406260455587618074773800626772251158176   1030000900030000   541119001263190110000000958City Mart PLST C 6     YANGONMYOTHIT MMR11006260455587618070626000000000000000   10300001F00104100000000000801000000000000     
100   95030301100319290000000000004900000000004900002000000010410406260705203520804773800626000007392104   1020000200030000   333400010001204104000000281Myanmar Soft-Gate Tech Yangon        MMR11006260705203520800626000000000000000   10300001F05104100000000001029000000000000     
100   95050311931431670000000000002940000000002940002000000010410406260527145714949504040626000007391684   1020000200030000   333400010001204104000000281Myanmar Soft-Gate Tech Yangon        MMR11006260527145714940626000000000000000   10300001F05104100000000000617000000000000     
100   95050313396828960000000000001960000000001960002000000010410406260425485548234036010626000007391448   1020000200030000   333400010001204104000000281Myanmar Soft-Gate Tech Yangon        MMR11006260425485548230626000000000000000   10300001F05104100000000000412000000000000     
100   95030390626214130000000000200000000000200000002000000010410406260621555155814773800626000007391935   1030000200030000   333800010001203104000003327KBZPay                 Yangon        MMR11006260621555155810626000000000000000   10300001F05104100000000042000000000000000     
100   62911028202790310000000000003950000000003950002000000010410406260959267692774773800626483291626176   1030000900030000   541119001206190110000000948City Mart YK C 4       YANGONAUNG    MMR11006260959267692770626000000000000000   10300001F00104100000000000237000000000000     
100   95050311931431670000000000004900000000004900002000000010410406260533310331882894100626000007391712   1020000200030000   333400010001204104000000281Myanmar Soft-Gate Tech Yangon        MMR11006260533310331880626000000000000000   10300001F05104100000000001029000000000000     
100   95050328876009750000000000020000000000020000002000000010410406260739350935788083990626000007392226   1030000200030000   333800010001203104000003327KBZPay                 Yangon        MMR11006260739350935780626000000000000000   10300001F05104100000000004200000000000000     
100   95050312160676580000000000020000000000020000002000000010410406260200223022954667340626000007390987   1030000200030000   333800010001203104000003327KBZPay                 Yangon        MMR11006260200223022950626000000000000000   10300001F05104100000000004200000000000000     
100   95050313497815710000000000020000000000020000002000000010410406260252492249758567980626000007391156   1030000200030000   333800010001203104000003327KBZPay                 Yangon        MMR11006260252492249750626000000000000000   10300001F05104100000000004200000000000000     
100   95030367537085740000000000001960000000001960002000000010410406260326435643194773800626000007391256   1020000200030000   333400010001204104000000281Myanmar Soft-Gate Tech Yangon        MMR11006260326435643190626000000000000000   10300001F05104100000000000412000000000000     
100   62911028202473840000000000075700000000075700002000000010410406261009077695584773800626660391607176   1030000900030000   591219000694190110000000525Shwe Ohh Pharmacy ST-2 YANGONAW      MMR11006261009077695580626000000000000000   10300001F00104100000000004542000000000000     
100   95050326155679180000000000005880000000005880002000000010410406260405423542855092820626000007391372   1020000200030000   333400010001204104000000281Myanmar Soft-Gate Tech Yangon        MMR11006260405423542850626000000000000000   10300001F05104100000000001235000000000000     
100   95050312498129060000000000000980000000000980002000000010410406261312364236397353770626000007393284   1020000200030000   333400010001204104000000281Myanmar Soft-Gate Tech Yangon        MMR11006261312364236390626000000000000000   10300001F05104100000000000206000000000000     
100   95050313497815710000000000002000000000002000002000000010410406260507463746052723910626000007391625   1030000200030000   333800010001203104000003327KBZPay                 Yangon        MMR11006260507463746050626000000000000000   10300001F05104100000000000420000000000000     
100   95050314570621780000000000005880000000005880002000000010410406260653382338542445760626000007392063   1020000200030000   333400010001204104000000281Myanmar Soft-Gate Tech Yangon        MMR11006260653382338540626000000000000000   10300001F05104100000000001235000000000000     
100   95030367537085740000000000000980000000000980002000000010410406261259382938134773800626000007393247   1020000200030000   333400010001204104000000281Myanmar Soft-Gate Tech Yangon        MMR11006261259382938130626000000000000000   10300001F05104100000000000206000000000000     
100   95050310427855490000000000002940000000002940002000000010410406251640481048299539690626000007390521   1020000200030000   333400010001204104000000281Myanmar Soft-Gate Tech Yangon        MMR11006251640481048290626000000000000000   10300001F05104100000000000617000000000000     
100   95050318131043910000000000003000000000003000002000000010410406260404593459576745300626000007391370   1030000200030000   3334000100012031040000040102C2P (Myanmar) Co. Ltd Yangon        MMR11006260404593459570626000000000000000   10300001F05104100000000000630000000000000     
100   95050311931431670000000000002940000000002940002000000010410406260528505850801241620626000007391692   1020000200030000   333400010001204104000000281Myanmar Soft-Gate Tech Yangon        MMR11006260528505850800626000000000000000   10300001F05104100000000000617000000000000     
100   95050316377977350000000000005000000000005000002000000010410406260615014501020986340626000007391907   1030000200030000   3338000100012031040000040022C2P (Myanmar) Co. Ltd Yangon        MMR11006260615014501020626000000000000000   10300001F05104100000000001050000000000000     
100   95030301100124400000000000013150000000013150002000000010410406260250527594964773800626503200952176   1030000900030000   541119001261190110000000958City Mart PLST C 4     YANGONMYOTHIT MMR11006260250527594960626000000000000000   10300001F00104100000000000789000000000000     
100   62443101037081820000000000031500000000031500002000000010410406260501087619094376400626835311108176   1030000900030000   581219001433190110000001037TAING YIN THAR         YANGON        MMR11006260501087619090626000000000000000   10300001F00104100000000013388000000000000     
100   95050310427855490000000000003920000000003920002000000010410406261146011601222566510626000007393028   1020000200030000   333400010001204104000000281Myanmar Soft-Gate Tech Yangon        MMR11006261146011601220626000000000000000   10300001F05104100000000000823000000000000     
100   95050314557307430000000000003920000000003920002000000010410406261014014401918424370626000007392737   1020000200030000   333400010001204104000000281Myanmar Soft-Gate Tech Yangon        MMR11006261014014401910626000000000000000   10300001F05104100000000000823000000000000     
100   62911028202610540000000000032300000000032300002000000010410406260812497662604773800626565421449176   1030000900030000   541119000128190110000000082Sein Gay Har Super Cen YANGON        MMR11006260812497662600626000000000000000   10300001F00104100000000001938000000000000     
100   95050312498129060000000000000980000000000980002000000010410406260558162816732553720626000007391839   1020000200030000   333400010001204104000000281Myanmar Soft-Gate Tech Yangon        MMR11006260558162816730626000000000000000   10300001F05104100000000000206000000000000     
100   95050311959900780000000000000980000000000980002000000010410406260356352635988397790626000007391341   1020000200030000   333400010001204104000000281Myanmar Soft-Gate Tech Yangon        MMR11006260356352635980626000000000000000   10300001F05104100000000000206000000000000     
100   95050318712627500000000000002940000000002940002000000010410406260452092209455518300626000007391560   1020000200030000   333400010001204104000000281Myanmar Soft-Gate Tech Yangon        MMR11006260452092209450626000000000000000   10300001F05104100000000000617000000000000     
100   95050316377977350000000000005000000000005000002000000010410406261117304730405629980626000007392944   1030000200030000   3338000100012031040000040022C2P (Myanmar) Co. Ltd Yangon        MMR11006261117304730400626000000000000000   10300001F05104100000000001050000000000000     
100   95050316043499650000000000025000000000025000002000000010410406260724415441810878380626000007392171   1030000200030000   333800010001203104000003327KBZPay                 Yangon        MMR11006260724415441810626000000000000000   10300001F05104100000000005250000000000000     
100   95050316067768680000000000002940000000002940002000000010410406261320375037517438870626000007393305   1020000200030000   333400010001204104000000281Myanmar Soft-Gate Tech Yangon        MMR11006261320375037510626000000000000000   10300001F05104100000000000617000000000000     
100   62911028202471860000000000021000000000021000002000000010410406260347367603724773800626929171036176   1030000900030000   581219000715190110000000546Akkhaya Tea House(Dago YANGON        MMR11006260347367603720626000000000000000   10300001F00104100000000002142000000000000     
100   95050314307746340000000000000980000000000980002000000010410406260240081008898482890626000007391109   1020000200030000   333400010001204104000000281Myanmar Soft-Gate Tech Yangon        MMR11006260240081008890626000000000000000   10300001F05104100000000000206000000000000     
100   95050317003064220000000000001960000000001960002000000010410406260504173417509418950626000007391613   1020000200030000   333400010001204104000000281Myanmar Soft-Gate Tech Yangon        MMR11006260504173417500626000000000000000   10300001F05104100000000000412000000000000     
100   95050314735271470000000000022950000000022950002000000010410406260754537658311474050626294241453176   1030000900030000   541119001236190110000000951Marketplace KTY C 6    YANGONARTAUNG MMR11006260754537658310626000000000000000   10300001F00104100000000005738000000000000     
100   95050328074436620000000000009800000000009800002000000010410406260609123912245943790626000007391886   1020000200030000   333400010001204104000000281Myanmar Soft-Gate Tech Yangon        MMR11006260609123912240626000000000000000   10300001F05104100000000002058000000000000     
100   95050328156626340000000000010000000000010000002000000010410406260607033703217596270626000007391867   1030000200030000   333800010001203104000003327KBZPay                 Yangon        MMR11006260607033703210626000000000000000   10300001F05104100000000002100000000000000     
100   62911028202352490000000000005200000000005200002000000010410406260858282828334773800626000007392466   1030000900030000   333300010001202104000002659MSP                    Yangon        MMR11006260858282828330626000000000000000   10300001F05104100000000010000000000000000     
100   95050310332595380000000000000980000000000980002000000010410406261456502650549687030626000007393669   1020000200030000   333400010001204104000000281Myanmar Soft-Gate Tech Yangon        MMR11006261456502650540626000000000000000   10300001F05104100000000000206000000000000     
100   95050316818236190000000000000980000000000980002000000010410406260717304730590793280626000007392142   1020000200030000   333400010001204104000000281Myanmar Soft-Gate Tech Yangon        MMR11006260717304730590626000000000000000   10300001F05104100000000000206000000000000     
100   95050310833306920000000000054510000000054510002000000010410406260427137611765773590626387571013176   1030000900030000   541119001511190110000001102Ocean MGDTM C-4        YANGONADON    MMR11006260427137611760626000000000000000   10300001F00104100000000013628000000000000     
100   95050316949180000000000000002940000000002940002000000010410406261501573157818034540626000007393688   1020000200030000   333400010001204104000000281Myanmar Soft-Gate Tech Yangon        MMR11006261501573157810626000000000000000   10300001F05104100000000000617000000000000     
100   62911028202610540000000000018100000000018100002000000010410406260611297634704773800626830411229176   1030000900030000   581219000931190110000000740Shwe Palin City Mall   YANGONAW      MMR11006260611297634700626000000000000000   10300001F00104100000000001846000000000000     
100   95050310332595380000000000000980000000000980002000000010410406260016424642267887210626000007390825   1020000200030000   333400010001204104000000281Myanmar Soft-Gate Tech Yangon        MMR11006260016424642260626000000000000000   10300001F05104100000000000206000000000000     
100   62911028202668300000000000006800000000006800002000000010410406260646499206724773800626217713920672   1040001600030000   541120000571000000010000465Ocean Shwe Gone Daing  Yangon        MMR11006260646499206720626000000000000000   10300001F00104100000000000408000000000000     
100   95030301100121270000000000005600000000005600002000000010410406260635239199384773800626217713919938   1040001600030000   581420000098000000010000094Cha Tra Mue (Pinlon)   Yangon        MMR11006260635239199380626000000000000000   10300001F00104100000000000168000000000000     
100   62443100327281780000000000000050000000000050002000000010410406260537559162735858690626217712916273   1040001600030000   509420000084000000010000080KKA Gold & Jewellery   Mandalay      MMR11006260537559162730626000000000000000   10300001F00104100000000000020000000000000     
100   62911028202289130000000000044000000000044000002000000010410406261046149363044773800626217717936304   1040001600030000   598320000658000000010000527Shwe Taung Energy (YGN Yangon        MMR11006261046149363040626000000000000000   10300001F00104100000000001320000000000000     
100   95030301100103940000000000014200000000014200002000000010410406260907009287874773800626217716928787   1040001600030000   541120000584000000010000465Ocean Shwe Gone Daing  Yangon        MMR11006260907009287870626000000000000000   10300001F00104100000000000852000000000000     
100   95030301100120850000000000013843000000013843002000000010410406261030397701754773800626064001739176   1030000900030000   541119001208190110000000948City Mart YK C 6       YANGONAUNG    MMR11006261030397701750626000000000000000   10300001F00104100000000000831000000000000     
100   62911028202400660000000000062300000000062300002000000010410406260439299807104773800626092930623603   1040001400030000   555610000595025556100003510119 Store null No-119  Anawrahta Roa MMR11006260439299807100626000000000000000   10300001 00104100000000003738000000000000     
100   95050325925517520000000000026000000000026000002000000010410406261126139397828934950626217718939782   1040001600030000   598320000310000000010000298PT Power Petrol Statio Yangon        MMR11006261126139397820626000000000000000   10300001F00104100000000003120000000000000     
100   62443100364307970000000000000050000000000050002000000010410406260538349163230816140626217712916323   1040001600030000   509420000084000000010000080KKA Gold & Jewellery   Mandalay      MMR11006260538349163230626000000000000000   10300001F00104100000000000020000000000000     
100   62443100300743690000000000024596000000024596002000000010410406260735549235593126540626217714923559   1040001600030000   541120000563000000010000465Ocean Shwe Gone Daing  Yangon        MMR11006260735549235590626000000000000000   10300001F00104100000000006149000000000000     
100   62911028202308280000000000022785000000022785002000000010410406260845349275344773800626217715927534   1040001600030000   581420001161000000010000871Kin Sakura (Bo Aung Ky ygn           MMR11006260845349275340626000000000000000   10300001F00104100000000000684000000000000     
100   95030342412592190000000000097100000000097100002000000010410406261119550004364773800626000749077689   1030000200030000   564188001663000008000005156KBZ BANK               SB BABY-6     MMR11006261119550004360626000000000000000   10300001 00104100000000005826000000000000     
100   62911028202442250000000000033500000000033500002000000010410406261035010015874773800626000749075504   1030000200030000   599988000603000008000003448KBZ BANK               SWEETY HOME(6 MMR11006261035010015870626000000000000000   10300001 00104100000000002010000000000000     
100   95030318100004530000000000049550000000049550002000000010410406260838380006934773800626000749069857   1030000200030000   541188002225000008000005919KBZ BANK               K-MART SUPERM MMR11006260838380006930626000000000000000   10300001 00104100000000002973000000000000     
100   95050317866508340000000000077600000000077600002000000010410406261021460016406856980626000749074762   1030000200030000   569988000786000008000004553KBZ BANK               CPT-IPANEMA   MMR11006261021460016400626000000000000000   10300001 00104100000000018624000000000000     
100   95050313400081980000000000003000000000003000002000000010410406261130050005319176450626000007392986   1030000200030000   333800010001203104000003327KBZPay                 Yangon        MMR11006261130050005310626000000000000000   10300001F05104100000000000630000000000000     
100   62911028202656830000000000020000000000020000002000000010410406260328080006954773800626000749056353   1030000200030000   569188002009000008000005460KBZ BANK               IMMI BRANDED  MMR11006260328080006950626000000000000000   10300001 00104100000000001200000000000000     
100   95030325264619140000000000041000000000041000002000000010410406260745100015534773800626000749067188   1030000200030000   596588002422000008000006477KBZ BANK               AMERICAN COLL MMR11006260745100015530626000000000000000   10300001 00104100000000002460000000000000     
100   95030301100081330000000000024850000000024850002000000010410406261500440122204773800626000749069435   1030000200030000   541188001303000008000000325KBZ BANK               CITY MART - A MMR11006261500440122200626000000000000000   10300001 00104100000000001491000000000000     
100   62911028202193830000000000042300000000042300002000000010410406261025237700354773800626973551623176   1030000900030000   541119001241190110000000082Sein Gay Har Super Cen YANGON        MMR11006261025237700350626000000000000000   10300001F00104100000000002538000000000000     
100   95050311876202380000000000030000000000030000002000000010410406260856009281485204500626217715928148   1040001600030000   598320000660000000010000529Shwe Taung Energy (NPT Naypyitaw     MMR11006260856009281480626000000000000000   10300001F00104100000000003600000000000000     
100   95050328425894870000000000013500000000013500002000000010410406261134067718947523970626164041806176   1030000900030000   541119001308190110000000968Ocean Mingalar MDY C 1 MANDALAYHARSI MMR11006261134067718940626000000000000000   10300001F00104100000000003375000000000000     
100   62911028202404050000000000067900000000067900002000000010410406260642399204264773800626217713920426   1040001600030000   806220001355000000010001061Grand Hantha Internati Ygn           MMR11006260642399204260626000000000000000   10300001F00104100000000004074000000000000     
100   62443100355445150000000000037000000000037000002000000010410406260927349301659991760626217716930165   1040001600030000   591220000285000000010000273Shwe Ohh Pharmacy (47t Yangon        MMR11006260927349301650626000000000000000   10300001F00104100000000008880000000000000     
100   62443101037081820000000000077400000000077400002000000010410406261129189400067282470626217718940006   1040001600030000   569120001365000000010001065Generation Concept Sto Ygn           MMR11006261129189400060626000000000000000   10300001F00104100000000018576000000000000     
100   62911028202068510000000000100000000000100000002000000010410406261329235923924773800626000007393330   1030000200030000   333800010001203104000003327KBZPay                 Yangon        MMR11006261329235923920626000000000000000   10300001F05104100000000021000000000000000     
100   95030301100103940000000000036150000000036150002000000010410406260903009285754773800626217716928575   1040001600030000   541120000573000000010000465Ocean Shwe Gone Daing  Yangon        MMR11006260903009285750626000000000000000   10300001F00104100000000002169000000000000     
100   62911028202471860000000000016100000000016100002000000010410406261823100049504773800626000749079137   1030000200030000   541188001021000008000000298KBZ BANK               CITY MART - M MMR11006261823100049500626000000000000000   10300001 00104100000000000966000000000000     
100   95050315752234130000000000030218000000030218002000000010410406261114040032183695630626000749059219   1030000200030000   541188001452000008000000391KBZ BANK               OCEAN SUPER C MMR11006261114040032180626000000000000000   10300001 00104100000000007555000000000000     
100   95050313702988830000000000002940000000002940002000000010410406260730160016992530860626000007392193   1020000200030000   333400010001204104000000281Myanmar Soft-Gate Tech Yangon        MMR11006260730160016990626000000000000000   10300001F05104100000000000617000000000000     
100   95050316785465380000000000006650000000006650002000000010410406261154080047787851560626000749060915   1030000200030000   541188001463000008000000391KBZ BANK               OCEAN SUPER C MMR11006261154080047780626000000000000000   10300001 00104100000000001663000000000000     
100   62911028202611790000000000008900000000008900002000000010410406261159300067604773800626000749061152   1030000200030000   541188001072000008000000314KBZ BANK               MARKETPLACE - MMR11006261159300067600626000000000000000   10300001 00104100000000000534000000000000     
100   95050310283577350000000000020661000000020661002000000010410406261710140038673807310626000749075801   1030000200030000   541188001079000008000000294KBZ BANK               CITY MART - J MMR11006261710140038670626000000000000000   10300001 00104100000000005166000000000000     
100   62911028202890630000000000022200000000022200002000000010410406261506420033904773800626000749069722   1030000200030000   541188001354000008000000395KBZ BANK               OCEAN SUPERMA MMR11006261506420033900626000000000000000   10300001 00104100000000001332000000000000     
100   62911028202212490000000000043750000000043750002000000010410406261811350038754773800626000749078689   1030000200030000   541188001079000008000000294KBZ BANK               CITY MART - J MMR11006261811350038750626000000000000000   10300001 00104100000000002625000000000000     
100   62443100328070970000000000055000000000055000002000000010410406260729119232104183350626217714923210   1040001600030000   598320001170000000010000527Shwe Taung Energy (YGN Yangon        MMR11006260729119232100626000000000000000   10300001F00104100000000006600000000000000     
100   62443101093150400000000000118900000000118900002000000010410406260723579228939140800626217714922893   1040001600030000   591220000280000000010000268Shwe Ohh Pharmacy (Naw Yangon        MMR11006260723579228930626000000000000000   10300001F00104100000000028536000000000000     
100   95030356977005070000000000001200000000001200002000000010410406250645030014494773800625217613001449   1030000500030000   541120226403000045411202264MARKET PLACE MYANMARPL PTN           MMR11006250645030014490625000000000000000   10300001 00104100000000000072000000000000     
100   95050313732480420000000000002940000000002940002000000010410406260555352535874206210626000007391823   1020000200030000   333400010001204104000000281Myanmar Soft-Gate Tech Yangon        MMR11006260555352535870626000000000000000   10300001F05104100000000000617000000000000     
100   62911028202668300000000000095400000000095400002000000010410406260210079048394773800626217709904839   1040001600030000   591220000259000000010000247Shwe Ohh Pharmacy (KKT Yangon        MMR11006260210079048390626000000000000000   10300001F00104100000000005724000000000000     
100   62911028202298040000000000004300000000004300002000000010410406240314280011534773800624217509001153   1030000500030000   541120227604000045411202276CITY MART ( 47 BRANCH  PTN           MMR11006240314280011530624000000000000000   10300001 00104100000000000258000000000000     
100   95050310494988230000000000010000000000010000002000000010410406260853082308420247050626000007392456   1030000200030000   333800010001203104000003327KBZPay                 Yangon        MMR11006260853082308420626000000000000000   10300001F05104100000000002100000000000000     
100   95050321057500320000000000046150000000046150002000000010410406260212379049546830400626217709904954   1040001600030000   591220000271000000010000259Shwe Ohh Pharmacy (Gwa Yangon        MMR11006260212379049540626000000000000000   10300001F00104100000000011076000000000000     
100   95050322328337270000000000046939000000046939002000000010410406261636430042355119400626000749074066   1030000200030000   541188001459000008000000391KBZ BANK               OCEAN SUPER C MMR11006261636430042350626000000000000000   10300001 00104100000000011735000000000000     
100   95050313640946520000000000019450000000019450002000000010410406241201440000756007020624217518000075   1030000500030000   541120203901000015411202039NEIGHBOURHOOD          PTN           MMR11006241201440000750624000000000000000   10300001 00104100000000004863000000000000     
100   62911028202684060000000000052300000000052300002000000010410406240412010003674773800624217510000367   1030000500030000   541120229003000045411202290CITY MART SUPERMARKET  PTN           MMR11006240412010003670624000000000000000   10300001 00104100000000003138000000000000     
100   62911028202313470000000000027600000000027600002000000010410406240426330011624773800624217510001162   1030000500030000   541120227604000045411202276CITY MART ( 47 BRANCH  PTN           MMR11006240426330011620624000000000000000   10300001 00104100000000001656000000000000     
100   62911028202792960000000000018300000000018300002000000010410406241105190010254773800624217517001025   1030000500030000   541120227605000045411202276CITY MART ( 47 BRANCH  PTN           MMR11006241105190010250624000000000000000   10300001 00104100000000001098000000000000     
100   62911028202198620000000000337000000000337000002000000010410406250922410000254773800625217615000025   1030000500030000   594420057601007805944200576GOLD BLISS             PTN           MMR11006250922410000250625000000000000000   10300001 00104100000000020220000000000000     
100   62443100333488440000000000005700000000005700002000000010410406250430170000844219990625217611000084   1030000500030000   541120228601000045411202286CITY EXPRESS (MCS - 11 PTN           MMR11006250430170000840625000000000000000   10300001 00104100000000001425000000000000     
100   62443100300743690000000000004300000000004300002000000010410406250206120000789893870625000352023298   1030000300030000   581400001683000000000001205CB BANK                SHWEPALIN (AR MMR11006250206120000780625000000000000000   10300001F00104100000000000516000000000000     
100   62443100318296470000000000028000000000028000002000000010410406260322339084111958050626217710908411   1040001600030000   598320001170000000010000527Shwe Taung Energy (YGN Yangon        MMR11006260322339084110626000000000000000   10300001F00104100000000003360000000000000     
100   95030301100121270000000000029300000000029300002000000010410406260627467638294773800626064571246176   1030000900030000   541119001263190110000000958City Mart PLST C 6     YANGONMYOTHIT MMR11006260627467638290626000000000000000   10300001F00104100000000001758000000000000     
100   95050312498129060000000000004900000000004900002000000010410406260527065706181156530626000007391685   1020000200030000   333400010001204104000000281Myanmar Soft-Gate Tech Yangon        MMR11006260527065706180626000000000000000   10300001F05104100000000001029000000000000     
100   62911028202677390000000000050000000000050000002000000010410406251031538593774773800625217617859377   1040001600030000   598320001065000000010000785Yangon Petrol (Thudama Ygn           MMR11006251031538593770625000000000000000   10300001F00104100000000001500000000000000     
100   95050312529325420000000000005000000000005000002000000010410406261318014801629091350626000007393296   1030000200030000   333800010001203104000003327KBZPay                 Yangon        MMR11006261318014801620626000000000000000   10300001F05104100000000001050000000000000     
100   62443100390038980000000000050300000000050300002000000010410406250829280005763234490625217614000576   1030000500030000   581220123701000015812201237ROYAL THAI             PTN           MMR11006250829280005760625000000000000000   10300001 00104100000000021378000000000000     
100   95050319938772870000000000000980000000000980002000000010410406261159382938945956580626000007393068   1020000200030000   333400010001204104000000281Myanmar Soft-Gate Tech Yangon        MMR11006261159382938940626000000000000000   10300001F05104100000000000206000000000000     
100   62911028202668300000000000002200000000002200002000000010410406261332400123714773800626000749065122   1030000200030000   541188001189000008000000383KBZ BANK               OCEAN SUPER C MMR11006261332400123710626000000000000000   10300001 00104100000000000132000000000000     
100   95030317922148660000000000048000000000048000002000000010410406251242290000824773800625000352105763   1030000300030000   701100002942000000000002044CB BANK                WINNER INN    MMR11006251242290000820625000000000000000   10300001F00104100000000004896000000000000     
100   95050326750398570000000000011100000000011100002000000010410406251359430010684752440625217620001068   1030000500030000   531120226719000045311202267OCEAN NORTH POINT      PTN           MMR11006251359430010680625000000000000000   10300001 00104100000000002664000000000000     
100   95050325925517520000000000150000000000150000002000000010410406250257000015348837060625000352029099   1030000300030000   541100002341000000000000102CB BANK                MAKRO MYANMAR MMR11006250257000015340625000000000000000   10300001F00104100000000037500000000000000     
100   62911028202162640000000000057600000000057600002000000010410406251041420014974773800625217617001497   1030000500030000   591220132901008605912201329THEIK DI WIN SHOP      PTN           MMR11006251041420014970625000000000000000   10300001 00104100000000003456000000000000     
100   62911028202400660000000000076800000000076800002000000010410406250711320004704773800625217613000470   1030000500030000   569120114601019505691201146MK FASHION SHOP (NORTH PTN           MMR11006250711320004700625000000000000000   10300001 00104100000000004608000000000000     
100   62443100306045460000000000094800000000094800002000000010410406250504320008857695150625217611000885   1030000500030000   541120207201000085411202072INFINITY MART          PTN           MMR11006250504320008850625000000000000000   10300001 00104100000000023700000000000000     
100   62911028202595200000000000008050000000008050002000000010410406250335440012564773800625217610001256   1030000500030000   503920036608000015039200366PRO-1 HOME CENTER      PTN           MMR11006250335440012560625000000000000000   10300001 00104100000000000483000000000000     
100   62911028202400660000000000020352000000020352002000000010410406250736440010204773800625217614001020   1030000500030000   531120226704000045311202267OCEAN NORTH POINT      PTN           MMR11006250736440010200625000000000000000   10300001 00104100000000001221000000000000     
100   95050312224678430000000000004900000000004900002000000010410406260502023202391071430626000007391605   1020000200030000   333400010001204104000000281Myanmar Soft-Gate Tech Yangon        MMR11006260502023202390626000000000000000   10300001F05104100000000001029000000000000     
100   95050318214455130000000000002940000000002940002000000010410406261023355335041814440626000007392767   1020000200030000   333400010001204104000000281Myanmar Soft-Gate Tech Yangon        MMR11006261023355335040626000000000000000   10300001F05104100000000000617000000000000     
100   95050312498129060000000000001960000000001960002000000010410406261212594259777694160626000007393109   1020000200030000   333400010001204104000000281Myanmar Soft-Gate Tech Yangon        MMR11006261212594259770626000000000000000   10300001F05104100000000000412000000000000     
100   95050319161596230000000000001960000000001960002000000010410406260537440744807511170626000007391726   1020000200030000   333400010001204104000000281Myanmar Soft-Gate Tech Yangon        MMR11006260537440744800626000000000000000   10300001F05104100000000000412000000000000     
100   62911028202045260000000000024100000000024100002000000010410406250406530004514773800625217610000451   1030000500030000   591220211101014405912202111SHWE OHH PHARMACY      PTN           MMR11006250406530004510625000000000000000   10300001 00104100000000001446000000000000     
