100   95050312962334280000000000000980000000000980002000000010410406271206563656911040500627000007398969   1020000200030000   333400010001204104000000281Myanmar Soft-Gate Tech Yangon        MMR11006271206563656910627000000000000000   10300001F05104100000000000206000000000000     
100   62911028202355870000000000500000000000500000002000000010410406270619114911194773800627000007396473   1030000600030000   333800010001230104000004564Trusty Wallet          Yangon        MMR11006270619114911190627000000000000000   10300001F05104100000000105000000000000000     
100   95050318141561190000000000015000000000015000002000000010410406270856552655849764050627000007397785   1030000200030000   333800010001203104000003327KBZPay                 Yangon        MMR11006270856552655840627000000000000000   10300001F05104100000000003150000000000000     
100   95050311273457710000000000160000000000160000002000000010410406270954252425115827750627000007398301   1030000200030000   333800010001203104000003327KBZPay                 Yangon        MMR11006270954252425110627000000000000000   10300001F05104100000000033600000000000000     
100   95050315099113150000000000000980000000000980002000000010410406270201163116553587670627000007394421   1020000200030000   333400010001204104000000281Myanmar Soft-Gate Tech Yangon        MMR11006270201163116550627000000000000000   10300001F05104100000000000206000000000000     
100   62443100350052510000000000063600000000063600002000000010410406270408243824735992230627000007395373   1030000200030000   333300010001203104000003632Myanmar Tradenet Test  Yangon        MMR11006270408243824730627000000000000000   10300001F05104100000000010000000000000000     
100   62911028202000450000000000000980000000000980002000000010410406270310204020664773800627000007394759   1020000200030000   333400010001204104000000281Myanmar Soft-Gate Tech Yangon        MMR11006270310204020660627000000000000000   10300001F05104100000000000206000000000000     
100   62911028202280200000000000056583000000056583002000000010410406270606197866564773800627963361219177   1030000900030000   541119001195190110000000942City Mart HDC C 10     YANGONUT      MMR11006270606197866560627000000000000000   10300001F00104100000000003395000000000000     
100   95050317834964620000000000011159000000011159002000000010410406271059037948556253240627345291703177   1030000900030000   541119001349190110000000977Ocean PZD C 3          YANGONAUNG    MMR11006271059037948550627000000000000000   10300001F00104100000000002790000000000000     
100   95030301100121680000000000002000000000002000002000000010410406270116064606334773800627000007394322   1030000200030000   333800010001203104000003327KBZPay                 Yangon        MMR11006270116064606330627000000000000000   10300001F05104100000000000420000000000000     
100   62443100318296470000000000026050000000026050002000000010410406270641317877151240630627533111331177   1030000900030000   581219001545190110000001119Paradise Hot Pot       YANGONUT      MMR11006270641317877150627000000000000000   10300001F00104100000000011072000000000000     
100   95050326198165350000000000004393000000004393002000000010410406271107127950966338330627480371712177   1030000900030000   541119001248190110000000955City Mart JS C 7       YANGONUT      MMR11006271107127950960627000000000000000   10300001F00104100000000001099000000000000     
100   95050325646370920000000000004900000000004900002000000010410406270204123412666892640627000007394434   1020000200030000   333400010001204104000000281Myanmar Soft-Gate Tech Yangon        MMR11006270204123412660627000000000000000   10300001F05104100000000001029000000000000     
100   95050322715181550000000000040000000000040000002000000010410406271229167976152863170627024591816177   1030000900030000   554119001101190110000000213New Day Energy SOK     YANGONOKKALAP MMR11006271229167976150627000000000000000   10300001F00104100000000004800000000000000     
100   95050318141561190000000000001960000000001960002000000010410406270924185418003749790627000007398032   1020000200030000   333400010001204104000000281Myanmar Soft-Gate Tech Yangon        MMR11006270924185418000627000000000000000   10300001F05104100000000000412000000000000     
100   95050317376014640000000000012800000000012800002000000010410406271049407945452948270627143191740177   1030000900030000   541119001347190110000000977Ocean PZD C 1          YANGONAUNG    MMR11006271049407945450627000000000000000   10300001F00104100000000003200000000000000     
100   95050329698388160000000000200000000000200000002000000010410406271307083708234842250627000007399256   1030000200030000   333800010001203104000003327KBZPay                 Yangon        MMR11006271307083708230627000000000000000   10300001F05104100000000042000000000000000     
100   95050315564078030000000000010000000000010000002000000010410406270158442844353502570627000007394411   1030000200030000   3338000100012031040000040022C2P (Myanmar) Co. Ltd Yangon        MMR11006270158442844350627000000000000000   10300001F05104100000000002100000000000000     
100   95050313497815710000000000001000000000001000002000000010410406270607113711114460500627000007396357   1030000200030000   333800010001203104000003327KBZPay                 Yangon        MMR11006270607113711110627000000000000000   10300001F05104100000000000210000000000000     
100   62443100301716860000000000001960000000001960002000000010410406270411254125074339750627000007395398   1020000200030000   333400010001204104000000281Myanmar Soft-Gate Tech Yangon        MMR11006270411254125070627000000000000000   10300001F05104100000000000412000000000000     
100   95050313732480420000000000002940000000002940002000000010410406270615034503711155530627000007396430   1020000200030000   333400010001204104000000281Myanmar Soft-Gate Tech Yangon        MMR11006270615034503710627000000000000000   10300001F05104100000000000617000000000000     
100   95050311959900780000000000000980000000000980002000000010410406261705193519621339510627000007393991   1020000200030000   333400010001204104000000281Myanmar Soft-Gate Tech Yangon        MMR11006261705193519620627000000000000000   10300001F05104100000000000206000000000000     
100   62911028202133940000000000063000000000063000002000000010410406270430589832064773800627217811983206   1040001600030000   591220000260000000010000248Shwe Ohh Pharmacy (KDL Yangon        MMR11006270430589832060627000000000000000   10300001F00104100000000003780000000000000     
100   95050314692738880000000000002940000000002940002000000010410406270403583358857985100627000007395339   1020000200030000   333400010001204104000000281Myanmar Soft-Gate Tech Yangon        MMR11006270403583358850627000000000000000   10300001F05104100000000000617000000000000     
100   62911028202417260000000000013600000000013600002000000010410406260843310011354773800626217715001135   1030000500030000   571220090201000015712200902LOCK & LOCK (ST.JOHN)  PTN           MMR11006260843310011350626000000000000000   10300001 00104100000000000816000000000000     
100   62911028202045260000000000007000000000007000002000000010410406260830400000804773800626217715000080   1030000500030000   541120229701000045411202297CITY EXPRESS (MCS - 95 PTN           MMR11006260830400000800626000000000000000   10300001 00104100000000000420000000000000     
100   95050324247403260000000000083133000000083133002000000010410406260701330008567488310626217713000856   1030000500030000   531120226733000045311202267OCEAN NORTH POINT      PTN           MMR11006260701330008560626000000000000000   10300001 00104100000000019952000000000000     
100   62911028202146650000000000044200000000044200002000000010410406260644220015044773800626217713001504   1030000500030000   591220132901008605912201329THEIK DI WIN SHOP      PTN           MMR11006260644220015040626000000000000000   10300001 00104100000000002652000000000000     
100   62443100323428970000000000027000000000027000002000000010410406260920140002236686800626217715000223   1030000500030000   566120038201016505661200382RIPPLE FLIPFLOPS       PTN           MMR11006260920140002230626000000000000000   10300001 00104100000000006480000000000000     
100   95050320531117320000000000005800000000005800002000000010410406260640090002574438640626000352220505   1030000300030000   541100002333000000000000102CB BANK                MAKRO MYANMAR MMR11006260640090002570626000000000000000   10300001F00104100000000001450000000000000     
100   62911028202204490000000000012000000000012000002000000010410406260425030003994773800626217710000399   1030000500030000   581220195901000085812201959AKKHAYA TEA HOUSE      PTN           MMR11006260425030003990626000000000000000   10300001 00104100000000001224000000000000     
100   95030301100316300000000000060000000000060000002000000010410406260823360003164773800626217714000316   1030000500030000   804320041701000018043200417ZEEKWEK EYEWEAR        PTN           MMR11006260823360003160626000000000000000   10300001 00104100000000003600000000000000     
100   95050311959900780000000000000980000000000980002000000010410406271306443644516494740627000007399253   1020000200030000   333400010001204104000000281Myanmar Soft-Gate Tech Yangon        MMR11006271306443644510627000000000000000   10300001F05104100000000000206000000000000     
100   62911028202355870000000001000000000001000000002000000010410406270618594859374773800627000007396471   1030000600030000   333800010001230104000004564Trusty Wallet          Yangon        MMR11006270618594859370627000000000000000   10300001F05104100000000210000000000000000     
100   95030317922148660000000000059000000000059000002000000010410406270946287925014773800627938161628177   1030000900030000   729819000768190110000000600Urban Beauty Studio    YANGON        MMR11006270946287925010627000000000000000   10300001F00104100000000003540000000000000     
100   95050314979630620000000000002000000000002000002000000010410406271001083108587565340627000007398350   1030000200030000   3338000100012031040000040022C2P (Myanmar) Co. Ltd Yangon        MMR11006271001083108580627000000000000000   10300001F05104100000000000420000000000000     
100   95050316769671810000000000000980000000000980002000000010410406271218294829671125590627000007399009   1020000200030000   333400010001204104000000281Myanmar Soft-Gate Tech Yangon        MMR11006271218294829670627000000000000000   10300001F05104100000000000206000000000000     
100   95050318141561190000000000002940000000002940002000000010410406270900423042353069020627000007397827   1020000200030000   333400010001204104000000281Myanmar Soft-Gate Tech Yangon        MMR11006270900423042350627000000000000000   10300001F05104100000000000617000000000000     
100   95050319709462380000000000000980000000000980002000000010410406270223575357743247280627000007394486   1020000200030000   333400010001204104000000281Myanmar Soft-Gate Tech Yangon        MMR11006270223575357740627000000000000000   10300001F05104100000000000206000000000000     
100   62911028202198620000000000094000000000094000002000000010410406270851187911094773800627255211518177   1030000900030000   554119001100190110000000212New Day Energy PZD     YANGON        MMR11006270851187911090627000000000000000   10300001F00104100000000002820000000000000     
100   62443100371022130000000000012400000000012400002000000010410406261022320012229020050626217716001222   1030000500030000   541120229104000045411202291CITY MART YANKIN       PTN           MMR11006261022320012220626000000000000000   10300001 00104100000000003100000000000000     
100   62911028202656830000000000027000000000027000002000000010410406260403410006054773800626217710000605   1030000500030000   569120061401006305691200614YOF JC                 PTN           MMR11006260403410006050626000000000000000   10300001 00104100000000001620000000000000     
100   95050326198165350000000000003400000000003400002000000010410406260457380006618908370626000352207298   1030000300030000   541100000867000000000000603CB BANK                ONE STOP MART MMR11006260457380006610626000000000000000   10300001F00104100000000000850000000000000     
100   62911028202112400000000000090050000000090050002000000010410406260814400004644773800626217714000464   1030000500030000   591220211101014405912202111SHWE OHH PHARMACY      PTN           MMR11006260814400004640626000000000000000   10300001 00104100000000005403000000000000     
100   62911028202417260000000000031658000000031658002000000010410406260905260015444773800626217715001544   1030000500030000   531120226303000045311202263OCEAN SUPER CENTER STJ PTN           MMR11006260905260015440626000000000000000   10300001 00104100000000001900000000000000     
100   95030317922148660000000000048000000000048000002000000010410406260326000000924773800626000352196006   1030000300030000   701100002942000000000002044CB BANK                WINNER INN    MMR11006260326000000920626000000000000000   10300001F00104100000000004896000000000000     
100   62911028202423360000000000001400000000001400002000000010410406261245400006674773800626217719000667   1030000500030000   531120226738000045311202267OCEAN NORTH POINT      PTN           MMR11006261245400006670626000000000000000   10300001 00104100000000000084000000000000     
100   95050325388974590000000000004400000000004400002000000010410406261041180013348764760626217717001334   1030000500030000   541120227604000045411202276CITY MART ( 47 BRANCH  PTN           MMR11006261041180013340626000000000000000   10300001 00104100000000001100000000000000     
100   95030367537085740000000000001960000000001960002000000010410406271358242824784773800627000007399476   1020000200030000   333400010001204104000000281Myanmar Soft-Gate Tech Yangon        MMR11006271358242824780627000000000000000   10300001F05104100000000000412000000000000     
100   95050329698388160000000000300000000000300000002000000010410406271305233523844757160627000007399246   1030000200030000   333800010001203104000003327KBZPay                 Yangon        MMR11006271305233523840627000000000000000   10300001F05104100000000063000000000000000     
100   95050314567755980000000000000980000000000980002000000010410406271125305530598075910627000007398762   1020000200030000   333400010001204104000000281Myanmar Soft-Gate Tech Yangon        MMR11006271125305530590627000000000000000   10300001F05104100000000000206000000000000     
100   62911028202355870000000001000000000001000000002000000010410406270620215021414773800627000007396479   1030000600030000   333800010001230104000004564Trusty Wallet          Yangon        MMR11006270620215021410627000000000000000   10300001F05104100000000210000000000000000     
100   95050316601084530000000000000980000000000980002000000010410406270558102810254375400627000007396276   1020000200030000   333400010001204104000000281Myanmar Soft-Gate Tech Yangon        MMR11006270558102810250627000000000000000   10300001F05104100000000000206000000000000     
100   95030301100102610000000000020000000000020000002000000010410406271329435943704773800627000007399357   1030000200030000   333800010001203104000003327KBZPay                 Yangon        MMR11006271329435943700627000000000000000   10300001F05104100000000004200000000000000     
100   95050325139996190000000000003300000000003300002000000010410406270955432543724175270627000007398310   1030000200030000   333300010001203104000003632Myanmar Tradenet Test  Yangon        MMR11006270955432543720627000000000000000   10300001F05104100000000010000000000000000     
100   95050315005801680000000000001960000000001960002000000010410406270104333433784814670627000007394309   1020000200030000   333400010001204104000000281Myanmar Soft-Gate Tech Yangon        MMR11006270104333433780627000000000000000   10300001F05104100000000000412000000000000     
100   62911028202506770000000000015250000000015250002000000010410406260911330009424773800626217715000942   1030000500030000   541120227504000045411202275CITY MART (AHLONE BRAN PTN           MMR11006260911330009420626000000000000000   10300001 00104100000000000915000000000000     
100   62911028202610540000000000004000000000004000002000000010410406260738370007914773800626217714000791   1030000500030000   531120226331000045311202263OCEAN SUPER CENTER STJ PTN           MMR11006260738370007910626000000000000000   10300001 00104100000000000240000000000000     
100   62911028202110420000000000037550000000037550002000000010410406261053550002914773800626217717000291   1030000500030000   591220011701014405912200117SHWE OHH PHARMACY      PTN           MMR11006261053550002910626000000000000000   10300001 00104100000000002253000000000000     
100   62911028202656830000000000025000000000025000002000000010410406260346000006024773800626217710000602   1030000500030000   569120061401006305691200614YOF JC                 PTN           MMR11006260346000006020626000000000000000   10300001 00104100000000001500000000000000     
100   62911028202293090000000000058766000000058766002000000010410406260443070014254773800626217711001425   1030000500030000   541120226203000045411202262CITY MART ZAWANA       PTN           MMR11006260443070014250626000000000000000   10300001 00104100000000003526000000000000     
100   62911028202652460000000000049725000000049725002000000010410406260808340003384773800626217714000338   1030000500030000   554120103901000015541201039M.A.D CAR SERVICE      PTN           MMR11006260808340003380626000000000000000   10300001 00104100000000001492000000000000     
100   95050314365758940000000000017205000000017205002000000010410406261101360007300587440626217717000730   1030000500030000   541120203807000015411202038CITY MART SUPERMARKET  PTN           MMR11006261101360007300626000000000000000   10300001 00104100000000004302000000000000     
100   62911028202417260000000000040800000000040800002000000010410406260808430008774773800626217714000877   1030000500030000   531120201602000085311202016STJ BLAZON             PTN           MMR11006260808430008770626000000000000000   10300001 00104100000000002448000000000000     
100   95030331359799240000000000001000000000001000002000000010410406271513544354334773800627000007399776   1030000200030000   3338000100012031040000040022C2P (Myanmar) Co. Ltd Yangon        MMR11006271513544354330627000000000000000   10300001F05104100000000000210000000000000     
100   62911028202169750000000000053820000000053820002000000010410406270756009942124773800627217814994212   1040001600030000   541120000563000000010000465Ocean Shwe Gone Daing  Yangon        MMR11006270756009942120627000000000000000   10300001F00104100000000003229000000000000     
100   95030314001421450000000000030000000000030000002000000010410406260447390021584773800626217711002158   1030000500030000   531120156001000045311201560GAMONE PWINT           PTN           MMR11006260447390021580626000000000000000   10300001 00104100000000001800000000000000     
100   62911028202169750000000000004500000000004500002000000010410406270804399946354773800627217815994635   1040001600030000   541120000584000000010000465Ocean Shwe Gone Daing  Yangon        MMR11006270804399946350627000000000000000   10300001F00104100000000000270000000000000     
100   95050325925517520000000000121050000000121050002000000010410406260435120030320390660626217711003032   1030000500030000   503920036601000015039200366PRO-1 HOME CENTER      PTN           MMR11006260435120030320626000000000000000   10300001 00104100000000029052000000000000     
100   62911028202921410000000000135505000000135505002000000010410406260246410001964773800626217709000196   1030000500030000   806220152201004308062201522OSC HOSPITAL           PTN           MMR11006260246410001960626000000000000000   10300001 00104100000000008130000000000000     
100   62443100361587780000000000232500000000232500002000000010410406260810050001203296730626217714000120   1030000500030000   573220023601000025732200236MYO THEIN ELECTRONIC   PTN           MMR11006260810050001200626000000000000000   10300001 00104100000000055800000000000000     
100   95050328384000040000000000021500000000021500002000000010410406261017340000808509470626217716000080   1030000500030000   581220225901000015812202259STEAK ON THE STREET    PTN           MMR11006261017340000800626000000000000000   10300001 00104100000000009138000000000000     
100   62443101023815100000000000008748000000008748002000000010410406260419100008270731050626217710000827   1030000500030000   541120227503000045411202275CITY MART (AHLONE BRAN PTN           MMR11006260419100008270626000000000000000   10300001 00104100000000002187000000000000     
100   62911028202610540000000000008040000000008040002000000010410406260731510009944773800626217714000994   1030000500030000   531120226317000045311202263OCEAN SUPER CENTER STJ PTN           MMR11006260731510009940626000000000000000   10300001 00104100000000000482000000000000     
100   62911028202474000000000000026000000000026000002000000010410406261244140015744773800626217719001574   1030000500030000   541120226805000045411202268CITY MART WAIZAYANDA   PTN           MMR11006261244140015740626000000000000000   10300001 00104100000000001560000000000000     
100   62443100358839880000000000030150000000030150002000000010410406261502080002012991990626217721000201   1030000500030000   541120231801000045411202318CITY EXPRESS (MCS - 81 PTN           MMR11006261502080002010626000000000000000   10300001 00104100000000007538000000000000     
100   95050325388974590000000000013250000000013250002000000010410406261033240011247452660626217717001124   1030000500030000   541120227605000045411202276CITY MART ( 47 BRANCH  PTN           MMR11006261033240011240626000000000000000   10300001 00104100000000003313000000000000     
100   62911028202792960000000000013850000000013850002000000010410406261140500003504773800626217718000350   1030000500030000   541120227608000045411202276CITY MART ( 47 BRANCH  PTN           MMR11006261140500003500626000000000000000   10300001 00104100000000000831000000000000     
100   95030301100022270000000000018000000000018000002000000010410406260610100049044773800626217712004904   1030000500030000   598320002104000015172200021MAX ENERGY             PTN           MMR11006260610100049040626000000000000000   10300001 00104100000000000540000000000000     
100   62443101093150400000000000024000000000024000002000000010410406260141260048364582240626217708004836   1030000500030000   598320002101000015172200021MAX ENERGY             PTN           MMR11006260141260048360626000000000000000   10300001 00104100000000002880000000000000     
100   95050312933828140000000000025273000000025273002000000010410406260539580007680901240626217712000768   1030000500030000   541120203806000015411202038CITY MART SUPERMARKET  PTN           MMR11006260539580007680626000000000000000   10300001 00104100000000006319000000000000     
100   95050313970192050000000000009250000000009250002000000010410406261302580001179006260626217719000117   1030000500030000   541120232801000045411202328CITY EXPRESS (MCS - 34 PTN           MMR11006261302580001170626000000000000000   10300001 00104100000000002313000000000000     
100   62911028202916630000000000022600000000022600002000000010410406270704289918734773800627217814991873   1040001600030000   591220000295000000010000283Shwe Ohh Pharmacy (39t Yangon        MMR11006270704289918730627000000000000000   10300001F00104100000000001356000000000000     
100   62911028202400660000000000038000000000038000002000000010410406270923199988594773800627217816998859   1040001600030000   569920000593000000010000468BOSSINI (Junction City Yangon        MMR11006270923199988590627000000000000000   10300001F00104100000000002280000000000000     
100   95050320531117320000000000200000000000200000002000000010410406240422410784867327190624217504078486   1030000600030000   554100000957315799420000480DENKO N.DAGON - 3      YANGON        MMR11006240422410784860624000000000000000   10300001 00104100000000024000000000000000     
100   95030306757281900000000000061322000000061322002000000010410406270612557868494773800627065421255177   1030000900030000   541119001221190110000000945City Mart TM C 6       YANGONONE     MMR11006270612557868490627000000000000000   10300001F00104100000000003679000000000000     
100   95050312933828140000000000015200000000015200002000000010410406260547330002409248750626217712000240   1030000500030000   541120203812000015411202038CITY MART SUPERMARKET  PTN           MMR11006260547330002400626000000000000000   10300001 00104100000000003800000000000000     
100   95050314365758940000000000006300000000006300002000000010410406261104440002465544890626217717000246   1030000500030000   541120203812000015411202038CITY MART SUPERMARKET  PTN           MMR11006261104440002460626000000000000000   10300001 00104100000000001575000000000000     
100   62911028202708080000000000040000000000040000002000000010410406261111560041414773800626217717004141   1030000500030000   598320002001000015172200020MAX ENERGY             PTN           MMR11006261111560041410626000000000000000   10300001 00104100000000001200000000000000     
100   62911028202417260000000000035000000000035000002000000010410406260448330064004773800626217711006400   1030000500030000   598320001401000015172200014MAX ENERGY             PTN           MMR11006260448330064000626000000000000000   10300001 00104100000000001050000000000000     
100   95030314001421450000000000237000000000237000002000000010410406260441210024814773800626217711002481   1030000500030000   531120156003000045311201560GAMONE PWINT           PTN           MMR11006260441210024810626000000000000000   10300001 00104100000000014220000000000000     
100   62911028202443730000000000020000000000020000002000000010410406260907350120454773800626217715012045   1030000500030000   598320001904000015172200019MAX ENERGY             PTN           MMR11006260907350120450626000000000000000   10300001 00104100000000000600000000000000     
100   62911028202421380000000000080100000000080100002000000010410406260526460094784773800626217711009478   1030000500030000   598320001903000015172200019MAX ENERGY             PTN           MMR11006260526460094780626000000000000000   10300001 00104100000000002403000000000000     
100   62911028202285900000000000040000000000040000002000000010410406260558410045934773800626217712004593   1030000500030000   598320001601000015172200016MAX ENERGY             PTN           MMR11006260558410045930626000000000000000   10300001 00104100000000001200000000000000     
100   62911028202312890000000000040001000000040001002000000010410406260631250043804773800626217713004380   1030000500030000   598320001602000015172200016MAX ENERGY             PTN           MMR11006260631250043800626000000000000000   10300001 00104100000000001200000000000000     
100   95030301100126550000000000032900000000032900002000000010410406260455210021594773800626217711002159   1030000500030000   531120156001000045311201560GAMONE PWINT           PTN           MMR11006260455210021590626000000000000000   10300001 00104100000000001974000000000000     
100   62443101037081820000000000102500000000102500002000000010410406261100130007652239920626217717000765   1030000500030000   541120129719000045411201297MAKRO MYANMAR          PTN           MMR11006261100130007650626000000000000000   10300001 00104100000000025625000000000000     
100   95050315017843630000000000001960000000001960002000000010410406270929075907177224950627000007398068   1020000200030000   333400010001204104000000281Myanmar Soft-Gate Tech Yangon        MMR11006270929075907170627000000000000000   10300001F05104100000000000412000000000000     
100   62911028202468080000000000113400000000113400002000000010410406260601470007214773800626217712000721   1030000500030000   541120129719000045411201297MAKRO MYANMAR          PTN           MMR11006260601470007210626000000000000000   10300001 00104100000000006804000000000000     
100   62911028202472440000000000035000000000035000002000000010410406261013450066614773800626217716006661   1030000500030000   598320001402000015172200014MAX ENERGY             PTN           MMR11006261013450066610626000000000000000   10300001 00104100000000001050000000000000     
100   95030301100124990000000000032600000000032600002000000010410406260634210005044773800626217713000504   1030000500030000   541120229002000045411202290CITY MART SUPERMARKET  PTN           MMR11006260634210005040626000000000000000   10300001 00104100000000001956000000000000     
100   95050326228858240000000000055580000000055580002000000010410406261211500055349346640626000352264585   1030000300030000   581200001801000000000001289CB BANK                SHWE KAUNG (S MMR11006261211500055340626000000000000000   10300001F00104100000000023622000000000000     
100   62911028202355870000000001000000000001000000002000000010410406270621215121994773800627000007396488   1030000600030000   333800010001230104000004564Trusty Wallet          Yangon        MMR11006270621215121990627000000000000000   10300001F05104100000000210000000000000000     
100   95050312539675540000000000000980000000000980002000000010410406270111524152309431740627000007394316   1020000200030000   333400010001204104000000281Myanmar Soft-Gate Tech Yangon        MMR11006270111524152300627000000000000000   10300001F05104100000000000206000000000000     
100   62911028202610540000000000012000000000012000002000000010410406260701030027024773800626217713002702   1030000500030000   569120104001008205691201040ESCORT ( CITY MALL-ST. PTN           MMR11006260701030027020626000000000000000   10300001 00104100000000000720000000000000     
100   62911028202221220000000000010000000000010000002000000010410406260053290043234773800626217707004323   1030000500030000   598320001602000015172200016MAX ENERGY             PTN           MMR11006260053290043230626000000000000000   10300001 00104100000000000300000000000000     
100   62443100371022130000000000025708000000025708002000000010410406260944280067115034310626217716006711   1030000500030000   598320001304000015172200013MAX ENERGY             PTN           MMR11006260944280067110626000000000000000   10300001 00104100000000003085000000000000     
100   95050320531117320000000000050000000000050000002000000010410406260858370051778594560626217715005177   1030000500030000   598320002701000015172200027MAX ENERGY             PTN           MMR11006260858370051770626000000000000000   10300001 00104100000000006000000000000000     
100   62911028202135350000000000042000000000042000002000000010410406260855100064424773800626217715006442   1030000500030000   598320001401000015172200014MAX ENERGY             PTN           MMR11006260855100064420626000000000000000   10300001 00104100000000001260000000000000     
100   62911028202668140000000000057013000000057013002000000010410406260021370066964773800626217706006696   1030000500030000   598320001004000015172200010MAX ENERGY             PTN           MMR11006260021370066960626000000000000000   10300001 00104100000000001710000000000000     
100   95050324622440820000000000038115000000038115002000000010410406260516550021436113970626217711002143   1030000500030000   581220021301000015812200213THAI 47                PTN           MMR11006260516550021430626000000000000000   10300001 00104100000000016199000000000000     
100   62911028202442250000000000032000000000032000002000000010410406260922230055374773800626217715005537   1030000500030000   598320001201000015172200012MAX ENERGY             PTN           MMR11006260922230055370626000000000000000   10300001 00104100000000000960000000000000     
100   62443100345308040000000000010000000000010000002000000010410406270624205420265857690627000007396514   1030000200030000   333800010001203104000003327KBZPay                 Yangon        MMR11006270624205420260627000000000000000   10300001F05104100000000002100000000000000     
100   62911028202355870000000000500000000000500000002000000010410406270620085008744773800627000007396478   1030000600030000   333800010001230104000004564Trusty Wallet          Yangon        MMR11006270620085008740627000000000000000   10300001F05104100000000105000000000000000     
100   95050315564078030000000000010000000000010000002000000010410406271457322732449544420627000007399724   1030000200030000   3338000100012031040000040022C2P (Myanmar) Co. Ltd Yangon        MMR11006271457322732440627000000000000000   10300001F05104100000000002100000000000000     
100   95050327416134790000000000000980000000000980002000000010410406271315424542269799700627000007399291   1020000200030000   333400010001204104000000281Myanmar Soft-Gate Tech Yangon        MMR11006271315424542260627000000000000000   10300001F05104100000000000206000000000000     
100   62911028202907560000000000025000000000025000002000000010410406260934140018464773800626217716001846   1030000500030000   598320002003000015172200020MAX ENERGY             PTN           MMR11006260934140018460626000000000000000   10300001 00104100000000000750000000000000     
100   95030301100124400000000000031000000000031000002000000010410406240413090694684773800624217504069468   1030000600030000   554100000952315799420000474DENKO N.DAGON - 1      YANGON        MMR11006240413090694680624000000000000000   10300001 00104100000000000930000000000000     
100   62911028202136750000000000042000000000042000002000000010410406240348220537394773800624217503053739   1030000600030000   554100001001315799420000498DENKO SHWE PYI THAR    YANGON        MMR11006240348220537390624000000000000000   10300001 00104100000000001260000000000000     
100   62911028202680670000000000024500000000024500002000000010410406241140540822544773800624217511082254   1030000600030000   554100000955315799420000477DENKO INSEIN           YANGON        MMR11006241140540822540624000000000000000   10300001 00104100000000000735000000000000     
100   62443101086752040000000000025000000000025000002000000010410406240749360293539001540624217507029353   1030000600030000   554100002085315799420000471DENKO BAHAN            YANGON        MMR11006240749360293530624000000000000000   10300001 00104100000000003000000000000000     
100   62443101093150400000000000050000000000050000002000000010410406240631440293235369970624217506029323   1030000600030000   554100002085315799420000471DENKO BAHAN            YANGON        MMR11006240631440293230624000000000000000   10300001 00104100000000006000000000000000     
100   95050324850150480000000000081000000000081000002000000010410406240135420305236220940624217501030523   1030000600030000   554100000725315799420000306DENKO MDY - 78         MANDALAY      MMR11006240135420305230624000000000000000   10300001 00104100000000009720000000000000     
100   62911028202696360000000000015000000000015000002000000010410406240515510821924773800624217505082192   1030000600030000   554100000955315799420000477DENKO INSEIN           YANGON        MMR11006240515510821920624000000000000000   10300001 00104100000000000450000000000000     
100   62443100311760720000000000050000000000050000002000000010410406231359060948890681600623217413094889   1030000600030000   554100000946315799420000471DENKO BAHAN            YANGON        MMR11006231359060948890623000000000000000   10300001 00104100000000006000000000000000     
100   62911028202045260000000000011750000000011750002000000010410406250946550001524773800625217616000152   1030000500030000   541120228001000045411202280CITY EXPRESS (MCS - 24 PTN           MMR11006250946550001520625000000000000000   10300001 00104100000000000705000000000000     
100   95050323349421940000000000014200000000014200002000000010410406251200210007269638580625217618000726   1030000500030000   531120155711000045311201557GAMONE PWINT           PTN           MMR11006251200210007260625000000000000000   10300001 00104100000000003408000000000000     
100   62911028202423360000000000020000000000020000002000000010410406261207190049524773800626217718004952   1030000500030000   598320002104000015172200021MAX ENERGY             PTN           MMR11006261207190049520626000000000000000   10300001 00104100000000000600000000000000     
100   95050314534800510000000000000985000000000985002000000010410406270247021702970282700627000007394592   1020000200030000   333400010001204104000000281Myanmar Soft-Gate Tech Yangon        MMR11006270247021702970627000000000000000   10300001F05104100000000000207000000000000     
100   95050327531396450000000000002940000000002940002000000010410406271352222222513189770627000007399449   1020000200030000   333400010001204104000000281Myanmar Soft-Gate Tech Yangon        MMR11006271352222222510627000000000000000   10300001F05104100000000000617000000000000     
100   62443100306028540000000000033005000000033005002000000010410406231300210291765894340623217413029176   1030000600030000   554100002085315799420000471DENKO BAHAN            YANGON        MMR11006231300210291760623000000000000000   10300001 00104100000000003961000000000000     
100   95050320335873810000000000000980000000000980002000000010410406270246551655375325250627000007394593   1020000200030000   333400010001204104000000281Myanmar Soft-Gate Tech Yangon        MMR11006270246551655370627000000000000000   10300001F05104100000000000206000000000000     
100   62911028202355870000000001000000000001000000002000000010410406270619504950794773800627000007396477   1030000600030000   333800010001230104000004564Trusty Wallet          Yangon        MMR11006270619504950790627000000000000000   10300001F05104100000000210000000000000000     
100   62443100363668680000000000074200000000074200002000000010410406260633269198081048570626217713919808   1040001600030000   541120000555000000010000465Ocean Shwe Gone Daing  Yangon        MMR11006260633269198080626000000000000000   10300001F00104100000000018550000000000000     
100   95050324622440820000000000015700000000015700002000000010410406260451520013088823270626217711001308   1030000500030000   541120227604000045411202276CITY MART ( 47 BRANCH  PTN           MMR11006260451520013080626000000000000000   10300001 00104100000000003925000000000000     
100   95050328082468580000000000005000000000005000002000000010410406270441071107874680130627000007395638   1030000200030000   333800010001203104000003327KBZPay                 Yangon        MMR11006270441071107870627000000000000000   10300001F05104100000000001050000000000000     
100   95050321232876860000000000057000000000057000002000000010410406241028380228555581540624217510022855   1030000600030000   554100001212315799420000664DENKO TA TAR OO        TA TAR OO     MMR11006241028380228550624000000000000000   10300001 00104100000000006840000000000000     
100   62911028202737450000000000093606000000093606002000000010410406271039560021064773800627000749102377   1030000200030000   541188001484000008000000399KBZ BANK               OCEAN SUPERCE MMR11006271039560021060627000000000000000   10300001 00104100000000005616000000000000     
100   95050325997730520000000000099000000000099000002000000010410406271001580012602607880627217817001260   1040001600030000   598320000321000000010000309PT Power Petrol Statio Yangon        MMR11006271001580012600627000000000000000   10300001F00104100000000011880000000000000     
100   62911028202400660000000000035951000000035951002000000010410406270929090308944773800627000749097569   1030000200030000   541188001042000008000000010KBZ BANK               MARKETPLACE - MMR11006270929090308940627000000000000000   10300001 00104100000000002157000000000000     
100   95050311736839760000000000000980000000000980002000000010410406270236460646895665640627000007394548   1020000200030000   333400010001204104000000281Myanmar Soft-Gate Tech Yangon        MMR11006270236460646890627000000000000000   10300001F05104100000000000206000000000000     
100   62911028202349600000000000009000000000009000002000000010410406270937500750944773800627000007398137   1030000200030000   3338000100012031040000040022C2P (Myanmar) Co. Ltd Yangon        MMR11006270937500750940627000000000000000   10300001F05104100000000001890000000000000     
100   95050319938772870000000000002940000000002940002000000010410406271247151715901452190627000007399144   1020000200030000   333400010001204104000000281Myanmar Soft-Gate Tech Yangon        MMR11006271247151715900627000000000000000   10300001F05104100000000000617000000000000     
100   95030317775603410000000000100000000000100000002000000010410406271046231623664773800627000007398578   1030000200030000   333800010001203104000003327KBZPay                 Yangon        MMR11006271046231623660627000000000000000   10300001F05104100000000021000000000000000     
100   95050319111666800000000000000980000000000980002000000010410406270946271627503664690627000007398239   1020000200030000   333400010001204104000000281Myanmar Soft-Gate Tech Yangon        MMR11006270946271627500627000000000000000   10300001F05104100000000000206000000000000     
100   95050321287849350000000000059950000000059950002000000010410406271139140105883118460627217818010588   1040001600030000   591220000292000000010000280Shwe Ohh Pharmacy (Cha Yangon        MMR11006271139140105880627000000000000000   10300001F00104100000000014388000000000000     
100   62911028202122480000000000042700000000042700002000000010410406271333210387204773800627000749118147   1030000200030000   541188001025000008000000298KBZ BANK               CITY MART - M MMR11006271333210387200627000000000000000   10300001 00104100000000002562000000000000     
100   95050312539675540000000000000980000000000980002000000010410406270547471747477921790627000007396193   1020000200030000   333400010001204104000000281Myanmar Soft-Gate Tech Yangon        MMR11006270547471747470627000000000000000   10300001F05104100000000000206000000000000     
100   62443100345308040000000000005000000000005000002000000010410406270850082008606714370627000007397740   1030000200030000   333800010001203104000003327KBZPay                 Yangon        MMR11006270850082008600627000000000000000   10300001F05104100000000001050000000000000     
100   95050327416134790000000000004900000000004900002000000010410406270446081608126417710627000007395695   1020000200030000   333400010001204104000000281Myanmar Soft-Gate Tech Yangon        MMR11006270446081608120627000000000000000   10300001F05104100000000001029000000000000     
100   62911028202471860000000000050550000000050550002000000010410406271041340048084773800627217817004808   1040001600030000   591220000278000000010000266Shwe Ohh Pharmacy (Bah Yangon        MMR11006271041340048080627000000000000000   10300001F00104100000000003033000000000000     
100   95050316949180000000000000000980000000000980002000000010410406270435380538671630460627000007395595   1020000200030000   333400010001204104000000281Myanmar Soft-Gate Tech Yangon        MMR11006270435380538670627000000000000000   10300001F05104100000000000206000000000000     
100   95050312539675540000000000001960000000001960002000000010410406270538470847896439490627000007396116   1020000200030000   333400010001204104000000281Myanmar Soft-Gate Tech Yangon        MMR11006270538470847890627000000000000000   10300001F05104100000000000412000000000000     
100   95050314567755980000000000002940000000002940002000000010410406271237360736541210690627000007399110   1020000200030000   333400010001204104000000281Myanmar Soft-Gate Tech Yangon        MMR11006271237360736540627000000000000000   10300001F05104100000000000617000000000000     
100   62911028202473430000000000006070000000006070002000000010410406271530380201104773800627000749127354   1030000200030000   541188001082000008000000294KBZ BANK               CITY MART - J MMR11006271530380201100627000000000000000   10300001 00104100000000000364000000000000     
100   95050319938772870000000000000980000000000980002000000010410406271245471547723104670627000007399137   1020000200030000   333400010001204104000000281Myanmar Soft-Gate Tech Yangon        MMR11006271245471547720627000000000000000   10300001F05104100000000000206000000000000     
100   95050322426452690000000000068550000000068550002000000010410406271158080125297735530627217818012529   1040001600030000   598320000320000000010000308PT Power Petrol Statio Yangon        MMR11006271158080125290627000000000000000   10300001F00104100000000008226000000000000     
100   62911028202400660000000000067750000000067750002000000010410406270927270185144773800627000749097490   1030000200030000   541188001049000008000000010KBZ BANK               MARKETPLACE - MMR11006270927270185140627000000000000000   10300001 00104100000000004065000000000000     
100   95050310427855490000000000002940000000002940002000000010410406270443331333263027650627000007395663   1020000200030000   333400010001204104000000281Myanmar Soft-Gate Tech Yangon        MMR11006270443331333260627000000000000000   10300001F05104100000000000617000000000000     
100   62911028202473430000000000006900000000006900002000000010410406271534460109094773800627000749127611   1030000200030000   541188001088000008000000294KBZ BANK               CITY MART - J MMR11006271534460109090627000000000000000   10300001 00104100000000000414000000000000     
100   95050324247403260000000000018000000000018000002000000010410406271600150191875146990627000749129035   1030000200030000   541188001126000008000000296KBZ BANK               CITY MART - J MMR11006271600150191870627000000000000000   10300001 00104100000000004500000000000000     
100   95050315259054570000000000000980000000000980002000000010410406270533500350498091980627000007396081   1020000200030000   333400010001204104000000281Myanmar Soft-Gate Tech Yangon        MMR11006270533500350490627000000000000000   10300001F05104100000000000206000000000000     
100   95050314996291580000000000001960000000001960002000000010410406271338210821679884800627000007399393   1020000200030000   333400010001204104000000281Myanmar Soft-Gate Tech Yangon        MMR11006271338210821670627000000000000000   10300001F05104100000000000412000000000000     
100   95050318617855880000000000002940000000002940002000000010410406270541281128352964340627000007396135   1020000200030000   333400010001204104000000281Myanmar Soft-Gate Tech Yangon        MMR11006270541281128350627000000000000000   10300001F05104100000000000617000000000000     
100   95050313168701670000000000001960000000001960002000000010410406271350232023548232320627000007399439   1020000200030000   333400010001204104000000281Myanmar Soft-Gate Tech Yangon        MMR11006271350232023540627000000000000000   10300001F05104100000000000412000000000000     
100   62911028202221220000000000021790000000021790002000000010410406270804130135444773800627000749094937   1030000200030000   541188001002000008000000008KBZ BANK               MARKETPLACE - MMR11006270804130135440627000000000000000   10300001 00104100000000001307000000000000     
100   95050319156011610000000000000980000000000980002000000010410406270831540154404976790627000007397578   1020000200030000   333400010001204104000000281Myanmar Soft-Gate Tech Yangon        MMR11006270831540154400627000000000000000   10300001F05104100000000000206000000000000     
100   95050314893649800000000000002940000000002940002000000010410406270934180418643494500627000007398110   1020000200030000   333400010001204104000000281Myanmar Soft-Gate Tech Yangon        MMR11006270934180418640627000000000000000   10300001F05104100000000000617000000000000     
100   95050312224678430000000000000980000000000980002000000010410406270346431643048956820627000007395143   1020000200030000   333400010001204104000000281Myanmar Soft-Gate Tech Yangon        MMR11006270346431643040627000000000000000   10300001F05104100000000000206000000000000     
100   95050321057500320000000000000980000000000980002000000010410406270249581958532020280627000007394611   1020000200030000   333400010001204104000000281Myanmar Soft-Gate Tech Yangon        MMR11006270249581958530627000000000000000   10300001F05104100000000000206000000000000     
100   95050310427855490000000000001960000000001960002000000010410406261730530053533077090627000007394032   1020000200030000   333400010001204104000000281Myanmar Soft-Gate Tech Yangon        MMR11006261730530053530627000000000000000   10300001F05104100000000000412000000000000     
100   95050310332595380000000000000980000000000980002000000010410406270707243724484715780627000007396849   1020000200030000   333400010001204104000000281Myanmar Soft-Gate Tech Yangon        MMR11006270707243724480627000000000000000   10300001F05104100000000000206000000000000     
