100   62911028202773650000000000300000000000300000002000000010410406281155182518144773800628000007405100   1030000200030000   333800010001203104000003327KBZPay                 Yangon        MMR11006281155182518140628000000000000000   10300001F05104100000000063000000000000000     
100   95050310427855490000000000000980000000000980002000000010410406280049301930313530150628000007400463   1020000200030000   333400010001204104000000281Myanmar Soft-Gate Tech Yangon        MMR11006280049301930310628000000000000000   10300001F05104100000000000206000000000000     
100   95050323722449090000000000004409000000004409002000000010410406281556412641963571520628000007406071   1020000200030000   333400010001204104000000281Myanmar Soft-Gate Tech Yangon        MMR11006281556412641960628000000000000000   10300001F05104100000000000926000000000000     
100   62911028202773650000000000100000000000100000002000000010410406281200553055264773800628000007405134   1030000200030000   333800010001203104000003327KBZPay                 Yangon        MMR11006281200553055260628000000000000000   10300001F05104100000000021000000000000000     
100   95050315743141220000000000000980000000000980002000000010410406281259352935337848200628000007405389   1020000200030000   333400010001204104000000281Myanmar Soft-Gate Tech Yangon        MMR11006281259352935330628000000000000000   10300001F05104100000000000206000000000000     
100   62911028202154800000000000060000000000060000002000000010410406270804299946284773800627217815994628   1040001600030000   598320000856000000010000609Terminal Petrol Statio Yangon        MMR11006270804299946280627000000000000000   10300001F00104100000000001800000000000000     
100   95050316818236190000000000000980000000000980002000000010410406281242271227223231140628000007405310   1020000200030000   333400010001204104000000281Myanmar Soft-Gate Tech Yangon        MMR11006281242271227220628000000000000000   10300001F05104100000000000206000000000000     
100   95050312539675540000000000004900000000004900002000000010410406281048571857364373040628000007404786   1020000200030000   333400010001204104000000281Myanmar Soft-Gate Tech Yangon        MMR11006281048571857360628000000000000000   10300001F05104100000000001029000000000000     
100   95050327022536610000000000038500000000038500002000000010410406281018544854112295080628000007404603   1030000200030000   3333000100012031040000040282C2P (Myanmar) Co. Ltd Yangon        MMR11006281018544854110628000000000000000   10300001F05104100000000010000000000000000     
100   62443100379321630000000000023300000000023300002000000010410406280913218173282544650628244431521178   1030000900030000   581419001388190110000000993Yuki Mugi Phone Sein   YANGON        MMR11006280913218173280628000000000000000   10300001F00104100000000002796000000000000     
100   95050322823372070000000000040000000000040000002000000010410406280936308180615679430628609061630178   1030000900030000   554119000348190110000000215New Day Energy MYG     YANGONONE     MMR11006280936308180610628000000000000000   10300001F00104100000000004800000000000000     
100   95050315066440750000000000000980000000000980002000000010410406281113464346322805660628000007404893   1020000200030000   333400010001204104000000281Myanmar Soft-Gate Tech Yangon        MMR11006281113464346320628000000000000000   10300001F05104100000000000206000000000000     
100   62911028202773650000000000300000000000300000002000000010410406281107013701934773800628000007404871   1030000200030000   333800010001203104000003327KBZPay                 Yangon        MMR11006281107013701930628000000000000000   10300001F05104100000000063000000000000000     
100   62443100395250310000000000000980000000000980002000000010410406281312254225381238270628000007405431   1020000200030000   333400010001204104000000281Myanmar Soft-Gate Tech Yangon        MMR11006281312254225380628000000000000000   10300001F05104100000000000206000000000000     
100   62911028202355870000000001000000000001000000002000000010410406280807333733914773800628000007403513   1030000600030000   333800010001230104000004564Trusty Wallet          Yangon        MMR11006280807333733910628000000000000000   10300001F05104100000000210000000000000000     
100   62443100395250310000000000000980000000000980002000000010410406281309223922572890750628000007405426   1020000200030000   333400010001204104000000281Myanmar Soft-Gate Tech Yangon        MMR11006281309223922570628000000000000000   10300001F05104100000000000206000000000000     
100   62443101065883000000000000010000000000010000002000000010410406280517304730408778550628000007402116   1030000300030000   333300010001206104000002147DICA Company Limited   Yangon        MMR11006280517304730400628000000000000000   10300001F05104100000000010000000000000000     
100   95050314570621780000000000000980000000000980002000000010410406280014494449827977030628000007400404   1020000200030000   333400010001204104000000281Myanmar Soft-Gate Tech Yangon        MMR11006280014494449820628000000000000000   10300001F05104100000000000206000000000000     
100   95050316717221100000000000001960000000001960002000000010410406280320165016699423670628000007401064   1020000200030000   333400010001204104000000281Myanmar Soft-Gate Tech Yangon        MMR11006280320165016690628000000000000000   10300001F05104100000000000412000000000000     
100   95030346645639490000000000016000000000016000002000000010410406280320098080944773800628619500909178   1030000900030000   591219000601190110000000441Shwe Ohh Pharmacy St-3 YANGON        MMR11006280320098080940628000000000000000   10300001F00104100000000000960000000000000     
100   95030306757281900000000000040200000000040200002000000010410406280445208099844773800628489151120178   1030000900030000   541119001218190110000000945City Mart TM C 3       YANGONONE     MMR11006280445208099840628000000000000000   10300001F00104100000000002412000000000000     
100   95050316818236190000000000000980000000000980002000000010410406281212124212726451010628000007405180   1020000200030000   333400010001204104000000281Myanmar Soft-Gate Tech Yangon        MMR11006281212124212720628000000000000000   10300001F05104100000000000206000000000000     
100   95050315615561720000000000000980000000000980002000000010410406281620535053481919040628000007406129   1020000200030000   333400010001204104000000281Myanmar Soft-Gate Tech Yangon        MMR11006281620535053480628000000000000000   10300001F05104100000000000206000000000000     
100   95030315490490030000000000120000000000120000002000000010410406281223035303944773800628000007405225   1030000200030000   333800010001203104000003327KBZPay                 Yangon        MMR11006281223035303940628000000000000000   10300001F05104100000000025200000000000000     
100   95050322312197120000000000027800000000027800002000000010410406261024200006877367570626217716000687   1030000500030000   541120203902000015411202039NEIGHBOURHOOD          PTN           MMR11006261024200006870626000000000000000   10300001 00104100000000006950000000000000     
100   62911028202221220000000000003500000000003500002000000010410406260109370081194773800626217701008119   1030000600030000   549900002153315799420001502EASY MART- 003         YANGON        MMR11006260109370081190626000000000000000   10300001 00104100000000000357000000000000     
100   95030323359444150000000000101000000000101000002000000010410406260148500112824773800626217701011282   1030000600030000   554100002318315799420000510DENKO AUNG SAN         YANGON        MMR11006260148500112820626000000000000000   10300001 00104100000000003030000000000000     
100   62911028202559990000000000030000000000030000002000000010410406220759050006894773800622217314000689   1030000500030000   598320198202000075983201982MOON SUN NORTH OKKALAP PTN           MMR11006220759050006890622000000000000000   10300001 00104100000000000900000000000000     
100   62911028202919290000000000020000000000020000002000000010410406241108440211434773800624217511021143   1030000600030000   554100002323315799420000474DENKO N.DAGON - 1      YANGON        MMR11006241108440211430624000000000000000   10300001 00104100000000000600000000000000     
100   95030301100126550000000000034000000000034000002000000010410406241141090211474773800624217511021147   1030000600030000   554100002323315799420000474DENKO N.DAGON - 1      YANGON        MMR11006241141090211470624000000000000000   10300001 00104100000000001020000000000000     
100   62911028202010500000000000066500000000066500002000000010410406250943440013584773800625217609001358   1030000600030000   809900002338315799420001623CLINIQUE DE SKIN HLG   YANGON        MMR11006250943440013580625000000000000000   10300001 00104100000000003990000000000000     
100   95030380157605420000000000093000000000093000002000000010410406251133150076864773800625217611007686   1030000600030000   554100001252315799420000706DENKO MONEYWAR - 2     MONEYWAR      MMR11006251133150076860625000000000000000   10300001 00104100000000002790000000000000     
100   62911028202031710000000000035000000000035000002000000010410406280243208073594773800628298130920178   1030000900030000   554119001101190110000000213New Day Energy SOK     YANGONOKKALAP MMR11006280243208073590628000000000000000   10300001F00104100000000001050000000000000     
100   95050319709462380000000000003000000000003000002000000010410406280316594659924296020628000007401032   1030000200030000   3338000100012031040000040022C2P (Myanmar) Co. Ltd Yangon        MMR11006280316594659920628000000000000000   10300001F05104100000000000630000000000000     
100   62443101065883000000000000010000000000010000002000000010410406280512144214563821100628000007402074   1030000300030000   333300010001206104000002147DICA Company Limited   Yangon        MMR11006280512144214560628000000000000000   10300001F05104100000000010000000000000000     
100   95050316311487940000000000100000000000100000002000000010410406281223175317818188590628000007405226   1030000200030000   333800010001203104000003327KBZPay                 Yangon        MMR11006281223175317810628000000000000000   10300001F05104100000000021000000000000000     
100   95050320624349010000000000030000000000030000002000000010410406280213278069050735760628134430827178   1030000900030000   554119001101190110000000213New Day Energy SOK     YANGONOKKALAP MMR11006280213278069050628000000000000000   10300001F00104100000000003600000000000000     
100   95050319216089110000000000004050000000004050002000000010410406280602258122270856510628703321225178   1030000900030000   541119001275190110000000962Myanmar Fresh Mart     YANGONNGKUUN  MMR11006280602258122270628000000000000000   10300001F00104100000000001013000000000000     
100   62911028202290100000000000072000000000072000002000000010410406280427518095414773800628267571051178   1030000900030000   554119000347190110000000214New Day Energy MTN     YANGONARTAUNG MMR11006280427518095410628000000000000000   10300001F00104100000000002160000000000000     
100   62443101083052160000000000096450000000096450002000000010410406281349048250384713430628565192004178   1030000900030000   581219000368190110000000241Beauty In The Pot (PHS YANGON        MMR11006281349048250380628000000000000000   10300001F00104100000000040992000000000000     
100   95050321232876860000000000115000000000115000002000000010410406250943300152198617420625217609015219   1030000600030000   554100002328315799420001235DENKO NAY PYI TAW 2    NAYPYITAW     MMR11006250943300152190625000000000000000   10300001 00104100000000013800000000000000     
100   62911028202366010000000000113000000000113000002000000010410406250952240152224773800625217609015222   1030000600030000   554100002328315799420001235DENKO NAY PYI TAW 2    NAYPYITAW     MMR11006250952240152220625000000000000000   10300001 00104100000000003390000000000000     
100   62911028202115960000000000037000000000037000002000000010410406251004220296324773800625217610029632   1030000600030000   554100002085315799420000471DENKO BAHAN            YANGON        MMR11006251004220296320625000000000000000   10300001 00104100000000001110000000000000     
100   95050324247403260000000000051000000000051000002000000010410406250307450538463879610625217603053846   1030000600030000   554100001001315799420000498DENKO SHWE PYI THAR    YANGON        MMR11006250307450538460625000000000000000   10300001 00104100000000006120000000000000     
100   62443100390038980000000000042700000000042700002000000010410406251315270027994510940625217613002799   1030000600030000   581200000709315799420000291BULGOGI BROTHERSKOREAN YANGON        MMR11006251315270027990625000000000000000   10300001 00104100000000018148000000000000     
100   62911028202197630000000000007000000000007000002000000010410406250758560257554773800625217607025755   1030000600030000   554100002319315799420000477DENKO INSEIN           YANGON        MMR11006250758560257550625000000000000000   10300001 00104100000000000210000000000000     
100   62911028202248050000000000040000000000040000002000000010410406250505510387794773800625217605038779   1030000600030000   554100001155315799420000607DENKO NPT 1            NAYPYITAW.    MMR11006250505510387790625000000000000000   10300001 00104100000000001200000000000000     
100   95030301100126550000000000041000000000041000002000000010410406260732280180794773800626217707018079   1030000600030000   554100002324315799420000481DENKO NORTH OKKALAPA   YANGON        MMR11006260732280180790626000000000000000   10300001 00104100000000001230000000000000     
100   62911028202708080000000000300000000000300000002000000010410406280911534153604773800628000007404052   1030000200030000   333800010001203104000003327KBZPay                 Yangon        MMR11006280911534153600628000000000000000   10300001F05104100000000063000000000000000     
100   95050318699187280000000000005500000000005500002000000010410406281528315831328614070628000007405922   1030000500030000   333800010001201104000003236Paymal                 Yangon        MMR11006281528315831320628000000000000000   10300001F05104100000000001155000000000000     
100   62443100300412100000000000513116000000513116002000000010410406280712538141684913560628699421353178   1030000900030000   701119000074190110000000024Lotte Hotel            YANGON        MMR11006280712538141680628000000000000000   10300001F00104100000000218075000000000000     
100   95050324247403260000000000053850000000053850002000000010410406281027328196563692270628437571632178   1030000900030000   541119000286190110000000177Pro1 Global (Insein)   YANGON        MMR11006281027328196560628000000000000000   10300001F00104100000000013463000000000000     
100   95050315066440750000000000000980000000000980002000000010410406281107103710772720560628000007404863   1020000200030000   333400010001204104000000281Myanmar Soft-Gate Tech Yangon        MMR11006281107103710770628000000000000000   10300001F05104100000000000206000000000000     
100   62911028202788350000000000020000000000020000002000000010410406281126055605854773800628000007404956   1030000200030000   333800010001203104000003327KBZPay                 Yangon        MMR11006281126055605850628000000000000000   10300001F05104100000000004200000000000000     
100   62911028202355870000000000500000000000500000002000000010410406280523185318184773800628000007402181   1030000600030000   333800010001230104000004564Trusty Wallet          Yangon        MMR11006280523185318180628000000000000000   10300001F05104100000000105000000000000000     
100   95050312695033440000000000000980000000000980002000000010410406280820035003675424130628000007403616   1020000200030000   333400010001204104000000281Myanmar Soft-Gate Tech Yangon        MMR11006280820035003670628000000000000000   10300001F05104100000000000206000000000000     
100   62443100300412100000000000063000000000063000002000000010410406260429380297884121110626217704029788   1030000600030000   554100002085315799420000471DENKO BAHAN            YANGON        MMR11006260429380297880626000000000000000   10300001 00104100000000007560000000000000     
100   95030323161862590000000000103000000000103000002000000010410406260620120954364773800626217706095436   1030000600030000   554100000946315799420000471DENKO BAHAN            YANGON        MMR11006260620120954360626000000000000000   10300001 00104100000000003090000000000000     
100   95050316785465380000000000009000000000009000002000000010410406280946300048064210930628000749153857   1030000200030000   541188001463000008000000391KBZ BANK               OCEAN SUPER C MMR11006280946300048060628000000000000000   10300001 00104100000000002250000000000000     
100   62911028202151910000000000042250000000042250002000000010410406280317230042844773800628000749153919   1030000200030000   581288000098000008000003562KBZ BANK               CANTON PARADI MMR11006280317230042840628000000000000000   10300001 00104100000000004310000000000000     
100   95050315005801680000000000002940000000002940002000000010410406280230220022962132960628000007400731   1020000200030000   333400010001204104000000281Myanmar Soft-Gate Tech Yangon        MMR11006280230220022960628000000000000000   10300001F05104100000000000617000000000000     
100   62911028202116950000000000002700000000002700002000000010410406281151460264664773800628000749164075   1030000200030000   541188001059000008000000314KBZ BANK               MARKETPLACE - MMR11006281151460264660628000000000000000   10300001 00104100000000000162000000000000     
100   95030301100081330000000000053000000000053000002000000010410406280043170433084773800628217907043308   1040001600030000   598320000317000000010000305PT Power Petrol Statio Yangon        MMR11006280043170433080628000000000000000   10300001F00104100000000001590000000000000     
100   62443100399918110000000000039840000000039840002000000010410406281442480101290381590628000749178988   1030000200030000   541188001062000008000000314KBZ BANK               MARKETPLACE - MMR11006281442480101290628000000000000000   10300001 00104100000000009960000000000000     
100   95050312641885210000000000000980000000000980002000000010410406281217344734566536100628000007405209   1020000200030000   333400010001204104000000281Myanmar Soft-Gate Tech Yangon        MMR11006281217344734560628000000000000000   10300001F05104100000000000206000000000000     
100   95050317100052460000000000000980000000000980002000000010410406281011574157092209980628000007404560   1020000200030000   333400010001204104000000281Myanmar Soft-Gate Tech Yangon        MMR11006281011574157090628000000000000000   10300001F05104100000000000206000000000000     
100   62911028202355870000000001000000000001000000002000000010410406280522495249984773800628000007402178   1030000600030000   333800010001230104000004564Trusty Wallet          Yangon        MMR11006280522495249980628000000000000000   10300001F05104100000000210000000000000000     
100   95050319006804440000000000000980000000000980002000000010410406281020305030520642590628000007404609   1020000200030000   333400010001204104000000281Myanmar Soft-Gate Tech Yangon        MMR11006281020305030520628000000000000000   10300001F05104100000000000206000000000000     
100   95050317100052460000000000001200000000001200002000000010410406281024205420175600050628000007404641   1030000200030000   333800010001203104000003327KBZPay                 Yangon        MMR11006281024205420170628000000000000000   10300001F05104100000000000252000000000000     
100   95030367537085740000000000000980000000000980002000000010410406280217564756334773800628000007400682   1020000200030000   333400010001204104000000281Myanmar Soft-Gate Tech Yangon        MMR11006280217564756330628000000000000000   10300001F05104100000000000206000000000000     
100   62443100330108240000000000001960000000001960002000000010410406281326165616602975850628000007405489   1020000200030000   333400010001204104000000281Myanmar Soft-Gate Tech Yangon        MMR11006281326165616600628000000000000000   10300001F05104100000000000412000000000000     
100   62911028202355870000000001000000000001000000002000000010410406280523075307374773800628000007402183   1030000600030000   333800010001230104000004564Trusty Wallet          Yangon        MMR11006280523075307370628000000000000000   10300001F05104100000000210000000000000000     
100   62911028202473430000000000084750000000084750002000000010410406280334250518854773800628217910051885   1040001600030000   591220000296000000010000284Shwe Ohh Pharmacy (Lan Yangon        MMR11006280334250518850628000000000000000   10300001F00104100000000005085000000000000     
100   62911028202308280000000000015750000000015750002000000010410406281005030728854773800628217917072885   1040001600030000   581420001161000000010000871Kin Sakura (Bo Aung Ky ygn           MMR11006281005030728850628000000000000000   10300001F00104100000000000473000000000000     
100   62443100318296470000000000021850000000021850002000000010410406281820050152789245400628000749190825   1030000200030000   541188001023000008000000298KBZ BANK               CITY MART - M MMR11006281820050152780628000000000000000   10300001 00104100000000005463000000000000     
100   62911028202440680000000000005350000000005350002000000010410406281933240152894773800628000749193446   1030000200030000   541188001023000008000000298KBZ BANK               CITY MART - M MMR11006281933240152890628000000000000000   10300001 00104100000000000321000000000000     
100   62911028202116950000000000003800000000003800002000000010410406281155060068384773800628000749164313   1030000200030000   541188001072000008000000314KBZ BANK               MARKETPLACE - MMR11006281155060068380628000000000000000   10300001 00104100000000000228000000000000     
100   95050314791376690000000000002940000000002940002000000010410406280534290429341111800628000007402296   1020000200030000   333400010001204104000000281Myanmar Soft-Gate Tech Yangon        MMR11006280534290429340628000000000000000   10300001F05104100000000000617000000000000     
100   95050316067768680000000000000980000000000980002000000010410406281231020102418273690628000007405257   1020000200030000   333400010001204104000000281Myanmar Soft-Gate Tech Yangon        MMR11006281231020102410628000000000000000   10300001F05104100000000000206000000000000     
100   62911028202473430000000000007500000000007500002000000010410406280907360131104773800628000749151988   1030000200030000   541188001081000008000000294KBZ BANK               CITY MART - J MMR11006280907360131100628000000000000000   10300001 00104100000000000450000000000000     
100   95050310332595380000000000000980000000000980002000000010410406280122545254612047860628000007400521   1020000200030000   333400010001204104000000281Myanmar Soft-Gate Tech Yangon        MMR11006280122545254610628000000000000000   10300001F05104100000000000206000000000000     
100   95050318988837600000000000014670000000014670002000000010410406280930328179013941850628539001632178   1030000900030000   541119000124190110000000080Sein Gay Har BAK       YANGONADA     MMR11006280930328179010628000000000000000   10300001F00104100000000003668000000000000     
100   62911028202304970000000000008350000000008350002000000010410406280901218169924773800628077311521178   1030000900030000   541119001262190110000000958City Mart PLST C 5     YANGONMYOTHIT MMR11006280901218169920628000000000000000   10300001F00104100000000000501000000000000     
100   95050310332595380000000000000980000000000980002000000010410406280509453945373736000628000007402059   1020000200030000   333400010001204104000000281Myanmar Soft-Gate Tech Yangon        MMR11006280509453945370628000000000000000   10300001F05104100000000000206000000000000     
100   95050316311487940000000000050000000000050000002000000010410406281224245424179926170628000007405234   1030000200030000   333800010001203104000003327KBZPay                 Yangon        MMR11006281224245424170628000000000000000   10300001F05104100000000010500000000000000     
100   62911028202355870000000001000000000001000000002000000010410406280524275427684773800628000007402193   1030000600030000   333800010001230104000004564Trusty Wallet          Yangon        MMR11006280524275427680628000000000000000   10300001F05104100000000210000000000000000     
100   95050312498129060000000000004900000000004900002000000010410406281217094709314798520628000007405207   1020000200030000   333400010001204104000000281Myanmar Soft-Gate Tech Yangon        MMR11006281217094709310628000000000000000   10300001F05104100000000001029000000000000     
100   95050317003064220000000000002940000000002940002000000010410406280816204620568729100628000007403591   1020000200030000   333400010001204104000000281Myanmar Soft-Gate Tech Yangon        MMR11006280816204620560628000000000000000   10300001F05104100000000000617000000000000     
100   62911028202530930000000000274800000000274800002000000010410406280630480616094773800628217913061609   1040001600030000   591220000299000000010000287Shwe Ohh Pharmacy (Yan Yangon        MMR11006280630480616090628000000000000000   10300001F00104100000000016488000000000000     
100   95050323133124350000000000001960000000001960002000000010410406280333120312201317650628000007401218   1020000200030000   333400010001204104000000281Myanmar Soft-Gate Tech Yangon        MMR11006280333120312200628000000000000000   10300001F05104100000000000412000000000000     
100   62911028202289130000000000100750000000100750002000000010410406280240070495084773800628217909049508   1040001600030000   591220000280000000010000268Shwe Ohh Pharmacy (Naw Yangon        MMR11006280240070495080628000000000000000   10300001F00104100000000006045000000000000     
100   62911028202231380000000000006090000000006090002000000010410406280821460668834773800628217915066883   1040001600030000   581420000655000000010000524Little Boss Dumplings  Ygn           MMR11006280821460668830628000000000000000   10300001F00104100000000000183000000000000     
100   62911028202151910000000000084472000000084472002000000010410406281051220136254773800628000749158734   1030000200030000   541188001002000008000000008KBZ BANK               MARKETPLACE - MMR11006281051220136250628000000000000000   10300001 00104100000000005068000000000000     
100   62911028202423360000000000005600000000005600002000000010410406271014530006854773800627217816000685   1030000500030000   531120226738000045311202267OCEAN NORTH POINT      PTN           MMR11006271014530006850627000000000000000   10300001 00104100000000000336000000000000     
100   62911028202245730000000000221066000000221066002000000010410406270623470015804773800627217812001580   1030000500030000   541120226806000045411202268CITY MART WAIZAYANDA   PTN           MMR11006270623470015800627000000000000000   10300001 00104100000000013264000000000000     
100   62911028202668140000000000061000000000061000002000000010410406271020440016184773800627217816001618   1030000500030000   598320001001000015172200010MAX ENERGY             PTN           MMR11006271020440016180627000000000000000   10300001 00104100000000001830000000000000     
100   62911028202355870000000000500000000000500000002000000010410406280524065406004773800628000007402189   1030000600030000   333800010001230104000004564Trusty Wallet          Yangon        MMR11006280524065406000628000000000000000   10300001F05104100000000105000000000000000     
100   95050316601084530000000000000980000000000980002000000010410406281029425942388990110628000007404677   1020000200030000   333400010001204104000000281Myanmar Soft-Gate Tech Yangon        MMR11006281029425942380628000000000000000   10300001F05104100000000000206000000000000     
100   95030317922148660000000000030000000000030000002000000010410406280919458175514773800628361491545178   1030000900030000   554119000348190110000000215New Day Energy MYG     YANGONONE     MMR11006280919458175510628000000000000000   10300001F00104100000000000900000000000000     
100   95050316818236190000000000000980000000000980002000000010410406281009513951927252530628000007404538   1020000200030000   333400010001204104000000281Myanmar Soft-Gate Tech Yangon        MMR11006281009513951920628000000000000000   10300001F05104100000000000206000000000000     
100   95050317376014640000000000000980000000000980002000000010410406280314314431177941370628000007401010   1020000200030000   333400010001204104000000281Myanmar Soft-Gate Tech Yangon        MMR11006280314314431170628000000000000000   10300001F05104100000000000206000000000000     
100   62911028202423360000000000030000000000030000002000000010410406250255390823024773800625217602082302   1030000600030000   554100000955315799420000477DENKO INSEIN           YANGON        MMR11006250255390823020625000000000000000   10300001 00104100000000000900000000000000     
100   95030390626214130000000000040000000000040000002000000010410406250415250259994773800625217604025999   1030000600030000   554100001118315799420000576DENKO THAN HLYIN - 2   THAN HLYIN    MMR11006250415250259990625000000000000000   10300001 00104100000000001200000000000000     
100   62911028202490830000000000300000000000300000002000000010410406270639520018384773800627217813001838   1030000500030000   806220046404006308062200464ASIA ROYAL HOSPITAL    PTN           MMR11006270639520018380627000000000000000   10300001 00104100000000018000000000000000     
100   95050313970192050000000000010400000000010400002000000010410406270611480001230971470627217812000123   1030000500030000   541120232801000045411202328CITY EXPRESS (MCS - 34 PTN           MMR11006270611480001230627000000000000000   10300001 00104100000000002600000000000000     
100   62443100395964530000000000049750000000049750002000000010410406271713130002942437690627000749132902   1030000200030000   594988001615000008000000543KBZ BANK               PANDORA ( BAH MMR11006271713130002940627000000000000000   10300001 00104100000000011940000000000000     
100   95050329888918380000000000015200000000015200002000000010410406270833070017183324310627217815001718   1030000500030000   531120226306000045311202263OCEAN SUPER CENTER STJ PTN           MMR11006270833070017180627000000000000000   10300001 00104100000000003648000000000000     
100   62911028202045260000000000018500000000018500002000000010410406271017050003074773800627217816000307   1030000500030000   541120229201000045411202292CITY EXPRESS (MCS - 07 PTN           MMR11006271017050003070627000000000000000   10300001 00104100000000001110000000000000     
100   95030308100042590000000001290000000001290000002000000010410406270640490003134773800627217813000313   1030000500030000   503920054001005505039200540NAY LA CONSTRUCTION MA PTN           MMR11006270640490003130627000000000000000   10300001 00104100000000077400000000000000     
100   95050322990383760000000000002000000000002000002000000010410406271009260002227650430627217816000222   1030000500030000   541120203712000015411202037CITY MART SUPERMARKET  PTN           MMR11006271009260002220627000000000000000   10300001 00104100000000000500000000000000     
100   95050316355723530000000000004300000000004300002000000010410406270940430006591927110627000352413352   1030000300030000   541100001050000000000000747CB BANK                ONE STOP MART MMR11006270940430006590627000000000000000   10300001F00104100000000001075000000000000     
100   95050314324254410000000000010000000000010000002000000010410406271136150025581465980627217818002558   1030000500030000   531120156003000045311201560GAMONE PWINT           PTN           MMR11006271136150025580627000000000000000   10300001 00104100000000002400000000000000     
100   62911028202366010000000000107900000000107900002000000010410406260526520406664773800626217705040666   1030000600030000   554100001865315799420001235DENKO NAY PYI TAW 2    NAYPYITAW     MMR11006260526520406660626000000000000000   10300001 00104100000000003237000000000000     
100   62911028202112400000000000023005000000023005002000000010410406270330510044444773800627217810004444   1030000500030000   598320001602000015172200016MAX ENERGY             PTN           MMR11006270330510044440627000000000000000   10300001 00104100000000000690000000000000     
100   62911028202448030000000000045000000000045000002000000010410406270708010066774773800627217813006677   1030000500030000   598320001204000015172200012MAX ENERGY             PTN           MMR11006270708010066770627000000000000000   10300001 00104100000000001350000000000000     
100   62443100355445150000000000053200000000053200002000000010410406280959540724635514950628217916072463   1040001600030000   591220000285000000010000273Shwe Ohh Pharmacy (47t Yangon        MMR11006280959540724630628000000000000000   10300001F00104100000000012768000000000000     
100   95050311121153200000000000000980000000000980002000000010410406281332470247761323360628000007405518   1020000200030000   333400010001204104000000281Myanmar Soft-Gate Tech Yangon        MMR11006281332470247760628000000000000000   10300001F05104100000000000206000000000000     
100   95050319156011610000000000000980000000000980002000000010410406280808223822058218530628000007403527   1020000200030000   333400010001204104000000281Myanmar Soft-Gate Tech Yangon        MMR11006280808223822050628000000000000000   10300001F05104100000000000206000000000000     
100   95050317100052460000000000005000000000005000002000000010410406281004313431333862460628000007404489   1040001600030000   333800010001220104000004507A +                    Yangon        MMR11006281004313431330628000000000000000   10300001F05104100000000001050000000000000     
100   62443100372718280000000000034241000000034241002000000010410406280112060448980395380628217908044898   1040001600030000   598320000913000000010000663MMTM - Ywarma          Ygn           MMR11006280112060448980628000000000000000   10300001F00104100000000004109000000000000     
100   95030301100022270000000000020500000000020500002000000010410406270102110002364773800627217807000236   1030000500030000   598320005301000015172200053MAX ENERGY             PTN           MMR11006270102110002360627000000000000000   10300001 00104100000000000615000000000000     
100   95050314749068520000000000023500000000023500002000000010410406271024580006807310040627217816000680   1030000500030000   531120231223000045311202312OCEAN OATTARA THIRI    PTN           MMR11006271024580006800627000000000000000   10300001 00104100000000005640000000000000     
100   95050315413187270000000000040985000000040985002000000010410406271041310007870785210627217817000787   1030000500030000   541120226811000045411202268CITY MART WAIZAYANDA   PTN           MMR11006271041310007870627000000000000000   10300001 00104100000000010247000000000000     
100   95030308100042590000000000167000000000167000002000000010410406271208020042954773800627217818004295   1030000500030000   598320001701000015172200017MAX ENERGY             PTN           MMR11006271208020042950627000000000000000   10300001 00104100000000005010000000000000     
100   62443100379321630000000000034600000000034600002000000010410406270911400006642012210627217815000664   1030000500030000   541120227507000045411202275CITY MART (AHLONE BRAN PTN           MMR11006270911400006640627000000000000000   10300001 00104100000000008650000000000000     
100   95030305700676370000000000086000000000086000002000000010410406270523300007004773800627000352376551   1030000300030000   598300001209000000000000817CB BANK                SHWE TAUNG EN MMR11006270523300007000627000000000000000   10300001F00104100000000002580000000000000     
100   95050314324254410000000000034000000000034000002000000010410406271153010021299388010627217818002129   1030000500030000   531120156004000045311201560GAMONE PWINT           PTN           MMR11006271153010021290627000000000000000   10300001 00104100000000008160000000000000     
100   95050322990383760000000000003600000000003600002000000010410406271020470000853919980627217816000085   1030000500030000   541120203703000015411202037CITY MART SUPERMARKET  PTN           MMR11006271020470000850627000000000000000   10300001 00104100000000000900000000000000     
100   95030306757281900000000000013250000000013250002000000010410406280450378101324773800628565201137178   1030000900030000   541119001230190110000000947City Mart TM City Care YANGONONE     MMR11006280450378101320628000000000000000   10300001F00104100000000000795000000000000     
100   62443101096632410000000000029935000000029935002000000010410406281155500820708103490628217918082070   1040001600030000   581420000803000000010000579Jeff's Kitchen (Ahlone Yangon        MMR11006281155500820700628000000000000000   10300001F00104100000000003592000000000000     
100   62443101093150400000000000026000000000026000002000000010410406281051340767569330500628217917076756   1040001600030000   598320000838000000010000600Regency Petrol Station Ygn           MMR11006281051340767560628000000000000000   10300001F00104100000000003120000000000000     
100   62911028202397530000000000049350000000049350002000000010410406280814158158684773800628562441415178   1030000900030000   541119001298190110000000968Ocean Mingalar MDY C 6 MANDALAYHARSI MMR11006280814158158680628000000000000000   10300001F00104100000000002961000000000000     
100   95030333409030400000000000040000000000040000002000000010410406270142520068354773800627217808006835   1030000500030000   598320001004000015172200010MAX ENERGY             PTN           MMR11006270142520068350627000000000000000   10300001 00104100000000001200000000000000     
100   95050313843656520000000000002940000000002940002000000010410406280037520752688062120628000007400439   1020000200030000   333400010001204104000000281Myanmar Soft-Gate Tech Yangon        MMR11006280037520752680628000000000000000   10300001F05104100000000000617000000000000     
100   95050314355878900000000000200000000000200000002000000010410406281047251725324287940628000007404763   1030000200030000   333800010001203104000003327KBZPay                 Yangon        MMR11006281047251725320628000000000000000   10300001F05104100000000042000000000000000     
100   95050312539675540000000000001960000000001960002000000010410406280505373537430431030628000007402026   1020000200030000   333400010001204104000000281Myanmar Soft-Gate Tech Yangon        MMR11006280505373537430628000000000000000   10300001F05104100000000000412000000000000     
100   95050315430281830000000000032000000000032000002000000010410406270919210004580359730627217815000458   1030000500030000   569120069101008205691200691ESCORT                 PTN           MMR11006270919210004580627000000000000000   10300001 00104100000000007680000000000000     
100   62911028202423360000000000005700000000005700002000000010410406271022040005524773800627217816000552   1030000500030000   531120226718000045311202267OCEAN NORTH POINT      PTN           MMR11006271022040005520627000000000000000   10300001 00104100000000000342000000000000     
100   95050325925517520000000000214400000000214400002000000010410406270933220009336884560627217816000933   1030000500030000   503920036605000015039200366PRO-1 HOME CENTER      PTN           MMR11006270933220009330627000000000000000   10300001 00104100000000051456000000000000     
100   62911028202527490000000000041000000000041000002000000010410406270605360041984773800627217812004198   1030000500030000   598320002001000015172200020MAX ENERGY             PTN           MMR11006270605360041980627000000000000000   10300001 00104100000000001230000000000000     
100   62911028202142850000000000013500000000013500002000000010410406270558000021674773800627217812002167   1030000500030000   541120020701022205411200207ORANGE (YDG)           PTN           MMR11006270558000021670627000000000000000   10300001 00104100000000000810000000000000     
100   95050322149411750000000000030000000000030000002000000010410406270605210067397765470627217812006739   1030000500030000   598320001402000015172200014MAX ENERGY             PTN           MMR11006270605210067390627000000000000000   10300001 00104100000000003600000000000000     
100   62443100395964530000000000030000000000030000002000000010410406271048480068534090170627217817006853   1030000500030000   598320001304000015172200013MAX ENERGY             PTN           MMR11006271048480068530627000000000000000   10300001 00104100000000003600000000000000     
100   95050321232876860000000000084000000000084000002000000010410406270348430407339467390627217803040733   1030000600030000   554100001865315799420001235DENKO NAY PYI TAW 2    NAYPYITAW     MMR11006270348430407330627000000000000000   10300001 00104100000000010080000000000000     
100   95050310427855490000000000001960000000001960002000000010410406280258522852577856280628000007400872   1020000200030000   333400010001204104000000281Myanmar Soft-Gate Tech Yangon        MMR11006280258522852570628000000000000000   10300001F05104100000000000412000000000000     
100   95050326159929830000000000019500000000019500002000000010410406271136160059783033370627000352429822   1030000300030000   541100000151000000000000074CB BANK                ROYAL MART SU MMR11006271136160059780627000000000000000   10300001F00104100000000004875000000000000     
100   62443100358839880000000000085000000000085000002000000010410406270242130052344013150627217809005234   1030000500030000   598320002701000015172200027MAX ENERGY             PTN           MMR11006270242130052340627000000000000000   10300001 00104100000000010200000000000000     
100   62443100369813440000000000020000000000020000002000000010410406270225110065310537990627217808006531   1030000500030000   598320001303000015172200013MAX ENERGY             PTN           MMR11006270225110065310627000000000000000   10300001 00104100000000002400000000000000     
100   95050328384000040000000000061000000000061000002000000010410406271151140059624770940627217818005962   1030000500030000   598320001101000015172200011MAX ENERGY             PTN           MMR11006271151140059620627000000000000000   10300001 00104100000000007320000000000000     
100   62911028202593140000000000050000000000050000002000000010410406271112050066034773800627217817006603   1030000500030000   598320001203000015172200012MAX ENERGY             PTN           MMR11006271112050066030627000000000000000   10300001 00104100000000001500000000000000     
100   95050324154190880000000000036002000000036002002000000010410406271113040048739643300627217817004873   1030000500030000   598320001603000015172200016MAX ENERGY             PTN           MMR11006271113040048730627000000000000000   10300001 00104100000000004320000000000000     
100   62911028202313470000000000034000000000034000002000000010410406271001550068464773800627217810006846   1030000600030000   806200002188315799420001535ASIA ROYAL HOSPITAL    YANGON        MMR11006271001550068460627000000000000000   10300001 00104100000000002040000000000000     
100   62443100340422630000000000100000000000100000002000000010410406270931480060518451950627217816006051   1030000500030000   598320001202000015172200012MAX ENERGY             PTN           MMR11006270931480060510627000000000000000   10300001 00104100000000012000000000000000     
100   62443101093150400000000000027000000000027000002000000010410406270101190955766467150627217801095576   1030000600030000   554100000946315799420000471DENKO BAHAN            YANGON        MMR11006270101190955760627000000000000000   10300001 00104100000000003240000000000000     
100   95050324773225760000000000015000000000015000002000000010410406270029200051854729580627217806005185   1030000500030000   598320002702000015172200027MAX ENERGY             PTN           MMR11006270029200051850627000000000000000   10300001 00104100000000001800000000000000     
100   95050321232876860000000000100000000000100000002000000010410406270352550153141204970627217803015314   1030000600030000   554100002328315799420001235DENKO NAY PYI TAW 2    NAYPYITAW     MMR11006270352550153140627000000000000000   10300001 00104100000000012000000000000000     
100   95050323282717740000000000030000000000030000002000000010410406270255150065375410350627217809006537   1030000500030000   598320001303000015172200013MAX ENERGY             PTN           MMR11006270255150065370627000000000000000   10300001 00104100000000003600000000000000     
100   95050326228858240000000000073000000000073000002000000010410406270126230193295069960627217801019329   1030000600030000   554100001011315799420000505DENKO HTAN TA PIN      YANGON        MMR11006270126230193290627000000000000000   10300001 00104100000000008760000000000000     
100   62911028202709150000000000046000000000046000002000000010410406270952030554174773800627217809055417   1030000600030000   554100000969315799420000481DENKO NORTH OKKALAPA   YANGON        MMR11006270952030554170627000000000000000   10300001 00104100000000001380000000000000     
100   95050329734064360000000000030000000000030000002000000010410406271134590066041380880627217818006604   1030000500030000   598320001203000015172200012MAX ENERGY             PTN           MMR11006271134590066040627000000000000000   10300001 00104100000000003600000000000000     
100   95050324850150480000000000080000000000080000002000000010410406270704490042861410820627217807004286   1030000600030000   554100001260315799420000714DENKO LET PA TAN       LET PA TAN.   MMR11006270704490042860627000000000000000   10300001 00104100000000009600000000000000     
100   62911028202471600000000000007500000000007500002000000010410406280926050703154773800628217916070315   1040001600030000   591220000296000000010000284Shwe Ohh Pharmacy (Lan Yangon        MMR11006280926050703150628000000000000000   10300001F00104100000000000450000000000000     
100   95050315743141220000000000000980000000000980002000000010410406280943491349640636880628000007404325   1020000200030000   333400010001204104000000281Myanmar Soft-Gate Tech Yangon        MMR11006280943491349640628000000000000000   10300001F05104100000000000206000000000000     
100   62911028202115960000000000036450000000036450002000000010410406281209100832614773800628217919083261   1040001600030000   591220000292000000010000280Shwe Ohh Pharmacy (Cha Yangon        MMR11006281209100832610628000000000000000   10300001F00104100000000002187000000000000     
100   95050316949180000000000000002940000000002940002000000010410406280255452545092813730628000007400852   1020000200030000   333400010001204104000000281Myanmar Soft-Gate Tech Yangon        MMR11006280255452545090628000000000000000   10300001F05104100000000000617000000000000     
100   62443101006037900000000000050000000000050000002000000010410406280442121212238948740628000007401822   1030000200030000   333800010001203104000003327KBZPay                 Yangon        MMR11006280442121212230628000000000000000   10300001F05104100000000010500000000000000     
100   95050319161596230000000000000980000000000980002000000010410406280053052305981877670628000007400466   1020000200030000   333400010001204104000000281Myanmar Soft-Gate Tech Yangon        MMR11006280053052305980628000000000000000   10300001F05104100000000000206000000000000     
100   95050316785465380000000000000980000000000980002000000010410406280755242524376480950628000007403412   1020000200030000   333400010001204104000000281Myanmar Soft-Gate Tech Yangon        MMR11006280755242524370628000000000000000   10300001F05104100000000000206000000000000     
100   62911028202595200000000000077530000000077530002000000010410406280945590715764773800628217916071576   1040001600030000   598320000658000000010000527Shwe Taung Energy (YGN Yangon        MMR11006280945590715760628000000000000000   10300001F00104100000000002326000000000000     
100   62443101096632410000000000030000000000030000002000000010410406281205070828983146040628217919082898   1040001600030000   598320001170000000010000527Shwe Taung Energy (YGN Yangon        MMR11006281205070828980628000000000000000   10300001F00104100000000003600000000000000     
100   62911028202446700000000000018650000000018650002000000010410406280147261726634773800628000007400577   1030000200030000   333800010001203104000003327KBZPay                 Yangon        MMR11006280147261726630628000000000000000   10300001F05104100000000003917000000000000     
100   95050317003064220000000000000980000000000980002000000010410406280252592259827260600628000007400834   1020000200030000   333400010001204104000000281Myanmar Soft-Gate Tech Yangon        MMR11006280252592259820628000000000000000   10300001F05104100000000000206000000000000     
100   95050311959900780000000000002940000000002940002000000010410406280639470947639360440628000007402810   1020000200030000   333400010001204104000000281Myanmar Soft-Gate Tech Yangon        MMR11006280639470947630628000000000000000   10300001F05104100000000000617000000000000     
100   95050312498129060000000000001960000000001960002000000010410406281255062506169500690628000007405374   1020000200030000   333400010001204104000000281Myanmar Soft-Gate Tech Yangon        MMR11006281255062506160628000000000000000   10300001F05104100000000000412000000000000     
100   95050319938772870000000000006000000000006000002000000010410406281250082008216195720628000007405356   1030000200030000   333800010001203104000003327KBZPay                 Yangon        MMR11006281250082008210628000000000000000   10300001F05104100000000001260000000000000     
100   62911028202466670000000000187700000000187700002000000010410406280850060683214773800628217915068321   1040001600030000   591220000276000000010000264Shwe Ohh Pharmacy (YGH Yangon        MMR11006280850060683210628000000000000000   10300001F00104100000000011262000000000000     
100   95050319156011610000000000000980000000000980002000000010410406280351462146991232550628000007401400   1020000200030000   333400010001204104000000281Myanmar Soft-Gate Tech Yangon        MMR11006280351462146990628000000000000000   10300001F05104100000000000206000000000000     
100   95050312618592720000000000010000000000010000002000000010410406280646061606521012920628000007402859   1030000200030000   333800010001203104000003327KBZPay                 Yangon        MMR11006280646061606520628000000000000000   10300001F05104100000000002100000000000000     
100   62911028202809060000000000030000000000030000002000000010410406280300153015484773800628000007400878   1030000200030000   333800010001203104000003327KBZPay                 Yangon        MMR11006280300153015480628000000000000000   10300001F05104100000000006300000000000000     
100   95050314570621780000000000000980000000000980002000000010410406281047391739746025530628000007404774   1020000200030000   333400010001204104000000281Myanmar Soft-Gate Tech Yangon        MMR11006281047391739740628000000000000000   10300001F05104100000000000206000000000000     
100   95050318057347910000000000050000000000050000002000000010410406280257522752037771180628000007400864   1030000200030000   3338000100012031040000040022C2P (Myanmar) Co. Ltd Yangon        MMR11006280257522752030628000000000000000   10300001F05104100000000010500000000000000     
100   95050315066440750000000000002940000000002940002000000010410406281101003100117678010628000007404838   1020000200030000   333400010001204104000000281Myanmar Soft-Gate Tech Yangon        MMR11006281101003100110628000000000000000   10300001F05104100000000000617000000000000     
100   95050317903887690000000000015120000000015120002000000010410406280639510951267707950628000007402809   1030000900030000   333800010001202104000003301uab bank               Yangon        MMR11006280639510951260628000000000000000   10300001F05104100000000003175000000000000     
100   95050324411430900000000000414500000000414500002000000010410406280951552155424112040628000007404379   1010000100030000   333500010001212104000002535Internal Revenue Depar Yangon        MMR11006280951552155420628000000000000000   10300001F05104100000000060000000000000000     
100   95050328876009750000000000020000000000020000002000000010410406280351072107199494970628000007401396   1030000200030000   333800010001203104000003327KBZPay                 Yangon        MMR11006280351072107190628000000000000000   10300001F05104100000000004200000000000000     
