100   62911028202045260000000000012250000000012250002000000010410406281154490010334773800628217918001033   1030000500030000   541120203704000015411202037CITY MART SUPERMARKET  PTN           MMR11006281154490010330628000000000000000   10300001 00104100000000000735000000000000     
100   62911028202807400000000000140650000000140650002000000010410406281137050007194773800628217918000719   1030000500030000   541120129718000045411201297MAKRO MYANMAR          PTN           MMR11006281137050007190628000000000000000   10300001 00104100000000008439000000000000     
100   95030364439875210000000000017800000000017800002000000010410406280923170009894773800628217915000989   1030000500030000   531120226326000045311202263OCEAN SUPER CENTER STJ PTN           MMR11006280923170009890628000000000000000   10300001 00104100000000001068000000000000     
100   62911028202677880000000000246798000000246798002000000010410406280744120013294773800628217914001329   1030000500030000   541120226803000045411202268CITY MART WAIZAYANDA   PTN           MMR11006280744120013290628000000000000000   10300001 00104100000000014808000000000000     
100   62911028202471600000000000007700000000007700002000000010410406280949360000894773800628217909000089   1030000600030000   591200002215315799420001560365 PHARMACY 3         YANGON        MMR11006280949360000890628000000000000000   10300001 00104100000000000462000000000000     
100   95050323282717740000000000023100000000023100002000000010410406280615500004514573170628217912000451   1030000500030000   581220041201003105812200412SHAN YOE YAR RESTAURAN PTN           MMR11006280615500004510628000000000000000   10300001 00104100000000009818000000000000     
100   62911028202448030000000000111300000000111300002000000010410406281127070009284773800628217917000928   1030000500030000   541120129726000045411201297MAKRO MYANMAR          PTN           MMR11006281127070009280628000000000000000   10300001 00104100000000006678000000000000     
100   62443100330048680000000000040000000000040000002000000010410406281059030019709415590628217917001970   1030000500030000   598320002003000015172200020MAX ENERGY             PTN           MMR11006281059030019700628000000000000000   10300001 00104100000000004800000000000000     
100   95030357919784470000000000038700000000038700002000000010410406291027408485834773800629186571640179   1030000900030000   541119001267190110000000958City Mart PLST C 10    YANGONMYOTHIT MMR11006291027408485830629000000000000000   10300001F00104100000000002322000000000000     
100   95030367537085740000000000000980000000000980002000000010410406291412404240924773800629000007411985   1020000200030000   333400010001204104000000281Myanmar Soft-Gate Tech Yangon        MMR11006291412404240920629000000000000000   10300001F05104100000000000206000000000000     
100   95050319925596540000000000009800000000009800002000000010410406291219574957875913080629000007411479   1020000200030000   333400010001204104000000281Myanmar Soft-Gate Tech Yangon        MMR11006291219574957870629000000000000000   10300001F05104100000000002058000000000000     
100   95050312962334280000000000000980000000000980002000000010410406291517344734339643520629000007412276   1020000200030000   333400010001204104000000281Myanmar Soft-Gate Tech Yangon        MMR11006291517344734330629000000000000000   10300001F05104100000000000206000000000000     
100   95030308100042590000000000805000000000805000002000000010410406290607508394894773800629162371250179   1030000900030000   541119000831190110000000177Pro1 Global (Insein)   YANGON        MMR11006290607508394890629000000000000000   10300001F00104100000000048300000000000000     
100   62911028202331290000000000043100000000043100002000000010410406290909058458674773800629738391505179   1030000900030000   541119000124190110000000080Sein Gay Har BAK       YANGONADA     MMR11006290909058458670629000000000000000   10300001F00104100000000002586000000000000     
100   95030301100125070000000000067423000000067423002000000010410406291020168482704773800629001501616179   1030000900030000   541119001208190110000000948City Mart YK C 6       YANGONAUNG    MMR11006291020168482700629000000000000000   10300001F00104100000000004045000000000000     
100   95050324154190880000000000002940000000002940002000000010410406290628275827249550130629000007408942   1020000200030000   333400010001204104000000281Myanmar Soft-Gate Tech Yangon        MMR11006290628275827240629000000000000000   10300001F05104100000000000617000000000000     
100   62911028202912590000000000060000000000060000002000000010410406280406450048174773800628217910004817   1030000500030000   598320001604000015172200016MAX ENERGY             PTN           MMR11006280406450048170628000000000000000   10300001 00104100000000001800000000000000     
100   95050314324254410000000000049357000000049357002000000010410406280606560042892594090628217912004289   1030000500030000   531120156008000045311201560GAMONE PWINT           PTN           MMR11006280606560042890628000000000000000   10300001 00104100000000011846000000000000     
100   62911028202471600000000000040350000000040350002000000010410406280936510007354773800628217916000735   1030000500030000   541120203705000015411202037CITY MART SUPERMARKET  PTN           MMR11006280936510007350628000000000000000   10300001 00104100000000002421000000000000     
100   62911028202136750000000000150000000000150000002000000010410406280747040009424773800628217914000942   1030000500030000   541120129725000045411201297MAKRO MYANMAR          PTN           MMR11006280747040009420628000000000000000   10300001 00104100000000009000000000000000     
100   95050318463049920000000000013500000000013500002000000010410406280820040002447076620628000352571776   1030000300030000   531100000544000000000000376CB BANK                CAPITAL HYPER MMR11006280820040002440628000000000000000   10300001F00104100000000003240000000000000     
100   95030377151383630000000000062000000000062000002000000010410406281111020004284773800628000352595011   1030000300030000   541100002355000000000000102CB BANK                MAKRO MYANMAR MMR11006281111020004280628000000000000000   10300001F00104100000000003720000000000000     
100   62911028202231380000000000005450000000005450002000000010410406280832340002984773800628217915000298   1030000500030000   581220166101000015812201661KRISPY KREME           PTN           MMR11006280832340002980628000000000000000   10300001 00104100000000000556000000000000     
100   62443100379321630000000000082950000000082950002000000010410406280851440009025849620628217915000902   1030000500030000   541120129726000045411201297MAKRO MYANMAR          PTN           MMR11006280851440009020628000000000000000   10300001 00104100000000020738000000000000     
100   95050312781844250000000000067000000000067000002000000010410406291129585958352006720629000007411246   1030000200030000   333800010001203104000003327KBZPay                 Yangon        MMR11006291129585958350629000000000000000   10300001F05104100000000014070000000000000     
100   62443100323117100000000000012000000000012000002000000010410406281813364336352004140629000007406317   1030000200030000   333800010001203104000003327KBZPay                 Yangon        MMR11006281813364336350629000000000000000   10300001F05104100000000002520000000000000     
100   95050311959900780000000000000980000000000980002000000010410406291618454845990239200629000007412510   1020000200030000   333400010001204104000000281Myanmar Soft-Gate Tech Yangon        MMR11006291618454845990629000000000000000   10300001F05104100000000000206000000000000     
100   95050315017843630000000000000980000000000980002000000010410406291221255125254260590629000007411482   1020000200030000   333400010001204104000000281Myanmar Soft-Gate Tech Yangon        MMR11006291221255125250629000000000000000   10300001F05104100000000000206000000000000     
100   95030367537085740000000000000980000000000980002000000010410406291529055905384773800629000007412336   1020000200030000   333400010001204104000000281Myanmar Soft-Gate Tech Yangon        MMR11006291529055905380629000000000000000   10300001F05104100000000000206000000000000     
100   95050317834964620000000000001900000000001900002000000010410406291028588486383368260629223581658179   1030000900030000   541119001353190110000000977Ocean PZD C 7          YANGONAUNG    MMR11006291028588486380629000000000000000   10300001F00104100000000000475000000000000     
100   95050328082468580000000000030000000000030000002000000010410406291216284628706162650629000007411474   1030000200030000   333800010001203104000003327KBZPay                 Yangon        MMR11006291216284628700629000000000000000   10300001F05104100000000006300000000000000     
100   95050314307746340000000000000980000000000980002000000010410406291426365636047820850629000007412060   1020000200030000   333400010001204104000000281Myanmar Soft-Gate Tech Yangon        MMR11006291426365636040629000000000000000   10300001F05104100000000000206000000000000     
100   62911028202004330000000000012300000000012300002000000010410406281149200011244773800628217918001124   1030000500030000   531120226317000045311202263OCEAN SUPER CENTER STJ PTN           MMR11006281149200011240628000000000000000   10300001 00104100000000000738000000000000     
100   95050325141379530000000000075000000000075000002000000010410406280421330043973310520628217910004397   1030000500030000   598320002004000015172200020MAX ENERGY             PTN           MMR11006280421330043970628000000000000000   10300001 00104100000000009000000000000000     
100   62911028202212490000000000032910000000032910002000000010410406281348020037084773800628217920003708   1030000500030000   581220146401013205812201464THAI 47 (HELPIN BRANCH PTN           MMR11006281348020037080628000000000000000   10300001 00104100000000003357000000000000     
100   62911028202666570000000000017052000000017052002000000010410406280331160041974773800628217910004197   1030000500030000   531120156002000045311201560GAMONE PWINT           PTN           MMR11006280331160041970628000000000000000   10300001 00104100000000001023000000000000     
100   62443100313112320000000000635320000000635320002000000010410406280727490000513431270628000352564565   1030000300030000   569100002430000000000001628CB BANK                ARMANI EXCHAN MMR11006280727490000510628000000000000000   10300001F00104100000000152477000000000000     
100   95030317922148660000000000318000000000318000002000000010410406280958430001404773800628000352585167   1030000300030000   701100002942000000000002044CB BANK                WINNER INN    MMR11006280958430001400628000000000000000   10300001F00104100000000032436000000000000     
100   62911028202169750000000000032584000000032584002000000010410406280940430008084773800628217916000808   1030000500030000   541120226811000045411202268CITY MART WAIZAYANDA   PTN           MMR11006280940430008080628000000000000000   10300001 00104100000000001955000000000000     
100   95050324247403260000000000163000000000163000002000000010410406280924200008607672290628217915000860   1030000500030000   56912020800100008569120208099 -2                  PTN           MMR11006280924200008600628000000000000000   10300001 00104100000000039120000000000000     
100   95050322158563070000000000028482000000028482002000000010410406290730238422219870930629704001423179   1030000900030000   581219000718190110000000549Chilli Pot Mala Xiang  YANGONUT      MMR11006290730238422210629000000000000000   10300001F00104100000000012105000000000000     
100   62443100395964530000000000059818000000059818002000000010410406291121568503476453590629162511756179   1030000900030000   581219000981190110000000788Jo Jo Hot Pot (KTY)    YANGONARTAUNG MMR11006291121568503470629000000000000000   10300001F00104100000000025423000000000000     
100   95050316818236190000000000001960000000001960002000000010410406290925405540558935170629000007410413   1020000200030000   333400010001204104000000281Myanmar Soft-Gate Tech Yangon        MMR11006290925405540550629000000000000000   10300001F05104100000000000412000000000000     
100   95050319156011610000000000000980000000000980002000000010410406291614434443248501620629000007412500   1020000200030000   333400010001204104000000281Myanmar Soft-Gate Tech Yangon        MMR11006291614434443240629000000000000000   10300001F05104100000000000206000000000000     
100   95050315017843630000000000001960000000001960002000000010410406291223075307365998170629000007411498   1020000200030000   333400010001204104000000281Myanmar Soft-Gate Tech Yangon        MMR11006291223075307360629000000000000000   10300001F05104100000000000412000000000000     
100   95050315005801680000000000004600000000004600002000000010410406291106438498903233720629900361743179   1030000900030000   541119001223190110000000945City Mart TM C 8       YANGONONE     MMR11006291106438498900629000000000000000   10300001F00104100000000001150000000000000     
100   95050310332595380000000000000980000000000980002000000010410406291428095809399558430629000007412070   1020000200030000   333400010001204104000000281Myanmar Soft-Gate Tech Yangon        MMR11006291428095809390629000000000000000   10300001F05104100000000000206000000000000     
100   95050325455962190000000000002940000000002940002000000010410406290822515251428396710629000007409871   1020000200030000   333400010001204104000000281Myanmar Soft-Gate Tech Yangon        MMR11006290822515251420629000000000000000   10300001F05104100000000000617000000000000     
100   62911028202790310000000000067000000000067000002000000010410406280508520045664773800628217911004566   1030000500030000   598320001602000015172200016MAX ENERGY             PTN           MMR11006280508520045660628000000000000000   10300001 00104100000000002010000000000000     
100   62911028202221220000000000010000000000010000002000000010410406272313000065924773800628217905006592   1030000500030000   598320001303000015172200013MAX ENERGY             PTN           MMR11006272313000065920628000000000000000   10300001 00104100000000000300000000000000     
100   62443100303702210000000000053000000000053000002000000010410406280223170453105778310628217902045310   1030000600030000   554100001009315799420000504DENKO SOUTH DAGON      YANGON        MMR11006280223170453100628000000000000000   10300001 00104100000000006360000000000000     
100   62911028202147720000000000047000000000047000002000000010410406280025000048964773800628217906004896   1030000500030000   598320001603000015172200016MAX ENERGY             PTN           MMR11006280025000048960628000000000000000   10300001 00104100000000001410000000000000     
100   62911028202440680000000000042189000000042189002000000010410406280950540061684773800628217916006168   1030000500030000   598320001202000015172200012MAX ENERGY             PTN           MMR11006280950540061680628000000000000000   10300001 00104100000000001266000000000000     
100   95050324247403260000000000067000000000067000002000000010410406280311420541882983920628217903054188   1030000600030000   554100001001315799420000498DENKO SHWE PYI THAR    YANGON        MMR11006280311420541880628000000000000000   10300001 00104100000000008040000000000000     
100   62911028202668300000000000020000000000020000002000000010410406280732150050894773800628217914005089   1030000500030000   598320002101000015172200021MAX ENERGY             PTN           MMR11006280732150050890628000000000000000   10300001 00104100000000000600000000000000     
100   95030301100126550000000000027000000000027000002000000010410406281140380215854773800628217911021585   1030000600030000   554100002323315799420000474DENKO N.DAGON - 1      YANGON        MMR11006281140380215850628000000000000000   10300001 00104100000000000810000000000000     
100   62911028202000450000000000004900000000004900002000000010410406290927365736514773800629000007410454   1020000200030000   333400010001204104000000281Myanmar Soft-Gate Tech Yangon        MMR11006290927365736510629000000000000000   10300001F05104100000000001029000000000000     
100   95050311382087030000000000001960000000001960002000000010410406291227375737011125820629000007411511   1020000200030000   333400010001204104000000281Myanmar Soft-Gate Tech Yangon        MMR11006291227375737010629000000000000000   10300001F05104100000000000412000000000000     
100   95030302100061930000000000015450000000015450002000000010410406290744528427504773800629006141452179   1030000900030000   541119000130190110000000082Sein Gay Har Super Cen YANGON        MMR11006290744528427500629000000000000000   10300001F00104100000000000927000000000000     
100   95050321057500320000000000004900000000004900002000000010410406290818344834222893030629000007409833   1020000200030000   333400010001204104000000281Myanmar Soft-Gate Tech Yangon        MMR11006290818344834220629000000000000000   10300001F05104100000000001029000000000000     
100   62911028202074950000000000024000000000024000002000000010410406272356090060854773800628217906006085   1030000500030000   598320001202000015172200012MAX ENERGY             PTN           MMR11006272356090060850628000000000000000   10300001 00104100000000000720000000000000     
100   62443100330048680000000000070000000000070000002000000010410406280303260060024636400628217909006002   1030000500030000   598320001101000015172200011MAX ENERGY             PTN           MMR11006280303260060020628000000000000000   10300001 00104100000000008400000000000000     
100   95030318100004530000000000022000000000022000002000000010410406280408520115254773800628217904011525   1030000600030000   554100001218315799420000670DENKO MAWLAMYAING      MON STATE.    MMR11006280408520115250628000000000000000   10300001 00104100000000000660000000000000     
100   62911028202197630000000000010000000000010000002000000010410406280631550066464773800628217913006646   1030000500030000   598320001401000015172200014MAX ENERGY             PTN           MMR11006280631550066460628000000000000000   10300001 00104100000000000300000000000000     
100   95050324082484780000000000045000000000045000002000000010410406281122300066781153170628217911006678   1030000600030000   554100000722315799420000304DENKO MDY - 62         MANDALAY      MMR11006281122300066780628000000000000000   10300001 00104100000000005400000000000000     
100   62911028202448030000000000130000000000130000002000000010410406280129070060994773800628217907006099   1030000500030000   598320001202000015172200012MAX ENERGY             PTN           MMR11006280129070060990628000000000000000   10300001 00104100000000003900000000000000     
100   62911028202916630000000000022000000000022000002000000010410406280119420066124773800628217907006612   1030000500030000   598320001303000015172200013MAX ENERGY             PTN           MMR11006280119420066120628000000000000000   10300001 00104100000000000660000000000000     
100   62911028202169750000000000025504000000025504002000000010410406270900520012394773800627217815001239   1030000500030000   541120226204000045411202262CITY MART ZAWANA       PTN           MMR11006270900520012390627000000000000000   10300001 00104100000000001530000000000000     
100   95050314324254410000000000066300000000066300002000000010410406271223580011899473110627217818001189   1030000500030000   531120156006000045311201560GAMONE PWINT           PTN           MMR11006271223580011890627000000000000000   10300001 00104100000000015912000000000000     
100   95030301100126550000000000035000000000035000002000000010410406271200040214954773800627217812021495   1030000600030000   554100002323315799420000474DENKO N.DAGON - 1      YANGON        MMR11006271200040214950627000000000000000   10300001 00104100000000001050000000000000     
100   62911028202212490000000000010100000000010100002000000010410406280426270004214773800628217910000421   1030000500030000   581220195901000085812201959AKKHAYA TEA HOUSE      PTN           MMR11006280426270004210628000000000000000   10300001 00104100000000001030000000000000     
100   62911028202290100000000000150000000000150000002000000010410406280532090007114773800628217912000711   1030000500030000   541120129712000045411201297MAKRO MYANMAR          PTN           MMR11006280532090007110628000000000000000   10300001 00104100000000009000000000000000     
100   62443100397667340000000000029400000000029400002000000010410406290841391139362176610629000007410006   1020000200030000   333400010001204104000000281Myanmar Soft-Gate Tech Yangon        MMR11006290841391139360629000000000000000   10300001F05104100000000006174000000000000     
100   62911028202907560000000000040950000000040950002000000010410406280329240005024773800628217909000502   1030000500030000   531120226318000045311202263OCEAN SUPER CENTER STJ PTN           MMR11006280329240005020628000000000000000   10300001 00104100000000002457000000000000     
100   95050318463049920000000000004200000000004200002000000010410406280836460002461863880628000352574136   1030000300030000   531100000544000000000000376CB BANK                CAPITAL HYPER MMR11006280836460002460628000000000000000   10300001F00104100000000001008000000000000     
100   62911028202204490000000000040000000000040000002000000010410406280454130057044773800628217911005704   1030000500030000   598320001201000015172200012MAX ENERGY             PTN           MMR11006280454130057040628000000000000000   10300001 00104100000000001200000000000000     
100   62443100313529540000000000010100000000010100002000000010410406281144520012374202850628217918001237   1030000500030000   541120230002000045411202300MARKET PLACE BY CITY M PTN           MMR11006281144520012370628000000000000000   10300001 00104100000000002525000000000000     
100   95050312498129060000000000000980000000000980002000000010410406290212444244746791390629000007406878   1020000200030000   333400010001204104000000281Myanmar Soft-Gate Tech Yangon        MMR11006290212444244740629000000000000000   10300001F05104100000000000206000000000000     
100   95050324411430900000000000035000000000035000002000000010410406290250221198393472640629218009119839   1040001600030000   598320000658000000010000527Shwe Taung Energy (YGN Yangon        MMR11006290250221198390629000000000000000   10300001F00104100000000004200000000000000     
100   62443100330048680000000000020000000000020000002000000010410406280237330043910565570628217909004391   1030000500030000   598320002004000015172200020MAX ENERGY             PTN           MMR11006280237330043910628000000000000000   10300001 00104100000000002400000000000000     
100   95050323282717740000000000030000000000030000002000000010410406280754390035394828460628217914003539   1030000500030000   598320041903000055983200419MAX ENERGY             PTN           MMR11006280754390035390628000000000000000   10300001 00104100000000003600000000000000     
100   95050316949180000000000000000980000000000980002000000010410406291443361336904600980629000007412142   1020000200030000   333400010001204104000000281Myanmar Soft-Gate Tech Yangon        MMR11006291443361336900629000000000000000   10300001F05104100000000000206000000000000     
100   95050312675525330000000000074000000000074000002000000010410406291009033903372275800629000007410806   1030000200030000   333800010001203104000003327KBZPay                 Yangon        MMR11006291009033903370629000000000000000   10300001F05104100000000015540000000000000     
100   62443100313112320000000001000000000001000000002000000010410406280723170000438388720628000352563888   1030000300030000   569100002430000000000001628CB BANK                ARMANI EXCHAN MMR11006280723170000430628000000000000000   10300001F00104100000000240000000000000000     
100   62443100361587780000000000800000000000800000002000000010410406290302100000890167670629000749208416   1030000200030000   506588000766000008000004446KBZ BANK               MYO THEIN ELE MMR11006290302100000890629000000000000000   10300001 00104100000000192000000000000000     
100   62911028202130710000000000013500000000013500002000000010410406291816570168244773800629000749249415   1030000200030000   541188001306000008000000325KBZ BANK               CITY MART - A MMR11006291816570168240629000000000000000   10300001 00104100000000000810000000000000     
100   62911028202366010000000000054400000000054400002000000010410406290914390004224773800629000749239774   1030000200030000   569988002300000008000006125KBZ BANK               SOON - JUNCTI MMR11006290914390004220629000000000000000   10300001 00104100000000003264000000000000     
100   95050323855563310000000000110911000000110911002000000010410406291623180026608460250629000749242728   1030000200030000   541188001481000008000000399KBZ BANK               OCEAN SUPERCE MMR11006291623180026600629000000000000000   10300001 00104100000000027728000000000000     
100   62911028202472440000000000054668000000054668002000000010410406291100520057424773800629000749214886   1030000200030000   541188001004000008000000008KBZ BANK               MARKETPLACE - MMR11006291100520057420629000000000000000   10300001 00104100000000003280000000000000     
100   62443100343312450000000000208941000000208941002000000010410406291211190014083112970629000749250619   1030000200030000   541188001628000008000000008KBZ BANK               MARKETPLACE - MMR11006291211190014080629000000000000000   10300001 00104100000000052236000000000000     
100   62911028202290100000000000048791000000048791002000000010410406290934070045174773800629218016004517   1020000200030000   806200105002300018062000010MWD BANK               YGN           MMR11006290934070045170629000000000000000   10300001 00104100000000002928000000000000     
100   95050316067768680000000000000980000000000980002000000010410406291431320132267905950629000007412082   1020000200030000   333400010001204104000000281Myanmar Soft-Gate Tech Yangon        MMR11006291431320132260629000000000000000   10300001F05104100000000000206000000000000     
100   62911028202233510000000000003400000000003400002000000010410406291553010035554773800629000749240430   1030000200030000   541188001077000008000000294KBZ BANK               CITY MART - J MMR11006291553010035550629000000000000000   10300001 00104100000000000204000000000000     
100   62911028202611200000000000013970000000013970002000000010410406291313240051314773800629000749227285   1030000200030000   541188001066000008000000314KBZ BANK               MARKETPLACE - MMR11006291313240051310629000000000000000   10300001 00104100000000000838000000000000     
100   62911028202523430000000000002800000000002800002000000010410406291557430068884773800629000749240798   1030000200030000   541188001072000008000000314KBZ BANK               MARKETPLACE - MMR11006291557430068880629000000000000000   10300001 00104100000000000168000000000000     
100   62911028202460550000000000002827000000002827002000000010410406291233390039694773800629000749223113   1030000200030000   541188001079000008000000294KBZ BANK               CITY MART - J MMR11006291233390039690629000000000000000   10300001 00104100000000000170000000000000     
100   62911028202156540000000000009300000000009300002000000010410406291613310068894773800629000749242005   1030000200030000   541188001072000008000000314KBZ BANK               MARKETPLACE - MMR11006291613310068890629000000000000000   10300001 00104100000000000558000000000000     
100   95050311273457710000000000030000000000030000002000000010410406281640171017553656620629000007406182   1030000200030000   333800010001203104000003327KBZPay                 Yangon        MMR11006281640171017550629000000000000000   10300001F05104100000000006300000000000000     
100   95050312937155340000000000016200000000016200002000000010410406290959131421753758090629218016142175   1040001600030000   591220000291000000010000279Shwe Ohh Pharmacy (Sou Yangon        MMR11006290959131421750629000000000000000   10300001F00104100000000003888000000000000     
100   95050319709462380000000000000980000000000980002000000010410406290600323032090656380629000007408714   1020000200030000   333400010001204104000000281Myanmar Soft-Gate Tech Yangon        MMR11006290600323032090629000000000000000   10300001F05104100000000000206000000000000     
100   95050315424817550000000000001960000000001960002000000010410406291407483748511551300629000007411957   1020000200030000   333400010001204104000000281Myanmar Soft-Gate Tech Yangon        MMR11006291407483748510629000000000000000   10300001F05104100000000000412000000000000     
100   95050319928585020000000000000980000000000980002000000010410406290441411141416508520629000007408082   1020000200030000   333400010001204104000000281Myanmar Soft-Gate Tech Yangon        MMR11006290441411141410629000000000000000   10300001F05104100000000000206000000000000     
100   95030363090756500000000000030000000000030000002000000010410406290124341154554773800629218008115455   1040001600030000   598320000660000000010000529Shwe Taung Energy (NPT Naypyitaw     MMR11006290124341154550629000000000000000   10300001F00104100000000000900000000000000     
100   62911028202180050000000000015010000000015010002000000010410406290255551200954773800629218009120095   1040001600030000   598320000310000000010000298PT Power Petrol Statio Yangon        MMR11006290255551200950629000000000000000   10300001F00104100000000000450000000000000     
100   95050310332595380000000000000980000000000980002000000010410406290056542654210351650629000007406598   1020000200030000   333400010001204104000000281Myanmar Soft-Gate Tech Yangon        MMR11006290056542654210629000000000000000   10300001F05104100000000000206000000000000     
100   95050316067768680000000000000980000000000980002000000010410406291435080508682948490629000007412095   1020000200030000   333400010001204104000000281Myanmar Soft-Gate Tech Yangon        MMR11006291435080508680629000000000000000   10300001F05104100000000000206000000000000     
100   95050314557307430000000000001960000000001960002000000010410406291051352135940999350629000007411065   1020000200030000   333400010001204104000000281Myanmar Soft-Gate Tech Yangon        MMR11006291051352135940629000000000000000   10300001F05104100000000000412000000000000     
100   62911028202777790000000000010000000000010000002000000010410406290807273727974773800629000007409746   1030000200030000   333800010001203104000003327KBZPay                 Yangon        MMR11006290807273727970629000000000000000   10300001F05104100000000002100000000000000     
100   95050310148547290000000000090720000000090720002000000010410406290859572957184218910629000007410159   1030000900030000   333800010001202104000003301uab bank               Yangon        MMR11006290859572957180629000000000000000   10300001F05104100000000019051000000000000     
100   62443100392426520000000000020000000000020000002000000010410406290333360336373898120629000007407469   1030000200030000   333800010001203104000003327KBZPay                 Yangon        MMR11006290333360336370629000000000000000   10300001F05104100000000004200000000000000     
100   62443100372718280000000000043235000000043235002000000010410406290126221155616621200629218008115561   1040001600030000   806220001356000000010001061Grand Hantha Internati Ygn           MMR11006290126221155610629000000000000000   10300001F00104100000000010376000000000000     
100   95050312695033440000000000000980000000000980002000000010410406290645171517960195160629000007409075   1020000200030000   333400010001204104000000281Myanmar Soft-Gate Tech Yangon        MMR11006290645171517960629000000000000000   10300001F05104100000000000206000000000000     
100   62911028202308280000000000015750000000015750002000000010410406291247211578514773800629218019157851   1040001600030000   581420001161000000010000871Kin Sakura (Bo Aung Ky ygn           MMR11006291247211578510629000000000000000   10300001F00104100000000000473000000000000     
100   95030305700676370000000000070000000000070000002000000010410406291219071552874773800629218019155287   1040001600030000   598320000316000000010000304PT Power Petrol Statio Yangon        MMR11006291219071552870629000000000000000   10300001F00104100000000002100000000000000     
100   62911028202233510000000000008850000000008850002000000010410406291612380201934773800629000749241950   1030000200030000   541188001082000008000000294KBZ BANK               CITY MART - J MMR11006291612380201930629000000000000000   10300001 00104100000000000531000000000000     
100   62443101006037900000000000010300000000010300002000000010410406291107111483142992220629218018148314   1040001600030000   591220001346000000010001053Tun Tauk Pharmacy      Ygn           MMR11006291107111483140629000000000000000   10300001F00104100000000002472000000000000     
100   95050312675873230000000000002940000000002940002000000010410406291108213821251339740629000007411153   1020000200030000   333400010001204104000000281Myanmar Soft-Gate Tech Yangon        MMR11006291108213821250629000000000000000   10300001F05104100000000000617000000000000     
100   95050318141561190000000000009800000000009800002000000010410406290843091309163743990629000007410019   1020000200030000   333400010001204104000000281Myanmar Soft-Gate Tech Yangon        MMR11006290843091309160629000000000000000   10300001F05104100000000002058000000000000     
100   95050315396509660000000000010000000000010000002000000010410406291556392639350154110629000007412435   1030000200030000   333800010001203104000003327KBZPay                 Yangon        MMR11006291556392639350629000000000000000   10300001F05104100000000002100000000000000     
100   62443100313529540000000000002940000000002940002000000010410406291432580258231210910629000007412090   1020000200030000   333400010001204104000000281Myanmar Soft-Gate Tech Yangon        MMR11006291432580258230629000000000000000   10300001F05104100000000000617000000000000     
100   62911028202441420000000000069500000000069500002000000010410406291017031436614773800629218017143661   1040001600030000   591220000297000000010000285Shwe Ohh Pharmacy (Nor Yangon        MMR11006291017031436610629000000000000000   10300001F00104100000000004170000000000000     
100   62443100301716860000000000001960000000001960002000000010410406290746551655004367250629000007409592   1020000200030000   333400010001204104000000281Myanmar Soft-Gate Tech Yangon        MMR11006290746551655000629000000000000000   10300001F05104100000000000412000000000000     
100   62911028202470870000000000018900000000018900002000000010410406290741591347324773800629218014134732   1040001600030000   581420001161000000010000871Kin Sakura (Bo Aung Ky ygn           MMR11006290741591347320629000000000000000   10300001F00104100000000000567000000000000     
100   95050312498129060000000000005880000000005880002000000010410406291348411841104856270629000007411873   1020000200030000   333400010001204104000000281Myanmar Soft-Gate Tech Yangon        MMR11006291348411841100629000000000000000   10300001F05104100000000001235000000000000     
100   95050318575030940000000000035000000000035000002000000010410406290153392339303486430629000007406789   1030000200030000   333800010001203104000003327KBZPay                 Yangon        MMR11006290153392339300629000000000000000   10300001F05104100000000007350000000000000     
100   95050319502933380000000000001960000000001960002000000010410406291536550655386849140629000007412370   1020000200030000   333400010001204104000000281Myanmar Soft-Gate Tech Yangon        MMR11006291536550655380629000000000000000   10300001F05104100000000000412000000000000     
100   95050319938772870000000000000980000000000980002000000010410406291450482048254686070629000007412162   1020000200030000   333400010001204104000000281Myanmar Soft-Gate Tech Yangon        MMR11006291450482048250629000000000000000   10300001F05104100000000000206000000000000     
100   95050325139996190000000000203600000000203600002000000010410406290307133713493557730629000007407176   1030000200030000   333300010001203104000003632Myanmar Tradenet Test  Yangon        MMR11006290307133713490629000000000000000   10300001F05104100000000010000000000000000     
100   62911028202057620000000000100000000000100000002000000010410406290633460346534773800629000007408985   1030000200030000   333800010001203104000003327KBZPay                 Yangon        MMR11006290633460346530629000000000000000   10300001F05104100000000021000000000000000     
100   62911028202446700000000000000500000000000500002000000010410406291333460346914773800629000007411793   1030000200030000   333800010001203104000003327KBZPay                 Yangon        MMR11006291333460346910629000000000000000   10300001F05104100000000000105000000000000     
100   95050315110306410000000000003000000000003000002000000010410406291447091709976338560629000007412153   1030000200030000   333800010001203104000003327KBZPay                 Yangon        MMR11006291447091709970629000000000000000   10300001F05104100000000000630000000000000     
100   95050319928585020000000000001960000000001960002000000010410406291105123512117949670629000007411136   1020000200030000   333400010001204104000000281Myanmar Soft-Gate Tech Yangon        MMR11006291105123512110629000000000000000   10300001F05104100000000000412000000000000     
100   95050316067768680000000000000980000000000980002000000010410406291436580658541296010629000007412110   1020000200030000   333400010001204104000000281Myanmar Soft-Gate Tech Yangon        MMR11006291436580658540629000000000000000   10300001F05104100000000000206000000000000     
100   62911028202068280000000000001000000000001000002000000010410406291440331033974773800629000007412127   1030000200030000   333800010001203104000003327KBZPay                 Yangon        MMR11006291440331033970629000000000000000   10300001F05104100000000000210000000000000     
100   95050316321163940000000000000980000000000980002000000010410406291155252525185737170629000007411380   1020000200030000   333400010001204104000000281Myanmar Soft-Gate Tech Yangon        MMR11006291155252525180629000000000000000   10300001F05104100000000000206000000000000     
100   95050324250133010000000000005000000000005000002000000010410406290304093409010252770629000007407117   1030000200030000   333800010001203104000003327KBZPay                 Yangon        MMR11006290304093409010629000000000000000   10300001F05104100000000001050000000000000     
100   62911028202684060000000000063000000000063000002000000010410406290304531204914773800629218010120491   1040001600030000   598320000658000000010000527Shwe Taung Energy (YGN Yangon        MMR11006290304531204910629000000000000000   10300001F00104100000000001890000000000000     
100   62911028202217100000000000023750000000023750002000000010410406290849331380654773800629218015138065   1040001600030000   591220000276000000010000264Shwe Ohh Pharmacy (YGH Yangon        MMR11006290849331380650629000000000000000   10300001F00104100000000001425000000000000     
100   95050316067768680000000000000980000000000980002000000010410406291432460246282863390629000007412088   1020000200030000   333400010001204104000000281Myanmar Soft-Gate Tech Yangon        MMR11006291432460246280629000000000000000   10300001F05104100000000000206000000000000     
100   62911028202651050000000000066020000000066020002000000010410406290933540356664773800629000749208510   1030000200030000   541188001039000008000000010KBZ BANK               MARKETPLACE - MMR11006290933540356660629000000000000000   10300001 00104100000000003961000000000000     
100   95050312781844250000000000005000000000005000002000000010410406291249521952619132950629000007411605   1030000200030000   3334000100012031040000040102C2P (Myanmar) Co. Ltd Yangon        MMR11006291249521952610629000000000000000   10300001F05104100000000001050000000000000     
100   95030301100102610000000000010000000000010000002000000010410406291248521852284773800629000007411600   1030000200030000   333800010001203104000003327KBZPay                 Yangon        MMR11006291248521852280629000000000000000   10300001F05104100000000002100000000000000     
100   62911028202708080000000000300000000000300000002000000010410406291401073107524773800629000007411931   1030000200030000   333800010001203104000003327KBZPay                 Yangon        MMR11006291401073107520629000000000000000   10300001F05104100000000063000000000000000     
100   95050316785465380000000000000980000000000980002000000010410406290332010201507628570629000007407446   1020000200030000   333400010001204104000000281Myanmar Soft-Gate Tech Yangon        MMR11006290332010201500629000000000000000   10300001F05104100000000000206000000000000     
100   95030306100096490000000000002940000000002940002000000010410406290938300830464773800629000007410540   1020000200030000   333400010001204104000000281Myanmar Soft-Gate Tech Yangon        MMR11006290938300830460629000000000000000   10300001F05104100000000000617000000000000     
100   62911028202777790000000000010000000000010000002000000010410406290837130713174773800629000007409980   1030000200030000   333800010001203104000003327KBZPay                 Yangon        MMR11006290837130713170629000000000000000   10300001F05104100000000002100000000000000     
100   95050310794962000000000000005000000000005000002000000010410406291543321332715196650629000007412385   1030000200030000   3338000100012031040000040022C2P (Myanmar) Co. Ltd Yangon        MMR11006291543321332710629000000000000000   10300001F05104100000000001050000000000000     
100   95050311959900780000000000000980000000000980002000000010410406290749131913239168300629000007409612   1020000200030000   333400010001204104000000281Myanmar Soft-Gate Tech Yangon        MMR11006290749131913230629000000000000000   10300001F05104100000000000206000000000000     
100   95050318463049920000000000004500000000004500002000000010410406280744420007015083750628000352566913   1030000300030000   531100000831000000000000567CB BANK                MGOU-CP       MMR11006280744420007010628000000000000000   10300001F00104100000000001080000000000000     
100   62911028202421200000000000060000000000060000002000000010410406280828170012684773800628217914001268   1030000500030000   598320001704000015172200017MAX ENERGY             PTN           MMR11006280828170012680628000000000000000   10300001 00104100000000001800000000000000     
100   62443100373945130000000000017200000000017200002000000010410406280932260002496019810628000352581486   1030000300030000   531100000544000000000000376CB BANK                CAPITAL HYPER MMR11006280932260002490628000000000000000   10300001F00104100000000004128000000000000     
100   62911028202421040000000000016600000000016600002000000010410406280840500006064773800628217915000606   1030000500030000   541120229001000045411202290CITY MART SUPERMARKET  PTN           MMR11006280840500006060628000000000000000   10300001 00104100000000000996000000000000     
100   62911028202464020000000000003000000000003000002000000010410406280502500005574773800628217911000557   1030000500030000   591220014301014405912200143SHWE OHH PHARMACY      PTN           MMR11006280502500005570628000000000000000   10300001 00104100000000000180000000000000     
100   62911028202473430000000000021600000000021600002000000010410406280311480005534773800628217909000553   1030000500030000   591220014301014405912200143SHWE OHH PHARMACY      PTN           MMR11006280311480005530628000000000000000   10300001 00104100000000001296000000000000     
100   62911028202446700000000000011309000000011309002000000010410406280931160007254773800628217916000725   1030000500030000   541120231304000045411202313CITY MART (AYEYARWON)  PTN           MMR11006280931160007250628000000000000000   10300001 00104100000000000679000000000000     
100   62443101065883000000000000043079000000043079002000000010410406281129180012855770240628217917001285   1030000500030000   541120226405000045411202264MARKET PLACE MYANMARPL PTN           MMR11006281129180012850628000000000000000   10300001 00104100000000010770000000000000     
100   95050315099113150000000000001960000000001960002000000010410406290358072807028054050629000007407662   1020000200030000   333400010001204104000000281Myanmar Soft-Gate Tech Yangon        MMR11006290358072807020629000000000000000   10300001F05104100000000000412000000000000     
100   62911028202446700000000000013300000000013300002000000010410406291329165916974773800629000007411780   1030000200030000   333800010001203104000003327KBZPay                 Yangon        MMR11006291329165916970629000000000000000   10300001F05104100000000002793000000000000     
100   62911028202777790000000000002775000000002775002000000010410406290920435043124773800629000007410360   1030000200030000   333800010001203104000003327KBZPay                 Yangon        MMR11006290920435043120629000000000000000   10300001F05104100000000000583000000000000     
100   95050313411345710000000000001000000000001000002000000010410406291417064706354515880629000007412006   1030000200030000   3338000100012031040000040022C2P (Myanmar) Co. Ltd Yangon        MMR11006291417064706350629000000000000000   10300001F05104100000000000210000000000000     
100   95030390626214130000000000015000000000015000002000000010410406290620245024894773800629000007408875   1030000500030000   333800010001201104000003863AYA Pay                Yangon        MMR11006290620245024890629000000000000000   10300001F05104100000000003150000000000000     
100   95050312781844250000000000003000000000003000002000000010410406291126195619889843660629000007411229   1030000200030000   3334000100012031040000040102C2P (Myanmar) Co. Ltd Yangon        MMR11006291126195619880629000000000000000   10300001F05104100000000000630000000000000     
100   95050317728825080000000000017570000000017570002000000010410406290749468429643359880629128191446179   1030000900030000   541119000124190110000000080Sein Gay Har BAK       YANGONADA     MMR11006290749468429640629000000000000000   10300001F00104100000000004393000000000000     
100   95050324082484780000000000008650000000008650002000000010410406291310058533629218040629861401905179   1030000900030000   541119001294190110000000968Ocean Mingalar MDY C 2 MANDALAYHARSI MMR11006291310058533620629000000000000000   10300001F00104100000000002163000000000000     
